ASSEMBLY LISTING OF SEGMENT >udd>sm>ds>w>ml>apl_error_table_.alm
ASSEMBLED ON:	05/04/00  1648.8 mdt Thu
OPTIONS USED:	list symbols
ASSEMBLED BY:	ALM Version 8.14 March 1989
ASSEMBLER CREATED:	06/09/89  1102.3 mdt Fri

                                     1  "  ******************************************************
                                     2  "  *                                                    *
                                     3  "  *                                                    *
                                     4  "  * Copyright (c) 1972 by Massachusetts Institute of   *
                                     5  "  * Technology and Honeywell Information Systems, Inc. *
                                     6  "  *                                                    *
                                     7  "  *                                                    *
                                     8  "  ******************************************************
                                     9
                                    10  "  apl_error_table_.alm
                                    11
                                    12  "  initially typed in 7/7/73 by DAM
                                    13
                                    14  "  this error table has all the APL error messages
                                    15
                                    16  "  Modified by PG on 740516 to add cant_push_save_frame
                                    17  "  Modified 740625 by PG to add not_implemented
                                    18  "  Modified 740830 by PG to add ws_full_no_quota and bad_print_value.
                                    19  "  Modified 740909 by PG to add exec_restricted
                                    20  "  Modified 770106 by PG to add line_number_missing, and delete header_cannot_be_deleted
                                    21  "  Modified 770224 by PG to add incomplete_expansion
                                    22  "  Modified 771121 by PG to conv to ALM, add unknown_system_var, and various parse system errs
                                    23  "  Modified 780211 by PG to changed some WS FULLs to RESULT SIZE ERRORs.
                                    24  "  Modified 780227 by PG to add bead_already_free
                                    25  "  Modified 780504 by PG to add misplaced_diamond
                                    26  "  Modified 780505 by PG to stop listing bleeping object code
                                    27  "  Modified 780707 by William York to add file errors
                                    28  "  Modified 780901 by PG to add more codes for apl_load_command_.
                                    29  "  Modified 780909 by PG to add underscore_cant_begin_id.
                                    30  "  Modified 780914 by PG to put mapping_table here.
                                    31  "  Modified 780920 by PG to add mixed_diamonds_and_semicolons.
                                    32  "  Modified 780927 by PG to add cant_read_input
                                    33  "  Modified 781220 by PG to change several errors to NONCE ERRORs, and add some new ones.
                                    34  "  Modified 790327 by PG to add display_disabled.
                                    35  "  Modified 790625 by PG to add result_size
                                    36  "  Modified 790912 by PG to add function
                                    37  "  Modified 800819 by WMY to add rqo_on_file
                                    38  "  Modified 800821 by WMY to add bad_context_request
                                    39  "  Modified 810618 by WMY to add context editor errors missing_slash,
                                    40  "	bad_substitute, and bad_global_print.
                                    41  "
    000000                          42  	maclist	off
                                    43  	macro	maclist
                              1     44  	&end
                                    45
                                    46  	include	et_macros
                                   1-1  " Begin include file ...... et_macros.incl.alm
                                   1-2  "	Written 6/15/77 by Noel I. Morris
                                   1-3  "	Modified '82 so error code entries are in first page of segment.
                                   1-4
                                   1-5  " This include file contains macros for generating error tables
                                   1-6  " for both system and non-system use.
                                   1-7
                                   1-8  " ET MACRO
                                   1-9  "
                                  1-10  " This macro is used to initialize the error table for either
                                  1-11  " system or non-system use.  It is invoked at the beginning of
                                  1-12  " the error table as follows:
                                  1-13  "
                                  1-14  "	et	table_name{,system}
                                  1-15  "
                                  1-16
                                  1-17  macro	et
                              1   1-18  	maclist	on
                              2   1-19
                              3   1-20  	name	&1
                              4   1-21
                              5   1-22  &^=&2,system&[
                              6   1-23
                              7   1-24  	include	stack_header
                              8   1-25
                              9   1-26  
                             10   1-27
                             11   1-28  	use	codes
                             12   1-29  .code_start:
                             13   1-30
                             14   1-31  	use	past_codes
                             15   1-32  .code_end:
                             16   1-33
                             17   1-34  	join	/link/codes,past_codes
                             18   1-35
                             19   1-36  	use	messages
                             20   1-37
                             21   1-38  .trapproc:
                             22   1-39  	epaq	0,ic
                             23   1-40  	eax0	0,au
                             24   1-41  	epbpsb	sp|0
                             25   1-42  	lprplp	sb|stack_header.lot_ptr,*au
                             26   1-43  	eax1	.code_start
                             27   1-44  .loop:	stx0	lp|0,x1
                             28   1-45  	eax1	1,x1
                             29   1-46  	cmpx1	.code_end,du
                             30   1-47  	tmi	.loop-*,ic
                             31   1-48  	short_return
                             32   1-49
                             33   1-50  	firstref	<*text>|.trapproc
                             34   1-51
                             35   1-52  &;	use	codes
                             36   1-53  	use	messages
                             37   1-54
                             38   1-55  	join	/text/codes,messages
                             39   1-56
                             40   1-57  &]
                             41   1-58
                             42   1-59  	bool	.segno,77777
                             43   1-60
                             44   1-61  	maclist	off
                             45   1-62
                             46   1-63  	&end
                                  1-64
                                  1-65  
                                  1-66
                                  1-67  " EC MACRO
                                  1-68  "
                                  1-69  " This macro is used to define an error code as shown:
                                  1-70  "
                                  1-71  "	ec	name,{short_mess},(long_mess)
                                  1-72  "
                                  1-73  " If more than a single name is to be defined for a given message,
                                  1-74  " a list of names separated by commas and enclosed in parentheses
                                  1-75  " must be given.   short_mess must be 8 or less characters.  If omitted,
                                  1-76  " the short_mess will be set to the name.  long_mess is enclosed
                                  1-77  " in parentheses in order to cause ALM to ignore embedded blanks.  Please
                                  1-78  " note that double quote characters in either short_mess or long_mess
                                  1-79  " must be doubled in order to make the ALM assembly work properly.
                                  1-80  " Note that a macro invocation line terminated by a comma will cause that
                                  1-81  " statement to be continued on the next line.
                                  1-82
                                  1-83  macro	ec
                              1   1-84  	use	codes
                              2   1-85
                              3   1-86  	maclist	on,save
                              4   1-87  &(1	segdef  &i
                              5   1-88  &)	maclist	restore
                              6   1-89  &(1&i:
                              7   1-90  &)	maclist	object,save
                              8   1-91  	zero	.segno,&U
                              9   1-92  	maclist	restore
                             10   1-93  	use	messages
                             11   1-94  &^=&l2,0&[	shortname    &2
                             12   1-95  &;	shortname    &1
                             13   1-96  &]
                             14   1-97  &U:
                             15   1-98  	maclist	on,save
                             16   1-99  	acc  "&3"
                             17  1-100
                             18  1-101  	maclist	restore
                             19  1-102  	&end
                                 1-103
                                 1-104  macro	shortname
                              1  1-105  	maclist	on,save
                              2  1-106  	aci  "&1",8
                              3  1-107  	maclist	restore
                              4  1-108  	&end
                                 1-109
                                 1-110  
                                 1-111
                                 1-112  " A typical error table source program might have the following format:
                                 1-113  "
                                 1-114  "	include	et_macros
                                 1-115  "
                                 1-116  "	et	name_of_error_table
                                 1-117  "
                                 1-118  "	ec	error_code_1,ecode1,(This is error code 1.)
                                 1-119  "
                                 1-120  "	ec	error_code_2,ecode2,(This is error code 2.)
                                 1-121  "
                                 1-122  "	:	     :	      :		:
                                 1-123  "
                                 1-124  "	ec	error_code_n,ecoden,(This is the nth error code.)
                                 1-125  "
                                 1-126  "	end
                                 1-127  "
                                 1-128
                                 1-129  " End of include file ...... et_macros.incl.alm
                                 1-130
                                    47
                                    48  	et	apl_error_table_
                                    49
                                    50  "	LEX ERRORS
                                    51
                                    52  ec  duplicate_label,syntax,
                                    53  	(label appears on more than one line)
                                    54  ec  ill_inner_prod,syntax,
                                    55  	(malformed inner product)
                                    56  ec  ill_outer_prod,syntax,
                                    57  	(malformed outer product)
                                    58  ec  ill_reduction,syntax,
                                    59  	(reduction is not allowed with this function)
                                    60  ec  ill_scan,syntax,
                                    61  	(scan is not allowed with this function)
                                    62  ec  lex_screwed_up,system,
                                    63  	(internal error in the lex)
                                    64  ec  misplaced_diamond,syntax,
                                    65  	(misplaced diamond)
                                    66  ec  misplaced_right_arrow,syntax,
                                    67  	(misplaced right arrow)
                                    68  ec  misplaced_semicolon,syntax,
                                    69  	(misplaced semicolon)
                                    70  ec  mixed_diamonds_and_semicolons,syntax,
                                    71  	(line cannot contain both diamonds and semicolons)
                                    72  ec  not_end_with_newline,system,			" used by parse as well.
                                    73  	(text ends without a newline)
                                    74  ec  random_char,syntax,
                                    75  	(this character may only appear in a quoted string)
                                    76  ec  too_many_statements,nonce,
                                    77  	(only 100 statements per line)
                                    78  ec  underscore_cant_begin_id,syntax,
                                    79  	(an underscore cannot begin an identifier)
                                    80  ec  excess_right_parens,syntax,
                                    81  	(excess right parenthesis)
                                    82  ec  mismatched_parens,syntax,
                                    83  	(mismatched parentheses)
                                    84  ec  ill_opr_brackets,syntax,
                                    85  	(brackets are not allowed with this function)
                                    86  ec  misplaced_brackets,syntax,
                                    87  	(misplaced brackets)
                                    88  ec  excess_right_brackets,syntax,
                                    89  	(excess right bracket)
                                    90  ec  not_end_with_value,syntax,
                                    91  	(you need a value here)
                                    92  ec  ill_small_circle,syntax,
                                    93  	(apparent outer product does not contain a period)
                                    94  ec  unknown_system_name,syntax,
                                    95  	(unknown system variable or function)
                                    96  ec  ws_full_in_lex,nonce,
                                    97  	(function is too big)
                                    98  ec  constant_mism,syntax,
                                    99  	(adjacent constants must be both numeric or both character)
                                   100  ec  ill_paren_level,syntax,
                                   101  	(unmatched left parenthesis or bracket)
                                   102  ec  not_allowed_inner_prod,syntax,
                                   103  	(inner product is not allowed with this function)
                                   104  ec  not_allowed_outer_prod,syntax,
                                   105  	(outer product is not allowed with this function)
                                   106  ec  more_than_one_line,system,
                                   107  	(text contains more than one line)
                                   108  ec  extra_decimal_point,syntax,
                                   109  	(extra decimal point in number)
                                   110  ec  badass,syntax,
                                   111  	(malformed assignment)
                                   112  ec  lone_upper_minus,syntax,
                                   113  	(upper minus must be followed by a number)
                                   114  ec  lone_period,syntax,
                                   115  	(a number may not consist of only a decimal point)
                                   116  ec  excess_label,syntax,
                                   117  	(only one label per line is allowed)
                                   118  ec  random_char_in_hdr,defn,
                                   119  	(this character cannot appear in a function header line)
                                   120  ec  need_name,defn,
                                   121  	(you need a name here)
                                   122  ec  only_1_return_value,defn,
                                   123  	(only one return-value symbol may appear)
                                   124  ec  need_semicolon,defn,
                                   125  	(a semicolon must precede the list of local variables)
                                   126  ec  too_short_execute,syntax,
                                   127  	(incomplete expression)
                                   128  ec (mism_quotes,u_mism_ur_quotes),syntax,
                                   129  	(mismatched character string quotes)
                                   130  ec  more_than_one_line_execute,syntax,
                                   131  	(the string to be executed is not a single expression)
                                   132  ec  bad_subsc_assign_sys_var,nonce,
                                   133  	(subscripted assignment to this system variable is not allowed)
                                   134  ec  cant_be_localized,defn,
                                   135  	(name of system-variable being localized is misspelled)
                                   136
                                   137  "	PRIMITIVE OR EXTERNAL FUNCTION ERRORS
                                   138
                                   139  ec  compatibility_error,compat,
                                   140  	(this operator has been changed)
                                   141  ec  display_disabled,context,
                                   142  	(this operator requires debug mode)
                                   143  ec  domain,domain,
                                   144  	()
                                   145  ec  exec_restricted,context,
                                   146  	(Multics commands are restricted)
                                   147  ec  fixedoverflow,nonce,
                                   148  	(fixedoverflow condition)
                                   149  ec  function,function,
                                   150  	(in external function)
                                   151  ec  incomplete_expansion,length,
                                   152  	(number of ones is not equal to length of expansion coordinate)
                                   153  ec  index,index,
                                   154  	(bad subscript)
                                   155  ec  invalid_circular_fcn,domain,
                                   156  	(invalid left argument to circle)
                                   157  ec  iota_argument_not_vector,rank,
                                   158  	(dyadic iota requires vector left argument)
                                   159  ec  length,length,
                                   160  	()
                                   161  ec  no_identity,domain,
                                   162  	(this operator has no identity element)
                                   163  ec  not_implemented,context,
                                   164  	(this operator is not supported by this implementation)
                                   165  ec  not_within_int_fuzz,domain,
                                   166  	(value not integral)
                                   167  ec  operator_subscript_range,rank,
                                   168  	(subscript on function is out of range)
                                   169  ec  overflow,nonce,
                                   170  	(exponent overflow)
                                   171  ec  random_system_error,system,
                                   172  	(save output and contact maintenance personnel)
                                   173  ec  rank,rank,
                                   174  	()
                                   175  ec  system,system,
                                   176  	()
                                   177  ec  zerodivide,domain,
                                   178  	(attempt to divide by zero)
                                   179
                                   180  "	EDITOR ERRORS
                                   181
                                   182  ec  bad_substitute_syntax,defn,
                                   183  	(incorrect syntax in substitute request)
                                   184  ec  edited_pendent_fcn,si-damn,
                                   185  	(did not change pendent copy of function)
                                   186  ec  extra_text,defun,
                                   187  	(extraneous characters after end of line)
                                   188  ec  line_too_long_to_edit,nonce,
                                   189  	(line too long to edit)
                                   190  ec  labels_differ,si-damn,
                                   191  	(did not change suspended copy of function; labels differ)
                                   192  ec  locals_differ,si-damn,
                                   193  	(did not change suspended copy of function; local variables differ)
                                   194  ec  n_labels_differ,si-damn,
                                   195  	(did not change suspended copy of function; number of labels differ)
                                   196  ec  n_locals_differ,si-damn,
                                   197  	(did not change suspended copy of function; number of local variables differ)
                                   198  ec  substitute_failed,defn,
                                   199  	(substitution failed)
                                   200  ec  mismatched_editor_quotes,system,
                                   201  	(mismatched editor quotes)
                                   202  ec  empty_editor_brackets,defn,
                                   203  	(no line number or quad present in brackets)
                                   204  ec  missing_quad_or_rb,defn,
                                   205  	(expected quad or right bracket missing)
                                   206  ec  missing_number_or_rb,defn,
                                   207  	(expected number or right bracket missing)
                                   208  ec  missing_rb,defn,
                                   209  	(expected right bracket missing)
                                   210  ec  missing_number,defn,
                                   211  	(expected line number missing)
                                   212  ec  bad_token_in_brackets,defn,
                                   213  	(this character may not appear within editor brackets)
                                   214  ec  misplaced_left_arrow,defn,
                                   215  	(found left arrow where not expected)
                                   216  ec  missing_function_name,defn,
                                   217  	(function name expected in this position)
                                   218  ec  pendent_function_edited,defn,			" IBM and v1apl spell it pend_ent
                                   219  	(a pendent function may not be edited)
                                   220  ec  suspended_header,defn,
                                   221  	(you may not edit the header of a suspended function)
                                   222  ec  only_integer_after_quad,defn,
                                   223  	(only an integer may appear after an editing quad)
                                   224  ec  line_number_missing,defn,
                                   225  	(no line number specified)
                                   226  ec  complicated_header_line,defn,
                                   227  	(header line for pre-existing function may contain only function name)
                                   228  ec  non_function_edited,defn,
                                   229  	(attempt to edit a variable or group symbol)
                                   230  ec  locked_function_edited,defn,
                                   231  	(attempt to edit a locked function)
                                   232  ec  external_function_edited,defn,
                                   233  	(attempt to edit an external function)
                                   234  ec  variable_name_required,defn,
                                   235  	(a variable name is required in this position)
                                   236  ec  unmatched_editor_brackets,defn,
                                   237  	(a right bracket is required in this position)
                                   238  ec  bad_editor_bracket_syntax,defn,
                                   239  	(a right bracket or quad is required in this position)
                                   240  ec  del_in_wrong_place,defn,
                                   241  	(a del may only appear at the end of a definition line)
                                   242  ec  too_many_editor_digits,defn,
                                   243  	(a line number may contain only five digits to the right of the decimal point)
                                   244  ec  bad_function_header,defn,
                                   245  	(invalid header must be corrected before exiting editor)
                                   246  ec  bad_context_request,syntax,
                                   247  	(invalid context editing request)
                                   248  ec  missing_slash,syntax,
                                   249  	(search/substitute strings must be delimited by slashes)
                                   250  ec  bad_substitute,syntax,
                                   251  	(invalid substitute request)
                                   252  ec  bad_global_print,syntax,
                                   253  	(invalid global print request)
                                   254
                                   255  "	COMMAND ERRORS
                                   256
                                   257  ec  cant_autoload,command,
                                   258  	(unable to autoload ws.)
                                   259  ec  cant_save_ws,system,
                                   260  	(unable to save ws.)
                                   261  ec  cant_load_ws,system,
                                   262  	(unable to load saved ws due to internal format error.)
                                   263  ec  pendent_function_copied,si-damn,
                                   264  	(attempt to copy into a pendent function.)
                                   265  ec (pendent_function_erased,pendant_object_erased),si-damn,
                                   266  	(attempt to erase a pendent function.)
                                   267  ec  ws_dir_restricted,restrict,
                                   268  	(ws directory restricted to working dir.)
                                   269  ec  ws_locked,command,
                                   270  	(ws locked.)
                                   271  ec  ws_wrong_version,command,
                                   272  	(ws version incorrect.)
                                   273
                                   274  "	STORAGE MANAGER ERRORS
                                   275
                                   276  ec  attempt_to_free_not_temp,system,
                                   277  	(attempt to free a temporary segment which is not a temporary segment)
                                   278  ec  bead_already_free,system,
                                   279  	(attempt to free a bead that is already free)
                                   280  ec  no_type_bits,system,
                                   281  	(value has no type bits)
                                   282  ec  tables_inconsistent,system,
                                   283  	(internal error in storage manager)
                                   284  ec  hash_table_full,ws-full,
                                   285  	(storage manager hash table is full)
                                   286  ec  bead_not_known_to_apl,system,
                                   287  	(attempt to free bead in segment not known to apl)
                                   288  ec  cant_create_seg,system,
                                   289  	(no access to create segments in specified directory)
                                   290  ec  cant_truncate_seg,system,
                                   291  	(a freed temporary segment cannot be truncated)
                                   292  ec  invalid_free_bead,system,
                                   293  	(attempt to free a bead with non-zero reference count)
                                   294  ec  non_existent_stack,system,
                                   295  	(the value stack has gotten into a segment that was not assigned to it)
                                   296  ec  uninterned_symbol,system,
                                   297  	(symbol bead not in hash table)
                                   298  ec  temp_seg_already_exists,system,
                                   299  	(there exist other apl_seg_NNN temps not created by segment manager)
                                   300  ec (wsfull_alloc_too_big,result_size),res-size,
                                   301  	(object would be larger than a segment)
                                   302  ec  wsfull_no_stack_segs,ws-full,
                                   303  	(no more room for value stack)
                                   304  ec  wsfull_on_stack,res-size,
                                   305  	(temporary object would be larger than a segment)
                                   306  ec  wsfull_out_of_maps,ws-full,
                                   307  	(segment-map tables exhausted)
                                   308  ec  wsfull_out_of_segs,ws-full,
                                   309  	(segment tables exhausted)
                                   310
                                   311  "	SYSTEM VARIABLES ERRORS
                                   312
                                   313  ec  bad_assign_to_system_var,domain,
                                   314  	(attempt to assign an improper value to a system variable)
                                   315  ec  no_sv,syntax,
                                   316  	(shared variables are not supported by this implementation)
                                   317  ec  unknown_system_var,system,
                                   318  	(unknown system variable)
                                   319
                                   320  "	PARSE ERRORS
                                   321
                                   322  ec  assign_to_value,usage,
                                   323  	(assignment to non-variable)
                                   324  ec  assign_to_label,usage,
                                   325  	(attempt to redefine the value of a label)
                                   326  ec  bad_assignment,usage,
                                   327  	(invalid assignment)
                                   328  ec  bad_evaluated_input,usage,
                                   329  	(evaluated-input does not accept lists)
                                   330  ec  bad_execute,execute,
                                   331  	(the argument is not a single expression)
                                   332  ec  cant_get_stop_trace,usage,
                                   333  	(cannot get stop/trace control)
                                   334  ec (cant_push_save_frame,depth),depth,
                                   335  	(depth of function calls is too great)
                                   336  ec  cant_read_input,system,
                                   337  	(unable to read from apl_input_)
                                   338  ec  context,context,
                                   339  	(there is probably a missing function here)
                                   340  ec  done_line_system_error,system,
                                   341  	(bad frame type after finishing current line)
                                   342  ec  execute,execute,
                                   343  	(attempt to execute a malformed string)
                                   344  ec  improper_dyadic_usage,usage,
                                   345  	(this function may not be used dyadically)
                                   346  ec  improper_monadic_usage,usage,
                                   347  	(this function may not be used monadically)
                                   348  ec  improper_niladic_usage,usage,
                                   349  	(this function may not be used niladically)
                                   350  ec  interrupt,intr,
                                   351  	()
                                   352  ec  locked_function_error,domain,
                                   353  	(error occurred within locked function)
                                   354  ec  pull_assign_system_error,system,
                                   355  	(assignment to non-symbol)
                                   356  ec  pull_system_error,system,
                                   357  	(invalid lexeme or invalid meaning for name)
                                   358  ec  report_error_system_error,system,
                                   359  	(bad frame type while reporting another error)
                                   360  ec  super_dirty_stop,system,
                                   361  	(operation not complete)
                                   362  ec  too_much_input,nonce,
                                   363  	(input line is too long)
                                   364  ec  value,value,
                                   365  	()
                                   366  ec  ws_full_no_quota,ws-full,
                                   367  	(record quota overflow)
                                   368
                                   369  "	SUBSYSTEM ERRORS
                                   370
                                   371  ec  system_error,system,
                                   372  	()
                                   373
                                   374  "	SUBSYSTEM AND COMMAND STATUS CODES
                                   375
                                   376  ec  return_from_apl,system,
                                   377  	(status code apl_error_table_$return_from_apl)
                                   378  ec  ws_loaded,system,
                                   379  	(status code apl_error_table_$ws_loaded)
                                   380  ec  ws_cleared,system,
                                   381  	(status code apl_error_table_$ws_cleared)
                                   382  ec  off_hold,system,
                                   383  	(status code apl_error_table_$off_hold)
                                   384
                                   385  "	FILE SYSTEM ERRORS
                                   386
                                   387  ec  rqo_on_file,ws-full,			" ws full
                                   388  	(file space exhausted)
                                   389  ec  file_already_tied,ftied,			" file tied
                                   390  	(file already tied)
                                   391  ec  tie_num_in_use,tiedup,			" file tie error
                                   392  	(tie num already in use)
                                   393  ec  bad_tie_num,tiedup,			" file tie error
                                   394  	(number not tied to a file)
                                   395  ec  bad_component_num,badcomp,		" file index error
                                   396  	(component number out of range)
                                   397  ec  not_enough_components,badcomp,		" file index error
                                   398  	(file has fewer components than specified)
                                   399  ec  bad_apl_file,badfile,			" bad file format
                                   400  	(bad file format)
                                   401  ec  old_file_header,oldfile,			" old file version
                                   402  	(old file version)
                                   403  ec  file_already_exists,fnameerr,		" file name error
                                   404  	(file name duplication)
                                   405  ec  no_such_file,fnameerr,			" file name error
                                   406  	(file not found)
                                   407  ec  bad_file_name,fnameerr,			" file name error
                                   408  	(invalid file name)
                                   409  ec  bad_fname_match,fnameerr,			" file name error
                                   410  	(file name given does not match tied file name)
                                   411  ec  too_many_files,ftoomany,			" file tie quota used up
                                   412  	(maximum number of files exceeded)
                                   413  ec  no_write_permission,fmoderr,		" file access error
                                   414  	(user has no write access to file)
                                   415  ec  no_access_to_file,fmoderr,		" file access error
                                   416  	(user has no access to file)
                                   417  ec  bad_access_modes,badmatrx,
                                   418  	(invalid access modes supplied)
                                   419  ec  bad_access_matrix,badmatrx,
                                   420  	(badly formed access matrix)
                                   421  "
                                   422  "	Table used to map short names to long names.
                                   423  "
                                   424  	macro	map
                              1    425  	aci	"&1",8
                              2    426  	aci	"&2",24
                              3    427  	set	num_maps,num_maps+1
                              4    428  	&end
                                   429  "
                        000000     430  	set	num_maps,0		"initialize var to count number of map entries
                                   431  "
                        003635     432  	segdef	mapping_table
    003635                         433  mapping_table:
                                   434  	map	(domain),(domain error)
                                   435  	map	(defn),(defn error)
                                   436  	map	(index),(index error)
                                   437  	map	(length),(length error)
                                   438  	map	(rank),(rank error)
                                   439  	map	(syntax),(syntax error)
                                   440  	map	(value),(value error)
                                   441  	map	(depth),(depth error)
                                   442  	map	(system),(system error)
                                   443  	map	(ws-full),(ws full)
                                   444  	map	(si-damn),(si damage)
                                   445  	map	(intr),(interrupt)
                                   446  	map	(usage),(usage error)
                                   447  	map	(context),(context error)
                                   448  	map	(execute),(¼ error)	"that's a \274 there..._e.
                                   449  	map	(compat),(compatibility error)
                                   450  	map	(res-size),(result size error)
                                   451  	map	(nonce),(nonce error)
                                   452  	map	(command),(command error)
                                   453  	map	(function),(function error)
                                   454  	map	(ftied),(file tied)
                                   455  	map	(tiedup),(file tie error)
                                   456  	map	(badcomp),(file index error)
                                   457  	map	(badfile),(bad file format)
                                   458  	map	(oldfile),(old file version)
                                   459  	map	(fnameerr),(file name error)
                                   460  	map	(ftoomany),(file tie quota used up)
                                   461  	map	(fmoderr),(file access error)
                                   462  	map	(badmatrx),(bad access matrix)
                                   463
                        004205     464  	segdef	n_map_entries
    004205                         465  n_map_entries:
    004205  aa   000000 000035     466  	zero	0,num_maps
                                   467
                                   468  	end

NO LITERALS

NAME DEFINITIONS FOR ENTRY POINTS AND SEGDEFS

    004206  5a   000003 000000
    004207  5a   002545 600000
    004210  aa   000000 000000
    004211  55   000013 000002
    004212  5a   000002 400003
    004213  55   000006 000013
    004214  aa  020 141 160 154
    004215  aa  137 145 162 162
    004216  aa  157 162 137 164
    004217  aa  141 142 154 145
    004220  aa  137 000 000 000
    004221  55   000022 000003
    004222  0a   004205 400000
    004223  55   000016 000003
    004224  aa  015 156 137 155         n_map_entries
    004225  aa  141 160 137 145
    004226  aa  156 164 162 151
    004227  aa  145 163 000 000
    004230  55   000031 000013
    004231  0a   003635 400000
    004232  55   000025 000003
    004233  aa  015 155 141 160         mapping_table
    004234  aa  160 151 156 147
    004235  aa  137 164 141 142
    004236  aa  154 145 000 000
    004237  55   000041 000022
    004240  2a   000262 400001
    004241  55   000034 000003
    004242  aa  021 142 141 144         bad_access_matrix
    004243  aa  137 141 143 143
    004244  aa  145 163 163 137
    004245  aa  155 141 164 162
    004246  aa  151 170 000 000
    004247  55   000051 000031
    004250  2a   000261 400001
    004251  55   000044 000003
    004252  aa  020 142 141 144         bad_access_modes
    004253  aa  137 141 143 143
    004254  aa  145 163 163 137
    004255  aa  155 157 144 145
    004256  aa  163 000 000 000
    004257  55   000061 000041
    004260  2a   000260 400001
    004261  55   000054 000003
    004262  aa  021 156 157 137         no_access_to_file
    004263  aa  141 143 143 145
    004264  aa  163 163 137 164
    004265  aa  157 137 146 151
    004266  aa  154 145 000 000
    004267  55   000071 000051
    004270  2a   000257 400001
    004271  55   000064 000003
    004272  aa  023 156 157 137         no_write_permission
    004273  aa  167 162 151 164
    004274  aa  145 137 160 145
    004275  aa  162 155 151 163
    004276  aa  163 151 157 156
    004277  55   000100 000061
    004300  2a   000256 400001
    004301  55   000074 000003
    004302  aa  016 164 157 157         too_many_files
    004303  aa  137 155 141 156
    004304  aa  171 137 146 151
    004305  aa  154 145 163 000
    004306  55   000107 000071
    004307  2a   000255 400001
    004310  55   000103 000003
    004311  aa  017 142 141 144         bad_fname_match
    004312  aa  137 146 156 141
    004313  aa  155 145 137 155
    004314  aa  141 164 143 150
    004315  55   000116 000100
    004316  2a   000254 400001
    004317  55   000112 000003
    004320  aa  015 142 141 144         bad_file_name
    004321  aa  137 146 151 154
    004322  aa  145 137 156 141
    004323  aa  155 145 000 000
    004324  55   000125 000107
    004325  2a   000253 400001
    004326  55   000121 000003
    004327  aa  014 156 157 137         no_such_file
    004330  aa  163 165 143 150
    004331  aa  137 146 151 154
    004332  aa  145 000 000 000
    004333  55   000135 000116
    004334  2a   000252 400001
    004335  55   000130 000003
    004336  aa  023 146 151 154         file_already_exists
    004337  aa  145 137 141 154
    004340  aa  162 145 141 144
    004341  aa  171 137 145 170
    004342  aa  151 163 164 163
    004343  55   000144 000125
    004344  2a   000251 400001
    004345  55   000140 000003
    004346  aa  017 157 154 144         old_file_header
    004347  aa  137 146 151 154
    004350  aa  145 137 150 145
    004351  aa  141 144 145 162
    004352  55   000153 000135
    004353  2a   000250 400001
    004354  55   000147 000003
    004355  aa  014 142 141 144         bad_apl_file
    004356  aa  137 141 160 154
    004357  aa  137 146 151 154
    004360  aa  145 000 000 000
    004361  55   000164 000144
    004362  2a   000247 400001
    004363  55   000156 000003
    004364  aa  025 156 157 164         not_enough_components
    004365  aa  137 145 156 157
    004366  aa  165 147 150 137
    004367  aa  143 157 155 160
    004370  aa  157 156 145 156
    004371  aa  164 163 000 000
    004372  55   000174 000153
    004373  2a   000246 400001
    004374  55   000167 000003
    004375  aa  021 142 141 144         bad_component_num
    004376  aa  137 143 157 155
    004377  aa  160 157 156 145
    004400  aa  156 164 137 156
    004401  aa  165 155 000 000
    004402  55   000202 000164
    004403  2a   000245 400001
    004404  55   000177 000003
    004405  aa  013 142 141 144         bad_tie_num
    004406  aa  137 164 151 145
    004407  aa  137 156 165 155
    004410  55   000211 000174
    004411  2a   000244 400001
    004412  55   000205 000003
    004413  aa  016 164 151 145         tie_num_in_use
    004414  aa  137 156 165 155
    004415  aa  137 151 156 137
    004416  aa  165 163 145 000
    004417  55   000221 000202
    004420  2a   000243 400001
    004421  55   000214 000003
    004422  aa  021 146 151 154         file_already_tied
    004423  aa  145 137 141 154
    004424  aa  162 145 141 144
    004425  aa  171 137 164 151
    004426  aa  145 144 000 000
    004427  55   000227 000211
    004430  2a   000242 400001
    004431  55   000224 000003
    004432  aa  013 162 161 157         rqo_on_file
    004433  aa  137 157 156 137
    004434  aa  146 151 154 145
    004435  55   000235 000221
    004436  2a   000241 400001
    004437  55   000232 000003
    004440  aa  010 157 146 146         off_hold
    004441  aa  137 150 157 154
    004442  aa  144 000 000 000
    004443  55   000243 000227
    004444  2a   000240 400001
    004445  55   000240 000003
    004446  aa  012 167 163 137         ws_cleared
    004447  aa  143 154 145 141
    004450  aa  162 145 144 000
    004451  55   000251 000235
    004452  2a   000237 400001
    004453  55   000246 000003
    004454  aa  011 167 163 137         ws_loaded
    004455  aa  154 157 141 144
    004456  aa  145 144 000 000
    004457  55   000260 000243
    004460  2a   000236 400001
    004461  55   000254 000003
    004462  aa  017 162 145 164         return_from_apl
    004463  aa  165 162 156 137
    004464  aa  146 162 157 155
    004465  aa  137 141 160 154
    004466  55   000267 000251
    004467  2a   000235 400001
    004470  55   000263 000003
    004471  aa  014 163 171 163         system_error
    004472  aa  164 145 155 137
    004473  aa  145 162 162 157
    004474  aa  162 000 000 000
    004475  55   000277 000260
    004476  2a   000234 400001
    004477  55   000272 000003
    004500  aa  020 167 163 137         ws_full_no_quota
    004501  aa  146 165 154 154
    004502  aa  137 156 157 137
    004503  aa  161 165 157 164
    004504  aa  141 000 000 000
    004505  55   000304 000267
    004506  2a   000233 400001
    004507  55   000302 000003
    004510  aa  005 166 141 154         value
    004511  aa  165 145 000 000
    004512  55   000313 000277
    004513  2a   000232 400001
    004514  55   000307 000003
    004515  aa  016 164 157 157         too_much_input
    004516  aa  137 155 165 143
    004517  aa  150 137 151 156
    004520  aa  160 165 164 000
    004521  55   000323 000304
    004522  2a   000231 400001
    004523  55   000316 000003
    004524  aa  020 163 165 160         super_dirty_stop
    004525  aa  145 162 137 144
    004526  aa  151 162 164 171
    004527  aa  137 163 164 157
    004530  aa  160 000 000 000
    004531  55   000335 000313
    004532  2a   000230 400001
    004533  55   000326 000003
    004534  aa  031 162 145 160         report_error_system_error
    004535  aa  157 162 164 137
    004536  aa  145 162 162 157
    004537  aa  162 137 163 171
    004540  aa  163 164 145 155
    004541  aa  137 145 162 162
    004542  aa  157 162 000 000
    004543  55   000345 000323
    004544  2a   000227 400001
    004545  55   000340 000003
    004546  aa  021 160 165 154         pull_system_error
    004547  aa  154 137 163 171
    004550  aa  163 164 145 155
    004551  aa  137 145 162 162
    004552  aa  157 162 000 000
    004553  55   000357 000335
    004554  2a   000226 400001
    004555  55   000350 000003
    004556  aa  030 160 165 154         pull_assign_system_error
    004557  aa  154 137 141 163
    004560  aa  163 151 147 156
    004561  aa  137 163 171 163
    004562  aa  164 145 155 137
    004563  aa  145 162 162 157
    004564  aa  162 000 000 000
    004565  55   000370 000345
    004566  2a   000225 400001
    004567  55   000362 000003
    004570  aa  025 154 157 143         locked_function_error
    004571  aa  153 145 144 137
    004572  aa  146 165 156 143
    004573  aa  164 151 157 156
    004574  aa  137 145 162 162
    004575  aa  157 162 000 000
    004576  55   000376 000357
    004577  2a   000224 400001
    004600  55   000373 000003
    004601  aa  011 151 156 164         interrupt
    004602  aa  145 162 162 165
    004603  aa  160 164 000 000
    004604  55   000407 000370
    004605  2a   000223 400001
    004606  55   000401 000003
    004607  aa  026 151 155 160         improper_niladic_usage
    004610  aa  162 157 160 145
    004611  aa  162 137 156 151
    004612  aa  154 141 144 151
    004613  aa  143 137 165 163
    004614  aa  141 147 145 000
    004615  55   000420 000376
    004616  2a   000222 400001
    004617  55   000412 000003
    004620  aa  026 151 155 160         improper_monadic_usage
    004621  aa  162 157 160 145
    004622  aa  162 137 155 157
    004623  aa  156 141 144 151
    004624  aa  143 137 165 163
    004625  aa  141 147 145 000
    004626  55   000431 000407
    004627  2a   000221 400001
    004630  55   000423 000003
    004631  aa  025 151 155 160         improper_dyadic_usage
    004632  aa  162 157 160 145
    004633  aa  162 137 144 171
    004634  aa  141 144 151 143
    004635  aa  137 165 163 141
    004636  aa  147 145 000 000
    004637  55   000436 000420
    004640  2a   000220 400001
    004641  55   000434 000003
    004642  aa  007 145 170 145         execute
    004643  aa  143 165 164 145
    004644  55   000447 000431
    004645  2a   000217 400001
    004646  55   000441 000003
    004647  aa  026 144 157 156         done_line_system_error
    004650  aa  145 137 154 151
    004651  aa  156 145 137 163
    004652  aa  171 163 164 145
    004653  aa  155 137 145 162
    004654  aa  162 157 162 000
    004655  55   000454 000436
    004656  2a   000216 400001
    004657  55   000452 000003
    004660  aa  007 143 157 156         context
    004661  aa  164 145 170 164
    004662  55   000463 000447
    004663  2a   000215 400001
    004664  55   000457 000003
    004665  aa  017 143 141 156         cant_read_input
    004666  aa  164 137 162 145
    004667  aa  141 144 137 151
    004670  aa  156 160 165 164
    004671  55   000470 000454
    004672  2a   000214 400001
    004673  55   000466 000003
    004674  aa  005 144 145 160         depth
    004675  aa  164 150 000 000
    004676  55   000501 000463
    004677  2a   000214 400001
    004700  55   000473 000003
    004701  aa  024 143 141 156         cant_push_save_frame
    004702  aa  164 137 160 165
    004703  aa  163 150 137 163
    004704  aa  141 166 145 137
    004705  aa  146 162 141 155
    004706  aa  145 000 000 000
    004707  55   000511 000470
    004710  2a   000213 400001
    004711  55   000504 000003
    004712  aa  023 143 141 156         cant_get_stop_trace
    004713  aa  164 137 147 145
    004714  aa  164 137 163 164
    004715  aa  157 160 137 164
    004716  aa  162 141 143 145
    004717  55   000517 000501
    004720  2a   000212 400001
    004721  55   000514 000003
    004722  aa  013 142 141 144         bad_execute
    004723  aa  137 145 170 145
    004724  aa  143 165 164 145
    004725  55   000527 000511
    004726  2a   000211 400001
    004727  55   000522 000003
    004730  aa  023 142 141 144         bad_evaluated_input
    004731  aa  137 145 166 141
    004732  aa  154 165 141 164
    004733  aa  145 144 137 151
    004734  aa  156 160 165 164
    004735  55   000536 000517
    004736  2a   000210 400001
    004737  55   000532 000003
    004740  aa  016 142 141 144         bad_assignment
    004741  aa  137 141 163 163
    004742  aa  151 147 156 155
    004743  aa  145 156 164 000
    004744  55   000545 000527
    004745  2a   000207 400001
    004746  55   000541 000003
    004747  aa  017 141 163 163         assign_to_label
    004750  aa  151 147 156 137
    004751  aa  164 157 137 154
    004752  aa  141 142 145 154
    004753  55   000554 000536
    004754  2a   000206 400001
    004755  55   000550 000003
    004756  aa  017 141 163 163         assign_to_value
    004757  aa  151 147 156 137
    004760  aa  164 157 137 166
    004761  aa  141 154 165 145
    004762  55   000564 000545
    004763  2a   000205 400001
    004764  55   000557 000003
    004765  aa  022 165 156 153         unknown_system_var
    004766  aa  156 157 167 156
    004767  aa  137 163 171 163
    004770  aa  164 145 155 137
    004771  aa  166 141 162 000
    004772  55   000571 000554
    004773  2a   000204 400001
    004774  55   000567 000003
    004775  aa  005 156 157 137         no_sv
    004776  aa  163 166 000 000
    004777  55   000603 000564
    005000  2a   000203 400001
    005001  55   000574 000003
    005002  aa  030 142 141 144         bad_assign_to_system_var
    005003  aa  137 141 163 163
    005004  aa  151 147 156 137
    005005  aa  164 157 137 163
    005006  aa  171 163 164 145
    005007  aa  155 137 166 141
    005010  aa  162 000 000 000
    005011  55   000613 000571
    005012  2a   000202 400001
    005013  55   000606 000003
    005014  aa  022 167 163 146         wsfull_out_of_segs
    005015  aa  165 154 154 137
    005016  aa  157 165 164 137
    005017  aa  157 146 137 163
    005020  aa  145 147 163 000
    005021  55   000623 000603
    005022  2a   000201 400001
    005023  55   000616 000003
    005024  aa  022 167 163 146         wsfull_out_of_maps
    005025  aa  165 154 154 137
    005026  aa  157 165 164 137
    005027  aa  157 146 137 155
    005030  aa  141 160 163 000
    005031  55   000632 000613
    005032  2a   000200 400001
    005033  55   000626 000003
    005034  aa  017 167 163 146         wsfull_on_stack
    005035  aa  165 154 154 137
    005036  aa  157 156 137 163
    005037  aa  164 141 143 153
    005040  55   000643 000623
    005041  2a   000177 400001
    005042  55   000635 000003
    005043  aa  024 167 163 146         wsfull_no_stack_segs
    005044  aa  165 154 154 137
    005045  aa  156 157 137 163
    005046  aa  164 141 143 153
    005047  aa  137 163 145 147
    005050  aa  163 000 000 000
    005051  55   000651 000632
    005052  2a   000176 400001
    005053  55   000646 000003
    005054  aa  013 162 145 163         result_size
    005055  aa  165 154 164 137
    005056  aa  163 151 172 145
    005057  55   000662 000643
    005060  2a   000176 400001
    005061  55   000654 000003
    005062  aa  024 167 163 146         wsfull_alloc_too_big
    005063  aa  165 154 154 137
    005064  aa  141 154 154 157
    005065  aa  143 137 164 157
    005066  aa  157 137 142 151
    005067  aa  147 000 000 000
    005070  55   000673 000651
    005071  2a   000175 400001
    005072  55   000665 000003
    005073  aa  027 164 145 155         temp_seg_already_exists
    005074  aa  160 137 163 145
    005075  aa  147 137 141 154
    005076  aa  162 145 141 144
    005077  aa  171 137 145 170
    005100  aa  151 163 164 163
    005101  55   000703 000662
    005102  2a   000174 400001
    005103  55   000676 000003
    005104  aa  021 165 156 151         uninterned_symbol
    005105  aa  156 164 145 162
    005106  aa  156 145 144 137
    005107  aa  163 171 155 142
    005110  aa  157 154 000 000
    005111  55   000713 000673
    005112  2a   000173 400001
    005113  55   000706 000003
    005114  aa  022 156 157 156         non_existent_stack
    005115  aa  137 145 170 151
    005116  aa  163 164 145 156
    005117  aa  164 137 163 164
    005120  aa  141 143 153 000
    005121  55   000723 000703
    005122  2a   000172 400001
    005123  55   000716 000003
    005124  aa  021 151 156 166         invalid_free_bead
    005125  aa  141 154 151 144
    005126  aa  137 146 162 145
    005127  aa  145 137 142 145
    005130  aa  141 144 000 000
    005131  55   000733 000713
    005132  2a   000171 400001
    005133  55   000726 000003
    005134  aa  021 143 141 156         cant_truncate_seg
    005135  aa  164 137 164 162
    005136  aa  165 156 143 141
    005137  aa  164 145 137 163
    005140  aa  145 147 000 000
    005141  55   000742 000723
    005142  2a   000170 400001
    005143  55   000736 000003
    005144  aa  017 143 141 156         cant_create_seg
    005145  aa  164 137 143 162
    005146  aa  145 141 164 145
    005147  aa  137 163 145 147
    005150  55   000753 000733
    005151  2a   000167 400001
    005152  55   000745 000003
    005153  aa  025 142 145 141         bead_not_known_to_apl
    005154  aa  144 137 156 157
    005155  aa  164 137 153 156
    005156  aa  157 167 156 137
    005157  aa  164 157 137 141
    005160  aa  160 154 000 000
    005161  55   000762 000742
    005162  2a   000166 400001
    005163  55   000756 000003
    005164  aa  017 150 141 163         hash_table_full
    005165  aa  150 137 164 141
    005166  aa  142 154 145 137
    005167  aa  146 165 154 154
    005170  55   000772 000753
    005171  2a   000165 400001
    005172  55   000765 000003
    005173  aa  023 164 141 142         tables_inconsistent
    005174  aa  154 145 163 137
    005175  aa  151 156 143 157
    005176  aa  156 163 151 163
    005177  aa  164 145 156 164
    005200  55   001001 000762
    005201  2a   000164 400001
    005202  55   000775 000003
    005203  aa  014 156 157 137         no_type_bits
    005204  aa  164 171 160 145
    005205  aa  137 142 151 164
    005206  aa  163 000 000 000
    005207  55   001011 000772
    005210  2a   000163 400001
    005211  55   001004 000003
    005212  aa  021 142 145 141         bead_already_free
    005213  aa  144 137 141 154
    005214  aa  162 145 141 144
    005215  aa  171 137 146 162
    005216  aa  145 145 000 000
    005217  55   001023 001001
    005220  2a   000162 400001
    005221  55   001014 000003
    005222  aa  030 141 164 164         attempt_to_free_not_temp
    005223  aa  145 155 160 164
    005224  aa  137 164 157 137
    005225  aa  146 162 145 145
    005226  aa  137 156 157 164
    005227  aa  137 164 145 155
    005230  aa  160 000 000 000
    005231  55   001033 001011
    005232  2a   000161 400001
    005233  55   001026 000003
    005234  aa  020 167 163 137         ws_wrong_version
    005235  aa  167 162 157 156
    005236  aa  147 137 166 145
    005237  aa  162 163 151 157
    005240  aa  156 000 000 000
    005241  55   001041 001023
    005242  2a   000160 400001
    005243  55   001036 000003
    005244  aa  011 167 163 137         ws_locked
    005245  aa  154 157 143 153
    005246  aa  145 144 000 000
    005247  55   001051 001033
    005250  2a   000157 400001
    005251  55   001044 000003
    005252  aa  021 167 163 137         ws_dir_restricted
    005253  aa  144 151 162 137
    005254  aa  162 145 163 164
    005255  aa  162 151 143 164
    005256  aa  145 144 000 000
    005257  55   001062 001041
    005260  2a   000156 400001
    005261  55   001054 000003
    005262  aa  025 160 145 156         pendant_object_erased
    005263  aa  144 141 156 164
    005264  aa  137 157 142 152
    005265  aa  145 143 164 137
    005266  aa  145 162 141 163
    005267  aa  145 144 000 000
    005270  55   001073 001051
    005271  2a   000156 400001
    005272  55   001065 000003
    005273  aa  027 160 145 156         pendent_function_erased
    005274  aa  144 145 156 164
    005275  aa  137 146 165 156
    005276  aa  143 164 151 157
    005277  aa  156 137 145 162
    005300  aa  141 163 145 144
    005301  55   001104 001062
    005302  2a   000155 400001
    005303  55   001076 000003
    005304  aa  027 160 145 156         pendent_function_copied
    005305  aa  144 145 156 164
    005306  aa  137 146 165 156
    005307  aa  143 164 151 157
    005310  aa  156 137 143 157
    005311  aa  160 151 145 144
    005312  55   001113 001073
    005313  2a   000154 400001
    005314  55   001107 000003
    005315  aa  014 143 141 156         cant_load_ws
    005316  aa  164 137 154 157
    005317  aa  141 144 137 167
    005320  aa  163 000 000 000
    005321  55   001122 001104
    005322  2a   000153 400001
    005323  55   001116 000003
    005324  aa  014 143 141 156         cant_save_ws
    005325  aa  164 137 163 141
    005326  aa  166 145 137 167
    005327  aa  163 000 000 000
    005330  55   001131 001113
    005331  2a   000152 400001
    005332  55   001125 000003
    005333  aa  015 143 141 156         cant_autoload
    005334  aa  164 137 141 165
    005335  aa  164 157 154 157
    005336  aa  141 144 000 000
    005337  55   001141 001122
    005340  2a   000151 400001
    005341  55   001134 000003
    005342  aa  020 142 141 144         bad_global_print
    005343  aa  137 147 154 157
    005344  aa  142 141 154 137
    005345  aa  160 162 151 156
    005346  aa  164 000 000 000
    005347  55   001150 001131
    005350  2a   000150 400001
    005351  55   001144 000003
    005352  aa  016 142 141 144         bad_substitute
    005353  aa  137 163 165 142
    005354  aa  163 164 151 164
    005355  aa  165 164 145 000
    005356  55   001157 001141
    005357  2a   000147 400001
    005360  55   001153 000003
    005361  aa  015 155 151 163         missing_slash
    005362  aa  163 151 156 147
    005363  aa  137 163 154 141
    005364  aa  163 150 000 000
    005365  55   001167 001150
    005366  2a   000146 400001
    005367  55   001162 000003
    005370  aa  023 142 141 144         bad_context_request
    005371  aa  137 143 157 156
    005372  aa  164 145 170 164
    005373  aa  137 162 145 161
    005374  aa  165 145 163 164
    005375  55   001177 001157
    005376  2a   000145 400001
    005377  55   001172 000003
    005400  aa  023 142 141 144         bad_function_header
    005401  aa  137 146 165 156
    005402  aa  143 164 151 157
    005403  aa  156 137 150 145
    005404  aa  141 144 145 162
    005405  55   001210 001167
    005406  2a   000144 400001
    005407  55   001202 000003
    005410  aa  026 164 157 157         too_many_editor_digits
    005411  aa  137 155 141 156
    005412  aa  171 137 145 144
    005413  aa  151 164 157 162
    005414  aa  137 144 151 147
    005415  aa  151 164 163 000
    005416  55   001220 001177
    005417  2a   000143 400001
    005420  55   001213 000003
    005421  aa  022 144 145 154         del_in_wrong_place
    005422  aa  137 151 156 137
    005423  aa  167 162 157 156
    005424  aa  147 137 160 154
    005425  aa  141 143 145 000
    005426  55   001232 001210
    005427  2a   000142 400001
    005430  55   001223 000003
    005431  aa  031 142 141 144         bad_editor_bracket_syntax
    005432  aa  137 145 144 151
    005433  aa  164 157 162 137
    005434  aa  142 162 141 143
    005435  aa  153 145 164 137
    005436  aa  163 171 156 164
    005437  aa  141 170 000 000
    005440  55   001244 001220
    005441  2a   000141 400001
    005442  55   001235 000003
    005443  aa  031 165 156 155         unmatched_editor_brackets
    005444  aa  141 164 143 150
    005445  aa  145 144 137 145
    005446  aa  144 151 164 157
    005447  aa  162 137 142 162
    005450  aa  141 143 153 145
    005451  aa  164 163 000 000
    005452  55   001255 001232
    005453  2a   000140 400001
    005454  55   001247 000003
    005455  aa  026 166 141 162         variable_name_required
    005456  aa  151 141 142 154
    005457  aa  145 137 156 141
    005460  aa  155 145 137 162
    005461  aa  145 161 165 151
    005462  aa  162 145 144 000
    005463  55   001267 001244
    005464  2a   000137 400001
    005465  55   001260 000003
    005466  aa  030 145 170 164         external_function_edited
    005467  aa  145 162 156 141
    005470  aa  154 137 146 165
    005471  aa  156 143 164 151
    005472  aa  157 156 137 145
    005473  aa  144 151 164 145
    005474  aa  144 000 000 000
    005475  55   001300 001255
    005476  2a   000136 400001
    005477  55   001272 000003
    005500  aa  026 154 157 143         locked_function_edited
    005501  aa  153 145 144 137
    005502  aa  146 165 156 143
    005503  aa  164 151 157 156
    005504  aa  137 145 144 151
    005505  aa  164 145 144 000
    005506  55   001310 001267
    005507  2a   000135 400001
    005510  55   001303 000003
    005511  aa  023 156 157 156         non_function_edited
    005512  aa  137 146 165 156
    005513  aa  143 164 151 157
    005514  aa  156 137 145 144
    005515  aa  151 164 145 144
    005516  55   001321 001300
    005517  2a   000134 400001
    005520  55   001313 000003
    005521  aa  027 143 157 155         complicated_header_line
    005522  aa  160 154 151 143
    005523  aa  141 164 145 144
    005524  aa  137 150 145 141
    005525  aa  144 145 162 137
    005526  aa  154 151 156 145
    005527  55   001331 001310
    005530  2a   000133 400001
    005531  55   001324 000003
    005532  aa  023 154 151 156         line_number_missing
    005533  aa  145 137 156 165
    005534  aa  155 142 145 162
    005535  aa  137 155 151 163
    005536  aa  163 151 156 147
    005537  55   001342 001321
    005540  2a   000132 400001
    005541  55   001334 000003
    005542  aa  027 157 156 154         only_integer_after_quad
    005543  aa  171 137 151 156
    005544  aa  164 145 147 145
    005545  aa  162 137 141 146
    005546  aa  164 145 162 137
    005547  aa  161 165 141 144
    005550  55   001352 001331
    005551  2a   000131 400001
    005552  55   001345 000003
    005553  aa  020 163 165 163         suspended_header
    005554  aa  160 145 156 144
    005555  aa  145 144 137 150
    005556  aa  145 141 144 145
    005557  aa  162 000 000 000
    005560  55   001363 001342
    005561  2a   000130 400001
    005562  55   001355 000003
    005563  aa  027 160 145 156         pendent_function_edited
    005564  aa  144 145 156 164
    005565  aa  137 146 165 156
    005566  aa  143 164 151 157
    005567  aa  156 137 145 144
    005570  aa  151 164 145 144
    005571  55   001374 001352
    005572  2a   000127 400001
    005573  55   001366 000003
    005574  aa  025 155 151 163         missing_function_name
    005575  aa  163 151 156 147
    005576  aa  137 146 165 156
    005577  aa  143 164 151 157
    005600  aa  156 137 156 141
    005601  aa  155 145 000 000
    005602  55   001405 001363
    005603  2a   000126 400001
    005604  55   001377 000003
    005605  aa  024 155 151 163         misplaced_left_arrow
    005606  aa  160 154 141 143
    005607  aa  145 144 137 154
    005610  aa  145 146 164 137
    005611  aa  141 162 162 157
    005612  aa  167 000 000 000
    005613  55   001416 001374
    005614  2a   000125 400001
    005615  55   001410 000003
    005616  aa  025 142 141 144         bad_token_in_brackets
    005617  aa  137 164 157 153
    005620  aa  145 156 137 151
    005621  aa  156 137 142 162
    005622  aa  141 143 153 145
    005623  aa  164 163 000 000
    005624  55   001425 001405
    005625  2a   000124 400001
    005626  55   001421 000003
    005627  aa  016 155 151 163         missing_number
    005630  aa  163 151 156 147
    005631  aa  137 156 165 155
    005632  aa  142 145 162 000
    005633  55   001433 001416
    005634  2a   000123 400001
    005635  55   001430 000003
    005636  aa  012 155 151 163         missing_rb
    005637  aa  163 151 156 147
    005640  aa  137 162 142 000
    005641  55   001444 001425
    005642  2a   000122 400001
    005643  55   001436 000003
    005644  aa  024 155 151 163         missing_number_or_rb
    005645  aa  163 151 156 147
    005646  aa  137 156 165 155
    005647  aa  142 145 162 137
    005650  aa  157 162 137 162
    005651  aa  142 000 000 000
    005652  55   001454 001433
    005653  2a   000121 400001
    005654  55   001447 000003
    005655  aa  022 155 151 163         missing_quad_or_rb
    005656  aa  163 151 156 147
    005657  aa  137 161 165 141
    005660  aa  144 137 157 162
    005661  aa  137 162 142 000
    005662  55   001465 001444
    005663  2a   000120 400001
    005664  55   001457 000003
    005665  aa  025 145 155 160         empty_editor_brackets
    005666  aa  164 171 137 145
    005667  aa  144 151 164 157
    005670  aa  162 137 142 162
    005671  aa  141 143 153 145
    005672  aa  164 163 000 000
    005673  55   001477 001454
    005674  2a   000117 400001
    005675  55   001470 000003
    005676  aa  030 155 151 163         mismatched_editor_quotes
    005677  aa  155 141 164 143
    005700  aa  150 145 144 137
    005701  aa  145 144 151 164
    005702  aa  157 162 137 161
    005703  aa  165 157 164 145
    005704  aa  163 000 000 000
    005705  55   001507 001465
    005706  2a   000116 400001
    005707  55   001502 000003
    005710  aa  021 163 165 142         substitute_failed
    005711  aa  163 164 151 164
    005712  aa  165 164 145 137
    005713  aa  146 141 151 154
    005714  aa  145 144 000 000
    005715  55   001516 001477
    005716  2a   000115 400001
    005717  55   001512 000003
    005720  aa  017 156 137 154         n_locals_differ
    005721  aa  157 143 141 154
    005722  aa  163 137 144 151
    005723  aa  146 146 145 162
    005724  55   001525 001507
    005725  2a   000114 400001
    005726  55   001521 000003
    005727  aa  017 156 137 154         n_labels_differ
    005730  aa  141 142 145 154
    005731  aa  163 137 144 151
    005732  aa  146 146 145 162
    005733  55   001534 001516
    005734  2a   000113 400001
    005735  55   001530 000003
    005736  aa  015 154 157 143         locals_differ
    005737  aa  141 154 163 137
    005740  aa  144 151 146 146
    005741  aa  145 162 000 000
    005742  55   001543 001525
    005743  2a   000112 400001
    005744  55   001537 000003
    005745  aa  015 154 141 142         labels_differ
    005746  aa  145 154 163 137
    005747  aa  144 151 146 146
    005750  aa  145 162 000 000
    005751  55   001554 001534
    005752  2a   000111 400001
    005753  55   001546 000003
    005754  aa  025 154 151 156         line_too_long_to_edit
    005755  aa  145 137 164 157
    005756  aa  157 137 154 157
    005757  aa  156 147 137 164
    005760  aa  157 137 145 144
    005761  aa  151 164 000 000
    005762  55   001562 001543
    005763  2a   000110 400001
    005764  55   001557 000003
    005765  aa  012 145 170 164         extra_text
    005766  aa  162 141 137 164
    005767  aa  145 170 164 000
    005770  55   001572 001554
    005771  2a   000107 400001
    005772  55   001565 000003
    005773  aa  022 145 144 151         edited_pendent_fcn
    005774  aa  164 145 144 137
    005775  aa  160 145 156 144
    005776  aa  145 156 164 137
    005777  aa  146 143 156 000
    006000  55   001603 001562
    006001  2a   000106 400001
    006002  55   001575 000003
    006003  aa  025 142 141 144         bad_substitute_syntax
    006004  aa  137 163 165 142
    006005  aa  163 164 151 164
    006006  aa  165 164 145 137
    006007  aa  163 171 156 164
    006010  aa  141 170 000 000
    006011  55   001611 001572
    006012  2a   000105 400001
    006013  55   001606 000003
    006014  aa  012 172 145 162         zerodivide
    006015  aa  157 144 151 166
    006016  aa  151 144 145 000
    006017  55   001616 001603
    006020  2a   000104 400001
    006021  55   001614 000003
    006022  aa  006 163 171 163         system
    006023  aa  164 145 155 000
    006024  55   001623 001611
    006025  2a   000103 400001
    006026  55   001621 000003
    006027  aa  004 162 141 156         rank
    006030  aa  153 000 000 000
    006031  55   001633 001616
    006032  2a   000102 400001
    006033  55   001626 000003
    006034  aa  023 162 141 156         random_system_error
    006035  aa  144 157 155 137
    006036  aa  163 171 163 164
    006037  aa  145 155 137 145
    006040  aa  162 162 157 162
    006041  55   001641 001623
    006042  2a   000101 400001
    006043  55   001636 000003
    006044  aa  010 157 166 145         overflow
    006045  aa  162 146 154 157
    006046  aa  167 000 000 000
    006047  55   001653 001633
    006050  2a   000100 400001
    006051  55   001644 000003
    006052  aa  030 157 160 145         operator_subscript_range
    006053  aa  162 141 164 157
    006054  aa  162 137 163 165
    006055  aa  142 163 143 162
    006056  aa  151 160 164 137
    006057  aa  162 141 156 147
    006060  aa  145 000 000 000
    006061  55   001663 001641
    006062  2a   000077 400001
    006063  55   001656 000003
    006064  aa  023 156 157 164         not_within_int_fuzz
    006065  aa  137 167 151 164
    006066  aa  150 151 156 137
    006067  aa  151 156 164 137
    006070  aa  146 165 172 172
    006071  55   001672 001653
    006072  2a   000076 400001
    006073  55   001666 000003
    006074  aa  017 156 157 164         not_implemented
    006075  aa  137 151 155 160
    006076  aa  154 145 155 145
    006077  aa  156 164 145 144
    006100  55   001700 001663
    006101  2a   000075 400001
    006102  55   001675 000003
    006103  aa  013 156 157 137         no_identity
    006104  aa  151 144 145 156
    006105  aa  164 151 164 171
    006106  55   001705 001672
    006107  2a   000074 400001
    006110  55   001703 000003
    006111  aa  006 154 145 156         length
    006112  aa  147 164 150 000
    006113  55   001717 001700
    006114  2a   000073 400001
    006115  55   001710 000003
    006116  aa  030 151 157 164         iota_argument_not_vector
    006117  aa  141 137 141 162
    006120  aa  147 165 155 145
    006121  aa  156 164 137 156
    006122  aa  157 164 137 166
    006123  aa  145 143 164 157
    006124  aa  162 000 000 000
    006125  55   001730 001705
    006126  2a   000072 400001
    006127  55   001722 000003
    006130  aa  024 151 156 166         invalid_circular_fcn
    006131  aa  141 154 151 144
    006132  aa  137 143 151 162
    006133  aa  143 165 154 141
    006134  aa  162 137 146 143
    006135  aa  156 000 000 000
    006136  55   001735 001717
    006137  2a   000071 400001
    006140  55   001733 000003
    006141  aa  005 151 156 144         index
    006142  aa  145 170 000 000
    006143  55   001746 001730
    006144  2a   000070 400001
    006145  55   001740 000003
    006146  aa  024 151 156 143         incomplete_expansion
    006147  aa  157 155 160 154
    006150  aa  145 164 145 137
    006151  aa  145 170 160 141
    006152  aa  156 163 151 157
    006153  aa  156 000 000 000
    006154  55   001754 001735
    006155  2a   000067 400001
    006156  55   001751 000003
    006157  aa  010 146 165 156         function
    006160  aa  143 164 151 157
    006161  aa  156 000 000 000
    006162  55   001763 001746
    006163  2a   000066 400001
    006164  55   001757 000003
    006165  aa  015 146 151 170         fixedoverflow
    006166  aa  145 144 157 166
    006167  aa  145 162 146 154
    006170  aa  157 167 000 000
    006171  55   001772 001754
    006172  2a   000065 400001
    006173  55   001766 000003
    006174  aa  017 145 170 145         exec_restricted
    006175  aa  143 137 162 145
    006176  aa  163 164 162 151
    006177  aa  143 164 145 144
    006200  55   001777 001763
    006201  2a   000064 400001
    006202  55   001775 000003
    006203  aa  006 144 157 155         domain
    006204  aa  141 151 156 000
    006205  55   002007 001772
    006206  2a   000063 400001
    006207  55   002002 000003
    006210  aa  020 144 151 163         display_disabled
    006211  aa  160 154 141 171
    006212  aa  137 144 151 163
    006213  aa  141 142 154 145
    006214  aa  144 000 000 000
    006215  55   002017 001777
    006216  2a   000062 400001
    006217  55   002012 000003
    006220  aa  023 143 157 155         compatibility_error
    006221  aa  160 141 164 151
    006222  aa  142 151 154 151
    006223  aa  164 171 137 145
    006224  aa  162 162 157 162
    006225  55   002027 002007
    006226  2a   000061 400001
    006227  55   002022 000003
    006230  aa  021 143 141 156         cant_be_localized
    006231  aa  164 137 142 145
    006232  aa  137 154 157 143
    006233  aa  141 154 151 172
    006234  aa  145 144 000 000
    006235  55   002041 002017
    006236  2a   000060 400001
    006237  55   002032 000003
    006240  aa  030 142 141 144         bad_subsc_assign_sys_var
    006241  aa  137 163 165 142
    006242  aa  163 143 137 141
    006243  aa  163 163 151 147
    006244  aa  156 137 163 171
    006245  aa  163 137 166 141
    006246  aa  162 000 000 000
    006247  55   002053 002027
    006250  2a   000057 400001
    006251  55   002044 000003
    006252  aa  032 155 157 162         more_than_one_line_execute
    006253  aa  145 137 164 150
    006254  aa  141 156 137 157
    006255  aa  156 145 137 154
    006256  aa  151 156 145 137
    006257  aa  145 170 145 143
    006260  aa  165 164 145 000
    006261  55   002063 002041
    006262  2a   000056 400001
    006263  55   002056 000003
    006264  aa  020 165 137 155         u_mism_ur_quotes
    006265  aa  151 163 155 137
    006266  aa  165 162 137 161
    006267  aa  165 157 164 145
    006270  aa  163 000 000 000
    006271  55   002071 002053
    006272  2a   000056 400001
    006273  55   002066 000003
    006274  aa  013 155 151 163         mism_quotes
    006275  aa  155 137 161 165
    006276  aa  157 164 145 163
    006277  55   002101 002063
    006300  2a   000055 400001
    006301  55   002074 000003
    006302  aa  021 164 157 157         too_short_execute
    006303  aa  137 163 150 157
    006304  aa  162 164 137 145
    006305  aa  170 145 143 165
    006306  aa  164 145 000 000
    006307  55   002110 002071
    006310  2a   000054 400001
    006311  55   002104 000003
    006312  aa  016 156 145 145         need_semicolon
    006313  aa  144 137 163 145
    006314  aa  155 151 143 157
    006315  aa  154 157 156 000
    006316  55   002120 002101
    006317  2a   000053 400001
    006320  55   002113 000003
    006321  aa  023 157 156 154         only_1_return_value
    006322  aa  171 137 061 137
    006323  aa  162 145 164 165
    006324  aa  162 156 137 166
    006325  aa  141 154 165 145
    006326  55   002126 002110
    006327  2a   000052 400001
    006330  55   002123 000003
    006331  aa  011 156 145 145         need_name
    006332  aa  144 137 156 141
    006333  aa  155 145 000 000
    006334  55   002136 002120
    006335  2a   000051 400001
    006336  55   002131 000003
    006337  aa  022 162 141 156         random_char_in_hdr
    006340  aa  144 157 155 137
    006341  aa  143 150 141 162
    006342  aa  137 151 156 137
    006343  aa  150 144 162 000
    006344  55   002145 002126
    006345  2a   000050 400001
    006346  55   002141 000003
    006347  aa  014 145 170 143         excess_label
    006350  aa  145 163 163 137
    006351  aa  154 141 142 145
    006352  aa  154 000 000 000
    006353  55   002153 002136
    006354  2a   000047 400001
    006355  55   002150 000003
    006356  aa  013 154 157 156         lone_period
    006357  aa  145 137 160 145
    006360  aa  162 151 157 144
    006361  55   002163 002145
    006362  2a   000046 400001
    006363  55   002156 000003
    006364  aa  020 154 157 156         lone_upper_minus
    006365  aa  145 137 165 160
    006366  aa  160 145 162 137
    006367  aa  155 151 156 165
    006370  aa  163 000 000 000
    006371  55   002170 002153
    006372  2a   000045 400001
    006373  55   002166 000003
    006374  aa  006 142 141 144         badass
    006375  aa  141 163 163 000
    006376  55   002200 002163
    006377  2a   000044 400001
    006400  55   002173 000003
    006401  aa  023 145 170 164         extra_decimal_point
    006402  aa  162 141 137 144
    006403  aa  145 143 151 155
    006404  aa  141 154 137 160
    006405  aa  157 151 156 164
    006406  55   002210 002170
    006407  2a   000043 400001
    006410  55   002203 000003
    006411  aa  022 155 157 162         more_than_one_line
    006412  aa  145 137 164 150
    006413  aa  141 156 137 157
    006414  aa  156 145 137 154
    006415  aa  151 156 145 000
    006416  55   002221 002200
    006417  2a   000042 400001
    006420  55   002213 000003
    006421  aa  026 156 157 164         not_allowed_outer_prod
    006422  aa  137 141 154 154
    006423  aa  157 167 145 144
    006424  aa  137 157 165 164
    006425  aa  145 162 137 160
    006426  aa  162 157 144 000
    006427  55   002232 002210
    006430  2a   000041 400001
    006431  55   002224 000003
    006432  aa  026 156 157 164         not_allowed_inner_prod
    006433  aa  137 141 154 154
    006434  aa  157 167 145 144
    006435  aa  137 151 156 156
    006436  aa  145 162 137 160
    006437  aa  162 157 144 000
    006440  55   002241 002221
    006441  2a   000040 400001
    006442  55   002235 000003
    006443  aa  017 151 154 154         ill_paren_level
    006444  aa  137 160 141 162
    006445  aa  145 156 137 154
    006446  aa  145 166 145 154
    006447  55   002250 002232
    006450  2a   000037 400001
    006451  55   002244 000003
    006452  aa  015 143 157 156         constant_mism
    006453  aa  163 164 141 156
    006454  aa  164 137 155 151
    006455  aa  163 155 000 000
    006456  55   002257 002241
    006457  2a   000036 400001
    006460  55   002253 000003
    006461  aa  016 167 163 137         ws_full_in_lex
    006462  aa  146 165 154 154
    006463  aa  137 151 156 137
    006464  aa  154 145 170 000
    006465  55   002267 002250
    006466  2a   000035 400001
    006467  55   002262 000003
    006470  aa  023 165 156 153         unknown_system_name
    006471  aa  156 157 167 156
    006472  aa  137 163 171 163
    006473  aa  164 145 155 137
    006474  aa  156 141 155 145
    006475  55   002277 002257
    006476  2a   000034 400001
    006477  55   002272 000003
    006500  aa  020 151 154 154         ill_small_circle
    006501  aa  137 163 155 141
    006502  aa  154 154 137 143
    006503  aa  151 162 143 154
    006504  aa  145 000 000 000
    006505  55   002307 002267
    006506  2a   000033 400001
    006507  55   002302 000003
    006510  aa  022 156 157 164         not_end_with_value
    006511  aa  137 145 156 144
    006512  aa  137 167 151 164
    006513  aa  150 137 166 141
    006514  aa  154 165 145 000
    006515  55   002320 002277
    006516  2a   000032 400001
    006517  55   002312 000003
    006520  aa  025 145 170 143         excess_right_brackets
    006521  aa  145 163 163 137
    006522  aa  162 151 147 150
    006523  aa  164 137 142 162
    006524  aa  141 143 153 145
    006525  aa  164 163 000 000
    006526  55   002330 002307
    006527  2a   000031 400001
    006530  55   002323 000003
    006531  aa  022 155 151 163         misplaced_brackets
    006532  aa  160 154 141 143
    006533  aa  145 144 137 142
    006534  aa  162 141 143 153
    006535  aa  145 164 163 000
    006536  55   002340 002320
    006537  2a   000030 400001
    006540  55   002333 000003
    006541  aa  020 151 154 154         ill_opr_brackets
    006542  aa  137 157 160 162
    006543  aa  137 142 162 141
    006544  aa  143 153 145 164
    006545  aa  163 000 000 000
    006546  55   002350 002330
    006547  2a   000027 400001
    006550  55   002343 000003
    006551  aa  021 155 151 163         mismatched_parens
    006552  aa  155 141 164 143
    006553  aa  150 145 144 137
    006554  aa  160 141 162 145
    006555  aa  156 163 000 000
    006556  55   002360 002340
    006557  2a   000026 400001
    006560  55   002353 000003
    006561  aa  023 145 170 143         excess_right_parens
    006562  aa  145 163 163 137
    006563  aa  162 151 147 150
    006564  aa  164 137 160 141
    006565  aa  162 145 156 163
    006566  55   002372 002350
    006567  2a   000025 400001
    006570  55   002363 000003
    006571  aa  030 165 156 144         underscore_cant_begin_id
    006572  aa  145 162 163 143
    006573  aa  157 162 145 137
    006574  aa  143 141 156 164
    006575  aa  137 142 145 147
    006576  aa  151 156 137 151
    006577  aa  144 000 000 000
    006600  55   002402 002360
    006601  2a   000024 400001
    006602  55   002375 000003
    006603  aa  023 164 157 157         too_many_statements
    006604  aa  137 155 141 156
    006605  aa  171 137 163 164
    006606  aa  141 164 145 155
    006607  aa  145 156 164 163
    006610  55   002410 002372
    006611  2a   000023 400001
    006612  55   002405 000003
    006613  aa  013 162 141 156         random_char
    006614  aa  144 157 155 137
    006615  aa  143 150 141 162
    006616  55   002421 002402
    006617  2a   000022 400001
    006620  55   002413 000003
    006621  aa  024 156 157 164         not_end_with_newline
    006622  aa  137 145 156 144
    006623  aa  137 167 151 164
    006624  aa  150 137 156 145
    006625  aa  167 154 151 156
    006626  aa  145 000 000 000
    006627  55   002434 002410
    006630  2a   000021 400001
    006631  55   002424 000003
    006632  aa  035 155 151 170         mixed_diamonds_and_semicolons
    006633  aa  145 144 137 144
    006634  aa  151 141 155 157
    006635  aa  156 144 163 137
    006636  aa  141 156 144 137
    006637  aa  163 145 155 151
    006640  aa  143 157 154 157
    006641  aa  156 163 000 000
    006642  55   002444 002421
    006643  2a   000020 400001
    006644  55   002437 000003
    006645  aa  023 155 151 163         misplaced_semicolon
    006646  aa  160 154 141 143
    006647  aa  145 144 137 163
    006650  aa  145 155 151 143
    006651  aa  157 154 157 156
    006652  55   002455 002434
    006653  2a   000017 400001
    006654  55   002447 000003
    006655  aa  025 155 151 163         misplaced_right_arrow
    006656  aa  160 154 141 143
    006657  aa  145 144 137 162
    006660  aa  151 147 150 164
    006661  aa  137 141 162 162
    006662  aa  157 167 000 000
    006663  55   002465 002444
    006664  2a   000016 400001
    006665  55   002460 000003
    006666  aa  021 155 151 163         misplaced_diamond
    006667  aa  160 154 141 143
    006670  aa  145 144 137 144
    006671  aa  151 141 155 157
    006672  aa  156 144 000 000
    006673  55   002474 002455
    006674  2a   000015 400001
    006675  55   002470 000003
    006676  aa  016 154 145 170         lex_screwed_up
    006677  aa  137 163 143 162
    006700  aa  145 167 145 144
    006701  aa  137 165 160 000
    006702  55   002502 002465
    006703  2a   000014 400001
    006704  55   002477 000003
    006705  aa  010 151 154 154         ill_scan
    006706  aa  137 163 143 141
    006707  aa  156 000 000 000
    006710  55   002511 002474
    006711  2a   000013 400001
    006712  55   002505 000003
    006713  aa  015 151 154 154         ill_reduction
    006714  aa  137 162 145 144
    006715  aa  165 143 164 151
    006716  aa  157 156 000 000
    006717  55   002520 002502
    006720  2a   000012 400001
    006721  55   002514 000003
    006722  aa  016 151 154 154         ill_outer_prod
    006723  aa  137 157 165 164
    006724  aa  145 162 137 160
    006725  aa  162 157 144 000
    006726  55   002527 002511
    006727  2a   000011 400001
    006730  55   002523 000003
    006731  aa  016 151 154 154         ill_inner_prod
    006732  aa  137 151 156 156
    006733  aa  145 162 137 160
    006734  aa  162 157 144 000
    006735  55   002536 002520
    006736  2a   000010 400001
    006737  55   002532 000003
    006740  aa  017 144 165 160         duplicate_label
    006741  aa  154 151 143 141
    006742  aa  164 145 137 154
    006743  aa  141 142 145 154
    006744  55   000002 002527
    006745  6a   000000 400002
    006746  55   002541 000003
    006747  aa  014 163 171 155         symbol_table
    006750  aa  142 157 154 137
    006751  aa  164 141 142 154
    006752  aa  145 000 000 000

DEFINITIONS HASH TABLE

    006753  aa   000000 000463
    006754  5a   002511 000000
    006755  5a   001267 000000
    006756  5a   002520 000000
    006757  aa   000000 000000
    006760  aa   000000 000000
    006761  aa   000000 000000
    006762  5a   001122 000000
    006763  5a   002163 000000
    006764  5a   002465 000000
    006765  5a   002421 000000
    006766  aa   000000 000000
    006767  aa   000000 000000
    006770  aa   000000 000000
    006771  5a   000376 000000
    006772  5a   000407 000000
    006773  5a   002434 000000
    006774  5a   001507 000000
    006775  5a   001210 000000
    006776  5a   001516 000000
    006777  5a   001754 000000
    007000  aa   000000 000000
    007001  aa   000000 000000
    007002  5a   002250 000000
    007003  5a   000753 000000
    007004  5a   001735 000000
    007005  aa   000000 000000
    007006  aa   000000 000000
    007007  aa   000000 000000
    007010  aa   000000 000000
    007011  5a   000470 000000
    007012  5a   000107 000000
    007013  aa   000000 000000
    007014  aa   000000 000000
    007015  aa   000000 000000
    007016  aa   000000 000000
    007017  5a   000335 000000
    007020  aa   000000 000000
    007021  aa   000000 000000
    007022  aa   000000 000000
    007023  5a   002041 000000
    007024  5a   000742 000000
    007025  aa   000000 000000
    007026  5a   001623 000000
    007027  5a   001717 000000
    007030  5a   001321 000000
    007031  5a   002007 000000
    007032  5a   002110 000000
    007033  aa   000000 000000
    007034  5a   001177 000000
    007035  5a   001777 000000
    007036  aa   000000 000000
    007037  aa   000000 000000
    007040  aa   000000 000000
    007041  aa   000000 000000
    007042  aa   000000 000000
    007043  5a   000554 000000
    007044  5a   001772 000000
    007045  aa   000000 000000
    007046  5a   000345 000000
    007047  5a   001454 000000
    007050  aa   000000 000000
    007051  aa   000000 000000
    007052  5a   001633 000000
    007053  5a   000723 000000
    007054  5a   000211 000000
    007055  5a   001011 000000
    007056  5a   000463 000000
    007057  5a   001062 000000
    007060  5a   001073 000000
    007061  5a   001352 000000
    007062  5a   001611 000000
    007063  5a   002017 000000
    007064  5a   002474 000000
    007065  aa   000000 000000
    007066  aa   000000 000000
    007067  5a   002410 000000
    007070  5a   000713 000000
    007071  aa   000000 000000
    007072  aa   000000 000000
    007073  5a   002120 000000
    007074  5a   001232 000000
    007075  5a   002153 000000
    007076  5a   001562 000000
    007077  5a   001150 000000
    007100  5a   001603 000000
    007101  5a   002372 000000
    007102  5a   000603 000000
    007103  5a   000031 000000
    007104  5a   000051 000000
    007105  5a   000164 000000
    007106  5a   000613 000000
    007107  5a   001554 000000
    007110  5a   002232 000000
    007111  aa   000000 000000
    007112  aa   000000 000000
    007113  aa   000000 000000
    007114  aa   000000 000000
    007115  aa   000000 000000
    007116  aa   000000 000000
    007117  aa   000000 000000
    007120  aa   000000 000000
    007121  5a   001310 000000
    007122  5a   001331 000000
    007123  5a   001525 000000
    007124  aa   000000 000000
    007125  aa   000000 000000
    007126  5a   001374 000000
    007127  5a   000431 000000
    007130  5a   001433 000000
    007131  aa   000000 000000
    007132  5a   000571 000000
    007133  5a   002027 000000
    007134  aa   000000 000000
    007135  5a   002241 000000
    007136  aa   000000 000000
    007137  aa   000000 000000
    007140  aa   000000 000000
    007141  5a   001425 000000
    007142  aa   000000 000000
    007143  aa   000000 000000
    007144  5a   000623 000000
    007145  5a   000527 000000
    007146  5a   001141 000000
    007147  aa   000000 000000
    007150  aa   000000 000000
    007151  aa   000000 000000
    007152  aa   000000 000000
    007153  aa   000000 000000
    007154  aa   000000 000000
    007155  aa   000000 000000
    007156  aa   000000 000000
    007157  aa   000000 000000
    007160  aa   000000 000000
    007161  aa   000000 000000
    007162  5a   001255 000000
    007163  aa   000000 000000
    007164  aa   000000 000000
    007165  aa   000000 000000
    007166  aa   000000 000000
    007167  5a   000221 000000
    007170  5a   000643 000000
    007171  5a   002340 000000
    007172  5a   000013 000000
    007173  5a   002455 000000
    007174  5a   001405 000000
    007175  5a   001572 000000
    007176  5a   002257 000000
    007177  aa   000000 000000
    007200  aa   000000 000000
    007201  aa   000000 000000
    007202  aa   000000 000000
    007203  5a   002307 000000
    007204  aa   000000 000000
    007205  5a   000313 000000
    007206  aa   000000 000000
    007207  5a   000174 000000
    007210  5a   000511 000000
    007211  5a   001342 000000
    007212  5a   001672 000000
    007213  aa   000000 000000
    007214  5a   000227 000000
    007215  aa   000000 000000
    007216  aa   000000 000000
    007217  5a   001465 000000
    007220  aa   000000 000000
    007221  5a   000277 000000
    007222  5a   000153 000000
    007223  aa   000000 000000
    007224  aa   000000 000000
    007225  aa   000000 000000
    007226  aa   000000 000000
    007227  aa   000000 000000
    007230  5a   001746 000000
    007231  aa   000000 000000
    007232  5a   001416 000000
    007233  aa   000000 000000
    007234  aa   000000 000000
    007235  5a   002053 000000
    007236  aa   000000 000000
    007237  5a   002267 000000
    007240  5a   002330 000000
    007241  5a   000243 000000
    007242  5a   000323 000000
    007243  5a   000135 000000
    007244  5a   000447 000000
    007245  5a   001033 000000
    007246  5a   001244 000000
    007247  aa   000000 000000
    007250  5a   000454 000000
    007251  5a   000733 000000
    007252  5a   001700 000000
    007253  5a   001051 000000
    007254  aa   000000 000000
    007255  aa   000000 000000
    007256  5a   000703 000000
    007257  5a   001730 000000
    007260  aa   000000 000000
    007261  5a   000251 000000
    007262  5a   001363 000000
    007263  5a   002444 000000
    007264  5a   002277 000000
    007265  5a   001220 000000
    007266  aa   000000 000000
    007267  aa   000000 000000
    007270  5a   000267 000000
    007271  5a   001023 000000
    007272  aa   000000 000000
    007273  5a   002071 000000
    007274  5a   002063 000000
    007275  aa   000000 000000
    007276  aa   000000 000000
    007277  aa   000000 000000
    007300  5a   000100 000000
    007301  5a   001616 000000
    007302  5a   002502 000000
    007303  aa   000000 000000
    007304  aa   000000 000000
    007305  5a   000357 000000
    007306  aa   000000 000000
    007307  aa   000000 000000
    007310  aa   000000 000000
    007311  5a   001763 000000
    007312  5a   001104 000000
    007313  5a   001113 000000
    007314  5a   000564 000000
    007315  aa   000000 000000
    007316  5a   001543 000000
    007317  5a   002101 000000
    007320  aa   000000 000000
    007321  5a   000202 000000
    007322  5a   000420 000000
    007323  5a   001444 000000
    007324  5a   001477 000000
    007325  5a   002200 000000
    007326  5a   001663 000000
    007327  5a   002320 000000
    007330  5a   000662 000000
    007331  5a   002402 000000
    007332  aa   000000 000000
    007333  5a   002145 000000
    007334  aa   000000 000000
    007335  5a   000071 000000
    007336  5a   000304 000000
    007337  aa   000000 000000
    007340  aa   000000 000000
    007341  5a   000501 000000
    007342  5a   000125 000000
    007343  5a   000116 000000
    007344  5a   000144 000000
    007345  5a   000772 000000
    007346  aa   000000 000000
    007347  aa   000000 000000
    007350  aa   000000 000000
    007351  5a   002136 000000
    007352  aa   000000 000000
    007353  aa   000000 000000
    007354  aa   000000 000000
    007355  5a   002210 000000
    007356  5a   002126 000000
    007357  5a   002221 000000
    007360  aa   000000 000000
    007361  aa   000000 000000
    007362  aa   000000 000000
    007363  aa   000000 000000
    007364  aa   000000 000000
    007365  5a   002527 000000
    007366  aa   000000 000000
    007367  5a   000370 000000
    007370  5a   000536 000000
    007371  5a   000517 000000
    007372  5a   000061 000000
    007373  5a   000545 000000
    007374  5a   000235 000000
    007375  5a   000632 000000
    007376  5a   000651 000000
    007377  5a   000673 000000
    007400  5a   000762 000000
    007401  5a   001157 000000
    007402  5a   001167 000000
    007403  5a   002350 000000
    007404  aa   000000 000000
    007405  aa   000000 000000
    007406  5a   000022 000000
    007407  aa   000000 000000
    007410  5a   000436 000000
    007411  5a   001300 000000
    007412  aa   000000 000000
    007413  5a   002360 000000
    007414  5a   001641 000000
    007415  aa   000000 000000
    007416  5a   001001 000000
    007417  5a   001653 000000
    007420  aa   000000 000000
    007421  5a   002170 000000
    007422  aa   000000 000000
    007423  5a   001041 000000
    007424  aa   000000 000000
    007425  aa   000000 000000
    007426  aa   000000 000000
    007427  5a   002536 000000
    007430  aa   000000 000000
    007431  aa   000000 000000
    007432  5a   001534 000000
    007433  5a   000041 000000
    007434  5a   001131 000000
    007435  5a   000260 000000
    007436  5a   001705 000000

NO EXTERNAL NAMES

NO TRAP POINTER WORDS

TYPE PAIR BLOCKS

    007437  aa   000001 000000
    007440  aa   000000 000000

INTERNAL EXPRESSION WORDS

    007441  50   003231 000000
LINKAGE INFORMATION

    000000  aa   000000 000000
    000001  02   004206 000266
    000002  aa   000000 000000
    000003  aa   000000 000000
    000004  aa   000000 000000
    000005  aa   000000 000000
    000006  22   000264 000271
    000007  a2   000000 000254
    000264  9a   777514 0000 46         *text|
    000265  5a   003233 0000 00

FIRST REFERENCE TRAP LIST

    000266  aa   000000 000001
    000267  aa   000000 000001
    000270  2a   000264 000000
    000271  aa   000000 000000
SYMBOL INFORMATION

SYMBOL TABLE HEADER

    000000  aa   000000 000001
    000001  aa   163171 155142
    000002  aa   164162 145145
    000003  aa   000000 000010
    000004  aa   000000 117244
    000005  aa   361023 525721
    000006  aa   000000 131063
    000007  aa   221355 703772
    000010  aa   141154 155040
    000011  aa   040040 040040
    000012  aa   000024 000040
    000013  aa   000034 000040
    000014  aa   000044 000100
    000015  aa   000002 000002
    000016  aa   000064 000000
    000017  aa   000000 000726
    000020  aa   000000 000132
    000021  aa   000367 000326
    000022  aa   000717 000132
    000023  aa   000064 000000
    000024  aa   101114 115040
    000025  aa   126145 162163
    000026  aa   151157 156040
    000027  aa   070056 061064
    000030  aa   040115 141162
    000031  aa   143150 040061
    000032  aa   071070 071040
    000033  aa   040040 040040
    000034  aa   123143 150162
    000035  aa   157164 150056
    000036  aa   123171 163115
    000037  aa   141151 156164
    000040  aa   056155 040040
    000041  aa   040040 040040
    000042  aa   040040 040040
    000043  aa   040040 040040
    000044  aa   154151 163164
    000045  aa   040163 171155
    000046  aa   142157 154163
    000047  aa   040040 040040
    000050  aa   040040 040040
    000051  aa   040040 040040
    000052  aa   040040 040040
    000053  aa   040040 040040
    000054  aa   040040 040040
    000055  aa   040040 040040
    000056  aa   040040 040040
    000057  aa   040040 040040
    000060  aa   040040 040040
    000061  aa   040040 040040
    000062  aa   040040 040040
    000063  aa   040040 040040
    000064  aa   000000 000001
    000065  aa   000000 000003
    000066  aa   000102 000044
    000067  aa   310561 234614
    000070  aa   000000 131063
    000071  aa   221357 400000
    000072  aa   000113 000034
    000073  aa   305736 047072
    000074  aa   000000 112067
    000075  aa   253504 600000
    000076  aa   000122 000037
    000077  aa   305736 051531
    000100  aa   000000 115000
    000101  aa   507463 000000
    000102  aa   076165 144144          >udd>sm>ds>w>ml>apl_error_table_.alm
    000103  aa   076163 155076
    000104  aa   144163 076167
    000105  aa   076155 154076
    000106  aa   141160 154137
    000107  aa   145162 162157
    000110  aa   162137 164141
    000111  aa   142154 145137
    000112  aa   056141 154155
    000113  aa   076154 144144          >ldd>incl>et_macros.incl.alm
    000114  aa   076151 156143
    000115  aa   154076 145164
    000116  aa   137155 141143
    000117  aa   162157 163056
    000120  aa   151156 143154
    000121  aa   056141 154155
    000122  aa   076154 144144          >ldd>incl>stack_header.incl.alm
    000123  aa   076151 156143
    000124  aa   154076 163164
    000125  aa   141143 153137
    000126  aa   150145 141144
    000127  aa   145162 056151
    000130  aa   156143 154056
    000131  aa   141154 155040
               MULTICS ASSEMBLY CROSS REFERENCE LISTING

   Value        Symbol                   Source file   Line number

                *text                    apl_error_table_:    48.
          14    .._00000                 apl_error_table_:    53.
          27    .._00001                 apl_error_table_:    55.
          37    .._00002                 apl_error_table_:    57.
          47    .._00003                 apl_error_table_:    59.
          64    .._00004                 apl_error_table_:    61.
         100    .._00005                 apl_error_table_:    63.
         111    .._00006                 apl_error_table_:    65.
         120    .._00007                 apl_error_table_:    67.
         130    .._00010                 apl_error_table_:    69.
         137    .._00011                 apl_error_table_:    71.
         156    .._00012                 apl_error_table_:    73.
         167    .._00013                 apl_error_table_:    75.
         206    .._00014                 apl_error_table_:    77.
         220    .._00015                 apl_error_table_:    79.
         235    .._00016                 apl_error_table_:    81.
         246    .._00017                 apl_error_table_:    83.
         256    .._00020                 apl_error_table_:    85.
         273    .._00021                 apl_error_table_:    87.
         302    .._00022                 apl_error_table_:    89.
         312    .._00023                 apl_error_table_:    91.
         322    .._00024                 apl_error_table_:    93.
         341    .._00025                 apl_error_table_:    95.
         354    .._00026                 apl_error_table_:    97.
         363    .._00027                 apl_error_table_:    99.
         404    .._00030                 apl_error_table_:   101.
         420    .._00031                 apl_error_table_:   103.
         436    .._00032                 apl_error_table_:   105.
         454    .._00033                 apl_error_table_:   107.
         467    .._00034                 apl_error_table_:   109.
         501    .._00035                 apl_error_table_:   111.
         511    .._00036                 apl_error_table_:   113.
         526    .._00037                 apl_error_table_:   115.
         545    .._00040                 apl_error_table_:   117.
         560    .._00041                 apl_error_table_:   119.
         600    .._00042                 apl_error_table_:   121.
         610    .._00043                 apl_error_table_:   123.
         624    .._00044                 apl_error_table_:   125.
         644    .._00045                 apl_error_table_:   127.
         654    .._00046                 apl_error_table_:   129.
         667    .._00047                 apl_error_table_:   131.
         707    .._00050                 apl_error_table_:   133.
         731    .._00051                 apl_error_table_:   135.
         751    .._00052                 apl_error_table_:   140.
         763    .._00053                 apl_error_table_:   142.
         776    .._00054                 apl_error_table_:   144.
        1001    .._00055                 apl_error_table_:   146.
        1013    .._00056                 apl_error_table_:   148.
        1023    .._00057                 apl_error_table_:   150.
        1033    .._00060                 apl_error_table_:   152.
        1055    .._00061                 apl_error_table_:   154.
        1063    .._00062                 apl_error_table_:   156.
        1075    .._00063                 apl_error_table_:   158.
        1112    .._00064                 apl_error_table_:   160.
        1115    .._00065                 apl_error_table_:   162.
        1131    .._00066                 apl_error_table_:   164.
        1151    .._00067                 apl_error_table_:   166.
        1160    .._00070                 apl_error_table_:   168.
        1174    .._00071                 apl_error_table_:   170.
        1203    .._00072                 apl_error_table_:   172.
        1221    .._00073                 apl_error_table_:   174.
        1224    .._00074                 apl_error_table_:   176.
        1227    .._00075                 apl_error_table_:   178.
        1240    .._00076                 apl_error_table_:   183.
        1254    .._00077                 apl_error_table_:   185.
        1270    .._00100                 apl_error_table_:   187.
        1304    .._00101                 apl_error_table_:   189.
        1314    .._00102                 apl_error_table_:   191.
        1335    .._00103                 apl_error_table_:   193.
        1360    .._00104                 apl_error_table_:   195.
        1403    .._00105                 apl_error_table_:   197.
        1430    .._00106                 apl_error_table_:   199.
        1437    .._00107                 apl_error_table_:   201.
        1450    .._00110                 apl_error_table_:   203.
        1465    .._00111                 apl_error_table_:   205.
        1501    .._00112                 apl_error_table_:   207.
        1516    .._00113                 apl_error_table_:   209.
        1530    .._00114                 apl_error_table_:   211.
        1542    .._00115                 apl_error_table_:   213.
        1562    .._00116                 apl_error_table_:   215.
        1575    .._00117                 apl_error_table_:   217.
        1611    .._00120                 apl_error_table_:   219.
        1625    .._00121                 apl_error_table_:   221.
        1644    .._00122                 apl_error_table_:   223.
        1663    .._00123                 apl_error_table_:   225.
        1674    .._00124                 apl_error_table_:   227.
        1720    .._00125                 apl_error_table_:   229.
        1735    .._00126                 apl_error_table_:   231.
        1750    .._00127                 apl_error_table_:   233.
        1764    .._00130                 apl_error_table_:   235.
        2002    .._00131                 apl_error_table_:   237.
        2020    .._00132                 apl_error_table_:   239.
        2040    .._00133                 apl_error_table_:   241.
        2060    .._00134                 apl_error_table_:   243.
        2106    .._00135                 apl_error_table_:   245.
        2126    .._00136                 apl_error_table_:   247.
        2140    .._00137                 apl_error_table_:   249.
        2160    .._00140                 apl_error_table_:   251.
        2171    .._00141                 apl_error_table_:   253.
        2203    .._00142                 apl_error_table_:   258.
        2213    .._00143                 apl_error_table_:   260.
        2222    .._00144                 apl_error_table_:   262.
        2242    .._00145                 apl_error_table_:   264.
        2257    .._00146                 apl_error_table_:   266.
        2273    .._00147                 apl_error_table_:   268.
        2307    .._00150                 apl_error_table_:   270.
        2314    .._00151                 apl_error_table_:   272.
        2324    .._00152                 apl_error_table_:   277.
        2350    .._00153                 apl_error_table_:   279.
        2365    .._00154                 apl_error_table_:   281.
        2375    .._00155                 apl_error_table_:   283.
        2410    .._00156                 apl_error_table_:   285.
        2423    .._00157                 apl_error_table_:   287.
        2442    .._00160                 apl_error_table_:   289.
        2461    .._00161                 apl_error_table_:   291.
        2477    .._00162                 apl_error_table_:   293.
        2517    .._00163                 apl_error_table_:   295.
        2543    .._00164                 apl_error_table_:   297.
        2555    .._00165                 apl_error_table_:   299.
        2600    .._00166                 apl_error_table_:   301.
        2614    .._00167                 apl_error_table_:   303.
        2626    .._00170                 apl_error_table_:   305.
        2644    .._00171                 apl_error_table_:   307.
        2656    .._00172                 apl_error_table_:   309.
        2667    .._00173                 apl_error_table_:   314.
        2710    .._00174                 apl_error_table_:   316.
        2731    .._00175                 apl_error_table_:   318.
        2741    .._00176                 apl_error_table_:   323.
        2752    .._00177                 apl_error_table_:   325.
        2767    .._00200                 apl_error_table_:   327.
        2776    .._00201                 apl_error_table_:   329.
        3012    .._00202                 apl_error_table_:   331.
        3026    .._00203                 apl_error_table_:   333.
        3040    .._00204                 apl_error_table_:   335.
        3054    .._00205                 apl_error_table_:   337.
        3066    .._00206                 apl_error_table_:   339.
        3103    .._00207                 apl_error_table_:   341.
        3120    .._00210                 apl_error_table_:   343.
        3134    .._00211                 apl_error_table_:   345.
        3151    .._00212                 apl_error_table_:   347.
        3166    .._00213                 apl_error_table_:   349.
        3203    .._00214                 apl_error_table_:   351.
        3206    .._00215                 apl_error_table_:   353.
        3222    .._00216                 apl_error_table_:   355.
        3233    .._00217                 apl_error_table_:   357.
        3250    .._00220                 apl_error_table_:   359.
        3266    .._00221                 apl_error_table_:   361.
        3276    .._00222                 apl_error_table_:   363.
        3306    .._00223                 apl_error_table_:   365.
        3311    .._00224                 apl_error_table_:   367.
        3321    .._00225                 apl_error_table_:   372.
        3324    .._00226                 apl_error_table_:   377.
        3342    .._00227                 apl_error_table_:   379.
        3356    .._00230                 apl_error_table_:   381.
        3372    .._00231                 apl_error_table_:   383.
        3406    .._00232                 apl_error_table_:   388.
        3416    .._00233                 apl_error_table_:   390.
        3425    .._00234                 apl_error_table_:   392.
        3435    .._00235                 apl_error_table_:   394.
        3446    .._00236                 apl_error_table_:   396.
        3460    .._00237                 apl_error_table_:   398.
        3475    .._00240                 apl_error_table_:   400.
        3503    .._00241                 apl_error_table_:   402.
        3512    .._00242                 apl_error_table_:   404.
        3522    .._00243                 apl_error_table_:   406.
        3530    .._00244                 apl_error_table_:   408.
        3537    .._00245                 apl_error_table_:   410.
        3555    .._00246                 apl_error_table_:   412.
        3570    .._00247                 apl_error_table_:   414.
        3603    .._00250                 apl_error_table_:   416.
        3614    .._00251                 apl_error_table_:   418.
        3626    .._00252                 apl_error_table_:   420.
         263    .code_end                apl_error_table_:    48.
          10    .code_start              apl_error_table_:    48.
           5    .loop                    apl_error_table_:    48.
       77777    .segno                   apl_error_table_:    48,   53,   55,   57,   59,   61,   63,   65,   67,   69,   71,
                                                              73,   75,   77,   79,   81,   83,   85,   87,   89,   91,   93,
                                                              95,   97,   99,  101,  103,  105,  107,  109,  111,  113,  115,
                                                             117,  119,  121,  123,  125,  127,  129,  131,  133,  135,  140,
                                                             142,  144,  146,  148,  150,  152,  154,  156,  158,  160,  162,
                                                             164,  166,  168,  170,  172,  174,  176,  178,  183,  185,  187,
                                                             189,  191,  193,  195,  197,  199,  201,  203,  205,  207,  209,
                                                             211,  213,  215,  217,  219,  221,  223,  225,  227,  229,  231,
                                                             233,  235,  237,  239,  241,  243,  245,  247,  249,  251,  253,
                                                             258,  260,  262,  264,  266,  268,  270,  272,  277,  279,  281,
                                                             283,  285,  287,  289,  291,  293,  295,  297,  299,  301,  303,
                                                             305,  307,  309,  314,  316,  318,  323,  325,  327,  329,  331,
                                                             333,  335,  337,  339,  341,  343,  345,  347,  349,  351,  353,
                                                             355,  357,  359,  361,  363,  365,  367,  372,  377,  379,  381,
                                                             383,  388,  390,  392,  394,  396,  398,  400,  402,  404,  406,
                                                             408,  410,  412,  414,  416,  418,  420.
           0    .trapproc                apl_error_table_:    48.
         207    assign_to_label          apl_error_table_:   325.
         206    assign_to_value          apl_error_table_:   323.
         162    attempt_to_free_not_temp       apl_error_table_:   277.
          45    badass                   apl_error_table_:   111.
         262    bad_access_matrix        apl_error_table_:   420.
         261    bad_access_modes         apl_error_table_:   418.
         250    bad_apl_file             apl_error_table_:   400.
         210    bad_assignment           apl_error_table_:   327.
         203    bad_assign_to_system_var       apl_error_table_:   314.
         246    bad_component_num        apl_error_table_:   396.
         146    bad_context_request      apl_error_table_:   247.
         142    bad_editor_bracket_syntax      apl_error_table_:   239.
         211    bad_evaluated_input      apl_error_table_:   329.
         212    bad_execute              apl_error_table_:   331.
         254    bad_file_name            apl_error_table_:   408.
         255    bad_fname_match          apl_error_table_:   410.
         145    bad_function_header      apl_error_table_:   245.
         151    bad_global_print         apl_error_table_:   253.
          60    bad_subsc_assign_sys_var       apl_error_table_:   133.
         150    bad_substitute           apl_error_table_:   251.
         106    bad_substitute_syntax    apl_error_table_:   183.
         245    bad_tie_num              apl_error_table_:   394.
         125    bad_token_in_brackets    apl_error_table_:   213.
         163    bead_already_free        apl_error_table_:   279.
         167    bead_not_known_to_apl    apl_error_table_:   287.
        1170    call_offset              stack_header:        80.
         152    cant_autoload            apl_error_table_:   258.
          61    cant_be_localized        apl_error_table_:   135.
         170    cant_create_seg          apl_error_table_:   289.
         213    cant_get_stop_trace      apl_error_table_:   333.
         154    cant_load_ws             apl_error_table_:   262.
         214    cant_push_save_frame     apl_error_table_:   335.
         215    cant_read_input          apl_error_table_:   337.
         153    cant_save_ws             apl_error_table_:   260.
         171    cant_truncate_seg        apl_error_table_:   291.
          10    codes                    apl_error_table_:    48,   53,   55,   57,   59,   61,   63,   65,   67,   69,   71,
                                                              73,   75,   77,   79,   81,   83,   85,   87,   89,   91,   93,
                                                              95,   97,   99,  101,  103,  105,  107,  109,  111,  113,  115,
                                                             117,  119,  121,  123,  125,  127,  129,  131,  133,  135,  140,
                                                             142,  144,  146,  148,  150,  152,  154,  156,  158,  160,  162,
                                                             164,  166,  168,  170,  172,  174,  176,  178,  183,  185,  187,
                                                             189,  191,  193,  195,  197,  199,  201,  203,  205,  207,  209,
                                                             211,  213,  215,  217,  219,  221,  223,  225,  227,  229,  231,
                                                             233,  235,  237,  239,  241,  243,  245,  247,  249,  251,  253,
                                                             258,  260,  262,  264,  266,  268,  270,  272,  277,  279,  281,
                                                             283,  285,  287,  289,  291,  293,  295,  297,  299,  301,  303,
                                                             305,  307,  309,  314,  316,  318,  323,  325,  327,  329,  331,
                                                             333,  335,  337,  339,  341,  343,  345,  347,  349,  351,  353,
                                                             355,  357,  359,  361,  363,  365,  367,  372,  377,  379,  381,
                                                             383,  388,  390,  392,  394,  396,  398,  400,  402,  404,  406,
                                                             408,  410,  412,  414,  416,  418,  420.
          62    compatibility_error      apl_error_table_:   140.
         134    complicated_header_line  apl_error_table_:   227.
          37    constant_mism            apl_error_table_:    99.
         216    context                  apl_error_table_:   339.
         143    del_in_wrong_place       apl_error_table_:   241.
         214    depth                    apl_error_table_:   335.
          63    display_disabled         apl_error_table_:   142.
          64    domain                   apl_error_table_:   144.
         217    done_line_system_error   apl_error_table_:   341.
          10    duplicate_label          apl_error_table_:    53.
         107    edited_pendent_fcn       apl_error_table_:   185.
         120    empty_editor_brackets    apl_error_table_:   203.
        1174    entry_offset             stack_header:        84.
          50    excess_label             apl_error_table_:   117.
          32    excess_right_brackets    apl_error_table_:    89.
          26    excess_right_parens      apl_error_table_:    81.
         220    execute                  apl_error_table_:   343.
          65    exec_restricted          apl_error_table_:   146.
         137    external_function_edited       apl_error_table_:   233.
          44    extra_decimal_point      apl_error_table_:   109.
         110    extra_text               apl_error_table_:   187.
         252    file_already_exists      apl_error_table_:   404.
         243    file_already_tied        apl_error_table_:   390.
          66    fixedoverflow            apl_error_table_:   148.
          67    function                 apl_error_table_:   150.
         166    hash_table_full          apl_error_table_:   285.
          11    ill_inner_prod           apl_error_table_:    55.
          30    ill_opr_brackets         apl_error_table_:    85.
          12    ill_outer_prod           apl_error_table_:    57.
          40    ill_paren_level          apl_error_table_:   101.
          13    ill_reduction            apl_error_table_:    59.
          14    ill_scan                 apl_error_table_:    61.
          34    ill_small_circle         apl_error_table_:    93.
         221    improper_dyadic_usage    apl_error_table_:   345.
         222    improper_monadic_usage   apl_error_table_:   347.
         223    improper_niladic_usage   apl_error_table_:   349.
          70    incomplete_expansion     apl_error_table_:   152.
          71    index                    apl_error_table_:   154.
         224    interrupt                apl_error_table_:   351.
          72    invalid_circular_fcn     apl_error_table_:   156.
         172    invalid_free_bead        apl_error_table_:   293.
          73    iota_argument_not_vector       apl_error_table_:   158.
         112    labels_differ            apl_error_table_:   191.
          74    length                   apl_error_table_:   160.
          15    lex_screwed_up           apl_error_table_:    63.
         133    line_number_missing      apl_error_table_:   225.
         111    line_too_long_to_edit    apl_error_table_:   189.
         113    locals_differ            apl_error_table_:   193.
         136    locked_function_edited   apl_error_table_:   231.
         225    locked_function_error    apl_error_table_:   353.
          47    lone_period              apl_error_table_:   115.
          46    lone_upper_minus         apl_error_table_:   113.
        3635    mapping_table            apl_error_table_:   432,  433.
           0    messages                 apl_error_table_:    48,   53,   55,   57,   59,   61,   63,   65,   67,   69,   71,
                                                              73,   75,   77,   79,   81,   83,   85,   87,   89,   91,   93,
                                                              95,   97,   99,  101,  103,  105,  107,  109,  111,  113,  115,
                                                             117,  119,  121,  123,  125,  127,  129,  131,  133,  135,  140,
                                                             142,  144,  146,  148,  150,  152,  154,  156,  158,  160,  162,
                                                             164,  166,  168,  170,  172,  174,  176,  178,  183,  185,  187,
                                                             189,  191,  193,  195,  197,  199,  201,  203,  205,  207,  209,
                                                             211,  213,  215,  217,  219,  221,  223,  225,  227,  229,  231,
                                                             233,  235,  237,  239,  241,  243,  245,  247,  249,  251,  253,
                                                             258,  260,  262,  264,  266,  268,  270,  272,  277,  279,  281,
                                                             283,  285,  287,  289,  291,  293,  295,  297,  299,  301,  303,
                                                             305,  307,  309,  314,  316,  318,  323,  325,  327,  329,  331,
                                                             333,  335,  337,  339,  341,  343,  345,  347,  349,  351,  353,
                                                             355,  357,  359,  361,  363,  365,  367,  372,  377,  379,  381,
                                                             383,  388,  390,  392,  394,  396,  398,  400,  402,  404,  406,
                                                             408,  410,  412,  414,  416,  418,  420.
         117    mismatched_editor_quotes       apl_error_table_:   201.
          27    mismatched_parens        apl_error_table_:    83.
          56    mism_quotes              apl_error_table_:   129.
          31    misplaced_brackets       apl_error_table_:    87.
          16    misplaced_diamond        apl_error_table_:    65.
         126    misplaced_left_arrow     apl_error_table_:   215.
          17    misplaced_right_arrow    apl_error_table_:    67.
          20    misplaced_semicolon      apl_error_table_:    69.
         127    missing_function_name    apl_error_table_:   217.
         124    missing_number           apl_error_table_:   211.
         122    missing_number_or_rb     apl_error_table_:   207.
         121    missing_quad_or_rb       apl_error_table_:   205.
         123    missing_rb               apl_error_table_:   209.
         147    missing_slash            apl_error_table_:   249.
          21    mixed_diamonds_and_semicolons  apl_error_table_:    71.
          43    more_than_one_line       apl_error_table_:   107.
          57    more_than_one_line_execute     apl_error_table_:   131.
          52    need_name                apl_error_table_:   121.
          54    need_semicolon           apl_error_table_:   125.
         173    non_existent_stack       apl_error_table_:   295.
         135    non_function_edited      apl_error_table_:   229.
          41    not_allowed_inner_prod   apl_error_table_:   103.
          42    not_allowed_outer_prod   apl_error_table_:   105.
          22    not_end_with_newline     apl_error_table_:    73.
          33    not_end_with_value       apl_error_table_:    91.
         247    not_enough_components    apl_error_table_:   398.
          76    not_implemented          apl_error_table_:   164.
          77    not_within_int_fuzz      apl_error_table_:   166.
         260    no_access_to_file        apl_error_table_:   416.
          75    no_identity              apl_error_table_:   162.
         253    no_such_file             apl_error_table_:   406.
         204    no_sv                    apl_error_table_:   316.
         164    no_type_bits             apl_error_table_:   281.
         257    no_write_permission      apl_error_table_:   414.
          35    num_maps                 apl_error_table_:   430,  434,  435,  436,  437,  438,  439,  440,  441,  442,  443,
                                                             444,  445,  446,  447,  448,  449,  450,  451,  452,  453,  454,
                                                             455,  456,  457,  458,  459,  460,  461,  462,  466.
         114    n_labels_differ          apl_error_table_:   195.
         115    n_locals_differ          apl_error_table_:   197.
        4205    n_map_entries            apl_error_table_:   464,  465.
         241    off_hold                 apl_error_table_:   383.
         251    old_file_header          apl_error_table_:   402.
          53    only_1_return_value      apl_error_table_:   123.
         132    only_integer_after_quad  apl_error_table_:   223.
         100    operator_subscript_range       apl_error_table_:   168.
         101    overflow                 apl_error_table_:   170.
         263    past_codes               apl_error_table_:    48.
         156    pendant_object_erased    apl_error_table_:   266.
         155    pendent_function_copied  apl_error_table_:   264.
         130    pendent_function_edited  apl_error_table_:   219.
         156    pendent_function_erased  apl_error_table_:   266.
         226    pull_assign_system_error       apl_error_table_:   355.
         227    pull_system_error        apl_error_table_:   357.
        1171    push_offset              stack_header:        81.
          23    random_char              apl_error_table_:    75.
          51    random_char_in_hdr       apl_error_table_:   119.
         102    random_system_error      apl_error_table_:   172.
         103    rank                     apl_error_table_:   174.
         230    report_error_system_error      apl_error_table_:   359.
         176    result_size              apl_error_table_:   301.
         236    return_from_apl          apl_error_table_:   377.
        1173    return_no_pop_offset     stack_header:        83.
        1172    return_offset            stack_header:        82.
         242    rqo_on_file              apl_error_table_:   388.
          73    stach_header.trace_top_ptr     stack_header:        62.
          66    stack_header.assign_linkage_ptr      stack_header:        59.
          32    stack_header.bar_mode_sp       stack_header:        42.
          36    stack_header.call_op_ptr       stack_header:        44.
          10    stack_header.clr_ptr     stack_header:        27.
           6    stack_header.combined_stat_ptr       stack_header:        25.
           4    stack_header.cpm_data_ptr      stack_header:        24.
          13    stack_header.cpm_enabled       stack_header:        32.
          13    stack_header.cur_lot_size      stack_header:        31.
          64    stack_header.ect_ptr     stack_header:        58.
          46    stack_header.entry_op_ptr      stack_header:        49.
          70    stack_header.heap_header_ptr   stack_header:        60.
          74    stack_header.in_trace    stack_header:        63.
          52    stack_header.isot_ptr    stack_header:        52.
          26    stack_header.lot_ptr     apl_error_table_:    48,
                                         stack_header:        39.
          12    stack_header.main_proc_invoked       stack_header:        29.
          12    stack_header.max_lot_size      stack_header:        28.
          20    stack_header.parent_ptr  stack_header:        36.
          34    stack_header.pl1_operators_ptr       stack_header:        43.
          40    stack_header.push_op_ptr       stack_header:        46.
          42    stack_header.return_op_ptr     stack_header:        47.
          44    stack_header.ret_no_pop_op_ptr       stack_header:        48.
          62    stack_header.rnt_ptr     stack_header:        57.
          12    stack_header.run_unit_depth    stack_header:        30.
          54    stack_header.sct_ptr     stack_header:        53.
          30    stack_header.signal_ptr  stack_header:        41.
          22    stack_header.stack_begin_ptr   stack_header:        37.
          24    stack_header.stack_end_ptr     stack_header:        38.
          14    stack_header.system_free_ptr   stack_header:        33.
          60    stack_header.sys_link_info_ptr       stack_header:        56.
          72    stack_header.trace_frames      stack_header:        61.
          50    stack_header.trans_op_tv_ptr   stack_header:        51.
          56    stack_header.unwinder_ptr      stack_header:        54.
          16    stack_header.user_free_ptr     stack_header:        34.
         100    stack_header_end         stack_header:        64.
         116    substitute_failed        apl_error_table_:   199.
         231    super_dirty_stop         apl_error_table_:   361.
         131    suspended_header         apl_error_table_:   221.
         104    system                   apl_error_table_:   176.
         235    system_error             apl_error_table_:   372.
         165    tables_inconsistent      apl_error_table_:   283.
         175    temp_seg_already_exists  apl_error_table_:   299.
         244    tie_num_in_use           apl_error_table_:   392.
         144    too_many_editor_digits   apl_error_table_:   243.
         256    too_many_files           apl_error_table_:   412.
          24    too_many_statements      apl_error_table_:    77.
         232    too_much_input           apl_error_table_:   363.
          55    too_short_execute        apl_error_table_:   127.
           0    trace_frames.count       stack_header:        69.
           1    trace_frames.top_ptr     stack_header:        70.
         551    tv_offset                stack_header:        75,   80,   81,   82,   83,   84.
          25    underscore_cant_begin_id       apl_error_table_:    79.
         174    uninterned_symbol        apl_error_table_:   297.
          35    unknown_system_name      apl_error_table_:    95.
         205    unknown_system_var       apl_error_table_:   318.
         141    unmatched_editor_brackets      apl_error_table_:   237.
          56    u_mism_ur_quotes         apl_error_table_:   129.
         233    value                    apl_error_table_:   365.
         140    variable_name_required   apl_error_table_:   235.
         176    wsfull_alloc_too_big     apl_error_table_:   301.
         177    wsfull_no_stack_segs     apl_error_table_:   303.
         200    wsfull_on_stack          apl_error_table_:   305.
         201    wsfull_out_of_maps       apl_error_table_:   307.
         202    wsfull_out_of_segs       apl_error_table_:   309.
         240    ws_cleared               apl_error_table_:   381.
         157    ws_dir_restricted        apl_error_table_:   268.
          36    ws_full_in_lex           apl_error_table_:    97.
         234    ws_full_no_quota         apl_error_table_:   367.
         237    ws_loaded                apl_error_table_:   379.
         160    ws_locked                apl_error_table_:   270.
         161    ws_wrong_version         apl_error_table_:   272.
         105    zerodivide               apl_error_table_:   178.


NO FATAL ERRORS


                                          -----------------------------------------------------------


Historical Background

This edition of the Multics software materials and documentation is provided and donated
to Massachusetts Institute of Technology by Group BULL including BULL HN Information Systems Inc.
as a contribution to computer science knowledge.
This donation is made also to give evidence of the common contributions of Massachusetts Institute of Technology,
Bell Laboratories, General Electric, Honeywell Information Systems Inc., Honeywell BULL Inc., Groupe BULL
and BULL HN Information Systems Inc. to the development of this operating system.
Multics development was initiated by Massachusetts Institute of Technology Project MAC (1963-1970),
renamed the MIT Laboratory for Computer Science and Artificial Intelligence in the mid 1970s, under the leadership
of Professor Fernando Jose Corbato. Users consider that Multics provided the best software architecture
for managing computer hardware properly and for executing programs. Many subsequent operating systems
incorporated Multics principles.
Multics was distributed in 1975 to 2000 by Group Bull in Europe , and in the U.S. by Bull HN Information Systems Inc.,
as successor in interest by change in name only to Honeywell Bull Inc. and Honeywell Information Systems Inc. .

                                          -----------------------------------------------------------

Permission to use, copy, modify, and distribute these programs and their documentation for any purpose and without
fee is hereby granted,provided that the below copyright notice and historical background appear in all copies
and that both the copyright notice and historical background and this permission notice appear in supporting
documentation, and that the names of MIT, HIS, BULL or BULL HN not be used in advertising or publicity pertaining
to distribution of the programs without specific prior written permission.
    Copyright 1972 by Massachusetts Institute of Technology and Honeywell Information Systems Inc.
    Copyright 2006 by BULL HN Information Systems Inc.
    Copyright 2006 by Bull SAS
    All Rights Reserved
