ASSEMBLY LISTING OF SEGMENT >special_ldd>on>apl.1129>apl_static_.alm
ASSEMBLED ON:	11/29/83  1616.4 mst Tue
OPTIONS USED:	list
ASSEMBLED BY:	ALM Version  6.6  November 1982
ASSEMBLER CREATED:	09/21/83  1227.3 mst Wed

                                     1  "  ******************************************************
                                     2  "  *                                                    *
                                     3  "  *                                                    *
                                     4  "  * Copyright (c) 1972 by Massachusetts Institute of   *
                                     5  "  * Technology and Honeywell Information Systems, Inc. *
                                     6  "  *                                                    *
                                     7  "  *                                                    *
                                     8  "  ******************************************************
                                     9
    000000                          10  	name apl_static_
                                    11
                                    12  " this data base contains the packed pointer to the ws_info
                                    13  " structure described by apl_ws_info.incl.pl1
                                    14
                                    15  " written 73.8.3 by DAM
                                    16  " Modified 740910 by PG to flush obsolete entries.
                                    17  " Modified 761005 by PG to give a temporary home to immediate_input_prompt.
                                    18  " Modified 781208 by PG to add pointers to IOCB's.
                                    19  " Modified 800129 by PG to delete localization info.
                                    20
                                    21  	use	static
                                    22
                                    23  "	DOUBLE-WORD ALIGNED ITEMS.
                                    24
                        000010      25  	segdef	apl_input
    000010                          26  apl_input:
    000010  aa   077777 000043      27  	its	-1,1
    000011  aa   000001 000000
                                    28
                        000012      29  	segdef	apl_output
    000012                          30  apl_output:
    000012  aa   077777 000043      31  	its	-1,1
    000013  aa   000001 000000
                                    32
                        000014      33  	segdef	user_tty
    000014                          34  user_tty:
    000014  aa   077777 000043      35  	its	-1,1
    000015  aa   000001 000000
                                    36
                                    37  "	SINGLE-WORD ALIGNED ITEMS.
                                    38
                        000016      39  	segdef	ws_info_ptr
    000016                          40  ws_info_ptr:
    000016  aa   007777 000001      41  	oct	007777000001	initialize to null pointer
                                    42
                        000017      43  	segdef	immediate_input_prompt
    000017                          44  immediate_input_prompt:
    000017  aa   000000 000000      45  	dec	0
    000020  aa  040 040 040 040     46  	aci	" ",32
    000021  aa  040 040 040 040
    000022  aa  040 040 040 040
    000023  aa  040 040 040 040
    000024  aa  040 040 040 040
    000025  aa  040 040 040 040
    000026  aa  040 040 040 040
    000027  aa  040 040 040 040
                                    47
                                    48  	join	/link/static
                                    49  	use	text
                                    50  	join	/text/text
                                    51
                        000000      52  	segdef	version_number
    000000                          53  version_number:
    000000  aa  040 065 056 060     54  	aci	" 5.02",5
    000001  aa  062 000 000 000
                                    55
                                    56  	end

NO LITERALS

NAME DEFINITIONS FOR ENTRY POINTS AND SEGDEFS

    000002  5a   000003 000000
    000003  5a   000070 600000
    000004  aa   000000 000000
    000005  55   000011 000002
    000006  5a   000002 400003
    000007  55   000006 000011
    000010  aa  013 141 160 154
    000011  aa  137 163 164 141
    000012  aa  164 151 143 137
    000013  55   000020 000003
    000014  0a   000000 400000
    000015  55   000014 000003
    000016  aa  016 166 145 162         version_number
    000017  aa  163 151 157 156
    000020  aa  137 156 165 155
    000021  aa  142 145 162 000
    000022  55   000031 000011
    000023  2a   000017 400001
    000024  55   000023 000003
    000025  aa  026 151 155 155         immediate_input_prompt
    000026  aa  145 144 151 141
    000027  aa  164 145 137 151
    000030  aa  156 160 165 164
    000031  aa  137 160 162 157
    000032  aa  155 160 164 000
    000033  55   000037 000020
    000034  2a   000016 400001
    000035  55   000034 000003
    000036  aa  013 167 163 137         ws_info_ptr
    000037  aa  151 156 146 157
    000040  aa  137 160 164 162
    000041  55   000045 000031
    000042  2a   000014 400001
    000043  55   000042 000003
    000044  aa  010 165 163 145         user_tty
    000045  aa  162 137 164 164
    000046  aa  171 000 000 000
    000047  55   000053 000037
    000050  2a   000012 400001
    000051  55   000050 000003
    000052  aa  012 141 160 154         apl_output
    000053  aa  137 157 165 164
    000054  aa  160 165 164 000
    000055  55   000061 000045
    000056  2a   000010 400001
    000057  55   000056 000003
    000060  aa  011 141 160 154         apl_input
    000061  aa  137 151 156 160
    000062  aa  165 164 000 000
    000063  55   000002 000053
    000064  6a   000000 400002
    000065  55   000064 000003
    000066  aa  014 163 171 155         symbol_table
    000067  aa  142 157 154 137
    000070  aa  164 141 142 154
    000071  aa  145 000 000 000

DEFINITIONS HASH TABLE

    000072  aa   000000 000015
    000073  aa   000000 000000
    000074  5a   000045 000000
    000075  5a   000011 000000
    000076  5a   000031 000000
    000077  aa   000000 000000
    000100  aa   000000 000000
    000101  5a   000053 000000
    000102  5a   000061 000000
    000103  aa   000000 000000
    000104  aa   000000 000000
    000105  5a   000020 000000
    000106  aa   000000 000000
    000107  5a   000037 000000

NO EXTERNAL NAMES

NO TRAP POINTER WORDS

TYPE PAIR BLOCKS

    000110  aa   000001 000000
    000111  aa   000000 000000

INTERNAL EXPRESSION WORDS

LINKAGE INFORMATION

    000000  aa   000000 000000
    000001  0a   000002 000000
    000002  aa   000000 000000
    000003  aa   000000 000000
    000004  aa   000000 000000
    000005  aa   000000 000000
    000006  22   000030 000030
    000007  a2   000000 000020
SYMBOL INFORMATION

SYMBOL TABLE HEADER

    000000  aa   000000 000001
    000001  aa   163171 155142
    000002  aa   164162 145145
    000003  aa   000000 000004
    000004  aa   000000 112143
    000005  aa   305203 523135
    000006  aa   000000 112272
    000007  aa   255053 311777
    000010  aa   141154 155040
    000011  aa   040040 040040
    000012  aa   000024 000040
    000013  aa   000034 000040
    000014  aa   000044 000100
    000015  aa   000002 000002
    000016  aa   000064 000000
    000017  aa   000000 000121
    000020  aa   000000 000104
    000021  aa   000000 000107
    000022  aa   000113 000104
    000023  aa   000064 000000
    000024  aa   101114 115040
    000025  aa   126145 162163
    000026  aa   151157 156040
    000027  aa   040066 056066
    000030  aa   040040 116157
    000031  aa   166145 155142
    000032  aa   145162 040061
    000033  aa   071070 062040
    000034  aa   115141 162164
    000035  aa   151156 163157
    000036  aa   156056 123171
    000037  aa   163115 141151
    000040  aa   156164 056155
    000041  aa   040040 040040
    000042  aa   040040 040040
    000043  aa   040040 040040
    000044  aa   154151 163164
    000045  aa   040040 040040
    000046  aa   040040 040040
    000047  aa   040040 040040
    000050  aa   040040 040040
    000051  aa   040040 040040
    000052  aa   040040 040040
    000053  aa   040040 040040
    000054  aa   040040 040040
    000055  aa   040040 040040
    000056  aa   040040 040040
    000057  aa   040040 040040
    000060  aa   040040 040040
    000061  aa   040040 040040
    000062  aa   040040 040040
    000063  aa   040040 040040
    000064  aa   000000 000001
    000065  aa   000000 000001
    000066  aa   000072 000050
    000067  aa   122721 262651
    000070  aa   000000 112272
    000071  aa   152277 600000
    000072  aa   076163 160145          >special_ldd>on>apl.1129>apl_static_.alm
    000073  aa   143151 141154
    000074  aa   137154 144144
    000075  aa   076157 156076
    000076  aa   141160 154056
    000077  aa   061061 062071
    000100  aa   076141 160154
    000101  aa   137163 164141
    000102  aa   164151 143137
    000103  aa   056141 154155
               MULTICS ASSEMBLY CROSS REFERENCE LISTING

   Value        Symbol                   Source file   Line number

          10    apl_input                apl_static_:   25,   26.
          12    apl_output               apl_static_:   29,   30.
          17    immediate_input_prompt   apl_static_:   43,   44.
          10    static                   apl_static_:   21,   48.
           0    text                     apl_static_:   49,   50.
          14    user_tty                 apl_static_:   33,   34.
           0    version_number           apl_static_:   52,   53.
          16    ws_info_ptr              apl_static_:   39,   40.


NO FATAL ERRORS


                                          -----------------------------------------------------------


Historical Background

This edition of the Multics software materials and documentation is provided and donated
to Massachusetts Institute of Technology by Group BULL including BULL HN Information Systems Inc.
as a contribution to computer science knowledge.
This donation is made also to give evidence of the common contributions of Massachusetts Institute of Technology,
Bell Laboratories, General Electric, Honeywell Information Systems Inc., Honeywell BULL Inc., Groupe BULL
and BULL HN Information Systems Inc. to the development of this operating system.
Multics development was initiated by Massachusetts Institute of Technology Project MAC (1963-1970),
renamed the MIT Laboratory for Computer Science and Artificial Intelligence in the mid 1970s, under the leadership
of Professor Fernando Jose Corbato. Users consider that Multics provided the best software architecture
for managing computer hardware properly and for executing programs. Many subsequent operating systems
incorporated Multics principles.
Multics was distributed in 1975 to 2000 by Group Bull in Europe , and in the U.S. by Bull HN Information Systems Inc.,
as successor in interest by change in name only to Honeywell Bull Inc. and Honeywell Information Systems Inc. .

                                          -----------------------------------------------------------

Permission to use, copy, modify, and distribute these programs and their documentation for any purpose and without
fee is hereby granted,provided that the below copyright notice and historical background appear in all copies
and that both the copyright notice and historical background and this permission notice appear in supporting
documentation, and that the names of MIT, HIS, BULL or BULL HN not be used in advertising or publicity pertaining
to distribution of the programs without specific prior written permission.
    Copyright 1972 by Massachusetts Institute of Technology and Honeywell Information Systems Inc.
    Copyright 2006 by BULL HN Information Systems Inc.
    Copyright 2006 by Bull SAS
    All Rights Reserved
