ASSEMBLY LISTING OF SEGMENT >special_ldd>on>apl.1129>apl_dim_tables_.alm
ASSEMBLED ON:	11/29/83  1613.6 mst Tue
OPTIONS USED:	list
ASSEMBLED BY:	ALM Version  6.6  November 1982
ASSEMBLER CREATED:	09/21/83  1227.3 mst Wed

                                     1  "  ******************************************************
                                     2  "  *                                                    *
                                     3  "  *                                                    *
                                     4  "  * Copyright (c) 1972 by Massachusetts Institute of   *
                                     5  "  * Technology and Honeywell Information Systems, Inc. *
                                     6  "  *                                                    *
                                     7  "  *                                                    *
                                     8  "  ******************************************************
                                     9
                                    10  " Conversion table for APL/Multics to 2741/1050.
                                    11  " PG 8/14/73.
                                    12  " Modified 740319 by PG for network_ascii table and fix a couple of bugs
                                    13  " Modified 740322 by PG to fix bugs in 4013 table
                                    14  " Modified 740327 by PG to add network 2741 table
                                    15  " Modified 741015 by PG to get network 2741 table to work
                                    16  " Modified 741031 by PG to fix bugs in overstrike conversion table.
                                    17  " Modified 741118 by PG to fix length of ASCII compression table.
                                    18  " Modified 760206 by PG to add Correspondence 2741 table.
                                    19  " Modified 760730 by PG to finally add bit-paired APL/ASCII table (CDI 1030).
                                    20  " Modified 770406 by PG to change graphics for left tack,right tack,diamond,and braces on 2741s.
                                    21  " Modified 770415 by PG to add cent-sign
                                    22  " Modified 780317 by PG to fix 317 (letter H going to "140 instead of "150 on Corr 2741),
                                    23  "	and convert to ALM.
                                    24  " Modified 790320 by PG to add CommaHyphen to all tables, to delete NET2741 table,
                                    25  "	and to add typepaired and bitpaired tables.
                                    26  " Modified 790910 by PG to add Teleray11 type, add 1200 baud delay values,
                                    27  "	and to flush delays for TEK4013 now that TYPEPAIRED exists.
                                    28  " Modified 800129 by PG to add SARA, AJ510, AJ830.
                                    29  " Modified 800130 by PG to correct quit-editing string for TELERAY11,
                                    30  "	AJ510, AJ830, and LA36.
                                    31
                                    32  " NOTE WELL:  The macro expander of ALM screws up if unbalanced parenthesis appear
                                    33  " in the comment field of any line passed to it.  The symptom is that the macro
                                    34  " does not get expanded.  This is disasterous for the tables!  Please be careful!
                                    35  " 
                                    36  " " " " " " " " " " " " " " " " " " " " " " " " " " " " " " " " " " " "
                                    37  "							"
                                    38  "			MACROS				"
                                    39  "							"
                                    40  " " " " " " " " " " " " " " " " " " " " " " " " " " " " " " " " " " " "
                                    41
    000000                          42  	maclist	object
                                    43
                                    44  	macro	dev_info
                              1     45  	zero	&1,&2	"conversion table offset,sequence table offset
                              2     46  	zero	&3,&4	"compression_in table offset,compression_out table offset
                              3     47  	&end
                                    48
                                    49  	macro	dev_info1
                              1     50  "graphic,shifter,quit_editing_allowed,linefeed_char_code,escape_char_code.
                              2     51  	vfd	1/&1,1/&2,1/&3,15/0,o9/&4,o9/&5
                              3     52  "delay,upper case,lower case,escape char device.
                              4     53  	vfd	o9/&6,o9/&7,o9/&8,o9/&9
                              5     54  	&end
                                    55
                                    56  	macro	dev_info2
                              1     57  	vfd	18/&1,18/&2	"default page length,default line length.
                              2     58  	&end
                                    59
                                    60  	macro	delay
                              1     61  &R&(&=&x,1&[	vfd	&;,&]o18/&i&)
                              2     62  	&end
                                    63
                                    64  	macro	tab9
                              1     65  &R&(&=&x,1&[	vfd	&;,&]o9/&i&)
                              2     66  	&end
                                    67
                                    68  	macro	tab6
                              1     69  &R&(&=&x,1&[	vfd	&;,&]6/&i&)
                              2     70  	&end
                                    71  " 
                                    72
    000000                          73  	name	apl_dim_tables_
                                    74
                        001624      75  	segdef	apl_1030
                        000000      76  	segdef	apl_2741
                        001176      77  	segdef	apl_4013
                        003210      78  	segdef	apl_aj510
                        003243      79  	segdef	apl_aj830
                        002252      80  	segdef	apl_ascii
                        002774      81  	segdef	apl_ascii_display
                        003154      82  	segdef	apl_bitpaired
                        000542      83  	segdef	apl_correspondence_2741
                        003243      84  	segdef	apl_la36
                        003277      85  	segdef	apl_sara
                        003210      86  	segdef	apl_teleray11
                        003064      87  	segdef	apl_teletype
                        003030      88  	segdef	apl_tn300
                        003120      89  	segdef	apl_typepaired
                                    90
                        000001      91  	equ	graphic,1
                        000000      92  	equ	not_graphic,0
                        000001      93  	equ	shift_needed,1
                        000000      94  	equ	no_shift_needed,0
                        000001      95  	equ	quit_editing_allowed,1
                        000000      96  	equ	quit_editing_not_allowed,0
                                    97  " 
                                    98  " Conversion table for EBCD 2741s.
                                    99  "
    000000                         100  apl_2741:
                                   101  	dev_info	convert_2741,sequence_2741,compression_in,compression_out
    000000  00   000034 000330
    000001  00   000434 000512
    000002  aa  062 067 064 061    102  	aci	"2741",32
    000003  aa  040 040 040 040
    000004  aa  040 040 040 040
    000005  aa  040 040 040 040
    000006  aa  040 040 040 040
    000007  aa  040 040 040 040
    000010  aa  040 040 040 040
    000011  aa  040 040 040 040
                                   103  	dev_info1	not_graphic,shift_needed,quit_editing_allowed,
                                   104  		056,245,075,034,037,240
    000012  aa   300000 056245
    000013  aa   075034 037240
                                   105  	dev_info2	0,120			" page length,line length
    000014  aa   000000 000170
                                   106  	delay	0,0,0,0,0,0,	" 110 nl addend,nl multiplier,tab addend,tab multiplier,bs num pads,np num pads
                                   107  		1616,71,1253,71,0,0,	" 134 and 150
                                   108  		0,0,0,0,0,0,	" 300
                                   109  		0,0,0,0,0,0	" 1200
    000015  aa   000000 000000
    000016  aa   000000 000000
    000017  aa   000000 000000
    000020  aa   001616 000071
    000021  aa   001253 000071
    000022  aa   000000 000000
    000023  aa   000000 000000
    000024  aa   000000 000000
    000025  aa   000000 000000
    000026  aa   000000 000000
    000027  aa   000000 000000
    000030  aa   000000 000000
    000031  aa   000000 000007     110  	dec	7
                                   111  	tab9	056,075,034,044,035,056,037	" LF IDLE UPSHIFT OR-SIGN BS LF DOWNSHIFT
    000032  aa   056075 034044
    000033  aa   035056 037000
                                   112
                                   113
                                   114  	even
                                   115  " code conversion tables
                                   116  "
                                   117  "   flags	bit(2),	00=none,01=upper case,10=lower case,11=special.
                                   118  "   data	bit(7)	value if flags ^= special,else
                                   119  "		0=ignore,1=mark error,2=octal escape,3=conditional NL,4-7 unused,
                                   120  "		(>7)=(data-8)th entry in sequence table
                                   121
    000034                         122  convert_2741:
                                   123  	tab9	602,602,602,602,602,602,015,610	" apl/ascii to 2741
    000034  aa   602602 602602
    000035  aa   602602 015610
                                   124  	tab9	035,057,455,602,602,602,611,612
    000036  aa   035057 455602
    000037  aa   602602 611612
                                   125  	tab9	602,602,602,602,602,016,602,602
    000040  aa   602602 602602
    000041  aa   602016 602602
                                   126  	tab9	602,602,602,602,602,602,602,602
    000042  aa   602602 602602
    000043  aa   602602 602602
                                   127  	tab9	000,613,602,602,614,602,602,221
    000044  aa   000613 602602
    000045  aa   614602 602221
                                   128  	tab9	265,264,271,401,466,201,467,442
    000046  aa   265264 271401
    000047  aa   466201 467442
                                   129  	tab9	424,440,420,460,410,450,430,470
    000050  aa   424440 420460
    000051  aa   410450 430470
                                   130  	tab9	404,444,267,266,260,250,270,205
    000052  aa   404444 267266
    000053  aa   260250 270205
                                   131  	tab9	602,615,616,617,620,621,622,623
    000054  aa   602615 616617
    000055  aa   620621 622623
                                   132  	tab9	624,625,626,627,630,631,632,633
    000056  aa   624625 626627
    000057  aa   630631 632633
                                   133  	tab9	634,635,636,637,640,641,642,643
    000060  aa   634635 636637
    000061  aa   640641 642643
                                   134  	tab9	644,645,646,465,242,464,602,233
    000062  aa   644645 646465
    000063  aa   242464 602233
                                   135  	tab9	602,443,423,463,413,453,433,473
    000064  aa   602443 423463
    000065  aa   413453 433473
                                   136  	tab9	407,447,441,421,461,411,451,431
    000066  aa   407447 441421
    000067  aa   461411 451431
                                   137  	tab9	471,405,445,422,462,412,452,432
    000070  aa   471405 445422
    000071  aa   462412 452432
                                   138  	tab9	472,406,446,647,211,650,262,600
    000072  aa   472406 446647
    000073  aa   211650 262600
                                   139
                                   140  	tab9	210,230,204,244,224,203,253,206
    000074  aa   210230 204244
    000075  aa   224203 253206
                                   141  	tab9	212,231,222,213,207,241,261,263
    000076  aa   212231 222213
    000077  aa   207241 261263
                                   142  	tab9	223,251,246,272,252,651,652,653
    000100  aa   223251 246272
    000101  aa   252651 652653
                                   143  	tab9	654,655,656,657,660,661,662,663
    000102  aa   654655 656657
    000103  aa   660661 662663
                                   144  	tab9	664,665,666,667,670,240,232,247
    000104  aa   664665 666667
    000105  aa   670240 232247
                                   145  	tab9	245,403,243,220,273,402,202,671
    000106  aa   245403 243220
    000107  aa   273402 202671
                                   146  	tab9	672,673,674,675,676,677,700,701
    000110  aa   672673 674675
    000111  aa   676677 700701
                                   147  	tab9	702,703,704,601,705,706,707,710
    000112  aa   702703 704601
    000113  aa   705706 707710
                                   148  	tab9	711,603,712,713,602,602,602,602
    000114  aa   711603 712713
    000115  aa   602602 602602
                                   149  	tab9	602,602,602,602,602,602,602,602
    000116  aa   602602 602602
    000117  aa   602602 602602
                                   150  	tab9	602,602,602,602,602,602,602,602
    000120  aa   602602 602602
    000121  aa   602602 602602
                                   151  	tab9	602,602,602,602,602,602,602,602
    000122  aa   602602 602602
    000123  aa   602602 602602
                                   152  	tab9	602,602,602,602,602,602,602,602
    000124  aa   602602 602602
    000125  aa   602602 602602
                                   153  	tab9	602,602,602,602,602,602,602,602
    000126  aa   602602 602602
    000127  aa   602602 602602
                                   154  	tab9	602,602,602,602,602,602,602,602
    000130  aa   602602 602602
    000131  aa   602602 602602
                                   155  	tab9	602,602,602,602,602,602,602,602
    000132  aa   602602 602602
    000133  aa   602602 602602
                                   156
                                   157  " flag	bit(1),	0=normal,1=special.
                                   158  "   data	bit(8)	value if normal,else 0=goto lower case,1=goto upper case,2=one char shift,3=prefix char,
                                   159  "		4=ignore it,5=character error
                                   160
                                   161  	tab9	040,053,255,251,070,161,171,150	" 2741 to apl/ascii
    000134  aa   040053 255251
    000135  aa   070161 171150
                                   162  	tab9	064,155,165,144,404,006,025,404
    000136  aa   064155 165144
    000137  aa   404006 025404
                                   163  	tab9	062,153,163,142,060,404,404,404
    000140  aa   062153 163142
    000141  aa   060404 404404
                                   164  	tab9	066,157,167,146,401,010,404,404
    000142  aa   066157 167146
    000143  aa   401010 404404
                                   165  	tab9	061,152,057,141,071,162,172,151
    000144  aa   061152 057141
    000145  aa   071162 172151
                                   166  	tab9	065,156,166,145,404,012,300,011
    000146  aa   065156 166145
    000147  aa   404012 300011
                                   167  	tab9	063,154,164,143,135,133,054,056
    000150  aa   063154 164143
    000151  aa   135133 054056
                                   168  	tab9	067,160,170,147,404,404,403,404
    000152  aa   067160 170147
    000153  aa   404404 403404
                                   169  	tab9	040,055,256,205,202,077,207,214
    000154  aa   040055 256205
    000155  aa   202077 207214
                                   170  	tab9	200,174,210,213,404,006,025,404
    000156  aa   200174 210213
    000157  aa   404006 025404
                                   171  	tab9	253,047,212,220,204,404,404,404
    000160  aa   253047 212220
    000161  aa   204404 404404
                                   172  	tab9	201,211,246,137,404,010,404,400
    000162  aa   201211 246137
    000163  aa   404010 404400
                                   173  	tab9	245,215,134,252,203,250,222,247
    000164  aa   245215 134252
    000165  aa   203250 222247
                                   174  	tab9	075,221,224,206,404,012,300,011
    000166  aa   075221 224206
    000167  aa   404012 300011
                                   175  	tab9	074,216,176,217,051,050,073,072
    000170  aa   074216 176217
    000171  aa   051050 073072
                                   176  	tab9	076,052,223,254,404,404,403,404
    000172  aa   076052 223254
    000173  aa   404404 403404
                                   177
                                   178  " code movement table.
                                   179  " white  bit(1),
                                   180  "   red    bit(1),
                                   181  "   action bit(4),	0=none,1=esc,2=erase,3=kill,4=delim,5=break
                                   182  "   move   bit(3)	0=+1,1=0,2=bs,3=tab,4=cr,5=nl,6=np,7=vt
                                   183
                                   184  	tab9	001,001,001,001,001,001,001,001
    000174  aa   001001 001001
    000175  aa   001001 001001
                                   185  	tab9	402,403,445,007,006,404,201,201
    000176  aa   402403 445007
    000177  aa   006404 201201
                                   186  	tab9	001,001,001,001,001,001,001,001
    000200  aa   001001 001001
    000201  aa   001001 001001
                                   187  	tab9	000,000,001,001,000,001,000,001
    000202  aa   000000 001001
    000203  aa   000001 000001
                                   188  	tab9	400,000,000,020,000,000,000,000
    000204  aa   400000 000020
    000205  aa   000000 000000
                                   189  	tab9	000,000,000,000,000,000,000,000
    000206  aa   000000 000000
    000207  aa   000000 000000
                                   190  	tab9	000,000,000,000,000,000,000,000
    000210  aa   000000 000000
    000211  aa   000000 000000
                                   191  	tab9	000,000,000,000,000,000,000,000
    000212  aa   000000 000000
    000213  aa   000000 000000
                                   192  	tab9	030,000,000,000,000,000,000,000
    000214  aa   030000 000000
    000215  aa   000000 000000
                                   193  	tab9	000,000,000,000,000,000,000,000
    000216  aa   000000 000000
    000217  aa   000000 000000
                                   194  	tab9	000,000,000,000,000,000,000,000
    000220  aa   000000 000000
    000221  aa   000000 000000
                                   195  	tab9	000,000,000,000,000,000,000,000
    000222  aa   000000 000000
    000223  aa   000000 000000
                                   196  	tab9	000,000,000,000,000,000,000,000
    000224  aa   000000 000000
    000225  aa   000000 000000
                                   197  	tab9	000,000,000,000,000,000,000,000
    000226  aa   000000 000000
    000227  aa   000000 000000
                                   198  	tab9	000,000,000,000,000,000,000,000
    000230  aa   000000 000000
    000231  aa   000000 000000
                                   199  	tab9	000,000,000,000,000,000,000,401
    000232  aa   000000 000000
    000233  aa   000000 000401
                                   200
                                   201  	tab9	000,000,000,000,000,000,000,000
    000234  aa   000000 000000
    000235  aa   000000 000000
                                   202  	tab9	000,000,000,000,000,000,000,000
    000236  aa   000000 000000
    000237  aa   000000 000000
                                   203  	tab9	000,000,000,000,000,000,000,000
    000240  aa   000000 000000
    000241  aa   000000 000000
                                   204  	tab9	000,000,000,000,000,000,000,000
    000242  aa   000000 000000
    000243  aa   000000 000000
                                   205  	tab9	000,000,000,000,000,010,020,000
    000244  aa   000000 000000
    000245  aa   000010 020000
                                   206  	tab9	000,000,030,000,000,000,000,000
    000246  aa   000000 030000
    000247  aa   000000 000000
                                   207  	tab9	000,000,000,000,000,000,000,000
    000250  aa   000000 000000
    000251  aa   000000 000000
                                   208  	tab9	000,000,000,000,000,000,000,000
    000252  aa   000000 000000
    000253  aa   000000 000000
                                   209  	tab9	055,000,000,000,000,000,000,000
    000254  aa   055000 000000
    000255  aa   000000 000000
                                   210  	tab9	000,000,000,000,000,000,000,000
    000256  aa   000000 000000
    000257  aa   000000 000000
                                   211  	tab9	000,000,000,000,000,000,000,000
    000260  aa   000000 000000
    000261  aa   000000 000000
                                   212  	tab9	000,000,000,000,000,000,000,000
    000262  aa   000000 000000
    000263  aa   000000 000000
                                   213  	tab9	000,000,000,000,000,000,000,000
    000264  aa   000000 000000
    000265  aa   000000 000000
                                   214  	tab9	000,000,000,000,000,000,000,000
    000266  aa   000000 000000
    000267  aa   000000 000000
                                   215  	tab9	000,000,000,000,000,000,000,000
    000270  aa   000000 000000
    000271  aa   000000 000000
                                   216  	tab9	000,000,000,000,000,000,000,000
    000272  aa   000000 000000
    000273  aa   000000 000000
                                   217
                                   218  " device movement table.
                                   219  " move   bit(6)	0=+1,1=0,2=bs,3=tab,4=cr,5=nl,6=pref,7=LC,8=UC,9=QC
                                   220
                                   221  	tab6	0,0,0,0,0,0,0,0,0,0,0,0,1,1,1,1,0,0,0,0,0,1,1,1
    000274  aa   000000 000000
    000275  aa   000000 000000
    000276  aa   010101 010000
    000277  aa   000000 010101
                                   222  	tab6	0,0,0,0,8,2,1,7,0,0,0,0,0,0,0,0,0,0,0,0,1,5,1,3
    000300  aa   000000 001002
    000301  aa   010700 000000
    000302  aa   000000 000000
    000303  aa   000001 050103
                                   223  	tab6	0,0,0,0,0,0,0,0,0,0,0,0,9,1,6,1,0,0,0,0,0,0,0,0
    000304  aa   000000 000000
    000305  aa   000000 000000
    000306  aa   110106 010000
    000307  aa   000000 000000
                                   224  	tab6	0,0,0,0,1,1,1,1,0,0,0,0,0,1,1,1,0,0,0,0,8,2,1,7
    000310  aa   000000 000101
    000311  aa   010100 000000
    000312  aa   000101 010000
    000313  aa   000010 020107
                                   225  	tab6	0,0,0,0,0,0,0,0,0,0,0,0,1,5,1,3,0,0,0,0,0,0,0,0
    000314  aa   000000 000000
    000315  aa   000000 000000
    000316  aa   010501 030000
    000317  aa   000000 000000
                                   226  	tab6	0,0,0,0,9,1,6,1
    000320  aa   000000 001101
    000321  aa   060100 000000
                                   227
                                   228  " escape/prefix table
                                   229  " prefix bit(1),	0=escape char,1=prefix char
                                   230  "  conceal bit(1),	0=normal,1=do not process for special meaning
                                   231  "   unused	bit(7),
                                   232  "   inchar	bit(9),	char after escape or prefix
                                   233  "  outchar bit(9)	sequence is translated to this character
                                   234
    000322  aa   000000 000004     235  	dec	4		" === (5-1)
                                   236  	tab9	600,023,017	" brs
    000323  aa   600023 017000
                                   237  	tab9	600,123,017	" BRS
    000324  aa   600123 017000
                                   238  	tab9	600,043,016	" rrs
    000325  aa   600043 016000
                                   239  	tab9	600,143,016	" RRS
    000326  aa   600143 016000
                                   240  	tab9	200,245,245	" esc esc (diaresis)
    000327  aa   200245 245000
                                   241
                                   242  " output sequence table.
                                   243  " dcl 1 sequence_entry,
                                   244  "       2 count unal fixed bin(8),
                                   245  "       2 string char(sequence_entry.count) unaligned
                                   246
    000330                         247  sequence_2741:
                                   248  	tab9	2,034,037		" Bel -> upshift,downshift
    000330  aa   002034 037000
                                   249  	tab9	2,076,043		" RRS -> prefix A.
    000331  aa   002076 043000
                                   250  	tab9	2,076,023		" BRS -> prefix B.
    000332  aa   002076 023000
                                   251  	tab9	3,221,035,467	" !
    000333  aa   003221 035467
                                   252  	tab9	3,422,035,442	" $
    000334  aa   003422 035442
                                   253  	tab9	3,443,035,233	" A_
    000335  aa   003443 035233
                                   254  	tab9	3,423,035,233	" B_
    000336  aa   003423 035233
                                   255  	tab9	3,463,035,233	" C_
    000337  aa   003463 035233
                                   256  	tab9	3,413,035,233	" D_
    000340  aa   003413 035233
                                   257  	tab9	3,453,035,233	" E_
    000341  aa   003453 035233
                                   258  	tab9	3,433,035,233	" F_
    000342  aa   003433 035233
                                   259  	tab9	3,473,035,233	" G_
    000343  aa   003473 035233
                                   260  	tab9	3,407,035,233	" H_
    000344  aa   003407 035233
                                   261  	tab9	3,447,035,233	" I_
    000345  aa   003447 035233
                                   262  	tab9	3,441,035,233	" J_
    000346  aa   003441 035233
                                   263  	tab9	3,421,035,233	" K_
    000347  aa   003421 035233
                                   264  	tab9	3,461,035,233	" L_
    000350  aa   003461 035233
                                   265  	tab9	3,411,035,233	" M_
    000351  aa   003411 035233
                                   266  	tab9	3,451,035,233	" N_
    000352  aa   003451 035233
                                   267  	tab9	3,431,035,233	" O_
    000353  aa   003431 035233
                                   268  	tab9	3,471,035,233	" P_
    000354  aa   003471 035233
                                   269  	tab9	3,405,035,233	" Q_
    000355  aa   003405 035233
                                   270  	tab9	3,445,035,233	" R_
    000356  aa   003445 035233
                                   271  	tab9	3,422,035,233	" S_
    000357  aa   003422 035233
                                   272  	tab9	3,462,035,233	" T_
    000360  aa   003462 035233
                                   273  	tab9	3,412,035,233	" U_
    000361  aa   003412 035233
                                   274  	tab9	3,452,035,233	" V_
    000362  aa   003452 035233
                                   275  	tab9	3,432,035,233	" W_
    000363  aa   003432 035233
                                   276  	tab9	3,472,035,233	" X_
    000364  aa   003472 035233
                                   277  	tab9	3,406,035,233	" Y_
    000365  aa   003406 035233
                                   278  	tab9	3,446,035,233	" Z_
    000366  aa   003446 035233
                                   279  	tab9	3,465,035,241	" { [(os)_o
    000367  aa   003465 035241
                                   280  	tab9	3,464,035,241	" } ](os)_o
    000370  aa   003464 035241
                                   281  	tab9	3,244,035,262	" nand
    000371  aa   003244 035262
                                   282  	tab9	3,224,035,262	" nor
    000372  aa   003224 035262
                                   283  	tab9	3,231,035,201	" reverse first
    000373  aa   003231 035201
                                   284  	tab9	3,442,035,201	" -/
    000374  aa   003442 035201
                                   285  	tab9	3,273,035,262	" locked function
    000375  aa   003273 035262
                                   286  	tab9	3,231,035,271	" logarithm
    000376  aa   003231 035271
                                   287  	tab9	3,231,035,211	" O|
    000377  aa   003231 035211
                                   288  	tab9	3,231,035,242	" transpose
    000400  aa   003231 035242
                                   289  	tab9	3,231,035,442	" /O
    000401  aa   003231 035442
                                   290  	tab9	3,273,035,211	" grade down
    000402  aa   003273 035211
                                   291  	tab9	3,207,035,211	" grade up
    000403  aa   003207 035211
                                   292  	tab9	3,263,035,241	" lamp
    000404  aa   003263 035241
                                   293  	tab9	3,261,035,221	" quote quad
    000405  aa   003261 035221
                                   294  	tab9	3,251,035,223	" i beam
    000406  aa   003251 035223
                                   295  	tab9	3,242,035,201	" -\
    000407  aa   003242 035201
                                   296  	tab9	3,261,035,203	" domino
    000410  aa   003261 035203
                                   297  	tab9	3,260,035,270	" <> diamond
    000411  aa   003260 035270
                                   298  	tab9	3,424,035,233	" 0_
    000412  aa   003424 035233
                                   299  	tab9	3,440,035,233	" 1_
    000413  aa   003440 035233
                                   300  	tab9	3,420,035,233	" 2_
    000414  aa   003420 035233
                                   301  	tab9	3,460,035,233	" 3_
    000415  aa   003460 035233
                                   302  	tab9	3,410,035,233	" 4_
    000416  aa   003410 035233
                                   303  	tab9	3,450,035,233	" 5_
    000417  aa   003450 035233
                                   304  	tab9	3,430,035,233	" 6_
    000420  aa   003430 035233
                                   305  	tab9	3,470,035,233	" 7_
    000421  aa   003470 035233
                                   306  	tab9	3,404,035,233	" 8_
    000422  aa   003404 035233
                                   307  	tab9	3,444,035,233	" 9_
    000423  aa   003444 035233
                                   308  	tab9	3,207,035,233	" underlined delta
    000424  aa   003207 035233
                                   309  	tab9	3,223,035,241	" hydrant
    000425  aa   003223 035241
                                   310  	tab9	3,251,035,241	" thorn
    000426  aa   003251 035241
                                   311  	tab9	3,265,035,201	" (- left tack		THIS ) FOR BSG!
    000427  aa   003265 035201
                                   312  	tab9	3,264,035,201	" BSG ( LEFT PARN!		)- right tack
    000430  aa   003264 035201
                                   313  	tab9	3,056,075,075	" line feed,delay,delay
    000431  aa   003056 075075
                                   314  	tab9	3,246,035,211	" c|
    000432  aa   003246 035211
                                   315  	tab9	3,466,035,201	" ,-
    000433  aa   003466 035201
                                   316
    000434                         317  compression_in:
    000434  aa   000000 000262     318  	dec	178		" 178 characters in table
                                   319  	tab9	047,056,057,163	" ! $
    000435  aa   047056 057163
                                   320  	tab9	137,141,137,142	" A_ B_
    000436  aa   137141 137142
                                   321  	tab9	137,143,137,144	" C_ D_
    000437  aa   137143 137144
                                   322  	tab9	137,145,137,146	" _E F_
    000440  aa   137145 137146
                                   323  	tab9	137,147,137,150	" G_ H_
    000441  aa   137147 137150
                                   324  	tab9	137,151,137,152	" I_ J_
    000442  aa   137151 137152
                                   325  	tab9	137,153,137,154	" K_ L_
    000443  aa   137153 137154
                                   326  	tab9	137,155,137,156	" M_ N_
    000444  aa   137155 137156
                                   327  	tab9	137,157,137,160	" O_ P_
    000445  aa   137157 137160
                                   328  	tab9	137,161,137,162	" Q_ R_
    000446  aa   137161 137162
                                   329  	tab9	137,163,137,164	" S_ T_
    000447  aa   137163 137164
                                   330  	tab9	137,165,137,166	" U_ V_
    000450  aa   137165 137166
                                   331  	tab9	137,167,137,170	" W_ X_
    000451  aa   137167 137170
                                   332  	tab9	137,171,137,172	" Y_ Z_
    000452  aa   137171 137172
                                   333  	tab9	176,203,176,204	" nor,nand
    000453  aa   176203 176204
                                   334  	tab9	055,211,055,057	" -O  -/
    000454  aa   055211 055057
                                   335  	tab9	176,254,052,211	" locked function,logarithm
    000455  aa   176254 052211
                                   336  	tab9	174,211,134,211	" O| O\
    000456  aa   174211 134211
                                   337  	tab9	057,211,174,254	" /O,grade down
    000457  aa   057211 174254
                                   338  	tab9	174,214,215,217	" grade up,lamp
    000460  aa   174214 215217
                                   339  	tab9	047,216,220,221	" quad quote,i beam
    000461  aa   047216 220221
                                   340  	tab9	055,134,205,216	" \-,domino
    000462  aa   055134 205216
                                   341  	tab9	060,137,061,137	" 0_ 1_
    000463  aa   060137 061137
                                   342  	tab9	062,137,063,137	" 2_ 3_
    000464  aa   062137 063137
                                   343  	tab9	064,137,065,137	" 4_ 5_
    000465  aa   064137 065137
                                   344  	tab9	066,137,067,137	" 6_ 7_
    000466  aa   066137 067137
                                   345  	tab9	070,137,071,137	" 8_ 9_
    000467  aa   070137 071137
                                   346  	tab9	137,214,215,220	" underlined delta,hydrant
    000470  aa   137214 215220
                                   347  	tab9	133,215,135,215	" { }
    000471  aa   133215 135215
                                   348  	tab9	050,055,051,055	" (- )-
    000472  aa   050055 051055
                                   349  	tab9	074,076,215,221	" <> _f
    000473  aa   074076 215221
                                   350
                                   351  	" these overstrikes are used to generate ASCII codes
                                   352
                                   353  	tab9	134,163,137,204	" & (S\),^ (underlined and-sign)
    000474  aa   134163 137204
                                   354  	tab9	047,253,057,205	" " (apostrophe/upper minus),% (divide/slash)
    000475  aa   047253 057205
                                   355
                                   356  	" the following overstrikes are allowed by APL\360
                                   357
                                   358  	tab9	055,255,054,072	" left arrow/minus,,:
    000476  aa   055255 054072
                                   359  	tab9	055,256,054,056	" right arrow/minus,.,
    000477  aa   055256 054056
                                   360  	tab9	054,073,056,077	" , .?
    000500  aa   054073 056077
                                   361  	tab9	056,072,057,075	" .:  =/
    000501  aa   056072 057075
                                   362  	tab9	072,073,160,162	" :  PR
    000502  aa   072073 160162
                                   363  	tab9	145,146,053,055	" EF  +-
    000503  aa   145146 053055
                                   364  	tab9	055,205,057,202	" divide/-,/=/
    000504  aa   055205 057202
                                   365  	tab9	075,202,151,164	" /==  TI
    000505  aa   075202 151164
                                   366  	tab9	145,154,146,154	" LE  LF
    000506  aa   145154 146154
                                   367  	tab9	157,161,047,072	" QO  ':
    000507  aa   157161 047072
                                   368  	tab9	203,204,174,222	" v& (alternate for diamond) c|
    000510  aa   203204 174222
                                   369  	tab9	054,055		" ,-
    000511  aa   054055 000000
                                   370
    000512                         371  compression_out:
    000512  aa   000000 000131     372  	dec	89		" 89 elements in table
                                   373  	tab9	041,044,101,102	" ! $ A_ B_
    000513  aa   041044 101102
                                   374  	tab9	103,104,105,106
    000514  aa   103104 105106
                                   375  	tab9	107,110,111,112
    000515  aa   107110 111112
                                   376  	tab9	113,114,115,116
    000516  aa   113114 115116
                                   377  	tab9	117,120,121,122
    000517  aa   117120 121122
                                   378  	tab9	123,124,125,126
    000520  aa   123124 125126
                                   379  	tab9	127,130,131,132	" W_ X_ Y_ Z_
    000521  aa   127130 131132
                                   380  	tab9	225,226,227,230	" v~ &~ -o  -/
    000522  aa   225226 227230
                                   381  	tab9	231,232,233,234
    000523  aa   231232 233234
                                   382  	tab9	235,236,237,240
    000524  aa   235236 237240
                                   383  	tab9	241,242,243,244
    000525  aa   241242 243244
                                   384  	tab9	260,261,262,263	" 0_ 1_ 2_ 3_
    000526  aa   260261 262263
                                   385  	tab9	264,265,266,267	" 4_ 5_ 6_ 7_
    000527  aa   264265 266267
                                   386  	tab9	270,271,272,274	" 8_ 9_ _d _e
    000530  aa   270271 272274
                                   387  	tab9	173,175,276,277	" { } (- )-
    000531  aa   173175 276277
                                   388  	tab9	257,275,046,136	" <> _f & ^
    000532  aa   257275 046136
                                   389  	tab9	042,045,255,073	" " % -<
    000533  aa   042045 255073
                                   390  	tab9	256,054,073,077	" -> , ?
    000534  aa   256054 073077
                                   391  	tab9	072,202,073,162	" : /=  R
    000535  aa   072202 073162
                                   392  	tab9	145,053,205,202	" E + -: /=
    000536  aa   145053 205202
                                   393  	tab9	202,164,145,145	" /= T E E
    000537  aa   202164 145145
                                   394  	tab9	161,041,257,302	" Q ! <> c|
    000540  aa   161041 257302
                                   395  	tab9	303		" ,-
    000541  aa   303000 000000
                                   396  " 
                                   397  " Conversion table for Correspondence 2741.
                                   398  "   modes:  ll125.
                                   399  "   enter: null
                                   400  "   leave:  null
                                   401
    000542                         402  apl_correspondence_2741:
                                   403  	dev_info	cor_2741,seq_cor_2741,compression_in,compression_out
    000542  00   000576 001072
    000543  00   000434 000512
    000544  aa  103 117 122 122    404  	aci	"CORR2741",32
    000545  aa  062 067 064 061
    000546  aa  040 040 040 040
    000547  aa  040 040 040 040
    000550  aa  040 040 040 040
    000551  aa  040 040 040 040
    000552  aa  040 040 040 040
    000553  aa  040 040 040 040
                                   405  	dev_info1	not_graphic,shift_needed,quit_editing_allowed,
                                   406  		056,245,075,034,037,240
    000554  aa   300000 056245
    000555  aa   075034 037240
                                   407  	dev_info2	0,120
    000556  aa   000000 000170
                                   408  	delay	0,0,0,0,0,0,
                                   409  		1616,71,1253,71,0,0,
                                   410  		0,0,0,0,0,0,
                                   411  		0,0,0,0,0,0
    000557  aa   000000 000000
    000560  aa   000000 000000
    000561  aa   000000 000000
    000562  aa   001616 000071
    000563  aa   001253 000071
    000564  aa   000000 000000
    000565  aa   000000 000000
    000566  aa   000000 000000
    000567  aa   000000 000000
    000570  aa   000000 000000
    000571  aa   000000 000000
    000572  aa   000000 000000
    000573  aa   000000 000007     412  	dec	7
                                   413  	tab9	056,075,034,064,035,056,037	" LF IDLE UPSHIFT OR-SIGN BS LF DOWNSHIFT
    000574  aa   056075 034064
    000575  aa   035056 037000
                                   414
                                   415  	even
                                   416
    000576                         417  cor_2741:
                                   418  	tab9	602,602,602,602,602,602,015,610	" APL/Multics to Correspondence 2741
    000576  aa   602602 602602
    000577  aa   602602 015610
                                   419  	tab9	035,057,055,602,602,602,611,612
    000600  aa   035057 055602
    000601  aa   602602 611612
                                   420  	tab9	602,602,602,602,602,016,602,602
    000602  aa   602602 602602
    000603  aa   602016 602602
                                   421  	tab9	602,602,602,602,602,602,602,602
    000604  aa   602602 602602
    000605  aa   602602 602602
                                   422  	tab9	000,613,602,602,614,602,602,212
    000606  aa   000613 602602
    000607  aa   614602 602212
                                   423  	tab9	253,211,213,467,473,267,421,407
    000610  aa   253211 213467
    000611  aa   473267 421407
                                   424  	tab9	444,440,420,460,404,410,430,450
    000612  aa   444440 420460
    000613  aa   404410 430450
                                   425  	tab9	470,464,221,273,360,210,250,233
    000614  aa   470464 221273
    000615  aa   360210 250233
                                   426  	tab9	602,615,616,617,620,621,622,623
    000616  aa   602615 616617
    000617  aa   620621 622623
                                   427  	tab9	624,625,626,627,630,631,632,633
    000620  aa   624625 626627
    000621  aa   630631 632633
                                   428  	tab9	634,635,636,637,640,641,642,643
    000622  aa   634635 636637
    000623  aa   640641 642643
                                   429  	tab9	644,645,646,453,207,411,602,263
    000624  aa   644645 646453
    000625  aa   207411 602263
                                   430  	tab9	602,471,466,472,452,412,463,443
    000626  aa   602471 466472
    000627  aa   452412 463443
                                   431  	tab9	446,431,403,432,406,441,422,405
    000630  aa   446431 403432
    000631  aa   406441 422405
                                   432  	tab9	413,433,451,445,402,462,461,465
    000632  aa   413433 451445
    000633  aa   402462 461465
                                   433  	tab9	442,447,424,647,241,650,202,600
    000634  aa   442447 424647
    000635  aa   241650 202600
                                   434
                                   435  	tab9	204,230,270,264,244,223,212,247
    000636  aa   204230 270264
    000637  aa   244223 212247
                                   436  	tab9	262,205,245,252,246,203,206,272
    000640  aa   262205 245252
    000641  aa   246203 206272
                                   437  	tab9	266,222,224,242,261,651,652,653
    000642  aa   266222 224242
    000643  aa   261651 652653
                                   438  	tab9	654,655,656,657,660,661,662,663
    000644  aa   654655 656657
    000645  aa   660661 662663
                                   439  	tab9	664,665,666,667,670,240,265,231
    000646  aa   664665 666667
    000647  aa   670240 265231
                                   440  	tab9	251,423,271,220,243,401,201,671
    000650  aa   251423 271220
    000651  aa   243401 201671
                                   441  	tab9	672,673,674,675,676,677,700,701
    000652  aa   672673 674675
    000653  aa   676677 700701
                                   442  	tab9	702,703,704,600,705,706,707,710
    000654  aa   702703 704600
    000655  aa   705706 707710
                                   443  	tab9	711,603,712,713,602,602,602,602
    000656  aa   711603 712713
    000657  aa   602602 602602
                                   444  	tab9	602,602,602,602,602,602,602,602
    000660  aa   602602 602602
    000661  aa   602602 602602
                                   445  	tab9	602,602,602,602,602,602,602,602
    000662  aa   602602 602602
    000663  aa   602602 602602
                                   446  	tab9	602,602,602,602,602,602,602,602
    000664  aa   602602 602602
    000665  aa   602602 602602
                                   447  	tab9	602,602,602,602,602,602,602,602
    000666  aa   602602 602602
    000667  aa   602602 602602
                                   448  	tab9	602,602,602,602,602,602,602,602
    000670  aa   602602 602602
    000671  aa   602602 602602
                                   449  	tab9	602,602,602,602,602,602,602,602
    000672  aa   602602 602602
    000673  aa   602602 602602
                                   450  	tab9	602,602,602,602,602,602,602,602
    000674  aa   602602 602602
    000675  aa   602602 602602
                                   451
                                   452  	tab9	040,255,164,152,064,157,154,057	" Corr 2741 to APL/Multics
    000676  aa   040255 164152
    000677  aa   064157 154057
                                   453  	tab9	065,135,145,160,404,006,025,404
    000700  aa   065135 145160
    000701  aa   404006 025404
                                   454  	tab9	062,076,156,251,172,404,404,404
    000702  aa   062076 156251
    000703  aa   172404 404404
                                   455  	tab9	066,151,153,161,401,010,404,404
    000704  aa   066151 153161
    000705  aa   401010 404404
                                   456  	tab9	061,155,170,147,060,163,150,171
    000706  aa   061155 170147
    000707  aa   060163 150171
                                   457  	tab9	067,162,144,133,404,012,300,011
    000710  aa   067162 144133
    000711  aa   404012 300011
                                   458  	tab9	063,166,165,146,071,167,142,053
    000712  aa   063166 165146
    000713  aa   071167 142053
                                   459  	tab9	070,141,143,054,404,404,403,404
    000714  aa   070141 143054
    000715  aa   404404 403404
                                   460  	tab9	040,256,176,215,200,211,216,134
    000716  aa   040256 176215
    000717  aa   200211 216134
                                   461  	tab9	075,051,206,052,404,006,025,404
    000720  aa   075051 206052
    000721  aa   404006 025404
                                   462  	tab9	253,072,221,205,222,404,404,404
    000722  aa   253072 221205
    000723  aa   222404 404404
                                   463  	tab9	201,247,047,077,404,010,404,400
    000724  aa   201247 047077
    000725  aa   404010 404400
                                   464  	tab9	245,174,223,254,204,212,214,207
    000726  aa   245174 223254
    000727  aa   204212 214207
                                   465  	tab9	076,250,213,050,404,012,300,011
    000730  aa   076250 213050
    000731  aa   404012 300011
                                   466  	tab9	074,224,210,137,203,246,220,055
    000732  aa   074224 210137
    000733  aa   203246 220055
                                   467  	tab9	202,252,217,073,404,404,403,404
    000734  aa   202252 217073
    000735  aa   404404 403404
                                   468
                                   469  " code movement table
                                   470
                                   471  	tab9	001,001,001,001,001,001,001,001
    000736  aa   001001 001001
    000737  aa   001001 001001
                                   472  	tab9	402,403,445,007,006,404,201,201
    000740  aa   402403 445007
    000741  aa   006404 201201
                                   473  	tab9	001,001,001,001,001,001,001,001
    000742  aa   001001 001001
    000743  aa   001001 001001
                                   474  	tab9	000,000,001,001,000,001,000,001
    000744  aa   000000 001001
    000745  aa   000001 000001
                                   475  	tab9	400,000,000,020,000,000,000,000
    000746  aa   400000 000020
    000747  aa   000000 000000
                                   476  	tab9	000,000,000,000,000,000,000,000
    000750  aa   000000 000000
    000751  aa   000000 000000
                                   477  	tab9	000,000,000,000,000,000,000,000
    000752  aa   000000 000000
    000753  aa   000000 000000
                                   478  	tab9	000,000,000,000,000,000,000,000
    000754  aa   000000 000000
    000755  aa   000000 000000
                                   479  	tab9	030,000,000,000,000,000,000,000
    000756  aa   030000 000000
    000757  aa   000000 000000
                                   480  	tab9	000,000,000,000,000,000,000,000
    000760  aa   000000 000000
    000761  aa   000000 000000
                                   481  	tab9	000,000,000,000,000,000,000,000
    000762  aa   000000 000000
    000763  aa   000000 000000
                                   482  	tab9	000,000,000,000,000,000,000,000
    000764  aa   000000 000000
    000765  aa   000000 000000
                                   483  	tab9	000,000,000,000,000,000,000,000
    000766  aa   000000 000000
    000767  aa   000000 000000
                                   484  	tab9	000,000,000,000,000,000,000,000
    000770  aa   000000 000000
    000771  aa   000000 000000
                                   485  	tab9	000,000,000,000,000,000,000,000
    000772  aa   000000 000000
    000773  aa   000000 000000
                                   486  	tab9	000,000,000,000,000,000,000,401
    000774  aa   000000 000000
    000775  aa   000000 000401
                                   487
                                   488  	tab9	000,000,000,000,000,000,000,000
    000776  aa   000000 000000
    000777  aa   000000 000000
                                   489  	tab9	000,000,000,000,000,000,000,000
    001000  aa   000000 000000
    001001  aa   000000 000000
                                   490  	tab9	000,000,000,000,000,000,000,000
    001002  aa   000000 000000
    001003  aa   000000 000000
                                   491  	tab9	000,000,000,000,000,000,000,000
    001004  aa   000000 000000
    001005  aa   000000 000000
                                   492  	tab9	000,000,000,000,000,010,020,000
    001006  aa   000000 000000
    001007  aa   000010 020000
                                   493  	tab9	000,000,030,000,000,000,000,000
    001010  aa   000000 030000
    001011  aa   000000 000000
                                   494  	tab9	000,000,000,000,000,000,000,000
    001012  aa   000000 000000
    001013  aa   000000 000000
                                   495  	tab9	000,000,000,000,000,000,000,000
    001014  aa   000000 000000
    001015  aa   000000 000000
                                   496  	tab9	055,000,000,000,000,000,000,000
    001016  aa   055000 000000
    001017  aa   000000 000000
                                   497  	tab9	000,000,000,000,000,000,000,000
    001020  aa   000000 000000
    001021  aa   000000 000000
                                   498  	tab9	000,000,000,000,000,000,000,000
    001022  aa   000000 000000
    001023  aa   000000 000000
                                   499  	tab9	000,000,000,000,000,000,000,000
    001024  aa   000000 000000
    001025  aa   000000 000000
                                   500  	tab9	000,000,000,000,000,000,000,000
    001026  aa   000000 000000
    001027  aa   000000 000000
                                   501  	tab9	000,000,000,000,000,000,000,000
    001030  aa   000000 000000
    001031  aa   000000 000000
                                   502  	tab9	000,000,000,000,000,000,000,000
    001032  aa   000000 000000
    001033  aa   000000 000000
                                   503  	tab9	000,000,000,000,000,000,000,000
    001034  aa   000000 000000
    001035  aa   000000 000000
                                   504
                                   505  " device movement table
                                   506
                                   507  	tab6	0,0,0,0,0,0,0,0,0,0,0,0,1,1,1,1,0,0,0,0,0,1,1,1
    001036  aa   000000 000000
    001037  aa   000000 000000
    001040  aa   010101 010000
    001041  aa   000000 010101
                                   508  	tab6	0,0,0,0,8,2,1,7,0,0,0,0,0,0,0,0,0,0,0,0,1,5,1,3
    001042  aa   000000 001002
    001043  aa   010700 000000
    001044  aa   000000 000000
    001045  aa   000001 050103
                                   509  	tab6	0,0,0,0,0,0,0,0,0,0,0,0,9,1,6,1,0,0,0,0,0,0,0,0
    001046  aa   000000 000000
    001047  aa   000000 000000
    001050  aa   110106 010000
    001051  aa   000000 000000
                                   510  	tab6	0,0,0,0,1,1,1,1,0,0,0,0,0,1,1,1,0,0,0,0,8,2,1,7
    001052  aa   000000 000101
    001053  aa   010100 000000
    001054  aa   000101 010000
    001055  aa   000010 020107
                                   511  	tab6	0,0,0,0,0,0,0,0,0,0,0,0,1,5,1,3,0,0,0,0,0,0,0,0
    001056  aa   000000 000000
    001057  aa   000000 000000
    001060  aa   010501 030000
    001061  aa   000000 000000
                                   512  	tab6	0,0,0,0,9,1,6,1
    001062  aa   000000 001101
    001063  aa   060100 000000
                                   513
                                   514  " escape/prefix table
                                   515
    001064  aa   000000 000004     516  	dec	4		" === (5-1)
                                   517  	tab9	600,023,017	" brs
    001065  aa   600023 017000
                                   518  	tab9	600,123,017	" BRS
    001066  aa   600123 017000
                                   519  	tab9	600,043,016	" rrs
    001067  aa   600043 016000
                                   520  	tab9	600,143,016	" RRS
    001070  aa   600143 016000
                                   521  	tab9	200,245,245	" esc esc (diaresis)
    001071  aa   200245 245000
                                   522
                                   523  " Corr 2741 output sequence table
                                   524
    001072                         525  seq_cor_2741:
                                   526  	tab9	2,034,037		" Bel -> upshift,downshift
    001072  aa   002034 037000
                                   527  	tab9	2,076,071		" RRS -> prefix A
    001073  aa   002076 071000
                                   528  	tab9	2,076,066		" BRS -> prefix B
    001074  aa   002076 066000
                                   529  	tab9	3,232,035,421	" !
    001075  aa   003232 035421
                                   530  	tab9	3,445,035,407	" $
    001076  aa   003445 035407
                                   531  	tab9	3,471,035,263	" A_
    001077  aa   003471 035263
                                   532  	tab9	3,466,035,263	" B_
    001100  aa   003466 035263
                                   533  	tab9	3,472,035,263	" C_
    001101  aa   003472 035263
                                   534  	tab9	3,452,035,263	" D_
    001102  aa   003452 035263
                                   535  	tab9	3,412,035,263	" E_
    001103  aa   003412 035263
                                   536  	tab9	3,463,035,263	" F_
    001104  aa   003463 035263
                                   537  	tab9	3,443,035,263	" G_
    001105  aa   003443 035263
                                   538  	tab9	3,446,035,263	" H_
    001106  aa   003446 035263
                                   539  	tab9	3,431,035,263	" I_
    001107  aa   003431 035263
                                   540  	tab9	3,403,035,263	" J_
    001110  aa   003403 035263
                                   541  	tab9	3,432,035,263	" K_
    001111  aa   003432 035263
                                   542  	tab9	3,406,035,263	" L_
    001112  aa   003406 035263
                                   543  	tab9	3,441,035,263	" M_
    001113  aa   003441 035263
                                   544  	tab9	3,422,035,263	" N_
    001114  aa   003422 035263
                                   545  	tab9	3,405,035,263	" O_
    001115  aa   003405 035263
                                   546  	tab9	3,413,035,263	" P_
    001116  aa   003413 035263
                                   547  	tab9	3,433,035,263	" Q_
    001117  aa   003433 035263
                                   548  	tab9	3,451,035,263	" R_
    001120  aa   003451 035263
                                   549  	tab9	3,445,035,263	" S_
    001121  aa   003445 035263
                                   550  	tab9	3,402,035,263	" T_
    001122  aa   003402 035263
                                   551  	tab9	3,462,035,263	" U_
    001123  aa   003462 035263
                                   552  	tab9	3,461,035,263	" V_
    001124  aa   003461 035263
                                   553  	tab9	3,465,035,263	" W_
    001125  aa   003465 035263
                                   554  	tab9	3,442,035,263	" X_
    001126  aa   003442 035263
                                   555  	tab9	3,447,035,263	" Y_
    001127  aa   003447 035263
                                   556  	tab9	3,424,035,263	" Z_
    001130  aa   003424 035263
                                   557  	tab9	3,453,035,203	" { [(os)_o
    001131  aa   003453 035203
                                   558  	tab9	3,411,035,203	" } ](os)_o
    001132  aa   003411 035203
                                   559  	tab9	3,264,035,202	" nor
    001133  aa   003264 035202
                                   560  	tab9	3,244,035,202	" nand
    001134  aa   003244 035202
                                   561  	tab9	3,205,035,267	" reverse first
    001135  aa   003205 035267
                                   562  	tab9	3,407,035,267	" -/
    001136  aa   003407 035267
                                   563  	tab9	3,243,035,202	" locked function
    001137  aa   003243 035202
                                   564  	tab9	3,205,035,213	" logarithm
    001140  aa   003205 035213
                                   565  	tab9	3,205,035,241	" reverse
    001141  aa   003205 035241
                                   566  	tab9	3,205,035,207	" \o
    001142  aa   003205 035207
                                   567  	tab9	3,205,035,407	" /o
    001143  aa   003205 035407
                                   568  	tab9	3,243,035,241	" grade down
    001144  aa   003243 035241
                                   569  	tab9	3,346,035,241	" grade up
    001145  aa   003346 035241
                                   570  	tab9	3,272,035,203	" lamp
    001146  aa   003272 035203
                                   571  	tab9	3,206,035,232	" quad quote
    001147  aa   003206 035232
                                   572  	tab9	3,222,035,266	" i beam
    001150  aa   003222 035266
                                   573  	tab9	3,207,035,267	" -\
    001151  aa   003207 035267
                                   574  	tab9	3,206,035,223	" domino
    001152  aa   003206 035223
                                   575  	tab9	3,360,035,250	" <> diamond
    001153  aa   003360 035250
                                   576  	tab9	3,444,035,263	" 0_
    001154  aa   003444 035263
                                   577  	tab9	3,440,035,263	" 1_
    001155  aa   003440 035263
                                   578  	tab9	3,420,035,263	" 2_
    001156  aa   003420 035263
                                   579  	tab9	3,460,035,263	" 3_
    001157  aa   003460 035263
                                   580  	tab9	3,404,035,263	" 4_
    001160  aa   003404 035263
                                   581  	tab9	3,410,035,263	" 5_
    001161  aa   003410 035263
                                   582  	tab9	3,430,035,263	" 6_
    001162  aa   003430 035263
                                   583  	tab9	3,450,035,263	" 7_
    001163  aa   003450 035263
                                   584  	tab9	3,470,035,263	" 8_
    001164  aa   003470 035263
                                   585  	tab9	3,464,035,263	" 9_
    001165  aa   003464 035263
                                   586  	tab9	3,246,035,263	" underlined delta
    001166  aa   003246 035263
                                   587  	tab9	3,266,035,203	" hydrant
    001167  aa   003266 035203
                                   588  	tab9	3,222,035,203	" thorn
    001170  aa   003222 035203
                                   589  	tab9	3,253,035,267	" (- left tack		THIS ) FOR BSG!
    001171  aa   003253 035267
                                   590  	tab9	3,211,035,267	" BSG ( LEFT PARN!		)- right tack
    001172  aa   003211 035267
                                   591  	tab9	3,056,075,075	" line feed,delay,delay
    001173  aa   003056 075075
                                   592  	tab9	3,224,035,241	" c|
    001174  aa   003224 035241
                                   593  	tab9	3,473,035,267	" ,-
    001175  aa   003473 035267
                                   594  " 
                                   595  " Conversion table for the Tektronix 4013 APL/ASCII/Graphics terminal.
                                   596  "   modes: ll73,pl34,^tabs
                                   597  "   enter: ESC SI
                                   598  "   leave: ESC SO
                                   599
    001176                         600  apl_4013:
                                   601  	dev_info	convert_4013,sequence_4013,compression_in,compression_out
    001176  00   001232 001522
    001177  00   000434 000512
    001200  aa  124 105 113 064    602  	aci	"TEK4013",32
    001201  aa  060 061 063 040
    001202  aa  040 040 040 040
    001203  aa  040 040 040 040
    001204  aa  040 040 040 040
    001205  aa  040 040 040 040
    001206  aa  040 040 040 040
    001207  aa  040 040 040 040
                                   603  	dev_info1	graphic,no_shift_needed,quit_editing_allowed,
                                   604  		013,245,177,0,0,041
    001210  aa   500000 013245
    001211  aa   177000 000041
                                   605  	dev_info2	34,73
    001212  aa   000042 000111
                                   606  	delay	0,0,0,0,0,23,
                                   607  		0,0,0,0,0,35,
                                   608  		0,0,0,0,0,73,
                                   609  		0,0,0,0,0,146
    001213  aa   000000 000000
    001214  aa   000000 000000
    001215  aa   000000 000023
    001216  aa   000000 000000
    001217  aa   000000 000000
    001220  aa   000000 000035
    001221  aa   000000 000000
    001222  aa   000000 000000
    001223  aa   000000 000073
    001224  aa   000000 000000
    001225  aa   000000 000000
    001226  aa   000000 000146
    001227  aa   000000 000004     610  	dec	4
                                   611  	tab9	012,050,010,012		" LF OR-SIGN BS LF
    001230  aa   012050 010012
                                   612
    001231  aa   000000 0110 03    613  	even
                                   614
                                   615  " APL/Multics to 4013
                                   616
    001232                         617  convert_4013:
                                   618  	tab9	602,602,602,602,602,602,600,007	" ignore 006 for now
    001232  aa   602602 602602
    001233  aa   602602 600007
                                   619  	tab9	010,011,702,602,703,015,602,602
    001234  aa   010011 702602
    001235  aa   703015 602602
                                   620  	tab9	602,602,602,602,602,600,602,602	" ignore 025 for now
    001236  aa   602602 602602
    001237  aa   602600 602602
                                   621  	tab9	602,602,602,602,602,602,602,602
    001240  aa   602602 602602
    001241  aa   602602 602602
                                   622  	tab9	040,610,602,602,176,602,602,113
    001242  aa   040610 602602
    001243  aa   176602 602113
                                   623  	tab9	072,042,120,055,054,137,056,057
    001244  aa   072042 120055
    001245  aa   054137 056057
                                   624  	tab9	060,061,062,063,064,065,066,067
    001246  aa   060061 062063
    001247  aa   064065 066067
                                   625  	tab9	070,071,076,074,043,045,046,121
    001250  aa   070071 076074
    001251  aa   043045 046121
                                   626  	tab9	602,611,612,613,614,615,616,617
    001252  aa   602611 612613
    001253  aa   614615 616617
                                   627  	tab9	620,621,622,623,624,625,626,627
    001254  aa   620621 622623
    001255  aa   624625 626627
                                   628  	tab9	630,631,632,633,634,635,636,637
    001256  aa   630631 632633
    001257  aa   634635 636637
                                   629  	tab9	640,641,642,073,077,047,602,106
    001260  aa   640641 642073
    001261  aa   077047 602106
                                   630  	tab9	602,141,142,143,144,145,146,147
    001262  aa   602141 142143
    001263  aa   144145 146147
                                   631  	tab9	150,151,152,153,154,155,156,157
    001264  aa   150151 152153
    001265  aa   154155 156157
                                   632  	tab9	160,161,162,163,164,165,166,167
    001266  aa   160161 162163
    001267  aa   164165 166167
                                   633  	tab9	170,171,172,173,115,175,124,600
    001270  aa   170171 172173
    001271  aa   115175 124600
                                   634
                                   635  	tab9	044,136,052,050,051,053,105,131
    001272  aa   044136 052050
    001273  aa   051053 105131
                                   636  	tab9	125,117,123,104,110,112,114,103
    001274  aa   125117 123104
    001275  aa   110112 114103
                                   637  	tab9	102,116,132,130,126,643,644,645
    001276  aa   102116 132130
    001277  aa   126643 644645
                                   638  	tab9	646,647,650,651,652,653,654,655
    001300  aa   646647 650651
    001301  aa   652653 654655
                                   639  	tab9	656,657,660,661,662,041,127,111
    001302  aa   656657 660661
    001303  aa   662041 127111
                                   640  	tab9	122,075,101,100,107,133,135,140
    001304  aa   122075 101100
    001305  aa   107133 135140
                                   641  	tab9	663,664,665,666,667,670,671,672
    001306  aa   663664 665666
    001307  aa   667670 671672
                                   642  	tab9	673,674,675,601,676,677,134,174
    001310  aa   673674 675601
    001311  aa   676677 134174
                                   643  	tab9	012,603,700,701,602,602,602,602
    001312  aa   012603 700701
    001313  aa   602602 602602
                                   644  	tab9	602,602,602,602,602,602,602,602
    001314  aa   602602 602602
    001315  aa   602602 602602
                                   645  	tab9	602,602,602,602,602,602,602,602
    001316  aa   602602 602602
    001317  aa   602602 602602
                                   646  	tab9	602,602,602,602,602,602,602,602
    001320  aa   602602 602602
    001321  aa   602602 602602
                                   647  	tab9	602,602,602,602,602,602,602,602
    001322  aa   602602 602602
    001323  aa   602602 602602
                                   648  	tab9	602,602,602,602,602,602,602,602
    001324  aa   602602 602602
    001325  aa   602602 602602
                                   649  	tab9	602,602,602,602,602,602,602,602
    001326  aa   602602 602602
    001327  aa   602602 602602
                                   650  	tab9	602,602,602,602,602,602,602,602
    001330  aa   602602 602602
    001331  aa   602602 602602
                                   651
                                   652  " 4013 to APL/Multics
                                   653
                                   654  	tab9	000,001,002,003,004,005,006,007
    001332  aa   000001 002003
    001333  aa   004005 006007
                                   655  	tab9	010,011,012,300,404,015,016,017	" 013 ==> 300,linefeed
    001334  aa   010011 012300
    001335  aa   404015 016017
                                   656  	tab9	020,021,022,023,024,025,026,027
    001336  aa   020021 022023
    001337  aa   024025 026027
                                   657  	tab9	030,031,032,403,034,035,036,037
    001340  aa   030031 032403
    001341  aa   034035 036037
                                   658  	tab9	040,245,051,074,200,075,076,135
    001342  aa   040245 051074
    001343  aa   200075 076135
                                   659  	tab9	203,204,202,205,054,053,056,057
    001344  aa   203204 202205
    001345  aa   054053 056057
                                   660  	tab9	060,061,062,063,064,065,066,067
    001346  aa   060061 062063
    001347  aa   064065 066067
                                   661  	tab9	070,071,050,133,073,251,072,134
    001350  aa   070071 050133
    001351  aa   073251 072134
                                   662  	tab9	253,252,220,217,213,206,137,254
    001352  aa   253252 220217
    001353  aa   213206 137254
                                   663  	tab9	214,247,215,047,216,174,221,211
    001354  aa   214247 215047
    001355  aa   216174 221211
                                   664  	tab9	052,077,250,212,176,210,224,246
    001356  aa   052077 250212
    001357  aa   176210 224246
                                   665  	tab9	223,207,222,255,276,256,201,055
    001360  aa   223207 222255
    001361  aa   276256 201055
                                   666  	tab9	257,141,142,143,144,145,146,147
    001362  aa   257141 142143
    001363  aa   144145 146147
                                   667  	tab9	150,151,152,153,154,155,156,157
    001364  aa   150151 152153
    001365  aa   154155 156157
                                   668  	tab9	160,161,162,163,164,165,166,167
    001366  aa   160161 162163
    001367  aa   164165 166167
                                   669  	tab9	170,171,172,173,277,175,044,404
    001370  aa   170171 172173
    001371  aa   277175 044404
                                   670
                                   671  " code movement table for 4013
                                   672
                                   673  	tab9	001,001,001,001,001,001,001,001
    001372  aa   001001 001001
    001373  aa   001001 001001
                                   674  	tab9	402,403,445,007,006,404,201,201
    001374  aa   402403 445007
    001375  aa   006404 201201
                                   675  	tab9	001,001,001,001,001,001,001,001
    001376  aa   001001 001001
    001377  aa   001001 001001
                                   676  	tab9	000,000,001,001,000,001,000,001
    001400  aa   000000 001001
    001401  aa   000001 000001
                                   677  	tab9	400,000,000,020,000,000,000,000
    001402  aa   400000 000020
    001403  aa   000000 000000
                                   678  	tab9	000,000,000,000,000,000,000,000
    001404  aa   000000 000000
    001405  aa   000000 000000
                                   679  	tab9	000,000,000,000,000,000,000,000
    001406  aa   000000 000000
    001407  aa   000000 000000
                                   680  	tab9	000,000,000,000,000,000,000,000
    001410  aa   000000 000000
    001411  aa   000000 000000
                                   681  	tab9	030,000,000,000,000,000,000,000
    001412  aa   030000 000000
    001413  aa   000000 000000
                                   682  	tab9	000,000,000,000,000,000,000,000
    001414  aa   000000 000000
    001415  aa   000000 000000
                                   683  	tab9	000,000,000,000,000,000,000,000
    001416  aa   000000 000000
    001417  aa   000000 000000
                                   684  	tab9	000,000,000,000,000,000,000,000
    001420  aa   000000 000000
    001421  aa   000000 000000
                                   685  	tab9	000,000,000,000,000,000,000,000
    001422  aa   000000 000000
    001423  aa   000000 000000
                                   686  	tab9	000,000,000,000,000,000,000,000
    001424  aa   000000 000000
    001425  aa   000000 000000
                                   687  	tab9	000,000,000,000,000,000,000,000
    001426  aa   000000 000000
    001427  aa   000000 000000
                                   688  	tab9	000,000,000,000,000,000,000,401
    001430  aa   000000 000000
    001431  aa   000000 000401
                                   689
                                   690  	tab9	000,000,000,000,000,000,000,000
    001432  aa   000000 000000
    001433  aa   000000 000000
                                   691  	tab9	000,000,000,000,000,000,000,000
    001434  aa   000000 000000
    001435  aa   000000 000000
                                   692  	tab9	000,000,000,000,000,000,000,000
    001436  aa   000000 000000
    001437  aa   000000 000000
                                   693  	tab9	000,000,000,000,000,000,000,000
    001440  aa   000000 000000
    001441  aa   000000 000000
                                   694  	tab9	000,000,000,000,000,010,020,000
    001442  aa   000000 000000
    001443  aa   000010 020000
                                   695  	tab9	000,000,030,000,000,000,000,000
    001444  aa   000000 030000
    001445  aa   000000 000000
                                   696  	tab9	000,000,000,000,000,000,000,000
    001446  aa   000000 000000
    001447  aa   000000 000000
                                   697  	tab9	000,000,000,000,000,000,000,000
    001450  aa   000000 000000
    001451  aa   000000 000000
                                   698  	tab9	055,000,000,000,000,000,000,000
    001452  aa   055000 000000
    001453  aa   000000 000000
                                   699  	tab9	000,000,000,000,000,000,000,000
    001454  aa   000000 000000
    001455  aa   000000 000000
                                   700  	tab9	000,000,000,000,000,000,000,000
    001456  aa   000000 000000
    001457  aa   000000 000000
                                   701  	tab9	000,000,000,000,000,000,000,000
    001460  aa   000000 000000
    001461  aa   000000 000000
                                   702  	tab9	000,000,000,000,000,000,000,000
    001462  aa   000000 000000
    001463  aa   000000 000000
                                   703  	tab9	000,000,000,000,000,000,000,000
    001464  aa   000000 000000
    001465  aa   000000 000000
                                   704  	tab9	000,000,000,000,000,000,000,000
    001466  aa   000000 000000
    001467  aa   000000 000000
                                   705  	tab9	000,000,000,000,000,000,000,000
    001470  aa   000000 000000
    001471  aa   000000 000000
                                   706
                                   707  " device movement table for 4013
                                   708
                                   709  	tab6	1,1,1,1,1,1,1,1,2,3,5,1,1,4,1,1,1,1,1,1,1,1,1,1
    001472  aa   010101 010101
    001473  aa   010102 030501
    001474  aa   010401 010101
    001475  aa   010101 010101
                                   710  	tab6	1,1,1,6,1,1,1,1,0,0,0,0,0,0,0,0,0,0,0,0,0,0,0,0
    001476  aa   010101 060101
    001477  aa   010100 000000
    001500  aa   000000 000000
    001501  aa   000000 000000
                                   711  	tab6	0,0,0,0,0,0,0,0,0,0,0,0,0,0,0,0,0,0,0,0,0,0,0,0
    001502  aa   000000 000000
    001503  aa   000000 000000
    001504  aa   000000 000000
    001505  aa   000000 000000
                                   712  	tab6	0,0,0,0,0,0,0,0,0,0,0,0,0,0,0,0,0,0,0,0,0,0,0,0
    001506  aa   000000 000000
    001507  aa   000000 000000
    001510  aa   000000 000000
    001511  aa   000000 000000
                                   713  	tab6	0,0,0,0,0,0,0,0,0,0,0,0,0,0,0,0,0,0,0,0,0,0,0,0
    001512  aa   000000 000000
    001513  aa   000000 000000
    001514  aa   000000 000000
    001515  aa   000000 000000
                                   714  	tab6	0,0,0,0,0,0,0,1
    001516  aa   000000 000000
    001517  aa   000100 000000
                                   715
                                   716  " escape/prefix table for 4013
                                   717
    001520  aa   000000 000001     718  	dec	1
                                   719  	tab9	200,245,245	" esc esc (diaresis)
    001521  aa   200245 245000
                                   720
                                   721  " output sequence table for 4013
                                   722
    001522                         723  sequence_4013:
                                   724  	tab9	3,113,010,056	" !
    001522  aa   003113 010056
                                   725  	tab9	3,141,010,106	" A_
    001523  aa   003141 010106
                                   726  	tab9	3,142,010,106
    001524  aa   003142 010106
                                   727  	tab9	3,143,010,106
    001525  aa   003143 010106
                                   728  	tab9	3,144,010,106
    001526  aa   003144 010106
                                   729  	tab9	3,145,010,106
    001527  aa   003145 010106
                                   730  	tab9	3,146,010,106
    001530  aa   003146 010106
                                   731  	tab9	3,147,010,106
    001531  aa   003147 010106
                                   732  	tab9	3,150,010,106
    001532  aa   003150 010106
                                   733  	tab9	3,151,010,106
    001533  aa   003151 010106
                                   734  	tab9	3,152,010,106
    001534  aa   003152 010106
                                   735  	tab9	3,153,010,106
    001535  aa   003153 010106
                                   736  	tab9	3,154,010,106
    001536  aa   003154 010106
                                   737  	tab9	3,155,010,106
    001537  aa   003155 010106
                                   738  	tab9	3,156,010,106
    001540  aa   003156 010106
                                   739  	tab9	3,157,010,106
    001541  aa   003157 010106
                                   740  	tab9	3,160,010,106
    001542  aa   003160 010106
                                   741  	tab9	3,161,010,106
    001543  aa   003161 010106
                                   742  	tab9	3,162,010,106
    001544  aa   003162 010106
                                   743  	tab9	3,163,010,106
    001545  aa   003163 010106
                                   744  	tab9	3,164,010,106
    001546  aa   003164 010106
                                   745  	tab9	3,165,010,106
    001547  aa   003165 010106
                                   746  	tab9	3,166,010,106
    001550  aa   003166 010106
                                   747  	tab9	3,167,010,106
    001551  aa   003167 010106
                                   748  	tab9	3,170,010,106
    001552  aa   003170 010106
                                   749  	tab9	3,171,010,106
    001553  aa   003171 010106
                                   750  	tab9	3,172,010,106	" Z_
    001554  aa   003172 010106
                                   751  	tab9	3,050,010,124	" nor
    001555  aa   003050 010124
                                   752  	tab9	3,051,010,124	" nand
    001556  aa   003051 010124
                                   753  	tab9	3,117,010,137	" -O
    001557  aa   003117 010137
                                   754  	tab9	3,057,010,137	" -/
    001560  aa   003057 010137
                                   755  	tab9	3,107,010,124	" locked fcn
    001561  aa   003107 010124
                                   756  	tab9	3,117,010,120	" *O
    001562  aa   003117 010120
                                   757  	tab9	3,117,010,115	" O|
    001563  aa   003117 010115
                                   758  	tab9	3,117,010,077	" O\
    001564  aa   003117 010077
                                   759  	tab9	3,117,010,057	" /O
    001565  aa   003117 010057
                                   760  	tab9	3,107,010,115	" grade down
    001566  aa   003107 010115
                                   761  	tab9	3,110,010,115	" grade up
    001567  aa   003110 010115
                                   762  	tab9	3,103,010,112	" lamp
    001570  aa   003103 010112
                                   763  	tab9	3,114,010,113	" quad quote
    001571  aa   003114 010113
                                   764  	tab9	3,116,010,102	" ibeam
    001572  aa   003116 010102
                                   765  	tab9	3,077,010,137	" -\
    001573  aa   003077 010137
                                   766  	tab9	3,114,010,053	" domino
    001574  aa   003114 010053
                                   767  	tab9	3,060,010,106	" 0_
    001575  aa   003060 010106
                                   768  	tab9	3,061,010,106
    001576  aa   003061 010106
                                   769  	tab9	3,062,010,106
    001577  aa   003062 010106
                                   770  	tab9	3,063,010,106
    001600  aa   003063 010106
                                   771  	tab9	3,064,010,106
    001601  aa   003064 010106
                                   772  	tab9	3,065,010,106
    001602  aa   003065 010106
                                   773  	tab9	3,066,010,106
    001603  aa   003066 010106
                                   774  	tab9	3,067,010,106
    001604  aa   003067 010106
                                   775  	tab9	3,070,010,106
    001605  aa   003070 010106
                                   776  	tab9	3,071,010,106	" 9_
    001606  aa   003071 010106
                                   777  	tab9	3,110,010,106	" underlined delta
    001607  aa   003110 010106
                                   778  	tab9	3,102,010,112	" hydrant
    001610  aa   003102 010112
                                   779  	tab9	3,116,010,112	" thorn
    001611  aa   003116 010112
                                   780  	tab9	3,132,010,115	" c|
    001612  aa   003132 010115
                                   781  	tab9	3,054,010,137	" ,-
    001613  aa   003054 010137
                                   782  	tab9	2,015,012	" CR LF
    001614  aa   002015 012000
                                   783  	tab9	33,033,014,177,177,177,177,177,177,177,177,177,177,177,177,177,177,177,177,177,177,177,177,177,177,177,177,177
    001615  aa   033033 014177
    001616  aa   177177 177177
    001617  aa   177177 177177
    001620  aa   177177 177177
    001621  aa   177177 177177
    001622  aa   177177 177177
    001623  aa   177177 177177
                                   784  				" (25) 177,ESC,FF
                                   785  " 
                                   786  " Conversion table for an APL/ASCII bit-paired terminal,such as a CDI 1030.
                                   787  "   modes: ll73,^tabs
                                   788  "   enter: ?
                                   789  "   leave: ?
                                   790
    001624                         791  apl_1030:
                                   792
                                   793  	dev_info	convert_1030,sequence_1030,compression_in,compression_out
    001624  00   001660 002150
    001625  00   000434 000512
    001626  aa  061 060 063 060    794  	aci	"1030",32
    001627  aa  040 040 040 040
    001630  aa  040 040 040 040
    001631  aa  040 040 040 040
    001632  aa  040 040 040 040
    001633  aa  040 040 040 040
    001634  aa  040 040 040 040
    001635  aa  040 040 040 040
                                   795  	dev_info1	not_graphic,no_shift_needed,quit_editing_allowed,
                                   796  		013,245,177,0,0,041
    001636  aa   100000 013245
    001637  aa   177000 000041
                                   797  	dev_info2	0,79
    001640  aa   000000 000117
                                   798  	delay	0,0,0,0,0,23,
                                   799  		0,15,632,232,0,35,
                                   800  		6000,0,0,0,0,73,
                                   801  		0,0,0,0,0,146
    001641  aa   000000 000000
    001642  aa   000000 000000
    001643  aa   000000 000023
    001644  aa   000000 000015
    001645  aa   000632 000232
    001646  aa   000000 000035
    001647  aa   006000 000000
    001650  aa   000000 000000
    001651  aa   000000 000073
    001652  aa   000000 000000
    001653  aa   000000 000000
    001654  aa   000000 000146
    001655  aa   000000 000005     802  	dec	5
                                   803  	tab9	012,177,051,010,012		" LF DEL OR-SIGN BS LF
    001656  aa   012177 051010
    001657  aa   012000 000000
                                   804
                                   805  	even
                                   806
                                   807  " APL/Multics to 1030
                                   808
    001660                         809  convert_1030:
                                   810  	tab9	602,602,602,602,602,602,600,007	" ignore 006 for now
    001660  aa   602602 602602
    001661  aa   602602 600007
                                   811  	tab9	010,011,702,602,703,015,602,602
    001662  aa   010011 702602
    001663  aa   703015 602602
                                   812  	tab9	602,602,602,602,602,600,602,602	" ignore 025 for now
    001664  aa   602602 602602
    001665  aa   602600 602602
                                   813  	tab9	602,602,602,602,602,602,602,602
    001666  aa   602602 602602
    001667  aa   602602 602602
                                   814  	tab9	040,610,602,602,174,602,602,113	" SP ! " # $ % & '
    001670  aa   040610 602602
    001671  aa   174602 602113
                                   815  	tab9	053,052,120,055,054,075,056,057	" ( ) * + ,- . /
    001672  aa   053052 120055
    001673  aa   054075 056057
                                   816  	tab9	060,061,062,063,064,065,066,067
    001674  aa   060061 062063
    001675  aa   064065 066067
                                   817  	tab9	070,071,076,074,043,045,047,121	" 8 9 :  < = > ?
    001676  aa   070071 076074
    001677  aa   043045 047121
                                   818  	tab9	602,611,612,613,614,615,616,617
    001700  aa   602611 612613
    001701  aa   614615 616617
                                   819  	tab9	620,621,622,623,624,625,626,627
    001702  aa   620621 622623
    001703  aa   624625 626627
                                   820  	tab9	630,631,632,633,634,635,636,637
    001704  aa   630631 632633
    001705  aa   634635 636637
                                   821  	tab9	640,641,642,073,077,072,602,106	" X_ Y_ Z_ [ \ ] ^ _
    001706  aa   640641 642073
    001707  aa   077072 602106
                                   822  	tab9	602,141,142,143,144,145,146,147
    001710  aa   602141 142143
    001711  aa   144145 146147
                                   823  	tab9	150,151,152,153,154,155,156,157
    001712  aa   150151 152153
    001713  aa   154155 156157
                                   824  	tab9	160,161,162,163,164,165,166,167
    001714  aa   160161 162163
    001715  aa   164165 166167
                                   825  	tab9	170,171,172,173,115,175,124,600
    001716  aa   170171 172173
    001717  aa   115175 124600
                                   826
                                   827  	tab9	044,046,050,051,137,176,105,131	" <_ >_ =/ OR AND -: EPS UP
    001720  aa   044046 050051
    001721  aa   137176 105131
                                   828  	tab9	125,117,123,104,110,112,114,103
    001722  aa   125117 123104
    001723  aa   110112 114103
                                   829  	tab9	102,116,132,130,126,643,644,645
    001724  aa   102116 132130
    001725  aa   126643 644645
                                   830  	tab9	646,647,650,651,652,653,654,655
    001726  aa   646647 650651
    001727  aa   652653 654655
                                   831  	tab9	656,657,660,661,662,041,127,111
    001730  aa   656657 660661
    001731  aa   662041 127111
                                   832  	tab9	122,136,101,042,107,100,140,134
    001732  aa   122136 101042
    001733  aa   107100 140134
                                   833  	tab9	663,664,665,666,667,670,671,672
    001734  aa   663664 665666
    001735  aa   667670 671672
                                   834  	tab9	673,674,675,601,676,677,133,163
    001736  aa   673674 675601
    001737  aa   676677 133163
                                   835  	tab9	012,603,700,701,602,602,602,602
    001740  aa   012603 700701
    001741  aa   602602 602602
                                   836  	tab9	602,602,602,602,602,602,602,602
    001742  aa   602602 602602
    001743  aa   602602 602602
                                   837  	tab9	602,602,602,602,602,602,602,602
    001744  aa   602602 602602
    001745  aa   602602 602602
                                   838  	tab9	602,602,602,602,602,602,602,602
    001746  aa   602602 602602
    001747  aa   602602 602602
                                   839  	tab9	602,602,602,602,602,602,602,602
    001750  aa   602602 602602
    001751  aa   602602 602602
                                   840  	tab9	602,602,602,602,602,602,602,602
    001752  aa   602602 602602
    001753  aa   602602 602602
                                   841  	tab9	602,602,602,602,602,602,602,602
    001754  aa   602602 602602
    001755  aa   602602 602602
                                   842  	tab9	602,602,602,602,602,602,602,602
    001756  aa   602602 602602
    001757  aa   602602 602602
                                   843
                                   844  " 1030 to APL/Multics
                                   845
                                   846  	tab9	000,001,002,003,004,005,006,007
    001760  aa   000001 002003
    001761  aa   004005 006007
                                   847  	tab9	010,011,012,300,404,015,016,017	" 013 ==> 300,linefeed
    001762  aa   010011 012300
    001763  aa   404015 016017
                                   848  	tab9	020,021,022,023,024,025,026,027
    001764  aa   020021 022023
    001765  aa   024025 026027
                                   849  	tab9	030,031,032,403,034,035,036,037
    001766  aa   030031 032403
    001767  aa   034035 036037
                                   850  	tab9	040,245,253,074,200,075,201,076
    001770  aa   040245 253074
    001771  aa   200075 201076
                                   851  	tab9	202,203,051,050,054,053,056,057
    001772  aa   202203 051050
    001773  aa   054053 056057
                                   852  	tab9	060,061,062,063,064,065,066,067
    001774  aa   060061 062063
    001775  aa   064065 066067
                                   853  	tab9	070,071,135,133,073,055,072,134
    001776  aa   070071 135133
    001777  aa   073055 072134
                                   854  	tab9	255,252,220,217,213,206,137,254
    002000  aa   255252 220217
    002001  aa   213206 137254
                                   855  	tab9	214,247,215,047,216,174,221,211
    002002  aa   214247 215047
    002003  aa   216174 221211
                                   856  	tab9	052,077,250,212,176,210,224,246
    002004  aa   052077 250212
    002005  aa   176210 224246
                                   857  	tab9	223,207,222,276,257,174,251,204
    002006  aa   223207 222276
    002007  aa   257174 251204
                                   858  	tab9	256,141,142,143,144,145,146,147
    002010  aa   256141 142143
    002011  aa   144145 146147
                                   859  	tab9	150,151,152,153,154,155,156,157
    002012  aa   150151 152153
    002013  aa   154155 156157
                                   860  	tab9	160,161,162,163,164,165,166,167
    002014  aa   160161 162163
    002015  aa   164165 166167
                                   861  	tab9	170,171,172,277,044,175,205,404
    002016  aa   170171 172277
    002017  aa   044175 205404
                                   862
                                   863  " code movement table for 1030
                                   864
                                   865  	tab9	001,001,001,001,001,001,001,001
    002020  aa   001001 001001
    002021  aa   001001 001001
                                   866  	tab9	402,403,445,007,006,404,201,201
    002022  aa   402403 445007
    002023  aa   006404 201201
                                   867  	tab9	001,001,001,001,001,001,001,001
    002024  aa   001001 001001
    002025  aa   001001 001001
                                   868  	tab9	000,000,001,001,000,001,000,001
    002026  aa   000000 001001
    002027  aa   000001 000001
                                   869  	tab9	400,000,000,020,000,000,000,000
    002030  aa   400000 000020
    002031  aa   000000 000000
                                   870  	tab9	000,000,000,000,000,000,000,000
    002032  aa   000000 000000
    002033  aa   000000 000000
                                   871  	tab9	000,000,000,000,000,000,000,000
    002034  aa   000000 000000
    002035  aa   000000 000000
                                   872  	tab9	000,000,000,000,000,000,000,000
    002036  aa   000000 000000
    002037  aa   000000 000000
                                   873  	tab9	030,000,000,000,000,000,000,000
    002040  aa   030000 000000
    002041  aa   000000 000000
                                   874  	tab9	000,000,000,000,000,000,000,000
    002042  aa   000000 000000
    002043  aa   000000 000000
                                   875  	tab9	000,000,000,000,000,000,000,000
    002044  aa   000000 000000
    002045  aa   000000 000000
                                   876  	tab9	000,000,000,000,000,000,000,000
    002046  aa   000000 000000
    002047  aa   000000 000000
                                   877  	tab9	000,000,000,000,000,000,000,000
    002050  aa   000000 000000
    002051  aa   000000 000000
                                   878  	tab9	000,000,000,000,000,000,000,000
    002052  aa   000000 000000
    002053  aa   000000 000000
                                   879  	tab9	000,000,000,000,000,000,000,000
    002054  aa   000000 000000
    002055  aa   000000 000000
                                   880  	tab9	000,000,000,000,000,000,000,401
    002056  aa   000000 000000
    002057  aa   000000 000401
                                   881
                                   882  	tab9	000,000,000,000,000,000,000,000
    002060  aa   000000 000000
    002061  aa   000000 000000
                                   883  	tab9	000,000,000,000,000,000,000,000
    002062  aa   000000 000000
    002063  aa   000000 000000
                                   884  	tab9	000,000,000,000,000,000,000,000
    002064  aa   000000 000000
    002065  aa   000000 000000
                                   885  	tab9	000,000,000,000,000,000,000,000
    002066  aa   000000 000000
    002067  aa   000000 000000
                                   886  	tab9	000,000,000,000,000,010,020,000
    002070  aa   000000 000000
    002071  aa   000010 020000
                                   887  	tab9	000,000,030,000,000,000,000,000
    002072  aa   000000 030000
    002073  aa   000000 000000
                                   888  	tab9	000,000,000,000,000,000,000,000
    002074  aa   000000 000000
    002075  aa   000000 000000
                                   889  	tab9	000,000,000,000,000,000,000,000
    002076  aa   000000 000000
    002077  aa   000000 000000
                                   890  	tab9	055,000,000,000,000,000,000,000
    002100  aa   055000 000000
    002101  aa   000000 000000
                                   891  	tab9	000,000,000,000,000,000,000,000
    002102  aa   000000 000000
    002103  aa   000000 000000
                                   892  	tab9	000,000,000,000,000,000,000,000
    002104  aa   000000 000000
    002105  aa   000000 000000
                                   893  	tab9	000,000,000,000,000,000,000,000
    002106  aa   000000 000000
    002107  aa   000000 000000
                                   894  	tab9	000,000,000,000,000,000,000,000
    002110  aa   000000 000000
    002111  aa   000000 000000
                                   895  	tab9	000,000,000,000,000,000,000,000
    002112  aa   000000 000000
    002113  aa   000000 000000
                                   896  	tab9	000,000,000,000,000,000,000,000
    002114  aa   000000 000000
    002115  aa   000000 000000
                                   897  	tab9	000,000,000,000,000,000,000,000
    002116  aa   000000 000000
    002117  aa   000000 000000
                                   898
                                   899  " device movement table for 1030
                                   900
                                   901  	tab6	1,1,1,1,1,1,1,1,2,3,5,1,1,4,1,1,1,1,1,1,1,1,1,1
    002120  aa   010101 010101
    002121  aa   010102 030501
    002122  aa   010401 010101
    002123  aa   010101 010101
                                   902  	tab6	1,1,1,6,1,1,1,1,0,0,0,0,0,0,0,0,0,0,0,0,0,0,0,0
    002124  aa   010101 060101
    002125  aa   010100 000000
    002126  aa   000000 000000
    002127  aa   000000 000000
                                   903  	tab6	0,0,0,0,0,0,0,0,0,0,0,0,0,0,0,0,0,0,0,0,0,0,0,0
    002130  aa   000000 000000
    002131  aa   000000 000000
    002132  aa   000000 000000
    002133  aa   000000 000000
                                   904  	tab6	0,0,0,0,0,0,0,0,0,0,0,0,0,0,0,0,0,0,0,0,0,0,0,0
    002134  aa   000000 000000
    002135  aa   000000 000000
    002136  aa   000000 000000
    002137  aa   000000 000000
                                   905  	tab6	0,0,0,0,0,0,0,0,0,0,0,0,0,0,0,0,0,0,0,0,0,0,0,0
    002140  aa   000000 000000
    002141  aa   000000 000000
    002142  aa   000000 000000
    002143  aa   000000 000000
                                   906  	tab6	0,0,0,0,0,0,0,1
    002144  aa   000000 000000
    002145  aa   000100 000000
                                   907
                                   908  " escape/prefix table for 1030
                                   909
    002146  aa   000000 000001     910  	dec	1
                                   911  	tab9	200,245,245	" esc esc (diaresis)
    002147  aa   200245 245000
                                   912
                                   913  " output sequence table for 1030
                                   914
    002150                         915  sequence_1030:
                                   916  	tab9	3,113,010,056	" !
    002150  aa   003113 010056
                                   917  	tab9	3,141,010,106	" A_
    002151  aa   003141 010106
                                   918  	tab9	3,142,010,106
    002152  aa   003142 010106
                                   919  	tab9	3,143,010,106
    002153  aa   003143 010106
                                   920  	tab9	3,144,010,106
    002154  aa   003144 010106
                                   921  	tab9	3,145,010,106
    002155  aa   003145 010106
                                   922  	tab9	3,146,010,106
    002156  aa   003146 010106
                                   923  	tab9	3,147,010,106
    002157  aa   003147 010106
                                   924  	tab9	3,150,010,106
    002160  aa   003150 010106
                                   925  	tab9	3,151,010,106
    002161  aa   003151 010106
                                   926  	tab9	3,152,010,106
    002162  aa   003152 010106
                                   927  	tab9	3,153,010,106
    002163  aa   003153 010106
                                   928  	tab9	3,154,010,106
    002164  aa   003154 010106
                                   929  	tab9	3,155,010,106
    002165  aa   003155 010106
                                   930  	tab9	3,156,010,106
    002166  aa   003156 010106
                                   931  	tab9	3,157,010,106
    002167  aa   003157 010106
                                   932  	tab9	3,160,010,106
    002170  aa   003160 010106
                                   933  	tab9	3,161,010,106
    002171  aa   003161 010106
                                   934  	tab9	3,162,010,106
    002172  aa   003162 010106
                                   935  	tab9	3,163,010,106
    002173  aa   003163 010106
                                   936  	tab9	3,164,010,106
    002174  aa   003164 010106
                                   937  	tab9	3,165,010,106
    002175  aa   003165 010106
                                   938  	tab9	3,166,010,106
    002176  aa   003166 010106
                                   939  	tab9	3,167,010,106
    002177  aa   003167 010106
                                   940  	tab9	3,170,010,106
    002200  aa   003170 010106
                                   941  	tab9	3,171,010,106
    002201  aa   003171 010106
                                   942  	tab9	3,172,010,106	" Z_
    002202  aa   003172 010106
                                   943  	tab9	3,051,010,124	" nor
    002203  aa   003051 010124
                                   944  	tab9	3,124,010,137	" nand
    002204  aa   003124 010137
                                   945  	tab9	3,075,010,117	" -O
    002205  aa   003075 010117
                                   946  	tab9	3,057,010,075	" -/
    002206  aa   003057 010075
                                   947  	tab9	3,107,010,124	" locked fcn
    002207  aa   003107 010124
                                   948  	tab9	3,117,010,120	" *O
    002210  aa   003117 010120
                                   949  	tab9	3,117,010,115	" O|
    002211  aa   003117 010115
                                   950  	tab9	3,117,010,077	" O\
    002212  aa   003117 010077
                                   951  	tab9	3,117,010,057	" /O
    002213  aa   003117 010057
                                   952  	tab9	3,107,010,115	" grade down
    002214  aa   003107 010115
                                   953  	tab9	3,110,010,115	" grade up
    002215  aa   003110 010115
                                   954  	tab9	3,103,010,112	" lamp
    002216  aa   003103 010112
                                   955  	tab9	3,114,010,113	" quad quote
    002217  aa   003114 010113
                                   956  	tab9	3,116,010,102	" ibeam
    002220  aa   003116 010102
                                   957  	tab9	3,075,010,077	" -\
    002221  aa   003075 010077
                                   958  	tab9	3,114,010,176	" domino
    002222  aa   003114 010176
                                   959  	tab9	3,060,010,106	" 0_
    002223  aa   003060 010106
                                   960  	tab9	3,061,010,106
    002224  aa   003061 010106
                                   961  	tab9	3,062,010,106
    002225  aa   003062 010106
                                   962  	tab9	3,063,010,106
    002226  aa   003063 010106
                                   963  	tab9	3,064,010,106
    002227  aa   003064 010106
                                   964  	tab9	3,065,010,106
    002230  aa   003065 010106
                                   965  	tab9	3,066,010,106
    002231  aa   003066 010106
                                   966  	tab9	3,067,010,106
    002232  aa   003067 010106
                                   967  	tab9	3,070,010,106
    002233  aa   003070 010106
                                   968  	tab9	3,071,010,106	" 9_
    002234  aa   003071 010106
                                   969  	tab9	3,110,010,106	" underlined delta
    002235  aa   003110 010106
                                   970  	tab9	3,102,010,112	" hydrant
    002236  aa   003102 010112
                                   971  	tab9	3,116,010,112	" thorn
    002237  aa   003116 010112
                                   972  	tab9	3,132,010,115	" c|
    002240  aa   003132 010115
                                   973  	tab9	3,054,010,075	" ,-
    002241  aa   003054 010075
                                   974  	tab9	2,015,012	" CR LF
    002242  aa   002015 012000
                                   975  	tab9	33,033,014,177,177,177,177,177,177,177,177,177,177,177,177,177,177,177,177,177,177,177,177,177,177,177,177,177
    002243  aa   033033 014177
    002244  aa   177177 177177
    002245  aa   177177 177177
    002246  aa   177177 177177
    002247  aa   177177 177177
    002250  aa   177177 177177
    002251  aa   177177 177177
                                   976  				" (25) 177,ESC,FF
                                   977  " 
                                   978  " Code conversion table for ASCII devices
                                   979  " PG 1/4/74
                                   980
                                   981
    002252                         982  apl_ascii:
                                   983  	dev_info	convert_ascii,sequence_ascii,ascii_compression_in,ascii_compression_out
    002252  00   002306 002576
    002253  00   002705 002751
    002254  aa  101 123 103 111    984  	aci	"ASCII",32
    002255  aa  111 040 040 040
    002256  aa  040 040 040 040
    002257  aa  040 040 040 040
    002260  aa  040 040 040 040
    002261  aa  040 040 040 040
    002262  aa  040 040 040 040
    002263  aa  040 040 040 040
                                   985  	dev_info1	not_graphic,no_shift_needed,quit_editing_allowed,
                                   986  		013,245,177,0,0,042
    002264  aa   100000 013245
    002265  aa   177000 000042
                                   987  	dev_info2	0,79			" page length,line length
    002266  aa   000000 000117
                                   988  	delay	0,0,0,0,0,23,
                                   989  		0,15,632,232,0,35,
                                   990  		6000,0,0,0,0,73,
                                   991  		0,0,0,0,0,146
    002267  aa   000000 000000
    002270  aa   000000 000000
    002271  aa   000000 000023
    002272  aa   000000 000015
    002273  aa   000632 000232
    002274  aa   000000 000035
    002275  aa   006000 000000
    002276  aa   000000 000000
    002277  aa   000000 000073
    002300  aa   000000 000000
    002301  aa   000000 000000
    002302  aa   000000 000146
    002303  aa   000000 000010     992  	dec	8
                                   993  	tab9	012,177,177,177,177,166,010,012	" LF PAD PAD PAD PAD OR-SIGN BS LF
    002304  aa   012177 177177
    002305  aa   177166 010012
                                   994
                                   995  	even
                                   996
                                   997  " APL/Multics to ASCII devices
                                   998
    002306                         999  convert_ascii:
                                  1000  	tab9	602,602,602,602,602,602,600,007
    002306  aa   602602 602602
    002307  aa   602602 600007
                                  1001  	tab9	010,011,610,602,014,015,016,017
    002310  aa   010011 610602
    002311  aa   014015 016017
                                  1002  	tab9	602,602,602,602,602,600,602,602
    002312  aa   602602 602602
    002313  aa   602600 602602
                                  1003  	tab9	602,602,602,602,602,602,602,602
    002314  aa   602602 602602
    002315  aa   602602 602602
                                  1004  	tab9	040,041,602,602,044,045,602,047
    002316  aa   040041 602602
    002317  aa   044045 602047
                                  1005  	tab9	050,051,052,053,054,055,056,057
    002320  aa   050051 052053
    002321  aa   054055 056057
                                  1006  	tab9	060,061,062,063,064,065,066,067
    002322  aa   060061 062063
    002323  aa   064065 066067
                                  1007  	tab9	070,071,072,073,074,075,076,077
    002324  aa   070071 072073
    002325  aa   074075 076077
                                  1008  	tab9	602,611,612,613,614,615,616,617
    002326  aa   602611 612613
    002327  aa   614615 616617
                                  1009  	tab9	620,621,622,623,624,625,626,627
    002330  aa   620621 622623
    002331  aa   624625 626627
                                  1010  	tab9	630,631,632,633,634,635,636,637
    002332  aa   630631 632633
    002333  aa   634635 636637
                                  1011  	tab9	640,641,642,133,134,135,602,137
    002334  aa   640641 642133
    002335  aa   134135 602137
                                  1012  	tab9	602,101,102,103,104,105,106,107
    002336  aa   602101 102103
    002337  aa   104105 106107
                                  1013  	tab9	110,111,112,113,114,115,116,117
    002340  aa   110111 112113
    002341  aa   114115 116117
                                  1014  	tab9	120,121,122,123,124,125,126,127
    002342  aa   120121 122123
    002343  aa   124125 126127
                                  1015  	tab9	130,131,132,173,174,175,176,600
    002344  aa   130131 132173
    002345  aa   174175 176600
                                  1016
                                  1017  	tab9	643,644,645,166,046,646,145,647
    002346  aa   643644 645166
    002347  aa   046646 145647
                                  1018  	tab9	650,157,143,146,144,651,161,156
    002350  aa   650157 143146
    002351  aa   144651 161156
                                  1019  	tab9	652,164,653,654,165,655,656,657
    002352  aa   652164 653654
    002353  aa   165655 656657
                                  1020  	tab9	660,661,662,663,664,665,666,667
    002354  aa   660661 662663
    002355  aa   664665 666667
                                  1021  	tab9	714,670,142,671,155,042,167,151
    002356  aa   714670 142671
    002357  aa   155042 167151
                                  1022  	tab9	160,170,141,136,147,672,673,674
    002360  aa   160170 141136
    002361  aa   147672 673674
                                  1023  	tab9	675,676,677,700,701,702,703,704
    002362  aa   675676 677700
    002363  aa   701702 703704
                                  1024  	tab9	705,706,707,601,710,711,712,713
    002364  aa   705706 707601
    002365  aa   710711 712713
                                  1025  	tab9	012,603,715,716,602,602,602,602
    002366  aa   012603 715716
    002367  aa   602602 602602
                                  1026  	tab9	602,602,602,602,602,602,602,602
    002370  aa   602602 602602
    002371  aa   602602 602602
                                  1027  	tab9	602,602,602,602,602,602,602,602
    002372  aa   602602 602602
    002373  aa   602602 602602
                                  1028  	tab9	602,602,602,602,602,602,602,602
    002374  aa   602602 602602
    002375  aa   602602 602602
                                  1029  	tab9	602,602,602,602,602,602,602,602
    002376  aa   602602 602602
    002377  aa   602602 602602
                                  1030  	tab9	602,602,602,602,602,602,602,602
    002400  aa   602602 602602
    002401  aa   602602 602602
                                  1031  	tab9	602,602,602,602,602,602,602,602
    002402  aa   602602 602602
    002403  aa   602602 602602
                                  1032  	tab9	602,602,602,602,602,602,602,602
    002404  aa   602602 602602
    002405  aa   602602 602602
                                  1033
                                  1034  " ASCII devices to APL/Multics
                                  1035
                                  1036  	tab9	000,001,002,003,004,005,006,007
    002406  aa   000001 002003
    002407  aa   004005 006007
                                  1037  	tab9	010,011,012,300,404,015,016,017	" 013 ==> 300,linefeed
    002410  aa   010011 012300
    002411  aa   404015 016017
                                  1038  	tab9	020,021,022,023,024,025,026,027
    002412  aa   020021 022023
    002413  aa   024025 026027
                                  1039  	tab9	030,031,032,403,034,035,036,037
    002414  aa   030031 032403
    002415  aa   034035 036037
                                  1040  	tab9	040,041,245,246,044,045,204,047
    002416  aa   040041 245246
    002417  aa   044045 204047
                                  1041  	tab9	050,051,052,053,054,055,056,057
    002420  aa   050051 052053
    002421  aa   054055 056057
                                  1042  	tab9	060,061,062,063,064,065,066,067
    002422  aa   060061 062063
    002423  aa   064065 066067
                                  1043  	tab9	070,071,072,073,074,075,076,077
    002424  aa   070071 072073
    002425  aa   074075 076077
                                  1044  	tab9	252,141,142,143,144,145,146,147
    002426  aa   252141 142143
    002427  aa   144145 146147
                                  1045  	tab9	150,151,152,153,154,155,156,157
    002430  aa   150151 152153
    002431  aa   154155 156157
                                  1046  	tab9	160,161,162,163,164,165,166,167
    002432  aa   160161 162163
    002433  aa   164165 166167
                                  1047  	tab9	170,171,172,133,134,135,253,137
    002434  aa   170171 172133
    002435  aa   134135 253137
                                  1048  	tab9	140,252,242,212,214,206,213,254
    002436  aa   140252 242212
    002437  aa   214206 213254
                                  1049  	tab9	405,247,405,405,405,244,217,211
    002440  aa   405247 405405
    002441  aa   405244 217211
                                  1050  	tab9	250,216,405,405,221,224,203,246
    002442  aa   250216 405405
    002443  aa   221224 203246
                                  1051  	tab9	251,405,405,173,174,175,176,404
    002444  aa   251405 405173
    002445  aa   174175 176404
                                  1052
                                  1053  " code movement table for ASCII
                                  1054
                                  1055  	tab9	001,001,001,001,001,001,001,001
    002446  aa   001001 001001
    002447  aa   001001 001001
                                  1056  	tab9	402,403,445,007,006,404,201,201
    002450  aa   402403 445007
    002451  aa   006404 201201
                                  1057  	tab9	001,001,001,001,001,001,001,001
    002452  aa   001001 001001
    002453  aa   001001 001001
                                  1058  	tab9	000,000,001,001,000,001,000,001
    002454  aa   000000 001001
    002455  aa   000001 000001
                                  1059  	tab9	400,000,000,020,000,000,000,000
    002456  aa   400000 000020
    002457  aa   000000 000000
                                  1060  	tab9	000,000,000,000,000,000,000,000
    002460  aa   000000 000000
    002461  aa   000000 000000
                                  1061  	tab9	000,000,000,000,000,000,000,000
    002462  aa   000000 000000
    002463  aa   000000 000000
                                  1062  	tab9	000,000,000,000,000,000,000,000
    002464  aa   000000 000000
    002465  aa   000000 000000
                                  1063  	tab9	030,000,000,000,000,000,000,000
    002466  aa   030000 000000
    002467  aa   000000 000000
                                  1064  	tab9	000,000,000,000,000,000,000,000
    002470  aa   000000 000000
    002471  aa   000000 000000
                                  1065  	tab9	000,000,000,000,000,000,000,000
    002472  aa   000000 000000
    002473  aa   000000 000000
                                  1066  	tab9	000,000,000,000,000,000,000,000
    002474  aa   000000 000000
    002475  aa   000000 000000
                                  1067  	tab9	000,000,000,000,000,000,000,000
    002476  aa   000000 000000
    002477  aa   000000 000000
                                  1068  	tab9	000,000,000,000,000,000,000,000
    002500  aa   000000 000000
    002501  aa   000000 000000
                                  1069  	tab9	000,000,000,000,000,000,000,000
    002502  aa   000000 000000
    002503  aa   000000 000000
                                  1070  	tab9	000,000,000,000,000,000,000,401
    002504  aa   000000 000000
    002505  aa   000000 000401
                                  1071
                                  1072  	tab9	000,000,000,000,000,000,000,000
    002506  aa   000000 000000
    002507  aa   000000 000000
                                  1073  	tab9	000,000,000,000,000,000,000,000
    002510  aa   000000 000000
    002511  aa   000000 000000
                                  1074  	tab9	000,000,000,000,000,000,000,000
    002512  aa   000000 000000
    002513  aa   000000 000000
                                  1075  	tab9	000,000,000,000,000,000,000,000
    002514  aa   000000 000000
    002515  aa   000000 000000
                                  1076  	tab9	000,000,000,000,000,010,020,000
    002516  aa   000000 000000
    002517  aa   000010 020000
                                  1077  	tab9	000,000,030,000,000,000,000,000
    002520  aa   000000 030000
    002521  aa   000000 000000
                                  1078  	tab9	000,000,000,000,000,000,000,000
    002522  aa   000000 000000
    002523  aa   000000 000000
                                  1079  	tab9	000,000,000,000,000,000,000,000
    002524  aa   000000 000000
    002525  aa   000000 000000
                                  1080  	tab9	055,000,000,000,000,000,000,000
    002526  aa   055000 000000
    002527  aa   000000 000000
                                  1081  	tab9	000,000,000,000,000,000,000,000
    002530  aa   000000 000000
    002531  aa   000000 000000
                                  1082  	tab9	000,000,000,000,000,000,000,000
    002532  aa   000000 000000
    002533  aa   000000 000000
                                  1083  	tab9	000,000,000,000,000,000,000,000
    002534  aa   000000 000000
    002535  aa   000000 000000
                                  1084  	tab9	000,000,000,000,000,000,000,000
    002536  aa   000000 000000
    002537  aa   000000 000000
                                  1085  	tab9	000,000,000,000,000,000,000,000
    002540  aa   000000 000000
    002541  aa   000000 000000
                                  1086  	tab9	000,000,000,000,000,000,000,000
    002542  aa   000000 000000
    002543  aa   000000 000000
                                  1087  	tab9	000,000,000,000,000,000,000,000
    002544  aa   000000 000000
    002545  aa   000000 000000
                                  1088
                                  1089  " device movement table for ASCII
                                  1090
                                  1091  	tab6	1,1,1,1,1,1,1,1,2,3,5,1,1,4,1,1,1,1,1,1,1,1,1,1
    002546  aa   010101 010101
    002547  aa   010102 030501
    002550  aa   010401 010101
    002551  aa   010101 010101
                                  1092  	tab6	1,1,1,6,1,1,1,1,0,0,0,0,0,0,0,0,0,0,0,0,0,0,0,0
    002552  aa   010101 060101
    002553  aa   010100 000000
    002554  aa   000000 000000
    002555  aa   000000 000000
                                  1093  	tab6	0,0,0,0,0,0,0,0,0,0,0,0,0,0,0,0,0,0,0,0,0,0,0,0
    002556  aa   000000 000000
    002557  aa   000000 000000
    002560  aa   000000 000000
    002561  aa   000000 000000
                                  1094  	tab6	0,0,0,0,0,0,0,0,0,0,0,0,0,0,0,0,0,0,0,0,0,0,0,0
    002562  aa   000000 000000
    002563  aa   000000 000000
    002564  aa   000000 000000
    002565  aa   000000 000000
                                  1095  	tab6	0,0,0,0,0,0,0,0,0,0,0,0,0,0,0,0,0,0,0,0,0,0,0,0
    002566  aa   000000 000000
    002567  aa   000000 000000
    002570  aa   000000 000000
    002571  aa   000000 000000
                                  1096  	tab6	0,0,0,0,0,0,0,1
    002572  aa   000000 000000
    002573  aa   000100 000000
                                  1097
                                  1098  " escape/prefix table for ASCII
                                  1099
    002574  aa   000000 000001    1100  	dec	1
                                  1101  	tab9	200,245,245	" esc esc (double quote)
    002575  aa   200245 245000
                                  1102
                                  1103  " output sequence table for ASCII
                                  1104
    002576                        1105  sequence_ascii:
                                  1106  	tab9	2,015,012	" NL -> CR LF
    002576  aa   002015 012000
                                  1107  	tab9	3,101,010,137	" A_
    002577  aa   003101 010137
                                  1108  	tab9	3,102,010,137
    002600  aa   003102 010137
                                  1109  	tab9	3,103,010,137
    002601  aa   003103 010137
                                  1110  	tab9	3,104,010,137
    002602  aa   003104 010137
                                  1111  	tab9	3,105,010,137
    002603  aa   003105 010137
                                  1112  	tab9	3,106,010,137
    002604  aa   003106 010137
                                  1113  	tab9	3,107,010,137
    002605  aa   003107 010137
                                  1114  	tab9	3,110,010,137
    002606  aa   003110 010137
                                  1115  	tab9	3,111,010,137
    002607  aa   003111 010137
                                  1116  	tab9	3,112,010,137
    002610  aa   003112 010137
                                  1117  	tab9	3,113,010,137
    002611  aa   003113 010137
                                  1118  	tab9	3,114,010,137
    002612  aa   003114 010137
                                  1119  	tab9	3,115,010,137
    002613  aa   003115 010137
                                  1120  	tab9	3,116,010,137
    002614  aa   003116 010137
                                  1121  	tab9	3,117,010,137
    002615  aa   003117 010137
                                  1122  	tab9	3,120,010,137
    002616  aa   003120 010137
                                  1123  	tab9	3,121,010,137
    002617  aa   003121 010137
                                  1124  	tab9	3,122,010,137
    002620  aa   003122 010137
                                  1125  	tab9	3,123,010,137
    002621  aa   003123 010137
                                  1126  	tab9	3,124,010,137
    002622  aa   003124 010137
                                  1127  	tab9	3,125,010,137
    002623  aa   003125 010137
                                  1128  	tab9	3,126,010,137
    002624  aa   003126 010137
                                  1129  	tab9	3,127,010,137
    002625  aa   003127 010137
                                  1130  	tab9	3,130,010,137
    002626  aa   003130 010137
                                  1131  	tab9	3,131,010,137
    002627  aa   003131 010137
                                  1132  	tab9	3,132,010,137
    002630  aa   003132 010137
                                  1133  	tab9	3,074,010,137
    002631  aa   003074 010137
                                  1134  	tab9	3,076,010,137	" >_
    002632  aa   003076 010137
                                  1135  	tab9	3,057,010,075	" /=
    002633  aa   003057 010075
                                  1136  	tab9	3,055,010,072	" -:
    002634  aa   003055 010072
                                  1137  	tab9	3,136,010,174	" ^|
    002635  aa   003136 010174
                                  1138  	tab9	3,166,010,174	" v|
    002636  aa   003166 010174
                                  1139  	tab9	3,137,010,157	" _o
    002637  aa   003137 010157
                                  1140  	tab9	3,137,010,174	" _|
    002640  aa   003137 010174
                                  1141  	tab9	3,050,010,137	" (_		THIS ) FOR BSG!
    002641  aa   003050 010137
                                  1142  	tab9	3,051,010,137	" BSG ( LEFT PARN!		)_
    002642  aa   003051 010137
                                  1143  	tab9	3,166,010,176	" v~
    002643  aa   003166 010176
                                  1144  	tab9	3,046,010,176	" &~
    002644  aa   003046 010176
                                  1145  	tab9	3,055,010,157	" -o
    002645  aa   003055 010157
                                  1146  	tab9	3,055,010,057	" -/
    002646  aa   003055 010057
                                  1147  	tab9	3,147,010,176	" g~
    002647  aa   003147 010176
                                  1148  	tab9	3,052,010,157	" *o
    002650  aa   003052 010157
                                  1149  	tab9	3,157,010,174	" o|
    002651  aa   003157 010174
                                  1150  	tab9	3,134,010,157	" \o
    002652  aa   003134 010157
                                  1151  	tab9	3,057,010,157	" /o
    002653  aa   003057 010157
                                  1152  	tab9	3,147,010,174	" g|
    002654  aa   003147 010174
                                  1153  	tab9	3,144,010,174	" d|
    002655  aa   003144 010174
                                  1154  	tab9	3,047,010,161	" 'q
    002656  aa   003047 010161
                                  1155  	tab9	3,055,010,134	" -\
    002657  aa   003055 010134
                                  1156  	tab9	3,055,010,074	" -<
    002660  aa   003055 010074
                                  1157  	tab9	3,055,010,076	" ->
    002661  aa   003055 010076
                                  1158  	tab9	3,074,010,076	" <>
    002662  aa   003074 010076
                                  1159  	tab9	3,060,010,137	" 0_
    002663  aa   003060 010137
                                  1160  	tab9	3,061,010,137	" 1_
    002664  aa   003061 010137
                                  1161  	tab9	3,062,010,137	" 2_
    002665  aa   003062 010137
                                  1162  	tab9	3,063,010,137	" 3_
    002666  aa   003063 010137
                                  1163  	tab9	3,064,010,137	" 4_
    002667  aa   003064 010137
                                  1164  	tab9	3,065,010,137	" 5_
    002670  aa   003065 010137
                                  1165  	tab9	3,066,010,137	" 6_
    002671  aa   003066 010137
                                  1166  	tab9	3,067,010,137	" 7_
    002672  aa   003067 010137
                                  1167  	tab9	3,070,010,137	" 8_
    002673  aa   003070 010137
                                  1168  	tab9	3,071,010,137	" 9_
    002674  aa   003071 010137
                                  1169  	tab9	3,137,010,144	" _d
    002675  aa   003137 010144
                                  1170  	tab9	3,137,010,145	" _e
    002676  aa   003137 010145
                                  1171  	tab9	3,137,010,146	" _f
    002677  aa   003137 010146
                                  1172  	tab9	3,050,010,055	" (-		THIS ) FOR BSG!
    002700  aa   003050 010055
                                  1173  	tab9	3,051,010,055	" BSG ( LEFT PARN!		)-
    002701  aa   003051 010055
                                  1174  	tab9	3,056,010,156	" .n
    002702  aa   003056 010156
                                  1175  	tab9	3,143,010,174	" c|
    002703  aa   003143 010174
                                  1176  	tab9	3,054,010,055	" ,-
    002704  aa   003054 010055
                                  1177
                                  1178  " compression table for ASCII
                                  1179
    002705                        1180  ascii_compression_in:
    002705  aa   000000 000214    1181  	dec	140		" 140 characters in table
                                  1182  	tab9	137,141,137,142	" A_ B_
    002706  aa   137141 137142
                                  1183  	tab9	137,143,137,144
    002707  aa   137143 137144
                                  1184  	tab9	137,145,137,146
    002710  aa   137145 137146
                                  1185  	tab9	137,147,137,150
    002711  aa   137147 137150
                                  1186  	tab9	137,151,137,152
    002712  aa   137151 137152
                                  1187  	tab9	137,153,137,154
    002713  aa   137153 137154
                                  1188  	tab9	137,155,137,156
    002714  aa   137155 137156
                                  1189  	tab9	137,157,137,160
    002715  aa   137157 137160
                                  1190  	tab9	137,161,137,162
    002716  aa   137161 137162
                                  1191  	tab9	137,163,137,164
    002717  aa   137163 137164
                                  1192  	tab9	137,165,137,166
    002720  aa   137165 137166
                                  1193  	tab9	137,167,137,170
    002721  aa   137167 137170
                                  1194  	tab9	137,171,137,172
    002722  aa   137171 137172
                                  1195  	tab9	074,137,076,137	" <_ >_
    002723  aa   074137 076137
                                  1196  	tab9	057,075,055,072	" /= -:
    002724  aa   057075 055072
                                  1197  	tab9	174,253,174,203	" ^| v|
    002725  aa   174253 174203
                                  1198  	tab9	137,211,137,174	" _o _|
    002726  aa   137211 137174
                                  1199  	tab9	050,137,051,137	" (_ )_
    002727  aa   050137 051137
                                  1200  	tab9	176,203,176,204	" v~ &~
    002730  aa   176203 176204
                                  1201  	tab9	055,211,055,057	" -o -/
    002731  aa   055211 055057
                                  1202  	tab9	176,254,052,211	" g~ *o
    002732  aa   176254 052211
                                  1203  	tab9	174,211,134,211	" o| \o
    002733  aa   174211 134211
                                  1204  	tab9	057,211,174,254	" /o g|
    002734  aa   057211 174254
                                  1205  	tab9	174,214,047,216	" d| 'q
    002735  aa   174214 047216
                                  1206  	tab9	055,134,055,074	" -\ <-
    002736  aa   055134 055074
                                  1207  	tab9	055,076,074,076	" -> <>
    002737  aa   055076 074076
                                  1208  	tab9	060,137,061,137	" 0_ 1_
    002740  aa   060137 061137
                                  1209  	tab9	062,137,063,137	" 2_ 3_
    002741  aa   062137 063137
                                  1210  	tab9	064,137,065,137	" 4_ 5_
    002742  aa   064137 065137
                                  1211  	tab9	066,137,067,137	" 6_ 7_
    002743  aa   066137 067137
                                  1212  	tab9	070,137,071,137	" 8_ 9_
    002744  aa   070137 071137
                                  1213  	tab9	137,214,137,206	" _d _e
    002745  aa   137214 137206
                                  1214  	tab9	137,213,050,055	" _f (-		THIS ) FOR BSG!
    002746  aa   137213 050055
                                  1215  	tab9	051,055,056,217	" BSG ( LEFT PARN!		)- .n
    002747  aa   051055 056217
                                  1216  	tab9	174,212,054,055	" c| ,-
    002750  aa   174212 054055
                                  1217
    002751                        1218  ascii_compression_out:
    002751  aa   000000 000106    1219  	dec	70		" 70 elements in table
                                  1220  	tab9	101,102,103,104
    002752  aa   101102 103104
                                  1221  	tab9	105,106,107,110
    002753  aa   105106 107110
                                  1222  	tab9	111,112,113,114
    002754  aa   111112 113114
                                  1223  	tab9	115,116,117,120
    002755  aa   115116 117120
                                  1224  	tab9	121,122,123,124
    002756  aa   121122 123124
                                  1225  	tab9	125,126,127,130
    002757  aa   125126 127130
                                  1226  	tab9	131,132,200,201
    002760  aa   131132 200201
                                  1227  	tab9	202,205,207,210
    002761  aa   202205 207210
                                  1228  	tab9	215,220,222,223
    002762  aa   215220 222223
                                  1229  	tab9	225,226,227,230
    002763  aa   225226 227230
                                  1230  	tab9	231,232,233,234
    002764  aa   231232 233234
                                  1231  	tab9	235,236,237,241
    002765  aa   235236 237241
                                  1232  	tab9	243,255,256,257
    002766  aa   243255 256257
                                  1233  	tab9	260,261,262,263
    002767  aa   260261 262263
                                  1234  	tab9	264,265,266,267
    002770  aa   264265 266267
                                  1235  	tab9	270,271,272,274
    002771  aa   270271 272274
                                  1236  	tab9	275,276,277,240
    002772  aa   275276 277240
                                  1237  	tab9	302,303
    002773  aa   302303 000000
                                  1238  " 
    002774                        1239  apl_ascii_display:
                                  1240  	dev_info	convert_ascii,sequence_ascii,ascii_compression_in,ascii_compression_out
    002774  00   002306 002576
    002775  00   002705 002751
    002776  aa  101 122 104 123   1241  	aci	"ARDS",32
    002777  aa  040 040 040 040
    003000  aa  040 040 040 040
    003001  aa  040 040 040 040
    003002  aa  040 040 040 040
    003003  aa  040 040 040 040
    003004  aa  040 040 040 040
    003005  aa  040 040 040 040
                                  1242  	dev_info1	graphic,no_shift_needed,quit_editing_not_allowed,
                                  1243  		013,245,000,0,0,042
    003006  aa   400000 013245
    003007  aa   000000 000042
                                  1244  	dev_info2	45,73
    003010  aa   000055 000111
                                  1245  	delay	0,0,0,0,0,0,
                                  1246  		0,0,0,0,0,0,
                                  1247  		0,0,0,0,0,0,
                                  1248  		0,0,0,0,0,0
    003011  aa   000000 000000
    003012  aa   000000 000000
    003013  aa   000000 000000
    003014  aa   000000 000000
    003015  aa   000000 000000
    003016  aa   000000 000000
    003017  aa   000000 000000
    003020  aa   000000 000000
    003021  aa   000000 000000
    003022  aa   000000 000000
    003023  aa   000000 000000
    003024  aa   000000 000000
    003025  aa   000000 000000    1249  	dec	0
                                  1250  	tab9	0,0,0,0,0,0,0,0	" nothing
    003026  aa   000000 000000
    003027  aa   000000 000000
                                  1251
    003030                        1252  apl_tn300:
                                  1253  	dev_info	convert_ascii,sequence_ascii,ascii_compression_in,ascii_compression_out
    003030  00   002306 002576
    003031  00   002705 002751
    003032  aa  124 116 063 060   1254  	aci	"TN300",32
    003033  aa  060 040 040 040
    003034  aa  040 040 040 040
    003035  aa  040 040 040 040
    003036  aa  040 040 040 040
    003037  aa  040 040 040 040
    003040  aa  040 040 040 040
    003041  aa  040 040 040 040
                                  1255  	dev_info1	not_graphic,no_shift_needed,quit_editing_allowed,
                                  1256  		013,245,177,0,0,042
    003042  aa   100000 013245
    003043  aa   177000 000042
                                  1257  	dev_info2	0,118
    003044  aa   000000 000166
                                  1258  	delay	0,0,0,0,2,23,
                                  1259  		2000,0,0,0,3,35,
                                  1260  		6000,0,0,0,6,73,
                                  1261  		24000,0,0,0,24,300
    003045  aa   000000 000000
    003046  aa   000000 000000
    003047  aa   000002 000023
    003050  aa   002000 000000
    003051  aa   000000 000000
    003052  aa   000003 000035
    003053  aa   006000 000000
    003054  aa   000000 000000
    003055  aa   000006 000073
    003056  aa   024000 000000
    003057  aa   000000 000000
    003060  aa   000024 000300
    003061  aa   000000 000010    1262  	dec	8
                                  1263  	tab9	012,177,177,177,177,166,010,012	" LF PAD PAD PAD PAD OR-SIGN BS LF
    003062  aa   012177 177177
    003063  aa   177166 010012
                                  1264
    003064                        1265  apl_teletype:
                                  1266  	dev_info	convert_ascii,sequence_ascii,ascii_compression_in,ascii_compression_out
    003064  00   002306 002576
    003065  00   002705 002751
    003066  aa  124 105 114 105   1267  	aci	"TELETYPE",32
    003067  aa  124 131 120 105
    003070  aa  040 040 040 040
    003071  aa  040 040 040 040
    003072  aa  040 040 040 040
    003073  aa  040 040 040 040
    003074  aa  040 040 040 040
    003075  aa  040 040 040 040
                                  1268  	dev_info1	not_graphic,no_shift_needed,quit_editing_allowed,
                                  1269  		013,245,177,0,0,042
    003076  aa   100000 013245
    003077  aa   177000 000042
                                  1270  	dev_info2	0,90
    003100  aa   000000 000132
                                  1271  	delay	0,15,632,232,0,23,
                                  1272  		0,15,632,232,0,35,
                                  1273  		6000,0,0,0,0,73,
                                  1274  		0,0,0,0,0,146
    003101  aa   000000 000015
    003102  aa   000632 000232
    003103  aa   000000 000023
    003104  aa   000000 000015
    003105  aa   000632 000232
    003106  aa   000000 000035
    003107  aa   006000 000000
    003110  aa   000000 000000
    003111  aa   000000 000073
    003112  aa   000000 000000
    003113  aa   000000 000000
    003114  aa   000000 000146
    003115  aa   000000 000010    1275  	dec	8
                                  1276  	tab9	012,177,177,177,177,166,010,012	" LF PAD(4) OR-SIGN BS LF
    003116  aa   012177 177177
    003117  aa   177166 010012
                                  1277
    003120                        1278  apl_typepaired:
                                  1279  	dev_info	convert_4013,sequence_4013,compression_in,compression_out
    003120  00   001232 001522
    003121  00   000434 000512
    003122  aa  124 131 120 105   1280  	aci	"TYPEPAIRED",32
    003123  aa  120 101 111 122
    003124  aa  105 104 040 040
    003125  aa  040 040 040 040
    003126  aa  040 040 040 040
    003127  aa  040 040 040 040
    003130  aa  040 040 040 040
    003131  aa  040 040 040 040
                                  1281  	dev_info1	not_graphic,no_shift_needed,quit_editing_allowed,
                                  1282  		013,245,177,0,0,041
    003132  aa   100000 013245
    003133  aa   177000 000041
                                  1283  	dev_info2	0,79
    003134  aa   000000 000117
                                  1284  	delay	0,15,632,232,0,23,
                                  1285  		0,15,632,232,0,35,
                                  1286  		6000,0,0,0,0,73,
                                  1287  		0,0,0,0,0,146
    003135  aa   000000 000015
    003136  aa   000632 000232
    003137  aa   000000 000023
    003140  aa   000000 000015
    003141  aa   000632 000232
    003142  aa   000000 000035
    003143  aa   006000 000000
    003144  aa   000000 000000
    003145  aa   000000 000073
    003146  aa   000000 000000
    003147  aa   000000 000000
    003150  aa   000000 000146
    003151  aa   000000 000010    1288  	dec	8
                                  1289  	tab9	012,177,177,177,177,050,010,012	" LF PAD(4) OR-SIGN BS LF
    003152  aa   012177 177177
    003153  aa   177050 010012
                                  1290
    003154                        1291  apl_bitpaired:
                                  1292  	dev_info	convert_1030,sequence_1030,compression_in,compression_out
    003154  00   001660 002150
    003155  00   000434 000512
    003156  aa  102 111 124 120   1293  	aci	"BITPAIRED",32
    003157  aa  101 111 122 105
    003160  aa  104 040 040 040
    003161  aa  040 040 040 040
    003162  aa  040 040 040 040
    003163  aa  040 040 040 040
    003164  aa  040 040 040 040
    003165  aa  040 040 040 040
                                  1294  	dev_info1	not_graphic,no_shift_needed,quit_editing_allowed,
                                  1295  		013,245,177,0,0,041
    003166  aa   100000 013245
    003167  aa   177000 000041
                                  1296  	dev_info2	0,79
    003170  aa   000000 000117
                                  1297  	delay	0,15,632,232,0,23,
                                  1298  		0,15,632,232,0,35,
                                  1299  		6000,0,0,0,0,73,
                                  1300  		0,0,0,0,0,146
    003171  aa   000000 000015
    003172  aa   000632 000232
    003173  aa   000000 000023
    003174  aa   000000 000015
    003175  aa   000632 000232
    003176  aa   000000 000035
    003177  aa   006000 000000
    003200  aa   000000 000000
    003201  aa   000000 000073
    003202  aa   000000 000000
    003203  aa   000000 000000
    003204  aa   000000 000146
    003205  aa   000000 000010    1301  	dec	8
                                  1302  	tab9	012,177,177,177,177,051,010,012	"LF PAD(4) OR-SIGN BS LF
    003206  aa   012177 177177
    003207  aa   177051 010012
                                  1303
    003210                        1304  apl_aj510:
    003210                        1305  apl_teleray11:
                                  1306  	dev_info	convert_4013,sequence_4013,compression_in,compression_out
    003210  00   001232 001522
    003211  00   000434 000512
    003212  aa  124 105 114 105   1307  	aci	"TELERAY11",32
    003213  aa  122 101 131 061
    003214  aa  061 040 040 040
    003215  aa  040 040 040 040
    003216  aa  040 040 040 040
    003217  aa  040 040 040 040
    003220  aa  040 040 040 040
    003221  aa  040 040 040 040
                                  1308  	dev_info1	not_graphic,no_shift_needed,quit_editing_allowed,
                                  1309  		013,245,177,0,0,041
    003222  aa   100000 013245
    003223  aa   177000 000041
                                  1310  	dev_info2	24,79
    003224  aa   000030 000117
                                  1311  	delay	0,0,0,0,0,23,
                                  1312  		0,0,0,0,0,35,
                                  1313  		0,0,0,0,0,73,
                                  1314  		0,0,0,0,0,146
    003225  aa   000000 000000
    003226  aa   000000 000000
    003227  aa   000000 000023
    003230  aa   000000 000000
    003231  aa   000000 000000
    003232  aa   000000 000035
    003233  aa   000000 000000
    003234  aa   000000 000000
    003235  aa   000000 000073
    003236  aa   000000 000000
    003237  aa   000000 000000
    003240  aa   000000 000146
    003241  aa   000000 000004    1315  	dec	4
                                  1316  	tab9	012,050,010,012		" LF OR-SIGN BS LF
    003242  aa   012050 010012
                                  1317
    003243                        1318  apl_aj830:
    003243                        1319  apl_la36:
                                  1320  	dev_info	convert_4013,sequence_4013,compression_in,compression_out
    003243  00   001232 001522
    003244  00   000434 000512
    003245  aa  114 101 063 066   1321  	aci	"LA36",32
    003246  aa  040 040 040 040
    003247  aa  040 040 040 040
    003250  aa  040 040 040 040
    003251  aa  040 040 040 040
    003252  aa  040 040 040 040
    003253  aa  040 040 040 040
    003254  aa  040 040 040 040
                                  1322  	dev_info1	not_graphic,no_shift_needed,quit_editing_allowed,
                                  1323  		013,245,177,0,0,041
    003255  aa   100000 013245
    003256  aa   177000 000041
                                  1324  	dev_info2	0,79
    003257  aa   000000 000117
                                  1325  	delay	0,15,632,232,0,23,
                                  1326  		0,15,632,232,0,35,
                                  1327  		6000,0,0,0,0,73,
                                  1328  		6000,0,0,0,0,146
    003260  aa   000000 000015
    003261  aa   000632 000232
    003262  aa   000000 000023
    003263  aa   000000 000015
    003264  aa   000632 000232
    003265  aa   000000 000035
    003266  aa   006000 000000
    003267  aa   000000 000000
    003270  aa   000000 000073
    003271  aa   006000 000000
    003272  aa   000000 000000
    003273  aa   000000 000146
    003274  aa   000000 000010    1329  	dec	8
                                  1330  	tab9	012,177,177,177,177,050,010,012	" LF (4) PAD OR-SIGN BS LF
    003275  aa   012177 177177
    003276  aa   177050 010012
                                  1331
    003277                        1332  apl_sara:
                                  1333  	dev_info	convert_ascii,sequence_ascii,ascii_compression_in,ascii_compression_out
    003277  00   002306 002576
    003300  00   002705 002751
    003301  aa  123 101 122 101   1334  	aci	"SARA",32
    003302  aa  040 040 040 040
    003303  aa  040 040 040 040
    003304  aa  040 040 040 040
    003305  aa  040 040 040 040
    003306  aa  040 040 040 040
    003307  aa  040 040 040 040
    003310  aa  040 040 040 040
                                  1335  	dev_info1	not_graphic,no_shift_needed,quit_editing_allowed,
                                  1336  		013,245,177,0,0,042
    003311  aa   100000 013245
    003312  aa   177000 000042
                                  1337  	dev_info2	0,132
    003313  aa   000000 000204
                                  1338  	delay	0,15,632,232,0,23,
                                  1339  		0,15,632,232,0,35,
                                  1340  		6000,0,0,0,0,73,
                                  1341  		12000,330,0,0,0,100
    003314  aa   000000 000015
    003315  aa   000632 000232
    003316  aa   000000 000023
    003317  aa   000000 000015
    003320  aa   000632 000232
    003321  aa   000000 000035
    003322  aa   006000 000000
    003323  aa   000000 000000
    003324  aa   000000 000073
    003325  aa   012000 000330
    003326  aa   000000 000000
    003327  aa   000000 000100
    003330  aa   000000 000010    1342  	dec	8
                                  1343  	tab9	012,177,177,177,177,166,010,012	" LF (4) PAD OR-SIGN BS LF
    003331  aa   012177 177177
    003332  aa   177166 010012
                                  1344
                                  1345  	end

NO LITERALS

NAME DEFINITIONS FOR ENTRY POINTS AND SEGDEFS

    003334  5a   000003 000000
    003335  5a   000164 600000
    003336  aa   000000 000000
    003337  55   000012 000002
    003340  5a   000002 400003
    003341  55   000006 000012
    003342  aa  017 141 160 154
    003343  aa  137 144 151 155
    003344  aa  137 164 141 142
    003345  aa  154 145 163 137
    003346  55   000021 000003
    003347  0a   003120 400000
    003350  55   000015 000003
    003351  aa  016 141 160 154         apl_typepaired
    003352  aa  137 164 171 160
    003353  aa  145 160 141 151
    003354  aa  162 145 144 000
    003355  55   000027 000012
    003356  0a   003030 400000
    003357  55   000024 000003
    003360  aa  011 141 160 154         apl_tn300
    003361  aa  137 164 156 063
    003362  aa  060 060 000 000
    003363  55   000036 000021
    003364  0a   003064 400000
    003365  55   000032 000003
    003366  aa  014 141 160 154         apl_teletype
    003367  aa  137 164 145 154
    003370  aa  145 164 171 160
    003371  aa  145 000 000 000
    003372  55   000045 000027
    003373  0a   003210 400000
    003374  55   000041 000003
    003375  aa  015 141 160 154         apl_teleray11
    003376  aa  137 164 145 154
    003377  aa  145 162 141 171
    003400  aa  061 061 000 000
    003401  55   000053 000036
    003402  0a   003277 400000
    003403  55   000050 000003
    003404  aa  010 141 160 154         apl_sara
    003405  aa  137 163 141 162
    003406  aa  141 000 000 000
    003407  55   000061 000045
    003410  0a   003243 400000
    003411  55   000056 000003
    003412  aa  010 141 160 154         apl_la36
    003413  aa  137 154 141 063
    003414  aa  066 000 000 000
    003415  55   000072 000053
    003416  0a   000542 400000
    003417  55   000064 000003
    003420  aa  027 141 160 154         apl_correspondence_2741
    003421  aa  137 143 157 162
    003422  aa  162 145 163 160
    003423  aa  157 156 144 145
    003424  aa  156 143 145 137
    003425  aa  062 067 064 061
    003426  55   000101 000061
    003427  0a   003154 400000
    003430  55   000075 000003
    003431  aa  015 141 160 154         apl_bitpaired
    003432  aa  137 142 151 164
    003433  aa  160 141 151 162
    003434  aa  145 144 000 000
    003435  55   000111 000072
    003436  0a   002774 400000
    003437  55   000104 000003
    003440  aa  021 141 160 154         apl_ascii_display
    003441  aa  137 141 163 143
    003442  aa  151 151 137 144
    003443  aa  151 163 160 154
    003444  aa  141 171 000 000
    003445  55   000117 000101
    003446  0a   002252 400000
    003447  55   000114 000003
    003450  aa  011 141 160 154         apl_ascii
    003451  aa  137 141 163 143
    003452  aa  151 151 000 000
    003453  55   000125 000111
    003454  0a   003243 400000
    003455  55   000122 000003
    003456  aa  011 141 160 154         apl_aj830
    003457  aa  137 141 152 070
    003460  aa  063 060 000 000
    003461  55   000133 000117
    003462  0a   003210 400000
    003463  55   000130 000003
    003464  aa  011 141 160 154         apl_aj510
    003465  aa  137 141 152 065
    003466  aa  061 060 000 000
    003467  55   000141 000125
    003470  0a   001176 400000
    003471  55   000136 000003
    003472  aa  010 141 160 154         apl_4013
    003473  aa  137 064 060 061
    003474  aa  063 000 000 000
    003475  55   000147 000133
    003476  0a   000000 400000
    003477  55   000144 000003
    003500  aa  010 141 160 154         apl_2741
    003501  aa  137 062 067 064
    003502  aa  061 000 000 000
    003503  55   000155 000141
    003504  0a   001624 400000
    003505  55   000152 000003
    003506  aa  010 141 160 154         apl_1030
    003507  aa  137 061 060 063
    003510  aa  060 000 000 000
    003511  55   000002 000147
    003512  6a   000000 400002
    003513  55   000160 000003
    003514  aa  014 163 171 155         symbol_table
    003515  aa  142 157 154 137
    003516  aa  164 141 142 154
    003517  aa  145 000 000 000

DEFINITIONS HASH TABLE

    003520  aa   000000 000033
    003521  5a   000027 000000
    003522  5a   000072 000000
    003523  aa   000000 000000
    003524  5a   000021 000000
    003525  5a   000045 000000
    003526  5a   000053 000000
    003527  5a   000111 000000
    003530  5a   000117 000000
    003531  5a   000125 000000
    003532  5a   000133 000000
    003533  5a   000141 000000
    003534  5a   000147 000000
    003535  5a   000155 000000
    003536  aa   000000 000000
    003537  aa   000000 000000
    003540  aa   000000 000000
    003541  5a   000061 000000
    003542  aa   000000 000000
    003543  aa   000000 000000
    003544  aa   000000 000000
    003545  aa   000000 000000
    003546  aa   000000 000000
    003547  5a   000101 000000
    003550  aa   000000 000000
    003551  aa   000000 000000
    003552  5a   000012 000000
    003553  5a   000036 000000

NO EXTERNAL NAMES

NO TRAP POINTER WORDS

TYPE PAIR BLOCKS

    003554  aa   000001 000000
    003555  aa   000000 000000

INTERNAL EXPRESSION WORDS

LINKAGE INFORMATION

    000000  aa   000000 000000
    000001  0a   003334 000000
    000002  aa   000000 000000
    000003  aa   000000 000000
    000004  aa   000000 000000
    000005  aa   000000 000000
    000006  22   000010 000010
    000007  a2   000000 000000
SYMBOL INFORMATION

SYMBOL TABLE HEADER

    000000  aa   000000 000001
    000001  aa   163171 155142
    000002  aa   164162 145145
    000003  aa   000000 000004
    000004  aa   000000 112143
    000005  aa   305203 523135
    000006  aa   000000 112272
    000007  aa   253640 542610
    000010  aa   141154 155040
    000011  aa   040040 040040
    000012  aa   000024 000040
    000013  aa   000034 000040
    000014  aa   000044 000100
    000015  aa   000002 000002
    000016  aa   000064 000000
    000017  aa   000000 000270
    000020  aa   000000 000105
    000021  aa   000000 000257
    000022  aa   000262 000105
    000023  aa   000064 000000
    000024  aa   101114 115040
    000025  aa   126145 162163
    000026  aa   151157 156040
    000027  aa   040066 056066
    000030  aa   040040 116157
    000031  aa   166145 155142
    000032  aa   145162 040061
    000033  aa   071070 062040
    000034  aa   115141 162164
    000035  aa   151156 163157
    000036  aa   156056 123171
    000037  aa   163115 141151
    000040  aa   156164 056155
    000041  aa   040040 040040
    000042  aa   040040 040040
    000043  aa   040040 040040
    000044  aa   154151 163164
    000045  aa   040040 040040
    000046  aa   040040 040040
    000047  aa   040040 040040
    000050  aa   040040 040040
    000051  aa   040040 040040
    000052  aa   040040 040040
    000053  aa   040040 040040
    000054  aa   040040 040040
    000055  aa   040040 040040
    000056  aa   040040 040040
    000057  aa   040040 040040
    000060  aa   040040 040040
    000061  aa   040040 040040
    000062  aa   040040 040040
    000063  aa   040040 040040
    000064  aa   000000 000001
    000065  aa   000000 000001
    000066  aa   000072 000054
    000067  aa   122721 262506
    000070  aa   000000 112272
    000071  aa   151745 600000
    000072  aa   076163 160145          >special_ldd>on>apl.1129>apl_dim_tables_.alm
    000073  aa   143151 141154
    000074  aa   137154 144144
    000075  aa   076157 156076
    000076  aa   141160 154056
    000077  aa   061061 062071
    000100  aa   076141 160154
    000101  aa   137144 151155
    000102  aa   137164 141142
    000103  aa   154145 163137
    000104  aa   056141 154155
               MULTICS ASSEMBLY CROSS REFERENCE LISTING

   Value        Symbol                   Source file   Line number

        1624    apl_1030                 apl_dim_tables_:     75,  791.
           0    apl_2741                 apl_dim_tables_:     76,  100.
        1176    apl_4013                 apl_dim_tables_:     77,  600.
        3210    apl_aj510                apl_dim_tables_:     78, 1304.
        3243    apl_aj830                apl_dim_tables_:     79, 1318.
        2252    apl_ascii                apl_dim_tables_:     80,  982.
        2774    apl_ascii_display        apl_dim_tables_:     81, 1239.
        3154    apl_bitpaired            apl_dim_tables_:     82, 1291.
         542    apl_correspondence_2741  apl_dim_tables_:     83,  402.
        3243    apl_la36                 apl_dim_tables_:     84, 1319.
        3277    apl_sara                 apl_dim_tables_:     85, 1332.
        3210    apl_teleray11            apl_dim_tables_:     86, 1305.
        3064    apl_teletype             apl_dim_tables_:     87, 1265.
        3030    apl_tn300                apl_dim_tables_:     88, 1252.
        3120    apl_typepaired           apl_dim_tables_:     89, 1278.
        2705    ascii_compression_in     apl_dim_tables_:    983, 1180, 1240, 1253, 1266, 1333.
        2751    ascii_compression_out    apl_dim_tables_:    983, 1218, 1240, 1253, 1266, 1333.
         434    compression_in           apl_dim_tables_:    101,  317,  403,  601,  793, 1279, 1292, 1306, 1320.
         512    compression_out          apl_dim_tables_:    101,  371,  403,  601,  793, 1279, 1292, 1306, 1320.
        1660    convert_1030             apl_dim_tables_:    793,  809, 1292.
          34    convert_2741             apl_dim_tables_:    101,  122.
        1232    convert_4013             apl_dim_tables_:    601,  617, 1279, 1306, 1320.
        2306    convert_ascii            apl_dim_tables_:    983,  999, 1240, 1253, 1266, 1333.
         576    cor_2741                 apl_dim_tables_:    403,  417.
           1    graphic                  apl_dim_tables_:     91,  604, 1243.
           0    not_graphic              apl_dim_tables_:     92,  104,  406,  796,  986, 1256, 1269, 1282, 1295, 1309, 1323, 1336.
           0    no_shift_needed          apl_dim_tables_:     94,  604,  796,  986, 1243, 1256, 1269, 1282, 1295, 1309, 1323, 1336.
           1    quit_editing_allowed     apl_dim_tables_:     95,  104,  406,  604,  796,  986, 1256, 1269, 1282, 1295, 1309,
                                                            1323, 1336.
           0    quit_editing_not_allowed       apl_dim_tables_:     96, 1243.
        2150    sequence_1030            apl_dim_tables_:    793,  915, 1292.
         330    sequence_2741            apl_dim_tables_:    101,  247.
        1522    sequence_4013            apl_dim_tables_:    601,  723, 1279, 1306, 1320.
        2576    sequence_ascii           apl_dim_tables_:    983, 1105, 1240, 1253, 1266, 1333.
        1072    seq_cor_2741             apl_dim_tables_:    403,  525.
           1    shift_needed             apl_dim_tables_:     93,  104,  406.


NO FATAL ERRORS


                                          -----------------------------------------------------------


Historical Background

This edition of the Multics software materials and documentation is provided and donated
to Massachusetts Institute of Technology by Group BULL including BULL HN Information Systems Inc.
as a contribution to computer science knowledge.
This donation is made also to give evidence of the common contributions of Massachusetts Institute of Technology,
Bell Laboratories, General Electric, Honeywell Information Systems Inc., Honeywell BULL Inc., Groupe BULL
and BULL HN Information Systems Inc. to the development of this operating system.
Multics development was initiated by Massachusetts Institute of Technology Project MAC (1963-1970),
renamed the MIT Laboratory for Computer Science and Artificial Intelligence in the mid 1970s, under the leadership
of Professor Fernando Jose Corbato. Users consider that Multics provided the best software architecture
for managing computer hardware properly and for executing programs. Many subsequent operating systems
incorporated Multics principles.
Multics was distributed in 1975 to 2000 by Group Bull in Europe , and in the U.S. by Bull HN Information Systems Inc.,
as successor in interest by change in name only to Honeywell Bull Inc. and Honeywell Information Systems Inc. .

                                          -----------------------------------------------------------

Permission to use, copy, modify, and distribute these programs and their documentation for any purpose and without
fee is hereby granted,provided that the below copyright notice and historical background appear in all copies
and that both the copyright notice and historical background and this permission notice appear in supporting
documentation, and that the names of MIT, HIS, BULL or BULL HN not be used in advertising or publicity pertaining
to distribution of the programs without specific prior written permission.
    Copyright 1972 by Massachusetts Institute of Technology and Honeywell Information Systems Inc.
    Copyright 2006 by BULL HN Information Systems Inc.
    Copyright 2006 by Bull SAS
    All Rights Reserved
