ASSEMBLY LISTING OF SEGMENT >spec>on>11/11/82>cobol_ext_.alm
ASSEMBLED ON:	11/11/82  1042.9 mst Thu
OPTIONS USED:	list
ASSEMBLED BY:	ALM Version  6.4  April 1981
ASSEMBLER CREATED:	11/03/82  1423.6 mst Wed

                                     1  " ***********************************************************
                                     2  " *                                                         *
                                     3  " * Copyright, (C) Honeywell Information Systems Inc., 1982 *
                                     4  " *                                                         *
                                     5  " * Copyright (c) 1972 by Massachusetts Institute of        *
                                     6  " * Technology and Honeywell Information Systems, Inc.      *
                                     7  " *                                                         *
                                     8  " ***********************************************************
                                     9
                                    10  "	cobol_ext_
                                    11  "	External data for cobol compiler
                                    12  "	bindable as static internal
                                    13
    000000                          14  	name	cobol_ext_
                                    15  	use	textc
                                    16  	use	linkc
                                    17  	join	/link/linkc
                                    18  	join	/text/textc
                                    19  	use	linkc
                                    20  	even
                                    21  "	DECLARATIONS...
                        000010      22  	segdef	cobol_afp
    000010                          23  	bss	cobol_afp,2
                        000012      24  	segdef	cobol_analin_fileno
    000012                          25  	bss	cobol_analin_fileno,2
                        000014      26            segdef    report_first_token
    000014                          27            bss       report_first_token,2
                        000016      28            segdef    report_last_token
    000016                          29            bss       report_last_token,2
                        000020      30  	segdef	cobol_eltp
    000020                          31  	bss	cobol_eltp,2
                        000022      32  	segdef	cobol_cmfp
    000022                          33  	bss	cobol_cmfp,2
                        000024      34  	segdef	cobol_com_fileno
    000024                          35  	bss	cobol_com_fileno,2
                        000026      36  	segdef	cobol_com_ptr
    000026                          37  	bss	cobol_com_ptr,2
                        000030      38  	segdef	cobol_dfp
    000030                          39  	bss	cobol_dfp,2
                        000032      40  	segdef	cobol_hfp
    000032                          41  	bss	cobol_hfp,2
                        000034      42  	segdef	cobol_m1fp
    000034                          43  	bss	cobol_m1fp,2
                        000036      44  	segdef	cobol_m2fp
    000036                          45  	bss	cobol_m2fp,2
                        000040      46  	segdef	cobol_min1_fileno
    000040                          47  	bss	cobol_min1_fileno,2
                        000042      48  	segdef	cobol_min2_fileno_ptr
    000042                          49  	bss	cobol_min2_fileno_ptr,2
                        000044      50  	segdef	cobol_name_fileno
    000044                          51  	bss	cobol_name_fileno,2
                        000046      52  	segdef	cobol_name_fileno_ptr
    000046                          53  	bss	cobol_name_fileno_ptr,2
                        000050      54  	segdef	cobol_ntfp
    000050                          55  	bss	cobol_ntfp,2
                        000052      56  	segdef	cobol_pdofp
    000052                          57  	bss	cobol_pdofp,2
                        000054      58  	segdef	cobol_pfp
    000054                          59  	bss	cobol_pfp,2
                        000056      60  	segdef	cobol_rm2fp
    000056                          61  	bss	cobol_rm2fp,2
                        000060      62  	segdef	cobol_rmin2fp
    000060                          63  	bss	cobol_rmin2fp,2
                        000062      64  	segdef	cobol_curr_in
    000062                          65  	bss	cobol_curr_in,2
                        000064      66  	segdef	cobol_curr_out
    000064                          67  	bss	cobol_curr_out,2
                        000066      68  	segdef	cobol_sfp
    000066                          69  	bss	cobol_sfp,2
                        000070      70  	segdef	cobol_w1p
    000070                          71  	bss	cobol_w1p,2
                        000072      72  	segdef	cobol_w2p
    000072                          73  	bss	cobol_w2p,2
                        000074      74  	segdef	cobol_w3p
    000074                          75  	bss	cobol_w3p,2
                        000076      76  	segdef	cobol_w5p
    000076                          77  	bss	cobol_w5p,2
                        000100      78  	segdef	cobol_w6p
    000100                          79  	bss	cobol_w6p,2
                        000102      80  	segdef	cobol_w7p
    000102                          81  	bss	cobol_w7p,2
                        000104      82  	segdef	cobol_x3fp
    000104                          83  	bss	cobol_x3fp,2
                        000106      84  	segdef	cobol_rwdd
    000106                          85  	bss	cobol_rwdd,2
                        000110      86  	segdef	cobol_rwpd
    000110                          87  	bss	cobol_rwpd,2
                        000112      88  	segdef	cobol_fileno1
    000112                          89  	bss	cobol_fileno1,1
                        000113      90  	segdef	cobol_options_len
    000113                          91  	bss	cobol_options_len,1
                        000114      92  	segdef	cobol_pdout_fileno
    000114                          93  	bss	cobol_pdout_fileno,1
                        000115      94  	segdef	cobol_print_fileno
    000115                          95  	bss	cobol_print_fileno,1
                        000116      96  	segdef	cobol_rmin2_fileno
    000116                          97  	bss	cobol_rmin2_fileno,1
                        000117      98  	segdef	cobol_x1_fileno
    000117                          99  	bss	cobol_x1_fileno,1
                        000120     100  	segdef	cobol_x2_fileno
    000120                         101  	bss	cobol_x2_fileno,1
                        000121     102  	segdef	cobol_x3_fileno
    000121                         103  	bss	cobol_x3_fileno,1
                        000122     104  	segdef	cobol_lpr
    000122                         105  	bss	cobol_lpr,2
                        000124     106  	segdef	cobol_options
    000124                         107  	bss	cobol_options,30
                        000162     108  	segdef	cobol_xlast8
    000162                         109  	bss	cobol_xlast8,1
                        000163     110            segdef    report_exists
    000163                         111            bss       report_exists,1
                        000164     112  	segdef	marg_a_word
    000164                         113  	bss	marg_a_word,1
                        000165     114  	segdef	rs_exists
    000165                         115  	bss	rs_exists,1
                                   116
                                   117  	end

NO LITERALS

NAME DEFINITIONS FOR ENTRY POINTS AND SEGDEFS

    000000  5a   000003 000000
    000001  5a   000517 600000
    000002  aa   000000 000000
    000003  55   000011 000002
    000004  5a   000002 400003
    000005  55   000006 000011
    000006  aa  012 143 157 142
    000007  aa  157 154 137 145
    000010  aa  170 164 137 000
    000011  55   000017 000003
    000012  2a   000165 400001
    000013  55   000014 000003
    000014  aa  011 162 163 137         rs_exists
    000015  aa  145 170 151 163
    000016  aa  164 163 000 000
    000017  55   000025 000011
    000020  2a   000164 400001
    000021  55   000022 000003
    000022  aa  013 155 141 162         marg_a_word
    000023  aa  147 137 141 137
    000024  aa  167 157 162 144
    000025  55   000034 000017
    000026  2a   000163 400001
    000027  55   000030 000003
    000030  aa  015 162 145 160         report_exists
    000031  aa  157 162 164 137
    000032  aa  145 170 151 163
    000033  aa  164 163 000 000
    000034  55   000043 000025
    000035  2a   000162 400001
    000036  55   000037 000003
    000037  aa  014 143 157 142         cobol_xlast8
    000040  aa  157 154 137 170
    000041  aa  154 141 163 164
    000042  aa  070 000 000 000
    000043  55   000052 000034
    000044  2a   000124 400001
    000045  55   000046 000003
    000046  aa  015 143 157 142         cobol_options
    000047  aa  157 154 137 157
    000050  aa  160 164 151 157
    000051  aa  156 163 000 000
    000052  55   000060 000043
    000053  2a   000122 400001
    000054  55   000055 000003
    000055  aa  011 143 157 142         cobol_lpr
    000056  aa  157 154 137 154
    000057  aa  160 162 000 000
    000060  55   000067 000052
    000061  2a   000121 400001
    000062  55   000063 000003
    000063  aa  017 143 157 142         cobol_x3_fileno
    000064  aa  157 154 137 170
    000065  aa  063 137 146 151
    000066  aa  154 145 156 157
    000067  55   000076 000060
    000070  2a   000120 400001
    000071  55   000072 000003
    000072  aa  017 143 157 142         cobol_x2_fileno
    000073  aa  157 154 137 170
    000074  aa  062 137 146 151
    000075  aa  154 145 156 157
    000076  55   000105 000067
    000077  2a   000117 400001
    000100  55   000101 000003
    000101  aa  017 143 157 142         cobol_x1_fileno
    000102  aa  157 154 137 170
    000103  aa  061 137 146 151
    000104  aa  154 145 156 157
    000105  55   000115 000076
    000106  2a   000116 400001
    000107  55   000110 000003
    000110  aa  022 143 157 142         cobol_rmin2_fileno
    000111  aa  157 154 137 162
    000112  aa  155 151 156 062
    000113  aa  137 146 151 154
    000114  aa  145 156 157 000
    000115  55   000125 000105
    000116  2a   000115 400001
    000117  55   000120 000003
    000120  aa  022 143 157 142         cobol_print_fileno
    000121  aa  157 154 137 160
    000122  aa  162 151 156 164
    000123  aa  137 146 151 154
    000124  aa  145 156 157 000
    000125  55   000135 000115
    000126  2a   000114 400001
    000127  55   000130 000003
    000130  aa  022 143 157 142         cobol_pdout_fileno
    000131  aa  157 154 137 160
    000132  aa  144 157 165 164
    000133  aa  137 146 151 154
    000134  aa  145 156 157 000
    000135  55   000145 000125
    000136  2a   000113 400001
    000137  55   000140 000003
    000140  aa  021 143 157 142         cobol_options_len
    000141  aa  157 154 137 157
    000142  aa  160 164 151 157
    000143  aa  156 163 137 154
    000144  aa  145 156 000 000
    000145  55   000154 000135
    000146  2a   000112 400001
    000147  55   000150 000003
    000150  aa  015 143 157 142         cobol_fileno1
    000151  aa  157 154 137 146
    000152  aa  151 154 145 156
    000153  aa  157 061 000 000
    000154  55   000162 000145
    000155  2a   000110 400001
    000156  55   000157 000003
    000157  aa  012 143 157 142         cobol_rwpd
    000160  aa  157 154 137 162
    000161  aa  167 160 144 000
    000162  55   000170 000154
    000163  2a   000106 400001
    000164  55   000165 000003
    000165  aa  012 143 157 142         cobol_rwdd
    000166  aa  157 154 137 162
    000167  aa  167 144 144 000
    000170  55   000176 000162
    000171  2a   000104 400001
    000172  55   000173 000003
    000173  aa  012 143 157 142         cobol_x3fp
    000174  aa  157 154 137 170
    000175  aa  063 146 160 000
    000176  55   000204 000170
    000177  2a   000102 400001
    000200  55   000201 000003
    000201  aa  011 143 157 142         cobol_w7p
    000202  aa  157 154 137 167
    000203  aa  067 160 000 000
    000204  55   000212 000176
    000205  2a   000100 400001
    000206  55   000207 000003
    000207  aa  011 143 157 142         cobol_w6p
    000210  aa  157 154 137 167
    000211  aa  066 160 000 000
    000212  55   000220 000204
    000213  2a   000076 400001
    000214  55   000215 000003
    000215  aa  011 143 157 142         cobol_w5p
    000216  aa  157 154 137 167
    000217  aa  065 160 000 000
    000220  55   000226 000212
    000221  2a   000074 400001
    000222  55   000223 000003
    000223  aa  011 143 157 142         cobol_w3p
    000224  aa  157 154 137 167
    000225  aa  063 160 000 000
    000226  55   000234 000220
    000227  2a   000072 400001
    000230  55   000231 000003
    000231  aa  011 143 157 142         cobol_w2p
    000232  aa  157 154 137 167
    000233  aa  062 160 000 000
    000234  55   000242 000226
    000235  2a   000070 400001
    000236  55   000237 000003
    000237  aa  011 143 157 142         cobol_w1p
    000240  aa  157 154 137 167
    000241  aa  061 160 000 000
    000242  55   000250 000234
    000243  2a   000066 400001
    000244  55   000245 000003
    000245  aa  011 143 157 142         cobol_sfp
    000246  aa  157 154 137 163
    000247  aa  146 160 000 000
    000250  55   000257 000242
    000251  2a   000064 400001
    000252  55   000253 000003
    000253  aa  016 143 157 142         cobol_curr_out
    000254  aa  157 154 137 143
    000255  aa  165 162 162 137
    000256  aa  157 165 164 000
    000257  55   000266 000250
    000260  2a   000062 400001
    000261  55   000262 000003
    000262  aa  015 143 157 142         cobol_curr_in
    000263  aa  157 154 137 143
    000264  aa  165 162 162 137
    000265  aa  151 156 000 000
    000266  55   000275 000257
    000267  2a   000060 400001
    000270  55   000271 000003
    000271  aa  015 143 157 142         cobol_rmin2fp
    000272  aa  157 154 137 162
    000273  aa  155 151 156 062
    000274  aa  146 160 000 000
    000275  55   000303 000266
    000276  2a   000056 400001
    000277  55   000300 000003
    000300  aa  013 143 157 142         cobol_rm2fp
    000301  aa  157 154 137 162
    000302  aa  155 062 146 160
    000303  55   000311 000275
    000304  2a   000054 400001
    000305  55   000306 000003
    000306  aa  011 143 157 142         cobol_pfp
    000307  aa  157 154 137 160
    000310  aa  146 160 000 000
    000311  55   000317 000303
    000312  2a   000052 400001
    000313  55   000314 000003
    000314  aa  013 143 157 142         cobol_pdofp
    000315  aa  157 154 137 160
    000316  aa  144 157 146 160
    000317  55   000325 000311
    000320  2a   000050 400001
    000321  55   000322 000003
    000322  aa  012 143 157 142         cobol_ntfp
    000323  aa  157 154 137 156
    000324  aa  164 146 160 000
    000325  55   000336 000317
    000326  2a   000046 400001
    000327  55   000330 000003
    000330  aa  025 143 157 142         cobol_name_fileno_ptr
    000331  aa  157 154 137 156
    000332  aa  141 155 145 137
    000333  aa  146 151 154 145
    000334  aa  156 157 137 160
    000335  aa  164 162 000 000
    000336  55   000346 000325
    000337  2a   000044 400001
    000340  55   000341 000003
    000341  aa  021 143 157 142         cobol_name_fileno
    000342  aa  157 154 137 156
    000343  aa  141 155 145 137
    000344  aa  146 151 154 145
    000345  aa  156 157 000 000
    000346  55   000357 000336
    000347  2a   000042 400001
    000350  55   000351 000003
    000351  aa  025 143 157 142         cobol_min2_fileno_ptr
    000352  aa  157 154 137 155
    000353  aa  151 156 062 137
    000354  aa  146 151 154 145
    000355  aa  156 157 137 160
    000356  aa  164 162 000 000
    000357  55   000367 000346
    000360  2a   000040 400001
    000361  55   000362 000003
    000362  aa  021 143 157 142         cobol_min1_fileno
    000363  aa  157 154 137 155
    000364  aa  151 156 061 137
    000365  aa  146 151 154 145
    000366  aa  156 157 000 000
    000367  55   000375 000357
    000370  2a   000036 400001
    000371  55   000372 000003
    000372  aa  012 143 157 142         cobol_m2fp
    000373  aa  157 154 137 155
    000374  aa  062 146 160 000
    000375  55   000403 000367
    000376  2a   000034 400001
    000377  55   000400 000003
    000400  aa  012 143 157 142         cobol_m1fp
    000401  aa  157 154 137 155
    000402  aa  061 146 160 000
    000403  55   000411 000375
    000404  2a   000032 400001
    000405  55   000406 000003
    000406  aa  011 143 157 142         cobol_hfp
    000407  aa  157 154 137 150
    000410  aa  146 160 000 000
    000411  55   000417 000403
    000412  2a   000030 400001
    000413  55   000414 000003
    000414  aa  011 143 157 142         cobol_dfp
    000415  aa  157 154 137 144
    000416  aa  146 160 000 000
    000417  55   000426 000411
    000420  2a   000026 400001
    000421  55   000422 000003
    000422  aa  015 143 157 142         cobol_com_ptr
    000423  aa  157 154 137 143
    000424  aa  157 155 137 160
    000425  aa  164 162 000 000
    000426  55   000436 000417
    000427  2a   000024 400001
    000430  55   000431 000003
    000431  aa  020 143 157 142         cobol_com_fileno
    000432  aa  157 154 137 143
    000433  aa  157 155 137 146
    000434  aa  151 154 145 156
    000435  aa  157 000 000 000
    000436  55   000444 000426
    000437  2a   000022 400001
    000440  55   000441 000003
    000441  aa  012 143 157 142         cobol_cmfp
    000442  aa  157 154 137 143
    000443  aa  155 146 160 000
    000444  55   000452 000436
    000445  2a   000020 400001
    000446  55   000447 000003
    000447  aa  012 143 157 142         cobol_eltp
    000450  aa  157 154 137 145
    000451  aa  154 164 160 000
    000452  55   000462 000444
    000453  2a   000016 400001
    000454  55   000455 000003
    000455  aa  021 162 145 160         report_last_token
    000456  aa  157 162 164 137
    000457  aa  154 141 163 164
    000460  aa  137 164 157 153
    000461  aa  145 156 000 000
    000462  55   000472 000452
    000463  2a   000014 400001
    000464  55   000465 000003
    000465  aa  022 162 145 160         report_first_token
    000466  aa  157 162 164 137
    000467  aa  146 151 162 163
    000470  aa  164 137 164 157
    000471  aa  153 145 156 000
    000472  55   000502 000462
    000473  2a   000012 400001
    000474  55   000475 000003
    000475  aa  023 143 157 142         cobol_analin_fileno
    000476  aa  157 154 137 141
    000477  aa  156 141 154 151
    000500  aa  156 137 146 151
    000501  aa  154 145 156 157
    000502  55   000510 000472
    000503  2a   000010 400001
    000504  55   000505 000003
    000505  aa  011 143 157 142         cobol_afp
    000506  aa  157 154 137 141
    000507  aa  146 160 000 000
    000510  55   000002 000502
    000511  6a   000000 400002
    000512  55   000513 000003
    000513  aa  014 163 171 155         symbol_table
    000514  aa  142 157 154 137
    000515  aa  164 141 142 154
    000516  aa  145 000 000 000

DEFINITIONS HASH TABLE

    000517  aa   000000 000131
    000520  5a   000275 000000
    000521  5a   000311 000000
    000522  5a   000017 000000
    000523  5a   000510 000000
    000524  aa   000000 000000
    000525  aa   000000 000000
    000526  aa   000000 000000
    000527  5a   000250 000000
    000530  aa   000000 000000
    000531  aa   000000 000000
    000532  aa   000000 000000
    000533  aa   000000 000000
    000534  aa   000000 000000
    000535  aa   000000 000000
    000536  5a   000135 000000
    000537  5a   000336 000000
    000540  5a   000357 000000
    000541  aa   000000 000000
    000542  aa   000000 000000
    000543  aa   000000 000000
    000544  aa   000000 000000
    000545  aa   000000 000000
    000546  aa   000000 000000
    000547  aa   000000 000000
    000550  aa   000000 000000
    000551  5a   000052 000000
    000552  5a   000176 000000
    000553  5a   000204 000000
    000554  5a   000212 000000
    000555  5a   000220 000000
    000556  5a   000226 000000
    000557  5a   000234 000000
    000560  5a   000034 000000
    000561  5a   000242 000000
    000562  5a   000303 000000
    000563  5a   000403 000000
    000564  5a   000411 000000
    000565  5a   000452 000000
    000566  5a   000502 000000
    000567  5a   000060 000000
    000570  5a   000067 000000
    000571  5a   000076 000000
    000572  aa   000000 000000
    000573  aa   000000 000000
    000574  aa   000000 000000
    000575  aa   000000 000000
    000576  5a   000105 000000
    000577  5a   000115 000000
    000600  5a   000125 000000
    000601  aa   000000 000000
    000602  aa   000000 000000
    000603  aa   000000 000000
    000604  aa   000000 000000
    000605  5a   000325 000000
    000606  5a   000346 000000
    000607  aa   000000 000000
    000610  aa   000000 000000
    000611  5a   000154 000000
    000612  5a   000162 000000
    000613  5a   000170 000000
    000614  5a   000317 000000
    000615  5a   000367 000000
    000616  5a   000375 000000
    000617  5a   000436 000000
    000620  5a   000043 000000
    000621  5a   000145 000000
    000622  5a   000257 000000
    000623  5a   000266 000000
    000624  5a   000417 000000
    000625  5a   000444 000000
    000626  5a   000462 000000
    000627  5a   000426 000000
    000630  aa   000000 000000
    000631  aa   000000 000000
    000632  5a   000011 000000
    000633  aa   000000 000000
    000634  aa   000000 000000
    000635  aa   000000 000000
    000636  5a   000472 000000
    000637  aa   000000 000000
    000640  aa   000000 000000
    000641  aa   000000 000000
    000642  5a   000025 000000
    000643  aa   000000 000000
    000644  aa   000000 000000
    000645  aa   000000 000000
    000646  aa   000000 000000
    000647  aa   000000 000000
    000650  aa   000000 000000

NO EXTERNAL NAMES

NO TRAP POINTER WORDS

TYPE PAIR BLOCKS

    000651  aa   000001 000000
    000652  aa   000000 000000

INTERNAL EXPRESSION WORDS

    000653  aa   000000 000000
LINKAGE INFORMATION

    000000  aa   000000 000000
    000001  0a   000000 000000
    000002  aa   000000 000000
    000003  aa   000000 000000
    000004  aa   000000 000000
    000005  aa   000000 000000
    000006  22   000166 000166
    000007  a2   000000 000156
SYMBOL INFORMATION

SYMBOL TABLE HEADER

    000000  aa   000000 000001
    000001  aa   163171 155142
    000002  aa   164162 145145
    000003  aa   000000 000004
    000004  aa   000000 111316
    000005  aa   510113 575622
    000006  aa   000000 111330
    000007  aa   403255 243616
    000010  aa   141154 155040
    000011  aa   040040 040040
    000012  aa   000024 000040
    000013  aa   000034 000040
    000014  aa   000044 000100
    000015  aa   000002 000002
    000016  aa   000064 000000
    000017  aa   000000 000123
    000020  aa   000000 000102
    000021  aa   000000 000104
    000022  aa   000115 000102
    000023  aa   000064 000000
    000024  aa   101114 115040
    000025  aa   126145 162163
    000026  aa   151157 156040
    000027  aa   040066 056064
    000030  aa   040040 101160
    000031  aa   162151 154040
    000032  aa   061071 070061
    000033  aa   040040 040040
    000034  aa   110157 154155
    000035  aa   163164 145144
    000036  aa   164056 123171
    000037  aa   163115 141151
    000040  aa   156164 056155
    000041  aa   040040 040040
    000042  aa   040040 040040
    000043  aa   040040 040040
    000044  aa   154151 163164
    000045  aa   040040 040040
    000046  aa   040040 040040
    000047  aa   040040 040040
    000050  aa   040040 040040
    000051  aa   040040 040040
    000052  aa   040040 040040
    000053  aa   040040 040040
    000054  aa   040040 040040
    000055  aa   040040 040040
    000056  aa   040040 040040
    000057  aa   040040 040040
    000060  aa   040040 040040
    000061  aa   040040 040040
    000062  aa   040040 040040
    000063  aa   040040 040040
    000064  aa   000000 000001
    000065  aa   000000 000001
    000066  aa   000072 000040
    000067  aa   113225 114767
    000070  aa   000000 111330
    000071  aa   375642 000000
    000072  aa   076163 160145          >spec>on>11/11/82>cobol_ext_.alm
    000073  aa   143076 157156
    000074  aa   076061 061057
    000075  aa   061061 057070
    000076  aa   062076 143157
    000077  aa   142157 154137
    000100  aa   145170 164137
    000101  aa   056141 154155
               MULTICS ASSEMBLY CROSS REFERENCE LISTING

   Value        Symbol                   Source file   Line number

          10    cobol_afp                cobol_ext_:    22,   23.
          12    cobol_analin_fileno      cobol_ext_:    24,   25.
          22    cobol_cmfp               cobol_ext_:    32,   33.
          24    cobol_com_fileno         cobol_ext_:    34,   35.
          26    cobol_com_ptr            cobol_ext_:    36,   37.
          62    cobol_curr_in            cobol_ext_:    64,   65.
          64    cobol_curr_out           cobol_ext_:    66,   67.
          30    cobol_dfp                cobol_ext_:    38,   39.
          20    cobol_eltp               cobol_ext_:    30,   31.
         112    cobol_fileno1            cobol_ext_:    88,   89.
          32    cobol_hfp                cobol_ext_:    40,   41.
         122    cobol_lpr                cobol_ext_:   104,  105.
          34    cobol_m1fp               cobol_ext_:    42,   43.
          36    cobol_m2fp               cobol_ext_:    44,   45.
          40    cobol_min1_fileno        cobol_ext_:    46,   47.
          42    cobol_min2_fileno_ptr    cobol_ext_:    48,   49.
          44    cobol_name_fileno        cobol_ext_:    50,   51.
          46    cobol_name_fileno_ptr    cobol_ext_:    52,   53.
          50    cobol_ntfp               cobol_ext_:    54,   55.
         124    cobol_options            cobol_ext_:   106,  107.
         113    cobol_options_len        cobol_ext_:    90,   91.
          52    cobol_pdofp              cobol_ext_:    56,   57.
         114    cobol_pdout_fileno       cobol_ext_:    92,   93.
          54    cobol_pfp                cobol_ext_:    58,   59.
         115    cobol_print_fileno       cobol_ext_:    94,   95.
          56    cobol_rm2fp              cobol_ext_:    60,   61.
          60    cobol_rmin2fp            cobol_ext_:    62,   63.
         116    cobol_rmin2_fileno       cobol_ext_:    96,   97.
         106    cobol_rwdd               cobol_ext_:    84,   85.
         110    cobol_rwpd               cobol_ext_:    86,   87.
          66    cobol_sfp                cobol_ext_:    68,   69.
          70    cobol_w1p                cobol_ext_:    70,   71.
          72    cobol_w2p                cobol_ext_:    72,   73.
          74    cobol_w3p                cobol_ext_:    74,   75.
          76    cobol_w5p                cobol_ext_:    76,   77.
         100    cobol_w6p                cobol_ext_:    78,   79.
         102    cobol_w7p                cobol_ext_:    80,   81.
         117    cobol_x1_fileno          cobol_ext_:    98,   99.
         120    cobol_x2_fileno          cobol_ext_:   100,  101.
         104    cobol_x3fp               cobol_ext_:    82,   83.
         121    cobol_x3_fileno          cobol_ext_:   102,  103.
         162    cobol_xlast8             cobol_ext_:   108,  109.
          10    linkc                    cobol_ext_:    16,   17,   19.
         164    marg_a_word              cobol_ext_:   112,  113.
         163    report_exists            cobol_ext_:   110,  111.
          14    report_first_token       cobol_ext_:    26,   27.
          16    report_last_token        cobol_ext_:    28,   29.
         165    rs_exists                cobol_ext_:   114,  115.
           0    textc                    cobol_ext_:    15,   18.


NO FATAL ERRORS


                                          -----------------------------------------------------------


Historical Background

This edition of the Multics software materials and documentation is provided and donated
to Massachusetts Institute of Technology by Group BULL including BULL HN Information Systems Inc.
as a contribution to computer science knowledge.
This donation is made also to give evidence of the common contributions of Massachusetts Institute of Technology,
Bell Laboratories, General Electric, Honeywell Information Systems Inc., Honeywell BULL Inc., Groupe BULL
and BULL HN Information Systems Inc. to the development of this operating system.
Multics development was initiated by Massachusetts Institute of Technology Project MAC (1963-1970),
renamed the MIT Laboratory for Computer Science and Artificial Intelligence in the mid 1970s, under the leadership
of Professor Fernando Jose Corbato. Users consider that Multics provided the best software architecture
for managing computer hardware properly and for executing programs. Many subsequent operating systems
incorporated Multics principles.
Multics was distributed in 1975 to 2000 by Group Bull in Europe , and in the U.S. by Bull HN Information Systems Inc.,
as successor in interest by change in name only to Honeywell Bull Inc. and Honeywell Information Systems Inc. .

                                          -----------------------------------------------------------

Permission to use, copy, modify, and distribute these programs and their documentation for any purpose and without
fee is hereby granted,provided that the below copyright notice and historical background appear in all copies
and that both the copyright notice and historical background and this permission notice appear in supporting
documentation, and that the names of MIT, HIS, BULL or BULL HN not be used in advertising or publicity pertaining
to distribution of the programs without specific prior written permission.
    Copyright 1972 by Massachusetts Institute of Technology and Honeywell Information Systems Inc.
    Copyright 2006 by BULL HN Information Systems Inc.
    Copyright 2006 by Bull SAS
    All Rights Reserved
