	COMPILATION LISTING OF SEGMENT cobol_def_init
	Compiled by: Multics PL/I Compiler, Release 33e, of October 6, 1992
	Compiled at: CGI
	Compiled on: 2000-04-18_1134.50_Tue_mdt
	    Options: optimize map

        1 /****^  ***********************************************************
        2*        *                                                         *
        3*        * Copyright, (C) BULL HN Information Systems Inc., 1989   *
        4*        *                                                         *
        5*        * Copyright, (C) Honeywell Information Systems Inc., 1982 *
        6*        *                                                         *
        7*        * Copyright (c) 1972 by Massachusetts Institute of        *
        8*        * Technology and Honeywell Information Systems, Inc.      *
        9*        *                                                         *
       10*        *********************************************************** */
       11
       12
       13
       14
       15 /****^  HISTORY COMMENTS:
       16*  1) change(89-04-23,Zimmerman), approve(89-04-23,MCR8060),
       17*     audit(89-05-05,RWaters), install(89-05-24,MR12.3-1048):
       18*     MCR8060 cobol_def_init.pl1 Reformatted code to new Cobol standard.
       19*                                                   END HISTORY COMMENTS */
       20
       21
       22 /* Modified on 01/14/77 by ORN to signal command_abort rather than cobol_compiler_error */
       23 /* Modified since Version 2.0 */
       24
       25 /*{*/
       26 /* format: style3 */
       27 cobol_def_init:
       28      proc;					/*
       29*The procedure cobol_def_init initializes the Definition Section and
       30*outputs corresponding relocation information.  In particular it:
       31*
       32*     1.  Initializes all items in the header and inserts  a word
       33*         of zeros following the header.
       34*
       35*     2.  Creates a class-3 definition for the object segment.
       36*
       37*     3.  Creates a class-2 definition for the symbol-table.
       38*
       39*     4.  Creates an acc string for "symbol_table".
       40*
       41*     5.  Creates an acc string for the object segment name.
       42*
       43*These entities are positioned in the Definition Section in the
       44*order given.  cobol_def_init is called once per compilation, prior
       45*to code generation.
       46*
       47*Note: The class-0 definition for the entry point must immediately
       48*      follow the acc string for the object segment name; i.e. it
       49*      must be located at def_wd_off as it exists upon return from
       50*      cobol_def_init.
       51*
       52*
       53*U___s_a_g_e:_
       54*
       55*     declare cobol_def_init  entry;
       56*
       57*     call cobol_def_init;
       58*
       59*
       60*D__a_t_a:_
       61*
       62*
       63*     % include cobol_;
       64*
       65*	Items in cobol_ include file used (u) and/or set (s) by
       66*	cobol_def_init:
       67*
       68*	     cobol_ptr (u)
       69*	     com_ptr (u)
       70*	     def_base_ptr (u)
       71*	     def_wd_off (s)
       72*	     def_max (u)
       73*	     obj_seg_name (u)
       74*						  */
       75
  1     1
  1     2 /*  BEGIN INCLUDE FILE ...   cobol_definitions.incl.pl1		  */
  1     3
  1     4 /*  Last modified June 27, 1974 by AEG			  */
  1     5
  1     6
  1     7 declare	1 def_header aligned based(def_base_ptr),
  1     8 	  2 def_list_relp bit(18) unaligned,
  1     9 	  2 unused bit(36) unaligned,
  1    10 	  2 flags unaligned,
  1    11 	    3 new_format bit(1) unaligned,
  1    12 	    3 ignore bit(1) unaligned,
  1    13 	    3 unused bit(16) unaligned;
  1    14
  1    15
  1    16 /*  Non-Class-3 Definitions				  */
  1    17
  1    18
  1    19 declare	def_ptr ptr;
  1    20
  1    21
  1    22 declare	1 definition aligned based(def_ptr),
  1    23 	  2 forward_thread bit(18) unaligned,
  1    24 	  2 backward_thread bit(18) unaligned,
  1    25 	  2 value bit(18) unaligned,
  1    26 	  2 flags unaligned,
  1    27 	    3 new_format bit(1) unaligned,
  1    28 	    3 ignore bit(1) unaligned,
  1    29 	    3 entrypoint bit(1) unaligned,
  1    30 	    3 retain bit(1) unaligned,
  1    31 	    3 descr_sw bit(1) unaligned,
  1    32 	    3 unused bit(10) unaligned,
  1    33 	  2 class bit(3) unaligned,
  1    34 	  2 symbol_relp bit(18) unaligned,
  1    35 	  2 segname_relp bit(18) unaligned,
  1    36 	  2 n_args fixed bin(17) unaligned,
  1    37 	  2 descriptor (0 refer(definition.n_args)) bit(18) unaligned;
  1    38
  1    39
  1    40 /*  Class-3 Definition				  */
  1    41
  1    42
  1    43 declare	1 segname aligned based(def_ptr),
  1    44 	  2 forward_thread bit(18) unaligned,
  1    45 	  2 backward_thread bit(18) unaligned,
  1    46 	  2 segname_thread bit(18) unaligned,
  1    47 	  2 flags bit(15) unaligned,
  1    48 	  2 class bit(3) unaligned,
  1    49 	  2 symbol_relp bit(18) unaligned,
  1    50 	  2 first_relp bit(18) unaligned;
  1    51
  1    52
  1    53
  1    54 /*  END INCLUDE FILE ...   cobol_definitions.incl.pl1		  */
  1    55
       76
       77
       78
       79 dcl	1 error_s		aligned static,
       80 	  2 my_name	char (32) init ("cobol_def_init"),
       81 	  2 message_len	fixed bin init (35),
       82 	  2 message	char (168) init ("Definition Section length exceeded!");
       83
       84 dcl	zeros		aligned bit (36) aligned based (def_ptr);
       85 dcl	len_segname_acc_str fixed bin;
       86 dcl	wd_len		fixed bin;
       87 dcl	temp		fixed bin;
       88
       89 dcl	1 acc		aligned based (def_ptr),
       90 	  2 length_of_string
       91 			fixed bin (8) unaligned,
       92 	  2 string	char (0 refer (acc.length_of_string)) unaligned;
       93
       94 dcl	reloc_info	(44) bit (5) aligned static init ("10101"b, "00000"b,
       95 						/* for		*/
       96 			"00000"b, "00000"b,		/* header		*/
       97 			"00000"b, "00000"b,		/* for wd of zeros  */
       98 			"10101"b, "10101"b,		/* for		*/
       99 			"10101"b, "00000"b,		/* class-3	*/
      100 			"10101"b, "10101"b,		/* definition	*/
      101 			"10101"b, "10101"b,		/* for		*/
      102 			"10110"b, "00000"b,		/* class-2	*/
      103 			"10101"b, "10101"b,		/* definition	*/
      104 			"00000"b, "00000"b,		/* for		*/
      105 			"00000"b, "00000"b,		/* symbol_table	*/
      106 			"00000"b, "00000"b,		/* acc		*/
      107 			"00000"b, "00000"b,		/* string		*/
      108 			"00000"b, "00000"b,		/* for		*/
      109 			"00000"b, "00000"b,		/* object segment	*/
      110 			"00000"b, "00000"b,		/* name		*/
      111 			"00000"b, "00000"b,		/* acc string	*/
      112 			"00000"b, "00000"b,		/* allows 	*/
      113 			"00000"b, "00000"b,		/* for		*/
      114 			"00000"b, "00000"b,		/* 32_character	*/
      115 			"00000"b, "00000"b,		/* max name	*/
      116 			"00000"b, "00000"b);	/* length		*/
      117
      118 /*
      119*P__r_o_c_e_d_u_r_e_s_C__a_l_l_e_d:_
      120*						  */
      121
      122 dcl	signal_		entry (char (*), ptr, ptr);
      123 dcl	cobol_reloc	entry (ptr, fixed bin, fixed bin);
      124
      125
      126 /*
      127*B__u_i_l_t-__i_n_F__u_n_c_t_i_o_n_s_U__s_e_d:_
      128*
      129*						  */
      130 dcl	null		builtin;
      131 dcl	fixed		builtin;
      132 dcl	substr		builtin;
      133 dcl	unspec		builtin;
      134 dcl	search		builtin;
      135 dcl	string		builtin;
      136 dcl	addrel		builtin;
      137 dcl	addr		builtin;			/*}*/
      138
  2     1
  2     2 /* BEGIN INCLUDE FILE ... cobol_.incl.pl1 */
  2     3 /* last modified Feb 4, 1977 by ORN  */
  2     4
  2     5 /* This file defines all external data used in the generator phase of Multics Cobol */
  2     6
  2     7 /* POINTERS */
  2     8 dcl cobol_$text_base_ptr ptr  ext;
  2     9 dcl text_base_ptr ptr  defined (cobol_$text_base_ptr);
  2    10 dcl cobol_$con_end_ptr ptr  ext;
  2    11 dcl con_end_ptr ptr  defined (cobol_$con_end_ptr);
  2    12 dcl cobol_$def_base_ptr ptr  ext;
  2    13 dcl def_base_ptr ptr  defined (cobol_$def_base_ptr);
  2    14 dcl cobol_$link_base_ptr ptr  ext;
  2    15 dcl link_base_ptr ptr  defined (cobol_$link_base_ptr);
  2    16 dcl cobol_$sym_base_ptr ptr  ext;
  2    17 dcl sym_base_ptr ptr  defined (cobol_$sym_base_ptr);
  2    18 dcl cobol_$reloc_text_base_ptr ptr  ext;
  2    19 dcl reloc_text_base_ptr ptr  defined (cobol_$reloc_text_base_ptr);
  2    20 dcl cobol_$reloc_def_base_ptr ptr  ext;
  2    21 dcl reloc_def_base_ptr ptr  defined (cobol_$reloc_def_base_ptr);
  2    22 dcl cobol_$reloc_link_base_ptr ptr  ext;
  2    23 dcl reloc_link_base_ptr ptr  defined (cobol_$reloc_link_base_ptr);
  2    24 dcl cobol_$reloc_sym_base_ptr ptr  ext;
  2    25 dcl reloc_sym_base_ptr ptr  defined (cobol_$reloc_sym_base_ptr);
  2    26 dcl cobol_$reloc_work_base_ptr ptr  ext;
  2    27 dcl reloc_work_base_ptr ptr  defined (cobol_$reloc_work_base_ptr);
  2    28 dcl cobol_$pd_map_ptr ptr  ext;
  2    29 dcl pd_map_ptr ptr  defined (cobol_$pd_map_ptr);
  2    30 dcl cobol_$fixup_ptr ptr  ext;
  2    31 dcl fixup_ptr ptr  defined (cobol_$fixup_ptr);
  2    32 dcl cobol_$initval_base_ptr ptr  ext;
  2    33 dcl initval_base_ptr ptr  defined (cobol_$initval_base_ptr);
  2    34 dcl cobol_$initval_file_ptr ptr  ext;
  2    35 dcl initval_file_ptr ptr  defined (cobol_$initval_file_ptr);
  2    36 dcl cobol_$perform_list_ptr ptr  ext;
  2    37 dcl perform_list_ptr ptr  defined (cobol_$perform_list_ptr);
  2    38 dcl cobol_$alter_list_ptr ptr  ext;
  2    39 dcl alter_list_ptr ptr  defined (cobol_$alter_list_ptr);
  2    40 dcl cobol_$seg_init_list_ptr ptr  ext;
  2    41 dcl seg_init_list_ptr ptr  defined (cobol_$seg_init_list_ptr);
  2    42 dcl cobol_$temp_token_area_ptr ptr  ext;
  2    43 dcl temp_token_area_ptr ptr  defined (cobol_$temp_token_area_ptr);
  2    44 dcl cobol_$temp_token_ptr ptr  ext;
  2    45 dcl temp_token_ptr ptr  defined (cobol_$temp_token_ptr);
  2    46 dcl cobol_$token_block1_ptr ptr  ext;
  2    47 dcl token_block1_ptr ptr  defined (cobol_$token_block1_ptr);
  2    48 dcl cobol_$token_block2_ptr ptr  ext;
  2    49 dcl token_block2_ptr ptr  defined (cobol_$token_block2_ptr);
  2    50 dcl cobol_$minpral5_ptr ptr  ext;
  2    51 dcl minpral5_ptr ptr  defined (cobol_$minpral5_ptr);
  2    52 dcl cobol_$tag_table_ptr ptr  ext;
  2    53 dcl tag_table_ptr ptr  defined (cobol_$tag_table_ptr);
  2    54 dcl cobol_$map_data_ptr ptr  ext;
  2    55 dcl map_data_ptr ptr  defined (cobol_$map_data_ptr);
  2    56 dcl cobol_$ptr_status_ptr ptr  ext;
  2    57 dcl ptr_status_ptr ptr  defined (cobol_$ptr_status_ptr);
  2    58 dcl cobol_$reg_status_ptr ptr  ext;
  2    59 dcl reg_status_ptr ptr  defined (cobol_$reg_status_ptr);
  2    60 dcl cobol_$misc_base_ptr ptr ext;
  2    61 dcl misc_base_ptr ptr defined (cobol_$misc_base_ptr);
  2    62 dcl cobol_$misc_end_ptr ptr ext;
  2    63 dcl misc_end_ptr ptr defined (cobol_$misc_end_ptr);
  2    64 dcl cobol_$list_ptr ptr ext;
  2    65 dcl list_ptr ptr defined (cobol_$list_ptr);
  2    66 dcl cobol_$allo1_ptr ptr ext;
  2    67 dcl allo1_ptr ptr defined (cobol_$allo1_ptr);
  2    68 dcl cobol_$eln_ptr ptr ext;
  2    69 dcl eln_ptr ptr defined (cobol_$eln_ptr);
  2    70 dcl cobol_$diag_ptr ptr ext;
  2    71 dcl diag_ptr ptr defined (cobol_$diag_ptr);
  2    72 dcl cobol_$xref_token_ptr ptr ext;
  2    73 dcl xref_token_ptr ptr defined (cobol_$xref_token_ptr);
  2    74 dcl cobol_$xref_chain_ptr ptr ext;
  2    75 dcl xref_chain_ptr ptr defined (cobol_$xref_chain_ptr);
  2    76 dcl cobol_$statement_info_ptr ptr ext;
  2    77 dcl statement_info_ptr ptr defined (cobol_$statement_info_ptr);
  2    78 dcl cobol_$reswd_ptr ptr ext;
  2    79 dcl reswd_ptr ptr defined (cobol_$reswd_ptr);
  2    80 dcl cobol_$op_con_ptr ptr ext;
  2    81 dcl op_con_ptr ptr defined (cobol_$op_con_ptr);
  2    82 dcl cobol_$ntbuf_ptr ptr ext;
  2    83 dcl ntbuf_ptr ptr defined (cobol_$ntbuf_ptr);
  2    84 dcl cobol_$main_pcs_ptr ptr ext;
  2    85 dcl main_pcs_ptr ptr defined (cobol_$main_pcs_ptr);
  2    86 dcl cobol_$include_info_ptr ptr ext;
  2    87 dcl include_info_ptr ptr defined (cobol_$include_info_ptr);
  2    88
  2    89 /* FIXED BIN */
  2    90 dcl cobol_$text_wd_off fixed bin  ext;
  2    91 dcl text_wd_off fixed bin  defined (cobol_$text_wd_off);
  2    92 dcl cobol_$con_wd_off fixed bin  ext;
  2    93 dcl con_wd_off fixed bin  defined (cobol_$con_wd_off);
  2    94 dcl cobol_$def_wd_off fixed bin  ext;
  2    95 dcl def_wd_off fixed bin  defined (cobol_$def_wd_off);
  2    96 dcl cobol_$def_max fixed bin  ext;
  2    97 dcl def_max fixed bin  defined (cobol_$def_max);
  2    98 dcl cobol_$link_wd_off fixed bin  ext;
  2    99 dcl link_wd_off fixed bin  defined (cobol_$link_wd_off);
  2   100 dcl cobol_$link_max fixed bin  ext;
  2   101 dcl link_max fixed bin  defined (cobol_$link_max);
  2   102 dcl cobol_$sym_wd_off fixed bin  ext;
  2   103 dcl sym_wd_off fixed bin  defined (cobol_$sym_wd_off);
  2   104 dcl cobol_$sym_max fixed bin  ext;
  2   105 dcl sym_max fixed bin  defined (cobol_$sym_max);
  2   106 dcl cobol_$reloc_text_max fixed bin(24)  ext;
  2   107 dcl reloc_text_max fixed bin(24)  defined (cobol_$reloc_text_max);
  2   108 dcl cobol_$reloc_def_max fixed bin(24)  ext;
  2   109 dcl reloc_def_max fixed bin(24)  defined (cobol_$reloc_def_max);
  2   110 dcl cobol_$reloc_link_max fixed bin(24)  ext;
  2   111 dcl reloc_link_max fixed bin(24)  defined (cobol_$reloc_link_max);
  2   112 dcl cobol_$reloc_sym_max fixed bin(24)  ext;
  2   113 dcl reloc_sym_max fixed bin(24)  defined (cobol_$reloc_sym_max);
  2   114 dcl cobol_$reloc_work_max fixed bin(24)  ext;
  2   115 dcl reloc_work_max fixed bin(24)  defined (cobol_$reloc_work_max);
  2   116 dcl cobol_$pd_map_index fixed bin  ext;
  2   117 dcl pd_map_index fixed bin  defined (cobol_$pd_map_index);
  2   118 dcl cobol_$cobol_data_wd_off fixed bin  ext;
  2   119 dcl cobol_data_wd_off fixed bin  defined (cobol_$cobol_data_wd_off);
  2   120 dcl cobol_$stack_off fixed bin  ext;
  2   121 dcl stack_off fixed bin  defined (cobol_$stack_off);
  2   122 dcl cobol_$max_stack_off fixed bin  ext;
  2   123 dcl max_stack_off fixed bin  defined (cobol_$max_stack_off);
  2   124 dcl cobol_$init_stack_off fixed bin  ext;
  2   125 dcl init_stack_off fixed bin  defined (cobol_$init_stack_off);
  2   126 dcl cobol_$pd_map_sw fixed bin  ext;
  2   127 dcl pd_map_sw fixed bin  defined (cobol_$pd_map_sw);
  2   128 dcl cobol_$next_tag fixed bin  ext;
  2   129 dcl next_tag fixed bin  defined (cobol_$next_tag);
  2   130 dcl cobol_$data_init_flag fixed bin  ext;
  2   131 dcl data_init_flag fixed bin  defined (cobol_$data_init_flag);
  2   132 dcl cobol_$seg_init_flag fixed bin  ext;
  2   133 dcl seg_init_flag fixed bin  defined (cobol_$seg_init_flag);
  2   134 dcl cobol_$alter_flag fixed bin  ext;
  2   135 dcl alter_flag fixed bin  defined (cobol_$alter_flag);
  2   136 dcl cobol_$sect_eop_flag fixed bin  ext;
  2   137 dcl sect_eop_flag fixed bin  defined (cobol_$sect_eop_flag);
  2   138 dcl cobol_$para_eop_flag fixed bin  ext;
  2   139 dcl para_eop_flag fixed bin  defined (cobol_$para_eop_flag);
  2   140 dcl cobol_$priority_no fixed bin  ext;
  2   141 dcl priority_no fixed bin  defined (cobol_$priority_no);
  2   142 dcl cobol_$compile_count fixed bin ext;
  2   143 dcl compile_count fixed bin defined (cobol_$compile_count);
  2   144 dcl cobol_$ptr_assumption_ind fixed bin ext;
  2   145 dcl ptr_assumption_ind fixed bin defined (cobol_$ptr_assumption_ind);
  2   146 dcl cobol_$reg_assumption_ind fixed bin ext;
  2   147 dcl reg_assumption_ind fixed bin defined (cobol_$reg_assumption_ind);
  2   148 dcl cobol_$perform_para_index fixed bin ext;
  2   149 dcl perform_para_index fixed bin defined (cobol_$perform_para_index);
  2   150 dcl cobol_$perform_sect_index fixed bin ext;
  2   151 dcl perform_sect_index fixed bin defined (cobol_$perform_sect_index);
  2   152 dcl cobol_$alter_index fixed bin ext;
  2   153 dcl alter_index fixed bin defined (cobol_$alter_index);
  2   154 dcl cobol_$list_off fixed bin ext;
  2   155 dcl list_off fixed bin defined (cobol_$list_off);
  2   156 dcl cobol_$constant_offset fixed bin ext;
  2   157 dcl constant_offset fixed bin defined (cobol_$constant_offset);
  2   158 dcl cobol_$misc_max fixed bin ext;
  2   159 dcl misc_max fixed bin defined (cobol_$misc_max);
  2   160 dcl cobol_$pd_map_max fixed bin ext;
  2   161 dcl pd_map_max fixed bin defined (cobol_$pd_map_max);
  2   162 dcl cobol_$map_data_max fixed bin ext;
  2   163 dcl map_data_max fixed bin defined (cobol_$map_data_max);
  2   164 dcl cobol_$fixup_max fixed bin ext;
  2   165 dcl fixup_max fixed bin defined (cobol_$fixup_max);
  2   166 dcl cobol_$tag_table_max fixed bin ext;
  2   167 dcl tag_table_max fixed bin defined (cobol_$tag_table_max);
  2   168 dcl cobol_$temp_token_max fixed bin ext;
  2   169 dcl temp_token_max fixed bin defined (cobol_$temp_token_max);
  2   170 dcl cobol_$allo1_max fixed bin ext;
  2   171 dcl allo1_max fixed bin defined (cobol_$allo1_max);
  2   172 dcl cobol_$eln_max fixed bin ext;
  2   173 dcl eln_max fixed bin defined (cobol_$eln_max);
  2   174 dcl cobol_$debug_enable fixed bin ext;
  2   175 dcl debug_enable fixed bin defined (cobol_$debug_enable);
  2   176 dcl cobol_$non_source_offset fixed bin ext;
  2   177 dcl non_source_offset fixed bin defined (cobol_$non_source_offset);
  2   178 dcl cobol_$initval_flag fixed bin ext;
  2   179 dcl initval_flag fixed bin defined (cobol_$initval_flag);
  2   180 dcl cobol_$date_compiled_sw fixed bin ext;
  2   181 dcl date_compiled_sw fixed bin defined (cobol_$date_compiled_sw);
  2   182 dcl cobol_$include_cnt fixed bin ext;
  2   183 dcl include_cnt fixed bin defined (cobol_$include_cnt);
  2   184 dcl cobol_$fs_charcnt fixed bin ext;
  2   185 dcl fs_charcnt fixed bin defined (cobol_$fs_charcnt);
  2   186 dcl cobol_$ws_charcnt fixed bin ext;
  2   187 dcl ws_charcnt fixed bin defined (cobol_$ws_charcnt);
  2   188 dcl cobol_$coms_charcnt fixed bin ext;
  2   189 dcl coms_charcnt fixed bin defined (cobol_$coms_charcnt);
  2   190 dcl cobol_$ls_charcnt fixed bin ext;
  2   191 dcl ls_charcnt fixed bin defined (cobol_$ls_charcnt);
  2   192 dcl cobol_$cons_charcnt fixed bin ext;
  2   193 dcl cons_charcnt fixed bin defined (cobol_$cons_charcnt);
  2   194 dcl cobol_$value_cnt fixed bin ext;
  2   195 dcl value_cnt fixed bin defined (cobol_$value_cnt);
  2   196 dcl cobol_$cd_cnt fixed bin ext;
  2   197 dcl cd_cnt fixed bin defined (cobol_$cd_cnt);
  2   198 dcl cobol_$fs_wdoff fixed bin ext;
  2   199 dcl fs_wdoff fixed bin defined (cobol_$fs_wdoff);
  2   200 dcl cobol_$ws_wdoff fixed bin ext;
  2   201 dcl ws_wdoff fixed bin defined (cobol_$ws_wdoff);
  2   202 dcl cobol_$coms_wdoff fixed bin ext;
  2   203 dcl coms_wdoff fixed bin defined (cobol_$coms_wdoff);
  2   204
  2   205 /* CHARACTER */
  2   206 dcl cobol_$scratch_dir char (168)   aligned ext;
  2   207 dcl scratch_dir char (168)   aligned defined (cobol_$scratch_dir);			/* -42- */
  2   208 dcl cobol_$obj_seg_name char (32)   aligned ext;
  2   209 dcl obj_seg_name char (32)   aligned defined (cobol_$obj_seg_name);		/* -8- */
  2   210
  2   211 /* BIT */
  2   212 dcl cobol_$xref_bypass bit(1) aligned ext;
  2   213 dcl xref_bypass bit(1) aligned defined (cobol_$xref_bypass);			/* -1- */
  2   214 dcl cobol_$same_sort_merge_proc bit(1) aligned ext;
  2   215 dcl same_sort_merge_proc bit(1) aligned defined (cobol_$same_sort_merge_proc);		/* -1- */
  2   216
  2   217
  2   218 /* END INCLUDE FILE ... cobol_incl.pl1*/
  2   219
  2   220
      139
  3     1
  3     2 /* BEGIN INCLUDE FILE ...   cobol_fixed_common.incl.pl1 */
  3     3 /* Modified on 10/27/82 by FCH, [5.1-1], cobol_cln added to save last line num, BUG543(phx13643) */
  3     4 /* Modified on 07/31/80 by FCH, [4.3-1], use_reporting field added for Report Writer */
  3     5 /* Modified on 03/30/79 by FCH, [4.1-1], -card option added */
  3     6 /* Modified on 03/30/79 by FCH, [4.0-2], -svNM option added */
  3     7 /* Modified on 03/02/79 by FCH, [4.0-1], -levNM option added */
  3     8 /* Modified by RAL on 10/13/78, [4.0-0], Added option exp from fil2. */
  3     9 /* Modified by BC on 06/20/77, descriptor added.	*/
  3    10 /* Modified by BC on 06/02/77, init_cd_seg, init_cd_offset added.	*/
  3    11 /* Modified by BC  on 1/21/77, options.profile added.	*/
  3    12 /* Modified by FCH on 7/6/76, sysin_fno & sysout_fno deleted, accept_device & display_device added */
  3    13 /* Modified by FCH on 5/20/77, comp_level added */
  3    14
  3    15
  3    16 /*     THE SIZE OF THIS STRUCTURE IN BYTES, (EXCLUDING VARIABLE
  3    17*   LENGTH ENTITIES), FOR EACH HARDWARE IMPLEMENTATION IS:
  3    18*
  3    19*   HARDWARE	|	SIZE (BYTES)
  3    20*   ---------------------------------
  3    21*   645/6180	|	464
  3    22*   P7		|	396
  3    23*   ---------------------------------
  3    24*   */
  3    25
  3    26 dcl 	1 fixed_common based (  cobol_com_ptr),
  3    27     		2 prog_name char (30),
  3    28    		2 compiler_rev_no char (25),
  3    29     		2 phase_name char (6),
  3    30     		2 currency char (1),
  3    31     		2 fatal_no fixed bin,
  3    32     		2 warn_no fixed bin,
  3    33     		2 proc_counter fixed bin,
  3    34     		2 spec_tag_counter fixed bin,
  3    35     		2 file_count fixed bin,
  3    36     		2 filedescr_offsets (20) char (5),
  3    37     		2 perf_alter_info char (5),
  3    38     		2 another_perform_info char (5),
  3    39     		2 sort_in_info char (5),
  3    40     		2 odo_info char (5),
  3    41     		2 size_seg fixed bin,
  3    42     		2 size_offset fixed bin(24),
  3    43     		2 size_perform_info char (5),
  3    44     		2 rename_info char (5),
  3    45     		2 report_names char (5),
  3    46     		2 rw_buf_seg fixed bin,
  3    47     		2 rw_buf_offset fixed bin(24),
  3    48     		2 rw_buf_length fixed bin(24),
  3    49     		2 file_keys char (5),
  3    50     		2 search_keys char (5),
  3    51     		2 dd_seg_size fixed bin(24),
  3    52     		2 pd_seg_size fixed bin(24),
  3    53     		2 seg_limit fixed bin ,
  3    54     		2 number_of_dd_segs fixed bin,
  3    55     		2 seg_info char (5),
  3    56     		2 number_of_ls_pointers fixed bin,
  3    57     		2 link_sec_seg fixed bin,
  3    58     		2 link_sec_offset fixed bin(24),
  3    59     		2 sra_clauses fixed bin,
  3    60     		2 fix_up_info char (5),
  3    61     		2 linage_info char (5),
  3    62     		2 first_dd_item char (5),
  3    63     		2 sort_out_info char (5),
  3    64     		2 db_info char (5),
  3    65     		2 realm_info char (5),
  3    66     		2 rc_realm_info char (5),
  3    67     		2 last_file_key char (5),
  3    68     		2 prog_coll_seq fixed bin,
  3    69 		2 init_cd_seg fixed bin,
  3    70 		2 init_cd_offset fixed bin(24),
  3    71     		2 input_error_exit fixed bin,
  3    72    		2 output_error_exit fixed bin,
  3    73     		2 i_o_error_exit fixed bin,
  3    74     		2 extend_error_exit fixed bin,
  3    75     		2 dummy15 fixed bin,
  3    76     		2 options,
  3    77       			3 cu bit (1),
  3    78       			3 st bit (1),
  3    79       			3 wn bit (1),
  3    80       			3 obs bit (1),
  3    81       			3 dm bit (1),
  3    82       			3 xrl bit (1),
  3    83       			3 xrn bit (1),
  3    84       			3 src bit (1),
  3    85       			3 obj bit (1),
  3    86       			3 exs bit (1),
  3    87       			3 sck bit (1),
  3    88       			3 rno bit (1),
  3    89 			3 u_l bit (1),
  3    90 			3 cnv bit (1),
  3    91 			3 cos bit (1),
  3    92 			3 fmt bit (1),
  3    93 			3 profile bit(1),
  3    94 			3 nw bit (1),
  3    95 			3 exp bit (1),		/* [4.0-0] */
  3    96 			3 card bit (1),  /*[4.1-1]*/
  3    97 			3 fil2 bit (5),
  3    98 			3 m_map bit (1),
  3    99 			3 m_bf bit (1),
  3   100 			3 m_fat bit (1),
  3   101 			3 m_wn bit (1),
  3   102 			3 m_obs bit(1),
  3   103 			3 pd bit(1),
  3   104       			3 oc bit(1),
  3   105     		2 supervisor bit (1),
  3   106     		2 dec_comma bit (1),
  3   107     		2 init_cd bit (1),
  3   108     		2 corr bit (1),
  3   109     		2 initl bit (1),
  3   110     		2 debug bit (1),
  3   111     		2 report bit (1),
  3   112     		2 sync_in_prog bit (1),
  3   113     		2 pd_section bit (1),
  3   114     		2 list_switch bit (1),
  3   115     		2 alpha_cond bit (1),
  3   116     		2 num_cond bit (1),
  3   117     		2 spec_sysin bit (1),
  3   118     		2 spec_sysout bit (1),
  3   119     		2 cpl_files bit (1),
  3   120     		2 obj_dec_comma bit (1),
  3   121 		2 default_sign_type bit (3),
  3   122 		2 use_debug bit(1),
  3   123 		2 syntax_trace bit(1),
  3   124 		2 comp_defaults,
  3   125 			3 comp	bit(1),
  3   126 			3 comp_1	bit(1),
  3   127 			3 comp_2	bit(1),
  3   128 			3 comp_3	bit(1),
  3   129 			3 comp_4	bit(1),
  3   130 			3 comp_5	bit(1),
  3   131 			3 comp_6	bit(1),
  3   132 			3 comp_7	bit(1),
  3   133 			3 comp_8 bit(1),
  3   134 		2 disp_defaults,
  3   135 			3 disp	bit(1),
  3   136 			3 disp_1	bit(1),
  3   137 			3 disp_2	bit(1),
  3   138 			3 disp_3	bit(1),
  3   139 			3 disp_4	bit(1),
  3   140 			3 disp_5  bit(1),
  3   141 			3 disp_6  bit(1),
  3   142 			3 disp_7  bit(1),
  3   143 		2 descriptor bit(2),
  3   144 		2 levsv  bit(3),		/*[4.0-1]*/
  3   145 		2 use_reporting bit(1),	/*[4.3-1]*/
  3   146 		2 cd bit(1),		/*[4.4-1]*/
  3   147 		2 dummy17 bit(3),
  3   148    		2 lvl_rstr bit(32),
  3   149    		2 inst_rstr bit(32),
  3   150 		2 comp_level char(1),
  3   151 		2 dummy18 char(30),
  3   152 		2 object_sign char (1),
  3   153     		2 last_print_rec char (5),
  3   154     		2 coll_seq_info char (5),
  3   155     		2 sys_status_seg fixed bin,
  3   156    		2 sys_status_offset fixed bin(24),
  3   157    		2 compiler_id fixed bin,
  3   158    		2 date_comp_ln fixed bin,
  3   159    		2 compile_mode bit(36),
  3   160    		2 default_temp fixed bin,
  3   161    		2 accept_device fixed bin,
  3   162    		2 display_device fixed bin,
  3   163    		2 cobol_cln fixed bin,	/*[5.1-1]*/
  3   164 		2 alphabet_offset fixed bin;
  3   165
  3   166
  3   167
  3   168 /* END INCLUDE FILE ...   cobol_fixed_common.incl.pl1 */
  3   169
      140
  4     1
  4     2 /* BEGIN INCLUDE FILE ... cobol_ext_.incl.pl1 */
  4     3 /* Last modified on 06/17/76 by ORN */
  4     4 /* Last modified on 12/28/76 by FCH */
  4     5 /* Last modified on 12/01/80 by FCH */
  4     6
  4     7 /*    <<<   SHARED EXTERNALS INCLUDE FILE   >>>    */
  4     8
  4     9
  4    10 dcl     cobol_ext_$cobol_afp ptr ext;
  4    11 dcl     cobol_afp ptr defined (  cobol_ext_$cobol_afp);
  4    12 dcl     cobol_ext_$cobol_analin_fileno ptr ext;
  4    13 dcl     cobol_analin_fileno ptr defined (  cobol_ext_$cobol_analin_fileno);
  4    14 dcl     cobol_ext_$report_first_token ptr ext;
  4    15 dcl     report_first_token ptr defined( cobol_ext_$report_first_token);
  4    16 dcl     cobol_ext_$report_last_token ptr ext;
  4    17 dcl     report_last_token ptr defined ( cobol_ext_$report_last_token);
  4    18 dcl     cobol_ext_$cobol_eltp ptr ext;
  4    19 dcl     cobol_eltp ptr defined (  cobol_ext_$cobol_eltp);
  4    20 dcl     cobol_ext_$cobol_cmfp ptr ext;
  4    21 dcl     cobol_cmfp ptr defined (  cobol_ext_$cobol_cmfp);
  4    22 dcl     cobol_ext_$cobol_com_fileno ptr ext;
  4    23 dcl     cobol_com_fileno ptr defined (  cobol_ext_$cobol_com_fileno);
  4    24 dcl     cobol_ext_$cobol_com_ptr ptr ext;
  4    25 dcl     cobol_com_ptr ptr defined (  cobol_ext_$cobol_com_ptr);
  4    26 dcl     cobol_ext_$cobol_dfp ptr ext;
  4    27 dcl     cobol_dfp ptr defined (  cobol_ext_$cobol_dfp);
  4    28 dcl     cobol_ext_$cobol_hfp ptr ext;
  4    29 dcl     cobol_hfp ptr defined (  cobol_ext_$cobol_hfp);
  4    30 dcl     cobol_ext_$cobol_m1fp ptr ext;
  4    31 dcl     cobol_m1fp ptr defined (  cobol_ext_$cobol_m1fp);
  4    32 dcl     cobol_ext_$cobol_m2fp ptr ext;
  4    33 dcl     cobol_m2fp ptr defined (  cobol_ext_$cobol_m2fp);
  4    34 dcl     cobol_ext_$cobol_min1_fileno ptr ext;
  4    35 dcl     cobol_min1_fileno ptr defined (  cobol_ext_$cobol_min1_fileno);
  4    36 dcl     cobol_ext_$cobol_min2_fileno_ptr ptr ext;
  4    37 dcl     cobol_min2_fileno_ptr ptr defined (  cobol_ext_$cobol_min2_fileno_ptr);
  4    38 dcl     cobol_ext_$cobol_name_fileno ptr ext;
  4    39 dcl     cobol_name_fileno ptr defined (  cobol_ext_$cobol_name_fileno);
  4    40 dcl     cobol_ext_$cobol_name_fileno_ptr ptr ext;
  4    41 dcl     cobol_name_fileno_ptr ptr defined (  cobol_ext_$cobol_name_fileno_ptr);
  4    42 dcl     cobol_ext_$cobol_ntfp ptr ext;
  4    43 dcl     cobol_ntfp ptr defined (  cobol_ext_$cobol_ntfp);
  4    44 dcl     cobol_ext_$cobol_pdofp ptr ext;
  4    45 dcl     cobol_pdofp ptr defined (  cobol_ext_$cobol_pdofp);
  4    46 dcl     cobol_ext_$cobol_pfp ptr ext;
  4    47 dcl     cobol_pfp ptr defined (  cobol_ext_$cobol_pfp);
  4    48 dcl     cobol_ext_$cobol_rm2fp ptr ext;
  4    49 dcl     cobol_rm2fp ptr defined (  cobol_ext_$cobol_rm2fp);
  4    50 dcl     cobol_ext_$cobol_rmin2fp ptr ext;
  4    51 dcl     cobol_rmin2fp ptr defined (  cobol_ext_$cobol_rmin2fp);
  4    52 dcl     cobol_ext_$cobol_curr_in ptr ext;
  4    53 dcl     cobol_curr_in ptr defined (  cobol_ext_$cobol_curr_in);
  4    54 dcl     cobol_ext_$cobol_curr_out ptr ext;
  4    55 dcl     cobol_curr_out ptr defined (  cobol_ext_$cobol_curr_out);
  4    56 dcl     cobol_ext_$cobol_sfp ptr ext;
  4    57 dcl     cobol_sfp ptr defined (  cobol_ext_$cobol_sfp);
  4    58 dcl     cobol_ext_$cobol_w1p ptr ext;
  4    59 dcl     cobol_w1p ptr defined (  cobol_ext_$cobol_w1p);
  4    60 dcl     cobol_ext_$cobol_w2p ptr ext;
  4    61 dcl     cobol_w2p ptr defined (  cobol_ext_$cobol_w2p);
  4    62 dcl     cobol_ext_$cobol_w3p ptr ext;
  4    63 dcl     cobol_w3p ptr defined (  cobol_ext_$cobol_w3p);
  4    64 dcl     cobol_ext_$cobol_w5p ptr ext;
  4    65 dcl     cobol_w5p ptr defined (  cobol_ext_$cobol_w5p);
  4    66 dcl     cobol_ext_$cobol_w6p ptr ext;
  4    67 dcl     cobol_w6p ptr defined (  cobol_ext_$cobol_w6p);
  4    68 dcl     cobol_ext_$cobol_w7p ptr ext;
  4    69 dcl     cobol_w7p ptr defined (  cobol_ext_$cobol_w7p);
  4    70 dcl     cobol_ext_$cobol_x3fp ptr ext;
  4    71 dcl     cobol_x3fp ptr defined (  cobol_ext_$cobol_x3fp);
  4    72 dcl	cobol_ext_$cobol_rwdd ptr ext;
  4    73 dcl	cobol_rwdd ptr defined(cobol_ext_$cobol_rwdd);
  4    74 dcl	cobol_ext_$cobol_rwpd ptr ext;
  4    75 dcl	cobol_rwpd ptr defined(cobol_ext_$cobol_rwpd);
  4    76
  4    77
  4    78 dcl     cobol_ext_$cobol_fileno1 fixed bin(24)ext;
  4    79 dcl     cobol_fileno1 fixed bin(24)defined (  cobol_ext_$cobol_fileno1);
  4    80 dcl     cobol_ext_$cobol_options_len fixed bin(24)ext;
  4    81 dcl     cobol_options_len fixed bin(24)defined (  cobol_ext_$cobol_options_len);
  4    82 dcl     cobol_ext_$cobol_pdout_fileno fixed bin(24)ext;
  4    83 dcl     cobol_pdout_fileno fixed bin(24)defined (  cobol_ext_$cobol_pdout_fileno);
  4    84 dcl     cobol_ext_$cobol_print_fileno fixed bin(24)ext;
  4    85 dcl     cobol_print_fileno fixed bin(24)defined (  cobol_ext_$cobol_print_fileno);
  4    86 dcl     cobol_ext_$cobol_rmin2_fileno fixed bin(24)ext;
  4    87 dcl     cobol_rmin2_fileno fixed bin(24)defined (  cobol_ext_$cobol_rmin2_fileno);
  4    88 dcl     cobol_ext_$cobol_x1_fileno fixed bin(24)ext;
  4    89 dcl     cobol_x1_fileno fixed bin(24)defined (  cobol_ext_$cobol_x1_fileno);
  4    90 dcl     cobol_ext_$cobol_x2_fileno fixed bin(24)ext;
  4    91 dcl     cobol_x2_fileno fixed bin(24)defined (  cobol_ext_$cobol_x2_fileno);
  4    92 dcl     cobol_ext_$cobol_x3_fileno fixed bin(24)ext;
  4    93 dcl     cobol_x3_fileno fixed bin(24)defined (  cobol_ext_$cobol_x3_fileno);
  4    94
  4    95 dcl     cobol_ext_$cobol_lpr char (5) ext;
  4    96 dcl     cobol_lpr char (5) defined (  cobol_ext_$cobol_lpr);				/* -2- */
  4    97 dcl     cobol_ext_$cobol_options char (120) ext;
  4    98 dcl     cobol_options char (120) defined (  cobol_ext_$cobol_options);          			/* -30- */
  4    99
  4   100 dcl     cobol_ext_$cobol_xlast8 bit (1) ext;
  4   101 dcl     cobol_xlast8 bit (1) defined (  cobol_ext_$cobol_xlast8);				/* -1- */
  4   102 dcl     cobol_ext_$report_exists bit (1) ext;
  4   103 dcl     report_exists bit (1) defined (  cobol_ext_$report_exists);
  4   104
  4   105
  4   106 /*    <<<   END OF SHARED EXTERNALS INCLUDE FILE   >>>    */
  4   107 /* END INCLUDE FILE ... cobol_ext_.incl.pl1 */
  4   108
      141
      142
      143
      144 /*************************************/
      145 start:						/*  COMPUTE LENGTH OF ACC STRING FOR OBJECT SEGMENT NAME  */
      146 	len_segname_acc_str = search (obj_seg_name, " ");
      147
      148 	if len_segname_acc_str = 0
      149 	then do;
      150
      151 		len_segname_acc_str = 33;
      152 		wd_len = 9;
      153
      154 	     end;
      155
      156 	else do;
      157
      158 		temp = len_segname_acc_str + 3;
      159 		wd_len = fixed (substr (unspec (temp), 1, 34));
      160
      161 	     end;
      162
      163
      164 /*  UPDATE def_wd_off AND TEST AGAINST def_max  */
      165
      166 	def_wd_off = wd_len + 13;
      167
      168 	if def_wd_off > def_max
      169 	then do;
      170
      171 		call signal_ ("command_abort_", null, addr (error_s));
      172 		return;
      173
      174 	     end;
      175
      176
      177 /*  INITIALIZE HEADER  */
      178
      179 	def_list_relp = "000000000000000011"b;
      180 	def_header.unused = (36)"0"b;
      181 	def_header.flags.new_format = "1"b;
      182 	def_header.flags.ignore = "1"b;
      183 	def_header.flags.unused = (16)"0"b;
      184
      185
      186 /*  INSERT WORD OF ZEROS AFTER HEADER  */
      187
      188 	def_ptr = addrel (def_base_ptr, 2);
      189 	zeros = (36)"0"b;
      190
      191
      192 /*  CREATE CLASS-3 DEFINITION FOR THE OBJECT SEGMENT  */
      193
      194 	def_ptr = addrel (def_ptr, 1);
      195 	segname.forward_thread = "000000000000000110"b;
      196 	segname.backward_thread = "000000000000000010"b;
      197 	segname.segname_thread = "000000000000000010"b;
      198 	segname.flags = "100000000000000"b;
      199 	segname.class = "011"b;
      200 	segname.symbol_relp = "000000000000001101"b;
      201 	segname.first_relp = "000000000000000110"b;
      202
      203
      204 /*  CREATE CLASS-2 DEFINITION FOR THE SYMBOL_TABLE  */
      205
      206 	def_ptr = addrel (def_ptr, 3);
      207 	definition.forward_thread = "000000000000000010"b;
      208 	definition.backward_thread = "000000000000000011"b;
      209 	definition.value = (18)"0"b;
      210 	string (definition.flags) = "100000000000000"b;
      211 	definition.class = "010"b;
      212 	definition.symbol_relp = "000000000000001001"b;
      213 	definition.segname_relp = "000000000000000011"b;
      214
      215
      216 /*  CREATE ACC STRING FOR "symbol_table"  */
      217
      218 	def_ptr = addrel (def_ptr, 3);
      219 	length_of_string = 12;
      220 	acc.string = "symbol_table";
      221
      222
      223 /*  CTEATE ACC STRING FOR OBJECT SEGMENT NAME  */
      224
      225 	def_ptr = addrel (def_ptr, 4);
      226 	length_of_string = len_segname_acc_str - 1;
      227 	acc.string = obj_seg_name;
      228
      229
      230 /*  OUTPUT RELOCATION INFORMATIION  */
      231
      232 	call cobol_reloc (addr (reloc_info), def_wd_off + def_wd_off, 3003);
      233
      234
      235 /*  INITIALIZATION COMPLETE  */
      236 exit:
      237 	return;
      238
      239      end cobol_def_init;
	SOURCE FILES USED IN THIS COMPILATION.

LINE      NUMBER  DATE MODIFIED     NAME			PATHNAME
             0    04/18/00  1134.5  cobol_def_init.pl1                >udd>sm>ds>w>ml>cobol_def_init.pl1
76           1    11/11/82  1812.7  cobol_definitions.incl.pl1        >ldd>incl>cobol_definitions.incl.pl1
139          2    11/11/82  1812.7  cobol_.incl.pl1                   >ldd>incl>cobol_.incl.pl1
140          3    11/11/82  1812.8  cobol_fixed_common.incl.pl1       >ldd>incl>cobol_fixed_common.incl.pl1
141          4    03/27/82  0531.3  cobol_ext_.incl.pl1               >ldd>incl>cobol_ext_.incl.pl1
	NAMES DECLARED IN THIS COMPILATION.

IDENTIFIER	     OFFSET    LOC STORAGE CLASS   DATA TYPE		ATTRIBUTES AND REFERENCES
								(* indicates a set context)

NAMES DECLARED BY DECLARE STATEMENT.
acc                                    based           structure                level 1 dcl 89
addr                                                   builtin function         dcl 137 ref 171 171 232 232
addrel                                                 builtin function         dcl 136 ref 188 194 206 218 225
backward_thread           0(18)        based           bit(18)                  level 2 in structure "segname" packed packed
                                                                                  unaligned dcl 1-43 in procedure "cobol_def_init"
                                                                                  set ref 196*
backward_thread           0(18)        based           bit(18)                  level 2 in structure "definition" packed packed
                                                                                  unaligned dcl 1-22 in procedure "cobol_def_init"
                                                                                  set ref 208*
class                     1(33)        based           bit(3)                   level 2 in structure "definition" packed packed
                                                                                  unaligned dcl 1-22 in procedure "cobol_def_init"
                                                                                  set ref 211*
class                     1(33)        based           bit(3)                   level 2 in structure "segname" packed packed
                                                                                  unaligned dcl 1-43 in procedure "cobol_def_init"
                                                                                  set ref 199*
cobol_$def_base_ptr             000154 external static pointer                  dcl 2-12 ref 179 179 180 180 181 181 182 182 183 183
                                                                                  188 188
cobol_$def_max                  000160 external static fixed bin(17,0)          dcl 2-96 ref 168 168
cobol_$def_wd_off               000156 external static fixed bin(17,0)          dcl 2-94 set ref 166* 166 168 168 232 232 232 232
cobol_$obj_seg_name             000162 external static char(32)                 dcl 2-208 ref 145 145 227 227
cobol_reloc                     000152 constant        entry                    external dcl 123 ref 232
def_base_ptr                           defined         pointer                  dcl 2-13 ref 179 180 181 182 183 188
def_header                             based           structure                level 1 dcl 1-7
def_list_relp                          based           bit(18)                  level 2 packed packed unaligned dcl 1-7 set ref 179*
def_max                                defined         fixed bin(17,0)          dcl 2-97 ref 168
def_ptr                         000100 automatic       pointer                  dcl 1-19 set ref 188* 189 194* 194 195 196 197 198
                                                                                  199 200 201 206* 206 207 208 209 210 211 212 213
                                                                                  218* 218 219 220 225* 225 226 227
def_wd_off                             defined         fixed bin(17,0)          dcl 2-95 set ref 166* 168 232 232
definition                             based           structure                level 1 dcl 1-22
error_s                         000010 internal static structure                level 1 dcl 79 set ref 171 171
first_relp                2(18)        based           bit(18)                  level 2 packed packed unaligned dcl 1-43 set ref
                                                                                  201*
fixed                                                  builtin function         dcl 131 ref 159
flags                     1(18)        based           structure                level 2 in structure "def_header" packed packed
                                                                                  unaligned dcl 1-7 in procedure "cobol_def_init"
flags                     1(18)        based           structure                level 2 in structure "definition" packed packed
                                                                                  unaligned dcl 1-22 in procedure "cobol_def_init"
                                                                                  set ref 210*
flags                     1(18)        based           bit(15)                  level 2 in structure "segname" packed packed
                                                                                  unaligned dcl 1-43 in procedure "cobol_def_init"
                                                                                  set ref 198*
forward_thread                         based           bit(18)                  level 2 in structure "definition" packed packed
                                                                                  unaligned dcl 1-22 in procedure "cobol_def_init"
                                                                                  set ref 207*
forward_thread                         based           bit(18)                  level 2 in structure "segname" packed packed
                                                                                  unaligned dcl 1-43 in procedure "cobol_def_init"
                                                                                  set ref 195*
ignore                    1(19)        based           bit(1)                   level 3 packed packed unaligned dcl 1-7 set ref 182*
len_segname_acc_str             000102 automatic       fixed bin(17,0)          dcl 85 set ref 145* 148 151* 158 226
length_of_string                       based           fixed bin(8,0)           level 2 packed packed unaligned dcl 89 set ref 219*
                                                                                  220 226* 227
new_format                1(18)        based           bit(1)                   level 3 packed packed unaligned dcl 1-7 set ref 181*
null                                                   builtin function         dcl 130 ref 171 171
obj_seg_name                           defined         char(32)                 dcl 2-209 ref 145 227
reloc_info                      000073 internal static bit(5)                   initial array dcl 94 set ref 232 232
search                                                 builtin function         dcl 134 ref 145
segname                                based           structure                level 1 dcl 1-43
segname_relp              2(18)        based           bit(18)                  level 2 packed packed unaligned dcl 1-22 set ref
                                                                                  213*
segname_thread            1            based           bit(18)                  level 2 packed packed unaligned dcl 1-43 set ref
                                                                                  197*
signal_                         000150 constant        entry                    external dcl 122 ref 171
string                                                 builtin function         dcl 135 in procedure "cobol_def_init" set ref 210*
string                    0(09)        based           char                     level 2 in structure "acc" packed packed unaligned
                                                                                  dcl 89 in procedure "cobol_def_init" set ref 220*
                                                                                  227*
substr                                                 builtin function         dcl 132 ref 159
symbol_relp               2            based           bit(18)                  level 2 in structure "segname" packed packed
                                                                                  unaligned dcl 1-43 in procedure "cobol_def_init"
                                                                                  set ref 200*
symbol_relp               2            based           bit(18)                  level 2 in structure "definition" packed packed
                                                                                  unaligned dcl 1-22 in procedure "cobol_def_init"
                                                                                  set ref 212*
temp                            000104 automatic       fixed bin(17,0)          dcl 87 set ref 158* 159
unspec                                                 builtin function         dcl 133 ref 159
unused                    0(18)        based           bit(36)                  level 2 in structure "def_header" packed packed
                                                                                  unaligned dcl 1-7 in procedure "cobol_def_init"
                                                                                  set ref 180*
unused                    1(20)        based           bit(16)                  level 3 in structure "def_header" packed packed
                                                                                  unaligned dcl 1-7 in procedure "cobol_def_init"
                                                                                  set ref 183*
value                     1            based           bit(18)                  level 2 packed packed unaligned dcl 1-22 set ref
                                                                                  209*
wd_len                          000103 automatic       fixed bin(17,0)          dcl 86 set ref 152* 159* 166
zeros                                  based           bit(36)                  dcl 84 set ref 189*

NAMES DECLARED BY DECLARE STATEMENT AND NEVER REFERENCED.
allo1_max                              defined         fixed bin(17,0)          dcl 2-171
allo1_ptr                              defined         pointer                  dcl 2-67
alter_flag                             defined         fixed bin(17,0)          dcl 2-135
alter_index                            defined         fixed bin(17,0)          dcl 2-153
alter_list_ptr                         defined         pointer                  dcl 2-39
cd_cnt                                 defined         fixed bin(17,0)          dcl 2-197
cobol_$allo1_max                       external static fixed bin(17,0)          dcl 2-170
cobol_$allo1_ptr                       external static pointer                  dcl 2-66
cobol_$alter_flag                      external static fixed bin(17,0)          dcl 2-134
cobol_$alter_index                     external static fixed bin(17,0)          dcl 2-152
cobol_$alter_list_ptr                  external static pointer                  dcl 2-38
cobol_$cd_cnt                          external static fixed bin(17,0)          dcl 2-196
cobol_$cobol_data_wd_off               external static fixed bin(17,0)          dcl 2-118
cobol_$compile_count                   external static fixed bin(17,0)          dcl 2-142
cobol_$coms_charcnt                    external static fixed bin(17,0)          dcl 2-188
cobol_$coms_wdoff                      external static fixed bin(17,0)          dcl 2-202
cobol_$con_end_ptr                     external static pointer                  dcl 2-10
cobol_$con_wd_off                      external static fixed bin(17,0)          dcl 2-92
cobol_$cons_charcnt                    external static fixed bin(17,0)          dcl 2-192
cobol_$constant_offset                 external static fixed bin(17,0)          dcl 2-156
cobol_$data_init_flag                  external static fixed bin(17,0)          dcl 2-130
cobol_$date_compiled_sw                external static fixed bin(17,0)          dcl 2-180
cobol_$debug_enable                    external static fixed bin(17,0)          dcl 2-174
cobol_$diag_ptr                        external static pointer                  dcl 2-70
cobol_$eln_max                         external static fixed bin(17,0)          dcl 2-172
cobol_$eln_ptr                         external static pointer                  dcl 2-68
cobol_$fixup_max                       external static fixed bin(17,0)          dcl 2-164
cobol_$fixup_ptr                       external static pointer                  dcl 2-30
cobol_$fs_charcnt                      external static fixed bin(17,0)          dcl 2-184
cobol_$fs_wdoff                        external static fixed bin(17,0)          dcl 2-198
cobol_$include_cnt                     external static fixed bin(17,0)          dcl 2-182
cobol_$include_info_ptr                external static pointer                  dcl 2-86
cobol_$init_stack_off                  external static fixed bin(17,0)          dcl 2-124
cobol_$initval_base_ptr                external static pointer                  dcl 2-32
cobol_$initval_file_ptr                external static pointer                  dcl 2-34
cobol_$initval_flag                    external static fixed bin(17,0)          dcl 2-178
cobol_$link_base_ptr                   external static pointer                  dcl 2-14
cobol_$link_max                        external static fixed bin(17,0)          dcl 2-100
cobol_$link_wd_off                     external static fixed bin(17,0)          dcl 2-98
cobol_$list_off                        external static fixed bin(17,0)          dcl 2-154
cobol_$list_ptr                        external static pointer                  dcl 2-64
cobol_$ls_charcnt                      external static fixed bin(17,0)          dcl 2-190
cobol_$main_pcs_ptr                    external static pointer                  dcl 2-84
cobol_$map_data_max                    external static fixed bin(17,0)          dcl 2-162
cobol_$map_data_ptr                    external static pointer                  dcl 2-54
cobol_$max_stack_off                   external static fixed bin(17,0)          dcl 2-122
cobol_$minpral5_ptr                    external static pointer                  dcl 2-50
cobol_$misc_base_ptr                   external static pointer                  dcl 2-60
cobol_$misc_end_ptr                    external static pointer                  dcl 2-62
cobol_$misc_max                        external static fixed bin(17,0)          dcl 2-158
cobol_$next_tag                        external static fixed bin(17,0)          dcl 2-128
cobol_$non_source_offset               external static fixed bin(17,0)          dcl 2-176
cobol_$ntbuf_ptr                       external static pointer                  dcl 2-82
cobol_$op_con_ptr                      external static pointer                  dcl 2-80
cobol_$para_eop_flag                   external static fixed bin(17,0)          dcl 2-138
cobol_$pd_map_index                    external static fixed bin(17,0)          dcl 2-116
cobol_$pd_map_max                      external static fixed bin(17,0)          dcl 2-160
cobol_$pd_map_ptr                      external static pointer                  dcl 2-28
cobol_$pd_map_sw                       external static fixed bin(17,0)          dcl 2-126
cobol_$perform_list_ptr                external static pointer                  dcl 2-36
cobol_$perform_para_index              external static fixed bin(17,0)          dcl 2-148
cobol_$perform_sect_index              external static fixed bin(17,0)          dcl 2-150
cobol_$priority_no                     external static fixed bin(17,0)          dcl 2-140
cobol_$ptr_assumption_ind              external static fixed bin(17,0)          dcl 2-144
cobol_$ptr_status_ptr                  external static pointer                  dcl 2-56
cobol_$reg_assumption_ind              external static fixed bin(17,0)          dcl 2-146
cobol_$reg_status_ptr                  external static pointer                  dcl 2-58
cobol_$reloc_def_base_ptr              external static pointer                  dcl 2-20
cobol_$reloc_def_max                   external static fixed bin(24,0)          dcl 2-108
cobol_$reloc_link_base_ptr             external static pointer                  dcl 2-22
cobol_$reloc_link_max                  external static fixed bin(24,0)          dcl 2-110
cobol_$reloc_sym_base_ptr              external static pointer                  dcl 2-24
cobol_$reloc_sym_max                   external static fixed bin(24,0)          dcl 2-112
cobol_$reloc_text_base_ptr             external static pointer                  dcl 2-18
cobol_$reloc_text_max                  external static fixed bin(24,0)          dcl 2-106
cobol_$reloc_work_base_ptr             external static pointer                  dcl 2-26
cobol_$reloc_work_max                  external static fixed bin(24,0)          dcl 2-114
cobol_$reswd_ptr                       external static pointer                  dcl 2-78
cobol_$same_sort_merge_proc            external static bit(1)                   dcl 2-214
cobol_$scratch_dir                     external static char(168)                dcl 2-206
cobol_$sect_eop_flag                   external static fixed bin(17,0)          dcl 2-136
cobol_$seg_init_flag                   external static fixed bin(17,0)          dcl 2-132
cobol_$seg_init_list_ptr               external static pointer                  dcl 2-40
cobol_$stack_off                       external static fixed bin(17,0)          dcl 2-120
cobol_$statement_info_ptr              external static pointer                  dcl 2-76
cobol_$sym_base_ptr                    external static pointer                  dcl 2-16
cobol_$sym_max                         external static fixed bin(17,0)          dcl 2-104
cobol_$sym_wd_off                      external static fixed bin(17,0)          dcl 2-102
cobol_$tag_table_max                   external static fixed bin(17,0)          dcl 2-166
cobol_$tag_table_ptr                   external static pointer                  dcl 2-52
cobol_$temp_token_area_ptr             external static pointer                  dcl 2-42
cobol_$temp_token_max                  external static fixed bin(17,0)          dcl 2-168
cobol_$temp_token_ptr                  external static pointer                  dcl 2-44
cobol_$text_base_ptr                   external static pointer                  dcl 2-8
cobol_$text_wd_off                     external static fixed bin(17,0)          dcl 2-90
cobol_$token_block1_ptr                external static pointer                  dcl 2-46
cobol_$token_block2_ptr                external static pointer                  dcl 2-48
cobol_$value_cnt                       external static fixed bin(17,0)          dcl 2-194
cobol_$ws_charcnt                      external static fixed bin(17,0)          dcl 2-186
cobol_$ws_wdoff                        external static fixed bin(17,0)          dcl 2-200
cobol_$xref_bypass                     external static bit(1)                   dcl 2-212
cobol_$xref_chain_ptr                  external static pointer                  dcl 2-74
cobol_$xref_token_ptr                  external static pointer                  dcl 2-72
cobol_afp                              defined         pointer                  dcl 4-11
cobol_analin_fileno                    defined         pointer                  dcl 4-13
cobol_cmfp                             defined         pointer                  dcl 4-21
cobol_com_fileno                       defined         pointer                  dcl 4-23
cobol_com_ptr                          defined         pointer                  dcl 4-25
cobol_curr_in                          defined         pointer                  dcl 4-53
cobol_curr_out                         defined         pointer                  dcl 4-55
cobol_data_wd_off                      defined         fixed bin(17,0)          dcl 2-119
cobol_dfp                              defined         pointer                  dcl 4-27
cobol_eltp                             defined         pointer                  dcl 4-19
cobol_ext_$cobol_afp                   external static pointer                  dcl 4-10
cobol_ext_$cobol_analin_fileno         external static pointer                  dcl 4-12
cobol_ext_$cobol_cmfp                  external static pointer                  dcl 4-20
cobol_ext_$cobol_com_fileno            external static pointer                  dcl 4-22
cobol_ext_$cobol_com_ptr               external static pointer                  dcl 4-24
cobol_ext_$cobol_curr_in               external static pointer                  dcl 4-52
cobol_ext_$cobol_curr_out              external static pointer                  dcl 4-54
cobol_ext_$cobol_dfp                   external static pointer                  dcl 4-26
cobol_ext_$cobol_eltp                  external static pointer                  dcl 4-18
cobol_ext_$cobol_fileno1               external static fixed bin(24,0)          dcl 4-78
cobol_ext_$cobol_hfp                   external static pointer                  dcl 4-28
cobol_ext_$cobol_lpr                   external static char(5)                  packed unaligned dcl 4-95
cobol_ext_$cobol_m1fp                  external static pointer                  dcl 4-30
cobol_ext_$cobol_m2fp                  external static pointer                  dcl 4-32
cobol_ext_$cobol_min1_fileno           external static pointer                  dcl 4-34
cobol_ext_$cobol_min2_fileno_ptr       external static pointer                  dcl 4-36
cobol_ext_$cobol_name_fileno           external static pointer                  dcl 4-38
cobol_ext_$cobol_name_fileno_ptr       external static pointer                  dcl 4-40
cobol_ext_$cobol_ntfp                  external static pointer                  dcl 4-42
cobol_ext_$cobol_options               external static char(120)                packed unaligned dcl 4-97
cobol_ext_$cobol_options_len           external static fixed bin(24,0)          dcl 4-80
cobol_ext_$cobol_pdofp                 external static pointer                  dcl 4-44
cobol_ext_$cobol_pdout_fileno          external static fixed bin(24,0)          dcl 4-82
cobol_ext_$cobol_pfp                   external static pointer                  dcl 4-46
cobol_ext_$cobol_print_fileno          external static fixed bin(24,0)          dcl 4-84
cobol_ext_$cobol_rm2fp                 external static pointer                  dcl 4-48
cobol_ext_$cobol_rmin2_fileno          external static fixed bin(24,0)          dcl 4-86
cobol_ext_$cobol_rmin2fp               external static pointer                  dcl 4-50
cobol_ext_$cobol_rwdd                  external static pointer                  dcl 4-72
cobol_ext_$cobol_rwpd                  external static pointer                  dcl 4-74
cobol_ext_$cobol_sfp                   external static pointer                  dcl 4-56
cobol_ext_$cobol_w1p                   external static pointer                  dcl 4-58
cobol_ext_$cobol_w2p                   external static pointer                  dcl 4-60
cobol_ext_$cobol_w3p                   external static pointer                  dcl 4-62
cobol_ext_$cobol_w5p                   external static pointer                  dcl 4-64
cobol_ext_$cobol_w6p                   external static pointer                  dcl 4-66
cobol_ext_$cobol_w7p                   external static pointer                  dcl 4-68
cobol_ext_$cobol_x1_fileno             external static fixed bin(24,0)          dcl 4-88
cobol_ext_$cobol_x2_fileno             external static fixed bin(24,0)          dcl 4-90
cobol_ext_$cobol_x3_fileno             external static fixed bin(24,0)          dcl 4-92
cobol_ext_$cobol_x3fp                  external static pointer                  dcl 4-70
cobol_ext_$cobol_xlast8                external static bit(1)                   packed unaligned dcl 4-100
cobol_ext_$report_exists               external static bit(1)                   packed unaligned dcl 4-102
cobol_ext_$report_first_token          external static pointer                  dcl 4-14
cobol_ext_$report_last_token           external static pointer                  dcl 4-16
cobol_fileno1                          defined         fixed bin(24,0)          dcl 4-79
cobol_hfp                              defined         pointer                  dcl 4-29
cobol_lpr                              defined         char(5)                  packed unaligned dcl 4-96
cobol_m1fp                             defined         pointer                  dcl 4-31
cobol_m2fp                             defined         pointer                  dcl 4-33
cobol_min1_fileno                      defined         pointer                  dcl 4-35
cobol_min2_fileno_ptr                  defined         pointer                  dcl 4-37
cobol_name_fileno                      defined         pointer                  dcl 4-39
cobol_name_fileno_ptr                  defined         pointer                  dcl 4-41
cobol_ntfp                             defined         pointer                  dcl 4-43
cobol_options                          defined         char(120)                packed unaligned dcl 4-98
cobol_options_len                      defined         fixed bin(24,0)          dcl 4-81
cobol_pdofp                            defined         pointer                  dcl 4-45
cobol_pdout_fileno                     defined         fixed bin(24,0)          dcl 4-83
cobol_pfp                              defined         pointer                  dcl 4-47
cobol_print_fileno                     defined         fixed bin(24,0)          dcl 4-85
cobol_rm2fp                            defined         pointer                  dcl 4-49
cobol_rmin2_fileno                     defined         fixed bin(24,0)          dcl 4-87
cobol_rmin2fp                          defined         pointer                  dcl 4-51
cobol_rwdd                             defined         pointer                  dcl 4-73
cobol_rwpd                             defined         pointer                  dcl 4-75
cobol_sfp                              defined         pointer                  dcl 4-57
cobol_w1p                              defined         pointer                  dcl 4-59
cobol_w2p                              defined         pointer                  dcl 4-61
cobol_w3p                              defined         pointer                  dcl 4-63
cobol_w5p                              defined         pointer                  dcl 4-65
cobol_w6p                              defined         pointer                  dcl 4-67
cobol_w7p                              defined         pointer                  dcl 4-69
cobol_x1_fileno                        defined         fixed bin(24,0)          dcl 4-89
cobol_x2_fileno                        defined         fixed bin(24,0)          dcl 4-91
cobol_x3_fileno                        defined         fixed bin(24,0)          dcl 4-93
cobol_x3fp                             defined         pointer                  dcl 4-71
cobol_xlast8                           defined         bit(1)                   packed unaligned dcl 4-101
compile_count                          defined         fixed bin(17,0)          dcl 2-143
coms_charcnt                           defined         fixed bin(17,0)          dcl 2-189
coms_wdoff                             defined         fixed bin(17,0)          dcl 2-203
con_end_ptr                            defined         pointer                  dcl 2-11
con_wd_off                             defined         fixed bin(17,0)          dcl 2-93
cons_charcnt                           defined         fixed bin(17,0)          dcl 2-193
constant_offset                        defined         fixed bin(17,0)          dcl 2-157
data_init_flag                         defined         fixed bin(17,0)          dcl 2-131
date_compiled_sw                       defined         fixed bin(17,0)          dcl 2-181
debug_enable                           defined         fixed bin(17,0)          dcl 2-175
diag_ptr                               defined         pointer                  dcl 2-71
eln_max                                defined         fixed bin(17,0)          dcl 2-173
eln_ptr                                defined         pointer                  dcl 2-69
fixed_common                           based           structure                level 1 unaligned dcl 3-26
fixup_max                              defined         fixed bin(17,0)          dcl 2-165
fixup_ptr                              defined         pointer                  dcl 2-31
fs_charcnt                             defined         fixed bin(17,0)          dcl 2-185
fs_wdoff                               defined         fixed bin(17,0)          dcl 2-199
include_cnt                            defined         fixed bin(17,0)          dcl 2-183
include_info_ptr                       defined         pointer                  dcl 2-87
init_stack_off                         defined         fixed bin(17,0)          dcl 2-125
initval_base_ptr                       defined         pointer                  dcl 2-33
initval_file_ptr                       defined         pointer                  dcl 2-35
initval_flag                           defined         fixed bin(17,0)          dcl 2-179
link_base_ptr                          defined         pointer                  dcl 2-15
link_max                               defined         fixed bin(17,0)          dcl 2-101
link_wd_off                            defined         fixed bin(17,0)          dcl 2-99
list_off                               defined         fixed bin(17,0)          dcl 2-155
list_ptr                               defined         pointer                  dcl 2-65
ls_charcnt                             defined         fixed bin(17,0)          dcl 2-191
main_pcs_ptr                           defined         pointer                  dcl 2-85
map_data_max                           defined         fixed bin(17,0)          dcl 2-163
map_data_ptr                           defined         pointer                  dcl 2-55
max_stack_off                          defined         fixed bin(17,0)          dcl 2-123
minpral5_ptr                           defined         pointer                  dcl 2-51
misc_base_ptr                          defined         pointer                  dcl 2-61
misc_end_ptr                           defined         pointer                  dcl 2-63
misc_max                               defined         fixed bin(17,0)          dcl 2-159
next_tag                               defined         fixed bin(17,0)          dcl 2-129
non_source_offset                      defined         fixed bin(17,0)          dcl 2-177
ntbuf_ptr                              defined         pointer                  dcl 2-83
op_con_ptr                             defined         pointer                  dcl 2-81
para_eop_flag                          defined         fixed bin(17,0)          dcl 2-139
pd_map_index                           defined         fixed bin(17,0)          dcl 2-117
pd_map_max                             defined         fixed bin(17,0)          dcl 2-161
pd_map_ptr                             defined         pointer                  dcl 2-29
pd_map_sw                              defined         fixed bin(17,0)          dcl 2-127
perform_list_ptr                       defined         pointer                  dcl 2-37
perform_para_index                     defined         fixed bin(17,0)          dcl 2-149
perform_sect_index                     defined         fixed bin(17,0)          dcl 2-151
priority_no                            defined         fixed bin(17,0)          dcl 2-141
ptr_assumption_ind                     defined         fixed bin(17,0)          dcl 2-145
ptr_status_ptr                         defined         pointer                  dcl 2-57
reg_assumption_ind                     defined         fixed bin(17,0)          dcl 2-147
reg_status_ptr                         defined         pointer                  dcl 2-59
reloc_def_base_ptr                     defined         pointer                  dcl 2-21
reloc_def_max                          defined         fixed bin(24,0)          dcl 2-109
reloc_link_base_ptr                    defined         pointer                  dcl 2-23
reloc_link_max                         defined         fixed bin(24,0)          dcl 2-111
reloc_sym_base_ptr                     defined         pointer                  dcl 2-25
reloc_sym_max                          defined         fixed bin(24,0)          dcl 2-113
reloc_text_base_ptr                    defined         pointer                  dcl 2-19
reloc_text_max                         defined         fixed bin(24,0)          dcl 2-107
reloc_work_base_ptr                    defined         pointer                  dcl 2-27
reloc_work_max                         defined         fixed bin(24,0)          dcl 2-115
report_exists                          defined         bit(1)                   packed unaligned dcl 4-103
report_first_token                     defined         pointer                  dcl 4-15
report_last_token                      defined         pointer                  dcl 4-17
reswd_ptr                              defined         pointer                  dcl 2-79
same_sort_merge_proc                   defined         bit(1)                   dcl 2-215
scratch_dir                            defined         char(168)                dcl 2-207
sect_eop_flag                          defined         fixed bin(17,0)          dcl 2-137
seg_init_flag                          defined         fixed bin(17,0)          dcl 2-133
seg_init_list_ptr                      defined         pointer                  dcl 2-41
stack_off                              defined         fixed bin(17,0)          dcl 2-121
statement_info_ptr                     defined         pointer                  dcl 2-77
sym_base_ptr                           defined         pointer                  dcl 2-17
sym_max                                defined         fixed bin(17,0)          dcl 2-105
sym_wd_off                             defined         fixed bin(17,0)          dcl 2-103
tag_table_max                          defined         fixed bin(17,0)          dcl 2-167
tag_table_ptr                          defined         pointer                  dcl 2-53
temp_token_area_ptr                    defined         pointer                  dcl 2-43
temp_token_max                         defined         fixed bin(17,0)          dcl 2-169
temp_token_ptr                         defined         pointer                  dcl 2-45
text_base_ptr                          defined         pointer                  dcl 2-9
text_wd_off                            defined         fixed bin(17,0)          dcl 2-91
token_block1_ptr                       defined         pointer                  dcl 2-47
token_block2_ptr                       defined         pointer                  dcl 2-49
value_cnt                              defined         fixed bin(17,0)          dcl 2-195
ws_charcnt                             defined         fixed bin(17,0)          dcl 2-187
ws_wdoff                               defined         fixed bin(17,0)          dcl 2-201
xref_bypass                            defined         bit(1)                   dcl 2-213
xref_chain_ptr                         defined         pointer                  dcl 2-75
xref_token_ptr                         defined         pointer                  dcl 2-73

NAMES DECLARED BY EXPLICIT CONTEXT.
cobol_def_init                  000014 constant        entry                    external dcl 27
exit                            000244 constant        label                    dcl 236
start                           000021 constant        label                    dcl 145

THERE WERE NO NAMES DECLARED BY CONTEXT OR IMPLICATION.

STORAGE REQUIREMENTS FOR THIS PROGRAM.

	Object	Text	Link	Symbol	Defs	Static
Start          0       0       544         730     450         554
Length      1166     450       164         221      73         140

BLOCK NAME	         STACK SIZE     TYPE		WHY NONQUICK/WHO SHARES STACK FRAME
cobol_def_init                       93 external procedure  is an external procedure.

STORAGE FOR INTERNAL STATIC VARIABLES.

   LOC IDENTIFIER                  BLOCK NAME
000010 error_s                     cobol_def_init
000073 reloc_info                  cobol_def_init

STORAGE FOR AUTOMATIC VARIABLES.

STACK FRAME                 LOC IDENTIFIER                  BLOCK NAME
cobol_def_init           000100 def_ptr                     cobol_def_init
                         000102 len_segname_acc_str         cobol_def_init
                         000103 wd_len                      cobol_def_init
                         000104 temp                        cobol_def_init

THE FOLLOWING EXTERNAL OPERATORS ARE USED BY THIS PROGRAM.
call_ext_out_desc   call_ext_out        return_mac          ext_entry

THE FOLLOWING EXTERNAL ENTRIES ARE CALLED BY THIS PROGRAM.
cobol_reloc                   signal_

THE FOLLOWING EXTERNAL VARIABLES ARE USED BY THIS PROGRAM.
cobol_$def_base_ptr           cobol_$def_max                cobol_$def_wd_off             cobol_$obj_seg_name


   LINE    LOC      LINE    LOC      LINE    LOC      LINE    LOC      LINE    LOC      LINE    LOC      LINE    LOC
     27 000013       145 000021       148 000034       151 000035       152 000037       154 000041       158 000042
    159 000044       166 000047       168 000051       171 000054       172 000105       179 000106       180 000112
    181 000116       182 000120       183 000122       188 000124       189 000126       194 000127       195 000131
    196 000133       197 000135       198 000137       199 000143       200 000147       201 000151       206 000153
    207 000155       208 000157       209 000161       210 000163       211 000167       212 000173       213 000175
    218 000177       219 000201       220 000203       225 000210       226 000212       227 000216       232 000223
    236 000244


                                          -----------------------------------------------------------


Historical Background

This edition of the Multics software materials and documentation is provided and donated
to Massachusetts Institute of Technology by Group BULL including BULL HN Information Systems Inc.
as a contribution to computer science knowledge.
This donation is made also to give evidence of the common contributions of Massachusetts Institute of Technology,
Bell Laboratories, General Electric, Honeywell Information Systems Inc., Honeywell BULL Inc., Groupe BULL
and BULL HN Information Systems Inc. to the development of this operating system.
Multics development was initiated by Massachusetts Institute of Technology Project MAC (1963-1970),
renamed the MIT Laboratory for Computer Science and Artificial Intelligence in the mid 1970s, under the leadership
of Professor Fernando Jose Corbato. Users consider that Multics provided the best software architecture
for managing computer hardware properly and for executing programs. Many subsequent operating systems
incorporated Multics principles.
Multics was distributed in 1975 to 2000 by Group Bull in Europe , and in the U.S. by Bull HN Information Systems Inc.,
as successor in interest by change in name only to Honeywell Bull Inc. and Honeywell Information Systems Inc. .

                                          -----------------------------------------------------------

Permission to use, copy, modify, and distribute these programs and their documentation for any purpose and without
fee is hereby granted,provided that the below copyright notice and historical background appear in all copies
and that both the copyright notice and historical background and this permission notice appear in supporting
documentation, and that the names of MIT, HIS, BULL or BULL HN not be used in advertising or publicity pertaining
to distribution of the programs without specific prior written permission.
    Copyright 1972 by Massachusetts Institute of Technology and Honeywell Information Systems Inc.
    Copyright 2006 by BULL HN Information Systems Inc.
    Copyright 2006 by Bull SAS
    All Rights Reserved
