	COMPILATION LISTING OF SEGMENT cobol_make_fsb_link
	Compiled by: Multics PL/I Compiler, Release 31b, of April 24, 1989
	Compiled at: Bull HN, Phoenix AZ, System-M
	Compiled on: 05/24/89  0946.8 mst Wed
	    Options: optimize map

        1 /****^  ***********************************************************
        2*        *                                                         *
        3*        * Copyright, (C) BULL HN Information Systems Inc., 1989   *
        4*        *                                                         *
        5*        * Copyright, (C) Honeywell Information Systems Inc., 1982 *
        6*        *                                                         *
        7*        * Copyright (c) 1972 by Massachusetts Institute of        *
        8*        * Technology and Honeywell Information Systems, Inc.      *
        9*        *                                                         *
       10*        *********************************************************** */
       11
       12
       13
       14
       15 /****^  HISTORY COMMENTS:
       16*  1) change(89-04-23,Zimmerman), approve(89-04-23,MCR8090),
       17*     audit(89-05-05,RWaters), install(89-05-24,MR12.3-1048):
       18*     MCR8090 cobol_make_fsb_link.pl1 Disallow duplicate prime keys in Indexed
       19*     Sequential files.
       20*                                                   END HISTORY COMMENTS */
       21
       22
       23 /* Modified on 12/14/84 by FCH, [5.3-1],  BUG573(phx16343), cobol_fsb_type_1.incl.pl1 changed */
       24 /* Modified on 07/03/79 by FCH, [4.0-1], multiple sizes allowed for FSBs */
       25 /* Modified on 01/11/79 by FCH, [3.0-1], size of FSB computed */
       26 /* Modified since Version 3.0 */
       27
       28 /* format: style3 */
       29 cobol_make_fsb_link_:
       30 cobol_make_fsb_link:
       31      proc (ft_ptr);
       32
       33
       34 declare	linkoff		fixed bin,
       35 	ft_ptr		ptr;
       36
       37
       38 	if first_call ^= cobol_$compile_count
       39 	then do;
       40 		alloc_space = 0;
       41 		first_call = cobol_$compile_count;
       42 	     end;
       43
       44
       45 /*[4.0-1]*/
       46 	if file_table.alternate_keys > 0 & file_table.organization = 3
       47 	then fsb_init.n_words = size (fsb);
       48 	else fsb_init.n_words = 155;
       49
       50 	call cobol_make_link$type_5 (linkoff, file_table.id, addr (fsb_init), alloc_space);
       51
       52 	file_table.fsb.seg = -linkoff;
       53 	file_table.fsb.off = 0;
       54
       55 	return;
       56
       57
       58 /*
       59*	This procedure defines a type-5 link for a file state block. If an indexed
       60*file having alternate record keys is being considered then the size of the link is
       61*computed using the size builtin function.
       62**/
       63
       64
       65 /* STATIC DECLARATIONS */
       66
       67 dcl	1 fsb_init	aligned static,
       68 	  2 n_words	fixed bin (35) init (0),
       69 	  2 code		fixed bin (35) init (3),
       70 	  2 iocb_ptr	ptr init (null ()),
       71 	  2 open_mode	fixed bin (35) init (0),
       72 	  2 max_cra_size	fixed bin (35) init (0),
       73 	  2 relkeylen	fixed bin (35) init (0),
       74 	  2 relkey	fixed bin (35) init (0),
       75 	  2 keylen_sw	fixed bin (35) init (0),
       76 	  2 key		char (256) init (""),
       77 	  2 open_close_name char (65) unal init (" "),	/*[5.3-1]*/
       78 	  2 attach_flag	bit (27) unal init ("0"b),
       79 	  2 linage_counter	char (8) aligned init ((8)"0"),
       80 						/*[5.3-1]*/
       81 	  2 indicators,				/*[5.3-1]*/
       82 	    3 optional	bit (36) init ("0"b),	/*[5.3-1]*/
       83 	    3 opened	bit (36) init ("0"b),	/*[5.3-1]*/
       84 	    3 internal	bit (36) init ("001"b),	/*[5.3-1]*/
       85 	  2 vfile_open_mode fixed bin (35) init (0),	/*[5.3-1]*/
       86 	  2 file_desc_ptr	ptr init (null ()),		/*[5.3-1]*/
       87 	  2 cobol_open_mode fixed bin (35) init (0),	/*[5.3-1]*/
       88 	  2 last_cobol_op	fixed bin (35) init (0),	/*[5.3-1]*/
       89 	  2 fsb_code	fixed bin (35) init (0),	/*[5.3-1]*/
       90 	  2 key_of_ref	fixed bin (35) init (0),	/*[5.3-1]*/
       91 	  2 prime_key	char (256) varying init (""), /*[5.3-1]*/
       92 	  2 alt_key	char (256) varying init (""), /*[5.3-1]*/
       93 	  2 descriptor	fixed bin (35) init (0),	/*[5.3-1]*/
       94 	  2 last_key_read	char (256) varying init ("");
       95
       96 declare	(alloc_space, first_call)
       97 			fixed bin static;
       98
       99 /* EXTERNAL ENTRY NAMES */
      100
      101 dcl	cobol_make_link$type_5
      102 			entry (fixed bin, char (*), ptr, fixed bin);
      103
      104 /* BUILTIN FUNCTIONS */
      105
      106 dcl	(substr, mod, binary, fixed, addr, addrel, rel, length, string, unspec, null, index, size)
      107 			builtin;
      108
      109
      110
  1     1 /* BEGIN INCLUDE FILE ... cobol_fsb_type_1.incl.pl1 */
  1     2
  1     3
  1     4 /****^  HISTORY COMMENTS:
  1     5*  1) change(89-04-23,Zimmerman), approve(89-04-23,MCR8090),
  1     6*     audit(89-05-05,RWaters), install(89-05-24,MR12.3-1048):
  1     7*     MCR8090 cobol_fsb_type_1.incl.pl1 Disallow duplicate prime keys in Indexed
  1     8*     Sequential files.
  1     9*                                                   END HISTORY COMMENTS */
  1    10
  1    11
  1    12 /* Modified on 12/14/84 by FCH, [5.3-1], BUG574, save last prime key read */
  1    13 /* Last Modified on Oct. 16, 1978 by FCH */
  1    14
  1    15
  1    16      dcl	   fsb_ptr	      ptr;
  1    17
  1    18      dcl	   1 fsb		      based (fsb_ptr),
  1    19 	     2 fsb_skel	      aligned like fsbskel,
  1    20 	     2 key_of_ref	      fixed bin (35),
  1    21 	     2 crp,
  1    22 	       3 prime_key	      char (256) varying,
  1    23 	       3 alt_key	      char (256) varying,
  1    24 	       3 descriptor	      fixed bin (35),
  1    25 	     2 last_key_read      char (256) varying;	/*[5.3-1]*/
  1    26
  1    27 /*
  1    28*
  1    29*FIELD		CONTENTS
  1    30*
  1    31*key_of_ref	key of reference
  1    32*		1 ,... ,510: alternate key
  1    33*		511: prime key
  1    34*crp		current record pointer
  1    35*prime_key		value of prime key
  1    36*		"" designates end-of-file
  1    37*alt_key		value of key of reference
  1    38*descriptor	descriptor for key of reference
  1    39*last_read_key	value of the prime key in the last record read
  1    40**/
  1    41
  1    42 /* END INCLUDE FILE ... cobol_fsb_type_1.incl.pl1 */
      111
  2     1
  2     2 /* BEGIN INCLUDE FILE ... cobol_fsbskel.incl.pl1 */
  2     3
  2     4
  2     5 /****^  HISTORY COMMENTS:
  2     6*  1) change(89-04-23,Zimmerman), approve(89-04-23,MCR8090),
  2     7*     audit(89-05-05,RWaters), install(89-05-24,MR12.3-1048):
  2     8*     MCR8090 cobol_fsbskel.incl.pl1 Disallow duplicate prime keys in Indexed
  2     9*     Sequential files.
  2    10*                                                   END HISTORY COMMENTS */
  2    11
  2    12
  2    13 /* Modified on 12/19/84 by FCH */
  2    14 /* Last Modified on Oct. 16, 1978 by FCH */
  2    15
  2    16      dcl	   1 fsbskel	      aligned based,
  2    17 	     2 iocb_ptr	      ptr,
  2    18 	     2 open_mode	      fixed bin (35),
  2    19 	     2 max_cra_size	      fixed bin (35),
  2    20 	     2 relkeylen	      fixed bin (35),
  2    21 	     2 relkey	      fixed bin (35),
  2    22 	     2 keylen_sw	      fixed bin (35),
  2    23 	     2 key	      char (256) aligned,
  2    24 	     2 open_close_name    char (65) unal,
  2    25 	     2 attach_flag	      bit (1) unal,		/* only cobol_control seems to use this item */
  2    26 	     2 linage_counter     char (8) aligned,
  2    27 	     2 indicators,
  2    28 	       3 optional	      bit (2),
  2    29 	       3 opened	      bit (1),		/* initialized to "" by 5.3 and previous versions */
  2    30 	       3 internal	      bit (1) unal,		/* initialized to "" by 5.3 and previous versions */
  2    31 	       3 lock	      bit (1) unal,
  2    32 	       3 mod1	      bit (1) unal,
  2    33 	     2 vfile_open_mode    fixed bin (35),
  2    34 	     2 file_desc_ptr      ptr,
  2    35 	     2 cobol_open_mode    fixed bin (35),
  2    36 	     2 last_cobol_op      fixed bin (35),
  2    37 	     2 code	      fixed bin (35);
  2    38
  2    39 /*
  2    40*
  2    41*FIELD		CONTENTS
  2    42*
  2    43*iocb_ptr		pointer to iocb, set by open
  2    44*opened		file opened at least once
  2    45*internal		0 if external, 1 if internal
  2    46*lock		0 if no lock, 1 if lock, reset by start of new
  2    47*		run unit
  2    48*mod1		set to "1"b if the fsb contains the key of the
  2    49*		last record read from the file, present in 5.3
  2    50*		and subsequent versions
  2    51*file_desc_ptr	pointer to the file description
  2    52*vfile_open_mode	open mode established by iox_$open
  2    53*			1,2,3		stream_(i o i-o)
  2    54*			4,5,6,7		seq_(i o i-o u)
  2    55*			8,9,10		k_s_(i o u)
  2    56*			11,12,13		d_(i o u)
  2    57*cobol_open_mode	open mode established by open statement
  2    58*			21		i, seq
  2    59*			53		o, seq
  2    60*			37		i-o, seq
  2    61*			5		e, seq
  2    62*
  2    63*			25,26,27		i, rel(seq,ran,dyn)
  2    64*			57,58,59		o, rel(seq,ran,dyn)
  2    65*			41,42,43		i-o,rel(seq,ran,dyn)
  2    66*
  2    67*			29,30,31		i, ind(seq,ran,dyn)
  2    68*			61,62,63		o, ind(seq,ran,dyn)
  2    69*			45,46,47		i-o, ind(seq,ran,dyn)
  2    70*last_cobol_op	COBOL I/O statement last executed
  2    71*			1 open		5 read key
  2    72*			2 close		6 rewrite
  2    73*			3 start		7 delete
  2    74*			4 read next	8 write
  2    75*code		last vfile_ error code
  2    76**/
  2    77
  2    78 /* END INCLUDE FILE ... cobol_fsbskel.incl.pl1 */
  2    79
      112
  3     1
  3     2 /* BEGIN INCLUDE FILE ...   cobol_file_table.incl.pl1 */
  3     3 /*     <<<   INCLUDE FILE FOR FILE TABLE IN COMMON   >>>     */
  3     4
  3     5 /* Modified on 09/30/80 by FCH, [4.4-1], density is 6250 is supported */
  3     6 /* Modified on 12/05/78 by RAL, [3.0-3], added dupl_alt from dummy102 */
  3     7 /* Modified on 11/21/78 by RAL, [3.0-2], added space for abs_record_offset from filler */
  3     8 /* Modified on 10/26/78 by RAL, [3.0-1], added space for file_desc_1 table offset from filler */
  3     9 /*     <<<   LAST MODIFIED ON 06-02-77 by GM         >>>	*/
  3    10 /*     <<<   LAST MODIFIED ON 05-31-77 by GM         >>>	*/
  3    11 /*     <<<   LAST MODIFIED  ON 06-30-76 by GM        >>>	*/
  3    12 /*     <<<   LAST MODIFIED ON 06-07-76 by GM    >>>     */
  3    13 /*     <<<   LAST MODIFIED ON 11-29-74 by orn   >>>     */
  3    14
  3    15 /*
  3    16*A file table is created in variable common for each file selected in the
  3    17*environment division.  The fields of a given file table provide information
  3    18*about the specific file for which the file table is generated.  The
  3    19*addresses which may be contained in the various "info" fields of the file
  3    20*table are addresses in variable common.
  3    21**/
  3    22
  3    23 /*   THE FILE TABLE STRUCTURE   */
  3    24
  3    25 dcl	1 file_table based (ft_ptr),
  3    26 		2 next char (5),
  3    27 		2 ifn char (16),
  3    28 		2 attach_options_info char(5),	/*06/02/77*/
  3    29 		2 replacement_info char(5),		/*06/02/77*/
  3    30 		2 file_id_info char(5),		/*05/31/77*/
  3    31 		2 retention_info char(5),		/*05/31/77*/
  3    32 		2 filler0 char (3) ,			/* [3.0-1] */
  3    33 		2 file_desc_1_offset fixed bin (24),		/* [3.0-1] */
  3    34 		2 abs_record_offset fixed bin (24),		/* [3.-02] */
  3    35 		2 filler char(5),		/* this area is available.*/
  3    36 		2 padding_char char (1),
  3    37 		2 banner_char char (1),
  3    38 		2 file_status_info char (5),
  3    39 		2 extra_status_info char (5),
  3    40 		2 cat_id_info char (5),
  3    41 		2 r_key_info char (5),
  3    42 		2 alt_key_info char (5),
  3    43 		2 rec_do_info char (5),
  3    44 		2 label_info char (5),
  3    45 		2 data_info char (5),
  3    46 		2 report_info char (5),
  3    47 		2 linage_info char (5),
  3    48 		2 optional bit (1),						/*06/07/76*/
  3    49 		2 external bit (1),
  3    50 		2 file_status bit (1),
  3    51 		2 extra_status bit (1),
  3    52 		2 sysin bit (1),
  3    53 		2 sysout bit (1),
  3    54 		2 move_mode bit (1),
  3    55 		2 locate_mode bit (1),
  3    56 		2 fixed_recs bit (1),
  3    57 		2 variable_recs bit (1),
  3    58 		2 spanned_recs bit (1),				/*06/07/76*/
  3    59 		2 interchange bit (1),				/*06/07/76*/
  3    60 		2 relative_key bit (1),
  3    61 		2 record_key bit (1),
  3    62 		2 even_parity bit (1),
  3    63 		2 odd_parity bit (1),
  3    64 		2 padding bit (1),
  3    65 		2 banner bit (1),
  3    66 		2 random bit (1),
  3    67 		2 no_file_lockout bit (1),
  3    68 		2 no_write_check bit (1),
  3    69 		2 no_resident_index bit (1),
  3    70 		2 same_file bit (1),
  3    71 		2 sort_file bit (1),
  3    72 		2 rec_do bit (1),
  3    73 		2 linage bit (1),
  3    74 		2 code_set_clause bit (1),
  3    75 		/* history */
  3    76 		2 close bit (1),
  3    77 		2 delete bit (1),
  3    78 		2 open_in bit (1),
  3    79 		2 open_out bit (1),
  3    80 		2 open_io bit (1),
  3    81 		2 open_ext bit (1),
  3    82 		2 read bit (1),
  3    83 		2 release bit (1),
  3    84 		2 return_bit bit (1),
  3    85 		2 rewrite bit (1),
  3    86 		2 sort bit (1),
  3    87 		2 start bit (1),
  3    88 		2 use_error bit (1),
  3    89 		2 write bit (1),
  3    90 		2 read_next bit (1),
  3    91 		2 read_key bit (1),
  3    92 		2 accept bit (1),
  3    93 		2 display bit (1),
  3    94 		2 unequal_recs bit (1),
  3    95 		2 dummy_sysin bit (1),
  3    96 		2 dummy_sysout bit (1),
  3    97 		2 file_no fixed bin,
  3    98 		2 uca_offset fixed bin(24),
  3    99 		2 cra_seg fixed bin,
  3   100 		2 cra_offset fixed bin(24),
  3   101 		2 max_cra_size fixed bin(24),
  3   102 		2 catalogued fixed bin,
  3   103 		2 organization fixed bin,
  3   104 		2 org_qual fixed bin,
  3   105 		2 access fixed bin,
  3   106 		2 buffers fixed bin,
  3   107 		2 device fixed bin,
  3   108 		2 record_prefix fixed bin,				/*06/07/76*/
  3   109 		2 alternate_keys fixed bin,
  3   110 		2 record_format fixed bin,
  3   111 		2 label_format fixed bin,
  3   112 		2 key_location fixed bin,
  3   113 		2 key_size fixed bin,
  3   114 		2 temporary fixed bin,
  3   115 		2 address_format fixed bin,
  3   116 		2 same_area_clause fixed bin,
  3   117 		2 same_rec_clause fixed bin,
  3   118 		2 same_sort_clause fixed bin,
  3   119 		2 mult_clause_no fixed bin,
  3   120 		2 mult_position_no fixed bin,
  3   121 		2 block_desc fixed bin,
  3   122 		2 block_min fixed bin(24),
  3   123 		2 block_max fixed bin(24),
  3   124 		2 rec_min fixed bin(24),
  3   125 		2 rec_max fixed bin(24),
  3   126 		2 label_count fixed bin,
  3   127 		2 ifn_size fixed bin,
  3   128 		2 data_count fixed bin,
  3   129 		2 report_count fixed bin,
  3   130 		2 code_set fixed bin,
  3   131 		2 error_exit fixed bin,
  3   132 		2 prefix_size fixed bin,
  3   133 		2 blocked bit (1),
  3   134 		2 variable bit (1),
  3   135 		2 unbannered bit (1),
  3   136 		2 prefix_clause bit (1),
  3   137 		2 symbolic bit (1),
  3   138 		2 address_format_bit bit (1),
  3   139 		2 bsn bit(1),						/*06/07/76*/
  3   140 		2 process_area bit(1),					/*06/07/76*/
  3   141 		2 dupl_alt bit (1),			/* [3.0-3] */
  3   142 		2 dummy102 bit (23),
  3   143 		2 name_size fixed bin,
  3   144 		2 name char(32),
  3   145 		2 id char(32),
  3   146 		2 temp bit(1) ,
  3   147 		2 perm bit(1) ,
  3   148 		2 attach bit(1) ,
  3   149 		2 detach bit(1) ,
  3   150 		2 fsb ,		/* file state block */
  3   151 		     3 seg fixed bin(24), /* internal addr */
  3   152 		     3 off fixed bin(24),
  3   153 		2 tape,
  3   154 		     3 density bit(1) ,	/* 0-hi 1-lo */
  3   155 		     3 retain bit(1),	/* 0 not retained across attachment, 1 retained */
  3   156 		     3 force bit(1),	/* 0 check retention date, 1 no check */
  3   157 		     3 protect bit(1) ,	/* 0-no 1-yes */
  3   158 		     3 den_6250 bit(1),	/* 0-no 1-yes */		/*[4.4-1]*/
  3   159 		2 cat_nm char(200),
  3   160 		2 ao_len fixed bin(24),		/* attach options */
  3   161 		2 ao_string char(256),
  3   162 		2 output_mode fixed bin,	/*	0 not specified
  3   163*						1 generation
  3   164*						2 modification
  3   165*						3 replacement literal
  3   166*						4 replacement dataname	*/
  3   167 		2 om_len	fixed bin,		/* length of output mode */
  3   168 		2 om_string char(17),
  3   169 		2 tape_device fixed bin,	/*	0 not specified
  3   170*						1 integer
  3   171*						2 dataname	*/
  3   172 		2 tape_device_num fixed bin,
  3   173 		2 tape_device_key char(5),
  3   174 		2 add_cat_key char(5);
  3   175
  3   176
  3   177 /* END INCLUDE FILE ...   cobol_file_table.incl.pl1 */
  3   178
      113
  4     1
  4     2 /* BEGIN INCLUDE FILE ... cobol_.incl.pl1 */
  4     3 /* last modified Feb 4, 1977 by ORN  */
  4     4
  4     5 /* This file defines all external data used in the generator phase of Multics Cobol */
  4     6
  4     7 /* POINTERS */
  4     8 dcl cobol_$text_base_ptr ptr  ext;
  4     9 dcl text_base_ptr ptr  defined (cobol_$text_base_ptr);
  4    10 dcl cobol_$con_end_ptr ptr  ext;
  4    11 dcl con_end_ptr ptr  defined (cobol_$con_end_ptr);
  4    12 dcl cobol_$def_base_ptr ptr  ext;
  4    13 dcl def_base_ptr ptr  defined (cobol_$def_base_ptr);
  4    14 dcl cobol_$link_base_ptr ptr  ext;
  4    15 dcl link_base_ptr ptr  defined (cobol_$link_base_ptr);
  4    16 dcl cobol_$sym_base_ptr ptr  ext;
  4    17 dcl sym_base_ptr ptr  defined (cobol_$sym_base_ptr);
  4    18 dcl cobol_$reloc_text_base_ptr ptr  ext;
  4    19 dcl reloc_text_base_ptr ptr  defined (cobol_$reloc_text_base_ptr);
  4    20 dcl cobol_$reloc_def_base_ptr ptr  ext;
  4    21 dcl reloc_def_base_ptr ptr  defined (cobol_$reloc_def_base_ptr);
  4    22 dcl cobol_$reloc_link_base_ptr ptr  ext;
  4    23 dcl reloc_link_base_ptr ptr  defined (cobol_$reloc_link_base_ptr);
  4    24 dcl cobol_$reloc_sym_base_ptr ptr  ext;
  4    25 dcl reloc_sym_base_ptr ptr  defined (cobol_$reloc_sym_base_ptr);
  4    26 dcl cobol_$reloc_work_base_ptr ptr  ext;
  4    27 dcl reloc_work_base_ptr ptr  defined (cobol_$reloc_work_base_ptr);
  4    28 dcl cobol_$pd_map_ptr ptr  ext;
  4    29 dcl pd_map_ptr ptr  defined (cobol_$pd_map_ptr);
  4    30 dcl cobol_$fixup_ptr ptr  ext;
  4    31 dcl fixup_ptr ptr  defined (cobol_$fixup_ptr);
  4    32 dcl cobol_$initval_base_ptr ptr  ext;
  4    33 dcl initval_base_ptr ptr  defined (cobol_$initval_base_ptr);
  4    34 dcl cobol_$initval_file_ptr ptr  ext;
  4    35 dcl initval_file_ptr ptr  defined (cobol_$initval_file_ptr);
  4    36 dcl cobol_$perform_list_ptr ptr  ext;
  4    37 dcl perform_list_ptr ptr  defined (cobol_$perform_list_ptr);
  4    38 dcl cobol_$alter_list_ptr ptr  ext;
  4    39 dcl alter_list_ptr ptr  defined (cobol_$alter_list_ptr);
  4    40 dcl cobol_$seg_init_list_ptr ptr  ext;
  4    41 dcl seg_init_list_ptr ptr  defined (cobol_$seg_init_list_ptr);
  4    42 dcl cobol_$temp_token_area_ptr ptr  ext;
  4    43 dcl temp_token_area_ptr ptr  defined (cobol_$temp_token_area_ptr);
  4    44 dcl cobol_$temp_token_ptr ptr  ext;
  4    45 dcl temp_token_ptr ptr  defined (cobol_$temp_token_ptr);
  4    46 dcl cobol_$token_block1_ptr ptr  ext;
  4    47 dcl token_block1_ptr ptr  defined (cobol_$token_block1_ptr);
  4    48 dcl cobol_$token_block2_ptr ptr  ext;
  4    49 dcl token_block2_ptr ptr  defined (cobol_$token_block2_ptr);
  4    50 dcl cobol_$minpral5_ptr ptr  ext;
  4    51 dcl minpral5_ptr ptr  defined (cobol_$minpral5_ptr);
  4    52 dcl cobol_$tag_table_ptr ptr  ext;
  4    53 dcl tag_table_ptr ptr  defined (cobol_$tag_table_ptr);
  4    54 dcl cobol_$map_data_ptr ptr  ext;
  4    55 dcl map_data_ptr ptr  defined (cobol_$map_data_ptr);
  4    56 dcl cobol_$ptr_status_ptr ptr  ext;
  4    57 dcl ptr_status_ptr ptr  defined (cobol_$ptr_status_ptr);
  4    58 dcl cobol_$reg_status_ptr ptr  ext;
  4    59 dcl reg_status_ptr ptr  defined (cobol_$reg_status_ptr);
  4    60 dcl cobol_$misc_base_ptr ptr ext;
  4    61 dcl misc_base_ptr ptr defined (cobol_$misc_base_ptr);
  4    62 dcl cobol_$misc_end_ptr ptr ext;
  4    63 dcl misc_end_ptr ptr defined (cobol_$misc_end_ptr);
  4    64 dcl cobol_$list_ptr ptr ext;
  4    65 dcl list_ptr ptr defined (cobol_$list_ptr);
  4    66 dcl cobol_$allo1_ptr ptr ext;
  4    67 dcl allo1_ptr ptr defined (cobol_$allo1_ptr);
  4    68 dcl cobol_$eln_ptr ptr ext;
  4    69 dcl eln_ptr ptr defined (cobol_$eln_ptr);
  4    70 dcl cobol_$diag_ptr ptr ext;
  4    71 dcl diag_ptr ptr defined (cobol_$diag_ptr);
  4    72 dcl cobol_$xref_token_ptr ptr ext;
  4    73 dcl xref_token_ptr ptr defined (cobol_$xref_token_ptr);
  4    74 dcl cobol_$xref_chain_ptr ptr ext;
  4    75 dcl xref_chain_ptr ptr defined (cobol_$xref_chain_ptr);
  4    76 dcl cobol_$statement_info_ptr ptr ext;
  4    77 dcl statement_info_ptr ptr defined (cobol_$statement_info_ptr);
  4    78 dcl cobol_$reswd_ptr ptr ext;
  4    79 dcl reswd_ptr ptr defined (cobol_$reswd_ptr);
  4    80 dcl cobol_$op_con_ptr ptr ext;
  4    81 dcl op_con_ptr ptr defined (cobol_$op_con_ptr);
  4    82 dcl cobol_$ntbuf_ptr ptr ext;
  4    83 dcl ntbuf_ptr ptr defined (cobol_$ntbuf_ptr);
  4    84 dcl cobol_$main_pcs_ptr ptr ext;
  4    85 dcl main_pcs_ptr ptr defined (cobol_$main_pcs_ptr);
  4    86 dcl cobol_$include_info_ptr ptr ext;
  4    87 dcl include_info_ptr ptr defined (cobol_$include_info_ptr);
  4    88
  4    89 /* FIXED BIN */
  4    90 dcl cobol_$text_wd_off fixed bin  ext;
  4    91 dcl text_wd_off fixed bin  defined (cobol_$text_wd_off);
  4    92 dcl cobol_$con_wd_off fixed bin  ext;
  4    93 dcl con_wd_off fixed bin  defined (cobol_$con_wd_off);
  4    94 dcl cobol_$def_wd_off fixed bin  ext;
  4    95 dcl def_wd_off fixed bin  defined (cobol_$def_wd_off);
  4    96 dcl cobol_$def_max fixed bin  ext;
  4    97 dcl def_max fixed bin  defined (cobol_$def_max);
  4    98 dcl cobol_$link_wd_off fixed bin  ext;
  4    99 dcl link_wd_off fixed bin  defined (cobol_$link_wd_off);
  4   100 dcl cobol_$link_max fixed bin  ext;
  4   101 dcl link_max fixed bin  defined (cobol_$link_max);
  4   102 dcl cobol_$sym_wd_off fixed bin  ext;
  4   103 dcl sym_wd_off fixed bin  defined (cobol_$sym_wd_off);
  4   104 dcl cobol_$sym_max fixed bin  ext;
  4   105 dcl sym_max fixed bin  defined (cobol_$sym_max);
  4   106 dcl cobol_$reloc_text_max fixed bin(24)  ext;
  4   107 dcl reloc_text_max fixed bin(24)  defined (cobol_$reloc_text_max);
  4   108 dcl cobol_$reloc_def_max fixed bin(24)  ext;
  4   109 dcl reloc_def_max fixed bin(24)  defined (cobol_$reloc_def_max);
  4   110 dcl cobol_$reloc_link_max fixed bin(24)  ext;
  4   111 dcl reloc_link_max fixed bin(24)  defined (cobol_$reloc_link_max);
  4   112 dcl cobol_$reloc_sym_max fixed bin(24)  ext;
  4   113 dcl reloc_sym_max fixed bin(24)  defined (cobol_$reloc_sym_max);
  4   114 dcl cobol_$reloc_work_max fixed bin(24)  ext;
  4   115 dcl reloc_work_max fixed bin(24)  defined (cobol_$reloc_work_max);
  4   116 dcl cobol_$pd_map_index fixed bin  ext;
  4   117 dcl pd_map_index fixed bin  defined (cobol_$pd_map_index);
  4   118 dcl cobol_$cobol_data_wd_off fixed bin  ext;
  4   119 dcl cobol_data_wd_off fixed bin  defined (cobol_$cobol_data_wd_off);
  4   120 dcl cobol_$stack_off fixed bin  ext;
  4   121 dcl stack_off fixed bin  defined (cobol_$stack_off);
  4   122 dcl cobol_$max_stack_off fixed bin  ext;
  4   123 dcl max_stack_off fixed bin  defined (cobol_$max_stack_off);
  4   124 dcl cobol_$init_stack_off fixed bin  ext;
  4   125 dcl init_stack_off fixed bin  defined (cobol_$init_stack_off);
  4   126 dcl cobol_$pd_map_sw fixed bin  ext;
  4   127 dcl pd_map_sw fixed bin  defined (cobol_$pd_map_sw);
  4   128 dcl cobol_$next_tag fixed bin  ext;
  4   129 dcl next_tag fixed bin  defined (cobol_$next_tag);
  4   130 dcl cobol_$data_init_flag fixed bin  ext;
  4   131 dcl data_init_flag fixed bin  defined (cobol_$data_init_flag);
  4   132 dcl cobol_$seg_init_flag fixed bin  ext;
  4   133 dcl seg_init_flag fixed bin  defined (cobol_$seg_init_flag);
  4   134 dcl cobol_$alter_flag fixed bin  ext;
  4   135 dcl alter_flag fixed bin  defined (cobol_$alter_flag);
  4   136 dcl cobol_$sect_eop_flag fixed bin  ext;
  4   137 dcl sect_eop_flag fixed bin  defined (cobol_$sect_eop_flag);
  4   138 dcl cobol_$para_eop_flag fixed bin  ext;
  4   139 dcl para_eop_flag fixed bin  defined (cobol_$para_eop_flag);
  4   140 dcl cobol_$priority_no fixed bin  ext;
  4   141 dcl priority_no fixed bin  defined (cobol_$priority_no);
  4   142 dcl cobol_$compile_count fixed bin ext;
  4   143 dcl compile_count fixed bin defined (cobol_$compile_count);
  4   144 dcl cobol_$ptr_assumption_ind fixed bin ext;
  4   145 dcl ptr_assumption_ind fixed bin defined (cobol_$ptr_assumption_ind);
  4   146 dcl cobol_$reg_assumption_ind fixed bin ext;
  4   147 dcl reg_assumption_ind fixed bin defined (cobol_$reg_assumption_ind);
  4   148 dcl cobol_$perform_para_index fixed bin ext;
  4   149 dcl perform_para_index fixed bin defined (cobol_$perform_para_index);
  4   150 dcl cobol_$perform_sect_index fixed bin ext;
  4   151 dcl perform_sect_index fixed bin defined (cobol_$perform_sect_index);
  4   152 dcl cobol_$alter_index fixed bin ext;
  4   153 dcl alter_index fixed bin defined (cobol_$alter_index);
  4   154 dcl cobol_$list_off fixed bin ext;
  4   155 dcl list_off fixed bin defined (cobol_$list_off);
  4   156 dcl cobol_$constant_offset fixed bin ext;
  4   157 dcl constant_offset fixed bin defined (cobol_$constant_offset);
  4   158 dcl cobol_$misc_max fixed bin ext;
  4   159 dcl misc_max fixed bin defined (cobol_$misc_max);
  4   160 dcl cobol_$pd_map_max fixed bin ext;
  4   161 dcl pd_map_max fixed bin defined (cobol_$pd_map_max);
  4   162 dcl cobol_$map_data_max fixed bin ext;
  4   163 dcl map_data_max fixed bin defined (cobol_$map_data_max);
  4   164 dcl cobol_$fixup_max fixed bin ext;
  4   165 dcl fixup_max fixed bin defined (cobol_$fixup_max);
  4   166 dcl cobol_$tag_table_max fixed bin ext;
  4   167 dcl tag_table_max fixed bin defined (cobol_$tag_table_max);
  4   168 dcl cobol_$temp_token_max fixed bin ext;
  4   169 dcl temp_token_max fixed bin defined (cobol_$temp_token_max);
  4   170 dcl cobol_$allo1_max fixed bin ext;
  4   171 dcl allo1_max fixed bin defined (cobol_$allo1_max);
  4   172 dcl cobol_$eln_max fixed bin ext;
  4   173 dcl eln_max fixed bin defined (cobol_$eln_max);
  4   174 dcl cobol_$debug_enable fixed bin ext;
  4   175 dcl debug_enable fixed bin defined (cobol_$debug_enable);
  4   176 dcl cobol_$non_source_offset fixed bin ext;
  4   177 dcl non_source_offset fixed bin defined (cobol_$non_source_offset);
  4   178 dcl cobol_$initval_flag fixed bin ext;
  4   179 dcl initval_flag fixed bin defined (cobol_$initval_flag);
  4   180 dcl cobol_$date_compiled_sw fixed bin ext;
  4   181 dcl date_compiled_sw fixed bin defined (cobol_$date_compiled_sw);
  4   182 dcl cobol_$include_cnt fixed bin ext;
  4   183 dcl include_cnt fixed bin defined (cobol_$include_cnt);
  4   184 dcl cobol_$fs_charcnt fixed bin ext;
  4   185 dcl fs_charcnt fixed bin defined (cobol_$fs_charcnt);
  4   186 dcl cobol_$ws_charcnt fixed bin ext;
  4   187 dcl ws_charcnt fixed bin defined (cobol_$ws_charcnt);
  4   188 dcl cobol_$coms_charcnt fixed bin ext;
  4   189 dcl coms_charcnt fixed bin defined (cobol_$coms_charcnt);
  4   190 dcl cobol_$ls_charcnt fixed bin ext;
  4   191 dcl ls_charcnt fixed bin defined (cobol_$ls_charcnt);
  4   192 dcl cobol_$cons_charcnt fixed bin ext;
  4   193 dcl cons_charcnt fixed bin defined (cobol_$cons_charcnt);
  4   194 dcl cobol_$value_cnt fixed bin ext;
  4   195 dcl value_cnt fixed bin defined (cobol_$value_cnt);
  4   196 dcl cobol_$cd_cnt fixed bin ext;
  4   197 dcl cd_cnt fixed bin defined (cobol_$cd_cnt);
  4   198 dcl cobol_$fs_wdoff fixed bin ext;
  4   199 dcl fs_wdoff fixed bin defined (cobol_$fs_wdoff);
  4   200 dcl cobol_$ws_wdoff fixed bin ext;
  4   201 dcl ws_wdoff fixed bin defined (cobol_$ws_wdoff);
  4   202 dcl cobol_$coms_wdoff fixed bin ext;
  4   203 dcl coms_wdoff fixed bin defined (cobol_$coms_wdoff);
  4   204
  4   205 /* CHARACTER */
  4   206 dcl cobol_$scratch_dir char (168)   aligned ext;
  4   207 dcl scratch_dir char (168)   aligned defined (cobol_$scratch_dir);			/* -42- */
  4   208 dcl cobol_$obj_seg_name char (32)   aligned ext;
  4   209 dcl obj_seg_name char (32)   aligned defined (cobol_$obj_seg_name);		/* -8- */
  4   210
  4   211 /* BIT */
  4   212 dcl cobol_$xref_bypass bit(1) aligned ext;
  4   213 dcl xref_bypass bit(1) aligned defined (cobol_$xref_bypass);			/* -1- */
  4   214 dcl cobol_$same_sort_merge_proc bit(1) aligned ext;
  4   215 dcl same_sort_merge_proc bit(1) aligned defined (cobol_$same_sort_merge_proc);		/* -1- */
  4   216
  4   217
  4   218 /* END INCLUDE FILE ... cobol_incl.pl1*/
  4   219
  4   220
      114
      115      end cobol_make_fsb_link;
	SOURCE FILES USED IN THIS COMPILATION.

LINE      NUMBER  DATE MODIFIED     NAME			PATHNAME
             0    05/24/89  0830.5  cobol_make_fsb_link.pl1           >spec>install>MR12.3-1048>cobol_make_fsb_link.pl1
111          1    05/24/89  0811.6  cobol_fsb_type_1.incl.pl1         >spec>install>MR12.3-1048>cobol_fsb_type_1.incl.pl1
112          2    05/24/89  0811.6  cobol_fsbskel.incl.pl1            >spec>install>MR12.3-1048>cobol_fsbskel.incl.pl1
113          3    11/11/82  1712.7  cobol_file_table.incl.pl1         >ldd>include>cobol_file_table.incl.pl1
114          4    11/11/82  1712.7  cobol_.incl.pl1                   >ldd>include>cobol_.incl.pl1
	NAMES DECLARED IN THIS COMPILATION.

IDENTIFIER	     OFFSET    LOC STORAGE CLASS   DATA TYPE		ATTRIBUTES AND REFERENCES
								(* indicates a set context)

NAMES DECLARED BY DECLARE STATEMENT.
addr                                                   builtin function         dcl 106 ref 50 50
alloc_space                     000462 internal static fixed bin(17,0)          dcl 96 set ref 40* 50*
alternate_keys           51            based           fixed bin(17,0)          level 2 dcl 3-25 ref 46
cobol_$compile_count            000466 external static fixed bin(17,0)          dcl 4-142 ref 38 41
cobol_make_link$type_5          000464 constant        entry                    external dcl 101 ref 50
file_table                             based           structure                level 1 unaligned dcl 3-25
first_call                      000463 internal static fixed bin(17,0)          dcl 96 set ref 38 41*
fsb                                    based           structure                level 1 unaligned dcl 1-18 in procedure
                                                                                  "cobol_make_fsb_link" ref 46
fsb                     124            based           structure                level 2 in structure "file_table" unaligned dcl 3-25
                                                                                  in procedure "cobol_make_fsb_link"
fsb_init                        000010 internal static structure                level 1 dcl 67 set ref 50 50
fsb_ptr                                automatic       pointer                  dcl 1-16 ref 46
fsbskel                                based           structure                level 1 dcl 2-16
ft_ptr                                 parameter       pointer                  dcl 34 ref 29 29 46 46 50 52 53
id                      113            based           char(32)                 level 2 packed packed unaligned dcl 3-25 set ref 50*
linkoff                         000100 automatic       fixed bin(17,0)          dcl 34 set ref 50* 52
n_words                         000010 internal static fixed bin(35,0)          initial level 2 dcl 67 set ref 46* 48*
off                     125            based           fixed bin(24,0)          level 3 dcl 3-25 set ref 53*
organization             43            based           fixed bin(17,0)          level 2 dcl 3-25 ref 46
seg                     124            based           fixed bin(24,0)          level 3 dcl 3-25 set ref 52*
size                                                   builtin function         dcl 106 ref 46

NAMES DECLARED BY DECLARE STATEMENT AND NEVER REFERENCED.
addrel                                                 builtin function         dcl 106
allo1_max                              defined         fixed bin(17,0)          dcl 4-171
allo1_ptr                              defined         pointer                  dcl 4-67
alter_flag                             defined         fixed bin(17,0)          dcl 4-135
alter_index                            defined         fixed bin(17,0)          dcl 4-153
alter_list_ptr                         defined         pointer                  dcl 4-39
binary                                                 builtin function         dcl 106
cd_cnt                                 defined         fixed bin(17,0)          dcl 4-197
cobol_$allo1_max                       external static fixed bin(17,0)          dcl 4-170
cobol_$allo1_ptr                       external static pointer                  dcl 4-66
cobol_$alter_flag                      external static fixed bin(17,0)          dcl 4-134
cobol_$alter_index                     external static fixed bin(17,0)          dcl 4-152
cobol_$alter_list_ptr                  external static pointer                  dcl 4-38
cobol_$cd_cnt                          external static fixed bin(17,0)          dcl 4-196
cobol_$cobol_data_wd_off               external static fixed bin(17,0)          dcl 4-118
cobol_$coms_charcnt                    external static fixed bin(17,0)          dcl 4-188
cobol_$coms_wdoff                      external static fixed bin(17,0)          dcl 4-202
cobol_$con_end_ptr                     external static pointer                  dcl 4-10
cobol_$con_wd_off                      external static fixed bin(17,0)          dcl 4-92
cobol_$cons_charcnt                    external static fixed bin(17,0)          dcl 4-192
cobol_$constant_offset                 external static fixed bin(17,0)          dcl 4-156
cobol_$data_init_flag                  external static fixed bin(17,0)          dcl 4-130
cobol_$date_compiled_sw                external static fixed bin(17,0)          dcl 4-180
cobol_$debug_enable                    external static fixed bin(17,0)          dcl 4-174
cobol_$def_base_ptr                    external static pointer                  dcl 4-12
cobol_$def_max                         external static fixed bin(17,0)          dcl 4-96
cobol_$def_wd_off                      external static fixed bin(17,0)          dcl 4-94
cobol_$diag_ptr                        external static pointer                  dcl 4-70
cobol_$eln_max                         external static fixed bin(17,0)          dcl 4-172
cobol_$eln_ptr                         external static pointer                  dcl 4-68
cobol_$fixup_max                       external static fixed bin(17,0)          dcl 4-164
cobol_$fixup_ptr                       external static pointer                  dcl 4-30
cobol_$fs_charcnt                      external static fixed bin(17,0)          dcl 4-184
cobol_$fs_wdoff                        external static fixed bin(17,0)          dcl 4-198
cobol_$include_cnt                     external static fixed bin(17,0)          dcl 4-182
cobol_$include_info_ptr                external static pointer                  dcl 4-86
cobol_$init_stack_off                  external static fixed bin(17,0)          dcl 4-124
cobol_$initval_base_ptr                external static pointer                  dcl 4-32
cobol_$initval_file_ptr                external static pointer                  dcl 4-34
cobol_$initval_flag                    external static fixed bin(17,0)          dcl 4-178
cobol_$link_base_ptr                   external static pointer                  dcl 4-14
cobol_$link_max                        external static fixed bin(17,0)          dcl 4-100
cobol_$link_wd_off                     external static fixed bin(17,0)          dcl 4-98
cobol_$list_off                        external static fixed bin(17,0)          dcl 4-154
cobol_$list_ptr                        external static pointer                  dcl 4-64
cobol_$ls_charcnt                      external static fixed bin(17,0)          dcl 4-190
cobol_$main_pcs_ptr                    external static pointer                  dcl 4-84
cobol_$map_data_max                    external static fixed bin(17,0)          dcl 4-162
cobol_$map_data_ptr                    external static pointer                  dcl 4-54
cobol_$max_stack_off                   external static fixed bin(17,0)          dcl 4-122
cobol_$minpral5_ptr                    external static pointer                  dcl 4-50
cobol_$misc_base_ptr                   external static pointer                  dcl 4-60
cobol_$misc_end_ptr                    external static pointer                  dcl 4-62
cobol_$misc_max                        external static fixed bin(17,0)          dcl 4-158
cobol_$next_tag                        external static fixed bin(17,0)          dcl 4-128
cobol_$non_source_offset               external static fixed bin(17,0)          dcl 4-176
cobol_$ntbuf_ptr                       external static pointer                  dcl 4-82
cobol_$obj_seg_name                    external static char(32)                 dcl 4-208
cobol_$op_con_ptr                      external static pointer                  dcl 4-80
cobol_$para_eop_flag                   external static fixed bin(17,0)          dcl 4-138
cobol_$pd_map_index                    external static fixed bin(17,0)          dcl 4-116
cobol_$pd_map_max                      external static fixed bin(17,0)          dcl 4-160
cobol_$pd_map_ptr                      external static pointer                  dcl 4-28
cobol_$pd_map_sw                       external static fixed bin(17,0)          dcl 4-126
cobol_$perform_list_ptr                external static pointer                  dcl 4-36
cobol_$perform_para_index              external static fixed bin(17,0)          dcl 4-148
cobol_$perform_sect_index              external static fixed bin(17,0)          dcl 4-150
cobol_$priority_no                     external static fixed bin(17,0)          dcl 4-140
cobol_$ptr_assumption_ind              external static fixed bin(17,0)          dcl 4-144
cobol_$ptr_status_ptr                  external static pointer                  dcl 4-56
cobol_$reg_assumption_ind              external static fixed bin(17,0)          dcl 4-146
cobol_$reg_status_ptr                  external static pointer                  dcl 4-58
cobol_$reloc_def_base_ptr              external static pointer                  dcl 4-20
cobol_$reloc_def_max                   external static fixed bin(24,0)          dcl 4-108
cobol_$reloc_link_base_ptr             external static pointer                  dcl 4-22
cobol_$reloc_link_max                  external static fixed bin(24,0)          dcl 4-110
cobol_$reloc_sym_base_ptr              external static pointer                  dcl 4-24
cobol_$reloc_sym_max                   external static fixed bin(24,0)          dcl 4-112
cobol_$reloc_text_base_ptr             external static pointer                  dcl 4-18
cobol_$reloc_text_max                  external static fixed bin(24,0)          dcl 4-106
cobol_$reloc_work_base_ptr             external static pointer                  dcl 4-26
cobol_$reloc_work_max                  external static fixed bin(24,0)          dcl 4-114
cobol_$reswd_ptr                       external static pointer                  dcl 4-78
cobol_$same_sort_merge_proc            external static bit(1)                   dcl 4-214
cobol_$scratch_dir                     external static char(168)                dcl 4-206
cobol_$sect_eop_flag                   external static fixed bin(17,0)          dcl 4-136
cobol_$seg_init_flag                   external static fixed bin(17,0)          dcl 4-132
cobol_$seg_init_list_ptr               external static pointer                  dcl 4-40
cobol_$stack_off                       external static fixed bin(17,0)          dcl 4-120
cobol_$statement_info_ptr              external static pointer                  dcl 4-76
cobol_$sym_base_ptr                    external static pointer                  dcl 4-16
cobol_$sym_max                         external static fixed bin(17,0)          dcl 4-104
cobol_$sym_wd_off                      external static fixed bin(17,0)          dcl 4-102
cobol_$tag_table_max                   external static fixed bin(17,0)          dcl 4-166
cobol_$tag_table_ptr                   external static pointer                  dcl 4-52
cobol_$temp_token_area_ptr             external static pointer                  dcl 4-42
cobol_$temp_token_max                  external static fixed bin(17,0)          dcl 4-168
cobol_$temp_token_ptr                  external static pointer                  dcl 4-44
cobol_$text_base_ptr                   external static pointer                  dcl 4-8
cobol_$text_wd_off                     external static fixed bin(17,0)          dcl 4-90
cobol_$token_block1_ptr                external static pointer                  dcl 4-46
cobol_$token_block2_ptr                external static pointer                  dcl 4-48
cobol_$value_cnt                       external static fixed bin(17,0)          dcl 4-194
cobol_$ws_charcnt                      external static fixed bin(17,0)          dcl 4-186
cobol_$ws_wdoff                        external static fixed bin(17,0)          dcl 4-200
cobol_$xref_bypass                     external static bit(1)                   dcl 4-212
cobol_$xref_chain_ptr                  external static pointer                  dcl 4-74
cobol_$xref_token_ptr                  external static pointer                  dcl 4-72
cobol_data_wd_off                      defined         fixed bin(17,0)          dcl 4-119
compile_count                          defined         fixed bin(17,0)          dcl 4-143
coms_charcnt                           defined         fixed bin(17,0)          dcl 4-189
coms_wdoff                             defined         fixed bin(17,0)          dcl 4-203
con_end_ptr                            defined         pointer                  dcl 4-11
con_wd_off                             defined         fixed bin(17,0)          dcl 4-93
cons_charcnt                           defined         fixed bin(17,0)          dcl 4-193
constant_offset                        defined         fixed bin(17,0)          dcl 4-157
data_init_flag                         defined         fixed bin(17,0)          dcl 4-131
date_compiled_sw                       defined         fixed bin(17,0)          dcl 4-181
debug_enable                           defined         fixed bin(17,0)          dcl 4-175
def_base_ptr                           defined         pointer                  dcl 4-13
def_max                                defined         fixed bin(17,0)          dcl 4-97
def_wd_off                             defined         fixed bin(17,0)          dcl 4-95
diag_ptr                               defined         pointer                  dcl 4-71
eln_max                                defined         fixed bin(17,0)          dcl 4-173
eln_ptr                                defined         pointer                  dcl 4-69
fixed                                                  builtin function         dcl 106
fixup_max                              defined         fixed bin(17,0)          dcl 4-165
fixup_ptr                              defined         pointer                  dcl 4-31
fs_charcnt                             defined         fixed bin(17,0)          dcl 4-185
fs_wdoff                               defined         fixed bin(17,0)          dcl 4-199
include_cnt                            defined         fixed bin(17,0)          dcl 4-183
include_info_ptr                       defined         pointer                  dcl 4-87
index                                                  builtin function         dcl 106
init_stack_off                         defined         fixed bin(17,0)          dcl 4-125
initval_base_ptr                       defined         pointer                  dcl 4-33
initval_file_ptr                       defined         pointer                  dcl 4-35
initval_flag                           defined         fixed bin(17,0)          dcl 4-179
length                                                 builtin function         dcl 106
link_base_ptr                          defined         pointer                  dcl 4-15
link_max                               defined         fixed bin(17,0)          dcl 4-101
link_wd_off                            defined         fixed bin(17,0)          dcl 4-99
list_off                               defined         fixed bin(17,0)          dcl 4-155
list_ptr                               defined         pointer                  dcl 4-65
ls_charcnt                             defined         fixed bin(17,0)          dcl 4-191
main_pcs_ptr                           defined         pointer                  dcl 4-85
map_data_max                           defined         fixed bin(17,0)          dcl 4-163
map_data_ptr                           defined         pointer                  dcl 4-55
max_stack_off                          defined         fixed bin(17,0)          dcl 4-123
minpral5_ptr                           defined         pointer                  dcl 4-51
misc_base_ptr                          defined         pointer                  dcl 4-61
misc_end_ptr                           defined         pointer                  dcl 4-63
misc_max                               defined         fixed bin(17,0)          dcl 4-159
mod                                                    builtin function         dcl 106
next_tag                               defined         fixed bin(17,0)          dcl 4-129
non_source_offset                      defined         fixed bin(17,0)          dcl 4-177
ntbuf_ptr                              defined         pointer                  dcl 4-83
null                                                   builtin function         dcl 106
obj_seg_name                           defined         char(32)                 dcl 4-209
op_con_ptr                             defined         pointer                  dcl 4-81
para_eop_flag                          defined         fixed bin(17,0)          dcl 4-139
pd_map_index                           defined         fixed bin(17,0)          dcl 4-117
pd_map_max                             defined         fixed bin(17,0)          dcl 4-161
pd_map_ptr                             defined         pointer                  dcl 4-29
pd_map_sw                              defined         fixed bin(17,0)          dcl 4-127
perform_list_ptr                       defined         pointer                  dcl 4-37
perform_para_index                     defined         fixed bin(17,0)          dcl 4-149
perform_sect_index                     defined         fixed bin(17,0)          dcl 4-151
priority_no                            defined         fixed bin(17,0)          dcl 4-141
ptr_assumption_ind                     defined         fixed bin(17,0)          dcl 4-145
ptr_status_ptr                         defined         pointer                  dcl 4-57
reg_assumption_ind                     defined         fixed bin(17,0)          dcl 4-147
reg_status_ptr                         defined         pointer                  dcl 4-59
rel                                                    builtin function         dcl 106
reloc_def_base_ptr                     defined         pointer                  dcl 4-21
reloc_def_max                          defined         fixed bin(24,0)          dcl 4-109
reloc_link_base_ptr                    defined         pointer                  dcl 4-23
reloc_link_max                         defined         fixed bin(24,0)          dcl 4-111
reloc_sym_base_ptr                     defined         pointer                  dcl 4-25
reloc_sym_max                          defined         fixed bin(24,0)          dcl 4-113
reloc_text_base_ptr                    defined         pointer                  dcl 4-19
reloc_text_max                         defined         fixed bin(24,0)          dcl 4-107
reloc_work_base_ptr                    defined         pointer                  dcl 4-27
reloc_work_max                         defined         fixed bin(24,0)          dcl 4-115
reswd_ptr                              defined         pointer                  dcl 4-79
same_sort_merge_proc                   defined         bit(1)                   dcl 4-215
scratch_dir                            defined         char(168)                dcl 4-207
sect_eop_flag                          defined         fixed bin(17,0)          dcl 4-137
seg_init_flag                          defined         fixed bin(17,0)          dcl 4-133
seg_init_list_ptr                      defined         pointer                  dcl 4-41
stack_off                              defined         fixed bin(17,0)          dcl 4-121
statement_info_ptr                     defined         pointer                  dcl 4-77
string                                                 builtin function         dcl 106
substr                                                 builtin function         dcl 106
sym_base_ptr                           defined         pointer                  dcl 4-17
sym_max                                defined         fixed bin(17,0)          dcl 4-105
sym_wd_off                             defined         fixed bin(17,0)          dcl 4-103
tag_table_max                          defined         fixed bin(17,0)          dcl 4-167
tag_table_ptr                          defined         pointer                  dcl 4-53
temp_token_area_ptr                    defined         pointer                  dcl 4-43
temp_token_max                         defined         fixed bin(17,0)          dcl 4-169
temp_token_ptr                         defined         pointer                  dcl 4-45
text_base_ptr                          defined         pointer                  dcl 4-9
text_wd_off                            defined         fixed bin(17,0)          dcl 4-91
token_block1_ptr                       defined         pointer                  dcl 4-47
token_block2_ptr                       defined         pointer                  dcl 4-49
unspec                                                 builtin function         dcl 106
value_cnt                              defined         fixed bin(17,0)          dcl 4-195
ws_charcnt                             defined         fixed bin(17,0)          dcl 4-187
ws_wdoff                               defined         fixed bin(17,0)          dcl 4-201
xref_bypass                            defined         bit(1)                   dcl 4-213
xref_chain_ptr                         defined         pointer                  dcl 4-75
xref_token_ptr                         defined         pointer                  dcl 4-73

NAMES DECLARED BY EXPLICIT CONTEXT.
cobol_make_fsb_link             000006 constant        entry                    external dcl 29
cobol_make_fsb_link_            000016 constant        entry                    external dcl 29

THERE WERE NO NAMES DECLARED BY CONTEXT OR IMPLICATION.

STORAGE REQUIREMENTS FOR THIS PROGRAM.

	Object	Text	Link	Symbol	Defs	Static
Start          0       0       164         654     102         174
Length      1122     102       470         232      61         454

BLOCK NAME	         STACK SIZE     TYPE		WHY NONQUICK/WHO SHARES STACK FRAME
cobol_make_fsb_link                  86 external procedure  is an external procedure.

STORAGE FOR INTERNAL STATIC VARIABLES.

   LOC IDENTIFIER                  BLOCK NAME
000010 fsb_init                    cobol_make_fsb_link
000462 alloc_space                 cobol_make_fsb_link
000463 first_call                  cobol_make_fsb_link

STORAGE FOR AUTOMATIC VARIABLES.

STACK FRAME                 LOC IDENTIFIER                  BLOCK NAME
cobol_make_fsb_link      000100 linkoff                     cobol_make_fsb_link

THE FOLLOWING EXTERNAL OPERATORS ARE USED BY THIS PROGRAM.
call_ext_out_desc   return_mac          ext_entry

THE FOLLOWING EXTERNAL ENTRIES ARE CALLED BY THIS PROGRAM.
cobol_make_link$type_5

THE FOLLOWING EXTERNAL VARIABLES ARE USED BY THIS PROGRAM.
cobol_$compile_count


   LINE    LOC      LINE    LOC      LINE    LOC      LINE    LOC      LINE    LOC      LINE    LOC      LINE    LOC
     29 000003        38 000023        40 000026        41 000027        46 000031        48 000044        50 000046
     52 000073        53 000100        55 000101


                                          -----------------------------------------------------------


Historical Background

This edition of the Multics software materials and documentation is provided and donated
to Massachusetts Institute of Technology by Group BULL including BULL HN Information Systems Inc.
as a contribution to computer science knowledge.
This donation is made also to give evidence of the common contributions of Massachusetts Institute of Technology,
Bell Laboratories, General Electric, Honeywell Information Systems Inc., Honeywell BULL Inc., Groupe BULL
and BULL HN Information Systems Inc. to the development of this operating system.
Multics development was initiated by Massachusetts Institute of Technology Project MAC (1963-1970),
renamed the MIT Laboratory for Computer Science and Artificial Intelligence in the mid 1970s, under the leadership
of Professor Fernando Jose Corbato. Users consider that Multics provided the best software architecture
for managing computer hardware properly and for executing programs. Many subsequent operating systems
incorporated Multics principles.
Multics was distributed in 1975 to 2000 by Group Bull in Europe , and in the U.S. by Bull HN Information Systems Inc.,
as successor in interest by change in name only to Honeywell Bull Inc. and Honeywell Information Systems Inc. .

                                          -----------------------------------------------------------

Permission to use, copy, modify, and distribute these programs and their documentation for any purpose and without
fee is hereby granted,provided that the below copyright notice and historical background appear in all copies
and that both the copyright notice and historical background and this permission notice appear in supporting
documentation, and that the names of MIT, HIS, BULL or BULL HN not be used in advertising or publicity pertaining
to distribution of the programs without specific prior written permission.
    Copyright 1972 by Massachusetts Institute of Technology and Honeywell Information Systems Inc.
    Copyright 2006 by BULL HN Information Systems Inc.
    Copyright 2006 by Bull SAS
    All Rights Reserved
