ASSEMBLY LISTING OF SEGMENT >udd>sm>ds>w>ml>cobol_SM_.alm
ASSEMBLED ON:	04/18/00  1132.9 mdt Tue
OPTIONS USED:	list symbols
ASSEMBLED BY:	ALM Version 8.14 March 1989
ASSEMBLER CREATED:	06/09/89  1102.3 mdt Fri

                                     1  " ***********************************************************
                                     2  " *                                                         *
                                     3  " * Copyright, (C) Honeywell Information Systems Inc., 1982 *
                                     4  " *                                                         *
                                     5  " * Copyright (c) 1972 by Massachusetts Institute of        *
                                     6  " * Technology and Honeywell Information Systems, Inc.      *
                                     7  " *                                                         *
                                     8  " ***********************************************************
                                     9
                                    10  "	cobol_SM_
                                    11  "	External data for SORTM facility.
                                    12  "	Bindable as static internal.
                                    13  "	Modified July 1981 to avoid zero pages in the object segment
                                    14  "		Benson I. Margulies.
                                    15
    000000                          16  	name	cobol_SM_
                                    17  	use	textc
                                    18  	use	linkc
                                    19  	join	/link/linkc
                                    20  	join	/text/textc
                                    21  	use	linkc
                                    22  	macro	null_pointer
                              1     23  	even
                              2     24  	segdef	&1
                              3     25  &1:
                              4     26  	dup	&2
                              5     27  	its	-1,1
                              6     28  	dupend
                              7     29  	&end
                                    30
                                    31  "	cobol_SM$... entry.
                                    32  	null_pointer	cmp,3
                                        	even
                        000010          	segdef	cmp
    000010                              cmp:
                        000003          	dup	3
    000010  aa   077777 000043          	its	-1,1
    000011  aa   000001 000000
                                        	dupend
    000012  aa   077777 000043          	its	-1,1
    000013  aa   000001 000000
    000014  aa   077777 000043          	its	-1,1
    000015  aa   000001 000000
                                    33  	null_pointer	mcp,3
                                        	even
                        000016          	segdef	mcp
    000016                              mcp:
                        000003          	dup	3
    000016  aa   077777 000043          	its	-1,1
    000017  aa   000001 000000
                                        	dupend
    000020  aa   077777 000043          	its	-1,1
    000021  aa   000001 000000
    000022  aa   077777 000043          	its	-1,1
    000023  aa   000001 000000
                                    34  "	cobol_SM$... ptr.
                                    35  	null_pointer	SIp,1
                                        	even
                        000024          	segdef	SIp
    000024                              SIp:
                        000001          	dup	1
    000024  aa   077777 000043          	its	-1,1
    000025  aa   000001 000000
                                        	dupend
                                    36  	null_pointer	SRp,1
                                        	even
                        000026          	segdef	SRp
    000026                              SRp:
                        000001          	dup	1
    000026  aa   077777 000043          	its	-1,1
    000027  aa   000001 000000
                                        	dupend
                                    37  	null_pointer	SSp,1
                                        	even
                        000030          	segdef	SSp
    000030                              SSp:
                        000001          	dup	1
    000030  aa   077777 000043          	its	-1,1
    000031  aa   000001 000000
                                        	dupend
                                    38  	null_pointer	MIp,1
                                        	even
                        000032          	segdef	MIp
    000032                              MIp:
                        000001          	dup	1
    000032  aa   077777 000043          	its	-1,1
    000033  aa   000001 000000
                                        	dupend
                                    39  	null_pointer	rp1,1
                                        	even
                        000034          	segdef	rp1
    000034                              rp1:
                        000001          	dup	1
    000034  aa   077777 000043          	its	-1,1
    000035  aa   000001 000000
                                        	dupend
                                    40  	null_pointer	rp2,1
                                        	even
                        000036          	segdef	rp2
    000036                              rp2:
                        000001          	dup	1
    000036  aa   077777 000043          	its	-1,1
    000037  aa   000001 000000
                                        	dupend
                                    41  	null_pointer	stat_ptr,1
                                        	even
                        000040          	segdef	stat_ptr
    000040                              stat_ptr:
                        000001          	dup	1
    000040  aa   077777 000043          	its	-1,1
    000041  aa   000001 000000
                                        	dupend
                                    42  	null_pointer	error_ptr,1
                                        	even
                        000042          	segdef	error_ptr
    000042                              error_ptr:
                        000001          	dup	1
    000042  aa   077777 000043          	its	-1,1
    000043  aa   000001 000000
                                        	dupend
                                    43  	null_pointer	RELp,1
                                        	even
                        000044          	segdef	RELp
    000044                              RELp:
                        000001          	dup	1
    000044  aa   077777 000043          	its	-1,1
    000045  aa   000001 000000
                                        	dupend
                                    44  	null_pointer	RETp,1
                                        	even
                        000046          	segdef	RETp
    000046                              RETp:
                        000001          	dup	1
    000046  aa   077777 000043          	its	-1,1
    000047  aa   000001 000000
                                        	dupend
                                    45  	null_pointer	MRp,1000
                                        	even
                        000050          	segdef	MRp
    000050                              MRp:
                        001750          	dup	1000
    000050  aa   077777 000043          	its	-1,1
    000051  aa   000001 000000
                                        	dupend
    000052  aa   077777 000043          	its	-1,1
    000053  aa   000001 000000
    000054  aa   077777 000043          	its	-1,1
    000055  aa   000001 000000
    000056  aa   077777 000043          	its	-1,1
    000057  aa   000001 000000
    000060  aa   077777 000043          	its	-1,1
    000061  aa   000001 000000
    000062  aa   077777 000043          	its	-1,1
    000063  aa   000001 000000
    000064  aa   077777 000043          	its	-1,1
    000065  aa   000001 000000
    000066  aa   077777 000043          	its	-1,1
    000067  aa   000001 000000
    000070  aa   077777 000043          	its	-1,1
    000071  aa   000001 000000
    000072  aa   077777 000043          	its	-1,1
    000073  aa   000001 000000
    000074  aa   077777 000043          	its	-1,1
    000075  aa   000001 000000
    000076  aa   077777 000043          	its	-1,1
    000077  aa   000001 000000
    000100  aa   077777 000043          	its	-1,1
    000101  aa   000001 000000
    000102  aa   077777 000043          	its	-1,1
    000103  aa   000001 000000
    000104  aa   077777 000043          	its	-1,1
    000105  aa   000001 000000
    000106  aa   077777 000043          	its	-1,1
    000107  aa   000001 000000
    000110  aa   077777 000043          	its	-1,1
    000111  aa   000001 000000
    000112  aa   077777 000043          	its	-1,1
    000113  aa   000001 000000
    000114  aa   077777 000043          	its	-1,1
    000115  aa   000001 000000
    000116  aa   077777 000043          	its	-1,1
    000117  aa   000001 000000
    000120  aa   077777 000043          	its	-1,1
    000121  aa   000001 000000
    000122  aa   077777 000043          	its	-1,1
    000123  aa   000001 000000
    000124  aa   077777 000043          	its	-1,1
    000125  aa   000001 000000
    000126  aa   077777 000043          	its	-1,1
    000127  aa   000001 000000
    000130  aa   077777 000043          	its	-1,1
    000131  aa   000001 000000
    000132  aa   077777 000043          	its	-1,1
    000133  aa   000001 000000
    000134  aa   077777 000043          	its	-1,1
    000135  aa   000001 000000
    000136  aa   077777 000043          	its	-1,1
    000137  aa   000001 000000
    000140  aa   077777 000043          	its	-1,1
    000141  aa   000001 000000
    000142  aa   077777 000043          	its	-1,1
    000143  aa   000001 000000
    000144  aa   077777 000043          	its	-1,1
    000145  aa   000001 000000
    000146  aa   077777 000043          	its	-1,1
    000147  aa   000001 000000
    000150  aa   077777 000043          	its	-1,1
    000151  aa   000001 000000
    000152  aa   077777 000043          	its	-1,1
    000153  aa   000001 000000
    000154  aa   077777 000043          	its	-1,1
    000155  aa   000001 000000
    000156  aa   077777 000043          	its	-1,1
    000157  aa   000001 000000
    000160  aa   077777 000043          	its	-1,1
    000161  aa   000001 000000
    000162  aa   077777 000043          	its	-1,1
    000163  aa   000001 000000
    000164  aa   077777 000043          	its	-1,1
    000165  aa   000001 000000
    000166  aa   077777 000043          	its	-1,1
    000167  aa   000001 000000
    000170  aa   077777 000043          	its	-1,1
    000171  aa   000001 000000
    000172  aa   077777 000043          	its	-1,1
    000173  aa   000001 000000
    000174  aa   077777 000043          	its	-1,1
    000175  aa   000001 000000
    000176  aa   077777 000043          	its	-1,1
    000177  aa   000001 000000
    000200  aa   077777 000043          	its	-1,1
    000201  aa   000001 000000
    000202  aa   077777 000043          	its	-1,1
    000203  aa   000001 000000
    000204  aa   077777 000043          	its	-1,1
    000205  aa   000001 000000
    000206  aa   077777 000043          	its	-1,1
    000207  aa   000001 000000
    000210  aa   077777 000043          	its	-1,1
    000211  aa   000001 000000
    000212  aa   077777 000043          	its	-1,1
    000213  aa   000001 000000
    000214  aa   077777 000043          	its	-1,1
    000215  aa   000001 000000
    000216  aa   077777 000043          	its	-1,1
    000217  aa   000001 000000
    000220  aa   077777 000043          	its	-1,1
    000221  aa   000001 000000
    000222  aa   077777 000043          	its	-1,1
    000223  aa   000001 000000
    000224  aa   077777 000043          	its	-1,1
    000225  aa   000001 000000
    000226  aa   077777 000043          	its	-1,1
    000227  aa   000001 000000
    000230  aa   077777 000043          	its	-1,1
    000231  aa   000001 000000
    000232  aa   077777 000043          	its	-1,1
    000233  aa   000001 000000
    000234  aa   077777 000043          	its	-1,1
    000235  aa   000001 000000
    000236  aa   077777 000043          	its	-1,1
    000237  aa   000001 000000
    000240  aa   077777 000043          	its	-1,1
    000241  aa   000001 000000
    000242  aa   077777 000043          	its	-1,1
    000243  aa   000001 000000
    000244  aa   077777 000043          	its	-1,1
    000245  aa   000001 000000
    000246  aa   077777 000043          	its	-1,1
    000247  aa   000001 000000
    000250  aa   077777 000043          	its	-1,1
    000251  aa   000001 000000
    000252  aa   077777 000043          	its	-1,1
    000253  aa   000001 000000
    000254  aa   077777 000043          	its	-1,1
    000255  aa   000001 000000
    000256  aa   077777 000043          	its	-1,1
    000257  aa   000001 000000
    000260  aa   077777 000043          	its	-1,1
    000261  aa   000001 000000
    000262  aa   077777 000043          	its	-1,1
    000263  aa   000001 000000
    000264  aa   077777 000043          	its	-1,1
    000265  aa   000001 000000
    000266  aa   077777 000043          	its	-1,1
    000267  aa   000001 000000
    000270  aa   077777 000043          	its	-1,1
    000271  aa   000001 000000
    000272  aa   077777 000043          	its	-1,1
    000273  aa   000001 000000
    000274  aa   077777 000043          	its	-1,1
    000275  aa   000001 000000
    000276  aa   077777 000043          	its	-1,1
    000277  aa   000001 000000
    000300  aa   077777 000043          	its	-1,1
    000301  aa   000001 000000
    000302  aa   077777 000043          	its	-1,1
    000303  aa   000001 000000
    000304  aa   077777 000043          	its	-1,1
    000305  aa   000001 000000
    000306  aa   077777 000043          	its	-1,1
    000307  aa   000001 000000
    000310  aa   077777 000043          	its	-1,1
    000311  aa   000001 000000
    000312  aa   077777 000043          	its	-1,1
    000313  aa   000001 000000
    000314  aa   077777 000043          	its	-1,1
    000315  aa   000001 000000
    000316  aa   077777 000043          	its	-1,1
    000317  aa   000001 000000
    000320  aa   077777 000043          	its	-1,1
    000321  aa   000001 000000
    000322  aa   077777 000043          	its	-1,1
    000323  aa   000001 000000
    000324  aa   077777 000043          	its	-1,1
    000325  aa   000001 000000
    000326  aa   077777 000043          	its	-1,1
    000327  aa   000001 000000
    000330  aa   077777 000043          	its	-1,1
    000331  aa   000001 000000
    000332  aa   077777 000043          	its	-1,1
    000333  aa   000001 000000
    000334  aa   077777 000043          	its	-1,1
    000335  aa   000001 000000
    000336  aa   077777 000043          	its	-1,1
    000337  aa   000001 000000
    000340  aa   077777 000043          	its	-1,1
    000341  aa   000001 000000
    000342  aa   077777 000043          	its	-1,1
    000343  aa   000001 000000
    000344  aa   077777 000043          	its	-1,1
    000345  aa   000001 000000
    000346  aa   077777 000043          	its	-1,1
    000347  aa   000001 000000
    000350  aa   077777 000043          	its	-1,1
    000351  aa   000001 000000
    000352  aa   077777 000043          	its	-1,1
    000353  aa   000001 000000
    000354  aa   077777 000043          	its	-1,1
    000355  aa   000001 000000
    000356  aa   077777 000043          	its	-1,1
    000357  aa   000001 000000
    000360  aa   077777 000043          	its	-1,1
    000361  aa   000001 000000
    000362  aa   077777 000043          	its	-1,1
    000363  aa   000001 000000
    000364  aa   077777 000043          	its	-1,1
    000365  aa   000001 000000
    000366  aa   077777 000043          	its	-1,1
    000367  aa   000001 000000
    000370  aa   077777 000043          	its	-1,1
    000371  aa   000001 000000
    000372  aa   077777 000043          	its	-1,1
    000373  aa   000001 000000
    000374  aa   077777 000043          	its	-1,1
    000375  aa   000001 000000
    000376  aa   077777 000043          	its	-1,1
    000377  aa   000001 000000
    000400  aa   077777 000043          	its	-1,1
    000401  aa   000001 000000
    000402  aa   077777 000043          	its	-1,1
    000403  aa   000001 000000
    000404  aa   077777 000043          	its	-1,1
    000405  aa   000001 000000
    000406  aa   077777 000043          	its	-1,1
    000407  aa   000001 000000
    000410  aa   077777 000043          	its	-1,1
    000411  aa   000001 000000
    000412  aa   077777 000043          	its	-1,1
    000413  aa   000001 000000
    000414  aa   077777 000043          	its	-1,1
    000415  aa   000001 000000
    000416  aa   077777 000043          	its	-1,1
    000417  aa   000001 000000
    000420  aa   077777 000043          	its	-1,1
    000421  aa   000001 000000
    000422  aa   077777 000043          	its	-1,1
    000423  aa   000001 000000
    000424  aa   077777 000043          	its	-1,1
    000425  aa   000001 000000
    000426  aa   077777 000043          	its	-1,1
    000427  aa   000001 000000
    000430  aa   077777 000043          	its	-1,1
    000431  aa   000001 000000
    000432  aa   077777 000043          	its	-1,1
    000433  aa   000001 000000
    000434  aa   077777 000043          	its	-1,1
    000435  aa   000001 000000
    000436  aa   077777 000043          	its	-1,1
    000437  aa   000001 000000
    000440  aa   077777 000043          	its	-1,1
    000441  aa   000001 000000
    000442  aa   077777 000043          	its	-1,1
    000443  aa   000001 000000
    000444  aa   077777 000043          	its	-1,1
    000445  aa   000001 000000
    000446  aa   077777 000043          	its	-1,1
    000447  aa   000001 000000
    000450  aa   077777 000043          	its	-1,1
    000451  aa   000001 000000
    000452  aa   077777 000043          	its	-1,1
    000453  aa   000001 000000
    000454  aa   077777 000043          	its	-1,1
    000455  aa   000001 000000
    000456  aa   077777 000043          	its	-1,1
    000457  aa   000001 000000
    000460  aa   077777 000043          	its	-1,1
    000461  aa   000001 000000
    000462  aa   077777 000043          	its	-1,1
    000463  aa   000001 000000
    000464  aa   077777 000043          	its	-1,1
    000465  aa   000001 000000
    000466  aa   077777 000043          	its	-1,1
    000467  aa   000001 000000
    000470  aa   077777 000043          	its	-1,1
    000471  aa   000001 000000
    000472  aa   077777 000043          	its	-1,1
    000473  aa   000001 000000
    000474  aa   077777 000043          	its	-1,1
    000475  aa   000001 000000
    000476  aa   077777 000043          	its	-1,1
    000477  aa   000001 000000
    000500  aa   077777 000043          	its	-1,1
    000501  aa   000001 000000
    000502  aa   077777 000043          	its	-1,1
    000503  aa   000001 000000
    000504  aa   077777 000043          	its	-1,1
    000505  aa   000001 000000
    000506  aa   077777 000043          	its	-1,1
    000507  aa   000001 000000
    000510  aa   077777 000043          	its	-1,1
    000511  aa   000001 000000
    000512  aa   077777 000043          	its	-1,1
    000513  aa   000001 000000
    000514  aa   077777 000043          	its	-1,1
    000515  aa   000001 000000
    000516  aa   077777 000043          	its	-1,1
    000517  aa   000001 000000
    000520  aa   077777 000043          	its	-1,1
    000521  aa   000001 000000
    000522  aa   077777 000043          	its	-1,1
    000523  aa   000001 000000
    000524  aa   077777 000043          	its	-1,1
    000525  aa   000001 000000
    000526  aa   077777 000043          	its	-1,1
    000527  aa   000001 000000
    000530  aa   077777 000043          	its	-1,1
    000531  aa   000001 000000
    000532  aa   077777 000043          	its	-1,1
    000533  aa   000001 000000
    000534  aa   077777 000043          	its	-1,1
    000535  aa   000001 000000
    000536  aa   077777 000043          	its	-1,1
    000537  aa   000001 000000
    000540  aa   077777 000043          	its	-1,1
    000541  aa   000001 000000
    000542  aa   077777 000043          	its	-1,1
    000543  aa   000001 000000
    000544  aa   077777 000043          	its	-1,1
    000545  aa   000001 000000
    000546  aa   077777 000043          	its	-1,1
    000547  aa   000001 000000
    000550  aa   077777 000043          	its	-1,1
    000551  aa   000001 000000
    000552  aa   077777 000043          	its	-1,1
    000553  aa   000001 000000
    000554  aa   077777 000043          	its	-1,1
    000555  aa   000001 000000
    000556  aa   077777 000043          	its	-1,1
    000557  aa   000001 000000
    000560  aa   077777 000043          	its	-1,1
    000561  aa   000001 000000
    000562  aa   077777 000043          	its	-1,1
    000563  aa   000001 000000
    000564  aa   077777 000043          	its	-1,1
    000565  aa   000001 000000
    000566  aa   077777 000043          	its	-1,1
    000567  aa   000001 000000
    000570  aa   077777 000043          	its	-1,1
    000571  aa   000001 000000
    000572  aa   077777 000043          	its	-1,1
    000573  aa   000001 000000
    000574  aa   077777 000043          	its	-1,1
    000575  aa   000001 000000
    000576  aa   077777 000043          	its	-1,1
    000577  aa   000001 000000
    000600  aa   077777 000043          	its	-1,1
    000601  aa   000001 000000
    000602  aa   077777 000043          	its	-1,1
    000603  aa   000001 000000
    000604  aa   077777 000043          	its	-1,1
    000605  aa   000001 000000
    000606  aa   077777 000043          	its	-1,1
    000607  aa   000001 000000
    000610  aa   077777 000043          	its	-1,1
    000611  aa   000001 000000
    000612  aa   077777 000043          	its	-1,1
    000613  aa   000001 000000
    000614  aa   077777 000043          	its	-1,1
    000615  aa   000001 000000
    000616  aa   077777 000043          	its	-1,1
    000617  aa   000001 000000
    000620  aa   077777 000043          	its	-1,1
    000621  aa   000001 000000
    000622  aa   077777 000043          	its	-1,1
    000623  aa   000001 000000
    000624  aa   077777 000043          	its	-1,1
    000625  aa   000001 000000
    000626  aa   077777 000043          	its	-1,1
    000627  aa   000001 000000
    000630  aa   077777 000043          	its	-1,1
    000631  aa   000001 000000
    000632  aa   077777 000043          	its	-1,1
    000633  aa   000001 000000
    000634  aa   077777 000043          	its	-1,1
    000635  aa   000001 000000
    000636  aa   077777 000043          	its	-1,1
    000637  aa   000001 000000
    000640  aa   077777 000043          	its	-1,1
    000641  aa   000001 000000
    000642  aa   077777 000043          	its	-1,1
    000643  aa   000001 000000
    000644  aa   077777 000043          	its	-1,1
    000645  aa   000001 000000
    000646  aa   077777 000043          	its	-1,1
    000647  aa   000001 000000
    000650  aa   077777 000043          	its	-1,1
    000651  aa   000001 000000
    000652  aa   077777 000043          	its	-1,1
    000653  aa   000001 000000
    000654  aa   077777 000043          	its	-1,1
    000655  aa   000001 000000
    000656  aa   077777 000043          	its	-1,1
    000657  aa   000001 000000
    000660  aa   077777 000043          	its	-1,1
    000661  aa   000001 000000
    000662  aa   077777 000043          	its	-1,1
    000663  aa   000001 000000
    000664  aa   077777 000043          	its	-1,1
    000665  aa   000001 000000
    000666  aa   077777 000043          	its	-1,1
    000667  aa   000001 000000
    000670  aa   077777 000043          	its	-1,1
    000671  aa   000001 000000
    000672  aa   077777 000043          	its	-1,1
    000673  aa   000001 000000
    000674  aa   077777 000043          	its	-1,1
    000675  aa   000001 000000
    000676  aa   077777 000043          	its	-1,1
    000677  aa   000001 000000
    000700  aa   077777 000043          	its	-1,1
    000701  aa   000001 000000
    000702  aa   077777 000043          	its	-1,1
    000703  aa   000001 000000
    000704  aa   077777 000043          	its	-1,1
    000705  aa   000001 000000
    000706  aa   077777 000043          	its	-1,1
    000707  aa   000001 000000
    000710  aa   077777 000043          	its	-1,1
    000711  aa   000001 000000
    000712  aa   077777 000043          	its	-1,1
    000713  aa   000001 000000
    000714  aa   077777 000043          	its	-1,1
    000715  aa   000001 000000
    000716  aa   077777 000043          	its	-1,1
    000717  aa   000001 000000
    000720  aa   077777 000043          	its	-1,1
    000721  aa   000001 000000
    000722  aa   077777 000043          	its	-1,1
    000723  aa   000001 000000
    000724  aa   077777 000043          	its	-1,1
    000725  aa   000001 000000
    000726  aa   077777 000043          	its	-1,1
    000727  aa   000001 000000
    000730  aa   077777 000043          	its	-1,1
    000731  aa   000001 000000
    000732  aa   077777 000043          	its	-1,1
    000733  aa   000001 000000
    000734  aa   077777 000043          	its	-1,1
    000735  aa   000001 000000
    000736  aa   077777 000043          	its	-1,1
    000737  aa   000001 000000
    000740  aa   077777 000043          	its	-1,1
    000741  aa   000001 000000
    000742  aa   077777 000043          	its	-1,1
    000743  aa   000001 000000
    000744  aa   077777 000043          	its	-1,1
    000745  aa   000001 000000
    000746  aa   077777 000043          	its	-1,1
    000747  aa   000001 000000
    000750  aa   077777 000043          	its	-1,1
    000751  aa   000001 000000
    000752  aa   077777 000043          	its	-1,1
    000753  aa   000001 000000
    000754  aa   077777 000043          	its	-1,1
    000755  aa   000001 000000
    000756  aa   077777 000043          	its	-1,1
    000757  aa   000001 000000
    000760  aa   077777 000043          	its	-1,1
    000761  aa   000001 000000
    000762  aa   077777 000043          	its	-1,1
    000763  aa   000001 000000
    000764  aa   077777 000043          	its	-1,1
    000765  aa   000001 000000
    000766  aa   077777 000043          	its	-1,1
    000767  aa   000001 000000
    000770  aa   077777 000043          	its	-1,1
    000771  aa   000001 000000
    000772  aa   077777 000043          	its	-1,1
    000773  aa   000001 000000
    000774  aa   077777 000043          	its	-1,1
    000775  aa   000001 000000
    000776  aa   077777 000043          	its	-1,1
    000777  aa   000001 000000
    001000  aa   077777 000043          	its	-1,1
    001001  aa   000001 000000
    001002  aa   077777 000043          	its	-1,1
    001003  aa   000001 000000
    001004  aa   077777 000043          	its	-1,1
    001005  aa   000001 000000
    001006  aa   077777 000043          	its	-1,1
    001007  aa   000001 000000
    001010  aa   077777 000043          	its	-1,1
    001011  aa   000001 000000
    001012  aa   077777 000043          	its	-1,1
    001013  aa   000001 000000
    001014  aa   077777 000043          	its	-1,1
    001015  aa   000001 000000
    001016  aa   077777 000043          	its	-1,1
    001017  aa   000001 000000
    001020  aa   077777 000043          	its	-1,1
    001021  aa   000001 000000
    001022  aa   077777 000043          	its	-1,1
    001023  aa   000001 000000
    001024  aa   077777 000043          	its	-1,1
    001025  aa   000001 000000
    001026  aa   077777 000043          	its	-1,1
    001027  aa   000001 000000
    001030  aa   077777 000043          	its	-1,1
    001031  aa   000001 000000
    001032  aa   077777 000043          	its	-1,1
    001033  aa   000001 000000
    001034  aa   077777 000043          	its	-1,1
    001035  aa   000001 000000
    001036  aa   077777 000043          	its	-1,1
    001037  aa   000001 000000
    001040  aa   077777 000043          	its	-1,1
    001041  aa   000001 000000
    001042  aa   077777 000043          	its	-1,1
    001043  aa   000001 000000
    001044  aa   077777 000043          	its	-1,1
    001045  aa   000001 000000
    001046  aa   077777 000043          	its	-1,1
    001047  aa   000001 000000
    001050  aa   077777 000043          	its	-1,1
    001051  aa   000001 000000
    001052  aa   077777 000043          	its	-1,1
    001053  aa   000001 000000
    001054  aa   077777 000043          	its	-1,1
    001055  aa   000001 000000
    001056  aa   077777 000043          	its	-1,1
    001057  aa   000001 000000
    001060  aa   077777 000043          	its	-1,1
    001061  aa   000001 000000
    001062  aa   077777 000043          	its	-1,1
    001063  aa   000001 000000
    001064  aa   077777 000043          	its	-1,1
    001065  aa   000001 000000
    001066  aa   077777 000043          	its	-1,1
    001067  aa   000001 000000
    001070  aa   077777 000043          	its	-1,1
    001071  aa   000001 000000
    001072  aa   077777 000043          	its	-1,1
    001073  aa   000001 000000
    001074  aa   077777 000043          	its	-1,1
    001075  aa   000001 000000
    001076  aa   077777 000043          	its	-1,1
    001077  aa   000001 000000
    001100  aa   077777 000043          	its	-1,1
    001101  aa   000001 000000
    001102  aa   077777 000043          	its	-1,1
    001103  aa   000001 000000
    001104  aa   077777 000043          	its	-1,1
    001105  aa   000001 000000
    001106  aa   077777 000043          	its	-1,1
    001107  aa   000001 000000
    001110  aa   077777 000043          	its	-1,1
    001111  aa   000001 000000
    001112  aa   077777 000043          	its	-1,1
    001113  aa   000001 000000
    001114  aa   077777 000043          	its	-1,1
    001115  aa   000001 000000
    001116  aa   077777 000043          	its	-1,1
    001117  aa   000001 000000
    001120  aa   077777 000043          	its	-1,1
    001121  aa   000001 000000
    001122  aa   077777 000043          	its	-1,1
    001123  aa   000001 000000
    001124  aa   077777 000043          	its	-1,1
    001125  aa   000001 000000
    001126  aa   077777 000043          	its	-1,1
    001127  aa   000001 000000
    001130  aa   077777 000043          	its	-1,1
    001131  aa   000001 000000
    001132  aa   077777 000043          	its	-1,1
    001133  aa   000001 000000
    001134  aa   077777 000043          	its	-1,1
    001135  aa   000001 000000
    001136  aa   077777 000043          	its	-1,1
    001137  aa   000001 000000
    001140  aa   077777 000043          	its	-1,1
    001141  aa   000001 000000
    001142  aa   077777 000043          	its	-1,1
    001143  aa   000001 000000
    001144  aa   077777 000043          	its	-1,1
    001145  aa   000001 000000
    001146  aa   077777 000043          	its	-1,1
    001147  aa   000001 000000
    001150  aa   077777 000043          	its	-1,1
    001151  aa   000001 000000
    001152  aa   077777 000043          	its	-1,1
    001153  aa   000001 000000
    001154  aa   077777 000043          	its	-1,1
    001155  aa   000001 000000
    001156  aa   077777 000043          	its	-1,1
    001157  aa   000001 000000
    001160  aa   077777 000043          	its	-1,1
    001161  aa   000001 000000
    001162  aa   077777 000043          	its	-1,1
    001163  aa   000001 000000
    001164  aa   077777 000043          	its	-1,1
    001165  aa   000001 000000
    001166  aa   077777 000043          	its	-1,1
    001167  aa   000001 000000
    001170  aa   077777 000043          	its	-1,1
    001171  aa   000001 000000
    001172  aa   077777 000043          	its	-1,1
    001173  aa   000001 000000
    001174  aa   077777 000043          	its	-1,1
    001175  aa   000001 000000
    001176  aa   077777 000043          	its	-1,1
    001177  aa   000001 000000
    001200  aa   077777 000043          	its	-1,1
    001201  aa   000001 000000
    001202  aa   077777 000043          	its	-1,1
    001203  aa   000001 000000
    001204  aa   077777 000043          	its	-1,1
    001205  aa   000001 000000
    001206  aa   077777 000043          	its	-1,1
    001207  aa   000001 000000
    001210  aa   077777 000043          	its	-1,1
    001211  aa   000001 000000
    001212  aa   077777 000043          	its	-1,1
    001213  aa   000001 000000
    001214  aa   077777 000043          	its	-1,1
    001215  aa   000001 000000
    001216  aa   077777 000043          	its	-1,1
    001217  aa   000001 000000
    001220  aa   077777 000043          	its	-1,1
    001221  aa   000001 000000
    001222  aa   077777 000043          	its	-1,1
    001223  aa   000001 000000
    001224  aa   077777 000043          	its	-1,1
    001225  aa   000001 000000
    001226  aa   077777 000043          	its	-1,1
    001227  aa   000001 000000
    001230  aa   077777 000043          	its	-1,1
    001231  aa   000001 000000
    001232  aa   077777 000043          	its	-1,1
    001233  aa   000001 000000
    001234  aa   077777 000043          	its	-1,1
    001235  aa   000001 000000
    001236  aa   077777 000043          	its	-1,1
    001237  aa   000001 000000
    001240  aa   077777 000043          	its	-1,1
    001241  aa   000001 000000
    001242  aa   077777 000043          	its	-1,1
    001243  aa   000001 000000
    001244  aa   077777 000043          	its	-1,1
    001245  aa   000001 000000
    001246  aa   077777 000043          	its	-1,1
    001247  aa   000001 000000
    001250  aa   077777 000043          	its	-1,1
    001251  aa   000001 000000
    001252  aa   077777 000043          	its	-1,1
    001253  aa   000001 000000
    001254  aa   077777 000043          	its	-1,1
    001255  aa   000001 000000
    001256  aa   077777 000043          	its	-1,1
    001257  aa   000001 000000
    001260  aa   077777 000043          	its	-1,1
    001261  aa   000001 000000
    001262  aa   077777 000043          	its	-1,1
    001263  aa   000001 000000
    001264  aa   077777 000043          	its	-1,1
    001265  aa   000001 000000
    001266  aa   077777 000043          	its	-1,1
    001267  aa   000001 000000
    001270  aa   077777 000043          	its	-1,1
    001271  aa   000001 000000
    001272  aa   077777 000043          	its	-1,1
    001273  aa   000001 000000
    001274  aa   077777 000043          	its	-1,1
    001275  aa   000001 000000
    001276  aa   077777 000043          	its	-1,1
    001277  aa   000001 000000
    001300  aa   077777 000043          	its	-1,1
    001301  aa   000001 000000
    001302  aa   077777 000043          	its	-1,1
    001303  aa   000001 000000
    001304  aa   077777 000043          	its	-1,1
    001305  aa   000001 000000
    001306  aa   077777 000043          	its	-1,1
    001307  aa   000001 000000
    001310  aa   077777 000043          	its	-1,1
    001311  aa   000001 000000
    001312  aa   077777 000043          	its	-1,1
    001313  aa   000001 000000
    001314  aa   077777 000043          	its	-1,1
    001315  aa   000001 000000
    001316  aa   077777 000043          	its	-1,1
    001317  aa   000001 000000
    001320  aa   077777 000043          	its	-1,1
    001321  aa   000001 000000
    001322  aa   077777 000043          	its	-1,1
    001323  aa   000001 000000
    001324  aa   077777 000043          	its	-1,1
    001325  aa   000001 000000
    001326  aa   077777 000043          	its	-1,1
    001327  aa   000001 000000
    001330  aa   077777 000043          	its	-1,1
    001331  aa   000001 000000
    001332  aa   077777 000043          	its	-1,1
    001333  aa   000001 000000
    001334  aa   077777 000043          	its	-1,1
    001335  aa   000001 000000
    001336  aa   077777 000043          	its	-1,1
    001337  aa   000001 000000
    001340  aa   077777 000043          	its	-1,1
    001341  aa   000001 000000
    001342  aa   077777 000043          	its	-1,1
    001343  aa   000001 000000
    001344  aa   077777 000043          	its	-1,1
    001345  aa   000001 000000
    001346  aa   077777 000043          	its	-1,1
    001347  aa   000001 000000
    001350  aa   077777 000043          	its	-1,1
    001351  aa   000001 000000
    001352  aa   077777 000043          	its	-1,1
    001353  aa   000001 000000
    001354  aa   077777 000043          	its	-1,1
    001355  aa   000001 000000
    001356  aa   077777 000043          	its	-1,1
    001357  aa   000001 000000
    001360  aa   077777 000043          	its	-1,1
    001361  aa   000001 000000
    001362  aa   077777 000043          	its	-1,1
    001363  aa   000001 000000
    001364  aa   077777 000043          	its	-1,1
    001365  aa   000001 000000
    001366  aa   077777 000043          	its	-1,1
    001367  aa   000001 000000
    001370  aa   077777 000043          	its	-1,1
    001371  aa   000001 000000
    001372  aa   077777 000043          	its	-1,1
    001373  aa   000001 000000
    001374  aa   077777 000043          	its	-1,1
    001375  aa   000001 000000
    001376  aa   077777 000043          	its	-1,1
    001377  aa   000001 000000
    001400  aa   077777 000043          	its	-1,1
    001401  aa   000001 000000
    001402  aa   077777 000043          	its	-1,1
    001403  aa   000001 000000
    001404  aa   077777 000043          	its	-1,1
    001405  aa   000001 000000
    001406  aa   077777 000043          	its	-1,1
    001407  aa   000001 000000
    001410  aa   077777 000043          	its	-1,1
    001411  aa   000001 000000
    001412  aa   077777 000043          	its	-1,1
    001413  aa   000001 000000
    001414  aa   077777 000043          	its	-1,1
    001415  aa   000001 000000
    001416  aa   077777 000043          	its	-1,1
    001417  aa   000001 000000
    001420  aa   077777 000043          	its	-1,1
    001421  aa   000001 000000
    001422  aa   077777 000043          	its	-1,1
    001423  aa   000001 000000
    001424  aa   077777 000043          	its	-1,1
    001425  aa   000001 000000
    001426  aa   077777 000043          	its	-1,1
    001427  aa   000001 000000
    001430  aa   077777 000043          	its	-1,1
    001431  aa   000001 000000
    001432  aa   077777 000043          	its	-1,1
    001433  aa   000001 000000
    001434  aa   077777 000043          	its	-1,1
    001435  aa   000001 000000
    001436  aa   077777 000043          	its	-1,1
    001437  aa   000001 000000
    001440  aa   077777 000043          	its	-1,1
    001441  aa   000001 000000
    001442  aa   077777 000043          	its	-1,1
    001443  aa   000001 000000
    001444  aa   077777 000043          	its	-1,1
    001445  aa   000001 000000
    001446  aa   077777 000043          	its	-1,1
    001447  aa   000001 000000
    001450  aa   077777 000043          	its	-1,1
    001451  aa   000001 000000
    001452  aa   077777 000043          	its	-1,1
    001453  aa   000001 000000
    001454  aa   077777 000043          	its	-1,1
    001455  aa   000001 000000
    001456  aa   077777 000043          	its	-1,1
    001457  aa   000001 000000
    001460  aa   077777 000043          	its	-1,1
    001461  aa   000001 000000
    001462  aa   077777 000043          	its	-1,1
    001463  aa   000001 000000
    001464  aa   077777 000043          	its	-1,1
    001465  aa   000001 000000
    001466  aa   077777 000043          	its	-1,1
    001467  aa   000001 000000
    001470  aa   077777 000043          	its	-1,1
    001471  aa   000001 000000
    001472  aa   077777 000043          	its	-1,1
    001473  aa   000001 000000
    001474  aa   077777 000043          	its	-1,1
    001475  aa   000001 000000
    001476  aa   077777 000043          	its	-1,1
    001477  aa   000001 000000
    001500  aa   077777 000043          	its	-1,1
    001501  aa   000001 000000
    001502  aa   077777 000043          	its	-1,1
    001503  aa   000001 000000
    001504  aa   077777 000043          	its	-1,1
    001505  aa   000001 000000
    001506  aa   077777 000043          	its	-1,1
    001507  aa   000001 000000
    001510  aa   077777 000043          	its	-1,1
    001511  aa   000001 000000
    001512  aa   077777 000043          	its	-1,1
    001513  aa   000001 000000
    001514  aa   077777 000043          	its	-1,1
    001515  aa   000001 000000
    001516  aa   077777 000043          	its	-1,1
    001517  aa   000001 000000
    001520  aa   077777 000043          	its	-1,1
    001521  aa   000001 000000
    001522  aa   077777 000043          	its	-1,1
    001523  aa   000001 000000
    001524  aa   077777 000043          	its	-1,1
    001525  aa   000001 000000
    001526  aa   077777 000043          	its	-1,1
    001527  aa   000001 000000
    001530  aa   077777 000043          	its	-1,1
    001531  aa   000001 000000
    001532  aa   077777 000043          	its	-1,1
    001533  aa   000001 000000
    001534  aa   077777 000043          	its	-1,1
    001535  aa   000001 000000
    001536  aa   077777 000043          	its	-1,1
    001537  aa   000001 000000
    001540  aa   077777 000043          	its	-1,1
    001541  aa   000001 000000
    001542  aa   077777 000043          	its	-1,1
    001543  aa   000001 000000
    001544  aa   077777 000043          	its	-1,1
    001545  aa   000001 000000
    001546  aa   077777 000043          	its	-1,1
    001547  aa   000001 000000
    001550  aa   077777 000043          	its	-1,1
    001551  aa   000001 000000
    001552  aa   077777 000043          	its	-1,1
    001553  aa   000001 000000
    001554  aa   077777 000043          	its	-1,1
    001555  aa   000001 000000
    001556  aa   077777 000043          	its	-1,1
    001557  aa   000001 000000
    001560  aa   077777 000043          	its	-1,1
    001561  aa   000001 000000
    001562  aa   077777 000043          	its	-1,1
    001563  aa   000001 000000
    001564  aa   077777 000043          	its	-1,1
    001565  aa   000001 000000
    001566  aa   077777 000043          	its	-1,1
    001567  aa   000001 000000
    001570  aa   077777 000043          	its	-1,1
    001571  aa   000001 000000
    001572  aa   077777 000043          	its	-1,1
    001573  aa   000001 000000
    001574  aa   077777 000043          	its	-1,1
    001575  aa   000001 000000
    001576  aa   077777 000043          	its	-1,1
    001577  aa   000001 000000
    001600  aa   077777 000043          	its	-1,1
    001601  aa   000001 000000
    001602  aa   077777 000043          	its	-1,1
    001603  aa   000001 000000
    001604  aa   077777 000043          	its	-1,1
    001605  aa   000001 000000
    001606  aa   077777 000043          	its	-1,1
    001607  aa   000001 000000
    001610  aa   077777 000043          	its	-1,1
    001611  aa   000001 000000
    001612  aa   077777 000043          	its	-1,1
    001613  aa   000001 000000
    001614  aa   077777 000043          	its	-1,1
    001615  aa   000001 000000
    001616  aa   077777 000043          	its	-1,1
    001617  aa   000001 000000
    001620  aa   077777 000043          	its	-1,1
    001621  aa   000001 000000
    001622  aa   077777 000043          	its	-1,1
    001623  aa   000001 000000
    001624  aa   077777 000043          	its	-1,1
    001625  aa   000001 000000
    001626  aa   077777 000043          	its	-1,1
    001627  aa   000001 000000
    001630  aa   077777 000043          	its	-1,1
    001631  aa   000001 000000
    001632  aa   077777 000043          	its	-1,1
    001633  aa   000001 000000
    001634  aa   077777 000043          	its	-1,1
    001635  aa   000001 000000
    001636  aa   077777 000043          	its	-1,1
    001637  aa   000001 000000
    001640  aa   077777 000043          	its	-1,1
    001641  aa   000001 000000
    001642  aa   077777 000043          	its	-1,1
    001643  aa   000001 000000
    001644  aa   077777 000043          	its	-1,1
    001645  aa   000001 000000
    001646  aa   077777 000043          	its	-1,1
    001647  aa   000001 000000
    001650  aa   077777 000043          	its	-1,1
    001651  aa   000001 000000
    001652  aa   077777 000043          	its	-1,1
    001653  aa   000001 000000
    001654  aa   077777 000043          	its	-1,1
    001655  aa   000001 000000
    001656  aa   077777 000043          	its	-1,1
    001657  aa   000001 000000
    001660  aa   077777 000043          	its	-1,1
    001661  aa   000001 000000
    001662  aa   077777 000043          	its	-1,1
    001663  aa   000001 000000
    001664  aa   077777 000043          	its	-1,1
    001665  aa   000001 000000
    001666  aa   077777 000043          	its	-1,1
    001667  aa   000001 000000
    001670  aa   077777 000043          	its	-1,1
    001671  aa   000001 000000
    001672  aa   077777 000043          	its	-1,1
    001673  aa   000001 000000
    001674  aa   077777 000043          	its	-1,1
    001675  aa   000001 000000
    001676  aa   077777 000043          	its	-1,1
    001677  aa   000001 000000
    001700  aa   077777 000043          	its	-1,1
    001701  aa   000001 000000
    001702  aa   077777 000043          	its	-1,1
    001703  aa   000001 000000
    001704  aa   077777 000043          	its	-1,1
    001705  aa   000001 000000
    001706  aa   077777 000043          	its	-1,1
    001707  aa   000001 000000
    001710  aa   077777 000043          	its	-1,1
    001711  aa   000001 000000
    001712  aa   077777 000043          	its	-1,1
    001713  aa   000001 000000
    001714  aa   077777 000043          	its	-1,1
    001715  aa   000001 000000
    001716  aa   077777 000043          	its	-1,1
    001717  aa   000001 000000
    001720  aa   077777 000043          	its	-1,1
    001721  aa   000001 000000
    001722  aa   077777 000043          	its	-1,1
    001723  aa   000001 000000
    001724  aa   077777 000043          	its	-1,1
    001725  aa   000001 000000
    001726  aa   077777 000043          	its	-1,1
    001727  aa   000001 000000
    001730  aa   077777 000043          	its	-1,1
    001731  aa   000001 000000
    001732  aa   077777 000043          	its	-1,1
    001733  aa   000001 000000
    001734  aa   077777 000043          	its	-1,1
    001735  aa   000001 000000
    001736  aa   077777 000043          	its	-1,1
    001737  aa   000001 000000
    001740  aa   077777 000043          	its	-1,1
    001741  aa   000001 000000
    001742  aa   077777 000043          	its	-1,1
    001743  aa   000001 000000
    001744  aa   077777 000043          	its	-1,1
    001745  aa   000001 000000
    001746  aa   077777 000043          	its	-1,1
    001747  aa   000001 000000
    001750  aa   077777 000043          	its	-1,1
    001751  aa   000001 000000
    001752  aa   077777 000043          	its	-1,1
    001753  aa   000001 000000
    001754  aa   077777 000043          	its	-1,1
    001755  aa   000001 000000
    001756  aa   077777 000043          	its	-1,1
    001757  aa   000001 000000
    001760  aa   077777 000043          	its	-1,1
    001761  aa   000001 000000
    001762  aa   077777 000043          	its	-1,1
    001763  aa   000001 000000
    001764  aa   077777 000043          	its	-1,1
    001765  aa   000001 000000
    001766  aa   077777 000043          	its	-1,1
    001767  aa   000001 000000
    001770  aa   077777 000043          	its	-1,1
    001771  aa   000001 000000
    001772  aa   077777 000043          	its	-1,1
    001773  aa   000001 000000
    001774  aa   077777 000043          	its	-1,1
    001775  aa   000001 000000
    001776  aa   077777 000043          	its	-1,1
    001777  aa   000001 000000
    002000  aa   077777 000043          	its	-1,1
    002001  aa   000001 000000
    002002  aa   077777 000043          	its	-1,1
    002003  aa   000001 000000
    002004  aa   077777 000043          	its	-1,1
    002005  aa   000001 000000
    002006  aa   077777 000043          	its	-1,1
    002007  aa   000001 000000
    002010  aa   077777 000043          	its	-1,1
    002011  aa   000001 000000
    002012  aa   077777 000043          	its	-1,1
    002013  aa   000001 000000
    002014  aa   077777 000043          	its	-1,1
    002015  aa   000001 000000
    002016  aa   077777 000043          	its	-1,1
    002017  aa   000001 000000
    002020  aa   077777 000043          	its	-1,1
    002021  aa   000001 000000
    002022  aa   077777 000043          	its	-1,1
    002023  aa   000001 000000
    002024  aa   077777 000043          	its	-1,1
    002025  aa   000001 000000
    002026  aa   077777 000043          	its	-1,1
    002027  aa   000001 000000
    002030  aa   077777 000043          	its	-1,1
    002031  aa   000001 000000
    002032  aa   077777 000043          	its	-1,1
    002033  aa   000001 000000
    002034  aa   077777 000043          	its	-1,1
    002035  aa   000001 000000
    002036  aa   077777 000043          	its	-1,1
    002037  aa   000001 000000
    002040  aa   077777 000043          	its	-1,1
    002041  aa   000001 000000
    002042  aa   077777 000043          	its	-1,1
    002043  aa   000001 000000
    002044  aa   077777 000043          	its	-1,1
    002045  aa   000001 000000
    002046  aa   077777 000043          	its	-1,1
    002047  aa   000001 000000
    002050  aa   077777 000043          	its	-1,1
    002051  aa   000001 000000
    002052  aa   077777 000043          	its	-1,1
    002053  aa   000001 000000
    002054  aa   077777 000043          	its	-1,1
    002055  aa   000001 000000
    002056  aa   077777 000043          	its	-1,1
    002057  aa   000001 000000
    002060  aa   077777 000043          	its	-1,1
    002061  aa   000001 000000
    002062  aa   077777 000043          	its	-1,1
    002063  aa   000001 000000
    002064  aa   077777 000043          	its	-1,1
    002065  aa   000001 000000
    002066  aa   077777 000043          	its	-1,1
    002067  aa   000001 000000
    002070  aa   077777 000043          	its	-1,1
    002071  aa   000001 000000
    002072  aa   077777 000043          	its	-1,1
    002073  aa   000001 000000
    002074  aa   077777 000043          	its	-1,1
    002075  aa   000001 000000
    002076  aa   077777 000043          	its	-1,1
    002077  aa   000001 000000
    002100  aa   077777 000043          	its	-1,1
    002101  aa   000001 000000
    002102  aa   077777 000043          	its	-1,1
    002103  aa   000001 000000
    002104  aa   077777 000043          	its	-1,1
    002105  aa   000001 000000
    002106  aa   077777 000043          	its	-1,1
    002107  aa   000001 000000
    002110  aa   077777 000043          	its	-1,1
    002111  aa   000001 000000
    002112  aa   077777 000043          	its	-1,1
    002113  aa   000001 000000
    002114  aa   077777 000043          	its	-1,1
    002115  aa   000001 000000
    002116  aa   077777 000043          	its	-1,1
    002117  aa   000001 000000
    002120  aa   077777 000043          	its	-1,1
    002121  aa   000001 000000
    002122  aa   077777 000043          	its	-1,1
    002123  aa   000001 000000
    002124  aa   077777 000043          	its	-1,1
    002125  aa   000001 000000
    002126  aa   077777 000043          	its	-1,1
    002127  aa   000001 000000
    002130  aa   077777 000043          	its	-1,1
    002131  aa   000001 000000
    002132  aa   077777 000043          	its	-1,1
    002133  aa   000001 000000
    002134  aa   077777 000043          	its	-1,1
    002135  aa   000001 000000
    002136  aa   077777 000043          	its	-1,1
    002137  aa   000001 000000
    002140  aa   077777 000043          	its	-1,1
    002141  aa   000001 000000
    002142  aa   077777 000043          	its	-1,1
    002143  aa   000001 000000
    002144  aa   077777 000043          	its	-1,1
    002145  aa   000001 000000
    002146  aa   077777 000043          	its	-1,1
    002147  aa   000001 000000
    002150  aa   077777 000043          	its	-1,1
    002151  aa   000001 000000
    002152  aa   077777 000043          	its	-1,1
    002153  aa   000001 000000
    002154  aa   077777 000043          	its	-1,1
    002155  aa   000001 000000
    002156  aa   077777 000043          	its	-1,1
    002157  aa   000001 000000
    002160  aa   077777 000043          	its	-1,1
    002161  aa   000001 000000
    002162  aa   077777 000043          	its	-1,1
    002163  aa   000001 000000
    002164  aa   077777 000043          	its	-1,1
    002165  aa   000001 000000
    002166  aa   077777 000043          	its	-1,1
    002167  aa   000001 000000
    002170  aa   077777 000043          	its	-1,1
    002171  aa   000001 000000
    002172  aa   077777 000043          	its	-1,1
    002173  aa   000001 000000
    002174  aa   077777 000043          	its	-1,1
    002175  aa   000001 000000
    002176  aa   077777 000043          	its	-1,1
    002177  aa   000001 000000
    002200  aa   077777 000043          	its	-1,1
    002201  aa   000001 000000
    002202  aa   077777 000043          	its	-1,1
    002203  aa   000001 000000
    002204  aa   077777 000043          	its	-1,1
    002205  aa   000001 000000
    002206  aa   077777 000043          	its	-1,1
    002207  aa   000001 000000
    002210  aa   077777 000043          	its	-1,1
    002211  aa   000001 000000
    002212  aa   077777 000043          	its	-1,1
    002213  aa   000001 000000
    002214  aa   077777 000043          	its	-1,1
    002215  aa   000001 000000
    002216  aa   077777 000043          	its	-1,1
    002217  aa   000001 000000
    002220  aa   077777 000043          	its	-1,1
    002221  aa   000001 000000
    002222  aa   077777 000043          	its	-1,1
    002223  aa   000001 000000
    002224  aa   077777 000043          	its	-1,1
    002225  aa   000001 000000
    002226  aa   077777 000043          	its	-1,1
    002227  aa   000001 000000
    002230  aa   077777 000043          	its	-1,1
    002231  aa   000001 000000
    002232  aa   077777 000043          	its	-1,1
    002233  aa   000001 000000
    002234  aa   077777 000043          	its	-1,1
    002235  aa   000001 000000
    002236  aa   077777 000043          	its	-1,1
    002237  aa   000001 000000
    002240  aa   077777 000043          	its	-1,1
    002241  aa   000001 000000
    002242  aa   077777 000043          	its	-1,1
    002243  aa   000001 000000
    002244  aa   077777 000043          	its	-1,1
    002245  aa   000001 000000
    002246  aa   077777 000043          	its	-1,1
    002247  aa   000001 000000
    002250  aa   077777 000043          	its	-1,1
    002251  aa   000001 000000
    002252  aa   077777 000043          	its	-1,1
    002253  aa   000001 000000
    002254  aa   077777 000043          	its	-1,1
    002255  aa   000001 000000
    002256  aa   077777 000043          	its	-1,1
    002257  aa   000001 000000
    002260  aa   077777 000043          	its	-1,1
    002261  aa   000001 000000
    002262  aa   077777 000043          	its	-1,1
    002263  aa   000001 000000
    002264  aa   077777 000043          	its	-1,1
    002265  aa   000001 000000
    002266  aa   077777 000043          	its	-1,1
    002267  aa   000001 000000
    002270  aa   077777 000043          	its	-1,1
    002271  aa   000001 000000
    002272  aa   077777 000043          	its	-1,1
    002273  aa   000001 000000
    002274  aa   077777 000043          	its	-1,1
    002275  aa   000001 000000
    002276  aa   077777 000043          	its	-1,1
    002277  aa   000001 000000
    002300  aa   077777 000043          	its	-1,1
    002301  aa   000001 000000
    002302  aa   077777 000043          	its	-1,1
    002303  aa   000001 000000
    002304  aa   077777 000043          	its	-1,1
    002305  aa   000001 000000
    002306  aa   077777 000043          	its	-1,1
    002307  aa   000001 000000
    002310  aa   077777 000043          	its	-1,1
    002311  aa   000001 000000
    002312  aa   077777 000043          	its	-1,1
    002313  aa   000001 000000
    002314  aa   077777 000043          	its	-1,1
    002315  aa   000001 000000
    002316  aa   077777 000043          	its	-1,1
    002317  aa   000001 000000
    002320  aa   077777 000043          	its	-1,1
    002321  aa   000001 000000
    002322  aa   077777 000043          	its	-1,1
    002323  aa   000001 000000
    002324  aa   077777 000043          	its	-1,1
    002325  aa   000001 000000
    002326  aa   077777 000043          	its	-1,1
    002327  aa   000001 000000
    002330  aa   077777 000043          	its	-1,1
    002331  aa   000001 000000
    002332  aa   077777 000043          	its	-1,1
    002333  aa   000001 000000
    002334  aa   077777 000043          	its	-1,1
    002335  aa   000001 000000
    002336  aa   077777 000043          	its	-1,1
    002337  aa   000001 000000
    002340  aa   077777 000043          	its	-1,1
    002341  aa   000001 000000
    002342  aa   077777 000043          	its	-1,1
    002343  aa   000001 000000
    002344  aa   077777 000043          	its	-1,1
    002345  aa   000001 000000
    002346  aa   077777 000043          	its	-1,1
    002347  aa   000001 000000
    002350  aa   077777 000043          	its	-1,1
    002351  aa   000001 000000
    002352  aa   077777 000043          	its	-1,1
    002353  aa   000001 000000
    002354  aa   077777 000043          	its	-1,1
    002355  aa   000001 000000
    002356  aa   077777 000043          	its	-1,1
    002357  aa   000001 000000
    002360  aa   077777 000043          	its	-1,1
    002361  aa   000001 000000
    002362  aa   077777 000043          	its	-1,1
    002363  aa   000001 000000
    002364  aa   077777 000043          	its	-1,1
    002365  aa   000001 000000
    002366  aa   077777 000043          	its	-1,1
    002367  aa   000001 000000
    002370  aa   077777 000043          	its	-1,1
    002371  aa   000001 000000
    002372  aa   077777 000043          	its	-1,1
    002373  aa   000001 000000
    002374  aa   077777 000043          	its	-1,1
    002375  aa   000001 000000
    002376  aa   077777 000043          	its	-1,1
    002377  aa   000001 000000
    002400  aa   077777 000043          	its	-1,1
    002401  aa   000001 000000
    002402  aa   077777 000043          	its	-1,1
    002403  aa   000001 000000
    002404  aa   077777 000043          	its	-1,1
    002405  aa   000001 000000
    002406  aa   077777 000043          	its	-1,1
    002407  aa   000001 000000
    002410  aa   077777 000043          	its	-1,1
    002411  aa   000001 000000
    002412  aa   077777 000043          	its	-1,1
    002413  aa   000001 000000
    002414  aa   077777 000043          	its	-1,1
    002415  aa   000001 000000
    002416  aa   077777 000043          	its	-1,1
    002417  aa   000001 000000
    002420  aa   077777 000043          	its	-1,1
    002421  aa   000001 000000
    002422  aa   077777 000043          	its	-1,1
    002423  aa   000001 000000
    002424  aa   077777 000043          	its	-1,1
    002425  aa   000001 000000
    002426  aa   077777 000043          	its	-1,1
    002427  aa   000001 000000
    002430  aa   077777 000043          	its	-1,1
    002431  aa   000001 000000
    002432  aa   077777 000043          	its	-1,1
    002433  aa   000001 000000
    002434  aa   077777 000043          	its	-1,1
    002435  aa   000001 000000
    002436  aa   077777 000043          	its	-1,1
    002437  aa   000001 000000
    002440  aa   077777 000043          	its	-1,1
    002441  aa   000001 000000
    002442  aa   077777 000043          	its	-1,1
    002443  aa   000001 000000
    002444  aa   077777 000043          	its	-1,1
    002445  aa   000001 000000
    002446  aa   077777 000043          	its	-1,1
    002447  aa   000001 000000
    002450  aa   077777 000043          	its	-1,1
    002451  aa   000001 000000
    002452  aa   077777 000043          	its	-1,1
    002453  aa   000001 000000
    002454  aa   077777 000043          	its	-1,1
    002455  aa   000001 000000
    002456  aa   077777 000043          	its	-1,1
    002457  aa   000001 000000
    002460  aa   077777 000043          	its	-1,1
    002461  aa   000001 000000
    002462  aa   077777 000043          	its	-1,1
    002463  aa   000001 000000
    002464  aa   077777 000043          	its	-1,1
    002465  aa   000001 000000
    002466  aa   077777 000043          	its	-1,1
    002467  aa   000001 000000
    002470  aa   077777 000043          	its	-1,1
    002471  aa   000001 000000
    002472  aa   077777 000043          	its	-1,1
    002473  aa   000001 000000
    002474  aa   077777 000043          	its	-1,1
    002475  aa   000001 000000
    002476  aa   077777 000043          	its	-1,1
    002477  aa   000001 000000
    002500  aa   077777 000043          	its	-1,1
    002501  aa   000001 000000
    002502  aa   077777 000043          	its	-1,1
    002503  aa   000001 000000
    002504  aa   077777 000043          	its	-1,1
    002505  aa   000001 000000
    002506  aa   077777 000043          	its	-1,1
    002507  aa   000001 000000
    002510  aa   077777 000043          	its	-1,1
    002511  aa   000001 000000
    002512  aa   077777 000043          	its	-1,1
    002513  aa   000001 000000
    002514  aa   077777 000043          	its	-1,1
    002515  aa   000001 000000
    002516  aa   077777 000043          	its	-1,1
    002517  aa   000001 000000
    002520  aa   077777 000043          	its	-1,1
    002521  aa   000001 000000
    002522  aa   077777 000043          	its	-1,1
    002523  aa   000001 000000
    002524  aa   077777 000043          	its	-1,1
    002525  aa   000001 000000
    002526  aa   077777 000043          	its	-1,1
    002527  aa   000001 000000
    002530  aa   077777 000043          	its	-1,1
    002531  aa   000001 000000
    002532  aa   077777 000043          	its	-1,1
    002533  aa   000001 000000
    002534  aa   077777 000043          	its	-1,1
    002535  aa   000001 000000
    002536  aa   077777 000043          	its	-1,1
    002537  aa   000001 000000
    002540  aa   077777 000043          	its	-1,1
    002541  aa   000001 000000
    002542  aa   077777 000043          	its	-1,1
    002543  aa   000001 000000
    002544  aa   077777 000043          	its	-1,1
    002545  aa   000001 000000
    002546  aa   077777 000043          	its	-1,1
    002547  aa   000001 000000
    002550  aa   077777 000043          	its	-1,1
    002551  aa   000001 000000
    002552  aa   077777 000043          	its	-1,1
    002553  aa   000001 000000
    002554  aa   077777 000043          	its	-1,1
    002555  aa   000001 000000
    002556  aa   077777 000043          	its	-1,1
    002557  aa   000001 000000
    002560  aa   077777 000043          	its	-1,1
    002561  aa   000001 000000
    002562  aa   077777 000043          	its	-1,1
    002563  aa   000001 000000
    002564  aa   077777 000043          	its	-1,1
    002565  aa   000001 000000
    002566  aa   077777 000043          	its	-1,1
    002567  aa   000001 000000
    002570  aa   077777 000043          	its	-1,1
    002571  aa   000001 000000
    002572  aa   077777 000043          	its	-1,1
    002573  aa   000001 000000
    002574  aa   077777 000043          	its	-1,1
    002575  aa   000001 000000
    002576  aa   077777 000043          	its	-1,1
    002577  aa   000001 000000
    002600  aa   077777 000043          	its	-1,1
    002601  aa   000001 000000
    002602  aa   077777 000043          	its	-1,1
    002603  aa   000001 000000
    002604  aa   077777 000043          	its	-1,1
    002605  aa   000001 000000
    002606  aa   077777 000043          	its	-1,1
    002607  aa   000001 000000
    002610  aa   077777 000043          	its	-1,1
    002611  aa   000001 000000
    002612  aa   077777 000043          	its	-1,1
    002613  aa   000001 000000
    002614  aa   077777 000043          	its	-1,1
    002615  aa   000001 000000
    002616  aa   077777 000043          	its	-1,1
    002617  aa   000001 000000
    002620  aa   077777 000043          	its	-1,1
    002621  aa   000001 000000
    002622  aa   077777 000043          	its	-1,1
    002623  aa   000001 000000
    002624  aa   077777 000043          	its	-1,1
    002625  aa   000001 000000
    002626  aa   077777 000043          	its	-1,1
    002627  aa   000001 000000
    002630  aa   077777 000043          	its	-1,1
    002631  aa   000001 000000
    002632  aa   077777 000043          	its	-1,1
    002633  aa   000001 000000
    002634  aa   077777 000043          	its	-1,1
    002635  aa   000001 000000
    002636  aa   077777 000043          	its	-1,1
    002637  aa   000001 000000
    002640  aa   077777 000043          	its	-1,1
    002641  aa   000001 000000
    002642  aa   077777 000043          	its	-1,1
    002643  aa   000001 000000
    002644  aa   077777 000043          	its	-1,1
    002645  aa   000001 000000
    002646  aa   077777 000043          	its	-1,1
    002647  aa   000001 000000
    002650  aa   077777 000043          	its	-1,1
    002651  aa   000001 000000
    002652  aa   077777 000043          	its	-1,1
    002653  aa   000001 000000
    002654  aa   077777 000043          	its	-1,1
    002655  aa   000001 000000
    002656  aa   077777 000043          	its	-1,1
    002657  aa   000001 000000
    002660  aa   077777 000043          	its	-1,1
    002661  aa   000001 000000
    002662  aa   077777 000043          	its	-1,1
    002663  aa   000001 000000
    002664  aa   077777 000043          	its	-1,1
    002665  aa   000001 000000
    002666  aa   077777 000043          	its	-1,1
    002667  aa   000001 000000
    002670  aa   077777 000043          	its	-1,1
    002671  aa   000001 000000
    002672  aa   077777 000043          	its	-1,1
    002673  aa   000001 000000
    002674  aa   077777 000043          	its	-1,1
    002675  aa   000001 000000
    002676  aa   077777 000043          	its	-1,1
    002677  aa   000001 000000
    002700  aa   077777 000043          	its	-1,1
    002701  aa   000001 000000
    002702  aa   077777 000043          	its	-1,1
    002703  aa   000001 000000
    002704  aa   077777 000043          	its	-1,1
    002705  aa   000001 000000
    002706  aa   077777 000043          	its	-1,1
    002707  aa   000001 000000
    002710  aa   077777 000043          	its	-1,1
    002711  aa   000001 000000
    002712  aa   077777 000043          	its	-1,1
    002713  aa   000001 000000
    002714  aa   077777 000043          	its	-1,1
    002715  aa   000001 000000
    002716  aa   077777 000043          	its	-1,1
    002717  aa   000001 000000
    002720  aa   077777 000043          	its	-1,1
    002721  aa   000001 000000
    002722  aa   077777 000043          	its	-1,1
    002723  aa   000001 000000
    002724  aa   077777 000043          	its	-1,1
    002725  aa   000001 000000
    002726  aa   077777 000043          	its	-1,1
    002727  aa   000001 000000
    002730  aa   077777 000043          	its	-1,1
    002731  aa   000001 000000
    002732  aa   077777 000043          	its	-1,1
    002733  aa   000001 000000
    002734  aa   077777 000043          	its	-1,1
    002735  aa   000001 000000
    002736  aa   077777 000043          	its	-1,1
    002737  aa   000001 000000
    002740  aa   077777 000043          	its	-1,1
    002741  aa   000001 000000
    002742  aa   077777 000043          	its	-1,1
    002743  aa   000001 000000
    002744  aa   077777 000043          	its	-1,1
    002745  aa   000001 000000
    002746  aa   077777 000043          	its	-1,1
    002747  aa   000001 000000
    002750  aa   077777 000043          	its	-1,1
    002751  aa   000001 000000
    002752  aa   077777 000043          	its	-1,1
    002753  aa   000001 000000
    002754  aa   077777 000043          	its	-1,1
    002755  aa   000001 000000
    002756  aa   077777 000043          	its	-1,1
    002757  aa   000001 000000
    002760  aa   077777 000043          	its	-1,1
    002761  aa   000001 000000
    002762  aa   077777 000043          	its	-1,1
    002763  aa   000001 000000
    002764  aa   077777 000043          	its	-1,1
    002765  aa   000001 000000
    002766  aa   077777 000043          	its	-1,1
    002767  aa   000001 000000
    002770  aa   077777 000043          	its	-1,1
    002771  aa   000001 000000
    002772  aa   077777 000043          	its	-1,1
    002773  aa   000001 000000
    002774  aa   077777 000043          	its	-1,1
    002775  aa   000001 000000
    002776  aa   077777 000043          	its	-1,1
    002777  aa   000001 000000
    003000  aa   077777 000043          	its	-1,1
    003001  aa   000001 000000
    003002  aa   077777 000043          	its	-1,1
    003003  aa   000001 000000
    003004  aa   077777 000043          	its	-1,1
    003005  aa   000001 000000
    003006  aa   077777 000043          	its	-1,1
    003007  aa   000001 000000
    003010  aa   077777 000043          	its	-1,1
    003011  aa   000001 000000
    003012  aa   077777 000043          	its	-1,1
    003013  aa   000001 000000
    003014  aa   077777 000043          	its	-1,1
    003015  aa   000001 000000
    003016  aa   077777 000043          	its	-1,1
    003017  aa   000001 000000
    003020  aa   077777 000043          	its	-1,1
    003021  aa   000001 000000
    003022  aa   077777 000043          	its	-1,1
    003023  aa   000001 000000
    003024  aa   077777 000043          	its	-1,1
    003025  aa   000001 000000
    003026  aa   077777 000043          	its	-1,1
    003027  aa   000001 000000
    003030  aa   077777 000043          	its	-1,1
    003031  aa   000001 000000
    003032  aa   077777 000043          	its	-1,1
    003033  aa   000001 000000
    003034  aa   077777 000043          	its	-1,1
    003035  aa   000001 000000
    003036  aa   077777 000043          	its	-1,1
    003037  aa   000001 000000
    003040  aa   077777 000043          	its	-1,1
    003041  aa   000001 000000
    003042  aa   077777 000043          	its	-1,1
    003043  aa   000001 000000
    003044  aa   077777 000043          	its	-1,1
    003045  aa   000001 000000
    003046  aa   077777 000043          	its	-1,1
    003047  aa   000001 000000
    003050  aa   077777 000043          	its	-1,1
    003051  aa   000001 000000
    003052  aa   077777 000043          	its	-1,1
    003053  aa   000001 000000
    003054  aa   077777 000043          	its	-1,1
    003055  aa   000001 000000
    003056  aa   077777 000043          	its	-1,1
    003057  aa   000001 000000
    003060  aa   077777 000043          	its	-1,1
    003061  aa   000001 000000
    003062  aa   077777 000043          	its	-1,1
    003063  aa   000001 000000
    003064  aa   077777 000043          	its	-1,1
    003065  aa   000001 000000
    003066  aa   077777 000043          	its	-1,1
    003067  aa   000001 000000
    003070  aa   077777 000043          	its	-1,1
    003071  aa   000001 000000
    003072  aa   077777 000043          	its	-1,1
    003073  aa   000001 000000
    003074  aa   077777 000043          	its	-1,1
    003075  aa   000001 000000
    003076  aa   077777 000043          	its	-1,1
    003077  aa   000001 000000
    003100  aa   077777 000043          	its	-1,1
    003101  aa   000001 000000
    003102  aa   077777 000043          	its	-1,1
    003103  aa   000001 000000
    003104  aa   077777 000043          	its	-1,1
    003105  aa   000001 000000
    003106  aa   077777 000043          	its	-1,1
    003107  aa   000001 000000
    003110  aa   077777 000043          	its	-1,1
    003111  aa   000001 000000
    003112  aa   077777 000043          	its	-1,1
    003113  aa   000001 000000
    003114  aa   077777 000043          	its	-1,1
    003115  aa   000001 000000
    003116  aa   077777 000043          	its	-1,1
    003117  aa   000001 000000
    003120  aa   077777 000043          	its	-1,1
    003121  aa   000001 000000
    003122  aa   077777 000043          	its	-1,1
    003123  aa   000001 000000
    003124  aa   077777 000043          	its	-1,1
    003125  aa   000001 000000
    003126  aa   077777 000043          	its	-1,1
    003127  aa   000001 000000
    003130  aa   077777 000043          	its	-1,1
    003131  aa   000001 000000
    003132  aa   077777 000043          	its	-1,1
    003133  aa   000001 000000
    003134  aa   077777 000043          	its	-1,1
    003135  aa   000001 000000
    003136  aa   077777 000043          	its	-1,1
    003137  aa   000001 000000
    003140  aa   077777 000043          	its	-1,1
    003141  aa   000001 000000
    003142  aa   077777 000043          	its	-1,1
    003143  aa   000001 000000
    003144  aa   077777 000043          	its	-1,1
    003145  aa   000001 000000
    003146  aa   077777 000043          	its	-1,1
    003147  aa   000001 000000
    003150  aa   077777 000043          	its	-1,1
    003151  aa   000001 000000
    003152  aa   077777 000043          	its	-1,1
    003153  aa   000001 000000
    003154  aa   077777 000043          	its	-1,1
    003155  aa   000001 000000
    003156  aa   077777 000043          	its	-1,1
    003157  aa   000001 000000
    003160  aa   077777 000043          	its	-1,1
    003161  aa   000001 000000
    003162  aa   077777 000043          	its	-1,1
    003163  aa   000001 000000
    003164  aa   077777 000043          	its	-1,1
    003165  aa   000001 000000
    003166  aa   077777 000043          	its	-1,1
    003167  aa   000001 000000
    003170  aa   077777 000043          	its	-1,1
    003171  aa   000001 000000
    003172  aa   077777 000043          	its	-1,1
    003173  aa   000001 000000
    003174  aa   077777 000043          	its	-1,1
    003175  aa   000001 000000
    003176  aa   077777 000043          	its	-1,1
    003177  aa   000001 000000
    003200  aa   077777 000043          	its	-1,1
    003201  aa   000001 000000
    003202  aa   077777 000043          	its	-1,1
    003203  aa   000001 000000
    003204  aa   077777 000043          	its	-1,1
    003205  aa   000001 000000
    003206  aa   077777 000043          	its	-1,1
    003207  aa   000001 000000
    003210  aa   077777 000043          	its	-1,1
    003211  aa   000001 000000
    003212  aa   077777 000043          	its	-1,1
    003213  aa   000001 000000
    003214  aa   077777 000043          	its	-1,1
    003215  aa   000001 000000
    003216  aa   077777 000043          	its	-1,1
    003217  aa   000001 000000
    003220  aa   077777 000043          	its	-1,1
    003221  aa   000001 000000
    003222  aa   077777 000043          	its	-1,1
    003223  aa   000001 000000
    003224  aa   077777 000043          	its	-1,1
    003225  aa   000001 000000
    003226  aa   077777 000043          	its	-1,1
    003227  aa   000001 000000
    003230  aa   077777 000043          	its	-1,1
    003231  aa   000001 000000
    003232  aa   077777 000043          	its	-1,1
    003233  aa   000001 000000
    003234  aa   077777 000043          	its	-1,1
    003235  aa   000001 000000
    003236  aa   077777 000043          	its	-1,1
    003237  aa   000001 000000
    003240  aa   077777 000043          	its	-1,1
    003241  aa   000001 000000
    003242  aa   077777 000043          	its	-1,1
    003243  aa   000001 000000
    003244  aa   077777 000043          	its	-1,1
    003245  aa   000001 000000
    003246  aa   077777 000043          	its	-1,1
    003247  aa   000001 000000
    003250  aa   077777 000043          	its	-1,1
    003251  aa   000001 000000
    003252  aa   077777 000043          	its	-1,1
    003253  aa   000001 000000
    003254  aa   077777 000043          	its	-1,1
    003255  aa   000001 000000
    003256  aa   077777 000043          	its	-1,1
    003257  aa   000001 000000
    003260  aa   077777 000043          	its	-1,1
    003261  aa   000001 000000
    003262  aa   077777 000043          	its	-1,1
    003263  aa   000001 000000
    003264  aa   077777 000043          	its	-1,1
    003265  aa   000001 000000
    003266  aa   077777 000043          	its	-1,1
    003267  aa   000001 000000
    003270  aa   077777 000043          	its	-1,1
    003271  aa   000001 000000
    003272  aa   077777 000043          	its	-1,1
    003273  aa   000001 000000
    003274  aa   077777 000043          	its	-1,1
    003275  aa   000001 000000
    003276  aa   077777 000043          	its	-1,1
    003277  aa   000001 000000
    003300  aa   077777 000043          	its	-1,1
    003301  aa   000001 000000
    003302  aa   077777 000043          	its	-1,1
    003303  aa   000001 000000
    003304  aa   077777 000043          	its	-1,1
    003305  aa   000001 000000
    003306  aa   077777 000043          	its	-1,1
    003307  aa   000001 000000
    003310  aa   077777 000043          	its	-1,1
    003311  aa   000001 000000
    003312  aa   077777 000043          	its	-1,1
    003313  aa   000001 000000
    003314  aa   077777 000043          	its	-1,1
    003315  aa   000001 000000
    003316  aa   077777 000043          	its	-1,1
    003317  aa   000001 000000
    003320  aa   077777 000043          	its	-1,1
    003321  aa   000001 000000
    003322  aa   077777 000043          	its	-1,1
    003323  aa   000001 000000
    003324  aa   077777 000043          	its	-1,1
    003325  aa   000001 000000
    003326  aa   077777 000043          	its	-1,1
    003327  aa   000001 000000
    003330  aa   077777 000043          	its	-1,1
    003331  aa   000001 000000
    003332  aa   077777 000043          	its	-1,1
    003333  aa   000001 000000
    003334  aa   077777 000043          	its	-1,1
    003335  aa   000001 000000
    003336  aa   077777 000043          	its	-1,1
    003337  aa   000001 000000
    003340  aa   077777 000043          	its	-1,1
    003341  aa   000001 000000
    003342  aa   077777 000043          	its	-1,1
    003343  aa   000001 000000
    003344  aa   077777 000043          	its	-1,1
    003345  aa   000001 000000
    003346  aa   077777 000043          	its	-1,1
    003347  aa   000001 000000
    003350  aa   077777 000043          	its	-1,1
    003351  aa   000001 000000
    003352  aa   077777 000043          	its	-1,1
    003353  aa   000001 000000
    003354  aa   077777 000043          	its	-1,1
    003355  aa   000001 000000
    003356  aa   077777 000043          	its	-1,1
    003357  aa   000001 000000
    003360  aa   077777 000043          	its	-1,1
    003361  aa   000001 000000
    003362  aa   077777 000043          	its	-1,1
    003363  aa   000001 000000
    003364  aa   077777 000043          	its	-1,1
    003365  aa   000001 000000
    003366  aa   077777 000043          	its	-1,1
    003367  aa   000001 000000
    003370  aa   077777 000043          	its	-1,1
    003371  aa   000001 000000
    003372  aa   077777 000043          	its	-1,1
    003373  aa   000001 000000
    003374  aa   077777 000043          	its	-1,1
    003375  aa   000001 000000
    003376  aa   077777 000043          	its	-1,1
    003377  aa   000001 000000
    003400  aa   077777 000043          	its	-1,1
    003401  aa   000001 000000
    003402  aa   077777 000043          	its	-1,1
    003403  aa   000001 000000
    003404  aa   077777 000043          	its	-1,1
    003405  aa   000001 000000
    003406  aa   077777 000043          	its	-1,1
    003407  aa   000001 000000
    003410  aa   077777 000043          	its	-1,1
    003411  aa   000001 000000
    003412  aa   077777 000043          	its	-1,1
    003413  aa   000001 000000
    003414  aa   077777 000043          	its	-1,1
    003415  aa   000001 000000
    003416  aa   077777 000043          	its	-1,1
    003417  aa   000001 000000
    003420  aa   077777 000043          	its	-1,1
    003421  aa   000001 000000
    003422  aa   077777 000043          	its	-1,1
    003423  aa   000001 000000
    003424  aa   077777 000043          	its	-1,1
    003425  aa   000001 000000
    003426  aa   077777 000043          	its	-1,1
    003427  aa   000001 000000
    003430  aa   077777 000043          	its	-1,1
    003431  aa   000001 000000
    003432  aa   077777 000043          	its	-1,1
    003433  aa   000001 000000
    003434  aa   077777 000043          	its	-1,1
    003435  aa   000001 000000
    003436  aa   077777 000043          	its	-1,1
    003437  aa   000001 000000
    003440  aa   077777 000043          	its	-1,1
    003441  aa   000001 000000
    003442  aa   077777 000043          	its	-1,1
    003443  aa   000001 000000
    003444  aa   077777 000043          	its	-1,1
    003445  aa   000001 000000
    003446  aa   077777 000043          	its	-1,1
    003447  aa   000001 000000
    003450  aa   077777 000043          	its	-1,1
    003451  aa   000001 000000
    003452  aa   077777 000043          	its	-1,1
    003453  aa   000001 000000
    003454  aa   077777 000043          	its	-1,1
    003455  aa   000001 000000
    003456  aa   077777 000043          	its	-1,1
    003457  aa   000001 000000
    003460  aa   077777 000043          	its	-1,1
    003461  aa   000001 000000
    003462  aa   077777 000043          	its	-1,1
    003463  aa   000001 000000
    003464  aa   077777 000043          	its	-1,1
    003465  aa   000001 000000
    003466  aa   077777 000043          	its	-1,1
    003467  aa   000001 000000
    003470  aa   077777 000043          	its	-1,1
    003471  aa   000001 000000
    003472  aa   077777 000043          	its	-1,1
    003473  aa   000001 000000
    003474  aa   077777 000043          	its	-1,1
    003475  aa   000001 000000
    003476  aa   077777 000043          	its	-1,1
    003477  aa   000001 000000
    003500  aa   077777 000043          	its	-1,1
    003501  aa   000001 000000
    003502  aa   077777 000043          	its	-1,1
    003503  aa   000001 000000
    003504  aa   077777 000043          	its	-1,1
    003505  aa   000001 000000
    003506  aa   077777 000043          	its	-1,1
    003507  aa   000001 000000
    003510  aa   077777 000043          	its	-1,1
    003511  aa   000001 000000
    003512  aa   077777 000043          	its	-1,1
    003513  aa   000001 000000
    003514  aa   077777 000043          	its	-1,1
    003515  aa   000001 000000
    003516  aa   077777 000043          	its	-1,1
    003517  aa   000001 000000
    003520  aa   077777 000043          	its	-1,1
    003521  aa   000001 000000
    003522  aa   077777 000043          	its	-1,1
    003523  aa   000001 000000
    003524  aa   077777 000043          	its	-1,1
    003525  aa   000001 000000
    003526  aa   077777 000043          	its	-1,1
    003527  aa   000001 000000
    003530  aa   077777 000043          	its	-1,1
    003531  aa   000001 000000
    003532  aa   077777 000043          	its	-1,1
    003533  aa   000001 000000
    003534  aa   077777 000043          	its	-1,1
    003535  aa   000001 000000
    003536  aa   077777 000043          	its	-1,1
    003537  aa   000001 000000
    003540  aa   077777 000043          	its	-1,1
    003541  aa   000001 000000
    003542  aa   077777 000043          	its	-1,1
    003543  aa   000001 000000
    003544  aa   077777 000043          	its	-1,1
    003545  aa   000001 000000
    003546  aa   077777 000043          	its	-1,1
    003547  aa   000001 000000
    003550  aa   077777 000043          	its	-1,1
    003551  aa   000001 000000
    003552  aa   077777 000043          	its	-1,1
    003553  aa   000001 000000
    003554  aa   077777 000043          	its	-1,1
    003555  aa   000001 000000
    003556  aa   077777 000043          	its	-1,1
    003557  aa   000001 000000
    003560  aa   077777 000043          	its	-1,1
    003561  aa   000001 000000
    003562  aa   077777 000043          	its	-1,1
    003563  aa   000001 000000
    003564  aa   077777 000043          	its	-1,1
    003565  aa   000001 000000
    003566  aa   077777 000043          	its	-1,1
    003567  aa   000001 000000
    003570  aa   077777 000043          	its	-1,1
    003571  aa   000001 000000
    003572  aa   077777 000043          	its	-1,1
    003573  aa   000001 000000
    003574  aa   077777 000043          	its	-1,1
    003575  aa   000001 000000
    003576  aa   077777 000043          	its	-1,1
    003577  aa   000001 000000
    003600  aa   077777 000043          	its	-1,1
    003601  aa   000001 000000
    003602  aa   077777 000043          	its	-1,1
    003603  aa   000001 000000
    003604  aa   077777 000043          	its	-1,1
    003605  aa   000001 000000
    003606  aa   077777 000043          	its	-1,1
    003607  aa   000001 000000
    003610  aa   077777 000043          	its	-1,1
    003611  aa   000001 000000
    003612  aa   077777 000043          	its	-1,1
    003613  aa   000001 000000
    003614  aa   077777 000043          	its	-1,1
    003615  aa   000001 000000
    003616  aa   077777 000043          	its	-1,1
    003617  aa   000001 000000
    003620  aa   077777 000043          	its	-1,1
    003621  aa   000001 000000
    003622  aa   077777 000043          	its	-1,1
    003623  aa   000001 000000
    003624  aa   077777 000043          	its	-1,1
    003625  aa   000001 000000
    003626  aa   077777 000043          	its	-1,1
    003627  aa   000001 000000
    003630  aa   077777 000043          	its	-1,1
    003631  aa   000001 000000
    003632  aa   077777 000043          	its	-1,1
    003633  aa   000001 000000
    003634  aa   077777 000043          	its	-1,1
    003635  aa   000001 000000
    003636  aa   077777 000043          	its	-1,1
    003637  aa   000001 000000
    003640  aa   077777 000043          	its	-1,1
    003641  aa   000001 000000
    003642  aa   077777 000043          	its	-1,1
    003643  aa   000001 000000
    003644  aa   077777 000043          	its	-1,1
    003645  aa   000001 000000
    003646  aa   077777 000043          	its	-1,1
    003647  aa   000001 000000
    003650  aa   077777 000043          	its	-1,1
    003651  aa   000001 000000
    003652  aa   077777 000043          	its	-1,1
    003653  aa   000001 000000
    003654  aa   077777 000043          	its	-1,1
    003655  aa   000001 000000
    003656  aa   077777 000043          	its	-1,1
    003657  aa   000001 000000
    003660  aa   077777 000043          	its	-1,1
    003661  aa   000001 000000
    003662  aa   077777 000043          	its	-1,1
    003663  aa   000001 000000
    003664  aa   077777 000043          	its	-1,1
    003665  aa   000001 000000
    003666  aa   077777 000043          	its	-1,1
    003667  aa   000001 000000
    003670  aa   077777 000043          	its	-1,1
    003671  aa   000001 000000
    003672  aa   077777 000043          	its	-1,1
    003673  aa   000001 000000
    003674  aa   077777 000043          	its	-1,1
    003675  aa   000001 000000
    003676  aa   077777 000043          	its	-1,1
    003677  aa   000001 000000
    003700  aa   077777 000043          	its	-1,1
    003701  aa   000001 000000
    003702  aa   077777 000043          	its	-1,1
    003703  aa   000001 000000
    003704  aa   077777 000043          	its	-1,1
    003705  aa   000001 000000
    003706  aa   077777 000043          	its	-1,1
    003707  aa   000001 000000
    003710  aa   077777 000043          	its	-1,1
    003711  aa   000001 000000
    003712  aa   077777 000043          	its	-1,1
    003713  aa   000001 000000
    003714  aa   077777 000043          	its	-1,1
    003715  aa   000001 000000
    003716  aa   077777 000043          	its	-1,1
    003717  aa   000001 000000
    003720  aa   077777 000043          	its	-1,1
    003721  aa   000001 000000
    003722  aa   077777 000043          	its	-1,1
    003723  aa   000001 000000
    003724  aa   077777 000043          	its	-1,1
    003725  aa   000001 000000
    003726  aa   077777 000043          	its	-1,1
    003727  aa   000001 000000
    003730  aa   077777 000043          	its	-1,1
    003731  aa   000001 000000
    003732  aa   077777 000043          	its	-1,1
    003733  aa   000001 000000
    003734  aa   077777 000043          	its	-1,1
    003735  aa   000001 000000
    003736  aa   077777 000043          	its	-1,1
    003737  aa   000001 000000
    003740  aa   077777 000043          	its	-1,1
    003741  aa   000001 000000
    003742  aa   077777 000043          	its	-1,1
    003743  aa   000001 000000
    003744  aa   077777 000043          	its	-1,1
    003745  aa   000001 000000
    003746  aa   077777 000043          	its	-1,1
    003747  aa   000001 000000
    003750  aa   077777 000043          	its	-1,1
    003751  aa   000001 000000
    003752  aa   077777 000043          	its	-1,1
    003753  aa   000001 000000
    003754  aa   077777 000043          	its	-1,1
    003755  aa   000001 000000
    003756  aa   077777 000043          	its	-1,1
    003757  aa   000001 000000
    003760  aa   077777 000043          	its	-1,1
    003761  aa   000001 000000
    003762  aa   077777 000043          	its	-1,1
    003763  aa   000001 000000
    003764  aa   077777 000043          	its	-1,1
    003765  aa   000001 000000
    003766  aa   077777 000043          	its	-1,1
    003767  aa   000001 000000
                                    46  	null_pointer	MSp,1000
                                        	even
                        003770          	segdef	MSp
    003770                              MSp:
                        001750          	dup	1000
    003770  aa   077777 000043          	its	-1,1
    003771  aa   000001 000000
                                        	dupend
    003772  aa   077777 000043          	its	-1,1
    003773  aa   000001 000000
    003774  aa   077777 000043          	its	-1,1
    003775  aa   000001 000000
    003776  aa   077777 000043          	its	-1,1
    003777  aa   000001 000000
    004000  aa   077777 000043          	its	-1,1
    004001  aa   000001 000000
    004002  aa   077777 000043          	its	-1,1
    004003  aa   000001 000000
    004004  aa   077777 000043          	its	-1,1
    004005  aa   000001 000000
    004006  aa   077777 000043          	its	-1,1
    004007  aa   000001 000000
    004010  aa   077777 000043          	its	-1,1
    004011  aa   000001 000000
    004012  aa   077777 000043          	its	-1,1
    004013  aa   000001 000000
    004014  aa   077777 000043          	its	-1,1
    004015  aa   000001 000000
    004016  aa   077777 000043          	its	-1,1
    004017  aa   000001 000000
    004020  aa   077777 000043          	its	-1,1
    004021  aa   000001 000000
    004022  aa   077777 000043          	its	-1,1
    004023  aa   000001 000000
    004024  aa   077777 000043          	its	-1,1
    004025  aa   000001 000000
    004026  aa   077777 000043          	its	-1,1
    004027  aa   000001 000000
    004030  aa   077777 000043          	its	-1,1
    004031  aa   000001 000000
    004032  aa   077777 000043          	its	-1,1
    004033  aa   000001 000000
    004034  aa   077777 000043          	its	-1,1
    004035  aa   000001 000000
    004036  aa   077777 000043          	its	-1,1
    004037  aa   000001 000000
    004040  aa   077777 000043          	its	-1,1
    004041  aa   000001 000000
    004042  aa   077777 000043          	its	-1,1
    004043  aa   000001 000000
    004044  aa   077777 000043          	its	-1,1
    004045  aa   000001 000000
    004046  aa   077777 000043          	its	-1,1
    004047  aa   000001 000000
    004050  aa   077777 000043          	its	-1,1
    004051  aa   000001 000000
    004052  aa   077777 000043          	its	-1,1
    004053  aa   000001 000000
    004054  aa   077777 000043          	its	-1,1
    004055  aa   000001 000000
    004056  aa   077777 000043          	its	-1,1
    004057  aa   000001 000000
    004060  aa   077777 000043          	its	-1,1
    004061  aa   000001 000000
    004062  aa   077777 000043          	its	-1,1
    004063  aa   000001 000000
    004064  aa   077777 000043          	its	-1,1
    004065  aa   000001 000000
    004066  aa   077777 000043          	its	-1,1
    004067  aa   000001 000000
    004070  aa   077777 000043          	its	-1,1
    004071  aa   000001 000000
    004072  aa   077777 000043          	its	-1,1
    004073  aa   000001 000000
    004074  aa   077777 000043          	its	-1,1
    004075  aa   000001 000000
    004076  aa   077777 000043          	its	-1,1
    004077  aa   000001 000000
    004100  aa   077777 000043          	its	-1,1
    004101  aa   000001 000000
    004102  aa   077777 000043          	its	-1,1
    004103  aa   000001 000000
    004104  aa   077777 000043          	its	-1,1
    004105  aa   000001 000000
    004106  aa   077777 000043          	its	-1,1
    004107  aa   000001 000000
    004110  aa   077777 000043          	its	-1,1
    004111  aa   000001 000000
    004112  aa   077777 000043          	its	-1,1
    004113  aa   000001 000000
    004114  aa   077777 000043          	its	-1,1
    004115  aa   000001 000000
    004116  aa   077777 000043          	its	-1,1
    004117  aa   000001 000000
    004120  aa   077777 000043          	its	-1,1
    004121  aa   000001 000000
    004122  aa   077777 000043          	its	-1,1
    004123  aa   000001 000000
    004124  aa   077777 000043          	its	-1,1
    004125  aa   000001 000000
    004126  aa   077777 000043          	its	-1,1
    004127  aa   000001 000000
    004130  aa   077777 000043          	its	-1,1
    004131  aa   000001 000000
    004132  aa   077777 000043          	its	-1,1
    004133  aa   000001 000000
    004134  aa   077777 000043          	its	-1,1
    004135  aa   000001 000000
    004136  aa   077777 000043          	its	-1,1
    004137  aa   000001 000000
    004140  aa   077777 000043          	its	-1,1
    004141  aa   000001 000000
    004142  aa   077777 000043          	its	-1,1
    004143  aa   000001 000000
    004144  aa   077777 000043          	its	-1,1
    004145  aa   000001 000000
    004146  aa   077777 000043          	its	-1,1
    004147  aa   000001 000000
    004150  aa   077777 000043          	its	-1,1
    004151  aa   000001 000000
    004152  aa   077777 000043          	its	-1,1
    004153  aa   000001 000000
    004154  aa   077777 000043          	its	-1,1
    004155  aa   000001 000000
    004156  aa   077777 000043          	its	-1,1
    004157  aa   000001 000000
    004160  aa   077777 000043          	its	-1,1
    004161  aa   000001 000000
    004162  aa   077777 000043          	its	-1,1
    004163  aa   000001 000000
    004164  aa   077777 000043          	its	-1,1
    004165  aa   000001 000000
    004166  aa   077777 000043          	its	-1,1
    004167  aa   000001 000000
    004170  aa   077777 000043          	its	-1,1
    004171  aa   000001 000000
    004172  aa   077777 000043          	its	-1,1
    004173  aa   000001 000000
    004174  aa   077777 000043          	its	-1,1
    004175  aa   000001 000000
    004176  aa   077777 000043          	its	-1,1
    004177  aa   000001 000000
    004200  aa   077777 000043          	its	-1,1
    004201  aa   000001 000000
    004202  aa   077777 000043          	its	-1,1
    004203  aa   000001 000000
    004204  aa   077777 000043          	its	-1,1
    004205  aa   000001 000000
    004206  aa   077777 000043          	its	-1,1
    004207  aa   000001 000000
    004210  aa   077777 000043          	its	-1,1
    004211  aa   000001 000000
    004212  aa   077777 000043          	its	-1,1
    004213  aa   000001 000000
    004214  aa   077777 000043          	its	-1,1
    004215  aa   000001 000000
    004216  aa   077777 000043          	its	-1,1
    004217  aa   000001 000000
    004220  aa   077777 000043          	its	-1,1
    004221  aa   000001 000000
    004222  aa   077777 000043          	its	-1,1
    004223  aa   000001 000000
    004224  aa   077777 000043          	its	-1,1
    004225  aa   000001 000000
    004226  aa   077777 000043          	its	-1,1
    004227  aa   000001 000000
    004230  aa   077777 000043          	its	-1,1
    004231  aa   000001 000000
    004232  aa   077777 000043          	its	-1,1
    004233  aa   000001 000000
    004234  aa   077777 000043          	its	-1,1
    004235  aa   000001 000000
    004236  aa   077777 000043          	its	-1,1
    004237  aa   000001 000000
    004240  aa   077777 000043          	its	-1,1
    004241  aa   000001 000000
    004242  aa   077777 000043          	its	-1,1
    004243  aa   000001 000000
    004244  aa   077777 000043          	its	-1,1
    004245  aa   000001 000000
    004246  aa   077777 000043          	its	-1,1
    004247  aa   000001 000000
    004250  aa   077777 000043          	its	-1,1
    004251  aa   000001 000000
    004252  aa   077777 000043          	its	-1,1
    004253  aa   000001 000000
    004254  aa   077777 000043          	its	-1,1
    004255  aa   000001 000000
    004256  aa   077777 000043          	its	-1,1
    004257  aa   000001 000000
    004260  aa   077777 000043          	its	-1,1
    004261  aa   000001 000000
    004262  aa   077777 000043          	its	-1,1
    004263  aa   000001 000000
    004264  aa   077777 000043          	its	-1,1
    004265  aa   000001 000000
    004266  aa   077777 000043          	its	-1,1
    004267  aa   000001 000000
    004270  aa   077777 000043          	its	-1,1
    004271  aa   000001 000000
    004272  aa   077777 000043          	its	-1,1
    004273  aa   000001 000000
    004274  aa   077777 000043          	its	-1,1
    004275  aa   000001 000000
    004276  aa   077777 000043          	its	-1,1
    004277  aa   000001 000000
    004300  aa   077777 000043          	its	-1,1
    004301  aa   000001 000000
    004302  aa   077777 000043          	its	-1,1
    004303  aa   000001 000000
    004304  aa   077777 000043          	its	-1,1
    004305  aa   000001 000000
    004306  aa   077777 000043          	its	-1,1
    004307  aa   000001 000000
    004310  aa   077777 000043          	its	-1,1
    004311  aa   000001 000000
    004312  aa   077777 000043          	its	-1,1
    004313  aa   000001 000000
    004314  aa   077777 000043          	its	-1,1
    004315  aa   000001 000000
    004316  aa   077777 000043          	its	-1,1
    004317  aa   000001 000000
    004320  aa   077777 000043          	its	-1,1
    004321  aa   000001 000000
    004322  aa   077777 000043          	its	-1,1
    004323  aa   000001 000000
    004324  aa   077777 000043          	its	-1,1
    004325  aa   000001 000000
    004326  aa   077777 000043          	its	-1,1
    004327  aa   000001 000000
    004330  aa   077777 000043          	its	-1,1
    004331  aa   000001 000000
    004332  aa   077777 000043          	its	-1,1
    004333  aa   000001 000000
    004334  aa   077777 000043          	its	-1,1
    004335  aa   000001 000000
    004336  aa   077777 000043          	its	-1,1
    004337  aa   000001 000000
    004340  aa   077777 000043          	its	-1,1
    004341  aa   000001 000000
    004342  aa   077777 000043          	its	-1,1
    004343  aa   000001 000000
    004344  aa   077777 000043          	its	-1,1
    004345  aa   000001 000000
    004346  aa   077777 000043          	its	-1,1
    004347  aa   000001 000000
    004350  aa   077777 000043          	its	-1,1
    004351  aa   000001 000000
    004352  aa   077777 000043          	its	-1,1
    004353  aa   000001 000000
    004354  aa   077777 000043          	its	-1,1
    004355  aa   000001 000000
    004356  aa   077777 000043          	its	-1,1
    004357  aa   000001 000000
    004360  aa   077777 000043          	its	-1,1
    004361  aa   000001 000000
    004362  aa   077777 000043          	its	-1,1
    004363  aa   000001 000000
    004364  aa   077777 000043          	its	-1,1
    004365  aa   000001 000000
    004366  aa   077777 000043          	its	-1,1
    004367  aa   000001 000000
    004370  aa   077777 000043          	its	-1,1
    004371  aa   000001 000000
    004372  aa   077777 000043          	its	-1,1
    004373  aa   000001 000000
    004374  aa   077777 000043          	its	-1,1
    004375  aa   000001 000000
    004376  aa   077777 000043          	its	-1,1
    004377  aa   000001 000000
    004400  aa   077777 000043          	its	-1,1
    004401  aa   000001 000000
    004402  aa   077777 000043          	its	-1,1
    004403  aa   000001 000000
    004404  aa   077777 000043          	its	-1,1
    004405  aa   000001 000000
    004406  aa   077777 000043          	its	-1,1
    004407  aa   000001 000000
    004410  aa   077777 000043          	its	-1,1
    004411  aa   000001 000000
    004412  aa   077777 000043          	its	-1,1
    004413  aa   000001 000000
    004414  aa   077777 000043          	its	-1,1
    004415  aa   000001 000000
    004416  aa   077777 000043          	its	-1,1
    004417  aa   000001 000000
    004420  aa   077777 000043          	its	-1,1
    004421  aa   000001 000000
    004422  aa   077777 000043          	its	-1,1
    004423  aa   000001 000000
    004424  aa   077777 000043          	its	-1,1
    004425  aa   000001 000000
    004426  aa   077777 000043          	its	-1,1
    004427  aa   000001 000000
    004430  aa   077777 000043          	its	-1,1
    004431  aa   000001 000000
    004432  aa   077777 000043          	its	-1,1
    004433  aa   000001 000000
    004434  aa   077777 000043          	its	-1,1
    004435  aa   000001 000000
    004436  aa   077777 000043          	its	-1,1
    004437  aa   000001 000000
    004440  aa   077777 000043          	its	-1,1
    004441  aa   000001 000000
    004442  aa   077777 000043          	its	-1,1
    004443  aa   000001 000000
    004444  aa   077777 000043          	its	-1,1
    004445  aa   000001 000000
    004446  aa   077777 000043          	its	-1,1
    004447  aa   000001 000000
    004450  aa   077777 000043          	its	-1,1
    004451  aa   000001 000000
    004452  aa   077777 000043          	its	-1,1
    004453  aa   000001 000000
    004454  aa   077777 000043          	its	-1,1
    004455  aa   000001 000000
    004456  aa   077777 000043          	its	-1,1
    004457  aa   000001 000000
    004460  aa   077777 000043          	its	-1,1
    004461  aa   000001 000000
    004462  aa   077777 000043          	its	-1,1
    004463  aa   000001 000000
    004464  aa   077777 000043          	its	-1,1
    004465  aa   000001 000000
    004466  aa   077777 000043          	its	-1,1
    004467  aa   000001 000000
    004470  aa   077777 000043          	its	-1,1
    004471  aa   000001 000000
    004472  aa   077777 000043          	its	-1,1
    004473  aa   000001 000000
    004474  aa   077777 000043          	its	-1,1
    004475  aa   000001 000000
    004476  aa   077777 000043          	its	-1,1
    004477  aa   000001 000000
    004500  aa   077777 000043          	its	-1,1
    004501  aa   000001 000000
    004502  aa   077777 000043          	its	-1,1
    004503  aa   000001 000000
    004504  aa   077777 000043          	its	-1,1
    004505  aa   000001 000000
    004506  aa   077777 000043          	its	-1,1
    004507  aa   000001 000000
    004510  aa   077777 000043          	its	-1,1
    004511  aa   000001 000000
    004512  aa   077777 000043          	its	-1,1
    004513  aa   000001 000000
    004514  aa   077777 000043          	its	-1,1
    004515  aa   000001 000000
    004516  aa   077777 000043          	its	-1,1
    004517  aa   000001 000000
    004520  aa   077777 000043          	its	-1,1
    004521  aa   000001 000000
    004522  aa   077777 000043          	its	-1,1
    004523  aa   000001 000000
    004524  aa   077777 000043          	its	-1,1
    004525  aa   000001 000000
    004526  aa   077777 000043          	its	-1,1
    004527  aa   000001 000000
    004530  aa   077777 000043          	its	-1,1
    004531  aa   000001 000000
    004532  aa   077777 000043          	its	-1,1
    004533  aa   000001 000000
    004534  aa   077777 000043          	its	-1,1
    004535  aa   000001 000000
    004536  aa   077777 000043          	its	-1,1
    004537  aa   000001 000000
    004540  aa   077777 000043          	its	-1,1
    004541  aa   000001 000000
    004542  aa   077777 000043          	its	-1,1
    004543  aa   000001 000000
    004544  aa   077777 000043          	its	-1,1
    004545  aa   000001 000000
    004546  aa   077777 000043          	its	-1,1
    004547  aa   000001 000000
    004550  aa   077777 000043          	its	-1,1
    004551  aa   000001 000000
    004552  aa   077777 000043          	its	-1,1
    004553  aa   000001 000000
    004554  aa   077777 000043          	its	-1,1
    004555  aa   000001 000000
    004556  aa   077777 000043          	its	-1,1
    004557  aa   000001 000000
    004560  aa   077777 000043          	its	-1,1
    004561  aa   000001 000000
    004562  aa   077777 000043          	its	-1,1
    004563  aa   000001 000000
    004564  aa   077777 000043          	its	-1,1
    004565  aa   000001 000000
    004566  aa   077777 000043          	its	-1,1
    004567  aa   000001 000000
    004570  aa   077777 000043          	its	-1,1
    004571  aa   000001 000000
    004572  aa   077777 000043          	its	-1,1
    004573  aa   000001 000000
    004574  aa   077777 000043          	its	-1,1
    004575  aa   000001 000000
    004576  aa   077777 000043          	its	-1,1
    004577  aa   000001 000000
    004600  aa   077777 000043          	its	-1,1
    004601  aa   000001 000000
    004602  aa   077777 000043          	its	-1,1
    004603  aa   000001 000000
    004604  aa   077777 000043          	its	-1,1
    004605  aa   000001 000000
    004606  aa   077777 000043          	its	-1,1
    004607  aa   000001 000000
    004610  aa   077777 000043          	its	-1,1
    004611  aa   000001 000000
    004612  aa   077777 000043          	its	-1,1
    004613  aa   000001 000000
    004614  aa   077777 000043          	its	-1,1
    004615  aa   000001 000000
    004616  aa   077777 000043          	its	-1,1
    004617  aa   000001 000000
    004620  aa   077777 000043          	its	-1,1
    004621  aa   000001 000000
    004622  aa   077777 000043          	its	-1,1
    004623  aa   000001 000000
    004624  aa   077777 000043          	its	-1,1
    004625  aa   000001 000000
    004626  aa   077777 000043          	its	-1,1
    004627  aa   000001 000000
    004630  aa   077777 000043          	its	-1,1
    004631  aa   000001 000000
    004632  aa   077777 000043          	its	-1,1
    004633  aa   000001 000000
    004634  aa   077777 000043          	its	-1,1
    004635  aa   000001 000000
    004636  aa   077777 000043          	its	-1,1
    004637  aa   000001 000000
    004640  aa   077777 000043          	its	-1,1
    004641  aa   000001 000000
    004642  aa   077777 000043          	its	-1,1
    004643  aa   000001 000000
    004644  aa   077777 000043          	its	-1,1
    004645  aa   000001 000000
    004646  aa   077777 000043          	its	-1,1
    004647  aa   000001 000000
    004650  aa   077777 000043          	its	-1,1
    004651  aa   000001 000000
    004652  aa   077777 000043          	its	-1,1
    004653  aa   000001 000000
    004654  aa   077777 000043          	its	-1,1
    004655  aa   000001 000000
    004656  aa   077777 000043          	its	-1,1
    004657  aa   000001 000000
    004660  aa   077777 000043          	its	-1,1
    004661  aa   000001 000000
    004662  aa   077777 000043          	its	-1,1
    004663  aa   000001 000000
    004664  aa   077777 000043          	its	-1,1
    004665  aa   000001 000000
    004666  aa   077777 000043          	its	-1,1
    004667  aa   000001 000000
    004670  aa   077777 000043          	its	-1,1
    004671  aa   000001 000000
    004672  aa   077777 000043          	its	-1,1
    004673  aa   000001 000000
    004674  aa   077777 000043          	its	-1,1
    004675  aa   000001 000000
    004676  aa   077777 000043          	its	-1,1
    004677  aa   000001 000000
    004700  aa   077777 000043          	its	-1,1
    004701  aa   000001 000000
    004702  aa   077777 000043          	its	-1,1
    004703  aa   000001 000000
    004704  aa   077777 000043          	its	-1,1
    004705  aa   000001 000000
    004706  aa   077777 000043          	its	-1,1
    004707  aa   000001 000000
    004710  aa   077777 000043          	its	-1,1
    004711  aa   000001 000000
    004712  aa   077777 000043          	its	-1,1
    004713  aa   000001 000000
    004714  aa   077777 000043          	its	-1,1
    004715  aa   000001 000000
    004716  aa   077777 000043          	its	-1,1
    004717  aa   000001 000000
    004720  aa   077777 000043          	its	-1,1
    004721  aa   000001 000000
    004722  aa   077777 000043          	its	-1,1
    004723  aa   000001 000000
    004724  aa   077777 000043          	its	-1,1
    004725  aa   000001 000000
    004726  aa   077777 000043          	its	-1,1
    004727  aa   000001 000000
    004730  aa   077777 000043          	its	-1,1
    004731  aa   000001 000000
    004732  aa   077777 000043          	its	-1,1
    004733  aa   000001 000000
    004734  aa   077777 000043          	its	-1,1
    004735  aa   000001 000000
    004736  aa   077777 000043          	its	-1,1
    004737  aa   000001 000000
    004740  aa   077777 000043          	its	-1,1
    004741  aa   000001 000000
    004742  aa   077777 000043          	its	-1,1
    004743  aa   000001 000000
    004744  aa   077777 000043          	its	-1,1
    004745  aa   000001 000000
    004746  aa   077777 000043          	its	-1,1
    004747  aa   000001 000000
    004750  aa   077777 000043          	its	-1,1
    004751  aa   000001 000000
    004752  aa   077777 000043          	its	-1,1
    004753  aa   000001 000000
    004754  aa   077777 000043          	its	-1,1
    004755  aa   000001 000000
    004756  aa   077777 000043          	its	-1,1
    004757  aa   000001 000000
    004760  aa   077777 000043          	its	-1,1
    004761  aa   000001 000000
    004762  aa   077777 000043          	its	-1,1
    004763  aa   000001 000000
    004764  aa   077777 000043          	its	-1,1
    004765  aa   000001 000000
    004766  aa   077777 000043          	its	-1,1
    004767  aa   000001 000000
    004770  aa   077777 000043          	its	-1,1
    004771  aa   000001 000000
    004772  aa   077777 000043          	its	-1,1
    004773  aa   000001 000000
    004774  aa   077777 000043          	its	-1,1
    004775  aa   000001 000000
    004776  aa   077777 000043          	its	-1,1
    004777  aa   000001 000000
    005000  aa   077777 000043          	its	-1,1
    005001  aa   000001 000000
    005002  aa   077777 000043          	its	-1,1
    005003  aa   000001 000000
    005004  aa   077777 000043          	its	-1,1
    005005  aa   000001 000000
    005006  aa   077777 000043          	its	-1,1
    005007  aa   000001 000000
    005010  aa   077777 000043          	its	-1,1
    005011  aa   000001 000000
    005012  aa   077777 000043          	its	-1,1
    005013  aa   000001 000000
    005014  aa   077777 000043          	its	-1,1
    005015  aa   000001 000000
    005016  aa   077777 000043          	its	-1,1
    005017  aa   000001 000000
    005020  aa   077777 000043          	its	-1,1
    005021  aa   000001 000000
    005022  aa   077777 000043          	its	-1,1
    005023  aa   000001 000000
    005024  aa   077777 000043          	its	-1,1
    005025  aa   000001 000000
    005026  aa   077777 000043          	its	-1,1
    005027  aa   000001 000000
    005030  aa   077777 000043          	its	-1,1
    005031  aa   000001 000000
    005032  aa   077777 000043          	its	-1,1
    005033  aa   000001 000000
    005034  aa   077777 000043          	its	-1,1
    005035  aa   000001 000000
    005036  aa   077777 000043          	its	-1,1
    005037  aa   000001 000000
    005040  aa   077777 000043          	its	-1,1
    005041  aa   000001 000000
    005042  aa   077777 000043          	its	-1,1
    005043  aa   000001 000000
    005044  aa   077777 000043          	its	-1,1
    005045  aa   000001 000000
    005046  aa   077777 000043          	its	-1,1
    005047  aa   000001 000000
    005050  aa   077777 000043          	its	-1,1
    005051  aa   000001 000000
    005052  aa   077777 000043          	its	-1,1
    005053  aa   000001 000000
    005054  aa   077777 000043          	its	-1,1
    005055  aa   000001 000000
    005056  aa   077777 000043          	its	-1,1
    005057  aa   000001 000000
    005060  aa   077777 000043          	its	-1,1
    005061  aa   000001 000000
    005062  aa   077777 000043          	its	-1,1
    005063  aa   000001 000000
    005064  aa   077777 000043          	its	-1,1
    005065  aa   000001 000000
    005066  aa   077777 000043          	its	-1,1
    005067  aa   000001 000000
    005070  aa   077777 000043          	its	-1,1
    005071  aa   000001 000000
    005072  aa   077777 000043          	its	-1,1
    005073  aa   000001 000000
    005074  aa   077777 000043          	its	-1,1
    005075  aa   000001 000000
    005076  aa   077777 000043          	its	-1,1
    005077  aa   000001 000000
    005100  aa   077777 000043          	its	-1,1
    005101  aa   000001 000000
    005102  aa   077777 000043          	its	-1,1
    005103  aa   000001 000000
    005104  aa   077777 000043          	its	-1,1
    005105  aa   000001 000000
    005106  aa   077777 000043          	its	-1,1
    005107  aa   000001 000000
    005110  aa   077777 000043          	its	-1,1
    005111  aa   000001 000000
    005112  aa   077777 000043          	its	-1,1
    005113  aa   000001 000000
    005114  aa   077777 000043          	its	-1,1
    005115  aa   000001 000000
    005116  aa   077777 000043          	its	-1,1
    005117  aa   000001 000000
    005120  aa   077777 000043          	its	-1,1
    005121  aa   000001 000000
    005122  aa   077777 000043          	its	-1,1
    005123  aa   000001 000000
    005124  aa   077777 000043          	its	-1,1
    005125  aa   000001 000000
    005126  aa   077777 000043          	its	-1,1
    005127  aa   000001 000000
    005130  aa   077777 000043          	its	-1,1
    005131  aa   000001 000000
    005132  aa   077777 000043          	its	-1,1
    005133  aa   000001 000000
    005134  aa   077777 000043          	its	-1,1
    005135  aa   000001 000000
    005136  aa   077777 000043          	its	-1,1
    005137  aa   000001 000000
    005140  aa   077777 000043          	its	-1,1
    005141  aa   000001 000000
    005142  aa   077777 000043          	its	-1,1
    005143  aa   000001 000000
    005144  aa   077777 000043          	its	-1,1
    005145  aa   000001 000000
    005146  aa   077777 000043          	its	-1,1
    005147  aa   000001 000000
    005150  aa   077777 000043          	its	-1,1
    005151  aa   000001 000000
    005152  aa   077777 000043          	its	-1,1
    005153  aa   000001 000000
    005154  aa   077777 000043          	its	-1,1
    005155  aa   000001 000000
    005156  aa   077777 000043          	its	-1,1
    005157  aa   000001 000000
    005160  aa   077777 000043          	its	-1,1
    005161  aa   000001 000000
    005162  aa   077777 000043          	its	-1,1
    005163  aa   000001 000000
    005164  aa   077777 000043          	its	-1,1
    005165  aa   000001 000000
    005166  aa   077777 000043          	its	-1,1
    005167  aa   000001 000000
    005170  aa   077777 000043          	its	-1,1
    005171  aa   000001 000000
    005172  aa   077777 000043          	its	-1,1
    005173  aa   000001 000000
    005174  aa   077777 000043          	its	-1,1
    005175  aa   000001 000000
    005176  aa   077777 000043          	its	-1,1
    005177  aa   000001 000000
    005200  aa   077777 000043          	its	-1,1
    005201  aa   000001 000000
    005202  aa   077777 000043          	its	-1,1
    005203  aa   000001 000000
    005204  aa   077777 000043          	its	-1,1
    005205  aa   000001 000000
    005206  aa   077777 000043          	its	-1,1
    005207  aa   000001 000000
    005210  aa   077777 000043          	its	-1,1
    005211  aa   000001 000000
    005212  aa   077777 000043          	its	-1,1
    005213  aa   000001 000000
    005214  aa   077777 000043          	its	-1,1
    005215  aa   000001 000000
    005216  aa   077777 000043          	its	-1,1
    005217  aa   000001 000000
    005220  aa   077777 000043          	its	-1,1
    005221  aa   000001 000000
    005222  aa   077777 000043          	its	-1,1
    005223  aa   000001 000000
    005224  aa   077777 000043          	its	-1,1
    005225  aa   000001 000000
    005226  aa   077777 000043          	its	-1,1
    005227  aa   000001 000000
    005230  aa   077777 000043          	its	-1,1
    005231  aa   000001 000000
    005232  aa   077777 000043          	its	-1,1
    005233  aa   000001 000000
    005234  aa   077777 000043          	its	-1,1
    005235  aa   000001 000000
    005236  aa   077777 000043          	its	-1,1
    005237  aa   000001 000000
    005240  aa   077777 000043          	its	-1,1
    005241  aa   000001 000000
    005242  aa   077777 000043          	its	-1,1
    005243  aa   000001 000000
    005244  aa   077777 000043          	its	-1,1
    005245  aa   000001 000000
    005246  aa   077777 000043          	its	-1,1
    005247  aa   000001 000000
    005250  aa   077777 000043          	its	-1,1
    005251  aa   000001 000000
    005252  aa   077777 000043          	its	-1,1
    005253  aa   000001 000000
    005254  aa   077777 000043          	its	-1,1
    005255  aa   000001 000000
    005256  aa   077777 000043          	its	-1,1
    005257  aa   000001 000000
    005260  aa   077777 000043          	its	-1,1
    005261  aa   000001 000000
    005262  aa   077777 000043          	its	-1,1
    005263  aa   000001 000000
    005264  aa   077777 000043          	its	-1,1
    005265  aa   000001 000000
    005266  aa   077777 000043          	its	-1,1
    005267  aa   000001 000000
    005270  aa   077777 000043          	its	-1,1
    005271  aa   000001 000000
    005272  aa   077777 000043          	its	-1,1
    005273  aa   000001 000000
    005274  aa   077777 000043          	its	-1,1
    005275  aa   000001 000000
    005276  aa   077777 000043          	its	-1,1
    005277  aa   000001 000000
    005300  aa   077777 000043          	its	-1,1
    005301  aa   000001 000000
    005302  aa   077777 000043          	its	-1,1
    005303  aa   000001 000000
    005304  aa   077777 000043          	its	-1,1
    005305  aa   000001 000000
    005306  aa   077777 000043          	its	-1,1
    005307  aa   000001 000000
    005310  aa   077777 000043          	its	-1,1
    005311  aa   000001 000000
    005312  aa   077777 000043          	its	-1,1
    005313  aa   000001 000000
    005314  aa   077777 000043          	its	-1,1
    005315  aa   000001 000000
    005316  aa   077777 000043          	its	-1,1
    005317  aa   000001 000000
    005320  aa   077777 000043          	its	-1,1
    005321  aa   000001 000000
    005322  aa   077777 000043          	its	-1,1
    005323  aa   000001 000000
    005324  aa   077777 000043          	its	-1,1
    005325  aa   000001 000000
    005326  aa   077777 000043          	its	-1,1
    005327  aa   000001 000000
    005330  aa   077777 000043          	its	-1,1
    005331  aa   000001 000000
    005332  aa   077777 000043          	its	-1,1
    005333  aa   000001 000000
    005334  aa   077777 000043          	its	-1,1
    005335  aa   000001 000000
    005336  aa   077777 000043          	its	-1,1
    005337  aa   000001 000000
    005340  aa   077777 000043          	its	-1,1
    005341  aa   000001 000000
    005342  aa   077777 000043          	its	-1,1
    005343  aa   000001 000000
    005344  aa   077777 000043          	its	-1,1
    005345  aa   000001 000000
    005346  aa   077777 000043          	its	-1,1
    005347  aa   000001 000000
    005350  aa   077777 000043          	its	-1,1
    005351  aa   000001 000000
    005352  aa   077777 000043          	its	-1,1
    005353  aa   000001 000000
    005354  aa   077777 000043          	its	-1,1
    005355  aa   000001 000000
    005356  aa   077777 000043          	its	-1,1
    005357  aa   000001 000000
    005360  aa   077777 000043          	its	-1,1
    005361  aa   000001 000000
    005362  aa   077777 000043          	its	-1,1
    005363  aa   000001 000000
    005364  aa   077777 000043          	its	-1,1
    005365  aa   000001 000000
    005366  aa   077777 000043          	its	-1,1
    005367  aa   000001 000000
    005370  aa   077777 000043          	its	-1,1
    005371  aa   000001 000000
    005372  aa   077777 000043          	its	-1,1
    005373  aa   000001 000000
    005374  aa   077777 000043          	its	-1,1
    005375  aa   000001 000000
    005376  aa   077777 000043          	its	-1,1
    005377  aa   000001 000000
    005400  aa   077777 000043          	its	-1,1
    005401  aa   000001 000000
    005402  aa   077777 000043          	its	-1,1
    005403  aa   000001 000000
    005404  aa   077777 000043          	its	-1,1
    005405  aa   000001 000000
    005406  aa   077777 000043          	its	-1,1
    005407  aa   000001 000000
    005410  aa   077777 000043          	its	-1,1
    005411  aa   000001 000000
    005412  aa   077777 000043          	its	-1,1
    005413  aa   000001 000000
    005414  aa   077777 000043          	its	-1,1
    005415  aa   000001 000000
    005416  aa   077777 000043          	its	-1,1
    005417  aa   000001 000000
    005420  aa   077777 000043          	its	-1,1
    005421  aa   000001 000000
    005422  aa   077777 000043          	its	-1,1
    005423  aa   000001 000000
    005424  aa   077777 000043          	its	-1,1
    005425  aa   000001 000000
    005426  aa   077777 000043          	its	-1,1
    005427  aa   000001 000000
    005430  aa   077777 000043          	its	-1,1
    005431  aa   000001 000000
    005432  aa   077777 000043          	its	-1,1
    005433  aa   000001 000000
    005434  aa   077777 000043          	its	-1,1
    005435  aa   000001 000000
    005436  aa   077777 000043          	its	-1,1
    005437  aa   000001 000000
    005440  aa   077777 000043          	its	-1,1
    005441  aa   000001 000000
    005442  aa   077777 000043          	its	-1,1
    005443  aa   000001 000000
    005444  aa   077777 000043          	its	-1,1
    005445  aa   000001 000000
    005446  aa   077777 000043          	its	-1,1
    005447  aa   000001 000000
    005450  aa   077777 000043          	its	-1,1
    005451  aa   000001 000000
    005452  aa   077777 000043          	its	-1,1
    005453  aa   000001 000000
    005454  aa   077777 000043          	its	-1,1
    005455  aa   000001 000000
    005456  aa   077777 000043          	its	-1,1
    005457  aa   000001 000000
    005460  aa   077777 000043          	its	-1,1
    005461  aa   000001 000000
    005462  aa   077777 000043          	its	-1,1
    005463  aa   000001 000000
    005464  aa   077777 000043          	its	-1,1
    005465  aa   000001 000000
    005466  aa   077777 000043          	its	-1,1
    005467  aa   000001 000000
    005470  aa   077777 000043          	its	-1,1
    005471  aa   000001 000000
    005472  aa   077777 000043          	its	-1,1
    005473  aa   000001 000000
    005474  aa   077777 000043          	its	-1,1
    005475  aa   000001 000000
    005476  aa   077777 000043          	its	-1,1
    005477  aa   000001 000000
    005500  aa   077777 000043          	its	-1,1
    005501  aa   000001 000000
    005502  aa   077777 000043          	its	-1,1
    005503  aa   000001 000000
    005504  aa   077777 000043          	its	-1,1
    005505  aa   000001 000000
    005506  aa   077777 000043          	its	-1,1
    005507  aa   000001 000000
    005510  aa   077777 000043          	its	-1,1
    005511  aa   000001 000000
    005512  aa   077777 000043          	its	-1,1
    005513  aa   000001 000000
    005514  aa   077777 000043          	its	-1,1
    005515  aa   000001 000000
    005516  aa   077777 000043          	its	-1,1
    005517  aa   000001 000000
    005520  aa   077777 000043          	its	-1,1
    005521  aa   000001 000000
    005522  aa   077777 000043          	its	-1,1
    005523  aa   000001 000000
    005524  aa   077777 000043          	its	-1,1
    005525  aa   000001 000000
    005526  aa   077777 000043          	its	-1,1
    005527  aa   000001 000000
    005530  aa   077777 000043          	its	-1,1
    005531  aa   000001 000000
    005532  aa   077777 000043          	its	-1,1
    005533  aa   000001 000000
    005534  aa   077777 000043          	its	-1,1
    005535  aa   000001 000000
    005536  aa   077777 000043          	its	-1,1
    005537  aa   000001 000000
    005540  aa   077777 000043          	its	-1,1
    005541  aa   000001 000000
    005542  aa   077777 000043          	its	-1,1
    005543  aa   000001 000000
    005544  aa   077777 000043          	its	-1,1
    005545  aa   000001 000000
    005546  aa   077777 000043          	its	-1,1
    005547  aa   000001 000000
    005550  aa   077777 000043          	its	-1,1
    005551  aa   000001 000000
    005552  aa   077777 000043          	its	-1,1
    005553  aa   000001 000000
    005554  aa   077777 000043          	its	-1,1
    005555  aa   000001 000000
    005556  aa   077777 000043          	its	-1,1
    005557  aa   000001 000000
    005560  aa   077777 000043          	its	-1,1
    005561  aa   000001 000000
    005562  aa   077777 000043          	its	-1,1
    005563  aa   000001 000000
    005564  aa   077777 000043          	its	-1,1
    005565  aa   000001 000000
    005566  aa   077777 000043          	its	-1,1
    005567  aa   000001 000000
    005570  aa   077777 000043          	its	-1,1
    005571  aa   000001 000000
    005572  aa   077777 000043          	its	-1,1
    005573  aa   000001 000000
    005574  aa   077777 000043          	its	-1,1
    005575  aa   000001 000000
    005576  aa   077777 000043          	its	-1,1
    005577  aa   000001 000000
    005600  aa   077777 000043          	its	-1,1
    005601  aa   000001 000000
    005602  aa   077777 000043          	its	-1,1
    005603  aa   000001 000000
    005604  aa   077777 000043          	its	-1,1
    005605  aa   000001 000000
    005606  aa   077777 000043          	its	-1,1
    005607  aa   000001 000000
    005610  aa   077777 000043          	its	-1,1
    005611  aa   000001 000000
    005612  aa   077777 000043          	its	-1,1
    005613  aa   000001 000000
    005614  aa   077777 000043          	its	-1,1
    005615  aa   000001 000000
    005616  aa   077777 000043          	its	-1,1
    005617  aa   000001 000000
    005620  aa   077777 000043          	its	-1,1
    005621  aa   000001 000000
    005622  aa   077777 000043          	its	-1,1
    005623  aa   000001 000000
    005624  aa   077777 000043          	its	-1,1
    005625  aa   000001 000000
    005626  aa   077777 000043          	its	-1,1
    005627  aa   000001 000000
    005630  aa   077777 000043          	its	-1,1
    005631  aa   000001 000000
    005632  aa   077777 000043          	its	-1,1
    005633  aa   000001 000000
    005634  aa   077777 000043          	its	-1,1
    005635  aa   000001 000000
    005636  aa   077777 000043          	its	-1,1
    005637  aa   000001 000000
    005640  aa   077777 000043          	its	-1,1
    005641  aa   000001 000000
    005642  aa   077777 000043          	its	-1,1
    005643  aa   000001 000000
    005644  aa   077777 000043          	its	-1,1
    005645  aa   000001 000000
    005646  aa   077777 000043          	its	-1,1
    005647  aa   000001 000000
    005650  aa   077777 000043          	its	-1,1
    005651  aa   000001 000000
    005652  aa   077777 000043          	its	-1,1
    005653  aa   000001 000000
    005654  aa   077777 000043          	its	-1,1
    005655  aa   000001 000000
    005656  aa   077777 000043          	its	-1,1
    005657  aa   000001 000000
    005660  aa   077777 000043          	its	-1,1
    005661  aa   000001 000000
    005662  aa   077777 000043          	its	-1,1
    005663  aa   000001 000000
    005664  aa   077777 000043          	its	-1,1
    005665  aa   000001 000000
    005666  aa   077777 000043          	its	-1,1
    005667  aa   000001 000000
    005670  aa   077777 000043          	its	-1,1
    005671  aa   000001 000000
    005672  aa   077777 000043          	its	-1,1
    005673  aa   000001 000000
    005674  aa   077777 000043          	its	-1,1
    005675  aa   000001 000000
    005676  aa   077777 000043          	its	-1,1
    005677  aa   000001 000000
    005700  aa   077777 000043          	its	-1,1
    005701  aa   000001 000000
    005702  aa   077777 000043          	its	-1,1
    005703  aa   000001 000000
    005704  aa   077777 000043          	its	-1,1
    005705  aa   000001 000000
    005706  aa   077777 000043          	its	-1,1
    005707  aa   000001 000000
    005710  aa   077777 000043          	its	-1,1
    005711  aa   000001 000000
    005712  aa   077777 000043          	its	-1,1
    005713  aa   000001 000000
    005714  aa   077777 000043          	its	-1,1
    005715  aa   000001 000000
    005716  aa   077777 000043          	its	-1,1
    005717  aa   000001 000000
    005720  aa   077777 000043          	its	-1,1
    005721  aa   000001 000000
    005722  aa   077777 000043          	its	-1,1
    005723  aa   000001 000000
    005724  aa   077777 000043          	its	-1,1
    005725  aa   000001 000000
    005726  aa   077777 000043          	its	-1,1
    005727  aa   000001 000000
    005730  aa   077777 000043          	its	-1,1
    005731  aa   000001 000000
    005732  aa   077777 000043          	its	-1,1
    005733  aa   000001 000000
    005734  aa   077777 000043          	its	-1,1
    005735  aa   000001 000000
    005736  aa   077777 000043          	its	-1,1
    005737  aa   000001 000000
    005740  aa   077777 000043          	its	-1,1
    005741  aa   000001 000000
    005742  aa   077777 000043          	its	-1,1
    005743  aa   000001 000000
    005744  aa   077777 000043          	its	-1,1
    005745  aa   000001 000000
    005746  aa   077777 000043          	its	-1,1
    005747  aa   000001 000000
    005750  aa   077777 000043          	its	-1,1
    005751  aa   000001 000000
    005752  aa   077777 000043          	its	-1,1
    005753  aa   000001 000000
    005754  aa   077777 000043          	its	-1,1
    005755  aa   000001 000000
    005756  aa   077777 000043          	its	-1,1
    005757  aa   000001 000000
    005760  aa   077777 000043          	its	-1,1
    005761  aa   000001 000000
    005762  aa   077777 000043          	its	-1,1
    005763  aa   000001 000000
    005764  aa   077777 000043          	its	-1,1
    005765  aa   000001 000000
    005766  aa   077777 000043          	its	-1,1
    005767  aa   000001 000000
    005770  aa   077777 000043          	its	-1,1
    005771  aa   000001 000000
    005772  aa   077777 000043          	its	-1,1
    005773  aa   000001 000000
    005774  aa   077777 000043          	its	-1,1
    005775  aa   000001 000000
    005776  aa   077777 000043          	its	-1,1
    005777  aa   000001 000000
    006000  aa   077777 000043          	its	-1,1
    006001  aa   000001 000000
    006002  aa   077777 000043          	its	-1,1
    006003  aa   000001 000000
    006004  aa   077777 000043          	its	-1,1
    006005  aa   000001 000000
    006006  aa   077777 000043          	its	-1,1
    006007  aa   000001 000000
    006010  aa   077777 000043          	its	-1,1
    006011  aa   000001 000000
    006012  aa   077777 000043          	its	-1,1
    006013  aa   000001 000000
    006014  aa   077777 000043          	its	-1,1
    006015  aa   000001 000000
    006016  aa   077777 000043          	its	-1,1
    006017  aa   000001 000000
    006020  aa   077777 000043          	its	-1,1
    006021  aa   000001 000000
    006022  aa   077777 000043          	its	-1,1
    006023  aa   000001 000000
    006024  aa   077777 000043          	its	-1,1
    006025  aa   000001 000000
    006026  aa   077777 000043          	its	-1,1
    006027  aa   000001 000000
    006030  aa   077777 000043          	its	-1,1
    006031  aa   000001 000000
    006032  aa   077777 000043          	its	-1,1
    006033  aa   000001 000000
    006034  aa   077777 000043          	its	-1,1
    006035  aa   000001 000000
    006036  aa   077777 000043          	its	-1,1
    006037  aa   000001 000000
    006040  aa   077777 000043          	its	-1,1
    006041  aa   000001 000000
    006042  aa   077777 000043          	its	-1,1
    006043  aa   000001 000000
    006044  aa   077777 000043          	its	-1,1
    006045  aa   000001 000000
    006046  aa   077777 000043          	its	-1,1
    006047  aa   000001 000000
    006050  aa   077777 000043          	its	-1,1
    006051  aa   000001 000000
    006052  aa   077777 000043          	its	-1,1
    006053  aa   000001 000000
    006054  aa   077777 000043          	its	-1,1
    006055  aa   000001 000000
    006056  aa   077777 000043          	its	-1,1
    006057  aa   000001 000000
    006060  aa   077777 000043          	its	-1,1
    006061  aa   000001 000000
    006062  aa   077777 000043          	its	-1,1
    006063  aa   000001 000000
    006064  aa   077777 000043          	its	-1,1
    006065  aa   000001 000000
    006066  aa   077777 000043          	its	-1,1
    006067  aa   000001 000000
    006070  aa   077777 000043          	its	-1,1
    006071  aa   000001 000000
    006072  aa   077777 000043          	its	-1,1
    006073  aa   000001 000000
    006074  aa   077777 000043          	its	-1,1
    006075  aa   000001 000000
    006076  aa   077777 000043          	its	-1,1
    006077  aa   000001 000000
    006100  aa   077777 000043          	its	-1,1
    006101  aa   000001 000000
    006102  aa   077777 000043          	its	-1,1
    006103  aa   000001 000000
    006104  aa   077777 000043          	its	-1,1
    006105  aa   000001 000000
    006106  aa   077777 000043          	its	-1,1
    006107  aa   000001 000000
    006110  aa   077777 000043          	its	-1,1
    006111  aa   000001 000000
    006112  aa   077777 000043          	its	-1,1
    006113  aa   000001 000000
    006114  aa   077777 000043          	its	-1,1
    006115  aa   000001 000000
    006116  aa   077777 000043          	its	-1,1
    006117  aa   000001 000000
    006120  aa   077777 000043          	its	-1,1
    006121  aa   000001 000000
    006122  aa   077777 000043          	its	-1,1
    006123  aa   000001 000000
    006124  aa   077777 000043          	its	-1,1
    006125  aa   000001 000000
    006126  aa   077777 000043          	its	-1,1
    006127  aa   000001 000000
    006130  aa   077777 000043          	its	-1,1
    006131  aa   000001 000000
    006132  aa   077777 000043          	its	-1,1
    006133  aa   000001 000000
    006134  aa   077777 000043          	its	-1,1
    006135  aa   000001 000000
    006136  aa   077777 000043          	its	-1,1
    006137  aa   000001 000000
    006140  aa   077777 000043          	its	-1,1
    006141  aa   000001 000000
    006142  aa   077777 000043          	its	-1,1
    006143  aa   000001 000000
    006144  aa   077777 000043          	its	-1,1
    006145  aa   000001 000000
    006146  aa   077777 000043          	its	-1,1
    006147  aa   000001 000000
    006150  aa   077777 000043          	its	-1,1
    006151  aa   000001 000000
    006152  aa   077777 000043          	its	-1,1
    006153  aa   000001 000000
    006154  aa   077777 000043          	its	-1,1
    006155  aa   000001 000000
    006156  aa   077777 000043          	its	-1,1
    006157  aa   000001 000000
    006160  aa   077777 000043          	its	-1,1
    006161  aa   000001 000000
    006162  aa   077777 000043          	its	-1,1
    006163  aa   000001 000000
    006164  aa   077777 000043          	its	-1,1
    006165  aa   000001 000000
    006166  aa   077777 000043          	its	-1,1
    006167  aa   000001 000000
    006170  aa   077777 000043          	its	-1,1
    006171  aa   000001 000000
    006172  aa   077777 000043          	its	-1,1
    006173  aa   000001 000000
    006174  aa   077777 000043          	its	-1,1
    006175  aa   000001 000000
    006176  aa   077777 000043          	its	-1,1
    006177  aa   000001 000000
    006200  aa   077777 000043          	its	-1,1
    006201  aa   000001 000000
    006202  aa   077777 000043          	its	-1,1
    006203  aa   000001 000000
    006204  aa   077777 000043          	its	-1,1
    006205  aa   000001 000000
    006206  aa   077777 000043          	its	-1,1
    006207  aa   000001 000000
    006210  aa   077777 000043          	its	-1,1
    006211  aa   000001 000000
    006212  aa   077777 000043          	its	-1,1
    006213  aa   000001 000000
    006214  aa   077777 000043          	its	-1,1
    006215  aa   000001 000000
    006216  aa   077777 000043          	its	-1,1
    006217  aa   000001 000000
    006220  aa   077777 000043          	its	-1,1
    006221  aa   000001 000000
    006222  aa   077777 000043          	its	-1,1
    006223  aa   000001 000000
    006224  aa   077777 000043          	its	-1,1
    006225  aa   000001 000000
    006226  aa   077777 000043          	its	-1,1
    006227  aa   000001 000000
    006230  aa   077777 000043          	its	-1,1
    006231  aa   000001 000000
    006232  aa   077777 000043          	its	-1,1
    006233  aa   000001 000000
    006234  aa   077777 000043          	its	-1,1
    006235  aa   000001 000000
    006236  aa   077777 000043          	its	-1,1
    006237  aa   000001 000000
    006240  aa   077777 000043          	its	-1,1
    006241  aa   000001 000000
    006242  aa   077777 000043          	its	-1,1
    006243  aa   000001 000000
    006244  aa   077777 000043          	its	-1,1
    006245  aa   000001 000000
    006246  aa   077777 000043          	its	-1,1
    006247  aa   000001 000000
    006250  aa   077777 000043          	its	-1,1
    006251  aa   000001 000000
    006252  aa   077777 000043          	its	-1,1
    006253  aa   000001 000000
    006254  aa   077777 000043          	its	-1,1
    006255  aa   000001 000000
    006256  aa   077777 000043          	its	-1,1
    006257  aa   000001 000000
    006260  aa   077777 000043          	its	-1,1
    006261  aa   000001 000000
    006262  aa   077777 000043          	its	-1,1
    006263  aa   000001 000000
    006264  aa   077777 000043          	its	-1,1
    006265  aa   000001 000000
    006266  aa   077777 000043          	its	-1,1
    006267  aa   000001 000000
    006270  aa   077777 000043          	its	-1,1
    006271  aa   000001 000000
    006272  aa   077777 000043          	its	-1,1
    006273  aa   000001 000000
    006274  aa   077777 000043          	its	-1,1
    006275  aa   000001 000000
    006276  aa   077777 000043          	its	-1,1
    006277  aa   000001 000000
    006300  aa   077777 000043          	its	-1,1
    006301  aa   000001 000000
    006302  aa   077777 000043          	its	-1,1
    006303  aa   000001 000000
    006304  aa   077777 000043          	its	-1,1
    006305  aa   000001 000000
    006306  aa   077777 000043          	its	-1,1
    006307  aa   000001 000000
    006310  aa   077777 000043          	its	-1,1
    006311  aa   000001 000000
    006312  aa   077777 000043          	its	-1,1
    006313  aa   000001 000000
    006314  aa   077777 000043          	its	-1,1
    006315  aa   000001 000000
    006316  aa   077777 000043          	its	-1,1
    006317  aa   000001 000000
    006320  aa   077777 000043          	its	-1,1
    006321  aa   000001 000000
    006322  aa   077777 000043          	its	-1,1
    006323  aa   000001 000000
    006324  aa   077777 000043          	its	-1,1
    006325  aa   000001 000000
    006326  aa   077777 000043          	its	-1,1
    006327  aa   000001 000000
    006330  aa   077777 000043          	its	-1,1
    006331  aa   000001 000000
    006332  aa   077777 000043          	its	-1,1
    006333  aa   000001 000000
    006334  aa   077777 000043          	its	-1,1
    006335  aa   000001 000000
    006336  aa   077777 000043          	its	-1,1
    006337  aa   000001 000000
    006340  aa   077777 000043          	its	-1,1
    006341  aa   000001 000000
    006342  aa   077777 000043          	its	-1,1
    006343  aa   000001 000000
    006344  aa   077777 000043          	its	-1,1
    006345  aa   000001 000000
    006346  aa   077777 000043          	its	-1,1
    006347  aa   000001 000000
    006350  aa   077777 000043          	its	-1,1
    006351  aa   000001 000000
    006352  aa   077777 000043          	its	-1,1
    006353  aa   000001 000000
    006354  aa   077777 000043          	its	-1,1
    006355  aa   000001 000000
    006356  aa   077777 000043          	its	-1,1
    006357  aa   000001 000000
    006360  aa   077777 000043          	its	-1,1
    006361  aa   000001 000000
    006362  aa   077777 000043          	its	-1,1
    006363  aa   000001 000000
    006364  aa   077777 000043          	its	-1,1
    006365  aa   000001 000000
    006366  aa   077777 000043          	its	-1,1
    006367  aa   000001 000000
    006370  aa   077777 000043          	its	-1,1
    006371  aa   000001 000000
    006372  aa   077777 000043          	its	-1,1
    006373  aa   000001 000000
    006374  aa   077777 000043          	its	-1,1
    006375  aa   000001 000000
    006376  aa   077777 000043          	its	-1,1
    006377  aa   000001 000000
    006400  aa   077777 000043          	its	-1,1
    006401  aa   000001 000000
    006402  aa   077777 000043          	its	-1,1
    006403  aa   000001 000000
    006404  aa   077777 000043          	its	-1,1
    006405  aa   000001 000000
    006406  aa   077777 000043          	its	-1,1
    006407  aa   000001 000000
    006410  aa   077777 000043          	its	-1,1
    006411  aa   000001 000000
    006412  aa   077777 000043          	its	-1,1
    006413  aa   000001 000000
    006414  aa   077777 000043          	its	-1,1
    006415  aa   000001 000000
    006416  aa   077777 000043          	its	-1,1
    006417  aa   000001 000000
    006420  aa   077777 000043          	its	-1,1
    006421  aa   000001 000000
    006422  aa   077777 000043          	its	-1,1
    006423  aa   000001 000000
    006424  aa   077777 000043          	its	-1,1
    006425  aa   000001 000000
    006426  aa   077777 000043          	its	-1,1
    006427  aa   000001 000000
    006430  aa   077777 000043          	its	-1,1
    006431  aa   000001 000000
    006432  aa   077777 000043          	its	-1,1
    006433  aa   000001 000000
    006434  aa   077777 000043          	its	-1,1
    006435  aa   000001 000000
    006436  aa   077777 000043          	its	-1,1
    006437  aa   000001 000000
    006440  aa   077777 000043          	its	-1,1
    006441  aa   000001 000000
    006442  aa   077777 000043          	its	-1,1
    006443  aa   000001 000000
    006444  aa   077777 000043          	its	-1,1
    006445  aa   000001 000000
    006446  aa   077777 000043          	its	-1,1
    006447  aa   000001 000000
    006450  aa   077777 000043          	its	-1,1
    006451  aa   000001 000000
    006452  aa   077777 000043          	its	-1,1
    006453  aa   000001 000000
    006454  aa   077777 000043          	its	-1,1
    006455  aa   000001 000000
    006456  aa   077777 000043          	its	-1,1
    006457  aa   000001 000000
    006460  aa   077777 000043          	its	-1,1
    006461  aa   000001 000000
    006462  aa   077777 000043          	its	-1,1
    006463  aa   000001 000000
    006464  aa   077777 000043          	its	-1,1
    006465  aa   000001 000000
    006466  aa   077777 000043          	its	-1,1
    006467  aa   000001 000000
    006470  aa   077777 000043          	its	-1,1
    006471  aa   000001 000000
    006472  aa   077777 000043          	its	-1,1
    006473  aa   000001 000000
    006474  aa   077777 000043          	its	-1,1
    006475  aa   000001 000000
    006476  aa   077777 000043          	its	-1,1
    006477  aa   000001 000000
    006500  aa   077777 000043          	its	-1,1
    006501  aa   000001 000000
    006502  aa   077777 000043          	its	-1,1
    006503  aa   000001 000000
    006504  aa   077777 000043          	its	-1,1
    006505  aa   000001 000000
    006506  aa   077777 000043          	its	-1,1
    006507  aa   000001 000000
    006510  aa   077777 000043          	its	-1,1
    006511  aa   000001 000000
    006512  aa   077777 000043          	its	-1,1
    006513  aa   000001 000000
    006514  aa   077777 000043          	its	-1,1
    006515  aa   000001 000000
    006516  aa   077777 000043          	its	-1,1
    006517  aa   000001 000000
    006520  aa   077777 000043          	its	-1,1
    006521  aa   000001 000000
    006522  aa   077777 000043          	its	-1,1
    006523  aa   000001 000000
    006524  aa   077777 000043          	its	-1,1
    006525  aa   000001 000000
    006526  aa   077777 000043          	its	-1,1
    006527  aa   000001 000000
    006530  aa   077777 000043          	its	-1,1
    006531  aa   000001 000000
    006532  aa   077777 000043          	its	-1,1
    006533  aa   000001 000000
    006534  aa   077777 000043          	its	-1,1
    006535  aa   000001 000000
    006536  aa   077777 000043          	its	-1,1
    006537  aa   000001 000000
    006540  aa   077777 000043          	its	-1,1
    006541  aa   000001 000000
    006542  aa   077777 000043          	its	-1,1
    006543  aa   000001 000000
    006544  aa   077777 000043          	its	-1,1
    006545  aa   000001 000000
    006546  aa   077777 000043          	its	-1,1
    006547  aa   000001 000000
    006550  aa   077777 000043          	its	-1,1
    006551  aa   000001 000000
    006552  aa   077777 000043          	its	-1,1
    006553  aa   000001 000000
    006554  aa   077777 000043          	its	-1,1
    006555  aa   000001 000000
    006556  aa   077777 000043          	its	-1,1
    006557  aa   000001 000000
    006560  aa   077777 000043          	its	-1,1
    006561  aa   000001 000000
    006562  aa   077777 000043          	its	-1,1
    006563  aa   000001 000000
    006564  aa   077777 000043          	its	-1,1
    006565  aa   000001 000000
    006566  aa   077777 000043          	its	-1,1
    006567  aa   000001 000000
    006570  aa   077777 000043          	its	-1,1
    006571  aa   000001 000000
    006572  aa   077777 000043          	its	-1,1
    006573  aa   000001 000000
    006574  aa   077777 000043          	its	-1,1
    006575  aa   000001 000000
    006576  aa   077777 000043          	its	-1,1
    006577  aa   000001 000000
    006600  aa   077777 000043          	its	-1,1
    006601  aa   000001 000000
    006602  aa   077777 000043          	its	-1,1
    006603  aa   000001 000000
    006604  aa   077777 000043          	its	-1,1
    006605  aa   000001 000000
    006606  aa   077777 000043          	its	-1,1
    006607  aa   000001 000000
    006610  aa   077777 000043          	its	-1,1
    006611  aa   000001 000000
    006612  aa   077777 000043          	its	-1,1
    006613  aa   000001 000000
    006614  aa   077777 000043          	its	-1,1
    006615  aa   000001 000000
    006616  aa   077777 000043          	its	-1,1
    006617  aa   000001 000000
    006620  aa   077777 000043          	its	-1,1
    006621  aa   000001 000000
    006622  aa   077777 000043          	its	-1,1
    006623  aa   000001 000000
    006624  aa   077777 000043          	its	-1,1
    006625  aa   000001 000000
    006626  aa   077777 000043          	its	-1,1
    006627  aa   000001 000000
    006630  aa   077777 000043          	its	-1,1
    006631  aa   000001 000000
    006632  aa   077777 000043          	its	-1,1
    006633  aa   000001 000000
    006634  aa   077777 000043          	its	-1,1
    006635  aa   000001 000000
    006636  aa   077777 000043          	its	-1,1
    006637  aa   000001 000000
    006640  aa   077777 000043          	its	-1,1
    006641  aa   000001 000000
    006642  aa   077777 000043          	its	-1,1
    006643  aa   000001 000000
    006644  aa   077777 000043          	its	-1,1
    006645  aa   000001 000000
    006646  aa   077777 000043          	its	-1,1
    006647  aa   000001 000000
    006650  aa   077777 000043          	its	-1,1
    006651  aa   000001 000000
    006652  aa   077777 000043          	its	-1,1
    006653  aa   000001 000000
    006654  aa   077777 000043          	its	-1,1
    006655  aa   000001 000000
    006656  aa   077777 000043          	its	-1,1
    006657  aa   000001 000000
    006660  aa   077777 000043          	its	-1,1
    006661  aa   000001 000000
    006662  aa   077777 000043          	its	-1,1
    006663  aa   000001 000000
    006664  aa   077777 000043          	its	-1,1
    006665  aa   000001 000000
    006666  aa   077777 000043          	its	-1,1
    006667  aa   000001 000000
    006670  aa   077777 000043          	its	-1,1
    006671  aa   000001 000000
    006672  aa   077777 000043          	its	-1,1
    006673  aa   000001 000000
    006674  aa   077777 000043          	its	-1,1
    006675  aa   000001 000000
    006676  aa   077777 000043          	its	-1,1
    006677  aa   000001 000000
    006700  aa   077777 000043          	its	-1,1
    006701  aa   000001 000000
    006702  aa   077777 000043          	its	-1,1
    006703  aa   000001 000000
    006704  aa   077777 000043          	its	-1,1
    006705  aa   000001 000000
    006706  aa   077777 000043          	its	-1,1
    006707  aa   000001 000000
    006710  aa   077777 000043          	its	-1,1
    006711  aa   000001 000000
    006712  aa   077777 000043          	its	-1,1
    006713  aa   000001 000000
    006714  aa   077777 000043          	its	-1,1
    006715  aa   000001 000000
    006716  aa   077777 000043          	its	-1,1
    006717  aa   000001 000000
    006720  aa   077777 000043          	its	-1,1
    006721  aa   000001 000000
    006722  aa   077777 000043          	its	-1,1
    006723  aa   000001 000000
    006724  aa   077777 000043          	its	-1,1
    006725  aa   000001 000000
    006726  aa   077777 000043          	its	-1,1
    006727  aa   000001 000000
    006730  aa   077777 000043          	its	-1,1
    006731  aa   000001 000000
    006732  aa   077777 000043          	its	-1,1
    006733  aa   000001 000000
    006734  aa   077777 000043          	its	-1,1
    006735  aa   000001 000000
    006736  aa   077777 000043          	its	-1,1
    006737  aa   000001 000000
    006740  aa   077777 000043          	its	-1,1
    006741  aa   000001 000000
    006742  aa   077777 000043          	its	-1,1
    006743  aa   000001 000000
    006744  aa   077777 000043          	its	-1,1
    006745  aa   000001 000000
    006746  aa   077777 000043          	its	-1,1
    006747  aa   000001 000000
    006750  aa   077777 000043          	its	-1,1
    006751  aa   000001 000000
    006752  aa   077777 000043          	its	-1,1
    006753  aa   000001 000000
    006754  aa   077777 000043          	its	-1,1
    006755  aa   000001 000000
    006756  aa   077777 000043          	its	-1,1
    006757  aa   000001 000000
    006760  aa   077777 000043          	its	-1,1
    006761  aa   000001 000000
    006762  aa   077777 000043          	its	-1,1
    006763  aa   000001 000000
    006764  aa   077777 000043          	its	-1,1
    006765  aa   000001 000000
    006766  aa   077777 000043          	its	-1,1
    006767  aa   000001 000000
    006770  aa   077777 000043          	its	-1,1
    006771  aa   000001 000000
    006772  aa   077777 000043          	its	-1,1
    006773  aa   000001 000000
    006774  aa   077777 000043          	its	-1,1
    006775  aa   000001 000000
    006776  aa   077777 000043          	its	-1,1
    006777  aa   000001 000000
    007000  aa   077777 000043          	its	-1,1
    007001  aa   000001 000000
    007002  aa   077777 000043          	its	-1,1
    007003  aa   000001 000000
    007004  aa   077777 000043          	its	-1,1
    007005  aa   000001 000000
    007006  aa   077777 000043          	its	-1,1
    007007  aa   000001 000000
    007010  aa   077777 000043          	its	-1,1
    007011  aa   000001 000000
    007012  aa   077777 000043          	its	-1,1
    007013  aa   000001 000000
    007014  aa   077777 000043          	its	-1,1
    007015  aa   000001 000000
    007016  aa   077777 000043          	its	-1,1
    007017  aa   000001 000000
    007020  aa   077777 000043          	its	-1,1
    007021  aa   000001 000000
    007022  aa   077777 000043          	its	-1,1
    007023  aa   000001 000000
    007024  aa   077777 000043          	its	-1,1
    007025  aa   000001 000000
    007026  aa   077777 000043          	its	-1,1
    007027  aa   000001 000000
    007030  aa   077777 000043          	its	-1,1
    007031  aa   000001 000000
    007032  aa   077777 000043          	its	-1,1
    007033  aa   000001 000000
    007034  aa   077777 000043          	its	-1,1
    007035  aa   000001 000000
    007036  aa   077777 000043          	its	-1,1
    007037  aa   000001 000000
    007040  aa   077777 000043          	its	-1,1
    007041  aa   000001 000000
    007042  aa   077777 000043          	its	-1,1
    007043  aa   000001 000000
    007044  aa   077777 000043          	its	-1,1
    007045  aa   000001 000000
    007046  aa   077777 000043          	its	-1,1
    007047  aa   000001 000000
    007050  aa   077777 000043          	its	-1,1
    007051  aa   000001 000000
    007052  aa   077777 000043          	its	-1,1
    007053  aa   000001 000000
    007054  aa   077777 000043          	its	-1,1
    007055  aa   000001 000000
    007056  aa   077777 000043          	its	-1,1
    007057  aa   000001 000000
    007060  aa   077777 000043          	its	-1,1
    007061  aa   000001 000000
    007062  aa   077777 000043          	its	-1,1
    007063  aa   000001 000000
    007064  aa   077777 000043          	its	-1,1
    007065  aa   000001 000000
    007066  aa   077777 000043          	its	-1,1
    007067  aa   000001 000000
    007070  aa   077777 000043          	its	-1,1
    007071  aa   000001 000000
    007072  aa   077777 000043          	its	-1,1
    007073  aa   000001 000000
    007074  aa   077777 000043          	its	-1,1
    007075  aa   000001 000000
    007076  aa   077777 000043          	its	-1,1
    007077  aa   000001 000000
    007100  aa   077777 000043          	its	-1,1
    007101  aa   000001 000000
    007102  aa   077777 000043          	its	-1,1
    007103  aa   000001 000000
    007104  aa   077777 000043          	its	-1,1
    007105  aa   000001 000000
    007106  aa   077777 000043          	its	-1,1
    007107  aa   000001 000000
    007110  aa   077777 000043          	its	-1,1
    007111  aa   000001 000000
    007112  aa   077777 000043          	its	-1,1
    007113  aa   000001 000000
    007114  aa   077777 000043          	its	-1,1
    007115  aa   000001 000000
    007116  aa   077777 000043          	its	-1,1
    007117  aa   000001 000000
    007120  aa   077777 000043          	its	-1,1
    007121  aa   000001 000000
    007122  aa   077777 000043          	its	-1,1
    007123  aa   000001 000000
    007124  aa   077777 000043          	its	-1,1
    007125  aa   000001 000000
    007126  aa   077777 000043          	its	-1,1
    007127  aa   000001 000000
    007130  aa   077777 000043          	its	-1,1
    007131  aa   000001 000000
    007132  aa   077777 000043          	its	-1,1
    007133  aa   000001 000000
    007134  aa   077777 000043          	its	-1,1
    007135  aa   000001 000000
    007136  aa   077777 000043          	its	-1,1
    007137  aa   000001 000000
    007140  aa   077777 000043          	its	-1,1
    007141  aa   000001 000000
    007142  aa   077777 000043          	its	-1,1
    007143  aa   000001 000000
    007144  aa   077777 000043          	its	-1,1
    007145  aa   000001 000000
    007146  aa   077777 000043          	its	-1,1
    007147  aa   000001 000000
    007150  aa   077777 000043          	its	-1,1
    007151  aa   000001 000000
    007152  aa   077777 000043          	its	-1,1
    007153  aa   000001 000000
    007154  aa   077777 000043          	its	-1,1
    007155  aa   000001 000000
    007156  aa   077777 000043          	its	-1,1
    007157  aa   000001 000000
    007160  aa   077777 000043          	its	-1,1
    007161  aa   000001 000000
    007162  aa   077777 000043          	its	-1,1
    007163  aa   000001 000000
    007164  aa   077777 000043          	its	-1,1
    007165  aa   000001 000000
    007166  aa   077777 000043          	its	-1,1
    007167  aa   000001 000000
    007170  aa   077777 000043          	its	-1,1
    007171  aa   000001 000000
    007172  aa   077777 000043          	its	-1,1
    007173  aa   000001 000000
    007174  aa   077777 000043          	its	-1,1
    007175  aa   000001 000000
    007176  aa   077777 000043          	its	-1,1
    007177  aa   000001 000000
    007200  aa   077777 000043          	its	-1,1
    007201  aa   000001 000000
    007202  aa   077777 000043          	its	-1,1
    007203  aa   000001 000000
    007204  aa   077777 000043          	its	-1,1
    007205  aa   000001 000000
    007206  aa   077777 000043          	its	-1,1
    007207  aa   000001 000000
    007210  aa   077777 000043          	its	-1,1
    007211  aa   000001 000000
    007212  aa   077777 000043          	its	-1,1
    007213  aa   000001 000000
    007214  aa   077777 000043          	its	-1,1
    007215  aa   000001 000000
    007216  aa   077777 000043          	its	-1,1
    007217  aa   000001 000000
    007220  aa   077777 000043          	its	-1,1
    007221  aa   000001 000000
    007222  aa   077777 000043          	its	-1,1
    007223  aa   000001 000000
    007224  aa   077777 000043          	its	-1,1
    007225  aa   000001 000000
    007226  aa   077777 000043          	its	-1,1
    007227  aa   000001 000000
    007230  aa   077777 000043          	its	-1,1
    007231  aa   000001 000000
    007232  aa   077777 000043          	its	-1,1
    007233  aa   000001 000000
    007234  aa   077777 000043          	its	-1,1
    007235  aa   000001 000000
    007236  aa   077777 000043          	its	-1,1
    007237  aa   000001 000000
    007240  aa   077777 000043          	its	-1,1
    007241  aa   000001 000000
    007242  aa   077777 000043          	its	-1,1
    007243  aa   000001 000000
    007244  aa   077777 000043          	its	-1,1
    007245  aa   000001 000000
    007246  aa   077777 000043          	its	-1,1
    007247  aa   000001 000000
    007250  aa   077777 000043          	its	-1,1
    007251  aa   000001 000000
    007252  aa   077777 000043          	its	-1,1
    007253  aa   000001 000000
    007254  aa   077777 000043          	its	-1,1
    007255  aa   000001 000000
    007256  aa   077777 000043          	its	-1,1
    007257  aa   000001 000000
    007260  aa   077777 000043          	its	-1,1
    007261  aa   000001 000000
    007262  aa   077777 000043          	its	-1,1
    007263  aa   000001 000000
    007264  aa   077777 000043          	its	-1,1
    007265  aa   000001 000000
    007266  aa   077777 000043          	its	-1,1
    007267  aa   000001 000000
    007270  aa   077777 000043          	its	-1,1
    007271  aa   000001 000000
    007272  aa   077777 000043          	its	-1,1
    007273  aa   000001 000000
    007274  aa   077777 000043          	its	-1,1
    007275  aa   000001 000000
    007276  aa   077777 000043          	its	-1,1
    007277  aa   000001 000000
    007300  aa   077777 000043          	its	-1,1
    007301  aa   000001 000000
    007302  aa   077777 000043          	its	-1,1
    007303  aa   000001 000000
    007304  aa   077777 000043          	its	-1,1
    007305  aa   000001 000000
    007306  aa   077777 000043          	its	-1,1
    007307  aa   000001 000000
    007310  aa   077777 000043          	its	-1,1
    007311  aa   000001 000000
    007312  aa   077777 000043          	its	-1,1
    007313  aa   000001 000000
    007314  aa   077777 000043          	its	-1,1
    007315  aa   000001 000000
    007316  aa   077777 000043          	its	-1,1
    007317  aa   000001 000000
    007320  aa   077777 000043          	its	-1,1
    007321  aa   000001 000000
    007322  aa   077777 000043          	its	-1,1
    007323  aa   000001 000000
    007324  aa   077777 000043          	its	-1,1
    007325  aa   000001 000000
    007326  aa   077777 000043          	its	-1,1
    007327  aa   000001 000000
    007330  aa   077777 000043          	its	-1,1
    007331  aa   000001 000000
    007332  aa   077777 000043          	its	-1,1
    007333  aa   000001 000000
    007334  aa   077777 000043          	its	-1,1
    007335  aa   000001 000000
    007336  aa   077777 000043          	its	-1,1
    007337  aa   000001 000000
    007340  aa   077777 000043          	its	-1,1
    007341  aa   000001 000000
    007342  aa   077777 000043          	its	-1,1
    007343  aa   000001 000000
    007344  aa   077777 000043          	its	-1,1
    007345  aa   000001 000000
    007346  aa   077777 000043          	its	-1,1
    007347  aa   000001 000000
    007350  aa   077777 000043          	its	-1,1
    007351  aa   000001 000000
    007352  aa   077777 000043          	its	-1,1
    007353  aa   000001 000000
    007354  aa   077777 000043          	its	-1,1
    007355  aa   000001 000000
    007356  aa   077777 000043          	its	-1,1
    007357  aa   000001 000000
    007360  aa   077777 000043          	its	-1,1
    007361  aa   000001 000000
    007362  aa   077777 000043          	its	-1,1
    007363  aa   000001 000000
    007364  aa   077777 000043          	its	-1,1
    007365  aa   000001 000000
    007366  aa   077777 000043          	its	-1,1
    007367  aa   000001 000000
    007370  aa   077777 000043          	its	-1,1
    007371  aa   000001 000000
    007372  aa   077777 000043          	its	-1,1
    007373  aa   000001 000000
    007374  aa   077777 000043          	its	-1,1
    007375  aa   000001 000000
    007376  aa   077777 000043          	its	-1,1
    007377  aa   000001 000000
    007400  aa   077777 000043          	its	-1,1
    007401  aa   000001 000000
    007402  aa   077777 000043          	its	-1,1
    007403  aa   000001 000000
    007404  aa   077777 000043          	its	-1,1
    007405  aa   000001 000000
    007406  aa   077777 000043          	its	-1,1
    007407  aa   000001 000000
    007410  aa   077777 000043          	its	-1,1
    007411  aa   000001 000000
    007412  aa   077777 000043          	its	-1,1
    007413  aa   000001 000000
    007414  aa   077777 000043          	its	-1,1
    007415  aa   000001 000000
    007416  aa   077777 000043          	its	-1,1
    007417  aa   000001 000000
    007420  aa   077777 000043          	its	-1,1
    007421  aa   000001 000000
    007422  aa   077777 000043          	its	-1,1
    007423  aa   000001 000000
    007424  aa   077777 000043          	its	-1,1
    007425  aa   000001 000000
    007426  aa   077777 000043          	its	-1,1
    007427  aa   000001 000000
    007430  aa   077777 000043          	its	-1,1
    007431  aa   000001 000000
    007432  aa   077777 000043          	its	-1,1
    007433  aa   000001 000000
    007434  aa   077777 000043          	its	-1,1
    007435  aa   000001 000000
    007436  aa   077777 000043          	its	-1,1
    007437  aa   000001 000000
    007440  aa   077777 000043          	its	-1,1
    007441  aa   000001 000000
    007442  aa   077777 000043          	its	-1,1
    007443  aa   000001 000000
    007444  aa   077777 000043          	its	-1,1
    007445  aa   000001 000000
    007446  aa   077777 000043          	its	-1,1
    007447  aa   000001 000000
    007450  aa   077777 000043          	its	-1,1
    007451  aa   000001 000000
    007452  aa   077777 000043          	its	-1,1
    007453  aa   000001 000000
    007454  aa   077777 000043          	its	-1,1
    007455  aa   000001 000000
    007456  aa   077777 000043          	its	-1,1
    007457  aa   000001 000000
    007460  aa   077777 000043          	its	-1,1
    007461  aa   000001 000000
    007462  aa   077777 000043          	its	-1,1
    007463  aa   000001 000000
    007464  aa   077777 000043          	its	-1,1
    007465  aa   000001 000000
    007466  aa   077777 000043          	its	-1,1
    007467  aa   000001 000000
    007470  aa   077777 000043          	its	-1,1
    007471  aa   000001 000000
    007472  aa   077777 000043          	its	-1,1
    007473  aa   000001 000000
    007474  aa   077777 000043          	its	-1,1
    007475  aa   000001 000000
    007476  aa   077777 000043          	its	-1,1
    007477  aa   000001 000000
    007500  aa   077777 000043          	its	-1,1
    007501  aa   000001 000000
    007502  aa   077777 000043          	its	-1,1
    007503  aa   000001 000000
    007504  aa   077777 000043          	its	-1,1
    007505  aa   000001 000000
    007506  aa   077777 000043          	its	-1,1
    007507  aa   000001 000000
    007510  aa   077777 000043          	its	-1,1
    007511  aa   000001 000000
    007512  aa   077777 000043          	its	-1,1
    007513  aa   000001 000000
    007514  aa   077777 000043          	its	-1,1
    007515  aa   000001 000000
    007516  aa   077777 000043          	its	-1,1
    007517  aa   000001 000000
    007520  aa   077777 000043          	its	-1,1
    007521  aa   000001 000000
    007522  aa   077777 000043          	its	-1,1
    007523  aa   000001 000000
    007524  aa   077777 000043          	its	-1,1
    007525  aa   000001 000000
    007526  aa   077777 000043          	its	-1,1
    007527  aa   000001 000000
    007530  aa   077777 000043          	its	-1,1
    007531  aa   000001 000000
    007532  aa   077777 000043          	its	-1,1
    007533  aa   000001 000000
    007534  aa   077777 000043          	its	-1,1
    007535  aa   000001 000000
    007536  aa   077777 000043          	its	-1,1
    007537  aa   000001 000000
    007540  aa   077777 000043          	its	-1,1
    007541  aa   000001 000000
    007542  aa   077777 000043          	its	-1,1
    007543  aa   000001 000000
    007544  aa   077777 000043          	its	-1,1
    007545  aa   000001 000000
    007546  aa   077777 000043          	its	-1,1
    007547  aa   000001 000000
    007550  aa   077777 000043          	its	-1,1
    007551  aa   000001 000000
    007552  aa   077777 000043          	its	-1,1
    007553  aa   000001 000000
    007554  aa   077777 000043          	its	-1,1
    007555  aa   000001 000000
    007556  aa   077777 000043          	its	-1,1
    007557  aa   000001 000000
    007560  aa   077777 000043          	its	-1,1
    007561  aa   000001 000000
    007562  aa   077777 000043          	its	-1,1
    007563  aa   000001 000000
    007564  aa   077777 000043          	its	-1,1
    007565  aa   000001 000000
    007566  aa   077777 000043          	its	-1,1
    007567  aa   000001 000000
    007570  aa   077777 000043          	its	-1,1
    007571  aa   000001 000000
    007572  aa   077777 000043          	its	-1,1
    007573  aa   000001 000000
    007574  aa   077777 000043          	its	-1,1
    007575  aa   000001 000000
    007576  aa   077777 000043          	its	-1,1
    007577  aa   000001 000000
    007600  aa   077777 000043          	its	-1,1
    007601  aa   000001 000000
    007602  aa   077777 000043          	its	-1,1
    007603  aa   000001 000000
    007604  aa   077777 000043          	its	-1,1
    007605  aa   000001 000000
    007606  aa   077777 000043          	its	-1,1
    007607  aa   000001 000000
    007610  aa   077777 000043          	its	-1,1
    007611  aa   000001 000000
    007612  aa   077777 000043          	its	-1,1
    007613  aa   000001 000000
    007614  aa   077777 000043          	its	-1,1
    007615  aa   000001 000000
    007616  aa   077777 000043          	its	-1,1
    007617  aa   000001 000000
    007620  aa   077777 000043          	its	-1,1
    007621  aa   000001 000000
    007622  aa   077777 000043          	its	-1,1
    007623  aa   000001 000000
    007624  aa   077777 000043          	its	-1,1
    007625  aa   000001 000000
    007626  aa   077777 000043          	its	-1,1
    007627  aa   000001 000000
    007630  aa   077777 000043          	its	-1,1
    007631  aa   000001 000000
    007632  aa   077777 000043          	its	-1,1
    007633  aa   000001 000000
    007634  aa   077777 000043          	its	-1,1
    007635  aa   000001 000000
    007636  aa   077777 000043          	its	-1,1
    007637  aa   000001 000000
    007640  aa   077777 000043          	its	-1,1
    007641  aa   000001 000000
    007642  aa   077777 000043          	its	-1,1
    007643  aa   000001 000000
    007644  aa   077777 000043          	its	-1,1
    007645  aa   000001 000000
    007646  aa   077777 000043          	its	-1,1
    007647  aa   000001 000000
    007650  aa   077777 000043          	its	-1,1
    007651  aa   000001 000000
    007652  aa   077777 000043          	its	-1,1
    007653  aa   000001 000000
    007654  aa   077777 000043          	its	-1,1
    007655  aa   000001 000000
    007656  aa   077777 000043          	its	-1,1
    007657  aa   000001 000000
    007660  aa   077777 000043          	its	-1,1
    007661  aa   000001 000000
    007662  aa   077777 000043          	its	-1,1
    007663  aa   000001 000000
    007664  aa   077777 000043          	its	-1,1
    007665  aa   000001 000000
    007666  aa   077777 000043          	its	-1,1
    007667  aa   000001 000000
    007670  aa   077777 000043          	its	-1,1
    007671  aa   000001 000000
    007672  aa   077777 000043          	its	-1,1
    007673  aa   000001 000000
    007674  aa   077777 000043          	its	-1,1
    007675  aa   000001 000000
    007676  aa   077777 000043          	its	-1,1
    007677  aa   000001 000000
    007700  aa   077777 000043          	its	-1,1
    007701  aa   000001 000000
    007702  aa   077777 000043          	its	-1,1
    007703  aa   000001 000000
    007704  aa   077777 000043          	its	-1,1
    007705  aa   000001 000000
    007706  aa   077777 000043          	its	-1,1
    007707  aa   000001 000000
                                    47  "	cobol_SM$... fixed bin(35).
                        007710      48  	segdef	SIi
    007710                          49  	bss	SIi,1
                        007711      50  	segdef	SSi
    007711                          51  	bss	SSi,1
                        007712      52  	segdef	MIi
    007712                          53  	bss	MIi,1
                        007713      54  	segdef	TSIi
    007713                          55  	bss	TSIi,1
                        007714      56  	segdef	LTSIi
    007714                          57  	bss	LTSIi,1
                        007715      58  	segdef	max1
    007715                          59  	bss	max1,1
                        007716      60  	segdef	max2
    007716                          61  	bss	max2,1
                        007717      62  	segdef	max3
    007717                          63  	bss	max3,1
                        007720      64  	segdef	max4
    007720                          65  	bss	max4,1
                        007721      66  	segdef	ec
    007721                          67  	bss	ec,1
                        007722      68  	segdef	disaster1
    007722                          69  	bss	disaster1,1
                        007723      70  	segdef	disaster2
    007723                          71  	bss	disaster2,1
                        007724      72  	segdef	sn1
    007724                          73  	bss	sn1,1
                        007725      74  	segdef	sn2
    007725                          75  	bss	sn2,1
                        007726      76  	segdef	fb1
    007726                          77  	bss	fb1,1
                        007727      78  	segdef	fb2
    007727                          79  	bss	fb2,1
                        007730      80  	segdef	bl1
    007730                          81  	bss	bl1,1
                        007731      82  	segdef	bl2
    007731                          83  	bss	bl2,1
                        007732      84  	segdef	result
    007732                          85  	bss	result,1
                        007733      86  	segdef	RELbl
    007733                          87  	bss	RELbl,1
                        007734      88  	segdef	RELfb
    007734                          89  	bss	RELfb,1
                        007735      90  	segdef	RETfb
    007735                          91  	bss	RETfb,1
                        007736      92  	segdef	RETbl
    007736                          93  	bss	RETbl,1
                        007737      94  	segdef	s
    007737                          95  	bss	s,36
                                    96  "	cobol_SM$... char var.
                        010003      97  	segdef	sort_dir
    010003                          98  	bss	sort_dir,43
                                    99
                                   100  	end

NO LITERALS

NAME DEFINITIONS FOR ENTRY POINTS AND SEGDEFS

    000000  5a   000003 000000
    000001  5a   000303 600000
    000002  aa   000000 000000
    000003  55   000011 000002
    000004  5a   000002 400003
    000005  55   000006 000011
    000006  aa  011 143 157 142
    000007  aa  157 154 137 123
    000010  aa  115 137 000 000
    000011  55   000017 000003
    000012  2a   010003 400001
    000013  55   000014 000003
    000014  aa  010 163 157 162         sort_dir
    000015  aa  164 137 144 151
    000016  aa  162 000 000 000
    000017  55   000023 000011
    000020  2a   007737 400001
    000021  55   000022 000003
    000022  aa  001 163 000 000         s
    000023  55   000030 000017
    000024  2a   007736 400001
    000025  55   000026 000003
    000026  aa  005 122 105 124         RETbl
    000027  aa  142 154 000 000
    000030  55   000035 000023
    000031  2a   007735 400001
    000032  55   000033 000003
    000033  aa  005 122 105 124         RETfb
    000034  aa  146 142 000 000
    000035  55   000042 000030
    000036  2a   007734 400001
    000037  55   000040 000003
    000040  aa  005 122 105 114         RELfb
    000041  aa  146 142 000 000
    000042  55   000047 000035
    000043  2a   007733 400001
    000044  55   000045 000003
    000045  aa  005 122 105 114         RELbl
    000046  aa  142 154 000 000
    000047  55   000054 000042
    000050  2a   007732 400001
    000051  55   000052 000003
    000052  aa  006 162 145 163         result
    000053  aa  165 154 164 000
    000054  55   000060 000047
    000055  2a   007731 400001
    000056  55   000057 000003
    000057  aa  003 142 154 062         bl2
    000060  55   000064 000054
    000061  2a   007730 400001
    000062  55   000063 000003
    000063  aa  003 142 154 061         bl1
    000064  55   000070 000060
    000065  2a   007727 400001
    000066  55   000067 000003
    000067  aa  003 146 142 062         fb2
    000070  55   000074 000064
    000071  2a   007726 400001
    000072  55   000073 000003
    000073  aa  003 146 142 061         fb1
    000074  55   000100 000070
    000075  2a   007725 400001
    000076  55   000077 000003
    000077  aa  003 163 156 062         sn2
    000100  55   000104 000074
    000101  2a   007724 400001
    000102  55   000103 000003
    000103  aa  003 163 156 061         sn1
    000104  55   000112 000100
    000105  2a   007723 400001
    000106  55   000107 000003
    000107  aa  011 144 151 163         disaster2
    000110  aa  141 163 164 145
    000111  aa  162 062 000 000
    000112  55   000120 000104
    000113  2a   007722 400001
    000114  55   000115 000003
    000115  aa  011 144 151 163         disaster1
    000116  aa  141 163 164 145
    000117  aa  162 061 000 000
    000120  55   000124 000112
    000121  2a   007721 400001
    000122  55   000123 000003
    000123  aa  002 145 143 000         ec
    000124  55   000131 000120
    000125  2a   007720 400001
    000126  55   000127 000003
    000127  aa  004 155 141 170         max4
    000130  aa  064 000 000 000
    000131  55   000136 000124
    000132  2a   007717 400001
    000133  55   000134 000003
    000134  aa  004 155 141 170         max3
    000135  aa  063 000 000 000
    000136  55   000143 000131
    000137  2a   007716 400001
    000140  55   000141 000003
    000141  aa  004 155 141 170         max2
    000142  aa  062 000 000 000
    000143  55   000150 000136
    000144  2a   007715 400001
    000145  55   000146 000003
    000146  aa  004 155 141 170         max1
    000147  aa  061 000 000 000
    000150  55   000155 000143
    000151  2a   007714 400001
    000152  55   000153 000003
    000153  aa  005 114 124 123         LTSIi
    000154  aa  111 151 000 000
    000155  55   000162 000150
    000156  2a   007713 400001
    000157  55   000160 000003
    000160  aa  004 124 123 111         TSIi
    000161  aa  151 000 000 000
    000162  55   000166 000155
    000163  2a   007712 400001
    000164  55   000165 000003
    000165  aa  003 115 111 151         MIi
    000166  55   000172 000162
    000167  2a   007711 400001
    000170  55   000171 000003
    000171  aa  003 123 123 151         SSi
    000172  55   000176 000166
    000173  2a   007710 400001
    000174  55   000175 000003
    000175  aa  003 123 111 151         SIi
    000176  55   000202 000172
    000177  2a   003770 400001
    000200  55   000201 000003
    000201  aa  003 115 123 160         MSp
    000202  55   000206 000176
    000203  2a   000050 400001
    000204  55   000205 000003
    000205  aa  003 115 122 160         MRp
    000206  55   000213 000202
    000207  2a   000046 400001
    000210  55   000211 000003
    000211  aa  004 122 105 124         RETp
    000212  aa  160 000 000 000
    000213  55   000220 000206
    000214  2a   000044 400001
    000215  55   000216 000003
    000216  aa  004 122 105 114         RELp
    000217  aa  160 000 000 000
    000220  55   000226 000213
    000221  2a   000042 400001
    000222  55   000223 000003
    000223  aa  011 145 162 162         error_ptr
    000224  aa  157 162 137 160
    000225  aa  164 162 000 000
    000226  55   000234 000220
    000227  2a   000040 400001
    000230  55   000231 000003
    000231  aa  010 163 164 141         stat_ptr
    000232  aa  164 137 160 164
    000233  aa  162 000 000 000
    000234  55   000240 000226
    000235  2a   000036 400001
    000236  55   000237 000003
    000237  aa  003 162 160 062         rp2
    000240  55   000244 000234
    000241  2a   000034 400001
    000242  55   000243 000003
    000243  aa  003 162 160 061         rp1
    000244  55   000250 000240
    000245  2a   000032 400001
    000246  55   000247 000003
    000247  aa  003 115 111 160         MIp
    000250  55   000254 000244
    000251  2a   000030 400001
    000252  55   000253 000003
    000253  aa  003 123 123 160         SSp
    000254  55   000260 000250
    000255  2a   000026 400001
    000256  55   000257 000003
    000257  aa  003 123 122 160         SRp
    000260  55   000264 000254
    000261  2a   000024 400001
    000262  55   000263 000003
    000263  aa  003 123 111 160         SIp
    000264  55   000270 000260
    000265  2a   000016 400001
    000266  55   000267 000003
    000267  aa  003 155 143 160         mcp
    000270  55   000274 000264
    000271  2a   000010 400001
    000272  55   000273 000003
    000273  aa  003 143 155 160         cmp
    000274  55   000002 000270
    000275  6a   000000 400002
    000276  55   000277 000003
    000277  aa  014 163 171 155         symbol_table
    000300  aa  142 157 154 137
    000301  aa  164 141 142 154
    000302  aa  145 000 000 000

DEFINITIONS HASH TABLE

    000303  aa   000000 000065
    000304  aa   000000 000000
    000305  aa   000000 000000
    000306  aa   000000 000000
    000307  aa   000000 000000
    000310  5a   000070 000000
    000311  5a   000035 000000
    000312  5a   000042 000000
    000313  5a   000064 000000
    000314  5a   000166 000000
    000315  5a   000011 000000
    000316  5a   000213 000000
    000317  5a   000226 000000
    000320  5a   000060 000000
    000321  5a   000023 000000
    000322  5a   000030 000000
    000323  5a   000054 000000
    000324  5a   000206 000000
    000325  5a   000250 000000
    000326  5a   000270 000000
    000327  aa   000000 000000
    000330  aa   000000 000000
    000331  aa   000000 000000
    000332  aa   000000 000000
    000333  aa   000000 000000
    000334  5a   000150 000000
    000335  5a   000100 000000
    000336  5a   000074 000000
    000337  5a   000104 000000
    000340  5a   000112 000000
    000341  5a   000047 000000
    000342  5a   000124 000000
    000343  5a   000131 000000
    000344  5a   000136 000000
    000345  5a   000143 000000
    000346  5a   000155 000000
    000347  5a   000172 000000
    000350  5a   000176 000000
    000351  5a   000220 000000
    000352  5a   000234 000000
    000353  5a   000120 000000
    000354  5a   000240 000000
    000355  5a   000254 000000
    000356  5a   000162 000000
    000357  5a   000260 000000
    000360  5a   000264 000000
    000361  5a   000274 000000
    000362  5a   000202 000000
    000363  aa   000000 000000
    000364  aa   000000 000000
    000365  5a   000244 000000
    000366  aa   000000 000000
    000367  aa   000000 000000
    000370  5a   000017 000000

NO EXTERNAL NAMES

NO TRAP POINTER WORDS

TYPE PAIR BLOCKS

    000371  aa   000001 000000
    000372  aa   000000 000000

INTERNAL EXPRESSION WORDS

    000373  aa   000000 000000
LINKAGE INFORMATION

    000000  aa   000000 000000
    000001  0a   000000 000000
    000002  aa   000000 000000
    000003  aa   000000 000000
    000004  aa   000000 000000
    000005  aa   000000 000000
    000006  22   010056 010056
    000007  a2   000000 010046
SYMBOL INFORMATION

SYMBOL TABLE HEADER

    000000  aa   000000 000001
    000001  aa   163171 155142
    000002  aa   164162 145145
    000003  aa   000000 000010
    000004  aa   000000 117244
    000005  aa   361023 525721
    000006  aa   000000 131036
    000007  aa   710416 734355
    000010  aa   141154 155040
    000011  aa   040040 040040
    000012  aa   000024 000040
    000013  aa   000034 000040
    000014  aa   000044 000100
    000015  aa   000002 000002
    000016  aa   000064 000000
    000017  aa   000000 000537
    000020  aa   000000 000102
    000021  aa   000455 000104
    000022  aa   000531 000102
    000023  aa   000064 000000
    000024  aa   101114 115040
    000025  aa   126145 162163
    000026  aa   151157 156040
    000027  aa   070056 061064
    000030  aa   040115 141162
    000031  aa   143150 040061
    000032  aa   071070 071040
    000033  aa   040040 040040
    000034  aa   123143 150162
    000035  aa   157164 150056
    000036  aa   123171 163115
    000037  aa   141151 156164
    000040  aa   056155 040040
    000041  aa   040040 040040
    000042  aa   040040 040040
    000043  aa   040040 040040
    000044  aa   154151 163164
    000045  aa   040163 171155
    000046  aa   142157 154163
    000047  aa   040040 040040
    000050  aa   040040 040040
    000051  aa   040040 040040
    000052  aa   040040 040040
    000053  aa   040040 040040
    000054  aa   040040 040040
    000055  aa   040040 040040
    000056  aa   040040 040040
    000057  aa   040040 040040
    000060  aa   040040 040040
    000061  aa   040040 040040
    000062  aa   040040 040040
    000063  aa   040040 040040
    000064  aa   000000 000001
    000065  aa   000000 000001
    000066  aa   000072 000035
    000067  aa   310157 126567
    000070  aa   000000 131036
    000071  aa   710417 000000
    000072  aa   076165 144144          >udd>sm>ds>w>ml>cobol_SM_.alm
    000073  aa   076163 155076
    000074  aa   144163 076167
    000075  aa   076155 154076
    000076  aa   143157 142157
    000077  aa   154137 123115
    000100  aa   137056 141154
    000101  aa   155040 040040
               MULTICS ASSEMBLY CROSS REFERENCE LISTING

   Value        Symbol                   Source file   Line number

        7730    bl1                      cobol_SM_:     80,   81.
        7731    bl2                      cobol_SM_:     82,   83.
          10    cmp                      cobol_SM_:     32.
        7722    disaster1                cobol_SM_:     68,   69.
        7723    disaster2                cobol_SM_:     70,   71.
        7721    ec                       cobol_SM_:     66,   67.
          42    error_ptr                cobol_SM_:     42.
        7726    fb1                      cobol_SM_:     76,   77.
        7727    fb2                      cobol_SM_:     78,   79.
          10    linkc                    cobol_SM_:     18,   19,   21.
        7714    LTSIi                    cobol_SM_:     56,   57.
        7715    max1                     cobol_SM_:     58,   59.
        7716    max2                     cobol_SM_:     60,   61.
        7717    max3                     cobol_SM_:     62,   63.
        7720    max4                     cobol_SM_:     64,   65.
          16    mcp                      cobol_SM_:     33.
        7712    MIi                      cobol_SM_:     52,   53.
          32    MIp                      cobol_SM_:     38.
          50    MRp                      cobol_SM_:     45.
        3770    MSp                      cobol_SM_:     46.
        7733    RELbl                    cobol_SM_:     86,   87.
        7734    RELfb                    cobol_SM_:     88,   89.
          44    RELp                     cobol_SM_:     43.
        7732    result                   cobol_SM_:     84,   85.
        7736    RETbl                    cobol_SM_:     92,   93.
        7735    RETfb                    cobol_SM_:     90,   91.
          46    RETp                     cobol_SM_:     44.
          34    rp1                      cobol_SM_:     39.
          36    rp2                      cobol_SM_:     40.
        7737    s                        cobol_SM_:     94,   95.
        7710    SIi                      cobol_SM_:     48,   49.
          24    SIp                      cobol_SM_:     35.
        7724    sn1                      cobol_SM_:     72,   73.
        7725    sn2                      cobol_SM_:     74,   75.
       10003    sort_dir                 cobol_SM_:     97,   98.
          26    SRp                      cobol_SM_:     36.
        7711    SSi                      cobol_SM_:     50,   51.
          30    SSp                      cobol_SM_:     37.
          40    stat_ptr                 cobol_SM_:     41.
           0    textc                    cobol_SM_:     17,   20.
        7713    TSIi                     cobol_SM_:     54,   55.


NO FATAL ERRORS


                                          -----------------------------------------------------------


Historical Background

This edition of the Multics software materials and documentation is provided and donated
to Massachusetts Institute of Technology by Group BULL including BULL HN Information Systems Inc.
as a contribution to computer science knowledge.
This donation is made also to give evidence of the common contributions of Massachusetts Institute of Technology,
Bell Laboratories, General Electric, Honeywell Information Systems Inc., Honeywell BULL Inc., Groupe BULL
and BULL HN Information Systems Inc. to the development of this operating system.
Multics development was initiated by Massachusetts Institute of Technology Project MAC (1963-1970),
renamed the MIT Laboratory for Computer Science and Artificial Intelligence in the mid 1970s, under the leadership
of Professor Fernando Jose Corbato. Users consider that Multics provided the best software architecture
for managing computer hardware properly and for executing programs. Many subsequent operating systems
incorporated Multics principles.
Multics was distributed in 1975 to 2000 by Group Bull in Europe , and in the U.S. by Bull HN Information Systems Inc.,
as successor in interest by change in name only to Honeywell Bull Inc. and Honeywell Information Systems Inc. .

                                          -----------------------------------------------------------

Permission to use, copy, modify, and distribute these programs and their documentation for any purpose and without
fee is hereby granted,provided that the below copyright notice and historical background appear in all copies
and that both the copyright notice and historical background and this permission notice appear in supporting
documentation, and that the names of MIT, HIS, BULL or BULL HN not be used in advertising or publicity pertaining
to distribution of the programs without specific prior written permission.
    Copyright 1972 by Massachusetts Institute of Technology and Honeywell Information Systems Inc.
    Copyright 2006 by BULL HN Information Systems Inc.
    Copyright 2006 by Bull SAS
    All Rights Reserved
