ASSEMBLY LISTING OF SEGMENT >spec>on>11/11/82>cobol_class_table_.alm
ASSEMBLED ON:	11/11/82  1040.2 mst Thu
OPTIONS USED:	list
ASSEMBLED BY:	ALM Version  6.4  April 1981
ASSEMBLER CREATED:	11/03/82  1423.6 mst Wed

                                     1  " ***********************************************************
                                     2  " *                                                         *
                                     3  " * Copyright, (C) Honeywell Information Systems Inc., 1982 *
                                     4  " *                                                         *
                                     5  " * Copyright (c) 1972 by Massachusetts Institute of        *
                                     6  " * Technology and Honeywell Information Systems, Inc.      *
                                     7  " *                                                         *
                                     8  " ***********************************************************
                                     9
    000000                          10  	name	cobol_class_table_
                        000000      11  	entry	cobol_class_table_
    000000  aa   000060 6270 00     12  cobol_class_table_:	save
    000001  aa  7 00040 2721 20
    000002  0a   000000 3520 00     13  	epp2	cobol_class_table_
    000003  aa  0 00002 2521 20     14  	spri2	ap|2,*
    000004  aa  7 00042 7101 20     15  	return
    000005  aa   000000 000000      16            vfd 18/c_0,18/c_0
    000006  aa   000000 000000      17            vfd 18/c_0,18/c_0
    000007  aa   000000 000000      18            vfd 18/c_0,18/c_0
    000010  aa   000000 000000      19            vfd 18/c_0,18/c_0
    000011  aa   000000 000000      20            vfd 18/c_0,18/c_0
    000012  aa   000000 000000      21            vfd 18/c_0,18/c_0
    000013  aa   000000 000000      22            vfd 18/c_0,18/c_0
    000014  aa   000000 000000      23            vfd 18/c_0,18/c_0
    000015  aa   000000 000000      24            vfd 18/c_0,18/c_0
    000016  aa   000000 000000      25            vfd 18/c_0,18/c_0
    000017  aa   000000 000000      26            vfd 18/c_0,18/c_0
    000020  aa   000000 000000      27            vfd 18/c_0,18/c_0
    000021  aa   000000 000000      28            vfd 18/c_0,18/c_0
    000022  aa   000000 000000      29            vfd 18/c_0,18/c_0
    000023  aa   000000 000000      30            vfd 18/c_0,18/c_0
    000024  aa   000000 000000      31            vfd 18/c_0,18/c_0
    000025  aa   000000 000000      32            vfd 18/c_0,18/c_0
    000026  aa   000000 000000      33            vfd 18/c_0,18/c_0
    000027  aa   000000 000000      34            vfd 18/c_0,18/c_0
    000030  aa   000000 000000      35            vfd 18/c_0,18/c_0
    000031  aa   000000 001047      36            vfd 18/c_0,18/c_18-cobol_class_table_
    000032  aa   000000 000000      37            vfd 18/c_0,18/c_0
    000033  aa   000000 000000      38            vfd 18/c_0,18/c_0
    000034  aa   000000 000000      39            vfd 18/c_0,18/c_0
    000035  aa   000000 000000      40            vfd 18/c_0,18/c_0
    000036  aa   000000 000000      41            vfd 18/c_0,18/c_0
    000037  aa   000000 000000      42            vfd 18/c_0,18/c_0
    000040  aa   000000 000000      43            vfd 18/c_0,18/c_0
    000041  aa   001175 000000      44            vfd 18/c_61-cobol_class_table_,18/c_0
    000042  aa   000000 000000      45            vfd 18/c_0,18/c_0
    000043  aa   000000 000000      46            vfd 18/c_0,18/c_0
    000044  aa   000000 000000      47            vfd 18/c_0,18/c_0
    000045  aa   000000 000000      48            vfd 18/c_0,18/c_0
    000046  aa   000000 000000      49            vfd 18/c_0,18/c_0
    000047  aa   000000 000000      50            vfd 18/c_0,18/c_0
    000050  aa   000000 000000      51            vfd 18/c_0,18/c_0
    000051  aa   000000 001007      52            vfd 18/c_0,18/c_2-cobol_class_table_
    000052  aa   000000 000000      53            vfd 18/c_0,18/c_0
    000053  aa   000000 000000      54            vfd 18/c_0,18/c_0
    000054  aa   000000 000000      55            vfd 18/c_0,18/c_0
    000055  aa   000000 000000      56            vfd 18/c_0,18/c_0
    000056  aa   000000 000000      57            vfd 18/c_0,18/c_0
    000057  aa   000000 000000      58            vfd 18/c_0,18/c_0
    000060  aa   000000 000000      59            vfd 18/c_0,18/c_0
    000061  aa   001043 000000      60            vfd 18/c_16-cobol_class_table_,18/c_0
    000062  aa   000000 000000      61            vfd 18/c_0,18/c_0
    000063  aa   000000 000000      62            vfd 18/c_0,18/c_0
    000064  aa   000000 000000      63            vfd 18/c_0,18/c_0
    000065  aa   000000 000000      64            vfd 18/c_0,18/c_0
    000066  aa   000000 000000      65            vfd 18/c_0,18/c_0
    000067  aa   000000 000000      66            vfd 18/c_0,18/c_0
    000070  aa   000000 000000      67            vfd 18/c_0,18/c_0
    000071  aa   000000 000000      68            vfd 18/c_0,18/c_0
    000072  aa   000000 001055      69            vfd 18/c_0,18/c_21-cobol_class_table_
    000073  aa   001061 000000      70            vfd 18/c_23-cobol_class_table_,18/c_0
    000074  aa   000000 000000      71            vfd 18/c_0,18/c_0
    000075  aa   000000 000000      72            vfd 18/c_0,18/c_0
    000076  aa   000000 000000      73            vfd 18/c_0,18/c_0
    000077  aa   000000 001077      74            vfd 18/c_0,18/c_30-cobol_class_table_
    000100  aa   001075 000000      75            vfd 18/c_29-cobol_class_table_,18/c_0
    000101  aa   000000 001105      76            vfd 18/c_0,18/c_33-cobol_class_table_
    000102  aa   000000 001107      77            vfd 18/c_0,18/c_34-cobol_class_table_
    000103  aa   000000 000000      78            vfd 18/c_0,18/c_0
    000104  aa   001113 001115      79            vfd 18/c_36-cobol_class_table_,18/c_37-cobol_class_table_
    000105  aa   000000 000000      80            vfd 18/c_0,18/c_0
    000106  aa   001117 000000      81            vfd 18/c_38-cobol_class_table_,18/c_0
    000107  aa   000000 000000      82            vfd 18/c_0,18/c_0
    000110  aa   000000 000000      83            vfd 18/c_0,18/c_0
    000111  aa   000000 000000      84            vfd 18/c_0,18/c_0
    000112  aa   001123 000000      85            vfd 18/c_40-cobol_class_table_,18/c_0
    000113  aa   001133 001137      86            vfd 18/c_44-cobol_class_table_,18/c_46-cobol_class_table_
    000114  aa   000000 000000      87            vfd 18/c_0,18/c_0
    000115  aa   000000 000000      88            vfd 18/c_0,18/c_0
    000116  aa   000000 000000      89            vfd 18/c_0,18/c_0
    000117  aa   000000 000000      90            vfd 18/c_0,18/c_0
    000120  aa   000000 000000      91            vfd 18/c_0,18/c_0
    000121  aa   001147 000000      92            vfd 18/c_50-cobol_class_table_,18/c_0
    000122  aa   000000 000000      93            vfd 18/c_0,18/c_0
    000123  aa   000000 000000      94            vfd 18/c_0,18/c_0
    000124  aa   000000 000000      95            vfd 18/c_0,18/c_0
    000125  aa   000000 000000      96            vfd 18/c_0,18/c_0
    000126  aa   000000 000000      97            vfd 18/c_0,18/c_0
    000127  aa   000000 000000      98            vfd 18/c_0,18/c_0
    000130  aa   000000 000000      99            vfd 18/c_0,18/c_0
    000131  aa   000000 000000     100            vfd 18/c_0,18/c_0
    000132  aa   000000 000000     101            vfd 18/c_0,18/c_0
    000133  aa   000000 000000     102            vfd 18/c_0,18/c_0
    000134  aa   000000 000000     103            vfd 18/c_0,18/c_0
    000135  aa   000000 000000     104            vfd 18/c_0,18/c_0
    000136  aa   000000 001211     105            vfd 18/c_0,18/c_67-cobol_class_table_
    000137  aa   000000 000000     106            vfd 18/c_0,18/c_0
    000140  aa   000000 000000     107            vfd 18/c_0,18/c_0
    000141  aa   000000 000000     108            vfd 18/c_0,18/c_0
    000142  aa   000000 000000     109            vfd 18/c_0,18/c_0
    000143  aa   001005 000000     110            vfd 18/c_1-cobol_class_table_,18/c_0
    000144  aa   000000 000000     111            vfd 18/c_0,18/c_0
    000145  aa   000000 000000     112            vfd 18/c_0,18/c_0
    000146  aa   000000 001035     113            vfd 18/c_0,18/c_13-cobol_class_table_
    000147  aa   000000 000000     114            vfd 18/c_0,18/c_0
    000150  aa   000000 000000     115            vfd 18/c_0,18/c_0
    000151  aa   000000 000000     116            vfd 18/c_0,18/c_0
    000152  aa   000000 001011     117            vfd 18/c_0,18/c_3-cobol_class_table_
    000153  aa   000000 001013     118            vfd 18/c_0,18/c_4-cobol_class_table_
    000154  aa   001025 000000     119            vfd 18/c_9-cobol_class_table_,18/c_0
    000155  aa   000000 000000     120            vfd 18/c_0,18/c_0
    000156  aa   000000 000000     121            vfd 18/c_0,18/c_0
    000157  aa   000000 000000     122            vfd 18/c_0,18/c_0
    000160  aa   000000 000000     123            vfd 18/c_0,18/c_0
    000161  aa   000000 000000     124            vfd 18/c_0,18/c_0
    000162  aa   001053 000000     125            vfd 18/c_20-cobol_class_table_,18/c_0
    000163  aa   000000 000000     126            vfd 18/c_0,18/c_0
    000164  aa   000000 001101     127            vfd 18/c_0,18/c_31-cobol_class_table_
    000165  aa   000000 000000     128            vfd 18/c_0,18/c_0
    000166  aa   000000 001111     129            vfd 18/c_0,18/c_35-cobol_class_table_
    000167  aa   000000 000000     130            vfd 18/c_0,18/c_0
    000170  aa   000000 001131     131            vfd 18/c_0,18/c_43-cobol_class_table_
    000171  aa   000000 000000     132            vfd 18/c_0,18/c_0
    000172  aa   000000 000000     133            vfd 18/c_0,18/c_0
    000173  aa   000000 000000     134            vfd 18/c_0,18/c_0
    000174  aa   000000 001145     135            vfd 18/c_0,18/c_49-cobol_class_table_
    000175  aa   000000 000000     136            vfd 18/c_0,18/c_0
    000176  aa   001155 000000     137            vfd 18/c_53-cobol_class_table_,18/c_0
    000177  aa   001161 001163     138            vfd 18/c_55-cobol_class_table_,18/c_56-cobol_class_table_
    000200  aa   000000 000000     139            vfd 18/c_0,18/c_0
    000201  aa   000000 000000     140            vfd 18/c_0,18/c_0
    000202  aa   000000 000000     141            vfd 18/c_0,18/c_0
    000203  aa   000000 000000     142            vfd 18/c_0,18/c_0
    000204  aa   001177 000000     143            vfd 18/c_62-cobol_class_table_,18/c_0
    000205  aa   001203 001205     144            vfd 18/c_64-cobol_class_table_,18/c_65-cobol_class_table_
    000206  aa   001207 000000     145            vfd 18/c_66-cobol_class_table_,18/c_0
    000207  aa   000000 001037     146            vfd 18/c_0,18/c_14-cobol_class_table_
    000210  aa   000000 000000     147            vfd 18/c_0,18/c_0
    000211  aa   000000 000000     148            vfd 18/c_0,18/c_0
    000212  aa   000000 000000     149            vfd 18/c_0,18/c_0
    000213  aa   000000 000000     150            vfd 18/c_0,18/c_0
    000214  aa   000000 000000     151            vfd 18/c_0,18/c_0
    000215  aa   000000 000000     152            vfd 18/c_0,18/c_0
    000216  aa   000000 000000     153            vfd 18/c_0,18/c_0
    000217  aa   000000 000000     154            vfd 18/c_0,18/c_0
    000220  aa   000000 000000     155            vfd 18/c_0,18/c_0
    000221  aa   000000 000000     156            vfd 18/c_0,18/c_0
    000222  aa   000000 000000     157            vfd 18/c_0,18/c_0
    000223  aa   000000 000000     158            vfd 18/c_0,18/c_0
    000224  aa   000000 000000     159            vfd 18/c_0,18/c_0
    000225  aa   000000 000000     160            vfd 18/c_0,18/c_0
    000226  aa   000000 000000     161            vfd 18/c_0,18/c_0
    000227  aa   000000 000000     162            vfd 18/c_0,18/c_0
    000230  aa   000000 000000     163            vfd 18/c_0,18/c_0
    000231  aa   001171 000000     164            vfd 18/c_59-cobol_class_table_,18/c_0
    000232  aa   000000 000000     165            vfd 18/c_0,18/c_0
    000233  aa   000000 000000     166            vfd 18/c_0,18/c_0
    000234  aa   000000 000000     167            vfd 18/c_0,18/c_0
    000235  aa   000000 000000     168            vfd 18/c_0,18/c_0
    000236  aa   000000 000000     169            vfd 18/c_0,18/c_0
    000237  aa   000000 000000     170            vfd 18/c_0,18/c_0
    000240  aa   000000 000000     171            vfd 18/c_0,18/c_0
    000241  aa   000000 000000     172            vfd 18/c_0,18/c_0
    000242  aa   000000 000000     173            vfd 18/c_0,18/c_0
    000243  aa   000000 000000     174            vfd 18/c_0,18/c_0
    000244  aa   000000 000000     175            vfd 18/c_0,18/c_0
    000245  aa   000000 000000     176            vfd 18/c_0,18/c_0
    000246  aa   000000 000000     177            vfd 18/c_0,18/c_0
    000247  aa   000000 000000     178            vfd 18/c_0,18/c_0
    000250  aa   000000 000000     179            vfd 18/c_0,18/c_0
    000251  aa   000000 000000     180            vfd 18/c_0,18/c_0
    000252  aa   000000 000000     181            vfd 18/c_0,18/c_0
    000253  aa   000000 000000     182            vfd 18/c_0,18/c_0
    000254  aa   000000 000000     183            vfd 18/c_0,18/c_0
    000255  aa   000000 000000     184            vfd 18/c_0,18/c_0
    000256  aa   000000 000000     185            vfd 18/c_0,18/c_0
    000257  aa   000000 000000     186            vfd 18/c_0,18/c_0
    000260  aa   000000 000000     187            vfd 18/c_0,18/c_0
    000261  aa   000000 000000     188            vfd 18/c_0,18/c_0
    000262  aa   000000 000000     189            vfd 18/c_0,18/c_0
    000263  aa   000000 000000     190            vfd 18/c_0,18/c_0
    000264  aa   000000 000000     191            vfd 18/c_0,18/c_0
    000265  aa   000000 000000     192            vfd 18/c_0,18/c_0
    000266  aa   000000 000000     193            vfd 18/c_0,18/c_0
    000267  aa   000000 000000     194            vfd 18/c_0,18/c_0
    000270  aa   000000 000000     195            vfd 18/c_0,18/c_0
    000271  aa   000000 000000     196            vfd 18/c_0,18/c_0
    000272  aa   000000 000000     197            vfd 18/c_0,18/c_0
    000273  aa   000000 000000     198            vfd 18/c_0,18/c_0
    000274  aa   000000 000000     199            vfd 18/c_0,18/c_0
    000275  aa   000000 000000     200            vfd 18/c_0,18/c_0
    000276  aa   000000 000000     201            vfd 18/c_0,18/c_0
    000277  aa   000000 000000     202            vfd 18/c_0,18/c_0
    000300  aa   000000 000000     203            vfd 18/c_0,18/c_0
    000301  aa   000000 000000     204            vfd 18/c_0,18/c_0
    000302  aa   000000 000000     205            vfd 18/c_0,18/c_0
    000303  aa   000000 000000     206            vfd 18/c_0,18/c_0
    000304  aa   000000 000000     207            vfd 18/c_0,18/c_0
    000305  aa   000000 000000     208            vfd 18/c_0,18/c_0
    000306  aa   000000 000000     209            vfd 18/c_0,18/c_0
    000307  aa   000000 000000     210            vfd 18/c_0,18/c_0
    000310  aa   000000 000000     211            vfd 18/c_0,18/c_0
    000311  aa   000000 000000     212            vfd 18/c_0,18/c_0
    000312  aa   000000 000000     213            vfd 18/c_0,18/c_0
    000313  aa   000000 000000     214            vfd 18/c_0,18/c_0
    000314  aa   000000 000000     215            vfd 18/c_0,18/c_0
    000315  aa   000000 000000     216            vfd 18/c_0,18/c_0
    000316  aa   000000 000000     217            vfd 18/c_0,18/c_0
    000317  aa   000000 000000     218            vfd 18/c_0,18/c_0
    000320  aa   000000 000000     219            vfd 18/c_0,18/c_0
    000321  aa   000000 000000     220            vfd 18/c_0,18/c_0
    000322  aa   000000 000000     221            vfd 18/c_0,18/c_0
    000323  aa   000000 000000     222            vfd 18/c_0,18/c_0
    000324  aa   000000 000000     223            vfd 18/c_0,18/c_0
    000325  aa   000000 000000     224            vfd 18/c_0,18/c_0
    000326  aa   000000 000000     225            vfd 18/c_0,18/c_0
    000327  aa   000000 000000     226            vfd 18/c_0,18/c_0
    000330  aa   000000 000000     227            vfd 18/c_0,18/c_0
    000331  aa   000000 000000     228            vfd 18/c_0,18/c_0
    000332  aa   000000 000000     229            vfd 18/c_0,18/c_0
    000333  aa   000000 000000     230            vfd 18/c_0,18/c_0
    000334  aa   000000 000000     231            vfd 18/c_0,18/c_0
    000335  aa   000000 000000     232            vfd 18/c_0,18/c_0
    000336  aa   000000 000000     233            vfd 18/c_0,18/c_0
    000337  aa   000000 000000     234            vfd 18/c_0,18/c_0
    000340  aa   000000 000000     235            vfd 18/c_0,18/c_0
    000341  aa   000000 000000     236            vfd 18/c_0,18/c_0
    000342  aa   000000 000000     237            vfd 18/c_0,18/c_0
    000343  aa   000000 000000     238            vfd 18/c_0,18/c_0
    000344  aa   000000 000000     239            vfd 18/c_0,18/c_0
    000345  aa   000000 000000     240            vfd 18/c_0,18/c_0
    000346  aa   000000 000000     241            vfd 18/c_0,18/c_0
    000347  aa   000000 000000     242            vfd 18/c_0,18/c_0
    000350  aa   000000 000000     243            vfd 18/c_0,18/c_0
    000351  aa   000000 000000     244            vfd 18/c_0,18/c_0
    000352  aa   000000 000000     245            vfd 18/c_0,18/c_0
    000353  aa   000000 000000     246            vfd 18/c_0,18/c_0
    000354  aa   000000 000000     247            vfd 18/c_0,18/c_0
    000355  aa   000000 000000     248            vfd 18/c_0,18/c_0
    000356  aa   000000 000000     249            vfd 18/c_0,18/c_0
    000357  aa   000000 000000     250            vfd 18/c_0,18/c_0
    000360  aa   000000 000000     251            vfd 18/c_0,18/c_0
    000361  aa   000000 000000     252            vfd 18/c_0,18/c_0
    000362  aa   000000 000000     253            vfd 18/c_0,18/c_0
    000363  aa   000000 000000     254            vfd 18/c_0,18/c_0
    000364  aa   000000 000000     255            vfd 18/c_0,18/c_0
    000365  aa   000000 000000     256            vfd 18/c_0,18/c_0
    000366  aa   000000 000000     257            vfd 18/c_0,18/c_0
    000367  aa   000000 000000     258            vfd 18/c_0,18/c_0
    000370  aa   000000 000000     259            vfd 18/c_0,18/c_0
    000371  aa   000000 000000     260            vfd 18/c_0,18/c_0
    000372  aa   000000 000000     261            vfd 18/c_0,18/c_0
    000373  aa   000000 000000     262            vfd 18/c_0,18/c_0
    000374  aa   000000 000000     263            vfd 18/c_0,18/c_0
    000375  aa   000000 000000     264            vfd 18/c_0,18/c_0
    000376  aa   000000 000000     265            vfd 18/c_0,18/c_0
    000377  aa   000000 000000     266            vfd 18/c_0,18/c_0
    000400  aa   000000 000000     267            vfd 18/c_0,18/c_0
    000401  aa   000000 001135     268            vfd 18/c_0,18/c_45-cobol_class_table_
    000402  aa   000000 000000     269            vfd 18/c_0,18/c_0
    000403  aa   000000 000000     270            vfd 18/c_0,18/c_0
    000404  aa   001015 001017     271            vfd 18/c_5-cobol_class_table_,18/c_6-cobol_class_table_
    000405  aa   000000 001021     272            vfd 18/c_0,18/c_7-cobol_class_table_
    000406  aa   000000 001023     273            vfd 18/c_0,18/c_8-cobol_class_table_
    000407  aa   000000 001027     274            vfd 18/c_0,18/c_10-cobol_class_table_
    000410  aa   000000 001031     275            vfd 18/c_0,18/c_11-cobol_class_table_
    000411  aa   001033 000000     276            vfd 18/c_12-cobol_class_table_,18/c_0
    000412  aa   000000 000000     277            vfd 18/c_0,18/c_0
    000413  aa   000000 000000     278            vfd 18/c_0,18/c_0
    000414  aa   000000 000000     279            vfd 18/c_0,18/c_0
    000415  aa   001041 000000     280            vfd 18/c_15-cobol_class_table_,18/c_0
    000416  aa   000000 000000     281            vfd 18/c_0,18/c_0
    000417  aa   000000 000000     282            vfd 18/c_0,18/c_0
    000420  aa   000000 000000     283            vfd 18/c_0,18/c_0
    000421  aa   000000 000000     284            vfd 18/c_0,18/c_0
    000422  aa   001045 001051     285            vfd 18/c_17-cobol_class_table_,18/c_19-cobol_class_table_
    000423  aa   000000 000000     286            vfd 18/c_0,18/c_0
    000424  aa   001057 000000     287            vfd 18/c_22-cobol_class_table_,18/c_0
    000425  aa   000000 000000     288            vfd 18/c_0,18/c_0
    000426  aa   001063 001067     289            vfd 18/c_24-cobol_class_table_,18/c_26-cobol_class_table_
    000427  aa   001065 000000     290            vfd 18/c_25-cobol_class_table_,18/c_0
    000430  aa   001071 001073     291            vfd 18/c_27-cobol_class_table_,18/c_28-cobol_class_table_
    000431  aa   000000 000000     292            vfd 18/c_0,18/c_0
    000432  aa   000000 001103     293            vfd 18/c_0,18/c_32-cobol_class_table_
    000433  aa   000000 000000     294            vfd 18/c_0,18/c_0
    000434  aa   000000 000000     295            vfd 18/c_0,18/c_0
    000435  aa   000000 000000     296            vfd 18/c_0,18/c_0
    000436  aa   000000 000000     297            vfd 18/c_0,18/c_0
    000437  aa   000000 000000     298            vfd 18/c_0,18/c_0
    000440  aa   000000 000000     299            vfd 18/c_0,18/c_0
    000441  aa   000000 000000     300            vfd 18/c_0,18/c_0
    000442  aa   000000 001121     301            vfd 18/c_0,18/c_39-cobol_class_table_
    000443  aa   000000 000000     302            vfd 18/c_0,18/c_0
    000444  aa   000000 000000     303            vfd 18/c_0,18/c_0
    000445  aa   000000 000000     304            vfd 18/c_0,18/c_0
    000446  aa   001125 001127     305            vfd 18/c_41-cobol_class_table_,18/c_42-cobol_class_table_
    000447  aa   000000 000000     306            vfd 18/c_0,18/c_0
    000450  aa   001141 001143     307            vfd 18/c_47-cobol_class_table_,18/c_48-cobol_class_table_
    000451  aa   000000 000000     308            vfd 18/c_0,18/c_0
    000452  aa   000000 000000     309            vfd 18/c_0,18/c_0
    000453  aa   000000 000000     310            vfd 18/c_0,18/c_0
    000454  aa   001151 001153     311            vfd 18/c_51-cobol_class_table_,18/c_52-cobol_class_table_
    000455  aa   000000 000000     312            vfd 18/c_0,18/c_0
    000456  aa   000000 001157     313            vfd 18/c_0,18/c_54-cobol_class_table_
    000457  aa   000000 000000     314            vfd 18/c_0,18/c_0
    000460  aa   001165 001167     315            vfd 18/c_57-cobol_class_table_,18/c_58-cobol_class_table_
    000461  aa   000000 000000     316            vfd 18/c_0,18/c_0
    000462  aa   001173 000000     317            vfd 18/c_60-cobol_class_table_,18/c_0
    000463  aa   000000 000000     318            vfd 18/c_0,18/c_0
    000464  aa   000000 001201     319            vfd 18/c_0,18/c_63-cobol_class_table_
    000465  aa   000000 000000     320            vfd 18/c_0,18/c_0
    000466  aa   000000 000000     321            vfd 18/c_0,18/c_0
    000467  aa   000000 000000     322            vfd 18/c_0,18/c_0
    000470  aa   000000 000000     323            vfd 18/c_0,18/c_0
    000471  aa   000000 000000     324            vfd 18/c_0,18/c_0
    000472  aa   000000 000000     325            vfd 18/c_0,18/c_0
    000473  aa   000000 000000     326            vfd 18/c_0,18/c_0
    000474  aa   000000 000000     327            vfd 18/c_0,18/c_0
    000475  aa   000000 000000     328            vfd 18/c_0,18/c_0
    000476  aa   000000 000000     329            vfd 18/c_0,18/c_0
    000477  aa   000000 000000     330            vfd 18/c_0,18/c_0
    000500  aa   000000 000000     331            vfd 18/c_0,18/c_0
    000501  aa   000000 000000     332            vfd 18/c_0,18/c_0
    000502  aa   000000 000000     333            vfd 18/c_0,18/c_0
    000503  aa   000000 000000     334            vfd 18/c_0,18/c_0
    000504  aa   000000 000000     335            vfd 18/c_0,18/c_0
    000505  aa   000000 000000     336            vfd 18/c_0,18/c_0
    000506  aa   000000 000000     337            vfd 18/c_0,18/c_0
    000507  aa   000000 000000     338            vfd 18/c_0,18/c_0
    000510  aa   000000 000000     339            vfd 18/c_0,18/c_0
    000511  aa   000000 000000     340            vfd 18/c_0,18/c_0
    000512  aa   000000 000000     341            vfd 18/c_0,18/c_0
    000513  aa   000000 000000     342            vfd 18/c_0,18/c_0
    000514  aa   000000 000000     343            vfd 18/c_0,18/c_0
    000515  aa   000000 000000     344            vfd 18/c_0,18/c_0
    000516  aa   000000 000000     345            vfd 18/c_0,18/c_0
    000517  aa   000000 000000     346            vfd 18/c_0,18/c_0
    000520  aa   000000 000000     347            vfd 18/c_0,18/c_0
    000521  aa   000000 000000     348            vfd 18/c_0,18/c_0
    000522  aa   000000 000000     349            vfd 18/c_0,18/c_0
    000523  aa   000000 000000     350            vfd 18/c_0,18/c_0
    000524  aa   000000 000000     351            vfd 18/c_0,18/c_0
    000525  aa   000000 000000     352            vfd 18/c_0,18/c_0
    000526  aa   000000 000000     353            vfd 18/c_0,18/c_0
    000527  aa   000000 000000     354            vfd 18/c_0,18/c_0
    000530  aa   000000 000000     355            vfd 18/c_0,18/c_0
    000531  aa   000000 000000     356            vfd 18/c_0,18/c_0
    000532  aa   000000 000000     357            vfd 18/c_0,18/c_0
    000533  aa   000000 000000     358            vfd 18/c_0,18/c_0
    000534  aa   000000 000000     359            vfd 18/c_0,18/c_0
    000535  aa   000000 000000     360            vfd 18/c_0,18/c_0
    000536  aa   000000 000000     361            vfd 18/c_0,18/c_0
    000537  aa   000000 000000     362            vfd 18/c_0,18/c_0
    000540  aa   000000 000000     363            vfd 18/c_0,18/c_0
    000541  aa   000000 000000     364            vfd 18/c_0,18/c_0
    000542  aa   000000 000000     365            vfd 18/c_0,18/c_0
    000543  aa   000000 000000     366            vfd 18/c_0,18/c_0
    000544  aa   000000 000000     367            vfd 18/c_0,18/c_0
    000545  aa   000000 000000     368            vfd 18/c_0,18/c_0
    000546  aa   000000 000000     369            vfd 18/c_0,18/c_0
    000547  aa   000000 000000     370            vfd 18/c_0,18/c_0
    000550  aa   000000 000000     371            vfd 18/c_0,18/c_0
    000551  aa   000000 000000     372            vfd 18/c_0,18/c_0
    000552  aa   000000 000000     373            vfd 18/c_0,18/c_0
    000553  aa   000000 000000     374            vfd 18/c_0,18/c_0
    000554  aa   000000 000000     375            vfd 18/c_0,18/c_0
    000555  aa   000000 000000     376            vfd 18/c_0,18/c_0
    000556  aa   000000 000000     377            vfd 18/c_0,18/c_0
    000557  aa   000000 000000     378            vfd 18/c_0,18/c_0
    000560  aa   000000 000000     379            vfd 18/c_0,18/c_0
    000561  aa   000000 000000     380            vfd 18/c_0,18/c_0
    000562  aa   000000 000000     381            vfd 18/c_0,18/c_0
    000563  aa   000000 000000     382            vfd 18/c_0,18/c_0
    000564  aa   000000 000000     383            vfd 18/c_0,18/c_0
    000565  aa   000000 000000     384            vfd 18/c_0,18/c_0
    000566  aa   000000 000000     385            vfd 18/c_0,18/c_0
    000567  aa   000000 000000     386            vfd 18/c_0,18/c_0
    000570  aa   000000 000000     387            vfd 18/c_0,18/c_0
    000571  aa   000000 000000     388            vfd 18/c_0,18/c_0
    000572  aa   000000 000000     389            vfd 18/c_0,18/c_0
    000573  aa   000000 000000     390            vfd 18/c_0,18/c_0
    000574  aa   000000 000000     391            vfd 18/c_0,18/c_0
    000575  aa   000000 000000     392            vfd 18/c_0,18/c_0
    000576  aa   000000 000000     393            vfd 18/c_0,18/c_0
    000577  aa   000000 000000     394            vfd 18/c_0,18/c_0
    000600  aa   000000 000000     395            vfd 18/c_0,18/c_0
    000601  aa   000000 000000     396            vfd 18/c_0,18/c_0
    000602  aa   000000 000000     397            vfd 18/c_0,18/c_0
    000603  aa   000000 000000     398            vfd 18/c_0,18/c_0
    000604  aa   000000 000000     399            vfd 18/c_0,18/c_0
    000605  aa   000000 000000     400            vfd 18/c_0,18/c_0
    000606  aa   000000 000000     401            vfd 18/c_0,18/c_0
    000607  aa   000000 000000     402            vfd 18/c_0,18/c_0
    000610  aa   000000 000000     403            vfd 18/c_0,18/c_0
    000611  aa   000000 000000     404            vfd 18/c_0,18/c_0
    000612  aa   000000 000000     405            vfd 18/c_0,18/c_0
    000613  aa   000000 000000     406            vfd 18/c_0,18/c_0
    000614  aa   000000 000000     407            vfd 18/c_0,18/c_0
    000615  aa   000000 000000     408            vfd 18/c_0,18/c_0
    000616  aa   000000 000000     409            vfd 18/c_0,18/c_0
    000617  aa   000000 000000     410            vfd 18/c_0,18/c_0
    000620  aa   000000 000000     411            vfd 18/c_0,18/c_0
    000621  aa   000000 000000     412            vfd 18/c_0,18/c_0
    000622  aa   000000 000000     413            vfd 18/c_0,18/c_0
    000623  aa   000000 000000     414            vfd 18/c_0,18/c_0
    000624  aa   000000 000000     415            vfd 18/c_0,18/c_0
    000625  aa   000000 000000     416            vfd 18/c_0,18/c_0
    000626  aa   000000 000000     417            vfd 18/c_0,18/c_0
    000627  aa   000000 000000     418            vfd 18/c_0,18/c_0
    000630  aa   000000 000000     419            vfd 18/c_0,18/c_0
    000631  aa   000000 000000     420            vfd 18/c_0,18/c_0
    000632  aa   000000 000000     421            vfd 18/c_0,18/c_0
    000633  aa   000000 000000     422            vfd 18/c_0,18/c_0
    000634  aa   000000 000000     423            vfd 18/c_0,18/c_0
    000635  aa   000000 000000     424            vfd 18/c_0,18/c_0
    000636  aa   000000 000000     425            vfd 18/c_0,18/c_0
    000637  aa   000000 000000     426            vfd 18/c_0,18/c_0
    000640  aa   000000 000000     427            vfd 18/c_0,18/c_0
    000641  aa   000000 000000     428            vfd 18/c_0,18/c_0
    000642  aa   000000 000000     429            vfd 18/c_0,18/c_0
    000643  aa   000000 000000     430            vfd 18/c_0,18/c_0
    000644  aa   000000 000000     431            vfd 18/c_0,18/c_0
    000645  aa   000000 000000     432            vfd 18/c_0,18/c_0
    000646  aa   000000 000000     433            vfd 18/c_0,18/c_0
    000647  aa   000000 000000     434            vfd 18/c_0,18/c_0
    000650  aa   000000 000000     435            vfd 18/c_0,18/c_0
    000651  aa   000000 000000     436            vfd 18/c_0,18/c_0
    000652  aa   000000 000000     437            vfd 18/c_0,18/c_0
    000653  aa   000000 000000     438            vfd 18/c_0,18/c_0
    000654  aa   000000 000000     439            vfd 18/c_0,18/c_0
    000655  aa   000000 000000     440            vfd 18/c_0,18/c_0
    000656  aa   000000 000000     441            vfd 18/c_0,18/c_0
    000657  aa   000000 000000     442            vfd 18/c_0,18/c_0
    000660  aa   000000 000000     443            vfd 18/c_0,18/c_0
    000661  aa   000000 000000     444            vfd 18/c_0,18/c_0
    000662  aa   000000 000000     445            vfd 18/c_0,18/c_0
    000663  aa   000000 000000     446            vfd 18/c_0,18/c_0
    000664  aa   000000 000000     447            vfd 18/c_0,18/c_0
    000665  aa   000000 000000     448            vfd 18/c_0,18/c_0
    000666  aa   000000 000000     449            vfd 18/c_0,18/c_0
    000667  aa   000000 000000     450            vfd 18/c_0,18/c_0
    000670  aa   000000 000000     451            vfd 18/c_0,18/c_0
    000671  aa   000000 000000     452            vfd 18/c_0,18/c_0
    000672  aa   000000 000000     453            vfd 18/c_0,18/c_0
    000673  aa   000000 000000     454            vfd 18/c_0,18/c_0
    000674  aa   000000 000000     455            vfd 18/c_0,18/c_0
    000675  aa   000000 000000     456            vfd 18/c_0,18/c_0
    000676  aa   000000 000000     457            vfd 18/c_0,18/c_0
    000677  aa   000000 000000     458            vfd 18/c_0,18/c_0
    000700  aa   000000 000000     459            vfd 18/c_0,18/c_0
    000701  aa   000000 000000     460            vfd 18/c_0,18/c_0
    000702  aa   000000 000000     461            vfd 18/c_0,18/c_0
    000703  aa   000000 000000     462            vfd 18/c_0,18/c_0
    000704  aa   000000 000000     463            vfd 18/c_0,18/c_0
    000705  aa   000000 000000     464            vfd 18/c_0,18/c_0
    000706  aa   000000 000000     465            vfd 18/c_0,18/c_0
    000707  aa   000000 000000     466            vfd 18/c_0,18/c_0
    000710  aa   000000 000000     467            vfd 18/c_0,18/c_0
    000711  aa   000000 000000     468            vfd 18/c_0,18/c_0
    000712  aa   000000 000000     469            vfd 18/c_0,18/c_0
    000713  aa   000000 000000     470            vfd 18/c_0,18/c_0
    000714  aa   000000 000000     471            vfd 18/c_0,18/c_0
    000715  aa   000000 000000     472            vfd 18/c_0,18/c_0
    000716  aa   000000 000000     473            vfd 18/c_0,18/c_0
    000717  aa   000000 000000     474            vfd 18/c_0,18/c_0
    000720  aa   000000 000000     475            vfd 18/c_0,18/c_0
    000721  aa   000000 000000     476            vfd 18/c_0,18/c_0
    000722  aa   000000 000000     477            vfd 18/c_0,18/c_0
    000723  aa   000000 000000     478            vfd 18/c_0,18/c_0
    000724  aa   000000 000000     479            vfd 18/c_0,18/c_0
    000725  aa   000000 000000     480            vfd 18/c_0,18/c_0
    000726  aa   000000 000000     481            vfd 18/c_0,18/c_0
    000727  aa   000000 000000     482            vfd 18/c_0,18/c_0
    000730  aa   000000 000000     483            vfd 18/c_0,18/c_0
    000731  aa   000000 000000     484            vfd 18/c_0,18/c_0
    000732  aa   000000 000000     485            vfd 18/c_0,18/c_0
    000733  aa   000000 000000     486            vfd 18/c_0,18/c_0
    000734  aa   000000 000000     487            vfd 18/c_0,18/c_0
    000735  aa   000000 000000     488            vfd 18/c_0,18/c_0
    000736  aa   000000 000000     489            vfd 18/c_0,18/c_0
    000737  aa   000000 000000     490            vfd 18/c_0,18/c_0
    000740  aa   000000 000000     491            vfd 18/c_0,18/c_0
    000741  aa   000000 000000     492            vfd 18/c_0,18/c_0
    000742  aa   000000 000000     493            vfd 18/c_0,18/c_0
    000743  aa   000000 000000     494            vfd 18/c_0,18/c_0
    000744  aa   000000 000000     495            vfd 18/c_0,18/c_0
    000745  aa   000000 000000     496            vfd 18/c_0,18/c_0
    000746  aa   000000 000000     497            vfd 18/c_0,18/c_0
    000747  aa   000000 000000     498            vfd 18/c_0,18/c_0
    000750  aa   000000 000000     499            vfd 18/c_0,18/c_0
    000751  aa   000000 000000     500            vfd 18/c_0,18/c_0
    000752  aa   000000 000000     501            vfd 18/c_0,18/c_0
    000753  aa   000000 000000     502            vfd 18/c_0,18/c_0
    000754  aa   000000 000000     503            vfd 18/c_0,18/c_0
    000755  aa   000000 000000     504            vfd 18/c_0,18/c_0
    000756  aa   000000 000000     505            vfd 18/c_0,18/c_0
    000757  aa   000000 000000     506            vfd 18/c_0,18/c_0
    000760  aa   000000 000000     507            vfd 18/c_0,18/c_0
    000761  aa   000000 000000     508            vfd 18/c_0,18/c_0
    000762  aa   000000 000000     509            vfd 18/c_0,18/c_0
    000763  aa   000000 000000     510            vfd 18/c_0,18/c_0
    000764  aa   000000 000000     511            vfd 18/c_0,18/c_0
    000765  aa   000000 000000     512            vfd 18/c_0,18/c_0
    000766  aa   000000 000000     513            vfd 18/c_0,18/c_0
    000767  aa   000000 000000     514            vfd 18/c_0,18/c_0
    000770  aa   000000 000000     515            vfd 18/c_0,18/c_0
    000771  aa   000000 000000     516            vfd 18/c_0,18/c_0
    000772  aa   000000 000000     517            vfd 18/c_0,18/c_0
    000773  aa   000000 000000     518            vfd 18/c_0,18/c_0
    000774  aa   000000 000000     519            vfd 18/c_0,18/c_0
    000775  aa   000000 000000     520            vfd 18/c_0,18/c_0
    000776  aa   000000 000000     521            vfd 18/c_0,18/c_0
    000777  aa   000000 000000     522            vfd 18/c_0,18/c_0
    001000  aa   000000 000000     523            vfd 18/c_0,18/c_0
    001001  aa   000000 000000     524            vfd 18/c_0,18/c_0
    001002  aa   000000 000000     525            vfd 18/c_0,18/c_0
    001003  aa   000000 000000     526            vfd 18/c_0,18/c_0
    001004  aa   000000 000000     527            vfd 18/c_0,18/c_0
                        000000     528                    equ c_0,0
    001005                         529  c_1:
    001005  aa   001000 001000     530          vfd 9/1,9/0,9/1,9/0,9/0,9/0
    001006  aa   000000 000000
    001007                         531  c_2:
    001007  aa   000000 000000     532          vfd 9/0,9/0,9/0,9/0,9/5,9/0
    001010  aa   005000 000000
    001011                         533  c_3:
    001011  aa   000000 007000     534          vfd 9/0,9/0,9/7,9/0,9/0,9/0
    001012  aa   000000 000000
    001013                         535  c_4:
    001013  aa   000000 000000     536          vfd 9/0,9/0,9/0,9/0,9/0,9/19
    001014  aa   000023 000000
    001015                         537  c_5:
    001015  aa   000000 000005     538          vfd 9/0,9/0,9/0,9/5,9/0,9/0
    001016  aa   000000 000000
    001017                         539  c_6:
    001017  aa   000000 000003     540          vfd 9/0,9/0,9/0,9/3,9/0,9/0
    001020  aa   000000 000000
    001021                         541  c_7:
    001021  aa   002000 000000     542          vfd 9/2,9/0,9/0,9/0,9/0,9/0
    001022  aa   000000 000000
    001023                         543  c_8:
    001023  aa   000000 012000     544          vfd 9/0,9/0,9/10,9/0,9/0,9/0
    001024  aa   000000 000000
    001025                         545  c_9:
    001025  aa   000000 000000     546          vfd 9/0,9/0,9/0,9/0,9/0,9/15
    001026  aa   000017 000000
    001027                         547  c_10:
    001027  aa   000000 000000     548          vfd 9/0,9/0,9/0,9/0,9/0,9/3
    001030  aa   000003 000000
    001031                         549  c_11:
    001031  aa   003000 000012     550          vfd 9/3,9/0,9/0,9/10,9/0,9/0
    001032  aa   000000 000000
    001033                         551  c_12:
    001033  aa   003000 000000     552          vfd 9/3,9/0,9/0,9/0,9/0,9/0
    001034  aa   000000 000000
    001035                         553  c_13:
    001035  aa   000000 000000     554          vfd 9/0,9/0,9/0,9/0,9/0,9/10
    001036  aa   000012 000000
    001037                         555  c_14:
    001037  aa   000000 000000     556          vfd 9/0,9/0,9/0,9/0,9/0,9/20
    001040  aa   000024 000000
    001041                         557  c_15:
    001041  aa   000000 000004     558          vfd 9/0,9/0,9/0,9/4,9/0,9/0
    001042  aa   000000 000000
    001043                         559  c_16:
    001043  aa   000000 000000     560          vfd 9/0,9/0,9/0,9/0,9/0,9/18
    001044  aa   000022 000000
    001045                         561  c_17:
    001045  aa   000000 000013     562          vfd 9/0,9/0,9/0,9/11,9/0,9/0
    001046  aa   000000 000000
    001047                         563  c_18:
    001047  aa   000000 005000     564          vfd 9/0,9/0,9/5,9/0,9/0,9/0
    001050  aa   000000 000000
    001051                         565  c_19:
    001051  aa   000000 000000     566          vfd 9/0,9/0,9/0,9/0,9/0,9/2
    001052  aa   000002 000000
    001053                         567  c_20:
    001053  aa   000000 000000     568          vfd 9/0,9/0,9/0,9/0,9/0,9/24
    001054  aa   000030 000000
    001055                         569  c_21:
    001055  aa   000000 000000     570          vfd 9/0,9/0,9/0,9/0,9/0,9/12
    001056  aa   000014 000000
    001057                         571  c_22:
    001057  aa   000000 000000     572          vfd 9/0,9/0,9/0,9/0,9/0,9/8
    001060  aa   000010 000000
    001061                         573  c_23:
    001061  aa   000002 000000     574          vfd 9/0,9/2,9/0,9/0,9/0,9/0
    001062  aa   000000 000000
    001063                         575  c_24:
    001063  aa   000004 000000     576          vfd 9/0,9/4,9/0,9/0,9/0,9/0
    001064  aa   000000 000000
    001065                         577  c_25:
    001065  aa   000000 010000     578          vfd 9/0,9/0,9/8,9/0,9/0,9/0
    001066  aa   000000 000000
    001067                         579  c_26:
    001067  aa   000001 000000     580          vfd 9/0,9/1,9/0,9/0,9/0,9/0
    001070  aa   000000 000000
    001071                         581  c_27:
    001071  aa   000000 000000     582          vfd 9/0,9/0,9/0,9/0,9/0,9/9
    001072  aa   000011 000000
    001073                         583  c_28:
    001073  aa   000000 000000     584          vfd 9/0,9/0,9/0,9/0,9/0,9/1
    001074  aa   000001 000000
    001075                         585  c_29:
    001075  aa   000000 000000     586          vfd 9/0,9/0,9/0,9/0,9/0,9/7
    001076  aa   000007 000000
    001077                         587  c_30:
    001077  aa   000000 005000     588          vfd 9/0,9/0,9/5,9/0,9/0,9/0
    001100  aa   000000 000000
    001101                         589  c_31:
    001101  aa   000000 011000     590          vfd 9/0,9/0,9/9,9/0,9/0,9/0
    001102  aa   000000 000000
    001103                         591  c_32:
    001103  aa   000003 000000     592          vfd 9/0,9/3,9/0,9/0,9/0,9/0
    001104  aa   000000 000000
    001105                         593  c_33:
    001105  aa   000000 017000     594          vfd 9/0,9/0,9/15,9/0,9/0,9/0
    001106  aa   000000 000000
    001107                         595  c_34:
    001107  aa   000000 002000     596          vfd 9/0,9/0,9/2,9/0,9/0,9/0
    001110  aa   000000 000000
    001111                         597  c_35:
    001111  aa   000000 000000     598          vfd 9/0,9/0,9/0,9/0,9/0,9/14
    001112  aa   000016 000000
    001113                         599  c_36:
    001113  aa   000000 000000     600          vfd 9/0,9/0,9/0,9/0,9/2,9/0
    001114  aa   002000 000000
    001115                         601  c_37:
    001115  aa   000000 003000     602          vfd 9/0,9/0,9/3,9/0,9/0,9/0
    001116  aa   000000 000000
    001117                         603  c_38:
    001117  aa   000000 000000     604          vfd 9/0,9/0,9/0,9/0,9/4,9/0
    001120  aa   004000 000000
    001121                         605  c_39:
    001121  aa   000000 000000     606          vfd 9/0,9/0,9/0,9/0,9/0,9/5
    001122  aa   000005 000000
    001123                         607  c_40:
    001123  aa   004000 000011     608          vfd 9/4,9/0,9/0,9/9,9/0,9/0
    001124  aa   000000 000000
    001125                         609  c_41:
    001125  aa   000000 000006     610          vfd 9/0,9/0,9/0,9/6,9/0,9/0
    001126  aa   000000 000000
    001127                         611  c_42:
    001127  aa   000000 000002     612          vfd 9/0,9/0,9/0,9/2,9/0,9/0
    001130  aa   000000 000000
    001131                         613  c_43:
    001131  aa   000000 013000     614          vfd 9/0,9/0,9/11,9/0,9/0,9/0
    001132  aa   000000 000000
    001133                         615  c_44:
    001133  aa   000000 000000     616          vfd 9/0,9/0,9/0,9/0,9/1,9/0
    001134  aa   001000 000000
    001135                         617  c_45:
    001135  aa   000000 006000     618          vfd 9/0,9/0,9/6,9/0,9/0,9/0
    001136  aa   000000 000000
    001137                         619  c_46:
    001137  aa   000000 000000     620          vfd 9/0,9/0,9/0,9/0,9/0,9/17
    001140  aa   000021 000000
    001141                         621  c_47:
    001141  aa   000000 000000     622          vfd 9/0,9/0,9/0,9/0,9/0,9/26
    001142  aa   000032 000000
    001143                         623  c_48:
    001143  aa   000000 000000     624          vfd 9/0,9/0,9/0,9/0,9/0,9/22
    001144  aa   000026 000000
    001145                         625  c_49:
    001145  aa   000000 000010     626          vfd 9/0,9/0,9/0,9/8,9/0,9/16
    001146  aa   000020 000000
    001147                         627  c_50:
    001147  aa   000000 000000     628          vfd 9/0,9/0,9/0,9/0,9/0,9/25
    001150  aa   000031 000000
    001151                         629  c_51:
    001151  aa   000000 000007     630          vfd 9/0,9/0,9/0,9/7,9/0,9/0
    001152  aa   000000 000000
    001153                         631  c_52:
    001153  aa   000000 000001     632          vfd 9/0,9/0,9/0,9/1,9/0,9/0
    001154  aa   000000 000000
    001155                         633  c_53:
    001155  aa   000000 000000     634          vfd 9/0,9/0,9/0,9/0,9/0,9/23
    001156  aa   000027 000000
    001157                         635  c_54:
    001157  aa   000000 000000     636          vfd 9/0,9/0,9/0,9/0,9/0,9/21
    001160  aa   000025 000000
    001161                         637  c_55:
    001161  aa   000000 017000     638          vfd 9/0,9/0,9/15,9/0,9/0,9/0
    001162  aa   000000 000000
    001163                         639  c_56:
    001163  aa   000000 014000     640          vfd 9/0,9/0,9/12,9/0,9/0,9/0
    001164  aa   000000 000000
    001165                         641  c_57:
    001165  aa   000000 000000     642          vfd 9/0,9/0,9/0,9/0,9/0,9/4
    001166  aa   000004 000000
    001167                         643  c_58:
    001167  aa   000000 000000     644          vfd 9/0,9/0,9/0,9/0,9/0,9/6
    001170  aa   000006 000000
    001171                         645  c_59:
    001171  aa   000000 000000     646          vfd 9/0,9/0,9/0,9/0,9/0,9/11
    001172  aa   000013 000000
    001173                         647  c_60:
    001173  aa   000000 016000     648          vfd 9/0,9/0,9/14,9/0,9/0,9/0
    001174  aa   000000 000000
    001175                         649  c_61:
    001175  aa   000000 000000     650          vfd 9/0,9/0,9/0,9/0,9/0,9/27
    001176  aa   000033 000000
    001177                         651  c_62:
    001177  aa   000000 017000     652          vfd 9/0,9/0,9/15,9/0,9/0,9/0
    001200  aa   000000 000000
    001201                         653  c_63:
    001201  aa   000000 004000     654          vfd 9/0,9/0,9/4,9/0,9/0,9/0
    001202  aa   000000 000000
    001203                         655  c_64:
    001203  aa   000000 005000     656          vfd 9/0,9/0,9/5,9/0,9/0,9/0
    001204  aa   000000 000000
    001205                         657  c_65:
    001205  aa   000000 015000     658          vfd 9/0,9/0,9/13,9/0,9/0,9/0
    001206  aa   000000 000000
    001207                         659  c_66:
    001207  aa   000000 000000     660          vfd 9/0,9/0,9/0,9/0,9/0,9/13
    001210  aa   000015 000000
    001211                         661  c_67:
    001211  aa   000000 000000     662          vfd 9/0,9/0,9/0,9/0,9/3,9/0
    001212  aa   003000 000000
                                   663  	end
ENTRY SEQUENCES

    001213  5a   000013 0000 00
    001214  aa  7 00046 2721 20
    001215  0a   000000 7100 00

NO LITERALS

NAME DEFINITIONS FOR ENTRY POINTS AND SEGDEFS

    001216  5a   000003 000000
    001217  5a   000032 600000
    001220  aa   000000 000000
    001221  55   000013 000002
    001222  5a   000002 400003
    001223  55   000006 000013
    001224  aa  022 143 157 142
    001225  aa  157 154 137 143
    001226  aa  154 141 163 163
    001227  aa  137 164 141 142
    001230  aa  154 145 137 000
    001231  55   000023 000003
    001232  0a   001214 500000
    001233  55   000016 000003
    001234  aa  022 143 157 142         cobol_class_table_
    001235  aa  157 154 137 143
    001236  aa  154 141 163 163
    001237  aa  137 164 141 142
    001240  aa  154 145 137 000
    001241  55   000002 000013
    001242  6a   000000 400002
    001243  55   000026 000003
    001244  aa  014 163 171 155         symbol_table
    001245  aa  142 157 154 137
    001246  aa  164 141 142 154
    001247  aa  145 000 000 000

DEFINITIONS HASH TABLE

    001250  aa   000000 000015
    001251  aa   000000 000000
    001252  aa   000000 000000
    001253  aa   000000 000000
    001254  aa   000000 000000
    001255  aa   000000 000000
    001256  aa   000000 000000
    001257  5a   000023 000000
    001260  aa   000000 000000
    001261  aa   000000 000000
    001262  5a   000013 000000
    001263  aa   000000 000000
    001264  aa   000000 000000
    001265  aa   000000 000000

NO EXTERNAL NAMES

NO TRAP POINTER WORDS

TYPE PAIR BLOCKS

    001266  aa   000001 000000
    001267  aa   000000 000000

INTERNAL EXPRESSION WORDS

LINKAGE INFORMATION

    000000  aa   000000 000000
    000001  0a   001216 000000
    000002  aa   000000 000000
    000003  aa   000000 000000
    000004  aa   000000 000000
    000005  aa   000000 000000
    000006  22   000010 000010
    000007  a2   000000 000000
SYMBOL INFORMATION

SYMBOL TABLE HEADER

    000000  aa   000000 000001
    000001  aa   163171 155142
    000002  aa   164162 145145
    000003  aa   000000 000004
    000004  aa   000000 111316
    000005  aa   510113 575622
    000006  aa   000000 111330
    000007  aa   402074 547670
    000010  aa   141154 155040
    000011  aa   040040 040040
    000012  aa   000024 000040
    000013  aa   000034 000040
    000014  aa   000044 000100
    000015  aa   000002 000002
    000016  aa   000064 000000
    000017  aa   000000 000164
    000020  aa   000000 000104
    000021  aa   000000 000153
    000022  aa   000156 000104
    000023  aa   000064 000000
    000024  aa   101114 115040
    000025  aa   126145 162163
    000026  aa   151157 156040
    000027  aa   040066 056064
    000030  aa   040040 101160
    000031  aa   162151 154040
    000032  aa   061071 070061
    000033  aa   040040 040040
    000034  aa   110157 154155
    000035  aa   163164 145144
    000036  aa   164056 123171
    000037  aa   163115 141151
    000040  aa   156164 056155
    000041  aa   040040 040040
    000042  aa   040040 040040
    000043  aa   040040 040040
    000044  aa   154151 163164
    000045  aa   040040 040040
    000046  aa   040040 040040
    000047  aa   040040 040040
    000050  aa   040040 040040
    000051  aa   040040 040040
    000052  aa   040040 040040
    000053  aa   040040 040040
    000054  aa   040040 040040
    000055  aa   040040 040040
    000056  aa   040040 040040
    000057  aa   040040 040040
    000060  aa   040040 040040
    000061  aa   040040 040040
    000062  aa   040040 040040
    000063  aa   040040 040040
    000064  aa   000000 000001
    000065  aa   000000 000001
    000066  aa   000072 000050
    000067  aa   113225 114762
    000070  aa   000000 111330
    000071  aa   375615 000000
    000072  aa   076163 160145          >spec>on>11/11/82>cobol_class_table_.alm
    000073  aa   143076 157156
    000074  aa   076061 061057
    000075  aa   061061 057070
    000076  aa   062076 143157
    000077  aa   142157 154137
    000100  aa   143154 141163
    000101  aa   163137 164141
    000102  aa   142154 145137
    000103  aa   056141 154155
               MULTICS ASSEMBLY CROSS REFERENCE LISTING

   Value        Symbol                   Source file   Line number

           0    cobol_class_table_       cobol_class_table_:        11,   12,   13,   36,   44,   52,   60,   69,   70,   74,
                                                                    75,   76,   77,   79,   81,   85,   86,   92,  105,  110,
                                                                   113,  117,  118,  119,  125,  127,  129,  131,  135,  137,
                                                                   138,  143,  144,  145,  146,  164,  268,  271,  272,  273,
                                                                   274,  275,  276,  280,  285,  287,  289,  290,  291,  293,
                                                                   301,  305,  307,  311,  313,  315,  317,  319.
           0    c_0                      cobol_class_table_:        16,   17,   18,   19,   20,   21,   22,   23,   24,   25,
                                                                    26,   27,   28,   29,   30,   31,   32,   33,   34,   35,
                                                                    36,   37,   38,   39,   40,   41,   42,   43,   44,   45,
                                                                    46,   47,   48,   49,   50,   51,   52,   53,   54,   55,
                                                                    56,   57,   58,   59,   60,   61,   62,   63,   64,   65,
                                                                    66,   67,   68,   69,   70,   71,   72,   73,   74,   75,
                                                                    76,   77,   78,   80,   81,   82,   83,   84,   85,   87,
                                                                    88,   89,   90,   91,   92,   93,   94,   95,   96,   97,
                                                                    98,   99,  100,  101,  102,  103,  104,  105,  106,  107,
                                                                   108,  109,  110,  111,  112,  113,  114,  115,  116,  117,
                                                                   118,  119,  120,  121,  122,  123,  124,  125,  126,  127,
                                                                   128,  129,  130,  131,  132,  133,  134,  135,  136,  137,
                                                                   139,  140,  141,  142,  143,  145,  146,  147,  148,  149,
                                                                   150,  151,  152,  153,  154,  155,  156,  157,  158,  159,
                                                                   160,  161,  162,  163,  164,  165,  166,  167,  168,  169,
                                                                   170,  171,  172,  173,  174,  175,  176,  177,  178,  179,
                                                                   180,  181,  182,  183,  184,  185,  186,  187,  188,  189,
                                                                   190,  191,  192,  193,  194,  195,  196,  197,  198,  199,
                                                                   200,  201,  202,  203,  204,  205,  206,  207,  208,  209,
                                                                   210,  211,  212,  213,  214,  215,  216,  217,  218,  219,
                                                                   220,  221,  222,  223,  224,  225,  226,  227,  228,  229,
                                                                   230,  231,  232,  233,  234,  235,  236,  237,  238,  239,
                                                                   240,  241,  242,  243,  244,  245,  246,  247,  248,  249,
                                                                   250,  251,  252,  253,  254,  255,  256,  257,  258,  259,
                                                                   260,  261,  262,  263,  264,  265,  266,  267,  268,  269,
                                                                   270,  272,  273,  274,  275,  276,  277,  278,  279,  280,
                                                                   281,  282,  283,  284,  286,  287,  288,  290,  292,  293,
                                                                   294,  295,  296,  297,  298,  299,  300,  301,  302,  303,
                                                                   304,  306,  308,  309,  310,  312,  313,  314,  316,  317,
                                                                   318,  319,  320,  321,  322,  323,  324,  325,  326,  327,
                                                                   328,  329,  330,  331,  332,  333,  334,  335,  336,  337,
                                                                   338,  339,  340,  341,  342,  343,  344,  345,  346,  347,
                                                                   348,  349,  350,  351,  352,  353,  354,  355,  356,  357,
                                                                   358,  359,  360,  361,  362,  363,  364,  365,  366,  367,
                                                                   368,  369,  370,  371,  372,  373,  374,  375,  376,  377,
                                                                   378,  379,  380,  381,  382,  383,  384,  385,  386,  387,
                                                                   388,  389,  390,  391,  392,  393,  394,  395,  396,  397,
                                                                   398,  399,  400,  401,  402,  403,  404,  405,  406,  407,
                                                                   408,  409,  410,  411,  412,  413,  414,  415,  416,  417,
                                                                   418,  419,  420,  421,  422,  423,  424,  425,  426,  427,
                                                                   428,  429,  430,  431,  432,  433,  434,  435,  436,  437,
                                                                   438,  439,  440,  441,  442,  443,  444,  445,  446,  447,
                                                                   448,  449,  450,  451,  452,  453,  454,  455,  456,  457,
                                                                   458,  459,  460,  461,  462,  463,  464,  465,  466,  467,
                                                                   468,  469,  470,  471,  472,  473,  474,  475,  476,  477,
                                                                   478,  479,  480,  481,  482,  483,  484,  485,  486,  487,
                                                                   488,  489,  490,  491,  492,  493,  494,  495,  496,  497,
                                                                   498,  499,  500,  501,  502,  503,  504,  505,  506,  507,
                                                                   508,  509,  510,  511,  512,  513,  514,  515,  516,  517,
                                                                   518,  519,  520,  521,  522,  523,  524,  525,  526,  527,  528.
        1005    c_1                      cobol_class_table_:       110,  529.
        1027    c_10                     cobol_class_table_:       274,  547.
        1031    c_11                     cobol_class_table_:       275,  549.
        1033    c_12                     cobol_class_table_:       276,  551.
        1035    c_13                     cobol_class_table_:       113,  553.
        1037    c_14                     cobol_class_table_:       146,  555.
        1041    c_15                     cobol_class_table_:       280,  557.
        1043    c_16                     cobol_class_table_:        60,  559.
        1045    c_17                     cobol_class_table_:       285,  561.
        1047    c_18                     cobol_class_table_:        36,  563.
        1051    c_19                     cobol_class_table_:       285,  565.
        1007    c_2                      cobol_class_table_:        52,  531.
        1053    c_20                     cobol_class_table_:       125,  567.
        1055    c_21                     cobol_class_table_:        69,  569.
        1057    c_22                     cobol_class_table_:       287,  571.
        1061    c_23                     cobol_class_table_:        70,  573.
        1063    c_24                     cobol_class_table_:       289,  575.
        1065    c_25                     cobol_class_table_:       290,  577.
        1067    c_26                     cobol_class_table_:       289,  579.
        1071    c_27                     cobol_class_table_:       291,  581.
        1073    c_28                     cobol_class_table_:       291,  583.
        1075    c_29                     cobol_class_table_:        75,  585.
        1011    c_3                      cobol_class_table_:       117,  533.
        1077    c_30                     cobol_class_table_:        74,  587.
        1101    c_31                     cobol_class_table_:       127,  589.
        1103    c_32                     cobol_class_table_:       293,  591.
        1105    c_33                     cobol_class_table_:        76,  593.
        1107    c_34                     cobol_class_table_:        77,  595.
        1111    c_35                     cobol_class_table_:       129,  597.
        1113    c_36                     cobol_class_table_:        79,  599.
        1115    c_37                     cobol_class_table_:        79,  601.
        1117    c_38                     cobol_class_table_:        81,  603.
        1121    c_39                     cobol_class_table_:       301,  605.
        1013    c_4                      cobol_class_table_:       118,  535.
        1123    c_40                     cobol_class_table_:        85,  607.
        1125    c_41                     cobol_class_table_:       305,  609.
        1127    c_42                     cobol_class_table_:       305,  611.
        1131    c_43                     cobol_class_table_:       131,  613.
        1133    c_44                     cobol_class_table_:        86,  615.
        1135    c_45                     cobol_class_table_:       268,  617.
        1137    c_46                     cobol_class_table_:        86,  619.
        1141    c_47                     cobol_class_table_:       307,  621.
        1143    c_48                     cobol_class_table_:       307,  623.
        1145    c_49                     cobol_class_table_:       135,  625.
        1015    c_5                      cobol_class_table_:       271,  537.
        1147    c_50                     cobol_class_table_:        92,  627.
        1151    c_51                     cobol_class_table_:       311,  629.
        1153    c_52                     cobol_class_table_:       311,  631.
        1155    c_53                     cobol_class_table_:       137,  633.
        1157    c_54                     cobol_class_table_:       313,  635.
        1161    c_55                     cobol_class_table_:       138,  637.
        1163    c_56                     cobol_class_table_:       138,  639.
        1165    c_57                     cobol_class_table_:       315,  641.
        1167    c_58                     cobol_class_table_:       315,  643.
        1171    c_59                     cobol_class_table_:       164,  645.
        1017    c_6                      cobol_class_table_:       271,  539.
        1173    c_60                     cobol_class_table_:       317,  647.
        1175    c_61                     cobol_class_table_:        44,  649.
        1177    c_62                     cobol_class_table_:       143,  651.
        1201    c_63                     cobol_class_table_:       319,  653.
        1203    c_64                     cobol_class_table_:       144,  655.
        1205    c_65                     cobol_class_table_:       144,  657.
        1207    c_66                     cobol_class_table_:       145,  659.
        1211    c_67                     cobol_class_table_:       105,  661.
        1021    c_7                      cobol_class_table_:       272,  541.
        1023    c_8                      cobol_class_table_:       273,  543.
        1025    c_9                      cobol_class_table_:       119,  545.


NO FATAL ERRORS


                                          -----------------------------------------------------------


Historical Background

This edition of the Multics software materials and documentation is provided and donated
to Massachusetts Institute of Technology by Group BULL including BULL HN Information Systems Inc.
as a contribution to computer science knowledge.
This donation is made also to give evidence of the common contributions of Massachusetts Institute of Technology,
Bell Laboratories, General Electric, Honeywell Information Systems Inc., Honeywell BULL Inc., Groupe BULL
and BULL HN Information Systems Inc. to the development of this operating system.
Multics development was initiated by Massachusetts Institute of Technology Project MAC (1963-1970),
renamed the MIT Laboratory for Computer Science and Artificial Intelligence in the mid 1970s, under the leadership
of Professor Fernando Jose Corbato. Users consider that Multics provided the best software architecture
for managing computer hardware properly and for executing programs. Many subsequent operating systems
incorporated Multics principles.
Multics was distributed in 1975 to 2000 by Group Bull in Europe , and in the U.S. by Bull HN Information Systems Inc.,
as successor in interest by change in name only to Honeywell Bull Inc. and Honeywell Information Systems Inc. .

                                          -----------------------------------------------------------

Permission to use, copy, modify, and distribute these programs and their documentation for any purpose and without
fee is hereby granted,provided that the below copyright notice and historical background appear in all copies
and that both the copyright notice and historical background and this permission notice appear in supporting
documentation, and that the names of MIT, HIS, BULL or BULL HN not be used in advertising or publicity pertaining
to distribution of the programs without specific prior written permission.
    Copyright 1972 by Massachusetts Institute of Technology and Honeywell Information Systems Inc.
    Copyright 2006 by BULL HN Information Systems Inc.
    Copyright 2006 by Bull SAS
    All Rights Reserved
