	COMPILATION LISTING OF SEGMENT cobol_read_rand
	Compiled by: Multics PL/I Compiler, Release 31b, of April 24, 1989
	Compiled at: Bull HN, Phoenix AZ, System-M
	Compiled on: 05/24/89  0958.0 mst Wed
	    Options: optimize map

        1 /****^  ***********************************************************
        2*        *                                                         *
        3*        * Copyright, (C) BULL HN Information Systems Inc., 1989   *
        4*        *                                                         *
        5*        * Copyright, (C) Honeywell Information Systems Inc., 1982 *
        6*        *                                                         *
        7*        * Copyright (c) 1972 by Massachusetts Institute of        *
        8*        * Technology and Honeywell Information Systems, Inc.      *
        9*        *                                                         *
       10*        *********************************************************** */
       11
       12
       13
       14
       15 /****^  HISTORY COMMENTS:
       16*  1) change(89-04-23,Zimmerman), approve(89-04-23,MCR8060),
       17*     audit(89-05-05,RWaters), install(89-05-24,MR12.3-1048):
       18*     MCR8060 cobol_read_rand.pl1 Reformatted code to new Cobol standard.
       19*                                                   END HISTORY COMMENTS */
       20
       21
       22 /* Modified on 01/14/77 by ORN for new name_table handling */
       23 /* Modified since Version 2.0 */
       24
       25 /*{*/
       26 /* format: style3 */
       27 cobol_read_rand:
       28 cobol_read_rand_:
       29      proc (file_id, rec_id, file_ptr);
       30
       31 	arec_id = rec_id;
       32 	goto start;
       33
       34 fixed_bin:
       35      entry (file_id, fb_rec_id, file_ptr);
       36
       37 	brec_id = fb_rec_id;
       38
       39 dcl	fb_rec_id		fixed bin;
       40 dcl	file_id		fixed bin;
       41 dcl	rec_id		char (5);
       42 dcl	file_ptr		ptr;
       43
       44 /*
       45*file_id		identifies the direct access file as
       46*		follows:
       47*		1	variable common
       48*		2	name table
       49*		3	name table buffer
       50*		(input).
       51*
       52*rec_id,fb_rec_id	identifies the record within the specified
       53*		direct access file (input).
       54*
       55*file_ptr		points to the record (output).
       56*}*/
       57
       58
       59 dcl	arec_id		char (5) aligned;
       60 dcl	brec_id		fixed bin based (addr (arec_id));
       61
       62 dcl	inptr		ptr;
       63
       64 /*************************************/
       65 start:
       66 	if file_id = 3 | file_id = 2
       67 	then do;
       68 		inptr = cobol_ext_$cobol_ntfp;
       69 		file_ptr = pointer (inptr, brec_id);
       70 	     end;
       71 	else do;
       72 		inptr = cobol_ext_$cobol_cmfp;
       73 		file_ptr = pointer (inptr, brec_id + 1);
       74 	     end;
       75 	return;
       76
       77
       78 /*************************************/
       79
       80 /*****	Declaration for builtin function	*****/
       81
       82 dcl	(substr, mod, binary, fixed, addr, addrel, rel, length, string, unspec, null, index, pointer)
       83 			builtin;
       84
       85 /*****	End of declaration for builtin function	*****/
       86
  1     1
  1     2 /* BEGIN INCLUDE FILE ... cobol_ext_.incl.pl1 */
  1     3 /* Last modified on 06/17/76 by ORN */
  1     4 /* Last modified on 12/28/76 by FCH */
  1     5 /* Last modified on 12/01/80 by FCH */
  1     6
  1     7 /*    <<<   SHARED EXTERNALS INCLUDE FILE   >>>    */
  1     8
  1     9
  1    10 dcl     cobol_ext_$cobol_afp ptr ext;
  1    11 dcl     cobol_afp ptr defined (  cobol_ext_$cobol_afp);
  1    12 dcl     cobol_ext_$cobol_analin_fileno ptr ext;
  1    13 dcl     cobol_analin_fileno ptr defined (  cobol_ext_$cobol_analin_fileno);
  1    14 dcl     cobol_ext_$report_first_token ptr ext;
  1    15 dcl     report_first_token ptr defined( cobol_ext_$report_first_token);
  1    16 dcl     cobol_ext_$report_last_token ptr ext;
  1    17 dcl     report_last_token ptr defined ( cobol_ext_$report_last_token);
  1    18 dcl     cobol_ext_$cobol_eltp ptr ext;
  1    19 dcl     cobol_eltp ptr defined (  cobol_ext_$cobol_eltp);
  1    20 dcl     cobol_ext_$cobol_cmfp ptr ext;
  1    21 dcl     cobol_cmfp ptr defined (  cobol_ext_$cobol_cmfp);
  1    22 dcl     cobol_ext_$cobol_com_fileno ptr ext;
  1    23 dcl     cobol_com_fileno ptr defined (  cobol_ext_$cobol_com_fileno);
  1    24 dcl     cobol_ext_$cobol_com_ptr ptr ext;
  1    25 dcl     cobol_com_ptr ptr defined (  cobol_ext_$cobol_com_ptr);
  1    26 dcl     cobol_ext_$cobol_dfp ptr ext;
  1    27 dcl     cobol_dfp ptr defined (  cobol_ext_$cobol_dfp);
  1    28 dcl     cobol_ext_$cobol_hfp ptr ext;
  1    29 dcl     cobol_hfp ptr defined (  cobol_ext_$cobol_hfp);
  1    30 dcl     cobol_ext_$cobol_m1fp ptr ext;
  1    31 dcl     cobol_m1fp ptr defined (  cobol_ext_$cobol_m1fp);
  1    32 dcl     cobol_ext_$cobol_m2fp ptr ext;
  1    33 dcl     cobol_m2fp ptr defined (  cobol_ext_$cobol_m2fp);
  1    34 dcl     cobol_ext_$cobol_min1_fileno ptr ext;
  1    35 dcl     cobol_min1_fileno ptr defined (  cobol_ext_$cobol_min1_fileno);
  1    36 dcl     cobol_ext_$cobol_min2_fileno_ptr ptr ext;
  1    37 dcl     cobol_min2_fileno_ptr ptr defined (  cobol_ext_$cobol_min2_fileno_ptr);
  1    38 dcl     cobol_ext_$cobol_name_fileno ptr ext;
  1    39 dcl     cobol_name_fileno ptr defined (  cobol_ext_$cobol_name_fileno);
  1    40 dcl     cobol_ext_$cobol_name_fileno_ptr ptr ext;
  1    41 dcl     cobol_name_fileno_ptr ptr defined (  cobol_ext_$cobol_name_fileno_ptr);
  1    42 dcl     cobol_ext_$cobol_ntfp ptr ext;
  1    43 dcl     cobol_ntfp ptr defined (  cobol_ext_$cobol_ntfp);
  1    44 dcl     cobol_ext_$cobol_pdofp ptr ext;
  1    45 dcl     cobol_pdofp ptr defined (  cobol_ext_$cobol_pdofp);
  1    46 dcl     cobol_ext_$cobol_pfp ptr ext;
  1    47 dcl     cobol_pfp ptr defined (  cobol_ext_$cobol_pfp);
  1    48 dcl     cobol_ext_$cobol_rm2fp ptr ext;
  1    49 dcl     cobol_rm2fp ptr defined (  cobol_ext_$cobol_rm2fp);
  1    50 dcl     cobol_ext_$cobol_rmin2fp ptr ext;
  1    51 dcl     cobol_rmin2fp ptr defined (  cobol_ext_$cobol_rmin2fp);
  1    52 dcl     cobol_ext_$cobol_curr_in ptr ext;
  1    53 dcl     cobol_curr_in ptr defined (  cobol_ext_$cobol_curr_in);
  1    54 dcl     cobol_ext_$cobol_curr_out ptr ext;
  1    55 dcl     cobol_curr_out ptr defined (  cobol_ext_$cobol_curr_out);
  1    56 dcl     cobol_ext_$cobol_sfp ptr ext;
  1    57 dcl     cobol_sfp ptr defined (  cobol_ext_$cobol_sfp);
  1    58 dcl     cobol_ext_$cobol_w1p ptr ext;
  1    59 dcl     cobol_w1p ptr defined (  cobol_ext_$cobol_w1p);
  1    60 dcl     cobol_ext_$cobol_w2p ptr ext;
  1    61 dcl     cobol_w2p ptr defined (  cobol_ext_$cobol_w2p);
  1    62 dcl     cobol_ext_$cobol_w3p ptr ext;
  1    63 dcl     cobol_w3p ptr defined (  cobol_ext_$cobol_w3p);
  1    64 dcl     cobol_ext_$cobol_w5p ptr ext;
  1    65 dcl     cobol_w5p ptr defined (  cobol_ext_$cobol_w5p);
  1    66 dcl     cobol_ext_$cobol_w6p ptr ext;
  1    67 dcl     cobol_w6p ptr defined (  cobol_ext_$cobol_w6p);
  1    68 dcl     cobol_ext_$cobol_w7p ptr ext;
  1    69 dcl     cobol_w7p ptr defined (  cobol_ext_$cobol_w7p);
  1    70 dcl     cobol_ext_$cobol_x3fp ptr ext;
  1    71 dcl     cobol_x3fp ptr defined (  cobol_ext_$cobol_x3fp);
  1    72 dcl	cobol_ext_$cobol_rwdd ptr ext;
  1    73 dcl	cobol_rwdd ptr defined(cobol_ext_$cobol_rwdd);
  1    74 dcl	cobol_ext_$cobol_rwpd ptr ext;
  1    75 dcl	cobol_rwpd ptr defined(cobol_ext_$cobol_rwpd);
  1    76
  1    77
  1    78 dcl     cobol_ext_$cobol_fileno1 fixed bin(24)ext;
  1    79 dcl     cobol_fileno1 fixed bin(24)defined (  cobol_ext_$cobol_fileno1);
  1    80 dcl     cobol_ext_$cobol_options_len fixed bin(24)ext;
  1    81 dcl     cobol_options_len fixed bin(24)defined (  cobol_ext_$cobol_options_len);
  1    82 dcl     cobol_ext_$cobol_pdout_fileno fixed bin(24)ext;
  1    83 dcl     cobol_pdout_fileno fixed bin(24)defined (  cobol_ext_$cobol_pdout_fileno);
  1    84 dcl     cobol_ext_$cobol_print_fileno fixed bin(24)ext;
  1    85 dcl     cobol_print_fileno fixed bin(24)defined (  cobol_ext_$cobol_print_fileno);
  1    86 dcl     cobol_ext_$cobol_rmin2_fileno fixed bin(24)ext;
  1    87 dcl     cobol_rmin2_fileno fixed bin(24)defined (  cobol_ext_$cobol_rmin2_fileno);
  1    88 dcl     cobol_ext_$cobol_x1_fileno fixed bin(24)ext;
  1    89 dcl     cobol_x1_fileno fixed bin(24)defined (  cobol_ext_$cobol_x1_fileno);
  1    90 dcl     cobol_ext_$cobol_x2_fileno fixed bin(24)ext;
  1    91 dcl     cobol_x2_fileno fixed bin(24)defined (  cobol_ext_$cobol_x2_fileno);
  1    92 dcl     cobol_ext_$cobol_x3_fileno fixed bin(24)ext;
  1    93 dcl     cobol_x3_fileno fixed bin(24)defined (  cobol_ext_$cobol_x3_fileno);
  1    94
  1    95 dcl     cobol_ext_$cobol_lpr char (5) ext;
  1    96 dcl     cobol_lpr char (5) defined (  cobol_ext_$cobol_lpr);				/* -2- */
  1    97 dcl     cobol_ext_$cobol_options char (120) ext;
  1    98 dcl     cobol_options char (120) defined (  cobol_ext_$cobol_options);          			/* -30- */
  1    99
  1   100 dcl     cobol_ext_$cobol_xlast8 bit (1) ext;
  1   101 dcl     cobol_xlast8 bit (1) defined (  cobol_ext_$cobol_xlast8);				/* -1- */
  1   102 dcl     cobol_ext_$report_exists bit (1) ext;
  1   103 dcl     report_exists bit (1) defined (  cobol_ext_$report_exists);
  1   104
  1   105
  1   106 /*    <<<   END OF SHARED EXTERNALS INCLUDE FILE   >>>    */
  1   107 /* END INCLUDE FILE ... cobol_ext_.incl.pl1 */
  1   108
       87
       88      end cobol_read_rand;
	SOURCE FILES USED IN THIS COMPILATION.

LINE      NUMBER  DATE MODIFIED     NAME			PATHNAME
             0    05/24/89  0832.7  cobol_read_rand.pl1               >spec>install>MR12.3-1048>cobol_read_rand.pl1
87           1    03/27/82  0431.3  cobol_ext_.incl.pl1               >ldd>include>cobol_ext_.incl.pl1
	NAMES DECLARED IN THIS COMPILATION.

IDENTIFIER	     OFFSET    LOC STORAGE CLASS   DATA TYPE		ATTRIBUTES AND REFERENCES
								(* indicates a set context)

NAMES DECLARED BY DECLARE STATEMENT.
addr                                                   builtin function         dcl 82 ref 37 69 73
arec_id                         000100 automatic       char(5)                  dcl 59 set ref 31* 37 69 73
brec_id                                based           fixed bin(17,0)          dcl 60 set ref 37* 69 73
cobol_ext_$cobol_cmfp           000010 external static pointer                  dcl 1-20 ref 72
cobol_ext_$cobol_ntfp           000012 external static pointer                  dcl 1-42 ref 68
fb_rec_id                              parameter       fixed bin(17,0)          dcl 39 ref 34 37
file_id                                parameter       fixed bin(17,0)          dcl 40 ref 27 27 34 65 65
file_ptr                               parameter       pointer                  dcl 42 set ref 27 27 34 69* 73*
inptr                           000102 automatic       pointer                  dcl 62 set ref 68* 69 72* 73
pointer                                                builtin function         dcl 82 ref 69 73
rec_id                                 parameter       char(5)                  packed unaligned dcl 41 ref 27 27 31

NAMES DECLARED BY DECLARE STATEMENT AND NEVER REFERENCED.
addrel                                                 builtin function         dcl 82
binary                                                 builtin function         dcl 82
cobol_afp                              defined         pointer                  dcl 1-11
cobol_analin_fileno                    defined         pointer                  dcl 1-13
cobol_cmfp                             defined         pointer                  dcl 1-21
cobol_com_fileno                       defined         pointer                  dcl 1-23
cobol_com_ptr                          defined         pointer                  dcl 1-25
cobol_curr_in                          defined         pointer                  dcl 1-53
cobol_curr_out                         defined         pointer                  dcl 1-55
cobol_dfp                              defined         pointer                  dcl 1-27
cobol_eltp                             defined         pointer                  dcl 1-19
cobol_ext_$cobol_afp                   external static pointer                  dcl 1-10
cobol_ext_$cobol_analin_fileno         external static pointer                  dcl 1-12
cobol_ext_$cobol_com_fileno            external static pointer                  dcl 1-22
cobol_ext_$cobol_com_ptr               external static pointer                  dcl 1-24
cobol_ext_$cobol_curr_in               external static pointer                  dcl 1-52
cobol_ext_$cobol_curr_out              external static pointer                  dcl 1-54
cobol_ext_$cobol_dfp                   external static pointer                  dcl 1-26
cobol_ext_$cobol_eltp                  external static pointer                  dcl 1-18
cobol_ext_$cobol_fileno1               external static fixed bin(24,0)          dcl 1-78
cobol_ext_$cobol_hfp                   external static pointer                  dcl 1-28
cobol_ext_$cobol_lpr                   external static char(5)                  packed unaligned dcl 1-95
cobol_ext_$cobol_m1fp                  external static pointer                  dcl 1-30
cobol_ext_$cobol_m2fp                  external static pointer                  dcl 1-32
cobol_ext_$cobol_min1_fileno           external static pointer                  dcl 1-34
cobol_ext_$cobol_min2_fileno_ptr       external static pointer                  dcl 1-36
cobol_ext_$cobol_name_fileno           external static pointer                  dcl 1-38
cobol_ext_$cobol_name_fileno_ptr       external static pointer                  dcl 1-40
cobol_ext_$cobol_options               external static char(120)                packed unaligned dcl 1-97
cobol_ext_$cobol_options_len           external static fixed bin(24,0)          dcl 1-80
cobol_ext_$cobol_pdofp                 external static pointer                  dcl 1-44
cobol_ext_$cobol_pdout_fileno          external static fixed bin(24,0)          dcl 1-82
cobol_ext_$cobol_pfp                   external static pointer                  dcl 1-46
cobol_ext_$cobol_print_fileno          external static fixed bin(24,0)          dcl 1-84
cobol_ext_$cobol_rm2fp                 external static pointer                  dcl 1-48
cobol_ext_$cobol_rmin2_fileno          external static fixed bin(24,0)          dcl 1-86
cobol_ext_$cobol_rmin2fp               external static pointer                  dcl 1-50
cobol_ext_$cobol_rwdd                  external static pointer                  dcl 1-72
cobol_ext_$cobol_rwpd                  external static pointer                  dcl 1-74
cobol_ext_$cobol_sfp                   external static pointer                  dcl 1-56
cobol_ext_$cobol_w1p                   external static pointer                  dcl 1-58
cobol_ext_$cobol_w2p                   external static pointer                  dcl 1-60
cobol_ext_$cobol_w3p                   external static pointer                  dcl 1-62
cobol_ext_$cobol_w5p                   external static pointer                  dcl 1-64
cobol_ext_$cobol_w6p                   external static pointer                  dcl 1-66
cobol_ext_$cobol_w7p                   external static pointer                  dcl 1-68
cobol_ext_$cobol_x1_fileno             external static fixed bin(24,0)          dcl 1-88
cobol_ext_$cobol_x2_fileno             external static fixed bin(24,0)          dcl 1-90
cobol_ext_$cobol_x3_fileno             external static fixed bin(24,0)          dcl 1-92
cobol_ext_$cobol_x3fp                  external static pointer                  dcl 1-70
cobol_ext_$cobol_xlast8                external static bit(1)                   packed unaligned dcl 1-100
cobol_ext_$report_exists               external static bit(1)                   packed unaligned dcl 1-102
cobol_ext_$report_first_token          external static pointer                  dcl 1-14
cobol_ext_$report_last_token           external static pointer                  dcl 1-16
cobol_fileno1                          defined         fixed bin(24,0)          dcl 1-79
cobol_hfp                              defined         pointer                  dcl 1-29
cobol_lpr                              defined         char(5)                  packed unaligned dcl 1-96
cobol_m1fp                             defined         pointer                  dcl 1-31
cobol_m2fp                             defined         pointer                  dcl 1-33
cobol_min1_fileno                      defined         pointer                  dcl 1-35
cobol_min2_fileno_ptr                  defined         pointer                  dcl 1-37
cobol_name_fileno                      defined         pointer                  dcl 1-39
cobol_name_fileno_ptr                  defined         pointer                  dcl 1-41
cobol_ntfp                             defined         pointer                  dcl 1-43
cobol_options                          defined         char(120)                packed unaligned dcl 1-98
cobol_options_len                      defined         fixed bin(24,0)          dcl 1-81
cobol_pdofp                            defined         pointer                  dcl 1-45
cobol_pdout_fileno                     defined         fixed bin(24,0)          dcl 1-83
cobol_pfp                              defined         pointer                  dcl 1-47
cobol_print_fileno                     defined         fixed bin(24,0)          dcl 1-85
cobol_rm2fp                            defined         pointer                  dcl 1-49
cobol_rmin2_fileno                     defined         fixed bin(24,0)          dcl 1-87
cobol_rmin2fp                          defined         pointer                  dcl 1-51
cobol_rwdd                             defined         pointer                  dcl 1-73
cobol_rwpd                             defined         pointer                  dcl 1-75
cobol_sfp                              defined         pointer                  dcl 1-57
cobol_w1p                              defined         pointer                  dcl 1-59
cobol_w2p                              defined         pointer                  dcl 1-61
cobol_w3p                              defined         pointer                  dcl 1-63
cobol_w5p                              defined         pointer                  dcl 1-65
cobol_w6p                              defined         pointer                  dcl 1-67
cobol_w7p                              defined         pointer                  dcl 1-69
cobol_x1_fileno                        defined         fixed bin(24,0)          dcl 1-89
cobol_x2_fileno                        defined         fixed bin(24,0)          dcl 1-91
cobol_x3_fileno                        defined         fixed bin(24,0)          dcl 1-93
cobol_x3fp                             defined         pointer                  dcl 1-71
cobol_xlast8                           defined         bit(1)                   packed unaligned dcl 1-101
fixed                                                  builtin function         dcl 82
index                                                  builtin function         dcl 82
length                                                 builtin function         dcl 82
mod                                                    builtin function         dcl 82
null                                                   builtin function         dcl 82
rel                                                    builtin function         dcl 82
report_exists                          defined         bit(1)                   packed unaligned dcl 1-103
report_first_token                     defined         pointer                  dcl 1-15
report_last_token                      defined         pointer                  dcl 1-17
string                                                 builtin function         dcl 82
substr                                                 builtin function         dcl 82
unspec                                                 builtin function         dcl 82

NAMES DECLARED BY EXPLICIT CONTEXT.
cobol_read_rand                 000017 constant        entry                    external dcl 27
cobol_read_rand_                000007 constant        entry                    external dcl 27
fixed_bin                       000037 constant        entry                    external dcl 34
start                           000047 constant        label                    dcl 65 ref 32

THERE WERE NO NAMES DECLARED BY CONTEXT OR IMPLICATION.

STORAGE REQUIREMENTS FOR THIS PROGRAM.

	Object	Text	Link	Symbol	Defs	Static
Start          0       0       162         176      77         172
Length       366      77        14         153      62           0

BLOCK NAME	         STACK SIZE     TYPE		WHY NONQUICK/WHO SHARES STACK FRAME
cobol_read_rand_                     68 external procedure  is an external procedure.

STORAGE FOR AUTOMATIC VARIABLES.

STACK FRAME                 LOC IDENTIFIER                  BLOCK NAME
cobol_read_rand_         000100 arec_id                     cobol_read_rand_
                         000102 inptr                       cobol_read_rand_

THE FOLLOWING EXTERNAL OPERATORS ARE USED BY THIS PROGRAM.
return_mac          ext_entry

NO EXTERNAL ENTRIES ARE CALLED BY THIS PROGRAM.

THE FOLLOWING EXTERNAL VARIABLES ARE USED BY THIS PROGRAM.
cobol_ext_$cobol_cmfp         cobol_ext_$cobol_ntfp


   LINE    LOC      LINE    LOC      LINE    LOC      LINE    LOC      LINE    LOC      LINE    LOC      LINE    LOC
     27 000003        31 000024        32 000032        34 000033        37 000044        65 000047        68 000054
     69 000060        70 000064        72 000065        73 000071        75 000076


                                          -----------------------------------------------------------


Historical Background

This edition of the Multics software materials and documentation is provided and donated
to Massachusetts Institute of Technology by Group BULL including BULL HN Information Systems Inc.
as a contribution to computer science knowledge.
This donation is made also to give evidence of the common contributions of Massachusetts Institute of Technology,
Bell Laboratories, General Electric, Honeywell Information Systems Inc., Honeywell BULL Inc., Groupe BULL
and BULL HN Information Systems Inc. to the development of this operating system.
Multics development was initiated by Massachusetts Institute of Technology Project MAC (1963-1970),
renamed the MIT Laboratory for Computer Science and Artificial Intelligence in the mid 1970s, under the leadership
of Professor Fernando Jose Corbato. Users consider that Multics provided the best software architecture
for managing computer hardware properly and for executing programs. Many subsequent operating systems
incorporated Multics principles.
Multics was distributed in 1975 to 2000 by Group Bull in Europe , and in the U.S. by Bull HN Information Systems Inc.,
as successor in interest by change in name only to Honeywell Bull Inc. and Honeywell Information Systems Inc. .

                                          -----------------------------------------------------------

Permission to use, copy, modify, and distribute these programs and their documentation for any purpose and without
fee is hereby granted,provided that the below copyright notice and historical background appear in all copies
and that both the copyright notice and historical background and this permission notice appear in supporting
documentation, and that the names of MIT, HIS, BULL or BULL HN not be used in advertising or publicity pertaining
to distribution of the programs without specific prior written permission.
    Copyright 1972 by Massachusetts Institute of Technology and Honeywell Information Systems Inc.
    Copyright 2006 by BULL HN Information Systems Inc.
    Copyright 2006 by Bull SAS
    All Rights Reserved
