	COMPILATION LISTING OF SEGMENT cobol_def_util
	Compiled by: Multics PL/I Compiler, Release 31b, of April 24, 1989
	Compiled at: Bull HN, Phoenix AZ, System-M
	Compiled on: 05/24/89  0936.0 mst Wed
	    Options: optimize map

        1 /****^  ***********************************************************
        2*        *                                                         *
        3*        * Copyright, (C) BULL HN Information Systems Inc., 1989   *
        4*        *                                                         *
        5*        * Copyright, (C) Honeywell Information Systems Inc., 1982 *
        6*        *                                                         *
        7*        * Copyright (c) 1972 by Massachusetts Institute of        *
        8*        * Technology and Honeywell Information Systems, Inc.      *
        9*        *                                                         *
       10*        *********************************************************** */
       11
       12
       13
       14
       15 /****^  HISTORY COMMENTS:
       16*  1) change(89-04-23,Zimmerman), approve(89-04-23,MCR8060),
       17*     audit(89-05-05,RWaters), install(89-05-24,MR12.3-1048):
       18*     MCR8060 cobol_def_util.pl1 Reformatted code to new Cobol standard.
       19*                                                   END HISTORY COMMENTS */
       20
       21
       22 /* Modified on 01/22/82 by FCH, [5.1-1], cobol_arg_descriptor$type9 called with wrong number of args */
       23 /* Modified since Version 5.1 */
       24
       25
       26
       27
       28 /* format: style3 */
       29 cobol_def_util:
       30      proc (n_args, object_name, object_name_len, text_ptr, flag, descriptor_ptr, in_token_ptr);
       31
       32
       33
       34
       35 	parm_desc_ptr = addr (work_spaces);
       36
       37 	if n_args > 127
       38 	then do;
       39
       40 opd_of:
       41 		call signal_ ("command_abort_", null, addr (oprnd_ovfl));
       42 		goto opd_of;
       43 	     end;
       44
       45 	class0_def_len = binary (substr (unspec (n_args), 18, 18)) + 4;
       46
       47 	if substr (object_name, 1, 32) = cobol_$obj_seg_name
       48 	then do;
       49 		ep_acc_wd_len = 0;
       50 		ep_acc_relp = 13;
       51 	     end;
       52 	else do;
       53 		ep_acc_wd_len = binary (substr (unspec (object_name_len), 17, 18)) + 1;
       54 		ep_acc_relp = cobol_$def_wd_off + class0_def_len;
       55 	     end;
       56
       57
       58 /* Enter cobol_$def_wd_off in entry code sequence before updating */
       59
       60 	def_ptr = addrel (cobol_$def_base_ptr, def_list_relp);
       61 	temp_ptr = addrel (cobol_$def_base_ptr, definition.forward_thread);
       62
       63 	do while (temp_ptr -> a_word ^= 0);
       64
       65 	     temp_thread = definition.forward_thread;
       66 	     def_ptr = temp_ptr;
       67 	     temp_ptr = addrel (cobol_$def_base_ptr, definition.forward_thread);
       68 	end;
       69
       70 	if definition.forward_thread ^= "000000000000000010"b
       71 	then do while (definition.forward_thread ^= "000000000000000010"b);
       72
       73 		temp_thread = definition.forward_thread;
       74 		def_ptr = addrel (cobol_$def_base_ptr, definition.forward_thread);
       75 	     end;
       76
       77 	definition.forward_thread = substr (unspec (def_wd_off), 19, 18);
       78 	def_ptr = addrel (cobol_$def_base_ptr, cobol_$def_wd_off);
       79 	entry_seq.def_relp = substr (unspec (cobol_$def_wd_off), 19, 18);
       80
       81 	cobol_$def_wd_off = cobol_$def_wd_off + class0_def_len + ep_acc_wd_len;
       82
       83 def_error_loop:
       84 	if cobol_$def_wd_off > cobol_$def_max
       85 	then do;
       86 		call signal_ ("command_abort_", null, addr (def_ovfl_error));
       87 		goto def_error_loop;
       88 	     end;
       89
       90 	definition.forward_thread = "000000000000000010"b;
       91 	definition.backward_thread = temp_thread;
       92
       93 	temp = cobol_$text_wd_off + 2;
       94
       95 	definition.value = substr (unspec (temp), 19, 18);
       96 	string (definition.flags) = "101100000000000"b;
       97 	string (entry_seq.flags) = "010000000000000000"b;
       98 	definition.class = "000"b;
       99 	definition.symbol_relp = substr (unspec (ep_acc_relp), 19, 18);
      100 	definition.segname_relp = "000000000000000011"b;
      101
      102 	call cobol_reloc (addr (reloc_cl0_def_fixed), 6, 3003);
      103
      104 	if n_args ^= 0 & fixed_common.descriptor ^= "00"b
      105 	then do;
      106
      107 		parm_desc.n_args = n_args;
      108 		entry_seq.flags.has_descriptors = "1"b;
      109 		arg_reloc_code (0) = "00000"b;
      110
      111 		do i = 1 to n_args;
      112
      113 		     if flag = 0
      114 		     then substr (arg_desc_off, 1, 18) = substr (desc_off (i), 19, 18);
      115 						/*[5.1.1]*/
      116 		     else call cobol_arg_descriptor$type9 (in_token.token_ptr (i + 1), arg_desc_off, LOC);
      117
      118 		     parm_desc.descriptor_relp (i) = substr (arg_desc_off, 1, 18);
      119 		     arg_reloc_code (i) = "10000"b;
      120 		end;
      121
      122 		call cobol_reloc (addr (arg_reloc_code (0)), n_args + 1, 3003);
      123
      124 		temp = 2 + 2 * n_args;
      125 		call cobol_pool (substr (work_spaces, 1, temp), 2, temp1);
      126
      127 		temp1 = -temp1;
      128 		entry_seq.descr_relp_offset = substr (unspec (temp1), 19, 18);
      129
      130 	     end;
      131
      132 	if ep_acc_wd_len ^= 0
      133 	then do;
      134 		def_ptr = addrel (def_ptr, class0_def_len);
      135 		acc.length_of_string = object_name_len;
      136 		acc.string = substr (object_name, 1, object_name_len);
      137
      138 		call cobol_reloc (null, ep_acc_wd_len + ep_acc_wd_len, 3003);
      139
      140 	     end;
      141
      142 	if flag = 1
      143 	then do;
      144
      145 		entry_seq.eax7 = "000000000000000000110010111000000000"b;
      146 		entry_seq.epp2 = "111000000000101000011101010001010000"b;
      147 		entry_seq.tsp2 = "010000000000000110010111010001010000"b;
      148
      149 	     end;
      150
      151 	return;
      152
      153
      154 dcl	n_args		fixed bin,		/* No of operands in USING phrase*/
      155 	flag		fixed bin,		/* initialization for eax7 etc.
      156*		If flag = 1 : eax7 etx and descriptor offset are set here.
      157*		Else eax7 not set and descriptor offset passed from descriptor_ptr. */
      158 	descriptor_ptr	ptr,
      159 	desc_off		(n_args) bit (36) based (descriptor_ptr),
      160 	object_name	char (32),
      161 	object_name_len	fixed bin,
      162 	LOC		fixed bin,
      163 	arg_reloc_code	(0:256) bit (5) aligned,	/* Relocation code for class-0   */
      164 	class0_def_len	fixed bin,		/* Length of class-0 definition  */
      165 	ep_acc_wd_len	fixed bin,		/* Length in words of acc string */
      166 	ep_acc_relp	fixed bin,		/* Offset, relative to base of   */
      167 	arg_desc_off	bit (36),			/* Offset of argument descriptor */
      168 	i		fixed bin,		/* Do loop index	   */
      169 	offset		fixed bin,		/* Offset as returned by various */
      170 	n_con		fixed bin,		/* No of conditions	   */
      171 	n_off		fixed bin,		/* Offset of 1st wd of stack     */
      172 	name		(2) char (32),		/* Array of condition  names	   */
      173 	ln_nm		(2) fixed bin,		/* Array of condition name lngths*/
      174 	temp_ptr		ptr,			/* Temporary pointer used in	   */
      175 	temp_thread	bit (18),
      176 	work_spaces	char (256) static init (" "),
      177 	temp		fixed bin,
      178 	temp1		fixed bin,
      179 	a_word		fixed bin based;		/* A word used in creating	   */
      180
      181 /* acc string definition   */
      182
      183 dcl	1 acc		aligned based (def_ptr),
      184 	  2 length_of_string
      185 			fixed bin (8) unaligned,
      186 	  2 string	char (0 refer (acc.length_of_string)) unaligned;
      187
      188 /* Relocation information for fixed part of Class-0 definition */
      189 /* for program's entry point   */
      190
      191 dcl	reloc_cl0_def_fixed (6) bit (5) aligned static
      192 			init ("10101"b, "10101"b, "10000"b, "00000"b, "10101"b, "10101"b);
      193
      194 /*	procedure called.	*/
      195
      196 dcl	cobol_arg_descriptor$type9
      197 			entry (ptr, bit (36), fixed bin),
      198 	cobol_pool	entry (char (*), fixed bin, fixed bin),
      199 	cobol_reloc	entry (ptr, fixed bin, fixed bin),
      200 	signal_		entry (char (*), ptr, ptr);
      201
      202 dcl	1 def_ovfl_error	aligned static,
      203 	  2 my_name	char (32) init ("cobol_def_util"),
      204 	  2 message_len	fixed bin init (35),
      205 	  2 message	char (35) init ("Definition Section length exceeded!");
      206
      207 declare	1 oprnd_ovfl	static aligned,
      208 	  2 gen_name	char (32) init ("cobol_def_util"),
      209 	  2 message_len	fixed bin aligned init (26),
      210 	  2 message	char (26) aligned init ("USING operands exceed 127!");
      211
      212
      213
      214 /*****	Declaration for builtin function	*****/
      215
      216 dcl	(substr, mod, binary, fixed, addr, addrel, rel, length, string, unspec, null, index)
      217 			builtin;
      218
      219 /*****	End of declaration for builtin function	*****/
      220
  1     1
  1     2 /*  BEGIN INCLUDE FILE ...   cobol_entry_seq.incl.pl1		  */
  1     3 /*  Created May 22, 1976 by BC.		*/
  1     4
  1     5 declare	parm_desc_ptr	ptr;
  1     6
  1     7 declare	1 parm_desc	aligned based(parm_desc_ptr),
  1     8 	 2 n_args	fixed bin unaligned,
  1     9 	 2 descriptor_relp	(0 refer(parm_desc.n_args)) bit(18) unaligned;
  1    10
  1    11
  1    12 dcl	text_ptr	ptr;
  1    13
  1    14 dcl	1 entry_seq aligned based(text_ptr),
  1    15 	 2 descr_relp_offset bit(18) unaligned,
  1    16 	 2 reserved bit(18) unaligned,
  1    17 	 2 def_relp bit(18) unaligned,			/* set to offset of definition section */
  1    18 	 2 flags	unaligned,
  1    19 	   3 basic_indicator	bit(1) unaligned,
  1    20 	   3 revision_1		bit(1) unaligned,
  1    21 	   3 has_descriptors	bit(1) unaligned,
  1    22 	   3 variable		bit(1) unaligned,
  1    23 	   3 function		bit(1) unaligned,
  1    24 	   3 pad			bit(13) unaligned,
  1    25 	 2 eax7 bit(36) aligned,			/* addr field set to max stack size mod 16 */
  1    26 	 2 epp2 bit(36) aligned,				/* preset */
  1    27 	 2 tsp2 bit(36) aligned,				/* preset */
  1    28 	 2 zero_fill	bit(18) unaligned,			/* preset */
  1    29 	 2 trace_cntrl_relp bit(18) unaligned,		/* set to 6 + length of internal static (32) */
  1    30 	 2 link_relp	bit(18) unaligned,
  1    31 	 2 block_relp	bit(18) unaligned;
  1    32
  1    33
  1    34 /*  END INCLUDE FILE ...   cobol_entry_seq.incl.pl1		  */
  1    35
      221
      222
  2     1
  2     2 /*  BEGIN INCLUDE FILE ...   cobol_in_token.incl.pl1		  */
  2     3
  2     4 /*  Last modified August 22, 1974 by AEG		  */
  2     5
  2     6
  2     7 declare in_token_ptr ptr;
  2     8
  2     9 declare 1 in_token aligned based(in_token_ptr),
  2    10 	2 n fixed bin aligned,
  2    11 	2 code fixed bin aligned,
  2    12 	2 token_ptr(0 refer(in_token.n)) ptr aligned;
  2    13
  2    14
  2    15 /*  END INCLUDE FILE ...   cobol_in_token.incl.pl1		  */
  2    16
      223
  3     1
  3     2 /* BEGIN INCLUDE FILE ... cobol_.incl.pl1 */
  3     3 /* last modified Feb 4, 1977 by ORN  */
  3     4
  3     5 /* This file defines all external data used in the generator phase of Multics Cobol */
  3     6
  3     7 /* POINTERS */
  3     8 dcl cobol_$text_base_ptr ptr  ext;
  3     9 dcl text_base_ptr ptr  defined (cobol_$text_base_ptr);
  3    10 dcl cobol_$con_end_ptr ptr  ext;
  3    11 dcl con_end_ptr ptr  defined (cobol_$con_end_ptr);
  3    12 dcl cobol_$def_base_ptr ptr  ext;
  3    13 dcl def_base_ptr ptr  defined (cobol_$def_base_ptr);
  3    14 dcl cobol_$link_base_ptr ptr  ext;
  3    15 dcl link_base_ptr ptr  defined (cobol_$link_base_ptr);
  3    16 dcl cobol_$sym_base_ptr ptr  ext;
  3    17 dcl sym_base_ptr ptr  defined (cobol_$sym_base_ptr);
  3    18 dcl cobol_$reloc_text_base_ptr ptr  ext;
  3    19 dcl reloc_text_base_ptr ptr  defined (cobol_$reloc_text_base_ptr);
  3    20 dcl cobol_$reloc_def_base_ptr ptr  ext;
  3    21 dcl reloc_def_base_ptr ptr  defined (cobol_$reloc_def_base_ptr);
  3    22 dcl cobol_$reloc_link_base_ptr ptr  ext;
  3    23 dcl reloc_link_base_ptr ptr  defined (cobol_$reloc_link_base_ptr);
  3    24 dcl cobol_$reloc_sym_base_ptr ptr  ext;
  3    25 dcl reloc_sym_base_ptr ptr  defined (cobol_$reloc_sym_base_ptr);
  3    26 dcl cobol_$reloc_work_base_ptr ptr  ext;
  3    27 dcl reloc_work_base_ptr ptr  defined (cobol_$reloc_work_base_ptr);
  3    28 dcl cobol_$pd_map_ptr ptr  ext;
  3    29 dcl pd_map_ptr ptr  defined (cobol_$pd_map_ptr);
  3    30 dcl cobol_$fixup_ptr ptr  ext;
  3    31 dcl fixup_ptr ptr  defined (cobol_$fixup_ptr);
  3    32 dcl cobol_$initval_base_ptr ptr  ext;
  3    33 dcl initval_base_ptr ptr  defined (cobol_$initval_base_ptr);
  3    34 dcl cobol_$initval_file_ptr ptr  ext;
  3    35 dcl initval_file_ptr ptr  defined (cobol_$initval_file_ptr);
  3    36 dcl cobol_$perform_list_ptr ptr  ext;
  3    37 dcl perform_list_ptr ptr  defined (cobol_$perform_list_ptr);
  3    38 dcl cobol_$alter_list_ptr ptr  ext;
  3    39 dcl alter_list_ptr ptr  defined (cobol_$alter_list_ptr);
  3    40 dcl cobol_$seg_init_list_ptr ptr  ext;
  3    41 dcl seg_init_list_ptr ptr  defined (cobol_$seg_init_list_ptr);
  3    42 dcl cobol_$temp_token_area_ptr ptr  ext;
  3    43 dcl temp_token_area_ptr ptr  defined (cobol_$temp_token_area_ptr);
  3    44 dcl cobol_$temp_token_ptr ptr  ext;
  3    45 dcl temp_token_ptr ptr  defined (cobol_$temp_token_ptr);
  3    46 dcl cobol_$token_block1_ptr ptr  ext;
  3    47 dcl token_block1_ptr ptr  defined (cobol_$token_block1_ptr);
  3    48 dcl cobol_$token_block2_ptr ptr  ext;
  3    49 dcl token_block2_ptr ptr  defined (cobol_$token_block2_ptr);
  3    50 dcl cobol_$minpral5_ptr ptr  ext;
  3    51 dcl minpral5_ptr ptr  defined (cobol_$minpral5_ptr);
  3    52 dcl cobol_$tag_table_ptr ptr  ext;
  3    53 dcl tag_table_ptr ptr  defined (cobol_$tag_table_ptr);
  3    54 dcl cobol_$map_data_ptr ptr  ext;
  3    55 dcl map_data_ptr ptr  defined (cobol_$map_data_ptr);
  3    56 dcl cobol_$ptr_status_ptr ptr  ext;
  3    57 dcl ptr_status_ptr ptr  defined (cobol_$ptr_status_ptr);
  3    58 dcl cobol_$reg_status_ptr ptr  ext;
  3    59 dcl reg_status_ptr ptr  defined (cobol_$reg_status_ptr);
  3    60 dcl cobol_$misc_base_ptr ptr ext;
  3    61 dcl misc_base_ptr ptr defined (cobol_$misc_base_ptr);
  3    62 dcl cobol_$misc_end_ptr ptr ext;
  3    63 dcl misc_end_ptr ptr defined (cobol_$misc_end_ptr);
  3    64 dcl cobol_$list_ptr ptr ext;
  3    65 dcl list_ptr ptr defined (cobol_$list_ptr);
  3    66 dcl cobol_$allo1_ptr ptr ext;
  3    67 dcl allo1_ptr ptr defined (cobol_$allo1_ptr);
  3    68 dcl cobol_$eln_ptr ptr ext;
  3    69 dcl eln_ptr ptr defined (cobol_$eln_ptr);
  3    70 dcl cobol_$diag_ptr ptr ext;
  3    71 dcl diag_ptr ptr defined (cobol_$diag_ptr);
  3    72 dcl cobol_$xref_token_ptr ptr ext;
  3    73 dcl xref_token_ptr ptr defined (cobol_$xref_token_ptr);
  3    74 dcl cobol_$xref_chain_ptr ptr ext;
  3    75 dcl xref_chain_ptr ptr defined (cobol_$xref_chain_ptr);
  3    76 dcl cobol_$statement_info_ptr ptr ext;
  3    77 dcl statement_info_ptr ptr defined (cobol_$statement_info_ptr);
  3    78 dcl cobol_$reswd_ptr ptr ext;
  3    79 dcl reswd_ptr ptr defined (cobol_$reswd_ptr);
  3    80 dcl cobol_$op_con_ptr ptr ext;
  3    81 dcl op_con_ptr ptr defined (cobol_$op_con_ptr);
  3    82 dcl cobol_$ntbuf_ptr ptr ext;
  3    83 dcl ntbuf_ptr ptr defined (cobol_$ntbuf_ptr);
  3    84 dcl cobol_$main_pcs_ptr ptr ext;
  3    85 dcl main_pcs_ptr ptr defined (cobol_$main_pcs_ptr);
  3    86 dcl cobol_$include_info_ptr ptr ext;
  3    87 dcl include_info_ptr ptr defined (cobol_$include_info_ptr);
  3    88
  3    89 /* FIXED BIN */
  3    90 dcl cobol_$text_wd_off fixed bin  ext;
  3    91 dcl text_wd_off fixed bin  defined (cobol_$text_wd_off);
  3    92 dcl cobol_$con_wd_off fixed bin  ext;
  3    93 dcl con_wd_off fixed bin  defined (cobol_$con_wd_off);
  3    94 dcl cobol_$def_wd_off fixed bin  ext;
  3    95 dcl def_wd_off fixed bin  defined (cobol_$def_wd_off);
  3    96 dcl cobol_$def_max fixed bin  ext;
  3    97 dcl def_max fixed bin  defined (cobol_$def_max);
  3    98 dcl cobol_$link_wd_off fixed bin  ext;
  3    99 dcl link_wd_off fixed bin  defined (cobol_$link_wd_off);
  3   100 dcl cobol_$link_max fixed bin  ext;
  3   101 dcl link_max fixed bin  defined (cobol_$link_max);
  3   102 dcl cobol_$sym_wd_off fixed bin  ext;
  3   103 dcl sym_wd_off fixed bin  defined (cobol_$sym_wd_off);
  3   104 dcl cobol_$sym_max fixed bin  ext;
  3   105 dcl sym_max fixed bin  defined (cobol_$sym_max);
  3   106 dcl cobol_$reloc_text_max fixed bin(24)  ext;
  3   107 dcl reloc_text_max fixed bin(24)  defined (cobol_$reloc_text_max);
  3   108 dcl cobol_$reloc_def_max fixed bin(24)  ext;
  3   109 dcl reloc_def_max fixed bin(24)  defined (cobol_$reloc_def_max);
  3   110 dcl cobol_$reloc_link_max fixed bin(24)  ext;
  3   111 dcl reloc_link_max fixed bin(24)  defined (cobol_$reloc_link_max);
  3   112 dcl cobol_$reloc_sym_max fixed bin(24)  ext;
  3   113 dcl reloc_sym_max fixed bin(24)  defined (cobol_$reloc_sym_max);
  3   114 dcl cobol_$reloc_work_max fixed bin(24)  ext;
  3   115 dcl reloc_work_max fixed bin(24)  defined (cobol_$reloc_work_max);
  3   116 dcl cobol_$pd_map_index fixed bin  ext;
  3   117 dcl pd_map_index fixed bin  defined (cobol_$pd_map_index);
  3   118 dcl cobol_$cobol_data_wd_off fixed bin  ext;
  3   119 dcl cobol_data_wd_off fixed bin  defined (cobol_$cobol_data_wd_off);
  3   120 dcl cobol_$stack_off fixed bin  ext;
  3   121 dcl stack_off fixed bin  defined (cobol_$stack_off);
  3   122 dcl cobol_$max_stack_off fixed bin  ext;
  3   123 dcl max_stack_off fixed bin  defined (cobol_$max_stack_off);
  3   124 dcl cobol_$init_stack_off fixed bin  ext;
  3   125 dcl init_stack_off fixed bin  defined (cobol_$init_stack_off);
  3   126 dcl cobol_$pd_map_sw fixed bin  ext;
  3   127 dcl pd_map_sw fixed bin  defined (cobol_$pd_map_sw);
  3   128 dcl cobol_$next_tag fixed bin  ext;
  3   129 dcl next_tag fixed bin  defined (cobol_$next_tag);
  3   130 dcl cobol_$data_init_flag fixed bin  ext;
  3   131 dcl data_init_flag fixed bin  defined (cobol_$data_init_flag);
  3   132 dcl cobol_$seg_init_flag fixed bin  ext;
  3   133 dcl seg_init_flag fixed bin  defined (cobol_$seg_init_flag);
  3   134 dcl cobol_$alter_flag fixed bin  ext;
  3   135 dcl alter_flag fixed bin  defined (cobol_$alter_flag);
  3   136 dcl cobol_$sect_eop_flag fixed bin  ext;
  3   137 dcl sect_eop_flag fixed bin  defined (cobol_$sect_eop_flag);
  3   138 dcl cobol_$para_eop_flag fixed bin  ext;
  3   139 dcl para_eop_flag fixed bin  defined (cobol_$para_eop_flag);
  3   140 dcl cobol_$priority_no fixed bin  ext;
  3   141 dcl priority_no fixed bin  defined (cobol_$priority_no);
  3   142 dcl cobol_$compile_count fixed bin ext;
  3   143 dcl compile_count fixed bin defined (cobol_$compile_count);
  3   144 dcl cobol_$ptr_assumption_ind fixed bin ext;
  3   145 dcl ptr_assumption_ind fixed bin defined (cobol_$ptr_assumption_ind);
  3   146 dcl cobol_$reg_assumption_ind fixed bin ext;
  3   147 dcl reg_assumption_ind fixed bin defined (cobol_$reg_assumption_ind);
  3   148 dcl cobol_$perform_para_index fixed bin ext;
  3   149 dcl perform_para_index fixed bin defined (cobol_$perform_para_index);
  3   150 dcl cobol_$perform_sect_index fixed bin ext;
  3   151 dcl perform_sect_index fixed bin defined (cobol_$perform_sect_index);
  3   152 dcl cobol_$alter_index fixed bin ext;
  3   153 dcl alter_index fixed bin defined (cobol_$alter_index);
  3   154 dcl cobol_$list_off fixed bin ext;
  3   155 dcl list_off fixed bin defined (cobol_$list_off);
  3   156 dcl cobol_$constant_offset fixed bin ext;
  3   157 dcl constant_offset fixed bin defined (cobol_$constant_offset);
  3   158 dcl cobol_$misc_max fixed bin ext;
  3   159 dcl misc_max fixed bin defined (cobol_$misc_max);
  3   160 dcl cobol_$pd_map_max fixed bin ext;
  3   161 dcl pd_map_max fixed bin defined (cobol_$pd_map_max);
  3   162 dcl cobol_$map_data_max fixed bin ext;
  3   163 dcl map_data_max fixed bin defined (cobol_$map_data_max);
  3   164 dcl cobol_$fixup_max fixed bin ext;
  3   165 dcl fixup_max fixed bin defined (cobol_$fixup_max);
  3   166 dcl cobol_$tag_table_max fixed bin ext;
  3   167 dcl tag_table_max fixed bin defined (cobol_$tag_table_max);
  3   168 dcl cobol_$temp_token_max fixed bin ext;
  3   169 dcl temp_token_max fixed bin defined (cobol_$temp_token_max);
  3   170 dcl cobol_$allo1_max fixed bin ext;
  3   171 dcl allo1_max fixed bin defined (cobol_$allo1_max);
  3   172 dcl cobol_$eln_max fixed bin ext;
  3   173 dcl eln_max fixed bin defined (cobol_$eln_max);
  3   174 dcl cobol_$debug_enable fixed bin ext;
  3   175 dcl debug_enable fixed bin defined (cobol_$debug_enable);
  3   176 dcl cobol_$non_source_offset fixed bin ext;
  3   177 dcl non_source_offset fixed bin defined (cobol_$non_source_offset);
  3   178 dcl cobol_$initval_flag fixed bin ext;
  3   179 dcl initval_flag fixed bin defined (cobol_$initval_flag);
  3   180 dcl cobol_$date_compiled_sw fixed bin ext;
  3   181 dcl date_compiled_sw fixed bin defined (cobol_$date_compiled_sw);
  3   182 dcl cobol_$include_cnt fixed bin ext;
  3   183 dcl include_cnt fixed bin defined (cobol_$include_cnt);
  3   184 dcl cobol_$fs_charcnt fixed bin ext;
  3   185 dcl fs_charcnt fixed bin defined (cobol_$fs_charcnt);
  3   186 dcl cobol_$ws_charcnt fixed bin ext;
  3   187 dcl ws_charcnt fixed bin defined (cobol_$ws_charcnt);
  3   188 dcl cobol_$coms_charcnt fixed bin ext;
  3   189 dcl coms_charcnt fixed bin defined (cobol_$coms_charcnt);
  3   190 dcl cobol_$ls_charcnt fixed bin ext;
  3   191 dcl ls_charcnt fixed bin defined (cobol_$ls_charcnt);
  3   192 dcl cobol_$cons_charcnt fixed bin ext;
  3   193 dcl cons_charcnt fixed bin defined (cobol_$cons_charcnt);
  3   194 dcl cobol_$value_cnt fixed bin ext;
  3   195 dcl value_cnt fixed bin defined (cobol_$value_cnt);
  3   196 dcl cobol_$cd_cnt fixed bin ext;
  3   197 dcl cd_cnt fixed bin defined (cobol_$cd_cnt);
  3   198 dcl cobol_$fs_wdoff fixed bin ext;
  3   199 dcl fs_wdoff fixed bin defined (cobol_$fs_wdoff);
  3   200 dcl cobol_$ws_wdoff fixed bin ext;
  3   201 dcl ws_wdoff fixed bin defined (cobol_$ws_wdoff);
  3   202 dcl cobol_$coms_wdoff fixed bin ext;
  3   203 dcl coms_wdoff fixed bin defined (cobol_$coms_wdoff);
  3   204
  3   205 /* CHARACTER */
  3   206 dcl cobol_$scratch_dir char (168)   aligned ext;
  3   207 dcl scratch_dir char (168)   aligned defined (cobol_$scratch_dir);			/* -42- */
  3   208 dcl cobol_$obj_seg_name char (32)   aligned ext;
  3   209 dcl obj_seg_name char (32)   aligned defined (cobol_$obj_seg_name);		/* -8- */
  3   210
  3   211 /* BIT */
  3   212 dcl cobol_$xref_bypass bit(1) aligned ext;
  3   213 dcl xref_bypass bit(1) aligned defined (cobol_$xref_bypass);			/* -1- */
  3   214 dcl cobol_$same_sort_merge_proc bit(1) aligned ext;
  3   215 dcl same_sort_merge_proc bit(1) aligned defined (cobol_$same_sort_merge_proc);		/* -1- */
  3   216
  3   217
  3   218 /* END INCLUDE FILE ... cobol_incl.pl1*/
  3   219
  3   220
      224
      225
  4     1
  4     2 /*  BEGIN INCLUDE FILE ...   cobol_definitions.incl.pl1		  */
  4     3
  4     4 /*  Last modified June 27, 1974 by AEG			  */
  4     5
  4     6
  4     7 declare	1 def_header aligned based(def_base_ptr),
  4     8 	  2 def_list_relp bit(18) unaligned,
  4     9 	  2 unused bit(36) unaligned,
  4    10 	  2 flags unaligned,
  4    11 	    3 new_format bit(1) unaligned,
  4    12 	    3 ignore bit(1) unaligned,
  4    13 	    3 unused bit(16) unaligned;
  4    14
  4    15
  4    16 /*  Non-Class-3 Definitions				  */
  4    17
  4    18
  4    19 declare	def_ptr ptr;
  4    20
  4    21
  4    22 declare	1 definition aligned based(def_ptr),
  4    23 	  2 forward_thread bit(18) unaligned,
  4    24 	  2 backward_thread bit(18) unaligned,
  4    25 	  2 value bit(18) unaligned,
  4    26 	  2 flags unaligned,
  4    27 	    3 new_format bit(1) unaligned,
  4    28 	    3 ignore bit(1) unaligned,
  4    29 	    3 entrypoint bit(1) unaligned,
  4    30 	    3 retain bit(1) unaligned,
  4    31 	    3 descr_sw bit(1) unaligned,
  4    32 	    3 unused bit(10) unaligned,
  4    33 	  2 class bit(3) unaligned,
  4    34 	  2 symbol_relp bit(18) unaligned,
  4    35 	  2 segname_relp bit(18) unaligned,
  4    36 	  2 n_args fixed bin(17) unaligned,
  4    37 	  2 descriptor (0 refer(definition.n_args)) bit(18) unaligned;
  4    38
  4    39
  4    40 /*  Class-3 Definition				  */
  4    41
  4    42
  4    43 declare	1 segname aligned based(def_ptr),
  4    44 	  2 forward_thread bit(18) unaligned,
  4    45 	  2 backward_thread bit(18) unaligned,
  4    46 	  2 segname_thread bit(18) unaligned,
  4    47 	  2 flags bit(15) unaligned,
  4    48 	  2 class bit(3) unaligned,
  4    49 	  2 symbol_relp bit(18) unaligned,
  4    50 	  2 first_relp bit(18) unaligned;
  4    51
  4    52
  4    53
  4    54 /*  END INCLUDE FILE ...   cobol_definitions.incl.pl1		  */
  4    55
      226
      227
      228
  5     1
  5     2 /* BEGIN INCLUDE FILE ...   cobol_fixed_common.incl.pl1 */
  5     3 /* Modified on 10/27/82 by FCH, [5.1-1], cobol_cln added to save last line num, BUG543(phx13643) */
  5     4 /* Modified on 07/31/80 by FCH, [4.3-1], use_reporting field added for Report Writer */
  5     5 /* Modified on 03/30/79 by FCH, [4.1-1], -card option added */
  5     6 /* Modified on 03/30/79 by FCH, [4.0-2], -svNM option added */
  5     7 /* Modified on 03/02/79 by FCH, [4.0-1], -levNM option added */
  5     8 /* Modified by RAL on 10/13/78, [4.0-0], Added option exp from fil2. */
  5     9 /* Modified by BC on 06/20/77, descriptor added.	*/
  5    10 /* Modified by BC on 06/02/77, init_cd_seg, init_cd_offset added.	*/
  5    11 /* Modified by BC  on 1/21/77, options.profile added.	*/
  5    12 /* Modified by FCH on 7/6/76, sysin_fno & sysout_fno deleted, accept_device & display_device added */
  5    13 /* Modified by FCH on 5/20/77, comp_level added */
  5    14
  5    15
  5    16 /*     THE SIZE OF THIS STRUCTURE IN BYTES, (EXCLUDING VARIABLE
  5    17*   LENGTH ENTITIES), FOR EACH HARDWARE IMPLEMENTATION IS:
  5    18*
  5    19*   HARDWARE	|	SIZE (BYTES)
  5    20*   ---------------------------------
  5    21*   645/6180	|	464
  5    22*   P7		|	396
  5    23*   ---------------------------------
  5    24*   */
  5    25
  5    26 dcl 	1 fixed_common based (  cobol_com_ptr),
  5    27     		2 prog_name char (30),
  5    28    		2 compiler_rev_no char (25),
  5    29     		2 phase_name char (6),
  5    30     		2 currency char (1),
  5    31     		2 fatal_no fixed bin,
  5    32     		2 warn_no fixed bin,
  5    33     		2 proc_counter fixed bin,
  5    34     		2 spec_tag_counter fixed bin,
  5    35     		2 file_count fixed bin,
  5    36     		2 filedescr_offsets (20) char (5),
  5    37     		2 perf_alter_info char (5),
  5    38     		2 another_perform_info char (5),
  5    39     		2 sort_in_info char (5),
  5    40     		2 odo_info char (5),
  5    41     		2 size_seg fixed bin,
  5    42     		2 size_offset fixed bin(24),
  5    43     		2 size_perform_info char (5),
  5    44     		2 rename_info char (5),
  5    45     		2 report_names char (5),
  5    46     		2 rw_buf_seg fixed bin,
  5    47     		2 rw_buf_offset fixed bin(24),
  5    48     		2 rw_buf_length fixed bin(24),
  5    49     		2 file_keys char (5),
  5    50     		2 search_keys char (5),
  5    51     		2 dd_seg_size fixed bin(24),
  5    52     		2 pd_seg_size fixed bin(24),
  5    53     		2 seg_limit fixed bin ,
  5    54     		2 number_of_dd_segs fixed bin,
  5    55     		2 seg_info char (5),
  5    56     		2 number_of_ls_pointers fixed bin,
  5    57     		2 link_sec_seg fixed bin,
  5    58     		2 link_sec_offset fixed bin(24),
  5    59     		2 sra_clauses fixed bin,
  5    60     		2 fix_up_info char (5),
  5    61     		2 linage_info char (5),
  5    62     		2 first_dd_item char (5),
  5    63     		2 sort_out_info char (5),
  5    64     		2 db_info char (5),
  5    65     		2 realm_info char (5),
  5    66     		2 rc_realm_info char (5),
  5    67     		2 last_file_key char (5),
  5    68     		2 prog_coll_seq fixed bin,
  5    69 		2 init_cd_seg fixed bin,
  5    70 		2 init_cd_offset fixed bin(24),
  5    71     		2 input_error_exit fixed bin,
  5    72    		2 output_error_exit fixed bin,
  5    73     		2 i_o_error_exit fixed bin,
  5    74     		2 extend_error_exit fixed bin,
  5    75     		2 dummy15 fixed bin,
  5    76     		2 options,
  5    77       			3 cu bit (1),
  5    78       			3 st bit (1),
  5    79       			3 wn bit (1),
  5    80       			3 obs bit (1),
  5    81       			3 dm bit (1),
  5    82       			3 xrl bit (1),
  5    83       			3 xrn bit (1),
  5    84       			3 src bit (1),
  5    85       			3 obj bit (1),
  5    86       			3 exs bit (1),
  5    87       			3 sck bit (1),
  5    88       			3 rno bit (1),
  5    89 			3 u_l bit (1),
  5    90 			3 cnv bit (1),
  5    91 			3 cos bit (1),
  5    92 			3 fmt bit (1),
  5    93 			3 profile bit(1),
  5    94 			3 nw bit (1),
  5    95 			3 exp bit (1),		/* [4.0-0] */
  5    96 			3 card bit (1),  /*[4.1-1]*/
  5    97 			3 fil2 bit (5),
  5    98 			3 m_map bit (1),
  5    99 			3 m_bf bit (1),
  5   100 			3 m_fat bit (1),
  5   101 			3 m_wn bit (1),
  5   102 			3 m_obs bit(1),
  5   103 			3 pd bit(1),
  5   104       			3 oc bit(1),
  5   105     		2 supervisor bit (1),
  5   106     		2 dec_comma bit (1),
  5   107     		2 init_cd bit (1),
  5   108     		2 corr bit (1),
  5   109     		2 initl bit (1),
  5   110     		2 debug bit (1),
  5   111     		2 report bit (1),
  5   112     		2 sync_in_prog bit (1),
  5   113     		2 pd_section bit (1),
  5   114     		2 list_switch bit (1),
  5   115     		2 alpha_cond bit (1),
  5   116     		2 num_cond bit (1),
  5   117     		2 spec_sysin bit (1),
  5   118     		2 spec_sysout bit (1),
  5   119     		2 cpl_files bit (1),
  5   120     		2 obj_dec_comma bit (1),
  5   121 		2 default_sign_type bit (3),
  5   122 		2 use_debug bit(1),
  5   123 		2 syntax_trace bit(1),
  5   124 		2 comp_defaults,
  5   125 			3 comp	bit(1),
  5   126 			3 comp_1	bit(1),
  5   127 			3 comp_2	bit(1),
  5   128 			3 comp_3	bit(1),
  5   129 			3 comp_4	bit(1),
  5   130 			3 comp_5	bit(1),
  5   131 			3 comp_6	bit(1),
  5   132 			3 comp_7	bit(1),
  5   133 			3 comp_8 bit(1),
  5   134 		2 disp_defaults,
  5   135 			3 disp	bit(1),
  5   136 			3 disp_1	bit(1),
  5   137 			3 disp_2	bit(1),
  5   138 			3 disp_3	bit(1),
  5   139 			3 disp_4	bit(1),
  5   140 			3 disp_5  bit(1),
  5   141 			3 disp_6  bit(1),
  5   142 			3 disp_7  bit(1),
  5   143 		2 descriptor bit(2),
  5   144 		2 levsv  bit(3),		/*[4.0-1]*/
  5   145 		2 use_reporting bit(1),	/*[4.3-1]*/
  5   146 		2 cd bit(1),		/*[4.4-1]*/
  5   147 		2 dummy17 bit(3),
  5   148    		2 lvl_rstr bit(32),
  5   149    		2 inst_rstr bit(32),
  5   150 		2 comp_level char(1),
  5   151 		2 dummy18 char(30),
  5   152 		2 object_sign char (1),
  5   153     		2 last_print_rec char (5),
  5   154     		2 coll_seq_info char (5),
  5   155     		2 sys_status_seg fixed bin,
  5   156    		2 sys_status_offset fixed bin(24),
  5   157    		2 compiler_id fixed bin,
  5   158    		2 date_comp_ln fixed bin,
  5   159    		2 compile_mode bit(36),
  5   160    		2 default_temp fixed bin,
  5   161    		2 accept_device fixed bin,
  5   162    		2 display_device fixed bin,
  5   163    		2 cobol_cln fixed bin,	/*[5.1-1]*/
  5   164 		2 alphabet_offset fixed bin;
  5   165
  5   166
  5   167
  5   168 /* END INCLUDE FILE ...   cobol_fixed_common.incl.pl1 */
  5   169
      229
  6     1
  6     2 /* BEGIN INCLUDE FILE ... cobol_ext_.incl.pl1 */
  6     3 /* Last modified on 06/17/76 by ORN */
  6     4 /* Last modified on 12/28/76 by FCH */
  6     5 /* Last modified on 12/01/80 by FCH */
  6     6
  6     7 /*    <<<   SHARED EXTERNALS INCLUDE FILE   >>>    */
  6     8
  6     9
  6    10 dcl     cobol_ext_$cobol_afp ptr ext;
  6    11 dcl     cobol_afp ptr defined (  cobol_ext_$cobol_afp);
  6    12 dcl     cobol_ext_$cobol_analin_fileno ptr ext;
  6    13 dcl     cobol_analin_fileno ptr defined (  cobol_ext_$cobol_analin_fileno);
  6    14 dcl     cobol_ext_$report_first_token ptr ext;
  6    15 dcl     report_first_token ptr defined( cobol_ext_$report_first_token);
  6    16 dcl     cobol_ext_$report_last_token ptr ext;
  6    17 dcl     report_last_token ptr defined ( cobol_ext_$report_last_token);
  6    18 dcl     cobol_ext_$cobol_eltp ptr ext;
  6    19 dcl     cobol_eltp ptr defined (  cobol_ext_$cobol_eltp);
  6    20 dcl     cobol_ext_$cobol_cmfp ptr ext;
  6    21 dcl     cobol_cmfp ptr defined (  cobol_ext_$cobol_cmfp);
  6    22 dcl     cobol_ext_$cobol_com_fileno ptr ext;
  6    23 dcl     cobol_com_fileno ptr defined (  cobol_ext_$cobol_com_fileno);
  6    24 dcl     cobol_ext_$cobol_com_ptr ptr ext;
  6    25 dcl     cobol_com_ptr ptr defined (  cobol_ext_$cobol_com_ptr);
  6    26 dcl     cobol_ext_$cobol_dfp ptr ext;
  6    27 dcl     cobol_dfp ptr defined (  cobol_ext_$cobol_dfp);
  6    28 dcl     cobol_ext_$cobol_hfp ptr ext;
  6    29 dcl     cobol_hfp ptr defined (  cobol_ext_$cobol_hfp);
  6    30 dcl     cobol_ext_$cobol_m1fp ptr ext;
  6    31 dcl     cobol_m1fp ptr defined (  cobol_ext_$cobol_m1fp);
  6    32 dcl     cobol_ext_$cobol_m2fp ptr ext;
  6    33 dcl     cobol_m2fp ptr defined (  cobol_ext_$cobol_m2fp);
  6    34 dcl     cobol_ext_$cobol_min1_fileno ptr ext;
  6    35 dcl     cobol_min1_fileno ptr defined (  cobol_ext_$cobol_min1_fileno);
  6    36 dcl     cobol_ext_$cobol_min2_fileno_ptr ptr ext;
  6    37 dcl     cobol_min2_fileno_ptr ptr defined (  cobol_ext_$cobol_min2_fileno_ptr);
  6    38 dcl     cobol_ext_$cobol_name_fileno ptr ext;
  6    39 dcl     cobol_name_fileno ptr defined (  cobol_ext_$cobol_name_fileno);
  6    40 dcl     cobol_ext_$cobol_name_fileno_ptr ptr ext;
  6    41 dcl     cobol_name_fileno_ptr ptr defined (  cobol_ext_$cobol_name_fileno_ptr);
  6    42 dcl     cobol_ext_$cobol_ntfp ptr ext;
  6    43 dcl     cobol_ntfp ptr defined (  cobol_ext_$cobol_ntfp);
  6    44 dcl     cobol_ext_$cobol_pdofp ptr ext;
  6    45 dcl     cobol_pdofp ptr defined (  cobol_ext_$cobol_pdofp);
  6    46 dcl     cobol_ext_$cobol_pfp ptr ext;
  6    47 dcl     cobol_pfp ptr defined (  cobol_ext_$cobol_pfp);
  6    48 dcl     cobol_ext_$cobol_rm2fp ptr ext;
  6    49 dcl     cobol_rm2fp ptr defined (  cobol_ext_$cobol_rm2fp);
  6    50 dcl     cobol_ext_$cobol_rmin2fp ptr ext;
  6    51 dcl     cobol_rmin2fp ptr defined (  cobol_ext_$cobol_rmin2fp);
  6    52 dcl     cobol_ext_$cobol_curr_in ptr ext;
  6    53 dcl     cobol_curr_in ptr defined (  cobol_ext_$cobol_curr_in);
  6    54 dcl     cobol_ext_$cobol_curr_out ptr ext;
  6    55 dcl     cobol_curr_out ptr defined (  cobol_ext_$cobol_curr_out);
  6    56 dcl     cobol_ext_$cobol_sfp ptr ext;
  6    57 dcl     cobol_sfp ptr defined (  cobol_ext_$cobol_sfp);
  6    58 dcl     cobol_ext_$cobol_w1p ptr ext;
  6    59 dcl     cobol_w1p ptr defined (  cobol_ext_$cobol_w1p);
  6    60 dcl     cobol_ext_$cobol_w2p ptr ext;
  6    61 dcl     cobol_w2p ptr defined (  cobol_ext_$cobol_w2p);
  6    62 dcl     cobol_ext_$cobol_w3p ptr ext;
  6    63 dcl     cobol_w3p ptr defined (  cobol_ext_$cobol_w3p);
  6    64 dcl     cobol_ext_$cobol_w5p ptr ext;
  6    65 dcl     cobol_w5p ptr defined (  cobol_ext_$cobol_w5p);
  6    66 dcl     cobol_ext_$cobol_w6p ptr ext;
  6    67 dcl     cobol_w6p ptr defined (  cobol_ext_$cobol_w6p);
  6    68 dcl     cobol_ext_$cobol_w7p ptr ext;
  6    69 dcl     cobol_w7p ptr defined (  cobol_ext_$cobol_w7p);
  6    70 dcl     cobol_ext_$cobol_x3fp ptr ext;
  6    71 dcl     cobol_x3fp ptr defined (  cobol_ext_$cobol_x3fp);
  6    72 dcl	cobol_ext_$cobol_rwdd ptr ext;
  6    73 dcl	cobol_rwdd ptr defined(cobol_ext_$cobol_rwdd);
  6    74 dcl	cobol_ext_$cobol_rwpd ptr ext;
  6    75 dcl	cobol_rwpd ptr defined(cobol_ext_$cobol_rwpd);
  6    76
  6    77
  6    78 dcl     cobol_ext_$cobol_fileno1 fixed bin(24)ext;
  6    79 dcl     cobol_fileno1 fixed bin(24)defined (  cobol_ext_$cobol_fileno1);
  6    80 dcl     cobol_ext_$cobol_options_len fixed bin(24)ext;
  6    81 dcl     cobol_options_len fixed bin(24)defined (  cobol_ext_$cobol_options_len);
  6    82 dcl     cobol_ext_$cobol_pdout_fileno fixed bin(24)ext;
  6    83 dcl     cobol_pdout_fileno fixed bin(24)defined (  cobol_ext_$cobol_pdout_fileno);
  6    84 dcl     cobol_ext_$cobol_print_fileno fixed bin(24)ext;
  6    85 dcl     cobol_print_fileno fixed bin(24)defined (  cobol_ext_$cobol_print_fileno);
  6    86 dcl     cobol_ext_$cobol_rmin2_fileno fixed bin(24)ext;
  6    87 dcl     cobol_rmin2_fileno fixed bin(24)defined (  cobol_ext_$cobol_rmin2_fileno);
  6    88 dcl     cobol_ext_$cobol_x1_fileno fixed bin(24)ext;
  6    89 dcl     cobol_x1_fileno fixed bin(24)defined (  cobol_ext_$cobol_x1_fileno);
  6    90 dcl     cobol_ext_$cobol_x2_fileno fixed bin(24)ext;
  6    91 dcl     cobol_x2_fileno fixed bin(24)defined (  cobol_ext_$cobol_x2_fileno);
  6    92 dcl     cobol_ext_$cobol_x3_fileno fixed bin(24)ext;
  6    93 dcl     cobol_x3_fileno fixed bin(24)defined (  cobol_ext_$cobol_x3_fileno);
  6    94
  6    95 dcl     cobol_ext_$cobol_lpr char (5) ext;
  6    96 dcl     cobol_lpr char (5) defined (  cobol_ext_$cobol_lpr);				/* -2- */
  6    97 dcl     cobol_ext_$cobol_options char (120) ext;
  6    98 dcl     cobol_options char (120) defined (  cobol_ext_$cobol_options);          			/* -30- */
  6    99
  6   100 dcl     cobol_ext_$cobol_xlast8 bit (1) ext;
  6   101 dcl     cobol_xlast8 bit (1) defined (  cobol_ext_$cobol_xlast8);				/* -1- */
  6   102 dcl     cobol_ext_$report_exists bit (1) ext;
  6   103 dcl     report_exists bit (1) defined (  cobol_ext_$report_exists);
  6   104
  6   105
  6   106 /*    <<<   END OF SHARED EXTERNALS INCLUDE FILE   >>>    */
  6   107 /* END INCLUDE FILE ... cobol_ext_.incl.pl1 */
  6   108
      230
      231      end cobol_def_util;
	SOURCE FILES USED IN THIS COMPILATION.

LINE      NUMBER  DATE MODIFIED     NAME			PATHNAME
             0    05/24/89  0830.2  cobol_def_util.pl1                >spec>install>MR12.3-1048>cobol_def_util.pl1
221          1    11/11/82  1712.7  cobol_entry_seq.incl.pl1          >ldd>include>cobol_entry_seq.incl.pl1
223          2    11/11/82  1712.7  cobol_in_token.incl.pl1           >ldd>include>cobol_in_token.incl.pl1
224          3    11/11/82  1712.7  cobol_.incl.pl1                   >ldd>include>cobol_.incl.pl1
226          4    11/11/82  1712.7  cobol_definitions.incl.pl1        >ldd>include>cobol_definitions.incl.pl1
229          5    11/11/82  1712.8  cobol_fixed_common.incl.pl1       >ldd>include>cobol_fixed_common.incl.pl1
230          6    03/27/82  0431.3  cobol_ext_.incl.pl1               >ldd>include>cobol_ext_.incl.pl1
	NAMES DECLARED IN THIS COMPILATION.

IDENTIFIER	     OFFSET    LOC STORAGE CLASS   DATA TYPE		ATTRIBUTES AND REFERENCES
								(* indicates a set context)

NAMES DECLARED BY DECLARE STATEMENT.
LOC                             000100 automatic       fixed bin(17,0)          dcl 154 set ref 116*
a_word                                 based           fixed bin(17,0)          dcl 154 ref 63
acc                                    based           structure                level 1 dcl 183
addr                                                   builtin function         dcl 216 ref 35 40 40 86 86 102 102 122 122
addrel                                                 builtin function         dcl 216 ref 60 61 67 74 78 134
arg_desc_off                    000505 automatic       bit(36)                  packed unaligned dcl 154 set ref 113* 116* 118
arg_reloc_code                  000101 automatic       bit(5)                   array dcl 154 set ref 109* 119* 122 122
backward_thread           0(18)        based           bit(18)                  level 2 packed packed unaligned dcl 4-22 set ref 91*
binary                                                 builtin function         dcl 216 ref 45 53
class                     1(33)        based           bit(3)                   level 2 packed packed unaligned dcl 4-22 set ref 98*
class0_def_len                  000502 automatic       fixed bin(17,0)          dcl 154 set ref 45* 54 81 134
cobol_$def_base_ptr             000170 external static pointer                  dcl 3-12 ref 60 60 60 61 67 74 78
cobol_$def_max                  000176 external static fixed bin(17,0)          dcl 3-96 ref 83
cobol_$def_wd_off               000174 external static fixed bin(17,0)          dcl 3-94 set ref 54 77 77 78 79 81* 81 83
cobol_$obj_seg_name             000200 external static char(32)                 dcl 3-208 ref 47
cobol_$text_wd_off              000172 external static fixed bin(17,0)          dcl 3-90 ref 93
cobol_arg_descriptor$type9      000160 constant        entry                    external dcl 196 ref 116
cobol_com_ptr                          defined         pointer                  dcl 6-25 ref 104
cobol_ext_$cobol_com_ptr        000202 external static pointer                  dcl 6-24 ref 104 104
cobol_pool                      000162 constant        entry                    external dcl 196 ref 125
cobol_reloc                     000164 constant        entry                    external dcl 196 ref 102 122 138
def_base_ptr                           defined         pointer                  dcl 3-13 ref 60
def_header                             based           structure                level 1 dcl 4-7
def_list_relp                          based           bit(18)                  level 2 packed packed unaligned dcl 4-7 ref 60
def_ovfl_error                  000116 internal static structure                level 1 dcl 202 set ref 86 86
def_ptr                         000520 automatic       pointer                  dcl 4-19 set ref 60* 61 65 66* 67 70 70 73 74* 74 77
                                                                                  78* 90 91 95 96 98 99 100 134* 134 135 136
def_relp                  1            based           bit(18)                  level 2 packed packed unaligned dcl 1-14 set ref 79*
def_wd_off                             defined         fixed bin(17,0)          dcl 3-95 ref 77
definition                             based           structure                level 1 dcl 4-22
desc_off                               based           bit(36)                  array packed unaligned dcl 154 ref 113
descr_relp_offset                      based           bit(18)                  level 2 packed packed unaligned dcl 1-14 set ref
                                                                                  128*
descriptor              134(34)        based           bit(2)                   level 2 packed packed unaligned dcl 5-26 ref 104
descriptor_ptr                         parameter       pointer                  dcl 154 ref 29 113
descriptor_relp           0(18)        based           bit(18)                  array level 2 packed packed unaligned dcl 1-7 set
                                                                                  ref 118*
eax7                      2            based           bit(36)                  level 2 dcl 1-14 set ref 145*
entry_seq                              based           structure                level 1 dcl 1-14
ep_acc_relp                     000504 automatic       fixed bin(17,0)          dcl 154 set ref 50* 54* 99
ep_acc_wd_len                   000503 automatic       fixed bin(17,0)          dcl 154 set ref 49* 53* 81 132 138 138
epp2                      3            based           bit(36)                  level 2 dcl 1-14 set ref 146*
fixed_common                           based           structure                level 1 unaligned dcl 5-26
flag                                   parameter       fixed bin(17,0)          dcl 154 ref 29 113 142
flags                     1(18)        based           structure                level 2 in structure "definition" packed packed
                                                                                  unaligned dcl 4-22 in procedure "cobol_def_util"
                                                                                  set ref 96*
flags                     1(18)        based           structure                level 2 in structure "entry_seq" packed packed
                                                                                  unaligned dcl 1-14 in procedure "cobol_def_util"
                                                                                  set ref 97*
forward_thread                         based           bit(18)                  level 2 packed packed unaligned dcl 4-22 set ref 61
                                                                                  65 67 70 70 73 74 77* 90*
has_descriptors           1(20)        based           bit(1)                   level 3 packed packed unaligned dcl 1-14 set ref
                                                                                  108*
i                               000506 automatic       fixed bin(17,0)          dcl 154 set ref 111* 113 116 118 119*
in_token                               based           structure                level 1 dcl 2-9
in_token_ptr                           parameter       pointer                  dcl 2-7 ref 29 116
length_of_string                       based           fixed bin(8,0)           level 2 packed packed unaligned dcl 183 set ref 135*
                                                                                  136
n_args                                 based           fixed bin(17,0)          level 2 in structure "parm_desc" packed packed
                                                                                  unaligned dcl 1-7 in procedure "cobol_def_util"
                                                                                  set ref 107*
n_args                                 parameter       fixed bin(17,0)          dcl 154 in procedure "cobol_def_util" ref 29 37 45
                                                                                  104 107 111 122 124
null                                                   builtin function         dcl 216 ref 40 40 86 86 138 138
object_name                            parameter       char(32)                 packed unaligned dcl 154 ref 29 47 136
object_name_len                        parameter       fixed bin(17,0)          dcl 154 ref 29 53 135 136
oprnd_ovfl                      000140 internal static structure                level 1 dcl 207 set ref 40 40
parm_desc                              based           structure                level 1 dcl 1-7
parm_desc_ptr                   000516 automatic       pointer                  dcl 1-5 set ref 35* 107 118
reloc_cl0_def_fixed             000110 internal static bit(5)                   initial array dcl 191 set ref 102 102
segname_relp              2(18)        based           bit(18)                  level 2 packed packed unaligned dcl 4-22 set ref
                                                                                  100*
signal_                         000166 constant        entry                    external dcl 196 ref 40 86
string                    0(09)        based           char                     level 2 in structure "acc" packed packed unaligned
                                                                                  dcl 183 in procedure "cobol_def_util" set ref 136*
string                                                 builtin function         dcl 216 in procedure "cobol_def_util" set ref 96*
                                                                                  97*
substr                                                 builtin function         dcl 216 set ref 45 47 53 77 79 95 99 113* 113 118
                                                                                  125 125 128 136
symbol_relp               2            based           bit(18)                  level 2 packed packed unaligned dcl 4-22 set ref 99*
temp                            000513 automatic       fixed bin(17,0)          dcl 154 set ref 93* 95 124* 125 125
temp1                           000514 automatic       fixed bin(17,0)          dcl 154 set ref 125* 127* 127 128
temp_ptr                        000510 automatic       pointer                  dcl 154 set ref 61* 63 66 67*
temp_thread                     000512 automatic       bit(18)                  packed unaligned dcl 154 set ref 65* 73* 91
text_ptr                               parameter       pointer                  dcl 1-12 ref 29 79 97 108 128 145 146 147
token_ptr                 2            based           pointer                  array level 2 dcl 2-9 set ref 116*
tsp2                      4            based           bit(36)                  level 2 dcl 1-14 set ref 147*
unspec                                                 builtin function         dcl 216 ref 45 53 77 79 95 99 128
value                     1            based           bit(18)                  level 2 packed packed unaligned dcl 4-22 set ref 95*
work_spaces                     000010 internal static char(256)                initial packed unaligned dcl 154 set ref 35 125 125

NAMES DECLARED BY DECLARE STATEMENT AND NEVER REFERENCED.
allo1_max                              defined         fixed bin(17,0)          dcl 3-171
allo1_ptr                              defined         pointer                  dcl 3-67
alter_flag                             defined         fixed bin(17,0)          dcl 3-135
alter_index                            defined         fixed bin(17,0)          dcl 3-153
alter_list_ptr                         defined         pointer                  dcl 3-39
cd_cnt                                 defined         fixed bin(17,0)          dcl 3-197
cobol_$allo1_max                       external static fixed bin(17,0)          dcl 3-170
cobol_$allo1_ptr                       external static pointer                  dcl 3-66
cobol_$alter_flag                      external static fixed bin(17,0)          dcl 3-134
cobol_$alter_index                     external static fixed bin(17,0)          dcl 3-152
cobol_$alter_list_ptr                  external static pointer                  dcl 3-38
cobol_$cd_cnt                          external static fixed bin(17,0)          dcl 3-196
cobol_$cobol_data_wd_off               external static fixed bin(17,0)          dcl 3-118
cobol_$compile_count                   external static fixed bin(17,0)          dcl 3-142
cobol_$coms_charcnt                    external static fixed bin(17,0)          dcl 3-188
cobol_$coms_wdoff                      external static fixed bin(17,0)          dcl 3-202
cobol_$con_end_ptr                     external static pointer                  dcl 3-10
cobol_$con_wd_off                      external static fixed bin(17,0)          dcl 3-92
cobol_$cons_charcnt                    external static fixed bin(17,0)          dcl 3-192
cobol_$constant_offset                 external static fixed bin(17,0)          dcl 3-156
cobol_$data_init_flag                  external static fixed bin(17,0)          dcl 3-130
cobol_$date_compiled_sw                external static fixed bin(17,0)          dcl 3-180
cobol_$debug_enable                    external static fixed bin(17,0)          dcl 3-174
cobol_$diag_ptr                        external static pointer                  dcl 3-70
cobol_$eln_max                         external static fixed bin(17,0)          dcl 3-172
cobol_$eln_ptr                         external static pointer                  dcl 3-68
cobol_$fixup_max                       external static fixed bin(17,0)          dcl 3-164
cobol_$fixup_ptr                       external static pointer                  dcl 3-30
cobol_$fs_charcnt                      external static fixed bin(17,0)          dcl 3-184
cobol_$fs_wdoff                        external static fixed bin(17,0)          dcl 3-198
cobol_$include_cnt                     external static fixed bin(17,0)          dcl 3-182
cobol_$include_info_ptr                external static pointer                  dcl 3-86
cobol_$init_stack_off                  external static fixed bin(17,0)          dcl 3-124
cobol_$initval_base_ptr                external static pointer                  dcl 3-32
cobol_$initval_file_ptr                external static pointer                  dcl 3-34
cobol_$initval_flag                    external static fixed bin(17,0)          dcl 3-178
cobol_$link_base_ptr                   external static pointer                  dcl 3-14
cobol_$link_max                        external static fixed bin(17,0)          dcl 3-100
cobol_$link_wd_off                     external static fixed bin(17,0)          dcl 3-98
cobol_$list_off                        external static fixed bin(17,0)          dcl 3-154
cobol_$list_ptr                        external static pointer                  dcl 3-64
cobol_$ls_charcnt                      external static fixed bin(17,0)          dcl 3-190
cobol_$main_pcs_ptr                    external static pointer                  dcl 3-84
cobol_$map_data_max                    external static fixed bin(17,0)          dcl 3-162
cobol_$map_data_ptr                    external static pointer                  dcl 3-54
cobol_$max_stack_off                   external static fixed bin(17,0)          dcl 3-122
cobol_$minpral5_ptr                    external static pointer                  dcl 3-50
cobol_$misc_base_ptr                   external static pointer                  dcl 3-60
cobol_$misc_end_ptr                    external static pointer                  dcl 3-62
cobol_$misc_max                        external static fixed bin(17,0)          dcl 3-158
cobol_$next_tag                        external static fixed bin(17,0)          dcl 3-128
cobol_$non_source_offset               external static fixed bin(17,0)          dcl 3-176
cobol_$ntbuf_ptr                       external static pointer                  dcl 3-82
cobol_$op_con_ptr                      external static pointer                  dcl 3-80
cobol_$para_eop_flag                   external static fixed bin(17,0)          dcl 3-138
cobol_$pd_map_index                    external static fixed bin(17,0)          dcl 3-116
cobol_$pd_map_max                      external static fixed bin(17,0)          dcl 3-160
cobol_$pd_map_ptr                      external static pointer                  dcl 3-28
cobol_$pd_map_sw                       external static fixed bin(17,0)          dcl 3-126
cobol_$perform_list_ptr                external static pointer                  dcl 3-36
cobol_$perform_para_index              external static fixed bin(17,0)          dcl 3-148
cobol_$perform_sect_index              external static fixed bin(17,0)          dcl 3-150
cobol_$priority_no                     external static fixed bin(17,0)          dcl 3-140
cobol_$ptr_assumption_ind              external static fixed bin(17,0)          dcl 3-144
cobol_$ptr_status_ptr                  external static pointer                  dcl 3-56
cobol_$reg_assumption_ind              external static fixed bin(17,0)          dcl 3-146
cobol_$reg_status_ptr                  external static pointer                  dcl 3-58
cobol_$reloc_def_base_ptr              external static pointer                  dcl 3-20
cobol_$reloc_def_max                   external static fixed bin(24,0)          dcl 3-108
cobol_$reloc_link_base_ptr             external static pointer                  dcl 3-22
cobol_$reloc_link_max                  external static fixed bin(24,0)          dcl 3-110
cobol_$reloc_sym_base_ptr              external static pointer                  dcl 3-24
cobol_$reloc_sym_max                   external static fixed bin(24,0)          dcl 3-112
cobol_$reloc_text_base_ptr             external static pointer                  dcl 3-18
cobol_$reloc_text_max                  external static fixed bin(24,0)          dcl 3-106
cobol_$reloc_work_base_ptr             external static pointer                  dcl 3-26
cobol_$reloc_work_max                  external static fixed bin(24,0)          dcl 3-114
cobol_$reswd_ptr                       external static pointer                  dcl 3-78
cobol_$same_sort_merge_proc            external static bit(1)                   dcl 3-214
cobol_$scratch_dir                     external static char(168)                dcl 3-206
cobol_$sect_eop_flag                   external static fixed bin(17,0)          dcl 3-136
cobol_$seg_init_flag                   external static fixed bin(17,0)          dcl 3-132
cobol_$seg_init_list_ptr               external static pointer                  dcl 3-40
cobol_$stack_off                       external static fixed bin(17,0)          dcl 3-120
cobol_$statement_info_ptr              external static pointer                  dcl 3-76
cobol_$sym_base_ptr                    external static pointer                  dcl 3-16
cobol_$sym_max                         external static fixed bin(17,0)          dcl 3-104
cobol_$sym_wd_off                      external static fixed bin(17,0)          dcl 3-102
cobol_$tag_table_max                   external static fixed bin(17,0)          dcl 3-166
cobol_$tag_table_ptr                   external static pointer                  dcl 3-52
cobol_$temp_token_area_ptr             external static pointer                  dcl 3-42
cobol_$temp_token_max                  external static fixed bin(17,0)          dcl 3-168
cobol_$temp_token_ptr                  external static pointer                  dcl 3-44
cobol_$text_base_ptr                   external static pointer                  dcl 3-8
cobol_$token_block1_ptr                external static pointer                  dcl 3-46
cobol_$token_block2_ptr                external static pointer                  dcl 3-48
cobol_$value_cnt                       external static fixed bin(17,0)          dcl 3-194
cobol_$ws_charcnt                      external static fixed bin(17,0)          dcl 3-186
cobol_$ws_wdoff                        external static fixed bin(17,0)          dcl 3-200
cobol_$xref_bypass                     external static bit(1)                   dcl 3-212
cobol_$xref_chain_ptr                  external static pointer                  dcl 3-74
cobol_$xref_token_ptr                  external static pointer                  dcl 3-72
cobol_afp                              defined         pointer                  dcl 6-11
cobol_analin_fileno                    defined         pointer                  dcl 6-13
cobol_cmfp                             defined         pointer                  dcl 6-21
cobol_com_fileno                       defined         pointer                  dcl 6-23
cobol_curr_in                          defined         pointer                  dcl 6-53
cobol_curr_out                         defined         pointer                  dcl 6-55
cobol_data_wd_off                      defined         fixed bin(17,0)          dcl 3-119
cobol_dfp                              defined         pointer                  dcl 6-27
cobol_eltp                             defined         pointer                  dcl 6-19
cobol_ext_$cobol_afp                   external static pointer                  dcl 6-10
cobol_ext_$cobol_analin_fileno         external static pointer                  dcl 6-12
cobol_ext_$cobol_cmfp                  external static pointer                  dcl 6-20
cobol_ext_$cobol_com_fileno            external static pointer                  dcl 6-22
cobol_ext_$cobol_curr_in               external static pointer                  dcl 6-52
cobol_ext_$cobol_curr_out              external static pointer                  dcl 6-54
cobol_ext_$cobol_dfp                   external static pointer                  dcl 6-26
cobol_ext_$cobol_eltp                  external static pointer                  dcl 6-18
cobol_ext_$cobol_fileno1               external static fixed bin(24,0)          dcl 6-78
cobol_ext_$cobol_hfp                   external static pointer                  dcl 6-28
cobol_ext_$cobol_lpr                   external static char(5)                  packed unaligned dcl 6-95
cobol_ext_$cobol_m1fp                  external static pointer                  dcl 6-30
cobol_ext_$cobol_m2fp                  external static pointer                  dcl 6-32
cobol_ext_$cobol_min1_fileno           external static pointer                  dcl 6-34
cobol_ext_$cobol_min2_fileno_ptr       external static pointer                  dcl 6-36
cobol_ext_$cobol_name_fileno           external static pointer                  dcl 6-38
cobol_ext_$cobol_name_fileno_ptr       external static pointer                  dcl 6-40
cobol_ext_$cobol_ntfp                  external static pointer                  dcl 6-42
cobol_ext_$cobol_options               external static char(120)                packed unaligned dcl 6-97
cobol_ext_$cobol_options_len           external static fixed bin(24,0)          dcl 6-80
cobol_ext_$cobol_pdofp                 external static pointer                  dcl 6-44
cobol_ext_$cobol_pdout_fileno          external static fixed bin(24,0)          dcl 6-82
cobol_ext_$cobol_pfp                   external static pointer                  dcl 6-46
cobol_ext_$cobol_print_fileno          external static fixed bin(24,0)          dcl 6-84
cobol_ext_$cobol_rm2fp                 external static pointer                  dcl 6-48
cobol_ext_$cobol_rmin2_fileno          external static fixed bin(24,0)          dcl 6-86
cobol_ext_$cobol_rmin2fp               external static pointer                  dcl 6-50
cobol_ext_$cobol_rwdd                  external static pointer                  dcl 6-72
cobol_ext_$cobol_rwpd                  external static pointer                  dcl 6-74
cobol_ext_$cobol_sfp                   external static pointer                  dcl 6-56
cobol_ext_$cobol_w1p                   external static pointer                  dcl 6-58
cobol_ext_$cobol_w2p                   external static pointer                  dcl 6-60
cobol_ext_$cobol_w3p                   external static pointer                  dcl 6-62
cobol_ext_$cobol_w5p                   external static pointer                  dcl 6-64
cobol_ext_$cobol_w6p                   external static pointer                  dcl 6-66
cobol_ext_$cobol_w7p                   external static pointer                  dcl 6-68
cobol_ext_$cobol_x1_fileno             external static fixed bin(24,0)          dcl 6-88
cobol_ext_$cobol_x2_fileno             external static fixed bin(24,0)          dcl 6-90
cobol_ext_$cobol_x3_fileno             external static fixed bin(24,0)          dcl 6-92
cobol_ext_$cobol_x3fp                  external static pointer                  dcl 6-70
cobol_ext_$cobol_xlast8                external static bit(1)                   packed unaligned dcl 6-100
cobol_ext_$report_exists               external static bit(1)                   packed unaligned dcl 6-102
cobol_ext_$report_first_token          external static pointer                  dcl 6-14
cobol_ext_$report_last_token           external static pointer                  dcl 6-16
cobol_fileno1                          defined         fixed bin(24,0)          dcl 6-79
cobol_hfp                              defined         pointer                  dcl 6-29
cobol_lpr                              defined         char(5)                  packed unaligned dcl 6-96
cobol_m1fp                             defined         pointer                  dcl 6-31
cobol_m2fp                             defined         pointer                  dcl 6-33
cobol_min1_fileno                      defined         pointer                  dcl 6-35
cobol_min2_fileno_ptr                  defined         pointer                  dcl 6-37
cobol_name_fileno                      defined         pointer                  dcl 6-39
cobol_name_fileno_ptr                  defined         pointer                  dcl 6-41
cobol_ntfp                             defined         pointer                  dcl 6-43
cobol_options                          defined         char(120)                packed unaligned dcl 6-98
cobol_options_len                      defined         fixed bin(24,0)          dcl 6-81
cobol_pdofp                            defined         pointer                  dcl 6-45
cobol_pdout_fileno                     defined         fixed bin(24,0)          dcl 6-83
cobol_pfp                              defined         pointer                  dcl 6-47
cobol_print_fileno                     defined         fixed bin(24,0)          dcl 6-85
cobol_rm2fp                            defined         pointer                  dcl 6-49
cobol_rmin2_fileno                     defined         fixed bin(24,0)          dcl 6-87
cobol_rmin2fp                          defined         pointer                  dcl 6-51
cobol_rwdd                             defined         pointer                  dcl 6-73
cobol_rwpd                             defined         pointer                  dcl 6-75
cobol_sfp                              defined         pointer                  dcl 6-57
cobol_w1p                              defined         pointer                  dcl 6-59
cobol_w2p                              defined         pointer                  dcl 6-61
cobol_w3p                              defined         pointer                  dcl 6-63
cobol_w5p                              defined         pointer                  dcl 6-65
cobol_w6p                              defined         pointer                  dcl 6-67
cobol_w7p                              defined         pointer                  dcl 6-69
cobol_x1_fileno                        defined         fixed bin(24,0)          dcl 6-89
cobol_x2_fileno                        defined         fixed bin(24,0)          dcl 6-91
cobol_x3_fileno                        defined         fixed bin(24,0)          dcl 6-93
cobol_x3fp                             defined         pointer                  dcl 6-71
cobol_xlast8                           defined         bit(1)                   packed unaligned dcl 6-101
compile_count                          defined         fixed bin(17,0)          dcl 3-143
coms_charcnt                           defined         fixed bin(17,0)          dcl 3-189
coms_wdoff                             defined         fixed bin(17,0)          dcl 3-203
con_end_ptr                            defined         pointer                  dcl 3-11
con_wd_off                             defined         fixed bin(17,0)          dcl 3-93
cons_charcnt                           defined         fixed bin(17,0)          dcl 3-193
constant_offset                        defined         fixed bin(17,0)          dcl 3-157
data_init_flag                         defined         fixed bin(17,0)          dcl 3-131
date_compiled_sw                       defined         fixed bin(17,0)          dcl 3-181
debug_enable                           defined         fixed bin(17,0)          dcl 3-175
def_max                                defined         fixed bin(17,0)          dcl 3-97
diag_ptr                               defined         pointer                  dcl 3-71
eln_max                                defined         fixed bin(17,0)          dcl 3-173
eln_ptr                                defined         pointer                  dcl 3-69
fixed                                                  builtin function         dcl 216
fixup_max                              defined         fixed bin(17,0)          dcl 3-165
fixup_ptr                              defined         pointer                  dcl 3-31
fs_charcnt                             defined         fixed bin(17,0)          dcl 3-185
fs_wdoff                               defined         fixed bin(17,0)          dcl 3-199
include_cnt                            defined         fixed bin(17,0)          dcl 3-183
include_info_ptr                       defined         pointer                  dcl 3-87
index                                                  builtin function         dcl 216
init_stack_off                         defined         fixed bin(17,0)          dcl 3-125
initval_base_ptr                       defined         pointer                  dcl 3-33
initval_file_ptr                       defined         pointer                  dcl 3-35
initval_flag                           defined         fixed bin(17,0)          dcl 3-179
length                                                 builtin function         dcl 216
link_base_ptr                          defined         pointer                  dcl 3-15
link_max                               defined         fixed bin(17,0)          dcl 3-101
link_wd_off                            defined         fixed bin(17,0)          dcl 3-99
list_off                               defined         fixed bin(17,0)          dcl 3-155
list_ptr                               defined         pointer                  dcl 3-65
ln_nm                                  automatic       fixed bin(17,0)          array dcl 154
ls_charcnt                             defined         fixed bin(17,0)          dcl 3-191
main_pcs_ptr                           defined         pointer                  dcl 3-85
map_data_max                           defined         fixed bin(17,0)          dcl 3-163
map_data_ptr                           defined         pointer                  dcl 3-55
max_stack_off                          defined         fixed bin(17,0)          dcl 3-123
minpral5_ptr                           defined         pointer                  dcl 3-51
misc_base_ptr                          defined         pointer                  dcl 3-61
misc_end_ptr                           defined         pointer                  dcl 3-63
misc_max                               defined         fixed bin(17,0)          dcl 3-159
mod                                                    builtin function         dcl 216
n_con                                  automatic       fixed bin(17,0)          dcl 154
n_off                                  automatic       fixed bin(17,0)          dcl 154
name                                   automatic       char(32)                 array packed unaligned dcl 154
next_tag                               defined         fixed bin(17,0)          dcl 3-129
non_source_offset                      defined         fixed bin(17,0)          dcl 3-177
ntbuf_ptr                              defined         pointer                  dcl 3-83
obj_seg_name                           defined         char(32)                 dcl 3-209
offset                                 automatic       fixed bin(17,0)          dcl 154
op_con_ptr                             defined         pointer                  dcl 3-81
para_eop_flag                          defined         fixed bin(17,0)          dcl 3-139
pd_map_index                           defined         fixed bin(17,0)          dcl 3-117
pd_map_max                             defined         fixed bin(17,0)          dcl 3-161
pd_map_ptr                             defined         pointer                  dcl 3-29
pd_map_sw                              defined         fixed bin(17,0)          dcl 3-127
perform_list_ptr                       defined         pointer                  dcl 3-37
perform_para_index                     defined         fixed bin(17,0)          dcl 3-149
perform_sect_index                     defined         fixed bin(17,0)          dcl 3-151
priority_no                            defined         fixed bin(17,0)          dcl 3-141
ptr_assumption_ind                     defined         fixed bin(17,0)          dcl 3-145
ptr_status_ptr                         defined         pointer                  dcl 3-57
reg_assumption_ind                     defined         fixed bin(17,0)          dcl 3-147
reg_status_ptr                         defined         pointer                  dcl 3-59
rel                                                    builtin function         dcl 216
reloc_def_base_ptr                     defined         pointer                  dcl 3-21
reloc_def_max                          defined         fixed bin(24,0)          dcl 3-109
reloc_link_base_ptr                    defined         pointer                  dcl 3-23
reloc_link_max                         defined         fixed bin(24,0)          dcl 3-111
reloc_sym_base_ptr                     defined         pointer                  dcl 3-25
reloc_sym_max                          defined         fixed bin(24,0)          dcl 3-113
reloc_text_base_ptr                    defined         pointer                  dcl 3-19
reloc_text_max                         defined         fixed bin(24,0)          dcl 3-107
reloc_work_base_ptr                    defined         pointer                  dcl 3-27
reloc_work_max                         defined         fixed bin(24,0)          dcl 3-115
report_exists                          defined         bit(1)                   packed unaligned dcl 6-103
report_first_token                     defined         pointer                  dcl 6-15
report_last_token                      defined         pointer                  dcl 6-17
reswd_ptr                              defined         pointer                  dcl 3-79
same_sort_merge_proc                   defined         bit(1)                   dcl 3-215
scratch_dir                            defined         char(168)                dcl 3-207
sect_eop_flag                          defined         fixed bin(17,0)          dcl 3-137
seg_init_flag                          defined         fixed bin(17,0)          dcl 3-133
seg_init_list_ptr                      defined         pointer                  dcl 3-41
segname                                based           structure                level 1 dcl 4-43
stack_off                              defined         fixed bin(17,0)          dcl 3-121
statement_info_ptr                     defined         pointer                  dcl 3-77
sym_base_ptr                           defined         pointer                  dcl 3-17
sym_max                                defined         fixed bin(17,0)          dcl 3-105
sym_wd_off                             defined         fixed bin(17,0)          dcl 3-103
tag_table_max                          defined         fixed bin(17,0)          dcl 3-167
tag_table_ptr                          defined         pointer                  dcl 3-53
temp_token_area_ptr                    defined         pointer                  dcl 3-43
temp_token_max                         defined         fixed bin(17,0)          dcl 3-169
temp_token_ptr                         defined         pointer                  dcl 3-45
text_base_ptr                          defined         pointer                  dcl 3-9
text_wd_off                            defined         fixed bin(17,0)          dcl 3-91
token_block1_ptr                       defined         pointer                  dcl 3-47
token_block2_ptr                       defined         pointer                  dcl 3-49
value_cnt                              defined         fixed bin(17,0)          dcl 3-195
ws_charcnt                             defined         fixed bin(17,0)          dcl 3-187
ws_wdoff                               defined         fixed bin(17,0)          dcl 3-201
xref_bypass                            defined         bit(1)                   dcl 3-213
xref_chain_ptr                         defined         pointer                  dcl 3-75
xref_token_ptr                         defined         pointer                  dcl 3-73

NAMES DECLARED BY EXPLICIT CONTEXT.
cobol_def_util                  000024 constant        entry                    external dcl 29
def_error_loop                  000217 constant        label                    dcl 83 ref 87
opd_of                          000037 constant        label                    dcl 40 ref 42

THERE WERE NO NAMES DECLARED BY CONTEXT OR IMPLICATION.

STORAGE REQUIREMENTS FOR THIS PROGRAM.

	Object	Text	Link	Symbol	Defs	Static
Start          0       0       734        1140     577         744
Length      1452     577       204         275     134         150

BLOCK NAME	         STACK SIZE     TYPE		WHY NONQUICK/WHO SHARES STACK FRAME
cobol_def_util                      363 external procedure  is an external procedure.

STORAGE FOR INTERNAL STATIC VARIABLES.

   LOC IDENTIFIER                  BLOCK NAME
000010 work_spaces                 cobol_def_util
000110 reloc_cl0_def_fixed         cobol_def_util
000116 def_ovfl_error              cobol_def_util
000140 oprnd_ovfl                  cobol_def_util

STORAGE FOR AUTOMATIC VARIABLES.

STACK FRAME                 LOC IDENTIFIER                  BLOCK NAME
cobol_def_util           000100 LOC                         cobol_def_util
                         000101 arg_reloc_code              cobol_def_util
                         000502 class0_def_len              cobol_def_util
                         000503 ep_acc_wd_len               cobol_def_util
                         000504 ep_acc_relp                 cobol_def_util
                         000505 arg_desc_off                cobol_def_util
                         000506 i                           cobol_def_util
                         000510 temp_ptr                    cobol_def_util
                         000512 temp_thread                 cobol_def_util
                         000513 temp                        cobol_def_util
                         000514 temp1                       cobol_def_util
                         000516 parm_desc_ptr               cobol_def_util
                         000520 def_ptr                     cobol_def_util

THE FOLLOWING EXTERNAL OPERATORS ARE USED BY THIS PROGRAM.
alloc_char_temp     call_ext_out_desc   call_ext_out        return_mac          shorten_stack       ext_entry

THE FOLLOWING EXTERNAL ENTRIES ARE CALLED BY THIS PROGRAM.
cobol_arg_descriptor$type9    cobol_pool                    cobol_reloc                   signal_

THE FOLLOWING EXTERNAL VARIABLES ARE USED BY THIS PROGRAM.
cobol_$def_base_ptr           cobol_$def_max                cobol_$def_wd_off             cobol_$obj_seg_name
cobol_$text_wd_off            cobol_ext_$cobol_com_ptr


   LINE    LOC      LINE    LOC      LINE    LOC      LINE    LOC      LINE    LOC      LINE    LOC      LINE    LOC
     29 000016        35 000031        37 000033        40 000037        42 000067        45 000070        47 000075
     49 000103        50 000104        51 000106        53 000107        54 000114        60 000117        61 000126
     63 000134        65 000136        66 000141        67 000143        68 000152        70 000153        73 000165
     74 000166        75 000173        77 000174        78 000201        79 000206        81 000214        83 000217
     86 000223        87 000252        90 000253        91 000256        93 000262        95 000265        96 000271
     97 000275        98 000302        99 000304       100 000307       102 000311       104 000331       107 000342
    108 000345       109 000351       111 000352       113 000361       116 000374       118 000413       119 000421
    120 000424       122 000426       124 000451       125 000456       127 000506       128 000511       132 000517
    134 000521       135 000525       136 000530       138 000537       142 000561       145 000565       146 000571
    147 000573       151 000575


                                          -----------------------------------------------------------


Historical Background

This edition of the Multics software materials and documentation is provided and donated
to Massachusetts Institute of Technology by Group BULL including BULL HN Information Systems Inc.
as a contribution to computer science knowledge.
This donation is made also to give evidence of the common contributions of Massachusetts Institute of Technology,
Bell Laboratories, General Electric, Honeywell Information Systems Inc., Honeywell BULL Inc., Groupe BULL
and BULL HN Information Systems Inc. to the development of this operating system.
Multics development was initiated by Massachusetts Institute of Technology Project MAC (1963-1970),
renamed the MIT Laboratory for Computer Science and Artificial Intelligence in the mid 1970s, under the leadership
of Professor Fernando Jose Corbato. Users consider that Multics provided the best software architecture
for managing computer hardware properly and for executing programs. Many subsequent operating systems
incorporated Multics principles.
Multics was distributed in 1975 to 2000 by Group Bull in Europe , and in the U.S. by Bull HN Information Systems Inc.,
as successor in interest by change in name only to Honeywell Bull Inc. and Honeywell Information Systems Inc. .

                                          -----------------------------------------------------------

Permission to use, copy, modify, and distribute these programs and their documentation for any purpose and without
fee is hereby granted,provided that the below copyright notice and historical background appear in all copies
and that both the copyright notice and historical background and this permission notice appear in supporting
documentation, and that the names of MIT, HIS, BULL or BULL HN not be used in advertising or publicity pertaining
to distribution of the programs without specific prior written permission.
    Copyright 1972 by Massachusetts Institute of Technology and Honeywell Information Systems Inc.
    Copyright 2006 by BULL HN Information Systems Inc.
    Copyright 2006 by Bull SAS
    All Rights Reserved
