ASSEMBLY LISTING OF SEGMENT >udd>sm>ds>w>ml>cobol_.alm
ASSEMBLED ON:	04/18/00  1132.6 mdt Tue
OPTIONS USED:	list symbols
ASSEMBLED BY:	ALM Version 8.14 March 1989
ASSEMBLER CREATED:	06/09/89  1102.3 mdt Fri

                                     1  " ***********************************************************
                                     2  " *                                                         *
                                     3  " * Copyright, (C) Honeywell Information Systems Inc., 1982 *
                                     4  " *                                                         *
                                     5  " ***********************************************************
                                     6  "	cobol_
                                     7  "	External data for cobol compiler
                                     8  "	bindable as static internal
                                     9
    000000                          10  	name	cobol_
                                    11  	use	textc
                                    12  	use	linkc
                                    13  	join	/link/linkc
                                    14  	join	/text/textc
                                    15  	use	linkc
                                    16  	even
                                    17  "	DECLARATIONS...
                        000010      18  	segdef	text_base_ptr
    000010                          19  	bss	text_base_ptr,2
                        000012      20  	segdef	con_end_ptr
    000012                          21  	bss	con_end_ptr,2
                        000014      22  	segdef	def_base_ptr
    000014                          23  	bss	def_base_ptr,2
                        000016      24  	segdef	link_base_ptr
    000016                          25  	bss	link_base_ptr,2
                        000020      26  	segdef	sym_base_ptr
    000020                          27  	bss	sym_base_ptr,2
                        000022      28  	segdef	reloc_text_base_ptr
    000022                          29  	bss	reloc_text_base_ptr,2
                        000024      30  	segdef	reloc_def_base_ptr
    000024                          31  	bss	reloc_def_base_ptr,2
                        000026      32  	segdef	reloc_link_base_ptr
    000026                          33  	bss	reloc_link_base_ptr,2
                        000030      34  	segdef	reloc_sym_base_ptr
    000030                          35  	bss	reloc_sym_base_ptr,2
                        000032      36  	segdef	reloc_work_base_ptr
    000032                          37  	bss	reloc_work_base_ptr,2
                        000034      38  	segdef	pd_map_ptr
    000034                          39  	bss	pd_map_ptr,2
                        000036      40  	segdef	fixup_ptr
    000036                          41  	bss	fixup_ptr,2
                        000040      42  	segdef	initval_base_ptr
    000040                          43  	bss	initval_base_ptr,2
                        000042      44  	segdef	initval_file_ptr
    000042                          45  	bss	initval_file_ptr,2
                        000044      46  	segdef	perform_list_ptr
    000044                          47  	bss	perform_list_ptr,2
                        000046      48  	segdef	alter_list_ptr
    000046                          49  	bss	alter_list_ptr,2
                        000050      50  	segdef	seg_init_list_ptr
    000050                          51  	bss	seg_init_list_ptr,2
                        000052      52  	segdef	temp_token_area_ptr
    000052                          53  	bss	temp_token_area_ptr,2
                        000054      54  	segdef	temp_token_ptr
    000054                          55  	bss	temp_token_ptr,2
                        000056      56  	segdef	token_block1_ptr
    000056                          57  	bss	token_block1_ptr,2
                        000060      58  	segdef	token_block2_ptr
    000060                          59  	bss	token_block2_ptr,2
                        000062      60  	segdef	minpral5_ptr
    000062                          61  	bss	minpral5_ptr,2
                        000064      62  	segdef	tag_table_ptr
    000064                          63  	bss	tag_table_ptr,2
                        000066      64  	segdef	map_data_ptr
    000066                          65  	bss	map_data_ptr,2
                        000070      66  	segdef	ptr_status_ptr
    000070                          67  	bss	ptr_status_ptr,2
                        000072      68  	segdef	reg_status_ptr
    000072                          69  	bss	reg_status_ptr,2
                        000074      70  	segdef	misc_base_ptr
    000074                          71  	bss	misc_base_ptr,2
                        000076      72  	segdef	misc_end_ptr
    000076                          73  	bss	misc_end_ptr,2
                        000100      74  	segdef	list_ptr
    000100                          75  	bss	list_ptr,2
                        000102      76  	segdef	allo1_ptr
    000102                          77  	bss	allo1_ptr,2
                        000104      78  	segdef	eln_ptr
    000104                          79  	bss	eln_ptr,2
                        000106      80  	segdef	diag_ptr
    000106                          81  	bss	diag_ptr,2
                        000110      82  	segdef	xref_token_ptr
    000110                          83  	bss	xref_token_ptr,2
                        000112      84  	segdef	xref_chain_ptr
    000112                          85  	bss	xref_chain_ptr,2
                        000114      86  	segdef	statement_info_ptr
    000114                          87  	bss	statement_info_ptr,2
                        000116      88  	segdef	reswd_ptr
    000116                          89  	bss	reswd_ptr,2
                        000120      90  	segdef	op_con_ptr
    000120                          91  	bss	op_con_ptr,2
                        000122      92  	segdef	ntbuf_ptr
    000122                          93  	bss	ntbuf_ptr,2
                        000124      94  	segdef	main_pcs_ptr
    000124                          95  	bss	main_pcs_ptr,2
                        000126      96  	segdef	include_info_ptr
    000126                          97  	bss	include_info_ptr,2
                        000130      98  	segdef	text_wd_off
    000130                          99  	bss	text_wd_off,1
                        000131     100  	segdef	con_wd_off
    000131                         101  	bss	con_wd_off,1
                        000132     102  	segdef	def_wd_off
    000132                         103  	bss	def_wd_off,1
                        000133     104  	segdef	def_max
    000133                         105  	bss	def_max,1
                        000134     106  	segdef	link_wd_off
    000134                         107  	bss	link_wd_off,1
                        000135     108  	segdef	link_max
    000135                         109  	bss	link_max,1
                        000136     110  	segdef	sym_wd_off
    000136                         111  	bss	sym_wd_off,1
                        000137     112  	segdef	sym_max
    000137                         113  	bss	sym_max,1
                        000140     114  	segdef	reloc_text_max
    000140                         115  	bss	reloc_text_max,1
                        000141     116  	segdef	reloc_def_max
    000141                         117  	bss	reloc_def_max,1
                        000142     118  	segdef	reloc_link_max
    000142                         119  	bss	reloc_link_max,1
                        000143     120  	segdef	reloc_sym_max
    000143                         121  	bss	reloc_sym_max,1
                        000144     122  	segdef	reloc_work_max
    000144                         123  	bss	reloc_work_max,1
                        000145     124  	segdef	pd_map_index
    000145                         125  	bss	pd_map_index,1
                        000146     126  	segdef	cobol_data_wd_off
    000146                         127  	bss	cobol_data_wd_off,1
                        000147     128  	segdef	stack_off
    000147                         129  	bss	stack_off,1
                        000150     130  	segdef	max_stack_off
    000150                         131  	bss	max_stack_off,1
                        000151     132  	segdef	init_stack_off
    000151                         133  	bss	init_stack_off,1
                        000152     134  	segdef	pd_map_sw
    000152                         135  	bss	pd_map_sw,1
                        000153     136  	segdef	next_tag
    000153                         137  	bss	next_tag,1
                        000154     138  	segdef	data_init_flag
    000154                         139  	bss	data_init_flag,1
                        000155     140  	segdef	seg_init_flag
    000155                         141  	bss	seg_init_flag,1
                        000156     142  	segdef	alter_flag
    000156                         143  	bss	alter_flag,1
                        000157     144  	segdef	sect_eop_flag
    000157                         145  	bss	sect_eop_flag,1
                        000160     146  	segdef	para_eop_flag
    000160                         147  	bss	para_eop_flag,1
                        000161     148  	segdef	priority_no
    000161                         149  	bss	priority_no,1
                        000162     150  	segdef	compile_count
    000162                         151  	bss	compile_count,1
                        000163     152  	segdef	ptr_assumption_ind
    000163                         153  	bss	ptr_assumption_ind,1
                        000164     154  	segdef	reg_assumption_ind
    000164                         155  	bss	reg_assumption_ind,1
                        000165     156  	segdef	perform_para_index
    000165                         157  	bss	perform_para_index,1
                        000166     158  	segdef	perform_sect_index
    000166                         159  	bss	perform_sect_index,1
                        000167     160  	segdef	alter_index
    000167                         161  	bss	alter_index,1
                        000170     162  	segdef	list_off
    000170                         163  	bss	list_off,1
                        000171     164  	segdef	constant_offset
    000171                         165  	bss	constant_offset,1
                        000172     166  	segdef	misc_max
    000172                         167  	bss	misc_max,1
                        000173     168  	segdef	pd_map_max
    000173                         169  	bss	pd_map_max,1
                        000174     170  	segdef	map_data_max
    000174                         171  	bss	map_data_max,1
                        000175     172  	segdef	fixup_max
    000175                         173  	bss	fixup_max,1
                        000176     174  	segdef	tag_table_max
    000176                         175  	bss	tag_table_max,1
                        000177     176  	segdef	temp_token_max
    000177                         177  	bss	temp_token_max,1
                        000200     178  	segdef	allo1_max
    000200                         179  	bss	allo1_max,1
                        000201     180  	segdef	eln_max
    000201                         181  	bss	eln_max,1
                        000202     182  	segdef	debug_enable
    000202                         183  	bss	debug_enable,1
                        000203     184  	segdef	non_source_offset
    000203                         185  	bss	non_source_offset,1
                        000204     186  	segdef	initval_flag
    000204                         187  	bss	initval_flag,1
                        000205     188  	segdef	date_compiled_sw
    000205                         189  	bss	date_compiled_sw,1
                        000206     190  	segdef	include_cnt
    000206                         191  	bss	include_cnt,1
                        000207     192  	segdef	fs_charcnt
    000207                         193  	bss	fs_charcnt,1
                        000210     194  	segdef	ws_charcnt
    000210                         195  	bss	ws_charcnt,1
                        000211     196  	segdef	coms_charcnt
    000211                         197  	bss	coms_charcnt,1
                        000212     198  	segdef	ls_charcnt
    000212                         199  	bss	ls_charcnt,1
                        000213     200  	segdef	cons_charcnt
    000213                         201  	bss	cons_charcnt,1
                        000214     202  	segdef	value_cnt
    000214                         203  	bss	value_cnt,1
                        000215     204  	segdef	cd_cnt
    000215                         205  	bss	cd_cnt,1
                        000216     206  	segdef	fs_wdoff
    000216                         207  	bss	fs_wdoff,1
                        000217     208  	segdef	ws_wdoff
    000217                         209  	bss	ws_wdoff,1
                        000220     210  	segdef	coms_wdoff
    000220                         211  	bss	coms_wdoff,1
                        000221     212  	segdef	scratch_dir
    000221                         213  	bss	scratch_dir,42
                        000273     214  	segdef	obj_seg_name
    000273                         215  	bss	obj_seg_name,8
                        000303     216  	segdef	xref_bypass
    000303                         217  	bss	xref_bypass,1
                        000304     218  	segdef	same_sort_merge_proc
    000304                         219  	bss	same_sort_merge_proc,1
                                   220
                                   221  	end

NO LITERALS

NAME DEFINITIONS FOR ENTRY POINTS AND SEGDEFS

    000000  5a   000003 000000
    000001  5a   001273 600000
    000002  aa   000000 000000
    000003  55   000010 000002
    000004  5a   000002 400003
    000005  55   000006 000010
    000006  aa  006 143 157 142
    000007  aa  157 154 137 000
    000010  55   000021 000003
    000011  2a   000304 400001
    000012  55   000013 000003
    000013  aa  024 163 141 155         same_sort_merge_proc
    000014  aa  145 137 163 157
    000015  aa  162 164 137 155
    000016  aa  145 162 147 145
    000017  aa  137 160 162 157
    000020  aa  143 000 000 000
    000021  55   000027 000010
    000022  2a   000303 400001
    000023  55   000024 000003
    000024  aa  013 170 162 145         xref_bypass
    000025  aa  146 137 142 171
    000026  aa  160 141 163 163
    000027  55   000036 000021
    000030  2a   000273 400001
    000031  55   000032 000003
    000032  aa  014 157 142 152         obj_seg_name
    000033  aa  137 163 145 147
    000034  aa  137 156 141 155
    000035  aa  145 000 000 000
    000036  55   000044 000027
    000037  2a   000221 400001
    000040  55   000041 000003
    000041  aa  013 163 143 162         scratch_dir
    000042  aa  141 164 143 150
    000043  aa  137 144 151 162
    000044  55   000052 000036
    000045  2a   000220 400001
    000046  55   000047 000003
    000047  aa  012 143 157 155         coms_wdoff
    000050  aa  163 137 167 144
    000051  aa  157 146 146 000
    000052  55   000060 000044
    000053  2a   000217 400001
    000054  55   000055 000003
    000055  aa  010 167 163 137         ws_wdoff
    000056  aa  167 144 157 146
    000057  aa  146 000 000 000
    000060  55   000066 000052
    000061  2a   000216 400001
    000062  55   000063 000003
    000063  aa  010 146 163 137         fs_wdoff
    000064  aa  167 144 157 146
    000065  aa  146 000 000 000
    000066  55   000073 000060
    000067  2a   000215 400001
    000070  55   000071 000003
    000071  aa  006 143 144 137         cd_cnt
    000072  aa  143 156 164 000
    000073  55   000101 000066
    000074  2a   000214 400001
    000075  55   000076 000003
    000076  aa  011 166 141 154         value_cnt
    000077  aa  165 145 137 143
    000100  aa  156 164 000 000
    000101  55   000110 000073
    000102  2a   000213 400001
    000103  55   000104 000003
    000104  aa  014 143 157 156         cons_charcnt
    000105  aa  163 137 143 150
    000106  aa  141 162 143 156
    000107  aa  164 000 000 000
    000110  55   000116 000101
    000111  2a   000212 400001
    000112  55   000113 000003
    000113  aa  012 154 163 137         ls_charcnt
    000114  aa  143 150 141 162
    000115  aa  143 156 164 000
    000116  55   000125 000110
    000117  2a   000211 400001
    000120  55   000121 000003
    000121  aa  014 143 157 155         coms_charcnt
    000122  aa  163 137 143 150
    000123  aa  141 162 143 156
    000124  aa  164 000 000 000
    000125  55   000133 000116
    000126  2a   000210 400001
    000127  55   000130 000003
    000130  aa  012 167 163 137         ws_charcnt
    000131  aa  143 150 141 162
    000132  aa  143 156 164 000
    000133  55   000141 000125
    000134  2a   000207 400001
    000135  55   000136 000003
    000136  aa  012 146 163 137         fs_charcnt
    000137  aa  143 150 141 162
    000140  aa  143 156 164 000
    000141  55   000147 000133
    000142  2a   000206 400001
    000143  55   000144 000003
    000144  aa  013 151 156 143         include_cnt
    000145  aa  154 165 144 145
    000146  aa  137 143 156 164
    000147  55   000157 000141
    000150  2a   000205 400001
    000151  55   000152 000003
    000152  aa  020 144 141 164         date_compiled_sw
    000153  aa  145 137 143 157
    000154  aa  155 160 151 154
    000155  aa  145 144 137 163
    000156  aa  167 000 000 000
    000157  55   000166 000147
    000160  2a   000204 400001
    000161  55   000162 000003
    000162  aa  014 151 156 151         initval_flag
    000163  aa  164 166 141 154
    000164  aa  137 146 154 141
    000165  aa  147 000 000 000
    000166  55   000176 000157
    000167  2a   000203 400001
    000170  55   000171 000003
    000171  aa  021 156 157 156         non_source_offset
    000172  aa  137 163 157 165
    000173  aa  162 143 145 137
    000174  aa  157 146 146 163
    000175  aa  145 164 000 000
    000176  55   000205 000166
    000177  2a   000202 400001
    000200  55   000201 000003
    000201  aa  014 144 145 142         debug_enable
    000202  aa  165 147 137 145
    000203  aa  156 141 142 154
    000204  aa  145 000 000 000
    000205  55   000212 000176
    000206  2a   000201 400001
    000207  55   000210 000003
    000210  aa  007 145 154 156         eln_max
    000211  aa  137 155 141 170
    000212  55   000220 000205
    000213  2a   000200 400001
    000214  55   000215 000003
    000215  aa  011 141 154 154         allo1_max
    000216  aa  157 061 137 155
    000217  aa  141 170 000 000
    000220  55   000227 000212
    000221  2a   000177 400001
    000222  55   000223 000003
    000223  aa  016 164 145 155         temp_token_max
    000224  aa  160 137 164 157
    000225  aa  153 145 156 137
    000226  aa  155 141 170 000
    000227  55   000236 000220
    000230  2a   000176 400001
    000231  55   000232 000003
    000232  aa  015 164 141 147         tag_table_max
    000233  aa  137 164 141 142
    000234  aa  154 145 137 155
    000235  aa  141 170 000 000
    000236  55   000244 000227
    000237  2a   000175 400001
    000240  55   000241 000003
    000241  aa  011 146 151 170         fixup_max
    000242  aa  165 160 137 155
    000243  aa  141 170 000 000
    000244  55   000253 000236
    000245  2a   000174 400001
    000246  55   000247 000003
    000247  aa  014 155 141 160         map_data_max
    000250  aa  137 144 141 164
    000251  aa  141 137 155 141
    000252  aa  170 000 000 000
    000253  55   000261 000244
    000254  2a   000173 400001
    000255  55   000256 000003
    000256  aa  012 160 144 137         pd_map_max
    000257  aa  155 141 160 137
    000260  aa  155 141 170 000
    000261  55   000267 000253
    000262  2a   000172 400001
    000263  55   000264 000003
    000264  aa  010 155 151 163         misc_max
    000265  aa  143 137 155 141
    000266  aa  170 000 000 000
    000267  55   000276 000261
    000270  2a   000171 400001
    000271  55   000272 000003
    000272  aa  017 143 157 156         constant_offset
    000273  aa  163 164 141 156
    000274  aa  164 137 157 146
    000275  aa  146 163 145 164
    000276  55   000304 000267
    000277  2a   000170 400001
    000300  55   000301 000003
    000301  aa  010 154 151 163         list_off
    000302  aa  164 137 157 146
    000303  aa  146 000 000 000
    000304  55   000312 000276
    000305  2a   000167 400001
    000306  55   000307 000003
    000307  aa  013 141 154 164         alter_index
    000310  aa  145 162 137 151
    000311  aa  156 144 145 170
    000312  55   000322 000304
    000313  2a   000166 400001
    000314  55   000315 000003
    000315  aa  022 160 145 162         perform_sect_index
    000316  aa  146 157 162 155
    000317  aa  137 163 145 143
    000320  aa  164 137 151 156
    000321  aa  144 145 170 000
    000322  55   000332 000312
    000323  2a   000165 400001
    000324  55   000325 000003
    000325  aa  022 160 145 162         perform_para_index
    000326  aa  146 157 162 155
    000327  aa  137 160 141 162
    000330  aa  141 137 151 156
    000331  aa  144 145 170 000
    000332  55   000342 000322
    000333  2a   000164 400001
    000334  55   000335 000003
    000335  aa  022 162 145 147         reg_assumption_ind
    000336  aa  137 141 163 163
    000337  aa  165 155 160 164
    000340  aa  151 157 156 137
    000341  aa  151 156 144 000
    000342  55   000352 000332
    000343  2a   000163 400001
    000344  55   000345 000003
    000345  aa  022 160 164 162         ptr_assumption_ind
    000346  aa  137 141 163 163
    000347  aa  165 155 160 164
    000350  aa  151 157 156 137
    000351  aa  151 156 144 000
    000352  55   000361 000342
    000353  2a   000162 400001
    000354  55   000355 000003
    000355  aa  015 143 157 155         compile_count
    000356  aa  160 151 154 145
    000357  aa  137 143 157 165
    000360  aa  156 164 000 000
    000361  55   000367 000352
    000362  2a   000161 400001
    000363  55   000364 000003
    000364  aa  013 160 162 151         priority_no
    000365  aa  157 162 151 164
    000366  aa  171 137 156 157
    000367  55   000376 000361
    000370  2a   000160 400001
    000371  55   000372 000003
    000372  aa  015 160 141 162         para_eop_flag
    000373  aa  141 137 145 157
    000374  aa  160 137 146 154
    000375  aa  141 147 000 000
    000376  55   000405 000367
    000377  2a   000157 400001
    000400  55   000401 000003
    000401  aa  015 163 145 143         sect_eop_flag
    000402  aa  164 137 145 157
    000403  aa  160 137 146 154
    000404  aa  141 147 000 000
    000405  55   000413 000376
    000406  2a   000156 400001
    000407  55   000410 000003
    000410  aa  012 141 154 164         alter_flag
    000411  aa  145 162 137 146
    000412  aa  154 141 147 000
    000413  55   000422 000405
    000414  2a   000155 400001
    000415  55   000416 000003
    000416  aa  015 163 145 147         seg_init_flag
    000417  aa  137 151 156 151
    000420  aa  164 137 146 154
    000421  aa  141 147 000 000
    000422  55   000431 000413
    000423  2a   000154 400001
    000424  55   000425 000003
    000425  aa  016 144 141 164         data_init_flag
    000426  aa  141 137 151 156
    000427  aa  151 164 137 146
    000430  aa  154 141 147 000
    000431  55   000437 000422
    000432  2a   000153 400001
    000433  55   000434 000003
    000434  aa  010 156 145 170         next_tag
    000435  aa  164 137 164 141
    000436  aa  147 000 000 000
    000437  55   000445 000431
    000440  2a   000152 400001
    000441  55   000442 000003
    000442  aa  011 160 144 137         pd_map_sw
    000443  aa  155 141 160 137
    000444  aa  163 167 000 000
    000445  55   000454 000437
    000446  2a   000151 400001
    000447  55   000450 000003
    000450  aa  016 151 156 151         init_stack_off
    000451  aa  164 137 163 164
    000452  aa  141 143 153 137
    000453  aa  157 146 146 000
    000454  55   000463 000445
    000455  2a   000150 400001
    000456  55   000457 000003
    000457  aa  015 155 141 170         max_stack_off
    000460  aa  137 163 164 141
    000461  aa  143 153 137 157
    000462  aa  146 146 000 000
    000463  55   000471 000454
    000464  2a   000147 400001
    000465  55   000466 000003
    000466  aa  011 163 164 141         stack_off
    000467  aa  143 153 137 157
    000470  aa  146 146 000 000
    000471  55   000501 000463
    000472  2a   000146 400001
    000473  55   000474 000003
    000474  aa  021 143 157 142         cobol_data_wd_off
    000475  aa  157 154 137 144
    000476  aa  141 164 141 137
    000477  aa  167 144 137 157
    000500  aa  146 146 000 000
    000501  55   000510 000471
    000502  2a   000145 400001
    000503  55   000504 000003
    000504  aa  014 160 144 137         pd_map_index
    000505  aa  155 141 160 137
    000506  aa  151 156 144 145
    000507  aa  170 000 000 000
    000510  55   000517 000501
    000511  2a   000144 400001
    000512  55   000513 000003
    000513  aa  016 162 145 154         reloc_work_max
    000514  aa  157 143 137 167
    000515  aa  157 162 153 137
    000516  aa  155 141 170 000
    000517  55   000526 000510
    000520  2a   000143 400001
    000521  55   000522 000003
    000522  aa  015 162 145 154         reloc_sym_max
    000523  aa  157 143 137 163
    000524  aa  171 155 137 155
    000525  aa  141 170 000 000
    000526  55   000535 000517
    000527  2a   000142 400001
    000530  55   000531 000003
    000531  aa  016 162 145 154         reloc_link_max
    000532  aa  157 143 137 154
    000533  aa  151 156 153 137
    000534  aa  155 141 170 000
    000535  55   000544 000526
    000536  2a   000141 400001
    000537  55   000540 000003
    000540  aa  015 162 145 154         reloc_def_max
    000541  aa  157 143 137 144
    000542  aa  145 146 137 155
    000543  aa  141 170 000 000
    000544  55   000553 000535
    000545  2a   000140 400001
    000546  55   000547 000003
    000547  aa  016 162 145 154         reloc_text_max
    000550  aa  157 143 137 164
    000551  aa  145 170 164 137
    000552  aa  155 141 170 000
    000553  55   000560 000544
    000554  2a   000137 400001
    000555  55   000556 000003
    000556  aa  007 163 171 155         sym_max
    000557  aa  137 155 141 170
    000560  55   000566 000553
    000561  2a   000136 400001
    000562  55   000563 000003
    000563  aa  012 163 171 155         sym_wd_off
    000564  aa  137 167 144 137
    000565  aa  157 146 146 000
    000566  55   000574 000560
    000567  2a   000135 400001
    000570  55   000571 000003
    000571  aa  010 154 151 156         link_max
    000572  aa  153 137 155 141
    000573  aa  170 000 000 000
    000574  55   000602 000566
    000575  2a   000134 400001
    000576  55   000577 000003
    000577  aa  013 154 151 156         link_wd_off
    000600  aa  153 137 167 144
    000601  aa  137 157 146 146
    000602  55   000607 000574
    000603  2a   000133 400001
    000604  55   000605 000003
    000605  aa  007 144 145 146         def_max
    000606  aa  137 155 141 170
    000607  55   000615 000602
    000610  2a   000132 400001
    000611  55   000612 000003
    000612  aa  012 144 145 146         def_wd_off
    000613  aa  137 167 144 137
    000614  aa  157 146 146 000
    000615  55   000623 000607
    000616  2a   000131 400001
    000617  55   000620 000003
    000620  aa  012 143 157 156         con_wd_off
    000621  aa  137 167 144 137
    000622  aa  157 146 146 000
    000623  55   000631 000615
    000624  2a   000130 400001
    000625  55   000626 000003
    000626  aa  013 164 145 170         text_wd_off
    000627  aa  164 137 167 144
    000630  aa  137 157 146 146
    000631  55   000641 000623
    000632  2a   000126 400001
    000633  55   000634 000003
    000634  aa  020 151 156 143         include_info_ptr
    000635  aa  154 165 144 145
    000636  aa  137 151 156 146
    000637  aa  157 137 160 164
    000640  aa  162 000 000 000
    000641  55   000650 000631
    000642  2a   000124 400001
    000643  55   000644 000003
    000644  aa  014 155 141 151         main_pcs_ptr
    000645  aa  156 137 160 143
    000646  aa  163 137 160 164
    000647  aa  162 000 000 000
    000650  55   000656 000641
    000651  2a   000122 400001
    000652  55   000653 000003
    000653  aa  011 156 164 142         ntbuf_ptr
    000654  aa  165 146 137 160
    000655  aa  164 162 000 000
    000656  55   000664 000650
    000657  2a   000120 400001
    000660  55   000661 000003
    000661  aa  012 157 160 137         op_con_ptr
    000662  aa  143 157 156 137
    000663  aa  160 164 162 000
    000664  55   000672 000656
    000665  2a   000116 400001
    000666  55   000667 000003
    000667  aa  011 162 145 163         reswd_ptr
    000670  aa  167 144 137 160
    000671  aa  164 162 000 000
    000672  55   000702 000664
    000673  2a   000114 400001
    000674  55   000675 000003
    000675  aa  022 163 164 141         statement_info_ptr
    000676  aa  164 145 155 145
    000677  aa  156 164 137 151
    000700  aa  156 146 157 137
    000701  aa  160 164 162 000
    000702  55   000711 000672
    000703  2a   000112 400001
    000704  55   000705 000003
    000705  aa  016 170 162 145         xref_chain_ptr
    000706  aa  146 137 143 150
    000707  aa  141 151 156 137
    000710  aa  160 164 162 000
    000711  55   000720 000702
    000712  2a   000110 400001
    000713  55   000714 000003
    000714  aa  016 170 162 145         xref_token_ptr
    000715  aa  146 137 164 157
    000716  aa  153 145 156 137
    000717  aa  160 164 162 000
    000720  55   000726 000711
    000721  2a   000106 400001
    000722  55   000723 000003
    000723  aa  010 144 151 141         diag_ptr
    000724  aa  147 137 160 164
    000725  aa  162 000 000 000
    000726  55   000733 000720
    000727  2a   000104 400001
    000730  55   000731 000003
    000731  aa  007 145 154 156         eln_ptr
    000732  aa  137 160 164 162
    000733  55   000741 000726
    000734  2a   000102 400001
    000735  55   000736 000003
    000736  aa  011 141 154 154         allo1_ptr
    000737  aa  157 061 137 160
    000740  aa  164 162 000 000
    000741  55   000747 000733
    000742  2a   000100 400001
    000743  55   000744 000003
    000744  aa  010 154 151 163         list_ptr
    000745  aa  164 137 160 164
    000746  aa  162 000 000 000
    000747  55   000756 000741
    000750  2a   000076 400001
    000751  55   000752 000003
    000752  aa  014 155 151 163         misc_end_ptr
    000753  aa  143 137 145 156
    000754  aa  144 137 160 164
    000755  aa  162 000 000 000
    000756  55   000765 000747
    000757  2a   000074 400001
    000760  55   000761 000003
    000761  aa  015 155 151 163         misc_base_ptr
    000762  aa  143 137 142 141
    000763  aa  163 145 137 160
    000764  aa  164 162 000 000
    000765  55   000774 000756
    000766  2a   000072 400001
    000767  55   000770 000003
    000770  aa  016 162 145 147         reg_status_ptr
    000771  aa  137 163 164 141
    000772  aa  164 165 163 137
    000773  aa  160 164 162 000
    000774  55   001003 000765
    000775  2a   000070 400001
    000776  55   000777 000003
    000777  aa  016 160 164 162         ptr_status_ptr
    001000  aa  137 163 164 141
    001001  aa  164 165 163 137
    001002  aa  160 164 162 000
    001003  55   001012 000774
    001004  2a   000066 400001
    001005  55   001006 000003
    001006  aa  014 155 141 160         map_data_ptr
    001007  aa  137 144 141 164
    001010  aa  141 137 160 164
    001011  aa  162 000 000 000
    001012  55   001021 001003
    001013  2a   000064 400001
    001014  55   001015 000003
    001015  aa  015 164 141 147         tag_table_ptr
    001016  aa  137 164 141 142
    001017  aa  154 145 137 160
    001020  aa  164 162 000 000
    001021  55   001030 001012
    001022  2a   000062 400001
    001023  55   001024 000003
    001024  aa  014 155 151 156         minpral5_ptr
    001025  aa  160 162 141 154
    001026  aa  065 137 160 164
    001027  aa  162 000 000 000
    001030  55   001040 001021
    001031  2a   000060 400001
    001032  55   001033 000003
    001033  aa  020 164 157 153         token_block2_ptr
    001034  aa  145 156 137 142
    001035  aa  154 157 143 153
    001036  aa  062 137 160 164
    001037  aa  162 000 000 000
    001040  55   001050 001030
    001041  2a   000056 400001
    001042  55   001043 000003
    001043  aa  020 164 157 153         token_block1_ptr
    001044  aa  145 156 137 142
    001045  aa  154 157 143 153
    001046  aa  061 137 160 164
    001047  aa  162 000 000 000
    001050  55   001057 001040
    001051  2a   000054 400001
    001052  55   001053 000003
    001053  aa  016 164 145 155         temp_token_ptr
    001054  aa  160 137 164 157
    001055  aa  153 145 156 137
    001056  aa  160 164 162 000
    001057  55   001067 001050
    001060  2a   000052 400001
    001061  55   001062 000003
    001062  aa  023 164 145 155         temp_token_area_ptr
    001063  aa  160 137 164 157
    001064  aa  153 145 156 137
    001065  aa  141 162 145 141
    001066  aa  137 160 164 162
    001067  55   001077 001057
    001070  2a   000050 400001
    001071  55   001072 000003
    001072  aa  021 163 145 147         seg_init_list_ptr
    001073  aa  137 151 156 151
    001074  aa  164 137 154 151
    001075  aa  163 164 137 160
    001076  aa  164 162 000 000
    001077  55   001106 001067
    001100  2a   000046 400001
    001101  55   001102 000003
    001102  aa  016 141 154 164         alter_list_ptr
    001103  aa  145 162 137 154
    001104  aa  151 163 164 137
    001105  aa  160 164 162 000
    001106  55   001116 001077
    001107  2a   000044 400001
    001110  55   001111 000003
    001111  aa  020 160 145 162         perform_list_ptr
    001112  aa  146 157 162 155
    001113  aa  137 154 151 163
    001114  aa  164 137 160 164
    001115  aa  162 000 000 000
    001116  55   001126 001106
    001117  2a   000042 400001
    001120  55   001121 000003
    001121  aa  020 151 156 151         initval_file_ptr
    001122  aa  164 166 141 154
    001123  aa  137 146 151 154
    001124  aa  145 137 160 164
    001125  aa  162 000 000 000
    001126  55   001136 001116
    001127  2a   000040 400001
    001130  55   001131 000003
    001131  aa  020 151 156 151         initval_base_ptr
    001132  aa  164 166 141 154
    001133  aa  137 142 141 163
    001134  aa  145 137 160 164
    001135  aa  162 000 000 000
    001136  55   001144 001126
    001137  2a   000036 400001
    001140  55   001141 000003
    001141  aa  011 146 151 170         fixup_ptr
    001142  aa  165 160 137 160
    001143  aa  164 162 000 000
    001144  55   001152 001136
    001145  2a   000034 400001
    001146  55   001147 000003
    001147  aa  012 160 144 137         pd_map_ptr
    001150  aa  155 141 160 137
    001151  aa  160 164 162 000
    001152  55   001162 001144
    001153  2a   000032 400001
    001154  55   001155 000003
    001155  aa  023 162 145 154         reloc_work_base_ptr
    001156  aa  157 143 137 167
    001157  aa  157 162 153 137
    001160  aa  142 141 163 145
    001161  aa  137 160 164 162
    001162  55   001172 001152
    001163  2a   000030 400001
    001164  55   001165 000003
    001165  aa  022 162 145 154         reloc_sym_base_ptr
    001166  aa  157 143 137 163
    001167  aa  171 155 137 142
    001170  aa  141 163 145 137
    001171  aa  160 164 162 000
    001172  55   001202 001162
    001173  2a   000026 400001
    001174  55   001175 000003
    001175  aa  023 162 145 154         reloc_link_base_ptr
    001176  aa  157 143 137 154
    001177  aa  151 156 153 137
    001200  aa  142 141 163 145
    001201  aa  137 160 164 162
    001202  55   001212 001172
    001203  2a   000024 400001
    001204  55   001205 000003
    001205  aa  022 162 145 154         reloc_def_base_ptr
    001206  aa  157 143 137 144
    001207  aa  145 146 137 142
    001210  aa  141 163 145 137
    001211  aa  160 164 162 000
    001212  55   001222 001202
    001213  2a   000022 400001
    001214  55   001215 000003
    001215  aa  023 162 145 154         reloc_text_base_ptr
    001216  aa  157 143 137 164
    001217  aa  145 170 164 137
    001220  aa  142 141 163 145
    001221  aa  137 160 164 162
    001222  55   001231 001212
    001223  2a   000020 400001
    001224  55   001225 000003
    001225  aa  014 163 171 155         sym_base_ptr
    001226  aa  137 142 141 163
    001227  aa  145 137 160 164
    001230  aa  162 000 000 000
    001231  55   001240 001222
    001232  2a   000016 400001
    001233  55   001234 000003
    001234  aa  015 154 151 156         link_base_ptr
    001235  aa  153 137 142 141
    001236  aa  163 145 137 160
    001237  aa  164 162 000 000
    001240  55   001247 001231
    001241  2a   000014 400001
    001242  55   001243 000003
    001243  aa  014 144 145 146         def_base_ptr
    001244  aa  137 142 141 163
    001245  aa  145 137 160 164
    001246  aa  162 000 000 000
    001247  55   001255 001240
    001250  2a   000012 400001
    001251  55   001252 000003
    001252  aa  013 143 157 156         con_end_ptr
    001253  aa  137 145 156 144
    001254  aa  137 160 164 162
    001255  55   001264 001247
    001256  2a   000010 400001
    001257  55   001260 000003
    001260  aa  015 164 145 170         text_base_ptr
    001261  aa  164 137 142 141
    001262  aa  163 145 137 160
    001263  aa  164 162 000 000
    001264  55   000002 001255
    001265  6a   000000 400002
    001266  55   001267 000003
    001267  aa  014 163 171 155         symbol_table
    001270  aa  142 157 154 137
    001271  aa  164 141 142 154
    001272  aa  145 000 000 000

DEFINITIONS HASH TABLE

    001273  aa   000000 000235
    001274  5a   001255 000000
    001275  aa   000000 000000
    001276  5a   000623 000000
    001277  aa   000000 000000
    001300  5a   000774 000000
    001301  5a   001021 000000
    001302  aa   000000 000000
    001303  aa   000000 000000
    001304  5a   000756 000000
    001305  5a   000312 000000
    001306  5a   000322 000000
    001307  5a   000747 000000
    001310  5a   000010 000000
    001311  5a   000367 000000
    001312  5a   000702 000000
    001313  5a   000711 000000
    001314  5a   000463 000000
    001315  5a   001106 000000
    001316  5a   000021 000000
    001317  5a   000261 000000
    001320  5a   001067 000000
    001321  aa   000000 000000
    001322  aa   000000 000000
    001323  5a   000376 000000
    001324  aa   000000 000000
    001325  aa   000000 000000
    001326  aa   000000 000000
    001327  5a   000413 000000
    001330  aa   000000 000000
    001331  5a   000236 000000
    001332  5a   001136 000000
    001333  aa   000000 000000
    001334  5a   000656 000000
    001335  aa   000000 000000
    001336  aa   000000 000000
    001337  5a   000205 000000
    001340  5a   000726 000000
    001341  aa   000000 000000
    001342  5a   000166 000000
    001343  aa   000000 000000
    001344  aa   000000 000000
    001345  aa   000000 000000
    001346  aa   000000 000000
    001347  aa   000000 000000
    001350  aa   000000 000000
    001351  aa   000000 000000
    001352  aa   000000 000000
    001353  aa   000000 000000
    001354  aa   000000 000000
    001355  5a   001231 000000
    001356  aa   000000 000000
    001357  aa   000000 000000
    001360  5a   000073 000000
    001361  5a   000574 000000
    001362  5a   001077 000000
    001363  aa   000000 000000
    001364  5a   000212 000000
    001365  5a   000733 000000
    001366  aa   000000 000000
    001367  5a   000566 000000
    001370  5a   000304 000000
    001371  5a   000471 000000
    001372  5a   000405 000000
    001373  5a   000332 000000
    001374  5a   000276 000000
    001375  5a   000631 000000
    001376  5a   000741 000000
    001377  5a   001116 000000
    001400  5a   001126 000000
    001401  5a   001152 000000
    001402  5a   001162 000000
    001403  5a   000141 000000
    001404  5a   000445 000000
    001405  5a   000765 000000
    001406  5a   000560 000000
    001407  5a   000157 000000
    001410  5a   000361 000000
    001411  5a   000267 000000
    001412  5a   000510 000000
    001413  5a   000517 000000
    001414  5a   000352 000000
    001415  5a   000526 000000
    001416  5a   000116 000000
    001417  5a   000101 000000
    001420  5a   000535 000000
    001421  5a   000544 000000
    001422  5a   000044 000000
    001423  5a   000176 000000
    001424  5a   000553 000000
    001425  5a   000147 000000
    001426  5a   000615 000000
    001427  5a   000650 000000
    001430  5a   001030 000000
    001431  5a   000027 000000
    001432  5a   000422 000000
    001433  5a   000607 000000
    001434  5a   000664 000000
    001435  5a   001040 000000
    001436  5a   000133 000000
    001437  5a   001172 000000
    001440  5a   000066 000000
    001441  5a   000125 000000
    001442  5a   000060 000000
    001443  5a   000602 000000
    001444  5a   000720 000000
    001445  5a   000052 000000
    001446  5a   001202 000000
    001447  5a   001212 000000
    001450  5a   001222 000000
    001451  5a   001240 000000
    001452  5a   001247 000000
    001453  5a   001264 000000
    001454  aa   000000 000000
    001455  aa   000000 000000
    001456  aa   000000 000000
    001457  aa   000000 000000
    001460  aa   000000 000000
    001461  5a   000036 000000
    001462  5a   000501 000000
    001463  aa   000000 000000
    001464  aa   000000 000000
    001465  aa   000000 000000
    001466  5a   000253 000000
    001467  5a   001144 000000
    001470  5a   000437 000000
    001471  aa   000000 000000
    001472  aa   000000 000000
    001473  5a   000431 000000
    001474  aa   000000 000000
    001475  aa   000000 000000
    001476  aa   000000 000000
    001477  5a   000227 000000
    001500  5a   001012 000000
    001501  5a   001057 000000
    001502  aa   000000 000000
    001503  aa   000000 000000
    001504  5a   000110 000000
    001505  aa   000000 000000
    001506  aa   000000 000000
    001507  aa   000000 000000
    001510  aa   000000 000000
    001511  aa   000000 000000
    001512  5a   000220 000000
    001513  5a   000641 000000
    001514  5a   001050 000000
    001515  aa   000000 000000
    001516  aa   000000 000000
    001517  aa   000000 000000
    001520  aa   000000 000000
    001521  aa   000000 000000
    001522  5a   000244 000000
    001523  5a   001003 000000
    001524  aa   000000 000000
    001525  5a   000342 000000
    001526  aa   000000 000000
    001527  5a   000672 000000
    001530  5a   000454 000000

NO EXTERNAL NAMES

NO TRAP POINTER WORDS

TYPE PAIR BLOCKS

    001531  aa   000001 000000
    001532  aa   000000 000000

INTERNAL EXPRESSION WORDS

    001533  aa   000000 000000
LINKAGE INFORMATION

    000000  aa   000000 000000
    000001  0a   000000 000000
    000002  aa   000000 000000
    000003  aa   000000 000000
    000004  aa   000000 000000
    000005  aa   000000 000000
    000006  22   000306 000306
    000007  a2   000000 000276
SYMBOL INFORMATION

SYMBOL TABLE HEADER

    000000  aa   000000 000001
    000001  aa   163171 155142
    000002  aa   164162 145145
    000003  aa   000000 000010
    000004  aa   000000 117244
    000005  aa   361023 525721
    000006  aa   000000 131036
    000007  aa   710333 405002
    000010  aa   141154 155040
    000011  aa   040040 040040
    000012  aa   000024 000040
    000013  aa   000034 000040
    000014  aa   000044 000100
    000015  aa   000002 000002
    000016  aa   000064 000000
    000017  aa   000000 000316
    000020  aa   000000 000101
    000021  aa   000121 000103
    000022  aa   000310 000101
    000023  aa   000064 000000
    000024  aa   101114 115040
    000025  aa   126145 162163
    000026  aa   151157 156040
    000027  aa   070056 061064
    000030  aa   040115 141162
    000031  aa   143150 040061
    000032  aa   071070 071040
    000033  aa   040040 040040
    000034  aa   123143 150162
    000035  aa   157164 150056
    000036  aa   123171 163115
    000037  aa   141151 156164
    000040  aa   056155 040040
    000041  aa   040040 040040
    000042  aa   040040 040040
    000043  aa   040040 040040
    000044  aa   154151 163164
    000045  aa   040163 171155
    000046  aa   142157 154163
    000047  aa   040040 040040
    000050  aa   040040 040040
    000051  aa   040040 040040
    000052  aa   040040 040040
    000053  aa   040040 040040
    000054  aa   040040 040040
    000055  aa   040040 040040
    000056  aa   040040 040040
    000057  aa   040040 040040
    000060  aa   040040 040040
    000061  aa   040040 040040
    000062  aa   040040 040040
    000063  aa   040040 040040
    000064  aa   000000 000001
    000065  aa   000000 000001
    000066  aa   000072 000032
    000067  aa   310157 126500
    000070  aa   000000 131036
    000071  aa   710334 600000
    000072  aa   076165 144144          >udd>sm>ds>w>ml>cobol_.alm
    000073  aa   076163 155076
    000074  aa   144163 076167
    000075  aa   076155 154076
    000076  aa   143157 142157
    000077  aa   154137 056141
    000100  aa   154155 040040
               MULTICS ASSEMBLY CROSS REFERENCE LISTING

   Value        Symbol                   Source file   Line number

         200    allo1_max                cobol_:       178,  179.
         102    allo1_ptr                cobol_:        76,   77.
         156    alter_flag               cobol_:       142,  143.
         167    alter_index              cobol_:       160,  161.
          46    alter_list_ptr           cobol_:        48,   49.
         215    cd_cnt                   cobol_:       204,  205.
         146    cobol_data_wd_off        cobol_:       126,  127.
         162    compile_count            cobol_:       150,  151.
         211    coms_charcnt             cobol_:       196,  197.
         220    coms_wdoff               cobol_:       210,  211.
         171    constant_offset          cobol_:       164,  165.
         213    cons_charcnt             cobol_:       200,  201.
          12    con_end_ptr              cobol_:        20,   21.
         131    con_wd_off               cobol_:       100,  101.
         154    data_init_flag           cobol_:       138,  139.
         205    date_compiled_sw         cobol_:       188,  189.
         202    debug_enable             cobol_:       182,  183.
          14    def_base_ptr             cobol_:        22,   23.
         133    def_max                  cobol_:       104,  105.
         132    def_wd_off               cobol_:       102,  103.
         106    diag_ptr                 cobol_:        80,   81.
         201    eln_max                  cobol_:       180,  181.
         104    eln_ptr                  cobol_:        78,   79.
         175    fixup_max                cobol_:       172,  173.
          36    fixup_ptr                cobol_:        40,   41.
         207    fs_charcnt               cobol_:       192,  193.
         216    fs_wdoff                 cobol_:       206,  207.
         206    include_cnt              cobol_:       190,  191.
         126    include_info_ptr         cobol_:        96,   97.
          40    initval_base_ptr         cobol_:        42,   43.
          42    initval_file_ptr         cobol_:        44,   45.
         204    initval_flag             cobol_:       186,  187.
         151    init_stack_off           cobol_:       132,  133.
          10    linkc                    cobol_:        12,   13,   15.
          16    link_base_ptr            cobol_:        24,   25.
         135    link_max                 cobol_:       108,  109.
         134    link_wd_off              cobol_:       106,  107.
         170    list_off                 cobol_:       162,  163.
         100    list_ptr                 cobol_:        74,   75.
         212    ls_charcnt               cobol_:       198,  199.
         124    main_pcs_ptr             cobol_:        94,   95.
         174    map_data_max             cobol_:       170,  171.
          66    map_data_ptr             cobol_:        64,   65.
         150    max_stack_off            cobol_:       130,  131.
          62    minpral5_ptr             cobol_:        60,   61.
          74    misc_base_ptr            cobol_:        70,   71.
          76    misc_end_ptr             cobol_:        72,   73.
         172    misc_max                 cobol_:       166,  167.
         153    next_tag                 cobol_:       136,  137.
         203    non_source_offset        cobol_:       184,  185.
         122    ntbuf_ptr                cobol_:        92,   93.
         273    obj_seg_name             cobol_:       214,  215.
         120    op_con_ptr               cobol_:        90,   91.
         160    para_eop_flag            cobol_:       146,  147.
         145    pd_map_index             cobol_:       124,  125.
         173    pd_map_max               cobol_:       168,  169.
          34    pd_map_ptr               cobol_:        38,   39.
         152    pd_map_sw                cobol_:       134,  135.
          44    perform_list_ptr         cobol_:        46,   47.
         165    perform_para_index       cobol_:       156,  157.
         166    perform_sect_index       cobol_:       158,  159.
         161    priority_no              cobol_:       148,  149.
         163    ptr_assumption_ind       cobol_:       152,  153.
          70    ptr_status_ptr           cobol_:        66,   67.
         164    reg_assumption_ind       cobol_:       154,  155.
          72    reg_status_ptr           cobol_:        68,   69.
          24    reloc_def_base_ptr       cobol_:        30,   31.
         141    reloc_def_max            cobol_:       116,  117.
          26    reloc_link_base_ptr      cobol_:        32,   33.
         142    reloc_link_max           cobol_:       118,  119.
          30    reloc_sym_base_ptr       cobol_:        34,   35.
         143    reloc_sym_max            cobol_:       120,  121.
          22    reloc_text_base_ptr      cobol_:        28,   29.
         140    reloc_text_max           cobol_:       114,  115.
          32    reloc_work_base_ptr      cobol_:        36,   37.
         144    reloc_work_max           cobol_:       122,  123.
         116    reswd_ptr                cobol_:        88,   89.
         304    same_sort_merge_proc     cobol_:       218,  219.
         221    scratch_dir              cobol_:       212,  213.
         157    sect_eop_flag            cobol_:       144,  145.
         155    seg_init_flag            cobol_:       140,  141.
          50    seg_init_list_ptr        cobol_:        50,   51.
         147    stack_off                cobol_:       128,  129.
         114    statement_info_ptr       cobol_:        86,   87.
          20    sym_base_ptr             cobol_:        26,   27.
         137    sym_max                  cobol_:       112,  113.
         136    sym_wd_off               cobol_:       110,  111.
         176    tag_table_max            cobol_:       174,  175.
          64    tag_table_ptr            cobol_:        62,   63.
          52    temp_token_area_ptr      cobol_:        52,   53.
         177    temp_token_max           cobol_:       176,  177.
          54    temp_token_ptr           cobol_:        54,   55.
           0    textc                    cobol_:        11,   14.
          10    text_base_ptr            cobol_:        18,   19.
         130    text_wd_off              cobol_:        98,   99.
          56    token_block1_ptr         cobol_:        56,   57.
          60    token_block2_ptr         cobol_:        58,   59.
         214    value_cnt                cobol_:       202,  203.
         210    ws_charcnt               cobol_:       194,  195.
         217    ws_wdoff                 cobol_:       208,  209.
         303    xref_bypass              cobol_:       216,  217.
         112    xref_chain_ptr           cobol_:        84,   85.
         110    xref_token_ptr           cobol_:        82,   83.


NO FATAL ERRORS


                                          -----------------------------------------------------------


Historical Background

This edition of the Multics software materials and documentation is provided and donated
to Massachusetts Institute of Technology by Group BULL including BULL HN Information Systems Inc.
as a contribution to computer science knowledge.
This donation is made also to give evidence of the common contributions of Massachusetts Institute of Technology,
Bell Laboratories, General Electric, Honeywell Information Systems Inc., Honeywell BULL Inc., Groupe BULL
and BULL HN Information Systems Inc. to the development of this operating system.
Multics development was initiated by Massachusetts Institute of Technology Project MAC (1963-1970),
renamed the MIT Laboratory for Computer Science and Artificial Intelligence in the mid 1970s, under the leadership
of Professor Fernando Jose Corbato. Users consider that Multics provided the best software architecture
for managing computer hardware properly and for executing programs. Many subsequent operating systems
incorporated Multics principles.
Multics was distributed in 1975 to 2000 by Group Bull in Europe , and in the U.S. by Bull HN Information Systems Inc.,
as successor in interest by change in name only to Honeywell Bull Inc. and Honeywell Information Systems Inc. .

                                          -----------------------------------------------------------

Permission to use, copy, modify, and distribute these programs and their documentation for any purpose and without
fee is hereby granted,provided that the below copyright notice and historical background appear in all copies
and that both the copyright notice and historical background and this permission notice appear in supporting
documentation, and that the names of MIT, HIS, BULL or BULL HN not be used in advertising or publicity pertaining
to distribution of the programs without specific prior written permission.
    Copyright 1972 by Massachusetts Institute of Technology and Honeywell Information Systems Inc.
    Copyright 2006 by BULL HN Information Systems Inc.
    Copyright 2006 by Bull SAS
    All Rights Reserved
