	COMPILATION LISTING OF SEGMENT cobol_process_error
	Compiled by: Multics PL/I Compiler, Release 31b, of April 24, 1989
	Compiled at: Bull HN, Phoenix AZ, System-M
	Compiled on: 05/24/89  0959.3 mst Wed
	    Options: optimize map

        1 /****^  ***********************************************************
        2*        *                                                         *
        3*        * Copyright, (C) BULL HN Information Systems Inc., 1989   *
        4*        *                                                         *
        5*        * Copyright, (C) Honeywell Information Systems Inc., 1982 *
        6*        *                                                         *
        7*        * Copyright (c) 1972 by Massachusetts Institute of        *
        8*        * Technology and Honeywell Information Systems, Inc.      *
        9*        *                                                         *
       10*        *********************************************************** */
       11
       12
       13
       14
       15 /****^  HISTORY COMMENTS:
       16*  1) change(89-04-23,Zimmerman), approve(89-04-23,MCR8060),
       17*     audit(89-05-05,RWaters), install(89-05-24,MR12.3-1048):
       18*     MCR8060 cobol_process_error.pl1 Reformatted code to new Cobol standard.
       19*                                                   END HISTORY COMMENTS */
       20
       21
       22 /* Modified on 5/18/76 by Bob Chang to fix the aos instruction.	*/
       23 /* Modified on 05/05/76 by Bob Chang to interface with cobol_reg_manager. */
       24 /* Modified on 4/24/76 by Bob Chang to interface with cobol_rts_. */
       25 /* Modified on 4/19/76 by Bob Chang to interface with cobol operator. */
       26 /* Modified on 4/2/76 by Bob Chang to interface with cobol operator. */
       27 /*{*/
       28 /* format: style3 */
       29 cobol_process_error:
       30      proc (cobol_error_code, line_no, error_code_relp);
       31
       32 /* This sub-generator produces code to generate an
       33*object time error message via the run-time support routine
       34*cobol_error_. */
       35
       36 dcl	cobol_error_code	fixed bin;
       37 dcl	line_no		fixed bin;
       38 dcl	error_code_relp	fixed bin;
       39
       40 /*
       41*     cobol_error_code  a fixed bin number indicating the "COBOL
       42*               error number" (see below).  If 0, then there is no
       43*               associated COBOL error number and no COBOL message
       44*               is printed.
       45*
       46*This program will set up a call to a run-time error
       47*routine cobol_error_.  Run-time support routines encountering
       48*errors will also call cobol_error_.  Thus all error messages will
       49*be funnelled through one run-time routine.
       50*
       51*The interface is as follows:
       52*
       53*  call cobol_error_ (cobol_code,multics_code,line_no1,
       54*                                   line_no2,progname,error_ptr);
       55*
       56*     cobol_code  corresponds to cobol_error_code described above.
       57*
       58*     multics_code  a fixed bin corresponding to the location
       59*               identified by sp|error_code_relp described above.
       60*
       61*     line_no1  a fixed bin containing the line number on
       62*               which the error occurred.  This is derived from
       63*               the internal line number given in line_no
       64*               described above.  If it is 0, no line number is
       65*               applicable to this error and no such indication
       66*               will be given in the error message.
       67*
       68*     line_no2  a fixed bin containing the additional line
       69*               number.  This is derived from the internal line
       70*               number line_no described above.  If it is 0, then
       71*               only a one-part line number is given.
       72*
       73*     progname  a varying char field containing the name of the
       74*               program which produced the error.  The
       75*               cobol_process_error sub-generator will always set it
       76*               to the name of the program for which code is being
       77*               generated.  Run-time support routines may identify
       78*               the program which called them or themselves,
       79*               depending on the error.
       80*
       81*     error_ptr  a pointer to the location at which the error was
       82*               discovered or to the location at which
       83*               cobol_control_ is called from.  The
       84*               cobol_process_error sub-generator will always set it
       85*               to the latter.
       86*
       87*
       88*The following message(s) will be output to the "error_output"
       89*stream:
       90*
       91*     ["progname": Multics message (from com_err_)]
       92*     ["progname": COBOL error message]
       93*     Error occurred at "segno|offset"
       94*          [in "progname" [on line ["line_no2"] "line_no1"]]
       95*
       96*The first line is printed only if multics_code is non-zero.  The
       97*second line is printed only if cobol_code is non-zero.  The third
       98*line is always printed.  The progname portion of it is not
       99*present if progname is null; the line_no2 portion of it is not
      100*present is line_no2 is zero;  the line_no1 portion of it is not
      101*present if line_no1 is zero.  If progname is null and the first
      102*and/or the second line is present, the the string "cobol_error"
      103*is used in place of it.
      104*}*/
      105
      106 dcl	inst_seq		bit (36) static init ("000000000000000000111000000001000000"b);
      107 						/* tsx0	pr0|4095+cobol_code	*/
      108 dcl	add_use_code	bit (36) static init ("110000000001001001000101100001000000"b);
      109 						/* aos	pr6|73	*/
      110 						/* -5-18-76- */
      111
      112 dcl	sw		fixed bin;
      113 dcl	temp		fixed bin;
      114
      115 dcl	cobol_emit	entry (ptr, ptr, fixed bin);
      116 dcl	cobol_reg_manager$before_op
      117 			entry (fixed bin);
      118 dcl	cobol_reg_manager$after_op
      119 			entry (fixed bin);
      120
      121 /*************************************/
      122 	sw = 1;
      123 	go to start;
      124 use:
      125      entry (cobol_error_code, line_no, error_code_relp);
      126 	sw = 2;
      127 start:
      128 	if cobol_error_code = 0
      129 	then cobol_error_code = 58;
      130 	temp = 4095 + cobol_error_code;
      131 	call cobol_reg_manager$before_op (temp);
      132 	if sw = 2
      133 	then call cobol_emit (addr (add_use_code), null (), 1);
      134 	substr (inst_seq, 4, 15) = substr (unspec (temp), 22, 15);
      135 	call cobol_emit (addr (inst_seq), null (), 1);
      136 	call cobol_reg_manager$after_op (temp);
      137 	return;
      138
      139
      140 /*************************************/
      141
      142 /*****	Declaration for builtin function	*****/
      143
      144 dcl	(substr, mod, binary, fixed, addr, addrel, rel, length, string, unspec, null, index)
      145 			builtin;
      146
      147 /*****	End of declaration for builtin function	*****/
      148
  1     1
  1     2 /* BEGIN INCLUDE FILE ... cobol_.incl.pl1 */
  1     3 /* last modified Feb 4, 1977 by ORN  */
  1     4
  1     5 /* This file defines all external data used in the generator phase of Multics Cobol */
  1     6
  1     7 /* POINTERS */
  1     8 dcl cobol_$text_base_ptr ptr  ext;
  1     9 dcl text_base_ptr ptr  defined (cobol_$text_base_ptr);
  1    10 dcl cobol_$con_end_ptr ptr  ext;
  1    11 dcl con_end_ptr ptr  defined (cobol_$con_end_ptr);
  1    12 dcl cobol_$def_base_ptr ptr  ext;
  1    13 dcl def_base_ptr ptr  defined (cobol_$def_base_ptr);
  1    14 dcl cobol_$link_base_ptr ptr  ext;
  1    15 dcl link_base_ptr ptr  defined (cobol_$link_base_ptr);
  1    16 dcl cobol_$sym_base_ptr ptr  ext;
  1    17 dcl sym_base_ptr ptr  defined (cobol_$sym_base_ptr);
  1    18 dcl cobol_$reloc_text_base_ptr ptr  ext;
  1    19 dcl reloc_text_base_ptr ptr  defined (cobol_$reloc_text_base_ptr);
  1    20 dcl cobol_$reloc_def_base_ptr ptr  ext;
  1    21 dcl reloc_def_base_ptr ptr  defined (cobol_$reloc_def_base_ptr);
  1    22 dcl cobol_$reloc_link_base_ptr ptr  ext;
  1    23 dcl reloc_link_base_ptr ptr  defined (cobol_$reloc_link_base_ptr);
  1    24 dcl cobol_$reloc_sym_base_ptr ptr  ext;
  1    25 dcl reloc_sym_base_ptr ptr  defined (cobol_$reloc_sym_base_ptr);
  1    26 dcl cobol_$reloc_work_base_ptr ptr  ext;
  1    27 dcl reloc_work_base_ptr ptr  defined (cobol_$reloc_work_base_ptr);
  1    28 dcl cobol_$pd_map_ptr ptr  ext;
  1    29 dcl pd_map_ptr ptr  defined (cobol_$pd_map_ptr);
  1    30 dcl cobol_$fixup_ptr ptr  ext;
  1    31 dcl fixup_ptr ptr  defined (cobol_$fixup_ptr);
  1    32 dcl cobol_$initval_base_ptr ptr  ext;
  1    33 dcl initval_base_ptr ptr  defined (cobol_$initval_base_ptr);
  1    34 dcl cobol_$initval_file_ptr ptr  ext;
  1    35 dcl initval_file_ptr ptr  defined (cobol_$initval_file_ptr);
  1    36 dcl cobol_$perform_list_ptr ptr  ext;
  1    37 dcl perform_list_ptr ptr  defined (cobol_$perform_list_ptr);
  1    38 dcl cobol_$alter_list_ptr ptr  ext;
  1    39 dcl alter_list_ptr ptr  defined (cobol_$alter_list_ptr);
  1    40 dcl cobol_$seg_init_list_ptr ptr  ext;
  1    41 dcl seg_init_list_ptr ptr  defined (cobol_$seg_init_list_ptr);
  1    42 dcl cobol_$temp_token_area_ptr ptr  ext;
  1    43 dcl temp_token_area_ptr ptr  defined (cobol_$temp_token_area_ptr);
  1    44 dcl cobol_$temp_token_ptr ptr  ext;
  1    45 dcl temp_token_ptr ptr  defined (cobol_$temp_token_ptr);
  1    46 dcl cobol_$token_block1_ptr ptr  ext;
  1    47 dcl token_block1_ptr ptr  defined (cobol_$token_block1_ptr);
  1    48 dcl cobol_$token_block2_ptr ptr  ext;
  1    49 dcl token_block2_ptr ptr  defined (cobol_$token_block2_ptr);
  1    50 dcl cobol_$minpral5_ptr ptr  ext;
  1    51 dcl minpral5_ptr ptr  defined (cobol_$minpral5_ptr);
  1    52 dcl cobol_$tag_table_ptr ptr  ext;
  1    53 dcl tag_table_ptr ptr  defined (cobol_$tag_table_ptr);
  1    54 dcl cobol_$map_data_ptr ptr  ext;
  1    55 dcl map_data_ptr ptr  defined (cobol_$map_data_ptr);
  1    56 dcl cobol_$ptr_status_ptr ptr  ext;
  1    57 dcl ptr_status_ptr ptr  defined (cobol_$ptr_status_ptr);
  1    58 dcl cobol_$reg_status_ptr ptr  ext;
  1    59 dcl reg_status_ptr ptr  defined (cobol_$reg_status_ptr);
  1    60 dcl cobol_$misc_base_ptr ptr ext;
  1    61 dcl misc_base_ptr ptr defined (cobol_$misc_base_ptr);
  1    62 dcl cobol_$misc_end_ptr ptr ext;
  1    63 dcl misc_end_ptr ptr defined (cobol_$misc_end_ptr);
  1    64 dcl cobol_$list_ptr ptr ext;
  1    65 dcl list_ptr ptr defined (cobol_$list_ptr);
  1    66 dcl cobol_$allo1_ptr ptr ext;
  1    67 dcl allo1_ptr ptr defined (cobol_$allo1_ptr);
  1    68 dcl cobol_$eln_ptr ptr ext;
  1    69 dcl eln_ptr ptr defined (cobol_$eln_ptr);
  1    70 dcl cobol_$diag_ptr ptr ext;
  1    71 dcl diag_ptr ptr defined (cobol_$diag_ptr);
  1    72 dcl cobol_$xref_token_ptr ptr ext;
  1    73 dcl xref_token_ptr ptr defined (cobol_$xref_token_ptr);
  1    74 dcl cobol_$xref_chain_ptr ptr ext;
  1    75 dcl xref_chain_ptr ptr defined (cobol_$xref_chain_ptr);
  1    76 dcl cobol_$statement_info_ptr ptr ext;
  1    77 dcl statement_info_ptr ptr defined (cobol_$statement_info_ptr);
  1    78 dcl cobol_$reswd_ptr ptr ext;
  1    79 dcl reswd_ptr ptr defined (cobol_$reswd_ptr);
  1    80 dcl cobol_$op_con_ptr ptr ext;
  1    81 dcl op_con_ptr ptr defined (cobol_$op_con_ptr);
  1    82 dcl cobol_$ntbuf_ptr ptr ext;
  1    83 dcl ntbuf_ptr ptr defined (cobol_$ntbuf_ptr);
  1    84 dcl cobol_$main_pcs_ptr ptr ext;
  1    85 dcl main_pcs_ptr ptr defined (cobol_$main_pcs_ptr);
  1    86 dcl cobol_$include_info_ptr ptr ext;
  1    87 dcl include_info_ptr ptr defined (cobol_$include_info_ptr);
  1    88
  1    89 /* FIXED BIN */
  1    90 dcl cobol_$text_wd_off fixed bin  ext;
  1    91 dcl text_wd_off fixed bin  defined (cobol_$text_wd_off);
  1    92 dcl cobol_$con_wd_off fixed bin  ext;
  1    93 dcl con_wd_off fixed bin  defined (cobol_$con_wd_off);
  1    94 dcl cobol_$def_wd_off fixed bin  ext;
  1    95 dcl def_wd_off fixed bin  defined (cobol_$def_wd_off);
  1    96 dcl cobol_$def_max fixed bin  ext;
  1    97 dcl def_max fixed bin  defined (cobol_$def_max);
  1    98 dcl cobol_$link_wd_off fixed bin  ext;
  1    99 dcl link_wd_off fixed bin  defined (cobol_$link_wd_off);
  1   100 dcl cobol_$link_max fixed bin  ext;
  1   101 dcl link_max fixed bin  defined (cobol_$link_max);
  1   102 dcl cobol_$sym_wd_off fixed bin  ext;
  1   103 dcl sym_wd_off fixed bin  defined (cobol_$sym_wd_off);
  1   104 dcl cobol_$sym_max fixed bin  ext;
  1   105 dcl sym_max fixed bin  defined (cobol_$sym_max);
  1   106 dcl cobol_$reloc_text_max fixed bin(24)  ext;
  1   107 dcl reloc_text_max fixed bin(24)  defined (cobol_$reloc_text_max);
  1   108 dcl cobol_$reloc_def_max fixed bin(24)  ext;
  1   109 dcl reloc_def_max fixed bin(24)  defined (cobol_$reloc_def_max);
  1   110 dcl cobol_$reloc_link_max fixed bin(24)  ext;
  1   111 dcl reloc_link_max fixed bin(24)  defined (cobol_$reloc_link_max);
  1   112 dcl cobol_$reloc_sym_max fixed bin(24)  ext;
  1   113 dcl reloc_sym_max fixed bin(24)  defined (cobol_$reloc_sym_max);
  1   114 dcl cobol_$reloc_work_max fixed bin(24)  ext;
  1   115 dcl reloc_work_max fixed bin(24)  defined (cobol_$reloc_work_max);
  1   116 dcl cobol_$pd_map_index fixed bin  ext;
  1   117 dcl pd_map_index fixed bin  defined (cobol_$pd_map_index);
  1   118 dcl cobol_$cobol_data_wd_off fixed bin  ext;
  1   119 dcl cobol_data_wd_off fixed bin  defined (cobol_$cobol_data_wd_off);
  1   120 dcl cobol_$stack_off fixed bin  ext;
  1   121 dcl stack_off fixed bin  defined (cobol_$stack_off);
  1   122 dcl cobol_$max_stack_off fixed bin  ext;
  1   123 dcl max_stack_off fixed bin  defined (cobol_$max_stack_off);
  1   124 dcl cobol_$init_stack_off fixed bin  ext;
  1   125 dcl init_stack_off fixed bin  defined (cobol_$init_stack_off);
  1   126 dcl cobol_$pd_map_sw fixed bin  ext;
  1   127 dcl pd_map_sw fixed bin  defined (cobol_$pd_map_sw);
  1   128 dcl cobol_$next_tag fixed bin  ext;
  1   129 dcl next_tag fixed bin  defined (cobol_$next_tag);
  1   130 dcl cobol_$data_init_flag fixed bin  ext;
  1   131 dcl data_init_flag fixed bin  defined (cobol_$data_init_flag);
  1   132 dcl cobol_$seg_init_flag fixed bin  ext;
  1   133 dcl seg_init_flag fixed bin  defined (cobol_$seg_init_flag);
  1   134 dcl cobol_$alter_flag fixed bin  ext;
  1   135 dcl alter_flag fixed bin  defined (cobol_$alter_flag);
  1   136 dcl cobol_$sect_eop_flag fixed bin  ext;
  1   137 dcl sect_eop_flag fixed bin  defined (cobol_$sect_eop_flag);
  1   138 dcl cobol_$para_eop_flag fixed bin  ext;
  1   139 dcl para_eop_flag fixed bin  defined (cobol_$para_eop_flag);
  1   140 dcl cobol_$priority_no fixed bin  ext;
  1   141 dcl priority_no fixed bin  defined (cobol_$priority_no);
  1   142 dcl cobol_$compile_count fixed bin ext;
  1   143 dcl compile_count fixed bin defined (cobol_$compile_count);
  1   144 dcl cobol_$ptr_assumption_ind fixed bin ext;
  1   145 dcl ptr_assumption_ind fixed bin defined (cobol_$ptr_assumption_ind);
  1   146 dcl cobol_$reg_assumption_ind fixed bin ext;
  1   147 dcl reg_assumption_ind fixed bin defined (cobol_$reg_assumption_ind);
  1   148 dcl cobol_$perform_para_index fixed bin ext;
  1   149 dcl perform_para_index fixed bin defined (cobol_$perform_para_index);
  1   150 dcl cobol_$perform_sect_index fixed bin ext;
  1   151 dcl perform_sect_index fixed bin defined (cobol_$perform_sect_index);
  1   152 dcl cobol_$alter_index fixed bin ext;
  1   153 dcl alter_index fixed bin defined (cobol_$alter_index);
  1   154 dcl cobol_$list_off fixed bin ext;
  1   155 dcl list_off fixed bin defined (cobol_$list_off);
  1   156 dcl cobol_$constant_offset fixed bin ext;
  1   157 dcl constant_offset fixed bin defined (cobol_$constant_offset);
  1   158 dcl cobol_$misc_max fixed bin ext;
  1   159 dcl misc_max fixed bin defined (cobol_$misc_max);
  1   160 dcl cobol_$pd_map_max fixed bin ext;
  1   161 dcl pd_map_max fixed bin defined (cobol_$pd_map_max);
  1   162 dcl cobol_$map_data_max fixed bin ext;
  1   163 dcl map_data_max fixed bin defined (cobol_$map_data_max);
  1   164 dcl cobol_$fixup_max fixed bin ext;
  1   165 dcl fixup_max fixed bin defined (cobol_$fixup_max);
  1   166 dcl cobol_$tag_table_max fixed bin ext;
  1   167 dcl tag_table_max fixed bin defined (cobol_$tag_table_max);
  1   168 dcl cobol_$temp_token_max fixed bin ext;
  1   169 dcl temp_token_max fixed bin defined (cobol_$temp_token_max);
  1   170 dcl cobol_$allo1_max fixed bin ext;
  1   171 dcl allo1_max fixed bin defined (cobol_$allo1_max);
  1   172 dcl cobol_$eln_max fixed bin ext;
  1   173 dcl eln_max fixed bin defined (cobol_$eln_max);
  1   174 dcl cobol_$debug_enable fixed bin ext;
  1   175 dcl debug_enable fixed bin defined (cobol_$debug_enable);
  1   176 dcl cobol_$non_source_offset fixed bin ext;
  1   177 dcl non_source_offset fixed bin defined (cobol_$non_source_offset);
  1   178 dcl cobol_$initval_flag fixed bin ext;
  1   179 dcl initval_flag fixed bin defined (cobol_$initval_flag);
  1   180 dcl cobol_$date_compiled_sw fixed bin ext;
  1   181 dcl date_compiled_sw fixed bin defined (cobol_$date_compiled_sw);
  1   182 dcl cobol_$include_cnt fixed bin ext;
  1   183 dcl include_cnt fixed bin defined (cobol_$include_cnt);
  1   184 dcl cobol_$fs_charcnt fixed bin ext;
  1   185 dcl fs_charcnt fixed bin defined (cobol_$fs_charcnt);
  1   186 dcl cobol_$ws_charcnt fixed bin ext;
  1   187 dcl ws_charcnt fixed bin defined (cobol_$ws_charcnt);
  1   188 dcl cobol_$coms_charcnt fixed bin ext;
  1   189 dcl coms_charcnt fixed bin defined (cobol_$coms_charcnt);
  1   190 dcl cobol_$ls_charcnt fixed bin ext;
  1   191 dcl ls_charcnt fixed bin defined (cobol_$ls_charcnt);
  1   192 dcl cobol_$cons_charcnt fixed bin ext;
  1   193 dcl cons_charcnt fixed bin defined (cobol_$cons_charcnt);
  1   194 dcl cobol_$value_cnt fixed bin ext;
  1   195 dcl value_cnt fixed bin defined (cobol_$value_cnt);
  1   196 dcl cobol_$cd_cnt fixed bin ext;
  1   197 dcl cd_cnt fixed bin defined (cobol_$cd_cnt);
  1   198 dcl cobol_$fs_wdoff fixed bin ext;
  1   199 dcl fs_wdoff fixed bin defined (cobol_$fs_wdoff);
  1   200 dcl cobol_$ws_wdoff fixed bin ext;
  1   201 dcl ws_wdoff fixed bin defined (cobol_$ws_wdoff);
  1   202 dcl cobol_$coms_wdoff fixed bin ext;
  1   203 dcl coms_wdoff fixed bin defined (cobol_$coms_wdoff);
  1   204
  1   205 /* CHARACTER */
  1   206 dcl cobol_$scratch_dir char (168)   aligned ext;
  1   207 dcl scratch_dir char (168)   aligned defined (cobol_$scratch_dir);			/* -42- */
  1   208 dcl cobol_$obj_seg_name char (32)   aligned ext;
  1   209 dcl obj_seg_name char (32)   aligned defined (cobol_$obj_seg_name);		/* -8- */
  1   210
  1   211 /* BIT */
  1   212 dcl cobol_$xref_bypass bit(1) aligned ext;
  1   213 dcl xref_bypass bit(1) aligned defined (cobol_$xref_bypass);			/* -1- */
  1   214 dcl cobol_$same_sort_merge_proc bit(1) aligned ext;
  1   215 dcl same_sort_merge_proc bit(1) aligned defined (cobol_$same_sort_merge_proc);		/* -1- */
  1   216
  1   217
  1   218 /* END INCLUDE FILE ... cobol_incl.pl1*/
  1   219
  1   220
      149
      150
      151      end cobol_process_error;
	SOURCE FILES USED IN THIS COMPILATION.

LINE      NUMBER  DATE MODIFIED     NAME			PATHNAME
             0    05/24/89  0832.7  cobol_process_error.pl1           >spec>install>MR12.3-1048>cobol_process_error.pl1
149          1    11/11/82  1712.7  cobol_.incl.pl1                   >ldd>include>cobol_.incl.pl1
	NAMES DECLARED IN THIS COMPILATION.

IDENTIFIER	     OFFSET    LOC STORAGE CLASS   DATA TYPE		ATTRIBUTES AND REFERENCES
								(* indicates a set context)

NAMES DECLARED BY DECLARE STATEMENT.
add_use_code                    000011 internal static bit(36)                  initial packed unaligned dcl 108 set ref 132 132
addr                                                   builtin function         dcl 144 ref 132 132 135 135
cobol_emit                      000012 constant        entry                    external dcl 115 ref 132 135
cobol_error_code                       parameter       fixed bin(17,0)          dcl 36 set ref 29 124 127 127* 130
cobol_reg_manager$after_op      000016 constant        entry                    external dcl 118 ref 136
cobol_reg_manager$before_op     000014 constant        entry                    external dcl 116 ref 131
error_code_relp                        parameter       fixed bin(17,0)          dcl 38 ref 29 124
inst_seq                        000010 internal static bit(36)                  initial packed unaligned dcl 106 set ref 134* 135
                                                                                  135
line_no                                parameter       fixed bin(17,0)          dcl 37 ref 29 124
null                                                   builtin function         dcl 144 ref 132 132 135 135
substr                                                 builtin function         dcl 144 set ref 134* 134
sw                              000100 automatic       fixed bin(17,0)          dcl 112 set ref 122* 126* 132
temp                            000101 automatic       fixed bin(17,0)          dcl 113 set ref 130* 131* 134 136*
unspec                                                 builtin function         dcl 144 ref 134

NAMES DECLARED BY DECLARE STATEMENT AND NEVER REFERENCED.
addrel                                                 builtin function         dcl 144
allo1_max                              defined         fixed bin(17,0)          dcl 1-171
allo1_ptr                              defined         pointer                  dcl 1-67
alter_flag                             defined         fixed bin(17,0)          dcl 1-135
alter_index                            defined         fixed bin(17,0)          dcl 1-153
alter_list_ptr                         defined         pointer                  dcl 1-39
binary                                                 builtin function         dcl 144
cd_cnt                                 defined         fixed bin(17,0)          dcl 1-197
cobol_$allo1_max                       external static fixed bin(17,0)          dcl 1-170
cobol_$allo1_ptr                       external static pointer                  dcl 1-66
cobol_$alter_flag                      external static fixed bin(17,0)          dcl 1-134
cobol_$alter_index                     external static fixed bin(17,0)          dcl 1-152
cobol_$alter_list_ptr                  external static pointer                  dcl 1-38
cobol_$cd_cnt                          external static fixed bin(17,0)          dcl 1-196
cobol_$cobol_data_wd_off               external static fixed bin(17,0)          dcl 1-118
cobol_$compile_count                   external static fixed bin(17,0)          dcl 1-142
cobol_$coms_charcnt                    external static fixed bin(17,0)          dcl 1-188
cobol_$coms_wdoff                      external static fixed bin(17,0)          dcl 1-202
cobol_$con_end_ptr                     external static pointer                  dcl 1-10
cobol_$con_wd_off                      external static fixed bin(17,0)          dcl 1-92
cobol_$cons_charcnt                    external static fixed bin(17,0)          dcl 1-192
cobol_$constant_offset                 external static fixed bin(17,0)          dcl 1-156
cobol_$data_init_flag                  external static fixed bin(17,0)          dcl 1-130
cobol_$date_compiled_sw                external static fixed bin(17,0)          dcl 1-180
cobol_$debug_enable                    external static fixed bin(17,0)          dcl 1-174
cobol_$def_base_ptr                    external static pointer                  dcl 1-12
cobol_$def_max                         external static fixed bin(17,0)          dcl 1-96
cobol_$def_wd_off                      external static fixed bin(17,0)          dcl 1-94
cobol_$diag_ptr                        external static pointer                  dcl 1-70
cobol_$eln_max                         external static fixed bin(17,0)          dcl 1-172
cobol_$eln_ptr                         external static pointer                  dcl 1-68
cobol_$fixup_max                       external static fixed bin(17,0)          dcl 1-164
cobol_$fixup_ptr                       external static pointer                  dcl 1-30
cobol_$fs_charcnt                      external static fixed bin(17,0)          dcl 1-184
cobol_$fs_wdoff                        external static fixed bin(17,0)          dcl 1-198
cobol_$include_cnt                     external static fixed bin(17,0)          dcl 1-182
cobol_$include_info_ptr                external static pointer                  dcl 1-86
cobol_$init_stack_off                  external static fixed bin(17,0)          dcl 1-124
cobol_$initval_base_ptr                external static pointer                  dcl 1-32
cobol_$initval_file_ptr                external static pointer                  dcl 1-34
cobol_$initval_flag                    external static fixed bin(17,0)          dcl 1-178
cobol_$link_base_ptr                   external static pointer                  dcl 1-14
cobol_$link_max                        external static fixed bin(17,0)          dcl 1-100
cobol_$link_wd_off                     external static fixed bin(17,0)          dcl 1-98
cobol_$list_off                        external static fixed bin(17,0)          dcl 1-154
cobol_$list_ptr                        external static pointer                  dcl 1-64
cobol_$ls_charcnt                      external static fixed bin(17,0)          dcl 1-190
cobol_$main_pcs_ptr                    external static pointer                  dcl 1-84
cobol_$map_data_max                    external static fixed bin(17,0)          dcl 1-162
cobol_$map_data_ptr                    external static pointer                  dcl 1-54
cobol_$max_stack_off                   external static fixed bin(17,0)          dcl 1-122
cobol_$minpral5_ptr                    external static pointer                  dcl 1-50
cobol_$misc_base_ptr                   external static pointer                  dcl 1-60
cobol_$misc_end_ptr                    external static pointer                  dcl 1-62
cobol_$misc_max                        external static fixed bin(17,0)          dcl 1-158
cobol_$next_tag                        external static fixed bin(17,0)          dcl 1-128
cobol_$non_source_offset               external static fixed bin(17,0)          dcl 1-176
cobol_$ntbuf_ptr                       external static pointer                  dcl 1-82
cobol_$obj_seg_name                    external static char(32)                 dcl 1-208
cobol_$op_con_ptr                      external static pointer                  dcl 1-80
cobol_$para_eop_flag                   external static fixed bin(17,0)          dcl 1-138
cobol_$pd_map_index                    external static fixed bin(17,0)          dcl 1-116
cobol_$pd_map_max                      external static fixed bin(17,0)          dcl 1-160
cobol_$pd_map_ptr                      external static pointer                  dcl 1-28
cobol_$pd_map_sw                       external static fixed bin(17,0)          dcl 1-126
cobol_$perform_list_ptr                external static pointer                  dcl 1-36
cobol_$perform_para_index              external static fixed bin(17,0)          dcl 1-148
cobol_$perform_sect_index              external static fixed bin(17,0)          dcl 1-150
cobol_$priority_no                     external static fixed bin(17,0)          dcl 1-140
cobol_$ptr_assumption_ind              external static fixed bin(17,0)          dcl 1-144
cobol_$ptr_status_ptr                  external static pointer                  dcl 1-56
cobol_$reg_assumption_ind              external static fixed bin(17,0)          dcl 1-146
cobol_$reg_status_ptr                  external static pointer                  dcl 1-58
cobol_$reloc_def_base_ptr              external static pointer                  dcl 1-20
cobol_$reloc_def_max                   external static fixed bin(24,0)          dcl 1-108
cobol_$reloc_link_base_ptr             external static pointer                  dcl 1-22
cobol_$reloc_link_max                  external static fixed bin(24,0)          dcl 1-110
cobol_$reloc_sym_base_ptr              external static pointer                  dcl 1-24
cobol_$reloc_sym_max                   external static fixed bin(24,0)          dcl 1-112
cobol_$reloc_text_base_ptr             external static pointer                  dcl 1-18
cobol_$reloc_text_max                  external static fixed bin(24,0)          dcl 1-106
cobol_$reloc_work_base_ptr             external static pointer                  dcl 1-26
cobol_$reloc_work_max                  external static fixed bin(24,0)          dcl 1-114
cobol_$reswd_ptr                       external static pointer                  dcl 1-78
cobol_$same_sort_merge_proc            external static bit(1)                   dcl 1-214
cobol_$scratch_dir                     external static char(168)                dcl 1-206
cobol_$sect_eop_flag                   external static fixed bin(17,0)          dcl 1-136
cobol_$seg_init_flag                   external static fixed bin(17,0)          dcl 1-132
cobol_$seg_init_list_ptr               external static pointer                  dcl 1-40
cobol_$stack_off                       external static fixed bin(17,0)          dcl 1-120
cobol_$statement_info_ptr              external static pointer                  dcl 1-76
cobol_$sym_base_ptr                    external static pointer                  dcl 1-16
cobol_$sym_max                         external static fixed bin(17,0)          dcl 1-104
cobol_$sym_wd_off                      external static fixed bin(17,0)          dcl 1-102
cobol_$tag_table_max                   external static fixed bin(17,0)          dcl 1-166
cobol_$tag_table_ptr                   external static pointer                  dcl 1-52
cobol_$temp_token_area_ptr             external static pointer                  dcl 1-42
cobol_$temp_token_max                  external static fixed bin(17,0)          dcl 1-168
cobol_$temp_token_ptr                  external static pointer                  dcl 1-44
cobol_$text_base_ptr                   external static pointer                  dcl 1-8
cobol_$text_wd_off                     external static fixed bin(17,0)          dcl 1-90
cobol_$token_block1_ptr                external static pointer                  dcl 1-46
cobol_$token_block2_ptr                external static pointer                  dcl 1-48
cobol_$value_cnt                       external static fixed bin(17,0)          dcl 1-194
cobol_$ws_charcnt                      external static fixed bin(17,0)          dcl 1-186
cobol_$ws_wdoff                        external static fixed bin(17,0)          dcl 1-200
cobol_$xref_bypass                     external static bit(1)                   dcl 1-212
cobol_$xref_chain_ptr                  external static pointer                  dcl 1-74
cobol_$xref_token_ptr                  external static pointer                  dcl 1-72
cobol_data_wd_off                      defined         fixed bin(17,0)          dcl 1-119
compile_count                          defined         fixed bin(17,0)          dcl 1-143
coms_charcnt                           defined         fixed bin(17,0)          dcl 1-189
coms_wdoff                             defined         fixed bin(17,0)          dcl 1-203
con_end_ptr                            defined         pointer                  dcl 1-11
con_wd_off                             defined         fixed bin(17,0)          dcl 1-93
cons_charcnt                           defined         fixed bin(17,0)          dcl 1-193
constant_offset                        defined         fixed bin(17,0)          dcl 1-157
data_init_flag                         defined         fixed bin(17,0)          dcl 1-131
date_compiled_sw                       defined         fixed bin(17,0)          dcl 1-181
debug_enable                           defined         fixed bin(17,0)          dcl 1-175
def_base_ptr                           defined         pointer                  dcl 1-13
def_max                                defined         fixed bin(17,0)          dcl 1-97
def_wd_off                             defined         fixed bin(17,0)          dcl 1-95
diag_ptr                               defined         pointer                  dcl 1-71
eln_max                                defined         fixed bin(17,0)          dcl 1-173
eln_ptr                                defined         pointer                  dcl 1-69
fixed                                                  builtin function         dcl 144
fixup_max                              defined         fixed bin(17,0)          dcl 1-165
fixup_ptr                              defined         pointer                  dcl 1-31
fs_charcnt                             defined         fixed bin(17,0)          dcl 1-185
fs_wdoff                               defined         fixed bin(17,0)          dcl 1-199
include_cnt                            defined         fixed bin(17,0)          dcl 1-183
include_info_ptr                       defined         pointer                  dcl 1-87
index                                                  builtin function         dcl 144
init_stack_off                         defined         fixed bin(17,0)          dcl 1-125
initval_base_ptr                       defined         pointer                  dcl 1-33
initval_file_ptr                       defined         pointer                  dcl 1-35
initval_flag                           defined         fixed bin(17,0)          dcl 1-179
length                                                 builtin function         dcl 144
link_base_ptr                          defined         pointer                  dcl 1-15
link_max                               defined         fixed bin(17,0)          dcl 1-101
link_wd_off                            defined         fixed bin(17,0)          dcl 1-99
list_off                               defined         fixed bin(17,0)          dcl 1-155
list_ptr                               defined         pointer                  dcl 1-65
ls_charcnt                             defined         fixed bin(17,0)          dcl 1-191
main_pcs_ptr                           defined         pointer                  dcl 1-85
map_data_max                           defined         fixed bin(17,0)          dcl 1-163
map_data_ptr                           defined         pointer                  dcl 1-55
max_stack_off                          defined         fixed bin(17,0)          dcl 1-123
minpral5_ptr                           defined         pointer                  dcl 1-51
misc_base_ptr                          defined         pointer                  dcl 1-61
misc_end_ptr                           defined         pointer                  dcl 1-63
misc_max                               defined         fixed bin(17,0)          dcl 1-159
mod                                                    builtin function         dcl 144
next_tag                               defined         fixed bin(17,0)          dcl 1-129
non_source_offset                      defined         fixed bin(17,0)          dcl 1-177
ntbuf_ptr                              defined         pointer                  dcl 1-83
obj_seg_name                           defined         char(32)                 dcl 1-209
op_con_ptr                             defined         pointer                  dcl 1-81
para_eop_flag                          defined         fixed bin(17,0)          dcl 1-139
pd_map_index                           defined         fixed bin(17,0)          dcl 1-117
pd_map_max                             defined         fixed bin(17,0)          dcl 1-161
pd_map_ptr                             defined         pointer                  dcl 1-29
pd_map_sw                              defined         fixed bin(17,0)          dcl 1-127
perform_list_ptr                       defined         pointer                  dcl 1-37
perform_para_index                     defined         fixed bin(17,0)          dcl 1-149
perform_sect_index                     defined         fixed bin(17,0)          dcl 1-151
priority_no                            defined         fixed bin(17,0)          dcl 1-141
ptr_assumption_ind                     defined         fixed bin(17,0)          dcl 1-145
ptr_status_ptr                         defined         pointer                  dcl 1-57
reg_assumption_ind                     defined         fixed bin(17,0)          dcl 1-147
reg_status_ptr                         defined         pointer                  dcl 1-59
rel                                                    builtin function         dcl 144
reloc_def_base_ptr                     defined         pointer                  dcl 1-21
reloc_def_max                          defined         fixed bin(24,0)          dcl 1-109
reloc_link_base_ptr                    defined         pointer                  dcl 1-23
reloc_link_max                         defined         fixed bin(24,0)          dcl 1-111
reloc_sym_base_ptr                     defined         pointer                  dcl 1-25
reloc_sym_max                          defined         fixed bin(24,0)          dcl 1-113
reloc_text_base_ptr                    defined         pointer                  dcl 1-19
reloc_text_max                         defined         fixed bin(24,0)          dcl 1-107
reloc_work_base_ptr                    defined         pointer                  dcl 1-27
reloc_work_max                         defined         fixed bin(24,0)          dcl 1-115
reswd_ptr                              defined         pointer                  dcl 1-79
same_sort_merge_proc                   defined         bit(1)                   dcl 1-215
scratch_dir                            defined         char(168)                dcl 1-207
sect_eop_flag                          defined         fixed bin(17,0)          dcl 1-137
seg_init_flag                          defined         fixed bin(17,0)          dcl 1-133
seg_init_list_ptr                      defined         pointer                  dcl 1-41
stack_off                              defined         fixed bin(17,0)          dcl 1-121
statement_info_ptr                     defined         pointer                  dcl 1-77
string                                                 builtin function         dcl 144
sym_base_ptr                           defined         pointer                  dcl 1-17
sym_max                                defined         fixed bin(17,0)          dcl 1-105
sym_wd_off                             defined         fixed bin(17,0)          dcl 1-103
tag_table_max                          defined         fixed bin(17,0)          dcl 1-167
tag_table_ptr                          defined         pointer                  dcl 1-53
temp_token_area_ptr                    defined         pointer                  dcl 1-43
temp_token_max                         defined         fixed bin(17,0)          dcl 1-169
temp_token_ptr                         defined         pointer                  dcl 1-45
text_base_ptr                          defined         pointer                  dcl 1-9
text_wd_off                            defined         fixed bin(17,0)          dcl 1-91
token_block1_ptr                       defined         pointer                  dcl 1-47
token_block2_ptr                       defined         pointer                  dcl 1-49
value_cnt                              defined         fixed bin(17,0)          dcl 1-195
ws_charcnt                             defined         fixed bin(17,0)          dcl 1-187
ws_wdoff                               defined         fixed bin(17,0)          dcl 1-201
xref_bypass                            defined         bit(1)                   dcl 1-213
xref_chain_ptr                         defined         pointer                  dcl 1-75
xref_token_ptr                         defined         pointer                  dcl 1-73

NAMES DECLARED BY EXPLICIT CONTEXT.
cobol_process_error             000010 constant        entry                    external dcl 29
start                           000031 constant        label                    dcl 127 ref 123
use                             000022 constant        entry                    external dcl 124

THERE WERE NO NAMES DECLARED BY CONTEXT OR IMPLICATION.

STORAGE REQUIREMENTS FOR THIS PROGRAM.

	Object	Text	Link	Symbol	Defs	Static
Start          0       0       214         234     132         224
Length       424     132        20         154      61           2

BLOCK NAME	         STACK SIZE     TYPE		WHY NONQUICK/WHO SHARES STACK FRAME
cobol_process_error                  84 external procedure  is an external procedure.

STORAGE FOR INTERNAL STATIC VARIABLES.

   LOC IDENTIFIER                  BLOCK NAME
000010 inst_seq                    cobol_process_error
000011 add_use_code                cobol_process_error

STORAGE FOR AUTOMATIC VARIABLES.

STACK FRAME                 LOC IDENTIFIER                  BLOCK NAME
cobol_process_error      000100 sw                          cobol_process_error
                         000101 temp                        cobol_process_error

THE FOLLOWING EXTERNAL OPERATORS ARE USED BY THIS PROGRAM.
call_ext_out        return_mac          ext_entry

THE FOLLOWING EXTERNAL ENTRIES ARE CALLED BY THIS PROGRAM.
cobol_emit                    cobol_reg_manager$after_op    cobol_reg_manager$before_op

NO EXTERNAL VARIABLES ARE USED BY THIS PROGRAM.


   LINE    LOC      LINE    LOC      LINE    LOC      LINE    LOC      LINE    LOC      LINE    LOC      LINE    LOC
     29 000004       122 000015       123 000017       124 000020       126 000027       127 000031       130 000036
    131 000041       132 000050       134 000074       135 000102       136 000122       137 000131


                                          -----------------------------------------------------------


Historical Background

This edition of the Multics software materials and documentation is provided and donated
to Massachusetts Institute of Technology by Group BULL including BULL HN Information Systems Inc.
as a contribution to computer science knowledge.
This donation is made also to give evidence of the common contributions of Massachusetts Institute of Technology,
Bell Laboratories, General Electric, Honeywell Information Systems Inc., Honeywell BULL Inc., Groupe BULL
and BULL HN Information Systems Inc. to the development of this operating system.
Multics development was initiated by Massachusetts Institute of Technology Project MAC (1963-1970),
renamed the MIT Laboratory for Computer Science and Artificial Intelligence in the mid 1970s, under the leadership
of Professor Fernando Jose Corbato. Users consider that Multics provided the best software architecture
for managing computer hardware properly and for executing programs. Many subsequent operating systems
incorporated Multics principles.
Multics was distributed in 1975 to 2000 by Group Bull in Europe , and in the U.S. by Bull HN Information Systems Inc.,
as successor in interest by change in name only to Honeywell Bull Inc. and Honeywell Information Systems Inc. .

                                          -----------------------------------------------------------

Permission to use, copy, modify, and distribute these programs and their documentation for any purpose and without
fee is hereby granted,provided that the below copyright notice and historical background appear in all copies
and that both the copyright notice and historical background and this permission notice appear in supporting
documentation, and that the names of MIT, HIS, BULL or BULL HN not be used in advertising or publicity pertaining
to distribution of the programs without specific prior written permission.
    Copyright 1972 by Massachusetts Institute of Technology and Honeywell Information Systems Inc.
    Copyright 2006 by BULL HN Information Systems Inc.
    Copyright 2006 by Bull SAS
    All Rights Reserved
