ASSEMBLY LISTING OF SEGMENT >spec>install>MR12.3-1048>cobol_db.alm
ASSEMBLED ON:	05/24/89  0927.9 mst Wed
OPTIONS USED:	-target l68                              list symbols
ASSEMBLED BY:	ALM Version 8.13 September 1988
ASSEMBLER CREATED:	10/24/88  1635.1 mst Mon

                                     1  " ***********************************************************
                                     2  " *                                                         *
                                     3  " * Copyright, (C) BULL HN Information Systems Inc., 1989   *
                                     4  " *                                                         *
                                     5  " * Copyright, (C) Honeywell Information Systems Inc., 1985 *
                                     6  " *                                                         *
                                     7  " ***********************************************************
                                     8
                                     9  " HISTORY COMMENTS:
                                    10  "  1) change(89-04-23,Zimmerman), approve(89-04-23,MCR8082),
                                    11  "     audit(89-05-05,RWaters), install(89-05-24,MR12.3-1048):
                                    12  "     MCR8082 cobol_db.alm Fix wild array subscript.
                                    13  "                                                      END HISTORY COMMENTS
                                    14
                                    15
    000000                          16  name	cobol_db
                        000000      17  	entry	cobol_db
    000000  aa   000060 6270 00     18  cobol_db:	save
    000001  aa  7 00040 2721 20
    000002  0a   000000 3520 00     19  	epp2	cobol_db
    000003  aa  0 00002 2521 20     20  	spri2	ap|2,*
    000004  aa  7 00042 7101 20     21  	return
                        000000      22  		equ i_r,0
                        000001      23  		equ i_c,1
                        000003      24  		equ i_s,3
                        000002      25  		equ i_n,2
                        000004      26  		equ i_k,4
                        000005      27  		equ i_K,5
                        000000      28  		equ l_org,*-5
    000005  aa   040040 040040      29  	fake1:	vfd a36/    ,36/i_n,36/0,36/(accept-l_org)/5,36/0
    000006  aa   000000 000002
    000007  aa   000000 000000
    000010  aa   000000 000335
    000011  aa   000000 000000
    000012  aa   040040 040040      30  	fake2:	vfd a36/    ,36/i_n,36/0,36/(add-l_org)/5,36/0
    000013  aa   000000 000002
    000014  aa   000000 000000
    000015  aa   000000 000354
    000016  aa   000000 000000
    000017  aa   163040 040040      31  	fake3:	vfd a36/s   ,36/i_n,36/0,36/(r_2-l_org)/5,36/0
    000020  aa   000000 000002
    000021  aa   000000 000000
    000022  aa   000000 002701
    000023  aa   000000 000000
    000024  aa   040040 040040      32  	fake4:	vfd a36/    ,36/i_n,36/0,36/(alter-l_org)/5,36/0
    000025  aa   000000 000002
    000026  aa   000000 000000
    000027  aa   000000 000376
    000030  aa   000000 000000
    000031  aa   040040 040040      33  	fake5:	vfd a36/    ,36/i_n,36/0,36/(call-l_org)/5,36/0
    000032  aa   000000 000002
    000033  aa   000000 000000
    000034  aa   000000 000413
    000035  aa   000000 000000
    000036  aa   163040 040040      34  	fake6:	vfd a36/s   ,36/i_n,36/0,36/(r_2-l_org)/5,36/0
    000037  aa   000000 000002
    000040  aa   000000 000000
    000041  aa   000000 002701
    000042  aa   000000 000000
    000043  aa   040040 040040      35  	fake7:	vfd a36/    ,36/i_n,36/0,36/(cancel-l_org)/5,36/0
    000044  aa   000000 000002
    000045  aa   000000 000000
    000046  aa   000000 000445
    000047  aa   000000 000000
    000050  aa   040040 040040      36  	fake8:	vfd a36/    ,36/i_n,36/0,36/(close-l_org)/5,36/0
    000051  aa   000000 000002
    000052  aa   000000 000000
    000053  aa   000000 000452
    000054  aa   000000 000000
    000055  aa   040040 040040      37  	fake9:	vfd a36/    ,36/i_n,36/0,36/(divide-l_org)/5,36/0
    000056  aa   000000 000002
    000057  aa   000000 000000
    000060  aa   000000 000565
    000061  aa   000000 000000
    000062  aa   040040 040040      38  	fake10:	vfd a36/    ,36/i_n,36/0,36/(multiply-l_org)/5,36/0
    000063  aa   000000 000002
    000064  aa   000000 000000
    000065  aa   000000 001122
    000066  aa   000000 000000
    000067  aa   040040 040040      39  	fake11:	vfd a36/    ,36/i_n,36/0,36/(subtract-l_org)/5,36/0
    000070  aa   000000 000002
    000071  aa   000000 000000
    000072  aa   000000 002025
    000073  aa   000000 000000
    000074  aa   040040 040040      40  	fake12:	vfd a36/    ,36/i_n,36/0,36/(exit-l_org)/5,36/0
    000075  aa   000000 000002
    000076  aa   000000 000000
    000077  aa   000000 000634
    000100  aa   000000 000000
    000101  aa   163040 040040      41  	fake13:	vfd a36/s   ,36/i_n,36/0,36/(r_2-l_org)/5,36/0
    000102  aa   000000 000002
    000103  aa   000000 000000
    000104  aa   000000 002701
    000105  aa   000000 000000
    000106  aa   040040 040040      42  	fake14:	vfd a36/    ,36/i_n,36/0,36/(go-l_org)/5,36/0
    000107  aa   000000 000002
    000110  aa   000000 000000
    000111  aa   000000 000642
    000112  aa   000000 000000
    000113  aa   040040 040040      43  	fake15:	vfd a36/    ,36/i_n,36/0,36/(merge-l_org)/5,36/0
    000114  aa   000000 000002
    000115  aa   000000 000000
    000116  aa   000000 001032
    000117  aa   000000 000000
    000120  aa   040040 040040      44  	fake16:	vfd a36/    ,36/i_n,36/0,36/(initiate-l_org)/5,36/0
    000121  aa   000000 000002
    000122  aa   000000 000000
    000123  aa   000000 000726
    000124  aa   000000 000000
    000125  aa   040040 040040      45  	fake17:	vfd a36/    ,36/i_n,36/0,36/(inspect-l_org)/5,36/0
    000126  aa   000000 000002
    000127  aa   000000 000000
    000130  aa   000000 000734
    000131  aa   000000 000000
    000132  aa   040040 040040      46  	fake18:	vfd a36/    ,36/i_n,36/0,36/(move-l_org)/5,36/0
    000133  aa   000000 000002
    000134  aa   000000 000000
    000135  aa   000000 001103
    000136  aa   000000 000000
    000137  aa   040040 040040      47  	fake19:	vfd a36/    ,36/i_n,36/0,36/(open-l_org)/5,36/0
    000140  aa   000000 000002
    000141  aa   000000 000000
    000142  aa   000000 001164
    000143  aa   000000 000000
    000144  aa   040040 040040      48  	fake20:	vfd a36/    ,36/i_n,36/0,36/(perform-l_org)/5,36/0
    000145  aa   000000 000002
    000146  aa   000000 000000
    000147  aa   000000 001227
    000150  aa   000000 000000
    000151  aa   040040 040040      49  	fake21:	vfd a36/    ,36/i_n,36/0,36/(read-l_org)/5,36/0
    000152  aa   000000 000002
    000153  aa   000000 000000
    000154  aa   000000 001324
    000155  aa   000000 000000
    000156  aa   040040 040040      50  	fake22:	vfd a36/    ,36/i_n,36/0,36/(delete-l_org)/5,36/0
    000157  aa   000000 000002
    000160  aa   000000 000000
    000161  aa   000000 002307
    000162  aa   000000 000000
    000163  aa   040040 040040      51  	fake23:	vfd a36/    ,36/i_n,36/0,36/(receive-l_org)/5,36/0
    000164  aa   000000 000002
    000165  aa   000000 000000
    000166  aa   000000 001351
    000167  aa   000000 000000
    000170  aa   040040 040040      52  	fake24:	vfd a36/    ,36/i_n,36/0,36/(release-l_org)/5,36/0
    000171  aa   000000 000002
    000172  aa   000000 000000
    000173  aa   000000 001401
    000174  aa   000000 000000
    000175  aa   040040 040040      53  	fake25:	vfd a36/    ,36/i_n,36/0,36/(return-l_org)/5,36/0
    000176  aa   000000 000002
    000177  aa   000000 000000
    000200  aa   000000 001410
    000201  aa   000000 000000
    000202  aa   040040 040040      54  	fake26:	vfd a36/    ,36/i_n,36/0,36/(search-l_org)/5,36/0
    000203  aa   000000 000002
    000204  aa   000000 000000
    000205  aa   000000 001442
    000206  aa   000000 000000
    000207  aa   040040 040040      55  	fake27:	vfd a36/    ,36/i_n,36/0,36/(rewrite-l_org)/5,36/0
    000210  aa   000000 000002
    000211  aa   000000 000000
    000212  aa   000000 001426
    000213  aa   000000 000000
    000214  aa   163040 040040      56  	fake28:	vfd a36/s   ,36/i_n,36/0,36/(r_2-l_org)/5,36/0
    000215  aa   000000 000002
    000216  aa   000000 000000
    000217  aa   000000 002701
    000220  aa   000000 000000
    000221  aa   163040 040040      57  	fake29:	vfd a36/s   ,36/i_n,36/0,36/(r_2-l_org)/5,36/0
    000222  aa   000000 000002
    000223  aa   000000 000000
    000224  aa   000000 002701
    000225  aa   000000 000000
    000226  aa   040040 040040      58  	fake30:	vfd a36/    ,36/i_n,36/0,36/(send-l_org)/5,36/0
    000227  aa   000000 000002
    000230  aa   000000 000000
    000231  aa   000000 001526
    000232  aa   000000 000000
    000233  aa   040040 040040      59  	fake31:	vfd a36/    ,36/i_n,36/0,36/(set-l_org)/5,36/0
    000234  aa   000000 000002
    000235  aa   000000 000000
    000236  aa   000000 001566
    000237  aa   000000 000000
    000240  aa   163040 040040      60  	fake32:	vfd a36/s   ,36/i_n,36/0,36/(r_2-l_org)/5,36/0
    000241  aa   000000 000002
    000242  aa   000000 000000
    000243  aa   000000 002701
    000244  aa   000000 000000
    000245  aa   040040 040040      61  	fake33:	vfd a36/    ,36/i_n,36/0,36/(stop-l_org)/5,36/0
    000246  aa   000000 000002
    000247  aa   000000 000000
    000250  aa   000000 001744
    000251  aa   000000 000000
    000252  aa   040040 040040      62  	fake34:	vfd a36/    ,36/i_n,36/0,36/(string-l_org)/5,36/0
    000253  aa   000000 000002
    000254  aa   000000 000000
    000255  aa   000000 001751
    000256  aa   000000 000000
    000257  aa   040040 040040      63  	fake35:	vfd a36/    ,36/i_n,36/0,36/(suspend-l_org)/5,36/0
    000260  aa   000000 000002
    000261  aa   000000 000000
    000262  aa   000000 002070
    000263  aa   000000 000000
    000264  aa   040040 040040      64  	fake36:	vfd a36/    ,36/i_n,36/0,36/(terminate-l_org)/5,36/0
    000265  aa   000000 000002
    000266  aa   000000 000000
    000267  aa   000000 002101
    000270  aa   000000 000000
    000271  aa   040040 040040      65  	fake37:	vfd a36/    ,36/i_n,36/0,36/(unstring-l_org)/5,36/0
    000272  aa   000000 000002
    000273  aa   000000 000000
    000274  aa   000000 002107
    000275  aa   000000 000000
    000276  aa   040040 040040      66  	fake38:	vfd a36/    ,36/i_n,36/0,36/(write-l_org)/5,36/0
    000277  aa   000000 000002
    000300  aa   000000 000000
    000301  aa   000000 002175
    000302  aa   000000 000000
    000303  aa   163040 040040      67  	fake39:	vfd a36/s   ,36/i_n,36/0,36/(r_2-l_org)/5,36/0
    000304  aa   000000 000002
    000305  aa   000000 000000
    000306  aa   000000 002701
    000307  aa   000000 000000
    000310  aa   040040 040040      68  	fake40:	vfd a36/    ,36/i_n,36/0,36/(compute-l_org)/5,36/0
    000311  aa   000000 000002
    000312  aa   000000 000000
    000313  aa   000000 000502
    000314  aa   000000 000000
    000315  aa   040040 040040      69  	fake41:	vfd a36/    ,36/i_n,36/0,36/(disable-l_org)/5,36/0
    000316  aa   000000 000002
    000317  aa   000000 000000
    000320  aa   000000 000525
    000321  aa   000000 000000
    000322  aa   040040 040040      70  	fake42:	vfd a36/    ,36/i_n,36/0,36/(display-l_org)/5,36/0
    000323  aa   000000 000002
    000324  aa   000000 000000
    000325  aa   000000 000543
    000326  aa   000000 000000
    000327  aa   040040 040040      71  	fake43:	vfd a36/    ,36/i_n,36/0,36/(enable-l_org)/5,36/0
    000330  aa   000000 000002
    000331  aa   000000 000000
    000332  aa   000000 000633
    000333  aa   000000 000000
    000334  aa   040040 040040      72  	fake44:	vfd a36/    ,36/i_n,36/0,36/(r_2-l_org)/5,36/0
    000335  aa   000000 000002
    000336  aa   000000 000000
    000337  aa   000000 002701
    000340  aa   000000 000000
    000341  aa   040040 040040      73  	fake45:	vfd a36/    ,36/i_n,36/0,36/(generate-l_org)/5,36/0
    000342  aa   000000 000002
    000343  aa   000000 000000
    000344  aa   000000 000637
    000345  aa   000000 000000
    000346  aa   040040 040040      74  	fake46:	vfd a36/    ,36/i_n,36/0,36/(hold-l_org)/5,36/0
    000347  aa   000000 000002
    000350  aa   000000 000000
    000351  aa   000000 000656
    000352  aa   000000 000000
    000353  aa   040040 040040      75  	fake47:	vfd a36/    ,36/i_n,36/0,36/(if-l_org)/5,36/0
    000354  aa   000000 000002
    000355  aa   000000 000000
    000356  aa   000000 000664
    000357  aa   000000 000000
    000360  aa   040040 040040      76  	fake48:	vfd a36/    ,36/i_n,36/0,36/(process-l_org)/5,36/0
    000361  aa   000000 000002
    000362  aa   000000 000000
    000363  aa   000000 001306
    000364  aa   000000 000000
    000365  aa   040040 040040      77  	fake49:	vfd a36/    ,36/i_n,36/0,36/(sort-l_org)/5,36/0
    000366  aa   000000 000002
    000367  aa   000000 000000
    000370  aa   000000 001631
    000371  aa   000000 000000
    000372  aa   040040 040040      78  	fake50:	vfd a36/    ,36/i_n,36/0,36/(examine-l_org)/5,36/0
    000373  aa   000000 000002
    000374  aa   000000 000000
    000375  aa   000000 002227
    000376  aa   000000 000000
    000377  aa   040040 040040      79  	fake51:	vfd a36/    ,36/i_n,36/0,36/(transform-l_org)/5,36/0
    000400  aa   000000 000002
    000401  aa   000000 000000
    000402  aa   000000 002266
    000403  aa   000000 000000
    000404  aa   163040 040040      80  	fake52:	vfd a36/s   ,36/i_n,36/0,36/(r_2-l_org)/5,36/0
    000405  aa   000000 000002
    000406  aa   000000 000000
    000407  aa   000000 002701
    000410  aa   000000 000000
    000411  aa   163040 040040      81  	fake53:	vfd a36/s   ,36/i_n,36/0,36/(r_2-l_org)/5,36/0
    000412  aa   000000 000002
    000413  aa   000000 000000
    000414  aa   000000 002701
    000415  aa   000000 000000
    000416  aa   163040 040040      82  	fake54:	vfd a36/s   ,36/i_n,36/0,36/(r_2-l_org)/5,36/0
    000417  aa   000000 000002
    000420  aa   000000 000000
    000421  aa   000000 002701
    000422  aa   000000 000000
    000423  aa   163040 040040      83  	fake55:	vfd a36/s   ,36/i_n,36/0,36/(r_2-l_org)/5,36/0
    000424  aa   000000 000002
    000425  aa   000000 000000
    000426  aa   000000 002701
    000427  aa   000000 000000
    000430  aa   040040 040040      84  	fake56:	vfd a36/    ,36/i_n,36/0,36/(start-l_org)/5,36/0
    000431  aa   000000 000002
    000432  aa   000000 000000
    000433  aa   000000 001717
    000434  aa   000000 000000
    000435  aa   040040 040040      85  	fake57:	vfd a36/    ,36/i_n,36/0,36/(suppress-l_org)/5,36/0
    000436  aa   000000 000002
    000437  aa   000000 000000
    000440  aa   000000 002320
    000441  aa   000000 000000
    000442  aa   040040 040040      86  	fake58:	vfd a36/    ,36/i_n,36/0,36/(purge-l_org)/5,36/0
    000443  aa   000000 000002
    000444  aa   000000 000000
    000445  aa   000000 001321
    000446  aa   000000 000000
    000447  aa   163040 040040      87  l_1:		vfd a36/s   ,36/i_r,36/r_procedure,36/(l_2-l_org)/5,36/a_34
    000450  aa   000000 000000
    000451  aa   000000 000216
    000452  aa   000000 000075
    000453  aa   000000 000042
    000454  aa   040040 040040      88  		vfd a36/    ,36/i_n,36/0,36/(r_1-l_org)/5,36/0
    000455  aa   000000 000002
    000456  aa   000000 000000
    000457  aa   000000 002672
    000460  aa   000000 000000
    000461  aa   163040 040040      89  l_2:		vfd a36/s   ,36/i_r,36/r_division,36/(l_3-l_org)/5,36/0
    000462  aa   000000 000000
    000463  aa   000000 000136
    000464  aa   000000 000077
    000465  aa   000000 000000
    000466  aa   040040 040040      90  		vfd a36/    ,36/i_n,36/0,36/(r_1-l_org)/5,36/0
    000467  aa   000000 000002
    000470  aa   000000 000000
    000471  aa   000000 002672
    000472  aa   000000 000000
    000473  aa   163040 040040      91  l_3:		vfd a36/s   ,36/i_r,36/r_using,36/(l_4-l_org)/5,36/0
    000474  aa   000000 000000
    000475  aa   000000 000260
    000476  aa   000000 000102
    000477  aa   000000 000000
    000500  aa   163040 040040      92  		vfd a36/s   ,36/i_r,36/r_per,36/(decl-l_org)/5,36/0
    000501  aa   000000 000000
    000502  aa   000000 000275
    000503  aa   000000 000107
    000504  aa   000000 000000
    000505  aa   040040 040040      93  		vfd a36/    ,36/i_n,36/0,36/(decl-l_org)/5,36/0
    000506  aa   000000 000002
    000507  aa   000000 000000
    000510  aa   000000 000107
    000511  aa   000000 000000
    000512  aa   163040 040040      94  l_4:		vfd a36/s   ,36/i_c,36/c_lident,36/(l_5-l_org)/5,36/0
    000513  aa   000000 000001
    000514  aa   000000 000002
    000515  aa   000000 000104
    000516  aa   000000 000000
    000517  aa   040040 040040      95  		vfd a36/    ,36/i_n,36/0,36/(r_1-l_org)/5,36/0
    000520  aa   000000 000002
    000521  aa   000000 000000
    000522  aa   000000 002672
    000523  aa   000000 000000
    000524  aa   163040 040040      96  l_5:		vfd a36/s   ,36/i_c,36/c_lident,36/(l_5-l_org)/5,36/0
    000525  aa   000000 000001
    000526  aa   000000 000002
    000527  aa   000000 000104
    000530  aa   000000 000000
    000531  aa   163040 040040      97  		vfd a36/s   ,36/i_r,36/r_per,36/(l_6-l_org)/5,36/0
    000532  aa   000000 000000
    000533  aa   000000 000275
    000534  aa   000000 000107
    000535  aa   000000 000000
    000536  aa   040040 040040      98  		vfd a36/    ,36/i_n,36/0,36/(l_6-l_org)/5,36/0
    000537  aa   000000 000002
    000540  aa   000000 000000
    000541  aa   000000 000107
    000542  aa   000000 000000
    000543  aa   040040 040040      99  l_6:	decl:	vfd a36/    ,36/i_n,36/0,36/(l_7-l_org)/5,36/a_eos
    000544  aa   000000 000002
    000545  aa   000000 000000
    000546  aa   000000 000110
    000547  aa   000000 000126
    000550  aa   163040 040040     100  l_7:		vfd a36/s   ,36/i_n,36/0,36/(l_8-l_org)/5,36/a_35
    000551  aa   000000 000002
    000552  aa   000000 000000
    000553  aa   000000 000111
    000554  aa   000000 000043
    000555  aa   163040 040040     101  l_8:		vfd a36/s   ,36/i_r,36/r_declaratives,36/(l_9-l_org)/5,36/a_106
    000556  aa   000000 000000
    000557  aa   000000 000131
    000560  aa   000000 000113
    000561  aa   000000 000152
    000562  aa   040040 040040     102  		vfd a36/    ,36/i_n,36/0,36/(nodecl-l_org)/5,36/a_107
    000563  aa   000000 000002
    000564  aa   000000 000000
    000565  aa   000000 000122
    000566  aa   000000 000153
    000567  aa   163040 040040     103  l_9:		vfd a36/s   ,36/i_r,36/r_per,36/(l_10-l_org)/5,36/0
    000570  aa   000000 000000
    000571  aa   000000 000275
    000572  aa   000000 000115
    000573  aa   000000 000000
    000574  aa   040040 040040     104  		vfd a36/    ,36/i_n,36/0,36/(l_10-l_org)/5,36/0
    000575  aa   000000 000002
    000576  aa   000000 000000
    000577  aa   000000 000115
    000600  aa   000000 000000
    000601  aa   040040 040040     105  l_10:		vfd a36/    ,36/i_n,36/0,36/(l_11-l_org)/5,36/a_eos
    000602  aa   000000 000002
    000603  aa   000000 000000
    000604  aa   000000 000116
    000605  aa   000000 000126
    000606  aa   163040 040040     106  l_11:		vfd a36/s   ,36/i_c,36/c_enddec,36/(l_12-l_org)/5,36/a_107
    000607  aa   000000 000001
    000610  aa   000000 000163
    000611  aa   000000 000121
    000612  aa   000000 000153
    000613  aa   040040 040040     107  		vfd a36/    ,36/i_s,36/(decl_sect-l_org)/5,36/(nodecl-l_org)/5,36/0
    000614  aa   000000 000003
    000615  aa   000000 000147
    000616  aa   000000 000122
    000617  aa   000000 000000
    000620  aa   040040 040040     108  		vfd a36/    ,36/i_n,36/0,36/(r_6-l_org)/5,36/0
    000621  aa   000000 000002
    000622  aa   000000 000000
    000623  aa   000000 002733
    000624  aa   000000 000000
    000625  aa   163040 040040     109  l_12:		vfd a36/s   ,36/i_n,36/0,36/(l_13-l_org)/5,36/0
    000626  aa   000000 000002
    000627  aa   000000 000000
    000630  aa   000000 000122
    000631  aa   000000 000000
    000632  aa   040040 040040     110  l_13:	nodecl:	vfd a36/    ,36/i_c,36/c_sechdr,36/(nod_1-l_org)/5,36/0
    000633  aa   000000 000001
    000634  aa   000000 000004
    000635  aa   000000 000134
    000636  aa   000000 000000
    000637  aa   040040 040040     111  		vfd a36/    ,36/i_c,36/c_paranm,36/(nod_3-l_org)/5,36/0
    000640  aa   000000 000001
    000641  aa   000000 000010
    000642  aa   000000 000143
    000643  aa   000000 000000
    000644  aa   163040 040040     112  		vfd a36/s   ,36/i_c,36/c_endcob,36/(l_14-l_org)/5,36/a_24
    000645  aa   000000 000001
    000646  aa   000000 000047
    000647  aa   000000 000126
    000650  aa   000000 000030
    000651  aa   040040 040040     113  		vfd a36/    ,36/i_n,36/0,36/(r_3-l_org)/5,36/0
    000652  aa   000000 000002
    000653  aa   000000 000000
    000654  aa   000000 002711
    000655  aa   000000 000000
    000656  aa   163040 040040     114  l_14:	endcob:	vfd a36/s   ,36/i_n,36/0,36/(l_15-l_org)/5,36/0
    000657  aa   000000 000002
    000660  aa   000000 000000
    000661  aa   000000 000127
    000662  aa   000000 000000
    000663  aa   163040 040040     115  l_15:		vfd a36/s   ,36/i_r,36/r_per,36/(l_16-l_org)/5,36/0
    000664  aa   000000 000000
    000665  aa   000000 000275
    000666  aa   000000 000131
    000667  aa   000000 000000
    000670  aa   040040 040040     116  		vfd a36/    ,36/i_n,36/0,36/(l_16-l_org)/5,36/0
    000671  aa   000000 000002
    000672  aa   000000 000000
    000673  aa   000000 000131
    000674  aa   000000 000000
    000675  aa   040040 040040     117  l_16:		vfd a36/    ,36/i_n,36/0,36/(l_17-l_org)/5,36/a_eos
    000676  aa   000000 000002
    000677  aa   000000 000000
    000700  aa   000000 000132
    000701  aa   000000 000126
    000702  aa   040040 040040     118  l_17:		vfd a36/    ,36/i_c,36/c_cktp25,36/(l_18-l_org)/5,36/a_25
    000703  aa   000000 000001
    000704  aa   000000 000242
    000705  aa   000000 000133
    000706  aa   000000 000031
    000707  aa   040040 040040     119  l_18:		vfd a36/    ,36/i_n,36/0,36/(l_18-l_org)/5,36/a_endjob
    000710  aa   000000 000002
    000711  aa   000000 000000
    000712  aa   000000 000133
    000713  aa   000000 000127
    000714  aa   040040 040040     120  	nod_1:	vfd a36/    ,36/i_s,36/(sechdr-l_org)/5,36/(l_19-l_org)/5,36/0
    000715  aa   000000 000003
    000716  aa   000000 000166
    000717  aa   000000 000136
    000720  aa   000000 000000
    000721  aa   040040 040040     121  		vfd a36/    ,36/i_n,36/0,36/(r_3-l_org)/5,36/0
    000722  aa   000000 000002
    000723  aa   000000 000000
    000724  aa   000000 002711
    000725  aa   000000 000000
    000726  aa   040040 040040     122  l_19:		vfd a36/    ,36/i_s,36/(para-l_org)/5,36/(l_19-l_org)/5,36/0
    000727  aa   000000 000003
    000730  aa   000000 000175
    000731  aa   000000 000136
    000732  aa   000000 000000
    000733  aa   040040 040040     123  		vfd a36/    ,36/i_c,36/c_sechdr,36/(nod_1-l_org)/5,36/0
    000734  aa   000000 000001
    000735  aa   000000 000004
    000736  aa   000000 000134
    000737  aa   000000 000000
    000740  aa   163040 040040     124  		vfd a36/s   ,36/i_c,36/c_endcob,36/(l_20-l_org)/5,36/a_24
    000741  aa   000000 000001
    000742  aa   000000 000047
    000743  aa   000000 000142
    000744  aa   000000 000030
    000745  aa   040040 040040     125  		vfd a36/    ,36/i_n,36/0,36/(r_3-l_org)/5,36/0
    000746  aa   000000 000002
    000747  aa   000000 000000
    000750  aa   000000 002711
    000751  aa   000000 000000
    000752  aa   040040 040040     126  l_20:		vfd a36/    ,36/i_n,36/0,36/(endcob-l_org)/5,36/a_eos
    000753  aa   000000 000002
    000754  aa   000000 000000
    000755  aa   000000 000126
    000756  aa   000000 000126
    000757  aa   040040 040040     127  	nod_3:	vfd a36/    ,36/i_s,36/(para-l_org)/5,36/(nod_3-l_org)/5,36/0
    000760  aa   000000 000003
    000761  aa   000000 000175
    000762  aa   000000 000143
    000763  aa   000000 000000
    000764  aa   040040 040040     128  		vfd a36/    ,36/i_c,36/c_sechdr,36/(nod_1-l_org)/5,36/0
    000765  aa   000000 000001
    000766  aa   000000 000004
    000767  aa   000000 000134
    000770  aa   000000 000000
    000771  aa   163040 040040     129  		vfd a36/s   ,36/i_c,36/c_endcob,36/(endcob-l_org)/5,36/a_24
    000772  aa   000000 000001
    000773  aa   000000 000047
    000774  aa   000000 000126
    000775  aa   000000 000030
    000776  aa   040040 040040     130  		vfd a36/    ,36/i_n,36/0,36/(r_3-l_org)/5,36/0
    000777  aa   000000 000002
    001000  aa   000000 000000
    001001  aa   000000 002711
    001002  aa   000000 000000
    001003  aa   040040 040040     131  	decl_sect:	vfd a36/    ,36/i_c,36/c_sechdr,36/(ds_2-l_org)/5,36/a_62
    001004  aa   000000 000001
    001005  aa   000000 000004
    001006  aa   000000 000154
    001007  aa   000000 000076
    001010  aa   163040 040040     132  		vfd a36/s   ,36/i_c,36/c_enddec,36/(ds_1-l_org)/5,36/a_23
    001011  aa   000000 000001
    001012  aa   000000 000163
    001013  aa   000000 000162
    001014  aa   000000 000027
    001015  aa   040040 040040     133  		vfd a36/    ,36/i_c,36/c_endcob,36/(l_21-l_org)/5,36/0
    001016  aa   000000 000001
    001017  aa   000000 000047
    001020  aa   000000 000153
    001021  aa   000000 000000
    001022  aa   040040 040040     134  		vfd a36/    ,36/i_n,36/0,36/(r_4-l_org)/5,36/0
    001023  aa   000000 000002
    001024  aa   000000 000000
    001025  aa   000000 002716
    001026  aa   000000 000000
    001027  aa   040040 040040     135  l_21:		vfd a36/    ,36/i_n,36/0,36/(succ-l_org)/5,36/a_eos
    001030  aa   000000 000002
    001031  aa   000000 000000
    001032  aa   000000 002750
    001033  aa   000000 000126
    001034  aa   040040 040040     136  	ds_2:	vfd a36/    ,36/i_s,36/(sechdr-l_org)/5,36/(l_22-l_org)/5,36/0
    001035  aa   000000 000003
    001036  aa   000000 000166
    001037  aa   000000 000156
    001040  aa   000000 000000
    001041  aa   040040 040040     137  		vfd a36/    ,36/i_n,36/0,36/(r_4-l_org)/5,36/0
    001042  aa   000000 000002
    001043  aa   000000 000000
    001044  aa   000000 002716
    001045  aa   000000 000000
    001046  aa   040040 040040     138  l_22:		vfd a36/    ,36/i_s,36/(decl_sent-l_org)/5,36/(l_23-l_org)/5,36/0
    001047  aa   000000 000003
    001050  aa   000000 000236
    001051  aa   000000 000160
    001052  aa   000000 000000
    001053  aa   040040 040040     139  		vfd a36/    ,36/i_n,36/0,36/(r_4-l_org)/5,36/0
    001054  aa   000000 000002
    001055  aa   000000 000000
    001056  aa   000000 002716
    001057  aa   000000 000000
    001060  aa   040040 040040     140  l_23:		vfd a36/    ,36/i_s,36/(para-l_org)/5,36/(l_23-l_org)/5,36/0
    001061  aa   000000 000003
    001062  aa   000000 000175
    001063  aa   000000 000160
    001064  aa   000000 000000
    001065  aa   040040 040040     141  		vfd a36/    ,36/i_n,36/0,36/(decl_sect-l_org)/5,36/0
    001066  aa   000000 000002
    001067  aa   000000 000000
    001070  aa   000000 000147
    001071  aa   000000 000000
    001072  aa   163040 040040     142  	ds_1:	vfd a36/s   ,36/i_n,36/0,36/(l_24-l_org)/5,36/0
    001073  aa   000000 000002
    001074  aa   000000 000000
    001075  aa   000000 000163
    001076  aa   000000 000000
    001077  aa   163040 040040     143  l_24:		vfd a36/s   ,36/i_r,36/r_per,36/(l_25-l_org)/5,36/0
    001100  aa   000000 000000
    001101  aa   000000 000275
    001102  aa   000000 000165
    001103  aa   000000 000000
    001104  aa   040040 040040     144  		vfd a36/    ,36/i_n,36/0,36/(l_25-l_org)/5,36/0
    001105  aa   000000 000002
    001106  aa   000000 000000
    001107  aa   000000 000165
    001110  aa   000000 000000
    001111  aa   040040 040040     145  l_25:		vfd a36/    ,36/i_n,36/0,36/(succ-l_org)/5,36/a_eos
    001112  aa   000000 000002
    001113  aa   000000 000000
    001114  aa   000000 002750
    001115  aa   000000 000126
    001116  aa   163040 040040     146  	sechdr:	vfd a36/s   ,36/i_c,36/c_sechdr,36/(l_26-l_org)/5,36/a_12
    001117  aa   000000 000001
    001120  aa   000000 000004
    001121  aa   000000 000170
    001122  aa   000000 000014
    001123  aa   040040 040040     147  		vfd a36/    ,36/i_n,36/0,36/(fail-l_org)/5,36/0
    001124  aa   000000 000002
    001125  aa   000000 000000
    001126  aa   000000 002751
    001127  aa   000000 000000
    001130  aa   163040 040040     148  l_26:		vfd a36/s   ,36/i_r,36/r_section,36/(l_27-l_org)/5,36/0
    001131  aa   000000 000000
    001132  aa   000000 000236
    001133  aa   000000 000172
    001134  aa   000000 000000
    001135  aa   040040 040040     149  		vfd a36/    ,36/i_n,36/0,36/(fail-l_org)/5,36/0
    001136  aa   000000 000002
    001137  aa   000000 000000
    001140  aa   000000 002751
    001141  aa   000000 000000
    001142  aa   163040 040040     150  l_27:		vfd a36/s   ,36/i_c,36/c_numlit,36/(l_28-l_org)/5,36/0
    001143  aa   000000 000001
    001144  aa   000000 000014
    001145  aa   000000 000173
    001146  aa   000000 000000
    001147  aa   163040 040040     151  l_28:		vfd a36/s   ,36/i_r,36/r_per,36/(l_29-l_org)/5,36/0
    001150  aa   000000 000000
    001151  aa   000000 000275
    001152  aa   000000 000174
    001153  aa   000000 000000
    001154  aa   040040 040040     152  l_29:		vfd a36/    ,36/i_n,36/0,36/(succ-l_org)/5,36/a_eos
    001155  aa   000000 000002
    001156  aa   000000 000000
    001157  aa   000000 002750
    001160  aa   000000 000126
    001161  aa   163040 040040     153  	para:	vfd a36/s   ,36/i_c,36/c_paranm,36/(l_30-l_org)/5,36/a_14
    001162  aa   000000 000001
    001163  aa   000000 000010
    001164  aa   000000 000177
    001165  aa   000000 000016
    001166  aa   040040 040040     154  		vfd a36/    ,36/i_n,36/0,36/(fail-l_org)/5,36/0
    001167  aa   000000 000002
    001170  aa   000000 000000
    001171  aa   000000 002751
    001172  aa   000000 000000
    001173  aa   163040 040040     155  l_30:		vfd a36/s   ,36/i_r,36/r_per,36/(l_31-l_org)/5,36/0
    001174  aa   000000 000000
    001175  aa   000000 000275
    001176  aa   000000 000200
    001177  aa   000000 000000
    001200  aa   040040 040040     156  l_31:		vfd a36/    ,36/i_n,36/0,36/(l_32-l_org)/5,36/a_eos
    001201  aa   000000 000002
    001202  aa   000000 000000
    001203  aa   000000 000201
    001204  aa   000000 000126
    001205  aa   163040 040040     157  l_32:		vfd a36/s   ,36/i_r,36/r_go,36/(goto-l_org)/5,36/a_61
    001206  aa   000000 000000
    001207  aa   000000 000016
    001210  aa   000000 000220
    001211  aa   000000 000075
    001212  aa   163040 040040     158  		vfd a36/s   ,36/i_r,36/r_exit,36/(ex-l_org)/5,36/a_61
    001213  aa   000000 000000
    001214  aa   000000 000014
    001215  aa   000000 000233
    001216  aa   000000 000075
    001217  aa   040040 040040     159  		vfd a36/    ,36/i_c,36/c_verb,36/(para_1-l_org)/5,36/0
    001220  aa   000000 000001
    001221  aa   000000 000011
    001222  aa   000000 000211
    001223  aa   000000 000000
    001224  aa   040040 040040     160  	para_2:	vfd a36/    ,36/i_c,36/c_paranm,36/(succ-l_org)/5,36/0
    001225  aa   000000 000001
    001226  aa   000000 000010
    001227  aa   000000 002750
    001230  aa   000000 000000
    001231  aa   040040 040040     161  		vfd a36/    ,36/i_c,36/c_sechdr,36/(succ-l_org)/5,36/0
    001232  aa   000000 000001
    001233  aa   000000 000004
    001234  aa   000000 002750
    001235  aa   000000 000000
    001236  aa   040040 040040     162  		vfd a36/    ,36/i_c,36/c_enddec,36/(succ-l_org)/5,36/0
    001237  aa   000000 000001
    001240  aa   000000 000163
    001241  aa   000000 002750
    001242  aa   000000 000000
    001243  aa   040040 040040     163  		vfd a36/    ,36/i_c,36/c_endcob,36/(succ-l_org)/5,36/0
    001244  aa   000000 000001
    001245  aa   000000 000047
    001246  aa   000000 002750
    001247  aa   000000 000000
    001250  aa   040040 040040     164  		vfd a36/    ,36/i_n,36/0,36/(r_7-l_org)/5,36/0
    001251  aa   000000 000002
    001252  aa   000000 000000
    001253  aa   000000 002742
    001254  aa   000000 000000
    001255  aa   040040 040040     165  	para_1:	vfd a36/    ,36/i_s,36/(verb-l_org)/5,36/(l_33-l_org)/5,36/0
    001256  aa   000000 000003
    001257  aa   000000 002357
    001260  aa   000000 000212
    001261  aa   000000 000000
    001262  aa   163040 040040     166  l_33:		vfd a36/s   ,36/i_r,36/r_per,36/(l_34-l_org)/5,36/a_18
    001263  aa   000000 000000
    001264  aa   000000 000275
    001265  aa   000000 000213
    001266  aa   000000 000022
    001267  aa   040040 040040     167  l_34:		vfd a36/    ,36/i_n,36/0,36/(l_35-l_org)/5,36/a_eos
    001270  aa   000000 000002
    001271  aa   000000 000000
    001272  aa   000000 000214
    001273  aa   000000 000126
    001274  aa   040040 040040     168  l_35:		vfd a36/    ,36/i_c,36/c_verb,36/(para_1-l_org)/5,36/0
    001275  aa   000000 000001
    001276  aa   000000 000011
    001277  aa   000000 000211
    001300  aa   000000 000000
    001301  aa   163040 040040     169  	para_3:	vfd a36/s   ,36/i_r,36/r_per,36/(l_36-l_org)/5,36/a_18
    001302  aa   000000 000000
    001303  aa   000000 000275
    001304  aa   000000 000217
    001305  aa   000000 000022
    001306  aa   040040 040040     170  		vfd a36/    ,36/i_n,36/0,36/(l_36-l_org)/5,36/0
    001307  aa   000000 000002
    001310  aa   000000 000000
    001311  aa   000000 000217
    001312  aa   000000 000000
    001313  aa   040040 040040     171  l_36:		vfd a36/    ,36/i_n,36/0,36/(para_2-l_org)/5,36/a_eos
    001314  aa   000000 000002
    001315  aa   000000 000000
    001316  aa   000000 000204
    001317  aa   000000 000126
    001320  aa   163040 040040     172  	goto:	vfd a36/s   ,36/i_r,36/r_to,36/(l_37-l_org)/5,36/0
    001321  aa   000000 000000
    001322  aa   000000 000252
    001323  aa   000000 000221
    001324  aa   000000 000000
    001325  aa   163040 040040     173  l_37:		vfd a36/s   ,36/i_c,36/c_prnm,36/(l_38-l_org)/5,36/a_122
    001326  aa   000000 000001
    001327  aa   000000 000016
    001330  aa   000000 000223
    001331  aa   000000 000172
    001332  aa   040040 040040     174  		vfd a36/    ,36/i_n,36/0,36/(para_4-l_org)/5,36/a_19
    001333  aa   000000 000002
    001334  aa   000000 000000
    001335  aa   000000 000235
    001336  aa   000000 000023
    001337  aa   163040 040040     175  l_38:		vfd a36/s   ,36/i_c,36/c_prnm,36/(l_39-l_org)/5,36/a_122
    001340  aa   000000 000001
    001341  aa   000000 000016
    001342  aa   000000 000225
    001343  aa   000000 000172
    001344  aa   040040 040040     176  		vfd a36/    ,36/i_n,36/0,36/(para_4-l_org)/5,36/a_58
    001345  aa   000000 000002
    001346  aa   000000 000000
    001347  aa   000000 000235
    001350  aa   000000 000072
    001351  aa   163040 040040     177  l_39:		vfd a36/s   ,36/i_c,36/c_prnm,36/(l_39-l_org)/5,36/0
    001352  aa   000000 000001
    001353  aa   000000 000016
    001354  aa   000000 000225
    001355  aa   000000 000000
    001356  aa   163040 040040     178  		vfd a36/s   ,36/i_r,36/r_depending,36/(l_40-l_org)/5,36/0
    001357  aa   000000 000000
    001360  aa   000000 000134
    001361  aa   000000 000230
    001362  aa   000000 000000
    001363  aa   040040 040040     179  		vfd a36/    ,36/i_n,36/0,36/(r_5-l_org)/5,36/0
    001364  aa   000000 000002
    001365  aa   000000 000000
    001366  aa   000000 002723
    001367  aa   000000 000000
    001370  aa   163040 040040     180  l_40:		vfd a36/s   ,36/i_r,36/r_on,36/(l_41-l_org)/5,36/0
    001371  aa   000000 000000
    001372  aa   000000 000206
    001373  aa   000000 000231
    001374  aa   000000 000000
    001375  aa   163040 040040     181  l_41:		vfd a36/s   ,36/i_s,36/(elnuitem-l_org)/5,36/(para_4-l_org)/5,36/a_20
    001376  aa   000000 000003
    001377  aa   000000 002642
    001400  aa   000000 000235
    001401  aa   000000 000024
    001402  aa   040040 040040     182  		vfd a36/    ,36/i_n,36/0,36/(r_5-l_org)/5,36/0
    001403  aa   000000 000002
    001404  aa   000000 000000
    001405  aa   000000 002723
    001406  aa   000000 000000
    001407  aa   163040 040040     183  	ex:	vfd a36/s   ,36/i_r,36/r_program,36/(para_4-l_org)/5,36/a_21
    001410  aa   000000 000000
    001411  aa   000000 000222
    001412  aa   000000 000235
    001413  aa   000000 000025
    001414  aa   040040 040040     184  		vfd a36/    ,36/i_n,36/0,36/(para_4-l_org)/5,36/a_21
    001415  aa   000000 000002
    001416  aa   000000 000000
    001417  aa   000000 000235
    001420  aa   000000 000025
    001421  aa   040040 040040     185  	para_4:	vfd a36/    ,36/i_n,36/0,36/(para_3-l_org)/5,36/a_eos
    001422  aa   000000 000002
    001423  aa   000000 000000
    001424  aa   000000 000215
    001425  aa   000000 000126
    001426  aa   040040 040040     186  	decl_sent:	vfd a36/    ,36/i_r,36/r_use,36/(l_42-l_org)/5,36/a_26
    001427  aa   000000 000000
    001430  aa   000000 000047
    001431  aa   000000 000240
    001432  aa   000000 000032
    001433  aa   040040 040040     187  		vfd a36/    ,36/i_n,36/0,36/(r_5-l_org)/5,36/0
    001434  aa   000000 000002
    001435  aa   000000 000000
    001436  aa   000000 002723
    001437  aa   000000 000000
    001440  aa   163062 040040     188  l_42:		vfd a36/s2  ,36/i_n,36/219,36/(l_43-l_org)/5,36/11
    001441  aa   000000 000002
    001442  aa   000000 000333
    001443  aa   000000 000241
    001444  aa   000000 000013
    001445  aa   163040 040040     189  l_43:		vfd a36/s   ,36/i_r,36/r_after,36/(ds_5-l_org)/5,36/a_55
    001446  aa   000000 000000
    001447  aa   000000 000110
    001450  aa   000000 000260
    001451  aa   000000 000067
    001452  aa   163040 040040     190  		vfd a36/s   ,36/i_r,36/r_before,36/(ds_6-l_org)/5,36/a_55
    001453  aa   000000 000000
    001454  aa   000000 000120
    001455  aa   000000 000277
    001456  aa   000000 000067
    001457  aa   040040 040040     191  		vfd a36/    ,36/i_r,36/r_debugging,36/(ds_10-l_org)/5,36/a_17
    001460  aa   000000 000000
    001461  aa   000000 000130
    001462  aa   000000 000250
    001463  aa   000000 000021
    001464  aa   163040 040040     192  		vfd a36/s   ,36/i_r,36/r_for,36/(l_44-l_org)/5,36/a_17
    001465  aa   000000 000000
    001466  aa   000000 000156
    001467  aa   000000 000246
    001470  aa   000000 000021
    001471  aa   040040 040040     193  		vfd a36/    ,36/i_n,36/0,36/(fail-l_org)/5,36/0
    001472  aa   000000 000002
    001473  aa   000000 000000
    001474  aa   000000 002751
    001475  aa   000000 000000
    001476  aa   040040 040040     194  l_44:		vfd a36/    ,36/i_r,36/r_debugging,36/(l_45-l_org)/5,36/a_88
    001477  aa   000000 000000
    001500  aa   000000 000130
    001501  aa   000000 000250
    001502  aa   000000 000130
    001503  aa   040040 040040     195  		vfd a36/    ,36/i_n,36/0,36/(fail-l_org)/5,36/0
    001504  aa   000000 000002
    001505  aa   000000 000000
    001506  aa   000000 002751
    001507  aa   000000 000000
    001510  aa   163040 040040     196  l_45:	ds_10:	vfd a36/s   ,36/i_n,36/0,36/(l_46-l_org)/5,36/0
    001511  aa   000000 000002
    001512  aa   000000 000000
    001513  aa   000000 000251
    001514  aa   000000 000000
    001515  aa   163040 040040     197  l_46:		vfd a36/s   ,36/i_r,36/r_on,36/(l_47-l_org)/5,36/0
    001516  aa   000000 000000
    001517  aa   000000 000206
    001520  aa   000000 000252
    001521  aa   000000 000000
    001522  aa   040040 040040     198  l_47:		vfd a36/    ,36/i_s,36/(dbt-l_org)/5,36/(l_48-l_org)/5,36/0
    001523  aa   000000 000003
    001524  aa   000000 000313
    001525  aa   000000 000254
    001526  aa   000000 000000
    001527  aa   040040 040040     199  		vfd a36/    ,36/i_n,36/0,36/(fail-l_org)/5,36/0
    001530  aa   000000 000002
    001531  aa   000000 000000
    001532  aa   000000 002751
    001533  aa   000000 000000
    001534  aa   040040 040040     200  l_48:		vfd a36/    ,36/i_s,36/(dbt-l_org)/5,36/(l_48-l_org)/5,36/0
    001535  aa   000000 000003
    001536  aa   000000 000313
    001537  aa   000000 000254
    001540  aa   000000 000000
    001541  aa   163040 040040     201  	ds_14:	vfd a36/s   ,36/i_r,36/r_per,36/(l_49-l_org)/5,36/0
    001542  aa   000000 000000
    001543  aa   000000 000275
    001544  aa   000000 000257
    001545  aa   000000 000000
    001546  aa   040040 040040     202  		vfd a36/    ,36/i_n,36/0,36/(l_49-l_org)/5,36/0
    001547  aa   000000 000002
    001550  aa   000000 000000
    001551  aa   000000 000257
    001552  aa   000000 000000
    001553  aa   040040 040040     203  l_49:		vfd a36/    ,36/i_n,36/0,36/(succ-l_org)/5,36/a_eos
    001554  aa   000000 000002
    001555  aa   000000 000000
    001556  aa   000000 002750
    001557  aa   000000 000126
    001560  aa   163040 040040     204  	ds_5:	vfd a36/s   ,36/i_r,36/r_standard,36/(l_50-l_org)/5,36/0
    001561  aa   000000 000000
    001562  aa   000000 000242
    001563  aa   000000 000261
    001564  aa   000000 000000
    001565  aa   163040 040040     205  l_50:		vfd a36/s   ,36/i_r,36/r_error,36/(l_51-l_org)/5,36/0
    001566  aa   000000 000000
    001567  aa   000000 000003
    001570  aa   000000 000264
    001571  aa   000000 000000
    001572  aa   163040 040040     206  		vfd a36/s   ,36/i_r,36/r_exception,36/(l_51-l_org)/5,36/0
    001573  aa   000000 000000
    001574  aa   000000 000153
    001575  aa   000000 000264
    001576  aa   000000 000000
    001577  aa   040040 040040     207  		vfd a36/    ,36/i_n,36/0,36/(fail-l_org)/5,36/0
    001600  aa   000000 000002
    001601  aa   000000 000000
    001602  aa   000000 002751
    001603  aa   000000 000000
    001604  aa   163040 040040     208  l_51:		vfd a36/s   ,36/i_r,36/r_procedure,36/(l_52-l_org)/5,36/0
    001605  aa   000000 000000
    001606  aa   000000 000216
    001607  aa   000000 000266
    001610  aa   000000 000000
    001611  aa   040040 040040     209  		vfd a36/    ,36/i_n,36/0,36/(fail-l_org)/5,36/0
    001612  aa   000000 000002
    001613  aa   000000 000000
    001614  aa   000000 002751
    001615  aa   000000 000000
    001616  aa   163040 040040     210  l_52:	ds_8:	vfd a36/s   ,36/i_r,36/r_on,36/(l_53-l_org)/5,36/0
    001617  aa   000000 000000
    001620  aa   000000 000206
    001621  aa   000000 000267
    001622  aa   000000 000000
    001623  aa   163040 040040     211  l_53:		vfd a36/s   ,36/i_c,36/c_filenm,36/(l_54-l_org)/5,36/0
    001624  aa   000000 000001
    001625  aa   000000 000005
    001626  aa   000000 000275
    001627  aa   000000 000000
    001630  aa   163040 040040     212  		vfd a36/s   ,36/i_r,36/r_input,36/(ds_14-l_org)/5,36/0
    001631  aa   000000 000000
    001632  aa   000000 000163
    001633  aa   000000 000255
    001634  aa   000000 000000
    001635  aa   163040 040040     213  		vfd a36/s   ,36/i_r,36/r_output,36/(ds_14-l_org)/5,36/0
    001636  aa   000000 000000
    001637  aa   000000 000211
    001640  aa   000000 000255
    001641  aa   000000 000000
    001642  aa   163040 040040     214  		vfd a36/s   ,36/i_r,36/r_i_o,36/(ds_14-l_org)/5,36/0
    001643  aa   000000 000000
    001644  aa   000000 000167
    001645  aa   000000 000255
    001646  aa   000000 000000
    001647  aa   163040 040040     215  		vfd a36/s   ,36/i_r,36/r_extend,36/(ds_14-l_org)/5,36/0
    001650  aa   000000 000000
    001651  aa   000000 000330
    001652  aa   000000 000255
    001653  aa   000000 000000
    001654  aa   040040 040040     216  		vfd a36/    ,36/i_n,36/0,36/(fail-l_org)/5,36/0
    001655  aa   000000 000002
    001656  aa   000000 000000
    001657  aa   000000 002751
    001660  aa   000000 000000
    001661  aa   163040 040040     217  l_54:		vfd a36/s   ,36/i_c,36/c_filenm,36/(l_54-l_org)/5,36/0
    001662  aa   000000 000001
    001663  aa   000000 000005
    001664  aa   000000 000275
    001665  aa   000000 000000
    001666  aa   040040 040040     218  		vfd a36/    ,36/i_n,36/0,36/(ds_14-l_org)/5,36/0
    001667  aa   000000 000002
    001670  aa   000000 000000
    001671  aa   000000 000255
    001672  aa   000000 000000
    001673  aa   163040 040040     219  	ds_6:	vfd a36/s   ,36/i_r,36/r_reporting,36/(ds_7-l_org)/5,36/0
    001674  aa   000000 000000
    001675  aa   000000 000231
    001676  aa   000000 000311
    001677  aa   000000 000000
    001700  aa   163040 040040     220  		vfd a36/s   ,36/i_r,36/r_beginning,36/(l_55-l_org)/5,36/0
    001701  aa   000000 000000
    001702  aa   000000 000121
    001703  aa   000000 000302
    001704  aa   000000 000000
    001705  aa   163040 040040     221  		vfd a36/s   ,36/i_r,36/r_ending,36/(l_55-l_org)/5,36/0
    001706  aa   000000 000000
    001707  aa   000000 000143
    001710  aa   000000 000302
    001711  aa   000000 000000
    001712  aa   163040 040040     222  l_55:		vfd a36/s   ,36/i_r,36/r_reel,36/(l_56-l_org)/5,36/0
    001713  aa   000000 000000
    001714  aa   000000 000225
    001715  aa   000000 000305
    001716  aa   000000 000000
    001717  aa   163040 040040     223  		vfd a36/s   ,36/i_r,36/r_unit,36/(l_56-l_org)/5,36/0
    001720  aa   000000 000000
    001721  aa   000000 000254
    001722  aa   000000 000305
    001723  aa   000000 000000
    001724  aa   163040 040040     224  		vfd a36/s   ,36/i_r,36/r_file,36/(l_56-l_org)/5,36/0
    001725  aa   000000 000000
    001726  aa   000000 000154
    001727  aa   000000 000305
    001730  aa   000000 000000
    001731  aa   163040 040040     225  l_56:		vfd a36/s   ,36/i_r,36/r_label,36/(l_57-l_org)/5,36/0
    001732  aa   000000 000000
    001733  aa   000000 000171
    001734  aa   000000 000307
    001735  aa   000000 000000
    001736  aa   040040 040040     226  		vfd a36/    ,36/i_n,36/0,36/(fail-l_org)/5,36/0
    001737  aa   000000 000002
    001740  aa   000000 000000
    001741  aa   000000 002751
    001742  aa   000000 000000
    001743  aa   163040 040040     227  l_57:		vfd a36/s   ,36/i_r,36/r_procedure,36/(ds_8-l_org)/5,36/0
    001744  aa   000000 000000
    001745  aa   000000 000216
    001746  aa   000000 000266
    001747  aa   000000 000000
    001750  aa   040040 040040     228  		vfd a36/    ,36/i_n,36/0,36/(fail-l_org)/5,36/0
    001751  aa   000000 000002
    001752  aa   000000 000000
    001753  aa   000000 002751
    001754  aa   000000 000000
    001755  aa   163040 040040     229  	ds_7:	vfd a36/s   ,36/i_c,36/c_dana,36/(ds_7-l_org)/5,36/0
    001756  aa   000000 000001
    001757  aa   000000 000130
    001760  aa   000000 000311
    001761  aa   000000 000000
    001762  aa   040040 040040     230  		vfd a36/    ,36/i_n,36/0,36/(ds_14-l_org)/5,36/0
    001763  aa   000000 000002
    001764  aa   000000 000000
    001765  aa   000000 000255
    001766  aa   000000 000000
    001767  aa   040040 040040     231  	dbt:	vfd a36/    ,36/i_n,36/0,36/(l_58-l_org)/5,36/a_54
    001770  aa   000000 000002
    001771  aa   000000 000000
    001772  aa   000000 000314
    001773  aa   000000 000066
    001774  aa   040040 040040     232  l_58:		vfd a36/    ,36/i_c,36/c_cdname,36/(dbt_1-l_org)/5,36/a_51
    001775  aa   000000 000001
    001776  aa   000000 000127
    001777  aa   000000 000327
    002000  aa   000000 000063
    002001  aa   040040 040040     233  		vfd a36/    ,36/i_c,36/c_prnm,36/(dbt_5-l_org)/5,36/a_51
    002002  aa   000000 000001
    002003  aa   000000 000016
    002004  aa   000000 000333
    002005  aa   000000 000063
    002006  aa   040040 040040     234  		vfd a36/    ,36/i_c,36/c_file,36/(dbt_3-l_org)/5,36/a_51
    002007  aa   000000 000001
    002010  aa   000000 000103
    002011  aa   000000 000331
    002012  aa   000000 000063
    002013  aa   040040 040040     235  		vfd a36/    ,36/i_c,36/c_dana,36/(dbt_4-l_org)/5,36/a_51
    002014  aa   000000 000001
    002015  aa   000000 000130
    002016  aa   000000 000332
    002017  aa   000000 000063
    002020  aa   163040 040040     236  		vfd a36/s   ,36/i_r,36/r_all,36/(l_59-l_org)/5,36/0
    002021  aa   000000 000000
    002022  aa   000000 000111
    002023  aa   000000 000322
    002024  aa   000000 000000
    002025  aa   040040 040040     237  		vfd a36/    ,36/i_n,36/0,36/(fail-l_org)/5,36/0
    002026  aa   000000 000002
    002027  aa   000000 000000
    002030  aa   000000 002751
    002031  aa   000000 000000
    002032  aa   040040 040040     238  l_59:		vfd a36/    ,36/i_r,36/r_procedures,36/(dbt_6-l_org)/5,36/a_53
    002033  aa   000000 000000
    002034  aa   000000 000217
    002035  aa   000000 000334
    002036  aa   000000 000065
    002037  aa   163040 040040     239  		vfd a36/s   ,36/i_r,36/r_references,36/(l_60-l_org)/5,36/0
    002040  aa   000000 000000
    002041  aa   000000 000226
    002042  aa   000000 000324
    002043  aa   000000 000000
    002044  aa   163040 040040     240  l_60:		vfd a36/s   ,36/i_r,36/r_of,36/(l_61-l_org)/5,36/0
    002045  aa   000000 000000
    002046  aa   000000 000205
    002047  aa   000000 000325
    002050  aa   000000 000000
    002051  aa   040040 040040     241  l_61:		vfd a36/    ,36/i_c,36/c_dana,36/(dbt_4-l_org)/5,36/a_52
    002052  aa   000000 000001
    002053  aa   000000 000130
    002054  aa   000000 000332
    002055  aa   000000 000064
    002056  aa   040040 040040     242  		vfd a36/    ,36/i_n,36/0,36/(fail-l_org)/5,36/0
    002057  aa   000000 000002
    002060  aa   000000 000000
    002061  aa   000000 002751
    002062  aa   000000 000000
    002063  aa   163063 040040     243  	dbt_1:	vfd a36/s3  ,36/i_n,36/83,36/(l_62-l_org)/5,36/12
    002064  aa   000000 000002
    002065  aa   000000 000123
    002066  aa   000000 000330
    002067  aa   000000 000014
    002070  aa   040040 040040     244  l_62:	dbt_2:	vfd a36/    ,36/i_n,36/0,36/(succ-l_org)/5,36/0
    002071  aa   000000 000002
    002072  aa   000000 000000
    002073  aa   000000 002750
    002074  aa   000000 000000
    002075  aa   163063 040040     245  	dbt_3:	vfd a36/s3  ,36/i_n,36/84,36/(dbt_2-l_org)/5,36/12
    002076  aa   000000 000002
    002077  aa   000000 000124
    002100  aa   000000 000330
    002101  aa   000000 000014
    002102  aa   163063 040040     246  	dbt_4:	vfd a36/s3  ,36/i_n,36/85,36/(dbt_2-l_org)/5,36/12
    002103  aa   000000 000002
    002104  aa   000000 000125
    002105  aa   000000 000330
    002106  aa   000000 000014
    002107  aa   163040 040040     247  	dbt_5:	vfd a36/s   ,36/i_n,36/0,36/(dbt_2-l_org)/5,36/0
    002110  aa   000000 000002
    002111  aa   000000 000000
    002112  aa   000000 000330
    002113  aa   000000 000000
    002114  aa   163040 040040     248  	dbt_6:	vfd a36/s   ,36/i_n,36/0,36/(dbt_2-l_org)/5,36/0
    002115  aa   000000 000002
    002116  aa   000000 000000
    002117  aa   000000 000330
    002120  aa   000000 000000
    002121  aa   163040 040040     249  	accept:	vfd a36/s   ,36/i_r,36/r_accept,36/(l_63-l_org)/5,36/0
    002122  aa   000000 000000
    002123  aa   000000 000001
    002124  aa   000000 000336
    002125  aa   000000 000000
    002126  aa   163040 040040     250  l_63:		vfd a36/s   ,36/i_s,36/(rid-l_org)/5,36/(l_64-l_org)/5,36/0
    002127  aa   000000 000003
    002130  aa   000000 002353
    002131  aa   000000 000341
    002132  aa   000000 000000
    002133  aa   163040 040040     251  		vfd a36/s   ,36/i_c,36/c_incdnm,36/(acc1-l_org)/5,36/a_60
    002134  aa   000000 000001
    002135  aa   000000 000022
    002136  aa   000000 000351
    002137  aa   000000 000074
    002140  aa   040040 040040     252  		vfd a36/    ,36/i_n,36/0,36/(r_2-l_org)/5,36/0
    002141  aa   000000 000002
    002142  aa   000000 000000
    002143  aa   000000 002701
    002144  aa   000000 000000
    002145  aa   163040 040040     253  l_64:	acc3:	vfd a36/s   ,36/i_r,36/r_from,36/(l_65-l_org)/5,36/0
    002146  aa   000000 000000
    002147  aa   000000 000157
    002150  aa   000000 000343
    002151  aa   000000 000000
    002152  aa   040040 040040     254  		vfd a36/    ,36/i_n,36/0,36/(verb1-l_org)/5,36/0
    002153  aa   000000 000002
    002154  aa   000000 000000
    002155  aa   000000 002362
    002156  aa   000000 000000
    002157  aa   163040 040040     255  l_65:		vfd a36/s   ,36/i_c,36/c_acc_dev,36/(verb1-l_org)/5,36/0
    002160  aa   000000 000001
    002161  aa   000000 000305
    002162  aa   000000 002362
    002163  aa   000000 000000
    002164  aa   163040 040040     256  		vfd a36/s   ,36/i_r,36/r_date,36/(verb1-l_org)/5,36/0
    002165  aa   000000 000000
    002166  aa   000000 000126
    002167  aa   000000 002362
    002170  aa   000000 000000
    002171  aa   163040 040040     257  		vfd a36/s   ,36/i_r,36/r_time,36/(verb1-l_org)/5,36/0
    002172  aa   000000 000000
    002173  aa   000000 000250
    002174  aa   000000 002362
    002175  aa   000000 000000
    002176  aa   163040 040040     258  		vfd a36/s   ,36/i_r,36/r_day,36/(verb1-l_org)/5,36/0
    002177  aa   000000 000000
    002200  aa   000000 000127
    002201  aa   000000 002362
    002202  aa   000000 000000
    002203  aa   163040 040040     259  		vfd a36/s   ,36/i_r,36/r_day_of_week,36/(verb1-l_org)/5,36/0
    002204  aa   000000 000000
    002205  aa   000000 000506
    002206  aa   000000 002362
    002207  aa   000000 000000
    002210  aa   040040 040040     260  		vfd a36/    ,36/i_n,36/0,36/(r_2-l_org)/5,36/0
    002211  aa   000000 000002
    002212  aa   000000 000000
    002213  aa   000000 002701
    002214  aa   000000 000000
    002215  aa   163040 040040     261  	acc1:	vfd a36/s   ,36/i_r,36/r_message,36/(l_66-l_org)/5,36/0
    002216  aa   000000 000000
    002217  aa   000000 000176
    002220  aa   000000 000352
    002221  aa   000000 000000
    002222  aa   163040 040040     262  l_66:		vfd a36/s   ,36/i_r,36/r_count,36/(verb1-l_org)/5,36/0
    002223  aa   000000 000000
    002224  aa   000000 000124
    002225  aa   000000 002362
    002226  aa   000000 000000
    002227  aa   040040 040040     263  		vfd a36/    ,36/i_n,36/0,36/(r_2-l_org)/5,36/0
    002230  aa   000000 000002
    002231  aa   000000 000000
    002232  aa   000000 002701
    002233  aa   000000 000000
    002234  aa   163040 040040     264  	add:	vfd a36/s   ,36/i_r,36/r_add,36/(l_67-l_org)/5,36/a_13
    002235  aa   000000 000000
    002236  aa   000000 000002
    002237  aa   000000 000355
    002240  aa   000000 000015
    002241  aa   163040 040040     265  l_67:		vfd a36/s   ,36/i_s,36/(elnuitem-l_org)/5,36/(l_68-l_org)/5,36/0
    002242  aa   000000 000003
    002243  aa   000000 002642
    002244  aa   000000 000357
    002245  aa   000000 000000
    002246  aa   040040 040040     266  		vfd a36/    ,36/i_n,36/0,36/(r_2-l_org)/5,36/0
    002247  aa   000000 000002
    002250  aa   000000 000000
    002251  aa   000000 002701
    002252  aa   000000 000000
    002253  aa   163040 040040     267  l_68:		vfd a36/s   ,36/i_s,36/(elnuitem-l_org)/5,36/(l_68-l_org)/5,36/0
    002254  aa   000000 000003
    002255  aa   000000 002642
    002256  aa   000000 000357
    002257  aa   000000 000000
    002260  aa   163040 040040     268  		vfd a36/s   ,36/i_r,36/r_to,36/(l_69-l_org)/5,36/0
    002261  aa   000000 000000
    002262  aa   000000 000252
    002263  aa   000000 000363
    002264  aa   000000 000000
    002265  aa   163040 040040     269  		vfd a36/s   ,36/i_r,36/r_giving,36/(l_69-l_org)/5,36/0
    002266  aa   000000 000000
    002267  aa   000000 000160
    002270  aa   000000 000363
    002271  aa   000000 000000
    002272  aa   040040 040040     270  		vfd a36/    ,36/i_n,36/0,36/(r_2-l_org)/5,36/0
    002273  aa   000000 000002
    002274  aa   000000 000000
    002275  aa   000000 002701
    002276  aa   000000 000000
    002277  aa   163040 040040     271  l_69:		vfd a36/s   ,36/i_s,36/(edalel-l_org)/5,36/(l_70-l_org)/5,36/0
    002300  aa   000000 000003
    002301  aa   000000 002670
    002302  aa   000000 000365
    002303  aa   000000 000000
    002304  aa   040040 040040     272  		vfd a36/    ,36/i_n,36/0,36/(r_2-l_org)/5,36/0
    002305  aa   000000 000002
    002306  aa   000000 000000
    002307  aa   000000 002701
    002310  aa   000000 000000
    002311  aa   163040 040040     273  l_70:	add1:	vfd a36/s   ,36/i_r,36/r_rounded,36/(l_71-l_org)/5,36/0
    002312  aa   000000 000000
    002313  aa   000000 000234
    002314  aa   000000 000366
    002315  aa   000000 000000
    002316  aa   163040 040040     274  l_71:		vfd a36/s   ,36/i_s,36/(edalel-l_org)/5,36/(add1-l_org)/5,36/0
    002317  aa   000000 000003
    002320  aa   000000 002670
    002321  aa   000000 000365
    002322  aa   000000 000000
    002323  aa   163040 040040     275  		vfd a36/s   ,36/i_r,36/r_not,36/(l_72-l_org)/5,36/a_97
    002324  aa   000000 000000
    002325  aa   000000 000202
    002326  aa   000000 000373
    002327  aa   000000 000141
    002330  aa   163040 040040     276  		vfd a36/s   ,36/i_r,36/r_on,36/(o_se-l_org)/5,36/a_96
    002331  aa   000000 000000
    002332  aa   000000 000206
    002333  aa   000000 002421
    002334  aa   000000 000140
    002335  aa   163040 040040     277  		vfd a36/s   ,36/i_r,36/r_size,36/(o_se1-l_org)/5,36/a_96
    002336  aa   000000 000000
    002337  aa   000000 000241
    002340  aa   000000 002422
    002341  aa   000000 000140
    002342  aa   040040 040040     278  		vfd a36/    ,36/i_n,36/0,36/(cverb-l_org)/5,36/0
    002343  aa   000000 000002
    002344  aa   000000 000000
    002345  aa   000000 002361
    002346  aa   000000 000000
    002347  aa   163040 040040     279  l_72:		vfd a36/s   ,36/i_r,36/r_on,36/(o_se-l_org)/5,36/0
    002350  aa   000000 000000
    002351  aa   000000 000206
    002352  aa   000000 002421
    002353  aa   000000 000000
    002354  aa   163040 040040     280  		vfd a36/s   ,36/i_r,36/r_size,36/(o_se1-l_org)/5,36/0
    002355  aa   000000 000000
    002356  aa   000000 000241
    002357  aa   000000 002422
    002360  aa   000000 000000
    002361  aa   040040 040040     281  		vfd a36/    ,36/i_n,36/0,36/(r_2-l_org)/5,36/0
    002362  aa   000000 000002
    002363  aa   000000 000000
    002364  aa   000000 002701
    002365  aa   000000 000000
    002366  aa   163040 040040     282  	alter:	vfd a36/s   ,36/i_r,36/r_alter,36/(l_73-l_org)/5,36/a_112
    002367  aa   000000 000000
    002370  aa   000000 000004
    002371  aa   000000 000377
    002372  aa   000000 000160
    002373  aa   163040 040040     283  l_73:	alt1:	vfd a36/s   ,36/i_c,36/c_prnm,36/(l_74-l_org)/5,36/a_108
    002374  aa   000000 000001
    002375  aa   000000 000016
    002376  aa   000000 000401
    002377  aa   000000 000154
    002400  aa   040040 040040     284  		vfd a36/    ,36/i_n,36/0,36/(r_2-l_org)/5,36/0
    002401  aa   000000 000002
    002402  aa   000000 000000
    002403  aa   000000 002701
    002404  aa   000000 000000
    002405  aa   163040 040040     285  l_74:		vfd a36/s   ,36/i_r,36/r_to,36/(l_75-l_org)/5,36/0
    002406  aa   000000 000000
    002407  aa   000000 000252
    002410  aa   000000 000403
    002411  aa   000000 000000
    002412  aa   040040 040040     286  		vfd a36/    ,36/i_n,36/0,36/(r_2-l_org)/5,36/0
    002413  aa   000000 000002
    002414  aa   000000 000000
    002415  aa   000000 002701
    002416  aa   000000 000000
    002417  aa   163040 040040     287  l_75:		vfd a36/s   ,36/i_r,36/r_proceed,36/(l_76-l_org)/5,36/0
    002420  aa   000000 000000
    002421  aa   000000 000220
    002422  aa   000000 000405
    002423  aa   000000 000000
    002424  aa   040040 040040     288  		vfd a36/    ,36/i_n,36/0,36/(alt2-l_org)/5,36/0
    002425  aa   000000 000002
    002426  aa   000000 000000
    002427  aa   000000 000407
    002430  aa   000000 000000
    002431  aa   163040 040040     289  l_76:		vfd a36/s   ,36/i_r,36/r_to,36/(l_77-l_org)/5,36/0
    002432  aa   000000 000000
    002433  aa   000000 000252
    002434  aa   000000 000407
    002435  aa   000000 000000
    002436  aa   040040 040040     290  		vfd a36/    ,36/i_n,36/0,36/(r_2-l_org)/5,36/0
    002437  aa   000000 000002
    002440  aa   000000 000000
    002441  aa   000000 002701
    002442  aa   000000 000000
    002443  aa   163040 040040     291  l_77:	alt2:	vfd a36/s   ,36/i_c,36/c_prnm,36/(l_78-l_org)/5,36/a_113
    002444  aa   000000 000001
    002445  aa   000000 000016
    002446  aa   000000 000411
    002447  aa   000000 000161
    002450  aa   040040 040040     292  		vfd a36/    ,36/i_n,36/0,36/(r_2-l_org)/5,36/0
    002451  aa   000000 000002
    002452  aa   000000 000000
    002453  aa   000000 002701
    002454  aa   000000 000000
    002455  aa   040040 040040     293  l_78:		vfd a36/    ,36/i_c,36/c_prnm,36/(alt1-l_org)/5,36/0
    002456  aa   000000 000001
    002457  aa   000000 000016
    002460  aa   000000 000377
    002461  aa   000000 000000
    002462  aa   040040 040040     294  		vfd a36/    ,36/i_n,36/0,36/(verb1-l_org)/5,36/0
    002463  aa   000000 000002
    002464  aa   000000 000000
    002465  aa   000000 002362
    002466  aa   000000 000000
    002467  aa   163040 040040     295  	call:	vfd a36/s   ,36/i_r,36/r_call,36/(l_79-l_org)/5,36/a_28
    002470  aa   000000 000000
    002471  aa   000000 000005
    002472  aa   000000 000414
    002473  aa   000000 000034
    002474  aa   040040 040040     296  l_79:		vfd a36/    ,36/i_c,36/c_nonumlit,36/(l_80-l_org)/5,36/0
    002475  aa   000000 000001
    002476  aa   000000 000017
    002477  aa   000000 000417
    002500  aa   000000 000000
    002501  aa   040040 040040     297  		vfd a36/    ,36/i_c,36/c_nonumdn,36/(call6-l_org)/5,36/a_59
    002502  aa   000000 000001
    002503  aa   000000 000223
    002504  aa   000000 000425
    002505  aa   000000 000073
    002506  aa   040040 040040     298  		vfd a36/    ,36/i_n,36/0,36/(r_2-l_org)/5,36/0
    002507  aa   000000 000002
    002510  aa   000000 000000
    002511  aa   000000 002701
    002512  aa   000000 000000
    002513  aa   163040 040040     299  l_80:		vfd a36/s   ,36/i_c,36/c_cklit,36/(call7-l_org)/5,36/0
    002514  aa   000000 000001
    002515  aa   000000 000246
    002516  aa   000000 000427
    002517  aa   000000 000000
    002520  aa   163040 040040     300  		vfd a36/s   ,36/i_c,36/c_cklit1,36/(call7-l_org)/5,36/0
    002521  aa   000000 000001
    002522  aa   000000 000264
    002523  aa   000000 000427
    002524  aa   000000 000000
    002525  aa   040040 040040     301  		vfd a36/    ,36/i_c,36/c_mcobol,36/(l_81-l_org)/5,36/0
    002526  aa   000000 000001
    002527  aa   000000 000265
    002530  aa   000000 000423
    002531  aa   000000 000000
    002532  aa   040040 040040     302  		vfd a36/    ,36/i_n,36/0,36/(r_2-l_org)/5,36/0
    002533  aa   000000 000002
    002534  aa   000000 000000
    002535  aa   000000 002701
    002536  aa   000000 000000
    002537  aa   163040 040040     303  l_81:		vfd a36/s   ,36/i_c,36/c_cklit2,36/(call7-l_org)/5,36/0
    002540  aa   000000 000001
    002541  aa   000000 000266
    002542  aa   000000 000427
    002543  aa   000000 000000
    002544  aa   040040 040040     304  		vfd a36/    ,36/i_n,36/0,36/(r_2-l_org)/5,36/0
    002545  aa   000000 000002
    002546  aa   000000 000000
    002547  aa   000000 002701
    002550  aa   000000 000000
    002551  aa   163040 040040     305  	call6:	vfd a36/s   ,36/i_s,36/(ident-l_org)/5,36/(l_82-l_org)/5,36/0
    002552  aa   000000 000003
    002553  aa   000000 002326
    002554  aa   000000 000427
    002555  aa   000000 000000
    002556  aa   040040 040040     306  		vfd a36/    ,36/i_n,36/0,36/(r_2-l_org)/5,36/0
    002557  aa   000000 000002
    002560  aa   000000 000000
    002561  aa   000000 002701
    002562  aa   000000 000000
    002563  aa   163040 040040     307  l_82:	call7:	vfd a36/s   ,36/i_r,36/r_using,36/(l_83-l_org)/5,36/0
    002564  aa   000000 000000
    002565  aa   000000 000260
    002566  aa   000000 000431
    002567  aa   000000 000000
    002570  aa   040040 040040     308  		vfd a36/    ,36/i_n,36/0,36/(call1-l_org)/5,36/0
    002571  aa   000000 000002
    002572  aa   000000 000000
    002573  aa   000000 000436
    002574  aa   000000 000000
    002575  aa   163040 040040     309  l_83:		vfd a36/s   ,36/i_c,36/c_useid,36/(l_84-l_org)/5,36/a_59
    002576  aa   000000 000001
    002577  aa   000000 000020
    002600  aa   000000 000434
    002601  aa   000000 000073
    002602  aa   163040 040040     310  		vfd a36/s   ,36/i_c,36/c_is_user_word,36/(l_84-l_org)/5,36/0
    002603  aa   000000 000001
    002604  aa   000000 000316
    002605  aa   000000 000434
    002606  aa   000000 000000
    002607  aa   040040 040040     311  		vfd a36/    ,36/i_n,36/0,36/(r_2-l_org)/5,36/0
    002610  aa   000000 000002
    002611  aa   000000 000000
    002612  aa   000000 002701
    002613  aa   000000 000000
    002614  aa   163040 040040     312  l_84:		vfd a36/s   ,36/i_c,36/c_useid,36/(l_84-l_org)/5,36/a_59
    002615  aa   000000 000001
    002616  aa   000000 000020
    002617  aa   000000 000434
    002620  aa   000000 000073
    002621  aa   163040 040040     313  		vfd a36/s   ,36/i_c,36/c_is_user_word,36/(l_84-l_org)/5,36/0
    002622  aa   000000 000001
    002623  aa   000000 000316
    002624  aa   000000 000434
    002625  aa   000000 000000
    002626  aa   163040 040040     314  	call1:	vfd a36/s   ,36/i_r,36/r_not,36/(l_85-l_org)/5,36/a_97
    002627  aa   000000 000000
    002630  aa   000000 000202
    002631  aa   000000 000442
    002632  aa   000000 000141
    002633  aa   163040 040040     315  		vfd a36/s   ,36/i_r,36/r_on,36/(o_ov-l_org)/5,36/a_98
    002634  aa   000000 000000
    002635  aa   000000 000206
    002636  aa   000000 002432
    002637  aa   000000 000142
    002640  aa   163040 040040     316  		vfd a36/s   ,36/i_r,36/r_overflow,36/(o_ov1-l_org)/5,36/a_98
    002641  aa   000000 000000
    002642  aa   000000 000006
    002643  aa   000000 002433
    002644  aa   000000 000142
    002645  aa   040040 040040     317  		vfd a36/    ,36/i_n,36/0,36/(cverb-l_org)/5,36/0
    002646  aa   000000 000002
    002647  aa   000000 000000
    002650  aa   000000 002361
    002651  aa   000000 000000
    002652  aa   163040 040040     318  l_85:		vfd a36/s   ,36/i_r,36/r_on,36/(o_ov-l_org)/5,36/0
    002653  aa   000000 000000
    002654  aa   000000 000206
    002655  aa   000000 002432
    002656  aa   000000 000000
    002657  aa   163040 040040     319  		vfd a36/s   ,36/i_r,36/r_overflow,36/(o_ov1-l_org)/5,36/0
    002660  aa   000000 000000
    002661  aa   000000 000006
    002662  aa   000000 002433
    002663  aa   000000 000000
    002664  aa   040040 040040     320  		vfd a36/    ,36/i_n,36/0,36/(r_2-l_org)/5,36/0
    002665  aa   000000 000002
    002666  aa   000000 000000
    002667  aa   000000 002701
    002670  aa   000000 000000
    002671  aa   163040 040040     321  	cancel:	vfd a36/s   ,36/i_r,36/r_cancel,36/(l_86-l_org)/5,36/0
    002672  aa   000000 000000
    002673  aa   000000 000007
    002674  aa   000000 000446
    002675  aa   000000 000000
    002676  aa   163040 040040     322  l_86:		vfd a36/s   ,36/i_s,36/(nonumid-l_org)/5,36/(l_87-l_org)/5,36/0
    002677  aa   000000 000003
    002700  aa   000000 002617
    002701  aa   000000 000450
    002702  aa   000000 000000
    002703  aa   040040 040040     323  		vfd a36/    ,36/i_n,36/0,36/(r_2-l_org)/5,36/0
    002704  aa   000000 000002
    002705  aa   000000 000000
    002706  aa   000000 002701
    002707  aa   000000 000000
    002710  aa   163040 040040     324  l_87:		vfd a36/s   ,36/i_s,36/(nonumid-l_org)/5,36/(l_87-l_org)/5,36/0
    002711  aa   000000 000003
    002712  aa   000000 002617
    002713  aa   000000 000450
    002714  aa   000000 000000
    002715  aa   040040 040040     325  		vfd a36/    ,36/i_n,36/0,36/(verb1-l_org)/5,36/0
    002716  aa   000000 000002
    002717  aa   000000 000000
    002720  aa   000000 002362
    002721  aa   000000 000000
    002722  aa   163040 040040     326  	close:	vfd a36/s   ,36/i_r,36/r_close,36/(l_88-l_org)/5,36/0
    002723  aa   000000 000000
    002724  aa   000000 000010
    002725  aa   000000 000453
    002726  aa   000000 000000
    002727  aa   163040 040040     327  l_88:		vfd a36/s   ,36/i_c,36/c_nsfilnm,36/(l_89-l_org)/5,36/a_60
    002730  aa   000000 000001
    002731  aa   000000 000021
    002732  aa   000000 000455
    002733  aa   000000 000074
    002734  aa   040040 040040     328  		vfd a36/    ,36/i_n,36/0,36/(r_2-l_org)/5,36/0
    002735  aa   000000 000002
    002736  aa   000000 000000
    002737  aa   000000 002701
    002740  aa   000000 000000
    002741  aa   163040 040040     329  l_89:	clos_ss1:	vfd a36/s   ,36/i_r,36/r_reel,36/(clos_ss4-l_org)/5,36/0
    002742  aa   000000 000000
    002743  aa   000000 000225
    002744  aa   000000 000464
    002745  aa   000000 000000
    002746  aa   163040 040040     330  		vfd a36/s   ,36/i_r,36/r_unit,36/(clos_ss4-l_org)/5,36/0
    002747  aa   000000 000000
    002750  aa   000000 000254
    002751  aa   000000 000464
    002752  aa   000000 000000
    002753  aa   163040 040040     331  		vfd a36/s   ,36/i_r,36/r_with,36/(clos_ss9-l_org)/5,36/0
    002754  aa   000000 000000
    002755  aa   000000 000263
    002756  aa   000000 000477
    002757  aa   000000 000000
    002760  aa   163040 040040     332  		vfd a36/s   ,36/i_r,36/r_no,36/(clos_ss8-l_org)/5,36/0
    002761  aa   000000 000000
    002762  aa   000000 000201
    002763  aa   000000 000475
    002764  aa   000000 000000
    002765  aa   163040 040040     333  		vfd a36/s   ,36/i_r,36/r_lock,36/(l_90-l_org)/5,36/0
    002766  aa   000000 000000
    002767  aa   000000 000175
    002770  aa   000000 000462
    002771  aa   000000 000000
    002772  aa   163040 040040     334  l_90:	clos_ss2:	vfd a36/s   ,36/i_c,36/c_nsfilnm,36/(l_91-l_org)/5,36/a_60
    002773  aa   000000 000001
    002774  aa   000000 000021
    002775  aa   000000 000464
    002776  aa   000000 000074
    002777  aa   040040 040040     335  		vfd a36/    ,36/i_n,36/0,36/(verb1-l_org)/5,36/0
    003000  aa   000000 000002
    003001  aa   000000 000000
    003002  aa   000000 002362
    003003  aa   000000 000000
    003004  aa   163040 040040     336  l_91:	clos_ss4:	vfd a36/s   ,36/i_r,36/r_with,36/(clos_ss7-l_org)/5,36/0
    003005  aa   000000 000000
    003006  aa   000000 000263
    003007  aa   000000 000473
    003010  aa   000000 000000
    003011  aa   163040 040040     337  		vfd a36/s   ,36/i_r,36/r_for,36/(clos_ss6-l_org)/5,36/0
    003012  aa   000000 000000
    003013  aa   000000 000156
    003014  aa   000000 000471
    003015  aa   000000 000000
    003016  aa   163040 040040     338  		vfd a36/s   ,36/i_r,36/r_no,36/(clos_ss8-l_org)/5,36/0
    003017  aa   000000 000000
    003020  aa   000000 000201
    003021  aa   000000 000475
    003022  aa   000000 000000
    003023  aa   163040 040040     339  		vfd a36/s   ,36/i_r,36/r_removal,36/(clos_ss2-l_org)/5,36/0
    003024  aa   000000 000000
    003025  aa   000000 000404
    003026  aa   000000 000462
    003027  aa   000000 000000
    003030  aa   040040 040040     340  		vfd a36/    ,36/i_n,36/0,36/(clos_ss2-l_org)/5,36/0
    003031  aa   000000 000002
    003032  aa   000000 000000
    003033  aa   000000 000462
    003034  aa   000000 000000
    003035  aa   163040 040040     341  	clos_ss6:	vfd a36/s   ,36/i_r,36/r_removal,36/(clos_ss2-l_org)/5,36/0
    003036  aa   000000 000000
    003037  aa   000000 000404
    003040  aa   000000 000462
    003041  aa   000000 000000
    003042  aa   040040 040040     342  		vfd a36/    ,36/i_n,36/0,36/(r_2-l_org)/5,36/0
    003043  aa   000000 000002
    003044  aa   000000 000000
    003045  aa   000000 002701
    003046  aa   000000 000000
    003047  aa   163040 040040     343  	clos_ss7:	vfd a36/s   ,36/i_r,36/r_no,36/(l_92-l_org)/5,36/0
    003050  aa   000000 000000
    003051  aa   000000 000201
    003052  aa   000000 000475
    003053  aa   000000 000000
    003054  aa   040040 040040     344  		vfd a36/    ,36/i_n,36/0,36/(r_2-l_org)/5,36/0
    003055  aa   000000 000002
    003056  aa   000000 000000
    003057  aa   000000 002701
    003060  aa   000000 000000
    003061  aa   163040 040040     345  l_92:	clos_ss8:	vfd a36/s   ,36/i_r,36/r_rewind,36/(clos_ss2-l_org)/5,36/0
    003062  aa   000000 000000
    003063  aa   000000 000233
    003064  aa   000000 000462
    003065  aa   000000 000000
    003066  aa   040040 040040     346  		vfd a36/    ,36/i_n,36/0,36/(r_2-l_org)/5,36/0
    003067  aa   000000 000002
    003070  aa   000000 000000
    003071  aa   000000 002701
    003072  aa   000000 000000
    003073  aa   163040 040040     347  	clos_ss9:	vfd a36/s   ,36/i_r,36/r_no,36/(clos_ss8-l_org)/5,36/0
    003074  aa   000000 000000
    003075  aa   000000 000201
    003076  aa   000000 000475
    003077  aa   000000 000000
    003100  aa   163040 040040     348  		vfd a36/s   ,36/i_r,36/r_lock,36/(clos_ss2-l_org)/5,36/0
    003101  aa   000000 000000
    003102  aa   000000 000175
    003103  aa   000000 000462
    003104  aa   000000 000000
    003105  aa   040040 040040     349  		vfd a36/    ,36/i_n,36/0,36/(r_2-l_org)/5,36/0
    003106  aa   000000 000002
    003107  aa   000000 000000
    003110  aa   000000 002701
    003111  aa   000000 000000
    003112  aa   163040 040040     350  	compute:	vfd a36/s   ,36/i_r,36/r_compute,36/(l_93-l_org)/5,36/a_13
    003113  aa   000000 000000
    003114  aa   000000 000050
    003115  aa   000000 000503
    003116  aa   000000 000015
    003117  aa   163040 040040     351  l_93:		vfd a36/s   ,36/i_s,36/(edalel-l_org)/5,36/(l_94-l_org)/5,36/0
    003120  aa   000000 000003
    003121  aa   000000 002670
    003122  aa   000000 000505
    003123  aa   000000 000000
    003124  aa   040040 040040     352  		vfd a36/    ,36/i_n,36/0,36/(r_2-l_org)/5,36/0
    003125  aa   000000 000002
    003126  aa   000000 000000
    003127  aa   000000 002701
    003130  aa   000000 000000
    003131  aa   163040 040040     353  l_94:	com1:	vfd a36/s   ,36/i_r,36/r_rounded,36/(l_95-l_org)/5,36/0
    003132  aa   000000 000000
    003133  aa   000000 000234
    003134  aa   000000 000507
    003135  aa   000000 000000
    003136  aa   040040 040040     354  		vfd a36/    ,36/i_n,36/0,36/(l_95-l_org)/5,36/0
    003137  aa   000000 000002
    003140  aa   000000 000000
    003141  aa   000000 000507
    003142  aa   000000 000000
    003143  aa   163040 040040     355  l_95:		vfd a36/s   ,36/i_s,36/(edalel-l_org)/5,36/(com1-l_org)/5,36/0
    003144  aa   000000 000003
    003145  aa   000000 002670
    003146  aa   000000 000505
    003147  aa   000000 000000
    003150  aa   163040 040040     356  		vfd a36/s   ,36/i_r,36/r_from,36/(l_96-l_org)/5,36/0
    003151  aa   000000 000000
    003152  aa   000000 000157
    003153  aa   000000 000514
    003154  aa   000000 000000
    003155  aa   163040 040040     357  		vfd a36/s   ,36/i_r,36/r_eq,36/(l_96-l_org)/5,36/0
    003156  aa   000000 000000
    003157  aa   000000 000146
    003160  aa   000000 000514
    003161  aa   000000 000000
    003162  aa   163040 040040     358  		vfd a36/s   ,36/i_r,36/r_equals,36/(l_96-l_org)/5,36/0
    003163  aa   000000 000000
    003164  aa   000000 000146
    003165  aa   000000 000514
    003166  aa   000000 000000
    003167  aa   040040 040040     359  		vfd a36/    ,36/i_n,36/0,36/(r_2-l_org)/5,36/0
    003170  aa   000000 000002
    003171  aa   000000 000000
    003172  aa   000000 002701
    003173  aa   000000 000000
    003174  aa   040040 040040     360  l_96:		vfd a36/    ,36/i_s,36/(arithexp-l_org)/5,36/(l_97-l_org)/5,36/0
    003175  aa   000000 000003
    003176  aa   000000 003101
    003177  aa   000000 000516
    003200  aa   000000 000000
    003201  aa   040040 040040     361  		vfd a36/    ,36/i_n,36/0,36/(r_2-l_org)/5,36/0
    003202  aa   000000 000002
    003203  aa   000000 000000
    003204  aa   000000 002701
    003205  aa   000000 000000
    003206  aa   163040 040040     362  l_97:		vfd a36/s   ,36/i_r,36/r_not,36/(l_98-l_org)/5,36/a_97
    003207  aa   000000 000000
    003210  aa   000000 000202
    003211  aa   000000 000522
    003212  aa   000000 000141
    003213  aa   163040 040040     363  		vfd a36/s   ,36/i_r,36/r_on,36/(o_se-l_org)/5,36/a_96
    003214  aa   000000 000000
    003215  aa   000000 000206
    003216  aa   000000 002421
    003217  aa   000000 000140
    003220  aa   163040 040040     364  		vfd a36/s   ,36/i_r,36/r_size,36/(o_se1-l_org)/5,36/a_96
    003221  aa   000000 000000
    003222  aa   000000 000241
    003223  aa   000000 002422
    003224  aa   000000 000140
    003225  aa   040040 040040     365  		vfd a36/    ,36/i_n,36/0,36/(cverb-l_org)/5,36/0
    003226  aa   000000 000002
    003227  aa   000000 000000
    003230  aa   000000 002361
    003231  aa   000000 000000
    003232  aa   163040 040040     366  l_98:		vfd a36/s   ,36/i_r,36/r_on,36/(o_se-l_org)/5,36/0
    003233  aa   000000 000000
    003234  aa   000000 000206
    003235  aa   000000 002421
    003236  aa   000000 000000
    003237  aa   163040 040040     367  		vfd a36/s   ,36/i_r,36/r_size,36/(o_se1-l_org)/5,36/0
    003240  aa   000000 000000
    003241  aa   000000 000241
    003242  aa   000000 002422
    003243  aa   000000 000000
    003244  aa   040040 040040     368  		vfd a36/    ,36/i_n,36/0,36/(r_2-l_org)/5,36/0
    003245  aa   000000 000002
    003246  aa   000000 000000
    003247  aa   000000 002701
    003250  aa   000000 000000
    003251  aa   163040 040040     369  	disable:	vfd a36/s   ,36/i_r,36/r_disable,36/(l_99-l_org)/5,36/0
    003252  aa   000000 000000
    003253  aa   000000 000051
    003254  aa   000000 000526
    003255  aa   000000 000000
    003256  aa   163040 040040     370  l_99:	dis_3:	vfd a36/s   ,36/i_r,36/r_input,36/(l_100-l_org)/5,36/0
    003257  aa   000000 000000
    003260  aa   000000 000163
    003261  aa   000000 000531
    003262  aa   000000 000000
    003263  aa   163040 040040     371  		vfd a36/s   ,36/i_r,36/r_output,36/(dis_1-l_org)/5,36/0
    003264  aa   000000 000000
    003265  aa   000000 000211
    003266  aa   000000 000534
    003267  aa   000000 000000
    003270  aa   040040 040040     372  		vfd a36/    ,36/i_n,36/0,36/(r_2-l_org)/5,36/0
    003271  aa   000000 000002
    003272  aa   000000 000000
    003273  aa   000000 002701
    003274  aa   000000 000000
    003275  aa   163040 040040     373  l_100:		vfd a36/s   ,36/i_r,36/r_terminal,36/(l_101-l_org)/5,36/0
    003276  aa   000000 000000
    003277  aa   000000 000244
    003300  aa   000000 000532
    003301  aa   000000 000000
    003302  aa   163040 040040     374  l_101:		vfd a36/s   ,36/i_c,36/c_incdnm,36/(dis_2-l_org)/5,36/a_60
    003303  aa   000000 000001
    003304  aa   000000 000022
    003305  aa   000000 000536
    003306  aa   000000 000074
    003307  aa   040040 040040     375  		vfd a36/    ,36/i_n,36/0,36/(r_2-l_org)/5,36/0
    003310  aa   000000 000002
    003311  aa   000000 000000
    003312  aa   000000 002701
    003313  aa   000000 000000
    003314  aa   163040 040040     376  	dis_1:	vfd a36/s   ,36/i_c,36/c_outcdnm,36/(l_102-l_org)/5,36/a_60
    003315  aa   000000 000001
    003316  aa   000000 000023
    003317  aa   000000 000536
    003320  aa   000000 000074
    003321  aa   040040 040040     377  		vfd a36/    ,36/i_n,36/0,36/(r_2-l_org)/5,36/0
    003322  aa   000000 000002
    003323  aa   000000 000000
    003324  aa   000000 002701
    003325  aa   000000 000000
    003326  aa   163040 040040     378  l_102:	dis_2:	vfd a36/s   ,36/i_r,36/r_with,36/(l_103-l_org)/5,36/0
    003327  aa   000000 000000
    003330  aa   000000 000263
    003331  aa   000000 000537
    003332  aa   000000 000000
    003333  aa   163040 040040     379  l_103:		vfd a36/s   ,36/i_r,36/r_key,36/(l_104-l_org)/5,36/0
    003334  aa   000000 000000
    003335  aa   000000 000170
    003336  aa   000000 000541
    003337  aa   000000 000000
    003340  aa   040040 040040     380  		vfd a36/    ,36/i_n,36/0,36/(r_2-l_org)/5,36/0
    003341  aa   000000 000002
    003342  aa   000000 000000
    003343  aa   000000 002701
    003344  aa   000000 000000
    003345  aa   163040 040040     381  l_104:		vfd a36/s   ,36/i_n,36/0,36/(verb1-l_org)/5,36/0
    003346  aa   000000 000002
    003347  aa   000000 000000
    003350  aa   000000 002362
    003351  aa   000000 000000
    003352  aa   040040 040040     382  		vfd a36/    ,36/i_n,36/0,36/(r_2-l_org)/5,36/0
    003353  aa   000000 000002
    003354  aa   000000 000000
    003355  aa   000000 002701
    003356  aa   000000 000000
    003357  aa   163040 040040     383  	display:	vfd a36/s   ,36/i_r,36/r_display,36/(l_105-l_org)/5,36/0
    003360  aa   000000 000000
    003361  aa   000000 000052
    003362  aa   000000 000544
    003363  aa   000000 000000
    003364  aa   163040 040040     384  l_105:		vfd a36/s   ,36/i_s,36/(sid-l_org)/5,36/(disp3-l_org)/5,36/0
    003365  aa   000000 000003
    003366  aa   000000 002347
    003367  aa   000000 000552
    003370  aa   000000 000000
    003371  aa   163040 040040     385  		vfd a36/s   ,36/i_c,36/c_lit,36/(disp3-l_org)/5,36/0
    003372  aa   000000 000001
    003373  aa   000000 000025
    003374  aa   000000 000552
    003375  aa   000000 000000
    003376  aa   163040 040040     386  		vfd a36/s   ,36/i_c,36/c_figconall,36/(disp3-l_org)/5,36/0
    003377  aa   000000 000001
    003400  aa   000000 000026
    003401  aa   000000 000552
    003402  aa   000000 000000
    003403  aa   163040 040040     387  		vfd a36/s   ,36/i_c,36/c_xnm,36/(r_2-l_org)/5,36/0
    003404  aa   000000 000001
    003405  aa   000000 000041
    003406  aa   000000 002701
    003407  aa   000000 000000
    003410  aa   163040 040040     388  		vfd a36/s   ,36/i_s,36/(xdname-l_org)/5,36/(r_2-l_org)/5,36/0
    003411  aa   000000 000003
    003412  aa   000000 002323
    003413  aa   000000 002701
    003414  aa   000000 000000
    003415  aa   040040 040040     389  		vfd a36/    ,36/i_n,36/0,36/(r_2-l_org)/5,36/0
    003416  aa   000000 000002
    003417  aa   000000 000000
    003420  aa   000000 002701
    003421  aa   000000 000000
    003422  aa   163040 040040     390  	disp3:	vfd a36/s   ,36/i_r,36/r_upon,36/(disp4-l_org)/5,36/0
    003423  aa   000000 000000
    003424  aa   000000 000257
    003425  aa   000000 000561
    003426  aa   000000 000000
    003427  aa   163040 040040     391  		vfd a36/s   ,36/i_s,36/(sid-l_org)/5,36/(disp3-l_org)/5,36/0
    003430  aa   000000 000003
    003431  aa   000000 002347
    003432  aa   000000 000552
    003433  aa   000000 000000
    003434  aa   163040 040040     392  		vfd a36/s   ,36/i_c,36/c_lit,36/(disp3-l_org)/5,36/0
    003435  aa   000000 000001
    003436  aa   000000 000025
    003437  aa   000000 000552
    003440  aa   000000 000000
    003441  aa   163040 040040     393  		vfd a36/s   ,36/i_c,36/c_figconall,36/(disp3-l_org)/5,36/0
    003442  aa   000000 000001
    003443  aa   000000 000026
    003444  aa   000000 000552
    003445  aa   000000 000000
    003446  aa   163040 040040     394  		vfd a36/s   ,36/i_c,36/c_xnm,36/(r_2-l_org)/5,36/0
    003447  aa   000000 000001
    003450  aa   000000 000041
    003451  aa   000000 002701
    003452  aa   000000 000000
    003453  aa   163040 040040     395  		vfd a36/s   ,36/i_s,36/(xdname-l_org)/5,36/(r_2-l_org)/5,36/0
    003454  aa   000000 000003
    003455  aa   000000 002323
    003456  aa   000000 002701
    003457  aa   000000 000000
    003460  aa   040040 040040     396  		vfd a36/    ,36/i_n,36/0,36/(verb1-l_org)/5,36/0
    003461  aa   000000 000002
    003462  aa   000000 000000
    003463  aa   000000 002362
    003464  aa   000000 000000
    003465  aa   040040 040040     397  	disp4:	vfd a36/    ,36/i_c,36/c_disp_dev,36/(disp1-l_org)/5,36/0
    003466  aa   000000 000001
    003467  aa   000000 000306
    003470  aa   000000 000563
    003471  aa   000000 000000
    003472  aa   040040 040040     398  		vfd a36/    ,36/i_n,36/0,36/(r_2-l_org)/5,36/0
    003473  aa   000000 000002
    003474  aa   000000 000000
    003475  aa   000000 002701
    003476  aa   000000 000000
    003477  aa   163040 040040     399  	disp1:	vfd a36/s   ,36/i_c,36/c_disp_dev,36/(verb1-l_org)/5,36/0
    003500  aa   000000 000001
    003501  aa   000000 000306
    003502  aa   000000 002362
    003503  aa   000000 000000
    003504  aa   040040 040040     400  		vfd a36/    ,36/i_n,36/0,36/(r_2-l_org)/5,36/0
    003505  aa   000000 000002
    003506  aa   000000 000000
    003507  aa   000000 002701
    003510  aa   000000 000000
    003511  aa   163040 040040     401  	divide:	vfd a36/s   ,36/i_r,36/r_divide,36/(l_106-l_org)/5,36/a_13
    003512  aa   000000 000000
    003513  aa   000000 000011
    003514  aa   000000 000566
    003515  aa   000000 000015
    003516  aa   163040 040040     402  l_106:		vfd a36/s   ,36/i_s,36/(elnuitem-l_org)/5,36/(l_107-l_org)/5,36/0
    003517  aa   000000 000003
    003520  aa   000000 002642
    003521  aa   000000 000570
    003522  aa   000000 000000
    003523  aa   040040 040040     403  		vfd a36/    ,36/i_n,36/0,36/(r_2-l_org)/5,36/0
    003524  aa   000000 000002
    003525  aa   000000 000000
    003526  aa   000000 002701
    003527  aa   000000 000000
    003530  aa   163040 040040     404  l_107:		vfd a36/s   ,36/i_r,36/r_into,36/(l_108-l_org)/5,36/0
    003531  aa   000000 000000
    003532  aa   000000 000164
    003533  aa   000000 000573
    003534  aa   000000 000000
    003535  aa   163040 040040     405  		vfd a36/s   ,36/i_r,36/r_by,36/(div5-l_org)/5,36/0
    003536  aa   000000 000000
    003537  aa   000000 000122
    003540  aa   000000 000625
    003541  aa   000000 000000
    003542  aa   040040 040040     406  		vfd a36/    ,36/i_n,36/0,36/(r_2-l_org)/5,36/0
    003543  aa   000000 000002
    003544  aa   000000 000000
    003545  aa   000000 002701
    003546  aa   000000 000000
    003547  aa   040040 040040     407  l_108:		vfd a36/    ,36/i_c,36/c_nlit,36/(div8-l_org)/5,36/0
    003550  aa   000000 000001
    003551  aa   000000 000320
    003552  aa   000000 000631
    003553  aa   000000 000000
    003554  aa   040040 040040     408  		vfd a36/    ,36/i_r,36/r_all,36/(div8-l_org)/5,36/0
    003555  aa   000000 000000
    003556  aa   000000 000111
    003557  aa   000000 000631
    003560  aa   000000 000000
    003561  aa   040040 040040     409  		vfd a36/    ,36/i_r,36/r_zero,36/(div8-l_org)/5,36/0
    003562  aa   000000 000000
    003563  aa   000000 000264
    003564  aa   000000 000631
    003565  aa   000000 000000
    003566  aa   163040 040040     410  		vfd a36/s   ,36/i_s,36/(alel-l_org)/5,36/(l_109-l_org)/5,36/0
    003567  aa   000000 000003
    003570  aa   000000 002664
    003571  aa   000000 000600
    003572  aa   000000 000000
    003573  aa   040040 040040     411  		vfd a36/    ,36/i_n,36/0,36/(r_2-l_org)/5,36/0
    003574  aa   000000 000002
    003575  aa   000000 000000
    003576  aa   000000 002701
    003577  aa   000000 000000
    003600  aa   163040 040040     412  l_109:		vfd a36/s   ,36/i_r,36/r_giving,36/(div4-l_org)/5,36/a_57
    003601  aa   000000 000000
    003602  aa   000000 000160
    003603  aa   000000 000612
    003604  aa   000000 000071
    003605  aa   163040 040040     413  	div3:	vfd a36/s   ,36/i_r,36/r_rounded,36/(l_110-l_org)/5,36/0
    003606  aa   000000 000000
    003607  aa   000000 000234
    003610  aa   000000 000602
    003611  aa   000000 000000
    003612  aa   163040 040040     414  l_110:	div1:	vfd a36/s   ,36/i_s,36/(alel-l_org)/5,36/(div3-l_org)/5,36/0
    003613  aa   000000 000003
    003614  aa   000000 002664
    003615  aa   000000 000601
    003616  aa   000000 000000
    003617  aa   163040 040040     415  	div2:	vfd a36/s   ,36/i_r,36/r_not,36/(l_111-l_org)/5,36/a_97
    003620  aa   000000 000000
    003621  aa   000000 000202
    003622  aa   000000 000607
    003623  aa   000000 000141
    003624  aa   163040 040040     416  		vfd a36/s   ,36/i_r,36/r_on,36/(o_se-l_org)/5,36/a_96
    003625  aa   000000 000000
    003626  aa   000000 000206
    003627  aa   000000 002421
    003630  aa   000000 000140
    003631  aa   163040 040040     417  		vfd a36/s   ,36/i_r,36/r_size,36/(o_se1-l_org)/5,36/a_96
    003632  aa   000000 000000
    003633  aa   000000 000241
    003634  aa   000000 002422
    003635  aa   000000 000140
    003636  aa   040040 040040     418  		vfd a36/    ,36/i_n,36/0,36/(cverb-l_org)/5,36/0
    003637  aa   000000 000002
    003640  aa   000000 000000
    003641  aa   000000 002361
    003642  aa   000000 000000
    003643  aa   163040 040040     419  l_111:	div9:	vfd a36/s   ,36/i_r,36/r_on,36/(o_se-l_org)/5,36/0
    003644  aa   000000 000000
    003645  aa   000000 000206
    003646  aa   000000 002421
    003647  aa   000000 000000
    003650  aa   163040 040040     420  		vfd a36/s   ,36/i_r,36/r_size,36/(o_se1-l_org)/5,36/0
    003651  aa   000000 000000
    003652  aa   000000 000241
    003653  aa   000000 002422
    003654  aa   000000 000000
    003655  aa   040040 040040     421  		vfd a36/    ,36/i_n,36/0,36/(r_2-l_org)/5,36/0
    003656  aa   000000 000002
    003657  aa   000000 000000
    003660  aa   000000 002701
    003661  aa   000000 000000
    003662  aa   163040 040040     422  	div4:	vfd a36/s   ,36/i_s,36/(alel-l_org)/5,36/(l_112-l_org)/5,36/0
    003663  aa   000000 000003
    003664  aa   000000 002664
    003665  aa   000000 000614
    003666  aa   000000 000000
    003667  aa   040040 040040     423  		vfd a36/    ,36/i_n,36/0,36/(r_2-l_org)/5,36/0
    003670  aa   000000 000002
    003671  aa   000000 000000
    003672  aa   000000 002701
    003673  aa   000000 000000
    003674  aa   163040 040040     424  l_112:		vfd a36/s   ,36/i_r,36/r_rounded,36/(l_113-l_org)/5,36/0
    003675  aa   000000 000000
    003676  aa   000000 000234
    003677  aa   000000 000615
    003700  aa   000000 000000
    003701  aa   163040 040040     425  l_113:		vfd a36/s   ,36/i_r,36/r_remainder,36/(div7-l_org)/5,36/0
    003702  aa   000000 000000
    003703  aa   000000 000227
    003704  aa   000000 000623
    003705  aa   000000 000000
    003706  aa   163040 040040     426  		vfd a36/s   ,36/i_r,36/r_not,36/(div9-l_org)/5,36/a_97
    003707  aa   000000 000000
    003710  aa   000000 000202
    003711  aa   000000 000607
    003712  aa   000000 000141
    003713  aa   163040 040040     427  		vfd a36/s   ,36/i_r,36/r_on,36/(o_se-l_org)/5,36/a_96
    003714  aa   000000 000000
    003715  aa   000000 000206
    003716  aa   000000 002421
    003717  aa   000000 000140
    003720  aa   163040 040040     428  		vfd a36/s   ,36/i_r,36/r_size,36/(o_se1-l_org)/5,36/a_96
    003721  aa   000000 000000
    003722  aa   000000 000241
    003723  aa   000000 002422
    003724  aa   000000 000140
    003725  aa   163040 040040     429  		vfd a36/s   ,36/i_s,36/(alel-l_org)/5,36/(div3-l_org)/5,36/0
    003726  aa   000000 000003
    003727  aa   000000 002664
    003730  aa   000000 000601
    003731  aa   000000 000000
    003732  aa   040040 040040     430  		vfd a36/    ,36/i_n,36/0,36/(cverb-l_org)/5,36/0
    003733  aa   000000 000002
    003734  aa   000000 000000
    003735  aa   000000 002361
    003736  aa   000000 000000
    003737  aa   163040 040040     431  	div7:	vfd a36/s   ,36/i_s,36/(alel-l_org)/5,36/(div2-l_org)/5,36/0
    003740  aa   000000 000003
    003741  aa   000000 002664
    003742  aa   000000 000603
    003743  aa   000000 000000
    003744  aa   040040 040040     432  		vfd a36/    ,36/i_n,36/0,36/(r_2-l_org)/5,36/0
    003745  aa   000000 000002
    003746  aa   000000 000000
    003747  aa   000000 002701
    003750  aa   000000 000000
    003751  aa   163040 040040     433  	div5:	vfd a36/s   ,36/i_s,36/(elnuitem-l_org)/5,36/(l_114-l_org)/5,36/0
    003752  aa   000000 000003
    003753  aa   000000 002642
    003754  aa   000000 000627
    003755  aa   000000 000000
    003756  aa   040040 040040     434  		vfd a36/    ,36/i_n,36/0,36/(r_2-l_org)/5,36/0
    003757  aa   000000 000002
    003760  aa   000000 000000
    003761  aa   000000 002701
    003762  aa   000000 000000
    003763  aa   163040 040040     435  l_114:	div6:	vfd a36/s   ,36/i_r,36/r_giving,36/(div4-l_org)/5,36/0
    003764  aa   000000 000000
    003765  aa   000000 000160
    003766  aa   000000 000612
    003767  aa   000000 000000
    003770  aa   040040 040040     436  		vfd a36/    ,36/i_n,36/0,36/(r_2-l_org)/5,36/0
    003771  aa   000000 000002
    003772  aa   000000 000000
    003773  aa   000000 002701
    003774  aa   000000 000000
    003775  aa   163040 040040     437  	div8:	vfd a36/s   ,36/i_s,36/(elnuitem-l_org)/5,36/(div6-l_org)/5,36/0
    003776  aa   000000 000003
    003777  aa   000000 002642
    004000  aa   000000 000627
    004001  aa   000000 000000
    004002  aa   040040 040040     438  		vfd a36/    ,36/i_n,36/0,36/(div6-l_org)/5,36/0
    004003  aa   000000 000002
    004004  aa   000000 000000
    004005  aa   000000 000627
    004006  aa   000000 000000
    004007  aa   163040 040040     439  	enable:	vfd a36/s   ,36/i_r,36/r_enable,36/(dis_3-l_org)/5,36/0
    004010  aa   000000 000000
    004011  aa   000000 000053
    004012  aa   000000 000526
    004013  aa   000000 000000
    004014  aa   163040 040040     440  	exit:	vfd a36/s   ,36/i_r,36/r_exit,36/(l_115-l_org)/5,36/0
    004015  aa   000000 000000
    004016  aa   000000 000014
    004017  aa   000000 000635
    004020  aa   000000 000000
    004021  aa   163040 040040     441  l_115:		vfd a36/s   ,36/i_r,36/r_program,36/(verb1-l_org)/5,36/0
    004022  aa   000000 000000
    004023  aa   000000 000222
    004024  aa   000000 002362
    004025  aa   000000 000000
    004026  aa   040040 040040     442  		vfd a36/    ,36/i_n,36/0,36/(verb1-l_org)/5,36/0
    004027  aa   000000 000002
    004030  aa   000000 000000
    004031  aa   000000 002362
    004032  aa   000000 000000
    004033  aa   163040 040040     443  	generate:	vfd a36/s   ,36/i_r,36/r_generate,36/(l_116-l_org)/5,36/0
    004034  aa   000000 000000
    004035  aa   000000 000055
    004036  aa   000000 000640
    004037  aa   000000 000000
    004040  aa   163040 040040     444  l_116:		vfd a36/s   ,36/i_c,36/c_rpid,36/(verb1-l_org)/5,36/0
    004041  aa   000000 000001
    004042  aa   000000 000031
    004043  aa   000000 002362
    004044  aa   000000 000000
    004045  aa   040040 040040     445  		vfd a36/    ,36/i_n,36/0,36/(r_2-l_org)/5,36/0
    004046  aa   000000 000002
    004047  aa   000000 000000
    004050  aa   000000 002701
    004051  aa   000000 000000
    004052  aa   163040 040040     446  	go:	vfd a36/s   ,36/i_r,36/r_go,36/(l_117-l_org)/5,36/0
    004053  aa   000000 000000
    004054  aa   000000 000016
    004055  aa   000000 000643
    004056  aa   000000 000000
    004057  aa   163040 040040     447  l_117:		vfd a36/s   ,36/i_r,36/r_to,36/(l_118-l_org)/5,36/0
    004060  aa   000000 000000
    004061  aa   000000 000252
    004062  aa   000000 000644
    004063  aa   000000 000000
    004064  aa   163040 040040     448  l_118:		vfd a36/s   ,36/i_c,36/c_prnm,36/(l_119-l_org)/5,36/a_122
    004065  aa   000000 000001
    004066  aa   000000 000016
    004067  aa   000000 000646
    004070  aa   000000 000172
    004071  aa   040040 040040     449  		vfd a36/    ,36/i_n,36/0,36/(verb1-l_org)/5,36/0
    004072  aa   000000 000002
    004073  aa   000000 000000
    004074  aa   000000 002362
    004075  aa   000000 000000
    004076  aa   163040 040040     450  l_119:		vfd a36/s   ,36/i_c,36/c_prnm,36/(l_120-l_org)/5,36/a_122
    004077  aa   000000 000001
    004100  aa   000000 000016
    004101  aa   000000 000650
    004102  aa   000000 000172
    004103  aa   040040 040040     451  		vfd a36/    ,36/i_n,36/0,36/(verb1-l_org)/5,36/0
    004104  aa   000000 000002
    004105  aa   000000 000000
    004106  aa   000000 002362
    004107  aa   000000 000000
    004110  aa   163040 040040     452  l_120:		vfd a36/s   ,36/i_r,36/r_depending,36/(l_121-l_org)/5,36/a_20
    004111  aa   000000 000000
    004112  aa   000000 000134
    004113  aa   000000 000653
    004114  aa   000000 000024
    004115  aa   163040 040040     453  		vfd a36/s   ,36/i_c,36/c_prnm,36/(l_120-l_org)/5,36/0
    004116  aa   000000 000001
    004117  aa   000000 000016
    004120  aa   000000 000650
    004121  aa   000000 000000
    004122  aa   040040 040040     454  		vfd a36/    ,36/i_n,36/0,36/(r_2-l_org)/5,36/0
    004123  aa   000000 000002
    004124  aa   000000 000000
    004125  aa   000000 002701
    004126  aa   000000 000000
    004127  aa   163040 040040     455  l_121:	go6:	vfd a36/s   ,36/i_r,36/r_on,36/(l_122-l_org)/5,36/0
    004130  aa   000000 000000
    004131  aa   000000 000206
    004132  aa   000000 000654
    004133  aa   000000 000000
    004134  aa   163040 040040     456  l_122:		vfd a36/s   ,36/i_s,36/(elnuitem-l_org)/5,36/(verb1-l_org)/5,36/0
    004135  aa   000000 000003
    004136  aa   000000 002642
    004137  aa   000000 002362
    004140  aa   000000 000000
    004141  aa   040040 040040     457  		vfd a36/    ,36/i_n,36/0,36/(r_2-l_org)/5,36/0
    004142  aa   000000 000002
    004143  aa   000000 000000
    004144  aa   000000 002701
    004145  aa   000000 000000
    004146  aa   163040 040040     458  	hold:	vfd a36/s   ,36/i_r,36/r_hold,36/(l_123-l_org)/5,36/0
    004147  aa   000000 000000
    004150  aa   000000 000056
    004151  aa   000000 000657
    004152  aa   000000 000000
    004153  aa   163040 040040     459  l_123:		vfd a36/s   ,36/i_r,36/r_all,36/(verb1-l_org)/5,36/0
    004154  aa   000000 000000
    004155  aa   000000 000111
    004156  aa   000000 002362
    004157  aa   000000 000000
    004160  aa   163040 040040     460  		vfd a36/s   ,36/i_c,36/c_descnm,36/(l_124-l_org)/5,36/0
    004161  aa   000000 000001
    004162  aa   000000 000032
    004163  aa   000000 000662
    004164  aa   000000 000000
    004165  aa   040040 040040     461  		vfd a36/    ,36/i_n,36/0,36/(r_2-l_org)/5,36/0
    004166  aa   000000 000002
    004167  aa   000000 000000
    004170  aa   000000 002701
    004171  aa   000000 000000
    004172  aa   163040 040040     462  l_124:		vfd a36/s   ,36/i_c,36/c_descnm,36/(l_124-l_org)/5,36/0
    004173  aa   000000 000001
    004174  aa   000000 000032
    004175  aa   000000 000662
    004176  aa   000000 000000
    004177  aa   040040 040040     463  		vfd a36/    ,36/i_n,36/0,36/(verb1-l_org)/5,36/0
    004200  aa   000000 000002
    004201  aa   000000 000000
    004202  aa   000000 002362
    004203  aa   000000 000000
    004204  aa   163040 040040     464  	if:	vfd a36/s   ,36/i_r,36/r_if,36/(l_125-l_org)/5,36/a_15
    004205  aa   000000 000000
    004206  aa   000000 000057
    004207  aa   000000 000665
    004210  aa   000000 000017
    004211  aa   040040 040040     465  l_125:		vfd a36/    ,36/i_s,36/(condition-l_org)/5,36/(l_126-l_org)/5,36/0
    004212  aa   000000 000003
    004213  aa   000000 002756
    004214  aa   000000 000667
    004215  aa   000000 000000
    004216  aa   040040 040040     466  		vfd a36/    ,36/i_n,36/0,36/(r_2-l_org)/5,36/0
    004217  aa   000000 000002
    004220  aa   000000 000000
    004221  aa   000000 002701
    004222  aa   000000 000000
    004223  aa   163040 040040     467  l_126:		vfd a36/s   ,36/i_r,36/r_then,36/(l_127-l_org)/5,36/0
    004224  aa   000000 000000
    004225  aa   000000 000454
    004226  aa   000000 000670
    004227  aa   000000 000000
    004230  aa   040040 040040     468  l_127:		vfd a36/    ,36/i_n,36/0,36/(l_128-l_org)/5,36/a_eos
    004231  aa   000000 000002
    004232  aa   000000 000000
    004233  aa   000000 000671
    004234  aa   000000 000126
    004235  aa   040040 040040     469  l_128:		vfd a36/    ,36/i_s,36/(ns-l_org)/5,36/(if6-l_org)/5,36/a_eos
    004236  aa   000000 000003
    004237  aa   000000 000722
    004240  aa   000000 000707
    004241  aa   000000 000126
    004242  aa   040040 040040     470  		vfd a36/    ,36/i_s,36/(verb-l_org)/5,36/(l_129-l_org)/5,36/0
    004243  aa   000000 000003
    004244  aa   000000 002357
    004245  aa   000000 000674
    004246  aa   000000 000000
    004247  aa   040040 040040     471  		vfd a36/    ,36/i_n,36/0,36/(r_2-l_org)/5,36/0
    004250  aa   000000 000002
    004251  aa   000000 000000
    004252  aa   000000 002701
    004253  aa   000000 000000
    004254  aa   163040 040040     472  l_129:	if3:	vfd a36/s   ,36/i_r,36/r_else,36/(l_130-l_org)/5,36/a_32
    004255  aa   000000 000000
    004256  aa   000000 000140
    004257  aa   000000 000676
    004260  aa   000000 000040
    004261  aa   040040 040040     473  		vfd a36/    ,36/i_n,36/0,36/(if7-l_org)/5,36/0
    004262  aa   000000 000002
    004263  aa   000000 000000
    004264  aa   000000 000716
    004265  aa   000000 000000
    004266  aa   040040 040040     474  l_130:		vfd a36/    ,36/i_n,36/0,36/(l_131-l_org)/5,36/a_eos
    004267  aa   000000 000002
    004270  aa   000000 000000
    004271  aa   000000 000677
    004272  aa   000000 000126
    004273  aa   040040 040040     475  l_131:		vfd a36/    ,36/i_s,36/(ns-l_org)/5,36/(if5-l_org)/5,36/a_49
    004274  aa   000000 000003
    004275  aa   000000 000722
    004276  aa   000000 000704
    004277  aa   000000 000061
    004300  aa   040040 040040     476  l_132:		vfd a36/    ,36/i_n,36/0,36/(l_133-l_org)/5,36/a_eos
    004301  aa   000000 000002
    004302  aa   000000 000000
    004303  aa   000000 000701
    004304  aa   000000 000126
    004305  aa   040040 040040     477  l_133:		vfd a36/    ,36/i_n,36/0,36/(l_134-l_org)/5,36/a_48
    004306  aa   000000 000002
    004307  aa   000000 000000
    004310  aa   000000 000702
    004311  aa   000000 000060
    004312  aa   040040 040040     478  l_134:	if4:	vfd a36/    ,36/i_s,36/(verb-l_org)/5,36/(if2-l_org)/5,36/0
    004313  aa   000000 000003
    004314  aa   000000 002357
    004315  aa   000000 000714
    004316  aa   000000 000000
    004317  aa   040040 040040     479  		vfd a36/    ,36/i_n,36/0,36/(r_2-l_org)/5,36/0
    004320  aa   000000 000002
    004321  aa   000000 000000
    004322  aa   000000 002701
    004323  aa   000000 000000
    004324  aa   040040 040040     480  	if5:	vfd a36/    ,36/i_r,36/r_else,36/(if2-l_org)/5,36/0
    004325  aa   000000 000000
    004326  aa   000000 000140
    004327  aa   000000 000714
    004330  aa   000000 000000
    004331  aa   040040 040040     481  	if1:	vfd a36/    ,36/i_r,36/r_end_if,36/(if2-l_org)/5,36/0
    004332  aa   000000 000000
    004333  aa   000000 000730
    004334  aa   000000 000714
    004335  aa   000000 000000
    004336  aa   040040 040040     482  		vfd a36/    ,36/i_n,36/0,36/(verb2-l_org)/5,36/0
    004337  aa   000000 000002
    004340  aa   000000 000000
    004341  aa   000000 002363
    004342  aa   000000 000000
    004343  aa   163040 040040     483  	if6:	vfd a36/s   ,36/i_r,36/r_else,36/(l_135-l_org)/5,36/a_50
    004344  aa   000000 000000
    004345  aa   000000 000140
    004346  aa   000000 000711
    004347  aa   000000 000062
    004350  aa   040040 040040     484  		vfd a36/    ,36/i_n,36/0,36/(if1-l_org)/5,36/0
    004351  aa   000000 000002
    004352  aa   000000 000000
    004353  aa   000000 000705
    004354  aa   000000 000000
    004355  aa   040040 040040     485  l_135:		vfd a36/    ,36/i_n,36/0,36/(l_136-l_org)/5,36/a_eos
    004356  aa   000000 000002
    004357  aa   000000 000000
    004360  aa   000000 000712
    004361  aa   000000 000126
    004362  aa   040040 040040     486  l_136:		vfd a36/    ,36/i_s,36/(ns-l_org)/5,36/(if5-l_org)/5,36/0
    004363  aa   000000 000003
    004364  aa   000000 000722
    004365  aa   000000 000704
    004366  aa   000000 000000
    004367  aa   040040 040040     487  		vfd a36/    ,36/i_n,36/0,36/(if4-l_org)/5,36/0
    004370  aa   000000 000002
    004371  aa   000000 000000
    004372  aa   000000 000702
    004373  aa   000000 000000
    004374  aa   040040 040040     488  	if2:	vfd a36/    ,36/i_c,36/c_nestedif,36/(l_137-l_org)/5,36/0
    004375  aa   000000 000001
    004376  aa   000000 000215
    004377  aa   000000 000716
    004400  aa   000000 000000
    004401  aa   040040 040040     489  		vfd a36/    ,36/i_n,36/0,36/(if3-l_org)/5,36/0
    004402  aa   000000 000002
    004403  aa   000000 000000
    004404  aa   000000 000674
    004405  aa   000000 000000
    004406  aa   163040 040040     490  l_137:	if7:	vfd a36/s   ,36/i_r,36/r_end_if,36/(l_138-l_org)/5,36/a_74
    004407  aa   000000 000000
    004410  aa   000000 000730
    004411  aa   000000 000720
    004412  aa   000000 000112
    004413  aa   040040 040040     491  		vfd a36/    ,36/i_n,36/0,36/(verb2-l_org)/5,36/0
    004414  aa   000000 000002
    004415  aa   000000 000000
    004416  aa   000000 002363
    004417  aa   000000 000000
    004420  aa   040040 040040     492  l_138:		vfd a36/    ,36/i_r,36/r_else,36/(if3-l_org)/5,36/0
    004421  aa   000000 000000
    004422  aa   000000 000140
    004423  aa   000000 000674
    004424  aa   000000 000000
    004425  aa   040040 040040     493  		vfd a36/    ,36/i_n,36/0,36/(verb2-l_org)/5,36/0
    004426  aa   000000 000002
    004427  aa   000000 000000
    004430  aa   000000 002363
    004431  aa   000000 000000
    004432  aa   163040 040040     494  	ns:	vfd a36/s   ,36/i_r,36/r_next,36/(l_139-l_org)/5,36/a_30
    004433  aa   000000 000000
    004434  aa   000000 000200
    004435  aa   000000 000724
    004436  aa   000000 000036
    004437  aa   040040 040040     495  		vfd a36/    ,36/i_n,36/0,36/(fail-l_org)/5,36/0
    004440  aa   000000 000002
    004441  aa   000000 000000
    004442  aa   000000 002751
    004443  aa   000000 000000
    004444  aa   163040 040040     496  l_139:		vfd a36/s   ,36/i_r,36/r_sentence,36/(succ-l_org)/5,36/0
    004445  aa   000000 000000
    004446  aa   000000 000240
    004447  aa   000000 002750
    004450  aa   000000 000000
    004451  aa   040040 040040     497  		vfd a36/    ,36/i_n,36/0,36/(r_2-l_org)/5,36/0
    004452  aa   000000 000002
    004453  aa   000000 000000
    004454  aa   000000 002701
    004455  aa   000000 000000
    004456  aa   163040 040040     498  	initiate:	vfd a36/s   ,36/i_r,36/r_initiate,36/(l_140-l_org)/5,36/0
    004457  aa   000000 000000
    004460  aa   000000 000020
    004461  aa   000000 000727
    004462  aa   000000 000000
    004463  aa   163040 040040     499  l_140:		vfd a36/s   ,36/i_r,36/r_all,36/(verb1-l_org)/5,36/0
    004464  aa   000000 000000
    004465  aa   000000 000111
    004466  aa   000000 002362
    004467  aa   000000 000000
    004470  aa   163040 040040     500  		vfd a36/s   ,36/i_c,36/c_repnm,36/(l_141-l_org)/5,36/0
    004471  aa   000000 000001
    004472  aa   000000 000033
    004473  aa   000000 000732
    004474  aa   000000 000000
    004475  aa   040040 040040     501  		vfd a36/    ,36/i_n,36/0,36/(r_2-l_org)/5,36/0
    004476  aa   000000 000002
    004477  aa   000000 000000
    004500  aa   000000 002701
    004501  aa   000000 000000
    004502  aa   163040 040040     502  l_141:		vfd a36/s   ,36/i_c,36/c_repnm,36/(l_141-l_org)/5,36/0
    004503  aa   000000 000001
    004504  aa   000000 000033
    004505  aa   000000 000732
    004506  aa   000000 000000
    004507  aa   040040 040040     503  		vfd a36/    ,36/i_n,36/0,36/(verb1-l_org)/5,36/0
    004510  aa   000000 000002
    004511  aa   000000 000000
    004512  aa   000000 002362
    004513  aa   000000 000000
    004514  aa   163040 040040     504  	inspect:	vfd a36/s   ,36/i_r,36/r_inspect,36/(l_142-l_org)/5,36/0
    004515  aa   000000 000000
    004516  aa   000000 000021
    004517  aa   000000 000735
    004520  aa   000000 000000
    004521  aa   163040 040040     505  l_142:		vfd a36/s   ,36/i_s,36/(usagid-l_org)/5,36/(l_143-l_org)/5,36/0
    004522  aa   000000 000003
    004523  aa   000000 002662
    004524  aa   000000 000737
    004525  aa   000000 000000
    004526  aa   040040 040040     506  		vfd a36/    ,36/i_n,36/0,36/(r_2-l_org)/5,36/0
    004527  aa   000000 000002
    004530  aa   000000 000000
    004531  aa   000000 002701
    004532  aa   000000 000000
    004533  aa   163040 040040     507  l_143:		vfd a36/s   ,36/i_r,36/r_tallying,36/(l_144-l_org)/5,36/0
    004534  aa   000000 000000
    004535  aa   000000 000243
    004536  aa   000000 000742
    004537  aa   000000 000000
    004540  aa   163040 040040     508  		vfd a36/s   ,36/i_r,36/r_replacing,36/(ins7-l_org)/5,36/a_57
    004541  aa   000000 000000
    004542  aa   000000 000230
    004543  aa   000000 000772
    004544  aa   000000 000071
    004545  aa   040040 040040     509  		vfd a36/    ,36/i_n,36/0,36/(r_2-l_org)/5,36/0
    004546  aa   000000 000002
    004547  aa   000000 000000
    004550  aa   000000 002701
    004551  aa   000000 000000
    004552  aa   163040 040040     510  l_144:		vfd a36/s   ,36/i_s,36/(alel-l_org)/5,36/(l_145-l_org)/5,36/0
    004553  aa   000000 000003
    004554  aa   000000 002664
    004555  aa   000000 000744
    004556  aa   000000 000000
    004557  aa   040040 040040     511  		vfd a36/    ,36/i_n,36/0,36/(r_2-l_org)/5,36/0
    004560  aa   000000 000002
    004561  aa   000000 000000
    004562  aa   000000 002701
    004563  aa   000000 000000
    004564  aa   163040 040040     512  l_145:	ins1:	vfd a36/s   ,36/i_r,36/r_for,36/(l_146-l_org)/5,36/0
    004565  aa   000000 000000
    004566  aa   000000 000156
    004567  aa   000000 000746
    004570  aa   000000 000000
    004571  aa   040040 040040     513  		vfd a36/    ,36/i_n,36/0,36/(r_2-l_org)/5,36/0
    004572  aa   000000 000002
    004573  aa   000000 000000
    004574  aa   000000 002701
    004575  aa   000000 000000
    004576  aa   163040 040040     514  l_146:		vfd a36/s   ,36/i_r,36/r_all,36/(l_147-l_org)/5,36/0
    004577  aa   000000 000000
    004600  aa   000000 000111
    004601  aa   000000 000752
    004602  aa   000000 000000
    004603  aa   163040 040040     515  		vfd a36/s   ,36/i_r,36/r_leading,36/(l_147-l_org)/5,36/0
    004604  aa   000000 000000
    004605  aa   000000 000172
    004606  aa   000000 000752
    004607  aa   000000 000000
    004610  aa   163040 040040     516  		vfd a36/s   ,36/i_r,36/r_characters,36/(ins3-l_org)/5,36/0
    004611  aa   000000 000000
    004612  aa   000000 000123
    004613  aa   000000 000754
    004614  aa   000000 000000
    004615  aa   040040 040040     517  		vfd a36/    ,36/i_n,36/0,36/(r_2-l_org)/5,36/0
    004616  aa   000000 000002
    004617  aa   000000 000000
    004620  aa   000000 002701
    004621  aa   000000 000000
    004622  aa   163040 040040     518  l_147:	ins2:	vfd a36/s   ,36/i_s,36/(elusid-l_org)/5,36/(l_148-l_org)/5,36/0
    004623  aa   000000 000003
    004624  aa   000000 002654
    004625  aa   000000 000754
    004626  aa   000000 000000
    004627  aa   040040 040040     519  		vfd a36/    ,36/i_n,36/0,36/(r_2-l_org)/5,36/0
    004630  aa   000000 000002
    004631  aa   000000 000000
    004632  aa   000000 002701
    004633  aa   000000 000000
    004634  aa   163040 040040     520  l_148:	ins3:	vfd a36/s   ,36/i_r,36/r_before,36/(l_149-l_org)/5,36/0
    004635  aa   000000 000000
    004636  aa   000000 000120
    004637  aa   000000 000757
    004640  aa   000000 000000
    004641  aa   163040 040040     521  		vfd a36/s   ,36/i_r,36/r_after,36/(l_149-l_org)/5,36/0
    004642  aa   000000 000000
    004643  aa   000000 000110
    004644  aa   000000 000757
    004645  aa   000000 000000
    004646  aa   040040 040040     522  		vfd a36/    ,36/i_n,36/0,36/(ins4-l_org)/5,36/0
    004647  aa   000000 000002
    004650  aa   000000 000000
    004651  aa   000000 000762
    004652  aa   000000 000000
    004653  aa   163040 040040     523  l_149:		vfd a36/s   ,36/i_r,36/r_initial,36/(l_150-l_org)/5,36/0
    004654  aa   000000 000000
    004655  aa   000000 000162
    004656  aa   000000 000760
    004657  aa   000000 000000
    004660  aa   163040 040040     524  l_150:		vfd a36/s   ,36/i_s,36/(elusid-l_org)/5,36/(l_151-l_org)/5,36/0
    004661  aa   000000 000003
    004662  aa   000000 002654
    004663  aa   000000 000762
    004664  aa   000000 000000
    004665  aa   040040 040040     525  		vfd a36/    ,36/i_n,36/0,36/(r_2-l_org)/5,36/0
    004666  aa   000000 000002
    004667  aa   000000 000000
    004670  aa   000000 002701
    004671  aa   000000 000000
    004672  aa   040040 040040     526  l_151:	ins4:	vfd a36/    ,36/i_c,36/c_edalit,36/(l_152-l_org)/5,36/0
    004673  aa   000000 000001
    004674  aa   000000 000164
    004675  aa   000000 000770
    004676  aa   000000 000000
    004677  aa   163040 040040     527  		vfd a36/s   ,36/i_r,36/r_all,36/(ins2-l_org)/5,36/0
    004700  aa   000000 000000
    004701  aa   000000 000111
    004702  aa   000000 000752
    004703  aa   000000 000000
    004704  aa   163040 040040     528  		vfd a36/s   ,36/i_r,36/r_leading,36/(ins2-l_org)/5,36/0
    004705  aa   000000 000000
    004706  aa   000000 000172
    004707  aa   000000 000752
    004710  aa   000000 000000
    004711  aa   163040 040040     529  		vfd a36/s   ,36/i_r,36/r_characters,36/(ins3-l_org)/5,36/0
    004712  aa   000000 000000
    004713  aa   000000 000123
    004714  aa   000000 000754
    004715  aa   000000 000000
    004716  aa   163040 040040     530  		vfd a36/s   ,36/i_r,36/r_replacing,36/(ins7-l_org)/5,36/0
    004717  aa   000000 000000
    004720  aa   000000 000230
    004721  aa   000000 000772
    004722  aa   000000 000000
    004723  aa   040040 040040     531  		vfd a36/    ,36/i_n,36/0,36/(verb1-l_org)/5,36/0
    004724  aa   000000 000002
    004725  aa   000000 000000
    004726  aa   000000 002362
    004727  aa   000000 000000
    004730  aa   163040 040040     532  l_152:		vfd a36/s   ,36/i_s,36/(alel-l_org)/5,36/(ins1-l_org)/5,36/0
    004731  aa   000000 000003
    004732  aa   000000 002664
    004733  aa   000000 000744
    004734  aa   000000 000000
    004735  aa   040040 040040     533  		vfd a36/    ,36/i_n,36/0,36/(r_2-l_org)/5,36/0
    004736  aa   000000 000002
    004737  aa   000000 000000
    004740  aa   000000 002701
    004741  aa   000000 000000
    004742  aa   163040 040040     534  	ins7:	vfd a36/s   ,36/i_r,36/r_all,36/(l_153-l_org)/5,36/0
    004743  aa   000000 000000
    004744  aa   000000 000111
    004745  aa   000000 000777
    004746  aa   000000 000000
    004747  aa   163040 040040     535  		vfd a36/s   ,36/i_r,36/r_leading,36/(l_153-l_org)/5,36/0
    004750  aa   000000 000000
    004751  aa   000000 000172
    004752  aa   000000 000777
    004753  aa   000000 000000
    004754  aa   163040 040040     536  		vfd a36/s   ,36/i_r,36/r_first,36/(l_153-l_org)/5,36/0
    004755  aa   000000 000000
    004756  aa   000000 000155
    004757  aa   000000 000777
    004760  aa   000000 000000
    004761  aa   163040 040040     537  		vfd a36/s   ,36/i_r,36/r_characters,36/(ins9-l_org)/5,36/0
    004762  aa   000000 000000
    004763  aa   000000 000123
    004764  aa   000000 001013
    004765  aa   000000 000000
    004766  aa   040040 040040     538  		vfd a36/    ,36/i_n,36/0,36/(r_2-l_org)/5,36/0
    004767  aa   000000 000002
    004770  aa   000000 000000
    004771  aa   000000 002701
    004772  aa   000000 000000
    004773  aa   163040 040040     539  l_153:	ins8:	vfd a36/s   ,36/i_s,36/(elusid-l_org)/5,36/(l_154-l_org)/5,36/0
    004774  aa   000000 000003
    004775  aa   000000 002654
    004776  aa   000000 001001
    004777  aa   000000 000000
    005000  aa   040040 040040     540  		vfd a36/    ,36/i_n,36/0,36/(r_2-l_org)/5,36/0
    005001  aa   000000 000002
    005002  aa   000000 000000
    005003  aa   000000 002701
    005004  aa   000000 000000
    005005  aa   163040 040040     541  l_154:	ins14:	vfd a36/s   ,36/i_r,36/r_by,36/(l_155-l_org)/5,36/0
    005006  aa   000000 000000
    005007  aa   000000 000122
    005010  aa   000000 001003
    005011  aa   000000 000000
    005012  aa   040040 040040     542  		vfd a36/    ,36/i_n,36/0,36/(r_2-l_org)/5,36/0
    005013  aa   000000 000002
    005014  aa   000000 000000
    005015  aa   000000 002701
    005016  aa   000000 000000
    005017  aa   163040 040040     543  l_155:		vfd a36/s   ,36/i_s,36/(elusid-l_org)/5,36/(l_156-l_org)/5,36/0
    005020  aa   000000 000003
    005021  aa   000000 002654
    005022  aa   000000 001005
    005023  aa   000000 000000
    005024  aa   040040 040040     544  		vfd a36/    ,36/i_n,36/0,36/(r_2-l_org)/5,36/0
    005025  aa   000000 000002
    005026  aa   000000 000000
    005027  aa   000000 002701
    005030  aa   000000 000000
    005031  aa   163040 040040     545  l_156:		vfd a36/s   ,36/i_r,36/r_before,36/(l_157-l_org)/5,36/0
    005032  aa   000000 000000
    005033  aa   000000 000120
    005034  aa   000000 001010
    005035  aa   000000 000000
    005036  aa   163040 040040     546  		vfd a36/s   ,36/i_r,36/r_after,36/(l_157-l_org)/5,36/0
    005037  aa   000000 000000
    005040  aa   000000 000110
    005041  aa   000000 001010
    005042  aa   000000 000000
    005043  aa   040040 040040     547  		vfd a36/    ,36/i_n,36/0,36/(ins10-l_org)/5,36/0
    005044  aa   000000 000002
    005045  aa   000000 000000
    005046  aa   000000 001025
    005047  aa   000000 000000
    005050  aa   163040 040040     548  l_157:		vfd a36/s   ,36/i_r,36/r_initial,36/(l_158-l_org)/5,36/0
    005051  aa   000000 000000
    005052  aa   000000 000162
    005053  aa   000000 001011
    005054  aa   000000 000000
    005055  aa   163040 040040     549  l_158:		vfd a36/s   ,36/i_s,36/(elusid-l_org)/5,36/(ins10-l_org)/5,36/0
    005056  aa   000000 000003
    005057  aa   000000 002654
    005060  aa   000000 001025
    005061  aa   000000 000000
    005062  aa   040040 040040     550  		vfd a36/    ,36/i_n,36/0,36/(r_2-l_org)/5,36/0
    005063  aa   000000 000002
    005064  aa   000000 000000
    005065  aa   000000 002701
    005066  aa   000000 000000
    005067  aa   163040 040040     551  	ins9:	vfd a36/s   ,36/i_r,36/r_by,36/(l_159-l_org)/5,36/0
    005070  aa   000000 000000
    005071  aa   000000 000122
    005072  aa   000000 001015
    005073  aa   000000 000000
    005074  aa   040040 040040     552  		vfd a36/    ,36/i_n,36/0,36/(r_2-l_org)/5,36/0
    005075  aa   000000 000002
    005076  aa   000000 000000
    005077  aa   000000 002701
    005100  aa   000000 000000
    005101  aa   163040 040040     553  l_159:		vfd a36/s   ,36/i_s,36/(elusid-l_org)/5,36/(l_160-l_org)/5,36/0
    005102  aa   000000 000003
    005103  aa   000000 002654
    005104  aa   000000 001017
    005105  aa   000000 000000
    005106  aa   040040 040040     554  		vfd a36/    ,36/i_n,36/0,36/(r_2-l_org)/5,36/0
    005107  aa   000000 000002
    005110  aa   000000 000000
    005111  aa   000000 002701
    005112  aa   000000 000000
    005113  aa   163040 040040     555  l_160:		vfd a36/s   ,36/i_r,36/r_before,36/(l_161-l_org)/5,36/0
    005114  aa   000000 000000
    005115  aa   000000 000120
    005116  aa   000000 001022
    005117  aa   000000 000000
    005120  aa   163040 040040     556  		vfd a36/s   ,36/i_r,36/r_after,36/(l_161-l_org)/5,36/0
    005121  aa   000000 000000
    005122  aa   000000 000110
    005123  aa   000000 001022
    005124  aa   000000 000000
    005125  aa   040040 040040     557  		vfd a36/    ,36/i_n,36/0,36/(verb1-l_org)/5,36/0
    005126  aa   000000 000002
    005127  aa   000000 000000
    005130  aa   000000 002362
    005131  aa   000000 000000
    005132  aa   163040 040040     558  l_161:		vfd a36/s   ,36/i_r,36/r_initial,36/(l_162-l_org)/5,36/0
    005133  aa   000000 000000
    005134  aa   000000 000162
    005135  aa   000000 001023
    005136  aa   000000 000000
    005137  aa   163040 040040     559  l_162:		vfd a36/s   ,36/i_s,36/(elusid-l_org)/5,36/(verb1-l_org)/5,36/0
    005140  aa   000000 000003
    005141  aa   000000 002654
    005142  aa   000000 002362
    005143  aa   000000 000000
    005144  aa   040040 040040     560  		vfd a36/    ,36/i_n,36/0,36/(r_2-l_org)/5,36/0
    005145  aa   000000 000002
    005146  aa   000000 000000
    005147  aa   000000 002701
    005150  aa   000000 000000
    005151  aa   163040 040040     561  	ins10:	vfd a36/s   ,36/i_r,36/r_all,36/(ins8-l_org)/5,36/0
    005152  aa   000000 000000
    005153  aa   000000 000111
    005154  aa   000000 000777
    005155  aa   000000 000000
    005156  aa   163040 040040     562  		vfd a36/s   ,36/i_r,36/r_leading,36/(ins8-l_org)/5,36/0
    005157  aa   000000 000000
    005160  aa   000000 000172
    005161  aa   000000 000777
    005162  aa   000000 000000
    005163  aa   163040 040040     563  		vfd a36/s   ,36/i_r,36/r_first,36/(ins8-l_org)/5,36/0
    005164  aa   000000 000000
    005165  aa   000000 000155
    005166  aa   000000 000777
    005167  aa   000000 000000
    005170  aa   163040 040040     564  		vfd a36/s   ,36/i_s,36/(elusid-l_org)/5,36/(ins14-l_org)/5,36/0
    005171  aa   000000 000003
    005172  aa   000000 002654
    005173  aa   000000 001001
    005174  aa   000000 000000
    005175  aa   040040 040040     565  		vfd a36/    ,36/i_n,36/0,36/(verb1-l_org)/5,36/0
    005176  aa   000000 000002
    005177  aa   000000 000000
    005200  aa   000000 002362
    005201  aa   000000 000000
    005202  aa   163040 040040     566  	merge:	vfd a36/s   ,36/i_r,36/r_merge,36/(l_163-l_org)/5,36/a_109
    005203  aa   000000 000000
    005204  aa   000000 000017
    005205  aa   000000 001033
    005206  aa   000000 000155
    005207  aa   163040 040040     567  l_163:		vfd a36/s   ,36/i_c,36/c_srtfil,36/(l_164-l_org)/5,36/a_60
    005210  aa   000000 000001
    005211  aa   000000 000074
    005212  aa   000000 001035
    005213  aa   000000 000074
    005214  aa   040040 040040     568  		vfd a36/    ,36/i_n,36/0,36/(r_2-l_org)/5,36/0
    005215  aa   000000 000002
    005216  aa   000000 000000
    005217  aa   000000 002701
    005220  aa   000000 000000
    005221  aa   163040 040040     569  l_164:		vfd a36/s   ,36/i_r,36/r_on,36/(l_165-l_org)/5,36/0
    005222  aa   000000 000000
    005223  aa   000000 000206
    005224  aa   000000 001036
    005225  aa   000000 000000
    005226  aa   163040 040040     570  l_165:	merge_8:	vfd a36/s   ,36/i_r,36/r_ascending,36/(l_166-l_org)/5,36/0
    005227  aa   000000 000000
    005230  aa   000000 000116
    005231  aa   000000 001041
    005232  aa   000000 000000
    005233  aa   163040 040040     571  		vfd a36/s   ,36/i_r,36/r_descending,36/(l_166-l_org)/5,36/0
    005234  aa   000000 000000
    005235  aa   000000 000135
    005236  aa   000000 001041
    005237  aa   000000 000000
    005240  aa   040040 040040     572  		vfd a36/    ,36/i_n,36/0,36/(r_2-l_org)/5,36/0
    005241  aa   000000 000002
    005242  aa   000000 000000
    005243  aa   000000 002701
    005244  aa   000000 000000
    005245  aa   163040 040040     573  l_166:	merge_1:	vfd a36/s   ,36/i_r,36/r_key,36/(l_167-l_org)/5,36/0
    005246  aa   000000 000000
    005247  aa   000000 000170
    005250  aa   000000 001042
    005251  aa   000000 000000
    005252  aa   163040 040040     574  l_167:		vfd a36/s   ,36/i_c,36/c_dninfl,36/(l_168-l_org)/5,36/0
    005253  aa   000000 000001
    005254  aa   000000 000075
    005255  aa   000000 001044
    005256  aa   000000 000000
    005257  aa   040040 040040     575  		vfd a36/    ,36/i_n,36/0,36/(r_2-l_org)/5,36/0
    005260  aa   000000 000002
    005261  aa   000000 000000
    005262  aa   000000 002701
    005263  aa   000000 000000
    005264  aa   163040 040040     576  l_168:	merge_4:	vfd a36/s   ,36/i_c,36/c_dninfl,36/(merge_4-l_org)/5,36/0
    005265  aa   000000 000001
    005266  aa   000000 000075
    005267  aa   000000 001044
    005270  aa   000000 000000
    005271  aa   163040 040040     577  		vfd a36/s   ,36/i_r,36/r_on,36/(merge_8-l_org)/5,36/0
    005272  aa   000000 000000
    005273  aa   000000 000206
    005274  aa   000000 001036
    005275  aa   000000 000000
    005276  aa   163040 040040     578  		vfd a36/s   ,36/i_r,36/r_ascending,36/(merge_1-l_org)/5,36/0
    005277  aa   000000 000000
    005300  aa   000000 000116
    005301  aa   000000 001041
    005302  aa   000000 000000
    005303  aa   163040 040040     579  		vfd a36/s   ,36/i_r,36/r_descending,36/(merge_1-l_org)/5,36/0
    005304  aa   000000 000000
    005305  aa   000000 000135
    005306  aa   000000 001041
    005307  aa   000000 000000
    005310  aa   163040 040040     580  		vfd a36/s   ,36/i_r,36/r_collating,36/(mcs_1-l_org)/5,36/0
    005311  aa   000000 000000
    005312  aa   000000 001003
    005313  aa   000000 001077
    005314  aa   000000 000000
    005315  aa   163040 040040     581  		vfd a36/s   ,36/i_r,36/r_sequence,36/(mcs_3-l_org)/5,36/0
    005316  aa   000000 000000
    005317  aa   000000 001113
    005320  aa   000000 001100
    005321  aa   000000 000000
    005322  aa   163040 040040     582  	muse:	vfd a36/s   ,36/i_r,36/r_using,36/(l_169-l_org)/5,36/0
    005323  aa   000000 000000
    005324  aa   000000 000260
    005325  aa   000000 001054
    005326  aa   000000 000000
    005327  aa   040040 040040     583  		vfd a36/    ,36/i_n,36/0,36/(r_2-l_org)/5,36/0
    005330  aa   000000 000002
    005331  aa   000000 000000
    005332  aa   000000 002701
    005333  aa   000000 000000
    005334  aa   163040 040040     584  l_169:		vfd a36/s   ,36/i_c,36/c_filenm,36/(l_170-l_org)/5,36/a_60
    005335  aa   000000 000001
    005336  aa   000000 000005
    005337  aa   000000 001056
    005340  aa   000000 000074
    005341  aa   040040 040040     585  		vfd a36/    ,36/i_n,36/0,36/(r_2-l_org)/5,36/0
    005342  aa   000000 000002
    005343  aa   000000 000000
    005344  aa   000000 002701
    005345  aa   000000 000000
    005346  aa   163040 040040     586  l_170:	merge_3:	vfd a36/s   ,36/i_n,36/0,36/(l_171-l_org)/5,36/0
    005347  aa   000000 000002
    005350  aa   000000 000000
    005351  aa   000000 001057
    005352  aa   000000 000000
    005353  aa   163040 040040     587  l_171:		vfd a36/s   ,36/i_c,36/c_filenm,36/(merge_3-l_org)/5,36/a_60
    005354  aa   000000 000001
    005355  aa   000000 000005
    005356  aa   000000 001056
    005357  aa   000000 000074
    005360  aa   163040 040040     588  		vfd a36/s   ,36/i_r,36/r_output,36/(l_172-l_org)/5,36/0
    005361  aa   000000 000000
    005362  aa   000000 000211
    005363  aa   000000 001063
    005364  aa   000000 000000
    005365  aa   163040 040040     589  		vfd a36/s   ,36/i_r,36/r_giving,36/(merge_2-l_org)/5,36/0
    005366  aa   000000 000000
    005367  aa   000000 000160
    005370  aa   000000 001074
    005371  aa   000000 000000
    005372  aa   040040 040040     590  		vfd a36/    ,36/i_n,36/0,36/(r_2-l_org)/5,36/0
    005373  aa   000000 000002
    005374  aa   000000 000000
    005375  aa   000000 002701
    005376  aa   000000 000000
    005377  aa   163040 040040     591  l_172:	merge_7:	vfd a36/s   ,36/i_r,36/r_procedure,36/(l_173-l_org)/5,36/0
    005400  aa   000000 000000
    005401  aa   000000 000216
    005402  aa   000000 001065
    005403  aa   000000 000000
    005404  aa   040040 040040     592  		vfd a36/    ,36/i_n,36/0,36/(r_2-l_org)/5,36/0
    005405  aa   000000 000002
    005406  aa   000000 000000
    005407  aa   000000 002701
    005410  aa   000000 000000
    005411  aa   163040 040040     593  l_173:		vfd a36/s   ,36/i_r,36/r_is,36/(l_174-l_org)/5,36/0
    005412  aa   000000 000000
    005413  aa   000000 000166
    005414  aa   000000 001066
    005415  aa   000000 000000
    005416  aa   163040 040040     594  l_174:		vfd a36/s   ,36/i_c,36/c_prnm,36/(l_175-l_org)/5,36/a_110
    005417  aa   000000 000001
    005420  aa   000000 000016
    005421  aa   000000 001070
    005422  aa   000000 000156
    005423  aa   040040 040040     595  		vfd a36/    ,36/i_n,36/0,36/(r_2-l_org)/5,36/0
    005424  aa   000000 000002
    005425  aa   000000 000000
    005426  aa   000000 002701
    005427  aa   000000 000000
    005430  aa   163040 040040     596  l_175:		vfd a36/s   ,36/i_r,36/r_thru,36/(l_176-l_org)/5,36/0
    005431  aa   000000 000000
    005432  aa   000000 000246
    005433  aa   000000 001072
    005434  aa   000000 000000
    005435  aa   040040 040040     597  		vfd a36/    ,36/i_n,36/0,36/(verb1-l_org)/5,36/0
    005436  aa   000000 000002
    005437  aa   000000 000000
    005440  aa   000000 002362
    005441  aa   000000 000000
    005442  aa   163040 040040     598  l_176:		vfd a36/s   ,36/i_c,36/c_prnm,36/(verb1-l_org)/5,36/0
    005443  aa   000000 000001
    005444  aa   000000 000016
    005445  aa   000000 002362
    005446  aa   000000 000000
    005447  aa   040040 040040     599  		vfd a36/    ,36/i_n,36/0,36/(r_2-l_org)/5,36/0
    005450  aa   000000 000002
    005451  aa   000000 000000
    005452  aa   000000 002701
    005453  aa   000000 000000
    005454  aa   163040 040040     600  	merge_2:	vfd a36/s   ,36/i_c,36/c_filenm,36/(l_177-l_org)/5,36/a_60
    005455  aa   000000 000001
    005456  aa   000000 000005
    005457  aa   000000 001076
    005460  aa   000000 000074
    005461  aa   040040 040040     601  		vfd a36/    ,36/i_n,36/0,36/(r_2-l_org)/5,36/0
    005462  aa   000000 000002
    005463  aa   000000 000000
    005464  aa   000000 002701
    005465  aa   000000 000000
    005466  aa   163040 040040     602  l_177:		vfd a36/s   ,36/i_n,36/0,36/(verb1-l_org)/5,36/0
    005467  aa   000000 000002
    005470  aa   000000 000000
    005471  aa   000000 002362
    005472  aa   000000 000000
    005473  aa   163040 040040     603  	mcs_1:	vfd a36/s   ,36/i_r,36/r_sequence,36/(l_178-l_org)/5,36/0
    005474  aa   000000 000000
    005475  aa   000000 001113
    005476  aa   000000 001100
    005477  aa   000000 000000
    005500  aa   163040 040040     604  l_178:	mcs_3:	vfd a36/s   ,36/i_r,36/r_is,36/(l_179-l_org)/5,36/0
    005501  aa   000000 000000
    005502  aa   000000 000166
    005503  aa   000000 001101
    005504  aa   000000 000000
    005505  aa   163040 040040     605  l_179:	mcs_2:	vfd a36/s   ,36/i_c,36/c_alphnm,36/(muse-l_org)/5,36/0
    005506  aa   000000 000001
    005507  aa   000000 000303
    005510  aa   000000 001052
    005511  aa   000000 000000
    005512  aa   040040 040040     606  		vfd a36/    ,36/i_n,36/0,36/(r_2-l_org)/5,36/0
    005513  aa   000000 000002
    005514  aa   000000 000000
    005515  aa   000000 002701
    005516  aa   000000 000000
    005517  aa   163040 040040     607  	move:	vfd a36/s   ,36/i_r,36/r_move,36/(l_180-l_org)/5,36/0
    005520  aa   000000 000000
    005521  aa   000000 000022
    005522  aa   000000 001104
    005523  aa   000000 000000
    005524  aa   163040 040040     608  l_180:		vfd a36/s   ,36/i_c,36/c_lit,36/(mov1-l_org)/5,36/0
    005525  aa   000000 000001
    005526  aa   000000 000025
    005527  aa   000000 001115
    005530  aa   000000 000000
    005531  aa   163040 040040     609  		vfd a36/s   ,36/i_c,36/c_figconall,36/(mov1-l_org)/5,36/0
    005532  aa   000000 000001
    005533  aa   000000 000026
    005534  aa   000000 001115
    005535  aa   000000 000000
    005536  aa   163040 040040     610  		vfd a36/s   ,36/i_s,36/(sid-l_org)/5,36/(mov1-l_org)/5,36/0
    005537  aa   000000 000003
    005540  aa   000000 002347
    005541  aa   000000 001115
    005542  aa   000000 000000
    005543  aa   163040 040040     611  		vfd a36/s   ,36/i_c,36/c_xnm,36/(mov1-l_org)/5,36/0
    005544  aa   000000 000001
    005545  aa   000000 000041
    005546  aa   000000 001115
    005547  aa   000000 000000
    005550  aa   163040 040040     612  		vfd a36/s   ,36/i_r,36/r_all,36/(l_181-l_org)/5,36/0
    005551  aa   000000 000000
    005552  aa   000000 000111
    005553  aa   000000 001112
    005554  aa   000000 000000
    005555  aa   040040 040040     613  		vfd a36/    ,36/i_n,36/0,36/(r_2-l_org)/5,36/0
    005556  aa   000000 000002
    005557  aa   000000 000000
    005560  aa   000000 002701
    005561  aa   000000 000000
    005562  aa   163040 040040     614  l_181:		vfd a36/s   ,36/i_c,36/c_lit,36/(l_182-l_org)/5,36/0
    005563  aa   000000 000001
    005564  aa   000000 000025
    005565  aa   000000 001115
    005566  aa   000000 000000
    005567  aa   163040 040040     615  		vfd a36/s   ,36/i_c,36/c_figconall,36/(l_182-l_org)/5,36/0
    005570  aa   000000 000001
    005571  aa   000000 000026
    005572  aa   000000 001115
    005573  aa   000000 000000
    005574  aa   040040 040040     616  		vfd a36/    ,36/i_n,36/0,36/(r_2-l_org)/5,36/0
    005575  aa   000000 000002
    005576  aa   000000 000000
    005577  aa   000000 002701
    005600  aa   000000 000000
    005601  aa   163040 040040     617  l_182:	mov1:	vfd a36/s   ,36/i_r,36/r_to,36/(l_183-l_org)/5,36/0
    005602  aa   000000 000000
    005603  aa   000000 000252
    005604  aa   000000 001117
    005605  aa   000000 000000
    005606  aa   040040 040040     618  		vfd a36/    ,36/i_n,36/0,36/(r_2-l_org)/5,36/0
    005607  aa   000000 000002
    005610  aa   000000 000000
    005611  aa   000000 002701
    005612  aa   000000 000000
    005613  aa   163040 040040     619  l_183:		vfd a36/s   ,36/i_s,36/(rid-l_org)/5,36/(l_183-l_org)/5,36/0
    005614  aa   000000 000003
    005615  aa   000000 002353
    005616  aa   000000 001117
    005617  aa   000000 000000
    005620  aa   163040 040040     620  		vfd a36/s   ,36/i_c,36/c_xnm,36/(l_183-l_org)/5,36/0
    005621  aa   000000 000001
    005622  aa   000000 000041
    005623  aa   000000 001117
    005624  aa   000000 000000
    005625  aa   040040 040040     621  		vfd a36/    ,36/i_n,36/0,36/(verb1-l_org)/5,36/0
    005626  aa   000000 000002
    005627  aa   000000 000000
    005630  aa   000000 002362
    005631  aa   000000 000000
    005632  aa   163040 040040     622  	multiply:	vfd a36/s   ,36/i_r,36/r_multiply,36/(l_184-l_org)/5,36/a_13
    005633  aa   000000 000000
    005634  aa   000000 000012
    005635  aa   000000 001123
    005636  aa   000000 000015
    005637  aa   163040 040040     623  l_184:		vfd a36/s   ,36/i_s,36/(elnuitem-l_org)/5,36/(l_185-l_org)/5,36/0
    005640  aa   000000 000003
    005641  aa   000000 002642
    005642  aa   000000 001125
    005643  aa   000000 000000
    005644  aa   040040 040040     624  		vfd a36/    ,36/i_n,36/0,36/(r_2-l_org)/5,36/0
    005645  aa   000000 000002
    005646  aa   000000 000000
    005647  aa   000000 002701
    005650  aa   000000 000000
    005651  aa   163040 040040     625  l_185:		vfd a36/s   ,36/i_r,36/r_by,36/(l_186-l_org)/5,36/0
    005652  aa   000000 000000
    005653  aa   000000 000122
    005654  aa   000000 001127
    005655  aa   000000 000000
    005656  aa   040040 040040     626  		vfd a36/    ,36/i_n,36/0,36/(r_2-l_org)/5,36/0
    005657  aa   000000 000002
    005660  aa   000000 000000
    005661  aa   000000 002701
    005662  aa   000000 000000
    005663  aa   040040 040040     627  l_186:		vfd a36/    ,36/i_c,36/c_nlit,36/(mul6-l_org)/5,36/0
    005664  aa   000000 000001
    005665  aa   000000 000320
    005666  aa   000000 001156
    005667  aa   000000 000000
    005670  aa   040040 040040     628  		vfd a36/    ,36/i_r,36/r_all,36/(mul6-l_org)/5,36/0
    005671  aa   000000 000000
    005672  aa   000000 000111
    005673  aa   000000 001156
    005674  aa   000000 000000
    005675  aa   040040 040040     629  		vfd a36/    ,36/i_r,36/r_zero,36/(mul6-l_org)/5,36/0
    005676  aa   000000 000000
    005677  aa   000000 000264
    005700  aa   000000 001156
    005701  aa   000000 000000
    005702  aa   163040 040040     630  		vfd a36/s   ,36/i_s,36/(alel-l_org)/5,36/(l_187-l_org)/5,36/0
    005703  aa   000000 000003
    005704  aa   000000 002664
    005705  aa   000000 001134
    005706  aa   000000 000000
    005707  aa   040040 040040     631  		vfd a36/    ,36/i_n,36/0,36/(r_2-l_org)/5,36/0
    005710  aa   000000 000002
    005711  aa   000000 000000
    005712  aa   000000 002701
    005713  aa   000000 000000
    005714  aa   163040 040040     632  l_187:		vfd a36/s   ,36/i_r,36/r_giving,36/(mul4-l_org)/5,36/a_57
    005715  aa   000000 000000
    005716  aa   000000 000160
    005717  aa   000000 001146
    005720  aa   000000 000071
    005721  aa   163040 040040     633  	mul1:	vfd a36/s   ,36/i_r,36/r_rounded,36/(l_188-l_org)/5,36/0
    005722  aa   000000 000000
    005723  aa   000000 000234
    005724  aa   000000 001136
    005725  aa   000000 000000
    005726  aa   163040 040040     634  l_188:	mul2:	vfd a36/s   ,36/i_s,36/(alel-l_org)/5,36/(mul1-l_org)/5,36/0
    005727  aa   000000 000003
    005730  aa   000000 002664
    005731  aa   000000 001135
    005732  aa   000000 000000
    005733  aa   163040 040040     635  	mul3:	vfd a36/s   ,36/i_r,36/r_not,36/(l_189-l_org)/5,36/a_97
    005734  aa   000000 000000
    005735  aa   000000 000202
    005736  aa   000000 001143
    005737  aa   000000 000141
    005740  aa   163040 040040     636  		vfd a36/s   ,36/i_r,36/r_on,36/(o_se-l_org)/5,36/a_96
    005741  aa   000000 000000
    005742  aa   000000 000206
    005743  aa   000000 002421
    005744  aa   000000 000140
    005745  aa   163040 040040     637  		vfd a36/s   ,36/i_r,36/r_size,36/(o_se1-l_org)/5,36/a_96
    005746  aa   000000 000000
    005747  aa   000000 000241
    005750  aa   000000 002422
    005751  aa   000000 000140
    005752  aa   040040 040040     638  		vfd a36/    ,36/i_n,36/0,36/(cverb-l_org)/5,36/0
    005753  aa   000000 000002
    005754  aa   000000 000000
    005755  aa   000000 002361
    005756  aa   000000 000000
    005757  aa   163040 040040     639  l_189:	mul7:	vfd a36/s   ,36/i_r,36/r_on,36/(o_se-l_org)/5,36/0
    005760  aa   000000 000000
    005761  aa   000000 000206
    005762  aa   000000 002421
    005763  aa   000000 000000
    005764  aa   163040 040040     640  		vfd a36/s   ,36/i_r,36/r_size,36/(o_se1-l_org)/5,36/0
    005765  aa   000000 000000
    005766  aa   000000 000241
    005767  aa   000000 002422
    005770  aa   000000 000000
    005771  aa   040040 040040     641  		vfd a36/    ,36/i_n,36/0,36/(r_2-l_org)/5,36/0
    005772  aa   000000 000002
    005773  aa   000000 000000
    005774  aa   000000 002701
    005775  aa   000000 000000
    005776  aa   163040 040040     642  	mul4:	vfd a36/s   ,36/i_s,36/(alel-l_org)/5,36/(l_190-l_org)/5,36/0
    005777  aa   000000 000003
    006000  aa   000000 002664
    006001  aa   000000 001150
    006002  aa   000000 000000
    006003  aa   040040 040040     643  		vfd a36/    ,36/i_n,36/0,36/(r_2-l_org)/5,36/0
    006004  aa   000000 000002
    006005  aa   000000 000000
    006006  aa   000000 002701
    006007  aa   000000 000000
    006010  aa   163040 040040     644  l_190:	mul5:	vfd a36/s   ,36/i_r,36/r_rounded,36/(l_191-l_org)/5,36/0
    006011  aa   000000 000000
    006012  aa   000000 000234
    006013  aa   000000 001151
    006014  aa   000000 000000
    006015  aa   163040 040040     645  l_191:		vfd a36/s   ,36/i_s,36/(alel-l_org)/5,36/(mul5-l_org)/5,36/0
    006016  aa   000000 000003
    006017  aa   000000 002664
    006020  aa   000000 001150
    006021  aa   000000 000000
    006022  aa   163040 040040     646  		vfd a36/s   ,36/i_r,36/r_not,36/(mul7-l_org)/5,36/a_97
    006023  aa   000000 000000
    006024  aa   000000 000202
    006025  aa   000000 001143
    006026  aa   000000 000141
    006027  aa   163040 040040     647  		vfd a36/s   ,36/i_r,36/r_on,36/(o_se-l_org)/5,36/a_96
    006030  aa   000000 000000
    006031  aa   000000 000206
    006032  aa   000000 002421
    006033  aa   000000 000140
    006034  aa   163040 040040     648  		vfd a36/s   ,36/i_r,36/r_size,36/(o_se1-l_org)/5,36/a_96
    006035  aa   000000 000000
    006036  aa   000000 000241
    006037  aa   000000 002422
    006040  aa   000000 000140
    006041  aa   040040 040040     649  		vfd a36/    ,36/i_n,36/0,36/(cverb-l_org)/5,36/0
    006042  aa   000000 000002
    006043  aa   000000 000000
    006044  aa   000000 002361
    006045  aa   000000 000000
    006046  aa   163040 040040     650  	mul6:	vfd a36/s   ,36/i_s,36/(elnuitem-l_org)/5,36/(l_192-l_org)/5,36/0
    006047  aa   000000 000003
    006050  aa   000000 002642
    006051  aa   000000 001160
    006052  aa   000000 000000
    006053  aa   040040 040040     651  		vfd a36/    ,36/i_n,36/0,36/(r_2-l_org)/5,36/0
    006054  aa   000000 000002
    006055  aa   000000 000000
    006056  aa   000000 002701
    006057  aa   000000 000000
    006060  aa   163040 040040     652  l_192:		vfd a36/s   ,36/i_r,36/r_giving,36/(l_193-l_org)/5,36/0
    006061  aa   000000 000000
    006062  aa   000000 000160
    006063  aa   000000 001162
    006064  aa   000000 000000
    006065  aa   040040 040040     653  		vfd a36/    ,36/i_n,36/0,36/(r_2-l_org)/5,36/0
    006066  aa   000000 000002
    006067  aa   000000 000000
    006070  aa   000000 002701
    006071  aa   000000 000000
    006072  aa   163040 040040     654  l_193:		vfd a36/s   ,36/i_s,36/(alel-l_org)/5,36/(mul5-l_org)/5,36/0
    006073  aa   000000 000003
    006074  aa   000000 002664
    006075  aa   000000 001150
    006076  aa   000000 000000
    006077  aa   040040 040040     655  		vfd a36/    ,36/i_n,36/0,36/(r_2-l_org)/5,36/0
    006100  aa   000000 000002
    006101  aa   000000 000000
    006102  aa   000000 002701
    006103  aa   000000 000000
    006104  aa   163040 040040     656  	open:	vfd a36/s   ,36/i_r,36/r_open,36/(l_194-l_org)/5,36/0
    006105  aa   000000 000000
    006106  aa   000000 000023
    006107  aa   000000 001165
    006110  aa   000000 000000
    006111  aa   163040 040040     657  l_194:		vfd a36/s   ,36/i_r,36/r_input,36/(l_195-l_org)/5,36/0
    006112  aa   000000 000000
    006113  aa   000000 000163
    006114  aa   000000 001172
    006115  aa   000000 000000
    006116  aa   163040 040040     658  		vfd a36/s   ,36/i_r,36/r_output,36/(open_o-l_org)/5,36/0
    006117  aa   000000 000000
    006120  aa   000000 000211
    006121  aa   000000 001211
    006122  aa   000000 000000
    006123  aa   163040 040040     659  		vfd a36/s   ,36/i_r,36/r_i_o,36/(open_io-l_org)/5,36/0
    006124  aa   000000 000000
    006125  aa   000000 000167
    006126  aa   000000 001223
    006127  aa   000000 000000
    006130  aa   163040 040040     660  		vfd a36/s   ,36/i_r,36/r_extend,36/(open_io-l_org)/5,36/0
    006131  aa   000000 000000
    006132  aa   000000 000330
    006133  aa   000000 001223
    006134  aa   000000 000000
    006135  aa   040040 040040     661  		vfd a36/    ,36/i_n,36/0,36/(r_2-l_org)/5,36/0
    006136  aa   000000 000002
    006137  aa   000000 000000
    006140  aa   000000 002701
    006141  aa   000000 000000
    006142  aa   163040 040040     662  l_195:	open_i:	vfd a36/s   ,36/i_c,36/c_filenm,36/(l_196-l_org)/5,36/a_60
    006143  aa   000000 000001
    006144  aa   000000 000005
    006145  aa   000000 001174
    006146  aa   000000 000074
    006147  aa   040040 040040     663  		vfd a36/    ,36/i_n,36/0,36/(r_2-l_org)/5,36/0
    006150  aa   000000 000002
    006151  aa   000000 000000
    006152  aa   000000 002701
    006153  aa   000000 000000
    006154  aa   163040 040040     664  l_196:	open_i1:	vfd a36/s   ,36/i_r,36/r_reversed,36/(open_i2-l_org)/5,36/0
    006155  aa   000000 000000
    006156  aa   000000 000232
    006157  aa   000000 001177
    006160  aa   000000 000000
    006161  aa   163040 040040     665  		vfd a36/s   ,36/i_r,36/r_with,36/(open_i3-l_org)/5,36/0
    006162  aa   000000 000000
    006163  aa   000000 000263
    006164  aa   000000 001205
    006165  aa   000000 000000
    006166  aa   163040 040040     666  		vfd a36/s   ,36/i_r,36/r_no,36/(open_i4-l_org)/5,36/0
    006167  aa   000000 000000
    006170  aa   000000 000201
    006171  aa   000000 001207
    006172  aa   000000 000000
    006173  aa   163040 040040     667  	open_i2:	vfd a36/s   ,36/i_c,36/c_filenm,36/(open_i1-l_org)/5,36/a_60
    006174  aa   000000 000001
    006175  aa   000000 000005
    006176  aa   000000 001174
    006177  aa   000000 000074
    006200  aa   163040 040040     668  	open_1:	vfd a36/s   ,36/i_r,36/r_input,36/(open_i-l_org)/5,36/0
    006201  aa   000000 000000
    006202  aa   000000 000163
    006203  aa   000000 001172
    006204  aa   000000 000000
    006205  aa   163040 040040     669  		vfd a36/s   ,36/i_r,36/r_output,36/(open_o-l_org)/5,36/0
    006206  aa   000000 000000
    006207  aa   000000 000211
    006210  aa   000000 001211
    006211  aa   000000 000000
    006212  aa   163040 040040     670  		vfd a36/s   ,36/i_r,36/r_i_o,36/(open_io-l_org)/5,36/0
    006213  aa   000000 000000
    006214  aa   000000 000167
    006215  aa   000000 001223
    006216  aa   000000 000000
    006217  aa   163040 040040     671  		vfd a36/s   ,36/i_r,36/r_extend,36/(open_io-l_org)/5,36/0
    006220  aa   000000 000000
    006221  aa   000000 000330
    006222  aa   000000 001223
    006223  aa   000000 000000
    006224  aa   040040 040040     672  		vfd a36/    ,36/i_n,36/0,36/(verb1-l_org)/5,36/0
    006225  aa   000000 000002
    006226  aa   000000 000000
    006227  aa   000000 002362
    006230  aa   000000 000000
    006231  aa   163040 040040     673  	open_i3:	vfd a36/s   ,36/i_r,36/r_no,36/(l_197-l_org)/5,36/0
    006232  aa   000000 000000
    006233  aa   000000 000201
    006234  aa   000000 001207
    006235  aa   000000 000000
    006236  aa   040040 040040     674  		vfd a36/    ,36/i_n,36/0,36/(r_2-l_org)/5,36/0
    006237  aa   000000 000002
    006240  aa   000000 000000
    006241  aa   000000 002701
    006242  aa   000000 000000
    006243  aa   163040 040040     675  l_197:	open_i4:	vfd a36/s   ,36/i_r,36/r_rewind,36/(open_i2-l_org)/5,36/0
    006244  aa   000000 000000
    006245  aa   000000 000233
    006246  aa   000000 001177
    006247  aa   000000 000000
    006250  aa   040040 040040     676  		vfd a36/    ,36/i_n,36/0,36/(r_2-l_org)/5,36/0
    006251  aa   000000 000002
    006252  aa   000000 000000
    006253  aa   000000 002701
    006254  aa   000000 000000
    006255  aa   163040 040040     677  	open_o:	vfd a36/s   ,36/i_c,36/c_filenm,36/(l_198-l_org)/5,36/a_60
    006256  aa   000000 000001
    006257  aa   000000 000005
    006260  aa   000000 001213
    006261  aa   000000 000074
    006262  aa   040040 040040     678  		vfd a36/    ,36/i_n,36/0,36/(r_2-l_org)/5,36/0
    006263  aa   000000 000002
    006264  aa   000000 000000
    006265  aa   000000 002701
    006266  aa   000000 000000
    006267  aa   163040 040040     679  l_198:	open_o1:	vfd a36/s   ,36/i_r,36/r_with,36/(open_o3-l_org)/5,36/0
    006270  aa   000000 000000
    006271  aa   000000 000263
    006272  aa   000000 001217
    006273  aa   000000 000000
    006274  aa   163040 040040     680  		vfd a36/s   ,36/i_r,36/r_no,36/(open_o4-l_org)/5,36/0
    006275  aa   000000 000000
    006276  aa   000000 000201
    006277  aa   000000 001221
    006300  aa   000000 000000
    006301  aa   163040 040040     681  	open_o2:	vfd a36/s   ,36/i_c,36/c_filenm,36/(open_o1-l_org)/5,36/a_60
    006302  aa   000000 000001
    006303  aa   000000 000005
    006304  aa   000000 001213
    006305  aa   000000 000074
    006306  aa   040040 040040     682  		vfd a36/    ,36/i_n,36/0,36/(open_1-l_org)/5,36/0
    006307  aa   000000 000002
    006310  aa   000000 000000
    006311  aa   000000 001200
    006312  aa   000000 000000
    006313  aa   163040 040040     683  	open_o3:	vfd a36/s   ,36/i_r,36/r_no,36/(l_199-l_org)/5,36/0
    006314  aa   000000 000000
    006315  aa   000000 000201
    006316  aa   000000 001221
    006317  aa   000000 000000
    006320  aa   040040 040040     684  		vfd a36/    ,36/i_n,36/0,36/(r_2-l_org)/5,36/0
    006321  aa   000000 000002
    006322  aa   000000 000000
    006323  aa   000000 002701
    006324  aa   000000 000000
    006325  aa   163040 040040     685  l_199:	open_o4:	vfd a36/s   ,36/i_r,36/r_rewind,36/(open_o2-l_org)/5,36/0
    006326  aa   000000 000000
    006327  aa   000000 000233
    006330  aa   000000 001215
    006331  aa   000000 000000
    006332  aa   040040 040040     686  		vfd a36/    ,36/i_n,36/0,36/(r_2-l_org)/5,36/0
    006333  aa   000000 000002
    006334  aa   000000 000000
    006335  aa   000000 002701
    006336  aa   000000 000000
    006337  aa   163040 040040     687  	open_io:	vfd a36/s   ,36/i_c,36/c_filenm,36/(l_200-l_org)/5,36/a_60
    006340  aa   000000 000001
    006341  aa   000000 000005
    006342  aa   000000 001225
    006343  aa   000000 000074
    006344  aa   040040 040040     688  		vfd a36/    ,36/i_n,36/0,36/(r_2-l_org)/5,36/0
    006345  aa   000000 000002
    006346  aa   000000 000000
    006347  aa   000000 002701
    006350  aa   000000 000000
    006351  aa   163040 040040     689  l_200:		vfd a36/s   ,36/i_c,36/c_filenm,36/(l_200-l_org)/5,36/a_60
    006352  aa   000000 000001
    006353  aa   000000 000005
    006354  aa   000000 001225
    006355  aa   000000 000074
    006356  aa   040040 040040     690  		vfd a36/    ,36/i_n,36/0,36/(open_1-l_org)/5,36/0
    006357  aa   000000 000002
    006360  aa   000000 000000
    006361  aa   000000 001200
    006362  aa   000000 000000
    006363  aa   163040 040040     691  	perform:	vfd a36/s   ,36/i_r,36/r_perform,36/(l_201-l_org)/5,36/a_31
    006364  aa   000000 000000
    006365  aa   000000 000024
    006366  aa   000000 001230
    006367  aa   000000 000037
    006370  aa   163040 040040     692  l_201:		vfd a36/s   ,36/i_c,36/c_prnm,36/(l_202-l_org)/5,36/a_67
    006371  aa   000000 000001
    006372  aa   000000 000016
    006373  aa   000000 001232
    006374  aa   000000 000103
    006375  aa   040040 040040     693  		vfd a36/    ,36/i_n,36/0,36/(per1-l_org)/5,36/a_66
    006376  aa   000000 000002
    006377  aa   000000 000000
    006400  aa   000000 001236
    006401  aa   000000 000102
    006402  aa   163040 040040     694  l_202:		vfd a36/s   ,36/i_r,36/r_thru,36/(l_203-l_org)/5,36/0
    006403  aa   000000 000000
    006404  aa   000000 000246
    006405  aa   000000 001234
    006406  aa   000000 000000
    006407  aa   040040 040040     695  		vfd a36/    ,36/i_n,36/0,36/(per1-l_org)/5,36/0
    006410  aa   000000 000002
    006411  aa   000000 000000
    006412  aa   000000 001236
    006413  aa   000000 000000
    006414  aa   163040 040040     696  l_203:		vfd a36/s   ,36/i_c,36/c_prnm,36/(l_204-l_org)/5,36/a_84
    006415  aa   000000 000001
    006416  aa   000000 000016
    006417  aa   000000 001236
    006420  aa   000000 000124
    006421  aa   040040 040040     697  		vfd a36/    ,36/i_n,36/0,36/(r_2-l_org)/5,36/0
    006422  aa   000000 000002
    006423  aa   000000 000000
    006424  aa   000000 002701
    006425  aa   000000 000000
    006426  aa   040040 040040     698  l_204:	per1:	vfd a36/    ,36/i_c,36/c_elnuint,36/(per3-l_org)/5,36/0
    006427  aa   000000 000001
    006430  aa   000000 000166
    006431  aa   000000 001247
    006432  aa   000000 000000
    006433  aa   040040 040040     699  		vfd a36/    ,36/i_c,36/c_elnudnint,36/(per3-l_org)/5,36/0
    006434  aa   000000 000001
    006435  aa   000000 000167
    006436  aa   000000 001247
    006437  aa   000000 000000
    006440  aa   163040 040040     700  		vfd a36/s   ,36/i_r,36/r_until,36/(per4-l_org)/5,36/a_70
    006441  aa   000000 000000
    006442  aa   000000 000255
    006443  aa   000000 001253
    006444  aa   000000 000106
    006445  aa   163040 040040     701  		vfd a36/s   ,36/i_r,36/r_varying,36/(per5-l_org)/5,36/a_71
    006446  aa   000000 000000
    006447  aa   000000 000261
    006450  aa   000000 001255
    006451  aa   000000 000107
    006452  aa   040040 040040     702  		vfd a36/    ,36/i_n,36/0,36/(l_205-l_org)/5,36/a_68
    006453  aa   000000 000002
    006454  aa   000000 000000
    006455  aa   000000 001243
    006456  aa   000000 000104
    006457  aa   040040 040040     703  l_205:	per2:	vfd a36/    ,36/i_c,36/c_in_line,36/(cverb-l_org)/5,36/0
    006460  aa   000000 000001
    006461  aa   000000 000110
    006462  aa   000000 002361
    006463  aa   000000 000000
    006464  aa   040040 040040     704  l_206:		vfd a36/    ,36/i_s,36/(imp-l_org)/5,36/(l_207-l_org)/5,36/0
    006465  aa   000000 000003
    006466  aa   000000 002613
    006467  aa   000000 001245
    006470  aa   000000 000000
    006471  aa   163040 040040     705  l_207:		vfd a36/s   ,36/i_r,36/r_end_perform,36/(cverb-l_org)/5,36/a_74
    006472  aa   000000 000000
    006473  aa   000000 000732
    006474  aa   000000 002361
    006475  aa   000000 000112
    006476  aa   040040 040040     706  		vfd a36/    ,36/i_n,36/0,36/(r_2-l_org)/5,36/0
    006477  aa   000000 000002
    006500  aa   000000 000000
    006501  aa   000000 002701
    006502  aa   000000 000000
    006503  aa   040040 040040     707  	per3:	vfd a36/    ,36/i_n,36/0,36/(l_208-l_org)/5,36/a_69
    006504  aa   000000 000002
    006505  aa   000000 000000
    006506  aa   000000 001250
    006507  aa   000000 000105
    006510  aa   163040 040040     708  l_208:		vfd a36/s   ,36/i_s,36/(elnumint-l_org)/5,36/(l_209-l_org)/5,36/a_121
    006511  aa   000000 000003
    006512  aa   000000 002630
    006513  aa   000000 001251
    006514  aa   000000 000171
    006515  aa   163040 040040     709  l_209:		vfd a36/s   ,36/i_r,36/r_times,36/(per2-l_org)/5,36/0
    006516  aa   000000 000000
    006517  aa   000000 000250
    006520  aa   000000 001243
    006521  aa   000000 000000
    006522  aa   040040 040040     710  		vfd a36/    ,36/i_n,36/0,36/(r_2-l_org)/5,36/0
    006523  aa   000000 000002
    006524  aa   000000 000000
    006525  aa   000000 002701
    006526  aa   000000 000000
    006527  aa   040040 040040     711  	per4:	vfd a36/    ,36/i_s,36/(condition-l_org)/5,36/(per2-l_org)/5,36/a_85
    006530  aa   000000 000003
    006531  aa   000000 002756
    006532  aa   000000 001243
    006533  aa   000000 000125
    006534  aa   040040 040040     712  		vfd a36/    ,36/i_n,36/0,36/(r_2-l_org)/5,36/0
    006535  aa   000000 000002
    006536  aa   000000 000000
    006537  aa   000000 002701
    006540  aa   000000 000000
    006541  aa   040040 040040     713  	per5:	vfd a36/    ,36/i_s,36/(range-l_org)/5,36/(l_210-l_org)/5,36/0
    006542  aa   000000 000003
    006543  aa   000000 001263
    006544  aa   000000 001257
    006545  aa   000000 000000
    006546  aa   040040 040040     714  		vfd a36/    ,36/i_n,36/0,36/(r_2-l_org)/5,36/0
    006547  aa   000000 000002
    006550  aa   000000 000000
    006551  aa   000000 002701
    006552  aa   000000 000000
    006553  aa   163040 040040     715  l_210:	per6:	vfd a36/s   ,36/i_r,36/r_after,36/(l_211-l_org)/5,36/a_89
    006554  aa   000000 000000
    006555  aa   000000 000110
    006556  aa   000000 001261
    006557  aa   000000 000131
    006560  aa   040040 040040     716  		vfd a36/    ,36/i_n,36/0,36/(per2-l_org)/5,36/0
    006561  aa   000000 000002
    006562  aa   000000 000000
    006563  aa   000000 001243
    006564  aa   000000 000000
    006565  aa   040040 040040     717  l_211:		vfd a36/    ,36/i_s,36/(range-l_org)/5,36/(per6-l_org)/5,36/0
    006566  aa   000000 000003
    006567  aa   000000 001263
    006570  aa   000000 001257
    006571  aa   000000 000000
    006572  aa   040040 040040     718  		vfd a36/    ,36/i_n,36/0,36/(r_2-l_org)/5,36/0
    006573  aa   000000 000002
    006574  aa   000000 000000
    006575  aa   000000 002701
    006576  aa   000000 000000
    006577  aa   040040 040040     719  	range:	vfd a36/    ,36/i_n,36/0,36/(l_212-l_org)/5,36/a_90
    006600  aa   000000 000002
    006601  aa   000000 000000
    006602  aa   000000 001264
    006603  aa   000000 000132
    006604  aa   163040 040040     720  l_212:		vfd a36/s   ,36/i_s,36/(alel-l_org)/5,36/(l_213-l_org)/5,36/a_118
    006605  aa   000000 000003
    006606  aa   000000 002664
    006607  aa   000000 001267
    006610  aa   000000 000166
    006611  aa   163040 040040     721  		vfd a36/s   ,36/i_c,36/c_xnm,36/(l_213-l_org)/5,36/0
    006612  aa   000000 000001
    006613  aa   000000 000041
    006614  aa   000000 001267
    006615  aa   000000 000000
    006616  aa   040040 040040     722  		vfd a36/    ,36/i_n,36/0,36/(r_2-l_org)/5,36/0
    006617  aa   000000 000002
    006620  aa   000000 000000
    006621  aa   000000 002701
    006622  aa   000000 000000
    006623  aa   163040 040040     723  l_213:		vfd a36/s   ,36/i_r,36/r_from,36/(l_214-l_org)/5,36/0
    006624  aa   000000 000000
    006625  aa   000000 000157
    006626  aa   000000 001271
    006627  aa   000000 000000
    006630  aa   040040 040040     724  		vfd a36/    ,36/i_n,36/0,36/(r_2-l_org)/5,36/0
    006631  aa   000000 000002
    006632  aa   000000 000000
    006633  aa   000000 002701
    006634  aa   000000 000000
    006635  aa   040040 040040     725  l_214:		vfd a36/    ,36/i_n,36/0,36/(l_215-l_org)/5,36/a_91
    006636  aa   000000 000002
    006637  aa   000000 000000
    006640  aa   000000 001272
    006641  aa   000000 000133
    006642  aa   163040 040040     726  l_215:		vfd a36/s   ,36/i_s,36/(elnuitem-l_org)/5,36/(l_216-l_org)/5,36/a_119
    006643  aa   000000 000003
    006644  aa   000000 002642
    006645  aa   000000 001275
    006646  aa   000000 000167
    006647  aa   163040 040040     727  		vfd a36/s   ,36/i_c,36/c_xnm,36/(l_216-l_org)/5,36/0
    006650  aa   000000 000001
    006651  aa   000000 000041
    006652  aa   000000 001275
    006653  aa   000000 000000
    006654  aa   040040 040040     728  		vfd a36/    ,36/i_n,36/0,36/(r_2-l_org)/5,36/0
    006655  aa   000000 000002
    006656  aa   000000 000000
    006657  aa   000000 002701
    006660  aa   000000 000000
    006661  aa   163040 040040     729  l_216:		vfd a36/s   ,36/i_r,36/r_by,36/(l_217-l_org)/5,36/0
    006662  aa   000000 000000
    006663  aa   000000 000122
    006664  aa   000000 001277
    006665  aa   000000 000000
    006666  aa   040040 040040     730  		vfd a36/    ,36/i_n,36/0,36/(r_2-l_org)/5,36/0
    006667  aa   000000 000002
    006670  aa   000000 000000
    006671  aa   000000 002701
    006672  aa   000000 000000
    006673  aa   040040 040040     731  l_217:		vfd a36/    ,36/i_n,36/0,36/(l_218-l_org)/5,36/a_92
    006674  aa   000000 000002
    006675  aa   000000 000000
    006676  aa   000000 001300
    006677  aa   000000 000134
    006700  aa   163040 040040     732  l_218:		vfd a36/s   ,36/i_s,36/(elnuitem-l_org)/5,36/(l_219-l_org)/5,36/a_120
    006701  aa   000000 000003
    006702  aa   000000 002642
    006703  aa   000000 001302
    006704  aa   000000 000170
    006705  aa   040040 040040     733  		vfd a36/    ,36/i_n,36/0,36/(r_2-l_org)/5,36/0
    006706  aa   000000 000002
    006707  aa   000000 000000
    006710  aa   000000 002701
    006711  aa   000000 000000
    006712  aa   163040 040040     734  l_219:		vfd a36/s   ,36/i_r,36/r_until,36/(l_220-l_org)/5,36/a_93
    006713  aa   000000 000000
    006714  aa   000000 000255
    006715  aa   000000 001304
    006716  aa   000000 000135
    006717  aa   040040 040040     735  		vfd a36/    ,36/i_n,36/0,36/(r_2-l_org)/5,36/0
    006720  aa   000000 000002
    006721  aa   000000 000000
    006722  aa   000000 002701
    006723  aa   000000 000000
    006724  aa   040040 040040     736  l_220:		vfd a36/    ,36/i_s,36/(condition-l_org)/5,36/(succ-l_org)/5,36/a_83
    006725  aa   000000 000003
    006726  aa   000000 002756
    006727  aa   000000 002750
    006730  aa   000000 000123
    006731  aa   040040 040040     737  		vfd a36/    ,36/i_n,36/0,36/(r_2-l_org)/5,36/0
    006732  aa   000000 000002
    006733  aa   000000 000000
    006734  aa   000000 002701
    006735  aa   000000 000000
    006736  aa   163040 040040     738  	process:	vfd a36/s   ,36/i_r,36/r_process,36/(l_221-l_org)/5,36/0
    006737  aa   000000 000000
    006740  aa   000000 000060
    006741  aa   000000 001307
    006742  aa   000000 000000
    006743  aa   163040 040040     739  l_221:		vfd a36/s   ,36/i_c,36/c_descnm,36/(l_222-l_org)/5,36/0
    006744  aa   000000 000001
    006745  aa   000000 000032
    006746  aa   000000 001311
    006747  aa   000000 000000
    006750  aa   040040 040040     740  		vfd a36/    ,36/i_n,36/0,36/(r_2-l_org)/5,36/0
    006751  aa   000000 000002
    006752  aa   000000 000000
    006753  aa   000000 002701
    006754  aa   000000 000000
    006755  aa   163040 040040     741  l_222:		vfd a36/s   ,36/i_r,36/r_from,36/(pro2-l_org)/5,36/0
    006756  aa   000000 000000
    006757  aa   000000 000157
    006760  aa   000000 001314
    006761  aa   000000 000000
    006762  aa   163040 040040     742  	pro1:	vfd a36/s   ,36/i_r,36/r_using,36/(pro3-l_org)/5,36/0
    006763  aa   000000 000000
    006764  aa   000000 000260
    006765  aa   000000 001316
    006766  aa   000000 000000
    006767  aa   040040 040040     743  		vfd a36/    ,36/i_n,36/0,36/(verb1-l_org)/5,36/0
    006770  aa   000000 000002
    006771  aa   000000 000000
    006772  aa   000000 002362
    006773  aa   000000 000000
    006774  aa   163040 040040     744  	pro2:	vfd a36/s   ,36/i_s,36/(ident-l_org)/5,36/(pro1-l_org)/5,36/0
    006775  aa   000000 000003
    006776  aa   000000 002326
    006777  aa   000000 001312
    007000  aa   000000 000000
    007001  aa   040040 040040     745  		vfd a36/    ,36/i_n,36/0,36/(r_2-l_org)/5,36/0
    007002  aa   000000 000002
    007003  aa   000000 000000
    007004  aa   000000 002701
    007005  aa   000000 000000
    007006  aa   163040 040040     746  	pro3:	vfd a36/s   ,36/i_c,36/c_saanm,36/(l_223-l_org)/5,36/0
    007007  aa   000000 000001
    007010  aa   000000 000044
    007011  aa   000000 001321
    007012  aa   000000 000000
    007013  aa   163040 040040     747  		vfd a36/s   ,36/i_c,36/c_said,36/(verb1-l_org)/5,36/0
    007014  aa   000000 000001
    007015  aa   000000 000045
    007016  aa   000000 002362
    007017  aa   000000 000000
    007020  aa   040040 040040     748  		vfd a36/    ,36/i_n,36/0,36/(r_2-l_org)/5,36/0
    007021  aa   000000 000002
    007022  aa   000000 000000
    007023  aa   000000 002701
    007024  aa   000000 000000
    007025  aa   163040 040040     749  l_223:	purge:	vfd a36/s   ,36/i_r,36/r_purge,36/(l_224-l_org)/5,36/0
    007026  aa   000000 000000
    007027  aa   000000 000072
    007030  aa   000000 001322
    007031  aa   000000 000000
    007032  aa   163040 040040     750  l_224:		vfd a36/s   ,36/i_c,36/c_outcdnm,36/(verb1-l_org)/5,36/a_60
    007033  aa   000000 000001
    007034  aa   000000 000023
    007035  aa   000000 002362
    007036  aa   000000 000074
    007037  aa   040040 040040     751  		vfd a36/    ,36/i_n,36/0,36/(r_2-l_org)/5,36/0
    007040  aa   000000 000002
    007041  aa   000000 000000
    007042  aa   000000 002701
    007043  aa   000000 000000
    007044  aa   163040 040040     752  	read:	vfd a36/s   ,36/i_r,36/r_read,36/(l_225-l_org)/5,36/a_29
    007045  aa   000000 000000
    007046  aa   000000 000025
    007047  aa   000000 001325
    007050  aa   000000 000035
    007051  aa   163040 040040     753  l_225:		vfd a36/s   ,36/i_c,36/c_filenm,36/(l_226-l_org)/5,36/a_60
    007052  aa   000000 000001
    007053  aa   000000 000005
    007054  aa   000000 001327
    007055  aa   000000 000074
    007056  aa   040040 040040     754  		vfd a36/    ,36/i_n,36/0,36/(r_2-l_org)/5,36/0
    007057  aa   000000 000002
    007060  aa   000000 000000
    007061  aa   000000 002701
    007062  aa   000000 000000
    007063  aa   163040 040040     755  l_226:		vfd a36/s   ,36/i_r,36/r_next,36/(l_227-l_org)/5,36/0
    007064  aa   000000 000000
    007065  aa   000000 000200
    007066  aa   000000 001330
    007067  aa   000000 000000
    007070  aa   163040 040040     756  l_227:		vfd a36/s   ,36/i_r,36/r_record,36/(l_228-l_org)/5,36/0
    007071  aa   000000 000000
    007072  aa   000000 000224
    007073  aa   000000 001331
    007074  aa   000000 000000
    007075  aa   163040 040040     757  l_228:		vfd a36/s   ,36/i_r,36/r_into,36/(read_3-l_org)/5,36/0
    007076  aa   000000 000000
    007077  aa   000000 000164
    007100  aa   000000 001344
    007101  aa   000000 000000
    007102  aa   163040 040040     758  	read_1:	vfd a36/s   ,36/i_r,36/r_key,36/(read_4-l_org)/5,36/0
    007103  aa   000000 000000
    007104  aa   000000 000170
    007105  aa   000000 001346
    007106  aa   000000 000000
    007107  aa   163040 040040     759  	read_2:	vfd a36/s   ,36/i_r,36/r_not,36/(l_229-l_org)/5,36/a_97
    007110  aa   000000 000000
    007111  aa   000000 000202
    007112  aa   000000 001340
    007113  aa   000000 000141
    007114  aa   163040 040040     760  		vfd a36/s   ,36/i_r,36/r_at,36/(o_ae-l_org)/5,36/a_99
    007115  aa   000000 000000
    007116  aa   000000 000117
    007117  aa   000000 002365
    007120  aa   000000 000143
    007121  aa   163040 040040     761  		vfd a36/s   ,36/i_r,36/r_end,36/(o_ae1-l_org)/5,36/a_99
    007122  aa   000000 000000
    007123  aa   000000 000142
    007124  aa   000000 002366
    007125  aa   000000 000143
    007126  aa   163040 040040     762  		vfd a36/s   ,36/i_r,36/r_invalid,36/(o_inv-l_org)/5,36/a_100
    007127  aa   000000 000000
    007130  aa   000000 000165
    007131  aa   000000 002401
    007132  aa   000000 000144
    007133  aa   040040 040040     763  		vfd a36/    ,36/i_n,36/0,36/(cverb-l_org)/5,36/0
    007134  aa   000000 000002
    007135  aa   000000 000000
    007136  aa   000000 002361
    007137  aa   000000 000000
    007140  aa   163040 040040     764  l_229:		vfd a36/s   ,36/i_r,36/r_at,36/(o_ae-l_org)/5,36/0
    007141  aa   000000 000000
    007142  aa   000000 000117
    007143  aa   000000 002365
    007144  aa   000000 000000
    007145  aa   163040 040040     765  		vfd a36/s   ,36/i_r,36/r_end,36/(o_ae1-l_org)/5,36/0
    007146  aa   000000 000000
    007147  aa   000000 000142
    007150  aa   000000 002366
    007151  aa   000000 000000
    007152  aa   163040 040040     766  		vfd a36/s   ,36/i_r,36/r_invalid,36/(o_inv-l_org)/5,36/0
    007153  aa   000000 000000
    007154  aa   000000 000165
    007155  aa   000000 002401
    007156  aa   000000 000000
    007157  aa   040040 040040     767  		vfd a36/    ,36/i_n,36/0,36/(r_2-l_org)/5,36/0
    007160  aa   000000 000002
    007161  aa   000000 000000
    007162  aa   000000 002701
    007163  aa   000000 000000
    007164  aa   163040 040040     768  	read_3:	vfd a36/s   ,36/i_s,36/(rid-l_org)/5,36/(read_1-l_org)/5,36/0
    007165  aa   000000 000003
    007166  aa   000000 002353
    007167  aa   000000 001332
    007170  aa   000000 000000
    007171  aa   040040 040040     769  		vfd a36/    ,36/i_n,36/0,36/(r_2-l_org)/5,36/0
    007172  aa   000000 000002
    007173  aa   000000 000000
    007174  aa   000000 002701
    007175  aa   000000 000000
    007176  aa   163040 040040     770  	read_4:	vfd a36/s   ,36/i_r,36/r_is,36/(l_230-l_org)/5,36/0
    007177  aa   000000 000000
    007200  aa   000000 000166
    007201  aa   000000 001347
    007202  aa   000000 000000
    007203  aa   163040 040040     771  l_230:		vfd a36/s   ,36/i_c,36/c_type9,36/(read_2-l_org)/5,36/a_59
    007204  aa   000000 000001
    007205  aa   000000 000302
    007206  aa   000000 001333
    007207  aa   000000 000073
    007210  aa   040040 040040     772  		vfd a36/    ,36/i_n,36/0,36/(r_2-l_org)/5,36/0
    007211  aa   000000 000002
    007212  aa   000000 000000
    007213  aa   000000 002701
    007214  aa   000000 000000
    007215  aa   163040 040040     773  	receive:	vfd a36/s   ,36/i_r,36/r_receive,36/(l_231-l_org)/5,36/a_31
    007216  aa   000000 000000
    007217  aa   000000 000027
    007220  aa   000000 001352
    007221  aa   000000 000037
    007222  aa   163040 040040     774  l_231:		vfd a36/s   ,36/i_c,36/c_incdnm,36/(l_232-l_org)/5,36/a_60
    007223  aa   000000 000001
    007224  aa   000000 000022
    007225  aa   000000 001354
    007226  aa   000000 000074
    007227  aa   040040 040040     775  		vfd a36/    ,36/i_n,36/0,36/(r_2-l_org)/5,36/0
    007230  aa   000000 000002
    007231  aa   000000 000000
    007232  aa   000000 002701
    007233  aa   000000 000000
    007234  aa   163040 040040     776  l_232:		vfd a36/s   ,36/i_r,36/r_message,36/(l_233-l_org)/5,36/0
    007235  aa   000000 000000
    007236  aa   000000 000176
    007237  aa   000000 001357
    007240  aa   000000 000000
    007241  aa   163040 040040     777  		vfd a36/s   ,36/i_r,36/r_segment,36/(l_233-l_org)/5,36/0
    007242  aa   000000 000000
    007243  aa   000000 000237
    007244  aa   000000 001357
    007245  aa   000000 000000
    007246  aa   040040 040040     778  		vfd a36/    ,36/i_n,36/0,36/(r_2-l_org)/5,36/0
    007247  aa   000000 000002
    007250  aa   000000 000000
    007251  aa   000000 002701
    007252  aa   000000 000000
    007253  aa   163040 040040     779  l_233:		vfd a36/s   ,36/i_r,36/r_into,36/(l_234-l_org)/5,36/0
    007254  aa   000000 000000
    007255  aa   000000 000164
    007256  aa   000000 001361
    007257  aa   000000 000000
    007260  aa   040040 040040     780  		vfd a36/    ,36/i_n,36/0,36/(r_2-l_org)/5,36/0
    007261  aa   000000 000002
    007262  aa   000000 000000
    007263  aa   000000 002701
    007264  aa   000000 000000
    007265  aa   163040 040040     781  l_234:		vfd a36/s   ,36/i_s,36/(rid-l_org)/5,36/(l_235-l_org)/5,36/0
    007266  aa   000000 000003
    007267  aa   000000 002353
    007270  aa   000000 001363
    007271  aa   000000 000000
    007272  aa   040040 040040     782  		vfd a36/    ,36/i_n,36/0,36/(r_2-l_org)/5,36/0
    007273  aa   000000 000002
    007274  aa   000000 000000
    007275  aa   000000 002701
    007276  aa   000000 000000
    007277  aa   040040 040040     783  l_235:		vfd a36/    ,36/i_s,36/(with_data-l_org)/5,36/(o_nd-l_org)/5,36/0
    007300  aa   000000 000003
    007301  aa   000000 001366
    007302  aa   000000 002443
    007303  aa   000000 000000
    007304  aa   040040 040040     784  		vfd a36/    ,36/i_s,36/(no_data-l_org)/5,36/(o_nd-l_org)/5,36/0
    007305  aa   000000 000003
    007306  aa   000000 001373
    007307  aa   000000 002443
    007310  aa   000000 000000
    007311  aa   040040 040040     785  		vfd a36/    ,36/i_n,36/0,36/(cverb-l_org)/5,36/0
    007312  aa   000000 000002
    007313  aa   000000 000000
    007314  aa   000000 002361
    007315  aa   000000 000000
    007316  aa   163040 040040     786  	with_data:	vfd a36/s   ,36/i_r,36/r_with,36/(l_236-l_org)/5,36/0
    007317  aa   000000 000000
    007320  aa   000000 000263
    007321  aa   000000 001371
    007322  aa   000000 000000
    007323  aa   163040 040040     787  		vfd a36/s   ,36/i_r,36/r_data,36/(succ-l_org)/5,36/a_101
    007324  aa   000000 000000
    007325  aa   000000 000304
    007326  aa   000000 002750
    007327  aa   000000 000145
    007330  aa   040040 040040     788  		vfd a36/    ,36/i_n,36/0,36/(fail-l_org)/5,36/0
    007331  aa   000000 000002
    007332  aa   000000 000000
    007333  aa   000000 002751
    007334  aa   000000 000000
    007335  aa   163040 040040     789  l_236:		vfd a36/s   ,36/i_r,36/r_data,36/(succ-l_org)/5,36/a_101
    007336  aa   000000 000000
    007337  aa   000000 000304
    007340  aa   000000 002750
    007341  aa   000000 000145
    007342  aa   040040 040040     790  		vfd a36/    ,36/i_n,36/0,36/(r_2-l_org)/5,36/0
    007343  aa   000000 000002
    007344  aa   000000 000000
    007345  aa   000000 002701
    007346  aa   000000 000000
    007347  aa   163040 040040     791  	no_data:	vfd a36/s   ,36/i_r,36/r_not,36/(l_237-l_org)/5,36/0
    007350  aa   000000 000000
    007351  aa   000000 000202
    007352  aa   000000 001376
    007353  aa   000000 000000
    007354  aa   163040 040040     792  		vfd a36/s   ,36/i_r,36/r_no,36/(no_data_1-l_org)/5,36/0
    007355  aa   000000 000000
    007356  aa   000000 000201
    007357  aa   000000 001377
    007360  aa   000000 000000
    007361  aa   040040 040040     793  		vfd a36/    ,36/i_n,36/0,36/(fail-l_org)/5,36/0
    007362  aa   000000 000002
    007363  aa   000000 000000
    007364  aa   000000 002751
    007365  aa   000000 000000
    007366  aa   163040 040040     794  l_237:		vfd a36/s   ,36/i_r,36/r_with,36/(l_238-l_org)/5,36/0
    007367  aa   000000 000000
    007370  aa   000000 000263
    007371  aa   000000 001377
    007372  aa   000000 000000
    007373  aa   163040 040040     795  l_238:	no_data_1:	vfd a36/s   ,36/i_r,36/r_data,36/(succ-l_org)/5,36/a_97
    007374  aa   000000 000000
    007375  aa   000000 000304
    007376  aa   000000 002750
    007377  aa   000000 000141
    007400  aa   040040 040040     796  		vfd a36/    ,36/i_n,36/0,36/(r_2-l_org)/5,36/0
    007401  aa   000000 000002
    007402  aa   000000 000000
    007403  aa   000000 002701
    007404  aa   000000 000000
    007405  aa   163040 040040     797  	release:	vfd a36/s   ,36/i_r,36/r_release,36/(l_239-l_org)/5,36/0
    007406  aa   000000 000000
    007407  aa   000000 000030
    007410  aa   000000 001402
    007411  aa   000000 000000
    007412  aa   163040 040040     798  l_239:		vfd a36/s   ,36/i_c,36/c_recnm,36/(l_240-l_org)/5,36/0
    007413  aa   000000 000001
    007414  aa   000000 000056
    007415  aa   000000 001404
    007416  aa   000000 000000
    007417  aa   040040 040040     799  		vfd a36/    ,36/i_n,36/0,36/(r_2-l_org)/5,36/0
    007420  aa   000000 000002
    007421  aa   000000 000000
    007422  aa   000000 002701
    007423  aa   000000 000000
    007424  aa   163040 040040     800  l_240:		vfd a36/s   ,36/i_r,36/r_from,36/(l_241-l_org)/5,36/0
    007425  aa   000000 000000
    007426  aa   000000 000157
    007427  aa   000000 001406
    007430  aa   000000 000000
    007431  aa   040040 040040     801  		vfd a36/    ,36/i_n,36/0,36/(verb1-l_org)/5,36/0
    007432  aa   000000 000002
    007433  aa   000000 000000
    007434  aa   000000 002362
    007435  aa   000000 000000
    007436  aa   163040 040040     802  l_241:		vfd a36/s   ,36/i_s,36/(sid-l_org)/5,36/(verb1-l_org)/5,36/0
    007437  aa   000000 000003
    007440  aa   000000 002347
    007441  aa   000000 002362
    007442  aa   000000 000000
    007443  aa   040040 040040     803  		vfd a36/    ,36/i_n,36/0,36/(r_2-l_org)/5,36/0
    007444  aa   000000 000002
    007445  aa   000000 000000
    007446  aa   000000 002701
    007447  aa   000000 000000
    007450  aa   163040 040040     804  	return:	vfd a36/s   ,36/i_r,36/r_return,36/(l_242-l_org)/5,36/a_28
    007451  aa   000000 000000
    007452  aa   000000 000031
    007453  aa   000000 001411
    007454  aa   000000 000034
    007455  aa   163040 040040     805  l_242:		vfd a36/s   ,36/i_c,36/c_asfil,36/(l_243-l_org)/5,36/0
    007456  aa   000000 000001
    007457  aa   000000 000061
    007460  aa   000000 001413
    007461  aa   000000 000000
    007462  aa   040040 040040     806  		vfd a36/    ,36/i_n,36/0,36/(r_2-l_org)/5,36/0
    007463  aa   000000 000002
    007464  aa   000000 000000
    007465  aa   000000 002701
    007466  aa   000000 000000
    007467  aa   163040 040040     807  l_243:		vfd a36/s   ,36/i_r,36/r_record,36/(l_244-l_org)/5,36/0
    007470  aa   000000 000000
    007471  aa   000000 000224
    007472  aa   000000 001414
    007473  aa   000000 000000
    007474  aa   163040 040040     808  l_244:		vfd a36/s   ,36/i_r,36/r_into,36/(ret_2-l_org)/5,36/0
    007475  aa   000000 000000
    007476  aa   000000 000164
    007477  aa   000000 001424
    007500  aa   000000 000000
    007501  aa   163040 040040     809  	ret_1:	vfd a36/s   ,36/i_r,36/r_not,36/(l_245-l_org)/5,36/a_97
    007502  aa   000000 000000
    007503  aa   000000 000202
    007504  aa   000000 001421
    007505  aa   000000 000141
    007506  aa   163040 040040     810  		vfd a36/s   ,36/i_r,36/r_at,36/(o_ae-l_org)/5,36/a_99
    007507  aa   000000 000000
    007510  aa   000000 000117
    007511  aa   000000 002365
    007512  aa   000000 000143
    007513  aa   163040 040040     811  		vfd a36/s   ,36/i_r,36/r_end,36/(o_ae1-l_org)/5,36/a_99
    007514  aa   000000 000000
    007515  aa   000000 000142
    007516  aa   000000 002366
    007517  aa   000000 000143
    007520  aa   040040 040040     812  		vfd a36/    ,36/i_n,36/0,36/(r_2-l_org)/5,36/0
    007521  aa   000000 000002
    007522  aa   000000 000000
    007523  aa   000000 002701
    007524  aa   000000 000000
    007525  aa   163040 040040     813  l_245:		vfd a36/s   ,36/i_r,36/r_at,36/(o_ae-l_org)/5,36/0
    007526  aa   000000 000000
    007527  aa   000000 000117
    007530  aa   000000 002365
    007531  aa   000000 000000
    007532  aa   163040 040040     814  		vfd a36/s   ,36/i_r,36/r_end,36/(o_ae1-l_org)/5,36/0
    007533  aa   000000 000000
    007534  aa   000000 000142
    007535  aa   000000 002366
    007536  aa   000000 000000
    007537  aa   040040 040040     815  		vfd a36/    ,36/i_n,36/0,36/(r_2-l_org)/5,36/0
    007540  aa   000000 000002
    007541  aa   000000 000000
    007542  aa   000000 002701
    007543  aa   000000 000000
    007544  aa   163040 040040     816  	ret_2:	vfd a36/s   ,36/i_s,36/(rid-l_org)/5,36/(ret_1-l_org)/5,36/0
    007545  aa   000000 000003
    007546  aa   000000 002353
    007547  aa   000000 001415
    007550  aa   000000 000000
    007551  aa   040040 040040     817  		vfd a36/    ,36/i_n,36/0,36/(r_2-l_org)/5,36/0
    007552  aa   000000 000002
    007553  aa   000000 000000
    007554  aa   000000 002701
    007555  aa   000000 000000
    007556  aa   163040 040040     818  	rewrite:	vfd a36/s   ,36/i_r,36/r_rewrite,36/(l_246-l_org)/5,36/a_29
    007557  aa   000000 000000
    007560  aa   000000 000033
    007561  aa   000000 001427
    007562  aa   000000 000035
    007563  aa   163040 040040     819  l_246:		vfd a36/s   ,36/i_c,36/c_nsrecnm,36/(l_247-l_org)/5,36/a_115
    007564  aa   000000 000001
    007565  aa   000000 000106
    007566  aa   000000 001431
    007567  aa   000000 000163
    007570  aa   040040 040040     820  		vfd a36/    ,36/i_n,36/0,36/(r_2-l_org)/5,36/0
    007571  aa   000000 000002
    007572  aa   000000 000000
    007573  aa   000000 002701
    007574  aa   000000 000000
    007575  aa   163040 040040     821  l_247:		vfd a36/s   ,36/i_r,36/r_from,36/(l_248-l_org)/5,36/a_116
    007576  aa   000000 000000
    007577  aa   000000 000157
    007600  aa   000000 001433
    007601  aa   000000 000164
    007602  aa   040040 040040     822  		vfd a36/    ,36/i_n,36/0,36/(rew_1-l_org)/5,36/0
    007603  aa   000000 000002
    007604  aa   000000 000000
    007605  aa   000000 001435
    007606  aa   000000 000000
    007607  aa   163040 040040     823  l_248:		vfd a36/s   ,36/i_s,36/(sid-l_org)/5,36/(l_249-l_org)/5,36/a_117
    007610  aa   000000 000003
    007611  aa   000000 002347
    007612  aa   000000 001435
    007613  aa   000000 000165
    007614  aa   040040 040040     824  		vfd a36/    ,36/i_n,36/0,36/(r_2-l_org)/5,36/0
    007615  aa   000000 000002
    007616  aa   000000 000000
    007617  aa   000000 002701
    007620  aa   000000 000000
    007621  aa   163040 040040     825  l_249:	rew_1:	vfd a36/s   ,36/i_r,36/r_not,36/(l_250-l_org)/5,36/a_97
    007622  aa   000000 000000
    007623  aa   000000 000202
    007624  aa   000000 001440
    007625  aa   000000 000141
    007626  aa   163040 040040     826  		vfd a36/s   ,36/i_r,36/r_invalid,36/(o_inv-l_org)/5,36/a_100
    007627  aa   000000 000000
    007630  aa   000000 000165
    007631  aa   000000 002401
    007632  aa   000000 000144
    007633  aa   040040 040040     827  		vfd a36/    ,36/i_n,36/0,36/(cverb-l_org)/5,36/0
    007634  aa   000000 000002
    007635  aa   000000 000000
    007636  aa   000000 002361
    007637  aa   000000 000000
    007640  aa   163040 040040     828  l_250:		vfd a36/s   ,36/i_r,36/r_invalid,36/(o_inv-l_org)/5,36/0
    007641  aa   000000 000000
    007642  aa   000000 000165
    007643  aa   000000 002401
    007644  aa   000000 000000
    007645  aa   040040 040040     829  		vfd a36/    ,36/i_n,36/0,36/(r_2-l_org)/5,36/0
    007646  aa   000000 000002
    007647  aa   000000 000000
    007650  aa   000000 002701
    007651  aa   000000 000000
    007652  aa   163040 040040     830  	search:	vfd a36/s   ,36/i_r,36/r_search,36/(l_251-l_org)/5,36/a_31
    007653  aa   000000 000000
    007654  aa   000000 000032
    007655  aa   000000 001443
    007656  aa   000000 000037
    007657  aa   163040 040040     831  l_251:		vfd a36/s   ,36/i_c,36/c_srchid,36/(l_252-l_org)/5,36/a_59
    007660  aa   000000 000001
    007661  aa   000000 000062
    007662  aa   000000 001446
    007663  aa   000000 000073
    007664  aa   163040 040040     832  		vfd a36/s   ,36/i_r,36/r_all,36/(sea12-l_org)/5,36/0
    007665  aa   000000 000000
    007666  aa   000000 000111
    007667  aa   000000 001500
    007670  aa   000000 000000
    007671  aa   040040 040040     833  		vfd a36/    ,36/i_n,36/0,36/(r_2-l_org)/5,36/0
    007672  aa   000000 000002
    007673  aa   000000 000000
    007674  aa   000000 002701
    007675  aa   000000 000000
    007676  aa   163040 040040     834  l_252:		vfd a36/s   ,36/i_n,36/0,36/(l_253-l_org)/5,36/0
    007677  aa   000000 000002
    007700  aa   000000 000000
    007701  aa   000000 001447
    007702  aa   000000 000000
    007703  aa   163040 040040     835  l_253:		vfd a36/s   ,36/i_r,36/r_varying,36/(l_254-l_org)/5,36/0
    007704  aa   000000 000000
    007705  aa   000000 000261
    007706  aa   000000 001451
    007707  aa   000000 000000
    007710  aa   040040 040040     836  		vfd a36/    ,36/i_n,36/0,36/(sea4-l_org)/5,36/0
    007711  aa   000000 000002
    007712  aa   000000 000000
    007713  aa   000000 001454
    007714  aa   000000 000000
    007715  aa   163040 040040     837  l_254:		vfd a36/s   ,36/i_c,36/c_xnm,36/(l_255-l_org)/5,36/0
    007716  aa   000000 000001
    007717  aa   000000 000041
    007720  aa   000000 001454
    007721  aa   000000 000000
    007722  aa   040040 040040     838  		vfd a36/    ,36/i_c,36/c_usornm,36/(sea10-l_org)/5,36/a_60
    007723  aa   000000 000001
    007724  aa   000000 000063
    007725  aa   000000 001473
    007726  aa   000000 000074
    007727  aa   040040 040040     839  		vfd a36/    ,36/i_n,36/0,36/(r_2-l_org)/5,36/0
    007730  aa   000000 000002
    007731  aa   000000 000000
    007732  aa   000000 002701
    007733  aa   000000 000000
    007734  aa   163040 040040     840  l_255:	sea4:	vfd a36/s   ,36/i_r,36/r_at,36/(l_256-l_org)/5,36/0
    007735  aa   000000 000000
    007736  aa   000000 000117
    007737  aa   000000 001457
    007740  aa   000000 000000
    007741  aa   163040 040040     841  		vfd a36/s   ,36/i_r,36/r_end,36/(sea41-l_org)/5,36/0
    007742  aa   000000 000000
    007743  aa   000000 000142
    007744  aa   000000 001461
    007745  aa   000000 000000
    007746  aa   040040 040040     842  		vfd a36/    ,36/i_n,36/0,36/(sea7-l_org)/5,36/0
    007747  aa   000000 000002
    007750  aa   000000 000000
    007751  aa   000000 001462
    007752  aa   000000 000000
    007753  aa   163040 040040     843  l_256:		vfd a36/s   ,36/i_r,36/r_end,36/(l_257-l_org)/5,36/0
    007754  aa   000000 000000
    007755  aa   000000 000142
    007756  aa   000000 001461
    007757  aa   000000 000000
    007760  aa   040040 040040     844  		vfd a36/    ,36/i_n,36/0,36/(r_2-l_org)/5,36/0
    007761  aa   000000 000002
    007762  aa   000000 000000
    007763  aa   000000 002701
    007764  aa   000000 000000
    007765  aa   040040 040040     845  l_257:	sea41:	vfd a36/    ,36/i_s,36/(imp-l_org)/5,36/(l_258-l_org)/5,36/0
    007766  aa   000000 000003
    007767  aa   000000 002613
    007770  aa   000000 001462
    007771  aa   000000 000000
    007772  aa   163040 040040     846  l_258:	sea7:	vfd a36/s   ,36/i_r,36/r_when,36/(l_259-l_org)/5,36/0
    007773  aa   000000 000000
    007774  aa   000000 000262
    007775  aa   000000 001464
    007776  aa   000000 000000
    007777  aa   040040 040040     847  		vfd a36/    ,36/i_n,36/0,36/(r_2-l_org)/5,36/0
    010000  aa   000000 000002
    010001  aa   000000 000000
    010002  aa   000000 002701
    010003  aa   000000 000000
    010004  aa   040040 040040     848  l_259:	sea8:	vfd a36/    ,36/i_s,36/(condition-l_org)/5,36/(l_260-l_org)/5,36/0
    010005  aa   000000 000003
    010006  aa   000000 002756
    010007  aa   000000 001466
    010010  aa   000000 000000
    010011  aa   040040 040040     849  		vfd a36/    ,36/i_n,36/0,36/(r_2-l_org)/5,36/0
    010012  aa   000000 000002
    010013  aa   000000 000000
    010014  aa   000000 002701
    010015  aa   000000 000000
    010016  aa   163040 040040     850  l_260:		vfd a36/s   ,36/i_r,36/r_next,36/(sea11-l_org)/5,36/0
    010017  aa   000000 000000
    010020  aa   000000 000200
    010021  aa   000000 001476
    010022  aa   000000 000000
    010023  aa   040040 040040     851  l_261:		vfd a36/    ,36/i_s,36/(verb-l_org)/5,36/(l_262-l_org)/5,36/a_40
    010024  aa   000000 000003
    010025  aa   000000 002357
    010026  aa   000000 001471
    010027  aa   000000 000050
    010030  aa   040040 040040     852  		vfd a36/    ,36/i_n,36/0,36/(r_2-l_org)/5,36/0
    010031  aa   000000 000002
    010032  aa   000000 000000
    010033  aa   000000 002701
    010034  aa   000000 000000
    010035  aa   163040 040040     853  l_262:	sea9:	vfd a36/s   ,36/i_r,36/r_when,36/(sea8-l_org)/5,36/0
    010036  aa   000000 000000
    010037  aa   000000 000262
    010040  aa   000000 001464
    010041  aa   000000 000000
    010042  aa   040040 040040     854  		vfd a36/    ,36/i_n,36/0,36/(endwd-l_org)/5,36/a_42
    010043  aa   000000 000002
    010044  aa   000000 000000
    010045  aa   000000 002372
    010046  aa   000000 000052
    010047  aa   163040 040040     855  	sea10:	vfd a36/s   ,36/i_s,36/(rid-l_org)/5,36/(sea4-l_org)/5,36/0
    010050  aa   000000 000003
    010051  aa   000000 002353
    010052  aa   000000 001454
    010053  aa   000000 000000
    010054  aa   163040 040040     856  		vfd a36/s   ,36/i_s,36/(xdname-l_org)/5,36/(sea4-l_org)/5,36/0
    010055  aa   000000 000003
    010056  aa   000000 002323
    010057  aa   000000 001454
    010060  aa   000000 000000
    010061  aa   040040 040040     857  		vfd a36/    ,36/i_n,36/0,36/(r_2-l_org)/5,36/0
    010062  aa   000000 000002
    010063  aa   000000 000000
    010064  aa   000000 002701
    010065  aa   000000 000000
    010066  aa   163040 040040     858  	sea11:	vfd a36/s   ,36/i_r,36/r_sentence,36/(sea9-l_org)/5,36/a_40
    010067  aa   000000 000000
    010070  aa   000000 000240
    010071  aa   000000 001471
    010072  aa   000000 000050
    010073  aa   040040 040040     859  		vfd a36/    ,36/i_n,36/0,36/(r_2-l_org)/5,36/0
    010074  aa   000000 000002
    010075  aa   000000 000000
    010076  aa   000000 002701
    010077  aa   000000 000000
    010100  aa   040040 040040     860  	sea12:	vfd a36/    ,36/i_c,36/c_srchid,36/(l_263-l_org)/5,36/a_64
    010101  aa   000000 000001
    010102  aa   000000 000062
    010103  aa   000000 001502
    010104  aa   000000 000100
    010105  aa   040040 040040     861  		vfd a36/    ,36/i_n,36/0,36/(r_2-l_org)/5,36/0
    010106  aa   000000 000002
    010107  aa   000000 000000
    010110  aa   000000 002701
    010111  aa   000000 000000
    010112  aa   163040 040040     862  l_263:		vfd a36/s   ,36/i_c,36/c_keylbl,36/(l_264-l_org)/5,36/0
    010113  aa   000000 000001
    010114  aa   000000 000064
    010115  aa   000000 001504
    010116  aa   000000 000000
    010117  aa   040040 040040     863  		vfd a36/    ,36/i_n,36/0,36/(r_2-l_org)/5,36/0
    010120  aa   000000 000002
    010121  aa   000000 000000
    010122  aa   000000 002701
    010123  aa   000000 000000
    010124  aa   163040 040040     864  l_264:		vfd a36/s   ,36/i_n,36/0,36/(l_265-l_org)/5,36/0
    010125  aa   000000 000002
    010126  aa   000000 000000
    010127  aa   000000 001505
    010130  aa   000000 000000
    010131  aa   040040 040040     865  l_265:		vfd a36/    ,36/i_r,36/r_when,36/(sea14-l_org)/5,36/a_3
    010132  aa   000000 000000
    010133  aa   000000 000262
    010134  aa   000000 001516
    010135  aa   000000 000003
    010136  aa   163040 040040     866  		vfd a36/s   ,36/i_r,36/r_at,36/(l_266-l_org)/5,36/0
    010137  aa   000000 000000
    010140  aa   000000 000117
    010141  aa   000000 001511
    010142  aa   000000 000000
    010143  aa   163040 040040     867  		vfd a36/s   ,36/i_r,36/r_end,36/(sea31-l_org)/5,36/0
    010144  aa   000000 000000
    010145  aa   000000 000142
    010146  aa   000000 001513
    010147  aa   000000 000000
    010150  aa   040040 040040     868  		vfd a36/    ,36/i_n,36/0,36/(r_2-l_org)/5,36/0
    010151  aa   000000 000002
    010152  aa   000000 000000
    010153  aa   000000 002701
    010154  aa   000000 000000
    010155  aa   163040 040040     869  l_266:		vfd a36/s   ,36/i_r,36/r_end,36/(l_267-l_org)/5,36/0
    010156  aa   000000 000000
    010157  aa   000000 000142
    010160  aa   000000 001513
    010161  aa   000000 000000
    010162  aa   040040 040040     870  		vfd a36/    ,36/i_n,36/0,36/(r_2-l_org)/5,36/0
    010163  aa   000000 000002
    010164  aa   000000 000000
    010165  aa   000000 002701
    010166  aa   000000 000000
    010167  aa   040040 040040     871  l_267:	sea31:	vfd a36/    ,36/i_s,36/(imp-l_org)/5,36/(l_268-l_org)/5,36/0
    010170  aa   000000 000003
    010171  aa   000000 002613
    010172  aa   000000 001514
    010173  aa   000000 000000
    010174  aa   163040 040040     872  l_268:		vfd a36/s   ,36/i_r,36/r_when,36/(l_269-l_org)/5,36/0
    010175  aa   000000 000000
    010176  aa   000000 000262
    010177  aa   000000 001516
    010200  aa   000000 000000
    010201  aa   040040 040040     873  		vfd a36/    ,36/i_n,36/0,36/(r_2-l_org)/5,36/0
    010202  aa   000000 000002
    010203  aa   000000 000000
    010204  aa   000000 002701
    010205  aa   000000 000000
    010206  aa   040040 040040     874  l_269:	sea14:	vfd a36/    ,36/i_s,36/(condition-l_org)/5,36/(l_270-l_org)/5,36/0
    010207  aa   000000 000003
    010210  aa   000000 002756
    010211  aa   000000 001520
    010212  aa   000000 000000
    010213  aa   040040 040040     875  		vfd a36/    ,36/i_n,36/0,36/(r_2-l_org)/5,36/0
    010214  aa   000000 000002
    010215  aa   000000 000000
    010216  aa   000000 002701
    010217  aa   000000 000000
    010220  aa   163040 040040     876  l_270:		vfd a36/s   ,36/i_r,36/r_next,36/(sea15-l_org)/5,36/0
    010221  aa   000000 000000
    010222  aa   000000 000200
    010223  aa   000000 001524
    010224  aa   000000 000000
    010225  aa   040040 040040     877  		vfd a36/    ,36/i_n,36/0,36/(l_271-l_org)/5,36/a_39
    010226  aa   000000 000002
    010227  aa   000000 000000
    010230  aa   000000 001522
    010231  aa   000000 000047
    010232  aa   040040 040040     878  l_271:		vfd a36/    ,36/i_s,36/(verb-l_org)/5,36/(endwd-l_org)/5,36/a_42
    010233  aa   000000 000003
    010234  aa   000000 002357
    010235  aa   000000 002372
    010236  aa   000000 000052
    010237  aa   040040 040040     879  		vfd a36/    ,36/i_n,36/0,36/(r_2-l_org)/5,36/0
    010240  aa   000000 000002
    010241  aa   000000 000000
    010242  aa   000000 002701
    010243  aa   000000 000000
    010244  aa   163040 040040     880  	sea15:	vfd a36/s   ,36/i_r,36/r_sentence,36/(endwd-l_org)/5,36/a_40
    010245  aa   000000 000000
    010246  aa   000000 000240
    010247  aa   000000 002372
    010250  aa   000000 000050
    010251  aa   040040 040040     881  		vfd a36/    ,36/i_n,36/0,36/(r_2-l_org)/5,36/0
    010252  aa   000000 000002
    010253  aa   000000 000000
    010254  aa   000000 002701
    010255  aa   000000 000000
    010256  aa   163040 040040     882  	send:	vfd a36/s   ,36/i_r,36/r_send,36/(l_272-l_org)/5,36/0
    010257  aa   000000 000000
    010260  aa   000000 000036
    010261  aa   000000 001527
    010262  aa   000000 000000
    010263  aa   163040 040040     883  l_272:		vfd a36/s   ,36/i_c,36/c_outcdnm,36/(l_273-l_org)/5,36/a_60
    010264  aa   000000 000001
    010265  aa   000000 000023
    010266  aa   000000 001531
    010267  aa   000000 000074
    010270  aa   040040 040040     884  		vfd a36/    ,36/i_n,36/0,36/(r_2-l_org)/5,36/0
    010271  aa   000000 000002
    010272  aa   000000 000000
    010273  aa   000000 002701
    010274  aa   000000 000000
    010275  aa   163040 040040     885  l_273:		vfd a36/s   ,36/i_r,36/r_from,36/(send_1-l_org)/5,36/0
    010276  aa   000000 000000
    010277  aa   000000 000157
    010300  aa   000000 001540
    010301  aa   000000 000000
    010302  aa   163040 040040     886  		vfd a36/s   ,36/i_r,36/r_with,36/(l_274-l_org)/5,36/0
    010303  aa   000000 000000
    010304  aa   000000 000263
    010305  aa   000000 001533
    010306  aa   000000 000000
    010307  aa   040040 040040     887  l_274:	send_5:	vfd a36/    ,36/i_r,36/r_esi,36/(send_3-l_org)/5,36/0
    010310  aa   000000 000000
    010311  aa   000000 000151
    010312  aa   000000 001550
    010313  aa   000000 000000
    010314  aa   163040 040040     888  		vfd a36/s   ,36/i_r,36/r_emi,36/(send_3-l_org)/5,36/0
    010315  aa   000000 000000
    010316  aa   000000 000141
    010317  aa   000000 001550
    010320  aa   000000 000000
    010321  aa   163040 040040     889  		vfd a36/s   ,36/i_r,36/r_egi,36/(send_3-l_org)/5,36/0
    010322  aa   000000 000000
    010323  aa   000000 000351
    010324  aa   000000 001550
    010325  aa   000000 000000
    010326  aa   040040 040040     890  		vfd a36/    ,36/i_s,36/(sid-l_org)/5,36/(send_4-l_org)/5,36/0
    010327  aa   000000 000003
    010330  aa   000000 002347
    010331  aa   000000 001553
    010332  aa   000000 000000
    010333  aa   040040 040040     891  		vfd a36/    ,36/i_n,36/0,36/(r_2-l_org)/5,36/0
    010334  aa   000000 000002
    010335  aa   000000 000000
    010336  aa   000000 002701
    010337  aa   000000 000000
    010340  aa   163040 040040     892  	send_1:	vfd a36/s   ,36/i_s,36/(sid-l_org)/5,36/(l_275-l_org)/5,36/0
    010341  aa   000000 000003
    010342  aa   000000 002347
    010343  aa   000000 001542
    010344  aa   000000 000000
    010345  aa   040040 040040     893  		vfd a36/    ,36/i_n,36/0,36/(r_2-l_org)/5,36/0
    010346  aa   000000 000002
    010347  aa   000000 000000
    010350  aa   000000 002701
    010351  aa   000000 000000
    010352  aa   163040 040040     894  l_275:		vfd a36/s   ,36/i_r,36/r_with,36/(send_5-l_org)/5,36/0
    010353  aa   000000 000000
    010354  aa   000000 000263
    010355  aa   000000 001533
    010356  aa   000000 000000
    010357  aa   163040 040040     895  		vfd a36/s   ,36/i_r,36/r_esi,36/(send_3-l_org)/5,36/0
    010360  aa   000000 000000
    010361  aa   000000 000151
    010362  aa   000000 001550
    010363  aa   000000 000000
    010364  aa   163040 040040     896  		vfd a36/s   ,36/i_r,36/r_emi,36/(send_3-l_org)/5,36/0
    010365  aa   000000 000000
    010366  aa   000000 000141
    010367  aa   000000 001550
    010370  aa   000000 000000
    010371  aa   163040 040040     897  		vfd a36/s   ,36/i_r,36/r_egi,36/(send_3-l_org)/5,36/0
    010372  aa   000000 000000
    010373  aa   000000 000351
    010374  aa   000000 001550
    010375  aa   000000 000000
    010376  aa   040040 040040     898  		vfd a36/    ,36/i_s,36/(sid-l_org)/5,36/(send_4-l_org)/5,36/0
    010377  aa   000000 000003
    010400  aa   000000 002347
    010401  aa   000000 001553
    010402  aa   000000 000000
    010403  aa   040040 040040     899  		vfd a36/    ,36/i_n,36/0,36/(verb1-l_org)/5,36/0
    010404  aa   000000 000002
    010405  aa   000000 000000
    010406  aa   000000 002362
    010407  aa   000000 000000
    010410  aa   163040 040040     900  	send_3:	vfd a36/s   ,36/i_r,36/r_before,36/(send_6-l_org)/5,36/0
    010411  aa   000000 000000
    010412  aa   000000 000120
    010413  aa   000000 001555
    010414  aa   000000 000000
    010415  aa   163040 040040     901  		vfd a36/s   ,36/i_r,36/r_after,36/(send_6-l_org)/5,36/0
    010416  aa   000000 000000
    010417  aa   000000 000110
    010420  aa   000000 001555
    010421  aa   000000 000000
    010422  aa   040040 040040     902  		vfd a36/    ,36/i_n,36/0,36/(verb1-l_org)/5,36/0
    010423  aa   000000 000002
    010424  aa   000000 000000
    010425  aa   000000 002362
    010426  aa   000000 000000
    010427  aa   163040 040040     903  	send_4:	vfd a36/s   ,36/i_c,36/c_onechnosn,36/(send_3-l_org)/5,36/0
    010430  aa   000000 000001
    010431  aa   000000 000066
    010432  aa   000000 001550
    010433  aa   000000 000000
    010434  aa   040040 040040     904  		vfd a36/    ,36/i_n,36/0,36/(r_2-l_org)/5,36/0
    010435  aa   000000 000002
    010436  aa   000000 000000
    010437  aa   000000 002701
    010440  aa   000000 000000
    010441  aa   163040 040040     905  	send_6:	vfd a36/s   ,36/i_r,36/r_advancing,36/(l_276-l_org)/5,36/0
    010442  aa   000000 000000
    010443  aa   000000 000107
    010444  aa   000000 001556
    010445  aa   000000 000000
    010446  aa   163040 040040     906  l_276:		vfd a36/s   ,36/i_s,36/(elnumint-l_org)/5,36/(send_8-l_org)/5,36/0
    010447  aa   000000 000003
    010450  aa   000000 002630
    010451  aa   000000 001564
    010452  aa   000000 000000
    010453  aa   163040 040040     907  		vfd a36/s   ,36/i_c,36/c_prt_con,36/(verb1-l_org)/5,36/0
    010454  aa   000000 000001
    010455  aa   000000 000307
    010456  aa   000000 002362
    010457  aa   000000 000000
    010460  aa   163040 040040     908  		vfd a36/s   ,36/i_r,36/r_page,36/(verb1-l_org)/5,36/0
    010461  aa   000000 000000
    010462  aa   000000 000213
    010463  aa   000000 002362
    010464  aa   000000 000000
    010465  aa   040040 040040     909  		vfd a36/    ,36/i_n,36/0,36/(r_2-l_org)/5,36/0
    010466  aa   000000 000002
    010467  aa   000000 000000
    010470  aa   000000 002701
    010471  aa   000000 000000
    010472  aa   163040 040040     910  l_277:		vfd a36/s   ,36/i_c,36/c_elnuindi,36/(l_278-l_org)/5,36/a_59
    010473  aa   000000 000001
    010474  aa   000000 000101
    010475  aa   000000 001564
    010476  aa   000000 000073
    010477  aa   040040 040040     911  		vfd a36/    ,36/i_n,36/0,36/(r_2-l_org)/5,36/0
    010500  aa   000000 000002
    010501  aa   000000 000000
    010502  aa   000000 002701
    010503  aa   000000 000000
    010504  aa   163040 040040     912  l_278:	send_8:	vfd a36/s   ,36/i_r,36/r_lines,36/(verb1-l_org)/5,36/0
    010505  aa   000000 000000
    010506  aa   000000 000174
    010507  aa   000000 002362
    010510  aa   000000 000000
    010511  aa   040040 040040     913  		vfd a36/    ,36/i_n,36/0,36/(verb1-l_org)/5,36/0
    010512  aa   000000 000002
    010513  aa   000000 000000
    010514  aa   000000 002362
    010515  aa   000000 000000
    010516  aa   163040 040040     914  	set:	vfd a36/s   ,36/i_r,36/r_set,36/(l_279-l_org)/5,36/0
    010517  aa   000000 000000
    010520  aa   000000 000037
    010521  aa   000000 001567
    010522  aa   000000 000000
    010523  aa   163040 040040     915  l_279:		vfd a36/s   ,36/i_c,36/c_xnm,36/(set_4-l_org)/5,36/0
    010524  aa   000000 000001
    010525  aa   000000 000041
    010526  aa   000000 001600
    010527  aa   000000 000000
    010530  aa   040040 040040     916  		vfd a36/    ,36/i_c,36/c_xint,36/(set_5-l_org)/5,36/0
    010531  aa   000000 000001
    010532  aa   000000 000072
    010533  aa   000000 001605
    010534  aa   000000 000000
    010535  aa   163040 040040     917  		vfd a36/s   ,36/i_c,36/c_ssnm,36/(l_280-l_org)/5,36/0
    010536  aa   000000 000001
    010537  aa   000000 000237
    010540  aa   000000 001573
    010541  aa   000000 000000
    010542  aa   040040 040040     918  		vfd a36/    ,36/i_n,36/0,36/(r_2-l_org)/5,36/0
    010543  aa   000000 000002
    010544  aa   000000 000000
    010545  aa   000000 002701
    010546  aa   000000 000000
    010547  aa   163040 040040     919  l_280:	set_1:	vfd a36/s   ,36/i_c,36/c_ssnm,36/(set_1-l_org)/5,36/0
    010550  aa   000000 000001
    010551  aa   000000 000237
    010552  aa   000000 001573
    010553  aa   000000 000000
    010554  aa   163040 040040     920  		vfd a36/s   ,36/i_r,36/r_to,36/(set_2-l_org)/5,36/0
    010555  aa   000000 000000
    010556  aa   000000 000252
    010557  aa   000000 001576
    010560  aa   000000 000000
    010561  aa   040040 040040     921  		vfd a36/    ,36/i_n,36/0,36/(set_2-l_org)/5,36/0
    010562  aa   000000 000002
    010563  aa   000000 000000
    010564  aa   000000 001576
    010565  aa   000000 000000
    010566  aa   163040 040040     922  	set_2:	vfd a36/s   ,36/i_c,36/c_on_off,36/(verb1-l_org)/5,36/0
    010567  aa   000000 000001
    010570  aa   000000 000304
    010571  aa   000000 002362
    010572  aa   000000 000000
    010573  aa   040040 040040     923  		vfd a36/    ,36/i_n,36/0,36/(r_2-l_org)/5,36/0
    010574  aa   000000 000002
    010575  aa   000000 000000
    010576  aa   000000 002701
    010577  aa   000000 000000
    010600  aa   163040 040040     924  	set_4:	vfd a36/s   ,36/i_c,36/c_xnm,36/(set_4-l_org)/5,36/0
    010601  aa   000000 000001
    010602  aa   000000 000041
    010603  aa   000000 001600
    010604  aa   000000 000000
    010605  aa   163040 040040     925  		vfd a36/s   ,36/i_r,36/r_to,36/(set_7-l_org)/5,36/0
    010606  aa   000000 000000
    010607  aa   000000 000252
    010610  aa   000000 001614
    010611  aa   000000 000000
    010612  aa   163040 040040     926  		vfd a36/s   ,36/i_r,36/r_up,36/(set_10-l_org)/5,36/0
    010613  aa   000000 000000
    010614  aa   000000 000256
    010615  aa   000000 001622
    010616  aa   000000 000000
    010617  aa   163040 040040     927  		vfd a36/s   ,36/i_r,36/r_down,36/(set_10-l_org)/5,36/0
    010620  aa   000000 000000
    010621  aa   000000 000137
    010622  aa   000000 001622
    010623  aa   000000 000000
    010624  aa   040040 040040     928  		vfd a36/    ,36/i_n,36/0,36/(set_6-l_org)/5,36/0
    010625  aa   000000 000002
    010626  aa   000000 000000
    010627  aa   000000 001607
    010630  aa   000000 000000
    010631  aa   163040 040040     929  	set_5:	vfd a36/s   ,36/i_s,36/(sid-l_org)/5,36/(l_281-l_org)/5,36/0
    010632  aa   000000 000003
    010633  aa   000000 002347
    010634  aa   000000 001607
    010635  aa   000000 000000
    010636  aa   163040 040040     930  		vfd a36/s   ,36/i_s,36/(xdname-l_org)/5,36/(l_281-l_org)/5,36/0
    010637  aa   000000 000003
    010640  aa   000000 002323
    010641  aa   000000 001607
    010642  aa   000000 000000
    010643  aa   040040 040040     931  l_281:	set_6:	vfd a36/    ,36/i_c,36/c_xint,36/(set_5-l_org)/5,36/0
    010644  aa   000000 000001
    010645  aa   000000 000072
    010646  aa   000000 001605
    010647  aa   000000 000000
    010650  aa   040040 040040     932  		vfd a36/    ,36/i_c,36/c_xnm,36/(set_3-l_org)/5,36/0
    010651  aa   000000 000001
    010652  aa   000000 000041
    010653  aa   000000 001613
    010654  aa   000000 000000
    010655  aa   163040 040040     933  		vfd a36/s   ,36/i_r,36/r_to,36/(set_7-l_org)/5,36/0
    010656  aa   000000 000000
    010657  aa   000000 000252
    010660  aa   000000 001614
    010661  aa   000000 000000
    010662  aa   040040 040040     934  		vfd a36/    ,36/i_n,36/0,36/(r_2-l_org)/5,36/0
    010663  aa   000000 000002
    010664  aa   000000 000000
    010665  aa   000000 002701
    010666  aa   000000 000000
    010667  aa   163040 040040     935  	set_3:	vfd a36/s   ,36/i_n,36/0,36/(set_6-l_org)/5,36/0
    010670  aa   000000 000002
    010671  aa   000000 000000
    010672  aa   000000 001607
    010673  aa   000000 000000
    010674  aa   163040 040040     936  	set_7:	vfd a36/s   ,36/i_c,36/c_xnm,36/(verb1-l_org)/5,36/0
    010675  aa   000000 000001
    010676  aa   000000 000041
    010677  aa   000000 002362
    010700  aa   000000 000000
    010701  aa   040040 040040     937  		vfd a36/    ,36/i_c,36/c_set_xint,36/(set_9-l_org)/5,36/0
    010702  aa   000000 000001
    010703  aa   000000 000312
    010704  aa   000000 001620
    010705  aa   000000 000000
    010706  aa   163040 040040     938  		vfd a36/s   ,36/i_c,36/c_set_pigz,36/(verb1-l_org)/5,36/0
    010707  aa   000000 000001
    010710  aa   000000 000313
    010711  aa   000000 002362
    010712  aa   000000 000000
    010713  aa   040040 040040     939  		vfd a36/    ,36/i_n,36/0,36/(r_2-l_org)/5,36/0
    010714  aa   000000 000002
    010715  aa   000000 000000
    010716  aa   000000 002701
    010717  aa   000000 000000
    010720  aa   163040 040040     940  	set_9:	vfd a36/s   ,36/i_s,36/(sid-l_org)/5,36/(verb1-l_org)/5,36/0
    010721  aa   000000 000003
    010722  aa   000000 002347
    010723  aa   000000 002362
    010724  aa   000000 000000
    010725  aa   163040 040040     941  		vfd a36/s   ,36/i_s,36/(xdname-l_org)/5,36/(verb1-l_org)/5,36/0
    010726  aa   000000 000003
    010727  aa   000000 002323
    010730  aa   000000 002362
    010731  aa   000000 000000
    010732  aa   163040 040040     942  	set_10:	vfd a36/s   ,36/i_r,36/r_by,36/(l_282-l_org)/5,36/0
    010733  aa   000000 000000
    010734  aa   000000 000122
    010735  aa   000000 001624
    010736  aa   000000 000000
    010737  aa   040040 040040     943  		vfd a36/    ,36/i_n,36/0,36/(r_2-l_org)/5,36/0
    010740  aa   000000 000002
    010741  aa   000000 000000
    010742  aa   000000 002701
    010743  aa   000000 000000
    010744  aa   040040 040040     944  l_282:		vfd a36/    ,36/i_c,36/c_elnudnint,36/(l_283-l_org)/5,36/0
    010745  aa   000000 000001
    010746  aa   000000 000167
    010747  aa   000000 001627
    010750  aa   000000 000000
    010751  aa   163040 040040     945  		vfd a36/s   ,36/i_c,36/c_elnuint,36/(verb1-l_org)/5,36/0
    010752  aa   000000 000001
    010753  aa   000000 000166
    010754  aa   000000 002362
    010755  aa   000000 000000
    010756  aa   040040 040040     946  		vfd a36/    ,36/i_n,36/0,36/(r_2-l_org)/5,36/0
    010757  aa   000000 000002
    010760  aa   000000 000000
    010761  aa   000000 002701
    010762  aa   000000 000000
    010763  aa   163040 040040     947  l_283:		vfd a36/s   ,36/i_s,36/(sid-l_org)/5,36/(verb1-l_org)/5,36/0
    010764  aa   000000 000003
    010765  aa   000000 002347
    010766  aa   000000 002362
    010767  aa   000000 000000
    010770  aa   040040 040040     948  		vfd a36/    ,36/i_n,36/0,36/(r_2-l_org)/5,36/0
    010771  aa   000000 000002
    010772  aa   000000 000000
    010773  aa   000000 002701
    010774  aa   000000 000000
    010775  aa   163040 040040     949  	sort:	vfd a36/s   ,36/i_r,36/r_sort,36/(l_284-l_org)/5,36/a_109
    010776  aa   000000 000000
    010777  aa   000000 000061
    011000  aa   000000 001632
    011001  aa   000000 000155
    011002  aa   163040 040040     950  l_284:		vfd a36/s   ,36/i_c,36/c_srtfil,36/(l_285-l_org)/5,36/0
    011003  aa   000000 000001
    011004  aa   000000 000074
    011005  aa   000000 001634
    011006  aa   000000 000000
    011007  aa   040040 040040     951  		vfd a36/    ,36/i_n,36/0,36/(r_2-l_org)/5,36/0
    011010  aa   000000 000002
    011011  aa   000000 000000
    011012  aa   000000 002701
    011013  aa   000000 000000
    011014  aa   163040 040040     952  l_285:		vfd a36/s   ,36/i_n,36/0,36/(l_286-l_org)/5,36/0
    011015  aa   000000 000002
    011016  aa   000000 000000
    011017  aa   000000 001635
    011020  aa   000000 000000
    011021  aa   163040 040040     953  l_286:		vfd a36/s   ,36/i_r,36/r_on,36/(l_287-l_org)/5,36/0
    011022  aa   000000 000000
    011023  aa   000000 000206
    011024  aa   000000 001636
    011025  aa   000000 000000
    011026  aa   163040 040040     954  l_287:	sort_1:	vfd a36/s   ,36/i_r,36/r_ascending,36/(l_288-l_org)/5,36/0
    011027  aa   000000 000000
    011030  aa   000000 000116
    011031  aa   000000 001641
    011032  aa   000000 000000
    011033  aa   163040 040040     955  		vfd a36/s   ,36/i_r,36/r_descending,36/(l_288-l_org)/5,36/0
    011034  aa   000000 000000
    011035  aa   000000 000135
    011036  aa   000000 001641
    011037  aa   000000 000000
    011040  aa   040040 040040     956  		vfd a36/    ,36/i_n,36/0,36/(r_2-l_org)/5,36/0
    011041  aa   000000 000002
    011042  aa   000000 000000
    011043  aa   000000 002701
    011044  aa   000000 000000
    011045  aa   163040 040040     957  l_288:	sort_2:	vfd a36/s   ,36/i_r,36/r_key,36/(l_289-l_org)/5,36/0
    011046  aa   000000 000000
    011047  aa   000000 000170
    011050  aa   000000 001642
    011051  aa   000000 000000
    011052  aa   163040 040040     958  l_289:		vfd a36/s   ,36/i_c,36/c_dninfl,36/(l_290-l_org)/5,36/a_59
    011053  aa   000000 000001
    011054  aa   000000 000075
    011055  aa   000000 001644
    011056  aa   000000 000073
    011057  aa   040040 040040     959  		vfd a36/    ,36/i_n,36/0,36/(r_2-l_org)/5,36/0
    011060  aa   000000 000002
    011061  aa   000000 000000
    011062  aa   000000 002701
    011063  aa   000000 000000
    011064  aa   163040 040040     960  l_290:	sort_12:	vfd a36/s   ,36/i_c,36/c_dninfl,36/(sort_12-l_org)/5,36/a_59
    011065  aa   000000 000001
    011066  aa   000000 000075
    011067  aa   000000 001644
    011070  aa   000000 000073
    011071  aa   163040 040040     961  		vfd a36/s   ,36/i_r,36/r_on,36/(sort_1-l_org)/5,36/0
    011072  aa   000000 000000
    011073  aa   000000 000206
    011074  aa   000000 001636
    011075  aa   000000 000000
    011076  aa   163040 040040     962  		vfd a36/s   ,36/i_r,36/r_ascending,36/(sort_2-l_org)/5,36/0
    011077  aa   000000 000000
    011100  aa   000000 000116
    011101  aa   000000 001641
    011102  aa   000000 000000
    011103  aa   163040 040040     963  		vfd a36/s   ,36/i_r,36/r_descending,36/(sort_2-l_org)/5,36/0
    011104  aa   000000 000000
    011105  aa   000000 000135
    011106  aa   000000 001641
    011107  aa   000000 000000
    011110  aa   163040 040040     964  		vfd a36/s   ,36/i_r,36/r_collating,36/(sort_3-l_org)/5,36/0
    011111  aa   000000 000000
    011112  aa   000000 001003
    011113  aa   000000 001656
    011114  aa   000000 000000
    011115  aa   163040 040040     965  		vfd a36/s   ,36/i_r,36/r_sequence,36/(sort_4-l_org)/5,36/0
    011116  aa   000000 000000
    011117  aa   000000 001113
    011120  aa   000000 001660
    011121  aa   000000 000000
    011122  aa   040040 040040     966  		vfd a36/    ,36/i_n,36/0,36/(l_291-l_org)/5,36/0
    011123  aa   000000 000002
    011124  aa   000000 000000
    011125  aa   000000 001653
    011126  aa   000000 000000
    011127  aa   163040 040040     967  l_291:	sort_5:	vfd a36/s   ,36/i_r,36/r_input,36/(sort_6-l_org)/5,36/0
    011130  aa   000000 000000
    011131  aa   000000 000163
    011132  aa   000000 001663
    011133  aa   000000 000000
    011134  aa   163040 040040     968  		vfd a36/s   ,36/i_r,36/r_using,36/(sort_11-l_org)/5,36/0
    011135  aa   000000 000000
    011136  aa   000000 000260
    011137  aa   000000 001665
    011140  aa   000000 000000
    011141  aa   040040 040040     969  		vfd a36/    ,36/i_n,36/0,36/(r_2-l_org)/5,36/0
    011142  aa   000000 000002
    011143  aa   000000 000000
    011144  aa   000000 002701
    011145  aa   000000 000000
    011146  aa   163040 040040     970  	sort_3:	vfd a36/s   ,36/i_r,36/r_sequence,36/(l_292-l_org)/5,36/0
    011147  aa   000000 000000
    011150  aa   000000 001113
    011151  aa   000000 001660
    011152  aa   000000 000000
    011153  aa   040040 040040     971  		vfd a36/    ,36/i_n,36/0,36/(r_2-l_org)/5,36/0
    011154  aa   000000 000002
    011155  aa   000000 000000
    011156  aa   000000 002701
    011157  aa   000000 000000
    011160  aa   163040 040040     972  l_292:	sort_4:	vfd a36/s   ,36/i_r,36/r_is,36/(l_293-l_org)/5,36/0
    011161  aa   000000 000000
    011162  aa   000000 000166
    011163  aa   000000 001661
    011164  aa   000000 000000
    011165  aa   163040 040040     973  l_293:		vfd a36/s   ,36/i_c,36/c_alphnm,36/(sort_5-l_org)/5,36/0
    011166  aa   000000 000001
    011167  aa   000000 000303
    011170  aa   000000 001653
    011171  aa   000000 000000
    011172  aa   040040 040040     974  		vfd a36/    ,36/i_n,36/0,36/(r_2-l_org)/5,36/0
    011173  aa   000000 000002
    011174  aa   000000 000000
    011175  aa   000000 002701
    011176  aa   000000 000000
    011177  aa   163040 040040     975  	sort_6:	vfd a36/s   ,36/i_r,36/r_procedure,36/(sort_7-l_org)/5,36/0
    011200  aa   000000 000000
    011201  aa   000000 000216
    011202  aa   000000 001670
    011203  aa   000000 000000
    011204  aa   040040 040040     976  		vfd a36/    ,36/i_n,36/0,36/(r_2-l_org)/5,36/0
    011205  aa   000000 000002
    011206  aa   000000 000000
    011207  aa   000000 002701
    011210  aa   000000 000000
    011211  aa   163040 040040     977  	sort_11:	vfd a36/s   ,36/i_c,36/c_filenm,36/(l_294-l_org)/5,36/0
    011212  aa   000000 000001
    011213  aa   000000 000005
    011214  aa   000000 001667
    011215  aa   000000 000000
    011216  aa   040040 040040     978  		vfd a36/    ,36/i_n,36/0,36/(r_2-l_org)/5,36/0
    011217  aa   000000 000002
    011220  aa   000000 000000
    011221  aa   000000 002701
    011222  aa   000000 000000
    011223  aa   163040 040040     979  l_294:	sort_9:	vfd a36/s   ,36/i_n,36/0,36/(sort_8-l_org)/5,36/0
    011224  aa   000000 000002
    011225  aa   000000 000000
    011226  aa   000000 001677
    011227  aa   000000 000000
    011230  aa   163040 040040     980  	sort_7:	vfd a36/s   ,36/i_r,36/r_is,36/(l_295-l_org)/5,36/0
    011231  aa   000000 000000
    011232  aa   000000 000166
    011233  aa   000000 001671
    011234  aa   000000 000000
    011235  aa   163040 040040     981  l_295:		vfd a36/s   ,36/i_c,36/c_descnmra,36/(l_296-l_org)/5,36/a_111
    011236  aa   000000 000001
    011237  aa   000000 000043
    011240  aa   000000 001673
    011241  aa   000000 000157
    011242  aa   040040 040040     982  		vfd a36/    ,36/i_n,36/0,36/(r_2-l_org)/5,36/0
    011243  aa   000000 000002
    011244  aa   000000 000000
    011245  aa   000000 002701
    011246  aa   000000 000000
    011247  aa   163040 040040     983  l_296:		vfd a36/s   ,36/i_r,36/r_thru,36/(l_297-l_org)/5,36/0
    011250  aa   000000 000000
    011251  aa   000000 000246
    011252  aa   000000 001675
    011253  aa   000000 000000
    011254  aa   040040 040040     984  		vfd a36/    ,36/i_n,36/0,36/(sort_13-l_org)/5,36/0
    011255  aa   000000 000002
    011256  aa   000000 000000
    011257  aa   000000 001700
    011260  aa   000000 000000
    011261  aa   163040 040040     985  l_297:		vfd a36/s   ,36/i_c,36/c_descnmra,36/(sort_13-l_org)/5,36/0
    011262  aa   000000 000001
    011263  aa   000000 000043
    011264  aa   000000 001700
    011265  aa   000000 000000
    011266  aa   040040 040040     986  		vfd a36/    ,36/i_n,36/0,36/(r_2-l_org)/5,36/0
    011267  aa   000000 000002
    011270  aa   000000 000000
    011271  aa   000000 002701
    011272  aa   000000 000000
    011273  aa   163040 040040     987  	sort_8:	vfd a36/s   ,36/i_c,36/c_filenm,36/(l_298-l_org)/5,36/0
    011274  aa   000000 000001
    011275  aa   000000 000005
    011276  aa   000000 001700
    011277  aa   000000 000000
    011300  aa   163040 040040     988  l_298:	sort_13:	vfd a36/s   ,36/i_r,36/r_output,36/(l_299-l_org)/5,36/0
    011301  aa   000000 000000
    011302  aa   000000 000211
    011303  aa   000000 001703
    011304  aa   000000 000000
    011305  aa   163040 040040     989  		vfd a36/s   ,36/i_r,36/r_giving,36/(sort_10-l_org)/5,36/0
    011306  aa   000000 000000
    011307  aa   000000 000160
    011310  aa   000000 001714
    011311  aa   000000 000000
    011312  aa   040040 040040     990  		vfd a36/    ,36/i_n,36/0,36/(r_2-l_org)/5,36/0
    011313  aa   000000 000002
    011314  aa   000000 000000
    011315  aa   000000 002701
    011316  aa   000000 000000
    011317  aa   163040 040040     991  l_299:		vfd a36/s   ,36/i_r,36/r_procedure,36/(l_300-l_org)/5,36/0
    011320  aa   000000 000000
    011321  aa   000000 000216
    011322  aa   000000 001705
    011323  aa   000000 000000
    011324  aa   040040 040040     992  		vfd a36/    ,36/i_n,36/0,36/(r_2-l_org)/5,36/0
    011325  aa   000000 000002
    011326  aa   000000 000000
    011327  aa   000000 002701
    011330  aa   000000 000000
    011331  aa   163040 040040     993  l_300:		vfd a36/s   ,36/i_r,36/r_is,36/(l_301-l_org)/5,36/0
    011332  aa   000000 000000
    011333  aa   000000 000166
    011334  aa   000000 001706
    011335  aa   000000 000000
    011336  aa   163040 040040     994  l_301:		vfd a36/s   ,36/i_c,36/c_descnmra,36/(l_302-l_org)/5,36/a_110
    011337  aa   000000 000001
    011340  aa   000000 000043
    011341  aa   000000 001710
    011342  aa   000000 000156
    011343  aa   040040 040040     995  		vfd a36/    ,36/i_n,36/0,36/(r_2-l_org)/5,36/0
    011344  aa   000000 000002
    011345  aa   000000 000000
    011346  aa   000000 002701
    011347  aa   000000 000000
    011350  aa   163040 040040     996  l_302:		vfd a36/s   ,36/i_r,36/r_thru,36/(l_303-l_org)/5,36/0
    011351  aa   000000 000000
    011352  aa   000000 000246
    011353  aa   000000 001712
    011354  aa   000000 000000
    011355  aa   040040 040040     997  		vfd a36/    ,36/i_n,36/0,36/(verb1-l_org)/5,36/0
    011356  aa   000000 000002
    011357  aa   000000 000000
    011360  aa   000000 002362
    011361  aa   000000 000000
    011362  aa   163040 040040     998  l_303:		vfd a36/s   ,36/i_c,36/c_descnmra,36/(verb1-l_org)/5,36/0
    011363  aa   000000 000001
    011364  aa   000000 000043
    011365  aa   000000 002362
    011366  aa   000000 000000
    011367  aa   040040 040040     999  		vfd a36/    ,36/i_n,36/0,36/(r_2-l_org)/5,36/0
    011370  aa   000000 000002
    011371  aa   000000 000000
    011372  aa   000000 002701
    011373  aa   000000 000000
    011374  aa   163040 040040    1000  	sort_10:	vfd a36/s   ,36/i_c,36/c_filenm,36/(l_304-l_org)/5,36/0
    011375  aa   000000 000001
    011376  aa   000000 000005
    011377  aa   000000 001716
    011400  aa   000000 000000
    011401  aa   040040 040040    1001  		vfd a36/    ,36/i_n,36/0,36/(r_2-l_org)/5,36/0
    011402  aa   000000 000002
    011403  aa   000000 000000
    011404  aa   000000 002701
    011405  aa   000000 000000
    011406  aa   163040 040040    1002  l_304:		vfd a36/s   ,36/i_n,36/0,36/(verb1-l_org)/5,36/0
    011407  aa   000000 000002
    011410  aa   000000 000000
    011411  aa   000000 002362
    011412  aa   000000 000000
    011413  aa   163040 040040    1003  	start:	vfd a36/s   ,36/i_r,36/r_start,36/(l_305-l_org)/5,36/a_29
    011414  aa   000000 000000
    011415  aa   000000 000070
    011416  aa   000000 001720
    011417  aa   000000 000035
    011420  aa   163040 040040    1004  l_305:	sta1:	vfd a36/s   ,36/i_c,36/c_filenm,36/(l_306-l_org)/5,36/a_60
    011421  aa   000000 000001
    011422  aa   000000 000005
    011423  aa   000000 001722
    011424  aa   000000 000074
    011425  aa   040040 040040    1005  		vfd a36/    ,36/i_n,36/0,36/(r_2-l_org)/5,36/0
    011426  aa   000000 000002
    011427  aa   000000 000000
    011430  aa   000000 002701
    011431  aa   000000 000000
    011432  aa   163040 040040    1006  l_306:		vfd a36/s   ,36/i_r,36/r_key,36/(sta3-l_org)/5,36/0
    011433  aa   000000 000000
    011434  aa   000000 000170
    011435  aa   000000 001730
    011436  aa   000000 000000
    011437  aa   163040 040040    1007  	sta9:	vfd a36/s   ,36/i_r,36/r_not,36/(l_307-l_org)/5,36/a_97
    011440  aa   000000 000000
    011441  aa   000000 000202
    011442  aa   000000 001726
    011443  aa   000000 000141
    011444  aa   163040 040040    1008  		vfd a36/s   ,36/i_r,36/r_invalid,36/(o_inv-l_org)/5,36/a_100
    011445  aa   000000 000000
    011446  aa   000000 000165
    011447  aa   000000 002401
    011450  aa   000000 000144
    011451  aa   040040 040040    1009  		vfd a36/    ,36/i_n,36/0,36/(cverb-l_org)/5,36/0
    011452  aa   000000 000002
    011453  aa   000000 000000
    011454  aa   000000 002361
    011455  aa   000000 000000
    011456  aa   163040 040040    1010  l_307:		vfd a36/s   ,36/i_r,36/r_invalid,36/(o_inv-l_org)/5,36/0
    011457  aa   000000 000000
    011460  aa   000000 000165
    011461  aa   000000 002401
    011462  aa   000000 000000
    011463  aa   040040 040040    1011  		vfd a36/    ,36/i_n,36/0,36/(r_2-l_org)/5,36/0
    011464  aa   000000 000002
    011465  aa   000000 000000
    011466  aa   000000 002701
    011467  aa   000000 000000
    011470  aa   163040 040040    1012  	sta3:	vfd a36/s   ,36/i_r,36/r_is,36/(l_308-l_org)/5,36/0
    011471  aa   000000 000000
    011472  aa   000000 000166
    011473  aa   000000 001731
    011474  aa   000000 000000
    011475  aa   163040 040040    1013  l_308:		vfd a36/s   ,36/i_r,36/r_eq,36/(l_309-l_org)/5,36/0
    011476  aa   000000 000000
    011477  aa   000000 000146
    011500  aa   000000 001735
    011501  aa   000000 000000
    011502  aa   163040 040040    1014  		vfd a36/s   ,36/i_r,36/r_gt,36/(sta8-l_org)/5,36/0
    011503  aa   000000 000000
    011504  aa   000000 000161
    011505  aa   000000 001740
    011506  aa   000000 000000
    011507  aa   163040 040040    1015  		vfd a36/s   ,36/i_r,36/r_not,36/(sta6-l_org)/5,36/0
    011510  aa   000000 000000
    011511  aa   000000 000202
    011512  aa   000000 001742
    011513  aa   000000 000000
    011514  aa   040040 040040    1016  		vfd a36/    ,36/i_n,36/0,36/(r_2-l_org)/5,36/0
    011515  aa   000000 000002
    011516  aa   000000 000000
    011517  aa   000000 002701
    011520  aa   000000 000000
    011521  aa   163040 040040    1017  l_309:		vfd a36/s   ,36/i_r,36/r_to,36/(l_310-l_org)/5,36/0
    011522  aa   000000 000000
    011523  aa   000000 000252
    011524  aa   000000 001736
    011525  aa   000000 000000
    011526  aa   163040 040040    1018  l_310:	sta7:	vfd a36/s   ,36/i_c,36/c_undana,36/(sta9-l_org)/5,36/a_59
    011527  aa   000000 000001
    011530  aa   000000 000111
    011531  aa   000000 001723
    011532  aa   000000 000073
    011533  aa   040040 040040    1019  		vfd a36/    ,36/i_n,36/0,36/(r_2-l_org)/5,36/0
    011534  aa   000000 000002
    011535  aa   000000 000000
    011536  aa   000000 002701
    011537  aa   000000 000000
    011540  aa   163040 040040    1020  	sta8:	vfd a36/s   ,36/i_r,36/r_than,36/(sta7-l_org)/5,36/0
    011541  aa   000000 000000
    011542  aa   000000 000245
    011543  aa   000000 001736
    011544  aa   000000 000000
    011545  aa   040040 040040    1021  		vfd a36/    ,36/i_n,36/0,36/(sta7-l_org)/5,36/0
    011546  aa   000000 000002
    011547  aa   000000 000000
    011550  aa   000000 001736
    011551  aa   000000 000000
    011552  aa   163040 040040    1022  	sta6:	vfd a36/s   ,36/i_r,36/r_less,36/(sta8-l_org)/5,36/0
    011553  aa   000000 000000
    011554  aa   000000 000173
    011555  aa   000000 001740
    011556  aa   000000 000000
    011557  aa   040040 040040    1023  		vfd a36/    ,36/i_n,36/0,36/(r_2-l_org)/5,36/0
    011560  aa   000000 000002
    011561  aa   000000 000000
    011562  aa   000000 002701
    011563  aa   000000 000000
    011564  aa   163040 040040    1024  	stop:	vfd a36/s   ,36/i_r,36/r_stop,36/(l_311-l_org)/5,36/0
    011565  aa   000000 000000
    011566  aa   000000 000041
    011567  aa   000000 001745
    011570  aa   000000 000000
    011571  aa   163040 040040    1025  l_311:		vfd a36/s   ,36/i_r,36/r_run,36/(verb1-l_org)/5,36/0
    011572  aa   000000 000000
    011573  aa   000000 000235
    011574  aa   000000 002362
    011575  aa   000000 000000
    011576  aa   163040 040040    1026  		vfd a36/s   ,36/i_c,36/c_lit,36/(verb1-l_org)/5,36/0
    011577  aa   000000 000001
    011600  aa   000000 000025
    011601  aa   000000 002362
    011602  aa   000000 000000
    011603  aa   163040 040040    1027  		vfd a36/s   ,36/i_c,36/c_figconall,36/(verb1-l_org)/5,36/0
    011604  aa   000000 000001
    011605  aa   000000 000026
    011606  aa   000000 002362
    011607  aa   000000 000000
    011610  aa   040040 040040    1028  		vfd a36/    ,36/i_n,36/0,36/(r_2-l_org)/5,36/0
    011611  aa   000000 000002
    011612  aa   000000 000000
    011613  aa   000000 002701
    011614  aa   000000 000000
    011615  aa   163040 040040    1029  	string:	vfd a36/s   ,36/i_r,36/r_string,36/(l_312-l_org)/5,36/a_28
    011616  aa   000000 000000
    011617  aa   000000 000042
    011620  aa   000000 001752
    011621  aa   000000 000034
    011622  aa   040040 040040    1030  l_312:		vfd a36/    ,36/i_s,36/(sid-l_org)/5,36/(l_313-l_org)/5,36/0
    011623  aa   000000 000003
    011624  aa   000000 002347
    011625  aa   000000 001756
    011626  aa   000000 000000
    011627  aa   163040 040040    1031  		vfd a36/s   ,36/i_c,36/c_nonumlit,36/(str2-l_org)/5,36/0
    011630  aa   000000 000001
    011631  aa   000000 000017
    011632  aa   000000 001760
    011633  aa   000000 000000
    011634  aa   163040 040040    1032  		vfd a36/s   ,36/i_c,36/c_figconall,36/(str2-l_org)/5,36/0
    011635  aa   000000 000001
    011636  aa   000000 000026
    011637  aa   000000 001760
    011640  aa   000000 000000
    011641  aa   040040 040040    1033  		vfd a36/    ,36/i_n,36/0,36/(r_2-l_org)/5,36/0
    011642  aa   000000 000002
    011643  aa   000000 000000
    011644  aa   000000 002701
    011645  aa   000000 000000
    011646  aa   163040 040040    1034  l_313:	str1:	vfd a36/s   ,36/i_c,36/c_usisds,36/(l_314-l_org)/5,36/0
    011647  aa   000000 000001
    011650  aa   000000 000076
    011651  aa   000000 001760
    011652  aa   000000 000000
    011653  aa   040040 040040    1035  		vfd a36/    ,36/i_n,36/0,36/(r_2-l_org)/5,36/0
    011654  aa   000000 000002
    011655  aa   000000 000000
    011656  aa   000000 002701
    011657  aa   000000 000000
    011660  aa   040040 040040    1036  l_314:	str2:	vfd a36/    ,36/i_s,36/(sid-l_org)/5,36/(str1-l_org)/5,36/0
    011661  aa   000000 000003
    011662  aa   000000 002347
    011663  aa   000000 001756
    011664  aa   000000 000000
    011665  aa   163040 040040    1037  		vfd a36/s   ,36/i_r,36/r_delimited,36/(l_315-l_org)/5,36/0
    011666  aa   000000 000000
    011667  aa   000000 000132
    011670  aa   000000 001765
    011671  aa   000000 000000
    011672  aa   163040 040040    1038  		vfd a36/s   ,36/i_c,36/c_nonumlit,36/(str2-l_org)/5,36/0
    011673  aa   000000 000001
    011674  aa   000000 000017
    011675  aa   000000 001760
    011676  aa   000000 000000
    011677  aa   163040 040040    1039  		vfd a36/s   ,36/i_c,36/c_figconall,36/(str2-l_org)/5,36/0
    011700  aa   000000 000001
    011701  aa   000000 000026
    011702  aa   000000 001760
    011703  aa   000000 000000
    011704  aa   040040 040040    1040  		vfd a36/    ,36/i_n,36/0,36/(r_2-l_org)/5,36/0
    011705  aa   000000 000002
    011706  aa   000000 000000
    011707  aa   000000 002701
    011710  aa   000000 000000
    011711  aa   163040 040040    1041  l_315:		vfd a36/s   ,36/i_r,36/r_by,36/(l_316-l_org)/5,36/0
    011712  aa   000000 000000
    011713  aa   000000 000122
    011714  aa   000000 001766
    011715  aa   000000 000000
    011716  aa   040040 040040    1042  l_316:		vfd a36/    ,36/i_s,36/(sid-l_org)/5,36/(l_317-l_org)/5,36/0
    011717  aa   000000 000003
    011720  aa   000000 002347
    011721  aa   000000 001773
    011722  aa   000000 000000
    011723  aa   163040 040040    1043  		vfd a36/s   ,36/i_r,36/r_size,36/(str4-l_org)/5,36/0
    011724  aa   000000 000000
    011725  aa   000000 000241
    011726  aa   000000 001775
    011727  aa   000000 000000
    011730  aa   163040 040040    1044  		vfd a36/s   ,36/i_c,36/c_nonumlit,36/(str4-l_org)/5,36/0
    011731  aa   000000 000001
    011732  aa   000000 000017
    011733  aa   000000 001775
    011734  aa   000000 000000
    011735  aa   163040 040040    1045  		vfd a36/s   ,36/i_c,36/c_figconall,36/(str4-l_org)/5,36/0
    011736  aa   000000 000001
    011737  aa   000000 000026
    011740  aa   000000 001775
    011741  aa   000000 000000
    011742  aa   040040 040040    1046  		vfd a36/    ,36/i_n,36/0,36/(r_2-l_org)/5,36/0
    011743  aa   000000 000002
    011744  aa   000000 000000
    011745  aa   000000 002701
    011746  aa   000000 000000
    011747  aa   163040 040040    1047  l_317:		vfd a36/s   ,36/i_c,36/c_usisds,36/(l_318-l_org)/5,36/0
    011750  aa   000000 000001
    011751  aa   000000 000076
    011752  aa   000000 001775
    011753  aa   000000 000000
    011754  aa   040040 040040    1048  		vfd a36/    ,36/i_n,36/0,36/(r_2-l_org)/5,36/0
    011755  aa   000000 000002
    011756  aa   000000 000000
    011757  aa   000000 002701
    011760  aa   000000 000000
    011761  aa   040040 040040    1049  l_318:	str4:	vfd a36/    ,36/i_s,36/(sid-l_org)/5,36/(str1-l_org)/5,36/0
    011762  aa   000000 000003
    011763  aa   000000 002347
    011764  aa   000000 001756
    011765  aa   000000 000000
    011766  aa   163040 040040    1050  		vfd a36/s   ,36/i_c,36/c_nonumlit,36/(str2-l_org)/5,36/0
    011767  aa   000000 000001
    011770  aa   000000 000017
    011771  aa   000000 001760
    011772  aa   000000 000000
    011773  aa   163040 040040    1051  		vfd a36/s   ,36/i_c,36/c_figconall,36/(str2-l_org)/5,36/0
    011774  aa   000000 000001
    011775  aa   000000 000026
    011776  aa   000000 001760
    011777  aa   000000 000000
    012000  aa   163040 040040    1052  		vfd a36/s   ,36/i_r,36/r_into,36/(l_319-l_org)/5,36/0
    012001  aa   000000 000000
    012002  aa   000000 000164
    012003  aa   000000 002002
    012004  aa   000000 000000
    012005  aa   040040 040040    1053  		vfd a36/    ,36/i_n,36/0,36/(r_2-l_org)/5,36/0
    012006  aa   000000 000002
    012007  aa   000000 000000
    012010  aa   000000 002701
    012011  aa   000000 000000
    012012  aa   163040 040040    1054  l_319:		vfd a36/s   ,36/i_s,36/(rid-l_org)/5,36/(l_320-l_org)/5,36/0
    012013  aa   000000 000003
    012014  aa   000000 002353
    012015  aa   000000 002004
    012016  aa   000000 000000
    012017  aa   040040 040040    1055  		vfd a36/    ,36/i_n,36/0,36/(r_2-l_org)/5,36/0
    012020  aa   000000 000002
    012021  aa   000000 000000
    012022  aa   000000 002701
    012023  aa   000000 000000
    012024  aa   163040 040040    1056  l_320:		vfd a36/s   ,36/i_c,36/c_elneds,36/(l_321-l_org)/5,36/0
    012025  aa   000000 000001
    012026  aa   000000 000100
    012027  aa   000000 002006
    012030  aa   000000 000000
    012031  aa   040040 040040    1057  		vfd a36/    ,36/i_n,36/0,36/(r_2-l_org)/5,36/0
    012032  aa   000000 000002
    012033  aa   000000 000000
    012034  aa   000000 002701
    012035  aa   000000 000000
    012036  aa   163040 040040    1058  l_321:		vfd a36/s   ,36/i_r,36/r_with,36/(str7-l_org)/5,36/0
    012037  aa   000000 000000
    012040  aa   000000 000263
    012041  aa   000000 002017
    012042  aa   000000 000000
    012043  aa   163040 040040    1059  		vfd a36/s   ,36/i_r,36/r_pointer,36/(str8-l_org)/5,36/0
    012044  aa   000000 000000
    012045  aa   000000 000214
    012046  aa   000000 002021
    012047  aa   000000 000000
    012050  aa   163040 040040    1060  	str6:	vfd a36/s   ,36/i_r,36/r_not,36/(l_322-l_org)/5,36/a_97
    012051  aa   000000 000000
    012052  aa   000000 000202
    012053  aa   000000 002014
    012054  aa   000000 000141
    012055  aa   163040 040040    1061  		vfd a36/s   ,36/i_r,36/r_on,36/(o_ov-l_org)/5,36/a_98
    012056  aa   000000 000000
    012057  aa   000000 000206
    012060  aa   000000 002432
    012061  aa   000000 000142
    012062  aa   163040 040040    1062  		vfd a36/s   ,36/i_r,36/r_overflow,36/(o_ov1-l_org)/5,36/a_98
    012063  aa   000000 000000
    012064  aa   000000 000006
    012065  aa   000000 002433
    012066  aa   000000 000142
    012067  aa   040040 040040    1063  		vfd a36/    ,36/i_n,36/0,36/(cverb-l_org)/5,36/0
    012070  aa   000000 000002
    012071  aa   000000 000000
    012072  aa   000000 002361
    012073  aa   000000 000000
    012074  aa   163040 040040    1064  l_322:		vfd a36/s   ,36/i_r,36/r_on,36/(o_ov-l_org)/5,36/0
    012075  aa   000000 000000
    012076  aa   000000 000206
    012077  aa   000000 002432
    012100  aa   000000 000000
    012101  aa   163040 040040    1065  		vfd a36/s   ,36/i_r,36/r_overflow,36/(o_ov1-l_org)/5,36/0
    012102  aa   000000 000000
    012103  aa   000000 000006
    012104  aa   000000 002433
    012105  aa   000000 000000
    012106  aa   040040 040040    1066  		vfd a36/    ,36/i_n,36/0,36/(r_2-l_org)/5,36/0
    012107  aa   000000 000002
    012110  aa   000000 000000
    012111  aa   000000 002701
    012112  aa   000000 000000
    012113  aa   163040 040040    1067  	str7:	vfd a36/s   ,36/i_r,36/r_pointer,36/(l_323-l_org)/5,36/0
    012114  aa   000000 000000
    012115  aa   000000 000214
    012116  aa   000000 002021
    012117  aa   000000 000000
    012120  aa   040040 040040    1068  		vfd a36/    ,36/i_n,36/0,36/(r_2-l_org)/5,36/0
    012121  aa   000000 000002
    012122  aa   000000 000000
    012123  aa   000000 002701
    012124  aa   000000 000000
    012125  aa   163040 040040    1069  l_323:	str8:	vfd a36/s   ,36/i_s,36/(rid-l_org)/5,36/(l_324-l_org)/5,36/0
    012126  aa   000000 000003
    012127  aa   000000 002353
    012130  aa   000000 002023
    012131  aa   000000 000000
    012132  aa   040040 040040    1070  		vfd a36/    ,36/i_n,36/0,36/(r_2-l_org)/5,36/0
    012133  aa   000000 000002
    012134  aa   000000 000000
    012135  aa   000000 002701
    012136  aa   000000 000000
    012137  aa   163040 040040    1071  l_324:		vfd a36/s   ,36/i_c,36/c_elnuindi,36/(str6-l_org)/5,36/a_60
    012140  aa   000000 000001
    012141  aa   000000 000101
    012142  aa   000000 002010
    012143  aa   000000 000074
    012144  aa   040040 040040    1072  		vfd a36/    ,36/i_n,36/0,36/(r_2-l_org)/5,36/0
    012145  aa   000000 000002
    012146  aa   000000 000000
    012147  aa   000000 002701
    012150  aa   000000 000000
    012151  aa   163040 040040    1073  	subtract:	vfd a36/s   ,36/i_r,36/r_subtract,36/(l_325-l_org)/5,36/a_13
    012152  aa   000000 000000
    012153  aa   000000 000013
    012154  aa   000000 002026
    012155  aa   000000 000015
    012156  aa   163040 040040    1074  l_325:		vfd a36/s   ,36/i_s,36/(elnuitem-l_org)/5,36/(l_326-l_org)/5,36/0
    012157  aa   000000 000003
    012160  aa   000000 002642
    012161  aa   000000 002030
    012162  aa   000000 000000
    012163  aa   040040 040040    1075  		vfd a36/    ,36/i_n,36/0,36/(r_2-l_org)/5,36/0
    012164  aa   000000 000002
    012165  aa   000000 000000
    012166  aa   000000 002701
    012167  aa   000000 000000
    012170  aa   163040 040040    1076  l_326:		vfd a36/s   ,36/i_s,36/(elnuitem-l_org)/5,36/(l_326-l_org)/5,36/0
    012171  aa   000000 000003
    012172  aa   000000 002642
    012173  aa   000000 002030
    012174  aa   000000 000000
    012175  aa   163040 040040    1077  l_327:		vfd a36/s   ,36/i_r,36/r_from,36/(l_328-l_org)/5,36/0
    012176  aa   000000 000000
    012177  aa   000000 000157
    012200  aa   000000 002033
    012201  aa   000000 000000
    012202  aa   040040 040040    1078  		vfd a36/    ,36/i_n,36/0,36/(r_2-l_org)/5,36/0
    012203  aa   000000 000002
    012204  aa   000000 000000
    012205  aa   000000 002701
    012206  aa   000000 000000
    012207  aa   040040 040040    1079  l_328:		vfd a36/    ,36/i_c,36/c_nlit,36/(sub6-l_org)/5,36/0
    012210  aa   000000 000001
    012211  aa   000000 000320
    012212  aa   000000 002062
    012213  aa   000000 000000
    012214  aa   040040 040040    1080  		vfd a36/    ,36/i_r,36/r_all,36/(sub6-l_org)/5,36/0
    012215  aa   000000 000000
    012216  aa   000000 000111
    012217  aa   000000 002062
    012220  aa   000000 000000
    012221  aa   040040 040040    1081  		vfd a36/    ,36/i_r,36/r_zero,36/(sub6-l_org)/5,36/0
    012222  aa   000000 000000
    012223  aa   000000 000264
    012224  aa   000000 002062
    012225  aa   000000 000000
    012226  aa   163040 040040    1082  		vfd a36/s   ,36/i_s,36/(alel-l_org)/5,36/(l_329-l_org)/5,36/0
    012227  aa   000000 000003
    012230  aa   000000 002664
    012231  aa   000000 002040
    012232  aa   000000 000000
    012233  aa   040040 040040    1083  		vfd a36/    ,36/i_n,36/0,36/(r_2-l_org)/5,36/0
    012234  aa   000000 000002
    012235  aa   000000 000000
    012236  aa   000000 002701
    012237  aa   000000 000000
    012240  aa   163040 040040    1084  l_329:		vfd a36/s   ,36/i_r,36/r_giving,36/(sub4-l_org)/5,36/a_94
    012241  aa   000000 000000
    012242  aa   000000 000160
    012243  aa   000000 002052
    012244  aa   000000 000136
    012245  aa   163040 040040    1085  	sub1:	vfd a36/s   ,36/i_r,36/r_rounded,36/(l_330-l_org)/5,36/0
    012246  aa   000000 000000
    012247  aa   000000 000234
    012250  aa   000000 002042
    012251  aa   000000 000000
    012252  aa   163040 040040    1086  l_330:	sub2:	vfd a36/s   ,36/i_s,36/(alel-l_org)/5,36/(sub1-l_org)/5,36/0
    012253  aa   000000 000003
    012254  aa   000000 002664
    012255  aa   000000 002041
    012256  aa   000000 000000
    012257  aa   163040 040040    1087  	sub3:	vfd a36/s   ,36/i_r,36/r_not,36/(l_331-l_org)/5,36/a_97
    012260  aa   000000 000000
    012261  aa   000000 000202
    012262  aa   000000 002047
    012263  aa   000000 000141
    012264  aa   163040 040040    1088  		vfd a36/s   ,36/i_r,36/r_on,36/(o_se-l_org)/5,36/a_96
    012265  aa   000000 000000
    012266  aa   000000 000206
    012267  aa   000000 002421
    012270  aa   000000 000140
    012271  aa   163040 040040    1089  		vfd a36/s   ,36/i_r,36/r_size,36/(o_se1-l_org)/5,36/a_96
    012272  aa   000000 000000
    012273  aa   000000 000241
    012274  aa   000000 002422
    012275  aa   000000 000140
    012276  aa   040040 040040    1090  		vfd a36/    ,36/i_n,36/0,36/(cverb-l_org)/5,36/0
    012277  aa   000000 000002
    012300  aa   000000 000000
    012301  aa   000000 002361
    012302  aa   000000 000000
    012303  aa   163040 040040    1091  l_331:	sub7:	vfd a36/s   ,36/i_r,36/r_on,36/(o_se-l_org)/5,36/0
    012304  aa   000000 000000
    012305  aa   000000 000206
    012306  aa   000000 002421
    012307  aa   000000 000000
    012310  aa   163040 040040    1092  		vfd a36/s   ,36/i_r,36/r_size,36/(o_se1-l_org)/5,36/0
    012311  aa   000000 000000
    012312  aa   000000 000241
    012313  aa   000000 002422
    012314  aa   000000 000000
    012315  aa   040040 040040    1093  		vfd a36/    ,36/i_n,36/0,36/(r_2-l_org)/5,36/0
    012316  aa   000000 000002
    012317  aa   000000 000000
    012320  aa   000000 002701
    012321  aa   000000 000000
    012322  aa   163040 040040    1094  	sub4:	vfd a36/s   ,36/i_s,36/(alel-l_org)/5,36/(l_332-l_org)/5,36/0
    012323  aa   000000 000003
    012324  aa   000000 002664
    012325  aa   000000 002054
    012326  aa   000000 000000
    012327  aa   040040 040040    1095  		vfd a36/    ,36/i_n,36/0,36/(r_2-l_org)/5,36/0
    012330  aa   000000 000002
    012331  aa   000000 000000
    012332  aa   000000 002701
    012333  aa   000000 000000
    012334  aa   163040 040040    1096  l_332:	sub5:	vfd a36/s   ,36/i_r,36/r_rounded,36/(l_333-l_org)/5,36/0
    012335  aa   000000 000000
    012336  aa   000000 000234
    012337  aa   000000 002055
    012340  aa   000000 000000
    012341  aa   163040 040040    1097  l_333:		vfd a36/s   ,36/i_s,36/(alel-l_org)/5,36/(sub5-l_org)/5,36/0
    012342  aa   000000 000003
    012343  aa   000000 002664
    012344  aa   000000 002054
    012345  aa   000000 000000
    012346  aa   163040 040040    1098  		vfd a36/s   ,36/i_r,36/r_not,36/(sub7-l_org)/5,36/a_97
    012347  aa   000000 000000
    012350  aa   000000 000202
    012351  aa   000000 002047
    012352  aa   000000 000141
    012353  aa   163040 040040    1099  		vfd a36/s   ,36/i_r,36/r_on,36/(o_se-l_org)/5,36/a_96
    012354  aa   000000 000000
    012355  aa   000000 000206
    012356  aa   000000 002421
    012357  aa   000000 000140
    012360  aa   163040 040040    1100  		vfd a36/s   ,36/i_r,36/r_size,36/(o_se1-l_org)/5,36/a_96
    012361  aa   000000 000000
    012362  aa   000000 000241
    012363  aa   000000 002422
    012364  aa   000000 000140
    012365  aa   040040 040040    1101  		vfd a36/    ,36/i_n,36/0,36/(cverb-l_org)/5,36/0
    012366  aa   000000 000002
    012367  aa   000000 000000
    012370  aa   000000 002361
    012371  aa   000000 000000
    012372  aa   163040 040040    1102  	sub6:	vfd a36/s   ,36/i_s,36/(elnuitem-l_org)/5,36/(l_334-l_org)/5,36/0
    012373  aa   000000 000003
    012374  aa   000000 002642
    012375  aa   000000 002064
    012376  aa   000000 000000
    012377  aa   040040 040040    1103  		vfd a36/    ,36/i_n,36/0,36/(r_2-l_org)/5,36/0
    012400  aa   000000 000002
    012401  aa   000000 000000
    012402  aa   000000 002701
    012403  aa   000000 000000
    012404  aa   163040 040040    1104  l_334:		vfd a36/s   ,36/i_r,36/r_giving,36/(l_335-l_org)/5,36/0
    012405  aa   000000 000000
    012406  aa   000000 000160
    012407  aa   000000 002066
    012410  aa   000000 000000
    012411  aa   040040 040040    1105  		vfd a36/    ,36/i_n,36/0,36/(r_2-l_org)/5,36/0
    012412  aa   000000 000002
    012413  aa   000000 000000
    012414  aa   000000 002701
    012415  aa   000000 000000
    012416  aa   163040 040040    1106  l_335:		vfd a36/s   ,36/i_s,36/(alel-l_org)/5,36/(mul5-l_org)/5,36/0
    012417  aa   000000 000003
    012420  aa   000000 002664
    012421  aa   000000 001150
    012422  aa   000000 000000
    012423  aa   040040 040040    1107  		vfd a36/    ,36/i_n,36/0,36/(r_2-l_org)/5,36/0
    012424  aa   000000 000002
    012425  aa   000000 000000
    012426  aa   000000 002701
    012427  aa   000000 000000
    012430  aa   163040 040040    1108  	suspend:	vfd a36/s   ,36/i_r,36/r_suspend,36/(l_336-l_org)/5,36/0
    012431  aa   000000 000000
    012432  aa   000000 000043
    012433  aa   000000 002071
    012434  aa   000000 000000
    012435  aa   163040 040040    1109  l_336:	sus1:	vfd a36/s   ,36/i_c,36/c_file,36/(sus3-l_org)/5,36/0
    012436  aa   000000 000001
    012437  aa   000000 000103
    012440  aa   000000 002074
    012441  aa   000000 000000
    012442  aa   163040 040040    1110  	sus2:	vfd a36/s   ,36/i_c,36/c_repnm,36/(l_337-l_org)/5,36/0
    012443  aa   000000 000001
    012444  aa   000000 000033
    012445  aa   000000 002074
    012446  aa   000000 000000
    012447  aa   040040 040040    1111  		vfd a36/    ,36/i_n,36/0,36/(r_2-l_org)/5,36/0
    012450  aa   000000 000002
    012451  aa   000000 000000
    012452  aa   000000 002701
    012453  aa   000000 000000
    012454  aa   163040 040040    1112  l_337:	sus3:	vfd a36/s   ,36/i_c,36/c_lit,36/(l_338-l_org)/5,36/0
    012455  aa   000000 000001
    012456  aa   000000 000025
    012457  aa   000000 002076
    012460  aa   000000 000000
    012461  aa   163040 040040    1113  		vfd a36/s   ,36/i_s,36/(ident-l_org)/5,36/(l_338-l_org)/5,36/0
    012462  aa   000000 000003
    012463  aa   000000 002326
    012464  aa   000000 002076
    012465  aa   000000 000000
    012466  aa   040040 040040    1114  l_338:		vfd a36/    ,36/i_c,36/c_file,36/(sus1-l_org)/5,36/0
    012467  aa   000000 000001
    012470  aa   000000 000103
    012471  aa   000000 002071
    012472  aa   000000 000000
    012473  aa   040040 040040    1115  		vfd a36/    ,36/i_c,36/c_repnm,36/(sus2-l_org)/5,36/0
    012474  aa   000000 000001
    012475  aa   000000 000033
    012476  aa   000000 002072
    012477  aa   000000 000000
    012500  aa   040040 040040    1116  		vfd a36/    ,36/i_n,36/0,36/(verb1-l_org)/5,36/0
    012501  aa   000000 000002
    012502  aa   000000 000000
    012503  aa   000000 002362
    012504  aa   000000 000000
    012505  aa   163040 040040    1117  	terminate:	vfd a36/s   ,36/i_r,36/r_terminate,36/(l_339-l_org)/5,36/0
    012506  aa   000000 000000
    012507  aa   000000 000044
    012510  aa   000000 002102
    012511  aa   000000 000000
    012512  aa   163040 040040    1118  l_339:		vfd a36/s   ,36/i_r,36/r_all,36/(verb1-l_org)/5,36/0
    012513  aa   000000 000000
    012514  aa   000000 000111
    012515  aa   000000 002362
    012516  aa   000000 000000
    012517  aa   163040 040040    1119  		vfd a36/s   ,36/i_c,36/c_repnm,36/(l_340-l_org)/5,36/0
    012520  aa   000000 000001
    012521  aa   000000 000033
    012522  aa   000000 002105
    012523  aa   000000 000000
    012524  aa   040040 040040    1120  		vfd a36/    ,36/i_n,36/0,36/(r_2-l_org)/5,36/0
    012525  aa   000000 000002
    012526  aa   000000 000000
    012527  aa   000000 002701
    012530  aa   000000 000000
    012531  aa   163040 040040    1121  l_340:		vfd a36/s   ,36/i_c,36/c_repnm,36/(l_340-l_org)/5,36/0
    012532  aa   000000 000001
    012533  aa   000000 000033
    012534  aa   000000 002105
    012535  aa   000000 000000
    012536  aa   040040 040040    1122  		vfd a36/    ,36/i_n,36/0,36/(verb1-l_org)/5,36/0
    012537  aa   000000 000002
    012540  aa   000000 000000
    012541  aa   000000 002362
    012542  aa   000000 000000
    012543  aa   163040 040040    1123  	unstring:	vfd a36/s   ,36/i_r,36/r_unstring,36/(l_341-l_org)/5,36/a_28
    012544  aa   000000 000000
    012545  aa   000000 000045
    012546  aa   000000 002110
    012547  aa   000000 000034
    012550  aa   040040 040040    1124  l_341:		vfd a36/    ,36/i_s,36/(sid-l_org)/5,36/(l_342-l_org)/5,36/0
    012551  aa   000000 000003
    012552  aa   000000 002347
    012553  aa   000000 002112
    012554  aa   000000 000000
    012555  aa   040040 040040    1125  		vfd a36/    ,36/i_n,36/0,36/(r_2-l_org)/5,36/0
    012556  aa   000000 000002
    012557  aa   000000 000000
    012560  aa   000000 002701
    012561  aa   000000 000000
    012562  aa   163040 040040    1126  l_342:		vfd a36/s   ,36/i_c,36/c_andait,36/(l_343-l_org)/5,36/0
    012563  aa   000000 000001
    012564  aa   000000 000104
    012565  aa   000000 002114
    012566  aa   000000 000000
    012567  aa   040040 040040    1127  		vfd a36/    ,36/i_n,36/0,36/(r_2-l_org)/5,36/0
    012570  aa   000000 000002
    012571  aa   000000 000000
    012572  aa   000000 002701
    012573  aa   000000 000000
    012574  aa   163040 040040    1128  l_343:		vfd a36/s   ,36/i_r,36/r_delimited,36/(l_344-l_org)/5,36/0
    012575  aa   000000 000000
    012576  aa   000000 000132
    012577  aa   000000 002117
    012600  aa   000000 000000
    012601  aa   163040 040040    1129  		vfd a36/s   ,36/i_r,36/r_into,36/(un2-l_org)/5,36/0
    012602  aa   000000 000000
    012603  aa   000000 000164
    012604  aa   000000 002127
    012605  aa   000000 000000
    012606  aa   040040 040040    1130  		vfd a36/    ,36/i_n,36/0,36/(r_2-l_org)/5,36/0
    012607  aa   000000 000002
    012610  aa   000000 000000
    012611  aa   000000 002701
    012612  aa   000000 000000
    012613  aa   163040 040040    1131  l_344:		vfd a36/s   ,36/i_r,36/r_by,36/(l_345-l_org)/5,36/0
    012614  aa   000000 000000
    012615  aa   000000 000122
    012616  aa   000000 002120
    012617  aa   000000 000000
    012620  aa   163040 040040    1132  l_345:	un1:	vfd a36/s   ,36/i_r,36/r_all,36/(l_346-l_org)/5,36/0
    012621  aa   000000 000000
    012622  aa   000000 000111
    012623  aa   000000 002121
    012624  aa   000000 000000
    012625  aa   163040 040040    1133  l_346:		vfd a36/s   ,36/i_s,36/(nonumid-l_org)/5,36/(l_347-l_org)/5,36/0
    012626  aa   000000 000003
    012627  aa   000000 002617
    012630  aa   000000 002124
    012631  aa   000000 000000
    012632  aa   163040 040040    1134  		vfd a36/s   ,36/i_c,36/c_figconall,36/(l_347-l_org)/5,36/0
    012633  aa   000000 000001
    012634  aa   000000 000026
    012635  aa   000000 002124
    012636  aa   000000 000000
    012637  aa   040040 040040    1135  		vfd a36/    ,36/i_n,36/0,36/(r_2-l_org)/5,36/0
    012640  aa   000000 000002
    012641  aa   000000 000000
    012642  aa   000000 002701
    012643  aa   000000 000000
    012644  aa   163040 040040    1136  l_347:		vfd a36/s   ,36/i_r,36/r_or,36/(un1-l_org)/5,36/0
    012645  aa   000000 000000
    012646  aa   000000 000207
    012647  aa   000000 002120
    012650  aa   000000 000000
    012651  aa   163040 040040    1137  		vfd a36/s   ,36/i_r,36/r_into,36/(l_348-l_org)/5,36/0
    012652  aa   000000 000000
    012653  aa   000000 000164
    012654  aa   000000 002127
    012655  aa   000000 000000
    012656  aa   040040 040040    1138  		vfd a36/    ,36/i_n,36/0,36/(r_2-l_org)/5,36/0
    012657  aa   000000 000002
    012660  aa   000000 000000
    012661  aa   000000 002701
    012662  aa   000000 000000
    012663  aa   163040 040040    1139  l_348:	un2:	vfd a36/s   ,36/i_s,36/(rid-l_org)/5,36/(l_349-l_org)/5,36/0
    012664  aa   000000 000003
    012665  aa   000000 002353
    012666  aa   000000 002131
    012667  aa   000000 000000
    012670  aa   040040 040040    1140  		vfd a36/    ,36/i_n,36/0,36/(r_2-l_org)/5,36/0
    012671  aa   000000 000002
    012672  aa   000000 000000
    012673  aa   000000 002701
    012674  aa   000000 000000
    012675  aa   163040 040040    1141  l_349:	un3:	vfd a36/s   ,36/i_s,36/(usnoned-l_org)/5,36/(l_350-l_org)/5,36/0
    012676  aa   000000 000003
    012677  aa   000000 002624
    012700  aa   000000 002133
    012701  aa   000000 000000
    012702  aa   040040 040040    1142  		vfd a36/    ,36/i_n,36/0,36/(r_2-l_org)/5,36/0
    012703  aa   000000 000002
    012704  aa   000000 000000
    012705  aa   000000 002701
    012706  aa   000000 000000
    012707  aa   163040 040040    1143  l_350:		vfd a36/s   ,36/i_r,36/r_delimiter,36/(un8-l_org)/5,36/0
    012710  aa   000000 000000
    012711  aa   000000 000133
    012712  aa   000000 002141
    012713  aa   000000 000000
    012714  aa   163040 040040    1144  	un4:	vfd a36/s   ,36/i_r,36/r_count,36/(un10-l_org)/5,36/0
    012715  aa   000000 000000
    012716  aa   000000 000124
    012717  aa   000000 002146
    012720  aa   000000 000000
    012721  aa   163040 040040    1145  	un5:	vfd a36/s   ,36/i_s,36/(rid-l_org)/5,36/(un3-l_org)/5,36/0
    012722  aa   000000 000003
    012723  aa   000000 002353
    012724  aa   000000 002131
    012725  aa   000000 000000
    012726  aa   163040 040040    1146  		vfd a36/s   ,36/i_r,36/r_with,36/(un11-l_org)/5,36/0
    012727  aa   000000 000000
    012730  aa   000000 000263
    012731  aa   000000 002153
    012732  aa   000000 000000
    012733  aa   163040 040040    1147  		vfd a36/s   ,36/i_r,36/r_pointer,36/(un12-l_org)/5,36/0
    012734  aa   000000 000000
    012735  aa   000000 000214
    012736  aa   000000 002155
    012737  aa   000000 000000
    012740  aa   163040 040040    1148  	un6:	vfd a36/s   ,36/i_r,36/r_tallying,36/(un13-l_org)/5,36/0
    012741  aa   000000 000000
    012742  aa   000000 000243
    012743  aa   000000 002161
    012744  aa   000000 000000
    012745  aa   163040 040040    1149  	un8:	vfd a36/s   ,36/i_r,36/r_in,36/(l_351-l_org)/5,36/0
    012746  aa   000000 000000
    012747  aa   000000 000145
    012750  aa   000000 002142
    012751  aa   000000 000000
    012752  aa   040040 040040    1150  l_351:		vfd a36/    ,36/i_s,36/(sid-l_org)/5,36/(l_352-l_org)/5,36/0
    012753  aa   000000 000003
    012754  aa   000000 002347
    012755  aa   000000 002144
    012756  aa   000000 000000
    012757  aa   040040 040040    1151  		vfd a36/    ,36/i_n,36/0,36/(r_2-l_org)/5,36/0
    012760  aa   000000 000002
    012761  aa   000000 000000
    012762  aa   000000 002701
    012763  aa   000000 000000
    012764  aa   163040 040040    1152  l_352:		vfd a36/s   ,36/i_c,36/c_andait,36/(un4-l_org)/5,36/0
    012765  aa   000000 000001
    012766  aa   000000 000104
    012767  aa   000000 002134
    012770  aa   000000 000000
    012771  aa   040040 040040    1153  		vfd a36/    ,36/i_n,36/0,36/(r_2-l_org)/5,36/0
    012772  aa   000000 000002
    012773  aa   000000 000000
    012774  aa   000000 002701
    012775  aa   000000 000000
    012776  aa   163040 040040    1154  	un10:	vfd a36/s   ,36/i_r,36/r_in,36/(l_353-l_org)/5,36/0
    012777  aa   000000 000000
    013000  aa   000000 000145
    013001  aa   000000 002147
    013002  aa   000000 000000
    013003  aa   040040 040040    1155  l_353:		vfd a36/    ,36/i_s,36/(sid-l_org)/5,36/(l_354-l_org)/5,36/0
    013004  aa   000000 000003
    013005  aa   000000 002347
    013006  aa   000000 002151
    013007  aa   000000 000000
    013010  aa   040040 040040    1156  		vfd a36/    ,36/i_n,36/0,36/(r_2-l_org)/5,36/0
    013011  aa   000000 000002
    013012  aa   000000 000000
    013013  aa   000000 002701
    013014  aa   000000 000000
    013015  aa   163040 040040    1157  l_354:		vfd a36/s   ,36/i_c,36/c_elnuindi,36/(un5-l_org)/5,36/0
    013016  aa   000000 000001
    013017  aa   000000 000101
    013020  aa   000000 002135
    013021  aa   000000 000000
    013022  aa   040040 040040    1158  		vfd a36/    ,36/i_n,36/0,36/(r_2-l_org)/5,36/0
    013023  aa   000000 000002
    013024  aa   000000 000000
    013025  aa   000000 002701
    013026  aa   000000 000000
    013027  aa   163040 040040    1159  	un11:	vfd a36/s   ,36/i_r,36/r_pointer,36/(l_355-l_org)/5,36/0
    013030  aa   000000 000000
    013031  aa   000000 000214
    013032  aa   000000 002155
    013033  aa   000000 000000
    013034  aa   040040 040040    1160  		vfd a36/    ,36/i_n,36/0,36/(r_2-l_org)/5,36/0
    013035  aa   000000 000002
    013036  aa   000000 000000
    013037  aa   000000 002701
    013040  aa   000000 000000
    013041  aa   040040 040040    1161  l_355:	un12:	vfd a36/    ,36/i_s,36/(sid-l_org)/5,36/(l_356-l_org)/5,36/0
    013042  aa   000000 000003
    013043  aa   000000 002347
    013044  aa   000000 002157
    013045  aa   000000 000000
    013046  aa   040040 040040    1162  		vfd a36/    ,36/i_n,36/0,36/(r_2-l_org)/5,36/0
    013047  aa   000000 000002
    013050  aa   000000 000000
    013051  aa   000000 002701
    013052  aa   000000 000000
    013053  aa   163040 040040    1163  l_356:		vfd a36/s   ,36/i_c,36/c_elnuindi,36/(un6-l_org)/5,36/0
    013054  aa   000000 000001
    013055  aa   000000 000101
    013056  aa   000000 002140
    013057  aa   000000 000000
    013060  aa   040040 040040    1164  		vfd a36/    ,36/i_n,36/0,36/(r_2-l_org)/5,36/0
    013061  aa   000000 000002
    013062  aa   000000 000000
    013063  aa   000000 002701
    013064  aa   000000 000000
    013065  aa   163040 040040    1165  	un13:	vfd a36/s   ,36/i_r,36/r_in,36/(l_357-l_org)/5,36/0
    013066  aa   000000 000000
    013067  aa   000000 000145
    013070  aa   000000 002162
    013071  aa   000000 000000
    013072  aa   163040 040040    1166  l_357:		vfd a36/s   ,36/i_s,36/(rid-l_org)/5,36/(l_358-l_org)/5,36/0
    013073  aa   000000 000003
    013074  aa   000000 002353
    013075  aa   000000 002164
    013076  aa   000000 000000
    013077  aa   040040 040040    1167  		vfd a36/    ,36/i_n,36/0,36/(r_2-l_org)/5,36/0
    013100  aa   000000 000002
    013101  aa   000000 000000
    013102  aa   000000 002701
    013103  aa   000000 000000
    013104  aa   163040 040040    1168  l_358:		vfd a36/s   ,36/i_c,36/c_elnuindi,36/(l_359-l_org)/5,36/0
    013105  aa   000000 000001
    013106  aa   000000 000101
    013107  aa   000000 002166
    013110  aa   000000 000000
    013111  aa   040040 040040    1169  		vfd a36/    ,36/i_n,36/0,36/(r_2-l_org)/5,36/0
    013112  aa   000000 000002
    013113  aa   000000 000000
    013114  aa   000000 002701
    013115  aa   000000 000000
    013116  aa   163040 040040    1170  l_359:		vfd a36/s   ,36/i_r,36/r_not,36/(l_360-l_org)/5,36/a_97
    013117  aa   000000 000000
    013120  aa   000000 000202
    013121  aa   000000 002172
    013122  aa   000000 000141
    013123  aa   163040 040040    1171  		vfd a36/s   ,36/i_r,36/r_on,36/(o_ov-l_org)/5,36/a_98
    013124  aa   000000 000000
    013125  aa   000000 000206
    013126  aa   000000 002432
    013127  aa   000000 000142
    013130  aa   163040 040040    1172  		vfd a36/s   ,36/i_r,36/r_overflow,36/(o_ov1-l_org)/5,36/a_98
    013131  aa   000000 000000
    013132  aa   000000 000006
    013133  aa   000000 002433
    013134  aa   000000 000142
    013135  aa   040040 040040    1173  		vfd a36/    ,36/i_n,36/0,36/(cverb-l_org)/5,36/0
    013136  aa   000000 000002
    013137  aa   000000 000000
    013140  aa   000000 002361
    013141  aa   000000 000000
    013142  aa   163040 040040    1174  l_360:		vfd a36/s   ,36/i_r,36/r_on,36/(o_ov-l_org)/5,36/0
    013143  aa   000000 000000
    013144  aa   000000 000206
    013145  aa   000000 002432
    013146  aa   000000 000000
    013147  aa   163040 040040    1175  		vfd a36/s   ,36/i_r,36/r_overflow,36/(o_ov1-l_org)/5,36/0
    013150  aa   000000 000000
    013151  aa   000000 000006
    013152  aa   000000 002433
    013153  aa   000000 000000
    013154  aa   040040 040040    1176  		vfd a36/    ,36/i_n,36/0,36/(r_2-l_org)/5,36/0
    013155  aa   000000 000002
    013156  aa   000000 000000
    013157  aa   000000 002701
    013160  aa   000000 000000
    013161  aa   163040 040040    1177  	write:	vfd a36/s   ,36/i_r,36/r_write,36/(l_361-l_org)/5,36/a_29
    013162  aa   000000 000000
    013163  aa   000000 000046
    013164  aa   000000 002176
    013165  aa   000000 000035
    013166  aa   163040 040040    1178  l_361:		vfd a36/s   ,36/i_c,36/c_nsrecnm,36/(l_362-l_org)/5,36/a_115
    013167  aa   000000 000001
    013170  aa   000000 000106
    013171  aa   000000 002200
    013172  aa   000000 000163
    013173  aa   040040 040040    1179  		vfd a36/    ,36/i_n,36/0,36/(r_2-l_org)/5,36/0
    013174  aa   000000 000002
    013175  aa   000000 000000
    013176  aa   000000 002701
    013177  aa   000000 000000
    013200  aa   163040 040040    1180  l_362:		vfd a36/s   ,36/i_r,36/r_from,36/(wr4-l_org)/5,36/a_116
    013201  aa   000000 000000
    013202  aa   000000 000157
    013203  aa   000000 002214
    013204  aa   000000 000164
    013205  aa   163040 040040    1181  	wr2:	vfd a36/s   ,36/i_r,36/r_before,36/(wr5-l_org)/5,36/0
    013206  aa   000000 000000
    013207  aa   000000 000120
    013210  aa   000000 002215
    013211  aa   000000 000000
    013212  aa   163040 040040    1182  		vfd a36/s   ,36/i_r,36/r_after,36/(wr5-l_org)/5,36/0
    013213  aa   000000 000000
    013214  aa   000000 000110
    013215  aa   000000 002215
    013216  aa   000000 000000
    013217  aa   163040 040040    1183  	wr3:	vfd a36/s   ,36/i_r,36/r_not,36/(l_363-l_org)/5,36/a_97
    013220  aa   000000 000000
    013221  aa   000000 000202
    013222  aa   000000 002210
    013223  aa   000000 000141
    013224  aa   163040 040040    1184  		vfd a36/s   ,36/i_r,36/r_at,36/(o_eop-l_org)/5,36/a_102
    013225  aa   000000 000000
    013226  aa   000000 000117
    013227  aa   000000 002411
    013230  aa   000000 000146
    013231  aa   163040 040040    1185  		vfd a36/s   ,36/i_r,36/r_eop,36/(o_eop1-l_org)/5,36/a_102
    013232  aa   000000 000000
    013233  aa   000000 000144
    013234  aa   000000 002412
    013235  aa   000000 000146
    013236  aa   163040 040040    1186  		vfd a36/s   ,36/i_r,36/r_invalid,36/(o_inv-l_org)/5,36/a_100
    013237  aa   000000 000000
    013240  aa   000000 000165
    013241  aa   000000 002401
    013242  aa   000000 000144
    013243  aa   040040 040040    1187  		vfd a36/    ,36/i_n,36/0,36/(cverb-l_org)/5,36/0
    013244  aa   000000 000002
    013245  aa   000000 000000
    013246  aa   000000 002361
    013247  aa   000000 000000
    013250  aa   163040 040040    1188  l_363:		vfd a36/s   ,36/i_r,36/r_at,36/(o_eop-l_org)/5,36/0
    013251  aa   000000 000000
    013252  aa   000000 000117
    013253  aa   000000 002411
    013254  aa   000000 000000
    013255  aa   163040 040040    1189  		vfd a36/s   ,36/i_r,36/r_eop,36/(o_eop1-l_org)/5,36/0
    013256  aa   000000 000000
    013257  aa   000000 000144
    013260  aa   000000 002412
    013261  aa   000000 000000
    013262  aa   163040 040040    1190  		vfd a36/s   ,36/i_r,36/r_invalid,36/(o_inv-l_org)/5,36/0
    013263  aa   000000 000000
    013264  aa   000000 000165
    013265  aa   000000 002401
    013266  aa   000000 000000
    013267  aa   040040 040040    1191  		vfd a36/    ,36/i_n,36/0,36/(r_2-l_org)/5,36/0
    013270  aa   000000 000002
    013271  aa   000000 000000
    013272  aa   000000 002701
    013273  aa   000000 000000
    013274  aa   163040 040040    1192  	wr4:	vfd a36/s   ,36/i_s,36/(sid-l_org)/5,36/(wr2-l_org)/5,36/a_117
    013275  aa   000000 000003
    013276  aa   000000 002347
    013277  aa   000000 002201
    013300  aa   000000 000165
    013301  aa   163040 040040    1193  	wr5:	vfd a36/s   ,36/i_r,36/r_advancing,36/(l_364-l_org)/5,36/0
    013302  aa   000000 000000
    013303  aa   000000 000107
    013304  aa   000000 002216
    013305  aa   000000 000000
    013306  aa   040040 040040    1194  l_364:		vfd a36/    ,36/i_c,36/c_elnudnint,36/(wr1-l_org)/5,36/0
    013307  aa   000000 000001
    013310  aa   000000 000167
    013311  aa   000000 002225
    013312  aa   000000 000000
    013313  aa   163040 040040    1195  		vfd a36/s   ,36/i_s,36/(elnumint-l_org)/5,36/(wr8-l_org)/5,36/0
    013314  aa   000000 000003
    013315  aa   000000 002630
    013316  aa   000000 002223
    013317  aa   000000 000000
    013320  aa   163040 040040    1196  	wr6:	vfd a36/s   ,36/i_c,36/c_prt_con,36/(wr3-l_org)/5,36/0
    013321  aa   000000 000001
    013322  aa   000000 000307
    013323  aa   000000 002203
    013324  aa   000000 000000
    013325  aa   163040 040040    1197  		vfd a36/s   ,36/i_r,36/r_page,36/(wr3-l_org)/5,36/0
    013326  aa   000000 000000
    013327  aa   000000 000213
    013330  aa   000000 002203
    013331  aa   000000 000000
    013332  aa   040040 040040    1198  		vfd a36/    ,36/i_n,36/0,36/(r_2-l_org)/5,36/0
    013333  aa   000000 000002
    013334  aa   000000 000000
    013335  aa   000000 002701
    013336  aa   000000 000000
    013337  aa   163040 040040    1199  	wr8:	vfd a36/s   ,36/i_r,36/r_lines,36/(wr3-l_org)/5,36/0
    013340  aa   000000 000000
    013341  aa   000000 000174
    013342  aa   000000 002203
    013343  aa   000000 000000
    013344  aa   040040 040040    1200  		vfd a36/    ,36/i_n,36/0,36/(wr3-l_org)/5,36/0
    013345  aa   000000 000002
    013346  aa   000000 000000
    013347  aa   000000 002203
    013350  aa   000000 000000
    013351  aa   163040 040040    1201  	wr1:	vfd a36/s   ,36/i_s,36/(sid-l_org)/5,36/(wr8-l_org)/5,36/0
    013352  aa   000000 000003
    013353  aa   000000 002347
    013354  aa   000000 002223
    013355  aa   000000 000000
    013356  aa   040040 040040    1202  		vfd a36/    ,36/i_n,36/0,36/(wr6-l_org)/5,36/0
    013357  aa   000000 000002
    013360  aa   000000 000000
    013361  aa   000000 002220
    013362  aa   000000 000000
    013363  aa   163040 040040    1203  	examine:	vfd a36/s   ,36/i_r,36/r_examine,36/(l_365-l_org)/5,36/0
    013364  aa   000000 000000
    013365  aa   000000 000062
    013366  aa   000000 002230
    013367  aa   000000 000000
    013370  aa   163040 040040    1204  l_365:		vfd a36/s   ,36/i_s,36/(sid-l_org)/5,36/(l_366-l_org)/5,36/0
    013371  aa   000000 000003
    013372  aa   000000 002347
    013373  aa   000000 002232
    013374  aa   000000 000000
    013375  aa   040040 040040    1205  		vfd a36/    ,36/i_n,36/0,36/(r_2-l_org)/5,36/0
    013376  aa   000000 000002
    013377  aa   000000 000000
    013400  aa   000000 002701
    013401  aa   000000 000000
    013402  aa   163040 040040    1206  l_366:		vfd a36/s   ,36/i_r,36/r_tallying,36/(l_367-l_org)/5,36/0
    013403  aa   000000 000000
    013404  aa   000000 000243
    013405  aa   000000 002233
    013406  aa   000000 000000
    013407  aa   163040 040040    1207  l_367:		vfd a36/s   ,36/i_r,36/r_replacing,36/(ex1-l_org)/5,36/a_94
    013410  aa   000000 000000
    013411  aa   000000 000230
    013412  aa   000000 002241
    013413  aa   000000 000136
    013414  aa   040040 040040    1208  		vfd a36/    ,36/i_n,36/0,36/(r_2-l_org)/5,36/0
    013415  aa   000000 000002
    013416  aa   000000 000000
    013417  aa   000000 002701
    013420  aa   000000 000000
    013421  aa   163040 040040    1209  l_368:		vfd a36/s   ,36/i_r,36/r_all,36/(ex3-l_org)/5,36/0
    013422  aa   000000 000000
    013423  aa   000000 000111
    013424  aa   000000 002246
    013425  aa   000000 000000
    013426  aa   163040 040040    1210  		vfd a36/s   ,36/i_r,36/r_leading,36/(ex3-l_org)/5,36/0
    013427  aa   000000 000000
    013430  aa   000000 000172
    013431  aa   000000 002246
    013432  aa   000000 000000
    013433  aa   163040 040040    1211  		vfd a36/s   ,36/i_r,36/r_until,36/(ex4-l_org)/5,36/0
    013434  aa   000000 000000
    013435  aa   000000 000255
    013436  aa   000000 002250
    013437  aa   000000 000000
    013440  aa   040040 040040    1212  		vfd a36/    ,36/i_n,36/0,36/(r_2-l_org)/5,36/0
    013441  aa   000000 000002
    013442  aa   000000 000000
    013443  aa   000000 002701
    013444  aa   000000 000000
    013445  aa   163040 040040    1213  	ex1:	vfd a36/s   ,36/i_r,36/r_all,36/(ex7-l_org)/5,36/0
    013446  aa   000000 000000
    013447  aa   000000 000111
    013450  aa   000000 002256
    013451  aa   000000 000000
    013452  aa   163040 040040    1214  		vfd a36/s   ,36/i_r,36/r_leading,36/(ex7-l_org)/5,36/0
    013453  aa   000000 000000
    013454  aa   000000 000172
    013455  aa   000000 002256
    013456  aa   000000 000000
    013457  aa   163040 040040    1215  		vfd a36/s   ,36/i_r,36/r_until,36/(ex8-l_org)/5,36/0
    013460  aa   000000 000000
    013461  aa   000000 000255
    013462  aa   000000 002260
    013463  aa   000000 000000
    013464  aa   163040 040040    1216  		vfd a36/s   ,36/i_r,36/r_first,36/(ex7-l_org)/5,36/0
    013465  aa   000000 000000
    013466  aa   000000 000155
    013467  aa   000000 002256
    013470  aa   000000 000000
    013471  aa   040040 040040    1217  		vfd a36/    ,36/i_n,36/0,36/(r_2-l_org)/5,36/0
    013472  aa   000000 000002
    013473  aa   000000 000000
    013474  aa   000000 002701
    013475  aa   000000 000000
    013476  aa   163040 040040    1218  	ex3:	vfd a36/s   ,36/i_c,36/c_examlitid,36/(ex5-l_org)/5,36/0
    013477  aa   000000 000001
    013500  aa   000000 000121
    013501  aa   000000 002252
    013502  aa   000000 000000
    013503  aa   040040 040040    1219  		vfd a36/    ,36/i_n,36/0,36/(r_2-l_org)/5,36/0
    013504  aa   000000 000002
    013505  aa   000000 000000
    013506  aa   000000 002701
    013507  aa   000000 000000
    013510  aa   163040 040040    1220  	ex4:	vfd a36/s   ,36/i_r,36/r_first,36/(ex3-l_org)/5,36/0
    013511  aa   000000 000000
    013512  aa   000000 000155
    013513  aa   000000 002246
    013514  aa   000000 000000
    013515  aa   040040 040040    1221  		vfd a36/    ,36/i_n,36/0,36/(r_2-l_org)/5,36/0
    013516  aa   000000 000002
    013517  aa   000000 000000
    013520  aa   000000 002701
    013521  aa   000000 000000
    013522  aa   163040 040040    1222  	ex5:	vfd a36/s   ,36/i_r,36/r_replacing,36/(l_369-l_org)/5,36/a_94
    013523  aa   000000 000000
    013524  aa   000000 000230
    013525  aa   000000 002253
    013526  aa   000000 000136
    013527  aa   163040 040040    1223  l_369:		vfd a36/s   ,36/i_r,36/r_by,36/(l_370-l_org)/5,36/0
    013530  aa   000000 000000
    013531  aa   000000 000122
    013532  aa   000000 002254
    013533  aa   000000 000000
    013534  aa   163040 040040    1224  l_370:		vfd a36/s   ,36/i_c,36/c_examlitid,36/(verb1-l_org)/5,36/0
    013535  aa   000000 000001
    013536  aa   000000 000121
    013537  aa   000000 002362
    013540  aa   000000 000000
    013541  aa   040040 040040    1225  		vfd a36/    ,36/i_n,36/0,36/(r_2-l_org)/5,36/0
    013542  aa   000000 000002
    013543  aa   000000 000000
    013544  aa   000000 002701
    013545  aa   000000 000000
    013546  aa   163040 040040    1226  	ex7:	vfd a36/s   ,36/i_c,36/c_examlitid,36/(ex9-l_org)/5,36/0
    013547  aa   000000 000001
    013550  aa   000000 000121
    013551  aa   000000 002262
    013552  aa   000000 000000
    013553  aa   040040 040040    1227  		vfd a36/    ,36/i_n,36/0,36/(r_2-l_org)/5,36/0
    013554  aa   000000 000002
    013555  aa   000000 000000
    013556  aa   000000 002701
    013557  aa   000000 000000
    013560  aa   163040 040040    1228  	ex8:	vfd a36/s   ,36/i_r,36/r_first,36/(ex7-l_org)/5,36/0
    013561  aa   000000 000000
    013562  aa   000000 000155
    013563  aa   000000 002256
    013564  aa   000000 000000
    013565  aa   040040 040040    1229  		vfd a36/    ,36/i_n,36/0,36/(r_2-l_org)/5,36/0
    013566  aa   000000 000002
    013567  aa   000000 000000
    013570  aa   000000 002701
    013571  aa   000000 000000
    013572  aa   163040 040040    1230  	ex9:	vfd a36/s   ,36/i_r,36/r_by,36/(l_371-l_org)/5,36/0
    013573  aa   000000 000000
    013574  aa   000000 000122
    013575  aa   000000 002264
    013576  aa   000000 000000
    013577  aa   040040 040040    1231  		vfd a36/    ,36/i_n,36/0,36/(r_2-l_org)/5,36/0
    013600  aa   000000 000002
    013601  aa   000000 000000
    013602  aa   000000 002701
    013603  aa   000000 000000
    013604  aa   163040 040040    1232  l_371:		vfd a36/s   ,36/i_c,36/c_examlitid,36/(verb1-l_org)/5,36/0
    013605  aa   000000 000001
    013606  aa   000000 000121
    013607  aa   000000 002362
    013610  aa   000000 000000
    013611  aa   040040 040040    1233  		vfd a36/    ,36/i_n,36/0,36/(r_2-l_org)/5,36/0
    013612  aa   000000 000002
    013613  aa   000000 000000
    013614  aa   000000 002701
    013615  aa   000000 000000
    013616  aa   163040 040040    1234  	transform:	vfd a36/s   ,36/i_r,36/r_transform,36/(l_372-l_org)/5,36/0
    013617  aa   000000 000000
    013620  aa   000000 000063
    013621  aa   000000 002267
    013622  aa   000000 000000
    013623  aa   040040 040040    1235  l_372:		vfd a36/    ,36/i_c,36/c_elaanne,36/(l_373-l_org)/5,36/0
    013624  aa   000000 000001
    013625  aa   000000 000225
    013626  aa   000000 002271
    013627  aa   000000 000000
    013630  aa   040040 040040    1236  		vfd a36/    ,36/i_n,36/0,36/(r_2-l_org)/5,36/0
    013631  aa   000000 000002
    013632  aa   000000 000000
    013633  aa   000000 002701
    013634  aa   000000 000000
    013635  aa   163040 040040    1237  l_373:		vfd a36/s   ,36/i_s,36/(rid-l_org)/5,36/(l_374-l_org)/5,36/0
    013636  aa   000000 000003
    013637  aa   000000 002353
    013640  aa   000000 002272
    013641  aa   000000 000000
    013642  aa   163040 040040    1238  l_374:		vfd a36/s   ,36/i_r,36/r_characters,36/(l_375-l_org)/5,36/0
    013643  aa   000000 000000
    013644  aa   000000 000123
    013645  aa   000000 002273
    013646  aa   000000 000000
    013647  aa   163040 040040    1239  l_375:		vfd a36/s   ,36/i_r,36/r_from,36/(l_376-l_org)/5,36/0
    013650  aa   000000 000000
    013651  aa   000000 000157
    013652  aa   000000 002275
    013653  aa   000000 000000
    013654  aa   040040 040040    1240  		vfd a36/    ,36/i_n,36/0,36/(r_2-l_org)/5,36/0
    013655  aa   000000 000002
    013656  aa   000000 000000
    013657  aa   000000 002701
    013660  aa   000000 000000
    013661  aa   163040 040040    1241  l_376:		vfd a36/s   ,36/i_c,36/c_figconall,36/(l_377-l_org)/5,36/0
    013662  aa   000000 000001
    013663  aa   000000 000026
    013664  aa   000000 002301
    013665  aa   000000 000000
    013666  aa   163040 040040    1242  		vfd a36/s   ,36/i_c,36/c_nonumlit,36/(l_377-l_org)/5,36/0
    013667  aa   000000 000001
    013670  aa   000000 000017
    013671  aa   000000 002301
    013672  aa   000000 000000
    013673  aa   163040 040040    1243  		vfd a36/s   ,36/i_s,36/(ident-l_org)/5,36/(l_377-l_org)/5,36/0
    013674  aa   000000 000003
    013675  aa   000000 002326
    013676  aa   000000 002301
    013677  aa   000000 000000
    013700  aa   040040 040040    1244  		vfd a36/    ,36/i_n,36/0,36/(r_2-l_org)/5,36/0
    013701  aa   000000 000002
    013702  aa   000000 000000
    013703  aa   000000 002701
    013704  aa   000000 000000
    013705  aa   163040 040040    1245  l_377:		vfd a36/s   ,36/i_r,36/r_to,36/(l_378-l_org)/5,36/0
    013706  aa   000000 000000
    013707  aa   000000 000252
    013710  aa   000000 002303
    013711  aa   000000 000000
    013712  aa   040040 040040    1246  		vfd a36/    ,36/i_n,36/0,36/(r_2-l_org)/5,36/0
    013713  aa   000000 000002
    013714  aa   000000 000000
    013715  aa   000000 002701
    013716  aa   000000 000000
    013717  aa   163040 040040    1247  l_378:		vfd a36/s   ,36/i_c,36/c_figconall,36/(verb1-l_org)/5,36/0
    013720  aa   000000 000001
    013721  aa   000000 000026
    013722  aa   000000 002362
    013723  aa   000000 000000
    013724  aa   163040 040040    1248  		vfd a36/s   ,36/i_c,36/c_nonumlit,36/(verb1-l_org)/5,36/0
    013725  aa   000000 000001
    013726  aa   000000 000017
    013727  aa   000000 002362
    013730  aa   000000 000000
    013731  aa   163040 040040    1249  		vfd a36/s   ,36/i_s,36/(ident-l_org)/5,36/(verb1-l_org)/5,36/0
    013732  aa   000000 000003
    013733  aa   000000 002326
    013734  aa   000000 002362
    013735  aa   000000 000000
    013736  aa   040040 040040    1250  		vfd a36/    ,36/i_n,36/0,36/(r_2-l_org)/5,36/0
    013737  aa   000000 000002
    013740  aa   000000 000000
    013741  aa   000000 002701
    013742  aa   000000 000000
    013743  aa   163040 040040    1251  	delete:	vfd a36/s   ,36/i_r,36/r_delete,36/(l_379-l_org)/5,36/a_29
    013744  aa   000000 000000
    013745  aa   000000 000026
    013746  aa   000000 002310
    013747  aa   000000 000035
    013750  aa   163040 040040    1252  l_379:		vfd a36/s   ,36/i_c,36/c_filenm,36/(l_380-l_org)/5,36/a_60
    013751  aa   000000 000001
    013752  aa   000000 000005
    013753  aa   000000 002312
    013754  aa   000000 000074
    013755  aa   040040 040040    1253  		vfd a36/    ,36/i_n,36/0,36/(r_2-l_org)/5,36/0
    013756  aa   000000 000002
    013757  aa   000000 000000
    013760  aa   000000 002701
    013761  aa   000000 000000
    013762  aa   163040 040040    1254  l_380:		vfd a36/s   ,36/i_r,36/r_record,36/(l_381-l_org)/5,36/0
    013763  aa   000000 000000
    013764  aa   000000 000224
    013765  aa   000000 002313
    013766  aa   000000 000000
    013767  aa   163040 040040    1255  l_381:		vfd a36/s   ,36/i_r,36/r_not,36/(l_382-l_org)/5,36/a_97
    013770  aa   000000 000000
    013771  aa   000000 000202
    013772  aa   000000 002316
    013773  aa   000000 000141
    013774  aa   163040 040040    1256  		vfd a36/s   ,36/i_r,36/r_invalid,36/(o_inv-l_org)/5,36/a_100
    013775  aa   000000 000000
    013776  aa   000000 000165
    013777  aa   000000 002401
    014000  aa   000000 000144
    014001  aa   040040 040040    1257  		vfd a36/    ,36/i_n,36/0,36/(cverb-l_org)/5,36/0
    014002  aa   000000 000002
    014003  aa   000000 000000
    014004  aa   000000 002361
    014005  aa   000000 000000
    014006  aa   163040 040040    1258  l_382:		vfd a36/s   ,36/i_r,36/r_invalid,36/(o_inv-l_org)/5,36/0
    014007  aa   000000 000000
    014010  aa   000000 000165
    014011  aa   000000 002401
    014012  aa   000000 000000
    014013  aa   040040 040040    1259  		vfd a36/    ,36/i_n,36/0,36/(r_2-l_org)/5,36/0
    014014  aa   000000 000002
    014015  aa   000000 000000
    014016  aa   000000 002701
    014017  aa   000000 000000
    014020  aa   163040 040040    1260  	suppress:	vfd a36/s   ,36/i_r,36/r_suppress,36/(sup1-l_org)/5,36/0
    014021  aa   000000 000000
    014022  aa   000000 000071
    014023  aa   000000 002321
    014024  aa   000000 000000
    014025  aa   163040 040040    1261  	sup1:	vfd a36/s   ,36/i_r,36/r_printing,36/(verb1-l_org)/5,36/0
    014026  aa   000000 000000
    014027  aa   000000 001057
    014030  aa   000000 002362
    014031  aa   000000 000000
    014032  aa   040040 040040    1262  		vfd a36/    ,36/i_n,36/0,36/(verb1-l_org)/5,36/0
    014033  aa   000000 000002
    014034  aa   000000 000000
    014035  aa   000000 002362
    014036  aa   000000 000000
    014037  aa   040040 040040    1263  	xdname:	vfd a36/    ,36/i_c,36/c_unxdnm,36/(succ-l_org)/5,36/0
    014040  aa   000000 000001
    014041  aa   000000 000212
    014042  aa   000000 002750
    014043  aa   000000 000000
    014044  aa   163040 040040    1264  		vfd a36/s   ,36/i_c,36/c_suxdnm,36/(ident_5-l_org)/5,36/0
    014045  aa   000000 000001
    014046  aa   000000 000226
    014047  aa   000000 002331
    014050  aa   000000 000000
    014051  aa   040040 040040    1265  		vfd a36/    ,36/i_n,36/0,36/(fail-l_org)/5,36/0
    014052  aa   000000 000002
    014053  aa   000000 000000
    014054  aa   000000 002751
    014055  aa   000000 000000
    014056  aa   040040 040040    1266  	ident:	vfd a36/    ,36/i_c,36/c_undana,36/(succ-l_org)/5,36/0
    014057  aa   000000 000001
    014060  aa   000000 000111
    014061  aa   000000 002750
    014062  aa   000000 000000
    014063  aa   163040 040040    1267  		vfd a36/s   ,36/i_c,36/c_sudana,36/(l_383-l_org)/5,36/0
    014064  aa   000000 000001
    014065  aa   000000 000112
    014066  aa   000000 002331
    014067  aa   000000 000000
    014070  aa   040040 040040    1268  		vfd a36/    ,36/i_n,36/0,36/(fail-l_org)/5,36/0
    014071  aa   000000 000002
    014072  aa   000000 000000
    014073  aa   000000 002751
    014074  aa   000000 000000
    014075  aa   163040 040040    1269  l_383:	ident_5:	vfd a36/s   ,36/i_r,36/r_lt,36/(l_384-l_org)/5,36/a_45
    014076  aa   000000 000000
    014077  aa   000000 000273
    014100  aa   000000 002333
    014101  aa   000000 000055
    014102  aa   040040 040040    1270  		vfd a36/    ,36/i_n,36/0,36/(succ-l_org)/5,36/0
    014103  aa   000000 000002
    014104  aa   000000 000000
    014105  aa   000000 002750
    014106  aa   000000 000000
    014107  aa   163040 040040    1271  l_384:	ident_2:	vfd a36/s   ,36/i_c,36/c_pigz,36/(l_385-l_org)/5,36/a_46
    014110  aa   000000 000001
    014111  aa   000000 000116
    014112  aa   000000 002337
    014113  aa   000000 000056
    014114  aa   163040 040040    1272  		vfd a36/s   ,36/i_c,36/c_xnm,36/(ident_3-l_org)/5,36/a_46
    014115  aa   000000 000001
    014116  aa   000000 000041
    014117  aa   000000 002342
    014120  aa   000000 000056
    014121  aa   163040 040040    1273  		vfd a36/s   ,36/i_c,36/c_udneli,36/(l_385-l_org)/5,36/a_46
    014122  aa   000000 000001
    014123  aa   000000 000272
    014124  aa   000000 002337
    014125  aa   000000 000056
    014126  aa   040040 040040    1274  		vfd a36/    ,36/i_n,36/0,36/(r_2-l_org)/5,36/0
    014127  aa   000000 000002
    014130  aa   000000 000000
    014131  aa   000000 002701
    014132  aa   000000 000000
    014133  aa   040040 040040    1275  l_385:	ident_1:	vfd a36/    ,36/i_r,36/r_rt,36/(succ-l_org)/5,36/0
    014134  aa   000000 000000
    014135  aa   000000 000274
    014136  aa   000000 002750
    014137  aa   000000 000000
    014140  aa   040040 040040    1276  		vfd a36/    ,36/i_c,36/c_ieqlvl,36/(ident_2-l_org)/5,36/0
    014141  aa   000000 000001
    014142  aa   000000 000113
    014143  aa   000000 002333
    014144  aa   000000 000000
    014145  aa   040040 040040    1277  		vfd a36/    ,36/i_n,36/0,36/(r_2-l_org)/5,36/0
    014146  aa   000000 000002
    014147  aa   000000 000000
    014150  aa   000000 002701
    014151  aa   000000 000000
    014152  aa   163040 040040    1278  	ident_3:	vfd a36/s   ,36/i_r,36/r_pls,36/(l_386-l_org)/5,36/0
    014153  aa   000000 000000
    014154  aa   000000 000266
    014155  aa   000000 002345
    014156  aa   000000 000000
    014157  aa   163040 040040    1279  		vfd a36/s   ,36/i_r,36/r_sub,36/(l_386-l_org)/5,36/0
    014160  aa   000000 000000
    014161  aa   000000 000267
    014162  aa   000000 002345
    014163  aa   000000 000000
    014164  aa   040040 040040    1280  		vfd a36/    ,36/i_n,36/0,36/(ident_1-l_org)/5,36/0
    014165  aa   000000 000002
    014166  aa   000000 000000
    014167  aa   000000 002337
    014170  aa   000000 000000
    014171  aa   163040 040040    1281  l_386:		vfd a36/s   ,36/i_c,36/c_unsint,36/(ident_1-l_org)/5,36/a_65
    014172  aa   000000 000001
    014173  aa   000000 000117
    014174  aa   000000 002337
    014175  aa   000000 000101
    014176  aa   040040 040040    1282  		vfd a36/    ,36/i_n,36/0,36/(r_2-l_org)/5,36/0
    014177  aa   000000 000002
    014200  aa   000000 000000
    014201  aa   000000 002701
    014202  aa   000000 000000
    014203  aa   040040 040040    1283  	sid:	vfd a36/    ,36/i_c,36/c_type9,36/(l_387-l_org)/5,36/a_59
    014204  aa   000000 000001
    014205  aa   000000 000302
    014206  aa   000000 002351
    014207  aa   000000 000073
    014210  aa   040040 040040    1284  		vfd a36/    ,36/i_n,36/0,36/(fail-l_org)/5,36/0
    014211  aa   000000 000002
    014212  aa   000000 000000
    014213  aa   000000 002751
    014214  aa   000000 000000
    014215  aa   040040 040040    1285  l_387:		vfd a36/    ,36/i_s,36/(ident-l_org)/5,36/(succ-l_org)/5,36/a_114
    014216  aa   000000 000003
    014217  aa   000000 002326
    014220  aa   000000 002750
    014221  aa   000000 000162
    014222  aa   040040 040040    1286  		vfd a36/    ,36/i_n,36/0,36/(fail-l_org)/5,36/0
    014223  aa   000000 000002
    014224  aa   000000 000000
    014225  aa   000000 002751
    014226  aa   000000 000000
    014227  aa   040040 040040    1287  	rid:	vfd a36/    ,36/i_c,36/c_edalit,36/(l_388-l_org)/5,36/a_60
    014230  aa   000000 000001
    014231  aa   000000 000164
    014232  aa   000000 002355
    014233  aa   000000 000074
    014234  aa   040040 040040    1288  		vfd a36/    ,36/i_n,36/0,36/(fail-l_org)/5,36/0
    014235  aa   000000 000002
    014236  aa   000000 000000
    014237  aa   000000 002751
    014240  aa   000000 000000
    014241  aa   040040 040040    1289  l_388:		vfd a36/    ,36/i_s,36/(ident-l_org)/5,36/(succ-l_org)/5,36/a_114
    014242  aa   000000 000003
    014243  aa   000000 002326
    014244  aa   000000 002750
    014245  aa   000000 000162
    014246  aa   040040 040040    1290  		vfd a36/    ,36/i_n,36/0,36/(fail-l_org)/5,36/0
    014247  aa   000000 000002
    014250  aa   000000 000000
    014251  aa   000000 002751
    014252  aa   000000 000000
    014253  aa   040040 040040    1291  	verb:	vfd a36/    ,36/i_c,36/c_verb,36/(succ-l_org)/5,36/a_16
    014254  aa   000000 000001
    014255  aa   000000 000011
    014256  aa   000000 002750
    014257  aa   000000 000020
    014260  aa   040040 040040    1292  		vfd a36/    ,36/i_n,36/0,36/(fail-l_org)/5,36/0
    014261  aa   000000 000002
    014262  aa   000000 000000
    014263  aa   000000 002751
    014264  aa   000000 000000
    014265  aa   040040 040040    1293  	cverb:	vfd a36/    ,36/i_n,36/0,36/(l_389-l_org)/5,36/0
    014266  aa   000000 000002
    014267  aa   000000 000000
    014270  aa   000000 002362
    014271  aa   000000 000000
    014272  aa   040040 040040    1294  l_389:	verb1:	vfd a36/    ,36/i_n,36/0,36/(l_390-l_org)/5,36/a_eos
    014273  aa   000000 000002
    014274  aa   000000 000000
    014275  aa   000000 002363
    014276  aa   000000 000126
    014277  aa   040040 040040    1295  l_390:	verb2:	vfd a36/    ,36/i_c,36/c_impvrb,36/(succ-l_org)/5,36/a_16
    014300  aa   000000 000001
    014301  aa   000000 000051
    014302  aa   000000 002750
    014303  aa   000000 000020
    014304  aa   040040 040040    1296  		vfd a36/    ,36/i_n,36/0,36/(succ-l_org)/5,36/0
    014305  aa   000000 000002
    014306  aa   000000 000000
    014307  aa   000000 002750
    014310  aa   000000 000000
    014311  aa   040040 040040    1297  	o_ae:	vfd a36/    ,36/i_s,36/(ate1-l_org)/5,36/(l_391-l_org)/5,36/0
    014312  aa   000000 000003
    014313  aa   000000 002606
    014314  aa   000000 002366
    014315  aa   000000 000000
    014316  aa   040040 040040    1298  l_391:	o_ae1:	vfd a36/    ,36/i_n,36/0,36/(l_392-l_org)/5,36/a_103
    014317  aa   000000 000002
    014320  aa   000000 000000
    014321  aa   000000 002367
    014322  aa   000000 000147
    014323  aa   040040 040040    1299  l_392:		vfd a36/    ,36/i_s,36/(imp-l_org)/5,36/(l_393-l_org)/5,36/0
    014324  aa   000000 000003
    014325  aa   000000 002613
    014326  aa   000000 002370
    014327  aa   000000 000000
    014330  aa   040040 040040    1300  l_393:		vfd a36/    ,36/i_c,36/c_not_opt,36/(o_ae2-l_org)/5,36/0
    014331  aa   000000 000001
    014332  aa   000000 000013
    014333  aa   000000 002375
    014334  aa   000000 000000
    014335  aa   163040 040040    1301  l_394:		vfd a36/s   ,36/i_r,36/r_not,36/(o_ae2-l_org)/5,36/0
    014336  aa   000000 000000
    014337  aa   000000 000202
    014340  aa   000000 002375
    014341  aa   000000 000000
    014342  aa   163040 040040    1302  	endwd:	vfd a36/s   ,36/i_s,36/(end_word-l_org)/5,36/(l_395-l_org)/5,36/a_74
    014343  aa   000000 000003
    014344  aa   000000 002463
    014345  aa   000000 002374
    014346  aa   000000 000112
    014347  aa   040040 040040    1303  		vfd a36/    ,36/i_n,36/0,36/(verb2-l_org)/5,36/a_105
    014350  aa   000000 000002
    014351  aa   000000 000000
    014352  aa   000000 002363
    014353  aa   000000 000151
    014354  aa   040040 040040    1304  l_395:	endwd1:	vfd a36/    ,36/i_n,36/0,36/(verb2-l_org)/5,36/a_104
    014355  aa   000000 000002
    014356  aa   000000 000000
    014357  aa   000000 002363
    014360  aa   000000 000150
    014361  aa   040040 040040    1305  	o_ae2:	vfd a36/    ,36/i_s,36/(ate-l_org)/5,36/(l_396-l_org)/5,36/a_104
    014362  aa   000000 000003
    014363  aa   000000 002605
    014364  aa   000000 002376
    014365  aa   000000 000150
    014366  aa   040040 040040    1306  l_396:	endwd2:	vfd a36/    ,36/i_s,36/(imp-l_org)/5,36/(l_397-l_org)/5,36/0
    014367  aa   000000 000003
    014370  aa   000000 002613
    014371  aa   000000 002377
    014372  aa   000000 000000
    014373  aa   163040 040040    1307  l_397:		vfd a36/s   ,36/i_s,36/(end_word-l_org)/5,36/(endwd1-l_org)/5,36/a_74
    014374  aa   000000 000003
    014375  aa   000000 002463
    014376  aa   000000 002374
    014377  aa   000000 000112
    014400  aa   040040 040040    1308  		vfd a36/    ,36/i_n,36/0,36/(r_2-l_org)/5,36/0
    014401  aa   000000 000002
    014402  aa   000000 000000
    014403  aa   000000 002701
    014404  aa   000000 000000
    014405  aa   163040 040040    1309  	o_inv:	vfd a36/s   ,36/i_r,36/r_key,36/(l_398-l_org)/5,36/0
    014406  aa   000000 000000
    014407  aa   000000 000170
    014410  aa   000000 002402
    014411  aa   000000 000000
    014412  aa   040040 040040    1310  l_398:		vfd a36/    ,36/i_n,36/0,36/(l_399-l_org)/5,36/a_103
    014413  aa   000000 000002
    014414  aa   000000 000000
    014415  aa   000000 002403
    014416  aa   000000 000147
    014417  aa   040040 040040    1311  l_399:		vfd a36/    ,36/i_s,36/(imp-l_org)/5,36/(l_400-l_org)/5,36/0
    014420  aa   000000 000003
    014421  aa   000000 002613
    014422  aa   000000 002404
    014423  aa   000000 000000
    014424  aa   040040 040040    1312  l_400:		vfd a36/    ,36/i_c,36/c_not_opt,36/(o_inv1-l_org)/5,36/0
    014425  aa   000000 000001
    014426  aa   000000 000013
    014427  aa   000000 002407
    014430  aa   000000 000000
    014431  aa   163040 040040    1313  l_401:		vfd a36/s   ,36/i_r,36/r_not,36/(l_402-l_org)/5,36/0
    014432  aa   000000 000000
    014433  aa   000000 000202
    014434  aa   000000 002407
    014435  aa   000000 000000
    014436  aa   040040 040040    1314  		vfd a36/    ,36/i_n,36/0,36/(endwd-l_org)/5,36/0
    014437  aa   000000 000002
    014440  aa   000000 000000
    014441  aa   000000 002372
    014442  aa   000000 000000
    014443  aa   040040 040040    1315  l_402:	o_inv1:	vfd a36/    ,36/i_s,36/(ik-l_org)/5,36/(endwd2-l_org)/5,36/a_104
    014444  aa   000000 000003
    014445  aa   000000 002610
    014446  aa   000000 002376
    014447  aa   000000 000150
    014450  aa   040040 040040    1316  		vfd a36/    ,36/i_n,36/0,36/(endwd2-l_org)/5,36/0
    014451  aa   000000 000002
    014452  aa   000000 000000
    014453  aa   000000 002376
    014454  aa   000000 000000
    014455  aa   040040 040040    1317  	o_eop:	vfd a36/    ,36/i_s,36/(eop1-l_org)/5,36/(l_403-l_org)/5,36/0
    014456  aa   000000 000003
    014457  aa   000000 002565
    014460  aa   000000 002412
    014461  aa   000000 000000
    014462  aa   040040 040040    1318  l_403:	o_eop1:	vfd a36/    ,36/i_n,36/0,36/(l_404-l_org)/5,36/a_103
    014463  aa   000000 000002
    014464  aa   000000 000000
    014465  aa   000000 002413
    014466  aa   000000 000147
    014467  aa   040040 040040    1319  l_404:		vfd a36/    ,36/i_s,36/(imp-l_org)/5,36/(l_405-l_org)/5,36/0
    014470  aa   000000 000003
    014471  aa   000000 002613
    014472  aa   000000 002414
    014473  aa   000000 000000
    014474  aa   040040 040040    1320  l_405:		vfd a36/    ,36/i_c,36/c_not_opt,36/(o_eop2-l_org)/5,36/0
    014475  aa   000000 000001
    014476  aa   000000 000013
    014477  aa   000000 002417
    014500  aa   000000 000000
    014501  aa   163040 040040    1321  l_406:		vfd a36/s   ,36/i_r,36/r_not,36/(o_eop2-l_org)/5,36/0
    014502  aa   000000 000000
    014503  aa   000000 000202
    014504  aa   000000 002417
    014505  aa   000000 000000
    014506  aa   040040 040040    1322  		vfd a36/    ,36/i_n,36/0,36/(endwd-l_org)/5,36/0
    014507  aa   000000 000002
    014510  aa   000000 000000
    014511  aa   000000 002372
    014512  aa   000000 000000
    014513  aa   040040 040040    1323  	o_eop2:	vfd a36/    ,36/i_s,36/(eop-l_org)/5,36/(endwd2-l_org)/5,36/a_104
    014514  aa   000000 000003
    014515  aa   000000 002564
    014516  aa   000000 002376
    014517  aa   000000 000150
    014520  aa   040040 040040    1324  		vfd a36/    ,36/i_n,36/0,36/(endwd2-l_org)/5,36/0
    014521  aa   000000 000002
    014522  aa   000000 000000
    014523  aa   000000 002376
    014524  aa   000000 000000
    014525  aa   040040 040040    1325  	o_se:	vfd a36/    ,36/i_s,36/(ose1-l_org)/5,36/(o_se2-l_org)/5,36/0
    014526  aa   000000 000003
    014527  aa   000000 002576
    014530  aa   000000 002423
    014531  aa   000000 000000
    014532  aa   040040 040040    1326  	o_se1:	vfd a36/    ,36/i_s,36/(ose2-l_org)/5,36/(l_407-l_org)/5,36/0
    014533  aa   000000 000003
    014534  aa   000000 002600
    014535  aa   000000 002423
    014536  aa   000000 000000
    014537  aa   040040 040040    1327  l_407:	o_se2:	vfd a36/    ,36/i_n,36/0,36/(l_408-l_org)/5,36/a_103
    014540  aa   000000 000002
    014541  aa   000000 000000
    014542  aa   000000 002424
    014543  aa   000000 000147
    014544  aa   040040 040040    1328  l_408:		vfd a36/    ,36/i_s,36/(imp-l_org)/5,36/(l_409-l_org)/5,36/0
    014545  aa   000000 000003
    014546  aa   000000 002613
    014547  aa   000000 002425
    014550  aa   000000 000000
    014551  aa   040040 040040    1329  l_409:		vfd a36/    ,36/i_c,36/c_not_opt,36/(o_se3-l_org)/5,36/0
    014552  aa   000000 000001
    014553  aa   000000 000013
    014554  aa   000000 002430
    014555  aa   000000 000000
    014556  aa   163040 040040    1330  l_410:		vfd a36/s   ,36/i_r,36/r_not,36/(l_411-l_org)/5,36/0
    014557  aa   000000 000000
    014560  aa   000000 000202
    014561  aa   000000 002430
    014562  aa   000000 000000
    014563  aa   040040 040040    1331  		vfd a36/    ,36/i_n,36/0,36/(endwd-l_org)/5,36/0
    014564  aa   000000 000002
    014565  aa   000000 000000
    014566  aa   000000 002372
    014567  aa   000000 000000
    014570  aa   040040 040040    1332  l_411:	o_se3:	vfd a36/    ,36/i_s,36/(ose-l_org)/5,36/(endwd2-l_org)/5,36/a_104
    014571  aa   000000 000003
    014572  aa   000000 002573
    014573  aa   000000 002376
    014574  aa   000000 000150
    014575  aa   040040 040040    1333  		vfd a36/    ,36/i_n,36/0,36/(endwd2-l_org)/5,36/0
    014576  aa   000000 000002
    014577  aa   000000 000000
    014600  aa   000000 002376
    014601  aa   000000 000000
    014602  aa   040040 040040    1334  	o_ov:	vfd a36/    ,36/i_s,36/(ov1-l_org)/5,36/(l_412-l_org)/5,36/0
    014603  aa   000000 000003
    014604  aa   000000 002562
    014605  aa   000000 002433
    014606  aa   000000 000000
    014607  aa   040040 040040    1335  l_412:	o_ov1:	vfd a36/    ,36/i_n,36/0,36/(l_413-l_org)/5,36/a_103
    014610  aa   000000 000002
    014611  aa   000000 000000
    014612  aa   000000 002434
    014613  aa   000000 000147
    014614  aa   040040 040040    1336  l_413:		vfd a36/    ,36/i_s,36/(imp-l_org)/5,36/(l_414-l_org)/5,36/0
    014615  aa   000000 000003
    014616  aa   000000 002613
    014617  aa   000000 002435
    014620  aa   000000 000000
    014621  aa   040040 040040    1337  l_414:		vfd a36/    ,36/i_c,36/c_not_opt,36/(o_ov2-l_org)/5,36/0
    014622  aa   000000 000001
    014623  aa   000000 000013
    014624  aa   000000 002441
    014625  aa   000000 000000
    014626  aa   040040 040040    1338  		vfd a36/    ,36/i_n,36/0,36/(endwd-l_org)/5,36/0
    014627  aa   000000 000002
    014630  aa   000000 000000
    014631  aa   000000 002372
    014632  aa   000000 000000
    014633  aa   163040 040040    1339  l_415:		vfd a36/s   ,36/i_r,36/r_not,36/(l_416-l_org)/5,36/0
    014634  aa   000000 000000
    014635  aa   000000 000202
    014636  aa   000000 002441
    014637  aa   000000 000000
    014640  aa   040040 040040    1340  		vfd a36/    ,36/i_n,36/0,36/(endwd-l_org)/5,36/0
    014641  aa   000000 000002
    014642  aa   000000 000000
    014643  aa   000000 002372
    014644  aa   000000 000000
    014645  aa   040040 040040    1341  l_416:	o_ov2:	vfd a36/    ,36/i_s,36/(ov-l_org)/5,36/(endwd2-l_org)/5,36/a_104
    014646  aa   000000 000003
    014647  aa   000000 002561
    014650  aa   000000 002376
    014651  aa   000000 000150
    014652  aa   040040 040040    1342  		vfd a36/    ,36/i_n,36/0,36/(endwd2-l_org)/5,36/0
    014653  aa   000000 000002
    014654  aa   000000 000000
    014655  aa   000000 002376
    014656  aa   000000 000000
    014657  aa   040040 040040    1343  	o_nd:	vfd a36/    ,36/i_n,36/0,36/(l_417-l_org)/5,36/a_103
    014660  aa   000000 000002
    014661  aa   000000 000000
    014662  aa   000000 002444
    014663  aa   000000 000147
    014664  aa   040040 040040    1344  l_417:		vfd a36/    ,36/i_s,36/(imp-l_org)/5,36/(l_418-l_org)/5,36/0
    014665  aa   000000 000003
    014666  aa   000000 002613
    014667  aa   000000 002445
    014670  aa   000000 000000
    014671  aa   040040 040040    1345  l_418:		vfd a36/    ,36/i_c,36/c_not_opt,36/(o_nd1-l_org)/5,36/0
    014672  aa   000000 000001
    014673  aa   000000 000013
    014674  aa   000000 002450
    014675  aa   000000 000000
    014676  aa   040040 040040    1346  l_419:		vfd a36/    ,36/i_s,36/(with_data-l_org)/5,36/(endwd2-l_org)/5,36/a_104
    014677  aa   000000 000003
    014700  aa   000000 001366
    014701  aa   000000 002376
    014702  aa   000000 000150
    014703  aa   040040 040040    1347  		vfd a36/    ,36/i_n,36/0,36/(endwd-l_org)/5,36/0
    014704  aa   000000 000002
    014705  aa   000000 000000
    014706  aa   000000 002372
    014707  aa   000000 000000
    014710  aa   040040 040040    1348  	o_nd1:	vfd a36/    ,36/i_s,36/(no_data-l_org)/5,36/(endwd2-l_org)/5,36/a_104
    014711  aa   000000 000003
    014712  aa   000000 001373
    014713  aa   000000 002376
    014714  aa   000000 000150
    014715  aa   040040 040040    1349  		vfd a36/    ,36/i_n,36/0,36/(endwd-l_org)/5,36/0
    014716  aa   000000 000002
    014717  aa   000000 000000
    014720  aa   000000 002372
    014721  aa   000000 000000
    014722  aa   040040 040040    1350  	o_ex:	vfd a36/    ,36/i_s,36/(oe1-l_org)/5,36/(l_420-l_org)/5,36/0
    014723  aa   000000 000003
    014724  aa   000000 002603
    014725  aa   000000 002453
    014726  aa   000000 000000
    014727  aa   040040 040040    1351  l_420:	o_ex1:	vfd a36/    ,36/i_n,36/0,36/(l_421-l_org)/5,36/a_103
    014730  aa   000000 000002
    014731  aa   000000 000000
    014732  aa   000000 002454
    014733  aa   000000 000147
    014734  aa   040040 040040    1352  l_421:		vfd a36/    ,36/i_s,36/(imp-l_org)/5,36/(l_422-l_org)/5,36/0
    014735  aa   000000 000003
    014736  aa   000000 002613
    014737  aa   000000 002455
    014740  aa   000000 000000
    014741  aa   040040 040040    1353  l_422:		vfd a36/    ,36/i_c,36/c_not_opt,36/(o_ex2-l_org)/5,36/0
    014742  aa   000000 000001
    014743  aa   000000 000013
    014744  aa   000000 002461
    014745  aa   000000 000000
    014746  aa   040040 040040    1354  		vfd a36/    ,36/i_n,36/0,36/(endwd-l_org)/5,36/0
    014747  aa   000000 000002
    014750  aa   000000 000000
    014751  aa   000000 002372
    014752  aa   000000 000000
    014753  aa   163040 040040    1355  l_423:		vfd a36/s   ,36/i_r,36/r_not,36/(l_424-l_org)/5,36/0
    014754  aa   000000 000000
    014755  aa   000000 000202
    014756  aa   000000 002461
    014757  aa   000000 000000
    014760  aa   040040 040040    1356  		vfd a36/    ,36/i_n,36/0,36/(endwd-l_org)/5,36/0
    014761  aa   000000 000002
    014762  aa   000000 000000
    014763  aa   000000 002372
    014764  aa   000000 000000
    014765  aa   040040 040040    1357  l_424:	o_ex2:	vfd a36/    ,36/i_s,36/(oe-l_org)/5,36/(endwd2-l_org)/5,36/a_104
    014766  aa   000000 000003
    014767  aa   000000 002602
    014770  aa   000000 002376
    014771  aa   000000 000150
    014772  aa   040040 040040    1358  		vfd a36/    ,36/i_n,36/0,36/(endwd2-l_org)/5,36/0
    014773  aa   000000 000002
    014774  aa   000000 000000
    014775  aa   000000 002376
    014776  aa   000000 000000
    014777  aa   040040 040040    1359  	end_word:	vfd a36/    ,36/i_n,36/0,36/(l_425-l_org)/5,36/a_95
    015000  aa   000000 000002
    015001  aa   000000 000000
    015002  aa   000000 002510
    015003  aa   000000 000137
    015004  aa   040040 040040    1360  		vfd a36/    ,36/i_n,36/0,36/(fail-l_org)/5,36/0
    015005  aa   000000 000002
    015006  aa   000000 000000
    015007  aa   000000 002751
    015010  aa   000000 000000
    015011  aa   040040 040040    1361  		vfd a36/    ,36/i_n,36/0,36/(e_add-l_org)/5,36/0
    015012  aa   000000 000002
    015013  aa   000000 000000
    015014  aa   000000 002510
    015015  aa   000000 000000
    015016  aa   040040 040040    1362  		vfd a36/    ,36/i_n,36/0,36/(e_call-l_org)/5,36/0
    015017  aa   000000 000002
    015020  aa   000000 000000
    015021  aa   000000 002512
    015022  aa   000000 000000
    015023  aa   040040 040040    1363  		vfd a36/    ,36/i_n,36/0,36/(e_comp-l_org)/5,36/0
    015024  aa   000000 000002
    015025  aa   000000 000000
    015026  aa   000000 002514
    015027  aa   000000 000000
    015030  aa   040040 040040    1364  		vfd a36/    ,36/i_n,36/0,36/(e_del-l_org)/5,36/0
    015031  aa   000000 000002
    015032  aa   000000 000000
    015033  aa   000000 002516
    015034  aa   000000 000000
    015035  aa   040040 040040    1365  		vfd a36/    ,36/i_n,36/0,36/(e_div-l_org)/5,36/0
    015036  aa   000000 000002
    015037  aa   000000 000000
    015040  aa   000000 002520
    015041  aa   000000 000000
    015042  aa   040040 040040    1366  		vfd a36/    ,36/i_n,36/0,36/(e_eval-l_org)/5,36/0
    015043  aa   000000 000002
    015044  aa   000000 000000
    015045  aa   000000 002522
    015046  aa   000000 000000
    015047  aa   040040 040040    1367  		vfd a36/    ,36/i_n,36/0,36/(e_if-l_org)/5,36/0
    015050  aa   000000 000002
    015051  aa   000000 000000
    015052  aa   000000 002524
    015053  aa   000000 000000
    015054  aa   040040 040040    1368  		vfd a36/    ,36/i_n,36/0,36/(e_mul-l_org)/5,36/0
    015055  aa   000000 000002
    015056  aa   000000 000000
    015057  aa   000000 002526
    015060  aa   000000 000000
    015061  aa   040040 040040    1369  		vfd a36/    ,36/i_n,36/0,36/(e_perf-l_org)/5,36/0
    015062  aa   000000 000002
    015063  aa   000000 000000
    015064  aa   000000 002530
    015065  aa   000000 000000
    015066  aa   040040 040040    1370  		vfd a36/    ,36/i_n,36/0,36/(e_read-l_org)/5,36/0
    015067  aa   000000 000002
    015070  aa   000000 000000
    015071  aa   000000 002532
    015072  aa   000000 000000
    015073  aa   040040 040040    1371  		vfd a36/    ,36/i_n,36/0,36/(e_rec-l_org)/5,36/0
    015074  aa   000000 000002
    015075  aa   000000 000000
    015076  aa   000000 002534
    015077  aa   000000 000000
    015100  aa   040040 040040    1372  		vfd a36/    ,36/i_n,36/0,36/(e_ret-l_org)/5,36/0
    015101  aa   000000 000002
    015102  aa   000000 000000
    015103  aa   000000 002536
    015104  aa   000000 000000
    015105  aa   040040 040040    1373  		vfd a36/    ,36/i_n,36/0,36/(e_rew-l_org)/5,36/0
    015106  aa   000000 000002
    015107  aa   000000 000000
    015110  aa   000000 002540
    015111  aa   000000 000000
    015112  aa   040040 040040    1374  		vfd a36/    ,36/i_n,36/0,36/(e_sea-l_org)/5,36/0
    015113  aa   000000 000002
    015114  aa   000000 000000
    015115  aa   000000 002542
    015116  aa   000000 000000
    015117  aa   040040 040040    1375  		vfd a36/    ,36/i_n,36/0,36/(e_sta-l_org)/5,36/0
    015120  aa   000000 000002
    015121  aa   000000 000000
    015122  aa   000000 002544
    015123  aa   000000 000000
    015124  aa   040040 040040    1376  		vfd a36/    ,36/i_n,36/0,36/(e_str-l_org)/5,36/0
    015125  aa   000000 000002
    015126  aa   000000 000000
    015127  aa   000000 002546
    015130  aa   000000 000000
    015131  aa   040040 040040    1377  		vfd a36/    ,36/i_n,36/0,36/(e_sub-l_org)/5,36/0
    015132  aa   000000 000002
    015133  aa   000000 000000
    015134  aa   000000 002550
    015135  aa   000000 000000
    015136  aa   040040 040040    1378  		vfd a36/    ,36/i_n,36/0,36/(e_uns-l_org)/5,36/0
    015137  aa   000000 000002
    015140  aa   000000 000000
    015141  aa   000000 002552
    015142  aa   000000 000000
    015143  aa   040040 040040    1379  		vfd a36/    ,36/i_n,36/0,36/(e_wr-l_org)/5,36/0
    015144  aa   000000 000002
    015145  aa   000000 000000
    015146  aa   000000 002554
    015147  aa   000000 000000
    015150  aa   040040 040040    1380  l_425:	e_add:	vfd a36/    ,36/i_r,36/r_end_add,36/(succ-l_org)/5,36/0
    015151  aa   000000 000000
    015152  aa   000000 000722
    015153  aa   000000 002750
    015154  aa   000000 000000
    015155  aa   040040 040040    1381  		vfd a36/    ,36/i_n,36/0,36/(fail-l_org)/5,36/0
    015156  aa   000000 000002
    015157  aa   000000 000000
    015160  aa   000000 002751
    015161  aa   000000 000000
    015162  aa   040040 040040    1382  	e_call:	vfd a36/    ,36/i_r,36/r_end_call,36/(succ-l_org)/5,36/0
    015163  aa   000000 000000
    015164  aa   000000 000723
    015165  aa   000000 002750
    015166  aa   000000 000000
    015167  aa   040040 040040    1383  		vfd a36/    ,36/i_n,36/0,36/(fail-l_org)/5,36/0
    015170  aa   000000 000002
    015171  aa   000000 000000
    015172  aa   000000 002751
    015173  aa   000000 000000
    015174  aa   040040 040040    1384  	e_comp:	vfd a36/    ,36/i_r,36/r_end_compute,36/(succ-l_org)/5,36/0
    015175  aa   000000 000000
    015176  aa   000000 000724
    015177  aa   000000 002750
    015200  aa   000000 000000
    015201  aa   040040 040040    1385  		vfd a36/    ,36/i_n,36/0,36/(fail-l_org)/5,36/0
    015202  aa   000000 000002
    015203  aa   000000 000000
    015204  aa   000000 002751
    015205  aa   000000 000000
    015206  aa   040040 040040    1386  	e_del:	vfd a36/    ,36/i_r,36/r_end_delete,36/(succ-l_org)/5,36/0
    015207  aa   000000 000000
    015210  aa   000000 000725
    015211  aa   000000 002750
    015212  aa   000000 000000
    015213  aa   040040 040040    1387  		vfd a36/    ,36/i_n,36/0,36/(fail-l_org)/5,36/0
    015214  aa   000000 000002
    015215  aa   000000 000000
    015216  aa   000000 002751
    015217  aa   000000 000000
    015220  aa   040040 040040    1388  	e_div:	vfd a36/    ,36/i_r,36/r_end_divide,36/(succ-l_org)/5,36/0
    015221  aa   000000 000000
    015222  aa   000000 000726
    015223  aa   000000 002750
    015224  aa   000000 000000
    015225  aa   040040 040040    1389  		vfd a36/    ,36/i_n,36/0,36/(fail-l_org)/5,36/0
    015226  aa   000000 000002
    015227  aa   000000 000000
    015230  aa   000000 002751
    015231  aa   000000 000000
    015232  aa   040040 040040    1390  	e_eval:	vfd a36/    ,36/i_r,36/r_end_evaluate,36/(succ-l_org)/5,36/0
    015233  aa   000000 000000
    015234  aa   000000 000727
    015235  aa   000000 002750
    015236  aa   000000 000000
    015237  aa   040040 040040    1391  		vfd a36/    ,36/i_n,36/0,36/(fail-l_org)/5,36/0
    015240  aa   000000 000002
    015241  aa   000000 000000
    015242  aa   000000 002751
    015243  aa   000000 000000
    015244  aa   040040 040040    1392  	e_if:	vfd a36/    ,36/i_r,36/r_end_if,36/(succ-l_org)/5,36/0
    015245  aa   000000 000000
    015246  aa   000000 000730
    015247  aa   000000 002750
    015250  aa   000000 000000
    015251  aa   040040 040040    1393  		vfd a36/    ,36/i_n,36/0,36/(fail-l_org)/5,36/0
    015252  aa   000000 000002
    015253  aa   000000 000000
    015254  aa   000000 002751
    015255  aa   000000 000000
    015256  aa   040040 040040    1394  	e_mul:	vfd a36/    ,36/i_r,36/r_end_multiply,36/(succ-l_org)/5,36/0
    015257  aa   000000 000000
    015260  aa   000000 000731
    015261  aa   000000 002750
    015262  aa   000000 000000
    015263  aa   040040 040040    1395  		vfd a36/    ,36/i_n,36/0,36/(fail-l_org)/5,36/0
    015264  aa   000000 000002
    015265  aa   000000 000000
    015266  aa   000000 002751
    015267  aa   000000 000000
    015270  aa   040040 040040    1396  	e_perf:	vfd a36/    ,36/i_r,36/r_end_perform,36/(succ-l_org)/5,36/0
    015271  aa   000000 000000
    015272  aa   000000 000732
    015273  aa   000000 002750
    015274  aa   000000 000000
    015275  aa   040040 040040    1397  		vfd a36/    ,36/i_n,36/0,36/(fail-l_org)/5,36/0
    015276  aa   000000 000002
    015277  aa   000000 000000
    015300  aa   000000 002751
    015301  aa   000000 000000
    015302  aa   040040 040040    1398  	e_read:	vfd a36/    ,36/i_r,36/r_end_read,36/(succ-l_org)/5,36/0
    015303  aa   000000 000000
    015304  aa   000000 000733
    015305  aa   000000 002750
    015306  aa   000000 000000
    015307  aa   040040 040040    1399  		vfd a36/    ,36/i_n,36/0,36/(fail-l_org)/5,36/0
    015310  aa   000000 000002
    015311  aa   000000 000000
    015312  aa   000000 002751
    015313  aa   000000 000000
    015314  aa   040040 040040    1400  	e_rec:	vfd a36/    ,36/i_r,36/r_end_receive,36/(succ-l_org)/5,36/0
    015315  aa   000000 000000
    015316  aa   000000 000734
    015317  aa   000000 002750
    015320  aa   000000 000000
    015321  aa   040040 040040    1401  		vfd a36/    ,36/i_n,36/0,36/(fail-l_org)/5,36/0
    015322  aa   000000 000002
    015323  aa   000000 000000
    015324  aa   000000 002751
    015325  aa   000000 000000
    015326  aa   040040 040040    1402  	e_ret:	vfd a36/    ,36/i_r,36/r_end_return,36/(succ-l_org)/5,36/0
    015327  aa   000000 000000
    015330  aa   000000 000735
    015331  aa   000000 002750
    015332  aa   000000 000000
    015333  aa   040040 040040    1403  		vfd a36/    ,36/i_n,36/0,36/(fail-l_org)/5,36/0
    015334  aa   000000 000002
    015335  aa   000000 000000
    015336  aa   000000 002751
    015337  aa   000000 000000
    015340  aa   040040 040040    1404  	e_rew:	vfd a36/    ,36/i_r,36/r_end_rewrite,36/(succ-l_org)/5,36/0
    015341  aa   000000 000000
    015342  aa   000000 000736
    015343  aa   000000 002750
    015344  aa   000000 000000
    015345  aa   040040 040040    1405  		vfd a36/    ,36/i_n,36/0,36/(fail-l_org)/5,36/0
    015346  aa   000000 000002
    015347  aa   000000 000000
    015350  aa   000000 002751
    015351  aa   000000 000000
    015352  aa   040040 040040    1406  	e_sea:	vfd a36/    ,36/i_r,36/r_end_search,36/(succ-l_org)/5,36/0
    015353  aa   000000 000000
    015354  aa   000000 000737
    015355  aa   000000 002750
    015356  aa   000000 000000
    015357  aa   040040 040040    1407  		vfd a36/    ,36/i_n,36/0,36/(fail-l_org)/5,36/0
    015360  aa   000000 000002
    015361  aa   000000 000000
    015362  aa   000000 002751
    015363  aa   000000 000000
    015364  aa   040040 040040    1408  	e_sta:	vfd a36/    ,36/i_r,36/r_end_start,36/(succ-l_org)/5,36/0
    015365  aa   000000 000000
    015366  aa   000000 000740
    015367  aa   000000 002750
    015370  aa   000000 000000
    015371  aa   040040 040040    1409  		vfd a36/    ,36/i_n,36/0,36/(fail-l_org)/5,36/0
    015372  aa   000000 000002
    015373  aa   000000 000000
    015374  aa   000000 002751
    015375  aa   000000 000000
    015376  aa   040040 040040    1410  	e_str:	vfd a36/    ,36/i_r,36/r_end_string,36/(succ-l_org)/5,36/0
    015377  aa   000000 000000
    015400  aa   000000 000741
    015401  aa   000000 002750
    015402  aa   000000 000000
    015403  aa   040040 040040    1411  		vfd a36/    ,36/i_n,36/0,36/(fail-l_org)/5,36/0
    015404  aa   000000 000002
    015405  aa   000000 000000
    015406  aa   000000 002751
    015407  aa   000000 000000
    015410  aa   040040 040040    1412  	e_sub:	vfd a36/    ,36/i_r,36/r_end_subtract,36/(succ-l_org)/5,36/0
    015411  aa   000000 000000
    015412  aa   000000 000742
    015413  aa   000000 002750
    015414  aa   000000 000000
    015415  aa   040040 040040    1413  		vfd a36/    ,36/i_n,36/0,36/(fail-l_org)/5,36/0
    015416  aa   000000 000002
    015417  aa   000000 000000
    015420  aa   000000 002751
    015421  aa   000000 000000
    015422  aa   040040 040040    1414  	e_uns:	vfd a36/    ,36/i_r,36/r_end_unstring,36/(succ-l_org)/5,36/0
    015423  aa   000000 000000
    015424  aa   000000 000743
    015425  aa   000000 002750
    015426  aa   000000 000000
    015427  aa   040040 040040    1415  		vfd a36/    ,36/i_n,36/0,36/(fail-l_org)/5,36/0
    015430  aa   000000 000002
    015431  aa   000000 000000
    015432  aa   000000 002751
    015433  aa   000000 000000
    015434  aa   040040 040040    1416  	e_wr:	vfd a36/    ,36/i_r,36/r_end_write,36/(succ-l_org)/5,36/0
    015435  aa   000000 000000
    015436  aa   000000 000744
    015437  aa   000000 002750
    015440  aa   000000 000000
    015441  aa   040040 040040    1417  		vfd a36/    ,36/i_n,36/0,36/(fail-l_org)/5,36/0
    015442  aa   000000 000002
    015443  aa   000000 000000
    015444  aa   000000 002751
    015445  aa   000000 000000
    015446  aa   163040 040040    1418  	wd:	vfd a36/s   ,36/i_r,36/r_with,36/(l_426-l_org)/5,36/0
    015447  aa   000000 000000
    015450  aa   000000 000263
    015451  aa   000000 002557
    015452  aa   000000 000000
    015453  aa   163040 040040    1419  l_426:	wd1:	vfd a36/s   ,36/i_r,36/r_data,36/(succ-l_org)/5,36/0
    015454  aa   000000 000000
    015455  aa   000000 000304
    015456  aa   000000 002750
    015457  aa   000000 000000
    015460  aa   040040 040040    1420  		vfd a36/    ,36/i_n,36/0,36/(r_2-l_org)/5,36/0
    015461  aa   000000 000002
    015462  aa   000000 000000
    015463  aa   000000 002701
    015464  aa   000000 000000
    015465  aa   163040 040040    1421  	ov:	vfd a36/s   ,36/i_r,36/r_on,36/(l_427-l_org)/5,36/0
    015466  aa   000000 000000
    015467  aa   000000 000206
    015470  aa   000000 002562
    015471  aa   000000 000000
    015472  aa   163040 040040    1422  l_427:	ov1:	vfd a36/s   ,36/i_r,36/r_overflow,36/(succ-l_org)/5,36/0
    015473  aa   000000 000000
    015474  aa   000000 000006
    015475  aa   000000 002750
    015476  aa   000000 000000
    015477  aa   040040 040040    1423  		vfd a36/    ,36/i_n,36/0,36/(r_2-l_org)/5,36/0
    015500  aa   000000 000002
    015501  aa   000000 000000
    015502  aa   000000 002701
    015503  aa   000000 000000
    015504  aa   163040 040040    1424  	eop:	vfd a36/s   ,36/i_r,36/r_at,36/(l_428-l_org)/5,36/0
    015505  aa   000000 000000
    015506  aa   000000 000117
    015507  aa   000000 002565
    015510  aa   000000 000000
    015511  aa   163040 040040    1425  l_428:	eop1:	vfd a36/s   ,36/i_r,36/r_eop,36/(succ-l_org)/5,36/0
    015512  aa   000000 000000
    015513  aa   000000 000144
    015514  aa   000000 002750
    015515  aa   000000 000000
    015516  aa   040040 040040    1426  		vfd a36/    ,36/i_n,36/0,36/(r_2-l_org)/5,36/0
    015517  aa   000000 000002
    015520  aa   000000 000000
    015521  aa   000000 002701
    015522  aa   000000 000000
    015523  aa   163040 040040    1427  	nd:	vfd a36/s   ,36/i_r,36/r_no,36/(l_429-l_org)/5,36/0
    015524  aa   000000 000000
    015525  aa   000000 000201
    015526  aa   000000 002571
    015527  aa   000000 000000
    015530  aa   040040 040040    1428  		vfd a36/    ,36/i_n,36/0,36/(r_2-l_org)/5,36/0
    015531  aa   000000 000002
    015532  aa   000000 000000
    015533  aa   000000 002701
    015534  aa   000000 000000
    015535  aa   163040 040040    1429  l_429:	nd1:	vfd a36/s   ,36/i_r,36/r_data,36/(succ-l_org)/5,36/0
    015536  aa   000000 000000
    015537  aa   000000 000304
    015540  aa   000000 002750
    015541  aa   000000 000000
    015542  aa   040040 040040    1430  		vfd a36/    ,36/i_n,36/0,36/(r_2-l_org)/5,36/0
    015543  aa   000000 000002
    015544  aa   000000 000000
    015545  aa   000000 002701
    015546  aa   000000 000000
    015547  aa   163040 040040    1431  	ose:	vfd a36/s   ,36/i_r,36/r_on,36/(l_430-l_org)/5,36/0
    015550  aa   000000 000000
    015551  aa   000000 000206
    015552  aa   000000 002576
    015553  aa   000000 000000
    015554  aa   163040 040040    1432  		vfd a36/s   ,36/i_r,36/r_size,36/(ose2-l_org)/5,36/0
    015555  aa   000000 000000
    015556  aa   000000 000241
    015557  aa   000000 002600
    015560  aa   000000 000000
    015561  aa   040040 040040    1433  		vfd a36/    ,36/i_n,36/0,36/(r_2-l_org)/5,36/0
    015562  aa   000000 000002
    015563  aa   000000 000000
    015564  aa   000000 002701
    015565  aa   000000 000000
    015566  aa   163040 040040    1434  l_430:	ose1:	vfd a36/s   ,36/i_r,36/r_size,36/(l_431-l_org)/5,36/0
    015567  aa   000000 000000
    015570  aa   000000 000241
    015571  aa   000000 002600
    015572  aa   000000 000000
    015573  aa   040040 040040    1435  		vfd a36/    ,36/i_n,36/0,36/(r_2-l_org)/5,36/0
    015574  aa   000000 000002
    015575  aa   000000 000000
    015576  aa   000000 002701
    015577  aa   000000 000000
    015600  aa   163040 040040    1436  l_431:	ose2:	vfd a36/s   ,36/i_r,36/r_error,36/(succ-l_org)/5,36/0
    015601  aa   000000 000000
    015602  aa   000000 000003
    015603  aa   000000 002750
    015604  aa   000000 000000
    015605  aa   040040 040040    1437  		vfd a36/    ,36/i_n,36/0,36/(r_2-l_org)/5,36/0
    015606  aa   000000 000002
    015607  aa   000000 000000
    015610  aa   000000 002701
    015611  aa   000000 000000
    015612  aa   163040 040040    1438  	oe:	vfd a36/s   ,36/i_r,36/r_on,36/(l_432-l_org)/5,36/0
    015613  aa   000000 000000
    015614  aa   000000 000206
    015615  aa   000000 002603
    015616  aa   000000 000000
    015617  aa   163040 040040    1439  l_432:	oe1:	vfd a36/s   ,36/i_r,36/r_exception,36/(succ-l_org)/5,36/0
    015620  aa   000000 000000
    015621  aa   000000 000153
    015622  aa   000000 002750
    015623  aa   000000 000000
    015624  aa   040040 040040    1440  		vfd a36/    ,36/i_n,36/0,36/(r_2-l_org)/5,36/0
    015625  aa   000000 000002
    015626  aa   000000 000000
    015627  aa   000000 002701
    015630  aa   000000 000000
    015631  aa   163040 040040    1441  	ate:	vfd a36/s   ,36/i_r,36/r_at,36/(l_433-l_org)/5,36/0
    015632  aa   000000 000000
    015633  aa   000000 000117
    015634  aa   000000 002606
    015635  aa   000000 000000
    015636  aa   163040 040040    1442  l_433:	ate1:	vfd a36/s   ,36/i_r,36/r_end,36/(succ-l_org)/5,36/0
    015637  aa   000000 000000
    015640  aa   000000 000142
    015641  aa   000000 002750
    015642  aa   000000 000000
    015643  aa   040040 040040    1443  		vfd a36/    ,36/i_n,36/0,36/(r_2-l_org)/5,36/0
    015644  aa   000000 000002
    015645  aa   000000 000000
    015646  aa   000000 002701
    015647  aa   000000 000000
    015650  aa   163040 040040    1444  	ik:	vfd a36/s   ,36/i_r,36/r_invalid,36/(l_434-l_org)/5,36/0
    015651  aa   000000 000000
    015652  aa   000000 000165
    015653  aa   000000 002611
    015654  aa   000000 000000
    015655  aa   163040 040040    1445  l_434:		vfd a36/s   ,36/i_r,36/r_key,36/(succ-l_org)/5,36/0
    015656  aa   000000 000000
    015657  aa   000000 000170
    015660  aa   000000 002750
    015661  aa   000000 000000
    015662  aa   040040 040040    1446  		vfd a36/    ,36/i_n,36/0,36/(succ-l_org)/5,36/0
    015663  aa   000000 000002
    015664  aa   000000 000000
    015665  aa   000000 002750
    015666  aa   000000 000000
    015667  aa   040040 040040    1447  	imp:	vfd a36/    ,36/i_c,36/c_impsw,36/(l_435-l_org)/5,36/0
    015670  aa   000000 000001
    015671  aa   000000 000125
    015672  aa   000000 002615
    015673  aa   000000 000000
    015674  aa   040040 040040    1448  		vfd a36/    ,36/i_n,36/0,36/(r_2-l_org)/5,36/0
    015675  aa   000000 000002
    015676  aa   000000 000000
    015677  aa   000000 002701
    015700  aa   000000 000000
    015701  aa   040040 040040    1449  l_435:		vfd a36/    ,36/i_s,36/(verb-l_org)/5,36/(succ-l_org)/5,36/0
    015702  aa   000000 000003
    015703  aa   000000 002357
    015704  aa   000000 002750
    015705  aa   000000 000000
    015706  aa   040040 040040    1450  		vfd a36/    ,36/i_n,36/0,36/(succ-l_org)/5,36/0
    015707  aa   000000 000002
    015710  aa   000000 000000
    015711  aa   000000 002750
    015712  aa   000000 000000
    015713  aa   040040 040040    1451  	nonumid:	vfd a36/    ,36/i_c,36/c_nonumlit,36/(succ-l_org)/5,36/0
    015714  aa   000000 000001
    015715  aa   000000 000017
    015716  aa   000000 002750
    015717  aa   000000 000000
    015720  aa   040040 040040    1452  		vfd a36/    ,36/i_c,36/c_nonumdn,36/(l_436-l_org)/5,36/a_59
    015721  aa   000000 000001
    015722  aa   000000 000223
    015723  aa   000000 002622
    015724  aa   000000 000073
    015725  aa   040040 040040    1453  		vfd a36/    ,36/i_n,36/0,36/(fail-l_org)/5,36/0
    015726  aa   000000 000002
    015727  aa   000000 000000
    015730  aa   000000 002751
    015731  aa   000000 000000
    015732  aa   040040 040040    1454  l_436:		vfd a36/    ,36/i_s,36/(ident-l_org)/5,36/(succ-l_org)/5,36/0
    015733  aa   000000 000003
    015734  aa   000000 002326
    015735  aa   000000 002750
    015736  aa   000000 000000
    015737  aa   040040 040040    1455  		vfd a36/    ,36/i_n,36/0,36/(fail-l_org)/5,36/0
    015740  aa   000000 000002
    015741  aa   000000 000000
    015742  aa   000000 002751
    015743  aa   000000 000000
    015744  aa   040040 040040    1456  	usnoned:	vfd a36/    ,36/i_c,36/c_usagid,36/(l_437-l_org)/5,36/0
    015745  aa   000000 000001
    015746  aa   000000 000136
    015747  aa   000000 002626
    015750  aa   000000 000000
    015751  aa   040040 040040    1457  		vfd a36/    ,36/i_n,36/0,36/(fail-l_org)/5,36/0
    015752  aa   000000 000002
    015753  aa   000000 000000
    015754  aa   000000 002751
    015755  aa   000000 000000
    015756  aa   040040 040040    1458  l_437:		vfd a36/    ,36/i_c,36/c_edick,36/(succ-l_org)/5,36/0
    015757  aa   000000 000001
    015760  aa   000000 000241
    015761  aa   000000 002750
    015762  aa   000000 000000
    015763  aa   040040 040040    1459  		vfd a36/    ,36/i_n,36/0,36/(fail-l_org)/5,36/0
    015764  aa   000000 000002
    015765  aa   000000 000000
    015766  aa   000000 002751
    015767  aa   000000 000000
    015770  aa   040040 040040    1460  	elnumint:	vfd a36/    ,36/i_c,36/c_elnuint,36/(succ-l_org)/5,36/0
    015771  aa   000000 000001
    015772  aa   000000 000166
    015773  aa   000000 002750
    015774  aa   000000 000000
    015775  aa   040040 040040    1461  	elnint:	vfd a36/    ,36/i_c,36/c_elnudnint,36/(el_1-l_org)/5,36/0
    015776  aa   000000 000001
    015777  aa   000000 000167
    016000  aa   000000 002640
    016001  aa   000000 000000
    016002  aa   040040 040040    1462  	el_2:	vfd a36/    ,36/i_r,36/r_all,36/(l_438-l_org)/5,36/0
    016003  aa   000000 000000
    016004  aa   000000 000111
    016005  aa   000000 002635
    016006  aa   000000 000000
    016007  aa   040040 040040    1463  		vfd a36/    ,36/i_r,36/r_zero,36/(succ-l_org)/5,36/0
    016010  aa   000000 000000
    016011  aa   000000 000264
    016012  aa   000000 002750
    016013  aa   000000 000000
    016014  aa   040040 040040    1464  		vfd a36/    ,36/i_n,36/0,36/(fail-l_org)/5,36/0
    016015  aa   000000 000002
    016016  aa   000000 000000
    016017  aa   000000 002751
    016020  aa   000000 000000
    016021  aa   163040 040040    1465  l_438:		vfd a36/s   ,36/i_n,36/0,36/(l_439-l_org)/5,36/0
    016022  aa   000000 000002
    016023  aa   000000 000000
    016024  aa   000000 002636
    016025  aa   000000 000000
    016026  aa   040040 040040    1466  l_439:		vfd a36/    ,36/i_r,36/r_zero,36/(succ-l_org)/5,36/0
    016027  aa   000000 000000
    016030  aa   000000 000264
    016031  aa   000000 002750
    016032  aa   000000 000000
    016033  aa   040040 040040    1467  		vfd a36/    ,36/i_n,36/0,36/(r_2-l_org)/5,36/0
    016034  aa   000000 000002
    016035  aa   000000 000000
    016036  aa   000000 002701
    016037  aa   000000 000000
    016040  aa   040040 040040    1468  	el_1:	vfd a36/    ,36/i_s,36/(ident-l_org)/5,36/(succ-l_org)/5,36/0
    016041  aa   000000 000003
    016042  aa   000000 002326
    016043  aa   000000 002750
    016044  aa   000000 000000
    016045  aa   040040 040040    1469  		vfd a36/    ,36/i_n,36/0,36/(fail-l_org)/5,36/0
    016046  aa   000000 000002
    016047  aa   000000 000000
    016050  aa   000000 002751
    016051  aa   000000 000000
    016052  aa   040040 040040    1470  	elnuitem:	vfd a36/    ,36/i_c,36/c_nlit,36/(succ-l_org)/5,36/0
    016053  aa   000000 000001
    016054  aa   000000 000320
    016055  aa   000000 002750
    016056  aa   000000 000000
    016057  aa   040040 040040    1471  		vfd a36/    ,36/i_c,36/c_elnuit,36/(eln_1-l_org)/5,36/a_59
    016060  aa   000000 000001
    016061  aa   000000 000102
    016062  aa   000000 002652
    016063  aa   000000 000073
    016064  aa   040040 040040    1472  		vfd a36/    ,36/i_r,36/r_all,36/(l_440-l_org)/5,36/0
    016065  aa   000000 000000
    016066  aa   000000 000111
    016067  aa   000000 002647
    016070  aa   000000 000000
    016071  aa   040040 040040    1473  		vfd a36/    ,36/i_r,36/r_zero,36/(succ-l_org)/5,36/0
    016072  aa   000000 000000
    016073  aa   000000 000264
    016074  aa   000000 002750
    016075  aa   000000 000000
    016076  aa   040040 040040    1474  		vfd a36/    ,36/i_n,36/0,36/(fail-l_org)/5,36/0
    016077  aa   000000 000002
    016100  aa   000000 000000
    016101  aa   000000 002751
    016102  aa   000000 000000
    016103  aa   163040 040040    1475  l_440:		vfd a36/s   ,36/i_n,36/0,36/(l_441-l_org)/5,36/0
    016104  aa   000000 000002
    016105  aa   000000 000000
    016106  aa   000000 002650
    016107  aa   000000 000000
    016110  aa   040040 040040    1476  l_441:		vfd a36/    ,36/i_r,36/r_zero,36/(succ-l_org)/5,36/0
    016111  aa   000000 000000
    016112  aa   000000 000264
    016113  aa   000000 002750
    016114  aa   000000 000000
    016115  aa   040040 040040    1477  		vfd a36/    ,36/i_n,36/0,36/(fail-l_org)/5,36/0
    016116  aa   000000 000002
    016117  aa   000000 000000
    016120  aa   000000 002751
    016121  aa   000000 000000
    016122  aa   040040 040040    1478  	eln_1:	vfd a36/    ,36/i_s,36/(ident-l_org)/5,36/(succ-l_org)/5,36/a_114
    016123  aa   000000 000003
    016124  aa   000000 002326
    016125  aa   000000 002750
    016126  aa   000000 000162
    016127  aa   040040 040040    1479  		vfd a36/    ,36/i_n,36/0,36/(fail-l_org)/5,36/0
    016130  aa   000000 000002
    016131  aa   000000 000000
    016132  aa   000000 002751
    016133  aa   000000 000000
    016134  aa   040040 040040    1480  	elusid:	vfd a36/    ,36/i_c,36/c_nonumlit,36/(succ-l_org)/5,36/0
    016135  aa   000000 000001
    016136  aa   000000 000017
    016137  aa   000000 002750
    016140  aa   000000 000000
    016141  aa   040040 040040    1481  		vfd a36/    ,36/i_c,36/c_figconall,36/(succ-l_org)/5,36/0
    016142  aa   000000 000001
    016143  aa   000000 000026
    016144  aa   000000 002750
    016145  aa   000000 000000
    016146  aa   040040 040040    1482  		vfd a36/    ,36/i_c,36/c_eldis,36/(l_442-l_org)/5,36/a_59
    016147  aa   000000 000001
    016150  aa   000000 000137
    016151  aa   000000 002660
    016152  aa   000000 000073
    016153  aa   040040 040040    1483  		vfd a36/    ,36/i_n,36/0,36/(fail-l_org)/5,36/0
    016154  aa   000000 000002
    016155  aa   000000 000000
    016156  aa   000000 002751
    016157  aa   000000 000000
    016160  aa   040040 040040    1484  l_442:		vfd a36/    ,36/i_s,36/(ident-l_org)/5,36/(succ-l_org)/5,36/0
    016161  aa   000000 000003
    016162  aa   000000 002326
    016163  aa   000000 002750
    016164  aa   000000 000000
    016165  aa   040040 040040    1485  		vfd a36/    ,36/i_n,36/0,36/(fail-l_org)/5,36/0
    016166  aa   000000 000002
    016167  aa   000000 000000
    016170  aa   000000 002751
    016171  aa   000000 000000
    016172  aa   040040 040040    1486  	usagid:	vfd a36/    ,36/i_c,36/c_usagid,36/(alel2-l_org)/5,36/a_59
    016173  aa   000000 000001
    016174  aa   000000 000136
    016175  aa   000000 002666
    016176  aa   000000 000073
    016177  aa   040040 040040    1487  		vfd a36/    ,36/i_n,36/0,36/(fail-l_org)/5,36/0
    016200  aa   000000 000002
    016201  aa   000000 000000
    016202  aa   000000 002751
    016203  aa   000000 000000
    016204  aa   040040 040040    1488  	alel:	vfd a36/    ,36/i_c,36/c_altst,36/(l_443-l_org)/5,36/a_60
    016205  aa   000000 000001
    016206  aa   000000 000274
    016207  aa   000000 002666
    016210  aa   000000 000074
    016211  aa   040040 040040    1489  		vfd a36/    ,36/i_n,36/0,36/(fail-l_org)/5,36/0
    016212  aa   000000 000002
    016213  aa   000000 000000
    016214  aa   000000 002751
    016215  aa   000000 000000
    016216  aa   040040 040040    1490  l_443:	alel2:	vfd a36/    ,36/i_s,36/(ident-l_org)/5,36/(succ-l_org)/5,36/0
    016217  aa   000000 000003
    016220  aa   000000 002326
    016221  aa   000000 002750
    016222  aa   000000 000000
    016223  aa   040040 040040    1491  		vfd a36/    ,36/i_n,36/0,36/(fail-l_org)/5,36/0
    016224  aa   000000 000002
    016225  aa   000000 000000
    016226  aa   000000 002751
    016227  aa   000000 000000
    016230  aa   040040 040040    1492  	edalel:	vfd a36/    ,36/i_c,36/c_edaltst,36/(alel2-l_org)/5,36/a_60
    016231  aa   000000 000001
    016232  aa   000000 000275
    016233  aa   000000 002666
    016234  aa   000000 000074
    016235  aa   040040 040040    1493  		vfd a36/    ,36/i_n,36/0,36/(fail-l_org)/5,36/0
    016236  aa   000000 000002
    016237  aa   000000 000000
    016240  aa   000000 002751
    016241  aa   000000 000000
    016242  aa   040040 040040    1494  	r_1:	vfd a36/    ,36/i_n,36/0,36/(l_444-l_org)/5,36/a_56
    016243  aa   000000 000002
    016244  aa   000000 000000
    016245  aa   000000 002673
    016246  aa   000000 000070
    016247  aa   040040 040040    1495  l_444:		vfd a36/    ,36/i_c,36/c_prdef,36/(decl-l_org)/5,36/a_eos
    016250  aa   000000 000001
    016251  aa   000000 000010
    016252  aa   000000 000107
    016253  aa   000000 000126
    016254  aa   040040 040040    1496  		vfd a36/    ,36/i_c,36/c_endcob,36/(decl-l_org)/5,36/a_eos
    016255  aa   000000 000001
    016256  aa   000000 000047
    016257  aa   000000 000107
    016260  aa   000000 000126
    016261  aa   040040 040040    1497  		vfd a36/    ,36/i_c,36/c_verb,36/(decl-l_org)/5,36/a_eos
    016262  aa   000000 000001
    016263  aa   000000 000011
    016264  aa   000000 000107
    016265  aa   000000 000126
    016266  aa   163040 040040    1498  		vfd a36/s   ,36/i_r,36/r_per,36/(decl-l_org)/5,36/a_eos
    016267  aa   000000 000000
    016270  aa   000000 000275
    016271  aa   000000 000107
    016272  aa   000000 000126
    016273  aa   040040 040040    1499  		vfd a36/    ,36/i_r,36/r_declaratives,36/(decl-l_org)/5,36/a_eos
    016274  aa   000000 000000
    016275  aa   000000 000131
    016276  aa   000000 000107
    016277  aa   000000 000126
    016300  aa   163040 040040    1500  		vfd a36/s   ,36/i_n,36/0,36/(l_444-l_org)/5,36/0
    016301  aa   000000 000002
    016302  aa   000000 000000
    016303  aa   000000 002673
    016304  aa   000000 000000
    016305  aa   040040 040040    1501  	r_2:	vfd a36/    ,36/i_n,36/0,36/(l_445-l_org)/5,36/a_56
    016306  aa   000000 000002
    016307  aa   000000 000000
    016310  aa   000000 002702
    016311  aa   000000 000070
    016312  aa   040040 040040    1502  l_445:		vfd a36/    ,36/i_c,36/c_prdef,36/(l_446-l_org)/5,36/a_43
    016313  aa   000000 000001
    016314  aa   000000 000010
    016315  aa   000000 002710
    016316  aa   000000 000053
    016317  aa   040040 040040    1503  		vfd a36/    ,36/i_c,36/c_endcob,36/(l_446-l_org)/5,36/a_43
    016320  aa   000000 000001
    016321  aa   000000 000047
    016322  aa   000000 002710
    016323  aa   000000 000053
    016324  aa   040040 040040    1504  		vfd a36/    ,36/i_c,36/c_verb,36/(l_446-l_org)/5,36/0
    016325  aa   000000 000001
    016326  aa   000000 000011
    016327  aa   000000 002710
    016330  aa   000000 000000
    016331  aa   040040 040040    1505  		vfd a36/    ,36/i_c,36/c_enddec,36/(l_446-l_org)/5,36/0
    016332  aa   000000 000001
    016333  aa   000000 000163
    016334  aa   000000 002710
    016335  aa   000000 000000
    016336  aa   163040 040040    1506  		vfd a36/s   ,36/i_r,36/r_per,36/(l_446-l_org)/5,36/a_36
    016337  aa   000000 000000
    016340  aa   000000 000275
    016341  aa   000000 002710
    016342  aa   000000 000044
    016343  aa   163040 040040    1507  		vfd a36/s   ,36/i_n,36/0,36/(l_445-l_org)/5,36/0
    016344  aa   000000 000002
    016345  aa   000000 000000
    016346  aa   000000 002702
    016347  aa   000000 000000
    016350  aa   040040 040040    1508  l_446:		vfd a36/    ,36/i_n,36/0,36/(nodecl-l_org)/5,36/a_41
    016351  aa   000000 000002
    016352  aa   000000 000000
    016353  aa   000000 000122
    016354  aa   000000 000051
    016355  aa   040040 040040    1509  	r_3:	vfd a36/    ,36/i_n,36/0,36/(l_447-l_org)/5,36/a_56
    016356  aa   000000 000002
    016357  aa   000000 000000
    016360  aa   000000 002712
    016361  aa   000000 000070
    016362  aa   040040 040040    1510  l_447:		vfd a36/    ,36/i_c,36/c_sechdr,36/(nodecl-l_org)/5,36/a_eos
    016363  aa   000000 000001
    016364  aa   000000 000004
    016365  aa   000000 000122
    016366  aa   000000 000126
    016367  aa   040040 040040    1511  		vfd a36/    ,36/i_c,36/c_paranm,36/(nodecl-l_org)/5,36/a_eos
    016370  aa   000000 000001
    016371  aa   000000 000010
    016372  aa   000000 000122
    016373  aa   000000 000126
    016374  aa   040040 040040    1512  		vfd a36/    ,36/i_c,36/c_endcob,36/(nodecl-l_org)/5,36/a_eos
    016375  aa   000000 000001
    016376  aa   000000 000047
    016377  aa   000000 000122
    016400  aa   000000 000126
    016401  aa   163040 040040    1513  		vfd a36/s   ,36/i_n,36/0,36/(l_447-l_org)/5,36/0
    016402  aa   000000 000002
    016403  aa   000000 000000
    016404  aa   000000 002712
    016405  aa   000000 000000
    016406  aa   040040 040040    1514  	r_4:	vfd a36/    ,36/i_n,36/0,36/(l_448-l_org)/5,36/a_56
    016407  aa   000000 000002
    016410  aa   000000 000000
    016411  aa   000000 002717
    016412  aa   000000 000070
    016413  aa   040040 040040    1515  l_448:		vfd a36/    ,36/i_c,36/c_sechdr,36/(decl_sent-l_org)/5,36/a_eos
    016414  aa   000000 000001
    016415  aa   000000 000004
    016416  aa   000000 000236
    016417  aa   000000 000126
    016420  aa   040040 040040    1516  		vfd a36/    ,36/i_c,36/c_enddec,36/(decl_sent-l_org)/5,36/a_eos
    016421  aa   000000 000001
    016422  aa   000000 000163
    016423  aa   000000 000236
    016424  aa   000000 000126
    016425  aa   040040 040040    1517  		vfd a36/    ,36/i_c,36/c_endcob,36/(decl_sent-l_org)/5,36/a_eos
    016426  aa   000000 000001
    016427  aa   000000 000047
    016430  aa   000000 000236
    016431  aa   000000 000126
    016432  aa   163040 040040    1518  		vfd a36/s   ,36/i_n,36/0,36/(l_448-l_org)/5,36/0
    016433  aa   000000 000002
    016434  aa   000000 000000
    016435  aa   000000 002717
    016436  aa   000000 000000
    016437  aa   040040 040040    1519  	r_5:	vfd a36/    ,36/i_n,36/0,36/(l_449-l_org)/5,36/a_56
    016440  aa   000000 000002
    016441  aa   000000 000000
    016442  aa   000000 002724
    016443  aa   000000 000070
    016444  aa   040040 040040    1520  l_449:		vfd a36/    ,36/i_c,36/c_verb,36/(para_1-l_org)/5,36/a_eos
    016445  aa   000000 000001
    016446  aa   000000 000011
    016447  aa   000000 000211
    016450  aa   000000 000126
    016451  aa   040040 040040    1521  		vfd a36/    ,36/i_r,36/r_per,36/(para_1-l_org)/5,36/a_eos
    016452  aa   000000 000000
    016453  aa   000000 000275
    016454  aa   000000 000211
    016455  aa   000000 000126
    016456  aa   040040 040040    1522  		vfd a36/    ,36/i_c,36/c_paranm,36/(para_1-l_org)/5,36/a_eos
    016457  aa   000000 000001
    016460  aa   000000 000010
    016461  aa   000000 000211
    016462  aa   000000 000126
    016463  aa   040040 040040    1523  		vfd a36/    ,36/i_c,36/c_sechdr,36/(para_1-l_org)/5,36/a_eos
    016464  aa   000000 000001
    016465  aa   000000 000004
    016466  aa   000000 000211
    016467  aa   000000 000126
    016470  aa   040040 040040    1524  		vfd a36/    ,36/i_c,36/c_enddec,36/(para_1-l_org)/5,36/a_eos
    016471  aa   000000 000001
    016472  aa   000000 000163
    016473  aa   000000 000211
    016474  aa   000000 000126
    016475  aa   040040 040040    1525  		vfd a36/    ,36/i_c,36/c_endcob,36/(para_1-l_org)/5,36/a_eos
    016476  aa   000000 000001
    016477  aa   000000 000047
    016500  aa   000000 000211
    016501  aa   000000 000126
    016502  aa   163040 040040    1526  		vfd a36/s   ,36/i_n,36/0,36/(l_449-l_org)/5,36/0
    016503  aa   000000 000002
    016504  aa   000000 000000
    016505  aa   000000 002724
    016506  aa   000000 000000
    016507  aa   040040 040040    1527  	r_6:	vfd a36/    ,36/i_n,36/0,36/(l_450-l_org)/5,36/a_56
    016510  aa   000000 000002
    016511  aa   000000 000000
    016512  aa   000000 002734
    016513  aa   000000 000070
    016514  aa   040040 040040    1528  l_450:		vfd a36/    ,36/i_c,36/c_enddec,36/(l_451-l_org)/5,36/0
    016515  aa   000000 000001
    016516  aa   000000 000163
    016517  aa   000000 002737
    016520  aa   000000 000000
    016521  aa   040040 040040    1529  		vfd a36/    ,36/i_c,36/c_endcob,36/(r_61-l_org)/5,36/a_eos
    016522  aa   000000 000001
    016523  aa   000000 000047
    016524  aa   000000 002741
    016525  aa   000000 000126
    016526  aa   163040 040040    1530  		vfd a36/s   ,36/i_n,36/0,36/(l_450-l_org)/5,36/0
    016527  aa   000000 000002
    016530  aa   000000 000000
    016531  aa   000000 002734
    016532  aa   000000 000000
    016533  aa   163040 040040    1531  l_451:		vfd a36/s   ,36/i_r,36/r_per,36/(l_452-l_org)/5,36/a_eos
    016534  aa   000000 000000
    016535  aa   000000 000275
    016536  aa   000000 002741
    016537  aa   000000 000126
    016540  aa   040040 040040    1532  		vfd a36/    ,36/i_n,36/0,36/(l_452-l_org)/5,36/a_eos
    016541  aa   000000 000002
    016542  aa   000000 000000
    016543  aa   000000 002741
    016544  aa   000000 000126
    016545  aa   040040 040040    1533  l_452:	r_61:	vfd a36/    ,36/i_n,36/0,36/(nodecl-l_org)/5,36/a_55
    016546  aa   000000 000002
    016547  aa   000000 000000
    016550  aa   000000 000122
    016551  aa   000000 000067
    016552  aa   040040 040040    1534  	r_7:	vfd a36/    ,36/i_n,36/0,36/(l_453-l_org)/5,36/a_56
    016553  aa   000000 000002
    016554  aa   000000 000000
    016555  aa   000000 002743
    016556  aa   000000 000070
    016557  aa   040040 040040    1535  l_453:		vfd a36/    ,36/i_c,36/c_paranm,36/(para_2-l_org)/5,36/a_eos
    016560  aa   000000 000001
    016561  aa   000000 000010
    016562  aa   000000 000204
    016563  aa   000000 000126
    016564  aa   040040 040040    1536  		vfd a36/    ,36/i_c,36/c_sechdr,36/(para_2-l_org)/5,36/a_eos
    016565  aa   000000 000001
    016566  aa   000000 000004
    016567  aa   000000 000204
    016570  aa   000000 000126
    016571  aa   040040 040040    1537  		vfd a36/    ,36/i_c,36/c_enddec,36/(para_2-l_org)/5,36/a_eos
    016572  aa   000000 000001
    016573  aa   000000 000163
    016574  aa   000000 000204
    016575  aa   000000 000126
    016576  aa   040040 040040    1538  		vfd a36/    ,36/i_c,36/c_endcob,36/(para_2-l_org)/5,36/a_eos
    016577  aa   000000 000001
    016600  aa   000000 000047
    016601  aa   000000 000204
    016602  aa   000000 000126
    016603  aa   163040 040040    1539  		vfd a36/s   ,36/i_n,36/0,36/(l_453-l_org)/5,36/0
    016604  aa   000000 000002
    016605  aa   000000 000000
    016606  aa   000000 002743
    016607  aa   000000 000000
    016610  aa   040040 040040    1540  	succ:	vfd a36/    ,36/i_n,36/0,36/(succ-l_org)/5,36/a_1
    016611  aa   000000 000002
    016612  aa   000000 000000
    016613  aa   000000 002750
    016614  aa   000000 000001
    016615  aa   040040 040040    1541  	fail:	vfd a36/    ,36/i_n,36/0,36/(fail-l_org)/5,36/a_2
    016616  aa   000000 000002
    016617  aa   000000 000000
    016620  aa   000000 002751
    016621  aa   000000 000002
    016622  aa   040040 040040    1542  	edalit:	vfd a36/    ,36/i_c,36/c_edalit,36/(l_454-l_org)/5,36/0
    016623  aa   000000 000001
    016624  aa   000000 000164
    016625  aa   000000 002754
    016626  aa   000000 000000
    016627  aa   040040 040040    1543  		vfd a36/    ,36/i_n,36/0,36/(fail-l_org)/5,36/0
    016630  aa   000000 000002
    016631  aa   000000 000000
    016632  aa   000000 002751
    016633  aa   000000 000000
    016634  aa   040040 040040    1544  l_454:		vfd a36/    ,36/i_s,36/(ident-l_org)/5,36/(succ-l_org)/5,36/0
    016635  aa   000000 000003
    016636  aa   000000 002326
    016637  aa   000000 002750
    016640  aa   000000 000000
    016641  aa   040040 040040    1545  		vfd a36/    ,36/i_n,36/0,36/(fail-l_org)/5,36/0
    016642  aa   000000 000002
    016643  aa   000000 000000
    016644  aa   000000 002751
    016645  aa   000000 000000
    016646  aa   040040 040040    1546  	condition:	vfd a36/    ,36/i_n,36/0,36/(l_455-l_org)/5,36/a_82
    016647  aa   000000 000002
    016650  aa   000000 000000
    016651  aa   000000 002757
    016652  aa   000000 000122
    016653  aa   163040 040040    1547  l_455:	lpar:	vfd a36/s   ,36/i_r,36/r_lt,36/(lpar-l_org)/5,36/a_63
    016654  aa   000000 000000
    016655  aa   000000 000273
    016656  aa   000000 002757
    016657  aa   000000 000077
    016660  aa   040040 040040    1548  	lpar2:	vfd a36/    ,36/i_c,36/c_resword,36/(res-l_org)/5,36/0
    016661  aa   000000 000001
    016662  aa   000000 000301
    016663  aa   000000 002764
    016664  aa   000000 000000
    016665  aa   040040 040040    1549  	res1:	vfd a36/    ,36/i_s,36/(condop-l_org)/5,36/(infix_rel-l_org)/5,36/0
    016666  aa   000000 000003
    016667  aa   000000 003063
    016670  aa   000000 003012
    016671  aa   000000 000000
    016672  aa   163040 040040    1550  		vfd a36/s   ,36/i_c,36/c_sscondnm,36/(bop-l_org)/5,36/0
    016673  aa   000000 000001
    016674  aa   000000 000206
    016675  aa   000000 003035
    016676  aa   000000 000000
    016677  aa   040040 040040    1551  		vfd a36/    ,36/i_n,36/0,36/(r_2-l_org)/5,36/0
    016700  aa   000000 000002
    016701  aa   000000 000000
    016702  aa   000000 002701
    016703  aa   000000 000000
    016704  aa   040040 040040    1552  	res:	vfd a36/    ,36/i_s,36/(relop-l_org)/5,36/(imp_subj-l_org)/5,36/0
    016705  aa   000000 000003
    016706  aa   000000 003056
    016707  aa   000000 003010
    016710  aa   000000 000000
    016711  aa   163040 040040    1553  		vfd a36/s   ,36/i_r,36/r_not,36/(not_cond-l_org)/5,36/0
    016712  aa   000000 000000
    016713  aa   000000 000202
    016714  aa   000000 002775
    016715  aa   000000 000000
    016716  aa   163040 040040    1554  		vfd a36/s   ,36/i_r,36/r_is,36/(is_cond-l_org)/5,36/0
    016717  aa   000000 000000
    016720  aa   000000 000166
    016721  aa   000000 003001
    016722  aa   000000 000000
    016723  aa   040040 040040    1555  		vfd a36/    ,36/i_s,36/(pos_rel-l_org)/5,36/(imp_subj-l_org)/5,36/0
    016724  aa   000000 000003
    016725  aa   000000 003050
    016726  aa   000000 003010
    016727  aa   000000 000000
    016730  aa   163040 040040    1556  		vfd a36/s   ,36/i_r,36/r_message,36/(l_456-l_org)/5,36/0
    016731  aa   000000 000000
    016732  aa   000000 000176
    016733  aa   000000 002772
    016734  aa   000000 000000
    016735  aa   040040 040040    1557  		vfd a36/    ,36/i_n,36/0,36/(res1-l_org)/5,36/0
    016736  aa   000000 000002
    016737  aa   000000 000000
    016740  aa   000000 002761
    016741  aa   000000 000000
    016742  aa   163040 040040    1558  l_456:		vfd a36/s   ,36/i_r,36/r_for,36/(l_457-l_org)/5,36/0
    016743  aa   000000 000000
    016744  aa   000000 000156
    016745  aa   000000 002773
    016746  aa   000000 000000
    016747  aa   163040 040040    1559  l_457:		vfd a36/s   ,36/i_c,36/c_incdnm,36/(bop-l_org)/5,36/0
    016750  aa   000000 000001
    016751  aa   000000 000022
    016752  aa   000000 003035
    016753  aa   000000 000000
    016754  aa   040040 040040    1560  		vfd a36/    ,36/i_n,36/0,36/(r_2-l_org)/5,36/0
    016755  aa   000000 000002
    016756  aa   000000 000000
    016757  aa   000000 002701
    016760  aa   000000 000000
    016761  aa   040040 040040    1561  	not_cond:	vfd a36/    ,36/i_r,36/r_lt,36/(lpar-l_org)/5,36/0
    016762  aa   000000 000000
    016763  aa   000000 000273
    016764  aa   000000 002757
    016765  aa   000000 000000
    016766  aa   040040 040040    1562  		vfd a36/    ,36/i_s,36/(relop-l_org)/5,36/(imp_subj-l_org)/5,36/0
    016767  aa   000000 000003
    016770  aa   000000 003056
    016771  aa   000000 003010
    016772  aa   000000 000000
    016773  aa   163040 040040    1563  l_458:		vfd a36/s   ,36/i_r,36/r_not,36/(rel-l_org)/5,36/0
    016774  aa   000000 000000
    016775  aa   000000 000202
    016776  aa   000000 003007
    016777  aa   000000 000000
    017000  aa   040040 040040    1564  		vfd a36/    ,36/i_n,36/0,36/(lpar2-l_org)/5,36/0
    017001  aa   000000 000002
    017002  aa   000000 000000
    017003  aa   000000 002760
    017004  aa   000000 000000
    017005  aa   163040 040040    1565  	is_cond:	vfd a36/s   ,36/i_r,36/r_not,36/(rel-l_org)/5,36/0
    017006  aa   000000 000000
    017007  aa   000000 000202
    017010  aa   000000 003007
    017011  aa   000000 000000
    017012  aa   040040 040040    1566  		vfd a36/    ,36/i_s,36/(relop-l_org)/5,36/(imp_subj-l_org)/5,36/0
    017013  aa   000000 000003
    017014  aa   000000 003056
    017015  aa   000000 003010
    017016  aa   000000 000000
    017017  aa   163040 040040    1567  		vfd a36/s   ,36/i_r,36/r_unequal,36/(l_459-l_org)/5,36/0
    017020  aa   000000 000000
    017021  aa   000000 000253
    017022  aa   000000 003005
    017023  aa   000000 000000
    017024  aa   040040 040040    1568  		vfd a36/    ,36/i_n,36/0,36/(r_2-l_org)/5,36/0
    017025  aa   000000 000002
    017026  aa   000000 000000
    017027  aa   000000 002701
    017030  aa   000000 000000
    017031  aa   163040 040040    1569  l_459:		vfd a36/s   ,36/i_r,36/r_to,36/(imp_subj-l_org)/5,36/0
    017032  aa   000000 000000
    017033  aa   000000 000252
    017034  aa   000000 003010
    017035  aa   000000 000000
    017036  aa   040040 040040    1570  		vfd a36/    ,36/i_n,36/0,36/(imp_subj-l_org)/5,36/0
    017037  aa   000000 000002
    017040  aa   000000 000000
    017041  aa   000000 003010
    017042  aa   000000 000000
    017043  aa   040040 040040    1571  	rel:	vfd a36/    ,36/i_s,36/(relop-l_org)/5,36/(l_460-l_org)/5,36/0
    017044  aa   000000 000003
    017045  aa   000000 003056
    017046  aa   000000 003010
    017047  aa   000000 000000
    017050  aa   040040 040040    1572  l_460:	imp_subj:	vfd a36/    ,36/i_c,36/c_is_sub_opt,36/(obj_op-l_org)/5,36/0
    017051  aa   000000 000001
    017052  aa   000000 000176
    017053  aa   000000 003033
    017054  aa   000000 000000
    017055  aa   040040 040040    1573  		vfd a36/    ,36/i_n,36/0,36/(r_2-l_org)/5,36/0
    017056  aa   000000 000002
    017057  aa   000000 000000
    017060  aa   000000 002701
    017061  aa   000000 000000
    017062  aa   040040 040040    1574  	infix_rel:	vfd a36/    ,36/i_s,36/(relop-l_org)/5,36/(obj_op-l_org)/5,36/0
    017063  aa   000000 000003
    017064  aa   000000 003056
    017065  aa   000000 003033
    017066  aa   000000 000000
    017067  aa   163040 040040    1575  		vfd a36/s   ,36/i_r,36/r_not,36/(inf_rel-l_org)/5,36/0
    017070  aa   000000 000000
    017071  aa   000000 000202
    017072  aa   000000 003031
    017073  aa   000000 000000
    017074  aa   163040 040040    1576  		vfd a36/s   ,36/i_r,36/r_is,36/(inf_is-l_org)/5,36/0
    017075  aa   000000 000000
    017076  aa   000000 000166
    017077  aa   000000 003023
    017100  aa   000000 000000
    017101  aa   040040 040040    1577  		vfd a36/    ,36/i_s,36/(pos_rel-l_org)/5,36/(obj_op-l_org)/5,36/0
    017102  aa   000000 000003
    017103  aa   000000 003050
    017104  aa   000000 003033
    017105  aa   000000 000000
    017106  aa   163040 040040    1578  	inf_test:	vfd a36/s   ,36/i_c,36/c_pnz,36/(bop-l_org)/5,36/0
    017107  aa   000000 000001
    017110  aa   000000 000175
    017111  aa   000000 003035
    017112  aa   000000 000000
    017113  aa   163040 040040    1579  		vfd a36/s   ,36/i_r,36/r_numeric,36/(bop-l_org)/5,36/0
    017114  aa   000000 000000
    017115  aa   000000 000203
    017116  aa   000000 003035
    017117  aa   000000 000000
    017120  aa   163040 040040    1580  		vfd a36/s   ,36/i_r,36/r_alphabetic,36/(bop-l_org)/5,36/0
    017121  aa   000000 000000
    017122  aa   000000 000112
    017123  aa   000000 003035
    017124  aa   000000 000000
    017125  aa   040040 040040    1581  		vfd a36/    ,36/i_c,36/c_is_sub_opt,36/(bop-l_org)/5,36/0
    017126  aa   000000 000001
    017127  aa   000000 000176
    017130  aa   000000 003035
    017131  aa   000000 000000
    017132  aa   040040 040040    1582  		vfd a36/    ,36/i_n,36/0,36/(r_2-l_org)/5,36/0
    017133  aa   000000 000002
    017134  aa   000000 000000
    017135  aa   000000 002701
    017136  aa   000000 000000
    017137  aa   163040 040040    1583  	inf_is:	vfd a36/s   ,36/i_r,36/r_not,36/(inf_rel-l_org)/5,36/0
    017140  aa   000000 000000
    017141  aa   000000 000202
    017142  aa   000000 003031
    017143  aa   000000 000000
    017144  aa   040040 040040    1584  		vfd a36/    ,36/i_s,36/(relop-l_org)/5,36/(obj_op-l_org)/5,36/0
    017145  aa   000000 000003
    017146  aa   000000 003056
    017147  aa   000000 003033
    017150  aa   000000 000000
    017151  aa   163040 040040    1585  		vfd a36/s   ,36/i_r,36/r_unequal,36/(l_461-l_org)/5,36/0
    017152  aa   000000 000000
    017153  aa   000000 000253
    017154  aa   000000 003027
    017155  aa   000000 000000
    017156  aa   040040 040040    1586  		vfd a36/    ,36/i_n,36/0,36/(inf_test-l_org)/5,36/0
    017157  aa   000000 000002
    017160  aa   000000 000000
    017161  aa   000000 003016
    017162  aa   000000 000000
    017163  aa   163040 040040    1587  l_461:		vfd a36/s   ,36/i_r,36/r_to,36/(obj_op-l_org)/5,36/0
    017164  aa   000000 000000
    017165  aa   000000 000252
    017166  aa   000000 003033
    017167  aa   000000 000000
    017170  aa   040040 040040    1588  		vfd a36/    ,36/i_n,36/0,36/(obj_op-l_org)/5,36/0
    017171  aa   000000 000002
    017172  aa   000000 000000
    017173  aa   000000 003033
    017174  aa   000000 000000
    017175  aa   040040 040040    1589  	inf_rel:	vfd a36/    ,36/i_s,36/(relop-l_org)/5,36/(l_462-l_org)/5,36/0
    017176  aa   000000 000003
    017177  aa   000000 003056
    017200  aa   000000 003033
    017201  aa   000000 000000
    017202  aa   040040 040040    1590  		vfd a36/    ,36/i_n,36/0,36/(inf_test-l_org)/5,36/0
    017203  aa   000000 000002
    017204  aa   000000 000000
    017205  aa   000000 003016
    017206  aa   000000 000000
    017207  aa   040040 040040    1591  l_462:	obj_op:	vfd a36/    ,36/i_s,36/(condop-l_org)/5,36/(l_463-l_org)/5,36/0
    017210  aa   000000 000003
    017211  aa   000000 003063
    017212  aa   000000 003035
    017213  aa   000000 000000
    017214  aa   040040 040040    1592  		vfd a36/    ,36/i_n,36/0,36/(r_2-l_org)/5,36/0
    017215  aa   000000 000002
    017216  aa   000000 000000
    017217  aa   000000 002701
    017220  aa   000000 000000
    017221  aa   040040 040040    1593  l_463:	bop:	vfd a36/    ,36/i_n,36/0,36/(l_464-l_org)/5,36/a_72
    017222  aa   000000 000002
    017223  aa   000000 000000
    017224  aa   000000 003036
    017225  aa   000000 000110
    017226  aa   163040 040040    1594  l_464:		vfd a36/s   ,36/i_r,36/r_and,36/(lpar-l_org)/5,36/0
    017227  aa   000000 000000
    017230  aa   000000 000115
    017231  aa   000000 002757
    017232  aa   000000 000000
    017233  aa   163040 040040    1595  	bop3:	vfd a36/s   ,36/i_r,36/r_or,36/(lpar-l_org)/5,36/0
    017234  aa   000000 000000
    017235  aa   000000 000207
    017236  aa   000000 002757
    017237  aa   000000 000000
    017240  aa   163040 040040    1596  		vfd a36/s   ,36/i_r,36/r_rt,36/(more_rpar-l_org)/5,36/a_73
    017241  aa   000000 000000
    017242  aa   000000 000274
    017243  aa   000000 003043
    017244  aa   000000 000111
    017245  aa   040040 040040    1597  		vfd a36/    ,36/i_c,36/c_lptopstk,36/(succ-l_org)/5,36/0
    017246  aa   000000 000001
    017247  aa   000000 000211
    017250  aa   000000 002750
    017251  aa   000000 000000
    017252  aa   040040 040040    1598  		vfd a36/    ,36/i_n,36/0,36/(r_2-l_org)/5,36/0
    017253  aa   000000 000002
    017254  aa   000000 000000
    017255  aa   000000 002701
    017256  aa   000000 000000
    017257  aa   163040 040040    1599  	more_rpar:	vfd a36/s   ,36/i_r,36/r_rt,36/(l_465-l_org)/5,36/a_64
    017260  aa   000000 000000
    017261  aa   000000 000274
    017262  aa   000000 003046
    017263  aa   000000 000100
    017264  aa   163040 040040    1600  		vfd a36/s   ,36/i_r,36/r_and,36/(lpar-l_org)/5,36/0
    017265  aa   000000 000000
    017266  aa   000000 000115
    017267  aa   000000 002757
    017270  aa   000000 000000
    017271  aa   040040 040040    1601  		vfd a36/    ,36/i_n,36/0,36/(bop3-l_org)/5,36/0
    017272  aa   000000 000002
    017273  aa   000000 000000
    017274  aa   000000 003037
    017275  aa   000000 000000
    017276  aa   040040 040040    1602  l_465:		vfd a36/    ,36/i_c,36/c_lptopstk,36/(more_rpar-l_org)/5,36/0
    017277  aa   000000 000001
    017300  aa   000000 000211
    017301  aa   000000 003043
    017302  aa   000000 000000
    017303  aa   040040 040040    1603  		vfd a36/    ,36/i_n,36/0,36/(r_2-l_org)/5,36/0
    017304  aa   000000 000002
    017305  aa   000000 000000
    017306  aa   000000 002701
    017307  aa   000000 000000
    017310  aa   163040 040040    1604  	pos_rel:	vfd a36/s   ,36/i_r,36/r_equals,36/(succ-l_org)/5,36/0
    017311  aa   000000 000000
    017312  aa   000000 000146
    017313  aa   000000 002750
    017314  aa   000000 000000
    017315  aa   163040 040040    1605  		vfd a36/s   ,36/i_r,36/r_exceeds,36/(succ-l_org)/5,36/0
    017316  aa   000000 000000
    017317  aa   000000 000161
    017320  aa   000000 002750
    017321  aa   000000 000000
    017322  aa   163040 040040    1606  		vfd a36/s   ,36/i_r,36/r_unequal,36/(l_466-l_org)/5,36/0
    017323  aa   000000 000000
    017324  aa   000000 000253
    017325  aa   000000 003054
    017326  aa   000000 000000
    017327  aa   040040 040040    1607  		vfd a36/    ,36/i_n,36/0,36/(fail-l_org)/5,36/0
    017330  aa   000000 000002
    017331  aa   000000 000000
    017332  aa   000000 002751
    017333  aa   000000 000000
    017334  aa   163040 040040    1608  l_466:		vfd a36/s   ,36/i_r,36/r_to,36/(succ-l_org)/5,36/0
    017335  aa   000000 000000
    017336  aa   000000 000252
    017337  aa   000000 002750
    017340  aa   000000 000000
    017341  aa   040040 040040    1609  		vfd a36/    ,36/i_n,36/0,36/(succ-l_org)/5,36/0
    017342  aa   000000 000002
    017343  aa   000000 000000
    017344  aa   000000 002750
    017345  aa   000000 000000
    017346  aa   163040 040040    1610  	relop:	vfd a36/s   ,36/i_c,36/c_relop,36/(l_467-l_org)/5,36/0
    017347  aa   000000 000001
    017350  aa   000000 000174
    017351  aa   000000 003060
    017352  aa   000000 000000
    017353  aa   040040 040040    1611  		vfd a36/    ,36/i_n,36/0,36/(fail-l_org)/5,36/0
    017354  aa   000000 000002
    017355  aa   000000 000000
    017356  aa   000000 002751
    017357  aa   000000 000000
    017360  aa   163040 040040    1612  l_467:		vfd a36/s   ,36/i_r,36/r_to,36/(succ-l_org)/5,36/0
    017361  aa   000000 000000
    017362  aa   000000 000252
    017363  aa   000000 002750
    017364  aa   000000 000000
    017365  aa   163040 040040    1613  		vfd a36/s   ,36/i_r,36/r_than,36/(succ-l_org)/5,36/0
    017366  aa   000000 000000
    017367  aa   000000 000245
    017370  aa   000000 002750
    017371  aa   000000 000000
    017372  aa   040040 040040    1614  		vfd a36/    ,36/i_n,36/0,36/(succ-l_org)/5,36/0
    017373  aa   000000 000002
    017374  aa   000000 000000
    017375  aa   000000 002750
    017376  aa   000000 000000
    017377  aa   040040 040040    1615  	condop:	vfd a36/    ,36/i_r,36/r_all,36/(cop4-l_org)/5,36/0
    017400  aa   000000 000000
    017401  aa   000000 000111
    017402  aa   000000 003075
    017403  aa   000000 000000
    017404  aa   040040 040040    1616  		vfd a36/    ,36/i_s,36/(arithexp-l_org)/5,36/(succ-l_org)/5,36/0
    017405  aa   000000 000003
    017406  aa   000000 003101
    017407  aa   000000 002750
    017410  aa   000000 000000
    017411  aa   040040 040040    1617  		vfd a36/    ,36/i_n,36/0,36/(l_468-l_org)/5,36/a_124
    017412  aa   000000 000002
    017413  aa   000000 000000
    017414  aa   000000 003066
    017415  aa   000000 000174
    017416  aa   163040 040040    1618  l_468:		vfd a36/s   ,36/i_s,36/(sid-l_org)/5,36/(succ-l_org)/5,36/a_123
    017417  aa   000000 000003
    017420  aa   000000 002347
    017421  aa   000000 002750
    017422  aa   000000 000173
    017423  aa   163040 040040    1619  	cop3:	vfd a36/s   ,36/i_c,36/c_lit,36/(succ-l_org)/5,36/0
    017424  aa   000000 000001
    017425  aa   000000 000025
    017426  aa   000000 002750
    017427  aa   000000 000000
    017430  aa   163040 040040    1620  	cop2:	vfd a36/s   ,36/i_c,36/c_figconall,36/(succ-l_org)/5,36/0
    017431  aa   000000 000001
    017432  aa   000000 000026
    017433  aa   000000 002750
    017434  aa   000000 000000
    017435  aa   163040 040040    1621  		vfd a36/s   ,36/i_c,36/c_xnm,36/(succ-l_org)/5,36/0
    017436  aa   000000 000001
    017437  aa   000000 000041
    017440  aa   000000 002750
    017441  aa   000000 000000
    017442  aa   163040 040040    1622  		vfd a36/s   ,36/i_s,36/(xdname-l_org)/5,36/(succ-l_org)/5,36/0
    017443  aa   000000 000003
    017444  aa   000000 002323
    017445  aa   000000 002750
    017446  aa   000000 000000
    017447  aa   040040 040040    1623  		vfd a36/    ,36/i_r,36/r_all,36/(l_469-l_org)/5,36/0
    017450  aa   000000 000000
    017451  aa   000000 000111
    017452  aa   000000 003075
    017453  aa   000000 000000
    017454  aa   040040 040040    1624  		vfd a36/    ,36/i_n,36/0,36/(fail-l_org)/5,36/0
    017455  aa   000000 000002
    017456  aa   000000 000000
    017457  aa   000000 002751
    017460  aa   000000 000000
    017461  aa   163040 040040    1625  l_469:	cop4:	vfd a36/s   ,36/i_n,36/0,36/(l_470-l_org)/5,36/0
    017462  aa   000000 000002
    017463  aa   000000 000000
    017464  aa   000000 003076
    017465  aa   000000 000000
    017466  aa   040040 040040    1626  l_470:		vfd a36/    ,36/i_c,36/c_figconall,36/(cop2-l_org)/5,36/0
    017467  aa   000000 000001
    017470  aa   000000 000026
    017471  aa   000000 003070
    017472  aa   000000 000000
    017473  aa   040040 040040    1627  		vfd a36/    ,36/i_c,36/c_nonumlit,36/(cop3-l_org)/5,36/0
    017474  aa   000000 000001
    017475  aa   000000 000017
    017476  aa   000000 003067
    017477  aa   000000 000000
    017500  aa   040040 040040    1628  		vfd a36/    ,36/i_n,36/0,36/(r_2-l_org)/5,36/0
    017501  aa   000000 000002
    017502  aa   000000 000000
    017503  aa   000000 002701
    017504  aa   000000 000000
    017505  aa   163040 040040    1629  	arithexp:	vfd a36/s   ,36/i_r,36/r_pls,36/(ae_3-l_org)/5,36/0
    017506  aa   000000 000000
    017507  aa   000000 000266
    017510  aa   000000 003111
    017511  aa   000000 000000
    017512  aa   163040 040040    1630  		vfd a36/s   ,36/i_r,36/r_sub,36/(ae_3-l_org)/5,36/0
    017513  aa   000000 000000
    017514  aa   000000 000267
    017515  aa   000000 003111
    017516  aa   000000 000000
    017517  aa   040040 040040    1631  		vfd a36/    ,36/i_n,36/0,36/(l_471-l_org)/5,36/a_124
    017520  aa   000000 000002
    017521  aa   000000 000000
    017522  aa   000000 003104
    017523  aa   000000 000174
    017524  aa   163040 040040    1632  l_471:		vfd a36/s   ,36/i_s,36/(elnuitem-l_org)/5,36/(ae_1-l_org)/5,36/a_123
    017525  aa   000000 000003
    017526  aa   000000 002642
    017527  aa   000000 003115
    017530  aa   000000 000173
    017531  aa   163040 040040    1633  		vfd a36/s   ,36/i_r,36/r_lt,36/(l_472-l_org)/5,36/0
    017532  aa   000000 000000
    017533  aa   000000 000273
    017534  aa   000000 003107
    017535  aa   000000 000000
    017536  aa   040040 040040    1634  		vfd a36/    ,36/i_n,36/0,36/(fail-l_org)/5,36/0
    017537  aa   000000 000002
    017540  aa   000000 000000
    017541  aa   000000 002751
    017542  aa   000000 000000
    017543  aa   163040 040040    1635  l_472:	ae_2:	vfd a36/s   ,36/i_r,36/r_pls,36/(l_473-l_org)/5,36/0
    017544  aa   000000 000000
    017545  aa   000000 000266
    017546  aa   000000 003111
    017547  aa   000000 000000
    017550  aa   163040 040040    1636  		vfd a36/s   ,36/i_r,36/r_sub,36/(l_473-l_org)/5,36/0
    017551  aa   000000 000000
    017552  aa   000000 000267
    017553  aa   000000 003111
    017554  aa   000000 000000
    017555  aa   040040 040040    1637  l_473:	ae_3:	vfd a36/    ,36/i_n,36/0,36/(l_474-l_org)/5,36/a_124
    017556  aa   000000 000002
    017557  aa   000000 000000
    017560  aa   000000 003112
    017561  aa   000000 000174
    017562  aa   163040 040040    1638  l_474:		vfd a36/s   ,36/i_s,36/(elnuitem-l_org)/5,36/(l_475-l_org)/5,36/a_123
    017563  aa   000000 000003
    017564  aa   000000 002642
    017565  aa   000000 003115
    017566  aa   000000 000173
    017567  aa   163040 040040    1639  		vfd a36/s   ,36/i_r,36/r_lt,36/(ae_2-l_org)/5,36/a_63
    017570  aa   000000 000000
    017571  aa   000000 000273
    017572  aa   000000 003107
    017573  aa   000000 000077
    017574  aa   040040 040040    1640  		vfd a36/    ,36/i_n,36/0,36/(r_2-l_org)/5,36/0
    017575  aa   000000 000002
    017576  aa   000000 000000
    017577  aa   000000 002701
    017600  aa   000000 000000
    017601  aa   163040 040040    1641  l_475:	ae_1:	vfd a36/s   ,36/i_c,36/c_arop,36/(ae_2-l_org)/5,36/0
    017602  aa   000000 000001
    017603  aa   000000 000120
    017604  aa   000000 003107
    017605  aa   000000 000000
    017606  aa   163040 040040    1642  		vfd a36/s   ,36/i_r,36/r_rt,36/(l_476-l_org)/5,36/a_64
    017607  aa   000000 000000
    017610  aa   000000 000274
    017611  aa   000000 003120
    017612  aa   000000 000100
    017613  aa   040040 040040    1643  		vfd a36/    ,36/i_n,36/0,36/(succ-l_org)/5,36/0
    017614  aa   000000 000002
    017615  aa   000000 000000
    017616  aa   000000 002750
    017617  aa   000000 000000
    017620  aa   040040 040040    1644  l_476:		vfd a36/    ,36/i_c,36/c_lptopstk,36/(ae_1-l_org)/5,36/0
    017621  aa   000000 000001
    017622  aa   000000 000211
    017623  aa   000000 003115
    017624  aa   000000 000000
    017625  aa   040040 040040    1645  		vfd a36/    ,36/i_n,36/0,36/(r_2-l_org)/5,36/0
    017626  aa   000000 000002
    017627  aa   000000 000000
    017630  aa   000000 002701
    017631  aa   000000 000000
    017632  aa   040040 040040    1646  		vfd a36/    ,36/i_n,36/0,36/(l_477-l_org)/5,36/0
    017633  aa   000000 000002
    017634  aa   000000 000000
    017635  aa   000000 003123
    017636  aa   000000 000000
    017637  aa   040040 040040    1647  l_477:		vfd a36/    ,36/i_r,36/r_records,36/(l_477-l_org)/5,36/0
    017640  aa   000000 000000
    017641  aa   000000 000303
    017642  aa   000000 003123
    017643  aa   000000 000000
    017644  aa   040040 040040    1648  l_478:		vfd a36/    ,36/i_r,36/r_in,36/(l_478-l_org)/5,36/0
    017645  aa   000000 000000
    017646  aa   000000 000145
    017647  aa   000000 003124
    017650  aa   000000 000000
    017651  aa   040040 040040    1649  l_479:		vfd a36/    ,36/i_r,36/r_of,36/(l_479-l_org)/5,36/0
    017652  aa   000000 000000
    017653  aa   000000 000205
    017654  aa   000000 003125
    017655  aa   000000 000000
    017656  aa   040040 040040    1650  l_480:		vfd a36/    ,36/i_r,36/r_end_of_page,36/(l_480-l_org)/5,36/0
    017657  aa   000000 000000
    017660  aa   000000 000144
    017661  aa   000000 003126
    017662  aa   000000 000000
    017663  aa   040040 040040    1651  l_481:		vfd a36/    ,36/i_r,36/r_equal,36/(l_481-l_org)/5,36/0
    017664  aa   000000 000000
    017665  aa   000000 000146
    017666  aa   000000 003127
    017667  aa   000000 000000
    017670  aa   040040 040040    1652  l_482:		vfd a36/    ,36/i_r,36/r_greater,36/(l_482-l_org)/5,36/0
    017671  aa   000000 000000
    017672  aa   000000 000161
    017673  aa   000000 003130
    017674  aa   000000 000000
    017675  aa   040040 040040    1653  l_483:		vfd a36/    ,36/i_r,36/r_copy,36/(l_483-l_org)/5,36/0
    017676  aa   000000 000000
    017677  aa   000000 001012
    017700  aa   000000 003131
    017701  aa   000000 000000
    017702  aa   040040 040040    1654  l_484:		vfd a36/    ,36/i_r,36/r_corr,36/(l_484-l_org)/5,36/0
    017703  aa   000000 000000
    017704  aa   000000 001014
    017705  aa   000000 003132
    017706  aa   000000 000000
    017707  aa   040040 040040    1655  l_485:		vfd a36/    ,36/i_r,36/r_corresponding,36/(l_485-l_org)/5,36/0
    017710  aa   000000 000000
    017711  aa   000000 001014
    017712  aa   000000 003133
    017713  aa   000000 000000
    017714  aa   040040 040040    1656  l_486:		vfd a36/    ,36/i_r,36/r_off,36/(l_486-l_org)/5,36/0
    017715  aa   000000 000000
    017716  aa   000000 001076
    017717  aa   000000 003134
    017720  aa   000000 000000
    017721  aa   040040 040040    1657  l_487:		vfd a36/    ,36/i_r,36/r_replace,36/(l_487-l_org)/5,36/0
    017722  aa   000000 000000
    017723  aa   000000 000651
    017724  aa   000000 003135
    017725  aa   000000 000000
    017726  aa   040040 040040    1658  l_488:		vfd a36/    ,36/i_r,36/r_high_value,36/(l_488-l_org)/5,36/0
    017727  aa   000000 000000
    017730  aa   000000 000335
    017731  aa   000000 003136
    017732  aa   000000 000000
    017733  aa   040040 040040    1659  l_489:		vfd a36/    ,36/i_r,36/r_high_values,36/(l_489-l_org)/5,36/0
    017734  aa   000000 000000
    017735  aa   000000 000335
    017736  aa   000000 003137
    017737  aa   000000 000000
    017740  aa   040040 040040    1660  l_490:		vfd a36/    ,36/i_r,36/r_low_value,36/(l_490-l_org)/5,36/0
    017741  aa   000000 000000
    017742  aa   000000 000345
    017743  aa   000000 003140
    017744  aa   000000 000000
    017745  aa   040040 040040    1661  l_491:		vfd a36/    ,36/i_r,36/r_low_values,36/(l_491-l_org)/5,36/0
    017746  aa   000000 000000
    017747  aa   000000 000345
    017750  aa   000000 003141
    017751  aa   000000 000000
    017752  aa   040040 040040    1662  l_492:		vfd a36/    ,36/i_r,36/r_zero,36/(l_492-l_org)/5,36/0
    017753  aa   000000 000000
    017754  aa   000000 000264
    017755  aa   000000 003142
    017756  aa   000000 000000
    017757  aa   040040 040040    1663  l_493:		vfd a36/    ,36/i_r,36/r_zeros,36/(l_493-l_org)/5,36/0
    017760  aa   000000 000000
    017761  aa   000000 000264
    017762  aa   000000 003143
    017763  aa   000000 000000
    017764  aa   040040 040040    1664  l_494:		vfd a36/    ,36/i_r,36/r_zeroes,36/(l_494-l_org)/5,36/0
    017765  aa   000000 000000
    017766  aa   000000 000264
    017767  aa   000000 003144
    017770  aa   000000 000000
    017771  aa   040040 040040    1665  l_495:		vfd a36/    ,36/i_r,36/r_quote,36/(l_495-l_org)/5,36/0
    017772  aa   000000 000000
    017773  aa   000000 000353
    017774  aa   000000 003145
    017775  aa   000000 000000
    017776  aa   040040 040040    1666  l_496:		vfd a36/    ,36/i_r,36/r_quotes,36/(l_496-l_org)/5,36/0
    017777  aa   000000 000000
    020000  aa   000000 000353
    020001  aa   000000 003146
    020002  aa   000000 000000
    020003  aa   040040 040040    1667  l_497:		vfd a36/    ,36/i_r,36/r_space,36/(l_497-l_org)/5,36/0
    020004  aa   000000 000000
    020005  aa   000000 000300
    020006  aa   000000 003147
    020007  aa   000000 000000
    020010  aa   040040 040040    1668  l_498:		vfd a36/    ,36/i_r,36/r_spaces,36/(l_498-l_org)/5,36/0
    020011  aa   000000 000000
    020012  aa   000000 000300
    020013  aa   000000 003150
    020014  aa   000000 000000
    020015  aa   040040 040040    1669  l_499:		vfd a36/    ,36/i_r,36/r_linage_counter,36/(l_499-l_org)/5,36/0
    020016  aa   000000 000000
    020017  aa   000000 001064
    020020  aa   000000 003151
    020021  aa   000000 000000
    020022  aa   040040 040040    1670  l_500:		vfd a36/    ,36/i_r,36/r_negative,36/(l_500-l_org)/5,36/0
    020023  aa   000000 000000
    020024  aa   000000 000177
    020025  aa   000000 003152
    020026  aa   000000 000000
    020027  aa   040040 040040    1671  l_501:		vfd a36/    ,36/i_r,36/r_positive,36/(l_501-l_org)/5,36/0
    020030  aa   000000 000000
    020031  aa   000000 000215
    020032  aa   000000 003153
    020033  aa   000000 000000
    020034  aa   040040 040040    1672  l_502:		vfd a36/    ,36/i_r,36/r_through,36/(l_502-l_org)/5,36/0
    020035  aa   000000 000000
    020036  aa   000000 000246
    020037  aa   000000 003154
    020040  aa   000000 000000
    020041  aa   040040 040040    1673  l_503:		vfd a36/    ,36/i_r,36/r_character,36/(l_503-l_org)/5,36/0
    020042  aa   000000 000000
    020043  aa   000000 000123
    020044  aa   000000 003155
    020045  aa   000000 000000
    020046  aa   040040 040040    1674  l_504:		vfd a36/    ,36/i_r,36/r_line,36/(l_504-l_org)/5,36/0
    020047  aa   000000 000000
    020050  aa   000000 000174
    020051  aa   000000 003156
    020052  aa   000000 000000
    020053  aa   040040 040040    1675  l_505:		vfd a36/    ,36/i_r,36/r_pls,36/(l_505-l_org)/5,36/0
    020054  aa   000000 000000
    020055  aa   000000 000266
    020056  aa   000000 003157
    020057  aa   000000 000000
    020060  aa   040040 040040    1676  l_506:		vfd a36/    ,36/i_r,36/r_sub,36/(l_506-l_org)/5,36/0
    020061  aa   000000 000000
    020062  aa   000000 000267
    020063  aa   000000 003160
    020064  aa   000000 000000
    020065  aa   040040 040040    1677  l_507:		vfd a36/    ,36/i_r,36/r_tim,36/(l_507-l_org)/5,36/0
    020066  aa   000000 000000
    020067  aa   000000 000270
    020070  aa   000000 003161
    020071  aa   000000 000000
    020072  aa   040040 040040    1678  l_508:		vfd a36/    ,36/i_r,36/r_div,36/(l_508-l_org)/5,36/0
    020073  aa   000000 000000
    020074  aa   000000 000271
    020075  aa   000000 003162
    020076  aa   000000 000000
    020077  aa   040040 040040    1679  l_509:		vfd a36/    ,36/i_r,36/r_exp,36/(l_509-l_org)/5,36/0
    020100  aa   000000 000000
    020101  aa   000000 000272
    020102  aa   000000 003163
    020103  aa   000000 000000
    020104  aa   040040 040040    1680  l_510:		vfd a36/    ,36/i_r,36/r_ls,36/(l_510-l_org)/5,36/0
    020105  aa   000000 000000
    020106  aa   000000 000173
    020107  aa   000000 003164
    020110  aa   000000 000000
    020111  aa   040040 040040    1681  l_511:		vfd a36/    ,36/i_r,36/r_gt,36/(l_511-l_org)/5,36/0
    020112  aa   000000 000000
    020113  aa   000000 000161
    020114  aa   000000 003165
    020115  aa   000000 000000
    020116  aa   040040 040040    1682  l_512:		vfd a36/    ,36/i_r,36/r_eq,36/(l_512-l_org)/5,36/0
    020117  aa   000000 000000
    020120  aa   000000 000146
    020121  aa   000000 003166
    020122  aa   000000 000000
                        000305    1683  	equ c_acc_dev,197
                        000210    1684  	equ c_actloglp,136
                        000236    1685  	equ c_adrisadr,158
                        000165    1686  	equ c_alelnuitm,117
                        000151    1687  	equ c_alph,105
                        000303    1688  	equ c_alphnm,195
                        000172    1689  	equ c_alphoral,122
                        000277    1690  	equ c_altlegal,191
                        000015    1691  	equ c_altprnm,13
                        000274    1692  	equ c_altst,188
                        000311    1693  	equ c_amarg,201
                        000146    1694  	equ c_an,102
                        000104    1695  	equ c_andait,68
                        000142    1696  	equ c_anes,98
                        000207    1697  	equ c_argscomp,135
                        000120    1698  	equ c_arop,80
                        000173    1699  	equ c_aroprp,123
                        000061    1700  	equ c_asfil,49
                        000127    1701  	equ c_cdname,87
                        000247    1702  	equ c_ckdecpn,167
                        000253    1703  	equ c_ckdsegnum,171
                        000254    1704  	equ c_ckerrex,172
                        000260    1705  	equ c_ckextend,176
                        000255    1706  	equ c_ckinput,173
                        000252    1707  	equ c_ckintbit,170
                        000257    1708  	equ c_ckio,175
                        000246    1709  	equ c_cklit,166
                        000264    1710  	equ c_cklit1,180
                        000266    1711  	equ c_cklit2,182
                        000256    1712  	equ c_ckoutput,174
                        000230    1713  	equ c_ckprpnbit,152
                        000245    1714  	equ c_ckrcpref,165
                        000243    1715  	equ c_ckrng1,163
                        000244    1716  	equ c_ckrng2,164
                        000250    1717  	equ c_cksegm,168
                        000242    1718  	equ c_cktp25,162
                        000276    1719  	equ c_csstst,190
                        000273    1720  	equ c_cstst,187
                        000214    1721  	equ c_daib,140
                        000130    1722  	equ c_dana,88
                        000227    1723  	equ c_decnondec,151
                        000032    1724  	equ c_descnm,26
                        000043    1725  	equ c_descnmra,35
                        000132    1726  	equ c_deswon,90
                        000126    1727  	equ c_deswz,86
                        000322    1728  	equ c_devprt,210
                        000306    1729  	equ c_disp_dev,198
                        000075    1730  	equ c_dninfl,61
                        000042    1731  	equ c_ecnt,34
                        000170    1732  	equ c_edalelnue,120
                        000164    1733  	equ c_edalit,116
                        000275    1734  	equ c_edaltst,189
                        000241    1735  	equ c_edick,161
                        000105    1736  	equ c_egrze,69
                        000225    1737  	equ c_elaanne,149
                        000137    1738  	equ c_eldis,95
                        000122    1739  	equ c_elemred,82
                        000100    1740  	equ c_elneds,64
                        000167    1741  	equ c_elnudnint,119
                        000101    1742  	equ c_elnuindi,65
                        000166    1743  	equ c_elnuint,118
                        000102    1744  	equ c_elnuit,66
                        000047    1745  	equ c_endcob,39
                        000163    1746  	equ c_enddec,115
                        000121    1747  	equ c_examlitid,81
                        000026    1748  	equ c_figconall,22
                        000103    1749  	equ c_file,67
                        000005    1750  	equ c_filenm,5
                        000053    1751  	equ c_fileno,43
                        000217    1752  	equ c_filnefil,143
                        000171    1753  	equ c_filno,121
                        000077    1754  	equ c_flusisds,63
                        000006    1755  	equ c_formtlb,6
                        000221    1756  	equ c_gotod,145
                        000143    1757  	equ c_group,99
                        000113    1758  	equ c_ieqlvl,75
                        000125    1759  	equ c_impsw,85
                        000051    1760  	equ c_impvrb,41
                        000110    1761  	equ c_in_line,72
                        000001    1762  	equ c_inbit,1
                        000022    1763  	equ c_incdnm,18
                        000115    1764  	equ c_indeqind,77
                        000231    1765  	equ c_indev,153
                        000114    1766  	equ c_indexed,76
                        000220    1767  	equ c_indxfile,144
                        000057    1768  	equ c_inrng,47
                        000030    1769  	equ c_is_cobol,24
                        000310    1770  	equ c_is_lang,200
                        000240    1771  	equ c_is_rout,160
                        000176    1772  	equ c_is_sub_opt,126
                        000316    1773  	equ c_is_user_word,206
                        000024    1774  	equ c_ixfil,20
                        000123    1775  	equ c_ixrlrady,83
                        000233    1776  	equ c_ixrlsqdy,155
                        000235    1777  	equ c_keyiskey,157
                        000064    1778  	equ c_keylbl,52
                        000160    1779  	equ c_lefdep,112
                        000203    1780  	equ c_lefparstk,131
                        000300    1781  	equ c_lev_test,192
                        000002    1782  	equ c_lident,2
                        000107    1783  	equ c_linage,71
                        000003    1784  	equ c_linktot,3
                        000025    1785  	equ c_lit,21
                        000204    1786  	equ c_logbitstk,132
                        000205    1787  	equ c_logstk,133
                        000211    1788  	equ c_lptopstk,137
                        000265    1789  	equ c_mcobol,181
                        000070    1790  	equ c_mnenm,56
                        000037    1791  	equ c_msfilnm,31
                        000215    1792  	equ c_nestedif,141
                        000222    1793  	equ c_njustr,146
                        000320    1794  	equ c_nlit,208
                        000036    1795  	equ c_nomsss,30
                        000223    1796  	equ c_nonumdn,147
                        000017    1797  	equ c_nonumlit,15
                        000013    1798  	equ c_not_opt,11
                        000201    1799  	equ c_notalpstk,129
                        000200    1800  	equ c_notnumstk,128
                        000035    1801  	equ c_notseqac,29
                        000046    1802  	equ c_notseqfl,38
                        000021    1803  	equ c_nsfilnm,17
                        000106    1804  	equ c_nsrecnm,70
                        000271    1805  	equ c_nstorg,185
                        000267    1806  	equ c_nstream,183
                        000141    1807  	equ c_nues,97
                        000014    1808  	equ c_numlit,12
                        000177    1809  	equ c_numstak,127
                        000251    1810  	equ c_nznumlit,169
                        000304    1811  	equ c_on_off,196
                        000066    1812  	equ c_onechnosn,54
                        000317    1813  	equ c_open_mode,207
                        000023    1814  	equ c_outcdnm,19
                        000232    1815  	equ c_outdev,154
                        000060    1816  	equ c_outrng,48
                        000010    1817  	equ c_paranm,8
                        000116    1818  	equ c_pigz,78
                        000321    1819  	equ c_pigz_by,209
                        000175    1820  	equ c_pnz,125
                        000073    1821  	equ c_posint,59
                        000010    1822  	equ c_prdef,8
                        000050    1823  	equ c_preosp,40
                        000140    1824  	equ c_preospn,96
                        000016    1825  	equ c_prnm,14
                        000012    1826  	equ c_prnum,10
                        000307    1827  	equ c_prt_con,199
                        000224    1828  	equ c_rae,148
                        000055    1829  	equ c_rafl,45
                        000056    1830  	equ c_recnm,46
                        000234    1831  	equ c_relfile,156
                        000174    1832  	equ c_relop,124
                        000033    1833  	equ c_repnm,27
                        000301    1834  	equ c_resword,193
                        000007    1835  	equ c_rident,7
                        000157    1836  	equ c_ritdep,111
                        000031    1837  	equ c_rpid,25
                        000044    1838  	equ c_saanm,36
                        000045    1839  	equ c_said,37
                        000156    1840  	equ c_san,110
                        000004    1841  	equ c_sechdr,4
                        000124    1842  	equ c_secsw,84
                        000065    1843  	equ c_seqfil,53
                        000133    1844  	equ c_seqnext,91
                        000323    1845  	equ c_seqstmfil,211
                        000313    1846  	equ c_set_pigz,203
                        000312    1847  	equ c_set_xint,202
                        000034    1848  	equ c_sizlit,28
                        000162    1849  	equ c_slelef,114
                        000144    1850  	equ c_sler,100
                        000154    1851  	equ c_snae,108
                        000153    1852  	equ c_snal,107
                        000147    1853  	equ c_sndrdp,103
                        000155    1854  	equ c_snne,109
                        000152    1855  	equ c_snon,106
                        000145    1856  	equ c_snor,101
                        000150    1857  	equ c_snos,104
                        000027    1858  	equ c_sqacdyac,23
                        000054    1859  	equ c_sqfl,44
                        000067    1860  	equ c_sqrlsqac,55
                        000216    1861  	equ c_srchf2,142
                        000062    1862  	equ c_srchid,50
                        000074    1863  	equ c_srtfil,60
                        000206    1864  	equ c_sscondnm,134
                        000237    1865  	equ c_ssnm,159
                        000135    1866  	equ c_sterm,93
                        000270    1867  	equ c_stream,184
                        000161    1868  	equ c_stun,113
                        000112    1869  	equ c_sudana,74
                        000226    1870  	equ c_suxdnm,150
                        000315    1871  	equ c_tst_pigz,205
                        000314    1872  	equ c_tst_xint,204
                        000302    1873  	equ c_type9,194
                        000272    1874  	equ c_udneli,186
                        000111    1875  	equ c_undana,73
                        000134    1876  	equ c_unelnudn,92
                        000117    1877  	equ c_unsint,79
                        000212    1878  	equ c_unxdnm,138
                        000136    1879  	equ c_usagid,94
                        000040    1880  	equ c_useform1,32
                        000071    1881  	equ c_useform1a,57
                        000131    1882  	equ c_useform1b,89
                        000261    1883  	equ c_useformds,177
                        000262    1884  	equ c_useformr,178
                        000263    1885  	equ c_useformrw,179
                        000020    1886  	equ c_useid,16
                        000076    1887  	equ c_usisds,62
                        000063    1888  	equ c_usornm,51
                        000052    1889  	equ c_varsiz,42
                        000011    1890  	equ c_verb,9
                        000072    1891  	equ c_xint,58
                        000041    1892  	equ c_xnm,33
                        000202    1893  	equ c_zerstk,130
                        000001    1894  	equ a_1,1
                        000012    1895  	equ a_10,10
                        000144    1896  	equ a_100,100
                        000145    1897  	equ a_101,101
                        000146    1898  	equ a_102,102
                        000147    1899  	equ a_103,103
                        000150    1900  	equ a_104,104
                        000151    1901  	equ a_105,105
                        000152    1902  	equ a_106,106
                        000153    1903  	equ a_107,107
                        000154    1904  	equ a_108,108
                        000155    1905  	equ a_109,109
                        000013    1906  	equ a_11,11
                        000156    1907  	equ a_110,110
                        000157    1908  	equ a_111,111
                        000160    1909  	equ a_112,112
                        000161    1910  	equ a_113,113
                        000162    1911  	equ a_114,114
                        000163    1912  	equ a_115,115
                        000164    1913  	equ a_116,116
                        000165    1914  	equ a_117,117
                        000166    1915  	equ a_118,118
                        000167    1916  	equ a_119,119
                        000014    1917  	equ a_12,12
                        000170    1918  	equ a_120,120
                        000171    1919  	equ a_121,121
                        000172    1920  	equ a_122,122
                        000173    1921  	equ a_123,123
                        000174    1922  	equ a_124,124
                        000015    1923  	equ a_13,13
                        000016    1924  	equ a_14,14
                        000017    1925  	equ a_15,15
                        000020    1926  	equ a_16,16
                        000021    1927  	equ a_17,17
                        000022    1928  	equ a_18,18
                        000023    1929  	equ a_19,19
                        000002    1930  	equ a_2,2
                        000024    1931  	equ a_20,20
                        000025    1932  	equ a_21,21
                        000026    1933  	equ a_22,22
                        000027    1934  	equ a_23,23
                        000030    1935  	equ a_24,24
                        000031    1936  	equ a_25,25
                        000032    1937  	equ a_26,26
                        000033    1938  	equ a_27,27
                        000034    1939  	equ a_28,28
                        000035    1940  	equ a_29,29
                        000003    1941  	equ a_3,3
                        000036    1942  	equ a_30,30
                        000037    1943  	equ a_31,31
                        000040    1944  	equ a_32,32
                        000041    1945  	equ a_33,33
                        000042    1946  	equ a_34,34
                        000043    1947  	equ a_35,35
                        000044    1948  	equ a_36,36
                        000045    1949  	equ a_37,37
                        000046    1950  	equ a_38,38
                        000047    1951  	equ a_39,39
                        000004    1952  	equ a_4,4
                        000050    1953  	equ a_40,40
                        000051    1954  	equ a_41,41
                        000052    1955  	equ a_42,42
                        000053    1956  	equ a_43,43
                        000054    1957  	equ a_44,44
                        000055    1958  	equ a_45,45
                        000056    1959  	equ a_46,46
                        000057    1960  	equ a_47,47
                        000060    1961  	equ a_48,48
                        000061    1962  	equ a_49,49
                        000005    1963  	equ a_5,5
                        000062    1964  	equ a_50,50
                        000063    1965  	equ a_51,51
                        000064    1966  	equ a_52,52
                        000065    1967  	equ a_53,53
                        000066    1968  	equ a_54,54
                        000067    1969  	equ a_55,55
                        000070    1970  	equ a_56,56
                        000071    1971  	equ a_57,57
                        000072    1972  	equ a_58,58
                        000073    1973  	equ a_59,59
                        000006    1974  	equ a_6,6
                        000074    1975  	equ a_60,60
                        000075    1976  	equ a_61,61
                        000076    1977  	equ a_62,62
                        000077    1978  	equ a_63,63
                        000100    1979  	equ a_64,64
                        000101    1980  	equ a_65,65
                        000102    1981  	equ a_66,66
                        000103    1982  	equ a_67,67
                        000104    1983  	equ a_68,68
                        000105    1984  	equ a_69,69
                        000007    1985  	equ a_7,7
                        000106    1986  	equ a_70,70
                        000107    1987  	equ a_71,71
                        000110    1988  	equ a_72,72
                        000111    1989  	equ a_73,73
                        000112    1990  	equ a_74,74
                        000113    1991  	equ a_75,75
                        000114    1992  	equ a_76,76
                        000115    1993  	equ a_77,77
                        000116    1994  	equ a_78,78
                        000117    1995  	equ a_79,79
                        000010    1996  	equ a_8,8
                        000120    1997  	equ a_80,80
                        000121    1998  	equ a_81,81
                        000122    1999  	equ a_82,82
                        000123    2000  	equ a_83,83
                        000124    2001  	equ a_84,84
                        000125    2002  	equ a_85,85
                        000130    2003  	equ a_88,88
                        000131    2004  	equ a_89,89
                        000011    2005  	equ a_9,9
                        000132    2006  	equ a_90,90
                        000133    2007  	equ a_91,91
                        000134    2008  	equ a_92,92
                        000135    2009  	equ a_93,93
                        000136    2010  	equ a_94,94
                        000137    2011  	equ a_95,95
                        000140    2012  	equ a_96,96
                        000141    2013  	equ a_97,97
                        000142    2014  	equ a_98,98
                        000143    2015  	equ a_99,99
                        000127    2016  	equ a_endjob,87
                        000126    2017  	equ a_eos,86
                        000146    2018  	equ r_eq,102
                        000273    2019  	equ r_lt,187
                        000274    2020  	equ r_rt,188
                        000270    2021  	equ r_tim,184
                        000272    2022  	equ r_exp,186
                        000266    2023  	equ r_pls,182
                        000267    2024  	equ r_sub,183
                        000275    2025  	equ r_per,189
                        000271    2026  	equ r_div,185
                        000173    2027  	equ r_ls,123
                        000161    2028  	equ r_gt,113
                        000001    2029  	equ r_accept,1
                        000002    2030  	equ r_add,2
                        000107    2031  	equ r_advancing,71
                        000110    2032  	equ r_after,72
                        000111    2033  	equ r_all,73
                        000112    2034  	equ r_alphabetic,74
                        000004    2035  	equ r_alter,4
                        000115    2036  	equ r_and,77
                        000116    2037  	equ r_ascending,78
                        000117    2038  	equ r_at,79
                        000120    2039  	equ r_before,80
                        000121    2040  	equ r_beginning,81
                        000122    2041  	equ r_by,82
                        000005    2042  	equ r_call,5
                        000007    2043  	equ r_cancel,7
                        000123    2044  	equ r_character,83
                        000123    2045  	equ r_characters,83
                        000010    2046  	equ r_close,8
                        001003    2047  	equ r_collating,515
                        000050    2048  	equ r_compute,40
                        001012    2049  	equ r_copy,522
                        001014    2050  	equ r_corr,524
                        001014    2051  	equ r_corresponding,524
                        000124    2052  	equ r_count,84
                        000304    2053  	equ r_data,196
                        000126    2054  	equ r_date,86
                        000127    2055  	equ r_day,87
                        000506    2056  	equ r_day_of_week,326
                        000130    2057  	equ r_debugging,88
                        000131    2058  	equ r_declaratives,89
                        000026    2059  	equ r_delete,22
                        000132    2060  	equ r_delimited,90
                        000133    2061  	equ r_delimiter,91
                        000134    2062  	equ r_depending,92
                        000135    2063  	equ r_descending,93
                        000051    2064  	equ r_disable,41
                        000052    2065  	equ r_display,42
                        000011    2066  	equ r_divide,9
                        000136    2067  	equ r_division,94
                        000137    2068  	equ r_down,95
                        000351    2069  	equ r_egi,233
                        000140    2070  	equ r_else,96
                        000141    2071  	equ r_emi,97
                        000053    2072  	equ r_enable,43
                        000142    2073  	equ r_end,98
                        000722    2074  	equ r_end_add,466
                        000723    2075  	equ r_end_call,467
                        000724    2076  	equ r_end_compute,468
                        000725    2077  	equ r_end_delete,469
                        000726    2078  	equ r_end_divide,470
                        000727    2079  	equ r_end_evaluate,471
                        000730    2080  	equ r_end_if,472
                        000731    2081  	equ r_end_multiply,473
                        000144    2082  	equ r_end_of_page,100
                        000732    2083  	equ r_end_perform,474
                        000733    2084  	equ r_end_read,475
                        000734    2085  	equ r_end_receive,476
                        000735    2086  	equ r_end_return,477
                        000736    2087  	equ r_end_rewrite,478
                        000737    2088  	equ r_end_search,479
                        000740    2089  	equ r_end_start,480
                        000741    2090  	equ r_end_string,481
                        000742    2091  	equ r_end_subtract,482
                        000743    2092  	equ r_end_unstring,483
                        000744    2093  	equ r_end_write,484
                        000143    2094  	equ r_ending,99
                        000144    2095  	equ r_eop,100
                        000146    2096  	equ r_equal,102
                        000146    2097  	equ r_equals,102
                        000003    2098  	equ r_error,3
                        000151    2099  	equ r_esi,105
                        000062    2100  	equ r_examine,50
                        000161    2101  	equ r_exceeds,113
                        000153    2102  	equ r_exception,107
                        000014    2103  	equ r_exit,12
                        000330    2104  	equ r_extend,216
                        000154    2105  	equ r_file,108
                        000155    2106  	equ r_first,109
                        000156    2107  	equ r_for,110
                        000157    2108  	equ r_from,111
                        000055    2109  	equ r_generate,45
                        000160    2110  	equ r_giving,112
                        000016    2111  	equ r_go,14
                        000161    2112  	equ r_greater,113
                        000335    2113  	equ r_high_value,221
                        000335    2114  	equ r_high_values,221
                        000056    2115  	equ r_hold,46
                        000167    2116  	equ r_i_o,119
                        000057    2117  	equ r_if,47
                        000145    2118  	equ r_in,101
                        000162    2119  	equ r_initial,114
                        000020    2120  	equ r_initiate,16
                        000163    2121  	equ r_input,115
                        000021    2122  	equ r_inspect,17
                        000164    2123  	equ r_into,116
                        000165    2124  	equ r_invalid,117
                        000166    2125  	equ r_is,118
                        000170    2126  	equ r_key,120
                        000171    2127  	equ r_label,121
                        000172    2128  	equ r_leading,122
                        000173    2129  	equ r_less,123
                        001064    2130  	equ r_linage_counter,564
                        000174    2131  	equ r_line,124
                        000174    2132  	equ r_lines,124
                        000175    2133  	equ r_lock,125
                        000345    2134  	equ r_low_value,229
                        000345    2135  	equ r_low_values,229
                        000017    2136  	equ r_merge,15
                        000176    2137  	equ r_message,126
                        000022    2138  	equ r_move,18
                        000012    2139  	equ r_multiply,10
                        000177    2140  	equ r_negative,127
                        000200    2141  	equ r_next,128
                        000201    2142  	equ r_no,129
                        000202    2143  	equ r_not,130
                        000203    2144  	equ r_numeric,131
                        000205    2145  	equ r_of,133
                        001076    2146  	equ r_off,574
                        000206    2147  	equ r_on,134
                        000023    2148  	equ r_open,19
                        000207    2149  	equ r_or,135
                        000211    2150  	equ r_output,137
                        000006    2151  	equ r_overflow,6
                        000213    2152  	equ r_page,139
                        000024    2153  	equ r_perform,20
                        000214    2154  	equ r_pointer,140
                        000215    2155  	equ r_positive,141
                        001057    2156  	equ r_printing,559
                        000216    2157  	equ r_procedure,142
                        000217    2158  	equ r_procedures,143
                        000220    2159  	equ r_proceed,144
                        000060    2160  	equ r_process,48
                        000222    2161  	equ r_program,146
                        000072    2162  	equ r_purge,58
                        000353    2163  	equ r_quote,235
                        000353    2164  	equ r_quotes,235
                        000025    2165  	equ r_read,21
                        000027    2166  	equ r_receive,23
                        000224    2167  	equ r_record,148
                        000303    2168  	equ r_records,195
                        000225    2169  	equ r_reel,149
                        000226    2170  	equ r_references,150
                        000030    2171  	equ r_release,24
                        000227    2172  	equ r_remainder,151
                        000404    2173  	equ r_removal,260
                        000651    2174  	equ r_replace,425
                        000230    2175  	equ r_replacing,152
                        000231    2176  	equ r_reporting,153
                        000031    2177  	equ r_return,25
                        000232    2178  	equ r_reversed,154
                        000233    2179  	equ r_rewind,155
                        000033    2180  	equ r_rewrite,27
                        000234    2181  	equ r_rounded,156
                        000235    2182  	equ r_run,157
                        000032    2183  	equ r_search,26
                        000236    2184  	equ r_section,158
                        000237    2185  	equ r_segment,159
                        000036    2186  	equ r_send,30
                        000240    2187  	equ r_sentence,160
                        001113    2188  	equ r_sequence,587
                        000037    2189  	equ r_set,31
                        000241    2190  	equ r_size,161
                        000061    2191  	equ r_sort,49
                        000300    2192  	equ r_space,192
                        000300    2193  	equ r_spaces,192
                        000242    2194  	equ r_standard,162
                        000070    2195  	equ r_start,56
                        000041    2196  	equ r_stop,33
                        000042    2197  	equ r_string,34
                        000013    2198  	equ r_subtract,11
                        000071    2199  	equ r_suppress,57
                        000043    2200  	equ r_suspend,35
                        000243    2201  	equ r_tallying,163
                        000244    2202  	equ r_terminal,164
                        000044    2203  	equ r_terminate,36
                        000245    2204  	equ r_than,165
                        000454    2205  	equ r_then,300
                        000246    2206  	equ r_through,166
                        000246    2207  	equ r_thru,166
                        000250    2208  	equ r_time,168
                        000250    2209  	equ r_times,168
                        000252    2210  	equ r_to,170
                        000063    2211  	equ r_transform,51
                        000253    2212  	equ r_unequal,171
                        000254    2213  	equ r_unit,172
                        000045    2214  	equ r_unstring,37
                        000255    2215  	equ r_until,173
                        000256    2216  	equ r_up,174
                        000257    2217  	equ r_upon,175
                        000047    2218  	equ r_use,39
                        000260    2219  	equ r_using,176
                        000261    2220  	equ r_varying,177
                        000262    2221  	equ r_when,178
                        000263    2222  	equ r_with,179
                        000046    2223  	equ r_write,38
                        000264    2224  	equ r_zero,180
                        000264    2225  	equ r_zeroes,180
                        000264    2226  	equ r_zeros,180
                                  2227  	end
ENTRY SEQUENCES

    020123  5a   000011 0000 00
    020124  aa  7 00046 2721 20
    020125  0a   000000 7100 00

NO LITERALS

NAME DEFINITIONS FOR ENTRY POINTS AND SEGDEFS

    020126  5a   000003 000000
    020127  5a   000026 600000
    020130  aa   000000 000000
    020131  55   000011 000002
    020132  5a   000002 400003
    020133  55   000006 000011
    020134  aa  010 143 157 142
    020135  aa  157 154 137 144
    020136  aa  142 000 000 000
    020137  55   000017 000003
    020140  0a   020124 500000
    020141  55   000014 000003
    020142  aa  010 143 157 142         cobol_db
    020143  aa  157 154 137 144
    020144  aa  142 000 000 000
    020145  55   000002 000011
    020146  6a   000000 400002
    020147  55   000022 000003
    020150  aa  014 163 171 155         symbol_table
    020151  aa  142 157 154 137
    020152  aa  164 141 142 154
    020153  aa  145 000 000 000

DEFINITIONS HASH TABLE

    020154  aa   000000 000015
    020155  aa   000000 000000
    020156  aa   000000 000000
    020157  aa   000000 000000
    020160  aa   000000 000000
    020161  aa   000000 000000
    020162  aa   000000 000000
    020163  5a   000017 000000
    020164  5a   000011 000000
    020165  aa   000000 000000
    020166  aa   000000 000000
    020167  aa   000000 000000
    020170  aa   000000 000000
    020171  aa   000000 000000

NO EXTERNAL NAMES

NO TRAP POINTER WORDS

TYPE PAIR BLOCKS

    020172  aa   000001 000000
    020173  aa   000000 000000

INTERNAL EXPRESSION WORDS

LINKAGE INFORMATION

    000000  aa   000000 000000
    000001  0a   020126 000000
    000002  aa   000000 000000
    000003  aa   000000 000000
    000004  aa   000000 000000
    000005  aa   000000 000000
    000006  22   000010 000010
    000007  a2   000000 000000
SYMBOL INFORMATION

SYMBOL TABLE HEADER

    000000  aa   000000 000001
    000001  aa   163171 155142
    000002  aa   164162 145145
    000003  aa   000000 000010
    000004  aa   000000 116606
    000005  aa   116110 132154
    000006  aa   000000 117220
    000007  aa   245766 261315
    000010  aa   141154 155040
    000011  aa   040040 040040
    000012  aa   000024 000040
    000013  aa   000034 000040
    000014  aa   000044 000100
    000015  aa   000002 000002
    000016  aa   000064 000000
    000017  aa   000000 001043
    000020  aa   000000 000104
    000021  aa   001026 001023
    000022  aa   001035 000104
    000023  aa   000064 000000
    000024  aa   101114 115040
    000025  aa   126145 162163
    000026  aa   151157 156040
    000027  aa   070056 061063
    000030  aa   040123 145160
    000031  aa   164145 155142
    000032  aa   145162 040061
    000033  aa   071070 070040
    000034  aa   110151 162156
    000035  aa   145151 163145
    000036  aa   156056 123171
    000037  aa   163115 141151
    000040  aa   156164 056141
    000041  aa   040040 040040
    000042  aa   040040 040040
    000043  aa   040040 040040
    000044  aa   055164 141162
    000045  aa   147145 164040
    000046  aa   154066 070040
    000047  aa   040040 040040
    000050  aa   040040 040040
    000051  aa   040040 040040
    000052  aa   040040 040040
    000053  aa   040040 040040
    000054  aa   040040 040040
    000055  aa   040040 040040
    000056  aa   040154 151163
    000057  aa   164040 163171
    000060  aa   155142 157154
    000061  aa   163040 040040
    000062  aa   040040 040040
    000063  aa   040040 040040
    000064  aa   000000 000001
    000065  aa   000000 000001
    000066  aa   000072 000046
    000067  aa   172113 321266
    000070  aa   000000 117220
    000071  aa   217256 000000
    000072  aa   076163 160145          >spec>install>MR12.3-1048>cobol_db.alm
    000073  aa   143076 151156
    000074  aa   163164 141154
    000075  aa   154076 115122
    000076  aa   061062 056063
    000077  aa   055061 060064
    000100  aa   070076 143157
    000101  aa   142157 154137
    000102  aa   144142 056141
    000103  aa   154155 040040
               MULTICS ASSEMBLY CROSS REFERENCE LISTING

   Value        Symbol                   Source file   Line number

        2215    acc1                     cobol_db:     251,  261.
        2145    acc3                     cobol_db:     253.
        2121    accept                   cobol_db:      29,  249.
        2234    add                      cobol_db:      30,  264.
        2311    add1                     cobol_db:     273,  274.
       17601    ae_1                     cobol_db:    1632, 1641, 1644.
       17543    ae_2                     cobol_db:    1635, 1639, 1641.
       17555    ae_3                     cobol_db:    1629, 1630, 1637.
       16204    alel                     cobol_db:     410,  414,  422,  429,  431,  510,  532,  630,  634,  642,  645,  654,
                                                       720, 1082, 1086, 1094, 1097, 1106, 1488.
       16216    alel2                    cobol_db:    1486, 1490, 1492.
        2373    alt1                     cobol_db:     283,  293.
        2443    alt2                     cobol_db:     288,  291.
        2366    alter                    cobol_db:      32,  282.
       17505    arithexp                 cobol_db:     360, 1616, 1629.
       15631    ate                      cobol_db:    1305, 1441.
       15636    ate1                     cobol_db:    1297, 1442.
           1    a_1                      cobol_db:    1540, 1894.
          12    a_10                     cobol_db:    1895.
         144    a_100                    cobol_db:     762,  826, 1008, 1186, 1256, 1896.
         145    a_101                    cobol_db:     787,  789, 1897.
         146    a_102                    cobol_db:    1184, 1185, 1898.
         147    a_103                    cobol_db:    1298, 1310, 1318, 1327, 1335, 1343, 1351, 1899.
         150    a_104                    cobol_db:    1304, 1305, 1315, 1323, 1332, 1341, 1346, 1348, 1357, 1900.
         151    a_105                    cobol_db:    1303, 1901.
         152    a_106                    cobol_db:     101, 1902.
         153    a_107                    cobol_db:     102,  106, 1903.
         154    a_108                    cobol_db:     283, 1904.
         155    a_109                    cobol_db:     566,  949, 1905.
          13    a_11                     cobol_db:    1906.
         156    a_110                    cobol_db:     594,  994, 1907.
         157    a_111                    cobol_db:     981, 1908.
         160    a_112                    cobol_db:     282, 1909.
         161    a_113                    cobol_db:     291, 1910.
         162    a_114                    cobol_db:    1285, 1289, 1478, 1911.
         163    a_115                    cobol_db:     819, 1178, 1912.
         164    a_116                    cobol_db:     821, 1180, 1913.
         165    a_117                    cobol_db:     823, 1192, 1914.
         166    a_118                    cobol_db:     720, 1915.
         167    a_119                    cobol_db:     726, 1916.
          14    a_12                     cobol_db:     146, 1917.
         170    a_120                    cobol_db:     732, 1918.
         171    a_121                    cobol_db:     708, 1919.
         172    a_122                    cobol_db:     173,  175,  448,  450, 1920.
         173    a_123                    cobol_db:    1618, 1632, 1638, 1921.
         174    a_124                    cobol_db:    1617, 1631, 1637, 1922.
          15    a_13                     cobol_db:     264,  350,  401,  622, 1073, 1923.
          16    a_14                     cobol_db:     153, 1924.
          17    a_15                     cobol_db:     464, 1925.
          20    a_16                     cobol_db:    1291, 1295, 1926.
          21    a_17                     cobol_db:     191,  192, 1927.
          22    a_18                     cobol_db:     166,  169, 1928.
          23    a_19                     cobol_db:     174, 1929.
           2    a_2                      cobol_db:    1541, 1930.
          24    a_20                     cobol_db:     181,  452, 1931.
          25    a_21                     cobol_db:     183,  184, 1932.
          26    a_22                     cobol_db:    1933.
          27    a_23                     cobol_db:     132, 1934.
          30    a_24                     cobol_db:     112,  124,  129, 1935.
          31    a_25                     cobol_db:     118, 1936.
          32    a_26                     cobol_db:     186, 1937.
          33    a_27                     cobol_db:    1938.
          34    a_28                     cobol_db:     295,  804, 1029, 1123, 1939.
          35    a_29                     cobol_db:     752,  818, 1003, 1177, 1251, 1940.
           3    a_3                      cobol_db:     865, 1941.
          36    a_30                     cobol_db:     494, 1942.
          37    a_31                     cobol_db:     691,  773,  830, 1943.
          40    a_32                     cobol_db:     472, 1944.
          41    a_33                     cobol_db:    1945.
          42    a_34                     cobol_db:      87, 1946.
          43    a_35                     cobol_db:     100, 1947.
          44    a_36                     cobol_db:    1506, 1948.
          45    a_37                     cobol_db:    1949.
          46    a_38                     cobol_db:    1950.
          47    a_39                     cobol_db:     877, 1951.
           4    a_4                      cobol_db:    1952.
          50    a_40                     cobol_db:     851,  858,  880, 1953.
          51    a_41                     cobol_db:    1508, 1954.
          52    a_42                     cobol_db:     854,  878, 1955.
          53    a_43                     cobol_db:    1502, 1503, 1956.
          54    a_44                     cobol_db:    1957.
          55    a_45                     cobol_db:    1269, 1958.
          56    a_46                     cobol_db:    1271, 1272, 1273, 1959.
          57    a_47                     cobol_db:    1960.
          60    a_48                     cobol_db:     477, 1961.
          61    a_49                     cobol_db:     475, 1962.
           5    a_5                      cobol_db:    1963.
          62    a_50                     cobol_db:     483, 1964.
          63    a_51                     cobol_db:     232,  233,  234,  235, 1965.
          64    a_52                     cobol_db:     241, 1966.
          65    a_53                     cobol_db:     238, 1967.
          66    a_54                     cobol_db:     231, 1968.
          67    a_55                     cobol_db:     189,  190, 1533, 1969.
          70    a_56                     cobol_db:    1494, 1501, 1509, 1514, 1519, 1527, 1534, 1970.
          71    a_57                     cobol_db:     412,  508,  632, 1971.
          72    a_58                     cobol_db:     176, 1972.
          73    a_59                     cobol_db:     297,  309,  312,  771,  831,  910,  958,  960, 1018, 1283, 1452, 1471,
                                                      1482, 1486, 1973.
           6    a_6                      cobol_db:    1974.
          74    a_60                     cobol_db:     251,  327,  334,  374,  376,  567,  584,  587,  600,  662,  667,  677,
                                                       681,  687,  689,  750,  753,  774,  838,  883, 1004, 1071, 1252, 1287,
                                                      1488, 1492, 1975.
          75    a_61                     cobol_db:     157,  158, 1976.
          76    a_62                     cobol_db:     131, 1977.
          77    a_63                     cobol_db:    1547, 1639, 1978.
         100    a_64                     cobol_db:     860, 1599, 1642, 1979.
         101    a_65                     cobol_db:    1281, 1980.
         102    a_66                     cobol_db:     693, 1981.
         103    a_67                     cobol_db:     692, 1982.
         104    a_68                     cobol_db:     702, 1983.
         105    a_69                     cobol_db:     707, 1984.
           7    a_7                      cobol_db:    1985.
         106    a_70                     cobol_db:     700, 1986.
         107    a_71                     cobol_db:     701, 1987.
         110    a_72                     cobol_db:    1593, 1988.
         111    a_73                     cobol_db:    1596, 1989.
         112    a_74                     cobol_db:     490,  705, 1302, 1307, 1990.
         113    a_75                     cobol_db:    1991.
         114    a_76                     cobol_db:    1992.
         115    a_77                     cobol_db:    1993.
         116    a_78                     cobol_db:    1994.
         117    a_79                     cobol_db:    1995.
          10    a_8                      cobol_db:    1996.
         120    a_80                     cobol_db:    1997.
         121    a_81                     cobol_db:    1998.
         122    a_82                     cobol_db:    1546, 1999.
         123    a_83                     cobol_db:     736, 2000.
         124    a_84                     cobol_db:     696, 2001.
         125    a_85                     cobol_db:     711, 2002.
         130    a_88                     cobol_db:     194, 2003.
         131    a_89                     cobol_db:     715, 2004.
          11    a_9                      cobol_db:    2005.
         132    a_90                     cobol_db:     719, 2006.
         133    a_91                     cobol_db:     725, 2007.
         134    a_92                     cobol_db:     731, 2008.
         135    a_93                     cobol_db:     734, 2009.
         136    a_94                     cobol_db:    1084, 1207, 1222, 2010.
         137    a_95                     cobol_db:    1359, 2011.
         140    a_96                     cobol_db:     276,  277,  363,  364,  416,  417,  427,  428,  636,  637,  647,  648,
                                                      1088, 1089, 1099, 1100, 2012.
         141    a_97                     cobol_db:     275,  314,  362,  415,  426,  635,  646,  759,  795,  809,  825, 1007,
                                                      1060, 1087, 1098, 1170, 1183, 1255, 2013.
         142    a_98                     cobol_db:     315,  316, 1061, 1062, 1171, 1172, 2014.
         143    a_99                     cobol_db:     760,  761,  810,  811, 2015.
         127    a_endjob                 cobol_db:     119, 2016.
         126    a_eos                    cobol_db:      99,  105,  117,  126,  135,  145,  152,  156,  167,  171,  185,  203,
                                                       468,  469,  474,  476,  485, 1294, 1495, 1496, 1497, 1498, 1499, 1510,
                                                      1511, 1512, 1515, 1516, 1517, 1520, 1521, 1522, 1523, 1524, 1525, 1529,
                                                      1531, 1532, 1535, 1536, 1537, 1538, 2017.
       17221    bop                      cobol_db:    1550, 1559, 1578, 1579, 1580, 1581, 1593.
       17233    bop3                     cobol_db:    1595, 1601.
        2467    call                     cobol_db:      33,  295.
        2626    call1                    cobol_db:     308,  314.
        2551    call6                    cobol_db:     297,  305.
        2563    call7                    cobol_db:     299,  300,  303,  307.
        2671    cancel                   cobol_db:      35,  321.
        2722    close                    cobol_db:      36,  326.
        2741    clos_ss1                 cobol_db:     329.
        2772    clos_ss2                 cobol_db:     334,  339,  340,  341,  345,  348.
        3004    clos_ss4                 cobol_db:     329,  330,  336.
        3035    clos_ss6                 cobol_db:     337,  341.
        3047    clos_ss7                 cobol_db:     336,  343.
        3061    clos_ss8                 cobol_db:     332,  338,  345,  347.
        3073    clos_ss9                 cobol_db:     331,  347.
           0    cobol_db                 cobol_db:      17,   18,   19.
        3131    com1                     cobol_db:     353,  355.
        3112    compute                  cobol_db:      68,  350.
       16646    condition                cobol_db:     465,  711,  736,  848,  874, 1546.
       17377    condop                   cobol_db:    1549, 1591, 1615.
       17430    cop2                     cobol_db:    1620, 1626.
       17423    cop3                     cobol_db:    1619, 1627.
       17461    cop4                     cobol_db:    1615, 1625.
       14265    cverb                    cobol_db:     278,  317,  365,  418,  430,  638,  649,  703,  705,  763,  785,  827,
                                                      1009, 1063, 1090, 1101, 1173, 1187, 1257, 1293.
         305    c_acc_dev                cobol_db:     255, 1683.
         210    c_actloglp               cobol_db:    1684.
         236    c_adrisadr               cobol_db:    1685.
         165    c_alelnuitm              cobol_db:    1686.
         151    c_alph                   cobol_db:    1687.
         303    c_alphnm                 cobol_db:     605,  973, 1688.
         172    c_alphoral               cobol_db:    1689.
         277    c_altlegal               cobol_db:    1690.
          15    c_altprnm                cobol_db:    1691.
         274    c_altst                  cobol_db:    1488, 1692.
         311    c_amarg                  cobol_db:    1693.
         146    c_an                     cobol_db:    1694.
         104    c_andait                 cobol_db:    1126, 1152, 1695.
         142    c_anes                   cobol_db:    1696.
         207    c_argscomp               cobol_db:    1697.
         120    c_arop                   cobol_db:    1641, 1698.
         173    c_aroprp                 cobol_db:    1699.
          61    c_asfil                  cobol_db:     805, 1700.
         127    c_cdname                 cobol_db:     232, 1701.
         247    c_ckdecpn                cobol_db:    1702.
         253    c_ckdsegnum              cobol_db:    1703.
         254    c_ckerrex                cobol_db:    1704.
         260    c_ckextend               cobol_db:    1705.
         255    c_ckinput                cobol_db:    1706.
         252    c_ckintbit               cobol_db:    1707.
         257    c_ckio                   cobol_db:    1708.
         246    c_cklit                  cobol_db:     299, 1709.
         264    c_cklit1                 cobol_db:     300, 1710.
         266    c_cklit2                 cobol_db:     303, 1711.
         256    c_ckoutput               cobol_db:    1712.
         230    c_ckprpnbit              cobol_db:    1713.
         245    c_ckrcpref               cobol_db:    1714.
         243    c_ckrng1                 cobol_db:    1715.
         244    c_ckrng2                 cobol_db:    1716.
         250    c_cksegm                 cobol_db:    1717.
         242    c_cktp25                 cobol_db:     118, 1718.
         276    c_csstst                 cobol_db:    1719.
         273    c_cstst                  cobol_db:    1720.
         214    c_daib                   cobol_db:    1721.
         130    c_dana                   cobol_db:     229,  235,  241, 1722.
         227    c_decnondec              cobol_db:    1723.
          32    c_descnm                 cobol_db:     460,  462,  739, 1724.
          43    c_descnmra               cobol_db:     981,  985,  994,  998, 1725.
         132    c_deswon                 cobol_db:    1726.
         126    c_deswz                  cobol_db:    1727.
         322    c_devprt                 cobol_db:    1728.
         306    c_disp_dev               cobol_db:     397,  399, 1729.
          75    c_dninfl                 cobol_db:     574,  576,  958,  960, 1730.
          42    c_ecnt                   cobol_db:    1731.
         170    c_edalelnue              cobol_db:    1732.
         164    c_edalit                 cobol_db:     526, 1287, 1542, 1733.
         275    c_edaltst                cobol_db:    1492, 1734.
         241    c_edick                  cobol_db:    1458, 1735.
         105    c_egrze                  cobol_db:    1736.
         225    c_elaanne                cobol_db:    1235, 1737.
         137    c_eldis                  cobol_db:    1482, 1738.
         122    c_elemred                cobol_db:    1739.
         100    c_elneds                 cobol_db:    1056, 1740.
         167    c_elnudnint              cobol_db:     699,  944, 1194, 1461, 1741.
         101    c_elnuindi               cobol_db:     910, 1071, 1157, 1163, 1168, 1742.
         166    c_elnuint                cobol_db:     698,  945, 1460, 1743.
         102    c_elnuit                 cobol_db:    1471, 1744.
          47    c_endcob                 cobol_db:     112,  124,  129,  133,  163, 1496, 1503, 1512, 1517, 1525, 1529, 1538, 1745.
         163    c_enddec                 cobol_db:     106,  132,  162, 1505, 1516, 1524, 1528, 1537, 1746.
         121    c_examlitid              cobol_db:    1218, 1224, 1226, 1232, 1747.
          26    c_figconall              cobol_db:     386,  393,  609,  615, 1027, 1032, 1039, 1045, 1051, 1134, 1241, 1247,
                                                      1481, 1620, 1626, 1748.
         103    c_file                   cobol_db:     234, 1109, 1114, 1749.
           5    c_filenm                 cobol_db:     211,  217,  584,  587,  600,  662,  667,  677,  681,  687,  689,  753,
                                                       977,  987, 1000, 1004, 1252, 1750.
          53    c_fileno                 cobol_db:    1751.
         217    c_filnefil               cobol_db:    1752.
         171    c_filno                  cobol_db:    1753.
          77    c_flusisds               cobol_db:    1754.
           6    c_formtlb                cobol_db:    1755.
         221    c_gotod                  cobol_db:    1756.
         143    c_group                  cobol_db:    1757.
         113    c_ieqlvl                 cobol_db:    1276, 1758.
         125    c_impsw                  cobol_db:    1447, 1759.
          51    c_impvrb                 cobol_db:    1295, 1760.
           1    c_inbit                  cobol_db:    1762.
          22    c_incdnm                 cobol_db:     251,  374,  774, 1559, 1763.
         115    c_indeqind               cobol_db:    1764.
         231    c_indev                  cobol_db:    1765.
         114    c_indexed                cobol_db:    1766.
         220    c_indxfile               cobol_db:    1767.
          57    c_inrng                  cobol_db:    1768.
         110    c_in_line                cobol_db:     703, 1761.
          30    c_is_cobol               cobol_db:    1769.
         310    c_is_lang                cobol_db:    1770.
         240    c_is_rout                cobol_db:    1771.
         176    c_is_sub_opt             cobol_db:    1572, 1581, 1772.
         316    c_is_user_word           cobol_db:     310,  313, 1773.
          24    c_ixfil                  cobol_db:    1774.
         123    c_ixrlrady               cobol_db:    1775.
         233    c_ixrlsqdy               cobol_db:    1776.
         235    c_keyiskey               cobol_db:    1777.
          64    c_keylbl                 cobol_db:     862, 1778.
         160    c_lefdep                 cobol_db:    1779.
         203    c_lefparstk              cobol_db:    1780.
         300    c_lev_test               cobol_db:    1781.
           2    c_lident                 cobol_db:      94,   96, 1782.
         107    c_linage                 cobol_db:    1783.
           3    c_linktot                cobol_db:    1784.
          25    c_lit                    cobol_db:     385,  392,  608,  614, 1026, 1112, 1619, 1785.
         204    c_logbitstk              cobol_db:    1786.
         205    c_logstk                 cobol_db:    1787.
         211    c_lptopstk               cobol_db:    1597, 1602, 1644, 1788.
         265    c_mcobol                 cobol_db:     301, 1789.
          70    c_mnenm                  cobol_db:    1790.
          37    c_msfilnm                cobol_db:    1791.
         215    c_nestedif               cobol_db:     488, 1792.
         222    c_njustr                 cobol_db:    1793.
         320    c_nlit                   cobol_db:     407,  627, 1079, 1470, 1794.
          36    c_nomsss                 cobol_db:    1795.
         223    c_nonumdn                cobol_db:     297, 1452, 1796.
          17    c_nonumlit               cobol_db:     296, 1031, 1038, 1044, 1050, 1242, 1248, 1451, 1480, 1627, 1797.
         201    c_notalpstk              cobol_db:    1799.
         200    c_notnumstk              cobol_db:    1800.
          35    c_notseqac               cobol_db:    1801.
          46    c_notseqfl               cobol_db:    1802.
          13    c_not_opt                cobol_db:    1300, 1312, 1320, 1329, 1337, 1345, 1353, 1798.
          21    c_nsfilnm                cobol_db:     327,  334, 1803.
         106    c_nsrecnm                cobol_db:     819, 1178, 1804.
         271    c_nstorg                 cobol_db:    1805.
         267    c_nstream                cobol_db:    1806.
         141    c_nues                   cobol_db:    1807.
          14    c_numlit                 cobol_db:     150, 1808.
         177    c_numstak                cobol_db:    1809.
         251    c_nznumlit               cobol_db:    1810.
          66    c_onechnosn              cobol_db:     903, 1812.
         304    c_on_off                 cobol_db:     922, 1811.
         317    c_open_mode              cobol_db:    1813.
          23    c_outcdnm                cobol_db:     376,  750,  883, 1814.
         232    c_outdev                 cobol_db:    1815.
          60    c_outrng                 cobol_db:    1816.
          10    c_paranm                 cobol_db:     111,  153,  160, 1511, 1522, 1535, 1817.
         116    c_pigz                   cobol_db:    1271, 1818.
         321    c_pigz_by                cobol_db:    1819.
         175    c_pnz                    cobol_db:    1578, 1820.
          73    c_posint                 cobol_db:    1821.
          10    c_prdef                  cobol_db:    1495, 1502, 1822.
          50    c_preosp                 cobol_db:    1823.
         140    c_preospn                cobol_db:    1824.
          16    c_prnm                   cobol_db:     173,  175,  177,  233,  283,  291,  293,  448,  450,  453,  594,  598,
                                                       692,  696, 1825.
          12    c_prnum                  cobol_db:    1826.
         307    c_prt_con                cobol_db:     907, 1196, 1827.
         224    c_rae                    cobol_db:    1828.
          55    c_rafl                   cobol_db:    1829.
          56    c_recnm                  cobol_db:     798, 1830.
         234    c_relfile                cobol_db:    1831.
         174    c_relop                  cobol_db:    1610, 1832.
          33    c_repnm                  cobol_db:     500,  502, 1110, 1115, 1119, 1121, 1833.
         301    c_resword                cobol_db:    1548, 1834.
           7    c_rident                 cobol_db:    1835.
         157    c_ritdep                 cobol_db:    1836.
          31    c_rpid                   cobol_db:     444, 1837.
          44    c_saanm                  cobol_db:     746, 1838.
          45    c_said                   cobol_db:     747, 1839.
         156    c_san                    cobol_db:    1840.
           4    c_sechdr                 cobol_db:     110,  123,  128,  131,  146,  161, 1510, 1515, 1523, 1536, 1841.
         124    c_secsw                  cobol_db:    1842.
          65    c_seqfil                 cobol_db:    1843.
         133    c_seqnext                cobol_db:    1844.
         323    c_seqstmfil              cobol_db:    1845.
         313    c_set_pigz               cobol_db:     938, 1846.
         312    c_set_xint               cobol_db:     937, 1847.
          34    c_sizlit                 cobol_db:    1848.
         162    c_slelef                 cobol_db:    1849.
         144    c_sler                   cobol_db:    1850.
         154    c_snae                   cobol_db:    1851.
         153    c_snal                   cobol_db:    1852.
         147    c_sndrdp                 cobol_db:    1853.
         155    c_snne                   cobol_db:    1854.
         152    c_snon                   cobol_db:    1855.
         145    c_snor                   cobol_db:    1856.
         150    c_snos                   cobol_db:    1857.
          27    c_sqacdyac               cobol_db:    1858.
          54    c_sqfl                   cobol_db:    1859.
          67    c_sqrlsqac               cobol_db:    1860.
         216    c_srchf2                 cobol_db:    1861.
          62    c_srchid                 cobol_db:     831,  860, 1862.
          74    c_srtfil                 cobol_db:     567,  950, 1863.
         206    c_sscondnm               cobol_db:    1550, 1864.
         237    c_ssnm                   cobol_db:     917,  919, 1865.
         135    c_sterm                  cobol_db:    1866.
         270    c_stream                 cobol_db:    1867.
         161    c_stun                   cobol_db:    1868.
         112    c_sudana                 cobol_db:    1267, 1869.
         226    c_suxdnm                 cobol_db:    1264, 1870.
         315    c_tst_pigz               cobol_db:    1871.
         314    c_tst_xint               cobol_db:    1872.
         302    c_type9                  cobol_db:     771, 1283, 1873.
         272    c_udneli                 cobol_db:    1273, 1874.
         111    c_undana                 cobol_db:    1018, 1266, 1875.
         134    c_unelnudn               cobol_db:    1876.
         117    c_unsint                 cobol_db:    1281, 1877.
         212    c_unxdnm                 cobol_db:    1263, 1878.
         136    c_usagid                 cobol_db:    1456, 1486, 1879.
          40    c_useform1               cobol_db:    1880.
          71    c_useform1a              cobol_db:    1881.
         131    c_useform1b              cobol_db:    1882.
         261    c_useformds              cobol_db:    1883.
         262    c_useformr               cobol_db:    1884.
         263    c_useformrw              cobol_db:    1885.
          20    c_useid                  cobol_db:     309,  312, 1886.
          76    c_usisds                 cobol_db:    1034, 1047, 1887.
          63    c_usornm                 cobol_db:     838, 1888.
          52    c_varsiz                 cobol_db:    1889.
          11    c_verb                   cobol_db:     159,  168, 1291, 1497, 1504, 1520, 1890.
          72    c_xint                   cobol_db:     916,  931, 1891.
          41    c_xnm                    cobol_db:     387,  394,  611,  620,  721,  727,  837,  915,  924,  932,  936, 1272,
                                                      1621, 1892.
         202    c_zerstk                 cobol_db:    1893.
        1767    dbt                      cobol_db:     198,  200,  231.
        2063    dbt_1                    cobol_db:     232,  243.
        2070    dbt_2                    cobol_db:     244,  245,  246,  247,  248.
        2075    dbt_3                    cobol_db:     234,  245.
        2102    dbt_4                    cobol_db:     235,  241,  246.
        2107    dbt_5                    cobol_db:     233,  247.
        2114    dbt_6                    cobol_db:     238,  248.
         543    decl                     cobol_db:      92,   93,   99, 1495, 1496, 1497, 1498, 1499.
        1003    decl_sect                cobol_db:     107,  131,  141.
        1426    decl_sent                cobol_db:     138,  186, 1515, 1516, 1517.
       13743    delete                   cobol_db:      50, 1251.
        3251    disable                  cobol_db:      69,  369.
        3477    disp1                    cobol_db:     397,  399.
        3422    disp3                    cobol_db:     384,  385,  386,  390,  391,  392,  393.
        3465    disp4                    cobol_db:     390,  397.
        3357    display                  cobol_db:      70,  383.
        3314    dis_1                    cobol_db:     371,  376.
        3326    dis_2                    cobol_db:     374,  378.
        3256    dis_3                    cobol_db:     370,  439.
        3612    div1                     cobol_db:     414.
        3617    div2                     cobol_db:     415,  431.
        3605    div3                     cobol_db:     413,  414,  429.
        3662    div4                     cobol_db:     412,  422,  435.
        3751    div5                     cobol_db:     405,  433.
        3763    div6                     cobol_db:     435,  437,  438.
        3737    div7                     cobol_db:     425,  431.
        3775    div8                     cobol_db:     407,  408,  409,  437.
        3643    div9                     cobol_db:     419,  426.
        3511    divide                   cobol_db:      37,  401.
        1072    ds_1                     cobol_db:     132,  142.
        1510    ds_10                    cobol_db:     191,  196.
        1541    ds_14                    cobol_db:     201,  212,  213,  214,  215,  218,  230.
        1034    ds_2                     cobol_db:     131,  136.
        1560    ds_5                     cobol_db:     189,  204.
        1673    ds_6                     cobol_db:     190,  219.
        1755    ds_7                     cobol_db:     219,  229.
        1616    ds_8                     cobol_db:     210,  227.
       16230    edalel                   cobol_db:     271,  274,  351,  355, 1492.
       16622    edalit                   cobol_db:    1542.
       15775    elnint                   cobol_db:    1461.
       16052    elnuitem                 cobol_db:     181,  265,  267,  402,  433,  437,  456,  623,  650,  726,  732, 1074,
                                                      1076, 1102, 1470, 1632, 1638.
       15770    elnumint                 cobol_db:     708,  906, 1195, 1460.
       16122    eln_1                    cobol_db:    1471, 1478.
       16134    elusid                   cobol_db:     518,  524,  539,  543,  549,  553,  559,  564, 1480.
       16040    el_1                     cobol_db:    1461, 1468.
       16002    el_2                     cobol_db:    1462.
        4007    enable                   cobol_db:      71,  439.
         656    endcob                   cobol_db:     114,  126,  129.
       14342    endwd                    cobol_db:     854,  878,  880, 1302, 1314, 1322, 1331, 1338, 1340, 1347, 1349, 1354, 1356.
       14354    endwd1                   cobol_db:    1304, 1307.
       14366    endwd2                   cobol_db:    1306, 1315, 1316, 1323, 1324, 1332, 1333, 1341, 1342, 1346, 1348, 1357, 1358.
       14777    end_word                 cobol_db:    1302, 1307, 1359.
       15504    eop                      cobol_db:    1323, 1424.
       15511    eop1                     cobol_db:    1317, 1425.
        1407    ex                       cobol_db:     158,  183.
       13445    ex1                      cobol_db:    1207, 1213.
       13476    ex3                      cobol_db:    1209, 1210, 1218, 1220.
       13510    ex4                      cobol_db:    1211, 1220.
       13522    ex5                      cobol_db:    1218, 1222.
       13546    ex7                      cobol_db:    1213, 1214, 1216, 1226, 1228.
       13560    ex8                      cobol_db:    1215, 1228.
       13572    ex9                      cobol_db:    1226, 1230.
       13363    examine                  cobol_db:      78, 1203.
        4014    exit                     cobol_db:      40,  440.
       15150    e_add                    cobol_db:    1361, 1380.
       15162    e_call                   cobol_db:    1362, 1382.
       15174    e_comp                   cobol_db:    1363, 1384.
       15206    e_del                    cobol_db:    1364, 1386.
       15220    e_div                    cobol_db:    1365, 1388.
       15232    e_eval                   cobol_db:    1366, 1390.
       15244    e_if                     cobol_db:    1367, 1392.
       15256    e_mul                    cobol_db:    1368, 1394.
       15270    e_perf                   cobol_db:    1369, 1396.
       15302    e_read                   cobol_db:    1370, 1398.
       15314    e_rec                    cobol_db:    1371, 1400.
       15326    e_ret                    cobol_db:    1372, 1402.
       15340    e_rew                    cobol_db:    1373, 1404.
       15352    e_sea                    cobol_db:    1374, 1406.
       15364    e_sta                    cobol_db:    1375, 1408.
       15376    e_str                    cobol_db:    1376, 1410.
       15410    e_sub                    cobol_db:    1377, 1412.
       15422    e_uns                    cobol_db:    1378, 1414.
       15434    e_wr                     cobol_db:    1379, 1416.
       16615    fail                     cobol_db:     147,  149,  154,  193,  195,  199,  207,  209,  216,  226,  228,  237,
                                                       242,  495,  788,  793, 1265, 1268, 1284, 1286, 1288, 1290, 1292, 1360,
                                                      1381, 1383, 1385, 1387, 1389, 1391, 1393, 1395, 1397, 1399, 1401, 1403,
                                                      1405, 1407, 1409, 1411, 1413, 1415, 1417, 1453, 1455, 1457, 1459, 1464,
                                                      1469, 1474, 1477, 1479, 1483, 1485, 1487, 1489, 1491, 1493, 1541, 1543,
                                                      1545, 1607, 1611, 1624, 1634.
           5    fake1                    cobol_db:      29.
          62    fake10                   cobol_db:      38.
          67    fake11                   cobol_db:      39.
          74    fake12                   cobol_db:      40.
         101    fake13                   cobol_db:      41.
         106    fake14                   cobol_db:      42.
         113    fake15                   cobol_db:      43.
         120    fake16                   cobol_db:      44.
         125    fake17                   cobol_db:      45.
         132    fake18                   cobol_db:      46.
         137    fake19                   cobol_db:      47.
          12    fake2                    cobol_db:      30.
         144    fake20                   cobol_db:      48.
         151    fake21                   cobol_db:      49.
         156    fake22                   cobol_db:      50.
         163    fake23                   cobol_db:      51.
         170    fake24                   cobol_db:      52.
         175    fake25                   cobol_db:      53.
         202    fake26                   cobol_db:      54.
         207    fake27                   cobol_db:      55.
         214    fake28                   cobol_db:      56.
         221    fake29                   cobol_db:      57.
          17    fake3                    cobol_db:      31.
         226    fake30                   cobol_db:      58.
         233    fake31                   cobol_db:      59.
         240    fake32                   cobol_db:      60.
         245    fake33                   cobol_db:      61.
         252    fake34                   cobol_db:      62.
         257    fake35                   cobol_db:      63.
         264    fake36                   cobol_db:      64.
         271    fake37                   cobol_db:      65.
         276    fake38                   cobol_db:      66.
         303    fake39                   cobol_db:      67.
          24    fake4                    cobol_db:      32.
         310    fake40                   cobol_db:      68.
         315    fake41                   cobol_db:      69.
         322    fake42                   cobol_db:      70.
         327    fake43                   cobol_db:      71.
         334    fake44                   cobol_db:      72.
         341    fake45                   cobol_db:      73.
         346    fake46                   cobol_db:      74.
         353    fake47                   cobol_db:      75.
         360    fake48                   cobol_db:      76.
         365    fake49                   cobol_db:      77.
          31    fake5                    cobol_db:      33.
         372    fake50                   cobol_db:      78.
         377    fake51                   cobol_db:      79.
         404    fake52                   cobol_db:      80.
         411    fake53                   cobol_db:      81.
         416    fake54                   cobol_db:      82.
         423    fake55                   cobol_db:      83.
         430    fake56                   cobol_db:      84.
         435    fake57                   cobol_db:      85.
         442    fake58                   cobol_db:      86.
          36    fake6                    cobol_db:      34.
          43    fake7                    cobol_db:      35.
          50    fake8                    cobol_db:      36.
          55    fake9                    cobol_db:      37.
        4033    generate                 cobol_db:      73,  443.
        4052    go                       cobol_db:      42,  446.
        4127    go6                      cobol_db:     455.
        1320    goto                     cobol_db:     157,  172.
        4146    hold                     cobol_db:      74,  458.
       14056    ident                    cobol_db:     305,  744, 1113, 1243, 1249, 1266, 1285, 1289, 1454, 1468, 1478, 1484,
                                                      1490, 1544.
       14133    ident_1                  cobol_db:    1275, 1280, 1281.
       14107    ident_2                  cobol_db:    1271, 1276.
       14152    ident_3                  cobol_db:    1272, 1278.
       14075    ident_5                  cobol_db:    1264, 1269.
        4204    if                       cobol_db:      75,  464.
        4331    if1                      cobol_db:     481,  484.
        4374    if2                      cobol_db:     478,  480,  481,  488.
        4254    if3                      cobol_db:     472,  489,  492.
        4312    if4                      cobol_db:     478,  487.
        4324    if5                      cobol_db:     475,  480,  486.
        4343    if6                      cobol_db:     469,  483.
        4406    if7                      cobol_db:     473,  490.
       15650    ik                       cobol_db:    1315, 1444.
       15667    imp                      cobol_db:     704,  845,  871, 1299, 1306, 1311, 1319, 1328, 1336, 1344, 1352, 1447.
       17050    imp_subj                 cobol_db:    1552, 1555, 1562, 1566, 1569, 1570, 1572.
       17062    infix_rel                cobol_db:    1549, 1574.
       17137    inf_is                   cobol_db:    1576, 1583.
       17175    inf_rel                  cobol_db:    1575, 1583, 1589.
       17106    inf_test                 cobol_db:    1578, 1586, 1590.
        4456    initiate                 cobol_db:      44,  498.
        4564    ins1                     cobol_db:     512,  532.
        5151    ins10                    cobol_db:     547,  549,  561.
        5005    ins14                    cobol_db:     541,  564.
        4622    ins2                     cobol_db:     518,  527,  528.
        4634    ins3                     cobol_db:     516,  520,  529.
        4672    ins4                     cobol_db:     522,  526.
        4742    ins7                     cobol_db:     508,  530,  534.
        4773    ins8                     cobol_db:     539,  561,  562,  563.
        5067    ins9                     cobol_db:     537,  551.
        4514    inspect                  cobol_db:      45,  504.
       17005    is_cond                  cobol_db:    1554, 1565.
           1    i_c                      cobol_db:      23,   94,   96,  106,  110,  111,  112,  118,  123,  124,  128,  129,
                                                       131,  132,  133,  146,  150,  153,  159,  160,  161,  162,  163,  168,
                                                       173,  175,  177,  211,  217,  229,  232,  233,  234,  235,  241,  251,
                                                       255,  283,  291,  293,  296,  297,  299,  300,  301,  303,  309,  310,
                                                       312,  313,  327,  334,  374,  376,  385,  386,  387,  392,  393,  394,
                                                       397,  399,  407,  444,  448,  450,  453,  460,  462,  488,  500,  502,
                                                       526,  567,  574,  576,  584,  587,  594,  598,  600,  605,  608,  609,
                                                       611,  614,  615,  620,  627,  662,  667,  677,  681,  687,  689,  692,
                                                       696,  698,  699,  703,  721,  727,  739,  746,  747,  750,  753,  771,
                                                       774,  798,  805,  819,  831,  837,  838,  860,  862,  883,  903,  907,
                                                       910,  915,  916,  917,  919,  922,  924,  931,  932,  936,  937,  938,
                                                       944,  945,  950,  958,  960,  973,  977,  981,  985,  987,  994,  998,
                                                      1000, 1004, 1018, 1026, 1027, 1031, 1032, 1034, 1038, 1039, 1044, 1045,
                                                      1047, 1050, 1051, 1056, 1071, 1079, 1109, 1110, 1112, 1114, 1115, 1119,
                                                      1121, 1126, 1134, 1152, 1157, 1163, 1168, 1178, 1194, 1196, 1218, 1224,
                                                      1226, 1232, 1235, 1241, 1242, 1247, 1248, 1252, 1263, 1264, 1266, 1267,
                                                      1271, 1272, 1273, 1276, 1281, 1283, 1287, 1291, 1295, 1300, 1312, 1320,
                                                      1329, 1337, 1345, 1353, 1447, 1451, 1452, 1456, 1458, 1460, 1461, 1470,
                                                      1471, 1480, 1481, 1482, 1486, 1488, 1492, 1495, 1496, 1497, 1502, 1503,
                                                      1504, 1505, 1510, 1511, 1512, 1515, 1516, 1517, 1520, 1522, 1523, 1524,
                                                      1525, 1528, 1529, 1535, 1536, 1537, 1538, 1542, 1548, 1550, 1559, 1572,
                                                      1578, 1581, 1597, 1602, 1610, 1619, 1620, 1621, 1626, 1627, 1641, 1644.
           5    i_K                      cobol_db:      27.
           4    i_k                      cobol_db:      26.
           2    i_n                      cobol_db:      25,   29,   30,   31,   32,   33,   34,   35,   36,   37,   38,   39,
                                                        40,   41,   42,   43,   44,   45,   46,   47,   48,   49,   50,   51,
                                                        52,   53,   54,   55,   56,   57,   58,   59,   60,   61,   62,   63,
                                                        64,   65,   66,   67,   68,   69,   70,   71,   72,   73,   74,   75,
                                                        76,   77,   78,   79,   80,   81,   82,   83,   84,   85,   86,   88,
                                                        90,   93,   95,   98,   99,  100,  102,  104,  105,  108,  109,  113,
                                                       114,  116,  117,  119,  121,  125,  126,  130,  134,  135,  137,  139,
                                                       141,  142,  144,  145,  147,  149,  152,  154,  156,  164,  167,  170,
                                                       171,  174,  176,  179,  182,  184,  185,  187,  188,  193,  195,  196,
                                                       199,  202,  203,  207,  209,  216,  218,  226,  228,  230,  231,  237,
                                                       242,  243,  244,  245,  246,  247,  248,  252,  254,  260,  263,  266,
                                                       270,  272,  278,  281,  284,  286,  288,  290,  292,  294,  298,  302,
                                                       304,  306,  308,  311,  317,  320,  323,  325,  328,  335,  340,  342,
                                                       344,  346,  349,  352,  354,  359,  361,  365,  368,  372,  375,  377,
                                                       380,  381,  382,  389,  396,  398,  400,  403,  406,  411,  418,  421,
                                                       423,  430,  432,  434,  436,  438,  442,  445,  449,  451,  454,  457,
                                                       461,  463,  466,  468,  471,  473,  474,  476,  477,  479,  482,  484,
                                                       485,  487,  489,  491,  493,  495,  497,  501,  503,  506,  509,  511,
                                                       513,  517,  519,  522,  525,  531,  533,  538,  540,  542,  544,  547,
                                                       550,  552,  554,  557,  560,  565,  568,  572,  575,  583,  585,  586,
                                                       590,  592,  595,  597,  599,  601,  602,  606,  613,  616,  618,  621,
                                                       624,  626,  631,  638,  641,  643,  649,  651,  653,  655,  661,  663,
                                                       672,  674,  676,  678,  682,  684,  686,  688,  690,  693,  695,  697,
                                                       702,  706,  707,  710,  712,  714,  716,  718,  719,  722,  724,  725,
                                                       728,  730,  731,  733,  735,  737,  740,  743,  745,  748,  751,  754,
                                                       763,  767,  769,  772,  775,  778,  780,  782,  785,  788,  790,  793,
                                                       796,  799,  801,  803,  806,  812,  815,  817,  820,  822,  824,  827,
                                                       829,  833,  834,  836,  839,  842,  844,  847,  849,  852,  854,  857,
                                                       859,  861,  863,  864,  868,  870,  873,  875,  877,  879,  881,  884,
                                                       891,  893,  899,  902,  904,  909,  911,  913,  918,  921,  923,  928,
                                                       934,  935,  939,  943,  946,  948,  951,  952,  956,  959,  966,  969,
                                                       971,  974,  976,  978,  979,  982,  984,  986,  990,  992,  995,  997,
                                                       999, 1001, 1002, 1005, 1009, 1011, 1016, 1019, 1021, 1023, 1028, 1033,
                                                      1035, 1040, 1046, 1048, 1053, 1055, 1057, 1063, 1066, 1068, 1070, 1072,
                                                      1075, 1078, 1083, 1090, 1093, 1095, 1101, 1103, 1105, 1107, 1111, 1116,
                                                      1120, 1122, 1125, 1127, 1130, 1135, 1138, 1140, 1142, 1151, 1153, 1156,
                                                      1158, 1160, 1162, 1164, 1167, 1169, 1173, 1176, 1179, 1187, 1191, 1198,
                                                      1200, 1202, 1205, 1208, 1212, 1217, 1219, 1221, 1225, 1227, 1229, 1231,
                                                      1233, 1236, 1240, 1244, 1246, 1250, 1253, 1257, 1259, 1262, 1265, 1268,
                                                      1270, 1274, 1277, 1280, 1282, 1284, 1286, 1288, 1290, 1292, 1293, 1294,
                                                      1296, 1298, 1303, 1304, 1308, 1310, 1314, 1316, 1318, 1322, 1324, 1327,
                                                      1331, 1333, 1335, 1338, 1340, 1342, 1343, 1347, 1349, 1351, 1354, 1356,
                                                      1358, 1359, 1360, 1361, 1362, 1363, 1364, 1365, 1366, 1367, 1368, 1369,
                                                      1370, 1371, 1372, 1373, 1374, 1375, 1376, 1377, 1378, 1379, 1381, 1383,
                                                      1385, 1387, 1389, 1391, 1393, 1395, 1397, 1399, 1401, 1403, 1405, 1407,
                                                      1409, 1411, 1413, 1415, 1417, 1420, 1423, 1426, 1428, 1430, 1433, 1435,
                                                      1437, 1440, 1443, 1446, 1448, 1450, 1453, 1455, 1457, 1459, 1464, 1465,
                                                      1467, 1469, 1474, 1475, 1477, 1479, 1483, 1485, 1487, 1489, 1491, 1493,
                                                      1494, 1500, 1501, 1507, 1508, 1509, 1513, 1514, 1518, 1519, 1526, 1527,
                                                      1530, 1532, 1533, 1534, 1539, 1540, 1541, 1543, 1545, 1546, 1551, 1557,
                                                      1560, 1564, 1568, 1570, 1573, 1582, 1586, 1588, 1590, 1592, 1593, 1598,
                                                      1601, 1603, 1607, 1609, 1611, 1614, 1617, 1624, 1625, 1628, 1631, 1634,
                                                      1637, 1640, 1643, 1645, 1646.
           0    i_r                      cobol_db:      22,   87,   89,   91,   92,   97,  101,  103,  115,  143,  148,  151,
                                                       155,  157,  158,  166,  169,  172,  178,  180,  183,  186,  189,  190,
                                                       191,  192,  194,  197,  201,  204,  205,  206,  208,  210,  212,  213,
                                                       214,  215,  219,  220,  221,  222,  223,  224,  225,  227,  236,  238,
                                                       239,  240,  249,  253,  256,  257,  258,  259,  261,  262,  264,  268,
                                                       269,  273,  275,  276,  277,  279,  280,  282,  285,  287,  289,  295,
                                                       307,  314,  315,  316,  318,  319,  321,  326,  329,  330,  331,  332,
                                                       333,  336,  337,  338,  339,  341,  343,  345,  347,  348,  350,  353,
                                                       356,  357,  358,  362,  363,  364,  366,  367,  369,  370,  371,  373,
                                                       378,  379,  383,  390,  401,  404,  405,  408,  409,  412,  413,  415,
                                                       416,  417,  419,  420,  424,  425,  426,  427,  428,  435,  439,  440,
                                                       441,  443,  446,  447,  452,  455,  458,  459,  464,  467,  472,  480,
                                                       481,  483,  490,  492,  494,  496,  498,  499,  504,  507,  508,  512,
                                                       514,  515,  516,  520,  521,  523,  527,  528,  529,  530,  534,  535,
                                                       536,  537,  541,  545,  546,  548,  551,  555,  556,  558,  561,  562,
                                                       563,  566,  569,  570,  571,  573,  577,  578,  579,  580,  581,  582,
                                                       588,  589,  591,  593,  596,  603,  604,  607,  612,  617,  622,  625,
                                                       628,  629,  632,  633,  635,  636,  637,  639,  640,  644,  646,  647,
                                                       648,  652,  656,  657,  658,  659,  660,  664,  665,  666,  668,  669,
                                                       670,  671,  673,  675,  679,  680,  683,  685,  691,  694,  700,  701,
                                                       705,  709,  715,  723,  729,  734,  738,  741,  742,  749,  752,  755,
                                                       756,  757,  758,  759,  760,  761,  762,  764,  765,  766,  770,  773,
                                                       776,  777,  779,  786,  787,  789,  791,  792,  794,  795,  797,  800,
                                                       804,  807,  808,  809,  810,  811,  813,  814,  818,  821,  825,  826,
                                                       828,  830,  832,  835,  840,  841,  843,  846,  850,  853,  858,  865,
                                                       866,  867,  869,  872,  876,  880,  882,  885,  886,  887,  888,  889,
                                                       894,  895,  896,  897,  900,  901,  905,  908,  912,  914,  920,  925,
                                                       926,  927,  933,  942,  949,  953,  954,  955,  957,  961,  962,  963,
                                                       964,  965,  967,  968,  970,  972,  975,  980,  983,  988,  989,  991,
                                                       993,  996, 1003, 1006, 1007, 1008, 1010, 1012, 1013, 1014, 1015, 1017,
                                                      1020, 1022, 1024, 1025, 1029, 1037, 1041, 1043, 1052, 1058, 1059, 1060,
                                                      1061, 1062, 1064, 1065, 1067, 1073, 1077, 1080, 1081, 1084, 1085, 1087,
                                                      1088, 1089, 1091, 1092, 1096, 1098, 1099, 1100, 1104, 1108, 1117, 1118,
                                                      1123, 1128, 1129, 1131, 1132, 1136, 1137, 1143, 1144, 1146, 1147, 1148,
                                                      1149, 1154, 1159, 1165, 1170, 1171, 1172, 1174, 1175, 1177, 1180, 1181,
                                                      1182, 1183, 1184, 1185, 1186, 1188, 1189, 1190, 1193, 1197, 1199, 1203,
                                                      1206, 1207, 1209, 1210, 1211, 1213, 1214, 1215, 1216, 1220, 1222, 1223,
                                                      1228, 1230, 1234, 1238, 1239, 1245, 1251, 1254, 1255, 1256, 1258, 1260,
                                                      1261, 1269, 1275, 1278, 1279, 1301, 1309, 1313, 1321, 1330, 1339, 1355,
                                                      1380, 1382, 1384, 1386, 1388, 1390, 1392, 1394, 1396, 1398, 1400, 1402,
                                                      1404, 1406, 1408, 1410, 1412, 1414, 1416, 1418, 1419, 1421, 1422, 1424,
                                                      1425, 1427, 1429, 1431, 1432, 1434, 1436, 1438, 1439, 1441, 1442, 1444,
                                                      1445, 1462, 1463, 1466, 1472, 1473, 1476, 1498, 1499, 1506, 1521, 1531,
                                                      1547, 1553, 1554, 1556, 1558, 1561, 1563, 1565, 1567, 1569, 1575, 1576,
                                                      1579, 1580, 1583, 1585, 1587, 1594, 1595, 1596, 1599, 1600, 1604, 1605,
                                                      1606, 1608, 1612, 1613, 1615, 1623, 1629, 1630, 1633, 1635, 1636, 1639,
                                                      1642, 1647, 1648, 1649, 1650, 1651, 1652, 1653, 1654, 1655, 1656, 1657,
                                                      1658, 1659, 1660, 1661, 1662, 1663, 1664, 1665, 1666, 1667, 1668, 1669,
                                                      1670, 1671, 1672, 1673, 1674, 1675, 1676, 1677, 1678, 1679, 1680, 1681, 1682.
           3    i_s                      cobol_db:      24,  107,  120,  122,  127,  136,  138,  140,  165,  181,  198,  200,
                                                       250,  265,  267,  271,  274,  305,  322,  324,  351,  355,  360,  384,
                                                       388,  391,  395,  402,  410,  414,  422,  429,  431,  433,  437,  456,
                                                       465,  469,  470,  475,  478,  486,  505,  510,  518,  524,  532,  539,
                                                       543,  549,  553,  559,  564,  610,  619,  623,  630,  634,  642,  645,
                                                       650,  654,  704,  708,  711,  713,  717,  720,  726,  732,  736,  744,
                                                       768,  781,  783,  784,  802,  816,  823,  845,  848,  851,  855,  856,
                                                       871,  874,  878,  890,  892,  898,  906,  929,  930,  940,  941,  947,
                                                      1030, 1036, 1042, 1049, 1054, 1069, 1074, 1076, 1082, 1086, 1094, 1097,
                                                      1102, 1106, 1113, 1124, 1133, 1139, 1141, 1145, 1150, 1155, 1161, 1166,
                                                      1192, 1195, 1201, 1204, 1237, 1243, 1249, 1285, 1289, 1297, 1299, 1302,
                                                      1305, 1306, 1307, 1311, 1315, 1317, 1319, 1323, 1325, 1326, 1328, 1332,
                                                      1334, 1336, 1341, 1344, 1346, 1348, 1350, 1352, 1357, 1449, 1454, 1468,
                                                      1478, 1484, 1490, 1544, 1549, 1552, 1555, 1562, 1566, 1571, 1574, 1577,
                                                      1584, 1589, 1591, 1616, 1618, 1622, 1632, 1638.
       16653    lpar                     cobol_db:    1547, 1561, 1594, 1595, 1600.
       16660    lpar2                    cobol_db:    1548, 1564.
         447    l_1                      cobol_db:      87.
         601    l_10                     cobol_db:     103,  104,  105.
        3275    l_100                    cobol_db:     370,  373.
        3302    l_101                    cobol_db:     373,  374.
        3326    l_102                    cobol_db:     376,  378.
        3333    l_103                    cobol_db:     378,  379.
        3345    l_104                    cobol_db:     379,  381.
        3364    l_105                    cobol_db:     383,  384.
        3516    l_106                    cobol_db:     401,  402.
        3530    l_107                    cobol_db:     402,  404.
        3547    l_108                    cobol_db:     404,  407.
        3600    l_109                    cobol_db:     410,  412.
         606    l_11                     cobol_db:     105,  106.
        3612    l_110                    cobol_db:     413,  414.
        3643    l_111                    cobol_db:     415,  419.
        3674    l_112                    cobol_db:     422,  424.
        3701    l_113                    cobol_db:     424,  425.
        3763    l_114                    cobol_db:     433,  435.
        4021    l_115                    cobol_db:     440,  441.
        4040    l_116                    cobol_db:     443,  444.
        4057    l_117                    cobol_db:     446,  447.
        4064    l_118                    cobol_db:     447,  448.
        4076    l_119                    cobol_db:     448,  450.
         625    l_12                     cobol_db:     106,  109.
        4110    l_120                    cobol_db:     450,  452,  453.
        4127    l_121                    cobol_db:     452,  455.
        4134    l_122                    cobol_db:     455,  456.
        4153    l_123                    cobol_db:     458,  459.
        4172    l_124                    cobol_db:     460,  462.
        4211    l_125                    cobol_db:     464,  465.
        4223    l_126                    cobol_db:     465,  467.
        4230    l_127                    cobol_db:     467,  468.
        4235    l_128                    cobol_db:     468,  469.
        4254    l_129                    cobol_db:     470,  472.
         632    l_13                     cobol_db:     109,  110.
        4266    l_130                    cobol_db:     472,  474.
        4273    l_131                    cobol_db:     474,  475.
        4300    l_132                    cobol_db:     476.
        4305    l_133                    cobol_db:     476,  477.
        4312    l_134                    cobol_db:     477,  478.
        4355    l_135                    cobol_db:     483,  485.
        4362    l_136                    cobol_db:     485,  486.
        4406    l_137                    cobol_db:     488,  490.
        4420    l_138                    cobol_db:     490,  492.
        4444    l_139                    cobol_db:     494,  496.
         656    l_14                     cobol_db:     112,  114.
        4463    l_140                    cobol_db:     498,  499.
        4502    l_141                    cobol_db:     500,  502.
        4521    l_142                    cobol_db:     504,  505.
        4533    l_143                    cobol_db:     505,  507.
        4552    l_144                    cobol_db:     507,  510.
        4564    l_145                    cobol_db:     510,  512.
        4576    l_146                    cobol_db:     512,  514.
        4622    l_147                    cobol_db:     514,  515,  518.
        4634    l_148                    cobol_db:     518,  520.
        4653    l_149                    cobol_db:     520,  521,  523.
         663    l_15                     cobol_db:     114,  115.
        4660    l_150                    cobol_db:     523,  524.
        4672    l_151                    cobol_db:     524,  526.
        4730    l_152                    cobol_db:     526,  532.
        4773    l_153                    cobol_db:     534,  535,  536,  539.
        5005    l_154                    cobol_db:     539,  541.
        5017    l_155                    cobol_db:     541,  543.
        5031    l_156                    cobol_db:     543,  545.
        5050    l_157                    cobol_db:     545,  546,  548.
        5055    l_158                    cobol_db:     548,  549.
        5101    l_159                    cobol_db:     551,  553.
         675    l_16                     cobol_db:     115,  116,  117.
        5113    l_160                    cobol_db:     553,  555.
        5132    l_161                    cobol_db:     555,  556,  558.
        5137    l_162                    cobol_db:     558,  559.
        5207    l_163                    cobol_db:     566,  567.
        5221    l_164                    cobol_db:     567,  569.
        5226    l_165                    cobol_db:     569,  570.
        5245    l_166                    cobol_db:     570,  571,  573.
        5252    l_167                    cobol_db:     573,  574.
        5264    l_168                    cobol_db:     574,  576.
        5334    l_169                    cobol_db:     582,  584.
         702    l_17                     cobol_db:     117,  118.
        5346    l_170                    cobol_db:     584,  586.
        5353    l_171                    cobol_db:     586,  587.
        5377    l_172                    cobol_db:     588,  591.
        5411    l_173                    cobol_db:     591,  593.
        5416    l_174                    cobol_db:     593,  594.
        5430    l_175                    cobol_db:     594,  596.
        5442    l_176                    cobol_db:     596,  598.
        5466    l_177                    cobol_db:     600,  602.
        5500    l_178                    cobol_db:     603,  604.
        5505    l_179                    cobol_db:     604,  605.
         707    l_18                     cobol_db:     118,  119.
        5524    l_180                    cobol_db:     607,  608.
        5562    l_181                    cobol_db:     612,  614.
        5601    l_182                    cobol_db:     614,  615,  617.
        5613    l_183                    cobol_db:     617,  619,  620.
        5637    l_184                    cobol_db:     622,  623.
        5651    l_185                    cobol_db:     623,  625.
        5663    l_186                    cobol_db:     625,  627.
        5714    l_187                    cobol_db:     630,  632.
        5726    l_188                    cobol_db:     633,  634.
        5757    l_189                    cobol_db:     635,  639.
         726    l_19                     cobol_db:     120,  122.
        6010    l_190                    cobol_db:     642,  644.
        6015    l_191                    cobol_db:     644,  645.
        6060    l_192                    cobol_db:     650,  652.
        6072    l_193                    cobol_db:     652,  654.
        6111    l_194                    cobol_db:     656,  657.
        6142    l_195                    cobol_db:     657,  662.
        6154    l_196                    cobol_db:     662,  664.
        6243    l_197                    cobol_db:     673,  675.
        6267    l_198                    cobol_db:     677,  679.
        6325    l_199                    cobol_db:     683,  685.
         461    l_2                      cobol_db:      87,   89.
         752    l_20                     cobol_db:     124,  126.
        6351    l_200                    cobol_db:     687,  689.
        6370    l_201                    cobol_db:     691,  692.
        6402    l_202                    cobol_db:     692,  694.
        6414    l_203                    cobol_db:     694,  696.
        6426    l_204                    cobol_db:     696,  698.
        6457    l_205                    cobol_db:     702,  703.
        6464    l_206                    cobol_db:     704.
        6471    l_207                    cobol_db:     704,  705.
        6510    l_208                    cobol_db:     707,  708.
        6515    l_209                    cobol_db:     708,  709.
        1027    l_21                     cobol_db:     133,  135.
        6553    l_210                    cobol_db:     713,  715.
        6565    l_211                    cobol_db:     715,  717.
        6604    l_212                    cobol_db:     719,  720.
        6623    l_213                    cobol_db:     720,  721,  723.
        6635    l_214                    cobol_db:     723,  725.
        6642    l_215                    cobol_db:     725,  726.
        6661    l_216                    cobol_db:     726,  727,  729.
        6673    l_217                    cobol_db:     729,  731.
        6700    l_218                    cobol_db:     731,  732.
        6712    l_219                    cobol_db:     732,  734.
        1046    l_22                     cobol_db:     136,  138.
        6724    l_220                    cobol_db:     734,  736.
        6743    l_221                    cobol_db:     738,  739.
        6755    l_222                    cobol_db:     739,  741.
        7025    l_223                    cobol_db:     746,  749.
        7032    l_224                    cobol_db:     749,  750.
        7051    l_225                    cobol_db:     752,  753.
        7063    l_226                    cobol_db:     753,  755.
        7070    l_227                    cobol_db:     755,  756.
        7075    l_228                    cobol_db:     756,  757.
        7140    l_229                    cobol_db:     759,  764.
        1060    l_23                     cobol_db:     138,  140.
        7203    l_230                    cobol_db:     770,  771.
        7222    l_231                    cobol_db:     773,  774.
        7234    l_232                    cobol_db:     774,  776.
        7253    l_233                    cobol_db:     776,  777,  779.
        7265    l_234                    cobol_db:     779,  781.
        7277    l_235                    cobol_db:     781,  783.
        7335    l_236                    cobol_db:     786,  789.
        7366    l_237                    cobol_db:     791,  794.
        7373    l_238                    cobol_db:     794,  795.
        7412    l_239                    cobol_db:     797,  798.
        1077    l_24                     cobol_db:     142,  143.
        7424    l_240                    cobol_db:     798,  800.
        7436    l_241                    cobol_db:     800,  802.
        7455    l_242                    cobol_db:     804,  805.
        7467    l_243                    cobol_db:     805,  807.
        7474    l_244                    cobol_db:     807,  808.
        7525    l_245                    cobol_db:     809,  813.
        7563    l_246                    cobol_db:     818,  819.
        7575    l_247                    cobol_db:     819,  821.
        7607    l_248                    cobol_db:     821,  823.
        7621    l_249                    cobol_db:     823,  825.
        1111    l_25                     cobol_db:     143,  144,  145.
        7640    l_250                    cobol_db:     825,  828.
        7657    l_251                    cobol_db:     830,  831.
        7676    l_252                    cobol_db:     831,  834.
        7703    l_253                    cobol_db:     834,  835.
        7715    l_254                    cobol_db:     835,  837.
        7734    l_255                    cobol_db:     837,  840.
        7753    l_256                    cobol_db:     840,  843.
        7765    l_257                    cobol_db:     843,  845.
        7772    l_258                    cobol_db:     845,  846.
       10004    l_259                    cobol_db:     846,  848.
        1130    l_26                     cobol_db:     146,  148.
       10016    l_260                    cobol_db:     848,  850.
       10023    l_261                    cobol_db:     851.
       10035    l_262                    cobol_db:     851,  853.
       10112    l_263                    cobol_db:     860,  862.
       10124    l_264                    cobol_db:     862,  864.
       10131    l_265                    cobol_db:     864,  865.
       10155    l_266                    cobol_db:     866,  869.
       10167    l_267                    cobol_db:     869,  871.
       10174    l_268                    cobol_db:     871,  872.
       10206    l_269                    cobol_db:     872,  874.
        1142    l_27                     cobol_db:     148,  150.
       10220    l_270                    cobol_db:     874,  876.
       10232    l_271                    cobol_db:     877,  878.
       10263    l_272                    cobol_db:     882,  883.
       10275    l_273                    cobol_db:     883,  885.
       10307    l_274                    cobol_db:     886,  887.
       10352    l_275                    cobol_db:     892,  894.
       10446    l_276                    cobol_db:     905,  906.
       10472    l_277                    cobol_db:     910.
       10504    l_278                    cobol_db:     910,  912.
       10523    l_279                    cobol_db:     914,  915.
        1147    l_28                     cobol_db:     150,  151.
       10547    l_280                    cobol_db:     917,  919.
       10643    l_281                    cobol_db:     929,  930,  931.
       10744    l_282                    cobol_db:     942,  944.
       10763    l_283                    cobol_db:     944,  947.
       11002    l_284                    cobol_db:     949,  950.
       11014    l_285                    cobol_db:     950,  952.
       11021    l_286                    cobol_db:     952,  953.
       11026    l_287                    cobol_db:     953,  954.
       11045    l_288                    cobol_db:     954,  955,  957.
       11052    l_289                    cobol_db:     957,  958.
        1154    l_29                     cobol_db:     151,  152.
       11064    l_290                    cobol_db:     958,  960.
       11127    l_291                    cobol_db:     966,  967.
       11160    l_292                    cobol_db:     970,  972.
       11165    l_293                    cobol_db:     972,  973.
       11223    l_294                    cobol_db:     977,  979.
       11235    l_295                    cobol_db:     980,  981.
       11247    l_296                    cobol_db:     981,  983.
       11261    l_297                    cobol_db:     983,  985.
       11300    l_298                    cobol_db:     987,  988.
       11317    l_299                    cobol_db:     988,  991.
         473    l_3                      cobol_db:      89,   91.
        1173    l_30                     cobol_db:     153,  155.
       11331    l_300                    cobol_db:     991,  993.
       11336    l_301                    cobol_db:     993,  994.
       11350    l_302                    cobol_db:     994,  996.
       11362    l_303                    cobol_db:     996,  998.
       11406    l_304                    cobol_db:    1000, 1002.
       11420    l_305                    cobol_db:    1003, 1004.
       11432    l_306                    cobol_db:    1004, 1006.
       11456    l_307                    cobol_db:    1007, 1010.
       11475    l_308                    cobol_db:    1012, 1013.
       11521    l_309                    cobol_db:    1013, 1017.
        1200    l_31                     cobol_db:     155,  156.
       11526    l_310                    cobol_db:    1017, 1018.
       11571    l_311                    cobol_db:    1024, 1025.
       11622    l_312                    cobol_db:    1029, 1030.
       11646    l_313                    cobol_db:    1030, 1034.
       11660    l_314                    cobol_db:    1034, 1036.
       11711    l_315                    cobol_db:    1037, 1041.
       11716    l_316                    cobol_db:    1041, 1042.
       11747    l_317                    cobol_db:    1042, 1047.
       11761    l_318                    cobol_db:    1047, 1049.
       12012    l_319                    cobol_db:    1052, 1054.
        1205    l_32                     cobol_db:     156,  157.
       12024    l_320                    cobol_db:    1054, 1056.
       12036    l_321                    cobol_db:    1056, 1058.
       12074    l_322                    cobol_db:    1060, 1064.
       12125    l_323                    cobol_db:    1067, 1069.
       12137    l_324                    cobol_db:    1069, 1071.
       12156    l_325                    cobol_db:    1073, 1074.
       12170    l_326                    cobol_db:    1074, 1076.
       12175    l_327                    cobol_db:    1077.
       12207    l_328                    cobol_db:    1077, 1079.
       12240    l_329                    cobol_db:    1082, 1084.
        1262    l_33                     cobol_db:     165,  166.
       12252    l_330                    cobol_db:    1085, 1086.
       12303    l_331                    cobol_db:    1087, 1091.
       12334    l_332                    cobol_db:    1094, 1096.
       12341    l_333                    cobol_db:    1096, 1097.
       12404    l_334                    cobol_db:    1102, 1104.
       12416    l_335                    cobol_db:    1104, 1106.
       12435    l_336                    cobol_db:    1108, 1109.
       12454    l_337                    cobol_db:    1110, 1112.
       12466    l_338                    cobol_db:    1112, 1113, 1114.
       12512    l_339                    cobol_db:    1117, 1118.
        1267    l_34                     cobol_db:     166,  167.
       12531    l_340                    cobol_db:    1119, 1121.
       12550    l_341                    cobol_db:    1123, 1124.
       12562    l_342                    cobol_db:    1124, 1126.
       12574    l_343                    cobol_db:    1126, 1128.
       12613    l_344                    cobol_db:    1128, 1131.
       12620    l_345                    cobol_db:    1131, 1132.
       12625    l_346                    cobol_db:    1132, 1133.
       12644    l_347                    cobol_db:    1133, 1134, 1136.
       12663    l_348                    cobol_db:    1137, 1139.
       12675    l_349                    cobol_db:    1139, 1141.
        1274    l_35                     cobol_db:     167,  168.
       12707    l_350                    cobol_db:    1141, 1143.
       12752    l_351                    cobol_db:    1149, 1150.
       12764    l_352                    cobol_db:    1150, 1152.
       13003    l_353                    cobol_db:    1154, 1155.
       13015    l_354                    cobol_db:    1155, 1157.
       13041    l_355                    cobol_db:    1159, 1161.
       13053    l_356                    cobol_db:    1161, 1163.
       13072    l_357                    cobol_db:    1165, 1166.
       13104    l_358                    cobol_db:    1166, 1168.
       13116    l_359                    cobol_db:    1168, 1170.
        1313    l_36                     cobol_db:     169,  170,  171.
       13142    l_360                    cobol_db:    1170, 1174.
       13166    l_361                    cobol_db:    1177, 1178.
       13200    l_362                    cobol_db:    1178, 1180.
       13250    l_363                    cobol_db:    1183, 1188.
       13306    l_364                    cobol_db:    1193, 1194.
       13370    l_365                    cobol_db:    1203, 1204.
       13402    l_366                    cobol_db:    1204, 1206.
       13407    l_367                    cobol_db:    1206, 1207.
       13421    l_368                    cobol_db:    1209.
       13527    l_369                    cobol_db:    1222, 1223.
        1325    l_37                     cobol_db:     172,  173.
       13534    l_370                    cobol_db:    1223, 1224.
       13604    l_371                    cobol_db:    1230, 1232.
       13623    l_372                    cobol_db:    1234, 1235.
       13635    l_373                    cobol_db:    1235, 1237.
       13642    l_374                    cobol_db:    1237, 1238.
       13647    l_375                    cobol_db:    1238, 1239.
       13661    l_376                    cobol_db:    1239, 1241.
       13705    l_377                    cobol_db:    1241, 1242, 1243, 1245.
       13717    l_378                    cobol_db:    1245, 1247.
       13750    l_379                    cobol_db:    1251, 1252.
        1337    l_38                     cobol_db:     173,  175.
       13762    l_380                    cobol_db:    1252, 1254.
       13767    l_381                    cobol_db:    1254, 1255.
       14006    l_382                    cobol_db:    1255, 1258.
       14075    l_383                    cobol_db:    1267, 1269.
       14107    l_384                    cobol_db:    1269, 1271.
       14133    l_385                    cobol_db:    1271, 1273, 1275.
       14171    l_386                    cobol_db:    1278, 1279, 1281.
       14215    l_387                    cobol_db:    1283, 1285.
       14241    l_388                    cobol_db:    1287, 1289.
       14272    l_389                    cobol_db:    1293, 1294.
        1351    l_39                     cobol_db:     175,  177.
       14277    l_390                    cobol_db:    1294, 1295.
       14316    l_391                    cobol_db:    1297, 1298.
       14323    l_392                    cobol_db:    1298, 1299.
       14330    l_393                    cobol_db:    1299, 1300.
       14335    l_394                    cobol_db:    1301.
       14354    l_395                    cobol_db:    1302, 1304.
       14366    l_396                    cobol_db:    1305, 1306.
       14373    l_397                    cobol_db:    1306, 1307.
       14412    l_398                    cobol_db:    1309, 1310.
       14417    l_399                    cobol_db:    1310, 1311.
         512    l_4                      cobol_db:      91,   94.
        1370    l_40                     cobol_db:     178,  180.
       14424    l_400                    cobol_db:    1311, 1312.
       14431    l_401                    cobol_db:    1313.
       14443    l_402                    cobol_db:    1313, 1315.
       14462    l_403                    cobol_db:    1317, 1318.
       14467    l_404                    cobol_db:    1318, 1319.
       14474    l_405                    cobol_db:    1319, 1320.
       14501    l_406                    cobol_db:    1321.
       14537    l_407                    cobol_db:    1326, 1327.
       14544    l_408                    cobol_db:    1327, 1328.
       14551    l_409                    cobol_db:    1328, 1329.
        1375    l_41                     cobol_db:     180,  181.
       14556    l_410                    cobol_db:    1330.
       14570    l_411                    cobol_db:    1330, 1332.
       14607    l_412                    cobol_db:    1334, 1335.
       14614    l_413                    cobol_db:    1335, 1336.
       14621    l_414                    cobol_db:    1336, 1337.
       14633    l_415                    cobol_db:    1339.
       14645    l_416                    cobol_db:    1339, 1341.
       14664    l_417                    cobol_db:    1343, 1344.
       14671    l_418                    cobol_db:    1344, 1345.
       14676    l_419                    cobol_db:    1346.
        1440    l_42                     cobol_db:     186,  188.
       14727    l_420                    cobol_db:    1350, 1351.
       14734    l_421                    cobol_db:    1351, 1352.
       14741    l_422                    cobol_db:    1352, 1353.
       14753    l_423                    cobol_db:    1355.
       14765    l_424                    cobol_db:    1355, 1357.
       15150    l_425                    cobol_db:    1359, 1380.
       15453    l_426                    cobol_db:    1418, 1419.
       15472    l_427                    cobol_db:    1421, 1422.
       15511    l_428                    cobol_db:    1424, 1425.
       15535    l_429                    cobol_db:    1427, 1429.
        1445    l_43                     cobol_db:     188,  189.
       15566    l_430                    cobol_db:    1431, 1434.
       15600    l_431                    cobol_db:    1434, 1436.
       15617    l_432                    cobol_db:    1438, 1439.
       15636    l_433                    cobol_db:    1441, 1442.
       15655    l_434                    cobol_db:    1444, 1445.
       15701    l_435                    cobol_db:    1447, 1449.
       15732    l_436                    cobol_db:    1452, 1454.
       15756    l_437                    cobol_db:    1456, 1458.
       16021    l_438                    cobol_db:    1462, 1465.
       16026    l_439                    cobol_db:    1465, 1466.
        1476    l_44                     cobol_db:     192,  194.
       16103    l_440                    cobol_db:    1472, 1475.
       16110    l_441                    cobol_db:    1475, 1476.
       16160    l_442                    cobol_db:    1482, 1484.
       16216    l_443                    cobol_db:    1488, 1490.
       16247    l_444                    cobol_db:    1494, 1495, 1500.
       16312    l_445                    cobol_db:    1501, 1502, 1507.
       16350    l_446                    cobol_db:    1502, 1503, 1504, 1505, 1506, 1508.
       16362    l_447                    cobol_db:    1509, 1510, 1513.
       16413    l_448                    cobol_db:    1514, 1515, 1518.
       16444    l_449                    cobol_db:    1519, 1520, 1526.
        1510    l_45                     cobol_db:     194,  196.
       16514    l_450                    cobol_db:    1527, 1528, 1530.
       16533    l_451                    cobol_db:    1528, 1531.
       16545    l_452                    cobol_db:    1531, 1532, 1533.
       16557    l_453                    cobol_db:    1534, 1535, 1539.
       16634    l_454                    cobol_db:    1542, 1544.
       16653    l_455                    cobol_db:    1546, 1547.
       16742    l_456                    cobol_db:    1556, 1558.
       16747    l_457                    cobol_db:    1558, 1559.
       16773    l_458                    cobol_db:    1563.
       17031    l_459                    cobol_db:    1567, 1569.
        1515    l_46                     cobol_db:     196,  197.
       17050    l_460                    cobol_db:    1571, 1572.
       17163    l_461                    cobol_db:    1585, 1587.
       17207    l_462                    cobol_db:    1589, 1591.
       17221    l_463                    cobol_db:    1591, 1593.
       17226    l_464                    cobol_db:    1593, 1594.
       17276    l_465                    cobol_db:    1599, 1602.
       17334    l_466                    cobol_db:    1606, 1608.
       17360    l_467                    cobol_db:    1610, 1612.
       17416    l_468                    cobol_db:    1617, 1618.
       17461    l_469                    cobol_db:    1623, 1625.
        1522    l_47                     cobol_db:     197,  198.
       17466    l_470                    cobol_db:    1625, 1626.
       17524    l_471                    cobol_db:    1631, 1632.
       17543    l_472                    cobol_db:    1633, 1635.
       17555    l_473                    cobol_db:    1635, 1636, 1637.
       17562    l_474                    cobol_db:    1637, 1638.
       17601    l_475                    cobol_db:    1638, 1641.
       17620    l_476                    cobol_db:    1642, 1644.
       17637    l_477                    cobol_db:    1646, 1647.
       17644    l_478                    cobol_db:    1648.
       17651    l_479                    cobol_db:    1649.
        1534    l_48                     cobol_db:     198,  200.
       17656    l_480                    cobol_db:    1650.
       17663    l_481                    cobol_db:    1651.
       17670    l_482                    cobol_db:    1652.
       17675    l_483                    cobol_db:    1653.
       17702    l_484                    cobol_db:    1654.
       17707    l_485                    cobol_db:    1655.
       17714    l_486                    cobol_db:    1656.
       17721    l_487                    cobol_db:    1657.
       17726    l_488                    cobol_db:    1658.
       17733    l_489                    cobol_db:    1659.
        1553    l_49                     cobol_db:     201,  202,  203.
       17740    l_490                    cobol_db:    1660.
       17745    l_491                    cobol_db:    1661.
       17752    l_492                    cobol_db:    1662.
       17757    l_493                    cobol_db:    1663.
       17764    l_494                    cobol_db:    1664.
       17771    l_495                    cobol_db:    1665.
       17776    l_496                    cobol_db:    1666.
       20003    l_497                    cobol_db:    1667.
       20010    l_498                    cobol_db:    1668.
       20015    l_499                    cobol_db:    1669.
         524    l_5                      cobol_db:      94,   96.
        1565    l_50                     cobol_db:     204,  205.
       20022    l_500                    cobol_db:    1670.
       20027    l_501                    cobol_db:    1671.
       20034    l_502                    cobol_db:    1672.
       20041    l_503                    cobol_db:    1673.
       20046    l_504                    cobol_db:    1674.
       20053    l_505                    cobol_db:    1675.
       20060    l_506                    cobol_db:    1676.
       20065    l_507                    cobol_db:    1677.
       20072    l_508                    cobol_db:    1678.
       20077    l_509                    cobol_db:    1679.
        1604    l_51                     cobol_db:     205,  206,  208.
       20104    l_510                    cobol_db:    1680.
       20111    l_511                    cobol_db:    1681.
       20116    l_512                    cobol_db:    1682.
        1616    l_52                     cobol_db:     208,  210.
        1623    l_53                     cobol_db:     210,  211.
        1661    l_54                     cobol_db:     211,  217.
        1712    l_55                     cobol_db:     220,  221,  222.
        1731    l_56                     cobol_db:     222,  223,  224,  225.
        1743    l_57                     cobol_db:     225,  227.
        1774    l_58                     cobol_db:     231,  232.
        2032    l_59                     cobol_db:     236,  238.
         543    l_6                      cobol_db:      97,   98,   99.
        2044    l_60                     cobol_db:     239,  240.
        2051    l_61                     cobol_db:     240,  241.
        2070    l_62                     cobol_db:     243,  244.
        2126    l_63                     cobol_db:     249,  250.
        2145    l_64                     cobol_db:     250,  253.
        2157    l_65                     cobol_db:     253,  255.
        2222    l_66                     cobol_db:     261,  262.
        2241    l_67                     cobol_db:     264,  265.
        2253    l_68                     cobol_db:     265,  267.
        2277    l_69                     cobol_db:     268,  269,  271.
         550    l_7                      cobol_db:      99,  100.
        2311    l_70                     cobol_db:     271,  273.
        2316    l_71                     cobol_db:     273,  274.
        2347    l_72                     cobol_db:     275,  279.
        2373    l_73                     cobol_db:     282,  283.
        2405    l_74                     cobol_db:     283,  285.
        2417    l_75                     cobol_db:     285,  287.
        2431    l_76                     cobol_db:     287,  289.
        2443    l_77                     cobol_db:     289,  291.
        2455    l_78                     cobol_db:     291,  293.
        2474    l_79                     cobol_db:     295,  296.
         555    l_8                      cobol_db:     100,  101.
        2513    l_80                     cobol_db:     296,  299.
        2537    l_81                     cobol_db:     301,  303.
        2563    l_82                     cobol_db:     305,  307.
        2575    l_83                     cobol_db:     307,  309.
        2614    l_84                     cobol_db:     309,  310,  312,  313.
        2652    l_85                     cobol_db:     314,  318.
        2676    l_86                     cobol_db:     321,  322.
        2710    l_87                     cobol_db:     322,  324.
        2727    l_88                     cobol_db:     326,  327.
        2741    l_89                     cobol_db:     327,  329.
         567    l_9                      cobol_db:     101,  103.
        2772    l_90                     cobol_db:     333,  334.
        3004    l_91                     cobol_db:     334,  336.
        3061    l_92                     cobol_db:     343,  345.
        3117    l_93                     cobol_db:     350,  351.
        3131    l_94                     cobol_db:     351,  353.
        3143    l_95                     cobol_db:     353,  354,  355.
        3174    l_96                     cobol_db:     356,  357,  358,  360.
        3206    l_97                     cobol_db:     360,  362.
        3232    l_98                     cobol_db:     362,  366.
        3256    l_99                     cobol_db:     369,  370.
           0    l_org                    cobol_db:      28,   29,   30,   31,   32,   33,   34,   35,   36,   37,   38,   39,
                                                        40,   41,   42,   43,   44,   45,   46,   47,   48,   49,   50,   51,
                                                        52,   53,   54,   55,   56,   57,   58,   59,   60,   61,   62,   63,
                                                        64,   65,   66,   67,   68,   69,   70,   71,   72,   73,   74,   75,
                                                        76,   77,   78,   79,   80,   81,   82,   83,   84,   85,   86,   87,
                                                        88,   89,   90,   91,   92,   93,   94,   95,   96,   97,   98,   99,
                                                       100,  101,  102,  103,  104,  105,  106,  107,  108,  109,  110,  111,
                                                       112,  113,  114,  115,  116,  117,  118,  119,  120,  121,  122,  123,
                                                       124,  125,  126,  127,  128,  129,  130,  131,  132,  133,  134,  135,
                                                       136,  137,  138,  139,  140,  141,  142,  143,  144,  145,  146,  147,
                                                       148,  149,  150,  151,  152,  153,  154,  155,  156,  157,  158,  159,
                                                       160,  161,  162,  163,  164,  165,  166,  167,  168,  169,  170,  171,
                                                       172,  173,  174,  175,  176,  177,  178,  179,  180,  181,  182,  183,
                                                       184,  185,  186,  187,  188,  189,  190,  191,  192,  193,  194,  195,
                                                       196,  197,  198,  199,  200,  201,  202,  203,  204,  205,  206,  207,
                                                       208,  209,  210,  211,  212,  213,  214,  215,  216,  217,  218,  219,
                                                       220,  221,  222,  223,  224,  225,  226,  227,  228,  229,  230,  231,
                                                       232,  233,  234,  235,  236,  237,  238,  239,  240,  241,  242,  243,
                                                       244,  245,  246,  247,  248,  249,  250,  251,  252,  253,  254,  255,
                                                       256,  257,  258,  259,  260,  261,  262,  263,  264,  265,  266,  267,
                                                       268,  269,  270,  271,  272,  273,  274,  275,  276,  277,  278,  279,
                                                       280,  281,  282,  283,  284,  285,  286,  287,  288,  289,  290,  291,
                                                       292,  293,  294,  295,  296,  297,  298,  299,  300,  301,  302,  303,
                                                       304,  305,  306,  307,  308,  309,  310,  311,  312,  313,  314,  315,
                                                       316,  317,  318,  319,  320,  321,  322,  323,  324,  325,  326,  327,
                                                       328,  329,  330,  331,  332,  333,  334,  335,  336,  337,  338,  339,
                                                       340,  341,  342,  343,  344,  345,  346,  347,  348,  349,  350,  351,
                                                       352,  353,  354,  355,  356,  357,  358,  359,  360,  361,  362,  363,
                                                       364,  365,  366,  367,  368,  369,  370,  371,  372,  373,  374,  375,
                                                       376,  377,  378,  379,  380,  381,  382,  383,  384,  385,  386,  387,
                                                       388,  389,  390,  391,  392,  393,  394,  395,  396,  397,  398,  399,
                                                       400,  401,  402,  403,  404,  405,  406,  407,  408,  409,  410,  411,
                                                       412,  413,  414,  415,  416,  417,  418,  419,  420,  421,  422,  423,
                                                       424,  425,  426,  427,  428,  429,  430,  431,  432,  433,  434,  435,
                                                       436,  437,  438,  439,  440,  441,  442,  443,  444,  445,  446,  447,
                                                       448,  449,  450,  451,  452,  453,  454,  455,  456,  457,  458,  459,
                                                       460,  461,  462,  463,  464,  465,  466,  467,  468,  469,  470,  471,
                                                       472,  473,  474,  475,  476,  477,  478,  479,  480,  481,  482,  483,
                                                       484,  485,  486,  487,  488,  489,  490,  491,  492,  493,  494,  495,
                                                       496,  497,  498,  499,  500,  501,  502,  503,  504,  505,  506,  507,
                                                       508,  509,  510,  511,  512,  513,  514,  515,  516,  517,  518,  519,
                                                       520,  521,  522,  523,  524,  525,  526,  527,  528,  529,  530,  531,
                                                       532,  533,  534,  535,  536,  537,  538,  539,  540,  541,  542,  543,
                                                       544,  545,  546,  547,  548,  549,  550,  551,  552,  553,  554,  555,
                                                       556,  557,  558,  559,  560,  561,  562,  563,  564,  565,  566,  567,
                                                       568,  569,  570,  571,  572,  573,  574,  575,  576,  577,  578,  579,
                                                       580,  581,  582,  583,  584,  585,  586,  587,  588,  589,  590,  591,
                                                       592,  593,  594,  595,  596,  597,  598,  599,  600,  601,  602,  603,
                                                       604,  605,  606,  607,  608,  609,  610,  611,  612,  613,  614,  615,
                                                       616,  617,  618,  619,  620,  621,  622,  623,  624,  625,  626,  627,
                                                       628,  629,  630,  631,  632,  633,  634,  635,  636,  637,  638,  639,
                                                       640,  641,  642,  643,  644,  645,  646,  647,  648,  649,  650,  651,
                                                       652,  653,  654,  655,  656,  657,  658,  659,  660,  661,  662,  663,
                                                       664,  665,  666,  667,  668,  669,  670,  671,  672,  673,  674,  675,
                                                       676,  677,  678,  679,  680,  681,  682,  683,  684,  685,  686,  687,
                                                       688,  689,  690,  691,  692,  693,  694,  695,  696,  697,  698,  699,
                                                       700,  701,  702,  703,  704,  705,  706,  707,  708,  709,  710,  711,
                                                       712,  713,  714,  715,  716,  717,  718,  719,  720,  721,  722,  723,
                                                       724,  725,  726,  727,  728,  729,  730,  731,  732,  733,  734,  735,
                                                       736,  737,  738,  739,  740,  741,  742,  743,  744,  745,  746,  747,
                                                       748,  749,  750,  751,  752,  753,  754,  755,  756,  757,  758,  759,
                                                       760,  761,  762,  763,  764,  765,  766,  767,  768,  769,  770,  771,
                                                       772,  773,  774,  775,  776,  777,  778,  779,  780,  781,  782,  783,
                                                       784,  785,  786,  787,  788,  789,  790,  791,  792,  793,  794,  795,
                                                       796,  797,  798,  799,  800,  801,  802,  803,  804,  805,  806,  807,
                                                       808,  809,  810,  811,  812,  813,  814,  815,  816,  817,  818,  819,
                                                       820,  821,  822,  823,  824,  825,  826,  827,  828,  829,  830,  831,
                                                       832,  833,  834,  835,  836,  837,  838,  839,  840,  841,  842,  843,
                                                       844,  845,  846,  847,  848,  849,  850,  851,  852,  853,  854,  855,
                                                       856,  857,  858,  859,  860,  861,  862,  863,  864,  865,  866,  867,
                                                       868,  869,  870,  871,  872,  873,  874,  875,  876,  877,  878,  879,
                                                       880,  881,  882,  883,  884,  885,  886,  887,  888,  889,  890,  891,
                                                       892,  893,  894,  895,  896,  897,  898,  899,  900,  901,  902,  903,
                                                       904,  905,  906,  907,  908,  909,  910,  911,  912,  913,  914,  915,
                                                       916,  917,  918,  919,  920,  921,  922,  923,  924,  925,  926,  927,
                                                       928,  929,  930,  931,  932,  933,  934,  935,  936,  937,  938,  939,
                                                       940,  941,  942,  943,  944,  945,  946,  947,  948,  949,  950,  951,
                                                       952,  953,  954,  955,  956,  957,  958,  959,  960,  961,  962,  963,
                                                       964,  965,  966,  967,  968,  969,  970,  971,  972,  973,  974,  975,
                                                       976,  977,  978,  979,  980,  981,  982,  983,  984,  985,  986,  987,
                                                       988,  989,  990,  991,  992,  993,  994,  995,  996,  997,  998,  999,
                                                      1000, 1001, 1002, 1003, 1004, 1005, 1006, 1007, 1008, 1009, 1010, 1011,
                                                      1012, 1013, 1014, 1015, 1016, 1017, 1018, 1019, 1020, 1021, 1022, 1023,
                                                      1024, 1025, 1026, 1027, 1028, 1029, 1030, 1031, 1032, 1033, 1034, 1035,
                                                      1036, 1037, 1038, 1039, 1040, 1041, 1042, 1043, 1044, 1045, 1046, 1047,
                                                      1048, 1049, 1050, 1051, 1052, 1053, 1054, 1055, 1056, 1057, 1058, 1059,
                                                      1060, 1061, 1062, 1063, 1064, 1065, 1066, 1067, 1068, 1069, 1070, 1071,
                                                      1072, 1073, 1074, 1075, 1076, 1077, 1078, 1079, 1080, 1081, 1082, 1083,
                                                      1084, 1085, 1086, 1087, 1088, 1089, 1090, 1091, 1092, 1093, 1094, 1095,
                                                      1096, 1097, 1098, 1099, 1100, 1101, 1102, 1103, 1104, 1105, 1106, 1107,
                                                      1108, 1109, 1110, 1111, 1112, 1113, 1114, 1115, 1116, 1117, 1118, 1119,
                                                      1120, 1121, 1122, 1123, 1124, 1125, 1126, 1127, 1128, 1129, 1130, 1131,
                                                      1132, 1133, 1134, 1135, 1136, 1137, 1138, 1139, 1140, 1141, 1142, 1143,
                                                      1144, 1145, 1146, 1147, 1148, 1149, 1150, 1151, 1152, 1153, 1154, 1155,
                                                      1156, 1157, 1158, 1159, 1160, 1161, 1162, 1163, 1164, 1165, 1166, 1167,
                                                      1168, 1169, 1170, 1171, 1172, 1173, 1174, 1175, 1176, 1177, 1178, 1179,
                                                      1180, 1181, 1182, 1183, 1184, 1185, 1186, 1187, 1188, 1189, 1190, 1191,
                                                      1192, 1193, 1194, 1195, 1196, 1197, 1198, 1199, 1200, 1201, 1202, 1203,
                                                      1204, 1205, 1206, 1207, 1208, 1209, 1210, 1211, 1212, 1213, 1214, 1215,
                                                      1216, 1217, 1218, 1219, 1220, 1221, 1222, 1223, 1224, 1225, 1226, 1227,
                                                      1228, 1229, 1230, 1231, 1232, 1233, 1234, 1235, 1236, 1237, 1238, 1239,
                                                      1240, 1241, 1242, 1243, 1244, 1245, 1246, 1247, 1248, 1249, 1250, 1251,
                                                      1252, 1253, 1254, 1255, 1256, 1257, 1258, 1259, 1260, 1261, 1262, 1263,
                                                      1264, 1265, 1266, 1267, 1268, 1269, 1270, 1271, 1272, 1273, 1274, 1275,
                                                      1276, 1277, 1278, 1279, 1280, 1281, 1282, 1283, 1284, 1285, 1286, 1287,
                                                      1288, 1289, 1290, 1291, 1292, 1293, 1294, 1295, 1296, 1297, 1298, 1299,
                                                      1300, 1301, 1302, 1303, 1304, 1305, 1306, 1307, 1308, 1309, 1310, 1311,
                                                      1312, 1313, 1314, 1315, 1316, 1317, 1318, 1319, 1320, 1321, 1322, 1323,
                                                      1324, 1325, 1326, 1327, 1328, 1329, 1330, 1331, 1332, 1333, 1334, 1335,
                                                      1336, 1337, 1338, 1339, 1340, 1341, 1342, 1343, 1344, 1345, 1346, 1347,
                                                      1348, 1349, 1350, 1351, 1352, 1353, 1354, 1355, 1356, 1357, 1358, 1359,
                                                      1360, 1361, 1362, 1363, 1364, 1365, 1366, 1367, 1368, 1369, 1370, 1371,
                                                      1372, 1373, 1374, 1375, 1376, 1377, 1378, 1379, 1380, 1381, 1382, 1383,
                                                      1384, 1385, 1386, 1387, 1388, 1389, 1390, 1391, 1392, 1393, 1394, 1395,
                                                      1396, 1397, 1398, 1399, 1400, 1401, 1402, 1403, 1404, 1405, 1406, 1407,
                                                      1408, 1409, 1410, 1411, 1412, 1413, 1414, 1415, 1416, 1417, 1418, 1419,
                                                      1420, 1421, 1422, 1423, 1424, 1425, 1426, 1427, 1428, 1429, 1430, 1431,
                                                      1432, 1433, 1434, 1435, 1436, 1437, 1438, 1439, 1440, 1441, 1442, 1443,
                                                      1444, 1445, 1446, 1447, 1448, 1449, 1450, 1451, 1452, 1453, 1454, 1455,
                                                      1456, 1457, 1458, 1459, 1460, 1461, 1462, 1463, 1464, 1465, 1466, 1467,
                                                      1468, 1469, 1470, 1471, 1472, 1473, 1474, 1475, 1476, 1477, 1478, 1479,
                                                      1480, 1481, 1482, 1483, 1484, 1485, 1486, 1487, 1488, 1489, 1490, 1491,
                                                      1492, 1493, 1494, 1495, 1496, 1497, 1498, 1499, 1500, 1501, 1502, 1503,
                                                      1504, 1505, 1506, 1507, 1508, 1509, 1510, 1511, 1512, 1513, 1514, 1515,
                                                      1516, 1517, 1518, 1519, 1520, 1521, 1522, 1523, 1524, 1525, 1526, 1527,
                                                      1528, 1529, 1530, 1531, 1532, 1533, 1534, 1535, 1536, 1537, 1538, 1539,
                                                      1540, 1541, 1542, 1543, 1544, 1545, 1546, 1547, 1548, 1549, 1550, 1551,
                                                      1552, 1553, 1554, 1555, 1556, 1557, 1558, 1559, 1560, 1561, 1562, 1563,
                                                      1564, 1565, 1566, 1567, 1568, 1569, 1570, 1571, 1572, 1573, 1574, 1575,
                                                      1576, 1577, 1578, 1579, 1580, 1581, 1582, 1583, 1584, 1585, 1586, 1587,
                                                      1588, 1589, 1590, 1591, 1592, 1593, 1594, 1595, 1596, 1597, 1598, 1599,
                                                      1600, 1601, 1602, 1603, 1604, 1605, 1606, 1607, 1608, 1609, 1610, 1611,
                                                      1612, 1613, 1614, 1615, 1616, 1617, 1618, 1619, 1620, 1621, 1622, 1623,
                                                      1624, 1625, 1626, 1627, 1628, 1629, 1630, 1631, 1632, 1633, 1634, 1635,
                                                      1636, 1637, 1638, 1639, 1640, 1641, 1642, 1643, 1644, 1645, 1646, 1647,
                                                      1648, 1649, 1650, 1651, 1652, 1653, 1654, 1655, 1656, 1657, 1658, 1659,
                                                      1660, 1661, 1662, 1663, 1664, 1665, 1666, 1667, 1668, 1669, 1670, 1671,
                                                      1672, 1673, 1674, 1675, 1676, 1677, 1678, 1679, 1680, 1681, 1682.
        5473    mcs_1                    cobol_db:     580,  603.
        5505    mcs_2                    cobol_db:     605.
        5500    mcs_3                    cobol_db:     581,  604.
        5202    merge                    cobol_db:      43,  566.
        5245    merge_1                  cobol_db:     573,  578,  579.
        5454    merge_2                  cobol_db:     589,  600.
        5346    merge_3                  cobol_db:     586,  587.
        5264    merge_4                  cobol_db:     576.
        5377    merge_7                  cobol_db:     591.
        5226    merge_8                  cobol_db:     570,  577.
       17257    more_rpar                cobol_db:    1596, 1599, 1602.
        5601    mov1                     cobol_db:     608,  609,  610,  611,  617.
        5517    move                     cobol_db:      46,  607.
        5721    mul1                     cobol_db:     633,  634.
        5726    mul2                     cobol_db:     634.
        5733    mul3                     cobol_db:     635.
        5776    mul4                     cobol_db:     632,  642.
        6010    mul5                     cobol_db:     644,  645,  654, 1106.
        6046    mul6                     cobol_db:     627,  628,  629,  650.
        5757    mul7                     cobol_db:     639,  646.
        5632    multiply                 cobol_db:      38,  622.
        5322    muse                     cobol_db:     582,  605.
       15523    nd                       cobol_db:    1427.
       15535    nd1                      cobol_db:    1429.
         632    nodecl                   cobol_db:     102,  107,  110, 1508, 1510, 1511, 1512, 1533.
         714    nod_1                    cobol_db:     110,  120,  123,  128.
         757    nod_3                    cobol_db:     111,  127.
       15713    nonumid                  cobol_db:     322,  324, 1133, 1451.
       16761    not_cond                 cobol_db:    1553, 1561.
        7347    no_data                  cobol_db:     784,  791, 1348.
        7373    no_data_1                cobol_db:     792,  795.
        4432    ns                       cobol_db:     469,  475,  486,  494.
       17207    obj_op                   cobol_db:    1572, 1574, 1577, 1584, 1587, 1588, 1591.
       15612    oe                       cobol_db:    1357, 1438.
       15617    oe1                      cobol_db:    1350, 1439.
        6104    open                     cobol_db:      47,  656.
        6200    open_1                   cobol_db:     668,  682,  690.
        6142    open_i                   cobol_db:     662,  668.
        6154    open_i1                  cobol_db:     664,  667.
        6173    open_i2                  cobol_db:     664,  667,  675.
        6231    open_i3                  cobol_db:     665,  673.
        6243    open_i4                  cobol_db:     666,  675.
        6337    open_io                  cobol_db:     659,  660,  670,  671,  687.
        6255    open_o                   cobol_db:     658,  669,  677.
        6267    open_o1                  cobol_db:     679,  681.
        6301    open_o2                  cobol_db:     681,  685.
        6313    open_o3                  cobol_db:     679,  683.
        6325    open_o4                  cobol_db:     680,  685.
       15547    ose                      cobol_db:    1332, 1431.
       15566    ose1                     cobol_db:    1325, 1434.
       15600    ose2                     cobol_db:    1326, 1432, 1436.
       15465    ov                       cobol_db:    1341, 1421.
       15472    ov1                      cobol_db:    1334, 1422.
       14311    o_ae                     cobol_db:     760,  764,  810,  813, 1297.
       14316    o_ae1                    cobol_db:     761,  765,  811,  814, 1298.
       14361    o_ae2                    cobol_db:    1300, 1301, 1305.
       14455    o_eop                    cobol_db:    1184, 1188, 1317.
       14462    o_eop1                   cobol_db:    1185, 1189, 1318.
       14513    o_eop2                   cobol_db:    1320, 1321, 1323.
       14722    o_ex                     cobol_db:    1350.
       14727    o_ex1                    cobol_db:    1351.
       14765    o_ex2                    cobol_db:    1353, 1357.
       14405    o_inv                    cobol_db:     762,  766,  826,  828, 1008, 1010, 1186, 1190, 1256, 1258, 1309.
       14443    o_inv1                   cobol_db:    1312, 1315.
       14657    o_nd                     cobol_db:     783,  784, 1343.
       14710    o_nd1                    cobol_db:    1345, 1348.
       14602    o_ov                     cobol_db:     315,  318, 1061, 1064, 1171, 1174, 1334.
       14607    o_ov1                    cobol_db:     316,  319, 1062, 1065, 1172, 1175, 1335.
       14645    o_ov2                    cobol_db:    1337, 1341.
       14525    o_se                     cobol_db:     276,  279,  363,  366,  416,  419,  427,  636,  639,  647, 1088, 1091,
                                                      1099, 1325.
       14532    o_se1                    cobol_db:     277,  280,  364,  367,  417,  420,  428,  637,  640,  648, 1089, 1092,
                                                      1100, 1326.
       14537    o_se2                    cobol_db:    1325, 1327.
       14570    o_se3                    cobol_db:    1329, 1332.
        1161    para                     cobol_db:     122,  127,  140,  153.
        1255    para_1                   cobol_db:     159,  165,  168, 1520, 1521, 1522, 1523, 1524, 1525.
        1224    para_2                   cobol_db:     160,  171, 1535, 1536, 1537, 1538.
        1301    para_3                   cobol_db:     169,  185.
        1421    para_4                   cobol_db:     174,  176,  181,  183,  184,  185.
        6426    per1                     cobol_db:     693,  695,  698.
        6457    per2                     cobol_db:     703,  709,  711,  716.
        6503    per3                     cobol_db:     698,  699,  707.
        6527    per4                     cobol_db:     700,  711.
        6541    per5                     cobol_db:     701,  713.
        6553    per6                     cobol_db:     715,  717.
        6363    perform                  cobol_db:      48,  691.
       17310    pos_rel                  cobol_db:    1555, 1577, 1604.
        6762    pro1                     cobol_db:     742,  744.
        6774    pro2                     cobol_db:     741,  744.
        7006    pro3                     cobol_db:     742,  746.
        6736    process                  cobol_db:      76,  738.
        7025    purge                    cobol_db:      86,  749.
        6577    range                    cobol_db:     713,  717,  719.
        7044    read                     cobol_db:      49,  752.
        7102    read_1                   cobol_db:     758,  768.
        7107    read_2                   cobol_db:     759,  771.
        7164    read_3                   cobol_db:     757,  768.
        7176    read_4                   cobol_db:     758,  770.
        7215    receive                  cobol_db:      51,  773.
       17043    rel                      cobol_db:    1563, 1565, 1571.
        7405    release                  cobol_db:      52,  797.
       17346    relop                    cobol_db:    1552, 1562, 1566, 1571, 1574, 1584, 1589, 1610.
       16704    res                      cobol_db:    1548, 1552.
       16665    res1                     cobol_db:    1549, 1557.
        7450    return                   cobol_db:      53,  804.
        7501    ret_1                    cobol_db:     809,  816.
        7544    ret_2                    cobol_db:     808,  816.
        7556    rewrite                  cobol_db:      55,  818.
        7621    rew_1                    cobol_db:     822,  825.
       14227    rid                      cobol_db:     250,  619,  768,  781,  816,  855, 1054, 1069, 1139, 1145, 1166, 1237, 1287.
       16242    r_1                      cobol_db:      88,   90,   95, 1494.
       16305    r_2                      cobol_db:      31,   34,   41,   56,   57,   60,   67,   72,   80,   81,   82,   83,
                                                       252,  260,  263,  266,  270,  272,  281,  284,  286,  290,  292,  298,
                                                       302,  304,  306,  311,  320,  323,  328,  342,  344,  346,  349,  352,
                                                       359,  361,  368,  372,  375,  377,  380,  382,  387,  388,  389,  394,
                                                       395,  398,  400,  403,  406,  411,  421,  423,  432,  434,  436,  445,
                                                       454,  457,  461,  466,  471,  479,  497,  501,  506,  509,  511,  513,
                                                       517,  519,  525,  533,  538,  540,  542,  544,  550,  552,  554,  560,
                                                       568,  572,  575,  583,  585,  590,  592,  595,  599,  601,  606,  613,
                                                       616,  618,  624,  626,  631,  641,  643,  651,  653,  655,  661,  663,
                                                       674,  676,  678,  684,  686,  688,  697,  706,  710,  712,  714,  718,
                                                       722,  724,  728,  730,  733,  735,  737,  740,  745,  748,  751,  754,
                                                       767,  769,  772,  775,  778,  780,  782,  790,  796,  799,  803,  806,
                                                       812,  815,  817,  820,  824,  829,  833,  839,  844,  847,  849,  852,
                                                       857,  859,  861,  863,  868,  870,  873,  875,  879,  881,  884,  891,
                                                       893,  904,  909,  911,  918,  923,  934,  939,  943,  946,  948,  951,
                                                       956,  959,  969,  971,  974,  976,  978,  982,  986,  990,  992,  995,
                                                       999, 1001, 1005, 1011, 1016, 1019, 1023, 1028, 1033, 1035, 1040, 1046,
                                                      1048, 1053, 1055, 1057, 1066, 1068, 1070, 1072, 1075, 1078, 1083, 1093,
                                                      1095, 1103, 1105, 1107, 1111, 1120, 1125, 1127, 1130, 1135, 1138, 1140,
                                                      1142, 1151, 1153, 1156, 1158, 1160, 1162, 1164, 1167, 1169, 1176, 1179,
                                                      1191, 1198, 1205, 1208, 1212, 1217, 1219, 1221, 1225, 1227, 1229, 1231,
                                                      1233, 1236, 1240, 1244, 1246, 1250, 1253, 1259, 1274, 1277, 1282, 1308,
                                                      1420, 1423, 1426, 1428, 1430, 1433, 1435, 1437, 1440, 1443, 1448, 1467,
                                                      1501, 1551, 1560, 1568, 1573, 1582, 1592, 1598, 1603, 1628, 1640, 1645.
       16355    r_3                      cobol_db:     113,  121,  125,  130, 1509.
       16406    r_4                      cobol_db:     134,  137,  139, 1514.
       16437    r_5                      cobol_db:     179,  182,  187, 1519.
       16507    r_6                      cobol_db:     108, 1527.
       16545    r_61                     cobol_db:    1529, 1533.
       16552    r_7                      cobol_db:     164, 1534.
           1    r_accept                 cobol_db:     249, 2029.
           2    r_add                    cobol_db:     264, 2030.
         107    r_advancing              cobol_db:     905, 1193, 2031.
         110    r_after                  cobol_db:     189,  521,  546,  556,  715,  901, 1182, 2032.
         111    r_all                    cobol_db:     236,  408,  459,  499,  514,  527,  534,  561,  612,  628,  832, 1080,
                                                      1118, 1132, 1209, 1213, 1462, 1472, 1615, 1623, 2033.
         112    r_alphabetic             cobol_db:    1580, 2034.
           4    r_alter                  cobol_db:     282, 2035.
         115    r_and                    cobol_db:    1594, 1600, 2036.
         116    r_ascending              cobol_db:     570,  578,  954,  962, 2037.
         117    r_at                     cobol_db:     760,  764,  810,  813,  840,  866, 1184, 1188, 1424, 1441, 2038.
         120    r_before                 cobol_db:     190,  520,  545,  555,  900, 1181, 2039.
         121    r_beginning              cobol_db:     220, 2040.
         122    r_by                     cobol_db:     405,  541,  551,  625,  729,  942, 1041, 1131, 1223, 1230, 2041.
           5    r_call                   cobol_db:     295, 2042.
           7    r_cancel                 cobol_db:     321, 2043.
         123    r_character              cobol_db:    1673, 2044.
         123    r_characters             cobol_db:     516,  529,  537, 1238, 2045.
          10    r_close                  cobol_db:     326, 2046.
        1003    r_collating              cobol_db:     580,  964, 2047.
          50    r_compute                cobol_db:     350, 2048.
        1012    r_copy                   cobol_db:    1653, 2049.
        1014    r_corr                   cobol_db:    1654, 2050.
        1014    r_corresponding          cobol_db:    1655, 2051.
         124    r_count                  cobol_db:     262, 1144, 2052.
         304    r_data                   cobol_db:     787,  789,  795, 1419, 1429, 2053.
         126    r_date                   cobol_db:     256, 2054.
         127    r_day                    cobol_db:     258, 2055.
         506    r_day_of_week            cobol_db:     259, 2056.
         130    r_debugging              cobol_db:     191,  194, 2057.
         131    r_declaratives           cobol_db:     101, 1499, 2058.
          26    r_delete                 cobol_db:    1251, 2059.
         132    r_delimited              cobol_db:    1037, 1128, 2060.
         133    r_delimiter              cobol_db:    1143, 2061.
         134    r_depending              cobol_db:     178,  452, 2062.
         135    r_descending             cobol_db:     571,  579,  955,  963, 2063.
          51    r_disable                cobol_db:     369, 2064.
          52    r_display                cobol_db:     383, 2065.
         271    r_div                    cobol_db:    1678, 2026.
          11    r_divide                 cobol_db:     401, 2066.
         136    r_division               cobol_db:      89, 2067.
         137    r_down                   cobol_db:     927, 2068.
         351    r_egi                    cobol_db:     889,  897, 2069.
         140    r_else                   cobol_db:     472,  480,  483,  492, 2070.
         141    r_emi                    cobol_db:     888,  896, 2071.
          53    r_enable                 cobol_db:     439, 2072.
         142    r_end                    cobol_db:     761,  765,  811,  814,  841,  843,  867,  869, 1442, 2073.
         143    r_ending                 cobol_db:     221, 2094.
         722    r_end_add                cobol_db:    1380, 2074.
         723    r_end_call               cobol_db:    1382, 2075.
         724    r_end_compute            cobol_db:    1384, 2076.
         725    r_end_delete             cobol_db:    1386, 2077.
         726    r_end_divide             cobol_db:    1388, 2078.
         727    r_end_evaluate           cobol_db:    1390, 2079.
         730    r_end_if                 cobol_db:     481,  490, 1392, 2080.
         731    r_end_multiply           cobol_db:    1394, 2081.
         144    r_end_of_page            cobol_db:    1650, 2082.
         732    r_end_perform            cobol_db:     705, 1396, 2083.
         733    r_end_read               cobol_db:    1398, 2084.
         734    r_end_receive            cobol_db:    1400, 2085.
         735    r_end_return             cobol_db:    1402, 2086.
         736    r_end_rewrite            cobol_db:    1404, 2087.
         737    r_end_search             cobol_db:    1406, 2088.
         740    r_end_start              cobol_db:    1408, 2089.
         741    r_end_string             cobol_db:    1410, 2090.
         742    r_end_subtract           cobol_db:    1412, 2091.
         743    r_end_unstring           cobol_db:    1414, 2092.
         744    r_end_write              cobol_db:    1416, 2093.
         144    r_eop                    cobol_db:    1185, 1189, 1425, 2095.
         146    r_eq                     cobol_db:     357, 1013, 1682, 2018.
         146    r_equal                  cobol_db:    1651, 2096.
         146    r_equals                 cobol_db:     358, 1604, 2097.
           3    r_error                  cobol_db:     205, 1436, 2098.
         151    r_esi                    cobol_db:     887,  895, 2099.
          62    r_examine                cobol_db:    1203, 2100.
         161    r_exceeds                cobol_db:    1605, 2101.
         153    r_exception              cobol_db:     206, 1439, 2102.
          14    r_exit                   cobol_db:     158,  440, 2103.
         272    r_exp                    cobol_db:    1679, 2022.
         330    r_extend                 cobol_db:     215,  660,  671, 2104.
         154    r_file                   cobol_db:     224, 2105.
         155    r_first                  cobol_db:     536,  563, 1216, 1220, 1228, 2106.
         156    r_for                    cobol_db:     192,  337,  512, 1558, 2107.
         157    r_from                   cobol_db:     253,  356,  723,  741,  800,  821,  885, 1077, 1180, 1239, 2108.
          55    r_generate               cobol_db:     443, 2109.
         160    r_giving                 cobol_db:     269,  412,  435,  589,  632,  652,  989, 1084, 1104, 2110.
          16    r_go                     cobol_db:     157,  446, 2111.
         161    r_greater                cobol_db:    1652, 2112.
         161    r_gt                     cobol_db:    1014, 1681, 2028.
         335    r_high_value             cobol_db:    1658, 2113.
         335    r_high_values            cobol_db:    1659, 2114.
          56    r_hold                   cobol_db:     458, 2115.
          57    r_if                     cobol_db:     464, 2117.
         145    r_in                     cobol_db:    1149, 1154, 1165, 1648, 2118.
         162    r_initial                cobol_db:     523,  548,  558, 2119.
          20    r_initiate               cobol_db:     498, 2120.
         163    r_input                  cobol_db:     212,  370,  657,  668,  967, 2121.
          21    r_inspect                cobol_db:     504, 2122.
         164    r_into                   cobol_db:     404,  757,  779,  808, 1052, 1129, 1137, 2123.
         165    r_invalid                cobol_db:     762,  766,  826,  828, 1008, 1010, 1186, 1190, 1256, 1258, 1444, 2124.
         166    r_is                     cobol_db:     593,  604,  770,  972,  980,  993, 1012, 1554, 1576, 2125.
         167    r_i_o                    cobol_db:     214,  659,  670, 2116.
         170    r_key                    cobol_db:     379,  573,  758,  957, 1006, 1309, 1445, 2126.
         171    r_label                  cobol_db:     225, 2127.
         172    r_leading                cobol_db:     515,  528,  535,  562, 1210, 1214, 2128.
         173    r_less                   cobol_db:    1022, 2129.
        1064    r_linage_counter         cobol_db:    1669, 2130.
         174    r_line                   cobol_db:    1674, 2131.
         174    r_lines                  cobol_db:     912, 1199, 2132.
         175    r_lock                   cobol_db:     333,  348, 2133.
         345    r_low_value              cobol_db:    1660, 2134.
         345    r_low_values             cobol_db:    1661, 2135.
         173    r_ls                     cobol_db:    1680, 2027.
         273    r_lt                     cobol_db:    1269, 1547, 1561, 1633, 1639, 2019.
          17    r_merge                  cobol_db:     566, 2136.
         176    r_message                cobol_db:     261,  776, 1556, 2137.
          22    r_move                   cobol_db:     607, 2138.
          12    r_multiply               cobol_db:     622, 2139.
         177    r_negative               cobol_db:    1670, 2140.
         200    r_next                   cobol_db:     494,  755,  850,  876, 2141.
         201    r_no                     cobol_db:     332,  338,  343,  347,  666,  673,  680,  683,  792, 1427, 2142.
         202    r_not                    cobol_db:     275,  314,  362,  415,  426,  635,  646,  759,  791,  809,  825, 1007,
                                                      1015, 1060, 1087, 1098, 1170, 1183, 1255, 1301, 1313, 1321, 1330, 1339,
                                                      1355, 1553, 1563, 1565, 1575, 1583, 2143.
         203    r_numeric                cobol_db:    1579, 2144.
         205    r_of                     cobol_db:     240, 1649, 2145.
        1076    r_off                    cobol_db:    1656, 2146.
         206    r_on                     cobol_db:     180,  197,  210,  276,  279,  315,  318,  363,  366,  416,  419,  427,
                                                       455,  569,  577,  636,  639,  647,  953,  961, 1061, 1064, 1088, 1091,
                                                      1099, 1171, 1174, 1421, 1431, 1438, 2147.
          23    r_open                   cobol_db:     656, 2148.
         207    r_or                     cobol_db:    1136, 1595, 2149.
         211    r_output                 cobol_db:     213,  371,  588,  658,  669,  988, 2150.
           6    r_overflow               cobol_db:     316,  319, 1062, 1065, 1172, 1175, 1422, 2151.
         213    r_page                   cobol_db:     908, 1197, 2152.
         275    r_per                    cobol_db:      92,   97,  103,  115,  143,  151,  155,  166,  169,  201, 1498, 1506,
                                                      1521, 1531, 2025.
          24    r_perform                cobol_db:     691, 2153.
         266    r_pls                    cobol_db:    1278, 1629, 1635, 1675, 2023.
         214    r_pointer                cobol_db:    1059, 1067, 1147, 1159, 2154.
         215    r_positive               cobol_db:    1671, 2155.
        1057    r_printing               cobol_db:    1261, 2156.
         216    r_procedure              cobol_db:      87,  208,  227,  591,  975,  991, 2157.
         217    r_procedures             cobol_db:     238, 2158.
         220    r_proceed                cobol_db:     287, 2159.
          60    r_process                cobol_db:     738, 2160.
         222    r_program                cobol_db:     183,  441, 2161.
          72    r_purge                  cobol_db:     749, 2162.
         353    r_quote                  cobol_db:    1665, 2163.
         353    r_quotes                 cobol_db:    1666, 2164.
          25    r_read                   cobol_db:     752, 2165.
          27    r_receive                cobol_db:     773, 2166.
         224    r_record                 cobol_db:     756,  807, 1254, 2167.
         303    r_records                cobol_db:    1647, 2168.
         225    r_reel                   cobol_db:     222,  329, 2169.
         226    r_references             cobol_db:     239, 2170.
          30    r_release                cobol_db:     797, 2171.
         227    r_remainder              cobol_db:     425, 2172.
         404    r_removal                cobol_db:     339,  341, 2173.
         651    r_replace                cobol_db:    1657, 2174.
         230    r_replacing              cobol_db:     508,  530, 1207, 1222, 2175.
         231    r_reporting              cobol_db:     219, 2176.
          31    r_return                 cobol_db:     804, 2177.
         232    r_reversed               cobol_db:     664, 2178.
         233    r_rewind                 cobol_db:     345,  675,  685, 2179.
          33    r_rewrite                cobol_db:     818, 2180.
         234    r_rounded                cobol_db:     273,  353,  413,  424,  633,  644, 1085, 1096, 2181.
         274    r_rt                     cobol_db:    1275, 1596, 1599, 1642, 2020.
         235    r_run                    cobol_db:    1025, 2182.
          32    r_search                 cobol_db:     830, 2183.
         236    r_section                cobol_db:     148, 2184.
         237    r_segment                cobol_db:     777, 2185.
          36    r_send                   cobol_db:     882, 2186.
         240    r_sentence               cobol_db:     496,  858,  880, 2187.
        1113    r_sequence               cobol_db:     581,  603,  965,  970, 2188.
          37    r_set                    cobol_db:     914, 2189.
         241    r_size                   cobol_db:     277,  280,  364,  367,  417,  420,  428,  637,  640,  648, 1043, 1089,
                                                      1092, 1100, 1432, 1434, 2190.
          61    r_sort                   cobol_db:     949, 2191.
         300    r_space                  cobol_db:    1667, 2192.
         300    r_spaces                 cobol_db:    1668, 2193.
         242    r_standard               cobol_db:     204, 2194.
          70    r_start                  cobol_db:    1003, 2195.
          41    r_stop                   cobol_db:    1024, 2196.
          42    r_string                 cobol_db:    1029, 2197.
         267    r_sub                    cobol_db:    1279, 1630, 1636, 1676, 2024.
          13    r_subtract               cobol_db:    1073, 2198.
          71    r_suppress               cobol_db:    1260, 2199.
          43    r_suspend                cobol_db:    1108, 2200.
         243    r_tallying               cobol_db:     507, 1148, 1206, 2201.
         244    r_terminal               cobol_db:     373, 2202.
          44    r_terminate              cobol_db:    1117, 2203.
         245    r_than                   cobol_db:    1020, 1613, 2204.
         454    r_then                   cobol_db:     467, 2205.
         246    r_through                cobol_db:    1672, 2206.
         246    r_thru                   cobol_db:     596,  694,  983,  996, 2207.
         270    r_tim                    cobol_db:    1677, 2021.
         250    r_time                   cobol_db:     257, 2208.
         250    r_times                  cobol_db:     709, 2209.
         252    r_to                     cobol_db:     172,  268,  285,  289,  447,  617,  920,  925,  933, 1017, 1245, 1569,
                                                      1587, 1608, 1612, 2210.
          63    r_transform              cobol_db:    1234, 2211.
         253    r_unequal                cobol_db:    1567, 1585, 1606, 2212.
         254    r_unit                   cobol_db:     223,  330, 2213.
          45    r_unstring               cobol_db:    1123, 2214.
         255    r_until                  cobol_db:     700,  734, 1211, 1215, 2215.
         256    r_up                     cobol_db:     926, 2216.
         257    r_upon                   cobol_db:     390, 2217.
          47    r_use                    cobol_db:     186, 2218.
         260    r_using                  cobol_db:      91,  307,  582,  742,  968, 2219.
         261    r_varying                cobol_db:     701,  835, 2220.
         262    r_when                   cobol_db:     846,  853,  865,  872, 2221.
         263    r_with                   cobol_db:     331,  336,  378,  665,  679,  786,  794,  886,  894, 1058, 1146, 1418, 2222.
          46    r_write                  cobol_db:    1177, 2223.
         264    r_zero                   cobol_db:     409,  629, 1081, 1463, 1466, 1473, 1476, 1662, 2224.
         264    r_zeroes                 cobol_db:    1664, 2225.
         264    r_zeros                  cobol_db:    1663, 2226.
       10047    sea10                    cobol_db:     838,  855.
       10066    sea11                    cobol_db:     850,  858.
       10100    sea12                    cobol_db:     832,  860.
       10206    sea14                    cobol_db:     865,  874.
       10244    sea15                    cobol_db:     876,  880.
       10167    sea31                    cobol_db:     867,  871.
        7734    sea4                     cobol_db:     836,  840,  855,  856.
        7765    sea41                    cobol_db:     841,  845.
        7772    sea7                     cobol_db:     842,  846.
       10004    sea8                     cobol_db:     848,  853.
       10035    sea9                     cobol_db:     853,  858.
        7652    search                   cobol_db:      54,  830.
        1116    sechdr                   cobol_db:     120,  136,  146.
       10256    send                     cobol_db:      58,  882.
       10340    send_1                   cobol_db:     885,  892.
       10410    send_3                   cobol_db:     887,  888,  889,  895,  896,  897,  900,  903.
       10427    send_4                   cobol_db:     890,  898,  903.
       10307    send_5                   cobol_db:     887,  894.
       10441    send_6                   cobol_db:     900,  901,  905.
       10504    send_8                   cobol_db:     906,  912.
       10516    set                      cobol_db:      59,  914.
       10547    set_1                    cobol_db:     919.
       10732    set_10                   cobol_db:     926,  927,  942.
       10566    set_2                    cobol_db:     920,  921,  922.
       10667    set_3                    cobol_db:     932,  935.
       10600    set_4                    cobol_db:     915,  924.
       10631    set_5                    cobol_db:     916,  929,  931.
       10643    set_6                    cobol_db:     928,  931,  935.
       10674    set_7                    cobol_db:     925,  933,  936.
       10720    set_9                    cobol_db:     937,  940.
       14203    sid                      cobol_db:     384,  391,  610,  802,  823,  890,  892,  898,  929,  940,  947, 1030,
                                                      1036, 1042, 1049, 1124, 1150, 1155, 1161, 1192, 1201, 1204, 1283, 1618.
       10775    sort                     cobol_db:      77,  949.
       11026    sort_1                   cobol_db:     954,  961.
       11374    sort_10                  cobol_db:     989, 1000.
       11211    sort_11                  cobol_db:     968,  977.
       11064    sort_12                  cobol_db:     960.
       11300    sort_13                  cobol_db:     984,  985,  988.
       11045    sort_2                   cobol_db:     957,  962,  963.
       11146    sort_3                   cobol_db:     964,  970.
       11160    sort_4                   cobol_db:     965,  972.
       11127    sort_5                   cobol_db:     967,  973.
       11177    sort_6                   cobol_db:     967,  975.
       11230    sort_7                   cobol_db:     975,  980.
       11273    sort_8                   cobol_db:     979,  987.
       11223    sort_9                   cobol_db:     979.
       11420    sta1                     cobol_db:    1004.
       11470    sta3                     cobol_db:    1006, 1012.
       11552    sta6                     cobol_db:    1015, 1022.
       11526    sta7                     cobol_db:    1018, 1020, 1021.
       11540    sta8                     cobol_db:    1014, 1020, 1022.
       11437    sta9                     cobol_db:    1007, 1018.
       11413    start                    cobol_db:      84, 1003.
       11564    stop                     cobol_db:      61, 1024.
       11646    str1                     cobol_db:    1034, 1036, 1049.
       11660    str2                     cobol_db:    1031, 1032, 1036, 1038, 1039, 1050, 1051.
       11761    str4                     cobol_db:    1043, 1044, 1045, 1049.
       12050    str6                     cobol_db:    1060, 1071.
       12113    str7                     cobol_db:    1058, 1067.
       12125    str8                     cobol_db:    1059, 1069.
       11615    string                   cobol_db:      62, 1029.
       12245    sub1                     cobol_db:    1085, 1086.
       12252    sub2                     cobol_db:    1086.
       12257    sub3                     cobol_db:    1087.
       12322    sub4                     cobol_db:    1084, 1094.
       12334    sub5                     cobol_db:    1096, 1097.
       12372    sub6                     cobol_db:    1079, 1080, 1081, 1102.
       12303    sub7                     cobol_db:    1091, 1098.
       12151    subtract                 cobol_db:      39, 1073.
       16610    succ                     cobol_db:     135,  145,  152,  160,  161,  162,  163,  203,  244,  496,  736,  787,
                                                       789,  795, 1263, 1266, 1270, 1275, 1285, 1289, 1291, 1295, 1296, 1380,
                                                      1382, 1384, 1386, 1388, 1390, 1392, 1394, 1396, 1398, 1400, 1402, 1404,
                                                      1406, 1408, 1410, 1412, 1414, 1416, 1419, 1422, 1425, 1429, 1436, 1439,
                                                      1442, 1445, 1446, 1449, 1450, 1451, 1454, 1458, 1460, 1463, 1466, 1468,
                                                      1470, 1473, 1476, 1478, 1480, 1481, 1484, 1490, 1540, 1544, 1597, 1604,
                                                      1605, 1608, 1609, 1612, 1613, 1614, 1616, 1618, 1619, 1620, 1621, 1622, 1643.
       14025    sup1                     cobol_db:    1260, 1261.
       14020    suppress                 cobol_db:      85, 1260.
       12435    sus1                     cobol_db:    1109, 1114.
       12442    sus2                     cobol_db:    1110, 1115.
       12454    sus3                     cobol_db:    1109, 1112.
       12430    suspend                  cobol_db:      63, 1108.
       12505    terminate                cobol_db:      64, 1117.
       13616    transform                cobol_db:      79, 1234.
       12620    un1                      cobol_db:    1132, 1136.
       12776    un10                     cobol_db:    1144, 1154.
       13027    un11                     cobol_db:    1146, 1159.
       13041    un12                     cobol_db:    1147, 1161.
       13065    un13                     cobol_db:    1148, 1165.
       12663    un2                      cobol_db:    1129, 1139.
       12675    un3                      cobol_db:    1141, 1145.
       12714    un4                      cobol_db:    1144, 1152.
       12721    un5                      cobol_db:    1145, 1157.
       12740    un6                      cobol_db:    1148, 1163.
       12745    un8                      cobol_db:    1143, 1149.
       12543    unstring                 cobol_db:      65, 1123.
       16172    usagid                   cobol_db:     505, 1486.
       15744    usnoned                  cobol_db:    1141, 1456.
       14253    verb                     cobol_db:     165,  470,  478,  851,  878, 1291, 1449.
       14272    verb1                    cobol_db:     254,  255,  256,  257,  258,  259,  262,  294,  325,  335,  381,  396,
                                                       399,  441,  442,  444,  449,  451,  456,  459,  463,  499,  503,  531,
                                                       557,  559,  565,  597,  598,  602,  621,  672,  743,  747,  750,  801,
                                                       802,  899,  902,  907,  908,  912,  913,  922,  936,  938,  940,  941,
                                                       945,  947,  997,  998, 1002, 1025, 1026, 1027, 1116, 1118, 1122, 1224,
                                                      1232, 1247, 1248, 1249, 1261, 1262, 1294.
       14277    verb2                    cobol_db:     482,  491,  493, 1295, 1303, 1304.
       15446    wd                       cobol_db:    1418.
       15453    wd1                      cobol_db:    1419.
        7316    with_data                cobol_db:     783,  786, 1346.
       13351    wr1                      cobol_db:    1194, 1201.
       13205    wr2                      cobol_db:    1181, 1192.
       13217    wr3                      cobol_db:    1183, 1196, 1197, 1199, 1200.
       13274    wr4                      cobol_db:    1180, 1192.
       13301    wr5                      cobol_db:    1181, 1182, 1193.
       13320    wr6                      cobol_db:    1196, 1202.
       13337    wr8                      cobol_db:    1195, 1199, 1201.
       13161    write                    cobol_db:      66, 1177.
       14037    xdname                   cobol_db:     388,  395,  856,  930,  941, 1263, 1622.


NO FATAL ERRORS


                                          -----------------------------------------------------------


Historical Background

This edition of the Multics software materials and documentation is provided and donated
to Massachusetts Institute of Technology by Group BULL including BULL HN Information Systems Inc.
as a contribution to computer science knowledge.
This donation is made also to give evidence of the common contributions of Massachusetts Institute of Technology,
Bell Laboratories, General Electric, Honeywell Information Systems Inc., Honeywell BULL Inc., Groupe BULL
and BULL HN Information Systems Inc. to the development of this operating system.
Multics development was initiated by Massachusetts Institute of Technology Project MAC (1963-1970),
renamed the MIT Laboratory for Computer Science and Artificial Intelligence in the mid 1970s, under the leadership
of Professor Fernando Jose Corbato. Users consider that Multics provided the best software architecture
for managing computer hardware properly and for executing programs. Many subsequent operating systems
incorporated Multics principles.
Multics was distributed in 1975 to 2000 by Group Bull in Europe , and in the U.S. by Bull HN Information Systems Inc.,
as successor in interest by change in name only to Honeywell Bull Inc. and Honeywell Information Systems Inc. .

                                          -----------------------------------------------------------

Permission to use, copy, modify, and distribute these programs and their documentation for any purpose and without
fee is hereby granted,provided that the below copyright notice and historical background appear in all copies
and that both the copyright notice and historical background and this permission notice appear in supporting
documentation, and that the names of MIT, HIS, BULL or BULL HN not be used in advertising or publicity pertaining
to distribution of the programs without specific prior written permission.
    Copyright 1972 by Massachusetts Institute of Technology and Honeywell Information Systems Inc.
    Copyright 2006 by BULL HN Information Systems Inc.
    Copyright 2006 by Bull SAS
    All Rights Reserved
