	COMPILATION LISTING OF SEGMENT cobol_set_fsbptr
	Compiled by: Multics PL/I Compiler, Release 31b, of April 24, 1989
	Compiled at: Bull HN, Phoenix AZ, System-M
	Compiled on: 05/24/89  0955.2 mst Wed
	    Options: optimize map

        1 /****^  ***********************************************************
        2*        *                                                         *
        3*        * Copyright, (C) BULL HN Information Systems Inc., 1989   *
        4*        *                                                         *
        5*        * Copyright, (C) Honeywell Information Systems Inc., 1982 *
        6*        *                                                         *
        7*        * Copyright (c) 1972 by Massachusetts Institute of        *
        8*        * Technology and Honeywell Information Systems, Inc.      *
        9*        *                                                         *
       10*        *********************************************************** */
       11
       12
       13
       14
       15 /****^  HISTORY COMMENTS:
       16*  1) change(89-04-23,Zimmerman), approve(89-04-23,MCR8060),
       17*     audit(89-05-05,RWaters), install(89-05-24,MR12.3-1048):
       18*     MCR8060 cobol_set_fsbptr.pl1 Reformatted code to new Cobol standard.
       19*                                                   END HISTORY COMMENTS */
       20
       21
       22 /* Modified on 1/25/77 by Bob Chang to implement profile option.	*/
       23 /* Modified on 11/11/76 by Bob Chang to change mft into file_table.	*/
       24 /* Modified since Version 2.0.	*/
       25 /* format: style3 */
       26 cobol_set_fsbptr:
       27      proc (ft_ptr);
       28
       29 dcl	ft_ptr		ptr;
       30
       31 dcl	1 basic_struct	static,
       32 	  2 type		fixed bin init (1),
       33 	  2 operand_no	fixed bin init (0),
       34 	  2 lock		fixed bin init (0),
       35 	  2 seg		fixed bin,
       36 	  2 offset	fixed bin,
       37 	  2 send_receive	fixed bin init (0);
       38
       39 dcl	instr		(3) bit (36);
       40 dcl	reloc		(6) bit (5) aligned;
       41 dcl	instr_ptr		ptr;
       42 dcl	reloc_ptr		ptr;
       43
       44 /* fixup directive for link, used when profile options is specified.	*/
       45 dcl	1 fixup_directive	aligned static,
       46 	  2 operation	bit (1) unal init ("0"b),
       47 	  2 type		bit (4) unal init ("1111"b),
       48 	  2 reserved	bit (9) unal init ("000000000"b),
       49 	  2 location	unal,
       50 	    3 half	bit (1) unal init ("0"b),
       51 	    3 base	bit (3) unal init ("001"b),
       52 	    3 offset	fixed bin unal,
       53 	  2 tag_number	fixed bin aligned;
       54 dcl	epp1		bit (12) static init ("011101001101"b);
       55 dcl	epp1_indmod	bit (18) static init ("011101001101010000"b);
       56
       57 dcl	utemp		fixed bin;
       58 dcl	i		fixed bin;
       59 dcl	ic		fixed bin;
       60
       61 dcl	cobol_addr	entry (ptr, ptr, ptr);
       62 dcl	cobol_make_fixup	entry (ptr);
       63 dcl	cobol_emit	entry (ptr, ptr, fixed bin);
       64
       65
       66 /*************************************/
       67 start:
       68 	instr_ptr = addr (instr);
       69 	reloc_ptr = addr (reloc);
       70 	do i = 1 to 6;
       71 	     reloc (i) = ""b;
       72 	end;
       73 	ic = 1;
       74 	if file_table.fsb.seg < 0
       75 	then do;					/* external file - link to fsb */
       76 		utemp = -file_table.fsb.seg;
       77 		instr (1) = "100"b || substr (unspec (utemp), 22, 15) || epp1_indmod;
       78 		if file_table.fsb.off ^= 0
       79 		then do;
       80 			instr (2) = "001"b || substr (unspec (file_table.fsb.off), 22, 15) || epp1;
       81 			ic = 2;
       82 		     end;
       83 		reloc (1) = "10100"b;
       84 	     end;
       85 	else do;					/* internal file - fsb in cobol data segment */
       86 		instr (1) = (18)"0"b || epp1_indmod;
       87 		basic_struct.seg = file_table.fsb.seg;
       88 		basic_struct.offset = file_table.fsb.off;
       89 		call cobol_addr (addr (basic_struct), instr_ptr, reloc_ptr);
       90 	     end;
       91 	if fixed_common.options.profile
       92 	then do;
       93 		fixup_directive.location.offset = cobol_$text_wd_off;
       94 		call cobol_make_fixup (addr (fixup_directive));
       95 	     end;
       96 	call cobol_emit (instr_ptr, reloc_ptr, ic);
       97 exit:
       98 	return;
       99
      100
      101 /*************************************/
  1     1
  1     2 /* BEGIN INCLUDE FILE ...   cobol_file_table.incl.pl1 */
  1     3 /*     <<<   INCLUDE FILE FOR FILE TABLE IN COMMON   >>>     */
  1     4
  1     5 /* Modified on 09/30/80 by FCH, [4.4-1], density is 6250 is supported */
  1     6 /* Modified on 12/05/78 by RAL, [3.0-3], added dupl_alt from dummy102 */
  1     7 /* Modified on 11/21/78 by RAL, [3.0-2], added space for abs_record_offset from filler */
  1     8 /* Modified on 10/26/78 by RAL, [3.0-1], added space for file_desc_1 table offset from filler */
  1     9 /*     <<<   LAST MODIFIED ON 06-02-77 by GM         >>>	*/
  1    10 /*     <<<   LAST MODIFIED ON 05-31-77 by GM         >>>	*/
  1    11 /*     <<<   LAST MODIFIED  ON 06-30-76 by GM        >>>	*/
  1    12 /*     <<<   LAST MODIFIED ON 06-07-76 by GM    >>>     */
  1    13 /*     <<<   LAST MODIFIED ON 11-29-74 by orn   >>>     */
  1    14
  1    15 /*
  1    16*A file table is created in variable common for each file selected in the
  1    17*environment division.  The fields of a given file table provide information
  1    18*about the specific file for which the file table is generated.  The
  1    19*addresses which may be contained in the various "info" fields of the file
  1    20*table are addresses in variable common.
  1    21**/
  1    22
  1    23 /*   THE FILE TABLE STRUCTURE   */
  1    24
  1    25 dcl	1 file_table based (ft_ptr),
  1    26 		2 next char (5),
  1    27 		2 ifn char (16),
  1    28 		2 attach_options_info char(5),	/*06/02/77*/
  1    29 		2 replacement_info char(5),		/*06/02/77*/
  1    30 		2 file_id_info char(5),		/*05/31/77*/
  1    31 		2 retention_info char(5),		/*05/31/77*/
  1    32 		2 filler0 char (3) ,			/* [3.0-1] */
  1    33 		2 file_desc_1_offset fixed bin (24),		/* [3.0-1] */
  1    34 		2 abs_record_offset fixed bin (24),		/* [3.-02] */
  1    35 		2 filler char(5),		/* this area is available.*/
  1    36 		2 padding_char char (1),
  1    37 		2 banner_char char (1),
  1    38 		2 file_status_info char (5),
  1    39 		2 extra_status_info char (5),
  1    40 		2 cat_id_info char (5),
  1    41 		2 r_key_info char (5),
  1    42 		2 alt_key_info char (5),
  1    43 		2 rec_do_info char (5),
  1    44 		2 label_info char (5),
  1    45 		2 data_info char (5),
  1    46 		2 report_info char (5),
  1    47 		2 linage_info char (5),
  1    48 		2 optional bit (1),						/*06/07/76*/
  1    49 		2 external bit (1),
  1    50 		2 file_status bit (1),
  1    51 		2 extra_status bit (1),
  1    52 		2 sysin bit (1),
  1    53 		2 sysout bit (1),
  1    54 		2 move_mode bit (1),
  1    55 		2 locate_mode bit (1),
  1    56 		2 fixed_recs bit (1),
  1    57 		2 variable_recs bit (1),
  1    58 		2 spanned_recs bit (1),				/*06/07/76*/
  1    59 		2 interchange bit (1),				/*06/07/76*/
  1    60 		2 relative_key bit (1),
  1    61 		2 record_key bit (1),
  1    62 		2 even_parity bit (1),
  1    63 		2 odd_parity bit (1),
  1    64 		2 padding bit (1),
  1    65 		2 banner bit (1),
  1    66 		2 random bit (1),
  1    67 		2 no_file_lockout bit (1),
  1    68 		2 no_write_check bit (1),
  1    69 		2 no_resident_index bit (1),
  1    70 		2 same_file bit (1),
  1    71 		2 sort_file bit (1),
  1    72 		2 rec_do bit (1),
  1    73 		2 linage bit (1),
  1    74 		2 code_set_clause bit (1),
  1    75 		/* history */
  1    76 		2 close bit (1),
  1    77 		2 delete bit (1),
  1    78 		2 open_in bit (1),
  1    79 		2 open_out bit (1),
  1    80 		2 open_io bit (1),
  1    81 		2 open_ext bit (1),
  1    82 		2 read bit (1),
  1    83 		2 release bit (1),
  1    84 		2 return_bit bit (1),
  1    85 		2 rewrite bit (1),
  1    86 		2 sort bit (1),
  1    87 		2 start bit (1),
  1    88 		2 use_error bit (1),
  1    89 		2 write bit (1),
  1    90 		2 read_next bit (1),
  1    91 		2 read_key bit (1),
  1    92 		2 accept bit (1),
  1    93 		2 display bit (1),
  1    94 		2 unequal_recs bit (1),
  1    95 		2 dummy_sysin bit (1),
  1    96 		2 dummy_sysout bit (1),
  1    97 		2 file_no fixed bin,
  1    98 		2 uca_offset fixed bin(24),
  1    99 		2 cra_seg fixed bin,
  1   100 		2 cra_offset fixed bin(24),
  1   101 		2 max_cra_size fixed bin(24),
  1   102 		2 catalogued fixed bin,
  1   103 		2 organization fixed bin,
  1   104 		2 org_qual fixed bin,
  1   105 		2 access fixed bin,
  1   106 		2 buffers fixed bin,
  1   107 		2 device fixed bin,
  1   108 		2 record_prefix fixed bin,				/*06/07/76*/
  1   109 		2 alternate_keys fixed bin,
  1   110 		2 record_format fixed bin,
  1   111 		2 label_format fixed bin,
  1   112 		2 key_location fixed bin,
  1   113 		2 key_size fixed bin,
  1   114 		2 temporary fixed bin,
  1   115 		2 address_format fixed bin,
  1   116 		2 same_area_clause fixed bin,
  1   117 		2 same_rec_clause fixed bin,
  1   118 		2 same_sort_clause fixed bin,
  1   119 		2 mult_clause_no fixed bin,
  1   120 		2 mult_position_no fixed bin,
  1   121 		2 block_desc fixed bin,
  1   122 		2 block_min fixed bin(24),
  1   123 		2 block_max fixed bin(24),
  1   124 		2 rec_min fixed bin(24),
  1   125 		2 rec_max fixed bin(24),
  1   126 		2 label_count fixed bin,
  1   127 		2 ifn_size fixed bin,
  1   128 		2 data_count fixed bin,
  1   129 		2 report_count fixed bin,
  1   130 		2 code_set fixed bin,
  1   131 		2 error_exit fixed bin,
  1   132 		2 prefix_size fixed bin,
  1   133 		2 blocked bit (1),
  1   134 		2 variable bit (1),
  1   135 		2 unbannered bit (1),
  1   136 		2 prefix_clause bit (1),
  1   137 		2 symbolic bit (1),
  1   138 		2 address_format_bit bit (1),
  1   139 		2 bsn bit(1),						/*06/07/76*/
  1   140 		2 process_area bit(1),					/*06/07/76*/
  1   141 		2 dupl_alt bit (1),			/* [3.0-3] */
  1   142 		2 dummy102 bit (23),
  1   143 		2 name_size fixed bin,
  1   144 		2 name char(32),
  1   145 		2 id char(32),
  1   146 		2 temp bit(1) ,
  1   147 		2 perm bit(1) ,
  1   148 		2 attach bit(1) ,
  1   149 		2 detach bit(1) ,
  1   150 		2 fsb ,		/* file state block */
  1   151 		     3 seg fixed bin(24), /* internal addr */
  1   152 		     3 off fixed bin(24),
  1   153 		2 tape,
  1   154 		     3 density bit(1) ,	/* 0-hi 1-lo */
  1   155 		     3 retain bit(1),	/* 0 not retained across attachment, 1 retained */
  1   156 		     3 force bit(1),	/* 0 check retention date, 1 no check */
  1   157 		     3 protect bit(1) ,	/* 0-no 1-yes */
  1   158 		     3 den_6250 bit(1),	/* 0-no 1-yes */		/*[4.4-1]*/
  1   159 		2 cat_nm char(200),
  1   160 		2 ao_len fixed bin(24),		/* attach options */
  1   161 		2 ao_string char(256),
  1   162 		2 output_mode fixed bin,	/*	0 not specified
  1   163*						1 generation
  1   164*						2 modification
  1   165*						3 replacement literal
  1   166*						4 replacement dataname	*/
  1   167 		2 om_len	fixed bin,		/* length of output mode */
  1   168 		2 om_string char(17),
  1   169 		2 tape_device fixed bin,	/*	0 not specified
  1   170*						1 integer
  1   171*						2 dataname	*/
  1   172 		2 tape_device_num fixed bin,
  1   173 		2 tape_device_key char(5),
  1   174 		2 add_cat_key char(5);
  1   175
  1   176
  1   177 /* END INCLUDE FILE ...   cobol_file_table.incl.pl1 */
  1   178
      102
  2     1
  2     2 /* BEGIN INCLUDE FILE ... cobol_ext_.incl.pl1 */
  2     3 /* Last modified on 06/17/76 by ORN */
  2     4 /* Last modified on 12/28/76 by FCH */
  2     5 /* Last modified on 12/01/80 by FCH */
  2     6
  2     7 /*    <<<   SHARED EXTERNALS INCLUDE FILE   >>>    */
  2     8
  2     9
  2    10 dcl     cobol_ext_$cobol_afp ptr ext;
  2    11 dcl     cobol_afp ptr defined (  cobol_ext_$cobol_afp);
  2    12 dcl     cobol_ext_$cobol_analin_fileno ptr ext;
  2    13 dcl     cobol_analin_fileno ptr defined (  cobol_ext_$cobol_analin_fileno);
  2    14 dcl     cobol_ext_$report_first_token ptr ext;
  2    15 dcl     report_first_token ptr defined( cobol_ext_$report_first_token);
  2    16 dcl     cobol_ext_$report_last_token ptr ext;
  2    17 dcl     report_last_token ptr defined ( cobol_ext_$report_last_token);
  2    18 dcl     cobol_ext_$cobol_eltp ptr ext;
  2    19 dcl     cobol_eltp ptr defined (  cobol_ext_$cobol_eltp);
  2    20 dcl     cobol_ext_$cobol_cmfp ptr ext;
  2    21 dcl     cobol_cmfp ptr defined (  cobol_ext_$cobol_cmfp);
  2    22 dcl     cobol_ext_$cobol_com_fileno ptr ext;
  2    23 dcl     cobol_com_fileno ptr defined (  cobol_ext_$cobol_com_fileno);
  2    24 dcl     cobol_ext_$cobol_com_ptr ptr ext;
  2    25 dcl     cobol_com_ptr ptr defined (  cobol_ext_$cobol_com_ptr);
  2    26 dcl     cobol_ext_$cobol_dfp ptr ext;
  2    27 dcl     cobol_dfp ptr defined (  cobol_ext_$cobol_dfp);
  2    28 dcl     cobol_ext_$cobol_hfp ptr ext;
  2    29 dcl     cobol_hfp ptr defined (  cobol_ext_$cobol_hfp);
  2    30 dcl     cobol_ext_$cobol_m1fp ptr ext;
  2    31 dcl     cobol_m1fp ptr defined (  cobol_ext_$cobol_m1fp);
  2    32 dcl     cobol_ext_$cobol_m2fp ptr ext;
  2    33 dcl     cobol_m2fp ptr defined (  cobol_ext_$cobol_m2fp);
  2    34 dcl     cobol_ext_$cobol_min1_fileno ptr ext;
  2    35 dcl     cobol_min1_fileno ptr defined (  cobol_ext_$cobol_min1_fileno);
  2    36 dcl     cobol_ext_$cobol_min2_fileno_ptr ptr ext;
  2    37 dcl     cobol_min2_fileno_ptr ptr defined (  cobol_ext_$cobol_min2_fileno_ptr);
  2    38 dcl     cobol_ext_$cobol_name_fileno ptr ext;
  2    39 dcl     cobol_name_fileno ptr defined (  cobol_ext_$cobol_name_fileno);
  2    40 dcl     cobol_ext_$cobol_name_fileno_ptr ptr ext;
  2    41 dcl     cobol_name_fileno_ptr ptr defined (  cobol_ext_$cobol_name_fileno_ptr);
  2    42 dcl     cobol_ext_$cobol_ntfp ptr ext;
  2    43 dcl     cobol_ntfp ptr defined (  cobol_ext_$cobol_ntfp);
  2    44 dcl     cobol_ext_$cobol_pdofp ptr ext;
  2    45 dcl     cobol_pdofp ptr defined (  cobol_ext_$cobol_pdofp);
  2    46 dcl     cobol_ext_$cobol_pfp ptr ext;
  2    47 dcl     cobol_pfp ptr defined (  cobol_ext_$cobol_pfp);
  2    48 dcl     cobol_ext_$cobol_rm2fp ptr ext;
  2    49 dcl     cobol_rm2fp ptr defined (  cobol_ext_$cobol_rm2fp);
  2    50 dcl     cobol_ext_$cobol_rmin2fp ptr ext;
  2    51 dcl     cobol_rmin2fp ptr defined (  cobol_ext_$cobol_rmin2fp);
  2    52 dcl     cobol_ext_$cobol_curr_in ptr ext;
  2    53 dcl     cobol_curr_in ptr defined (  cobol_ext_$cobol_curr_in);
  2    54 dcl     cobol_ext_$cobol_curr_out ptr ext;
  2    55 dcl     cobol_curr_out ptr defined (  cobol_ext_$cobol_curr_out);
  2    56 dcl     cobol_ext_$cobol_sfp ptr ext;
  2    57 dcl     cobol_sfp ptr defined (  cobol_ext_$cobol_sfp);
  2    58 dcl     cobol_ext_$cobol_w1p ptr ext;
  2    59 dcl     cobol_w1p ptr defined (  cobol_ext_$cobol_w1p);
  2    60 dcl     cobol_ext_$cobol_w2p ptr ext;
  2    61 dcl     cobol_w2p ptr defined (  cobol_ext_$cobol_w2p);
  2    62 dcl     cobol_ext_$cobol_w3p ptr ext;
  2    63 dcl     cobol_w3p ptr defined (  cobol_ext_$cobol_w3p);
  2    64 dcl     cobol_ext_$cobol_w5p ptr ext;
  2    65 dcl     cobol_w5p ptr defined (  cobol_ext_$cobol_w5p);
  2    66 dcl     cobol_ext_$cobol_w6p ptr ext;
  2    67 dcl     cobol_w6p ptr defined (  cobol_ext_$cobol_w6p);
  2    68 dcl     cobol_ext_$cobol_w7p ptr ext;
  2    69 dcl     cobol_w7p ptr defined (  cobol_ext_$cobol_w7p);
  2    70 dcl     cobol_ext_$cobol_x3fp ptr ext;
  2    71 dcl     cobol_x3fp ptr defined (  cobol_ext_$cobol_x3fp);
  2    72 dcl	cobol_ext_$cobol_rwdd ptr ext;
  2    73 dcl	cobol_rwdd ptr defined(cobol_ext_$cobol_rwdd);
  2    74 dcl	cobol_ext_$cobol_rwpd ptr ext;
  2    75 dcl	cobol_rwpd ptr defined(cobol_ext_$cobol_rwpd);
  2    76
  2    77
  2    78 dcl     cobol_ext_$cobol_fileno1 fixed bin(24)ext;
  2    79 dcl     cobol_fileno1 fixed bin(24)defined (  cobol_ext_$cobol_fileno1);
  2    80 dcl     cobol_ext_$cobol_options_len fixed bin(24)ext;
  2    81 dcl     cobol_options_len fixed bin(24)defined (  cobol_ext_$cobol_options_len);
  2    82 dcl     cobol_ext_$cobol_pdout_fileno fixed bin(24)ext;
  2    83 dcl     cobol_pdout_fileno fixed bin(24)defined (  cobol_ext_$cobol_pdout_fileno);
  2    84 dcl     cobol_ext_$cobol_print_fileno fixed bin(24)ext;
  2    85 dcl     cobol_print_fileno fixed bin(24)defined (  cobol_ext_$cobol_print_fileno);
  2    86 dcl     cobol_ext_$cobol_rmin2_fileno fixed bin(24)ext;
  2    87 dcl     cobol_rmin2_fileno fixed bin(24)defined (  cobol_ext_$cobol_rmin2_fileno);
  2    88 dcl     cobol_ext_$cobol_x1_fileno fixed bin(24)ext;
  2    89 dcl     cobol_x1_fileno fixed bin(24)defined (  cobol_ext_$cobol_x1_fileno);
  2    90 dcl     cobol_ext_$cobol_x2_fileno fixed bin(24)ext;
  2    91 dcl     cobol_x2_fileno fixed bin(24)defined (  cobol_ext_$cobol_x2_fileno);
  2    92 dcl     cobol_ext_$cobol_x3_fileno fixed bin(24)ext;
  2    93 dcl     cobol_x3_fileno fixed bin(24)defined (  cobol_ext_$cobol_x3_fileno);
  2    94
  2    95 dcl     cobol_ext_$cobol_lpr char (5) ext;
  2    96 dcl     cobol_lpr char (5) defined (  cobol_ext_$cobol_lpr);				/* -2- */
  2    97 dcl     cobol_ext_$cobol_options char (120) ext;
  2    98 dcl     cobol_options char (120) defined (  cobol_ext_$cobol_options);          			/* -30- */
  2    99
  2   100 dcl     cobol_ext_$cobol_xlast8 bit (1) ext;
  2   101 dcl     cobol_xlast8 bit (1) defined (  cobol_ext_$cobol_xlast8);				/* -1- */
  2   102 dcl     cobol_ext_$report_exists bit (1) ext;
  2   103 dcl     report_exists bit (1) defined (  cobol_ext_$report_exists);
  2   104
  2   105
  2   106 /*    <<<   END OF SHARED EXTERNALS INCLUDE FILE   >>>    */
  2   107 /* END INCLUDE FILE ... cobol_ext_.incl.pl1 */
  2   108
      103
  3     1
  3     2 /* BEGIN INCLUDE FILE ...   cobol_fixed_common.incl.pl1 */
  3     3 /* Modified on 10/27/82 by FCH, [5.1-1], cobol_cln added to save last line num, BUG543(phx13643) */
  3     4 /* Modified on 07/31/80 by FCH, [4.3-1], use_reporting field added for Report Writer */
  3     5 /* Modified on 03/30/79 by FCH, [4.1-1], -card option added */
  3     6 /* Modified on 03/30/79 by FCH, [4.0-2], -svNM option added */
  3     7 /* Modified on 03/02/79 by FCH, [4.0-1], -levNM option added */
  3     8 /* Modified by RAL on 10/13/78, [4.0-0], Added option exp from fil2. */
  3     9 /* Modified by BC on 06/20/77, descriptor added.	*/
  3    10 /* Modified by BC on 06/02/77, init_cd_seg, init_cd_offset added.	*/
  3    11 /* Modified by BC  on 1/21/77, options.profile added.	*/
  3    12 /* Modified by FCH on 7/6/76, sysin_fno & sysout_fno deleted, accept_device & display_device added */
  3    13 /* Modified by FCH on 5/20/77, comp_level added */
  3    14
  3    15
  3    16 /*     THE SIZE OF THIS STRUCTURE IN BYTES, (EXCLUDING VARIABLE
  3    17*   LENGTH ENTITIES), FOR EACH HARDWARE IMPLEMENTATION IS:
  3    18*
  3    19*   HARDWARE	|	SIZE (BYTES)
  3    20*   ---------------------------------
  3    21*   645/6180	|	464
  3    22*   P7		|	396
  3    23*   ---------------------------------
  3    24*   */
  3    25
  3    26 dcl 	1 fixed_common based (  cobol_com_ptr),
  3    27     		2 prog_name char (30),
  3    28    		2 compiler_rev_no char (25),
  3    29     		2 phase_name char (6),
  3    30     		2 currency char (1),
  3    31     		2 fatal_no fixed bin,
  3    32     		2 warn_no fixed bin,
  3    33     		2 proc_counter fixed bin,
  3    34     		2 spec_tag_counter fixed bin,
  3    35     		2 file_count fixed bin,
  3    36     		2 filedescr_offsets (20) char (5),
  3    37     		2 perf_alter_info char (5),
  3    38     		2 another_perform_info char (5),
  3    39     		2 sort_in_info char (5),
  3    40     		2 odo_info char (5),
  3    41     		2 size_seg fixed bin,
  3    42     		2 size_offset fixed bin(24),
  3    43     		2 size_perform_info char (5),
  3    44     		2 rename_info char (5),
  3    45     		2 report_names char (5),
  3    46     		2 rw_buf_seg fixed bin,
  3    47     		2 rw_buf_offset fixed bin(24),
  3    48     		2 rw_buf_length fixed bin(24),
  3    49     		2 file_keys char (5),
  3    50     		2 search_keys char (5),
  3    51     		2 dd_seg_size fixed bin(24),
  3    52     		2 pd_seg_size fixed bin(24),
  3    53     		2 seg_limit fixed bin ,
  3    54     		2 number_of_dd_segs fixed bin,
  3    55     		2 seg_info char (5),
  3    56     		2 number_of_ls_pointers fixed bin,
  3    57     		2 link_sec_seg fixed bin,
  3    58     		2 link_sec_offset fixed bin(24),
  3    59     		2 sra_clauses fixed bin,
  3    60     		2 fix_up_info char (5),
  3    61     		2 linage_info char (5),
  3    62     		2 first_dd_item char (5),
  3    63     		2 sort_out_info char (5),
  3    64     		2 db_info char (5),
  3    65     		2 realm_info char (5),
  3    66     		2 rc_realm_info char (5),
  3    67     		2 last_file_key char (5),
  3    68     		2 prog_coll_seq fixed bin,
  3    69 		2 init_cd_seg fixed bin,
  3    70 		2 init_cd_offset fixed bin(24),
  3    71     		2 input_error_exit fixed bin,
  3    72    		2 output_error_exit fixed bin,
  3    73     		2 i_o_error_exit fixed bin,
  3    74     		2 extend_error_exit fixed bin,
  3    75     		2 dummy15 fixed bin,
  3    76     		2 options,
  3    77       			3 cu bit (1),
  3    78       			3 st bit (1),
  3    79       			3 wn bit (1),
  3    80       			3 obs bit (1),
  3    81       			3 dm bit (1),
  3    82       			3 xrl bit (1),
  3    83       			3 xrn bit (1),
  3    84       			3 src bit (1),
  3    85       			3 obj bit (1),
  3    86       			3 exs bit (1),
  3    87       			3 sck bit (1),
  3    88       			3 rno bit (1),
  3    89 			3 u_l bit (1),
  3    90 			3 cnv bit (1),
  3    91 			3 cos bit (1),
  3    92 			3 fmt bit (1),
  3    93 			3 profile bit(1),
  3    94 			3 nw bit (1),
  3    95 			3 exp bit (1),		/* [4.0-0] */
  3    96 			3 card bit (1),  /*[4.1-1]*/
  3    97 			3 fil2 bit (5),
  3    98 			3 m_map bit (1),
  3    99 			3 m_bf bit (1),
  3   100 			3 m_fat bit (1),
  3   101 			3 m_wn bit (1),
  3   102 			3 m_obs bit(1),
  3   103 			3 pd bit(1),
  3   104       			3 oc bit(1),
  3   105     		2 supervisor bit (1),
  3   106     		2 dec_comma bit (1),
  3   107     		2 init_cd bit (1),
  3   108     		2 corr bit (1),
  3   109     		2 initl bit (1),
  3   110     		2 debug bit (1),
  3   111     		2 report bit (1),
  3   112     		2 sync_in_prog bit (1),
  3   113     		2 pd_section bit (1),
  3   114     		2 list_switch bit (1),
  3   115     		2 alpha_cond bit (1),
  3   116     		2 num_cond bit (1),
  3   117     		2 spec_sysin bit (1),
  3   118     		2 spec_sysout bit (1),
  3   119     		2 cpl_files bit (1),
  3   120     		2 obj_dec_comma bit (1),
  3   121 		2 default_sign_type bit (3),
  3   122 		2 use_debug bit(1),
  3   123 		2 syntax_trace bit(1),
  3   124 		2 comp_defaults,
  3   125 			3 comp	bit(1),
  3   126 			3 comp_1	bit(1),
  3   127 			3 comp_2	bit(1),
  3   128 			3 comp_3	bit(1),
  3   129 			3 comp_4	bit(1),
  3   130 			3 comp_5	bit(1),
  3   131 			3 comp_6	bit(1),
  3   132 			3 comp_7	bit(1),
  3   133 			3 comp_8 bit(1),
  3   134 		2 disp_defaults,
  3   135 			3 disp	bit(1),
  3   136 			3 disp_1	bit(1),
  3   137 			3 disp_2	bit(1),
  3   138 			3 disp_3	bit(1),
  3   139 			3 disp_4	bit(1),
  3   140 			3 disp_5  bit(1),
  3   141 			3 disp_6  bit(1),
  3   142 			3 disp_7  bit(1),
  3   143 		2 descriptor bit(2),
  3   144 		2 levsv  bit(3),		/*[4.0-1]*/
  3   145 		2 use_reporting bit(1),	/*[4.3-1]*/
  3   146 		2 cd bit(1),		/*[4.4-1]*/
  3   147 		2 dummy17 bit(3),
  3   148    		2 lvl_rstr bit(32),
  3   149    		2 inst_rstr bit(32),
  3   150 		2 comp_level char(1),
  3   151 		2 dummy18 char(30),
  3   152 		2 object_sign char (1),
  3   153     		2 last_print_rec char (5),
  3   154     		2 coll_seq_info char (5),
  3   155     		2 sys_status_seg fixed bin,
  3   156    		2 sys_status_offset fixed bin(24),
  3   157    		2 compiler_id fixed bin,
  3   158    		2 date_comp_ln fixed bin,
  3   159    		2 compile_mode bit(36),
  3   160    		2 default_temp fixed bin,
  3   161    		2 accept_device fixed bin,
  3   162    		2 display_device fixed bin,
  3   163    		2 cobol_cln fixed bin,	/*[5.1-1]*/
  3   164 		2 alphabet_offset fixed bin;
  3   165
  3   166
  3   167
  3   168 /* END INCLUDE FILE ...   cobol_fixed_common.incl.pl1 */
  3   169
      104
  4     1
  4     2 /* BEGIN INCLUDE FILE ... cobol_.incl.pl1 */
  4     3 /* last modified Feb 4, 1977 by ORN  */
  4     4
  4     5 /* This file defines all external data used in the generator phase of Multics Cobol */
  4     6
  4     7 /* POINTERS */
  4     8 dcl cobol_$text_base_ptr ptr  ext;
  4     9 dcl text_base_ptr ptr  defined (cobol_$text_base_ptr);
  4    10 dcl cobol_$con_end_ptr ptr  ext;
  4    11 dcl con_end_ptr ptr  defined (cobol_$con_end_ptr);
  4    12 dcl cobol_$def_base_ptr ptr  ext;
  4    13 dcl def_base_ptr ptr  defined (cobol_$def_base_ptr);
  4    14 dcl cobol_$link_base_ptr ptr  ext;
  4    15 dcl link_base_ptr ptr  defined (cobol_$link_base_ptr);
  4    16 dcl cobol_$sym_base_ptr ptr  ext;
  4    17 dcl sym_base_ptr ptr  defined (cobol_$sym_base_ptr);
  4    18 dcl cobol_$reloc_text_base_ptr ptr  ext;
  4    19 dcl reloc_text_base_ptr ptr  defined (cobol_$reloc_text_base_ptr);
  4    20 dcl cobol_$reloc_def_base_ptr ptr  ext;
  4    21 dcl reloc_def_base_ptr ptr  defined (cobol_$reloc_def_base_ptr);
  4    22 dcl cobol_$reloc_link_base_ptr ptr  ext;
  4    23 dcl reloc_link_base_ptr ptr  defined (cobol_$reloc_link_base_ptr);
  4    24 dcl cobol_$reloc_sym_base_ptr ptr  ext;
  4    25 dcl reloc_sym_base_ptr ptr  defined (cobol_$reloc_sym_base_ptr);
  4    26 dcl cobol_$reloc_work_base_ptr ptr  ext;
  4    27 dcl reloc_work_base_ptr ptr  defined (cobol_$reloc_work_base_ptr);
  4    28 dcl cobol_$pd_map_ptr ptr  ext;
  4    29 dcl pd_map_ptr ptr  defined (cobol_$pd_map_ptr);
  4    30 dcl cobol_$fixup_ptr ptr  ext;
  4    31 dcl fixup_ptr ptr  defined (cobol_$fixup_ptr);
  4    32 dcl cobol_$initval_base_ptr ptr  ext;
  4    33 dcl initval_base_ptr ptr  defined (cobol_$initval_base_ptr);
  4    34 dcl cobol_$initval_file_ptr ptr  ext;
  4    35 dcl initval_file_ptr ptr  defined (cobol_$initval_file_ptr);
  4    36 dcl cobol_$perform_list_ptr ptr  ext;
  4    37 dcl perform_list_ptr ptr  defined (cobol_$perform_list_ptr);
  4    38 dcl cobol_$alter_list_ptr ptr  ext;
  4    39 dcl alter_list_ptr ptr  defined (cobol_$alter_list_ptr);
  4    40 dcl cobol_$seg_init_list_ptr ptr  ext;
  4    41 dcl seg_init_list_ptr ptr  defined (cobol_$seg_init_list_ptr);
  4    42 dcl cobol_$temp_token_area_ptr ptr  ext;
  4    43 dcl temp_token_area_ptr ptr  defined (cobol_$temp_token_area_ptr);
  4    44 dcl cobol_$temp_token_ptr ptr  ext;
  4    45 dcl temp_token_ptr ptr  defined (cobol_$temp_token_ptr);
  4    46 dcl cobol_$token_block1_ptr ptr  ext;
  4    47 dcl token_block1_ptr ptr  defined (cobol_$token_block1_ptr);
  4    48 dcl cobol_$token_block2_ptr ptr  ext;
  4    49 dcl token_block2_ptr ptr  defined (cobol_$token_block2_ptr);
  4    50 dcl cobol_$minpral5_ptr ptr  ext;
  4    51 dcl minpral5_ptr ptr  defined (cobol_$minpral5_ptr);
  4    52 dcl cobol_$tag_table_ptr ptr  ext;
  4    53 dcl tag_table_ptr ptr  defined (cobol_$tag_table_ptr);
  4    54 dcl cobol_$map_data_ptr ptr  ext;
  4    55 dcl map_data_ptr ptr  defined (cobol_$map_data_ptr);
  4    56 dcl cobol_$ptr_status_ptr ptr  ext;
  4    57 dcl ptr_status_ptr ptr  defined (cobol_$ptr_status_ptr);
  4    58 dcl cobol_$reg_status_ptr ptr  ext;
  4    59 dcl reg_status_ptr ptr  defined (cobol_$reg_status_ptr);
  4    60 dcl cobol_$misc_base_ptr ptr ext;
  4    61 dcl misc_base_ptr ptr defined (cobol_$misc_base_ptr);
  4    62 dcl cobol_$misc_end_ptr ptr ext;
  4    63 dcl misc_end_ptr ptr defined (cobol_$misc_end_ptr);
  4    64 dcl cobol_$list_ptr ptr ext;
  4    65 dcl list_ptr ptr defined (cobol_$list_ptr);
  4    66 dcl cobol_$allo1_ptr ptr ext;
  4    67 dcl allo1_ptr ptr defined (cobol_$allo1_ptr);
  4    68 dcl cobol_$eln_ptr ptr ext;
  4    69 dcl eln_ptr ptr defined (cobol_$eln_ptr);
  4    70 dcl cobol_$diag_ptr ptr ext;
  4    71 dcl diag_ptr ptr defined (cobol_$diag_ptr);
  4    72 dcl cobol_$xref_token_ptr ptr ext;
  4    73 dcl xref_token_ptr ptr defined (cobol_$xref_token_ptr);
  4    74 dcl cobol_$xref_chain_ptr ptr ext;
  4    75 dcl xref_chain_ptr ptr defined (cobol_$xref_chain_ptr);
  4    76 dcl cobol_$statement_info_ptr ptr ext;
  4    77 dcl statement_info_ptr ptr defined (cobol_$statement_info_ptr);
  4    78 dcl cobol_$reswd_ptr ptr ext;
  4    79 dcl reswd_ptr ptr defined (cobol_$reswd_ptr);
  4    80 dcl cobol_$op_con_ptr ptr ext;
  4    81 dcl op_con_ptr ptr defined (cobol_$op_con_ptr);
  4    82 dcl cobol_$ntbuf_ptr ptr ext;
  4    83 dcl ntbuf_ptr ptr defined (cobol_$ntbuf_ptr);
  4    84 dcl cobol_$main_pcs_ptr ptr ext;
  4    85 dcl main_pcs_ptr ptr defined (cobol_$main_pcs_ptr);
  4    86 dcl cobol_$include_info_ptr ptr ext;
  4    87 dcl include_info_ptr ptr defined (cobol_$include_info_ptr);
  4    88
  4    89 /* FIXED BIN */
  4    90 dcl cobol_$text_wd_off fixed bin  ext;
  4    91 dcl text_wd_off fixed bin  defined (cobol_$text_wd_off);
  4    92 dcl cobol_$con_wd_off fixed bin  ext;
  4    93 dcl con_wd_off fixed bin  defined (cobol_$con_wd_off);
  4    94 dcl cobol_$def_wd_off fixed bin  ext;
  4    95 dcl def_wd_off fixed bin  defined (cobol_$def_wd_off);
  4    96 dcl cobol_$def_max fixed bin  ext;
  4    97 dcl def_max fixed bin  defined (cobol_$def_max);
  4    98 dcl cobol_$link_wd_off fixed bin  ext;
  4    99 dcl link_wd_off fixed bin  defined (cobol_$link_wd_off);
  4   100 dcl cobol_$link_max fixed bin  ext;
  4   101 dcl link_max fixed bin  defined (cobol_$link_max);
  4   102 dcl cobol_$sym_wd_off fixed bin  ext;
  4   103 dcl sym_wd_off fixed bin  defined (cobol_$sym_wd_off);
  4   104 dcl cobol_$sym_max fixed bin  ext;
  4   105 dcl sym_max fixed bin  defined (cobol_$sym_max);
  4   106 dcl cobol_$reloc_text_max fixed bin(24)  ext;
  4   107 dcl reloc_text_max fixed bin(24)  defined (cobol_$reloc_text_max);
  4   108 dcl cobol_$reloc_def_max fixed bin(24)  ext;
  4   109 dcl reloc_def_max fixed bin(24)  defined (cobol_$reloc_def_max);
  4   110 dcl cobol_$reloc_link_max fixed bin(24)  ext;
  4   111 dcl reloc_link_max fixed bin(24)  defined (cobol_$reloc_link_max);
  4   112 dcl cobol_$reloc_sym_max fixed bin(24)  ext;
  4   113 dcl reloc_sym_max fixed bin(24)  defined (cobol_$reloc_sym_max);
  4   114 dcl cobol_$reloc_work_max fixed bin(24)  ext;
  4   115 dcl reloc_work_max fixed bin(24)  defined (cobol_$reloc_work_max);
  4   116 dcl cobol_$pd_map_index fixed bin  ext;
  4   117 dcl pd_map_index fixed bin  defined (cobol_$pd_map_index);
  4   118 dcl cobol_$cobol_data_wd_off fixed bin  ext;
  4   119 dcl cobol_data_wd_off fixed bin  defined (cobol_$cobol_data_wd_off);
  4   120 dcl cobol_$stack_off fixed bin  ext;
  4   121 dcl stack_off fixed bin  defined (cobol_$stack_off);
  4   122 dcl cobol_$max_stack_off fixed bin  ext;
  4   123 dcl max_stack_off fixed bin  defined (cobol_$max_stack_off);
  4   124 dcl cobol_$init_stack_off fixed bin  ext;
  4   125 dcl init_stack_off fixed bin  defined (cobol_$init_stack_off);
  4   126 dcl cobol_$pd_map_sw fixed bin  ext;
  4   127 dcl pd_map_sw fixed bin  defined (cobol_$pd_map_sw);
  4   128 dcl cobol_$next_tag fixed bin  ext;
  4   129 dcl next_tag fixed bin  defined (cobol_$next_tag);
  4   130 dcl cobol_$data_init_flag fixed bin  ext;
  4   131 dcl data_init_flag fixed bin  defined (cobol_$data_init_flag);
  4   132 dcl cobol_$seg_init_flag fixed bin  ext;
  4   133 dcl seg_init_flag fixed bin  defined (cobol_$seg_init_flag);
  4   134 dcl cobol_$alter_flag fixed bin  ext;
  4   135 dcl alter_flag fixed bin  defined (cobol_$alter_flag);
  4   136 dcl cobol_$sect_eop_flag fixed bin  ext;
  4   137 dcl sect_eop_flag fixed bin  defined (cobol_$sect_eop_flag);
  4   138 dcl cobol_$para_eop_flag fixed bin  ext;
  4   139 dcl para_eop_flag fixed bin  defined (cobol_$para_eop_flag);
  4   140 dcl cobol_$priority_no fixed bin  ext;
  4   141 dcl priority_no fixed bin  defined (cobol_$priority_no);
  4   142 dcl cobol_$compile_count fixed bin ext;
  4   143 dcl compile_count fixed bin defined (cobol_$compile_count);
  4   144 dcl cobol_$ptr_assumption_ind fixed bin ext;
  4   145 dcl ptr_assumption_ind fixed bin defined (cobol_$ptr_assumption_ind);
  4   146 dcl cobol_$reg_assumption_ind fixed bin ext;
  4   147 dcl reg_assumption_ind fixed bin defined (cobol_$reg_assumption_ind);
  4   148 dcl cobol_$perform_para_index fixed bin ext;
  4   149 dcl perform_para_index fixed bin defined (cobol_$perform_para_index);
  4   150 dcl cobol_$perform_sect_index fixed bin ext;
  4   151 dcl perform_sect_index fixed bin defined (cobol_$perform_sect_index);
  4   152 dcl cobol_$alter_index fixed bin ext;
  4   153 dcl alter_index fixed bin defined (cobol_$alter_index);
  4   154 dcl cobol_$list_off fixed bin ext;
  4   155 dcl list_off fixed bin defined (cobol_$list_off);
  4   156 dcl cobol_$constant_offset fixed bin ext;
  4   157 dcl constant_offset fixed bin defined (cobol_$constant_offset);
  4   158 dcl cobol_$misc_max fixed bin ext;
  4   159 dcl misc_max fixed bin defined (cobol_$misc_max);
  4   160 dcl cobol_$pd_map_max fixed bin ext;
  4   161 dcl pd_map_max fixed bin defined (cobol_$pd_map_max);
  4   162 dcl cobol_$map_data_max fixed bin ext;
  4   163 dcl map_data_max fixed bin defined (cobol_$map_data_max);
  4   164 dcl cobol_$fixup_max fixed bin ext;
  4   165 dcl fixup_max fixed bin defined (cobol_$fixup_max);
  4   166 dcl cobol_$tag_table_max fixed bin ext;
  4   167 dcl tag_table_max fixed bin defined (cobol_$tag_table_max);
  4   168 dcl cobol_$temp_token_max fixed bin ext;
  4   169 dcl temp_token_max fixed bin defined (cobol_$temp_token_max);
  4   170 dcl cobol_$allo1_max fixed bin ext;
  4   171 dcl allo1_max fixed bin defined (cobol_$allo1_max);
  4   172 dcl cobol_$eln_max fixed bin ext;
  4   173 dcl eln_max fixed bin defined (cobol_$eln_max);
  4   174 dcl cobol_$debug_enable fixed bin ext;
  4   175 dcl debug_enable fixed bin defined (cobol_$debug_enable);
  4   176 dcl cobol_$non_source_offset fixed bin ext;
  4   177 dcl non_source_offset fixed bin defined (cobol_$non_source_offset);
  4   178 dcl cobol_$initval_flag fixed bin ext;
  4   179 dcl initval_flag fixed bin defined (cobol_$initval_flag);
  4   180 dcl cobol_$date_compiled_sw fixed bin ext;
  4   181 dcl date_compiled_sw fixed bin defined (cobol_$date_compiled_sw);
  4   182 dcl cobol_$include_cnt fixed bin ext;
  4   183 dcl include_cnt fixed bin defined (cobol_$include_cnt);
  4   184 dcl cobol_$fs_charcnt fixed bin ext;
  4   185 dcl fs_charcnt fixed bin defined (cobol_$fs_charcnt);
  4   186 dcl cobol_$ws_charcnt fixed bin ext;
  4   187 dcl ws_charcnt fixed bin defined (cobol_$ws_charcnt);
  4   188 dcl cobol_$coms_charcnt fixed bin ext;
  4   189 dcl coms_charcnt fixed bin defined (cobol_$coms_charcnt);
  4   190 dcl cobol_$ls_charcnt fixed bin ext;
  4   191 dcl ls_charcnt fixed bin defined (cobol_$ls_charcnt);
  4   192 dcl cobol_$cons_charcnt fixed bin ext;
  4   193 dcl cons_charcnt fixed bin defined (cobol_$cons_charcnt);
  4   194 dcl cobol_$value_cnt fixed bin ext;
  4   195 dcl value_cnt fixed bin defined (cobol_$value_cnt);
  4   196 dcl cobol_$cd_cnt fixed bin ext;
  4   197 dcl cd_cnt fixed bin defined (cobol_$cd_cnt);
  4   198 dcl cobol_$fs_wdoff fixed bin ext;
  4   199 dcl fs_wdoff fixed bin defined (cobol_$fs_wdoff);
  4   200 dcl cobol_$ws_wdoff fixed bin ext;
  4   201 dcl ws_wdoff fixed bin defined (cobol_$ws_wdoff);
  4   202 dcl cobol_$coms_wdoff fixed bin ext;
  4   203 dcl coms_wdoff fixed bin defined (cobol_$coms_wdoff);
  4   204
  4   205 /* CHARACTER */
  4   206 dcl cobol_$scratch_dir char (168)   aligned ext;
  4   207 dcl scratch_dir char (168)   aligned defined (cobol_$scratch_dir);			/* -42- */
  4   208 dcl cobol_$obj_seg_name char (32)   aligned ext;
  4   209 dcl obj_seg_name char (32)   aligned defined (cobol_$obj_seg_name);		/* -8- */
  4   210
  4   211 /* BIT */
  4   212 dcl cobol_$xref_bypass bit(1) aligned ext;
  4   213 dcl xref_bypass bit(1) aligned defined (cobol_$xref_bypass);			/* -1- */
  4   214 dcl cobol_$same_sort_merge_proc bit(1) aligned ext;
  4   215 dcl same_sort_merge_proc bit(1) aligned defined (cobol_$same_sort_merge_proc);		/* -1- */
  4   216
  4   217
  4   218 /* END INCLUDE FILE ... cobol_incl.pl1*/
  4   219
  4   220
      105
      106      end cobol_set_fsbptr;
	SOURCE FILES USED IN THIS COMPILATION.

LINE      NUMBER  DATE MODIFIED     NAME			PATHNAME
             0    05/24/89  0832.6  cobol_set_fsbptr.pl1              >spec>install>MR12.3-1048>cobol_set_fsbptr.pl1
102          1    11/11/82  1712.7  cobol_file_table.incl.pl1         >ldd>include>cobol_file_table.incl.pl1
103          2    03/27/82  0431.3  cobol_ext_.incl.pl1               >ldd>include>cobol_ext_.incl.pl1
104          3    11/11/82  1712.8  cobol_fixed_common.incl.pl1       >ldd>include>cobol_fixed_common.incl.pl1
105          4    11/11/82  1712.7  cobol_.incl.pl1                   >ldd>include>cobol_.incl.pl1
	NAMES DECLARED IN THIS COMPILATION.

IDENTIFIER	     OFFSET    LOC STORAGE CLASS   DATA TYPE		ATTRIBUTES AND REFERENCES
								(* indicates a set context)

NAMES DECLARED BY DECLARE STATEMENT.
basic_struct                    000010 internal static structure                level 1 unaligned dcl 31 set ref 89 89
cobol_$text_wd_off              000030 external static fixed bin(17,0)          dcl 4-90 ref 93
cobol_addr                      000020 constant        entry                    external dcl 61 ref 89
cobol_com_ptr                          defined         pointer                  dcl 2-25 ref 91
cobol_emit                      000024 constant        entry                    external dcl 63 ref 96
cobol_ext_$cobol_com_ptr        000026 external static pointer                  dcl 2-24 ref 91 91
cobol_make_fixup                000022 constant        entry                    external dcl 62 ref 94
epp1                                   constant        bit(12)                  initial packed unaligned dcl 54 ref 80
epp1_indmod                            constant        bit(18)                  initial packed unaligned dcl 55 ref 77 86
file_table                             based           structure                level 1 unaligned dcl 1-25
fixed_common                           based           structure                level 1 unaligned dcl 3-26
fixup_directive                 000016 internal static structure                level 1 dcl 45 set ref 94 94
fsb                     124            based           structure                level 2 unaligned dcl 1-25
ft_ptr                                 parameter       pointer                  dcl 29 ref 26 74 76 78 80 87 88
i                               000117 automatic       fixed bin(17,0)          dcl 58 set ref 70* 71*
ic                              000120 automatic       fixed bin(17,0)          dcl 59 set ref 73* 81* 96*
instr                           000100 automatic       bit(36)                  array packed unaligned dcl 39 set ref 67 77* 80* 86*
instr_ptr                       000112 automatic       pointer                  dcl 41 set ref 67* 89* 96*
location                  0(14) 000016 internal static structure                level 2 packed packed unaligned dcl 45
off                     125            based           fixed bin(24,0)          level 3 dcl 1-25 ref 78 80 88
offset                    0(18) 000016 internal static fixed bin(17,0)          level 3 in structure "fixup_directive" packed packed
                                                                                  unaligned dcl 45 in procedure "cobol_set_fsbptr"
                                                                                  set ref 93*
offset                    4     000010 internal static fixed bin(17,0)          level 2 in structure "basic_struct" dcl 31
                                                                                  in procedure "cobol_set_fsbptr" set ref 88*
options                 133            based           structure                level 2 packed packed unaligned dcl 3-26
profile                 133(16)        based           bit(1)                   level 3 packed packed unaligned dcl 3-26 ref 91
reloc                           000103 automatic       bit(5)                   array dcl 40 set ref 69 71* 83*
reloc_ptr                       000114 automatic       pointer                  dcl 42 set ref 69* 89* 96*
seg                     124            based           fixed bin(24,0)          level 3 in structure "file_table" dcl 1-25
                                                                                  in procedure "cobol_set_fsbptr" ref 74 76 87
seg                       3     000010 internal static fixed bin(17,0)          level 2 in structure "basic_struct" dcl 31
                                                                                  in procedure "cobol_set_fsbptr" set ref 87*
utemp                           000116 automatic       fixed bin(17,0)          dcl 57 set ref 76* 77

NAMES DECLARED BY DECLARE STATEMENT AND NEVER REFERENCED.
allo1_max                              defined         fixed bin(17,0)          dcl 4-171
allo1_ptr                              defined         pointer                  dcl 4-67
alter_flag                             defined         fixed bin(17,0)          dcl 4-135
alter_index                            defined         fixed bin(17,0)          dcl 4-153
alter_list_ptr                         defined         pointer                  dcl 4-39
cd_cnt                                 defined         fixed bin(17,0)          dcl 4-197
cobol_$allo1_max                       external static fixed bin(17,0)          dcl 4-170
cobol_$allo1_ptr                       external static pointer                  dcl 4-66
cobol_$alter_flag                      external static fixed bin(17,0)          dcl 4-134
cobol_$alter_index                     external static fixed bin(17,0)          dcl 4-152
cobol_$alter_list_ptr                  external static pointer                  dcl 4-38
cobol_$cd_cnt                          external static fixed bin(17,0)          dcl 4-196
cobol_$cobol_data_wd_off               external static fixed bin(17,0)          dcl 4-118
cobol_$compile_count                   external static fixed bin(17,0)          dcl 4-142
cobol_$coms_charcnt                    external static fixed bin(17,0)          dcl 4-188
cobol_$coms_wdoff                      external static fixed bin(17,0)          dcl 4-202
cobol_$con_end_ptr                     external static pointer                  dcl 4-10
cobol_$con_wd_off                      external static fixed bin(17,0)          dcl 4-92
cobol_$cons_charcnt                    external static fixed bin(17,0)          dcl 4-192
cobol_$constant_offset                 external static fixed bin(17,0)          dcl 4-156
cobol_$data_init_flag                  external static fixed bin(17,0)          dcl 4-130
cobol_$date_compiled_sw                external static fixed bin(17,0)          dcl 4-180
cobol_$debug_enable                    external static fixed bin(17,0)          dcl 4-174
cobol_$def_base_ptr                    external static pointer                  dcl 4-12
cobol_$def_max                         external static fixed bin(17,0)          dcl 4-96
cobol_$def_wd_off                      external static fixed bin(17,0)          dcl 4-94
cobol_$diag_ptr                        external static pointer                  dcl 4-70
cobol_$eln_max                         external static fixed bin(17,0)          dcl 4-172
cobol_$eln_ptr                         external static pointer                  dcl 4-68
cobol_$fixup_max                       external static fixed bin(17,0)          dcl 4-164
cobol_$fixup_ptr                       external static pointer                  dcl 4-30
cobol_$fs_charcnt                      external static fixed bin(17,0)          dcl 4-184
cobol_$fs_wdoff                        external static fixed bin(17,0)          dcl 4-198
cobol_$include_cnt                     external static fixed bin(17,0)          dcl 4-182
cobol_$include_info_ptr                external static pointer                  dcl 4-86
cobol_$init_stack_off                  external static fixed bin(17,0)          dcl 4-124
cobol_$initval_base_ptr                external static pointer                  dcl 4-32
cobol_$initval_file_ptr                external static pointer                  dcl 4-34
cobol_$initval_flag                    external static fixed bin(17,0)          dcl 4-178
cobol_$link_base_ptr                   external static pointer                  dcl 4-14
cobol_$link_max                        external static fixed bin(17,0)          dcl 4-100
cobol_$link_wd_off                     external static fixed bin(17,0)          dcl 4-98
cobol_$list_off                        external static fixed bin(17,0)          dcl 4-154
cobol_$list_ptr                        external static pointer                  dcl 4-64
cobol_$ls_charcnt                      external static fixed bin(17,0)          dcl 4-190
cobol_$main_pcs_ptr                    external static pointer                  dcl 4-84
cobol_$map_data_max                    external static fixed bin(17,0)          dcl 4-162
cobol_$map_data_ptr                    external static pointer                  dcl 4-54
cobol_$max_stack_off                   external static fixed bin(17,0)          dcl 4-122
cobol_$minpral5_ptr                    external static pointer                  dcl 4-50
cobol_$misc_base_ptr                   external static pointer                  dcl 4-60
cobol_$misc_end_ptr                    external static pointer                  dcl 4-62
cobol_$misc_max                        external static fixed bin(17,0)          dcl 4-158
cobol_$next_tag                        external static fixed bin(17,0)          dcl 4-128
cobol_$non_source_offset               external static fixed bin(17,0)          dcl 4-176
cobol_$ntbuf_ptr                       external static pointer                  dcl 4-82
cobol_$obj_seg_name                    external static char(32)                 dcl 4-208
cobol_$op_con_ptr                      external static pointer                  dcl 4-80
cobol_$para_eop_flag                   external static fixed bin(17,0)          dcl 4-138
cobol_$pd_map_index                    external static fixed bin(17,0)          dcl 4-116
cobol_$pd_map_max                      external static fixed bin(17,0)          dcl 4-160
cobol_$pd_map_ptr                      external static pointer                  dcl 4-28
cobol_$pd_map_sw                       external static fixed bin(17,0)          dcl 4-126
cobol_$perform_list_ptr                external static pointer                  dcl 4-36
cobol_$perform_para_index              external static fixed bin(17,0)          dcl 4-148
cobol_$perform_sect_index              external static fixed bin(17,0)          dcl 4-150
cobol_$priority_no                     external static fixed bin(17,0)          dcl 4-140
cobol_$ptr_assumption_ind              external static fixed bin(17,0)          dcl 4-144
cobol_$ptr_status_ptr                  external static pointer                  dcl 4-56
cobol_$reg_assumption_ind              external static fixed bin(17,0)          dcl 4-146
cobol_$reg_status_ptr                  external static pointer                  dcl 4-58
cobol_$reloc_def_base_ptr              external static pointer                  dcl 4-20
cobol_$reloc_def_max                   external static fixed bin(24,0)          dcl 4-108
cobol_$reloc_link_base_ptr             external static pointer                  dcl 4-22
cobol_$reloc_link_max                  external static fixed bin(24,0)          dcl 4-110
cobol_$reloc_sym_base_ptr              external static pointer                  dcl 4-24
cobol_$reloc_sym_max                   external static fixed bin(24,0)          dcl 4-112
cobol_$reloc_text_base_ptr             external static pointer                  dcl 4-18
cobol_$reloc_text_max                  external static fixed bin(24,0)          dcl 4-106
cobol_$reloc_work_base_ptr             external static pointer                  dcl 4-26
cobol_$reloc_work_max                  external static fixed bin(24,0)          dcl 4-114
cobol_$reswd_ptr                       external static pointer                  dcl 4-78
cobol_$same_sort_merge_proc            external static bit(1)                   dcl 4-214
cobol_$scratch_dir                     external static char(168)                dcl 4-206
cobol_$sect_eop_flag                   external static fixed bin(17,0)          dcl 4-136
cobol_$seg_init_flag                   external static fixed bin(17,0)          dcl 4-132
cobol_$seg_init_list_ptr               external static pointer                  dcl 4-40
cobol_$stack_off                       external static fixed bin(17,0)          dcl 4-120
cobol_$statement_info_ptr              external static pointer                  dcl 4-76
cobol_$sym_base_ptr                    external static pointer                  dcl 4-16
cobol_$sym_max                         external static fixed bin(17,0)          dcl 4-104
cobol_$sym_wd_off                      external static fixed bin(17,0)          dcl 4-102
cobol_$tag_table_max                   external static fixed bin(17,0)          dcl 4-166
cobol_$tag_table_ptr                   external static pointer                  dcl 4-52
cobol_$temp_token_area_ptr             external static pointer                  dcl 4-42
cobol_$temp_token_max                  external static fixed bin(17,0)          dcl 4-168
cobol_$temp_token_ptr                  external static pointer                  dcl 4-44
cobol_$text_base_ptr                   external static pointer                  dcl 4-8
cobol_$token_block1_ptr                external static pointer                  dcl 4-46
cobol_$token_block2_ptr                external static pointer                  dcl 4-48
cobol_$value_cnt                       external static fixed bin(17,0)          dcl 4-194
cobol_$ws_charcnt                      external static fixed bin(17,0)          dcl 4-186
cobol_$ws_wdoff                        external static fixed bin(17,0)          dcl 4-200
cobol_$xref_bypass                     external static bit(1)                   dcl 4-212
cobol_$xref_chain_ptr                  external static pointer                  dcl 4-74
cobol_$xref_token_ptr                  external static pointer                  dcl 4-72
cobol_afp                              defined         pointer                  dcl 2-11
cobol_analin_fileno                    defined         pointer                  dcl 2-13
cobol_cmfp                             defined         pointer                  dcl 2-21
cobol_com_fileno                       defined         pointer                  dcl 2-23
cobol_curr_in                          defined         pointer                  dcl 2-53
cobol_curr_out                         defined         pointer                  dcl 2-55
cobol_data_wd_off                      defined         fixed bin(17,0)          dcl 4-119
cobol_dfp                              defined         pointer                  dcl 2-27
cobol_eltp                             defined         pointer                  dcl 2-19
cobol_ext_$cobol_afp                   external static pointer                  dcl 2-10
cobol_ext_$cobol_analin_fileno         external static pointer                  dcl 2-12
cobol_ext_$cobol_cmfp                  external static pointer                  dcl 2-20
cobol_ext_$cobol_com_fileno            external static pointer                  dcl 2-22
cobol_ext_$cobol_curr_in               external static pointer                  dcl 2-52
cobol_ext_$cobol_curr_out              external static pointer                  dcl 2-54
cobol_ext_$cobol_dfp                   external static pointer                  dcl 2-26
cobol_ext_$cobol_eltp                  external static pointer                  dcl 2-18
cobol_ext_$cobol_fileno1               external static fixed bin(24,0)          dcl 2-78
cobol_ext_$cobol_hfp                   external static pointer                  dcl 2-28
cobol_ext_$cobol_lpr                   external static char(5)                  packed unaligned dcl 2-95
cobol_ext_$cobol_m1fp                  external static pointer                  dcl 2-30
cobol_ext_$cobol_m2fp                  external static pointer                  dcl 2-32
cobol_ext_$cobol_min1_fileno           external static pointer                  dcl 2-34
cobol_ext_$cobol_min2_fileno_ptr       external static pointer                  dcl 2-36
cobol_ext_$cobol_name_fileno           external static pointer                  dcl 2-38
cobol_ext_$cobol_name_fileno_ptr       external static pointer                  dcl 2-40
cobol_ext_$cobol_ntfp                  external static pointer                  dcl 2-42
cobol_ext_$cobol_options               external static char(120)                packed unaligned dcl 2-97
cobol_ext_$cobol_options_len           external static fixed bin(24,0)          dcl 2-80
cobol_ext_$cobol_pdofp                 external static pointer                  dcl 2-44
cobol_ext_$cobol_pdout_fileno          external static fixed bin(24,0)          dcl 2-82
cobol_ext_$cobol_pfp                   external static pointer                  dcl 2-46
cobol_ext_$cobol_print_fileno          external static fixed bin(24,0)          dcl 2-84
cobol_ext_$cobol_rm2fp                 external static pointer                  dcl 2-48
cobol_ext_$cobol_rmin2_fileno          external static fixed bin(24,0)          dcl 2-86
cobol_ext_$cobol_rmin2fp               external static pointer                  dcl 2-50
cobol_ext_$cobol_rwdd                  external static pointer                  dcl 2-72
cobol_ext_$cobol_rwpd                  external static pointer                  dcl 2-74
cobol_ext_$cobol_sfp                   external static pointer                  dcl 2-56
cobol_ext_$cobol_w1p                   external static pointer                  dcl 2-58
cobol_ext_$cobol_w2p                   external static pointer                  dcl 2-60
cobol_ext_$cobol_w3p                   external static pointer                  dcl 2-62
cobol_ext_$cobol_w5p                   external static pointer                  dcl 2-64
cobol_ext_$cobol_w6p                   external static pointer                  dcl 2-66
cobol_ext_$cobol_w7p                   external static pointer                  dcl 2-68
cobol_ext_$cobol_x1_fileno             external static fixed bin(24,0)          dcl 2-88
cobol_ext_$cobol_x2_fileno             external static fixed bin(24,0)          dcl 2-90
cobol_ext_$cobol_x3_fileno             external static fixed bin(24,0)          dcl 2-92
cobol_ext_$cobol_x3fp                  external static pointer                  dcl 2-70
cobol_ext_$cobol_xlast8                external static bit(1)                   packed unaligned dcl 2-100
cobol_ext_$report_exists               external static bit(1)                   packed unaligned dcl 2-102
cobol_ext_$report_first_token          external static pointer                  dcl 2-14
cobol_ext_$report_last_token           external static pointer                  dcl 2-16
cobol_fileno1                          defined         fixed bin(24,0)          dcl 2-79
cobol_hfp                              defined         pointer                  dcl 2-29
cobol_lpr                              defined         char(5)                  packed unaligned dcl 2-96
cobol_m1fp                             defined         pointer                  dcl 2-31
cobol_m2fp                             defined         pointer                  dcl 2-33
cobol_min1_fileno                      defined         pointer                  dcl 2-35
cobol_min2_fileno_ptr                  defined         pointer                  dcl 2-37
cobol_name_fileno                      defined         pointer                  dcl 2-39
cobol_name_fileno_ptr                  defined         pointer                  dcl 2-41
cobol_ntfp                             defined         pointer                  dcl 2-43
cobol_options                          defined         char(120)                packed unaligned dcl 2-98
cobol_options_len                      defined         fixed bin(24,0)          dcl 2-81
cobol_pdofp                            defined         pointer                  dcl 2-45
cobol_pdout_fileno                     defined         fixed bin(24,0)          dcl 2-83
cobol_pfp                              defined         pointer                  dcl 2-47
cobol_print_fileno                     defined         fixed bin(24,0)          dcl 2-85
cobol_rm2fp                            defined         pointer                  dcl 2-49
cobol_rmin2_fileno                     defined         fixed bin(24,0)          dcl 2-87
cobol_rmin2fp                          defined         pointer                  dcl 2-51
cobol_rwdd                             defined         pointer                  dcl 2-73
cobol_rwpd                             defined         pointer                  dcl 2-75
cobol_sfp                              defined         pointer                  dcl 2-57
cobol_w1p                              defined         pointer                  dcl 2-59
cobol_w2p                              defined         pointer                  dcl 2-61
cobol_w3p                              defined         pointer                  dcl 2-63
cobol_w5p                              defined         pointer                  dcl 2-65
cobol_w6p                              defined         pointer                  dcl 2-67
cobol_w7p                              defined         pointer                  dcl 2-69
cobol_x1_fileno                        defined         fixed bin(24,0)          dcl 2-89
cobol_x2_fileno                        defined         fixed bin(24,0)          dcl 2-91
cobol_x3_fileno                        defined         fixed bin(24,0)          dcl 2-93
cobol_x3fp                             defined         pointer                  dcl 2-71
cobol_xlast8                           defined         bit(1)                   packed unaligned dcl 2-101
compile_count                          defined         fixed bin(17,0)          dcl 4-143
coms_charcnt                           defined         fixed bin(17,0)          dcl 4-189
coms_wdoff                             defined         fixed bin(17,0)          dcl 4-203
con_end_ptr                            defined         pointer                  dcl 4-11
con_wd_off                             defined         fixed bin(17,0)          dcl 4-93
cons_charcnt                           defined         fixed bin(17,0)          dcl 4-193
constant_offset                        defined         fixed bin(17,0)          dcl 4-157
data_init_flag                         defined         fixed bin(17,0)          dcl 4-131
date_compiled_sw                       defined         fixed bin(17,0)          dcl 4-181
debug_enable                           defined         fixed bin(17,0)          dcl 4-175
def_base_ptr                           defined         pointer                  dcl 4-13
def_max                                defined         fixed bin(17,0)          dcl 4-97
def_wd_off                             defined         fixed bin(17,0)          dcl 4-95
diag_ptr                               defined         pointer                  dcl 4-71
eln_max                                defined         fixed bin(17,0)          dcl 4-173
eln_ptr                                defined         pointer                  dcl 4-69
fixup_max                              defined         fixed bin(17,0)          dcl 4-165
fixup_ptr                              defined         pointer                  dcl 4-31
fs_charcnt                             defined         fixed bin(17,0)          dcl 4-185
fs_wdoff                               defined         fixed bin(17,0)          dcl 4-199
include_cnt                            defined         fixed bin(17,0)          dcl 4-183
include_info_ptr                       defined         pointer                  dcl 4-87
init_stack_off                         defined         fixed bin(17,0)          dcl 4-125
initval_base_ptr                       defined         pointer                  dcl 4-33
initval_file_ptr                       defined         pointer                  dcl 4-35
initval_flag                           defined         fixed bin(17,0)          dcl 4-179
link_base_ptr                          defined         pointer                  dcl 4-15
link_max                               defined         fixed bin(17,0)          dcl 4-101
link_wd_off                            defined         fixed bin(17,0)          dcl 4-99
list_off                               defined         fixed bin(17,0)          dcl 4-155
list_ptr                               defined         pointer                  dcl 4-65
ls_charcnt                             defined         fixed bin(17,0)          dcl 4-191
main_pcs_ptr                           defined         pointer                  dcl 4-85
map_data_max                           defined         fixed bin(17,0)          dcl 4-163
map_data_ptr                           defined         pointer                  dcl 4-55
max_stack_off                          defined         fixed bin(17,0)          dcl 4-123
minpral5_ptr                           defined         pointer                  dcl 4-51
misc_base_ptr                          defined         pointer                  dcl 4-61
misc_end_ptr                           defined         pointer                  dcl 4-63
misc_max                               defined         fixed bin(17,0)          dcl 4-159
next_tag                               defined         fixed bin(17,0)          dcl 4-129
non_source_offset                      defined         fixed bin(17,0)          dcl 4-177
ntbuf_ptr                              defined         pointer                  dcl 4-83
obj_seg_name                           defined         char(32)                 dcl 4-209
op_con_ptr                             defined         pointer                  dcl 4-81
para_eop_flag                          defined         fixed bin(17,0)          dcl 4-139
pd_map_index                           defined         fixed bin(17,0)          dcl 4-117
pd_map_max                             defined         fixed bin(17,0)          dcl 4-161
pd_map_ptr                             defined         pointer                  dcl 4-29
pd_map_sw                              defined         fixed bin(17,0)          dcl 4-127
perform_list_ptr                       defined         pointer                  dcl 4-37
perform_para_index                     defined         fixed bin(17,0)          dcl 4-149
perform_sect_index                     defined         fixed bin(17,0)          dcl 4-151
priority_no                            defined         fixed bin(17,0)          dcl 4-141
ptr_assumption_ind                     defined         fixed bin(17,0)          dcl 4-145
ptr_status_ptr                         defined         pointer                  dcl 4-57
reg_assumption_ind                     defined         fixed bin(17,0)          dcl 4-147
reg_status_ptr                         defined         pointer                  dcl 4-59
reloc_def_base_ptr                     defined         pointer                  dcl 4-21
reloc_def_max                          defined         fixed bin(24,0)          dcl 4-109
reloc_link_base_ptr                    defined         pointer                  dcl 4-23
reloc_link_max                         defined         fixed bin(24,0)          dcl 4-111
reloc_sym_base_ptr                     defined         pointer                  dcl 4-25
reloc_sym_max                          defined         fixed bin(24,0)          dcl 4-113
reloc_text_base_ptr                    defined         pointer                  dcl 4-19
reloc_text_max                         defined         fixed bin(24,0)          dcl 4-107
reloc_work_base_ptr                    defined         pointer                  dcl 4-27
reloc_work_max                         defined         fixed bin(24,0)          dcl 4-115
report_exists                          defined         bit(1)                   packed unaligned dcl 2-103
report_first_token                     defined         pointer                  dcl 2-15
report_last_token                      defined         pointer                  dcl 2-17
reswd_ptr                              defined         pointer                  dcl 4-79
same_sort_merge_proc                   defined         bit(1)                   dcl 4-215
scratch_dir                            defined         char(168)                dcl 4-207
sect_eop_flag                          defined         fixed bin(17,0)          dcl 4-137
seg_init_flag                          defined         fixed bin(17,0)          dcl 4-133
seg_init_list_ptr                      defined         pointer                  dcl 4-41
stack_off                              defined         fixed bin(17,0)          dcl 4-121
statement_info_ptr                     defined         pointer                  dcl 4-77
sym_base_ptr                           defined         pointer                  dcl 4-17
sym_max                                defined         fixed bin(17,0)          dcl 4-105
sym_wd_off                             defined         fixed bin(17,0)          dcl 4-103
tag_table_max                          defined         fixed bin(17,0)          dcl 4-167
tag_table_ptr                          defined         pointer                  dcl 4-53
temp_token_area_ptr                    defined         pointer                  dcl 4-43
temp_token_max                         defined         fixed bin(17,0)          dcl 4-169
temp_token_ptr                         defined         pointer                  dcl 4-45
text_base_ptr                          defined         pointer                  dcl 4-9
text_wd_off                            defined         fixed bin(17,0)          dcl 4-91
token_block1_ptr                       defined         pointer                  dcl 4-47
token_block2_ptr                       defined         pointer                  dcl 4-49
value_cnt                              defined         fixed bin(17,0)          dcl 4-195
ws_charcnt                             defined         fixed bin(17,0)          dcl 4-187
ws_wdoff                               defined         fixed bin(17,0)          dcl 4-201
xref_bypass                            defined         bit(1)                   dcl 4-213
xref_chain_ptr                         defined         pointer                  dcl 4-75
xref_token_ptr                         defined         pointer                  dcl 4-73

NAMES DECLARED BY EXPLICIT CONTEXT.
cobol_set_fsbptr                000004 constant        entry                    external dcl 26
exit                            000143 constant        label                    dcl 97
start                           000011 constant        label                    dcl 67

NAMES DECLARED BY CONTEXT OR IMPLICATION.
addr                                                   builtin function         ref 67 69 89 89 94 94
substr                                                 builtin function         ref 77 80
unspec                                                 builtin function         ref 77 80

STORAGE REQUIREMENTS FOR THIS PROGRAM.

	Object	Text	Link	Symbol	Defs	Static
Start          0       0       240         272     144         250
Length       532     144        32         223      74          10

BLOCK NAME	         STACK SIZE     TYPE		WHY NONQUICK/WHO SHARES STACK FRAME
cobol_set_fsbptr                     92 external procedure  is an external procedure.

STORAGE FOR INTERNAL STATIC VARIABLES.

   LOC IDENTIFIER                  BLOCK NAME
000010 basic_struct                cobol_set_fsbptr
000016 fixup_directive             cobol_set_fsbptr

STORAGE FOR AUTOMATIC VARIABLES.

STACK FRAME                 LOC IDENTIFIER                  BLOCK NAME
cobol_set_fsbptr         000100 instr                       cobol_set_fsbptr
                         000103 reloc                       cobol_set_fsbptr
                         000112 instr_ptr                   cobol_set_fsbptr
                         000114 reloc_ptr                   cobol_set_fsbptr
                         000116 utemp                       cobol_set_fsbptr
                         000117 i                           cobol_set_fsbptr
                         000120 ic                          cobol_set_fsbptr

THE FOLLOWING EXTERNAL OPERATORS ARE USED BY THIS PROGRAM.
call_ext_out        return_mac          ext_entry

THE FOLLOWING EXTERNAL ENTRIES ARE CALLED BY THIS PROGRAM.
cobol_addr                    cobol_emit                    cobol_make_fixup

THE FOLLOWING EXTERNAL VARIABLES ARE USED BY THIS PROGRAM.
cobol_$text_wd_off            cobol_ext_$cobol_com_ptr


   LINE    LOC      LINE    LOC      LINE    LOC      LINE    LOC      LINE    LOC      LINE    LOC      LINE    LOC
     26 000001        67 000011        69 000013        70 000015        71 000023        72 000024        73 000026
     74 000030        76 000035        77 000037        78 000047        80 000051        81 000061        83 000063
     84 000065        86 000066        87 000070        88 000072        89 000074        91 000110        93 000116
     94 000120        96 000130        97 000143


                                          -----------------------------------------------------------


Historical Background

This edition of the Multics software materials and documentation is provided and donated
to Massachusetts Institute of Technology by Group BULL including BULL HN Information Systems Inc.
as a contribution to computer science knowledge.
This donation is made also to give evidence of the common contributions of Massachusetts Institute of Technology,
Bell Laboratories, General Electric, Honeywell Information Systems Inc., Honeywell BULL Inc., Groupe BULL
and BULL HN Information Systems Inc. to the development of this operating system.
Multics development was initiated by Massachusetts Institute of Technology Project MAC (1963-1970),
renamed the MIT Laboratory for Computer Science and Artificial Intelligence in the mid 1970s, under the leadership
of Professor Fernando Jose Corbato. Users consider that Multics provided the best software architecture
for managing computer hardware properly and for executing programs. Many subsequent operating systems
incorporated Multics principles.
Multics was distributed in 1975 to 2000 by Group Bull in Europe , and in the U.S. by Bull HN Information Systems Inc.,
as successor in interest by change in name only to Honeywell Bull Inc. and Honeywell Information Systems Inc. .

                                          -----------------------------------------------------------

Permission to use, copy, modify, and distribute these programs and their documentation for any purpose and without
fee is hereby granted,provided that the below copyright notice and historical background appear in all copies
and that both the copyright notice and historical background and this permission notice appear in supporting
documentation, and that the names of MIT, HIS, BULL or BULL HN not be used in advertising or publicity pertaining
to distribution of the programs without specific prior written permission.
    Copyright 1972 by Massachusetts Institute of Technology and Honeywell Information Systems Inc.
    Copyright 2006 by BULL HN Information Systems Inc.
    Copyright 2006 by Bull SAS
    All Rights Reserved
