ASSEMBLY LISTING OF SEGMENT >spec>on>11/11/82>cobol_error_table_.alm
ASSEMBLED ON:	11/11/82  1044.7 mst Thu
OPTIONS USED:	list
ASSEMBLED BY:	ALM Version  6.4  April 1981
ASSEMBLER CREATED:	11/03/82  1423.6 mst Wed

                                     1  " ***********************************************************
                                     2  " *                                                         *
                                     3  " * Copyright, (C) Honeywell Information Systems Inc., 1982 *
                                     4  " *                                                         *
                                     5  " * Copyright (c) 1972 by Massachusetts Institute of        *
                                     6  " * Technology and Honeywell Information Systems, Inc.      *
                                     7  " *                                                         *
                                     8  " ***********************************************************
                                     9
    000000                          10  	name	cobol_error_table_
    000000                          11  cobol_error_table_:
                        000000      12  	segdef	cobol_error_table_
    000000  aa   000000 000076      13  	oct	000000000076
    000001  aa   000375 000016      14  	oct	000375000016
    000002  aa   000413 000060      15  	oct	000413000060
    000003  aa   000473 000051      16  	oct	000473000051
    000004  aa   000544 000052      17  	oct	000544000052
    000005  aa   000616 000040      18  	oct	000616000040
    000006  aa   000656 000051      19  	oct	000656000051
    000007  aa   000727 000030      20  	oct	000727000030
    000010  aa   000757 000052      21  	oct	000757000052
    000011  aa   001031 000063      22  	oct	001031000063
    000012  aa   001114 000066      23  	oct	001114000066
    000013  aa   001202 000070      24  	oct	001202000070
    000014  aa   001272 000054      25  	oct	001272000054
    000015  aa   001346 000033      26  	oct	001346000033
    000016  aa   001401 000072      27  	oct	001401000072
    000017  aa   001473 000023      28  	oct	001473000023
    000020  aa   001516 000076      29  	oct	001516000076
    000021  aa   001614 000060      30  	oct	001614000060
    000022  aa   001674 000024      31  	oct	001674000024
    000023  aa   001720 000067      32  	oct	001720000067
    000024  aa   002007 000075      33  	oct	002007000075
    000025  aa   002104 000026      34  	oct	002104000026
    000026  aa   002132 000076      35  	oct	002132000076
    000027  aa   002230 000115      36  	oct	002230000115
    000030  aa   002345 000052      37  	oct	002345000052
    000031  aa   002417 000025      38  	oct	002417000025
    000032  aa   002444 000034      39  	oct	002444000034
    000033  aa   002500 000027      40  	oct	002500000027
    000034  aa   002527 000114      41  	oct	002527000114
    000035  aa   002643 000035      42  	oct	002643000035
    000036  aa   002700 000027      43  	oct	002700000027
    000037  aa   002727 000030      44  	oct	002727000030
    000040  aa   002757 000036      45  	oct	002757000036
    000041  aa   003015 000115      46  	oct	003015000115
    000042  aa   003132 000111      47  	oct	003132000111
    000043  aa   003243 000123      48  	oct	003243000123
    000044  aa   003366 000100      49  	oct	003366000100
    000045  aa   003466 000034      50  	oct	003466000034
    000046  aa   003522 000060      51  	oct	003522000060
    000047  aa   003602 000101      52  	oct	003602000101
    000050  aa   003703 000070      53  	oct	003703000070
    000051  aa   003773 000123      54  	oct	003773000123
    000052  aa   004116 000105      55  	oct	004116000105
    000053  aa   004223 000106      56  	oct	004223000106
    000054  aa   004331 000054      57  	oct	004331000054
    000055  aa   004405 000063      58  	oct	004405000063
    000056  aa   004470 000076      59  	oct	004470000076
    000057  aa   004566 000071      60  	oct	004566000071
    000060  aa   004657 000047      61  	oct	004657000047
    000061  aa   004726 000062      62  	oct	004726000062
    000062  aa   005010 000020      63  	oct	005010000020
    000063  aa   005030 000073      64  	oct	005030000073
    000064  aa   005123 000045      65  	oct	005123000045
    000065  aa   005170 000044      66  	oct	005170000044
    000066  aa   005234 000051      67  	oct	005234000051
    000067  aa   005305 000050      68  	oct	005305000050
    000070  aa   005355 000050      69  	oct	005355000050
    000071  aa   005425 000031      70  	oct	005425000031
    000072  aa   005456 000020      71  	oct	005456000020
    000073  aa   005476 000072      72  	oct	005476000072
    000074  aa   005570 000102      73  	oct	005570000102
    000075  aa   005672 000070      74  	oct	005672000070
    000076  aa   005762 000062      75  	oct	005762000062
    000077  aa   117142 163157      76  	oct	117142163157
    000100  aa   154145 164145      77  	oct	154145164145
    000101  aa   040145 162162      78  	oct	040145162162
    000102  aa   157162 101164      79  	oct	157162101164
    000103  aa   164145 155160      80  	oct	164145155160
    000104  aa   164040 164157      81  	oct	164040164157
    000105  aa   040145 170145      82  	oct	040145170145
    000106  aa   143165 164145      83  	oct	143165164145
    000107  aa   040142 145171      84  	oct	040142145171
    000110  aa   157156 144040      85  	oct	157156144040
    000111  aa   154157 147151      86  	oct	154157147151
    000112  aa   143141 154040      87  	oct	143141154040
    000113  aa   145156 144040      88  	oct	145156144040
    000114  aa   157146 040160      89  	oct	157146040160
    000115  aa   162157 147162      90  	oct	162157147162
    000116  aa   141155 125156      91  	oct	141155125156
    000117  aa   141142 154145      92  	oct	141142154145
    000120  aa   040164 157040      93  	oct	040164157040
    000121  aa   143157 155160      94  	oct	143157155160
    000122  aa   154145 164145      95  	oct	154145164145
    000123  aa   040144 151163      96  	oct	040144151163
    000124  aa   160154 141171      97  	oct	160154141171
    000125  aa   040164 157040      98  	oct	040164157040
    000126  aa   165163 145162      99  	oct	165163145162
    000127  aa   137157 165164     100  	oct	137157165164
    000130  aa   160165 164125     101  	oct	160165164125
    000131  aa   156141 142154     102  	oct	156141142154
    000132  aa   145040 164157     103  	oct	145040164157
    000133  aa   040143 157155     104  	oct	040143157155
    000134  aa   160154 145164     105  	oct	160154145164
    000135  aa   145040 144151     106  	oct	145040144151
    000136  aa   163160 154141     107  	oct	163160154141
    000137  aa   171040 164157     108  	oct	171040164157
    000140  aa   040145 162162     109  	oct	040145162162
    000141  aa   157162 137157     110  	oct	157162137157
    000142  aa   165164 160165     111  	oct	165164160165
    000143  aa   164111 155160     112  	oct	164111155160
    000144  aa   162157 160145     113  	oct	162157160145
    000145  aa   162154 171040     114  	oct	162154171040
    000146  aa   145170 145143     115  	oct	145170145143
    000147  aa   165164 145144     116  	oct	165164145144
    000150  aa   040104 105103     117  	oct	040104105103
    000151  aa   114101 122101     118  	oct	114101122101
    000152  aa   124111 126105     119  	oct	124111126105
    000153  aa   123125 156141     120  	oct	123125156141
    000154  aa   142154 145040     121  	oct	142154145040
    000155  aa   164157 040143     122  	oct	164157040143
    000156  aa   157155 160154     123  	oct	157155160154
    000157  aa   145164 145040     124  	oct	145164145040
    000160  aa   141143 143145     125  	oct	141143143145
    000161  aa   160164 040146     126  	oct	160164040146
    000162  aa   162157 155040     127  	oct	162157155040
    000163  aa   165163 145162     128  	oct	165163145162
    000164  aa   137151 156160     129  	oct	137151156160
    000165  aa   165164 125156     130  	oct	165164125156
    000166  aa   141142 154145     131  	oct	141142154145
    000167  aa   040164 157040     132  	oct	040164157040
    000170  aa   145163 164141     133  	oct	145163164141
    000171  aa   142154 151163     134  	oct	142154151163
    000172  aa   150040 111117     135  	oct	150040111117
    000173  aa   103102 101164     136  	oct	103102101164
    000174  aa   164145 155160     137  	oct	164145155160
    000175  aa   164040 164157     138  	oct	164040164157
    000176  aa   040157 160145     139  	oct	040157160145
    000177  aa   156040 145170     140  	oct	156040145170
    000200  aa   164145 162156     141  	oct	164145162156
    000201  aa   141154 040146     142  	oct	141154040146
    000202  aa   151154 145040     143  	oct	151154145040
    000203  aa   141154 162145     144  	oct	141154162145
    000204  aa   141144 171040     145  	oct	141144171040
    000205  aa   157160 145156     146  	oct	157160145156
    000206  aa   101164 164145     147  	oct	101164164145
    000207  aa   155160 164040     148  	oct	155160164040
    000210  aa   164157 040157     149  	oct	164157040157
    000211  aa   160145 156040     150  	oct	160145156040
    000212  aa   151156 164145     151  	oct	151156164145
    000213  aa   162156 141154     152  	oct	162156141154
    000214  aa   040146 151154     153  	oct	040146151154
    000215  aa   145040 167150     154  	oct	145040167150
    000216  aa   151143 150040     155  	oct	151143150040
    000217  aa   151163 040141     156  	oct	151163040141
    000220  aa   154162 145141     157  	oct	154162145141
    000221  aa   144171 040157     158  	oct	144171040157
    000222  aa   160145 156116     159  	oct	160145156116
    000223  aa   157040 160162     160  	oct	157040160162
    000224  aa   145166 151157     161  	oct	145166151157
    000225  aa   165163 040141     162  	oct	165163040141
    000226  aa   164164 141143     163  	oct	164164141143
    000227  aa   150155 145156     164  	oct	150155145156
    000230  aa   164040 145163     165  	oct	164040145163
    000231  aa   164141 142154     166  	oct	164141142154
    000232  aa   151163 150145     167  	oct	151163150145
    000233  aa   144040 146157     168  	oct	144040146157
    000234  aa   162040 165156     169  	oct	162040165156
    000235  aa   141164 164141     170  	oct	141164164141
    000236  aa   143150 145144     171  	oct	143150145144
    000237  aa   040146 151154     172  	oct	040146151154
    000240  aa   145125 156141     173  	oct	145125156141
    000241  aa   142154 145040     174  	oct	142154145040
    000242  aa   164157 040143     175  	oct	164157040143
    000243  aa   154157 163145     176  	oct	154157163145
    000244  aa   040146 151154     177  	oct	040146151154
    000245  aa   145040 151156     178  	oct	145040151156
    000246  aa   040157 162144     179  	oct	040157162144
    000247  aa   145162 040164     180  	oct	145162040164
    000250  aa   157040 162145     181  	oct	157040162145
    000251  aa   141164 164141     182  	oct	141164164141
    000252  aa   143150 040164     183  	oct	143150040164
    000253  aa   150145 040111     184  	oct	150145040111
    000254  aa   057117 040163     185  	oct	057117040163
    000255  aa   167151 164143     186  	oct	167151164143
    000256  aa   150125 156141     187  	oct	150125156141
    000257  aa   142154 145040     188  	oct	142154145040
    000260  aa   164157 040144     189  	oct	164157040144
    000261  aa   145164 141143     190  	oct	145164141143
    000262  aa   150040 111057     191  	oct	150040111057
    000263  aa   117040 163167     192  	oct	117040163167
    000264  aa   151164 143150     193  	oct	151164143150
    000265  aa   040146 157162     194  	oct	040146157162
    000266  aa   040162 145141     195  	oct	040162145141
    000267  aa   164164 141143     196  	oct	164164141143
    000270  aa   150155 145156     197  	oct	150155145156
    000271  aa   164125 156141     198  	oct	164125156141
    000272  aa   142154 145040     199  	oct	142154145040
    000273  aa   164157 040141     200  	oct	164157040141
    000274  aa   164164 141143     201  	oct	164164141143
    000275  aa   150040 111057     202  	oct	150040111057
    000276  aa   117040 163167     203  	oct	117040163167
    000277  aa   151164 143150     204  	oct	151164143150
    000300  aa   125156 141142     205  	oct	125156141142
    000301  aa   154145 040164     206  	oct	154145040164
    000302  aa   157040 141164     207  	oct	157040141164
    000303  aa   164141 143150     208  	oct	164141143150
    000304  aa   040111 057117     209  	oct	040111057117
    000305  aa   040163 167151     210  	oct	040163167151
    000306  aa   164143 150040     211  	oct	164143150040
    000307  aa   165163 151156     212  	oct	165163151156
    000310  aa   147040 163160     213  	oct	147040163160
    000311  aa   145143 151146     214  	oct	145143151146
    000312  aa   151145 144040     215  	oct	151145144040
    000313  aa   141164 164141     216  	oct	141164164141
    000314  aa   143150 040157     217  	oct	143150040157
    000315  aa   160164 151157     218  	oct	160164151157
    000316  aa   156163 125156     219  	oct	156163125156
    000317  aa   141142 154145     220  	oct	141142154145
    000320  aa   040164 157040     221  	oct	040164157040
    000321  aa   157160 145156     222  	oct	157160145156
    000322  aa   040146 151154     223  	oct	040146151154
    000323  aa   145125 156141     224  	oct	145125156141
    000324  aa   142154 145040     225  	oct	142154145040
    000325  aa   164157 040160     226  	oct	164157040160
    000326  aa   157163 151164     227  	oct	157163151164
    000327  aa   151157 156040     228  	oct	151157156040
    000330  aa   144171 156141     229  	oct	144171156141
    000331  aa   155151 143040     230  	oct	155151143040
    000332  aa   141143 143145     231  	oct	141143143145
    000333  aa   163163 040157     232  	oct	163163040157
    000334  aa   165164 160165     233  	oct	165164160165
    000335  aa   164040 146151     234  	oct	164040146151
    000336  aa   154145 040164     235  	oct	154145040164
    000337  aa   157040 105117     236  	oct	157040105117
    000340  aa   106040 165160     237  	oct	106040165160
    000341  aa   157156 040157     238  	oct	157156040157
    000342  aa   160145 156101     239  	oct	160145156101
    000343  aa   164164 145155     240  	oct	164164145155
    000344  aa   160164 040164     241  	oct	160164040164
    000345  aa   157040 143154     242  	oct	157040143154
    000346  aa   157163 145040     243  	oct	157163145040
    000347  aa   151156 164145     244  	oct	151156164145
    000350  aa   162156 141154     245  	oct	162156141154
    000351  aa   040146 151154     246  	oct	040146151154
    000352  aa   145040 167150     247  	oct	145040167150
    000353  aa   151143 150040     248  	oct	151143150040
    000354  aa   151163 040156     249  	oct	151163040156
    000355  aa   157164 040157     250  	oct	157164040157
    000356  aa   160145 156125     251  	oct	160145156125
    000357  aa   156141 142154     252  	oct	156141142154
    000360  aa   145040 164157     253  	oct	145040164157
    000361  aa   040143 154157     254  	oct	040143154157
    000362  aa   163145 040146     255  	oct	163145040146
    000363  aa   151154 145125     256  	oct	151154145125
    000364  aa   156141 142154     257  	oct	156141142154
    000365  aa   145040 164157     258  	oct	145040164157
    000366  aa   040144 145164     259  	oct	040144145164
    000367  aa   141143 150040     260  	oct	141143150040
    000370  aa   111057 117040     261  	oct	111057117040
    000371  aa   163167 151164     262  	oct	163167151164
    000372  aa   143150 040141     263  	oct	143150040141
    000373  aa   146164 145162     264  	oct	146164145162
    000374  aa   040143 154157     265  	oct	040143154157
    000375  aa   163151 156147     266  	oct	163151156147
    000376  aa   040151 156164     267  	oct	040151156164
    000377  aa   145162 156141     268  	oct	145162156141
    000400  aa   154040 146151     269  	oct	154040146151
    000401  aa   154145 101164     270  	oct	154145101164
    000402  aa   164145 155160     271  	oct	164145155160
    000403  aa   164040 164157     272  	oct	164040164157
    000404  aa   040145 170145     273  	oct	040145170145
    000405  aa   143165 164145     274  	oct	143165164145
    000406  aa   040141 156040     275  	oct	040141156040
    000407  aa   165156 151156     276  	oct	165156151156
    000410  aa   151164 151141     277  	oct	151164151141
    000411  aa   154151 172145     278  	oct	154151172145
    000412  aa   144040 141154     279  	oct	144040141154
    000413  aa   164145 162141     280  	oct	164145162141
    000414  aa   142154 145040     281  	oct	142154145040
    000415  aa   107117 040124     282  	oct	107117040124
    000416  aa   117040 163164     283  	oct	117040163164
    000417  aa   141164 145155     284  	oct	141164145155
    000420  aa   145156 164125     285  	oct	145156164125
    000421  aa   156141 142154     286  	oct	156141142154
    000422  aa   145040 164157     287  	oct	145040164157
    000423  aa   040167 162151     288  	oct	040167162151
    000424  aa   164145 040162     289  	oct	164145040162
    000425  aa   145143 157162     290  	oct	145143157162
    000426  aa   144125 156141     291  	oct	144125156141
    000427  aa   142154 145040     292  	oct	142154145040
    000430  aa   164157 040163     293  	oct	164157040163
    000431  aa   145145 153040     294  	oct	145145153040
    000432  aa   163160 145143     295  	oct	163160145143
    000433  aa   151146 151145     296  	oct	151146151145
    000434  aa   144040 153145     297  	oct	144040153145
    000435  aa   171040 146157     298  	oct	171040146157
    000436  aa   162040 157165     299  	oct	162040157165
    000437  aa   164160 165164     300  	oct	164160165164
    000440  aa   040055 040160     301  	oct	040055040160
    000441  aa   157163 163151     302  	oct	157163163151
    000442  aa   142154 145040     303  	oct	142154145040
    000443  aa   144165 160154     304  	oct	144165160154
    000444  aa   151143 141164     305  	oct	151143141164
    000445  aa   151157 156124     306  	oct	151157156124
    000446  aa   150145 040166     307  	oct	150145040166
    000447  aa   141154 165145     308  	oct	141154165145
    000450  aa   040157 146040     309  	oct	040157146040
    000451  aa   141040 144141     310  	oct	141040144141
    000452  aa   164141 055156     311  	oct	164141055156
    000453  aa   141155 145040     312  	oct	141155145040
    000454  aa   165163 145144     313  	oct	165163145144
    000455  aa   040167 151164     314  	oct	040167151164
    000456  aa   150040 164150     315  	oct	150040164150
    000457  aa   145040 101104     316  	oct	145040101104
    000460  aa   126101 116103     317  	oct	126101116103
    000461  aa   111116 107040     318  	oct	111116107040
    000462  aa   143154 141165     319  	oct	143154141165
    000463  aa   163145 040151     320  	oct	163145040151
    000464  aa   163040 151156     321  	oct	163040151156
    000465  aa   157162 144151     322  	oct	157162144151
    000466  aa   156141 164145     323  	oct	156141164145
    000467  aa   154171 040154     324  	oct	154171040154
    000470  aa   141162 147145     325  	oct	141162147145
    000471  aa   101164 164145     326  	oct	101164164145
    000472  aa   155160 164040     327  	oct	155160164040
    000473  aa   164157 040160     328  	oct	164157040160
    000474  aa   145162 146157     329  	oct	145162146157
    000475  aa   162155 040111     330  	oct	162155040111
    000476  aa   057117 040157     331  	oct	057117040157
    000477  aa   156040 141156     332  	oct	156040141156
    000500  aa   040165 156157     333  	oct	040165156157
    000501  aa   160145 156145     334  	oct	160145156145
    000502  aa   144040 146151     335  	oct	144040146151
    000503  aa   154145 125156     336  	oct	154145125156
    000504  aa   141142 154145     337  	oct	141142154145
    000505  aa   040164 157040     338  	oct	040164157040
    000506  aa   162145 141144     339  	oct	162145141144
    000507  aa   040162 145143     340  	oct	040162145143
    000510  aa   157162 144125     341  	oct	157162144125
    000511  aa   156141 142154     342  	oct	156141142154
    000512  aa   145040 164157     343  	oct	145040164157
    000513  aa   040163 145145     344  	oct	040163145145
    000514  aa   153040 153145     345  	oct	153040153145
    000515  aa   171040 146157     346  	oct	171040146157
    000516  aa   162040 151156     347  	oct	162040151156
    000517  aa   160165 164125     348  	oct	160165164125
    000520  aa   156141 142154     349  	oct	156141142154
    000521  aa   145040 164157     350  	oct	145040164157
    000522  aa   040162 145141     351  	oct	040162145141
    000523  aa   144040 156145     352  	oct	144040156145
    000524  aa   170164 040153     353  	oct	170164040153
    000525  aa   145171 111156     354  	oct	145171111156
    000526  aa   166141 154151     355  	oct	166141154151
    000527  aa   144040 144145     356  	oct	144040144145
    000530  aa   154145 164145     357  	oct	154145164145
    000531  aa   040141 164164     358  	oct	040141164164
    000532  aa   145155 160164     359  	oct	145155160164
    000533  aa   145144 040055     360  	oct	145144040055
    000534  aa   040160 162145     361  	oct	040160162145
    000535  aa   166151 157165     362  	oct	166151157165
    000536  aa   163040 111057     363  	oct	163040111057
    000537  aa   117040 157160     364  	oct	117040157160
    000540  aa   145162 141164     365  	oct	145162141164
    000541  aa   151157 156040     366  	oct	151157156040
    000542  aa   167141 163040     367  	oct	167141163040
    000543  aa   156157 164040     368  	oct	156157164040
    000544  aa   141040 162145     369  	oct	141040162145
    000545  aa   141144 040151     370  	oct	141144040151
    000546  aa   156040 151055     371  	oct	156040151055
    000547  aa   157040 155157     372  	oct	157040155157
    000550  aa   144145 125156     373  	oct	144145125156
    000551  aa   141142 154145     374  	oct	141142154145
    000552  aa   040164 157040     375  	oct	040164157040
    000553  aa   163145 145153     376  	oct	163145145153
    000554  aa   040153 145171     377  	oct	040153145171
    000555  aa   040146 157162     378  	oct	040146157162
    000556  aa   040144 145154     379  	oct	040144145154
    000557  aa   145164 145125     380  	oct	145164145125
    000560  aa   156141 142154     381  	oct	156141142154
    000561  aa   145040 164157     382  	oct	145040164157
    000562  aa   040144 145154     383  	oct	040144145154
    000563  aa   145164 145040     384  	oct	145164145040
    000564  aa   162145 143157     385  	oct	162145143157
    000565  aa   162144 125156     386  	oct	162144125156
    000566  aa   141142 154145     387  	oct	141142154145
    000567  aa   040164 157040     388  	oct	040164157040
    000570  aa   162145 167162     389  	oct	162145167162
    000571  aa   151164 145040     390  	oct	151164145040
    000572  aa   162145 143157     391  	oct	162145143157
    000573  aa   162144 125156     392  	oct	162144125156
    000574  aa   141142 154145     393  	oct	141142154145
    000575  aa   040164 157040     394  	oct	040164157040
    000576  aa   163145 145153     395  	oct	163145145153
    000577  aa   040153 145171     396  	oct	040153145171
    000600  aa   040146 157162     397  	oct	040146157162
    000601  aa   040162 145167     398  	oct	040162145167
    000602  aa   162151 164145     399  	oct	162151164145
    000603  aa   111156 166141     400  	oct	111156166141
    000604  aa   154151 144040     401  	oct	154151144040
    000605  aa   162145 167162     402  	oct	162145167162
    000606  aa   151164 145040     403  	oct	151164145040
    000607  aa   141164 164145     404  	oct	141164164145
    000610  aa   155160 164145     405  	oct	155160164145
    000611  aa   144040 055040     406  	oct	144040055040
    000612  aa   160162 145166     407  	oct	160162145166
    000613  aa   151157 165163     408  	oct	151157165163
    000614  aa   040111 057117     409  	oct	040111057117
    000615  aa   040157 160145     410  	oct	040157160145
    000616  aa   162141 164151     411  	oct	162141164151
    000617  aa   157156 040167     412  	oct	157156040167
    000620  aa   141163 040156     413  	oct	141163040156
    000621  aa   157164 040141     414  	oct	157164040141
    000622  aa   040162 145141     415  	oct	040162145141
    000623  aa   144040 151156     416  	oct	144040151156
    000624  aa   040151 055157     417  	oct	040151055157
    000625  aa   040155 157144     418  	oct	040155157144
    000626  aa   145111 156166     419  	oct	145111156166
    000627  aa   141154 151144     420  	oct	141154151144
    000630  aa   040162 145167     421  	oct	040162145167
    000631  aa   162151 164145     422  	oct	162151164145
    000632  aa   040141 164164     423  	oct	040141164164
    000633  aa   145155 160164     424  	oct	145155160164
    000634  aa   145144 040141     425  	oct	145144040141
    000635  aa   164164 145155     426  	oct	164164145155
    000636  aa   160164 145144     427  	oct	160164145144
    000637  aa   040055 040156     428  	oct	040055040156
    000640  aa   145167 040153     429  	oct	145167040153
    000641  aa   145171 040151     430  	oct	145171040151
    000642  aa   163040 156157     431  	oct	163040156157
    000643  aa   164040 151144     432  	oct	164040151144
    000644  aa   145156 164151     433  	oct	145156164151
    000645  aa   143141 154040     434  	oct	143141154040
    000646  aa   164157 040157     435  	oct	164157040157
    000647  aa   154144 040153     436  	oct	154144040153
    000650  aa   145171 111156     437  	oct	145171111156
    000651  aa   166141 154151     438  	oct	166141154151
    000652  aa   144040 162145     439  	oct	144040162145
    000653  aa   167162 151164     440  	oct	167162151164
    000654  aa   145040 141164     441  	oct	145040141164
    000655  aa   164145 155160     442  	oct	164145155160
    000656  aa   164145 144040     443  	oct	164145144040
    000657  aa   055040 156145     444  	oct	055040156145
    000660  aa   167040 162145     445  	oct	167040162145
    000661  aa   143157 162144     446  	oct	143157162144
    000662  aa   040154 145156     447  	oct	040154145156
    000663  aa   147164 150040     448  	oct	147164150040
    000664  aa   151163 040156     449  	oct	151163040156
    000665  aa   157164 040151     450  	oct	157164040151
    000666  aa   144145 156164     451  	oct	144145156164
    000667  aa   151143 141154     452  	oct	151143141154
    000670  aa   040164 157040     453  	oct	040164157040
    000671  aa   157154 144040     454  	oct	157154144040
    000672  aa   162145 143157     455  	oct	162145143157
    000673  aa   162144 040154     456  	oct	162144040154
    000674  aa   145156 147164     457  	oct	145156147164
    000675  aa   150111 156166     458  	oct	150111156166
    000676  aa   141154 151144     459  	oct	141154151144
    000677  aa   040111 057117     460  	oct	040111057117
    000700  aa   040157 160145     461  	oct	040157160145
    000701  aa   162141 164151     462  	oct	162141164151
    000702  aa   157156 056040     463  	oct	157156056040
    000703  aa   040101 164164     464  	oct	040101164164
    000704  aa   145155 160164     465  	oct	145155160164
    000705  aa   040164 157040     466  	oct	040164157040
    000706  aa   163164 141162     467  	oct	163164141162
    000707  aa   164040 141040     468  	oct	164040141040
    000710  aa   146151 154145     469  	oct	146151154145
    000711  aa   040157 160145     470  	oct	040157160145
    000712  aa   156145 144040     471  	oct	156145144040
    000713  aa   141163 040157     472  	oct	141163040157
    000714  aa   165164 160165     473  	oct	165164160165
    000715  aa   164125 156141     474  	oct	164125156141
    000716  aa   142154 145040     475  	oct	142154145040
    000717  aa   164157 040163     476  	oct	164157040163
    000720  aa   145145 153040     477  	oct	145145153040
    000721  aa   153145 171040     478  	oct	153145171040
    000722  aa   146157 162040     479  	oct	146157162040
    000723  aa   163164 141162     480  	oct	163164141162
    000724  aa   164125 156141     481  	oct	164125156141
    000725  aa   142154 145040     482  	oct	142154145040
    000726  aa   164157 040163     483  	oct	164157040163
    000727  aa   164141 162164     484  	oct	164141162164
    000730  aa   040146 151154     485  	oct	040146151154
    000731  aa   145040 167151     486  	oct	145040167151
    000732  aa   164150 040163     487  	oct	164150040163
    000733  aa   160145 143151     488  	oct	160145143151
    000734  aa   146151 145144     489  	oct	146151145144
    000735  aa   040153 145171     490  	oct	040153145171
    000736  aa   040162 145154     491  	oct	040162145154
    000737  aa   141164 151157     492  	oct	141164151157
    000740  aa   156101 164164     493  	oct	156101164164
    000741  aa   145155 160164     494  	oct	145155160164
    000742  aa   040164 157040     495  	oct	040164157040
    000743  aa   123105 124040     496  	oct	123105124040
    000744  aa   141156 040151     497  	oct	141156040151
    000745  aa   156144 145170     498  	oct	156144145170
    000746  aa   040157 165164     499  	oct	040157165164
    000747  aa   163151 144145     500  	oct	163151144145
    000750  aa   040164 150145     501  	oct	040164150145
    000751  aa   040162 141156     502  	oct	040162141156
    000752  aa   147145 040157     503  	oct	147145040157
    000753  aa   146040 151164     504  	oct	146040151164
    000754  aa   163040 141163     505  	oct	163040141163
    000755  aa   163157 143151     506  	oct	163157143151
    000756  aa   141164 145144     507  	oct	141164145144
    000757  aa   040164 141142     508  	oct	040164141142
    000760  aa   154145 111156     509  	oct	154145111156
    000761  aa   166141 154151     510  	oct	166141154151
    000762  aa   144040 111057     511  	oct	144040111057
    000763  aa   117040 157160     512  	oct	117040157160
    000764  aa   145162 141164     513  	oct	145162141164
    000765  aa   151157 156056     514  	oct	151157156056
    000766  aa   040040 101164     515  	oct	040040101164
    000767  aa   164145 155160     516  	oct	164145155160
    000770  aa   164040 164157     517  	oct	164040164157
    000771  aa   040162 145141     518  	oct	040162145141
    000772  aa   144040 141156     519  	oct	144040141156
    000773  aa   040165 156157     520  	oct	040165156157
    000774  aa   160145 156145     521  	oct	160145156145
    000775  aa   144040 146151     522  	oct	144040146151
    000776  aa   154145 111156     523  	oct	154145111156
    000777  aa   166141 154151     524  	oct	166141154151
    001000  aa   144040 111057     525  	oct	144040111057
    001001  aa   117040 157160     526  	oct	117040157160
    001002  aa   145162 141164     527  	oct	145162141164
    001003  aa   151157 156056     528  	oct	151157156056
    001004  aa   040040 101164     529  	oct	040040101164
    001005  aa   164145 155160     530  	oct	164145155160
    001006  aa   164040 164157     531  	oct	164040164157
    001007  aa   040167 162151     532  	oct	040167162151
    001010  aa   164145 040141     533  	oct	164145040141
    001011  aa   040163 145161     534  	oct	040163145161
    001012  aa   165145 156164     535  	oct	165145156164
    001013  aa   151141 154154     536  	oct	151141154154
    001014  aa   171040 141143     537  	oct	171040141143
    001015  aa   143145 163163     538  	oct	143145163163
    001016  aa   145144 040146     539  	oct	145144040146
    001017  aa   151154 145040     540  	oct	151154145040
    001020  aa   157160 145156     541  	oct	157160145156
    001021  aa   145144 040141     542  	oct	145144040141
    001022  aa   163040 151055     543  	oct	163040151055
    001023  aa   157111 156166     544  	oct	157111156166
    001024  aa   141154 151144     545  	oct	141154151144
    001025  aa   040111 057117     546  	oct	040111057117
    001026  aa   040157 160145     547  	oct	040157160145
    001027  aa   162141 164151     548  	oct	162141164151
    001030  aa   157156 056040     549  	oct	157156056040
    001031  aa   040101 164164     550  	oct	040101164164
    001032  aa   145155 160164     551  	oct	145155160164
    001033  aa   040164 157040     552  	oct	040164157040
    001034  aa   144145 154145     553  	oct	144145154145
    001035  aa   164145 040151     554  	oct	164145040151
    001036  aa   156040 141040     555  	oct	156040141040
    001037  aa   146151 154145     556  	oct	146151154145
    001040  aa   040156 157164     557  	oct	040156157164
    001041  aa   040157 160145     558  	oct	040157160145
    001042  aa   156145 144040     559  	oct	156145144040
    001043  aa   141163 040151     560  	oct	141163040151
    001044  aa   055157 111156     561  	oct	055157111156
    001045  aa   166141 154151     562  	oct	166141154151
    001046  aa   144040 111057     563  	oct	144040111057
    001047  aa   117040 157160     564  	oct	117040157160
    001050  aa   145162 141164     565  	oct	145162141164
    001051  aa   151157 156056     566  	oct	151157156056
    001052  aa   040040 101164     567  	oct	040040101164
    001053  aa   164145 155160     568  	oct	164145155160
    001054  aa   164040 164157     569  	oct	164040164157
    001055  aa   040162 145167     570  	oct	040162145167
    001056  aa   162151 164145     571  	oct	162151164145
    001057  aa   040151 156040     572  	oct	040151156040
    001060  aa   141040 146151     573  	oct	141040146151
    001061  aa   154145 040156     574  	oct	154145040156
    001062  aa   157164 040157     575  	oct	157164040157
    001063  aa   160145 156145     576  	oct	160145156145
    001064  aa   144040 141163     577  	oct	144040141163
    001065  aa   040151 055157     578  	oct	040151055157
    001066  aa   120145 162146     579  	oct	120145162146
    001067  aa   157162 155040     580  	oct	157162155040
    001070  aa   163164 141164     581  	oct	163164141164
    001071  aa   145155 145156     582  	oct	145155145156
    001072  aa   164040 102131     583  	oct	164040102131
    001073  aa   040151 144145     584  	oct	040151144145
    001074  aa   156164 151146     585  	oct	156164151146
    001075  aa   151145 162040     586  	oct	151145162040
    001076  aa   145161 165141     587  	oct	145161165141
    001077  aa   154163 040172     588  	oct	154163040172
    001100  aa   145162 157056     589  	oct	145162157056
    001101  aa   126141 154165     590  	oct	126141154165
    001102  aa   145040 157146     591  	oct	145040157146
    001103  aa   040104 105120     592  	oct	040104105120
    001104  aa   105116 104111     593  	oct	105116104111
    001105  aa   116107 040117     594  	oct	116107040117
    001106  aa   116040 151164     595  	oct	116040151164
    001107  aa   145155 040151     596  	oct	145155040151
    001110  aa   163040 157165     597  	oct	163040157165
    001111  aa   164163 151144     598  	oct	164163151144
    001112  aa   145040 144145     599  	oct	145040144145
    001113  aa   146151 156145     600  	oct	146151156145
    001114  aa   144040 162141     601  	oct	144040162141
    001115  aa   156147 145111     602  	oct	156147145111
    001116  aa   156144 145170     603  	oct	156144145170
    001117  aa   040144 141164     604  	oct	040144141164
    001120  aa   141040 151164     605  	oct	141040151164
    001121  aa   145155 040151     606  	oct	145155040151
    001122  aa   156040 126101     607  	oct	156040126101
    001123  aa   122131 111116     608  	oct	122131111116
    001124  aa   107040 143154     609  	oct	107040143154
    001125  aa   141165 163145     610  	oct	141165163145
    001126  aa   040157 146040     611  	oct	040157146040
    001127  aa   123105 101122     612  	oct	123105101122
    001130  aa   103110 040151     613  	oct	103110040151
    001131  aa   163040 156157     614  	oct	163040156157
    001132  aa   164040 151156     615  	oct	164040151156
    001133  aa   151164 151141     616  	oct	151164151141
    001134  aa   154151 172145     617  	oct	154151172145
    001135  aa   144105 170160     618  	oct	144105170160
    001136  aa   157156 145156     619  	oct	157156145156
    001137  aa   164151 141164     620  	oct	164151141164
    001140  aa   151157 156040     621  	oct	151157156040
    001141  aa   145162 162157     622  	oct	145162162157
    001142  aa   162040 055040     623  	oct	162040055040
    001143  aa   074156 145147     624  	oct	074156145147
    001144  aa   141164 151166     625  	oct	141164151166
    001145  aa   145040 156165     626  	oct	145040156165
    001146  aa   155142 145162     627  	oct	155142145162
    001147  aa   076040 052052     628  	oct	076040052052
    001150  aa   040074 156157     629  	oct	040074156157
    001151  aa   156055 151156     630  	oct	156055151156
    001152  aa   164145 147145     631  	oct	164145147145
    001153  aa   162076 105170     632  	oct	162076105170
    001154  aa   160157 156145     633  	oct	160157156145
    001155  aa   156164 151141     634  	oct	156164151141
    001156  aa   164151 157156     635  	oct	164151157156
    001157  aa   040145 162162     636  	oct	040145162162
    001160  aa   157162 040055     637  	oct	157162040055
    001161  aa   040074 172145     638  	oct	040074172145
    001162  aa   162157 076040     639  	oct	162157076040
    001163  aa   052052 040074     640  	oct	052052040074
    001164  aa   172145 162157     641  	oct	172145162157
    001165  aa   076105 170160     642  	oct	076105170160
    001166  aa   157156 145156     643  	oct	157156145156
    001167  aa   164151 141164     644  	oct	164151141164
    001170  aa   151157 156040     645  	oct	151157156040
    001171  aa   145162 162157     646  	oct	145162162157
    001172  aa   162040 055040     647  	oct	162040055040
    001173  aa   074172 145162     648  	oct	074172145162
    001174  aa   157076 040052     649  	oct	157076040052
    001175  aa   052040 074156     650  	oct	052040074156
    001176  aa   145147 141164     651  	oct	145147141164
    001177  aa   151166 145040     652  	oct	151166145040
    001200  aa   156165 155142     653  	oct	156165155142
    001201  aa   145162 076123     654  	oct	145162076123
    001202  aa   117122 124057     655  	oct	117122124057
    001203  aa   115105 122107     656  	oct	115105122107
    001204  aa   105040 145162     657  	oct	105040145162
    001205  aa   162157 162125     658  	oct	162157162125
    001206  aa   156141 142154     659  	oct	156141142154
    001207  aa   145040 164157     660  	oct	145040164157
    001210  aa   040141 164164     661  	oct	040141164164
    001211  aa   141143 150040     662  	oct	141143150040
    001212  aa   111057 117040     663  	oct	111057117040
    001213  aa   163167 151164     664  	oct	163167151164
    001214  aa   143150 040055     665  	oct	143150040055
    001215  aa   040160 157163     666  	oct	040160157163
    001216  aa   163151 142154     667  	oct	163151142154
    001217  aa   145040 151156     668  	oct	145040151156
    001220  aa   166141 154151     669  	oct	166141154151
    001221  aa   144040 143141     670  	oct	144040143141
    001222  aa   164141 154157     671  	oct	164141154157
    001223  aa   147055 156141     672  	oct	147055156141
    001224  aa   155145 123117     673  	oct	155145123117
    001225  aa   122124 040145     674  	oct	122124040145
    001226  aa   162162 157162     675  	oct	162162157162
    001227  aa   040055 040165     676  	oct	040055040165
    001230  aa   156141 142154     677  	oct	156141142154
    001231  aa   145040 164157     678  	oct	145040164157
    001232  aa   040122 105114     679  	oct	040122105114
    001233  aa   105101 123105     680  	oct	105101123105
    001234  aa   040162 145143     681  	oct	040162145143
    001235  aa   157162 144123     682  	oct	157162144123
    001236  aa   117122 124040     683  	oct	117122124040
    001237  aa   145162 162157     684  	oct	145162162157
    001240  aa   162040 055040     685  	oct	162040055040
    001241  aa   165156 141142     686  	oct	165156141142
    001242  aa   154145 040164     687  	oct	154145040164
    001243  aa   157040 122105     688  	oct	157040122105
    001244  aa   124125 122116     689  	oct	124125122116
    001245  aa   040162 145143     690  	oct	040162145143
    001246  aa   157162 144123     691  	oct	157162144123
    001247  aa   117122 124040     692  	oct	117122124040
    001250  aa   145162 162157     693  	oct	145162162157
    001251  aa   162040 055040     694  	oct	162040055040
    001252  aa   165156 141142     695  	oct	165156141142
    001253  aa   154145 040164     696  	oct	154145040164
    001254  aa   157040 164145     697  	oct	157040164145
    001255  aa   162155 151156     698  	oct	162155151156
    001256  aa   141164 145040     699  	oct	141164145040
    001257  aa   164150 145040     700  	oct	164150145040
    001260  aa   163157 162164     701  	oct	163157162164
    001261  aa   123117 122124     702  	oct	123117122124
    001262  aa   040145 162162     703  	oct	040145162162
    001263  aa   157162 040055     704  	oct	157162040055
    001264  aa   040165 156141     705  	oct	040165156141
    001265  aa   142154 145040     706  	oct	142154145040
    001266  aa   164157 040151     707  	oct	164157040151
    001267  aa   156151 164151     708  	oct	156151164151
    001270  aa   141164 145040     709  	oct	141164145040
    001271  aa   164150 145040     710  	oct	164150145040
    001272  aa   163157 162164     711  	oct	163157162164
    001273  aa   123117 122124     712  	oct	123117122124
    001274  aa   040145 162162     713  	oct	040145162162
    001275  aa   157162 040055     714  	oct	157162040055
    001276  aa   040165 156141     715  	oct	040165156141
    001277  aa   142154 145040     716  	oct	142154145040
    001300  aa   164157 040143     717  	oct	164157040143
    001301  aa   157155 155145     718  	oct	157155155145
    001302  aa   156143 145040     719  	oct	156143145040
    001303  aa   164150 145040     720  	oct	164150145040
    001304  aa   163157 162164     721  	oct	163157162164
    001305  aa   125156 141142     722  	oct	125156141142
    001306  aa   154145 040164     723  	oct	154145040164
    001307  aa   157040 143141     724  	oct	157040143141
    001310  aa   154154 040151     725  	oct	154154040151
    001311  aa   144145 156164     726  	oct	144145156164
    001312  aa   151146 151145     727  	oct	151146151145
    001313  aa   162116 157040     728  	oct	162116157040
    001314  aa   145162 162157     729  	oct	145162162157
    001315  aa   162040 155145     730  	oct	162040155145
    001316  aa   163163 141147     731  	oct	163163141147
    001317  aa   145101 162147     732  	oct	145101162147
    001320  aa   165155 145156     733  	oct	165155145156
    001321  aa   164040 155151     734  	oct	164040155151
    001322  aa   163155 141164     735  	oct	163155141164
    001323  aa   143150 040055     736  	oct	143150040055
    001324  aa   040151 156143     737  	oct	040151156143
    001325  aa   157162 162145     738  	oct	157162162145
    001326  aa   143164 040156     739  	oct	143164040156
    001327  aa   165155 142145     740  	oct	165155142145
    001330  aa   162040 157146     741  	oct	162040157146
    001331  aa   040141 162147     742  	oct	040141162147
    001332  aa   165155 145156     743  	oct	165155145156
    001333  aa   164163 040163     744  	oct	164163040163
    001334  aa   165160 160154     745  	oct	165160160154
    001335  aa   151145 144101     746  	oct	151145144101
    001336  aa   162147 165155     747  	oct	162147165155
    001337  aa   145156 164040     748  	oct	145156164040
    001340  aa   155151 163155     749  	oct	155151163155
    001341  aa   141164 143150     750  	oct	141164143150
    001342  aa   040055 040144     751  	oct	040055040144
    001343  aa   141164 141040     752  	oct	141164141040
    001344  aa   164171 160145     753  	oct	164171160145
    001345  aa   040151 163040     754  	oct	040151163040
    001346  aa   156157 164040     755  	oct	156157164040
    001347  aa   143157 155160     756  	oct	143157155160
    001350  aa   141164 151142     757  	oct	141164151142
    001351  aa   154145 040167     758  	oct	154145040167
    001352  aa   151164 150040     759  	oct	151164150040
    001353  aa   164150 141164     760  	oct	164150141164
    001354  aa   040145 170160     761  	oct	040145170160
    001355  aa   145143 164145     762  	oct	145143164145
    001356  aa   144101 040163     763  	oct	144101040163
    001357  aa   165142 163143     764  	oct	165142163143
    001360  aa   162151 160164     765  	oct	162151160164
    001361  aa   040151 163040     766  	oct	040151163040
    001362  aa   157165 164163     767  	oct	157165164163
    001363  aa   151144 145040     768  	oct	151144145040
    001364  aa   164150 145040     769  	oct	164150145040
    001365  aa   162141 156147     770  	oct	162141156147
    001366  aa   145040 157146     771  	oct	145040157146
    001367  aa   040164 150145     772  	oct	040164150145
    001370  aa   040162 145146     773  	oct	040162145146
    001371  aa   145162 145156     774  	oct	145162145156
    001372  aa   143145 144040     775  	oct	143145144040
    001373  aa   164141 142154     776  	oct	164141142154
    001374  aa   145101 164164     777  	oct	145101164164
    001375  aa   145155 160164     778  	oct	145155160164
    001376  aa   040164 157040     779  	oct	040164157040
    001377  aa   157160 145156     780  	oct	157160145156
    001400  aa   040141 040146     781  	oct	040141040146
    001401  aa   151154 145040     782  	oct	151154145040
    001402  aa   143154 157163     783  	oct	143154157163
    001403  aa   145144 040167     784  	oct	145144040167
    001404  aa   151164 150040     785  	oct	151164150040
    001405  aa   164150 145040     786  	oct	164150145040
    001406  aa   114117 103113     787  	oct	114117103113
    001407  aa   040157 160164     788  	oct	040157160164
    001410  aa   151157 156000     789  	oct	151157156000
                                   790  	end

NO LITERALS

NAME DEFINITIONS FOR ENTRY POINTS AND SEGDEFS

    001412  5a   000003 000000
    001413  5a   000032 600000
    001414  aa   000000 000000
    001415  55   000013 000002
    001416  5a   000002 400003
    001417  55   000006 000013
    001420  aa  022 143 157 142
    001421  aa  157 154 137 145
    001422  aa  162 162 157 162
    001423  aa  137 164 141 142
    001424  aa  154 145 137 000
    001425  55   000023 000003
    001426  0a   000000 400000
    001427  55   000016 000003
    001430  aa  022 143 157 142         cobol_error_table_
    001431  aa  157 154 137 145
    001432  aa  162 162 157 162
    001433  aa  137 164 141 142
    001434  aa  154 145 137 000
    001435  55   000002 000013
    001436  6a   000000 400002
    001437  55   000026 000003
    001440  aa  014 163 171 155         symbol_table
    001441  aa  142 157 154 137
    001442  aa  164 141 142 154
    001443  aa  145 000 000 000

DEFINITIONS HASH TABLE

    001444  aa   000000 000015
    001445  aa   000000 000000
    001446  aa   000000 000000
    001447  aa   000000 000000
    001450  aa   000000 000000
    001451  aa   000000 000000
    001452  aa   000000 000000
    001453  5a   000023 000000
    001454  aa   000000 000000
    001455  aa   000000 000000
    001456  5a   000013 000000
    001457  aa   000000 000000
    001460  aa   000000 000000
    001461  aa   000000 000000

NO EXTERNAL NAMES

NO TRAP POINTER WORDS

TYPE PAIR BLOCKS

    001462  aa   000001 000000
    001463  aa   000000 000000

INTERNAL EXPRESSION WORDS

LINKAGE INFORMATION

    000000  aa   000000 000000
    000001  0a   001412 000000
    000002  aa   000000 000000
    000003  aa   000000 000000
    000004  aa   000000 000000
    000005  aa   000000 000000
    000006  22   000010 000010
    000007  a2   000000 000000
SYMBOL INFORMATION

SYMBOL TABLE HEADER

    000000  aa   000000 000001
    000001  aa   163171 155142
    000002  aa   164162 145145
    000003  aa   000000 000004
    000004  aa   000000 111316
    000005  aa   510113 575622
    000006  aa   000000 111330
    000007  aa   404121 600430
    000010  aa   141154 155040
    000011  aa   040040 040040
    000012  aa   000024 000040
    000013  aa   000034 000040
    000014  aa   000044 000100
    000015  aa   000002 000002
    000016  aa   000064 000000
    000017  aa   000000 000173
    000020  aa   000000 000104
    000021  aa   000000 000162
    000022  aa   000165 000104
    000023  aa   000064 000000
    000024  aa   101114 115040
    000025  aa   126145 162163
    000026  aa   151157 156040
    000027  aa   040066 056064
    000030  aa   040040 101160
    000031  aa   162151 154040
    000032  aa   061071 070061
    000033  aa   040040 040040
    000034  aa   110157 154155
    000035  aa   163164 145144
    000036  aa   164056 123171
    000037  aa   163115 141151
    000040  aa   156164 056155
    000041  aa   040040 040040
    000042  aa   040040 040040
    000043  aa   040040 040040
    000044  aa   154151 163164
    000045  aa   040040 040040
    000046  aa   040040 040040
    000047  aa   040040 040040
    000050  aa   040040 040040
    000051  aa   040040 040040
    000052  aa   040040 040040
    000053  aa   040040 040040
    000054  aa   040040 040040
    000055  aa   040040 040040
    000056  aa   040040 040040
    000057  aa   040040 040040
    000060  aa   040040 040040
    000061  aa   040040 040040
    000062  aa   040040 040040
    000063  aa   040040 040040
    000064  aa   000000 000001
    000065  aa   000000 000001
    000066  aa   000072 000050
    000067  aa   113225 115262
    000070  aa   000000 111330
    000071  aa   375702 000000
    000072  aa   076163 160145          >spec>on>11/11/82>cobol_error_table_.alm
    000073  aa   143076 157156
    000074  aa   076061 061057
    000075  aa   061061 057070
    000076  aa   062076 143157
    000077  aa   142157 154137
    000100  aa   145162 162157
    000101  aa   162137 164141
    000102  aa   142154 145137
    000103  aa   056141 154155
               MULTICS ASSEMBLY CROSS REFERENCE LISTING

   Value        Symbol                   Source file   Line number

           0    cobol_error_table_       cobol_error_table_:        11,   12.


NO FATAL ERRORS


                                          -----------------------------------------------------------


Historical Background

This edition of the Multics software materials and documentation is provided and donated
to Massachusetts Institute of Technology by Group BULL including BULL HN Information Systems Inc.
as a contribution to computer science knowledge.
This donation is made also to give evidence of the common contributions of Massachusetts Institute of Technology,
Bell Laboratories, General Electric, Honeywell Information Systems Inc., Honeywell BULL Inc., Groupe BULL
and BULL HN Information Systems Inc. to the development of this operating system.
Multics development was initiated by Massachusetts Institute of Technology Project MAC (1963-1970),
renamed the MIT Laboratory for Computer Science and Artificial Intelligence in the mid 1970s, under the leadership
of Professor Fernando Jose Corbato. Users consider that Multics provided the best software architecture
for managing computer hardware properly and for executing programs. Many subsequent operating systems
incorporated Multics principles.
Multics was distributed in 1975 to 2000 by Group Bull in Europe , and in the U.S. by Bull HN Information Systems Inc.,
as successor in interest by change in name only to Honeywell Bull Inc. and Honeywell Information Systems Inc. .

                                          -----------------------------------------------------------

Permission to use, copy, modify, and distribute these programs and their documentation for any purpose and without
fee is hereby granted,provided that the below copyright notice and historical background appear in all copies
and that both the copyright notice and historical background and this permission notice appear in supporting
documentation, and that the names of MIT, HIS, BULL or BULL HN not be used in advertising or publicity pertaining
to distribution of the programs without specific prior written permission.
    Copyright 1972 by Massachusetts Institute of Technology and Honeywell Information Systems Inc.
    Copyright 2006 by BULL HN Information Systems Inc.
    Copyright 2006 by Bull SAS
    All Rights Reserved
