	COMPILATION LISTING OF SEGMENT cobol_call_op
	Compiled by: Multics PL/I Compiler, Release 31b, of April 24, 1989
	Compiled at: Bull HN, Phoenix AZ, System-M
	Compiled on: 05/24/89  0938.3 mst Wed
	    Options: optimize map

        1 /****^  ***********************************************************
        2*        *                                                         *
        3*        * Copyright, (C) BULL HN Information Systems Inc., 1989   *
        4*        *                                                         *
        5*        * Copyright, (C) Honeywell Information Systems Inc., 1982 *
        6*        *                                                         *
        7*        * Copyright (c) 1972 by Massachusetts Institute of        *
        8*        * Technology and Honeywell Information Systems, Inc.      *
        9*        *                                                         *
       10*        *********************************************************** */
       11
       12
       13
       14
       15 /****^  HISTORY COMMENTS:
       16*  1) change(89-04-23,Zimmerman), approve(89-04-23,MCR8060),
       17*     audit(89-05-05,RWaters), install(89-05-24,MR12.3-1048):
       18*     MCR8060 cobol_call_op.pl1 Reformatted code to new Cobol standard.
       19*                                                   END HISTORY COMMENTS */
       20
       21
       22 /* Modified on 12/18/78 by FCH, [3.0-1], entry skip added */
       23 /* Modified since Version 3.0.	*/
       24 /* format: style3 */
       25 cobol_call_op:
       26      proc (op_num, tagno);
       27
       28 dcl	(tagno, tag1)	fixed bin,		/* tag number for no error.	*/
       29 	op_num		fixed bin;		/* operator number for the call.	*/
       30 						/* [3.0-1] */
       31 declare	tag_1		fixed bin;
       32
       33
       34 dcl	temp		fixed bin;
       35 dcl	inst_seq		(4) bit (18) init ("000000000000000000"b, "111000000001000000"b,
       36 						/* tsx0	pr0|op_num	*/
       37 			"000000000000000000"b, "111001000000000100"b);
       38 						/* tra	0,ic	*/
       39
       40 /***********************************/
       41
       42 /* [3.0-1] */
       43 	tag_1 = 0;
       44
       45 start:
       46 	if first_time ^= cobol_$compile_count
       47 	then do;
       48 		first_time = cobol_$compile_count;
       49 		op_bit = (200)"0"b;
       50 	     end;
       51
       52 	temp = op_num;
       53
       54 	if temp < 200
       55 	then substr (op_bit, temp + 1, 1) = "1"b;
       56
       57 	call cobol_reg_manager$before_op (temp);
       58
       59 	substr (inst_seq (1), 4, 15) = substr (unspec (op_num), 22, 15);
       60
       61
       62 	call cobol_emit (addr (inst_seq), null (), 1);
       63
       64 	if tagno = 0
       65 	then do;
       66 		call cobol_reg_manager$after_op (temp);
       67 	     end;
       68 	else do;
       69 		call cobol_emit (addr (inst_seq (3)), null (), 1);
       70 		call cobol_make_tagref (tagno, cobol_$text_wd_off - 1, null ());
       71
       72 /* [3.0-1] */
       73 		if tag_1 ^= 0			/* [3.0-1] */
       74 		then do;
       75 			call cobol_emit (addr (inst_seq (3)), null (), 1);
       76 						/* [3.0-1] */
       77 			call cobol_make_tagref (tag_1, cobol_$text_wd_off - 1, null ());
       78 						/* [3.0-1] */
       79 		     end;
       80 	     end;
       81 	return;
       82
       83 get_op:
       84      entry (operator_struc_ptr);
       85 dcl	operator_struc_ptr	ptr;
       86
       87 	operator_struc_ptr = addr (op_bit);
       88 	return;
       89
       90 skip:
       91      entry (op_num, tagno, tag1);
       92
       93 /* [3.0-1] */
       94 	tag_1 = tag1;
       95
       96 	go to start;
       97
       98
       99
      100
      101
  1     1 /*
  1     2*	call cobol_call_op(op_num,tagno);
  1     3*
  1     4*	call cobol_call_op(op_num,tagno,tag1);
  1     5*
  1     6*	call cobol_call_op$get_op(operator_struc_ptr);
  1     7*
  1     8*		declare (tagno,tag1) fixed bin , op_num fixed bin , operator_struc_ptr ptr;
  1     9*
  1    10**/
      102
  2     1 dcl	first_time	fixed bin static,
  2     2 	op_bit	bit(200) static;
  2     3
  2     4 /*
  2     5*Procedures Called		*/
  2     6
  2     7 dcl
  2     8 	cobol_emit entry (ptr, ptr, fixed bin),
  2     9 	cobol_reg_manager$before_op	entry(fixed bin),
  2    10 	cobol_reg_manager$after_op	entry(fixed bin),
  2    11 	cobol_make_tagref entry (fixed bin, fixed bin, ptr);
  2    12
  2    13
  2    14 	/*****	Declaration for builtin function	*****/
  2    15
  2    16 dcl	(substr,mod,binary,fixed,addr,addrel,rel,length,
  2    17 	string,unspec,null,index)		builtin;
  2    18
  2    19 	/*****	End of declaration for builtin function	*****/
  2    20
  3     1
  3     2 /* BEGIN INCLUDE FILE ... cobol_.incl.pl1 */
  3     3 /* last modified Feb 4, 1977 by ORN  */
  3     4
  3     5 /* This file defines all external data used in the generator phase of Multics Cobol */
  3     6
  3     7 /* POINTERS */
  3     8 dcl cobol_$text_base_ptr ptr  ext;
  3     9 dcl text_base_ptr ptr  defined (cobol_$text_base_ptr);
  3    10 dcl cobol_$con_end_ptr ptr  ext;
  3    11 dcl con_end_ptr ptr  defined (cobol_$con_end_ptr);
  3    12 dcl cobol_$def_base_ptr ptr  ext;
  3    13 dcl def_base_ptr ptr  defined (cobol_$def_base_ptr);
  3    14 dcl cobol_$link_base_ptr ptr  ext;
  3    15 dcl link_base_ptr ptr  defined (cobol_$link_base_ptr);
  3    16 dcl cobol_$sym_base_ptr ptr  ext;
  3    17 dcl sym_base_ptr ptr  defined (cobol_$sym_base_ptr);
  3    18 dcl cobol_$reloc_text_base_ptr ptr  ext;
  3    19 dcl reloc_text_base_ptr ptr  defined (cobol_$reloc_text_base_ptr);
  3    20 dcl cobol_$reloc_def_base_ptr ptr  ext;
  3    21 dcl reloc_def_base_ptr ptr  defined (cobol_$reloc_def_base_ptr);
  3    22 dcl cobol_$reloc_link_base_ptr ptr  ext;
  3    23 dcl reloc_link_base_ptr ptr  defined (cobol_$reloc_link_base_ptr);
  3    24 dcl cobol_$reloc_sym_base_ptr ptr  ext;
  3    25 dcl reloc_sym_base_ptr ptr  defined (cobol_$reloc_sym_base_ptr);
  3    26 dcl cobol_$reloc_work_base_ptr ptr  ext;
  3    27 dcl reloc_work_base_ptr ptr  defined (cobol_$reloc_work_base_ptr);
  3    28 dcl cobol_$pd_map_ptr ptr  ext;
  3    29 dcl pd_map_ptr ptr  defined (cobol_$pd_map_ptr);
  3    30 dcl cobol_$fixup_ptr ptr  ext;
  3    31 dcl fixup_ptr ptr  defined (cobol_$fixup_ptr);
  3    32 dcl cobol_$initval_base_ptr ptr  ext;
  3    33 dcl initval_base_ptr ptr  defined (cobol_$initval_base_ptr);
  3    34 dcl cobol_$initval_file_ptr ptr  ext;
  3    35 dcl initval_file_ptr ptr  defined (cobol_$initval_file_ptr);
  3    36 dcl cobol_$perform_list_ptr ptr  ext;
  3    37 dcl perform_list_ptr ptr  defined (cobol_$perform_list_ptr);
  3    38 dcl cobol_$alter_list_ptr ptr  ext;
  3    39 dcl alter_list_ptr ptr  defined (cobol_$alter_list_ptr);
  3    40 dcl cobol_$seg_init_list_ptr ptr  ext;
  3    41 dcl seg_init_list_ptr ptr  defined (cobol_$seg_init_list_ptr);
  3    42 dcl cobol_$temp_token_area_ptr ptr  ext;
  3    43 dcl temp_token_area_ptr ptr  defined (cobol_$temp_token_area_ptr);
  3    44 dcl cobol_$temp_token_ptr ptr  ext;
  3    45 dcl temp_token_ptr ptr  defined (cobol_$temp_token_ptr);
  3    46 dcl cobol_$token_block1_ptr ptr  ext;
  3    47 dcl token_block1_ptr ptr  defined (cobol_$token_block1_ptr);
  3    48 dcl cobol_$token_block2_ptr ptr  ext;
  3    49 dcl token_block2_ptr ptr  defined (cobol_$token_block2_ptr);
  3    50 dcl cobol_$minpral5_ptr ptr  ext;
  3    51 dcl minpral5_ptr ptr  defined (cobol_$minpral5_ptr);
  3    52 dcl cobol_$tag_table_ptr ptr  ext;
  3    53 dcl tag_table_ptr ptr  defined (cobol_$tag_table_ptr);
  3    54 dcl cobol_$map_data_ptr ptr  ext;
  3    55 dcl map_data_ptr ptr  defined (cobol_$map_data_ptr);
  3    56 dcl cobol_$ptr_status_ptr ptr  ext;
  3    57 dcl ptr_status_ptr ptr  defined (cobol_$ptr_status_ptr);
  3    58 dcl cobol_$reg_status_ptr ptr  ext;
  3    59 dcl reg_status_ptr ptr  defined (cobol_$reg_status_ptr);
  3    60 dcl cobol_$misc_base_ptr ptr ext;
  3    61 dcl misc_base_ptr ptr defined (cobol_$misc_base_ptr);
  3    62 dcl cobol_$misc_end_ptr ptr ext;
  3    63 dcl misc_end_ptr ptr defined (cobol_$misc_end_ptr);
  3    64 dcl cobol_$list_ptr ptr ext;
  3    65 dcl list_ptr ptr defined (cobol_$list_ptr);
  3    66 dcl cobol_$allo1_ptr ptr ext;
  3    67 dcl allo1_ptr ptr defined (cobol_$allo1_ptr);
  3    68 dcl cobol_$eln_ptr ptr ext;
  3    69 dcl eln_ptr ptr defined (cobol_$eln_ptr);
  3    70 dcl cobol_$diag_ptr ptr ext;
  3    71 dcl diag_ptr ptr defined (cobol_$diag_ptr);
  3    72 dcl cobol_$xref_token_ptr ptr ext;
  3    73 dcl xref_token_ptr ptr defined (cobol_$xref_token_ptr);
  3    74 dcl cobol_$xref_chain_ptr ptr ext;
  3    75 dcl xref_chain_ptr ptr defined (cobol_$xref_chain_ptr);
  3    76 dcl cobol_$statement_info_ptr ptr ext;
  3    77 dcl statement_info_ptr ptr defined (cobol_$statement_info_ptr);
  3    78 dcl cobol_$reswd_ptr ptr ext;
  3    79 dcl reswd_ptr ptr defined (cobol_$reswd_ptr);
  3    80 dcl cobol_$op_con_ptr ptr ext;
  3    81 dcl op_con_ptr ptr defined (cobol_$op_con_ptr);
  3    82 dcl cobol_$ntbuf_ptr ptr ext;
  3    83 dcl ntbuf_ptr ptr defined (cobol_$ntbuf_ptr);
  3    84 dcl cobol_$main_pcs_ptr ptr ext;
  3    85 dcl main_pcs_ptr ptr defined (cobol_$main_pcs_ptr);
  3    86 dcl cobol_$include_info_ptr ptr ext;
  3    87 dcl include_info_ptr ptr defined (cobol_$include_info_ptr);
  3    88
  3    89 /* FIXED BIN */
  3    90 dcl cobol_$text_wd_off fixed bin  ext;
  3    91 dcl text_wd_off fixed bin  defined (cobol_$text_wd_off);
  3    92 dcl cobol_$con_wd_off fixed bin  ext;
  3    93 dcl con_wd_off fixed bin  defined (cobol_$con_wd_off);
  3    94 dcl cobol_$def_wd_off fixed bin  ext;
  3    95 dcl def_wd_off fixed bin  defined (cobol_$def_wd_off);
  3    96 dcl cobol_$def_max fixed bin  ext;
  3    97 dcl def_max fixed bin  defined (cobol_$def_max);
  3    98 dcl cobol_$link_wd_off fixed bin  ext;
  3    99 dcl link_wd_off fixed bin  defined (cobol_$link_wd_off);
  3   100 dcl cobol_$link_max fixed bin  ext;
  3   101 dcl link_max fixed bin  defined (cobol_$link_max);
  3   102 dcl cobol_$sym_wd_off fixed bin  ext;
  3   103 dcl sym_wd_off fixed bin  defined (cobol_$sym_wd_off);
  3   104 dcl cobol_$sym_max fixed bin  ext;
  3   105 dcl sym_max fixed bin  defined (cobol_$sym_max);
  3   106 dcl cobol_$reloc_text_max fixed bin(24)  ext;
  3   107 dcl reloc_text_max fixed bin(24)  defined (cobol_$reloc_text_max);
  3   108 dcl cobol_$reloc_def_max fixed bin(24)  ext;
  3   109 dcl reloc_def_max fixed bin(24)  defined (cobol_$reloc_def_max);
  3   110 dcl cobol_$reloc_link_max fixed bin(24)  ext;
  3   111 dcl reloc_link_max fixed bin(24)  defined (cobol_$reloc_link_max);
  3   112 dcl cobol_$reloc_sym_max fixed bin(24)  ext;
  3   113 dcl reloc_sym_max fixed bin(24)  defined (cobol_$reloc_sym_max);
  3   114 dcl cobol_$reloc_work_max fixed bin(24)  ext;
  3   115 dcl reloc_work_max fixed bin(24)  defined (cobol_$reloc_work_max);
  3   116 dcl cobol_$pd_map_index fixed bin  ext;
  3   117 dcl pd_map_index fixed bin  defined (cobol_$pd_map_index);
  3   118 dcl cobol_$cobol_data_wd_off fixed bin  ext;
  3   119 dcl cobol_data_wd_off fixed bin  defined (cobol_$cobol_data_wd_off);
  3   120 dcl cobol_$stack_off fixed bin  ext;
  3   121 dcl stack_off fixed bin  defined (cobol_$stack_off);
  3   122 dcl cobol_$max_stack_off fixed bin  ext;
  3   123 dcl max_stack_off fixed bin  defined (cobol_$max_stack_off);
  3   124 dcl cobol_$init_stack_off fixed bin  ext;
  3   125 dcl init_stack_off fixed bin  defined (cobol_$init_stack_off);
  3   126 dcl cobol_$pd_map_sw fixed bin  ext;
  3   127 dcl pd_map_sw fixed bin  defined (cobol_$pd_map_sw);
  3   128 dcl cobol_$next_tag fixed bin  ext;
  3   129 dcl next_tag fixed bin  defined (cobol_$next_tag);
  3   130 dcl cobol_$data_init_flag fixed bin  ext;
  3   131 dcl data_init_flag fixed bin  defined (cobol_$data_init_flag);
  3   132 dcl cobol_$seg_init_flag fixed bin  ext;
  3   133 dcl seg_init_flag fixed bin  defined (cobol_$seg_init_flag);
  3   134 dcl cobol_$alter_flag fixed bin  ext;
  3   135 dcl alter_flag fixed bin  defined (cobol_$alter_flag);
  3   136 dcl cobol_$sect_eop_flag fixed bin  ext;
  3   137 dcl sect_eop_flag fixed bin  defined (cobol_$sect_eop_flag);
  3   138 dcl cobol_$para_eop_flag fixed bin  ext;
  3   139 dcl para_eop_flag fixed bin  defined (cobol_$para_eop_flag);
  3   140 dcl cobol_$priority_no fixed bin  ext;
  3   141 dcl priority_no fixed bin  defined (cobol_$priority_no);
  3   142 dcl cobol_$compile_count fixed bin ext;
  3   143 dcl compile_count fixed bin defined (cobol_$compile_count);
  3   144 dcl cobol_$ptr_assumption_ind fixed bin ext;
  3   145 dcl ptr_assumption_ind fixed bin defined (cobol_$ptr_assumption_ind);
  3   146 dcl cobol_$reg_assumption_ind fixed bin ext;
  3   147 dcl reg_assumption_ind fixed bin defined (cobol_$reg_assumption_ind);
  3   148 dcl cobol_$perform_para_index fixed bin ext;
  3   149 dcl perform_para_index fixed bin defined (cobol_$perform_para_index);
  3   150 dcl cobol_$perform_sect_index fixed bin ext;
  3   151 dcl perform_sect_index fixed bin defined (cobol_$perform_sect_index);
  3   152 dcl cobol_$alter_index fixed bin ext;
  3   153 dcl alter_index fixed bin defined (cobol_$alter_index);
  3   154 dcl cobol_$list_off fixed bin ext;
  3   155 dcl list_off fixed bin defined (cobol_$list_off);
  3   156 dcl cobol_$constant_offset fixed bin ext;
  3   157 dcl constant_offset fixed bin defined (cobol_$constant_offset);
  3   158 dcl cobol_$misc_max fixed bin ext;
  3   159 dcl misc_max fixed bin defined (cobol_$misc_max);
  3   160 dcl cobol_$pd_map_max fixed bin ext;
  3   161 dcl pd_map_max fixed bin defined (cobol_$pd_map_max);
  3   162 dcl cobol_$map_data_max fixed bin ext;
  3   163 dcl map_data_max fixed bin defined (cobol_$map_data_max);
  3   164 dcl cobol_$fixup_max fixed bin ext;
  3   165 dcl fixup_max fixed bin defined (cobol_$fixup_max);
  3   166 dcl cobol_$tag_table_max fixed bin ext;
  3   167 dcl tag_table_max fixed bin defined (cobol_$tag_table_max);
  3   168 dcl cobol_$temp_token_max fixed bin ext;
  3   169 dcl temp_token_max fixed bin defined (cobol_$temp_token_max);
  3   170 dcl cobol_$allo1_max fixed bin ext;
  3   171 dcl allo1_max fixed bin defined (cobol_$allo1_max);
  3   172 dcl cobol_$eln_max fixed bin ext;
  3   173 dcl eln_max fixed bin defined (cobol_$eln_max);
  3   174 dcl cobol_$debug_enable fixed bin ext;
  3   175 dcl debug_enable fixed bin defined (cobol_$debug_enable);
  3   176 dcl cobol_$non_source_offset fixed bin ext;
  3   177 dcl non_source_offset fixed bin defined (cobol_$non_source_offset);
  3   178 dcl cobol_$initval_flag fixed bin ext;
  3   179 dcl initval_flag fixed bin defined (cobol_$initval_flag);
  3   180 dcl cobol_$date_compiled_sw fixed bin ext;
  3   181 dcl date_compiled_sw fixed bin defined (cobol_$date_compiled_sw);
  3   182 dcl cobol_$include_cnt fixed bin ext;
  3   183 dcl include_cnt fixed bin defined (cobol_$include_cnt);
  3   184 dcl cobol_$fs_charcnt fixed bin ext;
  3   185 dcl fs_charcnt fixed bin defined (cobol_$fs_charcnt);
  3   186 dcl cobol_$ws_charcnt fixed bin ext;
  3   187 dcl ws_charcnt fixed bin defined (cobol_$ws_charcnt);
  3   188 dcl cobol_$coms_charcnt fixed bin ext;
  3   189 dcl coms_charcnt fixed bin defined (cobol_$coms_charcnt);
  3   190 dcl cobol_$ls_charcnt fixed bin ext;
  3   191 dcl ls_charcnt fixed bin defined (cobol_$ls_charcnt);
  3   192 dcl cobol_$cons_charcnt fixed bin ext;
  3   193 dcl cons_charcnt fixed bin defined (cobol_$cons_charcnt);
  3   194 dcl cobol_$value_cnt fixed bin ext;
  3   195 dcl value_cnt fixed bin defined (cobol_$value_cnt);
  3   196 dcl cobol_$cd_cnt fixed bin ext;
  3   197 dcl cd_cnt fixed bin defined (cobol_$cd_cnt);
  3   198 dcl cobol_$fs_wdoff fixed bin ext;
  3   199 dcl fs_wdoff fixed bin defined (cobol_$fs_wdoff);
  3   200 dcl cobol_$ws_wdoff fixed bin ext;
  3   201 dcl ws_wdoff fixed bin defined (cobol_$ws_wdoff);
  3   202 dcl cobol_$coms_wdoff fixed bin ext;
  3   203 dcl coms_wdoff fixed bin defined (cobol_$coms_wdoff);
  3   204
  3   205 /* CHARACTER */
  3   206 dcl cobol_$scratch_dir char (168)   aligned ext;
  3   207 dcl scratch_dir char (168)   aligned defined (cobol_$scratch_dir);			/* -42- */
  3   208 dcl cobol_$obj_seg_name char (32)   aligned ext;
  3   209 dcl obj_seg_name char (32)   aligned defined (cobol_$obj_seg_name);		/* -8- */
  3   210
  3   211 /* BIT */
  3   212 dcl cobol_$xref_bypass bit(1) aligned ext;
  3   213 dcl xref_bypass bit(1) aligned defined (cobol_$xref_bypass);			/* -1- */
  3   214 dcl cobol_$same_sort_merge_proc bit(1) aligned ext;
  3   215 dcl same_sort_merge_proc bit(1) aligned defined (cobol_$same_sort_merge_proc);		/* -1- */
  3   216
  3   217
  3   218 /* END INCLUDE FILE ... cobol_incl.pl1*/
  3   219
  3   220
  2    21
      103
      104      end cobol_call_op;
	SOURCE FILES USED IN THIS COMPILATION.

LINE      NUMBER  DATE MODIFIED     NAME			PATHNAME
             0    05/24/89  0830.3  cobol_call_op.pl1                 >spec>install>MR12.3-1048>cobol_call_op.pl1
102          1    03/27/82  0439.4  cobol_call_op_info.incl.pl1       >ldd>include>cobol_call_op_info.incl.pl1
103          2    03/27/82  0439.4  cobol_call_op_data.incl.pl1       >ldd>include>cobol_call_op_data.incl.pl1
2-21         3    11/11/82  1712.7  cobol_.incl.pl1                   >ldd>include>cobol_.incl.pl1
	NAMES DECLARED IN THIS COMPILATION.

IDENTIFIER	     OFFSET    LOC STORAGE CLASS   DATA TYPE		ATTRIBUTES AND REFERENCES
								(* indicates a set context)

NAMES DECLARED BY DECLARE STATEMENT.
addr                                                   builtin function         dcl 2-16 ref 62 62 69 69 75 75 87
cobol_$compile_count            000032 external static fixed bin(17,0)          dcl 3-142 ref 45 48
cobol_$text_wd_off              000030 external static fixed bin(17,0)          dcl 3-90 ref 70 77
cobol_emit                      000020 constant        entry                    external dcl 2-7 ref 62 69 75
cobol_make_tagref               000026 constant        entry                    external dcl 2-7 ref 70 77
cobol_reg_manager$after_op      000024 constant        entry                    external dcl 2-7 ref 66
cobol_reg_manager$before_op     000022 constant        entry                    external dcl 2-7 ref 57
first_time                      000010 internal static fixed bin(17,0)          dcl 2-1 set ref 45 48*
inst_seq                        000102 automatic       bit(18)                  initial array packed unaligned dcl 35 set ref 35*
                                                                                  35* 35* 35* 59* 62 62 69 69 75 75
null                                                   builtin function         dcl 2-16 ref 62 62 69 69 70 70 75 75 77 77
op_bit                          000011 internal static bit(200)                 packed unaligned dcl 2-1 set ref 49* 54* 87
op_num                                 parameter       fixed bin(17,0)          dcl 28 ref 25 52 59 90
operator_struc_ptr                     parameter       pointer                  dcl 85 set ref 83 87*
substr                                                 builtin function         dcl 2-16 set ref 54* 59* 59
tag1                                   parameter       fixed bin(17,0)          dcl 28 ref 90 94
tag_1                           000100 automatic       fixed bin(17,0)          dcl 31 set ref 43* 73 77* 94*
tagno                                  parameter       fixed bin(17,0)          dcl 28 set ref 25 64 70* 90
temp                            000101 automatic       fixed bin(17,0)          dcl 34 set ref 52* 54 54 57* 66*
unspec                                                 builtin function         dcl 2-16 ref 59

NAMES DECLARED BY DECLARE STATEMENT AND NEVER REFERENCED.
addrel                                                 builtin function         dcl 2-16
allo1_max                              defined         fixed bin(17,0)          dcl 3-171
allo1_ptr                              defined         pointer                  dcl 3-67
alter_flag                             defined         fixed bin(17,0)          dcl 3-135
alter_index                            defined         fixed bin(17,0)          dcl 3-153
alter_list_ptr                         defined         pointer                  dcl 3-39
binary                                                 builtin function         dcl 2-16
cd_cnt                                 defined         fixed bin(17,0)          dcl 3-197
cobol_$allo1_max                       external static fixed bin(17,0)          dcl 3-170
cobol_$allo1_ptr                       external static pointer                  dcl 3-66
cobol_$alter_flag                      external static fixed bin(17,0)          dcl 3-134
cobol_$alter_index                     external static fixed bin(17,0)          dcl 3-152
cobol_$alter_list_ptr                  external static pointer                  dcl 3-38
cobol_$cd_cnt                          external static fixed bin(17,0)          dcl 3-196
cobol_$cobol_data_wd_off               external static fixed bin(17,0)          dcl 3-118
cobol_$coms_charcnt                    external static fixed bin(17,0)          dcl 3-188
cobol_$coms_wdoff                      external static fixed bin(17,0)          dcl 3-202
cobol_$con_end_ptr                     external static pointer                  dcl 3-10
cobol_$con_wd_off                      external static fixed bin(17,0)          dcl 3-92
cobol_$cons_charcnt                    external static fixed bin(17,0)          dcl 3-192
cobol_$constant_offset                 external static fixed bin(17,0)          dcl 3-156
cobol_$data_init_flag                  external static fixed bin(17,0)          dcl 3-130
cobol_$date_compiled_sw                external static fixed bin(17,0)          dcl 3-180
cobol_$debug_enable                    external static fixed bin(17,0)          dcl 3-174
cobol_$def_base_ptr                    external static pointer                  dcl 3-12
cobol_$def_max                         external static fixed bin(17,0)          dcl 3-96
cobol_$def_wd_off                      external static fixed bin(17,0)          dcl 3-94
cobol_$diag_ptr                        external static pointer                  dcl 3-70
cobol_$eln_max                         external static fixed bin(17,0)          dcl 3-172
cobol_$eln_ptr                         external static pointer                  dcl 3-68
cobol_$fixup_max                       external static fixed bin(17,0)          dcl 3-164
cobol_$fixup_ptr                       external static pointer                  dcl 3-30
cobol_$fs_charcnt                      external static fixed bin(17,0)          dcl 3-184
cobol_$fs_wdoff                        external static fixed bin(17,0)          dcl 3-198
cobol_$include_cnt                     external static fixed bin(17,0)          dcl 3-182
cobol_$include_info_ptr                external static pointer                  dcl 3-86
cobol_$init_stack_off                  external static fixed bin(17,0)          dcl 3-124
cobol_$initval_base_ptr                external static pointer                  dcl 3-32
cobol_$initval_file_ptr                external static pointer                  dcl 3-34
cobol_$initval_flag                    external static fixed bin(17,0)          dcl 3-178
cobol_$link_base_ptr                   external static pointer                  dcl 3-14
cobol_$link_max                        external static fixed bin(17,0)          dcl 3-100
cobol_$link_wd_off                     external static fixed bin(17,0)          dcl 3-98
cobol_$list_off                        external static fixed bin(17,0)          dcl 3-154
cobol_$list_ptr                        external static pointer                  dcl 3-64
cobol_$ls_charcnt                      external static fixed bin(17,0)          dcl 3-190
cobol_$main_pcs_ptr                    external static pointer                  dcl 3-84
cobol_$map_data_max                    external static fixed bin(17,0)          dcl 3-162
cobol_$map_data_ptr                    external static pointer                  dcl 3-54
cobol_$max_stack_off                   external static fixed bin(17,0)          dcl 3-122
cobol_$minpral5_ptr                    external static pointer                  dcl 3-50
cobol_$misc_base_ptr                   external static pointer                  dcl 3-60
cobol_$misc_end_ptr                    external static pointer                  dcl 3-62
cobol_$misc_max                        external static fixed bin(17,0)          dcl 3-158
cobol_$next_tag                        external static fixed bin(17,0)          dcl 3-128
cobol_$non_source_offset               external static fixed bin(17,0)          dcl 3-176
cobol_$ntbuf_ptr                       external static pointer                  dcl 3-82
cobol_$obj_seg_name                    external static char(32)                 dcl 3-208
cobol_$op_con_ptr                      external static pointer                  dcl 3-80
cobol_$para_eop_flag                   external static fixed bin(17,0)          dcl 3-138
cobol_$pd_map_index                    external static fixed bin(17,0)          dcl 3-116
cobol_$pd_map_max                      external static fixed bin(17,0)          dcl 3-160
cobol_$pd_map_ptr                      external static pointer                  dcl 3-28
cobol_$pd_map_sw                       external static fixed bin(17,0)          dcl 3-126
cobol_$perform_list_ptr                external static pointer                  dcl 3-36
cobol_$perform_para_index              external static fixed bin(17,0)          dcl 3-148
cobol_$perform_sect_index              external static fixed bin(17,0)          dcl 3-150
cobol_$priority_no                     external static fixed bin(17,0)          dcl 3-140
cobol_$ptr_assumption_ind              external static fixed bin(17,0)          dcl 3-144
cobol_$ptr_status_ptr                  external static pointer                  dcl 3-56
cobol_$reg_assumption_ind              external static fixed bin(17,0)          dcl 3-146
cobol_$reg_status_ptr                  external static pointer                  dcl 3-58
cobol_$reloc_def_base_ptr              external static pointer                  dcl 3-20
cobol_$reloc_def_max                   external static fixed bin(24,0)          dcl 3-108
cobol_$reloc_link_base_ptr             external static pointer                  dcl 3-22
cobol_$reloc_link_max                  external static fixed bin(24,0)          dcl 3-110
cobol_$reloc_sym_base_ptr              external static pointer                  dcl 3-24
cobol_$reloc_sym_max                   external static fixed bin(24,0)          dcl 3-112
cobol_$reloc_text_base_ptr             external static pointer                  dcl 3-18
cobol_$reloc_text_max                  external static fixed bin(24,0)          dcl 3-106
cobol_$reloc_work_base_ptr             external static pointer                  dcl 3-26
cobol_$reloc_work_max                  external static fixed bin(24,0)          dcl 3-114
cobol_$reswd_ptr                       external static pointer                  dcl 3-78
cobol_$same_sort_merge_proc            external static bit(1)                   dcl 3-214
cobol_$scratch_dir                     external static char(168)                dcl 3-206
cobol_$sect_eop_flag                   external static fixed bin(17,0)          dcl 3-136
cobol_$seg_init_flag                   external static fixed bin(17,0)          dcl 3-132
cobol_$seg_init_list_ptr               external static pointer                  dcl 3-40
cobol_$stack_off                       external static fixed bin(17,0)          dcl 3-120
cobol_$statement_info_ptr              external static pointer                  dcl 3-76
cobol_$sym_base_ptr                    external static pointer                  dcl 3-16
cobol_$sym_max                         external static fixed bin(17,0)          dcl 3-104
cobol_$sym_wd_off                      external static fixed bin(17,0)          dcl 3-102
cobol_$tag_table_max                   external static fixed bin(17,0)          dcl 3-166
cobol_$tag_table_ptr                   external static pointer                  dcl 3-52
cobol_$temp_token_area_ptr             external static pointer                  dcl 3-42
cobol_$temp_token_max                  external static fixed bin(17,0)          dcl 3-168
cobol_$temp_token_ptr                  external static pointer                  dcl 3-44
cobol_$text_base_ptr                   external static pointer                  dcl 3-8
cobol_$token_block1_ptr                external static pointer                  dcl 3-46
cobol_$token_block2_ptr                external static pointer                  dcl 3-48
cobol_$value_cnt                       external static fixed bin(17,0)          dcl 3-194
cobol_$ws_charcnt                      external static fixed bin(17,0)          dcl 3-186
cobol_$ws_wdoff                        external static fixed bin(17,0)          dcl 3-200
cobol_$xref_bypass                     external static bit(1)                   dcl 3-212
cobol_$xref_chain_ptr                  external static pointer                  dcl 3-74
cobol_$xref_token_ptr                  external static pointer                  dcl 3-72
cobol_data_wd_off                      defined         fixed bin(17,0)          dcl 3-119
compile_count                          defined         fixed bin(17,0)          dcl 3-143
coms_charcnt                           defined         fixed bin(17,0)          dcl 3-189
coms_wdoff                             defined         fixed bin(17,0)          dcl 3-203
con_end_ptr                            defined         pointer                  dcl 3-11
con_wd_off                             defined         fixed bin(17,0)          dcl 3-93
cons_charcnt                           defined         fixed bin(17,0)          dcl 3-193
constant_offset                        defined         fixed bin(17,0)          dcl 3-157
data_init_flag                         defined         fixed bin(17,0)          dcl 3-131
date_compiled_sw                       defined         fixed bin(17,0)          dcl 3-181
debug_enable                           defined         fixed bin(17,0)          dcl 3-175
def_base_ptr                           defined         pointer                  dcl 3-13
def_max                                defined         fixed bin(17,0)          dcl 3-97
def_wd_off                             defined         fixed bin(17,0)          dcl 3-95
diag_ptr                               defined         pointer                  dcl 3-71
eln_max                                defined         fixed bin(17,0)          dcl 3-173
eln_ptr                                defined         pointer                  dcl 3-69
fixed                                                  builtin function         dcl 2-16
fixup_max                              defined         fixed bin(17,0)          dcl 3-165
fixup_ptr                              defined         pointer                  dcl 3-31
fs_charcnt                             defined         fixed bin(17,0)          dcl 3-185
fs_wdoff                               defined         fixed bin(17,0)          dcl 3-199
include_cnt                            defined         fixed bin(17,0)          dcl 3-183
include_info_ptr                       defined         pointer                  dcl 3-87
index                                                  builtin function         dcl 2-16
init_stack_off                         defined         fixed bin(17,0)          dcl 3-125
initval_base_ptr                       defined         pointer                  dcl 3-33
initval_file_ptr                       defined         pointer                  dcl 3-35
initval_flag                           defined         fixed bin(17,0)          dcl 3-179
length                                                 builtin function         dcl 2-16
link_base_ptr                          defined         pointer                  dcl 3-15
link_max                               defined         fixed bin(17,0)          dcl 3-101
link_wd_off                            defined         fixed bin(17,0)          dcl 3-99
list_off                               defined         fixed bin(17,0)          dcl 3-155
list_ptr                               defined         pointer                  dcl 3-65
ls_charcnt                             defined         fixed bin(17,0)          dcl 3-191
main_pcs_ptr                           defined         pointer                  dcl 3-85
map_data_max                           defined         fixed bin(17,0)          dcl 3-163
map_data_ptr                           defined         pointer                  dcl 3-55
max_stack_off                          defined         fixed bin(17,0)          dcl 3-123
minpral5_ptr                           defined         pointer                  dcl 3-51
misc_base_ptr                          defined         pointer                  dcl 3-61
misc_end_ptr                           defined         pointer                  dcl 3-63
misc_max                               defined         fixed bin(17,0)          dcl 3-159
mod                                                    builtin function         dcl 2-16
next_tag                               defined         fixed bin(17,0)          dcl 3-129
non_source_offset                      defined         fixed bin(17,0)          dcl 3-177
ntbuf_ptr                              defined         pointer                  dcl 3-83
obj_seg_name                           defined         char(32)                 dcl 3-209
op_con_ptr                             defined         pointer                  dcl 3-81
para_eop_flag                          defined         fixed bin(17,0)          dcl 3-139
pd_map_index                           defined         fixed bin(17,0)          dcl 3-117
pd_map_max                             defined         fixed bin(17,0)          dcl 3-161
pd_map_ptr                             defined         pointer                  dcl 3-29
pd_map_sw                              defined         fixed bin(17,0)          dcl 3-127
perform_list_ptr                       defined         pointer                  dcl 3-37
perform_para_index                     defined         fixed bin(17,0)          dcl 3-149
perform_sect_index                     defined         fixed bin(17,0)          dcl 3-151
priority_no                            defined         fixed bin(17,0)          dcl 3-141
ptr_assumption_ind                     defined         fixed bin(17,0)          dcl 3-145
ptr_status_ptr                         defined         pointer                  dcl 3-57
reg_assumption_ind                     defined         fixed bin(17,0)          dcl 3-147
reg_status_ptr                         defined         pointer                  dcl 3-59
rel                                                    builtin function         dcl 2-16
reloc_def_base_ptr                     defined         pointer                  dcl 3-21
reloc_def_max                          defined         fixed bin(24,0)          dcl 3-109
reloc_link_base_ptr                    defined         pointer                  dcl 3-23
reloc_link_max                         defined         fixed bin(24,0)          dcl 3-111
reloc_sym_base_ptr                     defined         pointer                  dcl 3-25
reloc_sym_max                          defined         fixed bin(24,0)          dcl 3-113
reloc_text_base_ptr                    defined         pointer                  dcl 3-19
reloc_text_max                         defined         fixed bin(24,0)          dcl 3-107
reloc_work_base_ptr                    defined         pointer                  dcl 3-27
reloc_work_max                         defined         fixed bin(24,0)          dcl 3-115
reswd_ptr                              defined         pointer                  dcl 3-79
same_sort_merge_proc                   defined         bit(1)                   dcl 3-215
scratch_dir                            defined         char(168)                dcl 3-207
sect_eop_flag                          defined         fixed bin(17,0)          dcl 3-137
seg_init_flag                          defined         fixed bin(17,0)          dcl 3-133
seg_init_list_ptr                      defined         pointer                  dcl 3-41
stack_off                              defined         fixed bin(17,0)          dcl 3-121
statement_info_ptr                     defined         pointer                  dcl 3-77
string                                                 builtin function         dcl 2-16
sym_base_ptr                           defined         pointer                  dcl 3-17
sym_max                                defined         fixed bin(17,0)          dcl 3-105
sym_wd_off                             defined         fixed bin(17,0)          dcl 3-103
tag_table_max                          defined         fixed bin(17,0)          dcl 3-167
tag_table_ptr                          defined         pointer                  dcl 3-53
temp_token_area_ptr                    defined         pointer                  dcl 3-43
temp_token_max                         defined         fixed bin(17,0)          dcl 3-169
temp_token_ptr                         defined         pointer                  dcl 3-45
text_base_ptr                          defined         pointer                  dcl 3-9
text_wd_off                            defined         fixed bin(17,0)          dcl 3-91
token_block1_ptr                       defined         pointer                  dcl 3-47
token_block2_ptr                       defined         pointer                  dcl 3-49
value_cnt                              defined         fixed bin(17,0)          dcl 3-195
ws_charcnt                             defined         fixed bin(17,0)          dcl 3-187
ws_wdoff                               defined         fixed bin(17,0)          dcl 3-201
xref_bypass                            defined         bit(1)                   dcl 3-213
xref_chain_ptr                         defined         pointer                  dcl 3-75
xref_token_ptr                         defined         pointer                  dcl 3-73

NAMES DECLARED BY EXPLICIT CONTEXT.
cobol_call_op                   000044 constant        entry                    external dcl 25
get_op                          000255 constant        entry                    external dcl 83
skip                            000274 constant        entry                    external dcl 90
start                           000053 constant        label                    dcl 45 ref 96

THERE WERE NO NAMES DECLARED BY CONTEXT OR IMPLICATION.

STORAGE REQUIREMENTS FOR THIS PROGRAM.

	Object	Text	Link	Symbol	Defs	Static
Start          0       0       434         470     316         444
Length       722     316        34         216     115          10

BLOCK NAME	         STACK SIZE     TYPE		WHY NONQUICK/WHO SHARES STACK FRAME
cobol_call_op                        88 external procedure  is an external procedure.

STORAGE FOR INTERNAL STATIC VARIABLES.

   LOC IDENTIFIER                  BLOCK NAME
000010 first_time                  cobol_call_op
000011 op_bit                      cobol_call_op

STORAGE FOR AUTOMATIC VARIABLES.

STACK FRAME                 LOC IDENTIFIER                  BLOCK NAME
cobol_call_op            000100 tag_1                       cobol_call_op
                         000101 temp                        cobol_call_op
                         000102 inst_seq                    cobol_call_op

THE FOLLOWING EXTERNAL OPERATORS ARE USED BY THIS PROGRAM.
call_ext_out        return_mac          ext_entry

THE FOLLOWING EXTERNAL ENTRIES ARE CALLED BY THIS PROGRAM.
cobol_emit                    cobol_make_tagref             cobol_reg_manager$after_op    cobol_reg_manager$before_op

THE FOLLOWING EXTERNAL VARIABLES ARE USED BY THIS PROGRAM.
cobol_$compile_count          cobol_$text_wd_off


   LINE    LOC      LINE    LOC      LINE    LOC      LINE    LOC      LINE    LOC      LINE    LOC      LINE    LOC
     35 000005        25 000040        43 000052        45 000053        48 000057        49 000061        52 000064
     54 000067        57 000074        59 000102        62 000110        64 000131        66 000134        67 000143
     69 000144        70 000165        73 000206        75 000210        77 000231        81 000251        83 000252
     87 000263        88 000267        90 000270        94 000302        96 000305


                                          -----------------------------------------------------------


Historical Background

This edition of the Multics software materials and documentation is provided and donated
to Massachusetts Institute of Technology by Group BULL including BULL HN Information Systems Inc.
as a contribution to computer science knowledge.
This donation is made also to give evidence of the common contributions of Massachusetts Institute of Technology,
Bell Laboratories, General Electric, Honeywell Information Systems Inc., Honeywell BULL Inc., Groupe BULL
and BULL HN Information Systems Inc. to the development of this operating system.
Multics development was initiated by Massachusetts Institute of Technology Project MAC (1963-1970),
renamed the MIT Laboratory for Computer Science and Artificial Intelligence in the mid 1970s, under the leadership
of Professor Fernando Jose Corbato. Users consider that Multics provided the best software architecture
for managing computer hardware properly and for executing programs. Many subsequent operating systems
incorporated Multics principles.
Multics was distributed in 1975 to 2000 by Group Bull in Europe , and in the U.S. by Bull HN Information Systems Inc.,
as successor in interest by change in name only to Honeywell Bull Inc. and Honeywell Information Systems Inc. .

                                          -----------------------------------------------------------

Permission to use, copy, modify, and distribute these programs and their documentation for any purpose and without
fee is hereby granted,provided that the below copyright notice and historical background appear in all copies
and that both the copyright notice and historical background and this permission notice appear in supporting
documentation, and that the names of MIT, HIS, BULL or BULL HN not be used in advertising or publicity pertaining
to distribution of the programs without specific prior written permission.
    Copyright 1972 by Massachusetts Institute of Technology and Honeywell Information Systems Inc.
    Copyright 2006 by BULL HN Information Systems Inc.
    Copyright 2006 by Bull SAS
    All Rights Reserved
