ASSEMBLY LISTING OF SEGMENT >spec>install>MR12.3-1048>cobol_ddst.alm
ASSEMBLED ON:	05/24/89  0927.1 mst Wed
OPTIONS USED:	-target l68                              list symbols
ASSEMBLED BY:	ALM Version 8.13 September 1988
ASSEMBLER CREATED:	10/24/88  1635.1 mst Mon

                                     1  " *********************************************************
                                     2  " *                                                       *
                                     3  " * Copyright, (C) BULL HN Information Systems Inc., 1989 *
                                     4  " *                                                       *
                                     5  " * Copyright (c) 1972 by Massachusetts Institute of      *
                                     6  " * Technology and Honeywell Information Systems, Inc.    *
                                     7  " *                                                       *
                                     8  " *********************************************************
                                     9
                                    10  " HISTORY COMMENTS:
                                    11  "  1) change(89-04-23,Zimmerman), approve(89-04-23,MCR8083),
                                    12  "     audit(89-05-05,RWaters), install(89-05-24,MR12.3-1048):
                                    13  "     MCR8083 cobol_ddst.alm Fix bug detecting illegal level 77 group item.
                                    14  "                                                      END HISTORY COMMENTS
                                    15
                                    16
    000000                          17  name	cobol_ddst
                        000000      18  	entry	cobol_ddst
    000000  aa   000060 6270 00     19  cobol_ddst:	save
    000001  aa  7 00040 2721 20
    000002  0a   000000 3520 00     20  	epp2	cobol_ddst
    000003  aa  0 00002 2521 20     21  	spri2	ap|2,*
    000004  aa  7 00042 7101 20     22  	return
                        000000      23  		equ i_r,0
                        000001      24  		equ i_c,1
                        000003      25  		equ i_s,3
                        000002      26  		equ i_n,2
                        000004      27  		equ i_k,4
                        000005      28  		equ i_K,5
                        000000      29  		equ l_org,*-5
    000005  aa   163040 040040      30  		vfd a36/s   ,36/i_r,36/r_per,36/(l_1-l_org)/5,36/0
    000006  aa   000000 000000
    000007  aa   000000 000275
    000010  aa   000000 000002
    000011  aa   000000 000000
    000012  aa   040040 040040      31  l_1:	start:	vfd a36/    ,36/i_n,36/0,36/(l_2-l_org)/5,36/a_3
    000013  aa   000000 000002
    000014  aa   000000 000000
    000015  aa   000000 000003
    000016  aa   000000 000143
    000017  aa   040040 040040      32  l_2:	sj:	vfd a36/    ,36/i_c,36/c_1,36/(l_3-l_org)/5,36/a_4
    000020  aa   000000 000001
    000021  aa   000000 000001
    000022  aa   000000 000005
    000023  aa   000000 000004
    000024  aa   040040 040040      33  		vfd a36/    ,36/i_n,36/001,36/(r1dg-l_org)/5,36/0
    000025  aa   000000 000002
    000026  aa   000000 000001
    000027  aa   000000 001211
    000030  aa   000000 000000
    000031  aa   163040 040040      34  l_3:	jumpbase0:	vfd a36/s   ,36/i_n,36/0,36/(fs-l_org)/5,36/0
    000032  aa   000000 000002
    000033  aa   000000 000000
    000034  aa   000000 000612
    000035  aa   000000 000000
    000036  aa   163040 040040      35  		vfd a36/s   ,36/i_n,36/0,36/(l_4-l_org)/5,36/a_138
    000037  aa   000000 000002
    000040  aa   000000 000000
    000041  aa   000000 000015
    000042  aa   000000 000340
    000043  aa   040040 040040      36  		vfd a36/    ,36/i_n,36/0,36/(cns-l_org)/5,36/a_138
    000044  aa   000000 000002
    000045  aa   000000 000000
    000046  aa   000000 000036
    000047  aa   000000 000340
    000050  aa   040040 040040      37  		vfd a36/    ,36/i_n,36/0,36/(lks-l_org)/5,36/a_138
    000051  aa   000000 000002
    000052  aa   000000 000000
    000053  aa   000000 000051
    000054  aa   000000 000340
    000055  aa   040040 040040      38  		vfd a36/    ,36/i_n,36/0,36/(cms-l_org)/5,36/a_138
    000056  aa   000000 000002
    000057  aa   000000 000000
    000060  aa   000000 001456
    000061  aa   000000 000340
    000062  aa   163040 040040      39  		vfd a36/s   ,36/i_n,36/0,36/(rs-l_org)/5,36/0
    000063  aa   000000 000002
    000064  aa   000000 000000
    000065  aa   000000 000030
    000066  aa   000000 000000
    000067  aa   040040 040040      40  		vfd a36/    ,36/i_n,36/0,36/(pd-l_org)/5,36/0
    000070  aa   000000 000002
    000071  aa   000000 000000
    000072  aa   000000 000606
    000073  aa   000000 000000
    000074  aa   163040 040040      41  		vfd a36/s   ,36/i_n,36/0,36/(eop-l_org)/5,36/0
    000075  aa   000000 000002
    000076  aa   000000 000000
    000077  aa   000000 000607
    000100  aa   000000 000000
    000101  aa   163040 040040      42  l_4:		vfd a36/s   ,36/i_r,36/r_section,36/(l_5-l_org)/5,36/0
    000102  aa   000000 000000
    000103  aa   000000 000236
    000104  aa   000000 000017
    000105  aa   000000 000000
    000106  aa   040040 040040      43  		vfd a36/    ,36/i_n,36/002,36/(l_5-l_org)/5,36/0
    000107  aa   000000 000002
    000110  aa   000000 000002
    000111  aa   000000 000017
    000112  aa   000000 000000
    000113  aa   163040 040040      44  l_5:		vfd a36/s   ,36/i_r,36/r_per,36/(l_6-l_org)/5,36/0
    000114  aa   000000 000000
    000115  aa   000000 000275
    000116  aa   000000 000021
    000117  aa   000000 000000
    000120  aa   040040 040040      45  		vfd a36/    ,36/i_n,36/003,36/(l_6-l_org)/5,36/a_168
    000121  aa   000000 000002
    000122  aa   000000 000003
    000123  aa   000000 000021
    000124  aa   000000 000022
    000125  aa   040040 040040      46  l_6:		vfd a36/    ,36/i_c,36/c_74,36/(l_7-l_org)/5,36/0
    000126  aa   000000 000001
    000127  aa   000000 000112
    000130  aa   000000 000022
    000131  aa   000000 000000
    000132  aa   040040 040040      47  l_7:	wssstrt:	vfd a36/    ,36/i_c,36/c_2,36/(l_8-l_org)/5,36/0
    000133  aa   000000 000001
    000134  aa   000000 000002
    000135  aa   000000 000024
    000136  aa   000000 000000
    000137  aa   040040 040040      48  		vfd a36/    ,36/i_n,36/005,36/(l_8-l_org)/5,36/0
    000140  aa   000000 000002
    000141  aa   000000 000005
    000142  aa   000000 000024
    000143  aa   000000 000000
    000144  aa   040040 040040      49  l_8:		vfd a36/    ,36/i_c,36/c_3,36/(l_9-l_org)/5,36/a_5
    000145  aa   000000 000001
    000146  aa   000000 000003
    000147  aa   000000 000026
    000150  aa   000000 000062
    000151  aa   040040 040040      50  		vfd a36/    ,36/i_n,36/027,36/(l_9-l_org)/5,36/0
    000152  aa   000000 000002
    000153  aa   000000 000033
    000154  aa   000000 000026
    000155  aa   000000 000000
    000156  aa   040040 040040      51  l_9:		vfd a36/    ,36/i_s,36/(databody-l_org)/5,36/(sj-l_org)/5,36/a_6
    000157  aa   000000 000003
    000160  aa   000000 000064
    000161  aa   000000 000003
    000162  aa   000000 000063
    000163  aa   040040 040040      52  		vfd a36/    ,36/i_n,36/129,36/(sj-l_org)/5,36/a_6
    000164  aa   000000 000002
    000165  aa   000000 000201
    000166  aa   000000 000003
    000167  aa   000000 000063
    000170  aa   163040 040040      53  	rs:	vfd a36/s   ,36/i_r,36/r_section,36/(l_10-l_org)/5,36/0
    000171  aa   000000 000000
    000172  aa   000000 000236
    000173  aa   000000 000032
    000174  aa   000000 000000
    000175  aa   040040 040040      54  		vfd a36/    ,36/i_n,36/0,36/(l_10-l_org)/5,36/0
    000176  aa   000000 000002
    000177  aa   000000 000000
    000200  aa   000000 000032
    000201  aa   000000 000000
    000202  aa   163040 040040      55  l_10:		vfd a36/s   ,36/i_r,36/r_per,36/(l_11-l_org)/5,36/0
    000203  aa   000000 000000
    000204  aa   000000 000275
    000205  aa   000000 000034
    000206  aa   000000 000000
    000207  aa   040040 040040      56  		vfd a36/    ,36/i_n,36/0,36/(l_11-l_org)/5,36/0
    000210  aa   000000 000002
    000211  aa   000000 000000
    000212  aa   000000 000034
    000213  aa   000000 000000
    000214  aa   040040 040040      57  l_11:		vfd a36/    ,36/i_s,36/(databody-l_org)/5,36/(sj-l_org)/5,36/0
    000215  aa   000000 000003
    000216  aa   000000 000064
    000217  aa   000000 000003
    000220  aa   000000 000000
    000221  aa   040040 040040      58  		vfd a36/    ,36/i_n,36/0,36/(sj-l_org)/5,36/0
    000222  aa   000000 000002
    000223  aa   000000 000000
    000224  aa   000000 000003
    000225  aa   000000 000000
    000226  aa   163065 040040      59  	cns:	vfd a36/s5  ,36/i_n,36/103,36/(l_12-l_org)/5,36/25
    000227  aa   000000 000002
    000230  aa   000000 000147
    000231  aa   000000 000037
    000232  aa   000000 000031
    000233  aa   163040 040040      60  l_12:		vfd a36/s   ,36/i_r,36/r_section,36/(l_13-l_org)/5,36/0
    000234  aa   000000 000000
    000235  aa   000000 000236
    000236  aa   000000 000041
    000237  aa   000000 000000
    000240  aa   040040 040040      61  		vfd a36/    ,36/i_n,36/002,36/(l_13-l_org)/5,36/0
    000241  aa   000000 000002
    000242  aa   000000 000002
    000243  aa   000000 000041
    000244  aa   000000 000000
    000245  aa   163040 040040      62  l_13:		vfd a36/s   ,36/i_r,36/r_per,36/(l_14-l_org)/5,36/0
    000246  aa   000000 000000
    000247  aa   000000 000275
    000250  aa   000000 000043
    000251  aa   000000 000000
    000252  aa   040040 040040      63  		vfd a36/    ,36/i_n,36/003,36/(l_14-l_org)/5,36/a_168
    000253  aa   000000 000002
    000254  aa   000000 000003
    000255  aa   000000 000043
    000256  aa   000000 000022
    000257  aa   040040 040040      64  l_14:		vfd a36/    ,36/i_c,36/c_4,36/(l_15-l_org)/5,36/0
    000260  aa   000000 000001
    000261  aa   000000 000004
    000262  aa   000000 000045
    000263  aa   000000 000000
    000264  aa   040040 040040      65  		vfd a36/    ,36/i_n,36/005,36/(l_15-l_org)/5,36/0
    000265  aa   000000 000002
    000266  aa   000000 000005
    000267  aa   000000 000045
    000270  aa   000000 000000
    000271  aa   040040 040040      66  l_15:		vfd a36/    ,36/i_c,36/c_5,36/(l_16-l_org)/5,36/a_7
    000272  aa   000000 000001
    000273  aa   000000 000005
    000274  aa   000000 000047
    000275  aa   000000 000064
    000276  aa   040040 040040      67  		vfd a36/    ,36/i_n,36/133,36/(l_16-l_org)/5,36/a_7
    000277  aa   000000 000002
    000300  aa   000000 000205
    000301  aa   000000 000047
    000302  aa   000000 000064
    000303  aa   040040 040040      68  l_16:		vfd a36/    ,36/i_s,36/(databody-l_org)/5,36/(sj-l_org)/5,36/0
    000304  aa   000000 000003
    000305  aa   000000 000064
    000306  aa   000000 000003
    000307  aa   000000 000000
    000310  aa   040040 040040      69  		vfd a36/    ,36/i_n,36/0,36/(sj-l_org)/5,36/0
    000311  aa   000000 000002
    000312  aa   000000 000000
    000313  aa   000000 000003
    000314  aa   000000 000000
    000315  aa   163062 040040      70  	lks:	vfd a36/s2  ,36/i_n,36/128,36/(l_17-l_org)/5,36/13
    000316  aa   000000 000002
    000317  aa   000000 000200
    000320  aa   000000 000052
    000321  aa   000000 000015
    000322  aa   163040 040040      71  l_17:		vfd a36/s   ,36/i_r,36/r_section,36/(l_18-l_org)/5,36/0
    000323  aa   000000 000000
    000324  aa   000000 000236
    000325  aa   000000 000054
    000326  aa   000000 000000
    000327  aa   040040 040040      72  		vfd a36/    ,36/i_n,36/002,36/(l_18-l_org)/5,36/0
    000330  aa   000000 000002
    000331  aa   000000 000002
    000332  aa   000000 000054
    000333  aa   000000 000000
    000334  aa   163040 040040      73  l_18:		vfd a36/s   ,36/i_r,36/r_per,36/(l_19-l_org)/5,36/0
    000335  aa   000000 000000
    000336  aa   000000 000275
    000337  aa   000000 000056
    000340  aa   000000 000000
    000341  aa   040040 040040      74  		vfd a36/    ,36/i_n,36/003,36/(l_19-l_org)/5,36/a_168
    000342  aa   000000 000002
    000343  aa   000000 000003
    000344  aa   000000 000056
    000345  aa   000000 000022
    000346  aa   040040 040040      75  l_19:		vfd a36/    ,36/i_c,36/c_6,36/(l_20-l_org)/5,36/0
    000347  aa   000000 000001
    000350  aa   000000 000006
    000351  aa   000000 000060
    000352  aa   000000 000000
    000353  aa   040040 040040      76  		vfd a36/    ,36/i_n,36/005,36/(l_20-l_org)/5,36/0
    000354  aa   000000 000002
    000355  aa   000000 000005
    000356  aa   000000 000060
    000357  aa   000000 000000
    000360  aa   040040 040040      77  l_20:		vfd a36/    ,36/i_c,36/c_7,36/(l_21-l_org)/5,36/a_9
    000361  aa   000000 000001
    000362  aa   000000 000007
    000363  aa   000000 000062
    000364  aa   000000 000065
    000365  aa   040040 040040      78  		vfd a36/    ,36/i_n,36/131,36/(l_21-l_org)/5,36/a_9
    000366  aa   000000 000002
    000367  aa   000000 000203
    000370  aa   000000 000062
    000371  aa   000000 000065
    000372  aa   040040 040040      79  l_21:		vfd a36/    ,36/i_s,36/(databody-l_org)/5,36/(sj-l_org)/5,36/a_10
    000373  aa   000000 000003
    000374  aa   000000 000064
    000375  aa   000000 000003
    000376  aa   000000 000066
    000377  aa   040040 040040      80  		vfd a36/    ,36/i_n,36/0,36/(sj-l_org)/5,36/a_10
    000400  aa   000000 000002
    000401  aa   000000 000000
    000402  aa   000000 000003
    000403  aa   000000 000066
    000404  aa   040040 040040      81  	databody:	vfd a36/    ,36/i_c,36/c_int,36/(l_22-l_org)/5,36/0
    000405  aa   000000 000001
    000406  aa   000000 000010
    000407  aa   000000 000067
    000410  aa   000000 000000
    000411  aa   040040 040040      82  		vfd a36/    ,36/i_c,36/c_62,36/(success-l_org)/5,36/a_1
    000412  aa   000000 000001
    000413  aa   000000 000076
    000414  aa   000000 001770
    000415  aa   000000 000002
    000416  aa   040040 040040      83  		vfd a36/    ,36/i_n,36/038,36/(r7dg-l_org)/5,36/0
    000417  aa   000000 000002
    000420  aa   000000 000046
    000421  aa   000000 001272
    000422  aa   000000 000000
    000423  aa   040040 040040      84  l_22:	test77:	vfd a36/    ,36/i_c,36/c_lev77,36/(entry77-l_org)/5,36/0
    000424  aa   000000 000001
    000425  aa   000000 000011
    000426  aa   000000 000100
    000427  aa   000000 000000
    000430  aa   040040 040040      85  	test01:	vfd a36/    ,36/i_c,36/c_lev01,36/(name01-l_org)/5,36/0
    000431  aa   000000 000001
    000432  aa   000000 000012
    000433  aa   000000 000072
    000434  aa   000000 000000
    000435  aa   040040 040040      86  		vfd a36/    ,36/i_n,36/038,36/(r7dg-l_org)/5,36/0
    000436  aa   000000 000002
    000437  aa   000000 000046
    000440  aa   000000 001272
    000441  aa   000000 000000
    000442  aa   163040 040040      87  	name01:	vfd a36/s   ,36/i_n,36/0,36/(l_23-l_org)/5,36/a_8
    000443  aa   000000 000002
    000444  aa   000000 000000
    000445  aa   000000 000073
    000446  aa   000000 000006
    000447  aa   163040 040040      88  l_23:		vfd a36/s   ,36/i_c,36/c_type8,36/(l_24-l_org)/5,36/a_12
    000450  aa   000000 000001
    000451  aa   000000 000013
    000452  aa   000000 000076
    000453  aa   000000 000007
    000454  aa   163040 040040      89  		vfd a36/s   ,36/i_r,36/r_filler,36/(l_24-l_org)/5,36/a_14
    000455  aa   000000 000000
    000456  aa   000000 000334
    000457  aa   000000 000076
    000460  aa   000000 000010
    000461  aa   040040 040040      90  		vfd a36/    ,36/i_n,36/020,36/(l_24-l_org)/5,36/a_13
    000462  aa   000000 000002
    000463  aa   000000 000024
    000464  aa   000000 000076
    000465  aa   000000 000070
    000466  aa   040040 040040      91  l_24:		vfd a36/    ,36/i_s,36/(record01-l_org)/5,36/(databody-l_org)/5,36/0
    000467  aa   000000 000003
    000470  aa   000000 000130
    000471  aa   000000 000064
    000472  aa   000000 000000
    000473  aa   040040 040040      92  		vfd a36/    ,36/i_n,36/0,36/(databody-l_org)/5,36/0
    000474  aa   000000 000002
    000475  aa   000000 000000
    000476  aa   000000 000064
    000477  aa   000000 000000
    000500  aa   040040 040040      93  	entry77:	vfd a36/    ,36/i_n,36/0,36/(l_25-l_org)/5,36/a_8
    000501  aa   000000 000002
    000502  aa   000000 000000
    000503  aa   000000 000101
    000504  aa   000000 000006
    000505  aa   163040 040040      94  l_25:		vfd a36/s   ,36/i_n,36/0,36/(l_26-l_org)/5,36/a_15
    000506  aa   000000 000002
    000507  aa   000000 000000
    000510  aa   000000 000102
    000511  aa   000000 000071
    000512  aa   163040 040040      95  l_26:		vfd a36/s   ,36/i_c,36/c_type8,36/(l_27-l_org)/5,36/a_12
    000513  aa   000000 000001
    000514  aa   000000 000013
    000515  aa   000000 000105
    000516  aa   000000 000007
    000517  aa   163040 040040      96  		vfd a36/s   ,36/i_r,36/r_filler,36/(l_27-l_org)/5,36/a_14
    000520  aa   000000 000000
    000521  aa   000000 000334
    000522  aa   000000 000105
    000523  aa   000000 000010
    000524  aa   040040 040040      97  		vfd a36/    ,36/i_n,36/020,36/(l_27-l_org)/5,36/a_13
    000525  aa   000000 000002
    000526  aa   000000 000024
    000527  aa   000000 000105
    000530  aa   000000 000070
    000531  aa   040040 040040      98  l_27:		vfd a36/    ,36/i_c,36/c_12,36/(cl77-l_org)/5,36/0
    000532  aa   000000 000001
    000533  aa   000000 000014
    000534  aa   000000 000111
    000535  aa   000000 000000
    000536  aa   163040 040040      99  		vfd a36/s   ,36/i_r,36/r_per,36/(l_28-l_org)/5,36/0
    000537  aa   000000 000000
    000540  aa   000000 000275
    000541  aa   000000 000110
    000542  aa   000000 000000
    000543  aa   040040 040040     100  		vfd a36/    ,36/i_n,36/226,36/(r10dg-l_org)/5,36/0
    000544  aa   000000 000002
    000545  aa   000000 000342
    000546  aa   000000 001327
    000547  aa   000000 000000
    000550  aa   040040 040040     101  l_28:		vfd a36/    ,36/i_n,36/225,36/(r10dg-l_org)/5,36/a_84
    000551  aa   000000 000002
    000552  aa   000000 000341
    000553  aa   000000 001327
    000554  aa   000000 000025
    000555  aa   040040 040040     102  	cl77:	vfd a36/    ,36/i_s,36/(ddclauses-l_org)/5,36/(l_29-l_org)/5,36/a_16
    000556  aa   000000 000003
    000557  aa   000000 000211
    000560  aa   000000 000113
    000561  aa   000000 000072
    000562  aa   040040 040040     103  		vfd a36/    ,36/i_n,36/0,36/(l_29-l_org)/5,36/0
    000563  aa   000000 000002
    000564  aa   000000 000000
    000565  aa   000000 000113
    000566  aa   000000 000000
    000567  aa   040040 040040     104  l_29:	apre77:	vfd a36/    ,36/i_c,36/c_lev0177,36/(l_30-l_org)/5,36/a_17
    000570  aa   000000 000001
    000571  aa   000000 000063
    000572  aa   000000 000114
    000573  aa   000000 000011
    000574  aa   040040 040040     105  l_30:		vfd a36/    ,36/i_c,36/c_lev77,36/(entry77-l_org)/5,36/0
    000575  aa   000000 000001
    000576  aa   000000 000011
    000577  aa   000000 000100
    000600  aa   000000 000000
    000601  aa   040040 040040     106  		vfd a36/    ,36/i_c,36/c_lev01,36/(name01-l_org)/5,36/0
    000602  aa   000000 000001
    000603  aa   000000 000012
    000604  aa   000000 000072
    000605  aa   000000 000000
    000606  aa   040040 040040     107  		vfd a36/    ,36/i_c,36/c_lev88s,36/(l88_1-l_org)/5,36/a_19
    000607  aa   000000 000001
    000610  aa   000000 000100
    000611  aa   000000 000123
    000612  aa   000000 000073
    000613  aa   040040 040040     108  		vfd a36/    ,36/i_n,36/0,36/(l_31-l_org)/5,36/a_17
    000614  aa   000000 000002
    000615  aa   000000 000000
    000616  aa   000000 000120
    000617  aa   000000 000011
    000620  aa   040040 040040     109  l_31:		vfd a36/    ,36/i_c,36/c_62,36/(success-l_org)/5,36/a_1
    000621  aa   000000 000001
    000622  aa   000000 000076
    000623  aa   000000 001770
    000624  aa   000000 000002
    000625  aa   040040 040040     110  		vfd a36/    ,36/i_c,36/c_lev66s,36/(l66_1-l_org)/5,36/0
    000626  aa   000000 000001
    000627  aa   000000 000077
    000630  aa   000000 000126
    000631  aa   000000 000000
    000632  aa   040040 040040     111  		vfd a36/    ,36/i_n,36/028,36/(r7dg-l_org)/5,36/0
    000633  aa   000000 000002
    000634  aa   000000 000034
    000635  aa   000000 001272
    000636  aa   000000 000000
    000637  aa   163063 040040     112  	l88_1:	vfd a36/s3  ,36/i_n,36/139,36/(l_32-l_org)/5,36/2
    000640  aa   000000 000002
    000641  aa   000000 000213
    000642  aa   000000 000124
    000643  aa   000000 000002
    000644  aa   040040 040040     113  l_32:	s7788:	vfd a36/    ,36/i_s,36/(entry88-l_org)/5,36/(apre77-l_org)/5,36/0
    000645  aa   000000 000003
    000646  aa   000000 000466
    000647  aa   000000 000113
    000650  aa   000000 000000
    000651  aa   040040 040040     114  		vfd a36/    ,36/i_n,36/0,36/(apre77-l_org)/5,36/0
    000652  aa   000000 000002
    000653  aa   000000 000000
    000654  aa   000000 000113
    000655  aa   000000 000000
    000656  aa   163063 040040     115  	l66_1:	vfd a36/s3  ,36/i_n,36/140,36/(l_33-l_org)/5,36/2
    000657  aa   000000 000002
    000660  aa   000000 000214
    000661  aa   000000 000127
    000662  aa   000000 000002
    000663  aa   040040 040040     116  l_33:	di66:	vfd a36/    ,36/i_n,36/034,36/(r7dg-l_org)/5,36/0
    000664  aa   000000 000002
    000665  aa   000000 000042
    000666  aa   000000 001272
    000667  aa   000000 000000
    000670  aa   040040 040040     117  	record01:	vfd a36/    ,36/i_n,36/0,36/(l_34-l_org)/5,36/a_20
    000671  aa   000000 000002
    000672  aa   000000 000000
    000673  aa   000000 000131
    000674  aa   000000 000013
    000675  aa   040040 040040     118  l_34:	avant01dd:	vfd a36/    ,36/i_c,36/c_12,36/(av01-l_org)/5,36/0
    000676  aa   000000 000001
    000677  aa   000000 000014
    000700  aa   000000 000136
    000701  aa   000000 000000
    000702  aa   040040 040040     119  		vfd a36/    ,36/i_r,36/r_renames,36/(av01-l_org)/5,36/0
    000703  aa   000000 000000
    000704  aa   000000 000357
    000705  aa   000000 000136
    000706  aa   000000 000000
    000707  aa   163040 040040     120  		vfd a36/s   ,36/i_r,36/r_per,36/(apre01dd-l_org)/5,36/a_18
    000710  aa   000000 000000
    000711  aa   000000 000275
    000712  aa   000000 000140
    000713  aa   000000 000012
    000714  aa   040040 040040     121  		vfd a36/    ,36/i_n,36/0,36/(l_35-l_org)/5,36/a_18
    000715  aa   000000 000002
    000716  aa   000000 000000
    000717  aa   000000 000135
    000720  aa   000000 000012
    000721  aa   040040 040040     122  l_35:		vfd a36/    ,36/i_n,36/35,36/(apre01dd-l_org)/5,36/a_84
    000722  aa   000000 000002
    000723  aa   000000 000043
    000724  aa   000000 000140
    000725  aa   000000 000025
    000726  aa   040040 040040     123  	av01:	vfd a36/    ,36/i_s,36/(ddclauses-l_org)/5,36/(l_36-l_org)/5,36/0
    000727  aa   000000 000003
    000730  aa   000000 000211
    000731  aa   000000 000140
    000732  aa   000000 000000
    000733  aa   040040 040040     124  		vfd a36/    ,36/i_n,36/0,36/(l_36-l_org)/5,36/0
    000734  aa   000000 000002
    000735  aa   000000 000000
    000736  aa   000000 000140
    000737  aa   000000 000000
    000740  aa   040040 040040     125  l_36:	apre01dd:	vfd a36/    ,36/i_n,36/0,36/(l_37-l_org)/5,36/a_136
    000741  aa   000000 000002
    000742  aa   000000 000000
    000743  aa   000000 000141
    000744  aa   000000 000017
    000745  aa   040040 040040     126  l_37:	testnext:	vfd a36/    ,36/i_c,36/c_lev0249,36/(son_1-l_org)/5,36/a_21
    000746  aa   000000 000001
    000747  aa   000000 000021
    000750  aa   000000 000163
    000751  aa   000000 000014
    000752  aa   040040 040040     127  		vfd a36/    ,36/i_c,36/c_55,36/(consisck-l_org)/5,36/a_21
    000753  aa   000000 000001
    000754  aa   000000 000067
    000755  aa   000000 000154
    000756  aa   000000 000014
    000757  aa   040040 040040     128  		vfd a36/    ,36/i_r,36/r_cd,36/(l_38-l_org)/5,36/0
    000760  aa   000000 000000
    000761  aa   000000 000316
    000762  aa   000000 000152
    000763  aa   000000 000000
    000764  aa   040040 040040     129  		vfd a36/    ,36/i_c,36/c_62,36/(consisck-l_org)/5,36/a_21
    000765  aa   000000 000001
    000766  aa   000000 000076
    000767  aa   000000 000154
    000770  aa   000000 000014
    000771  aa   040040 040040     130  		vfd a36/    ,36/i_c,36/c_lev0177,36/(consisck-l_org)/5,36/a_21
    000772  aa   000000 000001
    000773  aa   000000 000063
    000774  aa   000000 000154
    000775  aa   000000 000014
    000776  aa   040040 040040     131  		vfd a36/    ,36/i_c,36/c_lev88s,36/(l88_2-l_org)/5,36/a_19
    000777  aa   000000 000001
    001000  aa   000000 000100
    001001  aa   000000 000170
    001002  aa   000000 000073
    001003  aa   040040 040040     132  		vfd a36/    ,36/i_c,36/c_lev66s,36/(l66_2-l_org)/5,36/a_21
    001004  aa   000000 000001
    001005  aa   000000 000077
    001006  aa   000000 000173
    001007  aa   000000 000014
    001010  aa   163040 040040     133  		vfd a36/s   ,36/i_c,36/c_77,36/(testnext-l_org)/5,36/0
    001011  aa   000000 000001
    001012  aa   000000 000115
    001013  aa   000000 000141
    001014  aa   000000 000000
    001015  aa   040040 040040     134  		vfd a36/    ,36/i_n,36/028,36/(r8dg-l_org)/5,36/0
    001016  aa   000000 000002
    001017  aa   000000 000034
    001020  aa   000000 001301
    001021  aa   000000 000000
    001022  aa   040040 040040     135  l_38:		vfd a36/    ,36/i_n,36/0,36/(l_39-l_org)/5,36/a_74
    001023  aa   000000 000002
    001024  aa   000000 000000
    001025  aa   000000 000153
    001026  aa   000000 000241
    001027  aa   040040 040040     136  l_39:		vfd a36/    ,36/i_n,36/0,36/(l_40-l_org)/5,36/a_21
    001030  aa   000000 000002
    001031  aa   000000 000000
    001032  aa   000000 000154
    001033  aa   000000 000014
    001034  aa   040040 040040     137  l_40:	consisck:	vfd a36/    ,36/i_n,36/0,36/(l_41-l_org)/5,36/a_17
    001035  aa   000000 000002
    001036  aa   000000 000000
    001037  aa   000000 000155
    001040  aa   000000 000011
    001041  aa   040040 040040     138  l_41:		vfd a36/    ,36/i_n,36/0,36/(success-l_org)/5,36/a_1
    001042  aa   000000 000002
    001043  aa   000000 000000
    001044  aa   000000 001770
    001045  aa   000000 000002
    001046  aa   040040 040040     139  	sonitem:	vfd a36/    ,36/i_n,36/0,36/(l_42-l_org)/5,36/a_17
    001047  aa   000000 000002
    001050  aa   000000 000000
    001051  aa   000000 000157
    001052  aa   000000 000011
    001053  aa   163040 040040     140  l_42:		vfd a36/s   ,36/i_n,36/0,36/(l_43-l_org)/5,36/a_8
    001054  aa   000000 000002
    001055  aa   000000 000000
    001056  aa   000000 000160
    001057  aa   000000 000006
    001060  aa   163040 040040     141  l_43:		vfd a36/s   ,36/i_c,36/c_type8,36/(avant01dd-l_org)/5,36/a_12
    001061  aa   000000 000001
    001062  aa   000000 000013
    001063  aa   000000 000131
    001064  aa   000000 000007
    001065  aa   163040 040040     142  	son_2:	vfd a36/s   ,36/i_r,36/r_filler,36/(avant01dd-l_org)/5,36/a_14
    001066  aa   000000 000000
    001067  aa   000000 000334
    001070  aa   000000 000131
    001071  aa   000000 000010
    001072  aa   040040 040040     143  		vfd a36/    ,36/i_n,36/020,36/(avant01dd-l_org)/5,36/a_13
    001073  aa   000000 000002
    001074  aa   000000 000024
    001075  aa   000000 000131
    001076  aa   000000 000070
    001077  aa   040040 040040     144  	son_1:	vfd a36/    ,36/i_n,36/0,36/(l_44-l_org)/5,36/a_17
    001100  aa   000000 000002
    001101  aa   000000 000000
    001102  aa   000000 000164
    001103  aa   000000 000011
    001104  aa   163040 040040     145  l_44:		vfd a36/s   ,36/i_n,36/0,36/(l_45-l_org)/5,36/a_8
    001105  aa   000000 000002
    001106  aa   000000 000000
    001107  aa   000000 000165
    001110  aa   000000 000006
    001111  aa   040040 040040     146  l_45:		vfd a36/    ,36/i_c,36/c_dup_type8,36/(l_46-l_org)/5,36/0
    001112  aa   000000 000001
    001113  aa   000000 000065
    001114  aa   000000 000167
    001115  aa   000000 000000
    001116  aa   040040 040040     147  		vfd a36/    ,36/i_n,36/0,36/(son_2-l_org)/5,36/0
    001117  aa   000000 000002
    001120  aa   000000 000000
    001121  aa   000000 000161
    001122  aa   000000 000000
    001123  aa   163040 040040     148  l_46:		vfd a36/s   ,36/i_n,36/0,36/(avant01dd-l_org)/5,36/a_12
    001124  aa   000000 000002
    001125  aa   000000 000000
    001126  aa   000000 000131
    001127  aa   000000 000007
    001130  aa   163063 040040     149  	l88_2:	vfd a36/s3  ,36/i_n,36/139,36/(l_47-l_org)/5,36/2
    001131  aa   000000 000002
    001132  aa   000000 000213
    001133  aa   000000 000171
    001134  aa   000000 000002
    001135  aa   040040 040040     150  l_47:	sub88:	vfd a36/    ,36/i_s,36/(entry88-l_org)/5,36/(testnext-l_org)/5,36/0
    001136  aa   000000 000003
    001137  aa   000000 000466
    001140  aa   000000 000141
    001141  aa   000000 000000
    001142  aa   040040 040040     151  		vfd a36/    ,36/i_n,36/0,36/(testnext-l_org)/5,36/0
    001143  aa   000000 000002
    001144  aa   000000 000000
    001145  aa   000000 000141
    001146  aa   000000 000000
    001147  aa   040063 040040     152  	l66_2:	vfd a36/ 3  ,36/i_n,36/140,36/(l_48-l_org)/5,36/2
    001150  aa   000000 000002
    001151  aa   000000 000214
    001152  aa   000000 000174
    001153  aa   000000 000002
    001154  aa   040040 040040     153  l_48:	sub66:	vfd a36/    ,36/i_n,36/0,36/(l_49-l_org)/5,36/a_17
    001155  aa   000000 000002
    001156  aa   000000 000000
    001157  aa   000000 000175
    001160  aa   000000 000011
    001161  aa   163040 040040     154  l_49:		vfd a36/s   ,36/i_n,36/0,36/(l_50-l_org)/5,36/a_8
    001162  aa   000000 000002
    001163  aa   000000 000000
    001164  aa   000000 000176
    001165  aa   000000 000006
    001166  aa   040040 040040     155  l_50:		vfd a36/    ,36/i_s,36/(entry66-l_org)/5,36/(success-l_org)/5,36/a_1
    001167  aa   000000 000003
    001170  aa   000000 000531
    001171  aa   000000 001770
    001172  aa   000000 000002
    001173  aa   040040 040040     156  		vfd a36/    ,36/i_n,36/0,36/(success-l_org)/5,36/a_1
    001174  aa   000000 000002
    001175  aa   000000 000000
    001176  aa   000000 001770
    001177  aa   000000 000002
    001200  aa   163040 040040     157  	like:	vfd a36/s   ,36/i_c,36/c_type8,36/(l_51-l_org)/5,36/a_77
    001201  aa   000000 000001
    001202  aa   000000 000013
    001203  aa   000000 000202
    001204  aa   000000 000005
    001205  aa   040040 040040     158  		vfd a36/    ,36/i_n,36/0,36/(failure-l_org)/5,36/0
    001206  aa   000000 000002
    001207  aa   000000 000000
    001210  aa   000000 001771
    001211  aa   000000 000000
    001212  aa   163040 040040     159  l_51:	like_1:	vfd a36/s   ,36/i_r,36/r_of,36/(like_2-l_org)/5,36/0
    001213  aa   000000 000000
    001214  aa   000000 000205
    001215  aa   000000 000207
    001216  aa   000000 000000
    001217  aa   163040 040040     160  		vfd a36/s   ,36/i_r,36/r_in,36/(like_2-l_org)/5,36/0
    001220  aa   000000 000000
    001221  aa   000000 000145
    001222  aa   000000 000207
    001223  aa   000000 000000
    001224  aa   163040 040040     161  		vfd a36/s   ,36/i_r,36/r_per,36/(l_52-l_org)/5,36/a_170
    001225  aa   000000 000000
    001226  aa   000000 000275
    001227  aa   000000 000206
    001230  aa   000000 000024
    001231  aa   040040 040040     162  		vfd a36/    ,36/i_n,36/35,36/(r9dg-l_org)/5,36/a_84
    001232  aa   000000 000002
    001233  aa   000000 000043
    001234  aa   000000 001311
    001235  aa   000000 000025
    001236  aa   040040 040040     163  l_52:		vfd a36/    ,36/i_n,36/0,36/(success-l_org)/5,36/a_1
    001237  aa   000000 000002
    001240  aa   000000 000000
    001241  aa   000000 001770
    001242  aa   000000 000002
    001243  aa   163040 040040     164  	like_2:	vfd a36/s   ,36/i_c,36/c_type8,36/(like_1-l_org)/5,36/a_169
    001244  aa   000000 000001
    001245  aa   000000 000013
    001246  aa   000000 000202
    001247  aa   000000 000023
    001250  aa   040040 040040     165  		vfd a36/    ,36/i_n,36/0,36/(failure-l_org)/5,36/0
    001251  aa   000000 000002
    001252  aa   000000 000000
    001253  aa   000000 001771
    001254  aa   000000 000000
    001255  aa   163040 040040     166  	ddclauses:	vfd a36/s   ,36/i_r,36/r_redefines,36/(redefines-l_org)/5,36/0
    001256  aa   000000 000000
    001257  aa   000000 000356
    001260  aa   000000 000567
    001261  aa   000000 000000
    001262  aa   040040 040040     167  		vfd a36/    ,36/i_n,36/0,36/(l_53-l_org)/5,36/a_18
    001263  aa   000000 000002
    001264  aa   000000 000000
    001265  aa   000000 000213
    001266  aa   000000 000012
    001267  aa   163040 040040     168  l_53:		vfd a36/s   ,36/i_r,36/r_renames,36/(like-l_org)/5,36/0
    001270  aa   000000 000000
    001271  aa   000000 000357
    001272  aa   000000 000200
    001273  aa   000000 000000
    001274  aa   040040 040040     169  l_54:		vfd a36/    ,36/i_s,36/(ddcls_1-l_org)/5,36/(success-l_org)/5,36/a_1
    001275  aa   000000 000003
    001276  aa   000000 000216
    001277  aa   000000 001770
    001300  aa   000000 000002
    001301  aa   040040 040040     170  		vfd a36/    ,36/i_n,36/0,36/(failure-l_org)/5,36/a_2
    001302  aa   000000 000002
    001303  aa   000000 000000
    001304  aa   000000 001771
    001305  aa   000000 000003
    001306  aa   040040 040040     171  	ddcls_1:	vfd a36/    ,36/i_c,36/c_12,36/(l_55-l_org)/5,36/a_4
    001307  aa   000000 000001
    001310  aa   000000 000014
    001311  aa   000000 000221
    001312  aa   000000 000004
    001313  aa   163040 040040     172  		vfd a36/s   ,36/i_r,36/r_per,36/(success-l_org)/5,36/a_1
    001314  aa   000000 000000
    001315  aa   000000 000275
    001316  aa   000000 001770
    001317  aa   000000 000002
    001320  aa   040040 040040     173  		vfd a36/    ,36/i_n,36/35,36/(r9dg-l_org)/5,36/a_84
    001321  aa   000000 000002
    001322  aa   000000 000043
    001323  aa   000000 001311
    001324  aa   000000 000025
    001325  aa   040040 040040     174  l_55:		vfd a36/    ,36/i_n,36/0,36/(picture-l_org)/5,36/0
    001326  aa   000000 000002
    001327  aa   000000 000000
    001330  aa   000000 000232
    001331  aa   000000 000000
    001332  aa   040040 040040     175  		vfd a36/    ,36/i_n,36/0,36/(usage-l_org)/5,36/0
    001333  aa   000000 000002
    001334  aa   000000 000000
    001335  aa   000000 000237
    001336  aa   000000 000000
    001337  aa   040040 040040     176  		vfd a36/    ,36/i_n,36/0,36/(just-l_org)/5,36/0
    001340  aa   000000 000002
    001341  aa   000000 000000
    001342  aa   000000 000363
    001343  aa   000000 000000
    001344  aa   040040 040040     177  		vfd a36/    ,36/i_n,36/0,36/(occurs-l_org)/5,36/0
    001345  aa   000000 000002
    001346  aa   000000 000000
    001347  aa   000000 000402
    001350  aa   000000 000000
    001351  aa   040040 040040     178  		vfd a36/    ,36/i_n,36/0,36/(value-l_org)/5,36/0
    001352  aa   000000 000002
    001353  aa   000000 000000
    001354  aa   000000 000274
    001355  aa   000000 000000
    001356  aa   040040 040040     179  		vfd a36/    ,36/i_n,36/0,36/(blank-l_org)/5,36/0
    001357  aa   000000 000002
    001360  aa   000000 000000
    001361  aa   000000 000374
    001362  aa   000000 000000
    001363  aa   040040 040040     180  		vfd a36/    ,36/i_n,36/0,36/(sync-l_org)/5,36/0
    001364  aa   000000 000002
    001365  aa   000000 000000
    001366  aa   000000 000352
    001367  aa   000000 000000
    001370  aa   040040 040040     181  		vfd a36/    ,36/i_n,36/0,36/(sign-l_org)/5,36/0
    001371  aa   000000 000002
    001372  aa   000000 000000
    001373  aa   000000 000330
    001374  aa   000000 000000
    001375  aa   163040 040040     182  		vfd a36/s   ,36/i_n,36/029,36/(r9dg-l_org)/5,36/0
    001376  aa   000000 000002
    001377  aa   000000 000035
    001400  aa   000000 001311
    001401  aa   000000 000000
    001402  aa   163040 040040     183  	picture:	vfd a36/s   ,36/i_c,36/c_18,36/(l_56-l_org)/5,36/a_22
    001403  aa   000000 000001
    001404  aa   000000 000022
    001405  aa   000000 000234
    001406  aa   000000 000015
    001407  aa   163040 040040     184  		vfd a36/s   ,36/i_n,36/044,36/(r9dg-l_org)/5,36/0
    001410  aa   000000 000002
    001411  aa   000000 000054
    001412  aa   000000 001311
    001413  aa   000000 000000
    001414  aa   163040 040040     185  l_56:		vfd a36/s   ,36/i_r,36/r_is,36/(l_57-l_org)/5,36/0
    001415  aa   000000 000000
    001416  aa   000000 000166
    001417  aa   000000 000235
    001420  aa   000000 000000
    001421  aa   163040 040040     186  l_57:		vfd a36/s   ,36/i_c,36/c_19,36/(ddcls_1-l_org)/5,36/a_23
    001422  aa   000000 000001
    001423  aa   000000 000023
    001424  aa   000000 000216
    001425  aa   000000 000016
    001426  aa   040040 040040     187  		vfd a36/    ,36/i_n,36/066,36/(r9dg-l_org)/5,36/0
    001427  aa   000000 000002
    001430  aa   000000 000102
    001431  aa   000000 001311
    001432  aa   000000 000000
    001433  aa   040040 040040     188  	usage:	vfd a36/    ,36/i_c,36/c_20,36/(l_58-l_org)/5,36/a_24
    001434  aa   000000 000001
    001435  aa   000000 000024
    001436  aa   000000 000241
    001437  aa   000000 000074
    001440  aa   163040 040040     189  		vfd a36/s   ,36/i_n,36/045,36/(r9dg-l_org)/5,36/0
    001441  aa   000000 000002
    001442  aa   000000 000055
    001443  aa   000000 001311
    001444  aa   000000 000000
    001445  aa   163040 040040     190  l_58:		vfd a36/s   ,36/i_r,36/r_usage,36/(l_59-l_org)/5,36/0
    001446  aa   000000 000000
    001447  aa   000000 000401
    001450  aa   000000 000243
    001451  aa   000000 000000
    001452  aa   040040 040040     191  		vfd a36/    ,36/i_n,36/0,36/(udisp-l_org)/5,36/0
    001453  aa   000000 000002
    001454  aa   000000 000000
    001455  aa   000000 000244
    001456  aa   000000 000000
    001457  aa   163040 040040     192  l_59:		vfd a36/s   ,36/i_r,36/r_is,36/(l_60-l_org)/5,36/0
    001460  aa   000000 000000
    001461  aa   000000 000166
    001462  aa   000000 000244
    001463  aa   000000 000000
    001464  aa   040040 040040     193  l_60:	udisp:	vfd a36/    ,36/i_r,36/r_display,36/(l_61-l_org)/5,36/a_25
    001465  aa   000000 000000
    001466  aa   000000 000052
    001467  aa   000000 000260
    001470  aa   000000 000075
    001471  aa   040040 040040     194  		vfd a36/    ,36/i_r,36/r_comp,36/(l_61-l_org)/5,36/a_26
    001472  aa   000000 000000
    001473  aa   000000 000152
    001474  aa   000000 000260
    001475  aa   000000 000076
    001476  aa   040040 040040     195  		vfd a36/    ,36/i_r,36/r_comp_1,36/(udisp_2-l_org)/5,36/a_27
    001477  aa   000000 000000
    001500  aa   000000 000324
    001501  aa   000000 000267
    001502  aa   000000 000077
    001503  aa   040040 040040     196  		vfd a36/    ,36/i_r,36/r_comp_2,36/(udisp_2-l_org)/5,36/a_28
    001504  aa   000000 000000
    001505  aa   000000 000325
    001506  aa   000000 000267
    001507  aa   000000 000100
    001510  aa   040040 040040     197  		vfd a36/    ,36/i_r,36/r_comp_3,36/(udisp_2-l_org)/5,36/a_29
    001511  aa   000000 000000
    001512  aa   000000 000323
    001513  aa   000000 000267
    001514  aa   000000 000101
    001515  aa   040040 040040     198  		vfd a36/    ,36/i_r,36/r_comp_4,36/(utp1-l_org)/5,36/a_30
    001516  aa   000000 000000
    001517  aa   000000 000321
    001520  aa   000000 000271
    001521  aa   000000 000102
    001522  aa   040040 040040     199  		vfd a36/    ,36/i_r,36/r_comp_5,36/(utp1-l_org)/5,36/a_37
    001523  aa   000000 000000
    001524  aa   000000 000322
    001525  aa   000000 000271
    001526  aa   000000 000111
    001527  aa   040040 040040     200  		vfd a36/    ,36/i_r,36/r_comp_6,36/(utp1-l_org)/5,36/a_11
    001530  aa   000000 000000
    001531  aa   000000 000444
    001532  aa   000000 000271
    001533  aa   000000 000067
    001534  aa   040040 040040     201  		vfd a36/    ,36/i_r,36/r_comp_7,36/(utp1-l_org)/5,36/a_31
    001535  aa   000000 000000
    001536  aa   000000 000442
    001537  aa   000000 000271
    001540  aa   000000 000103
    001541  aa   040040 040040     202  		vfd a36/    ,36/i_r,36/r_comp_8,36/(utp1-l_org)/5,36/a_167
    001542  aa   000000 000000
    001543  aa   000000 001142
    001544  aa   000000 000271
    001545  aa   000000 000144
    001546  aa   040040 040040     203  		vfd a36/    ,36/i_r,36/r_index,36/(udisp_1-l_org)/5,36/a_32
    001547  aa   000000 000000
    001550  aa   000000 000336
    001551  aa   000000 000260
    001552  aa   000000 000104
    001553  aa   040040 040040     204  		vfd a36/    ,36/i_n,36/135,36/(r9dg-l_org)/5,36/0
    001554  aa   000000 000002
    001555  aa   000000 000207
    001556  aa   000000 001311
    001557  aa   000000 000000
    001560  aa   040040 040040     205  l_61:	udisp_1:	vfd a36/    ,36/i_c,36/c_21,36/(l_62-l_org)/5,36/0
    001561  aa   000000 000001
    001562  aa   000000 000025
    001563  aa   000000 000262
    001564  aa   000000 000000
    001565  aa   040040 040040     206  		vfd a36/    ,36/i_n,36/070,36/(l_62-l_org)/5,36/0
    001566  aa   000000 000002
    001567  aa   000000 000106
    001570  aa   000000 000262
    001571  aa   000000 000000
    001572  aa   040040 040040     207  l_62:		vfd a36/    ,36/i_c,36/c_31,36/(l_63-l_org)/5,36/0
    001573  aa   000000 000001
    001574  aa   000000 000037
    001575  aa   000000 000265
    001576  aa   000000 000000
    001577  aa   040040 040040     208  		vfd a36/    ,36/i_c,36/c_76,36/(l_63-l_org)/5,36/0
    001600  aa   000000 000001
    001601  aa   000000 000114
    001602  aa   000000 000265
    001603  aa   000000 000000
    001604  aa   040040 040040     209  		vfd a36/    ,36/i_n,36/169,36/(l_63-l_org)/5,36/0
    001605  aa   000000 000002
    001606  aa   000000 000251
    001607  aa   000000 000265
    001610  aa   000000 000000
    001611  aa   163040 040040     210  l_63:		vfd a36/s   ,36/i_c,36/c_75,36/(ddcls_1-l_org)/5,36/0
    001612  aa   000000 000001
    001613  aa   000000 000113
    001614  aa   000000 000216
    001615  aa   000000 000000
    001616  aa   163040 040040     211  		vfd a36/s   ,36/i_n,36/071,36/(ddcls_1-l_org)/5,36/0
    001617  aa   000000 000002
    001620  aa   000000 000107
    001621  aa   000000 000216
    001622  aa   000000 000000
    001623  aa   040065 040040     212  	udisp_2:	vfd a36/ 5  ,36/i_n,36/101,36/(l_64-l_org)/5,36/25
    001624  aa   000000 000002
    001625  aa   000000 000145
    001626  aa   000000 000270
    001627  aa   000000 000031
    001630  aa   040040 040040     213  l_64:	utm:	vfd a36/    ,36/i_n,36/0,36/(udisp_1-l_org)/5,36/0
    001631  aa   000000 000002
    001632  aa   000000 000000
    001633  aa   000000 000260
    001634  aa   000000 000000
    001635  aa   040065 040040     214  	utp1:	vfd a36/ 5  ,36/i_n,36/101,36/(l_65-l_org)/5,36/25
    001636  aa   000000 000002
    001637  aa   000000 000145
    001640  aa   000000 000272
    001641  aa   000000 000031
    001642  aa   040040 040040     215  l_65:	utp:	vfd a36/    ,36/i_c,36/c_44,36/(udisp_1-l_org)/5,36/0
    001643  aa   000000 000001
    001644  aa   000000 000054
    001645  aa   000000 000260
    001646  aa   000000 000000
    001647  aa   040040 040040     216  		vfd a36/    ,36/i_n,36/209,36/(udisp_1-l_org)/5,36/0
    001650  aa   000000 000002
    001651  aa   000000 000321
    001652  aa   000000 000260
    001653  aa   000000 000000
    001654  aa   163040 040040     217  	value:	vfd a36/s   ,36/i_c,36/c_22,36/(l_66-l_org)/5,36/a_33
    001655  aa   000000 000001
    001656  aa   000000 000026
    001657  aa   000000 000276
    001660  aa   000000 000105
    001661  aa   163040 040040     218  		vfd a36/s   ,36/i_n,36/046,36/(r9dg-l_org)/5,36/0
    001662  aa   000000 000002
    001663  aa   000000 000056
    001664  aa   000000 001311
    001665  aa   000000 000000
    001666  aa   040040 040040     219  l_66:		vfd a36/    ,36/i_c,36/c_26,36/(l_67-l_org)/5,36/0
    001667  aa   000000 000001
    001670  aa   000000 000032
    001671  aa   000000 000300
    001672  aa   000000 000000
    001673  aa   040040 040040     220  		vfd a36/    ,36/i_n,36/068,36/(igval-l_org)/5,36/0
    001674  aa   000000 000002
    001675  aa   000000 000104
    001676  aa   000000 000315
    001677  aa   000000 000000
    001700  aa   163040 040040     221  l_67:		vfd a36/s   ,36/i_r,36/r_is,36/(l_68-l_org)/5,36/0
    001701  aa   000000 000000
    001702  aa   000000 000166
    001703  aa   000000 000301
    001704  aa   000000 000000
    001705  aa   040040 040040     222  l_68:		vfd a36/    ,36/i_c,36/c_type2,36/(value_1-l_org)/5,36/a_34
    001706  aa   000000 000001
    001707  aa   000000 000027
    001710  aa   000000 000313
    001711  aa   000000 000106
    001712  aa   040040 040040     223  		vfd a36/    ,36/i_c,36/c_type3,36/(value_1-l_org)/5,36/a_35
    001713  aa   000000 000001
    001714  aa   000000 000030
    001715  aa   000000 000313
    001716  aa   000000 000107
    001717  aa   040040 040040     224  		vfd a36/    ,36/i_c,36/c_figcon,36/(value_1-l_org)/5,36/a_36
    001720  aa   000000 000001
    001721  aa   000000 000031
    001722  aa   000000 000313
    001723  aa   000000 000110
    001724  aa   040040 040040     225  		vfd a36/    ,36/i_r,36/r_all,36/(l_69-l_org)/5,36/a_135
    001725  aa   000000 000000
    001726  aa   000000 000111
    001727  aa   000000 000306
    001730  aa   000000 000336
    001731  aa   040040 040040     226  		vfd a36/    ,36/i_n,36/076,36/(r9dg-l_org)/5,36/0
    001732  aa   000000 000002
    001733  aa   000000 000114
    001734  aa   000000 001311
    001735  aa   000000 000000
    001736  aa   163063 040040     227  l_69:		vfd a36/s3  ,36/i_n,36/144,36/(l_70-l_org)/5,36/2
    001737  aa   000000 000002
    001740  aa   000000 000220
    001741  aa   000000 000307
    001742  aa   000000 000002
    001743  aa   040040 040040     228  l_70:		vfd a36/    ,36/i_c,36/c_type3,36/(l_71-l_org)/5,36/a_35
    001744  aa   000000 000001
    001745  aa   000000 000030
    001746  aa   000000 000313
    001747  aa   000000 000107
    001750  aa   040040 040040     229  		vfd a36/    ,36/i_c,36/c_figcon,36/(l_71-l_org)/5,36/a_36
    001751  aa   000000 000001
    001752  aa   000000 000031
    001753  aa   000000 000313
    001754  aa   000000 000110
    001755  aa   163040 040040     230  		vfd a36/s   ,36/i_c,36/c_type2,36/(value_2-l_org)/5,36/0
    001756  aa   000000 000001
    001757  aa   000000 000027
    001760  aa   000000 000314
    001761  aa   000000 000000
    001762  aa   040040 040040     231  		vfd a36/    ,36/i_n,36/076,36/(r9dg-l_org)/5,36/0
    001763  aa   000000 000002
    001764  aa   000000 000114
    001765  aa   000000 001311
    001766  aa   000000 000000
    001767  aa   163040 040040     232  l_71:	value_1:	vfd a36/s   ,36/i_n,36/0,36/(ddcls_1-l_org)/5,36/0
    001770  aa   000000 000002
    001771  aa   000000 000000
    001772  aa   000000 000216
    001773  aa   000000 000000
    001774  aa   040040 040040     233  	value_2:	vfd a36/    ,36/i_n,36/205,36/(r9dg-l_org)/5,36/0
    001775  aa   000000 000002
    001776  aa   000000 000315
    001777  aa   000000 001311
    002000  aa   000000 000000
    002001  aa   163040 040040     234  	igval:	vfd a36/s   ,36/i_r,36/r_is,36/(l_72-l_org)/5,36/0
    002002  aa   000000 000000
    002003  aa   000000 000166
    002004  aa   000000 000316
    002005  aa   000000 000000
    002006  aa   163040 040040     235  l_72:		vfd a36/s   ,36/i_c,36/c_type2,36/(ddcls_1-l_org)/5,36/0
    002007  aa   000000 000001
    002010  aa   000000 000027
    002011  aa   000000 000216
    002012  aa   000000 000000
    002013  aa   163040 040040     236  		vfd a36/s   ,36/i_c,36/c_type3,36/(ddcls_1-l_org)/5,36/0
    002014  aa   000000 000001
    002015  aa   000000 000030
    002016  aa   000000 000216
    002017  aa   000000 000000
    002020  aa   163040 040040     237  		vfd a36/s   ,36/i_c,36/c_figcon,36/(ddcls_1-l_org)/5,36/0
    002021  aa   000000 000001
    002022  aa   000000 000031
    002023  aa   000000 000216
    002024  aa   000000 000000
    002025  aa   040040 040040     238  		vfd a36/    ,36/i_r,36/r_all,36/(l_73-l_org)/5,36/0
    002026  aa   000000 000000
    002027  aa   000000 000111
    002030  aa   000000 000323
    002031  aa   000000 000000
    002032  aa   040040 040040     239  		vfd a36/    ,36/i_n,36/076,36/(r9dg-l_org)/5,36/0
    002033  aa   000000 000002
    002034  aa   000000 000114
    002035  aa   000000 001311
    002036  aa   000000 000000
    002037  aa   163063 040040     240  l_73:		vfd a36/s3  ,36/i_n,36/144,36/(l_74-l_org)/5,36/2
    002040  aa   000000 000002
    002041  aa   000000 000220
    002042  aa   000000 000324
    002043  aa   000000 000002
    002044  aa   163040 040040     241  l_74:		vfd a36/s   ,36/i_c,36/c_type3,36/(ddcls_1-l_org)/5,36/0
    002045  aa   000000 000001
    002046  aa   000000 000030
    002047  aa   000000 000216
    002050  aa   000000 000000
    002051  aa   163040 040040     242  		vfd a36/s   ,36/i_c,36/c_figcon,36/(ddcls_1-l_org)/5,36/0
    002052  aa   000000 000001
    002053  aa   000000 000031
    002054  aa   000000 000216
    002055  aa   000000 000000
    002056  aa   163040 040040     243  		vfd a36/s   ,36/i_c,36/c_type2,36/(value_2-l_org)/5,36/0
    002057  aa   000000 000001
    002060  aa   000000 000027
    002061  aa   000000 000314
    002062  aa   000000 000000
    002063  aa   040040 040040     244  		vfd a36/    ,36/i_n,36/076,36/(r9dg-l_org)/5,36/0
    002064  aa   000000 000002
    002065  aa   000000 000114
    002066  aa   000000 001311
    002067  aa   000000 000000
    002070  aa   040040 040040     245  	sign:	vfd a36/    ,36/i_c,36/c_27,36/(l_75-l_org)/5,36/a_38
    002071  aa   000000 000001
    002072  aa   000000 000033
    002073  aa   000000 000332
    002074  aa   000000 000112
    002075  aa   163040 040040     246  		vfd a36/s   ,36/i_n,36/051,36/(r9dg-l_org)/5,36/0
    002076  aa   000000 000002
    002077  aa   000000 000063
    002100  aa   000000 001311
    002101  aa   000000 000000
    002102  aa   040040 040040     247  l_75:		vfd a36/    ,36/i_c,36/c_28,36/(l_76-l_org)/5,36/0
    002103  aa   000000 000001
    002104  aa   000000 000034
    002105  aa   000000 000334
    002106  aa   000000 000000
    002107  aa   040040 040040     248  		vfd a36/    ,36/i_n,36/077,36/(l_76-l_org)/5,36/0
    002110  aa   000000 000002
    002111  aa   000000 000115
    002112  aa   000000 000334
    002113  aa   000000 000000
    002114  aa   163040 040040     249  l_76:		vfd a36/s   ,36/i_r,36/r_sign,36/(l_77-l_org)/5,36/0
    002115  aa   000000 000000
    002116  aa   000000 000365
    002117  aa   000000 000336
    002120  aa   000000 000000
    002121  aa   040040 040040     250  		vfd a36/    ,36/i_n,36/0,36/(slead-l_org)/5,36/0
    002122  aa   000000 000002
    002123  aa   000000 000000
    002124  aa   000000 000337
    002125  aa   000000 000000
    002126  aa   163040 040040     251  l_77:		vfd a36/s   ,36/i_r,36/r_is,36/(l_78-l_org)/5,36/0
    002127  aa   000000 000000
    002130  aa   000000 000166
    002131  aa   000000 000337
    002132  aa   000000 000000
    002133  aa   163040 040040     252  l_78:	slead:	vfd a36/s   ,36/i_r,36/r_leading,36/(l_79-l_org)/5,36/0
    002134  aa   000000 000000
    002135  aa   000000 000172
    002136  aa   000000 000342
    002137  aa   000000 000000
    002140  aa   163040 040040     253  		vfd a36/s   ,36/i_r,36/r_trailing,36/(trailsp-l_org)/5,36/0
    002141  aa   000000 000000
    002142  aa   000000 000377
    002143  aa   000000 000350
    002144  aa   000000 000000
    002145  aa   040040 040040     254  		vfd a36/    ,36/i_n,36/53,36/(r9dg-l_org)/5,36/0
    002146  aa   000000 000002
    002147  aa   000000 000065
    002150  aa   000000 001311
    002151  aa   000000 000000
    002152  aa   163040 040040     255  l_79:		vfd a36/s   ,36/i_r,36/r_separate,36/(l_80-l_org)/5,36/a_42
    002153  aa   000000 000000
    002154  aa   000000 000364
    002155  aa   000000 000344
    002156  aa   000000 000116
    002157  aa   040040 040040     256  		vfd a36/    ,36/i_n,36/0,36/(l_80-l_org)/5,36/a_40
    002160  aa   000000 000002
    002161  aa   000000 000000
    002162  aa   000000 000344
    002163  aa   000000 000114
    002164  aa   040040 040040     257  l_80:	schar:	vfd a36/    ,36/i_c,36/c_29,36/(l_81-l_org)/5,36/0
    002165  aa   000000 000001
    002166  aa   000000 000035
    002167  aa   000000 000346
    002170  aa   000000 000000
    002171  aa   040040 040040     258  		vfd a36/    ,36/i_n,36/091,36/(l_81-l_org)/5,36/0
    002172  aa   000000 000002
    002173  aa   000000 000133
    002174  aa   000000 000346
    002175  aa   000000 000000
    002176  aa   163040 040040     259  l_81:		vfd a36/s   ,36/i_r,36/r_character,36/(ddcls_1-l_org)/5,36/0
    002177  aa   000000 000000
    002200  aa   000000 000123
    002201  aa   000000 000216
    002202  aa   000000 000000
    002203  aa   040040 040040     260  		vfd a36/    ,36/i_n,36/0,36/(ddcls_1-l_org)/5,36/0
    002204  aa   000000 000002
    002205  aa   000000 000000
    002206  aa   000000 000216
    002207  aa   000000 000000
    002210  aa   163040 040040     261  	trailsp:	vfd a36/s   ,36/i_r,36/r_separate,36/(schar-l_org)/5,36/a_41
    002211  aa   000000 000000
    002212  aa   000000 000364
    002213  aa   000000 000344
    002214  aa   000000 000115
    002215  aa   040040 040040     262  		vfd a36/    ,36/i_n,36/0,36/(schar-l_org)/5,36/a_39
    002216  aa   000000 000002
    002217  aa   000000 000000
    002220  aa   000000 000344
    002221  aa   000000 000113
    002222  aa   163040 040040     263  	sync:	vfd a36/s   ,36/i_c,36/c_30,36/(l_82-l_org)/5,36/0
    002223  aa   000000 000001
    002224  aa   000000 000036
    002225  aa   000000 000354
    002226  aa   000000 000000
    002227  aa   163040 040040     264  		vfd a36/s   ,36/i_n,36/050,36/(r9dg-l_org)/5,36/0
    002230  aa   000000 000002
    002231  aa   000000 000062
    002232  aa   000000 001311
    002233  aa   000000 000000
    002234  aa   163040 040040     265  l_82:		vfd a36/s   ,36/i_r,36/r_right,36/(l_83-l_org)/5,36/a_43
    002235  aa   000000 000000
    002236  aa   000000 000361
    002237  aa   000000 000357
    002240  aa   000000 000117
    002241  aa   163040 040040     266  		vfd a36/s   ,36/i_r,36/r_left,36/(l_83-l_org)/5,36/a_44
    002242  aa   000000 000000
    002243  aa   000000 000341
    002244  aa   000000 000357
    002245  aa   000000 000120
    002246  aa   040040 040040     267  		vfd a36/    ,36/i_n,36/0,36/(l_83-l_org)/5,36/a_43
    002247  aa   000000 000002
    002250  aa   000000 000000
    002251  aa   000000 000357
    002252  aa   000000 000117
    002253  aa   040040 040040     268  l_83:		vfd a36/    ,36/i_c,36/c_26,36/(l_84-l_org)/5,36/0
    002254  aa   000000 000001
    002255  aa   000000 000032
    002256  aa   000000 000361
    002257  aa   000000 000000
    002260  aa   040040 040040     269  		vfd a36/    ,36/i_n,36/075,36/(l_84-l_org)/5,36/0
    002261  aa   000000 000002
    002262  aa   000000 000113
    002263  aa   000000 000361
    002264  aa   000000 000000
    002265  aa   040040 040040     270  l_84:		vfd a36/    ,36/i_c,36/c_31,36/(ddcls_1-l_org)/5,36/0
    002266  aa   000000 000001
    002267  aa   000000 000037
    002270  aa   000000 000216
    002271  aa   000000 000000
    002272  aa   040040 040040     271  		vfd a36/    ,36/i_n,36/081,36/(ddcls_1-l_org)/5,36/0
    002273  aa   000000 000002
    002274  aa   000000 000121
    002275  aa   000000 000216
    002276  aa   000000 000000
    002277  aa   163040 040040     272  	just:	vfd a36/s   ,36/i_c,36/c_32,36/(l_85-l_org)/5,36/0
    002300  aa   000000 000001
    002301  aa   000000 000040
    002302  aa   000000 000365
    002303  aa   000000 000000
    002304  aa   163040 040040     273  		vfd a36/s   ,36/i_n,36/048,36/(r9dg-l_org)/5,36/0
    002305  aa   000000 000002
    002306  aa   000000 000060
    002307  aa   000000 001311
    002310  aa   000000 000000
    002311  aa   163040 040040     274  l_85:		vfd a36/s   ,36/i_r,36/r_right,36/(l_86-l_org)/5,36/a_45
    002312  aa   000000 000000
    002313  aa   000000 000361
    002314  aa   000000 000370
    002315  aa   000000 000121
    002316  aa   163040 040040     275  		vfd a36/s   ,36/i_r,36/r_left,36/(l_86-l_org)/5,36/a_46
    002317  aa   000000 000000
    002320  aa   000000 000341
    002321  aa   000000 000370
    002322  aa   000000 000122
    002323  aa   040040 040040     276  		vfd a36/    ,36/i_n,36/0,36/(l_86-l_org)/5,36/a_45
    002324  aa   000000 000002
    002325  aa   000000 000000
    002326  aa   000000 000370
    002327  aa   000000 000121
    002330  aa   040040 040040     277  l_86:		vfd a36/    ,36/i_c,36/c_26,36/(l_87-l_org)/5,36/0
    002331  aa   000000 000001
    002332  aa   000000 000032
    002333  aa   000000 000372
    002334  aa   000000 000000
    002335  aa   040040 040040     278  		vfd a36/    ,36/i_n,36/073,36/(l_87-l_org)/5,36/0
    002336  aa   000000 000002
    002337  aa   000000 000111
    002340  aa   000000 000372
    002341  aa   000000 000000
    002342  aa   040040 040040     279  l_87:		vfd a36/    ,36/i_c,36/c_31,36/(ddcls_1-l_org)/5,36/0
    002343  aa   000000 000001
    002344  aa   000000 000037
    002345  aa   000000 000216
    002346  aa   000000 000000
    002347  aa   040040 040040     280  		vfd a36/    ,36/i_n,36/080,36/(ddcls_1-l_org)/5,36/0
    002350  aa   000000 000002
    002351  aa   000000 000120
    002352  aa   000000 000216
    002353  aa   000000 000000
    002354  aa   163040 040040     281  	blank:	vfd a36/s   ,36/i_n,36/0,36/(l_88-l_org)/5,36/a_47
    002355  aa   000000 000002
    002356  aa   000000 000000
    002357  aa   000000 000376
    002360  aa   000000 000123
    002361  aa   163040 040040     282  		vfd a36/s   ,36/i_n,36/049,36/(r9dg-l_org)/5,36/0
    002362  aa   000000 000002
    002363  aa   000000 000061
    002364  aa   000000 001311
    002365  aa   000000 000000
    002366  aa   163040 040040     283  l_88:		vfd a36/s   ,36/i_r,36/r_when,36/(l_89-l_org)/5,36/0
    002367  aa   000000 000000
    002370  aa   000000 000262
    002371  aa   000000 000377
    002372  aa   000000 000000
    002373  aa   163040 040040     284  l_89:		vfd a36/s   ,36/i_r,36/r_zero,36/(l_90-l_org)/5,36/0
    002374  aa   000000 000000
    002375  aa   000000 000264
    002376  aa   000000 000401
    002377  aa   000000 000000
    002400  aa   040040 040040     285  		vfd a36/    ,36/i_n,36/079,36/(r9dg-l_org)/5,36/0
    002401  aa   000000 000002
    002402  aa   000000 000117
    002403  aa   000000 001311
    002404  aa   000000 000000
    002405  aa   040040 040040     286  l_90:		vfd a36/    ,36/i_n,36/0,36/(ddcls_1-l_org)/5,36/0
    002406  aa   000000 000002
    002407  aa   000000 000000
    002410  aa   000000 000216
    002411  aa   000000 000000
    002412  aa   163040 040040     287  	occurs:	vfd a36/s   ,36/i_c,36/c_34,36/(l_91-l_org)/5,36/0
    002413  aa   000000 000001
    002414  aa   000000 000042
    002415  aa   000000 000404
    002416  aa   000000 000000
    002417  aa   163040 040040     288  		vfd a36/s   ,36/i_n,36/047,36/(r5dg-l_org)/5,36/0
    002420  aa   000000 000002
    002421  aa   000000 000057
    002422  aa   000000 001263
    002423  aa   000000 000000
    002424  aa   040040 040040     289  l_91:		vfd a36/    ,36/i_c,36/c_35,36/(l_92-l_org)/5,36/a_48
    002425  aa   000000 000001
    002426  aa   000000 000043
    002427  aa   000000 000406
    002430  aa   000000 000124
    002431  aa   040040 040040     290  		vfd a36/    ,36/i_n,36/083,36/(r5dg-l_org)/5,36/0
    002432  aa   000000 000002
    002433  aa   000000 000123
    002434  aa   000000 001263
    002435  aa   000000 000000
    002436  aa   163040 040040     291  l_92:		vfd a36/s   ,36/i_c,36/c_int,36/(l_93-l_org)/5,36/a_49
    002437  aa   000000 000001
    002440  aa   000000 000010
    002441  aa   000000 000410
    002442  aa   000000 000125
    002443  aa   040040 040040     292  		vfd a36/    ,36/i_n,36/084,36/(r16dg-l_org)/5,36/0
    002444  aa   000000 000002
    002445  aa   000000 000124
    002446  aa   000000 001401
    002447  aa   000000 000000
    002450  aa   163040 040040     293  l_93:		vfd a36/s   ,36/i_r,36/r_times,36/(l_94-l_org)/5,36/0
    002451  aa   000000 000000
    002452  aa   000000 000250
    002453  aa   000000 000412
    002454  aa   000000 000000
    002455  aa   040063 040040     294  		vfd a36/ 3  ,36/i_r,36/r_to,36/(maxint-l_org)/5,36/143
    002456  aa   000000 000000
    002457  aa   000000 000252
    002460  aa   000000 000414
    002461  aa   000000 000217
    002462  aa   040040 040040     295  l_94:		vfd a36/    ,36/i_c,36/c_37,36/(occ_adi-l_org)/5,36/0
    002463  aa   000000 000001
    002464  aa   000000 000045
    002465  aa   000000 000436
    002466  aa   000000 000000
    002467  aa   040040 040040     296  		vfd a36/    ,36/i_n,36/085,36/(occ_adi-l_org)/5,36/0
    002470  aa   000000 000002
    002471  aa   000000 000125
    002472  aa   000000 000436
    002473  aa   000000 000000
    002474  aa   163040 040040     297  	maxint:	vfd a36/s   ,36/i_n,36/0,36/(l_95-l_org)/5,36/a_83
    002475  aa   000000 000002
    002476  aa   000000 000000
    002477  aa   000000 000415
    002500  aa   000000 000021
    002501  aa   163040 040040     298  l_95:		vfd a36/s   ,36/i_c,36/c_int,36/(l_96-l_org)/5,36/a_50
    002502  aa   000000 000001
    002503  aa   000000 000010
    002504  aa   000000 000417
    002505  aa   000000 000126
    002506  aa   040040 040040     299  		vfd a36/    ,36/i_n,36/118,36/(r16dg-l_org)/5,36/0
    002507  aa   000000 000002
    002510  aa   000000 000166
    002511  aa   000000 001401
    002512  aa   000000 000000
    002513  aa   040040 040040     300  l_96:		vfd a36/    ,36/i_c,36/c_38,36/(l_97-l_org)/5,36/0
    002514  aa   000000 000001
    002515  aa   000000 000046
    002516  aa   000000 000421
    002517  aa   000000 000000
    002520  aa   040040 040040     301  		vfd a36/    ,36/i_n,36/086,36/(l_97-l_org)/5,36/0
    002521  aa   000000 000002
    002522  aa   000000 000126
    002523  aa   000000 000421
    002524  aa   000000 000000
    002525  aa   163040 040040     302  l_97:		vfd a36/s   ,36/i_r,36/r_times,36/(l_98-l_org)/5,36/0
    002526  aa   000000 000000
    002527  aa   000000 000250
    002530  aa   000000 000422
    002531  aa   000000 000000
    002532  aa   163040 040040     303  l_98:	odpdon:	vfd a36/s   ,36/i_r,36/r_depending,36/(l_99-l_org)/5,36/a_52
    002533  aa   000000 000000
    002534  aa   000000 000134
    002535  aa   000000 000424
    002536  aa   000000 000130
    002537  aa   040040 040040     304  		vfd a36/    ,36/i_n,36/197,36/(r16dg-l_org)/5,36/0
    002540  aa   000000 000002
    002541  aa   000000 000305
    002542  aa   000000 001401
    002543  aa   000000 000000
    002544  aa   163040 040040     305  l_99:		vfd a36/s   ,36/i_r,36/r_on,36/(l_100-l_org)/5,36/0
    002545  aa   000000 000000
    002546  aa   000000 000206
    002547  aa   000000 000425
    002550  aa   000000 000000
    002551  aa   040040 040040     306  l_100:		vfd a36/    ,36/i_n,36/0,36/(l_101-l_org)/5,36/a_51
    002552  aa   000000 000002
    002553  aa   000000 000000
    002554  aa   000000 000426
    002555  aa   000000 000127
    002556  aa   163040 040040     307  l_101:		vfd a36/s   ,36/i_c,36/c_type8,36/(l_102-l_org)/5,36/0
    002557  aa   000000 000001
    002560  aa   000000 000013
    002561  aa   000000 000430
    002562  aa   000000 000000
    002563  aa   040040 040040     308  		vfd a36/    ,36/i_n,36/20,36/(r16dg-l_org)/5,36/0
    002564  aa   000000 000002
    002565  aa   000000 000024
    002566  aa   000000 001401
    002567  aa   000000 000000
    002570  aa   163063 040040     309  l_102:	cdnof:	vfd a36/s3  ,36/i_r,36/r_of,36/(dodn2-l_org)/5,36/5
    002571  aa   000000 000000
    002572  aa   000000 000205
    002573  aa   000000 000434
    002574  aa   000000 000005
    002575  aa   163063 040040     310  		vfd a36/s3  ,36/i_r,36/r_in,36/(dodn2-l_org)/5,36/5
    002576  aa   000000 000000
    002577  aa   000000 000145
    002600  aa   000000 000434
    002601  aa   000000 000005
    002602  aa   040040 040040     311  	cdnof1:	vfd a36/    ,36/i_c,36/c_39,36/(occ_adi-l_org)/5,36/0
    002603  aa   000000 000001
    002604  aa   000000 000047
    002605  aa   000000 000436
    002606  aa   000000 000000
    002607  aa   040040 040040     312  		vfd a36/    ,36/i_n,36/088,36/(occ_adi-l_org)/5,36/0
    002610  aa   000000 000002
    002611  aa   000000 000130
    002612  aa   000000 000436
    002613  aa   000000 000000
    002614  aa   163040 040040     313  	dodn2:	vfd a36/s   ,36/i_c,36/c_type8,36/(cdnof-l_org)/5,36/a_73
    002615  aa   000000 000001
    002616  aa   000000 000013
    002617  aa   000000 000430
    002620  aa   000000 000240
    002621  aa   040040 040040     314  		vfd a36/    ,36/i_n,36/20,36/(r16dg-l_org)/5,36/0
    002622  aa   000000 000002
    002623  aa   000000 000024
    002624  aa   000000 001401
    002625  aa   000000 000000
    002626  aa   040040 040040     315  	occ_adi:	vfd a36/    ,36/i_r,36/r_ascending,36/(l_103-l_org)/5,36/a_53
    002627  aa   000000 000000
    002630  aa   000000 000116
    002631  aa   000000 000442
    002632  aa   000000 000131
    002633  aa   040040 040040     316  		vfd a36/    ,36/i_r,36/r_descending,36/(l_103-l_org)/5,36/a_54
    002634  aa   000000 000000
    002635  aa   000000 000135
    002636  aa   000000 000442
    002637  aa   000000 000132
    002640  aa   163040 040040     317  		vfd a36/s   ,36/i_r,36/r_indexed,36/(indby-l_org)/5,36/0
    002641  aa   000000 000000
    002642  aa   000000 000337
    002643  aa   000000 000456
    002644  aa   000000 000000
    002645  aa   040040 040040     318  		vfd a36/    ,36/i_n,36/0,36/(ddcls_1-l_org)/5,36/a_137
    002646  aa   000000 000002
    002647  aa   000000 000000
    002650  aa   000000 000216
    002651  aa   000000 000337
    002652  aa   040063 040040     319  l_103:		vfd a36/ 3  ,36/i_n,36/136,36/(l_104-l_org)/5,36/4
    002653  aa   000000 000002
    002654  aa   000000 000210
    002655  aa   000000 000443
    002656  aa   000000 000004
    002657  aa   163040 040040     320  l_104:		vfd a36/s   ,36/i_n,36/0,36/(l_105-l_org)/5,36/a_165
    002660  aa   000000 000002
    002661  aa   000000 000000
    002662  aa   000000 000444
    002663  aa   000000 000373
    002664  aa   163040 040040     321  l_105:		vfd a36/s   ,36/i_r,36/r_key,36/(l_106-l_org)/5,36/0
    002665  aa   000000 000000
    002666  aa   000000 000170
    002667  aa   000000 000445
    002670  aa   000000 000000
    002671  aa   163040 040040     322  l_106:		vfd a36/s   ,36/i_r,36/r_is,36/(l_107-l_org)/5,36/0
    002672  aa   000000 000000
    002673  aa   000000 000166
    002674  aa   000000 000446
    002675  aa   000000 000000
    002676  aa   163040 040040     323  l_107:		vfd a36/s   ,36/i_c,36/c_type8,36/(l_108-l_org)/5,36/a_55
    002677  aa   000000 000001
    002700  aa   000000 000013
    002701  aa   000000 000450
    002702  aa   000000 000133
    002703  aa   163040 040040     324  		vfd a36/s   ,36/i_n,36/20,36/(r16dg-l_org)/5,36/0
    002704  aa   000000 000002
    002705  aa   000000 000024
    002706  aa   000000 001401
    002707  aa   000000 000000
    002710  aa   163040 040040     325  l_108:	knof:	vfd a36/s   ,36/i_r,36/r_of,36/(l_109-l_org)/5,36/0
    002711  aa   000000 000000
    002712  aa   000000 000205
    002713  aa   000000 000454
    002714  aa   000000 000000
    002715  aa   163040 040040     326  		vfd a36/s   ,36/i_r,36/r_in,36/(l_109-l_org)/5,36/0
    002716  aa   000000 000000
    002717  aa   000000 000145
    002720  aa   000000 000454
    002721  aa   000000 000000
    002722  aa   163040 040040     327  		vfd a36/s   ,36/i_c,36/c_type8,36/(knof-l_org)/5,36/a_55
    002723  aa   000000 000001
    002724  aa   000000 000013
    002725  aa   000000 000450
    002726  aa   000000 000133
    002727  aa   040040 040040     328  		vfd a36/    ,36/i_n,36/0,36/(occ_adi-l_org)/5,36/a_139
    002730  aa   000000 000002
    002731  aa   000000 000000
    002732  aa   000000 000436
    002733  aa   000000 000341
    002734  aa   163040 040040     329  l_109:		vfd a36/s   ,36/i_c,36/c_type8,36/(knof-l_org)/5,36/a_166
    002735  aa   000000 000001
    002736  aa   000000 000013
    002737  aa   000000 000450
    002740  aa   000000 000374
    002741  aa   040040 040040     330  		vfd a36/    ,36/i_n,36/20,36/(r16dg-l_org)/5,36/0
    002742  aa   000000 000002
    002743  aa   000000 000024
    002744  aa   000000 001401
    002745  aa   000000 000000
    002746  aa   040040 040040     331  	indby:	vfd a36/    ,36/i_c,36/c_42,36/(l_110-l_org)/5,36/a_56
    002747  aa   000000 000001
    002750  aa   000000 000052
    002751  aa   000000 000460
    002752  aa   000000 000134
    002753  aa   040040 040040     332  		vfd a36/    ,36/i_n,36/092,36/(r16dg-l_org)/5,36/0
    002754  aa   000000 000002
    002755  aa   000000 000134
    002756  aa   000000 001401
    002757  aa   000000 000000
    002760  aa   163040 040040     333  l_110:		vfd a36/s   ,36/i_r,36/r_by,36/(l_111-l_org)/5,36/0
    002761  aa   000000 000000
    002762  aa   000000 000122
    002763  aa   000000 000461
    002764  aa   000000 000000
    002765  aa   163040 040040     334  l_111:		vfd a36/s   ,36/i_c,36/c_type8,36/(l_112-l_org)/5,36/a_57
    002766  aa   000000 000001
    002767  aa   000000 000013
    002770  aa   000000 000463
    002771  aa   000000 000135
    002772  aa   040040 040040     335  		vfd a36/    ,36/i_n,36/089,36/(r16dg-l_org)/5,36/0
    002773  aa   000000 000002
    002774  aa   000000 000131
    002775  aa   000000 001401
    002776  aa   000000 000000
    002777  aa   163040 040040     336  l_112:		vfd a36/s   ,36/i_c,36/c_type8,36/(l_112-l_org)/5,36/a_57
    003000  aa   000000 000001
    003001  aa   000000 000013
    003002  aa   000000 000463
    003003  aa   000000 000135
    003004  aa   040040 040040     337  		vfd a36/    ,36/i_n,36/0,36/(occ_adi-l_org)/5,36/0
    003005  aa   000000 000002
    003006  aa   000000 000000
    003007  aa   000000 000436
    003010  aa   000000 000000
    003011  aa   163063 040040     338  	l88_3:	vfd a36/s3  ,36/i_n,36/139,36/(l_113-l_org)/5,36/2
    003012  aa   000000 000002
    003013  aa   000000 000213
    003014  aa   000000 000466
    003015  aa   000000 000002
    003016  aa   163040 040040     339  l_113:	entry88:	vfd a36/s   ,36/i_c,36/c_type8,36/(l_114-l_org)/5,36/a_63
    003017  aa   000000 000001
    003020  aa   000000 000013
    003021  aa   000000 000470
    003022  aa   000000 000226
    003023  aa   040040 040040     340  		vfd a36/    ,36/i_n,36/036,36/(r11dg-l_org)/5,36/0
    003024  aa   000000 000002
    003025  aa   000000 000044
    003026  aa   000000 001337
    003027  aa   000000 000000
    003030  aa   163040 040040     341  l_114:		vfd a36/s   ,36/i_r,36/r_value,36/(l_115-l_org)/5,36/0
    003031  aa   000000 000000
    003032  aa   000000 000402
    003033  aa   000000 000472
    003034  aa   000000 000000
    003035  aa   040040 040040     342  		vfd a36/    ,36/i_n,36/158,36/(r11dg-l_org)/5,36/0
    003036  aa   000000 000002
    003037  aa   000000 000236
    003040  aa   000000 001337
    003041  aa   000000 000000
    003042  aa   163040 040040     343  l_115:		vfd a36/s   ,36/i_r,36/r_are,36/(lit88-l_org)/5,36/0
    003043  aa   000000 000000
    003044  aa   000000 000166
    003045  aa   000000 000473
    003046  aa   000000 000000
    003047  aa   163040 040040     344  	lit88:	vfd a36/s   ,36/i_c,36/c_type2,36/(a67-l_org)/5,36/a_64
    003050  aa   000000 000001
    003051  aa   000000 000027
    003052  aa   000000 000504
    003053  aa   000000 000227
    003054  aa   163040 040040     345  		vfd a36/s   ,36/i_c,36/c_type3,36/(a67-l_org)/5,36/a_65
    003055  aa   000000 000001
    003056  aa   000000 000030
    003057  aa   000000 000504
    003060  aa   000000 000230
    003061  aa   163040 040040     346  		vfd a36/s   ,36/i_c,36/c_figcon,36/(a67-l_org)/5,36/a_66
    003062  aa   000000 000001
    003063  aa   000000 000031
    003064  aa   000000 000504
    003065  aa   000000 000231
    003066  aa   040040 040040     347  		vfd a36/    ,36/i_r,36/r_all,36/(l_116-l_org)/5,36/a_135
    003067  aa   000000 000000
    003070  aa   000000 000111
    003071  aa   000000 000500
    003072  aa   000000 000336
    003073  aa   040040 040040     348  		vfd a36/    ,36/i_n,36/037,36/(r11dg-l_org)/5,36/0
    003074  aa   000000 000002
    003075  aa   000000 000045
    003076  aa   000000 001337
    003077  aa   000000 000000
    003100  aa   163063 040040     349  l_116:		vfd a36/s3  ,36/i_n,36/144,36/(l_117-l_org)/5,36/2
    003101  aa   000000 000002
    003102  aa   000000 000220
    003103  aa   000000 000501
    003104  aa   000000 000002
    003105  aa   163040 040040     350  l_117:		vfd a36/s   ,36/i_c,36/c_type3,36/(l_118-l_org)/5,36/a_65
    003106  aa   000000 000001
    003107  aa   000000 000030
    003110  aa   000000 000504
    003111  aa   000000 000230
    003112  aa   163040 040040     351  		vfd a36/s   ,36/i_c,36/c_figcon,36/(l_118-l_org)/5,36/a_66
    003113  aa   000000 000001
    003114  aa   000000 000031
    003115  aa   000000 000504
    003116  aa   000000 000231
    003117  aa   040040 040040     352  		vfd a36/    ,36/i_n,36/37,36/(r11dg-l_org)/5,36/0
    003120  aa   000000 000002
    003121  aa   000000 000045
    003122  aa   000000 001337
    003123  aa   000000 000000
    003124  aa   163040 040040     353  l_118:	a67:	vfd a36/s   ,36/i_r,36/r_thru,36/(l_119-l_org)/5,36/a_67
    003125  aa   000000 000000
    003126  aa   000000 000246
    003127  aa   000000 000507
    003130  aa   000000 000232
    003131  aa   163040 040040     354  		vfd a36/s   ,36/i_r,36/r_per,36/(c46-l_org)/5,36/a_70
    003132  aa   000000 000000
    003133  aa   000000 000275
    003134  aa   000000 000524
    003135  aa   000000 000235
    003136  aa   040040 040040     355  		vfd a36/    ,36/i_n,36/0,36/(lit88-l_org)/5,36/a_68
    003137  aa   000000 000002
    003140  aa   000000 000000
    003141  aa   000000 000473
    003142  aa   000000 000233
    003143  aa   163040 040040     356  l_119:		vfd a36/s   ,36/i_c,36/c_type2,36/(a68-l_org)/5,36/a_64
    003144  aa   000000 000001
    003145  aa   000000 000027
    003146  aa   000000 000520
    003147  aa   000000 000227
    003150  aa   163040 040040     357  		vfd a36/s   ,36/i_c,36/c_type3,36/(a68-l_org)/5,36/a_65
    003151  aa   000000 000001
    003152  aa   000000 000030
    003153  aa   000000 000520
    003154  aa   000000 000230
    003155  aa   163040 040040     358  		vfd a36/s   ,36/i_c,36/c_figcon,36/(a68-l_org)/5,36/a_66
    003156  aa   000000 000001
    003157  aa   000000 000031
    003160  aa   000000 000520
    003161  aa   000000 000231
    003162  aa   040040 040040     359  		vfd a36/    ,36/i_r,36/r_all,36/(l_120-l_org)/5,36/a_135
    003163  aa   000000 000000
    003164  aa   000000 000111
    003165  aa   000000 000514
    003166  aa   000000 000336
    003167  aa   040040 040040     360  		vfd a36/    ,36/i_n,36/162,36/(r11dg-l_org)/5,36/0
    003170  aa   000000 000002
    003171  aa   000000 000242
    003172  aa   000000 001337
    003173  aa   000000 000000
    003174  aa   163063 040040     361  l_120:		vfd a36/s3  ,36/i_n,36/144,36/(l_121-l_org)/5,36/2
    003175  aa   000000 000002
    003176  aa   000000 000220
    003177  aa   000000 000515
    003200  aa   000000 000002
    003201  aa   163040 040040     362  l_121:		vfd a36/s   ,36/i_c,36/c_type3,36/(l_122-l_org)/5,36/a_65
    003202  aa   000000 000001
    003203  aa   000000 000030
    003204  aa   000000 000520
    003205  aa   000000 000230
    003206  aa   163040 040040     363  		vfd a36/s   ,36/i_c,36/c_figcon,36/(l_122-l_org)/5,36/a_66
    003207  aa   000000 000001
    003210  aa   000000 000031
    003211  aa   000000 000520
    003212  aa   000000 000231
    003213  aa   040040 040040     364  		vfd a36/    ,36/i_n,36/162,36/(r11dg-l_org)/5,36/0
    003214  aa   000000 000002
    003215  aa   000000 000242
    003216  aa   000000 001337
    003217  aa   000000 000000
    003220  aa   040040 040040     365  l_122:	a68:	vfd a36/    ,36/i_c,36/c_45,36/(l_123-l_org)/5,36/0
    003221  aa   000000 000001
    003222  aa   000000 000055
    003223  aa   000000 000522
    003224  aa   000000 000000
    003225  aa   040040 040040     366  		vfd a36/    ,36/i_n,36/041,36/(l_123-l_org)/5,36/0
    003226  aa   000000 000002
    003227  aa   000000 000051
    003230  aa   000000 000522
    003231  aa   000000 000000
    003232  aa   163040 040040     367  l_123:	end88:	vfd a36/s   ,36/i_r,36/r_per,36/(l_124-l_org)/5,36/a_70
    003233  aa   000000 000000
    003234  aa   000000 000275
    003235  aa   000000 000524
    003236  aa   000000 000235
    003237  aa   040040 040040     368  		vfd a36/    ,36/i_n,36/0,36/(lit88-l_org)/5,36/a_68
    003240  aa   000000 000002
    003241  aa   000000 000000
    003242  aa   000000 000473
    003243  aa   000000 000233
    003244  aa   040040 040040     369  l_124:	c46:	vfd a36/    ,36/i_c,36/c_46,36/(l_125-l_org)/5,36/0
    003245  aa   000000 000001
    003246  aa   000000 000056
    003247  aa   000000 000526
    003250  aa   000000 000000
    003251  aa   040040 040040     370  		vfd a36/    ,36/i_n,36/040,36/(l_125-l_org)/5,36/0
    003252  aa   000000 000002
    003253  aa   000000 000050
    003254  aa   000000 000526
    003255  aa   000000 000000
    003256  aa   040040 040040     371  l_125:		vfd a36/    ,36/i_c,36/c_lev88s,36/(l88_3-l_org)/5,36/a_19
    003257  aa   000000 000001
    003260  aa   000000 000100
    003261  aa   000000 000465
    003262  aa   000000 000073
    003263  aa   040040 040040     372  		vfd a36/    ,36/i_n,36/0,36/(success-l_org)/5,36/a_1
    003264  aa   000000 000002
    003265  aa   000000 000000
    003266  aa   000000 001770
    003267  aa   000000 000002
    003270  aa   163063 040040     373  	l66_3:	vfd a36/s3  ,36/i_n,36/140,36/(l_126-l_org)/5,36/2
    003271  aa   000000 000002
    003272  aa   000000 000214
    003273  aa   000000 000531
    003274  aa   000000 000002
    003275  aa   040040 040040     374  l_126:	entry66:	vfd a36/    ,36/i_c,36/c_type8,36/(l_127-l_org)/5,36/a_12
    003276  aa   000000 000001
    003277  aa   000000 000013
    003300  aa   000000 000533
    003301  aa   000000 000007
    003302  aa   040040 040040     375  		vfd a36/    ,36/i_n,36/059,36/(r12dg-l_org)/5,36/0
    003303  aa   000000 000002
    003304  aa   000000 000073
    003305  aa   000000 001355
    003306  aa   000000 000000
    003307  aa   163040 040040     376  l_127:		vfd a36/s   ,36/i_n,36/0,36/(l_128-l_org)/5,36/a_71
    003310  aa   000000 000002
    003311  aa   000000 000000
    003312  aa   000000 000534
    003313  aa   000000 000236
    003314  aa   040040 040040     377  l_128:		vfd a36/    ,36/i_n,36/0,36/(l_129-l_org)/5,36/a_18
    003315  aa   000000 000002
    003316  aa   000000 000000
    003317  aa   000000 000535
    003320  aa   000000 000012
    003321  aa   163040 040040     378  l_129:		vfd a36/s   ,36/i_r,36/r_renames,36/(l_130-l_org)/5,36/0
    003322  aa   000000 000000
    003323  aa   000000 000357
    003324  aa   000000 000537
    003325  aa   000000 000000
    003326  aa   040040 040040     379  		vfd a36/    ,36/i_n,36/060,36/(r12dg-l_org)/5,36/0
    003327  aa   000000 000002
    003330  aa   000000 000074
    003331  aa   000000 001355
    003332  aa   000000 000000
    003333  aa   163040 040040     380  l_130:		vfd a36/s   ,36/i_c,36/c_type8,36/(l_131-l_org)/5,36/a_72
    003334  aa   000000 000001
    003335  aa   000000 000013
    003336  aa   000000 000541
    003337  aa   000000 000237
    003340  aa   040040 040040     381  		vfd a36/    ,36/i_n,36/020,36/(r12dg-l_org)/5,36/0
    003341  aa   000000 000002
    003342  aa   000000 000024
    003343  aa   000000 001355
    003344  aa   000000 000000
    003345  aa   163063 040040     382  l_131:	obj1of:	vfd a36/s3  ,36/i_r,36/r_of,36/(l_132-l_org)/5,36/5
    003346  aa   000000 000000
    003347  aa   000000 000205
    003350  aa   000000 000544
    003351  aa   000000 000005
    003352  aa   163063 040040     383  		vfd a36/s3  ,36/i_r,36/r_in,36/(l_132-l_org)/5,36/5
    003353  aa   000000 000000
    003354  aa   000000 000145
    003355  aa   000000 000544
    003356  aa   000000 000005
    003357  aa   040040 040040     384  		vfd a36/    ,36/i_n,36/0,36/(qual1n-l_org)/5,36/0
    003360  aa   000000 000002
    003361  aa   000000 000000
    003362  aa   000000 000545
    003363  aa   000000 000000
    003364  aa   163040 040040     385  l_132:		vfd a36/s   ,36/i_c,36/c_type8,36/(obj1of-l_org)/5,36/a_73
    003365  aa   000000 000001
    003366  aa   000000 000013
    003367  aa   000000 000541
    003370  aa   000000 000240
    003371  aa   040040 040040     386  	qual1n:	vfd a36/    ,36/i_r,36/r_per,36/(rnm-l_org)/5,36/0
    003372  aa   000000 000000
    003373  aa   000000 000275
    003374  aa   000000 000557
    003375  aa   000000 000000
    003376  aa   163040 040040     387  		vfd a36/s   ,36/i_r,36/r_thru,36/(l_133-l_org)/5,36/0
    003377  aa   000000 000000
    003400  aa   000000 000246
    003401  aa   000000 000550
    003402  aa   000000 000000
    003403  aa   040040 040040     388  		vfd a36/    ,36/i_n,36/064,36/(l_133-l_org)/5,36/0
    003404  aa   000000 000002
    003405  aa   000000 000100
    003406  aa   000000 000550
    003407  aa   000000 000000
    003410  aa   163040 040040     389  l_133:		vfd a36/s   ,36/i_c,36/c_type8,36/(l_134-l_org)/5,36/a_72
    003411  aa   000000 000001
    003412  aa   000000 000013
    003413  aa   000000 000552
    003414  aa   000000 000237
    003415  aa   040040 040040     390  		vfd a36/    ,36/i_n,36/020,36/(r12dg-l_org)/5,36/0
    003416  aa   000000 000002
    003417  aa   000000 000024
    003420  aa   000000 001355
    003421  aa   000000 000000
    003422  aa   163063 040040     391  l_134:	obj2of:	vfd a36/s3  ,36/i_r,36/r_of,36/(l_135-l_org)/5,36/5
    003423  aa   000000 000000
    003424  aa   000000 000205
    003425  aa   000000 000555
    003426  aa   000000 000005
    003427  aa   163063 040040     392  		vfd a36/s3  ,36/i_r,36/r_in,36/(l_135-l_org)/5,36/5
    003430  aa   000000 000000
    003431  aa   000000 000145
    003432  aa   000000 000555
    003433  aa   000000 000005
    003434  aa   040040 040040     393  		vfd a36/    ,36/i_n,36/0,36/(rnm-l_org)/5,36/0
    003435  aa   000000 000002
    003436  aa   000000 000000
    003437  aa   000000 000557
    003440  aa   000000 000000
    003441  aa   163040 040040     394  l_135:		vfd a36/s   ,36/i_c,36/c_type8,36/(obj2of-l_org)/5,36/a_73
    003442  aa   000000 000001
    003443  aa   000000 000013
    003444  aa   000000 000552
    003445  aa   000000 000240
    003446  aa   040040 040040     395  		vfd a36/    ,36/i_n,36/20,36/(r12dg-l_org)/5,36/0
    003447  aa   000000 000002
    003450  aa   000000 000024
    003451  aa   000000 001355
    003452  aa   000000 000000
    003453  aa   040040 040040     396  	rnm:	vfd a36/    ,36/i_n,36/0,36/(l_136-l_org)/5,36/a_74
    003454  aa   000000 000002
    003455  aa   000000 000000
    003456  aa   000000 000560
    003457  aa   000000 000241
    003460  aa   163040 040040     397  l_136:		vfd a36/s   ,36/i_r,36/r_per,36/(l_137-l_org)/5,36/a_76
    003461  aa   000000 000000
    003462  aa   000000 000275
    003463  aa   000000 000562
    003464  aa   000000 000243
    003465  aa   040040 040040     398  		vfd a36/    ,36/i_n,36/003,36/(l_137-l_org)/5,36/a_76
    003466  aa   000000 000002
    003467  aa   000000 000003
    003470  aa   000000 000562
    003471  aa   000000 000243
    003472  aa   040040 040040     399  l_137:		vfd a36/    ,36/i_c,36/c_lev66s,36/(l66_3-l_org)/5,36/a_8
    003473  aa   000000 000001
    003474  aa   000000 000077
    003475  aa   000000 000530
    003476  aa   000000 000006
    003477  aa   040040 040040     400  		vfd a36/    ,36/i_c,36/c_62,36/(success-l_org)/5,36/a_1
    003500  aa   000000 000001
    003501  aa   000000 000076
    003502  aa   000000 001770
    003503  aa   000000 000002
    003504  aa   040040 040040     401  		vfd a36/    ,36/i_c,36/c_lev01,36/(success-l_org)/5,36/a_1
    003505  aa   000000 000001
    003506  aa   000000 000012
    003507  aa   000000 001770
    003510  aa   000000 000002
    003511  aa   040040 040040     402  		vfd a36/    ,36/i_c,36/c_57,36/(success-l_org)/5,36/a_1
    003512  aa   000000 000001
    003513  aa   000000 000071
    003514  aa   000000 001770
    003515  aa   000000 000002
    003516  aa   040040 040040     403  		vfd a36/    ,36/i_n,36/163,36/(r13-l_org)/5,36/0
    003517  aa   000000 000002
    003520  aa   000000 000243
    003521  aa   000000 001374
    003522  aa   000000 000000
    003523  aa   040040 040040     404  	redefines:	vfd a36/    ,36/i_c,36/c_47,36/(l_138-l_org)/5,36/0
    003524  aa   000000 000001
    003525  aa   000000 000057
    003526  aa   000000 000571
    003527  aa   000000 000000
    003530  aa   163040 040040     405  		vfd a36/s   ,36/i_n,36/056,36/(r9dg-l_org)/5,36/0
    003531  aa   000000 000002
    003532  aa   000000 000070
    003533  aa   000000 001311
    003534  aa   000000 000000
    003535  aa   163040 040040     406  l_138:		vfd a36/s   ,36/i_c,36/c_type8,36/(l_139-l_org)/5,36/a_75
    003536  aa   000000 000001
    003537  aa   000000 000013
    003540  aa   000000 000573
    003541  aa   000000 000242
    003542  aa   040040 040040     407  		vfd a36/    ,36/i_n,36/042,36/(r9dg-l_org)/5,36/0
    003543  aa   000000 000002
    003544  aa   000000 000052
    003545  aa   000000 001311
    003546  aa   000000 000000
    003547  aa   163063 040040     408  l_139:		vfd a36/s3  ,36/i_r,36/r_of,36/(l_140-l_org)/5,36/5
    003550  aa   000000 000000
    003551  aa   000000 000205
    003552  aa   000000 000576
    003553  aa   000000 000005
    003554  aa   163063 040040     409  		vfd a36/s3  ,36/i_r,36/r_in,36/(l_140-l_org)/5,36/5
    003555  aa   000000 000000
    003556  aa   000000 000145
    003557  aa   000000 000576
    003560  aa   000000 000005
    003561  aa   040040 040040     410  		vfd a36/    ,36/i_n,36/0,36/(ddcls_1-l_org)/5,36/0
    003562  aa   000000 000002
    003563  aa   000000 000000
    003564  aa   000000 000216
    003565  aa   000000 000000
    003566  aa   040040 040040     411  l_140:		vfd a36/    ,36/i_n,36/93,36/(l_141-l_org)/5,36/0
    003567  aa   000000 000002
    003570  aa   000000 000135
    003571  aa   000000 000577
    003572  aa   000000 000000
    003573  aa   163040 040040     412  l_141:		vfd a36/s   ,36/i_c,36/c_type8,36/(l_142-l_org)/5,36/0
    003574  aa   000000 000001
    003575  aa   000000 000013
    003576  aa   000000 000601
    003577  aa   000000 000000
    003600  aa   040040 040040     413  		vfd a36/    ,36/i_n,36/20,36/(r9dg-l_org)/5,36/0
    003601  aa   000000 000002
    003602  aa   000000 000024
    003603  aa   000000 001311
    003604  aa   000000 000000
    003605  aa   163063 040040     414  l_142:	rof:	vfd a36/s3  ,36/i_r,36/r_of,36/(l_143-l_org)/5,36/5
    003606  aa   000000 000000
    003607  aa   000000 000205
    003610  aa   000000 000604
    003611  aa   000000 000005
    003612  aa   163063 040040     415  		vfd a36/s3  ,36/i_r,36/r_in,36/(l_143-l_org)/5,36/5
    003613  aa   000000 000000
    003614  aa   000000 000145
    003615  aa   000000 000604
    003616  aa   000000 000005
    003617  aa   040040 040040     416  		vfd a36/    ,36/i_n,36/0,36/(ddcls_1-l_org)/5,36/0
    003620  aa   000000 000002
    003621  aa   000000 000000
    003622  aa   000000 000216
    003623  aa   000000 000000
    003624  aa   163040 040040     417  l_143:		vfd a36/s   ,36/i_c,36/c_type8,36/(rof-l_org)/5,36/0
    003625  aa   000000 000001
    003626  aa   000000 000013
    003627  aa   000000 000601
    003630  aa   000000 000000
    003631  aa   040040 040040     418  		vfd a36/    ,36/i_n,36/20,36/(r9dg-l_org)/5,36/0
    003632  aa   000000 000002
    003633  aa   000000 000024
    003634  aa   000000 001311
    003635  aa   000000 000000
    003636  aa   040040 040040     419  	pd:	vfd a36/    ,36/i_n,36/0,36/(ddend-l_org)/5,36/a_59
    003637  aa   000000 000002
    003640  aa   000000 000000
    003641  aa   000000 000610
    003642  aa   000000 000137
    003643  aa   163040 040040     420  	eop:	vfd a36/s   ,36/i_r,36/r_cobol,36/(l_144-l_org)/5,36/a_60
    003644  aa   000000 000000
    003645  aa   000000 000277
    003646  aa   000000 000610
    003647  aa   000000 000140
    003650  aa   040040 040040     421  l_144:	ddend:	vfd a36/    ,36/i_n,36/0,36/(l_145-l_org)/5,36/a_62
    003651  aa   000000 000002
    003652  aa   000000 000000
    003653  aa   000000 000611
    003654  aa   000000 000142
    003655  aa   040040 040040     422  l_145:		vfd a36/    ,36/i_n,36/0,36/(l_145-l_org)/5,36/a_61
    003656  aa   000000 000002
    003657  aa   000000 000000
    003660  aa   000000 000611
    003661  aa   000000 000141
    003662  aa   163040 040040     423  	fs:	vfd a36/s   ,36/i_r,36/r_section,36/(l_146-l_org)/5,36/0
    003663  aa   000000 000000
    003664  aa   000000 000236
    003665  aa   000000 000614
    003666  aa   000000 000000
    003667  aa   040040 040040     424  		vfd a36/    ,36/i_n,36/002,36/(l_146-l_org)/5,36/0
    003670  aa   000000 000002
    003671  aa   000000 000002
    003672  aa   000000 000614
    003673  aa   000000 000000
    003674  aa   163040 040040     425  l_146:		vfd a36/s   ,36/i_r,36/r_per,36/(l_147-l_org)/5,36/a_62
    003675  aa   000000 000000
    003676  aa   000000 000275
    003677  aa   000000 000616
    003700  aa   000000 000142
    003701  aa   040040 040040     426  		vfd a36/    ,36/i_n,36/003,36/(l_147-l_org)/5,36/a_62
    003702  aa   000000 000002
    003703  aa   000000 000003
    003704  aa   000000 000616
    003705  aa   000000 000142
    003706  aa   040040 040040     427  l_147:	fsps:	vfd a36/    ,36/i_c,36/c_2,36/(l_148-l_org)/5,36/0
    003707  aa   000000 000001
    003710  aa   000000 000002
    003711  aa   000000 000620
    003712  aa   000000 000000
    003713  aa   040040 040040     428  		vfd a36/    ,36/i_n,36/005,36/(l_148-l_org)/5,36/0
    003714  aa   000000 000002
    003715  aa   000000 000005
    003716  aa   000000 000620
    003717  aa   000000 000000
    003720  aa   040040 040040     429  l_148:		vfd a36/    ,36/i_c,36/c_54,36/(l_149-l_org)/5,36/a_79
    003721  aa   000000 000001
    003722  aa   000000 000066
    003723  aa   000000 000622
    003724  aa   000000 000246
    003725  aa   040040 040040     430  		vfd a36/    ,36/i_n,36/4,36/(l_149-l_org)/5,36/a_79
    003726  aa   000000 000002
    003727  aa   000000 000004
    003730  aa   000000 000622
    003731  aa   000000 000246
    003732  aa   040040 040040     431  l_149:	fsindjump:	vfd a36/    ,36/i_n,36/0,36/(l_150-l_org)/5,36/a_62
    003733  aa   000000 000002
    003734  aa   000000 000000
    003735  aa   000000 000623
    003736  aa   000000 000142
    003737  aa   040040 040040     432  l_150:		vfd a36/    ,36/i_c,36/c_55,36/(l_151-l_org)/5,36/a_4
    003740  aa   000000 000001
    003741  aa   000000 000067
    003742  aa   000000 000626
    003743  aa   000000 000004
    003744  aa   040040 040040     433  		vfd a36/    ,36/i_c,36/c_62,36/(sj-l_org)/5,36/a_80
    003745  aa   000000 000001
    003746  aa   000000 000076
    003747  aa   000000 000003
    003750  aa   000000 000247
    003751  aa   040040 040040     434  		vfd a36/    ,36/i_n,36/006,36/(r2dg-l_org)/5,36/0
    003752  aa   000000 000002
    003753  aa   000000 000006
    003754  aa   000000 001222
    003755  aa   000000 000000
    003756  aa   163040 040040     435  l_151:	jumpbase1:	vfd a36/s   ,36/i_n,36/0,36/(fd-l_org)/5,36/a_81
    003757  aa   000000 000002
    003760  aa   000000 000000
    003761  aa   000000 000675
    003762  aa   000000 000250
    003763  aa   040040 040040     436  		vfd a36/    ,36/i_n,36/0,36/(sd-l_org)/5,36/a_81
    003764  aa   000000 000002
    003765  aa   000000 000000
    003766  aa   000000 000674
    003767  aa   000000 000250
    003770  aa   163040 040040     437  		vfd a36/s   ,36/i_n,36/0,36/(l_152-l_org)/5,36/a_81
    003771  aa   000000 000002
    003772  aa   000000 000000
    003773  aa   000000 000631
    003774  aa   000000 000250
    003775  aa   163040 040040     438  l_152:		vfd a36/s   ,36/i_c,36/c_type8,36/(l_153-l_org)/5,36/a_82
    003776  aa   000000 000001
    003777  aa   000000 000013
    004000  aa   000000 000633
    004001  aa   000000 000020
    004002  aa   040040 040040     439  		vfd a36/    ,36/i_n,36/164,36/(r3dg-l_org)/5,36/0
    004003  aa   000000 000002
    004004  aa   000000 000244
    004005  aa   000000 001232
    004006  aa   000000 000000
    004007  aa   163040 040040     440  l_153:		vfd a36/s   ,36/i_r,36/r_area,36/(l_154-l_org)/5,36/0
    004010  aa   000000 000000
    004011  aa   000000 000312
    004012  aa   000000 000635
    004013  aa   000000 000000
    004014  aa   040040 040040     441  		vfd a36/    ,36/i_n,36/026,36/(r3dg-l_org)/5,36/0
    004015  aa   000000 000002
    004016  aa   000000 000032
    004017  aa   000000 001232
    004020  aa   000000 000000
    004021  aa   163040 040040     442  l_154:		vfd a36/s   ,36/i_r,36/r_contains,36/(l_155-l_org)/5,36/0
    004022  aa   000000 000000
    004023  aa   000000 000327
    004024  aa   000000 000636
    004025  aa   000000 000000
    004026  aa   163040 040040     443  l_155:		vfd a36/s   ,36/i_c,36/c_int,36/(l_156-l_org)/5,36/a_83
    004027  aa   000000 000001
    004030  aa   000000 000010
    004031  aa   000000 000640
    004032  aa   000000 000021
    004033  aa   040040 040040     444  		vfd a36/    ,36/i_n,36/025,36/(r3dg-l_org)/5,36/0
    004034  aa   000000 000002
    004035  aa   000000 000031
    004036  aa   000000 001232
    004037  aa   000000 000000
    004040  aa   163040 040040     445  l_156:		vfd a36/s   ,36/i_r,36/r_characters,36/(l_157-l_org)/5,36/a_84
    004041  aa   000000 000000
    004042  aa   000000 000123
    004043  aa   000000 000643
    004044  aa   000000 000025
    004045  aa   163040 040040     446  		vfd a36/s   ,36/i_r,36/r_record,36/(l_157-l_org)/5,36/a_85
    004046  aa   000000 000000
    004047  aa   000000 000224
    004050  aa   000000 000643
    004051  aa   000000 000000
    004052  aa   040040 040040     447  		vfd a36/    ,36/i_n,36/0,36/(l_157-l_org)/5,36/a_84
    004053  aa   000000 000002
    004054  aa   000000 000000
    004055  aa   000000 000643
    004056  aa   000000 000025
    004057  aa   163040 040040     448  l_157:		vfd a36/s   ,36/i_r,36/r_record,36/(l_158-l_org)/5,36/0
    004060  aa   000000 000000
    004061  aa   000000 000224
    004062  aa   000000 000645
    004063  aa   000000 000000
    004064  aa   040040 040040     449  		vfd a36/    ,36/i_n,36/0,36/(endsa-l_org)/5,36/0
    004065  aa   000000 000002
    004066  aa   000000 000000
    004067  aa   000000 000656
    004070  aa   000000 000000
    004071  aa   163040 040040     450  l_158:		vfd a36/s   ,36/i_r,36/r_contains,36/(l_159-l_org)/5,36/0
    004072  aa   000000 000000
    004073  aa   000000 000327
    004074  aa   000000 000646
    004075  aa   000000 000000
    004076  aa   163040 040040     451  l_159:		vfd a36/s   ,36/i_c,36/c_int,36/(l_160-l_org)/5,36/a_86
    004077  aa   000000 000001
    004100  aa   000000 000010
    004101  aa   000000 000650
    004102  aa   000000 000255
    004103  aa   040040 040040     452  		vfd a36/    ,36/i_n,36/025,36/(r3dg-l_org)/5,36/0
    004104  aa   000000 000002
    004105  aa   000000 000031
    004106  aa   000000 001232
    004107  aa   000000 000000
    004110  aa   163040 040040     453  l_160:		vfd a36/s   ,36/i_r,36/r_to,36/(l_161-l_org)/5,36/0
    004111  aa   000000 000000
    004112  aa   000000 000252
    004113  aa   000000 000653
    004114  aa   000000 000000
    004115  aa   163040 040040     454  		vfd a36/s   ,36/i_r,36/r_characters,36/(endsa-l_org)/5,36/a_87
    004116  aa   000000 000000
    004117  aa   000000 000123
    004120  aa   000000 000656
    004121  aa   000000 000256
    004122  aa   040040 040040     455  		vfd a36/    ,36/i_n,36/0,36/(endsa-l_org)/5,36/a_87
    004123  aa   000000 000002
    004124  aa   000000 000000
    004125  aa   000000 000656
    004126  aa   000000 000256
    004127  aa   163040 040040     456  l_161:		vfd a36/s   ,36/i_c,36/c_int,36/(l_162-l_org)/5,36/a_88
    004130  aa   000000 000001
    004131  aa   000000 000010
    004132  aa   000000 000655
    004133  aa   000000 000257
    004134  aa   040040 040040     457  		vfd a36/    ,36/i_n,36/017,36/(r3dg-l_org)/5,36/0
    004135  aa   000000 000002
    004136  aa   000000 000021
    004137  aa   000000 001232
    004140  aa   000000 000000
    004141  aa   163040 040040     458  l_162:		vfd a36/s   ,36/i_r,36/r_characters,36/(l_163-l_org)/5,36/0
    004142  aa   000000 000000
    004143  aa   000000 000123
    004144  aa   000000 000656
    004145  aa   000000 000000
    004146  aa   163040 040040     459  l_163:	endsa:	vfd a36/s   ,36/i_r,36/r_per,36/(l_164-l_org)/5,36/a_70
    004147  aa   000000 000000
    004150  aa   000000 000275
    004151  aa   000000 000660
    004152  aa   000000 000235
    004153  aa   040040 040040     460  		vfd a36/    ,36/i_n,36/003,36/(l_164-l_org)/5,36/a_70
    004154  aa   000000 000002
    004155  aa   000000 000003
    004156  aa   000000 000660
    004157  aa   000000 000235
    004160  aa   163040 040040     461  l_164:	sa01:	vfd a36/s   ,36/i_c,36/c_lev01,36/(l_165-l_org)/5,36/a_8
    004161  aa   000000 000001
    004162  aa   000000 000012
    004163  aa   000000 000661
    004164  aa   000000 000006
    004165  aa   040040 040040     462  l_165:		vfd a36/    ,36/i_n,36/0,36/(l_166-l_org)/5,36/a_90
    004166  aa   000000 000002
    004167  aa   000000 000000
    004170  aa   000000 000662
    004171  aa   000000 000261
    004172  aa   163040 040040     463  l_166:		vfd a36/s   ,36/i_c,36/c_type8,36/(l_167-l_org)/5,36/a_12
    004173  aa   000000 000001
    004174  aa   000000 000013
    004175  aa   000000 000665
    004176  aa   000000 000007
    004177  aa   163040 040040     464  		vfd a36/s   ,36/i_r,36/r_filler,36/(l_167-l_org)/5,36/a_14
    004200  aa   000000 000000
    004201  aa   000000 000334
    004202  aa   000000 000665
    004203  aa   000000 000010
    004204  aa   040040 040040     465  		vfd a36/    ,36/i_n,36/020,36/(l_167-l_org)/5,36/a_13
    004205  aa   000000 000002
    004206  aa   000000 000024
    004207  aa   000000 000665
    004210  aa   000000 000070
    004211  aa   040040 040040     466  l_167:		vfd a36/    ,36/i_s,36/(record01-l_org)/5,36/(l_168-l_org)/5,36/0
    004212  aa   000000 000003
    004213  aa   000000 000130
    004214  aa   000000 000667
    004215  aa   000000 000000
    004216  aa   040040 040040     467  		vfd a36/    ,36/i_n,36/0,36/(l_168-l_org)/5,36/0
    004217  aa   000000 000002
    004220  aa   000000 000000
    004221  aa   000000 000667
    004222  aa   000000 000000
    004223  aa   040040 040040     468  l_168:		vfd a36/    ,36/i_c,36/c_lev01,36/(sa01-l_org)/5,36/0
    004224  aa   000000 000001
    004225  aa   000000 000012
    004226  aa   000000 000660
    004227  aa   000000 000000
    004230  aa   040040 040040     469  		vfd a36/    ,36/i_c,36/166,36/(r4dg-l_org)/5,36/0
    004231  aa   000000 000001
    004232  aa   000000 000246
    004233  aa   000000 001244
    004234  aa   000000 000000
    004235  aa   040040 040040     470  l_169:		vfd a36/    ,36/i_c,36/c_55,36/(fsindjump-l_org)/5,36/0
    004236  aa   000000 000001
    004237  aa   000000 000067
    004240  aa   000000 000622
    004241  aa   000000 000000
    004242  aa   040040 040040     471  		vfd a36/    ,36/i_c,36/c_62,36/(sj-l_org)/5,36/a_80
    004243  aa   000000 000001
    004244  aa   000000 000076
    004245  aa   000000 000003
    004246  aa   000000 000247
    004247  aa   040040 040040     472  		vfd a36/    ,36/i_n,36/006,36/(r3dg-l_org)/5,36/0
    004250  aa   000000 000002
    004251  aa   000000 000006
    004252  aa   000000 001232
    004253  aa   000000 000000
    004254  aa   163063 040040     473  	sd:	vfd a36/s3  ,36/i_n,36/210,36/(l_170-l_org)/5,36/5
    004255  aa   000000 000002
    004256  aa   000000 000322
    004257  aa   000000 000675
    004260  aa   000000 000005
    004261  aa   040040 040040     474  l_170:	fd:	vfd a36/    ,36/i_c,36/c_type8,36/(l_171-l_org)/5,36/a_95
    004262  aa   000000 000001
    004263  aa   000000 000013
    004264  aa   000000 000677
    004265  aa   000000 000266
    004266  aa   040040 040040     475  		vfd a36/    ,36/i_n,36/167,36/(r40dg-l_org)/5,36/0
    004267  aa   000000 000002
    004270  aa   000000 000247
    004271  aa   000000 001257
    004272  aa   000000 000000
    004273  aa   163040 040040     476  l_171:		vfd a36/s   ,36/i_c,36/c_56,36/(l_172-l_org)/5,36/a_94
    004274  aa   000000 000001
    004275  aa   000000 000070
    004276  aa   000000 000701
    004277  aa   000000 000265
    004300  aa   040040 040040     477  		vfd a36/    ,36/i_n,36/010,36/(r40dg-l_org)/5,36/0
    004301  aa   000000 000002
    004302  aa   000000 000012
    004303  aa   000000 001257
    004304  aa   000000 000000
    004305  aa   040040 040040     478  l_172:	fdclauses:	vfd a36/    ,36/i_c,36/c_61,36/(jumpbase2-l_org)/5,36/a_4
    004306  aa   000000 000001
    004307  aa   000000 000075
    004310  aa   000000 000721
    004311  aa   000000 000004
    004312  aa   163040 040040     479  		vfd a36/s   ,36/i_c,36/c_per_ck,36/(l_173-l_org)/5,36/a_99
    004313  aa   000000 000001
    004314  aa   000000 000111
    004315  aa   000000 000704
    004316  aa   000000 000272
    004317  aa   040040 040040     480  		vfd a36/    ,36/i_n,36/003,36/(l_173-l_org)/5,36/a_168
    004320  aa   000000 000002
    004321  aa   000000 000003
    004322  aa   000000 000704
    004323  aa   000000 000022
    004324  aa   040040 040040     481  l_173:		vfd a36/    ,36/i_c,36/c_lrc,36/(l_174-l_org)/5,36/0
    004325  aa   000000 000001
    004326  aa   000000 000064
    004327  aa   000000 000706
    004330  aa   000000 000000
    004331  aa   040040 040040     482  		vfd a36/    ,36/i_n,36/12,36/(l_174-l_org)/5,36/0
    004332  aa   000000 000002
    004333  aa   000000 000014
    004334  aa   000000 000706
    004335  aa   000000 000000
    004336  aa   040040 040040     483  l_174:	fd01:	vfd a36/    ,36/i_c,36/c_lev01,36/(file01rcd-l_org)/5,36/a_20
    004337  aa   000000 000001
    004340  aa   000000 000012
    004341  aa   000000 000712
    004342  aa   000000 000013
    004343  aa   040040 040040     484  		vfd a36/    ,36/i_c,36/c_58,36/(l_175-l_org)/5,36/0
    004344  aa   000000 000001
    004345  aa   000000 000072
    004346  aa   000000 000711
    004347  aa   000000 000000
    004350  aa   040040 040040     485  		vfd a36/    ,36/i_n,36/166,36/(l_175-l_org)/5,36/0
    004351  aa   000000 000002
    004352  aa   000000 000246
    004353  aa   000000 000711
    004354  aa   000000 000000
    004355  aa   040040 040040     486  l_175:		vfd a36/    ,36/i_n,36/0,36/(fsindjump-l_org)/5,36/0
    004356  aa   000000 000002
    004357  aa   000000 000000
    004360  aa   000000 000622
    004361  aa   000000 000000
    004362  aa   163040 040040     487  	file01rcd:	vfd a36/s   ,36/i_n,36/0,36/(l_176-l_org)/5,36/a_8
    004363  aa   000000 000002
    004364  aa   000000 000000
    004365  aa   000000 000713
    004366  aa   000000 000006
    004367  aa   163040 040040     488  l_176:		vfd a36/s   ,36/i_c,36/c_type8,36/(l_177-l_org)/5,36/a_12
    004370  aa   000000 000001
    004371  aa   000000 000013
    004372  aa   000000 000716
    004373  aa   000000 000007
    004374  aa   163040 040040     489  		vfd a36/s   ,36/i_r,36/r_filler,36/(l_177-l_org)/5,36/a_14
    004375  aa   000000 000000
    004376  aa   000000 000334
    004377  aa   000000 000716
    004400  aa   000000 000010
    004401  aa   040040 040040     490  		vfd a36/    ,36/i_n,36/020,36/(l_177-l_org)/5,36/a_13
    004402  aa   000000 000002
    004403  aa   000000 000024
    004404  aa   000000 000716
    004405  aa   000000 000070
    004406  aa   040040 040040     491  l_177:		vfd a36/    ,36/i_n,36/0,36/(l_178-l_org)/5,36/a_100
    004407  aa   000000 000002
    004410  aa   000000 000000
    004411  aa   000000 000717
    004412  aa   000000 000273
    004413  aa   040040 040040     492  l_178:		vfd a36/    ,36/i_s,36/(record01-l_org)/5,36/(fd01-l_org)/5,36/0
    004414  aa   000000 000003
    004415  aa   000000 000130
    004416  aa   000000 000706
    004417  aa   000000 000000
    004420  aa   040040 040040     493  		vfd a36/    ,36/i_n,36/0,36/(fd01-l_org)/5,36/0
    004421  aa   000000 000002
    004422  aa   000000 000000
    004423  aa   000000 000706
    004424  aa   000000 000000
    004425  aa   040040 040040     494  	jumpbase2:	vfd a36/    ,36/i_n,36/0,36/(fdrm-l_org)/5,36/0
    004426  aa   000000 000002
    004427  aa   000000 000000
    004430  aa   000000 000732
    004431  aa   000000 000000
    004432  aa   040040 040040     495  		vfd a36/    ,36/i_n,36/0,36/(fdbc-l_org)/5,36/0
    004433  aa   000000 000002
    004434  aa   000000 000000
    004435  aa   000000 000741
    004436  aa   000000 000000
    004437  aa   040040 040040     496  		vfd a36/    ,36/i_n,36/0,36/(fdrc-l_org)/5,36/0
    004440  aa   000000 000002
    004441  aa   000000 000000
    004442  aa   000000 000764
    004443  aa   000000 000000
    004444  aa   040040 040040     497  		vfd a36/    ,36/i_n,36/0,36/(fdlr-l_org)/5,36/0
    004445  aa   000000 000002
    004446  aa   000000 000000
    004447  aa   000000 001004
    004450  aa   000000 000000
    004451  aa   040040 040040     498  		vfd a36/    ,36/i_n,36/0,36/(fdvo-l_org)/5,36/0
    004452  aa   000000 000002
    004453  aa   000000 000000
    004454  aa   000000 001021
    004455  aa   000000 000000
    004456  aa   040040 040040     499  		vfd a36/    ,36/i_n,36/0,36/(fdri-l_org)/5,36/0
    004457  aa   000000 000002
    004460  aa   000000 000000
    004461  aa   000000 001110
    004462  aa   000000 000000
    004463  aa   040040 040040     500  		vfd a36/    ,36/i_n,36/0,36/(fddr-l_org)/5,36/0
    004464  aa   000000 000002
    004465  aa   000000 000000
    004466  aa   000000 001076
    004467  aa   000000 000000
    004470  aa   040040 040040     501  		vfd a36/    ,36/i_n,36/0,36/(fdli-l_org)/5,36/0
    004471  aa   000000 000002
    004472  aa   000000 000000
    004473  aa   000000 001120
    004474  aa   000000 000000
    004475  aa   040040 040040     502  		vfd a36/    ,36/i_n,36/0,36/(fdcs-l_org)/5,36/0
    004476  aa   000000 000002
    004477  aa   000000 000000
    004500  aa   000000 001177
    004501  aa   000000 000000
    004502  aa   163040 040040     503  	fdrm:	vfd a36/s   ,36/i_n,36/18,36/(l_179-l_org)/5,36/0
    004503  aa   000000 000002
    004504  aa   000000 000022
    004505  aa   000000 000733
    004506  aa   000000 000000
    004507  aa   163040 040040     504  l_179:		vfd a36/s   ,36/i_r,36/r_mode,36/(l_180-l_org)/5,36/0
    004510  aa   000000 000000
    004511  aa   000000 000346
    004512  aa   000000 000734
    004513  aa   000000 000000
    004514  aa   163040 040040     505  l_180:		vfd a36/s   ,36/i_r,36/r_is,36/(l_181-l_org)/5,36/0
    004515  aa   000000 000000
    004516  aa   000000 000166
    004517  aa   000000 000735
    004520  aa   000000 000000
    004521  aa   040040 040040     506  l_181:		vfd a36/    ,36/i_c,36/c_65,36/(l_182-l_org)/5,36/a_104
    004522  aa   000000 000001
    004523  aa   000000 000101
    004524  aa   000000 000737
    004525  aa   000000 000277
    004526  aa   040040 040040     507  		vfd a36/    ,36/i_n,36/139,36/(r4dg-l_org)/5,36/0
    004527  aa   000000 000002
    004530  aa   000000 000213
    004531  aa   000000 001244
    004532  aa   000000 000000
    004533  aa   163040 040040     508  l_182:		vfd a36/s   ,36/i_c,36/c_type8,36/(fdclauses-l_org)/5,36/a_105
    004534  aa   000000 000001
    004535  aa   000000 000013
    004536  aa   000000 000701
    004537  aa   000000 000300
    004540  aa   040040 040040     509  		vfd a36/    ,36/i_n,36/014,36/(r4dg-l_org)/5,36/0
    004541  aa   000000 000002
    004542  aa   000000 000016
    004543  aa   000000 001244
    004544  aa   000000 000000
    004545  aa   163040 040040     510  	fdbc:	vfd a36/s   ,36/i_n,36/0,36/(l_183-l_org)/5,36/0
    004546  aa   000000 000002
    004547  aa   000000 000000
    004550  aa   000000 000742
    004551  aa   000000 000000
    004552  aa   163040 040040     511  l_183:		vfd a36/s   ,36/i_r,36/r_contains,36/(l_184-l_org)/5,36/0
    004553  aa   000000 000000
    004554  aa   000000 000327
    004555  aa   000000 000743
    004556  aa   000000 000000
    004557  aa   040040 040040     512  l_184:		vfd a36/    ,36/i_c,36/c_66,36/(l_185-l_org)/5,36/a_106
    004560  aa   000000 000001
    004561  aa   000000 000102
    004562  aa   000000 000745
    004563  aa   000000 000301
    004564  aa   040040 040040     513  		vfd a36/    ,36/i_n,36/140,36/(r4dg-l_org)/5,36/0
    004565  aa   000000 000002
    004566  aa   000000 000214
    004567  aa   000000 001244
    004570  aa   000000 000000
    004571  aa   163040 040040     514  l_185:		vfd a36/s   ,36/i_c,36/c_int,36/(l_186-l_org)/5,36/a_114
    004572  aa   000000 000001
    004573  aa   000000 000010
    004574  aa   000000 000747
    004575  aa   000000 000311
    004576  aa   040040 040040     515  		vfd a36/    ,36/i_n,36/025,36/(r4dg-l_org)/5,36/0
    004577  aa   000000 000002
    004600  aa   000000 000031
    004601  aa   000000 001244
    004602  aa   000000 000000
    004603  aa   040040 040040     516  l_186:		vfd a36/    ,36/i_r,36/r_to,36/(maxbc-l_org)/5,36/0
    004604  aa   000000 000000
    004605  aa   000000 000252
    004606  aa   000000 000753
    004607  aa   000000 000000
    004610  aa   163040 040040     517  	bcrd:	vfd a36/s   ,36/i_r,36/r_records,36/(fdclauses-l_org)/5,36/a_115
    004611  aa   000000 000000
    004612  aa   000000 000303
    004613  aa   000000 000701
    004614  aa   000000 000312
    004615  aa   163040 040040     518  		vfd a36/s   ,36/i_r,36/r_characters,36/(fdclauses-l_org)/5,36/a_116
    004616  aa   000000 000000
    004617  aa   000000 000123
    004620  aa   000000 000701
    004621  aa   000000 000313
    004622  aa   040040 040040     519  		vfd a36/    ,36/i_n,36/015,36/(fdclauses-l_org)/5,36/a_116
    004623  aa   000000 000002
    004624  aa   000000 000017
    004625  aa   000000 000701
    004626  aa   000000 000313
    004627  aa   040040 040040     520  	maxbc:	vfd a36/    ,36/i_n,36/0,36/(l_187-l_org)/5,36/a_82
    004630  aa   000000 000002
    004631  aa   000000 000000
    004632  aa   000000 000755
    004633  aa   000000 000020
    004634  aa   040040 040040     521  		vfd a36/    ,36/i_n,36/0,36/(r4dg-l_org)/5,36/0
    004635  aa   000000 000002
    004636  aa   000000 000000
    004637  aa   000000 001244
    004640  aa   000000 000000
    004641  aa   163063 040040     522  l_187:		vfd a36/s3  ,36/i_n,36/137,36/(l_188-l_org)/5,36/16
    004642  aa   000000 000002
    004643  aa   000000 000211
    004644  aa   000000 000762
    004645  aa   000000 000020
    004646  aa   163063 040040     523  		vfd a36/s3  ,36/i_n,36/137,36/(l_188-l_org)/5,36/18
    004647  aa   000000 000002
    004650  aa   000000 000211
    004651  aa   000000 000762
    004652  aa   000000 000022
    004653  aa   163064 040040     524  		vfd a36/s4  ,36/i_n,36/137,36/(l_188-l_org)/5,36/20
    004654  aa   000000 000002
    004655  aa   000000 000211
    004656  aa   000000 000762
    004657  aa   000000 000024
    004660  aa   040040 040040     525  		vfd a36/    ,36/i_n,36/208,36/(r4dg-l_org)/5,36/0
    004661  aa   000000 000002
    004662  aa   000000 000320
    004663  aa   000000 001244
    004664  aa   000000 000000
    004665  aa   163065 040040     526  		vfd a36/s5  ,36/i_n,36/137,36/(l_188-l_org)/5,36/26
    004666  aa   000000 000002
    004667  aa   000000 000211
    004670  aa   000000 000762
    004671  aa   000000 000032
    004672  aa   163040 040040     527  l_188:		vfd a36/s   ,36/i_c,36/c_int,36/(bcrd-l_org)/5,36/a_117
    004673  aa   000000 000001
    004674  aa   000000 000010
    004675  aa   000000 000750
    004676  aa   000000 000314
    004677  aa   040040 040040     528  		vfd a36/    ,36/i_n,36/16,36/(r4dg-l_org)/5,36/0
    004700  aa   000000 000002
    004701  aa   000000 000020
    004702  aa   000000 001244
    004703  aa   000000 000000
    004704  aa   163040 040040     529  	fdrc:	vfd a36/s   ,36/i_n,36/0,36/(l_189-l_org)/5,36/0
    004705  aa   000000 000002
    004706  aa   000000 000000
    004707  aa   000000 000765
    004710  aa   000000 000000
    004711  aa   163040 040040     530  l_189:		vfd a36/s   ,36/i_r,36/r_contains,36/(l_190-l_org)/5,36/0
    004712  aa   000000 000000
    004713  aa   000000 000327
    004714  aa   000000 000766
    004715  aa   000000 000000
    004716  aa   040040 040040     531  l_190:		vfd a36/    ,36/i_c,36/c_67,36/(l_191-l_org)/5,36/a_107
    004717  aa   000000 000001
    004720  aa   000000 000103
    004721  aa   000000 000770
    004722  aa   000000 000302
    004723  aa   040040 040040     532  		vfd a36/    ,36/i_n,36/141,36/(r4dg-l_org)/5,36/0
    004724  aa   000000 000002
    004725  aa   000000 000215
    004726  aa   000000 001244
    004727  aa   000000 000000
    004730  aa   163040 040040     533  l_191:		vfd a36/s   ,36/i_c,36/c_int,36/(l_192-l_org)/5,36/a_120
    004731  aa   000000 000001
    004732  aa   000000 000010
    004733  aa   000000 000772
    004734  aa   000000 000317
    004735  aa   040040 040040     534  		vfd a36/    ,36/i_n,36/25,36/(r4dg-l_org)/5,36/0
    004736  aa   000000 000002
    004737  aa   000000 000031
    004740  aa   000000 001244
    004741  aa   000000 000000
    004742  aa   163040 040040     535  l_192:		vfd a36/s   ,36/i_r,36/r_to,36/(rcint-l_org)/5,36/0
    004743  aa   000000 000000
    004744  aa   000000 000252
    004745  aa   000000 001002
    004746  aa   000000 000000
    004747  aa   163040 040040     536  	rcch:	vfd a36/s   ,36/i_r,36/r_characters,36/(l_193-l_org)/5,36/0
    004750  aa   000000 000000
    004751  aa   000000 000123
    004752  aa   000000 000774
    004753  aa   000000 000000
    004754  aa   040040 040040     537  l_193:		vfd a36/    ,36/i_r,36/r_depending,36/(l_194-l_org)/5,36/0
    004755  aa   000000 000000
    004756  aa   000000 000134
    004757  aa   000000 000776
    004760  aa   000000 000000
    004761  aa   040040 040040     538  		vfd a36/    ,36/i_n,36/0,36/(fdclauses-l_org)/5,36/0
    004762  aa   000000 000002
    004763  aa   000000 000000
    004764  aa   000000 000701
    004765  aa   000000 000000
    004766  aa   163065 040040     539  l_194:		vfd a36/s5  ,36/i_n,36/102,36/(l_195-l_org)/5,36/25
    004767  aa   000000 000002
    004770  aa   000000 000146
    004771  aa   000000 000777
    004772  aa   000000 000031
    004773  aa   163040 040040     540  l_195:		vfd a36/s   ,36/i_r,36/r_on,36/(l_196-l_org)/5,36/0
    004774  aa   000000 000000
    004775  aa   000000 000206
    004776  aa   000000 001000
    004777  aa   000000 000000
    005000  aa   163040 040040     541  l_196:		vfd a36/s   ,36/i_c,36/c_type8,36/(fdclauses-l_org)/5,36/a_96
    005001  aa   000000 000001
    005002  aa   000000 000013
    005003  aa   000000 000701
    005004  aa   000000 000267
    005005  aa   040040 040040     542  		vfd a36/    ,36/i_n,36/020,36/(fdclauses-l_org)/5,36/0
    005006  aa   000000 000002
    005007  aa   000000 000024
    005010  aa   000000 000701
    005011  aa   000000 000000
    005012  aa   163040 040040     543  	rcint:	vfd a36/s   ,36/i_c,36/c_int,36/(rcch-l_org)/5,36/a_122
    005013  aa   000000 000001
    005014  aa   000000 000010
    005015  aa   000000 000773
    005016  aa   000000 000321
    005017  aa   040040 040040     544  		vfd a36/    ,36/i_n,36/17,36/(r4dg-l_org)/5,36/0
    005020  aa   000000 000002
    005021  aa   000000 000021
    005022  aa   000000 001244
    005023  aa   000000 000000
    005024  aa   163040 040040     545  	fdlr:	vfd a36/s   ,36/i_n,36/0,36/(l_197-l_org)/5,36/0
    005025  aa   000000 000002
    005026  aa   000000 000000
    005027  aa   000000 001005
    005030  aa   000000 000000
    005031  aa   163040 040040     546  l_197:		vfd a36/s   ,36/i_r,36/r_records,36/(fdlr1-l_org)/5,36/0
    005032  aa   000000 000000
    005033  aa   000000 000303
    005034  aa   000000 001012
    005035  aa   000000 000000
    005036  aa   163040 040040     547  		vfd a36/s   ,36/i_r,36/r_record,36/(l_198-l_org)/5,36/0
    005037  aa   000000 000000
    005040  aa   000000 000224
    005041  aa   000000 001010
    005042  aa   000000 000000
    005043  aa   040040 040040     548  		vfd a36/    ,36/i_n,36/0,36/(r4dg-l_org)/5,36/0
    005044  aa   000000 000002
    005045  aa   000000 000000
    005046  aa   000000 001244
    005047  aa   000000 000000
    005050  aa   163040 040040     549  l_198:		vfd a36/s   ,36/i_r,36/r_is,36/(fdlr2-l_org)/5,36/0
    005051  aa   000000 000000
    005052  aa   000000 000166
    005053  aa   000000 001013
    005054  aa   000000 000000
    005055  aa   040040 040040     550  		vfd a36/    ,36/i_n,36/0,36/(fdlr2-l_org)/5,36/0
    005056  aa   000000 000002
    005057  aa   000000 000000
    005060  aa   000000 001013
    005061  aa   000000 000000
    005062  aa   163040 040040     551  	fdlr1:	vfd a36/s   ,36/i_r,36/r_are,36/(l_199-l_org)/5,36/0
    005063  aa   000000 000000
    005064  aa   000000 000166
    005065  aa   000000 001013
    005066  aa   000000 000000
    005067  aa   040040 040040     552  l_199:	fdlr2:	vfd a36/    ,36/i_c,36/c_68,36/(l_200-l_org)/5,36/a_108
    005070  aa   000000 000001
    005071  aa   000000 000104
    005072  aa   000000 001015
    005073  aa   000000 000303
    005074  aa   040040 040040     553  		vfd a36/    ,36/i_n,36/142,36/(r4dg-l_org)/5,36/0
    005075  aa   000000 000002
    005076  aa   000000 000216
    005077  aa   000000 001244
    005100  aa   000000 000000
    005101  aa   163040 040040     554  l_200:		vfd a36/s   ,36/i_r,36/r_standard,36/(fdclauses-l_org)/5,36/a_124
    005102  aa   000000 000000
    005103  aa   000000 000242
    005104  aa   000000 000701
    005105  aa   000000 000323
    005106  aa   163040 040040     555  		vfd a36/s   ,36/i_r,36/r_omitted,36/(fdclauses-l_org)/5,36/a_123
    005107  aa   000000 000000
    005110  aa   000000 000313
    005111  aa   000000 000701
    005112  aa   000000 000322
    005113  aa   040040 040040     556  		vfd a36/    ,36/i_n,36/148,36/(r4dg-l_org)/5,36/0
    005114  aa   000000 000002
    005115  aa   000000 000224
    005116  aa   000000 001244
    005117  aa   000000 000000
    005120  aa   163040 040040     557  l_201:		vfd a36/s   ,36/i_n,36/0,36/(fdclauses-l_org)/5,36/0
    005121  aa   000000 000002
    005122  aa   000000 000000
    005123  aa   000000 000701
    005124  aa   000000 000000
    005125  aa   163040 040040     558  	fdvo:	vfd a36/s   ,36/i_n,36/0,36/(l_202-l_org)/5,36/0
    005126  aa   000000 000002
    005127  aa   000000 000000
    005130  aa   000000 001022
    005131  aa   000000 000000
    005132  aa   163040 040040     559  l_202:		vfd a36/s   ,36/i_r,36/r_of,36/(l_203-l_org)/5,36/0
    005133  aa   000000 000000
    005134  aa   000000 000205
    005135  aa   000000 001024
    005136  aa   000000 000000
    005137  aa   040040 040040     560  		vfd a36/    ,36/i_n,36/0,36/(l_203-l_org)/5,36/0
    005140  aa   000000 000002
    005141  aa   000000 000000
    005142  aa   000000 001024
    005143  aa   000000 000000
    005144  aa   040040 040040     561  l_203:		vfd a36/    ,36/i_c,36/c_69,36/(l_204-l_org)/5,36/a_109
    005145  aa   000000 000001
    005146  aa   000000 000105
    005147  aa   000000 001026
    005150  aa   000000 000304
    005151  aa   040040 040040     562  		vfd a36/    ,36/i_n,36/143,36/(r4dg-l_org)/5,36/0
    005152  aa   000000 000002
    005153  aa   000000 000217
    005154  aa   000000 001244
    005155  aa   000000 000000
    005156  aa   163040 040040     563  l_204:		vfd a36/s   ,36/i_c,36/c_labnam,36/(l_205-l_org)/5,36/0
    005157  aa   000000 000001
    005160  aa   000000 000044
    005161  aa   000000 001031
    005162  aa   000000 000000
    005163  aa   163040 040040     564  		vfd a36/s   ,36/i_c,36/c_type8,36/(fdvo4-l_org)/5,36/0
    005164  aa   000000 000001
    005165  aa   000000 000013
    005166  aa   000000 001052
    005167  aa   000000 000000
    005170  aa   040040 040040     565  		vfd a36/    ,36/i_n,36/020,36/(r4dg-l_org)/5,36/0
    005171  aa   000000 000002
    005172  aa   000000 000024
    005173  aa   000000 001244
    005174  aa   000000 000000
    005175  aa   163040 040040     566  l_205:	fdvo1:	vfd a36/s   ,36/i_r,36/r_is,36/(l_206-l_org)/5,36/0
    005176  aa   000000 000000
    005177  aa   000000 000166
    005200  aa   000000 001032
    005201  aa   000000 000000
    005202  aa   040040 040040     567  l_206:		vfd a36/    ,36/i_c,36/c_type8,36/(fdvo3-l_org)/5,36/a_127
    005203  aa   000000 000001
    005204  aa   000000 000013
    005205  aa   000000 001036
    005206  aa   000000 000326
    005207  aa   163040 040040     568  		vfd a36/s   ,36/i_c,36/c_all,36/(l_207-l_org)/5,36/0
    005210  aa   000000 000001
    005211  aa   000000 000062
    005212  aa   000000 001034
    005213  aa   000000 000000
    005214  aa   163040 040040     569  l_207:		vfd a36/s   ,36/i_c,36/c_labval,36/(fdvo2-l_org)/5,36/a_126
    005215  aa   000000 000001
    005216  aa   000000 000060
    005217  aa   000000 001047
    005220  aa   000000 000325
    005221  aa   040040 040040     570  		vfd a36/    ,36/i_n,36/223,36/(r4dg-l_org)/5,36/0
    005222  aa   000000 000002
    005223  aa   000000 000337
    005224  aa   000000 001244
    005225  aa   000000 000000
    005226  aa   040040 040040     571  	fdvo3:	vfd a36/    ,36/i_n,36/0,36/(l_208-l_org)/5,36/a_82
    005227  aa   000000 000002
    005230  aa   000000 000000
    005231  aa   000000 001040
    005232  aa   000000 000020
    005233  aa   040040 040040     572  		vfd a36/    ,36/i_n,36/208,36/(r4dg-l_org)/5,36/0
    005234  aa   000000 000002
    005235  aa   000000 000320
    005236  aa   000000 001244
    005237  aa   000000 000000
    005240  aa   163063 040040     573  l_208:		vfd a36/s3  ,36/i_n,36/155,36/(l_209-l_org)/5,36/16
    005241  aa   000000 000002
    005242  aa   000000 000233
    005243  aa   000000 001045
    005244  aa   000000 000020
    005245  aa   163063 040040     574  		vfd a36/s3  ,36/i_n,36/155,36/(l_209-l_org)/5,36/18
    005246  aa   000000 000002
    005247  aa   000000 000233
    005250  aa   000000 001045
    005251  aa   000000 000022
    005252  aa   163064 040040     575  		vfd a36/s4  ,36/i_n,36/155,36/(l_209-l_org)/5,36/20
    005253  aa   000000 000002
    005254  aa   000000 000233
    005255  aa   000000 001045
    005256  aa   000000 000024
    005257  aa   040040 040040     576  		vfd a36/    ,36/i_n,36/208,36/(l_209-l_org)/5,36/0
    005260  aa   000000 000002
    005261  aa   000000 000320
    005262  aa   000000 001045
    005263  aa   000000 000000
    005264  aa   163065 040040     577  		vfd a36/s5  ,36/i_n,36/155,36/(l_209-l_org)/5,36/26
    005265  aa   000000 000002
    005266  aa   000000 000233
    005267  aa   000000 001045
    005270  aa   000000 000032
    005271  aa   040040 040040     578  l_209:		vfd a36/    ,36/i_s,36/(qual-l_org)/5,36/(l_210-l_org)/5,36/0
    005272  aa   000000 000003
    005273  aa   000000 001071
    005274  aa   000000 001047
    005275  aa   000000 000000
    005276  aa   040040 040040     579  		vfd a36/    ,36/i_n,36/0,36/(r4dg-l_org)/5,36/0
    005277  aa   000000 000002
    005300  aa   000000 000000
    005301  aa   000000 001244
    005302  aa   000000 000000
    005303  aa   163040 040040     580  l_210:	fdvo2:	vfd a36/s   ,36/i_c,36/c_labnam,36/(fdvo1-l_org)/5,36/0
    005304  aa   000000 000001
    005305  aa   000000 000044
    005306  aa   000000 001031
    005307  aa   000000 000000
    005310  aa   163040 040040     581  		vfd a36/s   ,36/i_c,36/c_type8,36/(l_211-l_org)/5,36/0
    005311  aa   000000 000001
    005312  aa   000000 000013
    005313  aa   000000 001052
    005314  aa   000000 000000
    005315  aa   040040 040040     582  		vfd a36/    ,36/i_n,36/0,36/(fdclauses-l_org)/5,36/0
    005316  aa   000000 000002
    005317  aa   000000 000000
    005320  aa   000000 000701
    005321  aa   000000 000000
    005322  aa   040040 040040     583  l_211:	fdvo4:	vfd a36/    ,36/i_n,36/214,36/(l_212-l_org)/5,36/0
    005323  aa   000000 000002
    005324  aa   000000 000326
    005325  aa   000000 001053
    005326  aa   000000 000000
    005327  aa   040040 040040     584  l_212:		vfd a36/    ,36/i_s,36/(skipqual-l_org)/5,36/(l_213-l_org)/5,36/0
    005330  aa   000000 000003
    005331  aa   000000 001064
    005332  aa   000000 001055
    005333  aa   000000 000000
    005334  aa   040040 040040     585  		vfd a36/    ,36/i_n,36/0,36/(r4dg-l_org)/5,36/0
    005335  aa   000000 000002
    005336  aa   000000 000000
    005337  aa   000000 001244
    005340  aa   000000 000000
    005341  aa   163040 040040     586  l_213:		vfd a36/s   ,36/i_r,36/r_is,36/(l_214-l_org)/5,36/0
    005342  aa   000000 000000
    005343  aa   000000 000166
    005344  aa   000000 001056
    005345  aa   000000 000000
    005346  aa   163040 040040     587  l_214:		vfd a36/s   ,36/i_c,36/c_type8,36/(fdvo5-l_org)/5,36/0
    005347  aa   000000 000001
    005350  aa   000000 000013
    005351  aa   000000 001062
    005352  aa   000000 000000
    005353  aa   163040 040040     588  		vfd a36/s   ,36/i_c,36/c_all,36/(l_215-l_org)/5,36/0
    005354  aa   000000 000001
    005355  aa   000000 000062
    005356  aa   000000 001060
    005357  aa   000000 000000
    005360  aa   163040 040040     589  l_215:		vfd a36/s   ,36/i_c,36/c_labval,36/(fdvo2-l_org)/5,36/0
    005361  aa   000000 000001
    005362  aa   000000 000060
    005363  aa   000000 001047
    005364  aa   000000 000000
    005365  aa   040040 040040     590  		vfd a36/    ,36/i_n,36/223,36/(r4dg-l_org)/5,36/0
    005366  aa   000000 000002
    005367  aa   000000 000337
    005370  aa   000000 001244
    005371  aa   000000 000000
    005372  aa   040040 040040     591  	fdvo5:	vfd a36/    ,36/i_s,36/(skipqual-l_org)/5,36/(fdvo2-l_org)/5,36/0
    005373  aa   000000 000003
    005374  aa   000000 001064
    005375  aa   000000 001047
    005376  aa   000000 000000
    005377  aa   040040 040040     592  		vfd a36/    ,36/i_n,36/0,36/(r4dg-l_org)/5,36/0
    005400  aa   000000 000002
    005401  aa   000000 000000
    005402  aa   000000 001244
    005403  aa   000000 000000
    005404  aa   163063 040040     593  	skipqual:	vfd a36/s3  ,36/i_r,36/r_of,36/(l_216-l_org)/5,36/5
    005405  aa   000000 000000
    005406  aa   000000 000205
    005407  aa   000000 001067
    005410  aa   000000 000005
    005411  aa   163063 040040     594  		vfd a36/s3  ,36/i_r,36/r_in,36/(l_216-l_org)/5,36/5
    005412  aa   000000 000000
    005413  aa   000000 000145
    005414  aa   000000 001067
    005415  aa   000000 000005
    005416  aa   040040 040040     595  		vfd a36/    ,36/i_n,36/0,36/(success-l_org)/5,36/a_1
    005417  aa   000000 000002
    005420  aa   000000 000000
    005421  aa   000000 001770
    005422  aa   000000 000002
    005423  aa   163040 040040     596  l_216:		vfd a36/s   ,36/i_c,36/c_type8,36/(skipqual-l_org)/5,36/0
    005424  aa   000000 000001
    005425  aa   000000 000013
    005426  aa   000000 001064
    005427  aa   000000 000000
    005430  aa   040040 040040     597  		vfd a36/    ,36/i_n,36/020,36/(failure-l_org)/5,36/a_2
    005431  aa   000000 000002
    005432  aa   000000 000024
    005433  aa   000000 001771
    005434  aa   000000 000003
    005435  aa   163063 040040     598  	qual:	vfd a36/s3  ,36/i_r,36/r_of,36/(l_217-l_org)/5,36/5
    005436  aa   000000 000000
    005437  aa   000000 000205
    005440  aa   000000 001074
    005441  aa   000000 000005
    005442  aa   163063 040040     599  		vfd a36/s3  ,36/i_r,36/r_in,36/(l_217-l_org)/5,36/5
    005443  aa   000000 000000
    005444  aa   000000 000145
    005445  aa   000000 001074
    005446  aa   000000 000005
    005447  aa   040040 040040     600  		vfd a36/    ,36/i_n,36/0,36/(success-l_org)/5,36/a_1
    005450  aa   000000 000002
    005451  aa   000000 000000
    005452  aa   000000 001770
    005453  aa   000000 000002
    005454  aa   163040 040040     601  l_217:		vfd a36/s   ,36/i_c,36/c_type8,36/(qual-l_org)/5,36/a_128
    005455  aa   000000 000001
    005456  aa   000000 000013
    005457  aa   000000 001071
    005460  aa   000000 000327
    005461  aa   040040 040040     602  		vfd a36/    ,36/i_n,36/020,36/(failure-l_org)/5,36/a_2
    005462  aa   000000 000002
    005463  aa   000000 000024
    005464  aa   000000 001771
    005465  aa   000000 000003
    005466  aa   163040 040040     603  	fddr:	vfd a36/s   ,36/i_n,36/0,36/(l_218-l_org)/5,36/0
    005467  aa   000000 000002
    005470  aa   000000 000000
    005471  aa   000000 001077
    005472  aa   000000 000000
    005473  aa   163040 040040     604  l_218:		vfd a36/s   ,36/i_r,36/r_record,36/(l_219-l_org)/5,36/0
    005474  aa   000000 000000
    005475  aa   000000 000224
    005476  aa   000000 001101
    005477  aa   000000 000000
    005500  aa   163040 040040     605  		vfd a36/s   ,36/i_r,36/r_records,36/(l_219-l_org)/5,36/0
    005501  aa   000000 000000
    005502  aa   000000 000303
    005503  aa   000000 001101
    005504  aa   000000 000000
    005505  aa   163040 040040     606  l_219:		vfd a36/s   ,36/i_r,36/r_is,36/(l_220-l_org)/5,36/0
    005506  aa   000000 000000
    005507  aa   000000 000166
    005510  aa   000000 001102
    005511  aa   000000 000000
    005512  aa   040040 040040     607  l_220:		vfd a36/    ,36/i_c,36/c_70,36/(l_221-l_org)/5,36/a_110
    005513  aa   000000 000001
    005514  aa   000000 000106
    005515  aa   000000 001104
    005516  aa   000000 000305
    005517  aa   040040 040040     608  		vfd a36/    ,36/i_n,36/144,36/(r4dg-l_org)/5,36/0
    005520  aa   000000 000002
    005521  aa   000000 000220
    005522  aa   000000 001244
    005523  aa   000000 000000
    005524  aa   163040 040040     609  l_221:		vfd a36/s   ,36/i_c,36/c_type8,36/(l_222-l_org)/5,36/a_129
    005525  aa   000000 000001
    005526  aa   000000 000013
    005527  aa   000000 001106
    005530  aa   000000 000330
    005531  aa   040040 040040     610  		vfd a36/    ,36/i_n,36/020,36/(r4dg-l_org)/5,36/0
    005532  aa   000000 000002
    005533  aa   000000 000024
    005534  aa   000000 001244
    005535  aa   000000 000000
    005536  aa   163040 040040     611  l_222:		vfd a36/s   ,36/i_c,36/c_type8,36/(l_222-l_org)/5,36/a_129
    005537  aa   000000 000001
    005540  aa   000000 000013
    005541  aa   000000 001106
    005542  aa   000000 000330
    005543  aa   040040 040040     612  		vfd a36/    ,36/i_n,36/0,36/(fdclauses-l_org)/5,36/0
    005544  aa   000000 000002
    005545  aa   000000 000000
    005546  aa   000000 000701
    005547  aa   000000 000000
    005550  aa   163040 040040     613  	fdri:	vfd a36/s   ,36/i_n,36/0,36/(l_223-l_org)/5,36/0
    005551  aa   000000 000002
    005552  aa   000000 000000
    005553  aa   000000 001111
    005554  aa   000000 000000
    005555  aa   163040 040040     614  l_223:		vfd a36/s   ,36/i_r,36/r_is,36/(l_224-l_org)/5,36/0
    005556  aa   000000 000000
    005557  aa   000000 000166
    005560  aa   000000 001112
    005561  aa   000000 000000
    005562  aa   040040 040040     615  l_224:		vfd a36/    ,36/i_c,36/c_71,36/(l_225-l_org)/5,36/a_111
    005563  aa   000000 000001
    005564  aa   000000 000107
    005565  aa   000000 001114
    005566  aa   000000 000306
    005567  aa   040040 040040     616  		vfd a36/    ,36/i_n,36/145,36/(r4dg-l_org)/5,36/0
    005570  aa   000000 000002
    005571  aa   000000 000221
    005572  aa   000000 001244
    005573  aa   000000 000000
    005574  aa   163040 040040     617  l_225:		vfd a36/s   ,36/i_c,36/c_type8,36/(l_226-l_org)/5,36/a_130
    005575  aa   000000 000001
    005576  aa   000000 000013
    005577  aa   000000 001116
    005600  aa   000000 000331
    005601  aa   040040 040040     618  		vfd a36/    ,36/i_n,36/020,36/(r4dg-l_org)/5,36/0
    005602  aa   000000 000002
    005603  aa   000000 000024
    005604  aa   000000 001244
    005605  aa   000000 000000
    005606  aa   163040 040040     619  l_226:		vfd a36/s   ,36/i_c,36/c_type8,36/(l_226-l_org)/5,36/a_130
    005607  aa   000000 000001
    005610  aa   000000 000013
    005611  aa   000000 001116
    005612  aa   000000 000331
    005613  aa   040040 040040     620  		vfd a36/    ,36/i_n,36/0,36/(fdclauses-l_org)/5,36/0
    005614  aa   000000 000002
    005615  aa   000000 000000
    005616  aa   000000 000701
    005617  aa   000000 000000
    005620  aa   040040 040040     621  	fdli:	vfd a36/    ,36/i_n,36/0,36/(l_227-l_org)/5,36/a_82
    005621  aa   000000 000002
    005622  aa   000000 000000
    005623  aa   000000 001122
    005624  aa   000000 000020
    005625  aa   040040 040040     622  		vfd a36/    ,36/i_n,36/208,36/(r4dg-l_org)/5,36/0
    005626  aa   000000 000002
    005627  aa   000000 000320
    005630  aa   000000 001244
    005631  aa   000000 000000
    005632  aa   163040 040040     623  l_227:		vfd a36/s   ,36/i_n,36/0,36/(l_228-l_org)/5,36/0
    005633  aa   000000 000002
    005634  aa   000000 000000
    005635  aa   000000 001127
    005636  aa   000000 000000
    005637  aa   163040 040040     624  		vfd a36/s   ,36/i_n,36/224,36/(r4dg-l_org)/5,36/0
    005640  aa   000000 000002
    005641  aa   000000 000340
    005642  aa   000000 001244
    005643  aa   000000 000000
    005644  aa   163040 040040     625  		vfd a36/s   ,36/i_n,36/224,36/(r4dg-l_org)/5,36/0
    005645  aa   000000 000002
    005646  aa   000000 000340
    005647  aa   000000 001244
    005650  aa   000000 000000
    005651  aa   163040 040040     626  		vfd a36/s   ,36/i_n,36/208,36/(r4dg-l_org)/5,36/0
    005652  aa   000000 000002
    005653  aa   000000 000320
    005654  aa   000000 001244
    005655  aa   000000 000000
    005656  aa   163040 040040     627  		vfd a36/s   ,36/i_n,36/224,36/(r4dg-l_org)/5,36/0
    005657  aa   000000 000002
    005660  aa   000000 000340
    005661  aa   000000 001244
    005662  aa   000000 000000
    005663  aa   163040 040040     628  l_228:		vfd a36/s   ,36/i_r,36/r_is,36/(l_229-l_org)/5,36/0
    005664  aa   000000 000000
    005665  aa   000000 000166
    005666  aa   000000 001130
    005667  aa   000000 000000
    005670  aa   040040 040040     629  l_229:		vfd a36/    ,36/i_c,36/c_72,36/(l_230-l_org)/5,36/a_112
    005671  aa   000000 000001
    005672  aa   000000 000110
    005673  aa   000000 001132
    005674  aa   000000 000307
    005675  aa   040040 040040     630  		vfd a36/    ,36/i_n,36/146,36/(r4dg-l_org)/5,36/0
    005676  aa   000000 000002
    005677  aa   000000 000222
    005700  aa   000000 001244
    005701  aa   000000 000000
    005702  aa   163040 040040     631  l_230:		vfd a36/s   ,36/i_c,36/c_int,36/(l_231-l_org)/5,36/a_132
    005703  aa   000000 000001
    005704  aa   000000 000010
    005705  aa   000000 001135
    005706  aa   000000 000333
    005707  aa   163040 040040     632  		vfd a36/s   ,36/i_c,36/c_type8,36/(l_231-l_org)/5,36/a_131
    005710  aa   000000 000001
    005711  aa   000000 000013
    005712  aa   000000 001135
    005713  aa   000000 000332
    005714  aa   040040 040040     633  		vfd a36/    ,36/i_n,36/023,36/(r4dg-l_org)/5,36/0
    005715  aa   000000 000002
    005716  aa   000000 000027
    005717  aa   000000 001244
    005720  aa   000000 000000
    005721  aa   163040 040040     634  l_231:		vfd a36/s   ,36/i_r,36/r_lines,36/(l_232-l_org)/5,36/0
    005722  aa   000000 000000
    005723  aa   000000 000174
    005724  aa   000000 001136
    005725  aa   000000 000000
    005726  aa   163040 040040     635  l_232:	li_phrase:	vfd a36/s   ,36/i_r,36/r_lines,36/(li_lines-l_org)/5,36/0
    005727  aa   000000 000000
    005730  aa   000000 000174
    005731  aa   000000 001147
    005732  aa   000000 000000
    005733  aa   163040 040040     636  		vfd a36/s   ,36/i_r,36/r_with,36/(li_foot-l_org)/5,36/0
    005734  aa   000000 000000
    005735  aa   000000 000263
    005736  aa   000000 001167
    005737  aa   000000 000000
    005740  aa   040040 040040     637  		vfd a36/    ,36/i_r,36/r_footing,36/(li_foot-l_org)/5,36/0
    005741  aa   000000 000000
    005742  aa   000000 001043
    005743  aa   000000 001167
    005744  aa   000000 000000
    005745  aa   163040 040040     638  		vfd a36/s   ,36/i_r,36/r_at,36/(li_linesx-l_org)/5,36/0
    005746  aa   000000 000000
    005747  aa   000000 000117
    005750  aa   000000 001150
    005751  aa   000000 000000
    005752  aa   163040 040040     639  		vfd a36/s   ,36/i_r,36/r_top,36/(li_top-l_org)/5,36/0
    005753  aa   000000 000000
    005754  aa   000000 000276
    005755  aa   000000 001153
    005756  aa   000000 000000
    005757  aa   163040 040040     640  		vfd a36/s   ,36/i_r,36/r_bottom,36/(li_botm-l_org)/5,36/0
    005760  aa   000000 000000
    005761  aa   000000 000354
    005762  aa   000000 001161
    005763  aa   000000 000000
    005764  aa   040040 040040     641  		vfd a36/    ,36/i_n,36/0,36/(l_233-l_org)/5,36/a_101
    005765  aa   000000 000002
    005766  aa   000000 000000
    005767  aa   000000 001145
    005770  aa   000000 000274
    005771  aa   040040 040040     642  l_233:		vfd a36/    ,36/i_c,36/c_16,36/(fdclauses-l_org)/5,36/0
    005772  aa   000000 000001
    005773  aa   000000 000020
    005774  aa   000000 000701
    005775  aa   000000 000000
    005776  aa   040040 040040     643  		vfd a36/    ,36/i_n,36/179,36/(fdclauses-l_org)/5,36/0
    005777  aa   000000 000002
    006000  aa   000000 000263
    006001  aa   000000 000701
    006002  aa   000000 000000
    006003  aa   163040 040040     644  	li_lines:	vfd a36/s   ,36/i_r,36/r_at,36/(l_234-l_org)/5,36/0
    006004  aa   000000 000000
    006005  aa   000000 000117
    006006  aa   000000 001150
    006007  aa   000000 000000
    006010  aa   163040 040040     645  l_234:	li_linesx:	vfd a36/s   ,36/i_r,36/r_top,36/(li_top-l_org)/5,36/0
    006011  aa   000000 000000
    006012  aa   000000 000276
    006013  aa   000000 001153
    006014  aa   000000 000000
    006015  aa   163040 040040     646  		vfd a36/s   ,36/i_r,36/r_bottom,36/(li_botm-l_org)/5,36/0
    006016  aa   000000 000000
    006017  aa   000000 000354
    006020  aa   000000 001161
    006021  aa   000000 000000
    006022  aa   040040 040040     647  		vfd a36/    ,36/i_n,36/174,36/(r4dg-l_org)/5,36/0
    006023  aa   000000 000002
    006024  aa   000000 000256
    006025  aa   000000 001244
    006026  aa   000000 000000
    006027  aa   040040 040040     648  	li_top:	vfd a36/    ,36/i_c,36/c_49,36/(l_235-l_org)/5,36/0
    006030  aa   000000 000001
    006031  aa   000000 000061
    006032  aa   000000 001155
    006033  aa   000000 000000
    006034  aa   040040 040040     649  		vfd a36/    ,36/i_n,36/022,36/(l_235-l_org)/5,36/0
    006035  aa   000000 000002
    006036  aa   000000 000026
    006037  aa   000000 001155
    006040  aa   000000 000000
    006041  aa   163040 040040     650  l_235:		vfd a36/s   ,36/i_c,36/c_int,36/(li_phrase-l_org)/5,36/a_133
    006042  aa   000000 000001
    006043  aa   000000 000010
    006044  aa   000000 001136
    006045  aa   000000 000334
    006046  aa   163040 040040     651  		vfd a36/s   ,36/i_c,36/c_type8,36/(li_phrase-l_org)/5,36/a_121
    006047  aa   000000 000001
    006050  aa   000000 000013
    006051  aa   000000 001136
    006052  aa   000000 000320
    006053  aa   163040 040040     652  		vfd a36/s   ,36/i_r,36/r_zero,36/(li_phrase-l_org)/5,36/0
    006054  aa   000000 000000
    006055  aa   000000 000264
    006056  aa   000000 001136
    006057  aa   000000 000000
    006060  aa   040040 040040     653  		vfd a36/    ,36/i_n,36/021,36/(r4dg-l_org)/5,36/0
    006061  aa   000000 000002
    006062  aa   000000 000025
    006063  aa   000000 001244
    006064  aa   000000 000000
    006065  aa   040040 040040     654  	li_botm:	vfd a36/    ,36/i_c,36/c_41,36/(l_236-l_org)/5,36/0
    006066  aa   000000 000001
    006067  aa   000000 000051
    006070  aa   000000 001163
    006071  aa   000000 000000
    006072  aa   040040 040040     655  		vfd a36/    ,36/i_n,36/175,36/(l_236-l_org)/5,36/0
    006073  aa   000000 000002
    006074  aa   000000 000257
    006075  aa   000000 001163
    006076  aa   000000 000000
    006077  aa   163040 040040     656  l_236:		vfd a36/s   ,36/i_c,36/c_int,36/(li_phrase-l_org)/5,36/a_119
    006100  aa   000000 000001
    006101  aa   000000 000010
    006102  aa   000000 001136
    006103  aa   000000 000316
    006104  aa   163040 040040     657  		vfd a36/s   ,36/i_c,36/c_type8,36/(li_phrase-l_org)/5,36/a_118
    006105  aa   000000 000001
    006106  aa   000000 000013
    006107  aa   000000 001136
    006110  aa   000000 000315
    006111  aa   163040 040040     658  		vfd a36/s   ,36/i_r,36/r_zero,36/(li_phrase-l_org)/5,36/0
    006112  aa   000000 000000
    006113  aa   000000 000264
    006114  aa   000000 001136
    006115  aa   000000 000000
    006116  aa   040040 040040     659  		vfd a36/    ,36/i_n,36/021,36/(r4dg-l_org)/5,36/0
    006117  aa   000000 000002
    006120  aa   000000 000025
    006121  aa   000000 001244
    006122  aa   000000 000000
    006123  aa   163040 040040     660  	li_foot:	vfd a36/s   ,36/i_r,36/r_footing,36/(l_237-l_org)/5,36/0
    006124  aa   000000 000000
    006125  aa   000000 001043
    006126  aa   000000 001171
    006127  aa   000000 000000
    006130  aa   040040 040040     661  		vfd a36/    ,36/i_n,36/178,36/(r4dg-l_org)/5,36/0
    006131  aa   000000 000002
    006132  aa   000000 000262
    006133  aa   000000 001244
    006134  aa   000000 000000
    006135  aa   163040 040040     662  l_237:		vfd a36/s   ,36/i_r,36/r_at,36/(l_238-l_org)/5,36/0
    006136  aa   000000 000000
    006137  aa   000000 000117
    006140  aa   000000 001172
    006141  aa   000000 000000
    006142  aa   040040 040040     663  l_238:		vfd a36/    ,36/i_c,36/c_40,36/(l_239-l_org)/5,36/0
    006143  aa   000000 000001
    006144  aa   000000 000050
    006145  aa   000000 001174
    006146  aa   000000 000000
    006147  aa   040040 040040     664  		vfd a36/    ,36/i_n,36/176,36/(l_239-l_org)/5,36/0
    006150  aa   000000 000002
    006151  aa   000000 000260
    006152  aa   000000 001174
    006153  aa   000000 000000
    006154  aa   163040 040040     665  l_239:		vfd a36/s   ,36/i_c,36/c_int,36/(li_phrase-l_org)/5,36/a_103
    006155  aa   000000 000001
    006156  aa   000000 000010
    006157  aa   000000 001136
    006160  aa   000000 000276
    006161  aa   163040 040040     666  		vfd a36/s   ,36/i_c,36/c_type8,36/(li_phrase-l_org)/5,36/a_102
    006162  aa   000000 000001
    006163  aa   000000 000013
    006164  aa   000000 001136
    006165  aa   000000 000275
    006166  aa   040040 040040     667  		vfd a36/    ,36/i_n,36/021,36/(r4dg-l_org)/5,36/0
    006167  aa   000000 000002
    006170  aa   000000 000025
    006171  aa   000000 001244
    006172  aa   000000 000000
    006173  aa   040040 040040     668  	fdcs:	vfd a36/    ,36/i_n,36/0,36/(l_240-l_org)/5,36/a_82
    006174  aa   000000 000002
    006175  aa   000000 000000
    006176  aa   000000 001201
    006177  aa   000000 000020
    006200  aa   040040 040040     669  		vfd a36/    ,36/i_n,36/208,36/(r4dg-l_org)/5,36/0
    006201  aa   000000 000002
    006202  aa   000000 000320
    006203  aa   000000 001244
    006204  aa   000000 000000
    006205  aa   163040 040040     670  l_240:		vfd a36/s   ,36/i_n,36/0,36/(l_241-l_org)/5,36/0
    006206  aa   000000 000002
    006207  aa   000000 000000
    006210  aa   000000 001206
    006211  aa   000000 000000
    006212  aa   163065 040040     671  		vfd a36/s5  ,36/i_n,36/168,36/(l_241-l_org)/5,36/25
    006213  aa   000000 000002
    006214  aa   000000 000250
    006215  aa   000000 001206
    006216  aa   000000 000031
    006217  aa   163065 040040     672  		vfd a36/s5  ,36/i_n,36/168,36/(l_241-l_org)/5,36/25
    006220  aa   000000 000002
    006221  aa   000000 000250
    006222  aa   000000 001206
    006223  aa   000000 000031
    006224  aa   163040 040040     673  		vfd a36/s   ,36/i_n,36/224,36/(r4dg-l_org)/5,36/0
    006225  aa   000000 000002
    006226  aa   000000 000340
    006227  aa   000000 001244
    006230  aa   000000 000000
    006231  aa   163065 040040     674  		vfd a36/s5  ,36/i_n,36/168,36/(l_241-l_org)/5,36/25
    006232  aa   000000 000002
    006233  aa   000000 000250
    006234  aa   000000 001206
    006235  aa   000000 000031
    006236  aa   163040 040040     675  l_241:		vfd a36/s   ,36/i_r,36/r_is,36/(l_242-l_org)/5,36/0
    006237  aa   000000 000000
    006240  aa   000000 000166
    006241  aa   000000 001207
    006242  aa   000000 000000
    006243  aa   163040 040040     676  l_242:		vfd a36/s   ,36/i_c,36/c_codeset,36/(fdclauses-l_org)/5,36/0
    006244  aa   000000 000001
    006245  aa   000000 000015
    006246  aa   000000 000701
    006247  aa   000000 000000
    006250  aa   040040 040040     677  		vfd a36/    ,36/i_n,36/186,36/(r4dg-l_org)/5,36/0
    006251  aa   000000 000002
    006252  aa   000000 000272
    006253  aa   000000 001244
    006254  aa   000000 000000
    006255  aa   040040 040040     678  	r1dg:	vfd a36/    ,36/i_n,36/152,36/(l_243-l_org)/5,36/0
    006256  aa   000000 000002
    006257  aa   000000 000230
    006260  aa   000000 001212
    006261  aa   000000 000000
    006262  aa   040040 040040     679  l_243:	r1:	vfd a36/    ,36/i_c,36/c_55,36/(l_244-l_org)/5,36/0
    006263  aa   000000 000001
    006264  aa   000000 000067
    006265  aa   000000 001217
    006266  aa   000000 000000
    006267  aa   040040 040040     680  		vfd a36/    ,36/i_c,36/c_lev77,36/(r1x2-l_org)/5,36/0
    006270  aa   000000 000001
    006271  aa   000000 000011
    006272  aa   000000 001220
    006273  aa   000000 000000
    006274  aa   040040 040040     681  		vfd a36/    ,36/i_c,36/c_lev01,36/(r1x2-l_org)/5,36/0
    006275  aa   000000 000001
    006276  aa   000000 000012
    006277  aa   000000 001220
    006300  aa   000000 000000
    006301  aa   040040 040040     682  		vfd a36/    ,36/i_c,36/c_62,36/(r1x3-l_org)/5,36/0
    006302  aa   000000 000001
    006303  aa   000000 000076
    006304  aa   000000 001221
    006305  aa   000000 000000
    006306  aa   163040 040040     683  		vfd a36/s   ,36/i_n,36/0,36/(r1-l_org)/5,36/0
    006307  aa   000000 000002
    006310  aa   000000 000000
    006311  aa   000000 001212
    006312  aa   000000 000000
    006313  aa   040040 040040     684  l_244:		vfd a36/    ,36/i_n,36/150,36/(fsps-l_org)/5,36/0
    006314  aa   000000 000002
    006315  aa   000000 000226
    006316  aa   000000 000616
    006317  aa   000000 000000
    006320  aa   040040 040040     685  	r1x2:	vfd a36/    ,36/i_n,36/151,36/(wssstrt-l_org)/5,36/0
    006321  aa   000000 000002
    006322  aa   000000 000227
    006323  aa   000000 000022
    006324  aa   000000 000000
    006325  aa   163040 040040     686  	r1x3:	vfd a36/s   ,36/i_n,36/154,36/(jumpbase0-l_org)/5,36/a_4
    006326  aa   000000 000002
    006327  aa   000000 000232
    006330  aa   000000 000005
    006331  aa   000000 000004
    006332  aa   040040 040040     687  	r2dg:	vfd a36/    ,36/i_n,36/152,36/(l_245-l_org)/5,36/0
    006333  aa   000000 000002
    006334  aa   000000 000230
    006335  aa   000000 001223
    006336  aa   000000 000000
    006337  aa   040040 040040     688  l_245:	r2:	vfd a36/    ,36/i_c,36/c_55,36/(r2x1-l_org)/5,36/0
    006340  aa   000000 000001
    006341  aa   000000 000067
    006342  aa   000000 001230
    006343  aa   000000 000000
    006344  aa   040040 040040     689  		vfd a36/    ,36/i_c,36/c_lev01,36/(l_246-l_org)/5,36/0
    006345  aa   000000 000001
    006346  aa   000000 000012
    006347  aa   000000 001227
    006350  aa   000000 000000
    006351  aa   040040 040040     690  		vfd a36/    ,36/i_c,36/c_62,36/(r2x2-l_org)/5,36/0
    006352  aa   000000 000001
    006353  aa   000000 000076
    006354  aa   000000 001231
    006355  aa   000000 000000
    006356  aa   163040 040040     691  		vfd a36/s   ,36/i_n,36/0,36/(r2-l_org)/5,36/0
    006357  aa   000000 000002
    006360  aa   000000 000000
    006361  aa   000000 001223
    006362  aa   000000 000000
    006363  aa   040040 040040     692  l_246:		vfd a36/    ,36/i_n,36/154,36/(fd01-l_org)/5,36/0
    006364  aa   000000 000002
    006365  aa   000000 000232
    006366  aa   000000 000706
    006367  aa   000000 000000
    006370  aa   040040 040040     693  	r2x1:	vfd a36/    ,36/i_n,36/154,36/(fsindjump-l_org)/5,36/0
    006371  aa   000000 000002
    006372  aa   000000 000232
    006373  aa   000000 000622
    006374  aa   000000 000000
    006375  aa   040040 040040     694  	r2x2:	vfd a36/    ,36/i_n,36/154,36/(sj-l_org)/5,36/a_80
    006376  aa   000000 000002
    006377  aa   000000 000232
    006400  aa   000000 000003
    006401  aa   000000 000247
    006402  aa   040040 040040     695  	r3dg:	vfd a36/    ,36/i_n,36/152,36/(l_247-l_org)/5,36/0
    006403  aa   000000 000002
    006404  aa   000000 000230
    006405  aa   000000 001233
    006406  aa   000000 000000
    006407  aa   040040 040040     696  l_247:	r3:	vfd a36/    ,36/i_n,36/0,36/(l_248-l_org)/5,36/0
    006410  aa   000000 000002
    006411  aa   000000 000000
    006412  aa   000000 001234
    006413  aa   000000 000000
    006414  aa   163040 040040     697  l_248:		vfd a36/s   ,36/i_r,36/r_per,36/(l_249-l_org)/5,36/0
    006415  aa   000000 000000
    006416  aa   000000 000275
    006417  aa   000000 001241
    006420  aa   000000 000000
    006421  aa   040040 040040     698  		vfd a36/    ,36/i_c,36/c_lev01,36/(l_249-l_org)/5,36/0
    006422  aa   000000 000001
    006423  aa   000000 000012
    006424  aa   000000 001241
    006425  aa   000000 000000
    006426  aa   040040 040040     699  		vfd a36/    ,36/i_c,36/c_55,36/(r3x2-l_org)/5,36/0
    006427  aa   000000 000001
    006430  aa   000000 000067
    006431  aa   000000 001242
    006432  aa   000000 000000
    006433  aa   040040 040040     700  		vfd a36/    ,36/i_c,36/c_62,36/(r3x3-l_org)/5,36/0
    006434  aa   000000 000001
    006435  aa   000000 000076
    006436  aa   000000 001243
    006437  aa   000000 000000
    006440  aa   163040 040040     701  		vfd a36/s   ,36/i_n,36/0,36/(l_248-l_org)/5,36/0
    006441  aa   000000 000002
    006442  aa   000000 000000
    006443  aa   000000 001234
    006444  aa   000000 000000
    006445  aa   040040 040040     702  l_249:		vfd a36/    ,36/i_n,36/154,36/(sa01-l_org)/5,36/0
    006446  aa   000000 000002
    006447  aa   000000 000232
    006450  aa   000000 000660
    006451  aa   000000 000000
    006452  aa   040040 040040     703  	r3x2:	vfd a36/    ,36/i_n,36/154,36/(jumpbase1-l_org)/5,36/a_4
    006453  aa   000000 000002
    006454  aa   000000 000232
    006455  aa   000000 000626
    006456  aa   000000 000004
    006457  aa   040040 040040     704  	r3x3:	vfd a36/    ,36/i_n,36/154,36/(jumpbase0-l_org)/5,36/a_4
    006460  aa   000000 000002
    006461  aa   000000 000232
    006462  aa   000000 000005
    006463  aa   000000 000004
    006464  aa   040040 040040     705  	r4dg:	vfd a36/    ,36/i_n,36/152,36/(l_250-l_org)/5,36/0
    006465  aa   000000 000002
    006466  aa   000000 000230
    006467  aa   000000 001245
    006470  aa   000000 000000
    006471  aa   040040 040040     706  l_250:	r4:	vfd a36/    ,36/i_c,36/c_61,36/(l_251-l_org)/5,36/0
    006472  aa   000000 000001
    006473  aa   000000 000075
    006474  aa   000000 001253
    006475  aa   000000 000000
    006476  aa   040040 040040     707  		vfd a36/    ,36/i_r,36/r_per,36/(l_251-l_org)/5,36/0
    006477  aa   000000 000000
    006500  aa   000000 000275
    006501  aa   000000 001253
    006502  aa   000000 000000
    006503  aa   040040 040040     708  		vfd a36/    ,36/i_c,36/c_lev01,36/(r4x2-l_org)/5,36/0
    006504  aa   000000 000001
    006505  aa   000000 000012
    006506  aa   000000 001254
    006507  aa   000000 000000
    006510  aa   040040 040040     709  		vfd a36/    ,36/i_c,36/c_55,36/(r4x3-l_org)/5,36/0
    006511  aa   000000 000001
    006512  aa   000000 000067
    006513  aa   000000 001255
    006514  aa   000000 000000
    006515  aa   040040 040040     710  		vfd a36/    ,36/i_c,36/c_62,36/(r4x4-l_org)/5,36/0
    006516  aa   000000 000001
    006517  aa   000000 000076
    006520  aa   000000 001256
    006521  aa   000000 000000
    006522  aa   163040 040040     711  		vfd a36/s   ,36/i_n,36/0,36/(r4-l_org)/5,36/0
    006523  aa   000000 000002
    006524  aa   000000 000000
    006525  aa   000000 001245
    006526  aa   000000 000000
    006527  aa   040040 040040     712  l_251:		vfd a36/    ,36/i_n,36/154,36/(fdclauses-l_org)/5,36/0
    006530  aa   000000 000002
    006531  aa   000000 000232
    006532  aa   000000 000701
    006533  aa   000000 000000
    006534  aa   040040 040040     713  	r4x2:	vfd a36/    ,36/i_n,36/154,36/(fd01-l_org)/5,36/0
    006535  aa   000000 000002
    006536  aa   000000 000232
    006537  aa   000000 000706
    006540  aa   000000 000000
    006541  aa   040040 040040     714  	r4x3:	vfd a36/    ,36/i_n,36/154,36/(fsindjump-l_org)/5,36/0
    006542  aa   000000 000002
    006543  aa   000000 000232
    006544  aa   000000 000622
    006545  aa   000000 000000
    006546  aa   040040 040040     715  	r4x4:	vfd a36/    ,36/i_n,36/154,36/(sj-l_org)/5,36/a_80
    006547  aa   000000 000002
    006550  aa   000000 000232
    006551  aa   000000 000003
    006552  aa   000000 000247
    006553  aa   040040 040040     716  	r40dg:	vfd a36/    ,36/i_n,36/152,36/(l_252-l_org)/5,36/0
    006554  aa   000000 000002
    006555  aa   000000 000230
    006556  aa   000000 001260
    006557  aa   000000 000000
    006560  aa   040040 040040     717  l_252:	r40:	vfd a36/    ,36/i_c,36/c_55,36/(r4x3-l_org)/5,36/0
    006561  aa   000000 000001
    006562  aa   000000 000067
    006563  aa   000000 001255
    006564  aa   000000 000000
    006565  aa   040040 040040     718  		vfd a36/    ,36/i_c,36/c_62,36/(r4x4-l_org)/5,36/0
    006566  aa   000000 000001
    006567  aa   000000 000076
    006570  aa   000000 001256
    006571  aa   000000 000000
    006572  aa   163040 040040     719  		vfd a36/s   ,36/i_n,36/0,36/(r40-l_org)/5,36/0
    006573  aa   000000 000002
    006574  aa   000000 000000
    006575  aa   000000 001260
    006576  aa   000000 000000
    006577  aa   040040 040040     720  	r5dg:	vfd a36/    ,36/i_n,36/152,36/(l_253-l_org)/5,36/0
    006600  aa   000000 000002
    006601  aa   000000 000230
    006602  aa   000000 001264
    006603  aa   000000 000000
    006604  aa   040040 040040     721  l_253:	r5:	vfd a36/    ,36/i_r,36/r_per,36/(r5x2-l_org)/5,36/0
    006605  aa   000000 000000
    006606  aa   000000 000275
    006607  aa   000000 001271
    006610  aa   000000 000000
    006611  aa   040040 040040     722  		vfd a36/    ,36/i_c,36/c_12,36/(l_254-l_org)/5,36/0
    006612  aa   000000 000001
    006613  aa   000000 000014
    006614  aa   000000 001270
    006615  aa   000000 000000
    006616  aa   040040 040040     723  		vfd a36/    ,36/i_c,36/c_62,36/(r5x2-l_org)/5,36/0
    006617  aa   000000 000001
    006620  aa   000000 000076
    006621  aa   000000 001271
    006622  aa   000000 000000
    006623  aa   163040 040040     724  		vfd a36/s   ,36/i_n,36/0,36/(r5-l_org)/5,36/0
    006624  aa   000000 000002
    006625  aa   000000 000000
    006626  aa   000000 001264
    006627  aa   000000 000000
    006630  aa   040040 040040     725  l_254:		vfd a36/    ,36/i_n,36/154,36/(ddcls_1-l_org)/5,36/0
    006631  aa   000000 000002
    006632  aa   000000 000232
    006633  aa   000000 000216
    006634  aa   000000 000000
    006635  aa   040040 040040     726  	r5x2:	vfd a36/    ,36/i_n,36/154,36/(failure-l_org)/5,36/a_2
    006636  aa   000000 000002
    006637  aa   000000 000232
    006640  aa   000000 001771
    006641  aa   000000 000003
    006642  aa   040040 040040     727  	r7dg:	vfd a36/    ,36/i_n,36/152,36/(l_255-l_org)/5,36/0
    006643  aa   000000 000002
    006644  aa   000000 000230
    006645  aa   000000 001273
    006646  aa   000000 000000
    006647  aa   040040 040040     728  l_255:	r7:	vfd a36/    ,36/i_c,36/c_lev77,36/(l_256-l_org)/5,36/0
    006650  aa   000000 000001
    006651  aa   000000 000011
    006652  aa   000000 001277
    006653  aa   000000 000000
    006654  aa   040040 040040     729  		vfd a36/    ,36/i_c,36/c_lev01,36/(l_256-l_org)/5,36/0
    006655  aa   000000 000001
    006656  aa   000000 000012
    006657  aa   000000 001277
    006660  aa   000000 000000
    006661  aa   040040 040040     730  		vfd a36/    ,36/i_c,36/c_62,36/(r7x2-l_org)/5,36/0
    006662  aa   000000 000001
    006663  aa   000000 000076
    006664  aa   000000 001300
    006665  aa   000000 000000
    006666  aa   163040 040040     731  		vfd a36/s   ,36/i_n,36/0,36/(r7-l_org)/5,36/0
    006667  aa   000000 000002
    006670  aa   000000 000000
    006671  aa   000000 001273
    006672  aa   000000 000000
    006673  aa   040040 040040     732  l_256:		vfd a36/    ,36/i_n,36/154,36/(test77-l_org)/5,36/0
    006674  aa   000000 000002
    006675  aa   000000 000232
    006676  aa   000000 000067
    006677  aa   000000 000000
    006700  aa   040040 040040     733  	r7x2:	vfd a36/    ,36/i_n,36/154,36/(failure-l_org)/5,36/a_2
    006701  aa   000000 000002
    006702  aa   000000 000232
    006703  aa   000000 001771
    006704  aa   000000 000003
    006705  aa   040040 040040     734  	r8dg:	vfd a36/    ,36/i_n,36/152,36/(l_257-l_org)/5,36/0
    006706  aa   000000 000002
    006707  aa   000000 000230
    006710  aa   000000 001302
    006711  aa   000000 000000
    006712  aa   040040 040040     735  l_257:	r8:	vfd a36/    ,36/i_c,36/c_lev0249,36/(l_258-l_org)/5,36/0
    006713  aa   000000 000001
    006714  aa   000000 000021
    006715  aa   000000 001310
    006716  aa   000000 000000
    006717  aa   040040 040040     736  		vfd a36/    ,36/i_c,36/c_lev01,36/(l_258-l_org)/5,36/0
    006720  aa   000000 000001
    006721  aa   000000 000012
    006722  aa   000000 001310
    006723  aa   000000 000000
    006724  aa   040040 040040     737  		vfd a36/    ,36/i_c,36/c_55,36/(l_258-l_org)/5,36/0
    006725  aa   000000 000001
    006726  aa   000000 000067
    006727  aa   000000 001310
    006730  aa   000000 000000
    006731  aa   040040 040040     738  		vfd a36/    ,36/i_r,36/r_cd,36/(l_258-l_org)/5,36/0
    006732  aa   000000 000000
    006733  aa   000000 000316
    006734  aa   000000 001310
    006735  aa   000000 000000
    006736  aa   040040 040040     739  		vfd a36/    ,36/i_c,36/c_62,36/(l_258-l_org)/5,36/0
    006737  aa   000000 000001
    006740  aa   000000 000076
    006741  aa   000000 001310
    006742  aa   000000 000000
    006743  aa   163040 040040     740  		vfd a36/s   ,36/i_n,36/0,36/(r8-l_org)/5,36/0
    006744  aa   000000 000002
    006745  aa   000000 000000
    006746  aa   000000 001302
    006747  aa   000000 000000
    006750  aa   040040 040040     741  l_258:		vfd a36/    ,36/i_n,36/154,36/(testnext-l_org)/5,36/0
    006751  aa   000000 000002
    006752  aa   000000 000232
    006753  aa   000000 000141
    006754  aa   000000 000000
    006755  aa   040040 040040     742  	r9dg:	vfd a36/    ,36/i_n,36/152,36/(l_259-l_org)/5,36/0
    006756  aa   000000 000002
    006757  aa   000000 000230
    006760  aa   000000 001312
    006761  aa   000000 000000
    006762  aa   040040 040040     743  l_259:	r9:	vfd a36/    ,36/i_c,36/c_12,36/(r9x1-l_org)/5,36/0
    006763  aa   000000 000001
    006764  aa   000000 000014
    006765  aa   000000 001325
    006766  aa   000000 000000
    006767  aa   163040 040040     744  		vfd a36/s   ,36/i_r,36/r_per,36/(r9x2-l_org)/5,36/0
    006770  aa   000000 000000
    006771  aa   000000 000275
    006772  aa   000000 001326
    006773  aa   000000 000000
    006774  aa   040040 040040     745  		vfd a36/    ,36/i_c,36/c_int,36/(l_260-l_org)/5,36/0
    006775  aa   000000 000001
    006776  aa   000000 000010
    006777  aa   000000 001317
    007000  aa   000000 000000
    007001  aa   040040 040040     746  		vfd a36/    ,36/i_c,36/c_62,36/(r9x2-l_org)/5,36/0
    007002  aa   000000 000001
    007003  aa   000000 000076
    007004  aa   000000 001326
    007005  aa   000000 000000
    007006  aa   163040 040040     747  		vfd a36/s   ,36/i_n,36/0,36/(r9-l_org)/5,36/0
    007007  aa   000000 000002
    007010  aa   000000 000000
    007011  aa   000000 001312
    007012  aa   000000 000000
    007013  aa   040040 040040     748  l_260:		vfd a36/    ,36/i_c,36/c_lev0249,36/(r9x2-l_org)/5,36/0
    007014  aa   000000 000001
    007015  aa   000000 000021
    007016  aa   000000 001326
    007017  aa   000000 000000
    007020  aa   040040 040040     749  		vfd a36/    ,36/i_c,36/c_lev77,36/(r9x2-l_org)/5,36/0
    007021  aa   000000 000001
    007022  aa   000000 000011
    007023  aa   000000 001326
    007024  aa   000000 000000
    007025  aa   040040 040040     750  		vfd a36/    ,36/i_c,36/c_lev01,36/(r9x2-l_org)/5,36/0
    007026  aa   000000 000001
    007027  aa   000000 000012
    007030  aa   000000 001326
    007031  aa   000000 000000
    007032  aa   040040 040040     751  		vfd a36/    ,36/i_c,36/c_lev88,36/(r9x2-l_org)/5,36/0
    007033  aa   000000 000001
    007034  aa   000000 000016
    007035  aa   000000 001326
    007036  aa   000000 000000
    007037  aa   040040 040040     752  		vfd a36/    ,36/i_c,36/c_lev66,36/(r9x2-l_org)/5,36/0
    007040  aa   000000 000001
    007041  aa   000000 000017
    007042  aa   000000 001326
    007043  aa   000000 000000
    007044  aa   163040 040040     753  		vfd a36/s   ,36/i_n,36/0,36/(r9-l_org)/5,36/0
    007045  aa   000000 000002
    007046  aa   000000 000000
    007047  aa   000000 001312
    007050  aa   000000 000000
    007051  aa   040040 040040     754  	r9x1:	vfd a36/    ,36/i_n,36/154,36/(ddcls_1-l_org)/5,36/0
    007052  aa   000000 000002
    007053  aa   000000 000232
    007054  aa   000000 000216
    007055  aa   000000 000000
    007056  aa   040040 040040     755  	r9x2:	vfd a36/    ,36/i_n,36/154,36/(failure-l_org)/5,36/a_2
    007057  aa   000000 000002
    007060  aa   000000 000232
    007061  aa   000000 001771
    007062  aa   000000 000003
    007063  aa   040040 040040     756  	r10dg:	vfd a36/    ,36/i_n,36/152,36/(l_261-l_org)/5,36/0
    007064  aa   000000 000002
    007065  aa   000000 000230
    007066  aa   000000 001330
    007067  aa   000000 000000
    007070  aa   040040 040040     757  l_261:	r10:	vfd a36/    ,36/i_c,36/c_lev77,36/(l_262-l_org)/5,36/0
    007071  aa   000000 000001
    007072  aa   000000 000011
    007073  aa   000000 001334
    007074  aa   000000 000000
    007075  aa   040040 040040     758  		vfd a36/    ,36/i_c,36/c_lev01,36/(r10x2-l_org)/5,36/0
    007076  aa   000000 000001
    007077  aa   000000 000012
    007100  aa   000000 001335
    007101  aa   000000 000000
    007102  aa   040040 040040     759  		vfd a36/    ,36/i_c,36/c_62,36/(r10x3-l_org)/5,36/0
    007103  aa   000000 000001
    007104  aa   000000 000076
    007105  aa   000000 001336
    007106  aa   000000 000000
    007107  aa   163040 040040     760  		vfd a36/s   ,36/i_n,36/0,36/(r10-l_org)/5,36/0
    007110  aa   000000 000002
    007111  aa   000000 000000
    007112  aa   000000 001330
    007113  aa   000000 000000
    007114  aa   040040 040040     761  l_262:		vfd a36/    ,36/i_n,36/154,36/(test77-l_org)/5,36/0
    007115  aa   000000 000002
    007116  aa   000000 000232
    007117  aa   000000 000067
    007120  aa   000000 000000
    007121  aa   040040 040040     762  	r10x2:	vfd a36/    ,36/i_n,36/154,36/(test01-l_org)/5,36/0
    007122  aa   000000 000002
    007123  aa   000000 000232
    007124  aa   000000 000070
    007125  aa   000000 000000
    007126  aa   040040 040040     763  	r10x3:	vfd a36/    ,36/i_n,36/154,36/(databody-l_org)/5,36/0
    007127  aa   000000 000002
    007130  aa   000000 000232
    007131  aa   000000 000064
    007132  aa   000000 000000
    007133  aa   040040 040040     764  	r11dg:	vfd a36/    ,36/i_n,36/152,36/(l_263-l_org)/5,36/0
    007134  aa   000000 000002
    007135  aa   000000 000230
    007136  aa   000000 001340
    007137  aa   000000 000000
    007140  aa   040040 040040     765  l_263:	r11:	vfd a36/    ,36/i_r,36/r_per,36/(r11x1-l_org)/5,36/0
    007141  aa   000000 000000
    007142  aa   000000 000275
    007143  aa   000000 001352
    007144  aa   000000 000000
    007145  aa   040040 040040     766  		vfd a36/    ,36/i_c,36/c_int,36/(l_264-l_org)/5,36/0
    007146  aa   000000 000001
    007147  aa   000000 000010
    007150  aa   000000 001344
    007151  aa   000000 000000
    007152  aa   040040 040040     767  		vfd a36/    ,36/i_c,36/c_62,36/(r11x2-l_org)/5,36/0
    007153  aa   000000 000001
    007154  aa   000000 000076
    007155  aa   000000 001353
    007156  aa   000000 000000
    007157  aa   163040 040040     768  		vfd a36/s   ,36/i_n,36/0,36/(r11-l_org)/5,36/0
    007160  aa   000000 000002
    007161  aa   000000 000000
    007162  aa   000000 001340
    007163  aa   000000 000000
    007164  aa   040040 040040     769  l_264:		vfd a36/    ,36/i_c,36/c_lev88,36/(r11x3-l_org)/5,36/0
    007165  aa   000000 000001
    007166  aa   000000 000016
    007167  aa   000000 001354
    007170  aa   000000 000000
    007171  aa   040040 040040     770  		vfd a36/    ,36/i_c,36/c_lev0249,36/(r11x2-l_org)/5,36/0
    007172  aa   000000 000001
    007173  aa   000000 000021
    007174  aa   000000 001353
    007175  aa   000000 000000
    007176  aa   040040 040040     771  		vfd a36/    ,36/i_c,36/c_lev01,36/(r11x2-l_org)/5,36/0
    007177  aa   000000 000001
    007200  aa   000000 000012
    007201  aa   000000 001353
    007202  aa   000000 000000
    007203  aa   040040 040040     772  		vfd a36/    ,36/i_c,36/c_lev77,36/(r11x2-l_org)/5,36/0
    007204  aa   000000 000001
    007205  aa   000000 000011
    007206  aa   000000 001353
    007207  aa   000000 000000
    007210  aa   040040 040040     773  		vfd a36/    ,36/i_c,36/c_lev66,36/(r11x2-l_org)/5,36/0
    007211  aa   000000 000001
    007212  aa   000000 000017
    007213  aa   000000 001353
    007214  aa   000000 000000
    007215  aa   163040 040040     774  		vfd a36/s   ,36/i_n,36/0,36/(r11-l_org)/5,36/0
    007216  aa   000000 000002
    007217  aa   000000 000000
    007220  aa   000000 001340
    007221  aa   000000 000000
    007222  aa   040040 040040     775  	r11x1:	vfd a36/    ,36/i_n,36/154,36/(end88-l_org)/5,36/0
    007223  aa   000000 000002
    007224  aa   000000 000232
    007225  aa   000000 000522
    007226  aa   000000 000000
    007227  aa   040040 040040     776  	r11x2:	vfd a36/    ,36/i_n,36/154,36/(failure-l_org)/5,36/a_2
    007230  aa   000000 000002
    007231  aa   000000 000232
    007232  aa   000000 001771
    007233  aa   000000 000003
    007234  aa   163040 040040     777  	r11x3:	vfd a36/s   ,36/i_n,36/154,36/(entry88-l_org)/5,36/a_19
    007235  aa   000000 000002
    007236  aa   000000 000232
    007237  aa   000000 000466
    007240  aa   000000 000073
    007241  aa   040040 040040     778  	r12dg:	vfd a36/    ,36/i_n,36/152,36/(l_265-l_org)/5,36/0
    007242  aa   000000 000002
    007243  aa   000000 000230
    007244  aa   000000 001356
    007245  aa   000000 000000
    007246  aa   040040 040040     779  l_265:	r12:	vfd a36/    ,36/i_r,36/r_per,36/(r12x1-l_org)/5,36/0
    007247  aa   000000 000000
    007250  aa   000000 000275
    007251  aa   000000 001370
    007252  aa   000000 000000
    007253  aa   040040 040040     780  		vfd a36/    ,36/i_c,36/c_int,36/(l_266-l_org)/5,36/0
    007254  aa   000000 000001
    007255  aa   000000 000010
    007256  aa   000000 001362
    007257  aa   000000 000000
    007260  aa   040040 040040     781  		vfd a36/    ,36/i_c,36/c_62,36/(r12x2-l_org)/5,36/0
    007261  aa   000000 000001
    007262  aa   000000 000076
    007263  aa   000000 001371
    007264  aa   000000 000000
    007265  aa   163040 040040     782  		vfd a36/s   ,36/i_n,36/0,36/(r12-l_org)/5,36/0
    007266  aa   000000 000002
    007267  aa   000000 000000
    007270  aa   000000 001356
    007271  aa   000000 000000
    007272  aa   040040 040040     783  l_266:		vfd a36/    ,36/i_c,36/c_lev66,36/(r12x4-l_org)/5,36/0
    007273  aa   000000 000001
    007274  aa   000000 000017
    007275  aa   000000 001373
    007276  aa   000000 000000
    007277  aa   040040 040040     784  		vfd a36/    ,36/i_c,36/c_lev01,36/(r12x2-l_org)/5,36/0
    007300  aa   000000 000001
    007301  aa   000000 000012
    007302  aa   000000 001371
    007303  aa   000000 000000
    007304  aa   040040 040040     785  		vfd a36/    ,36/i_c,36/c_lev0249,36/(r12x3-l_org)/5,36/0
    007305  aa   000000 000001
    007306  aa   000000 000021
    007307  aa   000000 001372
    007310  aa   000000 000000
    007311  aa   040040 040040     786  		vfd a36/    ,36/i_c,36/c_lev77,36/(r12x3-l_org)/5,36/0
    007312  aa   000000 000001
    007313  aa   000000 000011
    007314  aa   000000 001372
    007315  aa   000000 000000
    007316  aa   040040 040040     787  		vfd a36/    ,36/i_c,36/c_lev88,36/(r12x3-l_org)/5,36/0
    007317  aa   000000 000001
    007320  aa   000000 000016
    007321  aa   000000 001372
    007322  aa   000000 000000
    007323  aa   163040 040040     788  		vfd a36/s   ,36/i_n,36/0,36/(r12-l_org)/5,36/0
    007324  aa   000000 000002
    007325  aa   000000 000000
    007326  aa   000000 001356
    007327  aa   000000 000000
    007330  aa   040040 040040     789  	r12x1:	vfd a36/    ,36/i_n,36/154,36/(rnm-l_org)/5,36/0
    007331  aa   000000 000002
    007332  aa   000000 000232
    007333  aa   000000 000557
    007334  aa   000000 000000
    007335  aa   040040 040040     790  	r12x2:	vfd a36/    ,36/i_n,36/154,36/(failure-l_org)/5,36/a_2
    007336  aa   000000 000002
    007337  aa   000000 000232
    007340  aa   000000 001771
    007341  aa   000000 000003
    007342  aa   040040 040040     791  	r12x3:	vfd a36/    ,36/i_n,36/163,36/(r12x2-l_org)/5,36/0
    007343  aa   000000 000002
    007344  aa   000000 000243
    007345  aa   000000 001371
    007346  aa   000000 000000
    007347  aa   163040 040040     792  	r12x4:	vfd a36/s   ,36/i_n,36/154,36/(entry66-l_org)/5,36/a_8
    007350  aa   000000 000002
    007351  aa   000000 000232
    007352  aa   000000 000531
    007353  aa   000000 000006
    007354  aa   040040 040040     793  	r13:	vfd a36/    ,36/i_c,36/c_62,36/(l_267-l_org)/5,36/0
    007355  aa   000000 000001
    007356  aa   000000 000076
    007357  aa   000000 001400
    007360  aa   000000 000000
    007361  aa   040040 040040     794  		vfd a36/    ,36/i_c,36/c_lev01,36/(l_267-l_org)/5,36/0
    007362  aa   000000 000001
    007363  aa   000000 000012
    007364  aa   000000 001400
    007365  aa   000000 000000
    007366  aa   040040 040040     795  		vfd a36/    ,36/i_c,36/c_55,36/(l_267-l_org)/5,36/0
    007367  aa   000000 000001
    007370  aa   000000 000067
    007371  aa   000000 001400
    007372  aa   000000 000000
    007373  aa   163040 040040     796  		vfd a36/s   ,36/i_n,36/0,36/(r13-l_org)/5,36/0
    007374  aa   000000 000002
    007375  aa   000000 000000
    007376  aa   000000 001374
    007377  aa   000000 000000
    007400  aa   040040 040040     797  l_267:		vfd a36/    ,36/i_n,36/154,36/(success-l_org)/5,36/a_1
    007401  aa   000000 000002
    007402  aa   000000 000232
    007403  aa   000000 001770
    007404  aa   000000 000002
    007405  aa   040040 040040     798  	r16dg:	vfd a36/    ,36/i_n,36/152,36/(l_268-l_org)/5,36/0
    007406  aa   000000 000002
    007407  aa   000000 000230
    007410  aa   000000 001402
    007411  aa   000000 000000
    007412  aa   040040 040040     799  l_268:	r16:	vfd a36/    ,36/i_r,36/r_depending,36/(r16x2-l_org)/5,36/0
    007413  aa   000000 000000
    007414  aa   000000 000134
    007415  aa   000000 001422
    007416  aa   000000 000000
    007417  aa   040040 040040     800  		vfd a36/    ,36/i_r,36/r_ascending,36/(r16x3-l_org)/5,36/0
    007420  aa   000000 000000
    007421  aa   000000 000116
    007422  aa   000000 001423
    007423  aa   000000 000000
    007424  aa   040040 040040     801  		vfd a36/    ,36/i_r,36/r_descending,36/(r16x3-l_org)/5,36/0
    007425  aa   000000 000000
    007426  aa   000000 000135
    007427  aa   000000 001423
    007430  aa   000000 000000
    007431  aa   040040 040040     802  		vfd a36/    ,36/i_r,36/r_indexed,36/(r16x3-l_org)/5,36/0
    007432  aa   000000 000000
    007433  aa   000000 000337
    007434  aa   000000 001423
    007435  aa   000000 000000
    007436  aa   040040 040040     803  		vfd a36/    ,36/i_c,36/c_12,36/(r16x4-l_org)/5,36/0
    007437  aa   000000 000001
    007440  aa   000000 000014
    007441  aa   000000 001424
    007442  aa   000000 000000
    007443  aa   040040 040040     804  		vfd a36/    ,36/i_r,36/r_per,36/(r16x1-l_org)/5,36/0
    007444  aa   000000 000000
    007445  aa   000000 000275
    007446  aa   000000 001421
    007447  aa   000000 000000
    007450  aa   040040 040040     805  		vfd a36/    ,36/i_c,36/c_int,36/(l_269-l_org)/5,36/0
    007451  aa   000000 000001
    007452  aa   000000 000010
    007453  aa   000000 001413
    007454  aa   000000 000000
    007455  aa   040040 040040     806  		vfd a36/    ,36/i_c,36/c_62,36/(r16x1-l_org)/5,36/0
    007456  aa   000000 000001
    007457  aa   000000 000076
    007460  aa   000000 001421
    007461  aa   000000 000000
    007462  aa   163040 040040     807  		vfd a36/s   ,36/i_n,36/0,36/(r16-l_org)/5,36/0
    007463  aa   000000 000002
    007464  aa   000000 000000
    007465  aa   000000 001402
    007466  aa   000000 000000
    007467  aa   040040 040040     808  l_269:		vfd a36/    ,36/i_c,36/c_lev0249,36/(l_270-l_org)/5,36/0
    007470  aa   000000 000001
    007471  aa   000000 000021
    007472  aa   000000 001421
    007473  aa   000000 000000
    007474  aa   040040 040040     809  		vfd a36/    ,36/i_c,36/c_lev01,36/(l_270-l_org)/5,36/0
    007475  aa   000000 000001
    007476  aa   000000 000012
    007477  aa   000000 001421
    007500  aa   000000 000000
    007501  aa   040040 040040     810  		vfd a36/    ,36/i_c,36/c_lev77,36/(l_270-l_org)/5,36/0
    007502  aa   000000 000001
    007503  aa   000000 000011
    007504  aa   000000 001421
    007505  aa   000000 000000
    007506  aa   040040 040040     811  		vfd a36/    ,36/i_c,36/c_lev88,36/(l_270-l_org)/5,36/0
    007507  aa   000000 000001
    007510  aa   000000 000016
    007511  aa   000000 001421
    007512  aa   000000 000000
    007513  aa   040040 040040     812  		vfd a36/    ,36/i_c,36/c_lev66,36/(l_270-l_org)/5,36/0
    007514  aa   000000 000001
    007515  aa   000000 000017
    007516  aa   000000 001421
    007517  aa   000000 000000
    007520  aa   163040 040040     813  		vfd a36/s   ,36/i_n,36/0,36/(r16-l_org)/5,36/0
    007521  aa   000000 000002
    007522  aa   000000 000000
    007523  aa   000000 001402
    007524  aa   000000 000000
    007525  aa   040040 040040     814  l_270:	r16x1:	vfd a36/    ,36/i_n,36/154,36/(failure-l_org)/5,36/a_2
    007526  aa   000000 000002
    007527  aa   000000 000232
    007530  aa   000000 001771
    007531  aa   000000 000003
    007532  aa   040040 040040     815  	r16x2:	vfd a36/    ,36/i_n,36/154,36/(odpdon-l_org)/5,36/0
    007533  aa   000000 000002
    007534  aa   000000 000232
    007535  aa   000000 000422
    007536  aa   000000 000000
    007537  aa   040040 040040     816  	r16x3:	vfd a36/    ,36/i_n,36/154,36/(occ_adi-l_org)/5,36/0
    007540  aa   000000 000002
    007541  aa   000000 000232
    007542  aa   000000 000436
    007543  aa   000000 000000
    007544  aa   040040 040040     817  	r16x4:	vfd a36/    ,36/i_n,36/154,36/(ddcls_1-l_org)/5,36/0
    007545  aa   000000 000002
    007546  aa   000000 000232
    007547  aa   000000 000216
    007550  aa   000000 000000
    007551  aa   040040 040040     818  	r17dg:	vfd a36/    ,36/i_n,36/152,36/(l_271-l_org)/5,36/0
    007552  aa   000000 000002
    007553  aa   000000 000230
    007554  aa   000000 001426
    007555  aa   000000 000000
    007556  aa   040040 040040     819  l_271:	r17:	vfd a36/    ,36/i_r,36/r_cd,36/(l_272-l_org)/5,36/0
    007557  aa   000000 000000
    007560  aa   000000 000316
    007561  aa   000000 001432
    007562  aa   000000 000000
    007563  aa   040040 040040     820  		vfd a36/    ,36/i_c,36/c_lev01,36/(l_272-l_org)/5,36/0
    007564  aa   000000 000001
    007565  aa   000000 000012
    007566  aa   000000 001432
    007567  aa   000000 000000
    007570  aa   040040 040040     821  		vfd a36/    ,36/i_c,36/c_62,36/(r17x2-l_org)/5,36/0
    007571  aa   000000 000001
    007572  aa   000000 000076
    007573  aa   000000 001433
    007574  aa   000000 000000
    007575  aa   163040 040040     822  		vfd a36/s   ,36/i_n,36/0,36/(r17-l_org)/5,36/0
    007576  aa   000000 000002
    007577  aa   000000 000000
    007600  aa   000000 001426
    007601  aa   000000 000000
    007602  aa   040040 040040     823  l_272:		vfd a36/    ,36/i_n,36/154,36/(nncd-l_org)/5,36/0
    007603  aa   000000 000002
    007604  aa   000000 000232
    007605  aa   000000 001532
    007606  aa   000000 000000
    007607  aa   040040 040040     824  	r17x2:	vfd a36/    ,36/i_n,36/154,36/(sj-l_org)/5,36/0
    007610  aa   000000 000002
    007611  aa   000000 000232
    007612  aa   000000 000003
    007613  aa   000000 000000
    007614  aa   040040 040040     825  	r18dg:	vfd a36/    ,36/i_n,36/152,36/(l_273-l_org)/5,36/0
    007615  aa   000000 000002
    007616  aa   000000 000230
    007617  aa   000000 001435
    007620  aa   000000 000000
    007621  aa   040040 040040     826  l_273:	r18:	vfd a36/    ,36/i_c,36/c_83,36/(l_274-l_org)/5,36/0
    007622  aa   000000 000001
    007623  aa   000000 000123
    007624  aa   000000 001442
    007625  aa   000000 000000
    007626  aa   040040 040040     827  		vfd a36/    ,36/i_r,36/r_per,36/(l_274-l_org)/5,36/0
    007627  aa   000000 000000
    007630  aa   000000 000275
    007631  aa   000000 001442
    007632  aa   000000 000000
    007633  aa   040040 040040     828  		vfd a36/    ,36/i_r,36/r_cd,36/(r18x2-l_org)/5,36/0
    007634  aa   000000 000000
    007635  aa   000000 000316
    007636  aa   000000 001443
    007637  aa   000000 000000
    007640  aa   040040 040040     829  		vfd a36/    ,36/i_c,36/c_62,36/(r18x3-l_org)/5,36/0
    007641  aa   000000 000001
    007642  aa   000000 000076
    007643  aa   000000 001444
    007644  aa   000000 000000
    007645  aa   163040 040040     830  		vfd a36/s   ,36/i_n,36/0,36/(r18-l_org)/5,36/0
    007646  aa   000000 000002
    007647  aa   000000 000000
    007650  aa   000000 001435
    007651  aa   000000 000000
    007652  aa   040040 040040     831  l_274:		vfd a36/    ,36/i_n,36/154,36/(cdclaus-l_org)/5,36/0
    007653  aa   000000 000002
    007654  aa   000000 000232
    007655  aa   000000 001512
    007656  aa   000000 000000
    007657  aa   040040 040040     832  	r18x2:	vfd a36/    ,36/i_n,36/154,36/(nncd-l_org)/5,36/0
    007660  aa   000000 000002
    007661  aa   000000 000232
    007662  aa   000000 001532
    007663  aa   000000 000000
    007664  aa   040040 040040     833  	r18x3:	vfd a36/    ,36/i_n,36/154,36/(sj-l_org)/5,36/0
    007665  aa   000000 000002
    007666  aa   000000 000232
    007667  aa   000000 000003
    007670  aa   000000 000000
    007671  aa   040040 040040     834  	r19dg:	vfd a36/    ,36/i_n,36/152,36/(l_275-l_org)/5,36/0
    007672  aa   000000 000002
    007673  aa   000000 000230
    007674  aa   000000 001446
    007675  aa   000000 000000
    007676  aa   040040 040040     835  l_275:	r19:	vfd a36/    ,36/i_c,36/c_96,36/(l_276-l_org)/5,36/0
    007677  aa   000000 000001
    007700  aa   000000 000140
    007701  aa   000000 001453
    007702  aa   000000 000000
    007703  aa   040040 040040     836  		vfd a36/    ,36/i_r,36/r_per,36/(l_276-l_org)/5,36/0
    007704  aa   000000 000000
    007705  aa   000000 000275
    007706  aa   000000 001453
    007707  aa   000000 000000
    007710  aa   040040 040040     837  		vfd a36/    ,36/i_r,36/r_cd,36/(r19x2-l_org)/5,36/0
    007711  aa   000000 000000
    007712  aa   000000 000316
    007713  aa   000000 001454
    007714  aa   000000 000000
    007715  aa   040040 040040     838  		vfd a36/    ,36/i_c,36/c_62,36/(r19x3-l_org)/5,36/0
    007716  aa   000000 000001
    007717  aa   000000 000076
    007720  aa   000000 001455
    007721  aa   000000 000000
    007722  aa   163040 040040     839  		vfd a36/s   ,36/i_n,36/0,36/(r19-l_org)/5,36/0
    007723  aa   000000 000002
    007724  aa   000000 000000
    007725  aa   000000 001446
    007726  aa   000000 000000
    007727  aa   040040 040040     840  l_276:		vfd a36/    ,36/i_n,36/154,36/(cdopclaus-l_org)/5,36/0
    007730  aa   000000 000002
    007731  aa   000000 000232
    007732  aa   000000 001676
    007733  aa   000000 000000
    007734  aa   040040 040040     841  	r19x2:	vfd a36/    ,36/i_n,36/154,36/(nncd-l_org)/5,36/0
    007735  aa   000000 000002
    007736  aa   000000 000232
    007737  aa   000000 001532
    007740  aa   000000 000000
    007741  aa   040040 040040     842  	r19x3:	vfd a36/    ,36/i_n,36/154,36/(sj-l_org)/5,36/0
    007742  aa   000000 000002
    007743  aa   000000 000232
    007744  aa   000000 000003
    007745  aa   000000 000000
    007746  aa   163063 040040     843  	cms:	vfd a36/s3  ,36/i_n,36/148,36/(l_277-l_org)/5,36/23
    007747  aa   000000 000002
    007750  aa   000000 000224
    007751  aa   000000 001457
    007752  aa   000000 000027
    007753  aa   163040 040040     844  l_277:	cmsc:	vfd a36/s   ,36/i_r,36/r_section,36/(l_278-l_org)/5,36/0
    007754  aa   000000 000000
    007755  aa   000000 000236
    007756  aa   000000 001461
    007757  aa   000000 000000
    007760  aa   040040 040040     845  		vfd a36/    ,36/i_n,36/2,36/(l_278-l_org)/5,36/0
    007761  aa   000000 000002
    007762  aa   000000 000002
    007763  aa   000000 001461
    007764  aa   000000 000000
    007765  aa   163040 040040     846  l_278:		vfd a36/s   ,36/i_r,36/r_per,36/(l_279-l_org)/5,36/a_62
    007766  aa   000000 000000
    007767  aa   000000 000275
    007770  aa   000000 001463
    007771  aa   000000 000142
    007772  aa   040040 040040     847  		vfd a36/    ,36/i_n,36/3,36/(l_279-l_org)/5,36/a_62
    007773  aa   000000 000002
    007774  aa   000000 000003
    007775  aa   000000 001463
    007776  aa   000000 000142
    007777  aa   040040 040040     848  l_279:		vfd a36/    ,36/i_c,36/c_81,36/(l_280-l_org)/5,36/a_140
    010000  aa   000000 000001
    010001  aa   000000 000121
    010002  aa   000000 001465
    010003  aa   000000 000342
    010004  aa   040040 040040     849  		vfd a36/    ,36/i_n,36/96,36/(l_280-l_org)/5,36/0
    010005  aa   000000 000002
    010006  aa   000000 000140
    010007  aa   000000 001465
    010010  aa   000000 000000
    010011  aa   040040 040040     850  l_280:		vfd a36/    ,36/i_c,36/c_80,36/(l_281-l_org)/5,36/0
    010012  aa   000000 000001
    010013  aa   000000 000120
    010014  aa   000000 001467
    010015  aa   000000 000000
    010016  aa   040040 040040     851  		vfd a36/    ,36/i_n,36/94,36/(l_281-l_org)/5,36/0
    010017  aa   000000 000002
    010020  aa   000000 000136
    010021  aa   000000 001467
    010022  aa   000000 000000
    010023  aa   040040 040040     852  l_281:		vfd a36/    ,36/i_r,36/r_cd,36/(l_282-l_org)/5,36/a_141
    010024  aa   000000 000000
    010025  aa   000000 000316
    010026  aa   000000 001471
    010027  aa   000000 000343
    010030  aa   040040 040040     853  		vfd a36/    ,36/i_n,36/0,36/(sj-l_org)/5,36/0
    010031  aa   000000 000002
    010032  aa   000000 000000
    010033  aa   000000 000003
    010034  aa   000000 000000
    010035  aa   163063 040040     854  l_282:	ncd_1:	vfd a36/s3  ,36/i_n,36/149,36/(l_283-l_org)/5,36/23
    010036  aa   000000 000002
    010037  aa   000000 000225
    010040  aa   000000 001472
    010041  aa   000000 000027
    010042  aa   163040 040040     855  l_283:	ncd:	vfd a36/s   ,36/i_c,36/c_type8,36/(l_284-l_org)/5,36/a_142
    010043  aa   000000 000001
    010044  aa   000000 000013
    010045  aa   000000 001474
    010046  aa   000000 000344
    010047  aa   040040 040040     856  		vfd a36/    ,36/i_n,36/98,36/(r18dg-l_org)/5,36/0
    010050  aa   000000 000002
    010051  aa   000000 000142
    010052  aa   000000 001434
    010053  aa   000000 000000
    010054  aa   163040 040040     857  l_284:		vfd a36/s   ,36/i_r,36/r_for,36/(l_285-l_org)/5,36/0
    010055  aa   000000 000000
    010056  aa   000000 000156
    010057  aa   000000 001475
    010060  aa   000000 000000
    010061  aa   163040 040040     858  l_285:		vfd a36/s   ,36/i_r,36/r_output,36/(cdoutput-l_org)/5,36/a_143
    010062  aa   000000 000000
    010063  aa   000000 000211
    010064  aa   000000 001675
    010065  aa   000000 000345
    010066  aa   040040 040040     859  		vfd a36/    ,36/i_r,36/r_initial,36/(l_286-l_org)/5,36/a_78
    010067  aa   000000 000000
    010070  aa   000000 000162
    010071  aa   000000 001500
    010072  aa   000000 000375
    010073  aa   040040 040040     860  		vfd a36/    ,36/i_n,36/0,36/(ckin-l_org)/5,36/0
    010074  aa   000000 000002
    010075  aa   000000 000000
    010076  aa   000000 001503
    010077  aa   000000 000000
    010100  aa   163063 040040     861  l_286:		vfd a36/s3  ,36/i_n,36/150,36/(l_287-l_org)/5,36/24
    010101  aa   000000 000002
    010102  aa   000000 000226
    010103  aa   000000 001501
    010104  aa   000000 000030
    010105  aa   040040 040040     862  l_287:	ncd1:	vfd a36/    ,36/i_c,36/c_82,36/(l_288-l_org)/5,36/a_145
    010106  aa   000000 000001
    010107  aa   000000 000122
    010110  aa   000000 001503
    010111  aa   000000 000347
    010112  aa   040040 040040     863  		vfd a36/    ,36/i_n,36/100,36/(l_288-l_org)/5,36/0
    010113  aa   000000 000002
    010114  aa   000000 000144
    010115  aa   000000 001503
    010116  aa   000000 000000
    010117  aa   163040 040040     864  l_288:	ckin:	vfd a36/s   ,36/i_r,36/r_input,36/(cdinput-l_org)/5,36/a_144
    010120  aa   000000 000000
    010121  aa   000000 000163
    010122  aa   000000 001507
    010123  aa   000000 000346
    010124  aa   040040 040040     865  		vfd a36/    ,36/i_n,36/99,36/(r18dg-l_org)/5,36/0
    010125  aa   000000 000002
    010126  aa   000000 000143
    010127  aa   000000 001434
    010130  aa   000000 000000
    010131  aa   163040 040040     866  	cd01:	vfd a36/s   ,36/i_c,36/c_lev01,36/(cd01rd-l_org)/5,36/a_8
    010132  aa   000000 000001
    010133  aa   000000 000012
    010134  aa   000000 001536
    010135  aa   000000 000006
    010136  aa   040040 040040     867  		vfd a36/    ,36/i_n,36/0,36/(r17dg-l_org)/5,36/0
    010137  aa   000000 000002
    010140  aa   000000 000000
    010141  aa   000000 001425
    010142  aa   000000 000000
    010143  aa   163040 040040     868  	cdinput:	vfd a36/s   ,36/i_r,36/r_per,36/(cd01-l_org)/5,36/0
    010144  aa   000000 000000
    010145  aa   000000 000275
    010146  aa   000000 001505
    010147  aa   000000 000000
    010150  aa   040040 040040     869  		vfd a36/    ,36/i_c,36/c_type8,36/(cdidn-l_org)/5,36/a_146
    010151  aa   000000 000001
    010152  aa   000000 000013
    010153  aa   000000 001526
    010154  aa   000000 000350
    010155  aa   040040 040040     870  		vfd a36/    ,36/i_r,36/r_filler,36/(cdidn-l_org)/5,36/a_146
    010156  aa   000000 000000
    010157  aa   000000 000334
    010160  aa   000000 001526
    010161  aa   000000 000350
    010162  aa   040040 040040     871  	cdclaus:	vfd a36/    ,36/i_c,36/c_83,36/(l_289-l_org)/5,36/a_4
    010163  aa   000000 000001
    010164  aa   000000 000123
    010165  aa   000000 001515
    010166  aa   000000 000004
    010167  aa   163040 040040     872  		vfd a36/s   ,36/i_r,36/r_per,36/(nncd-l_org)/5,36/a_149
    010170  aa   000000 000000
    010171  aa   000000 000275
    010172  aa   000000 001532
    010173  aa   000000 000353
    010174  aa   040040 040040     873  		vfd a36/    ,36/i_n,36/170,36/(r17dg-l_org)/5,36/a_149
    010175  aa   000000 000002
    010176  aa   000000 000252
    010177  aa   000000 001425
    010200  aa   000000 000353
    010201  aa   040040 040040     874  l_289:		vfd a36/    ,36/i_n,36/0,36/(symbolic-l_org)/5,36/0
    010202  aa   000000 000002
    010203  aa   000000 000000
    010204  aa   000000 001552
    010205  aa   000000 000000
    010206  aa   163040 040040     875  		vfd a36/s   ,36/i_n,36/0,36/(message-l_org)/5,36/0
    010207  aa   000000 000002
    010210  aa   000000 000000
    010211  aa   000000 001617
    010212  aa   000000 000000
    010213  aa   163040 040040     876  		vfd a36/s   ,36/i_n,36/0,36/(text-l_org)/5,36/0
    010214  aa   000000 000002
    010215  aa   000000 000000
    010216  aa   000000 001645
    010217  aa   000000 000000
    010220  aa   163040 040040     877  		vfd a36/s   ,36/i_n,36/0,36/(end-l_org)/5,36/0
    010221  aa   000000 000002
    010222  aa   000000 000000
    010223  aa   000000 001655
    010224  aa   000000 000000
    010225  aa   163040 040040     878  		vfd a36/s   ,36/i_n,36/0,36/(status-l_org)/5,36/0
    010226  aa   000000 000002
    010227  aa   000000 000000
    010230  aa   000000 001665
    010231  aa   000000 000000
    010232  aa   163040 040040     879  		vfd a36/s   ,36/i_n,36/0,36/(count-l_org)/5,36/0
    010233  aa   000000 000002
    010234  aa   000000 000000
    010235  aa   000000 001637
    010236  aa   000000 000000
    010237  aa   040040 040040     880  		vfd a36/    ,36/i_n,36/0,36/(symbolic-l_org)/5,36/0
    010240  aa   000000 000002
    010241  aa   000000 000000
    010242  aa   000000 001552
    010243  aa   000000 000000
    010244  aa   040040 040040     881  		vfd a36/    ,36/i_n,36/0,36/(symbolic-l_org)/5,36/0
    010245  aa   000000 000002
    010246  aa   000000 000000
    010247  aa   000000 001552
    010250  aa   000000 000000
    010251  aa   040040 040040     882  		vfd a36/    ,36/i_n,36/0,36/(symbolic-l_org)/5,36/0
    010252  aa   000000 000002
    010253  aa   000000 000000
    010254  aa   000000 001552
    010255  aa   000000 000000
    010256  aa   163040 040040     883  	cdidn:	vfd a36/s   ,36/i_c,36/c_type8,36/(cdidn-l_org)/5,36/a_147
    010257  aa   000000 000001
    010260  aa   000000 000013
    010261  aa   000000 001526
    010262  aa   000000 000351
    010263  aa   163040 040040     884  		vfd a36/s   ,36/i_r,36/r_filler,36/(cdidn-l_org)/5,36/a_148
    010264  aa   000000 000000
    010265  aa   000000 000334
    010266  aa   000000 001526
    010267  aa   000000 000352
    010270  aa   163040 040040     885  		vfd a36/s   ,36/i_r,36/r_per,36/(l_290-l_org)/5,36/a_149
    010271  aa   000000 000000
    010272  aa   000000 000275
    010273  aa   000000 001532
    010274  aa   000000 000353
    010275  aa   040040 040040     886  		vfd a36/    ,36/i_n,36/3,36/(l_290-l_org)/5,36/0
    010276  aa   000000 000002
    010277  aa   000000 000003
    010300  aa   000000 001532
    010301  aa   000000 000000
    010302  aa   040040 040040     887  l_290:	nncd:	vfd a36/    ,36/i_r,36/r_cd,36/(ncd_1-l_org)/5,36/a_141
    010303  aa   000000 000000
    010304  aa   000000 000316
    010305  aa   000000 001471
    010306  aa   000000 000343
    010307  aa   163040 040040     888  		vfd a36/s   ,36/i_c,36/c_lev01,36/(l_291-l_org)/5,36/a_8
    010310  aa   000000 000001
    010311  aa   000000 000012
    010312  aa   000000 001536
    010313  aa   000000 000006
    010314  aa   040040 040040     889  		vfd a36/    ,36/i_c,36/c_62,36/(sj-l_org)/5,36/a_90
    010315  aa   000000 000001
    010316  aa   000000 000076
    010317  aa   000000 000003
    010320  aa   000000 000261
    010321  aa   040040 040040     890  		vfd a36/    ,36/i_n,36/103,36/(r17dg-l_org)/5,36/0
    010322  aa   000000 000002
    010323  aa   000000 000147
    010324  aa   000000 001425
    010325  aa   000000 000000
    010326  aa   163040 040040     891  l_291:	cd01rd:	vfd a36/s   ,36/i_c,36/c_type8,36/(l_292-l_org)/5,36/a_12
    010327  aa   000000 000001
    010330  aa   000000 000013
    010331  aa   000000 001541
    010332  aa   000000 000007
    010333  aa   163040 040040     892  		vfd a36/s   ,36/i_r,36/r_filler,36/(l_292-l_org)/5,36/a_14
    010334  aa   000000 000000
    010335  aa   000000 000334
    010336  aa   000000 001541
    010337  aa   000000 000010
    010340  aa   040040 040040     893  		vfd a36/    ,36/i_n,36/20,36/(l_292-l_org)/5,36/a_13
    010341  aa   000000 000002
    010342  aa   000000 000024
    010343  aa   000000 001541
    010344  aa   000000 000070
    010345  aa   040040 040040     894  l_292:		vfd a36/    ,36/i_n,36/0,36/(l_293-l_org)/5,36/a_91
    010346  aa   000000 000002
    010347  aa   000000 000000
    010350  aa   000000 001542
    010351  aa   000000 000262
    010352  aa   040040 040040     895  l_293:		vfd a36/    ,36/i_s,36/(record01-l_org)/5,36/(l_294-l_org)/5,36/a_62
    010353  aa   000000 000003
    010354  aa   000000 000130
    010355  aa   000000 001544
    010356  aa   000000 000142
    010357  aa   040040 040040     896  		vfd a36/    ,36/i_n,36/0,36/(l_294-l_org)/5,36/0
    010360  aa   000000 000002
    010361  aa   000000 000000
    010362  aa   000000 001544
    010363  aa   000000 000000
    010364  aa   040040 040040     897  l_294:		vfd a36/    ,36/i_c,36/c_84,36/(l_295-l_org)/5,36/0
    010365  aa   000000 000001
    010366  aa   000000 000124
    010367  aa   000000 001546
    010370  aa   000000 000000
    010371  aa   040040 040040     898  		vfd a36/    ,36/i_n,36/203,36/(l_295-l_org)/5,36/0
    010372  aa   000000 000002
    010373  aa   000000 000313
    010374  aa   000000 001546
    010375  aa   000000 000000
    010376  aa   163040 040040     899  l_295:		vfd a36/s   ,36/i_c,36/c_lev01,36/(cd01rd-l_org)/5,36/a_8
    010377  aa   000000 000001
    010400  aa   000000 000012
    010401  aa   000000 001536
    010402  aa   000000 000006
    010403  aa   040040 040040     900  		vfd a36/    ,36/i_r,36/r_cd,36/(ncd_1-l_org)/5,36/a_141
    010404  aa   000000 000000
    010405  aa   000000 000316
    010406  aa   000000 001471
    010407  aa   000000 000343
    010410  aa   040040 040040     901  		vfd a36/    ,36/i_c,36/c_62,36/(sj-l_org)/5,36/0
    010411  aa   000000 000001
    010412  aa   000000 000076
    010413  aa   000000 000003
    010414  aa   000000 000000
    010415  aa   040040 040040     902  		vfd a36/    ,36/i_n,36/103,36/(r17dg-l_org)/5,36/0
    010416  aa   000000 000002
    010417  aa   000000 000147
    010420  aa   000000 001425
    010421  aa   000000 000000
    010422  aa   163040 040040     903  	symbolic:	vfd a36/s   ,36/i_r,36/r_symbolic,36/(l_296-l_org)/5,36/0
    010423  aa   000000 000000
    010424  aa   000000 000373
    010425  aa   000000 001553
    010426  aa   000000 000000
    010427  aa   163040 040040     904  l_296:		vfd a36/s   ,36/i_r,36/r_queue,36/(l_297-l_org)/5,36/0
    010430  aa   000000 000000
    010431  aa   000000 000352
    010432  aa   000000 001561
    010433  aa   000000 000000
    010434  aa   163040 040040     905  		vfd a36/s   ,36/i_r,36/r_sub_queue_1,36/(sq1-l_org)/5,36/0
    010435  aa   000000 000000
    010436  aa   000000 000370
    010437  aa   000000 001567
    010440  aa   000000 000000
    010441  aa   163040 040040     906  		vfd a36/s   ,36/i_r,36/r_sub_queue_2,36/(sq2-l_org)/5,36/0
    010442  aa   000000 000000
    010443  aa   000000 000371
    010444  aa   000000 001575
    010445  aa   000000 000000
    010446  aa   163040 040040     907  		vfd a36/s   ,36/i_r,36/r_sub_queue_3,36/(sq3-l_org)/5,36/0
    010447  aa   000000 000000
    010450  aa   000000 000372
    010451  aa   000000 001603
    010452  aa   000000 000000
    010453  aa   163040 040040     908  		vfd a36/s   ,36/i_r,36/r_source,36/(src-l_org)/5,36/0
    010454  aa   000000 000000
    010455  aa   000000 000366
    010456  aa   000000 001611
    010457  aa   000000 000000
    010460  aa   040040 040040     909  		vfd a36/    ,36/i_n,36/170,36/(r18dg-l_org)/5,36/0
    010461  aa   000000 000002
    010462  aa   000000 000252
    010463  aa   000000 001434
    010464  aa   000000 000000
    010465  aa   163040 040040     910  l_297:		vfd a36/s   ,36/i_r,36/r_is,36/(l_298-l_org)/5,36/0
    010466  aa   000000 000000
    010467  aa   000000 000166
    010470  aa   000000 001562
    010471  aa   000000 000000
    010472  aa   040040 040040     911  l_298:		vfd a36/    ,36/i_c,36/c_type8,36/(l_299-l_org)/5,36/0
    010473  aa   000000 000001
    010474  aa   000000 000013
    010475  aa   000000 001565
    010476  aa   000000 000000
    010477  aa   040040 040040     912  		vfd a36/    ,36/i_r,36/r_filler,36/(l_299-l_org)/5,36/0
    010500  aa   000000 000000
    010501  aa   000000 000334
    010502  aa   000000 001565
    010503  aa   000000 000000
    010504  aa   040040 040040     913  		vfd a36/    ,36/i_n,36/170,36/(r18dg-l_org)/5,36/0
    010505  aa   000000 000002
    010506  aa   000000 000252
    010507  aa   000000 001434
    010510  aa   000000 000000
    010511  aa   163040 040040     914  l_299:		vfd a36/s   ,36/i_c,36/c_85,36/(cdclaus-l_org)/5,36/a_150
    010512  aa   000000 000001
    010513  aa   000000 000125
    010514  aa   000000 001512
    010515  aa   000000 000354
    010516  aa   163040 040040     915  		vfd a36/s   ,36/i_n,36/108,36/(cdclaus-l_org)/5,36/0
    010517  aa   000000 000002
    010520  aa   000000 000154
    010521  aa   000000 001512
    010522  aa   000000 000000
    010523  aa   163040 040040     916  	sq1:	vfd a36/s   ,36/i_r,36/r_is,36/(l_300-l_org)/5,36/0
    010524  aa   000000 000000
    010525  aa   000000 000166
    010526  aa   000000 001570
    010527  aa   000000 000000
    010530  aa   040040 040040     917  l_300:		vfd a36/    ,36/i_c,36/c_type8,36/(l_301-l_org)/5,36/0
    010531  aa   000000 000001
    010532  aa   000000 000013
    010533  aa   000000 001573
    010534  aa   000000 000000
    010535  aa   040040 040040     918  		vfd a36/    ,36/i_r,36/r_filler,36/(l_301-l_org)/5,36/0
    010536  aa   000000 000000
    010537  aa   000000 000334
    010540  aa   000000 001573
    010541  aa   000000 000000
    010542  aa   040040 040040     919  		vfd a36/    ,36/i_n,36/120,36/(r18dg-l_org)/5,36/0
    010543  aa   000000 000002
    010544  aa   000000 000170
    010545  aa   000000 001434
    010546  aa   000000 000000
    010547  aa   163040 040040     920  l_301:		vfd a36/s   ,36/i_c,36/c_87,36/(cdclaus-l_org)/5,36/a_151
    010550  aa   000000 000001
    010551  aa   000000 000127
    010552  aa   000000 001512
    010553  aa   000000 000355
    010554  aa   163040 040040     921  		vfd a36/s   ,36/i_n,36/105,36/(cdclaus-l_org)/5,36/0
    010555  aa   000000 000002
    010556  aa   000000 000151
    010557  aa   000000 001512
    010560  aa   000000 000000
    010561  aa   163040 040040     922  	sq2:	vfd a36/s   ,36/i_r,36/r_is,36/(l_302-l_org)/5,36/0
    010562  aa   000000 000000
    010563  aa   000000 000166
    010564  aa   000000 001576
    010565  aa   000000 000000
    010566  aa   040040 040040     923  l_302:		vfd a36/    ,36/i_c,36/c_type8,36/(l_303-l_org)/5,36/0
    010567  aa   000000 000001
    010570  aa   000000 000013
    010571  aa   000000 001601
    010572  aa   000000 000000
    010573  aa   040040 040040     924  		vfd a36/    ,36/i_r,36/r_filler,36/(l_303-l_org)/5,36/0
    010574  aa   000000 000000
    010575  aa   000000 000334
    010576  aa   000000 001601
    010577  aa   000000 000000
    010600  aa   040040 040040     925  		vfd a36/    ,36/i_n,36/20,36/(r18dg-l_org)/5,36/0
    010601  aa   000000 000002
    010602  aa   000000 000024
    010603  aa   000000 001434
    010604  aa   000000 000000
    010605  aa   163040 040040     926  l_303:		vfd a36/s   ,36/i_c,36/c_88,36/(cdclaus-l_org)/5,36/a_152
    010606  aa   000000 000001
    010607  aa   000000 000130
    010610  aa   000000 001512
    010611  aa   000000 000356
    010612  aa   163040 040040     927  		vfd a36/s   ,36/i_n,36/106,36/(cdclaus-l_org)/5,36/0
    010613  aa   000000 000002
    010614  aa   000000 000152
    010615  aa   000000 001512
    010616  aa   000000 000000
    010617  aa   163040 040040     928  	sq3:	vfd a36/s   ,36/i_r,36/r_is,36/(l_304-l_org)/5,36/0
    010620  aa   000000 000000
    010621  aa   000000 000166
    010622  aa   000000 001604
    010623  aa   000000 000000
    010624  aa   040040 040040     929  l_304:		vfd a36/    ,36/i_c,36/c_type8,36/(l_305-l_org)/5,36/0
    010625  aa   000000 000001
    010626  aa   000000 000013
    010627  aa   000000 001607
    010630  aa   000000 000000
    010631  aa   040040 040040     930  		vfd a36/    ,36/i_r,36/r_filler,36/(l_305-l_org)/5,36/0
    010632  aa   000000 000000
    010633  aa   000000 000334
    010634  aa   000000 001607
    010635  aa   000000 000000
    010636  aa   040040 040040     931  		vfd a36/    ,36/i_n,36/20,36/(r18dg-l_org)/5,36/0
    010637  aa   000000 000002
    010640  aa   000000 000024
    010641  aa   000000 001434
    010642  aa   000000 000000
    010643  aa   163040 040040     932  l_305:		vfd a36/s   ,36/i_c,36/c_89,36/(cdclaus-l_org)/5,36/a_153
    010644  aa   000000 000001
    010645  aa   000000 000131
    010646  aa   000000 001512
    010647  aa   000000 000357
    010650  aa   163040 040040     933  		vfd a36/s   ,36/i_n,36/107,36/(cdclaus-l_org)/5,36/0
    010651  aa   000000 000002
    010652  aa   000000 000153
    010653  aa   000000 001512
    010654  aa   000000 000000
    010655  aa   163040 040040     934  	src:	vfd a36/s   ,36/i_r,36/r_is,36/(l_306-l_org)/5,36/0
    010656  aa   000000 000000
    010657  aa   000000 000166
    010660  aa   000000 001612
    010661  aa   000000 000000
    010662  aa   040040 040040     935  l_306:		vfd a36/    ,36/i_c,36/c_type8,36/(l_307-l_org)/5,36/0
    010663  aa   000000 000001
    010664  aa   000000 000013
    010665  aa   000000 001615
    010666  aa   000000 000000
    010667  aa   040040 040040     936  		vfd a36/    ,36/i_r,36/r_filler,36/(l_307-l_org)/5,36/0
    010670  aa   000000 000000
    010671  aa   000000 000334
    010672  aa   000000 001615
    010673  aa   000000 000000
    010674  aa   040040 040040     937  		vfd a36/    ,36/i_n,36/20,36/(r18dg-l_org)/5,36/0
    010675  aa   000000 000002
    010676  aa   000000 000024
    010677  aa   000000 001434
    010700  aa   000000 000000
    010701  aa   163040 040040     938  l_307:		vfd a36/s   ,36/i_c,36/c_90,36/(cdclaus-l_org)/5,36/a_156
    010702  aa   000000 000001
    010703  aa   000000 000132
    010704  aa   000000 001512
    010705  aa   000000 000362
    010706  aa   163040 040040     939  		vfd a36/s   ,36/i_n,36/115,36/(cdclaus-l_org)/5,36/0
    010707  aa   000000 000002
    010710  aa   000000 000163
    010711  aa   000000 001512
    010712  aa   000000 000000
    010713  aa   163040 040040     940  	message:	vfd a36/s   ,36/i_r,36/r_date,36/(l_308-l_org)/5,36/0
    010714  aa   000000 000000
    010715  aa   000000 000126
    010716  aa   000000 001623
    010717  aa   000000 000000
    010720  aa   163040 040040     941  		vfd a36/s   ,36/i_r,36/r_time,36/(ms2-l_org)/5,36/0
    010721  aa   000000 000000
    010722  aa   000000 000250
    010723  aa   000000 001631
    010724  aa   000000 000000
    010725  aa   163040 040040     942  		vfd a36/s   ,36/i_r,36/r_count,36/(count-l_org)/5,36/0
    010726  aa   000000 000000
    010727  aa   000000 000124
    010730  aa   000000 001637
    010731  aa   000000 000000
    010732  aa   040040 040040     943  		vfd a36/    ,36/i_n,36/170,36/(r18dg-l_org)/5,36/0
    010733  aa   000000 000002
    010734  aa   000000 000252
    010735  aa   000000 001434
    010736  aa   000000 000000
    010737  aa   163040 040040     944  l_308:		vfd a36/s   ,36/i_r,36/r_is,36/(l_309-l_org)/5,36/0
    010740  aa   000000 000000
    010741  aa   000000 000166
    010742  aa   000000 001624
    010743  aa   000000 000000
    010744  aa   040040 040040     945  l_309:		vfd a36/    ,36/i_c,36/c_type8,36/(l_310-l_org)/5,36/0
    010745  aa   000000 000001
    010746  aa   000000 000013
    010747  aa   000000 001627
    010750  aa   000000 000000
    010751  aa   040040 040040     946  		vfd a36/    ,36/i_r,36/r_filler,36/(l_310-l_org)/5,36/0
    010752  aa   000000 000000
    010753  aa   000000 000334
    010754  aa   000000 001627
    010755  aa   000000 000000
    010756  aa   040040 040040     947  		vfd a36/    ,36/i_n,36/20,36/(r18dg-l_org)/5,36/0
    010757  aa   000000 000002
    010760  aa   000000 000024
    010761  aa   000000 001434
    010762  aa   000000 000000
    010763  aa   163040 040040     948  l_310:		vfd a36/s   ,36/i_c,36/c_91,36/(cdclaus-l_org)/5,36/a_154
    010764  aa   000000 000001
    010765  aa   000000 000133
    010766  aa   000000 001512
    010767  aa   000000 000360
    010770  aa   163040 040040     949  		vfd a36/s   ,36/i_n,36/109,36/(cdclaus-l_org)/5,36/0
    010771  aa   000000 000002
    010772  aa   000000 000155
    010773  aa   000000 001512
    010774  aa   000000 000000
    010775  aa   163040 040040     950  	ms2:	vfd a36/s   ,36/i_r,36/r_is,36/(l_311-l_org)/5,36/0
    010776  aa   000000 000000
    010777  aa   000000 000166
    011000  aa   000000 001632
    011001  aa   000000 000000
    011002  aa   040040 040040     951  l_311:		vfd a36/    ,36/i_c,36/c_type8,36/(l_312-l_org)/5,36/0
    011003  aa   000000 000001
    011004  aa   000000 000013
    011005  aa   000000 001635
    011006  aa   000000 000000
    011007  aa   040040 040040     952  		vfd a36/    ,36/i_r,36/r_filler,36/(l_312-l_org)/5,36/0
    011010  aa   000000 000000
    011011  aa   000000 000334
    011012  aa   000000 001635
    011013  aa   000000 000000
    011014  aa   040040 040040     953  		vfd a36/    ,36/i_n,36/20,36/(r18dg-l_org)/5,36/0
    011015  aa   000000 000002
    011016  aa   000000 000024
    011017  aa   000000 001434
    011020  aa   000000 000000
    011021  aa   163040 040040     954  l_312:		vfd a36/s   ,36/i_c,36/c_92,36/(cdclaus-l_org)/5,36/a_155
    011022  aa   000000 000001
    011023  aa   000000 000134
    011024  aa   000000 001512
    011025  aa   000000 000361
    011026  aa   163040 040040     955  		vfd a36/s   ,36/i_n,36/110,36/(cdclaus-l_org)/5,36/0
    011027  aa   000000 000002
    011030  aa   000000 000156
    011031  aa   000000 001512
    011032  aa   000000 000000
    011033  aa   163040 040040     956  	count:	vfd a36/s   ,36/i_r,36/r_is,36/(l_313-l_org)/5,36/0
    011034  aa   000000 000000
    011035  aa   000000 000166
    011036  aa   000000 001640
    011037  aa   000000 000000
    011040  aa   040040 040040     957  l_313:		vfd a36/    ,36/i_c,36/c_type8,36/(l_314-l_org)/5,36/0
    011041  aa   000000 000001
    011042  aa   000000 000013
    011043  aa   000000 001643
    011044  aa   000000 000000
    011045  aa   040040 040040     958  		vfd a36/    ,36/i_r,36/r_filler,36/(l_314-l_org)/5,36/0
    011046  aa   000000 000000
    011047  aa   000000 000334
    011050  aa   000000 001643
    011051  aa   000000 000000
    011052  aa   040040 040040     959  		vfd a36/    ,36/i_n,36/20,36/(r18dg-l_org)/5,36/0
    011053  aa   000000 000002
    011054  aa   000000 000024
    011055  aa   000000 001434
    011056  aa   000000 000000
    011057  aa   163040 040040     960  l_314:		vfd a36/s   ,36/i_c,36/c_86,36/(cdclaus-l_org)/5,36/a_160
    011060  aa   000000 000001
    011061  aa   000000 000126
    011062  aa   000000 001512
    011063  aa   000000 000366
    011064  aa   163040 040040     961  		vfd a36/s   ,36/i_n,36/170,36/(cdclaus-l_org)/5,36/0
    011065  aa   000000 000002
    011066  aa   000000 000252
    011067  aa   000000 001512
    011070  aa   000000 000000
    011071  aa   163040 040040     962  	text:	vfd a36/s   ,36/i_r,36/r_length,36/(l_315-l_org)/5,36/0
    011072  aa   000000 000000
    011073  aa   000000 000342
    011074  aa   000000 001647
    011075  aa   000000 000000
    011076  aa   040040 040040     963  		vfd a36/    ,36/i_n,36/170,36/(r18dg-l_org)/5,36/0
    011077  aa   000000 000002
    011100  aa   000000 000252
    011101  aa   000000 001434
    011102  aa   000000 000000
    011103  aa   163040 040040     964  l_315:		vfd a36/s   ,36/i_r,36/r_is,36/(l_316-l_org)/5,36/0
    011104  aa   000000 000000
    011105  aa   000000 000166
    011106  aa   000000 001650
    011107  aa   000000 000000
    011110  aa   040040 040040     965  l_316:		vfd a36/    ,36/i_c,36/c_type8,36/(l_317-l_org)/5,36/0
    011111  aa   000000 000001
    011112  aa   000000 000013
    011113  aa   000000 001653
    011114  aa   000000 000000
    011115  aa   040040 040040     966  		vfd a36/    ,36/i_r,36/r_filler,36/(l_317-l_org)/5,36/0
    011116  aa   000000 000000
    011117  aa   000000 000334
    011120  aa   000000 001653
    011121  aa   000000 000000
    011122  aa   040040 040040     967  		vfd a36/    ,36/i_n,36/20,36/(r18dg-l_org)/5,36/0
    011123  aa   000000 000002
    011124  aa   000000 000024
    011125  aa   000000 001434
    011126  aa   000000 000000
    011127  aa   163040 040040     968  l_317:		vfd a36/s   ,36/i_c,36/c_93,36/(cdclaus-l_org)/5,36/a_157
    011130  aa   000000 000001
    011131  aa   000000 000135
    011132  aa   000000 001512
    011133  aa   000000 000363
    011134  aa   163040 040040     969  		vfd a36/s   ,36/i_n,36/111,36/(cdclaus-l_org)/5,36/0
    011135  aa   000000 000002
    011136  aa   000000 000157
    011137  aa   000000 001512
    011140  aa   000000 000000
    011141  aa   163040 040040     970  	end:	vfd a36/s   ,36/i_r,36/r_key,36/(l_318-l_org)/5,36/0
    011142  aa   000000 000000
    011143  aa   000000 000170
    011144  aa   000000 001657
    011145  aa   000000 000000
    011146  aa   040040 040040     971  		vfd a36/    ,36/i_n,36/170,36/(r18dg-l_org)/5,36/0
    011147  aa   000000 000002
    011150  aa   000000 000252
    011151  aa   000000 001434
    011152  aa   000000 000000
    011153  aa   163040 040040     972  l_318:		vfd a36/s   ,36/i_r,36/r_is,36/(l_319-l_org)/5,36/0
    011154  aa   000000 000000
    011155  aa   000000 000166
    011156  aa   000000 001660
    011157  aa   000000 000000
    011160  aa   040040 040040     973  l_319:		vfd a36/    ,36/i_c,36/c_type8,36/(l_320-l_org)/5,36/0
    011161  aa   000000 000001
    011162  aa   000000 000013
    011163  aa   000000 001663
    011164  aa   000000 000000
    011165  aa   040040 040040     974  		vfd a36/    ,36/i_r,36/r_filler,36/(l_320-l_org)/5,36/0
    011166  aa   000000 000000
    011167  aa   000000 000334
    011170  aa   000000 001663
    011171  aa   000000 000000
    011172  aa   040040 040040     975  		vfd a36/    ,36/i_n,36/20,36/(r18dg-l_org)/5,36/0
    011173  aa   000000 000002
    011174  aa   000000 000024
    011175  aa   000000 001434
    011176  aa   000000 000000
    011177  aa   163040 040040     976  l_320:		vfd a36/s   ,36/i_c,36/c_94,36/(cdclaus-l_org)/5,36/a_158
    011200  aa   000000 000001
    011201  aa   000000 000136
    011202  aa   000000 001512
    011203  aa   000000 000364
    011204  aa   163040 040040     977  		vfd a36/s   ,36/i_n,36/112,36/(cdclaus-l_org)/5,36/0
    011205  aa   000000 000002
    011206  aa   000000 000160
    011207  aa   000000 001512
    011210  aa   000000 000000
    011211  aa   163040 040040     978  	status:	vfd a36/s   ,36/i_r,36/r_key,36/(l_321-l_org)/5,36/0
    011212  aa   000000 000000
    011213  aa   000000 000170
    011214  aa   000000 001667
    011215  aa   000000 000000
    011216  aa   040040 040040     979  		vfd a36/    ,36/i_n,36/170,36/(r18dg-l_org)/5,36/0
    011217  aa   000000 000002
    011220  aa   000000 000252
    011221  aa   000000 001434
    011222  aa   000000 000000
    011223  aa   163040 040040     980  l_321:		vfd a36/s   ,36/i_r,36/r_is,36/(l_322-l_org)/5,36/0
    011224  aa   000000 000000
    011225  aa   000000 000166
    011226  aa   000000 001670
    011227  aa   000000 000000
    011230  aa   040040 040040     981  l_322:		vfd a36/    ,36/i_c,36/c_type8,36/(l_323-l_org)/5,36/0
    011231  aa   000000 000001
    011232  aa   000000 000013
    011233  aa   000000 001673
    011234  aa   000000 000000
    011235  aa   040040 040040     982  		vfd a36/    ,36/i_r,36/r_filler,36/(l_323-l_org)/5,36/0
    011236  aa   000000 000000
    011237  aa   000000 000334
    011240  aa   000000 001673
    011241  aa   000000 000000
    011242  aa   040040 040040     983  		vfd a36/    ,36/i_n,36/20,36/(r18dg-l_org)/5,36/0
    011243  aa   000000 000002
    011244  aa   000000 000024
    011245  aa   000000 001434
    011246  aa   000000 000000
    011247  aa   163040 040040     984  l_323:		vfd a36/s   ,36/i_c,36/c_95,36/(cdclaus-l_org)/5,36/a_159
    011250  aa   000000 000001
    011251  aa   000000 000137
    011252  aa   000000 001512
    011253  aa   000000 000365
    011254  aa   163040 040040     985  		vfd a36/s   ,36/i_n,36/113,36/(cdclaus-l_org)/5,36/0
    011255  aa   000000 000002
    011256  aa   000000 000161
    011257  aa   000000 001512
    011260  aa   000000 000000
    011261  aa   163040 040040     986  	cdoutput:	vfd a36/s   ,36/i_r,36/r_per,36/(cd01-l_org)/5,36/0
    011262  aa   000000 000000
    011263  aa   000000 000275
    011264  aa   000000 001505
    011265  aa   000000 000000
    011266  aa   040040 040040     987  	cdopclaus:	vfd a36/    ,36/i_c,36/c_96,36/(l_324-l_org)/5,36/a_4
    011267  aa   000000 000001
    011270  aa   000000 000140
    011271  aa   000000 001701
    011272  aa   000000 000004
    011273  aa   163040 040040     988  		vfd a36/s   ,36/i_r,36/r_per,36/(nncd-l_org)/5,36/a_161
    011274  aa   000000 000000
    011275  aa   000000 000275
    011276  aa   000000 001532
    011277  aa   000000 000367
    011300  aa   040040 040040     989  		vfd a36/    ,36/i_n,36/170,36/(r17dg-l_org)/5,36/a_161
    011301  aa   000000 000002
    011302  aa   000000 000252
    011303  aa   000000 001425
    011304  aa   000000 000367
    011305  aa   163040 040040     990  l_324:		vfd a36/s   ,36/i_n,36/0,36/(symbolico-l_org)/5,36/0
    011306  aa   000000 000002
    011307  aa   000000 000000
    011310  aa   000000 001724
    011311  aa   000000 000000
    011312  aa   163040 040040     991  		vfd a36/s   ,36/i_n,36/0,36/(error-l_org)/5,36/0
    011313  aa   000000 000002
    011314  aa   000000 000000
    011315  aa   000000 001740
    011316  aa   000000 000000
    011317  aa   163040 040040     992  		vfd a36/s   ,36/i_n,36/0,36/(texto-l_org)/5,36/0
    011320  aa   000000 000002
    011321  aa   000000 000000
    011322  aa   000000 001760
    011323  aa   000000 000000
    011324  aa   163040 040040     993  		vfd a36/s   ,36/i_n,36/0,36/(destin-l_org)/5,36/0
    011325  aa   000000 000002
    011326  aa   000000 000000
    011327  aa   000000 001706
    011330  aa   000000 000000
    011331  aa   163040 040040     994  		vfd a36/s   ,36/i_n,36/0,36/(statuso-l_org)/5,36/0
    011332  aa   000000 000002
    011333  aa   000000 000000
    011334  aa   000000 001750
    011335  aa   000000 000000
    011336  aa   163040 040040     995  	destin:	vfd a36/s   ,36/i_r,36/r_count,36/(cdodc-l_org)/5,36/0
    011337  aa   000000 000000
    011340  aa   000000 000124
    011341  aa   000000 001716
    011342  aa   000000 000000
    011343  aa   163040 040040     996  		vfd a36/s   ,36/i_r,36/r_table,36/(cdodt-l_org)/5,36/0
    011344  aa   000000 000000
    011345  aa   000000 000375
    011346  aa   000000 001726
    011347  aa   000000 000000
    011350  aa   163040 040040     997  	diso:	vfd a36/s   ,36/i_r,36/r_is,36/(l_325-l_org)/5,36/0
    011351  aa   000000 000000
    011352  aa   000000 000166
    011353  aa   000000 001711
    011354  aa   000000 000000
    011355  aa   040040 040040     998  l_325:		vfd a36/    ,36/i_c,36/c_type8,36/(l_326-l_org)/5,36/0
    011356  aa   000000 000001
    011357  aa   000000 000013
    011360  aa   000000 001714
    011361  aa   000000 000000
    011362  aa   040040 040040     999  		vfd a36/    ,36/i_r,36/r_filler,36/(l_326-l_org)/5,36/0
    011363  aa   000000 000000
    011364  aa   000000 000334
    011365  aa   000000 001714
    011366  aa   000000 000000
    011367  aa   040040 040040    1000  		vfd a36/    ,36/i_n,36/170,36/(r19dg-l_org)/5,36/0
    011370  aa   000000 000002
    011371  aa   000000 000252
    011372  aa   000000 001445
    011373  aa   000000 000000
    011374  aa   163040 040040    1001  l_326:		vfd a36/s   ,36/i_c,36/c_91,36/(cdopclaus-l_org)/5,36/a_154
    011375  aa   000000 000001
    011376  aa   000000 000133
    011377  aa   000000 001676
    011400  aa   000000 000360
    011401  aa   163040 040040    1002  		vfd a36/s   ,36/i_n,36/124,36/(cdopclaus-l_org)/5,36/0
    011402  aa   000000 000002
    011403  aa   000000 000174
    011404  aa   000000 001676
    011405  aa   000000 000000
    011406  aa   163040 040040    1003  	cdodc:	vfd a36/s   ,36/i_r,36/r_is,36/(l_327-l_org)/5,36/0
    011407  aa   000000 000000
    011410  aa   000000 000166
    011411  aa   000000 001717
    011412  aa   000000 000000
    011413  aa   040040 040040    1004  l_327:		vfd a36/    ,36/i_c,36/c_type8,36/(l_328-l_org)/5,36/0
    011414  aa   000000 000001
    011415  aa   000000 000013
    011416  aa   000000 001722
    011417  aa   000000 000000
    011420  aa   040040 040040    1005  		vfd a36/    ,36/i_r,36/r_filler,36/(l_328-l_org)/5,36/0
    011421  aa   000000 000000
    011422  aa   000000 000334
    011423  aa   000000 001722
    011424  aa   000000 000000
    011425  aa   040040 040040    1006  		vfd a36/    ,36/i_n,36/20,36/(r19dg-l_org)/5,36/0
    011426  aa   000000 000002
    011427  aa   000000 000024
    011430  aa   000000 001445
    011431  aa   000000 000000
    011432  aa   163040 040040    1007  l_328:		vfd a36/s   ,36/i_c,36/c_85,36/(cdopclaus-l_org)/5,36/a_150
    011433  aa   000000 000001
    011434  aa   000000 000125
    011435  aa   000000 001676
    011436  aa   000000 000354
    011437  aa   163040 040040    1008  		vfd a36/s   ,36/i_n,36/119,36/(cdopclaus-l_org)/5,36/0
    011440  aa   000000 000002
    011441  aa   000000 000167
    011442  aa   000000 001676
    011443  aa   000000 000000
    011444  aa   163040 040040    1009  	symbolico:	vfd a36/s   ,36/i_r,36/r_destination,36/(diso-l_org)/5,36/0
    011445  aa   000000 000000
    011446  aa   000000 000332
    011447  aa   000000 001710
    011450  aa   000000 000000
    011451  aa   163040 040040    1010  		vfd a36/s   ,36/i_n,36/170,36/(r19dg-l_org)/5,36/0
    011452  aa   000000 000002
    011453  aa   000000 000252
    011454  aa   000000 001445
    011455  aa   000000 000000
    011456  aa   163040 040040    1011  	cdodt:	vfd a36/s   ,36/i_r,36/r_occurs,36/(l_329-l_org)/5,36/0
    011457  aa   000000 000000
    011460  aa   000000 000347
    011461  aa   000000 001730
    011462  aa   000000 000000
    011463  aa   040040 040040    1012  		vfd a36/    ,36/i_n,36/170,36/(r19dg-l_org)/5,36/0
    011464  aa   000000 000002
    011465  aa   000000 000252
    011466  aa   000000 001445
    011467  aa   000000 000000
    011470  aa   163040 040040    1013  l_329:		vfd a36/s   ,36/i_c,36/c_int,36/(l_330-l_org)/5,36/a_162
    011471  aa   000000 000001
    011472  aa   000000 000010
    011473  aa   000000 001732
    011474  aa   000000 000370
    011475  aa   040040 040040    1014  		vfd a36/    ,36/i_n,36/84,36/(r19dg-l_org)/5,36/0
    011476  aa   000000 000002
    011477  aa   000000 000124
    011500  aa   000000 001445
    011501  aa   000000 000000
    011502  aa   163040 040040    1015  l_330:		vfd a36/s   ,36/i_r,36/r_times,36/(l_331-l_org)/5,36/0
    011503  aa   000000 000000
    011504  aa   000000 000250
    011505  aa   000000 001733
    011506  aa   000000 000000
    011507  aa   163040 040040    1016  l_331:		vfd a36/s   ,36/i_r,36/r_indexed,36/(l_332-l_org)/5,36/a_163
    011510  aa   000000 000000
    011511  aa   000000 000337
    011512  aa   000000 001735
    011513  aa   000000 000371
    011514  aa   040040 040040    1017  		vfd a36/    ,36/i_n,36/0,36/(cdopclaus-l_org)/5,36/0
    011515  aa   000000 000002
    011516  aa   000000 000000
    011517  aa   000000 001676
    011520  aa   000000 000000
    011521  aa   163040 040040    1018  l_332:		vfd a36/s   ,36/i_r,36/r_by,36/(l_333-l_org)/5,36/0
    011522  aa   000000 000000
    011523  aa   000000 000122
    011524  aa   000000 001736
    011525  aa   000000 000000
    011526  aa   163040 040040    1019  l_333:		vfd a36/s   ,36/i_c,36/c_type8,36/(l_333-l_org)/5,36/a_164
    011527  aa   000000 000001
    011530  aa   000000 000013
    011531  aa   000000 001736
    011532  aa   000000 000372
    011533  aa   040040 040040    1020  		vfd a36/    ,36/i_n,36/0,36/(cdopclaus-l_org)/5,36/0
    011534  aa   000000 000002
    011535  aa   000000 000000
    011536  aa   000000 001676
    011537  aa   000000 000000
    011540  aa   163040 040040    1021  	error:	vfd a36/s   ,36/i_r,36/r_key,36/(l_334-l_org)/5,36/0
    011541  aa   000000 000000
    011542  aa   000000 000170
    011543  aa   000000 001742
    011544  aa   000000 000000
    011545  aa   040040 040040    1022  		vfd a36/    ,36/i_n,36/172,36/(r19dg-l_org)/5,36/0
    011546  aa   000000 000002
    011547  aa   000000 000254
    011550  aa   000000 001445
    011551  aa   000000 000000
    011552  aa   163040 040040    1023  l_334:		vfd a36/s   ,36/i_r,36/r_is,36/(l_335-l_org)/5,36/0
    011553  aa   000000 000000
    011554  aa   000000 000166
    011555  aa   000000 001743
    011556  aa   000000 000000
    011557  aa   040040 040040    1024  l_335:		vfd a36/    ,36/i_c,36/c_type8,36/(l_336-l_org)/5,36/0
    011560  aa   000000 000001
    011561  aa   000000 000013
    011562  aa   000000 001746
    011563  aa   000000 000000
    011564  aa   040040 040040    1025  		vfd a36/    ,36/i_r,36/r_filler,36/(l_336-l_org)/5,36/0
    011565  aa   000000 000000
    011566  aa   000000 000334
    011567  aa   000000 001746
    011570  aa   000000 000000
    011571  aa   040040 040040    1026  		vfd a36/    ,36/i_n,36/20,36/(r19dg-l_org)/5,36/0
    011572  aa   000000 000002
    011573  aa   000000 000024
    011574  aa   000000 001445
    011575  aa   000000 000000
    011576  aa   163040 040040    1027  l_336:		vfd a36/s   ,36/i_c,36/c_89,36/(cdopclaus-l_org)/5,36/a_153
    011577  aa   000000 000001
    011600  aa   000000 000131
    011601  aa   000000 001676
    011602  aa   000000 000357
    011603  aa   163040 040040    1028  		vfd a36/s   ,36/i_n,36/123,36/(cdopclaus-l_org)/5,36/0
    011604  aa   000000 000002
    011605  aa   000000 000173
    011606  aa   000000 001676
    011607  aa   000000 000000
    011610  aa   163040 040040    1029  	statuso:	vfd a36/s   ,36/i_r,36/r_key,36/(l_337-l_org)/5,36/0
    011611  aa   000000 000000
    011612  aa   000000 000170
    011613  aa   000000 001752
    011614  aa   000000 000000
    011615  aa   040040 040040    1030  		vfd a36/    ,36/i_n,36/172,36/(r19dg-l_org)/5,36/0
    011616  aa   000000 000002
    011617  aa   000000 000254
    011620  aa   000000 001445
    011621  aa   000000 000000
    011622  aa   163040 040040    1031  l_337:		vfd a36/s   ,36/i_r,36/r_is,36/(l_338-l_org)/5,36/0
    011623  aa   000000 000000
    011624  aa   000000 000166
    011625  aa   000000 001753
    011626  aa   000000 000000
    011627  aa   040040 040040    1032  l_338:		vfd a36/    ,36/i_c,36/c_type8,36/(l_339-l_org)/5,36/0
    011630  aa   000000 000001
    011631  aa   000000 000013
    011632  aa   000000 001756
    011633  aa   000000 000000
    011634  aa   040040 040040    1033  		vfd a36/    ,36/i_r,36/r_filler,36/(l_339-l_org)/5,36/0
    011635  aa   000000 000000
    011636  aa   000000 000334
    011637  aa   000000 001756
    011640  aa   000000 000000
    011641  aa   040040 040040    1034  		vfd a36/    ,36/i_n,36/20,36/(r19dg-l_org)/5,36/0
    011642  aa   000000 000002
    011643  aa   000000 000024
    011644  aa   000000 001445
    011645  aa   000000 000000
    011646  aa   163040 040040    1035  l_339:		vfd a36/s   ,36/i_c,36/c_88,36/(cdopclaus-l_org)/5,36/a_152
    011647  aa   000000 000001
    011650  aa   000000 000130
    011651  aa   000000 001676
    011652  aa   000000 000356
    011653  aa   163040 040040    1036  		vfd a36/s   ,36/i_n,36/121,36/(cdopclaus-l_org)/5,36/0
    011654  aa   000000 000002
    011655  aa   000000 000171
    011656  aa   000000 001676
    011657  aa   000000 000000
    011660  aa   163040 040040    1037  	texto:	vfd a36/s   ,36/i_r,36/r_length,36/(l_340-l_org)/5,36/0
    011661  aa   000000 000000
    011662  aa   000000 000342
    011663  aa   000000 001762
    011664  aa   000000 000000
    011665  aa   040040 040040    1038  		vfd a36/    ,36/i_n,36/173,36/(r19dg-l_org)/5,36/0
    011666  aa   000000 000002
    011667  aa   000000 000255
    011670  aa   000000 001445
    011671  aa   000000 000000
    011672  aa   163040 040040    1039  l_340:		vfd a36/s   ,36/i_r,36/r_is,36/(l_341-l_org)/5,36/0
    011673  aa   000000 000000
    011674  aa   000000 000166
    011675  aa   000000 001763
    011676  aa   000000 000000
    011677  aa   040040 040040    1040  l_341:		vfd a36/    ,36/i_c,36/c_type8,36/(l_342-l_org)/5,36/0
    011700  aa   000000 000001
    011701  aa   000000 000013
    011702  aa   000000 001766
    011703  aa   000000 000000
    011704  aa   040040 040040    1041  		vfd a36/    ,36/i_r,36/r_filler,36/(l_342-l_org)/5,36/0
    011705  aa   000000 000000
    011706  aa   000000 000334
    011707  aa   000000 001766
    011710  aa   000000 000000
    011711  aa   040040 040040    1042  		vfd a36/    ,36/i_n,36/20,36/(r19dg-l_org)/5,36/0
    011712  aa   000000 000002
    011713  aa   000000 000024
    011714  aa   000000 001445
    011715  aa   000000 000000
    011716  aa   163040 040040    1043  l_342:		vfd a36/s   ,36/i_c,36/c_87,36/(cdopclaus-l_org)/5,36/a_151
    011717  aa   000000 000001
    011720  aa   000000 000127
    011721  aa   000000 001676
    011722  aa   000000 000355
    011723  aa   163040 040040    1044  		vfd a36/s   ,36/i_n,36/0,36/(cdopclaus-l_org)/5,36/a_120
    011724  aa   000000 000002
    011725  aa   000000 000000
    011726  aa   000000 001676
    011727  aa   000000 000317
    011730  aa   040040 040040    1045  	success:	vfd a36/    ,36/i_n,36/0,36/(success-l_org)/5,36/0
    011731  aa   000000 000002
    011732  aa   000000 000000
    011733  aa   000000 001770
    011734  aa   000000 000000
    011735  aa   040040 040040    1046  	failure:	vfd a36/    ,36/i_n,36/0,36/(failure-l_org)/5,36/0
    011736  aa   000000 000002
    011737  aa   000000 000000
    011740  aa   000000 001771
    011741  aa   000000 000000
    011742  aa   040040 040040    1047  		vfd a36/    ,36/i_n,36/0,36/(l_343-l_org)/5,36/0
    011743  aa   000000 000002
    011744  aa   000000 000000
    011745  aa   000000 001773
    011746  aa   000000 000000
    011747  aa   040040 040040    1048  l_343:		vfd a36/    ,36/i_r,36/r_block,36/(l_343-l_org)/5,36/0
    011750  aa   000000 000000
    011751  aa   000000 000315
    011752  aa   000000 001773
    011753  aa   000000 000000
    011754  aa   040040 040040    1049  l_344:		vfd a36/    ,36/i_r,36/r_catalog_name,36/(l_344-l_org)/5,36/0
    011755  aa   000000 000000
    011756  aa   000000 000513
    011757  aa   000000 001774
    011760  aa   000000 000000
    011761  aa   040040 040040    1050  l_345:		vfd a36/    ,36/i_r,36/r_label,36/(l_345-l_org)/5,36/0
    011762  aa   000000 000000
    011763  aa   000000 000171
    011764  aa   000000 001775
    011765  aa   000000 000000
    011766  aa   040040 040040    1051  l_346:		vfd a36/    ,36/i_r,36/r_computational,36/(l_346-l_org)/5,36/0
    011767  aa   000000 000000
    011770  aa   000000 000152
    011771  aa   000000 001776
    011772  aa   000000 000000
    011773  aa   040040 040040    1052  l_347:		vfd a36/    ,36/i_r,36/r_computational_1,36/(l_347-l_org)/5,36/0
    011774  aa   000000 000000
    011775  aa   000000 000324
    011776  aa   000000 001777
    011777  aa   000000 000000
    012000  aa   040040 040040    1053  l_348:		vfd a36/    ,36/i_r,36/r_computational_2,36/(l_348-l_org)/5,36/0
    012001  aa   000000 000000
    012002  aa   000000 000325
    012003  aa   000000 002000
    012004  aa   000000 000000
    012005  aa   040040 040040    1054  l_349:		vfd a36/    ,36/i_r,36/r_computational_3,36/(l_349-l_org)/5,36/0
    012006  aa   000000 000000
    012007  aa   000000 000323
    012010  aa   000000 002001
    012011  aa   000000 000000
    012012  aa   040040 040040    1055  l_350:		vfd a36/    ,36/i_r,36/r_computational_4,36/(l_350-l_org)/5,36/0
    012013  aa   000000 000000
    012014  aa   000000 000321
    012015  aa   000000 002002
    012016  aa   000000 000000
    012017  aa   040040 040040    1056  l_351:		vfd a36/    ,36/i_r,36/r_computational_5,36/(l_351-l_org)/5,36/0
    012020  aa   000000 000000
    012021  aa   000000 000322
    012022  aa   000000 002003
    012023  aa   000000 000000
    012024  aa   040040 040040    1057  l_352:		vfd a36/    ,36/i_r,36/r_computational_6,36/(l_352-l_org)/5,36/0
    012025  aa   000000 000000
    012026  aa   000000 000444
    012027  aa   000000 002004
    012030  aa   000000 000000
    012031  aa   040040 040040    1058  l_353:		vfd a36/    ,36/i_r,36/r_computational_7,36/(l_353-l_org)/5,36/0
    012032  aa   000000 000000
    012033  aa   000000 000442
    012034  aa   000000 002005
    012035  aa   000000 000000
    012036  aa   040040 040040    1059  l_354:		vfd a36/    ,36/i_r,36/r_computational_8,36/(l_354-l_org)/5,36/0
    012037  aa   000000 000000
    012040  aa   000000 001142
    012041  aa   000000 002006
    012042  aa   000000 000000
    012043  aa   040040 040040    1060  l_355:		vfd a36/    ,36/i_r,36/r_limits,36/(l_355-l_org)/5,36/0
    012044  aa   000000 000000
    012045  aa   000000 001062
    012046  aa   000000 002007
    012047  aa   000000 000000
    012050  aa   040040 040040    1061  l_356:		vfd a36/    ,36/i_r,36/r_line,36/(l_356-l_org)/5,36/0
    012051  aa   000000 000000
    012052  aa   000000 000174
    012053  aa   000000 002010
    012054  aa   000000 000000
    012055  aa   040040 040040    1062  l_357:		vfd a36/    ,36/i_r,36/r_procedure,36/(l_357-l_org)/5,36/0
    012056  aa   000000 000000
    012057  aa   000000 000216
    012060  aa   000000 002011
    012061  aa   000000 000000
    012062  aa   040040 040040    1063  l_358:		vfd a36/    ,36/i_r,36/r_constant,36/(l_358-l_org)/5,36/0
    012063  aa   000000 000000
    012064  aa   000000 000326
    012065  aa   000000 002012
    012066  aa   000000 000000
    012067  aa   040040 040040    1064  l_359:		vfd a36/    ,36/i_r,36/r_file,36/(l_359-l_org)/5,36/0
    012070  aa   000000 000000
    012071  aa   000000 000154
    012072  aa   000000 002013
    012073  aa   000000 000000
    012074  aa   040040 040040    1065  l_360:		vfd a36/    ,36/i_r,36/r_working_storage,36/(l_360-l_org)/5,36/0
    012075  aa   000000 000000
    012076  aa   000000 000403
    012077  aa   000000 002014
    012100  aa   000000 000000
    012101  aa   040040 040040    1066  l_361:		vfd a36/    ,36/i_r,36/r_linkage,36/(l_361-l_org)/5,36/0
    012102  aa   000000 000000
    012103  aa   000000 000344
    012104  aa   000000 002015
    012105  aa   000000 000000
    012106  aa   040040 040040    1067  l_362:		vfd a36/    ,36/i_r,36/r_report,36/(l_362-l_org)/5,36/0
    012107  aa   000000 000000
    012110  aa   000000 000360
    012111  aa   000000 002016
    012112  aa   000000 000000
    012113  aa   040040 040040    1068  l_363:		vfd a36/    ,36/i_r,36/r_fd,36/(l_363-l_org)/5,36/0
    012114  aa   000000 000000
    012115  aa   000000 000333
    012116  aa   000000 002017
    012117  aa   000000 000000
    012120  aa   040040 040040    1069  l_364:		vfd a36/    ,36/i_r,36/r_sd,36/(l_364-l_org)/5,36/0
    012121  aa   000000 000000
    012122  aa   000000 000363
    012123  aa   000000 002020
    012124  aa   000000 000000
    012125  aa   040040 040040    1070  l_365:		vfd a36/    ,36/i_r,36/r_rd,36/(l_365-l_org)/5,36/0
    012126  aa   000000 000000
    012127  aa   000000 001110
    012130  aa   000000 002021
    012131  aa   000000 000000
    012132  aa   040040 040040    1071  l_366:		vfd a36/    ,36/i_r,36/r_pic,36/(l_366-l_org)/5,36/0
    012133  aa   000000 000000
    012134  aa   000000 000350
    012135  aa   000000 002022
    012136  aa   000000 000000
    012137  aa   040040 040040    1072  l_367:		vfd a36/    ,36/i_r,36/r_picture,36/(l_367-l_org)/5,36/0
    012140  aa   000000 000000
    012141  aa   000000 000350
    012142  aa   000000 002023
    012143  aa   000000 000000
    012144  aa   040040 040040    1073  l_368:		vfd a36/    ,36/i_r,36/r_communication,36/(l_368-l_org)/5,36/0
    012145  aa   000000 000000
    012146  aa   000000 000317
    012147  aa   000000 002024
    012150  aa   000000 000000
    012151  aa   040040 040040    1074  l_369:		vfd a36/    ,36/i_r,36/r_code_set,36/(l_369-l_org)/5,36/0
    012152  aa   000000 000000
    012153  aa   000000 000462
    012154  aa   000000 002025
    012155  aa   000000 000000
    012156  aa   040040 040040    1075  l_370:		vfd a36/    ,36/i_r,36/r_copy,36/(l_370-l_org)/5,36/0
    012157  aa   000000 000000
    012160  aa   000000 001012
    012161  aa   000000 002026
    012162  aa   000000 000000
    012163  aa   040040 040040    1076  l_371:		vfd a36/    ,36/i_r,36/r_replacing,36/(l_371-l_org)/5,36/0
    012164  aa   000000 000000
    012165  aa   000000 000230
    012166  aa   000000 002027
    012167  aa   000000 000000
    012170  aa   040040 040040    1077  l_372:		vfd a36/    ,36/i_r,36/r_high_value,36/(l_372-l_org)/5,36/0
    012171  aa   000000 000000
    012172  aa   000000 000335
    012173  aa   000000 002030
    012174  aa   000000 000000
    012175  aa   040040 040040    1078  l_373:		vfd a36/    ,36/i_r,36/r_high_values,36/(l_373-l_org)/5,36/0
    012176  aa   000000 000000
    012177  aa   000000 000335
    012200  aa   000000 002031
    012201  aa   000000 000000
    012202  aa   040040 040040    1079  l_374:		vfd a36/    ,36/i_r,36/r_low_value,36/(l_374-l_org)/5,36/0
    012203  aa   000000 000000
    012204  aa   000000 000345
    012205  aa   000000 002032
    012206  aa   000000 000000
    012207  aa   040040 040040    1080  l_375:		vfd a36/    ,36/i_r,36/r_low_values,36/(l_375-l_org)/5,36/0
    012210  aa   000000 000000
    012211  aa   000000 000345
    012212  aa   000000 002033
    012213  aa   000000 000000
    012214  aa   040040 040040    1081  l_376:		vfd a36/    ,36/i_r,36/r_zero,36/(l_376-l_org)/5,36/0
    012215  aa   000000 000000
    012216  aa   000000 000264
    012217  aa   000000 002034
    012220  aa   000000 000000
    012221  aa   040040 040040    1082  l_377:		vfd a36/    ,36/i_r,36/r_zeros,36/(l_377-l_org)/5,36/0
    012222  aa   000000 000000
    012223  aa   000000 000264
    012224  aa   000000 002035
    012225  aa   000000 000000
    012226  aa   040040 040040    1083  l_378:		vfd a36/    ,36/i_r,36/r_zeroes,36/(l_378-l_org)/5,36/0
    012227  aa   000000 000000
    012230  aa   000000 000264
    012231  aa   000000 002036
    012232  aa   000000 000000
    012233  aa   040040 040040    1084  l_379:		vfd a36/    ,36/i_r,36/r_quote,36/(l_379-l_org)/5,36/0
    012234  aa   000000 000000
    012235  aa   000000 000353
    012236  aa   000000 002037
    012237  aa   000000 000000
    012240  aa   040040 040040    1085  l_380:		vfd a36/    ,36/i_r,36/r_quotes,36/(l_380-l_org)/5,36/0
    012241  aa   000000 000000
    012242  aa   000000 000353
    012243  aa   000000 002040
    012244  aa   000000 000000
    012245  aa   040040 040040    1086  l_381:		vfd a36/    ,36/i_r,36/r_space,36/(l_381-l_org)/5,36/0
    012246  aa   000000 000000
    012247  aa   000000 000300
    012250  aa   000000 002041
    012251  aa   000000 000000
    012252  aa   040040 040040    1087  l_382:		vfd a36/    ,36/i_r,36/r_spaces,36/(l_382-l_org)/5,36/0
    012253  aa   000000 000000
    012254  aa   000000 000300
    012255  aa   000000 002042
    012256  aa   000000 000000
    012257  aa   040040 040040    1088  l_383:		vfd a36/    ,36/i_r,36/r_just,36/(l_383-l_org)/5,36/0
    012260  aa   000000 000000
    012261  aa   000000 000340
    012262  aa   000000 002043
    012263  aa   000000 000000
    012264  aa   040040 040040    1089  l_384:		vfd a36/    ,36/i_r,36/r_justified,36/(l_384-l_org)/5,36/0
    012265  aa   000000 000000
    012266  aa   000000 000340
    012267  aa   000000 002044
    012270  aa   000000 000000
    012271  aa   040040 040040    1090  l_385:		vfd a36/    ,36/i_r,36/r_linage,36/(l_385-l_org)/5,36/0
    012272  aa   000000 000000
    012273  aa   000000 001063
    012274  aa   000000 002045
    012275  aa   000000 000000
    012276  aa   040040 040040    1091  l_386:		vfd a36/    ,36/i_r,36/r_linage_counter,36/(l_386-l_org)/5,36/0
    012277  aa   000000 000000
    012300  aa   000000 001064
    012301  aa   000000 002046
    012302  aa   000000 000000
    012303  aa   040040 040040    1092  l_387:		vfd a36/    ,36/i_r,36/r_sa,36/(l_387-l_org)/5,36/0
    012304  aa   000000 000000
    012305  aa   000000 000362
    012306  aa   000000 002047
    012307  aa   000000 000000
    012310  aa   040040 040040    1093  l_388:		vfd a36/    ,36/i_r,36/r_values,36/(l_388-l_org)/5,36/0
    012311  aa   000000 000000
    012312  aa   000000 000402
    012313  aa   000000 002050
    012314  aa   000000 000000
    012315  aa   040040 040040    1094  l_389:		vfd a36/    ,36/i_r,36/r_blank,36/(l_389-l_org)/5,36/0
    012316  aa   000000 000000
    012317  aa   000000 000314
    012320  aa   000000 002051
    012321  aa   000000 000000
    012322  aa   040040 040040    1095  l_390:		vfd a36/    ,36/i_r,36/r_sync,36/(l_390-l_org)/5,36/0
    012323  aa   000000 000000
    012324  aa   000000 000374
    012325  aa   000000 002052
    012326  aa   000000 000000
    012327  aa   040040 040040    1096  l_391:		vfd a36/    ,36/i_r,36/r_synchronized,36/(l_391-l_org)/5,36/0
    012330  aa   000000 000000
    012331  aa   000000 000374
    012332  aa   000000 002053
    012333  aa   000000 000000
    012334  aa   040040 040040    1097  l_392:		vfd a36/    ,36/i_r,36/r_areas,36/(l_392-l_org)/5,36/0
    012335  aa   000000 000000
    012336  aa   000000 000312
    012337  aa   000000 002054
    012340  aa   000000 000000
    012341  aa   040040 040040    1098  l_393:		vfd a36/    ,36/i_r,36/r_limit,36/(l_393-l_org)/5,36/0
    012342  aa   000000 000000
    012343  aa   000000 001061
    012344  aa   000000 002055
    012345  aa   000000 000000
    012346  aa   040040 040040    1099  l_394:		vfd a36/    ,36/i_r,36/r_through,36/(l_394-l_org)/5,36/0
    012347  aa   000000 000000
    012350  aa   000000 000246
    012351  aa   000000 002056
    012352  aa   000000 000000
    012353  aa   040040 040040    1100  l_395:		vfd a36/    ,36/i_r,36/r_data,36/(l_395-l_org)/5,36/0
    012354  aa   000000 000000
    012355  aa   000000 000304
    012356  aa   000000 002057
    012357  aa   000000 000000
    012360  aa   040040 040040    1101  l_396:		vfd a36/    ,36/i_r,36/r_division,36/(l_396-l_org)/5,36/0
    012361  aa   000000 000000
    012362  aa   000000 000136
    012363  aa   000000 002060
    012364  aa   000000 000000
    012365  aa   040040 040040    1102  l_397:		vfd a36/    ,36/i_r,36/r_end,36/(l_397-l_org)/5,36/0
    012366  aa   000000 000000
    012367  aa   000000 000142
    012370  aa   000000 002061
    012371  aa   000000 000000
    012372  aa   040040 040040    1103  l_398:		vfd a36/    ,36/i_r,36/r_catalog_names,36/(l_398-l_org)/5,36/0
    012373  aa   000000 000000
    012374  aa   000000 000513
    012375  aa   000000 002062
    012376  aa   000000 000000
    012377  aa   040040 040040    1104  l_399:		vfd a36/    ,36/i_r,36/r_error,36/(l_399-l_org)/5,36/0
    012400  aa   000000 000000
    012401  aa   000000 000003
    012402  aa   000000 002063
    012403  aa   000000 000000
    012404  aa   040040 040040    1105  l_400:		vfd a36/    ,36/i_r,36/r_message,36/(l_400-l_org)/5,36/0
    012405  aa   000000 000000
    012406  aa   000000 000176
    012407  aa   000000 002064
    012410  aa   000000 000000
    012411  aa   040040 040040    1106  l_401:		vfd a36/    ,36/i_r,36/r_recording,36/(l_401-l_org)/5,36/0
    012412  aa   000000 000000
    012413  aa   000000 000355
    012414  aa   000000 002065
    012415  aa   000000 000000
    012416  aa   040040 040040    1107  l_402:		vfd a36/    ,36/i_r,36/r_replace,36/(l_402-l_org)/5,36/0
    012417  aa   000000 000000
    012420  aa   000000 000651
    012421  aa   000000 002066
    012422  aa   000000 000000
    012423  aa   040040 040040    1108  l_403:		vfd a36/    ,36/i_r,36/r_reports,36/(l_403-l_org)/5,36/0
    012424  aa   000000 000000
    012425  aa   000000 000360
    012426  aa   000000 002067
    012427  aa   000000 000000
    012430  aa   040040 040040    1109  l_404:		vfd a36/    ,36/i_r,36/r_status,36/(l_404-l_org)/5,36/0
    012431  aa   000000 000000
    012432  aa   000000 000367
    012433  aa   000000 002070
    012434  aa   000000 000000
    012435  aa   040040 040040    1110  l_405:		vfd a36/    ,36/i_r,36/r_text,36/(l_405-l_org)/5,36/0
    012436  aa   000000 000000
    012437  aa   000000 001137
    012440  aa   000000 002071
    012441  aa   000000 000000
    012442  aa   040040 040040    1111  l_406:		vfd a36/    ,36/i_r,36/r_pls,36/(l_406-l_org)/5,36/0
    012443  aa   000000 000000
    012444  aa   000000 000266
    012445  aa   000000 002072
    012446  aa   000000 000000
    012447  aa   040040 040040    1112  l_407:		vfd a36/    ,36/i_r,36/r_sub,36/(l_407-l_org)/5,36/0
    012450  aa   000000 000000
    012451  aa   000000 000267
    012452  aa   000000 002073
    012453  aa   000000 000000
    012454  aa   040040 040040    1113  l_408:		vfd a36/    ,36/i_r,36/r_tim,36/(l_408-l_org)/5,36/0
    012455  aa   000000 000000
    012456  aa   000000 000270
    012457  aa   000000 002074
    012460  aa   000000 000000
    012461  aa   040040 040040    1114  l_409:		vfd a36/    ,36/i_r,36/r_div,36/(l_409-l_org)/5,36/0
    012462  aa   000000 000000
    012463  aa   000000 000271
    012464  aa   000000 002075
    012465  aa   000000 000000
    012466  aa   040040 040040    1115  l_410:		vfd a36/    ,36/i_r,36/r_exp,36/(l_410-l_org)/5,36/0
    012467  aa   000000 000000
    012470  aa   000000 000272
    012471  aa   000000 002076
    012472  aa   000000 000000
    012473  aa   040040 040040    1116  l_411:		vfd a36/    ,36/i_r,36/r_ls,36/(l_411-l_org)/5,36/0
    012474  aa   000000 000000
    012475  aa   000000 000173
    012476  aa   000000 002077
    012477  aa   000000 000000
    012500  aa   040040 040040    1117  l_412:		vfd a36/    ,36/i_r,36/r_gt,36/(l_412-l_org)/5,36/0
    012501  aa   000000 000000
    012502  aa   000000 000161
    012503  aa   000000 002100
    012504  aa   000000 000000
    012505  aa   040040 040040    1118  l_413:		vfd a36/    ,36/i_r,36/r_eq,36/(l_413-l_org)/5,36/0
    012506  aa   000000 000000
    012507  aa   000000 000146
    012510  aa   000000 002101
    012511  aa   000000 000000
    012512  aa   040040 040040    1119  l_414:		vfd a36/    ,36/i_r,36/r_lt,36/(l_414-l_org)/5,36/0
    012513  aa   000000 000000
    012514  aa   000000 000273
    012515  aa   000000 002102
    012516  aa   000000 000000
    012517  aa   040040 040040    1120  l_415:		vfd a36/    ,36/i_r,36/r_rt,36/(l_415-l_org)/5,36/0
    012520  aa   000000 000000
    012521  aa   000000 000274
    012522  aa   000000 002103
    012523  aa   000000 000000
                        000001    1121  	equ c_1,1
                        000144    1122  	equ c_100,100
                        000014    1123  	equ c_12,12
                        000020    1124  	equ c_16,16
                        000022    1125  	equ c_18,18
                        000023    1126  	equ c_19,19
                        000002    1127  	equ c_2,2
                        000024    1128  	equ c_20,20
                        000025    1129  	equ c_21,21
                        000026    1130  	equ c_22,22
                        000032    1131  	equ c_26,26
                        000033    1132  	equ c_27,27
                        000034    1133  	equ c_28,28
                        000035    1134  	equ c_29,29
                        000003    1135  	equ c_3,3
                        000036    1136  	equ c_30,30
                        000037    1137  	equ c_31,31
                        000040    1138  	equ c_32,32
                        000041    1139  	equ c_33,33
                        000042    1140  	equ c_34,34
                        000043    1141  	equ c_35,35
                        000045    1142  	equ c_37,37
                        000046    1143  	equ c_38,38
                        000047    1144  	equ c_39,39
                        000004    1145  	equ c_4,4
                        000050    1146  	equ c_40,40
                        000051    1147  	equ c_41,41
                        000052    1148  	equ c_42,42
                        000053    1149  	equ c_43,43
                        000054    1150  	equ c_44,44
                        000055    1151  	equ c_45,45
                        000056    1152  	equ c_46,46
                        000057    1153  	equ c_47,47
                        000061    1154  	equ c_49,49
                        000005    1155  	equ c_5,5
                        000066    1156  	equ c_54,54
                        000067    1157  	equ c_55,55
                        000070    1158  	equ c_56,56
                        000071    1159  	equ c_57,57
                        000072    1160  	equ c_58,58
                        000073    1161  	equ c_59,59
                        000006    1162  	equ c_6,6
                        000074    1163  	equ c_60,60
                        000075    1164  	equ c_61,61
                        000076    1165  	equ c_62,62
                        000101    1166  	equ c_65,65
                        000102    1167  	equ c_66,66
                        000103    1168  	equ c_67,67
                        000104    1169  	equ c_68,68
                        000105    1170  	equ c_69,69
                        000007    1171  	equ c_7,7
                        000106    1172  	equ c_70,70
                        000107    1173  	equ c_71,71
                        000110    1174  	equ c_72,72
                        000112    1175  	equ c_74,74
                        000113    1176  	equ c_75,75
                        000114    1177  	equ c_76,76
                        000115    1178  	equ c_77,77
                        000120    1179  	equ c_80,80
                        000121    1180  	equ c_81,81
                        000122    1181  	equ c_82,82
                        000123    1182  	equ c_83,83
                        000124    1183  	equ c_84,84
                        000125    1184  	equ c_85,85
                        000126    1185  	equ c_86,86
                        000127    1186  	equ c_87,87
                        000130    1187  	equ c_88,88
                        000131    1188  	equ c_89,89
                        000132    1189  	equ c_90,90
                        000133    1190  	equ c_91,91
                        000134    1191  	equ c_92,92
                        000135    1192  	equ c_93,93
                        000136    1193  	equ c_94,94
                        000137    1194  	equ c_95,95
                        000140    1195  	equ c_96,96
                        000141    1196  	equ c_97,97
                        000142    1197  	equ c_98,98
                        000143    1198  	equ c_99,99
                        000062    1199  	equ c_all,50
                        000015    1200  	equ c_codeset,13
                        000065    1201  	equ c_dup_type8,53
                        000031    1202  	equ c_figcon,25
                        000010    1203  	equ c_int,8
                        000044    1204  	equ c_labnam,36
                        000060    1205  	equ c_labval,48
                        000012    1206  	equ c_lev01,10
                        000063    1207  	equ c_lev0177,51
                        000021    1208  	equ c_lev0249,17
                        000017    1209  	equ c_lev66,15
                        000077    1210  	equ c_lev66s,63
                        000011    1211  	equ c_lev77,9
                        000016    1212  	equ c_lev88,14
                        000100    1213  	equ c_lev88s,64
                        000064    1214  	equ c_lrc,52
                        000111    1215  	equ c_per_ck,73
                        000116    1216  	equ c_renames,78
                        000117    1217  	equ c_test_like,79
                        000027    1218  	equ c_type2,23
                        000030    1219  	equ c_type3,24
                        000013    1220  	equ c_type8,11
                        000001    1221  	equ a_0,1
                        000002    1222  	equ a_1,2
                        000066    1223  	equ a_10,54
                        000273    1224  	equ a_100,187
                        000274    1225  	equ a_101,188
                        000275    1226  	equ a_102,189
                        000276    1227  	equ a_103,190
                        000277    1228  	equ a_104,191
                        000300    1229  	equ a_105,192
                        000301    1230  	equ a_106,193
                        000302    1231  	equ a_107,194
                        000303    1232  	equ a_108,195
                        000304    1233  	equ a_109,196
                        000067    1234  	equ a_11,55
                        000305    1235  	equ a_110,197
                        000306    1236  	equ a_111,198
                        000307    1237  	equ a_112,199
                        000000    1238  	equ a_113,0
                        000311    1239  	equ a_114,201
                        000312    1240  	equ a_115,202
                        000313    1241  	equ a_116,203
                        000314    1242  	equ a_117,204
                        000315    1243  	equ a_118,205
                        000316    1244  	equ a_119,206
                        000007    1245  	equ a_12,7
                        000317    1246  	equ a_120,207
                        000320    1247  	equ a_121,208
                        000321    1248  	equ a_122,209
                        000322    1249  	equ a_123,210
                        000323    1250  	equ a_124,211
                        000324    1251  	equ a_125,212
                        000325    1252  	equ a_126,213
                        000326    1253  	equ a_127,214
                        000327    1254  	equ a_128,215
                        000330    1255  	equ a_129,216
                        000070    1256  	equ a_13,56
                        000331    1257  	equ a_130,217
                        000332    1258  	equ a_131,218
                        000333    1259  	equ a_132,219
                        000334    1260  	equ a_133,220
                        000335    1261  	equ a_134,221
                        000336    1262  	equ a_135,222
                        000017    1263  	equ a_136,15
                        000337    1264  	equ a_137,223
                        000340    1265  	equ a_138,224
                        000341    1266  	equ a_139,225
                        000010    1267  	equ a_14,8
                        000342    1268  	equ a_140,226
                        000343    1269  	equ a_141,227
                        000344    1270  	equ a_142,228
                        000345    1271  	equ a_143,229
                        000346    1272  	equ a_144,230
                        000347    1273  	equ a_145,231
                        000350    1274  	equ a_146,232
                        000351    1275  	equ a_147,233
                        000352    1276  	equ a_148,234
                        000353    1277  	equ a_149,235
                        000071    1278  	equ a_15,57
                        000354    1279  	equ a_150,236
                        000355    1280  	equ a_151,237
                        000356    1281  	equ a_152,238
                        000357    1282  	equ a_153,239
                        000360    1283  	equ a_154,240
                        000361    1284  	equ a_155,241
                        000362    1285  	equ a_156,242
                        000363    1286  	equ a_157,243
                        000364    1287  	equ a_158,244
                        000365    1288  	equ a_159,245
                        000072    1289  	equ a_16,58
                        000366    1290  	equ a_160,246
                        000367    1291  	equ a_161,247
                        000370    1292  	equ a_162,248
                        000371    1293  	equ a_163,249
                        000372    1294  	equ a_164,250
                        000373    1295  	equ a_165,251
                        000374    1296  	equ a_166,252
                        000144    1297  	equ a_167,100
                        000022    1298  	equ a_168,18
                        000023    1299  	equ a_169,19
                        000011    1300  	equ a_17,9
                        000024    1301  	equ a_170,20
                        000012    1302  	equ a_18,10
                        000073    1303  	equ a_19,59
                        000003    1304  	equ a_2,3
                        000013    1305  	equ a_20,11
                        000014    1306  	equ a_21,12
                        000015    1307  	equ a_22,13
                        000016    1308  	equ a_23,14
                        000074    1309  	equ a_24,60
                        000075    1310  	equ a_25,61
                        000076    1311  	equ a_26,62
                        000077    1312  	equ a_27,63
                        000100    1313  	equ a_28,64
                        000101    1314  	equ a_29,65
                        000143    1315  	equ a_3,99
                        000102    1316  	equ a_30,66
                        000103    1317  	equ a_31,67
                        000104    1318  	equ a_32,68
                        000105    1319  	equ a_33,69
                        000106    1320  	equ a_34,70
                        000107    1321  	equ a_35,71
                        000110    1322  	equ a_36,72
                        000111    1323  	equ a_37,73
                        000112    1324  	equ a_38,74
                        000113    1325  	equ a_39,75
                        000004    1326  	equ a_4,4
                        000114    1327  	equ a_40,76
                        000115    1328  	equ a_41,77
                        000116    1329  	equ a_42,78
                        000117    1330  	equ a_43,79
                        000120    1331  	equ a_44,80
                        000121    1332  	equ a_45,81
                        000122    1333  	equ a_46,82
                        000123    1334  	equ a_47,83
                        000124    1335  	equ a_48,84
                        000125    1336  	equ a_49,85
                        000062    1337  	equ a_5,50
                        000126    1338  	equ a_50,86
                        000127    1339  	equ a_51,87
                        000130    1340  	equ a_52,88
                        000131    1341  	equ a_53,89
                        000132    1342  	equ a_54,90
                        000133    1343  	equ a_55,91
                        000134    1344  	equ a_56,92
                        000135    1345  	equ a_57,93
                        000136    1346  	equ a_58,94
                        000137    1347  	equ a_59,95
                        000063    1348  	equ a_6,51
                        000140    1349  	equ a_60,96
                        000141    1350  	equ a_61,97
                        000142    1351  	equ a_62,98
                        000226    1352  	equ a_63,150
                        000227    1353  	equ a_64,151
                        000230    1354  	equ a_65,152
                        000231    1355  	equ a_66,153
                        000232    1356  	equ a_67,154
                        000233    1357  	equ a_68,155
                        000234    1358  	equ a_69,156
                        000064    1359  	equ a_7,52
                        000235    1360  	equ a_70,157
                        000236    1361  	equ a_71,158
                        000237    1362  	equ a_72,159
                        000240    1363  	equ a_73,160
                        000241    1364  	equ a_74,161
                        000242    1365  	equ a_75,162
                        000243    1366  	equ a_76,163
                        000005    1367  	equ a_77,5
                        000375    1368  	equ a_78,253
                        000246    1369  	equ a_79,166
                        000006    1370  	equ a_8,6
                        000247    1371  	equ a_80,167
                        000250    1372  	equ a_81,168
                        000020    1373  	equ a_82,16
                        000021    1374  	equ a_83,17
                        000025    1375  	equ a_84,21
                        000000    1376  	equ a_85,0
                        000255    1377  	equ a_86,173
                        000256    1378  	equ a_87,174
                        000257    1379  	equ a_88,175
                        000000    1380  	equ a_89,0
                        000065    1381  	equ a_9,53
                        000261    1382  	equ a_90,177
                        000262    1383  	equ a_91,178
                        000000    1384  	equ a_92,0
                        000000    1385  	equ a_93,0
                        000265    1386  	equ a_94,181
                        000266    1387  	equ a_95,182
                        000267    1388  	equ a_96,183
                        000000    1389  	equ a_97,0
                        000000    1390  	equ a_98,0
                        000272    1391  	equ a_99,186
                        000146    1392  	equ r_eq,102
                        000273    1393  	equ r_lt,187
                        000274    1394  	equ r_rt,188
                        000270    1395  	equ r_tim,184
                        000272    1396  	equ r_exp,186
                        000266    1397  	equ r_pls,182
                        000267    1398  	equ r_sub,183
                        000275    1399  	equ r_per,189
                        000271    1400  	equ r_div,185
                        000173    1401  	equ r_ls,123
                        000161    1402  	equ r_gt,113
                        000111    1403  	equ r_all,73
                        000166    1404  	equ r_are,118
                        000312    1405  	equ r_area,202
                        000312    1406  	equ r_areas,202
                        000116    1407  	equ r_ascending,78
                        000117    1408  	equ r_at,79
                        000314    1409  	equ r_blank,204
                        000315    1410  	equ r_block,205
                        000354    1411  	equ r_bottom,236
                        000122    1412  	equ r_by,82
                        000513    1413  	equ r_catalog_name,331
                        000513    1414  	equ r_catalog_names,331
                        000316    1415  	equ r_cd,206
                        000123    1416  	equ r_character,83
                        000123    1417  	equ r_characters,83
                        000277    1418  	equ r_cobol,191
                        000462    1419  	equ r_code_set,306
                        000317    1420  	equ r_communication,207
                        000152    1421  	equ r_comp,106
                        000324    1422  	equ r_comp_1,212
                        000325    1423  	equ r_comp_2,213
                        000323    1424  	equ r_comp_3,211
                        000321    1425  	equ r_comp_4,209
                        000322    1426  	equ r_comp_5,210
                        000444    1427  	equ r_comp_6,292
                        000442    1428  	equ r_comp_7,290
                        001142    1429  	equ r_comp_8,610
                        000152    1430  	equ r_computational,106
                        000324    1431  	equ r_computational_1,212
                        000325    1432  	equ r_computational_2,213
                        000323    1433  	equ r_computational_3,211
                        000321    1434  	equ r_computational_4,209
                        000322    1435  	equ r_computational_5,210
                        000444    1436  	equ r_computational_6,292
                        000442    1437  	equ r_computational_7,290
                        001142    1438  	equ r_computational_8,610
                        000326    1439  	equ r_constant,214
                        000327    1440  	equ r_contains,215
                        001012    1441  	equ r_copy,522
                        000124    1442  	equ r_count,84
                        000304    1443  	equ r_data,196
                        000126    1444  	equ r_date,86
                        000134    1445  	equ r_depending,92
                        000135    1446  	equ r_descending,93
                        000332    1447  	equ r_destination,218
                        000052    1448  	equ r_display,42
                        000136    1449  	equ r_division,94
                        000142    1450  	equ r_end,98
                        000003    1451  	equ r_error,3
                        000333    1452  	equ r_fd,219
                        000154    1453  	equ r_file,108
                        000334    1454  	equ r_filler,220
                        001043    1455  	equ r_footing,547
                        000156    1456  	equ r_for,110
                        000335    1457  	equ r_high_value,221
                        000335    1458  	equ r_high_values,221
                        000145    1459  	equ r_in,101
                        000336    1460  	equ r_index,222
                        000337    1461  	equ r_indexed,223
                        000162    1462  	equ r_initial,114
                        000163    1463  	equ r_input,115
                        000166    1464  	equ r_is,118
                        000340    1465  	equ r_just,224
                        000340    1466  	equ r_justified,224
                        000170    1467  	equ r_key,120
                        000171    1468  	equ r_label,121
                        000172    1469  	equ r_leading,122
                        000341    1470  	equ r_left,225
                        000342    1471  	equ r_length,226
                        001061    1472  	equ r_limit,561
                        001062    1473  	equ r_limits,562
                        001063    1474  	equ r_linage,563
                        001064    1475  	equ r_linage_counter,564
                        000174    1476  	equ r_line,124
                        000174    1477  	equ r_lines,124
                        000344    1478  	equ r_linkage,228
                        000345    1479  	equ r_low_value,229
                        000345    1480  	equ r_low_values,229
                        000176    1481  	equ r_message,126
                        000346    1482  	equ r_mode,230
                        000347    1483  	equ r_occurs,231
                        000205    1484  	equ r_of,133
                        000313    1485  	equ r_omitted,203
                        000206    1486  	equ r_on,134
                        000211    1487  	equ r_output,137
                        000350    1488  	equ r_pic,232
                        000350    1489  	equ r_picture,232
                        000216    1490  	equ r_procedure,142
                        000352    1491  	equ r_queue,234
                        000353    1492  	equ r_quote,235
                        000353    1493  	equ r_quotes,235
                        001110    1494  	equ r_rd,584
                        000224    1495  	equ r_record,148
                        000355    1496  	equ r_recording,237
                        000303    1497  	equ r_records,195
                        000356    1498  	equ r_redefines,238
                        000357    1499  	equ r_renames,239
                        000651    1500  	equ r_replace,425
                        000230    1501  	equ r_replacing,152
                        000360    1502  	equ r_report,240
                        000360    1503  	equ r_reports,240
                        000361    1504  	equ r_right,241
                        000362    1505  	equ r_sa,242
                        000363    1506  	equ r_sd,243
                        000236    1507  	equ r_section,158
                        000364    1508  	equ r_separate,244
                        000365    1509  	equ r_sign,245
                        000366    1510  	equ r_source,246
                        000300    1511  	equ r_space,192
                        000300    1512  	equ r_spaces,192
                        000242    1513  	equ r_standard,162
                        000367    1514  	equ r_status,247
                        000370    1515  	equ r_sub_queue_1,248
                        000371    1516  	equ r_sub_queue_2,249
                        000372    1517  	equ r_sub_queue_3,250
                        000373    1518  	equ r_symbolic,251
                        000374    1519  	equ r_sync,252
                        000374    1520  	equ r_synchronized,252
                        000375    1521  	equ r_table,253
                        001137    1522  	equ r_text,607
                        000246    1523  	equ r_through,166
                        000246    1524  	equ r_thru,166
                        000250    1525  	equ r_time,168
                        000250    1526  	equ r_times,168
                        000252    1527  	equ r_to,170
                        000276    1528  	equ r_top,190
                        000377    1529  	equ r_trailing,255
                        000401    1530  	equ r_usage,257
                        000402    1531  	equ r_value,258
                        000402    1532  	equ r_values,258
                        000262    1533  	equ r_when,178
                        000263    1534  	equ r_with,179
                        000403    1535  	equ r_working_storage,259
                        000264    1536  	equ r_zero,180
                        000264    1537  	equ r_zeroes,180
                        000264    1538  	equ r_zeros,180
                                  1539  	end
ENTRY SEQUENCES

    012524  5a   000011 0000 00
    012525  aa  7 00046 2721 20
    012526  0a   000000 7100 00

NO LITERALS

NAME DEFINITIONS FOR ENTRY POINTS AND SEGDEFS

    012530  5a   000003 000000
    012531  5a   000026 600000
    012532  aa   000000 000000
    012533  55   000011 000002
    012534  5a   000002 400003
    012535  55   000006 000011
    012536  aa  012 143 157 142
    012537  aa  157 154 137 144
    012540  aa  144 163 164 000
    012541  55   000017 000003
    012542  0a   012525 500000
    012543  55   000014 000003
    012544  aa  012 143 157 142         cobol_ddst
    012545  aa  157 154 137 144
    012546  aa  144 163 164 000
    012547  55   000002 000011
    012550  6a   000000 400002
    012551  55   000022 000003
    012552  aa  014 163 171 155         symbol_table
    012553  aa  142 157 154 137
    012554  aa  164 141 142 154
    012555  aa  145 000 000 000

DEFINITIONS HASH TABLE

    012556  aa   000000 000015
    012557  aa   000000 000000
    012560  aa   000000 000000
    012561  aa   000000 000000
    012562  aa   000000 000000
    012563  aa   000000 000000
    012564  aa   000000 000000
    012565  5a   000017 000000
    012566  aa   000000 000000
    012567  aa   000000 000000
    012570  aa   000000 000000
    012571  5a   000011 000000
    012572  aa   000000 000000
    012573  aa   000000 000000

NO EXTERNAL NAMES

NO TRAP POINTER WORDS

TYPE PAIR BLOCKS

    012574  aa   000001 000000
    012575  aa   000000 000000

INTERNAL EXPRESSION WORDS

LINKAGE INFORMATION

    000000  aa   000000 000000
    000001  0a   012530 000000
    000002  aa   000000 000000
    000003  aa   000000 000000
    000004  aa   000000 000000
    000005  aa   000000 000000
    000006  22   000010 000010
    000007  a2   000000 000000
SYMBOL INFORMATION

SYMBOL TABLE HEADER

    000000  aa   000000 000001
    000001  aa   163171 155142
    000002  aa   164162 145145
    000003  aa   000000 000010
    000004  aa   000000 116606
    000005  aa   116110 132154
    000006  aa   000000 117220
    000007  aa   245475 122006
    000010  aa   141154 155040
    000011  aa   040040 040040
    000012  aa   000024 000040
    000013  aa   000034 000040
    000014  aa   000044 000100
    000015  aa   000002 000002
    000016  aa   000064 000000
    000017  aa   000000 000606
    000020  aa   000000 000104
    000021  aa   000571 000566
    000022  aa   000600 000104
    000023  aa   000064 000000
    000024  aa   101114 115040
    000025  aa   126145 162163
    000026  aa   151157 156040
    000027  aa   070056 061063
    000030  aa   040123 145160
    000031  aa   164145 155142
    000032  aa   145162 040061
    000033  aa   071070 070040
    000034  aa   110151 162156
    000035  aa   145151 163145
    000036  aa   156056 123171
    000037  aa   163115 141151
    000040  aa   156164 056141
    000041  aa   040040 040040
    000042  aa   040040 040040
    000043  aa   040040 040040
    000044  aa   055164 141162
    000045  aa   147145 164040
    000046  aa   154066 070040
    000047  aa   040040 040040
    000050  aa   040040 040040
    000051  aa   040040 040040
    000052  aa   040040 040040
    000053  aa   040040 040040
    000054  aa   040040 040040
    000055  aa   040040 040040
    000056  aa   040154 151163
    000057  aa   164040 163171
    000060  aa   155142 157154
    000061  aa   163040 040040
    000062  aa   040040 040040
    000063  aa   040040 040040
    000064  aa   000000 000001
    000065  aa   000000 000001
    000066  aa   000072 000050
    000067  aa   172113 321325
    000070  aa   000000 117220
    000071  aa   217256 000000
    000072  aa   076163 160145          >spec>install>MR12.3-1048>cobol_ddst.alm
    000073  aa   143076 151156
    000074  aa   163164 141154
    000075  aa   154076 115122
    000076  aa   061062 056063
    000077  aa   055061 060064
    000100  aa   070076 143157
    000101  aa   142157 154137
    000102  aa   144144 163164
    000103  aa   056141 154155
               MULTICS ASSEMBLY CROSS REFERENCE LISTING

   Value        Symbol                   Source file   Line number

        3124    a67                      cobol_ddst:   344,  345,  346,  353.
        3220    a68                      cobol_ddst:   356,  357,  358,  365.
         740    apre01dd                 cobol_ddst:   120,  122,  125.
         567    apre77                   cobol_ddst:   104,  113,  114.
         726    av01                     cobol_ddst:   118,  119,  123.
         675    avant01dd                cobol_ddst:   118,  141,  142,  143,  148.
           1    a_0                      cobol_ddst:  1221.
           2    a_1                      cobol_ddst:    82,  109,  138,  155,  156,  163,  169,  172,  372,  400,  401,  402,
                                                       595,  600,  797, 1222.
          66    a_10                     cobol_ddst:    79,   80, 1223.
         273    a_100                    cobol_ddst:   491, 1224.
         274    a_101                    cobol_ddst:   641, 1225.
         275    a_102                    cobol_ddst:   666, 1226.
         276    a_103                    cobol_ddst:   665, 1227.
         277    a_104                    cobol_ddst:   506, 1228.
         300    a_105                    cobol_ddst:   508, 1229.
         301    a_106                    cobol_ddst:   512, 1230.
         302    a_107                    cobol_ddst:   531, 1231.
         303    a_108                    cobol_ddst:   552, 1232.
         304    a_109                    cobol_ddst:   561, 1233.
          67    a_11                     cobol_ddst:   200, 1234.
         305    a_110                    cobol_ddst:   607, 1235.
         306    a_111                    cobol_ddst:   615, 1236.
         307    a_112                    cobol_ddst:   629, 1237.
           0    a_113                    cobol_ddst:  1238.
         311    a_114                    cobol_ddst:   514, 1239.
         312    a_115                    cobol_ddst:   517, 1240.
         313    a_116                    cobol_ddst:   518,  519, 1241.
         314    a_117                    cobol_ddst:   527, 1242.
         315    a_118                    cobol_ddst:   657, 1243.
         316    a_119                    cobol_ddst:   656, 1244.
           7    a_12                     cobol_ddst:    88,   95,  141,  148,  374,  463,  488,  891, 1245.
         317    a_120                    cobol_ddst:   533, 1044, 1246.
         320    a_121                    cobol_ddst:   651, 1247.
         321    a_122                    cobol_ddst:   543, 1248.
         322    a_123                    cobol_ddst:   555, 1249.
         323    a_124                    cobol_ddst:   554, 1250.
         324    a_125                    cobol_ddst:  1251.
         325    a_126                    cobol_ddst:   569, 1252.
         326    a_127                    cobol_ddst:   567, 1253.
         327    a_128                    cobol_ddst:   601, 1254.
         330    a_129                    cobol_ddst:   609,  611, 1255.
          70    a_13                     cobol_ddst:    90,   97,  143,  465,  490,  893, 1256.
         331    a_130                    cobol_ddst:   617,  619, 1257.
         332    a_131                    cobol_ddst:   632, 1258.
         333    a_132                    cobol_ddst:   631, 1259.
         334    a_133                    cobol_ddst:   650, 1260.
         335    a_134                    cobol_ddst:  1261.
         336    a_135                    cobol_ddst:   225,  347,  359, 1262.
          17    a_136                    cobol_ddst:   125, 1263.
         337    a_137                    cobol_ddst:   318, 1264.
         340    a_138                    cobol_ddst:    35,   36,   37,   38, 1265.
         341    a_139                    cobol_ddst:   328, 1266.
          10    a_14                     cobol_ddst:    89,   96,  142,  464,  489,  892, 1267.
         342    a_140                    cobol_ddst:   848, 1268.
         343    a_141                    cobol_ddst:   852,  887,  900, 1269.
         344    a_142                    cobol_ddst:   855, 1270.
         345    a_143                    cobol_ddst:   858, 1271.
         346    a_144                    cobol_ddst:   864, 1272.
         347    a_145                    cobol_ddst:   862, 1273.
         350    a_146                    cobol_ddst:   869,  870, 1274.
         351    a_147                    cobol_ddst:   883, 1275.
         352    a_148                    cobol_ddst:   884, 1276.
         353    a_149                    cobol_ddst:   872,  873,  885, 1277.
          71    a_15                     cobol_ddst:    94, 1278.
         354    a_150                    cobol_ddst:   914, 1007, 1279.
         355    a_151                    cobol_ddst:   920, 1043, 1280.
         356    a_152                    cobol_ddst:   926, 1035, 1281.
         357    a_153                    cobol_ddst:   932, 1027, 1282.
         360    a_154                    cobol_ddst:   948, 1001, 1283.
         361    a_155                    cobol_ddst:   954, 1284.
         362    a_156                    cobol_ddst:   938, 1285.
         363    a_157                    cobol_ddst:   968, 1286.
         364    a_158                    cobol_ddst:   976, 1287.
         365    a_159                    cobol_ddst:   984, 1288.
          72    a_16                     cobol_ddst:   102, 1289.
         366    a_160                    cobol_ddst:   960, 1290.
         367    a_161                    cobol_ddst:   988,  989, 1291.
         370    a_162                    cobol_ddst:  1013, 1292.
         371    a_163                    cobol_ddst:  1016, 1293.
         372    a_164                    cobol_ddst:  1019, 1294.
         373    a_165                    cobol_ddst:   320, 1295.
         374    a_166                    cobol_ddst:   329, 1296.
         144    a_167                    cobol_ddst:   202, 1297.
          22    a_168                    cobol_ddst:    45,   63,   74,  480, 1298.
          23    a_169                    cobol_ddst:   164, 1299.
          11    a_17                     cobol_ddst:   104,  108,  137,  139,  144,  153, 1300.
          24    a_170                    cobol_ddst:   161, 1301.
          12    a_18                     cobol_ddst:   120,  121,  167,  377, 1302.
          73    a_19                     cobol_ddst:   107,  131,  371,  777, 1303.
           3    a_2                      cobol_ddst:   170,  597,  602,  726,  733,  755,  776,  790,  814, 1304.
          13    a_20                     cobol_ddst:   117,  483, 1305.
          14    a_21                     cobol_ddst:   126,  127,  129,  130,  132,  136, 1306.
          15    a_22                     cobol_ddst:   183, 1307.
          16    a_23                     cobol_ddst:   186, 1308.
          74    a_24                     cobol_ddst:   188, 1309.
          75    a_25                     cobol_ddst:   193, 1310.
          76    a_26                     cobol_ddst:   194, 1311.
          77    a_27                     cobol_ddst:   195, 1312.
         100    a_28                     cobol_ddst:   196, 1313.
         101    a_29                     cobol_ddst:   197, 1314.
         143    a_3                      cobol_ddst:    31, 1315.
         102    a_30                     cobol_ddst:   198, 1316.
         103    a_31                     cobol_ddst:   201, 1317.
         104    a_32                     cobol_ddst:   203, 1318.
         105    a_33                     cobol_ddst:   217, 1319.
         106    a_34                     cobol_ddst:   222, 1320.
         107    a_35                     cobol_ddst:   223,  228, 1321.
         110    a_36                     cobol_ddst:   224,  229, 1322.
         111    a_37                     cobol_ddst:   199, 1323.
         112    a_38                     cobol_ddst:   245, 1324.
         113    a_39                     cobol_ddst:   262, 1325.
           4    a_4                      cobol_ddst:    32,  171,  432,  478,  686,  703,  704,  871,  987, 1326.
         114    a_40                     cobol_ddst:   256, 1327.
         115    a_41                     cobol_ddst:   261, 1328.
         116    a_42                     cobol_ddst:   255, 1329.
         117    a_43                     cobol_ddst:   265,  267, 1330.
         120    a_44                     cobol_ddst:   266, 1331.
         121    a_45                     cobol_ddst:   274,  276, 1332.
         122    a_46                     cobol_ddst:   275, 1333.
         123    a_47                     cobol_ddst:   281, 1334.
         124    a_48                     cobol_ddst:   289, 1335.
         125    a_49                     cobol_ddst:   291, 1336.
          62    a_5                      cobol_ddst:    49, 1337.
         126    a_50                     cobol_ddst:   298, 1338.
         127    a_51                     cobol_ddst:   306, 1339.
         130    a_52                     cobol_ddst:   303, 1340.
         131    a_53                     cobol_ddst:   315, 1341.
         132    a_54                     cobol_ddst:   316, 1342.
         133    a_55                     cobol_ddst:   323,  327, 1343.
         134    a_56                     cobol_ddst:   331, 1344.
         135    a_57                     cobol_ddst:   334,  336, 1345.
         136    a_58                     cobol_ddst:  1346.
         137    a_59                     cobol_ddst:   419, 1347.
          63    a_6                      cobol_ddst:    51,   52, 1348.
         140    a_60                     cobol_ddst:   420, 1349.
         141    a_61                     cobol_ddst:   422, 1350.
         142    a_62                     cobol_ddst:   421,  425,  426,  431,  846,  847,  895, 1351.
         226    a_63                     cobol_ddst:   339, 1352.
         227    a_64                     cobol_ddst:   344,  356, 1353.
         230    a_65                     cobol_ddst:   345,  350,  357,  362, 1354.
         231    a_66                     cobol_ddst:   346,  351,  358,  363, 1355.
         232    a_67                     cobol_ddst:   353, 1356.
         233    a_68                     cobol_ddst:   355,  368, 1357.
         234    a_69                     cobol_ddst:  1358.
          64    a_7                      cobol_ddst:    66,   67, 1359.
         235    a_70                     cobol_ddst:   354,  367,  459,  460, 1360.
         236    a_71                     cobol_ddst:   376, 1361.
         237    a_72                     cobol_ddst:   380,  389, 1362.
         240    a_73                     cobol_ddst:   313,  385,  394, 1363.
         241    a_74                     cobol_ddst:   135,  396, 1364.
         242    a_75                     cobol_ddst:   406, 1365.
         243    a_76                     cobol_ddst:   397,  398, 1366.
           5    a_77                     cobol_ddst:   157, 1367.
         375    a_78                     cobol_ddst:   859, 1368.
         246    a_79                     cobol_ddst:   429,  430, 1369.
           6    a_8                      cobol_ddst:    87,   93,  140,  145,  154,  399,  461,  487,  792,  866,  888,  899, 1370.
         247    a_80                     cobol_ddst:   433,  471,  694,  715, 1371.
         250    a_81                     cobol_ddst:   435,  436,  437, 1372.
          20    a_82                     cobol_ddst:   438,  520,  571,  621,  668, 1373.
          21    a_83                     cobol_ddst:   297,  443, 1374.
          25    a_84                     cobol_ddst:   101,  122,  162,  173,  445,  447, 1375.
           0    a_85                     cobol_ddst:   446, 1376.
         255    a_86                     cobol_ddst:   451, 1377.
         256    a_87                     cobol_ddst:   454,  455, 1378.
         257    a_88                     cobol_ddst:   456, 1379.
           0    a_89                     cobol_ddst:  1380.
          65    a_9                      cobol_ddst:    77,   78, 1381.
         261    a_90                     cobol_ddst:   462,  889, 1382.
         262    a_91                     cobol_ddst:   894, 1383.
           0    a_92                     cobol_ddst:  1384.
           0    a_93                     cobol_ddst:  1385.
         265    a_94                     cobol_ddst:   476, 1386.
         266    a_95                     cobol_ddst:   474, 1387.
         267    a_96                     cobol_ddst:   541, 1388.
           0    a_97                     cobol_ddst:  1389.
           0    a_98                     cobol_ddst:  1390.
         272    a_99                     cobol_ddst:   479, 1391.
        4610    bcrd                     cobol_ddst:   517,  527.
        2354    blank                    cobol_ddst:   179,  281.
        3244    c46                      cobol_ddst:   354,  369.
       10131    cd01                     cobol_ddst:   866,  868,  986.
       10326    cd01rd                   cobol_ddst:   866,  891,  899.
       10162    cdclaus                  cobol_ddst:   831,  871,  914,  915,  920,  921,  926,  927,  932,  933,  938,  939,
                                                       948,  949,  954,  955,  960,  961,  968,  969,  976,  977,  984,  985.
       10256    cdidn                    cobol_ddst:   869,  870,  883,  884.
       10143    cdinput                  cobol_ddst:   864,  868.
        2570    cdnof                    cobol_ddst:   309,  313.
        2602    cdnof1                   cobol_ddst:   311.
       11406    cdodc                    cobol_ddst:   995, 1003.
       11456    cdodt                    cobol_ddst:   996, 1011.
       11266    cdopclaus                cobol_ddst:   840,  987, 1001, 1002, 1007, 1008, 1017, 1020, 1027, 1028, 1035, 1036,
                                                      1043, 1044.
       11261    cdoutput                 cobol_ddst:   858,  986.
       10117    ckin                     cobol_ddst:   860,  864.
         555    cl77                     cobol_ddst:    98,  102.
        7746    cms                      cobol_ddst:    38,  843.
        7753    cmsc                     cobol_ddst:   844.
         226    cns                      cobol_ddst:    36,   59.
           0    cobol_ddst               cobol_ddst:    18,   19,   20.
        1034    consisck                 cobol_ddst:   127,  129,  130,  137.
       11033    count                    cobol_ddst:   879,  942,  956.
           1    c_1                      cobol_ddst:    32, 1121.
         144    c_100                    cobol_ddst:  1122.
          14    c_12                     cobol_ddst:    98,  118,  171,  722,  743,  803, 1123.
          20    c_16                     cobol_ddst:   642, 1124.
          22    c_18                     cobol_ddst:   183, 1125.
          23    c_19                     cobol_ddst:   186, 1126.
           2    c_2                      cobol_ddst:    47,  427, 1127.
          24    c_20                     cobol_ddst:   188, 1128.
          25    c_21                     cobol_ddst:   205, 1129.
          26    c_22                     cobol_ddst:   217, 1130.
          32    c_26                     cobol_ddst:   219,  268,  277, 1131.
          33    c_27                     cobol_ddst:   245, 1132.
          34    c_28                     cobol_ddst:   247, 1133.
          35    c_29                     cobol_ddst:   257, 1134.
           3    c_3                      cobol_ddst:    49, 1135.
          36    c_30                     cobol_ddst:   263, 1136.
          37    c_31                     cobol_ddst:   207,  270,  279, 1137.
          40    c_32                     cobol_ddst:   272, 1138.
          41    c_33                     cobol_ddst:  1139.
          42    c_34                     cobol_ddst:   287, 1140.
          43    c_35                     cobol_ddst:   289, 1141.
          45    c_37                     cobol_ddst:   295, 1142.
          46    c_38                     cobol_ddst:   300, 1143.
          47    c_39                     cobol_ddst:   311, 1144.
           4    c_4                      cobol_ddst:    64, 1145.
          50    c_40                     cobol_ddst:   663, 1146.
          51    c_41                     cobol_ddst:   654, 1147.
          52    c_42                     cobol_ddst:   331, 1148.
          53    c_43                     cobol_ddst:  1149.
          54    c_44                     cobol_ddst:   215, 1150.
          55    c_45                     cobol_ddst:   365, 1151.
          56    c_46                     cobol_ddst:   369, 1152.
          57    c_47                     cobol_ddst:   404, 1153.
          61    c_49                     cobol_ddst:   648, 1154.
           5    c_5                      cobol_ddst:    66, 1155.
          66    c_54                     cobol_ddst:   429, 1156.
          67    c_55                     cobol_ddst:   127,  432,  470,  679,  688,  699,  709,  717,  737,  795, 1157.
          70    c_56                     cobol_ddst:   476, 1158.
          71    c_57                     cobol_ddst:   402, 1159.
          72    c_58                     cobol_ddst:   484, 1160.
          73    c_59                     cobol_ddst:  1161.
           6    c_6                      cobol_ddst:    75, 1162.
          74    c_60                     cobol_ddst:  1163.
          75    c_61                     cobol_ddst:   478,  706, 1164.
          76    c_62                     cobol_ddst:    82,  109,  129,  400,  433,  471,  682,  690,  700,  710,  718,  723,
                                                       730,  739,  746,  759,  767,  781,  793,  806,  821,  829,  838,  889,
                                                       901, 1165.
         101    c_65                     cobol_ddst:   506, 1166.
         102    c_66                     cobol_ddst:   512, 1167.
         103    c_67                     cobol_ddst:   531, 1168.
         104    c_68                     cobol_ddst:   552, 1169.
         105    c_69                     cobol_ddst:   561, 1170.
           7    c_7                      cobol_ddst:    77, 1171.
         106    c_70                     cobol_ddst:   607, 1172.
         107    c_71                     cobol_ddst:   615, 1173.
         110    c_72                     cobol_ddst:   629, 1174.
         112    c_74                     cobol_ddst:    46, 1175.
         113    c_75                     cobol_ddst:   210, 1176.
         114    c_76                     cobol_ddst:   208, 1177.
         115    c_77                     cobol_ddst:   133, 1178.
         120    c_80                     cobol_ddst:   850, 1179.
         121    c_81                     cobol_ddst:   848, 1180.
         122    c_82                     cobol_ddst:   862, 1181.
         123    c_83                     cobol_ddst:   826,  871, 1182.
         124    c_84                     cobol_ddst:   897, 1183.
         125    c_85                     cobol_ddst:   914, 1007, 1184.
         126    c_86                     cobol_ddst:   960, 1185.
         127    c_87                     cobol_ddst:   920, 1043, 1186.
         130    c_88                     cobol_ddst:   926, 1035, 1187.
         131    c_89                     cobol_ddst:   932, 1027, 1188.
         132    c_90                     cobol_ddst:   938, 1189.
         133    c_91                     cobol_ddst:   948, 1001, 1190.
         134    c_92                     cobol_ddst:   954, 1191.
         135    c_93                     cobol_ddst:   968, 1192.
         136    c_94                     cobol_ddst:   976, 1193.
         137    c_95                     cobol_ddst:   984, 1194.
         140    c_96                     cobol_ddst:   835,  987, 1195.
         141    c_97                     cobol_ddst:  1196.
         142    c_98                     cobol_ddst:  1197.
         143    c_99                     cobol_ddst:  1198.
          62    c_all                    cobol_ddst:   568,  588, 1199.
          15    c_codeset                cobol_ddst:   676, 1200.
          65    c_dup_type8              cobol_ddst:   146, 1201.
          31    c_figcon                 cobol_ddst:   224,  229,  237,  242,  346,  351,  358,  363, 1202.
          10    c_int                    cobol_ddst:    81,  291,  298,  443,  451,  456,  514,  527,  533,  543,  631,  650,
                                                       656,  665,  745,  766,  780,  805, 1013, 1203.
          44    c_labnam                 cobol_ddst:   563,  580, 1204.
          60    c_labval                 cobol_ddst:   569,  589, 1205.
          12    c_lev01                  cobol_ddst:    85,  106,  401,  461,  468,  483,  681,  689,  698,  708,  729,  736,
                                                       750,  758,  771,  784,  794,  809,  820,  866,  888,  899, 1206.
          63    c_lev0177                cobol_ddst:   104,  130, 1207.
          21    c_lev0249                cobol_ddst:   126,  735,  748,  770,  785,  808, 1208.
          17    c_lev66                  cobol_ddst:   752,  773,  783,  812, 1209.
          77    c_lev66s                 cobol_ddst:   110,  132,  399, 1210.
          11    c_lev77                  cobol_ddst:    84,  105,  680,  728,  749,  757,  772,  786,  810, 1211.
          16    c_lev88                  cobol_ddst:   751,  769,  787,  811, 1212.
         100    c_lev88s                 cobol_ddst:   107,  131,  371, 1213.
          64    c_lrc                    cobol_ddst:   481, 1214.
         111    c_per_ck                 cobol_ddst:   479, 1215.
         116    c_renames                cobol_ddst:  1216.
         117    c_test_like              cobol_ddst:  1217.
          27    c_type2                  cobol_ddst:   222,  230,  235,  243,  344,  356, 1218.
          30    c_type3                  cobol_ddst:   223,  228,  236,  241,  345,  350,  357,  362, 1219.
          13    c_type8                  cobol_ddst:    88,   95,  141,  157,  164,  307,  313,  323,  327,  329,  334,  336,
                                                       339,  374,  380,  385,  389,  394,  406,  412,  417,  438,  463,  474,
                                                       488,  508,  541,  564,  567,  581,  587,  596,  601,  609,  611,  617,
                                                       619,  632,  651,  657,  666,  855,  869,  883,  891,  911,  917,  923,
                                                       929,  935,  945,  951,  957,  965,  973,  981,  998, 1004, 1019, 1024,
                                                      1032, 1040, 1220.
         404    databody                 cobol_ddst:    51,   57,   68,   79,   81,   91,   92,  763.
        1255    ddclauses                cobol_ddst:   102,  123,  166.
        1306    ddcls_1                  cobol_ddst:   169,  171,  186,  210,  211,  232,  235,  236,  237,  241,  242,  259,
                                                       260,  270,  271,  279,  280,  286,  318,  410,  416,  725,  754,  817.
        3650    ddend                    cobol_ddst:   419,  421.
       11336    destin                   cobol_ddst:   993,  995.
         663    di66                     cobol_ddst:   116.
       11350    diso                     cobol_ddst:   997, 1009.
        2614    dodn2                    cobol_ddst:   309,  310,  313.
       11141    end                      cobol_ddst:   877,  970.
        3232    end88                    cobol_ddst:   367,  775.
        4146    endsa                    cobol_ddst:   449,  454,  455,  459.
        3275    entry66                  cobol_ddst:   155,  374,  792.
         500    entry77                  cobol_ddst:    84,   93,  105.
        3016    entry88                  cobol_ddst:   113,  150,  339,  777.
        3643    eop                      cobol_ddst:    41,  420.
       11540    error                    cobol_ddst:   991, 1021.
       11735    failure                  cobol_ddst:   158,  165,  170,  597,  602,  726,  733,  755,  776,  790,  814, 1046.
        4261    fd                       cobol_ddst:   435,  474.
        4336    fd01                     cobol_ddst:   483,  492,  493,  692,  713.
        4545    fdbc                     cobol_ddst:   495,  510.
        4305    fdclauses                cobol_ddst:   478,  508,  517,  518,  519,  538,  541,  542,  554,  555,  557,  582,
                                                       612,  620,  642,  643,  676,  712.
        6173    fdcs                     cobol_ddst:   502,  668.
        5466    fddr                     cobol_ddst:   500,  603.
        5620    fdli                     cobol_ddst:   501,  621.
        5024    fdlr                     cobol_ddst:   497,  545.
        5062    fdlr1                    cobol_ddst:   546,  551.
        5067    fdlr2                    cobol_ddst:   549,  550,  552.
        4704    fdrc                     cobol_ddst:   496,  529.
        5550    fdri                     cobol_ddst:   499,  613.
        4502    fdrm                     cobol_ddst:   494,  503.
        5125    fdvo                     cobol_ddst:   498,  558.
        5175    fdvo1                    cobol_ddst:   566,  580.
        5303    fdvo2                    cobol_ddst:   569,  580,  589,  591.
        5226    fdvo3                    cobol_ddst:   567,  571.
        5322    fdvo4                    cobol_ddst:   564,  583.
        5372    fdvo5                    cobol_ddst:   587,  591.
        4362    file01rcd                cobol_ddst:   483,  487.
        3662    fs                       cobol_ddst:    34,  423.
        3732    fsindjump                cobol_ddst:   431,  470,  486,  693,  714.
        3706    fsps                     cobol_ddst:   427,  684.
        2001    igval                    cobol_ddst:   220,  234.
        2746    indby                    cobol_ddst:   317,  331.
           1    i_c                      cobol_ddst:    24,   32,   46,   47,   49,   64,   66,   75,   77,   81,   82,   84,
                                                        85,   88,   95,   98,  104,  105,  106,  107,  109,  110,  118,  126,
                                                       127,  129,  130,  131,  132,  133,  141,  146,  157,  164,  171,  183,
                                                       186,  188,  205,  207,  208,  210,  215,  217,  219,  222,  223,  224,
                                                       228,  229,  230,  235,  236,  237,  241,  242,  243,  245,  247,  257,
                                                       263,  268,  270,  272,  277,  279,  287,  289,  291,  295,  298,  300,
                                                       307,  311,  313,  323,  327,  329,  331,  334,  336,  339,  344,  345,
                                                       346,  350,  351,  356,  357,  358,  362,  363,  365,  369,  371,  374,
                                                       380,  385,  389,  394,  399,  400,  401,  402,  404,  406,  412,  417,
                                                       427,  429,  432,  433,  438,  443,  451,  456,  461,  463,  468,  469,
                                                       470,  471,  474,  476,  478,  479,  481,  483,  484,  488,  506,  508,
                                                       512,  514,  527,  531,  533,  541,  543,  552,  561,  563,  564,  567,
                                                       568,  569,  580,  581,  587,  588,  589,  596,  601,  607,  609,  611,
                                                       615,  617,  619,  629,  631,  632,  642,  648,  650,  651,  654,  656,
                                                       657,  663,  665,  666,  676,  679,  680,  681,  682,  688,  689,  690,
                                                       698,  699,  700,  706,  708,  709,  710,  717,  718,  722,  723,  728,
                                                       729,  730,  735,  736,  737,  739,  743,  745,  746,  748,  749,  750,
                                                       751,  752,  757,  758,  759,  766,  767,  769,  770,  771,  772,  773,
                                                       780,  781,  783,  784,  785,  786,  787,  793,  794,  795,  803,  805,
                                                       806,  808,  809,  810,  811,  812,  820,  821,  826,  829,  835,  838,
                                                       848,  850,  855,  862,  866,  869,  871,  883,  888,  889,  891,  897,
                                                       899,  901,  911,  914,  917,  920,  923,  926,  929,  932,  935,  938,
                                                       945,  948,  951,  954,  957,  960,  965,  968,  973,  976,  981,  984,
                                                       987,  998, 1001, 1004, 1007, 1013, 1019, 1024, 1027, 1032, 1035, 1040, 1043.
           5    i_K                      cobol_ddst:    28.
           4    i_k                      cobol_ddst:    27.
           2    i_n                      cobol_ddst:    26,   31,   33,   34,   35,   36,   37,   38,   39,   40,   41,   43,
                                                        45,   48,   50,   52,   54,   56,   58,   59,   61,   63,   65,   67,
                                                        69,   70,   72,   74,   76,   78,   80,   83,   86,   87,   90,   92,
                                                        93,   94,   97,  100,  101,  103,  108,  111,  112,  114,  115,  116,
                                                       117,  121,  122,  124,  125,  134,  135,  136,  137,  138,  139,  140,
                                                       143,  144,  145,  147,  148,  149,  151,  152,  153,  154,  156,  158,
                                                       162,  163,  165,  167,  170,  173,  174,  175,  176,  177,  178,  179,
                                                       180,  181,  182,  184,  187,  189,  191,  204,  206,  209,  211,  212,
                                                       213,  214,  216,  218,  220,  226,  227,  231,  232,  233,  239,  240,
                                                       244,  246,  248,  250,  254,  256,  258,  260,  262,  264,  267,  269,
                                                       271,  273,  276,  278,  280,  281,  282,  285,  286,  288,  290,  292,
                                                       296,  297,  299,  301,  304,  306,  308,  312,  314,  318,  319,  320,
                                                       324,  328,  330,  332,  335,  337,  338,  340,  342,  348,  349,  352,
                                                       355,  360,  361,  364,  366,  368,  370,  372,  373,  375,  376,  377,
                                                       379,  381,  384,  388,  390,  393,  395,  396,  398,  403,  405,  407,
                                                       410,  411,  413,  416,  418,  419,  421,  422,  424,  426,  428,  430,
                                                       431,  434,  435,  436,  437,  439,  441,  444,  447,  449,  452,  455,
                                                       457,  460,  462,  465,  467,  472,  473,  475,  477,  480,  482,  485,
                                                       486,  487,  490,  491,  493,  494,  495,  496,  497,  498,  499,  500,
                                                       501,  502,  503,  507,  509,  510,  513,  515,  519,  520,  521,  522,
                                                       523,  524,  525,  526,  528,  529,  532,  534,  538,  539,  542,  544,
                                                       545,  548,  550,  553,  556,  557,  558,  560,  562,  565,  570,  571,
                                                       572,  573,  574,  575,  576,  577,  579,  582,  583,  585,  590,  592,
                                                       595,  597,  600,  602,  603,  608,  610,  612,  613,  616,  618,  620,
                                                       621,  622,  623,  624,  625,  626,  627,  630,  633,  641,  643,  647,
                                                       649,  653,  655,  659,  661,  664,  667,  668,  669,  670,  671,  672,
                                                       673,  674,  677,  678,  683,  684,  685,  686,  687,  691,  692,  693,
                                                       694,  695,  696,  701,  702,  703,  704,  705,  711,  712,  713,  714,
                                                       715,  716,  719,  720,  724,  725,  726,  727,  731,  732,  733,  734,
                                                       740,  741,  742,  747,  753,  754,  755,  756,  760,  761,  762,  763,
                                                       764,  768,  774,  775,  776,  777,  778,  782,  788,  789,  790,  791,
                                                       792,  796,  797,  798,  807,  813,  814,  815,  816,  817,  818,  822,
                                                       823,  824,  825,  830,  831,  832,  833,  834,  839,  840,  841,  842,
                                                       843,  845,  847,  849,  851,  853,  854,  856,  860,  861,  863,  865,
                                                       867,  873,  874,  875,  876,  877,  878,  879,  880,  881,  882,  886,
                                                       890,  893,  894,  896,  898,  902,  909,  913,  915,  919,  921,  925,
                                                       927,  931,  933,  937,  939,  943,  947,  949,  953,  955,  959,  961,
                                                       963,  967,  969,  971,  975,  977,  979,  983,  985,  989,  990,  991,
                                                       992,  993,  994, 1000, 1002, 1006, 1008, 1010, 1012, 1014, 1017, 1020,
                                                      1022, 1026, 1028, 1030, 1034, 1036, 1038, 1042, 1044, 1045, 1046, 1047.
           0    i_r                      cobol_ddst:    23,   30,   42,   44,   53,   55,   60,   62,   71,   73,   89,   96,
                                                        99,  119,  120,  128,  142,  159,  160,  161,  166,  168,  172,  185,
                                                       190,  192,  193,  194,  195,  196,  197,  198,  199,  200,  201,  202,
                                                       203,  221,  225,  234,  238,  249,  251,  252,  253,  255,  259,  261,
                                                       265,  266,  274,  275,  283,  284,  293,  294,  302,  303,  305,  309,
                                                       310,  315,  316,  317,  321,  322,  325,  326,  333,  341,  343,  347,
                                                       353,  354,  359,  367,  378,  382,  383,  386,  387,  391,  392,  397,
                                                       408,  409,  414,  415,  420,  423,  425,  440,  442,  445,  446,  448,
                                                       450,  453,  454,  458,  459,  464,  489,  504,  505,  511,  516,  517,
                                                       518,  530,  535,  536,  537,  540,  546,  547,  549,  551,  554,  555,
                                                       559,  566,  586,  593,  594,  598,  599,  604,  605,  606,  614,  628,
                                                       634,  635,  636,  637,  638,  639,  640,  644,  645,  646,  652,  658,
                                                       660,  662,  675,  697,  707,  721,  738,  744,  765,  779,  799,  800,
                                                       801,  802,  804,  819,  827,  828,  836,  837,  844,  846,  852,  857,
                                                       858,  859,  864,  868,  870,  872,  884,  885,  887,  892,  900,  903,
                                                       904,  905,  906,  907,  908,  910,  912,  916,  918,  922,  924,  928,
                                                       930,  934,  936,  940,  941,  942,  944,  946,  950,  952,  956,  958,
                                                       962,  964,  966,  970,  972,  974,  978,  980,  982,  986,  988,  995,
                                                       996,  997,  999, 1003, 1005, 1009, 1011, 1015, 1016, 1018, 1021, 1023,
                                                      1025, 1029, 1031, 1033, 1037, 1039, 1041, 1048, 1049, 1050, 1051, 1052,
                                                      1053, 1054, 1055, 1056, 1057, 1058, 1059, 1060, 1061, 1062, 1063, 1064,
                                                      1065, 1066, 1067, 1068, 1069, 1070, 1071, 1072, 1073, 1074, 1075, 1076,
                                                      1077, 1078, 1079, 1080, 1081, 1082, 1083, 1084, 1085, 1086, 1087, 1088,
                                                      1089, 1090, 1091, 1092, 1093, 1094, 1095, 1096, 1097, 1098, 1099, 1100,
                                                      1101, 1102, 1103, 1104, 1105, 1106, 1107, 1108, 1109, 1110, 1111, 1112,
                                                      1113, 1114, 1115, 1116, 1117, 1118, 1119, 1120.
           3    i_s                      cobol_ddst:    25,   51,   57,   68,   79,   91,  102,  113,  123,  150,  155,  169,
                                                       466,  492,  578,  584,  591,  895.
          31    jumpbase0                cobol_ddst:    34,  686,  704.
        3756    jumpbase1                cobol_ddst:   435,  703.
        4425    jumpbase2                cobol_ddst:   478,  494.
        2277    just                     cobol_ddst:   176,  272.
        2710    knof                     cobol_ddst:   325,  327,  329.
         656    l66_1                    cobol_ddst:   110,  115.
        1147    l66_2                    cobol_ddst:   132,  152.
        3270    l66_3                    cobol_ddst:   373,  399.
         637    l88_1                    cobol_ddst:   107,  112.
        1130    l88_2                    cobol_ddst:   131,  149.
        3011    l88_3                    cobol_ddst:   338,  371.
        1200    like                     cobol_ddst:   157,  168.
        1212    like_1                   cobol_ddst:   159,  164.
        1243    like_2                   cobol_ddst:   159,  160,  164.
        3047    lit88                    cobol_ddst:   343,  344,  355,  368.
        6065    li_botm                  cobol_ddst:   640,  646,  654.
        6123    li_foot                  cobol_ddst:   636,  637,  660.
        6003    li_lines                 cobol_ddst:   635,  644.
        6010    li_linesx                cobol_ddst:   638,  645.
        5726    li_phrase                cobol_ddst:   635,  650,  651,  652,  656,  657,  658,  665,  666.
        6027    li_top                   cobol_ddst:   639,  645,  648.
         315    lks                      cobol_ddst:    37,   70.
          12    l_1                      cobol_ddst:    30,   31.
         202    l_10                     cobol_ddst:    53,   54,   55.
        2551    l_100                    cobol_ddst:   305,  306.
        2556    l_101                    cobol_ddst:   306,  307.
        2570    l_102                    cobol_ddst:   307,  309.
        2652    l_103                    cobol_ddst:   315,  316,  319.
        2657    l_104                    cobol_ddst:   319,  320.
        2664    l_105                    cobol_ddst:   320,  321.
        2671    l_106                    cobol_ddst:   321,  322.
        2676    l_107                    cobol_ddst:   322,  323.
        2710    l_108                    cobol_ddst:   323,  325.
        2734    l_109                    cobol_ddst:   325,  326,  329.
         214    l_11                     cobol_ddst:    55,   56,   57.
        2760    l_110                    cobol_ddst:   331,  333.
        2765    l_111                    cobol_ddst:   333,  334.
        2777    l_112                    cobol_ddst:   334,  336.
        3016    l_113                    cobol_ddst:   338,  339.
        3030    l_114                    cobol_ddst:   339,  341.
        3042    l_115                    cobol_ddst:   341,  343.
        3100    l_116                    cobol_ddst:   347,  349.
        3105    l_117                    cobol_ddst:   349,  350.
        3124    l_118                    cobol_ddst:   350,  351,  353.
        3143    l_119                    cobol_ddst:   353,  356.
         233    l_12                     cobol_ddst:    59,   60.
        3174    l_120                    cobol_ddst:   359,  361.
        3201    l_121                    cobol_ddst:   361,  362.
        3220    l_122                    cobol_ddst:   362,  363,  365.
        3232    l_123                    cobol_ddst:   365,  366,  367.
        3244    l_124                    cobol_ddst:   367,  369.
        3256    l_125                    cobol_ddst:   369,  370,  371.
        3275    l_126                    cobol_ddst:   373,  374.
        3307    l_127                    cobol_ddst:   374,  376.
        3314    l_128                    cobol_ddst:   376,  377.
        3321    l_129                    cobol_ddst:   377,  378.
         245    l_13                     cobol_ddst:    60,   61,   62.
        3333    l_130                    cobol_ddst:   378,  380.
        3345    l_131                    cobol_ddst:   380,  382.
        3364    l_132                    cobol_ddst:   382,  383,  385.
        3410    l_133                    cobol_ddst:   387,  388,  389.
        3422    l_134                    cobol_ddst:   389,  391.
        3441    l_135                    cobol_ddst:   391,  392,  394.
        3460    l_136                    cobol_ddst:   396,  397.
        3472    l_137                    cobol_ddst:   397,  398,  399.
        3535    l_138                    cobol_ddst:   404,  406.
        3547    l_139                    cobol_ddst:   406,  408.
         257    l_14                     cobol_ddst:    62,   63,   64.
        3566    l_140                    cobol_ddst:   408,  409,  411.
        3573    l_141                    cobol_ddst:   411,  412.
        3605    l_142                    cobol_ddst:   412,  414.
        3624    l_143                    cobol_ddst:   414,  415,  417.
        3650    l_144                    cobol_ddst:   420,  421.
        3655    l_145                    cobol_ddst:   421,  422.
        3674    l_146                    cobol_ddst:   423,  424,  425.
        3706    l_147                    cobol_ddst:   425,  426,  427.
        3720    l_148                    cobol_ddst:   427,  428,  429.
        3732    l_149                    cobol_ddst:   429,  430,  431.
         271    l_15                     cobol_ddst:    64,   65,   66.
        3737    l_150                    cobol_ddst:   431,  432.
        3756    l_151                    cobol_ddst:   432,  435.
        3775    l_152                    cobol_ddst:   437,  438.
        4007    l_153                    cobol_ddst:   438,  440.
        4021    l_154                    cobol_ddst:   440,  442.
        4026    l_155                    cobol_ddst:   442,  443.
        4040    l_156                    cobol_ddst:   443,  445.
        4057    l_157                    cobol_ddst:   445,  446,  447,  448.
        4071    l_158                    cobol_ddst:   448,  450.
        4076    l_159                    cobol_ddst:   450,  451.
         303    l_16                     cobol_ddst:    66,   67,   68.
        4110    l_160                    cobol_ddst:   451,  453.
        4127    l_161                    cobol_ddst:   453,  456.
        4141    l_162                    cobol_ddst:   456,  458.
        4146    l_163                    cobol_ddst:   458,  459.
        4160    l_164                    cobol_ddst:   459,  460,  461.
        4165    l_165                    cobol_ddst:   461,  462.
        4172    l_166                    cobol_ddst:   462,  463.
        4211    l_167                    cobol_ddst:   463,  464,  465,  466.
        4223    l_168                    cobol_ddst:   466,  467,  468.
        4235    l_169                    cobol_ddst:   470.
         322    l_17                     cobol_ddst:    70,   71.
        4261    l_170                    cobol_ddst:   473,  474.
        4273    l_171                    cobol_ddst:   474,  476.
        4305    l_172                    cobol_ddst:   476,  478.
        4324    l_173                    cobol_ddst:   479,  480,  481.
        4336    l_174                    cobol_ddst:   481,  482,  483.
        4355    l_175                    cobol_ddst:   484,  485,  486.
        4367    l_176                    cobol_ddst:   487,  488.
        4406    l_177                    cobol_ddst:   488,  489,  490,  491.
        4413    l_178                    cobol_ddst:   491,  492.
        4507    l_179                    cobol_ddst:   503,  504.
         334    l_18                     cobol_ddst:    71,   72,   73.
        4514    l_180                    cobol_ddst:   504,  505.
        4521    l_181                    cobol_ddst:   505,  506.
        4533    l_182                    cobol_ddst:   506,  508.
        4552    l_183                    cobol_ddst:   510,  511.
        4557    l_184                    cobol_ddst:   511,  512.
        4571    l_185                    cobol_ddst:   512,  514.
        4603    l_186                    cobol_ddst:   514,  516.
        4641    l_187                    cobol_ddst:   520,  522.
        4672    l_188                    cobol_ddst:   522,  523,  524,  526,  527.
        4711    l_189                    cobol_ddst:   529,  530.
         346    l_19                     cobol_ddst:    73,   74,   75.
        4716    l_190                    cobol_ddst:   530,  531.
        4730    l_191                    cobol_ddst:   531,  533.
        4742    l_192                    cobol_ddst:   533,  535.
        4754    l_193                    cobol_ddst:   536,  537.
        4766    l_194                    cobol_ddst:   537,  539.
        4773    l_195                    cobol_ddst:   539,  540.
        5000    l_196                    cobol_ddst:   540,  541.
        5031    l_197                    cobol_ddst:   545,  546.
        5050    l_198                    cobol_ddst:   547,  549.
        5067    l_199                    cobol_ddst:   551,  552.
          17    l_2                      cobol_ddst:    31,   32.
         360    l_20                     cobol_ddst:    75,   76,   77.
        5101    l_200                    cobol_ddst:   552,  554.
        5120    l_201                    cobol_ddst:   557.
        5132    l_202                    cobol_ddst:   558,  559.
        5144    l_203                    cobol_ddst:   559,  560,  561.
        5156    l_204                    cobol_ddst:   561,  563.
        5175    l_205                    cobol_ddst:   563,  566.
        5202    l_206                    cobol_ddst:   566,  567.
        5214    l_207                    cobol_ddst:   568,  569.
        5240    l_208                    cobol_ddst:   571,  573.
        5271    l_209                    cobol_ddst:   573,  574,  575,  576,  577,  578.
         372    l_21                     cobol_ddst:    77,   78,   79.
        5303    l_210                    cobol_ddst:   578,  580.
        5322    l_211                    cobol_ddst:   581,  583.
        5327    l_212                    cobol_ddst:   583,  584.
        5341    l_213                    cobol_ddst:   584,  586.
        5346    l_214                    cobol_ddst:   586,  587.
        5360    l_215                    cobol_ddst:   588,  589.
        5423    l_216                    cobol_ddst:   593,  594,  596.
        5454    l_217                    cobol_ddst:   598,  599,  601.
        5473    l_218                    cobol_ddst:   603,  604.
        5505    l_219                    cobol_ddst:   604,  605,  606.
         423    l_22                     cobol_ddst:    81,   84.
        5512    l_220                    cobol_ddst:   606,  607.
        5524    l_221                    cobol_ddst:   607,  609.
        5536    l_222                    cobol_ddst:   609,  611.
        5555    l_223                    cobol_ddst:   613,  614.
        5562    l_224                    cobol_ddst:   614,  615.
        5574    l_225                    cobol_ddst:   615,  617.
        5606    l_226                    cobol_ddst:   617,  619.
        5632    l_227                    cobol_ddst:   621,  623.
        5663    l_228                    cobol_ddst:   623,  628.
        5670    l_229                    cobol_ddst:   628,  629.
         447    l_23                     cobol_ddst:    87,   88.
        5702    l_230                    cobol_ddst:   629,  631.
        5721    l_231                    cobol_ddst:   631,  632,  634.
        5726    l_232                    cobol_ddst:   634,  635.
        5771    l_233                    cobol_ddst:   641,  642.
        6010    l_234                    cobol_ddst:   644,  645.
        6041    l_235                    cobol_ddst:   648,  649,  650.
        6077    l_236                    cobol_ddst:   654,  655,  656.
        6135    l_237                    cobol_ddst:   660,  662.
        6142    l_238                    cobol_ddst:   662,  663.
        6154    l_239                    cobol_ddst:   663,  664,  665.
         466    l_24                     cobol_ddst:    88,   89,   90,   91.
        6205    l_240                    cobol_ddst:   668,  670.
        6236    l_241                    cobol_ddst:   670,  671,  672,  674,  675.
        6243    l_242                    cobol_ddst:   675,  676.
        6262    l_243                    cobol_ddst:   678,  679.
        6313    l_244                    cobol_ddst:   679,  684.
        6337    l_245                    cobol_ddst:   687,  688.
        6363    l_246                    cobol_ddst:   689,  692.
        6407    l_247                    cobol_ddst:   695,  696.
        6414    l_248                    cobol_ddst:   696,  697,  701.
        6445    l_249                    cobol_ddst:   697,  698,  702.
         505    l_25                     cobol_ddst:    93,   94.
        6471    l_250                    cobol_ddst:   705,  706.
        6527    l_251                    cobol_ddst:   706,  707,  712.
        6560    l_252                    cobol_ddst:   716,  717.
        6604    l_253                    cobol_ddst:   720,  721.
        6630    l_254                    cobol_ddst:   722,  725.
        6647    l_255                    cobol_ddst:   727,  728.
        6673    l_256                    cobol_ddst:   728,  729,  732.
        6712    l_257                    cobol_ddst:   734,  735.
        6750    l_258                    cobol_ddst:   735,  736,  737,  738,  739,  741.
        6762    l_259                    cobol_ddst:   742,  743.
         512    l_26                     cobol_ddst:    94,   95.
        7013    l_260                    cobol_ddst:   745,  748.
        7070    l_261                    cobol_ddst:   756,  757.
        7114    l_262                    cobol_ddst:   757,  761.
        7140    l_263                    cobol_ddst:   764,  765.
        7164    l_264                    cobol_ddst:   766,  769.
        7246    l_265                    cobol_ddst:   778,  779.
        7272    l_266                    cobol_ddst:   780,  783.
        7400    l_267                    cobol_ddst:   793,  794,  795,  797.
        7412    l_268                    cobol_ddst:   798,  799.
        7467    l_269                    cobol_ddst:   805,  808.
         531    l_27                     cobol_ddst:    95,   96,   97,   98.
        7525    l_270                    cobol_ddst:   808,  809,  810,  811,  812,  814.
        7556    l_271                    cobol_ddst:   818,  819.
        7602    l_272                    cobol_ddst:   819,  820,  823.
        7621    l_273                    cobol_ddst:   825,  826.
        7652    l_274                    cobol_ddst:   826,  827,  831.
        7676    l_275                    cobol_ddst:   834,  835.
        7727    l_276                    cobol_ddst:   835,  836,  840.
        7753    l_277                    cobol_ddst:   843,  844.
        7765    l_278                    cobol_ddst:   844,  845,  846.
        7777    l_279                    cobol_ddst:   846,  847,  848.
         550    l_28                     cobol_ddst:    99,  101.
       10011    l_280                    cobol_ddst:   848,  849,  850.
       10023    l_281                    cobol_ddst:   850,  851,  852.
       10035    l_282                    cobol_ddst:   852,  854.
       10042    l_283                    cobol_ddst:   854,  855.
       10054    l_284                    cobol_ddst:   855,  857.
       10061    l_285                    cobol_ddst:   857,  858.
       10100    l_286                    cobol_ddst:   859,  861.
       10105    l_287                    cobol_ddst:   861,  862.
       10117    l_288                    cobol_ddst:   862,  863,  864.
       10201    l_289                    cobol_ddst:   871,  874.
         567    l_29                     cobol_ddst:   102,  103,  104.
       10302    l_290                    cobol_ddst:   885,  886,  887.
       10326    l_291                    cobol_ddst:   888,  891.
       10345    l_292                    cobol_ddst:   891,  892,  893,  894.
       10352    l_293                    cobol_ddst:   894,  895.
       10364    l_294                    cobol_ddst:   895,  896,  897.
       10376    l_295                    cobol_ddst:   897,  898,  899.
       10427    l_296                    cobol_ddst:   903,  904.
       10465    l_297                    cobol_ddst:   904,  910.
       10472    l_298                    cobol_ddst:   910,  911.
       10511    l_299                    cobol_ddst:   911,  912,  914.
          31    l_3                      cobol_ddst:    32,   34.
         574    l_30                     cobol_ddst:   104,  105.
       10530    l_300                    cobol_ddst:   916,  917.
       10547    l_301                    cobol_ddst:   917,  918,  920.
       10566    l_302                    cobol_ddst:   922,  923.
       10605    l_303                    cobol_ddst:   923,  924,  926.
       10624    l_304                    cobol_ddst:   928,  929.
       10643    l_305                    cobol_ddst:   929,  930,  932.
       10662    l_306                    cobol_ddst:   934,  935.
       10701    l_307                    cobol_ddst:   935,  936,  938.
       10737    l_308                    cobol_ddst:   940,  944.
       10744    l_309                    cobol_ddst:   944,  945.
         620    l_31                     cobol_ddst:   108,  109.
       10763    l_310                    cobol_ddst:   945,  946,  948.
       11002    l_311                    cobol_ddst:   950,  951.
       11021    l_312                    cobol_ddst:   951,  952,  954.
       11040    l_313                    cobol_ddst:   956,  957.
       11057    l_314                    cobol_ddst:   957,  958,  960.
       11103    l_315                    cobol_ddst:   962,  964.
       11110    l_316                    cobol_ddst:   964,  965.
       11127    l_317                    cobol_ddst:   965,  966,  968.
       11153    l_318                    cobol_ddst:   970,  972.
       11160    l_319                    cobol_ddst:   972,  973.
         644    l_32                     cobol_ddst:   112,  113.
       11177    l_320                    cobol_ddst:   973,  974,  976.
       11223    l_321                    cobol_ddst:   978,  980.
       11230    l_322                    cobol_ddst:   980,  981.
       11247    l_323                    cobol_ddst:   981,  982,  984.
       11305    l_324                    cobol_ddst:   987,  990.
       11355    l_325                    cobol_ddst:   997,  998.
       11374    l_326                    cobol_ddst:   998,  999, 1001.
       11413    l_327                    cobol_ddst:  1003, 1004.
       11432    l_328                    cobol_ddst:  1004, 1005, 1007.
       11470    l_329                    cobol_ddst:  1011, 1013.
         663    l_33                     cobol_ddst:   115,  116.
       11502    l_330                    cobol_ddst:  1013, 1015.
       11507    l_331                    cobol_ddst:  1015, 1016.
       11521    l_332                    cobol_ddst:  1016, 1018.
       11526    l_333                    cobol_ddst:  1018, 1019.
       11552    l_334                    cobol_ddst:  1021, 1023.
       11557    l_335                    cobol_ddst:  1023, 1024.
       11576    l_336                    cobol_ddst:  1024, 1025, 1027.
       11622    l_337                    cobol_ddst:  1029, 1031.
       11627    l_338                    cobol_ddst:  1031, 1032.
       11646    l_339                    cobol_ddst:  1032, 1033, 1035.
         675    l_34                     cobol_ddst:   117,  118.
       11672    l_340                    cobol_ddst:  1037, 1039.
       11677    l_341                    cobol_ddst:  1039, 1040.
       11716    l_342                    cobol_ddst:  1040, 1041, 1043.
       11747    l_343                    cobol_ddst:  1047, 1048.
       11754    l_344                    cobol_ddst:  1049.
       11761    l_345                    cobol_ddst:  1050.
       11766    l_346                    cobol_ddst:  1051.
       11773    l_347                    cobol_ddst:  1052.
       12000    l_348                    cobol_ddst:  1053.
       12005    l_349                    cobol_ddst:  1054.
         721    l_35                     cobol_ddst:   121,  122.
       12012    l_350                    cobol_ddst:  1055.
       12017    l_351                    cobol_ddst:  1056.
       12024    l_352                    cobol_ddst:  1057.
       12031    l_353                    cobol_ddst:  1058.
       12036    l_354                    cobol_ddst:  1059.
       12043    l_355                    cobol_ddst:  1060.
       12050    l_356                    cobol_ddst:  1061.
       12055    l_357                    cobol_ddst:  1062.
       12062    l_358                    cobol_ddst:  1063.
       12067    l_359                    cobol_ddst:  1064.
         740    l_36                     cobol_ddst:   123,  124,  125.
       12074    l_360                    cobol_ddst:  1065.
       12101    l_361                    cobol_ddst:  1066.
       12106    l_362                    cobol_ddst:  1067.
       12113    l_363                    cobol_ddst:  1068.
       12120    l_364                    cobol_ddst:  1069.
       12125    l_365                    cobol_ddst:  1070.
       12132    l_366                    cobol_ddst:  1071.
       12137    l_367                    cobol_ddst:  1072.
       12144    l_368                    cobol_ddst:  1073.
       12151    l_369                    cobol_ddst:  1074.
         745    l_37                     cobol_ddst:   125,  126.
       12156    l_370                    cobol_ddst:  1075.
       12163    l_371                    cobol_ddst:  1076.
       12170    l_372                    cobol_ddst:  1077.
       12175    l_373                    cobol_ddst:  1078.
       12202    l_374                    cobol_ddst:  1079.
       12207    l_375                    cobol_ddst:  1080.
       12214    l_376                    cobol_ddst:  1081.
       12221    l_377                    cobol_ddst:  1082.
       12226    l_378                    cobol_ddst:  1083.
       12233    l_379                    cobol_ddst:  1084.
        1022    l_38                     cobol_ddst:   128,  135.
       12240    l_380                    cobol_ddst:  1085.
       12245    l_381                    cobol_ddst:  1086.
       12252    l_382                    cobol_ddst:  1087.
       12257    l_383                    cobol_ddst:  1088.
       12264    l_384                    cobol_ddst:  1089.
       12271    l_385                    cobol_ddst:  1090.
       12276    l_386                    cobol_ddst:  1091.
       12303    l_387                    cobol_ddst:  1092.
       12310    l_388                    cobol_ddst:  1093.
       12315    l_389                    cobol_ddst:  1094.
        1027    l_39                     cobol_ddst:   135,  136.
       12322    l_390                    cobol_ddst:  1095.
       12327    l_391                    cobol_ddst:  1096.
       12334    l_392                    cobol_ddst:  1097.
       12341    l_393                    cobol_ddst:  1098.
       12346    l_394                    cobol_ddst:  1099.
       12353    l_395                    cobol_ddst:  1100.
       12360    l_396                    cobol_ddst:  1101.
       12365    l_397                    cobol_ddst:  1102.
       12372    l_398                    cobol_ddst:  1103.
       12377    l_399                    cobol_ddst:  1104.
         101    l_4                      cobol_ddst:    35,   42.
        1034    l_40                     cobol_ddst:   136,  137.
       12404    l_400                    cobol_ddst:  1105.
       12411    l_401                    cobol_ddst:  1106.
       12416    l_402                    cobol_ddst:  1107.
       12423    l_403                    cobol_ddst:  1108.
       12430    l_404                    cobol_ddst:  1109.
       12435    l_405                    cobol_ddst:  1110.
       12442    l_406                    cobol_ddst:  1111.
       12447    l_407                    cobol_ddst:  1112.
       12454    l_408                    cobol_ddst:  1113.
       12461    l_409                    cobol_ddst:  1114.
        1041    l_41                     cobol_ddst:   137,  138.
       12466    l_410                    cobol_ddst:  1115.
       12473    l_411                    cobol_ddst:  1116.
       12500    l_412                    cobol_ddst:  1117.
       12505    l_413                    cobol_ddst:  1118.
       12512    l_414                    cobol_ddst:  1119.
       12517    l_415                    cobol_ddst:  1120.
        1053    l_42                     cobol_ddst:   139,  140.
        1060    l_43                     cobol_ddst:   140,  141.
        1104    l_44                     cobol_ddst:   144,  145.
        1111    l_45                     cobol_ddst:   145,  146.
        1123    l_46                     cobol_ddst:   146,  148.
        1135    l_47                     cobol_ddst:   149,  150.
        1154    l_48                     cobol_ddst:   152,  153.
        1161    l_49                     cobol_ddst:   153,  154.
         113    l_5                      cobol_ddst:    42,   43,   44.
        1166    l_50                     cobol_ddst:   154,  155.
        1212    l_51                     cobol_ddst:   157,  159.
        1236    l_52                     cobol_ddst:   161,  163.
        1267    l_53                     cobol_ddst:   167,  168.
        1274    l_54                     cobol_ddst:   169.
        1325    l_55                     cobol_ddst:   171,  174.
        1414    l_56                     cobol_ddst:   183,  185.
        1421    l_57                     cobol_ddst:   185,  186.
        1445    l_58                     cobol_ddst:   188,  190.
        1457    l_59                     cobol_ddst:   190,  192.
         125    l_6                      cobol_ddst:    44,   45,   46.
        1464    l_60                     cobol_ddst:   192,  193.
        1560    l_61                     cobol_ddst:   193,  194,  205.
        1572    l_62                     cobol_ddst:   205,  206,  207.
        1611    l_63                     cobol_ddst:   207,  208,  209,  210.
        1630    l_64                     cobol_ddst:   212,  213.
        1642    l_65                     cobol_ddst:   214,  215.
        1666    l_66                     cobol_ddst:   217,  219.
        1700    l_67                     cobol_ddst:   219,  221.
        1705    l_68                     cobol_ddst:   221,  222.
        1736    l_69                     cobol_ddst:   225,  227.
         132    l_7                      cobol_ddst:    46,   47.
        1743    l_70                     cobol_ddst:   227,  228.
        1767    l_71                     cobol_ddst:   228,  229,  232.
        2006    l_72                     cobol_ddst:   234,  235.
        2037    l_73                     cobol_ddst:   238,  240.
        2044    l_74                     cobol_ddst:   240,  241.
        2102    l_75                     cobol_ddst:   245,  247.
        2114    l_76                     cobol_ddst:   247,  248,  249.
        2126    l_77                     cobol_ddst:   249,  251.
        2133    l_78                     cobol_ddst:   251,  252.
        2152    l_79                     cobol_ddst:   252,  255.
         144    l_8                      cobol_ddst:    47,   48,   49.
        2164    l_80                     cobol_ddst:   255,  256,  257.
        2176    l_81                     cobol_ddst:   257,  258,  259.
        2234    l_82                     cobol_ddst:   263,  265.
        2253    l_83                     cobol_ddst:   265,  266,  267,  268.
        2265    l_84                     cobol_ddst:   268,  269,  270.
        2311    l_85                     cobol_ddst:   272,  274.
        2330    l_86                     cobol_ddst:   274,  275,  276,  277.
        2342    l_87                     cobol_ddst:   277,  278,  279.
        2366    l_88                     cobol_ddst:   281,  283.
        2373    l_89                     cobol_ddst:   283,  284.
         156    l_9                      cobol_ddst:    49,   50,   51.
        2405    l_90                     cobol_ddst:   284,  286.
        2424    l_91                     cobol_ddst:   287,  289.
        2436    l_92                     cobol_ddst:   289,  291.
        2450    l_93                     cobol_ddst:   291,  293.
        2462    l_94                     cobol_ddst:   293,  295.
        2501    l_95                     cobol_ddst:   297,  298.
        2513    l_96                     cobol_ddst:   298,  300.
        2525    l_97                     cobol_ddst:   300,  301,  302.
        2532    l_98                     cobol_ddst:   302,  303.
        2544    l_99                     cobol_ddst:   303,  305.
           0    l_org                    cobol_ddst:    29,   30,   31,   32,   33,   34,   35,   36,   37,   38,   39,   40,
                                                        41,   42,   43,   44,   45,   46,   47,   48,   49,   50,   51,   52,
                                                        53,   54,   55,   56,   57,   58,   59,   60,   61,   62,   63,   64,
                                                        65,   66,   67,   68,   69,   70,   71,   72,   73,   74,   75,   76,
                                                        77,   78,   79,   80,   81,   82,   83,   84,   85,   86,   87,   88,
                                                        89,   90,   91,   92,   93,   94,   95,   96,   97,   98,   99,  100,
                                                       101,  102,  103,  104,  105,  106,  107,  108,  109,  110,  111,  112,
                                                       113,  114,  115,  116,  117,  118,  119,  120,  121,  122,  123,  124,
                                                       125,  126,  127,  128,  129,  130,  131,  132,  133,  134,  135,  136,
                                                       137,  138,  139,  140,  141,  142,  143,  144,  145,  146,  147,  148,
                                                       149,  150,  151,  152,  153,  154,  155,  156,  157,  158,  159,  160,
                                                       161,  162,  163,  164,  165,  166,  167,  168,  169,  170,  171,  172,
                                                       173,  174,  175,  176,  177,  178,  179,  180,  181,  182,  183,  184,
                                                       185,  186,  187,  188,  189,  190,  191,  192,  193,  194,  195,  196,
                                                       197,  198,  199,  200,  201,  202,  203,  204,  205,  206,  207,  208,
                                                       209,  210,  211,  212,  213,  214,  215,  216,  217,  218,  219,  220,
                                                       221,  222,  223,  224,  225,  226,  227,  228,  229,  230,  231,  232,
                                                       233,  234,  235,  236,  237,  238,  239,  240,  241,  242,  243,  244,
                                                       245,  246,  247,  248,  249,  250,  251,  252,  253,  254,  255,  256,
                                                       257,  258,  259,  260,  261,  262,  263,  264,  265,  266,  267,  268,
                                                       269,  270,  271,  272,  273,  274,  275,  276,  277,  278,  279,  280,
                                                       281,  282,  283,  284,  285,  286,  287,  288,  289,  290,  291,  292,
                                                       293,  294,  295,  296,  297,  298,  299,  300,  301,  302,  303,  304,
                                                       305,  306,  307,  308,  309,  310,  311,  312,  313,  314,  315,  316,
                                                       317,  318,  319,  320,  321,  322,  323,  324,  325,  326,  327,  328,
                                                       329,  330,  331,  332,  333,  334,  335,  336,  337,  338,  339,  340,
                                                       341,  342,  343,  344,  345,  346,  347,  348,  349,  350,  351,  352,
                                                       353,  354,  355,  356,  357,  358,  359,  360,  361,  362,  363,  364,
                                                       365,  366,  367,  368,  369,  370,  371,  372,  373,  374,  375,  376,
                                                       377,  378,  379,  380,  381,  382,  383,  384,  385,  386,  387,  388,
                                                       389,  390,  391,  392,  393,  394,  395,  396,  397,  398,  399,  400,
                                                       401,  402,  403,  404,  405,  406,  407,  408,  409,  410,  411,  412,
                                                       413,  414,  415,  416,  417,  418,  419,  420,  421,  422,  423,  424,
                                                       425,  426,  427,  428,  429,  430,  431,  432,  433,  434,  435,  436,
                                                       437,  438,  439,  440,  441,  442,  443,  444,  445,  446,  447,  448,
                                                       449,  450,  451,  452,  453,  454,  455,  456,  457,  458,  459,  460,
                                                       461,  462,  463,  464,  465,  466,  467,  468,  469,  470,  471,  472,
                                                       473,  474,  475,  476,  477,  478,  479,  480,  481,  482,  483,  484,
                                                       485,  486,  487,  488,  489,  490,  491,  492,  493,  494,  495,  496,
                                                       497,  498,  499,  500,  501,  502,  503,  504,  505,  506,  507,  508,
                                                       509,  510,  511,  512,  513,  514,  515,  516,  517,  518,  519,  520,
                                                       521,  522,  523,  524,  525,  526,  527,  528,  529,  530,  531,  532,
                                                       533,  534,  535,  536,  537,  538,  539,  540,  541,  542,  543,  544,
                                                       545,  546,  547,  548,  549,  550,  551,  552,  553,  554,  555,  556,
                                                       557,  558,  559,  560,  561,  562,  563,  564,  565,  566,  567,  568,
                                                       569,  570,  571,  572,  573,  574,  575,  576,  577,  578,  579,  580,
                                                       581,  582,  583,  584,  585,  586,  587,  588,  589,  590,  591,  592,
                                                       593,  594,  595,  596,  597,  598,  599,  600,  601,  602,  603,  604,
                                                       605,  606,  607,  608,  609,  610,  611,  612,  613,  614,  615,  616,
                                                       617,  618,  619,  620,  621,  622,  623,  624,  625,  626,  627,  628,
                                                       629,  630,  631,  632,  633,  634,  635,  636,  637,  638,  639,  640,
                                                       641,  642,  643,  644,  645,  646,  647,  648,  649,  650,  651,  652,
                                                       653,  654,  655,  656,  657,  658,  659,  660,  661,  662,  663,  664,
                                                       665,  666,  667,  668,  669,  670,  671,  672,  673,  674,  675,  676,
                                                       677,  678,  679,  680,  681,  682,  683,  684,  685,  686,  687,  688,
                                                       689,  690,  691,  692,  693,  694,  695,  696,  697,  698,  699,  700,
                                                       701,  702,  703,  704,  705,  706,  707,  708,  709,  710,  711,  712,
                                                       713,  714,  715,  716,  717,  718,  719,  720,  721,  722,  723,  724,
                                                       725,  726,  727,  728,  729,  730,  731,  732,  733,  734,  735,  736,
                                                       737,  738,  739,  740,  741,  742,  743,  744,  745,  746,  747,  748,
                                                       749,  750,  751,  752,  753,  754,  755,  756,  757,  758,  759,  760,
                                                       761,  762,  763,  764,  765,  766,  767,  768,  769,  770,  771,  772,
                                                       773,  774,  775,  776,  777,  778,  779,  780,  781,  782,  783,  784,
                                                       785,  786,  787,  788,  789,  790,  791,  792,  793,  794,  795,  796,
                                                       797,  798,  799,  800,  801,  802,  803,  804,  805,  806,  807,  808,
                                                       809,  810,  811,  812,  813,  814,  815,  816,  817,  818,  819,  820,
                                                       821,  822,  823,  824,  825,  826,  827,  828,  829,  830,  831,  832,
                                                       833,  834,  835,  836,  837,  838,  839,  840,  841,  842,  843,  844,
                                                       845,  846,  847,  848,  849,  850,  851,  852,  853,  854,  855,  856,
                                                       857,  858,  859,  860,  861,  862,  863,  864,  865,  866,  867,  868,
                                                       869,  870,  871,  872,  873,  874,  875,  876,  877,  878,  879,  880,
                                                       881,  882,  883,  884,  885,  886,  887,  888,  889,  890,  891,  892,
                                                       893,  894,  895,  896,  897,  898,  899,  900,  901,  902,  903,  904,
                                                       905,  906,  907,  908,  909,  910,  911,  912,  913,  914,  915,  916,
                                                       917,  918,  919,  920,  921,  922,  923,  924,  925,  926,  927,  928,
                                                       929,  930,  931,  932,  933,  934,  935,  936,  937,  938,  939,  940,
                                                       941,  942,  943,  944,  945,  946,  947,  948,  949,  950,  951,  952,
                                                       953,  954,  955,  956,  957,  958,  959,  960,  961,  962,  963,  964,
                                                       965,  966,  967,  968,  969,  970,  971,  972,  973,  974,  975,  976,
                                                       977,  978,  979,  980,  981,  982,  983,  984,  985,  986,  987,  988,
                                                       989,  990,  991,  992,  993,  994,  995,  996,  997,  998,  999, 1000,
                                                      1001, 1002, 1003, 1004, 1005, 1006, 1007, 1008, 1009, 1010, 1011, 1012,
                                                      1013, 1014, 1015, 1016, 1017, 1018, 1019, 1020, 1021, 1022, 1023, 1024,
                                                      1025, 1026, 1027, 1028, 1029, 1030, 1031, 1032, 1033, 1034, 1035, 1036,
                                                      1037, 1038, 1039, 1040, 1041, 1042, 1043, 1044, 1045, 1046, 1047, 1048,
                                                      1049, 1050, 1051, 1052, 1053, 1054, 1055, 1056, 1057, 1058, 1059, 1060,
                                                      1061, 1062, 1063, 1064, 1065, 1066, 1067, 1068, 1069, 1070, 1071, 1072,
                                                      1073, 1074, 1075, 1076, 1077, 1078, 1079, 1080, 1081, 1082, 1083, 1084,
                                                      1085, 1086, 1087, 1088, 1089, 1090, 1091, 1092, 1093, 1094, 1095, 1096,
                                                      1097, 1098, 1099, 1100, 1101, 1102, 1103, 1104, 1105, 1106, 1107, 1108,
                                                      1109, 1110, 1111, 1112, 1113, 1114, 1115, 1116, 1117, 1118, 1119, 1120.
        4627    maxbc                    cobol_ddst:   516,  520.
        2474    maxint                   cobol_ddst:   294,  297.
       10713    message                  cobol_ddst:   875,  940.
       10775    ms2                      cobol_ddst:   941,  950.
         442    name01                   cobol_ddst:    85,   87,  106.
       10042    ncd                      cobol_ddst:   855.
       10105    ncd1                     cobol_ddst:   862.
       10035    ncd_1                    cobol_ddst:   854,  887,  900.
       10302    nncd                     cobol_ddst:   823,  832,  841,  872,  887,  988.
        3345    obj1of                   cobol_ddst:   382,  385.
        3422    obj2of                   cobol_ddst:   391,  394.
        2412    occurs                   cobol_ddst:   177,  287.
        2626    occ_adi                  cobol_ddst:   295,  296,  311,  312,  315,  328,  337,  816.
        2532    odpdon                   cobol_ddst:   303,  815.
        3636    pd                       cobol_ddst:    40,  419.
        1402    picture                  cobol_ddst:   174,  183.
        5435    qual                     cobol_ddst:   578,  598,  601.
        3371    qual1n                   cobol_ddst:   384,  386.
        6262    r1                       cobol_ddst:   679,  683.
        7070    r10                      cobol_ddst:   757,  760.
        7063    r10dg                    cobol_ddst:   100,  101,  756.
        7121    r10x2                    cobol_ddst:   758,  762.
        7126    r10x3                    cobol_ddst:   759,  763.
        7140    r11                      cobol_ddst:   765,  768,  774.
        7133    r11dg                    cobol_ddst:   340,  342,  348,  352,  360,  364,  764.
        7222    r11x1                    cobol_ddst:   765,  775.
        7227    r11x2                    cobol_ddst:   767,  770,  771,  772,  773,  776.
        7234    r11x3                    cobol_ddst:   769,  777.
        7246    r12                      cobol_ddst:   779,  782,  788.
        7241    r12dg                    cobol_ddst:   375,  379,  381,  390,  395,  778.
        7330    r12x1                    cobol_ddst:   779,  789.
        7335    r12x2                    cobol_ddst:   781,  784,  790,  791.
        7342    r12x3                    cobol_ddst:   785,  786,  787,  791.
        7347    r12x4                    cobol_ddst:   783,  792.
        7354    r13                      cobol_ddst:   403,  793,  796.
        7412    r16                      cobol_ddst:   799,  807,  813.
        7405    r16dg                    cobol_ddst:   292,  299,  304,  308,  314,  324,  330,  332,  335,  798.
        7525    r16x1                    cobol_ddst:   804,  806,  814.
        7532    r16x2                    cobol_ddst:   799,  815.
        7537    r16x3                    cobol_ddst:   800,  801,  802,  816.
        7544    r16x4                    cobol_ddst:   803,  817.
        7556    r17                      cobol_ddst:   819,  822.
        7551    r17dg                    cobol_ddst:   818,  867,  873,  890,  902,  989.
        7607    r17x2                    cobol_ddst:   821,  824.
        7621    r18                      cobol_ddst:   826,  830.
        7614    r18dg                    cobol_ddst:   825,  856,  865,  909,  913,  919,  925,  931,  937,  943,  947,  953,
                                                       959,  963,  967,  971,  975,  979,  983.
        7657    r18x2                    cobol_ddst:   828,  832.
        7664    r18x3                    cobol_ddst:   829,  833.
        7676    r19                      cobol_ddst:   835,  839.
        7671    r19dg                    cobol_ddst:   834, 1000, 1006, 1010, 1012, 1014, 1022, 1026, 1030, 1034, 1038, 1042.
        7734    r19x2                    cobol_ddst:   837,  841.
        7741    r19x3                    cobol_ddst:   838,  842.
        6255    r1dg                     cobol_ddst:    33,  678.
        6320    r1x2                     cobol_ddst:   680,  681,  685.
        6325    r1x3                     cobol_ddst:   682,  686.
        6337    r2                       cobol_ddst:   688,  691.
        6332    r2dg                     cobol_ddst:   434,  687.
        6370    r2x1                     cobol_ddst:   688,  693.
        6375    r2x2                     cobol_ddst:   690,  694.
        6407    r3                       cobol_ddst:   696.
        6402    r3dg                     cobol_ddst:   439,  441,  444,  452,  457,  472,  695.
        6452    r3x2                     cobol_ddst:   699,  703.
        6457    r3x3                     cobol_ddst:   700,  704.
        6471    r4                       cobol_ddst:   706,  711.
        6560    r40                      cobol_ddst:   717,  719.
        6553    r40dg                    cobol_ddst:   475,  477,  716.
        6464    r4dg                     cobol_ddst:   469,  507,  509,  513,  515,  521,  525,  528,  532,  534,  544,  548,
                                                       553,  556,  562,  565,  570,  572,  579,  585,  590,  592,  608,  610,
                                                       616,  618,  622,  624,  625,  626,  627,  630,  633,  647,  653,  659,
                                                       661,  667,  669,  673,  677,  705.
        6534    r4x2                     cobol_ddst:   708,  713.
        6541    r4x3                     cobol_ddst:   709,  714,  717.
        6546    r4x4                     cobol_ddst:   710,  715,  718.
        6604    r5                       cobol_ddst:   721,  724.
        6577    r5dg                     cobol_ddst:   288,  290,  720.
        6635    r5x2                     cobol_ddst:   721,  723,  726.
        6647    r7                       cobol_ddst:   728,  731.
        6642    r7dg                     cobol_ddst:    83,   86,  111,  116,  727.
        6700    r7x2                     cobol_ddst:   730,  733.
        6712    r8                       cobol_ddst:   735,  740.
        6705    r8dg                     cobol_ddst:   134,  734.
        6762    r9                       cobol_ddst:   743,  747,  753.
        6755    r9dg                     cobol_ddst:   162,  173,  182,  184,  187,  189,  204,  218,  226,  231,  233,  239,
                                                       244,  246,  254,  264,  273,  282,  285,  405,  407,  413,  418,  742.
        7051    r9x1                     cobol_ddst:   743,  754.
        7056    r9x2                     cobol_ddst:   744,  746,  748,  749,  750,  751,  752,  755.
        4747    rcch                     cobol_ddst:   536,  543.
        5012    rcint                    cobol_ddst:   535,  543.
         670    record01                 cobol_ddst:    91,  117,  466,  492,  895.
        3523    redefines                cobol_ddst:   166,  404.
        3453    rnm                      cobol_ddst:   386,  393,  396,  789.
        3605    rof                      cobol_ddst:   414,  417.
         170    rs                       cobol_ddst:    39,   53.
         111    r_all                    cobol_ddst:   225,  238,  347,  359, 1403.
         166    r_are                    cobol_ddst:   343,  551, 1404.
         312    r_area                   cobol_ddst:   440, 1405.
         312    r_areas                  cobol_ddst:  1097, 1406.
         116    r_ascending              cobol_ddst:   315,  800, 1407.
         117    r_at                     cobol_ddst:   638,  644,  662, 1408.
         314    r_blank                  cobol_ddst:  1094, 1409.
         315    r_block                  cobol_ddst:  1048, 1410.
         354    r_bottom                 cobol_ddst:   640,  646, 1411.
         122    r_by                     cobol_ddst:   333, 1018, 1412.
         513    r_catalog_name           cobol_ddst:  1049, 1413.
         513    r_catalog_names          cobol_ddst:  1103, 1414.
         316    r_cd                     cobol_ddst:   128,  738,  819,  828,  837,  852,  887,  900, 1415.
         123    r_character              cobol_ddst:   259, 1416.
         123    r_characters             cobol_ddst:   445,  454,  458,  518,  536, 1417.
         277    r_cobol                  cobol_ddst:   420, 1418.
         462    r_code_set               cobol_ddst:  1074, 1419.
         317    r_communication          cobol_ddst:  1073, 1420.
         152    r_comp                   cobol_ddst:   194, 1421.
         152    r_computational          cobol_ddst:  1051, 1430.
         324    r_computational_1        cobol_ddst:  1052, 1431.
         325    r_computational_2        cobol_ddst:  1053, 1432.
         323    r_computational_3        cobol_ddst:  1054, 1433.
         321    r_computational_4        cobol_ddst:  1055, 1434.
         322    r_computational_5        cobol_ddst:  1056, 1435.
         444    r_computational_6        cobol_ddst:  1057, 1436.
         442    r_computational_7        cobol_ddst:  1058, 1437.
        1142    r_computational_8        cobol_ddst:  1059, 1438.
         324    r_comp_1                 cobol_ddst:   195, 1422.
         325    r_comp_2                 cobol_ddst:   196, 1423.
         323    r_comp_3                 cobol_ddst:   197, 1424.
         321    r_comp_4                 cobol_ddst:   198, 1425.
         322    r_comp_5                 cobol_ddst:   199, 1426.
         444    r_comp_6                 cobol_ddst:   200, 1427.
         442    r_comp_7                 cobol_ddst:   201, 1428.
        1142    r_comp_8                 cobol_ddst:   202, 1429.
         326    r_constant               cobol_ddst:  1063, 1439.
         327    r_contains               cobol_ddst:   442,  450,  511,  530, 1440.
        1012    r_copy                   cobol_ddst:  1075, 1441.
         124    r_count                  cobol_ddst:   942,  995, 1442.
         304    r_data                   cobol_ddst:  1100, 1443.
         126    r_date                   cobol_ddst:   940, 1444.
         134    r_depending              cobol_ddst:   303,  537,  799, 1445.
         135    r_descending             cobol_ddst:   316,  801, 1446.
         332    r_destination            cobol_ddst:  1009, 1447.
          52    r_display                cobol_ddst:   193, 1448.
         271    r_div                    cobol_ddst:  1114, 1400.
         136    r_division               cobol_ddst:  1101, 1449.
         142    r_end                    cobol_ddst:  1102, 1450.
         146    r_eq                     cobol_ddst:  1118, 1392.
           3    r_error                  cobol_ddst:  1104, 1451.
         272    r_exp                    cobol_ddst:  1115, 1396.
         333    r_fd                     cobol_ddst:  1068, 1452.
         154    r_file                   cobol_ddst:  1064, 1453.
         334    r_filler                 cobol_ddst:    89,   96,  142,  464,  489,  870,  884,  892,  912,  918,  924,  930,
                                                       936,  946,  952,  958,  966,  974,  982,  999, 1005, 1025, 1033, 1041, 1454.
        1043    r_footing                cobol_ddst:   637,  660, 1455.
         156    r_for                    cobol_ddst:   857, 1456.
         161    r_gt                     cobol_ddst:  1117, 1402.
         335    r_high_value             cobol_ddst:  1077, 1457.
         335    r_high_values            cobol_ddst:  1078, 1458.
         145    r_in                     cobol_ddst:   160,  310,  326,  383,  392,  409,  415,  594,  599, 1459.
         336    r_index                  cobol_ddst:   203, 1460.
         337    r_indexed                cobol_ddst:   317,  802, 1016, 1461.
         162    r_initial                cobol_ddst:   859, 1462.
         163    r_input                  cobol_ddst:   864, 1463.
         166    r_is                     cobol_ddst:   185,  192,  221,  234,  251,  322,  505,  549,  566,  586,  606,  614,
                                                       628,  675,  910,  916,  922,  928,  934,  944,  950,  956,  964,  972,
                                                       980,  997, 1003, 1023, 1031, 1039, 1464.
         340    r_just                   cobol_ddst:  1088, 1465.
         340    r_justified              cobol_ddst:  1089, 1466.
         170    r_key                    cobol_ddst:   321,  970,  978, 1021, 1029, 1467.
         171    r_label                  cobol_ddst:  1050, 1468.
         172    r_leading                cobol_ddst:   252, 1469.
         341    r_left                   cobol_ddst:   266,  275, 1470.
         342    r_length                 cobol_ddst:   962, 1037, 1471.
        1061    r_limit                  cobol_ddst:  1098, 1472.
        1062    r_limits                 cobol_ddst:  1060, 1473.
        1063    r_linage                 cobol_ddst:  1090, 1474.
        1064    r_linage_counter         cobol_ddst:  1091, 1475.
         174    r_line                   cobol_ddst:  1061, 1476.
         174    r_lines                  cobol_ddst:   634,  635, 1477.
         344    r_linkage                cobol_ddst:  1066, 1478.
         345    r_low_value              cobol_ddst:  1079, 1479.
         345    r_low_values             cobol_ddst:  1080, 1480.
         173    r_ls                     cobol_ddst:  1116, 1401.
         273    r_lt                     cobol_ddst:  1119, 1393.
         176    r_message                cobol_ddst:  1105, 1481.
         346    r_mode                   cobol_ddst:   504, 1482.
         347    r_occurs                 cobol_ddst:  1011, 1483.
         205    r_of                     cobol_ddst:   159,  309,  325,  382,  391,  408,  414,  559,  593,  598, 1484.
         313    r_omitted                cobol_ddst:   555, 1485.
         206    r_on                     cobol_ddst:   305,  540, 1486.
         211    r_output                 cobol_ddst:   858, 1487.
         275    r_per                    cobol_ddst:    30,   44,   55,   62,   73,   99,  120,  161,  172,  354,  367,  386,
                                                       397,  425,  459,  697,  707,  721,  744,  765,  779,  804,  827,  836,
                                                       846,  868,  872,  885,  986,  988, 1399.
         350    r_pic                    cobol_ddst:  1071, 1488.
         350    r_picture                cobol_ddst:  1072, 1489.
         266    r_pls                    cobol_ddst:  1111, 1397.
         216    r_procedure              cobol_ddst:  1062, 1490.
         352    r_queue                  cobol_ddst:   904, 1491.
         353    r_quote                  cobol_ddst:  1084, 1492.
         353    r_quotes                 cobol_ddst:  1085, 1493.
        1110    r_rd                     cobol_ddst:  1070, 1494.
         224    r_record                 cobol_ddst:   446,  448,  547,  604, 1495.
         355    r_recording              cobol_ddst:  1106, 1496.
         303    r_records                cobol_ddst:   517,  546,  605, 1497.
         356    r_redefines              cobol_ddst:   166, 1498.
         357    r_renames                cobol_ddst:   119,  168,  378, 1499.
         651    r_replace                cobol_ddst:  1107, 1500.
         230    r_replacing              cobol_ddst:  1076, 1501.
         360    r_report                 cobol_ddst:  1067, 1502.
         360    r_reports                cobol_ddst:  1108, 1503.
         361    r_right                  cobol_ddst:   265,  274, 1504.
         274    r_rt                     cobol_ddst:  1120, 1394.
         362    r_sa                     cobol_ddst:  1092, 1505.
         363    r_sd                     cobol_ddst:  1069, 1506.
         236    r_section                cobol_ddst:    42,   53,   60,   71,  423,  844, 1507.
         364    r_separate               cobol_ddst:   255,  261, 1508.
         365    r_sign                   cobol_ddst:   249, 1509.
         366    r_source                 cobol_ddst:   908, 1510.
         300    r_space                  cobol_ddst:  1086, 1511.
         300    r_spaces                 cobol_ddst:  1087, 1512.
         242    r_standard               cobol_ddst:   554, 1513.
         367    r_status                 cobol_ddst:  1109, 1514.
         267    r_sub                    cobol_ddst:  1112, 1398.
         370    r_sub_queue_1            cobol_ddst:   905, 1515.
         371    r_sub_queue_2            cobol_ddst:   906, 1516.
         372    r_sub_queue_3            cobol_ddst:   907, 1517.
         373    r_symbolic               cobol_ddst:   903, 1518.
         374    r_sync                   cobol_ddst:  1095, 1519.
         374    r_synchronized           cobol_ddst:  1096, 1520.
         375    r_table                  cobol_ddst:   996, 1521.
        1137    r_text                   cobol_ddst:  1110, 1522.
         246    r_through                cobol_ddst:  1099, 1523.
         246    r_thru                   cobol_ddst:   353,  387, 1524.
         270    r_tim                    cobol_ddst:  1113, 1395.
         250    r_time                   cobol_ddst:   941, 1525.
         250    r_times                  cobol_ddst:   293,  302, 1015, 1526.
         252    r_to                     cobol_ddst:   294,  453,  516,  535, 1527.
         276    r_top                    cobol_ddst:   639,  645, 1528.
         377    r_trailing               cobol_ddst:   253, 1529.
         401    r_usage                  cobol_ddst:   190, 1530.
         402    r_value                  cobol_ddst:   341, 1531.
         402    r_values                 cobol_ddst:  1093, 1532.
         262    r_when                   cobol_ddst:   283, 1533.
         263    r_with                   cobol_ddst:   636, 1534.
         403    r_working_storage        cobol_ddst:  1065, 1535.
         264    r_zero                   cobol_ddst:   284,  652,  658, 1081, 1536.
         264    r_zeroes                 cobol_ddst:  1083, 1537.
         264    r_zeros                  cobol_ddst:  1082, 1538.
         644    s7788                    cobol_ddst:   113.
        4160    sa01                     cobol_ddst:   461,  468,  702.
        2164    schar                    cobol_ddst:   257,  261,  262.
        4254    sd                       cobol_ddst:   436,  473.
        2070    sign                     cobol_ddst:   181,  245.
          17    sj                       cobol_ddst:    32,   51,   52,   57,   58,   68,   69,   79,   80,  433,  471,  694,
                                                       715,  824,  833,  842,  853,  889,  901.
        5404    skipqual                 cobol_ddst:   584,  591,  593,  596.
        2133    slead                    cobol_ddst:   250,  252.
        1046    sonitem                  cobol_ddst:   139.
        1077    son_1                    cobol_ddst:   126,  144.
        1065    son_2                    cobol_ddst:   142,  147.
       10523    sq1                      cobol_ddst:   905,  916.
       10561    sq2                      cobol_ddst:   906,  922.
       10617    sq3                      cobol_ddst:   907,  928.
       10655    src                      cobol_ddst:   908,  934.
          12    start                    cobol_ddst:    31.
       11211    status                   cobol_ddst:   878,  978.
       11610    statuso                  cobol_ddst:   994, 1029.
        1154    sub66                    cobol_ddst:   153.
        1135    sub88                    cobol_ddst:   150.
       11730    success                  cobol_ddst:    82,  109,  138,  155,  156,  163,  169,  172,  372,  400,  401,  402,
                                                       595,  600,  797, 1045.
       10422    symbolic                 cobol_ddst:   874,  880,  881,  882,  903.
       11444    symbolico                cobol_ddst:   990, 1009.
        2222    sync                     cobol_ddst:   180,  263.
         430    test01                   cobol_ddst:    85,  762.
         423    test77                   cobol_ddst:    84,  732,  761.
         745    testnext                 cobol_ddst:   126,  133,  150,  151,  741.
       11071    text                     cobol_ddst:   876,  962.
       11660    texto                    cobol_ddst:   992, 1037.
        2210    trailsp                  cobol_ddst:   253,  261.
        1464    udisp                    cobol_ddst:   191,  193.
        1560    udisp_1                  cobol_ddst:   203,  205,  213,  215,  216.
        1623    udisp_2                  cobol_ddst:   195,  196,  197,  212.
        1433    usage                    cobol_ddst:   175,  188.
        1630    utm                      cobol_ddst:   213.
        1642    utp                      cobol_ddst:   215.
        1635    utp1                     cobol_ddst:   198,  199,  200,  201,  202,  214.
        1654    value                    cobol_ddst:   178,  217.
        1767    value_1                  cobol_ddst:   222,  223,  224,  232.
        1774    value_2                  cobol_ddst:   230,  233,  243.
         132    wssstrt                  cobol_ddst:    47,  685.


NO FATAL ERRORS


                                          -----------------------------------------------------------


Historical Background

This edition of the Multics software materials and documentation is provided and donated
to Massachusetts Institute of Technology by Group BULL including BULL HN Information Systems Inc.
as a contribution to computer science knowledge.
This donation is made also to give evidence of the common contributions of Massachusetts Institute of Technology,
Bell Laboratories, General Electric, Honeywell Information Systems Inc., Honeywell BULL Inc., Groupe BULL
and BULL HN Information Systems Inc. to the development of this operating system.
Multics development was initiated by Massachusetts Institute of Technology Project MAC (1963-1970),
renamed the MIT Laboratory for Computer Science and Artificial Intelligence in the mid 1970s, under the leadership
of Professor Fernando Jose Corbato. Users consider that Multics provided the best software architecture
for managing computer hardware properly and for executing programs. Many subsequent operating systems
incorporated Multics principles.
Multics was distributed in 1975 to 2000 by Group Bull in Europe , and in the U.S. by Bull HN Information Systems Inc.,
as successor in interest by change in name only to Honeywell Bull Inc. and Honeywell Information Systems Inc. .

                                          -----------------------------------------------------------

Permission to use, copy, modify, and distribute these programs and their documentation for any purpose and without
fee is hereby granted,provided that the below copyright notice and historical background appear in all copies
and that both the copyright notice and historical background and this permission notice appear in supporting
documentation, and that the names of MIT, HIS, BULL or BULL HN not be used in advertising or publicity pertaining
to distribution of the programs without specific prior written permission.
    Copyright 1972 by Massachusetts Institute of Technology and Honeywell Information Systems Inc.
    Copyright 2006 by BULL HN Information Systems Inc.
    Copyright 2006 by Bull SAS
    All Rights Reserved
