ASSEMBLY LISTING OF SEGMENT >spec>on>11/11/82>cobol_ext_lex.alm
ASSEMBLED ON:	11/11/82  1043.0 mst Thu
OPTIONS USED:	list
ASSEMBLED BY:	ALM Version  6.4  April 1981
ASSEMBLER CREATED:	11/03/82  1423.6 mst Wed

                                     1  " ***********************************************************
                                     2  " *                                                         *
                                     3  " * Copyright, (C) Honeywell Information Systems Inc., 1982 *
                                     4  " *                                                         *
                                     5  " * Copyright (c) 1972 by Massachusetts Institute of        *
                                     6  " * Technology and Honeywell Information Systems, Inc.      *
                                     7  " *                                                         *
                                     8  " ***********************************************************
                                     9
                                    10  "	cobol_ext_lex
                                    11  "	External data for cobol compiler
                                    12  "	bindable as static internal
                                    13
    000000                          14  	name	cobol_ext_lex
                                    15  	use	textc
                                    16  	use	linkc
                                    17  	join	/link/linkc
                                    18  	join	/text/textc
                                    19  	use	linkc
                                    20  	even
                                    21  "	DECLARATIONS...
                        000010      22  	segdef	cobol_current
    000010                          23  	bss	cobol_current,2
                        000012      24  	segdef	cobol_top
    000012                          25  	bss	cobol_top,2
                        000014      26  	segdef	cobol_frst
    000014                          27  	bss	cobol_frst,2
                        000016      28  	segdef	cobol_mfp
    000016                          29  	bss	cobol_mfp,2
                        000020      30  	segdef	cobol_rt_ptr
    000020                          31  	bss	cobol_rt_ptr,2
                        000022      32  	segdef	cobol_cfp
    000022                          33  	bss	cobol_cfp,2
                        000024      34  	segdef	cobol_ta_ptr
    000024                          35  	bss	cobol_ta_ptr,2
                        000026      36  	segdef	cobol_elt_buf_ptr
    000026                          37  	bss	cobol_elt_buf_ptr,2
                        000030      38  	segdef	cobol_LOC_ptr
    000030                          39  	bss	cobol_LOC_ptr,2
                        000032      40  	segdef	cobol_lex_exit
    000032                          41  	bss	cobol_lex_exit,6
                        000040      42  	segdef	cobol_tarea
    000040                          43  	bss	cobol_tarea,75
                        000153      44  	segdef	cobol_comma_character
    000153                          45  	bss	cobol_comma_character,1
                        000154      46  	segdef	cobol_decimal_point_character
    000154                          47  	bss	cobol_decimal_point_character,1
                        000155      48  	segdef	cobol_new_line_character
    000155                          49  	bss	cobol_new_line_character,1
                        000156      50  	segdef	cobol_si_key
    000156                          51  	bss	cobol_si_key,2
                        000160      52  	segdef	cobol_so_key
    000160                          53  	bss	cobol_so_key,2
                        000162      54            segdef    ph_num
    000162                          55            bss       ph_num,1
                        000163      56  	segdef	cobol_c_l_n
    000163                          57  	bss	cobol_c_l_n,1
                        000164      58  	segdef	cobol_save_cln
    000164                          59  	bss	cobol_save_cln,1
                        000165      60  	segdef	cobol_save_col
    000165                          61  	bss	cobol_save_col,1
                        000166      62  	segdef	cobol_name_number
    000166                          63  	bss	cobol_name_number,1
                        000167      64  	segdef	cobol_section_number
    000167                          65  	bss	cobol_section_number,1
                        000170      66  	segdef	cobol_sr
    000170                          67  	bss	cobol_sr,1
                        000171      68  	segdef	cobol_elt_idx
    000171                          69  	bss	cobol_elt_idx,1
                        000172      70  	segdef	cobol_LOC
    000172                          71  	bss	cobol_LOC,1
                        000173      72  	segdef	cobol_cards_column
    000173                          73  	bss	cobol_cards_column,1
                        000174      74  	segdef	cobol_cards_nr_char
    000174                          75  	bss	cobol_cards_nr_char,1
                        000175      76  	segdef	cobol_cards_tblanks
    000175                          77  	bss	cobol_cards_tblanks,1
                        000176      78  	segdef	cobol_cards
    000176                          79  	bss	cobol_cards,64
                        000276      80            segdef    processing_report
    000276                          81            bss       processing_report,1
                        000277      82            segdef    real_end_report
    000277                          83            bss       real_end_report,1
                        000300      84  	segdef	cobol_continuation
    000300                          85  	bss	cobol_continuation,1
                        000301      86  	segdef	cobol_pic_switch
    000301                          87  	bss	cobol_pic_switch,1
                        000302      88  	segdef	cobol_allo_init_sw
    000302                          89  	bss	cobol_allo_init_sw,1
                        000303      90  	segdef	cobol_lu_sw
    000303                          91  	bss	cobol_lu_sw,1
                        000304      92  	segdef	cobol_scanoff_sw
    000304                          93  	bss	cobol_scanoff_sw,1
                        000305      94  	segdef	cobol_output_sw
    000305                          95  	bss	cobol_output_sw,1
                        000306      96  	segdef	cobol_stack_sw
    000306                          97  	bss	cobol_stack_sw,1
                        000307      98  	segdef	cobol_copy_found
    000307                          99  	bss	cobol_copy_found,1
                        000310     100  	segdef	cobol_head_words
    000310                         101  	bss	cobol_head_words,1
                        000311     102  	segdef	cobol_elnp_sw
    000311                         103  	bss	cobol_elnp_sw,1
                        000312     104  	segdef	cobol_dp_sw
    000312                         105  	bss	cobol_dp_sw,1
                        000313     106  	segdef	cobol_endprog_sw
    000313                         107  	bss	cobol_endprog_sw,1
                        000314     108  	segdef	cobol_debug_mode
    000314                         109  	bss	cobol_debug_mode,1
                        000315     110  	segdef	cobol_rwt_init_sw
    000315                         111  	bss	cobol_rwt_init_sw,1
                        000316     112  	segdef	cobol_init_ta_sw
    000316                         113  	bss	cobol_init_ta_sw,1
                        000317     114  	segdef	cobol_rep_sw
    000317                         115  	bss	cobol_rep_sw,1
                        000320     116  	segdef	cobol_copy_active
    000320                         117  	bss	cobol_copy_active,1
                        000321     118  	segdef	cobol_ln_sw
    000321                         119  	bss	cobol_ln_sw,1
                        000322     120  	segdef	cobol_prime_sw
    000322                         121  	bss	cobol_prime_sw,1
                        000323     122  	segdef	cobol_rec1_sw
    000323                         123  	bss	cobol_rec1_sw,1
                        000324     124  	segdef	cobol_progid_sw
    000324                         125  	bss	cobol_progid_sw,1
                                   126
                                   127  	end

NO LITERALS

NAME DEFINITIONS FOR ENTRY POINTS AND SEGDEFS

    000000  5a   000003 000000
    000001  5a   000613 600000
    000002  aa   000000 000000
    000003  55   000012 000002
    000004  5a   000002 400003
    000005  55   000006 000012
    000006  aa  015 143 157 142
    000007  aa  157 154 137 145
    000010  aa  170 164 137 154
    000011  aa  145 170 000 000
    000012  55   000021 000003
    000013  2a   000324 400001
    000014  55   000015 000003
    000015  aa  017 143 157 142         cobol_progid_sw
    000016  aa  157 154 137 160
    000017  aa  162 157 147 151
    000020  aa  144 137 163 167
    000021  55   000030 000012
    000022  2a   000323 400001
    000023  55   000024 000003
    000024  aa  015 143 157 142         cobol_rec1_sw
    000025  aa  157 154 137 162
    000026  aa  145 143 061 137
    000027  aa  163 167 000 000
    000030  55   000037 000021
    000031  2a   000322 400001
    000032  55   000033 000003
    000033  aa  016 143 157 142         cobol_prime_sw
    000034  aa  157 154 137 160
    000035  aa  162 151 155 145
    000036  aa  137 163 167 000
    000037  55   000045 000030
    000040  2a   000321 400001
    000041  55   000042 000003
    000042  aa  013 143 157 142         cobol_ln_sw
    000043  aa  157 154 137 154
    000044  aa  156 137 163 167
    000045  55   000055 000037
    000046  2a   000320 400001
    000047  55   000050 000003
    000050  aa  021 143 157 142         cobol_copy_active
    000051  aa  157 154 137 143
    000052  aa  157 160 171 137
    000053  aa  141 143 164 151
    000054  aa  166 145 000 000
    000055  55   000064 000045
    000056  2a   000317 400001
    000057  55   000060 000003
    000060  aa  014 143 157 142         cobol_rep_sw
    000061  aa  157 154 137 162
    000062  aa  145 160 137 163
    000063  aa  167 000 000 000
    000064  55   000074 000055
    000065  2a   000316 400001
    000066  55   000067 000003
    000067  aa  020 143 157 142         cobol_init_ta_sw
    000070  aa  157 154 137 151
    000071  aa  156 151 164 137
    000072  aa  164 141 137 163
    000073  aa  167 000 000 000
    000074  55   000104 000064
    000075  2a   000315 400001
    000076  55   000077 000003
    000077  aa  021 143 157 142         cobol_rwt_init_sw
    000100  aa  157 154 137 162
    000101  aa  167 164 137 151
    000102  aa  156 151 164 137
    000103  aa  163 167 000 000
    000104  55   000114 000074
    000105  2a   000314 400001
    000106  55   000107 000003
    000107  aa  020 143 157 142         cobol_debug_mode
    000110  aa  157 154 137 144
    000111  aa  145 142 165 147
    000112  aa  137 155 157 144
    000113  aa  145 000 000 000
    000114  55   000124 000104
    000115  2a   000313 400001
    000116  55   000117 000003
    000117  aa  020 143 157 142         cobol_endprog_sw
    000120  aa  157 154 137 145
    000121  aa  156 144 160 162
    000122  aa  157 147 137 163
    000123  aa  167 000 000 000
    000124  55   000132 000114
    000125  2a   000312 400001
    000126  55   000127 000003
    000127  aa  013 143 157 142         cobol_dp_sw
    000130  aa  157 154 137 144
    000131  aa  160 137 163 167
    000132  55   000141 000124
    000133  2a   000311 400001
    000134  55   000135 000003
    000135  aa  015 143 157 142         cobol_elnp_sw
    000136  aa  157 154 137 145
    000137  aa  154 156 160 137
    000140  aa  163 167 000 000
    000141  55   000151 000132
    000142  2a   000310 400001
    000143  55   000144 000003
    000144  aa  020 143 157 142         cobol_head_words
    000145  aa  157 154 137 150
    000146  aa  145 141 144 137
    000147  aa  167 157 162 144
    000150  aa  163 000 000 000
    000151  55   000161 000141
    000152  2a   000307 400001
    000153  55   000154 000003
    000154  aa  020 143 157 142         cobol_copy_found
    000155  aa  157 154 137 143
    000156  aa  157 160 171 137
    000157  aa  146 157 165 156
    000160  aa  144 000 000 000
    000161  55   000170 000151
    000162  2a   000306 400001
    000163  55   000164 000003
    000164  aa  016 143 157 142         cobol_stack_sw
    000165  aa  157 154 137 163
    000166  aa  164 141 143 153
    000167  aa  137 163 167 000
    000170  55   000177 000161
    000171  2a   000305 400001
    000172  55   000173 000003
    000173  aa  017 143 157 142         cobol_output_sw
    000174  aa  157 154 137 157
    000175  aa  165 164 160 165
    000176  aa  164 137 163 167
    000177  55   000207 000170
    000200  2a   000304 400001
    000201  55   000202 000003
    000202  aa  020 143 157 142         cobol_scanoff_sw
    000203  aa  157 154 137 163
    000204  aa  143 141 156 157
    000205  aa  146 146 137 163
    000206  aa  167 000 000 000
    000207  55   000215 000177
    000210  2a   000303 400001
    000211  55   000212 000003
    000212  aa  013 143 157 142         cobol_lu_sw
    000213  aa  157 154 137 154
    000214  aa  165 137 163 167
    000215  55   000225 000207
    000216  2a   000302 400001
    000217  55   000220 000003
    000220  aa  022 143 157 142         cobol_allo_init_sw
    000221  aa  157 154 137 141
    000222  aa  154 154 157 137
    000223  aa  151 156 151 164
    000224  aa  137 163 167 000
    000225  55   000235 000215
    000226  2a   000301 400001
    000227  55   000230 000003
    000230  aa  020 143 157 142         cobol_pic_switch
    000231  aa  157 154 137 160
    000232  aa  151 143 137 163
    000233  aa  167 151 164 143
    000234  aa  150 000 000 000
    000235  55   000245 000225
    000236  2a   000300 400001
    000237  55   000240 000003
    000240  aa  022 143 157 142         cobol_continuation
    000241  aa  157 154 137 143
    000242  aa  157 156 164 151
    000243  aa  156 165 141 164
    000244  aa  151 157 156 000
    000245  55   000254 000235
    000246  2a   000277 400001
    000247  55   000250 000003
    000250  aa  017 162 145 141         real_end_report
    000251  aa  154 137 145 156
    000252  aa  144 137 162 145
    000253  aa  160 157 162 164
    000254  55   000264 000245
    000255  2a   000276 400001
    000256  55   000257 000003
    000257  aa  021 160 162 157         processing_report
    000260  aa  143 145 163 163
    000261  aa  151 156 147 137
    000262  aa  162 145 160 157
    000263  aa  162 164 000 000
    000264  55   000272 000254
    000265  2a   000176 400001
    000266  55   000267 000003
    000267  aa  013 143 157 142         cobol_cards
    000270  aa  157 154 137 143
    000271  aa  141 162 144 163
    000272  55   000302 000264
    000273  2a   000175 400001
    000274  55   000275 000003
    000275  aa  023 143 157 142         cobol_cards_tblanks
    000276  aa  157 154 137 143
    000277  aa  141 162 144 163
    000300  aa  137 164 142 154
    000301  aa  141 156 153 163
    000302  55   000312 000272
    000303  2a   000174 400001
    000304  55   000305 000003
    000305  aa  023 143 157 142         cobol_cards_nr_char
    000306  aa  157 154 137 143
    000307  aa  141 162 144 163
    000310  aa  137 156 162 137
    000311  aa  143 150 141 162
    000312  55   000322 000302
    000313  2a   000173 400001
    000314  55   000315 000003
    000315  aa  022 143 157 142         cobol_cards_column
    000316  aa  157 154 137 143
    000317  aa  141 162 144 163
    000320  aa  137 143 157 154
    000321  aa  165 155 156 000
    000322  55   000330 000312
    000323  2a   000172 400001
    000324  55   000325 000003
    000325  aa  011 143 157 142         cobol_LOC
    000326  aa  157 154 137 114
    000327  aa  117 103 000 000
    000330  55   000337 000322
    000331  2a   000171 400001
    000332  55   000333 000003
    000333  aa  015 143 157 142         cobol_elt_idx
    000334  aa  157 154 137 145
    000335  aa  154 164 137 151
    000336  aa  144 170 000 000
    000337  55   000345 000330
    000340  2a   000170 400001
    000341  55   000342 000003
    000342  aa  010 143 157 142         cobol_sr
    000343  aa  157 154 137 163
    000344  aa  162 000 000 000
    000345  55   000356 000337
    000346  2a   000167 400001
    000347  55   000350 000003
    000350  aa  024 143 157 142         cobol_section_number
    000351  aa  157 154 137 163
    000352  aa  145 143 164 151
    000353  aa  157 156 137 156
    000354  aa  165 155 142 145
    000355  aa  162 000 000 000
    000356  55   000366 000345
    000357  2a   000166 400001
    000360  55   000361 000003
    000361  aa  021 143 157 142         cobol_name_number
    000362  aa  157 154 137 156
    000363  aa  141 155 145 137
    000364  aa  156 165 155 142
    000365  aa  145 162 000 000
    000366  55   000375 000356
    000367  2a   000165 400001
    000370  55   000371 000003
    000371  aa  016 143 157 142         cobol_save_col
    000372  aa  157 154 137 163
    000373  aa  141 166 145 137
    000374  aa  143 157 154 000
    000375  55   000404 000366
    000376  2a   000164 400001
    000377  55   000400 000003
    000400  aa  016 143 157 142         cobol_save_cln
    000401  aa  157 154 137 163
    000402  aa  141 166 145 137
    000403  aa  143 154 156 000
    000404  55   000412 000375
    000405  2a   000163 400001
    000406  55   000407 000003
    000407  aa  013 143 157 142         cobol_c_l_n
    000410  aa  157 154 137 143
    000411  aa  137 154 137 156
    000412  55   000417 000404
    000413  2a   000162 400001
    000414  55   000415 000003
    000415  aa  006 160 150 137         ph_num
    000416  aa  156 165 155 000
    000417  55   000426 000412
    000420  2a   000160 400001
    000421  55   000422 000003
    000422  aa  014 143 157 142         cobol_so_key
    000423  aa  157 154 137 163
    000424  aa  157 137 153 145
    000425  aa  171 000 000 000
    000426  55   000435 000417
    000427  2a   000156 400001
    000430  55   000431 000003
    000431  aa  014 143 157 142         cobol_si_key
    000432  aa  157 154 137 163
    000433  aa  151 137 153 145
    000434  aa  171 000 000 000
    000435  55   000447 000426
    000436  2a   000155 400001
    000437  55   000440 000003
    000440  aa  030 143 157 142         cobol_new_line_character
    000441  aa  157 154 137 156
    000442  aa  145 167 137 154
    000443  aa  151 156 145 137
    000444  aa  143 150 141 162
    000445  aa  141 143 164 145
    000446  aa  162 000 000 000
    000447  55   000462 000435
    000450  2a   000154 400001
    000451  55   000452 000003
    000452  aa  035 143 157 142         cobol_decimal_point_character
    000453  aa  157 154 137 144
    000454  aa  145 143 151 155
    000455  aa  141 154 137 160
    000456  aa  157 151 156 164
    000457  aa  137 143 150 141
    000460  aa  162 141 143 164
    000461  aa  145 162 000 000
    000462  55   000473 000447
    000463  2a   000153 400001
    000464  55   000465 000003
    000465  aa  025 143 157 142         cobol_comma_character
    000466  aa  157 154 137 143
    000467  aa  157 155 155 141
    000470  aa  137 143 150 141
    000471  aa  162 141 143 164
    000472  aa  145 162 000 000
    000473  55   000501 000462
    000474  2a   000040 400001
    000475  55   000476 000003
    000476  aa  013 143 157 142         cobol_tarea
    000477  aa  157 154 137 164
    000500  aa  141 162 145 141
    000501  55   000510 000473
    000502  2a   000032 400001
    000503  55   000504 000003
    000504  aa  016 143 157 142         cobol_lex_exit
    000505  aa  157 154 137 154
    000506  aa  145 170 137 145
    000507  aa  170 151 164 000
    000510  55   000517 000501
    000511  2a   000030 400001
    000512  55   000513 000003
    000513  aa  015 143 157 142         cobol_LOC_ptr
    000514  aa  157 154 137 114
    000515  aa  117 103 137 160
    000516  aa  164 162 000 000
    000517  55   000527 000510
    000520  2a   000026 400001
    000521  55   000522 000003
    000522  aa  021 143 157 142         cobol_elt_buf_ptr
    000523  aa  157 154 137 145
    000524  aa  154 164 137 142
    000525  aa  165 146 137 160
    000526  aa  164 162 000 000
    000527  55   000536 000517
    000530  2a   000024 400001
    000531  55   000532 000003
    000532  aa  014 143 157 142         cobol_ta_ptr
    000533  aa  157 154 137 164
    000534  aa  141 137 160 164
    000535  aa  162 000 000 000
    000536  55   000544 000527
    000537  2a   000022 400001
    000540  55   000541 000003
    000541  aa  011 143 157 142         cobol_cfp
    000542  aa  157 154 137 143
    000543  aa  146 160 000 000
    000544  55   000553 000536
    000545  2a   000020 400001
    000546  55   000547 000003
    000547  aa  014 143 157 142         cobol_rt_ptr
    000550  aa  157 154 137 162
    000551  aa  164 137 160 164
    000552  aa  162 000 000 000
    000553  55   000561 000544
    000554  2a   000016 400001
    000555  55   000556 000003
    000556  aa  011 143 157 142         cobol_mfp
    000557  aa  157 154 137 155
    000560  aa  146 160 000 000
    000561  55   000567 000553
    000562  2a   000014 400001
    000563  55   000564 000003
    000564  aa  012 143 157 142         cobol_frst
    000565  aa  157 154 137 146
    000566  aa  162 163 164 000
    000567  55   000575 000561
    000570  2a   000012 400001
    000571  55   000572 000003
    000572  aa  011 143 157 142         cobol_top
    000573  aa  157 154 137 164
    000574  aa  157 160 000 000
    000575  55   000604 000567
    000576  2a   000010 400001
    000577  55   000600 000003
    000600  aa  015 143 157 142         cobol_current
    000601  aa  157 154 137 143
    000602  aa  165 162 162 145
    000603  aa  156 164 000 000
    000604  55   000002 000575
    000605  6a   000000 400002
    000606  55   000607 000003
    000607  aa  014 163 171 155         symbol_table
    000610  aa  142 157 154 137
    000611  aa  164 141 142 154
    000612  aa  145 000 000 000

DEFINITIONS HASH TABLE

    000613  aa   000000 000131
    000614  5a   000037 000000
    000615  5a   000124 000000
    000616  5a   000207 000000
    000617  5a   000264 000000
    000620  5a   000404 000000
    000621  5a   000473 000000
    000622  5a   000604 000000
    000623  5a   000030 000000
    000624  5a   000161 000000
    000625  5a   000366 000000
    000626  5a   000375 000000
    000627  5a   000501 000000
    000630  aa   000000 000000
    000631  aa   000000 000000
    000632  5a   000045 000000
    000633  5a   000074 000000
    000634  5a   000356 000000
    000635  5a   000517 000000
    000636  aa   000000 000000
    000637  aa   000000 000000
    000640  aa   000000 000000
    000641  5a   000345 000000
    000642  aa   000000 000000
    000643  5a   000254 000000
    000644  aa   000000 000000
    000645  5a   000322 000000
    000646  5a   000536 000000
    000647  5a   000553 000000
    000650  5a   000567 000000
    000651  aa   000000 000000
    000652  aa   000000 000000
    000653  aa   000000 000000
    000654  5a   000055 000000
    000655  5a   000417 000000
    000656  5a   000426 000000
    000657  5a   000527 000000
    000660  5a   000544 000000
    000661  aa   000000 000000
    000662  aa   000000 000000
    000663  5a   000012 000000
    000664  5a   000170 000000
    000665  aa   000000 000000
    000666  5a   000245 000000
    000667  5a   000447 000000
    000670  aa   000000 000000
    000671  aa   000000 000000
    000672  5a   000215 000000
    000673  5a   000235 000000
    000674  5a   000312 000000
    000675  aa   000000 000000
    000676  aa   000000 000000
    000677  aa   000000 000000
    000700  aa   000000 000000
    000701  5a   000412 000000
    000702  5a   000462 000000
    000703  aa   000000 000000
    000704  aa   000000 000000
    000705  5a   000561 000000
    000706  aa   000000 000000
    000707  aa   000000 000000
    000710  5a   000435 000000
    000711  aa   000000 000000
    000712  aa   000000 000000
    000713  aa   000000 000000
    000714  5a   000021 000000
    000715  5a   000132 000000
    000716  5a   000330 000000
    000717  5a   000510 000000
    000720  5a   000575 000000
    000721  aa   000000 000000
    000722  aa   000000 000000
    000723  5a   000064 000000
    000724  5a   000104 000000
    000725  5a   000114 000000
    000726  5a   000141 000000
    000727  5a   000151 000000
    000730  5a   000177 000000
    000731  5a   000225 000000
    000732  5a   000272 000000
    000733  5a   000302 000000
    000734  aa   000000 000000
    000735  aa   000000 000000
    000736  5a   000337 000000
    000737  aa   000000 000000
    000740  aa   000000 000000
    000741  aa   000000 000000
    000742  aa   000000 000000
    000743  aa   000000 000000
    000744  aa   000000 000000

NO EXTERNAL NAMES

NO TRAP POINTER WORDS

TYPE PAIR BLOCKS

    000745  aa   000001 000000
    000746  aa   000000 000000

INTERNAL EXPRESSION WORDS

    000747  aa   000000 000000
LINKAGE INFORMATION

    000000  aa   000000 000000
    000001  0a   000000 000000
    000002  aa   000000 000000
    000003  aa   000000 000000
    000004  aa   000000 000000
    000005  aa   000000 000000
    000006  22   000326 000326
    000007  a2   000000 000316
SYMBOL INFORMATION

SYMBOL TABLE HEADER

    000000  aa   000000 000001
    000001  aa   163171 155142
    000002  aa   164162 145145
    000003  aa   000000 000004
    000004  aa   000000 111316
    000005  aa   510113 575622
    000006  aa   000000 111330
    000007  aa   403307 022134
    000010  aa   141154 155040
    000011  aa   040040 040040
    000012  aa   000024 000040
    000013  aa   000034 000040
    000014  aa   000044 000100
    000015  aa   000002 000002
    000016  aa   000064 000000
    000017  aa   000000 000132
    000020  aa   000000 000103
    000021  aa   000000 000105
    000022  aa   000124 000103
    000023  aa   000064 000000
    000024  aa   101114 115040
    000025  aa   126145 162163
    000026  aa   151157 156040
    000027  aa   040066 056064
    000030  aa   040040 101160
    000031  aa   162151 154040
    000032  aa   061071 070061
    000033  aa   040040 040040
    000034  aa   110157 154155
    000035  aa   163164 145144
    000036  aa   164056 123171
    000037  aa   163115 141151
    000040  aa   156164 056155
    000041  aa   040040 040040
    000042  aa   040040 040040
    000043  aa   040040 040040
    000044  aa   154151 163164
    000045  aa   040040 040040
    000046  aa   040040 040040
    000047  aa   040040 040040
    000050  aa   040040 040040
    000051  aa   040040 040040
    000052  aa   040040 040040
    000053  aa   040040 040040
    000054  aa   040040 040040
    000055  aa   040040 040040
    000056  aa   040040 040040
    000057  aa   040040 040040
    000060  aa   040040 040040
    000061  aa   040040 040040
    000062  aa   040040 040040
    000063  aa   040040 040040
    000064  aa   000000 000001
    000065  aa   000000 000001
    000066  aa   000072 000043
    000067  aa   113225 114771
    000070  aa   000000 111330
    000071  aa   375645 600000
    000072  aa   076163 160145          >spec>on>11/11/82>cobol_ext_lex.alm
    000073  aa   143076 157156
    000074  aa   076061 061057
    000075  aa   061061 057070
    000076  aa   062076 143157
    000077  aa   142157 154137
    000100  aa   145170 164137
    000101  aa   154145 170056
    000102  aa   141154 155040
               MULTICS ASSEMBLY CROSS REFERENCE LISTING

   Value        Symbol                   Source file   Line number

         302    cobol_allo_init_sw       cobol_ext_lex:       88,   89.
         176    cobol_cards              cobol_ext_lex:       78,   79.
         173    cobol_cards_column       cobol_ext_lex:       72,   73.
         174    cobol_cards_nr_char      cobol_ext_lex:       74,   75.
         175    cobol_cards_tblanks      cobol_ext_lex:       76,   77.
          22    cobol_cfp                cobol_ext_lex:       32,   33.
         153    cobol_comma_character    cobol_ext_lex:       44,   45.
         300    cobol_continuation       cobol_ext_lex:       84,   85.
         320    cobol_copy_active        cobol_ext_lex:      116,  117.
         307    cobol_copy_found         cobol_ext_lex:       98,   99.
          10    cobol_current            cobol_ext_lex:       22,   23.
         163    cobol_c_l_n              cobol_ext_lex:       56,   57.
         314    cobol_debug_mode         cobol_ext_lex:      108,  109.
         154    cobol_decimal_point_character  cobol_ext_lex:       46,   47.
         312    cobol_dp_sw              cobol_ext_lex:      104,  105.
         311    cobol_elnp_sw            cobol_ext_lex:      102,  103.
          26    cobol_elt_buf_ptr        cobol_ext_lex:       36,   37.
         171    cobol_elt_idx            cobol_ext_lex:       68,   69.
         313    cobol_endprog_sw         cobol_ext_lex:      106,  107.
          14    cobol_frst               cobol_ext_lex:       26,   27.
         310    cobol_head_words         cobol_ext_lex:      100,  101.
         316    cobol_init_ta_sw         cobol_ext_lex:      112,  113.
          32    cobol_lex_exit           cobol_ext_lex:       40,   41.
         321    cobol_ln_sw              cobol_ext_lex:      118,  119.
         172    cobol_LOC                cobol_ext_lex:       70,   71.
          30    cobol_LOC_ptr            cobol_ext_lex:       38,   39.
         303    cobol_lu_sw              cobol_ext_lex:       90,   91.
          16    cobol_mfp                cobol_ext_lex:       28,   29.
         166    cobol_name_number        cobol_ext_lex:       62,   63.
         155    cobol_new_line_character       cobol_ext_lex:       48,   49.
         305    cobol_output_sw          cobol_ext_lex:       94,   95.
         301    cobol_pic_switch         cobol_ext_lex:       86,   87.
         322    cobol_prime_sw           cobol_ext_lex:      120,  121.
         324    cobol_progid_sw          cobol_ext_lex:      124,  125.
         323    cobol_rec1_sw            cobol_ext_lex:      122,  123.
         317    cobol_rep_sw             cobol_ext_lex:      114,  115.
          20    cobol_rt_ptr             cobol_ext_lex:       30,   31.
         315    cobol_rwt_init_sw        cobol_ext_lex:      110,  111.
         164    cobol_save_cln           cobol_ext_lex:       58,   59.
         165    cobol_save_col           cobol_ext_lex:       60,   61.
         304    cobol_scanoff_sw         cobol_ext_lex:       92,   93.
         167    cobol_section_number     cobol_ext_lex:       64,   65.
         156    cobol_si_key             cobol_ext_lex:       50,   51.
         160    cobol_so_key             cobol_ext_lex:       52,   53.
         170    cobol_sr                 cobol_ext_lex:       66,   67.
         306    cobol_stack_sw           cobol_ext_lex:       96,   97.
          40    cobol_tarea              cobol_ext_lex:       42,   43.
          24    cobol_ta_ptr             cobol_ext_lex:       34,   35.
          12    cobol_top                cobol_ext_lex:       24,   25.
          10    linkc                    cobol_ext_lex:       16,   17,   19.
         162    ph_num                   cobol_ext_lex:       54,   55.
         276    processing_report        cobol_ext_lex:       80,   81.
         277    real_end_report          cobol_ext_lex:       82,   83.
           0    textc                    cobol_ext_lex:       15,   18.


NO FATAL ERRORS


                                          -----------------------------------------------------------


Historical Background

This edition of the Multics software materials and documentation is provided and donated
to Massachusetts Institute of Technology by Group BULL including BULL HN Information Systems Inc.
as a contribution to computer science knowledge.
This donation is made also to give evidence of the common contributions of Massachusetts Institute of Technology,
Bell Laboratories, General Electric, Honeywell Information Systems Inc., Honeywell BULL Inc., Groupe BULL
and BULL HN Information Systems Inc. to the development of this operating system.
Multics development was initiated by Massachusetts Institute of Technology Project MAC (1963-1970),
renamed the MIT Laboratory for Computer Science and Artificial Intelligence in the mid 1970s, under the leadership
of Professor Fernando Jose Corbato. Users consider that Multics provided the best software architecture
for managing computer hardware properly and for executing programs. Many subsequent operating systems
incorporated Multics principles.
Multics was distributed in 1975 to 2000 by Group Bull in Europe , and in the U.S. by Bull HN Information Systems Inc.,
as successor in interest by change in name only to Honeywell Bull Inc. and Honeywell Information Systems Inc. .

                                          -----------------------------------------------------------

Permission to use, copy, modify, and distribute these programs and their documentation for any purpose and without
fee is hereby granted,provided that the below copyright notice and historical background appear in all copies
and that both the copyright notice and historical background and this permission notice appear in supporting
documentation, and that the names of MIT, HIS, BULL or BULL HN not be used in advertising or publicity pertaining
to distribution of the programs without specific prior written permission.
    Copyright 1972 by Massachusetts Institute of Technology and Honeywell Information Systems Inc.
    Copyright 2006 by BULL HN Information Systems Inc.
    Copyright 2006 by Bull SAS
    All Rights Reserved
