ASSEMBLY LISTING OF SEGMENT >spec>install>MR12.3-1048>cobol_pdst.alm
ASSEMBLED ON:	05/24/89  0931.5 mst Wed
OPTIONS USED:	-target l68                              list symbols
ASSEMBLED BY:	ALM Version 8.13 September 1988
ASSEMBLER CREATED:	10/24/88  1635.1 mst Mon

                                     1  " *********************************************************
                                     2  " *                                                       *
                                     3  " * Copyright, (C) BULL HN Information Systems Inc., 1989 *
                                     4  " *                                                       *
                                     5  " * Copyright (c) 1972 by Massachusetts Institute of      *
                                     6  " * Technology and Honeywell Information Systems, Inc.    *
                                     7  " *                                                       *
                                     8  " *********************************************************
                                     9
                                    10  " HISTORY COMMENTS:
                                    11  "  1) change(89-04-23,Zimmerman), approve(89-04-23,MCR8082),
                                    12  "     audit(89-05-05,RWaters), install(89-05-24,MR12.3-1048):
                                    13  "     MCR8082 cobol_pdst.alm Fix wild array subscript.
                                    14  "                                                      END HISTORY COMMENTS
                                    15
                                    16
    000000                          17  name	cobol_pdst
                        000000      18  	entry	cobol_pdst
    000000  aa   000060 6270 00     19  cobol_pdst:	save
    000001  aa  7 00040 2721 20
    000002  0a   000000 3520 00     20  	epp2	cobol_pdst
    000003  aa  0 00002 2521 20     21  	spri2	ap|2,*
    000004  aa  7 00042 7101 20     22  	return
                        000000      23  		equ i_r,0
                        000001      24  		equ i_c,1
                        000003      25  		equ i_s,3
                        000002      26  		equ i_n,2
                        000004      27  		equ i_k,4
                        000005      28  		equ i_K,5
                        000000      29  		equ l_org,*-5
    000005  aa   040040 040040      30  	fake1:	vfd a36/    ,36/i_n,36/0,36/(accept-l_org)/5,36/0
    000006  aa   000000 000002
    000007  aa   000000 000000
    000010  aa   000000 000452
    000011  aa   000000 000000
    000012  aa   040040 040040      31  	fake2:	vfd a36/    ,36/i_n,36/0,36/(add-l_org)/5,36/0
    000013  aa   000000 000002
    000014  aa   000000 000000
    000015  aa   000000 000504
    000016  aa   000000 000000
    000017  aa   163040 040040      32  	fake3:	vfd a36/s   ,36/i_n,36/300,36/(rtwo_1-l_org)/5,36/0
    000020  aa   000000 000002
    000021  aa   000000 000454
    000022  aa   000000 004062
    000023  aa   000000 000000
    000024  aa   040040 040040      33  	fake4:	vfd a36/    ,36/i_n,36/0,36/(alter-l_org)/5,36/0
    000025  aa   000000 000002
    000026  aa   000000 000000
    000027  aa   000000 000547
    000030  aa   000000 000000
    000031  aa   040040 040040      34  	fake5:	vfd a36/    ,36/i_n,36/0,36/(call-l_org)/5,36/0
    000032  aa   000000 000002
    000033  aa   000000 000000
    000034  aa   000000 000570
    000035  aa   000000 000000
    000036  aa   163040 040040      35  	fake6:	vfd a36/s   ,36/i_n,36/300,36/(rtwo_1-l_org)/5,36/0
    000037  aa   000000 000002
    000040  aa   000000 000454
    000041  aa   000000 004062
    000042  aa   000000 000000
    000043  aa   040040 040040      36  	fake7:	vfd a36/    ,36/i_n,36/0,36/(cancel-l_org)/5,36/0
    000044  aa   000000 000002
    000045  aa   000000 000000
    000046  aa   000000 000627
    000047  aa   000000 000000
    000050  aa   040040 040040      37  	fake8:	vfd a36/    ,36/i_n,36/0,36/(close-l_org)/5,36/0
    000051  aa   000000 000002
    000052  aa   000000 000000
    000053  aa   000000 000636
    000054  aa   000000 000000
    000055  aa   040040 040040      38  	fake9:	vfd a36/    ,36/i_n,36/0,36/(divide-l_org)/5,36/0
    000056  aa   000000 000002
    000057  aa   000000 000000
    000060  aa   000000 001025
    000061  aa   000000 000000
    000062  aa   040040 040040      39  	fake10:	vfd a36/    ,36/i_n,36/0,36/(multiply-l_org)/5,36/0
    000063  aa   000000 000002
    000064  aa   000000 000000
    000065  aa   000000 001603
    000066  aa   000000 000000
    000067  aa   040040 040040      40  	fake11:	vfd a36/    ,36/i_n,36/0,36/(subtract-l_org)/5,36/0
    000070  aa   000000 000002
    000071  aa   000000 000000
    000072  aa   000000 003043
    000073  aa   000000 000000
    000074  aa   040040 040040      41  	fake12:	vfd a36/    ,36/i_n,36/0,36/(exit-l_org)/5,36/0
    000075  aa   000000 000002
    000076  aa   000000 000000
    000077  aa   000000 001112
    000100  aa   000000 000000
    000101  aa   163040 040040      42  	fake13:	vfd a36/s   ,36/i_n,36/300,36/(rtwo_1-l_org)/5,36/0
    000102  aa   000000 000002
    000103  aa   000000 000454
    000104  aa   000000 004062
    000105  aa   000000 000000
    000106  aa   040040 040040      43  	fake14:	vfd a36/    ,36/i_n,36/0,36/(go-l_org)/5,36/0
    000107  aa   000000 000002
    000110  aa   000000 000000
    000111  aa   000000 001206
    000112  aa   000000 000000
    000113  aa   040040 040040      44  	fake15:	vfd a36/    ,36/i_n,36/0,36/(merge-l_org)/5,36/0
    000114  aa   000000 000002
    000115  aa   000000 000000
    000116  aa   000000 001415
    000117  aa   000000 000000
    000120  aa   040040 040040      45  	fake16:	vfd a36/    ,36/i_n,36/0,36/(initiate-l_org)/5,36/0
    000121  aa   000000 000002
    000122  aa   000000 000000
    000123  aa   000000 001277
    000124  aa   000000 000000
    000125  aa   040040 040040      46  	fake17:	vfd a36/    ,36/i_n,36/0,36/(inspect-l_org)/5,36/0
    000126  aa   000000 000002
    000127  aa   000000 000000
    000130  aa   000000 001305
    000131  aa   000000 000000
    000132  aa   040040 040040      47  	fake18:	vfd a36/    ,36/i_n,36/0,36/(move-l_org)/5,36/0
    000133  aa   000000 000002
    000134  aa   000000 000000
    000135  aa   000000 001502
    000136  aa   000000 000000
    000137  aa   040040 040040      48  	fake19:	vfd a36/    ,36/i_n,36/0,36/(open-l_org)/5,36/0
    000140  aa   000000 000002
    000141  aa   000000 000000
    000142  aa   000000 001643
    000143  aa   000000 000000
    000144  aa   040040 040040      49  	fake20:	vfd a36/    ,36/i_n,36/0,36/(perform-l_org)/5,36/0
    000145  aa   000000 000002
    000146  aa   000000 000000
    000147  aa   000000 002000
    000150  aa   000000 000000
    000151  aa   040040 040040      50  	fake21:	vfd a36/    ,36/i_n,36/0,36/(read-l_org)/5,36/0
    000152  aa   000000 000002
    000153  aa   000000 000000
    000154  aa   000000 002121
    000155  aa   000000 000000
    000156  aa   040040 040040      51  	fake22:	vfd a36/    ,36/i_n,36/0,36/(delete-l_org)/5,36/0
    000157  aa   000000 000002
    000160  aa   000000 000000
    000161  aa   000000 003427
    000162  aa   000000 000000
    000163  aa   040040 040040      52  	fake23:	vfd a36/    ,36/i_n,36/0,36/(receive-l_org)/5,36/0
    000164  aa   000000 000002
    000165  aa   000000 000000
    000166  aa   000000 002212
    000167  aa   000000 000000
    000170  aa   040040 040040      53  	fake24:	vfd a36/    ,36/i_n,36/0,36/(release-l_org)/5,36/0
    000171  aa   000000 000002
    000172  aa   000000 000000
    000173  aa   000000 002253
    000174  aa   000000 000000
    000175  aa   040040 040040      54  	fake25:	vfd a36/    ,36/i_n,36/0,36/(return-l_org)/5,36/0
    000176  aa   000000 000002
    000177  aa   000000 000000
    000200  aa   000000 002267
    000201  aa   000000 000000
    000202  aa   040040 040040      55  	fake26:	vfd a36/    ,36/i_n,36/0,36/(search-l_org)/5,36/0
    000203  aa   000000 000002
    000204  aa   000000 000000
    000205  aa   000000 002355
    000206  aa   000000 000000
    000207  aa   040040 040040      56  	fake27:	vfd a36/    ,36/i_n,36/0,36/(rewrite-l_org)/5,36/0
    000210  aa   000000 000002
    000211  aa   000000 000000
    000212  aa   000000 002320
    000213  aa   000000 000000
    000214  aa   163040 040040      57  	fake28:	vfd a36/s   ,36/i_n,36/0,36/(verb1-l_org)/5,36/0
    000215  aa   000000 000002
    000216  aa   000000 000000
    000217  aa   000000 003640
    000220  aa   000000 000000
    000221  aa   163040 040040      58  	fake29:	vfd a36/s   ,36/i_n,36/300,36/(rtwo_1-l_org)/5,36/0
    000222  aa   000000 000002
    000223  aa   000000 000454
    000224  aa   000000 004062
    000225  aa   000000 000000
    000226  aa   040040 040040      59  	fake30:	vfd a36/    ,36/i_n,36/0,36/(send-l_org)/5,36/0
    000227  aa   000000 000002
    000230  aa   000000 000000
    000231  aa   000000 002457
    000232  aa   000000 000000
    000233  aa   040040 040040      60  	fake31:	vfd a36/    ,36/i_n,36/0,36/(set-l_org)/5,36/0
    000234  aa   000000 000002
    000235  aa   000000 000000
    000236  aa   000000 002522
    000237  aa   000000 000000
    000240  aa   163040 040040      61  	fake32:	vfd a36/s   ,36/i_n,36/300,36/(rtwo_1-l_org)/5,36/0
    000241  aa   000000 000002
    000242  aa   000000 000454
    000243  aa   000000 004062
    000244  aa   000000 000000
    000245  aa   040040 040040      62  	fake33:	vfd a36/    ,36/i_n,36/0,36/(stop-l_org)/5,36/0
    000246  aa   000000 000002
    000247  aa   000000 000000
    000250  aa   000000 002760
    000251  aa   000000 000000
    000252  aa   040040 040040      63  	fake34:	vfd a36/    ,36/i_n,36/0,36/(string-l_org)/5,36/0
    000253  aa   000000 000002
    000254  aa   000000 000000
    000255  aa   000000 002766
    000256  aa   000000 000000
    000257  aa   040040 040040      64  	fake35:	vfd a36/    ,36/i_n,36/0,36/(suspend-l_org)/5,36/0
    000260  aa   000000 000002
    000261  aa   000000 000000
    000262  aa   000000 003113
    000263  aa   000000 000000
    000264  aa   040040 040040      65  	fake36:	vfd a36/    ,36/i_n,36/0,36/(terminate-l_org)/5,36/0
    000265  aa   000000 000002
    000266  aa   000000 000000
    000267  aa   000000 003124
    000270  aa   000000 000000
    000271  aa   040040 040040      66  	fake37:	vfd a36/    ,36/i_n,36/0,36/(unstring-l_org)/5,36/0
    000272  aa   000000 000002
    000273  aa   000000 000000
    000274  aa   000000 003134
    000275  aa   000000 000000
    000276  aa   040040 040040      67  	fake38:	vfd a36/    ,36/i_n,36/0,36/(write-l_org)/5,36/0
    000277  aa   000000 000002
    000300  aa   000000 000000
    000301  aa   000000 003230
    000302  aa   000000 000000
    000303  aa   163040 040040      68  	fake39:	vfd a36/s   ,36/i_n,36/166,36/(rtwo_1-l_org)/5,36/0
    000304  aa   000000 000002
    000305  aa   000000 000246
    000306  aa   000000 004062
    000307  aa   000000 000000
    000310  aa   040040 040040      69  	fake40:	vfd a36/    ,36/i_n,36/0,36/(compute-l_org)/5,36/0
    000311  aa   000000 000002
    000312  aa   000000 000000
    000313  aa   000000 000735
    000314  aa   000000 000000
    000315  aa   040040 040040      70  	fake41:	vfd a36/    ,36/i_n,36/0,36/(disable-l_org)/5,36/0
    000316  aa   000000 000002
    000317  aa   000000 000000
    000320  aa   000000 000760
    000321  aa   000000 000000
    000322  aa   040040 040040      71  	fake42:	vfd a36/    ,36/i_n,36/0,36/(display-l_org)/5,36/0
    000323  aa   000000 000002
    000324  aa   000000 000000
    000325  aa   000000 001001
    000326  aa   000000 000000
    000327  aa   040040 040040      72  	fake43:	vfd a36/    ,36/i_n,36/0,36/(enable-l_org)/5,36/0
    000330  aa   000000 000002
    000331  aa   000000 000000
    000332  aa   000000 001075
    000333  aa   000000 000000
    000334  aa   040040 040040      73  	fake44:	vfd a36/    ,36/i_n,36/0,36/(enter-l_org)/5,36/0
    000335  aa   000000 000002
    000336  aa   000000 000000
    000337  aa   000000 001077
    000340  aa   000000 000000
    000341  aa   040040 040040      74  	fake45:	vfd a36/    ,36/i_n,36/0,36/(generate-l_org)/5,36/0
    000342  aa   000000 000002
    000343  aa   000000 000000
    000344  aa   000000 001203
    000345  aa   000000 000000
    000346  aa   040040 040040      75  	fake46:	vfd a36/    ,36/i_n,36/0,36/(hold-l_org)/5,36/0
    000347  aa   000000 000002
    000350  aa   000000 000000
    000351  aa   000000 001237
    000352  aa   000000 000000
    000353  aa   040040 040040      76  	fake47:	vfd a36/    ,36/i_n,36/0,36/(if-l_org)/5,36/0
    000354  aa   000000 000002
    000355  aa   000000 000000
    000356  aa   000000 001246
    000357  aa   000000 000000
    000360  aa   040040 040040      77  	fake48:	vfd a36/    ,36/i_n,36/0,36/(process-l_org)/5,36/0
    000361  aa   000000 000002
    000362  aa   000000 000000
    000363  aa   000000 002077
    000364  aa   000000 000000
    000365  aa   040040 040040      78  	fake49:	vfd a36/    ,36/i_n,36/0,36/(sort-l_org)/5,36/0
    000366  aa   000000 000002
    000367  aa   000000 000000
    000370  aa   000000 002601
    000371  aa   000000 000000
    000372  aa   040040 040040      79  	fake50:	vfd a36/    ,36/i_n,36/0,36/(examine-l_org)/5,36/0
    000373  aa   000000 000002
    000374  aa   000000 000000
    000375  aa   000000 003337
    000376  aa   000000 000000
    000377  aa   040040 040040      80  	fake51:	vfd a36/    ,36/i_n,36/0,36/(transform-l_org)/5,36/0
    000400  aa   000000 000002
    000401  aa   000000 000000
    000402  aa   000000 003404
    000403  aa   000000 000000
    000404  aa   163040 040040      81  	fake52:	vfd a36/s   ,36/i_n,36/300,36/(rtwo_1-l_org)/5,36/0
    000405  aa   000000 000002
    000406  aa   000000 000454
    000407  aa   000000 004062
    000410  aa   000000 000000
    000411  aa   163040 040040      82  	fake53:	vfd a36/s   ,36/i_n,36/300,36/(rtwo_1-l_org)/5,36/0
    000412  aa   000000 000002
    000413  aa   000000 000454
    000414  aa   000000 004062
    000415  aa   000000 000000
    000416  aa   163040 040040      83  	fake54:	vfd a36/s   ,36/i_n,36/300,36/(rtwo_1-l_org)/5,36/0
    000417  aa   000000 000002
    000420  aa   000000 000454
    000421  aa   000000 004062
    000422  aa   000000 000000
    000423  aa   163040 040040      84  	fake55:	vfd a36/s   ,36/i_n,36/300,36/(rtwo_1-l_org)/5,36/0
    000424  aa   000000 000002
    000425  aa   000000 000454
    000426  aa   000000 004062
    000427  aa   000000 000000
    000430  aa   040040 040040      85  	fake56:	vfd a36/    ,36/i_n,36/0,36/(start-l_org)/5,36/0
    000431  aa   000000 000002
    000432  aa   000000 000000
    000433  aa   000000 002711
    000434  aa   000000 000000
    000435  aa   040040 040040      86  	fake57:	vfd a36/    ,36/i_n,36/0,36/(suppress-l_org)/5,36/0
    000436  aa   000000 000002
    000437  aa   000000 000000
    000440  aa   000000 003454
    000441  aa   000000 000000
    000442  aa   040040 040040      87  	fake58:	vfd a36/    ,36/i_n,36/0,36/(purge-l_org)/5,36/0
    000443  aa   000000 000002
    000444  aa   000000 000000
    000445  aa   000000 002114
    000446  aa   000000 000000
    000447  aa   163040 040040      88  	fake59:	vfd a36/s   ,36/i_n,36/300,36/(rtwo_1-l_org)/5,36/0
    000450  aa   000000 000002
    000451  aa   000000 000454
    000452  aa   000000 004062
    000453  aa   000000 000000
    000454  aa   163040 040040      89  	fake60:	vfd a36/s   ,36/i_n,36/300,36/(rtwo_1-l_org)/5,36/0
    000455  aa   000000 000002
    000456  aa   000000 000454
    000457  aa   000000 004062
    000460  aa   000000 000000
    000461  aa   163040 040040      90  	fake61:	vfd a36/s   ,36/i_n,36/300,36/(rtwo_1-l_org)/5,36/0
    000462  aa   000000 000002
    000463  aa   000000 000454
    000464  aa   000000 004062
    000465  aa   000000 000000
    000466  aa   163040 040040      91  	fake62:	vfd a36/s   ,36/i_n,36/300,36/(rtwo_1-l_org)/5,36/0
    000467  aa   000000 000002
    000470  aa   000000 000454
    000471  aa   000000 004062
    000472  aa   000000 000000
    000473  aa   163040 040040      92  	fake63:	vfd a36/s   ,36/i_n,36/300,36/(rtwo_1-l_org)/5,36/0
    000474  aa   000000 000002
    000475  aa   000000 000454
    000476  aa   000000 004062
    000477  aa   000000 000000
    000500  aa   163040 040040      93  	fake64:	vfd a36/s   ,36/i_n,36/300,36/(rtwo_1-l_org)/5,36/0
    000501  aa   000000 000002
    000502  aa   000000 000454
    000503  aa   000000 004062
    000504  aa   000000 000000
    000505  aa   163040 040040      94  	fake65:	vfd a36/s   ,36/i_n,36/300,36/(rtwo_1-l_org)/5,36/0
    000506  aa   000000 000002
    000507  aa   000000 000454
    000510  aa   000000 004062
    000511  aa   000000 000000
    000512  aa   163040 040040      95  	fake66:	vfd a36/s   ,36/i_n,36/300,36/(rtwo_1-l_org)/5,36/0
    000513  aa   000000 000002
    000514  aa   000000 000454
    000515  aa   000000 004062
    000516  aa   000000 000000
    000517  aa   163040 040040      96  	fake67:	vfd a36/s   ,36/i_n,36/300,36/(rtwo_1-l_org)/5,36/0
    000520  aa   000000 000002
    000521  aa   000000 000454
    000522  aa   000000 004062
    000523  aa   000000 000000
    000524  aa   163040 040040      97  	fake68:	vfd a36/s   ,36/i_n,36/300,36/(rtwo_1-l_org)/5,36/0
    000525  aa   000000 000002
    000526  aa   000000 000454
    000527  aa   000000 004062
    000530  aa   000000 000000
    000531  aa   163040 040040      98  	fake69:	vfd a36/s   ,36/i_n,36/300,36/(rtwo_1-l_org)/5,36/0
    000532  aa   000000 000002
    000533  aa   000000 000454
    000534  aa   000000 004062
    000535  aa   000000 000000
    000536  aa   163157 040040      99  l_1:		vfd a36/so  ,36/i_r,36/r_procedure,36/(l_2-l_org)/5,36/a_127
    000537  aa   000000 000000
    000540  aa   000000 000216
    000541  aa   000000 000110
    000542  aa   000000 000177
    000543  aa   040040 040040     100  		vfd a36/    ,36/i_n,36/001,36/(rone-l_org)/5,36/0
    000544  aa   000000 000002
    000545  aa   000000 000001
    000546  aa   000000 004050
    000547  aa   000000 000000
    000550  aa   163040 040040     101  l_2:		vfd a36/s   ,36/i_r,36/r_division,36/(l_3-l_org)/5,36/0
    000551  aa   000000 000000
    000552  aa   000000 000136
    000553  aa   000000 000112
    000554  aa   000000 000000
    000555  aa   040040 040040     102  		vfd a36/    ,36/i_n,36/002,36/(rone-l_org)/5,36/0
    000556  aa   000000 000002
    000557  aa   000000 000002
    000560  aa   000000 004050
    000561  aa   000000 000000
    000562  aa   040040 040040     103  l_3:		vfd a36/    ,36/i_r,36/r_using,36/(l_4-l_org)/5,36/a_21
    000563  aa   000000 000000
    000564  aa   000000 000260
    000565  aa   000000 000115
    000566  aa   000000 000025
    000567  aa   163040 040040     104  		vfd a36/s   ,36/i_c,36/c_period,36/(pd_1-l_org)/5,36/a_274
    000570  aa   000000 000001
    000571  aa   000000 000333
    000572  aa   000000 000125
    000573  aa   000000 000422
    000574  aa   040040 040040     105  		vfd a36/    ,36/i_n,36/3,36/(pd_1-l_org)/5,36/a_286
    000575  aa   000000 000002
    000576  aa   000000 000003
    000577  aa   000000 000125
    000600  aa   000000 000436
    000601  aa   040062 040040     106  l_4:		vfd a36/ 2  ,36/i_n,36/80,36/(l_5-l_org)/5,36/13
    000602  aa   000000 000002
    000603  aa   000000 000120
    000604  aa   000000 000116
    000605  aa   000000 000015
    000606  aa   163040 040040     107  l_5:		vfd a36/s   ,36/i_c,36/c_inbit,36/(l_6-l_org)/5,36/0
    000607  aa   000000 000001
    000610  aa   000000 000001
    000611  aa   000000 000120
    000612  aa   000000 000000
    000613  aa   040040 040040     108  		vfd a36/    ,36/i_n,36/004,36/(rone-l_org)/5,36/0
    000614  aa   000000 000002
    000615  aa   000000 000004
    000616  aa   000000 004050
    000617  aa   000000 000000
    000620  aa   163157 040040     109  l_6:		vfd a36/so  ,36/i_c,36/c_lident,36/(l_7-l_org)/5,36/a_8
    000621  aa   000000 000001
    000622  aa   000000 000002
    000623  aa   000000 000122
    000624  aa   000000 000010
    000625  aa   040040 040040     110  		vfd a36/    ,36/i_n,36/005,36/(rone-l_org)/5,36/0
    000626  aa   000000 000002
    000627  aa   000000 000005
    000630  aa   000000 004050
    000631  aa   000000 000000
    000632  aa   163157 040040     111  l_7:		vfd a36/so  ,36/i_c,36/c_lident,36/(l_7-l_org)/5,36/a_8
    000633  aa   000000 000001
    000634  aa   000000 000002
    000635  aa   000000 000122
    000636  aa   000000 000010
    000637  aa   163040 040040     112  l_8:		vfd a36/s   ,36/i_c,36/c_period,36/(l_9-l_org)/5,36/a_274
    000640  aa   000000 000001
    000641  aa   000000 000333
    000642  aa   000000 000125
    000643  aa   000000 000422
    000644  aa   040040 040040     113  		vfd a36/    ,36/i_n,36/0,36/(l_9-l_org)/5,36/a_328
    000645  aa   000000 000002
    000646  aa   000000 000000
    000647  aa   000000 000125
    000650  aa   000000 000510
    000651  aa   163157 040040     114  l_9:	pd_1:	vfd a36/so  ,36/i_r,36/r_declaratives,36/(l_10-l_org)/5,36/a_133
    000652  aa   000000 000000
    000653  aa   000000 000131
    000654  aa   000000 000127
    000655  aa   000000 000205
    000656  aa   040040 040040     115  		vfd a36/    ,36/i_n,36/0,36/(nodeclp-l_org)/5,36/0
    000657  aa   000000 000002
    000660  aa   000000 000000
    000661  aa   000000 000337
    000662  aa   000000 000000
    000663  aa   040040 040040     116  l_10:		vfd a36/    ,36/i_n,36/0,36/(l_11-l_org)/5,36/a_88
    000664  aa   000000 000002
    000665  aa   000000 000000
    000666  aa   000000 000130
    000667  aa   000000 000130
    000670  aa   163040 040040     117  l_11:		vfd a36/s   ,36/i_c,36/c_period,36/(l_12-l_org)/5,36/a_274
    000671  aa   000000 000001
    000672  aa   000000 000333
    000673  aa   000000 000132
    000674  aa   000000 000422
    000675  aa   040040 040040     118  		vfd a36/    ,36/i_n,36/0,36/(l_12-l_org)/5,36/a_328
    000676  aa   000000 000002
    000677  aa   000000 000000
    000700  aa   000000 000132
    000701  aa   000000 000510
    000702  aa   163157 040040     119  l_12:		vfd a36/so  ,36/i_c,36/c_sechdr,36/(l_13-l_org)/5,36/a_128
    000703  aa   000000 000001
    000704  aa   000000 000004
    000705  aa   000000 000134
    000706  aa   000000 000200
    000707  aa   040040 040040     120  		vfd a36/    ,36/i_n,36/008,36/(rthr-l_org)/5,36/0
    000710  aa   000000 000002
    000711  aa   000000 000010
    000712  aa   000000 004072
    000713  aa   000000 000000
    000714  aa   163040 040040     121  l_13:	pd_2:	vfd a36/s   ,36/i_r,36/r_section,36/(l_14-l_org)/5,36/0
    000715  aa   000000 000000
    000716  aa   000000 000236
    000717  aa   000000 000136
    000720  aa   000000 000000
    000721  aa   040040 040040     122  		vfd a36/    ,36/i_n,36/129,36/(rthr-l_org)/5,36/0
    000722  aa   000000 000002
    000723  aa   000000 000201
    000724  aa   000000 004072
    000725  aa   000000 000000
    000726  aa   040040 040040     123  l_14:		vfd a36/    ,36/i_c,36/c_numlit,36/(l_15-l_org)/5,36/0
    000727  aa   000000 000001
    000730  aa   000000 000014
    000731  aa   000000 000140
    000732  aa   000000 000000
    000733  aa   040040 040040     124  		vfd a36/    ,36/i_n,36/0,36/(pd_3-l_org)/5,36/a_145
    000734  aa   000000 000002
    000735  aa   000000 000000
    000736  aa   000000 000143
    000737  aa   000000 000221
    000740  aa   163040 040040     125  l_15:		vfd a36/s   ,36/i_c,36/c_ckdsegnum,36/(l_16-l_org)/5,36/a_145
    000741  aa   000000 000001
    000742  aa   000000 000253
    000743  aa   000000 000142
    000744  aa   000000 000221
    000745  aa   040040 040040     126  		vfd a36/    ,36/i_n,36/245,36/(rthr-l_org)/5,36/0
    000746  aa   000000 000002
    000747  aa   000000 000365
    000750  aa   000000 004072
    000751  aa   000000 000000
    000752  aa   040040 040040     127  l_16:		vfd a36/    ,36/i_n,36/0,36/(l_17-l_org)/5,36/a_332
    000753  aa   000000 000002
    000754  aa   000000 000000
    000755  aa   000000 000143
    000756  aa   000000 000514
    000757  aa   163040 040040     128  l_17:	pd_3:	vfd a36/s   ,36/i_c,36/c_period,36/(l_18-l_org)/5,36/a_274
    000760  aa   000000 000001
    000761  aa   000000 000333
    000762  aa   000000 000145
    000763  aa   000000 000422
    000764  aa   040040 040040     129  		vfd a36/    ,36/i_n,36/0,36/(l_18-l_org)/5,36/a_328
    000765  aa   000000 000002
    000766  aa   000000 000000
    000767  aa   000000 000145
    000770  aa   000000 000510
    000771  aa   040040 040040     130  l_18:		vfd a36/    ,36/i_c,36/c_debug,36/(pd_6-l_org)/5,36/0
    000772  aa   000000 000001
    000773  aa   000000 000326
    000774  aa   000000 000153
    000775  aa   000000 000000
    000776  aa   040040 040040     131  	pd_5:	vfd a36/    ,36/i_s,36/(use-l_org)/5,36/(l_19-l_org)/5,36/0
    000777  aa   000000 000003
    001000  aa   000000 000155
    001001  aa   000000 000147
    001002  aa   000000 000000
    001003  aa   040040 040040     132  l_19:		vfd a36/    ,36/i_c,36/c_debug,36/(l_20-l_org)/5,36/0
    001004  aa   000000 000001
    001005  aa   000000 000326
    001006  aa   000000 000151
    001007  aa   000000 000000
    001010  aa   040040 040040     133  		vfd a36/    ,36/i_n,36/0,36/(proc-l_org)/5,36/0
    001011  aa   000000 000002
    001012  aa   000000 000000
    001013  aa   000000 000312
    001014  aa   000000 000000
    001015  aa   040040 040040     134  l_20:		vfd a36/    ,36/i_s,36/(imp-l_org)/5,36/(proc-l_org)/5,36/0
    001016  aa   000000 000003
    001017  aa   000000 003624
    001020  aa   000000 000312
    001021  aa   000000 000000
    001022  aa   040040 040040     135  		vfd a36/    ,36/i_n,36/0,36/(proc-l_org)/5,36/0
    001023  aa   000000 000002
    001024  aa   000000 000000
    001025  aa   000000 000312
    001026  aa   000000 000000
    001027  aa   040040 040040     136  	pd_6:	vfd a36/    ,36/i_s,36/(impseq-l_org)/5,36/(pd_5-l_org)/5,36/0
    001030  aa   000000 000003
    001031  aa   000000 003613
    001032  aa   000000 000146
    001033  aa   000000 000000
    001034  aa   040040 040040     137  		vfd a36/    ,36/i_n,36/0,36/(pd_5-l_org)/5,36/0
    001035  aa   000000 000002
    001036  aa   000000 000000
    001037  aa   000000 000146
    001040  aa   000000 000000
    001041  aa   163040 040040     138  	use:	vfd a36/s   ,36/i_r,36/r_use,36/(l_21-l_org)/5,36/a_318
    001042  aa   000000 000000
    001043  aa   000000 000047
    001044  aa   000000 000157
    001045  aa   000000 000476
    001046  aa   040040 040040     139  		vfd a36/    ,36/i_n,36/009,36/(rthr-l_org)/5,36/0
    001047  aa   000000 000002
    001050  aa   000000 000011
    001051  aa   000000 004072
    001052  aa   000000 000000
    001053  aa   163040 040040     140  l_21:		vfd a36/s   ,36/i_r,36/r_after,36/(l_22-l_org)/5,36/a_4
    001054  aa   000000 000000
    001055  aa   000000 000110
    001056  aa   000000 000163
    001057  aa   000000 000004
    001060  aa   163040 040040     141  		vfd a36/s   ,36/i_r,36/r_before,36/(use2-l_org)/5,36/0
    001061  aa   000000 000000
    001062  aa   000000 000120
    001063  aa   000000 000165
    001064  aa   000000 000000
    001065  aa   163040 040040     142  		vfd a36/s   ,36/i_r,36/r_for,36/(use3-l_org)/5,36/0
    001066  aa   000000 000000
    001067  aa   000000 000156
    001070  aa   000000 000170
    001071  aa   000000 000000
    001072  aa   040040 040040     143  		vfd a36/    ,36/i_n,36/0,36/(use3-l_org)/5,36/0
    001073  aa   000000 000002
    001074  aa   000000 000000
    001075  aa   000000 000170
    001076  aa   000000 000000
    001077  aa   163040 040040     144  l_22:		vfd a36/s   ,36/i_r,36/r_standard,36/(use4-l_org)/5,36/a_20
    001100  aa   000000 000000
    001101  aa   000000 000242
    001102  aa   000000 000175
    001103  aa   000000 000024
    001104  aa   040040 040040     145  		vfd a36/    ,36/i_n,36/0,36/(use4-l_org)/5,36/0
    001105  aa   000000 000002
    001106  aa   000000 000000
    001107  aa   000000 000175
    001110  aa   000000 000000
    001111  aa   163040 040040     146  	use2:	vfd a36/s   ,36/i_r,36/r_standard,36/(use13-l_org)/5,36/a_25
    001112  aa   000000 000000
    001113  aa   000000 000242
    001114  aa   000000 000250
    001115  aa   000000 000031
    001116  aa   163040 040040     147  		vfd a36/s   ,36/i_r,36/r_reporting,36/(use14-l_org)/5,36/a_24
    001117  aa   000000 000000
    001120  aa   000000 000231
    001121  aa   000000 000260
    001122  aa   000000 000030
    001123  aa   040040 040040     148  		vfd a36/    ,36/i_n,36/0,36/(use13-l_org)/5,36/a_13
    001124  aa   000000 000002
    001125  aa   000000 000000
    001126  aa   000000 000250
    001127  aa   000000 000015
    001130  aa   163040 040040     149  	use3:	vfd a36/s   ,36/i_r,36/r_random,36/(l_23-l_org)/5,36/a_19
    001131  aa   000000 000000
    001132  aa   000000 000223
    001133  aa   000000 000173
    001134  aa   000000 000023
    001135  aa   163040 040040     150  		vfd a36/s   ,36/i_r,36/r_debugging,36/(use18-l_org)/5,36/a_26
    001136  aa   000000 000000
    001137  aa   000000 000130
    001140  aa   000000 000264
    001141  aa   000000 000032
    001142  aa   040040 040040     151  		vfd a36/    ,36/i_n,36/010,36/(rthr-l_org)/5,36/0
    001143  aa   000000 000002
    001144  aa   000000 000012
    001145  aa   000000 004072
    001146  aa   000000 000000
    001147  aa   163040 040040     152  l_23:		vfd a36/s   ,36/i_r,36/r_processing,36/(use12-l_org)/5,36/a_94
    001150  aa   000000 000000
    001151  aa   000000 000221
    001152  aa   000000 000237
    001153  aa   000000 000136
    001154  aa   040040 040040     153  		vfd a36/    ,36/i_n,36/0,36/(use12-l_org)/5,36/a_94
    001155  aa   000000 000002
    001156  aa   000000 000000
    001157  aa   000000 000237
    001160  aa   000000 000136
    001161  aa   163040 040040     154  	use4:	vfd a36/s   ,36/i_r,36/r_error,36/(l_24-l_org)/5,36/0
    001162  aa   000000 000000
    001163  aa   000000 000003
    001164  aa   000000 000200
    001165  aa   000000 000000
    001166  aa   163040 040040     155  		vfd a36/s   ,36/i_r,36/r_exception,36/(l_24-l_org)/5,36/0
    001167  aa   000000 000000
    001170  aa   000000 000153
    001171  aa   000000 000200
    001172  aa   000000 000000
    001173  aa   040040 040040     156  		vfd a36/    ,36/i_n,36/0,36/(use13-l_org)/5,36/a_21
    001174  aa   000000 000002
    001175  aa   000000 000000
    001176  aa   000000 000250
    001177  aa   000000 000025
    001200  aa   163040 040040     157  l_24:	use5:	vfd a36/s   ,36/i_r,36/r_procedure,36/(l_25-l_org)/5,36/a_94
    001201  aa   000000 000000
    001202  aa   000000 000216
    001203  aa   000000 000202
    001204  aa   000000 000136
    001205  aa   040040 040040     158  		vfd a36/    ,36/i_n,36/001,36/(rthr-l_org)/5,36/0
    001206  aa   000000 000002
    001207  aa   000000 000001
    001210  aa   000000 004072
    001211  aa   000000 000000
    001212  aa   163040 040040     159  l_25:		vfd a36/s   ,36/i_r,36/r_on,36/(l_26-l_org)/5,36/0
    001213  aa   000000 000000
    001214  aa   000000 000206
    001215  aa   000000 000204
    001216  aa   000000 000000
    001217  aa   040040 040040     160  		vfd a36/    ,36/i_n,36/0,36/(l_26-l_org)/5,36/0
    001220  aa   000000 000002
    001221  aa   000000 000000
    001222  aa   000000 000204
    001223  aa   000000 000000
    001224  aa   040040 040040     161  l_26:		vfd a36/    ,36/i_c,36/c_filenm,36/(use22-l_org)/5,36/a_7
    001225  aa   000000 000001
    001226  aa   000000 000005
    001227  aa   000000 000212
    001230  aa   000000 000007
    001231  aa   040040 040040     162  		vfd a36/    ,36/i_r,36/r_input,36/(use7-l_org)/5,36/a_121
    001232  aa   000000 000000
    001233  aa   000000 000163
    001234  aa   000000 000225
    001235  aa   000000 000171
    001236  aa   040040 040040     163  		vfd a36/    ,36/i_r,36/r_output,36/(use8-l_org)/5,36/a_120
    001237  aa   000000 000000
    001240  aa   000000 000211
    001241  aa   000000 000227
    001242  aa   000000 000170
    001243  aa   040040 040040     164  		vfd a36/    ,36/i_r,36/r_i_o,36/(use9-l_org)/5,36/a_122
    001244  aa   000000 000000
    001245  aa   000000 000167
    001246  aa   000000 000231
    001247  aa   000000 000172
    001250  aa   040040 040040     165  		vfd a36/    ,36/i_r,36/r_extend,36/(use10-l_org)/5,36/a_319
    001251  aa   000000 000000
    001252  aa   000000 000330
    001253  aa   000000 000233
    001254  aa   000000 000477
    001255  aa   040040 040040     166  		vfd a36/    ,36/i_n,36/011,36/(rthr-l_org)/5,36/0
    001256  aa   000000 000002
    001257  aa   000000 000013
    001260  aa   000000 004072
    001261  aa   000000 000000
    001262  aa   040040 040040     167  	use22:	vfd a36/    ,36/i_n,36/0,36/(l_27-l_org)/5,36/a_12
    001263  aa   000000 000002
    001264  aa   000000 000000
    001265  aa   000000 000221
    001266  aa   000000 000014
    001267  aa   040040 040040     168  		vfd a36/    ,36/i_n,36/032,36/(rthr-l_org)/5,36/0
    001270  aa   000000 000002
    001271  aa   000000 000040
    001272  aa   000000 004072
    001273  aa   000000 000000
    001274  aa   040040 040040     169  		vfd a36/    ,36/i_n,36/0,36/(l_27-l_org)/5,36/a_319
    001275  aa   000000 000002
    001276  aa   000000 000000
    001277  aa   000000 000221
    001300  aa   000000 000477
    001301  aa   040062 040040     170  		vfd a36/ 2  ,36/i_n,36/194,36/(l_27-l_org)/5,36/17
    001302  aa   000000 000002
    001303  aa   000000 000302
    001304  aa   000000 000221
    001305  aa   000000 000021
    001306  aa   040064 040040     171  		vfd a36/ 4  ,36/i_n,36/194,36/(l_27-l_org)/5,36/19
    001307  aa   000000 000002
    001310  aa   000000 000302
    001311  aa   000000 000221
    001312  aa   000000 000023
    001313  aa   040040 040040     172  		vfd a36/    ,36/i_n,36/032,36/(rthr-l_org)/5,36/0
    001314  aa   000000 000002
    001315  aa   000000 000040
    001316  aa   000000 004072
    001317  aa   000000 000000
    001320  aa   040065 040040     173  		vfd a36/ 5  ,36/i_n,36/194,36/(l_27-l_org)/5,36/25
    001321  aa   000000 000002
    001322  aa   000000 000302
    001323  aa   000000 000221
    001324  aa   000000 000031
    001325  aa   040040 040040     174  l_27:	use6:	vfd a36/    ,36/i_c,36/c_formtlb,36/(l_28-l_org)/5,36/0
    001326  aa   000000 000001
    001327  aa   000000 000006
    001330  aa   000000 000223
    001331  aa   000000 000000
    001332  aa   040040 040040     175  		vfd a36/    ,36/i_n,36/012,36/(rthr-l_org)/5,36/0
    001333  aa   000000 000002
    001334  aa   000000 000014
    001335  aa   000000 004072
    001336  aa   000000 000000
    001337  aa   163040 040040     176  l_28:		vfd a36/s   ,36/i_c,36/c_ckerrex,36/(use11-l_org)/5,36/a_153
    001340  aa   000000 000001
    001341  aa   000000 000254
    001342  aa   000000 000236
    001343  aa   000000 000231
    001344  aa   163040 040040     177  		vfd a36/s   ,36/i_n,36/249,36/(use11-l_org)/5,36/0
    001345  aa   000000 000002
    001346  aa   000000 000371
    001347  aa   000000 000236
    001350  aa   000000 000000
    001351  aa   163040 040040     178  	use7:	vfd a36/s   ,36/i_c,36/c_ckinput,36/(use12-l_org)/5,36/a_253
    001352  aa   000000 000001
    001353  aa   000000 000255
    001354  aa   000000 000237
    001355  aa   000000 000375
    001356  aa   163040 040040     179  		vfd a36/s   ,36/i_n,36/250,36/(use12-l_org)/5,36/0
    001357  aa   000000 000002
    001360  aa   000000 000372
    001361  aa   000000 000237
    001362  aa   000000 000000
    001363  aa   163040 040040     180  	use8:	vfd a36/s   ,36/i_c,36/c_ckoutput,36/(use12-l_org)/5,36/a_254
    001364  aa   000000 000001
    001365  aa   000000 000256
    001366  aa   000000 000237
    001367  aa   000000 000376
    001370  aa   163040 040040     181  		vfd a36/s   ,36/i_n,36/250,36/(use12-l_org)/5,36/0
    001371  aa   000000 000002
    001372  aa   000000 000372
    001373  aa   000000 000237
    001374  aa   000000 000000
    001375  aa   163040 040040     182  	use9:	vfd a36/s   ,36/i_c,36/c_ckio,36/(use12-l_org)/5,36/a_255
    001376  aa   000000 000001
    001377  aa   000000 000257
    001400  aa   000000 000237
    001401  aa   000000 000377
    001402  aa   163040 040040     183  		vfd a36/s   ,36/i_n,36/250,36/(use12-l_org)/5,36/0
    001403  aa   000000 000002
    001404  aa   000000 000372
    001405  aa   000000 000237
    001406  aa   000000 000000
    001407  aa   040063 040040     184  	use10:	vfd a36/ 3  ,36/i_n,36/29,36/(l_29-l_org)/5,36/16
    001410  aa   000000 000002
    001411  aa   000000 000035
    001412  aa   000000 000234
    001413  aa   000000 000020
    001414  aa   163040 040040     185  l_29:		vfd a36/s   ,36/i_c,36/c_ckextend,36/(use12-l_org)/5,36/a_256
    001415  aa   000000 000001
    001416  aa   000000 000260
    001417  aa   000000 000237
    001420  aa   000000 000400
    001421  aa   163040 040040     186  		vfd a36/s   ,36/i_n,36/250,36/(use12-l_org)/5,36/0
    001422  aa   000000 000002
    001423  aa   000000 000372
    001424  aa   000000 000237
    001425  aa   000000 000000
    001426  aa   040040 040040     187  	use11:	vfd a36/    ,36/i_c,36/c_filenm,36/(use23-l_org)/5,36/a_8
    001427  aa   000000 000001
    001430  aa   000000 000005
    001431  aa   000000 000241
    001432  aa   000000 000010
    001433  aa   163040 040040     188  	use12:	vfd a36/s   ,36/i_c,36/c_period,36/(succ-l_org)/5,36/a_273
    001434  aa   000000 000001
    001435  aa   000000 000333
    001436  aa   000000 004110
    001437  aa   000000 000421
    001440  aa   040040 040040     189  		vfd a36/    ,36/i_n,36/0,36/(succ-l_org)/5,36/a_329
    001441  aa   000000 000002
    001442  aa   000000 000000
    001443  aa   000000 004110
    001444  aa   000000 000511
    001445  aa   040040 040040     190  	use23:	vfd a36/    ,36/i_n,36/0,36/(l_30-l_org)/5,36/a_12
    001446  aa   000000 000002
    001447  aa   000000 000000
    001450  aa   000000 000250
    001451  aa   000000 000014
    001452  aa   040040 040040     191  		vfd a36/    ,36/i_n,36/032,36/(rthr-l_org)/5,36/0
    001453  aa   000000 000002
    001454  aa   000000 000040
    001455  aa   000000 004072
    001456  aa   000000 000000
    001457  aa   040063 040040     192  		vfd a36/ 3  ,36/i_n,36/41,36/(use6-l_org)/5,36/16
    001460  aa   000000 000002
    001461  aa   000000 000051
    001462  aa   000000 000221
    001463  aa   000000 000020
    001464  aa   040063 040040     193  		vfd a36/ 3  ,36/i_n,36/41,36/(use6-l_org)/5,36/18
    001465  aa   000000 000002
    001466  aa   000000 000051
    001467  aa   000000 000221
    001470  aa   000000 000022
    001471  aa   040064 040040     194  		vfd a36/ 4  ,36/i_n,36/41,36/(use6-l_org)/5,36/20
    001472  aa   000000 000002
    001473  aa   000000 000051
    001474  aa   000000 000221
    001475  aa   000000 000024
    001476  aa   040040 040040     195  		vfd a36/    ,36/i_n,36/032,36/(rthr-l_org)/5,36/0
    001477  aa   000000 000002
    001500  aa   000000 000040
    001501  aa   000000 004072
    001502  aa   000000 000000
    001503  aa   040065 040040     196  		vfd a36/ 5  ,36/i_n,36/41,36/(use6-l_org)/5,36/26
    001504  aa   000000 000002
    001505  aa   000000 000051
    001506  aa   000000 000221
    001507  aa   000000 000032
    001510  aa   163040 040040     197  l_30:	use13:	vfd a36/s   ,36/i_r,36/r_beginning,36/(l_31-l_org)/5,36/a_14
    001511  aa   000000 000000
    001512  aa   000000 000121
    001513  aa   000000 000252
    001514  aa   000000 000016
    001515  aa   163040 040040     198  		vfd a36/s   ,36/i_r,36/r_ending,36/(l_31-l_org)/5,36/a_18
    001516  aa   000000 000000
    001517  aa   000000 000143
    001520  aa   000000 000252
    001521  aa   000000 000022
    001522  aa   163040 040040     199  l_31:		vfd a36/s   ,36/i_r,36/r_reel,36/(l_32-l_org)/5,36/a_15
    001523  aa   000000 000000
    001524  aa   000000 000225
    001525  aa   000000 000256
    001526  aa   000000 000017
    001527  aa   163040 040040     200  		vfd a36/s   ,36/i_r,36/r_file,36/(l_32-l_org)/5,36/a_16
    001530  aa   000000 000000
    001531  aa   000000 000154
    001532  aa   000000 000256
    001533  aa   000000 000020
    001534  aa   163040 040040     201  		vfd a36/s   ,36/i_r,36/r_unit,36/(l_32-l_org)/5,36/a_17
    001535  aa   000000 000000
    001536  aa   000000 000254
    001537  aa   000000 000256
    001540  aa   000000 000021
    001541  aa   040040 040040     202  		vfd a36/    ,36/i_n,36/0,36/(l_32-l_org)/5,36/0
    001542  aa   000000 000002
    001543  aa   000000 000000
    001544  aa   000000 000256
    001545  aa   000000 000000
    001546  aa   163040 040040     203  l_32:		vfd a36/s   ,36/i_r,36/r_label,36/(use5-l_org)/5,36/0
    001547  aa   000000 000000
    001550  aa   000000 000171
    001551  aa   000000 000200
    001552  aa   000000 000000
    001553  aa   040040 040040     204  		vfd a36/    ,36/i_n,36/013,36/(rthr-l_org)/5,36/0
    001554  aa   000000 000002
    001555  aa   000000 000015
    001556  aa   000000 004072
    001557  aa   000000 000000
    001560  aa   163040 040040     205  	use14:	vfd a36/s   ,36/i_c,36/c_repnm,36/(l_33-l_org)/5,36/a_8
    001561  aa   000000 000001
    001562  aa   000000 000033
    001563  aa   000000 000262
    001564  aa   000000 000010
    001565  aa   040040 040040     206  		vfd a36/    ,36/i_n,36/14,36/(rtwo-l_org)/5,36/0
    001566  aa   000000 000002
    001567  aa   000000 000016
    001570  aa   000000 004060
    001571  aa   000000 000000
    001572  aa   163040 040040     207  l_33:		vfd a36/s   ,36/i_c,36/c_repnm,36/(l_33-l_org)/5,36/a_8
    001573  aa   000000 000001
    001574  aa   000000 000033
    001575  aa   000000 000262
    001576  aa   000000 000010
    001577  aa   040040 040040     208  		vfd a36/    ,36/i_n,36/0,36/(use12-l_org)/5,36/a_94
    001600  aa   000000 000002
    001601  aa   000000 000000
    001602  aa   000000 000237
    001603  aa   000000 000136
    001604  aa   163040 040040     209  	use18:	vfd a36/s   ,36/i_r,36/r_on,36/(l_34-l_org)/5,36/0
    001605  aa   000000 000000
    001606  aa   000000 000206
    001607  aa   000000 000265
    001610  aa   000000 000000
    001611  aa   040040 040040     210  l_34:		vfd a36/    ,36/i_c,36/c_deswz,36/(l_35-l_org)/5,36/0
    001612  aa   000000 000001
    001613  aa   000000 000126
    001614  aa   000000 000267
    001615  aa   000000 000000
    001616  aa   040040 040040     211  		vfd a36/    ,36/i_n,36/0,36/(rthr-l_org)/5,36/0
    001617  aa   000000 000002
    001620  aa   000000 000000
    001621  aa   000000 004072
    001622  aa   000000 000000
    001623  aa   163040 040040     212  l_35:		vfd a36/s   ,36/i_c,36/c_cdname,36/(l_36-l_org)/5,36/a_8
    001624  aa   000000 000001
    001625  aa   000000 000127
    001626  aa   000000 000275
    001627  aa   000000 000010
    001630  aa   163040 040040     213  		vfd a36/s   ,36/i_c,36/c_prnm,36/(l_36-l_org)/5,36/a_8
    001631  aa   000000 000001
    001632  aa   000000 000016
    001633  aa   000000 000275
    001634  aa   000000 000010
    001635  aa   163040 040040     214  		vfd a36/s   ,36/i_c,36/c_file,36/(l_36-l_org)/5,36/a_8
    001636  aa   000000 000001
    001637  aa   000000 000103
    001640  aa   000000 000275
    001641  aa   000000 000010
    001642  aa   163040 040040     215  		vfd a36/s   ,36/i_c,36/c_dana,36/(use1-l_org)/5,36/0
    001643  aa   000000 000001
    001644  aa   000000 000130
    001645  aa   000000 000310
    001646  aa   000000 000000
    001647  aa   163040 040040     216  		vfd a36/s   ,36/i_r,36/r_all,36/(use21-l_org)/5,36/0
    001650  aa   000000 000000
    001651  aa   000000 000111
    001652  aa   000000 000303
    001653  aa   000000 000000
    001654  aa   040040 040040     217  		vfd a36/    ,36/i_n,36/141,36/(rthr-l_org)/5,36/0
    001655  aa   000000 000002
    001656  aa   000000 000215
    001657  aa   000000 004072
    001660  aa   000000 000000
    001661  aa   163040 040040     218  l_36:	use20:	vfd a36/s   ,36/i_c,36/c_cdname,36/(use20-l_org)/5,36/a_8
    001662  aa   000000 000001
    001663  aa   000000 000127
    001664  aa   000000 000275
    001665  aa   000000 000010
    001666  aa   163040 040040     219  		vfd a36/s   ,36/i_c,36/c_prnm,36/(use20-l_org)/5,36/a_8
    001667  aa   000000 000001
    001670  aa   000000 000016
    001671  aa   000000 000275
    001672  aa   000000 000010
    001673  aa   163040 040040     220  		vfd a36/s   ,36/i_c,36/c_file,36/(use20-l_org)/5,36/a_8
    001674  aa   000000 000001
    001675  aa   000000 000103
    001676  aa   000000 000275
    001677  aa   000000 000010
    001700  aa   163040 040040     221  		vfd a36/s   ,36/i_c,36/c_dana,36/(use1-l_org)/5,36/0
    001701  aa   000000 000001
    001702  aa   000000 000130
    001703  aa   000000 000310
    001704  aa   000000 000000
    001705  aa   163040 040040     222  		vfd a36/s   ,36/i_r,36/r_all,36/(l_37-l_org)/5,36/0
    001706  aa   000000 000000
    001707  aa   000000 000111
    001710  aa   000000 000303
    001711  aa   000000 000000
    001712  aa   040040 040040     223  		vfd a36/    ,36/i_n,36/0,36/(use12-l_org)/5,36/0
    001713  aa   000000 000002
    001714  aa   000000 000000
    001715  aa   000000 000237
    001716  aa   000000 000000
    001717  aa   163040 040040     224  l_37:	use21:	vfd a36/s   ,36/i_r,36/r_procedures,36/(use20-l_org)/5,36/a_8
    001720  aa   000000 000000
    001721  aa   000000 000217
    001722  aa   000000 000275
    001723  aa   000000 000010
    001724  aa   163040 040040     225  		vfd a36/s   ,36/i_r,36/r_references,36/(l_38-l_org)/5,36/0
    001725  aa   000000 000000
    001726  aa   000000 000226
    001727  aa   000000 000305
    001730  aa   000000 000000
    001731  aa   163040 040040     226  l_38:		vfd a36/s   ,36/i_r,36/r_of,36/(l_39-l_org)/5,36/0
    001732  aa   000000 000000
    001733  aa   000000 000205
    001734  aa   000000 000306
    001735  aa   000000 000000
    001736  aa   163040 040040     227  l_39:		vfd a36/s   ,36/i_c,36/c_dana,36/(l_40-l_org)/5,36/a_95
    001737  aa   000000 000001
    001740  aa   000000 000130
    001741  aa   000000 000310
    001742  aa   000000 000137
    001743  aa   040040 040040     228  		vfd a36/    ,36/i_n,36/185,36/(rthr-l_org)/5,36/0
    001744  aa   000000 000002
    001745  aa   000000 000271
    001746  aa   000000 004072
    001747  aa   000000 000000
    001750  aa   163040 040040     229  l_40:	use1:	vfd a36/s   ,36/i_c,36/c_nonumlit,36/(use20-l_org)/5,36/a_8
    001751  aa   000000 000001
    001752  aa   000000 000017
    001753  aa   000000 000275
    001754  aa   000000 000010
    001755  aa   040040 040040     230  		vfd a36/    ,36/i_n,36/0,36/(use20-l_org)/5,36/a_8
    001756  aa   000000 000002
    001757  aa   000000 000000
    001760  aa   000000 000275
    001761  aa   000000 000010
    001762  aa   163157 040040     231  	proc:	vfd a36/so  ,36/i_c,36/c_sechdr,36/(pd_2-l_org)/5,36/a_128
    001763  aa   000000 000001
    001764  aa   000000 000004
    001765  aa   000000 000134
    001766  aa   000000 000200
    001767  aa   163157 040040     232  		vfd a36/so  ,36/i_c,36/c_paranm,36/(sec3-l_org)/5,36/a_129
    001770  aa   000000 000001
    001771  aa   000000 000010
    001772  aa   000000 000360
    001773  aa   000000 000201
    001774  aa   163157 040040     233  		vfd a36/so  ,36/i_c,36/c_enddec,36/(l_41-l_org)/5,36/a_300
    001775  aa   000000 000001
    001776  aa   000000 000163
    001777  aa   000000 000317
    002000  aa   000000 000454
    002001  aa   163157 040040     234  		vfd a36/so  ,36/i_c,36/c_endcob,36/(proc1-l_org)/5,36/a_300
    002002  aa   000000 000001
    002003  aa   000000 000047
    002004  aa   000000 000322
    002005  aa   000000 000454
    002006  aa   040040 040040     235  		vfd a36/    ,36/i_n,36/131,36/(rtwo-l_org)/5,36/0
    002007  aa   000000 000002
    002010  aa   000000 000203
    002011  aa   000000 004060
    002012  aa   000000 000000
    002013  aa   163040 040040     236  l_41:		vfd a36/s   ,36/i_n,36/0,36/(l_42-l_org)/5,36/a_4
    002014  aa   000000 000002
    002015  aa   000000 000000
    002016  aa   000000 000320
    002017  aa   000000 000004
    002020  aa   163040 040040     237  l_42:		vfd a36/s   ,36/i_c,36/c_period,36/(proc3-l_org)/5,36/a_274
    002021  aa   000000 000001
    002022  aa   000000 000333
    002023  aa   000000 000331
    002024  aa   000000 000422
    002025  aa   040040 040040     238  		vfd a36/    ,36/i_n,36/0,36/(proc3-l_org)/5,36/a_328
    002026  aa   000000 000002
    002027  aa   000000 000000
    002030  aa   000000 000331
    002031  aa   000000 000510
    002032  aa   040040 040040     239  	proc1:	vfd a36/    ,36/i_n,36/017,36/(l_43-l_org)/5,36/0
    002033  aa   000000 000002
    002034  aa   000000 000021
    002035  aa   000000 000323
    002036  aa   000000 000000
    002037  aa   040157 040040     240  l_43:	proc2:	vfd a36/ o  ,36/i_n,36/0,36/(l_44-l_org)/5,36/a_273
    002040  aa   000000 000002
    002041  aa   000000 000000
    002042  aa   000000 000324
    002043  aa   000000 000421
    002044  aa   163040 040040     241  l_44:		vfd a36/s   ,36/i_n,36/0,36/(l_45-l_org)/5,36/a_3
    002045  aa   000000 000002
    002046  aa   000000 000000
    002047  aa   000000 000325
    002050  aa   000000 000003
    002051  aa   040040 040040     242  l_45:		vfd a36/    ,36/i_n,36/0,36/(l_46-l_org)/5,36/a_251
    002052  aa   000000 000002
    002053  aa   000000 000000
    002054  aa   000000 000326
    002055  aa   000000 000373
    002056  aa   163040 040040     243  l_46:		vfd a36/s   ,36/i_c,36/c_period,36/(l_47-l_org)/5,36/a_273
    002057  aa   000000 000001
    002060  aa   000000 000333
    002061  aa   000000 000327
    002062  aa   000000 000421
    002063  aa   163040 040040     244  l_47:		vfd a36/s   ,36/i_c,36/c_cktp25,36/(palp_3-l_org)/5,36/0
    002064  aa   000000 000001
    002065  aa   000000 000242
    002066  aa   000000 000372
    002067  aa   000000 000000
    002070  aa   040040 040040     245  l_48:		vfd a36/    ,36/i_n,36/0,36/(l_48-l_org)/5,36/a_endjob
    002071  aa   000000 000002
    002072  aa   000000 000000
    002073  aa   000000 000330
    002074  aa   000000 000212
    002075  aa   040040 040040     246  	proc3:	vfd a36/    ,36/i_n,36/0,36/(l_49-l_org)/5,36/a_96
    002076  aa   000000 000002
    002077  aa   000000 000000
    002100  aa   000000 000332
    002101  aa   000000 000140
    002102  aa   040040 040040     247  l_49:		vfd a36/    ,36/i_c,36/c_debug,36/(proc5-l_org)/5,36/0
    002103  aa   000000 000001
    002104  aa   000000 000326
    002105  aa   000000 000335
    002106  aa   000000 000000
    002107  aa   163157 040040     248  	proc4:	vfd a36/so  ,36/i_c,36/c_sechdr,36/(sec-l_org)/5,36/a_128
    002110  aa   000000 000001
    002111  aa   000000 000004
    002112  aa   000000 000341
    002113  aa   000000 000200
    002114  aa   040040 040040     249  		vfd a36/    ,36/i_n,36/008,36/(rtwo-l_org)/5,36/0
    002115  aa   000000 000002
    002116  aa   000000 000010
    002117  aa   000000 004060
    002120  aa   000000 000000
    002121  aa   040040 040040     250  	proc5:	vfd a36/    ,36/i_s,36/(impseq-l_org)/5,36/(proc4-l_org)/5,36/0
    002122  aa   000000 000003
    002123  aa   000000 003613
    002124  aa   000000 000333
    002125  aa   000000 000000
    002126  aa   040040 040040     251  		vfd a36/    ,36/i_n,36/0,36/(proc4-l_org)/5,36/0
    002127  aa   000000 000002
    002130  aa   000000 000000
    002131  aa   000000 000333
    002132  aa   000000 000000
    002133  aa   163157 040040     252  	nodeclp:	vfd a36/so  ,36/i_c,36/c_sechdr,36/(sec-l_org)/5,36/a_128
    002134  aa   000000 000001
    002135  aa   000000 000004
    002136  aa   000000 000341
    002137  aa   000000 000200
    002140  aa   040040 040040     253  		vfd a36/    ,36/i_n,36/0,36/(sec2-l_org)/5,36/0
    002141  aa   000000 000002
    002142  aa   000000 000000
    002143  aa   000000 000356
    002144  aa   000000 000000
    002145  aa   163040 040040     254  	sec:	vfd a36/s   ,36/i_r,36/r_section,36/(l_50-l_org)/5,36/a_89
    002146  aa   000000 000000
    002147  aa   000000 000236
    002150  aa   000000 000343
    002151  aa   000000 000131
    002152  aa   040040 040040     255  		vfd a36/    ,36/i_n,36/129,36/(rfiv-l_org)/5,36/0
    002153  aa   000000 000002
    002154  aa   000000 000201
    002155  aa   000000 004106
    002156  aa   000000 000000
    002157  aa   040040 040040     256  l_50:		vfd a36/    ,36/i_c,36/c_numlit,36/(l_51-l_org)/5,36/0
    002160  aa   000000 000001
    002161  aa   000000 000014
    002162  aa   000000 000345
    002163  aa   000000 000000
    002164  aa   040040 040040     257  		vfd a36/    ,36/i_n,36/0,36/(sec1-l_org)/5,36/0
    002165  aa   000000 000002
    002166  aa   000000 000000
    002167  aa   000000 000350
    002170  aa   000000 000000
    002171  aa   163040 040040     258  l_51:		vfd a36/s   ,36/i_c,36/c_prnum,36/(l_52-l_org)/5,36/0
    002172  aa   000000 000001
    002173  aa   000000 000012
    002174  aa   000000 000347
    002175  aa   000000 000000
    002176  aa   040040 040040     259  		vfd a36/    ,36/i_n,36/247,36/(rtwo-l_org)/5,36/0
    002177  aa   000000 000002
    002200  aa   000000 000367
    002201  aa   000000 004060
    002202  aa   000000 000000
    002203  aa   040040 040040     260  l_52:		vfd a36/    ,36/i_n,36/0,36/(l_53-l_org)/5,36/a_332
    002204  aa   000000 000002
    002205  aa   000000 000000
    002206  aa   000000 000350
    002207  aa   000000 000514
    002210  aa   163040 040040     261  l_53:	sec1:	vfd a36/s   ,36/i_c,36/c_period,36/(l_54-l_org)/5,36/a_274
    002211  aa   000000 000001
    002212  aa   000000 000333
    002213  aa   000000 000352
    002214  aa   000000 000422
    002215  aa   040040 040040     262  		vfd a36/    ,36/i_n,36/0,36/(l_54-l_org)/5,36/a_328
    002216  aa   000000 000002
    002217  aa   000000 000000
    002220  aa   000000 000352
    002221  aa   000000 000510
    002222  aa   040040 040040     263  l_54:		vfd a36/    ,36/i_c,36/c_debug,36/(l_55-l_org)/5,36/0
    002223  aa   000000 000001
    002224  aa   000000 000326
    002225  aa   000000 000354
    002226  aa   000000 000000
    002227  aa   040040 040040     264  		vfd a36/    ,36/i_n,36/0,36/(nodeclp-l_org)/5,36/0
    002230  aa   000000 000002
    002231  aa   000000 000000
    002232  aa   000000 000337
    002233  aa   000000 000000
    002234  aa   040040 040040     265  l_55:	sec4:	vfd a36/    ,36/i_s,36/(impseq-l_org)/5,36/(nodeclp-l_org)/5,36/0
    002235  aa   000000 000003
    002236  aa   000000 003613
    002237  aa   000000 000337
    002240  aa   000000 000000
    002241  aa   040040 040040     266  		vfd a36/    ,36/i_n,36/0,36/(nodeclp-l_org)/5,36/0
    002242  aa   000000 000002
    002243  aa   000000 000000
    002244  aa   000000 000337
    002245  aa   000000 000000
    002246  aa   163157 040040     267  	sec2:	vfd a36/so  ,36/i_c,36/c_paranm,36/(l_56-l_org)/5,36/a_129
    002247  aa   000000 000001
    002250  aa   000000 000010
    002251  aa   000000 000360
    002252  aa   000000 000201
    002253  aa   040040 040040     268  		vfd a36/    ,36/i_n,36/0,36/(sec5-l_org)/5,36/0
    002254  aa   000000 000002
    002255  aa   000000 000000
    002256  aa   000000 000362
    002257  aa   000000 000000
    002260  aa   163040 040040     269  l_56:	sec3:	vfd a36/s   ,36/i_c,36/c_period,36/(palp-l_org)/5,36/a_274
    002261  aa   000000 000001
    002262  aa   000000 000333
    002263  aa   000000 000364
    002264  aa   000000 000422
    002265  aa   040040 040040     270  		vfd a36/    ,36/i_n,36/0,36/(palp-l_org)/5,36/a_328
    002266  aa   000000 000002
    002267  aa   000000 000000
    002270  aa   000000 000364
    002271  aa   000000 000510
    002272  aa   163157 040040     271  	sec5:	vfd a36/so  ,36/i_c,36/c_endcob,36/(proc2-l_org)/5,36/a_300
    002273  aa   000000 000001
    002274  aa   000000 000047
    002275  aa   000000 000323
    002276  aa   000000 000454
    002277  aa   040040 040040     272  		vfd a36/    ,36/i_n,36/131,36/(rtwo-l_org)/5,36/0
    002300  aa   000000 000002
    002301  aa   000000 000203
    002302  aa   000000 004060
    002303  aa   000000 000000
    002304  aa   163157 040040     273  	palp:	vfd a36/so  ,36/i_r,36/r_go,36/(palp_1-l_org)/5,36/a_87
    002305  aa   000000 000000
    002306  aa   000000 000016
    002307  aa   000000 000403
    002310  aa   000000 000127
    002311  aa   163157 040040     274  		vfd a36/so  ,36/i_r,36/r_exit,36/(palp_2-l_org)/5,36/a_318
    002312  aa   000000 000000
    002313  aa   000000 000014
    002314  aa   000000 000405
    002315  aa   000000 000476
    002316  aa   040040 040040     275  		vfd a36/    ,36/i_n,36/0,36/(palp_3-l_org)/5,36/0
    002317  aa   000000 000002
    002320  aa   000000 000000
    002321  aa   000000 000372
    002322  aa   000000 000000
    002323  aa   163157 040040     276  	palp_3a:	vfd a36/so  ,36/i_c,36/c_endcob,36/(proc2-l_org)/5,36/a_300
    002324  aa   000000 000001
    002325  aa   000000 000047
    002326  aa   000000 000323
    002327  aa   000000 000454
    002330  aa   163157 040040     277  		vfd a36/so  ,36/i_c,36/c_sechdr,36/(palp_11-l_org)/5,36/a_128
    002331  aa   000000 000001
    002332  aa   000000 000004
    002333  aa   000000 000447
    002334  aa   000000 000200
    002335  aa   163157 040040     278  		vfd a36/so  ,36/i_c,36/c_paranm,36/(sec3-l_org)/5,36/a_129
    002336  aa   000000 000001
    002337  aa   000000 000010
    002340  aa   000000 000360
    002341  aa   000000 000201
    002342  aa   040040 040040     279  	palp_3:	vfd a36/    ,36/i_s,36/(imp-l_org)/5,36/(palp_10-l_org)/5,36/a_195
    002343  aa   000000 000003
    002344  aa   000000 003624
    002345  aa   000000 000445
    002346  aa   000000 000303
    002347  aa   163157 040040     280  		vfd a36/so  ,36/i_c,36/c_paranm,36/(sec3-l_org)/5,36/a_129
    002350  aa   000000 000001
    002351  aa   000000 000010
    002352  aa   000000 000360
    002353  aa   000000 000201
    002354  aa   040040 040040     281  		vfd a36/    ,36/i_c,36/c_deswon,36/(proc-l_org)/5,36/0
    002355  aa   000000 000001
    002356  aa   000000 000132
    002357  aa   000000 000312
    002360  aa   000000 000000
    002361  aa   163157 040040     282  		vfd a36/so  ,36/i_c,36/c_sechdr,36/(palp_11-l_org)/5,36/a_128
    002362  aa   000000 000001
    002363  aa   000000 000004
    002364  aa   000000 000447
    002365  aa   000000 000200
    002366  aa   163040 040040     283  		vfd a36/s   ,36/i_c,36/c_period,36/(palp_3-l_org)/5,36/a_273
    002367  aa   000000 000001
    002370  aa   000000 000333
    002371  aa   000000 000372
    002372  aa   000000 000421
    002373  aa   163157 040040     284  		vfd a36/so  ,36/i_c,36/c_endcob,36/(proc2-l_org)/5,36/a_300
    002374  aa   000000 000001
    002375  aa   000000 000047
    002376  aa   000000 000323
    002377  aa   000000 000454
    002400  aa   040040 040040     285  		vfd a36/    ,36/i_c,36/c_amarg,36/(l_57-l_org)/5,36/0
    002401  aa   000000 000001
    002402  aa   000000 000311
    002403  aa   000000 000402
    002404  aa   000000 000000
    002405  aa   040040 040040     286  		vfd a36/    ,36/i_n,36/133,36/(rtwo-l_org)/5,36/0
    002406  aa   000000 000002
    002407  aa   000000 000205
    002410  aa   000000 004060
    002411  aa   000000 000000
    002412  aa   040040 040040     287  l_57:		vfd a36/    ,36/i_n,36/251,36/(rtwo-l_org)/5,36/0
    002413  aa   000000 000002
    002414  aa   000000 000373
    002415  aa   000000 004060
    002416  aa   000000 000000
    002417  aa   163040 040040     288  	palp_1:	vfd a36/s   ,36/i_r,36/r_to,36/(palp_5-l_org)/5,36/0
    002420  aa   000000 000000
    002421  aa   000000 000252
    002422  aa   000000 000411
    002423  aa   000000 000000
    002424  aa   040040 040040     289  		vfd a36/    ,36/i_n,36/0,36/(palp_5-l_org)/5,36/0
    002425  aa   000000 000002
    002426  aa   000000 000000
    002427  aa   000000 000411
    002430  aa   000000 000000
    002431  aa   040040 040040     290  	palp_2:	vfd a36/    ,36/i_r,36/r_program,36/(palp_15-l_org)/5,36/a_37
    002432  aa   000000 000000
    002433  aa   000000 000222
    002434  aa   000000 000410
    002435  aa   000000 000045
    002436  aa   040040 040040     291  		vfd a36/    ,36/i_n,36/0,36/(l_58-l_org)/5,36/a_319
    002437  aa   000000 000002
    002440  aa   000000 000000
    002441  aa   000000 000407
    002442  aa   000000 000477
    002443  aa   040040 040040     292  l_58:		vfd a36/    ,36/i_n,36/0,36/(palp_9-l_org)/5,36/a_3
    002444  aa   000000 000002
    002445  aa   000000 000000
    002446  aa   000000 000443
    002447  aa   000000 000003
    002450  aa   163062 040040     293  	palp_15:	vfd a36/s2  ,36/i_n,36/69,36/(palp_9-l_org)/5,36/13
    002451  aa   000000 000002
    002452  aa   000000 000105
    002453  aa   000000 000443
    002454  aa   000000 000015
    002455  aa   040040 040040     294  	palp_5:	vfd a36/    ,36/i_c,36/c_prnm,36/(l_59-l_org)/5,36/a_8
    002456  aa   000000 000001
    002457  aa   000000 000016
    002460  aa   000000 000414
    002461  aa   000000 000010
    002462  aa   163040 040040     295  		vfd a36/s   ,36/i_c,36/c_period,36/(palp_6-l_org)/5,36/a_275
    002463  aa   000000 000001
    002464  aa   000000 000333
    002465  aa   000000 000422
    002466  aa   000000 000423
    002467  aa   040040 040040     296  		vfd a36/    ,36/i_n,36/0,36/(palp_6-l_org)/5,36/a_330
    002470  aa   000000 000002
    002471  aa   000000 000000
    002472  aa   000000 000422
    002473  aa   000000 000512
    002474  aa   040040 040040     297  l_59:		vfd a36/    ,36/i_n,36/0,36/(l_60-l_org)/5,36/a_272
    002475  aa   000000 000002
    002476  aa   000000 000000
    002477  aa   000000 000415
    002500  aa   000000 000420
    002501  aa   163157 040040     298  l_60:		vfd a36/so  ,36/i_c,36/c_decnondec,36/(l_61-l_org)/5,36/0
    002502  aa   000000 000001
    002503  aa   000000 000227
    002504  aa   000000 000417
    002505  aa   000000 000000
    002506  aa   040040 040040     299  		vfd a36/    ,36/i_n,36/188,36/(rtwo-l_org)/5,36/0
    002507  aa   000000 000002
    002510  aa   000000 000274
    002511  aa   000000 004060
    002512  aa   000000 000000
    002513  aa   163040 040040     300  l_61:		vfd a36/s   ,36/i_c,36/c_period,36/(palp_6-l_org)/5,36/a_274
    002514  aa   000000 000001
    002515  aa   000000 000333
    002516  aa   000000 000422
    002517  aa   000000 000422
    002520  aa   040040 040040     301  		vfd a36/    ,36/i_c,36/c_prnm,36/(palp_8-l_org)/5,36/a_8
    002521  aa   000000 000001
    002522  aa   000000 000016
    002523  aa   000000 000427
    002524  aa   000000 000010
    002525  aa   040040 040040     302  		vfd a36/    ,36/i_n,36/0,36/(palp_6-l_org)/5,36/a_331
    002526  aa   000000 000002
    002527  aa   000000 000000
    002530  aa   000000 000422
    002531  aa   000000 000513
    002532  aa   040040 040040     303  	palp_6:	vfd a36/    ,36/i_c,36/c_prdef,36/(palp-l_org)/5,36/0
    002533  aa   000000 000001
    002534  aa   000000 000010
    002535  aa   000000 000364
    002536  aa   000000 000000
    002537  aa   040040 040040     304  		vfd a36/    ,36/i_c,36/c_sechdr,36/(palp-l_org)/5,36/0
    002540  aa   000000 000001
    002541  aa   000000 000004
    002542  aa   000000 000364
    002543  aa   000000 000000
    002544  aa   040040 040040     305  		vfd a36/    ,36/i_c,36/c_endcob,36/(palp-l_org)/5,36/0
    002545  aa   000000 000001
    002546  aa   000000 000047
    002547  aa   000000 000364
    002550  aa   000000 000000
    002551  aa   040040 040040     306  		vfd a36/    ,36/i_c,36/c_enddec,36/(palp-l_org)/5,36/0
    002552  aa   000000 000001
    002553  aa   000000 000163
    002554  aa   000000 000364
    002555  aa   000000 000000
    002556  aa   040040 040040     307  		vfd a36/    ,36/i_n,36/125,36/(rtwo-l_org)/5,36/0
    002557  aa   000000 000002
    002560  aa   000000 000175
    002561  aa   000000 004060
    002562  aa   000000 000000
    002563  aa   040040 040040     308  	palp_8:	vfd a36/    ,36/i_n,36/0,36/(l_62-l_org)/5,36/a_272
    002564  aa   000000 000002
    002565  aa   000000 000000
    002566  aa   000000 000430
    002567  aa   000000 000420
    002570  aa   163157 040040     309  l_62:		vfd a36/so  ,36/i_c,36/c_decnondec,36/(l_63-l_org)/5,36/0
    002571  aa   000000 000001
    002572  aa   000000 000227
    002573  aa   000000 000432
    002574  aa   000000 000000
    002575  aa   040040 040040     310  		vfd a36/    ,36/i_n,36/188,36/(rtwo-l_org)/5,36/0
    002576  aa   000000 000002
    002577  aa   000000 000274
    002600  aa   000000 004060
    002601  aa   000000 000000
    002602  aa   040040 040040     311  l_63:		vfd a36/    ,36/i_c,36/c_prnm,36/(palp_8-l_org)/5,36/a_8
    002603  aa   000000 000001
    002604  aa   000000 000016
    002605  aa   000000 000427
    002606  aa   000000 000010
    002607  aa   163040 040040     312  		vfd a36/s   ,36/i_r,36/r_depending,36/(l_64-l_org)/5,36/a_21
    002610  aa   000000 000000
    002611  aa   000000 000134
    002612  aa   000000 000435
    002613  aa   000000 000025
    002614  aa   040040 040040     313  		vfd a36/    ,36/i_n,36/044,36/(rtwo-l_org)/5,36/0
    002615  aa   000000 000002
    002616  aa   000000 000054
    002617  aa   000000 004060
    002620  aa   000000 000000
    002621  aa   163040 040040     314  l_64:		vfd a36/s   ,36/i_r,36/r_on,36/(l_65-l_org)/5,36/0
    002622  aa   000000 000000
    002623  aa   000000 000206
    002624  aa   000000 000437
    002625  aa   000000 000000
    002626  aa   040040 040040     315  		vfd a36/    ,36/i_n,36/0,36/(l_65-l_org)/5,36/0
    002627  aa   000000 000002
    002630  aa   000000 000000
    002631  aa   000000 000437
    002632  aa   000000 000000
    002633  aa   163157 040040     316  l_65:		vfd a36/so  ,36/i_s,36/(elnumint-l_org)/5,36/(l_66-l_org)/5,36/0
    002634  aa   000000 000003
    002635  aa   000000 003533
    002636  aa   000000 000441
    002637  aa   000000 000000
    002640  aa   040040 040040     317  		vfd a36/    ,36/i_n,36/045,36/(rtwo-l_org)/5,36/0
    002641  aa   000000 000002
    002642  aa   000000 000055
    002643  aa   000000 004060
    002644  aa   000000 000000
    002645  aa   163040 040040     318  l_66:		vfd a36/s   ,36/i_c,36/c_period,36/(palp_3-l_org)/5,36/a_274
    002646  aa   000000 000001
    002647  aa   000000 000333
    002650  aa   000000 000372
    002651  aa   000000 000422
    002652  aa   040040 040040     319  		vfd a36/    ,36/i_n,36/0,36/(palp_3a-l_org)/5,36/a_274
    002653  aa   000000 000002
    002654  aa   000000 000000
    002655  aa   000000 000367
    002656  aa   000000 000422
    002657  aa   163040 040040     320  	palp_9:	vfd a36/s   ,36/i_c,36/c_period,36/(palp_6-l_org)/5,36/a_273
    002660  aa   000000 000001
    002661  aa   000000 000333
    002662  aa   000000 000422
    002663  aa   000000 000421
    002664  aa   040040 040040     321  		vfd a36/    ,36/i_n,36/007,36/(palp_6-l_org)/5,36/0
    002665  aa   000000 000002
    002666  aa   000000 000007
    002667  aa   000000 000422
    002670  aa   000000 000000
    002671  aa   163040 040040     322  	palp_10:	vfd a36/s   ,36/i_c,36/c_period,36/(palp_3-l_org)/5,36/a_273
    002672  aa   000000 000001
    002673  aa   000000 000333
    002674  aa   000000 000372
    002675  aa   000000 000421
    002676  aa   040040 040040     323  		vfd a36/    ,36/i_n,36/0,36/(palp_3a-l_org)/5,36/0
    002677  aa   000000 000002
    002700  aa   000000 000000
    002701  aa   000000 000367
    002702  aa   000000 000000
    002703  aa   040040 040040     324  	palp_11:	vfd a36/    ,36/i_c,36/c_debug,36/(sec-l_org)/5,36/0
    002704  aa   000000 000001
    002705  aa   000000 000326
    002706  aa   000000 000341
    002707  aa   000000 000000
    002710  aa   040040 040040     325  		vfd a36/    ,36/i_c,36/c_secsw,36/(sec-l_org)/5,36/0
    002711  aa   000000 000001
    002712  aa   000000 000124
    002713  aa   000000 000341
    002714  aa   000000 000000
    002715  aa   040040 040040     326  		vfd a36/    ,36/i_n,36/132,36/(sec-l_org)/5,36/0
    002716  aa   000000 000002
    002717  aa   000000 000204
    002720  aa   000000 000341
    002721  aa   000000 000000
    002722  aa   163157 040040     327  	accept:	vfd a36/so  ,36/i_r,36/r_accept,36/(l_67-l_org)/5,36/a_318
    002723  aa   000000 000000
    002724  aa   000000 000001
    002725  aa   000000 000453
    002726  aa   000000 000476
    002727  aa   163157 040040     328  l_67:		vfd a36/so  ,36/i_s,36/(rid-l_org)/5,36/(acc3-l_org)/5,36/a_28
    002730  aa   000000 000003
    002731  aa   000000 003514
    002732  aa   000000 000461
    002733  aa   000000 000034
    002734  aa   163157 040040     329  		vfd a36/so  ,36/i_c,36/c_incdnm,36/(acc1-l_org)/5,36/a_21
    002735  aa   000000 000001
    002736  aa   000000 000022
    002737  aa   000000 000476
    002740  aa   000000 000025
    002741  aa   163040 040040     330  		vfd a36/s   ,36/i_c,36/c_xnm,36/(l_68-l_org)/5,36/0
    002742  aa   000000 000001
    002743  aa   000000 000041
    002744  aa   000000 000460
    002745  aa   000000 000000
    002746  aa   163040 040040     331  		vfd a36/s   ,36/i_s,36/(xdname-l_org)/5,36/(l_68-l_org)/5,36/0
    002747  aa   000000 000003
    002750  aa   000000 003457
    002751  aa   000000 000460
    002752  aa   000000 000000
    002753  aa   040040 040040     332  		vfd a36/    ,36/i_n,36/220,36/(rtwo-l_org)/5,36/0
    002754  aa   000000 000002
    002755  aa   000000 000334
    002756  aa   000000 004060
    002757  aa   000000 000000
    002760  aa   040040 040040     333  l_68:		vfd a36/    ,36/i_n,36/268,36/(rtwo-l_org)/5,36/0
    002761  aa   000000 000002
    002762  aa   000000 000414
    002763  aa   000000 004060
    002764  aa   000000 000000
    002765  aa   040040 040040     334  	acc3:	vfd a36/    ,36/i_n,36/0,36/(l_69-l_org)/5,36/a_319
    002766  aa   000000 000002
    002767  aa   000000 000000
    002770  aa   000000 000462
    002771  aa   000000 000477
    002772  aa   163040 040040     335  l_69:		vfd a36/s   ,36/i_r,36/r_from,36/(l_70-l_org)/5,36/0
    002773  aa   000000 000000
    002774  aa   000000 000157
    002775  aa   000000 000464
    002776  aa   000000 000000
    002777  aa   040040 040040     336  		vfd a36/    ,36/i_n,36/0,36/(verb1-l_org)/5,36/a_248
    003000  aa   000000 000002
    003001  aa   000000 000000
    003002  aa   000000 003640
    003003  aa   000000 000370
    003004  aa   040063 040040     337  l_70:		vfd a36/ 3  ,36/i_c,36/c_acc_dev,36/(acc2-l_org)/5,36/21
    003005  aa   000000 000001
    003006  aa   000000 000305
    003007  aa   000000 000502
    003010  aa   000000 000025
    003011  aa   040040 040040     338  		vfd a36/    ,36/i_r,36/r_date,36/(l_71-l_org)/5,36/0
    003012  aa   000000 000000
    003013  aa   000000 000126
    003014  aa   000000 000472
    003015  aa   000000 000000
    003016  aa   040040 040040     339  		vfd a36/    ,36/i_r,36/r_time,36/(l_71-l_org)/5,36/a_101
    003017  aa   000000 000000
    003020  aa   000000 000250
    003021  aa   000000 000472
    003022  aa   000000 000145
    003023  aa   040040 040040     340  		vfd a36/    ,36/i_r,36/r_day,36/(l_71-l_org)/5,36/a_64
    003024  aa   000000 000000
    003025  aa   000000 000127
    003026  aa   000000 000472
    003027  aa   000000 000100
    003030  aa   040040 040040     341  		vfd a36/    ,36/i_r,36/r_day_of_week,36/(acc5-l_org)/5,36/a_161
    003031  aa   000000 000000
    003032  aa   000000 000506
    003033  aa   000000 000475
    003034  aa   000000 000241
    003035  aa   040040 040040     342  		vfd a36/    ,36/i_n,36/023,36/(rtwo-l_org)/5,36/0
    003036  aa   000000 000002
    003037  aa   000000 000027
    003040  aa   000000 004060
    003041  aa   000000 000000
    003042  aa   040063 040040     343  l_71:		vfd a36/ 3  ,36/i_n,36/22,36/(l_72-l_org)/5,36/2
    003043  aa   000000 000002
    003044  aa   000000 000026
    003045  aa   000000 000473
    003046  aa   000000 000002
    003047  aa   163040 040040     344  l_72:	acc4:	vfd a36/s   ,36/i_c,36/c_sina,36/(verb1-l_org)/5,36/a_3
    003050  aa   000000 000001
    003051  aa   000000 000013
    003052  aa   000000 003640
    003053  aa   000000 000003
    003054  aa   040040 040040     345  		vfd a36/    ,36/i_n,36/22,36/(verb1-l_org)/5,36/a_3
    003055  aa   000000 000002
    003056  aa   000000 000026
    003057  aa   000000 003640
    003060  aa   000000 000003
    003061  aa   040065 040040     346  	acc5:	vfd a36/ 5  ,36/i_n,36/166,36/(acc4-l_org)/5,36/25
    003062  aa   000000 000002
    003063  aa   000000 000246
    003064  aa   000000 000473
    003065  aa   000000 000031
    003066  aa   163040 040040     347  	acc1:	vfd a36/s   ,36/i_r,36/r_message,36/(l_73-l_org)/5,36/0
    003067  aa   000000 000000
    003070  aa   000000 000176
    003071  aa   000000 000477
    003072  aa   000000 000000
    003073  aa   040040 040040     348  l_73:		vfd a36/    ,36/i_r,36/r_count,36/(l_74-l_org)/5,36/a_3
    003074  aa   000000 000000
    003075  aa   000000 000124
    003076  aa   000000 000501
    003077  aa   000000 000003
    003100  aa   040040 040040     349  		vfd a36/    ,36/i_n,36/221,36/(rtwo-l_org)/5,36/0
    003101  aa   000000 000002
    003102  aa   000000 000335
    003103  aa   000000 004060
    003104  aa   000000 000000
    003105  aa   163063 040040     350  l_74:		vfd a36/s3  ,36/i_n,36/70,36/(verb1-l_org)/5,36/23
    003106  aa   000000 000002
    003107  aa   000000 000106
    003110  aa   000000 003640
    003111  aa   000000 000027
    003112  aa   163040 040040     351  	acc2:	vfd a36/s   ,36/i_c,36/c_acc_dev,36/(disp2-l_org)/5,36/a_160
    003113  aa   000000 000001
    003114  aa   000000 000305
    003115  aa   000000 001024
    003116  aa   000000 000240
    003117  aa   040040 040040     352  		vfd a36/    ,36/i_n,36/223,36/(rtwo-l_org)/5,36/0
    003120  aa   000000 000002
    003121  aa   000000 000337
    003122  aa   000000 004060
    003123  aa   000000 000000
    003124  aa   163157 040040     353  	add:	vfd a36/so  ,36/i_r,36/r_add,36/(l_75-l_org)/5,36/a_27
    003125  aa   000000 000000
    003126  aa   000000 000002
    003127  aa   000000 000505
    003130  aa   000000 000033
    003131  aa   163157 040040     354  l_75:		vfd a36/so  ,36/i_c,36/c_unelnudn,36/(l_76-l_org)/5,36/a_33
    003132  aa   000000 000001
    003133  aa   000000 000134
    003134  aa   000000 000511
    003135  aa   000000 000041
    003136  aa   163157 040040     355  		vfd a36/so  ,36/i_s,36/(elnuitem-l_org)/5,36/(l_76-l_org)/5,36/a_33
    003137  aa   000000 000003
    003140  aa   000000 003551
    003141  aa   000000 000511
    003142  aa   000000 000041
    003143  aa   163157 040040     356  		vfd a36/so  ,36/i_c,36/c_figzero,36/(l_76-l_org)/5,36/a_33
    003144  aa   000000 000001
    003145  aa   000000 000330
    003146  aa   000000 000511
    003147  aa   000000 000041
    003150  aa   040040 040040     357  		vfd a36/    ,36/i_n,36/024,36/(rtwo-l_org)/5,36/0
    003151  aa   000000 000002
    003152  aa   000000 000030
    003153  aa   000000 004060
    003154  aa   000000 000000
    003155  aa   163040 040040     358  l_76:	add4:	vfd a36/s   ,36/i_r,36/r_to,36/(l_77-l_org)/5,36/0
    003156  aa   000000 000000
    003157  aa   000000 000252
    003160  aa   000000 000515
    003161  aa   000000 000000
    003162  aa   163157 040040     359  		vfd a36/so  ,36/i_s,36/(elnuitem-l_org)/5,36/(add5-l_org)/5,36/a_33
    003163  aa   000000 000003
    003164  aa   000000 003551
    003165  aa   000000 000520
    003166  aa   000000 000041
    003167  aa   163157 040040     360  		vfd a36/so  ,36/i_c,36/c_figzero,36/(add5-l_org)/5,36/a_33
    003170  aa   000000 000001
    003171  aa   000000 000330
    003172  aa   000000 000520
    003173  aa   000000 000041
    003174  aa   040040 040040     361  		vfd a36/    ,36/i_n,36/025,36/(rtwo-l_org)/5,36/0
    003175  aa   000000 000002
    003176  aa   000000 000031
    003177  aa   000000 004060
    003200  aa   000000 000000
    003201  aa   163040 040040     362  l_77:		vfd a36/s   ,36/i_c,36/c_unelnudn,36/(add6-l_org)/5,36/a_34
    003202  aa   000000 000001
    003203  aa   000000 000134
    003204  aa   000000 000522
    003205  aa   000000 000042
    003206  aa   163040 040040     363  		vfd a36/s   ,36/i_s,36/(alel-l_org)/5,36/(add6-l_org)/5,36/a_34
    003207  aa   000000 000003
    003210  aa   000000 003577
    003211  aa   000000 000522
    003212  aa   000000 000042
    003213  aa   040040 040040     364  		vfd a36/    ,36/i_n,36/024,36/(rtwo-l_org)/5,36/0
    003214  aa   000000 000002
    003215  aa   000000 000030
    003216  aa   000000 004060
    003217  aa   000000 000000
    003220  aa   163040 040040     365  	add5:	vfd a36/s   ,36/i_r,36/r_giving,36/(add2-l_org)/5,36/a_21
    003221  aa   000000 000000
    003222  aa   000000 000160
    003223  aa   000000 000537
    003224  aa   000000 000025
    003225  aa   040040 040040     366  		vfd a36/    ,36/i_n,36/0,36/(add4-l_org)/5,36/0
    003226  aa   000000 000002
    003227  aa   000000 000000
    003230  aa   000000 000511
    003231  aa   000000 000000
    003232  aa   040040 040040     367  	add6:	vfd a36/    ,36/i_c,36/c_sterm,36/(add1-l_org)/5,36/a_102
    003233  aa   000000 000001
    003234  aa   000000 000135
    003235  aa   000000 000531
    003236  aa   000000 000146
    003237  aa   163040 040040     368  		vfd a36/s   ,36/i_r,36/r_rounded,36/(l_78-l_org)/5,36/a_267
    003240  aa   000000 000000
    003241  aa   000000 000234
    003242  aa   000000 000525
    003243  aa   000000 000413
    003244  aa   040040 040040     369  		vfd a36/    ,36/i_n,36/0,36/(l_78-l_org)/5,36/a_268
    003245  aa   000000 000002
    003246  aa   000000 000000
    003247  aa   000000 000525
    003250  aa   000000 000414
    003251  aa   040040 040040     370  l_78:		vfd a36/    ,36/i_c,36/c_sterm,36/(add1-l_org)/5,36/a_3
    003252  aa   000000 000001
    003253  aa   000000 000135
    003254  aa   000000 000531
    003255  aa   000000 000003
    003256  aa   040040 040040     371  l_79:		vfd a36/    ,36/i_s,36/(alel-l_org)/5,36/(add9-l_org)/5,36/a_269
    003257  aa   000000 000003
    003260  aa   000000 003577
    003261  aa   000000 000536
    003262  aa   000000 000415
    003263  aa   040040 040040     372  l_80:		vfd a36/    ,36/i_s,36/(nos-l_org)/5,36/(add11-l_org)/5,36/a_87
    003264  aa   000000 000003
    003265  aa   000000 003763
    003266  aa   000000 000533
    003267  aa   000000 000127
    003270  aa   040040 040040     373  		vfd a36/    ,36/i_n,36/0,36/(l_81-l_org)/5,36/a_102
    003271  aa   000000 000002
    003272  aa   000000 000000
    003273  aa   000000 000531
    003274  aa   000000 000146
    003275  aa   163040 040040     374  l_81:	add1:	vfd a36/s   ,36/i_r,36/r_end_add,36/(verb1-l_org)/5,36/a_312
    003276  aa   000000 000000
    003277  aa   000000 000722
    003300  aa   000000 003640
    003301  aa   000000 000470
    003302  aa   040040 040040     375  		vfd a36/    ,36/i_n,36/0,36/(verb1-l_org)/5,36/0
    003303  aa   000000 000002
    003304  aa   000000 000000
    003305  aa   000000 003640
    003306  aa   000000 000000
    003307  aa   040040 040040     376  	add11:	vfd a36/    ,36/i_s,36/(osi-l_org)/5,36/(l_82-l_org)/5,36/0
    003310  aa   000000 000003
    003311  aa   000000 003770
    003312  aa   000000 000534
    003313  aa   000000 000000
    003314  aa   163040 040040     377  l_82:		vfd a36/s   ,36/i_r,36/r_end_add,36/(verb1-l_org)/5,36/a_266
    003315  aa   000000 000000
    003316  aa   000000 000722
    003317  aa   000000 003640
    003320  aa   000000 000412
    003321  aa   040040 040040     378  		vfd a36/    ,36/i_n,36/0,36/(verb1-l_org)/5,36/a_310
    003322  aa   000000 000002
    003323  aa   000000 000000
    003324  aa   000000 003640
    003325  aa   000000 000466
    003326  aa   163063 040040     379  	add9:	vfd a36/s3  ,36/i_n,36/23,36/(add6-l_org)/5,36/2
    003327  aa   000000 000002
    003330  aa   000000 000027
    003331  aa   000000 000522
    003332  aa   000000 000002
    003333  aa   163040 040040     380  	add2:	vfd a36/s   ,36/i_s,36/(edalel-l_org)/5,36/(l_83-l_org)/5,36/a_34
    003334  aa   000000 000003
    003335  aa   000000 003605
    003336  aa   000000 000541
    003337  aa   000000 000042
    003340  aa   040040 040040     381  		vfd a36/    ,36/i_n,36/026,36/(rtwo-l_org)/5,36/0
    003341  aa   000000 000002
    003342  aa   000000 000032
    003343  aa   000000 004060
    003344  aa   000000 000000
    003345  aa   163040 040040     382  l_83:	add3:	vfd a36/s   ,36/i_r,36/r_rounded,36/(l_84-l_org)/5,36/a_267
    003346  aa   000000 000000
    003347  aa   000000 000234
    003350  aa   000000 000543
    003351  aa   000000 000413
    003352  aa   040040 040040     383  		vfd a36/    ,36/i_n,36/0,36/(l_84-l_org)/5,36/a_268
    003353  aa   000000 000002
    003354  aa   000000 000000
    003355  aa   000000 000543
    003356  aa   000000 000414
    003357  aa   040040 040040     384  l_84:		vfd a36/    ,36/i_s,36/(edalel-l_org)/5,36/(add8-l_org)/5,36/a_269
    003360  aa   000000 000003
    003361  aa   000000 003605
    003362  aa   000000 000546
    003363  aa   000000 000415
    003364  aa   040040 040040     385  		vfd a36/    ,36/i_s,36/(nos-l_org)/5,36/(add11-l_org)/5,36/0
    003365  aa   000000 000003
    003366  aa   000000 003763
    003367  aa   000000 000533
    003370  aa   000000 000000
    003371  aa   040040 040040     386  		vfd a36/    ,36/i_n,36/0,36/(add1-l_org)/5,36/a_3
    003372  aa   000000 000002
    003373  aa   000000 000000
    003374  aa   000000 000531
    003375  aa   000000 000003
    003376  aa   163063 040040     387  	add8:	vfd a36/s3  ,36/i_n,36/23,36/(add3-l_org)/5,36/2
    003377  aa   000000 000002
    003400  aa   000000 000027
    003401  aa   000000 000541
    003402  aa   000000 000002
    003403  aa   163157 040040     388  	alter:	vfd a36/so  ,36/i_r,36/r_alter,36/(l_85-l_org)/5,36/a_87
    003404  aa   000000 000000
    003405  aa   000000 000004
    003406  aa   000000 000550
    003407  aa   000000 000127
    003410  aa   163157 040040     389  l_85:	alt1:	vfd a36/so  ,36/i_c,36/c_altprnm,36/(l_86-l_org)/5,36/a_147
    003411  aa   000000 000001
    003412  aa   000000 000015
    003413  aa   000000 000552
    003414  aa   000000 000223
    003415  aa   040040 040040     390  		vfd a36/    ,36/i_n,36/027,36/(rtwo-l_org)/5,36/0
    003416  aa   000000 000002
    003417  aa   000000 000033
    003420  aa   000000 004060
    003421  aa   000000 000000
    003422  aa   163040 040040     391  l_86:		vfd a36/s   ,36/i_r,36/r_to,36/(l_87-l_org)/5,36/0
    003423  aa   000000 000000
    003424  aa   000000 000252
    003425  aa   000000 000554
    003426  aa   000000 000000
    003427  aa   040040 040040     392  		vfd a36/    ,36/i_n,36/028,36/(rtwo-l_org)/5,36/0
    003430  aa   000000 000002
    003431  aa   000000 000034
    003432  aa   000000 004060
    003433  aa   000000 000000
    003434  aa   163040 040040     393  l_87:		vfd a36/s   ,36/i_r,36/r_proceed,36/(l_88-l_org)/5,36/0
    003435  aa   000000 000000
    003436  aa   000000 000220
    003437  aa   000000 000556
    003440  aa   000000 000000
    003441  aa   040040 040040     394  		vfd a36/    ,36/i_n,36/0,36/(alt2-l_org)/5,36/0
    003442  aa   000000 000002
    003443  aa   000000 000000
    003444  aa   000000 000560
    003445  aa   000000 000000
    003446  aa   163040 040040     395  l_88:		vfd a36/s   ,36/i_r,36/r_to,36/(alt2-l_org)/5,36/0
    003447  aa   000000 000000
    003450  aa   000000 000252
    003451  aa   000000 000560
    003452  aa   000000 000000
    003453  aa   040040 040040     396  		vfd a36/    ,36/i_n,36/028,36/(rtwo-l_org)/5,36/0
    003454  aa   000000 000002
    003455  aa   000000 000034
    003456  aa   000000 004060
    003457  aa   000000 000000
    003460  aa   163157 040040     397  	alt2:	vfd a36/so  ,36/i_c,36/c_prnm,36/(l_89-l_org)/5,36/0
    003461  aa   000000 000001
    003462  aa   000000 000016
    003463  aa   000000 000562
    003464  aa   000000 000000
    003465  aa   040040 040040     398  		vfd a36/    ,36/i_n,36/062,36/(rtwo-l_org)/5,36/0
    003466  aa   000000 000002
    003467  aa   000000 000076
    003470  aa   000000 004060
    003471  aa   000000 000000
    003472  aa   040040 040040     399  l_89:		vfd a36/    ,36/i_c,36/c_altlegal,36/(l_90-l_org)/5,36/0
    003473  aa   000000 000001
    003474  aa   000000 000277
    003475  aa   000000 000564
    003476  aa   000000 000000
    003477  aa   040040 040040     400  		vfd a36/    ,36/i_n,36/188,36/(rtwo-l_org)/5,36/0
    003500  aa   000000 000002
    003501  aa   000000 000274
    003502  aa   000000 004060
    003503  aa   000000 000000
    003504  aa   040040 040040     401  l_90:		vfd a36/    ,36/i_n,36/0,36/(l_91-l_org)/5,36/a_3
    003505  aa   000000 000002
    003506  aa   000000 000000
    003507  aa   000000 000565
    003510  aa   000000 000003
    003511  aa   040040 040040     402  l_91:		vfd a36/    ,36/i_c,36/c_altprnm,36/(l_92-l_org)/5,36/a_104
    003512  aa   000000 000001
    003513  aa   000000 000015
    003514  aa   000000 000567
    003515  aa   000000 000150
    003516  aa   040040 040040     403  		vfd a36/    ,36/i_n,36/0,36/(verb1-l_org)/5,36/0
    003517  aa   000000 000002
    003520  aa   000000 000000
    003521  aa   000000 003640
    003522  aa   000000 000000
    003523  aa   040063 040040     404  l_92:		vfd a36/ 3  ,36/i_n,36/24,36/(alt1-l_org)/5,36/2
    003524  aa   000000 000002
    003525  aa   000000 000030
    003526  aa   000000 000550
    003527  aa   000000 000002
    003530  aa   040040 040040     405  	call:	vfd a36/    ,36/i_r,36/r_call,36/(l_93-l_org)/5,36/a_42
    003531  aa   000000 000000
    003532  aa   000000 000005
    003533  aa   000000 000571
    003534  aa   000000 000052
    003535  aa   163157 040040     406  l_93:		vfd a36/so  ,36/i_n,36/0,36/(l_94-l_org)/5,36/a_321
    003536  aa   000000 000002
    003537  aa   000000 000000
    003540  aa   000000 000572
    003541  aa   000000 000501
    003542  aa   040062 040040     407  l_94:		vfd a36/ 2  ,36/i_c,36/c_nonumlit,36/(l_95-l_org)/5,36/66
    003543  aa   000000 000001
    003544  aa   000000 000017
    003545  aa   000000 000575
    003546  aa   000000 000102
    003547  aa   040063 040040     408  		vfd a36/ 3  ,36/i_c,36/c_nonumdn,36/(call6-l_org)/5,36/147
    003550  aa   000000 000001
    003551  aa   000000 000223
    003552  aa   000000 000604
    003553  aa   000000 000223
    003554  aa   040040 040040     409  		vfd a36/    ,36/i_n,36/238,36/(rtwo-l_org)/5,36/0
    003555  aa   000000 000002
    003556  aa   000000 000356
    003557  aa   000000 004060
    003560  aa   000000 000000
    003561  aa   163157 040040     410  l_95:		vfd a36/so  ,36/i_c,36/c_cklit,36/(call7-l_org)/5,36/0
    003562  aa   000000 000001
    003563  aa   000000 000246
    003564  aa   000000 000606
    003565  aa   000000 000000
    003566  aa   040157 040040     411  		vfd a36/ o  ,36/i_c,36/c_cklit1,36/(l_96-l_org)/5,36/0
    003567  aa   000000 000001
    003570  aa   000000 000264
    003571  aa   000000 000601
    003572  aa   000000 000000
    003573  aa   040040 040040     412  		vfd a36/    ,36/i_c,36/c_mcobol,36/(call5-l_org)/5,36/0
    003574  aa   000000 000001
    003575  aa   000000 000265
    003576  aa   000000 000602
    003577  aa   000000 000000
    003600  aa   040040 040040     413  		vfd a36/    ,36/i_n,36/238,36/(rtwo-l_org)/5,36/0
    003601  aa   000000 000002
    003602  aa   000000 000356
    003603  aa   000000 004060
    003604  aa   000000 000000
    003605  aa   163040 040040     414  l_96:	call2:	vfd a36/s   ,36/i_n,36/256,36/(call7-l_org)/5,36/0
    003606  aa   000000 000002
    003607  aa   000000 000400
    003610  aa   000000 000606
    003611  aa   000000 000000
    003612  aa   040157 040040     415  	call5:	vfd a36/ o  ,36/i_c,36/c_cklit2,36/(call2-l_org)/5,36/0
    003613  aa   000000 000001
    003614  aa   000000 000266
    003615  aa   000000 000601
    003616  aa   000000 000000
    003617  aa   040040 040040     416  		vfd a36/    ,36/i_n,36/255,36/(rtwo-l_org)/5,36/0
    003620  aa   000000 000002
    003621  aa   000000 000377
    003622  aa   000000 004060
    003623  aa   000000 000000
    003624  aa   163157 040040     417  	call6:	vfd a36/so  ,36/i_s,36/(ident-l_org)/5,36/(l_97-l_org)/5,36/0
    003625  aa   000000 000003
    003626  aa   000000 003462
    003627  aa   000000 000606
    003630  aa   000000 000000
    003631  aa   040040 040040     418  		vfd a36/    ,36/i_n,36/114,36/(rtwo-l_org)/5,36/0
    003632  aa   000000 000002
    003633  aa   000000 000162
    003634  aa   000000 004060
    003635  aa   000000 000000
    003636  aa   163040 040040     419  l_97:	call7:	vfd a36/s   ,36/i_r,36/r_using,36/(l_98-l_org)/5,36/a_21
    003637  aa   000000 000000
    003640  aa   000000 000260
    003641  aa   000000 000610
    003642  aa   000000 000025
    003643  aa   040040 040040     420  		vfd a36/    ,36/i_n,36/0,36/(call1-l_org)/5,36/0
    003644  aa   000000 000002
    003645  aa   000000 000000
    003646  aa   000000 000615
    003647  aa   000000 000000
    003650  aa   163157 040040     421  l_98:		vfd a36/so  ,36/i_c,36/c_useid,36/(l_99-l_org)/5,36/a_8
    003651  aa   000000 000001
    003652  aa   000000 000020
    003653  aa   000000 000613
    003654  aa   000000 000010
    003655  aa   163157 040040     422  		vfd a36/so  ,36/i_c,36/c_is_user_word,36/(l_99-l_org)/5,36/a_287
    003656  aa   000000 000001
    003657  aa   000000 000316
    003660  aa   000000 000613
    003661  aa   000000 000437
    003662  aa   040040 040040     423  		vfd a36/    ,36/i_n,36/315,36/(rtwo-l_org)/5,36/0
    003663  aa   000000 000002
    003664  aa   000000 000473
    003665  aa   000000 004060
    003666  aa   000000 000000
    003667  aa   163157 040040     424  l_99:		vfd a36/so  ,36/i_c,36/c_useid,36/(l_99-l_org)/5,36/a_8
    003670  aa   000000 000001
    003671  aa   000000 000020
    003672  aa   000000 000613
    003673  aa   000000 000010
    003674  aa   163157 040040     425  		vfd a36/so  ,36/i_c,36/c_is_user_word,36/(l_99-l_org)/5,36/a_287
    003675  aa   000000 000001
    003676  aa   000000 000316
    003677  aa   000000 000613
    003700  aa   000000 000437
    003701  aa   040040 040040     426  	call1:	vfd a36/    ,36/i_c,36/c_noo,36/(l_100-l_org)/5,36/0
    003702  aa   000000 000001
    003703  aa   000000 000331
    003704  aa   000000 000617
    003705  aa   000000 000000
    003706  aa   040040 040040     427  		vfd a36/    ,36/i_n,36/0,36/(call3-l_org)/5,36/a_3
    003707  aa   000000 000002
    003710  aa   000000 000000
    003711  aa   000000 000625
    003712  aa   000000 000003
    003713  aa   040063 040040     428  l_100:		vfd a36/ 3  ,36/i_n,36/67,36/(l_101-l_org)/5,36/14
    003714  aa   000000 000002
    003715  aa   000000 000103
    003716  aa   000000 000620
    003717  aa   000000 000016
    003720  aa   040040 040040     429  l_101:		vfd a36/    ,36/i_s,36/(nov-l_org)/5,36/(l_102-l_org)/5,36/0
    003721  aa   000000 000003
    003722  aa   000000 003730
    003723  aa   000000 000621
    003724  aa   000000 000000
    003725  aa   040040 040040     430  l_102:		vfd a36/    ,36/i_s,36/(ovi-l_org)/5,36/(l_103-l_org)/5,36/0
    003726  aa   000000 000003
    003727  aa   000000 003735
    003730  aa   000000 000622
    003731  aa   000000 000000
    003732  aa   163040 040040     431  l_103:		vfd a36/s   ,36/i_r,36/r_end_call,36/(l_104-l_org)/5,36/a_266
    003733  aa   000000 000000
    003734  aa   000000 000723
    003735  aa   000000 000624
    003736  aa   000000 000412
    003737  aa   040040 040040     432  		vfd a36/    ,36/i_n,36/0,36/(l_104-l_org)/5,36/a_310
    003740  aa   000000 000002
    003741  aa   000000 000000
    003742  aa   000000 000624
    003743  aa   000000 000466
    003744  aa   040040 040040     433  l_104:		vfd a36/    ,36/i_n,36/0,36/(verb1-l_org)/5,36/a_52
    003745  aa   000000 000002
    003746  aa   000000 000000
    003747  aa   000000 003640
    003750  aa   000000 000064
    003751  aa   163040 040040     434  	call3:	vfd a36/s   ,36/i_r,36/r_end_call,36/(verb1-l_org)/5,36/a_312
    003752  aa   000000 000000
    003753  aa   000000 000723
    003754  aa   000000 003640
    003755  aa   000000 000470
    003756  aa   040040 040040     435  		vfd a36/    ,36/i_n,36/0,36/(verb1-l_org)/5,36/0
    003757  aa   000000 000002
    003760  aa   000000 000000
    003761  aa   000000 003640
    003762  aa   000000 000000
    003763  aa   040157 040040     436  	cancel:	vfd a36/ o  ,36/i_r,36/r_cancel,36/(l_105-l_org)/5,36/a_87
    003764  aa   000000 000000
    003765  aa   000000 000007
    003766  aa   000000 000630
    003767  aa   000000 000127
    003770  aa   163063 040040     437  l_105:		vfd a36/s3  ,36/i_n,36/68,36/(l_106-l_org)/5,36/14
    003771  aa   000000 000002
    003772  aa   000000 000104
    003773  aa   000000 000631
    003774  aa   000000 000016
    003775  aa   163157 040040     438  l_106:		vfd a36/so  ,36/i_s,36/(nonumid-l_org)/5,36/(l_107-l_org)/5,36/0
    003776  aa   000000 000003
    003777  aa   000000 003522
    004000  aa   000000 000633
    004001  aa   000000 000000
    004002  aa   040040 040040     439  		vfd a36/    ,36/i_n,36/029,36/(rtwo-l_org)/5,36/0
    004003  aa   000000 000002
    004004  aa   000000 000035
    004005  aa   000000 004060
    004006  aa   000000 000000
    004007  aa   040040 040040     440  l_107:	can1:	vfd a36/    ,36/i_n,36/0,36/(l_108-l_org)/5,36/a_3
    004010  aa   000000 000002
    004011  aa   000000 000000
    004012  aa   000000 000634
    004013  aa   000000 000003
    004014  aa   163157 040040     441  l_108:		vfd a36/so  ,36/i_s,36/(nonumid-l_org)/5,36/(can1-l_org)/5,36/a_105
    004015  aa   000000 000003
    004016  aa   000000 003522
    004017  aa   000000 000633
    004020  aa   000000 000151
    004021  aa   040040 040040     442  		vfd a36/    ,36/i_n,36/0,36/(verb1-l_org)/5,36/a_192
    004022  aa   000000 000002
    004023  aa   000000 000000
    004024  aa   000000 003640
    004025  aa   000000 000300
    004026  aa   163157 040040     443  	close:	vfd a36/so  ,36/i_r,36/r_close,36/(l_109-l_org)/5,36/a_318
    004027  aa   000000 000000
    004030  aa   000000 000010
    004031  aa   000000 000637
    004032  aa   000000 000476
    004033  aa   040157 040040     444  l_109:		vfd a36/ o  ,36/i_c,36/c_nsfilnm,36/(l_110-l_org)/5,36/a_180
    004034  aa   000000 000001
    004035  aa   000000 000021
    004036  aa   000000 000641
    004037  aa   000000 000264
    004040  aa   040040 040040     445  		vfd a36/    ,36/i_n,36/031,36/(rtwo-l_org)/5,36/0
    004041  aa   000000 000002
    004042  aa   000000 000037
    004043  aa   000000 004060
    004044  aa   000000 000000
    004045  aa   040040 040040     446  l_110:		vfd a36/    ,36/i_n,36/0,36/(l_111-l_org)/5,36/a_12
    004046  aa   000000 000002
    004047  aa   000000 000000
    004050  aa   000000 000650
    004051  aa   000000 000014
    004052  aa   040040 040040     447  		vfd a36/    ,36/i_n,36/032,36/(rtwo-l_org)/5,36/0
    004053  aa   000000 000002
    004054  aa   000000 000040
    004055  aa   000000 004060
    004056  aa   000000 000000
    004057  aa   163040 040040     448  		vfd a36/s   ,36/i_n,36/0,36/(clos_ss1-l_org)/5,36/a_319
    004060  aa   000000 000002
    004061  aa   000000 000000
    004062  aa   000000 000650
    004063  aa   000000 000477
    004064  aa   163062 040040     449  		vfd a36/s2  ,36/i_n,36/196,36/(clos_ri1-l_org)/5,36/17
    004065  aa   000000 000002
    004066  aa   000000 000304
    004067  aa   000000 000707
    004070  aa   000000 000021
    004071  aa   163064 040040     450  		vfd a36/s4  ,36/i_n,36/196,36/(clos_ri1-l_org)/5,36/19
    004072  aa   000000 000002
    004073  aa   000000 000304
    004074  aa   000000 000707
    004075  aa   000000 000023
    004076  aa   040040 040040     451  		vfd a36/    ,36/i_n,36/032,36/(rtwo-l_org)/5,36/0
    004077  aa   000000 000002
    004100  aa   000000 000040
    004101  aa   000000 004060
    004102  aa   000000 000000
    004103  aa   163065 040040     452  		vfd a36/s5  ,36/i_n,36/196,36/(clos_ss1-l_org)/5,36/25
    004104  aa   000000 000002
    004105  aa   000000 000304
    004106  aa   000000 000650
    004107  aa   000000 000031
    004110  aa   163040 040040     453  l_111:	clos_ss1:	vfd a36/s   ,36/i_r,36/r_reel,36/(clos_ss4-l_org)/5,36/a_4
    004111  aa   000000 000000
    004112  aa   000000 000225
    004113  aa   000000 000667
    004114  aa   000000 000004
    004115  aa   163040 040040     454  		vfd a36/s   ,36/i_r,36/r_unit,36/(clos_ss4-l_org)/5,36/a_4
    004116  aa   000000 000000
    004117  aa   000000 000254
    004120  aa   000000 000667
    004121  aa   000000 000004
    004122  aa   163040 040040     455  		vfd a36/s   ,36/i_r,36/r_with,36/(clos_ss9-l_org)/5,36/0
    004123  aa   000000 000000
    004124  aa   000000 000263
    004125  aa   000000 000705
    004126  aa   000000 000000
    004127  aa   163040 040040     456  		vfd a36/s   ,36/i_r,36/r_no,36/(clos_ss8-l_org)/5,36/a_20
    004130  aa   000000 000000
    004131  aa   000000 000201
    004132  aa   000000 000703
    004133  aa   000000 000024
    004134  aa   040040 040040     457  		vfd a36/    ,36/i_r,36/r_lock,36/(cl_lock-l_org)/5,36/a_14
    004135  aa   000000 000000
    004136  aa   000000 000175
    004137  aa   000000 000676
    004140  aa   000000 000016
    004141  aa   040040 040040     458  	clos_ss2:	vfd a36/    ,36/i_c,36/c_nsfilnm,36/(l_112-l_org)/5,36/a_106
    004142  aa   000000 000001
    004143  aa   000000 000021
    004144  aa   000000 000657
    004145  aa   000000 000152
    004146  aa   040040 040040     459  		vfd a36/    ,36/i_n,36/0,36/(verb1-l_org)/5,36/a_3
    004147  aa   000000 000002
    004150  aa   000000 000000
    004151  aa   000000 003640
    004152  aa   000000 000003
    004153  aa   040040 040040     460  l_112:		vfd a36/    ,36/i_n,36/0,36/(l_113-l_org)/5,36/a_12
    004154  aa   000000 000002
    004155  aa   000000 000000
    004156  aa   000000 000666
    004157  aa   000000 000014
    004160  aa   040040 040040     461  		vfd a36/    ,36/i_n,36/032,36/(rtwo-l_org)/5,36/0
    004161  aa   000000 000002
    004162  aa   000000 000040
    004163  aa   000000 004060
    004164  aa   000000 000000
    004165  aa   040063 040040     462  		vfd a36/ 3  ,36/i_n,36/41,36/(clos_ss3-l_org)/5,36/16
    004166  aa   000000 000002
    004167  aa   000000 000051
    004170  aa   000000 000666
    004171  aa   000000 000020
    004172  aa   040040 040040     463  		vfd a36/    ,36/i_n,36/0,36/(clos_ri3-l_org)/5,36/0
    004173  aa   000000 000002
    004174  aa   000000 000000
    004175  aa   000000 000725
    004176  aa   000000 000000
    004177  aa   040040 040040     464  		vfd a36/    ,36/i_n,36/0,36/(clos_ri3-l_org)/5,36/0
    004200  aa   000000 000002
    004201  aa   000000 000000
    004202  aa   000000 000725
    004203  aa   000000 000000
    004204  aa   040040 040040     465  		vfd a36/    ,36/i_n,36/032,36/(rtwo-l_org)/5,36/0
    004205  aa   000000 000002
    004206  aa   000000 000040
    004207  aa   000000 004060
    004210  aa   000000 000000
    004211  aa   040040 040040     466  		vfd a36/    ,36/i_n,36/0,36/(clos_ss3-l_org)/5,36/0
    004212  aa   000000 000002
    004213  aa   000000 000000
    004214  aa   000000 000666
    004215  aa   000000 000000
    004216  aa   163157 040040     467  l_113:	clos_ss3:	vfd a36/so  ,36/i_n,36/0,36/(clos_ss1-l_org)/5,36/a_180
    004217  aa   000000 000002
    004220  aa   000000 000000
    004221  aa   000000 000650
    004222  aa   000000 000264
    004223  aa   163040 040040     468  	clos_ss4:	vfd a36/s   ,36/i_r,36/r_with,36/(clos_ss7-l_org)/5,36/0
    004224  aa   000000 000000
    004225  aa   000000 000263
    004226  aa   000000 000701
    004227  aa   000000 000000
    004230  aa   163040 040040     469  		vfd a36/s   ,36/i_r,36/r_for,36/(clos_ss6-l_org)/5,36/0
    004231  aa   000000 000000
    004232  aa   000000 000156
    004233  aa   000000 000677
    004234  aa   000000 000000
    004235  aa   163040 040040     470  		vfd a36/s   ,36/i_r,36/r_no,36/(clos_ss8-l_org)/5,36/a_20
    004236  aa   000000 000000
    004237  aa   000000 000201
    004240  aa   000000 000703
    004241  aa   000000 000024
    004242  aa   040040 040040     471  		vfd a36/    ,36/i_r,36/r_removal,36/(cl_rem-l_org)/5,36/a_121
    004243  aa   000000 000000
    004244  aa   000000 000404
    004245  aa   000000 000675
    004246  aa   000000 000171
    004247  aa   040040 040040     472  		vfd a36/    ,36/i_n,36/0,36/(clos_ss2-l_org)/5,36/0
    004250  aa   000000 000002
    004251  aa   000000 000000
    004252  aa   000000 000655
    004253  aa   000000 000000
    004254  aa   163063 040040     473  	cl_rew:	vfd a36/s3  ,36/i_n,36/50,36/(clos_ss2-l_org)/5,36/16
    004255  aa   000000 000002
    004256  aa   000000 000062
    004257  aa   000000 000655
    004260  aa   000000 000020
    004261  aa   163063 040040     474  	cl_rem:	vfd a36/s3  ,36/i_n,36/51,36/(clos_ss2-l_org)/5,36/16
    004262  aa   000000 000002
    004263  aa   000000 000063
    004264  aa   000000 000655
    004265  aa   000000 000020
    004266  aa   163063 040040     475  	cl_lock:	vfd a36/s3  ,36/i_n,36/52,36/(clos_ss2-l_org)/5,36/16
    004267  aa   000000 000002
    004270  aa   000000 000064
    004271  aa   000000 000655
    004272  aa   000000 000020
    004273  aa   040040 040040     476  	clos_ss6:	vfd a36/    ,36/i_r,36/r_removal,36/(cl_rem-l_org)/5,36/a_121
    004274  aa   000000 000000
    004275  aa   000000 000404
    004276  aa   000000 000675
    004277  aa   000000 000171
    004300  aa   040040 040040     477  		vfd a36/    ,36/i_n,36/190,36/(rtwo-l_org)/5,36/0
    004301  aa   000000 000002
    004302  aa   000000 000276
    004303  aa   000000 004060
    004304  aa   000000 000000
    004305  aa   163040 040040     478  	clos_ss7:	vfd a36/s   ,36/i_r,36/r_no,36/(l_114-l_org)/5,36/a_20
    004306  aa   000000 000000
    004307  aa   000000 000201
    004310  aa   000000 000703
    004311  aa   000000 000024
    004312  aa   040040 040040     479  		vfd a36/    ,36/i_n,36/157,36/(rtwo-l_org)/5,36/0
    004313  aa   000000 000002
    004314  aa   000000 000235
    004315  aa   000000 004060
    004316  aa   000000 000000
    004317  aa   040040 040040     480  l_114:	clos_ss8:	vfd a36/    ,36/i_r,36/r_rewind,36/(cl_rew-l_org)/5,36/0
    004320  aa   000000 000000
    004321  aa   000000 000233
    004322  aa   000000 000674
    004323  aa   000000 000000
    004324  aa   040040 040040     481  		vfd a36/    ,36/i_n,36/158,36/(rtwo-l_org)/5,36/0
    004325  aa   000000 000002
    004326  aa   000000 000236
    004327  aa   000000 004060
    004330  aa   000000 000000
    004331  aa   163040 040040     482  	clos_ss9:	vfd a36/s   ,36/i_r,36/r_no,36/(clos_ss8-l_org)/5,36/a_20
    004332  aa   000000 000000
    004333  aa   000000 000201
    004334  aa   000000 000703
    004335  aa   000000 000024
    004336  aa   040040 040040     483  		vfd a36/    ,36/i_r,36/r_lock,36/(cl_lock-l_org)/5,36/a_14
    004337  aa   000000 000000
    004340  aa   000000 000175
    004341  aa   000000 000676
    004342  aa   000000 000016
    004343  aa   163040 040040     484  	clos_ri1:	vfd a36/s   ,36/i_r,36/r_with,36/(l_115-l_org)/5,36/0
    004344  aa   000000 000000
    004345  aa   000000 000263
    004346  aa   000000 000712
    004347  aa   000000 000000
    004350  aa   163040 040040     485  		vfd a36/s   ,36/i_r,36/r_lock,36/(clos_ri2-l_org)/5,36/a_14
    004351  aa   000000 000000
    004352  aa   000000 000175
    004353  aa   000000 000714
    004354  aa   000000 000016
    004355  aa   040040 040040     486  		vfd a36/    ,36/i_n,36/0,36/(clos_ri2-l_org)/5,36/0
    004356  aa   000000 000002
    004357  aa   000000 000000
    004360  aa   000000 000714
    004361  aa   000000 000000
    004362  aa   163040 040040     487  l_115:		vfd a36/s   ,36/i_r,36/r_lock,36/(l_116-l_org)/5,36/a_14
    004363  aa   000000 000000
    004364  aa   000000 000175
    004365  aa   000000 000714
    004366  aa   000000 000016
    004367  aa   040040 040040     488  		vfd a36/    ,36/i_n,36/144,36/(rtwo-l_org)/5,36/0
    004370  aa   000000 000002
    004371  aa   000000 000220
    004372  aa   000000 004060
    004373  aa   000000 000000
    004374  aa   040040 040040     489  l_116:	clos_ri2:	vfd a36/    ,36/i_c,36/c_nsfilnm,36/(l_117-l_org)/5,36/a_106
    004375  aa   000000 000001
    004376  aa   000000 000021
    004377  aa   000000 000716
    004400  aa   000000 000152
    004401  aa   040040 040040     490  		vfd a36/    ,36/i_n,36/0,36/(verb1-l_org)/5,36/a_3
    004402  aa   000000 000002
    004403  aa   000000 000000
    004404  aa   000000 003640
    004405  aa   000000 000003
    004406  aa   040040 040040     491  l_117:		vfd a36/    ,36/i_n,36/0,36/(l_118-l_org)/5,36/a_12
    004407  aa   000000 000002
    004410  aa   000000 000000
    004411  aa   000000 000725
    004412  aa   000000 000014
    004413  aa   040040 040040     492  		vfd a36/    ,36/i_n,36/032,36/(rtwo-l_org)/5,36/0
    004414  aa   000000 000002
    004415  aa   000000 000040
    004416  aa   000000 004060
    004417  aa   000000 000000
    004420  aa   040063 040040     493  		vfd a36/ 3  ,36/i_n,36/41,36/(clos_ss3-l_org)/5,36/16
    004421  aa   000000 000002
    004422  aa   000000 000051
    004423  aa   000000 000666
    004424  aa   000000 000020
    004425  aa   040040 040040     494  		vfd a36/    ,36/i_n,36/0,36/(clos_ri3-l_org)/5,36/0
    004426  aa   000000 000002
    004427  aa   000000 000000
    004430  aa   000000 000725
    004431  aa   000000 000000
    004432  aa   040040 040040     495  		vfd a36/    ,36/i_n,36/0,36/(clos_ri3-l_org)/5,36/0
    004433  aa   000000 000002
    004434  aa   000000 000000
    004435  aa   000000 000725
    004436  aa   000000 000000
    004437  aa   040040 040040     496  		vfd a36/    ,36/i_n,36/032,36/(rtwo-l_org)/5,36/0
    004440  aa   000000 000002
    004441  aa   000000 000040
    004442  aa   000000 004060
    004443  aa   000000 000000
    004444  aa   040040 040040     497  		vfd a36/    ,36/i_n,36/0,36/(clos_ss3-l_org)/5,36/0
    004445  aa   000000 000002
    004446  aa   000000 000000
    004447  aa   000000 000666
    004450  aa   000000 000000
    004451  aa   040157 040040     498  l_118:	clos_ri3:	vfd a36/ o  ,36/i_n,36/0,36/(l_119-l_org)/5,36/a_180
    004452  aa   000000 000002
    004453  aa   000000 000000
    004454  aa   000000 000726
    004455  aa   000000 000264
    004456  aa   040040 040040     499  l_119:		vfd a36/    ,36/i_n,36/0,36/(l_120-l_org)/5,36/a_12
    004457  aa   000000 000002
    004460  aa   000000 000000
    004461  aa   000000 000735
    004462  aa   000000 000014
    004463  aa   040040 040040     500  		vfd a36/    ,36/i_n,36/032,36/(rtwo-l_org)/5,36/0
    004464  aa   000000 000002
    004465  aa   000000 000040
    004466  aa   000000 004060
    004467  aa   000000 000000
    004470  aa   040040 040040     501  		vfd a36/    ,36/i_n,36/032,36/(rtwo-l_org)/5,36/0
    004471  aa   000000 000002
    004472  aa   000000 000040
    004473  aa   000000 004060
    004474  aa   000000 000000
    004475  aa   163040 040040     502  		vfd a36/s   ,36/i_n,36/0,36/(clos_ri1-l_org)/5,36/0
    004476  aa   000000 000002
    004477  aa   000000 000000
    004500  aa   000000 000707
    004501  aa   000000 000000
    004502  aa   163040 040040     503  		vfd a36/s   ,36/i_n,36/0,36/(clos_ri1-l_org)/5,36/0
    004503  aa   000000 000002
    004504  aa   000000 000000
    004505  aa   000000 000707
    004506  aa   000000 000000
    004507  aa   040040 040040     504  		vfd a36/    ,36/i_n,36/032,36/(rtwo-l_org)/5,36/0
    004510  aa   000000 000002
    004511  aa   000000 000040
    004512  aa   000000 004060
    004513  aa   000000 000000
    004514  aa   040040 040040     505  		vfd a36/    ,36/i_n,36/032,36/(rtwo-l_org)/5,36/0
    004515  aa   000000 000002
    004516  aa   000000 000040
    004517  aa   000000 004060
    004520  aa   000000 000000
    004521  aa   040157 040040     506  l_120:	compute:	vfd a36/ o  ,36/i_r,36/r_compute,36/(l_121-l_org)/5,36/a_27
    004522  aa   000000 000000
    004523  aa   000000 000050
    004524  aa   000000 000736
    004525  aa   000000 000033
    004526  aa   163063 040040     507  l_121:		vfd a36/s3  ,36/i_n,36/20,36/(l_122-l_org)/5,36/2
    004527  aa   000000 000002
    004530  aa   000000 000024
    004531  aa   000000 000737
    004532  aa   000000 000002
    004533  aa   163040 040040     508  l_122:		vfd a36/s   ,36/i_s,36/(edalel-l_org)/5,36/(l_123-l_org)/5,36/a_45
    004534  aa   000000 000003
    004535  aa   000000 003605
    004536  aa   000000 000741
    004537  aa   000000 000055
    004540  aa   040040 040040     509  		vfd a36/    ,36/i_n,36/026,36/(rtwo-l_org)/5,36/0
    004541  aa   000000 000002
    004542  aa   000000 000032
    004543  aa   000000 004060
    004544  aa   000000 000000
    004545  aa   163040 040040     510  l_123:	com1:	vfd a36/s   ,36/i_r,36/r_rounded,36/(l_124-l_org)/5,36/a_267
    004546  aa   000000 000000
    004547  aa   000000 000234
    004550  aa   000000 000743
    004551  aa   000000 000413
    004552  aa   040040 040040     511  		vfd a36/    ,36/i_n,36/0,36/(l_124-l_org)/5,36/a_268
    004553  aa   000000 000002
    004554  aa   000000 000000
    004555  aa   000000 000743
    004556  aa   000000 000414
    004557  aa   163040 040040     512  l_124:		vfd a36/s   ,36/i_s,36/(edalel-l_org)/5,36/(com1-l_org)/5,36/a_45
    004560  aa   000000 000003
    004561  aa   000000 003605
    004562  aa   000000 000741
    004563  aa   000000 000055
    004564  aa   163040 040040     513  		vfd a36/s   ,36/i_r,36/r_from,36/(l_125-l_org)/5,36/a_90
    004565  aa   000000 000000
    004566  aa   000000 000157
    004567  aa   000000 000747
    004570  aa   000000 000132
    004571  aa   163040 040040     514  		vfd a36/s   ,36/i_r,36/r_eq,36/(l_125-l_org)/5,36/a_90
    004572  aa   000000 000000
    004573  aa   000000 000146
    004574  aa   000000 000747
    004575  aa   000000 000132
    004576  aa   040040 040040     515  		vfd a36/    ,36/i_n,36/033,36/(rtwo-l_org)/5,36/0
    004577  aa   000000 000002
    004600  aa   000000 000041
    004601  aa   000000 004060
    004602  aa   000000 000000
    004603  aa   040040 040040     516  l_125:		vfd a36/    ,36/i_s,36/(arithexp-l_org)/5,36/(l_126-l_org)/5,36/a_108
    004604  aa   000000 000003
    004605  aa   000000 004265
    004606  aa   000000 000751
    004607  aa   000000 000154
    004610  aa   040040 040040     517  		vfd a36/    ,36/i_n,36/159,36/(rtwo-l_org)/5,36/0
    004611  aa   000000 000002
    004612  aa   000000 000237
    004613  aa   000000 004060
    004614  aa   000000 000000
    004615  aa   040040 040040     518  l_126:		vfd a36/    ,36/i_s,36/(nos-l_org)/5,36/(com2-l_org)/5,36/0
    004616  aa   000000 000003
    004617  aa   000000 003763
    004620  aa   000000 000755
    004621  aa   000000 000000
    004622  aa   040040 040040     519  		vfd a36/    ,36/i_n,36/0,36/(l_127-l_org)/5,36/a_3
    004623  aa   000000 000002
    004624  aa   000000 000000
    004625  aa   000000 000753
    004626  aa   000000 000003
    004627  aa   163040 040040     520  l_127:		vfd a36/s   ,36/i_r,36/r_end_compute,36/(verb1-l_org)/5,36/a_312
    004630  aa   000000 000000
    004631  aa   000000 000724
    004632  aa   000000 003640
    004633  aa   000000 000470
    004634  aa   040040 040040     521  		vfd a36/    ,36/i_n,36/0,36/(verb1-l_org)/5,36/0
    004635  aa   000000 000002
    004636  aa   000000 000000
    004637  aa   000000 003640
    004640  aa   000000 000000
    004641  aa   040040 040040     522  	com2:	vfd a36/    ,36/i_s,36/(osi-l_org)/5,36/(l_128-l_org)/5,36/0
    004642  aa   000000 000003
    004643  aa   000000 003770
    004644  aa   000000 000756
    004645  aa   000000 000000
    004646  aa   163040 040040     523  l_128:		vfd a36/s   ,36/i_r,36/r_end_compute,36/(verb1-l_org)/5,36/a_266
    004647  aa   000000 000000
    004650  aa   000000 000724
    004651  aa   000000 003640
    004652  aa   000000 000412
    004653  aa   040040 040040     524  		vfd a36/    ,36/i_n,36/0,36/(verb1-l_org)/5,36/a_310
    004654  aa   000000 000002
    004655  aa   000000 000000
    004656  aa   000000 003640
    004657  aa   000000 000466
    004660  aa   040157 040040     525  	disable:	vfd a36/ o  ,36/i_r,36/r_disable,36/(l_129-l_org)/5,36/a_87
    004661  aa   000000 000000
    004662  aa   000000 000051
    004663  aa   000000 000761
    004664  aa   000000 000127
    004665  aa   163063 040040     526  l_129:		vfd a36/s3  ,36/i_n,36/71,36/(l_130-l_org)/5,36/23
    004666  aa   000000 000002
    004667  aa   000000 000107
    004670  aa   000000 000762
    004671  aa   000000 000027
    004672  aa   163040 040040     527  l_130:	dis_3:	vfd a36/s   ,36/i_r,36/r_input,36/(l_131-l_org)/5,36/0
    004673  aa   000000 000000
    004674  aa   000000 000163
    004675  aa   000000 000765
    004676  aa   000000 000000
    004677  aa   163040 040040     528  		vfd a36/s   ,36/i_r,36/r_output,36/(dis_1-l_org)/5,36/a_4
    004700  aa   000000 000000
    004701  aa   000000 000211
    004702  aa   000000 000770
    004703  aa   000000 000004
    004704  aa   040040 040040     529  		vfd a36/    ,36/i_n,36/034,36/(rtwo-l_org)/5,36/0
    004705  aa   000000 000002
    004706  aa   000000 000042
    004707  aa   000000 004060
    004710  aa   000000 000000
    004711  aa   040040 040040     530  l_131:		vfd a36/    ,36/i_r,36/r_terminal,36/(dis_4-l_org)/5,36/a_20
    004712  aa   000000 000000
    004713  aa   000000 000244
    004714  aa   000000 001000
    004715  aa   000000 000024
    004716  aa   163157 040040     531  	dis_5:	vfd a36/so  ,36/i_c,36/c_incdnm,36/(dis_2-l_org)/5,36/0
    004717  aa   000000 000001
    004720  aa   000000 000022
    004721  aa   000000 000772
    004722  aa   000000 000000
    004723  aa   040040 040040     532  		vfd a36/    ,36/i_n,36/036,36/(rtwo-l_org)/5,36/0
    004724  aa   000000 000002
    004725  aa   000000 000044
    004726  aa   000000 004060
    004727  aa   000000 000000
    004730  aa   163157 040040     533  	dis_1:	vfd a36/so  ,36/i_c,36/c_outcdnm,36/(l_132-l_org)/5,36/0
    004731  aa   000000 000001
    004732  aa   000000 000023
    004733  aa   000000 000772
    004734  aa   000000 000000
    004735  aa   040040 040040     534  		vfd a36/    ,36/i_n,36/035,36/(rtwo-l_org)/5,36/0
    004736  aa   000000 000002
    004737  aa   000000 000043
    004740  aa   000000 004060
    004741  aa   000000 000000
    004742  aa   163040 040040     535  l_132:	dis_2:	vfd a36/s   ,36/i_r,36/r_with,36/(l_133-l_org)/5,36/0
    004743  aa   000000 000000
    004744  aa   000000 000263
    004745  aa   000000 000773
    004746  aa   000000 000000
    004747  aa   163040 040040     536  l_133:		vfd a36/s   ,36/i_r,36/r_key,36/(l_134-l_org)/5,36/0
    004750  aa   000000 000000
    004751  aa   000000 000170
    004752  aa   000000 000775
    004753  aa   000000 000000
    004754  aa   040040 040040     537  		vfd a36/    ,36/i_n,36/037,36/(rtwo-l_org)/5,36/0
    004755  aa   000000 000002
    004756  aa   000000 000045
    004757  aa   000000 004060
    004760  aa   000000 000000
    004761  aa   163157 040040     538  l_134:		vfd a36/so  ,36/i_s,36/(nonumid-l_org)/5,36/(l_135-l_org)/5,36/0
    004762  aa   000000 000003
    004763  aa   000000 003522
    004764  aa   000000 000777
    004765  aa   000000 000000
    004766  aa   040040 040040     539  		vfd a36/    ,36/i_n,36/038,36/(rtwo-l_org)/5,36/0
    004767  aa   000000 000002
    004770  aa   000000 000046
    004771  aa   000000 004060
    004772  aa   000000 000000
    004773  aa   040040 040040     540  l_135:		vfd a36/    ,36/i_n,36/0,36/(verb1-l_org)/5,36/a_3
    004774  aa   000000 000002
    004775  aa   000000 000000
    004776  aa   000000 003640
    004777  aa   000000 000003
    005000  aa   163063 040040     541  	dis_4:	vfd a36/s3  ,36/i_n,36/72,36/(dis_5-l_org)/5,36/24
    005001  aa   000000 000002
    005002  aa   000000 000110
    005003  aa   000000 000766
    005004  aa   000000 000030
    005005  aa   163157 040040     542  	display:	vfd a36/so  ,36/i_r,36/r_display,36/(l_136-l_org)/5,36/a_87
    005006  aa   000000 000000
    005007  aa   000000 000052
    005010  aa   000000 001002
    005011  aa   000000 000127
    005012  aa   163157 040040     543  l_136:		vfd a36/so  ,36/i_s,36/(ident-l_org)/5,36/(disp3-l_org)/5,36/a_8
    005013  aa   000000 000003
    005014  aa   000000 003462
    005015  aa   000000 001011
    005016  aa   000000 000010
    005017  aa   163157 040040     544  		vfd a36/so  ,36/i_c,36/c_lit,36/(disp3-l_org)/5,36/a_8
    005020  aa   000000 000001
    005021  aa   000000 000025
    005022  aa   000000 001011
    005023  aa   000000 000010
    005024  aa   163157 040040     545  		vfd a36/so  ,36/i_c,36/c_figconall,36/(disp3-l_org)/5,36/a_8
    005025  aa   000000 000001
    005026  aa   000000 000026
    005027  aa   000000 001011
    005030  aa   000000 000010
    005031  aa   163040 040040     546  		vfd a36/s   ,36/i_c,36/c_xnm,36/(l_137-l_org)/5,36/0
    005032  aa   000000 000001
    005033  aa   000000 000041
    005034  aa   000000 001010
    005035  aa   000000 000000
    005036  aa   163040 040040     547  		vfd a36/s   ,36/i_s,36/(xdname-l_org)/5,36/(l_137-l_org)/5,36/0
    005037  aa   000000 000003
    005040  aa   000000 003457
    005041  aa   000000 001010
    005042  aa   000000 000000
    005043  aa   040040 040040     548  		vfd a36/    ,36/i_n,36/039,36/(rtwo-l_org)/5,36/0
    005044  aa   000000 000002
    005045  aa   000000 000047
    005046  aa   000000 004060
    005047  aa   000000 000000
    005050  aa   040040 040040     549  l_137:	disp5:	vfd a36/    ,36/i_n,36/268,36/(rtwo-l_org)/5,36/0
    005051  aa   000000 000002
    005052  aa   000000 000414
    005053  aa   000000 004060
    005054  aa   000000 000000
    005055  aa   163063 040040     550  	disp3:	vfd a36/s3  ,36/i_r,36/r_upon,36/(disp4-l_org)/5,36/25
    005056  aa   000000 000000
    005057  aa   000000 000257
    005060  aa   000000 001020
    005061  aa   000000 000031
    005062  aa   163157 040040     551  		vfd a36/so  ,36/i_s,36/(ident-l_org)/5,36/(disp3-l_org)/5,36/a_8
    005063  aa   000000 000003
    005064  aa   000000 003462
    005065  aa   000000 001011
    005066  aa   000000 000010
    005067  aa   163157 040040     552  		vfd a36/so  ,36/i_c,36/c_lit,36/(disp3-l_org)/5,36/a_8
    005070  aa   000000 000001
    005071  aa   000000 000025
    005072  aa   000000 001011
    005073  aa   000000 000010
    005074  aa   163157 040040     553  		vfd a36/so  ,36/i_c,36/c_figconall,36/(disp3-l_org)/5,36/a_8
    005075  aa   000000 000001
    005076  aa   000000 000026
    005077  aa   000000 001011
    005100  aa   000000 000010
    005101  aa   163040 040040     554  		vfd a36/s   ,36/i_c,36/c_xnm,36/(disp5-l_org)/5,36/0
    005102  aa   000000 000001
    005103  aa   000000 000041
    005104  aa   000000 001010
    005105  aa   000000 000000
    005106  aa   163040 040040     555  		vfd a36/s   ,36/i_s,36/(xdname-l_org)/5,36/(disp5-l_org)/5,36/0
    005107  aa   000000 000003
    005110  aa   000000 003457
    005111  aa   000000 001010
    005112  aa   000000 000000
    005113  aa   040040 040040     556  		vfd a36/    ,36/i_n,36/0,36/(verb1-l_org)/5,36/a_249
    005114  aa   000000 000002
    005115  aa   000000 000000
    005116  aa   000000 003640
    005117  aa   000000 000371
    005120  aa   040040 040040     557  	disp4:	vfd a36/    ,36/i_c,36/c_disp_dev,36/(disp1-l_org)/5,36/0
    005121  aa   000000 000001
    005122  aa   000000 000306
    005123  aa   000000 001022
    005124  aa   000000 000000
    005125  aa   040040 040040     558  		vfd a36/    ,36/i_n,36/040,36/(rtwo-l_org)/5,36/0
    005126  aa   000000 000002
    005127  aa   000000 000050
    005130  aa   000000 004060
    005131  aa   000000 000000
    005132  aa   163040 040040     559  	disp1:	vfd a36/s   ,36/i_c,36/c_disp_dev,36/(disp2-l_org)/5,36/a_163
    005133  aa   000000 000001
    005134  aa   000000 000306
    005135  aa   000000 001024
    005136  aa   000000 000243
    005137  aa   040040 040040     560  		vfd a36/    ,36/i_n,36/224,36/(rtwo-l_org)/5,36/0
    005140  aa   000000 000002
    005141  aa   000000 000340
    005142  aa   000000 004060
    005143  aa   000000 000000
    005144  aa   040040 040040     561  	disp2:	vfd a36/    ,36/i_n,36/0,36/(verb1-l_org)/5,36/a_3
    005145  aa   000000 000002
    005146  aa   000000 000000
    005147  aa   000000 003640
    005150  aa   000000 000003
    005151  aa   163157 040040     562  	divide:	vfd a36/so  ,36/i_r,36/r_divide,36/(l_138-l_org)/5,36/a_27
    005152  aa   000000 000000
    005153  aa   000000 000011
    005154  aa   000000 001026
    005155  aa   000000 000033
    005156  aa   163157 040040     563  l_138:		vfd a36/so  ,36/i_s,36/(elnuitem-l_org)/5,36/(l_139-l_org)/5,36/0
    005157  aa   000000 000003
    005160  aa   000000 003551
    005161  aa   000000 001030
    005162  aa   000000 000000
    005163  aa   040040 040040     564  		vfd a36/    ,36/i_n,36/024,36/(rtwo-l_org)/5,36/0
    005164  aa   000000 000002
    005165  aa   000000 000030
    005166  aa   000000 004060
    005167  aa   000000 000000
    005170  aa   163040 040040     565  l_139:		vfd a36/s   ,36/i_r,36/r_into,36/(l_140-l_org)/5,36/0
    005171  aa   000000 000000
    005172  aa   000000 000164
    005173  aa   000000 001033
    005174  aa   000000 000000
    005175  aa   163040 040040     566  		vfd a36/s   ,36/i_r,36/r_by,36/(div2-l_org)/5,36/a_24
    005176  aa   000000 000000
    005177  aa   000000 000122
    005200  aa   000000 001061
    005201  aa   000000 000030
    005202  aa   040040 040040     567  		vfd a36/    ,36/i_n,36/041,36/(rtwo-l_org)/5,36/0
    005203  aa   000000 000002
    005204  aa   000000 000051
    005205  aa   000000 004060
    005206  aa   000000 000000
    005207  aa   163157 040040     568  l_140:		vfd a36/so  ,36/i_c,36/c_nlit,36/(div8-l_org)/5,36/a_21
    005210  aa   000000 000001
    005211  aa   000000 000320
    005212  aa   000000 001063
    005213  aa   000000 000025
    005214  aa   163040 040040     569  		vfd a36/s   ,36/i_s,36/(elnuitem-l_org)/5,36/(l_141-l_org)/5,36/a_45
    005215  aa   000000 000003
    005216  aa   000000 003551
    005217  aa   000000 001036
    005220  aa   000000 000055
    005221  aa   040040 040040     570  		vfd a36/    ,36/i_n,36/024,36/(rtwo-l_org)/5,36/0
    005222  aa   000000 000002
    005223  aa   000000 000030
    005224  aa   000000 004060
    005225  aa   000000 000000
    005226  aa   163040 040040     571  l_141:		vfd a36/s   ,36/i_r,36/r_giving,36/(div9-l_org)/5,36/a_75
    005227  aa   000000 000000
    005230  aa   000000 000160
    005231  aa   000000 001065
    005232  aa   000000 000113
    005233  aa   040040 040040     572  l_142:		vfd a36/    ,36/i_c,36/c_csstst,36/(l_143-l_org)/5,36/0
    005234  aa   000000 000001
    005235  aa   000000 000276
    005236  aa   000000 001041
    005237  aa   000000 000000
    005240  aa   040040 040040     573  		vfd a36/    ,36/i_n,36/0,36/(l_143-l_org)/5,36/a_278
    005241  aa   000000 000002
    005242  aa   000000 000000
    005243  aa   000000 001041
    005244  aa   000000 000426
    005245  aa   163040 040040     574  l_143:	div1:	vfd a36/s   ,36/i_r,36/r_rounded,36/(l_144-l_org)/5,36/a_267
    005246  aa   000000 000000
    005247  aa   000000 000234
    005250  aa   000000 001043
    005251  aa   000000 000413
    005252  aa   040040 040040     575  		vfd a36/    ,36/i_n,36/0,36/(l_144-l_org)/5,36/a_268
    005253  aa   000000 000002
    005254  aa   000000 000000
    005255  aa   000000 001043
    005256  aa   000000 000414
    005257  aa   040040 040040     576  l_144:		vfd a36/    ,36/i_s,36/(alel-l_org)/5,36/(div14-l_org)/5,36/a_271
    005260  aa   000000 000003
    005261  aa   000000 003577
    005262  aa   000000 001053
    005263  aa   000000 000417
    005264  aa   040040 040040     577  	div5:	vfd a36/    ,36/i_s,36/(nos-l_org)/5,36/(div10-l_org)/5,36/a_87
    005265  aa   000000 000003
    005266  aa   000000 003763
    005267  aa   000000 001050
    005270  aa   000000 000127
    005271  aa   040040 040040     578  		vfd a36/    ,36/i_n,36/0,36/(l_145-l_org)/5,36/a_3
    005272  aa   000000 000002
    005273  aa   000000 000000
    005274  aa   000000 001046
    005275  aa   000000 000003
    005276  aa   163040 040040     579  l_145:		vfd a36/s   ,36/i_r,36/r_end_divide,36/(verb1-l_org)/5,36/a_312
    005277  aa   000000 000000
    005300  aa   000000 000726
    005301  aa   000000 003640
    005302  aa   000000 000470
    005303  aa   040040 040040     580  		vfd a36/    ,36/i_n,36/0,36/(verb1-l_org)/5,36/0
    005304  aa   000000 000002
    005305  aa   000000 000000
    005306  aa   000000 003640
    005307  aa   000000 000000
    005310  aa   040040 040040     581  	div10:	vfd a36/    ,36/i_s,36/(osi-l_org)/5,36/(l_146-l_org)/5,36/0
    005311  aa   000000 000003
    005312  aa   000000 003770
    005313  aa   000000 001051
    005314  aa   000000 000000
    005315  aa   163040 040040     582  l_146:		vfd a36/s   ,36/i_r,36/r_end_divide,36/(verb1-l_org)/5,36/a_266
    005316  aa   000000 000000
    005317  aa   000000 000726
    005320  aa   000000 003640
    005321  aa   000000 000412
    005322  aa   040040 040040     583  		vfd a36/    ,36/i_n,36/0,36/(verb1-l_org)/5,36/a_310
    005323  aa   000000 000002
    005324  aa   000000 000000
    005325  aa   000000 003640
    005326  aa   000000 000466
    005327  aa   163063 040040     584  	div14:	vfd a36/s3  ,36/i_n,36/23,36/(div1-l_org)/5,36/2
    005330  aa   000000 000002
    005331  aa   000000 000027
    005332  aa   000000 001041
    005333  aa   000000 000002
    005334  aa   163040 040040     585  	div6:	vfd a36/s   ,36/i_r,36/r_rounded,36/(l_147-l_org)/5,36/a_35
    005335  aa   000000 000000
    005336  aa   000000 000234
    005337  aa   000000 001055
    005340  aa   000000 000043
    005341  aa   040040 040040     586  l_147:		vfd a36/    ,36/i_r,36/r_remainder,36/(div13-l_org)/5,36/a_48
    005342  aa   000000 000000
    005343  aa   000000 000227
    005344  aa   000000 001067
    005345  aa   000000 000060
    005346  aa   040040 040040     587  		vfd a36/    ,36/i_n,36/0,36/(l_148-l_org)/5,36/a_268
    005347  aa   000000 000002
    005350  aa   000000 000000
    005351  aa   000000 001057
    005352  aa   000000 000414
    005353  aa   040040 040040     588  l_148:	div7:	vfd a36/    ,36/i_s,36/(edalel-l_org)/5,36/(div15-l_org)/5,36/a_269
    005354  aa   000000 000003
    005355  aa   000000 003605
    005356  aa   000000 001072
    005357  aa   000000 000415
    005360  aa   040040 040040     589  		vfd a36/    ,36/i_n,36/0,36/(div5-l_org)/5,36/0
    005361  aa   000000 000002
    005362  aa   000000 000000
    005363  aa   000000 001044
    005364  aa   000000 000000
    005365  aa   163157 040040     590  	div2:	vfd a36/so  ,36/i_s,36/(elnuitem-l_org)/5,36/(l_149-l_org)/5,36/0
    005366  aa   000000 000003
    005367  aa   000000 003551
    005370  aa   000000 001063
    005371  aa   000000 000000
    005372  aa   040040 040040     591  		vfd a36/    ,36/i_n,36/24,36/(rtwo-l_org)/5,36/0
    005373  aa   000000 000002
    005374  aa   000000 000030
    005375  aa   000000 004060
    005376  aa   000000 000000
    005377  aa   163040 040040     592  l_149:	div8:	vfd a36/s   ,36/i_r,36/r_giving,36/(l_150-l_org)/5,36/0
    005400  aa   000000 000000
    005401  aa   000000 000160
    005402  aa   000000 001065
    005403  aa   000000 000000
    005404  aa   040040 040040     593  		vfd a36/    ,36/i_n,36/058,36/(rtwo-l_org)/5,36/0
    005405  aa   000000 000002
    005406  aa   000000 000072
    005407  aa   000000 004060
    005410  aa   000000 000000
    005411  aa   163040 040040     594  l_150:	div9:	vfd a36/s   ,36/i_s,36/(edalel-l_org)/5,36/(div6-l_org)/5,36/a_29
    005412  aa   000000 000003
    005413  aa   000000 003605
    005414  aa   000000 001054
    005415  aa   000000 000035
    005416  aa   040040 040040     595  		vfd a36/    ,36/i_n,36/026,36/(rtwo-l_org)/5,36/0
    005417  aa   000000 000002
    005420  aa   000000 000032
    005421  aa   000000 004060
    005422  aa   000000 000000
    005423  aa   163063 040040     596  	div13:	vfd a36/s3  ,36/i_n,36/26,36/(l_151-l_org)/5,36/2
    005424  aa   000000 000002
    005425  aa   000000 000032
    005426  aa   000000 001070
    005427  aa   000000 000002
    005430  aa   163157 040040     597  l_151:		vfd a36/so  ,36/i_s,36/(edalel-l_org)/5,36/(div5-l_org)/5,36/a_45
    005431  aa   000000 000003
    005432  aa   000000 003605
    005433  aa   000000 001044
    005434  aa   000000 000055
    005435  aa   040040 040040     598  		vfd a36/    ,36/i_n,36/026,36/(rtwo-l_org)/5,36/0
    005436  aa   000000 000002
    005437  aa   000000 000032
    005440  aa   000000 004060
    005441  aa   000000 000000
    005442  aa   163063 040040     599  	div15:	vfd a36/s3  ,36/i_n,36/23,36/(l_152-l_org)/5,36/2
    005443  aa   000000 000002
    005444  aa   000000 000027
    005445  aa   000000 001073
    005446  aa   000000 000002
    005447  aa   163040 040040     600  l_152:		vfd a36/s   ,36/i_r,36/r_rounded,36/(div7-l_org)/5,36/a_267
    005450  aa   000000 000000
    005451  aa   000000 000234
    005452  aa   000000 001057
    005453  aa   000000 000413
    005454  aa   040040 040040     601  		vfd a36/    ,36/i_n,36/0,36/(div7-l_org)/5,36/a_268
    005455  aa   000000 000002
    005456  aa   000000 000000
    005457  aa   000000 001057
    005460  aa   000000 000414
    005461  aa   040157 040040     602  	enable:	vfd a36/ o  ,36/i_r,36/r_enable,36/(l_153-l_org)/5,36/a_87
    005462  aa   000000 000000
    005463  aa   000000 000053
    005464  aa   000000 001076
    005465  aa   000000 000127
    005466  aa   163063 040040     603  l_153:		vfd a36/s3  ,36/i_n,36/73,36/(dis_3-l_org)/5,36/23
    005467  aa   000000 000002
    005470  aa   000000 000111
    005471  aa   000000 000762
    005472  aa   000000 000027
    005473  aa   163157 040040     604  	enter:	vfd a36/so  ,36/i_r,36/r_enter,36/(l_154-l_org)/5,36/a_87
    005474  aa   000000 000000
    005475  aa   000000 000054
    005476  aa   000000 001100
    005477  aa   000000 000127
    005500  aa   163040 040040     605  l_154:		vfd a36/s   ,36/i_r,36/r_cobol,36/(verb1-l_org)/5,36/0
    005501  aa   000000 000000
    005502  aa   000000 000277
    005503  aa   000000 003640
    005504  aa   000000 000000
    005505  aa   040040 040040     606  		vfd a36/    ,36/i_c,36/c_nonumlit,36/(l_155-l_org)/5,36/a_38
    005506  aa   000000 000001
    005507  aa   000000 000017
    005510  aa   000000 001102
    005511  aa   000000 000046
    005512  aa   040040 040040     607  l_155:		vfd a36/    ,36/i_c,36/c_is_lang,36/(l_156-l_org)/5,36/0
    005513  aa   000000 000001
    005514  aa   000000 000310
    005515  aa   000000 001104
    005516  aa   000000 000000
    005517  aa   040040 040040     608  		vfd a36/    ,36/i_n,36/276,36/(rtwo-l_org)/5,36/0
    005520  aa   000000 000002
    005521  aa   000000 000424
    005522  aa   000000 004060
    005523  aa   000000 000000
    005524  aa   163040 040040     609  l_156:		vfd a36/s   ,36/i_c,36/c_is_cobol,36/(verb1-l_org)/5,36/0
    005525  aa   000000 000001
    005526  aa   000000 000030
    005527  aa   000000 003640
    005530  aa   000000 000000
    005531  aa   163040 040040     610  		vfd a36/s   ,36/i_n,36/0,36/(l_157-l_org)/5,36/0
    005532  aa   000000 000002
    005533  aa   000000 000000
    005534  aa   000000 001106
    005535  aa   000000 000000
    005536  aa   163157 040040     611  l_157:		vfd a36/so  ,36/i_c,36/c_nonumlit,36/(l_158-l_org)/5,36/0
    005537  aa   000000 000001
    005540  aa   000000 000017
    005541  aa   000000 001111
    005542  aa   000000 000000
    005543  aa   163157 040040     612  		vfd a36/so  ,36/i_c,36/c_is_rout,36/(l_158-l_org)/5,36/a_38
    005544  aa   000000 000001
    005545  aa   000000 000240
    005546  aa   000000 001111
    005547  aa   000000 000046
    005550  aa   040040 040040     613  		vfd a36/    ,36/i_n,36/278,36/(rtwo-l_org)/5,36/0
    005551  aa   000000 000002
    005552  aa   000000 000426
    005553  aa   000000 004060
    005554  aa   000000 000000
    005555  aa   040040 040040     614  l_158:		vfd a36/    ,36/i_n,36/0,36/(l_159-l_org)/5,36/a_23
    005556  aa   000000 000002
    005557  aa   000000 000000
    005560  aa   000000 001112
    005561  aa   000000 000027
    005562  aa   040040 040040     615  l_159:	exit:	vfd a36/    ,36/i_c,36/c_preospn,36/(l_160-l_org)/5,36/a_155
    005563  aa   000000 000001
    005564  aa   000000 000140
    005565  aa   000000 001114
    005566  aa   000000 000233
    005567  aa   040040 040040     616  		vfd a36/    ,36/i_n,36/0,36/(l_160-l_org)/5,36/a_154
    005570  aa   000000 000002
    005571  aa   000000 000000
    005572  aa   000000 001114
    005573  aa   000000 000232
    005574  aa   163157 040040     617  l_160:		vfd a36/so  ,36/i_r,36/r_exit,36/(l_161-l_org)/5,36/a_318
    005575  aa   000000 000000
    005576  aa   000000 000014
    005577  aa   000000 001115
    005600  aa   000000 000476
    005601  aa   040040 040040     618  l_161:		vfd a36/    ,36/i_r,36/r_program,36/(exit1-l_org)/5,36/a_194
    005602  aa   000000 000000
    005603  aa   000000 000222
    005604  aa   000000 001122
    005605  aa   000000 000302
    005606  aa   040040 040040     619  l_162:		vfd a36/    ,36/i_n,36/0,36/(l_163-l_org)/5,36/a_319
    005607  aa   000000 000002
    005610  aa   000000 000000
    005611  aa   000000 001117
    005612  aa   000000 000477
    005613  aa   040040 040040     620  l_163:		vfd a36/    ,36/i_c,36/c_ckprpnbit,36/(verb1-l_org)/5,36/a_3
    005614  aa   000000 000001
    005615  aa   000000 000230
    005616  aa   000000 003640
    005617  aa   000000 000003
    005620  aa   040040 040040     621  		vfd a36/    ,36/i_c,36/c_debug,36/(verb1-l_org)/5,36/a_3
    005621  aa   000000 000001
    005622  aa   000000 000326
    005623  aa   000000 003640
    005624  aa   000000 000003
    005625  aa   040040 040040     622  		vfd a36/    ,36/i_n,36/146,36/(rtwo-l_org)/5,36/0
    005626  aa   000000 000002
    005627  aa   000000 000222
    005630  aa   000000 004060
    005631  aa   000000 000000
    005632  aa   163062 040040     623  	exit1:	vfd a36/s2  ,36/i_n,36/69,36/(verb1-l_org)/5,36/13
    005633  aa   000000 000002
    005634  aa   000000 000105
    005635  aa   000000 003640
    005636  aa   000000 000015
    005637  aa   163040 040040     624  	evaluate:	vfd a36/s   ,36/i_r,36/r_evaluate,36/(l_164-l_org)/5,36/a_50
    005640  aa   000000 000000
    005641  aa   000000 000764
    005642  aa   000000 001124
    005643  aa   000000 000062
    005644  aa   040040 040040     625  l_164:		vfd a36/    ,36/i_s,36/(selsub-l_org)/5,36/(l_165-l_org)/5,36/0
    005645  aa   000000 000003
    005646  aa   000000 001146
    005647  aa   000000 001126
    005650  aa   000000 000000
    005651  aa   040040 040040     626  		vfd a36/    ,36/i_n,36/300,36/(rtwo-l_org)/5,36/0
    005652  aa   000000 000002
    005653  aa   000000 000454
    005654  aa   000000 004060
    005655  aa   000000 000000
    005656  aa   163040 040040     627  l_165:	ev1:	vfd a36/s   ,36/i_r,36/r_also,36/(l_166-l_org)/5,36/0
    005657  aa   000000 000000
    005660  aa   000000 000140
    005661  aa   000000 001130
    005662  aa   000000 000000
    005663  aa   040040 040040     628  		vfd a36/    ,36/i_n,36/0,36/(ev2-l_org)/5,36/0
    005664  aa   000000 000002
    005665  aa   000000 000000
    005666  aa   000000 001132
    005667  aa   000000 000000
    005670  aa   040040 040040     629  l_166:		vfd a36/    ,36/i_s,36/(selsub-l_org)/5,36/(ev1-l_org)/5,36/0
    005671  aa   000000 000003
    005672  aa   000000 001146
    005673  aa   000000 001126
    005674  aa   000000 000000
    005675  aa   040040 040040     630  		vfd a36/    ,36/i_n,36/300,36/(rtwo-l_org)/5,36/0
    005676  aa   000000 000002
    005677  aa   000000 000454
    005700  aa   000000 004060
    005701  aa   000000 000000
    005702  aa   163040 040040     631  	ev2:	vfd a36/s   ,36/i_r,36/r_when,36/(l_167-l_org)/5,36/0
    005703  aa   000000 000000
    005704  aa   000000 000262
    005705  aa   000000 001134
    005706  aa   000000 000000
    005707  aa   040040 040040     632  		vfd a36/    ,36/i_n,36/300,36/(rtwo-l_org)/5,36/0
    005710  aa   000000 000002
    005711  aa   000000 000454
    005712  aa   000000 004060
    005713  aa   000000 000000
    005714  aa   040040 040040     633  l_167:	ev3:	vfd a36/    ,36/i_s,36/(selobj-l_org)/5,36/(l_168-l_org)/5,36/0
    005715  aa   000000 000003
    005716  aa   000000 001154
    005717  aa   000000 001136
    005720  aa   000000 000000
    005721  aa   040040 040040     634  		vfd a36/    ,36/i_n,36/300,36/(rtwo-l_org)/5,36/0
    005722  aa   000000 000002
    005723  aa   000000 000454
    005724  aa   000000 004060
    005725  aa   000000 000000
    005726  aa   040040 040040     635  l_168:		vfd a36/    ,36/i_s,36/(imp-l_org)/5,36/(l_169-l_org)/5,36/0
    005727  aa   000000 000003
    005730  aa   000000 003624
    005731  aa   000000 001137
    005732  aa   000000 000000
    005733  aa   163040 040040     636  l_169:		vfd a36/s   ,36/i_r,36/r_when,36/(l_170-l_org)/5,36/0
    005734  aa   000000 000000
    005735  aa   000000 000262
    005736  aa   000000 001141
    005737  aa   000000 000000
    005740  aa   040040 040040     637  		vfd a36/    ,36/i_n,36/0,36/(ev5-l_org)/5,36/0
    005741  aa   000000 000002
    005742  aa   000000 000000
    005743  aa   000000 001144
    005744  aa   000000 000000
    005745  aa   163040 040040     638  l_170:		vfd a36/s   ,36/i_r,36/r_other,36/(l_171-l_org)/5,36/0
    005746  aa   000000 000000
    005747  aa   000000 000673
    005750  aa   000000 001143
    005751  aa   000000 000000
    005752  aa   040040 040040     639  		vfd a36/    ,36/i_n,36/0,36/(ev3-l_org)/5,36/0
    005753  aa   000000 000002
    005754  aa   000000 000000
    005755  aa   000000 001134
    005756  aa   000000 000000
    005757  aa   040040 040040     640  l_171:		vfd a36/    ,36/i_s,36/(imp-l_org)/5,36/(l_172-l_org)/5,36/0
    005760  aa   000000 000003
    005761  aa   000000 003624
    005762  aa   000000 001144
    005763  aa   000000 000000
    005764  aa   163040 040040     641  l_172:	ev5:	vfd a36/s   ,36/i_r,36/r_end_evaluate,36/(verb1-l_org)/5,36/a_266
    005765  aa   000000 000000
    005766  aa   000000 000727
    005767  aa   000000 003640
    005770  aa   000000 000412
    005771  aa   040040 040040     642  		vfd a36/    ,36/i_n,36/0,36/(verb1-l_org)/5,36/a_310
    005772  aa   000000 000002
    005773  aa   000000 000000
    005774  aa   000000 003640
    005775  aa   000000 000466
    005776  aa   040040 040040     643  	selsub:	vfd a36/    ,36/i_s,36/(expr-l_org)/5,36/(l_173-l_org)/5,36/0
    005777  aa   000000 000003
    006000  aa   000000 004112
    006001  aa   000000 001152
    006002  aa   000000 000000
    006003  aa   163040 040040     644  		vfd a36/s   ,36/i_s,36/(ident-l_org)/5,36/(succ-l_org)/5,36/0
    006004  aa   000000 000003
    006005  aa   000000 003462
    006006  aa   000000 004110
    006007  aa   000000 000000
    006010  aa   163040 040040     645  		vfd a36/s   ,36/i_c,36/c_lit,36/(succ-l_org)/5,36/0
    006011  aa   000000 000001
    006012  aa   000000 000025
    006013  aa   000000 004110
    006014  aa   000000 000000
    006015  aa   040040 040040     646  		vfd a36/    ,36/i_n,36/0,36/(fail-l_org)/5,36/0
    006016  aa   000000 000002
    006017  aa   000000 000000
    006020  aa   000000 004111
    006021  aa   000000 000000
    006022  aa   040040 040040     647  l_173:		vfd a36/    ,36/i_c,36/c_is_cond,36/(succ-l_org)/5,36/0
    006023  aa   000000 000001
    006024  aa   000000 000332
    006025  aa   000000 004110
    006026  aa   000000 000000
    006027  aa   040040 040040     648  		vfd a36/    ,36/i_n,36/0,36/(succ-l_org)/5,36/0
    006030  aa   000000 000002
    006031  aa   000000 000000
    006032  aa   000000 004110
    006033  aa   000000 000000
    006034  aa   040040 040040     649  	selobj:	vfd a36/    ,36/i_s,36/(objt-l_org)/5,36/(l_174-l_org)/5,36/0
    006035  aa   000000 000003
    006036  aa   000000 001162
    006037  aa   000000 001156
    006040  aa   000000 000000
    006041  aa   040040 040040     650  		vfd a36/    ,36/i_n,36/300,36/(rtwo-l_org)/5,36/0
    006042  aa   000000 000002
    006043  aa   000000 000454
    006044  aa   000000 004060
    006045  aa   000000 000000
    006046  aa   163040 040040     651  l_174:	so1:	vfd a36/s   ,36/i_r,36/r_also,36/(l_175-l_org)/5,36/0
    006047  aa   000000 000000
    006050  aa   000000 000140
    006051  aa   000000 001160
    006052  aa   000000 000000
    006053  aa   040040 040040     652  		vfd a36/    ,36/i_n,36/0,36/(succ-l_org)/5,36/0
    006054  aa   000000 000002
    006055  aa   000000 000000
    006056  aa   000000 004110
    006057  aa   000000 000000
    006060  aa   040040 040040     653  l_175:		vfd a36/    ,36/i_s,36/(objt-l_org)/5,36/(so1-l_org)/5,36/0
    006061  aa   000000 000003
    006062  aa   000000 001162
    006063  aa   000000 001156
    006064  aa   000000 000000
    006065  aa   040040 040040     654  		vfd a36/    ,36/i_n,36/300,36/(rtwo-l_org)/5,36/0
    006066  aa   000000 000002
    006067  aa   000000 000454
    006070  aa   000000 004060
    006071  aa   000000 000000
    006072  aa   040040 040040     655  	objt:	vfd a36/    ,36/i_r,36/r_any,36/(succ-l_org)/5,36/0
    006073  aa   000000 000000
    006074  aa   000000 000720
    006075  aa   000000 004110
    006076  aa   000000 000000
    006077  aa   040040 040040     656  		vfd a36/    ,36/i_s,36/(condition-l_org)/5,36/(succ-l_org)/5,36/0
    006100  aa   000000 000003
    006101  aa   000000 004120
    006102  aa   000000 004110
    006103  aa   000000 000000
    006104  aa   040040 040040     657  		vfd a36/    ,36/i_s,36/(range-l_org)/5,36/(succ-l_org)/5,36/0
    006105  aa   000000 000003
    006106  aa   000000 001166
    006107  aa   000000 004110
    006110  aa   000000 000000
    006111  aa   040040 040040     658  		vfd a36/    ,36/i_n,36/0,36/(fail-l_org)/5,36/0
    006112  aa   000000 000002
    006113  aa   000000 000000
    006114  aa   000000 004111
    006115  aa   000000 000000
    006116  aa   163040 040040     659  	range:	vfd a36/s   ,36/i_r,36/r_not,36/(l_176-l_org)/5,36/0
    006117  aa   000000 000000
    006120  aa   000000 000202
    006121  aa   000000 001171
    006122  aa   000000 000000
    006123  aa   040040 040040     660  		vfd a36/    ,36/i_s,36/(rt-l_org)/5,36/(rg1-l_org)/5,36/0
    006124  aa   000000 000003
    006125  aa   000000 001177
    006126  aa   000000 001173
    006127  aa   000000 000000
    006130  aa   040040 040040     661  		vfd a36/    ,36/i_n,36/0,36/(fail-l_org)/5,36/0
    006131  aa   000000 000002
    006132  aa   000000 000000
    006133  aa   000000 004111
    006134  aa   000000 000000
    006135  aa   040040 040040     662  l_176:		vfd a36/    ,36/i_s,36/(rt-l_org)/5,36/(l_177-l_org)/5,36/0
    006136  aa   000000 000003
    006137  aa   000000 001177
    006140  aa   000000 001173
    006141  aa   000000 000000
    006142  aa   040040 040040     663  		vfd a36/    ,36/i_n,36/300,36/(rtwo-l_org)/5,36/0
    006143  aa   000000 000002
    006144  aa   000000 000454
    006145  aa   000000 004060
    006146  aa   000000 000000
    006147  aa   163040 040040     664  l_177:	rg1:	vfd a36/s   ,36/i_r,36/r_thru,36/(l_178-l_org)/5,36/0
    006150  aa   000000 000000
    006151  aa   000000 000246
    006152  aa   000000 001175
    006153  aa   000000 000000
    006154  aa   040040 040040     665  		vfd a36/    ,36/i_n,36/0,36/(succ-l_org)/5,36/0
    006155  aa   000000 000002
    006156  aa   000000 000000
    006157  aa   000000 004110
    006160  aa   000000 000000
    006161  aa   040040 040040     666  l_178:		vfd a36/    ,36/i_s,36/(rt-l_org)/5,36/(succ-l_org)/5,36/0
    006162  aa   000000 000003
    006163  aa   000000 001177
    006164  aa   000000 004110
    006165  aa   000000 000000
    006166  aa   040040 040040     667  		vfd a36/    ,36/i_n,36/300,36/(rtwo-l_org)/5,36/0
    006167  aa   000000 000002
    006170  aa   000000 000454
    006171  aa   000000 004060
    006172  aa   000000 000000
    006173  aa   040040 040040     668  	rt:	vfd a36/    ,36/i_s,36/(arithexp-l_org)/5,36/(succ-l_org)/5,36/0
    006174  aa   000000 000003
    006175  aa   000000 004265
    006176  aa   000000 004110
    006177  aa   000000 000000
    006200  aa   163040 040040     669  		vfd a36/s   ,36/i_s,36/(ident-l_org)/5,36/(succ-l_org)/5,36/0
    006201  aa   000000 000003
    006202  aa   000000 003462
    006203  aa   000000 004110
    006204  aa   000000 000000
    006205  aa   163040 040040     670  		vfd a36/s   ,36/i_c,36/c_lit,36/(succ-l_org)/5,36/0
    006206  aa   000000 000001
    006207  aa   000000 000025
    006210  aa   000000 004110
    006211  aa   000000 000000
    006212  aa   040040 040040     671  		vfd a36/    ,36/i_n,36/0,36/(fail-l_org)/5,36/0
    006213  aa   000000 000002
    006214  aa   000000 000000
    006215  aa   000000 004111
    006216  aa   000000 000000
    006217  aa   163040 040040     672  	generate:	vfd a36/s   ,36/i_r,36/r_generate,36/(l_179-l_org)/5,36/a_87
    006220  aa   000000 000000
    006221  aa   000000 000055
    006222  aa   000000 001204
    006223  aa   000000 000127
    006224  aa   040040 040040     673  l_179:		vfd a36/    ,36/i_s,36/(rep_nam-l_org)/5,36/(verb1-l_org)/5,36/0
    006225  aa   000000 000003
    006226  aa   000000 003126
    006227  aa   000000 003640
    006230  aa   000000 000000
    006231  aa   040040 040040     674  		vfd a36/    ,36/i_n,36/43,36/(rtwo-l_org)/5,36/0
    006232  aa   000000 000002
    006233  aa   000000 000053
    006234  aa   000000 004060
    006235  aa   000000 000000
    006236  aa   163040 040040     675  	go:	vfd a36/s   ,36/i_c,36/c_gotod,36/(gotod-l_org)/5,36/a_148
    006237  aa   000000 000001
    006240  aa   000000 000221
    006241  aa   000000 001223
    006242  aa   000000 000224
    006243  aa   040040 040040     676  		vfd a36/    ,36/i_c,36/c_preospn,36/(l_180-l_org)/5,36/0
    006244  aa   000000 000001
    006245  aa   000000 000140
    006246  aa   000000 001211
    006247  aa   000000 000000
    006250  aa   163157 040040     677  		vfd a36/so  ,36/i_r,36/r_go,36/(go5-l_org)/5,36/a_87
    006251  aa   000000 000000
    006252  aa   000000 000016
    006253  aa   000000 001220
    006254  aa   000000 000127
    006255  aa   163157 040040     678  l_180:		vfd a36/so  ,36/i_r,36/r_go,36/(l_181-l_org)/5,36/a_87
    006256  aa   000000 000000
    006257  aa   000000 000016
    006260  aa   000000 001212
    006261  aa   000000 000127
    006262  aa   163040 040040     679  l_181:		vfd a36/s   ,36/i_r,36/r_to,36/(l_182-l_org)/5,36/0
    006263  aa   000000 000000
    006264  aa   000000 000252
    006265  aa   000000 001213
    006266  aa   000000 000000
    006267  aa   040040 040040     680  l_182:		vfd a36/    ,36/i_c,36/c_prnm,36/(go1-l_org)/5,36/a_8
    006270  aa   000000 000001
    006271  aa   000000 000016
    006272  aa   000000 001226
    006273  aa   000000 000010
    006274  aa   040040 040040     681  		vfd a36/    ,36/i_n,36/0,36/(l_183-l_org)/5,36/a_192
    006275  aa   000000 000002
    006276  aa   000000 000000
    006277  aa   000000 001215
    006300  aa   000000 000300
    006301  aa   040063 040040     682  l_183:		vfd a36/ 3  ,36/i_n,36/27,36/(verb1-l_org)/5,36/2
    006302  aa   000000 000002
    006303  aa   000000 000033
    006304  aa   000000 003640
    006305  aa   000000 000002
    006306  aa   040040 040040     683  	go4:	vfd a36/    ,36/i_c,36/c_prnm,36/(go2-l_org)/5,36/a_8
    006307  aa   000000 000001
    006310  aa   000000 000016
    006311  aa   000000 001231
    006312  aa   000000 000010
    006313  aa   040040 040040     684  	go3:	vfd a36/    ,36/i_n,36/0,36/(verb1-l_org)/5,36/a_193
    006314  aa   000000 000002
    006315  aa   000000 000000
    006316  aa   000000 003640
    006317  aa   000000 000301
    006320  aa   163040 040040     685  	go5:	vfd a36/s   ,36/i_r,36/r_to,36/(l_184-l_org)/5,36/0
    006321  aa   000000 000000
    006322  aa   000000 000252
    006323  aa   000000 001221
    006324  aa   000000 000000
    006325  aa   040040 040040     686  l_184:		vfd a36/    ,36/i_c,36/c_prnm,36/(go1-l_org)/5,36/a_8
    006326  aa   000000 000001
    006327  aa   000000 000016
    006330  aa   000000 001226
    006331  aa   000000 000010
    006332  aa   040040 040040     687  		vfd a36/    ,36/i_n,36/062,36/(rtwo-l_org)/5,36/0
    006333  aa   000000 000002
    006334  aa   000000 000076
    006335  aa   000000 004060
    006336  aa   000000 000000
    006337  aa   163040 040040     688  	gotod:	vfd a36/s   ,36/i_r,36/r_depending,36/(go6-l_org)/5,36/a_21
    006340  aa   000000 000000
    006341  aa   000000 000134
    006342  aa   000000 001234
    006343  aa   000000 000025
    006344  aa   040040 040040     689  		vfd a36/    ,36/i_c,36/c_prnm,36/(go2-l_org)/5,36/a_8
    006345  aa   000000 000001
    006346  aa   000000 000016
    006347  aa   000000 001231
    006350  aa   000000 000010
    006351  aa   040040 040040     690  		vfd a36/    ,36/i_n,36/044,36/(rtwo-l_org)/5,36/0
    006352  aa   000000 000002
    006353  aa   000000 000054
    006354  aa   000000 004060
    006355  aa   000000 000000
    006356  aa   040040 040040     691  	go1:	vfd a36/    ,36/i_n,36/0,36/(l_185-l_org)/5,36/a_272
    006357  aa   000000 000002
    006360  aa   000000 000000
    006361  aa   000000 001227
    006362  aa   000000 000420
    006363  aa   163157 040040     692  l_185:		vfd a36/so  ,36/i_c,36/c_decnondec,36/(go4-l_org)/5,36/0
    006364  aa   000000 000001
    006365  aa   000000 000227
    006366  aa   000000 001216
    006367  aa   000000 000000
    006370  aa   040040 040040     693  		vfd a36/    ,36/i_n,36/188,36/(rtwo-l_org)/5,36/0
    006371  aa   000000 000002
    006372  aa   000000 000274
    006373  aa   000000 004060
    006374  aa   000000 000000
    006375  aa   040040 040040     694  	go2:	vfd a36/    ,36/i_n,36/0,36/(l_186-l_org)/5,36/a_272
    006376  aa   000000 000002
    006377  aa   000000 000000
    006400  aa   000000 001232
    006401  aa   000000 000420
    006402  aa   163157 040040     695  l_186:		vfd a36/so  ,36/i_c,36/c_decnondec,36/(gotod-l_org)/5,36/0
    006403  aa   000000 000001
    006404  aa   000000 000227
    006405  aa   000000 001223
    006406  aa   000000 000000
    006407  aa   040040 040040     696  		vfd a36/    ,36/i_n,36/188,36/(rtwo-l_org)/5,36/0
    006410  aa   000000 000002
    006411  aa   000000 000274
    006412  aa   000000 004060
    006413  aa   000000 000000
    006414  aa   163040 040040     697  	go6:	vfd a36/s   ,36/i_r,36/r_on,36/(l_187-l_org)/5,36/0
    006415  aa   000000 000000
    006416  aa   000000 000206
    006417  aa   000000 001235
    006420  aa   000000 000000
    006421  aa   163157 040040     698  l_187:		vfd a36/so  ,36/i_s,36/(elnuitem-l_org)/5,36/(go3-l_org)/5,36/0
    006422  aa   000000 000003
    006423  aa   000000 003551
    006424  aa   000000 001217
    006425  aa   000000 000000
    006426  aa   040040 040040     699  		vfd a36/    ,36/i_n,36/045,36/(rtwo-l_org)/5,36/0
    006427  aa   000000 000002
    006430  aa   000000 000055
    006431  aa   000000 004060
    006432  aa   000000 000000
    006433  aa   040157 040040     700  	hold:	vfd a36/ o  ,36/i_r,36/r_hold,36/(l_188-l_org)/5,36/a_87
    006434  aa   000000 000000
    006435  aa   000000 000056
    006436  aa   000000 001240
    006437  aa   000000 000127
    006440  aa   163065 040040     701  l_188:		vfd a36/s5  ,36/i_n,36/86,36/(l_189-l_org)/5,36/25
    006441  aa   000000 000002
    006442  aa   000000 000126
    006443  aa   000000 001241
    006444  aa   000000 000031
    006445  aa   163040 040040     702  l_189:		vfd a36/s   ,36/i_r,36/r_all,36/(verb1-l_org)/5,36/a_3
    006446  aa   000000 000000
    006447  aa   000000 000111
    006450  aa   000000 003640
    006451  aa   000000 000003
    006452  aa   163157 040040     703  		vfd a36/so  ,36/i_c,36/c_descnm,36/(l_190-l_org)/5,36/a_8
    006453  aa   000000 000001
    006454  aa   000000 000032
    006455  aa   000000 001244
    006456  aa   000000 000010
    006457  aa   040040 040040     704  		vfd a36/    ,36/i_n,36/046,36/(rtwo-l_org)/5,36/0
    006460  aa   000000 000002
    006461  aa   000000 000056
    006462  aa   000000 004060
    006463  aa   000000 000000
    006464  aa   163157 040040     705  l_190:		vfd a36/so  ,36/i_c,36/c_descnm,36/(l_190-l_org)/5,36/a_8
    006465  aa   000000 000001
    006466  aa   000000 000032
    006467  aa   000000 001244
    006470  aa   000000 000010
    006471  aa   040040 040040     706  		vfd a36/    ,36/i_n,36/0,36/(verb1-l_org)/5,36/a_37
    006472  aa   000000 000002
    006473  aa   000000 000000
    006474  aa   000000 003640
    006475  aa   000000 000045
    006476  aa   163157 040040     707  	if:	vfd a36/so  ,36/i_r,36/r_if,36/(l_191-l_org)/5,36/a_283
    006477  aa   000000 000000
    006500  aa   000000 000057
    006501  aa   000000 001247
    006502  aa   000000 000433
    006503  aa   040040 040040     708  l_191:		vfd a36/    ,36/i_n,36/0,36/(l_192-l_org)/5,36/a_306
    006504  aa   000000 000002
    006505  aa   000000 000000
    006506  aa   000000 001250
    006507  aa   000000 000462
    006510  aa   040040 040040     709  l_192:		vfd a36/    ,36/i_s,36/(condition-l_org)/5,36/(l_193-l_org)/5,36/0
    006511  aa   000000 000003
    006512  aa   000000 004120
    006513  aa   000000 001252
    006514  aa   000000 000000
    006515  aa   040040 040040     710  		vfd a36/    ,36/i_n,36/217,36/(rtwo-l_org)/5,36/0
    006516  aa   000000 000002
    006517  aa   000000 000331
    006520  aa   000000 004060
    006521  aa   000000 000000
    006522  aa   163040 040040     711  l_193:		vfd a36/s   ,36/i_r,36/r_then,36/(l_194-l_org)/5,36/0
    006523  aa   000000 000000
    006524  aa   000000 000454
    006525  aa   000000 001253
    006526  aa   000000 000000
    006527  aa   040040 040040     712  l_194:		vfd a36/    ,36/i_s,36/(ns-l_org)/5,36/(if3-l_org)/5,36/a_244
    006530  aa   000000 000003
    006531  aa   000000 001273
    006532  aa   000000 001266
    006533  aa   000000 000364
    006534  aa   040040 040040     713  		vfd a36/    ,36/i_n,36/0,36/(l_195-l_org)/5,36/a_237
    006535  aa   000000 000002
    006536  aa   000000 000000
    006537  aa   000000 001255
    006540  aa   000000 000355
    006541  aa   040040 040040     714  l_195:		vfd a36/    ,36/i_s,36/(imp-l_org)/5,36/(l_196-l_org)/5,36/0
    006542  aa   000000 000003
    006543  aa   000000 003624
    006544  aa   000000 001257
    006545  aa   000000 000000
    006546  aa   040040 040040     715  		vfd a36/    ,36/i_n,36/212,36/(rtwo-l_org)/5,36/0
    006547  aa   000000 000002
    006550  aa   000000 000324
    006551  aa   000000 004060
    006552  aa   000000 000000
    006553  aa   163040 040040     716  l_196:		vfd a36/s   ,36/i_r,36/r_else,36/(if2-l_org)/5,36/a_239
    006554  aa   000000 000000
    006555  aa   000000 000140
    006556  aa   000000 001262
    006557  aa   000000 000357
    006560  aa   163040 040040     717  	if1:	vfd a36/s   ,36/i_r,36/r_end_if,36/(verb1-l_org)/5,36/a_334
    006561  aa   000000 000000
    006562  aa   000000 000730
    006563  aa   000000 003640
    006564  aa   000000 000516
    006565  aa   040040 040040     718  		vfd a36/    ,36/i_n,36/0,36/(verb1-l_org)/5,36/0
    006566  aa   000000 000002
    006567  aa   000000 000000
    006570  aa   000000 003640
    006571  aa   000000 000000
    006572  aa   040040 040040     719  	if2:	vfd a36/    ,36/i_s,36/(ns-l_org)/5,36/(if1-l_org)/5,36/a_313
    006573  aa   000000 000003
    006574  aa   000000 001273
    006575  aa   000000 001260
    006576  aa   000000 000471
    006577  aa   040040 040040     720  		vfd a36/    ,36/i_n,36/0,36/(l_197-l_org)/5,36/a_238
    006600  aa   000000 000002
    006601  aa   000000 000000
    006602  aa   000000 001264
    006603  aa   000000 000356
    006604  aa   040040 040040     721  l_197:		vfd a36/    ,36/i_s,36/(imp-l_org)/5,36/(if1-l_org)/5,36/0
    006605  aa   000000 000003
    006606  aa   000000 003624
    006607  aa   000000 001260
    006610  aa   000000 000000
    006611  aa   040040 040040     722  		vfd a36/    ,36/i_n,36/212,36/(rtwo-l_org)/5,36/0
    006612  aa   000000 000002
    006613  aa   000000 000324
    006614  aa   000000 004060
    006615  aa   000000 000000
    006616  aa   163040 040040     723  	if3:	vfd a36/s   ,36/i_r,36/r_else,36/(l_198-l_org)/5,36/a_308
    006617  aa   000000 000000
    006620  aa   000000 000140
    006621  aa   000000 001270
    006622  aa   000000 000464
    006623  aa   040040 040040     724  		vfd a36/    ,36/i_n,36/0,36/(if1-l_org)/5,36/a_240
    006624  aa   000000 000002
    006625  aa   000000 000000
    006626  aa   000000 001260
    006627  aa   000000 000360
    006630  aa   040040 040040     725  l_198:		vfd a36/    ,36/i_s,36/(ns-l_org)/5,36/(if1-l_org)/5,36/0
    006631  aa   000000 000003
    006632  aa   000000 001273
    006633  aa   000000 001260
    006634  aa   000000 000000
    006635  aa   040040 040040     726  		vfd a36/    ,36/i_s,36/(imp-l_org)/5,36/(if1-l_org)/5,36/0
    006636  aa   000000 000003
    006637  aa   000000 003624
    006640  aa   000000 001260
    006641  aa   000000 000000
    006642  aa   040040 040040     727  		vfd a36/    ,36/i_n,36/212,36/(rtwo-l_org)/5,36/0
    006643  aa   000000 000002
    006644  aa   000000 000324
    006645  aa   000000 004060
    006646  aa   000000 000000
    006647  aa   163040 040040     728  	ns:	vfd a36/s   ,36/i_r,36/r_next,36/(l_199-l_org)/5,36/0
    006650  aa   000000 000000
    006651  aa   000000 000200
    006652  aa   000000 001275
    006653  aa   000000 000000
    006654  aa   040040 040040     729  		vfd a36/    ,36/i_n,36/0,36/(fail-l_org)/5,36/0
    006655  aa   000000 000002
    006656  aa   000000 000000
    006657  aa   000000 004111
    006660  aa   000000 000000
    006661  aa   163040 040040     730  l_199:		vfd a36/s   ,36/i_r,36/r_sentence,36/(succ-l_org)/5,36/a_333
    006662  aa   000000 000000
    006663  aa   000000 000240
    006664  aa   000000 004110
    006665  aa   000000 000515
    006666  aa   040040 040040     731  		vfd a36/    ,36/i_n,36/216,36/(rtwo-l_org)/5,36/0
    006667  aa   000000 000002
    006670  aa   000000 000330
    006671  aa   000000 004060
    006672  aa   000000 000000
    006673  aa   040040 040040     732  	initiate:	vfd a36/    ,36/i_r,36/r_initiate,36/(l_200-l_org)/5,36/a_87
    006674  aa   000000 000000
    006675  aa   000000 000020
    006676  aa   000000 001300
    006677  aa   000000 000127
    006700  aa   163064 040040     733  l_200:		vfd a36/s4  ,36/i_n,36/87,36/(l_201-l_org)/5,36/21
    006701  aa   000000 000002
    006702  aa   000000 000127
    006703  aa   000000 001301
    006704  aa   000000 000025
    006705  aa   040040 040040     734  l_201:	init_1:	vfd a36/    ,36/i_s,36/(rep_nam-l_org)/5,36/(l_202-l_org)/5,36/0
    006706  aa   000000 000003
    006707  aa   000000 003126
    006710  aa   000000 001303
    006711  aa   000000 000000
    006712  aa   040040 040040     735  		vfd a36/    ,36/i_n,36/47,36/(rtwo-l_org)/5,36/0
    006713  aa   000000 000002
    006714  aa   000000 000057
    006715  aa   000000 004060
    006716  aa   000000 000000
    006717  aa   040040 040040     736  l_202:		vfd a36/    ,36/i_s,36/(rep_nam-l_org)/5,36/(l_202-l_org)/5,36/0
    006720  aa   000000 000003
    006721  aa   000000 003126
    006722  aa   000000 001303
    006723  aa   000000 000000
    006724  aa   040040 040040     737  		vfd a36/    ,36/i_n,36/0,36/(verb1-l_org)/5,36/0
    006725  aa   000000 000002
    006726  aa   000000 000000
    006727  aa   000000 003640
    006730  aa   000000 000000
    006731  aa   163157 040040     738  	inspect:	vfd a36/so  ,36/i_r,36/r_inspect,36/(l_203-l_org)/5,36/a_87
    006732  aa   000000 000000
    006733  aa   000000 000021
    006734  aa   000000 001306
    006735  aa   000000 000127
    006736  aa   163157 040040     739  l_203:		vfd a36/so  ,36/i_s,36/(usagid-l_org)/5,36/(l_204-l_org)/5,36/0
    006737  aa   000000 000003
    006740  aa   000000 003573
    006741  aa   000000 001310
    006742  aa   000000 000000
    006743  aa   040040 040040     740  		vfd a36/    ,36/i_n,36/048,36/(rtwo-l_org)/5,36/0
    006744  aa   000000 000002
    006745  aa   000000 000060
    006746  aa   000000 004060
    006747  aa   000000 000000
    006750  aa   163157 040040     741  l_204:		vfd a36/so  ,36/i_r,36/r_tallying,36/(l_205-l_org)/5,36/a_8
    006751  aa   000000 000000
    006752  aa   000000 000243
    006753  aa   000000 001313
    006754  aa   000000 000010
    006755  aa   163157 040040     742  		vfd a36/so  ,36/i_r,36/r_replacing,36/(ins7-l_org)/5,36/a_47
    006756  aa   000000 000000
    006757  aa   000000 000230
    006760  aa   000000 001345
    006761  aa   000000 000057
    006762  aa   040040 040040     743  		vfd a36/    ,36/i_n,36/049,36/(rtwo-l_org)/5,36/0
    006763  aa   000000 000002
    006764  aa   000000 000061
    006765  aa   000000 004060
    006766  aa   000000 000000
    006767  aa   163157 040040     744  l_205:		vfd a36/so  ,36/i_s,36/(alel-l_org)/5,36/(l_206-l_org)/5,36/0
    006770  aa   000000 000003
    006771  aa   000000 003577
    006772  aa   000000 001315
    006773  aa   000000 000000
    006774  aa   040040 040040     745  		vfd a36/    ,36/i_n,36/024,36/(rtwo-l_org)/5,36/0
    006775  aa   000000 000002
    006776  aa   000000 000030
    006777  aa   000000 004060
    007000  aa   000000 000000
    007001  aa   163040 040040     746  l_206:	ins1:	vfd a36/s   ,36/i_r,36/r_for,36/(l_207-l_org)/5,36/0
    007002  aa   000000 000000
    007003  aa   000000 000156
    007004  aa   000000 001317
    007005  aa   000000 000000
    007006  aa   040040 040040     747  		vfd a36/    ,36/i_n,36/050,36/(rtwo-l_org)/5,36/0
    007007  aa   000000 000002
    007010  aa   000000 000062
    007011  aa   000000 004060
    007012  aa   000000 000000
    007013  aa   163157 040040     748  l_207:		vfd a36/so  ,36/i_r,36/r_all,36/(l_208-l_org)/5,36/0
    007014  aa   000000 000000
    007015  aa   000000 000111
    007016  aa   000000 001323
    007017  aa   000000 000000
    007020  aa   163157 040040     749  		vfd a36/so  ,36/i_r,36/r_leading,36/(l_208-l_org)/5,36/0
    007021  aa   000000 000000
    007022  aa   000000 000172
    007023  aa   000000 001323
    007024  aa   000000 000000
    007025  aa   163157 040040     750  		vfd a36/so  ,36/i_r,36/r_characters,36/(ins3-l_org)/5,36/0
    007026  aa   000000 000000
    007027  aa   000000 000123
    007030  aa   000000 001325
    007031  aa   000000 000000
    007032  aa   040040 040040     751  		vfd a36/    ,36/i_n,36/051,36/(rtwo-l_org)/5,36/0
    007033  aa   000000 000002
    007034  aa   000000 000063
    007035  aa   000000 004060
    007036  aa   000000 000000
    007037  aa   163157 040040     752  l_208:	ins2:	vfd a36/so  ,36/i_s,36/(elusid-l_org)/5,36/(l_209-l_org)/5,36/0
    007040  aa   000000 000003
    007041  aa   000000 003563
    007042  aa   000000 001325
    007043  aa   000000 000000
    007044  aa   040040 040040     753  		vfd a36/    ,36/i_n,36/052,36/(rtwo-l_org)/5,36/0
    007045  aa   000000 000002
    007046  aa   000000 000064
    007047  aa   000000 004060
    007050  aa   000000 000000
    007051  aa   163157 040040     754  l_209:	ins3:	vfd a36/so  ,36/i_r,36/r_before,36/(l_210-l_org)/5,36/0
    007052  aa   000000 000000
    007053  aa   000000 000120
    007054  aa   000000 001330
    007055  aa   000000 000000
    007056  aa   163157 040040     755  		vfd a36/so  ,36/i_r,36/r_after,36/(l_210-l_org)/5,36/a_4
    007057  aa   000000 000000
    007060  aa   000000 000110
    007061  aa   000000 001330
    007062  aa   000000 000004
    007063  aa   040040 040040     756  		vfd a36/    ,36/i_n,36/0,36/(ins4-l_org)/5,36/0
    007064  aa   000000 000002
    007065  aa   000000 000000
    007066  aa   000000 001333
    007067  aa   000000 000000
    007070  aa   163040 040040     757  l_210:		vfd a36/s   ,36/i_r,36/r_initial,36/(l_211-l_org)/5,36/0
    007071  aa   000000 000000
    007072  aa   000000 000162
    007073  aa   000000 001331
    007074  aa   000000 000000
    007075  aa   163157 040040     758  l_211:		vfd a36/so  ,36/i_s,36/(elusid-l_org)/5,36/(l_212-l_org)/5,36/0
    007076  aa   000000 000003
    007077  aa   000000 003563
    007100  aa   000000 001333
    007101  aa   000000 000000
    007102  aa   040040 040040     759  		vfd a36/    ,36/i_n,36/231,36/(rtwo-l_org)/5,36/0
    007103  aa   000000 000002
    007104  aa   000000 000347
    007105  aa   000000 004060
    007106  aa   000000 000000
    007107  aa   040040 040040     760  l_212:	ins4:	vfd a36/    ,36/i_c,36/c_edalit,36/(l_213-l_org)/5,36/0
    007110  aa   000000 000001
    007111  aa   000000 000164
    007112  aa   000000 001341
    007113  aa   000000 000000
    007114  aa   040157 040040     761  		vfd a36/ o  ,36/i_r,36/r_all,36/(ins12-l_org)/5,36/a_8
    007115  aa   000000 000000
    007116  aa   000000 000111
    007117  aa   000000 001344
    007120  aa   000000 000010
    007121  aa   040157 040040     762  		vfd a36/ o  ,36/i_r,36/r_leading,36/(ins12-l_org)/5,36/a_8
    007122  aa   000000 000000
    007123  aa   000000 000172
    007124  aa   000000 001344
    007125  aa   000000 000010
    007126  aa   163157 040040     763  		vfd a36/so  ,36/i_r,36/r_characters,36/(ins3-l_org)/5,36/a_8
    007127  aa   000000 000000
    007130  aa   000000 000123
    007131  aa   000000 001325
    007132  aa   000000 000010
    007133  aa   163157 040040     764  		vfd a36/so  ,36/i_r,36/r_replacing,36/(ins7-l_org)/5,36/a_22
    007134  aa   000000 000000
    007135  aa   000000 000230
    007136  aa   000000 001345
    007137  aa   000000 000026
    007140  aa   040040 040040     765  		vfd a36/    ,36/i_n,36/0,36/(verb1-l_org)/5,36/a_3
    007141  aa   000000 000002
    007142  aa   000000 000000
    007143  aa   000000 003640
    007144  aa   000000 000003
    007145  aa   040157 040040     766  l_213:		vfd a36/ o  ,36/i_s,36/(alelnuit-l_org)/5,36/(l_214-l_org)/5,36/a_8
    007146  aa   000000 000003
    007147  aa   000000 003575
    007150  aa   000000 001343
    007151  aa   000000 000010
    007152  aa   040040 040040     767  		vfd a36/    ,36/i_n,36/101,36/(rtwo-l_org)/5,36/0
    007153  aa   000000 000002
    007154  aa   000000 000145
    007155  aa   000000 004060
    007156  aa   000000 000000
    007157  aa   163063 040040     768  l_214:		vfd a36/s3  ,36/i_n,36/54,36/(ins1-l_org)/5,36/2
    007160  aa   000000 000002
    007161  aa   000000 000066
    007162  aa   000000 001315
    007163  aa   000000 000002
    007164  aa   163063 040040     769  	ins12:	vfd a36/s3  ,36/i_n,36/53,36/(ins2-l_org)/5,36/2
    007165  aa   000000 000002
    007166  aa   000000 000065
    007167  aa   000000 001323
    007170  aa   000000 000002
    007171  aa   163157 040040     770  	ins7:	vfd a36/so  ,36/i_r,36/r_all,36/(l_215-l_org)/5,36/0
    007172  aa   000000 000000
    007173  aa   000000 000111
    007174  aa   000000 001352
    007175  aa   000000 000000
    007176  aa   163157 040040     771  		vfd a36/so  ,36/i_r,36/r_leading,36/(l_215-l_org)/5,36/0
    007177  aa   000000 000000
    007200  aa   000000 000172
    007201  aa   000000 001352
    007202  aa   000000 000000
    007203  aa   163157 040040     772  		vfd a36/so  ,36/i_r,36/r_first,36/(l_215-l_org)/5,36/0
    007204  aa   000000 000000
    007205  aa   000000 000155
    007206  aa   000000 001352
    007207  aa   000000 000000
    007210  aa   163157 040040     773  		vfd a36/so  ,36/i_r,36/r_characters,36/(ins9-l_org)/5,36/a_28
    007211  aa   000000 000000
    007212  aa   000000 000123
    007213  aa   000000 001370
    007214  aa   000000 000034
    007215  aa   040040 040040     774  		vfd a36/    ,36/i_n,36/053,36/(rtwo-l_org)/5,36/0
    007216  aa   000000 000002
    007217  aa   000000 000065
    007220  aa   000000 004060
    007221  aa   000000 000000
    007222  aa   163157 040040     775  l_215:	ins8:	vfd a36/so  ,36/i_s,36/(elusid-l_org)/5,36/(l_216-l_org)/5,36/a_28
    007223  aa   000000 000003
    007224  aa   000000 003563
    007225  aa   000000 001354
    007226  aa   000000 000034
    007227  aa   040040 040040     776  		vfd a36/    ,36/i_n,36/052,36/(rtwo-l_org)/5,36/0
    007230  aa   000000 000002
    007231  aa   000000 000064
    007232  aa   000000 004060
    007233  aa   000000 000000
    007234  aa   163040 040040     777  l_216:	ins14:	vfd a36/s   ,36/i_r,36/r_by,36/(l_217-l_org)/5,36/0
    007235  aa   000000 000000
    007236  aa   000000 000122
    007237  aa   000000 001356
    007240  aa   000000 000000
    007241  aa   040040 040040     778  		vfd a36/    ,36/i_n,36/054,36/(rtwo-l_org)/5,36/0
    007242  aa   000000 000002
    007243  aa   000000 000066
    007244  aa   000000 004060
    007245  aa   000000 000000
    007246  aa   040040 040040     779  l_217:		vfd a36/    ,36/i_s,36/(elusid-l_org)/5,36/(l_218-l_org)/5,36/0
    007247  aa   000000 000003
    007250  aa   000000 003563
    007251  aa   000000 001360
    007252  aa   000000 000000
    007253  aa   040040 040040     780  		vfd a36/    ,36/i_n,36/052,36/(rtwo-l_org)/5,36/0
    007254  aa   000000 000002
    007255  aa   000000 000064
    007256  aa   000000 004060
    007257  aa   000000 000000
    007260  aa   163157 040040     781  l_218:		vfd a36/so  ,36/i_c,36/c_sizlit,36/(l_219-l_org)/5,36/0
    007261  aa   000000 000001
    007262  aa   000000 000034
    007263  aa   000000 001362
    007264  aa   000000 000000
    007265  aa   040040 040040     782  		vfd a36/    ,36/i_n,36/056,36/(rtwo-l_org)/5,36/0
    007266  aa   000000 000002
    007267  aa   000000 000070
    007270  aa   000000 004060
    007271  aa   000000 000000
    007272  aa   163157 040040     783  l_219:		vfd a36/so  ,36/i_r,36/r_before,36/(l_220-l_org)/5,36/0
    007273  aa   000000 000000
    007274  aa   000000 000120
    007275  aa   000000 001365
    007276  aa   000000 000000
    007277  aa   163157 040040     784  		vfd a36/so  ,36/i_r,36/r_after,36/(l_220-l_org)/5,36/0
    007300  aa   000000 000000
    007301  aa   000000 000110
    007302  aa   000000 001365
    007303  aa   000000 000000
    007304  aa   040040 040040     785  		vfd a36/    ,36/i_n,36/0,36/(ins10-l_org)/5,36/0
    007305  aa   000000 000002
    007306  aa   000000 000000
    007307  aa   000000 001405
    007310  aa   000000 000000
    007311  aa   163040 040040     786  l_220:		vfd a36/s   ,36/i_r,36/r_initial,36/(l_221-l_org)/5,36/0
    007312  aa   000000 000000
    007313  aa   000000 000162
    007314  aa   000000 001366
    007315  aa   000000 000000
    007316  aa   163157 040040     787  l_221:		vfd a36/so  ,36/i_s,36/(elusid-l_org)/5,36/(ins10-l_org)/5,36/0
    007317  aa   000000 000003
    007320  aa   000000 003563
    007321  aa   000000 001405
    007322  aa   000000 000000
    007323  aa   040040 040040     788  		vfd a36/    ,36/i_n,36/052,36/(rtwo-l_org)/5,36/0
    007324  aa   000000 000002
    007325  aa   000000 000064
    007326  aa   000000 004060
    007327  aa   000000 000000
    007330  aa   163040 040040     789  	ins9:	vfd a36/s   ,36/i_r,36/r_by,36/(l_222-l_org)/5,36/0
    007331  aa   000000 000000
    007332  aa   000000 000122
    007333  aa   000000 001372
    007334  aa   000000 000000
    007335  aa   040040 040040     790  		vfd a36/    ,36/i_n,36/054,36/(rtwo-l_org)/5,36/0
    007336  aa   000000 000002
    007337  aa   000000 000066
    007340  aa   000000 004060
    007341  aa   000000 000000
    007342  aa   040040 040040     791  l_222:		vfd a36/    ,36/i_s,36/(elusid-l_org)/5,36/(l_223-l_org)/5,36/0
    007343  aa   000000 000003
    007344  aa   000000 003563
    007345  aa   000000 001374
    007346  aa   000000 000000
    007347  aa   040040 040040     792  		vfd a36/    ,36/i_n,36/052,36/(rtwo-l_org)/5,36/0
    007350  aa   000000 000002
    007351  aa   000000 000064
    007352  aa   000000 004060
    007353  aa   000000 000000
    007354  aa   163157 040040     793  l_223:		vfd a36/so  ,36/i_c,36/c_sizlit,36/(l_224-l_org)/5,36/0
    007355  aa   000000 000001
    007356  aa   000000 000034
    007357  aa   000000 001376
    007360  aa   000000 000000
    007361  aa   040040 040040     794  		vfd a36/    ,36/i_n,36/056,36/(rtwo-l_org)/5,36/0
    007362  aa   000000 000002
    007363  aa   000000 000070
    007364  aa   000000 004060
    007365  aa   000000 000000
    007366  aa   163157 040040     795  l_224:		vfd a36/so  ,36/i_r,36/r_before,36/(l_225-l_org)/5,36/0
    007367  aa   000000 000000
    007370  aa   000000 000120
    007371  aa   000000 001401
    007372  aa   000000 000000
    007373  aa   163157 040040     796  		vfd a36/so  ,36/i_r,36/r_after,36/(l_225-l_org)/5,36/0
    007374  aa   000000 000000
    007375  aa   000000 000110
    007376  aa   000000 001401
    007377  aa   000000 000000
    007400  aa   040040 040040     797  		vfd a36/    ,36/i_n,36/0,36/(verb1-l_org)/5,36/a_3
    007401  aa   000000 000002
    007402  aa   000000 000000
    007403  aa   000000 003640
    007404  aa   000000 000003
    007405  aa   163040 040040     798  l_225:		vfd a36/s   ,36/i_r,36/r_initial,36/(l_226-l_org)/5,36/0
    007406  aa   000000 000000
    007407  aa   000000 000162
    007410  aa   000000 001402
    007411  aa   000000 000000
    007412  aa   163157 040040     799  l_226:		vfd a36/so  ,36/i_s,36/(elusid-l_org)/5,36/(l_227-l_org)/5,36/0
    007413  aa   000000 000003
    007414  aa   000000 003563
    007415  aa   000000 001404
    007416  aa   000000 000000
    007417  aa   040040 040040     800  		vfd a36/    ,36/i_n,36/052,36/(rtwo-l_org)/5,36/0
    007420  aa   000000 000002
    007421  aa   000000 000064
    007422  aa   000000 004060
    007423  aa   000000 000000
    007424  aa   040040 040040     801  l_227:		vfd a36/    ,36/i_n,36/0,36/(verb1-l_org)/5,36/a_3
    007425  aa   000000 000002
    007426  aa   000000 000000
    007427  aa   000000 003640
    007430  aa   000000 000003
    007431  aa   040157 040040     802  	ins10:	vfd a36/ o  ,36/i_r,36/r_all,36/(ins13-l_org)/5,36/a_78
    007432  aa   000000 000000
    007433  aa   000000 000111
    007434  aa   000000 001414
    007435  aa   000000 000116
    007436  aa   040157 040040     803  		vfd a36/ o  ,36/i_r,36/r_leading,36/(ins13-l_org)/5,36/a_78
    007437  aa   000000 000000
    007440  aa   000000 000172
    007441  aa   000000 001414
    007442  aa   000000 000116
    007443  aa   040157 040040     804  		vfd a36/ o  ,36/i_r,36/r_first,36/(ins13-l_org)/5,36/a_78
    007444  aa   000000 000000
    007445  aa   000000 000155
    007446  aa   000000 001414
    007447  aa   000000 000116
    007450  aa   040157 040040     805  		vfd a36/ o  ,36/i_s,36/(elusid-l_org)/5,36/(l_228-l_org)/5,36/a_28
    007451  aa   000000 000003
    007452  aa   000000 003563
    007453  aa   000000 001412
    007454  aa   000000 000034
    007455  aa   040040 040040     806  		vfd a36/    ,36/i_n,36/0,36/(verb1-l_org)/5,36/a_3
    007456  aa   000000 000002
    007457  aa   000000 000000
    007460  aa   000000 003640
    007461  aa   000000 000003
    007462  aa   163063 040040     807  l_228:		vfd a36/s3  ,36/i_n,36/114,36/(l_229-l_org)/5,36/2
    007463  aa   000000 000002
    007464  aa   000000 000162
    007465  aa   000000 001413
    007466  aa   000000 000002
    007467  aa   040040 040040     808  l_229:		vfd a36/    ,36/i_n,36/0,36/(ins14-l_org)/5,36/a_78
    007470  aa   000000 000002
    007471  aa   000000 000000
    007472  aa   000000 001354
    007473  aa   000000 000116
    007474  aa   163063 040040     809  	ins13:	vfd a36/s3  ,36/i_n,36/55,36/(ins8-l_org)/5,36/2
    007475  aa   000000 000002
    007476  aa   000000 000067
    007477  aa   000000 001352
    007500  aa   000000 000002
    007501  aa   040157 040040     810  	merge:	vfd a36/ o  ,36/i_r,36/r_merge,36/(l_230-l_org)/5,36/a_87
    007502  aa   000000 000000
    007503  aa   000000 000017
    007504  aa   000000 001416
    007505  aa   000000 000127
    007506  aa   163064 040040     811  l_230:		vfd a36/s4  ,36/i_n,36/59,36/(l_231-l_org)/5,36/6
    007507  aa   000000 000002
    007510  aa   000000 000073
    007511  aa   000000 001417
    007512  aa   000000 000006
    007513  aa   163157 040040     812  l_231:		vfd a36/so  ,36/i_c,36/c_srtfil,36/(l_232-l_org)/5,36/a_188
    007514  aa   000000 000001
    007515  aa   000000 000074
    007516  aa   000000 001421
    007517  aa   000000 000274
    007520  aa   040040 040040     813  		vfd a36/    ,36/i_n,36/090,36/(rtwo-l_org)/5,36/0
    007521  aa   000000 000002
    007522  aa   000000 000132
    007523  aa   000000 004060
    007524  aa   000000 000000
    007525  aa   163040 040040     814  l_232:		vfd a36/s   ,36/i_r,36/r_on,36/(l_233-l_org)/5,36/0
    007526  aa   000000 000000
    007527  aa   000000 000206
    007530  aa   000000 001422
    007531  aa   000000 000000
    007532  aa   163040 040040     815  l_233:	merge_8:	vfd a36/s   ,36/i_r,36/r_ascending,36/(l_234-l_org)/5,36/a_4
    007533  aa   000000 000000
    007534  aa   000000 000116
    007535  aa   000000 001425
    007536  aa   000000 000004
    007537  aa   163040 040040     816  		vfd a36/s   ,36/i_r,36/r_descending,36/(l_234-l_org)/5,36/a_9
    007540  aa   000000 000000
    007541  aa   000000 000135
    007542  aa   000000 001425
    007543  aa   000000 000011
    007544  aa   040040 040040     817  		vfd a36/    ,36/i_n,36/091,36/(rtwo-l_org)/5,36/0
    007545  aa   000000 000002
    007546  aa   000000 000133
    007547  aa   000000 004060
    007550  aa   000000 000000
    007551  aa   163040 040040     818  l_234:	merge_1:	vfd a36/s   ,36/i_r,36/r_key,36/(l_235-l_org)/5,36/0
    007552  aa   000000 000000
    007553  aa   000000 000170
    007554  aa   000000 001426
    007555  aa   000000 000000
    007556  aa   163157 040040     819  l_235:		vfd a36/so  ,36/i_c,36/c_dninfl,36/(l_236-l_org)/5,36/a_74
    007557  aa   000000 000001
    007560  aa   000000 000075
    007561  aa   000000 001430
    007562  aa   000000 000112
    007563  aa   040040 040040     820  		vfd a36/    ,36/i_n,36/92,36/(rtwo-l_org)/5,36/0
    007564  aa   000000 000002
    007565  aa   000000 000134
    007566  aa   000000 004060
    007567  aa   000000 000000
    007570  aa   163157 040040     821  l_236:	merge_4:	vfd a36/so  ,36/i_c,36/c_dninfl,36/(merge_4-l_org)/5,36/a_74
    007571  aa   000000 000001
    007572  aa   000000 000075
    007573  aa   000000 001430
    007574  aa   000000 000112
    007575  aa   163040 040040     822  		vfd a36/s   ,36/i_r,36/r_on,36/(merge_8-l_org)/5,36/0
    007576  aa   000000 000000
    007577  aa   000000 000206
    007600  aa   000000 001422
    007601  aa   000000 000000
    007602  aa   163040 040040     823  		vfd a36/s   ,36/i_r,36/r_ascending,36/(merge_1-l_org)/5,36/a_4
    007603  aa   000000 000000
    007604  aa   000000 000116
    007605  aa   000000 001425
    007606  aa   000000 000004
    007607  aa   163040 040040     824  		vfd a36/s   ,36/i_r,36/r_descending,36/(merge_1-l_org)/5,36/a_9
    007610  aa   000000 000000
    007611  aa   000000 000135
    007612  aa   000000 001425
    007613  aa   000000 000011
    007614  aa   163040 040040     825  		vfd a36/s   ,36/i_r,36/r_collating,36/(mcs_1-l_org)/5,36/0
    007615  aa   000000 000000
    007616  aa   000000 001003
    007617  aa   000000 001475
    007620  aa   000000 000000
    007621  aa   163040 040040     826  		vfd a36/s   ,36/i_r,36/r_sequence,36/(mcs_3-l_org)/5,36/0
    007622  aa   000000 000000
    007623  aa   000000 001113
    007624  aa   000000 001477
    007625  aa   000000 000000
    007626  aa   040040 040040     827  		vfd a36/    ,36/i_n,36/0,36/(l_237-l_org)/5,36/a_156
    007627  aa   000000 000002
    007630  aa   000000 000000
    007631  aa   000000 001437
    007632  aa   000000 000234
    007633  aa   163040 040040     828  l_237:	muse:	vfd a36/s   ,36/i_r,36/r_using,36/(l_238-l_org)/5,36/0
    007634  aa   000000 000000
    007635  aa   000000 000260
    007636  aa   000000 001441
    007637  aa   000000 000000
    007640  aa   040040 040040     829  		vfd a36/    ,36/i_n,36/275,36/(rtwo-l_org)/5,36/0
    007641  aa   000000 000002
    007642  aa   000000 000423
    007643  aa   000000 004060
    007644  aa   000000 000000
    007645  aa   040040 040040     830  l_238:		vfd a36/    ,36/i_c,36/c_filenm,36/(l_239-l_org)/5,36/a_185
    007646  aa   000000 000001
    007647  aa   000000 000005
    007650  aa   000000 001443
    007651  aa   000000 000271
    007652  aa   040040 040040     831  		vfd a36/    ,36/i_n,36/031,36/(rtwo-l_org)/5,36/0
    007653  aa   000000 000002
    007654  aa   000000 000037
    007655  aa   000000 004060
    007656  aa   000000 000000
    007657  aa   163157 040040     832  l_239:		vfd a36/so  ,36/i_c,36/c_seqfil,36/(l_240-l_org)/5,36/0
    007660  aa   000000 000001
    007661  aa   000000 000065
    007662  aa   000000 001445
    007663  aa   000000 000000
    007664  aa   163065 040040     833  		vfd a36/s5  ,36/i_n,36/197,36/(l_240-l_org)/5,36/25
    007665  aa   000000 000002
    007666  aa   000000 000305
    007667  aa   000000 001445
    007670  aa   000000 000031
    007671  aa   163157 040040     834  l_240:	merge_3:	vfd a36/so  ,36/i_n,36/0,36/(l_241-l_org)/5,36/a_186
    007672  aa   000000 000002
    007673  aa   000000 000000
    007674  aa   000000 001446
    007675  aa   000000 000272
    007676  aa   040040 040040     835  l_241:		vfd a36/    ,36/i_c,36/c_filenm,36/(l_242-l_org)/5,36/0
    007677  aa   000000 000001
    007700  aa   000000 000005
    007701  aa   000000 001452
    007702  aa   000000 000000
    007703  aa   163040 040040     836  		vfd a36/s   ,36/i_r,36/r_output,36/(merge_7-l_org)/5,36/a_189
    007704  aa   000000 000000
    007705  aa   000000 000211
    007706  aa   000000 001454
    007707  aa   000000 000275
    007710  aa   163040 040040     837  		vfd a36/s   ,36/i_r,36/r_giving,36/(merge_2-l_org)/5,36/a_189
    007711  aa   000000 000000
    007712  aa   000000 000160
    007713  aa   000000 001466
    007714  aa   000000 000275
    007715  aa   040040 040040     838  		vfd a36/    ,36/i_n,36/094,36/(rtwo-l_org)/5,36/0
    007716  aa   000000 000002
    007717  aa   000000 000136
    007720  aa   000000 004060
    007721  aa   000000 000000
    007722  aa   163157 040040     839  l_242:		vfd a36/so  ,36/i_c,36/c_seqfil,36/(merge_3-l_org)/5,36/0
    007723  aa   000000 000001
    007724  aa   000000 000065
    007725  aa   000000 001445
    007726  aa   000000 000000
    007727  aa   163065 040040     840  		vfd a36/s5  ,36/i_n,36/197,36/(merge_3-l_org)/5,36/25
    007730  aa   000000 000002
    007731  aa   000000 000305
    007732  aa   000000 001445
    007733  aa   000000 000031
    007734  aa   163040 040040     841  	merge_7:	vfd a36/s   ,36/i_r,36/r_procedure,36/(l_243-l_org)/5,36/0
    007735  aa   000000 000000
    007736  aa   000000 000216
    007737  aa   000000 001456
    007740  aa   000000 000000
    007741  aa   040040 040040     842  		vfd a36/    ,36/i_n,36/001,36/(rtwo-l_org)/5,36/0
    007742  aa   000000 000002
    007743  aa   000000 000001
    007744  aa   000000 004060
    007745  aa   000000 000000
    007746  aa   163040 040040     843  l_243:		vfd a36/s   ,36/i_r,36/r_is,36/(l_244-l_org)/5,36/0
    007747  aa   000000 000000
    007750  aa   000000 000166
    007751  aa   000000 001457
    007752  aa   000000 000000
    007753  aa   040040 040040     844  l_244:		vfd a36/    ,36/i_c,36/c_debug,36/(merge_6-l_org)/5,36/0
    007754  aa   000000 000001
    007755  aa   000000 000326
    007756  aa   000000 001473
    007757  aa   000000 000000
    007760  aa   163040 040040     845  	merge_5:	vfd a36/s   ,36/i_c,36/c_prnm,36/(l_245-l_org)/5,36/a_165
    007761  aa   000000 000001
    007762  aa   000000 000016
    007763  aa   000000 001462
    007764  aa   000000 000245
    007765  aa   040040 040040     846  		vfd a36/    ,36/i_n,36/0,36/(rtwo-l_org)/5,36/a_62
    007766  aa   000000 000002
    007767  aa   000000 000000
    007770  aa   000000 004060
    007771  aa   000000 000076
    007772  aa   163040 040040     847  l_245:		vfd a36/s   ,36/i_r,36/r_thru,36/(l_246-l_org)/5,36/0
    007773  aa   000000 000000
    007774  aa   000000 000246
    007775  aa   000000 001464
    007776  aa   000000 000000
    007777  aa   040040 040040     848  		vfd a36/    ,36/i_n,36/0,36/(verb1-l_org)/5,36/a_190
    010000  aa   000000 000002
    010001  aa   000000 000000
    010002  aa   000000 003640
    010003  aa   000000 000276
    010004  aa   163040 040040     849  l_246:		vfd a36/s   ,36/i_c,36/c_prnm,36/(verb1-l_org)/5,36/a_40
    010005  aa   000000 000001
    010006  aa   000000 000016
    010007  aa   000000 003640
    010010  aa   000000 000050
    010011  aa   040040 040040     850  		vfd a36/    ,36/i_n,36/062,36/(rtwo-l_org)/5,36/0
    010012  aa   000000 000002
    010013  aa   000000 000076
    010014  aa   000000 004060
    010015  aa   000000 000000
    010016  aa   040040 040040     851  	merge_2:	vfd a36/    ,36/i_c,36/c_filenm,36/(l_247-l_org)/5,36/a_157
    010017  aa   000000 000001
    010020  aa   000000 000005
    010021  aa   000000 001470
    010022  aa   000000 000235
    010023  aa   040040 040040     852  		vfd a36/    ,36/i_n,36/031,36/(rtwo-l_org)/5,36/0
    010024  aa   000000 000002
    010025  aa   000000 000037
    010026  aa   000000 004060
    010027  aa   000000 000000
    010030  aa   163040 040040     853  l_247:		vfd a36/s   ,36/i_c,36/c_seqfil,36/(l_248-l_org)/5,36/0
    010031  aa   000000 000001
    010032  aa   000000 000065
    010033  aa   000000 001472
    010034  aa   000000 000000
    010035  aa   163065 040040     854  		vfd a36/s5  ,36/i_n,36/197,36/(l_248-l_org)/5,36/25
    010036  aa   000000 000002
    010037  aa   000000 000305
    010040  aa   000000 001472
    010041  aa   000000 000031
    010042  aa   163040 040040     855  l_248:		vfd a36/s   ,36/i_n,36/0,36/(verb1-l_org)/5,36/a_187
    010043  aa   000000 000002
    010044  aa   000000 000000
    010045  aa   000000 003640
    010046  aa   000000 000273
    010047  aa   040040 040040     856  	merge_6:	vfd a36/    ,36/i_s,36/(imp-l_org)/5,36/(merge_5-l_org)/5,36/0
    010050  aa   000000 000003
    010051  aa   000000 003624
    010052  aa   000000 001460
    010053  aa   000000 000000
    010054  aa   040040 040040     857  		vfd a36/    ,36/i_n,36/0,36/(merge_5-l_org)/5,36/0
    010055  aa   000000 000002
    010056  aa   000000 000000
    010057  aa   000000 001460
    010060  aa   000000 000000
    010061  aa   163040 040040     858  	mcs_1:	vfd a36/s   ,36/i_r,36/r_sequence,36/(l_249-l_org)/5,36/0
    010062  aa   000000 000000
    010063  aa   000000 001113
    010064  aa   000000 001477
    010065  aa   000000 000000
    010066  aa   040040 040040     859  		vfd a36/    ,36/i_n,36/266,36/(l_249-l_org)/5,36/0
    010067  aa   000000 000002
    010070  aa   000000 000412
    010071  aa   000000 001477
    010072  aa   000000 000000
    010073  aa   163040 040040     860  l_249:	mcs_3:	vfd a36/s   ,36/i_r,36/r_is,36/(l_250-l_org)/5,36/0
    010074  aa   000000 000000
    010075  aa   000000 000166
    010076  aa   000000 001500
    010077  aa   000000 000000
    010100  aa   163157 040040     861  l_250:	mcs_2:	vfd a36/so  ,36/i_c,36/c_alphnm,36/(muse-l_org)/5,36/0
    010101  aa   000000 000001
    010102  aa   000000 000303
    010103  aa   000000 001437
    010104  aa   000000 000000
    010105  aa   040040 040040     862  		vfd a36/    ,36/i_n,36/267,36/(rtwo-l_org)/5,36/0
    010106  aa   000000 000002
    010107  aa   000000 000413
    010110  aa   000000 004060
    010111  aa   000000 000000
    010112  aa   163157 040040     863  	move:	vfd a36/so  ,36/i_r,36/r_move,36/(l_251-l_org)/5,36/a_87
    010113  aa   000000 000000
    010114  aa   000000 000022
    010115  aa   000000 001503
    010116  aa   000000 000127
    010117  aa   163157 040040     864  l_251:		vfd a36/so  ,36/i_c,36/c_undana,36/(mov6-l_org)/5,36/a_28
    010120  aa   000000 000001
    010121  aa   000000 000111
    010122  aa   000000 001521
    010123  aa   000000 000034
    010124  aa   163157 040040     865  		vfd a36/so  ,36/i_s,36/(ident-l_org)/5,36/(mov6-l_org)/5,36/a_28
    010125  aa   000000 000003
    010126  aa   000000 003462
    010127  aa   000000 001521
    010130  aa   000000 000034
    010131  aa   163157 040040     866  	mov4:	vfd a36/so  ,36/i_c,36/c_lit,36/(mov6-l_org)/5,36/a_28
    010132  aa   000000 000001
    010133  aa   000000 000025
    010134  aa   000000 001521
    010135  aa   000000 000034
    010136  aa   163157 040040     867  	mov3:	vfd a36/so  ,36/i_c,36/c_figconall,36/(mov6-l_org)/5,36/a_28
    010137  aa   000000 000001
    010140  aa   000000 000026
    010141  aa   000000 001521
    010142  aa   000000 000034
    010143  aa   040040 040040     868  		vfd a36/    ,36/i_r,36/r_all,36/(mov2-l_org)/5,36/0
    010144  aa   000000 000000
    010145  aa   000000 000111
    010146  aa   000000 001515
    010147  aa   000000 000000
    010150  aa   163157 040040     869  		vfd a36/so  ,36/i_c,36/c_incdnm,36/(mov6-l_org)/5,36/a_28
    010151  aa   000000 000001
    010152  aa   000000 000022
    010153  aa   000000 001521
    010154  aa   000000 000034
    010155  aa   163157 040040     870  		vfd a36/so  ,36/i_c,36/c_outcdnm,36/(mov6-l_org)/5,36/a_28
    010156  aa   000000 000001
    010157  aa   000000 000023
    010160  aa   000000 001521
    010161  aa   000000 000034
    010162  aa   040040 040040     871  		vfd a36/    ,36/i_c,36/c_xnm,36/(l_252-l_org)/5,36/0
    010163  aa   000000 000001
    010164  aa   000000 000041
    010165  aa   000000 001514
    010166  aa   000000 000000
    010167  aa   040040 040040     872  		vfd a36/    ,36/i_n,36/039,36/(rtwo-l_org)/5,36/0
    010170  aa   000000 000002
    010171  aa   000000 000047
    010172  aa   000000 004060
    010173  aa   000000 000000
    010174  aa   040040 040040     873  l_252:		vfd a36/    ,36/i_n,36/268,36/(rtwo-l_org)/5,36/0
    010175  aa   000000 000002
    010176  aa   000000 000414
    010177  aa   000000 004060
    010200  aa   000000 000000
    010201  aa   163063 040040     874  	mov2:	vfd a36/s3  ,36/i_n,36/144,36/(l_253-l_org)/5,36/2
    010202  aa   000000 000002
    010203  aa   000000 000220
    010204  aa   000000 001516
    010205  aa   000000 000002
    010206  aa   163157 040040     875  l_253:		vfd a36/so  ,36/i_c,36/c_figconall,36/(mov6-l_org)/5,36/a_28
    010207  aa   000000 000001
    010210  aa   000000 000026
    010211  aa   000000 001521
    010212  aa   000000 000034
    010213  aa   040040 040040     876  		vfd a36/    ,36/i_c,36/c_nonumlit,36/(mov4-l_org)/5,36/a_149
    010214  aa   000000 000001
    010215  aa   000000 000017
    010216  aa   000000 001505
    010217  aa   000000 000225
    010220  aa   040040 040040     877  		vfd a36/    ,36/i_n,36/172,36/(rtwo-l_org)/5,36/0
    010221  aa   000000 000002
    010222  aa   000000 000254
    010223  aa   000000 004060
    010224  aa   000000 000000
    010225  aa   163040 040040     878  	mov6:	vfd a36/s   ,36/i_r,36/r_to,36/(l_254-l_org)/5,36/0
    010226  aa   000000 000000
    010227  aa   000000 000252
    010230  aa   000000 001523
    010231  aa   000000 000000
    010232  aa   040040 040040     879  		vfd a36/    ,36/i_n,36/028,36/(rtwo-l_org)/5,36/0
    010233  aa   000000 000002
    010234  aa   000000 000034
    010235  aa   000000 004060
    010236  aa   000000 000000
    010237  aa   040040 040040     880  l_254:		vfd a36/    ,36/i_s,36/(rid-l_org)/5,36/(mov7-l_org)/5,36/a_8
    010240  aa   000000 000003
    010241  aa   000000 003514
    010242  aa   000000 001531
    010243  aa   000000 000010
    010244  aa   163157 040040     881  		vfd a36/so  ,36/i_c,36/c_incdnm,36/(mov8-l_org)/5,36/a_8
    010245  aa   000000 000001
    010246  aa   000000 000022
    010247  aa   000000 001540
    010250  aa   000000 000010
    010251  aa   163157 040040     882  		vfd a36/so  ,36/i_c,36/c_outcdnm,36/(mov8-l_org)/5,36/a_8
    010252  aa   000000 000001
    010253  aa   000000 000023
    010254  aa   000000 001540
    010255  aa   000000 000010
    010256  aa   040040 040040     883  		vfd a36/    ,36/i_c,36/c_xnm,36/(l_255-l_org)/5,36/0
    010257  aa   000000 000001
    010260  aa   000000 000041
    010261  aa   000000 001530
    010262  aa   000000 000000
    010263  aa   040040 040040     884  		vfd a36/    ,36/i_n,36/39,36/(rtwo-l_org)/5,36/0
    010264  aa   000000 000002
    010265  aa   000000 000047
    010266  aa   000000 004060
    010267  aa   000000 000000
    010270  aa   040040 040040     885  l_255:		vfd a36/    ,36/i_n,36/268,36/(rtwo-l_org)/5,36/0
    010271  aa   000000 000002
    010272  aa   000000 000414
    010273  aa   000000 004060
    010274  aa   000000 000000
    010275  aa   163157 040040     886  	mov7:	vfd a36/so  ,36/i_c,36/c_nues,36/(l_256-l_org)/5,36/0
    010276  aa   000000 000001
    010277  aa   000000 000141
    010300  aa   000000 001540
    010301  aa   000000 000000
    010302  aa   163157 040040     887  		vfd a36/so  ,36/i_c,36/c_anes,36/(l_256-l_org)/5,36/0
    010303  aa   000000 000001
    010304  aa   000000 000142
    010305  aa   000000 001540
    010306  aa   000000 000000
    010307  aa   040040 040040     888  		vfd a36/    ,36/i_c,36/c_group,36/(mov9-l_org)/5,36/0
    010310  aa   000000 000001
    010311  aa   000000 000143
    010312  aa   000000 001545
    010313  aa   000000 000000
    010314  aa   040040 040040     889  		vfd a36/    ,36/i_c,36/c_an,36/(mov11-l_org)/5,36/0
    010315  aa   000000 000001
    010316  aa   000000 000146
    010317  aa   000000 001553
    010320  aa   000000 000000
    010321  aa   040040 040040     890  		vfd a36/    ,36/i_c,36/c_alph,36/(mov13-l_org)/5,36/0
    010322  aa   000000 000001
    010323  aa   000000 000151
    010324  aa   000000 001557
    010325  aa   000000 000000
    010326  aa   040040 040040     891  		vfd a36/    ,36/i_c,36/c_snal,36/(mov14-l_org)/5,36/0
    010327  aa   000000 000001
    010330  aa   000000 000153
    010331  aa   000000 001561
    010332  aa   000000 000000
    010333  aa   040040 040040     892  		vfd a36/    ,36/i_n,36/152,36/(rtwo-l_org)/5,36/0
    010334  aa   000000 000002
    010335  aa   000000 000230
    010336  aa   000000 004060
    010337  aa   000000 000000
    010340  aa   040040 040040     893  l_256:	mov8:	vfd a36/    ,36/i_c,36/c_sterm,36/(verb1-l_org)/5,36/a_3
    010341  aa   000000 000001
    010342  aa   000000 000135
    010343  aa   000000 003640
    010344  aa   000000 000003
    010345  aa   040040 040040     894  		vfd a36/    ,36/i_s,36/(rid-l_org)/5,36/(mov7-l_org)/5,36/a_8
    010346  aa   000000 000003
    010347  aa   000000 003514
    010350  aa   000000 001531
    010351  aa   000000 000010
    010352  aa   163157 040040     895  		vfd a36/so  ,36/i_c,36/c_incdnm,36/(mov8-l_org)/5,36/a_8
    010353  aa   000000 000001
    010354  aa   000000 000022
    010355  aa   000000 001540
    010356  aa   000000 000010
    010357  aa   163157 040040     896  		vfd a36/so  ,36/i_c,36/c_outcdnm,36/(mov8-l_org)/5,36/a_8
    010360  aa   000000 000001
    010361  aa   000000 000023
    010362  aa   000000 001540
    010363  aa   000000 000010
    010364  aa   040040 040040     897  		vfd a36/    ,36/i_n,36/0,36/(verb1-l_org)/5,36/a_3
    010365  aa   000000 000002
    010366  aa   000000 000000
    010367  aa   000000 003640
    010370  aa   000000 000003
    010371  aa   040040 040040     898  	mov9:	vfd a36/    ,36/i_c,36/c_sler,36/(mov10-l_org)/5,36/0
    010372  aa   000000 000001
    010373  aa   000000 000144
    010374  aa   000000 001551
    010375  aa   000000 000000
    010376  aa   040040 040040     899  		vfd a36/    ,36/i_c,36/c_njustr,36/(mov1-l_org)/5,36/0
    010377  aa   000000 000001
    010400  aa   000000 000222
    010401  aa   000000 001550
    010402  aa   000000 000000
    010403  aa   040040 040040     900  		vfd a36/    ,36/i_n,36/156,36/(mov10-l_org)/5,36/0
    010404  aa   000000 000002
    010405  aa   000000 000234
    010406  aa   000000 001551
    010407  aa   000000 000000
    010410  aa   040040 040040     901  	mov1:	vfd a36/    ,36/i_n,36/148,36/(l_257-l_org)/5,36/0
    010411  aa   000000 000002
    010412  aa   000000 000224
    010413  aa   000000 001551
    010414  aa   000000 000000
    010415  aa   163157 040040     902  l_257:	mov10:	vfd a36/so  ,36/i_c,36/c_snor,36/(mov8-l_org)/5,36/0
    010416  aa   000000 000001
    010417  aa   000000 000145
    010420  aa   000000 001540
    010421  aa   000000 000000
    010422  aa   163157 040040     903  		vfd a36/so  ,36/i_n,36/147,36/(mov8-l_org)/5,36/a_137
    010423  aa   000000 000002
    010424  aa   000000 000223
    010425  aa   000000 001540
    010426  aa   000000 000211
    010427  aa   040040 040040     904  	mov11:	vfd a36/    ,36/i_c,36/c_sndrdp,36/(l_258-l_org)/5,36/0
    010430  aa   000000 000001
    010431  aa   000000 000147
    010432  aa   000000 001555
    010433  aa   000000 000000
    010434  aa   040040 040040     905  		vfd a36/    ,36/i_n,36/149,36/(rtwo-l_org)/5,36/0
    010435  aa   000000 000002
    010436  aa   000000 000225
    010437  aa   000000 004060
    010440  aa   000000 000000
    010441  aa   040040 040040     906  l_258:		vfd a36/    ,36/i_c,36/c_snos,36/(mov9-l_org)/5,36/0
    010442  aa   000000 000001
    010443  aa   000000 000150
    010444  aa   000000 001545
    010445  aa   000000 000000
    010446  aa   040040 040040     907  		vfd a36/    ,36/i_n,36/150,36/(mov9-l_org)/5,36/0
    010447  aa   000000 000002
    010450  aa   000000 000226
    010451  aa   000000 001545
    010452  aa   000000 000000
    010453  aa   040040 040040     908  	mov13:	vfd a36/    ,36/i_c,36/c_snon,36/(mov9-l_org)/5,36/0
    010454  aa   000000 000001
    010455  aa   000000 000152
    010456  aa   000000 001545
    010457  aa   000000 000000
    010460  aa   040040 040040     909  		vfd a36/    ,36/i_n,36/0,36/(rtwo-l_org)/5,36/0
    010461  aa   000000 000002
    010462  aa   000000 000000
    010463  aa   000000 004060
    010464  aa   000000 000000
    010465  aa   040040 040040     910  	mov14:	vfd a36/    ,36/i_c,36/c_snae,36/(l_259-l_org)/5,36/0
    010466  aa   000000 000001
    010467  aa   000000 000154
    010470  aa   000000 001564
    010471  aa   000000 000000
    010472  aa   040040 040040     911  		vfd a36/    ,36/i_c,36/c_rae,36/(mov9-l_org)/5,36/0
    010473  aa   000000 000001
    010474  aa   000000 000224
    010475  aa   000000 001545
    010476  aa   000000 000000
    010477  aa   040040 040040     912  		vfd a36/    ,36/i_n,36/153,36/(rtwo-l_org)/5,36/0
    010500  aa   000000 000002
    010501  aa   000000 000231
    010502  aa   000000 004060
    010503  aa   000000 000000
    010504  aa   040040 040040     913  l_259:		vfd a36/    ,36/i_c,36/c_snne,36/(l_260-l_org)/5,36/0
    010505  aa   000000 000001
    010506  aa   000000 000155
    010507  aa   000000 001567
    010510  aa   000000 000000
    010511  aa   040040 040040     914  		vfd a36/    ,36/i_c,36/c_rae,36/(mov9-l_org)/5,36/0
    010512  aa   000000 000001
    010513  aa   000000 000224
    010514  aa   000000 001545
    010515  aa   000000 000000
    010516  aa   040040 040040     915  		vfd a36/    ,36/i_n,36/154,36/(rtwo-l_org)/5,36/0
    010517  aa   000000 000002
    010520  aa   000000 000232
    010521  aa   000000 004060
    010522  aa   000000 000000
    010523  aa   040040 040040     916  l_260:		vfd a36/    ,36/i_c,36/c_san,36/(l_261-l_org)/5,36/0
    010524  aa   000000 000001
    010525  aa   000000 000156
    010526  aa   000000 001573
    010527  aa   000000 000000
    010530  aa   040040 040040     917  		vfd a36/    ,36/i_c,36/c_rae,36/(mov9-l_org)/5,36/0
    010531  aa   000000 000001
    010532  aa   000000 000224
    010533  aa   000000 001545
    010534  aa   000000 000000
    010535  aa   040040 040040     918  		vfd a36/    ,36/i_c,36/c_ritdep,36/(mov18-l_org)/5,36/0
    010536  aa   000000 000001
    010537  aa   000000 000157
    010540  aa   000000 001576
    010541  aa   000000 000000
    010542  aa   040040 040040     919  		vfd a36/    ,36/i_n,36/155,36/(mov18-l_org)/5,36/0
    010543  aa   000000 000002
    010544  aa   000000 000233
    010545  aa   000000 001576
    010546  aa   000000 000000
    010547  aa   040040 040040     920  l_261:		vfd a36/    ,36/i_c,36/c_rae,36/(mov9-l_org)/5,36/0
    010550  aa   000000 000001
    010551  aa   000000 000224
    010552  aa   000000 001545
    010553  aa   000000 000000
    010554  aa   040040 040040     921  		vfd a36/    ,36/i_c,36/c_slelef,36/(mov10-l_org)/5,36/0
    010555  aa   000000 000001
    010556  aa   000000 000162
    010557  aa   000000 001551
    010560  aa   000000 000000
    010561  aa   040040 040040     922  		vfd a36/    ,36/i_n,36/156,36/(mov10-l_org)/5,36/0
    010562  aa   000000 000002
    010563  aa   000000 000234
    010564  aa   000000 001551
    010565  aa   000000 000000
    010566  aa   040040 040040     923  	mov18:	vfd a36/    ,36/i_c,36/c_lefdep,36/(l_262-l_org)/5,36/0
    010567  aa   000000 000001
    010570  aa   000000 000160
    010571  aa   000000 001600
    010572  aa   000000 000000
    010573  aa   040040 040040     924  		vfd a36/    ,36/i_n,36/156,36/(l_262-l_org)/5,36/0
    010574  aa   000000 000002
    010575  aa   000000 000234
    010576  aa   000000 001600
    010577  aa   000000 000000
    010600  aa   040040 040040     925  l_262:		vfd a36/    ,36/i_c,36/c_stun,36/(l_263-l_org)/5,36/0
    010601  aa   000000 000001
    010602  aa   000000 000161
    010603  aa   000000 001602
    010604  aa   000000 000000
    010605  aa   040040 040040     926  		vfd a36/    ,36/i_n,36/0,36/(mov10-l_org)/5,36/0
    010606  aa   000000 000002
    010607  aa   000000 000000
    010610  aa   000000 001551
    010611  aa   000000 000000
    010612  aa   040040 040040     927  l_263:		vfd a36/    ,36/i_n,36/150,36/(mov10-l_org)/5,36/0
    010613  aa   000000 000002
    010614  aa   000000 000226
    010615  aa   000000 001551
    010616  aa   000000 000000
    010617  aa   163157 040040     928  	multiply:	vfd a36/so  ,36/i_r,36/r_multiply,36/(l_264-l_org)/5,36/a_27
    010620  aa   000000 000000
    010621  aa   000000 000012
    010622  aa   000000 001604
    010623  aa   000000 000033
    010624  aa   163157 040040     929  l_264:		vfd a36/so  ,36/i_s,36/(elnuitem-l_org)/5,36/(l_265-l_org)/5,36/0
    010625  aa   000000 000003
    010626  aa   000000 003551
    010627  aa   000000 001606
    010630  aa   000000 000000
    010631  aa   040040 040040     930  		vfd a36/    ,36/i_n,36/024,36/(rtwo-l_org)/5,36/0
    010632  aa   000000 000002
    010633  aa   000000 000030
    010634  aa   000000 004060
    010635  aa   000000 000000
    010636  aa   163040 040040     931  l_265:		vfd a36/s   ,36/i_r,36/r_by,36/(l_266-l_org)/5,36/0
    010637  aa   000000 000000
    010640  aa   000000 000122
    010641  aa   000000 001610
    010642  aa   000000 000000
    010643  aa   040040 040040     932  		vfd a36/    ,36/i_n,36/054,36/(rtwo-l_org)/5,36/0
    010644  aa   000000 000002
    010645  aa   000000 000066
    010646  aa   000000 004060
    010647  aa   000000 000000
    010650  aa   040040 040040     933  l_266:		vfd a36/    ,36/i_c,36/c_altst,36/(mul3-l_org)/5,36/0
    010651  aa   000000 000001
    010652  aa   000000 000274
    010653  aa   000000 001613
    010654  aa   000000 000000
    010655  aa   163157 040040     934  l_267:		vfd a36/so  ,36/i_s,36/(elnuitem-l_org)/5,36/(mul5-l_org)/5,36/0
    010656  aa   000000 000003
    010657  aa   000000 003551
    010660  aa   000000 001632
    010661  aa   000000 000000
    010662  aa   040040 040040     935  		vfd a36/    ,36/i_n,36/024,36/(rtwo-l_org)/5,36/0
    010663  aa   000000 000002
    010664  aa   000000 000030
    010665  aa   000000 004060
    010666  aa   000000 000000
    010667  aa   163040 040040     936  	mul3:	vfd a36/s   ,36/i_s,36/(ident-l_org)/5,36/(l_268-l_org)/5,36/a_45
    010670  aa   000000 000003
    010671  aa   000000 003462
    010672  aa   000000 001614
    010673  aa   000000 000055
    010674  aa   163040 040040     937  l_268:		vfd a36/s   ,36/i_r,36/r_giving,36/(mul6-l_org)/5,36/a_75
    010675  aa   000000 000000
    010676  aa   000000 000160
    010677  aa   000000 001634
    010700  aa   000000 000113
    010701  aa   040040 040040     938  		vfd a36/    ,36/i_c,36/c_csstst,36/(l_269-l_org)/5,36/0
    010702  aa   000000 000001
    010703  aa   000000 000276
    010704  aa   000000 001617
    010705  aa   000000 000000
    010706  aa   040040 040040     939  		vfd a36/    ,36/i_n,36/0,36/(l_269-l_org)/5,36/a_278
    010707  aa   000000 000002
    010710  aa   000000 000000
    010711  aa   000000 001617
    010712  aa   000000 000426
    010713  aa   163040 040040     940  l_269:	mul4:	vfd a36/s   ,36/i_r,36/r_rounded,36/(l_270-l_org)/5,36/a_267
    010714  aa   000000 000000
    010715  aa   000000 000234
    010716  aa   000000 001621
    010717  aa   000000 000413
    010720  aa   040040 040040     941  		vfd a36/    ,36/i_n,36/0,36/(l_270-l_org)/5,36/a_268
    010721  aa   000000 000002
    010722  aa   000000 000000
    010723  aa   000000 001621
    010724  aa   000000 000414
    010725  aa   040040 040040     942  l_270:		vfd a36/    ,36/i_s,36/(alel-l_org)/5,36/(mul9-l_org)/5,36/a_271
    010726  aa   000000 000003
    010727  aa   000000 003577
    010730  aa   000000 001631
    010731  aa   000000 000417
    010732  aa   040040 040040     943  	mul1:	vfd a36/    ,36/i_s,36/(nos-l_org)/5,36/(mul7-l_org)/5,36/a_87
    010733  aa   000000 000003
    010734  aa   000000 003763
    010735  aa   000000 001626
    010736  aa   000000 000127
    010737  aa   040040 040040     944  		vfd a36/    ,36/i_n,36/0,36/(l_271-l_org)/5,36/a_3
    010740  aa   000000 000002
    010741  aa   000000 000000
    010742  aa   000000 001624
    010743  aa   000000 000003
    010744  aa   163040 040040     945  l_271:		vfd a36/s   ,36/i_r,36/r_end_multiply,36/(verb1-l_org)/5,36/a_312
    010745  aa   000000 000000
    010746  aa   000000 000731
    010747  aa   000000 003640
    010750  aa   000000 000470
    010751  aa   040040 040040     946  		vfd a36/    ,36/i_n,36/0,36/(verb1-l_org)/5,36/0
    010752  aa   000000 000002
    010753  aa   000000 000000
    010754  aa   000000 003640
    010755  aa   000000 000000
    010756  aa   040040 040040     947  	mul7:	vfd a36/    ,36/i_s,36/(osi-l_org)/5,36/(l_272-l_org)/5,36/0
    010757  aa   000000 000003
    010760  aa   000000 003770
    010761  aa   000000 001627
    010762  aa   000000 000000
    010763  aa   163040 040040     948  l_272:		vfd a36/s   ,36/i_r,36/r_end_multiply,36/(verb1-l_org)/5,36/a_266
    010764  aa   000000 000000
    010765  aa   000000 000731
    010766  aa   000000 003640
    010767  aa   000000 000412
    010770  aa   040040 040040     949  		vfd a36/    ,36/i_n,36/0,36/(verb1-l_org)/5,36/a_310
    010771  aa   000000 000002
    010772  aa   000000 000000
    010773  aa   000000 003640
    010774  aa   000000 000466
    010775  aa   163063 040040     950  	mul9:	vfd a36/s3  ,36/i_n,36/23,36/(mul4-l_org)/5,36/2
    010776  aa   000000 000002
    010777  aa   000000 000027
    011000  aa   000000 001617
    011001  aa   000000 000002
    011002  aa   163040 040040     951  	mul5:	vfd a36/s   ,36/i_r,36/r_giving,36/(l_273-l_org)/5,36/a_21
    011003  aa   000000 000000
    011004  aa   000000 000160
    011005  aa   000000 001634
    011006  aa   000000 000025
    011007  aa   040040 040040     952  		vfd a36/    ,36/i_n,36/058,36/(rtwo-l_org)/5,36/0
    011010  aa   000000 000002
    011011  aa   000000 000072
    011012  aa   000000 004060
    011013  aa   000000 000000
    011014  aa   163040 040040     953  l_273:	mul6:	vfd a36/s   ,36/i_s,36/(edalel-l_org)/5,36/(mul8-l_org)/5,36/a_34
    011015  aa   000000 000003
    011016  aa   000000 003605
    011017  aa   000000 001636
    011020  aa   000000 000042
    011021  aa   040040 040040     954  		vfd a36/    ,36/i_n,36/026,36/(rtwo-l_org)/5,36/0
    011022  aa   000000 000002
    011023  aa   000000 000032
    011024  aa   000000 004060
    011025  aa   000000 000000
    011026  aa   163040 040040     955  	mul8:	vfd a36/s   ,36/i_r,36/r_rounded,36/(l_274-l_org)/5,36/a_267
    011027  aa   000000 000000
    011030  aa   000000 000234
    011031  aa   000000 001640
    011032  aa   000000 000413
    011033  aa   040040 040040     956  		vfd a36/    ,36/i_n,36/0,36/(l_274-l_org)/5,36/a_268
    011034  aa   000000 000002
    011035  aa   000000 000000
    011036  aa   000000 001640
    011037  aa   000000 000414
    011040  aa   040040 040040     957  l_274:		vfd a36/    ,36/i_s,36/(edalel-l_org)/5,36/(l_275-l_org)/5,36/a_269
    011041  aa   000000 000003
    011042  aa   000000 003605
    011043  aa   000000 001642
    011044  aa   000000 000415
    011045  aa   040040 040040     958  		vfd a36/    ,36/i_n,36/0,36/(mul1-l_org)/5,36/0
    011046  aa   000000 000002
    011047  aa   000000 000000
    011050  aa   000000 001622
    011051  aa   000000 000000
    011052  aa   163063 040040     959  l_275:		vfd a36/s3  ,36/i_n,36/23,36/(mul8-l_org)/5,36/2
    011053  aa   000000 000002
    011054  aa   000000 000027
    011055  aa   000000 001636
    011056  aa   000000 000002
    011057  aa   163157 040040     960  	open:	vfd a36/so  ,36/i_r,36/r_open,36/(l_276-l_org)/5,36/a_318
    011060  aa   000000 000000
    011061  aa   000000 000023
    011062  aa   000000 001644
    011063  aa   000000 000476
    011064  aa   163040 040040     961  l_276:		vfd a36/s   ,36/i_c,36/c_open_mode,36/(l_277-l_org)/5,36/a_10
    011065  aa   000000 000001
    011066  aa   000000 000317
    011067  aa   000000 001646
    011070  aa   000000 000012
    011071  aa   040040 040040     962  		vfd a36/    ,36/i_n,36/059,36/(rtwo-l_org)/5,36/0
    011072  aa   000000 000002
    011073  aa   000000 000073
    011074  aa   000000 004060
    011075  aa   000000 000000
    011076  aa   040040 040040     963  l_277:		vfd a36/    ,36/i_c,36/c_filenm,36/(l_278-l_org)/5,36/a_12
    011077  aa   000000 000001
    011100  aa   000000 000005
    011101  aa   000000 001655
    011102  aa   000000 000014
    011103  aa   040040 040040     964  		vfd a36/    ,36/i_n,36/031,36/(rtwo-l_org)/5,36/0
    011104  aa   000000 000002
    011105  aa   000000 000037
    011106  aa   000000 004060
    011107  aa   000000 000000
    011110  aa   040040 040040     965  		vfd a36/    ,36/i_n,36/0,36/(open_ss1-l_org)/5,36/a_319
    011111  aa   000000 000002
    011112  aa   000000 000000
    011113  aa   000000 001655
    011114  aa   000000 000477
    011115  aa   040062 040040     966  		vfd a36/ 2  ,36/i_n,36/195,36/(open_ri1-l_org)/5,36/17
    011116  aa   000000 000002
    011117  aa   000000 000303
    011120  aa   000000 001750
    011121  aa   000000 000021
    011122  aa   040064 040040     967  		vfd a36/ 4  ,36/i_n,36/195,36/(open_ri1-l_org)/5,36/19
    011123  aa   000000 000002
    011124  aa   000000 000303
    011125  aa   000000 001750
    011126  aa   000000 000023
    011127  aa   040040 040040     968  		vfd a36/    ,36/i_n,36/032,36/(rtwo-l_org)/5,36/0
    011130  aa   000000 000002
    011131  aa   000000 000040
    011132  aa   000000 004060
    011133  aa   000000 000000
    011134  aa   040065 040040     969  		vfd a36/ 5  ,36/i_n,36/195,36/(open_ss1-l_org)/5,36/25
    011135  aa   000000 000002
    011136  aa   000000 000303
    011137  aa   000000 001655
    011140  aa   000000 000031
    011141  aa   040040 040040     970  l_278:	open_ss1:	vfd a36/    ,36/i_n,36/0,36/(l_279-l_org)/5,36/a_263
    011142  aa   000000 000002
    011143  aa   000000 000000
    011144  aa   000000 001656
    011145  aa   000000 000407
    011146  aa   040040 040040     971  l_279:		vfd a36/    ,36/i_n,36/0,36/(l_280-l_org)/5,36/a_11
    011147  aa   000000 000002
    011150  aa   000000 000000
    011151  aa   000000 001664
    011152  aa   000000 000013
    011153  aa   040040 040040     972  		vfd a36/    ,36/i_n,36/32,36/(rtwo-l_org)/5,36/0
    011154  aa   000000 000002
    011155  aa   000000 000040
    011156  aa   000000 004060
    011157  aa   000000 000000
    011160  aa   163157 040040     973  		vfd a36/so  ,36/i_n,36/0,36/(open_ssi-l_org)/5,36/0
    011161  aa   000000 000002
    011162  aa   000000 000000
    011163  aa   000000 001664
    011164  aa   000000 000000
    011165  aa   163157 040040     974  		vfd a36/so  ,36/i_n,36/0,36/(open_sso-l_org)/5,36/0
    011166  aa   000000 000002
    011167  aa   000000 000000
    011170  aa   000000 001665
    011171  aa   000000 000000
    011172  aa   163157 040040     975  		vfd a36/so  ,36/i_n,36/0,36/(open_ssio-l_org)/5,36/0
    011173  aa   000000 000002
    011174  aa   000000 000000
    011175  aa   000000 001710
    011176  aa   000000 000000
    011177  aa   040040 040040     976  		vfd a36/    ,36/i_n,36/0,36/(open_sse-l_org)/5,36/0
    011200  aa   000000 000002
    011201  aa   000000 000000
    011202  aa   000000 001717
    011203  aa   000000 000000
    011204  aa   040040 040040     977  l_280:	open_ssi:	vfd a36/    ,36/i_r,36/r_reversed,36/(open_ssi1-l_org)/5,36/a_18
    011205  aa   000000 000000
    011206  aa   000000 000232
    011207  aa   000000 001701
    011210  aa   000000 000022
    011211  aa   163040 040040     978  	open_sso:	vfd a36/s   ,36/i_r,36/r_with,36/(open_sso1-l_org)/5,36/0
    011212  aa   000000 000000
    011213  aa   000000 000263
    011214  aa   000000 001726
    011215  aa   000000 000000
    011216  aa   163040 040040     979  		vfd a36/s   ,36/i_r,36/r_no,36/(open_sso2-l_org)/5,36/a_14
    011217  aa   000000 000000
    011220  aa   000000 000201
    011221  aa   000000 001730
    011222  aa   000000 000016
    011223  aa   040040 040040     980  	open_ss3:	vfd a36/    ,36/i_c,36/c_filenm,36/(open_ss2-l_org)/5,36/a_119
    011224  aa   000000 000001
    011225  aa   000000 000005
    011226  aa   000000 001741
    011227  aa   000000 000167
    011230  aa   163040 040040     981  		vfd a36/s   ,36/i_c,36/c_open_mode,36/(l_281-l_org)/5,36/a_320
    011231  aa   000000 000001
    011232  aa   000000 000317
    011233  aa   000000 001672
    011234  aa   000000 000500
    011235  aa   040040 040040     982  		vfd a36/    ,36/i_n,36/0,36/(verb1-l_org)/5,36/a_3
    011236  aa   000000 000002
    011237  aa   000000 000000
    011240  aa   000000 003640
    011241  aa   000000 000003
    011242  aa   040040 040040     983  l_281:		vfd a36/    ,36/i_c,36/c_filenm,36/(l_282-l_org)/5,36/a_12
    011243  aa   000000 000001
    011244  aa   000000 000005
    011245  aa   000000 001701
    011246  aa   000000 000014
    011247  aa   040040 040040     984  		vfd a36/    ,36/i_n,36/031,36/(rtwo-l_org)/5,36/0
    011250  aa   000000 000002
    011251  aa   000000 000037
    011252  aa   000000 004060
    011253  aa   000000 000000
    011254  aa   040063 040040     985  		vfd a36/ 3  ,36/i_n,36/43,36/(open_ss1-l_org)/5,36/16
    011255  aa   000000 000002
    011256  aa   000000 000053
    011257  aa   000000 001655
    011260  aa   000000 000020
    011261  aa   040040 040040     986  		vfd a36/    ,36/i_n,36/0,36/(open_ri1-l_org)/5,36/a_319
    011262  aa   000000 000002
    011263  aa   000000 000000
    011264  aa   000000 001750
    011265  aa   000000 000477
    011266  aa   040040 040040     987  		vfd a36/    ,36/i_n,36/0,36/(open_ri1-l_org)/5,36/a_319
    011267  aa   000000 000002
    011270  aa   000000 000000
    011271  aa   000000 001750
    011272  aa   000000 000477
    011273  aa   040040 040040     988  		vfd a36/    ,36/i_n,36/32,36/(rtwo-l_org)/5,36/0
    011274  aa   000000 000002
    011275  aa   000000 000040
    011276  aa   000000 004060
    011277  aa   000000 000000
    011300  aa   040040 040040     989  		vfd a36/    ,36/i_n,36/0,36/(open_ss1-l_org)/5,36/a_319
    011301  aa   000000 000002
    011302  aa   000000 000000
    011303  aa   000000 001655
    011304  aa   000000 000477
    011305  aa   040040 040040     990  l_282:	open_ssi1:	vfd a36/    ,36/i_n,36/0,36/(l_283-l_org)/5,36/a_12
    011306  aa   000000 000002
    011307  aa   000000 000000
    011310  aa   000000 001710
    011311  aa   000000 000014
    011312  aa   040040 040040     991  		vfd a36/    ,36/i_n,36/031,36/(rtwo-l_org)/5,36/0
    011313  aa   000000 000002
    011314  aa   000000 000037
    011315  aa   000000 004060
    011316  aa   000000 000000
    011317  aa   163063 040040     992  		vfd a36/s3  ,36/i_n,36/49,36/(open_ss3-l_org)/5,36/16
    011320  aa   000000 000002
    011321  aa   000000 000061
    011322  aa   000000 001667
    011323  aa   000000 000020
    011324  aa   040040 040040     993  		vfd a36/    ,36/i_n,36/032,36/(rtwo-l_org)/5,36/0
    011325  aa   000000 000002
    011326  aa   000000 000040
    011327  aa   000000 004060
    011330  aa   000000 000000
    011331  aa   040040 040040     994  		vfd a36/    ,36/i_n,36/032,36/(rtwo-l_org)/5,36/0
    011332  aa   000000 000002
    011333  aa   000000 000040
    011334  aa   000000 004060
    011335  aa   000000 000000
    011336  aa   040040 040040     995  		vfd a36/    ,36/i_n,36/032,36/(rtwo-l_org)/5,36/0
    011337  aa   000000 000002
    011340  aa   000000 000040
    011341  aa   000000 004060
    011342  aa   000000 000000
    011343  aa   040040 040040     996  		vfd a36/    ,36/i_n,36/032,36/(rtwo-l_org)/5,36/0
    011344  aa   000000 000002
    011345  aa   000000 000040
    011346  aa   000000 004060
    011347  aa   000000 000000
    011350  aa   040040 040040     997  l_283:	open_ssio:	vfd a36/    ,36/i_n,36/0,36/(l_284-l_org)/5,36/a_12
    011351  aa   000000 000002
    011352  aa   000000 000000
    011353  aa   000000 001717
    011354  aa   000000 000014
    011355  aa   040040 040040     998  		vfd a36/    ,36/i_n,36/32,36/(rtwo-l_org)/5,36/0
    011356  aa   000000 000002
    011357  aa   000000 000040
    011360  aa   000000 004060
    011361  aa   000000 000000
    011362  aa   040040 040040     999  		vfd a36/    ,36/i_n,36/0,36/(open_ss3-l_org)/5,36/0
    011363  aa   000000 000002
    011364  aa   000000 000000
    011365  aa   000000 001667
    011366  aa   000000 000000
    011367  aa   040040 040040    1000  		vfd a36/    ,36/i_n,36/32,36/(rtwo-l_org)/5,36/0
    011370  aa   000000 000002
    011371  aa   000000 000040
    011372  aa   000000 004060
    011373  aa   000000 000000
    011374  aa   040040 040040    1001  		vfd a36/    ,36/i_n,36/032,36/(rtwo-l_org)/5,36/0
    011375  aa   000000 000002
    011376  aa   000000 000040
    011377  aa   000000 004060
    011400  aa   000000 000000
    011401  aa   040040 040040    1002  		vfd a36/    ,36/i_n,36/032,36/(rtwo-l_org)/5,36/0
    011402  aa   000000 000002
    011403  aa   000000 000040
    011404  aa   000000 004060
    011405  aa   000000 000000
    011406  aa   040040 040040    1003  		vfd a36/    ,36/i_n,36/0,36/(open_ss3-l_org)/5,36/0
    011407  aa   000000 000002
    011410  aa   000000 000000
    011411  aa   000000 001667
    011412  aa   000000 000000
    011413  aa   040040 040040    1004  l_284:	open_sse:	vfd a36/    ,36/i_n,36/0,36/(l_285-l_org)/5,36/a_12
    011414  aa   000000 000002
    011415  aa   000000 000000
    011416  aa   000000 001726
    011417  aa   000000 000014
    011420  aa   040040 040040    1005  		vfd a36/    ,36/i_n,36/32,36/(rtwo-l_org)/5,36/0
    011421  aa   000000 000002
    011422  aa   000000 000040
    011423  aa   000000 004060
    011424  aa   000000 000000
    011425  aa   163157 040040    1006  		vfd a36/so  ,36/i_n,36/0,36/(open_ssio-l_org)/5,36/0
    011426  aa   000000 000002
    011427  aa   000000 000000
    011430  aa   000000 001710
    011431  aa   000000 000000
    011432  aa   040040 040040    1007  		vfd a36/    ,36/i_n,36/032,36/(rtwo-l_org)/5,36/0
    011433  aa   000000 000002
    011434  aa   000000 000040
    011435  aa   000000 004060
    011436  aa   000000 000000
    011437  aa   040040 040040    1008  		vfd a36/    ,36/i_n,36/032,36/(rtwo-l_org)/5,36/0
    011440  aa   000000 000002
    011441  aa   000000 000040
    011442  aa   000000 004060
    011443  aa   000000 000000
    011444  aa   040040 040040    1009  		vfd a36/    ,36/i_n,36/032,36/(rtwo-l_org)/5,36/0
    011445  aa   000000 000002
    011446  aa   000000 000040
    011447  aa   000000 004060
    011450  aa   000000 000000
    011451  aa   163157 040040    1010  		vfd a36/so  ,36/i_n,36/0,36/(open_ssio-l_org)/5,36/0
    011452  aa   000000 000002
    011453  aa   000000 000000
    011454  aa   000000 001710
    011455  aa   000000 000000
    011456  aa   163040 040040    1011  l_285:	open_sso1:	vfd a36/s   ,36/i_r,36/r_no,36/(l_286-l_org)/5,36/a_14
    011457  aa   000000 000000
    011460  aa   000000 000201
    011461  aa   000000 001730
    011462  aa   000000 000016
    011463  aa   040040 040040    1012  		vfd a36/    ,36/i_n,36/197,36/(rtwo-l_org)/5,36/0
    011464  aa   000000 000002
    011465  aa   000000 000305
    011466  aa   000000 004060
    011467  aa   000000 000000
    011470  aa   040040 040040    1013  l_286:	open_sso2:	vfd a36/    ,36/i_r,36/r_rewind,36/(l_287-l_org)/5,36/0
    011471  aa   000000 000000
    011472  aa   000000 000233
    011473  aa   000000 001732
    011474  aa   000000 000000
    011475  aa   040040 040040    1014  		vfd a36/    ,36/i_n,36/158,36/(rtwo-l_org)/5,36/0
    011476  aa   000000 000002
    011477  aa   000000 000236
    011500  aa   000000 004060
    011501  aa   000000 000000
    011502  aa   040040 040040    1015  l_287:		vfd a36/    ,36/i_n,36/0,36/(l_288-l_org)/5,36/a_12
    011503  aa   000000 000002
    011504  aa   000000 000000
    011505  aa   000000 001741
    011506  aa   000000 000014
    011507  aa   040040 040040    1016  		vfd a36/    ,36/i_n,36/031,36/(rtwo-l_org)/5,36/0
    011510  aa   000000 000002
    011511  aa   000000 000037
    011512  aa   000000 004060
    011513  aa   000000 000000
    011514  aa   163063 040040    1017  		vfd a36/s3  ,36/i_n,36/50,36/(open_ssio-l_org)/5,36/16
    011515  aa   000000 000002
    011516  aa   000000 000062
    011517  aa   000000 001710
    011520  aa   000000 000020
    011521  aa   040040 040040    1018  		vfd a36/    ,36/i_n,36/032,36/(rtwo-l_org)/5,36/0
    011522  aa   000000 000002
    011523  aa   000000 000040
    011524  aa   000000 004060
    011525  aa   000000 000000
    011526  aa   040040 040040    1019  		vfd a36/    ,36/i_n,36/032,36/(rtwo-l_org)/5,36/0
    011527  aa   000000 000002
    011530  aa   000000 000040
    011531  aa   000000 004060
    011532  aa   000000 000000
    011533  aa   040040 040040    1020  		vfd a36/    ,36/i_n,36/032,36/(rtwo-l_org)/5,36/0
    011534  aa   000000 000002
    011535  aa   000000 000040
    011536  aa   000000 004060
    011537  aa   000000 000000
    011540  aa   040040 040040    1021  		vfd a36/    ,36/i_n,36/032,36/(rtwo-l_org)/5,36/0
    011541  aa   000000 000002
    011542  aa   000000 000040
    011543  aa   000000 004060
    011544  aa   000000 000000
    011545  aa   040040 040040    1022  l_288:	open_ss2:	vfd a36/    ,36/i_n,36/0,36/(l_289-l_org)/5,36/a_12
    011546  aa   000000 000002
    011547  aa   000000 000000
    011550  aa   000000 001750
    011551  aa   000000 000014
    011552  aa   040040 040040    1023  		vfd a36/    ,36/i_n,36/032,36/(rtwo-l_org)/5,36/0
    011553  aa   000000 000002
    011554  aa   000000 000040
    011555  aa   000000 004060
    011556  aa   000000 000000
    011557  aa   040063 040040    1024  		vfd a36/ 3  ,36/i_n,36/41,36/(open_ss1-l_org)/5,36/16
    011560  aa   000000 000002
    011561  aa   000000 000051
    011562  aa   000000 001655
    011563  aa   000000 000020
    011564  aa   040040 040040    1025  		vfd a36/    ,36/i_n,36/0,36/(open_ri1-l_org)/5,36/0
    011565  aa   000000 000002
    011566  aa   000000 000000
    011567  aa   000000 001750
    011570  aa   000000 000000
    011571  aa   040040 040040    1026  		vfd a36/    ,36/i_n,36/0,36/(open_ri1-l_org)/5,36/0
    011572  aa   000000 000002
    011573  aa   000000 000000
    011574  aa   000000 001750
    011575  aa   000000 000000
    011576  aa   040040 040040    1027  		vfd a36/    ,36/i_n,36/32,36/(rtwo-l_org)/5,36/0
    011577  aa   000000 000002
    011600  aa   000000 000040
    011601  aa   000000 004060
    011602  aa   000000 000000
    011603  aa   040040 040040    1028  		vfd a36/    ,36/i_n,36/0,36/(open_ss1-l_org)/5,36/0
    011604  aa   000000 000002
    011605  aa   000000 000000
    011606  aa   000000 001655
    011607  aa   000000 000000
    011610  aa   163157 040040    1029  l_289:	open_ri1:	vfd a36/so  ,36/i_n,36/0,36/(l_290-l_org)/5,36/a_263
    011611  aa   000000 000002
    011612  aa   000000 000000
    011613  aa   000000 001751
    011614  aa   000000 000407
    011615  aa   040040 040040    1030  l_290:		vfd a36/    ,36/i_n,36/0,36/(l_291-l_org)/5,36/a_11
    011616  aa   000000 000002
    011617  aa   000000 000000
    011620  aa   000000 001757
    011621  aa   000000 000013
    011622  aa   040040 040040    1031  		vfd a36/    ,36/i_n,36/32,36/(rtwo-l_org)/5,36/0
    011623  aa   000000 000002
    011624  aa   000000 000040
    011625  aa   000000 004060
    011626  aa   000000 000000
    011627  aa   040040 040040    1032  		vfd a36/    ,36/i_n,36/0,36/(open_ri2-l_org)/5,36/0
    011630  aa   000000 000002
    011631  aa   000000 000000
    011632  aa   000000 001757
    011633  aa   000000 000000
    011634  aa   040040 040040    1033  		vfd a36/    ,36/i_n,36/0,36/(open_ri2-l_org)/5,36/0
    011635  aa   000000 000002
    011636  aa   000000 000000
    011637  aa   000000 001757
    011640  aa   000000 000000
    011641  aa   040040 040040    1034  		vfd a36/    ,36/i_n,36/0,36/(open_ri2-l_org)/5,36/0
    011642  aa   000000 000002
    011643  aa   000000 000000
    011644  aa   000000 001757
    011645  aa   000000 000000
    011646  aa   040040 040040    1035  		vfd a36/    ,36/i_n,36/258,36/(rtwo-l_org)/5,36/0
    011647  aa   000000 000002
    011650  aa   000000 000402
    011651  aa   000000 004060
    011652  aa   000000 000000
    011653  aa   040040 040040    1036  l_291:	open_ri2:	vfd a36/    ,36/i_c,36/c_filenm,36/(open_ri3-l_org)/5,36/a_119
    011654  aa   000000 000001
    011655  aa   000000 000005
    011656  aa   000000 001771
    011657  aa   000000 000167
    011660  aa   163040 040040    1037  		vfd a36/s   ,36/i_c,36/c_open_mode,36/(l_292-l_org)/5,36/a_320
    011661  aa   000000 000001
    011662  aa   000000 000317
    011663  aa   000000 001762
    011664  aa   000000 000500
    011665  aa   040040 040040    1038  		vfd a36/    ,36/i_n,36/0,36/(verb1-l_org)/5,36/a_3
    011666  aa   000000 000002
    011667  aa   000000 000000
    011670  aa   000000 003640
    011671  aa   000000 000003
    011672  aa   040040 040040    1039  l_292:		vfd a36/    ,36/i_c,36/c_filenm,36/(l_293-l_org)/5,36/a_12
    011673  aa   000000 000001
    011674  aa   000000 000005
    011675  aa   000000 001771
    011676  aa   000000 000014
    011677  aa   040040 040040    1040  		vfd a36/    ,36/i_n,36/031,36/(rtwo-l_org)/5,36/0
    011700  aa   000000 000002
    011701  aa   000000 000037
    011702  aa   000000 004060
    011703  aa   000000 000000
    011704  aa   040063 040040    1041  		vfd a36/ 3  ,36/i_n,36/43,36/(open_ss1-l_org)/5,36/16
    011705  aa   000000 000002
    011706  aa   000000 000053
    011707  aa   000000 001655
    011710  aa   000000 000020
    011711  aa   040040 040040    1042  		vfd a36/    ,36/i_n,36/0,36/(open_ri1-l_org)/5,36/a_319
    011712  aa   000000 000002
    011713  aa   000000 000000
    011714  aa   000000 001750
    011715  aa   000000 000477
    011716  aa   040040 040040    1043  		vfd a36/    ,36/i_n,36/0,36/(open_ri1-l_org)/5,36/a_319
    011717  aa   000000 000002
    011720  aa   000000 000000
    011721  aa   000000 001750
    011722  aa   000000 000477
    011723  aa   040040 040040    1044  		vfd a36/    ,36/i_n,36/32,36/(rtwo-l_org)/5,36/0
    011724  aa   000000 000002
    011725  aa   000000 000040
    011726  aa   000000 004060
    011727  aa   000000 000000
    011730  aa   040040 040040    1045  		vfd a36/    ,36/i_n,36/0,36/(open_ss1-l_org)/5,36/a_319
    011731  aa   000000 000002
    011732  aa   000000 000000
    011733  aa   000000 001655
    011734  aa   000000 000477
    011735  aa   040040 040040    1046  l_293:	open_ri3:	vfd a36/    ,36/i_n,36/0,36/(l_294-l_org)/5,36/a_12
    011736  aa   000000 000002
    011737  aa   000000 000000
    011740  aa   000000 002000
    011741  aa   000000 000014
    011742  aa   040040 040040    1047  		vfd a36/    ,36/i_n,36/032,36/(rtwo-l_org)/5,36/0
    011743  aa   000000 000002
    011744  aa   000000 000040
    011745  aa   000000 004060
    011746  aa   000000 000000
    011747  aa   040063 040040    1048  		vfd a36/ 3  ,36/i_n,36/41,36/(open_ss1-l_org)/5,36/16
    011750  aa   000000 000002
    011751  aa   000000 000051
    011752  aa   000000 001655
    011753  aa   000000 000020
    011754  aa   040040 040040    1049  		vfd a36/    ,36/i_n,36/0,36/(open_ri1-l_org)/5,36/0
    011755  aa   000000 000002
    011756  aa   000000 000000
    011757  aa   000000 001750
    011760  aa   000000 000000
    011761  aa   040040 040040    1050  		vfd a36/    ,36/i_n,36/0,36/(open_ri1-l_org)/5,36/0
    011762  aa   000000 000002
    011763  aa   000000 000000
    011764  aa   000000 001750
    011765  aa   000000 000000
    011766  aa   040040 040040    1051  		vfd a36/    ,36/i_n,36/032,36/(rtwo-l_org)/5,36/0
    011767  aa   000000 000002
    011770  aa   000000 000040
    011771  aa   000000 004060
    011772  aa   000000 000000
    011773  aa   040040 040040    1052  		vfd a36/    ,36/i_n,36/0,36/(open_ss1-l_org)/5,36/0
    011774  aa   000000 000002
    011775  aa   000000 000000
    011776  aa   000000 001655
    011777  aa   000000 000000
    012000  aa   163157 040040    1053  l_294:	perform:	vfd a36/so  ,36/i_r,36/r_perform,36/(l_295-l_org)/5,36/a_50
    012001  aa   000000 000000
    012002  aa   000000 000024
    012003  aa   000000 002001
    012004  aa   000000 000062
    012005  aa   163157 040040    1054  l_295:		vfd a36/so  ,36/i_c,36/c_prnm,36/(l_296-l_org)/5,36/a_28
    012006  aa   000000 000001
    012007  aa   000000 000016
    012010  aa   000000 002003
    012011  aa   000000 000034
    012012  aa   040040 040040    1055  		vfd a36/    ,36/i_n,36/0,36/(per6-l_org)/5,36/a_289
    012013  aa   000000 000002
    012014  aa   000000 000000
    012015  aa   000000 002014
    012016  aa   000000 000441
    012017  aa   163040 040040    1056  l_296:		vfd a36/s   ,36/i_r,36/r_thru,36/(per4-l_org)/5,36/0
    012020  aa   000000 000000
    012021  aa   000000 000246
    012022  aa   000000 002006
    012023  aa   000000 000000
    012024  aa   040040 040040    1057  		vfd a36/    ,36/i_n,36/0,36/(l_297-l_org)/5,36/a_144
    012025  aa   000000 000002
    012026  aa   000000 000000
    012027  aa   000000 002005
    012030  aa   000000 000220
    012031  aa   040040 040040    1058  l_297:		vfd a36/    ,36/i_n,36/0,36/(per6-l_org)/5,36/a_32
    012032  aa   000000 000002
    012033  aa   000000 000000
    012034  aa   000000 002014
    012035  aa   000000 000040
    012036  aa   040040 040040    1059  	per4:	vfd a36/    ,36/i_c,36/c_prnm,36/(l_298-l_org)/5,36/0
    012037  aa   000000 000001
    012040  aa   000000 000016
    012041  aa   000000 002010
    012042  aa   000000 000000
    012043  aa   040040 040040    1060  		vfd a36/    ,36/i_n,36/062,36/(rtwo-l_org)/5,36/0
    012044  aa   000000 000002
    012045  aa   000000 000076
    012046  aa   000000 004060
    012047  aa   000000 000000
    012050  aa   040040 040040    1061  l_298:		vfd a36/    ,36/i_c,36/c_ckdecpn,36/(l_299-l_org)/5,36/0
    012051  aa   000000 000001
    012052  aa   000000 000247
    012053  aa   000000 002012
    012054  aa   000000 000000
    012055  aa   040040 040040    1062  		vfd a36/    ,36/i_n,36/239,36/(rtwo-l_org)/5,36/0
    012056  aa   000000 000002
    012057  aa   000000 000357
    012060  aa   000000 004060
    012061  aa   000000 000000
    012062  aa   163157 040040    1063  l_299:		vfd a36/so  ,36/i_c,36/c_cksegm,36/(l_300-l_org)/5,36/a_143
    012063  aa   000000 000001
    012064  aa   000000 000250
    012065  aa   000000 002014
    012066  aa   000000 000217
    012067  aa   040040 040040    1064  		vfd a36/    ,36/i_n,36/246,36/(rtwo-l_org)/5,36/0
    012070  aa   000000 000002
    012071  aa   000000 000366
    012072  aa   000000 004060
    012073  aa   000000 000000
    012074  aa   163157 040040    1065  l_300:	per6:	vfd a36/so  ,36/i_s,36/(elnumint-l_org)/5,36/(l_301-l_org)/5,36/a_21
    012075  aa   000000 000003
    012076  aa   000000 003533
    012077  aa   000000 002020
    012100  aa   000000 000025
    012101  aa   040040 040040    1066  		vfd a36/    ,36/i_r,36/r_until,36/(per12-l_org)/5,36/a_24
    012102  aa   000000 000000
    012103  aa   000000 000255
    012104  aa   000000 002027
    012105  aa   000000 000030
    012106  aa   040040 040040    1067  		vfd a36/    ,36/i_r,36/r_varying,36/(per14-l_org)/5,36/a_63
    012107  aa   000000 000000
    012110  aa   000000 000261
    012111  aa   000000 002032
    012112  aa   000000 000077
    012113  aa   040040 040040    1068  		vfd a36/    ,36/i_n,36/0,36/(per5-l_org)/5,36/a_3
    012114  aa   000000 000002
    012115  aa   000000 000000
    012116  aa   000000 002022
    012117  aa   000000 000003
    012120  aa   163040 040040    1069  l_301:		vfd a36/s   ,36/i_r,36/r_times,36/(l_302-l_org)/5,36/a_3
    012121  aa   000000 000000
    012122  aa   000000 000250
    012123  aa   000000 002022
    012124  aa   000000 000003
    012125  aa   040040 040040    1070  		vfd a36/    ,36/i_n,36/063,36/(rtwo-l_org)/5,36/0
    012126  aa   000000 000002
    012127  aa   000000 000077
    012130  aa   000000 004060
    012131  aa   000000 000000
    012132  aa   040040 040040    1071  l_302:	per5:	vfd a36/    ,36/i_c,36/c_pn_pres,36/(verb1-l_org)/5,36/0
    012133  aa   000000 000001
    012134  aa   000000 000325
    012135  aa   000000 003640
    012136  aa   000000 000000
    012137  aa   040040 040040    1072  		vfd a36/    ,36/i_n,36/0,36/(l_303-l_org)/5,36/a_295
    012140  aa   000000 000002
    012141  aa   000000 000000
    012142  aa   000000 002024
    012143  aa   000000 000447
    012144  aa   040040 040040    1073  l_303:		vfd a36/    ,36/i_s,36/(imp-l_org)/5,36/(l_304-l_org)/5,36/a_296
    012145  aa   000000 000003
    012146  aa   000000 003624
    012147  aa   000000 002025
    012150  aa   000000 000450
    012151  aa   163040 040040    1074  l_304:		vfd a36/s   ,36/i_r,36/r_end_perform,36/(verb1-l_org)/5,36/a_305
    012152  aa   000000 000000
    012153  aa   000000 000732
    012154  aa   000000 003640
    012155  aa   000000 000461
    012156  aa   040040 040040    1075  		vfd a36/    ,36/i_n,36/310,36/(rtwo-l_org)/5,36/0
    012157  aa   000000 000002
    012160  aa   000000 000466
    012161  aa   000000 004060
    012162  aa   000000 000000
    012163  aa   163063 040040    1076  	per12:	vfd a36/s3  ,36/i_n,36/30,36/(l_305-l_org)/5,36/2
    012164  aa   000000 000002
    012165  aa   000000 000036
    012166  aa   000000 002030
    012167  aa   000000 000002
    012170  aa   040040 040040    1077  l_305:		vfd a36/    ,36/i_s,36/(condition-l_org)/5,36/(per2-l_org)/5,36/a_200
    012171  aa   000000 000003
    012172  aa   000000 004120
    012173  aa   000000 002076
    012174  aa   000000 000310
    012175  aa   040040 040040    1078  		vfd a36/    ,36/i_n,36/159,36/(rtwo-l_org)/5,36/0
    012176  aa   000000 000002
    012177  aa   000000 000237
    012200  aa   000000 004060
    012201  aa   000000 000000
    012202  aa   163063 040040    1079  	per14:	vfd a36/s3  ,36/i_n,36/31,36/(l_306-l_org)/5,36/2
    012203  aa   000000 000002
    012204  aa   000000 000037
    012205  aa   000000 002033
    012206  aa   000000 000002
    012207  aa   040040 040040    1080  l_306:	per8:	vfd a36/    ,36/i_c,36/c_elnudnint,36/(per3-l_org)/5,36/0
    012210  aa   000000 000001
    012211  aa   000000 000167
    012212  aa   000000 002056
    012213  aa   000000 000000
    012214  aa   163157 040040    1081  		vfd a36/so  ,36/i_s,36/(alel-l_org)/5,36/(per11-l_org)/5,36/a_28
    012215  aa   000000 000003
    012216  aa   000000 003577
    012217  aa   000000 002044
    012220  aa   000000 000034
    012221  aa   163157 040040    1082  		vfd a36/so  ,36/i_s,36/(xnm-l_org)/5,36/(l_307-l_org)/5,36/0
    012222  aa   000000 000003
    012223  aa   000000 003607
    012224  aa   000000 002037
    012225  aa   000000 000000
    012226  aa   040040 040040    1083  		vfd a36/    ,36/i_n,36/064,36/(rtwo-l_org)/5,36/0
    012227  aa   000000 000002
    012230  aa   000000 000100
    012231  aa   000000 004060
    012232  aa   000000 000000
    012233  aa   163040 040040    1084  l_307:		vfd a36/s   ,36/i_r,36/r_from,36/(l_308-l_org)/5,36/a_64
    012234  aa   000000 000000
    012235  aa   000000 000157
    012236  aa   000000 002041
    012237  aa   000000 000100
    012240  aa   040040 040040    1085  		vfd a36/    ,36/i_n,36/065,36/(rtwo-l_org)/5,36/0
    012241  aa   000000 000002
    012242  aa   000000 000101
    012243  aa   000000 004060
    012244  aa   000000 000000
    012245  aa   163157 040040    1086  l_308:		vfd a36/so  ,36/i_s,36/(elnint-l_org)/5,36/(per15-l_org)/5,36/0
    012246  aa   000000 000003
    012247  aa   000000 003534
    012250  aa   000000 002063
    012251  aa   000000 000000
    012252  aa   163157 040040    1087  		vfd a36/so  ,36/i_c,36/c_posint,36/(per15-l_org)/5,36/0
    012253  aa   000000 000001
    012254  aa   000000 000073
    012255  aa   000000 002063
    012256  aa   000000 000000
    012257  aa   040040 040040    1088  		vfd a36/    ,36/i_n,36/240,36/(rtwo-l_org)/5,36/0
    012260  aa   000000 000002
    012261  aa   000000 000360
    012262  aa   000000 004060
    012263  aa   000000 000000
    012264  aa   163040 040040    1089  	per11:	vfd a36/s   ,36/i_r,36/r_from,36/(l_309-l_org)/5,36/a_64
    012265  aa   000000 000000
    012266  aa   000000 000157
    012267  aa   000000 002046
    012270  aa   000000 000100
    012271  aa   040040 040040    1090  		vfd a36/    ,36/i_n,36/65,36/(rtwo-l_org)/5,36/0
    012272  aa   000000 000002
    012273  aa   000000 000101
    012274  aa   000000 004060
    012275  aa   000000 000000
    012276  aa   163157 040040    1091  l_309:	per9:	vfd a36/so  ,36/i_s,36/(elni-l_org)/5,36/(l_310-l_org)/5,36/0
    012277  aa   000000 000003
    012300  aa   000000 003547
    012301  aa   000000 002051
    012302  aa   000000 000000
    012303  aa   163157 040040    1092  		vfd a36/so  ,36/i_c,36/c_nlit,36/(l_310-l_org)/5,36/0
    012304  aa   000000 000001
    012305  aa   000000 000320
    012306  aa   000000 002051
    012307  aa   000000 000000
    012310  aa   040040 040040    1093  		vfd a36/    ,36/i_n,36/242,36/(rtwo-l_org)/5,36/0
    012311  aa   000000 000002
    012312  aa   000000 000362
    012313  aa   000000 004060
    012314  aa   000000 000000
    012315  aa   163040 040040    1094  l_310:		vfd a36/s   ,36/i_r,36/r_by,36/(l_311-l_org)/5,36/0
    012316  aa   000000 000000
    012317  aa   000000 000122
    012320  aa   000000 002053
    012321  aa   000000 000000
    012322  aa   040040 040040    1095  		vfd a36/    ,36/i_n,36/054,36/(rtwo-l_org)/5,36/0
    012323  aa   000000 000002
    012324  aa   000000 000066
    012325  aa   000000 004060
    012326  aa   000000 000000
    012327  aa   163157 040040    1096  l_311:		vfd a36/so  ,36/i_s,36/(elni-l_org)/5,36/(per17-l_org)/5,36/0
    012330  aa   000000 000003
    012331  aa   000000 003547
    012332  aa   000000 002070
    012333  aa   000000 000000
    012334  aa   163157 040040    1097  		vfd a36/so  ,36/i_c,36/c_nznumlit,36/(per17-l_org)/5,36/0
    012335  aa   000000 000001
    012336  aa   000000 000251
    012337  aa   000000 002070
    012340  aa   000000 000000
    012341  aa   040040 040040    1098  		vfd a36/    ,36/i_n,36/243,36/(rtwo-l_org)/5,36/0
    012342  aa   000000 000002
    012343  aa   000000 000363
    012344  aa   000000 004060
    012345  aa   000000 000000
    012346  aa   163157 040040    1099  	per3:	vfd a36/so  ,36/i_s,36/(alel-l_org)/5,36/(l_312-l_org)/5,36/a_28
    012347  aa   000000 000003
    012350  aa   000000 003577
    012351  aa   000000 002057
    012352  aa   000000 000034
    012353  aa   163040 040040    1100  l_312:		vfd a36/s   ,36/i_r,36/r_from,36/(l_313-l_org)/5,36/a_64
    012354  aa   000000 000000
    012355  aa   000000 000157
    012356  aa   000000 002061
    012357  aa   000000 000100
    012360  aa   040040 040040    1101  		vfd a36/    ,36/i_n,36/065,36/(rtwo-l_org)/5,36/0
    012361  aa   000000 000002
    012362  aa   000000 000101
    012363  aa   000000 004060
    012364  aa   000000 000000
    012365  aa   163157 040040    1102  l_313:		vfd a36/so  ,36/i_c,36/c_xnm,36/(l_314-l_org)/5,36/0
    012366  aa   000000 000001
    012367  aa   000000 000041
    012370  aa   000000 002063
    012371  aa   000000 000000
    012372  aa   040040 040040    1103  		vfd a36/    ,36/i_n,36/0,36/(per9-l_org)/5,36/0
    012373  aa   000000 000002
    012374  aa   000000 000000
    012375  aa   000000 002046
    012376  aa   000000 000000
    012377  aa   163040 040040    1104  l_314:	per15:	vfd a36/s   ,36/i_r,36/r_by,36/(l_315-l_org)/5,36/0
    012400  aa   000000 000000
    012401  aa   000000 000122
    012402  aa   000000 002065
    012403  aa   000000 000000
    012404  aa   040040 040040    1105  		vfd a36/    ,36/i_n,36/054,36/(rtwo-l_org)/5,36/0
    012405  aa   000000 000002
    012406  aa   000000 000066
    012407  aa   000000 004060
    012410  aa   000000 000000
    012411  aa   163157 040040    1106  l_315:		vfd a36/so  ,36/i_s,36/(elint-l_org)/5,36/(l_316-l_org)/5,36/0
    012412  aa   000000 000003
    012413  aa   000000 003545
    012414  aa   000000 002070
    012415  aa   000000 000000
    012416  aa   163157 040040    1107  		vfd a36/so  ,36/i_c,36/c_pigz_by,36/(l_316-l_org)/5,36/0
    012417  aa   000000 000001
    012420  aa   000000 000321
    012421  aa   000000 002070
    012422  aa   000000 000000
    012423  aa   040040 040040    1108  		vfd a36/    ,36/i_n,36/241,36/(rtwo-l_org)/5,36/0
    012424  aa   000000 000002
    012425  aa   000000 000361
    012426  aa   000000 004060
    012427  aa   000000 000000
    012430  aa   163040 040040    1109  l_316:	per17:	vfd a36/s   ,36/i_r,36/r_until,36/(l_317-l_org)/5,36/0
    012431  aa   000000 000000
    012432  aa   000000 000255
    012433  aa   000000 002072
    012434  aa   000000 000000
    012435  aa   040040 040040    1110  		vfd a36/    ,36/i_n,36/066,36/(rtwo-l_org)/5,36/0
    012436  aa   000000 000002
    012437  aa   000000 000102
    012440  aa   000000 004060
    012441  aa   000000 000000
    012442  aa   040040 040040    1111  l_317:		vfd a36/    ,36/i_s,36/(condition-l_org)/5,36/(l_318-l_org)/5,36/a_200
    012443  aa   000000 000003
    012444  aa   000000 004120
    012445  aa   000000 002074
    012446  aa   000000 000310
    012447  aa   040040 040040    1112  		vfd a36/    ,36/i_n,36/159,36/(rtwo-l_org)/5,36/0
    012450  aa   000000 000002
    012451  aa   000000 000237
    012452  aa   000000 004060
    012453  aa   000000 000000
    012454  aa   040040 040040    1113  l_318:		vfd a36/    ,36/i_c,36/c_ecnt,36/(per5-l_org)/5,36/a_3
    012455  aa   000000 000001
    012456  aa   000000 000042
    012457  aa   000000 002022
    012460  aa   000000 000003
    012461  aa   163157 040040    1114  		vfd a36/so  ,36/i_r,36/r_after,36/(per8-l_org)/5,36/0
    012462  aa   000000 000000
    012463  aa   000000 000110
    012464  aa   000000 002033
    012465  aa   000000 000000
    012466  aa   040040 040040    1115  	per2:	vfd a36/    ,36/i_n,36/0,36/(per5-l_org)/5,36/a_3
    012467  aa   000000 000002
    012470  aa   000000 000000
    012471  aa   000000 002022
    012472  aa   000000 000003
    012473  aa   040157 040040    1116  	process:	vfd a36/ o  ,36/i_r,36/r_process,36/(l_319-l_org)/5,36/a_87
    012474  aa   000000 000000
    012475  aa   000000 000060
    012476  aa   000000 002100
    012477  aa   000000 000127
    012500  aa   163065 040040    1117  l_319:		vfd a36/s5  ,36/i_n,36/88,36/(l_320-l_org)/5,36/25
    012501  aa   000000 000002
    012502  aa   000000 000130
    012503  aa   000000 002101
    012504  aa   000000 000031
    012505  aa   163157 040040    1118  l_320:		vfd a36/so  ,36/i_c,36/c_descnm,36/(l_321-l_org)/5,36/0
    012506  aa   000000 000001
    012507  aa   000000 000032
    012510  aa   000000 002103
    012511  aa   000000 000000
    012512  aa   040040 040040    1119  		vfd a36/    ,36/i_n,36/067,36/(rtwo-l_org)/5,36/0
    012513  aa   000000 000002
    012514  aa   000000 000103
    012515  aa   000000 004060
    012516  aa   000000 000000
    012517  aa   163040 040040    1120  l_321:		vfd a36/s   ,36/i_r,36/r_from,36/(pro2-l_org)/5,36/a_4
    012520  aa   000000 000000
    012521  aa   000000 000157
    012522  aa   000000 002106
    012523  aa   000000 000004
    012524  aa   163040 040040    1121  	pro1:	vfd a36/s   ,36/i_r,36/r_using,36/(pro3-l_org)/5,36/a_20
    012525  aa   000000 000000
    012526  aa   000000 000260
    012527  aa   000000 002110
    012530  aa   000000 000024
    012531  aa   040040 040040    1122  		vfd a36/    ,36/i_n,36/0,36/(verb1-l_org)/5,36/a_3
    012532  aa   000000 000002
    012533  aa   000000 000000
    012534  aa   000000 003640
    012535  aa   000000 000003
    012536  aa   163157 040040    1123  	pro2:	vfd a36/so  ,36/i_s,36/(ident-l_org)/5,36/(pro1-l_org)/5,36/0
    012537  aa   000000 000003
    012540  aa   000000 003462
    012541  aa   000000 002104
    012542  aa   000000 000000
    012543  aa   040040 040040    1124  		vfd a36/    ,36/i_n,36/021,36/(rtwo-l_org)/5,36/0
    012544  aa   000000 000002
    012545  aa   000000 000025
    012546  aa   000000 004060
    012547  aa   000000 000000
    012550  aa   163157 040040    1125  	pro3:	vfd a36/so  ,36/i_c,36/c_saanm,36/(l_322-l_org)/5,36/0
    012551  aa   000000 000001
    012552  aa   000000 000044
    012553  aa   000000 002113
    012554  aa   000000 000000
    012555  aa   163157 040040    1126  		vfd a36/so  ,36/i_c,36/c_said,36/(l_322-l_org)/5,36/0
    012556  aa   000000 000001
    012557  aa   000000 000045
    012560  aa   000000 002113
    012561  aa   000000 000000
    012562  aa   040040 040040    1127  		vfd a36/    ,36/i_n,36/068,36/(rtwo-l_org)/5,36/0
    012563  aa   000000 000002
    012564  aa   000000 000104
    012565  aa   000000 004060
    012566  aa   000000 000000
    012567  aa   040040 040040    1128  l_322:		vfd a36/    ,36/i_n,36/0,36/(verb1-l_org)/5,36/a_3
    012570  aa   000000 000002
    012571  aa   000000 000000
    012572  aa   000000 003640
    012573  aa   000000 000003
    012574  aa   040157 040040    1129  	purge:	vfd a36/ o  ,36/i_r,36/r_purge,36/(l_323-l_org)/5,36/a_87
    012575  aa   000000 000000
    012576  aa   000000 000072
    012577  aa   000000 002115
    012600  aa   000000 000127
    012601  aa   163065 040040    1130  l_323:		vfd a36/s5  ,36/i_n,36/89,36/(l_324-l_org)/5,36/25
    012602  aa   000000 000002
    012603  aa   000000 000131
    012604  aa   000000 002116
    012605  aa   000000 000031
    012606  aa   163157 040040    1131  l_324:		vfd a36/so  ,36/i_c,36/c_outcdnm,36/(l_325-l_org)/5,36/0
    012607  aa   000000 000001
    012610  aa   000000 000023
    012611  aa   000000 002120
    012612  aa   000000 000000
    012613  aa   040040 040040    1132  		vfd a36/    ,36/i_n,36/191,36/(rtwo-l_org)/5,36/0
    012614  aa   000000 000002
    012615  aa   000000 000277
    012616  aa   000000 004060
    012617  aa   000000 000000
    012620  aa   040040 040040    1133  l_325:	pur1:	vfd a36/    ,36/i_n,36/0,36/(verb1-l_org)/5,36/a_3
    012621  aa   000000 000002
    012622  aa   000000 000000
    012623  aa   000000 003640
    012624  aa   000000 000003
    012625  aa   163157 040040    1134  	read:	vfd a36/so  ,36/i_r,36/r_read,36/(l_326-l_org)/5,36/a_44
    012626  aa   000000 000000
    012627  aa   000000 000025
    012630  aa   000000 002122
    012631  aa   000000 000054
    012632  aa   040157 040040    1135  l_326:		vfd a36/ o  ,36/i_c,36/c_filenm,36/(l_327-l_org)/5,36/a_28
    012633  aa   000000 000001
    012634  aa   000000 000005
    012635  aa   000000 002124
    012636  aa   000000 000034
    012637  aa   040040 040040    1136  		vfd a36/    ,36/i_n,36/031,36/(rtwo-l_org)/5,36/0
    012640  aa   000000 000002
    012641  aa   000000 000037
    012642  aa   000000 004060
    012643  aa   000000 000000
    012644  aa   040040 040040    1137  l_327:		vfd a36/    ,36/i_c,36/c_ixfil,36/(l_328-l_org)/5,36/a_288
    012645  aa   000000 000001
    012646  aa   000000 000024
    012647  aa   000000 002125
    012650  aa   000000 000440
    012651  aa   040040 040040    1138  l_328:		vfd a36/    ,36/i_n,36/0,36/(l_329-l_org)/5,36/a_12
    012652  aa   000000 000002
    012653  aa   000000 000000
    012654  aa   000000 002127
    012655  aa   000000 000014
    012656  aa   040040 040040    1139  		vfd a36/    ,36/i_n,36/031,36/(rtwo-l_org)/5,36/0
    012657  aa   000000 000002
    012660  aa   000000 000037
    012661  aa   000000 004060
    012662  aa   000000 000000
    012663  aa   163061 040040    1140  l_329:		vfd a36/s1  ,36/i_n,36/100,36/(l_330-l_org)/5,36/15
    012664  aa   000000 000002
    012665  aa   000000 000144
    012666  aa   000000 002134
    012667  aa   000000 000017
    012670  aa   163062 040040    1141  		vfd a36/s2  ,36/i_n,36/100,36/(l_330-l_org)/5,36/17
    012671  aa   000000 000002
    012672  aa   000000 000144
    012673  aa   000000 002134
    012674  aa   000000 000021
    012675  aa   163064 040040    1142  		vfd a36/s4  ,36/i_n,36/100,36/(l_330-l_org)/5,36/19
    012676  aa   000000 000002
    012677  aa   000000 000144
    012700  aa   000000 002134
    012701  aa   000000 000023
    012702  aa   040040 040040    1143  		vfd a36/    ,36/i_n,36/32,36/(rtwo-l_org)/5,36/0
    012703  aa   000000 000002
    012704  aa   000000 000040
    012705  aa   000000 004060
    012706  aa   000000 000000
    012707  aa   163065 040040    1144  		vfd a36/s5  ,36/i_n,36/100,36/(l_330-l_org)/5,36/25
    012710  aa   000000 000002
    012711  aa   000000 000144
    012712  aa   000000 002134
    012713  aa   000000 000031
    012714  aa   040040 040040    1145  l_330:		vfd a36/    ,36/i_r,36/r_next,36/(rd5-l_org)/5,36/a_121
    012715  aa   000000 000000
    012716  aa   000000 000200
    012717  aa   000000 002170
    012720  aa   000000 000171
    012721  aa   163040 040040    1146  	rd6:	vfd a36/s   ,36/i_r,36/r_record,36/(l_331-l_org)/5,36/0
    012722  aa   000000 000000
    012723  aa   000000 000224
    012724  aa   000000 002136
    012725  aa   000000 000000
    012726  aa   163040 040040    1147  l_331:		vfd a36/s   ,36/i_r,36/r_into,36/(rd8-l_org)/5,36/a_4
    012727  aa   000000 000000
    012730  aa   000000 000164
    012731  aa   000000 002152
    012732  aa   000000 000004
    012733  aa   040040 040040    1148  	rd11:	vfd a36/    ,36/i_r,36/r_key,36/(rd12-l_org)/5,36/a_20
    012734  aa   000000 000000
    012735  aa   000000 000170
    012736  aa   000000 002201
    012737  aa   000000 000024
    012740  aa   040040 040040    1149  	rd15:	vfd a36/    ,36/i_c,36/c_seqnext,36/(rd16-l_org)/5,36/0
    012741  aa   000000 000001
    012742  aa   000000 000133
    012743  aa   000000 002160
    012744  aa   000000 000000
    012745  aa   040040 040040    1150  		vfd a36/    ,36/i_s,36/(nik-l_org)/5,36/(rd2-l_org)/5,36/0
    012746  aa   000000 000003
    012747  aa   000000 003677
    012750  aa   000000 002147
    012751  aa   000000 000000
    012752  aa   040040 040040    1151  		vfd a36/    ,36/i_c,36/c_useformr,36/(l_332-l_org)/5,36/a_257
    012753  aa   000000 000001
    012754  aa   000000 000262
    012755  aa   000000 002144
    012756  aa   000000 000401
    012757  aa   040040 040040    1152  		vfd a36/    ,36/i_n,36/111,36/(rtwo-l_org)/5,36/0
    012760  aa   000000 000002
    012761  aa   000000 000157
    012762  aa   000000 004060
    012763  aa   000000 000000
    012764  aa   040040 040040    1153  l_332:	rd1:	vfd a36/    ,36/i_n,36/0,36/(l_333-l_org)/5,36/a_3
    012765  aa   000000 000002
    012766  aa   000000 000000
    012767  aa   000000 002145
    012770  aa   000000 000003
    012771  aa   163040 040040    1154  l_333:		vfd a36/s   ,36/i_r,36/r_end_read,36/(verb1-l_org)/5,36/a_312
    012772  aa   000000 000000
    012773  aa   000000 000733
    012774  aa   000000 003640
    012775  aa   000000 000470
    012776  aa   040040 040040    1155  		vfd a36/    ,36/i_n,36/0,36/(verb1-l_org)/5,36/0
    012777  aa   000000 000002
    013000  aa   000000 000000
    013001  aa   000000 003640
    013002  aa   000000 000000
    013003  aa   040040 040040    1156  	rd2:	vfd a36/    ,36/i_s,36/(iki-l_org)/5,36/(l_334-l_org)/5,36/0
    013004  aa   000000 000003
    013005  aa   000000 003704
    013006  aa   000000 002150
    013007  aa   000000 000000
    013010  aa   163040 040040    1157  l_334:	rd17:	vfd a36/s   ,36/i_r,36/r_end_read,36/(verb1-l_org)/5,36/a_266
    013011  aa   000000 000000
    013012  aa   000000 000733
    013013  aa   000000 003640
    013014  aa   000000 000412
    013015  aa   040040 040040    1158  		vfd a36/    ,36/i_n,36/0,36/(verb1-l_org)/5,36/a_310
    013016  aa   000000 000002
    013017  aa   000000 000000
    013020  aa   000000 003640
    013021  aa   000000 000466
    013022  aa   040040 040040    1159  	rd8:	vfd a36/    ,36/i_c,36/c_varsiz,36/(l_335-l_org)/5,36/0
    013023  aa   000000 000001
    013024  aa   000000 000052
    013025  aa   000000 002154
    013026  aa   000000 000000
    013027  aa   040040 040040    1160  		vfd a36/    ,36/i_n,36/069,36/(rtwo-l_org)/5,36/0
    013030  aa   000000 000002
    013031  aa   000000 000105
    013032  aa   000000 004060
    013033  aa   000000 000000
    013034  aa   040157 040040    1161  l_335:		vfd a36/ o  ,36/i_s,36/(rid-l_org)/5,36/(l_336-l_org)/5,36/0
    013035  aa   000000 000003
    013036  aa   000000 003514
    013037  aa   000000 002156
    013040  aa   000000 000000
    013041  aa   040040 040040    1162  		vfd a36/    ,36/i_n,36/021,36/(rtwo-l_org)/5,36/0
    013042  aa   000000 000002
    013043  aa   000000 000025
    013044  aa   000000 004060
    013045  aa   000000 000000
    013046  aa   163040 040040    1163  l_336:		vfd a36/s   ,36/i_c,36/c_fileno,36/(rd11-l_org)/5,36/0
    013047  aa   000000 000001
    013050  aa   000000 000053
    013051  aa   000000 002137
    013052  aa   000000 000000
    013053  aa   040040 040040    1164  		vfd a36/    ,36/i_n,36/070,36/(rtwo-l_org)/5,36/0
    013054  aa   000000 000002
    013055  aa   000000 000106
    013056  aa   000000 004060
    013057  aa   000000 000000
    013060  aa   040040 040040    1165  	rd16:	vfd a36/    ,36/i_s,36/(nae-l_org)/5,36/(l_337-l_org)/5,36/0
    013061  aa   000000 000003
    013062  aa   000000 003647
    013063  aa   000000 002163
    013064  aa   000000 000000
    013065  aa   040040 040040    1166  		vfd a36/    ,36/i_c,36/c_useformr,36/(rd1-l_org)/5,36/a_257
    013066  aa   000000 000001
    013067  aa   000000 000262
    013070  aa   000000 002144
    013071  aa   000000 000401
    013072  aa   040040 040040    1167  		vfd a36/    ,36/i_n,36/139,36/(rtwo-l_org)/5,36/0
    013073  aa   000000 000002
    013074  aa   000000 000213
    013075  aa   000000 004060
    013076  aa   000000 000000
    013077  aa   040040 040040    1168  l_337:		vfd a36/    ,36/i_s,36/(aei-l_org)/5,36/(rd17-l_org)/5,36/0
    013100  aa   000000 000003
    013101  aa   000000 003654
    013102  aa   000000 002150
    013103  aa   000000 000000
    013104  aa   040040 040040    1169  		vfd a36/    ,36/i_n,36/0,36/(rd17-l_org)/5,36/0
    013105  aa   000000 000002
    013106  aa   000000 000000
    013107  aa   000000 002150
    013110  aa   000000 000000
    013111  aa   163040 040040    1170  	rd13:	vfd a36/s   ,36/i_r,36/r_is,36/(l_338-l_org)/5,36/0
    013112  aa   000000 000000
    013113  aa   000000 000166
    013114  aa   000000 002166
    013115  aa   000000 000000
    013116  aa   163157 040040    1171  l_338:		vfd a36/so  ,36/i_c,36/c_adrisadr,36/(rd15-l_org)/5,36/a_288
    013117  aa   000000 000001
    013120  aa   000000 000236
    013121  aa   000000 002140
    013122  aa   000000 000440
    013123  aa   040040 040040    1172  		vfd a36/    ,36/i_n,36/284,36/(rtwo-l_org)/5,36/0
    013124  aa   000000 000002
    013125  aa   000000 000434
    013126  aa   000000 004060
    013127  aa   000000 000000
    013130  aa   040040 040040    1173  	rd5:	vfd a36/    ,36/i_n,36/0,36/(l_339-l_org)/5,36/a_12
    013131  aa   000000 000002
    013132  aa   000000 000000
    013133  aa   000000 002172
    013134  aa   000000 000014
    013135  aa   040040 040040    1174  		vfd a36/    ,36/i_n,36/031,36/(rtwo-l_org)/5,36/0
    013136  aa   000000 000002
    013137  aa   000000 000037
    013140  aa   000000 004060
    013141  aa   000000 000000
    013142  aa   040040 040040    1175  l_339:		vfd a36/    ,36/i_n,36/272,36/(rtwo-l_org)/5,36/0
    013143  aa   000000 000002
    013144  aa   000000 000420
    013145  aa   000000 004060
    013146  aa   000000 000000
    013147  aa   163063 040040    1176  		vfd a36/s3  ,36/i_n,36/104,36/(l_340-l_org)/5,36/18
    013150  aa   000000 000002
    013151  aa   000000 000150
    013152  aa   000000 002177
    013153  aa   000000 000022
    013154  aa   163064 040040    1177  		vfd a36/s4  ,36/i_n,36/104,36/(l_340-l_org)/5,36/20
    013155  aa   000000 000002
    013156  aa   000000 000150
    013157  aa   000000 002177
    013160  aa   000000 000024
    013161  aa   040040 040040    1178  		vfd a36/    ,36/i_n,36/32,36/(rtwo-l_org)/5,36/0
    013162  aa   000000 000002
    013163  aa   000000 000040
    013164  aa   000000 004060
    013165  aa   000000 000000
    013166  aa   040040 040040    1179  		vfd a36/    ,36/i_n,36/272,36/(rtwo-l_org)/5,36/0
    013167  aa   000000 000002
    013170  aa   000000 000420
    013171  aa   000000 004060
    013172  aa   000000 000000
    013173  aa   040040 040040    1180  l_340:		vfd a36/    ,36/i_c,36/c_sqacdyac,36/(rd6-l_org)/5,36/a_258
    013174  aa   000000 000001
    013175  aa   000000 000027
    013176  aa   000000 002135
    013177  aa   000000 000402
    013200  aa   040040 040040    1181  		vfd a36/    ,36/i_n,36/186,36/(rtwo-l_org)/5,36/0
    013201  aa   000000 000002
    013202  aa   000000 000272
    013203  aa   000000 004060
    013204  aa   000000 000000
    013205  aa   040040 040040    1182  	rd12:	vfd a36/    ,36/i_n,36/0,36/(l_341-l_org)/5,36/a_12
    013206  aa   000000 000002
    013207  aa   000000 000000
    013210  aa   000000 002203
    013211  aa   000000 000014
    013212  aa   040040 040040    1183  		vfd a36/    ,36/i_n,36/031,36/(rtwo-l_org)/5,36/0
    013213  aa   000000 000002
    013214  aa   000000 000037
    013215  aa   000000 004060
    013216  aa   000000 000000
    013217  aa   040040 040040    1184  l_341:		vfd a36/    ,36/i_n,36/272,36/(rtwo-l_org)/5,36/0
    013220  aa   000000 000002
    013221  aa   000000 000420
    013222  aa   000000 004060
    013223  aa   000000 000000
    013224  aa   040040 040040    1185  		vfd a36/    ,36/i_n,36/272,36/(rtwo-l_org)/5,36/0
    013225  aa   000000 000002
    013226  aa   000000 000420
    013227  aa   000000 004060
    013230  aa   000000 000000
    013231  aa   040064 040040    1186  		vfd a36/ 4  ,36/i_n,36/106,36/(l_342-l_org)/5,36/20
    013232  aa   000000 000002
    013233  aa   000000 000152
    013234  aa   000000 002210
    013235  aa   000000 000024
    013236  aa   040040 040040    1187  		vfd a36/    ,36/i_n,36/32,36/(rtwo-l_org)/5,36/0
    013237  aa   000000 000002
    013240  aa   000000 000040
    013241  aa   000000 004060
    013242  aa   000000 000000
    013243  aa   040040 040040    1188  		vfd a36/    ,36/i_n,36/272,36/(rtwo-l_org)/5,36/0
    013244  aa   000000 000002
    013245  aa   000000 000420
    013246  aa   000000 004060
    013247  aa   000000 000000
    013250  aa   163040 040040    1189  l_342:		vfd a36/s   ,36/i_c,36/c_ixfil,36/(rd13-l_org)/5,36/a_259
    013251  aa   000000 000001
    013252  aa   000000 000024
    013253  aa   000000 002165
    013254  aa   000000 000403
    013255  aa   040040 040040    1190  		vfd a36/    ,36/i_n,36/170,36/(rtwo-l_org)/5,36/0
    013256  aa   000000 000002
    013257  aa   000000 000252
    013260  aa   000000 004060
    013261  aa   000000 000000
    013262  aa   040157 040040    1191  	receive:	vfd a36/ o  ,36/i_r,36/r_receive,36/(l_343-l_org)/5,36/a_50
    013263  aa   000000 000000
    013264  aa   000000 000027
    013265  aa   000000 002213
    013266  aa   000000 000062
    013267  aa   163063 040040    1192  l_343:		vfd a36/s3  ,36/i_n,36/74,36/(l_344-l_org)/5,36/23
    013270  aa   000000 000002
    013271  aa   000000 000112
    013272  aa   000000 002214
    013273  aa   000000 000027
    013274  aa   163157 040040    1193  l_344:		vfd a36/so  ,36/i_c,36/c_incdnm,36/(l_345-l_org)/5,36/0
    013275  aa   000000 000001
    013276  aa   000000 000022
    013277  aa   000000 002216
    013300  aa   000000 000000
    013301  aa   040040 040040    1194  		vfd a36/    ,36/i_n,36/036,36/(rtwo-l_org)/5,36/0
    013302  aa   000000 000002
    013303  aa   000000 000044
    013304  aa   000000 004060
    013305  aa   000000 000000
    013306  aa   163040 040040    1195  l_345:		vfd a36/s   ,36/i_r,36/r_message,36/(rec1-l_org)/5,36/0
    013307  aa   000000 000000
    013310  aa   000000 000176
    013311  aa   000000 002222
    013312  aa   000000 000000
    013313  aa   040040 040040    1196  		vfd a36/    ,36/i_r,36/r_segment,36/(l_346-l_org)/5,36/a_20
    013314  aa   000000 000000
    013315  aa   000000 000237
    013316  aa   000000 002221
    013317  aa   000000 000024
    013320  aa   040040 040040    1197  		vfd a36/    ,36/i_n,36/071,36/(rtwo-l_org)/5,36/0
    013321  aa   000000 000002
    013322  aa   000000 000107
    013323  aa   000000 004060
    013324  aa   000000 000000
    013325  aa   163063 040040    1198  l_346:		vfd a36/s3  ,36/i_n,36/75,36/(l_347-l_org)/5,36/24
    013326  aa   000000 000002
    013327  aa   000000 000113
    013330  aa   000000 002222
    013331  aa   000000 000030
    013332  aa   163040 040040    1199  l_347:	rec1:	vfd a36/s   ,36/i_r,36/r_into,36/(l_348-l_org)/5,36/0
    013333  aa   000000 000000
    013334  aa   000000 000164
    013335  aa   000000 002224
    013336  aa   000000 000000
    013337  aa   040040 040040    1200  		vfd a36/    ,36/i_n,36/072,36/(rtwo-l_org)/5,36/0
    013340  aa   000000 000002
    013341  aa   000000 000110
    013342  aa   000000 004060
    013343  aa   000000 000000
    013344  aa   163157 040040    1201  l_348:		vfd a36/so  ,36/i_s,36/(rid-l_org)/5,36/(l_349-l_org)/5,36/0
    013345  aa   000000 000003
    013346  aa   000000 003514
    013347  aa   000000 002226
    013350  aa   000000 000000
    013351  aa   040040 040040    1202  		vfd a36/    ,36/i_n,36/021,36/(rtwo-l_org)/5,36/0
    013352  aa   000000 000002
    013353  aa   000000 000025
    013354  aa   000000 004060
    013355  aa   000000 000000
    013356  aa   040040 040040    1203  l_349:		vfd a36/    ,36/i_s,36/(wd-l_org)/5,36/(rec3-l_org)/5,36/a_315
    013357  aa   000000 000003
    013360  aa   000000 004037
    013361  aa   000000 002244
    013362  aa   000000 000473
    013363  aa   040040 040040    1204  		vfd a36/    ,36/i_s,36/(nd-l_org)/5,36/(rec4-l_org)/5,36/a_301
    013364  aa   000000 000003
    013365  aa   000000 004044
    013366  aa   000000 002233
    013367  aa   000000 000455
    013370  aa   040040 040040    1205  		vfd a36/    ,36/i_n,36/0,36/(l_350-l_org)/5,36/a_3
    013371  aa   000000 000002
    013372  aa   000000 000000
    013373  aa   000000 002231
    013374  aa   000000 000003
    013375  aa   163040 040040    1206  l_350:		vfd a36/s   ,36/i_r,36/r_end_receive,36/(verb1-l_org)/5,36/a_312
    013376  aa   000000 000000
    013377  aa   000000 000734
    013400  aa   000000 003640
    013401  aa   000000 000470
    013402  aa   040040 040040    1207  		vfd a36/    ,36/i_n,36/0,36/(verb1-l_org)/5,36/0
    013403  aa   000000 000002
    013404  aa   000000 000000
    013405  aa   000000 003640
    013406  aa   000000 000000
    013407  aa   040040 040040    1208  	rec4:	vfd a36/    ,36/i_n,36/0,36/(l_351-l_org)/5,36/a_87
    013410  aa   000000 000002
    013411  aa   000000 000000
    013412  aa   000000 002234
    013413  aa   000000 000127
    013414  aa   040040 040040    1209  l_351:		vfd a36/    ,36/i_s,36/(imp-l_org)/5,36/(l_352-l_org)/5,36/0
    013415  aa   000000 000003
    013416  aa   000000 003624
    013417  aa   000000 002236
    013420  aa   000000 000000
    013421  aa   040040 040040    1210  		vfd a36/    ,36/i_n,36/0,36/(l_352-l_org)/5,36/0
    013422  aa   000000 000002
    013423  aa   000000 000000
    013424  aa   000000 002236
    013425  aa   000000 000000
    013426  aa   040040 040040    1211  l_352:		vfd a36/    ,36/i_s,36/(wd-l_org)/5,36/(l_353-l_org)/5,36/a_317
    013427  aa   000000 000003
    013430  aa   000000 004037
    013431  aa   000000 002240
    013432  aa   000000 000475
    013433  aa   040040 040040    1212  		vfd a36/    ,36/i_n,36/0,36/(rec2-l_org)/5,36/0
    013434  aa   000000 000002
    013435  aa   000000 000000
    013436  aa   000000 002242
    013437  aa   000000 000000
    013440  aa   040040 040040    1213  l_353:		vfd a36/    ,36/i_s,36/(imp-l_org)/5,36/(l_354-l_org)/5,36/0
    013441  aa   000000 000003
    013442  aa   000000 003624
    013443  aa   000000 002242
    013444  aa   000000 000000
    013445  aa   040040 040040    1214  		vfd a36/    ,36/i_n,36/0,36/(l_354-l_org)/5,36/0
    013446  aa   000000 000002
    013447  aa   000000 000000
    013450  aa   000000 002242
    013451  aa   000000 000000
    013452  aa   163040 040040    1215  l_354:	rec2:	vfd a36/s   ,36/i_r,36/r_end_receive,36/(verb1-l_org)/5,36/a_266
    013453  aa   000000 000000
    013454  aa   000000 000734
    013455  aa   000000 003640
    013456  aa   000000 000412
    013457  aa   040040 040040    1216  		vfd a36/    ,36/i_n,36/0,36/(verb1-l_org)/5,36/a_310
    013460  aa   000000 000002
    013461  aa   000000 000000
    013462  aa   000000 003640
    013463  aa   000000 000466
    013464  aa   040040 040040    1217  	rec3:	vfd a36/    ,36/i_n,36/0,36/(l_355-l_org)/5,36/a_87
    013465  aa   000000 000002
    013466  aa   000000 000000
    013467  aa   000000 002245
    013470  aa   000000 000127
    013471  aa   040040 040040    1218  l_355:		vfd a36/    ,36/i_s,36/(imp-l_org)/5,36/(l_356-l_org)/5,36/a_293
    013472  aa   000000 000003
    013473  aa   000000 003624
    013474  aa   000000 002247
    013475  aa   000000 000445
    013476  aa   040040 040040    1219  		vfd a36/    ,36/i_n,36/0,36/(l_356-l_org)/5,36/0
    013477  aa   000000 000002
    013500  aa   000000 000000
    013501  aa   000000 002247
    013502  aa   000000 000000
    013503  aa   040040 040040    1220  l_356:		vfd a36/    ,36/i_s,36/(nd-l_org)/5,36/(l_357-l_org)/5,36/0
    013504  aa   000000 000003
    013505  aa   000000 004044
    013506  aa   000000 002251
    013507  aa   000000 000000
    013510  aa   040040 040040    1221  		vfd a36/    ,36/i_n,36/0,36/(rec2-l_org)/5,36/0
    013511  aa   000000 000002
    013512  aa   000000 000000
    013513  aa   000000 002242
    013514  aa   000000 000000
    013515  aa   040040 040040    1222  l_357:		vfd a36/    ,36/i_s,36/(imp-l_org)/5,36/(rec2-l_org)/5,36/0
    013516  aa   000000 000003
    013517  aa   000000 003624
    013520  aa   000000 002242
    013521  aa   000000 000000
    013522  aa   040040 040040    1223  		vfd a36/    ,36/i_n,36/0,36/(rec2-l_org)/5,36/0
    013523  aa   000000 000002
    013524  aa   000000 000000
    013525  aa   000000 002242
    013526  aa   000000 000000
    013527  aa   040040 040040    1224  	release:	vfd a36/    ,36/i_r,36/r_release,36/(l_358-l_org)/5,36/a_87
    013530  aa   000000 000000
    013531  aa   000000 000030
    013532  aa   000000 002254
    013533  aa   000000 000127
    013534  aa   040063 040040    1225  l_358:		vfd a36/ 3  ,36/i_n,36/60,36/(l_359-l_org)/5,36/5
    013535  aa   000000 000002
    013536  aa   000000 000074
    013537  aa   000000 002255
    013540  aa   000000 000005
    013541  aa   163157 040040    1226  l_359:		vfd a36/so  ,36/i_c,36/c_inrng,36/(l_360-l_org)/5,36/0
    013542  aa   000000 000001
    013543  aa   000000 000057
    013544  aa   000000 002257
    013545  aa   000000 000000
    013546  aa   163040 040040    1227  		vfd a36/s   ,36/i_n,36/074,36/(rtwo-l_org)/5,36/0
    013547  aa   000000 000002
    013550  aa   000000 000112
    013551  aa   000000 004060
    013552  aa   000000 000000
    013553  aa   163157 040040    1228  l_360:		vfd a36/so  ,36/i_c,36/c_recnm,36/(l_361-l_org)/5,36/a_28
    013554  aa   000000 000001
    013555  aa   000000 000056
    013556  aa   000000 002261
    013557  aa   000000 000034
    013560  aa   040040 040040    1229  		vfd a36/    ,36/i_n,36/073,36/(rtwo-l_org)/5,36/0
    013561  aa   000000 000002
    013562  aa   000000 000111
    013563  aa   000000 004060
    013564  aa   000000 000000
    013565  aa   163040 040040    1230  l_361:		vfd a36/s   ,36/i_r,36/r_from,36/(l_362-l_org)/5,36/a_4
    013566  aa   000000 000000
    013567  aa   000000 000157
    013570  aa   000000 002263
    013571  aa   000000 000004
    013572  aa   040040 040040    1231  		vfd a36/    ,36/i_n,36/0,36/(verb1-l_org)/5,36/a_3
    013573  aa   000000 000002
    013574  aa   000000 000000
    013575  aa   000000 003640
    013576  aa   000000 000003
    013577  aa   040157 040040    1232  l_362:		vfd a36/ o  ,36/i_s,36/(ident-l_org)/5,36/(l_363-l_org)/5,36/0
    013600  aa   000000 000003
    013601  aa   000000 003462
    013602  aa   000000 002265
    013603  aa   000000 000000
    013604  aa   040040 040040    1233  		vfd a36/    ,36/i_n,36/021,36/(rtwo-l_org)/5,36/0
    013605  aa   000000 000002
    013606  aa   000000 000025
    013607  aa   000000 004060
    013610  aa   000000 000000
    013611  aa   163040 040040    1234  l_363:		vfd a36/s   ,36/i_c,36/c_fileno,36/(verb1-l_org)/5,36/a_3
    013612  aa   000000 000001
    013613  aa   000000 000053
    013614  aa   000000 003640
    013615  aa   000000 000003
    013616  aa   040040 040040    1235  		vfd a36/    ,36/i_n,36/070,36/(rtwo-l_org)/5,36/0
    013617  aa   000000 000002
    013620  aa   000000 000106
    013621  aa   000000 004060
    013622  aa   000000 000000
    013623  aa   040040 040040    1236  	return:	vfd a36/    ,36/i_r,36/r_return,36/(l_364-l_org)/5,36/a_42
    013624  aa   000000 000000
    013625  aa   000000 000031
    013626  aa   000000 002270
    013627  aa   000000 000052
    013630  aa   040063 040040    1237  l_364:		vfd a36/ 3  ,36/i_n,36/61,36/(l_365-l_org)/5,36/5
    013631  aa   000000 000002
    013632  aa   000000 000075
    013633  aa   000000 002271
    013634  aa   000000 000005
    013635  aa   163157 040040    1238  l_365:		vfd a36/so  ,36/i_c,36/c_outrng,36/(l_366-l_org)/5,36/0
    013636  aa   000000 000001
    013637  aa   000000 000060
    013640  aa   000000 002273
    013641  aa   000000 000000
    013642  aa   163040 040040    1239  		vfd a36/s   ,36/i_n,36/075,36/(rtwo-l_org)/5,36/0
    013643  aa   000000 000002
    013644  aa   000000 000113
    013645  aa   000000 004060
    013646  aa   000000 000000
    013647  aa   163157 040040    1240  l_366:		vfd a36/so  ,36/i_c,36/c_asfil,36/(l_367-l_org)/5,36/a_191
    013650  aa   000000 000001
    013651  aa   000000 000061
    013652  aa   000000 002275
    013653  aa   000000 000277
    013654  aa   040040 040040    1241  		vfd a36/    ,36/i_n,36/076,36/(rtwo-l_org)/5,36/0
    013655  aa   000000 000002
    013656  aa   000000 000114
    013657  aa   000000 004060
    013660  aa   000000 000000
    013661  aa   163040 040040    1242  l_367:		vfd a36/s   ,36/i_r,36/r_record,36/(l_368-l_org)/5,36/0
    013662  aa   000000 000000
    013663  aa   000000 000224
    013664  aa   000000 002276
    013665  aa   000000 000000
    013666  aa   163040 040040    1243  l_368:		vfd a36/s   ,36/i_r,36/r_into,36/(ret2-l_org)/5,36/a_4
    013667  aa   000000 000000
    013670  aa   000000 000164
    013671  aa   000000 002314
    013672  aa   000000 000004
    013673  aa   163040 040040    1244  	ret1:	vfd a36/s   ,36/i_r,36/r_not,36/(ret3-l_org)/5,36/a_292
    013674  aa   000000 000000
    013675  aa   000000 000202
    013676  aa   000000 002305
    013677  aa   000000 000444
    013700  aa   040040 040040    1245  		vfd a36/    ,36/i_s,36/(nae-l_org)/5,36/(l_369-l_org)/5,36/0
    013701  aa   000000 000003
    013702  aa   000000 003647
    013703  aa   000000 002302
    013704  aa   000000 000000
    013705  aa   040040 040040    1246  		vfd a36/    ,36/i_n,36/139,36/(rtwo-l_org)/5,36/0
    013706  aa   000000 000002
    013707  aa   000000 000213
    013710  aa   000000 004060
    013711  aa   000000 000000
    013712  aa   040040 040040    1247  l_369:		vfd a36/    ,36/i_s,36/(aei-l_org)/5,36/(l_370-l_org)/5,36/0
    013713  aa   000000 000003
    013714  aa   000000 003654
    013715  aa   000000 002303
    013716  aa   000000 000000
    013717  aa   163040 040040    1248  l_370:	ret4:	vfd a36/s   ,36/i_r,36/r_end_return,36/(verb1-l_org)/5,36/a_266
    013720  aa   000000 000000
    013721  aa   000000 000735
    013722  aa   000000 003640
    013723  aa   000000 000412
    013724  aa   040040 040040    1249  		vfd a36/    ,36/i_n,36/0,36/(verb1-l_org)/5,36/a_310
    013725  aa   000000 000002
    013726  aa   000000 000000
    013727  aa   000000 003640
    013730  aa   000000 000466
    013731  aa   040040 040040    1250  	ret3:	vfd a36/    ,36/i_s,36/(ae-l_org)/5,36/(l_371-l_org)/5,36/0
    013732  aa   000000 000003
    013733  aa   000000 003642
    013734  aa   000000 002307
    013735  aa   000000 000000
    013736  aa   040040 040040    1251  		vfd a36/    ,36/i_n,36/139,36/(rtwo-l_org)/5,36/0
    013737  aa   000000 000002
    013740  aa   000000 000213
    013741  aa   000000 004060
    013742  aa   000000 000000
    013743  aa   040040 040040    1252  l_371:		vfd a36/    ,36/i_s,36/(imp-l_org)/5,36/(l_372-l_org)/5,36/0
    013744  aa   000000 000003
    013745  aa   000000 003624
    013746  aa   000000 002310
    013747  aa   000000 000000
    013750  aa   040040 040040    1253  l_372:		vfd a36/    ,36/i_s,36/(ae-l_org)/5,36/(l_373-l_org)/5,36/0
    013751  aa   000000 000003
    013752  aa   000000 003642
    013753  aa   000000 002312
    013754  aa   000000 000000
    013755  aa   040040 040040    1254  		vfd a36/    ,36/i_n,36/139,36/(rtwo-l_org)/5,36/0
    013756  aa   000000 000002
    013757  aa   000000 000213
    013760  aa   000000 004060
    013761  aa   000000 000000
    013762  aa   040040 040040    1255  l_373:		vfd a36/    ,36/i_s,36/(imp-l_org)/5,36/(ret4-l_org)/5,36/0
    013763  aa   000000 000003
    013764  aa   000000 003624
    013765  aa   000000 002303
    013766  aa   000000 000000
    013767  aa   040040 040040    1256  		vfd a36/    ,36/i_n,36/0,36/(ret4-l_org)/5,36/0
    013770  aa   000000 000002
    013771  aa   000000 000000
    013772  aa   000000 002303
    013773  aa   000000 000000
    013774  aa   040157 040040    1257  	ret2:	vfd a36/ o  ,36/i_s,36/(rid-l_org)/5,36/(l_374-l_org)/5,36/0
    013775  aa   000000 000003
    013776  aa   000000 003514
    013777  aa   000000 002316
    014000  aa   000000 000000
    014001  aa   040040 040040    1258  		vfd a36/    ,36/i_n,36/021,36/(rtwo-l_org)/5,36/0
    014002  aa   000000 000002
    014003  aa   000000 000025
    014004  aa   000000 004060
    014005  aa   000000 000000
    014006  aa   163040 040040    1259  l_374:		vfd a36/s   ,36/i_c,36/c_fileno,36/(ret1-l_org)/5,36/0
    014007  aa   000000 000001
    014010  aa   000000 000053
    014011  aa   000000 002277
    014012  aa   000000 000000
    014013  aa   040040 040040    1260  		vfd a36/    ,36/i_n,36/070,36/(rtwo-l_org)/5,36/0
    014014  aa   000000 000002
    014015  aa   000000 000106
    014016  aa   000000 004060
    014017  aa   000000 000000
    014020  aa   163157 040040    1261  	rewrite:	vfd a36/so  ,36/i_r,36/r_rewrite,36/(l_375-l_org)/5,36/a_44
    014021  aa   000000 000000
    014022  aa   000000 000033
    014023  aa   000000 002321
    014024  aa   000000 000054
    014025  aa   040157 040040    1262  l_375:		vfd a36/ o  ,36/i_c,36/c_nsrecnm,36/(l_376-l_org)/5,36/a_260
    014026  aa   000000 000001
    014027  aa   000000 000106
    014030  aa   000000 002323
    014031  aa   000000 000404
    014032  aa   040040 040040    1263  		vfd a36/    ,36/i_n,36/108,36/(rtwo-l_org)/5,36/0
    014033  aa   000000 000002
    014034  aa   000000 000154
    014035  aa   000000 004060
    014036  aa   000000 000000
    014037  aa   040040 040040    1264  l_376:		vfd a36/    ,36/i_n,36/0,36/(l_377-l_org)/5,36/a_12
    014040  aa   000000 000002
    014041  aa   000000 000000
    014042  aa   000000 002325
    014043  aa   000000 000014
    014044  aa   040040 040040    1265  		vfd a36/    ,36/i_n,36/031,36/(rtwo-l_org)/5,36/0
    014045  aa   000000 000002
    014046  aa   000000 000037
    014047  aa   000000 004060
    014050  aa   000000 000000
    014051  aa   040040 040040    1266  l_377:		vfd a36/    ,36/i_n,36/0,36/(l_378-l_org)/5,36/0
    014052  aa   000000 000002
    014053  aa   000000 000000
    014054  aa   000000 002332
    014055  aa   000000 000000
    014056  aa   040062 040040    1267  		vfd a36/ 2  ,36/i_n,36/97,36/(l_378-l_org)/5,36/17
    014057  aa   000000 000002
    014060  aa   000000 000141
    014061  aa   000000 002332
    014062  aa   000000 000021
    014063  aa   040064 040040    1268  		vfd a36/ 4  ,36/i_n,36/97,36/(l_378-l_org)/5,36/19
    014064  aa   000000 000002
    014065  aa   000000 000141
    014066  aa   000000 002332
    014067  aa   000000 000023
    014070  aa   040040 040040    1269  		vfd a36/    ,36/i_n,36/32,36/(rtwo-l_org)/5,36/0
    014071  aa   000000 000002
    014072  aa   000000 000040
    014073  aa   000000 004060
    014074  aa   000000 000000
    014075  aa   040040 040040    1270  		vfd a36/    ,36/i_n,36/272,36/(rtwo-l_org)/5,36/0
    014076  aa   000000 000002
    014077  aa   000000 000420
    014100  aa   000000 004060
    014101  aa   000000 000000
    014102  aa   163040 040040    1271  l_378:		vfd a36/s   ,36/i_c,36/c_nstorg,36/(l_379-l_org)/5,36/0
    014103  aa   000000 000001
    014104  aa   000000 000271
    014105  aa   000000 002334
    014106  aa   000000 000000
    014107  aa   040040 040040    1272  		vfd a36/    ,36/i_n,36/259,36/(rtwo-l_org)/5,36/0
    014110  aa   000000 000002
    014111  aa   000000 000403
    014112  aa   000000 004060
    014113  aa   000000 000000
    014114  aa   163040 040040    1273  l_379:		vfd a36/s   ,36/i_r,36/r_from,36/(rew3-l_org)/5,36/a_20
    014115  aa   000000 000000
    014116  aa   000000 000157
    014117  aa   000000 002351
    014120  aa   000000 000024
    014121  aa   040040 040040    1274  	rew5:	vfd a36/    ,36/i_c,36/c_sqrlsqac,36/(l_380-l_org)/5,36/a_3
    014122  aa   000000 000001
    014123  aa   000000 000067
    014124  aa   000000 002341
    014125  aa   000000 000003
    014126  aa   040040 040040    1275  		vfd a36/    ,36/i_c,36/c_ixrlrady,36/(rew7-l_org)/5,36/a_21
    014127  aa   000000 000001
    014130  aa   000000 000123
    014131  aa   000000 002346
    014132  aa   000000 000025
    014133  aa   040040 040040    1276  		vfd a36/    ,36/i_s,36/(nik-l_org)/5,36/(rew8-l_org)/5,36/0
    014134  aa   000000 000003
    014135  aa   000000 003677
    014136  aa   000000 002343
    014137  aa   000000 000000
    014140  aa   040040 040040    1277  		vfd a36/    ,36/i_n,36/0,36/(l_380-l_org)/5,36/a_3
    014141  aa   000000 000002
    014142  aa   000000 000000
    014143  aa   000000 002341
    014144  aa   000000 000003
    014145  aa   163040 040040    1278  l_380:	rew9:	vfd a36/s   ,36/i_r,36/r_end_rewrite,36/(verb1-l_org)/5,36/a_312
    014146  aa   000000 000000
    014147  aa   000000 000736
    014150  aa   000000 003640
    014151  aa   000000 000470
    014152  aa   040040 040040    1279  		vfd a36/    ,36/i_n,36/0,36/(verb1-l_org)/5,36/0
    014153  aa   000000 000002
    014154  aa   000000 000000
    014155  aa   000000 003640
    014156  aa   000000 000000
    014157  aa   040040 040040    1280  	rew8:	vfd a36/    ,36/i_s,36/(iki-l_org)/5,36/(l_381-l_org)/5,36/0
    014160  aa   000000 000003
    014161  aa   000000 003704
    014162  aa   000000 002344
    014163  aa   000000 000000
    014164  aa   163040 040040    1281  l_381:		vfd a36/s   ,36/i_r,36/r_end_rewrite,36/(verb1-l_org)/5,36/a_266
    014165  aa   000000 000000
    014166  aa   000000 000736
    014167  aa   000000 003640
    014170  aa   000000 000412
    014171  aa   040040 040040    1282  		vfd a36/    ,36/i_n,36/0,36/(verb1-l_org)/5,36/a_310
    014172  aa   000000 000002
    014173  aa   000000 000000
    014174  aa   000000 003640
    014175  aa   000000 000466
    014176  aa   040040 040040    1283  	rew7:	vfd a36/    ,36/i_s,36/(nik-l_org)/5,36/(rew8-l_org)/5,36/0
    014177  aa   000000 000003
    014200  aa   000000 003677
    014201  aa   000000 002343
    014202  aa   000000 000000
    014203  aa   040040 040040    1284  		vfd a36/    ,36/i_c,36/c_useformr,36/(rew9-l_org)/5,36/a_3
    014204  aa   000000 000001
    014205  aa   000000 000262
    014206  aa   000000 002341
    014207  aa   000000 000003
    014210  aa   040040 040040    1285  		vfd a36/    ,36/i_n,36/211,36/(rtwo-l_org)/5,36/0
    014211  aa   000000 000002
    014212  aa   000000 000323
    014213  aa   000000 004060
    014214  aa   000000 000000
    014215  aa   040157 040040    1286  	rew3:	vfd a36/ o  ,36/i_s,36/(ident-l_org)/5,36/(l_382-l_org)/5,36/0
    014216  aa   000000 000003
    014217  aa   000000 003462
    014220  aa   000000 002353
    014221  aa   000000 000000
    014222  aa   040040 040040    1287  		vfd a36/    ,36/i_n,36/021,36/(rtwo-l_org)/5,36/0
    014223  aa   000000 000002
    014224  aa   000000 000025
    014225  aa   000000 004060
    014226  aa   000000 000000
    014227  aa   163040 040040    1288  l_382:		vfd a36/s   ,36/i_c,36/c_filnefil,36/(rew5-l_org)/5,36/0
    014230  aa   000000 000001
    014231  aa   000000 000217
    014232  aa   000000 002335
    014233  aa   000000 000000
    014234  aa   040040 040040    1289  		vfd a36/    ,36/i_n,36/070,36/(rtwo-l_org)/5,36/0
    014235  aa   000000 000002
    014236  aa   000000 000106
    014237  aa   000000 004060
    014240  aa   000000 000000
    014241  aa   040157 040040    1290  	search:	vfd a36/ o  ,36/i_r,36/r_search,36/(l_383-l_org)/5,36/a_50
    014242  aa   000000 000000
    014243  aa   000000 000032
    014244  aa   000000 002356
    014245  aa   000000 000062
    014246  aa   163063 040040    1291  l_383:		vfd a36/s3  ,36/i_n,36/57,36/(l_384-l_org)/5,36/4
    014247  aa   000000 000002
    014250  aa   000000 000071
    014251  aa   000000 002357
    014252  aa   000000 000004
    014253  aa   163157 040040    1292  l_384:		vfd a36/so  ,36/i_c,36/c_srchid,36/(l_385-l_org)/5,36/a_64
    014254  aa   000000 000001
    014255  aa   000000 000062
    014256  aa   000000 002362
    014257  aa   000000 000100
    014260  aa   163040 040040    1293  		vfd a36/s   ,36/i_r,36/r_all,36/(sea12-l_org)/5,36/a_21
    014261  aa   000000 000000
    014262  aa   000000 000111
    014263  aa   000000 002407
    014264  aa   000000 000025
    014265  aa   040040 040040    1294  		vfd a36/    ,36/i_n,36/77,36/(rtwo-l_org)/5,36/0
    014266  aa   000000 000002
    014267  aa   000000 000115
    014270  aa   000000 004060
    014271  aa   000000 000000
    014272  aa   163157 040040    1295  l_385:		vfd a36/so  ,36/i_n,36/0,36/(l_386-l_org)/5,36/0
    014273  aa   000000 000002
    014274  aa   000000 000000
    014275  aa   000000 002363
    014276  aa   000000 000000
    014277  aa   163040 040040    1296  l_386:		vfd a36/s   ,36/i_r,36/r_varying,36/(l_387-l_org)/5,36/a_20
    014300  aa   000000 000000
    014301  aa   000000 000261
    014302  aa   000000 002365
    014303  aa   000000 000024
    014304  aa   040040 040040    1297  		vfd a36/    ,36/i_n,36/0,36/(sea4-l_org)/5,36/0
    014305  aa   000000 000002
    014306  aa   000000 000000
    014307  aa   000000 002370
    014310  aa   000000 000000
    014311  aa   163157 040040    1298  l_387:		vfd a36/so  ,36/i_s,36/(xnm-l_org)/5,36/(l_388-l_org)/5,36/0
    014312  aa   000000 000003
    014313  aa   000000 003607
    014314  aa   000000 002370
    014315  aa   000000 000000
    014316  aa   040040 040040    1299  		vfd a36/    ,36/i_c,36/c_usornm,36/(sea10-l_org)/5,36/0
    014317  aa   000000 000001
    014320  aa   000000 000063
    014321  aa   000000 002405
    014322  aa   000000 000000
    014323  aa   040040 040040    1300  		vfd a36/    ,36/i_n,36/78,36/(rtwo-l_org)/5,36/0
    014324  aa   000000 000002
    014325  aa   000000 000116
    014326  aa   000000 004060
    014327  aa   000000 000000
    014330  aa   040040 040040    1301  l_388:	sea4:	vfd a36/    ,36/i_s,36/(sae-l_org)/5,36/(l_389-l_org)/5,36/0
    014331  aa   000000 000003
    014332  aa   000000 002452
    014333  aa   000000 002372
    014334  aa   000000 000000
    014335  aa   040040 040040    1302  		vfd a36/    ,36/i_n,36/0,36/(sea7-l_org)/5,36/a_3
    014336  aa   000000 000002
    014337  aa   000000 000000
    014340  aa   000000 002374
    014341  aa   000000 000003
    014342  aa   040040 040040    1303  l_389:	sea5:	vfd a36/    ,36/i_n,36/0,36/(l_390-l_org)/5,36/a_301
    014343  aa   000000 000002
    014344  aa   000000 000000
    014345  aa   000000 002373
    014346  aa   000000 000455
    014347  aa   040040 040040    1304  l_390:		vfd a36/    ,36/i_s,36/(is_imp-l_org)/5,36/(l_391-l_org)/5,36/a_173
    014350  aa   000000 000003
    014351  aa   000000 003621
    014352  aa   000000 002374
    014353  aa   000000 000255
    014354  aa   163040 040040    1305  l_391:	sea7:	vfd a36/s   ,36/i_r,36/r_when,36/(l_392-l_org)/5,36/a_195
    014355  aa   000000 000000
    014356  aa   000000 000262
    014357  aa   000000 002376
    014360  aa   000000 000303
    014361  aa   040040 040040    1306  		vfd a36/    ,36/i_n,36/79,36/(rtwo-l_org)/5,36/0
    014362  aa   000000 000002
    014363  aa   000000 000117
    014364  aa   000000 004060
    014365  aa   000000 000000
    014366  aa   040040 040040    1307  l_392:	sea8:	vfd a36/    ,36/i_s,36/(condition-l_org)/5,36/(l_393-l_org)/5,36/a_164
    014367  aa   000000 000003
    014370  aa   000000 004120
    014371  aa   000000 002400
    014372  aa   000000 000244
    014373  aa   040040 040040    1308  		vfd a36/    ,36/i_n,36/217,36/(rtwo-l_org)/5,36/0
    014374  aa   000000 000002
    014375  aa   000000 000331
    014376  aa   000000 004060
    014377  aa   000000 000000
    014400  aa   040040 040040    1309  l_393:		vfd a36/    ,36/i_s,36/(ns-l_org)/5,36/(sea9-l_org)/5,36/a_171
    014401  aa   000000 000003
    014402  aa   000000 001273
    014403  aa   000000 002403
    014404  aa   000000 000253
    014405  aa   040040 040040    1310  		vfd a36/    ,36/i_n,36/0,36/(l_394-l_org)/5,36/a_172
    014406  aa   000000 000002
    014407  aa   000000 000000
    014410  aa   000000 002402
    014411  aa   000000 000254
    014412  aa   040040 040040    1311  l_394:		vfd a36/    ,36/i_s,36/(is_imp-l_org)/5,36/(l_395-l_org)/5,36/a_173
    014413  aa   000000 000003
    014414  aa   000000 003621
    014415  aa   000000 002403
    014416  aa   000000 000255
    014417  aa   163040 040040    1312  l_395:	sea9:	vfd a36/s   ,36/i_r,36/r_when,36/(sea8-l_org)/5,36/a_195
    014420  aa   000000 000000
    014421  aa   000000 000262
    014422  aa   000000 002376
    014423  aa   000000 000303
    014424  aa   040040 040040    1313  		vfd a36/    ,36/i_n,36/0,36/(sea18-l_org)/5,36/a_174
    014425  aa   000000 000002
    014426  aa   000000 000000
    014427  aa   000000 002445
    014430  aa   000000 000256
    014431  aa   040040 040040    1314  	sea10:	vfd a36/    ,36/i_s,36/(idxd-l_org)/5,36/(sea4-l_org)/5,36/0
    014432  aa   000000 000003
    014433  aa   000000 002447
    014434  aa   000000 002370
    014435  aa   000000 000000
    014436  aa   040040 040040    1315  		vfd a36/    ,36/i_n,36/78,36/(rtwo-l_org)/5,36/0
    014437  aa   000000 000002
    014440  aa   000000 000116
    014441  aa   000000 004060
    014442  aa   000000 000000
    014443  aa   040040 040040    1316  	sea12:	vfd a36/    ,36/i_c,36/c_srchid,36/(l_396-l_org)/5,36/a_64
    014444  aa   000000 000001
    014445  aa   000000 000062
    014446  aa   000000 002411
    014447  aa   000000 000100
    014450  aa   040040 040040    1317  		vfd a36/    ,36/i_n,36/81,36/(rtwo-l_org)/5,36/0
    014451  aa   000000 000002
    014452  aa   000000 000121
    014453  aa   000000 004060
    014454  aa   000000 000000
    014455  aa   163157 040040    1318  l_396:		vfd a36/so  ,36/i_c,36/c_keylbl,36/(l_397-l_org)/5,36/0
    014456  aa   000000 000001
    014457  aa   000000 000064
    014460  aa   000000 002413
    014461  aa   000000 000000
    014462  aa   040040 040040    1319  		vfd a36/    ,36/i_n,36/82,36/(rtwo-l_org)/5,36/0
    014463  aa   000000 000002
    014464  aa   000000 000122
    014465  aa   000000 004060
    014466  aa   000000 000000
    014467  aa   163157 040040    1320  l_397:		vfd a36/so  ,36/i_n,36/0,36/(l_398-l_org)/5,36/0
    014470  aa   000000 000002
    014471  aa   000000 000000
    014472  aa   000000 002414
    014473  aa   000000 000000
    014474  aa   040040 040040    1321  l_398:		vfd a36/    ,36/i_r,36/r_when,36/(sea13-l_org)/5,36/a_3
    014475  aa   000000 000000
    014476  aa   000000 000262
    014477  aa   000000 002420
    014500  aa   000000 000003
    014501  aa   040040 040040    1322  		vfd a36/    ,36/i_s,36/(sae-l_org)/5,36/(l_399-l_org)/5,36/a_142
    014502  aa   000000 000003
    014503  aa   000000 002452
    014504  aa   000000 002416
    014505  aa   000000 000216
    014506  aa   040040 040040    1323  l_399:		vfd a36/    ,36/i_n,36/0,36/(l_400-l_org)/5,36/a_301
    014507  aa   000000 000002
    014510  aa   000000 000000
    014511  aa   000000 002417
    014512  aa   000000 000455
    014513  aa   040040 040040    1324  l_400:		vfd a36/    ,36/i_s,36/(is_imp-l_org)/5,36/(l_401-l_org)/5,36/a_173
    014514  aa   000000 000003
    014515  aa   000000 003621
    014516  aa   000000 002420
    014517  aa   000000 000255
    014520  aa   163040 040040    1325  l_401:	sea13:	vfd a36/s   ,36/i_r,36/r_when,36/(l_402-l_org)/5,36/a_142
    014521  aa   000000 000000
    014522  aa   000000 000262
    014523  aa   000000 002422
    014524  aa   000000 000216
    014525  aa   040040 040040    1326  		vfd a36/    ,36/i_n,36/79,36/(rtwo-l_org)/5,36/0
    014526  aa   000000 000002
    014527  aa   000000 000117
    014530  aa   000000 004060
    014531  aa   000000 000000
    014532  aa   163040 040040    1327  l_402:	sea14:	vfd a36/s   ,36/i_r,36/r_lt,36/(l_403-l_org)/5,36/0
    014533  aa   000000 000000
    014534  aa   000000 000273
    014535  aa   000000 002423
    014536  aa   000000 000000
    014537  aa   040040 040040    1328  l_403:		vfd a36/    ,36/i_s,36/(idxd-l_org)/5,36/(l_404-l_org)/5,36/0
    014540  aa   000000 000003
    014541  aa   000000 002447
    014542  aa   000000 002425
    014543  aa   000000 000000
    014544  aa   040040 040040    1329  		vfd a36/    ,36/i_n,36/78,36/(rtwo-l_org)/5,36/0
    014545  aa   000000 000002
    014546  aa   000000 000116
    014547  aa   000000 004060
    014550  aa   000000 000000
    014551  aa   163040 040040    1330  l_404:		vfd a36/s   ,36/i_r,36/r_is,36/(l_405-l_org)/5,36/0
    014552  aa   000000 000000
    014553  aa   000000 000166
    014554  aa   000000 002430
    014555  aa   000000 000000
    014556  aa   163157 040040    1331  		vfd a36/so  ,36/i_r,36/r_eq,36/(sea16-l_org)/5,36/0
    014557  aa   000000 000000
    014560  aa   000000 000146
    014561  aa   000000 002432
    014562  aa   000000 000000
    014563  aa   040040 040040    1332  		vfd a36/    ,36/i_n,36/312,36/(rtwo-l_org)/5,36/0
    014564  aa   000000 000002
    014565  aa   000000 000470
    014566  aa   000000 004060
    014567  aa   000000 000000
    014570  aa   163157 040040    1333  l_405:		vfd a36/so  ,36/i_r,36/r_eq,36/(l_406-l_org)/5,36/0
    014571  aa   000000 000000
    014572  aa   000000 000146
    014573  aa   000000 002432
    014574  aa   000000 000000
    014575  aa   040040 040040    1334  		vfd a36/    ,36/i_n,36/311,36/(rtwo-l_org)/5,36/0
    014576  aa   000000 000002
    014577  aa   000000 000467
    014600  aa   000000 004060
    014601  aa   000000 000000
    014602  aa   163040 040040    1335  l_406:	sea16:	vfd a36/s   ,36/i_r,36/r_to,36/(l_407-l_org)/5,36/0
    014603  aa   000000 000000
    014604  aa   000000 000252
    014605  aa   000000 002433
    014606  aa   000000 000000
    014607  aa   040040 040040    1336  l_407:		vfd a36/    ,36/i_s,36/(arithexp-l_org)/5,36/(l_408-l_org)/5,36/0
    014610  aa   000000 000003
    014611  aa   000000 004265
    014612  aa   000000 002437
    014613  aa   000000 000000
    014614  aa   163157 040040    1337  		vfd a36/so  ,36/i_s,36/(ident-l_org)/5,36/(l_408-l_org)/5,36/0
    014615  aa   000000 000003
    014616  aa   000000 003462
    014617  aa   000000 002437
    014620  aa   000000 000000
    014621  aa   163157 040040    1338  		vfd a36/so  ,36/i_c,36/c_lit,36/(l_408-l_org)/5,36/0
    014622  aa   000000 000001
    014623  aa   000000 000025
    014624  aa   000000 002437
    014625  aa   000000 000000
    014626  aa   040040 040040    1339  		vfd a36/    ,36/i_n,36/313,36/(rtwo-l_org)/5,36/0
    014627  aa   000000 000002
    014630  aa   000000 000471
    014631  aa   000000 004060
    014632  aa   000000 000000
    014633  aa   163040 040040    1340  l_408:		vfd a36/s   ,36/i_r,36/r_rt,36/(l_409-l_org)/5,36/0
    014634  aa   000000 000000
    014635  aa   000000 000274
    014636  aa   000000 002440
    014637  aa   000000 000000
    014640  aa   163157 040040    1341  l_409:		vfd a36/so  ,36/i_r,36/r_and,36/(sea14-l_org)/5,36/0
    014641  aa   000000 000000
    014642  aa   000000 000115
    014643  aa   000000 002422
    014644  aa   000000 000000
    014645  aa   040040 040040    1342  		vfd a36/    ,36/i_s,36/(ns-l_org)/5,36/(sea18-l_org)/5,36/a_176
    014646  aa   000000 000003
    014647  aa   000000 001273
    014650  aa   000000 002445
    014651  aa   000000 000260
    014652  aa   040040 040040    1343  		vfd a36/    ,36/i_n,36/0,36/(l_410-l_org)/5,36/a_177
    014653  aa   000000 000002
    014654  aa   000000 000000
    014655  aa   000000 002443
    014656  aa   000000 000261
    014657  aa   040040 040040    1344  l_410:		vfd a36/    ,36/i_s,36/(imp-l_org)/5,36/(l_411-l_org)/5,36/a_178
    014660  aa   000000 000003
    014661  aa   000000 003624
    014662  aa   000000 002445
    014663  aa   000000 000262
    014664  aa   040040 040040    1345  		vfd a36/    ,36/i_n,36/168,36/(rtwo-l_org)/5,36/0
    014665  aa   000000 000002
    014666  aa   000000 000250
    014667  aa   000000 004060
    014670  aa   000000 000000
    014671  aa   163040 040040    1346  l_411:	sea18:	vfd a36/s   ,36/i_r,36/r_end_search,36/(verb1-l_org)/5,36/a_266
    014672  aa   000000 000000
    014673  aa   000000 000737
    014674  aa   000000 003640
    014675  aa   000000 000412
    014676  aa   040040 040040    1347  		vfd a36/    ,36/i_n,36/0,36/(verb1-l_org)/5,36/0
    014677  aa   000000 000002
    014700  aa   000000 000000
    014701  aa   000000 003640
    014702  aa   000000 000000
    014703  aa   163157 040040    1348  	idxd:	vfd a36/so  ,36/i_s,36/(ident-l_org)/5,36/(succ-l_org)/5,36/0
    014704  aa   000000 000003
    014705  aa   000000 003462
    014706  aa   000000 004110
    014707  aa   000000 000000
    014710  aa   163157 040040    1349  		vfd a36/so  ,36/i_s,36/(xdname-l_org)/5,36/(succ-l_org)/5,36/0
    014711  aa   000000 000003
    014712  aa   000000 003457
    014713  aa   000000 004110
    014714  aa   000000 000000
    014715  aa   040040 040040    1350  		vfd a36/    ,36/i_n,36/0,36/(fail-l_org)/5,36/0
    014716  aa   000000 000002
    014717  aa   000000 000000
    014720  aa   000000 004111
    014721  aa   000000 000000
    014722  aa   163040 040040    1351  	sae:	vfd a36/s   ,36/i_r,36/r_at,36/(l_412-l_org)/5,36/0
    014723  aa   000000 000000
    014724  aa   000000 000117
    014725  aa   000000 002455
    014726  aa   000000 000000
    014727  aa   163040 040040    1352  		vfd a36/s   ,36/i_r,36/r_end,36/(succ-l_org)/5,36/a_139
    014730  aa   000000 000000
    014731  aa   000000 000142
    014732  aa   000000 004110
    014733  aa   000000 000213
    014734  aa   040040 040040    1353  		vfd a36/    ,36/i_n,36/0,36/(fail-l_org)/5,36/0
    014735  aa   000000 000002
    014736  aa   000000 000000
    014737  aa   000000 004111
    014740  aa   000000 000000
    014741  aa   163040 040040    1354  l_412:		vfd a36/s   ,36/i_r,36/r_end,36/(succ-l_org)/5,36/a_139
    014742  aa   000000 000000
    014743  aa   000000 000142
    014744  aa   000000 004110
    014745  aa   000000 000213
    014746  aa   040040 040040    1355  		vfd a36/    ,36/i_n,36/306,36/(rtwo-l_org)/5,36/0
    014747  aa   000000 000002
    014750  aa   000000 000462
    014751  aa   000000 004060
    014752  aa   000000 000000
    014753  aa   163157 040040    1356  	send:	vfd a36/so  ,36/i_r,36/r_send,36/(l_413-l_org)/5,36/a_318
    014754  aa   000000 000000
    014755  aa   000000 000036
    014756  aa   000000 002460
    014757  aa   000000 000476
    014760  aa   163157 040040    1357  l_413:		vfd a36/so  ,36/i_c,36/c_outcdnm,36/(l_414-l_org)/5,36/0
    014761  aa   000000 000001
    014762  aa   000000 000023
    014763  aa   000000 002462
    014764  aa   000000 000000
    014765  aa   040040 040040    1358  		vfd a36/    ,36/i_n,36/035,36/(rtwo-l_org)/5,36/0
    014766  aa   000000 000002
    014767  aa   000000 000043
    014770  aa   000000 004060
    014771  aa   000000 000000
    014772  aa   163040 040040    1359  l_414:		vfd a36/s   ,36/i_r,36/r_from,36/(l_415-l_org)/5,36/a_4
    014773  aa   000000 000000
    014774  aa   000000 000157
    014775  aa   000000 002465
    014776  aa   000000 000004
    014777  aa   040040 040040    1360  		vfd a36/    ,36/i_r,36/r_with,36/(send_2-l_org)/5,36/0
    015000  aa   000000 000000
    015001  aa   000000 000263
    015002  aa   000000 002472
    015003  aa   000000 000000
    015004  aa   040040 040040    1361  		vfd a36/    ,36/i_n,36/271,36/(rtwo-l_org)/5,36/0
    015005  aa   000000 000002
    015006  aa   000000 000417
    015007  aa   000000 004060
    015010  aa   000000 000000
    015011  aa   163157 040040    1362  l_415:		vfd a36/so  ,36/i_s,36/(ident-l_org)/5,36/(l_416-l_org)/5,36/0
    015012  aa   000000 000003
    015013  aa   000000 003462
    015014  aa   000000 002467
    015015  aa   000000 000000
    015016  aa   040040 040040    1363  		vfd a36/    ,36/i_n,36/021,36/(rtwo-l_org)/5,36/0
    015017  aa   000000 000002
    015020  aa   000000 000025
    015021  aa   000000 004060
    015022  aa   000000 000000
    015023  aa   040040 040040    1364  l_416:		vfd a36/    ,36/i_r,36/r_with,36/(send_2-l_org)/5,36/0
    015024  aa   000000 000000
    015025  aa   000000 000263
    015026  aa   000000 002472
    015027  aa   000000 000000
    015030  aa   040063 040040    1365  		vfd a36/ 3  ,36/i_n,36/221,36/(l_417-l_org)/5,36/24
    015031  aa   000000 000002
    015032  aa   000000 000335
    015033  aa   000000 002471
    015034  aa   000000 000030
    015035  aa   040040 040040    1366  l_417:		vfd a36/    ,36/i_n,36/0,36/(verb1-l_org)/5,36/a_323
    015036  aa   000000 000002
    015037  aa   000000 000000
    015040  aa   000000 003640
    015041  aa   000000 000503
    015042  aa   040063 040040    1367  	send_2:	vfd a36/ 3  ,36/i_n,36/76,36/(l_418-l_org)/5,36/23
    015043  aa   000000 000002
    015044  aa   000000 000114
    015045  aa   000000 002473
    015046  aa   000000 000027
    015047  aa   163040 040040    1368  l_418:		vfd a36/s   ,36/i_r,36/r_with,36/(l_419-l_org)/5,36/a_321
    015050  aa   000000 000000
    015051  aa   000000 000263
    015052  aa   000000 002474
    015053  aa   000000 000501
    015054  aa   040040 040040    1369  l_419:		vfd a36/    ,36/i_r,36/r_esi,36/(l_420-l_org)/5,36/a_67
    015055  aa   000000 000000
    015056  aa   000000 000151
    015057  aa   000000 002501
    015060  aa   000000 000103
    015061  aa   163040 040040    1370  		vfd a36/s   ,36/i_r,36/r_emi,36/(send_3-l_org)/5,36/a_68
    015062  aa   000000 000000
    015063  aa   000000 000141
    015064  aa   000000 002502
    015065  aa   000000 000104
    015066  aa   163040 040040    1371  		vfd a36/s   ,36/i_r,36/r_egi,36/(send_3-l_org)/5,36/a_69
    015067  aa   000000 000000
    015070  aa   000000 000351
    015071  aa   000000 002502
    015072  aa   000000 000105
    015073  aa   040157 040040    1372  		vfd a36/ o  ,36/i_s,36/(ident-l_org)/5,36/(send_4-l_org)/5,36/0
    015074  aa   000000 000003
    015075  aa   000000 003462
    015076  aa   000000 002506
    015077  aa   000000 000000
    015100  aa   040040 040040    1373  		vfd a36/    ,36/i_n,36/084,36/(rtwo-l_org)/5,36/0
    015101  aa   000000 000002
    015102  aa   000000 000124
    015103  aa   000000 004060
    015104  aa   000000 000000
    015105  aa   163063 040040    1374  l_420:		vfd a36/s3  ,36/i_n,36/78,36/(l_421-l_org)/5,36/24
    015106  aa   000000 000002
    015107  aa   000000 000116
    015110  aa   000000 002502
    015111  aa   000000 000030
    015112  aa   040040 040040    1375  l_421:	send_3:	vfd a36/    ,36/i_n,36/0,36/(l_422-l_org)/5,36/a_319
    015113  aa   000000 000002
    015114  aa   000000 000000
    015115  aa   000000 002503
    015116  aa   000000 000477
    015117  aa   163040 040040    1376  l_422:		vfd a36/s   ,36/i_r,36/r_before,36/(send_6-l_org)/5,36/a_71
    015120  aa   000000 000000
    015121  aa   000000 000120
    015122  aa   000000 002511
    015123  aa   000000 000107
    015124  aa   163040 040040    1377  		vfd a36/s   ,36/i_r,36/r_after,36/(send_6-l_org)/5,36/a_72
    015125  aa   000000 000000
    015126  aa   000000 000110
    015127  aa   000000 002511
    015130  aa   000000 000110
    015131  aa   040040 040040    1378  		vfd a36/    ,36/i_n,36/0,36/(verb1-l_org)/5,36/a_109
    015132  aa   000000 000002
    015133  aa   000000 000000
    015134  aa   000000 003640
    015135  aa   000000 000155
    015136  aa   040063 040040    1379  	send_4:	vfd a36/ 3  ,36/i_n,36/77,36/(l_423-l_org)/5,36/24
    015137  aa   000000 000002
    015140  aa   000000 000115
    015141  aa   000000 002507
    015142  aa   000000 000030
    015143  aa   163040 040040    1380  l_423:		vfd a36/s   ,36/i_c,36/c_onechnosn,36/(send_3-l_org)/5,36/0
    015144  aa   000000 000001
    015145  aa   000000 000066
    015146  aa   000000 002502
    015147  aa   000000 000000
    015150  aa   040040 040040    1381  		vfd a36/    ,36/i_n,36/187,36/(rtwo-l_org)/5,36/0
    015151  aa   000000 000002
    015152  aa   000000 000273
    015153  aa   000000 004060
    015154  aa   000000 000000
    015155  aa   163040 040040    1382  	send_6:	vfd a36/s   ,36/i_r,36/r_advancing,36/(l_424-l_org)/5,36/0
    015156  aa   000000 000000
    015157  aa   000000 000107
    015160  aa   000000 002512
    015161  aa   000000 000000
    015162  aa   163157 040040    1383  l_424:		vfd a36/so  ,36/i_s,36/(elnumint-l_org)/5,36/(send_8-l_org)/5,36/0
    015163  aa   000000 000003
    015164  aa   000000 003533
    015165  aa   000000 002520
    015166  aa   000000 000000
    015167  aa   163157 040040    1384  		vfd a36/so  ,36/i_c,36/c_prt_con,36/(send_7-l_org)/5,36/0
    015170  aa   000000 000001
    015171  aa   000000 000307
    015172  aa   000000 002521
    015173  aa   000000 000000
    015174  aa   163157 040040    1385  		vfd a36/so  ,36/i_r,36/r_page,36/(send_7-l_org)/5,36/0
    015175  aa   000000 000000
    015176  aa   000000 000213
    015177  aa   000000 002521
    015200  aa   000000 000000
    015201  aa   040040 040040    1386  		vfd a36/    ,36/i_n,36/179,36/(rtwo-l_org)/5,36/0
    015202  aa   000000 000002
    015203  aa   000000 000263
    015204  aa   000000 004060
    015205  aa   000000 000000
    015206  aa   163040 040040    1387  l_425:		vfd a36/s   ,36/i_c,36/c_elnuindi,36/(l_426-l_org)/5,36/0
    015207  aa   000000 000001
    015210  aa   000000 000101
    015211  aa   000000 002520
    015212  aa   000000 000000
    015213  aa   040040 040040    1388  		vfd a36/    ,36/i_n,36/179,36/(rtwo-l_org)/5,36/0
    015214  aa   000000 000002
    015215  aa   000000 000263
    015216  aa   000000 004060
    015217  aa   000000 000000
    015220  aa   163040 040040    1389  l_426:	send_8:	vfd a36/s   ,36/i_r,36/r_lines,36/(verb1-l_org)/5,36/a_3
    015221  aa   000000 000000
    015222  aa   000000 000174
    015223  aa   000000 003640
    015224  aa   000000 000003
    015225  aa   040040 040040    1390  	send_7:	vfd a36/    ,36/i_n,36/0,36/(verb1-l_org)/5,36/a_3
    015226  aa   000000 000002
    015227  aa   000000 000000
    015230  aa   000000 003640
    015231  aa   000000 000003
    015232  aa   040157 040040    1391  	set:	vfd a36/ o  ,36/i_r,36/r_set,36/(l_427-l_org)/5,36/a_87
    015233  aa   000000 000000
    015234  aa   000000 000037
    015235  aa   000000 002523
    015236  aa   000000 000127
    015237  aa   163040 040040    1392  l_427:		vfd a36/s   ,36/i_n,36/0,36/(l_428-l_org)/5,36/a_282
    015240  aa   000000 000002
    015241  aa   000000 000000
    015242  aa   000000 002524
    015243  aa   000000 000432
    015244  aa   163157 040040    1393  l_428:		vfd a36/so  ,36/i_s,36/(xnm-l_org)/5,36/(set_4-l_org)/5,36/a_45
    015245  aa   000000 000003
    015246  aa   000000 003607
    015247  aa   000000 002536
    015250  aa   000000 000055
    015251  aa   040040 040040    1394  		vfd a36/    ,36/i_c,36/c_xint,36/(set_5-l_org)/5,36/0
    015252  aa   000000 000001
    015253  aa   000000 000072
    015254  aa   000000 002544
    015255  aa   000000 000000
    015256  aa   040157 040040    1395  		vfd a36/ o  ,36/i_c,36/c_ssnm,36/(l_429-l_org)/5,36/a_8
    015257  aa   000000 000001
    015260  aa   000000 000237
    015261  aa   000000 002530
    015262  aa   000000 000010
    015263  aa   040040 040040    1396  		vfd a36/    ,36/i_n,36/175,36/(rtwo-l_org)/5,36/0
    015264  aa   000000 000002
    015265  aa   000000 000257
    015266  aa   000000 004060
    015267  aa   000000 000000
    015270  aa   163065 040040    1397  l_429:		vfd a36/s5  ,36/i_n,36/105,36/(l_430-l_org)/5,36/25
    015271  aa   000000 000002
    015272  aa   000000 000151
    015273  aa   000000 002531
    015274  aa   000000 000031
    015275  aa   163157 040040    1398  l_430:	set_1:	vfd a36/so  ,36/i_c,36/c_ssnm,36/(set_1-l_org)/5,36/a_8
    015276  aa   000000 000001
    015277  aa   000000 000237
    015300  aa   000000 002531
    015301  aa   000000 000010
    015302  aa   163040 040040    1399  		vfd a36/s   ,36/i_r,36/r_to,36/(set_2-l_org)/5,36/0
    015303  aa   000000 000000
    015304  aa   000000 000252
    015305  aa   000000 002534
    015306  aa   000000 000000
    015307  aa   040040 040040    1400  		vfd a36/    ,36/i_n,36/264,36/(set_2-l_org)/5,36/0
    015310  aa   000000 000002
    015311  aa   000000 000410
    015312  aa   000000 002534
    015313  aa   000000 000000
    015314  aa   163040 040040    1401  	set_2:	vfd a36/s   ,36/i_c,36/c_on_off,36/(verb1-l_org)/5,36/a_3
    015315  aa   000000 000001
    015316  aa   000000 000304
    015317  aa   000000 003640
    015320  aa   000000 000003
    015321  aa   040040 040040    1402  		vfd a36/    ,36/i_n,36/265,36/(rtwo-l_org)/5,36/0
    015322  aa   000000 000002
    015323  aa   000000 000411
    015324  aa   000000 004060
    015325  aa   000000 000000
    015326  aa   040157 040040    1403  	set_4:	vfd a36/ o  ,36/i_s,36/(xnm-l_org)/5,36/(l_431-l_org)/5,36/a_8
    015327  aa   000000 000003
    015330  aa   000000 003607
    015331  aa   000000 002543
    015332  aa   000000 000010
    015333  aa   163040 040040    1404  		vfd a36/s   ,36/i_r,36/r_to,36/(set_7-l_org)/5,36/0
    015334  aa   000000 000000
    015335  aa   000000 000252
    015336  aa   000000 002553
    015337  aa   000000 000000
    015340  aa   163040 040040    1405  		vfd a36/s   ,36/i_r,36/r_up,36/(set_10-l_org)/5,36/0
    015341  aa   000000 000000
    015342  aa   000000 000256
    015343  aa   000000 002570
    015344  aa   000000 000000
    015345  aa   163040 040040    1406  		vfd a36/s   ,36/i_r,36/r_down,36/(set_10-l_org)/5,36/a_4
    015346  aa   000000 000000
    015347  aa   000000 000137
    015350  aa   000000 002570
    015351  aa   000000 000004
    015352  aa   040040 040040    1407  		vfd a36/    ,36/i_n,36/0,36/(set_6-l_org)/5,36/0
    015353  aa   000000 000002
    015354  aa   000000 000000
    015355  aa   000000 002546
    015356  aa   000000 000000
    015357  aa   163040 040040    1408  l_431:		vfd a36/s   ,36/i_n,36/0,36/(set_4-l_org)/5,36/a_252
    015360  aa   000000 000002
    015361  aa   000000 000000
    015362  aa   000000 002536
    015363  aa   000000 000374
    015364  aa   163157 040040    1409  	set_5:	vfd a36/so  ,36/i_s,36/(ident-l_org)/5,36/(l_432-l_org)/5,36/a_8
    015365  aa   000000 000003
    015366  aa   000000 003462
    015367  aa   000000 002546
    015370  aa   000000 000010
    015371  aa   163157 040040    1410  		vfd a36/so  ,36/i_s,36/(xdname-l_org)/5,36/(l_432-l_org)/5,36/a_8
    015372  aa   000000 000003
    015373  aa   000000 003457
    015374  aa   000000 002546
    015375  aa   000000 000010
    015376  aa   040040 040040    1411  l_432:	set_6:	vfd a36/    ,36/i_c,36/c_xint,36/(set_5-l_org)/5,36/0
    015377  aa   000000 000001
    015400  aa   000000 000072
    015401  aa   000000 002544
    015402  aa   000000 000000
    015403  aa   040157 040040    1412  		vfd a36/ o  ,36/i_s,36/(xnm-l_org)/5,36/(set_3-l_org)/5,36/a_8
    015404  aa   000000 000003
    015405  aa   000000 003607
    015406  aa   000000 002552
    015407  aa   000000 000010
    015410  aa   163040 040040    1413  		vfd a36/s   ,36/i_r,36/r_to,36/(set_7-l_org)/5,36/0
    015411  aa   000000 000000
    015412  aa   000000 000252
    015413  aa   000000 002553
    015414  aa   000000 000000
    015415  aa   040040 040040    1414  		vfd a36/    ,36/i_n,36/177,36/(rtwo-l_org)/5,36/0
    015416  aa   000000 000002
    015417  aa   000000 000261
    015420  aa   000000 004060
    015421  aa   000000 000000
    015422  aa   163040 040040    1415  	set_3:	vfd a36/s   ,36/i_n,36/0,36/(set_6-l_org)/5,36/a_252
    015423  aa   000000 000002
    015424  aa   000000 000000
    015425  aa   000000 002546
    015426  aa   000000 000374
    015427  aa   163157 040040    1416  	set_7:	vfd a36/so  ,36/i_c,36/c_xnm,36/(set_8-l_org)/5,36/0
    015430  aa   000000 000001
    015431  aa   000000 000041
    015432  aa   000000 002565
    015433  aa   000000 000000
    015434  aa   040040 040040    1417  		vfd a36/    ,36/i_c,36/c_set_xint,36/(set_12-l_org)/5,36/0
    015435  aa   000000 000001
    015436  aa   000000 000312
    015437  aa   000000 002557
    015440  aa   000000 000000
    015441  aa   040040 040040    1418  		vfd a36/    ,36/i_c,36/c_set_pigz,36/(set_13-l_org)/5,36/0
    015442  aa   000000 000001
    015443  aa   000000 000313
    015444  aa   000000 002561
    015445  aa   000000 000000
    015446  aa   040040 040040    1419  		vfd a36/    ,36/i_n,36/273,36/(rtwo-l_org)/5,36/0
    015447  aa   000000 000002
    015450  aa   000000 000421
    015451  aa   000000 004060
    015452  aa   000000 000000
    015453  aa   040040 040040    1420  	set_12:	vfd a36/    ,36/i_c,36/c_tst_xint,36/(set_9-l_org)/5,36/0
    015454  aa   000000 000001
    015455  aa   000000 000314
    015456  aa   000000 002566
    015457  aa   000000 000000
    015460  aa   040040 040040    1421  		vfd a36/    ,36/i_n,36/270,36/(rtwo-l_org)/5,36/0
    015461  aa   000000 000002
    015462  aa   000000 000416
    015463  aa   000000 004060
    015464  aa   000000 000000
    015465  aa   040157 040040    1422  	set_13:	vfd a36/ o  ,36/i_c,36/c_tst_pigz,36/(l_433-l_org)/5,36/a_281
    015466  aa   000000 000001
    015467  aa   000000 000315
    015470  aa   000000 002563
    015471  aa   000000 000431
    015472  aa   040040 040040    1423  		vfd a36/    ,36/i_n,36/0,36/(rtwo-l_org)/5,36/0
    015473  aa   000000 000002
    015474  aa   000000 000000
    015475  aa   000000 004060
    015476  aa   000000 000000
    015477  aa   163040 040040    1424  l_433:		vfd a36/s   ,36/i_c,36/c_ckrng1,36/(l_434-l_org)/5,36/0
    015500  aa   000000 000001
    015501  aa   000000 000243
    015502  aa   000000 002565
    015503  aa   000000 000000
    015504  aa   040040 040040    1425  		vfd a36/    ,36/i_n,36/236,36/(rtwo-l_org)/5,36/0
    015505  aa   000000 000002
    015506  aa   000000 000354
    015507  aa   000000 004060
    015510  aa   000000 000000
    015511  aa   040040 040040    1426  l_434:	set_8:	vfd a36/    ,36/i_n,36/0,36/(verb1-l_org)/5,36/a_3
    015512  aa   000000 000002
    015513  aa   000000 000000
    015514  aa   000000 003640
    015515  aa   000000 000003
    015516  aa   163157 040040    1427  	set_9:	vfd a36/so  ,36/i_s,36/(ident-l_org)/5,36/(set_8-l_org)/5,36/0
    015517  aa   000000 000003
    015520  aa   000000 003462
    015521  aa   000000 002565
    015522  aa   000000 000000
    015523  aa   163157 040040    1428  		vfd a36/so  ,36/i_s,36/(xdname-l_org)/5,36/(set_8-l_org)/5,36/0
    015524  aa   000000 000003
    015525  aa   000000 003457
    015526  aa   000000 002565
    015527  aa   000000 000000
    015530  aa   163040 040040    1429  	set_10:	vfd a36/s   ,36/i_r,36/r_by,36/(l_435-l_org)/5,36/a_21
    015531  aa   000000 000000
    015532  aa   000000 000122
    015533  aa   000000 002572
    015534  aa   000000 000025
    015535  aa   040040 040040    1430  		vfd a36/    ,36/i_n,36/054,36/(rtwo-l_org)/5,36/0
    015536  aa   000000 000002
    015537  aa   000000 000066
    015540  aa   000000 004060
    015541  aa   000000 000000
    015542  aa   040040 040040    1431  l_435:		vfd a36/    ,36/i_c,36/c_elnudnint,36/(l_436-l_org)/5,36/0
    015543  aa   000000 000001
    015544  aa   000000 000167
    015545  aa   000000 002575
    015546  aa   000000 000000
    015547  aa   040040 040040    1432  		vfd a36/    ,36/i_c,36/c_elnuint,36/(set_11-l_org)/5,36/a_281
    015550  aa   000000 000001
    015551  aa   000000 000166
    015552  aa   000000 002577
    015553  aa   000000 000431
    015554  aa   040040 040040    1433  		vfd a36/    ,36/i_n,36/179,36/(rtwo-l_org)/5,36/0
    015555  aa   000000 000002
    015556  aa   000000 000263
    015557  aa   000000 004060
    015560  aa   000000 000000
    015561  aa   163157 040040    1434  l_436:		vfd a36/so  ,36/i_s,36/(ident-l_org)/5,36/(set_8-l_org)/5,36/0
    015562  aa   000000 000003
    015563  aa   000000 003462
    015564  aa   000000 002565
    015565  aa   000000 000000
    015566  aa   040040 040040    1435  		vfd a36/    ,36/i_n,36/021,36/(rtwo-l_org)/5,36/0
    015567  aa   000000 000002
    015570  aa   000000 000025
    015571  aa   000000 004060
    015572  aa   000000 000000
    015573  aa   163157 040040    1436  	set_11:	vfd a36/so  ,36/i_c,36/c_ckrng2,36/(set_8-l_org)/5,36/0
    015574  aa   000000 000001
    015575  aa   000000 000244
    015576  aa   000000 002565
    015577  aa   000000 000000
    015600  aa   040040 040040    1437  		vfd a36/    ,36/i_n,36/236,36/(rtwo-l_org)/5,36/0
    015601  aa   000000 000002
    015602  aa   000000 000354
    015603  aa   000000 004060
    015604  aa   000000 000000
    015605  aa   040157 040040    1438  	sort:	vfd a36/ o  ,36/i_r,36/r_sort,36/(l_437-l_org)/5,36/a_87
    015606  aa   000000 000000
    015607  aa   000000 000061
    015610  aa   000000 002602
    015611  aa   000000 000127
    015612  aa   040040 040040    1439  l_437:		vfd a36/    ,36/i_n,36/0,36/(l_438-l_org)/5,36/a_322
    015613  aa   000000 000002
    015614  aa   000000 000000
    015615  aa   000000 002603
    015616  aa   000000 000502
    015617  aa   163063 040040    1440  l_438:		vfd a36/s3  ,36/i_n,36/62,36/(l_439-l_org)/5,36/5
    015620  aa   000000 000002
    015621  aa   000000 000076
    015622  aa   000000 002604
    015623  aa   000000 000005
    015624  aa   163157 040040    1441  l_439:		vfd a36/so  ,36/i_c,36/c_srtfil,36/(l_440-l_org)/5,36/a_41
    015625  aa   000000 000001
    015626  aa   000000 000074
    015627  aa   000000 002606
    015630  aa   000000 000051
    015631  aa   040040 040040    1442  		vfd a36/    ,36/i_n,36/090,36/(rtwo-l_org)/5,36/0
    015632  aa   000000 000002
    015633  aa   000000 000132
    015634  aa   000000 004060
    015635  aa   000000 000000
    015636  aa   163040 040040    1443  l_440:		vfd a36/s   ,36/i_n,36/0,36/(l_441-l_org)/5,36/a_170
    015637  aa   000000 000002
    015640  aa   000000 000000
    015641  aa   000000 002607
    015642  aa   000000 000252
    015643  aa   163040 040040    1444  l_441:		vfd a36/s   ,36/i_r,36/r_on,36/(l_442-l_org)/5,36/0
    015644  aa   000000 000000
    015645  aa   000000 000206
    015646  aa   000000 002610
    015647  aa   000000 000000
    015650  aa   163040 040040    1445  l_442:	sort_1:	vfd a36/s   ,36/i_r,36/r_ascending,36/(l_443-l_org)/5,36/a_4
    015651  aa   000000 000000
    015652  aa   000000 000116
    015653  aa   000000 002613
    015654  aa   000000 000004
    015655  aa   163040 040040    1446  		vfd a36/s   ,36/i_r,36/r_descending,36/(l_443-l_org)/5,36/a_9
    015656  aa   000000 000000
    015657  aa   000000 000135
    015660  aa   000000 002613
    015661  aa   000000 000011
    015662  aa   040040 040040    1447  		vfd a36/    ,36/i_n,36/091,36/(rtwo-l_org)/5,36/0
    015663  aa   000000 000002
    015664  aa   000000 000133
    015665  aa   000000 004060
    015666  aa   000000 000000
    015667  aa   163040 040040    1448  l_443:	sort_2:	vfd a36/s   ,36/i_r,36/r_key,36/(l_444-l_org)/5,36/0
    015670  aa   000000 000000
    015671  aa   000000 000170
    015672  aa   000000 002614
    015673  aa   000000 000000
    015674  aa   163157 040040    1449  l_444:		vfd a36/so  ,36/i_c,36/c_dninfl,36/(l_445-l_org)/5,36/a_74
    015675  aa   000000 000001
    015676  aa   000000 000075
    015677  aa   000000 002616
    015700  aa   000000 000112
    015701  aa   040040 040040    1450  		vfd a36/    ,36/i_n,36/092,36/(rtwo-l_org)/5,36/0
    015702  aa   000000 000002
    015703  aa   000000 000134
    015704  aa   000000 004060
    015705  aa   000000 000000
    015706  aa   163157 040040    1451  l_445:	sort_12:	vfd a36/so  ,36/i_c,36/c_dninfl,36/(sort_12-l_org)/5,36/a_74
    015707  aa   000000 000001
    015710  aa   000000 000075
    015711  aa   000000 002616
    015712  aa   000000 000112
    015713  aa   163040 040040    1452  		vfd a36/s   ,36/i_r,36/r_on,36/(sort_1-l_org)/5,36/0
    015714  aa   000000 000000
    015715  aa   000000 000206
    015716  aa   000000 002610
    015717  aa   000000 000000
    015720  aa   163040 040040    1453  		vfd a36/s   ,36/i_r,36/r_ascending,36/(sort_2-l_org)/5,36/a_4
    015721  aa   000000 000000
    015722  aa   000000 000116
    015723  aa   000000 002613
    015724  aa   000000 000004
    015725  aa   163040 040040    1454  		vfd a36/s   ,36/i_r,36/r_descending,36/(sort_2-l_org)/5,36/a_9
    015726  aa   000000 000000
    015727  aa   000000 000135
    015730  aa   000000 002613
    015731  aa   000000 000011
    015732  aa   163040 040040    1455  		vfd a36/s   ,36/i_r,36/r_collating,36/(sort_3-l_org)/5,36/a_321
    015733  aa   000000 000000
    015734  aa   000000 001003
    015735  aa   000000 002631
    015736  aa   000000 000501
    015737  aa   163040 040040    1456  		vfd a36/s   ,36/i_r,36/r_sequence,36/(sort_4-l_org)/5,36/0
    015740  aa   000000 000000
    015741  aa   000000 001113
    015742  aa   000000 002633
    015743  aa   000000 000000
    015744  aa   040040 040040    1457  		vfd a36/    ,36/i_n,36/0,36/(l_446-l_org)/5,36/a_156
    015745  aa   000000 000002
    015746  aa   000000 000000
    015747  aa   000000 002625
    015750  aa   000000 000234
    015751  aa   163040 040040    1458  l_446:	sort_5:	vfd a36/s   ,36/i_r,36/r_input,36/(l_447-l_org)/5,36/a_9
    015752  aa   000000 000000
    015753  aa   000000 000163
    015754  aa   000000 002630
    015755  aa   000000 000011
    015756  aa   163040 040040    1459  		vfd a36/s   ,36/i_r,36/r_using,36/(sort_11-l_org)/5,36/a_37
    015757  aa   000000 000000
    015760  aa   000000 000260
    015761  aa   000000 002641
    015762  aa   000000 000045
    015763  aa   040040 040040    1460  		vfd a36/    ,36/i_n,36/093,36/(rtwo-l_org)/5,36/0
    015764  aa   000000 000002
    015765  aa   000000 000135
    015766  aa   000000 004060
    015767  aa   000000 000000
    015770  aa   040040 040040    1461  l_447:		vfd a36/    ,36/i_n,36/0,36/(sort_6-l_org)/5,36/a_3
    015771  aa   000000 000002
    015772  aa   000000 000000
    015773  aa   000000 002637
    015774  aa   000000 000003
    015775  aa   163040 040040    1462  	sort_3:	vfd a36/s   ,36/i_r,36/r_sequence,36/(l_448-l_org)/5,36/0
    015776  aa   000000 000000
    015777  aa   000000 001113
    016000  aa   000000 002633
    016001  aa   000000 000000
    016002  aa   040040 040040    1463  		vfd a36/    ,36/i_n,36/266,36/(rtwo-l_org)/5,36/0
    016003  aa   000000 000002
    016004  aa   000000 000412
    016005  aa   000000 004060
    016006  aa   000000 000000
    016007  aa   163040 040040    1464  l_448:	sort_4:	vfd a36/s   ,36/i_r,36/r_is,36/(l_449-l_org)/5,36/0
    016010  aa   000000 000000
    016011  aa   000000 000166
    016012  aa   000000 002634
    016013  aa   000000 000000
    016014  aa   040157 040040    1465  l_449:		vfd a36/ o  ,36/i_c,36/c_alphnm,36/(l_450-l_org)/5,36/0
    016015  aa   000000 000001
    016016  aa   000000 000303
    016017  aa   000000 002636
    016020  aa   000000 000000
    016021  aa   040040 040040    1466  		vfd a36/    ,36/i_n,36/267,36/(rtwo-l_org)/5,36/0
    016022  aa   000000 000002
    016023  aa   000000 000413
    016024  aa   000000 004060
    016025  aa   000000 000000
    016026  aa   163064 040040    1467  l_450:	sort_14:	vfd a36/s4  ,36/i_n,36/63,36/(sort_5-l_org)/5,36/6
    016027  aa   000000 000002
    016030  aa   000000 000077
    016031  aa   000000 002625
    016032  aa   000000 000006
    016033  aa   163040 040040    1468  	sort_6:	vfd a36/s   ,36/i_r,36/r_procedure,36/(sort_7-l_org)/5,36/0
    016034  aa   000000 000000
    016035  aa   000000 000216
    016036  aa   000000 002646
    016037  aa   000000 000000
    016040  aa   040040 040040    1469  		vfd a36/    ,36/i_n,36/001,36/(rtwo-l_org)/5,36/0
    016041  aa   000000 000002
    016042  aa   000000 000001
    016043  aa   000000 004060
    016044  aa   000000 000000
    016045  aa   040040 040040    1470  	sort_11:	vfd a36/    ,36/i_c,36/c_filenm,36/(l_451-l_org)/5,36/a_157
    016046  aa   000000 000001
    016047  aa   000000 000005
    016050  aa   000000 002643
    016051  aa   000000 000235
    016052  aa   040040 040040    1471  		vfd a36/    ,36/i_n,36/031,36/(rtwo-l_org)/5,36/0
    016053  aa   000000 000002
    016054  aa   000000 000037
    016055  aa   000000 004060
    016056  aa   000000 000000
    016057  aa   163040 040040    1472  l_451:		vfd a36/s   ,36/i_c,36/c_seqfil,36/(l_452-l_org)/5,36/0
    016060  aa   000000 000001
    016061  aa   000000 000065
    016062  aa   000000 002645
    016063  aa   000000 000000
    016064  aa   040040 040040    1473  		vfd a36/    ,36/i_n,36/301,36/(rtwo-l_org)/5,36/0
    016065  aa   000000 000002
    016066  aa   000000 000455
    016067  aa   000000 004060
    016070  aa   000000 000000
    016071  aa   163040 040040    1474  l_452:	sort_9:	vfd a36/s   ,36/i_n,36/0,36/(sort_8-l_org)/5,36/a_159
    016072  aa   000000 000002
    016073  aa   000000 000000
    016074  aa   000000 002656
    016075  aa   000000 000237
    016076  aa   163040 040040    1475  	sort_7:	vfd a36/s   ,36/i_r,36/r_is,36/(l_453-l_org)/5,36/0
    016077  aa   000000 000000
    016100  aa   000000 000166
    016101  aa   000000 002647
    016102  aa   000000 000000
    016103  aa   040040 040040    1476  l_453:		vfd a36/    ,36/i_c,36/c_debug,36/(sort_17-l_org)/5,36/0
    016104  aa   000000 000001
    016105  aa   000000 000326
    016106  aa   000000 002705
    016107  aa   000000 000000
    016110  aa   163040 040040    1477  	sort_15:	vfd a36/s   ,36/i_c,36/c_descnmra,36/(l_454-l_org)/5,36/a_165
    016111  aa   000000 000001
    016112  aa   000000 000043
    016113  aa   000000 002652
    016114  aa   000000 000245
    016115  aa   040040 040040    1478  		vfd a36/    ,36/i_n,36/67,36/(rtwo-l_org)/5,36/0
    016116  aa   000000 000002
    016117  aa   000000 000103
    016120  aa   000000 004060
    016121  aa   000000 000000
    016122  aa   163040 040040    1479  l_454:		vfd a36/s   ,36/i_r,36/r_thru,36/(l_455-l_org)/5,36/0
    016123  aa   000000 000000
    016124  aa   000000 000246
    016125  aa   000000 002654
    016126  aa   000000 000000
    016127  aa   040040 040040    1480  		vfd a36/    ,36/i_n,36/0,36/(sort_13-l_org)/5,36/a_167
    016130  aa   000000 000002
    016131  aa   000000 000000
    016132  aa   000000 002663
    016133  aa   000000 000247
    016134  aa   163040 040040    1481  l_455:		vfd a36/s   ,36/i_c,36/c_descnmra,36/(sort_13-l_org)/5,36/a_166
    016135  aa   000000 000001
    016136  aa   000000 000043
    016137  aa   000000 002663
    016140  aa   000000 000246
    016141  aa   040040 040040    1482  		vfd a36/    ,36/i_n,36/67,36/(rtwo-l_org)/5,36/0
    016142  aa   000000 000002
    016143  aa   000000 000103
    016144  aa   000000 004060
    016145  aa   000000 000000
    016146  aa   040040 040040    1483  	sort_8:	vfd a36/    ,36/i_c,36/c_filenm,36/(l_456-l_org)/5,36/a_157
    016147  aa   000000 000001
    016150  aa   000000 000005
    016151  aa   000000 002660
    016152  aa   000000 000235
    016153  aa   040040 040040    1484  		vfd a36/    ,36/i_n,36/0,36/(sort_13-l_org)/5,36/a_162
    016154  aa   000000 000002
    016155  aa   000000 000000
    016156  aa   000000 002663
    016157  aa   000000 000242
    016160  aa   040064 040040    1485  l_456:		vfd a36/ 4  ,36/i_n,36/41,36/(l_457-l_org)/5,36/6
    016161  aa   000000 000002
    016162  aa   000000 000051
    016163  aa   000000 002661
    016164  aa   000000 000006
    016165  aa   163040 040040    1486  l_457:		vfd a36/s   ,36/i_c,36/c_seqfil,36/(sort_9-l_org)/5,36/0
    016166  aa   000000 000001
    016167  aa   000000 000065
    016170  aa   000000 002645
    016171  aa   000000 000000
    016172  aa   040040 040040    1487  		vfd a36/    ,36/i_n,36/301,36/(rtwo-l_org)/5,36/0
    016173  aa   000000 000002
    016174  aa   000000 000455
    016175  aa   000000 004060
    016176  aa   000000 000000
    016177  aa   163040 040040    1488  	sort_13:	vfd a36/s   ,36/i_r,36/r_output,36/(l_458-l_org)/5,36/0
    016200  aa   000000 000000
    016201  aa   000000 000211
    016202  aa   000000 002666
    016203  aa   000000 000000
    016204  aa   163040 040040    1489  		vfd a36/s   ,36/i_r,36/r_giving,36/(sort_10-l_org)/5,36/0
    016205  aa   000000 000000
    016206  aa   000000 000160
    016207  aa   000000 002700
    016210  aa   000000 000000
    016211  aa   040040 040040    1490  		vfd a36/    ,36/i_n,36/094,36/(rtwo-l_org)/5,36/0
    016212  aa   000000 000002
    016213  aa   000000 000136
    016214  aa   000000 004060
    016215  aa   000000 000000
    016216  aa   163040 040040    1491  l_458:		vfd a36/s   ,36/i_r,36/r_procedure,36/(l_459-l_org)/5,36/0
    016217  aa   000000 000000
    016220  aa   000000 000216
    016221  aa   000000 002670
    016222  aa   000000 000000
    016223  aa   040040 040040    1492  		vfd a36/    ,36/i_n,36/001,36/(rtwo-l_org)/5,36/0
    016224  aa   000000 000002
    016225  aa   000000 000001
    016226  aa   000000 004060
    016227  aa   000000 000000
    016230  aa   163040 040040    1493  l_459:		vfd a36/s   ,36/i_r,36/r_is,36/(l_460-l_org)/5,36/0
    016231  aa   000000 000000
    016232  aa   000000 000166
    016233  aa   000000 002671
    016234  aa   000000 000000
    016235  aa   040040 040040    1494  l_460:		vfd a36/    ,36/i_c,36/c_debug,36/(sort_18-l_org)/5,36/0
    016236  aa   000000 000001
    016237  aa   000000 000326
    016240  aa   000000 002707
    016241  aa   000000 000000
    016242  aa   163040 040040    1495  	sort_16:	vfd a36/s   ,36/i_c,36/c_descnmra,36/(l_461-l_org)/5,36/a_165
    016243  aa   000000 000001
    016244  aa   000000 000043
    016245  aa   000000 002674
    016246  aa   000000 000245
    016247  aa   040040 040040    1496  		vfd a36/    ,36/i_n,36/67,36/(rtwo-l_org)/5,36/0
    016250  aa   000000 000002
    016251  aa   000000 000103
    016252  aa   000000 004060
    016253  aa   000000 000000
    016254  aa   163040 040040    1497  l_461:		vfd a36/s   ,36/i_r,36/r_thru,36/(l_462-l_org)/5,36/0
    016255  aa   000000 000000
    016256  aa   000000 000246
    016257  aa   000000 002676
    016260  aa   000000 000000
    016261  aa   040040 040040    1498  		vfd a36/    ,36/i_n,36/0,36/(verb1-l_org)/5,36/a_169
    016262  aa   000000 000002
    016263  aa   000000 000000
    016264  aa   000000 003640
    016265  aa   000000 000251
    016266  aa   163040 040040    1499  l_462:		vfd a36/s   ,36/i_c,36/c_descnmra,36/(verb1-l_org)/5,36/a_168
    016267  aa   000000 000001
    016270  aa   000000 000043
    016271  aa   000000 003640
    016272  aa   000000 000250
    016273  aa   040040 040040    1500  		vfd a36/    ,36/i_n,36/67,36/(rtwo-l_org)/5,36/0
    016274  aa   000000 000002
    016275  aa   000000 000103
    016276  aa   000000 004060
    016277  aa   000000 000000
    016300  aa   040040 040040    1501  	sort_10:	vfd a36/    ,36/i_c,36/c_filenm,36/(l_463-l_org)/5,36/a_157
    016301  aa   000000 000001
    016302  aa   000000 000005
    016303  aa   000000 002702
    016304  aa   000000 000235
    016305  aa   040040 040040    1502  		vfd a36/    ,36/i_n,36/031,36/(rtwo-l_org)/5,36/0
    016306  aa   000000 000002
    016307  aa   000000 000037
    016310  aa   000000 004060
    016311  aa   000000 000000
    016312  aa   163040 040040    1503  l_463:		vfd a36/s   ,36/i_c,36/c_seqfil,36/(l_464-l_org)/5,36/0
    016313  aa   000000 000001
    016314  aa   000000 000065
    016315  aa   000000 002704
    016316  aa   000000 000000
    016317  aa   040040 040040    1504  		vfd a36/    ,36/i_n,36/301,36/(rtwo-l_org)/5,36/0
    016320  aa   000000 000002
    016321  aa   000000 000455
    016322  aa   000000 004060
    016323  aa   000000 000000
    016324  aa   163040 040040    1505  l_464:		vfd a36/s   ,36/i_n,36/0,36/(verb1-l_org)/5,36/a_158
    016325  aa   000000 000002
    016326  aa   000000 000000
    016327  aa   000000 003640
    016330  aa   000000 000236
    016331  aa   040040 040040    1506  	sort_17:	vfd a36/    ,36/i_s,36/(is_imp-l_org)/5,36/(sort_15-l_org)/5,36/0
    016332  aa   000000 000003
    016333  aa   000000 003621
    016334  aa   000000 002650
    016335  aa   000000 000000
    016336  aa   040040 040040    1507  		vfd a36/    ,36/i_n,36/0,36/(sort_15-l_org)/5,36/0
    016337  aa   000000 000002
    016340  aa   000000 000000
    016341  aa   000000 002650
    016342  aa   000000 000000
    016343  aa   040040 040040    1508  	sort_18:	vfd a36/    ,36/i_s,36/(is_imp-l_org)/5,36/(sort_16-l_org)/5,36/0
    016344  aa   000000 000003
    016345  aa   000000 003621
    016346  aa   000000 002672
    016347  aa   000000 000000
    016350  aa   040040 040040    1509  		vfd a36/    ,36/i_n,36/0,36/(sort_16-l_org)/5,36/0
    016351  aa   000000 000002
    016352  aa   000000 000000
    016353  aa   000000 002672
    016354  aa   000000 000000
    016355  aa   163157 040040    1510  	start:	vfd a36/so  ,36/i_r,36/r_start,36/(l_465-l_org)/5,36/a_44
    016356  aa   000000 000000
    016357  aa   000000 000070
    016360  aa   000000 002712
    016361  aa   000000 000054
    016362  aa   040157 040040    1511  l_465:		vfd a36/ o  ,36/i_c,36/c_filenm,36/(l_466-l_org)/5,36/a_28
    016363  aa   000000 000001
    016364  aa   000000 000005
    016365  aa   000000 002714
    016366  aa   000000 000034
    016367  aa   040040 040040    1512  		vfd a36/    ,36/i_n,36/031,36/(rtwo-l_org)/5,36/0
    016370  aa   000000 000002
    016371  aa   000000 000037
    016372  aa   000000 004060
    016373  aa   000000 000000
    016374  aa   040040 040040    1513  l_466:		vfd a36/    ,36/i_c,36/c_ixfil,36/(l_467-l_org)/5,36/a_288
    016375  aa   000000 000001
    016376  aa   000000 000024
    016377  aa   000000 002715
    016400  aa   000000 000440
    016401  aa   040040 040040    1514  l_467:		vfd a36/    ,36/i_n,36/0,36/(l_468-l_org)/5,36/a_12
    016402  aa   000000 000002
    016403  aa   000000 000000
    016404  aa   000000 002717
    016405  aa   000000 000014
    016406  aa   040040 040040    1515  		vfd a36/    ,36/i_n,36/031,36/(rtwo-l_org)/5,36/0
    016407  aa   000000 000002
    016410  aa   000000 000037
    016411  aa   000000 004060
    016412  aa   000000 000000
    016413  aa   040040 040040    1516  l_468:		vfd a36/    ,36/i_n,36/272,36/(rtwo-l_org)/5,36/0
    016414  aa   000000 000002
    016415  aa   000000 000420
    016416  aa   000000 004060
    016417  aa   000000 000000
    016420  aa   040063 040040    1517  		vfd a36/ 3  ,36/i_n,36/95,36/(l_469-l_org)/5,36/18
    016421  aa   000000 000002
    016422  aa   000000 000137
    016423  aa   000000 002724
    016424  aa   000000 000022
    016425  aa   040064 040040    1518  		vfd a36/ 4  ,36/i_n,36/95,36/(l_469-l_org)/5,36/20
    016426  aa   000000 000002
    016427  aa   000000 000137
    016430  aa   000000 002724
    016431  aa   000000 000024
    016432  aa   040040 040040    1519  		vfd a36/    ,36/i_n,36/32,36/(rtwo-l_org)/5,36/0
    016433  aa   000000 000002
    016434  aa   000000 000040
    016435  aa   000000 004060
    016436  aa   000000 000000
    016437  aa   040040 040040    1520  		vfd a36/    ,36/i_n,36/272,36/(rtwo-l_org)/5,36/0
    016440  aa   000000 000002
    016441  aa   000000 000420
    016442  aa   000000 004060
    016443  aa   000000 000000
    016444  aa   163040 040040    1521  l_469:		vfd a36/s   ,36/i_c,36/c_ixrlsqdy,36/(l_470-l_org)/5,36/a_262
    016445  aa   000000 000001
    016446  aa   000000 000233
    016447  aa   000000 002726
    016450  aa   000000 000406
    016451  aa   040040 040040    1522  		vfd a36/    ,36/i_n,36/227,36/(rtwo-l_org)/5,36/0
    016452  aa   000000 000002
    016453  aa   000000 000343
    016454  aa   000000 004060
    016455  aa   000000 000000
    016456  aa   163040 040040    1523  l_470:		vfd a36/s   ,36/i_r,36/r_key,36/(sta3-l_org)/5,36/a_21
    016457  aa   000000 000000
    016460  aa   000000 000170
    016461  aa   000000 002737
    016462  aa   000000 000025
    016463  aa   040040 040040    1524  	sta9:	vfd a36/    ,36/i_s,36/(nik-l_org)/5,36/(sta2-l_org)/5,36/0
    016464  aa   000000 000003
    016465  aa   000000 003677
    016466  aa   000000 002734
    016467  aa   000000 000000
    016470  aa   040040 040040    1525  		vfd a36/    ,36/i_c,36/c_useformds,36/(l_471-l_org)/5,36/a_3
    016471  aa   000000 000001
    016472  aa   000000 000261
    016473  aa   000000 002732
    016474  aa   000000 000003
    016475  aa   040040 040040    1526  		vfd a36/    ,36/i_n,36/111,36/(rtwo-l_org)/5,36/0
    016476  aa   000000 000002
    016477  aa   000000 000157
    016500  aa   000000 004060
    016501  aa   000000 000000
    016502  aa   163040 040040    1527  l_471:	sta4:	vfd a36/s   ,36/i_r,36/r_end_start,36/(verb1-l_org)/5,36/a_312
    016503  aa   000000 000000
    016504  aa   000000 000740
    016505  aa   000000 003640
    016506  aa   000000 000470
    016507  aa   040040 040040    1528  		vfd a36/    ,36/i_n,36/0,36/(verb1-l_org)/5,36/a_312
    016510  aa   000000 000002
    016511  aa   000000 000000
    016512  aa   000000 003640
    016513  aa   000000 000470
    016514  aa   040040 040040    1529  	sta2:	vfd a36/    ,36/i_s,36/(iki-l_org)/5,36/(l_472-l_org)/5,36/0
    016515  aa   000000 000003
    016516  aa   000000 003704
    016517  aa   000000 002735
    016520  aa   000000 000000
    016521  aa   163040 040040    1530  l_472:		vfd a36/s   ,36/i_r,36/r_end_start,36/(verb1-l_org)/5,36/a_266
    016522  aa   000000 000000
    016523  aa   000000 000740
    016524  aa   000000 003640
    016525  aa   000000 000412
    016526  aa   040040 040040    1531  		vfd a36/    ,36/i_n,36/0,36/(verb1-l_org)/5,36/a_310
    016527  aa   000000 000002
    016530  aa   000000 000000
    016531  aa   000000 003640
    016532  aa   000000 000466
    016533  aa   163040 040040    1532  	sta3:	vfd a36/s   ,36/i_r,36/r_is,36/(l_473-l_org)/5,36/0
    016534  aa   000000 000000
    016535  aa   000000 000166
    016536  aa   000000 002740
    016537  aa   000000 000000
    016540  aa   163040 040040    1533  l_473:		vfd a36/s   ,36/i_r,36/r_eq,36/(l_474-l_org)/5,36/0
    016541  aa   000000 000000
    016542  aa   000000 000146
    016543  aa   000000 002744
    016544  aa   000000 000000
    016545  aa   163040 040040    1534  		vfd a36/s   ,36/i_r,36/r_gt,36/(sta8-l_org)/5,36/a_120
    016546  aa   000000 000000
    016547  aa   000000 000161
    016550  aa   000000 002751
    016551  aa   000000 000170
    016552  aa   163040 040040    1535  		vfd a36/s   ,36/i_r,36/r_not,36/(sta6-l_org)/5,36/0
    016553  aa   000000 000000
    016554  aa   000000 000202
    016555  aa   000000 002747
    016556  aa   000000 000000
    016557  aa   040040 040040    1536  		vfd a36/    ,36/i_n,36/228,36/(rtwo-l_org)/5,36/0
    016560  aa   000000 000002
    016561  aa   000000 000344
    016562  aa   000000 004060
    016563  aa   000000 000000
    016564  aa   163040 040040    1537  l_474:		vfd a36/s   ,36/i_r,36/r_to,36/(l_475-l_org)/5,36/0
    016565  aa   000000 000000
    016566  aa   000000 000252
    016567  aa   000000 002745
    016570  aa   000000 000000
    016571  aa   040040 040040    1538  l_475:	sta7:	vfd a36/    ,36/i_c,36/c_undana,36/(sta11-l_org)/5,36/0
    016572  aa   000000 000001
    016573  aa   000000 000111
    016574  aa   000000 002753
    016575  aa   000000 000000
    016576  aa   040040 040040    1539  		vfd a36/    ,36/i_n,36/185,36/(rtwo-l_org)/5,36/0
    016577  aa   000000 000002
    016600  aa   000000 000271
    016601  aa   000000 004060
    016602  aa   000000 000000
    016603  aa   163040 040040    1540  	sta6:	vfd a36/s   ,36/i_r,36/r_less,36/(l_476-l_org)/5,36/a_121
    016604  aa   000000 000000
    016605  aa   000000 000173
    016606  aa   000000 002751
    016607  aa   000000 000171
    016610  aa   040040 040040    1541  		vfd a36/    ,36/i_n,36/226,36/(rtwo-l_org)/5,36/0
    016611  aa   000000 000002
    016612  aa   000000 000342
    016613  aa   000000 004060
    016614  aa   000000 000000
    016615  aa   163040 040040    1542  l_476:	sta8:	vfd a36/s   ,36/i_r,36/r_than,36/(sta7-l_org)/5,36/0
    016616  aa   000000 000000
    016617  aa   000000 000245
    016620  aa   000000 002745
    016621  aa   000000 000000
    016622  aa   040040 040040    1543  		vfd a36/    ,36/i_n,36/0,36/(sta7-l_org)/5,36/0
    016623  aa   000000 000002
    016624  aa   000000 000000
    016625  aa   000000 002745
    016626  aa   000000 000000
    016627  aa   040040 040040    1544  	sta11:	vfd a36/    ,36/i_c,36/c_relfile,36/(l_477-l_org)/5,36/0
    016630  aa   000000 000001
    016631  aa   000000 000234
    016632  aa   000000 002756
    016633  aa   000000 000000
    016634  aa   163157 040040    1545  		vfd a36/so  ,36/i_c,36/c_adrisadr,36/(sta9-l_org)/5,36/a_288
    016635  aa   000000 000001
    016636  aa   000000 000236
    016637  aa   000000 002727
    016640  aa   000000 000440
    016641  aa   040040 040040    1546  		vfd a36/    ,36/i_n,36/284,36/(rtwo-l_org)/5,36/0
    016642  aa   000000 000002
    016643  aa   000000 000434
    016644  aa   000000 004060
    016645  aa   000000 000000
    016646  aa   163157 040040    1547  l_477:		vfd a36/so  ,36/i_c,36/c_keyiskey,36/(sta9-l_org)/5,36/0
    016647  aa   000000 000001
    016650  aa   000000 000235
    016651  aa   000000 002727
    016652  aa   000000 000000
    016653  aa   040040 040040    1548  		vfd a36/    ,36/i_n,36/229,36/(rtwo-l_org)/5,36/0
    016654  aa   000000 000002
    016655  aa   000000 000345
    016656  aa   000000 004060
    016657  aa   000000 000000
    016660  aa   163157 040040    1549  	stop:	vfd a36/so  ,36/i_r,36/r_stop,36/(l_478-l_org)/5,36/a_87
    016661  aa   000000 000000
    016662  aa   000000 000041
    016663  aa   000000 002761
    016664  aa   000000 000127
    016665  aa   163157 040040    1550  l_478:		vfd a36/so  ,36/i_r,36/r_run,36/(l_479-l_org)/5,36/a_324
    016666  aa   000000 000000
    016667  aa   000000 000235
    016670  aa   000000 002765
    016671  aa   000000 000504
    016672  aa   163157 040040    1551  		vfd a36/so  ,36/i_c,36/c_lit,36/(l_479-l_org)/5,36/a_21
    016673  aa   000000 000001
    016674  aa   000000 000025
    016675  aa   000000 002765
    016676  aa   000000 000025
    016677  aa   163157 040040    1552  		vfd a36/so  ,36/i_c,36/c_figconall,36/(l_479-l_org)/5,36/a_21
    016700  aa   000000 000001
    016701  aa   000000 000026
    016702  aa   000000 002765
    016703  aa   000000 000025
    016704  aa   040040 040040    1553  		vfd a36/    ,36/i_n,36/127,36/(rtwo-l_org)/5,36/0
    016705  aa   000000 000002
    016706  aa   000000 000177
    016707  aa   000000 004060
    016710  aa   000000 000000
    016711  aa   040040 040040    1554  l_479:		vfd a36/    ,36/i_n,36/0,36/(verb1-l_org)/5,36/a_3
    016712  aa   000000 000002
    016713  aa   000000 000000
    016714  aa   000000 003640
    016715  aa   000000 000003
    016716  aa   040157 040040    1555  	string:	vfd a36/ o  ,36/i_r,36/r_string,36/(l_480-l_org)/5,36/a_42
    016717  aa   000000 000000
    016720  aa   000000 000042
    016721  aa   000000 002767
    016722  aa   000000 000052
    016723  aa   163063 040040    1556  l_480:		vfd a36/s3  ,36/i_n,36/32,36/(l_481-l_org)/5,36/2
    016724  aa   000000 000002
    016725  aa   000000 000040
    016726  aa   000000 002770
    016727  aa   000000 000002
    016730  aa   040157 040040    1557  l_481:		vfd a36/ o  ,36/i_s,36/(ident-l_org)/5,36/(l_482-l_org)/5,36/0
    016731  aa   000000 000003
    016732  aa   000000 003462
    016733  aa   000000 002774
    016734  aa   000000 000000
    016735  aa   163157 040040    1558  		vfd a36/so  ,36/i_c,36/c_nonumlit,36/(str2-l_org)/5,36/0
    016736  aa   000000 000001
    016737  aa   000000 000017
    016740  aa   000000 002776
    016741  aa   000000 000000
    016742  aa   163157 040040    1559  		vfd a36/so  ,36/i_c,36/c_figconall,36/(str2-l_org)/5,36/0
    016743  aa   000000 000001
    016744  aa   000000 000026
    016745  aa   000000 002776
    016746  aa   000000 000000
    016747  aa   040040 040040    1560  		vfd a36/    ,36/i_n,36/029,36/(rtwo-l_org)/5,36/0
    016750  aa   000000 000002
    016751  aa   000000 000035
    016752  aa   000000 004060
    016753  aa   000000 000000
    016754  aa   163040 040040    1561  l_482:	str1:	vfd a36/s   ,36/i_c,36/c_usisds,36/(l_483-l_org)/5,36/0
    016755  aa   000000 000001
    016756  aa   000000 000076
    016757  aa   000000 002776
    016760  aa   000000 000000
    016761  aa   040040 040040    1562  		vfd a36/    ,36/i_n,36/095,36/(rtwo-l_org)/5,36/0
    016762  aa   000000 000002
    016763  aa   000000 000137
    016764  aa   000000 004060
    016765  aa   000000 000000
    016766  aa   040157 040040    1563  l_483:	str2:	vfd a36/ o  ,36/i_s,36/(ident-l_org)/5,36/(str1-l_org)/5,36/0
    016767  aa   000000 000003
    016770  aa   000000 003462
    016771  aa   000000 002774
    016772  aa   000000 000000
    016773  aa   163157 040040    1564  		vfd a36/so  ,36/i_r,36/r_delimited,36/(l_484-l_org)/5,36/0
    016774  aa   000000 000000
    016775  aa   000000 000132
    016776  aa   000000 003003
    016777  aa   000000 000000
    017000  aa   163157 040040    1565  		vfd a36/so  ,36/i_c,36/c_nonumlit,36/(str2-l_org)/5,36/0
    017001  aa   000000 000001
    017002  aa   000000 000017
    017003  aa   000000 002776
    017004  aa   000000 000000
    017005  aa   163157 040040    1566  		vfd a36/so  ,36/i_c,36/c_figconall,36/(str2-l_org)/5,36/0
    017006  aa   000000 000001
    017007  aa   000000 000026
    017010  aa   000000 002776
    017011  aa   000000 000000
    017012  aa   040040 040040    1567  		vfd a36/    ,36/i_n,36/096,36/(rtwo-l_org)/5,36/0
    017013  aa   000000 000002
    017014  aa   000000 000140
    017015  aa   000000 004060
    017016  aa   000000 000000
    017017  aa   163040 040040    1568  l_484:		vfd a36/s   ,36/i_r,36/r_by,36/(l_485-l_org)/5,36/0
    017020  aa   000000 000000
    017021  aa   000000 000122
    017022  aa   000000 003004
    017023  aa   000000 000000
    017024  aa   040157 040040    1569  l_485:		vfd a36/ o  ,36/i_s,36/(ident-l_org)/5,36/(l_486-l_org)/5,36/0
    017025  aa   000000 000003
    017026  aa   000000 003462
    017027  aa   000000 003011
    017030  aa   000000 000000
    017031  aa   163157 040040    1570  		vfd a36/so  ,36/i_r,36/r_size,36/(str4-l_org)/5,36/0
    017032  aa   000000 000000
    017033  aa   000000 000241
    017034  aa   000000 003013
    017035  aa   000000 000000
    017036  aa   163157 040040    1571  		vfd a36/so  ,36/i_c,36/c_nonumlit,36/(str4-l_org)/5,36/0
    017037  aa   000000 000001
    017040  aa   000000 000017
    017041  aa   000000 003013
    017042  aa   000000 000000
    017043  aa   163157 040040    1572  		vfd a36/so  ,36/i_c,36/c_figconall,36/(str4-l_org)/5,36/0
    017044  aa   000000 000001
    017045  aa   000000 000026
    017046  aa   000000 003013
    017047  aa   000000 000000
    017050  aa   040040 040040    1573  		vfd a36/    ,36/i_n,36/097,36/(rtwo-l_org)/5,36/0
    017051  aa   000000 000002
    017052  aa   000000 000141
    017053  aa   000000 004060
    017054  aa   000000 000000
    017055  aa   163040 040040    1574  l_486:		vfd a36/s   ,36/i_c,36/c_usisds,36/(l_487-l_org)/5,36/0
    017056  aa   000000 000001
    017057  aa   000000 000076
    017060  aa   000000 003013
    017061  aa   000000 000000
    017062  aa   040040 040040    1575  		vfd a36/    ,36/i_n,36/098,36/(rtwo-l_org)/5,36/0
    017063  aa   000000 000002
    017064  aa   000000 000142
    017065  aa   000000 004060
    017066  aa   000000 000000
    017067  aa   040157 040040    1576  l_487:	str4:	vfd a36/ o  ,36/i_s,36/(ident-l_org)/5,36/(str1-l_org)/5,36/0
    017070  aa   000000 000003
    017071  aa   000000 003462
    017072  aa   000000 002774
    017073  aa   000000 000000
    017074  aa   163157 040040    1577  		vfd a36/so  ,36/i_c,36/c_nonumlit,36/(str2-l_org)/5,36/0
    017075  aa   000000 000001
    017076  aa   000000 000017
    017077  aa   000000 002776
    017100  aa   000000 000000
    017101  aa   163157 040040    1578  		vfd a36/so  ,36/i_c,36/c_figconall,36/(str2-l_org)/5,36/0
    017102  aa   000000 000001
    017103  aa   000000 000026
    017104  aa   000000 002776
    017105  aa   000000 000000
    017106  aa   163157 040040    1579  		vfd a36/so  ,36/i_r,36/r_into,36/(l_488-l_org)/5,36/0
    017107  aa   000000 000000
    017110  aa   000000 000164
    017111  aa   000000 003020
    017112  aa   000000 000000
    017113  aa   040040 040040    1580  		vfd a36/    ,36/i_n,36/099,36/(rtwo-l_org)/5,36/0
    017114  aa   000000 000002
    017115  aa   000000 000143
    017116  aa   000000 004060
    017117  aa   000000 000000
    017120  aa   040157 040040    1581  l_488:		vfd a36/ o  ,36/i_s,36/(rid-l_org)/5,36/(l_489-l_org)/5,36/0
    017121  aa   000000 000003
    017122  aa   000000 003514
    017123  aa   000000 003022
    017124  aa   000000 000000
    017125  aa   040040 040040    1582  		vfd a36/    ,36/i_n,36/021,36/(rtwo-l_org)/5,36/0
    017126  aa   000000 000002
    017127  aa   000000 000025
    017130  aa   000000 004060
    017131  aa   000000 000000
    017132  aa   163040 040040    1583  l_489:		vfd a36/s   ,36/i_c,36/c_elneds,36/(l_490-l_org)/5,36/0
    017133  aa   000000 000001
    017134  aa   000000 000100
    017135  aa   000000 003024
    017136  aa   000000 000000
    017137  aa   040040 040040    1584  		vfd a36/    ,36/i_n,36/100,36/(rtwo-l_org)/5,36/0
    017140  aa   000000 000002
    017141  aa   000000 000144
    017142  aa   000000 004060
    017143  aa   000000 000000
    017144  aa   163040 040040    1585  l_490:		vfd a36/s   ,36/i_r,36/r_with,36/(str7-l_org)/5,36/0
    017145  aa   000000 000000
    017146  aa   000000 000263
    017147  aa   000000 003035
    017150  aa   000000 000000
    017151  aa   163040 040040    1586  		vfd a36/s   ,36/i_r,36/r_pointer,36/(str8-l_org)/5,36/a_20
    017152  aa   000000 000000
    017153  aa   000000 000214
    017154  aa   000000 003037
    017155  aa   000000 000024
    017156  aa   040040 040040    1587  	str6:	vfd a36/    ,36/i_s,36/(nov-l_org)/5,36/(str3-l_org)/5,36/0
    017157  aa   000000 000003
    017160  aa   000000 003730
    017161  aa   000000 003032
    017162  aa   000000 000000
    017163  aa   040040 040040    1588  		vfd a36/    ,36/i_n,36/0,36/(l_491-l_org)/5,36/a_3
    017164  aa   000000 000002
    017165  aa   000000 000000
    017166  aa   000000 003030
    017167  aa   000000 000003
    017170  aa   163040 040040    1589  l_491:		vfd a36/s   ,36/i_r,36/r_end_string,36/(verb1-l_org)/5,36/a_312
    017171  aa   000000 000000
    017172  aa   000000 000741
    017173  aa   000000 003640
    017174  aa   000000 000470
    017175  aa   040040 040040    1590  		vfd a36/    ,36/i_n,36/0,36/(verb1-l_org)/5,36/0
    017176  aa   000000 000002
    017177  aa   000000 000000
    017200  aa   000000 003640
    017201  aa   000000 000000
    017202  aa   040040 040040    1591  	str3:	vfd a36/    ,36/i_s,36/(ovi-l_org)/5,36/(l_492-l_org)/5,36/0
    017203  aa   000000 000003
    017204  aa   000000 003735
    017205  aa   000000 003033
    017206  aa   000000 000000
    017207  aa   163040 040040    1592  l_492:		vfd a36/s   ,36/i_r,36/r_end_string,36/(verb1-l_org)/5,36/a_266
    017210  aa   000000 000000
    017211  aa   000000 000741
    017212  aa   000000 003640
    017213  aa   000000 000412
    017214  aa   040040 040040    1593  		vfd a36/    ,36/i_n,36/0,36/(verb1-l_org)/5,36/a_310
    017215  aa   000000 000002
    017216  aa   000000 000000
    017217  aa   000000 003640
    017220  aa   000000 000466
    017221  aa   163040 040040    1594  	str7:	vfd a36/s   ,36/i_r,36/r_pointer,36/(l_493-l_org)/5,36/a_20
    017222  aa   000000 000000
    017223  aa   000000 000214
    017224  aa   000000 003037
    017225  aa   000000 000024
    017226  aa   040040 040040    1595  		vfd a36/    ,36/i_n,36/174,36/(rtwo-l_org)/5,36/0
    017227  aa   000000 000002
    017230  aa   000000 000256
    017231  aa   000000 004060
    017232  aa   000000 000000
    017233  aa   040157 040040    1596  l_493:	str8:	vfd a36/ o  ,36/i_s,36/(rid-l_org)/5,36/(l_494-l_org)/5,36/0
    017234  aa   000000 000003
    017235  aa   000000 003514
    017236  aa   000000 003041
    017237  aa   000000 000000
    017240  aa   040040 040040    1597  		vfd a36/    ,36/i_n,36/021,36/(rtwo-l_org)/5,36/0
    017241  aa   000000 000002
    017242  aa   000000 000025
    017243  aa   000000 004060
    017244  aa   000000 000000
    017245  aa   163040 040040    1598  l_494:		vfd a36/s   ,36/i_c,36/c_elnuindi,36/(str6-l_org)/5,36/0
    017246  aa   000000 000001
    017247  aa   000000 000101
    017250  aa   000000 003026
    017251  aa   000000 000000
    017252  aa   040040 040040    1599  		vfd a36/    ,36/i_n,36/101,36/(rtwo-l_org)/5,36/0
    017253  aa   000000 000002
    017254  aa   000000 000145
    017255  aa   000000 004060
    017256  aa   000000 000000
    017257  aa   163157 040040    1600  	subtract:	vfd a36/so  ,36/i_r,36/r_subtract,36/(l_495-l_org)/5,36/a_27
    017260  aa   000000 000000
    017261  aa   000000 000013
    017262  aa   000000 003044
    017263  aa   000000 000033
    017264  aa   163157 040040    1601  l_495:		vfd a36/so  ,36/i_s,36/(elnuitem-l_org)/5,36/(l_496-l_org)/5,36/a_33
    017265  aa   000000 000003
    017266  aa   000000 003551
    017267  aa   000000 003046
    017270  aa   000000 000041
    017271  aa   040040 040040    1602  		vfd a36/    ,36/i_n,36/102,36/(rtwo-l_org)/5,36/0
    017272  aa   000000 000002
    017273  aa   000000 000146
    017274  aa   000000 004060
    017275  aa   000000 000000
    017276  aa   163040 040040    1603  l_496:		vfd a36/s   ,36/i_r,36/r_from,36/(l_497-l_org)/5,36/0
    017277  aa   000000 000000
    017300  aa   000000 000157
    017301  aa   000000 003051
    017302  aa   000000 000000
    017303  aa   163157 040040    1604  		vfd a36/so  ,36/i_s,36/(elnuitem-l_org)/5,36/(l_496-l_org)/5,36/a_33
    017304  aa   000000 000003
    017305  aa   000000 003551
    017306  aa   000000 003046
    017307  aa   000000 000041
    017310  aa   040040 040040    1605  		vfd a36/    ,36/i_n,36/103,36/(rtwo-l_org)/5,36/0
    017311  aa   000000 000002
    017312  aa   000000 000147
    017313  aa   000000 004060
    017314  aa   000000 000000
    017315  aa   040040 040040    1606  l_497:		vfd a36/    ,36/i_c,36/c_altst,36/(l_498-l_org)/5,36/0
    017316  aa   000000 000001
    017317  aa   000000 000274
    017320  aa   000000 003053
    017321  aa   000000 000000
    017322  aa   040040 040040    1607  		vfd a36/    ,36/i_n,36/0,36/(sub10-l_org)/5,36/0
    017323  aa   000000 000002
    017324  aa   000000 000000
    017325  aa   000000 003054
    017326  aa   000000 000000
    017327  aa   163040 040040    1608  l_498:		vfd a36/s   ,36/i_s,36/(ident-l_org)/5,36/(sub11-l_org)/5,36/a_34
    017330  aa   000000 000003
    017331  aa   000000 003462
    017332  aa   000000 003062
    017333  aa   000000 000042
    017334  aa   163157 040040    1609  	sub10:	vfd a36/so  ,36/i_s,36/(elnuitem-l_org)/5,36/(l_499-l_org)/5,36/0
    017335  aa   000000 000003
    017336  aa   000000 003551
    017337  aa   000000 003056
    017340  aa   000000 000000
    017341  aa   040040 040040    1610  		vfd a36/    ,36/i_n,36/102,36/(rtwo-l_org)/5,36/0
    017342  aa   000000 000002
    017343  aa   000000 000146
    017344  aa   000000 004060
    017345  aa   000000 000000
    017346  aa   163040 040040    1611  l_499:		vfd a36/s   ,36/i_r,36/r_giving,36/(l_500-l_org)/5,36/a_21
    017347  aa   000000 000000
    017350  aa   000000 000160
    017351  aa   000000 003060
    017352  aa   000000 000025
    017353  aa   040040 040040    1612  		vfd a36/    ,36/i_n,36/58,36/(rtwo-l_org)/5,36/0
    017354  aa   000000 000002
    017355  aa   000000 000072
    017356  aa   000000 004060
    017357  aa   000000 000000
    017360  aa   163040 040040    1613  l_500:		vfd a36/s   ,36/i_s,36/(edalel-l_org)/5,36/(sub4-l_org)/5,36/a_34
    017361  aa   000000 000003
    017362  aa   000000 003605
    017363  aa   000000 003105
    017364  aa   000000 000042
    017365  aa   040040 040040    1614  		vfd a36/    ,36/i_n,36/26,36/(rtwo-l_org)/5,36/0
    017366  aa   000000 000002
    017367  aa   000000 000032
    017370  aa   000000 004060
    017371  aa   000000 000000
    017372  aa   163040 040040    1615  	sub11:	vfd a36/s   ,36/i_r,36/r_giving,36/(l_501-l_org)/5,36/a_75
    017373  aa   000000 000000
    017374  aa   000000 000160
    017375  aa   000000 003065
    017376  aa   000000 000113
    017377  aa   040040 040040    1616  		vfd a36/    ,36/i_c,36/c_csstst,36/(sub1-l_org)/5,36/0
    017400  aa   000000 000001
    017401  aa   000000 000276
    017402  aa   000000 003067
    017403  aa   000000 000000
    017404  aa   040040 040040    1617  		vfd a36/    ,36/i_n,36/0,36/(sub1-l_org)/5,36/a_278
    017405  aa   000000 000002
    017406  aa   000000 000000
    017407  aa   000000 003067
    017410  aa   000000 000426
    017411  aa   163040 040040    1618  l_501:		vfd a36/s   ,36/i_s,36/(edalel-l_org)/5,36/(sub4-l_org)/5,36/a_28
    017412  aa   000000 000003
    017413  aa   000000 003605
    017414  aa   000000 003105
    017415  aa   000000 000034
    017416  aa   040040 040040    1619  		vfd a36/    ,36/i_n,36/021,36/(rtwo-l_org)/5,36/0
    017417  aa   000000 000002
    017420  aa   000000 000025
    017421  aa   000000 004060
    017422  aa   000000 000000
    017423  aa   163040 040040    1620  	sub1:	vfd a36/s   ,36/i_r,36/r_rounded,36/(l_502-l_org)/5,36/a_267
    017424  aa   000000 000000
    017425  aa   000000 000234
    017426  aa   000000 003071
    017427  aa   000000 000413
    017430  aa   040040 040040    1621  		vfd a36/    ,36/i_n,36/0,36/(l_502-l_org)/5,36/a_268
    017431  aa   000000 000002
    017432  aa   000000 000000
    017433  aa   000000 003071
    017434  aa   000000 000414
    017435  aa   040040 040040    1622  l_502:		vfd a36/    ,36/i_c,36/c_sterm,36/(sub12-l_org)/5,36/a_3
    017436  aa   000000 000001
    017437  aa   000000 000135
    017440  aa   000000 003075
    017441  aa   000000 000003
    017442  aa   040040 040040    1623  l_503:		vfd a36/    ,36/i_s,36/(alel-l_org)/5,36/(sub5-l_org)/5,36/a_269
    017443  aa   000000 000003
    017444  aa   000000 003577
    017445  aa   000000 003102
    017446  aa   000000 000415
    017447  aa   040040 040040    1624  l_504:		vfd a36/    ,36/i_s,36/(nos-l_org)/5,36/(sub13-l_org)/5,36/a_87
    017450  aa   000000 000003
    017451  aa   000000 003763
    017452  aa   000000 003077
    017453  aa   000000 000127
    017454  aa   040040 040040    1625  		vfd a36/    ,36/i_n,36/0,36/(l_505-l_org)/5,36/a_102
    017455  aa   000000 000002
    017456  aa   000000 000000
    017457  aa   000000 003075
    017460  aa   000000 000146
    017461  aa   163040 040040    1626  l_505:	sub12:	vfd a36/s   ,36/i_r,36/r_end_subtract,36/(verb1-l_org)/5,36/a_312
    017462  aa   000000 000000
    017463  aa   000000 000742
    017464  aa   000000 003640
    017465  aa   000000 000470
    017466  aa   040040 040040    1627  		vfd a36/    ,36/i_n,36/0,36/(verb1-l_org)/5,36/0
    017467  aa   000000 000002
    017470  aa   000000 000000
    017471  aa   000000 003640
    017472  aa   000000 000000
    017473  aa   040040 040040    1628  	sub13:	vfd a36/    ,36/i_s,36/(osi-l_org)/5,36/(l_506-l_org)/5,36/0
    017474  aa   000000 000003
    017475  aa   000000 003770
    017476  aa   000000 003100
    017477  aa   000000 000000
    017500  aa   163040 040040    1629  l_506:		vfd a36/s   ,36/i_r,36/r_end_subtract,36/(verb1-l_org)/5,36/a_266
    017501  aa   000000 000000
    017502  aa   000000 000742
    017503  aa   000000 003640
    017504  aa   000000 000412
    017505  aa   040040 040040    1630  		vfd a36/    ,36/i_n,36/0,36/(verb1-l_org)/5,36/a_310
    017506  aa   000000 000002
    017507  aa   000000 000000
    017510  aa   000000 003640
    017511  aa   000000 000466
    017512  aa   163063 040040    1631  	sub5:	vfd a36/s3  ,36/i_n,36/23,36/(l_507-l_org)/5,36/2
    017513  aa   000000 000002
    017514  aa   000000 000027
    017515  aa   000000 003103
    017516  aa   000000 000002
    017517  aa   040040 040040    1632  l_507:		vfd a36/    ,36/i_c,36/c_sterm,36/(sub12-l_org)/5,36/a_102
    017520  aa   000000 000001
    017521  aa   000000 000135
    017522  aa   000000 003075
    017523  aa   000000 000146
    017524  aa   040040 040040    1633  		vfd a36/    ,36/i_n,36/0,36/(sub1-l_org)/5,36/0
    017525  aa   000000 000002
    017526  aa   000000 000000
    017527  aa   000000 003067
    017530  aa   000000 000000
    017531  aa   163040 040040    1634  	sub4:	vfd a36/s   ,36/i_r,36/r_rounded,36/(l_508-l_org)/5,36/a_267
    017532  aa   000000 000000
    017533  aa   000000 000234
    017534  aa   000000 003107
    017535  aa   000000 000413
    017536  aa   040040 040040    1635  		vfd a36/    ,36/i_n,36/0,36/(l_508-l_org)/5,36/a_268
    017537  aa   000000 000002
    017540  aa   000000 000000
    017541  aa   000000 003107
    017542  aa   000000 000414
    017543  aa   040040 040040    1636  l_508:		vfd a36/    ,36/i_s,36/(edalel-l_org)/5,36/(l_509-l_org)/5,36/a_269
    017544  aa   000000 000003
    017545  aa   000000 003605
    017546  aa   000000 003112
    017547  aa   000000 000415
    017550  aa   040040 040040    1637  		vfd a36/    ,36/i_s,36/(nos-l_org)/5,36/(sub13-l_org)/5,36/0
    017551  aa   000000 000003
    017552  aa   000000 003763
    017553  aa   000000 003077
    017554  aa   000000 000000
    017555  aa   040040 040040    1638  		vfd a36/    ,36/i_n,36/0,36/(sub12-l_org)/5,36/a_3
    017556  aa   000000 000002
    017557  aa   000000 000000
    017560  aa   000000 003075
    017561  aa   000000 000003
    017562  aa   163063 040040    1639  l_509:		vfd a36/s3  ,36/i_n,36/23,36/(sub4-l_org)/5,36/2
    017563  aa   000000 000002
    017564  aa   000000 000027
    017565  aa   000000 003105
    017566  aa   000000 000002
    017567  aa   163157 040040    1640  	suspend:	vfd a36/so  ,36/i_r,36/r_suspend,36/(l_510-l_org)/5,36/a_87
    017570  aa   000000 000000
    017571  aa   000000 000043
    017572  aa   000000 003114
    017573  aa   000000 000127
    017574  aa   163157 040040    1641  l_510:	sus1:	vfd a36/so  ,36/i_c,36/c_file,36/(sus3-l_org)/5,36/0
    017575  aa   000000 000001
    017576  aa   000000 000103
    017577  aa   000000 003117
    017600  aa   000000 000000
    017601  aa   163157 040040    1642  	sus2:	vfd a36/so  ,36/i_c,36/c_repnm,36/(l_511-l_org)/5,36/0
    017602  aa   000000 000001
    017603  aa   000000 000033
    017604  aa   000000 003117
    017605  aa   000000 000000
    017606  aa   040040 040040    1643  		vfd a36/    ,36/i_n,36/194,36/(rtwo-l_org)/5,36/0
    017607  aa   000000 000002
    017610  aa   000000 000302
    017611  aa   000000 004060
    017612  aa   000000 000000
    017613  aa   163157 040040    1644  l_511:	sus3:	vfd a36/so  ,36/i_c,36/c_lit,36/(l_512-l_org)/5,36/a_4
    017614  aa   000000 000001
    017615  aa   000000 000025
    017616  aa   000000 003121
    017617  aa   000000 000004
    017620  aa   163157 040040    1645  		vfd a36/so  ,36/i_s,36/(ident-l_org)/5,36/(l_512-l_org)/5,36/a_4
    017621  aa   000000 000003
    017622  aa   000000 003462
    017623  aa   000000 003121
    017624  aa   000000 000004
    017625  aa   040040 040040    1646  l_512:		vfd a36/    ,36/i_c,36/c_file,36/(sus1-l_org)/5,36/a_123
    017626  aa   000000 000001
    017627  aa   000000 000103
    017630  aa   000000 003114
    017631  aa   000000 000173
    017632  aa   040040 040040    1647  		vfd a36/    ,36/i_c,36/c_repnm,36/(sus2-l_org)/5,36/a_123
    017633  aa   000000 000001
    017634  aa   000000 000033
    017635  aa   000000 003115
    017636  aa   000000 000173
    017637  aa   040040 040040    1648  		vfd a36/    ,36/i_n,36/0,36/(verb1-l_org)/5,36/a_3
    017640  aa   000000 000002
    017641  aa   000000 000000
    017642  aa   000000 003640
    017643  aa   000000 000003
    017644  aa   040040 040040    1649  	terminate:	vfd a36/    ,36/i_r,36/r_terminate,36/(l_513-l_org)/5,36/a_87
    017645  aa   000000 000000
    017646  aa   000000 000044
    017647  aa   000000 003125
    017650  aa   000000 000127
    017651  aa   163064 040040    1650  l_513:		vfd a36/s4  ,36/i_n,36/90,36/(init_1-l_org)/5,36/21
    017652  aa   000000 000002
    017653  aa   000000 000132
    017654  aa   000000 001301
    017655  aa   000000 000025
    017656  aa   040040 040040    1651  	rep_nam:	vfd a36/    ,36/i_c,36/c_prnm,36/(l_514-l_org)/5,36/a_111
    017657  aa   000000 000001
    017660  aa   000000 000016
    017661  aa   000000 003130
    017662  aa   000000 000157
    017663  aa   040040 040040    1652  		vfd a36/    ,36/i_n,36/0,36/(fail-l_org)/5,36/0
    017664  aa   000000 000002
    017665  aa   000000 000000
    017666  aa   000000 004111
    017667  aa   000000 000000
    017670  aa   163157 040040    1653  l_514:		vfd a36/so  ,36/i_n,36/0,36/(l_515-l_org)/5,36/a_28
    017671  aa   000000 000002
    017672  aa   000000 000000
    017673  aa   000000 003131
    017674  aa   000000 000034
    017675  aa   040040 040040    1654  l_515:		vfd a36/    ,36/i_n,36/0,36/(l_516-l_org)/5,36/a_144
    017676  aa   000000 000002
    017677  aa   000000 000000
    017700  aa   000000 003132
    017701  aa   000000 000220
    017702  aa   040040 040040    1655  l_516:		vfd a36/    ,36/i_n,36/0,36/(l_517-l_org)/5,36/a_32
    017703  aa   000000 000002
    017704  aa   000000 000000
    017705  aa   000000 003133
    017706  aa   000000 000040
    017707  aa   040040 040040    1656  l_517:		vfd a36/    ,36/i_n,36/0,36/(succ-l_org)/5,36/a_124
    017710  aa   000000 000002
    017711  aa   000000 000000
    017712  aa   000000 004110
    017713  aa   000000 000174
    017714  aa   040157 040040    1657  	unstring:	vfd a36/ o  ,36/i_r,36/r_unstring,36/(l_518-l_org)/5,36/a_42
    017715  aa   000000 000000
    017716  aa   000000 000045
    017717  aa   000000 003135
    017720  aa   000000 000052
    017721  aa   163063 040040    1658  l_518:		vfd a36/s3  ,36/i_n,36/33,36/(l_519-l_org)/5,36/2
    017722  aa   000000 000002
    017723  aa   000000 000041
    017724  aa   000000 003136
    017725  aa   000000 000002
    017726  aa   040157 040040    1659  l_519:		vfd a36/ o  ,36/i_s,36/(ident-l_org)/5,36/(l_520-l_org)/5,36/0
    017727  aa   000000 000003
    017730  aa   000000 003462
    017731  aa   000000 003140
    017732  aa   000000 000000
    017733  aa   040040 040040    1660  		vfd a36/    ,36/i_n,36/021,36/(rtwo-l_org)/5,36/0
    017734  aa   000000 000002
    017735  aa   000000 000025
    017736  aa   000000 004060
    017737  aa   000000 000000
    017740  aa   163040 040040    1661  l_520:		vfd a36/s   ,36/i_c,36/c_andait,36/(l_521-l_org)/5,36/0
    017741  aa   000000 000001
    017742  aa   000000 000104
    017743  aa   000000 003142
    017744  aa   000000 000000
    017745  aa   040040 040040    1662  		vfd a36/    ,36/i_n,36/105,36/(rtwo-l_org)/5,36/0
    017746  aa   000000 000002
    017747  aa   000000 000151
    017750  aa   000000 004060
    017751  aa   000000 000000
    017752  aa   163040 040040    1663  l_521:		vfd a36/s   ,36/i_r,36/r_delimited,36/(l_522-l_org)/5,36/0
    017753  aa   000000 000000
    017754  aa   000000 000132
    017755  aa   000000 003145
    017756  aa   000000 000000
    017757  aa   163040 040040    1664  		vfd a36/s   ,36/i_r,36/r_into,36/(un2-l_org)/5,36/0
    017760  aa   000000 000000
    017761  aa   000000 000164
    017762  aa   000000 003155
    017763  aa   000000 000000
    017764  aa   040040 040040    1665  		vfd a36/    ,36/i_n,36/106,36/(rtwo-l_org)/5,36/0
    017765  aa   000000 000002
    017766  aa   000000 000152
    017767  aa   000000 004060
    017770  aa   000000 000000
    017771  aa   163040 040040    1666  l_522:		vfd a36/s   ,36/i_r,36/r_by,36/(l_523-l_org)/5,36/0
    017772  aa   000000 000000
    017773  aa   000000 000122
    017774  aa   000000 003146
    017775  aa   000000 000000
    017776  aa   040157 040040    1667  l_523:	un1:	vfd a36/ o  ,36/i_r,36/r_all,36/(un9-l_org)/5,36/0
    017777  aa   000000 000000
    020000  aa   000000 000111
    020001  aa   000000 003227
    020002  aa   000000 000000
    020003  aa   163157 040040    1668  	un14:	vfd a36/so  ,36/i_s,36/(nonumid-l_org)/5,36/(l_524-l_org)/5,36/a_8
    020004  aa   000000 000003
    020005  aa   000000 003522
    020006  aa   000000 003152
    020007  aa   000000 000010
    020010  aa   163157 040040    1669  		vfd a36/so  ,36/i_c,36/c_figconall,36/(l_524-l_org)/5,36/a_8
    020011  aa   000000 000001
    020012  aa   000000 000026
    020013  aa   000000 003152
    020014  aa   000000 000010
    020015  aa   040040 040040    1670  		vfd a36/    ,36/i_n,36/233,36/(rtwo-l_org)/5,36/0
    020016  aa   000000 000002
    020017  aa   000000 000351
    020020  aa   000000 004060
    020021  aa   000000 000000
    020022  aa   163040 040040    1671  l_524:		vfd a36/s   ,36/i_r,36/r_or,36/(un1-l_org)/5,36/0
    020023  aa   000000 000000
    020024  aa   000000 000207
    020025  aa   000000 003146
    020026  aa   000000 000000
    020027  aa   163040 040040    1672  		vfd a36/s   ,36/i_r,36/r_into,36/(l_525-l_org)/5,36/0
    020030  aa   000000 000000
    020031  aa   000000 000164
    020032  aa   000000 003155
    020033  aa   000000 000000
    020034  aa   040040 040040    1673  		vfd a36/    ,36/i_n,36/234,36/(rtwo-l_org)/5,36/0
    020035  aa   000000 000002
    020036  aa   000000 000352
    020037  aa   000000 004060
    020040  aa   000000 000000
    020041  aa   040157 040040    1674  l_525:	un2:	vfd a36/ o  ,36/i_s,36/(rid-l_org)/5,36/(l_526-l_org)/5,36/0
    020042  aa   000000 000003
    020043  aa   000000 003514
    020044  aa   000000 003157
    020045  aa   000000 000000
    020046  aa   040040 040040    1675  		vfd a36/    ,36/i_n,36/021,36/(rtwo-l_org)/5,36/0
    020047  aa   000000 000002
    020050  aa   000000 000025
    020051  aa   000000 004060
    020052  aa   000000 000000
    020053  aa   163040 040040    1676  l_526:	un3:	vfd a36/s   ,36/i_s,36/(usnoned-l_org)/5,36/(l_527-l_org)/5,36/a_78
    020054  aa   000000 000003
    020055  aa   000000 003527
    020056  aa   000000 003161
    020057  aa   000000 000116
    020060  aa   040040 040040    1677  		vfd a36/    ,36/i_n,36/235,36/(rtwo-l_org)/5,36/0
    020061  aa   000000 000002
    020062  aa   000000 000353
    020063  aa   000000 004060
    020064  aa   000000 000000
    020065  aa   163157 040040    1678  l_527:		vfd a36/so  ,36/i_r,36/r_delimiter,36/(un8-l_org)/5,36/0
    020066  aa   000000 000000
    020067  aa   000000 000133
    020070  aa   000000 003176
    020071  aa   000000 000000
    020072  aa   163157 040040    1679  	un4:	vfd a36/so  ,36/i_r,36/r_count,36/(un10-l_org)/5,36/0
    020073  aa   000000 000000
    020074  aa   000000 000124
    020075  aa   000000 003205
    020076  aa   000000 000000
    020077  aa   040157 040040    1680  	un5:	vfd a36/ o  ,36/i_s,36/(rid-l_org)/5,36/(un3-l_org)/5,36/0
    020100  aa   000000 000003
    020101  aa   000000 003514
    020102  aa   000000 003157
    020103  aa   000000 000000
    020104  aa   163040 040040    1681  		vfd a36/s   ,36/i_r,36/r_with,36/(un11-l_org)/5,36/0
    020105  aa   000000 000000
    020106  aa   000000 000263
    020107  aa   000000 003214
    020110  aa   000000 000000
    020111  aa   163040 040040    1682  		vfd a36/s   ,36/i_r,36/r_pointer,36/(un12-l_org)/5,36/a_121
    020112  aa   000000 000000
    020113  aa   000000 000214
    020114  aa   000000 003216
    020115  aa   000000 000171
    020116  aa   163040 040040    1683  	un6:	vfd a36/s   ,36/i_r,36/r_tallying,36/(un13-l_org)/5,36/a_20
    020117  aa   000000 000000
    020120  aa   000000 000243
    020121  aa   000000 003222
    020122  aa   000000 000024
    020123  aa   040040 040040    1684  	un7:	vfd a36/    ,36/i_s,36/(nov-l_org)/5,36/(un15-l_org)/5,36/0
    020124  aa   000000 000003
    020125  aa   000000 003730
    020126  aa   000000 003173
    020127  aa   000000 000000
    020130  aa   040040 040040    1685  		vfd a36/    ,36/i_n,36/0,36/(l_528-l_org)/5,36/a_3
    020131  aa   000000 000002
    020132  aa   000000 000000
    020133  aa   000000 003171
    020134  aa   000000 000003
    020135  aa   163040 040040    1686  l_528:		vfd a36/s   ,36/i_r,36/r_end_unstring,36/(verb1-l_org)/5,36/a_312
    020136  aa   000000 000000
    020137  aa   000000 000743
    020140  aa   000000 003640
    020141  aa   000000 000470
    020142  aa   040040 040040    1687  		vfd a36/    ,36/i_n,36/0,36/(verb1-l_org)/5,36/0
    020143  aa   000000 000002
    020144  aa   000000 000000
    020145  aa   000000 003640
    020146  aa   000000 000000
    020147  aa   040040 040040    1688  	un15:	vfd a36/    ,36/i_s,36/(ovi-l_org)/5,36/(l_529-l_org)/5,36/0
    020150  aa   000000 000003
    020151  aa   000000 003735
    020152  aa   000000 003174
    020153  aa   000000 000000
    020154  aa   163040 040040    1689  l_529:		vfd a36/s   ,36/i_r,36/r_end_unstring,36/(verb1-l_org)/5,36/a_266
    020155  aa   000000 000000
    020156  aa   000000 000743
    020157  aa   000000 003640
    020160  aa   000000 000412
    020161  aa   040040 040040    1690  		vfd a36/    ,36/i_n,36/0,36/(verb1-l_org)/5,36/a_310
    020162  aa   000000 000002
    020163  aa   000000 000000
    020164  aa   000000 003640
    020165  aa   000000 000466
    020166  aa   040040 040040    1691  	un8:	vfd a36/    ,36/i_c,36/c_egrze,36/(l_530-l_org)/5,36/0
    020167  aa   000000 000001
    020170  aa   000000 000105
    020171  aa   000000 003200
    020172  aa   000000 000000
    020173  aa   040040 040040    1692  		vfd a36/    ,36/i_n,36/107,36/(rtwo-l_org)/5,36/0
    020174  aa   000000 000002
    020175  aa   000000 000153
    020176  aa   000000 004060
    020177  aa   000000 000000
    020200  aa   163040 040040    1693  l_530:		vfd a36/s   ,36/i_r,36/r_in,36/(l_531-l_org)/5,36/0
    020201  aa   000000 000000
    020202  aa   000000 000145
    020203  aa   000000 003201
    020204  aa   000000 000000
    020205  aa   040157 040040    1694  l_531:		vfd a36/ o  ,36/i_s,36/(rid-l_org)/5,36/(l_532-l_org)/5,36/0
    020206  aa   000000 000003
    020207  aa   000000 003514
    020210  aa   000000 003203
    020211  aa   000000 000000
    020212  aa   040040 040040    1695  		vfd a36/    ,36/i_n,36/021,36/(rtwo-l_org)/5,36/0
    020213  aa   000000 000002
    020214  aa   000000 000025
    020215  aa   000000 004060
    020216  aa   000000 000000
    020217  aa   163040 040040    1696  l_532:		vfd a36/s   ,36/i_c,36/c_andait,36/(un4-l_org)/5,36/0
    020220  aa   000000 000001
    020221  aa   000000 000104
    020222  aa   000000 003162
    020223  aa   000000 000000
    020224  aa   040040 040040    1697  		vfd a36/    ,36/i_n,36/105,36/(rtwo-l_org)/5,36/0
    020225  aa   000000 000002
    020226  aa   000000 000151
    020227  aa   000000 004060
    020230  aa   000000 000000
    020231  aa   040040 040040    1698  	un10:	vfd a36/    ,36/i_c,36/c_egrze,36/(l_533-l_org)/5,36/0
    020232  aa   000000 000001
    020233  aa   000000 000105
    020234  aa   000000 003207
    020235  aa   000000 000000
    020236  aa   040040 040040    1699  		vfd a36/    ,36/i_n,36/107,36/(rtwo-l_org)/5,36/0
    020237  aa   000000 000002
    020240  aa   000000 000153
    020241  aa   000000 004060
    020242  aa   000000 000000
    020243  aa   163040 040040    1700  l_533:		vfd a36/s   ,36/i_r,36/r_in,36/(l_534-l_org)/5,36/0
    020244  aa   000000 000000
    020245  aa   000000 000145
    020246  aa   000000 003210
    020247  aa   000000 000000
    020250  aa   040157 040040    1701  l_534:		vfd a36/ o  ,36/i_s,36/(rid-l_org)/5,36/(l_535-l_org)/5,36/0
    020251  aa   000000 000003
    020252  aa   000000 003514
    020253  aa   000000 003212
    020254  aa   000000 000000
    020255  aa   040040 040040    1702  		vfd a36/    ,36/i_n,36/021,36/(rtwo-l_org)/5,36/0
    020256  aa   000000 000002
    020257  aa   000000 000025
    020260  aa   000000 004060
    020261  aa   000000 000000
    020262  aa   163040 040040    1703  l_535:		vfd a36/s   ,36/i_c,36/c_elnuindi,36/(un5-l_org)/5,36/0
    020263  aa   000000 000001
    020264  aa   000000 000101
    020265  aa   000000 003163
    020266  aa   000000 000000
    020267  aa   040040 040040    1704  		vfd a36/    ,36/i_n,36/101,36/(rtwo-l_org)/5,36/0
    020270  aa   000000 000002
    020271  aa   000000 000145
    020272  aa   000000 004060
    020273  aa   000000 000000
    020274  aa   163040 040040    1705  	un11:	vfd a36/s   ,36/i_r,36/r_pointer,36/(l_536-l_org)/5,36/a_121
    020275  aa   000000 000000
    020276  aa   000000 000214
    020277  aa   000000 003216
    020300  aa   000000 000171
    020301  aa   040040 040040    1706  		vfd a36/    ,36/i_n,36/174,36/(rtwo-l_org)/5,36/0
    020302  aa   000000 000002
    020303  aa   000000 000256
    020304  aa   000000 004060
    020305  aa   000000 000000
    020306  aa   040157 040040    1707  l_536:	un12:	vfd a36/ o  ,36/i_s,36/(rid-l_org)/5,36/(l_537-l_org)/5,36/0
    020307  aa   000000 000003
    020310  aa   000000 003514
    020311  aa   000000 003220
    020312  aa   000000 000000
    020313  aa   040040 040040    1708  		vfd a36/    ,36/i_n,36/021,36/(rtwo-l_org)/5,36/0
    020314  aa   000000 000002
    020315  aa   000000 000025
    020316  aa   000000 004060
    020317  aa   000000 000000
    020320  aa   163040 040040    1709  l_537:		vfd a36/s   ,36/i_c,36/c_elnuindi,36/(un6-l_org)/5,36/0
    020321  aa   000000 000001
    020322  aa   000000 000101
    020323  aa   000000 003166
    020324  aa   000000 000000
    020325  aa   040040 040040    1710  		vfd a36/    ,36/i_n,36/101,36/(rtwo-l_org)/5,36/0
    020326  aa   000000 000002
    020327  aa   000000 000145
    020330  aa   000000 004060
    020331  aa   000000 000000
    020332  aa   163040 040040    1711  	un13:	vfd a36/s   ,36/i_r,36/r_in,36/(l_538-l_org)/5,36/0
    020333  aa   000000 000000
    020334  aa   000000 000145
    020335  aa   000000 003223
    020336  aa   000000 000000
    020337  aa   040157 040040    1712  l_538:		vfd a36/ o  ,36/i_s,36/(rid-l_org)/5,36/(l_539-l_org)/5,36/0
    020340  aa   000000 000003
    020341  aa   000000 003514
    020342  aa   000000 003225
    020343  aa   000000 000000
    020344  aa   040040 040040    1713  		vfd a36/    ,36/i_n,36/021,36/(rtwo-l_org)/5,36/0
    020345  aa   000000 000002
    020346  aa   000000 000025
    020347  aa   000000 004060
    020350  aa   000000 000000
    020351  aa   163040 040040    1714  l_539:		vfd a36/s   ,36/i_c,36/c_elnuindi,36/(un7-l_org)/5,36/0
    020352  aa   000000 000001
    020353  aa   000000 000101
    020354  aa   000000 003167
    020355  aa   000000 000000
    020356  aa   040040 040040    1715  		vfd a36/    ,36/i_n,36/101,36/(rtwo-l_org)/5,36/0
    020357  aa   000000 000002
    020360  aa   000000 000145
    020361  aa   000000 004060
    020362  aa   000000 000000
    020363  aa   163063 040040    1716  	un9:	vfd a36/s3  ,36/i_n,36/144,36/(un14-l_org)/5,36/2
    020364  aa   000000 000002
    020365  aa   000000 000220
    020366  aa   000000 003147
    020367  aa   000000 000002
    020370  aa   163157 040040    1717  	write:	vfd a36/so  ,36/i_r,36/r_write,36/(l_540-l_org)/5,36/a_44
    020371  aa   000000 000000
    020372  aa   000000 000046
    020373  aa   000000 003231
    020374  aa   000000 000054
    020375  aa   040157 040040    1718  l_540:		vfd a36/ o  ,36/i_c,36/c_filenm,36/(wf-l_org)/5,36/0
    020376  aa   000000 000001
    020377  aa   000000 000005
    020400  aa   000000 003324
    020401  aa   000000 000000
    020402  aa   040157 040040    1719  		vfd a36/ o  ,36/i_c,36/c_nsrecnm,36/(l_541-l_org)/5,36/a_261
    020403  aa   000000 000001
    020404  aa   000000 000106
    020405  aa   000000 003234
    020406  aa   000000 000405
    020407  aa   040040 040040    1720  		vfd a36/    ,36/i_n,36/108,36/(rtwo-l_org)/5,36/0
    020410  aa   000000 000002
    020411  aa   000000 000154
    020412  aa   000000 004060
    020413  aa   000000 000000
    020414  aa   040040 040040    1721  l_541:		vfd a36/    ,36/i_n,36/0,36/(l_542-l_org)/5,36/a_12
    020415  aa   000000 000002
    020416  aa   000000 000000
    020417  aa   000000 003236
    020420  aa   000000 000014
    020421  aa   040040 040040    1722  		vfd a36/    ,36/i_n,36/031,36/(rtwo-l_org)/5,36/0
    020422  aa   000000 000002
    020423  aa   000000 000037
    020424  aa   000000 004060
    020425  aa   000000 000000
    020426  aa   163061 040040    1723  l_542:		vfd a36/s1  ,36/i_n,36/107,36/(l_543-l_org)/5,36/15
    020427  aa   000000 000002
    020430  aa   000000 000153
    020431  aa   000000 003243
    020432  aa   000000 000017
    020433  aa   163062 040040    1724  		vfd a36/s2  ,36/i_n,36/107,36/(l_543-l_org)/5,36/17
    020434  aa   000000 000002
    020435  aa   000000 000153
    020436  aa   000000 003243
    020437  aa   000000 000021
    020440  aa   163064 040040    1725  		vfd a36/s4  ,36/i_n,36/107,36/(l_543-l_org)/5,36/19
    020441  aa   000000 000002
    020442  aa   000000 000153
    020443  aa   000000 003243
    020444  aa   000000 000023
    020445  aa   040040 040040    1726  		vfd a36/    ,36/i_n,36/32,36/(rtwo-l_org)/5,36/0
    020446  aa   000000 000002
    020447  aa   000000 000040
    020450  aa   000000 004060
    020451  aa   000000 000000
    020452  aa   163065 040040    1727  		vfd a36/s5  ,36/i_n,36/107,36/(l_543-l_org)/5,36/25
    020453  aa   000000 000002
    020454  aa   000000 000153
    020455  aa   000000 003243
    020456  aa   000000 000031
    020457  aa   163040 040040    1728  l_543:		vfd a36/s   ,36/i_r,36/r_from,36/(wr4-l_org)/5,36/a_20
    020460  aa   000000 000000
    020461  aa   000000 000157
    020462  aa   000000 003260
    020463  aa   000000 000024
    020464  aa   040040 040040    1729  	wr2:	vfd a36/    ,36/i_c,36/c_msfile,36/(wr10-l_org)/5,36/a_21
    020465  aa   000000 000001
    020466  aa   000000 000110
    020467  aa   000000 003264
    020470  aa   000000 000025
    020471  aa   040040 040040    1730  		vfd a36/    ,36/i_r,36/r_before,36/(wr1-l_org)/5,36/a_121
    020472  aa   000000 000000
    020473  aa   000000 000120
    020474  aa   000000 003274
    020475  aa   000000 000171
    020476  aa   040040 040040    1731  		vfd a36/    ,36/i_r,36/r_after,36/(wr1-l_org)/5,36/a_120
    020477  aa   000000 000000
    020500  aa   000000 000110
    020501  aa   000000 003274
    020502  aa   000000 000170
    020503  aa   040040 040040    1732  	wr3:	vfd a36/    ,36/i_c,36/c_nae,36/(l_544-l_org)/5,36/a_37
    020504  aa   000000 000001
    020505  aa   000000 000334
    020506  aa   000000 003251
    020507  aa   000000 000045
    020510  aa   040040 040040    1733  		vfd a36/    ,36/i_n,36/0,36/(wr12-l_org)/5,36/0
    020511  aa   000000 000002
    020512  aa   000000 000000
    020513  aa   000000 003267
    020514  aa   000000 000000
    020515  aa   040040 040040    1734  l_544:		vfd a36/    ,36/i_c,36/c_linage,36/(l_545-l_org)/5,36/0
    020516  aa   000000 000001
    020517  aa   000000 000107
    020520  aa   000000 003253
    020521  aa   000000 000000
    020522  aa   040040 040040    1735  		vfd a36/    ,36/i_n,36/110,36/(rtwo-l_org)/5,36/0
    020523  aa   000000 000002
    020524  aa   000000 000156
    020525  aa   000000 004060
    020526  aa   000000 000000
    020527  aa   040063 040040    1736  l_545:		vfd a36/ 3  ,36/i_n,36/35,36/(l_546-l_org)/5,36/16
    020530  aa   000000 000002
    020531  aa   000000 000043
    020532  aa   000000 003254
    020533  aa   000000 000020
    020534  aa   040040 040040    1737  l_546:		vfd a36/    ,36/i_s,36/(neop-l_org)/5,36/(l_547-l_org)/5,36/a_87
    020535  aa   000000 000003
    020536  aa   000000 004014
    020537  aa   000000 003256
    020540  aa   000000 000127
    020541  aa   040040 040040    1738  		vfd a36/    ,36/i_n,36/0,36/(l_546-l_org)/5,36/0
    020542  aa   000000 000002
    020543  aa   000000 000000
    020544  aa   000000 003254
    020545  aa   000000 000000
    020546  aa   040040 040040    1739  l_547:		vfd a36/    ,36/i_s,36/(eopi-l_org)/5,36/(wr13-l_org)/5,36/0
    020547  aa   000000 000003
    020550  aa   000000 004021
    020551  aa   000000 003272
    020552  aa   000000 000000
    020553  aa   040040 040040    1740  		vfd a36/    ,36/i_n,36/0,36/(wr13-l_org)/5,36/0
    020554  aa   000000 000002
    020555  aa   000000 000000
    020556  aa   000000 003272
    020557  aa   000000 000000
    020560  aa   040157 040040    1741  	wr4:	vfd a36/ o  ,36/i_s,36/(ident-l_org)/5,36/(l_548-l_org)/5,36/0
    020561  aa   000000 000003
    020562  aa   000000 003462
    020563  aa   000000 003262
    020564  aa   000000 000000
    020565  aa   040040 040040    1742  		vfd a36/    ,36/i_n,36/021,36/(rtwo-l_org)/5,36/0
    020566  aa   000000 000002
    020567  aa   000000 000025
    020570  aa   000000 004060
    020571  aa   000000 000000
    020572  aa   163040 040040    1743  l_548:		vfd a36/s   ,36/i_c,36/c_filnefil,36/(wr2-l_org)/5,36/0
    020573  aa   000000 000001
    020574  aa   000000 000217
    020575  aa   000000 003244
    020576  aa   000000 000000
    020577  aa   040040 040040    1744  		vfd a36/    ,36/i_n,36/070,36/(rtwo-l_org)/5,36/0
    020600  aa   000000 000002
    020601  aa   000000 000106
    020602  aa   000000 004060
    020603  aa   000000 000000
    020604  aa   040040 040040    1745  	wr10:	vfd a36/    ,36/i_s,36/(nik-l_org)/5,36/(wr11-l_org)/5,36/0
    020605  aa   000000 000003
    020606  aa   000000 003677
    020607  aa   000000 003271
    020610  aa   000000 000000
    020611  aa   040040 040040    1746  		vfd a36/    ,36/i_c,36/c_useformrw,36/(l_549-l_org)/5,36/0
    020612  aa   000000 000001
    020613  aa   000000 000263
    020614  aa   000000 003267
    020615  aa   000000 000000
    020616  aa   040040 040040    1747  		vfd a36/    ,36/i_n,36/111,36/(rtwo-l_org)/5,36/0
    020617  aa   000000 000002
    020620  aa   000000 000157
    020621  aa   000000 004060
    020622  aa   000000 000000
    020623  aa   163040 040040    1748  l_549:	wr12:	vfd a36/s   ,36/i_r,36/r_end_write,36/(verb1-l_org)/5,36/a_3
    020624  aa   000000 000000
    020625  aa   000000 000744
    020626  aa   000000 003640
    020627  aa   000000 000003
    020630  aa   040040 040040    1749  		vfd a36/    ,36/i_n,36/0,36/(verb1-l_org)/5,36/a_3
    020631  aa   000000 000002
    020632  aa   000000 000000
    020633  aa   000000 003640
    020634  aa   000000 000003
    020635  aa   040040 040040    1750  	wr11:	vfd a36/    ,36/i_s,36/(iki-l_org)/5,36/(l_550-l_org)/5,36/0
    020636  aa   000000 000003
    020637  aa   000000 003704
    020640  aa   000000 003272
    020641  aa   000000 000000
    020642  aa   163040 040040    1751  l_550:	wr13:	vfd a36/s   ,36/i_r,36/r_end_write,36/(verb1-l_org)/5,36/a_266
    020643  aa   000000 000000
    020644  aa   000000 000744
    020645  aa   000000 003640
    020646  aa   000000 000412
    020647  aa   040040 040040    1752  		vfd a36/    ,36/i_n,36/0,36/(verb1-l_org)/5,36/a_310
    020650  aa   000000 000002
    020651  aa   000000 000000
    020652  aa   000000 003640
    020653  aa   000000 000466
    020654  aa   040040 040040    1753  	wr1:	vfd a36/    ,36/i_n,36/0,36/(l_551-l_org)/5,36/a_12
    020655  aa   000000 000002
    020656  aa   000000 000000
    020657  aa   000000 003276
    020660  aa   000000 000014
    020661  aa   040040 040040    1754  		vfd a36/    ,36/i_n,36/031,36/(rtwo-l_org)/5,36/0
    020662  aa   000000 000002
    020663  aa   000000 000037
    020664  aa   000000 004060
    020665  aa   000000 000000
    020666  aa   163040 040040    1755  l_551:		vfd a36/s   ,36/i_n,36/0,36/(l_552-l_org)/5,36/a_321
    020667  aa   000000 000002
    020670  aa   000000 000000
    020671  aa   000000 003303
    020672  aa   000000 000501
    020673  aa   040040 040040    1756  		vfd a36/    ,36/i_n,36/272,36/(rtwo-l_org)/5,36/0
    020674  aa   000000 000002
    020675  aa   000000 000420
    020676  aa   000000 004060
    020677  aa   000000 000000
    020700  aa   040040 040040    1757  		vfd a36/    ,36/i_n,36/272,36/(rtwo-l_org)/5,36/0
    020701  aa   000000 000002
    020702  aa   000000 000420
    020703  aa   000000 004060
    020704  aa   000000 000000
    020705  aa   040040 040040    1758  		vfd a36/    ,36/i_n,36/32,36/(rtwo-l_org)/5,36/0
    020706  aa   000000 000002
    020707  aa   000000 000040
    020710  aa   000000 004060
    020711  aa   000000 000000
    020712  aa   163040 040040    1759  		vfd a36/s   ,36/i_n,36/0,36/(l_552-l_org)/5,36/a_321
    020713  aa   000000 000002
    020714  aa   000000 000000
    020715  aa   000000 003303
    020716  aa   000000 000501
    020717  aa   163040 040040    1760  l_552:		vfd a36/s   ,36/i_r,36/r_advancing,36/(l_553-l_org)/5,36/0
    020720  aa   000000 000000
    020721  aa   000000 000107
    020722  aa   000000 003305
    020723  aa   000000 000000
    020724  aa   040040 040040    1761  		vfd a36/    ,36/i_n,36/0,36/(wr9-l_org)/5,36/0
    020725  aa   000000 000002
    020726  aa   000000 000000
    020727  aa   000000 003311
    020730  aa   000000 000000
    020731  aa   040040 040040    1762  l_553:		vfd a36/    ,36/i_c,36/c_seqstmfil,36/(l_554-l_org)/5,36/0
    020732  aa   000000 000001
    020733  aa   000000 000323
    020734  aa   000000 003307
    020735  aa   000000 000000
    020736  aa   040040 040040    1763  		vfd a36/    ,36/i_n,36/283,36/(wr9-l_org)/5,36/0
    020737  aa   000000 000002
    020740  aa   000000 000433
    020741  aa   000000 003311
    020742  aa   000000 000000
    020743  aa   040040 040040    1764  l_554:		vfd a36/    ,36/i_c,36/c_devprt,36/(l_555-l_org)/5,36/0
    020744  aa   000000 000001
    020745  aa   000000 000322
    020746  aa   000000 003311
    020747  aa   000000 000000
    020750  aa   040040 040040    1765  		vfd a36/    ,36/i_n,36/283,36/(l_555-l_org)/5,36/0
    020751  aa   000000 000002
    020752  aa   000000 000433
    020753  aa   000000 003311
    020754  aa   000000 000000
    020755  aa   040040 040040    1766  l_555:	wr9:	vfd a36/    ,36/i_c,36/c_elnudnint,36/(wr5-l_org)/5,36/0
    020756  aa   000000 000001
    020757  aa   000000 000167
    020760  aa   000000 003316
    020761  aa   000000 000000
    020762  aa   163157 040040    1767  		vfd a36/so  ,36/i_s,36/(elnumint-l_org)/5,36/(wr8-l_org)/5,36/a_319
    020763  aa   000000 000003
    020764  aa   000000 003533
    020765  aa   000000 003322
    020766  aa   000000 000477
    020767  aa   040157 040040    1768  	wr6:	vfd a36/ o  ,36/i_c,36/c_prt_con,36/(wr7-l_org)/5,36/0
    020770  aa   000000 000001
    020771  aa   000000 000307
    020772  aa   000000 003321
    020773  aa   000000 000000
    020774  aa   163157 040040    1769  		vfd a36/so  ,36/i_r,36/r_page,36/(wr3-l_org)/5,36/a_319
    020775  aa   000000 000000
    020776  aa   000000 000213
    020777  aa   000000 003247
    021000  aa   000000 000477
    021001  aa   040040 040040    1770  		vfd a36/    ,36/i_n,36/109,36/(rtwo-l_org)/5,36/0
    021002  aa   000000 000002
    021003  aa   000000 000155
    021004  aa   000000 004060
    021005  aa   000000 000000
    021006  aa   040157 040040    1771  	wr5:	vfd a36/ o  ,36/i_s,36/(ident-l_org)/5,36/(l_556-l_org)/5,36/0
    021007  aa   000000 000003
    021010  aa   000000 003462
    021011  aa   000000 003320
    021012  aa   000000 000000
    021013  aa   040040 040040    1772  		vfd a36/    ,36/i_n,36/0,36/(wr6-l_org)/5,36/0
    021014  aa   000000 000002
    021015  aa   000000 000000
    021016  aa   000000 003313
    021017  aa   000000 000000
    021020  aa   163063 040040    1773  l_556:		vfd a36/s3  ,36/i_n,36/111,36/(wr8-l_org)/5,36/16
    021021  aa   000000 000002
    021022  aa   000000 000157
    021023  aa   000000 003322
    021024  aa   000000 000020
    021025  aa   163063 040040    1774  	wr7:	vfd a36/s3  ,36/i_n,36/112,36/(l_557-l_org)/5,36/16
    021026  aa   000000 000002
    021027  aa   000000 000160
    021030  aa   000000 003322
    021031  aa   000000 000020
    021032  aa   163040 040040    1775  l_557:	wr8:	vfd a36/s   ,36/i_r,36/r_lines,36/(wr3-l_org)/5,36/0
    021033  aa   000000 000000
    021034  aa   000000 000174
    021035  aa   000000 003247
    021036  aa   000000 000000
    021037  aa   040040 040040    1776  		vfd a36/    ,36/i_n,36/0,36/(wr3-l_org)/5,36/0
    021040  aa   000000 000002
    021041  aa   000000 000000
    021042  aa   000000 003247
    021043  aa   000000 000000
    021044  aa   040040 040040    1777  	wf:	vfd a36/    ,36/i_n,36/0,36/(l_558-l_org)/5,36/a_12
    021045  aa   000000 000002
    021046  aa   000000 000000
    021047  aa   000000 003326
    021050  aa   000000 000014
    021051  aa   040040 040040    1778  		vfd a36/    ,36/i_n,36/31,36/(rtwo-l_org)/5,36/0
    021052  aa   000000 000002
    021053  aa   000000 000037
    021054  aa   000000 004060
    021055  aa   000000 000000
    021056  aa   163040 040040    1779  l_558:		vfd a36/s   ,36/i_n,36/0,36/(wf1-l_org)/5,36/a_24
    021057  aa   000000 000002
    021060  aa   000000 000000
    021061  aa   000000 003333
    021062  aa   000000 000030
    021063  aa   040040 040040    1780  		vfd a36/    ,36/i_n,36/301,36/(rtwo-l_org)/5,36/0
    021064  aa   000000 000002
    021065  aa   000000 000455
    021066  aa   000000 004060
    021067  aa   000000 000000
    021070  aa   040040 040040    1781  		vfd a36/    ,36/i_n,36/301,36/(rtwo-l_org)/5,36/0
    021071  aa   000000 000002
    021072  aa   000000 000455
    021073  aa   000000 004060
    021074  aa   000000 000000
    021075  aa   040040 040040    1782  		vfd a36/    ,36/i_n,36/301,36/(rtwo-l_org)/5,36/0
    021076  aa   000000 000002
    021077  aa   000000 000455
    021100  aa   000000 004060
    021101  aa   000000 000000
    021102  aa   040040 040040    1783  		vfd a36/    ,36/i_n,36/301,36/(rtwo-l_org)/5,36/0
    021103  aa   000000 000002
    021104  aa   000000 000455
    021105  aa   000000 004060
    021106  aa   000000 000000
    021107  aa   163040 040040    1784  	wf1:	vfd a36/s   ,36/i_r,36/r_from,36/(l_559-l_org)/5,36/0
    021110  aa   000000 000000
    021111  aa   000000 000157
    021112  aa   000000 003335
    021113  aa   000000 000000
    021114  aa   040040 040040    1785  		vfd a36/    ,36/i_n,36/302,36/(rtwo-l_org)/5,36/0
    021115  aa   000000 000002
    021116  aa   000000 000456
    021117  aa   000000 004060
    021120  aa   000000 000000
    021121  aa   163157 040040    1786  l_559:		vfd a36/so  ,36/i_s,36/(ident-l_org)/5,36/(wr12-l_org)/5,36/0
    021122  aa   000000 000003
    021123  aa   000000 003462
    021124  aa   000000 003267
    021125  aa   000000 000000
    021126  aa   040040 040040    1787  		vfd a36/    ,36/i_n,36/70,36/(rtwo-l_org)/5,36/0
    021127  aa   000000 000002
    021130  aa   000000 000106
    021131  aa   000000 004060
    021132  aa   000000 000000
    021133  aa   040157 040040    1788  	examine:	vfd a36/ o  ,36/i_r,36/r_examine,36/(l_560-l_org)/5,36/a_87
    021134  aa   000000 000000
    021135  aa   000000 000062
    021136  aa   000000 003340
    021137  aa   000000 000127
    021140  aa   163065 040040    1789  l_560:		vfd a36/s5  ,36/i_n,36/91,36/(l_561-l_org)/5,36/25
    021141  aa   000000 000002
    021142  aa   000000 000133
    021143  aa   000000 003341
    021144  aa   000000 000031
    021145  aa   163157 040040    1790  l_561:		vfd a36/so  ,36/i_s,36/(rid-l_org)/5,36/(l_562-l_org)/5,36/a_28
    021146  aa   000000 000003
    021147  aa   000000 003514
    021150  aa   000000 003343
    021151  aa   000000 000034
    021152  aa   040040 040040    1791  		vfd a36/    ,36/i_n,36/021,36/(rtwo-l_org)/5,36/0
    021153  aa   000000 000002
    021154  aa   000000 000025
    021155  aa   000000 004060
    021156  aa   000000 000000
    021157  aa   163040 040040    1792  l_562:		vfd a36/s   ,36/i_r,36/r_tallying,36/(l_563-l_org)/5,36/0
    021160  aa   000000 000000
    021161  aa   000000 000243
    021162  aa   000000 003346
    021163  aa   000000 000000
    021164  aa   163040 040040    1793  		vfd a36/s   ,36/i_r,36/r_replacing,36/(ex1-l_org)/5,36/a_21
    021165  aa   000000 000000
    021166  aa   000000 000230
    021167  aa   000000 003352
    021170  aa   000000 000025
    021171  aa   040040 040040    1794  		vfd a36/    ,36/i_n,36/049,36/(rtwo-l_org)/5,36/0
    021172  aa   000000 000002
    021173  aa   000000 000061
    021174  aa   000000 004060
    021175  aa   000000 000000
    021176  aa   163040 040040    1795  l_563:		vfd a36/s   ,36/i_r,36/r_all,36/(ex3-l_org)/5,36/0
    021177  aa   000000 000000
    021200  aa   000000 000111
    021201  aa   000000 003361
    021202  aa   000000 000000
    021203  aa   163040 040040    1796  		vfd a36/s   ,36/i_r,36/r_leading,36/(ex3-l_org)/5,36/a_121
    021204  aa   000000 000000
    021205  aa   000000 000172
    021206  aa   000000 003361
    021207  aa   000000 000171
    021210  aa   163040 040040    1797  		vfd a36/s   ,36/i_r,36/r_until,36/(ex4-l_org)/5,36/a_120
    021211  aa   000000 000000
    021212  aa   000000 000255
    021213  aa   000000 003363
    021214  aa   000000 000170
    021215  aa   040040 040040    1798  		vfd a36/    ,36/i_n,36/119,36/(rtwo-l_org)/5,36/0
    021216  aa   000000 000002
    021217  aa   000000 000167
    021220  aa   000000 004060
    021221  aa   000000 000000
    021222  aa   040040 040040    1799  	ex1:	vfd a36/    ,36/i_c,36/c_csstst,36/(ex10-l_org)/5,36/0
    021223  aa   000000 000001
    021224  aa   000000 000276
    021225  aa   000000 003354
    021226  aa   000000 000000
    021227  aa   040040 040040    1800  		vfd a36/    ,36/i_n,36/260,36/(ex10-l_org)/5,36/0
    021230  aa   000000 000002
    021231  aa   000000 000404
    021232  aa   000000 003354
    021233  aa   000000 000000
    021234  aa   163040 040040    1801  	ex10:	vfd a36/s   ,36/i_r,36/r_all,36/(ex7-l_org)/5,36/0
    021235  aa   000000 000000
    021236  aa   000000 000111
    021237  aa   000000 003374
    021240  aa   000000 000000
    021241  aa   163040 040040    1802  		vfd a36/s   ,36/i_r,36/r_leading,36/(ex7-l_org)/5,36/a_121
    021242  aa   000000 000000
    021243  aa   000000 000172
    021244  aa   000000 003374
    021245  aa   000000 000171
    021246  aa   163040 040040    1803  		vfd a36/s   ,36/i_r,36/r_until,36/(ex8-l_org)/5,36/a_120
    021247  aa   000000 000000
    021250  aa   000000 000255
    021251  aa   000000 003376
    021252  aa   000000 000170
    021253  aa   163040 040040    1804  		vfd a36/s   ,36/i_r,36/r_first,36/(ex7-l_org)/5,36/a_122
    021254  aa   000000 000000
    021255  aa   000000 000155
    021256  aa   000000 003374
    021257  aa   000000 000172
    021260  aa   040040 040040    1805  		vfd a36/    ,36/i_n,36/121,36/(rtwo-l_org)/5,36/0
    021261  aa   000000 000002
    021262  aa   000000 000171
    021263  aa   000000 004060
    021264  aa   000000 000000
    021265  aa   163157 040040    1806  	ex3:	vfd a36/so  ,36/i_c,36/c_examlitid,36/(ex5-l_org)/5,36/0
    021266  aa   000000 000001
    021267  aa   000000 000121
    021270  aa   000000 003365
    021271  aa   000000 000000
    021272  aa   040040 040040    1807  		vfd a36/    ,36/i_n,36/120,36/(rtwo-l_org)/5,36/0
    021273  aa   000000 000002
    021274  aa   000000 000170
    021275  aa   000000 004060
    021276  aa   000000 000000
    021277  aa   163040 040040    1808  	ex4:	vfd a36/s   ,36/i_r,36/r_first,36/(ex3-l_org)/5,36/0
    021300  aa   000000 000000
    021301  aa   000000 000155
    021302  aa   000000 003361
    021303  aa   000000 000000
    021304  aa   040040 040040    1809  		vfd a36/    ,36/i_n,36/122,36/(rtwo-l_org)/5,36/0
    021305  aa   000000 000002
    021306  aa   000000 000172
    021307  aa   000000 004060
    021310  aa   000000 000000
    021311  aa   163040 040040    1810  	ex5:	vfd a36/s   ,36/i_r,36/r_replacing,36/(ex2-l_org)/5,36/a_4
    021312  aa   000000 000000
    021313  aa   000000 000230
    021314  aa   000000 003367
    021315  aa   000000 000004
    021316  aa   040040 040040    1811  	ex6:	vfd a36/    ,36/i_n,36/0,36/(verb1-l_org)/5,36/a_3
    021317  aa   000000 000002
    021320  aa   000000 000000
    021321  aa   000000 003640
    021322  aa   000000 000003
    021323  aa   040040 040040    1812  	ex2:	vfd a36/    ,36/i_c,36/c_csstst,36/(l_564-l_org)/5,36/0
    021324  aa   000000 000001
    021325  aa   000000 000276
    021326  aa   000000 003371
    021327  aa   000000 000000
    021330  aa   040040 040040    1813  		vfd a36/    ,36/i_n,36/260,36/(l_564-l_org)/5,36/0
    021331  aa   000000 000002
    021332  aa   000000 000404
    021333  aa   000000 003371
    021334  aa   000000 000000
    021335  aa   163040 040040    1814  l_564:		vfd a36/s   ,36/i_r,36/r_by,36/(l_565-l_org)/5,36/0
    021336  aa   000000 000000
    021337  aa   000000 000122
    021340  aa   000000 003372
    021341  aa   000000 000000
    021342  aa   163157 040040    1815  l_565:		vfd a36/so  ,36/i_c,36/c_examlitid,36/(ex6-l_org)/5,36/0
    021343  aa   000000 000001
    021344  aa   000000 000121
    021345  aa   000000 003366
    021346  aa   000000 000000
    021347  aa   040040 040040    1816  		vfd a36/    ,36/i_n,36/120,36/(rtwo-l_org)/5,36/0
    021350  aa   000000 000002
    021351  aa   000000 000170
    021352  aa   000000 004060
    021353  aa   000000 000000
    021354  aa   163157 040040    1817  	ex7:	vfd a36/so  ,36/i_c,36/c_examlitid,36/(ex9-l_org)/5,36/0
    021355  aa   000000 000001
    021356  aa   000000 000121
    021357  aa   000000 003400
    021360  aa   000000 000000
    021361  aa   040040 040040    1818  		vfd a36/    ,36/i_n,36/120,36/(rtwo-l_org)/5,36/0
    021362  aa   000000 000002
    021363  aa   000000 000170
    021364  aa   000000 004060
    021365  aa   000000 000000
    021366  aa   163040 040040    1819  	ex8:	vfd a36/s   ,36/i_r,36/r_first,36/(ex7-l_org)/5,36/0
    021367  aa   000000 000000
    021370  aa   000000 000155
    021371  aa   000000 003374
    021372  aa   000000 000000
    021373  aa   040040 040040    1820  		vfd a36/    ,36/i_n,36/122,36/(rtwo-l_org)/5,36/0
    021374  aa   000000 000002
    021375  aa   000000 000172
    021376  aa   000000 004060
    021377  aa   000000 000000
    021400  aa   163040 040040    1821  	ex9:	vfd a36/s   ,36/i_r,36/r_by,36/(l_566-l_org)/5,36/0
    021401  aa   000000 000000
    021402  aa   000000 000122
    021403  aa   000000 003402
    021404  aa   000000 000000
    021405  aa   040040 040040    1822  		vfd a36/    ,36/i_n,36/054,36/(rtwo-l_org)/5,36/0
    021406  aa   000000 000002
    021407  aa   000000 000066
    021410  aa   000000 004060
    021411  aa   000000 000000
    021412  aa   163157 040040    1823  l_566:		vfd a36/so  ,36/i_c,36/c_examlitid,36/(ex6-l_org)/5,36/0
    021413  aa   000000 000001
    021414  aa   000000 000121
    021415  aa   000000 003366
    021416  aa   000000 000000
    021417  aa   040040 040040    1824  		vfd a36/    ,36/i_n,36/120,36/(rtwo-l_org)/5,36/0
    021420  aa   000000 000002
    021421  aa   000000 000170
    021422  aa   000000 004060
    021423  aa   000000 000000
    021424  aa   040157 040040    1825  	transform:	vfd a36/ o  ,36/i_r,36/r_transform,36/(l_567-l_org)/5,36/a_87
    021425  aa   000000 000000
    021426  aa   000000 000063
    021427  aa   000000 003405
    021430  aa   000000 000127
    021431  aa   163065 040040    1826  l_567:		vfd a36/s5  ,36/i_n,36/92,36/(l_568-l_org)/5,36/25
    021432  aa   000000 000002
    021433  aa   000000 000134
    021434  aa   000000 003406
    021435  aa   000000 000031
    021436  aa   040040 040040    1827  l_568:		vfd a36/    ,36/i_c,36/c_elaanne,36/(l_569-l_org)/5,36/0
    021437  aa   000000 000001
    021440  aa   000000 000225
    021441  aa   000000 003410
    021442  aa   000000 000000
    021443  aa   040040 040040    1828  		vfd a36/    ,36/i_n,36/181,36/(rtwo-l_org)/5,36/0
    021444  aa   000000 000002
    021445  aa   000000 000265
    021446  aa   000000 004060
    021447  aa   000000 000000
    021450  aa   163157 040040    1829  l_569:		vfd a36/so  ,36/i_s,36/(rid-l_org)/5,36/(l_570-l_org)/5,36/0
    021451  aa   000000 000003
    021452  aa   000000 003514
    021453  aa   000000 003411
    021454  aa   000000 000000
    021455  aa   163040 040040    1830  l_570:		vfd a36/s   ,36/i_r,36/r_characters,36/(l_571-l_org)/5,36/0
    021456  aa   000000 000000
    021457  aa   000000 000123
    021460  aa   000000 003412
    021461  aa   000000 000000
    021462  aa   163040 040040    1831  l_571:		vfd a36/s   ,36/i_r,36/r_from,36/(l_572-l_org)/5,36/0
    021463  aa   000000 000000
    021464  aa   000000 000157
    021465  aa   000000 003414
    021466  aa   000000 000000
    021467  aa   040040 040040    1832  		vfd a36/    ,36/i_n,36/65,36/(rtwo-l_org)/5,36/0
    021470  aa   000000 000002
    021471  aa   000000 000101
    021472  aa   000000 004060
    021473  aa   000000 000000
    021474  aa   163157 040040    1833  l_572:		vfd a36/so  ,36/i_c,36/c_figconall,36/(l_573-l_org)/5,36/0
    021475  aa   000000 000001
    021476  aa   000000 000026
    021477  aa   000000 003420
    021500  aa   000000 000000
    021501  aa   163157 040040    1834  		vfd a36/so  ,36/i_c,36/c_nonumlit,36/(l_573-l_org)/5,36/0
    021502  aa   000000 000001
    021503  aa   000000 000017
    021504  aa   000000 003420
    021505  aa   000000 000000
    021506  aa   163157 040040    1835  		vfd a36/so  ,36/i_s,36/(ident-l_org)/5,36/(l_573-l_org)/5,36/0
    021507  aa   000000 000003
    021510  aa   000000 003462
    021511  aa   000000 003420
    021512  aa   000000 000000
    021513  aa   040040 040040    1836  		vfd a36/    ,36/i_n,36/182,36/(rtwo-l_org)/5,36/0
    021514  aa   000000 000002
    021515  aa   000000 000266
    021516  aa   000000 004060
    021517  aa   000000 000000
    021520  aa   163040 040040    1837  l_573:		vfd a36/s   ,36/i_r,36/r_to,36/(l_574-l_org)/5,36/0
    021521  aa   000000 000000
    021522  aa   000000 000252
    021523  aa   000000 003422
    021524  aa   000000 000000
    021525  aa   040040 040040    1838  		vfd a36/    ,36/i_n,36/028,36/(rtwo-l_org)/5,36/0
    021526  aa   000000 000002
    021527  aa   000000 000034
    021530  aa   000000 004060
    021531  aa   000000 000000
    021532  aa   163157 040040    1839  l_574:		vfd a36/so  ,36/i_c,36/c_figconall,36/(l_575-l_org)/5,36/0
    021533  aa   000000 000001
    021534  aa   000000 000026
    021535  aa   000000 003426
    021536  aa   000000 000000
    021537  aa   163157 040040    1840  		vfd a36/so  ,36/i_c,36/c_nonumlit,36/(l_575-l_org)/5,36/0
    021540  aa   000000 000001
    021541  aa   000000 000017
    021542  aa   000000 003426
    021543  aa   000000 000000
    021544  aa   163157 040040    1841  		vfd a36/so  ,36/i_s,36/(ident-l_org)/5,36/(l_575-l_org)/5,36/0
    021545  aa   000000 000003
    021546  aa   000000 003462
    021547  aa   000000 003426
    021550  aa   000000 000000
    021551  aa   040040 040040    1842  		vfd a36/    ,36/i_n,36/182,36/(rtwo-l_org)/5,36/0
    021552  aa   000000 000002
    021553  aa   000000 000266
    021554  aa   000000 004060
    021555  aa   000000 000000
    021556  aa   040040 040040    1843  l_575:		vfd a36/    ,36/i_n,36/0,36/(verb1-l_org)/5,36/a_3
    021557  aa   000000 000002
    021560  aa   000000 000000
    021561  aa   000000 003640
    021562  aa   000000 000003
    021563  aa   163157 040040    1844  	delete:	vfd a36/so  ,36/i_r,36/r_delete,36/(l_576-l_org)/5,36/a_44
    021564  aa   000000 000000
    021565  aa   000000 000026
    021566  aa   000000 003430
    021567  aa   000000 000054
    021570  aa   040040 040040    1845  l_576:		vfd a36/    ,36/i_c,36/c_filenm,36/(l_577-l_org)/5,36/a_12
    021571  aa   000000 000001
    021572  aa   000000 000005
    021573  aa   000000 003432
    021574  aa   000000 000014
    021575  aa   040040 040040    1846  		vfd a36/    ,36/i_n,36/031,36/(rtwo-l_org)/5,36/0
    021576  aa   000000 000002
    021577  aa   000000 000037
    021600  aa   000000 004060
    021601  aa   000000 000000
    021602  aa   040040 040040    1847  l_577:		vfd a36/    ,36/i_n,36/272,36/(rtwo-l_org)/5,36/0
    021603  aa   000000 000002
    021604  aa   000000 000420
    021605  aa   000000 004060
    021606  aa   000000 000000
    021607  aa   040062 040040    1848  		vfd a36/ 2  ,36/i_n,36/93,36/(l_578-l_org)/5,36/17
    021610  aa   000000 000002
    021611  aa   000000 000135
    021612  aa   000000 003437
    021613  aa   000000 000021
    021614  aa   040064 040040    1849  		vfd a36/ 4  ,36/i_n,36/93,36/(l_578-l_org)/5,36/19
    021615  aa   000000 000002
    021616  aa   000000 000135
    021617  aa   000000 003437
    021620  aa   000000 000023
    021621  aa   040040 040040    1850  		vfd a36/    ,36/i_n,36/32,36/(rtwo-l_org)/5,36/0
    021622  aa   000000 000002
    021623  aa   000000 000040
    021624  aa   000000 004060
    021625  aa   000000 000000
    021626  aa   040040 040040    1851  		vfd a36/    ,36/i_n,36/0,36/(rtwo-l_org)/5,36/0
    021627  aa   000000 000002
    021630  aa   000000 000000
    021631  aa   000000 004060
    021632  aa   000000 000000
    021633  aa   163157 040040    1852  l_578:		vfd a36/so  ,36/i_c,36/c_notseqfl,36/(l_579-l_org)/5,36/a_152
    021634  aa   000000 000001
    021635  aa   000000 000046
    021636  aa   000000 003441
    021637  aa   000000 000230
    021640  aa   040040 040040    1853  		vfd a36/    ,36/i_n,36/219,36/(rtwo-l_org)/5,36/0
    021641  aa   000000 000002
    021642  aa   000000 000333
    021643  aa   000000 004060
    021644  aa   000000 000000
    021645  aa   163040 040040    1854  l_579:		vfd a36/s   ,36/i_r,36/r_record,36/(l_580-l_org)/5,36/0
    021646  aa   000000 000000
    021647  aa   000000 000224
    021650  aa   000000 003442
    021651  aa   000000 000000
    021652  aa   040040 040040    1855  l_580:		vfd a36/    ,36/i_c,36/c_notseqac,36/(l_581-l_org)/5,36/0
    021653  aa   000000 000001
    021654  aa   000000 000035
    021655  aa   000000 003444
    021656  aa   000000 000000
    021657  aa   040040 040040    1856  		vfd a36/    ,36/i_n,36/0,36/(de2-l_org)/5,36/a_3
    021660  aa   000000 000002
    021661  aa   000000 000000
    021662  aa   000000 003447
    021663  aa   000000 000003
    021664  aa   040040 040040    1857  l_581:		vfd a36/    ,36/i_s,36/(nik-l_org)/5,36/(de1-l_org)/5,36/0
    021665  aa   000000 000003
    021666  aa   000000 003677
    021667  aa   000000 003451
    021670  aa   000000 000000
    021671  aa   040040 040040    1858  		vfd a36/    ,36/i_c,36/c_useformds,36/(l_582-l_org)/5,36/0
    021672  aa   000000 000001
    021673  aa   000000 000261
    021674  aa   000000 003447
    021675  aa   000000 000000
    021676  aa   040040 040040    1859  		vfd a36/    ,36/i_n,36/111,36/(rtwo-l_org)/5,36/0
    021677  aa   000000 000002
    021700  aa   000000 000157
    021701  aa   000000 004060
    021702  aa   000000 000000
    021703  aa   163040 040040    1860  l_582:	de2:	vfd a36/s   ,36/i_r,36/r_end_delete,36/(verb1-l_org)/5,36/a_312
    021704  aa   000000 000000
    021705  aa   000000 000725
    021706  aa   000000 003640
    021707  aa   000000 000470
    021710  aa   040040 040040    1861  		vfd a36/    ,36/i_n,36/0,36/(verb1-l_org)/5,36/0
    021711  aa   000000 000002
    021712  aa   000000 000000
    021713  aa   000000 003640
    021714  aa   000000 000000
    021715  aa   040040 040040    1862  	de1:	vfd a36/    ,36/i_s,36/(iki-l_org)/5,36/(l_583-l_org)/5,36/0
    021716  aa   000000 000003
    021717  aa   000000 003704
    021720  aa   000000 003452
    021721  aa   000000 000000
    021722  aa   163040 040040    1863  l_583:		vfd a36/s   ,36/i_r,36/r_end_delete,36/(verb1-l_org)/5,36/a_266
    021723  aa   000000 000000
    021724  aa   000000 000725
    021725  aa   000000 003640
    021726  aa   000000 000412
    021727  aa   040040 040040    1864  		vfd a36/    ,36/i_n,36/0,36/(verb1-l_org)/5,36/a_310
    021730  aa   000000 000002
    021731  aa   000000 000000
    021732  aa   000000 003640
    021733  aa   000000 000466
    021734  aa   163040 040040    1865  	suppress:	vfd a36/s   ,36/i_n,36/0,36/(l_584-l_org)/5,36/a_216
    021735  aa   000000 000002
    021736  aa   000000 000000
    021737  aa   000000 003455
    021740  aa   000000 000330
    021741  aa   163040 040040    1866  l_584:		vfd a36/s   ,36/i_r,36/r_printing,36/(verb1-l_org)/5,36/a_215
    021742  aa   000000 000000
    021743  aa   000000 001057
    021744  aa   000000 003640
    021745  aa   000000 000327
    021746  aa   040040 040040    1867  		vfd a36/    ,36/i_n,36/0,36/(verb1-l_org)/5,36/a_215
    021747  aa   000000 000002
    021750  aa   000000 000000
    021751  aa   000000 003640
    021752  aa   000000 000327
    021753  aa   040040 040040    1868  	xdname:	vfd a36/    ,36/i_c,36/c_unxdnm,36/(succ-l_org)/5,36/a_309
    021754  aa   000000 000001
    021755  aa   000000 000212
    021756  aa   000000 004110
    021757  aa   000000 000465
    021760  aa   163040 040040    1869  		vfd a36/s   ,36/i_c,36/c_suxdnm,36/(ident_5-l_org)/5,36/a_113
    021761  aa   000000 000001
    021762  aa   000000 000226
    021763  aa   000000 003465
    021764  aa   000000 000161
    021765  aa   040040 040040    1870  		vfd a36/    ,36/i_n,36/0,36/(fail-l_org)/5,36/0
    021766  aa   000000 000002
    021767  aa   000000 000000
    021770  aa   000000 004111
    021771  aa   000000 000000
    021772  aa   040040 040040    1871  	ident:	vfd a36/    ,36/i_c,36/c_undana,36/(succ-l_org)/5,36/a_309
    021773  aa   000000 000001
    021774  aa   000000 000111
    021775  aa   000000 004110
    021776  aa   000000 000465
    021777  aa   163040 040040    1872  		vfd a36/s   ,36/i_c,36/c_sudana,36/(l_585-l_org)/5,36/a_279
    022000  aa   000000 000001
    022001  aa   000000 000112
    022002  aa   000000 003465
    022003  aa   000000 000427
    022004  aa   040040 040040    1873  		vfd a36/    ,36/i_n,36/0,36/(fail-l_org)/5,36/0
    022005  aa   000000 000002
    022006  aa   000000 000000
    022007  aa   000000 004111
    022010  aa   000000 000000
    022011  aa   163040 040040    1874  l_585:	ident_5:	vfd a36/s   ,36/i_r,36/r_lt,36/(l_586-l_org)/5,36/a_125
    022012  aa   000000 000000
    022013  aa   000000 000273
    022014  aa   000000 003467
    022015  aa   000000 000175
    022016  aa   040040 040040    1875  		vfd a36/    ,36/i_n,36/112,36/(rtwo-l_org)/5,36/0
    022017  aa   000000 000002
    022020  aa   000000 000160
    022021  aa   000000 004060
    022022  aa   000000 000000
    022023  aa   040040 040040    1876  l_586:	ident_1:	vfd a36/    ,36/i_c,36/c_ieqlvl,36/(l_587-l_org)/5,36/a_126
    022024  aa   000000 000001
    022025  aa   000000 000113
    022026  aa   000000 003472
    022027  aa   000000 000176
    022030  aa   040040 040040    1877  		vfd a36/    ,36/i_r,36/r_rt,36/(succ-l_org)/5,36/a_118
    022031  aa   000000 000000
    022032  aa   000000 000274
    022033  aa   000000 004110
    022034  aa   000000 000166
    022035  aa   040040 040040    1878  		vfd a36/    ,36/i_n,36/113,36/(rtwo-l_org)/5,36/0
    022036  aa   000000 000002
    022037  aa   000000 000161
    022040  aa   000000 004060
    022041  aa   000000 000000
    022042  aa   163157 040040    1879  l_587:		vfd a36/so  ,36/i_c,36/c_pigz,36/(ident_1-l_org)/5,36/a_280
    022043  aa   000000 000001
    022044  aa   000000 000116
    022045  aa   000000 003467
    022046  aa   000000 000430
    022047  aa   040040 040040    1880  		vfd a36/    ,36/i_c,36/c_indexed,36/(l_588-l_org)/5,36/0
    022050  aa   000000 000001
    022051  aa   000000 000114
    022052  aa   000000 003476
    022053  aa   000000 000000
    022054  aa   163157 040040    1881  		vfd a36/so  ,36/i_c,36/c_udneli,36/(ident_1-l_org)/5,36/a_131
    022055  aa   000000 000001
    022056  aa   000000 000272
    022057  aa   000000 003467
    022060  aa   000000 000203
    022061  aa   040040 040040    1882  		vfd a36/    ,36/i_n,36/114,36/(rtwo-l_org)/5,36/0
    022062  aa   000000 000002
    022063  aa   000000 000162
    022064  aa   000000 004060
    022065  aa   000000 000000
    022066  aa   040040 040040    1883  l_588:		vfd a36/    ,36/i_c,36/c_xnm,36/(l_589-l_org)/5,36/a_135
    022067  aa   000000 000001
    022070  aa   000000 000041
    022071  aa   000000 003501
    022072  aa   000000 000207
    022073  aa   163157 040040    1884  		vfd a36/so  ,36/i_c,36/c_undana,36/(ident_4-l_org)/5,36/a_136
    022074  aa   000000 000001
    022075  aa   000000 000111
    022076  aa   000000 003512
    022077  aa   000000 000210
    022100  aa   040040 040040    1885  		vfd a36/    ,36/i_n,36/114,36/(rtwo-l_org)/5,36/0
    022101  aa   000000 000002
    022102  aa   000000 000162
    022103  aa   000000 004060
    022104  aa   000000 000000
    022105  aa   040040 040040    1886  l_589:		vfd a36/    ,36/i_c,36/c_daib,36/(l_590-l_org)/5,36/0
    022106  aa   000000 000001
    022107  aa   000000 000214
    022110  aa   000000 003503
    022111  aa   000000 000000
    022112  aa   040040 040040    1887  		vfd a36/    ,36/i_n,36/167,36/(rtwo-l_org)/5,36/0
    022113  aa   000000 000002
    022114  aa   000000 000247
    022115  aa   000000 004060
    022116  aa   000000 000000
    022117  aa   163157 040040    1888  l_590:		vfd a36/so  ,36/i_c,36/c_indeqind,36/(l_591-l_org)/5,36/a_132
    022120  aa   000000 000001
    022121  aa   000000 000115
    022122  aa   000000 003505
    022123  aa   000000 000204
    022124  aa   040040 040040    1889  		vfd a36/    ,36/i_n,36/116,36/(rtwo-l_org)/5,36/0
    022125  aa   000000 000002
    022126  aa   000000 000164
    022127  aa   000000 004060
    022130  aa   000000 000000
    022131  aa   163157 040040    1890  l_591:		vfd a36/so  ,36/i_r,36/r_pls,36/(l_592-l_org)/5,36/0
    022132  aa   000000 000000
    022133  aa   000000 000266
    022134  aa   000000 003510
    022135  aa   000000 000000
    022136  aa   163157 040040    1891  		vfd a36/so  ,36/i_r,36/r_sub,36/(l_592-l_org)/5,36/0
    022137  aa   000000 000000
    022140  aa   000000 000267
    022141  aa   000000 003510
    022142  aa   000000 000000
    022143  aa   040040 040040    1892  		vfd a36/    ,36/i_n,36/0,36/(ident_1-l_org)/5,36/0
    022144  aa   000000 000002
    022145  aa   000000 000000
    022146  aa   000000 003467
    022147  aa   000000 000000
    022150  aa   163157 040040    1893  l_592:		vfd a36/so  ,36/i_c,36/c_unsint,36/(ident_1-l_org)/5,36/a_114
    022151  aa   000000 000001
    022152  aa   000000 000117
    022153  aa   000000 003467
    022154  aa   000000 000162
    022155  aa   040040 040040    1894  		vfd a36/    ,36/i_n,36/117,36/(rtwo-l_org)/5,36/0
    022156  aa   000000 000002
    022157  aa   000000 000165
    022160  aa   000000 004060
    022161  aa   000000 000000
    022162  aa   040040 040040    1895  	ident_4:	vfd a36/    ,36/i_c,36/c_daib,36/(ident_1-l_org)/5,36/0
    022163  aa   000000 000001
    022164  aa   000000 000214
    022165  aa   000000 003467
    022166  aa   000000 000000
    022167  aa   040040 040040    1896  		vfd a36/    ,36/i_n,36/167,36/(rtwo-l_org)/5,36/0
    022170  aa   000000 000002
    022171  aa   000000 000247
    022172  aa   000000 004060
    022173  aa   000000 000000
    022174  aa   040040 040040    1897  	rid:	vfd a36/    ,36/i_c,36/c_type9,36/(l_593-l_org)/5,36/0
    022175  aa   000000 000001
    022176  aa   000000 000302
    022177  aa   000000 003516
    022200  aa   000000 000000
    022201  aa   040040 040040    1898  		vfd a36/    ,36/i_n,36/0,36/(fail-l_org)/5,36/0
    022202  aa   000000 000002
    022203  aa   000000 000000
    022204  aa   000000 004111
    022205  aa   000000 000000
    022206  aa   040040 040040    1899  l_593:		vfd a36/    ,36/i_c,36/c_cstst,36/(l_594-l_org)/5,36/0
    022207  aa   000000 000001
    022210  aa   000000 000273
    022211  aa   000000 003520
    022212  aa   000000 000000
    022213  aa   040040 040040    1900  		vfd a36/    ,36/i_n,36/248,36/(l_594-l_org)/5,36/0
    022214  aa   000000 000002
    022215  aa   000000 000370
    022216  aa   000000 003520
    022217  aa   000000 000000
    022220  aa   040040 040040    1901  l_594:		vfd a36/    ,36/i_s,36/(ident-l_org)/5,36/(succ-l_org)/5,36/0
    022221  aa   000000 000003
    022222  aa   000000 003462
    022223  aa   000000 004110
    022224  aa   000000 000000
    022225  aa   040040 040040    1902  		vfd a36/    ,36/i_n,36/0,36/(fail-l_org)/5,36/0
    022226  aa   000000 000002
    022227  aa   000000 000000
    022230  aa   000000 004111
    022231  aa   000000 000000
    022232  aa   040040 040040    1903  	nonumid:	vfd a36/    ,36/i_c,36/c_nonumlit,36/(succ-l_org)/5,36/0
    022233  aa   000000 000001
    022234  aa   000000 000017
    022235  aa   000000 004110
    022236  aa   000000 000000
    022237  aa   040040 040040    1904  		vfd a36/    ,36/i_c,36/c_nonumdn,36/(l_595-l_org)/5,36/0
    022240  aa   000000 000001
    022241  aa   000000 000223
    022242  aa   000000 003525
    022243  aa   000000 000000
    022244  aa   040040 040040    1905  		vfd a36/    ,36/i_n,36/0,36/(fail-l_org)/5,36/0
    022245  aa   000000 000002
    022246  aa   000000 000000
    022247  aa   000000 004111
    022250  aa   000000 000000
    022251  aa   040040 040040    1906  l_595:		vfd a36/    ,36/i_s,36/(ident-l_org)/5,36/(succ-l_org)/5,36/0
    022252  aa   000000 000003
    022253  aa   000000 003462
    022254  aa   000000 004110
    022255  aa   000000 000000
    022256  aa   040040 040040    1907  		vfd a36/    ,36/i_n,36/0,36/(fail-l_org)/5,36/0
    022257  aa   000000 000002
    022260  aa   000000 000000
    022261  aa   000000 004111
    022262  aa   000000 000000
    022263  aa   040040 040040    1908  	usnoned:	vfd a36/    ,36/i_c,36/c_usagid,36/(l_596-l_org)/5,36/0
    022264  aa   000000 000001
    022265  aa   000000 000136
    022266  aa   000000 003531
    022267  aa   000000 000000
    022270  aa   040040 040040    1909  		vfd a36/    ,36/i_n,36/0,36/(fail-l_org)/5,36/0
    022271  aa   000000 000002
    022272  aa   000000 000000
    022273  aa   000000 004111
    022274  aa   000000 000000
    022275  aa   040040 040040    1910  l_596:		vfd a36/    ,36/i_c,36/c_edick,36/(succ-l_org)/5,36/0
    022276  aa   000000 000001
    022277  aa   000000 000241
    022300  aa   000000 004110
    022301  aa   000000 000000
    022302  aa   040040 040040    1911  		vfd a36/    ,36/i_n,36/0,36/(fail-l_org)/5,36/0
    022303  aa   000000 000002
    022304  aa   000000 000000
    022305  aa   000000 004111
    022306  aa   000000 000000
    022307  aa   040040 040040    1912  	elnumint:	vfd a36/    ,36/i_c,36/c_elnuint,36/(succ-l_org)/5,36/0
    022310  aa   000000 000001
    022311  aa   000000 000166
    022312  aa   000000 004110
    022313  aa   000000 000000
    022314  aa   040040 040040    1913  	elnint:	vfd a36/    ,36/i_c,36/c_elnudnint,36/(el_1-l_org)/5,36/0
    022315  aa   000000 000001
    022316  aa   000000 000167
    022317  aa   000000 003543
    022320  aa   000000 000000
    022321  aa   040040 040040    1914  	el_2:	vfd a36/    ,36/i_r,36/r_all,36/(l_597-l_org)/5,36/0
    022322  aa   000000 000000
    022323  aa   000000 000111
    022324  aa   000000 003540
    022325  aa   000000 000000
    022326  aa   040040 040040    1915  		vfd a36/    ,36/i_c,36/c_figzero,36/(succ-l_org)/5,36/0
    022327  aa   000000 000001
    022330  aa   000000 000330
    022331  aa   000000 004110
    022332  aa   000000 000000
    022333  aa   040040 040040    1916  		vfd a36/    ,36/i_n,36/0,36/(fail-l_org)/5,36/0
    022334  aa   000000 000002
    022335  aa   000000 000000
    022336  aa   000000 004111
    022337  aa   000000 000000
    022340  aa   163063 040040    1917  l_597:		vfd a36/s3  ,36/i_n,36/144,36/(l_598-l_org)/5,36/2
    022341  aa   000000 000002
    022342  aa   000000 000220
    022343  aa   000000 003541
    022344  aa   000000 000002
    022345  aa   040040 040040    1918  l_598:		vfd a36/    ,36/i_c,36/c_figzero,36/(succ-l_org)/5,36/0
    022346  aa   000000 000001
    022347  aa   000000 000330
    022350  aa   000000 004110
    022351  aa   000000 000000
    022352  aa   040040 040040    1919  		vfd a36/    ,36/i_n,36/277,36/(rtwo-l_org)/5,36/0
    022353  aa   000000 000002
    022354  aa   000000 000425
    022355  aa   000000 004060
    022356  aa   000000 000000
    022357  aa   040040 040040    1920  	el_1:	vfd a36/    ,36/i_s,36/(ident-l_org)/5,36/(succ-l_org)/5,36/0
    022360  aa   000000 000003
    022361  aa   000000 003462
    022362  aa   000000 004110
    022363  aa   000000 000000
    022364  aa   040040 040040    1921  		vfd a36/    ,36/i_n,36/0,36/(fail-l_org)/5,36/0
    022365  aa   000000 000002
    022366  aa   000000 000000
    022367  aa   000000 004111
    022370  aa   000000 000000
    022371  aa   040040 040040    1922  	elint:	vfd a36/    ,36/i_c,36/c_elnudnint,36/(el_1-l_org)/5,36/0
    022372  aa   000000 000001
    022373  aa   000000 000167
    022374  aa   000000 003543
    022375  aa   000000 000000
    022376  aa   040040 040040    1923  		vfd a36/    ,36/i_n,36/0,36/(fail-l_org)/5,36/0
    022377  aa   000000 000002
    022400  aa   000000 000000
    022401  aa   000000 004111
    022402  aa   000000 000000
    022403  aa   040040 040040    1924  	elni:	vfd a36/    ,36/i_c,36/c_elnuit,36/(el_1-l_org)/5,36/0
    022404  aa   000000 000001
    022405  aa   000000 000102
    022406  aa   000000 003543
    022407  aa   000000 000000
    022410  aa   040040 040040    1925  		vfd a36/    ,36/i_n,36/0,36/(el_2-l_org)/5,36/0
    022411  aa   000000 000002
    022412  aa   000000 000000
    022413  aa   000000 003535
    022414  aa   000000 000000
    022415  aa   040040 040040    1926  	elnuitem:	vfd a36/    ,36/i_c,36/c_nlit,36/(succ-l_org)/5,36/a_285
    022416  aa   000000 000001
    022417  aa   000000 000320
    022420  aa   000000 004110
    022421  aa   000000 000435
    022422  aa   040040 040040    1927  		vfd a36/    ,36/i_c,36/c_elnuit,36/(eln_1-l_org)/5,36/a_265
    022423  aa   000000 000001
    022424  aa   000000 000102
    022425  aa   000000 003561
    022426  aa   000000 000411
    022427  aa   040040 040040    1928  		vfd a36/    ,36/i_r,36/r_all,36/(l_599-l_org)/5,36/0
    022430  aa   000000 000000
    022431  aa   000000 000111
    022432  aa   000000 003556
    022433  aa   000000 000000
    022434  aa   040040 040040    1929  		vfd a36/    ,36/i_c,36/c_figzero,36/(succ-l_org)/5,36/a_285
    022435  aa   000000 000001
    022436  aa   000000 000330
    022437  aa   000000 004110
    022440  aa   000000 000435
    022441  aa   040040 040040    1930  		vfd a36/    ,36/i_n,36/0,36/(fail-l_org)/5,36/0
    022442  aa   000000 000002
    022443  aa   000000 000000
    022444  aa   000000 004111
    022445  aa   000000 000000
    022446  aa   163063 040040    1931  l_599:		vfd a36/s3  ,36/i_n,36/144,36/(l_600-l_org)/5,36/2
    022447  aa   000000 000002
    022450  aa   000000 000220
    022451  aa   000000 003557
    022452  aa   000000 000002
    022453  aa   040040 040040    1932  l_600:		vfd a36/    ,36/i_c,36/c_figzero,36/(succ-l_org)/5,36/a_285
    022454  aa   000000 000001
    022455  aa   000000 000330
    022456  aa   000000 004110
    022457  aa   000000 000435
    022460  aa   040040 040040    1933  		vfd a36/    ,36/i_n,36/314,36/(rtwo-l_org)/5,36/0
    022461  aa   000000 000002
    022462  aa   000000 000472
    022463  aa   000000 004060
    022464  aa   000000 000000
    022465  aa   040040 040040    1934  	eln_1:	vfd a36/    ,36/i_s,36/(ident-l_org)/5,36/(succ-l_org)/5,36/0
    022466  aa   000000 000003
    022467  aa   000000 003462
    022470  aa   000000 004110
    022471  aa   000000 000000
    022472  aa   040040 040040    1935  		vfd a36/    ,36/i_n,36/0,36/(fail-l_org)/5,36/0
    022473  aa   000000 000002
    022474  aa   000000 000000
    022475  aa   000000 004111
    022476  aa   000000 000000
    022477  aa   040040 040040    1936  	elusid:	vfd a36/    ,36/i_c,36/c_nonumlit,36/(elus_1-l_org)/5,36/0
    022500  aa   000000 000001
    022501  aa   000000 000017
    022502  aa   000000 003572
    022503  aa   000000 000000
    022504  aa   040040 040040    1937  		vfd a36/    ,36/i_c,36/c_figconall,36/(succ-l_org)/5,36/0
    022505  aa   000000 000001
    022506  aa   000000 000026
    022507  aa   000000 004110
    022510  aa   000000 000000
    022511  aa   040040 040040    1938  		vfd a36/    ,36/i_c,36/c_eldis,36/(l_601-l_org)/5,36/0
    022512  aa   000000 000001
    022513  aa   000000 000137
    022514  aa   000000 003567
    022515  aa   000000 000000
    022516  aa   040040 040040    1939  		vfd a36/    ,36/i_n,36/0,36/(fail-l_org)/5,36/0
    022517  aa   000000 000002
    022520  aa   000000 000000
    022521  aa   000000 004111
    022522  aa   000000 000000
    022523  aa   040040 040040    1940  l_601:		vfd a36/    ,36/i_n,36/0,36/(l_602-l_org)/5,36/a_214
    022524  aa   000000 000002
    022525  aa   000000 000000
    022526  aa   000000 003570
    022527  aa   000000 000326
    022530  aa   040040 040040    1941  l_602:		vfd a36/    ,36/i_s,36/(ident-l_org)/5,36/(succ-l_org)/5,36/0
    022531  aa   000000 000003
    022532  aa   000000 003462
    022533  aa   000000 004110
    022534  aa   000000 000000
    022535  aa   040040 040040    1942  		vfd a36/    ,36/i_n,36/0,36/(fail-l_org)/5,36/0
    022536  aa   000000 000002
    022537  aa   000000 000000
    022540  aa   000000 004111
    022541  aa   000000 000000
    022542  aa   040040 040040    1943  	elus_1:	vfd a36/    ,36/i_n,36/0,36/(succ-l_org)/5,36/a_214
    022543  aa   000000 000002
    022544  aa   000000 000000
    022545  aa   000000 004110
    022546  aa   000000 000326
    022547  aa   040040 040040    1944  	usagid:	vfd a36/    ,36/i_c,36/c_usagid,36/(alel2-l_org)/5,36/0
    022550  aa   000000 000001
    022551  aa   000000 000136
    022552  aa   000000 003603
    022553  aa   000000 000000
    022554  aa   040040 040040    1945  		vfd a36/    ,36/i_n,36/0,36/(fail-l_org)/5,36/0
    022555  aa   000000 000002
    022556  aa   000000 000000
    022557  aa   000000 004111
    022560  aa   000000 000000
    022561  aa   040040 040040    1946  	alelnuit:	vfd a36/    ,36/i_s,36/(alel-l_org)/5,36/(succ-l_org)/5,36/0
    022562  aa   000000 000003
    022563  aa   000000 003577
    022564  aa   000000 004110
    022565  aa   000000 000000
    022566  aa   040040 040040    1947  		vfd a36/    ,36/i_n,36/0,36/(fail-l_org)/5,36/0
    022567  aa   000000 000002
    022570  aa   000000 000000
    022571  aa   000000 004111
    022572  aa   000000 000000
    022573  aa   040040 040040    1948  	alel:	vfd a36/    ,36/i_c,36/c_altst,36/(l_603-l_org)/5,36/0
    022574  aa   000000 000001
    022575  aa   000000 000274
    022576  aa   000000 003601
    022577  aa   000000 000000
    022600  aa   040040 040040    1949  		vfd a36/    ,36/i_n,36/0,36/(fail-l_org)/5,36/0
    022601  aa   000000 000002
    022602  aa   000000 000000
    022603  aa   000000 004111
    022604  aa   000000 000000
    022605  aa   040040 040040    1950  l_603:	alel1:	vfd a36/    ,36/i_c,36/c_cstst,36/(l_604-l_org)/5,36/0
    022606  aa   000000 000001
    022607  aa   000000 000273
    022610  aa   000000 003603
    022611  aa   000000 000000
    022612  aa   040040 040040    1951  		vfd a36/    ,36/i_n,36/248,36/(l_604-l_org)/5,36/0
    022613  aa   000000 000002
    022614  aa   000000 000370
    022615  aa   000000 003603
    022616  aa   000000 000000
    022617  aa   040040 040040    1952  l_604:	alel2:	vfd a36/    ,36/i_s,36/(ident-l_org)/5,36/(succ-l_org)/5,36/0
    022620  aa   000000 000003
    022621  aa   000000 003462
    022622  aa   000000 004110
    022623  aa   000000 000000
    022624  aa   040040 040040    1953  		vfd a36/    ,36/i_n,36/0,36/(fail-l_org)/5,36/0
    022625  aa   000000 000002
    022626  aa   000000 000000
    022627  aa   000000 004111
    022630  aa   000000 000000
    022631  aa   040040 040040    1954  	edalel:	vfd a36/    ,36/i_c,36/c_edaltst,36/(alel1-l_org)/5,36/0
    022632  aa   000000 000001
    022633  aa   000000 000275
    022634  aa   000000 003601
    022635  aa   000000 000000
    022636  aa   040040 040040    1955  		vfd a36/    ,36/i_n,36/0,36/(fail-l_org)/5,36/0
    022637  aa   000000 000002
    022640  aa   000000 000000
    022641  aa   000000 004111
    022642  aa   000000 000000
    022643  aa   040040 040040    1956  	xnm:	vfd a36/    ,36/i_c,36/c_xnm,36/(l_605-l_org)/5,36/0
    022644  aa   000000 000001
    022645  aa   000000 000041
    022646  aa   000000 003611
    022647  aa   000000 000000
    022650  aa   040040 040040    1957  		vfd a36/    ,36/i_n,36/0,36/(fail-l_org)/5,36/0
    022651  aa   000000 000002
    022652  aa   000000 000000
    022653  aa   000000 004111
    022654  aa   000000 000000
    022655  aa   040040 040040    1958  l_605:		vfd a36/    ,36/i_c,36/c_cstst,36/(succ-l_org)/5,36/0
    022656  aa   000000 000001
    022657  aa   000000 000273
    022660  aa   000000 004110
    022661  aa   000000 000000
    022662  aa   040040 040040    1959  		vfd a36/    ,36/i_n,36/248,36/(succ-l_org)/5,36/0
    022663  aa   000000 000002
    022664  aa   000000 000370
    022665  aa   000000 004110
    022666  aa   000000 000000
    022667  aa   040040 040040    1960  	impseq:	vfd a36/    ,36/i_s,36/(imp-l_org)/5,36/(l_606-l_org)/5,36/0
    022670  aa   000000 000003
    022671  aa   000000 003624
    022672  aa   000000 003615
    022673  aa   000000 000000
    022674  aa   040040 040040    1961  		vfd a36/    ,36/i_n,36/0,36/(fail-l_org)/5,36/0
    022675  aa   000000 000002
    022676  aa   000000 000000
    022677  aa   000000 004111
    022700  aa   000000 000000
    022701  aa   163040 040040    1962  l_606:	imps1:	vfd a36/s   ,36/i_c,36/c_period,36/(l_607-l_org)/5,36/a_290
    022702  aa   000000 000001
    022703  aa   000000 000333
    022704  aa   000000 003617
    022705  aa   000000 000442
    022706  aa   040040 040040    1963  		vfd a36/    ,36/i_n,36/279,36/(rtwo-l_org)/5,36/0
    022707  aa   000000 000002
    022710  aa   000000 000427
    022711  aa   000000 004060
    022712  aa   000000 000000
    022713  aa   040040 040040    1964  l_607:		vfd a36/    ,36/i_s,36/(imp-l_org)/5,36/(imps1-l_org)/5,36/0
    022714  aa   000000 000003
    022715  aa   000000 003624
    022716  aa   000000 003615
    022717  aa   000000 000000
    022720  aa   040040 040040    1965  		vfd a36/    ,36/i_n,36/0,36/(succ-l_org)/5,36/0
    022721  aa   000000 000002
    022722  aa   000000 000000
    022723  aa   000000 004110
    022724  aa   000000 000000
    022725  aa   040040 040040    1966  	is_imp:	vfd a36/    ,36/i_s,36/(imp-l_org)/5,36/(l_608-l_org)/5,36/0
    022726  aa   000000 000003
    022727  aa   000000 003624
    022730  aa   000000 003622
    022731  aa   000000 000000
    022732  aa   040040 040040    1967  l_608:		vfd a36/    ,36/i_c,36/c_is_imp,36/(succ-l_org)/5,36/0
    022733  aa   000000 000001
    022734  aa   000000 000213
    022735  aa   000000 004110
    022736  aa   000000 000000
    022737  aa   040040 040040    1968  		vfd a36/    ,36/i_n,36/145,36/(rtwo-l_org)/5,36/0
    022740  aa   000000 000002
    022741  aa   000000 000221
    022742  aa   000000 004060
    022743  aa   000000 000000
    022744  aa   040040 040040    1969  	imp:	vfd a36/    ,36/i_c,36/c_paranm,36/(fail-l_org)/5,36/0
    022745  aa   000000 000001
    022746  aa   000000 000010
    022747  aa   000000 004111
    022750  aa   000000 000000
    022751  aa   040040 040040    1970  		vfd a36/    ,36/i_c,36/c_sechdr,36/(fail-l_org)/5,36/0
    022752  aa   000000 000001
    022753  aa   000000 000004
    022754  aa   000000 004111
    022755  aa   000000 000000
    022756  aa   040040 040040    1971  		vfd a36/    ,36/i_r,36/r_use,36/(fail-l_org)/5,36/0
    022757  aa   000000 000000
    022760  aa   000000 000047
    022761  aa   000000 004111
    022762  aa   000000 000000
    022763  aa   040040 040040    1972  		vfd a36/    ,36/i_c,36/c_enddec,36/(fail-l_org)/5,36/0
    022764  aa   000000 000001
    022765  aa   000000 000163
    022766  aa   000000 004111
    022767  aa   000000 000000
    022770  aa   040040 040040    1973  		vfd a36/    ,36/i_c,36/c_endcob,36/(fail-l_org)/5,36/0
    022771  aa   000000 000001
    022772  aa   000000 000047
    022773  aa   000000 004111
    022774  aa   000000 000000
    022775  aa   040040 040040    1974  		vfd a36/    ,36/i_n,36/0,36/(l_609-l_org)/5,36/a_90
    022776  aa   000000 000002
    022777  aa   000000 000000
    023000  aa   000000 003632
    023001  aa   000000 000132
    023002  aa   040040 040040    1975  l_609:		vfd a36/    ,36/i_c,36/c_verb,36/(l_610-l_org)/5,36/a_91
    023003  aa   000000 000001
    023004  aa   000000 000011
    023005  aa   000000 003634
    023006  aa   000000 000133
    023007  aa   040040 040040    1976  		vfd a36/    ,36/i_n,36/0,36/(fail-l_org)/5,36/0
    023010  aa   000000 000002
    023011  aa   000000 000000
    023012  aa   000000 004111
    023013  aa   000000 000000
    023014  aa   040040 040040    1977  l_610:	imp1:	vfd a36/    ,36/i_c,36/c_preosp,36/(l_611-l_org)/5,36/0
    023015  aa   000000 000001
    023016  aa   000000 000050
    023017  aa   000000 003637
    023020  aa   000000 000000
    023021  aa   040040 040040    1978  		vfd a36/    ,36/i_c,36/c_impvrb,36/(imp1-l_org)/5,36/a_112
    023022  aa   000000 000001
    023023  aa   000000 000051
    023024  aa   000000 003634
    023025  aa   000000 000160
    023026  aa   040040 040040    1979  		vfd a36/    ,36/i_n,36/145,36/(rtwo-l_org)/5,36/0
    023027  aa   000000 000002
    023030  aa   000000 000221
    023031  aa   000000 004060
    023032  aa   000000 000000
    023033  aa   040040 040040    1980  l_611:		vfd a36/    ,36/i_n,36/126,36/(rtwo-l_org)/5,36/0
    023034  aa   000000 000002
    023035  aa   000000 000176
    023036  aa   000000 004060
    023037  aa   000000 000000
    023040  aa   040040 040040    1981  	verb1:	vfd a36/    ,36/i_c,36/c_verb,36/(imp1-l_org)/5,36/0
    023041  aa   000000 000001
    023042  aa   000000 000011
    023043  aa   000000 003634
    023044  aa   000000 000000
    023045  aa   040040 040040    1982  		vfd a36/    ,36/i_n,36/0,36/(succ-l_org)/5,36/a_93
    023046  aa   000000 000002
    023047  aa   000000 000000
    023050  aa   000000 004110
    023051  aa   000000 000135
    023052  aa   163040 040040    1983  	ae:	vfd a36/s   ,36/i_r,36/r_at,36/(l_612-l_org)/5,36/0
    023053  aa   000000 000000
    023054  aa   000000 000117
    023055  aa   000000 003645
    023056  aa   000000 000000
    023057  aa   163040 040040    1984  		vfd a36/s   ,36/i_r,36/r_end,36/(succ-l_org)/5,36/a_85
    023060  aa   000000 000000
    023061  aa   000000 000142
    023062  aa   000000 004110
    023063  aa   000000 000125
    023064  aa   040040 040040    1985  		vfd a36/    ,36/i_n,36/0,36/(fail-l_org)/5,36/0
    023065  aa   000000 000002
    023066  aa   000000 000000
    023067  aa   000000 004111
    023070  aa   000000 000000
    023071  aa   163040 040040    1986  l_612:		vfd a36/s   ,36/i_r,36/r_end,36/(succ-l_org)/5,36/a_85
    023072  aa   000000 000000
    023073  aa   000000 000142
    023074  aa   000000 004110
    023075  aa   000000 000125
    023076  aa   040040 040040    1987  		vfd a36/    ,36/i_n,36/306,36/(rtwo-l_org)/5,36/0
    023077  aa   000000 000002
    023100  aa   000000 000462
    023101  aa   000000 004060
    023102  aa   000000 000000
    023103  aa   163040 040040    1988  	nae:	vfd a36/s   ,36/i_r,36/r_not,36/(l_613-l_org)/5,36/a_292
    023104  aa   000000 000000
    023105  aa   000000 000202
    023106  aa   000000 003652
    023107  aa   000000 000444
    023110  aa   040040 040040    1989  		vfd a36/    ,36/i_s,36/(ae-l_org)/5,36/(succ-l_org)/5,36/a_302
    023111  aa   000000 000003
    023112  aa   000000 003642
    023113  aa   000000 004110
    023114  aa   000000 000456
    023115  aa   040040 040040    1990  		vfd a36/    ,36/i_n,36/0,36/(fail-l_org)/5,36/0
    023116  aa   000000 000002
    023117  aa   000000 000000
    023120  aa   000000 004111
    023121  aa   000000 000000
    023122  aa   040040 040040    1991  l_613:		vfd a36/    ,36/i_s,36/(ae-l_org)/5,36/(succ-l_org)/5,36/a_302
    023123  aa   000000 000003
    023124  aa   000000 003642
    023125  aa   000000 004110
    023126  aa   000000 000456
    023127  aa   040040 040040    1992  		vfd a36/    ,36/i_n,36/139,36/(rtwo-l_org)/5,36/0
    023130  aa   000000 000002
    023131  aa   000000 000213
    023132  aa   000000 004060
    023133  aa   000000 000000
    023134  aa   040040 040040    1993  	aei:	vfd a36/    ,36/i_s,36/(is_imp-l_org)/5,36/(l_614-l_org)/5,36/0
    023135  aa   000000 000003
    023136  aa   000000 003621
    023137  aa   000000 003655
    023140  aa   000000 000000
    023141  aa   040040 040040    1994  l_614:		vfd a36/    ,36/i_c,36/c_not_opt,36/(aei2-l_org)/5,36/a_293
    023142  aa   000000 000001
    023143  aa   000000 000327
    023144  aa   000000 003671
    023145  aa   000000 000445
    023146  aa   163040 040040    1995  		vfd a36/s   ,36/i_r,36/r_not,36/(l_615-l_org)/5,36/a_294
    023147  aa   000000 000000
    023150  aa   000000 000202
    023151  aa   000000 003660
    023152  aa   000000 000446
    023153  aa   040040 040040    1996  		vfd a36/    ,36/i_n,36/0,36/(succ-l_org)/5,36/0
    023154  aa   000000 000002
    023155  aa   000000 000000
    023156  aa   000000 004110
    023157  aa   000000 000000
    023160  aa   040040 040040    1997  l_615:		vfd a36/    ,36/i_s,36/(ae-l_org)/5,36/(l_616-l_org)/5,36/a_195
    023161  aa   000000 000003
    023162  aa   000000 003642
    023163  aa   000000 003662
    023164  aa   000000 000303
    023165  aa   040040 040040    1998  		vfd a36/    ,36/i_n,36/139,36/(rtwo-l_org)/5,36/0
    023166  aa   000000 000002
    023167  aa   000000 000213
    023170  aa   000000 004060
    023171  aa   000000 000000
    023172  aa   040040 040040    1999  l_616:	aei1:	vfd a36/    ,36/i_s,36/(is_imp-l_org)/5,36/(l_617-l_org)/5,36/0
    023173  aa   000000 000003
    023174  aa   000000 003621
    023175  aa   000000 003663
    023176  aa   000000 000000
    023177  aa   163040 040040    2000  l_617:		vfd a36/s   ,36/i_r,36/r_not,36/(l_618-l_org)/5,36/a_294
    023200  aa   000000 000000
    023201  aa   000000 000202
    023202  aa   000000 003665
    023203  aa   000000 000446
    023204  aa   040040 040040    2001  		vfd a36/    ,36/i_n,36/0,36/(succ-l_org)/5,36/0
    023205  aa   000000 000002
    023206  aa   000000 000000
    023207  aa   000000 004110
    023210  aa   000000 000000
    023211  aa   040040 040040    2002  l_618:		vfd a36/    ,36/i_s,36/(ae-l_org)/5,36/(l_619-l_org)/5,36/0
    023212  aa   000000 000003
    023213  aa   000000 003642
    023214  aa   000000 003667
    023215  aa   000000 000000
    023216  aa   040040 040040    2003  		vfd a36/    ,36/i_n,36/139,36/(rtwo-l_org)/5,36/0
    023217  aa   000000 000002
    023220  aa   000000 000213
    023221  aa   000000 004060
    023222  aa   000000 000000
    023223  aa   040040 040040    2004  l_619:		vfd a36/    ,36/i_s,36/(is_imp-l_org)/5,36/(succ-l_org)/5,36/0
    023224  aa   000000 000003
    023225  aa   000000 003621
    023226  aa   000000 004110
    023227  aa   000000 000000
    023230  aa   040040 040040    2005  		vfd a36/    ,36/i_n,36/0,36/(succ-l_org)/5,36/0
    023231  aa   000000 000002
    023232  aa   000000 000000
    023233  aa   000000 004110
    023234  aa   000000 000000
    023235  aa   040040 040040    2006  	aei2:	vfd a36/    ,36/i_s,36/(ae-l_org)/5,36/(aei1-l_org)/5,36/a_195
    023236  aa   000000 000003
    023237  aa   000000 003642
    023240  aa   000000 003662
    023241  aa   000000 000303
    023242  aa   040040 040040    2007  		vfd a36/    ,36/i_n,36/0,36/(succ-l_org)/5,36/0
    023243  aa   000000 000002
    023244  aa   000000 000000
    023245  aa   000000 004110
    023246  aa   000000 000000
    023247  aa   163040 040040    2008  	ik:	vfd a36/s   ,36/i_r,36/r_invalid,36/(l_620-l_org)/5,36/0
    023250  aa   000000 000000
    023251  aa   000000 000165
    023252  aa   000000 003675
    023253  aa   000000 000000
    023254  aa   040040 040040    2009  		vfd a36/    ,36/i_n,36/0,36/(fail-l_org)/5,36/0
    023255  aa   000000 000002
    023256  aa   000000 000000
    023257  aa   000000 004111
    023260  aa   000000 000000
    023261  aa   163040 040040    2010  l_620:		vfd a36/s   ,36/i_r,36/r_key,36/(succ-l_org)/5,36/a_85
    023262  aa   000000 000000
    023263  aa   000000 000170
    023264  aa   000000 004110
    023265  aa   000000 000125
    023266  aa   040040 040040    2011  		vfd a36/    ,36/i_n,36/0,36/(succ-l_org)/5,36/a_85
    023267  aa   000000 000002
    023270  aa   000000 000000
    023271  aa   000000 004110
    023272  aa   000000 000125
    023273  aa   163040 040040    2012  	nik:	vfd a36/s   ,36/i_r,36/r_not,36/(l_621-l_org)/5,36/a_292
    023274  aa   000000 000000
    023275  aa   000000 000202
    023276  aa   000000 003702
    023277  aa   000000 000444
    023300  aa   040040 040040    2013  		vfd a36/    ,36/i_s,36/(ik-l_org)/5,36/(succ-l_org)/5,36/a_110
    023301  aa   000000 000003
    023302  aa   000000 003673
    023303  aa   000000 004110
    023304  aa   000000 000156
    023305  aa   040040 040040    2014  		vfd a36/    ,36/i_n,36/0,36/(fail-l_org)/5,36/0
    023306  aa   000000 000002
    023307  aa   000000 000000
    023310  aa   000000 004111
    023311  aa   000000 000000
    023312  aa   040040 040040    2015  l_621:		vfd a36/    ,36/i_s,36/(ik-l_org)/5,36/(succ-l_org)/5,36/a_110
    023313  aa   000000 000003
    023314  aa   000000 003673
    023315  aa   000000 004110
    023316  aa   000000 000156
    023317  aa   040040 040040    2016  		vfd a36/    ,36/i_n,36/111,36/(rtwo-l_org)/5,36/0
    023320  aa   000000 000002
    023321  aa   000000 000157
    023322  aa   000000 004060
    023323  aa   000000 000000
    023324  aa   040040 040040    2017  	iki:	vfd a36/    ,36/i_s,36/(is_imp-l_org)/5,36/(l_622-l_org)/5,36/0
    023325  aa   000000 000003
    023326  aa   000000 003621
    023327  aa   000000 003705
    023330  aa   000000 000000
    023331  aa   040040 040040    2018  l_622:		vfd a36/    ,36/i_c,36/c_not_opt,36/(iki2-l_org)/5,36/a_293
    023332  aa   000000 000001
    023333  aa   000000 000327
    023334  aa   000000 003721
    023335  aa   000000 000445
    023336  aa   163040 040040    2019  		vfd a36/s   ,36/i_r,36/r_not,36/(l_623-l_org)/5,36/a_294
    023337  aa   000000 000000
    023340  aa   000000 000202
    023341  aa   000000 003710
    023342  aa   000000 000446
    023343  aa   040040 040040    2020  		vfd a36/    ,36/i_n,36/0,36/(succ-l_org)/5,36/0
    023344  aa   000000 000002
    023345  aa   000000 000000
    023346  aa   000000 004110
    023347  aa   000000 000000
    023350  aa   040040 040040    2021  l_623:		vfd a36/    ,36/i_s,36/(ik-l_org)/5,36/(l_624-l_org)/5,36/a_195
    023351  aa   000000 000003
    023352  aa   000000 003673
    023353  aa   000000 003712
    023354  aa   000000 000303
    023355  aa   040040 040040    2022  		vfd a36/    ,36/i_n,36/111,36/(rtwo-l_org)/5,36/0
    023356  aa   000000 000002
    023357  aa   000000 000157
    023360  aa   000000 004060
    023361  aa   000000 000000
    023362  aa   040040 040040    2023  l_624:	iki1:	vfd a36/    ,36/i_s,36/(is_imp-l_org)/5,36/(l_625-l_org)/5,36/0
    023363  aa   000000 000003
    023364  aa   000000 003621
    023365  aa   000000 003713
    023366  aa   000000 000000
    023367  aa   163040 040040    2024  l_625:		vfd a36/s   ,36/i_r,36/r_not,36/(l_626-l_org)/5,36/a_294
    023370  aa   000000 000000
    023371  aa   000000 000202
    023372  aa   000000 003715
    023373  aa   000000 000446
    023374  aa   040040 040040    2025  		vfd a36/    ,36/i_n,36/0,36/(succ-l_org)/5,36/0
    023375  aa   000000 000002
    023376  aa   000000 000000
    023377  aa   000000 004110
    023400  aa   000000 000000
    023401  aa   040040 040040    2026  l_626:		vfd a36/    ,36/i_s,36/(ik-l_org)/5,36/(l_627-l_org)/5,36/0
    023402  aa   000000 000003
    023403  aa   000000 003673
    023404  aa   000000 003717
    023405  aa   000000 000000
    023406  aa   040040 040040    2027  		vfd a36/    ,36/i_n,36/111,36/(rtwo-l_org)/5,36/0
    023407  aa   000000 000002
    023410  aa   000000 000157
    023411  aa   000000 004060
    023412  aa   000000 000000
    023413  aa   040040 040040    2028  l_627:		vfd a36/    ,36/i_s,36/(is_imp-l_org)/5,36/(succ-l_org)/5,36/0
    023414  aa   000000 000003
    023415  aa   000000 003621
    023416  aa   000000 004110
    023417  aa   000000 000000
    023420  aa   040040 040040    2029  		vfd a36/    ,36/i_n,36/0,36/(succ-l_org)/5,36/0
    023421  aa   000000 000002
    023422  aa   000000 000000
    023423  aa   000000 004110
    023424  aa   000000 000000
    023425  aa   040040 040040    2030  	iki2:	vfd a36/    ,36/i_s,36/(ik-l_org)/5,36/(iki1-l_org)/5,36/a_195
    023426  aa   000000 000003
    023427  aa   000000 003673
    023430  aa   000000 003712
    023431  aa   000000 000303
    023432  aa   040040 040040    2031  		vfd a36/    ,36/i_n,36/0,36/(succ-l_org)/5,36/0
    023433  aa   000000 000002
    023434  aa   000000 000000
    023435  aa   000000 004110
    023436  aa   000000 000000
    023437  aa   163040 040040    2032  	ov:	vfd a36/s   ,36/i_r,36/r_on,36/(l_628-l_org)/5,36/0
    023440  aa   000000 000000
    023441  aa   000000 000206
    023442  aa   000000 003726
    023443  aa   000000 000000
    023444  aa   163040 040040    2033  		vfd a36/s   ,36/i_r,36/r_overflow,36/(succ-l_org)/5,36/a_85
    023445  aa   000000 000000
    023446  aa   000000 000006
    023447  aa   000000 004110
    023450  aa   000000 000125
    023451  aa   040040 040040    2034  		vfd a36/    ,36/i_n,36/0,36/(fail-l_org)/5,36/0
    023452  aa   000000 000002
    023453  aa   000000 000000
    023454  aa   000000 004111
    023455  aa   000000 000000
    023456  aa   163040 040040    2035  l_628:		vfd a36/s   ,36/i_r,36/r_overflow,36/(succ-l_org)/5,36/a_85
    023457  aa   000000 000000
    023460  aa   000000 000006
    023461  aa   000000 004110
    023462  aa   000000 000125
    023463  aa   040040 040040    2036  		vfd a36/    ,36/i_n,36/307,36/(rtwo-l_org)/5,36/0
    023464  aa   000000 000002
    023465  aa   000000 000463
    023466  aa   000000 004060
    023467  aa   000000 000000
    023470  aa   163040 040040    2037  	nov:	vfd a36/s   ,36/i_r,36/r_not,36/(l_629-l_org)/5,36/a_292
    023471  aa   000000 000000
    023472  aa   000000 000202
    023473  aa   000000 003733
    023474  aa   000000 000444
    023475  aa   040040 040040    2038  		vfd a36/    ,36/i_s,36/(ov-l_org)/5,36/(succ-l_org)/5,36/a_270
    023476  aa   000000 000003
    023477  aa   000000 003723
    023500  aa   000000 004110
    023501  aa   000000 000416
    023502  aa   040040 040040    2039  		vfd a36/    ,36/i_n,36/0,36/(fail-l_org)/5,36/0
    023503  aa   000000 000002
    023504  aa   000000 000000
    023505  aa   000000 004111
    023506  aa   000000 000000
    023507  aa   040040 040040    2040  l_629:		vfd a36/    ,36/i_s,36/(ov-l_org)/5,36/(succ-l_org)/5,36/a_270
    023510  aa   000000 000003
    023511  aa   000000 003723
    023512  aa   000000 004110
    023513  aa   000000 000416
    023514  aa   040040 040040    2041  		vfd a36/    ,36/i_n,36/261,36/(rtwo-l_org)/5,36/0
    023515  aa   000000 000002
    023516  aa   000000 000405
    023517  aa   000000 004060
    023520  aa   000000 000000
    023521  aa   040040 040040    2042  	ovi:	vfd a36/    ,36/i_s,36/(is_imp-l_org)/5,36/(l_630-l_org)/5,36/0
    023522  aa   000000 000003
    023523  aa   000000 003621
    023524  aa   000000 003736
    023525  aa   000000 000000
    023526  aa   040040 040040    2043  l_630:		vfd a36/    ,36/i_c,36/c_not_opt,36/(ovi2-l_org)/5,36/a_293
    023527  aa   000000 000001
    023530  aa   000000 000327
    023531  aa   000000 003752
    023532  aa   000000 000445
    023533  aa   163040 040040    2044  		vfd a36/s   ,36/i_r,36/r_not,36/(l_631-l_org)/5,36/a_294
    023534  aa   000000 000000
    023535  aa   000000 000202
    023536  aa   000000 003741
    023537  aa   000000 000446
    023540  aa   040040 040040    2045  		vfd a36/    ,36/i_n,36/0,36/(succ-l_org)/5,36/0
    023541  aa   000000 000002
    023542  aa   000000 000000
    023543  aa   000000 004110
    023544  aa   000000 000000
    023545  aa   040040 040040    2046  l_631:		vfd a36/    ,36/i_s,36/(ov-l_org)/5,36/(l_632-l_org)/5,36/a_195
    023546  aa   000000 000003
    023547  aa   000000 003723
    023550  aa   000000 003743
    023551  aa   000000 000303
    023552  aa   040040 040040    2047  		vfd a36/    ,36/i_n,36/261,36/(rtwo-l_org)/5,36/0
    023553  aa   000000 000002
    023554  aa   000000 000405
    023555  aa   000000 004060
    023556  aa   000000 000000
    023557  aa   040040 040040    2048  l_632:	ovi1:	vfd a36/    ,36/i_s,36/(is_imp-l_org)/5,36/(l_633-l_org)/5,36/0
    023560  aa   000000 000003
    023561  aa   000000 003621
    023562  aa   000000 003744
    023563  aa   000000 000000
    023564  aa   163040 040040    2049  l_633:		vfd a36/s   ,36/i_r,36/r_not,36/(l_634-l_org)/5,36/a_294
    023565  aa   000000 000000
    023566  aa   000000 000202
    023567  aa   000000 003746
    023570  aa   000000 000446
    023571  aa   040040 040040    2050  		vfd a36/    ,36/i_n,36/0,36/(succ-l_org)/5,36/0
    023572  aa   000000 000002
    023573  aa   000000 000000
    023574  aa   000000 004110
    023575  aa   000000 000000
    023576  aa   040040 040040    2051  l_634:		vfd a36/    ,36/i_s,36/(ov-l_org)/5,36/(l_635-l_org)/5,36/0
    023577  aa   000000 000003
    023600  aa   000000 003723
    023601  aa   000000 003750
    023602  aa   000000 000000
    023603  aa   040040 040040    2052  		vfd a36/    ,36/i_n,36/261,36/(rtwo-l_org)/5,36/0
    023604  aa   000000 000002
    023605  aa   000000 000405
    023606  aa   000000 004060
    023607  aa   000000 000000
    023610  aa   040040 040040    2053  l_635:		vfd a36/    ,36/i_s,36/(is_imp-l_org)/5,36/(succ-l_org)/5,36/0
    023611  aa   000000 000003
    023612  aa   000000 003621
    023613  aa   000000 004110
    023614  aa   000000 000000
    023615  aa   040040 040040    2054  		vfd a36/    ,36/i_n,36/0,36/(succ-l_org)/5,36/0
    023616  aa   000000 000002
    023617  aa   000000 000000
    023620  aa   000000 004110
    023621  aa   000000 000000
    023622  aa   040040 040040    2055  	ovi2:	vfd a36/    ,36/i_s,36/(ov-l_org)/5,36/(ovi1-l_org)/5,36/a_195
    023623  aa   000000 000003
    023624  aa   000000 003723
    023625  aa   000000 003743
    023626  aa   000000 000303
    023627  aa   040040 040040    2056  		vfd a36/    ,36/i_n,36/0,36/(succ-l_org)/5,36/0
    023630  aa   000000 000002
    023631  aa   000000 000000
    023632  aa   000000 004110
    023633  aa   000000 000000
    023634  aa   163040 040040    2057  	os:	vfd a36/s   ,36/i_r,36/r_on,36/(l_636-l_org)/5,36/0
    023635  aa   000000 000000
    023636  aa   000000 000206
    023637  aa   000000 003757
    023640  aa   000000 000000
    023641  aa   163040 040040    2058  		vfd a36/s   ,36/i_r,36/r_size,36/(os1-l_org)/5,36/0
    023642  aa   000000 000000
    023643  aa   000000 000241
    023644  aa   000000 003761
    023645  aa   000000 000000
    023646  aa   040040 040040    2059  		vfd a36/    ,36/i_n,36/0,36/(fail-l_org)/5,36/0
    023647  aa   000000 000002
    023650  aa   000000 000000
    023651  aa   000000 004111
    023652  aa   000000 000000
    023653  aa   163040 040040    2060  l_636:		vfd a36/s   ,36/i_r,36/r_size,36/(l_637-l_org)/5,36/0
    023654  aa   000000 000000
    023655  aa   000000 000241
    023656  aa   000000 003761
    023657  aa   000000 000000
    023660  aa   040040 040040    2061  		vfd a36/    ,36/i_n,36/308,36/(rtwo-l_org)/5,36/0
    023661  aa   000000 000002
    023662  aa   000000 000464
    023663  aa   000000 004060
    023664  aa   000000 000000
    023665  aa   163040 040040    2062  l_637:	os1:	vfd a36/s   ,36/i_r,36/r_error,36/(succ-l_org)/5,36/a_85
    023666  aa   000000 000000
    023667  aa   000000 000003
    023670  aa   000000 004110
    023671  aa   000000 000125
    023672  aa   040040 040040    2063  		vfd a36/    ,36/i_n,36/309,36/(rtwo-l_org)/5,36/0
    023673  aa   000000 000002
    023674  aa   000000 000465
    023675  aa   000000 004060
    023676  aa   000000 000000
    023677  aa   163040 040040    2064  	nos:	vfd a36/s   ,36/i_r,36/r_not,36/(l_638-l_org)/5,36/a_292
    023700  aa   000000 000000
    023701  aa   000000 000202
    023702  aa   000000 003766
    023703  aa   000000 000444
    023704  aa   040040 040040    2065  		vfd a36/    ,36/i_s,36/(os-l_org)/5,36/(succ-l_org)/5,36/a_301
    023705  aa   000000 000003
    023706  aa   000000 003754
    023707  aa   000000 004110
    023710  aa   000000 000455
    023711  aa   040040 040040    2066  		vfd a36/    ,36/i_n,36/0,36/(fail-l_org)/5,36/0
    023712  aa   000000 000002
    023713  aa   000000 000000
    023714  aa   000000 004111
    023715  aa   000000 000000
    023716  aa   040040 040040    2067  l_638:		vfd a36/    ,36/i_s,36/(os-l_org)/5,36/(succ-l_org)/5,36/a_301
    023717  aa   000000 000003
    023720  aa   000000 003754
    023721  aa   000000 004110
    023722  aa   000000 000455
    023723  aa   040040 040040    2068  		vfd a36/    ,36/i_n,36/143,36/(rtwo-l_org)/5,36/0
    023724  aa   000000 000002
    023725  aa   000000 000217
    023726  aa   000000 004060
    023727  aa   000000 000000
    023730  aa   040040 040040    2069  	osi:	vfd a36/    ,36/i_s,36/(is_imp-l_org)/5,36/(l_639-l_org)/5,36/0
    023731  aa   000000 000003
    023732  aa   000000 003621
    023733  aa   000000 003771
    023734  aa   000000 000000
    023735  aa   040040 040040    2070  l_639:		vfd a36/    ,36/i_c,36/c_not_opt,36/(osi2-l_org)/5,36/a_293
    023736  aa   000000 000001
    023737  aa   000000 000327
    023740  aa   000000 004005
    023741  aa   000000 000445
    023742  aa   163040 040040    2071  		vfd a36/s   ,36/i_r,36/r_not,36/(l_640-l_org)/5,36/a_294
    023743  aa   000000 000000
    023744  aa   000000 000202
    023745  aa   000000 003774
    023746  aa   000000 000446
    023747  aa   040040 040040    2072  		vfd a36/    ,36/i_n,36/0,36/(succ-l_org)/5,36/0
    023750  aa   000000 000002
    023751  aa   000000 000000
    023752  aa   000000 004110
    023753  aa   000000 000000
    023754  aa   040040 040040    2073  l_640:		vfd a36/    ,36/i_s,36/(os-l_org)/5,36/(l_641-l_org)/5,36/a_195
    023755  aa   000000 000003
    023756  aa   000000 003754
    023757  aa   000000 003776
    023760  aa   000000 000303
    023761  aa   040040 040040    2074  		vfd a36/    ,36/i_n,36/143,36/(rtwo-l_org)/5,36/0
    023762  aa   000000 000002
    023763  aa   000000 000217
    023764  aa   000000 004060
    023765  aa   000000 000000
    023766  aa   040040 040040    2075  l_641:	osi1:	vfd a36/    ,36/i_s,36/(is_imp-l_org)/5,36/(l_642-l_org)/5,36/0
    023767  aa   000000 000003
    023770  aa   000000 003621
    023771  aa   000000 003777
    023772  aa   000000 000000
    023773  aa   163040 040040    2076  l_642:		vfd a36/s   ,36/i_r,36/r_not,36/(l_643-l_org)/5,36/a_294
    023774  aa   000000 000000
    023775  aa   000000 000202
    023776  aa   000000 004001
    023777  aa   000000 000446
    024000  aa   040040 040040    2077  		vfd a36/    ,36/i_n,36/0,36/(succ-l_org)/5,36/0
    024001  aa   000000 000002
    024002  aa   000000 000000
    024003  aa   000000 004110
    024004  aa   000000 000000
    024005  aa   040040 040040    2078  l_643:		vfd a36/    ,36/i_s,36/(os-l_org)/5,36/(l_644-l_org)/5,36/0
    024006  aa   000000 000003
    024007  aa   000000 003754
    024010  aa   000000 004003
    024011  aa   000000 000000
    024012  aa   040040 040040    2079  		vfd a36/    ,36/i_n,36/143,36/(rtwo-l_org)/5,36/0
    024013  aa   000000 000002
    024014  aa   000000 000217
    024015  aa   000000 004060
    024016  aa   000000 000000
    024017  aa   040040 040040    2080  l_644:		vfd a36/    ,36/i_s,36/(is_imp-l_org)/5,36/(succ-l_org)/5,36/0
    024020  aa   000000 000003
    024021  aa   000000 003621
    024022  aa   000000 004110
    024023  aa   000000 000000
    024024  aa   040040 040040    2081  		vfd a36/    ,36/i_n,36/0,36/(succ-l_org)/5,36/0
    024025  aa   000000 000002
    024026  aa   000000 000000
    024027  aa   000000 004110
    024030  aa   000000 000000
    024031  aa   040040 040040    2082  	osi2:	vfd a36/    ,36/i_s,36/(os-l_org)/5,36/(osi1-l_org)/5,36/a_195
    024032  aa   000000 000003
    024033  aa   000000 003754
    024034  aa   000000 003776
    024035  aa   000000 000303
    024036  aa   040040 040040    2083  		vfd a36/    ,36/i_n,36/0,36/(succ-l_org)/5,36/0
    024037  aa   000000 000002
    024040  aa   000000 000000
    024041  aa   000000 004110
    024042  aa   000000 000000
    024043  aa   163040 040040    2084  	eop:	vfd a36/s   ,36/i_r,36/r_at,36/(l_645-l_org)/5,36/0
    024044  aa   000000 000000
    024045  aa   000000 000117
    024046  aa   000000 004012
    024047  aa   000000 000000
    024050  aa   163040 040040    2085  		vfd a36/s   ,36/i_r,36/r_eop,36/(succ-l_org)/5,36/a_85
    024051  aa   000000 000000
    024052  aa   000000 000144
    024053  aa   000000 004110
    024054  aa   000000 000125
    024055  aa   040040 040040    2086  		vfd a36/    ,36/i_n,36/0,36/(fail-l_org)/5,36/0
    024056  aa   000000 000002
    024057  aa   000000 000000
    024060  aa   000000 004111
    024061  aa   000000 000000
    024062  aa   163040 040040    2087  l_645:		vfd a36/s   ,36/i_r,36/r_eop,36/(succ-l_org)/5,36/a_85
    024063  aa   000000 000000
    024064  aa   000000 000144
    024065  aa   000000 004110
    024066  aa   000000 000125
    024067  aa   040040 040040    2088  		vfd a36/    ,36/i_n,36/305,36/(rtwo-l_org)/5,36/0
    024070  aa   000000 000002
    024071  aa   000000 000461
    024072  aa   000000 004060
    024073  aa   000000 000000
    024074  aa   163040 040040    2089  	neop:	vfd a36/s   ,36/i_r,36/r_not,36/(l_646-l_org)/5,36/a_292
    024075  aa   000000 000000
    024076  aa   000000 000202
    024077  aa   000000 004017
    024100  aa   000000 000444
    024101  aa   040040 040040    2090  		vfd a36/    ,36/i_s,36/(eop-l_org)/5,36/(succ-l_org)/5,36/a_304
    024102  aa   000000 000003
    024103  aa   000000 004007
    024104  aa   000000 004110
    024105  aa   000000 000460
    024106  aa   040040 040040    2091  		vfd a36/    ,36/i_n,36/0,36/(fail-l_org)/5,36/0
    024107  aa   000000 000002
    024110  aa   000000 000000
    024111  aa   000000 004111
    024112  aa   000000 000000
    024113  aa   040040 040040    2092  l_646:		vfd a36/    ,36/i_s,36/(eop-l_org)/5,36/(succ-l_org)/5,36/a_304
    024114  aa   000000 000003
    024115  aa   000000 004007
    024116  aa   000000 004110
    024117  aa   000000 000460
    024120  aa   040040 040040    2093  		vfd a36/    ,36/i_n,36/171,36/(rtwo-l_org)/5,36/0
    024121  aa   000000 000002
    024122  aa   000000 000253
    024123  aa   000000 004060
    024124  aa   000000 000000
    024125  aa   040040 040040    2094  	eopi:	vfd a36/    ,36/i_s,36/(is_imp-l_org)/5,36/(l_647-l_org)/5,36/0
    024126  aa   000000 000003
    024127  aa   000000 003621
    024130  aa   000000 004022
    024131  aa   000000 000000
    024132  aa   040040 040040    2095  l_647:		vfd a36/    ,36/i_c,36/c_not_opt,36/(eopi2-l_org)/5,36/a_293
    024133  aa   000000 000001
    024134  aa   000000 000327
    024135  aa   000000 004035
    024136  aa   000000 000445
    024137  aa   163040 040040    2096  		vfd a36/s   ,36/i_r,36/r_not,36/(l_648-l_org)/5,36/a_294
    024140  aa   000000 000000
    024141  aa   000000 000202
    024142  aa   000000 004025
    024143  aa   000000 000446
    024144  aa   040040 040040    2097  		vfd a36/    ,36/i_n,36/0,36/(succ-l_org)/5,36/0
    024145  aa   000000 000002
    024146  aa   000000 000000
    024147  aa   000000 004110
    024150  aa   000000 000000
    024151  aa   040040 040040    2098  l_648:		vfd a36/    ,36/i_s,36/(eop-l_org)/5,36/(l_649-l_org)/5,36/a_195
    024152  aa   000000 000003
    024153  aa   000000 004007
    024154  aa   000000 004027
    024155  aa   000000 000303
    024156  aa   040040 040040    2099  		vfd a36/    ,36/i_n,36/171,36/(rtwo-l_org)/5,36/0
    024157  aa   000000 000002
    024160  aa   000000 000253
    024161  aa   000000 004060
    024162  aa   000000 000000
    024163  aa   040040 040040    2100  l_649:	eopi1:	vfd a36/    ,36/i_s,36/(is_imp-l_org)/5,36/(l_650-l_org)/5,36/0
    024164  aa   000000 000003
    024165  aa   000000 003621
    024166  aa   000000 004030
    024167  aa   000000 000000
    024170  aa   163040 040040    2101  l_650:		vfd a36/s   ,36/i_r,36/r_not,36/(l_651-l_org)/5,36/a_294
    024171  aa   000000 000000
    024172  aa   000000 000202
    024173  aa   000000 004032
    024174  aa   000000 000446
    024175  aa   040040 040040    2102  		vfd a36/    ,36/i_n,36/0,36/(succ-l_org)/5,36/0
    024176  aa   000000 000002
    024177  aa   000000 000000
    024200  aa   000000 004110
    024201  aa   000000 000000
    024202  aa   040040 040040    2103  l_651:		vfd a36/    ,36/i_s,36/171,36/(rtwo-l_org)/5,36/0
    024203  aa   000000 000003
    024204  aa   000000 000253
    024205  aa   000000 004060
    024206  aa   000000 000000
    024207  aa   040040 040040    2104  l_652:		vfd a36/    ,36/i_s,36/(is_imp-l_org)/5,36/(succ-l_org)/5,36/0
    024210  aa   000000 000003
    024211  aa   000000 003621
    024212  aa   000000 004110
    024213  aa   000000 000000
    024214  aa   040040 040040    2105  		vfd a36/    ,36/i_s,36/(succ-l_org)/5,36/(l_653-l_org)/5,36/0
    024215  aa   000000 000003
    024216  aa   000000 004110
    024217  aa   000000 004035
    024220  aa   000000 000000
    024221  aa   040040 040040    2106  l_653:	eopi2:	vfd a36/    ,36/i_s,36/(eop-l_org)/5,36/(eopi1-l_org)/5,36/a_195
    024222  aa   000000 000003
    024223  aa   000000 004007
    024224  aa   000000 004027
    024225  aa   000000 000303
    024226  aa   040040 040040    2107  		vfd a36/    ,36/i_n,36/0,36/(succ-l_org)/5,36/0
    024227  aa   000000 000002
    024230  aa   000000 000000
    024231  aa   000000 004110
    024232  aa   000000 000000
    024233  aa   163040 040040    2108  	wd:	vfd a36/s   ,36/i_r,36/r_with,36/(l_654-l_org)/5,36/0
    024234  aa   000000 000000
    024235  aa   000000 000263
    024236  aa   000000 004042
    024237  aa   000000 000000
    024240  aa   163040 040040    2109  		vfd a36/s   ,36/i_r,36/r_data,36/(succ-l_org)/5,36/a_85
    024241  aa   000000 000000
    024242  aa   000000 000304
    024243  aa   000000 004110
    024244  aa   000000 000125
    024245  aa   040040 040040    2110  		vfd a36/    ,36/i_n,36/0,36/(fail-l_org)/5,36/0
    024246  aa   000000 000002
    024247  aa   000000 000000
    024250  aa   000000 004111
    024251  aa   000000 000000
    024252  aa   163040 040040    2111  l_654:		vfd a36/s   ,36/i_r,36/r_data,36/(succ-l_org)/5,36/a_85
    024253  aa   000000 000000
    024254  aa   000000 000304
    024255  aa   000000 004110
    024256  aa   000000 000125
    024257  aa   040040 040040    2112  		vfd a36/    ,36/i_n,36/333,36/(rtwo-l_org)/5,36/0
    024260  aa   000000 000002
    024261  aa   000000 000515
    024262  aa   000000 004060
    024263  aa   000000 000000
    024264  aa   163040 040040    2113  	nd:	vfd a36/s   ,36/i_r,36/r_no,36/(l_655-l_org)/5,36/0
    024265  aa   000000 000000
    024266  aa   000000 000201
    024267  aa   000000 004046
    024270  aa   000000 000000
    024271  aa   040040 040040    2114  		vfd a36/    ,36/i_n,36/0,36/(fail-l_org)/5,36/0
    024272  aa   000000 000002
    024273  aa   000000 000000
    024274  aa   000000 004111
    024275  aa   000000 000000
    024276  aa   163040 040040    2115  l_655:		vfd a36/s   ,36/i_r,36/r_data,36/(succ-l_org)/5,36/0
    024277  aa   000000 000000
    024300  aa   000000 000304
    024301  aa   000000 004110
    024302  aa   000000 000000
    024303  aa   040040 040040    2116  		vfd a36/    ,36/i_n,36/333,36/(rtwo-l_org)/5,36/0
    024304  aa   000000 000002
    024305  aa   000000 000515
    024306  aa   000000 004060
    024307  aa   000000 000000
    024310  aa   040040 040040    2117  	rone:	vfd a36/    ,36/i_n,36/164,36/(rone_1-l_org)/5,36/0
    024311  aa   000000 000002
    024312  aa   000000 000244
    024313  aa   000000 004052
    024314  aa   000000 000000
    024315  aa   040040 040040    2118  	ronea:	vfd a36/    ,36/i_n,36/165,36/(pd_1-l_org)/5,36/0
    024316  aa   000000 000002
    024317  aa   000000 000245
    024320  aa   000000 000125
    024321  aa   000000 000000
    024322  aa   040040 040040    2119  	rone_1:	vfd a36/    ,36/i_c,36/c_prdef,36/(ronea-l_org)/5,36/0
    024323  aa   000000 000001
    024324  aa   000000 000010
    024325  aa   000000 004051
    024326  aa   000000 000000
    024327  aa   040040 040040    2120  		vfd a36/    ,36/i_c,36/c_endcob,36/(ronea-l_org)/5,36/0
    024330  aa   000000 000001
    024331  aa   000000 000047
    024332  aa   000000 004051
    024333  aa   000000 000000
    024334  aa   040040 040040    2121  		vfd a36/    ,36/i_c,36/c_verb,36/(ronea-l_org)/5,36/0
    024335  aa   000000 000001
    024336  aa   000000 000011
    024337  aa   000000 004051
    024340  aa   000000 000000
    024341  aa   163040 040040    2122  		vfd a36/s   ,36/i_r,36/r_per,36/(ronea-l_org)/5,36/a_274
    024342  aa   000000 000000
    024343  aa   000000 000275
    024344  aa   000000 004051
    024345  aa   000000 000422
    024346  aa   040040 040040    2123  		vfd a36/    ,36/i_r,36/r_declaratives,36/(ronea-l_org)/5,36/0
    024347  aa   000000 000000
    024350  aa   000000 000131
    024351  aa   000000 004051
    024352  aa   000000 000000
    024353  aa   163040 040040    2124  		vfd a36/s   ,36/i_n,36/0,36/(rone_1-l_org)/5,36/0
    024354  aa   000000 000002
    024355  aa   000000 000000
    024356  aa   000000 004052
    024357  aa   000000 000000
    024360  aa   040040 040040    2125  	rtwo:	vfd a36/    ,36/i_n,36/164,36/(rtwo_1-l_org)/5,36/0
    024361  aa   000000 000002
    024362  aa   000000 000244
    024363  aa   000000 004062
    024364  aa   000000 000000
    024365  aa   040040 040040    2126  	rtwob:	vfd a36/    ,36/i_n,36/165,36/(palp_3-l_org)/5,36/a_130
    024366  aa   000000 000002
    024367  aa   000000 000245
    024370  aa   000000 000372
    024371  aa   000000 000202
    024372  aa   040040 040040    2127  	rtwo_1:	vfd a36/    ,36/i_c,36/c_prdef,36/(rtwob-l_org)/5,36/a_274
    024373  aa   000000 000001
    024374  aa   000000 000010
    024375  aa   000000 004061
    024376  aa   000000 000422
    024377  aa   040040 040040    2128  		vfd a36/    ,36/i_c,36/c_endcob,36/(rtwob-l_org)/5,36/a_274
    024400  aa   000000 000001
    024401  aa   000000 000047
    024402  aa   000000 004061
    024403  aa   000000 000422
    024404  aa   040040 040040    2129  		vfd a36/    ,36/i_c,36/c_verb,36/(rtwob-l_org)/5,36/0
    024405  aa   000000 000001
    024406  aa   000000 000011
    024407  aa   000000 004061
    024410  aa   000000 000000
    024411  aa   163040 040040    2130  		vfd a36/s   ,36/i_r,36/r_per,36/(rtwob-l_org)/5,36/a_273
    024412  aa   000000 000000
    024413  aa   000000 000275
    024414  aa   000000 004061
    024415  aa   000000 000421
    024416  aa   040040 040040    2131  		vfd a36/    ,36/i_c,36/c_deswon,36/(l_656-l_org)/5,36/0
    024417  aa   000000 000001
    024420  aa   000000 000132
    024421  aa   000000 004070
    024422  aa   000000 000000
    024423  aa   163040 040040    2132  		vfd a36/s   ,36/i_n,36/0,36/(rtwo_1-l_org)/5,36/0
    024424  aa   000000 000002
    024425  aa   000000 000000
    024426  aa   000000 004062
    024427  aa   000000 000000
    024430  aa   040040 040040    2133  l_656:		vfd a36/    ,36/i_c,36/c_enddec,36/(rtwob-l_org)/5,36/0
    024431  aa   000000 000001
    024432  aa   000000 000163
    024433  aa   000000 004061
    024434  aa   000000 000000
    024435  aa   163040 040040    2134  		vfd a36/s   ,36/i_n,36/0,36/(rtwo_1-l_org)/5,36/0
    024436  aa   000000 000002
    024437  aa   000000 000000
    024440  aa   000000 004062
    024441  aa   000000 000000
    024442  aa   040040 040040    2135  	rthr:	vfd a36/    ,36/i_n,36/164,36/(rthr_1-l_org)/5,36/0
    024443  aa   000000 000002
    024444  aa   000000 000244
    024445  aa   000000 004076
    024446  aa   000000 000000
    024447  aa   040040 040040    2136  	rthrb:	vfd a36/    ,36/i_n,36/165,36/(proc-l_org)/5,36/a_130
    024450  aa   000000 000002
    024451  aa   000000 000245
    024452  aa   000000 000312
    024453  aa   000000 000202
    024454  aa   040040 040040    2137  	rthrc:	vfd a36/    ,36/i_n,36/165,36/(palp_3-l_org)/5,36/a_130
    024455  aa   000000 000002
    024456  aa   000000 000245
    024457  aa   000000 000372
    024460  aa   000000 000202
    024461  aa   040040 040040    2138  	rthre:	vfd a36/    ,36/i_n,36/165,36/(use-l_org)/5,36/a_130
    024462  aa   000000 000002
    024463  aa   000000 000245
    024464  aa   000000 000155
    024465  aa   000000 000202
    024466  aa   040040 040040    2139  	rthr_1:	vfd a36/    ,36/i_c,36/c_sechdr,36/(rthrb-l_org)/5,36/a_273
    024467  aa   000000 000001
    024470  aa   000000 000004
    024471  aa   000000 004073
    024472  aa   000000 000421
    024473  aa   040040 040040    2140  		vfd a36/    ,36/i_c,36/c_prdef,36/(rthrb-l_org)/5,36/0
    024474  aa   000000 000001
    024475  aa   000000 000010
    024476  aa   000000 004073
    024477  aa   000000 000000
    024500  aa   040040 040040    2141  		vfd a36/    ,36/i_c,36/c_enddec,36/(rthrb-l_org)/5,36/0
    024501  aa   000000 000001
    024502  aa   000000 000163
    024503  aa   000000 004073
    024504  aa   000000 000000
    024505  aa   040040 040040    2142  		vfd a36/    ,36/i_c,36/c_endcob,36/(rthrb-l_org)/5,36/a_273
    024506  aa   000000 000001
    024507  aa   000000 000047
    024510  aa   000000 004073
    024511  aa   000000 000421
    024512  aa   040040 040040    2143  		vfd a36/    ,36/i_r,36/r_use,36/(rthre-l_org)/5,36/0
    024513  aa   000000 000000
    024514  aa   000000 000047
    024515  aa   000000 004075
    024516  aa   000000 000000
    024517  aa   040040 040040    2144  		vfd a36/    ,36/i_c,36/c_verb,36/(rthrc-l_org)/5,36/0
    024520  aa   000000 000001
    024521  aa   000000 000011
    024522  aa   000000 004074
    024523  aa   000000 000000
    024524  aa   163040 040040    2145  		vfd a36/s   ,36/i_r,36/r_per,36/(rthr_1-l_org)/5,36/a_273
    024525  aa   000000 000000
    024526  aa   000000 000275
    024527  aa   000000 004076
    024530  aa   000000 000421
    024531  aa   163040 040040    2146  		vfd a36/s   ,36/i_n,36/0,36/(rthr_1-l_org)/5,36/0
    024532  aa   000000 000002
    024533  aa   000000 000000
    024534  aa   000000 004076
    024535  aa   000000 000000
    024536  aa   040040 040040    2147  	rfiv:	vfd a36/    ,36/i_r,36/r_section,36/(sec-l_org)/5,36/0
    024537  aa   000000 000000
    024540  aa   000000 000236
    024541  aa   000000 000341
    024542  aa   000000 000000
    024543  aa   163040 040040    2148  		vfd a36/s   ,36/i_n,36/0,36/(rfiv-l_org)/5,36/0
    024544  aa   000000 000002
    024545  aa   000000 000000
    024546  aa   000000 004106
    024547  aa   000000 000000
    024550  aa   040040 040040    2149  	succ:	vfd a36/    ,36/i_n,36/0,36/(succ-l_org)/5,36/a_1
    024551  aa   000000 000002
    024552  aa   000000 000000
    024553  aa   000000 004110
    024554  aa   000000 000001
    024555  aa   040040 040040    2150  	fail:	vfd a36/    ,36/i_n,36/0,36/(fail-l_org)/5,36/a_2
    024556  aa   000000 000002
    024557  aa   000000 000000
    024560  aa   000000 004111
    024561  aa   000000 000002
    024562  aa   040040 040040    2151  	expr:	vfd a36/    ,36/i_n,36/0,36/(l_657-l_org)/5,36/a_220
    024563  aa   000000 000002
    024564  aa   000000 000000
    024565  aa   000000 004113
    024566  aa   000000 000334
    024567  aa   163040 040040    2152  l_657:		vfd a36/s   ,36/i_r,36/r_lt,36/(l_657-l_org)/5,36/a_221
    024570  aa   000000 000000
    024571  aa   000000 000273
    024572  aa   000000 004113
    024573  aa   000000 000335
    024574  aa   040040 040040    2153  		vfd a36/    ,36/i_s,36/(arithexp-l_org)/5,36/(l_658-l_org)/5,36/0
    024575  aa   000000 000003
    024576  aa   000000 004265
    024577  aa   000000 004116
    024600  aa   000000 000000
    024601  aa   040040 040040    2154  		vfd a36/    ,36/i_n,36/0,36/(ctrm-l_org)/5,36/0
    024602  aa   000000 000002
    024603  aa   000000 000000
    024604  aa   000000 004122
    024605  aa   000000 000000
    024606  aa   040040 040040    2155  l_658:		vfd a36/    ,36/i_c,36/c_is_rel,36/(infix_rel-l_org)/5,36/0
    024607  aa   000000 000001
    024610  aa   000000 000125
    024611  aa   000000 004151
    024612  aa   000000 000000
    024613  aa   040040 040040    2156  		vfd a36/    ,36/i_n,36/0,36/(succ-l_org)/5,36/a_258
    024614  aa   000000 000002
    024615  aa   000000 000000
    024616  aa   000000 004110
    024617  aa   000000 000402
    024620  aa   040040 040040    2157  	condition:	vfd a36/    ,36/i_n,36/0,36/(l_659-l_org)/5,36/a_220
    024621  aa   000000 000002
    024622  aa   000000 000000
    024623  aa   000000 004121
    024624  aa   000000 000334
    024625  aa   163040 040040    2158  l_659:	lpar:	vfd a36/s   ,36/i_r,36/r_lt,36/(lpar-l_org)/5,36/a_221
    024626  aa   000000 000000
    024627  aa   000000 000273
    024630  aa   000000 004121
    024631  aa   000000 000335
    024632  aa   040040 040040    2159  	ctrm:	vfd a36/    ,36/i_s,36/(relop-l_org)/5,36/(imp_subj-l_org)/5,36/0
    024633  aa   000000 000003
    024634  aa   000000 004242
    024635  aa   000000 004203
    024636  aa   000000 000000
    024637  aa   163040 040040    2160  		vfd a36/s   ,36/i_r,36/r_not,36/(not_cond-l_org)/5,36/a_297
    024640  aa   000000 000000
    024641  aa   000000 000202
    024642  aa   000000 004135
    024643  aa   000000 000451
    024644  aa   163040 040040    2161  		vfd a36/s   ,36/i_r,36/r_is,36/(is_cond-l_org)/5,36/0
    024645  aa   000000 000000
    024646  aa   000000 000166
    024647  aa   000000 004143
    024650  aa   000000 000000
    024651  aa   040040 040040    2162  		vfd a36/    ,36/i_s,36/(pos_rel-l_org)/5,36/(imp_subj-l_org)/5,36/0
    024652  aa   000000 000003
    024653  aa   000000 004231
    024654  aa   000000 004203
    024655  aa   000000 000000
    024656  aa   163040 040040    2163  		vfd a36/s   ,36/i_r,36/r_message,36/(l_660-l_org)/5,36/a_224
    024657  aa   000000 000000
    024660  aa   000000 000176
    024661  aa   000000 004132
    024662  aa   000000 000340
    024663  aa   040040 040040    2164  		vfd a36/    ,36/i_s,36/(condop-l_org)/5,36/(infix_rel-l_org)/5,36/a_264
    024664  aa   000000 000003
    024665  aa   000000 004247
    024666  aa   000000 004151
    024667  aa   000000 000410
    024670  aa   040157 040040    2165  		vfd a36/ o  ,36/i_c,36/c_sscondnm,36/(bop2-l_org)/5,36/a_219
    024671  aa   000000 000001
    024672  aa   000000 000206
    024673  aa   000000 004207
    024674  aa   000000 000333
    024675  aa   040040 040040    2166  		vfd a36/    ,36/i_n,36/210,36/(rtwo-l_org)/5,36/0
    024676  aa   000000 000002
    024677  aa   000000 000322
    024700  aa   000000 004060
    024701  aa   000000 000000
    024702  aa   163040 040040    2167  l_660:		vfd a36/s   ,36/i_r,36/r_for,36/(l_661-l_org)/5,36/0
    024703  aa   000000 000000
    024704  aa   000000 000156
    024705  aa   000000 004133
    024706  aa   000000 000000
    024707  aa   163157 040040    2168  l_661:		vfd a36/so  ,36/i_c,36/c_incdnm,36/(bop-l_org)/5,36/a_325
    024710  aa   000000 000001
    024711  aa   000000 000022
    024712  aa   000000 004210
    024713  aa   000000 000505
    024714  aa   040040 040040    2169  		vfd a36/    ,36/i_n,36/207,36/(rtwo-l_org)/5,36/0
    024715  aa   000000 000002
    024716  aa   000000 000317
    024717  aa   000000 004060
    024720  aa   000000 000000
    024721  aa   040040 040040    2170  	not_cond:	vfd a36/    ,36/i_r,36/r_lt,36/(not_cond1-l_org)/5,36/a_222
    024722  aa   000000 000000
    024723  aa   000000 000273
    024724  aa   000000 004142
    024725  aa   000000 000336
    024726  aa   040040 040040    2171  		vfd a36/    ,36/i_s,36/(relop-l_org)/5,36/(imp_subj-l_org)/5,36/a_223
    024727  aa   000000 000003
    024730  aa   000000 004242
    024731  aa   000000 004203
    024732  aa   000000 000337
    024733  aa   040040 040040    2172  		vfd a36/    ,36/i_n,36/0,36/(l_662-l_org)/5,36/a_222
    024734  aa   000000 000002
    024735  aa   000000 000000
    024736  aa   000000 004140
    024737  aa   000000 000336
    024740  aa   163040 040040    2173  l_662:		vfd a36/s   ,36/i_r,36/r_not,36/(rel-l_org)/5,36/a_223
    024741  aa   000000 000000
    024742  aa   000000 000202
    024743  aa   000000 004202
    024744  aa   000000 000337
    024745  aa   040040 040040    2174  		vfd a36/    ,36/i_n,36/0,36/(ctrm-l_org)/5,36/0
    024746  aa   000000 000002
    024747  aa   000000 000000
    024750  aa   000000 004122
    024751  aa   000000 000000
    024752  aa   040040 040040    2175  	not_cond1:	vfd a36/    ,36/i_n,36/0,36/(lpar-l_org)/5,36/a_298
    024753  aa   000000 000002
    024754  aa   000000 000000
    024755  aa   000000 004121
    024756  aa   000000 000452
    024757  aa   163040 040040    2176  	is_cond:	vfd a36/s   ,36/i_r,36/r_not,36/(rel-l_org)/5,36/a_223
    024760  aa   000000 000000
    024761  aa   000000 000202
    024762  aa   000000 004202
    024763  aa   000000 000337
    024764  aa   040040 040040    2177  		vfd a36/    ,36/i_s,36/(relop-l_org)/5,36/(imp_subj-l_org)/5,36/0
    024765  aa   000000 000003
    024766  aa   000000 004242
    024767  aa   000000 004203
    024770  aa   000000 000000
    024771  aa   163040 040040    2178  		vfd a36/s   ,36/i_r,36/r_unequal,36/(l_663-l_org)/5,36/a_224
    024772  aa   000000 000000
    024773  aa   000000 000253
    024774  aa   000000 004147
    024775  aa   000000 000340
    024776  aa   040040 040040    2179  		vfd a36/    ,36/i_n,36/201,36/(rtwo-l_org)/5,36/0
    024777  aa   000000 000002
    025000  aa   000000 000311
    025001  aa   000000 004060
    025002  aa   000000 000000
    025003  aa   163040 040040    2180  l_663:		vfd a36/s   ,36/i_r,36/r_to,36/(imp_subj-l_org)/5,36/a_325
    025004  aa   000000 000000
    025005  aa   000000 000252
    025006  aa   000000 004203
    025007  aa   000000 000505
    025010  aa   040040 040040    2181  		vfd a36/    ,36/i_n,36/0,36/(imp_subj-l_org)/5,36/a_325
    025011  aa   000000 000002
    025012  aa   000000 000000
    025013  aa   000000 004203
    025014  aa   000000 000505
    025015  aa   040040 040040    2182  	infix_rel:	vfd a36/    ,36/i_s,36/(relop-l_org)/5,36/(obj_op-l_org)/5,36/a_210
    025016  aa   000000 000003
    025017  aa   000000 004242
    025020  aa   000000 004201
    025021  aa   000000 000322
    025022  aa   163040 040040    2183  		vfd a36/s   ,36/i_r,36/r_not,36/(inf_rel-l_org)/5,36/a_223
    025023  aa   000000 000000
    025024  aa   000000 000202
    025025  aa   000000 004177
    025026  aa   000000 000337
    025027  aa   163040 040040    2184  		vfd a36/s   ,36/i_r,36/r_is,36/(inf_is-l_org)/5,36/0
    025030  aa   000000 000000
    025031  aa   000000 000166
    025032  aa   000000 004171
    025033  aa   000000 000000
    025034  aa   040040 040040    2185  		vfd a36/    ,36/i_s,36/(pos_rel-l_org)/5,36/(obj_op-l_org)/5,36/a_325
    025035  aa   000000 000003
    025036  aa   000000 004231
    025037  aa   000000 004201
    025040  aa   000000 000505
    025041  aa   040040 040040    2186  	inf_test:	vfd a36/    ,36/i_c,36/c_pnz,36/(l_664-l_org)/5,36/a_299
    025042  aa   000000 000001
    025043  aa   000000 000175
    025044  aa   000000 004162
    025045  aa   000000 000453
    025046  aa   040040 040040    2187  		vfd a36/    ,36/i_r,36/r_numeric,36/(notal-l_org)/5,36/a_224
    025047  aa   000000 000000
    025050  aa   000000 000203
    025051  aa   000000 004165
    025052  aa   000000 000340
    025053  aa   040040 040040    2188  		vfd a36/    ,36/i_r,36/r_alphabetic,36/(notnum-l_org)/5,36/a_224
    025054  aa   000000 000000
    025055  aa   000000 000112
    025056  aa   000000 004167
    025057  aa   000000 000340
    025060  aa   040040 040040    2189  		vfd a36/    ,36/i_c,36/c_is_sub_opt,36/(bop1-l_org)/5,36/a_228
    025061  aa   000000 000001
    025062  aa   000000 000176
    025063  aa   000000 004211
    025064  aa   000000 000344
    025065  aa   040040 040040    2190  		vfd a36/    ,36/i_n,36/215,36/(rtwo-l_org)/5,36/0
    025066  aa   000000 000002
    025067  aa   000000 000327
    025070  aa   000000 004060
    025071  aa   000000 000000
    025072  aa   040063 040040    2191  l_664:		vfd a36/ 3  ,36/i_n,36/15,36/(l_665-l_org)/5,36/2
    025073  aa   000000 000002
    025074  aa   000000 000017
    025075  aa   000000 004163
    025076  aa   000000 000002
    025077  aa   163040 040040    2192  l_665:		vfd a36/s   ,36/i_c,36/c_numstak,36/(bop-l_org)/5,36/a_325
    025100  aa   000000 000001
    025101  aa   000000 000177
    025102  aa   000000 004210
    025103  aa   000000 000505
    025104  aa   163040 040040    2193  		vfd a36/s   ,36/i_n,36/202,36/(bop-l_org)/5,36/a_325
    025105  aa   000000 000002
    025106  aa   000000 000312
    025107  aa   000000 004210
    025110  aa   000000 000505
    025111  aa   163040 040040    2194  	notal:	vfd a36/s   ,36/i_c,36/c_notalpstk,36/(bop-l_org)/5,36/a_150
    025112  aa   000000 000001
    025113  aa   000000 000201
    025114  aa   000000 004210
    025115  aa   000000 000226
    025116  aa   163040 040040    2195  		vfd a36/s   ,36/i_n,36/208,36/(bop-l_org)/5,36/a_150
    025117  aa   000000 000002
    025120  aa   000000 000320
    025121  aa   000000 004210
    025122  aa   000000 000226
    025123  aa   163040 040040    2196  	notnum:	vfd a36/s   ,36/i_c,36/c_notnumstk,36/(bop-l_org)/5,36/a_151
    025124  aa   000000 000001
    025125  aa   000000 000200
    025126  aa   000000 004210
    025127  aa   000000 000227
    025130  aa   163040 040040    2197  		vfd a36/s   ,36/i_n,36/206,36/(bop-l_org)/5,36/a_151
    025131  aa   000000 000002
    025132  aa   000000 000316
    025133  aa   000000 004210
    025134  aa   000000 000227
    025135  aa   163040 040040    2198  	inf_is:	vfd a36/s   ,36/i_r,36/r_not,36/(inf_rel-l_org)/5,36/a_223
    025136  aa   000000 000000
    025137  aa   000000 000202
    025140  aa   000000 004177
    025141  aa   000000 000337
    025142  aa   040040 040040    2199  		vfd a36/    ,36/i_s,36/(relop-l_org)/5,36/(obj_op-l_org)/5,36/a_327
    025143  aa   000000 000003
    025144  aa   000000 004242
    025145  aa   000000 004201
    025146  aa   000000 000507
    025147  aa   163040 040040    2200  		vfd a36/s   ,36/i_r,36/r_unequal,36/(l_666-l_org)/5,36/a_224
    025150  aa   000000 000000
    025151  aa   000000 000253
    025152  aa   000000 004175
    025153  aa   000000 000340
    025154  aa   040040 040040    2201  		vfd a36/    ,36/i_n,36/0,36/(inf_test-l_org)/5,36/0
    025155  aa   000000 000002
    025156  aa   000000 000000
    025157  aa   000000 004155
    025160  aa   000000 000000
    025161  aa   163040 040040    2202  l_666:		vfd a36/s   ,36/i_r,36/r_to,36/(obj_op-l_org)/5,36/a_325
    025162  aa   000000 000000
    025163  aa   000000 000252
    025164  aa   000000 004201
    025165  aa   000000 000505
    025166  aa   040040 040040    2203  		vfd a36/    ,36/i_n,36/0,36/(obj_op-l_org)/5,36/a_325
    025167  aa   000000 000002
    025170  aa   000000 000000
    025171  aa   000000 004201
    025172  aa   000000 000505
    025173  aa   040040 040040    2204  	inf_rel:	vfd a36/    ,36/i_s,36/(relop-l_org)/5,36/(obj_op-l_org)/5,36/a_327
    025174  aa   000000 000003
    025175  aa   000000 004242
    025176  aa   000000 004201
    025177  aa   000000 000507
    025200  aa   040040 040040    2205  		vfd a36/    ,36/i_n,36/0,36/(inf_test-l_org)/5,36/0
    025201  aa   000000 000002
    025202  aa   000000 000000
    025203  aa   000000 004155
    025204  aa   000000 000000
    025205  aa   040040 040040    2206  	obj_op:	vfd a36/    ,36/i_n,36/0,36/(obj_op3-l_org)/5,36/a_225
    025206  aa   000000 000002
    025207  aa   000000 000000
    025210  aa   000000 004205
    025211  aa   000000 000341
    025212  aa   040040 040040    2207  	rel:	vfd a36/    ,36/i_s,36/(relop-l_org)/5,36/(l_667-l_org)/5,36/0
    025213  aa   000000 000003
    025214  aa   000000 004242
    025215  aa   000000 004203
    025216  aa   000000 000000
    025217  aa   040040 040040    2208  l_667:	imp_subj:	vfd a36/    ,36/i_c,36/c_is_sub_opt,36/(l_668-l_org)/5,36/a_226
    025220  aa   000000 000001
    025221  aa   000000 000176
    025222  aa   000000 004205
    025223  aa   000000 000342
    025224  aa   040040 040040    2209  		vfd a36/    ,36/i_n,36/215,36/(rtwo-l_org)/5,36/0
    025225  aa   000000 000002
    025226  aa   000000 000327
    025227  aa   000000 004060
    025230  aa   000000 000000
    025231  aa   040040 040040    2210  l_668:	obj_op3:	vfd a36/    ,36/i_s,36/(condop-l_org)/5,36/(bop1-l_org)/5,36/a_229
    025232  aa   000000 000003
    025233  aa   000000 004247
    025234  aa   000000 004211
    025235  aa   000000 000345
    025236  aa   040040 040040    2211  		vfd a36/    ,36/i_n,36/218,36/(rtwo-l_org)/5,36/0
    025237  aa   000000 000002
    025240  aa   000000 000332
    025241  aa   000000 004060
    025242  aa   000000 000000
    025243  aa   163063 040040    2212  	bop2:	vfd a36/s3  ,36/i_n,36/14,36/(l_669-l_org)/5,36/2
    025244  aa   000000 000002
    025245  aa   000000 000016
    025246  aa   000000 004210
    025247  aa   000000 000002
    025250  aa   040040 040040    2213  l_669:	bop:	vfd a36/    ,36/i_n,36/0,36/(l_670-l_org)/5,36/a_227
    025251  aa   000000 000002
    025252  aa   000000 000000
    025253  aa   000000 004211
    025254  aa   000000 000343
    025255  aa   040040 040040    2214  l_670:	bop1:	vfd a36/    ,36/i_n,36/0,36/(l_671-l_org)/5,36/a_230
    025256  aa   000000 000002
    025257  aa   000000 000000
    025260  aa   000000 004212
    025261  aa   000000 000346
    025262  aa   040040 040040    2215  l_671:		vfd a36/    ,36/i_r,36/r_and,36/(bop4-l_org)/5,36/a_233
    025263  aa   000000 000000
    025264  aa   000000 000115
    025265  aa   000000 004217
    025266  aa   000000 000351
    025267  aa   040040 040040    2216  	bop3:	vfd a36/    ,36/i_r,36/r_or,36/(bop4-l_org)/5,36/a_234
    025270  aa   000000 000000
    025271  aa   000000 000207
    025272  aa   000000 004217
    025273  aa   000000 000352
    025274  aa   163040 040040    2217  		vfd a36/s   ,36/i_r,36/r_rt,36/(rpar-l_org)/5,36/a_325
    025275  aa   000000 000000
    025276  aa   000000 000274
    025277  aa   000000 004221
    025300  aa   000000 000505
    025301  aa   040040 040040    2218  		vfd a36/    ,36/i_c,36/c_lev_test,36/(succ-l_org)/5,36/0
    025302  aa   000000 000001
    025303  aa   000000 000300
    025304  aa   000000 004110
    025305  aa   000000 000000
    025306  aa   040040 040040    2219  		vfd a36/    ,36/i_n,36/205,36/(rtwo-l_org)/5,36/0
    025307  aa   000000 000002
    025310  aa   000000 000315
    025311  aa   000000 004060
    025312  aa   000000 000000
    025313  aa   163040 040040    2220  	bop4:	vfd a36/s   ,36/i_c,36/c_cond_name,36/(lpar-l_org)/5,36/0
    025314  aa   000000 000001
    025315  aa   000000 000324
    025316  aa   000000 004121
    025317  aa   000000 000000
    025320  aa   163063 040040    2221  		vfd a36/s3  ,36/i_n,36/17,36/(lpar-l_org)/5,36/2
    025321  aa   000000 000002
    025322  aa   000000 000021
    025323  aa   000000 004121
    025324  aa   000000 000002
    025325  aa   040040 040040    2222  	rpar:	vfd a36/    ,36/i_c,36/c_actloglp,36/(l_672-l_org)/5,36/a_231
    025326  aa   000000 000001
    025327  aa   000000 000210
    025330  aa   000000 004223
    025331  aa   000000 000347
    025332  aa   040040 040040    2223  		vfd a36/    ,36/i_n,36/205,36/(rtwo-l_org)/5,36/0
    025333  aa   000000 000002
    025334  aa   000000 000315
    025335  aa   000000 004060
    025336  aa   000000 000000
    025337  aa   163040 040040    2224  l_672:	more_rpar:	vfd a36/s   ,36/i_r,36/r_rt,36/(test_lpar-l_org)/5,36/a_325
    025340  aa   000000 000000
    025341  aa   000000 000274
    025342  aa   000000 004227
    025343  aa   000000 000505
    025344  aa   040040 040040    2225  		vfd a36/    ,36/i_r,36/r_and,36/(bop4-l_org)/5,36/a_235
    025345  aa   000000 000000
    025346  aa   000000 000115
    025347  aa   000000 004217
    025350  aa   000000 000353
    025351  aa   040040 040040    2226  		vfd a36/    ,36/i_n,36/0,36/(l_673-l_org)/5,36/a_236
    025352  aa   000000 000002
    025353  aa   000000 000000
    025354  aa   000000 004226
    025355  aa   000000 000354
    025356  aa   040040 040040    2227  l_673:		vfd a36/    ,36/i_n,36/0,36/(bop3-l_org)/5,36/a_232
    025357  aa   000000 000002
    025360  aa   000000 000000
    025361  aa   000000 004213
    025362  aa   000000 000350
    025363  aa   040040 040040    2228  	test_lpar:	vfd a36/    ,36/i_c,36/c_lptopstk,36/(more_rpar-l_org)/5,36/a_232
    025364  aa   000000 000001
    025365  aa   000000 000211
    025366  aa   000000 004223
    025367  aa   000000 000350
    025370  aa   040040 040040    2229  		vfd a36/    ,36/i_n,36/205,36/(rtwo-l_org)/5,36/0
    025371  aa   000000 000002
    025372  aa   000000 000315
    025373  aa   000000 004060
    025374  aa   000000 000000
    025375  aa   040040 040040    2230  	pos_rel:	vfd a36/    ,36/i_r,36/r_equals,36/(pos_rel1-l_org)/5,36/a_224
    025376  aa   000000 000000
    025377  aa   000000 000146
    025400  aa   000000 004235
    025401  aa   000000 000340
    025402  aa   040040 040040    2231  		vfd a36/    ,36/i_r,36/r_exceeds,36/(pos_rel1-l_org)/5,36/a_224
    025403  aa   000000 000000
    025404  aa   000000 000161
    025405  aa   000000 004235
    025406  aa   000000 000340
    025407  aa   040040 040040    2232  		vfd a36/    ,36/i_r,36/r_unequal,36/(pos_rel2-l_org)/5,36/a_224
    025410  aa   000000 000000
    025411  aa   000000 000253
    025412  aa   000000 004237
    025413  aa   000000 000340
    025414  aa   040040 040040    2233  		vfd a36/    ,36/i_n,36/0,36/(fail-l_org)/5,36/0
    025415  aa   000000 000002
    025416  aa   000000 000000
    025417  aa   000000 004111
    025420  aa   000000 000000
    025421  aa   163065 040040    2234  	pos_rel1:	vfd a36/s5  ,36/i_n,36/156,36/(l_674-l_org)/5,36/25
    025422  aa   000000 000002
    025423  aa   000000 000234
    025424  aa   000000 004236
    025425  aa   000000 000031
    025426  aa   040040 040040    2235  l_674:		vfd a36/    ,36/i_n,36/0,36/(succ-l_org)/5,36/0
    025427  aa   000000 000002
    025430  aa   000000 000000
    025431  aa   000000 004110
    025432  aa   000000 000000
    025433  aa   163065 040040    2236  	pos_rel2:	vfd a36/s5  ,36/i_n,36/156,36/(l_675-l_org)/5,36/25
    025434  aa   000000 000002
    025435  aa   000000 000234
    025436  aa   000000 004240
    025437  aa   000000 000031
    025440  aa   163040 040040    2237  l_675:		vfd a36/s   ,36/i_r,36/r_to,36/(succ-l_org)/5,36/0
    025441  aa   000000 000000
    025442  aa   000000 000252
    025443  aa   000000 004110
    025444  aa   000000 000000
    025445  aa   040040 040040    2238  		vfd a36/    ,36/i_n,36/0,36/(succ-l_org)/5,36/0
    025446  aa   000000 000002
    025447  aa   000000 000000
    025450  aa   000000 004110
    025451  aa   000000 000000
    025452  aa   163040 040040    2239  	relop:	vfd a36/s   ,36/i_c,36/c_relop,36/(l_676-l_org)/5,36/a_224
    025453  aa   000000 000001
    025454  aa   000000 000174
    025455  aa   000000 004244
    025456  aa   000000 000340
    025457  aa   040040 040040    2240  		vfd a36/    ,36/i_n,36/0,36/(fail-l_org)/5,36/0
    025460  aa   000000 000002
    025461  aa   000000 000000
    025462  aa   000000 004111
    025463  aa   000000 000000
    025464  aa   163040 040040    2241  l_676:		vfd a36/s   ,36/i_r,36/r_to,36/(succ-l_org)/5,36/0
    025465  aa   000000 000000
    025466  aa   000000 000252
    025467  aa   000000 004110
    025470  aa   000000 000000
    025471  aa   163040 040040    2242  		vfd a36/s   ,36/i_r,36/r_than,36/(succ-l_org)/5,36/0
    025472  aa   000000 000000
    025473  aa   000000 000245
    025474  aa   000000 004110
    025475  aa   000000 000000
    025476  aa   040040 040040    2243  		vfd a36/    ,36/i_n,36/0,36/(succ-l_org)/5,36/0
    025477  aa   000000 000002
    025500  aa   000000 000000
    025501  aa   000000 004110
    025502  aa   000000 000000
    025503  aa   040040 040040    2244  	condop:	vfd a36/    ,36/i_n,36/0,36/(l_677-l_org)/5,36/a_209
    025504  aa   000000 000002
    025505  aa   000000 000000
    025506  aa   000000 004250
    025507  aa   000000 000321
    025510  aa   040040 040040    2245  l_677:		vfd a36/    ,36/i_r,36/r_all,36/(cop4-l_org)/5,36/0
    025511  aa   000000 000000
    025512  aa   000000 000111
    025513  aa   000000 004261
    025514  aa   000000 000000
    025515  aa   040040 040040    2246  		vfd a36/    ,36/i_s,36/(arithexp-l_org)/5,36/(succ-l_org)/5,36/a_212
    025516  aa   000000 000003
    025517  aa   000000 004265
    025520  aa   000000 004110
    025521  aa   000000 000324
    025522  aa   163157 040040    2247  		vfd a36/so  ,36/i_s,36/(ident-l_org)/5,36/(succ-l_org)/5,36/a_307
    025523  aa   000000 000003
    025524  aa   000000 003462
    025525  aa   000000 004110
    025526  aa   000000 000463
    025527  aa   163157 040040    2248  	cop3:	vfd a36/so  ,36/i_c,36/c_lit,36/(succ-l_org)/5,36/a_211
    025530  aa   000000 000001
    025531  aa   000000 000025
    025532  aa   000000 004110
    025533  aa   000000 000323
    025534  aa   163157 040040    2249  	cop2:	vfd a36/so  ,36/i_c,36/c_figconall,36/(succ-l_org)/5,36/a_211
    025535  aa   000000 000001
    025536  aa   000000 000026
    025537  aa   000000 004110
    025540  aa   000000 000323
    025541  aa   163157 040040    2250  		vfd a36/so  ,36/i_c,36/c_xnm,36/(succ-l_org)/5,36/a_211
    025542  aa   000000 000001
    025543  aa   000000 000041
    025544  aa   000000 004110
    025545  aa   000000 000323
    025546  aa   163157 040040    2251  		vfd a36/so  ,36/i_s,36/(xdname-l_org)/5,36/(succ-l_org)/5,36/a_307
    025547  aa   000000 000003
    025550  aa   000000 003457
    025551  aa   000000 004110
    025552  aa   000000 000463
    025553  aa   040040 040040    2252  		vfd a36/    ,36/i_r,36/r_all,36/(l_678-l_org)/5,36/0
    025554  aa   000000 000000
    025555  aa   000000 000111
    025556  aa   000000 004261
    025557  aa   000000 000000
    025560  aa   040040 040040    2253  		vfd a36/    ,36/i_n,36/0,36/(fail-l_org)/5,36/0
    025561  aa   000000 000002
    025562  aa   000000 000000
    025563  aa   000000 004111
    025564  aa   000000 000000
    025565  aa   163063 040040    2254  l_678:	cop4:	vfd a36/s3  ,36/i_n,36/144,36/(l_679-l_org)/5,36/2
    025566  aa   000000 000002
    025567  aa   000000 000220
    025570  aa   000000 004262
    025571  aa   000000 000002
    025572  aa   163157 040040    2255  l_679:		vfd a36/so  ,36/i_c,36/c_figconall,36/(succ-l_org)/5,36/a_211
    025573  aa   000000 000001
    025574  aa   000000 000026
    025575  aa   000000 004110
    025576  aa   000000 000323
    025577  aa   040040 040040    2256  		vfd a36/    ,36/i_c,36/c_nonumlit,36/(cop3-l_org)/5,36/a_149
    025600  aa   000000 000001
    025601  aa   000000 000017
    025602  aa   000000 004253
    025603  aa   000000 000225
    025604  aa   040040 040040    2257  		vfd a36/    ,36/i_n,36/172,36/(rtwo-l_org)/5,36/0
    025605  aa   000000 000002
    025606  aa   000000 000254
    025607  aa   000000 004060
    025610  aa   000000 000000
    025611  aa   040040 040040    2258  	arithexp:	vfd a36/    ,36/i_n,36/0,36/(l_680-l_org)/5,36/a_207
    025612  aa   000000 000002
    025613  aa   000000 000000
    025614  aa   000000 004266
    025615  aa   000000 000317
    025616  aa   040040 040040    2259  l_680:	aexp_1:	vfd a36/    ,36/i_r,36/r_pls,36/(l_681-l_org)/5,36/a_284
    025617  aa   000000 000000
    025620  aa   000000 000266
    025621  aa   000000 004271
    025622  aa   000000 000434
    025623  aa   040040 040040    2260  		vfd a36/    ,36/i_r,36/r_sub,36/(l_681-l_org)/5,36/a_201
    025624  aa   000000 000000
    025625  aa   000000 000267
    025626  aa   000000 004271
    025627  aa   000000 000311
    025630  aa   040040 040040    2261  		vfd a36/    ,36/i_n,36/0,36/(aexp_4-l_org)/5,36/0
    025631  aa   000000 000002
    025632  aa   000000 000000
    025633  aa   000000 004272
    025634  aa   000000 000000
    025635  aa   163040 040040    2262  l_681:		vfd a36/s   ,36/i_n,36/0,36/(l_682-l_org)/5,36/a_208
    025636  aa   000000 000002
    025637  aa   000000 000000
    025640  aa   000000 004272
    025641  aa   000000 000320
    025642  aa   163157 040040    2263  l_682:	aexp_4:	vfd a36/so  ,36/i_s,36/(elnuitem-l_org)/5,36/(l_683-l_org)/5,36/0
    025643  aa   000000 000003
    025644  aa   000000 003551
    025645  aa   000000 004276
    025646  aa   000000 000000
    025647  aa   163040 040040    2264  		vfd a36/s   ,36/i_r,36/r_lt,36/(aexp_1-l_org)/5,36/a_202
    025650  aa   000000 000000
    025651  aa   000000 000273
    025652  aa   000000 004266
    025653  aa   000000 000312
    025654  aa   040040 040040    2265  		vfd a36/    ,36/i_c,36/c_zerstk,36/(fail-l_org)/5,36/0
    025655  aa   000000 000001
    025656  aa   000000 000202
    025657  aa   000000 004111
    025660  aa   000000 000000
    025661  aa   040040 040040    2266  		vfd a36/    ,36/i_n,36/214,36/(rtwo-l_org)/5,36/0
    025662  aa   000000 000002
    025663  aa   000000 000326
    025664  aa   000000 004060
    025665  aa   000000 000000
    025666  aa   163040 040040    2267  l_683:	aexp_2:	vfd a36/s   ,36/i_c,36/c_arop,36/(aexp_1-l_org)/5,36/a_203
    025667  aa   000000 000001
    025670  aa   000000 000120
    025671  aa   000000 004266
    025672  aa   000000 000313
    025673  aa   040040 040040    2268  		vfd a36/    ,36/i_n,36/0,36/(l_684-l_org)/5,36/a_204
    025674  aa   000000 000002
    025675  aa   000000 000000
    025676  aa   000000 004300
    025677  aa   000000 000314
    025700  aa   040040 040040    2269  l_684:		vfd a36/    ,36/i_r,36/r_rt,36/(l_685-l_org)/5,36/a_284
    025701  aa   000000 000000
    025702  aa   000000 000274
    025703  aa   000000 004303
    025704  aa   000000 000434
    025705  aa   040040 040040    2270  		vfd a36/    ,36/i_c,36/c_zerstk,36/(succ-l_org)/5,36/0
    025706  aa   000000 000001
    025707  aa   000000 000202
    025710  aa   000000 004110
    025711  aa   000000 000000
    025712  aa   040040 040040    2271  		vfd a36/    ,36/i_n,36/214,36/(rtwo-l_org)/5,36/0
    025713  aa   000000 000002
    025714  aa   000000 000326
    025715  aa   000000 004060
    025716  aa   000000 000000
    025717  aa   163040 040040    2272  l_685:		vfd a36/s   ,36/i_c,36/c_lefparstk,36/(aexp_2-l_org)/5,36/a_205
    025720  aa   000000 000001
    025721  aa   000000 000203
    025722  aa   000000 004276
    025723  aa   000000 000315
    025724  aa   163040 040040    2273  		vfd a36/s   ,36/i_c,36/c_logbitstk,36/(aexp_2-l_org)/5,36/a_206
    025725  aa   000000 000001
    025726  aa   000000 000204
    025727  aa   000000 004276
    025730  aa   000000 000316
    025731  aa   040040 040040    2274  		vfd a36/    ,36/i_n,36/0,36/(succ-l_org)/5,36/0
    025732  aa   000000 000002
    025733  aa   000000 000000
    025734  aa   000000 004110
    025735  aa   000000 000000
    025736  aa   040040 040040    2275  		vfd a36/    ,36/i_n,36/0,36/(l_686-l_org)/5,36/0
    025737  aa   000000 000002
    025740  aa   000000 000000
    025741  aa   000000 004307
    025742  aa   000000 000000
    025743  aa   040040 040040    2276  l_686:		vfd a36/    ,36/i_r,36/r_records,36/(l_686-l_org)/5,36/0
    025744  aa   000000 000000
    025745  aa   000000 000303
    025746  aa   000000 004307
    025747  aa   000000 000000
    025750  aa   040040 040040    2277  l_687:		vfd a36/    ,36/i_r,36/r_in,36/(l_687-l_org)/5,36/0
    025751  aa   000000 000000
    025752  aa   000000 000145
    025753  aa   000000 004310
    025754  aa   000000 000000
    025755  aa   040040 040040    2278  l_688:		vfd a36/    ,36/i_r,36/r_of,36/(l_688-l_org)/5,36/0
    025756  aa   000000 000000
    025757  aa   000000 000205
    025760  aa   000000 004311
    025761  aa   000000 000000
    025762  aa   040040 040040    2279  l_689:		vfd a36/    ,36/i_r,36/r_end_of_page,36/(l_689-l_org)/5,36/0
    025763  aa   000000 000000
    025764  aa   000000 000144
    025765  aa   000000 004312
    025766  aa   000000 000000
    025767  aa   040040 040040    2280  l_690:		vfd a36/    ,36/i_r,36/r_equal,36/(l_690-l_org)/5,36/0
    025770  aa   000000 000000
    025771  aa   000000 000146
    025772  aa   000000 004313
    025773  aa   000000 000000
    025774  aa   040040 040040    2281  l_691:		vfd a36/    ,36/i_r,36/r_greater,36/(l_691-l_org)/5,36/0
    025775  aa   000000 000000
    025776  aa   000000 000161
    025777  aa   000000 004314
    026000  aa   000000 000000
    026001  aa   040040 040040    2282  l_692:		vfd a36/    ,36/i_r,36/r_copy,36/(l_692-l_org)/5,36/0
    026002  aa   000000 000000
    026003  aa   000000 001012
    026004  aa   000000 004315
    026005  aa   000000 000000
    026006  aa   040040 040040    2283  l_693:		vfd a36/    ,36/i_r,36/r_corr,36/(l_693-l_org)/5,36/0
    026007  aa   000000 000000
    026010  aa   000000 001014
    026011  aa   000000 004316
    026012  aa   000000 000000
    026013  aa   040040 040040    2284  l_694:		vfd a36/    ,36/i_r,36/r_corresponding,36/(l_694-l_org)/5,36/0
    026014  aa   000000 000000
    026015  aa   000000 001014
    026016  aa   000000 004317
    026017  aa   000000 000000
    026020  aa   040040 040040    2285  l_695:		vfd a36/    ,36/i_r,36/r_off,36/(l_695-l_org)/5,36/0
    026021  aa   000000 000000
    026022  aa   000000 001076
    026023  aa   000000 004320
    026024  aa   000000 000000
    026025  aa   040040 040040    2286  l_696:		vfd a36/    ,36/i_r,36/r_replace,36/(l_696-l_org)/5,36/0
    026026  aa   000000 000000
    026027  aa   000000 000651
    026030  aa   000000 004321
    026031  aa   000000 000000
    026032  aa   040040 040040    2287  l_697:		vfd a36/    ,36/i_r,36/r_high_value,36/(l_697-l_org)/5,36/0
    026033  aa   000000 000000
    026034  aa   000000 000335
    026035  aa   000000 004322
    026036  aa   000000 000000
    026037  aa   040040 040040    2288  l_698:		vfd a36/    ,36/i_r,36/r_high_values,36/(l_698-l_org)/5,36/0
    026040  aa   000000 000000
    026041  aa   000000 000335
    026042  aa   000000 004323
    026043  aa   000000 000000
    026044  aa   040040 040040    2289  l_699:		vfd a36/    ,36/i_r,36/r_low_value,36/(l_699-l_org)/5,36/0
    026045  aa   000000 000000
    026046  aa   000000 000345
    026047  aa   000000 004324
    026050  aa   000000 000000
    026051  aa   040040 040040    2290  l_700:		vfd a36/    ,36/i_r,36/r_low_values,36/(l_700-l_org)/5,36/0
    026052  aa   000000 000000
    026053  aa   000000 000345
    026054  aa   000000 004325
    026055  aa   000000 000000
    026056  aa   040040 040040    2291  l_701:		vfd a36/    ,36/i_r,36/r_zero,36/(l_701-l_org)/5,36/0
    026057  aa   000000 000000
    026060  aa   000000 000264
    026061  aa   000000 004326
    026062  aa   000000 000000
    026063  aa   040040 040040    2292  l_702:		vfd a36/    ,36/i_r,36/r_zeros,36/(l_702-l_org)/5,36/0
    026064  aa   000000 000000
    026065  aa   000000 000264
    026066  aa   000000 004327
    026067  aa   000000 000000
    026070  aa   040040 040040    2293  l_703:		vfd a36/    ,36/i_r,36/r_zeroes,36/(l_703-l_org)/5,36/0
    026071  aa   000000 000000
    026072  aa   000000 000264
    026073  aa   000000 004330
    026074  aa   000000 000000
    026075  aa   040040 040040    2294  l_704:		vfd a36/    ,36/i_r,36/r_quote,36/(l_704-l_org)/5,36/0
    026076  aa   000000 000000
    026077  aa   000000 000353
    026100  aa   000000 004331
    026101  aa   000000 000000
    026102  aa   040040 040040    2295  l_705:		vfd a36/    ,36/i_r,36/r_quotes,36/(l_705-l_org)/5,36/0
    026103  aa   000000 000000
    026104  aa   000000 000353
    026105  aa   000000 004332
    026106  aa   000000 000000
    026107  aa   040040 040040    2296  l_706:		vfd a36/    ,36/i_r,36/r_space,36/(l_706-l_org)/5,36/0
    026110  aa   000000 000000
    026111  aa   000000 000300
    026112  aa   000000 004333
    026113  aa   000000 000000
    026114  aa   040040 040040    2297  l_707:		vfd a36/    ,36/i_r,36/r_spaces,36/(l_707-l_org)/5,36/0
    026115  aa   000000 000000
    026116  aa   000000 000300
    026117  aa   000000 004334
    026120  aa   000000 000000
    026121  aa   040040 040040    2298  l_708:		vfd a36/    ,36/i_r,36/r_linage_counter,36/(l_708-l_org)/5,36/0
    026122  aa   000000 000000
    026123  aa   000000 001064
    026124  aa   000000 004335
    026125  aa   000000 000000
    026126  aa   040040 040040    2299  l_709:		vfd a36/    ,36/i_r,36/r_negative,36/(l_709-l_org)/5,36/0
    026127  aa   000000 000000
    026130  aa   000000 000177
    026131  aa   000000 004336
    026132  aa   000000 000000
    026133  aa   040040 040040    2300  l_710:		vfd a36/    ,36/i_r,36/r_positive,36/(l_710-l_org)/5,36/0
    026134  aa   000000 000000
    026135  aa   000000 000215
    026136  aa   000000 004337
    026137  aa   000000 000000
    026140  aa   040040 040040    2301  l_711:		vfd a36/    ,36/i_r,36/r_through,36/(l_711-l_org)/5,36/0
    026141  aa   000000 000000
    026142  aa   000000 000246
    026143  aa   000000 004340
    026144  aa   000000 000000
    026145  aa   040040 040040    2302  l_712:		vfd a36/    ,36/i_r,36/r_character,36/(l_712-l_org)/5,36/0
    026146  aa   000000 000000
    026147  aa   000000 000123
    026150  aa   000000 004341
    026151  aa   000000 000000
    026152  aa   040040 040040    2303  l_713:		vfd a36/    ,36/i_r,36/r_line,36/(l_713-l_org)/5,36/0
    026153  aa   000000 000000
    026154  aa   000000 000174
    026155  aa   000000 004342
    026156  aa   000000 000000
    026157  aa   040040 040040    2304  l_714:		vfd a36/    ,36/i_r,36/r_pls,36/(l_714-l_org)/5,36/0
    026160  aa   000000 000000
    026161  aa   000000 000266
    026162  aa   000000 004343
    026163  aa   000000 000000
    026164  aa   040040 040040    2305  l_715:		vfd a36/    ,36/i_r,36/r_sub,36/(l_715-l_org)/5,36/0
    026165  aa   000000 000000
    026166  aa   000000 000267
    026167  aa   000000 004344
    026170  aa   000000 000000
    026171  aa   040040 040040    2306  l_716:		vfd a36/    ,36/i_r,36/r_tim,36/(l_716-l_org)/5,36/0
    026172  aa   000000 000000
    026173  aa   000000 000270
    026174  aa   000000 004345
    026175  aa   000000 000000
    026176  aa   040040 040040    2307  l_717:		vfd a36/    ,36/i_r,36/r_div,36/(l_717-l_org)/5,36/0
    026177  aa   000000 000000
    026200  aa   000000 000271
    026201  aa   000000 004346
    026202  aa   000000 000000
    026203  aa   040040 040040    2308  l_718:		vfd a36/    ,36/i_r,36/r_exp,36/(l_718-l_org)/5,36/0
    026204  aa   000000 000000
    026205  aa   000000 000272
    026206  aa   000000 004347
    026207  aa   000000 000000
    026210  aa   040040 040040    2309  l_719:		vfd a36/    ,36/i_r,36/r_ls,36/(l_719-l_org)/5,36/0
    026211  aa   000000 000000
    026212  aa   000000 000173
    026213  aa   000000 004350
    026214  aa   000000 000000
    026215  aa   040040 040040    2310  l_720:		vfd a36/    ,36/i_r,36/r_gt,36/(l_720-l_org)/5,36/0
    026216  aa   000000 000000
    026217  aa   000000 000161
    026220  aa   000000 004351
    026221  aa   000000 000000
    026222  aa   040040 040040    2311  l_721:		vfd a36/    ,36/i_r,36/r_eq,36/(l_721-l_org)/5,36/0
    026223  aa   000000 000000
    026224  aa   000000 000146
    026225  aa   000000 004352
    026226  aa   000000 000000
    026227  aa   040040 040040    2312  l_722:		vfd a36/    ,36/i_r,36/r_initialize,36/(l_722-l_org)/5,36/0
    026230  aa   000000 000000
    026231  aa   000000 000015
    026232  aa   000000 004353
    026233  aa   000000 000000
    026234  aa   040040 040040    2313  l_723:		vfd a36/    ,36/i_r,36/r_alphanumeric,36/(l_723-l_org)/5,36/0
    026235  aa   000000 000000
    026236  aa   000000 000113
    026237  aa   000000 004354
    026240  aa   000000 000000
    026241  aa   040040 040040    2314  l_724:		vfd a36/    ,36/i_r,36/r_alphanumeric_edited,36/(l_724-l_org)/5,36/0
    026242  aa   000000 000000
    026243  aa   000000 000114
    026244  aa   000000 004355
    026245  aa   000000 000000
    026246  aa   040040 040040    2315  l_725:		vfd a36/    ,36/i_r,36/r_numeric_edited,36/(l_725-l_org)/5,36/0
    026247  aa   000000 000000
    026250  aa   000000 000204
    026251  aa   000000 004356
    026252  aa   000000 000000
                        000305    2316  	equ c_acc_dev,197
                        000210    2317  	equ c_actloglp,136
                        000236    2318  	equ c_adrisadr,158
                        000165    2319  	equ c_alelnuitm,117
                        000151    2320  	equ c_alph,105
                        000303    2321  	equ c_alphnm,195
                        000172    2322  	equ c_alphoral,122
                        000277    2323  	equ c_altlegal,191
                        000015    2324  	equ c_altprnm,13
                        000274    2325  	equ c_altst,188
                        000311    2326  	equ c_amarg,201
                        000146    2327  	equ c_an,102
                        000104    2328  	equ c_andait,68
                        000142    2329  	equ c_anes,98
                        000207    2330  	equ c_argscomp,135
                        000120    2331  	equ c_arop,80
                        000173    2332  	equ c_aroprp,123
                        000061    2333  	equ c_asfil,49
                        000127    2334  	equ c_cdname,87
                        000247    2335  	equ c_ckdecpn,167
                        000253    2336  	equ c_ckdsegnum,171
                        000254    2337  	equ c_ckerrex,172
                        000260    2338  	equ c_ckextend,176
                        000255    2339  	equ c_ckinput,173
                        000252    2340  	equ c_ckintbit,170
                        000257    2341  	equ c_ckio,175
                        000246    2342  	equ c_cklit,166
                        000264    2343  	equ c_cklit1,180
                        000266    2344  	equ c_cklit2,182
                        000256    2345  	equ c_ckoutput,174
                        000230    2346  	equ c_ckprpnbit,152
                        000245    2347  	equ c_ckrcpref,165
                        000243    2348  	equ c_ckrng1,163
                        000244    2349  	equ c_ckrng2,164
                        000250    2350  	equ c_cksegm,168
                        000242    2351  	equ c_cktp25,162
                        000324    2352  	equ c_cond_name,212
                        000276    2353  	equ c_csstst,190
                        000273    2354  	equ c_cstst,187
                        000214    2355  	equ c_daib,140
                        000130    2356  	equ c_dana,88
                        000326    2357  	equ c_debug,214
                        000227    2358  	equ c_decnondec,151
                        000032    2359  	equ c_descnm,26
                        000043    2360  	equ c_descnmra,35
                        000132    2361  	equ c_deswon,90
                        000126    2362  	equ c_deswz,86
                        000322    2363  	equ c_devprt,210
                        000306    2364  	equ c_disp_dev,198
                        000075    2365  	equ c_dninfl,61
                        000042    2366  	equ c_ecnt,34
                        000170    2367  	equ c_edalelnue,120
                        000164    2368  	equ c_edalit,116
                        000275    2369  	equ c_edaltst,189
                        000241    2370  	equ c_edick,161
                        000105    2371  	equ c_egrze,69
                        000225    2372  	equ c_elaanne,149
                        000137    2373  	equ c_eldis,95
                        000122    2374  	equ c_elemred,82
                        000100    2375  	equ c_elneds,64
                        000167    2376  	equ c_elnudnint,119
                        000101    2377  	equ c_elnuindi,65
                        000166    2378  	equ c_elnuint,118
                        000102    2379  	equ c_elnuit,66
                        000047    2380  	equ c_endcob,39
                        000163    2381  	equ c_enddec,115
                        000121    2382  	equ c_examlitid,81
                        000026    2383  	equ c_figconall,22
                        000330    2384  	equ c_figzero,216
                        000103    2385  	equ c_file,67
                        000005    2386  	equ c_filenm,5
                        000053    2387  	equ c_fileno,43
                        000217    2388  	equ c_filnefil,143
                        000171    2389  	equ c_filno,121
                        000077    2390  	equ c_flusisds,63
                        000006    2391  	equ c_formtlb,6
                        000221    2392  	equ c_gotod,145
                        000143    2393  	equ c_group,99
                        000113    2394  	equ c_ieqlvl,75
                        000051    2395  	equ c_impvrb,41
                        000001    2396  	equ c_inbit,1
                        000022    2397  	equ c_incdnm,18
                        000115    2398  	equ c_indeqind,77
                        000231    2399  	equ c_indev,153
                        000114    2400  	equ c_indexed,76
                        000220    2401  	equ c_indxfile,144
                        000057    2402  	equ c_inrng,47
                        000030    2403  	equ c_is_cobol,24
                        000332    2404  	equ c_is_cond,218
                        000213    2405  	equ c_is_imp,139
                        000310    2406  	equ c_is_lang,200
                        000125    2407  	equ c_is_rel,85
                        000240    2408  	equ c_is_rout,160
                        000176    2409  	equ c_is_sub_opt,126
                        000316    2410  	equ c_is_user_word,206
                        000024    2411  	equ c_ixfil,20
                        000123    2412  	equ c_ixrlrady,83
                        000233    2413  	equ c_ixrlsqdy,155
                        000235    2414  	equ c_keyiskey,157
                        000064    2415  	equ c_keylbl,52
                        000160    2416  	equ c_lefdep,112
                        000203    2417  	equ c_lefparstk,131
                        000300    2418  	equ c_lev_test,192
                        000002    2419  	equ c_lident,2
                        000107    2420  	equ c_linage,71
                        000003    2421  	equ c_linktot,3
                        000025    2422  	equ c_lit,21
                        000204    2423  	equ c_logbitstk,132
                        000205    2424  	equ c_logstk,133
                        000211    2425  	equ c_lptopstk,137
                        000265    2426  	equ c_mcobol,181
                        000070    2427  	equ c_mnenm,56
                        000110    2428  	equ c_msfile,72
                        000037    2429  	equ c_msfilnm,31
                        000334    2430  	equ c_nae,220
                        000331    2431  	equ c_noo,217
                        000335    2432  	equ c_not,221
                        000222    2433  	equ c_njustr,146
                        000320    2434  	equ c_nlit,208
                        000036    2435  	equ c_nomsss,30
                        000223    2436  	equ c_nonumdn,147
                        000017    2437  	equ c_nonumlit,15
                        000327    2438  	equ c_not_opt,215
                        000201    2439  	equ c_notalpstk,129
                        000200    2440  	equ c_notnumstk,128
                        000035    2441  	equ c_notseqac,29
                        000046    2442  	equ c_notseqfl,38
                        000021    2443  	equ c_nsfilnm,17
                        000106    2444  	equ c_nsrecnm,70
                        000271    2445  	equ c_nstorg,185
                        000267    2446  	equ c_nstream,183
                        000141    2447  	equ c_nues,97
                        000014    2448  	equ c_numlit,12
                        000177    2449  	equ c_numstak,127
                        000251    2450  	equ c_nznumlit,169
                        000304    2451  	equ c_on_off,196
                        000066    2452  	equ c_onechnosn,54
                        000317    2453  	equ c_open_mode,207
                        000023    2454  	equ c_outcdnm,19
                        000232    2455  	equ c_outdev,154
                        000060    2456  	equ c_outrng,48
                        000010    2457  	equ c_paranm,8
                        000333    2458  	equ c_period,219
                        000116    2459  	equ c_pigz,78
                        000321    2460  	equ c_pigz_by,209
                        000325    2461  	equ c_pn_pres,213
                        000175    2462  	equ c_pnz,125
                        000073    2463  	equ c_posint,59
                        000010    2464  	equ c_prdef,8
                        000050    2465  	equ c_preosp,40
                        000140    2466  	equ c_preospn,96
                        000016    2467  	equ c_prnm,14
                        000012    2468  	equ c_prnum,10
                        000307    2469  	equ c_prt_con,199
                        000224    2470  	equ c_rae,148
                        000055    2471  	equ c_rafl,45
                        000056    2472  	equ c_recnm,46
                        000234    2473  	equ c_relfile,156
                        000174    2474  	equ c_relop,124
                        000033    2475  	equ c_repnm,27
                        000301    2476  	equ c_resword,193
                        000007    2477  	equ c_rident,7
                        000157    2478  	equ c_ritdep,111
                        000031    2479  	equ c_rpid,25
                        000044    2480  	equ c_saanm,36
                        000045    2481  	equ c_said,37
                        000156    2482  	equ c_san,110
                        000004    2483  	equ c_sechdr,4
                        000124    2484  	equ c_secsw,84
                        000065    2485  	equ c_seqfil,53
                        000133    2486  	equ c_seqnext,91
                        000323    2487  	equ c_seqstmfil,211
                        000313    2488  	equ c_set_pigz,203
                        000312    2489  	equ c_set_xint,202
                        000013    2490  	equ c_sina,11
                        000034    2491  	equ c_sizlit,28
                        000162    2492  	equ c_slelef,114
                        000144    2493  	equ c_sler,100
                        000154    2494  	equ c_snae,108
                        000153    2495  	equ c_snal,107
                        000147    2496  	equ c_sndrdp,103
                        000155    2497  	equ c_snne,109
                        000152    2498  	equ c_snon,106
                        000145    2499  	equ c_snor,101
                        000150    2500  	equ c_snos,104
                        000027    2501  	equ c_sqacdyac,23
                        000054    2502  	equ c_sqfl,44
                        000067    2503  	equ c_sqrlsqac,55
                        000216    2504  	equ c_srchf2,142
                        000062    2505  	equ c_srchid,50
                        000215    2506  	equ c_srchverb,141
                        000074    2507  	equ c_srtfil,60
                        000206    2508  	equ c_sscondnm,134
                        000237    2509  	equ c_ssnm,159
                        000135    2510  	equ c_sterm,93
                        000270    2511  	equ c_stream,184
                        000161    2512  	equ c_stun,113
                        000112    2513  	equ c_sudana,74
                        000226    2514  	equ c_suxdnm,150
                        000315    2515  	equ c_tst_pigz,205
                        000314    2516  	equ c_tst_xint,204
                        000302    2517  	equ c_type9,194
                        000272    2518  	equ c_udneli,186
                        000111    2519  	equ c_undana,73
                        000134    2520  	equ c_unelnudn,92
                        000117    2521  	equ c_unsint,79
                        000212    2522  	equ c_unxdnm,138
                        000136    2523  	equ c_usagid,94
                        000040    2524  	equ c_useform1,32
                        000071    2525  	equ c_useform1a,57
                        000131    2526  	equ c_useform1b,89
                        000261    2527  	equ c_useformds,177
                        000262    2528  	equ c_useformr,178
                        000263    2529  	equ c_useformrw,179
                        000020    2530  	equ c_useid,16
                        000076    2531  	equ c_usisds,62
                        000063    2532  	equ c_usornm,51
                        000052    2533  	equ c_varsiz,42
                        000011    2534  	equ c_verb,9
                        000072    2535  	equ c_xint,58
                        000041    2536  	equ c_xnm,33
                        000202    2537  	equ c_zerstk,130
                        000001    2538  	equ a_1,1
                        000012    2539  	equ a_10,10
                        000144    2540  	equ a_100,100
                        000145    2541  	equ a_101,101
                        000146    2542  	equ a_102,102
                        000147    2543  	equ a_103,103
                        000150    2544  	equ a_104,104
                        000151    2545  	equ a_105,105
                        000152    2546  	equ a_106,106
                        000153    2547  	equ a_107,107
                        000154    2548  	equ a_108,108
                        000155    2549  	equ a_109,109
                        000013    2550  	equ a_11,11
                        000156    2551  	equ a_110,110
                        000157    2552  	equ a_111,111
                        000160    2553  	equ a_112,112
                        000161    2554  	equ a_113,113
                        000162    2555  	equ a_114,114
                        000163    2556  	equ a_115,115
                        000164    2557  	equ a_116,116
                        000165    2558  	equ a_117,117
                        000166    2559  	equ a_118,118
                        000167    2560  	equ a_119,119
                        000014    2561  	equ a_12,12
                        000170    2562  	equ a_120,120
                        000171    2563  	equ a_121,121
                        000172    2564  	equ a_122,122
                        000173    2565  	equ a_123,123
                        000174    2566  	equ a_124,124
                        000175    2567  	equ a_125,125
                        000176    2568  	equ a_126,126
                        000177    2569  	equ a_127,127
                        000200    2570  	equ a_128,128
                        000201    2571  	equ a_129,129
                        000015    2572  	equ a_13,13
                        000202    2573  	equ a_130,130
                        000203    2574  	equ a_131,131
                        000204    2575  	equ a_132,132
                        000205    2576  	equ a_133,133
                        000206    2577  	equ a_134,134
                        000207    2578  	equ a_135,135
                        000210    2579  	equ a_136,136
                        000211    2580  	equ a_137,137
                        000213    2581  	equ a_139,139
                        000016    2582  	equ a_14,14
                        000214    2583  	equ a_140,140
                        000215    2584  	equ a_141,141
                        000216    2585  	equ a_142,142
                        000217    2586  	equ a_143,143
                        000220    2587  	equ a_144,144
                        000221    2588  	equ a_145,145
                        000222    2589  	equ a_146,146
                        000223    2590  	equ a_147,147
                        000224    2591  	equ a_148,148
                        000225    2592  	equ a_149,149
                        000017    2593  	equ a_15,15
                        000226    2594  	equ a_150,150
                        000227    2595  	equ a_151,151
                        000230    2596  	equ a_152,152
                        000231    2597  	equ a_153,153
                        000232    2598  	equ a_154,154
                        000233    2599  	equ a_155,155
                        000234    2600  	equ a_156,156
                        000235    2601  	equ a_157,157
                        000236    2602  	equ a_158,158
                        000237    2603  	equ a_159,159
                        000020    2604  	equ a_16,16
                        000240    2605  	equ a_160,160
                        000241    2606  	equ a_161,161
                        000242    2607  	equ a_162,162
                        000243    2608  	equ a_163,163
                        000244    2609  	equ a_164,164
                        000245    2610  	equ a_165,165
                        000246    2611  	equ a_166,166
                        000247    2612  	equ a_167,167
                        000250    2613  	equ a_168,168
                        000251    2614  	equ a_169,169
                        000021    2615  	equ a_17,17
                        000252    2616  	equ a_170,170
                        000253    2617  	equ a_171,171
                        000254    2618  	equ a_172,172
                        000255    2619  	equ a_173,173
                        000256    2620  	equ a_174,174
                        000257    2621  	equ a_175,175
                        000260    2622  	equ a_176,176
                        000261    2623  	equ a_177,177
                        000262    2624  	equ a_178,178
                        000263    2625  	equ a_179,179
                        000022    2626  	equ a_18,18
                        000264    2627  	equ a_180,180
                        000265    2628  	equ a_181,181
                        000266    2629  	equ a_182,182
                        000267    2630  	equ a_183,183
                        000270    2631  	equ a_184,184
                        000271    2632  	equ a_185,185
                        000272    2633  	equ a_186,186
                        000273    2634  	equ a_187,187
                        000274    2635  	equ a_188,188
                        000275    2636  	equ a_189,189
                        000023    2637  	equ a_19,19
                        000276    2638  	equ a_190,190
                        000277    2639  	equ a_191,191
                        000300    2640  	equ a_192,192
                        000301    2641  	equ a_193,193
                        000302    2642  	equ a_194,194
                        000303    2643  	equ a_195,195
                        000304    2644  	equ a_196,196
                        000305    2645  	equ a_197,197
                        000306    2646  	equ a_198,198
                        000307    2647  	equ a_199,199
                        000307    2648  	equ a_199,199
                        000002    2649  	equ a_2,2
                        000024    2650  	equ a_20,20
                        000310    2651  	equ a_200,200
                        000311    2652  	equ a_201,201
                        000312    2653  	equ a_202,202
                        000313    2654  	equ a_203,203
                        000314    2655  	equ a_204,204
                        000315    2656  	equ a_205,205
                        000316    2657  	equ a_206,206
                        000317    2658  	equ a_207,207
                        000320    2659  	equ a_208,208
                        000321    2660  	equ a_209,209
                        000025    2661  	equ a_21,21
                        000322    2662  	equ a_210,210
                        000323    2663  	equ a_211,211
                        000324    2664  	equ a_212,212
                        000325    2665  	equ a_213,213
                        000326    2666  	equ a_214,214
                        000327    2667  	equ a_215,215
                        000330    2668  	equ a_216,216
                        000331    2669  	equ a_217,217
                        000332    2670  	equ a_218,218
                        000333    2671  	equ a_219,219
                        000026    2672  	equ a_22,22
                        000334    2673  	equ a_220,220
                        000335    2674  	equ a_221,221
                        000336    2675  	equ a_222,222
                        000337    2676  	equ a_223,223
                        000340    2677  	equ a_224,224
                        000341    2678  	equ a_225,225
                        000342    2679  	equ a_226,226
                        000343    2680  	equ a_227,227
                        000344    2681  	equ a_228,228
                        000345    2682  	equ a_229,229
                        000027    2683  	equ a_23,23
                        000346    2684  	equ a_230,230
                        000347    2685  	equ a_231,231
                        000350    2686  	equ a_232,232
                        000351    2687  	equ a_233,233
                        000352    2688  	equ a_234,234
                        000353    2689  	equ a_235,235
                        000354    2690  	equ a_236,236
                        000355    2691  	equ a_237,237
                        000356    2692  	equ a_238,238
                        000357    2693  	equ a_239,239
                        000030    2694  	equ a_24,24
                        000360    2695  	equ a_240,240
                        000361    2696  	equ a_241,241
                        000362    2697  	equ a_242,242
                        000363    2698  	equ a_243,243
                        000364    2699  	equ a_244,244
                        000365    2700  	equ a_245,245
                        000366    2701  	equ a_246,246
                        000367    2702  	equ a_247,247
                        000370    2703  	equ a_248,248
                        000371    2704  	equ a_249,249
                        000031    2705  	equ a_25,25
                        000372    2706  	equ a_250,250
                        000373    2707  	equ a_251,251
                        000374    2708  	equ a_252,252
                        000375    2709  	equ a_253,253
                        000376    2710  	equ a_254,254
                        000377    2711  	equ a_255,255
                        000400    2712  	equ a_256,256
                        000401    2713  	equ a_257,257
                        000402    2714  	equ a_258,258
                        000403    2715  	equ a_259,259
                        000032    2716  	equ a_26,26
                        000404    2717  	equ a_260,260
                        000405    2718  	equ a_261,261
                        000406    2719  	equ a_262,262
                        000407    2720  	equ a_263,263
                        000410    2721  	equ a_264,264
                        000411    2722  	equ a_265,265
                        000412    2723  	equ a_266,266
                        000413    2724  	equ a_267,267
                        000414    2725  	equ a_268,268
                        000415    2726  	equ a_269,269
                        000033    2727  	equ a_27,27
                        000416    2728  	equ a_270,270
                        000417    2729  	equ a_271,271
                        000420    2730  	equ a_272,272
                        000421    2731  	equ a_273,273
                        000422    2732  	equ a_274,274
                        000423    2733  	equ a_275,275
                        000424    2734  	equ a_276,276
                        000425    2735  	equ a_277,277
                        000426    2736  	equ a_278,278
                        000427    2737  	equ a_279,279
                        000034    2738  	equ a_28,28
                        000430    2739  	equ a_280,280
                        000431    2740  	equ a_281,281
                        000432    2741  	equ a_282,282
                        000433    2742  	equ a_283,283
                        000434    2743  	equ a_284,284
                        000435    2744  	equ a_285,285
                        000436    2745  	equ a_286,286
                        000437    2746  	equ a_287,287
                        000440    2747  	equ a_288,288
                        000441    2748  	equ a_289,289
                        000035    2749  	equ a_29,29
                        000442    2750  	equ a_290,290
                        000443    2751  	equ a_291,291
                        000444    2752  	equ a_292,292
                        000445    2753  	equ a_293,293
                        000446    2754  	equ a_294,294
                        000447    2755  	equ a_295,295
                        000450    2756  	equ a_296,296
                        000451    2757  	equ a_297,297
                        000452    2758  	equ a_298,298
                        000453    2759  	equ a_299,299
                        000003    2760  	equ a_3,3
                        000036    2761  	equ a_30,30
                        000454    2762  	equ a_300,300
                        000455    2763  	equ a_301,301
                        000456    2764  	equ a_302,302
                        000457    2765  	equ a_303,303
                        000460    2766  	equ a_304,304
                        000461    2767  	equ a_305,305
                        000462    2768  	equ a_306,306
                        000463    2769  	equ a_307,307
                        000464    2770  	equ a_308,308
                        000465    2771  	equ a_309,309
                        000037    2772  	equ a_31,31
                        000466    2773  	equ a_310,310
                        000467    2774  	equ a_311,311
                        000470    2775  	equ a_312,312
                        000471    2776  	equ a_313,313
                        000472    2777  	equ a_314,314
                        000473    2778  	equ a_315,315
                        000474    2779  	equ a_316,316
                        000475    2780  	equ a_317,317
                        000476    2781  	equ a_318,318
                        000477    2782  	equ a_319,319
                        000040    2783  	equ a_32,32
                        000500    2784  	equ a_320,320
                        000501    2785  	equ a_321,321
                        000502    2786  	equ a_322,322
                        000503    2787  	equ a_323,323
                        000504    2788  	equ a_324,324
                        000505    2789  	equ a_325,325
                        000506    2790  	equ a_326,326
                        000507    2791  	equ a_327,327
                        000510    2792  	equ a_328,328
                        000511    2793  	equ a_329,329
                        000041    2794  	equ a_33,33
                        000512    2795  	equ a_330,330
                        000513    2796  	equ a_331,331
                        000514    2797  	equ a_332,332
                        000515    2798  	equ a_333,333
                        000516    2799  	equ a_334,334
                        000042    2800  	equ a_34,34
                        000043    2801  	equ a_35,35
                        000044    2802  	equ a_36,36
                        000045    2803  	equ a_37,37
                        000046    2804  	equ a_38,38
                        000047    2805  	equ a_39,39
                        000004    2806  	equ a_4,4
                        000050    2807  	equ a_40,40
                        000051    2808  	equ a_41,41
                        000052    2809  	equ a_42,42
                        000053    2810  	equ a_43,43
                        000054    2811  	equ a_44,44
                        000055    2812  	equ a_45,45
                        000056    2813  	equ a_46,46
                        000057    2814  	equ a_47,47
                        000060    2815  	equ a_48,48
                        000061    2816  	equ a_49,49
                        000005    2817  	equ a_5,5
                        000062    2818  	equ a_50,50
                        000063    2819  	equ a_51,51
                        000064    2820  	equ a_52,52
                        000065    2821  	equ a_53,53
                        000066    2822  	equ a_54,54
                        000067    2823  	equ a_55,55
                        000070    2824  	equ a_56,56
                        000071    2825  	equ a_57,57
                        000072    2826  	equ a_58,58
                        000073    2827  	equ a_59,59
                        000006    2828  	equ a_6,6
                        000074    2829  	equ a_60,60
                        000075    2830  	equ a_61,61
                        000076    2831  	equ a_62,62
                        000077    2832  	equ a_63,63
                        000100    2833  	equ a_64,64
                        000101    2834  	equ a_65,65
                        000102    2835  	equ a_66,66
                        000103    2836  	equ a_67,67
                        000104    2837  	equ a_68,68
                        000105    2838  	equ a_69,69
                        000007    2839  	equ a_7,7
                        000106    2840  	equ a_70,70
                        000107    2841  	equ a_71,71
                        000110    2842  	equ a_72,72
                        000111    2843  	equ a_73,73
                        000112    2844  	equ a_74,74
                        000113    2845  	equ a_75,75
                        000114    2846  	equ a_76,76
                        000115    2847  	equ a_77,77
                        000116    2848  	equ a_78,78
                        000117    2849  	equ a_79,79
                        000010    2850  	equ a_8,8
                        000120    2851  	equ a_80,80
                        000121    2852  	equ a_81,81
                        000122    2853  	equ a_82,82
                        000123    2854  	equ a_83,83
                        000124    2855  	equ a_84,84
                        000125    2856  	equ a_85,85
                        000126    2857  	equ a_86,86
                        000127    2858  	equ a_87,87
                        000130    2859  	equ a_88,88
                        000131    2860  	equ a_89,89
                        000011    2861  	equ a_9,9
                        000132    2862  	equ a_90,90
                        000133    2863  	equ a_91,91
                        000134    2864  	equ a_92,92
                        000135    2865  	equ a_93,93
                        000136    2866  	equ a_94,94
                        000137    2867  	equ a_95,95
                        000140    2868  	equ a_96,96
                        000141    2869  	equ a_97,97
                        000142    2870  	equ a_98,98
                        000143    2871  	equ a_99,99
                        000212    2872  	equ a_endjob,138
                        000146    2873  	equ r_eq,102
                        000273    2874  	equ r_lt,187
                        000274    2875  	equ r_rt,188
                        000270    2876  	equ r_tim,184
                        000272    2877  	equ r_exp,186
                        000266    2878  	equ r_pls,182
                        000267    2879  	equ r_sub,183
                        000275    2880  	equ r_per,189
                        000271    2881  	equ r_div,185
                        000173    2882  	equ r_ls,123
                        000161    2883  	equ r_gt,113
                        000001    2884  	equ r_accept,1
                        000002    2885  	equ r_add,2
                        000107    2886  	equ r_advancing,71
                        000110    2887  	equ r_after,72
                        000111    2888  	equ r_all,73
                        000112    2889  	equ r_alphabetic,74
                        000113    2890  	equ r_alphanumeric,75
                        000114    2891  	equ r_alphanumeric_edited,76
                        000140    2892  	equ r_also,96
                        000004    2893  	equ r_alter,4
                        000115    2894  	equ r_and,77
                        000720    2895  	equ r_any,464
                        000116    2896  	equ r_ascending,78
                        000117    2897  	equ r_at,79
                        000120    2898  	equ r_before,80
                        000121    2899  	equ r_beginning,81
                        000122    2900  	equ r_by,82
                        000005    2901  	equ r_call,5
                        000007    2902  	equ r_cancel,7
                        000123    2903  	equ r_character,83
                        000123    2904  	equ r_characters,83
                        000010    2905  	equ r_close,8
                        000277    2906  	equ r_cobol,191
                        001003    2907  	equ r_collating,515
                        000050    2908  	equ r_compute,40
                        001012    2909  	equ r_copy,522
                        001014    2910  	equ r_corr,524
                        001014    2911  	equ r_corresponding,524
                        000124    2912  	equ r_count,84
                        000304    2913  	equ r_data,196
                        000126    2914  	equ r_date,86
                        000127    2915  	equ r_day,87
                        000506    2916  	equ r_day_of_week,326
                        000130    2917  	equ r_debugging,88
                        000131    2918  	equ r_declaratives,89
                        000026    2919  	equ r_delete,22
                        000132    2920  	equ r_delimited,90
                        000133    2921  	equ r_delimiter,91
                        000134    2922  	equ r_depending,92
                        000135    2923  	equ r_descending,93
                        000051    2924  	equ r_disable,41
                        000052    2925  	equ r_display,42
                        000011    2926  	equ r_divide,9
                        000136    2927  	equ r_division,94
                        000137    2928  	equ r_down,95
                        000351    2929  	equ r_egi,233
                        000140    2930  	equ r_else,96
                        000141    2931  	equ r_emi,97
                        000053    2932  	equ r_enable,43
                        000142    2933  	equ r_end,98
                        000722    2934  	equ r_end_add,466
                        000723    2935  	equ r_end_call,467
                        000724    2936  	equ r_end_compute,468
                        000725    2937  	equ r_end_delete,469
                        000726    2938  	equ r_end_divide,470
                        000727    2939  	equ r_end_evaluate,471
                        000730    2940  	equ r_end_if,472
                        000731    2941  	equ r_end_multiply,473
                        000144    2942  	equ r_end_of_page,100
                        000732    2943  	equ r_end_perform,474
                        000733    2944  	equ r_end_read,475
                        000734    2945  	equ r_end_receive,476
                        000735    2946  	equ r_end_return,477
                        000736    2947  	equ r_end_rewrite,478
                        000737    2948  	equ r_end_search,479
                        000740    2949  	equ r_end_start,480
                        000741    2950  	equ r_end_string,481
                        000742    2951  	equ r_end_subtract,482
                        000743    2952  	equ r_end_unstring,483
                        000744    2953  	equ r_end_write,484
                        000143    2954  	equ r_ending,99
                        000054    2955  	equ r_enter,44
                        000144    2956  	equ r_eop,100
                        000146    2957  	equ r_equal,102
                        000146    2958  	equ r_equals,102
                        000003    2959  	equ r_error,3
                        000151    2960  	equ r_esi,105
                        000764    2961  	equ r_evaluate,500
                        000062    2962  	equ r_examine,50
                        000161    2963  	equ r_exceeds,113
                        000153    2964  	equ r_exception,107
                        000014    2965  	equ r_exit,12
                        000330    2966  	equ r_extend,216
                        000154    2967  	equ r_file,108
                        000155    2968  	equ r_first,109
                        000156    2969  	equ r_for,110
                        000157    2970  	equ r_from,111
                        000055    2971  	equ r_generate,45
                        000160    2972  	equ r_giving,112
                        000016    2973  	equ r_go,14
                        000161    2974  	equ r_greater,113
                        000335    2975  	equ r_high_value,221
                        000335    2976  	equ r_high_values,221
                        000056    2977  	equ r_hold,46
                        000167    2978  	equ r_i_o,119
                        000057    2979  	equ r_if,47
                        000145    2980  	equ r_in,101
                        000162    2981  	equ r_initial,114
                        000015    2982  	equ r_initialize,13
                        000020    2983  	equ r_initiate,16
                        000163    2984  	equ r_input,115
                        000021    2985  	equ r_inspect,17
                        000164    2986  	equ r_into,116
                        000165    2987  	equ r_invalid,117
                        000166    2988  	equ r_is,118
                        000170    2989  	equ r_key,120
                        000171    2990  	equ r_label,121
                        000172    2991  	equ r_leading,122
                        000173    2992  	equ r_less,123
                        001064    2993  	equ r_linage_counter,564
                        000174    2994  	equ r_line,124
                        000174    2995  	equ r_lines,124
                        000175    2996  	equ r_lock,125
                        000345    2997  	equ r_low_value,229
                        000345    2998  	equ r_low_values,229
                        000017    2999  	equ r_merge,15
                        000176    3000  	equ r_message,126
                        000022    3001  	equ r_move,18
                        000012    3002  	equ r_multiply,10
                        000177    3003  	equ r_negative,127
                        000200    3004  	equ r_next,128
                        000201    3005  	equ r_no,129
                        000202    3006  	equ r_not,130
                        000203    3007  	equ r_numeric,131
                        000204    3008  	equ r_numeric_edited,132
                        000205    3009  	equ r_of,133
                        001076    3010  	equ r_off,574
                        000206    3011  	equ r_on,134
                        000023    3012  	equ r_open,19
                        000207    3013  	equ r_or,135
                        000673    3014  	equ r_other,443
                        000211    3015  	equ r_output,137
                        000006    3016  	equ r_overflow,6
                        000213    3017  	equ r_page,139
                        000024    3018  	equ r_perform,20
                        000214    3019  	equ r_pointer,140
                        000215    3020  	equ r_positive,141
                        001057    3021  	equ r_printing,559
                        000216    3022  	equ r_procedure,142
                        000217    3023  	equ r_procedures,143
                        000220    3024  	equ r_proceed,144
                        000060    3025  	equ r_process,48
                        000221    3026  	equ r_processing,145
                        000222    3027  	equ r_program,146
                        000072    3028  	equ r_purge,58
                        000353    3029  	equ r_quote,235
                        000353    3030  	equ r_quotes,235
                        000223    3031  	equ r_random,147
                        000025    3032  	equ r_read,21
                        000027    3033  	equ r_receive,23
                        000224    3034  	equ r_record,148
                        000303    3035  	equ r_records,195
                        000225    3036  	equ r_reel,149
                        000226    3037  	equ r_references,150
                        000030    3038  	equ r_release,24
                        000227    3039  	equ r_remainder,151
                        000404    3040  	equ r_removal,260
                        000651    3041  	equ r_replace,425
                        000230    3042  	equ r_replacing,152
                        000231    3043  	equ r_reporting,153
                        000031    3044  	equ r_return,25
                        000232    3045  	equ r_reversed,154
                        000233    3046  	equ r_rewind,155
                        000033    3047  	equ r_rewrite,27
                        000234    3048  	equ r_rounded,156
                        000235    3049  	equ r_run,157
                        000032    3050  	equ r_search,26
                        000236    3051  	equ r_section,158
                        000237    3052  	equ r_segment,159
                        000036    3053  	equ r_send,30
                        000240    3054  	equ r_sentence,160
                        001113    3055  	equ r_sequence,587
                        000037    3056  	equ r_set,31
                        000241    3057  	equ r_size,161
                        000061    3058  	equ r_sort,49
                        000300    3059  	equ r_space,192
                        000300    3060  	equ r_spaces,192
                        000242    3061  	equ r_standard,162
                        000070    3062  	equ r_start,56
                        000041    3063  	equ r_stop,33
                        000042    3064  	equ r_string,34
                        000013    3065  	equ r_subtract,11
                        000043    3066  	equ r_suspend,35
                        000243    3067  	equ r_tallying,163
                        000244    3068  	equ r_terminal,164
                        000044    3069  	equ r_terminate,36
                        000245    3070  	equ r_than,165
                        000454    3071  	equ r_then,300
                        000246    3072  	equ r_through,166
                        000246    3073  	equ r_thru,166
                        000250    3074  	equ r_time,168
                        000250    3075  	equ r_times,168
                        000252    3076  	equ r_to,170
                        000063    3077  	equ r_transform,51
                        000253    3078  	equ r_unequal,171
                        000254    3079  	equ r_unit,172
                        000045    3080  	equ r_unstring,37
                        000255    3081  	equ r_until,173
                        000256    3082  	equ r_up,174
                        000257    3083  	equ r_upon,175
                        000047    3084  	equ r_use,39
                        000260    3085  	equ r_using,176
                        000261    3086  	equ r_varying,177
                        000262    3087  	equ r_when,178
                        000263    3088  	equ r_with,179
                        000046    3089  	equ r_write,38
                        000264    3090  	equ r_zero,180
                        000264    3091  	equ r_zeroes,180
                        000264    3092  	equ r_zeros,180
                                  3093  	end
ENTRY SEQUENCES

    026253  5a   000011 0000 00
    026254  aa  7 00046 2721 20
    026255  0a   000000 7100 00

NO LITERALS

NAME DEFINITIONS FOR ENTRY POINTS AND SEGDEFS

    026256  5a   000003 000000
    026257  5a   000026 600000
    026260  aa   000000 000000
    026261  55   000011 000002
    026262  5a   000002 400003
    026263  55   000006 000011
    026264  aa  012 143 157 142
    026265  aa  157 154 137 160
    026266  aa  144 163 164 000
    026267  55   000017 000003
    026270  0a   026254 500000
    026271  55   000014 000003
    026272  aa  012 143 157 142         cobol_pdst
    026273  aa  157 154 137 160
    026274  aa  144 163 164 000
    026275  55   000002 000011
    026276  6a   000000 400002
    026277  55   000022 000003
    026300  aa  014 163 171 155         symbol_table
    026301  aa  142 157 154 137
    026302  aa  164 141 142 154
    026303  aa  145 000 000 000

DEFINITIONS HASH TABLE

    026304  aa   000000 000015
    026305  aa   000000 000000
    026306  aa   000000 000000
    026307  aa   000000 000000
    026310  aa   000000 000000
    026311  aa   000000 000000
    026312  aa   000000 000000
    026313  5a   000017 000000
    026314  aa   000000 000000
    026315  aa   000000 000000
    026316  aa   000000 000000
    026317  5a   000011 000000
    026320  aa   000000 000000
    026321  aa   000000 000000

NO EXTERNAL NAMES

NO TRAP POINTER WORDS

TYPE PAIR BLOCKS

    026322  aa   000001 000000
    026323  aa   000000 000000

INTERNAL EXPRESSION WORDS

LINKAGE INFORMATION

    000000  aa   000000 000000
    000001  0a   026256 000000
    000002  aa   000000 000000
    000003  aa   000000 000000
    000004  aa   000000 000000
    000005  aa   000000 000000
    000006  22   000010 000010
    000007  a2   000000 000000
SYMBOL INFORMATION

SYMBOL TABLE HEADER

    000000  aa   000000 000001
    000001  aa   163171 155142
    000002  aa   164162 145145
    000003  aa   000000 000010
    000004  aa   000000 116606
    000005  aa   116110 132154
    000006  aa   000000 117220
    000007  aa   247453 062713
    000010  aa   141154 155040
    000011  aa   040040 040040
    000012  aa   000024 000040
    000013  aa   000034 000040
    000014  aa   000044 000100
    000015  aa   000002 000002
    000016  aa   000064 000000
    000017  aa   000000 001322
    000020  aa   000000 000104
    000021  aa   001305 001302
    000022  aa   001314 000104
    000023  aa   000064 000000
    000024  aa   101114 115040
    000025  aa   126145 162163
    000026  aa   151157 156040
    000027  aa   070056 061063
    000030  aa   040123 145160
    000031  aa   164145 155142
    000032  aa   145162 040061
    000033  aa   071070 070040
    000034  aa   110151 162156
    000035  aa   145151 163145
    000036  aa   156056 123171
    000037  aa   163115 141151
    000040  aa   156164 056141
    000041  aa   040040 040040
    000042  aa   040040 040040
    000043  aa   040040 040040
    000044  aa   055164 141162
    000045  aa   147145 164040
    000046  aa   154066 070040
    000047  aa   040040 040040
    000050  aa   040040 040040
    000051  aa   040040 040040
    000052  aa   040040 040040
    000053  aa   040040 040040
    000054  aa   040040 040040
    000055  aa   040040 040040
    000056  aa   040154 151163
    000057  aa   164040 163171
    000060  aa   155142 157154
    000061  aa   163040 040040
    000062  aa   040040 040040
    000063  aa   040040 040040
    000064  aa   000000 000001
    000065  aa   000000 000001
    000066  aa   000072 000050
    000067  aa   172113 321151
    000070  aa   000000 117220
    000071  aa   217334 200000
    000072  aa   076163 160145          >spec>install>MR12.3-1048>cobol_pdst.alm
    000073  aa   143076 151156
    000074  aa   163164 141154
    000075  aa   154076 115122
    000076  aa   061062 056063
    000077  aa   055061 060064
    000100  aa   070076 143157
    000101  aa   142157 154137
    000102  aa   160144 163164
    000103  aa   056141 154155
               MULTICS ASSEMBLY CROSS REFERENCE LISTING

   Value        Symbol                   Source file   Line number

        3066    acc1                     cobol_pdst:   329,  347.
        3112    acc2                     cobol_pdst:   337,  351.
        2765    acc3                     cobol_pdst:   328,  334.
        3047    acc4                     cobol_pdst:   344,  346.
        3061    acc5                     cobol_pdst:   341,  346.
        2722    accept                   cobol_pdst:    30,  327.
        3124    add                      cobol_pdst:    31,  353.
        3275    add1                     cobol_pdst:   367,  370,  374,  386.
        3307    add11                    cobol_pdst:   372,  376,  385.
        3333    add2                     cobol_pdst:   365,  380.
        3345    add3                     cobol_pdst:   382,  387.
        3155    add4                     cobol_pdst:   358,  366.
        3220    add5                     cobol_pdst:   359,  360,  365.
        3232    add6                     cobol_pdst:   362,  363,  367,  379.
        3376    add8                     cobol_pdst:   384,  387.
        3326    add9                     cobol_pdst:   371,  379.
       23052    ae                       cobol_pdst:  1250, 1253, 1983, 1989, 1991, 1997, 2002, 2006.
       23134    aei                      cobol_pdst:  1168, 1247, 1993.
       23172    aei1                     cobol_pdst:  1999, 2006.
       23235    aei2                     cobol_pdst:  1994, 2006.
       25616    aexp_1                   cobol_pdst:  2259, 2264, 2267.
       25666    aexp_2                   cobol_pdst:  2267, 2272, 2273.
       25642    aexp_4                   cobol_pdst:  2261, 2263.
       22573    alel                     cobol_pdst:   363,  371,  576,  744,  942, 1081, 1099, 1623, 1946, 1948.
       22605    alel1                    cobol_pdst:  1950, 1954.
       22617    alel2                    cobol_pdst:  1944, 1952.
       22561    alelnuit                 cobol_pdst:   766, 1946.
        3410    alt1                     cobol_pdst:   389,  404.
        3460    alt2                     cobol_pdst:   394,  395,  397.
        3403    alter                    cobol_pdst:    33,  388.
       25611    arithexp                 cobol_pdst:   516,  668, 1336, 2153, 2246, 2258.
           1    a_1                      cobol_pdst:  2149, 2538.
          12    a_10                     cobol_pdst:   961, 2539.
         144    a_100                    cobol_pdst:  2540.
         145    a_101                    cobol_pdst:   339, 2541.
         146    a_102                    cobol_pdst:   367,  373, 1625, 1632, 2542.
         147    a_103                    cobol_pdst:  2543.
         150    a_104                    cobol_pdst:   402, 2544.
         151    a_105                    cobol_pdst:   441, 2545.
         152    a_106                    cobol_pdst:   458,  489, 2546.
         153    a_107                    cobol_pdst:  2547.
         154    a_108                    cobol_pdst:   516, 2548.
         155    a_109                    cobol_pdst:  1378, 2549.
          13    a_11                     cobol_pdst:   971, 1030, 2550.
         156    a_110                    cobol_pdst:  2013, 2015, 2551.
         157    a_111                    cobol_pdst:  1651, 2552.
         160    a_112                    cobol_pdst:  1978, 2553.
         161    a_113                    cobol_pdst:  1869, 2554.
         162    a_114                    cobol_pdst:  1893, 2555.
         163    a_115                    cobol_pdst:  2556.
         164    a_116                    cobol_pdst:  2557.
         165    a_117                    cobol_pdst:  2558.
         166    a_118                    cobol_pdst:  1877, 2559.
         167    a_119                    cobol_pdst:   980, 1036, 2560.
          14    a_12                     cobol_pdst:   167,  190,  446,  460,  491,  499,  963,  983,  990,  997, 1004, 1015,
                                                      1022, 1039, 1046, 1138, 1173, 1182, 1264, 1514, 1721, 1753, 1777, 1845, 2561.
         170    a_120                    cobol_pdst:   163, 1534, 1731, 1797, 1803, 2562.
         171    a_121                    cobol_pdst:   162,  471,  476, 1145, 1540, 1682, 1705, 1730, 1796, 1802, 2563.
         172    a_122                    cobol_pdst:   164, 1804, 2564.
         173    a_123                    cobol_pdst:  1646, 1647, 2565.
         174    a_124                    cobol_pdst:  1656, 2566.
         175    a_125                    cobol_pdst:  1874, 2567.
         176    a_126                    cobol_pdst:  1876, 2568.
         177    a_127                    cobol_pdst:    99, 2569.
         200    a_128                    cobol_pdst:   119,  231,  248,  252,  277,  282, 2570.
         201    a_129                    cobol_pdst:   232,  267,  278,  280, 2571.
          15    a_13                     cobol_pdst:   148, 2572.
         202    a_130                    cobol_pdst:  2126, 2136, 2137, 2138, 2573.
         203    a_131                    cobol_pdst:  1881, 2574.
         204    a_132                    cobol_pdst:  1888, 2575.
         205    a_133                    cobol_pdst:   114, 2576.
         206    a_134                    cobol_pdst:  2577.
         207    a_135                    cobol_pdst:  1883, 2578.
         210    a_136                    cobol_pdst:  1884, 2579.
         211    a_137                    cobol_pdst:   903, 2580.
         213    a_139                    cobol_pdst:  1352, 1354, 2581.
          16    a_14                     cobol_pdst:   197,  457,  483,  485,  487,  979, 1011, 2582.
         214    a_140                    cobol_pdst:  2583.
         215    a_141                    cobol_pdst:  2584.
         216    a_142                    cobol_pdst:  1322, 1325, 2585.
         217    a_143                    cobol_pdst:  1063, 2586.
         220    a_144                    cobol_pdst:  1057, 1654, 2587.
         221    a_145                    cobol_pdst:   124,  125, 2588.
         222    a_146                    cobol_pdst:  2589.
         223    a_147                    cobol_pdst:   389, 2590.
         224    a_148                    cobol_pdst:   675, 2591.
         225    a_149                    cobol_pdst:   876, 2256, 2592.
          17    a_15                     cobol_pdst:   199, 2593.
         226    a_150                    cobol_pdst:  2194, 2195, 2594.
         227    a_151                    cobol_pdst:  2196, 2197, 2595.
         230    a_152                    cobol_pdst:  1852, 2596.
         231    a_153                    cobol_pdst:   176, 2597.
         232    a_154                    cobol_pdst:   616, 2598.
         233    a_155                    cobol_pdst:   615, 2599.
         234    a_156                    cobol_pdst:   827, 1457, 2600.
         235    a_157                    cobol_pdst:   851, 1470, 1483, 1501, 2601.
         236    a_158                    cobol_pdst:  1505, 2602.
         237    a_159                    cobol_pdst:  1474, 2603.
          20    a_16                     cobol_pdst:   200, 2604.
         240    a_160                    cobol_pdst:   351, 2605.
         241    a_161                    cobol_pdst:   341, 2606.
         242    a_162                    cobol_pdst:  1484, 2607.
         243    a_163                    cobol_pdst:   559, 2608.
         244    a_164                    cobol_pdst:  1307, 2609.
         245    a_165                    cobol_pdst:   845, 1477, 1495, 2610.
         246    a_166                    cobol_pdst:  1481, 2611.
         247    a_167                    cobol_pdst:  1480, 2612.
         250    a_168                    cobol_pdst:  1499, 2613.
         251    a_169                    cobol_pdst:  1498, 2614.
          21    a_17                     cobol_pdst:   201, 2615.
         252    a_170                    cobol_pdst:  1443, 2616.
         253    a_171                    cobol_pdst:  1309, 2617.
         254    a_172                    cobol_pdst:  1310, 2618.
         255    a_173                    cobol_pdst:  1304, 1311, 1324, 2619.
         256    a_174                    cobol_pdst:  1313, 2620.
         257    a_175                    cobol_pdst:  2621.
         260    a_176                    cobol_pdst:  1342, 2622.
         261    a_177                    cobol_pdst:  1343, 2623.
         262    a_178                    cobol_pdst:  1344, 2624.
         263    a_179                    cobol_pdst:  2625.
          22    a_18                     cobol_pdst:   198,  977, 2626.
         264    a_180                    cobol_pdst:   444,  467,  498, 2627.
         265    a_181                    cobol_pdst:  2628.
         266    a_182                    cobol_pdst:  2629.
         267    a_183                    cobol_pdst:  2630.
         270    a_184                    cobol_pdst:  2631.
         271    a_185                    cobol_pdst:   830, 2632.
         272    a_186                    cobol_pdst:   834, 2633.
         273    a_187                    cobol_pdst:   855, 2634.
         274    a_188                    cobol_pdst:   812, 2635.
         275    a_189                    cobol_pdst:   836,  837, 2636.
          23    a_19                     cobol_pdst:   149, 2637.
         276    a_190                    cobol_pdst:   848, 2638.
         277    a_191                    cobol_pdst:  1240, 2639.
         300    a_192                    cobol_pdst:   442,  681, 2640.
         301    a_193                    cobol_pdst:   684, 2641.
         302    a_194                    cobol_pdst:   618, 2642.
         303    a_195                    cobol_pdst:   279, 1305, 1312, 1997, 2006, 2021, 2030, 2046, 2055, 2073, 2082, 2098,
                                                      2106, 2643.
         304    a_196                    cobol_pdst:  2644.
         305    a_197                    cobol_pdst:  2645.
         306    a_198                    cobol_pdst:  2646.
         307    a_199                    cobol_pdst:  2647, 2648.
           2    a_2                      cobol_pdst:  2150, 2649.
          24    a_20                     cobol_pdst:   144,  456,  470,  478,  482,  530, 1121, 1148, 1196, 1273, 1296, 1586,
                                                      1594, 1683, 1728, 2650.
         310    a_200                    cobol_pdst:  1077, 1111, 2651.
         311    a_201                    cobol_pdst:  2260, 2652.
         312    a_202                    cobol_pdst:  2264, 2653.
         313    a_203                    cobol_pdst:  2267, 2654.
         314    a_204                    cobol_pdst:  2268, 2655.
         315    a_205                    cobol_pdst:  2272, 2656.
         316    a_206                    cobol_pdst:  2273, 2657.
         317    a_207                    cobol_pdst:  2258, 2658.
         320    a_208                    cobol_pdst:  2262, 2659.
         321    a_209                    cobol_pdst:  2244, 2660.
          25    a_21                     cobol_pdst:   103,  156,  312,  329,  365,  419,  568,  688,  951, 1065, 1275, 1293,
                                                      1429, 1523, 1551, 1552, 1611, 1729, 1793, 2661.
         322    a_210                    cobol_pdst:  2182, 2662.
         323    a_211                    cobol_pdst:  2248, 2249, 2250, 2255, 2663.
         324    a_212                    cobol_pdst:  2246, 2664.
         325    a_213                    cobol_pdst:  2665.
         326    a_214                    cobol_pdst:  1940, 1943, 2666.
         327    a_215                    cobol_pdst:  1866, 1867, 2667.
         330    a_216                    cobol_pdst:  1865, 2668.
         331    a_217                    cobol_pdst:  2669.
         332    a_218                    cobol_pdst:  2670.
         333    a_219                    cobol_pdst:  2165, 2671.
          26    a_22                     cobol_pdst:   764, 2672.
         334    a_220                    cobol_pdst:  2151, 2157, 2673.
         335    a_221                    cobol_pdst:  2152, 2158, 2674.
         336    a_222                    cobol_pdst:  2170, 2172, 2675.
         337    a_223                    cobol_pdst:  2171, 2173, 2176, 2183, 2198, 2676.
         340    a_224                    cobol_pdst:  2163, 2178, 2187, 2188, 2200, 2230, 2231, 2232, 2239, 2677.
         341    a_225                    cobol_pdst:  2206, 2678.
         342    a_226                    cobol_pdst:  2208, 2679.
         343    a_227                    cobol_pdst:  2213, 2680.
         344    a_228                    cobol_pdst:  2189, 2681.
         345    a_229                    cobol_pdst:  2210, 2682.
          27    a_23                     cobol_pdst:   614, 2683.
         346    a_230                    cobol_pdst:  2214, 2684.
         347    a_231                    cobol_pdst:  2222, 2685.
         350    a_232                    cobol_pdst:  2227, 2228, 2686.
         351    a_233                    cobol_pdst:  2215, 2687.
         352    a_234                    cobol_pdst:  2216, 2688.
         353    a_235                    cobol_pdst:  2225, 2689.
         354    a_236                    cobol_pdst:  2226, 2690.
         355    a_237                    cobol_pdst:   713, 2691.
         356    a_238                    cobol_pdst:   720, 2692.
         357    a_239                    cobol_pdst:   716, 2693.
          30    a_24                     cobol_pdst:   147,  566, 1066, 1779, 2694.
         360    a_240                    cobol_pdst:   724, 2695.
         361    a_241                    cobol_pdst:  2696.
         362    a_242                    cobol_pdst:  2697.
         363    a_243                    cobol_pdst:  2698.
         364    a_244                    cobol_pdst:   712, 2699.
         365    a_245                    cobol_pdst:  2700.
         366    a_246                    cobol_pdst:  2701.
         367    a_247                    cobol_pdst:  2702.
         370    a_248                    cobol_pdst:   336, 2703.
         371    a_249                    cobol_pdst:   556, 2704.
          31    a_25                     cobol_pdst:   146, 2705.
         372    a_250                    cobol_pdst:  2706.
         373    a_251                    cobol_pdst:   242, 2707.
         374    a_252                    cobol_pdst:  1408, 1415, 2708.
         375    a_253                    cobol_pdst:   178, 2709.
         376    a_254                    cobol_pdst:   180, 2710.
         377    a_255                    cobol_pdst:   182, 2711.
         400    a_256                    cobol_pdst:   185, 2712.
         401    a_257                    cobol_pdst:  1151, 1166, 2713.
         402    a_258                    cobol_pdst:  1180, 2156, 2714.
         403    a_259                    cobol_pdst:  1189, 2715.
          32    a_26                     cobol_pdst:   150, 2716.
         404    a_260                    cobol_pdst:  1262, 2717.
         405    a_261                    cobol_pdst:  1719, 2718.
         406    a_262                    cobol_pdst:  1521, 2719.
         407    a_263                    cobol_pdst:   970, 1029, 2720.
         410    a_264                    cobol_pdst:  2164, 2721.
         411    a_265                    cobol_pdst:  1927, 2722.
         412    a_266                    cobol_pdst:   377,  431,  523,  582,  641,  948, 1157, 1215, 1248, 1281, 1346, 1530,
                                                      1592, 1629, 1689, 1751, 1863, 2723.
         413    a_267                    cobol_pdst:   368,  382,  510,  574,  600,  940,  955, 1620, 1634, 2724.
         414    a_268                    cobol_pdst:   369,  383,  511,  575,  587,  601,  941,  956, 1621, 1635, 2725.
         415    a_269                    cobol_pdst:   371,  384,  588,  957, 1623, 1636, 2726.
          33    a_27                     cobol_pdst:   353,  506,  562,  928, 1600, 2727.
         416    a_270                    cobol_pdst:  2038, 2040, 2728.
         417    a_271                    cobol_pdst:   576,  942, 2729.
         420    a_272                    cobol_pdst:   297,  308,  691,  694, 2730.
         421    a_273                    cobol_pdst:   188,  240,  243,  283,  320,  322, 2130, 2139, 2142, 2145, 2731.
         422    a_274                    cobol_pdst:   104,  112,  117,  128,  237,  261,  269,  300,  318,  319, 2122, 2127,
                                                      2128, 2732.
         423    a_275                    cobol_pdst:   295, 2733.
         424    a_276                    cobol_pdst:  2734.
         425    a_277                    cobol_pdst:  2735.
         426    a_278                    cobol_pdst:   573,  939, 1617, 2736.
         427    a_279                    cobol_pdst:  1872, 2737.
          34    a_28                     cobol_pdst:   328,  773,  775,  805,  864,  865,  866,  867,  869,  870,  875, 1054,
                                                      1081, 1099, 1135, 1228, 1511, 1618, 1653, 1790, 2738.
         430    a_280                    cobol_pdst:  1879, 2739.
         431    a_281                    cobol_pdst:  1422, 1432, 2740.
         432    a_282                    cobol_pdst:  1392, 2741.
         433    a_283                    cobol_pdst:   707, 2742.
         434    a_284                    cobol_pdst:  2259, 2269, 2743.
         435    a_285                    cobol_pdst:  1926, 1929, 1932, 2744.
         436    a_286                    cobol_pdst:   105, 2745.
         437    a_287                    cobol_pdst:   422,  425, 2746.
         440    a_288                    cobol_pdst:  1137, 1171, 1513, 1545, 2747.
         441    a_289                    cobol_pdst:  1055, 2748.
          35    a_29                     cobol_pdst:   594, 2749.
         442    a_290                    cobol_pdst:  1962, 2750.
         443    a_291                    cobol_pdst:  2751.
         444    a_292                    cobol_pdst:  1244, 1988, 2012, 2037, 2064, 2089, 2752.
         445    a_293                    cobol_pdst:  1218, 1994, 2018, 2043, 2070, 2095, 2753.
         446    a_294                    cobol_pdst:  1995, 2000, 2019, 2024, 2044, 2049, 2071, 2076, 2096, 2101, 2754.
         447    a_295                    cobol_pdst:  1072, 2755.
         450    a_296                    cobol_pdst:  1073, 2756.
         451    a_297                    cobol_pdst:  2160, 2757.
         452    a_298                    cobol_pdst:  2175, 2758.
         453    a_299                    cobol_pdst:  2186, 2759.
           3    a_3                      cobol_pdst:   241,  292,  344,  345,  348,  370,  386,  401,  427,  440,  459,  490,
                                                       519,  540,  561,  578,  620,  621,  702,  765,  797,  801,  806,  893,
                                                       897,  944,  982, 1038, 1068, 1069, 1113, 1115, 1122, 1128, 1133, 1153,
                                                      1205, 1231, 1234, 1274, 1277, 1284, 1302, 1321, 1389, 1390, 1401, 1426,
                                                      1461, 1525, 1554, 1588, 1622, 1638, 1648, 1685, 1748, 1749, 1811, 1843,
                                                      1856, 2760.
          36    a_30                     cobol_pdst:  2761.
         454    a_300                    cobol_pdst:   233,  234,  271,  276,  284, 2762.
         455    a_301                    cobol_pdst:  1204, 1303, 1323, 2065, 2067, 2763.
         456    a_302                    cobol_pdst:  1989, 1991, 2764.
         457    a_303                    cobol_pdst:  2765.
         460    a_304                    cobol_pdst:  2090, 2092, 2766.
         461    a_305                    cobol_pdst:  1074, 2767.
         462    a_306                    cobol_pdst:   708, 2768.
         463    a_307                    cobol_pdst:  2247, 2251, 2769.
         464    a_308                    cobol_pdst:   723, 2770.
         465    a_309                    cobol_pdst:  1868, 1871, 2771.
          37    a_31                     cobol_pdst:  2772.
         466    a_310                    cobol_pdst:   378,  432,  524,  583,  642,  949, 1158, 1216, 1249, 1282, 1531, 1593,
                                                      1630, 1690, 1752, 1864, 2773.
         467    a_311                    cobol_pdst:  2774.
         470    a_312                    cobol_pdst:   374,  434,  520,  579,  945, 1154, 1206, 1278, 1527, 1528, 1589, 1626,
                                                      1686, 1860, 2775.
         471    a_313                    cobol_pdst:   719, 2776.
         472    a_314                    cobol_pdst:  2777.
         473    a_315                    cobol_pdst:  1203, 2778.
         474    a_316                    cobol_pdst:  2779.
         475    a_317                    cobol_pdst:  1211, 2780.
         476    a_318                    cobol_pdst:   138,  274,  327,  443,  617,  960, 1356, 2781.
         477    a_319                    cobol_pdst:   165,  169,  291,  334,  448,  619,  965,  986,  987,  989, 1042, 1043,
                                                      1045, 1375, 1767, 1769, 2782.
          40    a_32                     cobol_pdst:  1058, 1655, 2783.
         500    a_320                    cobol_pdst:   981, 1037, 2784.
         501    a_321                    cobol_pdst:   406, 1368, 1455, 1755, 1759, 2785.
         502    a_322                    cobol_pdst:  1439, 2786.
         503    a_323                    cobol_pdst:  1366, 2787.
         504    a_324                    cobol_pdst:  1550, 2788.
         505    a_325                    cobol_pdst:  2168, 2180, 2181, 2185, 2192, 2193, 2202, 2203, 2217, 2224, 2789.
         506    a_326                    cobol_pdst:  2790.
         507    a_327                    cobol_pdst:  2199, 2204, 2791.
         510    a_328                    cobol_pdst:   113,  118,  129,  238,  262,  270, 2792.
         511    a_329                    cobol_pdst:   189, 2793.
          41    a_33                     cobol_pdst:   354,  355,  356,  359,  360, 1601, 1604, 2794.
         512    a_330                    cobol_pdst:   296, 2795.
         513    a_331                    cobol_pdst:   302, 2796.
         514    a_332                    cobol_pdst:   127,  260, 2797.
         515    a_333                    cobol_pdst:   730, 2798.
         516    a_334                    cobol_pdst:   717, 2799.
          42    a_34                     cobol_pdst:   362,  363,  380,  953, 1608, 1613, 2800.
          43    a_35                     cobol_pdst:   585, 2801.
          44    a_36                     cobol_pdst:  2802.
          45    a_37                     cobol_pdst:   290,  706, 1459, 1732, 2803.
          46    a_38                     cobol_pdst:   606,  612, 2804.
          47    a_39                     cobol_pdst:  2805.
           4    a_4                      cobol_pdst:   140,  236,  453,  454,  528,  755,  815,  823, 1120, 1147, 1230, 1243,
                                                      1359, 1406, 1445, 1453, 1644, 1645, 1810, 2806.
          50    a_40                     cobol_pdst:   849, 2807.
          51    a_41                     cobol_pdst:  1441, 2808.
          52    a_42                     cobol_pdst:   405, 1236, 1555, 1657, 2809.
          53    a_43                     cobol_pdst:  2810.
          54    a_44                     cobol_pdst:  1134, 1261, 1510, 1717, 1844, 2811.
          55    a_45                     cobol_pdst:   508,  512,  569,  597,  936, 1393, 2812.
          56    a_46                     cobol_pdst:  2813.
          57    a_47                     cobol_pdst:   742, 2814.
          60    a_48                     cobol_pdst:   586, 2815.
          61    a_49                     cobol_pdst:  2816.
           5    a_5                      cobol_pdst:  2817.
          62    a_50                     cobol_pdst:   624, 1053, 1191, 1290, 2818.
          63    a_51                     cobol_pdst:  2819.
          64    a_52                     cobol_pdst:   433, 2820.
          65    a_53                     cobol_pdst:  2821.
          66    a_54                     cobol_pdst:  2822.
          67    a_55                     cobol_pdst:  2823.
          70    a_56                     cobol_pdst:  2824.
          71    a_57                     cobol_pdst:  2825.
          72    a_58                     cobol_pdst:  2826.
          73    a_59                     cobol_pdst:  2827.
           6    a_6                      cobol_pdst:  2828.
          74    a_60                     cobol_pdst:  2829.
          75    a_61                     cobol_pdst:  2830.
          76    a_62                     cobol_pdst:   846, 2831.
          77    a_63                     cobol_pdst:  1067, 2832.
         100    a_64                     cobol_pdst:   340, 1084, 1089, 1100, 1292, 1316, 2833.
         101    a_65                     cobol_pdst:  2834.
         102    a_66                     cobol_pdst:  2835.
         103    a_67                     cobol_pdst:  1369, 2836.
         104    a_68                     cobol_pdst:  1370, 2837.
         105    a_69                     cobol_pdst:  1371, 2838.
           7    a_7                      cobol_pdst:   161, 2839.
         106    a_70                     cobol_pdst:  2840.
         107    a_71                     cobol_pdst:  1376, 2841.
         110    a_72                     cobol_pdst:  1377, 2842.
         111    a_73                     cobol_pdst:  2843.
         112    a_74                     cobol_pdst:   819,  821, 1449, 1451, 2844.
         113    a_75                     cobol_pdst:   571,  937, 1615, 2845.
         114    a_76                     cobol_pdst:  2846.
         115    a_77                     cobol_pdst:  2847.
         116    a_78                     cobol_pdst:   802,  803,  804,  808, 1676, 2848.
         117    a_79                     cobol_pdst:  2849.
          10    a_8                      cobol_pdst:   109,  111,  187,  205,  207,  212,  213,  214,  218,  219,  220,  224,
                                                       229,  230,  294,  301,  311,  421,  424,  543,  544,  545,  551,  552,
                                                       553,  680,  683,  686,  689,  703,  705,  741,  761,  762,  763,  766,
                                                       880,  881,  882,  894,  895,  896, 1395, 1398, 1403, 1409, 1410, 1412,
                                                      1668, 1669, 2850.
         120    a_80                     cobol_pdst:  2851.
         121    a_81                     cobol_pdst:  2852.
         122    a_82                     cobol_pdst:  2853.
         123    a_83                     cobol_pdst:  2854.
         124    a_84                     cobol_pdst:  2855.
         125    a_85                     cobol_pdst:  1984, 1986, 2010, 2011, 2033, 2035, 2062, 2085, 2087, 2109, 2111, 2856.
         126    a_86                     cobol_pdst:  2857.
         127    a_87                     cobol_pdst:   273,  372,  388,  436,  525,  542,  577,  602,  604,  672,  677,  678,
                                                       700,  732,  738,  810,  863,  943, 1116, 1129, 1208, 1217, 1224, 1391,
                                                      1438, 1549, 1624, 1640, 1649, 1737, 1788, 1825, 2858.
         130    a_88                     cobol_pdst:   116, 2859.
         131    a_89                     cobol_pdst:   254, 2860.
          11    a_9                      cobol_pdst:   816,  824, 1446, 1454, 1458, 2861.
         132    a_90                     cobol_pdst:   513,  514, 1974, 2862.
         133    a_91                     cobol_pdst:  1975, 2863.
         134    a_92                     cobol_pdst:  2864.
         135    a_93                     cobol_pdst:  1982, 2865.
         136    a_94                     cobol_pdst:   152,  153,  157,  208, 2866.
         137    a_95                     cobol_pdst:   227, 2867.
         140    a_96                     cobol_pdst:   246, 2868.
         141    a_97                     cobol_pdst:  2869.
         142    a_98                     cobol_pdst:  2870.
         143    a_99                     cobol_pdst:  2871.
         212    a_endjob                 cobol_pdst:   245, 2872.
       25250    bop                      cobol_pdst:  2168, 2192, 2193, 2194, 2195, 2196, 2197, 2213.
       25255    bop1                     cobol_pdst:  2189, 2210, 2214.
       25243    bop2                     cobol_pdst:  2165, 2212.
       25267    bop3                     cobol_pdst:  2216, 2227.
       25313    bop4                     cobol_pdst:  2215, 2216, 2220, 2225.
        3530    call                     cobol_pdst:    34,  405.
        3701    call1                    cobol_pdst:   420,  426.
        3605    call2                    cobol_pdst:   414,  415.
        3751    call3                    cobol_pdst:   427,  434.
        3612    call5                    cobol_pdst:   412,  415.
        3624    call6                    cobol_pdst:   408,  417.
        3636    call7                    cobol_pdst:   410,  414,  419.
        4007    can1                     cobol_pdst:   440,  441.
        3763    cancel                   cobol_pdst:    36,  436.
        4026    close                    cobol_pdst:    37,  443.
        4343    clos_ri1                 cobol_pdst:   449,  450,  484,  502,  503.
        4374    clos_ri2                 cobol_pdst:   485,  486,  489.
        4451    clos_ri3                 cobol_pdst:   463,  464,  494,  495,  498.
        4110    clos_ss1                 cobol_pdst:   448,  452,  453,  467.
        4141    clos_ss2                 cobol_pdst:   458,  472,  473,  474,  475.
        4216    clos_ss3                 cobol_pdst:   462,  466,  467,  493,  497.
        4223    clos_ss4                 cobol_pdst:   453,  454,  468.
        4273    clos_ss6                 cobol_pdst:   469,  476.
        4305    clos_ss7                 cobol_pdst:   468,  478.
        4317    clos_ss8                 cobol_pdst:   456,  470,  480,  482.
        4331    clos_ss9                 cobol_pdst:   455,  482.
        4266    cl_lock                  cobol_pdst:   457,  475,  483.
        4261    cl_rem                   cobol_pdst:   471,  474,  476.
        4254    cl_rew                   cobol_pdst:   473,  480.
           0    cobol_pdst               cobol_pdst:    18,   19,   20.
        4545    com1                     cobol_pdst:   510,  512.
        4641    com2                     cobol_pdst:   518,  522.
        4521    compute                  cobol_pdst:    69,  506.
       24620    condition                cobol_pdst:   656,  709, 1077, 1111, 1307, 2157.
       25503    condop                   cobol_pdst:  2164, 2210, 2244.
       25534    cop2                     cobol_pdst:  2249.
       25527    cop3                     cobol_pdst:  2248, 2256.
       25565    cop4                     cobol_pdst:  2245, 2254.
       24632    ctrm                     cobol_pdst:  2154, 2159, 2174.
         305    c_acc_dev                cobol_pdst:   337,  351, 2316.
         210    c_actloglp               cobol_pdst:  2222, 2317.
         236    c_adrisadr               cobol_pdst:  1171, 1545, 2318.
         165    c_alelnuitm              cobol_pdst:  2319.
         151    c_alph                   cobol_pdst:   890, 2320.
         303    c_alphnm                 cobol_pdst:   861, 1465, 2321.
         172    c_alphoral               cobol_pdst:  2322.
         277    c_altlegal               cobol_pdst:   399, 2323.
          15    c_altprnm                cobol_pdst:   389,  402, 2324.
         274    c_altst                  cobol_pdst:   933, 1606, 1948, 2325.
         311    c_amarg                  cobol_pdst:   285, 2326.
         146    c_an                     cobol_pdst:   889, 2327.
         104    c_andait                 cobol_pdst:  1661, 1696, 2328.
         142    c_anes                   cobol_pdst:   887, 2329.
         207    c_argscomp               cobol_pdst:  2330.
         120    c_arop                   cobol_pdst:  2267, 2331.
         173    c_aroprp                 cobol_pdst:  2332.
          61    c_asfil                  cobol_pdst:  1240, 2333.
         127    c_cdname                 cobol_pdst:   212,  218, 2334.
         247    c_ckdecpn                cobol_pdst:  1061, 2335.
         253    c_ckdsegnum              cobol_pdst:   125, 2336.
         254    c_ckerrex                cobol_pdst:   176, 2337.
         260    c_ckextend               cobol_pdst:   185, 2338.
         255    c_ckinput                cobol_pdst:   178, 2339.
         252    c_ckintbit               cobol_pdst:  2340.
         257    c_ckio                   cobol_pdst:   182, 2341.
         246    c_cklit                  cobol_pdst:   410, 2342.
         264    c_cklit1                 cobol_pdst:   411, 2343.
         266    c_cklit2                 cobol_pdst:   415, 2344.
         256    c_ckoutput               cobol_pdst:   180, 2345.
         230    c_ckprpnbit              cobol_pdst:   620, 2346.
         245    c_ckrcpref               cobol_pdst:  2347.
         243    c_ckrng1                 cobol_pdst:  1424, 2348.
         244    c_ckrng2                 cobol_pdst:  1436, 2349.
         250    c_cksegm                 cobol_pdst:  1063, 2350.
         242    c_cktp25                 cobol_pdst:   244, 2351.
         324    c_cond_name              cobol_pdst:  2220, 2352.
         276    c_csstst                 cobol_pdst:   572,  938, 1616, 1799, 1812, 2353.
         273    c_cstst                  cobol_pdst:  1899, 1950, 1958, 2354.
         214    c_daib                   cobol_pdst:  1886, 1895, 2355.
         130    c_dana                   cobol_pdst:   215,  221,  227, 2356.
         326    c_debug                  cobol_pdst:   130,  132,  247,  263,  324,  621,  844, 1476, 1494, 2357.
         227    c_decnondec              cobol_pdst:   298,  309,  692,  695, 2358.
          32    c_descnm                 cobol_pdst:   703,  705, 1118, 2359.
          43    c_descnmra               cobol_pdst:  1477, 1481, 1495, 1499, 2360.
         132    c_deswon                 cobol_pdst:   281, 2131, 2361.
         126    c_deswz                  cobol_pdst:   210, 2362.
         322    c_devprt                 cobol_pdst:  1764, 2363.
         306    c_disp_dev               cobol_pdst:   557,  559, 2364.
          75    c_dninfl                 cobol_pdst:   819,  821, 1449, 1451, 2365.
          42    c_ecnt                   cobol_pdst:  1113, 2366.
         170    c_edalelnue              cobol_pdst:  2367.
         164    c_edalit                 cobol_pdst:   760, 2368.
         275    c_edaltst                cobol_pdst:  1954, 2369.
         241    c_edick                  cobol_pdst:  1910, 2370.
         105    c_egrze                  cobol_pdst:  1691, 1698, 2371.
         225    c_elaanne                cobol_pdst:  1827, 2372.
         137    c_eldis                  cobol_pdst:  1938, 2373.
         122    c_elemred                cobol_pdst:  2374.
         100    c_elneds                 cobol_pdst:  1583, 2375.
         167    c_elnudnint              cobol_pdst:  1080, 1431, 1766, 1913, 1922, 2376.
         101    c_elnuindi               cobol_pdst:  1387, 1598, 1703, 1709, 1714, 2377.
         166    c_elnuint                cobol_pdst:  1432, 1912, 2378.
         102    c_elnuit                 cobol_pdst:  1924, 1927, 2379.
          47    c_endcob                 cobol_pdst:   234,  271,  276,  284,  305, 1973, 2120, 2128, 2142, 2380.
         163    c_enddec                 cobol_pdst:   233,  306, 1972, 2133, 2141, 2381.
         121    c_examlitid              cobol_pdst:  1806, 1815, 1817, 1823, 2382.
          26    c_figconall              cobol_pdst:   545,  553,  867,  875, 1552, 1559, 1566, 1572, 1578, 1669, 1833, 1839,
                                                      1937, 2249, 2255, 2383.
         330    c_figzero                cobol_pdst:   356,  360, 1915, 1918, 1929, 1932, 2384.
         103    c_file                   cobol_pdst:   214,  220, 1641, 1646, 2385.
           5    c_filenm                 cobol_pdst:   161,  187,  830,  835,  851,  963,  980,  983, 1036, 1039, 1135, 1470,
                                                      1483, 1501, 1511, 1718, 1845, 2386.
          53    c_fileno                 cobol_pdst:  1163, 1234, 1259, 2387.
         217    c_filnefil               cobol_pdst:  1288, 1743, 2388.
         171    c_filno                  cobol_pdst:  2389.
          77    c_flusisds               cobol_pdst:  2390.
           6    c_formtlb                cobol_pdst:   174, 2391.
         221    c_gotod                  cobol_pdst:   675, 2392.
         143    c_group                  cobol_pdst:   888, 2393.
         113    c_ieqlvl                 cobol_pdst:  1876, 2394.
          51    c_impvrb                 cobol_pdst:  1978, 2395.
           1    c_inbit                  cobol_pdst:   107, 2396.
          22    c_incdnm                 cobol_pdst:   329,  531,  869,  881,  895, 1193, 2168, 2397.
         115    c_indeqind               cobol_pdst:  1888, 2398.
         231    c_indev                  cobol_pdst:  2399.
         114    c_indexed                cobol_pdst:  1880, 2400.
         220    c_indxfile               cobol_pdst:  2401.
          57    c_inrng                  cobol_pdst:  1226, 2402.
          30    c_is_cobol               cobol_pdst:   609, 2403.
         332    c_is_cond                cobol_pdst:   647, 2404.
         213    c_is_imp                 cobol_pdst:  1967, 2405.
         310    c_is_lang                cobol_pdst:   607, 2406.
         125    c_is_rel                 cobol_pdst:  2155, 2407.
         240    c_is_rout                cobol_pdst:   612, 2408.
         176    c_is_sub_opt             cobol_pdst:  2189, 2208, 2409.
         316    c_is_user_word           cobol_pdst:   422,  425, 2410.
          24    c_ixfil                  cobol_pdst:  1137, 1189, 1513, 2411.
         123    c_ixrlrady               cobol_pdst:  1275, 2412.
         233    c_ixrlsqdy               cobol_pdst:  1521, 2413.
         235    c_keyiskey               cobol_pdst:  1547, 2414.
          64    c_keylbl                 cobol_pdst:  1318, 2415.
         160    c_lefdep                 cobol_pdst:   923, 2416.
         203    c_lefparstk              cobol_pdst:  2272, 2417.
         300    c_lev_test               cobol_pdst:  2218, 2418.
           2    c_lident                 cobol_pdst:   109,  111, 2419.
         107    c_linage                 cobol_pdst:  1734, 2420.
           3    c_linktot                cobol_pdst:  2421.
          25    c_lit                    cobol_pdst:   544,  552,  645,  670,  866, 1338, 1551, 1644, 2248, 2422.
         204    c_logbitstk              cobol_pdst:  2273, 2423.
         205    c_logstk                 cobol_pdst:  2424.
         211    c_lptopstk               cobol_pdst:  2228, 2425.
         265    c_mcobol                 cobol_pdst:   412, 2426.
          70    c_mnenm                  cobol_pdst:  2427.
         110    c_msfile                 cobol_pdst:  1729, 2428.
          37    c_msfilnm                cobol_pdst:  2429.
         334    c_nae                    cobol_pdst:  1732, 2430.
         222    c_njustr                 cobol_pdst:   899, 2433.
         320    c_nlit                   cobol_pdst:   568, 1092, 1926, 2434.
          36    c_nomsss                 cobol_pdst:  2435.
         223    c_nonumdn                cobol_pdst:   408, 1904, 2436.
          17    c_nonumlit               cobol_pdst:   229,  407,  606,  611,  876, 1558, 1565, 1571, 1577, 1834, 1840, 1903,
                                                      1936, 2256, 2437.
         331    c_noo                    cobol_pdst:   426, 2431.
         335    c_not                    cobol_pdst:  2432.
         201    c_notalpstk              cobol_pdst:  2194, 2439.
         200    c_notnumstk              cobol_pdst:  2196, 2440.
          35    c_notseqac               cobol_pdst:  1855, 2441.
          46    c_notseqfl               cobol_pdst:  1852, 2442.
         327    c_not_opt                cobol_pdst:  1994, 2018, 2043, 2070, 2095, 2438.
          21    c_nsfilnm                cobol_pdst:   444,  458,  489, 2443.
         106    c_nsrecnm                cobol_pdst:  1262, 1719, 2444.
         271    c_nstorg                 cobol_pdst:  1271, 2445.
         267    c_nstream                cobol_pdst:  2446.
         141    c_nues                   cobol_pdst:   886, 2447.
          14    c_numlit                 cobol_pdst:   123,  256, 2448.
         177    c_numstak                cobol_pdst:  2192, 2449.
         251    c_nznumlit               cobol_pdst:  1097, 2450.
          66    c_onechnosn              cobol_pdst:  1380, 2452.
         304    c_on_off                 cobol_pdst:  1401, 2451.
         317    c_open_mode              cobol_pdst:   961,  981, 1037, 2453.
          23    c_outcdnm                cobol_pdst:   533,  870,  882,  896, 1131, 1357, 2454.
         232    c_outdev                 cobol_pdst:  2455.
          60    c_outrng                 cobol_pdst:  1238, 2456.
          10    c_paranm                 cobol_pdst:   232,  267,  278,  280, 1969, 2457.
         333    c_period                 cobol_pdst:   104,  112,  117,  128,  188,  237,  243,  261,  269,  283,  295,  300,
                                                       318,  320,  322, 1962, 2458.
         116    c_pigz                   cobol_pdst:  1879, 2459.
         321    c_pigz_by                cobol_pdst:  1107, 2460.
         175    c_pnz                    cobol_pdst:  2186, 2462.
         325    c_pn_pres                cobol_pdst:  1071, 2461.
          73    c_posint                 cobol_pdst:  1087, 2463.
          10    c_prdef                  cobol_pdst:   303, 2119, 2127, 2140, 2464.
          50    c_preosp                 cobol_pdst:  1977, 2465.
         140    c_preospn                cobol_pdst:   615,  676, 2466.
          16    c_prnm                   cobol_pdst:   213,  219,  294,  301,  311,  397,  680,  683,  686,  689,  845,  849,
                                                      1054, 1059, 1651, 2467.
          12    c_prnum                  cobol_pdst:   258, 2468.
         307    c_prt_con                cobol_pdst:  1384, 1768, 2469.
         224    c_rae                    cobol_pdst:   911,  914,  917,  920, 2470.
          55    c_rafl                   cobol_pdst:  2471.
          56    c_recnm                  cobol_pdst:  1228, 2472.
         234    c_relfile                cobol_pdst:  1544, 2473.
         174    c_relop                  cobol_pdst:  2239, 2474.
          33    c_repnm                  cobol_pdst:   205,  207, 1642, 1647, 2475.
         301    c_resword                cobol_pdst:  2476.
           7    c_rident                 cobol_pdst:  2477.
         157    c_ritdep                 cobol_pdst:   918, 2478.
          31    c_rpid                   cobol_pdst:  2479.
          44    c_saanm                  cobol_pdst:  1125, 2480.
          45    c_said                   cobol_pdst:  1126, 2481.
         156    c_san                    cobol_pdst:   916, 2482.
           4    c_sechdr                 cobol_pdst:   119,  231,  248,  252,  277,  282,  304, 1970, 2139, 2483.
         124    c_secsw                  cobol_pdst:   325, 2484.
          65    c_seqfil                 cobol_pdst:   832,  839,  853, 1472, 1486, 1503, 2485.
         133    c_seqnext                cobol_pdst:  1149, 2486.
         323    c_seqstmfil              cobol_pdst:  1762, 2487.
         313    c_set_pigz               cobol_pdst:  1418, 2488.
         312    c_set_xint               cobol_pdst:  1417, 2489.
          13    c_sina                   cobol_pdst:   344, 2490.
          34    c_sizlit                 cobol_pdst:   781,  793, 2491.
         162    c_slelef                 cobol_pdst:   921, 2492.
         144    c_sler                   cobol_pdst:   898, 2493.
         154    c_snae                   cobol_pdst:   910, 2494.
         153    c_snal                   cobol_pdst:   891, 2495.
         147    c_sndrdp                 cobol_pdst:   904, 2496.
         155    c_snne                   cobol_pdst:   913, 2497.
         152    c_snon                   cobol_pdst:   908, 2498.
         145    c_snor                   cobol_pdst:   902, 2499.
         150    c_snos                   cobol_pdst:   906, 2500.
          27    c_sqacdyac               cobol_pdst:  1180, 2501.
          54    c_sqfl                   cobol_pdst:  2502.
          67    c_sqrlsqac               cobol_pdst:  1274, 2503.
         216    c_srchf2                 cobol_pdst:  2504.
          62    c_srchid                 cobol_pdst:  1292, 1316, 2505.
         215    c_srchverb               cobol_pdst:  2506.
          74    c_srtfil                 cobol_pdst:   812, 1441, 2507.
         206    c_sscondnm               cobol_pdst:  2165, 2508.
         237    c_ssnm                   cobol_pdst:  1395, 1398, 2509.
         135    c_sterm                  cobol_pdst:   367,  370,  893, 1622, 1632, 2510.
         270    c_stream                 cobol_pdst:  2511.
         161    c_stun                   cobol_pdst:   925, 2512.
         112    c_sudana                 cobol_pdst:  1872, 2513.
         226    c_suxdnm                 cobol_pdst:  1869, 2514.
         315    c_tst_pigz               cobol_pdst:  1422, 2515.
         314    c_tst_xint               cobol_pdst:  1420, 2516.
         302    c_type9                  cobol_pdst:  1897, 2517.
         272    c_udneli                 cobol_pdst:  1881, 2518.
         111    c_undana                 cobol_pdst:   864, 1538, 1871, 1884, 2519.
         134    c_unelnudn               cobol_pdst:   354,  362, 2520.
         117    c_unsint                 cobol_pdst:  1893, 2521.
         212    c_unxdnm                 cobol_pdst:  1868, 2522.
         136    c_usagid                 cobol_pdst:  1908, 1944, 2523.
          40    c_useform1               cobol_pdst:  2524.
          71    c_useform1a              cobol_pdst:  2525.
         131    c_useform1b              cobol_pdst:  2526.
         261    c_useformds              cobol_pdst:  1525, 1858, 2527.
         262    c_useformr               cobol_pdst:  1151, 1166, 1284, 2528.
         263    c_useformrw              cobol_pdst:  1746, 2529.
          20    c_useid                  cobol_pdst:   421,  424, 2530.
          76    c_usisds                 cobol_pdst:  1561, 1574, 2531.
          63    c_usornm                 cobol_pdst:  1299, 2532.
          52    c_varsiz                 cobol_pdst:  1159, 2533.
          11    c_verb                   cobol_pdst:  1975, 1981, 2121, 2129, 2144, 2534.
          72    c_xint                   cobol_pdst:  1394, 1411, 2535.
          41    c_xnm                    cobol_pdst:   330,  546,  554,  871,  883, 1102, 1416, 1883, 1956, 2250, 2536.
         202    c_zerstk                 cobol_pdst:  2265, 2270, 2537.
       21715    de1                      cobol_pdst:  1857, 1862.
       21703    de2                      cobol_pdst:  1856, 1860.
       21563    delete                   cobol_pdst:    51, 1844.
        4660    disable                  cobol_pdst:    70,  525.
        5132    disp1                    cobol_pdst:   557,  559.
        5144    disp2                    cobol_pdst:   351,  559,  561.
        5055    disp3                    cobol_pdst:   543,  544,  545,  550,  551,  552,  553.
        5120    disp4                    cobol_pdst:   550,  557.
        5050    disp5                    cobol_pdst:   549,  554,  555.
        5005    display                  cobol_pdst:    71,  542.
        4730    dis_1                    cobol_pdst:   528,  533.
        4742    dis_2                    cobol_pdst:   531,  535.
        4672    dis_3                    cobol_pdst:   527,  603.
        5000    dis_4                    cobol_pdst:   530,  541.
        4716    dis_5                    cobol_pdst:   531,  541.
        5245    div1                     cobol_pdst:   574,  584.
        5310    div10                    cobol_pdst:   577,  581.
        5423    div13                    cobol_pdst:   586,  596.
        5327    div14                    cobol_pdst:   576,  584.
        5442    div15                    cobol_pdst:   588,  599.
        5365    div2                     cobol_pdst:   566,  590.
        5264    div5                     cobol_pdst:   577,  589,  597.
        5334    div6                     cobol_pdst:   585,  594.
        5353    div7                     cobol_pdst:   588,  600,  601.
        5377    div8                     cobol_pdst:   568,  592.
        5411    div9                     cobol_pdst:   571,  594.
        5151    divide                   cobol_pdst:    38,  562.
       22631    edalel                   cobol_pdst:   380,  384,  508,  512,  588,  594,  597,  953,  957, 1613, 1618, 1636, 1954.
       22371    elint                    cobol_pdst:  1106, 1922.
       22403    elni                     cobol_pdst:  1091, 1096, 1924.
       22314    elnint                   cobol_pdst:  1086, 1913.
       22415    elnuitem                 cobol_pdst:   355,  359,  563,  569,  590,  698,  929,  934, 1601, 1604, 1609, 1926, 2263.
       22307    elnumint                 cobol_pdst:   316, 1065, 1383, 1767, 1912.
       22465    eln_1                    cobol_pdst:  1927, 1934.
       22477    elusid                   cobol_pdst:   752,  758,  775,  779,  787,  791,  799,  805, 1936.
       22542    elus_1                   cobol_pdst:  1936, 1943.
       22357    el_1                     cobol_pdst:  1913, 1920, 1922, 1924.
       22321    el_2                     cobol_pdst:  1914, 1925.
        5461    enable                   cobol_pdst:    72,  602.
        5473    enter                    cobol_pdst:    73,  604.
       24043    eop                      cobol_pdst:  2084, 2090, 2092, 2098, 2106.
       24125    eopi                     cobol_pdst:  1739, 2094.
       24163    eopi1                    cobol_pdst:  2100, 2106.
       24221    eopi2                    cobol_pdst:  2095, 2106.
        5656    ev1                      cobol_pdst:   627,  629.
        5702    ev2                      cobol_pdst:   628,  631.
        5714    ev3                      cobol_pdst:   633,  639.
        5764    ev5                      cobol_pdst:   637,  641.
        5637    evaluate                 cobol_pdst:   624.
       21222    ex1                      cobol_pdst:  1793, 1799.
       21234    ex10                     cobol_pdst:  1799, 1800, 1801.
       21323    ex2                      cobol_pdst:  1810, 1812.
       21265    ex3                      cobol_pdst:  1795, 1796, 1806, 1808.
       21277    ex4                      cobol_pdst:  1797, 1808.
       21311    ex5                      cobol_pdst:  1806, 1810.
       21316    ex6                      cobol_pdst:  1811, 1815, 1823.
       21354    ex7                      cobol_pdst:  1801, 1802, 1804, 1817, 1819.
       21366    ex8                      cobol_pdst:  1803, 1819.
       21400    ex9                      cobol_pdst:  1817, 1821.
       21133    examine                  cobol_pdst:    79, 1788.
        5562    exit                     cobol_pdst:    41,  615.
        5632    exit1                    cobol_pdst:   618,  623.
       24562    expr                     cobol_pdst:   643, 2151.
       24555    fail                     cobol_pdst:   646,  658,  661,  671,  729, 1350, 1353, 1652, 1870, 1873, 1898, 1902,
                                                      1905, 1907, 1909, 1911, 1916, 1921, 1923, 1930, 1935, 1939, 1942, 1945,
                                                      1947, 1949, 1953, 1955, 1957, 1961, 1969, 1970, 1971, 1972, 1973, 1976,
                                                      1985, 1990, 2009, 2014, 2034, 2039, 2059, 2066, 2086, 2091, 2110, 2114,
                                                      2150, 2233, 2240, 2253, 2265.
           5    fake1                    cobol_pdst:    30.
          62    fake10                   cobol_pdst:    39.
          67    fake11                   cobol_pdst:    40.
          74    fake12                   cobol_pdst:    41.
         101    fake13                   cobol_pdst:    42.
         106    fake14                   cobol_pdst:    43.
         113    fake15                   cobol_pdst:    44.
         120    fake16                   cobol_pdst:    45.
         125    fake17                   cobol_pdst:    46.
         132    fake18                   cobol_pdst:    47.
         137    fake19                   cobol_pdst:    48.
          12    fake2                    cobol_pdst:    31.
         144    fake20                   cobol_pdst:    49.
         151    fake21                   cobol_pdst:    50.
         156    fake22                   cobol_pdst:    51.
         163    fake23                   cobol_pdst:    52.
         170    fake24                   cobol_pdst:    53.
         175    fake25                   cobol_pdst:    54.
         202    fake26                   cobol_pdst:    55.
         207    fake27                   cobol_pdst:    56.
         214    fake28                   cobol_pdst:    57.
         221    fake29                   cobol_pdst:    58.
          17    fake3                    cobol_pdst:    32.
         226    fake30                   cobol_pdst:    59.
         233    fake31                   cobol_pdst:    60.
         240    fake32                   cobol_pdst:    61.
         245    fake33                   cobol_pdst:    62.
         252    fake34                   cobol_pdst:    63.
         257    fake35                   cobol_pdst:    64.
         264    fake36                   cobol_pdst:    65.
         271    fake37                   cobol_pdst:    66.
         276    fake38                   cobol_pdst:    67.
         303    fake39                   cobol_pdst:    68.
          24    fake4                    cobol_pdst:    33.
         310    fake40                   cobol_pdst:    69.
         315    fake41                   cobol_pdst:    70.
         322    fake42                   cobol_pdst:    71.
         327    fake43                   cobol_pdst:    72.
         334    fake44                   cobol_pdst:    73.
         341    fake45                   cobol_pdst:    74.
         346    fake46                   cobol_pdst:    75.
         353    fake47                   cobol_pdst:    76.
         360    fake48                   cobol_pdst:    77.
         365    fake49                   cobol_pdst:    78.
          31    fake5                    cobol_pdst:    34.
         372    fake50                   cobol_pdst:    79.
         377    fake51                   cobol_pdst:    80.
         404    fake52                   cobol_pdst:    81.
         411    fake53                   cobol_pdst:    82.
         416    fake54                   cobol_pdst:    83.
         423    fake55                   cobol_pdst:    84.
         430    fake56                   cobol_pdst:    85.
         435    fake57                   cobol_pdst:    86.
         442    fake58                   cobol_pdst:    87.
         447    fake59                   cobol_pdst:    88.
          36    fake6                    cobol_pdst:    35.
         454    fake60                   cobol_pdst:    89.
         461    fake61                   cobol_pdst:    90.
         466    fake62                   cobol_pdst:    91.
         473    fake63                   cobol_pdst:    92.
         500    fake64                   cobol_pdst:    93.
         505    fake65                   cobol_pdst:    94.
         512    fake66                   cobol_pdst:    95.
         517    fake67                   cobol_pdst:    96.
         524    fake68                   cobol_pdst:    97.
         531    fake69                   cobol_pdst:    98.
          43    fake7                    cobol_pdst:    36.
          50    fake8                    cobol_pdst:    37.
          55    fake9                    cobol_pdst:    38.
        6217    generate                 cobol_pdst:    74,  672.
        6236    go                       cobol_pdst:    43,  675.
        6356    go1                      cobol_pdst:   680,  686,  691.
        6375    go2                      cobol_pdst:   683,  689,  694.
        6313    go3                      cobol_pdst:   684,  698.
        6306    go4                      cobol_pdst:   683,  692.
        6320    go5                      cobol_pdst:   677,  685.
        6414    go6                      cobol_pdst:   688,  697.
        6337    gotod                    cobol_pdst:   675,  688,  695.
        6433    hold                     cobol_pdst:    75,  700.
       21772    ident                    cobol_pdst:   417,  543,  551,  644,  669,  865,  936, 1123, 1232, 1286, 1337, 1348,
                                                      1362, 1372, 1409, 1427, 1434, 1557, 1563, 1569, 1576, 1608, 1645, 1659,
                                                      1741, 1771, 1786, 1835, 1841, 1871, 1901, 1906, 1920, 1934, 1941, 1952, 2247.
       22023    ident_1                  cobol_pdst:  1876, 1879, 1881, 1892, 1893, 1895.
       22162    ident_4                  cobol_pdst:  1884, 1895.
       22011    ident_5                  cobol_pdst:  1869, 1874.
       14703    idxd                     cobol_pdst:  1314, 1328, 1348.
        6476    if                       cobol_pdst:    76,  707.
        6560    if1                      cobol_pdst:   717,  719,  721,  724,  725,  726.
        6572    if2                      cobol_pdst:   716,  719.
        6616    if3                      cobol_pdst:   712,  723.
       23247    ik                       cobol_pdst:  2008, 2013, 2015, 2021, 2026, 2030.
       23324    iki                      cobol_pdst:  1156, 1280, 1529, 1750, 1862, 2017.
       23362    iki1                     cobol_pdst:  2023, 2030.
       23425    iki2                     cobol_pdst:  2018, 2030.
       22744    imp                      cobol_pdst:   134,  279,  635,  640,  714,  721,  726,  856, 1073, 1209, 1213, 1218,
                                                      1222, 1252, 1255, 1344, 1960, 1964, 1966, 1969.
       23014    imp1                     cobol_pdst:  1977, 1978, 1981.
       22701    imps1                    cobol_pdst:  1962, 1964.
       22667    impseq                   cobol_pdst:   136,  250,  265, 1960.
       25217    imp_subj                 cobol_pdst:  2159, 2162, 2171, 2177, 2180, 2181, 2208.
       25015    infix_rel                cobol_pdst:  2155, 2164, 2182.
       25135    inf_is                   cobol_pdst:  2184, 2198.
       25173    inf_rel                  cobol_pdst:  2183, 2198, 2204.
       25041    inf_test                 cobol_pdst:  2186, 2201, 2205.
        6673    initiate                 cobol_pdst:    45,  732.
        6705    init_1                   cobol_pdst:   734, 1650.
        7001    ins1                     cobol_pdst:   746,  768.
        7431    ins10                    cobol_pdst:   785,  787,  802.
        7164    ins12                    cobol_pdst:   761,  762,  769.
        7474    ins13                    cobol_pdst:   802,  803,  804,  809.
        7234    ins14                    cobol_pdst:   777,  808.
        7037    ins2                     cobol_pdst:   752,  769.
        7051    ins3                     cobol_pdst:   750,  754,  763.
        7107    ins4                     cobol_pdst:   756,  760.
        7171    ins7                     cobol_pdst:   742,  764,  770.
        7222    ins8                     cobol_pdst:   775,  809.
        7330    ins9                     cobol_pdst:   773,  789.
        6731    inspect                  cobol_pdst:    46,  738.
       24757    is_cond                  cobol_pdst:  2161, 2176.
       22725    is_imp                   cobol_pdst:  1304, 1311, 1324, 1506, 1508, 1966, 1993, 1999, 2004, 2017, 2023, 2028,
                                                      2042, 2048, 2053, 2069, 2075, 2080, 2094, 2100, 2104.
           1    i_c                      cobol_pdst:    24,  104,  107,  109,  111,  112,  117,  119,  123,  125,  128,  130,
                                                       132,  161,  174,  176,  178,  180,  182,  185,  187,  188,  205,  207,
                                                       210,  212,  213,  214,  215,  218,  219,  220,  221,  227,  229,  231,
                                                       232,  233,  234,  237,  243,  244,  247,  248,  252,  256,  258,  261,
                                                       263,  267,  269,  271,  276,  277,  278,  280,  281,  282,  283,  284,
                                                       285,  294,  295,  298,  300,  301,  303,  304,  305,  306,  309,  311,
                                                       318,  320,  322,  324,  325,  329,  330,  337,  344,  351,  354,  356,
                                                       360,  362,  367,  370,  389,  397,  399,  402,  407,  408,  410,  411,
                                                       412,  415,  421,  422,  424,  425,  426,  444,  458,  489,  531,  533,
                                                       544,  545,  546,  552,  553,  554,  557,  559,  568,  572,  606,  607,
                                                       609,  611,  612,  615,  620,  621,  645,  647,  670,  675,  676,  680,
                                                       683,  686,  689,  692,  695,  703,  705,  760,  781,  793,  812,  819,
                                                       821,  830,  832,  835,  839,  844,  845,  849,  851,  853,  861,  864,
                                                       866,  867,  869,  870,  871,  875,  876,  881,  882,  883,  886,  887,
                                                       888,  889,  890,  891,  893,  895,  896,  898,  899,  902,  904,  906,
                                                       908,  910,  911,  913,  914,  916,  917,  918,  920,  921,  923,  925,
                                                       933,  938,  961,  963,  980,  981,  983, 1036, 1037, 1039, 1054, 1059,
                                                      1061, 1063, 1071, 1080, 1087, 1092, 1097, 1102, 1107, 1113, 1118, 1125,
                                                      1126, 1131, 1135, 1137, 1149, 1151, 1159, 1163, 1166, 1171, 1180, 1189,
                                                      1193, 1226, 1228, 1234, 1238, 1240, 1259, 1262, 1271, 1274, 1275, 1284,
                                                      1288, 1292, 1299, 1316, 1318, 1338, 1357, 1380, 1384, 1387, 1394, 1395,
                                                      1398, 1401, 1411, 1416, 1417, 1418, 1420, 1422, 1424, 1431, 1432, 1436,
                                                      1441, 1449, 1451, 1465, 1470, 1472, 1476, 1477, 1481, 1483, 1486, 1494,
                                                      1495, 1499, 1501, 1503, 1511, 1513, 1521, 1525, 1538, 1544, 1545, 1547,
                                                      1551, 1552, 1558, 1559, 1561, 1565, 1566, 1571, 1572, 1574, 1577, 1578,
                                                      1583, 1598, 1606, 1616, 1622, 1632, 1641, 1642, 1644, 1646, 1647, 1651,
                                                      1661, 1669, 1691, 1696, 1698, 1703, 1709, 1714, 1718, 1719, 1729, 1732,
                                                      1734, 1743, 1746, 1762, 1764, 1766, 1768, 1799, 1806, 1812, 1815, 1817,
                                                      1823, 1827, 1833, 1834, 1839, 1840, 1845, 1852, 1855, 1858, 1868, 1869,
                                                      1871, 1872, 1876, 1879, 1880, 1881, 1883, 1884, 1886, 1888, 1893, 1895,
                                                      1897, 1899, 1903, 1904, 1908, 1910, 1912, 1913, 1915, 1918, 1922, 1924,
                                                      1926, 1927, 1929, 1932, 1936, 1937, 1938, 1944, 1948, 1950, 1954, 1956,
                                                      1958, 1962, 1967, 1969, 1970, 1972, 1973, 1975, 1977, 1978, 1981, 1994,
                                                      2018, 2043, 2070, 2095, 2119, 2120, 2121, 2127, 2128, 2129, 2131, 2133,
                                                      2139, 2140, 2141, 2142, 2144, 2155, 2165, 2168, 2186, 2189, 2192, 2194,
                                                      2196, 2208, 2218, 2220, 2222, 2228, 2239, 2248, 2249, 2250, 2255, 2256,
                                                      2265, 2267, 2270, 2272, 2273.
           5    i_K                      cobol_pdst:    28.
           4    i_k                      cobol_pdst:    27.
           2    i_n                      cobol_pdst:    26,   30,   31,   32,   33,   34,   35,   36,   37,   38,   39,   40,
                                                        41,   42,   43,   44,   45,   46,   47,   48,   49,   50,   51,   52,
                                                        53,   54,   55,   56,   57,   58,   59,   60,   61,   62,   63,   64,
                                                        65,   66,   67,   68,   69,   70,   71,   72,   73,   74,   75,   76,
                                                        77,   78,   79,   80,   81,   82,   83,   84,   85,   86,   87,   88,
                                                        89,   90,   91,   92,   93,   94,   95,   96,   97,   98,  100,  102,
                                                       105,  106,  108,  110,  113,  115,  116,  118,  120,  122,  124,  126,
                                                       127,  129,  133,  135,  137,  139,  143,  145,  148,  151,  153,  156,
                                                       158,  160,  166,  167,  168,  169,  170,  171,  172,  173,  175,  177,
                                                       179,  181,  183,  184,  186,  189,  190,  191,  192,  193,  194,  195,
                                                       196,  202,  204,  206,  208,  211,  217,  223,  228,  230,  235,  236,
                                                       238,  239,  240,  241,  242,  245,  246,  249,  251,  253,  255,  257,
                                                       259,  260,  262,  264,  266,  268,  270,  272,  275,  286,  287,  289,
                                                       291,  292,  293,  296,  297,  299,  302,  307,  308,  310,  313,  315,
                                                       317,  319,  321,  323,  326,  332,  333,  334,  336,  342,  343,  345,
                                                       346,  349,  350,  352,  357,  361,  364,  366,  369,  373,  375,  378,
                                                       379,  381,  383,  386,  387,  390,  392,  394,  396,  398,  400,  401,
                                                       403,  404,  406,  409,  413,  414,  416,  418,  420,  423,  427,  428,
                                                       432,  433,  435,  437,  439,  440,  442,  445,  446,  447,  448,  449,
                                                       450,  451,  452,  459,  460,  461,  462,  463,  464,  465,  466,  467,
                                                       472,  473,  474,  475,  477,  479,  481,  486,  488,  490,  491,  492,
                                                       493,  494,  495,  496,  497,  498,  499,  500,  501,  502,  503,  504,
                                                       505,  507,  509,  511,  515,  517,  519,  521,  524,  526,  529,  532,
                                                       534,  537,  539,  540,  541,  548,  549,  556,  558,  560,  561,  564,
                                                       567,  570,  573,  575,  578,  580,  583,  584,  587,  589,  591,  593,
                                                       595,  596,  598,  599,  601,  603,  608,  610,  613,  614,  616,  619,
                                                       622,  623,  626,  628,  630,  632,  634,  637,  639,  642,  646,  648,
                                                       650,  652,  654,  658,  661,  663,  665,  667,  671,  674,  681,  682,
                                                       684,  687,  690,  691,  693,  694,  696,  699,  701,  704,  706,  708,
                                                       710,  713,  715,  718,  720,  722,  724,  727,  729,  731,  733,  735,
                                                       737,  740,  743,  745,  747,  751,  753,  756,  759,  765,  767,  768,
                                                       769,  774,  776,  778,  780,  782,  785,  788,  790,  792,  794,  797,
                                                       800,  801,  806,  807,  808,  809,  811,  813,  817,  820,  827,  829,
                                                       831,  833,  834,  838,  840,  842,  846,  848,  850,  852,  854,  855,
                                                       857,  859,  862,  872,  873,  874,  877,  879,  884,  885,  892,  897,
                                                       900,  901,  903,  905,  907,  909,  912,  915,  919,  922,  924,  926,
                                                       927,  930,  932,  935,  939,  941,  944,  946,  949,  950,  952,  954,
                                                       956,  958,  959,  962,  964,  965,  966,  967,  968,  969,  970,  971,
                                                       972,  973,  974,  975,  976,  982,  984,  985,  986,  987,  988,  989,
                                                       990,  991,  992,  993,  994,  995,  996,  997,  998,  999, 1000, 1001,
                                                      1002, 1003, 1004, 1005, 1006, 1007, 1008, 1009, 1010, 1012, 1014, 1015,
                                                      1016, 1017, 1018, 1019, 1020, 1021, 1022, 1023, 1024, 1025, 1026, 1027,
                                                      1028, 1029, 1030, 1031, 1032, 1033, 1034, 1035, 1038, 1040, 1041, 1042,
                                                      1043, 1044, 1045, 1046, 1047, 1048, 1049, 1050, 1051, 1052, 1055, 1057,
                                                      1058, 1060, 1062, 1064, 1068, 1070, 1072, 1075, 1076, 1078, 1079, 1083,
                                                      1085, 1088, 1090, 1093, 1095, 1098, 1101, 1103, 1105, 1108, 1110, 1112,
                                                      1115, 1117, 1119, 1122, 1124, 1127, 1128, 1130, 1132, 1133, 1136, 1138,
                                                      1139, 1140, 1141, 1142, 1143, 1144, 1152, 1153, 1155, 1158, 1160, 1162,
                                                      1164, 1167, 1169, 1172, 1173, 1174, 1175, 1176, 1177, 1178, 1179, 1181,
                                                      1182, 1183, 1184, 1185, 1186, 1187, 1188, 1190, 1192, 1194, 1197, 1198,
                                                      1200, 1202, 1205, 1207, 1208, 1210, 1212, 1214, 1216, 1217, 1219, 1221,
                                                      1223, 1225, 1227, 1229, 1231, 1233, 1235, 1237, 1239, 1241, 1246, 1249,
                                                      1251, 1254, 1256, 1258, 1260, 1263, 1264, 1265, 1266, 1267, 1268, 1269,
                                                      1270, 1272, 1277, 1279, 1282, 1285, 1287, 1289, 1291, 1294, 1295, 1297,
                                                      1300, 1302, 1303, 1306, 1308, 1310, 1313, 1315, 1317, 1319, 1320, 1323,
                                                      1326, 1329, 1332, 1334, 1339, 1343, 1345, 1347, 1350, 1353, 1355, 1358,
                                                      1361, 1363, 1365, 1366, 1367, 1373, 1374, 1375, 1378, 1379, 1381, 1386,
                                                      1388, 1390, 1392, 1396, 1397, 1400, 1402, 1407, 1408, 1414, 1415, 1419,
                                                      1421, 1423, 1425, 1426, 1430, 1433, 1435, 1437, 1439, 1440, 1442, 1443,
                                                      1447, 1450, 1457, 1460, 1461, 1463, 1466, 1467, 1469, 1471, 1473, 1474,
                                                      1478, 1480, 1482, 1484, 1485, 1487, 1490, 1492, 1496, 1498, 1500, 1502,
                                                      1504, 1505, 1507, 1509, 1512, 1514, 1515, 1516, 1517, 1518, 1519, 1520,
                                                      1522, 1526, 1528, 1531, 1536, 1539, 1541, 1543, 1546, 1548, 1553, 1554,
                                                      1556, 1560, 1562, 1567, 1573, 1575, 1580, 1582, 1584, 1588, 1590, 1593,
                                                      1595, 1597, 1599, 1602, 1605, 1607, 1610, 1612, 1614, 1617, 1619, 1621,
                                                      1625, 1627, 1630, 1631, 1633, 1635, 1638, 1639, 1643, 1648, 1650, 1652,
                                                      1653, 1654, 1655, 1656, 1658, 1660, 1662, 1665, 1670, 1673, 1675, 1677,
                                                      1685, 1687, 1690, 1692, 1695, 1697, 1699, 1702, 1704, 1706, 1708, 1710,
                                                      1713, 1715, 1716, 1720, 1721, 1722, 1723, 1724, 1725, 1726, 1727, 1733,
                                                      1735, 1736, 1738, 1740, 1742, 1744, 1747, 1749, 1752, 1753, 1754, 1755,
                                                      1756, 1757, 1758, 1759, 1761, 1763, 1765, 1770, 1772, 1773, 1774, 1776,
                                                      1777, 1778, 1779, 1780, 1781, 1782, 1783, 1785, 1787, 1789, 1791, 1794,
                                                      1798, 1800, 1805, 1807, 1809, 1811, 1813, 1816, 1818, 1820, 1822, 1824,
                                                      1826, 1828, 1832, 1836, 1838, 1842, 1843, 1846, 1847, 1848, 1849, 1850,
                                                      1851, 1853, 1856, 1859, 1861, 1864, 1865, 1867, 1870, 1873, 1875, 1878,
                                                      1882, 1885, 1887, 1889, 1892, 1894, 1896, 1898, 1900, 1902, 1905, 1907,
                                                      1909, 1911, 1916, 1917, 1919, 1921, 1923, 1925, 1930, 1931, 1933, 1935,
                                                      1939, 1940, 1942, 1943, 1945, 1947, 1949, 1951, 1953, 1955, 1957, 1959,
                                                      1961, 1963, 1965, 1968, 1974, 1976, 1979, 1980, 1982, 1985, 1987, 1990,
                                                      1992, 1996, 1998, 2001, 2003, 2005, 2007, 2009, 2011, 2014, 2016, 2020,
                                                      2022, 2025, 2027, 2029, 2031, 2034, 2036, 2039, 2041, 2045, 2047, 2050,
                                                      2052, 2054, 2056, 2059, 2061, 2063, 2066, 2068, 2072, 2074, 2077, 2079,
                                                      2081, 2083, 2086, 2088, 2091, 2093, 2097, 2099, 2102, 2107, 2110, 2112,
                                                      2114, 2116, 2117, 2118, 2124, 2125, 2126, 2132, 2134, 2135, 2136, 2137,
                                                      2138, 2146, 2148, 2149, 2150, 2151, 2154, 2156, 2157, 2166, 2169, 2172,
                                                      2174, 2175, 2179, 2181, 2190, 2191, 2193, 2195, 2197, 2201, 2203, 2205,
                                                      2206, 2209, 2211, 2212, 2213, 2214, 2219, 2221, 2223, 2226, 2227, 2229,
                                                      2233, 2234, 2235, 2236, 2238, 2240, 2243, 2244, 2253, 2254, 2257, 2258,
                                                      2261, 2262, 2266, 2268, 2271, 2274, 2275.
           0    i_r                      cobol_pdst:    23,   99,  101,  103,  114,  121,  138,  140,  141,  142,  144,  146,
                                                       147,  149,  150,  152,  154,  155,  157,  159,  162,  163,  164,  165,
                                                       197,  198,  199,  200,  201,  203,  209,  216,  222,  224,  225,  226,
                                                       254,  273,  274,  288,  290,  312,  314,  327,  335,  338,  339,  340,
                                                       341,  347,  348,  353,  358,  365,  368,  374,  377,  382,  388,  391,
                                                       393,  395,  405,  419,  431,  434,  436,  443,  453,  454,  455,  456,
                                                       457,  468,  469,  470,  471,  476,  478,  480,  482,  483,  484,  485,
                                                       487,  506,  510,  513,  514,  520,  523,  525,  527,  528,  530,  535,
                                                       536,  542,  550,  562,  565,  566,  571,  574,  579,  582,  585,  586,
                                                       592,  600,  602,  604,  605,  617,  618,  624,  627,  631,  636,  638,
                                                       641,  651,  655,  659,  664,  672,  677,  678,  679,  685,  688,  697,
                                                       700,  702,  707,  711,  716,  717,  723,  728,  730,  732,  738,  741,
                                                       742,  746,  748,  749,  750,  754,  755,  757,  761,  762,  763,  764,
                                                       770,  771,  772,  773,  777,  783,  784,  786,  789,  795,  796,  798,
                                                       802,  803,  804,  810,  814,  815,  816,  818,  822,  823,  824,  825,
                                                       826,  828,  836,  837,  841,  843,  847,  858,  860,  863,  868,  878,
                                                       928,  931,  937,  940,  945,  948,  951,  955,  960,  977,  978,  979,
                                                      1011, 1013, 1053, 1056, 1066, 1067, 1069, 1074, 1084, 1089, 1094, 1100,
                                                      1104, 1109, 1114, 1116, 1120, 1121, 1129, 1134, 1145, 1146, 1147, 1148,
                                                      1154, 1157, 1170, 1191, 1195, 1196, 1199, 1206, 1215, 1224, 1230, 1236,
                                                      1242, 1243, 1244, 1248, 1261, 1273, 1278, 1281, 1290, 1293, 1296, 1305,
                                                      1312, 1321, 1325, 1327, 1330, 1331, 1333, 1335, 1340, 1341, 1346, 1351,
                                                      1352, 1354, 1356, 1359, 1360, 1364, 1368, 1369, 1370, 1371, 1376, 1377,
                                                      1382, 1385, 1389, 1391, 1399, 1404, 1405, 1406, 1413, 1429, 1438, 1444,
                                                      1445, 1446, 1448, 1452, 1453, 1454, 1455, 1456, 1458, 1459, 1462, 1464,
                                                      1468, 1475, 1479, 1488, 1489, 1491, 1493, 1497, 1510, 1523, 1527, 1530,
                                                      1532, 1533, 1534, 1535, 1537, 1540, 1542, 1549, 1550, 1555, 1564, 1568,
                                                      1570, 1579, 1585, 1586, 1589, 1592, 1594, 1600, 1603, 1611, 1615, 1620,
                                                      1626, 1629, 1634, 1640, 1649, 1657, 1663, 1664, 1666, 1667, 1671, 1672,
                                                      1678, 1679, 1681, 1682, 1683, 1686, 1689, 1693, 1700, 1705, 1711, 1717,
                                                      1728, 1730, 1731, 1748, 1751, 1760, 1769, 1775, 1784, 1788, 1792, 1793,
                                                      1795, 1796, 1797, 1801, 1802, 1803, 1804, 1808, 1810, 1814, 1819, 1821,
                                                      1825, 1830, 1831, 1837, 1844, 1854, 1860, 1863, 1866, 1874, 1877, 1890,
                                                      1891, 1914, 1928, 1971, 1983, 1984, 1986, 1988, 1995, 2000, 2008, 2010,
                                                      2012, 2019, 2024, 2032, 2033, 2035, 2037, 2044, 2049, 2057, 2058, 2060,
                                                      2062, 2064, 2071, 2076, 2084, 2085, 2087, 2089, 2096, 2101, 2108, 2109,
                                                      2111, 2113, 2115, 2122, 2123, 2130, 2143, 2145, 2147, 2152, 2158, 2160,
                                                      2161, 2163, 2167, 2170, 2173, 2176, 2178, 2180, 2183, 2184, 2187, 2188,
                                                      2198, 2200, 2202, 2215, 2216, 2217, 2224, 2225, 2230, 2231, 2232, 2237,
                                                      2241, 2242, 2245, 2252, 2259, 2260, 2264, 2269, 2276, 2277, 2278, 2279,
                                                      2280, 2281, 2282, 2283, 2284, 2285, 2286, 2287, 2288, 2289, 2290, 2291,
                                                      2292, 2293, 2294, 2295, 2296, 2297, 2298, 2299, 2300, 2301, 2302, 2303,
                                                      2304, 2305, 2306, 2307, 2308, 2309, 2310, 2311, 2312, 2313, 2314, 2315.
           3    i_s                      cobol_pdst:    25,  131,  134,  136,  250,  265,  279,  316,  328,  331,  355,  359,
                                                       363,  371,  372,  376,  380,  384,  385,  417,  429,  430,  438,  441,
                                                       508,  512,  516,  518,  522,  538,  543,  547,  551,  555,  563,  569,
                                                       576,  577,  581,  588,  590,  594,  597,  625,  629,  633,  635,  640,
                                                       643,  644,  649,  653,  656,  657,  660,  662,  666,  668,  669,  673,
                                                       698,  709,  712,  714,  719,  721,  725,  726,  734,  736,  739,  744,
                                                       752,  758,  766,  775,  779,  787,  791,  799,  805,  856,  865,  880,
                                                       894,  929,  934,  936,  942,  943,  947,  953,  957, 1065, 1073, 1077,
                                                      1081, 1082, 1086, 1091, 1096, 1099, 1106, 1111, 1123, 1150, 1156, 1161,
                                                      1165, 1168, 1201, 1203, 1204, 1209, 1211, 1213, 1218, 1220, 1222, 1232,
                                                      1245, 1247, 1250, 1252, 1253, 1255, 1257, 1276, 1280, 1283, 1286, 1298,
                                                      1301, 1304, 1307, 1309, 1311, 1314, 1322, 1324, 1328, 1336, 1337, 1342,
                                                      1344, 1348, 1349, 1362, 1372, 1383, 1393, 1403, 1409, 1410, 1412, 1427,
                                                      1428, 1434, 1506, 1508, 1524, 1529, 1557, 1563, 1569, 1576, 1581, 1587,
                                                      1591, 1596, 1601, 1604, 1608, 1609, 1613, 1618, 1623, 1624, 1628, 1636,
                                                      1637, 1645, 1659, 1668, 1674, 1676, 1680, 1684, 1688, 1694, 1701, 1707,
                                                      1712, 1737, 1739, 1741, 1745, 1750, 1767, 1771, 1786, 1790, 1829, 1835,
                                                      1841, 1857, 1862, 1901, 1906, 1920, 1934, 1941, 1946, 1952, 1960, 1964,
                                                      1966, 1989, 1991, 1993, 1997, 1999, 2002, 2004, 2006, 2013, 2015, 2017,
                                                      2021, 2023, 2026, 2028, 2030, 2038, 2040, 2042, 2046, 2048, 2051, 2053,
                                                      2055, 2065, 2067, 2069, 2073, 2075, 2078, 2080, 2082, 2090, 2092, 2094,
                                                      2098, 2100, 2103, 2104, 2105, 2106, 2153, 2159, 2162, 2164, 2171, 2177,
                                                      2182, 2185, 2199, 2204, 2207, 2210, 2246, 2247, 2251, 2263.
       24625    lpar                     cobol_pdst:  2158, 2175, 2220, 2221.
         536    l_1                      cobol_pdst:    99.
         663    l_10                     cobol_pdst:   114,  116.
        3713    l_100                    cobol_pdst:   426,  428.
        3720    l_101                    cobol_pdst:   428,  429.
        3725    l_102                    cobol_pdst:   429,  430.
        3732    l_103                    cobol_pdst:   430,  431.
        3744    l_104                    cobol_pdst:   431,  432,  433.
        3770    l_105                    cobol_pdst:   436,  437.
        3775    l_106                    cobol_pdst:   437,  438.
        4007    l_107                    cobol_pdst:   438,  440.
        4014    l_108                    cobol_pdst:   440,  441.
        4033    l_109                    cobol_pdst:   443,  444.
         670    l_11                     cobol_pdst:   116,  117.
        4045    l_110                    cobol_pdst:   444,  446.
        4110    l_111                    cobol_pdst:   446,  453.
        4153    l_112                    cobol_pdst:   458,  460.
        4216    l_113                    cobol_pdst:   460,  467.
        4317    l_114                    cobol_pdst:   478,  480.
        4362    l_115                    cobol_pdst:   484,  487.
        4374    l_116                    cobol_pdst:   487,  489.
        4406    l_117                    cobol_pdst:   489,  491.
        4451    l_118                    cobol_pdst:   491,  498.
        4456    l_119                    cobol_pdst:   498,  499.
         702    l_12                     cobol_pdst:   117,  118,  119.
        4521    l_120                    cobol_pdst:   499,  506.
        4526    l_121                    cobol_pdst:   506,  507.
        4533    l_122                    cobol_pdst:   507,  508.
        4545    l_123                    cobol_pdst:   508,  510.
        4557    l_124                    cobol_pdst:   510,  511,  512.
        4603    l_125                    cobol_pdst:   513,  514,  516.
        4615    l_126                    cobol_pdst:   516,  518.
        4627    l_127                    cobol_pdst:   519,  520.
        4646    l_128                    cobol_pdst:   522,  523.
        4665    l_129                    cobol_pdst:   525,  526.
         714    l_13                     cobol_pdst:   119,  121.
        4672    l_130                    cobol_pdst:   526,  527.
        4711    l_131                    cobol_pdst:   527,  530.
        4742    l_132                    cobol_pdst:   533,  535.
        4747    l_133                    cobol_pdst:   535,  536.
        4761    l_134                    cobol_pdst:   536,  538.
        4773    l_135                    cobol_pdst:   538,  540.
        5012    l_136                    cobol_pdst:   542,  543.
        5050    l_137                    cobol_pdst:   546,  547,  549.
        5156    l_138                    cobol_pdst:   562,  563.
        5170    l_139                    cobol_pdst:   563,  565.
         726    l_14                     cobol_pdst:   121,  123.
        5207    l_140                    cobol_pdst:   565,  568.
        5226    l_141                    cobol_pdst:   569,  571.
        5233    l_142                    cobol_pdst:   572.
        5245    l_143                    cobol_pdst:   572,  573,  574.
        5257    l_144                    cobol_pdst:   574,  575,  576.
        5276    l_145                    cobol_pdst:   578,  579.
        5315    l_146                    cobol_pdst:   581,  582.
        5341    l_147                    cobol_pdst:   585,  586.
        5353    l_148                    cobol_pdst:   587,  588.
        5377    l_149                    cobol_pdst:   590,  592.
         740    l_15                     cobol_pdst:   123,  125.
        5411    l_150                    cobol_pdst:   592,  594.
        5430    l_151                    cobol_pdst:   596,  597.
        5447    l_152                    cobol_pdst:   599,  600.
        5466    l_153                    cobol_pdst:   602,  603.
        5500    l_154                    cobol_pdst:   604,  605.
        5512    l_155                    cobol_pdst:   606,  607.
        5524    l_156                    cobol_pdst:   607,  609.
        5536    l_157                    cobol_pdst:   610,  611.
        5555    l_158                    cobol_pdst:   611,  612,  614.
        5562    l_159                    cobol_pdst:   614,  615.
         752    l_16                     cobol_pdst:   125,  127.
        5574    l_160                    cobol_pdst:   615,  616,  617.
        5601    l_161                    cobol_pdst:   617,  618.
        5606    l_162                    cobol_pdst:   619.
        5613    l_163                    cobol_pdst:   619,  620.
        5644    l_164                    cobol_pdst:   624,  625.
        5656    l_165                    cobol_pdst:   625,  627.
        5670    l_166                    cobol_pdst:   627,  629.
        5714    l_167                    cobol_pdst:   631,  633.
        5726    l_168                    cobol_pdst:   633,  635.
        5733    l_169                    cobol_pdst:   635,  636.
         757    l_17                     cobol_pdst:   127,  128.
        5745    l_170                    cobol_pdst:   636,  638.
        5757    l_171                    cobol_pdst:   638,  640.
        5764    l_172                    cobol_pdst:   640,  641.
        6022    l_173                    cobol_pdst:   643,  647.
        6046    l_174                    cobol_pdst:   649,  651.
        6060    l_175                    cobol_pdst:   651,  653.
        6135    l_176                    cobol_pdst:   659,  662.
        6147    l_177                    cobol_pdst:   662,  664.
        6161    l_178                    cobol_pdst:   664,  666.
        6224    l_179                    cobol_pdst:   672,  673.
         771    l_18                     cobol_pdst:   128,  129,  130.
        6255    l_180                    cobol_pdst:   676,  678.
        6262    l_181                    cobol_pdst:   678,  679.
        6267    l_182                    cobol_pdst:   679,  680.
        6301    l_183                    cobol_pdst:   681,  682.
        6325    l_184                    cobol_pdst:   685,  686.
        6363    l_185                    cobol_pdst:   691,  692.
        6402    l_186                    cobol_pdst:   694,  695.
        6421    l_187                    cobol_pdst:   697,  698.
        6440    l_188                    cobol_pdst:   700,  701.
        6445    l_189                    cobol_pdst:   701,  702.
        1003    l_19                     cobol_pdst:   131,  132.
        6464    l_190                    cobol_pdst:   703,  705.
        6503    l_191                    cobol_pdst:   707,  708.
        6510    l_192                    cobol_pdst:   708,  709.
        6522    l_193                    cobol_pdst:   709,  711.
        6527    l_194                    cobol_pdst:   711,  712.
        6541    l_195                    cobol_pdst:   713,  714.
        6553    l_196                    cobol_pdst:   714,  716.
        6604    l_197                    cobol_pdst:   720,  721.
        6630    l_198                    cobol_pdst:   723,  725.
        6661    l_199                    cobol_pdst:   728,  730.
         550    l_2                      cobol_pdst:    99,  101.
        1015    l_20                     cobol_pdst:   132,  134.
        6700    l_200                    cobol_pdst:   732,  733.
        6705    l_201                    cobol_pdst:   733,  734.
        6717    l_202                    cobol_pdst:   734,  736.
        6736    l_203                    cobol_pdst:   738,  739.
        6750    l_204                    cobol_pdst:   739,  741.
        6767    l_205                    cobol_pdst:   741,  744.
        7001    l_206                    cobol_pdst:   744,  746.
        7013    l_207                    cobol_pdst:   746,  748.
        7037    l_208                    cobol_pdst:   748,  749,  752.
        7051    l_209                    cobol_pdst:   752,  754.
        1053    l_21                     cobol_pdst:   138,  140.
        7070    l_210                    cobol_pdst:   754,  755,  757.
        7075    l_211                    cobol_pdst:   757,  758.
        7107    l_212                    cobol_pdst:   758,  760.
        7145    l_213                    cobol_pdst:   760,  766.
        7157    l_214                    cobol_pdst:   766,  768.
        7222    l_215                    cobol_pdst:   770,  771,  772,  775.
        7234    l_216                    cobol_pdst:   775,  777.
        7246    l_217                    cobol_pdst:   777,  779.
        7260    l_218                    cobol_pdst:   779,  781.
        7272    l_219                    cobol_pdst:   781,  783.
        1077    l_22                     cobol_pdst:   140,  144.
        7311    l_220                    cobol_pdst:   783,  784,  786.
        7316    l_221                    cobol_pdst:   786,  787.
        7342    l_222                    cobol_pdst:   789,  791.
        7354    l_223                    cobol_pdst:   791,  793.
        7366    l_224                    cobol_pdst:   793,  795.
        7405    l_225                    cobol_pdst:   795,  796,  798.
        7412    l_226                    cobol_pdst:   798,  799.
        7424    l_227                    cobol_pdst:   799,  801.
        7462    l_228                    cobol_pdst:   805,  807.
        7467    l_229                    cobol_pdst:   807,  808.
        1147    l_23                     cobol_pdst:   149,  152.
        7506    l_230                    cobol_pdst:   810,  811.
        7513    l_231                    cobol_pdst:   811,  812.
        7525    l_232                    cobol_pdst:   812,  814.
        7532    l_233                    cobol_pdst:   814,  815.
        7551    l_234                    cobol_pdst:   815,  816,  818.
        7556    l_235                    cobol_pdst:   818,  819.
        7570    l_236                    cobol_pdst:   819,  821.
        7633    l_237                    cobol_pdst:   827,  828.
        7645    l_238                    cobol_pdst:   828,  830.
        7657    l_239                    cobol_pdst:   830,  832.
        1200    l_24                     cobol_pdst:   154,  155,  157.
        7671    l_240                    cobol_pdst:   832,  833,  834.
        7676    l_241                    cobol_pdst:   834,  835.
        7722    l_242                    cobol_pdst:   835,  839.
        7746    l_243                    cobol_pdst:   841,  843.
        7753    l_244                    cobol_pdst:   843,  844.
        7772    l_245                    cobol_pdst:   845,  847.
       10004    l_246                    cobol_pdst:   847,  849.
       10030    l_247                    cobol_pdst:   851,  853.
       10042    l_248                    cobol_pdst:   853,  854,  855.
       10073    l_249                    cobol_pdst:   858,  859,  860.
        1212    l_25                     cobol_pdst:   157,  159.
       10100    l_250                    cobol_pdst:   860,  861.
       10117    l_251                    cobol_pdst:   863,  864.
       10174    l_252                    cobol_pdst:   871,  873.
       10206    l_253                    cobol_pdst:   874,  875.
       10237    l_254                    cobol_pdst:   878,  880.
       10270    l_255                    cobol_pdst:   883,  885.
       10340    l_256                    cobol_pdst:   886,  887,  893.
       10415    l_257                    cobol_pdst:   901,  902.
       10441    l_258                    cobol_pdst:   904,  906.
       10504    l_259                    cobol_pdst:   910,  913.
        1224    l_26                     cobol_pdst:   159,  160,  161.
       10523    l_260                    cobol_pdst:   913,  916.
       10547    l_261                    cobol_pdst:   916,  920.
       10600    l_262                    cobol_pdst:   923,  924,  925.
       10612    l_263                    cobol_pdst:   925,  927.
       10624    l_264                    cobol_pdst:   928,  929.
       10636    l_265                    cobol_pdst:   929,  931.
       10650    l_266                    cobol_pdst:   931,  933.
       10655    l_267                    cobol_pdst:   934.
       10674    l_268                    cobol_pdst:   936,  937.
       10713    l_269                    cobol_pdst:   938,  939,  940.
        1325    l_27                     cobol_pdst:   167,  169,  170,  171,  173,  174.
       10725    l_270                    cobol_pdst:   940,  941,  942.
       10744    l_271                    cobol_pdst:   944,  945.
       10763    l_272                    cobol_pdst:   947,  948.
       11014    l_273                    cobol_pdst:   951,  953.
       11040    l_274                    cobol_pdst:   955,  956,  957.
       11052    l_275                    cobol_pdst:   957,  959.
       11064    l_276                    cobol_pdst:   960,  961.
       11076    l_277                    cobol_pdst:   961,  963.
       11141    l_278                    cobol_pdst:   963,  970.
       11146    l_279                    cobol_pdst:   970,  971.
        1337    l_28                     cobol_pdst:   174,  176.
       11204    l_280                    cobol_pdst:   971,  977.
       11242    l_281                    cobol_pdst:   981,  983.
       11305    l_282                    cobol_pdst:   983,  990.
       11350    l_283                    cobol_pdst:   990,  997.
       11413    l_284                    cobol_pdst:   997, 1004.
       11456    l_285                    cobol_pdst:  1004, 1011.
       11470    l_286                    cobol_pdst:  1011, 1013.
       11502    l_287                    cobol_pdst:  1013, 1015.
       11545    l_288                    cobol_pdst:  1015, 1022.
       11610    l_289                    cobol_pdst:  1022, 1029.
        1414    l_29                     cobol_pdst:   184,  185.
       11615    l_290                    cobol_pdst:  1029, 1030.
       11653    l_291                    cobol_pdst:  1030, 1036.
       11672    l_292                    cobol_pdst:  1037, 1039.
       11735    l_293                    cobol_pdst:  1039, 1046.
       12000    l_294                    cobol_pdst:  1046, 1053.
       12005    l_295                    cobol_pdst:  1053, 1054.
       12017    l_296                    cobol_pdst:  1054, 1056.
       12031    l_297                    cobol_pdst:  1057, 1058.
       12050    l_298                    cobol_pdst:  1059, 1061.
       12062    l_299                    cobol_pdst:  1061, 1063.
         562    l_3                      cobol_pdst:   101,  103.
        1510    l_30                     cobol_pdst:   190,  197.
       12074    l_300                    cobol_pdst:  1063, 1065.
       12120    l_301                    cobol_pdst:  1065, 1069.
       12132    l_302                    cobol_pdst:  1069, 1071.
       12144    l_303                    cobol_pdst:  1072, 1073.
       12151    l_304                    cobol_pdst:  1073, 1074.
       12170    l_305                    cobol_pdst:  1076, 1077.
       12207    l_306                    cobol_pdst:  1079, 1080.
       12233    l_307                    cobol_pdst:  1082, 1084.
       12245    l_308                    cobol_pdst:  1084, 1086.
       12276    l_309                    cobol_pdst:  1089, 1091.
        1522    l_31                     cobol_pdst:   197,  198,  199.
       12315    l_310                    cobol_pdst:  1091, 1092, 1094.
       12327    l_311                    cobol_pdst:  1094, 1096.
       12353    l_312                    cobol_pdst:  1099, 1100.
       12365    l_313                    cobol_pdst:  1100, 1102.
       12377    l_314                    cobol_pdst:  1102, 1104.
       12411    l_315                    cobol_pdst:  1104, 1106.
       12430    l_316                    cobol_pdst:  1106, 1107, 1109.
       12442    l_317                    cobol_pdst:  1109, 1111.
       12454    l_318                    cobol_pdst:  1111, 1113.
       12500    l_319                    cobol_pdst:  1116, 1117.
        1546    l_32                     cobol_pdst:   199,  200,  201,  202,  203.
       12505    l_320                    cobol_pdst:  1117, 1118.
       12517    l_321                    cobol_pdst:  1118, 1120.
       12567    l_322                    cobol_pdst:  1125, 1126, 1128.
       12601    l_323                    cobol_pdst:  1129, 1130.
       12606    l_324                    cobol_pdst:  1130, 1131.
       12620    l_325                    cobol_pdst:  1131, 1133.
       12632    l_326                    cobol_pdst:  1134, 1135.
       12644    l_327                    cobol_pdst:  1135, 1137.
       12651    l_328                    cobol_pdst:  1137, 1138.
       12663    l_329                    cobol_pdst:  1138, 1140.
        1572    l_33                     cobol_pdst:   205,  207.
       12714    l_330                    cobol_pdst:  1140, 1141, 1142, 1144, 1145.
       12726    l_331                    cobol_pdst:  1146, 1147.
       12764    l_332                    cobol_pdst:  1151, 1153.
       12771    l_333                    cobol_pdst:  1153, 1154.
       13010    l_334                    cobol_pdst:  1156, 1157.
       13034    l_335                    cobol_pdst:  1159, 1161.
       13046    l_336                    cobol_pdst:  1161, 1163.
       13077    l_337                    cobol_pdst:  1165, 1168.
       13116    l_338                    cobol_pdst:  1170, 1171.
       13142    l_339                    cobol_pdst:  1173, 1175.
        1611    l_34                     cobol_pdst:   209,  210.
       13173    l_340                    cobol_pdst:  1176, 1177, 1180.
       13217    l_341                    cobol_pdst:  1182, 1184.
       13250    l_342                    cobol_pdst:  1186, 1189.
       13267    l_343                    cobol_pdst:  1191, 1192.
       13274    l_344                    cobol_pdst:  1192, 1193.
       13306    l_345                    cobol_pdst:  1193, 1195.
       13325    l_346                    cobol_pdst:  1196, 1198.
       13332    l_347                    cobol_pdst:  1198, 1199.
       13344    l_348                    cobol_pdst:  1199, 1201.
       13356    l_349                    cobol_pdst:  1201, 1203.
        1623    l_35                     cobol_pdst:   210,  212.
       13375    l_350                    cobol_pdst:  1205, 1206.
       13414    l_351                    cobol_pdst:  1208, 1209.
       13426    l_352                    cobol_pdst:  1209, 1210, 1211.
       13440    l_353                    cobol_pdst:  1211, 1213.
       13452    l_354                    cobol_pdst:  1213, 1214, 1215.
       13471    l_355                    cobol_pdst:  1217, 1218.
       13503    l_356                    cobol_pdst:  1218, 1219, 1220.
       13515    l_357                    cobol_pdst:  1220, 1222.
       13534    l_358                    cobol_pdst:  1224, 1225.
       13541    l_359                    cobol_pdst:  1225, 1226.
        1661    l_36                     cobol_pdst:   212,  213,  214,  218.
       13553    l_360                    cobol_pdst:  1226, 1228.
       13565    l_361                    cobol_pdst:  1228, 1230.
       13577    l_362                    cobol_pdst:  1230, 1232.
       13611    l_363                    cobol_pdst:  1232, 1234.
       13630    l_364                    cobol_pdst:  1236, 1237.
       13635    l_365                    cobol_pdst:  1237, 1238.
       13647    l_366                    cobol_pdst:  1238, 1240.
       13661    l_367                    cobol_pdst:  1240, 1242.
       13666    l_368                    cobol_pdst:  1242, 1243.
       13712    l_369                    cobol_pdst:  1245, 1247.
        1717    l_37                     cobol_pdst:   222,  224.
       13717    l_370                    cobol_pdst:  1247, 1248.
       13743    l_371                    cobol_pdst:  1250, 1252.
       13750    l_372                    cobol_pdst:  1252, 1253.
       13762    l_373                    cobol_pdst:  1253, 1255.
       14006    l_374                    cobol_pdst:  1257, 1259.
       14025    l_375                    cobol_pdst:  1261, 1262.
       14037    l_376                    cobol_pdst:  1262, 1264.
       14051    l_377                    cobol_pdst:  1264, 1266.
       14102    l_378                    cobol_pdst:  1266, 1267, 1268, 1271.
       14114    l_379                    cobol_pdst:  1271, 1273.
        1731    l_38                     cobol_pdst:   225,  226.
       14145    l_380                    cobol_pdst:  1274, 1277, 1278.
       14164    l_381                    cobol_pdst:  1280, 1281.
       14227    l_382                    cobol_pdst:  1286, 1288.
       14246    l_383                    cobol_pdst:  1290, 1291.
       14253    l_384                    cobol_pdst:  1291, 1292.
       14272    l_385                    cobol_pdst:  1292, 1295.
       14277    l_386                    cobol_pdst:  1295, 1296.
       14311    l_387                    cobol_pdst:  1296, 1298.
       14330    l_388                    cobol_pdst:  1298, 1301.
       14342    l_389                    cobol_pdst:  1301, 1303.
        1736    l_39                     cobol_pdst:   226,  227.
       14347    l_390                    cobol_pdst:  1303, 1304.
       14354    l_391                    cobol_pdst:  1304, 1305.
       14366    l_392                    cobol_pdst:  1305, 1307.
       14400    l_393                    cobol_pdst:  1307, 1309.
       14412    l_394                    cobol_pdst:  1310, 1311.
       14417    l_395                    cobol_pdst:  1311, 1312.
       14455    l_396                    cobol_pdst:  1316, 1318.
       14467    l_397                    cobol_pdst:  1318, 1320.
       14474    l_398                    cobol_pdst:  1320, 1321.
       14506    l_399                    cobol_pdst:  1322, 1323.
         601    l_4                      cobol_pdst:   103,  106.
        1750    l_40                     cobol_pdst:   227,  229.
       14513    l_400                    cobol_pdst:  1323, 1324.
       14520    l_401                    cobol_pdst:  1324, 1325.
       14532    l_402                    cobol_pdst:  1325, 1327.
       14537    l_403                    cobol_pdst:  1327, 1328.
       14551    l_404                    cobol_pdst:  1328, 1330.
       14570    l_405                    cobol_pdst:  1330, 1333.
       14602    l_406                    cobol_pdst:  1333, 1335.
       14607    l_407                    cobol_pdst:  1335, 1336.
       14633    l_408                    cobol_pdst:  1336, 1337, 1338, 1340.
       14640    l_409                    cobol_pdst:  1340, 1341.
        2013    l_41                     cobol_pdst:   233,  236.
       14657    l_410                    cobol_pdst:  1343, 1344.
       14671    l_411                    cobol_pdst:  1344, 1346.
       14741    l_412                    cobol_pdst:  1351, 1354.
       14760    l_413                    cobol_pdst:  1356, 1357.
       14772    l_414                    cobol_pdst:  1357, 1359.
       15011    l_415                    cobol_pdst:  1359, 1362.
       15023    l_416                    cobol_pdst:  1362, 1364.
       15035    l_417                    cobol_pdst:  1365, 1366.
       15047    l_418                    cobol_pdst:  1367, 1368.
       15054    l_419                    cobol_pdst:  1368, 1369.
        2020    l_42                     cobol_pdst:   236,  237.
       15105    l_420                    cobol_pdst:  1369, 1374.
       15112    l_421                    cobol_pdst:  1374, 1375.
       15117    l_422                    cobol_pdst:  1375, 1376.
       15143    l_423                    cobol_pdst:  1379, 1380.
       15162    l_424                    cobol_pdst:  1382, 1383.
       15206    l_425                    cobol_pdst:  1387.
       15220    l_426                    cobol_pdst:  1387, 1389.
       15237    l_427                    cobol_pdst:  1391, 1392.
       15244    l_428                    cobol_pdst:  1392, 1393.
       15270    l_429                    cobol_pdst:  1395, 1397.
        2037    l_43                     cobol_pdst:   239,  240.
       15275    l_430                    cobol_pdst:  1397, 1398.
       15357    l_431                    cobol_pdst:  1403, 1408.
       15376    l_432                    cobol_pdst:  1409, 1410, 1411.
       15477    l_433                    cobol_pdst:  1422, 1424.
       15511    l_434                    cobol_pdst:  1424, 1426.
       15542    l_435                    cobol_pdst:  1429, 1431.
       15561    l_436                    cobol_pdst:  1431, 1434.
       15612    l_437                    cobol_pdst:  1438, 1439.
       15617    l_438                    cobol_pdst:  1439, 1440.
       15624    l_439                    cobol_pdst:  1440, 1441.
        2044    l_44                     cobol_pdst:   240,  241.
       15636    l_440                    cobol_pdst:  1441, 1443.
       15643    l_441                    cobol_pdst:  1443, 1444.
       15650    l_442                    cobol_pdst:  1444, 1445.
       15667    l_443                    cobol_pdst:  1445, 1446, 1448.
       15674    l_444                    cobol_pdst:  1448, 1449.
       15706    l_445                    cobol_pdst:  1449, 1451.
       15751    l_446                    cobol_pdst:  1457, 1458.
       15770    l_447                    cobol_pdst:  1458, 1461.
       16007    l_448                    cobol_pdst:  1462, 1464.
       16014    l_449                    cobol_pdst:  1464, 1465.
        2051    l_45                     cobol_pdst:   241,  242.
       16026    l_450                    cobol_pdst:  1465, 1467.
       16057    l_451                    cobol_pdst:  1470, 1472.
       16071    l_452                    cobol_pdst:  1472, 1474.
       16103    l_453                    cobol_pdst:  1475, 1476.
       16122    l_454                    cobol_pdst:  1477, 1479.
       16134    l_455                    cobol_pdst:  1479, 1481.
       16160    l_456                    cobol_pdst:  1483, 1485.
       16165    l_457                    cobol_pdst:  1485, 1486.
       16216    l_458                    cobol_pdst:  1488, 1491.
       16230    l_459                    cobol_pdst:  1491, 1493.
        2056    l_46                     cobol_pdst:   242,  243.
       16235    l_460                    cobol_pdst:  1493, 1494.
       16254    l_461                    cobol_pdst:  1495, 1497.
       16266    l_462                    cobol_pdst:  1497, 1499.
       16312    l_463                    cobol_pdst:  1501, 1503.
       16324    l_464                    cobol_pdst:  1503, 1505.
       16362    l_465                    cobol_pdst:  1510, 1511.
       16374    l_466                    cobol_pdst:  1511, 1513.
       16401    l_467                    cobol_pdst:  1513, 1514.
       16413    l_468                    cobol_pdst:  1514, 1516.
       16444    l_469                    cobol_pdst:  1517, 1518, 1521.
        2063    l_47                     cobol_pdst:   243,  244.
       16456    l_470                    cobol_pdst:  1521, 1523.
       16502    l_471                    cobol_pdst:  1525, 1527.
       16521    l_472                    cobol_pdst:  1529, 1530.
       16540    l_473                    cobol_pdst:  1532, 1533.
       16564    l_474                    cobol_pdst:  1533, 1537.
       16571    l_475                    cobol_pdst:  1537, 1538.
       16615    l_476                    cobol_pdst:  1540, 1542.
       16646    l_477                    cobol_pdst:  1544, 1547.
       16665    l_478                    cobol_pdst:  1549, 1550.
       16711    l_479                    cobol_pdst:  1550, 1551, 1552, 1554.
        2070    l_48                     cobol_pdst:   245.
       16723    l_480                    cobol_pdst:  1555, 1556.
       16730    l_481                    cobol_pdst:  1556, 1557.
       16754    l_482                    cobol_pdst:  1557, 1561.
       16766    l_483                    cobol_pdst:  1561, 1563.
       17017    l_484                    cobol_pdst:  1564, 1568.
       17024    l_485                    cobol_pdst:  1568, 1569.
       17055    l_486                    cobol_pdst:  1569, 1574.
       17067    l_487                    cobol_pdst:  1574, 1576.
       17120    l_488                    cobol_pdst:  1579, 1581.
       17132    l_489                    cobol_pdst:  1581, 1583.
        2102    l_49                     cobol_pdst:   246,  247.
       17144    l_490                    cobol_pdst:  1583, 1585.
       17170    l_491                    cobol_pdst:  1588, 1589.
       17207    l_492                    cobol_pdst:  1591, 1592.
       17233    l_493                    cobol_pdst:  1594, 1596.
       17245    l_494                    cobol_pdst:  1596, 1598.
       17264    l_495                    cobol_pdst:  1600, 1601.
       17276    l_496                    cobol_pdst:  1601, 1603, 1604.
       17315    l_497                    cobol_pdst:  1603, 1606.
       17327    l_498                    cobol_pdst:  1606, 1608.
       17346    l_499                    cobol_pdst:  1609, 1611.
         606    l_5                      cobol_pdst:   106,  107.
        2157    l_50                     cobol_pdst:   254,  256.
       17360    l_500                    cobol_pdst:  1611, 1613.
       17411    l_501                    cobol_pdst:  1615, 1618.
       17435    l_502                    cobol_pdst:  1620, 1621, 1622.
       17442    l_503                    cobol_pdst:  1623.
       17447    l_504                    cobol_pdst:  1624.
       17461    l_505                    cobol_pdst:  1625, 1626.
       17500    l_506                    cobol_pdst:  1628, 1629.
       17517    l_507                    cobol_pdst:  1631, 1632.
       17543    l_508                    cobol_pdst:  1634, 1635, 1636.
       17562    l_509                    cobol_pdst:  1636, 1639.
        2171    l_51                     cobol_pdst:   256,  258.
       17574    l_510                    cobol_pdst:  1640, 1641.
       17613    l_511                    cobol_pdst:  1642, 1644.
       17625    l_512                    cobol_pdst:  1644, 1645, 1646.
       17651    l_513                    cobol_pdst:  1649, 1650.
       17670    l_514                    cobol_pdst:  1651, 1653.
       17675    l_515                    cobol_pdst:  1653, 1654.
       17702    l_516                    cobol_pdst:  1654, 1655.
       17707    l_517                    cobol_pdst:  1655, 1656.
       17721    l_518                    cobol_pdst:  1657, 1658.
       17726    l_519                    cobol_pdst:  1658, 1659.
        2203    l_52                     cobol_pdst:   258,  260.
       17740    l_520                    cobol_pdst:  1659, 1661.
       17752    l_521                    cobol_pdst:  1661, 1663.
       17771    l_522                    cobol_pdst:  1663, 1666.
       17776    l_523                    cobol_pdst:  1666, 1667.
       20022    l_524                    cobol_pdst:  1668, 1669, 1671.
       20041    l_525                    cobol_pdst:  1672, 1674.
       20053    l_526                    cobol_pdst:  1674, 1676.
       20065    l_527                    cobol_pdst:  1676, 1678.
       20135    l_528                    cobol_pdst:  1685, 1686.
       20154    l_529                    cobol_pdst:  1688, 1689.
        2210    l_53                     cobol_pdst:   260,  261.
       20200    l_530                    cobol_pdst:  1691, 1693.
       20205    l_531                    cobol_pdst:  1693, 1694.
       20217    l_532                    cobol_pdst:  1694, 1696.
       20243    l_533                    cobol_pdst:  1698, 1700.
       20250    l_534                    cobol_pdst:  1700, 1701.
       20262    l_535                    cobol_pdst:  1701, 1703.
       20306    l_536                    cobol_pdst:  1705, 1707.
       20320    l_537                    cobol_pdst:  1707, 1709.
       20337    l_538                    cobol_pdst:  1711, 1712.
       20351    l_539                    cobol_pdst:  1712, 1714.
        2222    l_54                     cobol_pdst:   261,  262,  263.
       20375    l_540                    cobol_pdst:  1717, 1718.
       20414    l_541                    cobol_pdst:  1719, 1721.
       20426    l_542                    cobol_pdst:  1721, 1723.
       20457    l_543                    cobol_pdst:  1723, 1724, 1725, 1727, 1728.
       20515    l_544                    cobol_pdst:  1732, 1734.
       20527    l_545                    cobol_pdst:  1734, 1736.
       20534    l_546                    cobol_pdst:  1736, 1737, 1738.
       20546    l_547                    cobol_pdst:  1737, 1739.
       20572    l_548                    cobol_pdst:  1741, 1743.
       20623    l_549                    cobol_pdst:  1746, 1748.
        2234    l_55                     cobol_pdst:   263,  265.
       20642    l_550                    cobol_pdst:  1750, 1751.
       20666    l_551                    cobol_pdst:  1753, 1755.
       20717    l_552                    cobol_pdst:  1755, 1759, 1760.
       20731    l_553                    cobol_pdst:  1760, 1762.
       20743    l_554                    cobol_pdst:  1762, 1764.
       20755    l_555                    cobol_pdst:  1764, 1765, 1766.
       21020    l_556                    cobol_pdst:  1771, 1773.
       21032    l_557                    cobol_pdst:  1774, 1775.
       21056    l_558                    cobol_pdst:  1777, 1779.
       21121    l_559                    cobol_pdst:  1784, 1786.
        2260    l_56                     cobol_pdst:   267,  269.
       21140    l_560                    cobol_pdst:  1788, 1789.
       21145    l_561                    cobol_pdst:  1789, 1790.
       21157    l_562                    cobol_pdst:  1790, 1792.
       21176    l_563                    cobol_pdst:  1792, 1795.
       21335    l_564                    cobol_pdst:  1812, 1813, 1814.
       21342    l_565                    cobol_pdst:  1814, 1815.
       21412    l_566                    cobol_pdst:  1821, 1823.
       21431    l_567                    cobol_pdst:  1825, 1826.
       21436    l_568                    cobol_pdst:  1826, 1827.
       21450    l_569                    cobol_pdst:  1827, 1829.
        2412    l_57                     cobol_pdst:   285,  287.
       21455    l_570                    cobol_pdst:  1829, 1830.
       21462    l_571                    cobol_pdst:  1830, 1831.
       21474    l_572                    cobol_pdst:  1831, 1833.
       21520    l_573                    cobol_pdst:  1833, 1834, 1835, 1837.
       21532    l_574                    cobol_pdst:  1837, 1839.
       21556    l_575                    cobol_pdst:  1839, 1840, 1841, 1843.
       21570    l_576                    cobol_pdst:  1844, 1845.
       21602    l_577                    cobol_pdst:  1845, 1847.
       21633    l_578                    cobol_pdst:  1848, 1849, 1852.
       21645    l_579                    cobol_pdst:  1852, 1854.
        2443    l_58                     cobol_pdst:   291,  292.
       21652    l_580                    cobol_pdst:  1854, 1855.
       21664    l_581                    cobol_pdst:  1855, 1857.
       21703    l_582                    cobol_pdst:  1858, 1860.
       21722    l_583                    cobol_pdst:  1862, 1863.
       21741    l_584                    cobol_pdst:  1865, 1866.
       22011    l_585                    cobol_pdst:  1872, 1874.
       22023    l_586                    cobol_pdst:  1874, 1876.
       22042    l_587                    cobol_pdst:  1876, 1879.
       22066    l_588                    cobol_pdst:  1880, 1883.
       22105    l_589                    cobol_pdst:  1883, 1886.
        2474    l_59                     cobol_pdst:   294,  297.
       22117    l_590                    cobol_pdst:  1886, 1888.
       22131    l_591                    cobol_pdst:  1888, 1890.
       22150    l_592                    cobol_pdst:  1890, 1891, 1893.
       22206    l_593                    cobol_pdst:  1897, 1899.
       22220    l_594                    cobol_pdst:  1899, 1900, 1901.
       22251    l_595                    cobol_pdst:  1904, 1906.
       22275    l_596                    cobol_pdst:  1908, 1910.
       22340    l_597                    cobol_pdst:  1914, 1917.
       22345    l_598                    cobol_pdst:  1917, 1918.
       22446    l_599                    cobol_pdst:  1928, 1931.
         620    l_6                      cobol_pdst:   107,  109.
        2501    l_60                     cobol_pdst:   297,  298.
       22453    l_600                    cobol_pdst:  1931, 1932.
       22523    l_601                    cobol_pdst:  1938, 1940.
       22530    l_602                    cobol_pdst:  1940, 1941.
       22605    l_603                    cobol_pdst:  1948, 1950.
       22617    l_604                    cobol_pdst:  1950, 1951, 1952.
       22655    l_605                    cobol_pdst:  1956, 1958.
       22701    l_606                    cobol_pdst:  1960, 1962.
       22713    l_607                    cobol_pdst:  1962, 1964.
       22732    l_608                    cobol_pdst:  1966, 1967.
       23002    l_609                    cobol_pdst:  1974, 1975.
        2513    l_61                     cobol_pdst:   298,  300.
       23014    l_610                    cobol_pdst:  1975, 1977.
       23033    l_611                    cobol_pdst:  1977, 1980.
       23071    l_612                    cobol_pdst:  1983, 1986.
       23122    l_613                    cobol_pdst:  1988, 1991.
       23141    l_614                    cobol_pdst:  1993, 1994.
       23160    l_615                    cobol_pdst:  1995, 1997.
       23172    l_616                    cobol_pdst:  1997, 1999.
       23177    l_617                    cobol_pdst:  1999, 2000.
       23211    l_618                    cobol_pdst:  2000, 2002.
       23223    l_619                    cobol_pdst:  2002, 2004.
        2570    l_62                     cobol_pdst:   308,  309.
       23261    l_620                    cobol_pdst:  2008, 2010.
       23312    l_621                    cobol_pdst:  2012, 2015.
       23331    l_622                    cobol_pdst:  2017, 2018.
       23350    l_623                    cobol_pdst:  2019, 2021.
       23362    l_624                    cobol_pdst:  2021, 2023.
       23367    l_625                    cobol_pdst:  2023, 2024.
       23401    l_626                    cobol_pdst:  2024, 2026.
       23413    l_627                    cobol_pdst:  2026, 2028.
       23456    l_628                    cobol_pdst:  2032, 2035.
       23507    l_629                    cobol_pdst:  2037, 2040.
        2602    l_63                     cobol_pdst:   309,  311.
       23526    l_630                    cobol_pdst:  2042, 2043.
       23545    l_631                    cobol_pdst:  2044, 2046.
       23557    l_632                    cobol_pdst:  2046, 2048.
       23564    l_633                    cobol_pdst:  2048, 2049.
       23576    l_634                    cobol_pdst:  2049, 2051.
       23610    l_635                    cobol_pdst:  2051, 2053.
       23653    l_636                    cobol_pdst:  2057, 2060.
       23665    l_637                    cobol_pdst:  2060, 2062.
       23716    l_638                    cobol_pdst:  2064, 2067.
       23735    l_639                    cobol_pdst:  2069, 2070.
        2621    l_64                     cobol_pdst:   312,  314.
       23754    l_640                    cobol_pdst:  2071, 2073.
       23766    l_641                    cobol_pdst:  2073, 2075.
       23773    l_642                    cobol_pdst:  2075, 2076.
       24005    l_643                    cobol_pdst:  2076, 2078.
       24017    l_644                    cobol_pdst:  2078, 2080.
       24062    l_645                    cobol_pdst:  2084, 2087.
       24113    l_646                    cobol_pdst:  2089, 2092.
       24132    l_647                    cobol_pdst:  2094, 2095.
       24151    l_648                    cobol_pdst:  2096, 2098.
       24163    l_649                    cobol_pdst:  2098, 2100.
        2633    l_65                     cobol_pdst:   314,  315,  316.
       24170    l_650                    cobol_pdst:  2100, 2101.
       24202    l_651                    cobol_pdst:  2101, 2103.
       24207    l_652                    cobol_pdst:  2104.
       24221    l_653                    cobol_pdst:  2105, 2106.
       24252    l_654                    cobol_pdst:  2108, 2111.
       24276    l_655                    cobol_pdst:  2113, 2115.
       24430    l_656                    cobol_pdst:  2131, 2133.
       24567    l_657                    cobol_pdst:  2151, 2152.
       24606    l_658                    cobol_pdst:  2153, 2155.
       24625    l_659                    cobol_pdst:  2157, 2158.
        2645    l_66                     cobol_pdst:   316,  318.
       24702    l_660                    cobol_pdst:  2163, 2167.
       24707    l_661                    cobol_pdst:  2167, 2168.
       24740    l_662                    cobol_pdst:  2172, 2173.
       25003    l_663                    cobol_pdst:  2178, 2180.
       25072    l_664                    cobol_pdst:  2186, 2191.
       25077    l_665                    cobol_pdst:  2191, 2192.
       25161    l_666                    cobol_pdst:  2200, 2202.
       25217    l_667                    cobol_pdst:  2207, 2208.
       25231    l_668                    cobol_pdst:  2208, 2210.
       25250    l_669                    cobol_pdst:  2212, 2213.
        2727    l_67                     cobol_pdst:   327,  328.
       25255    l_670                    cobol_pdst:  2213, 2214.
       25262    l_671                    cobol_pdst:  2214, 2215.
       25337    l_672                    cobol_pdst:  2222, 2224.
       25356    l_673                    cobol_pdst:  2226, 2227.
       25426    l_674                    cobol_pdst:  2234, 2235.
       25440    l_675                    cobol_pdst:  2236, 2237.
       25464    l_676                    cobol_pdst:  2239, 2241.
       25510    l_677                    cobol_pdst:  2244, 2245.
       25565    l_678                    cobol_pdst:  2252, 2254.
       25572    l_679                    cobol_pdst:  2254, 2255.
        2760    l_68                     cobol_pdst:   330,  331,  333.
       25616    l_680                    cobol_pdst:  2258, 2259.
       25635    l_681                    cobol_pdst:  2259, 2260, 2262.
       25642    l_682                    cobol_pdst:  2262, 2263.
       25666    l_683                    cobol_pdst:  2263, 2267.
       25700    l_684                    cobol_pdst:  2268, 2269.
       25717    l_685                    cobol_pdst:  2269, 2272.
       25743    l_686                    cobol_pdst:  2275, 2276.
       25750    l_687                    cobol_pdst:  2277.
       25755    l_688                    cobol_pdst:  2278.
       25762    l_689                    cobol_pdst:  2279.
        2772    l_69                     cobol_pdst:   334,  335.
       25767    l_690                    cobol_pdst:  2280.
       25774    l_691                    cobol_pdst:  2281.
       26001    l_692                    cobol_pdst:  2282.
       26006    l_693                    cobol_pdst:  2283.
       26013    l_694                    cobol_pdst:  2284.
       26020    l_695                    cobol_pdst:  2285.
       26025    l_696                    cobol_pdst:  2286.
       26032    l_697                    cobol_pdst:  2287.
       26037    l_698                    cobol_pdst:  2288.
       26044    l_699                    cobol_pdst:  2289.
         632    l_7                      cobol_pdst:   109,  111.
        3004    l_70                     cobol_pdst:   335,  337.
       26051    l_700                    cobol_pdst:  2290.
       26056    l_701                    cobol_pdst:  2291.
       26063    l_702                    cobol_pdst:  2292.
       26070    l_703                    cobol_pdst:  2293.
       26075    l_704                    cobol_pdst:  2294.
       26102    l_705                    cobol_pdst:  2295.
       26107    l_706                    cobol_pdst:  2296.
       26114    l_707                    cobol_pdst:  2297.
       26121    l_708                    cobol_pdst:  2298.
       26126    l_709                    cobol_pdst:  2299.
        3042    l_71                     cobol_pdst:   338,  339,  340,  343.
       26133    l_710                    cobol_pdst:  2300.
       26140    l_711                    cobol_pdst:  2301.
       26145    l_712                    cobol_pdst:  2302.
       26152    l_713                    cobol_pdst:  2303.
       26157    l_714                    cobol_pdst:  2304.
       26164    l_715                    cobol_pdst:  2305.
       26171    l_716                    cobol_pdst:  2306.
       26176    l_717                    cobol_pdst:  2307.
       26203    l_718                    cobol_pdst:  2308.
       26210    l_719                    cobol_pdst:  2309.
        3047    l_72                     cobol_pdst:   343,  344.
       26215    l_720                    cobol_pdst:  2310.
       26222    l_721                    cobol_pdst:  2311.
       26227    l_722                    cobol_pdst:  2312.
       26234    l_723                    cobol_pdst:  2313.
       26241    l_724                    cobol_pdst:  2314.
       26246    l_725                    cobol_pdst:  2315.
        3073    l_73                     cobol_pdst:   347,  348.
        3105    l_74                     cobol_pdst:   348,  350.
        3131    l_75                     cobol_pdst:   353,  354.
        3155    l_76                     cobol_pdst:   354,  355,  356,  358.
        3201    l_77                     cobol_pdst:   358,  362.
        3251    l_78                     cobol_pdst:   368,  369,  370.
        3256    l_79                     cobol_pdst:   371.
         637    l_8                      cobol_pdst:   112.
        3263    l_80                     cobol_pdst:   372.
        3275    l_81                     cobol_pdst:   373,  374.
        3314    l_82                     cobol_pdst:   376,  377.
        3345    l_83                     cobol_pdst:   380,  382.
        3357    l_84                     cobol_pdst:   382,  383,  384.
        3410    l_85                     cobol_pdst:   388,  389.
        3422    l_86                     cobol_pdst:   389,  391.
        3434    l_87                     cobol_pdst:   391,  393.
        3446    l_88                     cobol_pdst:   393,  395.
        3472    l_89                     cobol_pdst:   397,  399.
         651    l_9                      cobol_pdst:   112,  113,  114.
        3504    l_90                     cobol_pdst:   399,  401.
        3511    l_91                     cobol_pdst:   401,  402.
        3523    l_92                     cobol_pdst:   402,  404.
        3535    l_93                     cobol_pdst:   405,  406.
        3542    l_94                     cobol_pdst:   406,  407.
        3561    l_95                     cobol_pdst:   407,  410.
        3605    l_96                     cobol_pdst:   411,  414.
        3636    l_97                     cobol_pdst:   417,  419.
        3650    l_98                     cobol_pdst:   419,  421.
        3667    l_99                     cobol_pdst:   421,  422,  424,  425.
           0    l_org                    cobol_pdst:    29,   30,   31,   32,   33,   34,   35,   36,   37,   38,   39,   40,
                                                        41,   42,   43,   44,   45,   46,   47,   48,   49,   50,   51,   52,
                                                        53,   54,   55,   56,   57,   58,   59,   60,   61,   62,   63,   64,
                                                        65,   66,   67,   68,   69,   70,   71,   72,   73,   74,   75,   76,
                                                        77,   78,   79,   80,   81,   82,   83,   84,   85,   86,   87,   88,
                                                        89,   90,   91,   92,   93,   94,   95,   96,   97,   98,   99,  100,
                                                       101,  102,  103,  104,  105,  106,  107,  108,  109,  110,  111,  112,
                                                       113,  114,  115,  116,  117,  118,  119,  120,  121,  122,  123,  124,
                                                       125,  126,  127,  128,  129,  130,  131,  132,  133,  134,  135,  136,
                                                       137,  138,  139,  140,  141,  142,  143,  144,  145,  146,  147,  148,
                                                       149,  150,  151,  152,  153,  154,  155,  156,  157,  158,  159,  160,
                                                       161,  162,  163,  164,  165,  166,  167,  168,  169,  170,  171,  172,
                                                       173,  174,  175,  176,  177,  178,  179,  180,  181,  182,  183,  184,
                                                       185,  186,  187,  188,  189,  190,  191,  192,  193,  194,  195,  196,
                                                       197,  198,  199,  200,  201,  202,  203,  204,  205,  206,  207,  208,
                                                       209,  210,  211,  212,  213,  214,  215,  216,  217,  218,  219,  220,
                                                       221,  222,  223,  224,  225,  226,  227,  228,  229,  230,  231,  232,
                                                       233,  234,  235,  236,  237,  238,  239,  240,  241,  242,  243,  244,
                                                       245,  246,  247,  248,  249,  250,  251,  252,  253,  254,  255,  256,
                                                       257,  258,  259,  260,  261,  262,  263,  264,  265,  266,  267,  268,
                                                       269,  270,  271,  272,  273,  274,  275,  276,  277,  278,  279,  280,
                                                       281,  282,  283,  284,  285,  286,  287,  288,  289,  290,  291,  292,
                                                       293,  294,  295,  296,  297,  298,  299,  300,  301,  302,  303,  304,
                                                       305,  306,  307,  308,  309,  310,  311,  312,  313,  314,  315,  316,
                                                       317,  318,  319,  320,  321,  322,  323,  324,  325,  326,  327,  328,
                                                       329,  330,  331,  332,  333,  334,  335,  336,  337,  338,  339,  340,
                                                       341,  342,  343,  344,  345,  346,  347,  348,  349,  350,  351,  352,
                                                       353,  354,  355,  356,  357,  358,  359,  360,  361,  362,  363,  364,
                                                       365,  366,  367,  368,  369,  370,  371,  372,  373,  374,  375,  376,
                                                       377,  378,  379,  380,  381,  382,  383,  384,  385,  386,  387,  388,
                                                       389,  390,  391,  392,  393,  394,  395,  396,  397,  398,  399,  400,
                                                       401,  402,  403,  404,  405,  406,  407,  408,  409,  410,  411,  412,
                                                       413,  414,  415,  416,  417,  418,  419,  420,  421,  422,  423,  424,
                                                       425,  426,  427,  428,  429,  430,  431,  432,  433,  434,  435,  436,
                                                       437,  438,  439,  440,  441,  442,  443,  444,  445,  446,  447,  448,
                                                       449,  450,  451,  452,  453,  454,  455,  456,  457,  458,  459,  460,
                                                       461,  462,  463,  464,  465,  466,  467,  468,  469,  470,  471,  472,
                                                       473,  474,  475,  476,  477,  478,  479,  480,  481,  482,  483,  484,
                                                       485,  486,  487,  488,  489,  490,  491,  492,  493,  494,  495,  496,
                                                       497,  498,  499,  500,  501,  502,  503,  504,  505,  506,  507,  508,
                                                       509,  510,  511,  512,  513,  514,  515,  516,  517,  518,  519,  520,
                                                       521,  522,  523,  524,  525,  526,  527,  528,  529,  530,  531,  532,
                                                       533,  534,  535,  536,  537,  538,  539,  540,  541,  542,  543,  544,
                                                       545,  546,  547,  548,  549,  550,  551,  552,  553,  554,  555,  556,
                                                       557,  558,  559,  560,  561,  562,  563,  564,  565,  566,  567,  568,
                                                       569,  570,  571,  572,  573,  574,  575,  576,  577,  578,  579,  580,
                                                       581,  582,  583,  584,  585,  586,  587,  588,  589,  590,  591,  592,
                                                       593,  594,  595,  596,  597,  598,  599,  600,  601,  602,  603,  604,
                                                       605,  606,  607,  608,  609,  610,  611,  612,  613,  614,  615,  616,
                                                       617,  618,  619,  620,  621,  622,  623,  624,  625,  626,  627,  628,
                                                       629,  630,  631,  632,  633,  634,  635,  636,  637,  638,  639,  640,
                                                       641,  642,  643,  644,  645,  646,  647,  648,  649,  650,  651,  652,
                                                       653,  654,  655,  656,  657,  658,  659,  660,  661,  662,  663,  664,
                                                       665,  666,  667,  668,  669,  670,  671,  672,  673,  674,  675,  676,
                                                       677,  678,  679,  680,  681,  682,  683,  684,  685,  686,  687,  688,
                                                       689,  690,  691,  692,  693,  694,  695,  696,  697,  698,  699,  700,
                                                       701,  702,  703,  704,  705,  706,  707,  708,  709,  710,  711,  712,
                                                       713,  714,  715,  716,  717,  718,  719,  720,  721,  722,  723,  724,
                                                       725,  726,  727,  728,  729,  730,  731,  732,  733,  734,  735,  736,
                                                       737,  738,  739,  740,  741,  742,  743,  744,  745,  746,  747,  748,
                                                       749,  750,  751,  752,  753,  754,  755,  756,  757,  758,  759,  760,
                                                       761,  762,  763,  764,  765,  766,  767,  768,  769,  770,  771,  772,
                                                       773,  774,  775,  776,  777,  778,  779,  780,  781,  782,  783,  784,
                                                       785,  786,  787,  788,  789,  790,  791,  792,  793,  794,  795,  796,
                                                       797,  798,  799,  800,  801,  802,  803,  804,  805,  806,  807,  808,
                                                       809,  810,  811,  812,  813,  814,  815,  816,  817,  818,  819,  820,
                                                       821,  822,  823,  824,  825,  826,  827,  828,  829,  830,  831,  832,
                                                       833,  834,  835,  836,  837,  838,  839,  840,  841,  842,  843,  844,
                                                       845,  846,  847,  848,  849,  850,  851,  852,  853,  854,  855,  856,
                                                       857,  858,  859,  860,  861,  862,  863,  864,  865,  866,  867,  868,
                                                       869,  870,  871,  872,  873,  874,  875,  876,  877,  878,  879,  880,
                                                       881,  882,  883,  884,  885,  886,  887,  888,  889,  890,  891,  892,
                                                       893,  894,  895,  896,  897,  898,  899,  900,  901,  902,  903,  904,
                                                       905,  906,  907,  908,  909,  910,  911,  912,  913,  914,  915,  916,
                                                       917,  918,  919,  920,  921,  922,  923,  924,  925,  926,  927,  928,
                                                       929,  930,  931,  932,  933,  934,  935,  936,  937,  938,  939,  940,
                                                       941,  942,  943,  944,  945,  946,  947,  948,  949,  950,  951,  952,
                                                       953,  954,  955,  956,  957,  958,  959,  960,  961,  962,  963,  964,
                                                       965,  966,  967,  968,  969,  970,  971,  972,  973,  974,  975,  976,
                                                       977,  978,  979,  980,  981,  982,  983,  984,  985,  986,  987,  988,
                                                       989,  990,  991,  992,  993,  994,  995,  996,  997,  998,  999, 1000,
                                                      1001, 1002, 1003, 1004, 1005, 1006, 1007, 1008, 1009, 1010, 1011, 1012,
                                                      1013, 1014, 1015, 1016, 1017, 1018, 1019, 1020, 1021, 1022, 1023, 1024,
                                                      1025, 1026, 1027, 1028, 1029, 1030, 1031, 1032, 1033, 1034, 1035, 1036,
                                                      1037, 1038, 1039, 1040, 1041, 1042, 1043, 1044, 1045, 1046, 1047, 1048,
                                                      1049, 1050, 1051, 1052, 1053, 1054, 1055, 1056, 1057, 1058, 1059, 1060,
                                                      1061, 1062, 1063, 1064, 1065, 1066, 1067, 1068, 1069, 1070, 1071, 1072,
                                                      1073, 1074, 1075, 1076, 1077, 1078, 1079, 1080, 1081, 1082, 1083, 1084,
                                                      1085, 1086, 1087, 1088, 1089, 1090, 1091, 1092, 1093, 1094, 1095, 1096,
                                                      1097, 1098, 1099, 1100, 1101, 1102, 1103, 1104, 1105, 1106, 1107, 1108,
                                                      1109, 1110, 1111, 1112, 1113, 1114, 1115, 1116, 1117, 1118, 1119, 1120,
                                                      1121, 1122, 1123, 1124, 1125, 1126, 1127, 1128, 1129, 1130, 1131, 1132,
                                                      1133, 1134, 1135, 1136, 1137, 1138, 1139, 1140, 1141, 1142, 1143, 1144,
                                                      1145, 1146, 1147, 1148, 1149, 1150, 1151, 1152, 1153, 1154, 1155, 1156,
                                                      1157, 1158, 1159, 1160, 1161, 1162, 1163, 1164, 1165, 1166, 1167, 1168,
                                                      1169, 1170, 1171, 1172, 1173, 1174, 1175, 1176, 1177, 1178, 1179, 1180,
                                                      1181, 1182, 1183, 1184, 1185, 1186, 1187, 1188, 1189, 1190, 1191, 1192,
                                                      1193, 1194, 1195, 1196, 1197, 1198, 1199, 1200, 1201, 1202, 1203, 1204,
                                                      1205, 1206, 1207, 1208, 1209, 1210, 1211, 1212, 1213, 1214, 1215, 1216,
                                                      1217, 1218, 1219, 1220, 1221, 1222, 1223, 1224, 1225, 1226, 1227, 1228,
                                                      1229, 1230, 1231, 1232, 1233, 1234, 1235, 1236, 1237, 1238, 1239, 1240,
                                                      1241, 1242, 1243, 1244, 1245, 1246, 1247, 1248, 1249, 1250, 1251, 1252,
                                                      1253, 1254, 1255, 1256, 1257, 1258, 1259, 1260, 1261, 1262, 1263, 1264,
                                                      1265, 1266, 1267, 1268, 1269, 1270, 1271, 1272, 1273, 1274, 1275, 1276,
                                                      1277, 1278, 1279, 1280, 1281, 1282, 1283, 1284, 1285, 1286, 1287, 1288,
                                                      1289, 1290, 1291, 1292, 1293, 1294, 1295, 1296, 1297, 1298, 1299, 1300,
                                                      1301, 1302, 1303, 1304, 1305, 1306, 1307, 1308, 1309, 1310, 1311, 1312,
                                                      1313, 1314, 1315, 1316, 1317, 1318, 1319, 1320, 1321, 1322, 1323, 1324,
                                                      1325, 1326, 1327, 1328, 1329, 1330, 1331, 1332, 1333, 1334, 1335, 1336,
                                                      1337, 1338, 1339, 1340, 1341, 1342, 1343, 1344, 1345, 1346, 1347, 1348,
                                                      1349, 1350, 1351, 1352, 1353, 1354, 1355, 1356, 1357, 1358, 1359, 1360,
                                                      1361, 1362, 1363, 1364, 1365, 1366, 1367, 1368, 1369, 1370, 1371, 1372,
                                                      1373, 1374, 1375, 1376, 1377, 1378, 1379, 1380, 1381, 1382, 1383, 1384,
                                                      1385, 1386, 1387, 1388, 1389, 1390, 1391, 1392, 1393, 1394, 1395, 1396,
                                                      1397, 1398, 1399, 1400, 1401, 1402, 1403, 1404, 1405, 1406, 1407, 1408,
                                                      1409, 1410, 1411, 1412, 1413, 1414, 1415, 1416, 1417, 1418, 1419, 1420,
                                                      1421, 1422, 1423, 1424, 1425, 1426, 1427, 1428, 1429, 1430, 1431, 1432,
                                                      1433, 1434, 1435, 1436, 1437, 1438, 1439, 1440, 1441, 1442, 1443, 1444,
                                                      1445, 1446, 1447, 1448, 1449, 1450, 1451, 1452, 1453, 1454, 1455, 1456,
                                                      1457, 1458, 1459, 1460, 1461, 1462, 1463, 1464, 1465, 1466, 1467, 1468,
                                                      1469, 1470, 1471, 1472, 1473, 1474, 1475, 1476, 1477, 1478, 1479, 1480,
                                                      1481, 1482, 1483, 1484, 1485, 1486, 1487, 1488, 1489, 1490, 1491, 1492,
                                                      1493, 1494, 1495, 1496, 1497, 1498, 1499, 1500, 1501, 1502, 1503, 1504,
                                                      1505, 1506, 1507, 1508, 1509, 1510, 1511, 1512, 1513, 1514, 1515, 1516,
                                                      1517, 1518, 1519, 1520, 1521, 1522, 1523, 1524, 1525, 1526, 1527, 1528,
                                                      1529, 1530, 1531, 1532, 1533, 1534, 1535, 1536, 1537, 1538, 1539, 1540,
                                                      1541, 1542, 1543, 1544, 1545, 1546, 1547, 1548, 1549, 1550, 1551, 1552,
                                                      1553, 1554, 1555, 1556, 1557, 1558, 1559, 1560, 1561, 1562, 1563, 1564,
                                                      1565, 1566, 1567, 1568, 1569, 1570, 1571, 1572, 1573, 1574, 1575, 1576,
                                                      1577, 1578, 1579, 1580, 1581, 1582, 1583, 1584, 1585, 1586, 1587, 1588,
                                                      1589, 1590, 1591, 1592, 1593, 1594, 1595, 1596, 1597, 1598, 1599, 1600,
                                                      1601, 1602, 1603, 1604, 1605, 1606, 1607, 1608, 1609, 1610, 1611, 1612,
                                                      1613, 1614, 1615, 1616, 1617, 1618, 1619, 1620, 1621, 1622, 1623, 1624,
                                                      1625, 1626, 1627, 1628, 1629, 1630, 1631, 1632, 1633, 1634, 1635, 1636,
                                                      1637, 1638, 1639, 1640, 1641, 1642, 1643, 1644, 1645, 1646, 1647, 1648,
                                                      1649, 1650, 1651, 1652, 1653, 1654, 1655, 1656, 1657, 1658, 1659, 1660,
                                                      1661, 1662, 1663, 1664, 1665, 1666, 1667, 1668, 1669, 1670, 1671, 1672,
                                                      1673, 1674, 1675, 1676, 1677, 1678, 1679, 1680, 1681, 1682, 1683, 1684,
                                                      1685, 1686, 1687, 1688, 1689, 1690, 1691, 1692, 1693, 1694, 1695, 1696,
                                                      1697, 1698, 1699, 1700, 1701, 1702, 1703, 1704, 1705, 1706, 1707, 1708,
                                                      1709, 1710, 1711, 1712, 1713, 1714, 1715, 1716, 1717, 1718, 1719, 1720,
                                                      1721, 1722, 1723, 1724, 1725, 1726, 1727, 1728, 1729, 1730, 1731, 1732,
                                                      1733, 1734, 1735, 1736, 1737, 1738, 1739, 1740, 1741, 1742, 1743, 1744,
                                                      1745, 1746, 1747, 1748, 1749, 1750, 1751, 1752, 1753, 1754, 1755, 1756,
                                                      1757, 1758, 1759, 1760, 1761, 1762, 1763, 1764, 1765, 1766, 1767, 1768,
                                                      1769, 1770, 1771, 1772, 1773, 1774, 1775, 1776, 1777, 1778, 1779, 1780,
                                                      1781, 1782, 1783, 1784, 1785, 1786, 1787, 1788, 1789, 1790, 1791, 1792,
                                                      1793, 1794, 1795, 1796, 1797, 1798, 1799, 1800, 1801, 1802, 1803, 1804,
                                                      1805, 1806, 1807, 1808, 1809, 1810, 1811, 1812, 1813, 1814, 1815, 1816,
                                                      1817, 1818, 1819, 1820, 1821, 1822, 1823, 1824, 1825, 1826, 1827, 1828,
                                                      1829, 1830, 1831, 1832, 1833, 1834, 1835, 1836, 1837, 1838, 1839, 1840,
                                                      1841, 1842, 1843, 1844, 1845, 1846, 1847, 1848, 1849, 1850, 1851, 1852,
                                                      1853, 1854, 1855, 1856, 1857, 1858, 1859, 1860, 1861, 1862, 1863, 1864,
                                                      1865, 1866, 1867, 1868, 1869, 1870, 1871, 1872, 1873, 1874, 1875, 1876,
                                                      1877, 1878, 1879, 1880, 1881, 1882, 1883, 1884, 1885, 1886, 1887, 1888,
                                                      1889, 1890, 1891, 1892, 1893, 1894, 1895, 1896, 1897, 1898, 1899, 1900,
                                                      1901, 1902, 1903, 1904, 1905, 1906, 1907, 1908, 1909, 1910, 1911, 1912,
                                                      1913, 1914, 1915, 1916, 1917, 1918, 1919, 1920, 1921, 1922, 1923, 1924,
                                                      1925, 1926, 1927, 1928, 1929, 1930, 1931, 1932, 1933, 1934, 1935, 1936,
                                                      1937, 1938, 1939, 1940, 1941, 1942, 1943, 1944, 1945, 1946, 1947, 1948,
                                                      1949, 1950, 1951, 1952, 1953, 1954, 1955, 1956, 1957, 1958, 1959, 1960,
                                                      1961, 1962, 1963, 1964, 1965, 1966, 1967, 1968, 1969, 1970, 1971, 1972,
                                                      1973, 1974, 1975, 1976, 1977, 1978, 1979, 1980, 1981, 1982, 1983, 1984,
                                                      1985, 1986, 1987, 1988, 1989, 1990, 1991, 1992, 1993, 1994, 1995, 1996,
                                                      1997, 1998, 1999, 2000, 2001, 2002, 2003, 2004, 2005, 2006, 2007, 2008,
                                                      2009, 2010, 2011, 2012, 2013, 2014, 2015, 2016, 2017, 2018, 2019, 2020,
                                                      2021, 2022, 2023, 2024, 2025, 2026, 2027, 2028, 2029, 2030, 2031, 2032,
                                                      2033, 2034, 2035, 2036, 2037, 2038, 2039, 2040, 2041, 2042, 2043, 2044,
                                                      2045, 2046, 2047, 2048, 2049, 2050, 2051, 2052, 2053, 2054, 2055, 2056,
                                                      2057, 2058, 2059, 2060, 2061, 2062, 2063, 2064, 2065, 2066, 2067, 2068,
                                                      2069, 2070, 2071, 2072, 2073, 2074, 2075, 2076, 2077, 2078, 2079, 2080,
                                                      2081, 2082, 2083, 2084, 2085, 2086, 2087, 2088, 2089, 2090, 2091, 2092,
                                                      2093, 2094, 2095, 2096, 2097, 2098, 2099, 2100, 2101, 2102, 2103, 2104,
                                                      2105, 2106, 2107, 2108, 2109, 2110, 2111, 2112, 2113, 2114, 2115, 2116,
                                                      2117, 2118, 2119, 2120, 2121, 2122, 2123, 2124, 2125, 2126, 2127, 2128,
                                                      2129, 2130, 2131, 2132, 2133, 2134, 2135, 2136, 2137, 2138, 2139, 2140,
                                                      2141, 2142, 2143, 2144, 2145, 2146, 2147, 2148, 2149, 2150, 2151, 2152,
                                                      2153, 2154, 2155, 2156, 2157, 2158, 2159, 2160, 2161, 2162, 2163, 2164,
                                                      2165, 2166, 2167, 2168, 2169, 2170, 2171, 2172, 2173, 2174, 2175, 2176,
                                                      2177, 2178, 2179, 2180, 2181, 2182, 2183, 2184, 2185, 2186, 2187, 2188,
                                                      2189, 2190, 2191, 2192, 2193, 2194, 2195, 2196, 2197, 2198, 2199, 2200,
                                                      2201, 2202, 2203, 2204, 2205, 2206, 2207, 2208, 2209, 2210, 2211, 2212,
                                                      2213, 2214, 2215, 2216, 2217, 2218, 2219, 2220, 2221, 2222, 2223, 2224,
                                                      2225, 2226, 2227, 2228, 2229, 2230, 2231, 2232, 2233, 2234, 2235, 2236,
                                                      2237, 2238, 2239, 2240, 2241, 2242, 2243, 2244, 2245, 2246, 2247, 2248,
                                                      2249, 2250, 2251, 2252, 2253, 2254, 2255, 2256, 2257, 2258, 2259, 2260,
                                                      2261, 2262, 2263, 2264, 2265, 2266, 2267, 2268, 2269, 2270, 2271, 2272,
                                                      2273, 2274, 2275, 2276, 2277, 2278, 2279, 2280, 2281, 2282, 2283, 2284,
                                                      2285, 2286, 2287, 2288, 2289, 2290, 2291, 2292, 2293, 2294, 2295, 2296,
                                                      2297, 2298, 2299, 2300, 2301, 2302, 2303, 2304, 2305, 2306, 2307, 2308,
                                                      2309, 2310, 2311, 2312, 2313, 2314, 2315.
       10061    mcs_1                    cobol_pdst:   825,  858.
       10100    mcs_2                    cobol_pdst:   861.
       10073    mcs_3                    cobol_pdst:   826,  860.
        7501    merge                    cobol_pdst:    44,  810.
        7551    merge_1                  cobol_pdst:   818,  823,  824.
       10016    merge_2                  cobol_pdst:   837,  851.
        7671    merge_3                  cobol_pdst:   834,  839,  840.
        7570    merge_4                  cobol_pdst:   821.
        7760    merge_5                  cobol_pdst:   845,  856,  857.
       10047    merge_6                  cobol_pdst:   844,  856.
        7734    merge_7                  cobol_pdst:   836,  841.
        7532    merge_8                  cobol_pdst:   815,  822.
       25337    more_rpar                cobol_pdst:  2224, 2228.
       10410    mov1                     cobol_pdst:   899,  901.
       10415    mov10                    cobol_pdst:   898,  900,  902,  921,  922,  926,  927.
       10427    mov11                    cobol_pdst:   889,  904.
       10453    mov13                    cobol_pdst:   890,  908.
       10465    mov14                    cobol_pdst:   891,  910.
       10566    mov18                    cobol_pdst:   918,  919,  923.
       10201    mov2                     cobol_pdst:   868,  874.
       10136    mov3                     cobol_pdst:   867.
       10131    mov4                     cobol_pdst:   866,  876.
       10225    mov6                     cobol_pdst:   864,  865,  866,  867,  869,  870,  875,  878.
       10275    mov7                     cobol_pdst:   880,  886,  894.
       10340    mov8                     cobol_pdst:   881,  882,  893,  895,  896,  902,  903.
       10371    mov9                     cobol_pdst:   888,  898,  906,  907,  908,  911,  914,  917,  920.
       10112    move                     cobol_pdst:    47,  863.
       10732    mul1                     cobol_pdst:   943,  958.
       10667    mul3                     cobol_pdst:   933,  936.
       10713    mul4                     cobol_pdst:   940,  950.
       11002    mul5                     cobol_pdst:   934,  951.
       11014    mul6                     cobol_pdst:   937,  953.
       10756    mul7                     cobol_pdst:   943,  947.
       11026    mul8                     cobol_pdst:   953,  955,  959.
       10775    mul9                     cobol_pdst:   942,  950.
       10617    multiply                 cobol_pdst:    39,  928.
        7633    muse                     cobol_pdst:   828,  861.
       23103    nae                      cobol_pdst:  1165, 1245, 1988.
       24264    nd                       cobol_pdst:  1204, 1220, 2113.
       24074    neop                     cobol_pdst:  1737, 2089.
       23273    nik                      cobol_pdst:  1150, 1276, 1283, 1524, 1745, 1857, 2012.
        2133    nodeclp                  cobol_pdst:   115,  252,  264,  265,  266.
       22232    nonumid                  cobol_pdst:   438,  441,  538, 1668, 1903.
       23677    nos                      cobol_pdst:   372,  385,  518,  577,  943, 1624, 1637, 2064.
       25111    notal                    cobol_pdst:  2187, 2194.
       25123    notnum                   cobol_pdst:  2188, 2196.
       24721    not_cond                 cobol_pdst:  2160, 2170.
       24752    not_cond1                cobol_pdst:  2170, 2175.
       23470    nov                      cobol_pdst:   429, 1587, 1684, 2037.
        6647    ns                       cobol_pdst:   712,  719,  725,  728, 1309, 1342.
        6072    objt                     cobol_pdst:   649,  653,  655.
       25205    obj_op                   cobol_pdst:  2182, 2185, 2199, 2202, 2203, 2204, 2206.
       25231    obj_op3                  cobol_pdst:  2206, 2210.
       11057    open                     cobol_pdst:    48,  960.
       11610    open_ri1                 cobol_pdst:   966,  967,  986,  987, 1025, 1026, 1029, 1042, 1043, 1049, 1050.
       11653    open_ri2                 cobol_pdst:  1032, 1033, 1034, 1036.
       11735    open_ri3                 cobol_pdst:  1036, 1046.
       11141    open_ss1                 cobol_pdst:   965,  969,  970,  985,  989, 1024, 1028, 1041, 1045, 1048, 1052.
       11545    open_ss2                 cobol_pdst:   980, 1022.
       11223    open_ss3                 cobol_pdst:   980,  992,  999, 1003.
       11413    open_sse                 cobol_pdst:   976, 1004.
       11204    open_ssi                 cobol_pdst:   973,  977.
       11305    open_ssi1                cobol_pdst:   977,  990.
       11350    open_ssio                cobol_pdst:   975,  997, 1006, 1010, 1017.
       11211    open_sso                 cobol_pdst:   974,  978.
       11456    open_sso1                cobol_pdst:   978, 1011.
       11470    open_sso2                cobol_pdst:   979, 1013.
       23634    os                       cobol_pdst:  2057, 2065, 2067, 2073, 2078, 2082.
       23665    os1                      cobol_pdst:  2058, 2062.
       23730    osi                      cobol_pdst:   376,  522,  581,  947, 1628, 2069.
       23766    osi1                     cobol_pdst:  2075, 2082.
       24031    osi2                     cobol_pdst:  2070, 2082.
       23437    ov                       cobol_pdst:  2032, 2038, 2040, 2046, 2051, 2055.
       23521    ovi                      cobol_pdst:   430, 1591, 1688, 2042.
       23557    ovi1                     cobol_pdst:  2048, 2055.
       23622    ovi2                     cobol_pdst:  2043, 2055.
        2304    palp                     cobol_pdst:   269,  270,  273,  303,  304,  305,  306.
        2417    palp_1                   cobol_pdst:   273,  288.
        2671    palp_10                  cobol_pdst:   279,  322.
        2703    palp_11                  cobol_pdst:   277,  282,  324.
        2450    palp_15                  cobol_pdst:   290,  293.
        2431    palp_2                   cobol_pdst:   274,  290.
        2342    palp_3                   cobol_pdst:   244,  275,  279,  283,  318,  322, 2126, 2137.
        2323    palp_3a                  cobol_pdst:   276,  319,  323.
        2455    palp_5                   cobol_pdst:   288,  289,  294.
        2532    palp_6                   cobol_pdst:   295,  296,  300,  302,  303,  320,  321.
        2563    palp_8                   cobol_pdst:   301,  308,  311.
        2657    palp_9                   cobol_pdst:   292,  293,  320.
         651    pd_1                     cobol_pdst:   104,  105,  114, 2118.
         714    pd_2                     cobol_pdst:   121,  231.
         757    pd_3                     cobol_pdst:   124,  128.
         776    pd_5                     cobol_pdst:   131,  136,  137.
        1027    pd_6                     cobol_pdst:   130,  136.
       12264    per11                    cobol_pdst:  1081, 1089.
       12163    per12                    cobol_pdst:  1066, 1076.
       12202    per14                    cobol_pdst:  1067, 1079.
       12377    per15                    cobol_pdst:  1086, 1087, 1104.
       12430    per17                    cobol_pdst:  1096, 1097, 1109.
       12466    per2                     cobol_pdst:  1077, 1115.
       12346    per3                     cobol_pdst:  1080, 1099.
       12036    per4                     cobol_pdst:  1056, 1059.
       12132    per5                     cobol_pdst:  1068, 1071, 1113, 1115.
       12074    per6                     cobol_pdst:  1055, 1058, 1065.
       12207    per8                     cobol_pdst:  1080, 1114.
       12276    per9                     cobol_pdst:  1091, 1103.
       12000    perform                  cobol_pdst:    49, 1053.
       25375    pos_rel                  cobol_pdst:  2162, 2185, 2230.
       25421    pos_rel1                 cobol_pdst:  2230, 2231, 2234.
       25433    pos_rel2                 cobol_pdst:  2232, 2236.
       12524    pro1                     cobol_pdst:  1121, 1123.
       12536    pro2                     cobol_pdst:  1120, 1123.
       12550    pro3                     cobol_pdst:  1121, 1125.
        1762    proc                     cobol_pdst:   133,  134,  135,  231,  281, 2136.
        2032    proc1                    cobol_pdst:   234,  239.
        2037    proc2                    cobol_pdst:   240,  271,  276,  284.
        2075    proc3                    cobol_pdst:   237,  238,  246.
        2107    proc4                    cobol_pdst:   248,  250,  251.
        2121    proc5                    cobol_pdst:   247,  250.
       12473    process                  cobol_pdst:    77, 1116.
       12620    pur1                     cobol_pdst:  1133.
       12574    purge                    cobol_pdst:    87, 1129.
        6116    range                    cobol_pdst:   657,  659.
       12764    rd1                      cobol_pdst:  1153, 1166.
       12733    rd11                     cobol_pdst:  1148, 1163.
       13205    rd12                     cobol_pdst:  1148, 1182.
       13111    rd13                     cobol_pdst:  1170, 1189.
       12740    rd15                     cobol_pdst:  1149, 1171.
       13060    rd16                     cobol_pdst:  1149, 1165.
       13010    rd17                     cobol_pdst:  1157, 1168, 1169.
       13003    rd2                      cobol_pdst:  1150, 1156.
       13130    rd5                      cobol_pdst:  1145, 1173.
       12721    rd6                      cobol_pdst:  1146, 1180.
       13022    rd8                      cobol_pdst:  1147, 1159.
       12625    read                     cobol_pdst:    50, 1134.
       13332    rec1                     cobol_pdst:  1195, 1199.
       13452    rec2                     cobol_pdst:  1212, 1215, 1221, 1222, 1223.
       13464    rec3                     cobol_pdst:  1203, 1217.
       13407    rec4                     cobol_pdst:  1204, 1208.
       13262    receive                  cobol_pdst:    52, 1191.
       25212    rel                      cobol_pdst:  2173, 2176, 2207.
       13527    release                  cobol_pdst:    53, 1224.
       25452    relop                    cobol_pdst:  2159, 2171, 2177, 2182, 2199, 2204, 2207, 2239.
       17656    rep_nam                  cobol_pdst:   673,  734,  736, 1651.
       13673    ret1                     cobol_pdst:  1244, 1259.
       13774    ret2                     cobol_pdst:  1243, 1257.
       13731    ret3                     cobol_pdst:  1244, 1250.
       13717    ret4                     cobol_pdst:  1248, 1255, 1256.
       13623    return                   cobol_pdst:    54, 1236.
       14215    rew3                     cobol_pdst:  1273, 1286.
       14121    rew5                     cobol_pdst:  1274, 1288.
       14176    rew7                     cobol_pdst:  1275, 1283.
       14157    rew8                     cobol_pdst:  1276, 1280, 1283.
       14145    rew9                     cobol_pdst:  1278, 1284.
       14020    rewrite                  cobol_pdst:    56, 1261.
       24536    rfiv                     cobol_pdst:   255, 2147, 2148.
        6147    rg1                      cobol_pdst:   660,  664.
       22174    rid                      cobol_pdst:   328,  880,  894, 1161, 1201, 1257, 1581, 1596, 1674, 1680, 1694, 1701,
                                                      1707, 1712, 1790, 1829, 1897.
       24310    rone                     cobol_pdst:   100,  102,  108,  110, 2117.
       24315    ronea                    cobol_pdst:  2118, 2119, 2120, 2121, 2122, 2123.
       24322    rone_1                   cobol_pdst:  2117, 2119, 2124.
       25325    rpar                     cobol_pdst:  2217, 2222.
        6173    rt                       cobol_pdst:   660,  662,  666,  668.
       24442    rthr                     cobol_pdst:   120,  122,  126,  139,  151,  158,  166,  168,  172,  175,  191,  195,
                                                       204,  211,  217,  228, 2135.
       24447    rthrb                    cobol_pdst:  2136, 2139, 2140, 2141, 2142.
       24454    rthrc                    cobol_pdst:  2137, 2144.
       24461    rthre                    cobol_pdst:  2138, 2143.
       24466    rthr_1                   cobol_pdst:  2135, 2139, 2145, 2146.
       24360    rtwo                     cobol_pdst:   206,  235,  249,  259,  272,  286,  287,  299,  307,  310,  313,  317,
                                                       332,  333,  342,  349,  352,  357,  361,  364,  381,  390,  392,  396,
                                                       398,  400,  409,  413,  416,  418,  423,  439,  445,  447,  451,  461,
                                                       465,  477,  479,  481,  488,  492,  496,  500,  501,  504,  505,  509,
                                                       515,  517,  529,  532,  534,  537,  539,  548,  549,  558,  560,  564,
                                                       567,  570,  591,  593,  595,  598,  608,  613,  622,  626,  630,  632,
                                                       634,  650,  654,  663,  667,  674,  687,  690,  693,  696,  699,  704,
                                                       710,  715,  722,  727,  731,  735,  740,  743,  745,  747,  751,  753,
                                                       759,  767,  774,  776,  778,  780,  782,  788,  790,  792,  794,  800,
                                                       813,  817,  820,  829,  831,  838,  842,  846,  850,  852,  862,  872,
                                                       873,  877,  879,  884,  885,  892,  905,  909,  912,  915,  930,  932,
                                                       935,  952,  954,  962,  964,  968,  972,  984,  988,  991,  993,  994,
                                                       995,  996,  998, 1000, 1001, 1002, 1005, 1007, 1008, 1009, 1012, 1014,
                                                      1016, 1018, 1019, 1020, 1021, 1023, 1027, 1031, 1035, 1040, 1044, 1047,
                                                      1051, 1060, 1062, 1064, 1070, 1075, 1078, 1083, 1085, 1088, 1090, 1093,
                                                      1095, 1098, 1101, 1105, 1108, 1110, 1112, 1119, 1124, 1127, 1132, 1136,
                                                      1139, 1143, 1152, 1160, 1162, 1164, 1167, 1172, 1174, 1175, 1178, 1179,
                                                      1181, 1183, 1184, 1185, 1187, 1188, 1190, 1194, 1197, 1200, 1202, 1227,
                                                      1229, 1233, 1235, 1239, 1241, 1246, 1251, 1254, 1258, 1260, 1263, 1265,
                                                      1269, 1270, 1272, 1285, 1287, 1289, 1294, 1300, 1306, 1308, 1315, 1317,
                                                      1319, 1326, 1329, 1332, 1334, 1339, 1345, 1355, 1358, 1361, 1363, 1373,
                                                      1381, 1386, 1388, 1396, 1402, 1414, 1419, 1421, 1423, 1425, 1430, 1433,
                                                      1435, 1437, 1442, 1447, 1450, 1460, 1463, 1466, 1469, 1471, 1473, 1478,
                                                      1482, 1487, 1490, 1492, 1496, 1500, 1502, 1504, 1512, 1515, 1516, 1519,
                                                      1520, 1522, 1526, 1536, 1539, 1541, 1546, 1548, 1553, 1560, 1562, 1567,
                                                      1573, 1575, 1580, 1582, 1584, 1595, 1597, 1599, 1602, 1605, 1610, 1612,
                                                      1614, 1619, 1643, 1660, 1662, 1665, 1670, 1673, 1675, 1677, 1692, 1695,
                                                      1697, 1699, 1702, 1704, 1706, 1708, 1710, 1713, 1715, 1720, 1722, 1726,
                                                      1735, 1742, 1744, 1747, 1754, 1756, 1757, 1758, 1770, 1778, 1780, 1781,
                                                      1782, 1783, 1785, 1787, 1791, 1794, 1798, 1805, 1807, 1809, 1816, 1818,
                                                      1820, 1822, 1824, 1828, 1832, 1836, 1838, 1842, 1846, 1847, 1850, 1851,
                                                      1853, 1859, 1875, 1878, 1882, 1885, 1887, 1889, 1894, 1896, 1919, 1933,
                                                      1963, 1968, 1979, 1980, 1987, 1992, 1998, 2003, 2016, 2022, 2027, 2036,
                                                      2041, 2047, 2052, 2061, 2063, 2068, 2074, 2079, 2088, 2093, 2099, 2103,
                                                      2112, 2116, 2125, 2166, 2169, 2179, 2190, 2209, 2211, 2219, 2223, 2229,
                                                      2257, 2266, 2271.
       24365    rtwob                    cobol_pdst:  2126, 2127, 2128, 2129, 2130, 2133.
       24372    rtwo_1                   cobol_pdst:    32,   35,   42,   58,   61,   68,   81,   82,   83,   84,   88,   89,
                                                        90,   91,   92,   93,   94,   95,   96,   97,   98, 2125, 2127, 2132, 2134.
           1    r_accept                 cobol_pdst:   327, 2884.
           2    r_add                    cobol_pdst:   353, 2885.
         107    r_advancing              cobol_pdst:  1382, 1760, 2886.
         110    r_after                  cobol_pdst:   140,  755,  784,  796, 1114, 1377, 1731, 2887.
         111    r_all                    cobol_pdst:   216,  222,  702,  748,  761,  770,  802,  868, 1293, 1667, 1795, 1801,
                                                      1914, 1928, 2245, 2252, 2888.
         112    r_alphabetic             cobol_pdst:  2188, 2889.
         113    r_alphanumeric           cobol_pdst:  2313, 2890.
         114    r_alphanumeric_edited    cobol_pdst:  2314, 2891.
         140    r_also                   cobol_pdst:   627,  651, 2892.
           4    r_alter                  cobol_pdst:   388, 2893.
         115    r_and                    cobol_pdst:  1341, 2215, 2225, 2894.
         720    r_any                    cobol_pdst:   655, 2895.
         116    r_ascending              cobol_pdst:   815,  823, 1445, 1453, 2896.
         117    r_at                     cobol_pdst:  1351, 1983, 2084, 2897.
         120    r_before                 cobol_pdst:   141,  754,  783,  795, 1376, 1730, 2898.
         121    r_beginning              cobol_pdst:   197, 2899.
         122    r_by                     cobol_pdst:   566,  777,  789,  931, 1094, 1104, 1429, 1568, 1666, 1814, 1821, 2900.
           5    r_call                   cobol_pdst:   405, 2901.
           7    r_cancel                 cobol_pdst:   436, 2902.
         123    r_character              cobol_pdst:  2302, 2903.
         123    r_characters             cobol_pdst:   750,  763,  773, 1830, 2904.
          10    r_close                  cobol_pdst:   443, 2905.
         277    r_cobol                  cobol_pdst:   605, 2906.
        1003    r_collating              cobol_pdst:   825, 1455, 2907.
          50    r_compute                cobol_pdst:   506, 2908.
        1012    r_copy                   cobol_pdst:  2282, 2909.
        1014    r_corr                   cobol_pdst:  2283, 2910.
        1014    r_corresponding          cobol_pdst:  2284, 2911.
         124    r_count                  cobol_pdst:   348, 1679, 2912.
         304    r_data                   cobol_pdst:  2109, 2111, 2115, 2913.
         126    r_date                   cobol_pdst:   338, 2914.
         127    r_day                    cobol_pdst:   340, 2915.
         506    r_day_of_week            cobol_pdst:   341, 2916.
         130    r_debugging              cobol_pdst:   150, 2917.
         131    r_declaratives           cobol_pdst:   114, 2123, 2918.
          26    r_delete                 cobol_pdst:  1844, 2919.
         132    r_delimited              cobol_pdst:  1564, 1663, 2920.
         133    r_delimiter              cobol_pdst:  1678, 2921.
         134    r_depending              cobol_pdst:   312,  688, 2922.
         135    r_descending             cobol_pdst:   816,  824, 1446, 1454, 2923.
          51    r_disable                cobol_pdst:   525, 2924.
          52    r_display                cobol_pdst:   542, 2925.
         271    r_div                    cobol_pdst:  2307, 2881.
          11    r_divide                 cobol_pdst:   562, 2926.
         136    r_division               cobol_pdst:   101, 2927.
         137    r_down                   cobol_pdst:  1406, 2928.
         351    r_egi                    cobol_pdst:  1371, 2929.
         140    r_else                   cobol_pdst:   716,  723, 2930.
         141    r_emi                    cobol_pdst:  1370, 2931.
          53    r_enable                 cobol_pdst:   602, 2932.
         142    r_end                    cobol_pdst:  1352, 1354, 1984, 1986, 2933.
         143    r_ending                 cobol_pdst:   198, 2954.
         722    r_end_add                cobol_pdst:   374,  377, 2934.
         723    r_end_call               cobol_pdst:   431,  434, 2935.
         724    r_end_compute            cobol_pdst:   520,  523, 2936.
         725    r_end_delete             cobol_pdst:  1860, 1863, 2937.
         726    r_end_divide             cobol_pdst:   579,  582, 2938.
         727    r_end_evaluate           cobol_pdst:   641, 2939.
         730    r_end_if                 cobol_pdst:   717, 2940.
         731    r_end_multiply           cobol_pdst:   945,  948, 2941.
         144    r_end_of_page            cobol_pdst:  2279, 2942.
         732    r_end_perform            cobol_pdst:  1074, 2943.
         733    r_end_read               cobol_pdst:  1154, 1157, 2944.
         734    r_end_receive            cobol_pdst:  1206, 1215, 2945.
         735    r_end_return             cobol_pdst:  1248, 2946.
         736    r_end_rewrite            cobol_pdst:  1278, 1281, 2947.
         737    r_end_search             cobol_pdst:  1346, 2948.
         740    r_end_start              cobol_pdst:  1527, 1530, 2949.
         741    r_end_string             cobol_pdst:  1589, 1592, 2950.
         742    r_end_subtract           cobol_pdst:  1626, 1629, 2951.
         743    r_end_unstring           cobol_pdst:  1686, 1689, 2952.
         744    r_end_write              cobol_pdst:  1748, 1751, 2953.
          54    r_enter                  cobol_pdst:   604, 2955.
         144    r_eop                    cobol_pdst:  2085, 2087, 2956.
         146    r_eq                     cobol_pdst:   514, 1331, 1333, 1533, 2311, 2873.
         146    r_equal                  cobol_pdst:  2280, 2957.
         146    r_equals                 cobol_pdst:  2230, 2958.
           3    r_error                  cobol_pdst:   154, 2062, 2959.
         151    r_esi                    cobol_pdst:  1369, 2960.
         764    r_evaluate               cobol_pdst:   624, 2961.
          62    r_examine                cobol_pdst:  1788, 2962.
         161    r_exceeds                cobol_pdst:  2231, 2963.
         153    r_exception              cobol_pdst:   155, 2964.
          14    r_exit                   cobol_pdst:   274,  617, 2965.
         272    r_exp                    cobol_pdst:  2308, 2877.
         330    r_extend                 cobol_pdst:   165, 2966.
         154    r_file                   cobol_pdst:   200, 2967.
         155    r_first                  cobol_pdst:   772,  804, 1804, 1808, 1819, 2968.
         156    r_for                    cobol_pdst:   142,  469,  746, 2167, 2969.
         157    r_from                   cobol_pdst:   335,  513, 1084, 1089, 1100, 1120, 1230, 1273, 1359, 1603, 1728, 1784,
                                                      1831, 2970.
          55    r_generate               cobol_pdst:   672, 2971.
         160    r_giving                 cobol_pdst:   365,  571,  592,  837,  937,  951, 1489, 1611, 1615, 2972.
          16    r_go                     cobol_pdst:   273,  677,  678, 2973.
         161    r_greater                cobol_pdst:  2281, 2974.
         161    r_gt                     cobol_pdst:  1534, 2310, 2883.
         335    r_high_value             cobol_pdst:  2287, 2975.
         335    r_high_values            cobol_pdst:  2288, 2976.
          56    r_hold                   cobol_pdst:   700, 2977.
          57    r_if                     cobol_pdst:   707, 2979.
         145    r_in                     cobol_pdst:  1693, 1700, 1711, 2277, 2980.
         162    r_initial                cobol_pdst:   757,  786,  798, 2981.
          15    r_initialize             cobol_pdst:  2312, 2982.
          20    r_initiate               cobol_pdst:   732, 2983.
         163    r_input                  cobol_pdst:   162,  527, 1458, 2984.
          21    r_inspect                cobol_pdst:   738, 2985.
         164    r_into                   cobol_pdst:   565, 1147, 1199, 1243, 1579, 1664, 1672, 2986.
         165    r_invalid                cobol_pdst:  2008, 2987.
         166    r_is                     cobol_pdst:   843,  860, 1170, 1330, 1464, 1475, 1493, 1532, 2161, 2184, 2988.
         167    r_i_o                    cobol_pdst:   164, 2978.
         170    r_key                    cobol_pdst:   536,  818, 1148, 1448, 1523, 2010, 2989.
         171    r_label                  cobol_pdst:   203, 2990.
         172    r_leading                cobol_pdst:   749,  762,  771,  803, 1796, 1802, 2991.
         173    r_less                   cobol_pdst:  1540, 2992.
        1064    r_linage_counter         cobol_pdst:  2298, 2993.
         174    r_line                   cobol_pdst:  2303, 2994.
         174    r_lines                  cobol_pdst:  1389, 1775, 2995.
         175    r_lock                   cobol_pdst:   457,  483,  485,  487, 2996.
         345    r_low_value              cobol_pdst:  2289, 2997.
         345    r_low_values             cobol_pdst:  2290, 2998.
         173    r_ls                     cobol_pdst:  2309, 2882.
         273    r_lt                     cobol_pdst:  1327, 1874, 2152, 2158, 2170, 2264, 2874.
          17    r_merge                  cobol_pdst:   810, 2999.
         176    r_message                cobol_pdst:   347, 1195, 2163, 3000.
          22    r_move                   cobol_pdst:   863, 3001.
          12    r_multiply               cobol_pdst:   928, 3002.
         177    r_negative               cobol_pdst:  2299, 3003.
         200    r_next                   cobol_pdst:   728, 1145, 3004.
         201    r_no                     cobol_pdst:   456,  470,  478,  482,  979, 1011, 2113, 3005.
         202    r_not                    cobol_pdst:   659, 1244, 1535, 1988, 1995, 2000, 2012, 2019, 2024, 2037, 2044, 2049,
                                                      2064, 2071, 2076, 2089, 2096, 2101, 2160, 2173, 2176, 2183, 2198, 3006.
         203    r_numeric                cobol_pdst:  2187, 3007.
         204    r_numeric_edited         cobol_pdst:  2315, 3008.
         205    r_of                     cobol_pdst:   226, 2278, 3009.
        1076    r_off                    cobol_pdst:  2285, 3010.
         206    r_on                     cobol_pdst:   159,  209,  314,  697,  814,  822, 1444, 1452, 2032, 2057, 3011.
          23    r_open                   cobol_pdst:   960, 3012.
         207    r_or                     cobol_pdst:  1671, 2216, 3013.
         673    r_other                  cobol_pdst:   638, 3014.
         211    r_output                 cobol_pdst:   163,  528,  836, 1488, 3015.
           6    r_overflow               cobol_pdst:  2033, 2035, 3016.
         213    r_page                   cobol_pdst:  1385, 1769, 3017.
         275    r_per                    cobol_pdst:  2122, 2130, 2145, 2880.
          24    r_perform                cobol_pdst:  1053, 3018.
         266    r_pls                    cobol_pdst:  1890, 2259, 2304, 2878.
         214    r_pointer                cobol_pdst:  1586, 1594, 1682, 1705, 3019.
         215    r_positive               cobol_pdst:  2300, 3020.
        1057    r_printing               cobol_pdst:  1866, 3021.
         216    r_procedure              cobol_pdst:    99,  157,  841, 1468, 1491, 3022.
         217    r_procedures             cobol_pdst:   224, 3023.
         220    r_proceed                cobol_pdst:   393, 3024.
          60    r_process                cobol_pdst:  1116, 3025.
         221    r_processing             cobol_pdst:   152, 3026.
         222    r_program                cobol_pdst:   290,  618, 3027.
          72    r_purge                  cobol_pdst:  1129, 3028.
         353    r_quote                  cobol_pdst:  2294, 3029.
         353    r_quotes                 cobol_pdst:  2295, 3030.
         223    r_random                 cobol_pdst:   149, 3031.
          25    r_read                   cobol_pdst:  1134, 3032.
          27    r_receive                cobol_pdst:  1191, 3033.
         224    r_record                 cobol_pdst:  1146, 1242, 1854, 3034.
         303    r_records                cobol_pdst:  2276, 3035.
         225    r_reel                   cobol_pdst:   199,  453, 3036.
         226    r_references             cobol_pdst:   225, 3037.
          30    r_release                cobol_pdst:  1224, 3038.
         227    r_remainder              cobol_pdst:   586, 3039.
         404    r_removal                cobol_pdst:   471,  476, 3040.
         651    r_replace                cobol_pdst:  2286, 3041.
         230    r_replacing              cobol_pdst:   742,  764, 1793, 1810, 3042.
         231    r_reporting              cobol_pdst:   147, 3043.
          31    r_return                 cobol_pdst:  1236, 3044.
         232    r_reversed               cobol_pdst:   977, 3045.
         233    r_rewind                 cobol_pdst:   480, 1013, 3046.
          33    r_rewrite                cobol_pdst:  1261, 3047.
         234    r_rounded                cobol_pdst:   368,  382,  510,  574,  585,  600,  940,  955, 1620, 1634, 3048.
         274    r_rt                     cobol_pdst:  1340, 1877, 2217, 2224, 2269, 2875.
         235    r_run                    cobol_pdst:  1550, 3049.
          32    r_search                 cobol_pdst:  1290, 3050.
         236    r_section                cobol_pdst:   121,  254, 2147, 3051.
         237    r_segment                cobol_pdst:  1196, 3052.
          36    r_send                   cobol_pdst:  1356, 3053.
         240    r_sentence               cobol_pdst:   730, 3054.
        1113    r_sequence               cobol_pdst:   826,  858, 1456, 1462, 3055.
          37    r_set                    cobol_pdst:  1391, 3056.
         241    r_size                   cobol_pdst:  1570, 2058, 2060, 3057.
          61    r_sort                   cobol_pdst:  1438, 3058.
         300    r_space                  cobol_pdst:  2296, 3059.
         300    r_spaces                 cobol_pdst:  2297, 3060.
         242    r_standard               cobol_pdst:   144,  146, 3061.
          70    r_start                  cobol_pdst:  1510, 3062.
          41    r_stop                   cobol_pdst:  1549, 3063.
          42    r_string                 cobol_pdst:  1555, 3064.
         267    r_sub                    cobol_pdst:  1891, 2260, 2305, 2879.
          13    r_subtract               cobol_pdst:  1600, 3065.
          43    r_suspend                cobol_pdst:  1640, 3066.
         243    r_tallying               cobol_pdst:   741, 1683, 1792, 3067.
         244    r_terminal               cobol_pdst:   530, 3068.
          44    r_terminate              cobol_pdst:  1649, 3069.
         245    r_than                   cobol_pdst:  1542, 2242, 3070.
         454    r_then                   cobol_pdst:   711, 3071.
         246    r_through                cobol_pdst:  2301, 3072.
         246    r_thru                   cobol_pdst:   664,  847, 1056, 1479, 1497, 3073.
         270    r_tim                    cobol_pdst:  2306, 2876.
         250    r_time                   cobol_pdst:   339, 3074.
         250    r_times                  cobol_pdst:  1069, 3075.
         252    r_to                     cobol_pdst:   288,  358,  391,  395,  679,  685,  878, 1335, 1399, 1404, 1413, 1537,
                                                      1837, 2180, 2202, 2237, 2241, 3076.
          63    r_transform              cobol_pdst:  1825, 3077.
         253    r_unequal                cobol_pdst:  2178, 2200, 2232, 3078.
         254    r_unit                   cobol_pdst:   201,  454, 3079.
          45    r_unstring               cobol_pdst:  1657, 3080.
         255    r_until                  cobol_pdst:  1066, 1109, 1797, 1803, 3081.
         256    r_up                     cobol_pdst:  1405, 3082.
         257    r_upon                   cobol_pdst:   550, 3083.
          47    r_use                    cobol_pdst:   138, 1971, 2143, 3084.
         260    r_using                  cobol_pdst:   103,  419,  828, 1121, 1459, 3085.
         261    r_varying                cobol_pdst:  1067, 1296, 3086.
         262    r_when                   cobol_pdst:   631,  636, 1305, 1312, 1321, 1325, 3087.
         263    r_with                   cobol_pdst:   455,  468,  484,  535,  978, 1360, 1364, 1368, 1585, 1681, 2108, 3088.
          46    r_write                  cobol_pdst:  1717, 3089.
         264    r_zero                   cobol_pdst:  2291, 3090.
         264    r_zeroes                 cobol_pdst:  2293, 3091.
         264    r_zeros                  cobol_pdst:  2292, 3092.
       14722    sae                      cobol_pdst:  1301, 1322, 1351.
       14431    sea10                    cobol_pdst:  1299, 1314.
       14443    sea12                    cobol_pdst:  1293, 1316.
       14520    sea13                    cobol_pdst:  1321, 1325.
       14532    sea14                    cobol_pdst:  1327, 1341.
       14602    sea16                    cobol_pdst:  1331, 1335.
       14671    sea18                    cobol_pdst:  1313, 1342, 1346.
       14330    sea4                     cobol_pdst:  1297, 1301, 1314.
       14342    sea5                     cobol_pdst:  1303.
       14354    sea7                     cobol_pdst:  1302, 1305.
       14366    sea8                     cobol_pdst:  1307, 1312.
       14417    sea9                     cobol_pdst:  1309, 1312.
       14241    search                   cobol_pdst:    55, 1290.
        2145    sec                      cobol_pdst:   248,  252,  254,  324,  325,  326, 2147.
        2210    sec1                     cobol_pdst:   257,  261.
        2246    sec2                     cobol_pdst:   253,  267.
        2260    sec3                     cobol_pdst:   232,  269,  278,  280.
        2234    sec4                     cobol_pdst:   265.
        2272    sec5                     cobol_pdst:   268,  271.
        6034    selobj                   cobol_pdst:   633,  649.
        5776    selsub                   cobol_pdst:   625,  629,  643.
       14753    send                     cobol_pdst:    59, 1356.
       15042    send_2                   cobol_pdst:  1360, 1364, 1367.
       15112    send_3                   cobol_pdst:  1370, 1371, 1375, 1380.
       15136    send_4                   cobol_pdst:  1372, 1379.
       15155    send_6                   cobol_pdst:  1376, 1377, 1382.
       15225    send_7                   cobol_pdst:  1384, 1385, 1390.
       15220    send_8                   cobol_pdst:  1383, 1389.
       15232    set                      cobol_pdst:    60, 1391.
       15275    set_1                    cobol_pdst:  1398.
       15530    set_10                   cobol_pdst:  1405, 1406, 1429.
       15573    set_11                   cobol_pdst:  1432, 1436.
       15453    set_12                   cobol_pdst:  1417, 1420.
       15465    set_13                   cobol_pdst:  1418, 1422.
       15314    set_2                    cobol_pdst:  1399, 1400, 1401.
       15422    set_3                    cobol_pdst:  1412, 1415.
       15326    set_4                    cobol_pdst:  1393, 1403, 1408.
       15364    set_5                    cobol_pdst:  1394, 1409, 1411.
       15376    set_6                    cobol_pdst:  1407, 1411, 1415.
       15427    set_7                    cobol_pdst:  1404, 1413, 1416.
       15511    set_8                    cobol_pdst:  1416, 1426, 1427, 1428, 1434, 1436.
       15516    set_9                    cobol_pdst:  1420, 1427.
        6046    so1                      cobol_pdst:   651,  653.
       15605    sort                     cobol_pdst:    78, 1438.
       15650    sort_1                   cobol_pdst:  1445, 1452.
       16300    sort_10                  cobol_pdst:  1489, 1501.
       16045    sort_11                  cobol_pdst:  1459, 1470.
       15706    sort_12                  cobol_pdst:  1451.
       16177    sort_13                  cobol_pdst:  1480, 1481, 1484, 1488.
       16026    sort_14                  cobol_pdst:  1467.
       16110    sort_15                  cobol_pdst:  1477, 1506, 1507.
       16242    sort_16                  cobol_pdst:  1495, 1508, 1509.
       16331    sort_17                  cobol_pdst:  1476, 1506.
       16343    sort_18                  cobol_pdst:  1494, 1508.
       15667    sort_2                   cobol_pdst:  1448, 1453, 1454.
       15775    sort_3                   cobol_pdst:  1455, 1462.
       16007    sort_4                   cobol_pdst:  1456, 1464.
       15751    sort_5                   cobol_pdst:  1458, 1467.
       16033    sort_6                   cobol_pdst:  1461, 1468.
       16076    sort_7                   cobol_pdst:  1468, 1475.
       16146    sort_8                   cobol_pdst:  1474, 1483.
       16071    sort_9                   cobol_pdst:  1474, 1486.
       16627    sta11                    cobol_pdst:  1538, 1544.
       16514    sta2                     cobol_pdst:  1524, 1529.
       16533    sta3                     cobol_pdst:  1523, 1532.
       16502    sta4                     cobol_pdst:  1527.
       16603    sta6                     cobol_pdst:  1535, 1540.
       16571    sta7                     cobol_pdst:  1538, 1542, 1543.
       16615    sta8                     cobol_pdst:  1534, 1542.
       16463    sta9                     cobol_pdst:  1524, 1545, 1547.
       16355    start                    cobol_pdst:    85, 1510.
       16660    stop                     cobol_pdst:    62, 1549.
       16754    str1                     cobol_pdst:  1561, 1563, 1576.
       16766    str2                     cobol_pdst:  1558, 1559, 1563, 1565, 1566, 1577, 1578.
       17202    str3                     cobol_pdst:  1587, 1591.
       17067    str4                     cobol_pdst:  1570, 1571, 1572, 1576.
       17156    str6                     cobol_pdst:  1587, 1598.
       17221    str7                     cobol_pdst:  1585, 1594.
       17233    str8                     cobol_pdst:  1586, 1596.
       16716    string                   cobol_pdst:    63, 1555.
       17423    sub1                     cobol_pdst:  1616, 1617, 1620, 1633.
       17334    sub10                    cobol_pdst:  1607, 1609.
       17372    sub11                    cobol_pdst:  1608, 1615.
       17461    sub12                    cobol_pdst:  1622, 1626, 1632, 1638.
       17473    sub13                    cobol_pdst:  1624, 1628, 1637.
       17531    sub4                     cobol_pdst:  1613, 1618, 1634, 1639.
       17512    sub5                     cobol_pdst:  1623, 1631.
       17257    subtract                 cobol_pdst:    40, 1600.
       24550    succ                     cobol_pdst:   188,  189,  644,  645,  647,  648,  652,  655,  656,  657,  665,  666,
                                                       668,  669,  670,  730, 1348, 1349, 1352, 1354, 1656, 1868, 1871, 1877,
                                                      1901, 1903, 1906, 1910, 1912, 1915, 1918, 1920, 1926, 1929, 1932, 1934,
                                                      1937, 1941, 1943, 1946, 1952, 1958, 1959, 1965, 1967, 1982, 1984, 1986,
                                                      1989, 1991, 1996, 2001, 2004, 2005, 2007, 2010, 2011, 2013, 2015, 2020,
                                                      2025, 2028, 2029, 2031, 2033, 2035, 2038, 2040, 2045, 2050, 2053, 2054,
                                                      2056, 2062, 2065, 2067, 2072, 2077, 2080, 2081, 2083, 2085, 2087, 2090,
                                                      2092, 2097, 2102, 2104, 2105, 2107, 2109, 2111, 2115, 2149, 2156, 2218,
                                                      2235, 2237, 2238, 2241, 2242, 2243, 2246, 2247, 2248, 2249, 2250, 2251,
                                                      2255, 2270, 2274.
       21734    suppress                 cobol_pdst:    86, 1865.
       17574    sus1                     cobol_pdst:  1641, 1646.
       17601    sus2                     cobol_pdst:  1642, 1647.
       17613    sus3                     cobol_pdst:  1641, 1644.
       17567    suspend                  cobol_pdst:    64, 1640.
       17644    terminate                cobol_pdst:    65, 1649.
       25363    test_lpar                cobol_pdst:  2224, 2228.
       21424    transform                cobol_pdst:    80, 1825.
       17776    un1                      cobol_pdst:  1667, 1671.
       20231    un10                     cobol_pdst:  1679, 1698.
       20274    un11                     cobol_pdst:  1681, 1705.
       20306    un12                     cobol_pdst:  1682, 1707.
       20332    un13                     cobol_pdst:  1683, 1711.
       20003    un14                     cobol_pdst:  1668, 1716.
       20147    un15                     cobol_pdst:  1684, 1688.
       20041    un2                      cobol_pdst:  1664, 1674.
       20053    un3                      cobol_pdst:  1676, 1680.
       20072    un4                      cobol_pdst:  1679, 1696.
       20077    un5                      cobol_pdst:  1680, 1703.
       20116    un6                      cobol_pdst:  1683, 1709.
       20123    un7                      cobol_pdst:  1684, 1714.
       20166    un8                      cobol_pdst:  1678, 1691.
       20363    un9                      cobol_pdst:  1667, 1716.
       17714    unstring                 cobol_pdst:    66, 1657.
       22547    usagid                   cobol_pdst:   739, 1944.
        1041    use                      cobol_pdst:   131,  138, 2138.
        1750    use1                     cobol_pdst:   215,  221,  229.
        1407    use10                    cobol_pdst:   165,  184.
        1426    use11                    cobol_pdst:   176,  177,  187.
        1433    use12                    cobol_pdst:   152,  153,  178,  179,  180,  181,  182,  183,  185,  186,  188,  208,  223.
        1510    use13                    cobol_pdst:   146,  148,  156,  197.
        1560    use14                    cobol_pdst:   147,  205.
        1604    use18                    cobol_pdst:   150,  209.
        1111    use2                     cobol_pdst:   141,  146.
        1661    use20                    cobol_pdst:   218,  219,  220,  224,  229,  230.
        1717    use21                    cobol_pdst:   216,  224.
        1262    use22                    cobol_pdst:   161,  167.
        1445    use23                    cobol_pdst:   187,  190.
        1130    use3                     cobol_pdst:   142,  143,  149.
        1161    use4                     cobol_pdst:   144,  145,  154.
        1200    use5                     cobol_pdst:   157,  203.
        1325    use6                     cobol_pdst:   174,  192,  193,  194,  196.
        1351    use7                     cobol_pdst:   162,  178.
        1363    use8                     cobol_pdst:   163,  180.
        1375    use9                     cobol_pdst:   164,  182.
       22263    usnoned                  cobol_pdst:  1676, 1908.
       23040    verb1                    cobol_pdst:    57,  336,  344,  345,  350,  374,  375,  377,  378,  403,  433,  434,
                                                       435,  442,  459,  490,  520,  521,  523,  524,  540,  556,  561,  579,
                                                       580,  582,  583,  605,  609,  620,  621,  623,  641,  642,  673,  682,
                                                       684,  702,  706,  717,  718,  737,  765,  797,  801,  806,  848,  849,
                                                       855,  893,  897,  945,  946,  948,  949,  982, 1038, 1071, 1074, 1122,
                                                      1128, 1133, 1154, 1155, 1157, 1158, 1206, 1207, 1215, 1216, 1231, 1234,
                                                      1248, 1249, 1278, 1279, 1281, 1282, 1346, 1347, 1366, 1378, 1389, 1390,
                                                      1401, 1426, 1498, 1499, 1505, 1527, 1528, 1530, 1531, 1554, 1589, 1590,
                                                      1592, 1593, 1626, 1627, 1629, 1630, 1648, 1686, 1687, 1689, 1690, 1748,
                                                      1749, 1751, 1752, 1811, 1843, 1860, 1861, 1863, 1864, 1866, 1867, 1981.
       24233    wd                       cobol_pdst:  1203, 1211, 2108.
       21044    wf                       cobol_pdst:  1718, 1777.
       21107    wf1                      cobol_pdst:  1779, 1784.
       20654    wr1                      cobol_pdst:  1730, 1731, 1753.
       20604    wr10                     cobol_pdst:  1729, 1745.
       20635    wr11                     cobol_pdst:  1745, 1750.
       20623    wr12                     cobol_pdst:  1733, 1748, 1786.
       20642    wr13                     cobol_pdst:  1739, 1740, 1751.
       20464    wr2                      cobol_pdst:  1729, 1743.
       20503    wr3                      cobol_pdst:  1732, 1769, 1775, 1776.
       20560    wr4                      cobol_pdst:  1728, 1741.
       21006    wr5                      cobol_pdst:  1766, 1771.
       20767    wr6                      cobol_pdst:  1768, 1772.
       21025    wr7                      cobol_pdst:  1768, 1774.
       21032    wr8                      cobol_pdst:  1767, 1773, 1775.
       20755    wr9                      cobol_pdst:  1761, 1763, 1766.
       20370    write                    cobol_pdst:    67, 1717.
       21753    xdname                   cobol_pdst:   331,  547,  555, 1349, 1410, 1428, 1868, 2251.
       22643    xnm                      cobol_pdst:  1082, 1298, 1393, 1403, 1412, 1956.


NO FATAL ERRORS


                                          -----------------------------------------------------------


Historical Background

This edition of the Multics software materials and documentation is provided and donated
to Massachusetts Institute of Technology by Group BULL including BULL HN Information Systems Inc.
as a contribution to computer science knowledge.
This donation is made also to give evidence of the common contributions of Massachusetts Institute of Technology,
Bell Laboratories, General Electric, Honeywell Information Systems Inc., Honeywell BULL Inc., Groupe BULL
and BULL HN Information Systems Inc. to the development of this operating system.
Multics development was initiated by Massachusetts Institute of Technology Project MAC (1963-1970),
renamed the MIT Laboratory for Computer Science and Artificial Intelligence in the mid 1970s, under the leadership
of Professor Fernando Jose Corbato. Users consider that Multics provided the best software architecture
for managing computer hardware properly and for executing programs. Many subsequent operating systems
incorporated Multics principles.
Multics was distributed in 1975 to 2000 by Group Bull in Europe , and in the U.S. by Bull HN Information Systems Inc.,
as successor in interest by change in name only to Honeywell Bull Inc. and Honeywell Information Systems Inc. .

                                          -----------------------------------------------------------

Permission to use, copy, modify, and distribute these programs and their documentation for any purpose and without
fee is hereby granted,provided that the below copyright notice and historical background appear in all copies
and that both the copyright notice and historical background and this permission notice appear in supporting
documentation, and that the names of MIT, HIS, BULL or BULL HN not be used in advertising or publicity pertaining
to distribution of the programs without specific prior written permission.
    Copyright 1972 by Massachusetts Institute of Technology and Honeywell Information Systems Inc.
    Copyright 2006 by BULL HN Information Systems Inc.
    Copyright 2006 by Bull SAS
    All Rights Reserved
