ASSEMBLY LISTING OF SEGMENT >spec>on>11/11/82>cobol_operator_names_.alm
ASSEMBLED ON:	11/11/82  1044.9 mst Thu
OPTIONS USED:	list
ASSEMBLED BY:	ALM Version  6.4  April 1981
ASSEMBLER CREATED:	11/03/82  1423.6 mst Wed

                                     1  " ***********************************************************
                                     2  " *                                                         *
                                     3  " * Copyright, (C) Honeywell Information Systems Inc., 1982 *
                                     4  " *                                                         *
                                     5  " * Copyright (c) 1972 by Massachusetts Institute of        *
                                     6  " * Technology and Honeywell Information Systems, Inc.      *
                                     7  " *                                                         *
                                     8  " ***********************************************************
                                     9
                                    10  "	Modified on 06/30/81 by FCH op 94 stop_cd_run added
                                    11  "	Modified on 02/18/81 by FCH op 93 alt_rewrite added
                                    12  "	Modified on 08/24/79 by PRP op 83 changed to alt_start_control
                                    13  "	Modified on 05/09/77 by Bob Chang to add name for close_reel.
                                    14  "	Modified on 04/14/77 by Bob Chang to add communication operator names.
                                    15  "	Modified on 03/17/77 by Bob Chang to add new operator names.
                                    16  "	Modified on 03/15/77 by Bob Chang to fix the bug for missing entry for operator 62.
                                    17  "	Table of cobol operator names.
                                    18  "
                                    19  "	Created on 1/17/77 by Bob Chang
                                    20  "
    000000                          21  	name	cobol_operator_names_
                        000000      22  	segdef	cobol_operator_names_
                                    23
    000000                          24  cobol_operator_names_:
                        000000      25  	equ	first_n,0
                                    26
    000000                          27  first:
    000000  aa   000000 000000      28  	zero	0,first_n
    000001                          29  last:
    000001  aa   000000 000136      30  	zero	0,first_n+last_normal-first_normal-1)
    000002                          31  first_special:
    000002  aa   000000 000000      32  	zero	0,0
    000003                          33  last_special:
    000003  aa   000000 000000      34  	zero	0,0
    000004                          35  number_special:
    000004  aa   000000 000000      36  	zero	0,0
                                    37
                                    38  	use 	text
    000005                          39  first_normal:
    000005  0a   000144 000021      40  	zero	s0,17
    000006  0a   000151 000014      41  	zero	s1,12
    000007  0a   000154 000020      42  	zero	s2,16
    000010  0a   000160 000012      43  	zero	s3,10
    000011  0a   000163 000013      44  	zero	s4,11
    000012  0a   000166 000021      45  	zero	s5,17
    000013  0a   000173 000014      46  	zero	s6,12
    000014  0a   000176 000004      47  	zero	s7,4
    000015  0a   000177 000010      48  	zero	s8,8
    000016  0a   000201 000010      49  	zero	s9,8
    000017  0a   000203 000016      50  	zero	s10,14
    000020  0a   000207 000014      51  	zero	s11,12
    000021  0a   000212 000015      52  	zero	s12,13
    000022  0a   000216 000013      53  	zero	s13,11
    000023  0a   000221 000015      54  	zero	s14,13
    000024  0a   000225 000014      55  	zero	s15,12
    000025  0a   000230 000021      56  	zero	s16,17
    000026  0a   000235 000016      57  	zero	s17,14
    000027  0a   000241 000016      58  	zero	s18,14
    000030  0a   000245 000011      59  	zero	s19,9
    000031  0a   000250 000013      60  	zero	s20,11
    000032  0a   000253 000012      61  	zero	s21,10
    000033  0a   000256 000015      62  	zero	s22,13
    000034  0a   000262 000015      63  	zero	s23,13
    000035  0a   000266 000023      64  	zero	s24,19
    000036  0a   000273 000017      65  	zero	s25,15
    000037  0a   000277 000021      66  	zero	s26,17
    000040  0a   000304 000012      67  	zero	s27,10
    000041  0a   000307 000022      68  	zero	s28,18
    000042  0a   000314 000015      69  	zero	s29,13
    000043  0a   000320 000015      70  	zero	s30,13
    000044  0a   000324 000015      71  	zero	s31,13
    000045  0a   000330 000011      72  	zero	s32,9
    000046  0a   000333 000014      73  	zero	s33,12
    000047  0a   000336 000013      74  	zero	s34,11
    000050  0a   000341 000011      75  	zero	s35,9
    000051  0a   000344 000017      76  	zero	s36,15
    000052  0a   000350 000012      77  	zero	s37,10
    000053  0a   000353 000017      78  	zero	s38,15
    000054  0a   000357 000012      79  	zero	s39,10
    000055  0a   000362 000014      80  	zero	s40,12
    000056  0a   000365 000010      81  	zero	s41,8
    000057  0a   000367 000014      82  	zero	s42,12
    000060  0a   000372 000014      83  	zero	s43,12
    000061  0a   000375 000013      84  	zero	s44,11
    000062  0a   000400 000012      85  	zero	s45,10
    000063  0a   000403 000013      86  	zero	s46,11
    000064  0a   000406 000022      87  	zero	s47,18
    000065  0a   000413 000010      88  	zero	s48,8
    000066  0a   000415 000006      89  	zero	s49,6
    000067  0a   000417 000015      90  	zero	s50,13
    000070  0a   000423 000017      91  	zero	s51,15
    000071  0a   000427 000006      92  	zero	s52,6
    000072  0a   000431 000006      93  	zero	s53,6
    000073  0a   000433 000014      94  	zero	s54,12
    000074  0a   000436 000010      95  	zero	s55,8
    000075  0a   000440 000013      96  	zero	s56,11
    000076  0a   000443 000016      97  	zero	s57,14
    000077  0a   000447 000017      98  	zero	s58,15
    000100  0a   000453 000007      99  	zero	s59,7
    000101  0a   000455 000012     100  	zero	s60,10
    000102  0a   000460 000012     101  	zero	s61,10
    000103  0a   000463 000014     102  	zero	s62,12
    000104  0a   000466 000011     103  	zero	s63,9
    000105  0a   000471 000010     104  	zero	s64,8
    000106  0a   000473 000013     105  	zero	s65,11
    000107  0a   000476 000022     106  	zero	s66,18
    000110  0a   000503 000015     107  	zero	s67,13
    000111  0a   000507 000023     108  	zero	s68,19
    000112  0a   000514 000021     109  	zero	s69,17
    000113  0a   000521 000014     110  	zero	s70,12
    000114  0a   000524 000013     111  	zero	s71,11
    000115  0a   000527 000012     112  	zero	s72,10
    000116  0a   000532 000011     113  	zero	s73,9
    000117  0a   000535 000013     114  	zero	s74,11
    000120  0a   000540 000014     115  	zero	s75,12
    000121  0a   000543 000012     116  	zero	s76,10
    000122  0a   000546 000007     117  	zero	s77,7
    000123  0a   000550 000015     118  	zero	s78,13
    000124  0a   000554 000011     119  	zero	s79,9
    000125  0a   000557 000015     120  	zero	s80,13
    000126  0a   000563 000017     121  	zero	s81,15
    000127  0a   000567 000015     122  	zero	s82,13
    000130  0a   000573 000020     123  	zero	s83,16
    000131  0a   000600 000014     124  	zero	s84,12
    000132  0a   000603 000022     125  	zero	s85,18
    000133  0a   000610 000012     126  	zero	s86,10
    000134  0a   000613 000016     127  	zero	s87,14
    000135  0a   000617 000017     128  	zero	s88,15
    000136  0a   000623 000016     129  	zero	s89,14
    000137  0a   000627 000022     130  	zero	s90,18
    000140  0a   000634 000022     131  	zero	s91,18
    000141  0a   000641 000014     132  	zero	s92,12
    000142  0a   000644 000013     133  	zero	s93,11
    000143  0a   000647 000013     134  	zero	s94,11
    000144                         135  last_normal:
                                   136  "
    000144  aa  143 141 154 154    137  s0:	aci	"call_ent_var_desc"		0
    000145  aa  137 145 156 164
    000146  aa  137 166 141 162
    000147  aa  137 144 145 163
    000150  aa  143 000 000 000
    000151  aa  143 141 154 154    138  s1:	aci	"call_ent_var"		1
    000152  aa  137 145 156 164
    000153  aa  137 166 141 162
    000154  aa  143 141 154 154    139  s2:	aci	"call_ext_in_desc"		2
    000155  aa  137 145 170 164
    000156  aa  137 151 156 137
    000157  aa  144 145 163 143
    000160  aa  162 145 164 165    140  s3:	aci	"return_mac"		3
    000161  aa  162 156 137 155
    000162  aa  141 143 000 000
    000163  aa  143 141 154 154    141  s4:	aci	"call_ext_in"		4
    000164  aa  137 145 170 164
    000165  aa  137 151 156 000
    000166  aa  143 141 154 154    142  s5:	aci	"call_ext_out_desc"		5
    000167  aa  137 145 170 164
    000170  aa  137 157 165 164
    000171  aa  137 144 145 163
    000172  aa  143 000 000 000
    000173  aa  143 141 154 154    143  s6:	aci	"call_ext_out"		6
    000174  aa  137 145 170 164
    000175  aa  137 157 165 164
    000176  aa  157 160 143 150    144  s7:	aci	"opch"			7
    000177  aa  145 156 141 142    145  s8:	aci	"enable"			8
    000200  aa  154 145 000 000
    000201  aa  145 156 141 142    146  s9:	aci	"enable_1"		9
    000202  aa  154 145 137 061
    000203  aa  163 157 162 164    147  s10:	aci	"sort_entry_seq"		10
    000204  aa  137 145 156 164
    000205  aa  162 171 137 163
    000206  aa  145 161 000 000
    000207  aa  163 157 162 164    148  s11:	aci	"sort_release"		11
    000210  aa  137 162 145 154
    000211  aa  145 141 163 145
    000212  aa  162 165 156 164    149  s12:	aci	"runtime_check"		12
    000213  aa  151 155 145 137
    000214  aa  143 150 145 143
    000215  aa  153 000 000 000
    000216  aa  163 157 162 164    150  s13:	aci	"sort_return"		13
    000217  aa  137 162 145 164
    000220  aa  165 162 156 000
    000221  aa  163 157 162 164    151  s14:	aci	"sort_initiate"		14
    000222  aa  137 151 156 151
    000223  aa  164 151 141 164
    000224  aa  145 000 000 000
    000225  aa  162 145 141 154    152  s15:	aci	"real_to_real"		15
    000226  aa  137 164 157 137
    000227  aa  162 145 141 154
    000230  aa  145 163 164 141    153  s16:	aci	"establish_cleanup"		16
    000231  aa  142 154 151 163
    000232  aa  150 137 143 154
    000233  aa  145 141 156 165
    000234  aa  160 000 000 000
    000235  aa  163 157 162 164    154  s17:	aci	"sort_terminate"		17
    000236  aa  137 164 145 162
    000237  aa  155 151 156 141
    000240  aa  164 145 000 000
    000241  aa  162 145 166 145    155  s18:	aci	"revert_cleanup"		18
    000242  aa  162 164 137 143
    000243  aa  154 145 141 156
    000244  aa  165 160 000 000
    000245  aa  163 157 162 164    156  s19:	aci	"sort_comp"		19
    000246  aa  137 143 157 155
    000247  aa  160 000 000 000
    000250  aa  141 143 143 145    157  s20:	aci	"accept_line"		20
    000251  aa  160 164 137 154
    000252  aa  151 156 145 000
    000253  aa  151 156 151 164    158  s21:	aci	"init_start"		21
    000254  aa  137 163 164 141
    000255  aa  162 164 000 000
    000256  aa  163 157 162 164    159  s22:	aci	"sort_commence"		22
    000257  aa  137 143 157 155
    000260  aa  155 145 156 143
    000261  aa  145 000 000 000
    000262  aa  163 164 141 162    160  s23:	aci	"start_control"		23
    000263  aa  164 137 143 157
    000264  aa  156 164 162 157
    000265  aa  154 000 000 000
    000266  aa  163 145 164 137    161  s24:	aci	"set_lin_file_status"	24
    000267  aa  154 151 156 137
    000270  aa  146 151 154 145
    000271  aa  137 163 164 141
    000272  aa  164 165 163 000
    000273  aa  163 145 164 137    162  s25:	aci	"set_file_status"		25
    000274  aa  146 151 154 145
    000275  aa  137 163 164 141
    000276  aa  164 165 163 000
    000277  aa  144 163 160 154    163  s26:	aci	"dsply_user_output"		26
    000300  aa  171 137 165 163
    000301  aa  145 162 137 157
    000302  aa  165 164 160 165
    000303  aa  164 000 000 000
    000304  aa  143 154 157 163    164  s27:	aci	"close_file"		27
    000305  aa  145 137 146 151
    000306  aa  154 145 000 000
    000307  aa  144 163 160 154    165  s28:	aci	"dsply_error_output"	28
    000310  aa  171 137 145 162
    000311  aa  162 157 162 137
    000312  aa  157 165 164 160
    000313  aa  165 164 000 000
    000314  aa  143 154 157 163    166  s29:	aci	"close_op_file"		29
    000315  aa  145 137 157 160
    000316  aa  137 146 151 154
    000317  aa  145 000 000 000
    000320  aa  157 160 145 156    167  s30:	aci	"open_ext_file"		30
    000321  aa  137 145 170 164
    000322  aa  137 146 151 154
    000323  aa  145 000 000 000
    000324  aa  157 160 145 156    168  s31:	aci	"open_int_file"		31
    000325  aa  137 151 156 164
    000326  aa  137 146 151 154
    000327  aa  145 000 000 000
    000330  aa  146 151 156 144    169  s32:	aci	"find_iocb"		32
    000331  aa  137 151 157 143
    000332  aa  142 000 000 000
    000333  aa  143 150 145 143    170  s33:	aci	"check_attach"		33
    000334  aa  153 137 141 164
    000335  aa  164 141 143 150
    000336  aa  141 164 164 141    171  s34:	aci	"attach_iocb"		34
    000337  aa  143 150 137 151
    000340  aa  157 143 142 000
    000341  aa  157 160 145 156    172  s35:	aci	"open_file"		35
    000342  aa  137 146 151 154
    000343  aa  145 000 000 000
    000344  aa  157 160 145 156    173  s36:	aci	"open_close_file"		36
    000345  aa  137 143 154 157
    000346  aa  163 145 137 146
    000347  aa  151 154 145 000
    000350  aa  143 150 145 143    174  s37:	aci	"check_file"		37
    000351  aa  153 137 146 151
    000352  aa  154 145 000 000
    000353  aa  143 154 157 163    175  s38:	aci	"close_file_only"		38
    000354  aa  145 137 146 151
    000355  aa  154 145 137 157
    000356  aa  156 154 171 000
    000357  aa  151 156 151 164    176  s39:	aci	"init_write"		39
    000360  aa  137 167 162 151
    000361  aa  164 145 000 000
    000362  aa  167 162 151 164    177  s40:	aci	"write_stream"		40
    000363  aa  145 137 163 164
    000364  aa  162 145 141 155
    000365  aa  163 145 145 153    178  s41:	aci	"seek_key"		41
    000366  aa  137 153 145 171
    000367  aa  167 162 151 164    179  s42:	aci	"write_record"		42
    000370  aa  145 137 162 145
    000371  aa  143 157 162 144
    000372  aa  163 164 157 160    180  s43:	aci	"stop_literal"		43
    000373  aa  137 154 151 164
    000374  aa  145 162 141 154
    000375  aa  141 143 143 145    181  s44:	aci	"accept_date"		44
    000376  aa  160 164 137 144
    000377  aa  141 164 145 000
    000400  aa  141 143 143 145    182  s45:	aci	"accept_day"		45
    000401  aa  160 164 137 144
    000402  aa  141 171 000 000
    000403  aa  141 143 143 145    183  s46:	aci	"accept_time"		46
    000404  aa  160 164 137 164
    000405  aa  151 155 145 000
    000406  aa  141 143 143 145    184  s47:	aci	"accept_day_of_week"	47
    000407  aa  160 164 137 144
    000410  aa  141 171 137 157
    000411  aa  146 137 167 145
    000412  aa  145 153 000 000
    000413  aa  163 164 157 160    185  s48:	aci	"stop_run"		48
    000414  aa  137 162 165 156
    000415  aa  143 141 156 143    186  s49:	aci	"cancel"			49
    000416  aa  145 154 000 000
    000417  aa  151 156 163 160    187  s50:	aci	"inspect_tally"		50
    000420  aa  145 143 164 137
    000421  aa  164 141 154 154
    000422  aa  171 000 000 000
    000423  aa  151 156 163 160    188  s51:	aci	"inspect_replace"		51
    000424  aa  145 143 164 137
    000425  aa  162 145 160 154
    000426  aa  141 143 145 000
    000427  aa  154 151 156 141    189  s52:	aci	"linage"			52
    000430  aa  147 145 000 000
    000431  aa  144 145 154 145    190  s53:	aci	"delete"			53
    000432  aa  164 145 000 000
    000433  aa  144 145 154 145    191  s54:	aci	"delete_error"		54
    000434  aa  164 145 137 145
    000435  aa  162 162 157 162
    000436  aa  162 145 141 144    192  s55:	aci	"read_key"		55
    000437  aa  137 153 145 171
    000440  aa  151 156 151 164    193  s56:	aci	"init_delete"		56
    000441  aa  137 144 145 154
    000442  aa  145 164 145 000
    000443  aa  163 160 145 143    194  s57:	aci	"special_delete"		57
    000444  aa  151 141 154 137
    000445  aa  144 145 154 145
    000446  aa  164 145 000 000
    000447  aa  163 160 145 143    195  s58:	aci	"special_rewrite"		58
    000450  aa  151 141 154 137
    000451  aa  162 145 167 162
    000452  aa  151 164 145 000
    000453  aa  162 145 167 162    196  s59:	aci	"rewrite"			59
    000454  aa  151 164 145 000
    000455  aa  155 145 162 147    197  s60:	aci	"merge_init"		60
    000456  aa  145 137 151 156
    000457  aa  151 164 000 000
    000460  aa  155 145 162 147    198  s61:	aci	"merge_comp"		61
    000461  aa  145 137 143 157
    000462  aa  155 160 000 000
    000463  aa  155 145 162 147    199  s62:	aci	"merge_return"		62
    000464  aa  145 137 162 145
    000465  aa  164 165 162 156
    000466  aa  151 156 151 164    200  s63:	aci	"init_read"		63
    000467  aa  137 162 145 141
    000470  aa  144 000 000 000
    000471  aa  147 145 164 137    201  s64:	aci	"get_line"		64
    000472  aa  154 151 156 145
    000473  aa  162 145 141 144    202  s65:	aci	"read_record"		65
    000474  aa  137 162 145 143
    000475  aa  157 162 144 000
    000476  aa  156 157 156 163    203  s66:	aci	"nonseq_read_record"	66
    000477  aa  145 161 137 162
    000500  aa  145 141 144 137
    000501  aa  162 145 143 157
    000502  aa  162 144 000 000
    000503  aa  162 145 141 144    204  s67:	aci	"read_seek_key"		67
    000504  aa  137 163 145 145
    000505  aa  153 137 153 145
    000506  aa  171 000 000 000
    000507  aa  167 162 151 164    205  s68:	aci	"write_stream_linage"	68
    000510  aa  145 137 163 164
    000511  aa  162 145 141 155
    000512  aa  137 154 151 156
    000513  aa  141 147 145 000
    000514  aa  162 145 141 144    206  s69:	aci	"read_key_for_read"		69
    000515  aa  137 153 145 171
    000516  aa  137 146 157 162
    000517  aa  137 162 145 141
    000520  aa  144 000 000 000
    000521  aa  162 145 143 145    207  s70:	aci	"receive_comm"		70
    000522  aa  151 166 145 137
    000523  aa  143 157 155 155
    000524  aa  141 143 143 145    208  s71:	aci	"accept_comm"		71
    000525  aa  160 164 137 143
    000526  aa  157 155 155 000
    000527  aa  160 165 162 147    209  s72:	aci	"purge_comm"		72
    000530  aa  145 137 143 157
    000531  aa  155 155 000 000
    000532  aa  163 145 156 144    210  s73:	aci	"send_comm"		73
    000533  aa  137 143 157 155
    000534  aa  155 000 000 000
    000535  aa  145 156 141 142    211  s74:	aci	"enable_comm"		74
    000536  aa  154 145 137 143
    000537  aa  157 155 155 000
    000540  aa  144 151 163 141    212  s75:	aci	"disable_comm"		75
    000541  aa  142 154 145 137
    000542  aa  143 157 155 155
    000543  aa  143 154 157 163    213  s76:	aci	"close_reel"		76
    000544  aa  145 137 162 145
    000545  aa  145 154 000 000
    000546  aa  151 156 151 164    214  s77:	aci	"init_cd"			77
    000547  aa  137 143 144 000
    000550  aa  141 154 164 137    215  s78:	aci	"alt_open_file"		78
    000551  aa  157 160 145 156
    000552  aa  137 146 151 154
    000553  aa  145 000 000 000
    000554  aa  141 154 164 137    216  s79:	aci	"alt_start"		79
    000555  aa  163 164 141 162
    000556  aa  164 000 000 000
    000557  aa  141 154 164 137    217  s80:	aci	"alt_read_next"		80
    000560  aa  162 145 141 144
    000561  aa  137 156 145 170
    000562  aa  164 000 000 000
    000563  aa  141 154 164 137    218  s81:	aci	"alt_read_record"		81
    000564  aa  162 145 141 144
    000565  aa  137 162 145 143
    000566  aa  157 162 144 000
    000567  aa  141 154 164 137    219  s82:	aci	"alt_key_check"		82
    000570  aa  153 145 171 137
    000571  aa  143 150 145 143
    000572  aa  153 000 000 000
    000573  aa  141 154 164 137    220  s83:	aci	"alt_start_control"		83
    000574  aa  163 164 141 162
    000575  aa  164 137 143 157
    000576  aa  156 164 162 157
    000577  aa  154 000 000 000
    000600  aa  141 154 164 137    221  s84:	aci	"alt_read_key"		84
    000601  aa  162 145 141 144
    000602  aa  137 153 145 171
    000603  aa  141 154 164 137    222  s85:	aci	"alt_special_delete"	85
    000604  aa  163 160 145 143
    000605  aa  151 141 154 137
    000606  aa  144 145 154 145
    000607  aa  164 145 000 000
    000610  aa  141 154 164 137    223  s86:	aci	"alt_delete"		86
    000611  aa  144 145 154 145
    000612  aa  164 145 000 000
    000613  aa  141 154 164 137    224  s87:	aci	"alt_key_delete"		87
    000614  aa  153 145 171 137
    000615  aa  144 145 154 145
    000616  aa  164 145 000 000
    000617  aa  141 154 164 137    225  s88:	aci	"alt_rewrite_add"		88
    000620  aa  162 145 167 162
    000621  aa  151 164 145 137
    000622  aa  141 144 144 000
    000623  aa  141 154 164 137    226  s89:	aci	"alt_close_file"		89
    000624  aa  143 154 157 163
    000625  aa  145 137 146 151
    000626  aa  154 145 000 000
    000627  aa  141 154 164 137    227  s90:	aci	"alt_add_write_keys"	90
    000630  aa  141 144 144 137
    000631  aa  167 162 151 164
    000632  aa  145 137 153 145
    000633  aa  171 163 000 000
    000634  aa  141 154 164 137    228  s91: 	aci	"alt_write_seek_key"	91
    000635  aa  167 162 151 164
    000636  aa  145 137 163 145
    000637  aa  145 153 137 153
    000640  aa  145 171 000 000
    000641  aa  141 154 164 137    229  s92:	aci	"alt_find_rec"		92
    000642  aa  146 151 156 144
    000643  aa  137 162 145 143
    000644  aa  141 154 164 137    230  s93:	aci	"alt_rewrite"		93
    000645  aa  162 145 167 162
    000646  aa  151 164 145 000
    000647  aa  163 164 157 160    231  s94:	aci	"stop_cd_run"		94
    000650  aa  137 143 144 137
    000651  aa  162 165 156 000
                                   232  	end

NO LITERALS

NAME DEFINITIONS FOR ENTRY POINTS AND SEGDEFS

    000652  5a   000003 000000
    000653  5a   000034 600000
    000654  aa   000000 000000
    000655  55   000014 000002
    000656  5a   000002 400003
    000657  55   000006 000014
    000660  aa  025 143 157 142
    000661  aa  157 154 137 157
    000662  aa  160 145 162 141
    000663  aa  164 157 162 137
    000664  aa  156 141 155 145
    000665  aa  163 137 000 000
    000666  55   000025 000003
    000667  0a   000000 400000
    000670  55   000017 000003
    000671  aa  025 143 157 142         cobol_operator_names_
    000672  aa  157 154 137 157
    000673  aa  160 145 162 141
    000674  aa  164 157 162 137
    000675  aa  156 141 155 145
    000676  aa  163 137 000 000
    000677  55   000002 000014
    000700  6a   000000 400002
    000701  55   000030 000003
    000702  aa  014 163 171 155         symbol_table
    000703  aa  142 157 154 137
    000704  aa  164 141 142 154
    000705  aa  145 000 000 000

DEFINITIONS HASH TABLE

    000706  aa   000000 000015
    000707  aa   000000 000000
    000710  aa   000000 000000
    000711  aa   000000 000000
    000712  aa   000000 000000
    000713  aa   000000 000000
    000714  aa   000000 000000
    000715  5a   000025 000000
    000716  5a   000014 000000
    000717  aa   000000 000000
    000720  aa   000000 000000
    000721  aa   000000 000000
    000722  aa   000000 000000
    000723  aa   000000 000000

NO EXTERNAL NAMES

NO TRAP POINTER WORDS

TYPE PAIR BLOCKS

    000724  aa   000001 000000
    000725  aa   000000 000000

INTERNAL EXPRESSION WORDS

LINKAGE INFORMATION

    000000  aa   000000 000000
    000001  0a   000652 000000
    000002  aa   000000 000000
    000003  aa   000000 000000
    000004  aa   000000 000000
    000005  aa   000000 000000
    000006  22   000010 000010
    000007  a2   000000 000000
SYMBOL INFORMATION

SYMBOL TABLE HEADER

    000000  aa   000000 000001
    000001  aa   163171 155142
    000002  aa   164162 145145
    000003  aa   000000 000004
    000004  aa   000000 111316
    000005  aa   510113 575622
    000006  aa   000000 111330
    000007  aa   404163 647047
    000010  aa   141154 155040
    000011  aa   040040 040040
    000012  aa   000024 000040
    000013  aa   000034 000040
    000014  aa   000044 000100
    000015  aa   000002 000002
    000016  aa   000064 000000
    000017  aa   000000 000163
    000020  aa   000000 000105
    000021  aa   000000 000152
    000022  aa   000155 000105
    000023  aa   000064 000000
    000024  aa   101114 115040
    000025  aa   126145 162163
    000026  aa   151157 156040
    000027  aa   040066 056064
    000030  aa   040040 101160
    000031  aa   162151 154040
    000032  aa   061071 070061
    000033  aa   040040 040040
    000034  aa   110157 154155
    000035  aa   163164 145144
    000036  aa   164056 123171
    000037  aa   163115 141151
    000040  aa   156164 056155
    000041  aa   040040 040040
    000042  aa   040040 040040
    000043  aa   040040 040040
    000044  aa   154151 163164
    000045  aa   040040 040040
    000046  aa   040040 040040
    000047  aa   040040 040040
    000050  aa   040040 040040
    000051  aa   040040 040040
    000052  aa   040040 040040
    000053  aa   040040 040040
    000054  aa   040040 040040
    000055  aa   040040 040040
    000056  aa   040040 040040
    000057  aa   040040 040040
    000060  aa   040040 040040
    000061  aa   040040 040040
    000062  aa   040040 040040
    000063  aa   040040 040040
    000064  aa   000000 000001
    000065  aa   000000 000001
    000066  aa   000072 000053
    000067  aa   113225 115264
    000070  aa   000000 111330
    000071  aa   375705 600000
    000072  aa   076163 160145          >spec>on>11/11/82>cobol_operator_names_.alm
    000073  aa   143076 157156
    000074  aa   076061 061057
    000075  aa   061061 057070
    000076  aa   062076 143157
    000077  aa   142157 154137
    000100  aa   157160 145162
    000101  aa   141164 157162
    000102  aa   137156 141155
    000103  aa   145163 137056
    000104  aa   141154 155040
               MULTICS ASSEMBLY CROSS REFERENCE LISTING

   Value        Symbol                   Source file   Line number

           0    cobol_operator_names_    cobol_operator_names_:     22,   24.
           0    first                    cobol_operator_names_:     27.
           0    first_n                  cobol_operator_names_:     25,   28,   30.
           5    first_normal             cobol_operator_names_:     30,   39.
           2    first_special            cobol_operator_names_:     31.
           1    last                     cobol_operator_names_:     29.
         144    last_normal              cobol_operator_names_:     30,  135.
           3    last_special             cobol_operator_names_:     33.
           4    number_special           cobol_operator_names_:     35.
         144    s0                       cobol_operator_names_:     40,  137.
         151    s1                       cobol_operator_names_:     41,  138.
         203    s10                      cobol_operator_names_:     50,  147.
         207    s11                      cobol_operator_names_:     51,  148.
         212    s12                      cobol_operator_names_:     52,  149.
         216    s13                      cobol_operator_names_:     53,  150.
         221    s14                      cobol_operator_names_:     54,  151.
         225    s15                      cobol_operator_names_:     55,  152.
         230    s16                      cobol_operator_names_:     56,  153.
         235    s17                      cobol_operator_names_:     57,  154.
         241    s18                      cobol_operator_names_:     58,  155.
         245    s19                      cobol_operator_names_:     59,  156.
         154    s2                       cobol_operator_names_:     42,  139.
         250    s20                      cobol_operator_names_:     60,  157.
         253    s21                      cobol_operator_names_:     61,  158.
         256    s22                      cobol_operator_names_:     62,  159.
         262    s23                      cobol_operator_names_:     63,  160.
         266    s24                      cobol_operator_names_:     64,  161.
         273    s25                      cobol_operator_names_:     65,  162.
         277    s26                      cobol_operator_names_:     66,  163.
         304    s27                      cobol_operator_names_:     67,  164.
         307    s28                      cobol_operator_names_:     68,  165.
         314    s29                      cobol_operator_names_:     69,  166.
         160    s3                       cobol_operator_names_:     43,  140.
         320    s30                      cobol_operator_names_:     70,  167.
         324    s31                      cobol_operator_names_:     71,  168.
         330    s32                      cobol_operator_names_:     72,  169.
         333    s33                      cobol_operator_names_:     73,  170.
         336    s34                      cobol_operator_names_:     74,  171.
         341    s35                      cobol_operator_names_:     75,  172.
         344    s36                      cobol_operator_names_:     76,  173.
         350    s37                      cobol_operator_names_:     77,  174.
         353    s38                      cobol_operator_names_:     78,  175.
         357    s39                      cobol_operator_names_:     79,  176.
         163    s4                       cobol_operator_names_:     44,  141.
         362    s40                      cobol_operator_names_:     80,  177.
         365    s41                      cobol_operator_names_:     81,  178.
         367    s42                      cobol_operator_names_:     82,  179.
         372    s43                      cobol_operator_names_:     83,  180.
         375    s44                      cobol_operator_names_:     84,  181.
         400    s45                      cobol_operator_names_:     85,  182.
         403    s46                      cobol_operator_names_:     86,  183.
         406    s47                      cobol_operator_names_:     87,  184.
         413    s48                      cobol_operator_names_:     88,  185.
         415    s49                      cobol_operator_names_:     89,  186.
         166    s5                       cobol_operator_names_:     45,  142.
         417    s50                      cobol_operator_names_:     90,  187.
         423    s51                      cobol_operator_names_:     91,  188.
         427    s52                      cobol_operator_names_:     92,  189.
         431    s53                      cobol_operator_names_:     93,  190.
         433    s54                      cobol_operator_names_:     94,  191.
         436    s55                      cobol_operator_names_:     95,  192.
         440    s56                      cobol_operator_names_:     96,  193.
         443    s57                      cobol_operator_names_:     97,  194.
         447    s58                      cobol_operator_names_:     98,  195.
         453    s59                      cobol_operator_names_:     99,  196.
         173    s6                       cobol_operator_names_:     46,  143.
         455    s60                      cobol_operator_names_:    100,  197.
         460    s61                      cobol_operator_names_:    101,  198.
         463    s62                      cobol_operator_names_:    102,  199.
         466    s63                      cobol_operator_names_:    103,  200.
         471    s64                      cobol_operator_names_:    104,  201.
         473    s65                      cobol_operator_names_:    105,  202.
         476    s66                      cobol_operator_names_:    106,  203.
         503    s67                      cobol_operator_names_:    107,  204.
         507    s68                      cobol_operator_names_:    108,  205.
         514    s69                      cobol_operator_names_:    109,  206.
         176    s7                       cobol_operator_names_:     47,  144.
         521    s70                      cobol_operator_names_:    110,  207.
         524    s71                      cobol_operator_names_:    111,  208.
         527    s72                      cobol_operator_names_:    112,  209.
         532    s73                      cobol_operator_names_:    113,  210.
         535    s74                      cobol_operator_names_:    114,  211.
         540    s75                      cobol_operator_names_:    115,  212.
         543    s76                      cobol_operator_names_:    116,  213.
         546    s77                      cobol_operator_names_:    117,  214.
         550    s78                      cobol_operator_names_:    118,  215.
         554    s79                      cobol_operator_names_:    119,  216.
         177    s8                       cobol_operator_names_:     48,  145.
         557    s80                      cobol_operator_names_:    120,  217.
         563    s81                      cobol_operator_names_:    121,  218.
         567    s82                      cobol_operator_names_:    122,  219.
         573    s83                      cobol_operator_names_:    123,  220.
         600    s84                      cobol_operator_names_:    124,  221.
         603    s85                      cobol_operator_names_:    125,  222.
         610    s86                      cobol_operator_names_:    126,  223.
         613    s87                      cobol_operator_names_:    127,  224.
         617    s88                      cobol_operator_names_:    128,  225.
         623    s89                      cobol_operator_names_:    129,  226.
         201    s9                       cobol_operator_names_:     49,  146.
         627    s90                      cobol_operator_names_:    130,  227.
         634    s91                      cobol_operator_names_:    131,  228.
         641    s92                      cobol_operator_names_:    132,  229.
         644    s93                      cobol_operator_names_:    133,  230.
         647    s94                      cobol_operator_names_:    134,  231.
           5    text                     cobol_operator_names_:     38.


NO FATAL ERRORS


                                          -----------------------------------------------------------


Historical Background

This edition of the Multics software materials and documentation is provided and donated
to Massachusetts Institute of Technology by Group BULL including BULL HN Information Systems Inc.
as a contribution to computer science knowledge.
This donation is made also to give evidence of the common contributions of Massachusetts Institute of Technology,
Bell Laboratories, General Electric, Honeywell Information Systems Inc., Honeywell BULL Inc., Groupe BULL
and BULL HN Information Systems Inc. to the development of this operating system.
Multics development was initiated by Massachusetts Institute of Technology Project MAC (1963-1970),
renamed the MIT Laboratory for Computer Science and Artificial Intelligence in the mid 1970s, under the leadership
of Professor Fernando Jose Corbato. Users consider that Multics provided the best software architecture
for managing computer hardware properly and for executing programs. Many subsequent operating systems
incorporated Multics principles.
Multics was distributed in 1975 to 2000 by Group Bull in Europe , and in the U.S. by Bull HN Information Systems Inc.,
as successor in interest by change in name only to Honeywell Bull Inc. and Honeywell Information Systems Inc. .

                                          -----------------------------------------------------------

Permission to use, copy, modify, and distribute these programs and their documentation for any purpose and without
fee is hereby granted,provided that the below copyright notice and historical background appear in all copies
and that both the copyright notice and historical background and this permission notice appear in supporting
documentation, and that the names of MIT, HIS, BULL or BULL HN not be used in advertising or publicity pertaining
to distribution of the programs without specific prior written permission.
    Copyright 1972 by Massachusetts Institute of Technology and Honeywell Information Systems Inc.
    Copyright 2006 by BULL HN Information Systems Inc.
    Copyright 2006 by Bull SAS
    All Rights Reserved
