	COMPILATION LISTING OF SEGMENT cobol_version
	Compiled by: Multics PL/I Compiler, Release 33b, of October 17, 1990
	Compiled at: ACTC Technologies Inc.
	Compiled on: 10/19/90  1655.0 mdt Fri
	    Options: optimize map

        1 /****^  *********************************************************
        2*        *                                                       *
        3*        * Copyright, (C) BULL HN Information Systems Inc., 1989 *
        4*        *                                                       *
        5*        * Copyright (c) 1972 by Massachusetts Institute of      *
        6*        * Technology and Honeywell Information Systems, Inc.    *
        7*        *                                                       *
        8*        ********************************************************* */
        9
       10
       11 /****^  HISTORY COMMENTS:
       12*  1) change(89-04-23,Zimmerman), approve(89-04-23,MCR8060),
       13*     audit(89-05-05,RWaters), install(89-05-24,MR12.3-1048):
       14*     MCR8060 cobol_version.pl1 Reformatted code to new Cobol standard.
       15*  2) change(90-10-03,Zimmerman), approve(90-10-03,MCR8218),
       16*     audit(90-10-10,Gray), install(90-10-19,MR12.4-1048):
       17*     Update Cobol version for object segment compatibility fix  (Cobol 588,
       18*     phx21360
       19*                                                   END HISTORY COMMENTS */
       20
       21
       22 /* Modified since Version 5.3 */
       23
       24 /* format: style3 */
       25 cobol_version:
       26      proc;
       27
       28 dcl	ioa_		entry options (variable);
       29
       30 /*************************************/
       31 set:
       32      entry;
       33 start_set:
       34 	fixed_common.compiler_rev_no = "5.4 of October 1, 1990";
       35 	return;
       36
       37 /*************************************/
       38 print:
       39      entry;
       40 start_print:
       41 	call ioa_ ("COBOL, Version 5.4");
       42 	return;
       43
       44 /*************************************/
       45 header:
       46      entry (hdr_lines, hdr_len);
       47 dcl	hdr_lines		char (*);
       48 dcl	hdr_len		fixed bin;
       49 dcl	ioa_$rs		entry options (variable);
       50 dcl	date_time_	entry (fixed bin (71), char (*));
       51 dcl	dt		char (24);
       52 dcl	substr		builtin;
       53
       54 start_header:
       55 	sym_ptr = cobol_$sym_base_ptr;
       56 	call date_time_ (symbol_block_header.object_creation_time, dt);
       57 	call ioa_$rs (
       58 	     "COMPILATION LISTING OF SEGMENT ^a^/Compiled by: Multics COBOL, Version ^a^/Compiled on: ^a^/    Options: ^a^/",
       59 	     hdr_lines, hdr_len, cobol_$obj_seg_name, fixed_common.compiler_rev_no, dt,
       60 	     substr (cobol_options, 1, cobol_options_len));
       61 	return;
       62
  1     1
  1     2 /* BEGIN INCLUDE FILE ...   cobol_fixed_common.incl.pl1 */
  1     3 /* Modified on 10/27/82 by FCH, [5.1-1], cobol_cln added to save last line num, BUG543(phx13643) */
  1     4 /* Modified on 07/31/80 by FCH, [4.3-1], use_reporting field added for Report Writer */
  1     5 /* Modified on 03/30/79 by FCH, [4.1-1], -card option added */
  1     6 /* Modified on 03/30/79 by FCH, [4.0-2], -svNM option added */
  1     7 /* Modified on 03/02/79 by FCH, [4.0-1], -levNM option added */
  1     8 /* Modified by RAL on 10/13/78, [4.0-0], Added option exp from fil2. */
  1     9 /* Modified by BC on 06/20/77, descriptor added.	*/
  1    10 /* Modified by BC on 06/02/77, init_cd_seg, init_cd_offset added.	*/
  1    11 /* Modified by BC  on 1/21/77, options.profile added.	*/
  1    12 /* Modified by FCH on 7/6/76, sysin_fno & sysout_fno deleted, accept_device & display_device added */
  1    13 /* Modified by FCH on 5/20/77, comp_level added */
  1    14
  1    15
  1    16 /*     THE SIZE OF THIS STRUCTURE IN BYTES, (EXCLUDING VARIABLE
  1    17*   LENGTH ENTITIES), FOR EACH HARDWARE IMPLEMENTATION IS:
  1    18*
  1    19*   HARDWARE	|	SIZE (BYTES)
  1    20*   ---------------------------------
  1    21*   645/6180	|	464
  1    22*   P7		|	396
  1    23*   ---------------------------------
  1    24*   */
  1    25
  1    26 dcl 	1 fixed_common based (  cobol_com_ptr),
  1    27     		2 prog_name char (30),
  1    28    		2 compiler_rev_no char (25),
  1    29     		2 phase_name char (6),
  1    30     		2 currency char (1),
  1    31     		2 fatal_no fixed bin,
  1    32     		2 warn_no fixed bin,
  1    33     		2 proc_counter fixed bin,
  1    34     		2 spec_tag_counter fixed bin,
  1    35     		2 file_count fixed bin,
  1    36     		2 filedescr_offsets (20) char (5),
  1    37     		2 perf_alter_info char (5),
  1    38     		2 another_perform_info char (5),
  1    39     		2 sort_in_info char (5),
  1    40     		2 odo_info char (5),
  1    41     		2 size_seg fixed bin,
  1    42     		2 size_offset fixed bin(24),
  1    43     		2 size_perform_info char (5),
  1    44     		2 rename_info char (5),
  1    45     		2 report_names char (5),
  1    46     		2 rw_buf_seg fixed bin,
  1    47     		2 rw_buf_offset fixed bin(24),
  1    48     		2 rw_buf_length fixed bin(24),
  1    49     		2 file_keys char (5),
  1    50     		2 search_keys char (5),
  1    51     		2 dd_seg_size fixed bin(24),
  1    52     		2 pd_seg_size fixed bin(24),
  1    53     		2 seg_limit fixed bin ,
  1    54     		2 number_of_dd_segs fixed bin,
  1    55     		2 seg_info char (5),
  1    56     		2 number_of_ls_pointers fixed bin,
  1    57     		2 link_sec_seg fixed bin,
  1    58     		2 link_sec_offset fixed bin(24),
  1    59     		2 sra_clauses fixed bin,
  1    60     		2 fix_up_info char (5),
  1    61     		2 linage_info char (5),
  1    62     		2 first_dd_item char (5),
  1    63     		2 sort_out_info char (5),
  1    64     		2 db_info char (5),
  1    65     		2 realm_info char (5),
  1    66     		2 rc_realm_info char (5),
  1    67     		2 last_file_key char (5),
  1    68     		2 prog_coll_seq fixed bin,
  1    69 		2 init_cd_seg fixed bin,
  1    70 		2 init_cd_offset fixed bin(24),
  1    71     		2 input_error_exit fixed bin,
  1    72    		2 output_error_exit fixed bin,
  1    73     		2 i_o_error_exit fixed bin,
  1    74     		2 extend_error_exit fixed bin,
  1    75     		2 dummy15 fixed bin,
  1    76     		2 options,
  1    77       			3 cu bit (1),
  1    78       			3 st bit (1),
  1    79       			3 wn bit (1),
  1    80       			3 obs bit (1),
  1    81       			3 dm bit (1),
  1    82       			3 xrl bit (1),
  1    83       			3 xrn bit (1),
  1    84       			3 src bit (1),
  1    85       			3 obj bit (1),
  1    86       			3 exs bit (1),
  1    87       			3 sck bit (1),
  1    88       			3 rno bit (1),
  1    89 			3 u_l bit (1),
  1    90 			3 cnv bit (1),
  1    91 			3 cos bit (1),
  1    92 			3 fmt bit (1),
  1    93 			3 profile bit(1),
  1    94 			3 nw bit (1),
  1    95 			3 exp bit (1),		/* [4.0-0] */
  1    96 			3 card bit (1),  /*[4.1-1]*/
  1    97 			3 fil2 bit (5),
  1    98 			3 m_map bit (1),
  1    99 			3 m_bf bit (1),
  1   100 			3 m_fat bit (1),
  1   101 			3 m_wn bit (1),
  1   102 			3 m_obs bit(1),
  1   103 			3 pd bit(1),
  1   104       			3 oc bit(1),
  1   105     		2 supervisor bit (1),
  1   106     		2 dec_comma bit (1),
  1   107     		2 init_cd bit (1),
  1   108     		2 corr bit (1),
  1   109     		2 initl bit (1),
  1   110     		2 debug bit (1),
  1   111     		2 report bit (1),
  1   112     		2 sync_in_prog bit (1),
  1   113     		2 pd_section bit (1),
  1   114     		2 list_switch bit (1),
  1   115     		2 alpha_cond bit (1),
  1   116     		2 num_cond bit (1),
  1   117     		2 spec_sysin bit (1),
  1   118     		2 spec_sysout bit (1),
  1   119     		2 cpl_files bit (1),
  1   120     		2 obj_dec_comma bit (1),
  1   121 		2 default_sign_type bit (3),
  1   122 		2 use_debug bit(1),
  1   123 		2 syntax_trace bit(1),
  1   124 		2 comp_defaults,
  1   125 			3 comp	bit(1),
  1   126 			3 comp_1	bit(1),
  1   127 			3 comp_2	bit(1),
  1   128 			3 comp_3	bit(1),
  1   129 			3 comp_4	bit(1),
  1   130 			3 comp_5	bit(1),
  1   131 			3 comp_6	bit(1),
  1   132 			3 comp_7	bit(1),
  1   133 			3 comp_8 bit(1),
  1   134 		2 disp_defaults,
  1   135 			3 disp	bit(1),
  1   136 			3 disp_1	bit(1),
  1   137 			3 disp_2	bit(1),
  1   138 			3 disp_3	bit(1),
  1   139 			3 disp_4	bit(1),
  1   140 			3 disp_5  bit(1),
  1   141 			3 disp_6  bit(1),
  1   142 			3 disp_7  bit(1),
  1   143 		2 descriptor bit(2),
  1   144 		2 levsv  bit(3),		/*[4.0-1]*/
  1   145 		2 use_reporting bit(1),	/*[4.3-1]*/
  1   146 		2 cd bit(1),		/*[4.4-1]*/
  1   147 		2 dummy17 bit(3),
  1   148    		2 lvl_rstr bit(32),
  1   149    		2 inst_rstr bit(32),
  1   150 		2 comp_level char(1),
  1   151 		2 dummy18 char(30),
  1   152 		2 object_sign char (1),
  1   153     		2 last_print_rec char (5),
  1   154     		2 coll_seq_info char (5),
  1   155     		2 sys_status_seg fixed bin,
  1   156    		2 sys_status_offset fixed bin(24),
  1   157    		2 compiler_id fixed bin,
  1   158    		2 date_comp_ln fixed bin,
  1   159    		2 compile_mode bit(36),
  1   160    		2 default_temp fixed bin,
  1   161    		2 accept_device fixed bin,
  1   162    		2 display_device fixed bin,
  1   163    		2 cobol_cln fixed bin,	/*[5.1-1]*/
  1   164 		2 alphabet_offset fixed bin;
  1   165
  1   166
  1   167
  1   168 /* END INCLUDE FILE ...   cobol_fixed_common.incl.pl1 */
  1   169
       63
  2     1
  2     2 /* BEGIN INCLUDE FILE ... cobol_ext_.incl.pl1 */
  2     3 /* Last modified on 06/17/76 by ORN */
  2     4 /* Last modified on 12/28/76 by FCH */
  2     5 /* Last modified on 12/01/80 by FCH */
  2     6
  2     7 /*    <<<   SHARED EXTERNALS INCLUDE FILE   >>>    */
  2     8
  2     9
  2    10 dcl     cobol_ext_$cobol_afp ptr ext;
  2    11 dcl     cobol_afp ptr defined (  cobol_ext_$cobol_afp);
  2    12 dcl     cobol_ext_$cobol_analin_fileno ptr ext;
  2    13 dcl     cobol_analin_fileno ptr defined (  cobol_ext_$cobol_analin_fileno);
  2    14 dcl     cobol_ext_$report_first_token ptr ext;
  2    15 dcl     report_first_token ptr defined( cobol_ext_$report_first_token);
  2    16 dcl     cobol_ext_$report_last_token ptr ext;
  2    17 dcl     report_last_token ptr defined ( cobol_ext_$report_last_token);
  2    18 dcl     cobol_ext_$cobol_eltp ptr ext;
  2    19 dcl     cobol_eltp ptr defined (  cobol_ext_$cobol_eltp);
  2    20 dcl     cobol_ext_$cobol_cmfp ptr ext;
  2    21 dcl     cobol_cmfp ptr defined (  cobol_ext_$cobol_cmfp);
  2    22 dcl     cobol_ext_$cobol_com_fileno ptr ext;
  2    23 dcl     cobol_com_fileno ptr defined (  cobol_ext_$cobol_com_fileno);
  2    24 dcl     cobol_ext_$cobol_com_ptr ptr ext;
  2    25 dcl     cobol_com_ptr ptr defined (  cobol_ext_$cobol_com_ptr);
  2    26 dcl     cobol_ext_$cobol_dfp ptr ext;
  2    27 dcl     cobol_dfp ptr defined (  cobol_ext_$cobol_dfp);
  2    28 dcl     cobol_ext_$cobol_hfp ptr ext;
  2    29 dcl     cobol_hfp ptr defined (  cobol_ext_$cobol_hfp);
  2    30 dcl     cobol_ext_$cobol_m1fp ptr ext;
  2    31 dcl     cobol_m1fp ptr defined (  cobol_ext_$cobol_m1fp);
  2    32 dcl     cobol_ext_$cobol_m2fp ptr ext;
  2    33 dcl     cobol_m2fp ptr defined (  cobol_ext_$cobol_m2fp);
  2    34 dcl     cobol_ext_$cobol_min1_fileno ptr ext;
  2    35 dcl     cobol_min1_fileno ptr defined (  cobol_ext_$cobol_min1_fileno);
  2    36 dcl     cobol_ext_$cobol_min2_fileno_ptr ptr ext;
  2    37 dcl     cobol_min2_fileno_ptr ptr defined (  cobol_ext_$cobol_min2_fileno_ptr);
  2    38 dcl     cobol_ext_$cobol_name_fileno ptr ext;
  2    39 dcl     cobol_name_fileno ptr defined (  cobol_ext_$cobol_name_fileno);
  2    40 dcl     cobol_ext_$cobol_name_fileno_ptr ptr ext;
  2    41 dcl     cobol_name_fileno_ptr ptr defined (  cobol_ext_$cobol_name_fileno_ptr);
  2    42 dcl     cobol_ext_$cobol_ntfp ptr ext;
  2    43 dcl     cobol_ntfp ptr defined (  cobol_ext_$cobol_ntfp);
  2    44 dcl     cobol_ext_$cobol_pdofp ptr ext;
  2    45 dcl     cobol_pdofp ptr defined (  cobol_ext_$cobol_pdofp);
  2    46 dcl     cobol_ext_$cobol_pfp ptr ext;
  2    47 dcl     cobol_pfp ptr defined (  cobol_ext_$cobol_pfp);
  2    48 dcl     cobol_ext_$cobol_rm2fp ptr ext;
  2    49 dcl     cobol_rm2fp ptr defined (  cobol_ext_$cobol_rm2fp);
  2    50 dcl     cobol_ext_$cobol_rmin2fp ptr ext;
  2    51 dcl     cobol_rmin2fp ptr defined (  cobol_ext_$cobol_rmin2fp);
  2    52 dcl     cobol_ext_$cobol_curr_in ptr ext;
  2    53 dcl     cobol_curr_in ptr defined (  cobol_ext_$cobol_curr_in);
  2    54 dcl     cobol_ext_$cobol_curr_out ptr ext;
  2    55 dcl     cobol_curr_out ptr defined (  cobol_ext_$cobol_curr_out);
  2    56 dcl     cobol_ext_$cobol_sfp ptr ext;
  2    57 dcl     cobol_sfp ptr defined (  cobol_ext_$cobol_sfp);
  2    58 dcl     cobol_ext_$cobol_w1p ptr ext;
  2    59 dcl     cobol_w1p ptr defined (  cobol_ext_$cobol_w1p);
  2    60 dcl     cobol_ext_$cobol_w2p ptr ext;
  2    61 dcl     cobol_w2p ptr defined (  cobol_ext_$cobol_w2p);
  2    62 dcl     cobol_ext_$cobol_w3p ptr ext;
  2    63 dcl     cobol_w3p ptr defined (  cobol_ext_$cobol_w3p);
  2    64 dcl     cobol_ext_$cobol_w5p ptr ext;
  2    65 dcl     cobol_w5p ptr defined (  cobol_ext_$cobol_w5p);
  2    66 dcl     cobol_ext_$cobol_w6p ptr ext;
  2    67 dcl     cobol_w6p ptr defined (  cobol_ext_$cobol_w6p);
  2    68 dcl     cobol_ext_$cobol_w7p ptr ext;
  2    69 dcl     cobol_w7p ptr defined (  cobol_ext_$cobol_w7p);
  2    70 dcl     cobol_ext_$cobol_x3fp ptr ext;
  2    71 dcl     cobol_x3fp ptr defined (  cobol_ext_$cobol_x3fp);
  2    72 dcl	cobol_ext_$cobol_rwdd ptr ext;
  2    73 dcl	cobol_rwdd ptr defined(cobol_ext_$cobol_rwdd);
  2    74 dcl	cobol_ext_$cobol_rwpd ptr ext;
  2    75 dcl	cobol_rwpd ptr defined(cobol_ext_$cobol_rwpd);
  2    76
  2    77
  2    78 dcl     cobol_ext_$cobol_fileno1 fixed bin(24)ext;
  2    79 dcl     cobol_fileno1 fixed bin(24)defined (  cobol_ext_$cobol_fileno1);
  2    80 dcl     cobol_ext_$cobol_options_len fixed bin(24)ext;
  2    81 dcl     cobol_options_len fixed bin(24)defined (  cobol_ext_$cobol_options_len);
  2    82 dcl     cobol_ext_$cobol_pdout_fileno fixed bin(24)ext;
  2    83 dcl     cobol_pdout_fileno fixed bin(24)defined (  cobol_ext_$cobol_pdout_fileno);
  2    84 dcl     cobol_ext_$cobol_print_fileno fixed bin(24)ext;
  2    85 dcl     cobol_print_fileno fixed bin(24)defined (  cobol_ext_$cobol_print_fileno);
  2    86 dcl     cobol_ext_$cobol_rmin2_fileno fixed bin(24)ext;
  2    87 dcl     cobol_rmin2_fileno fixed bin(24)defined (  cobol_ext_$cobol_rmin2_fileno);
  2    88 dcl     cobol_ext_$cobol_x1_fileno fixed bin(24)ext;
  2    89 dcl     cobol_x1_fileno fixed bin(24)defined (  cobol_ext_$cobol_x1_fileno);
  2    90 dcl     cobol_ext_$cobol_x2_fileno fixed bin(24)ext;
  2    91 dcl     cobol_x2_fileno fixed bin(24)defined (  cobol_ext_$cobol_x2_fileno);
  2    92 dcl     cobol_ext_$cobol_x3_fileno fixed bin(24)ext;
  2    93 dcl     cobol_x3_fileno fixed bin(24)defined (  cobol_ext_$cobol_x3_fileno);
  2    94
  2    95 dcl     cobol_ext_$cobol_lpr char (5) ext;
  2    96 dcl     cobol_lpr char (5) defined (  cobol_ext_$cobol_lpr);				/* -2- */
  2    97 dcl     cobol_ext_$cobol_options char (120) ext;
  2    98 dcl     cobol_options char (120) defined (  cobol_ext_$cobol_options);          			/* -30- */
  2    99
  2   100 dcl     cobol_ext_$cobol_xlast8 bit (1) ext;
  2   101 dcl     cobol_xlast8 bit (1) defined (  cobol_ext_$cobol_xlast8);				/* -1- */
  2   102 dcl     cobol_ext_$report_exists bit (1) ext;
  2   103 dcl     report_exists bit (1) defined (  cobol_ext_$report_exists);
  2   104
  2   105
  2   106 /*    <<<   END OF SHARED EXTERNALS INCLUDE FILE   >>>    */
  2   107 /* END INCLUDE FILE ... cobol_ext_.incl.pl1 */
  2   108
       64
  3     1
  3     2 /* BEGIN INCLUDE FILE ...   cobol_sbh.incl.pl1 */
  3     3 /* Created by GM; Last modified July 17, 1974 by ORN */
  3     4
  3     5 dcl sym_ptr ptr;
  3     6 dcl	1 symbol_block_header aligned based(sym_ptr),
  3     7 	  2 decl_vers fixed bin ,
  3     8 	  2 identifier char(8) aligned,
  3     9 	  2 gen_version_number fixed bin,
  3    10 	  2 gen_creation_time fixed bin(71),
  3    11 	  2 object_creation_time fixed bin(71),
  3    12 	  2 generator char(8) aligned,
  3    13 	  2 gen_version_name_relp bit(18) unaligned,
  3    14 	  2 gen_version_name_length bit(18) unaligned,
  3    15 	  2 userid_relp bit(18) unaligned,
  3    16 	  2 userid_length bit(18) unaligned,
  3    17 	  2 comment_relp bit(18) unaligned,
  3    18 	  2 comment_length bit(18) unaligned,
  3    19 	  2 text_boundary bit(18) unaligned,
  3    20 	  2 stat_boundary bit(18) unaligned,
  3    21 	  2 source_map_relp bit(18) unaligned,
  3    22 	  2 area_relp bit(18) unaligned,
  3    23 	  2 section_relp bit(18) unaligned,
  3    24 	  2 block_size bit(18) unaligned,
  3    25 	  2 next_block_thread bit(18) unaligned,
  3    26 	  2 text_relocation_relp bit(18) unaligned,
  3    27 	  2 def_relocation_relp bit(18) unaligned,
  3    28 	  2 link_relocation_relp bit(18) unaligned,
  3    29 	  2 symbol_relocation_relp bit(18) unaligned,
  3    30 	  2 default_truncate bit(18) unaligned,
  3    31 	  2 optional_truncate bit(18) unaligned;
  3    32
  3    33 /* END INCLUDE FILE ...   cobol_sbh.incl.pl1 */
  3    34
       65
  4     1
  4     2 /* BEGIN INCLUDE FILE ... cobol_.incl.pl1 */
  4     3 /* last modified Feb 4, 1977 by ORN  */
  4     4
  4     5 /* This file defines all external data used in the generator phase of Multics Cobol */
  4     6
  4     7 /* POINTERS */
  4     8 dcl cobol_$text_base_ptr ptr  ext;
  4     9 dcl text_base_ptr ptr  defined (cobol_$text_base_ptr);
  4    10 dcl cobol_$con_end_ptr ptr  ext;
  4    11 dcl con_end_ptr ptr  defined (cobol_$con_end_ptr);
  4    12 dcl cobol_$def_base_ptr ptr  ext;
  4    13 dcl def_base_ptr ptr  defined (cobol_$def_base_ptr);
  4    14 dcl cobol_$link_base_ptr ptr  ext;
  4    15 dcl link_base_ptr ptr  defined (cobol_$link_base_ptr);
  4    16 dcl cobol_$sym_base_ptr ptr  ext;
  4    17 dcl sym_base_ptr ptr  defined (cobol_$sym_base_ptr);
  4    18 dcl cobol_$reloc_text_base_ptr ptr  ext;
  4    19 dcl reloc_text_base_ptr ptr  defined (cobol_$reloc_text_base_ptr);
  4    20 dcl cobol_$reloc_def_base_ptr ptr  ext;
  4    21 dcl reloc_def_base_ptr ptr  defined (cobol_$reloc_def_base_ptr);
  4    22 dcl cobol_$reloc_link_base_ptr ptr  ext;
  4    23 dcl reloc_link_base_ptr ptr  defined (cobol_$reloc_link_base_ptr);
  4    24 dcl cobol_$reloc_sym_base_ptr ptr  ext;
  4    25 dcl reloc_sym_base_ptr ptr  defined (cobol_$reloc_sym_base_ptr);
  4    26 dcl cobol_$reloc_work_base_ptr ptr  ext;
  4    27 dcl reloc_work_base_ptr ptr  defined (cobol_$reloc_work_base_ptr);
  4    28 dcl cobol_$pd_map_ptr ptr  ext;
  4    29 dcl pd_map_ptr ptr  defined (cobol_$pd_map_ptr);
  4    30 dcl cobol_$fixup_ptr ptr  ext;
  4    31 dcl fixup_ptr ptr  defined (cobol_$fixup_ptr);
  4    32 dcl cobol_$initval_base_ptr ptr  ext;
  4    33 dcl initval_base_ptr ptr  defined (cobol_$initval_base_ptr);
  4    34 dcl cobol_$initval_file_ptr ptr  ext;
  4    35 dcl initval_file_ptr ptr  defined (cobol_$initval_file_ptr);
  4    36 dcl cobol_$perform_list_ptr ptr  ext;
  4    37 dcl perform_list_ptr ptr  defined (cobol_$perform_list_ptr);
  4    38 dcl cobol_$alter_list_ptr ptr  ext;
  4    39 dcl alter_list_ptr ptr  defined (cobol_$alter_list_ptr);
  4    40 dcl cobol_$seg_init_list_ptr ptr  ext;
  4    41 dcl seg_init_list_ptr ptr  defined (cobol_$seg_init_list_ptr);
  4    42 dcl cobol_$temp_token_area_ptr ptr  ext;
  4    43 dcl temp_token_area_ptr ptr  defined (cobol_$temp_token_area_ptr);
  4    44 dcl cobol_$temp_token_ptr ptr  ext;
  4    45 dcl temp_token_ptr ptr  defined (cobol_$temp_token_ptr);
  4    46 dcl cobol_$token_block1_ptr ptr  ext;
  4    47 dcl token_block1_ptr ptr  defined (cobol_$token_block1_ptr);
  4    48 dcl cobol_$token_block2_ptr ptr  ext;
  4    49 dcl token_block2_ptr ptr  defined (cobol_$token_block2_ptr);
  4    50 dcl cobol_$minpral5_ptr ptr  ext;
  4    51 dcl minpral5_ptr ptr  defined (cobol_$minpral5_ptr);
  4    52 dcl cobol_$tag_table_ptr ptr  ext;
  4    53 dcl tag_table_ptr ptr  defined (cobol_$tag_table_ptr);
  4    54 dcl cobol_$map_data_ptr ptr  ext;
  4    55 dcl map_data_ptr ptr  defined (cobol_$map_data_ptr);
  4    56 dcl cobol_$ptr_status_ptr ptr  ext;
  4    57 dcl ptr_status_ptr ptr  defined (cobol_$ptr_status_ptr);
  4    58 dcl cobol_$reg_status_ptr ptr  ext;
  4    59 dcl reg_status_ptr ptr  defined (cobol_$reg_status_ptr);
  4    60 dcl cobol_$misc_base_ptr ptr ext;
  4    61 dcl misc_base_ptr ptr defined (cobol_$misc_base_ptr);
  4    62 dcl cobol_$misc_end_ptr ptr ext;
  4    63 dcl misc_end_ptr ptr defined (cobol_$misc_end_ptr);
  4    64 dcl cobol_$list_ptr ptr ext;
  4    65 dcl list_ptr ptr defined (cobol_$list_ptr);
  4    66 dcl cobol_$allo1_ptr ptr ext;
  4    67 dcl allo1_ptr ptr defined (cobol_$allo1_ptr);
  4    68 dcl cobol_$eln_ptr ptr ext;
  4    69 dcl eln_ptr ptr defined (cobol_$eln_ptr);
  4    70 dcl cobol_$diag_ptr ptr ext;
  4    71 dcl diag_ptr ptr defined (cobol_$diag_ptr);
  4    72 dcl cobol_$xref_token_ptr ptr ext;
  4    73 dcl xref_token_ptr ptr defined (cobol_$xref_token_ptr);
  4    74 dcl cobol_$xref_chain_ptr ptr ext;
  4    75 dcl xref_chain_ptr ptr defined (cobol_$xref_chain_ptr);
  4    76 dcl cobol_$statement_info_ptr ptr ext;
  4    77 dcl statement_info_ptr ptr defined (cobol_$statement_info_ptr);
  4    78 dcl cobol_$reswd_ptr ptr ext;
  4    79 dcl reswd_ptr ptr defined (cobol_$reswd_ptr);
  4    80 dcl cobol_$op_con_ptr ptr ext;
  4    81 dcl op_con_ptr ptr defined (cobol_$op_con_ptr);
  4    82 dcl cobol_$ntbuf_ptr ptr ext;
  4    83 dcl ntbuf_ptr ptr defined (cobol_$ntbuf_ptr);
  4    84 dcl cobol_$main_pcs_ptr ptr ext;
  4    85 dcl main_pcs_ptr ptr defined (cobol_$main_pcs_ptr);
  4    86 dcl cobol_$include_info_ptr ptr ext;
  4    87 dcl include_info_ptr ptr defined (cobol_$include_info_ptr);
  4    88
  4    89 /* FIXED BIN */
  4    90 dcl cobol_$text_wd_off fixed bin  ext;
  4    91 dcl text_wd_off fixed bin  defined (cobol_$text_wd_off);
  4    92 dcl cobol_$con_wd_off fixed bin  ext;
  4    93 dcl con_wd_off fixed bin  defined (cobol_$con_wd_off);
  4    94 dcl cobol_$def_wd_off fixed bin  ext;
  4    95 dcl def_wd_off fixed bin  defined (cobol_$def_wd_off);
  4    96 dcl cobol_$def_max fixed bin  ext;
  4    97 dcl def_max fixed bin  defined (cobol_$def_max);
  4    98 dcl cobol_$link_wd_off fixed bin  ext;
  4    99 dcl link_wd_off fixed bin  defined (cobol_$link_wd_off);
  4   100 dcl cobol_$link_max fixed bin  ext;
  4   101 dcl link_max fixed bin  defined (cobol_$link_max);
  4   102 dcl cobol_$sym_wd_off fixed bin  ext;
  4   103 dcl sym_wd_off fixed bin  defined (cobol_$sym_wd_off);
  4   104 dcl cobol_$sym_max fixed bin  ext;
  4   105 dcl sym_max fixed bin  defined (cobol_$sym_max);
  4   106 dcl cobol_$reloc_text_max fixed bin(24)  ext;
  4   107 dcl reloc_text_max fixed bin(24)  defined (cobol_$reloc_text_max);
  4   108 dcl cobol_$reloc_def_max fixed bin(24)  ext;
  4   109 dcl reloc_def_max fixed bin(24)  defined (cobol_$reloc_def_max);
  4   110 dcl cobol_$reloc_link_max fixed bin(24)  ext;
  4   111 dcl reloc_link_max fixed bin(24)  defined (cobol_$reloc_link_max);
  4   112 dcl cobol_$reloc_sym_max fixed bin(24)  ext;
  4   113 dcl reloc_sym_max fixed bin(24)  defined (cobol_$reloc_sym_max);
  4   114 dcl cobol_$reloc_work_max fixed bin(24)  ext;
  4   115 dcl reloc_work_max fixed bin(24)  defined (cobol_$reloc_work_max);
  4   116 dcl cobol_$pd_map_index fixed bin  ext;
  4   117 dcl pd_map_index fixed bin  defined (cobol_$pd_map_index);
  4   118 dcl cobol_$cobol_data_wd_off fixed bin  ext;
  4   119 dcl cobol_data_wd_off fixed bin  defined (cobol_$cobol_data_wd_off);
  4   120 dcl cobol_$stack_off fixed bin  ext;
  4   121 dcl stack_off fixed bin  defined (cobol_$stack_off);
  4   122 dcl cobol_$max_stack_off fixed bin  ext;
  4   123 dcl max_stack_off fixed bin  defined (cobol_$max_stack_off);
  4   124 dcl cobol_$init_stack_off fixed bin  ext;
  4   125 dcl init_stack_off fixed bin  defined (cobol_$init_stack_off);
  4   126 dcl cobol_$pd_map_sw fixed bin  ext;
  4   127 dcl pd_map_sw fixed bin  defined (cobol_$pd_map_sw);
  4   128 dcl cobol_$next_tag fixed bin  ext;
  4   129 dcl next_tag fixed bin  defined (cobol_$next_tag);
  4   130 dcl cobol_$data_init_flag fixed bin  ext;
  4   131 dcl data_init_flag fixed bin  defined (cobol_$data_init_flag);
  4   132 dcl cobol_$seg_init_flag fixed bin  ext;
  4   133 dcl seg_init_flag fixed bin  defined (cobol_$seg_init_flag);
  4   134 dcl cobol_$alter_flag fixed bin  ext;
  4   135 dcl alter_flag fixed bin  defined (cobol_$alter_flag);
  4   136 dcl cobol_$sect_eop_flag fixed bin  ext;
  4   137 dcl sect_eop_flag fixed bin  defined (cobol_$sect_eop_flag);
  4   138 dcl cobol_$para_eop_flag fixed bin  ext;
  4   139 dcl para_eop_flag fixed bin  defined (cobol_$para_eop_flag);
  4   140 dcl cobol_$priority_no fixed bin  ext;
  4   141 dcl priority_no fixed bin  defined (cobol_$priority_no);
  4   142 dcl cobol_$compile_count fixed bin ext;
  4   143 dcl compile_count fixed bin defined (cobol_$compile_count);
  4   144 dcl cobol_$ptr_assumption_ind fixed bin ext;
  4   145 dcl ptr_assumption_ind fixed bin defined (cobol_$ptr_assumption_ind);
  4   146 dcl cobol_$reg_assumption_ind fixed bin ext;
  4   147 dcl reg_assumption_ind fixed bin defined (cobol_$reg_assumption_ind);
  4   148 dcl cobol_$perform_para_index fixed bin ext;
  4   149 dcl perform_para_index fixed bin defined (cobol_$perform_para_index);
  4   150 dcl cobol_$perform_sect_index fixed bin ext;
  4   151 dcl perform_sect_index fixed bin defined (cobol_$perform_sect_index);
  4   152 dcl cobol_$alter_index fixed bin ext;
  4   153 dcl alter_index fixed bin defined (cobol_$alter_index);
  4   154 dcl cobol_$list_off fixed bin ext;
  4   155 dcl list_off fixed bin defined (cobol_$list_off);
  4   156 dcl cobol_$constant_offset fixed bin ext;
  4   157 dcl constant_offset fixed bin defined (cobol_$constant_offset);
  4   158 dcl cobol_$misc_max fixed bin ext;
  4   159 dcl misc_max fixed bin defined (cobol_$misc_max);
  4   160 dcl cobol_$pd_map_max fixed bin ext;
  4   161 dcl pd_map_max fixed bin defined (cobol_$pd_map_max);
  4   162 dcl cobol_$map_data_max fixed bin ext;
  4   163 dcl map_data_max fixed bin defined (cobol_$map_data_max);
  4   164 dcl cobol_$fixup_max fixed bin ext;
  4   165 dcl fixup_max fixed bin defined (cobol_$fixup_max);
  4   166 dcl cobol_$tag_table_max fixed bin ext;
  4   167 dcl tag_table_max fixed bin defined (cobol_$tag_table_max);
  4   168 dcl cobol_$temp_token_max fixed bin ext;
  4   169 dcl temp_token_max fixed bin defined (cobol_$temp_token_max);
  4   170 dcl cobol_$allo1_max fixed bin ext;
  4   171 dcl allo1_max fixed bin defined (cobol_$allo1_max);
  4   172 dcl cobol_$eln_max fixed bin ext;
  4   173 dcl eln_max fixed bin defined (cobol_$eln_max);
  4   174 dcl cobol_$debug_enable fixed bin ext;
  4   175 dcl debug_enable fixed bin defined (cobol_$debug_enable);
  4   176 dcl cobol_$non_source_offset fixed bin ext;
  4   177 dcl non_source_offset fixed bin defined (cobol_$non_source_offset);
  4   178 dcl cobol_$initval_flag fixed bin ext;
  4   179 dcl initval_flag fixed bin defined (cobol_$initval_flag);
  4   180 dcl cobol_$date_compiled_sw fixed bin ext;
  4   181 dcl date_compiled_sw fixed bin defined (cobol_$date_compiled_sw);
  4   182 dcl cobol_$include_cnt fixed bin ext;
  4   183 dcl include_cnt fixed bin defined (cobol_$include_cnt);
  4   184 dcl cobol_$fs_charcnt fixed bin ext;
  4   185 dcl fs_charcnt fixed bin defined (cobol_$fs_charcnt);
  4   186 dcl cobol_$ws_charcnt fixed bin ext;
  4   187 dcl ws_charcnt fixed bin defined (cobol_$ws_charcnt);
  4   188 dcl cobol_$coms_charcnt fixed bin ext;
  4   189 dcl coms_charcnt fixed bin defined (cobol_$coms_charcnt);
  4   190 dcl cobol_$ls_charcnt fixed bin ext;
  4   191 dcl ls_charcnt fixed bin defined (cobol_$ls_charcnt);
  4   192 dcl cobol_$cons_charcnt fixed bin ext;
  4   193 dcl cons_charcnt fixed bin defined (cobol_$cons_charcnt);
  4   194 dcl cobol_$value_cnt fixed bin ext;
  4   195 dcl value_cnt fixed bin defined (cobol_$value_cnt);
  4   196 dcl cobol_$cd_cnt fixed bin ext;
  4   197 dcl cd_cnt fixed bin defined (cobol_$cd_cnt);
  4   198 dcl cobol_$fs_wdoff fixed bin ext;
  4   199 dcl fs_wdoff fixed bin defined (cobol_$fs_wdoff);
  4   200 dcl cobol_$ws_wdoff fixed bin ext;
  4   201 dcl ws_wdoff fixed bin defined (cobol_$ws_wdoff);
  4   202 dcl cobol_$coms_wdoff fixed bin ext;
  4   203 dcl coms_wdoff fixed bin defined (cobol_$coms_wdoff);
  4   204
  4   205 /* CHARACTER */
  4   206 dcl cobol_$scratch_dir char (168)   aligned ext;
  4   207 dcl scratch_dir char (168)   aligned defined (cobol_$scratch_dir);			/* -42- */
  4   208 dcl cobol_$obj_seg_name char (32)   aligned ext;
  4   209 dcl obj_seg_name char (32)   aligned defined (cobol_$obj_seg_name);		/* -8- */
  4   210
  4   211 /* BIT */
  4   212 dcl cobol_$xref_bypass bit(1) aligned ext;
  4   213 dcl xref_bypass bit(1) aligned defined (cobol_$xref_bypass);			/* -1- */
  4   214 dcl cobol_$same_sort_merge_proc bit(1) aligned ext;
  4   215 dcl same_sort_merge_proc bit(1) aligned defined (cobol_$same_sort_merge_proc);		/* -1- */
  4   216
  4   217
  4   218 /* END INCLUDE FILE ... cobol_incl.pl1*/
  4   219
  4   220
       66
       67      end cobol_version;
	SOURCE FILES USED IN THIS COMPILATION.

LINE      NUMBER  DATE MODIFIED     NAME			PATHNAME
             0    10/19/90  1655.0  cobol_version.pl1                 >spec>install>1048>cobol_version.pl1
63           1    11/11/82  1812.8  cobol_fixed_common.incl.pl1       >ldd>include>cobol_fixed_common.incl.pl1
64           2    03/27/82  0531.3  cobol_ext_.incl.pl1               >ldd>include>cobol_ext_.incl.pl1
65           3    11/11/82  1812.7  cobol_sbh.incl.pl1                >ldd>include>cobol_sbh.incl.pl1
66           4    11/11/82  1812.7  cobol_.incl.pl1                   >ldd>include>cobol_.incl.pl1
	NAMES DECLARED IN THIS COMPILATION.

IDENTIFIER	     OFFSET    LOC STORAGE CLASS   DATA TYPE		ATTRIBUTES AND REFERENCES
								(* indicates a set context)

NAMES DECLARED BY DECLARE STATEMENT.
cobol_$obj_seg_name             000026 external static char(32)                 dcl 4-208 set ref 57*
cobol_$sym_base_ptr             000024 external static pointer                  dcl 4-16 ref 54
cobol_com_ptr                          defined         pointer                  dcl 2-25 ref 33 57
cobol_ext_$cobol_com_ptr        000016 external static pointer                  dcl 2-24 ref 33 33 57 57
cobol_ext_$cobol_options        000022 external static char(120)                packed unaligned dcl 2-97 ref 57 57 57 57
cobol_ext_$cobol_options_len    000020 external static fixed bin(24,0)          dcl 2-80 ref 57 57 57 57
cobol_options                          defined         char(120)                packed unaligned dcl 2-98 ref 57 57
cobol_options_len                      defined         fixed bin(24,0)          dcl 2-81 ref 57 57
compiler_rev_no           7(18)        based           char(25)                 level 2 packed packed unaligned dcl 1-26 set ref 33*
                                                                                  57*
date_time_                      000014 constant        entry                    external dcl 50 ref 56
dt                              000100 automatic       char(24)                 packed unaligned dcl 51 set ref 56* 57*
fixed_common                           based           structure                level 1 unaligned dcl 1-26
hdr_len                                parameter       fixed bin(17,0)          dcl 48 set ref 45 57*
hdr_lines                              parameter       char                     packed unaligned dcl 47 set ref 45 57*
ioa_                            000010 constant        entry                    external dcl 28 ref 40
ioa_$rs                         000012 constant        entry                    external dcl 49 ref 57
object_creation_time      6            based           fixed bin(71,0)          level 2 dcl 3-6 set ref 56*
substr                                                 builtin function         dcl 52 ref 57 57
sym_ptr                         000106 automatic       pointer                  dcl 3-5 set ref 54* 56
symbol_block_header                    based           structure                level 1 dcl 3-6

NAMES DECLARED BY DECLARE STATEMENT AND NEVER REFERENCED.
allo1_max                              defined         fixed bin(17,0)          dcl 4-171
allo1_ptr                              defined         pointer                  dcl 4-67
alter_flag                             defined         fixed bin(17,0)          dcl 4-135
alter_index                            defined         fixed bin(17,0)          dcl 4-153
alter_list_ptr                         defined         pointer                  dcl 4-39
cd_cnt                                 defined         fixed bin(17,0)          dcl 4-197
cobol_$allo1_max                       external static fixed bin(17,0)          dcl 4-170
cobol_$allo1_ptr                       external static pointer                  dcl 4-66
cobol_$alter_flag                      external static fixed bin(17,0)          dcl 4-134
cobol_$alter_index                     external static fixed bin(17,0)          dcl 4-152
cobol_$alter_list_ptr                  external static pointer                  dcl 4-38
cobol_$cd_cnt                          external static fixed bin(17,0)          dcl 4-196
cobol_$cobol_data_wd_off               external static fixed bin(17,0)          dcl 4-118
cobol_$compile_count                   external static fixed bin(17,0)          dcl 4-142
cobol_$coms_charcnt                    external static fixed bin(17,0)          dcl 4-188
cobol_$coms_wdoff                      external static fixed bin(17,0)          dcl 4-202
cobol_$con_end_ptr                     external static pointer                  dcl 4-10
cobol_$con_wd_off                      external static fixed bin(17,0)          dcl 4-92
cobol_$cons_charcnt                    external static fixed bin(17,0)          dcl 4-192
cobol_$constant_offset                 external static fixed bin(17,0)          dcl 4-156
cobol_$data_init_flag                  external static fixed bin(17,0)          dcl 4-130
cobol_$date_compiled_sw                external static fixed bin(17,0)          dcl 4-180
cobol_$debug_enable                    external static fixed bin(17,0)          dcl 4-174
cobol_$def_base_ptr                    external static pointer                  dcl 4-12
cobol_$def_max                         external static fixed bin(17,0)          dcl 4-96
cobol_$def_wd_off                      external static fixed bin(17,0)          dcl 4-94
cobol_$diag_ptr                        external static pointer                  dcl 4-70
cobol_$eln_max                         external static fixed bin(17,0)          dcl 4-172
cobol_$eln_ptr                         external static pointer                  dcl 4-68
cobol_$fixup_max                       external static fixed bin(17,0)          dcl 4-164
cobol_$fixup_ptr                       external static pointer                  dcl 4-30
cobol_$fs_charcnt                      external static fixed bin(17,0)          dcl 4-184
cobol_$fs_wdoff                        external static fixed bin(17,0)          dcl 4-198
cobol_$include_cnt                     external static fixed bin(17,0)          dcl 4-182
cobol_$include_info_ptr                external static pointer                  dcl 4-86
cobol_$init_stack_off                  external static fixed bin(17,0)          dcl 4-124
cobol_$initval_base_ptr                external static pointer                  dcl 4-32
cobol_$initval_file_ptr                external static pointer                  dcl 4-34
cobol_$initval_flag                    external static fixed bin(17,0)          dcl 4-178
cobol_$link_base_ptr                   external static pointer                  dcl 4-14
cobol_$link_max                        external static fixed bin(17,0)          dcl 4-100
cobol_$link_wd_off                     external static fixed bin(17,0)          dcl 4-98
cobol_$list_off                        external static fixed bin(17,0)          dcl 4-154
cobol_$list_ptr                        external static pointer                  dcl 4-64
cobol_$ls_charcnt                      external static fixed bin(17,0)          dcl 4-190
cobol_$main_pcs_ptr                    external static pointer                  dcl 4-84
cobol_$map_data_max                    external static fixed bin(17,0)          dcl 4-162
cobol_$map_data_ptr                    external static pointer                  dcl 4-54
cobol_$max_stack_off                   external static fixed bin(17,0)          dcl 4-122
cobol_$minpral5_ptr                    external static pointer                  dcl 4-50
cobol_$misc_base_ptr                   external static pointer                  dcl 4-60
cobol_$misc_end_ptr                    external static pointer                  dcl 4-62
cobol_$misc_max                        external static fixed bin(17,0)          dcl 4-158
cobol_$next_tag                        external static fixed bin(17,0)          dcl 4-128
cobol_$non_source_offset               external static fixed bin(17,0)          dcl 4-176
cobol_$ntbuf_ptr                       external static pointer                  dcl 4-82
cobol_$op_con_ptr                      external static pointer                  dcl 4-80
cobol_$para_eop_flag                   external static fixed bin(17,0)          dcl 4-138
cobol_$pd_map_index                    external static fixed bin(17,0)          dcl 4-116
cobol_$pd_map_max                      external static fixed bin(17,0)          dcl 4-160
cobol_$pd_map_ptr                      external static pointer                  dcl 4-28
cobol_$pd_map_sw                       external static fixed bin(17,0)          dcl 4-126
cobol_$perform_list_ptr                external static pointer                  dcl 4-36
cobol_$perform_para_index              external static fixed bin(17,0)          dcl 4-148
cobol_$perform_sect_index              external static fixed bin(17,0)          dcl 4-150
cobol_$priority_no                     external static fixed bin(17,0)          dcl 4-140
cobol_$ptr_assumption_ind              external static fixed bin(17,0)          dcl 4-144
cobol_$ptr_status_ptr                  external static pointer                  dcl 4-56
cobol_$reg_assumption_ind              external static fixed bin(17,0)          dcl 4-146
cobol_$reg_status_ptr                  external static pointer                  dcl 4-58
cobol_$reloc_def_base_ptr              external static pointer                  dcl 4-20
cobol_$reloc_def_max                   external static fixed bin(24,0)          dcl 4-108
cobol_$reloc_link_base_ptr             external static pointer                  dcl 4-22
cobol_$reloc_link_max                  external static fixed bin(24,0)          dcl 4-110
cobol_$reloc_sym_base_ptr              external static pointer                  dcl 4-24
cobol_$reloc_sym_max                   external static fixed bin(24,0)          dcl 4-112
cobol_$reloc_text_base_ptr             external static pointer                  dcl 4-18
cobol_$reloc_text_max                  external static fixed bin(24,0)          dcl 4-106
cobol_$reloc_work_base_ptr             external static pointer                  dcl 4-26
cobol_$reloc_work_max                  external static fixed bin(24,0)          dcl 4-114
cobol_$reswd_ptr                       external static pointer                  dcl 4-78
cobol_$same_sort_merge_proc            external static bit(1)                   dcl 4-214
cobol_$scratch_dir                     external static char(168)                dcl 4-206
cobol_$sect_eop_flag                   external static fixed bin(17,0)          dcl 4-136
cobol_$seg_init_flag                   external static fixed bin(17,0)          dcl 4-132
cobol_$seg_init_list_ptr               external static pointer                  dcl 4-40
cobol_$stack_off                       external static fixed bin(17,0)          dcl 4-120
cobol_$statement_info_ptr              external static pointer                  dcl 4-76
cobol_$sym_max                         external static fixed bin(17,0)          dcl 4-104
cobol_$sym_wd_off                      external static fixed bin(17,0)          dcl 4-102
cobol_$tag_table_max                   external static fixed bin(17,0)          dcl 4-166
cobol_$tag_table_ptr                   external static pointer                  dcl 4-52
cobol_$temp_token_area_ptr             external static pointer                  dcl 4-42
cobol_$temp_token_max                  external static fixed bin(17,0)          dcl 4-168
cobol_$temp_token_ptr                  external static pointer                  dcl 4-44
cobol_$text_base_ptr                   external static pointer                  dcl 4-8
cobol_$text_wd_off                     external static fixed bin(17,0)          dcl 4-90
cobol_$token_block1_ptr                external static pointer                  dcl 4-46
cobol_$token_block2_ptr                external static pointer                  dcl 4-48
cobol_$value_cnt                       external static fixed bin(17,0)          dcl 4-194
cobol_$ws_charcnt                      external static fixed bin(17,0)          dcl 4-186
cobol_$ws_wdoff                        external static fixed bin(17,0)          dcl 4-200
cobol_$xref_bypass                     external static bit(1)                   dcl 4-212
cobol_$xref_chain_ptr                  external static pointer                  dcl 4-74
cobol_$xref_token_ptr                  external static pointer                  dcl 4-72
cobol_afp                              defined         pointer                  dcl 2-11
cobol_analin_fileno                    defined         pointer                  dcl 2-13
cobol_cmfp                             defined         pointer                  dcl 2-21
cobol_com_fileno                       defined         pointer                  dcl 2-23
cobol_curr_in                          defined         pointer                  dcl 2-53
cobol_curr_out                         defined         pointer                  dcl 2-55
cobol_data_wd_off                      defined         fixed bin(17,0)          dcl 4-119
cobol_dfp                              defined         pointer                  dcl 2-27
cobol_eltp                             defined         pointer                  dcl 2-19
cobol_ext_$cobol_afp                   external static pointer                  dcl 2-10
cobol_ext_$cobol_analin_fileno         external static pointer                  dcl 2-12
cobol_ext_$cobol_cmfp                  external static pointer                  dcl 2-20
cobol_ext_$cobol_com_fileno            external static pointer                  dcl 2-22
cobol_ext_$cobol_curr_in               external static pointer                  dcl 2-52
cobol_ext_$cobol_curr_out              external static pointer                  dcl 2-54
cobol_ext_$cobol_dfp                   external static pointer                  dcl 2-26
cobol_ext_$cobol_eltp                  external static pointer                  dcl 2-18
cobol_ext_$cobol_fileno1               external static fixed bin(24,0)          dcl 2-78
cobol_ext_$cobol_hfp                   external static pointer                  dcl 2-28
cobol_ext_$cobol_lpr                   external static char(5)                  packed unaligned dcl 2-95
cobol_ext_$cobol_m1fp                  external static pointer                  dcl 2-30
cobol_ext_$cobol_m2fp                  external static pointer                  dcl 2-32
cobol_ext_$cobol_min1_fileno           external static pointer                  dcl 2-34
cobol_ext_$cobol_min2_fileno_ptr       external static pointer                  dcl 2-36
cobol_ext_$cobol_name_fileno           external static pointer                  dcl 2-38
cobol_ext_$cobol_name_fileno_ptr       external static pointer                  dcl 2-40
cobol_ext_$cobol_ntfp                  external static pointer                  dcl 2-42
cobol_ext_$cobol_pdofp                 external static pointer                  dcl 2-44
cobol_ext_$cobol_pdout_fileno          external static fixed bin(24,0)          dcl 2-82
cobol_ext_$cobol_pfp                   external static pointer                  dcl 2-46
cobol_ext_$cobol_print_fileno          external static fixed bin(24,0)          dcl 2-84
cobol_ext_$cobol_rm2fp                 external static pointer                  dcl 2-48
cobol_ext_$cobol_rmin2_fileno          external static fixed bin(24,0)          dcl 2-86
cobol_ext_$cobol_rmin2fp               external static pointer                  dcl 2-50
cobol_ext_$cobol_rwdd                  external static pointer                  dcl 2-72
cobol_ext_$cobol_rwpd                  external static pointer                  dcl 2-74
cobol_ext_$cobol_sfp                   external static pointer                  dcl 2-56
cobol_ext_$cobol_w1p                   external static pointer                  dcl 2-58
cobol_ext_$cobol_w2p                   external static pointer                  dcl 2-60
cobol_ext_$cobol_w3p                   external static pointer                  dcl 2-62
cobol_ext_$cobol_w5p                   external static pointer                  dcl 2-64
cobol_ext_$cobol_w6p                   external static pointer                  dcl 2-66
cobol_ext_$cobol_w7p                   external static pointer                  dcl 2-68
cobol_ext_$cobol_x1_fileno             external static fixed bin(24,0)          dcl 2-88
cobol_ext_$cobol_x2_fileno             external static fixed bin(24,0)          dcl 2-90
cobol_ext_$cobol_x3_fileno             external static fixed bin(24,0)          dcl 2-92
cobol_ext_$cobol_x3fp                  external static pointer                  dcl 2-70
cobol_ext_$cobol_xlast8                external static bit(1)                   packed unaligned dcl 2-100
cobol_ext_$report_exists               external static bit(1)                   packed unaligned dcl 2-102
cobol_ext_$report_first_token          external static pointer                  dcl 2-14
cobol_ext_$report_last_token           external static pointer                  dcl 2-16
cobol_fileno1                          defined         fixed bin(24,0)          dcl 2-79
cobol_hfp                              defined         pointer                  dcl 2-29
cobol_lpr                              defined         char(5)                  packed unaligned dcl 2-96
cobol_m1fp                             defined         pointer                  dcl 2-31
cobol_m2fp                             defined         pointer                  dcl 2-33
cobol_min1_fileno                      defined         pointer                  dcl 2-35
cobol_min2_fileno_ptr                  defined         pointer                  dcl 2-37
cobol_name_fileno                      defined         pointer                  dcl 2-39
cobol_name_fileno_ptr                  defined         pointer                  dcl 2-41
cobol_ntfp                             defined         pointer                  dcl 2-43
cobol_pdofp                            defined         pointer                  dcl 2-45
cobol_pdout_fileno                     defined         fixed bin(24,0)          dcl 2-83
cobol_pfp                              defined         pointer                  dcl 2-47
cobol_print_fileno                     defined         fixed bin(24,0)          dcl 2-85
cobol_rm2fp                            defined         pointer                  dcl 2-49
cobol_rmin2_fileno                     defined         fixed bin(24,0)          dcl 2-87
cobol_rmin2fp                          defined         pointer                  dcl 2-51
cobol_rwdd                             defined         pointer                  dcl 2-73
cobol_rwpd                             defined         pointer                  dcl 2-75
cobol_sfp                              defined         pointer                  dcl 2-57
cobol_w1p                              defined         pointer                  dcl 2-59
cobol_w2p                              defined         pointer                  dcl 2-61
cobol_w3p                              defined         pointer                  dcl 2-63
cobol_w5p                              defined         pointer                  dcl 2-65
cobol_w6p                              defined         pointer                  dcl 2-67
cobol_w7p                              defined         pointer                  dcl 2-69
cobol_x1_fileno                        defined         fixed bin(24,0)          dcl 2-89
cobol_x2_fileno                        defined         fixed bin(24,0)          dcl 2-91
cobol_x3_fileno                        defined         fixed bin(24,0)          dcl 2-93
cobol_x3fp                             defined         pointer                  dcl 2-71
cobol_xlast8                           defined         bit(1)                   packed unaligned dcl 2-101
compile_count                          defined         fixed bin(17,0)          dcl 4-143
coms_charcnt                           defined         fixed bin(17,0)          dcl 4-189
coms_wdoff                             defined         fixed bin(17,0)          dcl 4-203
con_end_ptr                            defined         pointer                  dcl 4-11
con_wd_off                             defined         fixed bin(17,0)          dcl 4-93
cons_charcnt                           defined         fixed bin(17,0)          dcl 4-193
constant_offset                        defined         fixed bin(17,0)          dcl 4-157
data_init_flag                         defined         fixed bin(17,0)          dcl 4-131
date_compiled_sw                       defined         fixed bin(17,0)          dcl 4-181
debug_enable                           defined         fixed bin(17,0)          dcl 4-175
def_base_ptr                           defined         pointer                  dcl 4-13
def_max                                defined         fixed bin(17,0)          dcl 4-97
def_wd_off                             defined         fixed bin(17,0)          dcl 4-95
diag_ptr                               defined         pointer                  dcl 4-71
eln_max                                defined         fixed bin(17,0)          dcl 4-173
eln_ptr                                defined         pointer                  dcl 4-69
fixup_max                              defined         fixed bin(17,0)          dcl 4-165
fixup_ptr                              defined         pointer                  dcl 4-31
fs_charcnt                             defined         fixed bin(17,0)          dcl 4-185
fs_wdoff                               defined         fixed bin(17,0)          dcl 4-199
include_cnt                            defined         fixed bin(17,0)          dcl 4-183
include_info_ptr                       defined         pointer                  dcl 4-87
init_stack_off                         defined         fixed bin(17,0)          dcl 4-125
initval_base_ptr                       defined         pointer                  dcl 4-33
initval_file_ptr                       defined         pointer                  dcl 4-35
initval_flag                           defined         fixed bin(17,0)          dcl 4-179
link_base_ptr                          defined         pointer                  dcl 4-15
link_max                               defined         fixed bin(17,0)          dcl 4-101
link_wd_off                            defined         fixed bin(17,0)          dcl 4-99
list_off                               defined         fixed bin(17,0)          dcl 4-155
list_ptr                               defined         pointer                  dcl 4-65
ls_charcnt                             defined         fixed bin(17,0)          dcl 4-191
main_pcs_ptr                           defined         pointer                  dcl 4-85
map_data_max                           defined         fixed bin(17,0)          dcl 4-163
map_data_ptr                           defined         pointer                  dcl 4-55
max_stack_off                          defined         fixed bin(17,0)          dcl 4-123
minpral5_ptr                           defined         pointer                  dcl 4-51
misc_base_ptr                          defined         pointer                  dcl 4-61
misc_end_ptr                           defined         pointer                  dcl 4-63
misc_max                               defined         fixed bin(17,0)          dcl 4-159
next_tag                               defined         fixed bin(17,0)          dcl 4-129
non_source_offset                      defined         fixed bin(17,0)          dcl 4-177
ntbuf_ptr                              defined         pointer                  dcl 4-83
obj_seg_name                           defined         char(32)                 dcl 4-209
op_con_ptr                             defined         pointer                  dcl 4-81
para_eop_flag                          defined         fixed bin(17,0)          dcl 4-139
pd_map_index                           defined         fixed bin(17,0)          dcl 4-117
pd_map_max                             defined         fixed bin(17,0)          dcl 4-161
pd_map_ptr                             defined         pointer                  dcl 4-29
pd_map_sw                              defined         fixed bin(17,0)          dcl 4-127
perform_list_ptr                       defined         pointer                  dcl 4-37
perform_para_index                     defined         fixed bin(17,0)          dcl 4-149
perform_sect_index                     defined         fixed bin(17,0)          dcl 4-151
priority_no                            defined         fixed bin(17,0)          dcl 4-141
ptr_assumption_ind                     defined         fixed bin(17,0)          dcl 4-145
ptr_status_ptr                         defined         pointer                  dcl 4-57
reg_assumption_ind                     defined         fixed bin(17,0)          dcl 4-147
reg_status_ptr                         defined         pointer                  dcl 4-59
reloc_def_base_ptr                     defined         pointer                  dcl 4-21
reloc_def_max                          defined         fixed bin(24,0)          dcl 4-109
reloc_link_base_ptr                    defined         pointer                  dcl 4-23
reloc_link_max                         defined         fixed bin(24,0)          dcl 4-111
reloc_sym_base_ptr                     defined         pointer                  dcl 4-25
reloc_sym_max                          defined         fixed bin(24,0)          dcl 4-113
reloc_text_base_ptr                    defined         pointer                  dcl 4-19
reloc_text_max                         defined         fixed bin(24,0)          dcl 4-107
reloc_work_base_ptr                    defined         pointer                  dcl 4-27
reloc_work_max                         defined         fixed bin(24,0)          dcl 4-115
report_exists                          defined         bit(1)                   packed unaligned dcl 2-103
report_first_token                     defined         pointer                  dcl 2-15
report_last_token                      defined         pointer                  dcl 2-17
reswd_ptr                              defined         pointer                  dcl 4-79
same_sort_merge_proc                   defined         bit(1)                   dcl 4-215
scratch_dir                            defined         char(168)                dcl 4-207
sect_eop_flag                          defined         fixed bin(17,0)          dcl 4-137
seg_init_flag                          defined         fixed bin(17,0)          dcl 4-133
seg_init_list_ptr                      defined         pointer                  dcl 4-41
stack_off                              defined         fixed bin(17,0)          dcl 4-121
statement_info_ptr                     defined         pointer                  dcl 4-77
sym_base_ptr                           defined         pointer                  dcl 4-17
sym_max                                defined         fixed bin(17,0)          dcl 4-105
sym_wd_off                             defined         fixed bin(17,0)          dcl 4-103
tag_table_max                          defined         fixed bin(17,0)          dcl 4-167
tag_table_ptr                          defined         pointer                  dcl 4-53
temp_token_area_ptr                    defined         pointer                  dcl 4-43
temp_token_max                         defined         fixed bin(17,0)          dcl 4-169
temp_token_ptr                         defined         pointer                  dcl 4-45
text_base_ptr                          defined         pointer                  dcl 4-9
text_wd_off                            defined         fixed bin(17,0)          dcl 4-91
token_block1_ptr                       defined         pointer                  dcl 4-47
token_block2_ptr                       defined         pointer                  dcl 4-49
value_cnt                              defined         fixed bin(17,0)          dcl 4-195
ws_charcnt                             defined         fixed bin(17,0)          dcl 4-187
ws_wdoff                               defined         fixed bin(17,0)          dcl 4-201
xref_bypass                            defined         bit(1)                   dcl 4-213
xref_chain_ptr                         defined         pointer                  dcl 4-75
xref_token_ptr                         defined         pointer                  dcl 4-73

NAMES DECLARED BY EXPLICIT CONTEXT.
cobol_version                   000061 constant        entry                    external dcl 25
header                          000132 constant        entry                    external dcl 45
print                           000104 constant        entry                    external dcl 38
set                             000070 constant        entry                    external dcl 31
start_header                    000145 constant        label                    dcl 54
start_print                     000111 constant        label                    dcl 40
start_set                       000075 constant        label                    dcl 33

THERE WERE NO NAMES DECLARED BY CONTEXT OR IMPLICATION.

STORAGE REQUIREMENTS FOR THIS PROGRAM.

	Object	Text	Link	Symbol	Defs	Static
Start          0       0       406         436     252         416
Length       700     252        30         226     133           0

BLOCK NAME	         STACK SIZE     TYPE		WHY NONQUICK/WHO SHARES STACK FRAME
cobol_version                       156 external procedure  is an external procedure.

STORAGE FOR AUTOMATIC VARIABLES.

STACK FRAME                 LOC IDENTIFIER                  BLOCK NAME
cobol_version            000100 dt                          cobol_version
                         000106 sym_ptr                     cobol_version

THE FOLLOWING EXTERNAL OPERATORS ARE USED BY THIS PROGRAM.
alloc_char_temp     call_ext_out_desc   return_mac          shorten_stack       ext_entry           ext_entry_desc

THE FOLLOWING EXTERNAL ENTRIES ARE CALLED BY THIS PROGRAM.
date_time_                    ioa_                          ioa_$rs

THE FOLLOWING EXTERNAL VARIABLES ARE USED BY THIS PROGRAM.
cobol_$obj_seg_name           cobol_$sym_base_ptr           cobol_ext_$cobol_com_ptr      cobol_ext_$cobol_options
cobol_ext_$cobol_options_len


   LINE    LOC      LINE    LOC      LINE    LOC      LINE    LOC      LINE    LOC      LINE    LOC      LINE    LOC
     25 000060        31 000066        33 000075        35 000102        38 000103        40 000111        42 000125
     45 000126        54 000145        56 000151        57 000166        61 000250


                                          -----------------------------------------------------------


Historical Background

This edition of the Multics software materials and documentation is provided and donated
to Massachusetts Institute of Technology by Group BULL including BULL HN Information Systems Inc.
as a contribution to computer science knowledge.
This donation is made also to give evidence of the common contributions of Massachusetts Institute of Technology,
Bell Laboratories, General Electric, Honeywell Information Systems Inc., Honeywell BULL Inc., Groupe BULL
and BULL HN Information Systems Inc. to the development of this operating system.
Multics development was initiated by Massachusetts Institute of Technology Project MAC (1963-1970),
renamed the MIT Laboratory for Computer Science and Artificial Intelligence in the mid 1970s, under the leadership
of Professor Fernando Jose Corbato. Users consider that Multics provided the best software architecture
for managing computer hardware properly and for executing programs. Many subsequent operating systems
incorporated Multics principles.
Multics was distributed in 1975 to 2000 by Group Bull in Europe , and in the U.S. by Bull HN Information Systems Inc.,
as successor in interest by change in name only to Honeywell Bull Inc. and Honeywell Information Systems Inc. .

                                          -----------------------------------------------------------

Permission to use, copy, modify, and distribute these programs and their documentation for any purpose and without
fee is hereby granted,provided that the below copyright notice and historical background appear in all copies
and that both the copyright notice and historical background and this permission notice appear in supporting
documentation, and that the names of MIT, HIS, BULL or BULL HN not be used in advertising or publicity pertaining
to distribution of the programs without specific prior written permission.
    Copyright 1972 by Massachusetts Institute of Technology and Honeywell Information Systems Inc.
    Copyright 2006 by BULL HN Information Systems Inc.
    Copyright 2006 by Bull SAS
    All Rights Reserved
