ASSEMBLY LISTING OF SEGMENT >spec>on>11/11/82>cobol_rw.alm
ASSEMBLED ON:	11/11/82  1038.6 mst Thu
OPTIONS USED:	list
ASSEMBLED BY:	ALM Version  6.4  April 1981
ASSEMBLER CREATED:	11/03/82  1423.6 mst Wed

                                     1  " ***********************************************************
                                     2  " *                                                         *
                                     3  " * Copyright, (C) Honeywell Information Systems Inc., 1982 *
                                     4  " *                                                         *
                                     5  " ***********************************************************
    000000                           6  	name	cobol_rw
                        000000       7  	entry	cobol_rw
    000000  aa   000060 6270 00      8  cobol_rw:	save
    000001  aa  7 00040 2721 20
    000002  0a   000000 3520 00      9  	epp2	cobol_rw
    000003  aa  0 00002 2521 20     10  	spri2	ap|2,*
    000004  aa  7 00042 7101 20     11  	return
                        000000      12  		equ i_r,0
                        000001      13  		equ i_c,1
                        000003      14  		equ i_s,3
                        000002      15  		equ i_n,2
                        000004      16  		equ i_k,4
                        000005      17  		equ i_K,5
                        000000      18  		equ l_org,*-5
    000005  aa   040040 040040      19  	rs:	vfd a36/    ,36/i_n,36/0,36/(r1-l_org)/5,36/a_recov_loc
    000006  aa   000000 000002
    000007  aa   000000 000000
    000010  aa   000000 000573
    000011  aa   000000 000003
    000012  aa   040040 040040      20  l_1:		vfd a36/    ,36/i_s,36/(reports-l_org)/5,36/(l_2-l_org)/5,36/0
    000013  aa   000000 000003
    000014  aa   000000 000005
    000015  aa   000000 000004
    000016  aa   000000 000000
    000017  aa   040040 040040      21  		vfd a36/    ,36/i_n,36/0,36/(l_2-l_org)/5,36/0
    000020  aa   000000 000002
    000021  aa   000000 000000
    000022  aa   000000 000004
    000023  aa   000000 000000
    000024  aa   040040 040040      22  l_2:	rs_1:	vfd a36/    ,36/i_n,36/0,36/(rs_1-l_org)/5,36/a_rs_exit
    000025  aa   000000 000002
    000026  aa   000000 000000
    000027  aa   000000 000004
    000030  aa   000000 000115
    000031  aa   040040 040040      23  	reports:	vfd a36/    ,36/i_n,36/0,36/(r2-l_org)/5,36/a_recov_loc
    000032  aa   000000 000002
    000033  aa   000000 000000
    000034  aa   000000 000575
    000035  aa   000000 000003
    000036  aa   040040 040040      24  l_3:		vfd a36/    ,36/i_s,36/(rep_hdr-l_org)/5,36/(l_4-l_org)/5,36/a_rep_init
    000037  aa   000000 000003
    000040  aa   000000 000017
    000041  aa   000000 000010
    000042  aa   000000 000012
    000043  aa   040040 040040      25  		vfd a36/    ,36/i_n,36/0,36/(fail-l_org)/5,36/0
    000044  aa   000000 000002
    000045  aa   000000 000000
    000046  aa   000000 000572
    000047  aa   000000 000000
    000050  aa   040040 040040      26  l_4:		vfd a36/    ,36/i_s,36/(report-l_org)/5,36/(l_5-l_org)/5,36/a_rep_add
    000051  aa   000000 000003
    000052  aa   000000 000025
    000053  aa   000000 000013
    000054  aa   000000 000013
    000055  aa   040040 040040      27  		vfd a36/    ,36/i_n,36/0,36/(l_5-l_org)/5,36/a_recvy
    000056  aa   000000 000002
    000057  aa   000000 000000
    000060  aa   000000 000013
    000061  aa   000000 000004
    000062  aa   040040 040040      28  		vfd a36/    ,36/i_n,36/0,36/(fail-l_org)/5,36/0
    000063  aa   000000 000002
    000064  aa   000000 000000
    000065  aa   000000 000572
    000066  aa   000000 000000
    000067  aa   040040 040040      29  l_5:	reps_1:	vfd a36/    ,36/i_c,36/c_eof,36/(succ-l_org)/5,36/0
    000070  aa   000000 000001
    000071  aa   000000 000001
    000072  aa   000000 000571
    000073  aa   000000 000000
    000074  aa   040040 040040      30  		vfd a36/    ,36/i_s,36/(report-l_org)/5,36/(reps_1-l_org)/5,36/a_rep_add
    000075  aa   000000 000003
    000076  aa   000000 000025
    000077  aa   000000 000013
    000100  aa   000000 000013
    000101  aa   040040 040040      31  		vfd a36/    ,36/i_n,36/0,36/(l_6-l_org)/5,36/a_recvy
    000102  aa   000000 000002
    000103  aa   000000 000000
    000104  aa   000000 000017
    000105  aa   000000 000004
    000106  aa   040040 040040      32  		vfd a36/    ,36/i_n,36/0,36/(fail-l_org)/5,36/0
    000107  aa   000000 000002
    000110  aa   000000 000000
    000111  aa   000000 000572
    000112  aa   000000 000000
    000113  aa   163040 040040      33  l_6:	rep_hdr:	vfd a36/s   ,36/i_r,36/r_report,36/(l_7-l_org)/5,36/0
    000114  aa   000000 000000
    000115  aa   000000 000360
    000116  aa   000000 000021
    000117  aa   000000 000000
    000120  aa   040040 040040      34  		vfd a36/    ,36/i_n,36/0,36/(fail-l_org)/5,36/0
    000121  aa   000000 000002
    000122  aa   000000 000000
    000123  aa   000000 000572
    000124  aa   000000 000000
    000125  aa   163040 040040      35  l_7:		vfd a36/s   ,36/i_r,36/r_section,36/(l_8-l_org)/5,36/0
    000126  aa   000000 000000
    000127  aa   000000 000236
    000130  aa   000000 000023
    000131  aa   000000 000000
    000132  aa   040040 040040      36  		vfd a36/    ,36/i_n,36/0,36/(fail-l_org)/5,36/0
    000133  aa   000000 000002
    000134  aa   000000 000000
    000135  aa   000000 000572
    000136  aa   000000 000000
    000137  aa   163040 040040      37  l_8:		vfd a36/s   ,36/i_r,36/r_per,36/(succ-l_org)/5,36/0
    000140  aa   000000 000000
    000141  aa   000000 000275
    000142  aa   000000 000571
    000143  aa   000000 000000
    000144  aa   040040 040040      38  		vfd a36/    ,36/i_n,36/0,36/(fail-l_org)/5,36/0
    000145  aa   000000 000002
    000146  aa   000000 000000
    000147  aa   000000 000572
    000150  aa   000000 000000
    000151  aa   040040 040040      39  	report:	vfd a36/    ,36/i_n,36/0,36/(r6-l_org)/5,36/a_recov_loc
    000152  aa   000000 000002
    000153  aa   000000 000000
    000154  aa   000000 000577
    000155  aa   000000 000003
    000156  aa   040040 040040      40  l_9:		vfd a36/    ,36/i_s,36/(rd-l_org)/5,36/(l_10-l_org)/5,36/a_rep_group_1
    000157  aa   000000 000003
    000160  aa   000000 000037
    000161  aa   000000 000030
    000162  aa   000000 000105
    000163  aa   040040 040040      41  		vfd a36/    ,36/i_n,36/0,36/(fail-l_org)/5,36/0
    000164  aa   000000 000002
    000165  aa   000000 000000
    000166  aa   000000 000572
    000167  aa   000000 000000
    000170  aa   040040 040040      42  l_10:		vfd a36/    ,36/i_c,36/c_lev_num,36/(rep_2-l_org)/5,36/0
    000171  aa   000000 000001
    000172  aa   000000 000002
    000173  aa   000000 000034
    000174  aa   000000 000000
    000175  aa   040040 040040      43  		vfd a36/    ,36/i_n,36/123,36/(fail-l_org)/5,36/0
    000176  aa   000000 000002
    000177  aa   000000 000173
    000200  aa   000000 000572
    000201  aa   000000 000000
    000202  aa   040040 040040      44  	rep_1:	vfd a36/    ,36/i_c,36/c_lev_num,36/(l_11-l_org)/5,36/0
    000203  aa   000000 000001
    000204  aa   000000 000002
    000205  aa   000000 000034
    000206  aa   000000 000000
    000207  aa   040040 040040      45  		vfd a36/    ,36/i_n,36/0,36/(succ-l_org)/5,36/0
    000210  aa   000000 000002
    000211  aa   000000 000000
    000212  aa   000000 000571
    000213  aa   000000 000000
    000214  aa   040040 040040      46  l_11:	rep_2:	vfd a36/    ,36/i_s,36/(rg_entry-l_org)/5,36/(rep_1-l_org)/5,36/a_rep_group
    000215  aa   000000 000003
    000216  aa   000000 000145
    000217  aa   000000 000032
    000220  aa   000000 000102
    000221  aa   040040 040040      47  		vfd a36/    ,36/i_n,36/0,36/(l_12-l_org)/5,36/a_recvy
    000222  aa   000000 000002
    000223  aa   000000 000000
    000224  aa   000000 000037
    000225  aa   000000 000004
    000226  aa   040040 040040      48  		vfd a36/    ,36/i_n,36/0,36/(fail-l_org)/5,36/0
    000227  aa   000000 000002
    000230  aa   000000 000000
    000231  aa   000000 000572
    000232  aa   000000 000000
    000233  aa   040040 040040      49  l_12:	rd:	vfd a36/    ,36/i_n,36/0,36/(r3-l_org)/5,36/a_recov_loc
    000234  aa   000000 000002
    000235  aa   000000 000000
    000236  aa   000000 000601
    000237  aa   000000 000003
    000240  aa   163040 040040      50  l_13:		vfd a36/s   ,36/i_r,36/r_rd,36/(l_14-l_org)/5,36/a_rd_init
    000241  aa   000000 000000
    000242  aa   000000 001110
    000243  aa   000000 000042
    000244  aa   000000 000065
    000245  aa   040040 040040      51  		vfd a36/    ,36/i_n,36/0,36/(fail-l_org)/5,36/0
    000246  aa   000000 000002
    000247  aa   000000 000000
    000250  aa   000000 000572
    000251  aa   000000 000000
    000252  aa   163040 040040      52  l_14:		vfd a36/s   ,36/i_c,36/c_type8,36/(l_15-l_org)/5,36/a_rd_name
    000253  aa   000000 000001
    000254  aa   000000 000004
    000255  aa   000000 000043
    000256  aa   000000 000066
    000257  aa   040040 040040      53  l_15:		vfd a36/    ,36/i_k,36/k_rw_rd,36/(l_16-l_org)/5,36/0
    000260  aa   000000 000004
    000261  aa   000000 000001
    000262  aa   000000 000045
    000263  aa   000000 000000
    000264  aa   040040 040040      54  		vfd a36/    ,36/i_n,36/124,36/(rd_5-l_org)/5,36/0
    000265  aa   000000 000002
    000266  aa   000000 000174
    000267  aa   000000 000060
    000270  aa   000000 000000
    000271  aa   040040 040040      55  l_16:	rd_1:	vfd a36/    ,36/i_K,36/k_rw_rd,36/(rd_5-l_org)/5,36/0
    000272  aa   000000 000005
    000273  aa   000000 000001
    000274  aa   000000 000060
    000275  aa   000000 000000
    000276  aa   163040 040040      56  		vfd a36/s   ,36/i_n,36/0,36/(succ-l_org)/5,36/0
    000277  aa   000000 000002
    000300  aa   000000 000000
    000301  aa   000000 000571
    000302  aa   000000 000000
    000303  aa   163040 040040      57  		vfd a36/s   ,36/i_n,36/0,36/(rd_2-l_org)/5,36/a_rd_cl_num
    000304  aa   000000 000002
    000305  aa   000000 000000
    000306  aa   000000 000052
    000307  aa   000000 000067
    000310  aa   163040 040040      58  		vfd a36/s   ,36/i_n,36/0,36/(rd_3-l_org)/5,36/a_rd_cl_num
    000311  aa   000000 000002
    000312  aa   000000 000000
    000313  aa   000000 000054
    000314  aa   000000 000067
    000315  aa   163040 040040      59  		vfd a36/s   ,36/i_n,36/0,36/(rd_4-l_org)/5,36/a_rd_cl_num
    000316  aa   000000 000002
    000317  aa   000000 000000
    000320  aa   000000 000056
    000321  aa   000000 000067
    000322  aa   040040 040040      60  	rd_2:	vfd a36/    ,36/i_s,36/(code-l_org)/5,36/(rd_1-l_org)/5,36/a_rd_clause
    000323  aa   000000 000003
    000324  aa   000000 000062
    000325  aa   000000 000045
    000326  aa   000000 000070
    000327  aa   040040 040040      61  		vfd a36/    ,36/i_n,36/120,36/(rd_5-l_org)/5,36/0
    000330  aa   000000 000002
    000331  aa   000000 000170
    000332  aa   000000 000060
    000333  aa   000000 000000
    000334  aa   040040 040040      62  	rd_3:	vfd a36/    ,36/i_s,36/(control-l_org)/5,36/(rd_1-l_org)/5,36/a_rd_clause
    000335  aa   000000 000003
    000336  aa   000000 000064
    000337  aa   000000 000045
    000340  aa   000000 000070
    000341  aa   040040 040040      63  		vfd a36/    ,36/i_n,36/121,36/(rd_5-l_org)/5,36/0
    000342  aa   000000 000002
    000343  aa   000000 000171
    000344  aa   000000 000060
    000345  aa   000000 000000
    000346  aa   040040 040040      64  	rd_4:	vfd a36/    ,36/i_s,36/(page-l_org)/5,36/(rd_1-l_org)/5,36/a_rd_clause
    000347  aa   000000 000003
    000350  aa   000000 000116
    000351  aa   000000 000045
    000352  aa   000000 000070
    000353  aa   040040 040040      65  		vfd a36/    ,36/i_n,36/122,36/(rd_5-l_org)/5,36/0
    000354  aa   000000 000002
    000355  aa   000000 000172
    000356  aa   000000 000060
    000357  aa   000000 000000
    000360  aa   040040 040040      66  	rd_5:	vfd a36/    ,36/i_n,36/0,36/(l_17-l_org)/5,36/a_recvy
    000361  aa   000000 000002
    000362  aa   000000 000000
    000363  aa   000000 000062
    000364  aa   000000 000004
    000365  aa   040040 040040      67  		vfd a36/    ,36/i_n,36/0,36/(fail-l_org)/5,36/0
    000366  aa   000000 000002
    000367  aa   000000 000000
    000370  aa   000000 000572
    000371  aa   000000 000000
    000372  aa   163040 040040      68  l_17:	code:	vfd a36/s   ,36/i_c,36/c_code_lit,36/(succ-l_org)/5,36/a_code
    000373  aa   000000 000001
    000374  aa   000000 000005
    000375  aa   000000 000571
    000376  aa   000000 000071
    000377  aa   040040 040040      69  		vfd a36/    ,36/i_n,36/0,36/(fail-l_org)/5,36/0
    000400  aa   000000 000002
    000401  aa   000000 000000
    000402  aa   000000 000572
    000403  aa   000000 000000
    000404  aa   040040 040040      70  	control:	vfd a36/    ,36/i_n,36/0,36/(l_18-l_org)/5,36/a_con_init
    000405  aa   000000 000002
    000406  aa   000000 000000
    000407  aa   000000 000065
    000410  aa   000000 000073
    000411  aa   163040 040040      71  l_18:		vfd a36/s   ,36/i_r,36/r_is,36/(l_19-l_org)/5,36/0
    000412  aa   000000 000000
    000413  aa   000000 000166
    000414  aa   000000 000066
    000415  aa   000000 000000
    000416  aa   163040 040040      72  l_19:		vfd a36/s   ,36/i_r,36/r_final,36/(c_1-l_org)/5,36/0
    000417  aa   000000 000000
    000420  aa   000000 001042
    000421  aa   000000 000073
    000422  aa   000000 000000
    000423  aa   040040 040040      73  		vfd a36/    ,36/i_c,36/c_type8,36/(l_20-l_org)/5,36/0
    000424  aa   000000 000001
    000425  aa   000000 000004
    000426  aa   000000 000071
    000427  aa   000000 000000
    000430  aa   040040 040040      74  		vfd a36/    ,36/i_n,36/0,36/(fail-l_org)/5,36/0
    000431  aa   000000 000002
    000432  aa   000000 000000
    000433  aa   000000 000572
    000434  aa   000000 000000
    000435  aa   040040 040040      75  l_20:		vfd a36/    ,36/i_s,36/(q_names-l_org)/5,36/(succ-l_org)/5,36/a_con_1
    000436  aa   000000 000003
    000437  aa   000000 000077
    000440  aa   000000 000571
    000441  aa   000000 000112
    000442  aa   040040 040040      76  		vfd a36/    ,36/i_n,36/0,36/(fail-l_org)/5,36/0
    000443  aa   000000 000002
    000444  aa   000000 000000
    000445  aa   000000 000572
    000446  aa   000000 000000
    000447  aa   040040 040040      77  	c_1:	vfd a36/    ,36/i_c,36/c_type8,36/(l_21-l_org)/5,36/0
    000450  aa   000000 000001
    000451  aa   000000 000004
    000452  aa   000000 000075
    000453  aa   000000 000000
    000454  aa   040040 040040      78  		vfd a36/    ,36/i_n,36/0,36/(succ-l_org)/5,36/a_con_3
    000455  aa   000000 000002
    000456  aa   000000 000000
    000457  aa   000000 000571
    000460  aa   000000 000123
    000461  aa   040040 040040      79  l_21:		vfd a36/    ,36/i_s,36/(q_names-l_org)/5,36/(succ-l_org)/5,36/a_con_2
    000462  aa   000000 000003
    000463  aa   000000 000077
    000464  aa   000000 000571
    000465  aa   000000 000072
    000466  aa   040040 040040      80  		vfd a36/    ,36/i_n,36/0,36/(fail-l_org)/5,36/0
    000467  aa   000000 000002
    000470  aa   000000 000000
    000471  aa   000000 000572
    000472  aa   000000 000000
    000473  aa   040040 040040      81  	q_names:	vfd a36/    ,36/i_n,36/0,36/(l_22-l_org)/5,36/a_con_name
    000474  aa   000000 000002
    000475  aa   000000 000000
    000476  aa   000000 000100
    000477  aa   000000 000074
    000500  aa   040040 040040      82  l_22:		vfd a36/    ,36/i_s,36/(q_name-l_org)/5,36/(l_23-l_org)/5,36/a_con_name_1
    000501  aa   000000 000003
    000502  aa   000000 000106
    000503  aa   000000 000102
    000504  aa   000000 000110
    000505  aa   040040 040040      83  		vfd a36/    ,36/i_n,36/0,36/(fail-l_org)/5,36/0
    000506  aa   000000 000002
    000507  aa   000000 000000
    000510  aa   000000 000572
    000511  aa   000000 000000
    000512  aa   040040 040040      84  l_23:	q_names_1:	vfd a36/    ,36/i_c,36/c_type8,36/(l_24-l_org)/5,36/0
    000513  aa   000000 000001
    000514  aa   000000 000004
    000515  aa   000000 000104
    000516  aa   000000 000000
    000517  aa   040040 040040      85  		vfd a36/    ,36/i_n,36/0,36/(succ-l_org)/5,36/a_con_name_2
    000520  aa   000000 000002
    000521  aa   000000 000000
    000522  aa   000000 000571
    000523  aa   000000 000111
    000524  aa   040040 040040      86  l_24:		vfd a36/    ,36/i_s,36/(q_name-l_org)/5,36/(q_names_1-l_org)/5,36/a_con_name_1
    000525  aa   000000 000003
    000526  aa   000000 000106
    000527  aa   000000 000102
    000530  aa   000000 000110
    000531  aa   040040 040040      87  		vfd a36/    ,36/i_n,36/0,36/(fail-l_org)/5,36/0
    000532  aa   000000 000002
    000533  aa   000000 000000
    000534  aa   000000 000572
    000535  aa   000000 000000
    000536  aa   040040 040040      88  	q_name:	vfd a36/    ,36/i_n,36/0,36/(l_25-l_org)/5,36/a_q_name_1
    000537  aa   000000 000002
    000540  aa   000000 000000
    000541  aa   000000 000107
    000542  aa   000000 000044
    000543  aa   163040 040040      89  l_25:		vfd a36/s   ,36/i_c,36/c_type8,36/(l_26-l_org)/5,36/a_q_name_3
    000544  aa   000000 000001
    000545  aa   000000 000004
    000546  aa   000000 000111
    000547  aa   000000 000104
    000550  aa   040040 040040      90  		vfd a36/    ,36/i_n,36/0,36/(fail-l_org)/5,36/0
    000551  aa   000000 000002
    000552  aa   000000 000000
    000553  aa   000000 000572
    000554  aa   000000 000000
    000555  aa   163040 040040      91  l_26:	q_1:	vfd a36/s   ,36/i_r,36/r_of,36/(l_27-l_org)/5,36/0
    000556  aa   000000 000000
    000557  aa   000000 000205
    000560  aa   000000 000114
    000561  aa   000000 000000
    000562  aa   163040 040040      92  		vfd a36/s   ,36/i_r,36/r_in,36/(l_27-l_org)/5,36/0
    000563  aa   000000 000000
    000564  aa   000000 000145
    000565  aa   000000 000114
    000566  aa   000000 000000
    000567  aa   040040 040040      93  		vfd a36/    ,36/i_n,36/0,36/(succ-l_org)/5,36/a_q_name_2
    000570  aa   000000 000002
    000571  aa   000000 000000
    000572  aa   000000 000571
    000573  aa   000000 000045
    000574  aa   163040 040040      94  l_27:		vfd a36/s   ,36/i_c,36/c_type8,36/(q_1-l_org)/5,36/a_q_name_3
    000575  aa   000000 000001
    000576  aa   000000 000004
    000577  aa   000000 000111
    000600  aa   000000 000104
    000601  aa   040040 040040      95  		vfd a36/    ,36/i_n,36/0,36/(fail-l_org)/5,36/0
    000602  aa   000000 000002
    000603  aa   000000 000000
    000604  aa   000000 000572
    000605  aa   000000 000000
    000606  aa   040040 040040      96  	page:	vfd a36/    ,36/i_n,36/0,36/(r4-l_org)/5,36/a_recov_loc
    000607  aa   000000 000002
    000610  aa   000000 000000
    000611  aa   000000 000603
    000612  aa   000000 000003
    000613  aa   040040 040040      97  l_28:		vfd a36/    ,36/i_n,36/0,36/(l_29-l_org)/5,36/a_pg_init
    000614  aa   000000 000002
    000615  aa   000000 000000
    000616  aa   000000 000120
    000617  aa   000000 000075
    000620  aa   040040 040040      98  l_29:		vfd a36/    ,36/i_s,36/(pg-l_org)/5,36/(l_30-l_org)/5,36/a_pg_set
    000621  aa   000000 000003
    000622  aa   000000 000136
    000623  aa   000000 000122
    000624  aa   000000 000120
    000625  aa   040040 040040      99  		vfd a36/    ,36/i_n,36/122,36/(pg_5-l_org)/5,36/0
    000626  aa   000000 000002
    000627  aa   000000 000172
    000630  aa   000000 000134
    000631  aa   000000 000000
    000632  aa   040040 040040     100  l_30:	pg_1:	vfd a36/    ,36/i_K,36/k_rw_pg,36/(succ-l_org)/5,36/0
    000633  aa   000000 000005
    000634  aa   000000 000002
    000635  aa   000000 000571
    000636  aa   000000 000000
    000637  aa   163040 040040     101  		vfd a36/s   ,36/i_n,36/0,36/(pg_3-l_org)/5,36/a_pg_cl_num
    000640  aa   000000 000002
    000641  aa   000000 000000
    000642  aa   000000 000127
    000643  aa   000000 000076
    000644  aa   163040 040040     102  		vfd a36/s   ,36/i_n,36/0,36/(pg_4-l_org)/5,36/a_pg_cl_num
    000645  aa   000000 000002
    000646  aa   000000 000000
    000647  aa   000000 000131
    000650  aa   000000 000076
    000651  aa   163040 040040     103  		vfd a36/s   ,36/i_n,36/0,36/(pg_4-l_org)/5,36/a_pg_cl_num
    000652  aa   000000 000002
    000653  aa   000000 000000
    000654  aa   000000 000131
    000655  aa   000000 000076
    000656  aa   163040 040040     104  		vfd a36/s   ,36/i_n,36/0,36/(pg_3-l_org)/5,36/a_pg_cl_num
    000657  aa   000000 000002
    000660  aa   000000 000000
    000661  aa   000000 000127
    000662  aa   000000 000076
    000663  aa   163040 040040     105  	pg_3:	vfd a36/s   ,36/i_c,36/c_integer,36/(pg_1-l_org)/5,36/a_pg_clause
    000664  aa   000000 000001
    000665  aa   000000 000007
    000666  aa   000000 000122
    000667  aa   000000 000077
    000670  aa   040040 040040     106  		vfd a36/    ,36/i_n,36/0,36/(pg_5-l_org)/5,36/0
    000671  aa   000000 000002
    000672  aa   000000 000000
    000673  aa   000000 000134
    000674  aa   000000 000000
    000675  aa   163040 040040     107  	pg_4:	vfd a36/s   ,36/i_r,36/r_detail,36/(l_31-l_org)/5,36/0
    000676  aa   000000 000000
    000677  aa   000000 001033
    000700  aa   000000 000133
    000701  aa   000000 000000
    000702  aa   040040 040040     108  		vfd a36/    ,36/i_n,36/0,36/(pg_5-l_org)/5,36/0
    000703  aa   000000 000002
    000704  aa   000000 000000
    000705  aa   000000 000134
    000706  aa   000000 000000
    000707  aa   163040 040040     109  l_31:		vfd a36/s   ,36/i_c,36/c_integer,36/(pg_1-l_org)/5,36/a_pg_clause
    000710  aa   000000 000001
    000711  aa   000000 000007
    000712  aa   000000 000122
    000713  aa   000000 000077
    000714  aa   040040 040040     110  	pg_5:	vfd a36/    ,36/i_n,36/0,36/(l_32-l_org)/5,36/a_recvy
    000715  aa   000000 000002
    000716  aa   000000 000000
    000717  aa   000000 000136
    000720  aa   000000 000004
    000721  aa   040040 040040     111  		vfd a36/    ,36/i_n,36/0,36/(fail-l_org)/5,36/0
    000722  aa   000000 000002
    000723  aa   000000 000000
    000724  aa   000000 000572
    000725  aa   000000 000000
    000726  aa   163040 040040     112  l_32:	pg:	vfd a36/s   ,36/i_r,36/r_limit,36/(l_33-l_org)/5,36/0
    000727  aa   000000 000000
    000730  aa   000000 001061
    000731  aa   000000 000140
    000732  aa   000000 000000
    000733  aa   163040 040040     113  		vfd a36/s   ,36/i_r,36/r_limits,36/(l_33-l_org)/5,36/0
    000734  aa   000000 000000
    000735  aa   000000 001062
    000736  aa   000000 000140
    000737  aa   000000 000000
    000740  aa   163040 040040     114  l_33:		vfd a36/s   ,36/i_r,36/r_is,36/(l_34-l_org)/5,36/0
    000741  aa   000000 000000
    000742  aa   000000 000166
    000743  aa   000000 000141
    000744  aa   000000 000000
    000745  aa   163040 040040     115  l_34:		vfd a36/s   ,36/i_c,36/c_integer,36/(l_35-l_org)/5,36/0
    000746  aa   000000 000001
    000747  aa   000000 000007
    000750  aa   000000 000143
    000751  aa   000000 000000
    000752  aa   040040 040040     116  		vfd a36/    ,36/i_n,36/0,36/(fail-l_org)/5,36/0
    000753  aa   000000 000002
    000754  aa   000000 000000
    000755  aa   000000 000572
    000756  aa   000000 000000
    000757  aa   163040 040040     117  l_35:		vfd a36/s   ,36/i_r,36/r_line,36/(succ-l_org)/5,36/0
    000760  aa   000000 000000
    000761  aa   000000 000174
    000762  aa   000000 000571
    000763  aa   000000 000000
    000764  aa   040040 040040     118  		vfd a36/    ,36/i_n,36/0,36/(succ-l_org)/5,36/0
    000765  aa   000000 000002
    000766  aa   000000 000000
    000767  aa   000000 000571
    000770  aa   000000 000000
    000771  aa   040040 040040     119  	rg_entry:	vfd a36/    ,36/i_n,36/0,36/(r5-l_org)/5,36/a_recov_loc
    000772  aa   000000 000002
    000773  aa   000000 000000
    000774  aa   000000 000605
    000775  aa   000000 000003
    000776  aa   040040 040040     120  l_36:		vfd a36/    ,36/i_n,36/0,36/(l_37-l_org)/5,36/a_rg_init
    000777  aa   000000 000002
    001000  aa   000000 000000
    001001  aa   000000 000147
    001002  aa   000000 000014
    001003  aa   163040 040040     121  l_37:		vfd a36/s   ,36/i_c,36/c_lev_num,36/(l_38-l_org)/5,36/0
    001004  aa   000000 000001
    001005  aa   000000 000002
    001006  aa   000000 000151
    001007  aa   000000 000000
    001010  aa   040040 040040     122  		vfd a36/    ,36/i_n,36/123,36/(rg_16-l_org)/5,36/0
    001011  aa   000000 000002
    001012  aa   000000 000173
    001013  aa   000000 000233
    001014  aa   000000 000000
    001015  aa   163040 040040     123  l_38:		vfd a36/s   ,36/i_c,36/c_type8,36/(l_39-l_org)/5,36/a_rg_entry_1
    001016  aa   000000 000001
    001017  aa   000000 000004
    001020  aa   000000 000152
    001021  aa   000000 000106
    001022  aa   040040 040040     124  l_39:		vfd a36/    ,36/i_k,36/k_rw_rg,36/(l_40-l_org)/5,36/0
    001023  aa   000000 000004
    001024  aa   000000 000003
    001025  aa   000000 000154
    001026  aa   000000 000000
    001027  aa   040040 040040     125  		vfd a36/    ,36/i_n,36/125,36/(rg_16-l_org)/5,36/0
    001030  aa   000000 000002
    001031  aa   000000 000175
    001032  aa   000000 000233
    001033  aa   000000 000000
    001034  aa   040040 040040     126  l_40:	rg_1:	vfd a36/    ,36/i_K,36/k_rw_rg,36/(fail-l_org)/5,36/0
    001035  aa   000000 000005
    001036  aa   000000 000003
    001037  aa   000000 000572
    001040  aa   000000 000000
    001041  aa   163040 040040     127  		vfd a36/s   ,36/i_n,36/0,36/(succ-l_org)/5,36/a_rg_entry_2
    001042  aa   000000 000002
    001043  aa   000000 000000
    001044  aa   000000 000571
    001045  aa   000000 000107
    001046  aa   163040 040040     128  		vfd a36/s   ,36/i_n,36/0,36/(rg_2-l_org)/5,36/a_rg_clnum
    001047  aa   000000 000002
    001050  aa   000000 000000
    001051  aa   000000 000174
    001052  aa   000000 000015
    001053  aa   163040 040040     129  		vfd a36/s   ,36/i_n,36/0,36/(rg_3-l_org)/5,36/a_rg_clnum
    001054  aa   000000 000002
    001055  aa   000000 000000
    001056  aa   000000 000176
    001057  aa   000000 000015
    001060  aa   163040 040040     130  		vfd a36/s   ,36/i_n,36/0,36/(rg_4-l_org)/5,36/a_rg_clnum
    001061  aa   000000 000002
    001062  aa   000000 000000
    001063  aa   000000 000200
    001064  aa   000000 000015
    001065  aa   040040 040040     131  		vfd a36/    ,36/i_n,36/0,36/(rg_5-l_org)/5,36/a_rg_clnum
    001066  aa   000000 000002
    001067  aa   000000 000000
    001070  aa   000000 000202
    001071  aa   000000 000015
    001072  aa   163040 040040     132  		vfd a36/s   ,36/i_n,36/0,36/(rg_6-l_org)/5,36/a_rg_clnum
    001073  aa   000000 000002
    001074  aa   000000 000000
    001075  aa   000000 000204
    001076  aa   000000 000015
    001077  aa   163040 040040     133  		vfd a36/s   ,36/i_n,36/0,36/(rg_7-l_org)/5,36/a_rg_clnum
    001100  aa   000000 000002
    001101  aa   000000 000000
    001102  aa   000000 000206
    001103  aa   000000 000015
    001104  aa   163040 040040     134  		vfd a36/s   ,36/i_n,36/0,36/(rg_8-l_org)/5,36/a_rg_clnum
    001105  aa   000000 000002
    001106  aa   000000 000000
    001107  aa   000000 000210
    001110  aa   000000 000015
    001111  aa   163040 040040     135  		vfd a36/s   ,36/i_n,36/0,36/(rg_9-l_org)/5,36/a_rg_clnum
    001112  aa   000000 000002
    001113  aa   000000 000000
    001114  aa   000000 000212
    001115  aa   000000 000015
    001116  aa   163040 040040     136  		vfd a36/s   ,36/i_n,36/0,36/(rg_10-l_org)/5,36/a_rg_clnum
    001117  aa   000000 000002
    001120  aa   000000 000000
    001121  aa   000000 000214
    001122  aa   000000 000015
    001123  aa   163040 040040     137  		vfd a36/s   ,36/i_n,36/0,36/(rg_11-l_org)/5,36/a_rg_clnum
    001124  aa   000000 000002
    001125  aa   000000 000000
    001126  aa   000000 000216
    001127  aa   000000 000015
    001130  aa   163040 040040     138  		vfd a36/s   ,36/i_n,36/0,36/(rg_12-l_org)/5,36/a_rg_clnum
    001131  aa   000000 000002
    001132  aa   000000 000000
    001133  aa   000000 000221
    001134  aa   000000 000015
    001135  aa   163040 040040     139  		vfd a36/s   ,36/i_n,36/0,36/(rg_13-l_org)/5,36/a_rg_clnum
    001136  aa   000000 000002
    001137  aa   000000 000000
    001140  aa   000000 000224
    001141  aa   000000 000015
    001142  aa   163040 040040     140  		vfd a36/s   ,36/i_n,36/0,36/(rg_14-l_org)/5,36/a_rg_clnum
    001143  aa   000000 000002
    001144  aa   000000 000000
    001145  aa   000000 000227
    001146  aa   000000 000015
    001147  aa   040040 040040     141  		vfd a36/    ,36/i_n,36/0,36/(rg_15-l_org)/5,36/a_rg_clnum
    001150  aa   000000 000002
    001151  aa   000000 000000
    001152  aa   000000 000231
    001153  aa   000000 000015
    001154  aa   040040 040040     142  	rg_2:	vfd a36/    ,36/i_s,36/(line-l_org)/5,36/(rg_1-l_org)/5,36/a_rg_clause
    001155  aa   000000 000003
    001156  aa   000000 000235
    001157  aa   000000 000154
    001160  aa   000000 000016
    001161  aa   040040 040040     143  		vfd a36/    ,36/i_n,36/107,36/(rg_16-l_org)/5,36/0
    001162  aa   000000 000002
    001163  aa   000000 000153
    001164  aa   000000 000233
    001165  aa   000000 000000
    001166  aa   040040 040040     144  	rg_3:	vfd a36/    ,36/i_s,36/(next-l_org)/5,36/(rg_1-l_org)/5,36/a_rg_clause
    001167  aa   000000 000003
    001170  aa   000000 000253
    001171  aa   000000 000154
    001172  aa   000000 000016
    001173  aa   040040 040040     145  		vfd a36/    ,36/i_n,36/108,36/(rg_16-l_org)/5,36/0
    001174  aa   000000 000002
    001175  aa   000000 000154
    001176  aa   000000 000233
    001177  aa   000000 000000
    001200  aa   040040 040040     146  	rg_4:	vfd a36/    ,36/i_s,36/(type-l_org)/5,36/(rg_1-l_org)/5,36/a_rg_clause
    001201  aa   000000 000003
    001202  aa   000000 000265
    001203  aa   000000 000154
    001204  aa   000000 000016
    001205  aa   040040 040040     147  		vfd a36/    ,36/i_n,36/109,36/(rg_16-l_org)/5,36/0
    001206  aa   000000 000002
    001207  aa   000000 000155
    001210  aa   000000 000233
    001211  aa   000000 000000
    001212  aa   040040 040040     148  	rg_5:	vfd a36/    ,36/i_s,36/(usage-l_org)/5,36/(rg_1-l_org)/5,36/a_rg_clause
    001213  aa   000000 000003
    001214  aa   000000 000316
    001215  aa   000000 000154
    001216  aa   000000 000016
    001217  aa   040040 040040     149  		vfd a36/    ,36/i_n,36/110,36/(rg_16-l_org)/5,36/0
    001220  aa   000000 000002
    001221  aa   000000 000156
    001222  aa   000000 000233
    001223  aa   000000 000000
    001224  aa   040040 040040     150  	rg_6:	vfd a36/    ,36/i_s,36/(present-l_org)/5,36/(rg_1-l_org)/5,36/a_rg_clause
    001225  aa   000000 000003
    001226  aa   000000 000322
    001227  aa   000000 000154
    001230  aa   000000 000016
    001231  aa   040040 040040     151  		vfd a36/    ,36/i_n,36/0,36/(rg_16-l_org)/5,36/0
    001232  aa   000000 000002
    001233  aa   000000 000000
    001234  aa   000000 000233
    001235  aa   000000 000000
    001236  aa   040040 040040     152  	rg_7:	vfd a36/    ,36/i_s,36/(blank-l_org)/5,36/(rg_1-l_org)/5,36/a_rg_clause
    001237  aa   000000 000003
    001240  aa   000000 000326
    001241  aa   000000 000154
    001242  aa   000000 000016
    001243  aa   040040 040040     153  		vfd a36/    ,36/i_n,36/111,36/(rg_16-l_org)/5,36/0
    001244  aa   000000 000002
    001245  aa   000000 000157
    001246  aa   000000 000233
    001247  aa   000000 000000
    001250  aa   163040 040040     154  	rg_8:	vfd a36/s   ,36/i_r,36/r_indicate,36/(rg_1-l_org)/5,36/a_rg_clause
    001251  aa   000000 000000
    001252  aa   000000 001051
    001253  aa   000000 000154
    001254  aa   000000 000016
    001255  aa   040040 040040     155  		vfd a36/    ,36/i_n,36/112,36/(rg_16-l_org)/5,36/0
    001256  aa   000000 000002
    001257  aa   000000 000160
    001260  aa   000000 000233
    001261  aa   000000 000000
    001262  aa   163040 040040     156  	rg_9:	vfd a36/s   ,36/i_r,36/r_right,36/(rg_1-l_org)/5,36/a_rg_clause
    001263  aa   000000 000000
    001264  aa   000000 000361
    001265  aa   000000 000154
    001266  aa   000000 000016
    001267  aa   040040 040040     157  		vfd a36/    ,36/i_n,36/113,36/(rg_16-l_org)/5,36/0
    001270  aa   000000 000002
    001271  aa   000000 000161
    001272  aa   000000 000233
    001273  aa   000000 000000
    001274  aa   040040 040040     158  	rg_10:	vfd a36/    ,36/i_s,36/(column-l_org)/5,36/(rg_1-l_org)/5,36/a_rg_clause
    001275  aa   000000 000003
    001276  aa   000000 000331
    001277  aa   000000 000154
    001300  aa   000000 000016
    001301  aa   040040 040040     159  		vfd a36/    ,36/i_n,36/114,36/(rg_16-l_org)/5,36/0
    001302  aa   000000 000002
    001303  aa   000000 000162
    001304  aa   000000 000233
    001305  aa   000000 000000
    001306  aa   163040 040040     160  	rg_11:	vfd a36/s   ,36/i_r,36/r_is,36/(l_41-l_org)/5,36/0
    001307  aa   000000 000000
    001310  aa   000000 000166
    001311  aa   000000 000217
    001312  aa   000000 000000
    001313  aa   163040 040040     161  l_41:		vfd a36/s   ,36/i_c,36/c_pic,36/(rg_1-l_org)/5,36/a_rg_clause
    001314  aa   000000 000001
    001315  aa   000000 000006
    001316  aa   000000 000154
    001317  aa   000000 000016
    001320  aa   040040 040040     162  		vfd a36/    ,36/i_n,36/115,36/(rg_16-l_org)/5,36/0
    001321  aa   000000 000002
    001322  aa   000000 000163
    001323  aa   000000 000233
    001324  aa   000000 000000
    001325  aa   163040 040040     163  	rg_12:	vfd a36/s   ,36/i_r,36/r_is,36/(l_42-l_org)/5,36/0
    001326  aa   000000 000000
    001327  aa   000000 000166
    001330  aa   000000 000222
    001331  aa   000000 000000
    001332  aa   040040 040040     164  l_42:		vfd a36/    ,36/i_s,36/(ident-l_org)/5,36/(rg_1-l_org)/5,36/a_rg_clause
    001333  aa   000000 000003
    001334  aa   000000 000405
    001335  aa   000000 000154
    001336  aa   000000 000016
    001337  aa   040040 040040     165  		vfd a36/    ,36/i_n,36/116,36/(rg_16-l_org)/5,36/0
    001340  aa   000000 000002
    001341  aa   000000 000164
    001342  aa   000000 000233
    001343  aa   000000 000000
    001344  aa   163040 040040     166  	rg_13:	vfd a36/s   ,36/i_r,36/r_is,36/(l_43-l_org)/5,36/0
    001345  aa   000000 000000
    001346  aa   000000 000166
    001347  aa   000000 000225
    001350  aa   000000 000000
    001351  aa   040040 040040     167  l_43:		vfd a36/    ,36/i_s,36/(literal-l_org)/5,36/(rg_1-l_org)/5,36/a_rg_clause
    001352  aa   000000 000003
    001353  aa   000000 000376
    001354  aa   000000 000154
    001355  aa   000000 000016
    001356  aa   040040 040040     168  		vfd a36/    ,36/i_n,36/117,36/(rg_16-l_org)/5,36/0
    001357  aa   000000 000002
    001360  aa   000000 000165
    001361  aa   000000 000233
    001362  aa   000000 000000
    001363  aa   040040 040040     169  	rg_14:	vfd a36/    ,36/i_s,36/(sum-l_org)/5,36/(rg_1-l_org)/5,36/a_rg_clause
    001364  aa   000000 000003
    001365  aa   000000 000337
    001366  aa   000000 000154
    001367  aa   000000 000016
    001370  aa   040040 040040     170  		vfd a36/    ,36/i_n,36/118,36/(rg_16-l_org)/5,36/0
    001371  aa   000000 000002
    001372  aa   000000 000166
    001373  aa   000000 000233
    001374  aa   000000 000000
    001375  aa   040040 040040     171  	rg_15:	vfd a36/    ,36/i_s,36/(sign-l_org)/5,36/(rg_1-l_org)/5,36/a_rg_clause
    001376  aa   000000 000003
    001377  aa   000000 000362
    001400  aa   000000 000154
    001401  aa   000000 000016
    001402  aa   040040 040040     172  		vfd a36/    ,36/i_n,36/119,36/(rg_16-l_org)/5,36/0
    001403  aa   000000 000002
    001404  aa   000000 000167
    001405  aa   000000 000233
    001406  aa   000000 000000
    001407  aa   040040 040040     173  	rg_16:	vfd a36/    ,36/i_n,36/0,36/(l_44-l_org)/5,36/a_recvy
    001410  aa   000000 000002
    001411  aa   000000 000000
    001412  aa   000000 000235
    001413  aa   000000 000004
    001414  aa   040040 040040     174  		vfd a36/    ,36/i_n,36/0,36/(fail-l_org)/5,36/0
    001415  aa   000000 000002
    001416  aa   000000 000000
    001417  aa   000000 000572
    001420  aa   000000 000000
    001421  aa   163040 040040     175  l_44:	line:	vfd a36/s   ,36/i_r,36/r_number,36/(l_45-l_org)/5,36/0
    001422  aa   000000 000000
    001423  aa   000000 001073
    001424  aa   000000 000236
    001425  aa   000000 000000
    001426  aa   163040 040040     176  l_45:		vfd a36/s   ,36/i_r,36/r_is,36/(l_46-l_org)/5,36/0
    001427  aa   000000 000000
    001430  aa   000000 000166
    001431  aa   000000 000237
    001432  aa   000000 000000
    001433  aa   163040 040040     177  l_46:		vfd a36/s   ,36/i_c,36/c_integer,36/(l_47-l_org)/5,36/a_rg_line_1
    001434  aa   000000 000001
    001435  aa   000000 000007
    001436  aa   000000 000242
    001437  aa   000000 000017
    001440  aa   163040 040040     178  		vfd a36/s   ,36/i_r,36/r_plus,36/(line_2-l_org)/5,36/0
    001441  aa   000000 000000
    001442  aa   000000 001105
    001443  aa   000000 000251
    001444  aa   000000 000000
    001445  aa   040040 040040     179  		vfd a36/    ,36/i_n,36/0,36/(fail-l_org)/5,36/0
    001446  aa   000000 000002
    001447  aa   000000 000000
    001450  aa   000000 000572
    001451  aa   000000 000000
    001452  aa   163040 040040     180  l_47:		vfd a36/s   ,36/i_r,36/r_on,36/(l_48-l_org)/5,36/0
    001453  aa   000000 000000
    001454  aa   000000 000206
    001455  aa   000000 000245
    001456  aa   000000 000000
    001457  aa   163040 040040     181  		vfd a36/s   ,36/i_r,36/r_next,36/(line_1-l_org)/5,36/0
    001460  aa   000000 000000
    001461  aa   000000 000200
    001462  aa   000000 000247
    001463  aa   000000 000000
    001464  aa   040040 040040     182  		vfd a36/    ,36/i_n,36/0,36/(succ-l_org)/5,36/a_rg_line_2
    001465  aa   000000 000002
    001466  aa   000000 000000
    001467  aa   000000 000571
    001470  aa   000000 000020
    001471  aa   163040 040040     183  l_48:		vfd a36/s   ,36/i_r,36/r_next,36/(l_49-l_org)/5,36/0
    001472  aa   000000 000000
    001473  aa   000000 000200
    001474  aa   000000 000247
    001475  aa   000000 000000
    001476  aa   040040 040040     184  		vfd a36/    ,36/i_n,36/0,36/(fail-l_org)/5,36/0
    001477  aa   000000 000002
    001500  aa   000000 000000
    001501  aa   000000 000572
    001502  aa   000000 000000
    001503  aa   163040 040040     185  l_49:	line_1:	vfd a36/s   ,36/i_r,36/r_page,36/(succ-l_org)/5,36/a_rg_line_4
    001504  aa   000000 000000
    001505  aa   000000 000213
    001506  aa   000000 000571
    001507  aa   000000 000022
    001510  aa   040040 040040     186  		vfd a36/    ,36/i_n,36/0,36/(fail-l_org)/5,36/0
    001511  aa   000000 000002
    001512  aa   000000 000000
    001513  aa   000000 000572
    001514  aa   000000 000000
    001515  aa   163040 040040     187  	line_2:	vfd a36/s   ,36/i_c,36/c_integer,36/(succ-l_org)/5,36/a_rg_line_3
    001516  aa   000000 000001
    001517  aa   000000 000007
    001520  aa   000000 000571
    001521  aa   000000 000021
    001522  aa   040040 040040     188  		vfd a36/    ,36/i_n,36/0,36/(fail-l_org)/5,36/0
    001523  aa   000000 000002
    001524  aa   000000 000000
    001525  aa   000000 000572
    001526  aa   000000 000000
    001527  aa   163040 040040     189  	next:	vfd a36/s   ,36/i_r,36/r_group,36/(l_50-l_org)/5,36/0
    001530  aa   000000 000000
    001531  aa   000000 001045
    001532  aa   000000 000255
    001533  aa   000000 000000
    001534  aa   040040 040040     190  		vfd a36/    ,36/i_n,36/0,36/(fail-l_org)/5,36/0
    001535  aa   000000 000002
    001536  aa   000000 000000
    001537  aa   000000 000572
    001540  aa   000000 000000
    001541  aa   163040 040040     191  l_50:		vfd a36/s   ,36/i_r,36/r_is,36/(l_51-l_org)/5,36/0
    001542  aa   000000 000000
    001543  aa   000000 000166
    001544  aa   000000 000256
    001545  aa   000000 000000
    001546  aa   163040 040040     192  l_51:		vfd a36/s   ,36/i_r,36/r_plus,36/(l_52-l_org)/5,36/a_rg_group_1
    001547  aa   000000 000000
    001550  aa   000000 001105
    001551  aa   000000 000261
    001552  aa   000000 000023
    001553  aa   163040 040040     193  		vfd a36/s   ,36/i_r,36/r_next,36/(n_1-l_org)/5,36/a_rg_group_2
    001554  aa   000000 000000
    001555  aa   000000 000200
    001556  aa   000000 000263
    001557  aa   000000 000024
    001560  aa   040040 040040     194  		vfd a36/    ,36/i_n,36/0,36/(l_52-l_org)/5,36/a_rg_group_3
    001561  aa   000000 000002
    001562  aa   000000 000000
    001563  aa   000000 000261
    001564  aa   000000 000025
    001565  aa   163040 040040     195  l_52:		vfd a36/s   ,36/i_c,36/c_integer,36/(succ-l_org)/5,36/a_rg_group_4
    001566  aa   000000 000001
    001567  aa   000000 000007
    001570  aa   000000 000571
    001571  aa   000000 000026
    001572  aa   040040 040040     196  		vfd a36/    ,36/i_n,36/0,36/(fail-l_org)/5,36/0
    001573  aa   000000 000002
    001574  aa   000000 000000
    001575  aa   000000 000572
    001576  aa   000000 000000
    001577  aa   163040 040040     197  	n_1:	vfd a36/s   ,36/i_r,36/r_page,36/(succ-l_org)/5,36/0
    001600  aa   000000 000000
    001601  aa   000000 000213
    001602  aa   000000 000571
    001603  aa   000000 000000
    001604  aa   040040 040040     198  		vfd a36/    ,36/i_n,36/0,36/(fail-l_org)/5,36/0
    001605  aa   000000 000002
    001606  aa   000000 000000
    001607  aa   000000 000572
    001610  aa   000000 000000
    001611  aa   163040 040040     199  	type:	vfd a36/s   ,36/i_r,36/r_is,36/(l_53-l_org)/5,36/0
    001612  aa   000000 000000
    001613  aa   000000 000166
    001614  aa   000000 000266
    001615  aa   000000 000000
    001616  aa   040040 040040     200  l_53:		vfd a36/    ,36/i_K,36/k_rw_type,36/(fail-l_org)/5,36/0
    001617  aa   000000 000005
    001620  aa   000000 000004
    001621  aa   000000 000572
    001622  aa   000000 000000
    001623  aa   163040 040040     201  		vfd a36/s   ,36/i_n,36/0,36/(succ-l_org)/5,36/a_rg_type_1
    001624  aa   000000 000002
    001625  aa   000000 000000
    001626  aa   000000 000571
    001627  aa   000000 000027
    001630  aa   163040 040040     202  		vfd a36/s   ,36/i_n,36/0,36/(succ-l_org)/5,36/a_rg_type_1
    001631  aa   000000 000002
    001632  aa   000000 000000
    001633  aa   000000 000571
    001634  aa   000000 000027
    001635  aa   163040 040040     203  		vfd a36/s   ,36/i_n,36/0,36/(t_3-l_org)/5,36/a_rg_type_1
    001636  aa   000000 000002
    001637  aa   000000 000000
    001640  aa   000000 000310
    001641  aa   000000 000027
    001642  aa   163040 040040     204  		vfd a36/s   ,36/i_n,36/0,36/(succ-l_org)/5,36/a_rg_type_1
    001643  aa   000000 000002
    001644  aa   000000 000000
    001645  aa   000000 000571
    001646  aa   000000 000027
    001647  aa   163040 040040     205  		vfd a36/s   ,36/i_n,36/0,36/(t_3-l_org)/5,36/a_rg_type_1
    001650  aa   000000 000002
    001651  aa   000000 000000
    001652  aa   000000 000310
    001653  aa   000000 000027
    001654  aa   163040 040040     206  		vfd a36/s   ,36/i_n,36/0,36/(succ-l_org)/5,36/a_rg_type_1
    001655  aa   000000 000002
    001656  aa   000000 000000
    001657  aa   000000 000571
    001660  aa   000000 000027
    001661  aa   163040 040040     207  		vfd a36/s   ,36/i_n,36/0,36/(succ-l_org)/5,36/a_rg_type_1
    001662  aa   000000 000002
    001663  aa   000000 000000
    001664  aa   000000 000571
    001665  aa   000000 000027
    001666  aa   163040 040040     208  		vfd a36/s   ,36/i_n,36/0,36/(t_1-l_org)/5,36/0
    001667  aa   000000 000002
    001670  aa   000000 000000
    001671  aa   000000 000302
    001672  aa   000000 000000
    001673  aa   163040 040040     209  		vfd a36/s   ,36/i_n,36/0,36/(t_4-l_org)/5,36/0
    001674  aa   000000 000002
    001675  aa   000000 000000
    001676  aa   000000 000313
    001677  aa   000000 000000
    001700  aa   163040 040040     210  		vfd a36/s   ,36/i_n,36/0,36/(t_2-l_org)/5,36/0
    001701  aa   000000 000002
    001702  aa   000000 000000
    001703  aa   000000 000305
    001704  aa   000000 000000
    001705  aa   163040 040040     211  		vfd a36/s   ,36/i_n,36/0,36/(succ-l_org)/5,36/a_rg_type_a
    001706  aa   000000 000002
    001707  aa   000000 000000
    001710  aa   000000 000571
    001711  aa   000000 000117
    001712  aa   163040 040040     212  	t_1:	vfd a36/s   ,36/i_r,36/r_heading,36/(succ-l_org)/5,36/a_rg_type_2
    001713  aa   000000 000000
    001714  aa   000000 001044
    001715  aa   000000 000571
    001716  aa   000000 000030
    001717  aa   163040 040040     213  		vfd a36/s   ,36/i_r,36/r_footing,36/(succ-l_org)/5,36/a_rg_type_3
    001720  aa   000000 000000
    001721  aa   000000 001043
    001722  aa   000000 000571
    001723  aa   000000 000031
    001724  aa   040040 040040     214  		vfd a36/    ,36/i_n,36/0,36/(fail-l_org)/5,36/0
    001725  aa   000000 000002
    001726  aa   000000 000000
    001727  aa   000000 000572
    001730  aa   000000 000000
    001731  aa   163040 040040     215  	t_2:	vfd a36/s   ,36/i_r,36/r_heading,36/(l_54-l_org)/5,36/a_rg_type_4
    001732  aa   000000 000000
    001733  aa   000000 001044
    001734  aa   000000 000310
    001735  aa   000000 000032
    001736  aa   163040 040040     216  		vfd a36/s   ,36/i_r,36/r_footing,36/(l_54-l_org)/5,36/a_rg_type_5
    001737  aa   000000 000000
    001740  aa   000000 001043
    001741  aa   000000 000310
    001742  aa   000000 000033
    001743  aa   040040 040040     217  		vfd a36/    ,36/i_n,36/0,36/(fail-l_org)/5,36/0
    001744  aa   000000 000002
    001745  aa   000000 000000
    001746  aa   000000 000572
    001747  aa   000000 000000
    001750  aa   163040 040040     218  l_54:	t_3:	vfd a36/s   ,36/i_r,36/r_final,36/(succ-l_org)/5,36/a_rg_type_6
    001751  aa   000000 000000
    001752  aa   000000 001042
    001753  aa   000000 000571
    001754  aa   000000 000034
    001755  aa   040040 040040     219  		vfd a36/    ,36/i_s,36/(q_name-l_org)/5,36/(succ-l_org)/5,36/a_rg_type_9
    001756  aa   000000 000003
    001757  aa   000000 000106
    001760  aa   000000 000571
    001761  aa   000000 000113
    001762  aa   040040 040040     220  		vfd a36/    ,36/i_n,36/0,36/(fail-l_org)/5,36/0
    001763  aa   000000 000002
    001764  aa   000000 000000
    001765  aa   000000 000572
    001766  aa   000000 000000
    001767  aa   163040 040040     221  	t_4:	vfd a36/s   ,36/i_r,36/r_heading,36/(succ-l_org)/5,36/a_rg_type_7
    001770  aa   000000 000000
    001771  aa   000000 001044
    001772  aa   000000 000571
    001773  aa   000000 000035
    001774  aa   163040 040040     222  		vfd a36/s   ,36/i_r,36/r_footing,36/(succ-l_org)/5,36/a_rg_type_8
    001775  aa   000000 000000
    001776  aa   000000 001043
    001777  aa   000000 000571
    002000  aa   000000 000036
    002001  aa   040040 040040     223  		vfd a36/    ,36/i_n,36/0,36/(fail-l_org)/5,36/0
    002002  aa   000000 000002
    002003  aa   000000 000000
    002004  aa   000000 000572
    002005  aa   000000 000000
    002006  aa   163040 040040     224  	usage:	vfd a36/s   ,36/i_r,36/r_usage,36/(l_55-l_org)/5,36/0
    002007  aa   000000 000000
    002010  aa   000000 000401
    002011  aa   000000 000317
    002012  aa   000000 000000
    002013  aa   163040 040040     225  l_55:		vfd a36/s   ,36/i_r,36/r_is,36/(l_56-l_org)/5,36/0
    002014  aa   000000 000000
    002015  aa   000000 000166
    002016  aa   000000 000320
    002017  aa   000000 000000
    002020  aa   163040 040040     226  l_56:		vfd a36/s   ,36/i_r,36/r_display,36/(succ-l_org)/5,36/0
    002021  aa   000000 000000
    002022  aa   000000 000052
    002023  aa   000000 000571
    002024  aa   000000 000000
    002025  aa   040040 040040     227  		vfd a36/    ,36/i_n,36/0,36/(fail-l_org)/5,36/0
    002026  aa   000000 000002
    002027  aa   000000 000000
    002030  aa   000000 000572
    002031  aa   000000 000000
    002032  aa   163040 040040     228  	present:	vfd a36/s   ,36/i_r,36/r_when,36/(l_57-l_org)/5,36/0
    002033  aa   000000 000000
    002034  aa   000000 000262
    002035  aa   000000 000323
    002036  aa   000000 000000
    002037  aa   040040 040040     229  l_57:		vfd a36/    ,36/i_n,36/0,36/(l_58-l_org)/5,36/a_rg_pres_1
    002040  aa   000000 000002
    002041  aa   000000 000000
    002042  aa   000000 000324
    002043  aa   000000 000037
    002044  aa   040040 040040     230  l_58:		vfd a36/    ,36/i_s,36/(condition-l_org)/5,36/(succ-l_org)/5,36/a_rg_pres_2
    002045  aa   000000 000003
    002046  aa   000000 000440
    002047  aa   000000 000571
    002050  aa   000000 000040
    002051  aa   040040 040040     231  		vfd a36/    ,36/i_n,36/0,36/(fail-l_org)/5,36/0
    002052  aa   000000 000002
    002053  aa   000000 000000
    002054  aa   000000 000572
    002055  aa   000000 000000
    002056  aa   163040 040040     232  	blank:	vfd a36/s   ,36/i_r,36/r_when,36/(l_59-l_org)/5,36/0
    002057  aa   000000 000000
    002060  aa   000000 000262
    002061  aa   000000 000327
    002062  aa   000000 000000
    002063  aa   163040 040040     233  l_59:		vfd a36/s   ,36/i_r,36/r_zero,36/(succ-l_org)/5,36/0
    002064  aa   000000 000000
    002065  aa   000000 000264
    002066  aa   000000 000571
    002067  aa   000000 000000
    002070  aa   040040 040040     234  		vfd a36/    ,36/i_n,36/0,36/(fail-l_org)/5,36/0
    002071  aa   000000 000002
    002072  aa   000000 000000
    002073  aa   000000 000572
    002074  aa   000000 000000
    002075  aa   163040 040040     235  	column:	vfd a36/s   ,36/i_r,36/r_number,36/(l_60-l_org)/5,36/0
    002076  aa   000000 000000
    002077  aa   000000 001073
    002100  aa   000000 000332
    002101  aa   000000 000000
    002102  aa   163040 040040     236  l_60:		vfd a36/s   ,36/i_r,36/r_is,36/(l_61-l_org)/5,36/0
    002103  aa   000000 000000
    002104  aa   000000 000166
    002105  aa   000000 000333
    002106  aa   000000 000000
    002107  aa   163040 040040     237  l_61:		vfd a36/s   ,36/i_r,36/r_plus,36/(l_62-l_org)/5,36/a_rg_col_1
    002110  aa   000000 000000
    002111  aa   000000 001105
    002112  aa   000000 000335
    002113  aa   000000 000041
    002114  aa   040040 040040     238  		vfd a36/    ,36/i_n,36/0,36/(l_62-l_org)/5,36/a_rg_col_2
    002115  aa   000000 000002
    002116  aa   000000 000000
    002117  aa   000000 000335
    002120  aa   000000 000042
    002121  aa   163040 040040     239  l_62:		vfd a36/s   ,36/i_c,36/c_integer,36/(succ-l_org)/5,36/a_rg_col_3
    002122  aa   000000 000001
    002123  aa   000000 000007
    002124  aa   000000 000571
    002125  aa   000000 000043
    002126  aa   040040 040040     240  		vfd a36/    ,36/i_n,36/0,36/(fail-l_org)/5,36/0
    002127  aa   000000 000002
    002130  aa   000000 000000
    002131  aa   000000 000572
    002132  aa   000000 000000
    002133  aa   040040 040040     241  	sum:	vfd a36/    ,36/i_n,36/0,36/(l_63-l_org)/5,36/a_sum_1
    002134  aa   000000 000002
    002135  aa   000000 000000
    002136  aa   000000 000340
    002137  aa   000000 000050
    002140  aa   040040 040040     242  l_63:	sum_1:	vfd a36/    ,36/i_s,36/(sum_ph-l_org)/5,36/(l_64-l_org)/5,36/a_sum_2
    002141  aa   000000 000003
    002142  aa   000000 000351
    002143  aa   000000 000342
    002144  aa   000000 000051
    002145  aa   040040 040040     243  		vfd a36/    ,36/i_n,36/0,36/(fail-l_org)/5,36/0
    002146  aa   000000 000002
    002147  aa   000000 000000
    002150  aa   000000 000572
    002151  aa   000000 000000
    002152  aa   163040 040040     244  l_64:		vfd a36/s   ,36/i_r,36/r_reset,36/(l_65-l_org)/5,36/a_sum_5
    002153  aa   000000 000000
    002154  aa   000000 001116
    002155  aa   000000 000345
    002156  aa   000000 000114
    002157  aa   163040 040040     245  		vfd a36/s   ,36/i_r,36/r_sum,36/(sum_1-l_org)/5,36/0
    002160  aa   000000 000000
    002161  aa   000000 001133
    002162  aa   000000 000340
    002163  aa   000000 000000
    002164  aa   040040 040040     246  		vfd a36/    ,36/i_n,36/0,36/(succ-l_org)/5,36/0
    002165  aa   000000 000002
    002166  aa   000000 000000
    002167  aa   000000 000571
    002170  aa   000000 000000
    002171  aa   163040 040040     247  l_65:		vfd a36/s   ,36/i_r,36/r_on,36/(l_66-l_org)/5,36/0
    002172  aa   000000 000000
    002173  aa   000000 000206
    002174  aa   000000 000346
    002175  aa   000000 000000
    002176  aa   163040 040040     248  l_66:		vfd a36/s   ,36/i_r,36/r_final,36/(succ-l_org)/5,36/a_sum_4
    002177  aa   000000 000000
    002200  aa   000000 001042
    002201  aa   000000 000571
    002202  aa   000000 000053
    002203  aa   040040 040040     249  		vfd a36/    ,36/i_s,36/(q_name-l_org)/5,36/(succ-l_org)/5,36/a_sum_3
    002204  aa   000000 000003
    002205  aa   000000 000106
    002206  aa   000000 000571
    002207  aa   000000 000052
    002210  aa   040040 040040     250  		vfd a36/    ,36/i_n,36/0,36/(fail-l_org)/5,36/0
    002211  aa   000000 000002
    002212  aa   000000 000000
    002213  aa   000000 000572
    002214  aa   000000 000000
    002215  aa   040040 040040     251  	sum_ph:	vfd a36/    ,36/i_n,36/0,36/(l_67-l_org)/5,36/a_sum_ph_1
    002216  aa   000000 000002
    002217  aa   000000 000000
    002220  aa   000000 000352
    002221  aa   000000 000055
    002222  aa   040040 040040     252  l_67:	sum_ph3:	vfd a36/    ,36/i_s,36/(ident-l_org)/5,36/(l_68-l_org)/5,36/a_sum_ph_3
    002223  aa   000000 000003
    002224  aa   000000 000405
    002225  aa   000000 000354
    002226  aa   000000 000057
    002227  aa   040040 040040     253  		vfd a36/    ,36/i_n,36/0,36/(fail-l_org)/5,36/0
    002230  aa   000000 000002
    002231  aa   000000 000000
    002232  aa   000000 000572
    002233  aa   000000 000000
    002234  aa   163040 040040     254  l_68:	sum_ph1:	vfd a36/s   ,36/i_r,36/r_upon,36/(l_69-l_org)/5,36/0
    002235  aa   000000 000000
    002236  aa   000000 000257
    002237  aa   000000 000357
    002240  aa   000000 000000
    002241  aa   040040 040040     255  		vfd a36/    ,36/i_c,36/c_type8,36/(sum_ph3-l_org)/5,36/0
    002242  aa   000000 000001
    002243  aa   000000 000004
    002244  aa   000000 000352
    002245  aa   000000 000000
    002246  aa   040040 040040     256  		vfd a36/    ,36/i_n,36/0,36/(succ-l_org)/5,36/a_sum_ph_2
    002247  aa   000000 000002
    002250  aa   000000 000000
    002251  aa   000000 000571
    002252  aa   000000 000056
    002253  aa   040040 040040     257  l_69:	sum_ph2:	vfd a36/    ,36/i_s,36/(q_names-l_org)/5,36/(l_70-l_org)/5,36/a_sum_ph_4
    002254  aa   000000 000003
    002255  aa   000000 000077
    002256  aa   000000 000361
    002257  aa   000000 000060
    002260  aa   040040 040040     258  		vfd a36/    ,36/i_n,36/0,36/(fail-l_org)/5,36/0
    002261  aa   000000 000002
    002262  aa   000000 000000
    002263  aa   000000 000572
    002264  aa   000000 000000
    002265  aa   040040 040040     259  l_70:		vfd a36/    ,36/i_n,36/0,36/(succ-l_org)/5,36/a_sum_ph_2
    002266  aa   000000 000002
    002267  aa   000000 000000
    002270  aa   000000 000571
    002271  aa   000000 000056
    002272  aa   163040 040040     260  	sign:	vfd a36/s   ,36/i_r,36/r_sign,36/(sign_2-l_org)/5,36/0
    002273  aa   000000 000000
    002274  aa   000000 000365
    002275  aa   000000 000372
    002276  aa   000000 000000
    002277  aa   163040 040040     261  	sign_1:	vfd a36/s   ,36/i_r,36/r_leading,36/(sign_3-l_org)/5,36/0
    002300  aa   000000 000000
    002301  aa   000000 000172
    002302  aa   000000 000374
    002303  aa   000000 000000
    002304  aa   163040 040040     262  		vfd a36/s   ,36/i_r,36/r_trailing,36/(l_71-l_org)/5,36/0
    002305  aa   000000 000000
    002306  aa   000000 000377
    002307  aa   000000 000366
    002310  aa   000000 000000
    002311  aa   040040 040040     263  		vfd a36/    ,36/i_n,36/0,36/(fail-l_org)/5,36/0
    002312  aa   000000 000002
    002313  aa   000000 000000
    002314  aa   000000 000572
    002315  aa   000000 000000
    002316  aa   163040 040040     264  l_71:		vfd a36/s   ,36/i_r,36/r_separate,36/(l_72-l_org)/5,36/a_sign_1
    002317  aa   000000 000000
    002320  aa   000000 000364
    002321  aa   000000 000370
    002322  aa   000000 000061
    002323  aa   040040 040040     265  		vfd a36/    ,36/i_n,36/0,36/(succ-l_org)/5,36/a_sign_2
    002324  aa   000000 000002
    002325  aa   000000 000000
    002326  aa   000000 000571
    002327  aa   000000 000062
    002330  aa   163040 040040     266  l_72:	sign_4:	vfd a36/s   ,36/i_r,36/r_character,36/(succ-l_org)/5,36/0
    002331  aa   000000 000000
    002332  aa   000000 000123
    002333  aa   000000 000571
    002334  aa   000000 000000
    002335  aa   040040 040040     267  		vfd a36/    ,36/i_n,36/0,36/(succ-l_org)/5,36/0
    002336  aa   000000 000002
    002337  aa   000000 000000
    002340  aa   000000 000571
    002341  aa   000000 000000
    002342  aa   163040 040040     268  	sign_2:	vfd a36/s   ,36/i_r,36/r_is,36/(sign_1-l_org)/5,36/0
    002343  aa   000000 000000
    002344  aa   000000 000166
    002345  aa   000000 000363
    002346  aa   000000 000000
    002347  aa   040040 040040     269  		vfd a36/    ,36/i_n,36/0,36/(sign_1-l_org)/5,36/0
    002350  aa   000000 000002
    002351  aa   000000 000000
    002352  aa   000000 000363
    002353  aa   000000 000000
    002354  aa   163040 040040     270  	sign_3:	vfd a36/s   ,36/i_r,36/r_separate,36/(sign_4-l_org)/5,36/a_sign_3
    002355  aa   000000 000000
    002356  aa   000000 000364
    002357  aa   000000 000370
    002360  aa   000000 000063
    002361  aa   040040 040040     271  		vfd a36/    ,36/i_n,36/0,36/(sign_4-l_org)/5,36/a_sign_4
    002362  aa   000000 000002
    002363  aa   000000 000000
    002364  aa   000000 000370
    002365  aa   000000 000064
    002366  aa   163040 040040     272  	literal:	vfd a36/s   ,36/i_c,36/c_literal,36/(succ-l_org)/5,36/a_lit_1
    002367  aa   000000 000001
    002370  aa   000000 000010
    002371  aa   000000 000571
    002372  aa   000000 000121
    002373  aa   163040 040040     273  		vfd a36/s   ,36/i_c,36/c_figconall,36/(succ-l_org)/5,36/a_lit_1
    002374  aa   000000 000001
    002375  aa   000000 000016
    002376  aa   000000 000571
    002377  aa   000000 000121
    002400  aa   163040 040040     274  		vfd a36/s   ,36/i_r,36/r_all,36/(l_73-l_org)/5,36/a_lit_1
    002401  aa   000000 000000
    002402  aa   000000 000111
    002403  aa   000000 000402
    002404  aa   000000 000121
    002405  aa   040040 040040     275  		vfd a36/    ,36/i_n,36/0,36/(fail-l_org)/5,36/0
    002406  aa   000000 000002
    002407  aa   000000 000000
    002410  aa   000000 000572
    002411  aa   000000 000000
    002412  aa   163040 040040     276  l_73:		vfd a36/s   ,36/i_c,36/c_figconall,36/(succ-l_org)/5,36/a_lit_2
    002413  aa   000000 000001
    002414  aa   000000 000016
    002415  aa   000000 000571
    002416  aa   000000 000122
    002417  aa   163040 040040     277  		vfd a36/s   ,36/i_c,36/c_nonumlit,36/(succ-l_org)/5,36/a_lit_2
    002420  aa   000000 000001
    002421  aa   000000 000020
    002422  aa   000000 000571
    002423  aa   000000 000122
    002424  aa   040040 040040     278  		vfd a36/    ,36/i_n,36/0,36/(fail-l_org)/5,36/0
    002425  aa   000000 000002
    002426  aa   000000 000000
    002427  aa   000000 000572
    002430  aa   000000 000000
    002431  aa   040040 040040     279  	ident:	vfd a36/    ,36/i_n,36/0,36/(l_74-l_org)/5,36/a_id_1
    002432  aa   000000 000002
    002433  aa   000000 000000
    002434  aa   000000 000406
    002435  aa   000000 000046
    002436  aa   040040 040040     280  l_74:		vfd a36/    ,36/i_s,36/(q_name-l_org)/5,36/(l_75-l_org)/5,36/a_id_3
    002437  aa   000000 000003
    002440  aa   000000 000106
    002441  aa   000000 000410
    002442  aa   000000 000103
    002443  aa   040040 040040     281  		vfd a36/    ,36/i_n,36/0,36/(fail-l_org)/5,36/0
    002444  aa   000000 000002
    002445  aa   000000 000000
    002446  aa   000000 000572
    002447  aa   000000 000000
    002450  aa   163040 040040     282  l_75:		vfd a36/s   ,36/i_r,36/r_lt,36/(l_76-l_org)/5,36/a_id_4
    002451  aa   000000 000000
    002452  aa   000000 000273
    002453  aa   000000 000412
    002454  aa   000000 000054
    002455  aa   040040 040040     283  		vfd a36/    ,36/i_n,36/0,36/(succ-l_org)/5,36/0
    002456  aa   000000 000002
    002457  aa   000000 000000
    002460  aa   000000 000571
    002461  aa   000000 000000
    002462  aa   040040 040040     284  l_76:		vfd a36/    ,36/i_s,36/(sub-l_org)/5,36/(l_77-l_org)/5,36/0
    002463  aa   000000 000003
    002464  aa   000000 000417
    002465  aa   000000 000414
    002466  aa   000000 000000
    002467  aa   040040 040040     285  		vfd a36/    ,36/i_n,36/0,36/(fail-l_org)/5,36/0
    002470  aa   000000 000002
    002471  aa   000000 000000
    002472  aa   000000 000572
    002473  aa   000000 000000
    002474  aa   163040 040040     286  l_77:		vfd a36/s   ,36/i_r,36/r_rt,36/(succ-l_org)/5,36/a_id_2
    002475  aa   000000 000000
    002476  aa   000000 000274
    002477  aa   000000 000571
    002500  aa   000000 000047
    002501  aa   040040 040040     287  		vfd a36/    ,36/i_s,36/(sub-l_org)/5,36/(l_77-l_org)/5,36/0
    002502  aa   000000 000003
    002503  aa   000000 000417
    002504  aa   000000 000414
    002505  aa   000000 000000
    002506  aa   040040 040040     288  		vfd a36/    ,36/i_n,36/0,36/(fail-l_org)/5,36/0
    002507  aa   000000 000002
    002510  aa   000000 000000
    002511  aa   000000 000572
    002512  aa   000000 000000
    002513  aa   163040 040040     289  	sub:	vfd a36/s   ,36/i_c,36/c_type2,36/(succ-l_org)/5,36/0
    002514  aa   000000 000001
    002515  aa   000000 000003
    002516  aa   000000 000571
    002517  aa   000000 000000
    002520  aa   040040 040040     290  		vfd a36/    ,36/i_s,36/(q_name-l_org)/5,36/(l_78-l_org)/5,36/0
    002521  aa   000000 000003
    002522  aa   000000 000106
    002523  aa   000000 000422
    002524  aa   000000 000000
    002525  aa   040040 040040     291  		vfd a36/    ,36/i_n,36/0,36/(fail-l_org)/5,36/0
    002526  aa   000000 000002
    002527  aa   000000 000000
    002530  aa   000000 000572
    002531  aa   000000 000000
    002532  aa   163040 040040     292  l_78:		vfd a36/s   ,36/i_r,36/r_pls,36/(l_79-l_org)/5,36/0
    002533  aa   000000 000000
    002534  aa   000000 000266
    002535  aa   000000 000425
    002536  aa   000000 000000
    002537  aa   163040 040040     293  		vfd a36/s   ,36/i_r,36/r_sub,36/(l_79-l_org)/5,36/0
    002540  aa   000000 000000
    002541  aa   000000 000267
    002542  aa   000000 000425
    002543  aa   000000 000000
    002544  aa   040040 040040     294  		vfd a36/    ,36/i_n,36/0,36/(succ-l_org)/5,36/0
    002545  aa   000000 000002
    002546  aa   000000 000000
    002547  aa   000000 000571
    002550  aa   000000 000000
    002551  aa   163040 040040     295  l_79:		vfd a36/s   ,36/i_c,36/c_type2,36/(succ-l_org)/5,36/0
    002552  aa   000000 000001
    002553  aa   000000 000003
    002554  aa   000000 000571
    002555  aa   000000 000000
    002556  aa   040040 040040     296  		vfd a36/    ,36/i_n,36/0,36/(fail-l_org)/5,36/0
    002557  aa   000000 000002
    002560  aa   000000 000000
    002561  aa   000000 000572
    002562  aa   000000 000000
    002563  aa   163040 040040     297  	elnuitem:	vfd a36/s   ,36/i_c,36/c_type2,36/(succ-l_org)/5,36/0
    002564  aa   000000 000001
    002565  aa   000000 000003
    002566  aa   000000 000571
    002567  aa   000000 000000
    002570  aa   040040 040040     298  		vfd a36/    ,36/i_c,36/c_type8,36/(el_1-l_org)/5,36/0
    002571  aa   000000 000001
    002572  aa   000000 000004
    002573  aa   000000 000436
    002574  aa   000000 000000
    002575  aa   163040 040040     299  		vfd a36/s   ,36/i_r,36/r_all,36/(l_80-l_org)/5,36/0
    002576  aa   000000 000000
    002577  aa   000000 000111
    002600  aa   000000 000434
    002601  aa   000000 000000
    002602  aa   163040 040040     300  		vfd a36/s   ,36/i_r,36/r_zero,36/(succ-l_org)/5,36/0
    002603  aa   000000 000000
    002604  aa   000000 000264
    002605  aa   000000 000571
    002606  aa   000000 000000
    002607  aa   040040 040040     301  		vfd a36/    ,36/i_n,36/0,36/(fail-l_org)/5,36/0
    002610  aa   000000 000002
    002611  aa   000000 000000
    002612  aa   000000 000572
    002613  aa   000000 000000
    002614  aa   163040 040040     302  l_80:		vfd a36/s   ,36/i_r,36/r_zero,36/(succ-l_org)/5,36/0
    002615  aa   000000 000000
    002616  aa   000000 000264
    002617  aa   000000 000571
    002620  aa   000000 000000
    002621  aa   040040 040040     303  		vfd a36/    ,36/i_n,36/0,36/(fail-l_org)/5,36/0
    002622  aa   000000 000002
    002623  aa   000000 000000
    002624  aa   000000 000572
    002625  aa   000000 000000
    002626  aa   040040 040040     304  	el_1:	vfd a36/    ,36/i_s,36/(ident-l_org)/5,36/(succ-l_org)/5,36/0
    002627  aa   000000 000003
    002630  aa   000000 000405
    002631  aa   000000 000571
    002632  aa   000000 000000
    002633  aa   040040 040040     305  		vfd a36/    ,36/i_n,36/0,36/(fail-l_org)/5,36/0
    002634  aa   000000 000002
    002635  aa   000000 000000
    002636  aa   000000 000572
    002637  aa   000000 000000
    002640  aa   040040 040040     306  	condition:	vfd a36/    ,36/i_n,36/0,36/(l_81-l_org)/5,36/a_c0s1
    002641  aa   000000 000002
    002642  aa   000000 000000
    002643  aa   000000 000441
    002644  aa   000000 000005
    002645  aa   163040 040040     307  l_81:	lpar:	vfd a36/s   ,36/i_r,36/r_lt,36/(lpar-l_org)/5,36/a_cincrs1
    002646  aa   000000 000000
    002647  aa   000000 000273
    002650  aa   000000 000441
    002651  aa   000000 000010
    002652  aa   040040 040040     308  	lpar2:	vfd a36/    ,36/i_c,36/c_type1,36/(res-l_org)/5,36/0
    002653  aa   000000 000001
    002654  aa   000000 000011
    002655  aa   000000 000445
    002656  aa   000000 000000
    002657  aa   040040 040040     309  	res1:	vfd a36/    ,36/i_s,36/(condop-l_org)/5,36/(infix_rel-l_org)/5,36/0
    002660  aa   000000 000003
    002661  aa   000000 000542
    002662  aa   000000 000473
    002663  aa   000000 000000
    002664  aa   040040 040040     310  		vfd a36/    ,36/i_n,36/0,36/(fail-l_org)/5,36/0
    002665  aa   000000 000002
    002666  aa   000000 000000
    002667  aa   000000 000572
    002670  aa   000000 000000
    002671  aa   040040 040040     311  	res:	vfd a36/    ,36/i_s,36/(relop-l_org)/5,36/(imp_subj-l_org)/5,36/0
    002672  aa   000000 000003
    002673  aa   000000 000535
    002674  aa   000000 000471
    002675  aa   000000 000000
    002676  aa   163040 040040     312  		vfd a36/s   ,36/i_r,36/r_not,36/(not_cond-l_org)/5,36/0
    002677  aa   000000 000000
    002700  aa   000000 000202
    002701  aa   000000 000456
    002702  aa   000000 000000
    002703  aa   163040 040040     313  		vfd a36/s   ,36/i_r,36/r_is,36/(is_cond-l_org)/5,36/0
    002704  aa   000000 000000
    002705  aa   000000 000166
    002706  aa   000000 000462
    002707  aa   000000 000000
    002710  aa   040040 040040     314  		vfd a36/    ,36/i_s,36/(pos_rel-l_org)/5,36/(imp_subj-l_org)/5,36/0
    002711  aa   000000 000003
    002712  aa   000000 000527
    002713  aa   000000 000471
    002714  aa   000000 000000
    002715  aa   163040 040040     315  		vfd a36/s   ,36/i_r,36/r_message,36/(l_82-l_org)/5,36/0
    002716  aa   000000 000000
    002717  aa   000000 000176
    002720  aa   000000 000453
    002721  aa   000000 000000
    002722  aa   040040 040040     316  		vfd a36/    ,36/i_n,36/0,36/(res1-l_org)/5,36/0
    002723  aa   000000 000002
    002724  aa   000000 000000
    002725  aa   000000 000443
    002726  aa   000000 000000
    002727  aa   163040 040040     317  l_82:		vfd a36/s   ,36/i_r,36/r_for,36/(l_83-l_org)/5,36/0
    002730  aa   000000 000000
    002731  aa   000000 000156
    002732  aa   000000 000454
    002733  aa   000000 000000
    002734  aa   163040 040040     318  l_83:		vfd a36/s   ,36/i_c,36/c_type8,36/(bop-l_org)/5,36/0
    002735  aa   000000 000001
    002736  aa   000000 000004
    002737  aa   000000 000514
    002740  aa   000000 000000
    002741  aa   040040 040040     319  		vfd a36/    ,36/i_n,36/0,36/(fail-l_org)/5,36/0
    002742  aa   000000 000002
    002743  aa   000000 000000
    002744  aa   000000 000572
    002745  aa   000000 000000
    002746  aa   040040 040040     320  	not_cond:	vfd a36/    ,36/i_r,36/r_lt,36/(lpar-l_org)/5,36/0
    002747  aa   000000 000000
    002750  aa   000000 000273
    002751  aa   000000 000441
    002752  aa   000000 000000
    002753  aa   040040 040040     321  		vfd a36/    ,36/i_s,36/(relop-l_org)/5,36/(imp_subj-l_org)/5,36/0
    002754  aa   000000 000003
    002755  aa   000000 000535
    002756  aa   000000 000471
    002757  aa   000000 000000
    002760  aa   163040 040040     322  l_84:		vfd a36/s   ,36/i_r,36/r_not,36/(rel-l_org)/5,36/0
    002761  aa   000000 000000
    002762  aa   000000 000202
    002763  aa   000000 000470
    002764  aa   000000 000000
    002765  aa   040040 040040     323  		vfd a36/    ,36/i_n,36/0,36/(lpar2-l_org)/5,36/0
    002766  aa   000000 000002
    002767  aa   000000 000000
    002770  aa   000000 000442
    002771  aa   000000 000000
    002772  aa   163040 040040     324  	is_cond:	vfd a36/s   ,36/i_r,36/r_not,36/(rel-l_org)/5,36/0
    002773  aa   000000 000000
    002774  aa   000000 000202
    002775  aa   000000 000470
    002776  aa   000000 000000
    002777  aa   040040 040040     325  		vfd a36/    ,36/i_s,36/(relop-l_org)/5,36/(imp_subj-l_org)/5,36/0
    003000  aa   000000 000003
    003001  aa   000000 000535
    003002  aa   000000 000471
    003003  aa   000000 000000
    003004  aa   163040 040040     326  		vfd a36/s   ,36/i_r,36/r_unequal,36/(l_85-l_org)/5,36/0
    003005  aa   000000 000000
    003006  aa   000000 000253
    003007  aa   000000 000466
    003010  aa   000000 000000
    003011  aa   040040 040040     327  		vfd a36/    ,36/i_n,36/0,36/(fail-l_org)/5,36/0
    003012  aa   000000 000002
    003013  aa   000000 000000
    003014  aa   000000 000572
    003015  aa   000000 000000
    003016  aa   163040 040040     328  l_85:		vfd a36/s   ,36/i_r,36/r_to,36/(imp_subj-l_org)/5,36/0
    003017  aa   000000 000000
    003020  aa   000000 000252
    003021  aa   000000 000471
    003022  aa   000000 000000
    003023  aa   040040 040040     329  		vfd a36/    ,36/i_n,36/0,36/(imp_subj-l_org)/5,36/0
    003024  aa   000000 000002
    003025  aa   000000 000000
    003026  aa   000000 000471
    003027  aa   000000 000000
    003030  aa   040040 040040     330  	rel:	vfd a36/    ,36/i_s,36/(relop-l_org)/5,36/(l_86-l_org)/5,36/0
    003031  aa   000000 000003
    003032  aa   000000 000535
    003033  aa   000000 000471
    003034  aa   000000 000000
    003035  aa   040040 040040     331  l_86:	imp_subj:	vfd a36/    ,36/i_c,36/c_is_sub_opt,36/(obj_op-l_org)/5,36/0
    003036  aa   000000 000001
    003037  aa   000000 000012
    003040  aa   000000 000512
    003041  aa   000000 000000
    003042  aa   040040 040040     332  		vfd a36/    ,36/i_n,36/0,36/(fail-l_org)/5,36/0
    003043  aa   000000 000002
    003044  aa   000000 000000
    003045  aa   000000 000572
    003046  aa   000000 000000
    003047  aa   040040 040040     333  	infix_rel:	vfd a36/    ,36/i_s,36/(relop-l_org)/5,36/(obj_op-l_org)/5,36/0
    003050  aa   000000 000003
    003051  aa   000000 000535
    003052  aa   000000 000512
    003053  aa   000000 000000
    003054  aa   163040 040040     334  		vfd a36/s   ,36/i_r,36/r_not,36/(inf_rel-l_org)/5,36/0
    003055  aa   000000 000000
    003056  aa   000000 000202
    003057  aa   000000 000510
    003060  aa   000000 000000
    003061  aa   163040 040040     335  		vfd a36/s   ,36/i_r,36/r_is,36/(inf_is-l_org)/5,36/0
    003062  aa   000000 000000
    003063  aa   000000 000166
    003064  aa   000000 000502
    003065  aa   000000 000000
    003066  aa   040040 040040     336  		vfd a36/    ,36/i_s,36/(pos_rel-l_org)/5,36/(obj_op-l_org)/5,36/0
    003067  aa   000000 000003
    003070  aa   000000 000527
    003071  aa   000000 000512
    003072  aa   000000 000000
    003073  aa   163040 040040     337  	inf_test:	vfd a36/s   ,36/i_k,36/k_ae_test,36/(bop-l_org)/5,36/0
    003074  aa   000000 000004
    003075  aa   000000 000005
    003076  aa   000000 000514
    003077  aa   000000 000000
    003100  aa   040040 040040     338  		vfd a36/    ,36/i_c,36/c_is_sub_opt,36/(bop-l_org)/5,36/0
    003101  aa   000000 000001
    003102  aa   000000 000012
    003103  aa   000000 000514
    003104  aa   000000 000000
    003105  aa   040040 040040     339  		vfd a36/    ,36/i_n,36/0,36/(fail-l_org)/5,36/0
    003106  aa   000000 000002
    003107  aa   000000 000000
    003110  aa   000000 000572
    003111  aa   000000 000000
    003112  aa   163040 040040     340  	inf_is:	vfd a36/s   ,36/i_r,36/r_not,36/(inf_rel-l_org)/5,36/0
    003113  aa   000000 000000
    003114  aa   000000 000202
    003115  aa   000000 000510
    003116  aa   000000 000000
    003117  aa   040040 040040     341  		vfd a36/    ,36/i_s,36/(relop-l_org)/5,36/(obj_op-l_org)/5,36/0
    003120  aa   000000 000003
    003121  aa   000000 000535
    003122  aa   000000 000512
    003123  aa   000000 000000
    003124  aa   163040 040040     342  		vfd a36/s   ,36/i_r,36/r_unequal,36/(l_87-l_org)/5,36/0
    003125  aa   000000 000000
    003126  aa   000000 000253
    003127  aa   000000 000506
    003130  aa   000000 000000
    003131  aa   040040 040040     343  		vfd a36/    ,36/i_n,36/0,36/(inf_test-l_org)/5,36/0
    003132  aa   000000 000002
    003133  aa   000000 000000
    003134  aa   000000 000477
    003135  aa   000000 000000
    003136  aa   163040 040040     344  l_87:		vfd a36/s   ,36/i_r,36/r_to,36/(obj_op-l_org)/5,36/0
    003137  aa   000000 000000
    003140  aa   000000 000252
    003141  aa   000000 000512
    003142  aa   000000 000000
    003143  aa   040040 040040     345  		vfd a36/    ,36/i_n,36/0,36/(obj_op-l_org)/5,36/0
    003144  aa   000000 000002
    003145  aa   000000 000000
    003146  aa   000000 000512
    003147  aa   000000 000000
    003150  aa   040040 040040     346  	inf_rel:	vfd a36/    ,36/i_s,36/(relop-l_org)/5,36/(l_88-l_org)/5,36/0
    003151  aa   000000 000003
    003152  aa   000000 000535
    003153  aa   000000 000512
    003154  aa   000000 000000
    003155  aa   040040 040040     347  		vfd a36/    ,36/i_n,36/0,36/(inf_test-l_org)/5,36/0
    003156  aa   000000 000002
    003157  aa   000000 000000
    003160  aa   000000 000477
    003161  aa   000000 000000
    003162  aa   040040 040040     348  l_88:	obj_op:	vfd a36/    ,36/i_s,36/(condop-l_org)/5,36/(l_89-l_org)/5,36/0
    003163  aa   000000 000003
    003164  aa   000000 000542
    003165  aa   000000 000514
    003166  aa   000000 000000
    003167  aa   040040 040040     349  		vfd a36/    ,36/i_n,36/0,36/(fail-l_org)/5,36/0
    003170  aa   000000 000002
    003171  aa   000000 000000
    003172  aa   000000 000572
    003173  aa   000000 000000
    003174  aa   040040 040040     350  l_89:	bop:	vfd a36/    ,36/i_n,36/0,36/(l_90-l_org)/5,36/a_s0
    003175  aa   000000 000002
    003176  aa   000000 000000
    003177  aa   000000 000515
    003200  aa   000000 000006
    003201  aa   163040 040040     351  l_90:		vfd a36/s   ,36/i_r,36/r_and,36/(lpar-l_org)/5,36/0
    003202  aa   000000 000000
    003203  aa   000000 000115
    003204  aa   000000 000441
    003205  aa   000000 000000
    003206  aa   163040 040040     352  	bop3:	vfd a36/s   ,36/i_r,36/r_or,36/(lpar-l_org)/5,36/0
    003207  aa   000000 000000
    003210  aa   000000 000207
    003211  aa   000000 000441
    003212  aa   000000 000000
    003213  aa   163040 040040     353  		vfd a36/s   ,36/i_r,36/r_rt,36/(more_rpar-l_org)/5,36/a_cdecrs1
    003214  aa   000000 000000
    003215  aa   000000 000274
    003216  aa   000000 000522
    003217  aa   000000 000007
    003220  aa   040040 040040     354  		vfd a36/    ,36/i_c,36/c_lptopstk,36/(succ-l_org)/5,36/0
    003221  aa   000000 000001
    003222  aa   000000 000013
    003223  aa   000000 000571
    003224  aa   000000 000000
    003225  aa   040040 040040     355  		vfd a36/    ,36/i_n,36/0,36/(fail-l_org)/5,36/0
    003226  aa   000000 000002
    003227  aa   000000 000000
    003230  aa   000000 000572
    003231  aa   000000 000000
    003232  aa   163040 040040     356  	more_rpar:	vfd a36/s   ,36/i_r,36/r_rt,36/(l_91-l_org)/5,36/a_cincr
    003233  aa   000000 000000
    003234  aa   000000 000274
    003235  aa   000000 000525
    003236  aa   000000 000011
    003237  aa   163040 040040     357  		vfd a36/s   ,36/i_r,36/r_and,36/(lpar-l_org)/5,36/0
    003240  aa   000000 000000
    003241  aa   000000 000115
    003242  aa   000000 000441
    003243  aa   000000 000000
    003244  aa   040040 040040     358  		vfd a36/    ,36/i_n,36/0,36/(bop3-l_org)/5,36/0
    003245  aa   000000 000002
    003246  aa   000000 000000
    003247  aa   000000 000516
    003250  aa   000000 000000
    003251  aa   040040 040040     359  l_91:		vfd a36/    ,36/i_c,36/c_lptopstk,36/(more_rpar-l_org)/5,36/0
    003252  aa   000000 000001
    003253  aa   000000 000013
    003254  aa   000000 000522
    003255  aa   000000 000000
    003256  aa   040040 040040     360  		vfd a36/    ,36/i_n,36/0,36/(fail-l_org)/5,36/0
    003257  aa   000000 000002
    003260  aa   000000 000000
    003261  aa   000000 000572
    003262  aa   000000 000000
    003263  aa   163040 040040     361  	pos_rel:	vfd a36/s   ,36/i_r,36/r_equals,36/(succ-l_org)/5,36/0
    003264  aa   000000 000000
    003265  aa   000000 000146
    003266  aa   000000 000571
    003267  aa   000000 000000
    003270  aa   163040 040040     362  		vfd a36/s   ,36/i_r,36/r_exceeds,36/(succ-l_org)/5,36/0
    003271  aa   000000 000000
    003272  aa   000000 000161
    003273  aa   000000 000571
    003274  aa   000000 000000
    003275  aa   163040 040040     363  		vfd a36/s   ,36/i_r,36/r_unequal,36/(l_92-l_org)/5,36/0
    003276  aa   000000 000000
    003277  aa   000000 000253
    003300  aa   000000 000533
    003301  aa   000000 000000
    003302  aa   040040 040040     364  		vfd a36/    ,36/i_n,36/0,36/(fail-l_org)/5,36/0
    003303  aa   000000 000002
    003304  aa   000000 000000
    003305  aa   000000 000572
    003306  aa   000000 000000
    003307  aa   163040 040040     365  l_92:		vfd a36/s   ,36/i_r,36/r_to,36/(succ-l_org)/5,36/0
    003310  aa   000000 000000
    003311  aa   000000 000252
    003312  aa   000000 000571
    003313  aa   000000 000000
    003314  aa   040040 040040     366  		vfd a36/    ,36/i_n,36/0,36/(succ-l_org)/5,36/0
    003315  aa   000000 000002
    003316  aa   000000 000000
    003317  aa   000000 000571
    003320  aa   000000 000000
    003321  aa   163040 040040     367  	relop:	vfd a36/s   ,36/i_c,36/c_relop,36/(l_93-l_org)/5,36/0
    003322  aa   000000 000001
    003323  aa   000000 000014
    003324  aa   000000 000537
    003325  aa   000000 000000
    003326  aa   040040 040040     368  		vfd a36/    ,36/i_n,36/0,36/(fail-l_org)/5,36/0
    003327  aa   000000 000002
    003330  aa   000000 000000
    003331  aa   000000 000572
    003332  aa   000000 000000
    003333  aa   163040 040040     369  l_93:		vfd a36/s   ,36/i_r,36/r_to,36/(succ-l_org)/5,36/0
    003334  aa   000000 000000
    003335  aa   000000 000252
    003336  aa   000000 000571
    003337  aa   000000 000000
    003340  aa   163040 040040     370  		vfd a36/s   ,36/i_r,36/r_than,36/(succ-l_org)/5,36/0
    003341  aa   000000 000000
    003342  aa   000000 000245
    003343  aa   000000 000571
    003344  aa   000000 000000
    003345  aa   040040 040040     371  		vfd a36/    ,36/i_n,36/0,36/(succ-l_org)/5,36/0
    003346  aa   000000 000002
    003347  aa   000000 000000
    003350  aa   000000 000571
    003351  aa   000000 000000
    003352  aa   163040 040040     372  	condop:	vfd a36/s   ,36/i_r,36/r_all,36/(l_94-l_org)/5,36/0
    003353  aa   000000 000000
    003354  aa   000000 000111
    003355  aa   000000 000547
    003356  aa   000000 000000
    003357  aa   163040 040040     373  		vfd a36/s   ,36/i_c,36/c_figconall,36/(succ-l_org)/5,36/0
    003360  aa   000000 000001
    003361  aa   000000 000016
    003362  aa   000000 000571
    003363  aa   000000 000000
    003364  aa   163040 040040     374  		vfd a36/s   ,36/i_c,36/c_type3,36/(succ-l_org)/5,36/0
    003365  aa   000000 000001
    003366  aa   000000 000015
    003367  aa   000000 000571
    003370  aa   000000 000000
    003371  aa   040040 040040     375  		vfd a36/    ,36/i_s,36/(arithexp-l_org)/5,36/(succ-l_org)/5,36/0
    003372  aa   000000 000003
    003373  aa   000000 000551
    003374  aa   000000 000571
    003375  aa   000000 000000
    003376  aa   040040 040040     376  		vfd a36/    ,36/i_n,36/0,36/(fail-l_org)/5,36/0
    003377  aa   000000 000002
    003400  aa   000000 000000
    003401  aa   000000 000572
    003402  aa   000000 000000
    003403  aa   163040 040040     377  l_94:		vfd a36/s   ,36/i_c,36/c_figconall,36/(succ-l_org)/5,36/0
    003404  aa   000000 000001
    003405  aa   000000 000016
    003406  aa   000000 000571
    003407  aa   000000 000000
    003410  aa   040040 040040     378  		vfd a36/    ,36/i_n,36/0,36/(fail-l_org)/5,36/0
    003411  aa   000000 000002
    003412  aa   000000 000000
    003413  aa   000000 000572
    003414  aa   000000 000000
    003415  aa   040040 040040     379  	arithexp:	vfd a36/    ,36/i_n,36/0,36/(l_95-l_org)/5,36/a_ae_init
    003416  aa   000000 000002
    003417  aa   000000 000000
    003420  aa   000000 000552
    003421  aa   000000 000100
    003422  aa   163040 040040     380  l_95:		vfd a36/s   ,36/i_r,36/r_pls,36/(ae_3-l_org)/5,36/0
    003423  aa   000000 000000
    003424  aa   000000 000266
    003425  aa   000000 000561
    003426  aa   000000 000000
    003427  aa   163040 040040     381  		vfd a36/s   ,36/i_r,36/r_sub,36/(ae_3-l_org)/5,36/0
    003430  aa   000000 000000
    003431  aa   000000 000267
    003432  aa   000000 000561
    003433  aa   000000 000000
    003434  aa   163040 040040     382  l_96:		vfd a36/s   ,36/i_s,36/(elnuitem-l_org)/5,36/(ae_1-l_org)/5,36/0
    003435  aa   000000 000003
    003436  aa   000000 000427
    003437  aa   000000 000564
    003440  aa   000000 000000
    003441  aa   163040 040040     383  		vfd a36/s   ,36/i_r,36/r_lt,36/(l_97-l_org)/5,36/0
    003442  aa   000000 000000
    003443  aa   000000 000273
    003444  aa   000000 000557
    003445  aa   000000 000000
    003446  aa   040040 040040     384  		vfd a36/    ,36/i_n,36/0,36/(fail-l_org)/5,36/0
    003447  aa   000000 000002
    003450  aa   000000 000000
    003451  aa   000000 000572
    003452  aa   000000 000000
    003453  aa   163040 040040     385  l_97:	ae_2:	vfd a36/s   ,36/i_r,36/r_pls,36/(l_98-l_org)/5,36/0
    003454  aa   000000 000000
    003455  aa   000000 000266
    003456  aa   000000 000561
    003457  aa   000000 000000
    003460  aa   163040 040040     386  		vfd a36/s   ,36/i_r,36/r_sub,36/(l_98-l_org)/5,36/0
    003461  aa   000000 000000
    003462  aa   000000 000267
    003463  aa   000000 000561
    003464  aa   000000 000000
    003465  aa   163040 040040     387  l_98:	ae_3:	vfd a36/s   ,36/i_s,36/(elnuitem-l_org)/5,36/(l_99-l_org)/5,36/0
    003466  aa   000000 000003
    003467  aa   000000 000427
    003470  aa   000000 000564
    003471  aa   000000 000000
    003472  aa   163040 040040     388  		vfd a36/s   ,36/i_r,36/r_lt,36/(ae_2-l_org)/5,36/a_cincrs1
    003473  aa   000000 000000
    003474  aa   000000 000273
    003475  aa   000000 000557
    003476  aa   000000 000010
    003477  aa   040040 040040     389  		vfd a36/    ,36/i_n,36/0,36/(fail-l_org)/5,36/0
    003500  aa   000000 000002
    003501  aa   000000 000000
    003502  aa   000000 000572
    003503  aa   000000 000000
    003504  aa   163040 040040     390  l_99:	ae_1:	vfd a36/s   ,36/i_c,36/c_arop,36/(ae_2-l_org)/5,36/0
    003505  aa   000000 000001
    003506  aa   000000 000017
    003507  aa   000000 000557
    003510  aa   000000 000000
    003511  aa   163040 040040     391  		vfd a36/s   ,36/i_r,36/r_rt,36/(l_100-l_org)/5,36/a_cincr
    003512  aa   000000 000000
    003513  aa   000000 000274
    003514  aa   000000 000567
    003515  aa   000000 000011
    003516  aa   040040 040040     392  		vfd a36/    ,36/i_n,36/0,36/(succ-l_org)/5,36/a_ae_final
    003517  aa   000000 000002
    003520  aa   000000 000000
    003521  aa   000000 000571
    003522  aa   000000 000101
    003523  aa   040040 040040     393  l_100:		vfd a36/    ,36/i_c,36/c_lptopstk,36/(ae_1-l_org)/5,36/0
    003524  aa   000000 000001
    003525  aa   000000 000013
    003526  aa   000000 000564
    003527  aa   000000 000000
    003530  aa   040040 040040     394  		vfd a36/    ,36/i_n,36/0,36/(fail-l_org)/5,36/0
    003531  aa   000000 000002
    003532  aa   000000 000000
    003533  aa   000000 000572
    003534  aa   000000 000000
    003535  aa   040040 040040     395  	succ:	vfd a36/    ,36/i_n,36/0,36/(succ-l_org)/5,36/a_s_exit
    003536  aa   000000 000002
    003537  aa   000000 000000
    003540  aa   000000 000571
    003541  aa   000000 000001
    003542  aa   040040 040040     396  	fail:	vfd a36/    ,36/i_n,36/0,36/(fail-l_org)/5,36/a_f_exit
    003543  aa   000000 000002
    003544  aa   000000 000000
    003545  aa   000000 000572
    003546  aa   000000 000002
    003547  aa   040040 040040     397  	r1:	vfd a36/    ,36/i_c,36/c_eof,36/(rs_1-l_org)/5,36/0
    003550  aa   000000 000001
    003551  aa   000000 000001
    003552  aa   000000 000004
    003553  aa   000000 000000
    003554  aa   040040 040040     398  		vfd a36/    ,36/i_n,36/0,36/(fail-l_org)/5,36/0
    003555  aa   000000 000002
    003556  aa   000000 000000
    003557  aa   000000 000572
    003560  aa   000000 000000
    003561  aa   040040 040040     399  	r2:	vfd a36/    ,36/i_r,36/r_rd,36/(reps_1-l_org)/5,36/0
    003562  aa   000000 000000
    003563  aa   000000 001110
    003564  aa   000000 000013
    003565  aa   000000 000000
    003566  aa   040040 040040     400  		vfd a36/    ,36/i_n,36/0,36/(fail-l_org)/5,36/0
    003567  aa   000000 000002
    003570  aa   000000 000000
    003571  aa   000000 000572
    003572  aa   000000 000000
    003573  aa   163040 040040     401  	r6:	vfd a36/s   ,36/i_r,36/r_per,36/(rep_1-l_org)/5,36/0
    003574  aa   000000 000000
    003575  aa   000000 000275
    003576  aa   000000 000032
    003577  aa   000000 000000
    003600  aa   040040 040040     402  		vfd a36/    ,36/i_n,36/0,36/(fail-l_org)/5,36/0
    003601  aa   000000 000002
    003602  aa   000000 000000
    003603  aa   000000 000572
    003604  aa   000000 000000
    003605  aa   040040 040040     403  	r3:	vfd a36/    ,36/i_K,36/k_rw_rd,36/(rd_1-l_org)/5,36/0
    003606  aa   000000 000005
    003607  aa   000000 000001
    003610  aa   000000 000045
    003611  aa   000000 000000
    003612  aa   040040 040040     404  		vfd a36/    ,36/i_n,36/0,36/(fail-l_org)/5,36/0
    003613  aa   000000 000002
    003614  aa   000000 000000
    003615  aa   000000 000572
    003616  aa   000000 000000
    003617  aa   040040 040040     405  	r4:	vfd a36/    ,36/i_K,36/k_rw_pg,36/(pg_1-l_org)/5,36/0
    003620  aa   000000 000005
    003621  aa   000000 000002
    003622  aa   000000 000122
    003623  aa   000000 000000
    003624  aa   040040 040040     406  		vfd a36/    ,36/i_n,36/0,36/(fail-l_org)/5,36/0
    003625  aa   000000 000002
    003626  aa   000000 000000
    003627  aa   000000 000572
    003630  aa   000000 000000
    003631  aa   040040 040040     407  	r5:	vfd a36/    ,36/i_K,36/k_rw_rg,36/(rg_1-l_org)/5,36/0
    003632  aa   000000 000005
    003633  aa   000000 000003
    003634  aa   000000 000154
    003635  aa   000000 000000
    003636  aa   040040 040040     408  		vfd a36/    ,36/i_n,36/0,36/(fail-l_org)/5,36/a_rg_entry_2
    003637  aa   000000 000002
    003640  aa   000000 000000
    003641  aa   000000 000572
    003642  aa   000000 000107
                        000017     409  	equ c_arop,15
                        000005     410  	equ c_code_lit,5
                        000001     411  	equ c_eof,1
                        000016     412  	equ c_figconall,14
                        000021     413  	equ c_illeg_ln,17
                        000007     414  	equ c_integer,7
                        000012     415  	equ c_is_sub_opt,10
                        000002     416  	equ c_lev_num,2
                        000010     417  	equ c_literal,8
                        000013     418  	equ c_lptopstk,11
                        000020     419  	equ c_nonumlit,16
                        000006     420  	equ c_pic,6
                        000014     421  	equ c_relop,12
                        000011     422  	equ c_type1,9
                        000003     423  	equ c_type2,3
                        000015     424  	equ c_type3,13
                        000004     425  	equ c_type8,4
                        000101     426  	equ a_ae_final,65
                        000100     427  	equ a_ae_init,64
                        000005     428  	equ a_c0s1,5
                        000007     429  	equ a_cdecrs1,7
                        000011     430  	equ a_cincr,9
                        000010     431  	equ a_cincrs1,8
                        000071     432  	equ a_code,57
                        000112     433  	equ a_con_1,74
                        000072     434  	equ a_con_2,58
                        000123     435  	equ a_con_3,83
                        000073     436  	equ a_con_init,59
                        000074     437  	equ a_con_name,60
                        000110     438  	equ a_con_name_1,72
                        000111     439  	equ a_con_name_2,73
                        000002     440  	equ a_f_exit,2
                        000046     441  	equ a_id_1,38
                        000047     442  	equ a_id_2,39
                        000103     443  	equ a_id_3,67
                        000054     444  	equ a_id_4,44
                        000121     445  	equ a_lit_1,81
                        000122     446  	equ a_lit_2,82
                        000076     447  	equ a_pg_cl_num,62
                        000077     448  	equ a_pg_clause,63
                        000075     449  	equ a_pg_init,61
                        000120     450  	equ a_pg_set,80
                        000044     451  	equ a_q_name_1,36
                        000045     452  	equ a_q_name_2,37
                        000104     453  	equ a_q_name_3,68
                        000067     454  	equ a_rd_cl_num,55
                        000070     455  	equ a_rd_clause,56
                        000065     456  	equ a_rd_init,53
                        000066     457  	equ a_rd_name,54
                        000003     458  	equ a_recov_loc,3
                        000004     459  	equ a_recvy,4
                        000013     460  	equ a_rep_add,11
                        000102     461  	equ a_rep_group,66
                        000105     462  	equ a_rep_group_1,69
                        000012     463  	equ a_rep_init,10
                        000016     464  	equ a_rg_clause,14
                        000015     465  	equ a_rg_clnum,13
                        000041     466  	equ a_rg_col_1,33
                        000042     467  	equ a_rg_col_2,34
                        000043     468  	equ a_rg_col_3,35
                        000106     469  	equ a_rg_entry_1,70
                        000107     470  	equ a_rg_entry_2,71
                        000023     471  	equ a_rg_group_1,19
                        000024     472  	equ a_rg_group_2,20
                        000025     473  	equ a_rg_group_3,21
                        000026     474  	equ a_rg_group_4,22
                        000014     475  	equ a_rg_init,12
                        000017     476  	equ a_rg_line_1,15
                        000020     477  	equ a_rg_line_2,16
                        000021     478  	equ a_rg_line_3,17
                        000022     479  	equ a_rg_line_4,18
                        000037     480  	equ a_rg_pres_1,31
                        000040     481  	equ a_rg_pres_2,32
                        000027     482  	equ a_rg_type_1,23
                        000030     483  	equ a_rg_type_2,24
                        000031     484  	equ a_rg_type_3,25
                        000032     485  	equ a_rg_type_4,26
                        000033     486  	equ a_rg_type_5,27
                        000034     487  	equ a_rg_type_6,28
                        000035     488  	equ a_rg_type_7,29
                        000036     489  	equ a_rg_type_8,30
                        000113     490  	equ a_rg_type_9,75
                        000117     491  	equ a_rg_type_a,79
                        000115     492  	equ a_rs_exit,77
                        000006     493  	equ a_s0,6
                        000001     494  	equ a_s_exit,1
                        000061     495  	equ a_sign_1,49
                        000062     496  	equ a_sign_2,50
                        000063     497  	equ a_sign_3,51
                        000064     498  	equ a_sign_4,52
                        000050     499  	equ a_sum_1,40
                        000051     500  	equ a_sum_2,41
                        000052     501  	equ a_sum_3,42
                        000053     502  	equ a_sum_4,43
                        000114     503  	equ a_sum_5,76
                        000055     504  	equ a_sum_ph_1,45
                        000056     505  	equ a_sum_ph_2,46
                        000057     506  	equ a_sum_ph_3,47
                        000060     507  	equ a_sum_ph_4,48
                        000273     508  	equ r_lt,187
                        000274     509  	equ r_rt,188
                        000266     510  	equ r_pls,182
                        000267     511  	equ r_sub,183
                        000275     512  	equ r_per,189
                        000111     513  	equ r_all,73
                        000115     514  	equ r_and,77
                        000123     515  	equ r_character,83
                        001033     516  	equ r_detail,539
                        000052     517  	equ r_display,42
                        000146     518  	equ r_equals,102
                        000161     519  	equ r_exceeds,113
                        001042     520  	equ r_final,546
                        001043     521  	equ r_footing,547
                        000156     522  	equ r_for,110
                        001045     523  	equ r_group,549
                        001044     524  	equ r_heading,548
                        000145     525  	equ r_in,101
                        001051     526  	equ r_indicate,553
                        000166     527  	equ r_is,118
                        000172     528  	equ r_leading,122
                        001061     529  	equ r_limit,561
                        001062     530  	equ r_limits,562
                        000174     531  	equ r_line,124
                        000176     532  	equ r_message,126
                        000200     533  	equ r_next,128
                        000202     534  	equ r_not,130
                        001073     535  	equ r_number,571
                        000205     536  	equ r_of,133
                        000206     537  	equ r_on,134
                        000207     538  	equ r_or,135
                        000213     539  	equ r_page,139
                        001105     540  	equ r_plus,581
                        001110     541  	equ r_rd,584
                        000360     542  	equ r_report,240
                        001116     543  	equ r_reset,590
                        000361     544  	equ r_right,241
                        000236     545  	equ r_section,158
                        000364     546  	equ r_separate,244
                        000365     547  	equ r_sign,245
                        001133     548  	equ r_sum,603
                        000245     549  	equ r_than,165
                        000252     550  	equ r_to,170
                        000377     551  	equ r_trailing,255
                        000253     552  	equ r_unequal,171
                        000257     553  	equ r_upon,175
                        000401     554  	equ r_usage,257
                        000262     555  	equ r_when,178
                        000264     556  	equ r_zero,180
                        000005     557  	equ k_ae_test,5
                        000002     558  	equ k_rw_pg,2
                        000001     559  	equ k_rw_rd,1
                        000003     560  	equ k_rw_rg,3
                        000004     561  	equ k_rw_type,4
                                   562  	end
ENTRY SEQUENCES

    003643  5a   000011 0000 00
    003644  aa  7 00046 2721 20
    003645  0a   000000 7100 00

NO LITERALS

NAME DEFINITIONS FOR ENTRY POINTS AND SEGDEFS

    003646  5a   000003 000000
    003647  5a   000026 600000
    003650  aa   000000 000000
    003651  55   000011 000002
    003652  5a   000002 400003
    003653  55   000006 000011
    003654  aa  010 143 157 142
    003655  aa  157 154 137 162
    003656  aa  167 000 000 000
    003657  55   000017 000003
    003660  0a   003644 500000
    003661  55   000014 000003
    003662  aa  010 143 157 142         cobol_rw
    003663  aa  157 154 137 162
    003664  aa  167 000 000 000
    003665  55   000002 000011
    003666  6a   000000 400002
    003667  55   000022 000003
    003670  aa  014 163 171 155         symbol_table
    003671  aa  142 157 154 137
    003672  aa  164 141 142 154
    003673  aa  145 000 000 000

DEFINITIONS HASH TABLE

    003674  aa   000000 000015
    003675  aa   000000 000000
    003676  aa   000000 000000
    003677  aa   000000 000000
    003700  aa   000000 000000
    003701  aa   000000 000000
    003702  aa   000000 000000
    003703  5a   000017 000000
    003704  5a   000011 000000
    003705  aa   000000 000000
    003706  aa   000000 000000
    003707  aa   000000 000000
    003710  aa   000000 000000
    003711  aa   000000 000000

NO EXTERNAL NAMES

NO TRAP POINTER WORDS

TYPE PAIR BLOCKS

    003712  aa   000001 000000
    003713  aa   000000 000000

INTERNAL EXPRESSION WORDS

LINKAGE INFORMATION

    000000  aa   000000 000000
    000001  0a   003646 000000
    000002  aa   000000 000000
    000003  aa   000000 000000
    000004  aa   000000 000000
    000005  aa   000000 000000
    000006  22   000010 000010
    000007  a2   000000 000000
SYMBOL INFORMATION

SYMBOL TABLE HEADER

    000000  aa   000000 000001
    000001  aa   163171 155142
    000002  aa   164162 145145
    000003  aa   000000 000004
    000004  aa   000000 111316
    000005  aa   510113 575622
    000006  aa   000000 111330
    000007  aa   401333 737107
    000010  aa   141154 155040
    000011  aa   040040 040040
    000012  aa   000024 000040
    000013  aa   000034 000040
    000014  aa   000044 000100
    000015  aa   000002 000002
    000016  aa   000064 000000
    000017  aa   000000 000273
    000020  aa   000000 000102
    000021  aa   000000 000262
    000022  aa   000265 000102
    000023  aa   000064 000000
    000024  aa   101114 115040
    000025  aa   126145 162163
    000026  aa   151157 156040
    000027  aa   040066 056064
    000030  aa   040040 101160
    000031  aa   162151 154040
    000032  aa   061071 070061
    000033  aa   040040 040040
    000034  aa   110157 154155
    000035  aa   163164 145144
    000036  aa   164056 123171
    000037  aa   163115 141151
    000040  aa   156164 056155
    000041  aa   040040 040040
    000042  aa   040040 040040
    000043  aa   040040 040040
    000044  aa   154151 163164
    000045  aa   040040 040040
    000046  aa   040040 040040
    000047  aa   040040 040040
    000050  aa   040040 040040
    000051  aa   040040 040040
    000052  aa   040040 040040
    000053  aa   040040 040040
    000054  aa   040040 040040
    000055  aa   040040 040040
    000056  aa   040040 040040
    000057  aa   040040 040040
    000060  aa   040040 040040
    000061  aa   040040 040040
    000062  aa   040040 040040
    000063  aa   040040 040040
    000064  aa   000000 000001
    000065  aa   000000 000001
    000066  aa   000072 000036
    000067  aa   113225 112160
    000070  aa   000000 111330
    000071  aa   355717 200000
    000072  aa   076163 160145          >spec>on>11/11/82>cobol_rw.alm
    000073  aa   143076 157156
    000074  aa   076061 061057
    000075  aa   061061 057070
    000076  aa   062076 143157
    000077  aa   142157 154137
    000100  aa   162167 056141
    000101  aa   154155 040040
               MULTICS ASSEMBLY CROSS REFERENCE LISTING

   Value        Symbol                   Source file   Line number

        3504    ae_1                     cobol_rw:     382,  390,  393.
        3453    ae_2                     cobol_rw:     385,  388,  390.
        3465    ae_3                     cobol_rw:     380,  381,  387.
        3415    arithexp                 cobol_rw:     375,  379.
         101    a_ae_final               cobol_rw:     392,  426.
         100    a_ae_init                cobol_rw:     379,  427.
           5    a_c0s1                   cobol_rw:     306,  428.
           7    a_cdecrs1                cobol_rw:     353,  429.
          11    a_cincr                  cobol_rw:     356,  391,  430.
          10    a_cincrs1                cobol_rw:     307,  388,  431.
          71    a_code                   cobol_rw:      68,  432.
         112    a_con_1                  cobol_rw:      75,  433.
          72    a_con_2                  cobol_rw:      79,  434.
         123    a_con_3                  cobol_rw:      78,  435.
          73    a_con_init               cobol_rw:      70,  436.
          74    a_con_name               cobol_rw:      81,  437.
         110    a_con_name_1             cobol_rw:      82,   86,  438.
         111    a_con_name_2             cobol_rw:      85,  439.
           2    a_f_exit                 cobol_rw:     396,  440.
          46    a_id_1                   cobol_rw:     279,  441.
          47    a_id_2                   cobol_rw:     286,  442.
         103    a_id_3                   cobol_rw:     280,  443.
          54    a_id_4                   cobol_rw:     282,  444.
         121    a_lit_1                  cobol_rw:     272,  273,  274,  445.
         122    a_lit_2                  cobol_rw:     276,  277,  446.
          77    a_pg_clause              cobol_rw:     105,  109,  448.
          76    a_pg_cl_num              cobol_rw:     101,  102,  103,  104,  447.
          75    a_pg_init                cobol_rw:      97,  449.
         120    a_pg_set                 cobol_rw:      98,  450.
          44    a_q_name_1               cobol_rw:      88,  451.
          45    a_q_name_2               cobol_rw:      93,  452.
         104    a_q_name_3               cobol_rw:      89,   94,  453.
          70    a_rd_clause              cobol_rw:      60,   62,   64,  455.
          67    a_rd_cl_num              cobol_rw:      57,   58,   59,  454.
          65    a_rd_init                cobol_rw:      50,  456.
          66    a_rd_name                cobol_rw:      52,  457.
           3    a_recov_loc              cobol_rw:      19,   23,   39,   49,   96,  119,  458.
           4    a_recvy                  cobol_rw:      27,   31,   47,   66,  110,  173,  459.
          13    a_rep_add                cobol_rw:      26,   30,  460.
         102    a_rep_group              cobol_rw:      46,  461.
         105    a_rep_group_1            cobol_rw:      40,  462.
          12    a_rep_init               cobol_rw:      24,  463.
          16    a_rg_clause              cobol_rw:     142,  144,  146,  148,  150,  152,  154,  156,  158,  161,  164,  167,
                                                       169,  171,  464.
          15    a_rg_clnum               cobol_rw:     128,  129,  130,  131,  132,  133,  134,  135,  136,  137,  138,  139,
                                                       140,  141,  465.
          41    a_rg_col_1               cobol_rw:     237,  466.
          42    a_rg_col_2               cobol_rw:     238,  467.
          43    a_rg_col_3               cobol_rw:     239,  468.
         106    a_rg_entry_1             cobol_rw:     123,  469.
         107    a_rg_entry_2             cobol_rw:     127,  408,  470.
          23    a_rg_group_1             cobol_rw:     192,  471.
          24    a_rg_group_2             cobol_rw:     193,  472.
          25    a_rg_group_3             cobol_rw:     194,  473.
          26    a_rg_group_4             cobol_rw:     195,  474.
          14    a_rg_init                cobol_rw:     120,  475.
          17    a_rg_line_1              cobol_rw:     177,  476.
          20    a_rg_line_2              cobol_rw:     182,  477.
          21    a_rg_line_3              cobol_rw:     187,  478.
          22    a_rg_line_4              cobol_rw:     185,  479.
          37    a_rg_pres_1              cobol_rw:     229,  480.
          40    a_rg_pres_2              cobol_rw:     230,  481.
          27    a_rg_type_1              cobol_rw:     201,  202,  203,  204,  205,  206,  207,  482.
          30    a_rg_type_2              cobol_rw:     212,  483.
          31    a_rg_type_3              cobol_rw:     213,  484.
          32    a_rg_type_4              cobol_rw:     215,  485.
          33    a_rg_type_5              cobol_rw:     216,  486.
          34    a_rg_type_6              cobol_rw:     218,  487.
          35    a_rg_type_7              cobol_rw:     221,  488.
          36    a_rg_type_8              cobol_rw:     222,  489.
         113    a_rg_type_9              cobol_rw:     219,  490.
         117    a_rg_type_a              cobol_rw:     211,  491.
         115    a_rs_exit                cobol_rw:      22,  492.
           6    a_s0                     cobol_rw:     350,  493.
          61    a_sign_1                 cobol_rw:     264,  495.
          62    a_sign_2                 cobol_rw:     265,  496.
          63    a_sign_3                 cobol_rw:     270,  497.
          64    a_sign_4                 cobol_rw:     271,  498.
          50    a_sum_1                  cobol_rw:     241,  499.
          51    a_sum_2                  cobol_rw:     242,  500.
          52    a_sum_3                  cobol_rw:     249,  501.
          53    a_sum_4                  cobol_rw:     248,  502.
         114    a_sum_5                  cobol_rw:     244,  503.
          55    a_sum_ph_1               cobol_rw:     251,  504.
          56    a_sum_ph_2               cobol_rw:     256,  259,  505.
          57    a_sum_ph_3               cobol_rw:     252,  506.
          60    a_sum_ph_4               cobol_rw:     257,  507.
           1    a_s_exit                 cobol_rw:     395,  494.
        2056    blank                    cobol_rw:     152,  232.
        3174    bop                      cobol_rw:     318,  337,  338,  350.
        3206    bop3                     cobol_rw:     352,  358.
           0    cobol_rw                 cobol_rw:       7,    8,    9.
         372    code                     cobol_rw:      60,   68.
        2075    column                   cobol_rw:     158,  235.
        2640    condition                cobol_rw:     230,  306.
        3352    condop                   cobol_rw:     309,  348,  372.
         404    control                  cobol_rw:      62,   70.
         447    c_1                      cobol_rw:      72,   77.
          17    c_arop                   cobol_rw:     390,  409.
           5    c_code_lit               cobol_rw:      68,  410.
           1    c_eof                    cobol_rw:      29,  397,  411.
          16    c_figconall              cobol_rw:     273,  276,  373,  377,  412.
          21    c_illeg_ln               cobol_rw:     413.
           7    c_integer                cobol_rw:     105,  109,  115,  177,  187,  195,  239,  414.
          12    c_is_sub_opt             cobol_rw:     331,  338,  415.
           2    c_lev_num                cobol_rw:      42,   44,  121,  416.
          10    c_literal                cobol_rw:     272,  417.
          13    c_lptopstk               cobol_rw:     354,  359,  393,  418.
          20    c_nonumlit               cobol_rw:     277,  419.
           6    c_pic                    cobol_rw:     161,  420.
          14    c_relop                  cobol_rw:     367,  421.
          11    c_type1                  cobol_rw:     308,  422.
           3    c_type2                  cobol_rw:     289,  295,  297,  423.
          15    c_type3                  cobol_rw:     374,  424.
           4    c_type8                  cobol_rw:      52,   73,   77,   84,   89,   94,  123,  255,  298,  318,  425.
        2563    elnuitem                 cobol_rw:     297,  382,  387.
        2626    el_1                     cobol_rw:     298,  304.
        3542    fail                     cobol_rw:      25,   28,   32,   34,   36,   38,   41,   43,   48,   51,   67,   69,
                                                        74,   76,   80,   83,   87,   90,   95,  111,  116,  126,  174,  179,
                                                       184,  186,  188,  190,  196,  198,  200,  214,  217,  220,  223,  227,
                                                       231,  234,  240,  243,  250,  253,  258,  263,  275,  278,  281,  285,
                                                       288,  291,  296,  301,  303,  305,  310,  319,  327,  332,  339,  349,
                                                       355,  360,  364,  368,  376,  378,  384,  389,  394,  396,  398,  400,
                                                       402,  404,  406,  408.
        2431    ident                    cobol_rw:     164,  252,  279,  304.
        3035    imp_subj                 cobol_rw:     311,  314,  321,  325,  328,  329,  331.
        3047    infix_rel                cobol_rw:     309,  333.
        3112    inf_is                   cobol_rw:     335,  340.
        3150    inf_rel                  cobol_rw:     334,  340,  346.
        3073    inf_test                 cobol_rw:     337,  343,  347.
        2772    is_cond                  cobol_rw:     313,  324.
           1    i_c                      cobol_rw:      13,   29,   42,   44,   52,   68,   73,   77,   84,   89,   94,  105,
                                                       109,  115,  121,  123,  161,  177,  187,  195,  239,  255,  272,  273,
                                                       276,  277,  289,  295,  297,  298,  308,  318,  331,  338,  354,  359,
                                                       367,  373,  374,  377,  390,  393,  397.
           5    i_K                      cobol_rw:      17,   55,  100,  126,  200,  403,  405,  407.
           4    i_k                      cobol_rw:      16,   53,  124,  337.
           2    i_n                      cobol_rw:      15,   19,   21,   22,   23,   25,   27,   28,   31,   32,   34,   36,
                                                        38,   39,   41,   43,   45,   47,   48,   49,   51,   54,   56,   57,
                                                        58,   59,   61,   63,   65,   66,   67,   69,   70,   74,   76,   78,
                                                        80,   81,   83,   85,   87,   88,   90,   93,   95,   96,   97,   99,
                                                       101,  102,  103,  104,  106,  108,  110,  111,  116,  118,  119,  120,
                                                       122,  125,  127,  128,  129,  130,  131,  132,  133,  134,  135,  136,
                                                       137,  138,  139,  140,  141,  143,  145,  147,  149,  151,  153,  155,
                                                       157,  159,  162,  165,  168,  170,  172,  173,  174,  179,  182,  184,
                                                       186,  188,  190,  194,  196,  198,  201,  202,  203,  204,  205,  206,
                                                       207,  208,  209,  210,  211,  214,  217,  220,  223,  227,  229,  231,
                                                       234,  238,  240,  241,  243,  246,  250,  251,  253,  256,  258,  259,
                                                       263,  265,  267,  269,  271,  275,  278,  279,  281,  283,  285,  288,
                                                       291,  294,  296,  301,  303,  305,  306,  310,  316,  319,  323,  327,
                                                       329,  332,  339,  343,  345,  347,  349,  350,  355,  358,  360,  364,
                                                       366,  368,  371,  376,  378,  379,  384,  389,  392,  394,  395,  396,
                                                       398,  400,  402,  404,  406,  408.
           0    i_r                      cobol_rw:      12,   33,   35,   37,   50,   71,   72,   91,   92,  107,  112,  113,
                                                       114,  117,  154,  156,  160,  163,  166,  175,  176,  178,  180,  181,
                                                       183,  185,  189,  191,  192,  193,  197,  199,  212,  213,  215,  216,
                                                       218,  221,  222,  224,  225,  226,  228,  232,  233,  235,  236,  237,
                                                       244,  245,  247,  248,  254,  260,  261,  262,  264,  266,  268,  270,
                                                       274,  282,  286,  292,  293,  299,  300,  302,  307,  312,  313,  315,
                                                       317,  320,  322,  324,  326,  328,  334,  335,  340,  342,  344,  351,
                                                       352,  353,  356,  357,  361,  362,  363,  365,  369,  370,  372,  380,
                                                       381,  383,  385,  386,  388,  391,  399,  401.
           3    i_s                      cobol_rw:      14,   20,   24,   26,   30,   40,   46,   60,   62,   64,   75,   79,
                                                        82,   86,   98,  142,  144,  146,  148,  150,  152,  158,  164,  167,
                                                       169,  171,  219,  230,  242,  249,  252,  257,  280,  284,  287,  290,
                                                       304,  309,  311,  314,  321,  325,  330,  333,  336,  341,  346,  348,
                                                       375,  382,  387.
           5    k_ae_test                cobol_rw:     337,  557.
           2    k_rw_pg                  cobol_rw:     100,  405,  558.
           1    k_rw_rd                  cobol_rw:      53,   55,  403,  559.
           3    k_rw_rg                  cobol_rw:     124,  126,  407,  560.
           4    k_rw_type                cobol_rw:     200,  561.
        1421    line                     cobol_rw:     142,  175.
        1503    line_1                   cobol_rw:     181,  185.
        1515    line_2                   cobol_rw:     178,  187.
        2366    literal                  cobol_rw:     167,  272.
        2645    lpar                     cobol_rw:     307,  320,  351,  352,  357.
        2652    lpar2                    cobol_rw:     308,  323.
          12    l_1                      cobol_rw:      20.
         170    l_10                     cobol_rw:      40,   42.
        3523    l_100                    cobol_rw:     391,  393.
         214    l_11                     cobol_rw:      44,   46.
         233    l_12                     cobol_rw:      47,   49.
         240    l_13                     cobol_rw:      50.
         252    l_14                     cobol_rw:      50,   52.
         257    l_15                     cobol_rw:      52,   53.
         271    l_16                     cobol_rw:      53,   55.
         372    l_17                     cobol_rw:      66,   68.
         411    l_18                     cobol_rw:      70,   71.
         416    l_19                     cobol_rw:      71,   72.
          24    l_2                      cobol_rw:      20,   21,   22.
         435    l_20                     cobol_rw:      73,   75.
         461    l_21                     cobol_rw:      77,   79.
         500    l_22                     cobol_rw:      81,   82.
         512    l_23                     cobol_rw:      82,   84.
         524    l_24                     cobol_rw:      84,   86.
         543    l_25                     cobol_rw:      88,   89.
         555    l_26                     cobol_rw:      89,   91.
         574    l_27                     cobol_rw:      91,   92,   94.
         613    l_28                     cobol_rw:      97.
         620    l_29                     cobol_rw:      97,   98.
          36    l_3                      cobol_rw:      24.
         632    l_30                     cobol_rw:      98,  100.
         707    l_31                     cobol_rw:     107,  109.
         726    l_32                     cobol_rw:     110,  112.
         740    l_33                     cobol_rw:     112,  113,  114.
         745    l_34                     cobol_rw:     114,  115.
         757    l_35                     cobol_rw:     115,  117.
         776    l_36                     cobol_rw:     120.
        1003    l_37                     cobol_rw:     120,  121.
        1015    l_38                     cobol_rw:     121,  123.
        1022    l_39                     cobol_rw:     123,  124.
          50    l_4                      cobol_rw:      24,   26.
        1034    l_40                     cobol_rw:     124,  126.
        1313    l_41                     cobol_rw:     160,  161.
        1332    l_42                     cobol_rw:     163,  164.
        1351    l_43                     cobol_rw:     166,  167.
        1421    l_44                     cobol_rw:     173,  175.
        1426    l_45                     cobol_rw:     175,  176.
        1433    l_46                     cobol_rw:     176,  177.
        1452    l_47                     cobol_rw:     177,  180.
        1471    l_48                     cobol_rw:     180,  183.
        1503    l_49                     cobol_rw:     183,  185.
          67    l_5                      cobol_rw:      26,   27,   29.
        1541    l_50                     cobol_rw:     189,  191.
        1546    l_51                     cobol_rw:     191,  192.
        1565    l_52                     cobol_rw:     192,  194,  195.
        1616    l_53                     cobol_rw:     199,  200.
        1750    l_54                     cobol_rw:     215,  216,  218.
        2013    l_55                     cobol_rw:     224,  225.
        2020    l_56                     cobol_rw:     225,  226.
        2037    l_57                     cobol_rw:     228,  229.
        2044    l_58                     cobol_rw:     229,  230.
        2063    l_59                     cobol_rw:     232,  233.
         113    l_6                      cobol_rw:      31,   33.
        2102    l_60                     cobol_rw:     235,  236.
        2107    l_61                     cobol_rw:     236,  237.
        2121    l_62                     cobol_rw:     237,  238,  239.
        2140    l_63                     cobol_rw:     241,  242.
        2152    l_64                     cobol_rw:     242,  244.
        2171    l_65                     cobol_rw:     244,  247.
        2176    l_66                     cobol_rw:     247,  248.
        2222    l_67                     cobol_rw:     251,  252.
        2234    l_68                     cobol_rw:     252,  254.
        2253    l_69                     cobol_rw:     254,  257.
         125    l_7                      cobol_rw:      33,   35.
        2265    l_70                     cobol_rw:     257,  259.
        2316    l_71                     cobol_rw:     262,  264.
        2330    l_72                     cobol_rw:     264,  266.
        2412    l_73                     cobol_rw:     274,  276.
        2436    l_74                     cobol_rw:     279,  280.
        2450    l_75                     cobol_rw:     280,  282.
        2462    l_76                     cobol_rw:     282,  284.
        2474    l_77                     cobol_rw:     284,  286,  287.
        2532    l_78                     cobol_rw:     290,  292.
        2551    l_79                     cobol_rw:     292,  293,  295.
         137    l_8                      cobol_rw:      35,   37.
        2614    l_80                     cobol_rw:     299,  302.
        2645    l_81                     cobol_rw:     306,  307.
        2727    l_82                     cobol_rw:     315,  317.
        2734    l_83                     cobol_rw:     317,  318.
        2760    l_84                     cobol_rw:     322.
        3016    l_85                     cobol_rw:     326,  328.
        3035    l_86                     cobol_rw:     330,  331.
        3136    l_87                     cobol_rw:     342,  344.
        3162    l_88                     cobol_rw:     346,  348.
        3174    l_89                     cobol_rw:     348,  350.
         156    l_9                      cobol_rw:      40.
        3201    l_90                     cobol_rw:     350,  351.
        3251    l_91                     cobol_rw:     356,  359.
        3307    l_92                     cobol_rw:     363,  365.
        3333    l_93                     cobol_rw:     367,  369.
        3403    l_94                     cobol_rw:     372,  377.
        3422    l_95                     cobol_rw:     379,  380.
        3434    l_96                     cobol_rw:     382.
        3453    l_97                     cobol_rw:     383,  385.
        3465    l_98                     cobol_rw:     385,  386,  387.
        3504    l_99                     cobol_rw:     387,  390.
           0    l_org                    cobol_rw:      18,   19,   20,   21,   22,   23,   24,   25,   26,   27,   28,   29,
                                                        30,   31,   32,   33,   34,   35,   36,   37,   38,   39,   40,   41,
                                                        42,   43,   44,   45,   46,   47,   48,   49,   50,   51,   52,   53,
                                                        54,   55,   56,   57,   58,   59,   60,   61,   62,   63,   64,   65,
                                                        66,   67,   68,   69,   70,   71,   72,   73,   74,   75,   76,   77,
                                                        78,   79,   80,   81,   82,   83,   84,   85,   86,   87,   88,   89,
                                                        90,   91,   92,   93,   94,   95,   96,   97,   98,   99,  100,  101,
                                                       102,  103,  104,  105,  106,  107,  108,  109,  110,  111,  112,  113,
                                                       114,  115,  116,  117,  118,  119,  120,  121,  122,  123,  124,  125,
                                                       126,  127,  128,  129,  130,  131,  132,  133,  134,  135,  136,  137,
                                                       138,  139,  140,  141,  142,  143,  144,  145,  146,  147,  148,  149,
                                                       150,  151,  152,  153,  154,  155,  156,  157,  158,  159,  160,  161,
                                                       162,  163,  164,  165,  166,  167,  168,  169,  170,  171,  172,  173,
                                                       174,  175,  176,  177,  178,  179,  180,  181,  182,  183,  184,  185,
                                                       186,  187,  188,  189,  190,  191,  192,  193,  194,  195,  196,  197,
                                                       198,  199,  200,  201,  202,  203,  204,  205,  206,  207,  208,  209,
                                                       210,  211,  212,  213,  214,  215,  216,  217,  218,  219,  220,  221,
                                                       222,  223,  224,  225,  226,  227,  228,  229,  230,  231,  232,  233,
                                                       234,  235,  236,  237,  238,  239,  240,  241,  242,  243,  244,  245,
                                                       246,  247,  248,  249,  250,  251,  252,  253,  254,  255,  256,  257,
                                                       258,  259,  260,  261,  262,  263,  264,  265,  266,  267,  268,  269,
                                                       270,  271,  272,  273,  274,  275,  276,  277,  278,  279,  280,  281,
                                                       282,  283,  284,  285,  286,  287,  288,  289,  290,  291,  292,  293,
                                                       294,  295,  296,  297,  298,  299,  300,  301,  302,  303,  304,  305,
                                                       306,  307,  308,  309,  310,  311,  312,  313,  314,  315,  316,  317,
                                                       318,  319,  320,  321,  322,  323,  324,  325,  326,  327,  328,  329,
                                                       330,  331,  332,  333,  334,  335,  336,  337,  338,  339,  340,  341,
                                                       342,  343,  344,  345,  346,  347,  348,  349,  350,  351,  352,  353,
                                                       354,  355,  356,  357,  358,  359,  360,  361,  362,  363,  364,  365,
                                                       366,  367,  368,  369,  370,  371,  372,  373,  374,  375,  376,  377,
                                                       378,  379,  380,  381,  382,  383,  384,  385,  386,  387,  388,  389,
                                                       390,  391,  392,  393,  394,  395,  396,  397,  398,  399,  400,  401,
                                                       402,  403,  404,  405,  406,  407,  408.
        3232    more_rpar                cobol_rw:     353,  356,  359.
        1527    next                     cobol_rw:     144,  189.
        2746    not_cond                 cobol_rw:     312,  320.
        1577    n_1                      cobol_rw:     193,  197.
        3162    obj_op                   cobol_rw:     331,  333,  336,  341,  344,  345,  348.
         606    page                     cobol_rw:      64,   96.
         726    pg                       cobol_rw:      98,  112.
         632    pg_1                     cobol_rw:     100,  105,  109,  405.
         663    pg_3                     cobol_rw:     101,  104,  105.
         675    pg_4                     cobol_rw:     102,  103,  107.
         714    pg_5                     cobol_rw:      99,  106,  108,  110.
        3263    pos_rel                  cobol_rw:     314,  336,  361.
        2032    present                  cobol_rw:     150,  228.
         555    q_1                      cobol_rw:      91,   94.
         536    q_name                   cobol_rw:      82,   86,   88,  219,  249,  280,  290.
         473    q_names                  cobol_rw:      75,   79,   81,  257.
         512    q_names_1                cobol_rw:      84,   86.
        3547    r1                       cobol_rw:      19,  397.
        3561    r2                       cobol_rw:      23,  399.
        3605    r3                       cobol_rw:      49,  403.
        3617    r4                       cobol_rw:      96,  405.
        3631    r5                       cobol_rw:     119,  407.
        3573    r6                       cobol_rw:      39,  401.
         233    rd                       cobol_rw:      40,   49.
         271    rd_1                     cobol_rw:      55,   60,   62,   64,  403.
         322    rd_2                     cobol_rw:      57,   60.
         334    rd_3                     cobol_rw:      58,   62.
         346    rd_4                     cobol_rw:      59,   64.
         360    rd_5                     cobol_rw:      54,   55,   61,   63,   65,   66.
        3030    rel                      cobol_rw:     322,  324,  330.
        3321    relop                    cobol_rw:     311,  321,  325,  330,  333,  341,  346,  367.
         151    report                   cobol_rw:      26,   30,   39.
          31    reports                  cobol_rw:      20,   23.
          67    reps_1                   cobol_rw:      29,   30,  399.
         202    rep_1                    cobol_rw:      44,   46,  401.
         214    rep_2                    cobol_rw:      42,   46.
         113    rep_hdr                  cobol_rw:      24,   33.
        2671    res                      cobol_rw:     308,  311.
        2657    res1                     cobol_rw:     309,  316.
        1034    rg_1                     cobol_rw:     126,  142,  144,  146,  148,  150,  152,  154,  156,  158,  161,  164,
                                                       167,  169,  171,  407.
        1274    rg_10                    cobol_rw:     136,  158.
        1306    rg_11                    cobol_rw:     137,  160.
        1325    rg_12                    cobol_rw:     138,  163.
        1344    rg_13                    cobol_rw:     139,  166.
        1363    rg_14                    cobol_rw:     140,  169.
        1375    rg_15                    cobol_rw:     141,  171.
        1407    rg_16                    cobol_rw:     122,  125,  143,  145,  147,  149,  151,  153,  155,  157,  159,  162,
                                                       165,  168,  170,  172,  173.
        1154    rg_2                     cobol_rw:     128,  142.
        1166    rg_3                     cobol_rw:     129,  144.
        1200    rg_4                     cobol_rw:     130,  146.
        1212    rg_5                     cobol_rw:     131,  148.
        1224    rg_6                     cobol_rw:     132,  150.
        1236    rg_7                     cobol_rw:     133,  152.
        1250    rg_8                     cobol_rw:     134,  154.
        1262    rg_9                     cobol_rw:     135,  156.
         771    rg_entry                 cobol_rw:      46,  119.
           5    rs                       cobol_rw:      19.
          24    rs_1                     cobol_rw:      22,  397.
         111    r_all                    cobol_rw:     274,  299,  372,  513.
         115    r_and                    cobol_rw:     351,  357,  514.
         123    r_character              cobol_rw:     266,  515.
        1033    r_detail                 cobol_rw:     107,  516.
          52    r_display                cobol_rw:     226,  517.
         146    r_equals                 cobol_rw:     361,  518.
         161    r_exceeds                cobol_rw:     362,  519.
        1042    r_final                  cobol_rw:      72,  218,  248,  520.
        1043    r_footing                cobol_rw:     213,  216,  222,  521.
         156    r_for                    cobol_rw:     317,  522.
        1045    r_group                  cobol_rw:     189,  523.
        1044    r_heading                cobol_rw:     212,  215,  221,  524.
         145    r_in                     cobol_rw:      92,  525.
        1051    r_indicate               cobol_rw:     154,  526.
         166    r_is                     cobol_rw:      71,  114,  160,  163,  166,  176,  191,  199,  225,  236,  268,  313,
                                                       335,  527.
         172    r_leading                cobol_rw:     261,  528.
        1061    r_limit                  cobol_rw:     112,  529.
        1062    r_limits                 cobol_rw:     113,  530.
         174    r_line                   cobol_rw:     117,  531.
         273    r_lt                     cobol_rw:     282,  307,  320,  383,  388,  508.
         176    r_message                cobol_rw:     315,  532.
         200    r_next                   cobol_rw:     181,  183,  193,  533.
         202    r_not                    cobol_rw:     312,  322,  324,  334,  340,  534.
        1073    r_number                 cobol_rw:     175,  235,  535.
         205    r_of                     cobol_rw:      91,  536.
         206    r_on                     cobol_rw:     180,  247,  537.
         207    r_or                     cobol_rw:     352,  538.
         213    r_page                   cobol_rw:     185,  197,  539.
         275    r_per                    cobol_rw:      37,  401,  512.
         266    r_pls                    cobol_rw:     292,  380,  385,  510.
        1105    r_plus                   cobol_rw:     178,  192,  237,  540.
        1110    r_rd                     cobol_rw:      50,  399,  541.
         360    r_report                 cobol_rw:      33,  542.
        1116    r_reset                  cobol_rw:     244,  543.
         361    r_right                  cobol_rw:     156,  544.
         274    r_rt                     cobol_rw:     286,  353,  356,  391,  509.
         236    r_section                cobol_rw:      35,  545.
         364    r_separate               cobol_rw:     264,  270,  546.
         365    r_sign                   cobol_rw:     260,  547.
         267    r_sub                    cobol_rw:     293,  381,  386,  511.
        1133    r_sum                    cobol_rw:     245,  548.
         245    r_than                   cobol_rw:     370,  549.
         252    r_to                     cobol_rw:     328,  344,  365,  369,  550.
         377    r_trailing               cobol_rw:     262,  551.
         253    r_unequal                cobol_rw:     326,  342,  363,  552.
         257    r_upon                   cobol_rw:     254,  553.
         401    r_usage                  cobol_rw:     224,  554.
         262    r_when                   cobol_rw:     228,  232,  555.
         264    r_zero                   cobol_rw:     233,  300,  302,  556.
        2272    sign                     cobol_rw:     171,  260.
        2277    sign_1                   cobol_rw:     261,  268,  269.
        2342    sign_2                   cobol_rw:     260,  268.
        2354    sign_3                   cobol_rw:     261,  270.
        2330    sign_4                   cobol_rw:     266,  270,  271.
        2513    sub                      cobol_rw:     284,  287,  289.
        3535    succ                     cobol_rw:      29,   37,   45,   56,   68,   75,   78,   79,   85,   93,  100,  117,
                                                       118,  127,  182,  185,  187,  195,  197,  201,  202,  204,  206,  207,
                                                       211,  212,  213,  218,  219,  221,  222,  226,  230,  233,  239,  246,
                                                       248,  249,  256,  259,  265,  266,  267,  272,  273,  276,  277,  283,
                                                       286,  289,  294,  295,  297,  300,  302,  304,  354,  361,  362,  365,
                                                       366,  369,  370,  371,  373,  374,  375,  377,  392,  395.
        2133    sum                      cobol_rw:     169,  241.
        2140    sum_1                    cobol_rw:     242,  245.
        2215    sum_ph                   cobol_rw:     242,  251.
        2234    sum_ph1                  cobol_rw:     254.
        2253    sum_ph2                  cobol_rw:     257.
        2222    sum_ph3                  cobol_rw:     252,  255.
        1611    type                     cobol_rw:     146,  199.
        1712    t_1                      cobol_rw:     208,  212.
        1731    t_2                      cobol_rw:     210,  215.
        1750    t_3                      cobol_rw:     203,  205,  218.
        1767    t_4                      cobol_rw:     209,  221.
        2006    usage                    cobol_rw:     148,  224.


NO FATAL ERRORS


                                          -----------------------------------------------------------


Historical Background

This edition of the Multics software materials and documentation is provided and donated
to Massachusetts Institute of Technology by Group BULL including BULL HN Information Systems Inc.
as a contribution to computer science knowledge.
This donation is made also to give evidence of the common contributions of Massachusetts Institute of Technology,
Bell Laboratories, General Electric, Honeywell Information Systems Inc., Honeywell BULL Inc., Groupe BULL
and BULL HN Information Systems Inc. to the development of this operating system.
Multics development was initiated by Massachusetts Institute of Technology Project MAC (1963-1970),
renamed the MIT Laboratory for Computer Science and Artificial Intelligence in the mid 1970s, under the leadership
of Professor Fernando Jose Corbato. Users consider that Multics provided the best software architecture
for managing computer hardware properly and for executing programs. Many subsequent operating systems
incorporated Multics principles.
Multics was distributed in 1975 to 2000 by Group Bull in Europe , and in the U.S. by Bull HN Information Systems Inc.,
as successor in interest by change in name only to Honeywell Bull Inc. and Honeywell Information Systems Inc. .

                                          -----------------------------------------------------------

Permission to use, copy, modify, and distribute these programs and their documentation for any purpose and without
fee is hereby granted,provided that the below copyright notice and historical background appear in all copies
and that both the copyright notice and historical background and this permission notice appear in supporting
documentation, and that the names of MIT, HIS, BULL or BULL HN not be used in advertising or publicity pertaining
to distribution of the programs without specific prior written permission.
    Copyright 1972 by Massachusetts Institute of Technology and Honeywell Information Systems Inc.
    Copyright 2006 by BULL HN Information Systems Inc.
    Copyright 2006 by Bull SAS
    All Rights Reserved
