ASSEMBLY LISTING OF SEGMENT >spec>on>11/11/82>cobol_ext_ddsyn.alm
ASSEMBLED ON:	11/11/82  1043.0 mst Thu
OPTIONS USED:	list
ASSEMBLED BY:	ALM Version  6.4  April 1981
ASSEMBLER CREATED:	11/03/82  1423.6 mst Wed

                                     1  " ***********************************************************
                                     2  " *                                                         *
                                     3  " * Copyright, (C) Honeywell Information Systems Inc., 1982 *
                                     4  " *                                                         *
                                     5  " * Copyright (c) 1972 by Massachusetts Institute of        *
                                     6  " * Technology and Honeywell Information Systems, Inc.      *
                                     7  " *                                                         *
                                     8  " ***********************************************************
                                     9
                                    10  "	cobol_ext_ddsyn
                                    11  "	External data for cobol compiler
                                    12  "	bindable as static internal
                                    13
    000000                          14  	name	cobol_ext_ddsyn
                                    15  	use	textc
                                    16  	use	linkc
                                    17  	join	/link/linkc
                                    18  	join	/text/textc
                                    19  	use	linkc
                                    20  	even
                                    21  "	DECLARATIONS...
                        000010      22  	segdef	cobol_sv_ptr
    000010                          23  	bss	cobol_sv_ptr,2
                        000012      24  	segdef	cobol_wkbuf1_tbl
    000012                          25  	bss	cobol_wkbuf1_tbl,250
                        000404      26  	segdef	cobol_wkbuf2_tbl
    000404                          27  	bss	cobol_wkbuf2_tbl,125
                        000601      28  	segdef	cobol_htbl
    000601                          29  	bss	cobol_htbl,343
                                    30
                                    31  	end

NO LITERALS

NAME DEFINITIONS FOR ENTRY POINTS AND SEGDEFS

    000000  5a   000003 000000
    000001  5a   000056 600000
    000002  aa   000000 000000
    000003  55   000012 000002
    000004  5a   000002 400003
    000005  55   000006 000012
    000006  aa  017 143 157 142
    000007  aa  157 154 137 145
    000010  aa  170 164 137 144
    000011  aa  144 163 171 156
    000012  55   000020 000003
    000013  2a   000601 400001
    000014  55   000015 000003
    000015  aa  012 143 157 142         cobol_htbl
    000016  aa  157 154 137 150
    000017  aa  164 142 154 000
    000020  55   000030 000012
    000021  2a   000404 400001
    000022  55   000023 000003
    000023  aa  020 143 157 142         cobol_wkbuf2_tbl
    000024  aa  157 154 137 167
    000025  aa  153 142 165 146
    000026  aa  062 137 164 142
    000027  aa  154 000 000 000
    000030  55   000040 000020
    000031  2a   000012 400001
    000032  55   000033 000003
    000033  aa  020 143 157 142         cobol_wkbuf1_tbl
    000034  aa  157 154 137 167
    000035  aa  153 142 165 146
    000036  aa  061 137 164 142
    000037  aa  154 000 000 000
    000040  55   000047 000030
    000041  2a   000010 400001
    000042  55   000043 000003
    000043  aa  014 143 157 142         cobol_sv_ptr
    000044  aa  157 154 137 163
    000045  aa  166 137 160 164
    000046  aa  162 000 000 000
    000047  55   000002 000040
    000050  6a   000000 400002
    000051  55   000052 000003
    000052  aa  014 163 171 155         symbol_table
    000053  aa  142 157 154 137
    000054  aa  164 141 142 154
    000055  aa  145 000 000 000

DEFINITIONS HASH TABLE

    000056  aa   000000 000015
    000057  5a   000040 000000
    000060  aa   000000 000000
    000061  aa   000000 000000
    000062  aa   000000 000000
    000063  aa   000000 000000
    000064  aa   000000 000000
    000065  5a   000020 000000
    000066  5a   000030 000000
    000067  5a   000047 000000
    000070  aa   000000 000000
    000071  5a   000012 000000
    000072  aa   000000 000000
    000073  aa   000000 000000

NO EXTERNAL NAMES

NO TRAP POINTER WORDS

TYPE PAIR BLOCKS

    000074  aa   000001 000000
    000075  aa   000000 000000

INTERNAL EXPRESSION WORDS

LINKAGE INFORMATION

    000000  aa   000000 000000
    000001  0a   000000 000000
    000002  aa   000000 000000
    000003  aa   000000 000000
    000004  aa   000000 000000
    000005  aa   000000 000000
    000006  22   001330 001330
    000007  a2   000000 001320
SYMBOL INFORMATION

SYMBOL TABLE HEADER

    000000  aa   000000 000001
    000001  aa   163171 155142
    000002  aa   164162 145145
    000003  aa   000000 000004
    000004  aa   000000 111316
    000005  aa   510113 575622
    000006  aa   000000 111330
    000007  aa   403276 727776
    000010  aa   141154 155040
    000011  aa   040040 040040
    000012  aa   000024 000040
    000013  aa   000034 000040
    000014  aa   000044 000100
    000015  aa   000002 000002
    000016  aa   000064 000000
    000017  aa   000000 000167
    000020  aa   000000 000104
    000021  aa   000000 000106
    000022  aa   000161 000104
    000023  aa   000064 000000
    000024  aa   101114 115040
    000025  aa   126145 162163
    000026  aa   151157 156040
    000027  aa   040066 056064
    000030  aa   040040 101160
    000031  aa   162151 154040
    000032  aa   061071 070061
    000033  aa   040040 040040
    000034  aa   110157 154155
    000035  aa   163164 145144
    000036  aa   164056 123171
    000037  aa   163115 141151
    000040  aa   156164 056155
    000041  aa   040040 040040
    000042  aa   040040 040040
    000043  aa   040040 040040
    000044  aa   154151 163164
    000045  aa   040040 040040
    000046  aa   040040 040040
    000047  aa   040040 040040
    000050  aa   040040 040040
    000051  aa   040040 040040
    000052  aa   040040 040040
    000053  aa   040040 040040
    000054  aa   040040 040040
    000055  aa   040040 040040
    000056  aa   040040 040040
    000057  aa   040040 040040
    000060  aa   040040 040040
    000061  aa   040040 040040
    000062  aa   040040 040040
    000063  aa   040040 040040
    000064  aa   000000 000001
    000065  aa   000000 000001
    000066  aa   000072 000045
    000067  aa   113225 114770
    000070  aa   000000 111330
    000071  aa   375644 400000
    000072  aa   076163 160145          >spec>on>11/11/82>cobol_ext_ddsyn.alm
    000073  aa   143076 157156
    000074  aa   076061 061057
    000075  aa   061061 057070
    000076  aa   062076 143157
    000077  aa   142157 154137
    000100  aa   145170 164137
    000101  aa   144144 163171
    000102  aa   156056 141154
    000103  aa   155040 040040
               MULTICS ASSEMBLY CROSS REFERENCE LISTING

   Value        Symbol                   Source file   Line number

         601    cobol_htbl               cobol_ext_ddsyn:     28,   29.
          10    cobol_sv_ptr             cobol_ext_ddsyn:     22,   23.
          12    cobol_wkbuf1_tbl         cobol_ext_ddsyn:     24,   25.
         404    cobol_wkbuf2_tbl         cobol_ext_ddsyn:     26,   27.
          10    linkc                    cobol_ext_ddsyn:     16,   17,   19.
           0    textc                    cobol_ext_ddsyn:     15,   18.


NO FATAL ERRORS


                                          -----------------------------------------------------------


Historical Background

This edition of the Multics software materials and documentation is provided and donated
to Massachusetts Institute of Technology by Group BULL including BULL HN Information Systems Inc.
as a contribution to computer science knowledge.
This donation is made also to give evidence of the common contributions of Massachusetts Institute of Technology,
Bell Laboratories, General Electric, Honeywell Information Systems Inc., Honeywell BULL Inc., Groupe BULL
and BULL HN Information Systems Inc. to the development of this operating system.
Multics development was initiated by Massachusetts Institute of Technology Project MAC (1963-1970),
renamed the MIT Laboratory for Computer Science and Artificial Intelligence in the mid 1970s, under the leadership
of Professor Fernando Jose Corbato. Users consider that Multics provided the best software architecture
for managing computer hardware properly and for executing programs. Many subsequent operating systems
incorporated Multics principles.
Multics was distributed in 1975 to 2000 by Group Bull in Europe , and in the U.S. by Bull HN Information Systems Inc.,
as successor in interest by change in name only to Honeywell Bull Inc. and Honeywell Information Systems Inc. .

                                          -----------------------------------------------------------

Permission to use, copy, modify, and distribute these programs and their documentation for any purpose and without
fee is hereby granted,provided that the below copyright notice and historical background appear in all copies
and that both the copyright notice and historical background and this permission notice appear in supporting
documentation, and that the names of MIT, HIS, BULL or BULL HN not be used in advertising or publicity pertaining
to distribution of the programs without specific prior written permission.
    Copyright 1972 by Massachusetts Institute of Technology and Honeywell Information Systems Inc.
    Copyright 2006 by BULL HN Information Systems Inc.
    Copyright 2006 by Bull SAS
    All Rights Reserved
