	COMPILATION LISTING OF SEGMENT cobol_fofl_mask
	Compiled by: Multics PL/I Compiler, Release 31b, of April 24, 1989
	Compiled at: Bull HN, Phoenix AZ, System-M
	Compiled on: 05/24/89  0951.1 mst Wed
	    Options: optimize map

        1 /****^  ***********************************************************
        2*        *                                                         *
        3*        * Copyright, (C) BULL HN Information Systems Inc., 1989   *
        4*        *                                                         *
        5*        * Copyright, (C) Honeywell Information Systems Inc., 1982 *
        6*        *                                                         *
        7*        * Copyright (c) 1972 by Massachusetts Institute of        *
        8*        * Technology and Honeywell Information Systems, Inc.      *
        9*        *                                                         *
       10*        *********************************************************** */
       11
       12
       13
       14
       15 /****^  HISTORY COMMENTS:
       16*  1) change(89-04-23,Zimmerman), approve(89-04-23,MCR8060),
       17*     audit(89-05-05,RWaters), install(89-05-24,MR12.3-1048):
       18*     MCR8060 cobol_fofl_mask.pl1 Added Trace statements.
       19*                                                   END HISTORY COMMENTS */
       20
       21
       22 /* Modified on 10/19/85 by FCH, [5.3-1], BUG563(phx18381), new cobol_addr_tokens.incl.pl1 */
       23 /* Modified on 05/12/77 by Bob Chang to implement continue option.	*/
       24 /*{*/
       25
       26 /* format: style3 */
       27 cobol_fofl_mask:
       28      proc;
       29
       30 /*
       31*This procedure generates code to disable and enable the overflow
       32*fault trap.  The fault trap is disabled by turning ON the
       33*overflow mask indicator bit in the machine indicator register,
       34*and is enabled by turning this bit OFF.  */
       35
       36 /*}*/
       37
       38
       39 /*  DECLARATION OF EXTERNAL ENTRIES  */
       40
       41 dcl	cobol_addr	ext entry (ptr, ptr, ptr);
       42 dcl	cobol_pool	ext entry (char (*), fixed bin, fixed bin (24));
       43 dcl	cobol_emit	ext entry (ptr, ptr, fixed bin);
       44
       45 /*  DECLARATIONS OF INTERNAL STATIC VARIABLES  */
       46
       47 dcl	ldi_masks_pooled	fixed bin int static init (0);
       48
       49 dcl	oflo_mask_on	bit (36) int static init ("000000000000000000000000100000000000"b);
       50 						/*  overflow mask indicator bit ON  */
       51
       52 dcl	oflo_mask_off	bit (36) int static init ("0"b);
       53
       54 dcl	on_mask_inst	bit (36) int static;
       55 dcl	on_mask_reloc	(1:5) bit (5) aligned;
       56
       57 dcl	ldi_inst		bit (36) static init ("110000000001110100110011100001000000"b);
       58 						/* ldi	pr6|164	*/
       59
       60 dcl	LDI		bit (10) int static init ("1100111000"b);
       61 						/*  634(0)  */
       62
       63 dcl	on_ret_offset	fixed bin (24) int static;
       64 dcl	off_ret_offset	fixed bin (24) int static;
       65
       66
       67 /*  DECLARATIONS OF INTERNAL VARIABLES  */
       68
       69 dcl	mask_ptr		ptr;
       70 dcl	mask_string	char (4) based (mask_ptr);
       71 dcl	input_buffer	(1:10) char (4);
       72
       73 /*  ON ENTRY POINT  */
       74
       75 on:
       76      entry;
       77
       78 	if ldi_masks_pooled ^= cobol_$compile_count
       79 	then do;					/*  Pool the LDI masks  */
       80
       81 /*  Pool the overflow mask indicator ON constant  */
       82 		mask_ptr = addr (oflo_mask_on);
       83 		call cobol_pool (mask_string, 0, on_ret_offset);
       84
       85
       86 /*  Pool the overflow mask indicator OFF constant.  */
       87 		mask_ptr = addr (oflo_mask_off);
       88 		call cobol_pool (mask_string, 0, off_ret_offset);
       89
       90
       91 		ldi_masks_pooled = cobol_$compile_count;
       92
       93 	     end;					/*  Pool the LDI masks and establish basic addressability to them.  */
       94
       95
       96 /*  Get the basic address of the overflow mask indicator ON constant.  */
       97 	input_ptr = addr (input_buffer);
       98 	input_struc_basic.type = 1;
       99 	input_struc_basic.operand_no = 0;
      100 	input_struc_basic.lock = 0;
      101 	input_struc_basic.char_offset = on_ret_offset;
      102 	input_struc_basic.segno = 3000;		/*  constant segment  */
      103
      104 	call cobol_addr (input_ptr, addr (on_mask_inst), addr (on_mask_reloc));
      105
      106 	inst_ptr = addr (on_mask_inst);
      107 	inst_ptr -> inst_struc_basic.fill1_op = LDI;	/*  Emit an LDI instruction to turn on the mask indicator bit.  */
      108 	call cobol_emit (addr (on_mask_inst), addr (on_mask_reloc), 1);
      109
      110 	return;
      111
      112 /*  OFF ENTRY POINT  */
      113
      114 off:
      115      entry;
      116 	call cobol_emit (addr (ldi_inst), null, 1);
      117 	return;
      118 
      119
      120 /*  INCLUDE FILES USED BY THIS PROCEDURE  */
      121
      122
      123 /*****	Declaration for builtin function	*****/
      124
      125 dcl	(substr, mod, binary, fixed, addr, addrel, rel, length, string, unspec, null, index)
      126 			builtin;
      127
      128 /*****	End of declaration for builtin function	*****/
      129
  1     1
  1     2 /* BEGIN INCLUDE FILE ...   cobol_addr_tokens.incl.pl1 */
  1     3
  1     4
  1     5 /****^  HISTORY COMMENTS:
  1     6*  1) change(89-04-23,Zimmerman), approve(89-04-23,MCR8058),
  1     7*     audit(89-05-05,RWaters), install(89-05-24,MR12.3-1048):
  1     8*     MCR8058 cobol_addr_tokens.incl.pl1 Change array extents to refer to
  1     9*     constants rather than variables.
  1    10*                                                   END HISTORY COMMENTS */
  1    11
  1    12
  1    13 /* Last modified on 10/1/74 by tg */
  1    14
  1    15
  1    16 /* parameter list */
  1    17
  1    18      dcl	   (input_ptr, inst_ptr, reloc_ptr) ptr;
  1    19
  1    20
  1    21 /* input_struc_basic is used for type 1 addressing */
  1    22
  1    23      dcl	   1 input_struc_basic    based (input_ptr),
  1    24 	     2 type	      fixed bin,
  1    25 	     2 operand_no	      fixed bin,
  1    26 	     2 lock	      fixed bin,
  1    27 	     2 segno	      fixed bin,
  1    28 	     2 char_offset	      fixed bin (24),
  1    29 	     2 send_receive	      fixed bin;
  1    30
  1    31
  1    32      dcl	   1 input_struc	      based (input_ptr),
  1    33 	     2 type	      fixed bin,
  1    34 	     2 operand_no	      fixed bin,
  1    35 	     2 lock	      fixed bin,
  1    36 	     2 operand	      (0 refer (input_struc.operand_no)),
  1    37 	       3 token_ptr	      ptr,
  1    38 	       3 send_receive     fixed bin,
  1    39 	       3 ic_mod	      fixed bin,
  1    40 	       3 size_sw	      fixed bin;
  1    41
  1    42 /* reloc_struc is used for all types of addressing * all types */
  1    43
  1    44      dcl	   1 reloc_struc	      (input_struc.operand_no + 1) based (reloc_ptr),
  1    45 	     2 left_wd	      bit (5) aligned,
  1    46 	     2 right_wd	      bit (5) aligned;
  1    47
  1    48 /* Instruction format for 1 word instruction */
  1    49
  1    50
  1    51      dcl	   1 inst_struc_basic     based (inst_ptr) aligned,
  1    52 	     2 y		      unaligned,
  1    53 	       3 pr	      bit (3) unaligned,
  1    54 	       3 wd_offset	      bit (15) unaligned,
  1    55 	     2 fill1_op	      bit (10) unaligned,
  1    56 	     2 zero1	      bit (1) unaligned,
  1    57 	     2 pr_spec	      bit (1) unaligned,
  1    58 	     2 tm		      bit (2) unaligned,
  1    59 	     2 td		      bit (4) unaligned;
  1    60
  1    61
  1    62 /* The detailed definitions of the fields in this structure
  1    63*   can be found in the GMAP manual section 8 */
  1    64 /* EIS instruction format for 2_4 word instructions */
  1    65
  1    66      dcl	   1 inst_struc	      based (inst_ptr) aligned,
  1    67 	     2 inst	      unaligned,
  1    68 	       3 zero1	      bit (2) unaligned,
  1    69 	       3 mf3	      unaligned,
  1    70 	         4 pr_spec	      bit (1) unaligned,
  1    71 	         4 reg_or_length  bit (1) unaligned,
  1    72 	         4 zero2	      bit (1) unaligned,
  1    73 	         4 reg_mod	      bit (4) unaligned,
  1    74 	       3 zero3	      bit (2) unaligned,
  1    75 	       3 mf2	      unaligned,
  1    76 	         4 pr_spec	      bit (1) unaligned,
  1    77 	         4 reg_or_length  bit (1) unaligned,
  1    78 	         4 zero4	      bit (1) unaligned,
  1    79 	         4 reg_mod	      bit (4) unaligned,
  1    80 	       3 fill1_op	      bit (10) unaligned,
  1    81 	       3 zero5	      bit (1) unaligned,
  1    82 	       3 mf1	      unaligned,
  1    83 	         4 pr_spec	      bit (1) unaligned,
  1    84 	         4 reg_or_length  bit (1) unaligned,
  1    85 	         4 zero6	      bit (1) unaligned,
  1    86 	         4 reg_mod	      bit (4) unaligned,
  1    87 	     2 desc_ext	      unaligned,
  1    88 	       3 desc	      (512) unaligned,
  1    89 	         4 desc_od	      bit (36) unaligned;
  1    90
  1    91 /* The detailed definitions of the fields in this structure
  1    92*   can be found in the GMAP manual section 8.
  1    93*   The desc_ext is the descriptor extension of this eis
  1    94*   instruction. The number of descriptors associated with
  1    95*   this instruction is equavalent to the operand number.
  1    96*   Depending on operand data type, the descriptor
  1    97*   can be alphanumeric or numeric.  The structures of the
  1    98*   alphanumeric and the numeric descriptors are defined
  1    99*   below. */
  1   100
  1   101 /* alphanumeric descriptor format */
  1   102
  1   103      dcl	   1 desc_an	      based (desc_an_ptr) unaligned,
  1   104 	     2 desc_f	      (512) unaligned,
  1   105 	       3 y	      unaligned,
  1   106 	         4 pr	      bit (3) unaligned,
  1   107 	         4 wd_offset      bit (15) unaligned,
  1   108 	       3 char_n	      bit (3) unaligned,
  1   109 	       3 zero1	      bit (1) unaligned,
  1   110 	       3 ta	      bit (2),
  1   111 	       3 n	      bit (12) unaligned;
  1   112
  1   113
  1   114 /* The detailed definitions of the fields in this structure can
  1   115*   be found in the GMAP manual section 8. */
  1   116 /* numeric descriptor format */
  1   117
  1   118      dcl	   desc_nn_ptr	      ptr;
  1   119      dcl	   desc_an_ptr	      ptr;
  1   120
  1   121
  1   122      dcl	   1 desc_nn	      based (desc_nn_ptr) unaligned,
  1   123 	     2 desc_f	      (512) unaligned,
  1   124 	       3 y	      unaligned,
  1   125 	         4 pr	      bit (3) unaligned,
  1   126 	         4 wd_offset      bit (15) unaligned,
  1   127 	       3 digit_n	      bit (3) unaligned,
  1   128 	       3 tn	      bit (1) unaligned,
  1   129 	       3 sign_type	      bit (2) unaligned,
  1   130 	       3 scal	      bit (6) unaligned,
  1   131 	       3 n	      bit (6) unaligned;
  1   132
  1   133
  1   134 /* The detailed definitions of fields in this structure can
  1   135*   be found in the GMAP manual section 8. */
  1   136 /* END INCLUDE FILE ...   cobol_addr_tokens.incl.pl1 */
  1   137
      130
      131 
      132
  2     1
  2     2 /* BEGIN INCLUDE FILE ... cobol_.incl.pl1 */
  2     3 /* last modified Feb 4, 1977 by ORN  */
  2     4
  2     5 /* This file defines all external data used in the generator phase of Multics Cobol */
  2     6
  2     7 /* POINTERS */
  2     8 dcl cobol_$text_base_ptr ptr  ext;
  2     9 dcl text_base_ptr ptr  defined (cobol_$text_base_ptr);
  2    10 dcl cobol_$con_end_ptr ptr  ext;
  2    11 dcl con_end_ptr ptr  defined (cobol_$con_end_ptr);
  2    12 dcl cobol_$def_base_ptr ptr  ext;
  2    13 dcl def_base_ptr ptr  defined (cobol_$def_base_ptr);
  2    14 dcl cobol_$link_base_ptr ptr  ext;
  2    15 dcl link_base_ptr ptr  defined (cobol_$link_base_ptr);
  2    16 dcl cobol_$sym_base_ptr ptr  ext;
  2    17 dcl sym_base_ptr ptr  defined (cobol_$sym_base_ptr);
  2    18 dcl cobol_$reloc_text_base_ptr ptr  ext;
  2    19 dcl reloc_text_base_ptr ptr  defined (cobol_$reloc_text_base_ptr);
  2    20 dcl cobol_$reloc_def_base_ptr ptr  ext;
  2    21 dcl reloc_def_base_ptr ptr  defined (cobol_$reloc_def_base_ptr);
  2    22 dcl cobol_$reloc_link_base_ptr ptr  ext;
  2    23 dcl reloc_link_base_ptr ptr  defined (cobol_$reloc_link_base_ptr);
  2    24 dcl cobol_$reloc_sym_base_ptr ptr  ext;
  2    25 dcl reloc_sym_base_ptr ptr  defined (cobol_$reloc_sym_base_ptr);
  2    26 dcl cobol_$reloc_work_base_ptr ptr  ext;
  2    27 dcl reloc_work_base_ptr ptr  defined (cobol_$reloc_work_base_ptr);
  2    28 dcl cobol_$pd_map_ptr ptr  ext;
  2    29 dcl pd_map_ptr ptr  defined (cobol_$pd_map_ptr);
  2    30 dcl cobol_$fixup_ptr ptr  ext;
  2    31 dcl fixup_ptr ptr  defined (cobol_$fixup_ptr);
  2    32 dcl cobol_$initval_base_ptr ptr  ext;
  2    33 dcl initval_base_ptr ptr  defined (cobol_$initval_base_ptr);
  2    34 dcl cobol_$initval_file_ptr ptr  ext;
  2    35 dcl initval_file_ptr ptr  defined (cobol_$initval_file_ptr);
  2    36 dcl cobol_$perform_list_ptr ptr  ext;
  2    37 dcl perform_list_ptr ptr  defined (cobol_$perform_list_ptr);
  2    38 dcl cobol_$alter_list_ptr ptr  ext;
  2    39 dcl alter_list_ptr ptr  defined (cobol_$alter_list_ptr);
  2    40 dcl cobol_$seg_init_list_ptr ptr  ext;
  2    41 dcl seg_init_list_ptr ptr  defined (cobol_$seg_init_list_ptr);
  2    42 dcl cobol_$temp_token_area_ptr ptr  ext;
  2    43 dcl temp_token_area_ptr ptr  defined (cobol_$temp_token_area_ptr);
  2    44 dcl cobol_$temp_token_ptr ptr  ext;
  2    45 dcl temp_token_ptr ptr  defined (cobol_$temp_token_ptr);
  2    46 dcl cobol_$token_block1_ptr ptr  ext;
  2    47 dcl token_block1_ptr ptr  defined (cobol_$token_block1_ptr);
  2    48 dcl cobol_$token_block2_ptr ptr  ext;
  2    49 dcl token_block2_ptr ptr  defined (cobol_$token_block2_ptr);
  2    50 dcl cobol_$minpral5_ptr ptr  ext;
  2    51 dcl minpral5_ptr ptr  defined (cobol_$minpral5_ptr);
  2    52 dcl cobol_$tag_table_ptr ptr  ext;
  2    53 dcl tag_table_ptr ptr  defined (cobol_$tag_table_ptr);
  2    54 dcl cobol_$map_data_ptr ptr  ext;
  2    55 dcl map_data_ptr ptr  defined (cobol_$map_data_ptr);
  2    56 dcl cobol_$ptr_status_ptr ptr  ext;
  2    57 dcl ptr_status_ptr ptr  defined (cobol_$ptr_status_ptr);
  2    58 dcl cobol_$reg_status_ptr ptr  ext;
  2    59 dcl reg_status_ptr ptr  defined (cobol_$reg_status_ptr);
  2    60 dcl cobol_$misc_base_ptr ptr ext;
  2    61 dcl misc_base_ptr ptr defined (cobol_$misc_base_ptr);
  2    62 dcl cobol_$misc_end_ptr ptr ext;
  2    63 dcl misc_end_ptr ptr defined (cobol_$misc_end_ptr);
  2    64 dcl cobol_$list_ptr ptr ext;
  2    65 dcl list_ptr ptr defined (cobol_$list_ptr);
  2    66 dcl cobol_$allo1_ptr ptr ext;
  2    67 dcl allo1_ptr ptr defined (cobol_$allo1_ptr);
  2    68 dcl cobol_$eln_ptr ptr ext;
  2    69 dcl eln_ptr ptr defined (cobol_$eln_ptr);
  2    70 dcl cobol_$diag_ptr ptr ext;
  2    71 dcl diag_ptr ptr defined (cobol_$diag_ptr);
  2    72 dcl cobol_$xref_token_ptr ptr ext;
  2    73 dcl xref_token_ptr ptr defined (cobol_$xref_token_ptr);
  2    74 dcl cobol_$xref_chain_ptr ptr ext;
  2    75 dcl xref_chain_ptr ptr defined (cobol_$xref_chain_ptr);
  2    76 dcl cobol_$statement_info_ptr ptr ext;
  2    77 dcl statement_info_ptr ptr defined (cobol_$statement_info_ptr);
  2    78 dcl cobol_$reswd_ptr ptr ext;
  2    79 dcl reswd_ptr ptr defined (cobol_$reswd_ptr);
  2    80 dcl cobol_$op_con_ptr ptr ext;
  2    81 dcl op_con_ptr ptr defined (cobol_$op_con_ptr);
  2    82 dcl cobol_$ntbuf_ptr ptr ext;
  2    83 dcl ntbuf_ptr ptr defined (cobol_$ntbuf_ptr);
  2    84 dcl cobol_$main_pcs_ptr ptr ext;
  2    85 dcl main_pcs_ptr ptr defined (cobol_$main_pcs_ptr);
  2    86 dcl cobol_$include_info_ptr ptr ext;
  2    87 dcl include_info_ptr ptr defined (cobol_$include_info_ptr);
  2    88
  2    89 /* FIXED BIN */
  2    90 dcl cobol_$text_wd_off fixed bin  ext;
  2    91 dcl text_wd_off fixed bin  defined (cobol_$text_wd_off);
  2    92 dcl cobol_$con_wd_off fixed bin  ext;
  2    93 dcl con_wd_off fixed bin  defined (cobol_$con_wd_off);
  2    94 dcl cobol_$def_wd_off fixed bin  ext;
  2    95 dcl def_wd_off fixed bin  defined (cobol_$def_wd_off);
  2    96 dcl cobol_$def_max fixed bin  ext;
  2    97 dcl def_max fixed bin  defined (cobol_$def_max);
  2    98 dcl cobol_$link_wd_off fixed bin  ext;
  2    99 dcl link_wd_off fixed bin  defined (cobol_$link_wd_off);
  2   100 dcl cobol_$link_max fixed bin  ext;
  2   101 dcl link_max fixed bin  defined (cobol_$link_max);
  2   102 dcl cobol_$sym_wd_off fixed bin  ext;
  2   103 dcl sym_wd_off fixed bin  defined (cobol_$sym_wd_off);
  2   104 dcl cobol_$sym_max fixed bin  ext;
  2   105 dcl sym_max fixed bin  defined (cobol_$sym_max);
  2   106 dcl cobol_$reloc_text_max fixed bin(24)  ext;
  2   107 dcl reloc_text_max fixed bin(24)  defined (cobol_$reloc_text_max);
  2   108 dcl cobol_$reloc_def_max fixed bin(24)  ext;
  2   109 dcl reloc_def_max fixed bin(24)  defined (cobol_$reloc_def_max);
  2   110 dcl cobol_$reloc_link_max fixed bin(24)  ext;
  2   111 dcl reloc_link_max fixed bin(24)  defined (cobol_$reloc_link_max);
  2   112 dcl cobol_$reloc_sym_max fixed bin(24)  ext;
  2   113 dcl reloc_sym_max fixed bin(24)  defined (cobol_$reloc_sym_max);
  2   114 dcl cobol_$reloc_work_max fixed bin(24)  ext;
  2   115 dcl reloc_work_max fixed bin(24)  defined (cobol_$reloc_work_max);
  2   116 dcl cobol_$pd_map_index fixed bin  ext;
  2   117 dcl pd_map_index fixed bin  defined (cobol_$pd_map_index);
  2   118 dcl cobol_$cobol_data_wd_off fixed bin  ext;
  2   119 dcl cobol_data_wd_off fixed bin  defined (cobol_$cobol_data_wd_off);
  2   120 dcl cobol_$stack_off fixed bin  ext;
  2   121 dcl stack_off fixed bin  defined (cobol_$stack_off);
  2   122 dcl cobol_$max_stack_off fixed bin  ext;
  2   123 dcl max_stack_off fixed bin  defined (cobol_$max_stack_off);
  2   124 dcl cobol_$init_stack_off fixed bin  ext;
  2   125 dcl init_stack_off fixed bin  defined (cobol_$init_stack_off);
  2   126 dcl cobol_$pd_map_sw fixed bin  ext;
  2   127 dcl pd_map_sw fixed bin  defined (cobol_$pd_map_sw);
  2   128 dcl cobol_$next_tag fixed bin  ext;
  2   129 dcl next_tag fixed bin  defined (cobol_$next_tag);
  2   130 dcl cobol_$data_init_flag fixed bin  ext;
  2   131 dcl data_init_flag fixed bin  defined (cobol_$data_init_flag);
  2   132 dcl cobol_$seg_init_flag fixed bin  ext;
  2   133 dcl seg_init_flag fixed bin  defined (cobol_$seg_init_flag);
  2   134 dcl cobol_$alter_flag fixed bin  ext;
  2   135 dcl alter_flag fixed bin  defined (cobol_$alter_flag);
  2   136 dcl cobol_$sect_eop_flag fixed bin  ext;
  2   137 dcl sect_eop_flag fixed bin  defined (cobol_$sect_eop_flag);
  2   138 dcl cobol_$para_eop_flag fixed bin  ext;
  2   139 dcl para_eop_flag fixed bin  defined (cobol_$para_eop_flag);
  2   140 dcl cobol_$priority_no fixed bin  ext;
  2   141 dcl priority_no fixed bin  defined (cobol_$priority_no);
  2   142 dcl cobol_$compile_count fixed bin ext;
  2   143 dcl compile_count fixed bin defined (cobol_$compile_count);
  2   144 dcl cobol_$ptr_assumption_ind fixed bin ext;
  2   145 dcl ptr_assumption_ind fixed bin defined (cobol_$ptr_assumption_ind);
  2   146 dcl cobol_$reg_assumption_ind fixed bin ext;
  2   147 dcl reg_assumption_ind fixed bin defined (cobol_$reg_assumption_ind);
  2   148 dcl cobol_$perform_para_index fixed bin ext;
  2   149 dcl perform_para_index fixed bin defined (cobol_$perform_para_index);
  2   150 dcl cobol_$perform_sect_index fixed bin ext;
  2   151 dcl perform_sect_index fixed bin defined (cobol_$perform_sect_index);
  2   152 dcl cobol_$alter_index fixed bin ext;
  2   153 dcl alter_index fixed bin defined (cobol_$alter_index);
  2   154 dcl cobol_$list_off fixed bin ext;
  2   155 dcl list_off fixed bin defined (cobol_$list_off);
  2   156 dcl cobol_$constant_offset fixed bin ext;
  2   157 dcl constant_offset fixed bin defined (cobol_$constant_offset);
  2   158 dcl cobol_$misc_max fixed bin ext;
  2   159 dcl misc_max fixed bin defined (cobol_$misc_max);
  2   160 dcl cobol_$pd_map_max fixed bin ext;
  2   161 dcl pd_map_max fixed bin defined (cobol_$pd_map_max);
  2   162 dcl cobol_$map_data_max fixed bin ext;
  2   163 dcl map_data_max fixed bin defined (cobol_$map_data_max);
  2   164 dcl cobol_$fixup_max fixed bin ext;
  2   165 dcl fixup_max fixed bin defined (cobol_$fixup_max);
  2   166 dcl cobol_$tag_table_max fixed bin ext;
  2   167 dcl tag_table_max fixed bin defined (cobol_$tag_table_max);
  2   168 dcl cobol_$temp_token_max fixed bin ext;
  2   169 dcl temp_token_max fixed bin defined (cobol_$temp_token_max);
  2   170 dcl cobol_$allo1_max fixed bin ext;
  2   171 dcl allo1_max fixed bin defined (cobol_$allo1_max);
  2   172 dcl cobol_$eln_max fixed bin ext;
  2   173 dcl eln_max fixed bin defined (cobol_$eln_max);
  2   174 dcl cobol_$debug_enable fixed bin ext;
  2   175 dcl debug_enable fixed bin defined (cobol_$debug_enable);
  2   176 dcl cobol_$non_source_offset fixed bin ext;
  2   177 dcl non_source_offset fixed bin defined (cobol_$non_source_offset);
  2   178 dcl cobol_$initval_flag fixed bin ext;
  2   179 dcl initval_flag fixed bin defined (cobol_$initval_flag);
  2   180 dcl cobol_$date_compiled_sw fixed bin ext;
  2   181 dcl date_compiled_sw fixed bin defined (cobol_$date_compiled_sw);
  2   182 dcl cobol_$include_cnt fixed bin ext;
  2   183 dcl include_cnt fixed bin defined (cobol_$include_cnt);
  2   184 dcl cobol_$fs_charcnt fixed bin ext;
  2   185 dcl fs_charcnt fixed bin defined (cobol_$fs_charcnt);
  2   186 dcl cobol_$ws_charcnt fixed bin ext;
  2   187 dcl ws_charcnt fixed bin defined (cobol_$ws_charcnt);
  2   188 dcl cobol_$coms_charcnt fixed bin ext;
  2   189 dcl coms_charcnt fixed bin defined (cobol_$coms_charcnt);
  2   190 dcl cobol_$ls_charcnt fixed bin ext;
  2   191 dcl ls_charcnt fixed bin defined (cobol_$ls_charcnt);
  2   192 dcl cobol_$cons_charcnt fixed bin ext;
  2   193 dcl cons_charcnt fixed bin defined (cobol_$cons_charcnt);
  2   194 dcl cobol_$value_cnt fixed bin ext;
  2   195 dcl value_cnt fixed bin defined (cobol_$value_cnt);
  2   196 dcl cobol_$cd_cnt fixed bin ext;
  2   197 dcl cd_cnt fixed bin defined (cobol_$cd_cnt);
  2   198 dcl cobol_$fs_wdoff fixed bin ext;
  2   199 dcl fs_wdoff fixed bin defined (cobol_$fs_wdoff);
  2   200 dcl cobol_$ws_wdoff fixed bin ext;
  2   201 dcl ws_wdoff fixed bin defined (cobol_$ws_wdoff);
  2   202 dcl cobol_$coms_wdoff fixed bin ext;
  2   203 dcl coms_wdoff fixed bin defined (cobol_$coms_wdoff);
  2   204
  2   205 /* CHARACTER */
  2   206 dcl cobol_$scratch_dir char (168)   aligned ext;
  2   207 dcl scratch_dir char (168)   aligned defined (cobol_$scratch_dir);			/* -42- */
  2   208 dcl cobol_$obj_seg_name char (32)   aligned ext;
  2   209 dcl obj_seg_name char (32)   aligned defined (cobol_$obj_seg_name);		/* -8- */
  2   210
  2   211 /* BIT */
  2   212 dcl cobol_$xref_bypass bit(1) aligned ext;
  2   213 dcl xref_bypass bit(1) aligned defined (cobol_$xref_bypass);			/* -1- */
  2   214 dcl cobol_$same_sort_merge_proc bit(1) aligned ext;
  2   215 dcl same_sort_merge_proc bit(1) aligned defined (cobol_$same_sort_merge_proc);		/* -1- */
  2   216
  2   217
  2   218 /* END INCLUDE FILE ... cobol_incl.pl1*/
  2   219
  2   220
      133
      134
      135      end cobol_fofl_mask;
	SOURCE FILES USED IN THIS COMPILATION.

LINE      NUMBER  DATE MODIFIED     NAME			PATHNAME
             0    05/24/89  0832.1  cobol_fofl_mask.pl1               >spec>install>MR12.3-1048>cobol_fofl_mask.pl1
130          1    05/24/89  0811.7  cobol_addr_tokens.incl.pl1        >spec>install>MR12.3-1048>cobol_addr_tokens.incl.pl1
133          2    11/11/82  1712.7  cobol_.incl.pl1                   >ldd>include>cobol_.incl.pl1
	NAMES DECLARED IN THIS COMPILATION.

IDENTIFIER	     OFFSET    LOC STORAGE CLASS   DATA TYPE		ATTRIBUTES AND REFERENCES
								(* indicates a set context)

NAMES DECLARED BY DECLARE STATEMENT.
LDI                                    constant        bit(10)                  initial packed unaligned dcl 60 ref 107
addr                                                   builtin function         dcl 125 ref 82 87 97 104 104 104 104 106 108 108 108
                                                                                  108 116 116
char_offset               4            based           fixed bin(24,0)          level 2 dcl 1-23 set ref 101*
cobol_$compile_count            000026 external static fixed bin(17,0)          dcl 2-142 ref 78 91
cobol_addr                      000020 constant        entry                    external dcl 41 ref 104
cobol_emit                      000024 constant        entry                    external dcl 43 ref 108 116
cobol_pool                      000022 constant        entry                    external dcl 42 ref 83 88
fill1_op                  0(18)        based           bit(10)                  level 2 packed packed unaligned dcl 1-51 set ref
                                                                                  107*
input_buffer                    000110 automatic       char(4)                  array packed unaligned dcl 71 set ref 97
input_ptr                       000122 automatic       pointer                  dcl 1-18 set ref 97* 98 99 100 101 102 104*
input_struc_basic                      based           structure                level 1 unaligned dcl 1-23
inst_ptr                        000124 automatic       pointer                  dcl 1-18 set ref 106* 107
inst_struc_basic                       based           structure                level 1 dcl 1-51
ldi_inst                        000014 internal static bit(36)                  initial packed unaligned dcl 57 set ref 116 116
ldi_masks_pooled                000010 internal static fixed bin(17,0)          initial dcl 47 set ref 78 91*
lock                      2            based           fixed bin(17,0)          level 2 dcl 1-23 set ref 100*
mask_ptr                        000106 automatic       pointer                  dcl 69 set ref 82* 83 87* 88
mask_string                            based           char(4)                  packed unaligned dcl 70 set ref 83* 88*
null                                                   builtin function         dcl 125 ref 116 116
off_ret_offset                  000016 internal static fixed bin(24,0)          dcl 64 set ref 88*
oflo_mask_off                   000012 internal static bit(36)                  initial packed unaligned dcl 52 set ref 87
oflo_mask_on                    000011 internal static bit(36)                  initial packed unaligned dcl 49 set ref 82
on_mask_inst                    000013 internal static bit(36)                  packed unaligned dcl 54 set ref 104 104 106 108 108
on_mask_reloc                   000100 automatic       bit(5)                   array dcl 55 set ref 104 104 108 108
on_ret_offset                   000015 internal static fixed bin(24,0)          dcl 63 set ref 83* 101
operand_no                1            based           fixed bin(17,0)          level 2 dcl 1-23 set ref 99*
segno                     3            based           fixed bin(17,0)          level 2 dcl 1-23 set ref 102*
type                                   based           fixed bin(17,0)          level 2 dcl 1-23 set ref 98*

NAMES DECLARED BY DECLARE STATEMENT AND NEVER REFERENCED.
addrel                                                 builtin function         dcl 125
allo1_max                              defined         fixed bin(17,0)          dcl 2-171
allo1_ptr                              defined         pointer                  dcl 2-67
alter_flag                             defined         fixed bin(17,0)          dcl 2-135
alter_index                            defined         fixed bin(17,0)          dcl 2-153
alter_list_ptr                         defined         pointer                  dcl 2-39
binary                                                 builtin function         dcl 125
cd_cnt                                 defined         fixed bin(17,0)          dcl 2-197
cobol_$allo1_max                       external static fixed bin(17,0)          dcl 2-170
cobol_$allo1_ptr                       external static pointer                  dcl 2-66
cobol_$alter_flag                      external static fixed bin(17,0)          dcl 2-134
cobol_$alter_index                     external static fixed bin(17,0)          dcl 2-152
cobol_$alter_list_ptr                  external static pointer                  dcl 2-38
cobol_$cd_cnt                          external static fixed bin(17,0)          dcl 2-196
cobol_$cobol_data_wd_off               external static fixed bin(17,0)          dcl 2-118
cobol_$coms_charcnt                    external static fixed bin(17,0)          dcl 2-188
cobol_$coms_wdoff                      external static fixed bin(17,0)          dcl 2-202
cobol_$con_end_ptr                     external static pointer                  dcl 2-10
cobol_$con_wd_off                      external static fixed bin(17,0)          dcl 2-92
cobol_$cons_charcnt                    external static fixed bin(17,0)          dcl 2-192
cobol_$constant_offset                 external static fixed bin(17,0)          dcl 2-156
cobol_$data_init_flag                  external static fixed bin(17,0)          dcl 2-130
cobol_$date_compiled_sw                external static fixed bin(17,0)          dcl 2-180
cobol_$debug_enable                    external static fixed bin(17,0)          dcl 2-174
cobol_$def_base_ptr                    external static pointer                  dcl 2-12
cobol_$def_max                         external static fixed bin(17,0)          dcl 2-96
cobol_$def_wd_off                      external static fixed bin(17,0)          dcl 2-94
cobol_$diag_ptr                        external static pointer                  dcl 2-70
cobol_$eln_max                         external static fixed bin(17,0)          dcl 2-172
cobol_$eln_ptr                         external static pointer                  dcl 2-68
cobol_$fixup_max                       external static fixed bin(17,0)          dcl 2-164
cobol_$fixup_ptr                       external static pointer                  dcl 2-30
cobol_$fs_charcnt                      external static fixed bin(17,0)          dcl 2-184
cobol_$fs_wdoff                        external static fixed bin(17,0)          dcl 2-198
cobol_$include_cnt                     external static fixed bin(17,0)          dcl 2-182
cobol_$include_info_ptr                external static pointer                  dcl 2-86
cobol_$init_stack_off                  external static fixed bin(17,0)          dcl 2-124
cobol_$initval_base_ptr                external static pointer                  dcl 2-32
cobol_$initval_file_ptr                external static pointer                  dcl 2-34
cobol_$initval_flag                    external static fixed bin(17,0)          dcl 2-178
cobol_$link_base_ptr                   external static pointer                  dcl 2-14
cobol_$link_max                        external static fixed bin(17,0)          dcl 2-100
cobol_$link_wd_off                     external static fixed bin(17,0)          dcl 2-98
cobol_$list_off                        external static fixed bin(17,0)          dcl 2-154
cobol_$list_ptr                        external static pointer                  dcl 2-64
cobol_$ls_charcnt                      external static fixed bin(17,0)          dcl 2-190
cobol_$main_pcs_ptr                    external static pointer                  dcl 2-84
cobol_$map_data_max                    external static fixed bin(17,0)          dcl 2-162
cobol_$map_data_ptr                    external static pointer                  dcl 2-54
cobol_$max_stack_off                   external static fixed bin(17,0)          dcl 2-122
cobol_$minpral5_ptr                    external static pointer                  dcl 2-50
cobol_$misc_base_ptr                   external static pointer                  dcl 2-60
cobol_$misc_end_ptr                    external static pointer                  dcl 2-62
cobol_$misc_max                        external static fixed bin(17,0)          dcl 2-158
cobol_$next_tag                        external static fixed bin(17,0)          dcl 2-128
cobol_$non_source_offset               external static fixed bin(17,0)          dcl 2-176
cobol_$ntbuf_ptr                       external static pointer                  dcl 2-82
cobol_$obj_seg_name                    external static char(32)                 dcl 2-208
cobol_$op_con_ptr                      external static pointer                  dcl 2-80
cobol_$para_eop_flag                   external static fixed bin(17,0)          dcl 2-138
cobol_$pd_map_index                    external static fixed bin(17,0)          dcl 2-116
cobol_$pd_map_max                      external static fixed bin(17,0)          dcl 2-160
cobol_$pd_map_ptr                      external static pointer                  dcl 2-28
cobol_$pd_map_sw                       external static fixed bin(17,0)          dcl 2-126
cobol_$perform_list_ptr                external static pointer                  dcl 2-36
cobol_$perform_para_index              external static fixed bin(17,0)          dcl 2-148
cobol_$perform_sect_index              external static fixed bin(17,0)          dcl 2-150
cobol_$priority_no                     external static fixed bin(17,0)          dcl 2-140
cobol_$ptr_assumption_ind              external static fixed bin(17,0)          dcl 2-144
cobol_$ptr_status_ptr                  external static pointer                  dcl 2-56
cobol_$reg_assumption_ind              external static fixed bin(17,0)          dcl 2-146
cobol_$reg_status_ptr                  external static pointer                  dcl 2-58
cobol_$reloc_def_base_ptr              external static pointer                  dcl 2-20
cobol_$reloc_def_max                   external static fixed bin(24,0)          dcl 2-108
cobol_$reloc_link_base_ptr             external static pointer                  dcl 2-22
cobol_$reloc_link_max                  external static fixed bin(24,0)          dcl 2-110
cobol_$reloc_sym_base_ptr              external static pointer                  dcl 2-24
cobol_$reloc_sym_max                   external static fixed bin(24,0)          dcl 2-112
cobol_$reloc_text_base_ptr             external static pointer                  dcl 2-18
cobol_$reloc_text_max                  external static fixed bin(24,0)          dcl 2-106
cobol_$reloc_work_base_ptr             external static pointer                  dcl 2-26
cobol_$reloc_work_max                  external static fixed bin(24,0)          dcl 2-114
cobol_$reswd_ptr                       external static pointer                  dcl 2-78
cobol_$same_sort_merge_proc            external static bit(1)                   dcl 2-214
cobol_$scratch_dir                     external static char(168)                dcl 2-206
cobol_$sect_eop_flag                   external static fixed bin(17,0)          dcl 2-136
cobol_$seg_init_flag                   external static fixed bin(17,0)          dcl 2-132
cobol_$seg_init_list_ptr               external static pointer                  dcl 2-40
cobol_$stack_off                       external static fixed bin(17,0)          dcl 2-120
cobol_$statement_info_ptr              external static pointer                  dcl 2-76
cobol_$sym_base_ptr                    external static pointer                  dcl 2-16
cobol_$sym_max                         external static fixed bin(17,0)          dcl 2-104
cobol_$sym_wd_off                      external static fixed bin(17,0)          dcl 2-102
cobol_$tag_table_max                   external static fixed bin(17,0)          dcl 2-166
cobol_$tag_table_ptr                   external static pointer                  dcl 2-52
cobol_$temp_token_area_ptr             external static pointer                  dcl 2-42
cobol_$temp_token_max                  external static fixed bin(17,0)          dcl 2-168
cobol_$temp_token_ptr                  external static pointer                  dcl 2-44
cobol_$text_base_ptr                   external static pointer                  dcl 2-8
cobol_$text_wd_off                     external static fixed bin(17,0)          dcl 2-90
cobol_$token_block1_ptr                external static pointer                  dcl 2-46
cobol_$token_block2_ptr                external static pointer                  dcl 2-48
cobol_$value_cnt                       external static fixed bin(17,0)          dcl 2-194
cobol_$ws_charcnt                      external static fixed bin(17,0)          dcl 2-186
cobol_$ws_wdoff                        external static fixed bin(17,0)          dcl 2-200
cobol_$xref_bypass                     external static bit(1)                   dcl 2-212
cobol_$xref_chain_ptr                  external static pointer                  dcl 2-74
cobol_$xref_token_ptr                  external static pointer                  dcl 2-72
cobol_data_wd_off                      defined         fixed bin(17,0)          dcl 2-119
compile_count                          defined         fixed bin(17,0)          dcl 2-143
coms_charcnt                           defined         fixed bin(17,0)          dcl 2-189
coms_wdoff                             defined         fixed bin(17,0)          dcl 2-203
con_end_ptr                            defined         pointer                  dcl 2-11
con_wd_off                             defined         fixed bin(17,0)          dcl 2-93
cons_charcnt                           defined         fixed bin(17,0)          dcl 2-193
constant_offset                        defined         fixed bin(17,0)          dcl 2-157
data_init_flag                         defined         fixed bin(17,0)          dcl 2-131
date_compiled_sw                       defined         fixed bin(17,0)          dcl 2-181
debug_enable                           defined         fixed bin(17,0)          dcl 2-175
def_base_ptr                           defined         pointer                  dcl 2-13
def_max                                defined         fixed bin(17,0)          dcl 2-97
def_wd_off                             defined         fixed bin(17,0)          dcl 2-95
desc_an                                based           structure                level 1 packed packed unaligned dcl 1-103
desc_an_ptr                            automatic       pointer                  dcl 1-119
desc_nn                                based           structure                level 1 packed packed unaligned dcl 1-122
desc_nn_ptr                            automatic       pointer                  dcl 1-118
diag_ptr                               defined         pointer                  dcl 2-71
eln_max                                defined         fixed bin(17,0)          dcl 2-173
eln_ptr                                defined         pointer                  dcl 2-69
fixed                                                  builtin function         dcl 125
fixup_max                              defined         fixed bin(17,0)          dcl 2-165
fixup_ptr                              defined         pointer                  dcl 2-31
fs_charcnt                             defined         fixed bin(17,0)          dcl 2-185
fs_wdoff                               defined         fixed bin(17,0)          dcl 2-199
include_cnt                            defined         fixed bin(17,0)          dcl 2-183
include_info_ptr                       defined         pointer                  dcl 2-87
index                                                  builtin function         dcl 125
init_stack_off                         defined         fixed bin(17,0)          dcl 2-125
initval_base_ptr                       defined         pointer                  dcl 2-33
initval_file_ptr                       defined         pointer                  dcl 2-35
initval_flag                           defined         fixed bin(17,0)          dcl 2-179
input_struc                            based           structure                level 1 unaligned dcl 1-32
inst_struc                             based           structure                level 1 dcl 1-66
length                                                 builtin function         dcl 125
link_base_ptr                          defined         pointer                  dcl 2-15
link_max                               defined         fixed bin(17,0)          dcl 2-101
link_wd_off                            defined         fixed bin(17,0)          dcl 2-99
list_off                               defined         fixed bin(17,0)          dcl 2-155
list_ptr                               defined         pointer                  dcl 2-65
ls_charcnt                             defined         fixed bin(17,0)          dcl 2-191
main_pcs_ptr                           defined         pointer                  dcl 2-85
map_data_max                           defined         fixed bin(17,0)          dcl 2-163
map_data_ptr                           defined         pointer                  dcl 2-55
max_stack_off                          defined         fixed bin(17,0)          dcl 2-123
minpral5_ptr                           defined         pointer                  dcl 2-51
misc_base_ptr                          defined         pointer                  dcl 2-61
misc_end_ptr                           defined         pointer                  dcl 2-63
misc_max                               defined         fixed bin(17,0)          dcl 2-159
mod                                                    builtin function         dcl 125
next_tag                               defined         fixed bin(17,0)          dcl 2-129
non_source_offset                      defined         fixed bin(17,0)          dcl 2-177
ntbuf_ptr                              defined         pointer                  dcl 2-83
obj_seg_name                           defined         char(32)                 dcl 2-209
op_con_ptr                             defined         pointer                  dcl 2-81
para_eop_flag                          defined         fixed bin(17,0)          dcl 2-139
pd_map_index                           defined         fixed bin(17,0)          dcl 2-117
pd_map_max                             defined         fixed bin(17,0)          dcl 2-161
pd_map_ptr                             defined         pointer                  dcl 2-29
pd_map_sw                              defined         fixed bin(17,0)          dcl 2-127
perform_list_ptr                       defined         pointer                  dcl 2-37
perform_para_index                     defined         fixed bin(17,0)          dcl 2-149
perform_sect_index                     defined         fixed bin(17,0)          dcl 2-151
priority_no                            defined         fixed bin(17,0)          dcl 2-141
ptr_assumption_ind                     defined         fixed bin(17,0)          dcl 2-145
ptr_status_ptr                         defined         pointer                  dcl 2-57
reg_assumption_ind                     defined         fixed bin(17,0)          dcl 2-147
reg_status_ptr                         defined         pointer                  dcl 2-59
rel                                                    builtin function         dcl 125
reloc_def_base_ptr                     defined         pointer                  dcl 2-21
reloc_def_max                          defined         fixed bin(24,0)          dcl 2-109
reloc_link_base_ptr                    defined         pointer                  dcl 2-23
reloc_link_max                         defined         fixed bin(24,0)          dcl 2-111
reloc_ptr                              automatic       pointer                  dcl 1-18
reloc_struc                            based           structure                array level 1 unaligned dcl 1-44
reloc_sym_base_ptr                     defined         pointer                  dcl 2-25
reloc_sym_max                          defined         fixed bin(24,0)          dcl 2-113
reloc_text_base_ptr                    defined         pointer                  dcl 2-19
reloc_text_max                         defined         fixed bin(24,0)          dcl 2-107
reloc_work_base_ptr                    defined         pointer                  dcl 2-27
reloc_work_max                         defined         fixed bin(24,0)          dcl 2-115
reswd_ptr                              defined         pointer                  dcl 2-79
same_sort_merge_proc                   defined         bit(1)                   dcl 2-215
scratch_dir                            defined         char(168)                dcl 2-207
sect_eop_flag                          defined         fixed bin(17,0)          dcl 2-137
seg_init_flag                          defined         fixed bin(17,0)          dcl 2-133
seg_init_list_ptr                      defined         pointer                  dcl 2-41
stack_off                              defined         fixed bin(17,0)          dcl 2-121
statement_info_ptr                     defined         pointer                  dcl 2-77
string                                                 builtin function         dcl 125
substr                                                 builtin function         dcl 125
sym_base_ptr                           defined         pointer                  dcl 2-17
sym_max                                defined         fixed bin(17,0)          dcl 2-105
sym_wd_off                             defined         fixed bin(17,0)          dcl 2-103
tag_table_max                          defined         fixed bin(17,0)          dcl 2-167
tag_table_ptr                          defined         pointer                  dcl 2-53
temp_token_area_ptr                    defined         pointer                  dcl 2-43
temp_token_max                         defined         fixed bin(17,0)          dcl 2-169
temp_token_ptr                         defined         pointer                  dcl 2-45
text_base_ptr                          defined         pointer                  dcl 2-9
text_wd_off                            defined         fixed bin(17,0)          dcl 2-91
token_block1_ptr                       defined         pointer                  dcl 2-47
token_block2_ptr                       defined         pointer                  dcl 2-49
unspec                                                 builtin function         dcl 125
value_cnt                              defined         fixed bin(17,0)          dcl 2-195
ws_charcnt                             defined         fixed bin(17,0)          dcl 2-187
ws_wdoff                               defined         fixed bin(17,0)          dcl 2-201
xref_bypass                            defined         bit(1)                   dcl 2-213
xref_chain_ptr                         defined         pointer                  dcl 2-75
xref_token_ptr                         defined         pointer                  dcl 2-73

NAMES DECLARED BY EXPLICIT CONTEXT.
cobol_fofl_mask                 000007 constant        entry                    external dcl 27
off                             000161 constant        entry                    external dcl 114
on                              000016 constant        entry                    external dcl 75

THERE WERE NO NAMES DECLARED BY CONTEXT OR IMPLICATION.

STORAGE REQUIREMENTS FOR THIS PROGRAM.

	Object	Text	Link	Symbol	Defs	Static
Start          0       0       300         330     210         310
Length       544     210        30         200      70          10

BLOCK NAME	         STACK SIZE     TYPE		WHY NONQUICK/WHO SHARES STACK FRAME
cobol_fofl_mask                     106 external procedure  is an external procedure.

STORAGE FOR INTERNAL STATIC VARIABLES.

   LOC IDENTIFIER                  BLOCK NAME
000010 ldi_masks_pooled            cobol_fofl_mask
000011 oflo_mask_on                cobol_fofl_mask
000012 oflo_mask_off               cobol_fofl_mask
000013 on_mask_inst                cobol_fofl_mask
000014 ldi_inst                    cobol_fofl_mask
000015 on_ret_offset               cobol_fofl_mask
000016 off_ret_offset              cobol_fofl_mask

STORAGE FOR AUTOMATIC VARIABLES.

STACK FRAME                 LOC IDENTIFIER                  BLOCK NAME
cobol_fofl_mask          000100 on_mask_reloc               cobol_fofl_mask
                         000106 mask_ptr                    cobol_fofl_mask
                         000110 input_buffer                cobol_fofl_mask
                         000122 input_ptr                   cobol_fofl_mask
                         000124 inst_ptr                    cobol_fofl_mask

THE FOLLOWING EXTERNAL OPERATORS ARE USED BY THIS PROGRAM.
call_ext_out_desc   call_ext_out        return_mac          ext_entry

THE FOLLOWING EXTERNAL ENTRIES ARE CALLED BY THIS PROGRAM.
cobol_addr                    cobol_emit                    cobol_pool

THE FOLLOWING EXTERNAL VARIABLES ARE USED BY THIS PROGRAM.
cobol_$compile_count


   LINE    LOC      LINE    LOC      LINE    LOC      LINE    LOC      LINE    LOC      LINE    LOC      LINE    LOC
     27 000006        75 000014        78 000023        82 000026        83 000030        87 000051        88 000054
     91 000075        97 000100        98 000102        99 000104       100 000105       101 000106       102 000110
    104 000112       106 000130       107 000133       108 000137       110 000157       114 000160       116 000166
    117 000207


                                          -----------------------------------------------------------


Historical Background

This edition of the Multics software materials and documentation is provided and donated
to Massachusetts Institute of Technology by Group BULL including BULL HN Information Systems Inc.
as a contribution to computer science knowledge.
This donation is made also to give evidence of the common contributions of Massachusetts Institute of Technology,
Bell Laboratories, General Electric, Honeywell Information Systems Inc., Honeywell BULL Inc., Groupe BULL
and BULL HN Information Systems Inc. to the development of this operating system.
Multics development was initiated by Massachusetts Institute of Technology Project MAC (1963-1970),
renamed the MIT Laboratory for Computer Science and Artificial Intelligence in the mid 1970s, under the leadership
of Professor Fernando Jose Corbato. Users consider that Multics provided the best software architecture
for managing computer hardware properly and for executing programs. Many subsequent operating systems
incorporated Multics principles.
Multics was distributed in 1975 to 2000 by Group Bull in Europe , and in the U.S. by Bull HN Information Systems Inc.,
as successor in interest by change in name only to Honeywell Bull Inc. and Honeywell Information Systems Inc. .

                                          -----------------------------------------------------------

Permission to use, copy, modify, and distribute these programs and their documentation for any purpose and without
fee is hereby granted,provided that the below copyright notice and historical background appear in all copies
and that both the copyright notice and historical background and this permission notice appear in supporting
documentation, and that the names of MIT, HIS, BULL or BULL HN not be used in advertising or publicity pertaining
to distribution of the programs without specific prior written permission.
    Copyright 1972 by Massachusetts Institute of Technology and Honeywell Information Systems Inc.
    Copyright 2006 by BULL HN Information Systems Inc.
    Copyright 2006 by Bull SAS
    All Rights Reserved
