	COMPILATION LISTING OF SEGMENT cobol_arg_descriptor
	Compiled by: Multics PL/I Compiler, Release 33e, of October 6, 1992
	Compiled at: CGI
	Compiled on: 2000-04-18_1133.80_Tue_mdt
	    Options: optimize map

        1 /****^  ***********************************************************
        2*        *                                                         *
        3*        * Copyright, (C) BULL HN Information Systems Inc., 1989   *
        4*        *                                                         *
        5*        * Copyright, (C) Honeywell Information Systems Inc., 1982 *
        6*        *                                                         *
        7*        * Copyright (c) 1972 by Massachusetts Institute of        *
        8*        * Technology and Honeywell Information Systems, Inc.      *
        9*        *                                                         *
       10*        *********************************************************** */
       11
       12
       13
       14
       15 /****^  HISTORY COMMENTS:
       16*  1) change(89-04-23,Zimmerman), approve(89-04-23,MCR8060),
       17*     audit(89-05-05,RWaters), install(89-05-24,MR12.3-1048):
       18*     MCR8060 cobol_arg_descriptor.pl1 Reformatted code to new Cobol standard.
       19*                                                   END HISTORY COMMENTS */
       20
       21
       22 /* Modified on 08/25/83 by FCH, [5.2-2], phx15769(BUG555),incorrect descriptors formed for COMP-5,7,8 data */
       23 /* Modified on 03/03/83 by FCH, [5.2-1], phx14746(BUG547), multipliers incorrectly formed */
       24 /* Modified on 01/03/80 by FCH, [3.0-3], scale entered into descriptor */
       25 /* Modified on 01/03/79 by FCH, [3.0-2], set packed bit */
       26 /* Modified on 12/28/78 by FCH, [3.0-1], fix redef bug */
       27 /* Modified since Version 3.0 */
       28
       29 /* format: style3 */
       30 cobol_arg_descriptor:
       31      proc (in_word, out_word, out_conoff);
       32
       33 dcl	in_word		bit (36);
       34 dcl	out_word		bit (36);
       35 dcl	out_conoff	fixed bin;
       36
       37 dcl	01 data_based	based,
       38 	  02 filler	char (24),
       39 	  02 offset	fixed bin;
       40
       41 dcl	my_ptr		ptr;
       42 dcl	utemp		fixed bin;
       43 dcl	prec_len		fixed bin;
       44 dcl	my_count		fixed bin (24);
       45 dcl	my_word		bit (36);
       46 dcl	con		(0:1) bit (36) aligned based (my_ptr);
       47 dcl	dn_ptr		ptr;
       48 dcl	(desc_cnt, main_level, prev_level, i, redef_level)
       49 			fixed bin,
       50 	(cont_flag, found, con_bit)
       51 			bit (1),
       52 	desc_wd		(0:8000) bit (36),
       53 	desc_char		char (32000) based (addr (desc_wd (0)));
       54
       55
       56 /*************************************/
       57
       58 	my_word = in_word;
       59 	my_ptr = addrel (cobol_$con_end_ptr, 0);
       60 	my_count = 1;
       61 	con_bit = "1"b;
       62
       63 	do while (con_bit);
       64
       65 	     if my_count >= cobol_$con_wd_off
       66 	     then do;
       67
       68 /* the word is not in the pool, put it there*/
       69
       70 		     if (cobol_$text_wd_off + cobol_$con_wd_off) <= 262144
       71 		     then do;
       72 			     con (0) = my_word;
       73 			     cobol_$con_wd_off = cobol_$con_wd_off + 1;
       74
       75 			     call set_out;
       76 			end;			/* text plus constants exceed segment size */
       77
       78 		     else call signal_ ("command_abort_", null (), addr (con_err));
       79 		     return;
       80 		end;
       81
       82 	     if con (0) ^= my_word
       83 	     then do;
       84 		     my_count = my_count + 1;
       85 		     my_ptr = addrel (my_ptr, -1);
       86 		end;
       87 	     else con_bit = "0"b;
       88
       89 	end;
       90
       91 	call set_out;
       92
       93 	return;
       94
       95 set_out:
       96      proc;
       97
       98 	utemp = -(my_count + cobol_$text_wd_off);
       99 	substr (out_word, 1, 18) = substr (unspec (utemp), 19, 18);
      100
      101      end;
      102
      103
      104
      105 type9:
      106      entry (token_ptr, out_word, out_conoff);
      107
      108 dcl	token_ptr		ptr;
      109
      110 /* the following assumes a data type of character string
      111*				and not packed */
      112 	dn_ptr = token_ptr;
      113
      114 	if data_name.elementary
      115 	then do;
      116 		desc_cnt = 0;
      117 		call set_descriptor;
      118 	     end;
      119 	else if fixed_common.descriptor = "01"b
      120 	then call SD;
      121 	else do;
      122 		desc_cnt = 1;
      123
      124 		if data_name.level = 1 | data_name.level = 77
      125 		then desc_wd (1) = "10101010"b;
      126 		else desc_wd (1) = "10101011"b;
      127
      128 		substr (desc_wd (1), 13, 24) = substr (unspec (data_name.item_length), 13, 24);
      129 	     end;
      130
      131 	desc_wd (0) = substr (unspec (desc_cnt), 1, 36);
      132
      133 	call cobol_pool (substr (desc_char, 1, (desc_cnt + 1) * 4), 2, out_conoff);
      134
      135 	out_conoff = out_conoff - 1;
      136 	utemp = -out_conoff - cobol_$text_wd_off;
      137 	substr (out_word, 1, 18) = substr (unspec (utemp), 19, 18);
      138
      139 	return;
      140
      141
      142 /* set_descriptor */
      143 set_descriptor:
      144      proc;
      145
      146 	if data_name.bin_18				/*[5.2-2]*/
      147 	then if data_name.sync			/*[5.2-2]*/
      148 	     then my_word = "100000100000000000000000000000010001"b;
      149 						/* comp-7 sync -- 1 */
      150 						/*[5.2-2]*/
      151 	     else my_word = "100000110000000000000000000000010001"b;
      152 						/* comp-7 -- 1 */
      153
      154 	else if data_name.bin_36			/* comp-6 -- 1 */
      155 						/*[5.2-2]*/
      156 	then my_word = "100000100000000000000000000000100011"b;
      157 	else do;
      158
      159
      160
      161 /*[5.2-2]*/
      162 /*my_word = "101010110000"b;*/
      163 		prec_len = data_name.item_length;
      164
      165 		if data_name.display & data_name.numeric
      166 		then do;
      167
      168 			if data_name.sign_type = "000"b
      169 						/* unsigned--35 */
      170 						/*[5.2-1]*/
      171 			then my_word = "11000111"b;
      172 			else if data_name.sign_separate = "0"b
      173 			then do;			/* leading overpunch--29 */
      174 						/*[3.0-2]*/
      175 				if data_name.sign_type = "010"b
      176 				then my_word = "10111011"b;
      177 						/* trailing overpunch--30 */
      178 						/*[3.0-2]*/
      179 				else if data_name.sign_type = "001"b
      180 				then my_word = "10111101"b;
      181
      182 			     end;
      183
      184 /* leading separate sign--9 */
      185
      186 			else if data_name.sign_type = "100"b
      187 			then do;
      188
      189 /*[3.0-2]*/
      190 				my_word = "10010011"b;
      191 				prec_len = prec_len - 1;
      192 			     end;			/* trailing separate sign--36 */
      193 			else if data_name.sign_type = "011"b
      194 			then do;			/*[3.0-2]*/
      195 				my_word = "11001001"b;
      196 				prec_len = prec_len - 1;
      197
      198 			     end;
      199 		     end;
      200
      201 		else if data_name.ascii_packed_dec	/* comp or comp-8 */
      202 		then do;
      203
      204 			if data_name.item_signed
      205 			then do;
      206
      207
      208 /*[3.0-2]*/
      209 				if data_name.ascii_packed_dec_h
      210 						/*[3.0-2]*/
      211 				then if data_name.sync
      212 						/*[5.2-2]*/
      213 				     then my_word = "11010111"b;
      214 						/* comp-8 signed synch -- 43 */
      215 						/*[3.0-2]*/
      216 				     else my_word = "11010011"b;
      217 						/* comp-8 signed non-synch -- 41 */
      218
      219 /* comp-5 signed--39 */
      220
      221 /*[3.0-2]*/
      222 				else my_word = "11001111"b;
      223
      224 			     end;			/*[5.2-2]*/
      225 			else if data_name.ascii_packed_dec_h
      226 						/* comp-8 */
      227 						/*[5.2-2]*/
      228 			then if data_name.sync	/*[5.2-2]*/
      229 			     then my_word = "11010001"b;
      230 						/* comp-8 unsigned sync -- 40 */
      231 						/*[5.2-2]*/
      232 			     else my_word = "11001101"b;
      233 						/* comp-8 unsigned -- 38 */
      234 						/*[5.2-2]*/
      235 			else my_word = "11010001"b;	/* comp-5 unsigned -- 40 */
      236
      237 			prec_len = data_name.places_left + data_name.places_right;
      238
      239 		     end;				/*[5.2-2]*/
      240 		else my_word = "10101011"b;		/* non-numeric -- 21 */
      241
      242
      243 /*[4.0-3]*/
      244 		substr (my_word, 13, 24) =
      245 		     /*[4.0-3]*/ substr (unspec (data_name.places_right), 25, 12) /*[4.0-3]*/
      246 		     || /*[4.0-3]*/ substr (unspec (prec_len), 25, 12);
      247
      248 	     end;
      249
      250 	desc_cnt = desc_cnt + 1;
      251 	desc_wd (desc_cnt) = my_word;
      252
      253 /*[5.2-1]*/
      254 	if data_name.subscripted
      255 	then call sub_handler (addr (desc_wd (desc_cnt)));
      256
      257      end;
      258
      259 SD:
      260      proc;
      261
      262 	main_level = data_name.level;
      263 	prev_level = main_level;
      264 	desc_cnt = 1;
      265
      266 /* structure -- 17 */
      267
      268 	if main_level = 1 | main_level = 77
      269 	then desc_wd (1) = "10100010000000000000"b || data_name.son_cnt;
      270 	else desc_wd (1) = "10100011000000000000"b || data_name.son_cnt;
      271
      272 	dn_ptr = pointer (cobol_ntfp, dn_ptr -> data_based.offset);
      273 	cont_flag = "1"b;
      274
      275 /*[5.2-1]*/
      276 	if data_name.subscripted
      277 	then call sub_handler (addr (desc_wd (1)));
      278
      279 	do while (cont_flag);
      280
      281 	     dn_ptr = addrel (dn_ptr, divide (data_name.size + 11, 8, 35, 0) * 2);
      282
      283 	     if data_name.size = 0
      284 	     then return;
      285
      286 	     do while (data_name.exp_redefining);
      287
      288 		redef_level = data_name.level;
      289 		found = "0"b;			/*[3.0-1]*/
      290 		dn_ptr = addrel (dn_ptr, divide (data_name.size + 11, 8, 35, 0) * 2);
      291
      292 		do while (^found);
      293
      294 		     if data_name.level = 77 | data_name.level <= redef_level
      295 		     then found = "1"b;		/*[3.0-1]*/
      296 		     else dn_ptr = addrel (dn_ptr, divide (data_name.size + 11, 8, 35, 0) * 2);
      297 		end;
      298
      299 		if data_name.level = 77 | data_name.level <= main_level
      300 		then return;
      301
      302 	     end;
      303
      304 	     if data_name.non_elementary
      305 	     then do;
      306 		     if data_name.level <= main_level
      307 		     then return;
      308 		     else do;
      309
      310 			     prev_level = data_name.level;
      311 			     desc_cnt = desc_cnt + 1;
      312
      313 /* structure -- 17 */
      314
      315 			     desc_wd (desc_cnt) = "10100011000000000000"b || data_name.son_cnt;
      316
      317 /*[5.2-1]*/
      318 			     if data_name.subscripted
      319 			     then call sub_handler (addr (desc_wd (desc_cnt)));
      320
      321 			end;
      322
      323 		end;
      324 	     else do;
      325
      326 		     if data_name.level < 50
      327 		     then do;
      328 			     if data_name.level <= prev_level
      329 			     then if data_name.level <= main_level
      330 				then return;
      331
      332 			     call set_descriptor;
      333 			end;
      334
      335 		     else if data_name.level = 77
      336 		     then return;
      337
      338 		end;
      339
      340 	end;
      341
      342      end;
      343
      344 sub_handler:
      345      proc (desc_loc);
      346
      347 /*[5.2-1]*/
      348 dcl	desc_loc		ptr;			/*[5.2-1]*/
      349 dcl	desc		bit (36) based (desc_loc);
      350
      351
      352 	occurs_ptr = addrel (dn_ptr, substr (unspec (data_name.occurs_ptr), 17, 18));
      353 	substr (desc_wd (desc_cnt), 10, 3) = substr (unspec (occurs.dimensions), 34, 3);
      354
      355 	do i = occurs.dimensions to 1 by -1;
      356
      357 	     desc_cnt = desc_cnt + 3;
      358 	     desc_wd (desc_cnt - 2) = "000000000000000000000000000000000001"b;
      359 	     desc_wd (desc_cnt - 1) = unspec (occurs.level.max (i));
      360
      361 /*[5.2-1]*/
      362 	     if substr (desc, 8, 1) = "1"b
      363 	     then desc_wd (desc_cnt) = bit (fixed (divide (occurs.level.struc_length (i), 2, 35, 0) * 9, 36));
      364 	     else desc_wd (desc_cnt) = bit (fixed (divide (occurs.level.struc_length (i), 8, 35, 0), 36));
      365 	end;
      366
      367      end;
      368
      369
  1     1
  1     2
  1     3 dcl 1	con_err static,
  1     4 	2 name char (32) init ("cobol_arg_descriptor"),
  1     5 	2 message_len fixed bin (35) init (60),
  1     6 	2 message char (60) init ("object time instructions plus constants exceed 262,144 words");
  1     7
  1     8 dcl	signal_ entry (char(*), ptr, ptr);
  1     9 dcl	cobol_pool	entry(char(*),fixed bin,fixed bin);
  1    10
  1    11
  1    12
  1    13
  1    14
  1    15 	/*****	Declaration for builtin function	*****/
  1    16
  1    17 dcl	(substr,mod,binary,fixed,addr,addrel,rel,length,
  1    18 	string,unspec,null,index)		builtin;
  1    19
  1    20 	/*****	End of declaration for builtin function	*****/
  1    21
  1    22
  2     1
  2     2 /* BEGIN INCLUDE FILE ... cobol_.incl.pl1 */
  2     3 /* last modified Feb 4, 1977 by ORN  */
  2     4
  2     5 /* This file defines all external data used in the generator phase of Multics Cobol */
  2     6
  2     7 /* POINTERS */
  2     8 dcl cobol_$text_base_ptr ptr  ext;
  2     9 dcl text_base_ptr ptr  defined (cobol_$text_base_ptr);
  2    10 dcl cobol_$con_end_ptr ptr  ext;
  2    11 dcl con_end_ptr ptr  defined (cobol_$con_end_ptr);
  2    12 dcl cobol_$def_base_ptr ptr  ext;
  2    13 dcl def_base_ptr ptr  defined (cobol_$def_base_ptr);
  2    14 dcl cobol_$link_base_ptr ptr  ext;
  2    15 dcl link_base_ptr ptr  defined (cobol_$link_base_ptr);
  2    16 dcl cobol_$sym_base_ptr ptr  ext;
  2    17 dcl sym_base_ptr ptr  defined (cobol_$sym_base_ptr);
  2    18 dcl cobol_$reloc_text_base_ptr ptr  ext;
  2    19 dcl reloc_text_base_ptr ptr  defined (cobol_$reloc_text_base_ptr);
  2    20 dcl cobol_$reloc_def_base_ptr ptr  ext;
  2    21 dcl reloc_def_base_ptr ptr  defined (cobol_$reloc_def_base_ptr);
  2    22 dcl cobol_$reloc_link_base_ptr ptr  ext;
  2    23 dcl reloc_link_base_ptr ptr  defined (cobol_$reloc_link_base_ptr);
  2    24 dcl cobol_$reloc_sym_base_ptr ptr  ext;
  2    25 dcl reloc_sym_base_ptr ptr  defined (cobol_$reloc_sym_base_ptr);
  2    26 dcl cobol_$reloc_work_base_ptr ptr  ext;
  2    27 dcl reloc_work_base_ptr ptr  defined (cobol_$reloc_work_base_ptr);
  2    28 dcl cobol_$pd_map_ptr ptr  ext;
  2    29 dcl pd_map_ptr ptr  defined (cobol_$pd_map_ptr);
  2    30 dcl cobol_$fixup_ptr ptr  ext;
  2    31 dcl fixup_ptr ptr  defined (cobol_$fixup_ptr);
  2    32 dcl cobol_$initval_base_ptr ptr  ext;
  2    33 dcl initval_base_ptr ptr  defined (cobol_$initval_base_ptr);
  2    34 dcl cobol_$initval_file_ptr ptr  ext;
  2    35 dcl initval_file_ptr ptr  defined (cobol_$initval_file_ptr);
  2    36 dcl cobol_$perform_list_ptr ptr  ext;
  2    37 dcl perform_list_ptr ptr  defined (cobol_$perform_list_ptr);
  2    38 dcl cobol_$alter_list_ptr ptr  ext;
  2    39 dcl alter_list_ptr ptr  defined (cobol_$alter_list_ptr);
  2    40 dcl cobol_$seg_init_list_ptr ptr  ext;
  2    41 dcl seg_init_list_ptr ptr  defined (cobol_$seg_init_list_ptr);
  2    42 dcl cobol_$temp_token_area_ptr ptr  ext;
  2    43 dcl temp_token_area_ptr ptr  defined (cobol_$temp_token_area_ptr);
  2    44 dcl cobol_$temp_token_ptr ptr  ext;
  2    45 dcl temp_token_ptr ptr  defined (cobol_$temp_token_ptr);
  2    46 dcl cobol_$token_block1_ptr ptr  ext;
  2    47 dcl token_block1_ptr ptr  defined (cobol_$token_block1_ptr);
  2    48 dcl cobol_$token_block2_ptr ptr  ext;
  2    49 dcl token_block2_ptr ptr  defined (cobol_$token_block2_ptr);
  2    50 dcl cobol_$minpral5_ptr ptr  ext;
  2    51 dcl minpral5_ptr ptr  defined (cobol_$minpral5_ptr);
  2    52 dcl cobol_$tag_table_ptr ptr  ext;
  2    53 dcl tag_table_ptr ptr  defined (cobol_$tag_table_ptr);
  2    54 dcl cobol_$map_data_ptr ptr  ext;
  2    55 dcl map_data_ptr ptr  defined (cobol_$map_data_ptr);
  2    56 dcl cobol_$ptr_status_ptr ptr  ext;
  2    57 dcl ptr_status_ptr ptr  defined (cobol_$ptr_status_ptr);
  2    58 dcl cobol_$reg_status_ptr ptr  ext;
  2    59 dcl reg_status_ptr ptr  defined (cobol_$reg_status_ptr);
  2    60 dcl cobol_$misc_base_ptr ptr ext;
  2    61 dcl misc_base_ptr ptr defined (cobol_$misc_base_ptr);
  2    62 dcl cobol_$misc_end_ptr ptr ext;
  2    63 dcl misc_end_ptr ptr defined (cobol_$misc_end_ptr);
  2    64 dcl cobol_$list_ptr ptr ext;
  2    65 dcl list_ptr ptr defined (cobol_$list_ptr);
  2    66 dcl cobol_$allo1_ptr ptr ext;
  2    67 dcl allo1_ptr ptr defined (cobol_$allo1_ptr);
  2    68 dcl cobol_$eln_ptr ptr ext;
  2    69 dcl eln_ptr ptr defined (cobol_$eln_ptr);
  2    70 dcl cobol_$diag_ptr ptr ext;
  2    71 dcl diag_ptr ptr defined (cobol_$diag_ptr);
  2    72 dcl cobol_$xref_token_ptr ptr ext;
  2    73 dcl xref_token_ptr ptr defined (cobol_$xref_token_ptr);
  2    74 dcl cobol_$xref_chain_ptr ptr ext;
  2    75 dcl xref_chain_ptr ptr defined (cobol_$xref_chain_ptr);
  2    76 dcl cobol_$statement_info_ptr ptr ext;
  2    77 dcl statement_info_ptr ptr defined (cobol_$statement_info_ptr);
  2    78 dcl cobol_$reswd_ptr ptr ext;
  2    79 dcl reswd_ptr ptr defined (cobol_$reswd_ptr);
  2    80 dcl cobol_$op_con_ptr ptr ext;
  2    81 dcl op_con_ptr ptr defined (cobol_$op_con_ptr);
  2    82 dcl cobol_$ntbuf_ptr ptr ext;
  2    83 dcl ntbuf_ptr ptr defined (cobol_$ntbuf_ptr);
  2    84 dcl cobol_$main_pcs_ptr ptr ext;
  2    85 dcl main_pcs_ptr ptr defined (cobol_$main_pcs_ptr);
  2    86 dcl cobol_$include_info_ptr ptr ext;
  2    87 dcl include_info_ptr ptr defined (cobol_$include_info_ptr);
  2    88
  2    89 /* FIXED BIN */
  2    90 dcl cobol_$text_wd_off fixed bin  ext;
  2    91 dcl text_wd_off fixed bin  defined (cobol_$text_wd_off);
  2    92 dcl cobol_$con_wd_off fixed bin  ext;
  2    93 dcl con_wd_off fixed bin  defined (cobol_$con_wd_off);
  2    94 dcl cobol_$def_wd_off fixed bin  ext;
  2    95 dcl def_wd_off fixed bin  defined (cobol_$def_wd_off);
  2    96 dcl cobol_$def_max fixed bin  ext;
  2    97 dcl def_max fixed bin  defined (cobol_$def_max);
  2    98 dcl cobol_$link_wd_off fixed bin  ext;
  2    99 dcl link_wd_off fixed bin  defined (cobol_$link_wd_off);
  2   100 dcl cobol_$link_max fixed bin  ext;
  2   101 dcl link_max fixed bin  defined (cobol_$link_max);
  2   102 dcl cobol_$sym_wd_off fixed bin  ext;
  2   103 dcl sym_wd_off fixed bin  defined (cobol_$sym_wd_off);
  2   104 dcl cobol_$sym_max fixed bin  ext;
  2   105 dcl sym_max fixed bin  defined (cobol_$sym_max);
  2   106 dcl cobol_$reloc_text_max fixed bin(24)  ext;
  2   107 dcl reloc_text_max fixed bin(24)  defined (cobol_$reloc_text_max);
  2   108 dcl cobol_$reloc_def_max fixed bin(24)  ext;
  2   109 dcl reloc_def_max fixed bin(24)  defined (cobol_$reloc_def_max);
  2   110 dcl cobol_$reloc_link_max fixed bin(24)  ext;
  2   111 dcl reloc_link_max fixed bin(24)  defined (cobol_$reloc_link_max);
  2   112 dcl cobol_$reloc_sym_max fixed bin(24)  ext;
  2   113 dcl reloc_sym_max fixed bin(24)  defined (cobol_$reloc_sym_max);
  2   114 dcl cobol_$reloc_work_max fixed bin(24)  ext;
  2   115 dcl reloc_work_max fixed bin(24)  defined (cobol_$reloc_work_max);
  2   116 dcl cobol_$pd_map_index fixed bin  ext;
  2   117 dcl pd_map_index fixed bin  defined (cobol_$pd_map_index);
  2   118 dcl cobol_$cobol_data_wd_off fixed bin  ext;
  2   119 dcl cobol_data_wd_off fixed bin  defined (cobol_$cobol_data_wd_off);
  2   120 dcl cobol_$stack_off fixed bin  ext;
  2   121 dcl stack_off fixed bin  defined (cobol_$stack_off);
  2   122 dcl cobol_$max_stack_off fixed bin  ext;
  2   123 dcl max_stack_off fixed bin  defined (cobol_$max_stack_off);
  2   124 dcl cobol_$init_stack_off fixed bin  ext;
  2   125 dcl init_stack_off fixed bin  defined (cobol_$init_stack_off);
  2   126 dcl cobol_$pd_map_sw fixed bin  ext;
  2   127 dcl pd_map_sw fixed bin  defined (cobol_$pd_map_sw);
  2   128 dcl cobol_$next_tag fixed bin  ext;
  2   129 dcl next_tag fixed bin  defined (cobol_$next_tag);
  2   130 dcl cobol_$data_init_flag fixed bin  ext;
  2   131 dcl data_init_flag fixed bin  defined (cobol_$data_init_flag);
  2   132 dcl cobol_$seg_init_flag fixed bin  ext;
  2   133 dcl seg_init_flag fixed bin  defined (cobol_$seg_init_flag);
  2   134 dcl cobol_$alter_flag fixed bin  ext;
  2   135 dcl alter_flag fixed bin  defined (cobol_$alter_flag);
  2   136 dcl cobol_$sect_eop_flag fixed bin  ext;
  2   137 dcl sect_eop_flag fixed bin  defined (cobol_$sect_eop_flag);
  2   138 dcl cobol_$para_eop_flag fixed bin  ext;
  2   139 dcl para_eop_flag fixed bin  defined (cobol_$para_eop_flag);
  2   140 dcl cobol_$priority_no fixed bin  ext;
  2   141 dcl priority_no fixed bin  defined (cobol_$priority_no);
  2   142 dcl cobol_$compile_count fixed bin ext;
  2   143 dcl compile_count fixed bin defined (cobol_$compile_count);
  2   144 dcl cobol_$ptr_assumption_ind fixed bin ext;
  2   145 dcl ptr_assumption_ind fixed bin defined (cobol_$ptr_assumption_ind);
  2   146 dcl cobol_$reg_assumption_ind fixed bin ext;
  2   147 dcl reg_assumption_ind fixed bin defined (cobol_$reg_assumption_ind);
  2   148 dcl cobol_$perform_para_index fixed bin ext;
  2   149 dcl perform_para_index fixed bin defined (cobol_$perform_para_index);
  2   150 dcl cobol_$perform_sect_index fixed bin ext;
  2   151 dcl perform_sect_index fixed bin defined (cobol_$perform_sect_index);
  2   152 dcl cobol_$alter_index fixed bin ext;
  2   153 dcl alter_index fixed bin defined (cobol_$alter_index);
  2   154 dcl cobol_$list_off fixed bin ext;
  2   155 dcl list_off fixed bin defined (cobol_$list_off);
  2   156 dcl cobol_$constant_offset fixed bin ext;
  2   157 dcl constant_offset fixed bin defined (cobol_$constant_offset);
  2   158 dcl cobol_$misc_max fixed bin ext;
  2   159 dcl misc_max fixed bin defined (cobol_$misc_max);
  2   160 dcl cobol_$pd_map_max fixed bin ext;
  2   161 dcl pd_map_max fixed bin defined (cobol_$pd_map_max);
  2   162 dcl cobol_$map_data_max fixed bin ext;
  2   163 dcl map_data_max fixed bin defined (cobol_$map_data_max);
  2   164 dcl cobol_$fixup_max fixed bin ext;
  2   165 dcl fixup_max fixed bin defined (cobol_$fixup_max);
  2   166 dcl cobol_$tag_table_max fixed bin ext;
  2   167 dcl tag_table_max fixed bin defined (cobol_$tag_table_max);
  2   168 dcl cobol_$temp_token_max fixed bin ext;
  2   169 dcl temp_token_max fixed bin defined (cobol_$temp_token_max);
  2   170 dcl cobol_$allo1_max fixed bin ext;
  2   171 dcl allo1_max fixed bin defined (cobol_$allo1_max);
  2   172 dcl cobol_$eln_max fixed bin ext;
  2   173 dcl eln_max fixed bin defined (cobol_$eln_max);
  2   174 dcl cobol_$debug_enable fixed bin ext;
  2   175 dcl debug_enable fixed bin defined (cobol_$debug_enable);
  2   176 dcl cobol_$non_source_offset fixed bin ext;
  2   177 dcl non_source_offset fixed bin defined (cobol_$non_source_offset);
  2   178 dcl cobol_$initval_flag fixed bin ext;
  2   179 dcl initval_flag fixed bin defined (cobol_$initval_flag);
  2   180 dcl cobol_$date_compiled_sw fixed bin ext;
  2   181 dcl date_compiled_sw fixed bin defined (cobol_$date_compiled_sw);
  2   182 dcl cobol_$include_cnt fixed bin ext;
  2   183 dcl include_cnt fixed bin defined (cobol_$include_cnt);
  2   184 dcl cobol_$fs_charcnt fixed bin ext;
  2   185 dcl fs_charcnt fixed bin defined (cobol_$fs_charcnt);
  2   186 dcl cobol_$ws_charcnt fixed bin ext;
  2   187 dcl ws_charcnt fixed bin defined (cobol_$ws_charcnt);
  2   188 dcl cobol_$coms_charcnt fixed bin ext;
  2   189 dcl coms_charcnt fixed bin defined (cobol_$coms_charcnt);
  2   190 dcl cobol_$ls_charcnt fixed bin ext;
  2   191 dcl ls_charcnt fixed bin defined (cobol_$ls_charcnt);
  2   192 dcl cobol_$cons_charcnt fixed bin ext;
  2   193 dcl cons_charcnt fixed bin defined (cobol_$cons_charcnt);
  2   194 dcl cobol_$value_cnt fixed bin ext;
  2   195 dcl value_cnt fixed bin defined (cobol_$value_cnt);
  2   196 dcl cobol_$cd_cnt fixed bin ext;
  2   197 dcl cd_cnt fixed bin defined (cobol_$cd_cnt);
  2   198 dcl cobol_$fs_wdoff fixed bin ext;
  2   199 dcl fs_wdoff fixed bin defined (cobol_$fs_wdoff);
  2   200 dcl cobol_$ws_wdoff fixed bin ext;
  2   201 dcl ws_wdoff fixed bin defined (cobol_$ws_wdoff);
  2   202 dcl cobol_$coms_wdoff fixed bin ext;
  2   203 dcl coms_wdoff fixed bin defined (cobol_$coms_wdoff);
  2   204
  2   205 /* CHARACTER */
  2   206 dcl cobol_$scratch_dir char (168)   aligned ext;
  2   207 dcl scratch_dir char (168)   aligned defined (cobol_$scratch_dir);			/* -42- */
  2   208 dcl cobol_$obj_seg_name char (32)   aligned ext;
  2   209 dcl obj_seg_name char (32)   aligned defined (cobol_$obj_seg_name);		/* -8- */
  2   210
  2   211 /* BIT */
  2   212 dcl cobol_$xref_bypass bit(1) aligned ext;
  2   213 dcl xref_bypass bit(1) aligned defined (cobol_$xref_bypass);			/* -1- */
  2   214 dcl cobol_$same_sort_merge_proc bit(1) aligned ext;
  2   215 dcl same_sort_merge_proc bit(1) aligned defined (cobol_$same_sort_merge_proc);		/* -1- */
  2   216
  2   217
  2   218 /* END INCLUDE FILE ... cobol_incl.pl1*/
  2   219
  2   220
  1    23
  3     1
  3     2 /* BEGIN INCLUDE FILE ... cobol_type9.incl.pl1 */
  3     3 /* Last modified on 11/19/76 by ORN */
  3     4
  3     5 /*
  3     6*A type 9 data name token is entered into the name table by the data
  3     7*division syntax phase for each data name described in the data division.
  3     8*The replacement phase subsequently replaces type 8 user word references
  3     9*to data names in the procedure division minpral file with the corresponding
  3    10*type 9 tokens from the name table.
  3    11**/
  3    12
  3    13 /* dcl dn_ptr ptr; */
  3    14
  3    15 /* BEGIN DECLARATION OF TYPE9 (DATA NAME) TOKEN */
  3    16 dcl 1 data_name based (dn_ptr),
  4     1
  4     2 /* begin include file ... cobol_TYPE9.incl.pl1 */
  4     3 /* Last modified on 06/19/77 by ORN */
  4     4 /* Last modified on 12/28/76 by FCH */
  4     5
  4     6 		/* header */
  4     7 		2 size fixed bin,
  4     8 		2 line fixed bin,
  4     9 		2 column fixed bin,
  4    10 		2 type fixed bin,
  4    11 		/* body */
  4    12 		2 string_ptr ptr,
  4    13 		2 prev_rec ptr,
  4    14 		2 searched bit (1),
  4    15 		2 duplicate bit (1),
  4    16 		2 saved bit (1),
  4    17 		2 debug_ind bit (1),
  4    18 		2 filler2 bit (3),
  4    19 		2 used_as_sub bit (1),
  4    20 		2 def_line fixed bin,
  4    21 		2 level fixed bin,
  4    22 		2 linkage fixed bin,
  4    23 		2 file_num fixed bin,
  4    24 		2 size_rtn fixed bin,
  4    25 		2 item_length fixed bin(24),
  4    26 		2 places_left fixed bin,
  4    27 		2 places_right fixed bin,
  4    28 		/* description */
  4    29 		2 file_section bit (1),
  4    30 		2 working_storage bit (1),
  4    31 		2 constant_section bit (1),
  4    32 		2 linkage_section bit (1),
  4    33 		2 communication_section bit (1),
  4    34 		2 report_section bit (1),
  4    35 		2 level_77 bit (1),
  4    36 		2 level_01 bit (1),
  4    37 		2 non_elementary bit (1),
  4    38 		2 elementary bit (1),
  4    39 		2 filler_item bit (1),
  4    40 		2 s_of_rdf bit (1),
  4    41 		2 o_of_rdf bit (1),
  4    42 		2 bin_18 bit (1),
  4    43 		2 bin_36 bit (1),
  4    44 		2 pic_has_l bit (1),
  4    45 		2 pic_is_do bit (1),
  4    46 		2 numeric bit (1),
  4    47 		2 numeric_edited bit (1),
  4    48 		2 alphanum bit (1),
  4    49 		2 alphanum_edited bit (1),
  4    50 		2 alphabetic bit (1),
  4    51 		2 alphabetic_edited bit (1),
  4    52 		2 pic_has_p bit (1),
  4    53 		2 pic_has_ast bit (1),
  4    54 		2 item_signed bit(1),
  4    55 		2 sign_separate bit (1),
  4    56 		2 display bit (1),
  4    57 		2 comp bit (1),
  4    58 		2 ascii_packed_dec_h bit (1),	/* as of 8/16/76  this field used for comp8. */
  4    59 		2 ascii_packed_dec bit (1),
  4    60 		2 ebcdic_packed_dec bit (1),
  4    61 		2 bin_16 bit (1),
  4    62 		2 bin_32 bit (1),
  4    63 		2 usage_index bit (1),
  4    64 		2 just_right bit (1),
  4    65 		2 compare_argument bit (1),
  4    66 		2 sync bit (1),
  4    67 		2 temporary bit (1),
  4    68 		2 bwz bit (1),
  4    69 		2 variable_length bit (1),
  4    70 		2 subscripted bit (1),
  4    71 		2 occurs_do bit (1),
  4    72 		2 key_a bit (1),
  4    73 		2 key_d bit (1),
  4    74 		2 indexed_by bit (1),
  4    75 		2 value_numeric bit (1),
  4    76 		2 value_non_numeric bit (1),
  4    77 		2 value_signed bit (1),
  4    78 		2 sign_type bit (3),
  4    79 		2 pic_integer bit (1),
  4    80 		2 ast_when_zero bit (1),
  4    81 		2 label_record bit (1),
  4    82 		2 sign_clause_occurred bit (1),
  4    83 		2 okey_dn bit (1),
  4    84 		2 subject_of_keyis bit (1),
  4    85 		2 exp_redefining bit (1),
  4    86 		2 sync_in_rec bit (1),
  4    87 		2 rounded bit (1),
  4    88 		2 ad_bit bit (1),
  4    89 		2 debug_all bit (1),
  4    90 		2 overlap bit (1),
  4    91 		2 sum_counter bit (1),
  4    92 		2 exp_occurs bit (1),
  4    93 		2 linage_counter bit (1),
  4    94 		2 rnm_01 bit (1),
  4    95 		2 aligned bit (1),
  4    96 		2 not_user_writable bit (1),
  4    97 		2 database_key bit (1),
  4    98 		2 database_data_item bit (1),
  4    99 		2 seg_num fixed bin,
  4   100 		2 offset fixed bin(24),
  4   101 		2 initial_ptr fixed bin,
  4   102 		2 edit_ptr fixed bin,
  4   103 		2 occurs_ptr fixed bin,
  4   104 		2 do_rec char(5),
  4   105 		2 bitt bit (1),
  4   106 		2 byte bit (1),
  4   107 		2 half_word bit (1),
  4   108 		2 word bit (1),
  4   109 		2 double_word bit (1),
  4   110 		2 half_byte bit (1),
  4   111 		2 filler5 bit (1),
  4   112 		2 bit_offset bit (4),
  4   113 		2 son_cnt bit (16),
  4   114 		2 max_red_size fixed bin(24),
  4   115 		2 name_size fixed bin,
  4   116 		2 name char(0 refer(data_name.name_size));
  4   117
  4   118
  4   119
  4   120 /* end include file ... cobol_TYPE9.incl.pl1 */
  4   121
  3    17
  3    18 /* END DECLARATION OF TYPE9 (DATA NAME) TOKEN */
  3    19
  3    20 /* END INCLUDE FILE ... cobol_type9.incl.pl1 */
  3    21
  1    24
  5     1
  5     2 /* BEGIN INCLUDE FILE ... cobol_occurs_ext.incl.pl1 */
  5     3 /* Last modified on 01/19/77 by ORN */
  5     4
  5     5 /*
  5     6*An occurs extension is included in a type 9 data name token when the data
  5     7*name is described with an occurs clause or is subordinate to an item
  5     8*described with an occurs clause.
  5     9**/
  5    10
  5    11 /*	***STRUCTURE SIZE INFORMATION***	*/
  5    12 /*     THE SIZE OF THIS STRUCTURE IN BYTES, (EXCLUDING VARIABLE
  5    13*       LENGTH ENTITIES), FOR EACH HARDWARE IMPLEMENTATION IS:
  5    14*
  5    15*	HARDWARE	|	SIZE (BYTES)
  5    16*	---------------------------------
  5    17*	6180	|	12 + 24 * dimensions
  5    18*	P7	|	6 + 14 * dimensions
  5    19*	---------------------------------
  5    20**/
  5    21
  5    22 /*   THE OCCURS EXTENSION STRUCTURE   */
  5    23
  5    24 dcl occurs_ptr ptr;
  5    25
  5    26 dcl	1 occurs based (occurs_ptr),
  5    27 		2 keyed fixed bin,
  5    28 		2 key_number fixed bin,
  5    29 		2 dimensions fixed bin,
  5    30 		2 level (occurs.dimensions),
  5    31 			3 index_no fixed bin,
  5    32 			3 min fixed bin,
  5    33 			3 max fixed bin,
  5    34 			3 struc_length fixed bin,
  5    35 			3 cswd_seg fixed bin,
  5    36 			3 cswd_offset fixed bin(24);
  5    37
  5    38
  5    39
  5    40 /* END INCLUDE FILE ...   cobol_occurs_ext.incl.pl1 */
  5    41
  1    25
  6     1
  6     2 /* BEGIN INCLUDE FILE ... cobol_ext_.incl.pl1 */
  6     3 /* Last modified on 06/17/76 by ORN */
  6     4 /* Last modified on 12/28/76 by FCH */
  6     5 /* Last modified on 12/01/80 by FCH */
  6     6
  6     7 /*    <<<   SHARED EXTERNALS INCLUDE FILE   >>>    */
  6     8
  6     9
  6    10 dcl     cobol_ext_$cobol_afp ptr ext;
  6    11 dcl     cobol_afp ptr defined (  cobol_ext_$cobol_afp);
  6    12 dcl     cobol_ext_$cobol_analin_fileno ptr ext;
  6    13 dcl     cobol_analin_fileno ptr defined (  cobol_ext_$cobol_analin_fileno);
  6    14 dcl     cobol_ext_$report_first_token ptr ext;
  6    15 dcl     report_first_token ptr defined( cobol_ext_$report_first_token);
  6    16 dcl     cobol_ext_$report_last_token ptr ext;
  6    17 dcl     report_last_token ptr defined ( cobol_ext_$report_last_token);
  6    18 dcl     cobol_ext_$cobol_eltp ptr ext;
  6    19 dcl     cobol_eltp ptr defined (  cobol_ext_$cobol_eltp);
  6    20 dcl     cobol_ext_$cobol_cmfp ptr ext;
  6    21 dcl     cobol_cmfp ptr defined (  cobol_ext_$cobol_cmfp);
  6    22 dcl     cobol_ext_$cobol_com_fileno ptr ext;
  6    23 dcl     cobol_com_fileno ptr defined (  cobol_ext_$cobol_com_fileno);
  6    24 dcl     cobol_ext_$cobol_com_ptr ptr ext;
  6    25 dcl     cobol_com_ptr ptr defined (  cobol_ext_$cobol_com_ptr);
  6    26 dcl     cobol_ext_$cobol_dfp ptr ext;
  6    27 dcl     cobol_dfp ptr defined (  cobol_ext_$cobol_dfp);
  6    28 dcl     cobol_ext_$cobol_hfp ptr ext;
  6    29 dcl     cobol_hfp ptr defined (  cobol_ext_$cobol_hfp);
  6    30 dcl     cobol_ext_$cobol_m1fp ptr ext;
  6    31 dcl     cobol_m1fp ptr defined (  cobol_ext_$cobol_m1fp);
  6    32 dcl     cobol_ext_$cobol_m2fp ptr ext;
  6    33 dcl     cobol_m2fp ptr defined (  cobol_ext_$cobol_m2fp);
  6    34 dcl     cobol_ext_$cobol_min1_fileno ptr ext;
  6    35 dcl     cobol_min1_fileno ptr defined (  cobol_ext_$cobol_min1_fileno);
  6    36 dcl     cobol_ext_$cobol_min2_fileno_ptr ptr ext;
  6    37 dcl     cobol_min2_fileno_ptr ptr defined (  cobol_ext_$cobol_min2_fileno_ptr);
  6    38 dcl     cobol_ext_$cobol_name_fileno ptr ext;
  6    39 dcl     cobol_name_fileno ptr defined (  cobol_ext_$cobol_name_fileno);
  6    40 dcl     cobol_ext_$cobol_name_fileno_ptr ptr ext;
  6    41 dcl     cobol_name_fileno_ptr ptr defined (  cobol_ext_$cobol_name_fileno_ptr);
  6    42 dcl     cobol_ext_$cobol_ntfp ptr ext;
  6    43 dcl     cobol_ntfp ptr defined (  cobol_ext_$cobol_ntfp);
  6    44 dcl     cobol_ext_$cobol_pdofp ptr ext;
  6    45 dcl     cobol_pdofp ptr defined (  cobol_ext_$cobol_pdofp);
  6    46 dcl     cobol_ext_$cobol_pfp ptr ext;
  6    47 dcl     cobol_pfp ptr defined (  cobol_ext_$cobol_pfp);
  6    48 dcl     cobol_ext_$cobol_rm2fp ptr ext;
  6    49 dcl     cobol_rm2fp ptr defined (  cobol_ext_$cobol_rm2fp);
  6    50 dcl     cobol_ext_$cobol_rmin2fp ptr ext;
  6    51 dcl     cobol_rmin2fp ptr defined (  cobol_ext_$cobol_rmin2fp);
  6    52 dcl     cobol_ext_$cobol_curr_in ptr ext;
  6    53 dcl     cobol_curr_in ptr defined (  cobol_ext_$cobol_curr_in);
  6    54 dcl     cobol_ext_$cobol_curr_out ptr ext;
  6    55 dcl     cobol_curr_out ptr defined (  cobol_ext_$cobol_curr_out);
  6    56 dcl     cobol_ext_$cobol_sfp ptr ext;
  6    57 dcl     cobol_sfp ptr defined (  cobol_ext_$cobol_sfp);
  6    58 dcl     cobol_ext_$cobol_w1p ptr ext;
  6    59 dcl     cobol_w1p ptr defined (  cobol_ext_$cobol_w1p);
  6    60 dcl     cobol_ext_$cobol_w2p ptr ext;
  6    61 dcl     cobol_w2p ptr defined (  cobol_ext_$cobol_w2p);
  6    62 dcl     cobol_ext_$cobol_w3p ptr ext;
  6    63 dcl     cobol_w3p ptr defined (  cobol_ext_$cobol_w3p);
  6    64 dcl     cobol_ext_$cobol_w5p ptr ext;
  6    65 dcl     cobol_w5p ptr defined (  cobol_ext_$cobol_w5p);
  6    66 dcl     cobol_ext_$cobol_w6p ptr ext;
  6    67 dcl     cobol_w6p ptr defined (  cobol_ext_$cobol_w6p);
  6    68 dcl     cobol_ext_$cobol_w7p ptr ext;
  6    69 dcl     cobol_w7p ptr defined (  cobol_ext_$cobol_w7p);
  6    70 dcl     cobol_ext_$cobol_x3fp ptr ext;
  6    71 dcl     cobol_x3fp ptr defined (  cobol_ext_$cobol_x3fp);
  6    72 dcl	cobol_ext_$cobol_rwdd ptr ext;
  6    73 dcl	cobol_rwdd ptr defined(cobol_ext_$cobol_rwdd);
  6    74 dcl	cobol_ext_$cobol_rwpd ptr ext;
  6    75 dcl	cobol_rwpd ptr defined(cobol_ext_$cobol_rwpd);
  6    76
  6    77
  6    78 dcl     cobol_ext_$cobol_fileno1 fixed bin(24)ext;
  6    79 dcl     cobol_fileno1 fixed bin(24)defined (  cobol_ext_$cobol_fileno1);
  6    80 dcl     cobol_ext_$cobol_options_len fixed bin(24)ext;
  6    81 dcl     cobol_options_len fixed bin(24)defined (  cobol_ext_$cobol_options_len);
  6    82 dcl     cobol_ext_$cobol_pdout_fileno fixed bin(24)ext;
  6    83 dcl     cobol_pdout_fileno fixed bin(24)defined (  cobol_ext_$cobol_pdout_fileno);
  6    84 dcl     cobol_ext_$cobol_print_fileno fixed bin(24)ext;
  6    85 dcl     cobol_print_fileno fixed bin(24)defined (  cobol_ext_$cobol_print_fileno);
  6    86 dcl     cobol_ext_$cobol_rmin2_fileno fixed bin(24)ext;
  6    87 dcl     cobol_rmin2_fileno fixed bin(24)defined (  cobol_ext_$cobol_rmin2_fileno);
  6    88 dcl     cobol_ext_$cobol_x1_fileno fixed bin(24)ext;
  6    89 dcl     cobol_x1_fileno fixed bin(24)defined (  cobol_ext_$cobol_x1_fileno);
  6    90 dcl     cobol_ext_$cobol_x2_fileno fixed bin(24)ext;
  6    91 dcl     cobol_x2_fileno fixed bin(24)defined (  cobol_ext_$cobol_x2_fileno);
  6    92 dcl     cobol_ext_$cobol_x3_fileno fixed bin(24)ext;
  6    93 dcl     cobol_x3_fileno fixed bin(24)defined (  cobol_ext_$cobol_x3_fileno);
  6    94
  6    95 dcl     cobol_ext_$cobol_lpr char (5) ext;
  6    96 dcl     cobol_lpr char (5) defined (  cobol_ext_$cobol_lpr);				/* -2- */
  6    97 dcl     cobol_ext_$cobol_options char (120) ext;
  6    98 dcl     cobol_options char (120) defined (  cobol_ext_$cobol_options);          			/* -30- */
  6    99
  6   100 dcl     cobol_ext_$cobol_xlast8 bit (1) ext;
  6   101 dcl     cobol_xlast8 bit (1) defined (  cobol_ext_$cobol_xlast8);				/* -1- */
  6   102 dcl     cobol_ext_$report_exists bit (1) ext;
  6   103 dcl     report_exists bit (1) defined (  cobol_ext_$report_exists);
  6   104
  6   105
  6   106 /*    <<<   END OF SHARED EXTERNALS INCLUDE FILE   >>>    */
  6   107 /* END INCLUDE FILE ... cobol_ext_.incl.pl1 */
  6   108
  1    26
  7     1
  7     2 /* BEGIN INCLUDE FILE ...   cobol_fixed_common.incl.pl1 */
  7     3 /* Modified on 10/27/82 by FCH, [5.1-1], cobol_cln added to save last line num, BUG543(phx13643) */
  7     4 /* Modified on 07/31/80 by FCH, [4.3-1], use_reporting field added for Report Writer */
  7     5 /* Modified on 03/30/79 by FCH, [4.1-1], -card option added */
  7     6 /* Modified on 03/30/79 by FCH, [4.0-2], -svNM option added */
  7     7 /* Modified on 03/02/79 by FCH, [4.0-1], -levNM option added */
  7     8 /* Modified by RAL on 10/13/78, [4.0-0], Added option exp from fil2. */
  7     9 /* Modified by BC on 06/20/77, descriptor added.	*/
  7    10 /* Modified by BC on 06/02/77, init_cd_seg, init_cd_offset added.	*/
  7    11 /* Modified by BC  on 1/21/77, options.profile added.	*/
  7    12 /* Modified by FCH on 7/6/76, sysin_fno & sysout_fno deleted, accept_device & display_device added */
  7    13 /* Modified by FCH on 5/20/77, comp_level added */
  7    14
  7    15
  7    16 /*     THE SIZE OF THIS STRUCTURE IN BYTES, (EXCLUDING VARIABLE
  7    17*   LENGTH ENTITIES), FOR EACH HARDWARE IMPLEMENTATION IS:
  7    18*
  7    19*   HARDWARE	|	SIZE (BYTES)
  7    20*   ---------------------------------
  7    21*   645/6180	|	464
  7    22*   P7		|	396
  7    23*   ---------------------------------
  7    24*   */
  7    25
  7    26 dcl 	1 fixed_common based (  cobol_com_ptr),
  7    27     		2 prog_name char (30),
  7    28    		2 compiler_rev_no char (25),
  7    29     		2 phase_name char (6),
  7    30     		2 currency char (1),
  7    31     		2 fatal_no fixed bin,
  7    32     		2 warn_no fixed bin,
  7    33     		2 proc_counter fixed bin,
  7    34     		2 spec_tag_counter fixed bin,
  7    35     		2 file_count fixed bin,
  7    36     		2 filedescr_offsets (20) char (5),
  7    37     		2 perf_alter_info char (5),
  7    38     		2 another_perform_info char (5),
  7    39     		2 sort_in_info char (5),
  7    40     		2 odo_info char (5),
  7    41     		2 size_seg fixed bin,
  7    42     		2 size_offset fixed bin(24),
  7    43     		2 size_perform_info char (5),
  7    44     		2 rename_info char (5),
  7    45     		2 report_names char (5),
  7    46     		2 rw_buf_seg fixed bin,
  7    47     		2 rw_buf_offset fixed bin(24),
  7    48     		2 rw_buf_length fixed bin(24),
  7    49     		2 file_keys char (5),
  7    50     		2 search_keys char (5),
  7    51     		2 dd_seg_size fixed bin(24),
  7    52     		2 pd_seg_size fixed bin(24),
  7    53     		2 seg_limit fixed bin ,
  7    54     		2 number_of_dd_segs fixed bin,
  7    55     		2 seg_info char (5),
  7    56     		2 number_of_ls_pointers fixed bin,
  7    57     		2 link_sec_seg fixed bin,
  7    58     		2 link_sec_offset fixed bin(24),
  7    59     		2 sra_clauses fixed bin,
  7    60     		2 fix_up_info char (5),
  7    61     		2 linage_info char (5),
  7    62     		2 first_dd_item char (5),
  7    63     		2 sort_out_info char (5),
  7    64     		2 db_info char (5),
  7    65     		2 realm_info char (5),
  7    66     		2 rc_realm_info char (5),
  7    67     		2 last_file_key char (5),
  7    68     		2 prog_coll_seq fixed bin,
  7    69 		2 init_cd_seg fixed bin,
  7    70 		2 init_cd_offset fixed bin(24),
  7    71     		2 input_error_exit fixed bin,
  7    72    		2 output_error_exit fixed bin,
  7    73     		2 i_o_error_exit fixed bin,
  7    74     		2 extend_error_exit fixed bin,
  7    75     		2 dummy15 fixed bin,
  7    76     		2 options,
  7    77       			3 cu bit (1),
  7    78       			3 st bit (1),
  7    79       			3 wn bit (1),
  7    80       			3 obs bit (1),
  7    81       			3 dm bit (1),
  7    82       			3 xrl bit (1),
  7    83       			3 xrn bit (1),
  7    84       			3 src bit (1),
  7    85       			3 obj bit (1),
  7    86       			3 exs bit (1),
  7    87       			3 sck bit (1),
  7    88       			3 rno bit (1),
  7    89 			3 u_l bit (1),
  7    90 			3 cnv bit (1),
  7    91 			3 cos bit (1),
  7    92 			3 fmt bit (1),
  7    93 			3 profile bit(1),
  7    94 			3 nw bit (1),
  7    95 			3 exp bit (1),		/* [4.0-0] */
  7    96 			3 card bit (1),  /*[4.1-1]*/
  7    97 			3 fil2 bit (5),
  7    98 			3 m_map bit (1),
  7    99 			3 m_bf bit (1),
  7   100 			3 m_fat bit (1),
  7   101 			3 m_wn bit (1),
  7   102 			3 m_obs bit(1),
  7   103 			3 pd bit(1),
  7   104       			3 oc bit(1),
  7   105     		2 supervisor bit (1),
  7   106     		2 dec_comma bit (1),
  7   107     		2 init_cd bit (1),
  7   108     		2 corr bit (1),
  7   109     		2 initl bit (1),
  7   110     		2 debug bit (1),
  7   111     		2 report bit (1),
  7   112     		2 sync_in_prog bit (1),
  7   113     		2 pd_section bit (1),
  7   114     		2 list_switch bit (1),
  7   115     		2 alpha_cond bit (1),
  7   116     		2 num_cond bit (1),
  7   117     		2 spec_sysin bit (1),
  7   118     		2 spec_sysout bit (1),
  7   119     		2 cpl_files bit (1),
  7   120     		2 obj_dec_comma bit (1),
  7   121 		2 default_sign_type bit (3),
  7   122 		2 use_debug bit(1),
  7   123 		2 syntax_trace bit(1),
  7   124 		2 comp_defaults,
  7   125 			3 comp	bit(1),
  7   126 			3 comp_1	bit(1),
  7   127 			3 comp_2	bit(1),
  7   128 			3 comp_3	bit(1),
  7   129 			3 comp_4	bit(1),
  7   130 			3 comp_5	bit(1),
  7   131 			3 comp_6	bit(1),
  7   132 			3 comp_7	bit(1),
  7   133 			3 comp_8 bit(1),
  7   134 		2 disp_defaults,
  7   135 			3 disp	bit(1),
  7   136 			3 disp_1	bit(1),
  7   137 			3 disp_2	bit(1),
  7   138 			3 disp_3	bit(1),
  7   139 			3 disp_4	bit(1),
  7   140 			3 disp_5  bit(1),
  7   141 			3 disp_6  bit(1),
  7   142 			3 disp_7  bit(1),
  7   143 		2 descriptor bit(2),
  7   144 		2 levsv  bit(3),		/*[4.0-1]*/
  7   145 		2 use_reporting bit(1),	/*[4.3-1]*/
  7   146 		2 cd bit(1),		/*[4.4-1]*/
  7   147 		2 dummy17 bit(3),
  7   148    		2 lvl_rstr bit(32),
  7   149    		2 inst_rstr bit(32),
  7   150 		2 comp_level char(1),
  7   151 		2 dummy18 char(30),
  7   152 		2 object_sign char (1),
  7   153     		2 last_print_rec char (5),
  7   154     		2 coll_seq_info char (5),
  7   155     		2 sys_status_seg fixed bin,
  7   156    		2 sys_status_offset fixed bin(24),
  7   157    		2 compiler_id fixed bin,
  7   158    		2 date_comp_ln fixed bin,
  7   159    		2 compile_mode bit(36),
  7   160    		2 default_temp fixed bin,
  7   161    		2 accept_device fixed bin,
  7   162    		2 display_device fixed bin,
  7   163    		2 cobol_cln fixed bin,	/*[5.1-1]*/
  7   164 		2 alphabet_offset fixed bin;
  7   165
  7   166
  7   167
  7   168 /* END INCLUDE FILE ...   cobol_fixed_common.incl.pl1 */
  7   169
  1    27
      370
      371
      372      end;
	SOURCE FILES USED IN THIS COMPILATION.

LINE      NUMBER  DATE MODIFIED     NAME			PATHNAME
             0    04/18/00  1133.8  cobol_arg_descriptor.pl1          >udd>sm>ds>w>ml>cobol_arg_descriptor.pl1
370          1    03/27/82  0539.4  cobol_arg_descr_data.incl.pl1     >ldd>incl>cobol_arg_descr_data.incl.pl1
1-23         2    11/11/82  1812.7  cobol_.incl.pl1                   >ldd>incl>cobol_.incl.pl1
1-24         3    03/27/82  0539.9  cobol_type9.incl.pl1              >ldd>incl>cobol_type9.incl.pl1
3-17         4    11/11/82  1812.7  cobol_TYPE9.incl.pl1              >ldd>incl>cobol_TYPE9.incl.pl1
1-25         5    11/11/82  1812.7  cobol_occurs_ext.incl.pl1         >ldd>incl>cobol_occurs_ext.incl.pl1
1-26         6    03/27/82  0531.3  cobol_ext_.incl.pl1               >ldd>incl>cobol_ext_.incl.pl1
1-27         7    11/11/82  1812.8  cobol_fixed_common.incl.pl1       >ldd>incl>cobol_fixed_common.incl.pl1
	NAMES DECLARED IN THIS COMPILATION.

IDENTIFIER	     OFFSET    LOC STORAGE CLASS   DATA TYPE		ATTRIBUTES AND REFERENCES
								(* indicates a set context)

NAMES DECLARED BY DECLARE STATEMENT.
addr                                                   builtin function         dcl 1-17 ref 78 78 133 133 254 254 276 276 318 318
addrel                                                 builtin function         dcl 1-17 ref 59 85 281 290 296 352
ascii_packed_dec         21(30)        based           bit(1)                   level 2 packed packed unaligned dcl 3-16 ref 201
ascii_packed_dec_h       21(29)        based           bit(1)                   level 2 packed packed unaligned dcl 3-16 ref 209 225
bin_18                   21(13)        based           bit(1)                   level 2 packed packed unaligned dcl 3-16 ref 146
bin_36                   21(14)        based           bit(1)                   level 2 packed packed unaligned dcl 3-16 ref 154
cobol_$con_end_ptr              000044 external static pointer                  dcl 2-10 ref 59
cobol_$con_wd_off               000050 external static fixed bin(17,0)          dcl 2-92 set ref 65 70 73* 73
cobol_$text_wd_off              000046 external static fixed bin(17,0)          dcl 2-90 ref 70 98 136
cobol_com_ptr                          defined         pointer                  dcl 6-25 ref 119
cobol_ext_$cobol_com_ptr        000052 external static pointer                  dcl 6-24 ref 119 119
cobol_ext_$cobol_ntfp           000054 external static pointer                  dcl 6-42 ref 272 272
cobol_ntfp                             defined         pointer                  dcl 6-43 ref 272
cobol_pool                      000042 constant        entry                    external dcl 1-9 ref 133
con                                    based           bit(36)                  array dcl 46 set ref 72* 82
con_bit                         000117 automatic       bit(1)                   packed unaligned dcl 48 set ref 61* 63 87*
con_err                         000010 internal static structure                level 1 unaligned dcl 1-3 set ref 78 78
cont_flag                       000115 automatic       bit(1)                   packed unaligned dcl 48 set ref 273* 279
data_based                             based           structure                level 1 unaligned dcl 37
data_name                              based           structure                level 1 unaligned dcl 3-16
desc                                   based           bit(36)                  packed unaligned dcl 349 ref 362
desc_char                              based           char(32000)              packed unaligned dcl 48 ref 133 133
desc_cnt                        000110 automatic       fixed bin(17,0)          dcl 48 set ref 116* 122* 131 133 133 250* 250 251
                                                                                  254 254 264* 311* 311 315 318 318 353 357* 357 358
                                                                                  359 362 364
desc_loc                               parameter       pointer                  dcl 348 ref 344 362
desc_wd                         000120 automatic       bit(36)                  array packed unaligned dcl 48 set ref 124* 126* 128*
                                                                                  131* 133 133 251* 254 254 268* 270* 276 276 315*
                                                                                  318 318 353* 358* 359* 362* 364*
descriptor              134(34)        based           bit(2)                   level 2 packed packed unaligned dcl 7-26 ref 119
dimensions                2            based           fixed bin(17,0)          level 2 dcl 5-26 ref 353 355
display                  21(27)        based           bit(1)                   level 2 packed packed unaligned dcl 3-16 ref 165
dn_ptr                          000106 automatic       pointer                  dcl 47 set ref 112* 114 124 124 128 146 146 154 163
                                                                                  165 165 168 172 175 179 186 193 201 204 209 209
                                                                                  225 225 237 237 244 254 262 268 270 272* 272 276
                                                                                  281* 281 281 283 286 288 290* 290 290 294 294 296*
                                                                                  296 296 299 299 304 306 310 315 318 326 328 328
                                                                                  335 352 352
elementary               21(09)        based           bit(1)                   level 2 packed packed unaligned dcl 3-16 ref 114
exp_redefining           22(22)        based           bit(1)                   level 2 packed packed unaligned dcl 3-16 ref 286
fixed                                                  builtin function         dcl 1-17 ref 362 364
fixed_common                           based           structure                level 1 unaligned dcl 7-26
found                           000116 automatic       bit(1)                   packed unaligned dcl 48 set ref 289* 292 294*
i                               000113 automatic       fixed bin(17,0)          dcl 48 set ref 355* 359 362 364*
in_word                                parameter       bit(36)                  packed unaligned dcl 33 ref 30 58
item_length              16            based           fixed bin(24,0)          level 2 dcl 3-16 ref 128 163
item_signed              21(25)        based           bit(1)                   level 2 packed packed unaligned dcl 3-16 ref 204
level                    12            based           fixed bin(17,0)          level 2 in structure "data_name" dcl 3-16
                                                                                  in procedure "cobol_arg_descriptor" ref 124 124
                                                                                  262 288 294 294 299 299 306 310 326 328 328 335
level                     3            based           structure                array level 2 in structure "occurs" unaligned
                                                                                  dcl 5-26 in procedure "cobol_arg_descriptor"
main_level                      000111 automatic       fixed bin(17,0)          dcl 48 set ref 262* 263 268 268 299 306 328
max                       5            based           fixed bin(17,0)          array level 3 dcl 5-26 ref 359
my_count                        000104 automatic       fixed bin(24,0)          dcl 44 set ref 60* 65 84* 84 98
my_ptr                          000100 automatic       pointer                  dcl 41 set ref 59* 72 82 85* 85
my_word                         000105 automatic       bit(36)                  packed unaligned dcl 45 set ref 58* 72 82 146* 151*
                                                                                  154* 168* 175* 179* 190* 195* 209* 216* 222* 225*
                                                                                  232* 235* 240* 244* 251
non_elementary           21(08)        based           bit(1)                   level 2 packed packed unaligned dcl 3-16 ref 304
null                                                   builtin function         dcl 1-17 ref 78 78
numeric                  21(17)        based           bit(1)                   level 2 packed packed unaligned dcl 3-16 ref 165
occurs                                 based           structure                level 1 unaligned dcl 5-26
occurs_ptr                      017622 automatic       pointer                  dcl 5-24 in procedure "cobol_arg_descriptor" set ref
                                                                                  352* 353 355 359 362 364
occurs_ptr               27            based           fixed bin(17,0)          level 2 in structure "data_name" dcl 3-16
                                                                                  in procedure "cobol_arg_descriptor" ref 352
offset                    6            based           fixed bin(17,0)          level 2 dcl 37 ref 272
out_conoff                             parameter       fixed bin(17,0)          dcl 35 set ref 30 105 133* 135* 135 136
out_word                               parameter       bit(36)                  packed unaligned dcl 34 set ref 30 99* 105 137*
places_left              17            based           fixed bin(17,0)          level 2 dcl 3-16 ref 237
places_right             20            based           fixed bin(17,0)          level 2 dcl 3-16 ref 237 244
prec_len                        000103 automatic       fixed bin(17,0)          dcl 43 set ref 163* 191* 191 196* 196 237* 244
prev_level                      000112 automatic       fixed bin(17,0)          dcl 48 set ref 263* 310* 328
redef_level                     000114 automatic       fixed bin(17,0)          dcl 48 set ref 288* 294
sign_separate            21(26)        based           bit(1)                   level 2 packed packed unaligned dcl 3-16 ref 172
sign_type                22(13)        based           bit(3)                   level 2 packed packed unaligned dcl 3-16 ref 168 175
                                                                                  179 186 193
signal_                         000040 constant        entry                    external dcl 1-8 ref 78
size                                   based           fixed bin(17,0)          level 2 dcl 3-16 ref 281 283 290 296
son_cnt                  31(20)        based           bit(16)                  level 2 packed packed unaligned dcl 3-16 ref 268 270
                                                                                  315
struc_length              6            based           fixed bin(17,0)          array level 3 dcl 5-26 ref 362 364
subscripted              22(05)        based           bit(1)                   level 2 packed packed unaligned dcl 3-16 ref 254 276
                                                                                  318
substr                                                 builtin function         dcl 1-17 set ref 99* 99 128* 128 131 133 133 137*
                                                                                  137 244* 244 244 352 353* 353 362
sync                     22(01)        based           bit(1)                   level 2 packed packed unaligned dcl 3-16 ref 146 209
                                                                                  225
token_ptr                              parameter       pointer                  dcl 108 ref 105 112
unspec                                                 builtin function         dcl 1-17 ref 99 128 131 137 244 244 352 353 359
utemp                           000102 automatic       fixed bin(17,0)          dcl 42 set ref 98* 99 136* 137

NAMES DECLARED BY DECLARE STATEMENT AND NEVER REFERENCED.
allo1_max                              defined         fixed bin(17,0)          dcl 2-171
allo1_ptr                              defined         pointer                  dcl 2-67
alter_flag                             defined         fixed bin(17,0)          dcl 2-135
alter_index                            defined         fixed bin(17,0)          dcl 2-153
alter_list_ptr                         defined         pointer                  dcl 2-39
binary                                                 builtin function         dcl 1-17
cd_cnt                                 defined         fixed bin(17,0)          dcl 2-197
cobol_$allo1_max                       external static fixed bin(17,0)          dcl 2-170
cobol_$allo1_ptr                       external static pointer                  dcl 2-66
cobol_$alter_flag                      external static fixed bin(17,0)          dcl 2-134
cobol_$alter_index                     external static fixed bin(17,0)          dcl 2-152
cobol_$alter_list_ptr                  external static pointer                  dcl 2-38
cobol_$cd_cnt                          external static fixed bin(17,0)          dcl 2-196
cobol_$cobol_data_wd_off               external static fixed bin(17,0)          dcl 2-118
cobol_$compile_count                   external static fixed bin(17,0)          dcl 2-142
cobol_$coms_charcnt                    external static fixed bin(17,0)          dcl 2-188
cobol_$coms_wdoff                      external static fixed bin(17,0)          dcl 2-202
cobol_$cons_charcnt                    external static fixed bin(17,0)          dcl 2-192
cobol_$constant_offset                 external static fixed bin(17,0)          dcl 2-156
cobol_$data_init_flag                  external static fixed bin(17,0)          dcl 2-130
cobol_$date_compiled_sw                external static fixed bin(17,0)          dcl 2-180
cobol_$debug_enable                    external static fixed bin(17,0)          dcl 2-174
cobol_$def_base_ptr                    external static pointer                  dcl 2-12
cobol_$def_max                         external static fixed bin(17,0)          dcl 2-96
cobol_$def_wd_off                      external static fixed bin(17,0)          dcl 2-94
cobol_$diag_ptr                        external static pointer                  dcl 2-70
cobol_$eln_max                         external static fixed bin(17,0)          dcl 2-172
cobol_$eln_ptr                         external static pointer                  dcl 2-68
cobol_$fixup_max                       external static fixed bin(17,0)          dcl 2-164
cobol_$fixup_ptr                       external static pointer                  dcl 2-30
cobol_$fs_charcnt                      external static fixed bin(17,0)          dcl 2-184
cobol_$fs_wdoff                        external static fixed bin(17,0)          dcl 2-198
cobol_$include_cnt                     external static fixed bin(17,0)          dcl 2-182
cobol_$include_info_ptr                external static pointer                  dcl 2-86
cobol_$init_stack_off                  external static fixed bin(17,0)          dcl 2-124
cobol_$initval_base_ptr                external static pointer                  dcl 2-32
cobol_$initval_file_ptr                external static pointer                  dcl 2-34
cobol_$initval_flag                    external static fixed bin(17,0)          dcl 2-178
cobol_$link_base_ptr                   external static pointer                  dcl 2-14
cobol_$link_max                        external static fixed bin(17,0)          dcl 2-100
cobol_$link_wd_off                     external static fixed bin(17,0)          dcl 2-98
cobol_$list_off                        external static fixed bin(17,0)          dcl 2-154
cobol_$list_ptr                        external static pointer                  dcl 2-64
cobol_$ls_charcnt                      external static fixed bin(17,0)          dcl 2-190
cobol_$main_pcs_ptr                    external static pointer                  dcl 2-84
cobol_$map_data_max                    external static fixed bin(17,0)          dcl 2-162
cobol_$map_data_ptr                    external static pointer                  dcl 2-54
cobol_$max_stack_off                   external static fixed bin(17,0)          dcl 2-122
cobol_$minpral5_ptr                    external static pointer                  dcl 2-50
cobol_$misc_base_ptr                   external static pointer                  dcl 2-60
cobol_$misc_end_ptr                    external static pointer                  dcl 2-62
cobol_$misc_max                        external static fixed bin(17,0)          dcl 2-158
cobol_$next_tag                        external static fixed bin(17,0)          dcl 2-128
cobol_$non_source_offset               external static fixed bin(17,0)          dcl 2-176
cobol_$ntbuf_ptr                       external static pointer                  dcl 2-82
cobol_$obj_seg_name                    external static char(32)                 dcl 2-208
cobol_$op_con_ptr                      external static pointer                  dcl 2-80
cobol_$para_eop_flag                   external static fixed bin(17,0)          dcl 2-138
cobol_$pd_map_index                    external static fixed bin(17,0)          dcl 2-116
cobol_$pd_map_max                      external static fixed bin(17,0)          dcl 2-160
cobol_$pd_map_ptr                      external static pointer                  dcl 2-28
cobol_$pd_map_sw                       external static fixed bin(17,0)          dcl 2-126
cobol_$perform_list_ptr                external static pointer                  dcl 2-36
cobol_$perform_para_index              external static fixed bin(17,0)          dcl 2-148
cobol_$perform_sect_index              external static fixed bin(17,0)          dcl 2-150
cobol_$priority_no                     external static fixed bin(17,0)          dcl 2-140
cobol_$ptr_assumption_ind              external static fixed bin(17,0)          dcl 2-144
cobol_$ptr_status_ptr                  external static pointer                  dcl 2-56
cobol_$reg_assumption_ind              external static fixed bin(17,0)          dcl 2-146
cobol_$reg_status_ptr                  external static pointer                  dcl 2-58
cobol_$reloc_def_base_ptr              external static pointer                  dcl 2-20
cobol_$reloc_def_max                   external static fixed bin(24,0)          dcl 2-108
cobol_$reloc_link_base_ptr             external static pointer                  dcl 2-22
cobol_$reloc_link_max                  external static fixed bin(24,0)          dcl 2-110
cobol_$reloc_sym_base_ptr              external static pointer                  dcl 2-24
cobol_$reloc_sym_max                   external static fixed bin(24,0)          dcl 2-112
cobol_$reloc_text_base_ptr             external static pointer                  dcl 2-18
cobol_$reloc_text_max                  external static fixed bin(24,0)          dcl 2-106
cobol_$reloc_work_base_ptr             external static pointer                  dcl 2-26
cobol_$reloc_work_max                  external static fixed bin(24,0)          dcl 2-114
cobol_$reswd_ptr                       external static pointer                  dcl 2-78
cobol_$same_sort_merge_proc            external static bit(1)                   dcl 2-214
cobol_$scratch_dir                     external static char(168)                dcl 2-206
cobol_$sect_eop_flag                   external static fixed bin(17,0)          dcl 2-136
cobol_$seg_init_flag                   external static fixed bin(17,0)          dcl 2-132
cobol_$seg_init_list_ptr               external static pointer                  dcl 2-40
cobol_$stack_off                       external static fixed bin(17,0)          dcl 2-120
cobol_$statement_info_ptr              external static pointer                  dcl 2-76
cobol_$sym_base_ptr                    external static pointer                  dcl 2-16
cobol_$sym_max                         external static fixed bin(17,0)          dcl 2-104
cobol_$sym_wd_off                      external static fixed bin(17,0)          dcl 2-102
cobol_$tag_table_max                   external static fixed bin(17,0)          dcl 2-166
cobol_$tag_table_ptr                   external static pointer                  dcl 2-52
cobol_$temp_token_area_ptr             external static pointer                  dcl 2-42
cobol_$temp_token_max                  external static fixed bin(17,0)          dcl 2-168
cobol_$temp_token_ptr                  external static pointer                  dcl 2-44
cobol_$text_base_ptr                   external static pointer                  dcl 2-8
cobol_$token_block1_ptr                external static pointer                  dcl 2-46
cobol_$token_block2_ptr                external static pointer                  dcl 2-48
cobol_$value_cnt                       external static fixed bin(17,0)          dcl 2-194
cobol_$ws_charcnt                      external static fixed bin(17,0)          dcl 2-186
cobol_$ws_wdoff                        external static fixed bin(17,0)          dcl 2-200
cobol_$xref_bypass                     external static bit(1)                   dcl 2-212
cobol_$xref_chain_ptr                  external static pointer                  dcl 2-74
cobol_$xref_token_ptr                  external static pointer                  dcl 2-72
cobol_afp                              defined         pointer                  dcl 6-11
cobol_analin_fileno                    defined         pointer                  dcl 6-13
cobol_cmfp                             defined         pointer                  dcl 6-21
cobol_com_fileno                       defined         pointer                  dcl 6-23
cobol_curr_in                          defined         pointer                  dcl 6-53
cobol_curr_out                         defined         pointer                  dcl 6-55
cobol_data_wd_off                      defined         fixed bin(17,0)          dcl 2-119
cobol_dfp                              defined         pointer                  dcl 6-27
cobol_eltp                             defined         pointer                  dcl 6-19
cobol_ext_$cobol_afp                   external static pointer                  dcl 6-10
cobol_ext_$cobol_analin_fileno         external static pointer                  dcl 6-12
cobol_ext_$cobol_cmfp                  external static pointer                  dcl 6-20
cobol_ext_$cobol_com_fileno            external static pointer                  dcl 6-22
cobol_ext_$cobol_curr_in               external static pointer                  dcl 6-52
cobol_ext_$cobol_curr_out              external static pointer                  dcl 6-54
cobol_ext_$cobol_dfp                   external static pointer                  dcl 6-26
cobol_ext_$cobol_eltp                  external static pointer                  dcl 6-18
cobol_ext_$cobol_fileno1               external static fixed bin(24,0)          dcl 6-78
cobol_ext_$cobol_hfp                   external static pointer                  dcl 6-28
cobol_ext_$cobol_lpr                   external static char(5)                  packed unaligned dcl 6-95
cobol_ext_$cobol_m1fp                  external static pointer                  dcl 6-30
cobol_ext_$cobol_m2fp                  external static pointer                  dcl 6-32
cobol_ext_$cobol_min1_fileno           external static pointer                  dcl 6-34
cobol_ext_$cobol_min2_fileno_ptr       external static pointer                  dcl 6-36
cobol_ext_$cobol_name_fileno           external static pointer                  dcl 6-38
cobol_ext_$cobol_name_fileno_ptr       external static pointer                  dcl 6-40
cobol_ext_$cobol_options               external static char(120)                packed unaligned dcl 6-97
cobol_ext_$cobol_options_len           external static fixed bin(24,0)          dcl 6-80
cobol_ext_$cobol_pdofp                 external static pointer                  dcl 6-44
cobol_ext_$cobol_pdout_fileno          external static fixed bin(24,0)          dcl 6-82
cobol_ext_$cobol_pfp                   external static pointer                  dcl 6-46
cobol_ext_$cobol_print_fileno          external static fixed bin(24,0)          dcl 6-84
cobol_ext_$cobol_rm2fp                 external static pointer                  dcl 6-48
cobol_ext_$cobol_rmin2_fileno          external static fixed bin(24,0)          dcl 6-86
cobol_ext_$cobol_rmin2fp               external static pointer                  dcl 6-50
cobol_ext_$cobol_rwdd                  external static pointer                  dcl 6-72
cobol_ext_$cobol_rwpd                  external static pointer                  dcl 6-74
cobol_ext_$cobol_sfp                   external static pointer                  dcl 6-56
cobol_ext_$cobol_w1p                   external static pointer                  dcl 6-58
cobol_ext_$cobol_w2p                   external static pointer                  dcl 6-60
cobol_ext_$cobol_w3p                   external static pointer                  dcl 6-62
cobol_ext_$cobol_w5p                   external static pointer                  dcl 6-64
cobol_ext_$cobol_w6p                   external static pointer                  dcl 6-66
cobol_ext_$cobol_w7p                   external static pointer                  dcl 6-68
cobol_ext_$cobol_x1_fileno             external static fixed bin(24,0)          dcl 6-88
cobol_ext_$cobol_x2_fileno             external static fixed bin(24,0)          dcl 6-90
cobol_ext_$cobol_x3_fileno             external static fixed bin(24,0)          dcl 6-92
cobol_ext_$cobol_x3fp                  external static pointer                  dcl 6-70
cobol_ext_$cobol_xlast8                external static bit(1)                   packed unaligned dcl 6-100
cobol_ext_$report_exists               external static bit(1)                   packed unaligned dcl 6-102
cobol_ext_$report_first_token          external static pointer                  dcl 6-14
cobol_ext_$report_last_token           external static pointer                  dcl 6-16
cobol_fileno1                          defined         fixed bin(24,0)          dcl 6-79
cobol_hfp                              defined         pointer                  dcl 6-29
cobol_lpr                              defined         char(5)                  packed unaligned dcl 6-96
cobol_m1fp                             defined         pointer                  dcl 6-31
cobol_m2fp                             defined         pointer                  dcl 6-33
cobol_min1_fileno                      defined         pointer                  dcl 6-35
cobol_min2_fileno_ptr                  defined         pointer                  dcl 6-37
cobol_name_fileno                      defined         pointer                  dcl 6-39
cobol_name_fileno_ptr                  defined         pointer                  dcl 6-41
cobol_options                          defined         char(120)                packed unaligned dcl 6-98
cobol_options_len                      defined         fixed bin(24,0)          dcl 6-81
cobol_pdofp                            defined         pointer                  dcl 6-45
cobol_pdout_fileno                     defined         fixed bin(24,0)          dcl 6-83
cobol_pfp                              defined         pointer                  dcl 6-47
cobol_print_fileno                     defined         fixed bin(24,0)          dcl 6-85
cobol_rm2fp                            defined         pointer                  dcl 6-49
cobol_rmin2_fileno                     defined         fixed bin(24,0)          dcl 6-87
cobol_rmin2fp                          defined         pointer                  dcl 6-51
cobol_rwdd                             defined         pointer                  dcl 6-73
cobol_rwpd                             defined         pointer                  dcl 6-75
cobol_sfp                              defined         pointer                  dcl 6-57
cobol_w1p                              defined         pointer                  dcl 6-59
cobol_w2p                              defined         pointer                  dcl 6-61
cobol_w3p                              defined         pointer                  dcl 6-63
cobol_w5p                              defined         pointer                  dcl 6-65
cobol_w6p                              defined         pointer                  dcl 6-67
cobol_w7p                              defined         pointer                  dcl 6-69
cobol_x1_fileno                        defined         fixed bin(24,0)          dcl 6-89
cobol_x2_fileno                        defined         fixed bin(24,0)          dcl 6-91
cobol_x3_fileno                        defined         fixed bin(24,0)          dcl 6-93
cobol_x3fp                             defined         pointer                  dcl 6-71
cobol_xlast8                           defined         bit(1)                   packed unaligned dcl 6-101
compile_count                          defined         fixed bin(17,0)          dcl 2-143
coms_charcnt                           defined         fixed bin(17,0)          dcl 2-189
coms_wdoff                             defined         fixed bin(17,0)          dcl 2-203
con_end_ptr                            defined         pointer                  dcl 2-11
con_wd_off                             defined         fixed bin(17,0)          dcl 2-93
cons_charcnt                           defined         fixed bin(17,0)          dcl 2-193
constant_offset                        defined         fixed bin(17,0)          dcl 2-157
data_init_flag                         defined         fixed bin(17,0)          dcl 2-131
date_compiled_sw                       defined         fixed bin(17,0)          dcl 2-181
debug_enable                           defined         fixed bin(17,0)          dcl 2-175
def_base_ptr                           defined         pointer                  dcl 2-13
def_max                                defined         fixed bin(17,0)          dcl 2-97
def_wd_off                             defined         fixed bin(17,0)          dcl 2-95
diag_ptr                               defined         pointer                  dcl 2-71
eln_max                                defined         fixed bin(17,0)          dcl 2-173
eln_ptr                                defined         pointer                  dcl 2-69
fixup_max                              defined         fixed bin(17,0)          dcl 2-165
fixup_ptr                              defined         pointer                  dcl 2-31
fs_charcnt                             defined         fixed bin(17,0)          dcl 2-185
fs_wdoff                               defined         fixed bin(17,0)          dcl 2-199
include_cnt                            defined         fixed bin(17,0)          dcl 2-183
include_info_ptr                       defined         pointer                  dcl 2-87
index                                                  builtin function         dcl 1-17
init_stack_off                         defined         fixed bin(17,0)          dcl 2-125
initval_base_ptr                       defined         pointer                  dcl 2-33
initval_file_ptr                       defined         pointer                  dcl 2-35
initval_flag                           defined         fixed bin(17,0)          dcl 2-179
length                                                 builtin function         dcl 1-17
link_base_ptr                          defined         pointer                  dcl 2-15
link_max                               defined         fixed bin(17,0)          dcl 2-101
link_wd_off                            defined         fixed bin(17,0)          dcl 2-99
list_off                               defined         fixed bin(17,0)          dcl 2-155
list_ptr                               defined         pointer                  dcl 2-65
ls_charcnt                             defined         fixed bin(17,0)          dcl 2-191
main_pcs_ptr                           defined         pointer                  dcl 2-85
map_data_max                           defined         fixed bin(17,0)          dcl 2-163
map_data_ptr                           defined         pointer                  dcl 2-55
max_stack_off                          defined         fixed bin(17,0)          dcl 2-123
minpral5_ptr                           defined         pointer                  dcl 2-51
misc_base_ptr                          defined         pointer                  dcl 2-61
misc_end_ptr                           defined         pointer                  dcl 2-63
misc_max                               defined         fixed bin(17,0)          dcl 2-159
mod                                                    builtin function         dcl 1-17
next_tag                               defined         fixed bin(17,0)          dcl 2-129
non_source_offset                      defined         fixed bin(17,0)          dcl 2-177
ntbuf_ptr                              defined         pointer                  dcl 2-83
obj_seg_name                           defined         char(32)                 dcl 2-209
op_con_ptr                             defined         pointer                  dcl 2-81
para_eop_flag                          defined         fixed bin(17,0)          dcl 2-139
pd_map_index                           defined         fixed bin(17,0)          dcl 2-117
pd_map_max                             defined         fixed bin(17,0)          dcl 2-161
pd_map_ptr                             defined         pointer                  dcl 2-29
pd_map_sw                              defined         fixed bin(17,0)          dcl 2-127
perform_list_ptr                       defined         pointer                  dcl 2-37
perform_para_index                     defined         fixed bin(17,0)          dcl 2-149
perform_sect_index                     defined         fixed bin(17,0)          dcl 2-151
priority_no                            defined         fixed bin(17,0)          dcl 2-141
ptr_assumption_ind                     defined         fixed bin(17,0)          dcl 2-145
ptr_status_ptr                         defined         pointer                  dcl 2-57
reg_assumption_ind                     defined         fixed bin(17,0)          dcl 2-147
reg_status_ptr                         defined         pointer                  dcl 2-59
rel                                                    builtin function         dcl 1-17
reloc_def_base_ptr                     defined         pointer                  dcl 2-21
reloc_def_max                          defined         fixed bin(24,0)          dcl 2-109
reloc_link_base_ptr                    defined         pointer                  dcl 2-23
reloc_link_max                         defined         fixed bin(24,0)          dcl 2-111
reloc_sym_base_ptr                     defined         pointer                  dcl 2-25
reloc_sym_max                          defined         fixed bin(24,0)          dcl 2-113
reloc_text_base_ptr                    defined         pointer                  dcl 2-19
reloc_text_max                         defined         fixed bin(24,0)          dcl 2-107
reloc_work_base_ptr                    defined         pointer                  dcl 2-27
reloc_work_max                         defined         fixed bin(24,0)          dcl 2-115
report_exists                          defined         bit(1)                   packed unaligned dcl 6-103
report_first_token                     defined         pointer                  dcl 6-15
report_last_token                      defined         pointer                  dcl 6-17
reswd_ptr                              defined         pointer                  dcl 2-79
same_sort_merge_proc                   defined         bit(1)                   dcl 2-215
scratch_dir                            defined         char(168)                dcl 2-207
sect_eop_flag                          defined         fixed bin(17,0)          dcl 2-137
seg_init_flag                          defined         fixed bin(17,0)          dcl 2-133
seg_init_list_ptr                      defined         pointer                  dcl 2-41
stack_off                              defined         fixed bin(17,0)          dcl 2-121
statement_info_ptr                     defined         pointer                  dcl 2-77
string                                                 builtin function         dcl 1-17
sym_base_ptr                           defined         pointer                  dcl 2-17
sym_max                                defined         fixed bin(17,0)          dcl 2-105
sym_wd_off                             defined         fixed bin(17,0)          dcl 2-103
tag_table_max                          defined         fixed bin(17,0)          dcl 2-167
tag_table_ptr                          defined         pointer                  dcl 2-53
temp_token_area_ptr                    defined         pointer                  dcl 2-43
temp_token_max                         defined         fixed bin(17,0)          dcl 2-169
temp_token_ptr                         defined         pointer                  dcl 2-45
text_base_ptr                          defined         pointer                  dcl 2-9
text_wd_off                            defined         fixed bin(17,0)          dcl 2-91
token_block1_ptr                       defined         pointer                  dcl 2-47
token_block2_ptr                       defined         pointer                  dcl 2-49
value_cnt                              defined         fixed bin(17,0)          dcl 2-195
ws_charcnt                             defined         fixed bin(17,0)          dcl 2-187
ws_wdoff                               defined         fixed bin(17,0)          dcl 2-201
xref_bypass                            defined         bit(1)                   dcl 2-213
xref_chain_ptr                         defined         pointer                  dcl 2-75
xref_token_ptr                         defined         pointer                  dcl 2-73

NAMES DECLARED BY EXPLICIT CONTEXT.
SD                              000467 constant        entry                    internal dcl 259 ref 119
cobol_arg_descriptor            000022 constant        entry                    external dcl 30
set_descriptor                  000272 constant        entry                    internal dcl 143 ref 117 332
set_out                         000255 constant        entry                    internal dcl 95 ref 75 91
sub_handler                     000665 constant        entry                    internal dcl 344 ref 254 276 318
type9                           000133 constant        entry                    external dcl 105

NAMES DECLARED BY CONTEXT OR IMPLICATION.
bit                                                    builtin function         ref 362 364
divide                                                 builtin function         ref 281 290 296 362 364
pointer                                                builtin function         ref 272

STORAGE REQUIREMENTS FOR THIS PROGRAM.

	Object	Text	Link	Symbol	Defs	Static
Start          0       0      1106        1164     772        1116
Length      1476     772        56         275     113          30

BLOCK NAME	         STACK SIZE     TYPE		WHY NONQUICK/WHO SHARES STACK FRAME
cobol_arg_descriptor               8139 external procedure  is an external procedure.
set_out                                 internal procedure  shares stack frame of external procedure cobol_arg_descriptor.
set_descriptor                          internal procedure  shares stack frame of external procedure cobol_arg_descriptor.
SD                                      internal procedure  shares stack frame of external procedure cobol_arg_descriptor.
sub_handler                             internal procedure  shares stack frame of external procedure cobol_arg_descriptor.

STORAGE FOR INTERNAL STATIC VARIABLES.

   LOC IDENTIFIER                  BLOCK NAME
000010 con_err                     cobol_arg_descriptor

STORAGE FOR AUTOMATIC VARIABLES.

STACK FRAME                 LOC IDENTIFIER                  BLOCK NAME
cobol_arg_descriptor     000100 my_ptr                      cobol_arg_descriptor
                         000102 utemp                       cobol_arg_descriptor
                         000103 prec_len                    cobol_arg_descriptor
                         000104 my_count                    cobol_arg_descriptor
                         000105 my_word                     cobol_arg_descriptor
                         000106 dn_ptr                      cobol_arg_descriptor
                         000110 desc_cnt                    cobol_arg_descriptor
                         000111 main_level                  cobol_arg_descriptor
                         000112 prev_level                  cobol_arg_descriptor
                         000113 i                           cobol_arg_descriptor
                         000114 redef_level                 cobol_arg_descriptor
                         000115 cont_flag                   cobol_arg_descriptor
                         000116 found                       cobol_arg_descriptor
                         000117 con_bit                     cobol_arg_descriptor
                         000120 desc_wd                     cobol_arg_descriptor
                         017622 occurs_ptr                  cobol_arg_descriptor

THE FOLLOWING EXTERNAL OPERATORS ARE USED BY THIS PROGRAM.
alloc_char_temp     call_ext_out_desc   return_mac          shorten_stack       ext_entry

THE FOLLOWING EXTERNAL ENTRIES ARE CALLED BY THIS PROGRAM.
cobol_pool                    signal_

THE FOLLOWING EXTERNAL VARIABLES ARE USED BY THIS PROGRAM.
cobol_$con_end_ptr            cobol_$con_wd_off             cobol_$text_wd_off            cobol_ext_$cobol_com_ptr
cobol_ext_$cobol_ntfp


   LINE    LOC      LINE    LOC      LINE    LOC      LINE    LOC      LINE    LOC      LINE    LOC      LINE    LOC
     30 000016        58 000027        59 000034        60 000040        61 000042        63 000044        65 000046
     70 000052        72 000056        73 000060        75 000061        76 000062        78 000063        79 000112
     82 000113        84 000116        85 000117        86 000122        87 000123        89 000124        91 000125
     93 000126       105 000127       112 000140       114 000144       116 000147       117 000150       118 000151
    119 000152       122 000163       124 000165       126 000175       128 000177       131 000201       133 000203
    135 000240       136 000244       137 000250       139 000254        95 000255        98 000256        99 000264
    101 000271       143 000272       146 000273       151 000305       154 000310       163 000316       165 000320
    168 000324       172 000334       175 000337       179 000345       182 000351       186 000352       190 000355
    191 000357       192 000361       193 000362       195 000364       196 000366       199 000370       201 000371
    204 000374       209 000377       216 000410       222 000413       224 000415       225 000416       232 000427
    235 000432       237 000434       239 000437       240 000440       244 000442       250 000453       251 000454
    254 000457       257 000466       259 000467       262 000470       263 000473       264 000474       268 000476
    270 000510       272 000514       273 000522       276 000524       279 000533       281 000536       283 000545
    286 000550       288 000554       289 000556       290 000557       292 000565       294 000570       296 000601
    297 000607       299 000610       302 000617       304 000620       306 000623       310 000627       311 000630
    315 000631       318 000636       323 000645       326 000646       328 000651       332 000656       333 000657
    335 000660       340 000663       342 000664       344 000665       352 000667       353 000676       355 000704
    357 000711       358 000713       359 000716       362 000723       364 000743       365 000753       367 000756


                                          -----------------------------------------------------------


Historical Background

This edition of the Multics software materials and documentation is provided and donated
to Massachusetts Institute of Technology by Group BULL including BULL HN Information Systems Inc.
as a contribution to computer science knowledge.
This donation is made also to give evidence of the common contributions of Massachusetts Institute of Technology,
Bell Laboratories, General Electric, Honeywell Information Systems Inc., Honeywell BULL Inc., Groupe BULL
and BULL HN Information Systems Inc. to the development of this operating system.
Multics development was initiated by Massachusetts Institute of Technology Project MAC (1963-1970),
renamed the MIT Laboratory for Computer Science and Artificial Intelligence in the mid 1970s, under the leadership
of Professor Fernando Jose Corbato. Users consider that Multics provided the best software architecture
for managing computer hardware properly and for executing programs. Many subsequent operating systems
incorporated Multics principles.
Multics was distributed in 1975 to 2000 by Group Bull in Europe , and in the U.S. by Bull HN Information Systems Inc.,
as successor in interest by change in name only to Honeywell Bull Inc. and Honeywell Information Systems Inc. .

                                          -----------------------------------------------------------

Permission to use, copy, modify, and distribute these programs and their documentation for any purpose and without
fee is hereby granted,provided that the below copyright notice and historical background appear in all copies
and that both the copyright notice and historical background and this permission notice appear in supporting
documentation, and that the names of MIT, HIS, BULL or BULL HN not be used in advertising or publicity pertaining
to distribution of the programs without specific prior written permission.
    Copyright 1972 by Massachusetts Institute of Technology and Honeywell Information Systems Inc.
    Copyright 2006 by BULL HN Information Systems Inc.
    Copyright 2006 by Bull SAS
    All Rights Reserved
