ASSEMBLY LISTING OF SEGMENT >spec>install>MR12.3-1048>cobol_ided.alm
ASSEMBLED ON:	05/24/89  0929.2 mst Wed
OPTIONS USED:	-target l68                              list symbols
ASSEMBLED BY:	ALM Version 8.13 September 1988
ASSEMBLER CREATED:	10/24/88  1635.1 mst Mon

                                     1  " *********************************************************
                                     2  " *                                                       *
                                     3  " * Copyright, (C) BULL HN Information Systems Inc., 1989 *
                                     4  " *                                                       *
                                     5  " * Copyright (c) 1972 by Massachusetts Institute of      *
                                     6  " * Technology and Honeywell Information Systems, Inc.    *
                                     7  " *                                                       *
                                     8  " *********************************************************
                                     9
                                    10  " HISTORY COMMENTS:
                                    11  "  1) change(89-04-23,Zimmerman), approve(89-04-23,MCR8082),
                                    12  "     audit(89-05-05,RWaters), install(89-05-24,MR12.3-1048):
                                    13  "     MCR8082 cobol_ided.alm Fix wild array subscript.
                                    14  "                                                      END HISTORY COMMENTS
                                    15
                                    16
    000000                          17  name	cobol_ided
                        000000      18  	entry	cobol_ided
    000000  aa   000060 6270 00     19  cobol_ided:	save
    000001  aa  7 00040 2721 20
    000002  0a   000000 3520 00     20  	epp2	cobol_ided
    000003  aa  0 00002 2521 20     21  	spri2	ap|2,*
    000004  aa  7 00042 7101 20     22  	return
                        000000      23  		equ i_r,0
                        000001      24  		equ i_c,1
                        000003      25  		equ i_s,3
                        000002      26  		equ i_n,2
                        000004      27  		equ i_k,4
                        000005      28  		equ i_K,5
                        000000      29  		equ l_org,*-5
    000005  aa   040040 040040      30  l_1:		vfd a36/    ,36/i_n,36/0,36/(r1dg-l_org)/5,36/a_60
    000006  aa   000000 000002
    000007  aa   000000 000000
    000010  aa   000000 001446
    000011  aa   000000 000074
    000012  aa   040040 040040      31  l_2:		vfd a36/    ,36/i_n,36/0,36/(r2dg-l_org)/5,36/a_60
    000013  aa   000000 000002
    000014  aa   000000 000000
    000015  aa   000000 001447
    000016  aa   000000 000074
    000017  aa   040040 040040      32  l_3:		vfd a36/    ,36/i_n,36/0,36/(l_4-l_org)/5,36/a_1
    000020  aa   000000 000002
    000021  aa   000000 000000
    000022  aa   000000 000004
    000023  aa   000000 000001
    000024  aa   040065 040040      33  l_4:		vfd a36/ 5  ,36/i_r,36/r_control,36/(cd-l_org)/5,36/8
    000025  aa   000000 000000
    000026  aa   000000 001010
    000027  aa   000000 000040
    000030  aa   000000 000010
    000031  aa   040040 040040      34  	id:	vfd a36/    ,36/i_r,36/r_identification,36/(id_2-l_org)/5,36/a_15
    000032  aa   000000 000000
    000033  aa   000000 001050
    000034  aa   000000 000013
    000035  aa   000000 000017
    000036  aa   040040 040040      35  		vfd a36/    ,36/i_r,36/r_program_id,36/(id_3-l_org)/5,36/a_15
    000037  aa   000000 000000
    000040  aa   000000 001107
    000041  aa   000000 000021
    000042  aa   000000 000017
    000043  aa   163040 040040      36  		vfd a36/s   ,36/i_n,36/104,36/(l_5-l_org)/5,36/0
    000044  aa   000000 000002
    000045  aa   000000 000150
    000046  aa   000000 000010
    000047  aa   000000 000000
    000050  aa   040040 040040      37  l_5:	id1:	vfd a36/    ,36/i_r,36/089,36/(id_2-l_org)/5,36/a_15
    000051  aa   000000 000000
    000052  aa   000000 000131
    000053  aa   000000 000013
    000054  aa   000000 000017
    000055  aa   040040 040040      38  		vfd a36/    ,36/i_r,36/089,36/(id_3-l_org)/5,36/a_15
    000056  aa   000000 000000
    000057  aa   000000 000131
    000060  aa   000000 000021
    000061  aa   000000 000017
    000062  aa   163040 040040      39  		vfd a36/s   ,36/i_n,36/0,36/(id1-l_org)/5,36/0
    000063  aa   000000 000002
    000064  aa   000000 000000
    000065  aa   000000 000010
    000066  aa   000000 000000
    000067  aa   163040 040040      40  	id_2:	vfd a36/s   ,36/i_c,36/c_areaa,36/(l_6-l_org)/5,36/0
    000070  aa   000000 000001
    000071  aa   000000 000003
    000072  aa   000000 000015
    000073  aa   000000 000000
    000074  aa   163040 040040      41  		vfd a36/s   ,36/i_n,36/001,36/(l_6-l_org)/5,36/0
    000075  aa   000000 000002
    000076  aa   000000 000001
    000077  aa   000000 000015
    000100  aa   000000 000000
    000101  aa   163040 040040      42  l_6:		vfd a36/s   ,36/i_r,36/r_division,36/(l_7-l_org)/5,36/0
    000102  aa   000000 000000
    000103  aa   000000 000136
    000104  aa   000000 000017
    000105  aa   000000 000000
    000106  aa   040040 040040      43  		vfd a36/    ,36/i_n,36/002,36/(l_7-l_org)/5,36/0
    000107  aa   000000 000002
    000110  aa   000000 000002
    000111  aa   000000 000017
    000112  aa   000000 000000
    000113  aa   163040 040040      44  l_7:		vfd a36/s   ,36/i_r,36/r_per,36/(l_8-l_org)/5,36/0
    000114  aa   000000 000000
    000115  aa   000000 000275
    000116  aa   000000 000021
    000117  aa   000000 000000
    000120  aa   040040 040040      45  		vfd a36/    ,36/i_n,36/003,36/(l_8-l_org)/5,36/a_173
    000121  aa   000000 000002
    000122  aa   000000 000003
    000123  aa   000000 000021
    000124  aa   000000 000255
    000125  aa   040040 040040      46  l_8:	id_3:	vfd a36/    ,36/i_r,36/r_program_id,36/(l_9-l_org)/5,36/0
    000126  aa   000000 000000
    000127  aa   000000 001107
    000130  aa   000000 000023
    000131  aa   000000 000000
    000132  aa   040040 040040      47  		vfd a36/    ,36/i_n,36/004,36/(id_4-l_org)/5,36/a_60
    000133  aa   000000 000002
    000134  aa   000000 000004
    000135  aa   000000 000037
    000136  aa   000000 000074
    000137  aa   163040 040040      48  l_9:	id_1:	vfd a36/s   ,36/i_c,36/c_areaa,36/(l_10-l_org)/5,36/0
    000140  aa   000000 000001
    000141  aa   000000 000003
    000142  aa   000000 000025
    000143  aa   000000 000000
    000144  aa   163040 040040      49  		vfd a36/s   ,36/i_n,36/001,36/(l_10-l_org)/5,36/0
    000145  aa   000000 000002
    000146  aa   000000 000001
    000147  aa   000000 000025
    000150  aa   000000 000000
    000151  aa   163040 040040      50  l_10:		vfd a36/s   ,36/i_r,36/r_per,36/(l_11-l_org)/5,36/0
    000152  aa   000000 000000
    000153  aa   000000 000275
    000154  aa   000000 000027
    000155  aa   000000 000000
    000156  aa   040040 040040      51  		vfd a36/    ,36/i_n,36/003,36/(l_11-l_org)/5,36/a_173
    000157  aa   000000 000002
    000160  aa   000000 000003
    000161  aa   000000 000027
    000162  aa   000000 000255
    000163  aa   163040 040040      52  l_11:		vfd a36/s   ,36/i_c,36/c_usrwd,36/(l_12-l_org)/5,36/a_9
    000164  aa   000000 000001
    000165  aa   000000 000060
    000166  aa   000000 000031
    000167  aa   000000 000011
    000170  aa   040040 040040      53  		vfd a36/    ,36/i_n,36/005,36/(r1dg-l_org)/5,36/a_60
    000171  aa   000000 000002
    000172  aa   000000 000005
    000173  aa   000000 001446
    000174  aa   000000 000074
    000175  aa   163040 040040      54  l_12:		vfd a36/s   ,36/i_r,36/r_per,36/(l_13-l_org)/5,36/0
    000176  aa   000000 000000
    000177  aa   000000 000275
    000200  aa   000000 000033
    000201  aa   000000 000000
    000202  aa   040040 040040      55  		vfd a36/    ,36/i_n,36/003,36/(l_13-l_org)/5,36/a_173
    000203  aa   000000 000002
    000204  aa   000000 000003
    000205  aa   000000 000033
    000206  aa   000000 000255
    000207  aa   040040 040040      56  l_13:		vfd a36/    ,36/i_c,36/c_areaa,36/(l_14-l_org)/5,36/0
    000210  aa   000000 000001
    000211  aa   000000 000003
    000212  aa   000000 000035
    000213  aa   000000 000000
    000214  aa   040040 040040      57  		vfd a36/    ,36/i_n,36/001,36/(l_14-l_org)/5,36/0
    000215  aa   000000 000002
    000216  aa   000000 000001
    000217  aa   000000 000035
    000220  aa   000000 000000
    000221  aa   040040 040040      58  l_14:	ed:	vfd a36/    ,36/i_r,36/r_environment,36/(ed_1-l_org)/5,36/a_26
    000222  aa   000000 000000
    000223  aa   000000 001034
    000224  aa   000000 000176
    000225  aa   000000 000032
    000226  aa   040040 040040      59  		vfd a36/    ,36/i_n,36/0,36/(idpar-l_org)/5,36/0
    000227  aa   000000 000002
    000230  aa   000000 000000
    000231  aa   000000 000165
    000232  aa   000000 000000
    000233  aa   040065 040040      60  	id_4:	vfd a36/ 5  ,36/i_n,36/161,36/(r1dg-l_org)/5,36/25
    000234  aa   000000 000002
    000235  aa   000000 000241
    000236  aa   000000 001446
    000237  aa   000000 000031
    000240  aa   163040 040040      61  	cd:	vfd a36/s   ,36/i_c,36/c_areaa,36/(l_15-l_org)/5,36/0
    000241  aa   000000 000001
    000242  aa   000000 000003
    000243  aa   000000 000042
    000244  aa   000000 000000
    000245  aa   163040 040040      62  		vfd a36/s   ,36/i_n,36/001,36/(l_15-l_org)/5,36/0
    000246  aa   000000 000002
    000247  aa   000000 000001
    000250  aa   000000 000042
    000251  aa   000000 000000
    000252  aa   163040 040040      63  l_15:		vfd a36/s   ,36/i_r,36/r_division,36/(l_16-l_org)/5,36/0
    000253  aa   000000 000000
    000254  aa   000000 000136
    000255  aa   000000 000044
    000256  aa   000000 000000
    000257  aa   040040 040040      64  		vfd a36/    ,36/i_n,36/002,36/(l_16-l_org)/5,36/0
    000260  aa   000000 000002
    000261  aa   000000 000002
    000262  aa   000000 000044
    000263  aa   000000 000000
    000264  aa   163040 040040      65  l_16:		vfd a36/s   ,36/i_r,36/r_per,36/(l_17-l_org)/5,36/0
    000265  aa   000000 000000
    000266  aa   000000 000275
    000267  aa   000000 000046
    000270  aa   000000 000000
    000271  aa   040040 040040      66  		vfd a36/    ,36/i_n,36/003,36/(l_17-l_org)/5,36/a_173
    000272  aa   000000 000002
    000273  aa   000000 000003
    000274  aa   000000 000046
    000275  aa   000000 000255
    000276  aa   040040 040040      67  l_17:		vfd a36/    ,36/i_r,36/r_substitution,36/(sub-l_org)/5,36/0
    000277  aa   000000 000000
    000300  aa   000000 000663
    000301  aa   000000 000152
    000302  aa   000000 000000
    000303  aa   163040 040040      68  	ds:	vfd a36/s   ,36/i_r,36/r_default,36/(def-l_org)/5,36/0
    000304  aa   000000 000000
    000305  aa   000000 000447
    000306  aa   000000 000051
    000307  aa   000000 000000
    000310  aa   040040 040040      69  		vfd a36/    ,36/i_n,36/73,36/(r1dg-l_org)/5,36/0
    000311  aa   000000 000002
    000312  aa   000000 000111
    000313  aa   000000 001446
    000314  aa   000000 000000
    000315  aa   163040 040040      70  	def:	vfd a36/s   ,36/i_r,36/r_section,36/(l_18-l_org)/5,36/0
    000316  aa   000000 000000
    000317  aa   000000 000236
    000320  aa   000000 000053
    000321  aa   000000 000000
    000322  aa   040040 040040      71  		vfd a36/    ,36/i_n,36/0,36/(def_9-l_org)/5,36/0
    000323  aa   000000 000002
    000324  aa   000000 000000
    000325  aa   000000 000057
    000326  aa   000000 000000
    000327  aa   163040 040040      72  l_18:		vfd a36/s   ,36/i_r,36/r_per,36/(l_19-l_org)/5,36/0
    000330  aa   000000 000000
    000331  aa   000000 000275
    000332  aa   000000 000055
    000333  aa   000000 000000
    000334  aa   040040 040040      73  		vfd a36/    ,36/i_n,36/003,36/(l_19-l_org)/5,36/a_173
    000335  aa   000000 000002
    000336  aa   000000 000003
    000337  aa   000000 000055
    000340  aa   000000 000255
    000341  aa   163040 040040      74  l_19:	def_4:	vfd a36/s   ,36/i_r,36/r_default,36/(l_20-l_org)/5,36/0
    000342  aa   000000 000000
    000343  aa   000000 000447
    000344  aa   000000 000057
    000345  aa   000000 000000
    000346  aa   040040 040040      75  		vfd a36/    ,36/i_n,36/0,36/(def_1-l_org)/5,36/0
    000347  aa   000000 000002
    000350  aa   000000 000000
    000351  aa   000000 000060
    000352  aa   000000 000000
    000353  aa   163040 040040      76  l_20:	def_9:	vfd a36/s   ,36/i_r,36/r_for,36/(l_21-l_org)/5,36/0
    000354  aa   000000 000000
    000355  aa   000000 000156
    000356  aa   000000 000060
    000357  aa   000000 000000
    000360  aa   163040 040040      77  l_21:	def_1:	vfd a36/s   ,36/i_r,36/r_display,36/(disp_1-l_org)/5,36/0
    000361  aa   000000 000000
    000362  aa   000000 000052
    000363  aa   000000 000105
    000364  aa   000000 000000
    000365  aa   163040 040040      78  		vfd a36/s   ,36/i_r,36/r_generate,36/(def_5-l_org)/5,36/0
    000366  aa   000000 000000
    000367  aa   000000 000055
    000370  aa   000000 000075
    000371  aa   000000 000000
    000372  aa   163040 040040      79  		vfd a36/s   ,36/i_r,36/r_numeric,36/(temp_2-l_org)/5,36/a_162
    000373  aa   000000 000000
    000374  aa   000000 000203
    000375  aa   000000 000132
    000376  aa   000000 000242
    000377  aa   163040 040040      80  		vfd a36/s   ,36/i_r,36/r_comp,36/(def_2-l_org)/5,36/a_162
    000400  aa   000000 000000
    000401  aa   000000 000152
    000402  aa   000000 000144
    000403  aa   000000 000242
    000404  aa   040040 040040      81  		vfd a36/    ,36/i_c,36/c_clorder,36/(id-l_org)/5,36/0
    000405  aa   000000 000001
    000406  aa   000000 000002
    000407  aa   000000 000005
    000410  aa   000000 000000
    000411  aa   163040 040040      82  		vfd a36/s   ,36/i_r,36/r_temporary,36/(temp_0-l_org)/5,36/0
    000412  aa   000000 000000
    000413  aa   000000 000631
    000414  aa   000000 000126
    000415  aa   000000 000000
    000416  aa   163040 040040      83  		vfd a36/s   ,36/i_r,36/r_symbolic,36/(symb_1-l_org)/5,36/a_162
    000417  aa   000000 000000
    000420  aa   000000 000373
    000421  aa   000000 000134
    000422  aa   000000 000242
    000423  aa   163040 040040      84  		vfd a36/s   ,36/i_r,36/r_accept,36/(acc_1-l_org)/5,36/a_162
    000424  aa   000000 000000
    000425  aa   000000 000001
    000426  aa   000000 000123
    000427  aa   000000 000242
    000430  aa   163040 040040      85  		vfd a36/s   ,36/i_r,36/r_sign,36/(disp_2-l_org)/5,36/0
    000431  aa   000000 000000
    000432  aa   000000 000365
    000433  aa   000000 000113
    000434  aa   000000 000000
    000435  aa   163040 040040      86  		vfd a36/s   ,36/i_r,36/r_is,36/(disp_3-l_org)/5,36/0
    000436  aa   000000 000000
    000437  aa   000000 000166
    000440  aa   000000 000114
    000441  aa   000000 000000
    000442  aa   163040 040040      87  		vfd a36/s   ,36/i_r,36/r_leading,36/(disp_4-l_org)/5,36/a_170
    000443  aa   000000 000000
    000444  aa   000000 000172
    000445  aa   000000 000117
    000446  aa   000000 000252
    000447  aa   163040 040040      88  		vfd a36/s   ,36/i_r,36/r_trailing,36/(disp_4-l_org)/5,36/a_171
    000450  aa   000000 000000
    000451  aa   000000 000377
    000452  aa   000000 000117
    000453  aa   000000 000253
    000454  aa   040040 040040      89  		vfd a36/    ,36/i_n,36/0,36/(id-l_org)/5,36/0
    000455  aa   000000 000002
    000456  aa   000000 000000
    000457  aa   000000 000005
    000460  aa   000000 000000
    000461  aa   163040 040040      90  	def_5:	vfd a36/s   ,36/i_r,36/r_no,36/(l_22-l_org)/5,36/0
    000462  aa   000000 000000
    000463  aa   000000 000201
    000464  aa   000000 000101
    000465  aa   000000 000000
    000466  aa   163040 040040      91  		vfd a36/s   ,36/i_r,36/r_aggregate,36/(def_6-l_org)/5,36/0
    000467  aa   000000 000000
    000470  aa   000000 000150
    000471  aa   000000 000101
    000472  aa   000000 000000
    000473  aa   163040 040040      92  		vfd a36/s   ,36/i_r,36/r_scalar,36/(def_7-l_org)/5,36/0
    000474  aa   000000 000000
    000475  aa   000000 000210
    000476  aa   000000 000102
    000477  aa   000000 000000
    000500  aa   040040 040040      93  		vfd a36/    ,36/i_n,36/0,36/(id-l_org)/5,36/0
    000501  aa   000000 000002
    000502  aa   000000 000000
    000503  aa   000000 000005
    000504  aa   000000 000000
    000505  aa   040040 040040      94  l_22:	def_6:	vfd a36/    ,36/i_n,36/0,36/(def_8-l_org)/5,36/a_54
    000506  aa   000000 000002
    000507  aa   000000 000000
    000510  aa   000000 000103
    000511  aa   000000 000066
    000512  aa   040040 040040      95  	def_7:	vfd a36/    ,36/i_n,36/0,36/(def_8-l_org)/5,36/a_55
    000513  aa   000000 000002
    000514  aa   000000 000000
    000515  aa   000000 000103
    000516  aa   000000 000067
    000517  aa   163040 040040      96  	def_8:	vfd a36/s   ,36/i_r,36/r_descriptors,36/(def_3-l_org)/5,36/0
    000520  aa   000000 000000
    000521  aa   000000 000305
    000522  aa   000000 000147
    000523  aa   000000 000000
    000524  aa   040040 040040      97  		vfd a36/    ,36/i_n,36/0,36/(def_3-l_org)/5,36/0
    000525  aa   000000 000002
    000526  aa   000000 000000
    000527  aa   000000 000147
    000530  aa   000000 000000
    000531  aa   163040 040040      98  	disp_1:	vfd a36/s   ,36/i_r,36/r_sign,36/(disp_2-l_org)/5,36/0
    000532  aa   000000 000000
    000533  aa   000000 000365
    000534  aa   000000 000113
    000535  aa   000000 000000
    000536  aa   163040 040040      99  		vfd a36/s   ,36/i_r,36/r_is,36/(l_23-l_org)/5,36/0
    000537  aa   000000 000000
    000540  aa   000000 000166
    000541  aa   000000 000107
    000542  aa   000000 000000
    000543  aa   163040 040040     100  l_23:		vfd a36/s   ,36/i_c,36/c_out_dev,36/(def_3-l_org)/5,36/a_165
    000544  aa   000000 000001
    000545  aa   000000 000020
    000546  aa   000000 000147
    000547  aa   000000 000245
    000550  aa   040040 040040     101  		vfd a36/    ,36/i_r,36/r_leading,36/(disp_4-l_org)/5,36/a_170
    000551  aa   000000 000000
    000552  aa   000000 000172
    000553  aa   000000 000117
    000554  aa   000000 000252
    000555  aa   040040 040040     102  		vfd a36/    ,36/i_r,36/r_trailing,36/(disp_4-l_org)/5,36/a_171
    000556  aa   000000 000000
    000557  aa   000000 000377
    000560  aa   000000 000117
    000561  aa   000000 000253
    000562  aa   040040 040040     103  		vfd a36/    ,36/i_n,36/071,36/(def_4-l_org)/5,36/0
    000563  aa   000000 000002
    000564  aa   000000 000107
    000565  aa   000000 000055
    000566  aa   000000 000000
    000567  aa   163040 040040     104  	disp_2:	vfd a36/s   ,36/i_r,36/r_is,36/(l_24-l_org)/5,36/0
    000570  aa   000000 000000
    000571  aa   000000 000166
    000572  aa   000000 000114
    000573  aa   000000 000000
    000574  aa   163040 040040     105  l_24:	disp_3:	vfd a36/s   ,36/i_r,36/r_leading,36/(l_25-l_org)/5,36/a_170
    000575  aa   000000 000000
    000576  aa   000000 000172
    000577  aa   000000 000117
    000600  aa   000000 000252
    000601  aa   163040 040040     106  		vfd a36/s   ,36/i_r,36/r_trailing,36/(l_25-l_org)/5,36/a_171
    000602  aa   000000 000000
    000603  aa   000000 000377
    000604  aa   000000 000117
    000605  aa   000000 000253
    000606  aa   040040 040040     107  		vfd a36/    ,36/i_n,36/081,36/(def_4-l_org)/5,36/0
    000607  aa   000000 000002
    000610  aa   000000 000121
    000611  aa   000000 000055
    000612  aa   000000 000000
    000613  aa   163040 040040     108  l_25:	disp_4:	vfd a36/s   ,36/i_r,36/r_separate,36/(l_26-l_org)/5,36/a_172
    000614  aa   000000 000000
    000615  aa   000000 000364
    000616  aa   000000 000121
    000617  aa   000000 000254
    000620  aa   040040 040040     109  		vfd a36/    ,36/i_n,36/0,36/(def_3-l_org)/5,36/0
    000621  aa   000000 000002
    000622  aa   000000 000000
    000623  aa   000000 000147
    000624  aa   000000 000000
    000625  aa   163040 040040     110  l_26:		vfd a36/s   ,36/i_r,36/r_character,36/(def_3-l_org)/5,36/0
    000626  aa   000000 000000
    000627  aa   000000 000123
    000630  aa   000000 000147
    000631  aa   000000 000000
    000632  aa   040040 040040     111  		vfd a36/    ,36/i_n,36/0,36/(def_3-l_org)/5,36/0
    000633  aa   000000 000002
    000634  aa   000000 000000
    000635  aa   000000 000147
    000636  aa   000000 000000
    000637  aa   163040 040040     112  	acc_1:	vfd a36/s   ,36/i_r,36/r_is,36/(l_27-l_org)/5,36/0
    000640  aa   000000 000000
    000641  aa   000000 000166
    000642  aa   000000 000124
    000643  aa   000000 000000
    000644  aa   163040 040040     113  l_27:		vfd a36/s   ,36/i_c,36/c_in_dev,36/(def_3-l_org)/5,36/a_164
    000645  aa   000000 000001
    000646  aa   000000 000017
    000647  aa   000000 000147
    000650  aa   000000 000244
    000651  aa   040040 040040     114  		vfd a36/    ,36/i_n,36/082,36/(def_4-l_org)/5,36/0
    000652  aa   000000 000002
    000653  aa   000000 000122
    000654  aa   000000 000055
    000655  aa   000000 000000
    000656  aa   040040 040040     115  	temp_0:	vfd a36/    ,36/i_n,36/0,36/(l_28-l_org)/5,36/a_162
    000657  aa   000000 000002
    000660  aa   000000 000000
    000661  aa   000000 000127
    000662  aa   000000 000242
    000663  aa   163040 040040     116  l_28:	temp_1:	vfd a36/s   ,36/i_r,36/r_is,36/(l_29-l_org)/5,36/0
    000664  aa   000000 000000
    000665  aa   000000 000166
    000666  aa   000000 000130
    000667  aa   000000 000000
    000670  aa   163040 040040     117  l_29:		vfd a36/s   ,36/i_c,36/c_tempint,36/(def_3-l_org)/5,36/0
    000671  aa   000000 000001
    000672  aa   000000 000051
    000673  aa   000000 000147
    000674  aa   000000 000000
    000675  aa   040040 040040     118  		vfd a36/    ,36/i_n,36/083,36/(def_4-l_org)/5,36/0
    000676  aa   000000 000002
    000677  aa   000000 000123
    000700  aa   000000 000055
    000701  aa   000000 000000
    000702  aa   163040 040040     119  	temp_2:	vfd a36/s   ,36/i_r,36/r_limit,36/(temp_1-l_org)/5,36/0
    000703  aa   000000 000000
    000704  aa   000000 001061
    000705  aa   000000 000127
    000706  aa   000000 000000
    000707  aa   040040 040040     120  		vfd a36/    ,36/i_n,36/0,36/(temp_1-l_org)/5,36/0
    000710  aa   000000 000002
    000711  aa   000000 000000
    000712  aa   000000 000127
    000713  aa   000000 000000
    000714  aa   163040 040040     121  	symb_1:	vfd a36/s   ,36/i_r,36/r_queue,36/(l_30-l_org)/5,36/0
    000715  aa   000000 000000
    000716  aa   000000 000352
    000717  aa   000000 000136
    000720  aa   000000 000000
    000721  aa   040040 040040     122  		vfd a36/    ,36/i_n,36/084,36/(def_4-l_org)/5,36/0
    000722  aa   000000 000002
    000723  aa   000000 000124
    000724  aa   000000 000055
    000725  aa   000000 000000
    000726  aa   163040 040040     123  l_30:		vfd a36/s   ,36/i_r,36/r_is,36/(l_31-l_org)/5,36/0
    000727  aa   000000 000000
    000730  aa   000000 000166
    000731  aa   000000 000137
    000732  aa   000000 000000
    000733  aa   163040 040040     124  l_31:		vfd a36/s   ,36/i_r,36/r_omitted,36/(def_3-l_org)/5,36/a_167
    000734  aa   000000 000000
    000735  aa   000000 000313
    000736  aa   000000 000147
    000737  aa   000000 000247
    000740  aa   163040 040040     125  		vfd a36/s   ,36/i_r,36/r_message,36/(l_32-l_org)/5,36/a_167
    000741  aa   000000 000000
    000742  aa   000000 000176
    000743  aa   000000 000142
    000744  aa   000000 000247
    000745  aa   040040 040040     126  		vfd a36/    ,36/i_n,36/072,36/(def_4-l_org)/5,36/0
    000746  aa   000000 000002
    000747  aa   000000 000110
    000750  aa   000000 000055
    000751  aa   000000 000000
    000752  aa   163040 040040     127  l_32:		vfd a36/s   ,36/i_r,36/r_unit,36/(def_3-l_org)/5,36/0
    000753  aa   000000 000000
    000754  aa   000000 000254
    000755  aa   000000 000147
    000756  aa   000000 000000
    000757  aa   040065 040040     128  		vfd a36/ 5  ,36/i_n,36/153,36/(def_3-l_org)/5,36/25
    000760  aa   000000 000002
    000761  aa   000000 000231
    000762  aa   000000 000147
    000763  aa   000000 000031
    000764  aa   163040 040040     129  	def_2:	vfd a36/s   ,36/i_r,36/r_is,36/(l_33-l_org)/5,36/0
    000765  aa   000000 000000
    000766  aa   000000 000166
    000767  aa   000000 000145
    000770  aa   000000 000000
    000771  aa   163040 040040     130  l_33:		vfd a36/s   ,36/i_c,36/c_comptype,36/(def_3-l_org)/5,36/0
    000772  aa   000000 000001
    000773  aa   000000 000005
    000774  aa   000000 000147
    000775  aa   000000 000000
    000776  aa   040040 040040     131  		vfd a36/    ,36/i_n,36/086,36/(def_4-l_org)/5,36/0
    000777  aa   000000 000002
    001000  aa   000000 000126
    001001  aa   000000 000055
    001002  aa   000000 000000
    001003  aa   163040 040040     132  	def_3:	vfd a36/s   ,36/i_r,36/r_per,36/(l_34-l_org)/5,36/0
    001004  aa   000000 000000
    001005  aa   000000 000275
    001006  aa   000000 000150
    001007  aa   000000 000000
    001010  aa   040040 040040     133  l_34:		vfd a36/    ,36/i_c,36/c_dupdef,36/(def_4-l_org)/5,36/a_169
    001011  aa   000000 000001
    001012  aa   000000 000071
    001013  aa   000000 000055
    001014  aa   000000 000251
    001015  aa   040040 040040     134  		vfd a36/    ,36/i_n,36/080,36/(def_4-l_org)/5,36/0
    001016  aa   000000 000002
    001017  aa   000000 000120
    001020  aa   000000 000055
    001021  aa   000000 000000
    001022  aa   163040 040040     135  	sub:	vfd a36/s   ,36/i_c,36/c_areaa,36/(l_35-l_org)/5,36/0
    001023  aa   000000 000001
    001024  aa   000000 000003
    001025  aa   000000 000154
    001026  aa   000000 000000
    001027  aa   163040 040040     136  		vfd a36/s   ,36/i_n,36/001,36/(l_35-l_org)/5,36/0
    001030  aa   000000 000002
    001031  aa   000000 000001
    001032  aa   000000 000154
    001033  aa   000000 000000
    001034  aa   163040 040040     137  l_35:		vfd a36/s   ,36/i_r,36/r_section,36/(l_36-l_org)/5,36/0
    001035  aa   000000 000000
    001036  aa   000000 000236
    001037  aa   000000 000156
    001040  aa   000000 000000
    001041  aa   040040 040040     138  		vfd a36/    ,36/i_n,36/012,36/(l_36-l_org)/5,36/0
    001042  aa   000000 000002
    001043  aa   000000 000014
    001044  aa   000000 000156
    001045  aa   000000 000000
    001046  aa   163040 040040     139  l_36:		vfd a36/s   ,36/i_r,36/r_per,36/(l_37-l_org)/5,36/0
    001047  aa   000000 000000
    001050  aa   000000 000275
    001051  aa   000000 000160
    001052  aa   000000 000000
    001053  aa   040040 040040     140  		vfd a36/    ,36/i_n,36/003,36/(l_37-l_org)/5,36/a_173
    001054  aa   000000 000002
    001055  aa   000000 000003
    001056  aa   000000 000160
    001057  aa   000000 000255
    001060  aa   163040 040040     141  l_37:	sub_1:	vfd a36/s   ,36/i_r,36/r_default,36/(def-l_org)/5,36/0
    001061  aa   000000 000000
    001062  aa   000000 000447
    001063  aa   000000 000051
    001064  aa   000000 000000
    001065  aa   040040 040040     142  		vfd a36/    ,36/i_r,36/r_identification,36/(id_2-l_org)/5,36/0
    001066  aa   000000 000000
    001067  aa   000000 001050
    001070  aa   000000 000013
    001071  aa   000000 000000
    001072  aa   040040 040040     143  		vfd a36/    ,36/i_r,36/r_data,36/(div-l_org)/5,36/0
    001073  aa   000000 000000
    001074  aa   000000 000304
    001075  aa   000000 000337
    001076  aa   000000 000000
    001077  aa   040040 040040     144  		vfd a36/    ,36/i_c,36/c_areaa,36/(l_38-l_org)/5,36/0
    001100  aa   000000 000001
    001101  aa   000000 000003
    001102  aa   000000 000165
    001103  aa   000000 000000
    001104  aa   163040 040040     145  		vfd a36/s   ,36/i_n,36/0,36/(sub_1-l_org)/5,36/0
    001105  aa   000000 000002
    001106  aa   000000 000000
    001107  aa   000000 000160
    001110  aa   000000 000000
    001111  aa   163040 040040     146  l_38:	idpar:	vfd a36/s   ,36/i_c,36/c_idparnm,36/(l_39-l_org)/5,36/0
    001112  aa   000000 000001
    001113  aa   000000 000016
    001114  aa   000000 000167
    001115  aa   000000 000000
    001116  aa   163040 040040     147  		vfd a36/s   ,36/i_n,36/0,36/(idpar1-l_org)/5,36/0
    001117  aa   000000 000002
    001120  aa   000000 000000
    001121  aa   000000 000174
    001122  aa   000000 000000
    001123  aa   040065 040040     148  l_39:		vfd a36/ 5  ,36/i_c,36/c_rempar,36/(l_40-l_org)/5,36/152
    001124  aa   000000 000001
    001125  aa   000000 000033
    001126  aa   000000 000170
    001127  aa   000000 000230
    001130  aa   040040 040040     149  l_40:		vfd a36/    ,36/i_c,36/c_dupdef,36/(l_41-l_org)/5,36/a_84
    001131  aa   000000 000001
    001132  aa   000000 000071
    001133  aa   000000 000172
    001134  aa   000000 000124
    001135  aa   040040 040040     150  		vfd a36/    ,36/i_n,36/080,36/(l_41-l_org)/5,36/0
    001136  aa   000000 000002
    001137  aa   000000 000120
    001140  aa   000000 000172
    001141  aa   000000 000000
    001142  aa   163040 040040     151  l_41:		vfd a36/s   ,36/i_r,36/r_per,36/(l_42-l_org)/5,36/a_10
    001143  aa   000000 000000
    001144  aa   000000 000275
    001145  aa   000000 000174
    001146  aa   000000 000012
    001147  aa   040040 040040     152  		vfd a36/    ,36/i_n,36/003,36/(l_42-l_org)/5,36/a_10
    001150  aa   000000 000002
    001151  aa   000000 000003
    001152  aa   000000 000174
    001153  aa   000000 000012
    001154  aa   040040 040040     153  l_42:	idpar1:	vfd a36/    ,36/i_c,36/c_areaa,36/(ed-l_org)/5,36/a_11
    001155  aa   000000 000001
    001156  aa   000000 000003
    001157  aa   000000 000035
    001160  aa   000000 000013
    001161  aa   163040 040040     154  		vfd a36/s   ,36/i_n,36/0,36/(idpar1-l_org)/5,36/0
    001162  aa   000000 000002
    001163  aa   000000 000000
    001164  aa   000000 000174
    001165  aa   000000 000000
    001166  aa   040040 040040     155  	ed_1:	vfd a36/    ,36/i_c,36/c_clorder,36/(l_43-l_org)/5,36/0
    001167  aa   000000 000001
    001170  aa   000000 000002
    001171  aa   000000 000200
    001172  aa   000000 000000
    001173  aa   040065 040040     156  		vfd a36/ 5  ,36/i_n,36/7,36/(l_43-l_org)/5,36/25
    001174  aa   000000 000002
    001175  aa   000000 000007
    001176  aa   000000 000200
    001177  aa   000000 000031
    001200  aa   163040 040040     157  l_43:	ed_4:	vfd a36/s   ,36/i_c,36/c_areaa,36/(l_44-l_org)/5,36/0
    001201  aa   000000 000001
    001202  aa   000000 000003
    001203  aa   000000 000202
    001204  aa   000000 000000
    001205  aa   163040 040040     158  		vfd a36/s   ,36/i_n,36/001,36/(l_44-l_org)/5,36/0
    001206  aa   000000 000002
    001207  aa   000000 000001
    001210  aa   000000 000202
    001211  aa   000000 000000
    001212  aa   163040 040040     159  l_44:		vfd a36/s   ,36/i_r,36/r_division,36/(l_45-l_org)/5,36/0
    001213  aa   000000 000000
    001214  aa   000000 000136
    001215  aa   000000 000204
    001216  aa   000000 000000
    001217  aa   040040 040040     160  		vfd a36/    ,36/i_n,36/002,36/(r2dg-l_org)/5,36/a_60
    001220  aa   000000 000002
    001221  aa   000000 000002
    001222  aa   000000 001447
    001223  aa   000000 000074
    001224  aa   163040 040040     161  l_45:		vfd a36/s   ,36/i_r,36/r_per,36/(l_46-l_org)/5,36/0
    001225  aa   000000 000000
    001226  aa   000000 000275
    001227  aa   000000 000206
    001230  aa   000000 000000
    001231  aa   040040 040040     162  		vfd a36/    ,36/i_n,36/003,36/(l_46-l_org)/5,36/a_173
    001232  aa   000000 000002
    001233  aa   000000 000003
    001234  aa   000000 000206
    001235  aa   000000 000255
    001236  aa   040040 040040     163  l_46:		vfd a36/    ,36/i_r,36/r_configuration,36/(l_47-l_org)/5,36/0
    001237  aa   000000 000000
    001240  aa   000000 001006
    001241  aa   000000 000210
    001242  aa   000000 000000
    001243  aa   040040 040040     164  		vfd a36/    ,36/i_n,36/076,36/(r3dg-l_org)/5,36/a_60
    001244  aa   000000 000002
    001245  aa   000000 000114
    001246  aa   000000 001450
    001247  aa   000000 000074
    001250  aa   163040 040040     165  l_47:	ed_2:	vfd a36/s   ,36/i_c,36/c_areaa,36/(l_48-l_org)/5,36/0
    001251  aa   000000 000001
    001252  aa   000000 000003
    001253  aa   000000 000212
    001254  aa   000000 000000
    001255  aa   040040 040040     166  		vfd a36/    ,36/i_n,36/001,36/(l_48-l_org)/5,36/0
    001256  aa   000000 000002
    001257  aa   000000 000001
    001260  aa   000000 000212
    001261  aa   000000 000000
    001262  aa   163040 040040     167  l_48:		vfd a36/s   ,36/i_r,36/r_section,36/(l_49-l_org)/5,36/0
    001263  aa   000000 000000
    001264  aa   000000 000236
    001265  aa   000000 000214
    001266  aa   000000 000000
    001267  aa   040040 040040     168  		vfd a36/    ,36/i_n,36/012,36/(l_49-l_org)/5,36/0
    001270  aa   000000 000002
    001271  aa   000000 000014
    001272  aa   000000 000214
    001273  aa   000000 000000
    001274  aa   163040 040040     169  l_49:		vfd a36/s   ,36/i_r,36/r_per,36/(l_50-l_org)/5,36/0
    001275  aa   000000 000000
    001276  aa   000000 000275
    001277  aa   000000 000216
    001300  aa   000000 000000
    001301  aa   040040 040040     170  		vfd a36/    ,36/i_n,36/003,36/(l_50-l_org)/5,36/a_173
    001302  aa   000000 000002
    001303  aa   000000 000003
    001304  aa   000000 000216
    001305  aa   000000 000255
    001306  aa   040040 040040     171  l_50:		vfd a36/    ,36/i_r,36/r_source_computer,36/(l_51-l_org)/5,36/0
    001307  aa   000000 000000
    001310  aa   000000 001127
    001311  aa   000000 000220
    001312  aa   000000 000000
    001313  aa   040040 040040     172  		vfd a36/    ,36/i_n,36/077,36/(objcomp-l_org)/5,36/0
    001314  aa   000000 000002
    001315  aa   000000 000115
    001316  aa   000000 000251
    001317  aa   000000 000000
    001320  aa   163040 040040     173  l_51:	ed_3:	vfd a36/s   ,36/i_c,36/c_areaa,36/(l_52-l_org)/5,36/0
    001321  aa   000000 000001
    001322  aa   000000 000003
    001323  aa   000000 000222
    001324  aa   000000 000000
    001325  aa   163040 040040     174  		vfd a36/s   ,36/i_n,36/001,36/(l_52-l_org)/5,36/0
    001326  aa   000000 000002
    001327  aa   000000 000001
    001330  aa   000000 000222
    001331  aa   000000 000000
    001332  aa   163040 040040     175  l_52:		vfd a36/s   ,36/i_r,36/r_per,36/(l_53-l_org)/5,36/0
    001333  aa   000000 000000
    001334  aa   000000 000275
    001335  aa   000000 000224
    001336  aa   000000 000000
    001337  aa   040040 040040     176  		vfd a36/    ,36/i_n,36/003,36/(l_53-l_org)/5,36/a_173
    001340  aa   000000 000002
    001341  aa   000000 000003
    001342  aa   000000 000224
    001343  aa   000000 000255
    001344  aa   163040 040040     177  l_53:		vfd a36/s   ,36/i_c,36/0,36/(l_54-l_org)/5,36/a_48
    001345  aa   000000 000001
    001346  aa   000000 000000
    001347  aa   000000 000225
    001350  aa   000000 000060
    001351  aa   163040 040040     178  l_54:		vfd a36/s   ,36/i_c,36/c_sc_name,36/(sc_4-l_org)/5,36/a_2
    001352  aa   000000 000001
    001353  aa   000000 000056
    001354  aa   000000 000232
    001355  aa   000000 000002
    001356  aa   040040 040040     179  		vfd a36/    ,36/i_n,36/007,36/(l_55-l_org)/5,36/a_2
    001357  aa   000000 000002
    001360  aa   000000 000007
    001361  aa   000000 000227
    001362  aa   000000 000002
    001363  aa   163040 040040     180  l_55:	ed_5:	vfd a36/s   ,36/i_r,36/r_per,36/(objcomp-l_org)/5,36/0
    001364  aa   000000 000000
    001365  aa   000000 000275
    001366  aa   000000 000251
    001367  aa   000000 000000
    001370  aa   040040 040040     181  		vfd a36/    ,36/i_c,36/c_areaa,36/(objcomp-l_org)/5,36/0
    001371  aa   000000 000001
    001372  aa   000000 000003
    001373  aa   000000 000251
    001374  aa   000000 000000
    001375  aa   163040 040040     182  		vfd a36/s   ,36/i_n,36/0,36/(ed_5-l_org)/5,36/0
    001376  aa   000000 000002
    001377  aa   000000 000000
    001400  aa   000000 000227
    001401  aa   000000 000000
    001402  aa   040040 040040     183  	sc_4:	vfd a36/    ,36/i_c,36/c_comp_test,36/(l_56-l_org)/5,36/0
    001403  aa   000000 000001
    001404  aa   000000 000007
    001405  aa   000000 000234
    001406  aa   000000 000000
    001407  aa   040040 040040     184  		vfd a36/    ,36/i_n,36/009,36/(l_56-l_org)/5,36/0
    001410  aa   000000 000002
    001411  aa   000000 000011
    001412  aa   000000 000234
    001413  aa   000000 000000
    001414  aa   163040 040040     185  l_56:	sc_1:	vfd a36/s   ,36/i_r,36/r_with,36/(sc_2-l_org)/5,36/0
    001415  aa   000000 000000
    001416  aa   000000 000263
    001417  aa   000000 000242
    001420  aa   000000 000000
    001421  aa   040040 040040     186  l_57:		vfd a36/    ,36/i_r,36/r_debugging,36/(db_1-l_org)/5,36/a_3
    001422  aa   000000 000000
    001423  aa   000000 000130
    001424  aa   000000 000246
    001425  aa   000000 000003
    001426  aa   040040 040040     187  		vfd a36/    ,36/i_c,36/c_clorder,36/(l_58-l_org)/5,36/0
    001427  aa   000000 000001
    001430  aa   000000 000002
    001431  aa   000000 000240
    001432  aa   000000 000000
    001433  aa   040040 040040     188  		vfd a36/    ,36/i_n,36/015,36/(l_58-l_org)/5,36/0
    001434  aa   000000 000002
    001435  aa   000000 000017
    001436  aa   000000 000240
    001437  aa   000000 000000
    001440  aa   163040 040040     189  l_58:		vfd a36/s   ,36/i_r,36/r_per,36/(objcomp-l_org)/5,36/0
    001441  aa   000000 000000
    001442  aa   000000 000275
    001443  aa   000000 000251
    001444  aa   000000 000000
    001445  aa   040040 040040     190  		vfd a36/    ,36/i_n,36/003,36/(objcomp-l_org)/5,36/a_173
    001446  aa   000000 000002
    001447  aa   000000 000003
    001450  aa   000000 000251
    001451  aa   000000 000255
    001452  aa   040040 040040     191  	sc_2:	vfd a36/    ,36/i_r,36/r_debugging,36/(db_1-l_org)/5,36/a_3
    001453  aa   000000 000000
    001454  aa   000000 000130
    001455  aa   000000 000246
    001456  aa   000000 000003
    001457  aa   040040 040040     192  		vfd a36/    ,36/i_n,36/013,36/(r4dg-l_org)/5,36/a_60
    001460  aa   000000 000002
    001461  aa   000000 000015
    001462  aa   000000 001451
    001463  aa   000000 000074
    001464  aa   040040 040040     193  	sc_3:	vfd a36/    ,36/i_c,36/c_dupdef,36/(sc_1-l_org)/5,36/0
    001465  aa   000000 000001
    001466  aa   000000 000071
    001467  aa   000000 000234
    001470  aa   000000 000000
    001471  aa   040040 040040     194  		vfd a36/    ,36/i_n,36/080,36/(sc_1-l_org)/5,36/0
    001472  aa   000000 000002
    001473  aa   000000 000120
    001474  aa   000000 000234
    001475  aa   000000 000000
    001476  aa   163062 040040     195  	db_1:	vfd a36/s2  ,36/i_n,36/146,36/(l_59-l_org)/5,36/11
    001477  aa   000000 000002
    001500  aa   000000 000222
    001501  aa   000000 000247
    001502  aa   000000 000013
    001503  aa   163040 040040     196  l_59:		vfd a36/s   ,36/i_r,36/r_mode,36/(sc_3-l_org)/5,36/a_4
    001504  aa   000000 000000
    001505  aa   000000 000346
    001506  aa   000000 000244
    001507  aa   000000 000004
    001510  aa   040040 040040     197  		vfd a36/    ,36/i_n,36/014,36/(sc_3-l_org)/5,36/0
    001511  aa   000000 000002
    001512  aa   000000 000016
    001513  aa   000000 000244
    001514  aa   000000 000000
    001515  aa   040040 040040     198  	objcomp:	vfd a36/    ,36/i_r,36/r_object_computer,36/(l_60-l_org)/5,36/0
    001516  aa   000000 000000
    001517  aa   000000 001074
    001520  aa   000000 000253
    001521  aa   000000 000000
    001522  aa   040040 040040     199  		vfd a36/    ,36/i_n,36/078,36/(r6dg-l_org)/5,36/a_60
    001523  aa   000000 000002
    001524  aa   000000 000116
    001525  aa   000000 001453
    001526  aa   000000 000074
    001527  aa   163040 040040     200  l_60:	obj_1:	vfd a36/s   ,36/i_c,36/c_areaa,36/(l_61-l_org)/5,36/0
    001530  aa   000000 000001
    001531  aa   000000 000003
    001532  aa   000000 000255
    001533  aa   000000 000000
    001534  aa   163040 040040     201  		vfd a36/s   ,36/i_n,36/001,36/(l_61-l_org)/5,36/0
    001535  aa   000000 000002
    001536  aa   000000 000001
    001537  aa   000000 000255
    001540  aa   000000 000000
    001541  aa   163040 040040     202  l_61:		vfd a36/s   ,36/i_r,36/r_per,36/(l_62-l_org)/5,36/0
    001542  aa   000000 000000
    001543  aa   000000 000275
    001544  aa   000000 000257
    001545  aa   000000 000000
    001546  aa   040040 040040     203  		vfd a36/    ,36/i_n,36/003,36/(l_62-l_org)/5,36/a_173
    001547  aa   000000 000002
    001550  aa   000000 000003
    001551  aa   000000 000257
    001552  aa   000000 000255
    001553  aa   163040 040040     204  l_62:		vfd a36/s   ,36/i_c,36/0,36/(l_63-l_org)/5,36/a_48
    001554  aa   000000 000001
    001555  aa   000000 000000
    001556  aa   000000 000260
    001557  aa   000000 000060
    001560  aa   163040 040040     205  l_63:		vfd a36/s   ,36/i_c,36/c_oc_name,36/(oc_4-l_org)/5,36/a_5
    001561  aa   000000 000001
    001562  aa   000000 000032
    001563  aa   000000 000272
    001564  aa   000000 000005
    001565  aa   040040 040040     206  		vfd a36/    ,36/i_n,36/007,36/(l_64-l_org)/5,36/a_5
    001566  aa   000000 000002
    001567  aa   000000 000007
    001570  aa   000000 000262
    001571  aa   000000 000005
    001572  aa   163040 040040     207  l_64:	oc_5:	vfd a36/s   ,36/i_r,36/r_program,36/(pcs_1-l_org)/5,36/a_40
    001573  aa   000000 000000
    001574  aa   000000 000222
    001575  aa   000000 000307
    001576  aa   000000 000050
    001577  aa   163040 040040     208  		vfd a36/s   ,36/i_r,36/r_collating,36/(pcs_2-l_org)/5,36/a_40
    001600  aa   000000 000000
    001601  aa   000000 001003
    001602  aa   000000 000310
    001603  aa   000000 000050
    001604  aa   163040 040040     209  		vfd a36/s   ,36/i_r,36/r_sequence,36/(pcs_3-l_org)/5,36/a_6
    001605  aa   000000 000000
    001606  aa   000000 001113
    001607  aa   000000 000312
    001610  aa   000000 000006
    001611  aa   040040 040040     210  		vfd a36/    ,36/i_r,36/r_memory,36/(om_1-l_org)/5,36/a_6
    001612  aa   000000 000000
    001613  aa   000000 001070
    001614  aa   000000 000315
    001615  aa   000000 000006
    001616  aa   040040 040040     211  		vfd a36/    ,36/i_r,36/r_segment_limit,36/(segl_1-l_org)/5,36/a_6
    001617  aa   000000 000000
    001620  aa   000000 001123
    001621  aa   000000 000323
    001622  aa   000000 000006
    001623  aa   163040 040040     212  		vfd a36/s   ,36/i_r,36/r_per,36/(snp-l_org)/5,36/0
    001624  aa   000000 000000
    001625  aa   000000 000275
    001626  aa   000000 000331
    001627  aa   000000 000000
    001630  aa   040040 040040     213  		vfd a36/    ,36/i_c,36/c_areaa,36/(snp-l_org)/5,36/0
    001631  aa   000000 000001
    001632  aa   000000 000003
    001633  aa   000000 000331
    001634  aa   000000 000000
    001635  aa   163040 040040     214  		vfd a36/s   ,36/i_n,36/0,36/(oc_5-l_org)/5,36/0
    001636  aa   000000 000002
    001637  aa   000000 000000
    001640  aa   000000 000262
    001641  aa   000000 000000
    001642  aa   040040 040040     215  	oc_4:	vfd a36/    ,36/i_c,36/c_comp_test,36/(l_65-l_org)/5,36/0
    001643  aa   000000 000001
    001644  aa   000000 000007
    001645  aa   000000 000274
    001646  aa   000000 000000
    001647  aa   040040 040040     216  		vfd a36/    ,36/i_n,36/009,36/(l_65-l_org)/5,36/0
    001650  aa   000000 000002
    001651  aa   000000 000011
    001652  aa   000000 000274
    001653  aa   000000 000000
    001654  aa   163040 040040     217  l_65:	oc_1:	vfd a36/s   ,36/i_r,36/r_program,36/(pcs_1-l_org)/5,36/0
    001655  aa   000000 000000
    001656  aa   000000 000222
    001657  aa   000000 000307
    001660  aa   000000 000000
    001661  aa   163040 040040     218  		vfd a36/s   ,36/i_r,36/r_collating,36/(pcs_2-l_org)/5,36/0
    001662  aa   000000 000000
    001663  aa   000000 001003
    001664  aa   000000 000310
    001665  aa   000000 000000
    001666  aa   163040 040040     219  		vfd a36/s   ,36/i_r,36/r_sequence,36/(pcs_3-l_org)/5,36/a_6
    001667  aa   000000 000000
    001670  aa   000000 001113
    001671  aa   000000 000312
    001672  aa   000000 000006
    001673  aa   163040 040040     220  		vfd a36/s   ,36/i_r,36/r_memory,36/(om_1-l_org)/5,36/a_6
    001674  aa   000000 000000
    001675  aa   000000 001070
    001676  aa   000000 000315
    001677  aa   000000 000006
    001700  aa   040040 040040     221  		vfd a36/    ,36/i_r,36/r_segment_limit,36/(segl_1-l_org)/5,36/a_6
    001701  aa   000000 000000
    001702  aa   000000 001123
    001703  aa   000000 000323
    001704  aa   000000 000006
    001705  aa   040040 040040     222  		vfd a36/    ,36/i_c,36/c_clorder,36/(l_66-l_org)/5,36/0
    001706  aa   000000 000001
    001707  aa   000000 000002
    001710  aa   000000 000303
    001711  aa   000000 000000
    001712  aa   040040 040040     223  		vfd a36/    ,36/i_n,36/088,36/(l_66-l_org)/5,36/0
    001713  aa   000000 000002
    001714  aa   000000 000130
    001715  aa   000000 000303
    001716  aa   000000 000000
    001717  aa   163040 040040     224  l_66:		vfd a36/s   ,36/i_r,36/r_per,36/(snp-l_org)/5,36/0
    001720  aa   000000 000000
    001721  aa   000000 000275
    001722  aa   000000 000331
    001723  aa   000000 000000
    001724  aa   040040 040040     225  		vfd a36/    ,36/i_n,36/003,36/(snp-l_org)/5,36/a_173
    001725  aa   000000 000002
    001726  aa   000000 000003
    001727  aa   000000 000331
    001730  aa   000000 000255
    001731  aa   040040 040040     226  	oc_3:	vfd a36/    ,36/i_c,36/c_dupdef,36/(oc_1-l_org)/5,36/a_7
    001732  aa   000000 000001
    001733  aa   000000 000071
    001734  aa   000000 000274
    001735  aa   000000 000007
    001736  aa   040040 040040     227  		vfd a36/    ,36/i_n,36/080,36/(oc_1-l_org)/5,36/0
    001737  aa   000000 000002
    001740  aa   000000 000120
    001741  aa   000000 000274
    001742  aa   000000 000000
    001743  aa   163040 040040     228  	pcs_1:	vfd a36/s   ,36/i_r,36/r_collating,36/(l_67-l_org)/5,36/0
    001744  aa   000000 000000
    001745  aa   000000 001003
    001746  aa   000000 000310
    001747  aa   000000 000000
    001750  aa   163040 040040     229  l_67:	pcs_2:	vfd a36/s   ,36/i_r,36/r_sequence,36/(l_68-l_org)/5,36/a_8
    001751  aa   000000 000000
    001752  aa   000000 001113
    001753  aa   000000 000312
    001754  aa   000000 000010
    001755  aa   040040 040040     230  		vfd a36/    ,36/i_n,36/019,36/(l_68-l_org)/5,36/a_8
    001756  aa   000000 000002
    001757  aa   000000 000023
    001760  aa   000000 000312
    001761  aa   000000 000010
    001762  aa   163040 040040     231  l_68:	pcs_3:	vfd a36/s   ,36/i_r,36/r_is,36/(l_69-l_org)/5,36/0
    001763  aa   000000 000000
    001764  aa   000000 000166
    001765  aa   000000 000313
    001766  aa   000000 000000
    001767  aa   163040 040040     232  l_69:		vfd a36/s   ,36/i_c,36/c_alfnam,36/(oc_3-l_org)/5,36/a_63
    001770  aa   000000 000001
    001771  aa   000000 000001
    001772  aa   000000 000305
    001773  aa   000000 000077
    001774  aa   040040 040040     233  		vfd a36/    ,36/i_n,36/020,36/(r6dg-l_org)/5,36/a_60
    001775  aa   000000 000002
    001776  aa   000000 000024
    001777  aa   000000 001453
    002000  aa   000000 000074
    002001  aa   163040 040040     234  	om_1:	vfd a36/s   ,36/i_r,36/r_size,36/(l_70-l_org)/5,36/0
    002002  aa   000000 000000
    002003  aa   000000 000241
    002004  aa   000000 000316
    002005  aa   000000 000000
    002006  aa   163040 040040     235  l_70:		vfd a36/s   ,36/i_c,36/c_integr,36/(l_71-l_org)/5,36/0
    002007  aa   000000 000001
    002010  aa   000000 000037
    002011  aa   000000 000317
    002012  aa   000000 000000
    002013  aa   163040 040040     236  l_71:		vfd a36/s   ,36/i_r,36/r_characters,36/(oc_3-l_org)/5,36/0
    002014  aa   000000 000000
    002015  aa   000000 000123
    002016  aa   000000 000305
    002017  aa   000000 000000
    002020  aa   163040 040040     237  		vfd a36/s   ,36/i_r,36/r_words,36/(oc_3-l_org)/5,36/0
    002021  aa   000000 000000
    002022  aa   000000 001141
    002023  aa   000000 000305
    002024  aa   000000 000000
    002025  aa   163040 040040     238  		vfd a36/s   ,36/i_r,36/r_modules,36/(oc_3-l_org)/5,36/0
    002026  aa   000000 000000
    002027  aa   000000 001071
    002030  aa   000000 000305
    002031  aa   000000 000000
    002032  aa   040040 040040     239  		vfd a36/    ,36/i_n,36/070,36/(oc_3-l_org)/5,36/0
    002033  aa   000000 000002
    002034  aa   000000 000106
    002035  aa   000000 000305
    002036  aa   000000 000000
    002037  aa   163064 040040     240  	segl_1:	vfd a36/s4  ,36/i_n,36/46,36/(l_72-l_org)/5,36/8
    002040  aa   000000 000002
    002041  aa   000000 000056
    002042  aa   000000 000324
    002043  aa   000000 000010
    002044  aa   163040 040040     241  l_72:		vfd a36/s   ,36/i_r,36/r_is,36/(l_73-l_org)/5,36/0
    002045  aa   000000 000000
    002046  aa   000000 000166
    002047  aa   000000 000325
    002050  aa   000000 000000
    002051  aa   040040 040040     242  l_73:		vfd a36/    ,36/i_c,36/c_integr,36/(l_74-l_org)/5,36/0
    002052  aa   000000 000001
    002053  aa   000000 000037
    002054  aa   000000 000327
    002055  aa   000000 000000
    002056  aa   040040 040040     243  		vfd a36/    ,36/i_n,36/023,36/(r6dg-l_org)/5,36/a_60
    002057  aa   000000 000002
    002060  aa   000000 000027
    002061  aa   000000 001453
    002062  aa   000000 000074
    002063  aa   163040 040040     244  l_74:		vfd a36/s   ,36/i_c,36/c_smal50,36/(oc_3-l_org)/5,36/0
    002064  aa   000000 000001
    002065  aa   000000 000052
    002066  aa   000000 000305
    002067  aa   000000 000000
    002070  aa   163040 040040     245  		vfd a36/s   ,36/i_n,36/017,36/(oc_3-l_org)/5,36/0
    002071  aa   000000 000002
    002072  aa   000000 000021
    002073  aa   000000 000305
    002074  aa   000000 000000
    002075  aa   040040 040040     246  	snp:	vfd a36/    ,36/i_r,36/r_special_names,36/(snp_1-l_org)/5,36/a_13
    002076  aa   000000 000000
    002077  aa   000000 001130
    002100  aa   000000 000344
    002101  aa   000000 000015
    002102  aa   040040 040040     247  	snp_2:	vfd a36/    ,36/i_c,36/c_decptok,36/(l_75-l_org)/5,36/0
    002103  aa   000000 000001
    002104  aa   000000 000030
    002105  aa   000000 000334
    002106  aa   000000 000000
    002107  aa   040040 040040     248  		vfd a36/    ,36/i_n,36/024,36/(l_75-l_org)/5,36/0
    002110  aa   000000 000002
    002111  aa   000000 000030
    002112  aa   000000 000334
    002113  aa   000000 000000
    002114  aa   040040 040040     249  l_75:	snp_9:	vfd a36/    ,36/i_r,36/r_input_output,36/(ios-l_org)/5,36/0
    002115  aa   000000 000000
    002116  aa   000000 000167
    002117  aa   000000 000536
    002120  aa   000000 000000
    002121  aa   040040 040040     250  		vfd a36/    ,36/i_r,36/r_data,36/(l_76-l_org)/5,36/0
    002122  aa   000000 000000
    002123  aa   000000 000304
    002124  aa   000000 000337
    002125  aa   000000 000000
    002126  aa   040040 040040     251  		vfd a36/    ,36/i_n,36/100,36/(r77dg-l_org)/5,36/a_60
    002127  aa   000000 000002
    002130  aa   000000 000144
    002131  aa   000000 001455
    002132  aa   000000 000074
    002133  aa   163040 040040     252  l_76:	div:	vfd a36/s   ,36/i_c,36/c_areaa,36/(l_77-l_org)/5,36/0
    002134  aa   000000 000001
    002135  aa   000000 000003
    002136  aa   000000 000341
    002137  aa   000000 000000
    002140  aa   163040 040040     253  		vfd a36/s   ,36/i_n,36/001,36/(l_77-l_org)/5,36/0
    002141  aa   000000 000002
    002142  aa   000000 000001
    002143  aa   000000 000341
    002144  aa   000000 000000
    002145  aa   163040 040040     254  l_77:		vfd a36/s   ,36/i_r,36/r_division,36/(l_78-l_org)/5,36/0
    002146  aa   000000 000000
    002147  aa   000000 000136
    002150  aa   000000 000343
    002151  aa   000000 000000
    002152  aa   040040 040040     255  		vfd a36/    ,36/i_n,36/002,36/(l_78-l_org)/5,36/0
    002153  aa   000000 000002
    002154  aa   000000 000002
    002155  aa   000000 000343
    002156  aa   000000 000000
    002157  aa   040040 040040     256  l_78:	exit:	vfd a36/    ,36/i_n,36/0,36/(exit-l_org)/5,36/a_61
    002160  aa   000000 000002
    002161  aa   000000 000000
    002162  aa   000000 000343
    002163  aa   000000 000075
    002164  aa   163040 040040     257  	snp_1:	vfd a36/s   ,36/i_c,36/c_areaa,36/(l_79-l_org)/5,36/0
    002165  aa   000000 000001
    002166  aa   000000 000003
    002167  aa   000000 000346
    002170  aa   000000 000000
    002171  aa   163040 040040     258  		vfd a36/s   ,36/i_n,36/001,36/(l_79-l_org)/5,36/0
    002172  aa   000000 000002
    002173  aa   000000 000001
    002174  aa   000000 000346
    002175  aa   000000 000000
    002176  aa   163040 040040     259  l_79:		vfd a36/s   ,36/i_r,36/r_per,36/(l_80-l_org)/5,36/0
    002177  aa   000000 000000
    002200  aa   000000 000275
    002201  aa   000000 000350
    002202  aa   000000 000000
    002203  aa   163040 040040     260  		vfd a36/s   ,36/i_n,36/003,36/(l_80-l_org)/5,36/a_173
    002204  aa   000000 000002
    002205  aa   000000 000003
    002206  aa   000000 000350
    002207  aa   000000 000255
    002210  aa   163040 040040     261  l_80:		vfd a36/s   ,36/i_r,36/r_currency,36/(curr-l_org)/5,36/a_14
    002211  aa   000000 000000
    002212  aa   000000 001015
    002213  aa   000000 000443
    002214  aa   000000 000016
    002215  aa   163040 040040     262  		vfd a36/s   ,36/i_r,36/r_decimal_point,36/(dec-l_org)/5,36/a_14
    002216  aa   000000 000000
    002217  aa   000000 001032
    002220  aa   000000 000455
    002221  aa   000000 000016
    002222  aa   163040 040040     263  		vfd a36/s   ,36/i_r,36/r_alphabet,36/(alf-l_org)/5,36/a_14
    002223  aa   000000 000000
    002224  aa   000000 000770
    002225  aa   000000 000470
    002226  aa   000000 000016
    002227  aa   163040 040040     264  		vfd a36/s   ,36/i_c,36/c_leftname,36/(snp_4-l_org)/5,36/0
    002230  aa   000000 000001
    002231  aa   000000 000031
    002232  aa   000000 000370
    002233  aa   000000 000000
    002234  aa   040040 040040     265  		vfd a36/    ,36/i_n,36/0,36/(snp_9-l_org)/5,36/0
    002235  aa   000000 000002
    002236  aa   000000 000000
    002237  aa   000000 000334
    002240  aa   000000 000000
    002241  aa   163040 040040     266  	snp_3:	vfd a36/s   ,36/i_r,36/r_currency,36/(curr-l_org)/5,36/a_14
    002242  aa   000000 000000
    002243  aa   000000 001015
    002244  aa   000000 000443
    002245  aa   000000 000016
    002246  aa   163040 040040     267  		vfd a36/s   ,36/i_r,36/r_decimal_point,36/(dec-l_org)/5,36/a_14
    002247  aa   000000 000000
    002250  aa   000000 001032
    002251  aa   000000 000455
    002252  aa   000000 000016
    002253  aa   163040 040040     268  		vfd a36/s   ,36/i_r,36/r_alphabet,36/(alf-l_org)/5,36/a_14
    002254  aa   000000 000000
    002255  aa   000000 000770
    002256  aa   000000 000470
    002257  aa   000000 000016
    002260  aa   163040 040040     269  		vfd a36/s   ,36/i_c,36/c_leftname,36/(snp_4-l_org)/5,36/0
    002261  aa   000000 000001
    002262  aa   000000 000031
    002263  aa   000000 000370
    002264  aa   000000 000000
    002265  aa   163040 040040     270  		vfd a36/s   ,36/i_r,36/r_per,36/(l_81-l_org)/5,36/0
    002266  aa   000000 000000
    002267  aa   000000 000275
    002270  aa   000000 000364
    002271  aa   000000 000000
    002272  aa   040040 040040     271  		vfd a36/    ,36/i_c,36/c_decptok,36/(l_81-l_org)/5,36/0
    002273  aa   000000 000001
    002274  aa   000000 000030
    002275  aa   000000 000364
    002276  aa   000000 000000
    002277  aa   040040 040040     272  		vfd a36/    ,36/i_n,36/024,36/(l_81-l_org)/5,36/0
    002300  aa   000000 000002
    002301  aa   000000 000030
    002302  aa   000000 000364
    002303  aa   000000 000000
    002304  aa   040040 040040     273  l_81:		vfd a36/    ,36/i_c,36/c_clorder,36/(snp_9-l_org)/5,36/0
    002305  aa   000000 000001
    002306  aa   000000 000002
    002307  aa   000000 000334
    002310  aa   000000 000000
    002311  aa   040040 040040     274  		vfd a36/    ,36/i_n,36/026,36/(snp_9-l_org)/5,36/0
    002312  aa   000000 000002
    002313  aa   000000 000032
    002314  aa   000000 000334
    002315  aa   000000 000000
    002316  aa   040040 040040     275  	snp_5:	vfd a36/    ,36/i_c,36/c_dupdef,36/(snp_3-l_org)/5,36/a_65
    002317  aa   000000 000001
    002320  aa   000000 000071
    002321  aa   000000 000355
    002322  aa   000000 000101
    002323  aa   040040 040040     276  		vfd a36/    ,36/i_n,36/080,36/(snp_3-l_org)/5,36/0
    002324  aa   000000 000002
    002325  aa   000000 000120
    002326  aa   000000 000355
    002327  aa   000000 000000
    002330  aa   163040 040040     277  	snp_4:	vfd a36/s   ,36/i_r,36/r_is,36/(l_82-l_org)/5,36/0
    002331  aa   000000 000000
    002332  aa   000000 000166
    002333  aa   000000 000373
    002334  aa   000000 000000
    002335  aa   040040 040040     278  		vfd a36/    ,36/i_r,36/r_on,36/(sw_1-l_org)/5,36/0
    002336  aa   000000 000000
    002337  aa   000000 000206
    002340  aa   000000 000415
    002341  aa   000000 000000
    002342  aa   040040 040040     279  		vfd a36/    ,36/i_r,36/r_off,36/(sw_1-l_org)/5,36/0
    002343  aa   000000 000000
    002344  aa   000000 001076
    002345  aa   000000 000415
    002346  aa   000000 000000
    002347  aa   040040 040040     280  l_82:		vfd a36/    ,36/i_c,36/c_alphanmlit,36/(alf_1-l_org)/5,36/a_21
    002350  aa   000000 000001
    002351  aa   000000 000063
    002352  aa   000000 000500
    002353  aa   000000 000025
    002354  aa   040040 040040     281  		vfd a36/    ,36/i_c,36/c_integr,36/(alf_1-l_org)/5,36/a_21
    002355  aa   000000 000001
    002356  aa   000000 000037
    002357  aa   000000 000500
    002360  aa   000000 000025
    002361  aa   040040 040040     282  		vfd a36/    ,36/i_c,36/c_figcon,36/(alf_1-l_org)/5,36/a_21
    002362  aa   000000 000001
    002363  aa   000000 000045
    002364  aa   000000 000500
    002365  aa   000000 000025
    002366  aa   163040 040040     283  		vfd a36/s   ,36/i_c,36/c_rightname,36/(snp_6-l_org)/5,36/0
    002367  aa   000000 000001
    002370  aa   000000 000040
    002371  aa   000000 000400
    002372  aa   000000 000000
    002373  aa   040040 040040     284  		vfd a36/    ,36/i_n,36/030,36/(r7dg-l_org)/5,36/a_60
    002374  aa   000000 000002
    002375  aa   000000 000036
    002376  aa   000000 001454
    002377  aa   000000 000074
    002400  aa   040040 040040     285  	snp_6:	vfd a36/    ,36/i_r,36/r_on,36/(sw_2-l_org)/5,36/a_22
    002401  aa   000000 000000
    002402  aa   000000 000206
    002403  aa   000000 000436
    002404  aa   000000 000026
    002405  aa   040040 040040     286  		vfd a36/    ,36/i_r,36/r_off,36/(sw_2-l_org)/5,36/a_22
    002406  aa   000000 000000
    002407  aa   000000 001076
    002410  aa   000000 000436
    002411  aa   000000 000026
    002412  aa   040040 040040     287  		vfd a36/    ,36/i_c,36/c_sncl,36/(l_83-l_org)/5,36/0
    002413  aa   000000 000001
    002414  aa   000000 000044
    002415  aa   000000 000403
    002416  aa   000000 000000
    002417  aa   040040 040040     288  l_83:		vfd a36/    ,36/i_c,36/c_is_dev,36/(snp_7-l_org)/5,36/0
    002420  aa   000000 000001
    002421  aa   000000 000022
    002422  aa   000000 000407
    002423  aa   000000 000000
    002424  aa   040040 040040     289  		vfd a36/    ,36/i_c,36/c_is_alf,36/(snp_5-l_org)/5,36/a_66
    002425  aa   000000 000001
    002426  aa   000000 000023
    002427  aa   000000 000366
    002430  aa   000000 000102
    002431  aa   040040 040040     290  		vfd a36/    ,36/i_c,36/c_is_sw,36/(snp_8-l_org)/5,36/0
    002432  aa   000000 000001
    002433  aa   000000 000026
    002434  aa   000000 000412
    002435  aa   000000 000000
    002436  aa   040040 040040     291  		vfd a36/    ,36/i_n,36/035,36/(r7dg-l_org)/5,36/a_60
    002437  aa   000000 000002
    002440  aa   000000 000043
    002441  aa   000000 001454
    002442  aa   000000 000074
    002443  aa   040040 040040     292  	snp_7:	vfd a36/    ,36/i_c,36/c_dupdev,36/(l_84-l_org)/5,36/a_97
    002444  aa   000000 000001
    002445  aa   000000 000010
    002446  aa   000000 000411
    002447  aa   000000 000141
    002450  aa   040040 040040     293  		vfd a36/    ,36/i_n,36/080,36/(l_84-l_org)/5,36/0
    002451  aa   000000 000002
    002452  aa   000000 000120
    002453  aa   000000 000411
    002454  aa   000000 000000
    002455  aa   040040 040040     294  l_84:		vfd a36/    ,36/i_n,36/0,36/(snp_3-l_org)/5,36/a_65
    002456  aa   000000 000002
    002457  aa   000000 000000
    002460  aa   000000 000355
    002461  aa   000000 000101
    002462  aa   040040 040040     295  	snp_8:	vfd a36/    ,36/i_c,36/c_dupsw,36/(l_85-l_org)/5,36/a_22
    002463  aa   000000 000001
    002464  aa   000000 000011
    002465  aa   000000 000414
    002466  aa   000000 000026
    002467  aa   040040 040040     296  		vfd a36/    ,36/i_n,36/080,36/(l_85-l_org)/5,36/0
    002470  aa   000000 000002
    002471  aa   000000 000120
    002472  aa   000000 000414
    002473  aa   000000 000000
    002474  aa   040040 040040     297  l_85:		vfd a36/    ,36/i_n,36/0,36/(snp_3-l_org)/5,36/a_65
    002475  aa   000000 000002
    002476  aa   000000 000000
    002477  aa   000000 000355
    002500  aa   000000 000101
    002501  aa   040040 040040     298  	sw_1:	vfd a36/    ,36/i_r,36/r_on,36/(l_86-l_org)/5,36/0
    002502  aa   000000 000000
    002503  aa   000000 000206
    002504  aa   000000 000420
    002505  aa   000000 000000
    002506  aa   040040 040040     299  		vfd a36/    ,36/i_r,36/r_off,36/(l_86-l_org)/5,36/0
    002507  aa   000000 000000
    002510  aa   000000 001076
    002511  aa   000000 000420
    002512  aa   000000 000000
    002513  aa   040040 040040     300  		vfd a36/    ,36/i_n,36/097,36/(r7dg-l_org)/5,36/a_60
    002514  aa   000000 000002
    002515  aa   000000 000141
    002516  aa   000000 001454
    002517  aa   000000 000074
    002520  aa   163040 040040     301  l_86:		vfd a36/s   ,36/i_c,36/c_switch,36/(l_87-l_org)/5,36/0
    002521  aa   000000 000001
    002522  aa   000000 000061
    002523  aa   000000 000422
    002524  aa   000000 000000
    002525  aa   040040 040040     302  		vfd a36/    ,36/i_n,36/031,36/(r7dg-l_org)/5,36/a_60
    002526  aa   000000 000002
    002527  aa   000000 000037
    002530  aa   000000 001454
    002531  aa   000000 000074
    002532  aa   163040 040040     303  l_87:	sw_3:	vfd a36/s   ,36/i_r,36/r_status,36/(l_88-l_org)/5,36/0
    002533  aa   000000 000000
    002534  aa   000000 000367
    002535  aa   000000 000423
    002536  aa   000000 000000
    002537  aa   163040 040040     304  l_88:		vfd a36/s   ,36/i_r,36/r_is,36/(l_89-l_org)/5,36/0
    002540  aa   000000 000000
    002541  aa   000000 000166
    002542  aa   000000 000424
    002543  aa   000000 000000
    002544  aa   163040 040040     305  l_89:		vfd a36/s   ,36/i_c,36/c_usrwd,36/(l_90-l_org)/5,36/a_23
    002545  aa   000000 000001
    002546  aa   000000 000060
    002547  aa   000000 000426
    002550  aa   000000 000027
    002551  aa   040040 040040     306  		vfd a36/    ,36/i_n,36/032,36/(r7dg-l_org)/5,36/a_60
    002552  aa   000000 000002
    002553  aa   000000 000040
    002554  aa   000000 001454
    002555  aa   000000 000074
    002556  aa   040040 040040     307  l_90:		vfd a36/    ,36/i_r,36/r_on,36/(l_91-l_org)/5,36/0
    002557  aa   000000 000000
    002560  aa   000000 000206
    002561  aa   000000 000431
    002562  aa   000000 000000
    002563  aa   040040 040040     308  		vfd a36/    ,36/i_r,36/r_off,36/(l_91-l_org)/5,36/0
    002564  aa   000000 000000
    002565  aa   000000 001076
    002566  aa   000000 000431
    002567  aa   000000 000000
    002570  aa   040040 040040     309  		vfd a36/    ,36/i_n,36/0,36/(snp_3-l_org)/5,36/0
    002571  aa   000000 000002
    002572  aa   000000 000000
    002573  aa   000000 000355
    002574  aa   000000 000000
    002575  aa   163040 040040     310  l_91:		vfd a36/s   ,36/i_c,36/c_switch_2,36/(l_92-l_org)/5,36/0
    002576  aa   000000 000001
    002577  aa   000000 000015
    002600  aa   000000 000432
    002601  aa   000000 000000
    002602  aa   163040 040040     311  l_92:		vfd a36/s   ,36/i_r,36/r_status,36/(l_93-l_org)/5,36/0
    002603  aa   000000 000000
    002604  aa   000000 000367
    002605  aa   000000 000433
    002606  aa   000000 000000
    002607  aa   163040 040040     312  l_93:		vfd a36/s   ,36/i_r,36/r_is,36/(l_94-l_org)/5,36/0
    002610  aa   000000 000000
    002611  aa   000000 000166
    002612  aa   000000 000434
    002613  aa   000000 000000
    002614  aa   163040 040040     313  l_94:		vfd a36/s   ,36/i_c,36/c_usrwd,36/(snp_3-l_org)/5,36/a_23
    002615  aa   000000 000001
    002616  aa   000000 000060
    002617  aa   000000 000355
    002620  aa   000000 000027
    002621  aa   040040 040040     314  		vfd a36/    ,36/i_n,36/032,36/(r7dg-l_org)/5,36/a_60
    002622  aa   000000 000002
    002623  aa   000000 000040
    002624  aa   000000 001454
    002625  aa   000000 000074
    002626  aa   040040 040040     315  	sw_2:	vfd a36/    ,36/i_r,36/r_on,36/(l_95-l_org)/5,36/0
    002627  aa   000000 000000
    002630  aa   000000 000206
    002631  aa   000000 000441
    002632  aa   000000 000000
    002633  aa   040040 040040     316  		vfd a36/    ,36/i_r,36/r_off,36/(l_95-l_org)/5,36/0
    002634  aa   000000 000000
    002635  aa   000000 001076
    002636  aa   000000 000441
    002637  aa   000000 000000
    002640  aa   040040 040040     317  		vfd a36/    ,36/i_n,36/097,36/(r7dg-l_org)/5,36/a_60
    002641  aa   000000 000002
    002642  aa   000000 000141
    002643  aa   000000 001454
    002644  aa   000000 000074
    002645  aa   163040 040040     318  l_95:		vfd a36/s   ,36/i_c,36/c_switch_1,36/(sw_3-l_org)/5,36/0
    002646  aa   000000 000001
    002647  aa   000000 000062
    002650  aa   000000 000422
    002651  aa   000000 000000
    002652  aa   040040 040040     319  		vfd a36/    ,36/i_n,36/033,36/(r7dg-l_org)/5,36/a_60
    002653  aa   000000 000002
    002654  aa   000000 000041
    002655  aa   000000 001454
    002656  aa   000000 000074
    002657  aa   163040 040040     320  	curr:	vfd a36/s   ,36/i_r,36/r_sign,36/(l_96-l_org)/5,36/0
    002660  aa   000000 000000
    002661  aa   000000 000365
    002662  aa   000000 000444
    002663  aa   000000 000000
    002664  aa   163040 040040     321  l_96:		vfd a36/s   ,36/i_r,36/r_is,36/(l_97-l_org)/5,36/0
    002665  aa   000000 000000
    002666  aa   000000 000166
    002667  aa   000000 000445
    002670  aa   000000 000000
    002671  aa   163040 040040     322  l_97:		vfd a36/s   ,36/i_c,36/c_currlit,36/(l_98-l_org)/5,36/a_19
    002672  aa   000000 000001
    002673  aa   000000 000027
    002674  aa   000000 000447
    002675  aa   000000 000023
    002676  aa   040040 040040     323  		vfd a36/    ,36/i_n,36/027,36/(r7dg-l_org)/5,36/a_60
    002677  aa   000000 000002
    002700  aa   000000 000033
    002701  aa   000000 001454
    002702  aa   000000 000074
    002703  aa   163065 040040     324  l_98:		vfd a36/s5  ,36/i_r,36/r_object,36/(l_99-l_org)/5,36/115
    002704  aa   000000 000000
    002705  aa   000000 000443
    002706  aa   000000 000451
    002707  aa   000000 000163
    002710  aa   040040 040040     325  		vfd a36/    ,36/i_n,36/0,36/(snp_5-l_org)/5,36/a_20
    002711  aa   000000 000002
    002712  aa   000000 000000
    002713  aa   000000 000366
    002714  aa   000000 000024
    002715  aa   163040 040040     326  l_99:		vfd a36/s   ,36/i_r,36/r_sign,36/(l_100-l_org)/5,36/0
    002716  aa   000000 000000
    002717  aa   000000 000365
    002720  aa   000000 000452
    002721  aa   000000 000000
    002722  aa   163040 040040     327  l_100:		vfd a36/s   ,36/i_r,36/r_is,36/(l_101-l_org)/5,36/0
    002723  aa   000000 000000
    002724  aa   000000 000166
    002725  aa   000000 000453
    002726  aa   000000 000000
    002727  aa   163040 040040     328  l_101:		vfd a36/s   ,36/i_c,36/c_currlit,36/(snp_5-l_org)/5,36/a_64
    002730  aa   000000 000001
    002731  aa   000000 000027
    002732  aa   000000 000366
    002733  aa   000000 000100
    002734  aa   040040 040040     329  		vfd a36/    ,36/i_n,36/027,36/(r7dg-l_org)/5,36/a_60
    002735  aa   000000 000002
    002736  aa   000000 000033
    002737  aa   000000 001454
    002740  aa   000000 000074
    002741  aa   163040 040040     330  	dec:	vfd a36/s   ,36/i_r,36/r_is,36/(l_102-l_org)/5,36/0
    002742  aa   000000 000000
    002743  aa   000000 000166
    002744  aa   000000 000456
    002745  aa   000000 000000
    002746  aa   163040 040040     331  l_102:		vfd a36/s   ,36/i_r,36/r_comma,36/(dec_1-l_org)/5,36/a_16
    002747  aa   000000 000000
    002750  aa   000000 001005
    002751  aa   000000 000462
    002752  aa   000000 000020
    002753  aa   040040 040040     332  		vfd a36/    ,36/i_r,36/r_decimal_point,36/(l_103-l_org)/5,36/0
    002754  aa   000000 000000
    002755  aa   000000 001032
    002756  aa   000000 000461
    002757  aa   000000 000000
    002760  aa   040040 040040     333  		vfd a36/    ,36/i_n,36/025,36/(r7dg-l_org)/5,36/a_60
    002761  aa   000000 000002
    002762  aa   000000 000031
    002763  aa   000000 001454
    002764  aa   000000 000074
    002765  aa   163065 040040     334  l_103:		vfd a36/s5  ,36/i_n,36/138,36/(l_104-l_org)/5,36/25
    002766  aa   000000 000002
    002767  aa   000000 000212
    002770  aa   000000 000462
    002771  aa   000000 000031
    002772  aa   163065 040040     335  l_104:	dec_1:	vfd a36/s5  ,36/i_r,36/r_object,36/(l_105-l_org)/5,36/163
    002773  aa   000000 000000
    002774  aa   000000 000443
    002775  aa   000000 000464
    002776  aa   000000 000243
    002777  aa   040040 040040     336  		vfd a36/    ,36/i_n,36/0,36/(snp_5-l_org)/5,36/0
    003000  aa   000000 000002
    003001  aa   000000 000000
    003002  aa   000000 000366
    003003  aa   000000 000000
    003004  aa   163040 040040     337  l_105:		vfd a36/s   ,36/i_r,36/r_is,36/(l_106-l_org)/5,36/0
    003005  aa   000000 000000
    003006  aa   000000 000166
    003007  aa   000000 000465
    003010  aa   000000 000000
    003011  aa   163040 040040     338  l_106:		vfd a36/s   ,36/i_r,36/r_comma,36/(snp_5-l_org)/5,36/a_17
    003012  aa   000000 000000
    003013  aa   000000 001005
    003014  aa   000000 000366
    003015  aa   000000 000021
    003016  aa   163040 040040     339  		vfd a36/s   ,36/i_r,36/r_decimal_point,36/(snp_5-l_org)/5,36/a_52
    003017  aa   000000 000000
    003020  aa   000000 001032
    003021  aa   000000 000366
    003022  aa   000000 000064
    003023  aa   040040 040040     340  		vfd a36/    ,36/i_n,36/025,36/(r7dg-l_org)/5,36/a_60
    003024  aa   000000 000002
    003025  aa   000000 000031
    003026  aa   000000 001454
    003027  aa   000000 000074
    003030  aa   163040 040040     341  	alf:	vfd a36/s   ,36/i_c,36/c_leftname,36/(l_107-l_org)/5,36/0
    003031  aa   000000 000001
    003032  aa   000000 000031
    003033  aa   000000 000472
    003034  aa   000000 000000
    003035  aa   040040 040040     342  		vfd a36/    ,36/i_n,36/034,36/(r7dg-l_org)/5,36/0
    003036  aa   000000 000002
    003037  aa   000000 000042
    003040  aa   000000 001454
    003041  aa   000000 000000
    003042  aa   163040 040040     343  l_107:		vfd a36/s   ,36/i_r,36/r_is,36/(l_108-l_org)/5,36/0
    003043  aa   000000 000000
    003044  aa   000000 000166
    003045  aa   000000 000473
    003046  aa   000000 000000
    003047  aa   040040 040040     344  l_108:		vfd a36/    ,36/i_c,36/c_alphanmlit,36/(l_109-l_org)/5,36/a_21
    003050  aa   000000 000001
    003051  aa   000000 000063
    003052  aa   000000 000500
    003053  aa   000000 000025
    003054  aa   040040 040040     345  		vfd a36/    ,36/i_c,36/c_integr,36/(l_109-l_org)/5,36/a_21
    003055  aa   000000 000001
    003056  aa   000000 000037
    003057  aa   000000 000500
    003060  aa   000000 000025
    003061  aa   040040 040040     346  		vfd a36/    ,36/i_c,36/c_figcon,36/(l_109-l_org)/5,36/a_21
    003062  aa   000000 000001
    003063  aa   000000 000045
    003064  aa   000000 000500
    003065  aa   000000 000025
    003066  aa   163040 040040     347  		vfd a36/s   ,36/i_c,36/c_rightname,36/(snp_6-l_org)/5,36/0
    003067  aa   000000 000001
    003070  aa   000000 000040
    003071  aa   000000 000400
    003072  aa   000000 000000
    003073  aa   040040 040040     348  		vfd a36/    ,36/i_n,36/085,36/(r7dg-l_org)/5,36/a_60
    003074  aa   000000 000002
    003075  aa   000000 000125
    003076  aa   000000 001454
    003077  aa   000000 000074
    003100  aa   163040 040040     349  l_109:	alf_1:	vfd a36/s   ,36/i_c,36/c_alphanmlit,36/(l_110-l_org)/5,36/a_44
    003101  aa   000000 000001
    003102  aa   000000 000063
    003103  aa   000000 000504
    003104  aa   000000 000054
    003105  aa   163040 040040     350  		vfd a36/s   ,36/i_c,36/c_integr,36/(l_110-l_org)/5,36/a_44
    003106  aa   000000 000001
    003107  aa   000000 000037
    003110  aa   000000 000504
    003111  aa   000000 000054
    003112  aa   163040 040040     351  		vfd a36/s   ,36/i_c,36/c_figcon,36/(l_110-l_org)/5,36/a_44
    003113  aa   000000 000001
    003114  aa   000000 000045
    003115  aa   000000 000504
    003116  aa   000000 000054
    003117  aa   040040 040040     352  		vfd a36/    ,36/i_n,36/028,36/(r7dg-l_org)/5,36/a_60
    003120  aa   000000 000002
    003121  aa   000000 000034
    003122  aa   000000 001454
    003123  aa   000000 000074
    003124  aa   163040 040040     353  l_110:	alf_2:	vfd a36/s   ,36/i_r,36/r_thru,36/(l_111-l_org)/5,36/a_67
    003125  aa   000000 000000
    003126  aa   000000 000246
    003127  aa   000000 000507
    003130  aa   000000 000103
    003131  aa   163040 040040     354  		vfd a36/s   ,36/i_r,36/r_also,36/(alf_3-l_org)/5,36/a_67
    003132  aa   000000 000000
    003133  aa   000000 000140
    003134  aa   000000 000514
    003135  aa   000000 000103
    003136  aa   040040 040040     355  		vfd a36/    ,36/i_n,36/0,36/(alf_4-l_org)/5,36/a_72
    003137  aa   000000 000002
    003140  aa   000000 000000
    003141  aa   000000 000522
    003142  aa   000000 000110
    003143  aa   163040 040040     356  l_111:		vfd a36/s   ,36/i_c,36/c_alphanmlit,36/(l_112-l_org)/5,36/a_68
    003144  aa   000000 000001
    003145  aa   000000 000063
    003146  aa   000000 000513
    003147  aa   000000 000104
    003150  aa   163040 040040     357  		vfd a36/s   ,36/i_c,36/c_integr,36/(l_112-l_org)/5,36/a_68
    003151  aa   000000 000001
    003152  aa   000000 000037
    003153  aa   000000 000513
    003154  aa   000000 000104
    003155  aa   163040 040040     358  		vfd a36/s   ,36/i_c,36/c_figcon,36/(l_112-l_org)/5,36/a_68
    003156  aa   000000 000001
    003157  aa   000000 000045
    003160  aa   000000 000513
    003161  aa   000000 000104
    003162  aa   040040 040040     359  		vfd a36/    ,36/i_n,36/028,36/(r7dg-l_org)/5,36/a_60
    003163  aa   000000 000002
    003164  aa   000000 000034
    003165  aa   000000 001454
    003166  aa   000000 000074
    003167  aa   040040 040040     360  l_112:		vfd a36/    ,36/i_n,36/0,36/(alf_4-l_org)/5,36/a_70
    003170  aa   000000 000002
    003171  aa   000000 000000
    003172  aa   000000 000522
    003173  aa   000000 000106
    003174  aa   163040 040040     361  	alf_3:	vfd a36/s   ,36/i_c,36/c_alphanmlit,36/(l_113-l_org)/5,36/a_68
    003175  aa   000000 000001
    003176  aa   000000 000063
    003177  aa   000000 000520
    003200  aa   000000 000104
    003201  aa   163040 040040     362  		vfd a36/s   ,36/i_c,36/c_integr,36/(l_113-l_org)/5,36/a_68
    003202  aa   000000 000001
    003203  aa   000000 000037
    003204  aa   000000 000520
    003205  aa   000000 000104
    003206  aa   163040 040040     363  		vfd a36/s   ,36/i_c,36/c_figcon,36/(l_113-l_org)/5,36/a_68
    003207  aa   000000 000001
    003210  aa   000000 000045
    003211  aa   000000 000520
    003212  aa   000000 000104
    003213  aa   040040 040040     364  		vfd a36/    ,36/i_n,36/028,36/(r7dg-l_org)/5,36/a_60
    003214  aa   000000 000002
    003215  aa   000000 000034
    003216  aa   000000 001454
    003217  aa   000000 000074
    003220  aa   163040 040040     365  l_113:		vfd a36/s   ,36/i_r,36/r_also,36/(alf_3-l_org)/5,36/a_69
    003221  aa   000000 000000
    003222  aa   000000 000140
    003223  aa   000000 000514
    003224  aa   000000 000105
    003225  aa   040040 040040     366  		vfd a36/    ,36/i_n,36/0,36/(alf_4-l_org)/5,36/a_70
    003226  aa   000000 000002
    003227  aa   000000 000000
    003230  aa   000000 000522
    003231  aa   000000 000106
    003232  aa   163040 040040     367  	alf_4:	vfd a36/s   ,36/i_c,36/c_alphanmlit,36/(alf_2-l_org)/5,36/a_44
    003233  aa   000000 000001
    003234  aa   000000 000063
    003235  aa   000000 000504
    003236  aa   000000 000054
    003237  aa   163040 040040     368  		vfd a36/s   ,36/i_c,36/c_integr,36/(alf_2-l_org)/5,36/a_44
    003240  aa   000000 000001
    003241  aa   000000 000037
    003242  aa   000000 000504
    003243  aa   000000 000054
    003244  aa   163040 040040     369  		vfd a36/s   ,36/i_c,36/c_figcon,36/(alf_2-l_org)/5,36/a_44
    003245  aa   000000 000001
    003246  aa   000000 000045
    003247  aa   000000 000504
    003250  aa   000000 000054
    003251  aa   163040 040040     370  		vfd a36/s   ,36/i_r,36/r_character,36/(l_114-l_org)/5,36/a_53
    003252  aa   000000 000000
    003253  aa   000000 000123
    003254  aa   000000 000527
    003255  aa   000000 000065
    003256  aa   040040 040040     371  		vfd a36/    ,36/i_n,36/0,36/(snp_5-l_org)/5,36/a_53
    003257  aa   000000 000002
    003260  aa   000000 000000
    003261  aa   000000 000366
    003262  aa   000000 000065
    003263  aa   163040 040040     372  l_114:		vfd a36/s   ,36/i_r,36/r_size,36/(l_115-l_org)/5,36/0
    003264  aa   000000 000000
    003265  aa   000000 000241
    003266  aa   000000 000531
    003267  aa   000000 000000
    003270  aa   040040 040040     373  		vfd a36/    ,36/i_n,36/029,36/(l_115-l_org)/5,36/0
    003271  aa   000000 000002
    003272  aa   000000 000035
    003273  aa   000000 000531
    003274  aa   000000 000000
    003275  aa   040040 040040     374  l_115:		vfd a36/    ,36/i_r,36/r_is,36/(l_116-l_org)/5,36/0
    003276  aa   000000 000000
    003277  aa   000000 000166
    003300  aa   000000 000532
    003301  aa   000000 000000
    003302  aa   163040 040040     375  l_116:		vfd a36/s   ,36/i_c,36/c_integr,36/(l_117-l_org)/5,36/a_62
    003303  aa   000000 000001
    003304  aa   000000 000037
    003305  aa   000000 000534
    003306  aa   000000 000076
    003307  aa   040040 040040     376  		vfd a36/    ,36/i_n,36/023,36/(r7dg-l_org)/5,36/a_60
    003310  aa   000000 000002
    003311  aa   000000 000027
    003312  aa   000000 001454
    003313  aa   000000 000074
    003314  aa   163040 040040     377  l_117:		vfd a36/s   ,36/i_r,36/r_bits,36/(snp_5-l_org)/5,36/0
    003315  aa   000000 000000
    003316  aa   000000 000302
    003317  aa   000000 000366
    003320  aa   000000 000000
    003321  aa   040040 040040     378  		vfd a36/    ,36/i_n,36/092,36/(snp_5-l_org)/5,36/0
    003322  aa   000000 000002
    003323  aa   000000 000134
    003324  aa   000000 000366
    003325  aa   000000 000000
    003326  aa   163040 040040     379  	ios:	vfd a36/s   ,36/i_c,36/c_areaa,36/(l_118-l_org)/5,36/0
    003327  aa   000000 000001
    003330  aa   000000 000003
    003331  aa   000000 000540
    003332  aa   000000 000000
    003333  aa   163040 040040     380  		vfd a36/s   ,36/i_n,36/001,36/(l_118-l_org)/5,36/0
    003334  aa   000000 000002
    003335  aa   000000 000001
    003336  aa   000000 000540
    003337  aa   000000 000000
    003340  aa   163040 040040     381  l_118:		vfd a36/s   ,36/i_r,36/r_section,36/(l_119-l_org)/5,36/0
    003341  aa   000000 000000
    003342  aa   000000 000236
    003343  aa   000000 000542
    003344  aa   000000 000000
    003345  aa   040040 040040     382  		vfd a36/    ,36/i_n,36/012,36/(l_119-l_org)/5,36/0
    003346  aa   000000 000002
    003347  aa   000000 000014
    003350  aa   000000 000542
    003351  aa   000000 000000
    003352  aa   163040 040040     383  l_119:		vfd a36/s   ,36/i_r,36/r_per,36/(l_120-l_org)/5,36/0
    003353  aa   000000 000000
    003354  aa   000000 000275
    003355  aa   000000 000544
    003356  aa   000000 000000
    003357  aa   040040 040040     384  		vfd a36/    ,36/i_n,36/003,36/(l_120-l_org)/5,36/a_173
    003360  aa   000000 000002
    003361  aa   000000 000003
    003362  aa   000000 000544
    003363  aa   000000 000255
    003364  aa   040040 040040     385  l_120:		vfd a36/    ,36/i_r,36/r_file_control,36/(l_121-l_org)/5,36/0
    003365  aa   000000 000000
    003366  aa   000000 001037
    003367  aa   000000 000546
    003370  aa   000000 000000
    003371  aa   040040 040040     386  		vfd a36/    ,36/i_n,36/039,36/(r8dg-l_org)/5,36/a_60
    003372  aa   000000 000002
    003373  aa   000000 000047
    003374  aa   000000 001456
    003375  aa   000000 000074
    003376  aa   163040 040040     387  l_121:	fil_cl:	vfd a36/s   ,36/i_c,36/c_areaa,36/(l_122-l_org)/5,36/0
    003377  aa   000000 000001
    003400  aa   000000 000003
    003401  aa   000000 000550
    003402  aa   000000 000000
    003403  aa   163040 040040     388  		vfd a36/s   ,36/i_n,36/001,36/(l_122-l_org)/5,36/0
    003404  aa   000000 000002
    003405  aa   000000 000001
    003406  aa   000000 000550
    003407  aa   000000 000000
    003410  aa   163040 040040     389  l_122:		vfd a36/s   ,36/i_r,36/r_per,36/(sel-l_org)/5,36/0
    003411  aa   000000 000000
    003412  aa   000000 000275
    003413  aa   000000 000553
    003414  aa   000000 000000
    003415  aa   040040 040040     390  		vfd a36/    ,36/i_n,36/003,36/(sel-l_org)/5,36/a_173
    003416  aa   000000 000002
    003417  aa   000000 000003
    003420  aa   000000 000553
    003421  aa   000000 000255
    003422  aa   163065 040040     391  	sel2:	vfd a36/s5  ,36/i_n,36/94,36/(fn-l_org)/5,36/25
    003423  aa   000000 000002
    003424  aa   000000 000136
    003425  aa   000000 000560
    003426  aa   000000 000031
    003427  aa   163040 040040     392  	sel:	vfd a36/s   ,36/i_r,36/r_select,36/(l_123-l_org)/5,36/a_42
    003430  aa   000000 000000
    003431  aa   000000 001124
    003432  aa   000000 000555
    003433  aa   000000 000052
    003434  aa   040040 040040     393  		vfd a36/    ,36/i_n,36/0,36/(io_0-l_org)/5,36/0
    003435  aa   000000 000002
    003436  aa   000000 000000
    003437  aa   000000 000616
    003440  aa   000000 000000
    003441  aa   163040 040040     394  l_123:	sel1:	vfd a36/s   ,36/i_r,36/r_optional,36/(l_124-l_org)/5,36/a_31
    003442  aa   000000 000000
    003443  aa   000000 001100
    003444  aa   000000 000557
    003445  aa   000000 000037
    003446  aa   040040 040040     395  		vfd a36/    ,36/i_r,36/r_external,36/(sel2-l_org)/5,36/a_31
    003447  aa   000000 000000
    003450  aa   000000 000463
    003451  aa   000000 000552
    003452  aa   000000 000037
    003453  aa   040040 040040     396  l_124:		vfd a36/    ,36/i_r,36/r_external,36/(sel2-l_org)/5,36/a_31
    003454  aa   000000 000000
    003455  aa   000000 000463
    003456  aa   000000 000552
    003457  aa   000000 000037
    003460  aa   040040 040040     397  	fn:	vfd a36/    ,36/i_c,36/c_usrwd,36/(l_125-l_org)/5,36/0
    003461  aa   000000 000001
    003462  aa   000000 000060
    003463  aa   000000 000562
    003464  aa   000000 000000
    003465  aa   040040 040040     398  		vfd a36/    ,36/i_n,36/040,36/(r9dg-l_org)/5,36/a_60
    003466  aa   000000 000002
    003467  aa   000000 000050
    003470  aa   000000 001457
    003471  aa   000000 000074
    003472  aa   040040 040040     399  l_125:		vfd a36/    ,36/i_c,36/c_sortfile,36/(l_126-l_org)/5,36/a_78
    003473  aa   000000 000001
    003474  aa   000000 000034
    003475  aa   000000 000563
    003476  aa   000000 000116
    003477  aa   163040 040040     400  l_126:		vfd a36/s   ,36/i_c,36/c_cknew,36/(l_127-l_org)/5,36/a_24
    003500  aa   000000 000001
    003501  aa   000000 000014
    003502  aa   000000 000565
    003503  aa   000000 000030
    003504  aa   163040 040040     401  		vfd a36/s   ,36/i_n,36/041,36/(l_127-l_org)/5,36/0
    003505  aa   000000 000002
    003506  aa   000000 000051
    003507  aa   000000 000565
    003510  aa   000000 000000
    003511  aa   163040 040040     402  l_127:	fcl:	vfd a36/s   ,36/i_r,36/r_assign,36/(asign_1-l_org)/5,36/a_98
    003512  aa   000000 000000
    003513  aa   000000 000775
    003514  aa   000000 000651
    003515  aa   000000 000142
    003516  aa   163040 040040     403  		vfd a36/s   ,36/i_r,36/r_reserve,36/(res_1-l_org)/5,36/a_98
    003517  aa   000000 000000
    003520  aa   000000 001115
    003521  aa   000000 000656
    003522  aa   000000 000142
    003523  aa   163040 040040     404  		vfd a36/s   ,36/i_r,36/r_organization,36/(org_1-l_org)/5,36/a_98
    003524  aa   000000 000000
    003525  aa   000000 000265
    003526  aa   000000 000663
    003527  aa   000000 000142
    003530  aa   163040 040040     405  		vfd a36/s   ,36/i_r,36/r_access,36/(acs_1-l_org)/5,36/a_98
    003531  aa   000000 000000
    003532  aa   000000 000765
    003533  aa   000000 000672
    003534  aa   000000 000142
    003535  aa   163040 040040     406  		vfd a36/s   ,36/i_r,36/r_file,36/(fcl_3-l_org)/5,36/a_98
    003536  aa   000000 000000
    003537  aa   000000 000154
    003540  aa   000000 000631
    003541  aa   000000 000142
    003542  aa   163040 040040     407  		vfd a36/s   ,36/i_r,36/r_status,36/(stat_1-l_org)/5,36/a_98
    003543  aa   000000 000000
    003544  aa   000000 000367
    003545  aa   000000 000740
    003546  aa   000000 000142
    003547  aa   040040 040040     408  		vfd a36/    ,36/i_r,36/r_catalog_name,36/(cat_1-l_org)/5,36/a_98
    003550  aa   000000 000000
    003551  aa   000000 000513
    003552  aa   000000 000771
    003553  aa   000000 000142
    003554  aa   163040 040040     409  		vfd a36/s   ,36/i_r,36/r_relative,36/(rel_1-l_org)/5,36/a_98
    003555  aa   000000 000000
    003556  aa   000000 000247
    003557  aa   000000 000703
    003560  aa   000000 000142
    003561  aa   163040 040040     410  		vfd a36/s   ,36/i_r,36/r_record,36/(rec_1-l_org)/5,36/a_98
    003562  aa   000000 000000
    003563  aa   000000 000224
    003564  aa   000000 000725
    003565  aa   000000 000142
    003566  aa   163040 040040     411  		vfd a36/s   ,36/i_r,36/r_alternate,36/(alt_1-l_org)/5,36/a_98
    003567  aa   000000 000000
    003570  aa   000000 000773
    003571  aa   000000 001004
    003572  aa   000000 000142
    003573  aa   163040 040040     412  		vfd a36/s   ,36/i_r,36/r_with,36/(fcl_2-l_org)/5,36/0
    003574  aa   000000 000000
    003575  aa   000000 000263
    003576  aa   000000 000623
    003577  aa   000000 000000
    003600  aa   040040 040040     413  		vfd a36/    ,36/i_r,36/r_flr,36/(fcl13-l_org)/5,36/a_98
    003601  aa   000000 000000
    003602  aa   000000 000420
    003603  aa   000000 000647
    003604  aa   000000 000142
    003605  aa   040040 040040     414  		vfd a36/    ,36/i_r,36/r_vlr,36/(fcl13-l_org)/5,36/a_98
    003606  aa   000000 000000
    003607  aa   000000 000311
    003610  aa   000000 000647
    003611  aa   000000 000142
    003612  aa   040040 040040     415  		vfd a36/    ,36/i_r,36/r_spanned,36/(fcl13-l_org)/5,36/a_98
    003613  aa   000000 000000
    003614  aa   000000 001131
    003615  aa   000000 000647
    003616  aa   000000 000142
    003617  aa   040040 040040     416  		vfd a36/    ,36/i_r,36/r_ssf,36/(fcl14-l_org)/5,36/a_98
    003620  aa   000000 000000
    003621  aa   000000 000125
    003622  aa   000000 000650
    003623  aa   000000 000142
    003624  aa   040040 040040     417  		vfd a36/    ,36/i_r,36/r_bsn,36/(fcl12-l_org)/5,36/a_98
    003625  aa   000000 000000
    003626  aa   000000 000635
    003627  aa   000000 000646
    003630  aa   000000 000142
    003631  aa   163040 040040     418  		vfd a36/s   ,36/i_r,36/r_per,36/(l_128-l_org)/5,36/0
    003632  aa   000000 000000
    003633  aa   000000 000275
    003634  aa   000000 000606
    003635  aa   000000 000000
    003636  aa   040040 040040     419  l_128:		vfd a36/    ,36/i_c,36/c_asgn,36/(l_129-l_org)/5,36/a_133
    003637  aa   000000 000001
    003640  aa   000000 000004
    003641  aa   000000 000610
    003642  aa   000000 000205
    003643  aa   040040 040040     420  		vfd a36/    ,36/i_n,36/42,36/(fcl_9-l_org)/5,36/0
    003644  aa   000000 000002
    003645  aa   000000 000052
    003646  aa   000000 000621
    003647  aa   000000 000000
    003650  aa   040040 040040     421  l_129:		vfd a36/    ,36/i_c,36/c_keyreqd,36/(l_130-l_org)/5,36/0
    003651  aa   000000 000001
    003652  aa   000000 000042
    003653  aa   000000 000612
    003654  aa   000000 000000
    003655  aa   040040 040040     422  		vfd a36/    ,36/i_n,36/43,36/(l_130-l_org)/5,36/0
    003656  aa   000000 000002
    003657  aa   000000 000053
    003660  aa   000000 000612
    003661  aa   000000 000000
    003662  aa   040040 040040     423  l_130:	fcl_10:	vfd a36/    ,36/i_n,36/0,36/(l_131-l_org)/5,36/a_96
    003663  aa   000000 000002
    003664  aa   000000 000000
    003665  aa   000000 000614
    003666  aa   000000 000140
    003667  aa   040040 040040     424  		vfd a36/    ,36/i_n,36/044,36/(r9dg-l_org)/5,36/a_60
    003670  aa   000000 000002
    003671  aa   000000 000054
    003672  aa   000000 001457
    003673  aa   000000 000074
    003674  aa   163040 040040     425  l_131:		vfd a36/s   ,36/i_r,36/r_select,36/(sel1-l_org)/5,36/a_42
    003675  aa   000000 000000
    003676  aa   000000 001124
    003677  aa   000000 000555
    003700  aa   000000 000052
    003701  aa   040040 040040     426  		vfd a36/    ,36/i_r,36/r_data,36/(div-l_org)/5,36/0
    003702  aa   000000 000000
    003703  aa   000000 000304
    003704  aa   000000 000337
    003705  aa   000000 000000
    003706  aa   040040 040040     427  	io_0:	vfd a36/    ,36/i_r,36/r_i_o_control,36/(io_1-l_org)/5,36/0
    003707  aa   000000 000000
    003710  aa   000000 001047
    003711  aa   000000 001024
    003712  aa   000000 000000
    003713  aa   040040 040040     428  		vfd a36/    ,36/i_r,36/r_data,36/(div-l_org)/5,36/0
    003714  aa   000000 000000
    003715  aa   000000 000304
    003716  aa   000000 000337
    003717  aa   000000 000000
    003720  aa   040040 040040     429  		vfd a36/    ,36/i_n,36/044,36/(r9dg-l_org)/5,36/a_60
    003721  aa   000000 000002
    003722  aa   000000 000054
    003723  aa   000000 001457
    003724  aa   000000 000074
    003725  aa   040040 040040     430  	fcl_9:	vfd a36/    ,36/i_c,36/c_keyreqd,36/(fcl_10-l_org)/5,36/0
    003726  aa   000000 000001
    003727  aa   000000 000042
    003730  aa   000000 000612
    003731  aa   000000 000000
    003732  aa   040040 040040     431  		vfd a36/    ,36/i_n,36/43,36/(fcl_10-l_org)/5,36/0
    003733  aa   000000 000002
    003734  aa   000000 000053
    003735  aa   000000 000612
    003736  aa   000000 000000
    003737  aa   040040 040040     432  	fcl_2:	vfd a36/    ,36/i_r,36/r_flr,36/(fcl13-l_org)/5,36/a_98
    003740  aa   000000 000000
    003741  aa   000000 000420
    003742  aa   000000 000647
    003743  aa   000000 000142
    003744  aa   040040 040040     433  		vfd a36/    ,36/i_r,36/r_vlr,36/(fcl13-l_org)/5,36/a_98
    003745  aa   000000 000000
    003746  aa   000000 000311
    003747  aa   000000 000647
    003750  aa   000000 000142
    003751  aa   040040 040040     434  		vfd a36/    ,36/i_r,36/r_spanned,36/(fcl13-l_org)/5,36/a_98
    003752  aa   000000 000000
    003753  aa   000000 001131
    003754  aa   000000 000647
    003755  aa   000000 000142
    003756  aa   040040 040040     435  		vfd a36/    ,36/i_r,36/r_ssf,36/(fcl14-l_org)/5,36/a_98
    003757  aa   000000 000000
    003760  aa   000000 000125
    003761  aa   000000 000650
    003762  aa   000000 000142
    003763  aa   040040 040040     436  		vfd a36/    ,36/i_r,36/r_bsn,36/(fcl12-l_org)/5,36/a_98
    003764  aa   000000 000000
    003765  aa   000000 000635
    003766  aa   000000 000646
    003767  aa   000000 000142
    003770  aa   040040 040040     437  		vfd a36/    ,36/i_n,36/037,36/(r9dg-l_org)/5,36/a_60
    003771  aa   000000 000002
    003772  aa   000000 000045
    003773  aa   000000 001457
    003774  aa   000000 000074
    003775  aa   163040 040040     438  	fcl_3:	vfd a36/s   ,36/i_r,36/r_status,36/(stat_1-l_org)/5,36/0
    003776  aa   000000 000000
    003777  aa   000000 000367
    004000  aa   000000 000740
    004001  aa   000000 000000
    004002  aa   163040 040040     439  		vfd a36/s   ,36/i_n,36/036,36/(stat_1-l_org)/5,36/0
    004003  aa   000000 000002
    004004  aa   000000 000044
    004005  aa   000000 000740
    004006  aa   000000 000000
    004007  aa   040040 040040     440  	fcl_4:	vfd a36/    ,36/i_r,36/r_flr,36/(fcl13-l_org)/5,36/a_34
    004010  aa   000000 000000
    004011  aa   000000 000420
    004012  aa   000000 000647
    004013  aa   000000 000042
    004014  aa   040040 040040     441  		vfd a36/    ,36/i_r,36/r_vlr,36/(fcl13-l_org)/5,36/a_34
    004015  aa   000000 000000
    004016  aa   000000 000311
    004017  aa   000000 000647
    004020  aa   000000 000042
    004021  aa   040040 040040     442  		vfd a36/    ,36/i_r,36/r_spanned,36/(fcl13-l_org)/5,36/a_34
    004022  aa   000000 000000
    004023  aa   000000 001131
    004024  aa   000000 000647
    004025  aa   000000 000042
    004026  aa   040040 040040     443  		vfd a36/    ,36/i_r,36/r_bsn,36/(fcl12-l_org)/5,36/a_34
    004027  aa   000000 000000
    004030  aa   000000 000635
    004031  aa   000000 000646
    004032  aa   000000 000042
    004033  aa   040040 040040     444  		vfd a36/    ,36/i_n,36/0,36/(fcl_6-l_org)/5,36/0
    004034  aa   000000 000002
    004035  aa   000000 000000
    004036  aa   000000 000642
    004037  aa   000000 000000
    004040  aa   040040 040040     445  	fcl_5:	vfd a36/    ,36/i_r,36/r_bsn,36/(fcl12-l_org)/5,36/a_34
    004041  aa   000000 000000
    004042  aa   000000 000635
    004043  aa   000000 000646
    004044  aa   000000 000042
    004045  aa   040040 040040     446  		vfd a36/    ,36/i_n,36/0,36/(fcl_6-l_org)/5,36/a_34
    004046  aa   000000 000002
    004047  aa   000000 000000
    004050  aa   000000 000642
    004051  aa   000000 000042
    004052  aa   040040 040040     447  	fcl_6:	vfd a36/    ,36/i_c,36/c_dupdef,36/(fcl-l_org)/5,36/a_25
    004053  aa   000000 000001
    004054  aa   000000 000071
    004055  aa   000000 000565
    004056  aa   000000 000031
    004057  aa   040040 040040     448  		vfd a36/    ,36/i_n,36/080,36/(fcl-l_org)/5,36/0
    004060  aa   000000 000002
    004061  aa   000000 000120
    004062  aa   000000 000565
    004063  aa   000000 000000
    004064  aa   163040 040040     449  	fcl_7:	vfd a36/s   ,36/i_c,36/c_dupdef,36/(fcl-l_org)/5,36/a_25
    004065  aa   000000 000001
    004066  aa   000000 000071
    004067  aa   000000 000565
    004070  aa   000000 000031
    004071  aa   040040 040040     450  		vfd a36/    ,36/i_n,36/080,36/(fcl-l_org)/5,36/0
    004072  aa   000000 000002
    004073  aa   000000 000120
    004074  aa   000000 000565
    004075  aa   000000 000000
    004076  aa   163065 040040     451  	fcl12:	vfd a36/s5  ,36/i_n,36/108,36/(fcl_6-l_org)/5,36/25
    004077  aa   000000 000002
    004100  aa   000000 000154
    004101  aa   000000 000642
    004102  aa   000000 000031
    004103  aa   163065 040040     452  	fcl13:	vfd a36/s5  ,36/i_n,36/109,36/(fcl_5-l_org)/5,36/25
    004104  aa   000000 000002
    004105  aa   000000 000155
    004106  aa   000000 000640
    004107  aa   000000 000031
    004110  aa   163065 040040     453  	fcl14:	vfd a36/s5  ,36/i_n,36/110,36/(fcl_4-l_org)/5,36/25
    004111  aa   000000 000002
    004112  aa   000000 000156
    004113  aa   000000 000633
    004114  aa   000000 000031
    004115  aa   163040 040040     454  	asign_1:	vfd a36/s   ,36/i_r,36/r_to,36/(l_132-l_org)/5,36/0
    004116  aa   000000 000000
    004117  aa   000000 000252
    004120  aa   000000 000652
    004121  aa   000000 000000
    004122  aa   040040 040040     455  l_132:		vfd a36/    ,36/i_c,36/c_implnm,36/(l_133-l_org)/5,36/0
    004123  aa   000000 000001
    004124  aa   000000 000035
    004125  aa   000000 000654
    004126  aa   000000 000000
    004127  aa   040040 040040     456  		vfd a36/    ,36/i_n,36/045,36/(r9dg-l_org)/5,36/a_60
    004130  aa   000000 000002
    004131  aa   000000 000055
    004132  aa   000000 001457
    004133  aa   000000 000074
    004134  aa   040040 040040     457  l_133:		vfd a36/    ,36/i_c,36/c_ckintnm,36/(fcl_7-l_org)/5,36/0
    004135  aa   000000 000001
    004136  aa   000000 000073
    004137  aa   000000 000644
    004140  aa   000000 000000
    004141  aa   040040 040040     458  		vfd a36/    ,36/i_n,36/178,36/(fcl_7-l_org)/5,36/0
    004142  aa   000000 000002
    004143  aa   000000 000262
    004144  aa   000000 000644
    004145  aa   000000 000000
    004146  aa   163040 040040     459  	res_1:	vfd a36/s   ,36/i_c,36/c_integr,36/(l_134-l_org)/5,36/0
    004147  aa   000000 000001
    004150  aa   000000 000037
    004151  aa   000000 000660
    004152  aa   000000 000000
    004153  aa   040040 040040     460  		vfd a36/    ,36/i_n,36/023,36/(r9dg-l_org)/5,36/a_60
    004154  aa   000000 000002
    004155  aa   000000 000027
    004156  aa   000000 001457
    004157  aa   000000 000074
    004160  aa   163040 040040     461  l_134:		vfd a36/s   ,36/i_r,36/r_area,36/(fcl_6-l_org)/5,36/0
    004161  aa   000000 000000
    004162  aa   000000 000312
    004163  aa   000000 000642
    004164  aa   000000 000000
    004165  aa   163040 040040     462  		vfd a36/s   ,36/i_r,36/r_areas,36/(fcl_6-l_org)/5,36/0
    004166  aa   000000 000000
    004167  aa   000000 000312
    004170  aa   000000 000642
    004171  aa   000000 000000
    004172  aa   040040 040040     463  		vfd a36/    ,36/i_n,36/0,36/(fcl_6-l_org)/5,36/0
    004173  aa   000000 000002
    004174  aa   000000 000000
    004175  aa   000000 000642
    004176  aa   000000 000000
    004177  aa   163040 040040     464  	org_1:	vfd a36/s   ,36/i_r,36/r_is,36/(l_135-l_org)/5,36/0
    004200  aa   000000 000000
    004201  aa   000000 000166
    004202  aa   000000 000664
    004203  aa   000000 000000
    004204  aa   163040 040040     465  l_135:		vfd a36/s   ,36/i_c,36/c_fileorg,36/(fcl_6-l_org)/5,36/0
    004205  aa   000000 000001
    004206  aa   000000 000012
    004207  aa   000000 000642
    004210  aa   000000 000000
    004211  aa   040040 040040     466  		vfd a36/    ,36/i_c,36/c_filequal,36/(org_2-l_org)/5,36/0
    004212  aa   000000 000001
    004213  aa   000000 000013
    004214  aa   000000 000667
    004215  aa   000000 000000
    004216  aa   040040 040040     467  		vfd a36/    ,36/i_n,36/046,36/(r9dg-l_org)/5,36/a_60
    004217  aa   000000 000002
    004220  aa   000000 000056
    004221  aa   000000 001457
    004222  aa   000000 000074
    004223  aa   163065 040040     468  	org_2:	vfd a36/s5  ,36/i_n,36/130,36/(l_136-l_org)/5,36/25
    004224  aa   000000 000002
    004225  aa   000000 000202
    004226  aa   000000 000670
    004227  aa   000000 000031
    004230  aa   163040 040040     469  l_136:		vfd a36/s   ,36/i_c,36/c_fileorg,36/(fcl_6-l_org)/5,36/0
    004231  aa   000000 000001
    004232  aa   000000 000012
    004233  aa   000000 000642
    004234  aa   000000 000000
    004235  aa   040040 040040     470  		vfd a36/    ,36/i_n,36/046,36/(r9dg-l_org)/5,36/a_60
    004236  aa   000000 000002
    004237  aa   000000 000056
    004240  aa   000000 001457
    004241  aa   000000 000074
    004242  aa   163040 040040     471  	acs_1:	vfd a36/s   ,36/i_r,36/r_mode,36/(l_137-l_org)/5,36/0
    004243  aa   000000 000000
    004244  aa   000000 000346
    004245  aa   000000 000673
    004246  aa   000000 000000
    004247  aa   163040 040040     472  l_137:		vfd a36/s   ,36/i_r,36/r_is,36/(l_138-l_org)/5,36/0
    004250  aa   000000 000000
    004251  aa   000000 000166
    004252  aa   000000 000674
    004253  aa   000000 000000
    004254  aa   163040 040040     473  l_138:		vfd a36/s   ,36/i_r,36/r_sequential,36/(l_139-l_org)/5,36/a_29
    004255  aa   000000 000000
    004256  aa   000000 001125
    004257  aa   000000 000700
    004260  aa   000000 000035
    004261  aa   163040 040040     474  		vfd a36/s   ,36/i_r,36/r_random,36/(l_139-l_org)/5,36/a_29
    004262  aa   000000 000000
    004263  aa   000000 000223
    004264  aa   000000 000700
    004265  aa   000000 000035
    004266  aa   163040 040040     475  		vfd a36/s   ,36/i_r,36/r_dynamic,36/(l_139-l_org)/5,36/a_29
    004267  aa   000000 000000
    004270  aa   000000 000251
    004271  aa   000000 000700
    004272  aa   000000 000035
    004273  aa   040040 040040     476  		vfd a36/    ,36/i_n,36/049,36/(r9dg-l_org)/5,36/a_60
    004274  aa   000000 000002
    004275  aa   000000 000061
    004276  aa   000000 001457
    004277  aa   000000 000074
    004300  aa   163040 040040     477  l_139:		vfd a36/s   ,36/i_r,36/r_relative,36/(rel_1-l_org)/5,36/a_30
    004301  aa   000000 000000
    004302  aa   000000 000247
    004303  aa   000000 000703
    004304  aa   000000 000036
    004305  aa   163040 040040     478  		vfd a36/s   ,36/i_r,36/r_record,36/(rec_1-l_org)/5,36/a_30
    004306  aa   000000 000000
    004307  aa   000000 000224
    004310  aa   000000 000725
    004311  aa   000000 000036
    004312  aa   040040 040040     479  		vfd a36/    ,36/i_n,36/0,36/(fcl_6-l_org)/5,36/0
    004313  aa   000000 000002
    004314  aa   000000 000000
    004315  aa   000000 000642
    004316  aa   000000 000000
    004317  aa   163040 040040     480  	rel_1:	vfd a36/s   ,36/i_r,36/r_key,36/(l_140-l_org)/5,36/0
    004320  aa   000000 000000
    004321  aa   000000 000170
    004322  aa   000000 000704
    004323  aa   000000 000000
    004324  aa   163040 040040     481  l_140:		vfd a36/s   ,36/i_r,36/r_is,36/(l_141-l_org)/5,36/0
    004325  aa   000000 000000
    004326  aa   000000 000166
    004327  aa   000000 000705
    004330  aa   000000 000000
    004331  aa   040040 040040     482  l_141:		vfd a36/    ,36/i_c,36/c_dupdef,36/(l_142-l_org)/5,36/a_175
    004332  aa   000000 000001
    004333  aa   000000 000071
    004334  aa   000000 000707
    004335  aa   000000 000257
    004336  aa   040040 040040     483  		vfd a36/    ,36/i_n,36/0,36/(rel_3-l_org)/5,36/a_175
    004337  aa   000000 000002
    004340  aa   000000 000000
    004341  aa   000000 000716
    004342  aa   000000 000257
    004343  aa   163040 040040     484  l_142:		vfd a36/s   ,36/i_c,36/c_usrwd,36/(l_143-l_org)/5,36/a_35
    004344  aa   000000 000001
    004345  aa   000000 000060
    004346  aa   000000 000711
    004347  aa   000000 000043
    004350  aa   040040 040040     485  		vfd a36/    ,36/i_n,36/048,36/(r9dg-l_org)/5,36/a_60
    004351  aa   000000 000002
    004352  aa   000000 000060
    004353  aa   000000 001457
    004354  aa   000000 000074
    004355  aa   163040 040040     486  l_143:	rel_2:	vfd a36/s   ,36/i_r,36/r_of,36/(l_144-l_org)/5,36/a_176
    004356  aa   000000 000000
    004357  aa   000000 000205
    004360  aa   000000 000714
    004361  aa   000000 000260
    004362  aa   163040 040040     487  		vfd a36/s   ,36/i_r,36/r_in,36/(l_144-l_org)/5,36/a_176
    004363  aa   000000 000000
    004364  aa   000000 000145
    004365  aa   000000 000714
    004366  aa   000000 000260
    004367  aa   040040 040040     488  		vfd a36/    ,36/i_n,36/0,36/(fcl_6-l_org)/5,36/a_177
    004370  aa   000000 000002
    004371  aa   000000 000000
    004372  aa   000000 000642
    004373  aa   000000 000261
    004374  aa   163040 040040     489  l_144:		vfd a36/s   ,36/i_c,36/c_usrwd,36/(rel_2-l_org)/5,36/a_95
    004375  aa   000000 000001
    004376  aa   000000 000060
    004377  aa   000000 000711
    004400  aa   000000 000137
    004401  aa   040040 040040     490  		vfd a36/    ,36/i_n,36/048,36/(r9dg-l_org)/5,36/a_60
    004402  aa   000000 000002
    004403  aa   000000 000060
    004404  aa   000000 001457
    004405  aa   000000 000074
    004406  aa   163040 040040     491  	rel_3:	vfd a36/s   ,36/i_c,36/c_usrwd,36/(l_145-l_org)/5,36/0
    004407  aa   000000 000001
    004410  aa   000000 000060
    004411  aa   000000 000720
    004412  aa   000000 000000
    004413  aa   040040 040040     492  		vfd a36/    ,36/i_n,36/048,36/(r9dg-l_org)/5,36/a_60
    004414  aa   000000 000002
    004415  aa   000000 000060
    004416  aa   000000 001457
    004417  aa   000000 000074
    004420  aa   163040 040040     493  l_145:	rel_4:	vfd a36/s   ,36/i_r,36/r_of,36/(l_146-l_org)/5,36/a_176
    004421  aa   000000 000000
    004422  aa   000000 000205
    004423  aa   000000 000723
    004424  aa   000000 000260
    004425  aa   163040 040040     494  		vfd a36/s   ,36/i_r,36/r_in,36/(l_146-l_org)/5,36/a_176
    004426  aa   000000 000000
    004427  aa   000000 000145
    004430  aa   000000 000723
    004431  aa   000000 000260
    004432  aa   040040 040040     495  		vfd a36/    ,36/i_n,36/0,36/(fcl_6-l_org)/5,36/a_177
    004433  aa   000000 000002
    004434  aa   000000 000000
    004435  aa   000000 000642
    004436  aa   000000 000261
    004437  aa   163040 040040     496  l_146:		vfd a36/s   ,36/i_c,36/c_usrwd,36/(rel_4-l_org)/5,36/0
    004440  aa   000000 000001
    004441  aa   000000 000060
    004442  aa   000000 000720
    004443  aa   000000 000000
    004444  aa   040040 040040     497  		vfd a36/    ,36/i_n,36/048,36/(r9dg-l_org)/5,36/a_60
    004445  aa   000000 000002
    004446  aa   000000 000060
    004447  aa   000000 001457
    004450  aa   000000 000074
    004451  aa   163040 040040     498  	rec_1:	vfd a36/s   ,36/i_r,36/r_key,36/(l_147-l_org)/5,36/0
    004452  aa   000000 000000
    004453  aa   000000 000170
    004454  aa   000000 000726
    004455  aa   000000 000000
    004456  aa   163040 040040     499  l_147:		vfd a36/s   ,36/i_r,36/r_is,36/(l_148-l_org)/5,36/0
    004457  aa   000000 000000
    004460  aa   000000 000166
    004461  aa   000000 000727
    004462  aa   000000 000000
    004463  aa   040040 040040     500  l_148:		vfd a36/    ,36/i_c,36/c_dupdef,36/(l_149-l_org)/5,36/a_175
    004464  aa   000000 000001
    004465  aa   000000 000071
    004466  aa   000000 000731
    004467  aa   000000 000257
    004470  aa   040040 040040     501  		vfd a36/    ,36/i_n,36/0,36/(rel_3-l_org)/5,36/a_175
    004471  aa   000000 000002
    004472  aa   000000 000000
    004473  aa   000000 000716
    004474  aa   000000 000257
    004475  aa   163040 040040     502  l_149:		vfd a36/s   ,36/i_c,36/c_usrwd,36/(l_150-l_org)/5,36/a_79
    004476  aa   000000 000001
    004477  aa   000000 000060
    004500  aa   000000 000733
    004501  aa   000000 000117
    004502  aa   040040 040040     503  		vfd a36/    ,36/i_n,36/048,36/(r9dg-l_org)/5,36/a_60
    004503  aa   000000 000002
    004504  aa   000000 000060
    004505  aa   000000 001457
    004506  aa   000000 000074
    004507  aa   163040 040040     504  l_150:	rec_2:	vfd a36/s   ,36/i_r,36/r_of,36/(l_151-l_org)/5,36/a_176
    004510  aa   000000 000000
    004511  aa   000000 000205
    004512  aa   000000 000736
    004513  aa   000000 000260
    004514  aa   163040 040040     505  		vfd a36/s   ,36/i_r,36/r_in,36/(l_151-l_org)/5,36/a_176
    004515  aa   000000 000000
    004516  aa   000000 000145
    004517  aa   000000 000736
    004520  aa   000000 000260
    004521  aa   040040 040040     506  		vfd a36/    ,36/i_n,36/0,36/(fcl_6-l_org)/5,36/a_177
    004522  aa   000000 000002
    004523  aa   000000 000000
    004524  aa   000000 000642
    004525  aa   000000 000261
    004526  aa   163040 040040     507  l_151:		vfd a36/s   ,36/i_c,36/c_usrwd,36/(rec_2-l_org)/5,36/a_95
    004527  aa   000000 000001
    004530  aa   000000 000060
    004531  aa   000000 000733
    004532  aa   000000 000137
    004533  aa   040040 040040     508  		vfd a36/    ,36/i_n,36/048,36/(r9dg-l_org)/5,36/a_60
    004534  aa   000000 000002
    004535  aa   000000 000060
    004536  aa   000000 001457
    004537  aa   000000 000074
    004540  aa   163040 040040     509  	stat_1:	vfd a36/s   ,36/i_r,36/r_is,36/(l_152-l_org)/5,36/0
    004541  aa   000000 000000
    004542  aa   000000 000166
    004543  aa   000000 000741
    004544  aa   000000 000000
    004545  aa   040040 040040     510  l_152:		vfd a36/    ,36/i_c,36/c_dupdef,36/(l_153-l_org)/5,36/a_175
    004546  aa   000000 000001
    004547  aa   000000 000071
    004550  aa   000000 000743
    004551  aa   000000 000257
    004552  aa   040040 040040     511  		vfd a36/    ,36/i_n,36/0,36/(stat_3-l_org)/5,36/a_175
    004553  aa   000000 000002
    004554  aa   000000 000000
    004555  aa   000000 000752
    004556  aa   000000 000257
    004557  aa   163040 040040     512  l_153:		vfd a36/s   ,36/i_c,36/c_usrwd,36/(l_154-l_org)/5,36/a_80
    004560  aa   000000 000001
    004561  aa   000000 000060
    004562  aa   000000 000745
    004563  aa   000000 000120
    004564  aa   040040 040040     513  		vfd a36/    ,36/i_n,36/048,36/(r9dg-l_org)/5,36/a_60
    004565  aa   000000 000002
    004566  aa   000000 000060
    004567  aa   000000 001457
    004570  aa   000000 000074
    004571  aa   163040 040040     514  l_154:	stat_2:	vfd a36/s   ,36/i_r,36/r_of,36/(l_155-l_org)/5,36/a_176
    004572  aa   000000 000000
    004573  aa   000000 000205
    004574  aa   000000 000750
    004575  aa   000000 000260
    004576  aa   163040 040040     515  		vfd a36/s   ,36/i_r,36/r_in,36/(l_155-l_org)/5,36/a_176
    004577  aa   000000 000000
    004600  aa   000000 000145
    004601  aa   000000 000750
    004602  aa   000000 000260
    004603  aa   040040 040040     516  		vfd a36/    ,36/i_n,36/0,36/(stat_5-l_org)/5,36/a_177
    004604  aa   000000 000002
    004605  aa   000000 000000
    004606  aa   000000 000761
    004607  aa   000000 000261
    004610  aa   163040 040040     517  l_155:		vfd a36/s   ,36/i_c,36/c_usrwd,36/(stat_2-l_org)/5,36/a_95
    004611  aa   000000 000001
    004612  aa   000000 000060
    004613  aa   000000 000745
    004614  aa   000000 000137
    004615  aa   040040 040040     518  		vfd a36/    ,36/i_n,36/048,36/(r9dg-l_org)/5,36/a_60
    004616  aa   000000 000002
    004617  aa   000000 000060
    004620  aa   000000 001457
    004621  aa   000000 000074
    004622  aa   163040 040040     519  	stat_3:	vfd a36/s   ,36/i_c,36/c_usrwd,36/(l_156-l_org)/5,36/0
    004623  aa   000000 000001
    004624  aa   000000 000060
    004625  aa   000000 000754
    004626  aa   000000 000000
    004627  aa   040040 040040     520  		vfd a36/    ,36/i_n,36/048,36/(r9dg-l_org)/5,36/a_60
    004630  aa   000000 000002
    004631  aa   000000 000060
    004632  aa   000000 001457
    004633  aa   000000 000074
    004634  aa   163040 040040     521  l_156:	stat_4:	vfd a36/s   ,36/i_r,36/r_of,36/(l_157-l_org)/5,36/a_176
    004635  aa   000000 000000
    004636  aa   000000 000205
    004637  aa   000000 000757
    004640  aa   000000 000260
    004641  aa   163040 040040     522  		vfd a36/s   ,36/i_r,36/r_in,36/(l_157-l_org)/5,36/a_176
    004642  aa   000000 000000
    004643  aa   000000 000145
    004644  aa   000000 000757
    004645  aa   000000 000260
    004646  aa   040040 040040     523  		vfd a36/    ,36/i_n,36/0,36/(stat_5-l_org)/5,36/a_177
    004647  aa   000000 000002
    004650  aa   000000 000000
    004651  aa   000000 000761
    004652  aa   000000 000261
    004653  aa   163040 040040     524  l_157:		vfd a36/s   ,36/i_c,36/c_usrwd,36/(stat_4-l_org)/5,36/0
    004654  aa   000000 000001
    004655  aa   000000 000060
    004656  aa   000000 000754
    004657  aa   000000 000000
    004660  aa   040040 040040     525  		vfd a36/    ,36/i_n,36/048,36/(r9dg-l_org)/5,36/a_60
    004661  aa   000000 000002
    004662  aa   000000 000060
    004663  aa   000000 001457
    004664  aa   000000 000074
    004665  aa   040040 040040     526  	stat_5:	vfd a36/    ,36/i_c,36/c_usrwd,36/(l_158-l_org)/5,36/a_125
    004666  aa   000000 000001
    004667  aa   000000 000060
    004670  aa   000000 000763
    004671  aa   000000 000175
    004672  aa   040040 040040     527  		vfd a36/    ,36/i_n,36/0,36/(fcl_6-l_org)/5,36/0
    004673  aa   000000 000002
    004674  aa   000000 000000
    004675  aa   000000 000642
    004676  aa   000000 000000
    004677  aa   163065 040040     528  l_158:		vfd a36/s5  ,36/i_n,36/96,36/(l_159-l_org)/5,36/25
    004700  aa   000000 000002
    004701  aa   000000 000140
    004702  aa   000000 000764
    004703  aa   000000 000031
    004704  aa   163040 040040     529  l_159:	stat_6:	vfd a36/s   ,36/i_r,36/r_of,36/(l_160-l_org)/5,36/0
    004705  aa   000000 000000
    004706  aa   000000 000205
    004707  aa   000000 000767
    004710  aa   000000 000000
    004711  aa   163040 040040     530  		vfd a36/s   ,36/i_r,36/r_in,36/(l_160-l_org)/5,36/0
    004712  aa   000000 000000
    004713  aa   000000 000145
    004714  aa   000000 000767
    004715  aa   000000 000000
    004716  aa   040040 040040     531  		vfd a36/    ,36/i_n,36/0,36/(fcl_6-l_org)/5,36/0
    004717  aa   000000 000002
    004720  aa   000000 000000
    004721  aa   000000 000642
    004722  aa   000000 000000
    004723  aa   163040 040040     532  l_160:		vfd a36/s   ,36/i_c,36/c_usrwd,36/(stat_6-l_org)/5,36/a_95
    004724  aa   000000 000001
    004725  aa   000000 000060
    004726  aa   000000 000764
    004727  aa   000000 000137
    004730  aa   040040 040040     533  		vfd a36/    ,36/i_n,36/048,36/(r9dg-l_org)/5,36/a_60
    004731  aa   000000 000002
    004732  aa   000000 000060
    004733  aa   000000 001457
    004734  aa   000000 000074
    004735  aa   163065 040040     534  	cat_1:	vfd a36/s5  ,36/i_n,36/158,36/(l_161-l_org)/5,36/25
    004736  aa   000000 000002
    004737  aa   000000 000236
    004740  aa   000000 000772
    004741  aa   000000 000031
    004742  aa   163040 040040     535  l_161:		vfd a36/s   ,36/i_r,36/r_is,36/(l_162-l_org)/5,36/0
    004743  aa   000000 000000
    004744  aa   000000 000166
    004745  aa   000000 000773
    004746  aa   000000 000000
    004747  aa   163040 040040     536  l_162:		vfd a36/s   ,36/i_c,36/c_catusrwd,36/(cat_2-l_org)/5,36/a_71
    004750  aa   000000 000001
    004751  aa   000000 000066
    004752  aa   000000 000776
    004753  aa   000000 000107
    004754  aa   163040 040040     537  		vfd a36/s   ,36/i_c,36/c_catalphalit,36/(cat_3-l_org)/5,36/a_71
    004755  aa   000000 000001
    004756  aa   000000 000070
    004757  aa   000000 001003
    004760  aa   000000 000107
    004761  aa   040040 040040     538  		vfd a36/    ,36/i_n,36/050,36/(r9dg-l_org)/5,36/a_60
    004762  aa   000000 000002
    004763  aa   000000 000062
    004764  aa   000000 001457
    004765  aa   000000 000074
    004766  aa   163040 040040     539  	cat_2:	vfd a36/s   ,36/i_r,36/r_of,36/(l_163-l_org)/5,36/0
    004767  aa   000000 000000
    004770  aa   000000 000205
    004771  aa   000000 001001
    004772  aa   000000 000000
    004773  aa   163040 040040     540  		vfd a36/s   ,36/i_r,36/r_in,36/(l_163-l_org)/5,36/0
    004774  aa   000000 000000
    004775  aa   000000 000145
    004776  aa   000000 001001
    004777  aa   000000 000000
    005000  aa   040040 040040     541  		vfd a36/    ,36/i_n,36/0,36/(cat_3-l_org)/5,36/0
    005001  aa   000000 000002
    005002  aa   000000 000000
    005003  aa   000000 001003
    005004  aa   000000 000000
    005005  aa   163040 040040     542  l_163:		vfd a36/s   ,36/i_c,36/c_catusrwd,36/(cat_2-l_org)/5,36/a_95
    005006  aa   000000 000001
    005007  aa   000000 000066
    005010  aa   000000 000776
    005011  aa   000000 000137
    005012  aa   040040 040040     543  		vfd a36/    ,36/i_n,36/048,36/(r9dg-l_org)/5,36/a_60
    005013  aa   000000 000002
    005014  aa   000000 000060
    005015  aa   000000 001457
    005016  aa   000000 000074
    005017  aa   040040 040040     544  	cat_3:	vfd a36/    ,36/i_n,36/0,36/(fcl_6-l_org)/5,36/0
    005020  aa   000000 000002
    005021  aa   000000 000000
    005022  aa   000000 000642
    005023  aa   000000 000000
    005024  aa   040040 040040     545  	alt_1:	vfd a36/    ,36/i_c,36/c_dupdef,36/(l_164-l_org)/5,36/0
    005025  aa   000000 000001
    005026  aa   000000 000071
    005027  aa   000000 001005
    005030  aa   000000 000000
    005031  aa   163040 040040     546  l_164:	alt_2:	vfd a36/s   ,36/i_r,36/r_record,36/(l_165-l_org)/5,36/a_175
    005032  aa   000000 000000
    005033  aa   000000 000224
    005034  aa   000000 001007
    005035  aa   000000 000257
    005036  aa   040040 040040     547  		vfd a36/    ,36/i_n,36/067,36/(l_165-l_org)/5,36/0
    005037  aa   000000 000002
    005040  aa   000000 000103
    005041  aa   000000 001007
    005042  aa   000000 000000
    005043  aa   163040 040040     548  l_165:		vfd a36/s   ,36/i_r,36/r_key,36/(l_166-l_org)/5,36/0
    005044  aa   000000 000000
    005045  aa   000000 000170
    005046  aa   000000 001010
    005047  aa   000000 000000
    005050  aa   163040 040040     549  l_166:		vfd a36/s   ,36/i_r,36/r_is,36/(l_167-l_org)/5,36/0
    005051  aa   000000 000000
    005052  aa   000000 000166
    005053  aa   000000 001011
    005054  aa   000000 000000
    005055  aa   163040 040040     550  l_167:		vfd a36/s   ,36/i_c,36/c_usrwd,36/(l_168-l_org)/5,36/a_32
    005056  aa   000000 000001
    005057  aa   000000 000060
    005060  aa   000000 001013
    005061  aa   000000 000040
    005062  aa   040040 040040     551  		vfd a36/    ,36/i_n,36/048,36/(r9dg-l_org)/5,36/a_60
    005063  aa   000000 000002
    005064  aa   000000 000060
    005065  aa   000000 001457
    005066  aa   000000 000074
    005067  aa   163040 040040     552  l_168:	alt_3:	vfd a36/s   ,36/i_r,36/r_of,36/(l_169-l_org)/5,36/a_176
    005070  aa   000000 000000
    005071  aa   000000 000205
    005072  aa   000000 001016
    005073  aa   000000 000260
    005074  aa   163040 040040     553  		vfd a36/s   ,36/i_r,36/r_in,36/(l_169-l_org)/5,36/a_176
    005075  aa   000000 000000
    005076  aa   000000 000145
    005077  aa   000000 001016
    005100  aa   000000 000260
    005101  aa   040040 040040     554  		vfd a36/    ,36/i_n,36/0,36/(alt_4-l_org)/5,36/a_177
    005102  aa   000000 000002
    005103  aa   000000 000000
    005104  aa   000000 001020
    005105  aa   000000 000261
    005106  aa   163040 040040     555  l_169:		vfd a36/s   ,36/i_c,36/c_usrwd,36/(alt_3-l_org)/5,36/a_95
    005107  aa   000000 000001
    005110  aa   000000 000060
    005111  aa   000000 001013
    005112  aa   000000 000137
    005113  aa   040040 040040     556  		vfd a36/    ,36/i_n,36/048,36/(r9dg-l_org)/5,36/a_60
    005114  aa   000000 000002
    005115  aa   000000 000060
    005116  aa   000000 001457
    005117  aa   000000 000074
    005120  aa   163040 040040     557  	alt_4:	vfd a36/s   ,36/i_r,36/r_with,36/(l_170-l_org)/5,36/0
    005121  aa   000000 000000
    005122  aa   000000 000263
    005123  aa   000000 001021
    005124  aa   000000 000000
    005125  aa   163040 040040     558  l_170:		vfd a36/s   ,36/i_r,36/r_duplicates,36/(l_171-l_org)/5,36/a_75
    005126  aa   000000 000000
    005127  aa   000000 000343
    005130  aa   000000 001022
    005131  aa   000000 000113
    005132  aa   163040 040040     559  l_171:		vfd a36/s   ,36/i_r,36/r_alternate,36/(alt_2-l_org)/5,36/0
    005133  aa   000000 000000
    005134  aa   000000 000773
    005135  aa   000000 001005
    005136  aa   000000 000000
    005137  aa   040040 040040     560  		vfd a36/    ,36/i_n,36/0,36/(fcl_6-l_org)/5,36/0
    005140  aa   000000 000002
    005141  aa   000000 000000
    005142  aa   000000 000642
    005143  aa   000000 000000
    005144  aa   163040 040040     561  	io_1:	vfd a36/s   ,36/i_c,36/c_areaa,36/(l_172-l_org)/5,36/a_27
    005145  aa   000000 000001
    005146  aa   000000 000003
    005147  aa   000000 001026
    005150  aa   000000 000033
    005151  aa   163040 040040     562  		vfd a36/s   ,36/i_n,36/001,36/(l_172-l_org)/5,36/a_27
    005152  aa   000000 000002
    005153  aa   000000 000001
    005154  aa   000000 001026
    005155  aa   000000 000033
    005156  aa   163040 040040     563  l_172:		vfd a36/s   ,36/i_r,36/r_per,36/(l_173-l_org)/5,36/0
    005157  aa   000000 000000
    005160  aa   000000 000275
    005161  aa   000000 001030
    005162  aa   000000 000000
    005163  aa   040040 040040     564  		vfd a36/    ,36/i_n,36/003,36/(l_173-l_org)/5,36/a_173
    005164  aa   000000 000002
    005165  aa   000000 000003
    005166  aa   000000 001030
    005167  aa   000000 000255
    005170  aa   163040 040040     565  l_173:		vfd a36/s   ,36/i_r,36/r_per,36/(l_174-l_org)/5,36/0
    005171  aa   000000 000000
    005172  aa   000000 000275
    005173  aa   000000 001031
    005174  aa   000000 000000
    005175  aa   040040 040040     566  l_174:		vfd a36/    ,36/i_r,36/r_apply,36/(app_1-l_org)/5,36/a_28
    005176  aa   000000 000000
    005177  aa   000000 000774
    005200  aa   000000 001061
    005201  aa   000000 000034
    005202  aa   163040 040040     567  		vfd a36/s   ,36/i_r,36/r_rerun,36/(run_1-l_org)/5,36/a_28
    005203  aa   000000 000000
    005204  aa   000000 001114
    005205  aa   000000 001244
    005206  aa   000000 000034
    005207  aa   163040 040040     568  		vfd a36/s   ,36/i_r,36/r_same,36/(sam_1-l_org)/5,36/a_28
    005210  aa   000000 000000
    005211  aa   000000 001121
    005212  aa   000000 001305
    005213  aa   000000 000034
    005214  aa   040040 040040     569  		vfd a36/    ,36/i_r,36/r_multiple,36/(mul_1-l_org)/5,36/a_28
    005215  aa   000000 000000
    005216  aa   000000 001072
    005217  aa   000000 001347
    005220  aa   000000 000034
    005221  aa   040040 040040     570  		vfd a36/    ,36/i_r,36/r_data,36/(div-l_org)/5,36/0
    005222  aa   000000 000000
    005223  aa   000000 000304
    005224  aa   000000 000337
    005225  aa   000000 000000
    005226  aa   040040 040040     571  		vfd a36/    ,36/i_n,36/061,36/(r10dg-l_org)/5,36/a_60
    005227  aa   000000 000002
    005230  aa   000000 000075
    005231  aa   000000 001460
    005232  aa   000000 000074
    005233  aa   040040 040040     572  	io_2:	vfd a36/    ,36/i_r,36/r_apply,36/(app_1-l_org)/5,36/a_28
    005234  aa   000000 000000
    005235  aa   000000 000774
    005236  aa   000000 001061
    005237  aa   000000 000034
    005240  aa   163040 040040     573  		vfd a36/s   ,36/i_r,36/r_rerun,36/(run_1-l_org)/5,36/a_28
    005241  aa   000000 000000
    005242  aa   000000 001114
    005243  aa   000000 001244
    005244  aa   000000 000034
    005245  aa   163040 040040     574  		vfd a36/s   ,36/i_r,36/r_same,36/(sam_1-l_org)/5,36/a_28
    005246  aa   000000 000000
    005247  aa   000000 001121
    005250  aa   000000 001305
    005251  aa   000000 000034
    005252  aa   040040 040040     575  		vfd a36/    ,36/i_r,36/r_multiple,36/(mul_1-l_org)/5,36/a_28
    005253  aa   000000 000000
    005254  aa   000000 001072
    005255  aa   000000 001347
    005256  aa   000000 000034
    005257  aa   163040 040040     576  		vfd a36/s   ,36/i_r,36/r_per,36/(io_4-l_org)/5,36/0
    005260  aa   000000 000000
    005261  aa   000000 000275
    005262  aa   000000 001052
    005263  aa   000000 000000
    005264  aa   040040 040040     577  		vfd a36/    ,36/i_n,36/003,36/(l_175-l_org)/5,36/a_173
    005265  aa   000000 000002
    005266  aa   000000 000003
    005267  aa   000000 001045
    005270  aa   000000 000255
    005271  aa   040040 040040     578  l_175:		vfd a36/    ,36/i_c,36/c_clorder,36/(l_176-l_org)/5,36/0
    005272  aa   000000 000001
    005273  aa   000000 000002
    005274  aa   000000 001047
    005275  aa   000000 000000
    005276  aa   040040 040040     579  		vfd a36/    ,36/i_n,36/096,36/(l_176-l_org)/5,36/0
    005277  aa   000000 000002
    005300  aa   000000 000140
    005301  aa   000000 001047
    005302  aa   000000 000000
    005303  aa   040040 040040     580  l_176:		vfd a36/    ,36/i_r,36/r_data,36/(div-l_org)/5,36/0
    005304  aa   000000 000000
    005305  aa   000000 000304
    005306  aa   000000 000337
    005307  aa   000000 000000
    005310  aa   040040 040040     581  		vfd a36/    ,36/i_n,36/051,36/(r10dg-l_org)/5,36/a_60
    005311  aa   000000 000002
    005312  aa   000000 000063
    005313  aa   000000 001460
    005314  aa   000000 000074
    005315  aa   040040 040040     582  	io_3:	vfd a36/    ,36/i_n,36/0,36/(io_2-l_org)/5,36/a_50
    005316  aa   000000 000002
    005317  aa   000000 000000
    005320  aa   000000 001037
    005321  aa   000000 000062
    005322  aa   040040 040040     583  	io_4:	vfd a36/    ,36/i_r,36/r_apply,36/(io_5-l_org)/5,36/0
    005323  aa   000000 000000
    005324  aa   000000 000774
    005325  aa   000000 001060
    005326  aa   000000 000000
    005327  aa   040040 040040     584  		vfd a36/    ,36/i_r,36/r_rerun,36/(io_5-l_org)/5,36/0
    005330  aa   000000 000000
    005331  aa   000000 001114
    005332  aa   000000 001060
    005333  aa   000000 000000
    005334  aa   040040 040040     585  		vfd a36/    ,36/i_r,36/r_same,36/(io_5-l_org)/5,36/0
    005335  aa   000000 000000
    005336  aa   000000 001121
    005337  aa   000000 001060
    005340  aa   000000 000000
    005341  aa   040040 040040     586  		vfd a36/    ,36/i_r,36/r_multiple,36/(io_5-l_org)/5,36/0
    005342  aa   000000 000000
    005343  aa   000000 001072
    005344  aa   000000 001060
    005345  aa   000000 000000
    005346  aa   040040 040040     587  		vfd a36/    ,36/i_r,36/r_data,36/(div-l_org)/5,36/0
    005347  aa   000000 000000
    005350  aa   000000 000304
    005351  aa   000000 000337
    005352  aa   000000 000000
    005353  aa   040040 040040     588  		vfd a36/    ,36/i_n,36/061,36/(r10dg-l_org)/5,36/a_60
    005354  aa   000000 000002
    005355  aa   000000 000075
    005356  aa   000000 001460
    005357  aa   000000 000074
    005360  aa   040040 040040     589  	io_5:	vfd a36/    ,36/i_n,36/093,36/(io_2-l_org)/5,36/0
    005361  aa   000000 000002
    005362  aa   000000 000135
    005363  aa   000000 001037
    005364  aa   000000 000000
    005365  aa   163065 040040     590  	app_1:	vfd a36/s5  ,36/i_n,36/123,36/(l_177-l_org)/5,36/25
    005366  aa   000000 000002
    005367  aa   000000 000173
    005370  aa   000000 001062
    005371  aa   000000 000031
    005372  aa   163040 040040     591  l_177:		vfd a36/s   ,36/i_r,36/r_file,36/(l_178-l_org)/5,36/0
    005373  aa   000000 000000
    005374  aa   000000 000154
    005375  aa   000000 001073
    005376  aa   000000 000000
    005377  aa   163040 040040     592  		vfd a36/s   ,36/i_r,36/r_is,36/(app_2-l_org)/5,36/0
    005400  aa   000000 000000
    005401  aa   000000 000166
    005402  aa   000000 001074
    005403  aa   000000 000000
    005404  aa   040040 040040     593  		vfd a36/    ,36/i_r,36/r_temporary,36/(app_8-l_org)/5,36/0
    005405  aa   000000 000000
    005406  aa   000000 000631
    005407  aa   000000 001077
    005410  aa   000000 000000
    005411  aa   040040 040040     594  		vfd a36/    ,36/i_r,36/r_permanent,36/(app_8-l_org)/5,36/0
    005412  aa   000000 000000
    005413  aa   000000 000632
    005414  aa   000000 001077
    005415  aa   000000 000000
    005416  aa   163040 040040     595  		vfd a36/s   ,36/i_r,36/r_no,36/(app_9-l_org)/5,36/a_39
    005417  aa   000000 000000
    005420  aa   000000 000201
    005421  aa   000000 001124
    005422  aa   000000 000047
    005423  aa   040040 040040     596  		vfd a36/    ,36/i_r,36/r_detach,36/(app_10-l_org)/5,36/0
    005424  aa   000000 000000
    005425  aa   000000 000625
    005426  aa   000000 001123
    005427  aa   000000 000000
    005430  aa   163040 040040     597  		vfd a36/s   ,36/i_r,36/r_attach_options,36/(app_6-l_org)/5,36/0
    005431  aa   000000 000000
    005432  aa   000000 000634
    005433  aa   000000 001131
    005434  aa   000000 000000
    005435  aa   163040 040040     598  		vfd a36/s   ,36/i_r,36/r_tape_options,36/(tap_11-l_org)/5,36/0
    005436  aa   000000 000000
    005437  aa   000000 000633
    005440  aa   000000 001142
    005441  aa   000000 000000
    005442  aa   040040 040040     599  		vfd a36/    ,36/i_n,36/052,36/(r10dg-l_org)/5,36/a_60
    005443  aa   000000 000002
    005444  aa   000000 000064
    005445  aa   000000 001460
    005446  aa   000000 000074
    005447  aa   163040 040040     600  l_178:		vfd a36/s   ,36/i_r,36/r_is,36/(l_179-l_org)/5,36/0
    005450  aa   000000 000000
    005451  aa   000000 000166
    005452  aa   000000 001074
    005453  aa   000000 000000
    005454  aa   040040 040040     601  l_179:	app_2:	vfd a36/    ,36/i_r,36/r_temporary,36/(app_8-l_org)/5,36/0
    005455  aa   000000 000000
    005456  aa   000000 000631
    005457  aa   000000 001077
    005460  aa   000000 000000
    005461  aa   040040 040040     602  		vfd a36/    ,36/i_r,36/r_permanent,36/(app_8-l_org)/5,36/0
    005462  aa   000000 000000
    005463  aa   000000 000632
    005464  aa   000000 001077
    005465  aa   000000 000000
    005466  aa   040040 040040     603  		vfd a36/    ,36/i_n,36/068,36/(r10dg-l_org)/5,36/a_60
    005467  aa   000000 000002
    005470  aa   000000 000104
    005471  aa   000000 001460
    005472  aa   000000 000074
    005473  aa   163040 040040     604  	app_8:	vfd a36/s   ,36/i_n,36/0,36/(l_180-l_org)/5,36/a_38
    005474  aa   000000 000002
    005475  aa   000000 000000
    005476  aa   000000 001100
    005477  aa   000000 000046
    005500  aa   163040 040040     605  l_180:	app_3:	vfd a36/s   ,36/i_r,36/r_on,36/(l_181-l_org)/5,36/0
    005501  aa   000000 000000
    005502  aa   000000 000206
    005503  aa   000000 001101
    005504  aa   000000 000000
    005505  aa   040040 040040     606  l_181:		vfd a36/    ,36/i_c,36/c_chckft,36/(l_182-l_org)/5,36/a_43
    005506  aa   000000 000001
    005507  aa   000000 000006
    005510  aa   000000 001103
    005511  aa   000000 000053
    005512  aa   040040 040040     607  		vfd a36/    ,36/i_n,36/053,36/(r10dg-l_org)/5,36/a_60
    005513  aa   000000 000002
    005514  aa   000000 000065
    005515  aa   000000 001460
    005516  aa   000000 000074
    005517  aa   040040 040040     608  l_182:		vfd a36/    ,36/i_n,36/0,36/(l_183-l_org)/5,36/a_73
    005520  aa   000000 000002
    005521  aa   000000 000000
    005522  aa   000000 001105
    005523  aa   000000 000111
    005524  aa   040040 040040     609  		vfd a36/    ,36/i_n,36/111,36/(r10dg-l_org)/5,36/0
    005525  aa   000000 000002
    005526  aa   000000 000157
    005527  aa   000000 001460
    005530  aa   000000 000000
    005531  aa   163040 040040     610  l_183:		vfd a36/s   ,36/i_n,36/0,36/(l_184-l_org)/5,36/a_174
    005532  aa   000000 000002
    005533  aa   000000 000000
    005534  aa   000000 001112
    005535  aa   000000 000256
    005536  aa   163062 040040     611  		vfd a36/s2  ,36/i_n,36/214,36/(l_184-l_org)/5,36/17
    005537  aa   000000 000002
    005540  aa   000000 000326
    005541  aa   000000 001112
    005542  aa   000000 000021
    005543  aa   163064 040040     612  		vfd a36/s4  ,36/i_n,36/214,36/(l_184-l_org)/5,36/19
    005544  aa   000000 000002
    005545  aa   000000 000326
    005546  aa   000000 001112
    005547  aa   000000 000023
    005550  aa   040040 040040     613  		vfd a36/    ,36/i_n,36/111,36/(r10dg-l_org)/5,36/0
    005551  aa   000000 000002
    005552  aa   000000 000157
    005553  aa   000000 001460
    005554  aa   000000 000000
    005555  aa   163065 040040     614  		vfd a36/s5  ,36/i_n,36/214,36/(l_184-l_org)/5,36/25
    005556  aa   000000 000002
    005557  aa   000000 000326
    005560  aa   000000 001112
    005561  aa   000000 000031
    005562  aa   040040 040040     615  l_184:	app_4:	vfd a36/    ,36/i_c,36/c_chckft,36/(l_185-l_org)/5,36/a_43
    005563  aa   000000 000001
    005564  aa   000000 000006
    005565  aa   000000 001114
    005566  aa   000000 000053
    005567  aa   040040 040040     616  		vfd a36/    ,36/i_n,36/0,36/(io_3-l_org)/5,36/0
    005570  aa   000000 000002
    005571  aa   000000 000000
    005572  aa   000000 001051
    005573  aa   000000 000000
    005574  aa   040040 040040     617  l_185:		vfd a36/    ,36/i_n,36/0,36/(l_186-l_org)/5,36/a_73
    005575  aa   000000 000002
    005576  aa   000000 000000
    005577  aa   000000 001116
    005600  aa   000000 000111
    005601  aa   040040 040040     618  		vfd a36/    ,36/i_n,36/111,36/(r10dg-l_org)/5,36/0
    005602  aa   000000 000002
    005603  aa   000000 000157
    005604  aa   000000 001460
    005605  aa   000000 000000
    005606  aa   163040 040040     619  l_186:		vfd a36/s   ,36/i_n,36/0,36/(app_4-l_org)/5,36/a_174
    005607  aa   000000 000002
    005610  aa   000000 000000
    005611  aa   000000 001112
    005612  aa   000000 000256
    005613  aa   163062 040040     620  		vfd a36/s2  ,36/i_n,36/214,36/(app_4-l_org)/5,36/17
    005614  aa   000000 000002
    005615  aa   000000 000326
    005616  aa   000000 001112
    005617  aa   000000 000021
    005620  aa   163064 040040     621  		vfd a36/s4  ,36/i_n,36/214,36/(app_4-l_org)/5,36/19
    005621  aa   000000 000002
    005622  aa   000000 000326
    005623  aa   000000 001112
    005624  aa   000000 000023
    005625  aa   040040 040040     622  		vfd a36/    ,36/i_n,36/111,36/(r10dg-l_org)/5,36/0
    005626  aa   000000 000002
    005627  aa   000000 000157
    005630  aa   000000 001460
    005631  aa   000000 000000
    005632  aa   163065 040040     623  		vfd a36/s5  ,36/i_n,36/214,36/(app_4-l_org)/5,36/25
    005633  aa   000000 000002
    005634  aa   000000 000326
    005635  aa   000000 001112
    005636  aa   000000 000031
    005637  aa   163040 040040     624  	app_10:	vfd a36/s   ,36/i_n,36/0,36/(app_5-l_org)/5,36/a_39
    005640  aa   000000 000002
    005641  aa   000000 000000
    005642  aa   000000 001126
    005643  aa   000000 000047
    005644  aa   163040 040040     625  	app_9:	vfd a36/s   ,36/i_r,36/r_detach,36/(l_187-l_org)/5,36/0
    005645  aa   000000 000000
    005646  aa   000000 000625
    005647  aa   000000 001126
    005650  aa   000000 000000
    005651  aa   040040 040040     626  		vfd a36/    ,36/i_n,36/095,36/(l_187-l_org)/5,36/0
    005652  aa   000000 000002
    005653  aa   000000 000137
    005654  aa   000000 001126
    005655  aa   000000 000000
    005656  aa   163040 040040     627  l_187:	app_5:	vfd a36/s   ,36/i_r,36/r_at,36/(l_188-l_org)/5,36/0
    005657  aa   000000 000000
    005660  aa   000000 000117
    005661  aa   000000 001127
    005662  aa   000000 000000
    005663  aa   163040 040040     628  l_188:		vfd a36/s   ,36/i_r,36/r_close,36/(app_3-l_org)/5,36/0
    005664  aa   000000 000000
    005665  aa   000000 000010
    005666  aa   000000 001100
    005667  aa   000000 000000
    005670  aa   040040 040040     629  		vfd a36/    ,36/i_n,36/0,36/(app_3-l_org)/5,36/0
    005671  aa   000000 000002
    005672  aa   000000 000000
    005673  aa   000000 001100
    005674  aa   000000 000000
    005675  aa   163040 040040     630  	app_6:	vfd a36/s   ,36/i_r,36/r_are,36/(l_189-l_org)/5,36/0
    005676  aa   000000 000000
    005677  aa   000000 000166
    005700  aa   000000 001132
    005701  aa   000000 000000
    005702  aa   163040 040040     631  l_189:		vfd a36/s   ,36/i_c,36/c_usrwd,36/(app_7-l_org)/5,36/a_36
    005703  aa   000000 000001
    005704  aa   000000 000060
    005705  aa   000000 001135
    005706  aa   000000 000044
    005707  aa   163040 040040     632  		vfd a36/s   ,36/i_c,36/c_charst1,36/(app_3-l_org)/5,36/a_36
    005710  aa   000000 000001
    005711  aa   000000 000067
    005712  aa   000000 001100
    005713  aa   000000 000044
    005714  aa   040040 040040     633  		vfd a36/    ,36/i_n,36/054,36/(r10dg-l_org)/5,36/a_60
    005715  aa   000000 000002
    005716  aa   000000 000066
    005717  aa   000000 001460
    005720  aa   000000 000074
    005721  aa   163040 040040     634  	app_7:	vfd a36/s   ,36/i_r,36/r_of,36/(l_190-l_org)/5,36/0
    005722  aa   000000 000000
    005723  aa   000000 000205
    005724  aa   000000 001140
    005725  aa   000000 000000
    005726  aa   163040 040040     635  		vfd a36/s   ,36/i_r,36/r_in,36/(l_190-l_org)/5,36/0
    005727  aa   000000 000000
    005730  aa   000000 000145
    005731  aa   000000 001140
    005732  aa   000000 000000
    005733  aa   040040 040040     636  		vfd a36/    ,36/i_n,36/0,36/(app_3-l_org)/5,36/0
    005734  aa   000000 000002
    005735  aa   000000 000000
    005736  aa   000000 001100
    005737  aa   000000 000000
    005740  aa   163040 040040     637  l_190:		vfd a36/s   ,36/i_c,36/c_usrwd,36/(app_7-l_org)/5,36/a_95
    005741  aa   000000 000001
    005742  aa   000000 000060
    005743  aa   000000 001135
    005744  aa   000000 000137
    005745  aa   040040 040040     638  		vfd a36/    ,36/i_n,36/048,36/(r10dg-l_org)/5,36/a_60
    005746  aa   000000 000002
    005747  aa   000000 000060
    005750  aa   000000 001460
    005751  aa   000000 000074
    005752  aa   040040 040040     639  	tap_11:	vfd a36/    ,36/i_n,36/0,36/(l_191-l_org)/5,36/a_41
    005753  aa   000000 000002
    005754  aa   000000 000000
    005755  aa   000000 001143
    005756  aa   000000 000051
    005757  aa   163040 040040     640  l_191:		vfd a36/s   ,36/i_r,36/r_are,36/(l_192-l_org)/5,36/0
    005760  aa   000000 000000
    005761  aa   000000 000166
    005762  aa   000000 001144
    005763  aa   000000 000000
    005764  aa   040040 040040     641  l_192:		vfd a36/    ,36/i_r,36/r_output_mode,36/(tap_12-l_org)/5,36/0
    005765  aa   000000 000000
    005766  aa   000000 000630
    005767  aa   000000 001164
    005770  aa   000000 000000
    005771  aa   040040 040040     642  		vfd a36/    ,36/i_r,36/r_device,36/(tap_4-l_org)/5,36/0
    005772  aa   000000 000000
    005773  aa   000000 000626
    005774  aa   000000 001203
    005775  aa   000000 000000
    005776  aa   040040 040040     643  		vfd a36/    ,36/i_r,36/r_density,36/(tap_5-l_org)/5,36/0
    005777  aa   000000 000000
    006000  aa   000000 000636
    006001  aa   000000 001215
    006002  aa   000000 000000
    006003  aa   040040 040040     644  		vfd a36/    ,36/i_r,36/r_retain,36/(tap_13-l_org)/5,36/0
    006004  aa   000000 000000
    006005  aa   000000 000637
    006006  aa   000000 001241
    006007  aa   000000 000000
    006010  aa   040040 040040     645  		vfd a36/    ,36/i_r,36/r_force,36/(tap_13-l_org)/5,36/0
    006011  aa   000000 000000
    006012  aa   000000 000641
    006013  aa   000000 001241
    006014  aa   000000 000000
    006015  aa   040040 040040     646  		vfd a36/    ,36/i_r,36/r_protect,36/(tap_13-l_org)/5,36/0
    006016  aa   000000 000000
    006017  aa   000000 000642
    006020  aa   000000 001241
    006021  aa   000000 000000
    006022  aa   040040 040040     647  		vfd a36/    ,36/i_r,36/r_additional,36/(tap_6-l_org)/5,36/0
    006023  aa   000000 000000
    006024  aa   000000 000643
    006025  aa   000000 001221
    006026  aa   000000 000000
    006027  aa   040040 040040     648  		vfd a36/    ,36/i_n,36/098,36/(r10dg-l_org)/5,36/a_60
    006030  aa   000000 000002
    006031  aa   000000 000142
    006032  aa   000000 001460
    006033  aa   000000 000074
    006034  aa   040040 040040     649  	tap_2:	vfd a36/    ,36/i_r,36/r_output_mode,36/(l_193-l_org)/5,36/0
    006035  aa   000000 000000
    006036  aa   000000 000630
    006037  aa   000000 001164
    006040  aa   000000 000000
    006041  aa   040040 040040     650  		vfd a36/    ,36/i_r,36/r_device,36/(tap_4-l_org)/5,36/0
    006042  aa   000000 000000
    006043  aa   000000 000626
    006044  aa   000000 001203
    006045  aa   000000 000000
    006046  aa   040040 040040     651  		vfd a36/    ,36/i_r,36/r_density,36/(tap_5-l_org)/5,36/0
    006047  aa   000000 000000
    006050  aa   000000 000636
    006051  aa   000000 001215
    006052  aa   000000 000000
    006053  aa   040040 040040     652  		vfd a36/    ,36/i_r,36/r_retain,36/(tap_13-l_org)/5,36/0
    006054  aa   000000 000000
    006055  aa   000000 000637
    006056  aa   000000 001241
    006057  aa   000000 000000
    006060  aa   040040 040040     653  		vfd a36/    ,36/i_r,36/r_force,36/(tap_13-l_org)/5,36/0
    006061  aa   000000 000000
    006062  aa   000000 000641
    006063  aa   000000 001241
    006064  aa   000000 000000
    006065  aa   040040 040040     654  		vfd a36/    ,36/i_r,36/r_protect,36/(tap_13-l_org)/5,36/0
    006066  aa   000000 000000
    006067  aa   000000 000642
    006070  aa   000000 001241
    006071  aa   000000 000000
    006072  aa   040040 040040     655  		vfd a36/    ,36/i_r,36/r_additional,36/(tap_6-l_org)/5,36/0
    006073  aa   000000 000000
    006074  aa   000000 000643
    006075  aa   000000 001221
    006076  aa   000000 000000
    006077  aa   040040 040040     656  		vfd a36/    ,36/i_n,36/0,36/(app_3-l_org)/5,36/0
    006100  aa   000000 000002
    006101  aa   000000 000000
    006102  aa   000000 001100
    006103  aa   000000 000000
    006104  aa   163040 040040     657  l_193:	tap_12:	vfd a36/s   ,36/i_n,36/0,36/(l_194-l_org)/5,36/a_37
    006105  aa   000000 000002
    006106  aa   000000 000000
    006107  aa   000000 001165
    006110  aa   000000 000045
    006111  aa   163040 040040     658  l_194:		vfd a36/s   ,36/i_r,36/r_is,36/(l_195-l_org)/5,36/0
    006112  aa   000000 000000
    006113  aa   000000 000166
    006114  aa   000000 001166
    006115  aa   000000 000000
    006116  aa   040040 040040     659  l_195:		vfd a36/    ,36/i_r,36/r_generation,36/(tap_14-l_org)/5,36/0
    006117  aa   000000 000000
    006120  aa   000000 000644
    006121  aa   000000 001240
    006122  aa   000000 000000
    006123  aa   040040 040040     660  		vfd a36/    ,36/i_r,36/r_modification,36/(tap_14-l_org)/5,36/0
    006124  aa   000000 000000
    006125  aa   000000 000645
    006126  aa   000000 001240
    006127  aa   000000 000000
    006130  aa   040040 040040     661  		vfd a36/    ,36/i_r,36/r_replacement,36/(l_196-l_org)/5,36/0
    006131  aa   000000 000000
    006132  aa   000000 000660
    006133  aa   000000 001172
    006134  aa   000000 000000
    006135  aa   040040 040040     662  		vfd a36/    ,36/i_n,36/055,36/(r10dg-l_org)/5,36/a_60
    006136  aa   000000 000002
    006137  aa   000000 000067
    006140  aa   000000 001460
    006141  aa   000000 000074
    006142  aa   163040 040040     663  l_196:		vfd a36/s   ,36/i_n,36/0,36/(l_197-l_org)/5,36/a_46
    006143  aa   000000 000002
    006144  aa   000000 000000
    006145  aa   000000 001173
    006146  aa   000000 000056
    006147  aa   163040 040040     664  l_197:		vfd a36/s   ,36/i_c,36/c_usrwd,36/(tap_3-l_org)/5,36/a_47
    006150  aa   000000 000001
    006151  aa   000000 000060
    006152  aa   000000 001176
    006153  aa   000000 000057
    006154  aa   163040 040040     665  		vfd a36/s   ,36/i_c,36/c_alphanmlit,36/(tap_9-l_org)/5,36/a_47
    006155  aa   000000 000001
    006156  aa   000000 000063
    006157  aa   000000 001242
    006160  aa   000000 000057
    006161  aa   040040 040040     666  		vfd a36/    ,36/i_n,36/056,36/(r10dg-l_org)/5,36/a_60
    006162  aa   000000 000002
    006163  aa   000000 000070
    006164  aa   000000 001460
    006165  aa   000000 000074
    006166  aa   163040 040040     667  	tap_3:	vfd a36/s   ,36/i_r,36/r_of,36/(l_198-l_org)/5,36/0
    006167  aa   000000 000000
    006170  aa   000000 000205
    006171  aa   000000 001201
    006172  aa   000000 000000
    006173  aa   163040 040040     668  		vfd a36/s   ,36/i_r,36/r_in,36/(l_198-l_org)/5,36/0
    006174  aa   000000 000000
    006175  aa   000000 000145
    006176  aa   000000 001201
    006177  aa   000000 000000
    006200  aa   040040 040040     669  		vfd a36/    ,36/i_n,36/0,36/(tap_9-l_org)/5,36/0
    006201  aa   000000 000002
    006202  aa   000000 000000
    006203  aa   000000 001242
    006204  aa   000000 000000
    006205  aa   163040 040040     670  l_198:		vfd a36/s   ,36/i_c,36/c_usrwd,36/(tap_3-l_org)/5,36/a_95
    006206  aa   000000 000001
    006207  aa   000000 000060
    006210  aa   000000 001176
    006211  aa   000000 000137
    006212  aa   040040 040040     671  		vfd a36/    ,36/i_n,36/048,36/(r10dg-l_org)/5,36/a_60
    006213  aa   000000 000002
    006214  aa   000000 000060
    006215  aa   000000 001460
    006216  aa   000000 000074
    006217  aa   163040 040040     672  	tap_4:	vfd a36/s   ,36/i_n,36/0,36/(l_199-l_org)/5,36/a_37
    006220  aa   000000 000002
    006221  aa   000000 000000
    006222  aa   000000 001204
    006223  aa   000000 000045
    006224  aa   163040 040040     673  l_199:		vfd a36/s   ,36/i_r,36/r_is,36/(l_200-l_org)/5,36/0
    006225  aa   000000 000000
    006226  aa   000000 000166
    006227  aa   000000 001205
    006230  aa   000000 000000
    006231  aa   163040 040040     674  l_200:		vfd a36/s   ,36/i_c,36/c_integr,36/(tap_9-l_org)/5,36/a_45
    006232  aa   000000 000001
    006233  aa   000000 000037
    006234  aa   000000 001242
    006235  aa   000000 000055
    006236  aa   163040 040040     675  		vfd a36/s   ,36/i_c,36/c_usrwd,36/(tap_10-l_org)/5,36/a_45
    006237  aa   000000 000001
    006240  aa   000000 000060
    006241  aa   000000 001210
    006242  aa   000000 000055
    006243  aa   040040 040040     676  		vfd a36/    ,36/i_n,36/057,36/(r10dg-l_org)/5,36/a_60
    006244  aa   000000 000002
    006245  aa   000000 000071
    006246  aa   000000 001460
    006247  aa   000000 000074
    006250  aa   163040 040040     677  	tap_10:	vfd a36/s   ,36/i_r,36/r_of,36/(l_201-l_org)/5,36/0
    006251  aa   000000 000000
    006252  aa   000000 000205
    006253  aa   000000 001213
    006254  aa   000000 000000
    006255  aa   163040 040040     678  		vfd a36/s   ,36/i_r,36/r_in,36/(l_201-l_org)/5,36/0
    006256  aa   000000 000000
    006257  aa   000000 000145
    006260  aa   000000 001213
    006261  aa   000000 000000
    006262  aa   040040 040040     679  		vfd a36/    ,36/i_n,36/0,36/(tap_9-l_org)/5,36/0
    006263  aa   000000 000002
    006264  aa   000000 000000
    006265  aa   000000 001242
    006266  aa   000000 000000
    006267  aa   163040 040040     680  l_201:		vfd a36/s   ,36/i_c,36/c_usrwd,36/(tap_10-l_org)/5,36/a_95
    006270  aa   000000 000001
    006271  aa   000000 000060
    006272  aa   000000 001210
    006273  aa   000000 000137
    006274  aa   040040 040040     681  		vfd a36/    ,36/i_n,36/048,36/(r10dg-l_org)/5,36/a_60
    006275  aa   000000 000002
    006276  aa   000000 000060
    006277  aa   000000 001460
    006300  aa   000000 000074
    006301  aa   163040 040040     682  	tap_5:	vfd a36/s   ,36/i_n,36/0,36/(l_202-l_org)/5,36/a_37
    006302  aa   000000 000002
    006303  aa   000000 000000
    006304  aa   000000 001216
    006305  aa   000000 000045
    006306  aa   163040 040040     683  l_202:		vfd a36/s   ,36/i_r,36/r_is,36/(l_203-l_org)/5,36/0
    006307  aa   000000 000000
    006310  aa   000000 000166
    006311  aa   000000 001217
    006312  aa   000000 000000
    006313  aa   163040 040040     684  l_203:		vfd a36/s   ,36/i_c,36/c_denint,36/(tap_9-l_org)/5,36/a_48
    006314  aa   000000 000001
    006315  aa   000000 000072
    006316  aa   000000 001242
    006317  aa   000000 000060
    006320  aa   040040 040040     685  		vfd a36/    ,36/i_n,36/023,36/(r10dg-l_org)/5,36/a_60
    006321  aa   000000 000002
    006322  aa   000000 000027
    006323  aa   000000 001460
    006324  aa   000000 000074
    006325  aa   163040 040040     686  	tap_6:	vfd a36/s   ,36/i_n,36/0,36/(l_204-l_org)/5,36/a_37
    006326  aa   000000 000002
    006327  aa   000000 000000
    006330  aa   000000 001222
    006331  aa   000000 000045
    006332  aa   163040 040040     687  l_204:		vfd a36/s   ,36/i_r,36/r_catalog_name,36/(l_205-l_org)/5,36/0
    006333  aa   000000 000000
    006334  aa   000000 000513
    006335  aa   000000 001224
    006336  aa   000000 000000
    006337  aa   040040 040040     688  		vfd a36/    ,36/i_n,36/058,36/(l_205-l_org)/5,36/0
    006340  aa   000000 000002
    006341  aa   000000 000072
    006342  aa   000000 001224
    006343  aa   000000 000000
    006344  aa   163040 040040     689  l_205:		vfd a36/s   ,36/i_r,36/r_is,36/(l_206-l_org)/5,36/0
    006345  aa   000000 000000
    006346  aa   000000 000166
    006347  aa   000000 001225
    006350  aa   000000 000000
    006351  aa   163040 040040     690  l_206:		vfd a36/s   ,36/i_c,36/c_alphanmlit,36/(tap_8-l_org)/5,36/a_49
    006352  aa   000000 000001
    006353  aa   000000 000063
    006354  aa   000000 001235
    006355  aa   000000 000061
    006356  aa   163040 040040     691  		vfd a36/s   ,36/i_c,36/c_usrwd,36/(l_207-l_org)/5,36/a_49
    006357  aa   000000 000001
    006360  aa   000000 000060
    006361  aa   000000 001230
    006362  aa   000000 000061
    006363  aa   040040 040040     692  		vfd a36/    ,36/i_n,36/056,36/(r10dg-l_org)/5,36/a_60
    006364  aa   000000 000002
    006365  aa   000000 000070
    006366  aa   000000 001460
    006367  aa   000000 000074
    006370  aa   163040 040040     693  l_207:	tap_7:	vfd a36/s   ,36/i_r,36/r_of,36/(l_208-l_org)/5,36/0
    006371  aa   000000 000000
    006372  aa   000000 000205
    006373  aa   000000 001233
    006374  aa   000000 000000
    006375  aa   163040 040040     694  		vfd a36/s   ,36/i_r,36/r_in,36/(l_208-l_org)/5,36/0
    006376  aa   000000 000000
    006377  aa   000000 000145
    006400  aa   000000 001233
    006401  aa   000000 000000
    006402  aa   040040 040040     695  		vfd a36/    ,36/i_n,36/0,36/(tap_8-l_org)/5,36/0
    006403  aa   000000 000002
    006404  aa   000000 000000
    006405  aa   000000 001235
    006406  aa   000000 000000
    006407  aa   163040 040040     696  l_208:		vfd a36/s   ,36/i_c,36/c_usrwd,36/(tap_7-l_org)/5,36/a_95
    006410  aa   000000 000001
    006411  aa   000000 000060
    006412  aa   000000 001230
    006413  aa   000000 000137
    006414  aa   040040 040040     697  		vfd a36/    ,36/i_n,36/048,36/(r10dg-l_org)/5,36/a_60
    006415  aa   000000 000002
    006416  aa   000000 000060
    006417  aa   000000 001460
    006420  aa   000000 000074
    006421  aa   163040 040040     698  	tap_8:	vfd a36/s   ,36/i_c,36/c_alphanmlit,36/(tap_7-l_org)/5,36/a_49
    006422  aa   000000 000001
    006423  aa   000000 000063
    006424  aa   000000 001230
    006425  aa   000000 000061
    006426  aa   163040 040040     699  		vfd a36/s   ,36/i_c,36/c_usrwd,36/(tap_7-l_org)/5,36/a_49
    006427  aa   000000 000001
    006430  aa   000000 000060
    006431  aa   000000 001230
    006432  aa   000000 000061
    006433  aa   040040 040040     700  		vfd a36/    ,36/i_n,36/0,36/(tap_9-l_org)/5,36/0
    006434  aa   000000 000002
    006435  aa   000000 000000
    006436  aa   000000 001242
    006437  aa   000000 000000
    006440  aa   163040 040040     701  	tap_14:	vfd a36/s   ,36/i_n,36/0,36/(tap_9-l_org)/5,36/a_46
    006441  aa   000000 000002
    006442  aa   000000 000000
    006443  aa   000000 001242
    006444  aa   000000 000056
    006445  aa   163040 040040     702  	tap_13:	vfd a36/s   ,36/i_n,36/0,36/(l_209-l_org)/5,36/a_37
    006446  aa   000000 000002
    006447  aa   000000 000000
    006450  aa   000000 001242
    006451  aa   000000 000045
    006452  aa   040040 040040     703  l_209:	tap_9:	vfd a36/    ,36/i_c,36/c_dupopt,36/(tap_2-l_org)/5,36/0
    006453  aa   000000 000001
    006454  aa   000000 000025
    006455  aa   000000 001154
    006456  aa   000000 000000
    006457  aa   040040 040040     704  		vfd a36/    ,36/i_n,36/080,36/(tap_2-l_org)/5,36/0
    006460  aa   000000 000002
    006461  aa   000000 000120
    006462  aa   000000 001154
    006463  aa   000000 000000
    006464  aa   163040 040040     705  	run_1:	vfd a36/s   ,36/i_r,36/r_on,36/(run_5-l_org)/5,36/0
    006465  aa   000000 000000
    006466  aa   000000 000206
    006467  aa   000000 001273
    006470  aa   000000 000000
    006471  aa   163040 040040     706  	run_6:	vfd a36/s   ,36/i_r,36/r_every,36/(l_210-l_org)/5,36/0
    006472  aa   000000 000000
    006473  aa   000000 001036
    006474  aa   000000 001246
    006475  aa   000000 000000
    006476  aa   163040 040040     707  l_210:		vfd a36/s   ,36/i_c,36/c_usrwd,36/(io_3-l_org)/5,36/0
    006477  aa   000000 000001
    006500  aa   000000 000060
    006501  aa   000000 001051
    006502  aa   000000 000000
    006503  aa   163040 040040     708  		vfd a36/s   ,36/i_c,36/c_integr,36/(run_3-l_org)/5,36/0
    006504  aa   000000 000001
    006505  aa   000000 000037
    006506  aa   000000 001270
    006507  aa   000000 000000
    006510  aa   163040 040040     709  		vfd a36/s   ,36/i_r,36/r_end,36/(l_211-l_org)/5,36/0
    006511  aa   000000 000000
    006512  aa   000000 000142
    006513  aa   000000 001252
    006514  aa   000000 000000
    006515  aa   040040 040040     710  		vfd a36/    ,36/i_n,36/090,36/(r10dg-l_org)/5,36/a_60
    006516  aa   000000 000002
    006517  aa   000000 000132
    006520  aa   000000 001460
    006521  aa   000000 000074
    006522  aa   163040 040040     711  l_211:		vfd a36/s   ,36/i_r,36/r_of,36/(l_212-l_org)/5,36/0
    006523  aa   000000 000000
    006524  aa   000000 000205
    006525  aa   000000 001253
    006526  aa   000000 000000
    006527  aa   163040 040040     712  l_212:		vfd a36/s   ,36/i_r,36/r_reel,36/(l_213-l_org)/5,36/0
    006530  aa   000000 000000
    006531  aa   000000 000225
    006532  aa   000000 001256
    006533  aa   000000 000000
    006534  aa   163040 040040     713  		vfd a36/s   ,36/i_r,36/r_unit,36/(l_213-l_org)/5,36/0
    006535  aa   000000 000000
    006536  aa   000000 000254
    006537  aa   000000 001256
    006540  aa   000000 000000
    006541  aa   040040 040040     714  		vfd a36/    ,36/i_n,36/059,36/(r10dg-l_org)/5,36/a_60
    006542  aa   000000 000002
    006543  aa   000000 000073
    006544  aa   000000 001460
    006545  aa   000000 000074
    006546  aa   163040 040040     715  l_213:	run_4:	vfd a36/s   ,36/i_r,36/r_of,36/(l_214-l_org)/5,36/0
    006547  aa   000000 000000
    006550  aa   000000 000205
    006551  aa   000000 001257
    006552  aa   000000 000000
    006553  aa   040040 040040     716  l_214:		vfd a36/    ,36/i_c,36/c_chckft,36/(l_215-l_org)/5,36/0
    006554  aa   000000 000001
    006555  aa   000000 000006
    006556  aa   000000 001261
    006557  aa   000000 000000
    006560  aa   040040 040040     717  		vfd a36/    ,36/i_n,36/061,36/(r10dg-l_org)/5,36/a_60
    006561  aa   000000 000002
    006562  aa   000000 000075
    006563  aa   000000 001460
    006564  aa   000000 000074
    006565  aa   040040 040040     718  l_215:		vfd a36/    ,36/i_n,36/0,36/(l_216-l_org)/5,36/a_73
    006566  aa   000000 000002
    006567  aa   000000 000000
    006570  aa   000000 001263
    006571  aa   000000 000111
    006572  aa   040040 040040     719  		vfd a36/    ,36/i_n,36/111,36/(r10dg-l_org)/5,36/0
    006573  aa   000000 000002
    006574  aa   000000 000157
    006575  aa   000000 001460
    006576  aa   000000 000000
    006577  aa   163040 040040     720  l_216:		vfd a36/s   ,36/i_n,36/0,36/(io_3-l_org)/5,36/a_174
    006600  aa   000000 000002
    006601  aa   000000 000000
    006602  aa   000000 001051
    006603  aa   000000 000256
    006604  aa   163062 040040     721  		vfd a36/s2  ,36/i_n,36/213,36/(io_3-l_org)/5,36/17
    006605  aa   000000 000002
    006606  aa   000000 000325
    006607  aa   000000 001051
    006610  aa   000000 000021
    006611  aa   163064 040040     722  		vfd a36/s4  ,36/i_n,36/213,36/(io_3-l_org)/5,36/19
    006612  aa   000000 000002
    006613  aa   000000 000325
    006614  aa   000000 001051
    006615  aa   000000 000023
    006616  aa   040040 040040     723  		vfd a36/    ,36/i_n,36/111,36/(r10dg-l_org)/5,36/0
    006617  aa   000000 000002
    006620  aa   000000 000157
    006621  aa   000000 001460
    006622  aa   000000 000000
    006623  aa   163065 040040     724  		vfd a36/s5  ,36/i_n,36/213,36/(io_3-l_org)/5,36/25
    006624  aa   000000 000002
    006625  aa   000000 000325
    006626  aa   000000 001051
    006627  aa   000000 000031
    006630  aa   163040 040040     725  	run_3:	vfd a36/s   ,36/i_r,36/r_clock_units,36/(io_3-l_org)/5,36/0
    006631  aa   000000 000000
    006632  aa   000000 001001
    006633  aa   000000 001051
    006634  aa   000000 000000
    006635  aa   163040 040040     726  		vfd a36/s   ,36/i_r,36/r_records,36/(run_4-l_org)/5,36/0
    006636  aa   000000 000000
    006637  aa   000000 000303
    006640  aa   000000 001256
    006641  aa   000000 000000
    006642  aa   040040 040040     727  		vfd a36/    ,36/i_n,36/060,36/(r10dg-l_org)/5,36/a_60
    006643  aa   000000 000002
    006644  aa   000000 000074
    006645  aa   000000 001460
    006646  aa   000000 000074
    006647  aa   163040 040040     728  	run_5:	vfd a36/s   ,36/i_c,36/c_implnm1,36/(run_6-l_org)/5,36/0
    006650  aa   000000 000001
    006651  aa   000000 000036
    006652  aa   000000 001245
    006653  aa   000000 000000
    006654  aa   040040 040040     729  		vfd a36/    ,36/i_c,36/c_chckft,36/(l_217-l_org)/5,36/0
    006655  aa   000000 000001
    006656  aa   000000 000006
    006657  aa   000000 001276
    006660  aa   000000 000000
    006661  aa   040040 040040     730  		vfd a36/    ,36/i_n,36/062,36/(r10dg-l_org)/5,36/a_60
    006662  aa   000000 000002
    006663  aa   000000 000076
    006664  aa   000000 001460
    006665  aa   000000 000074
    006666  aa   040040 040040     731  l_217:		vfd a36/    ,36/i_n,36/0,36/(l_218-l_org)/5,36/a_73
    006667  aa   000000 000002
    006670  aa   000000 000000
    006671  aa   000000 001300
    006672  aa   000000 000111
    006673  aa   040040 040040     732  		vfd a36/    ,36/i_n,36/111,36/(r10dg-l_org)/5,36/0
    006674  aa   000000 000002
    006675  aa   000000 000157
    006676  aa   000000 001460
    006677  aa   000000 000000
    006700  aa   163040 040040     733  l_218:		vfd a36/s   ,36/i_n,36/0,36/(run_6-l_org)/5,36/a_174
    006701  aa   000000 000002
    006702  aa   000000 000000
    006703  aa   000000 001245
    006704  aa   000000 000256
    006705  aa   163062 040040     734  		vfd a36/s2  ,36/i_n,36/213,36/(run_6-l_org)/5,36/17
    006706  aa   000000 000002
    006707  aa   000000 000325
    006710  aa   000000 001245
    006711  aa   000000 000021
    006712  aa   163064 040040     735  		vfd a36/s4  ,36/i_n,36/213,36/(run_6-l_org)/5,36/19
    006713  aa   000000 000002
    006714  aa   000000 000325
    006715  aa   000000 001245
    006716  aa   000000 000023
    006717  aa   040040 040040     736  		vfd a36/    ,36/i_n,36/111,36/(r10dg-l_org)/5,36/0
    006720  aa   000000 000002
    006721  aa   000000 000157
    006722  aa   000000 001460
    006723  aa   000000 000000
    006724  aa   163065 040040     737  		vfd a36/s5  ,36/i_n,36/213,36/(run_6-l_org)/5,36/25
    006725  aa   000000 000002
    006726  aa   000000 000325
    006727  aa   000000 001245
    006730  aa   000000 000031
    006731  aa   163040 040040     738  	sam_1:	vfd a36/s   ,36/i_r,36/r_record,36/(l_219-l_org)/5,36/a_92
    006732  aa   000000 000000
    006733  aa   000000 000224
    006734  aa   000000 001311
    006735  aa   000000 000134
    006736  aa   040040 040040     739  		vfd a36/    ,36/i_r,36/r_sort,36/(sam_ck2-l_org)/5,36/a_92
    006737  aa   000000 000000
    006740  aa   000000 000061
    006741  aa   000000 001341
    006742  aa   000000 000134
    006743  aa   040040 040040     740  		vfd a36/    ,36/i_r,36/r_sort_merge,36/(sam_ck3-l_org)/5,36/a_92
    006744  aa   000000 000000
    006745  aa   000000 001126
    006746  aa   000000 001342
    006747  aa   000000 000134
    006750  aa   040040 040040     741  		vfd a36/    ,36/i_n,36/0,36/(l_219-l_org)/5,36/a_92
    006751  aa   000000 000002
    006752  aa   000000 000000
    006753  aa   000000 001311
    006754  aa   000000 000134
    006755  aa   163040 040040     742  l_219:	sam_3:	vfd a36/s   ,36/i_r,36/r_area,36/(l_220-l_org)/5,36/0
    006756  aa   000000 000000
    006757  aa   000000 000312
    006760  aa   000000 001312
    006761  aa   000000 000000
    006762  aa   163040 040040     743  l_220:		vfd a36/s   ,36/i_r,36/r_for,36/(l_221-l_org)/5,36/0
    006763  aa   000000 000000
    006764  aa   000000 000156
    006765  aa   000000 001313
    006766  aa   000000 000000
    006767  aa   040040 040040     744  l_221:	sam_2:	vfd a36/    ,36/i_c,36/c_chckft,36/(l_222-l_org)/5,36/0
    006770  aa   000000 000001
    006771  aa   000000 000006
    006772  aa   000000 001315
    006773  aa   000000 000000
    006774  aa   040040 040040     745  		vfd a36/    ,36/i_n,36/061,36/(r10dg-l_org)/5,36/a_60
    006775  aa   000000 000002
    006776  aa   000000 000075
    006777  aa   000000 001460
    007000  aa   000000 000074
    007001  aa   040040 040040     746  l_222:		vfd a36/    ,36/i_n,36/0,36/(l_223-l_org)/5,36/a_76
    007002  aa   000000 000002
    007003  aa   000000 000000
    007004  aa   000000 001317
    007005  aa   000000 000114
    007006  aa   040040 040040     747  		vfd a36/    ,36/i_n,36/111,36/(r10dg-l_org)/5,36/0
    007007  aa   000000 000002
    007010  aa   000000 000157
    007011  aa   000000 001460
    007012  aa   000000 000000
    007013  aa   040040 040040     748  l_223:		vfd a36/    ,36/i_n,36/0,36/(sam_ck1-l_org)/5,36/0
    007014  aa   000000 000002
    007015  aa   000000 000000
    007016  aa   000000 001331
    007017  aa   000000 000000
    007020  aa   040040 040040     749  		vfd a36/    ,36/i_n,36/0,36/(sam_ck4-l_org)/5,36/0
    007021  aa   000000 000002
    007022  aa   000000 000000
    007023  aa   000000 001343
    007024  aa   000000 000000
    007025  aa   040040 040040     750  		vfd a36/    ,36/i_n,36/0,36/(sam_ck4-l_org)/5,36/0
    007026  aa   000000 000002
    007027  aa   000000 000000
    007030  aa   000000 001343
    007031  aa   000000 000000
    007032  aa   040040 040040     751  l_224:		vfd a36/    ,36/i_n,36/0,36/(l_225-l_org)/5,36/a_73
    007033  aa   000000 000002
    007034  aa   000000 000000
    007035  aa   000000 001324
    007036  aa   000000 000111
    007037  aa   040040 040040     752  		vfd a36/    ,36/i_n,36/111,36/(r10dg-l_org)/5,36/0
    007040  aa   000000 000002
    007041  aa   000000 000157
    007042  aa   000000 001460
    007043  aa   000000 000000
    007044  aa   040040 040040     753  l_225:		vfd a36/    ,36/i_n,36/0,36/(sam_ck4-l_org)/5,36/a_178
    007045  aa   000000 000002
    007046  aa   000000 000000
    007047  aa   000000 001343
    007050  aa   000000 000262
    007051  aa   040040 040040     754  		vfd a36/    ,36/i_n,36/0,36/(sam_ck4-l_org)/5,36/a_178
    007052  aa   000000 000002
    007053  aa   000000 000000
    007054  aa   000000 001343
    007055  aa   000000 000262
    007056  aa   040040 040040     755  		vfd a36/    ,36/i_n,36/0,36/(sam_ck4-l_org)/5,36/a_178
    007057  aa   000000 000002
    007060  aa   000000 000000
    007061  aa   000000 001343
    007062  aa   000000 000262
    007063  aa   040040 040040     756  		vfd a36/    ,36/i_n,36/111,36/(r10dg-l_org)/5,36/0
    007064  aa   000000 000002
    007065  aa   000000 000157
    007066  aa   000000 001460
    007067  aa   000000 000000
    007070  aa   040040 040040     757  		vfd a36/    ,36/i_n,36/0,36/(sam_ck4-l_org)/5,36/a_178
    007071  aa   000000 000002
    007072  aa   000000 000000
    007073  aa   000000 001343
    007074  aa   000000 000262
    007075  aa   040040 040040     758  	sam_ck1:	vfd a36/    ,36/i_c,36/c_sortfile,36/(sam_ck4-l_org)/5,36/a_77
    007076  aa   000000 000001
    007077  aa   000000 000034
    007100  aa   000000 001343
    007101  aa   000000 000115
    007102  aa   040040 040040     759  		vfd a36/    ,36/i_n,36/0,36/(l_226-l_org)/5,36/a_73
    007103  aa   000000 000002
    007104  aa   000000 000000
    007105  aa   000000 001334
    007106  aa   000000 000111
    007107  aa   040040 040040     760  		vfd a36/    ,36/i_n,36/111,36/(r10dg-l_org)/5,36/0
    007110  aa   000000 000002
    007111  aa   000000 000157
    007112  aa   000000 001460
    007113  aa   000000 000000
    007114  aa   040040 040040     761  l_226:		vfd a36/    ,36/i_n,36/0,36/(sam_ck4-l_org)/5,36/a_179
    007115  aa   000000 000002
    007116  aa   000000 000000
    007117  aa   000000 001343
    007120  aa   000000 000263
    007121  aa   040040 040040     762  		vfd a36/    ,36/i_n,36/0,36/(sam_ck4-l_org)/5,36/a_179
    007122  aa   000000 000002
    007123  aa   000000 000000
    007124  aa   000000 001343
    007125  aa   000000 000263
    007126  aa   040040 040040     763  		vfd a36/    ,36/i_n,36/0,36/(sam_ck4-l_org)/5,36/a_179
    007127  aa   000000 000002
    007130  aa   000000 000000
    007131  aa   000000 001343
    007132  aa   000000 000263
    007133  aa   040040 040040     764  		vfd a36/    ,36/i_n,36/111,36/(r10dg-l_org)/5,36/0
    007134  aa   000000 000002
    007135  aa   000000 000157
    007136  aa   000000 001460
    007137  aa   000000 000000
    007140  aa   040040 040040     765  		vfd a36/    ,36/i_n,36/0,36/(sam_ck4-l_org)/5,36/a_179
    007141  aa   000000 000002
    007142  aa   000000 000000
    007143  aa   000000 001343
    007144  aa   000000 000263
    007145  aa   163064 040040     766  	sam_ck2:	vfd a36/s4  ,36/i_n,36/135,36/(sam_3-l_org)/5,36/6
    007146  aa   000000 000002
    007147  aa   000000 000207
    007150  aa   000000 001311
    007151  aa   000000 000006
    007152  aa   163064 040040     767  	sam_ck3:	vfd a36/s4  ,36/i_n,36/167,36/(sam_3-l_org)/5,36/6
    007153  aa   000000 000002
    007154  aa   000000 000247
    007155  aa   000000 001311
    007156  aa   000000 000006
    007157  aa   163040 040040     768  	sam_ck4:	vfd a36/s   ,36/i_c,36/c_samefree,36/(l_227-l_org)/5,36/a_51
    007160  aa   000000 000001
    007161  aa   000000 000053
    007162  aa   000000 001345
    007163  aa   000000 000063
    007164  aa   040040 040040     769  		vfd a36/    ,36/i_n,36/063,36/(r10dg-l_org)/5,36/a_60
    007165  aa   000000 000002
    007166  aa   000000 000077
    007167  aa   000000 001460
    007170  aa   000000 000074
    007171  aa   040040 040040     770  l_227:		vfd a36/    ,36/i_c,36/c_usrwd,36/(sam_2-l_org)/5,36/0
    007172  aa   000000 000001
    007173  aa   000000 000060
    007174  aa   000000 001313
    007175  aa   000000 000000
    007176  aa   040040 040040     771  		vfd a36/    ,36/i_n,36/0,36/(io_3-l_org)/5,36/0
    007177  aa   000000 000002
    007200  aa   000000 000000
    007201  aa   000000 001051
    007202  aa   000000 000000
    007203  aa   163063 040040     772  	mul_1:	vfd a36/s3  ,36/i_n,36/159,36/(l_228-l_org)/5,36/16
    007204  aa   000000 000002
    007205  aa   000000 000237
    007206  aa   000000 001350
    007207  aa   000000 000020
    007210  aa   163040 040040     773  l_228:		vfd a36/s   ,36/i_r,36/r_file,36/(l_229-l_org)/5,36/0
    007211  aa   000000 000000
    007212  aa   000000 000154
    007213  aa   000000 001351
    007214  aa   000000 000000
    007215  aa   163040 040040     774  l_229:		vfd a36/s   ,36/i_r,36/r_tape,36/(l_230-l_org)/5,36/0
    007216  aa   000000 000000
    007217  aa   000000 001136
    007220  aa   000000 001352
    007221  aa   000000 000000
    007222  aa   163040 040040     775  l_230:		vfd a36/s   ,36/i_r,36/r_contains,36/(l_231-l_org)/5,36/0
    007223  aa   000000 000000
    007224  aa   000000 000327
    007225  aa   000000 001353
    007226  aa   000000 000000
    007227  aa   040040 040040     776  l_231:		vfd a36/    ,36/i_c,36/c_chckft,36/(l_232-l_org)/5,36/0
    007230  aa   000000 000001
    007231  aa   000000 000006
    007232  aa   000000 001355
    007233  aa   000000 000000
    007234  aa   040040 040040     777  		vfd a36/    ,36/i_n,36/061,36/(r10dg-l_org)/5,36/a_60
    007235  aa   000000 000002
    007236  aa   000000 000075
    007237  aa   000000 001460
    007240  aa   000000 000074
    007241  aa   163040 040040     778  l_232:	mul_2:	vfd a36/s   ,36/i_c,36/c_multok,36/(l_233-l_org)/5,36/0
    007242  aa   000000 000001
    007243  aa   000000 000043
    007244  aa   000000 001357
    007245  aa   000000 000000
    007246  aa   163040 040040     779  		vfd a36/s   ,36/i_n,36/101,36/(l_233-l_org)/5,36/0
    007247  aa   000000 000002
    007250  aa   000000 000145
    007251  aa   000000 001357
    007252  aa   000000 000000
    007253  aa   163040 040040     780  l_233:		vfd a36/s   ,36/i_r,36/r_position,36/(l_234-l_org)/5,36/0
    007254  aa   000000 000000
    007255  aa   000000 001106
    007256  aa   000000 001361
    007257  aa   000000 000000
    007260  aa   040040 040040     781  		vfd a36/    ,36/i_n,36/0,36/(mul_3-l_org)/5,36/a_58
    007261  aa   000000 000002
    007262  aa   000000 000000
    007263  aa   000000 001364
    007264  aa   000000 000072
    007265  aa   163040 040040     782  l_234:		vfd a36/s   ,36/i_r,36/r_is,36/(l_235-l_org)/5,36/0
    007266  aa   000000 000000
    007267  aa   000000 000166
    007270  aa   000000 001362
    007271  aa   000000 000000
    007272  aa   163040 040040     783  l_235:		vfd a36/s   ,36/i_c,36/c_integr,36/(l_236-l_org)/5,36/a_56
    007273  aa   000000 000001
    007274  aa   000000 000037
    007275  aa   000000 001364
    007276  aa   000000 000070
    007277  aa   040040 040040     784  		vfd a36/    ,36/i_n,36/023,36/(r10dg-l_org)/5,36/a_60
    007300  aa   000000 000002
    007301  aa   000000 000027
    007302  aa   000000 001460
    007303  aa   000000 000074
    007304  aa   040040 040040     785  l_236:	mul_3:	vfd a36/    ,36/i_c,36/c_chckft,36/(mul_2-l_org)/5,36/0
    007305  aa   000000 000001
    007306  aa   000000 000006
    007307  aa   000000 001355
    007310  aa   000000 000000
    007311  aa   040040 040040     786  		vfd a36/    ,36/i_n,36/0,36/(io_3-l_org)/5,36/0
    007312  aa   000000 000002
    007313  aa   000000 000000
    007314  aa   000000 001051
    007315  aa   000000 000000
    007316  aa   040040 040040     787  	r1:	vfd a36/    ,36/i_c,36/c_areaa,36/(l_237-l_org)/5,36/0
    007317  aa   000000 000001
    007320  aa   000000 000003
    007321  aa   000000 001370
    007322  aa   000000 000000
    007323  aa   163040 040040     788  		vfd a36/s   ,36/i_n,36/0,36/(r1-l_org)/5,36/0
    007324  aa   000000 000002
    007325  aa   000000 000000
    007326  aa   000000 001366
    007327  aa   000000 000000
    007330  aa   040040 040040     789  l_237:		vfd a36/    ,36/i_r,36/r_program_id,36/(r1a-l_org)/5,36/0
    007331  aa   000000 000000
    007332  aa   000000 001107
    007333  aa   000000 001374
    007334  aa   000000 000000
    007335  aa   040040 040040     790  		vfd a36/    ,36/i_r,36/r_environment,36/(r1b2-l_org)/5,36/0
    007336  aa   000000 000000
    007337  aa   000000 001034
    007340  aa   000000 001423
    007341  aa   000000 000000
    007342  aa   040040 040040     791  		vfd a36/    ,36/i_r,36/089,36/(id_2-l_org)/5,36/0
    007343  aa   000000 000000
    007344  aa   000000 000131
    007345  aa   000000 000013
    007346  aa   000000 000000
    007347  aa   163040 040040     792  		vfd a36/s   ,36/i_n,36/0,36/(r1-l_org)/5,36/0
    007350  aa   000000 000002
    007351  aa   000000 000000
    007352  aa   000000 001366
    007353  aa   000000 000000
    007354  aa   163040 040040     793  	r1a:	vfd a36/s   ,36/i_c,36/c_ckpnm,36/(r1-l_org)/5,36/0
    007355  aa   000000 000001
    007356  aa   000000 000021
    007357  aa   000000 001366
    007360  aa   000000 000000
    007361  aa   040040 040040     794  		vfd a36/    ,36/i_n,36/058,36/(id_1-l_org)/5,36/0
    007362  aa   000000 000002
    007363  aa   000000 000072
    007364  aa   000000 000023
    007365  aa   000000 000000
    007366  aa   040040 040040     795  	r2:	vfd a36/    ,36/i_r,36/r_configuration,36/(r2a-l_org)/5,36/0
    007367  aa   000000 000000
    007370  aa   000000 001006
    007371  aa   000000 001424
    007372  aa   000000 000000
    007373  aa   040040 040040     796  	r3:	vfd a36/    ,36/i_r,36/r_source_computer,36/(r3a-l_org)/5,36/0
    007374  aa   000000 000000
    007375  aa   000000 001127
    007376  aa   000000 001425
    007377  aa   000000 000000
    007400  aa   040040 040040     797  	r4:	vfd a36/    ,36/i_r,36/r_debugging,36/(r4a-l_org)/5,36/0
    007401  aa   000000 000000
    007402  aa   000000 000130
    007403  aa   000000 001426
    007404  aa   000000 000000
    007405  aa   040040 040040     798  	r5:	vfd a36/    ,36/i_r,36/r_object_computer,36/(r5a-l_org)/5,36/0
    007406  aa   000000 000000
    007407  aa   000000 001074
    007410  aa   000000 001427
    007411  aa   000000 000000
    007412  aa   040040 040040     799  	r77:	vfd a36/    ,36/i_r,36/r_special_names,36/(r6g-l_org)/5,36/0
    007413  aa   000000 000000
    007414  aa   000000 001130
    007415  aa   000000 001430
    007416  aa   000000 000000
    007417  aa   040040 040040     800  	r7:	vfd a36/    ,36/i_c,36/c_switchnm,36/(r7a-l_org)/5,36/0
    007420  aa   000000 000001
    007421  aa   000000 000050
    007422  aa   000000 001431
    007423  aa   000000 000000
    007424  aa   040040 040040     801  		vfd a36/    ,36/i_c,36/c_specnam,36/(r7b-l_org)/5,36/0
    007425  aa   000000 000001
    007426  aa   000000 000055
    007427  aa   000000 001432
    007430  aa   000000 000000
    007431  aa   040040 040040     802  		vfd a36/    ,36/i_r,36/r_currency,36/(r7c-l_org)/5,36/0
    007432  aa   000000 000000
    007433  aa   000000 001015
    007434  aa   000000 001433
    007435  aa   000000 000000
    007436  aa   040040 040040     803  		vfd a36/    ,36/i_r,36/r_decimal_point,36/(r7d-l_org)/5,36/0
    007437  aa   000000 000000
    007440  aa   000000 001032
    007441  aa   000000 001434
    007442  aa   000000 000000
    007443  aa   040040 040040     804  		vfd a36/    ,36/i_r,36/r_input_output,36/(r7e-l_org)/5,36/0
    007444  aa   000000 000000
    007445  aa   000000 000167
    007446  aa   000000 001435
    007447  aa   000000 000000
    007450  aa   040040 040040     805  	r8:	vfd a36/    ,36/i_r,36/r_file_control,36/(r8a-l_org)/5,36/0
    007451  aa   000000 000000
    007452  aa   000000 001037
    007453  aa   000000 001436
    007454  aa   000000 000000
    007455  aa   040040 040040     806  	r9:	vfd a36/    ,36/i_r,36/r_select,36/(r9a-l_org)/5,36/0
    007456  aa   000000 000000
    007457  aa   000000 001124
    007460  aa   000000 001437
    007461  aa   000000 000000
    007462  aa   040040 040040     807  		vfd a36/    ,36/i_r,36/r_i_o_control,36/(r9b-l_org)/5,36/0
    007463  aa   000000 000000
    007464  aa   000000 001047
    007465  aa   000000 001440
    007466  aa   000000 000000
    007467  aa   040040 040040     808  	r10:	vfd a36/    ,36/i_r,36/r_apply,36/(r10a-l_org)/5,36/0
    007470  aa   000000 000000
    007471  aa   000000 000774
    007472  aa   000000 001441
    007473  aa   000000 000000
    007474  aa   040040 040040     809  		vfd a36/    ,36/i_r,36/r_rerun,36/(r10b-l_org)/5,36/0
    007475  aa   000000 000000
    007476  aa   000000 001114
    007477  aa   000000 001442
    007500  aa   000000 000000
    007501  aa   040040 040040     810  		vfd a36/    ,36/i_r,36/r_same,36/(r10c-l_org)/5,36/0
    007502  aa   000000 000000
    007503  aa   000000 001121
    007504  aa   000000 001443
    007505  aa   000000 000000
    007506  aa   040040 040040     811  		vfd a36/    ,36/i_r,36/r_multiple,36/(r10d-l_org)/5,36/0
    007507  aa   000000 000000
    007510  aa   000000 001072
    007511  aa   000000 001444
    007512  aa   000000 000000
    007513  aa   040040 040040     812  		vfd a36/    ,36/i_r,36/r_data,36/(r10e-l_org)/5,36/0
    007514  aa   000000 000000
    007515  aa   000000 000304
    007516  aa   000000 001445
    007517  aa   000000 000000
    007520  aa   163040 040040     813  		vfd a36/s   ,36/i_n,36/0,36/(r11-l_org)/5,36/0
    007521  aa   000000 000002
    007522  aa   000000 000000
    007523  aa   000000 001421
    007524  aa   000000 000000
    007525  aa   040040 040040     814  	r11:	vfd a36/    ,36/i_c,36/c_recovword,36/(r11-l_org)/5,36/a_59
    007526  aa   000000 000001
    007527  aa   000000 000064
    007530  aa   000000 001421
    007531  aa   000000 000073
    007532  aa   163040 040040     815  		vfd a36/s   ,36/i_n,36/0,36/(r11-l_org)/5,36/0
    007533  aa   000000 000002
    007534  aa   000000 000000
    007535  aa   000000 001421
    007536  aa   000000 000000
    007537  aa   040040 040040     816  	r1b2:	vfd a36/    ,36/i_n,36/089,36/(ed_4-l_org)/5,36/a_26
    007540  aa   000000 000002
    007541  aa   000000 000131
    007542  aa   000000 000200
    007543  aa   000000 000032
    007544  aa   040040 040040     817  	r2a:	vfd a36/    ,36/i_n,36/089,36/(ed_2-l_org)/5,36/0
    007545  aa   000000 000002
    007546  aa   000000 000131
    007547  aa   000000 000210
    007550  aa   000000 000000
    007551  aa   040040 040040     818  	r3a:	vfd a36/    ,36/i_n,36/089,36/(ed_3-l_org)/5,36/0
    007552  aa   000000 000002
    007553  aa   000000 000131
    007554  aa   000000 000220
    007555  aa   000000 000000
    007556  aa   040040 040040     819  	r4a:	vfd a36/    ,36/i_n,36/089,36/(sc_2-l_org)/5,36/a_12
    007557  aa   000000 000002
    007560  aa   000000 000131
    007561  aa   000000 000242
    007562  aa   000000 000014
    007563  aa   040040 040040     820  	r5a:	vfd a36/    ,36/i_n,36/089,36/(obj_1-l_org)/5,36/0
    007564  aa   000000 000002
    007565  aa   000000 000131
    007566  aa   000000 000253
    007567  aa   000000 000000
    007570  aa   040040 040040     821  	r6g:	vfd a36/    ,36/i_n,36/089,36/(snp-l_org)/5,36/0
    007571  aa   000000 000002
    007572  aa   000000 000131
    007573  aa   000000 000331
    007574  aa   000000 000000
    007575  aa   040040 040040     822  	r7a:	vfd a36/    ,36/i_n,36/089,36/(snp_3-l_org)/5,36/0
    007576  aa   000000 000002
    007577  aa   000000 000131
    007600  aa   000000 000355
    007601  aa   000000 000000
    007602  aa   040040 040040     823  	r7b:	vfd a36/    ,36/i_n,36/089,36/(snp_3-l_org)/5,36/0
    007603  aa   000000 000002
    007604  aa   000000 000131
    007605  aa   000000 000355
    007606  aa   000000 000000
    007607  aa   040040 040040     824  	r7c:	vfd a36/    ,36/i_n,36/089,36/(snp_3-l_org)/5,36/0
    007610  aa   000000 000002
    007611  aa   000000 000131
    007612  aa   000000 000355
    007613  aa   000000 000000
    007614  aa   040040 040040     825  	r7d:	vfd a36/    ,36/i_n,36/089,36/(snp_3-l_org)/5,36/0
    007615  aa   000000 000002
    007616  aa   000000 000131
    007617  aa   000000 000355
    007620  aa   000000 000000
    007621  aa   040040 040040     826  	r7e:	vfd a36/    ,36/i_n,36/089,36/(ios-l_org)/5,36/0
    007622  aa   000000 000002
    007623  aa   000000 000131
    007624  aa   000000 000536
    007625  aa   000000 000000
    007626  aa   040040 040040     827  	r8a:	vfd a36/    ,36/i_n,36/089,36/(fil_cl-l_org)/5,36/0
    007627  aa   000000 000002
    007630  aa   000000 000131
    007631  aa   000000 000546
    007632  aa   000000 000000
    007633  aa   040040 040040     828  	r9a:	vfd a36/    ,36/i_n,36/089,36/(sel-l_org)/5,36/0
    007634  aa   000000 000002
    007635  aa   000000 000131
    007636  aa   000000 000553
    007637  aa   000000 000000
    007640  aa   040040 040040     829  	r9b:	vfd a36/    ,36/i_n,36/089,36/(io_1-l_org)/5,36/0
    007641  aa   000000 000002
    007642  aa   000000 000131
    007643  aa   000000 001024
    007644  aa   000000 000000
    007645  aa   040040 040040     830  	r10a:	vfd a36/    ,36/i_n,36/089,36/(io_2-l_org)/5,36/0
    007646  aa   000000 000002
    007647  aa   000000 000131
    007650  aa   000000 001037
    007651  aa   000000 000000
    007652  aa   040040 040040     831  	r10b:	vfd a36/    ,36/i_n,36/089,36/(io_2-l_org)/5,36/0
    007653  aa   000000 000002
    007654  aa   000000 000131
    007655  aa   000000 001037
    007656  aa   000000 000000
    007657  aa   040040 040040     832  	r10c:	vfd a36/    ,36/i_n,36/089,36/(io_2-l_org)/5,36/0
    007660  aa   000000 000002
    007661  aa   000000 000131
    007662  aa   000000 001037
    007663  aa   000000 000000
    007664  aa   040040 040040     833  	r10d:	vfd a36/    ,36/i_n,36/089,36/(io_2-l_org)/5,36/0
    007665  aa   000000 000002
    007666  aa   000000 000131
    007667  aa   000000 001037
    007670  aa   000000 000000
    007671  aa   040040 040040     834  	r10e:	vfd a36/    ,36/i_n,36/089,36/(div-l_org)/5,36/0
    007672  aa   000000 000002
    007673  aa   000000 000131
    007674  aa   000000 000337
    007675  aa   000000 000000
    007676  aa   040040 040040     835  	r1dg:	vfd a36/    ,36/i_n,36/104,36/(r1-l_org)/5,36/0
    007677  aa   000000 000002
    007700  aa   000000 000150
    007701  aa   000000 001366
    007702  aa   000000 000000
    007703  aa   040040 040040     836  	r2dg:	vfd a36/    ,36/i_n,36/104,36/(r2-l_org)/5,36/0
    007704  aa   000000 000002
    007705  aa   000000 000150
    007706  aa   000000 001376
    007707  aa   000000 000000
    007710  aa   040040 040040     837  	r3dg:	vfd a36/    ,36/i_n,36/104,36/(r3-l_org)/5,36/0
    007711  aa   000000 000002
    007712  aa   000000 000150
    007713  aa   000000 001377
    007714  aa   000000 000000
    007715  aa   040040 040040     838  	r4dg:	vfd a36/    ,36/i_n,36/104,36/(r4-l_org)/5,36/0
    007716  aa   000000 000002
    007717  aa   000000 000150
    007720  aa   000000 001400
    007721  aa   000000 000000
    007722  aa   040040 040040     839  	r5dg:	vfd a36/    ,36/i_n,36/104,36/(r5-l_org)/5,36/0
    007723  aa   000000 000002
    007724  aa   000000 000150
    007725  aa   000000 001401
    007726  aa   000000 000000
    007727  aa   040040 040040     840  	r6dg:	vfd a36/    ,36/i_n,36/104,36/(r77-l_org)/5,36/0
    007730  aa   000000 000002
    007731  aa   000000 000150
    007732  aa   000000 001402
    007733  aa   000000 000000
    007734  aa   040040 040040     841  	r7dg:	vfd a36/    ,36/i_n,36/104,36/(r7-l_org)/5,36/0
    007735  aa   000000 000002
    007736  aa   000000 000150
    007737  aa   000000 001403
    007740  aa   000000 000000
    007741  aa   040040 040040     842  	r77dg:	vfd a36/    ,36/i_n,36/104,36/(r77-l_org)/5,36/0
    007742  aa   000000 000002
    007743  aa   000000 000150
    007744  aa   000000 001402
    007745  aa   000000 000000
    007746  aa   040040 040040     843  	r8dg:	vfd a36/    ,36/i_n,36/104,36/(r8-l_org)/5,36/0
    007747  aa   000000 000002
    007750  aa   000000 000150
    007751  aa   000000 001410
    007752  aa   000000 000000
    007753  aa   040040 040040     844  	r9dg:	vfd a36/    ,36/i_n,36/104,36/(r9-l_org)/5,36/0
    007754  aa   000000 000002
    007755  aa   000000 000150
    007756  aa   000000 001411
    007757  aa   000000 000000
    007760  aa   040040 040040     845  	r10dg:	vfd a36/    ,36/i_n,36/104,36/(r10-l_org)/5,36/0
    007761  aa   000000 000002
    007762  aa   000000 000150
    007763  aa   000000 001413
    007764  aa   000000 000000
    007765  aa   040040 040040     846  l_238:		vfd a36/    ,36/i_r,36/r_author,36/(l_238-l_org)/5,36/0
    007766  aa   000000 000000
    007767  aa   000000 000776
    007770  aa   000000 001461
    007771  aa   000000 000000
    007772  aa   040040 040040     847  l_239:		vfd a36/    ,36/i_r,36/r_blank,36/(l_239-l_org)/5,36/0
    007773  aa   000000 000000
    007774  aa   000000 000314
    007775  aa   000000 001462
    007776  aa   000000 000000
    007777  aa   040040 040040     848  l_240:		vfd a36/    ,36/i_r,36/r_attach,36/(l_240-l_org)/5,36/0
    010000  aa   000000 000000
    010001  aa   000000 000623
    010002  aa   000000 001463
    010003  aa   000000 000000
    010004  aa   040040 040040     849  l_241:		vfd a36/    ,36/i_r,36/r_block,36/(l_241-l_org)/5,36/0
    010005  aa   000000 000000
    010006  aa   000000 000315
    010007  aa   000000 001464
    010010  aa   000000 000000
    010011  aa   040040 040040     850  l_242:		vfd a36/    ,36/i_r,36/r_copy,36/(l_242-l_org)/5,36/0
    010012  aa   000000 000000
    010013  aa   000000 001012
    010014  aa   000000 001465
    010015  aa   000000 000000
    010016  aa   040040 040040     851  l_243:		vfd a36/    ,36/i_r,36/r_replacing,36/(l_243-l_org)/5,36/0
    010017  aa   000000 000000
    010020  aa   000000 000230
    010021  aa   000000 001466
    010022  aa   000000 000000
    010023  aa   040040 040040     852  l_244:		vfd a36/    ,36/i_r,36/r_date_compiled,36/(l_244-l_org)/5,36/0
    010024  aa   000000 000000
    010025  aa   000000 001017
    010026  aa   000000 001467
    010027  aa   000000 000000
    010030  aa   040040 040040     853  l_245:		vfd a36/    ,36/i_r,36/r_date_written,36/(l_245-l_org)/5,36/0
    010031  aa   000000 000000
    010032  aa   000000 001020
    010033  aa   000000 001470
    010034  aa   000000 000000
    010035  aa   040040 040040     854  l_246:		vfd a36/    ,36/i_r,36/r_indexed,36/(l_246-l_org)/5,36/0
    010036  aa   000000 000000
    010037  aa   000000 000337
    010040  aa   000000 001471
    010041  aa   000000 000000
    010042  aa   040040 040040     855  l_247:		vfd a36/    ,36/i_r,36/r_installation,36/(l_247-l_org)/5,36/0
    010043  aa   000000 000000
    010044  aa   000000 001052
    010045  aa   000000 001472
    010046  aa   000000 000000
    010047  aa   040040 040040     856  l_248:		vfd a36/    ,36/i_r,36/r_security,36/(l_248-l_org)/5,36/0
    010050  aa   000000 000000
    010051  aa   000000 001122
    010052  aa   000000 001473
    010053  aa   000000 000000
    010054  aa   040040 040040     857  l_249:		vfd a36/    ,36/i_r,36/r_native,36/(l_249-l_org)/5,36/0
    010055  aa   000000 000000
    010056  aa   000000 000440
    010057  aa   000000 001474
    010060  aa   000000 000000
    010061  aa   040040 040040     858  l_250:		vfd a36/    ,36/i_r,36/r_procedure,36/(l_250-l_org)/5,36/0
    010062  aa   000000 000000
    010063  aa   000000 000216
    010064  aa   000000 001475
    010065  aa   000000 000000
    010066  aa   040040 040040     859  l_251:		vfd a36/    ,36/i_r,36/r_limits,36/(l_251-l_org)/5,36/0
    010067  aa   000000 000000
    010070  aa   000000 001062
    010071  aa   000000 001476
    010072  aa   000000 000000
    010073  aa   040040 040040     860  l_252:		vfd a36/    ,36/i_r,36/r_by,36/(l_252-l_org)/5,36/0
    010074  aa   000000 000000
    010075  aa   000000 000122
    010076  aa   000000 001477
    010077  aa   000000 000000
    010100  aa   040040 040040     861  l_253:		vfd a36/    ,36/i_r,36/r_catalog_names,36/(l_253-l_org)/5,36/0
    010101  aa   000000 000000
    010102  aa   000000 000513
    010103  aa   000000 001500
    010104  aa   000000 000000
    010105  aa   040040 040040     862  l_254:		vfd a36/    ,36/i_r,36/r_catalogue_name,36/(l_254-l_org)/5,36/0
    010106  aa   000000 000000
    010107  aa   000000 000513
    010110  aa   000000 001501
    010111  aa   000000 000000
    010112  aa   040040 040040     863  l_255:		vfd a36/    ,36/i_r,36/r_catalogue_names,36/(l_255-l_org)/5,36/0
    010113  aa   000000 000000
    010114  aa   000000 000513
    010115  aa   000000 001502
    010116  aa   000000 000000
    010117  aa   040040 040040     864  l_256:		vfd a36/    ,36/i_r,36/r_comp_1,36/(l_256-l_org)/5,36/0
    010120  aa   000000 000000
    010121  aa   000000 000324
    010122  aa   000000 001503
    010123  aa   000000 000000
    010124  aa   040040 040040     865  l_257:		vfd a36/    ,36/i_r,36/r_comp_2,36/(l_257-l_org)/5,36/0
    010125  aa   000000 000000
    010126  aa   000000 000325
    010127  aa   000000 001504
    010130  aa   000000 000000
    010131  aa   040040 040040     866  l_258:		vfd a36/    ,36/i_r,36/r_comp_3,36/(l_258-l_org)/5,36/0
    010132  aa   000000 000000
    010133  aa   000000 000323
    010134  aa   000000 001505
    010135  aa   000000 000000
    010136  aa   040040 040040     867  l_259:		vfd a36/    ,36/i_r,36/r_comp_4,36/(l_259-l_org)/5,36/0
    010137  aa   000000 000000
    010140  aa   000000 000321
    010141  aa   000000 001506
    010142  aa   000000 000000
    010143  aa   040040 040040     868  l_260:		vfd a36/    ,36/i_r,36/r_comp_5,36/(l_260-l_org)/5,36/0
    010144  aa   000000 000000
    010145  aa   000000 000322
    010146  aa   000000 001507
    010147  aa   000000 000000
    010150  aa   040040 040040     869  l_261:		vfd a36/    ,36/i_r,36/r_comp_6,36/(l_261-l_org)/5,36/0
    010151  aa   000000 000000
    010152  aa   000000 000444
    010153  aa   000000 001510
    010154  aa   000000 000000
    010155  aa   040040 040040     870  l_262:		vfd a36/    ,36/i_r,36/r_comp_7,36/(l_262-l_org)/5,36/0
    010156  aa   000000 000000
    010157  aa   000000 000442
    010160  aa   000000 001511
    010161  aa   000000 000000
    010162  aa   040040 040040     871  l_263:		vfd a36/    ,36/i_r,36/r_comp_8,36/(l_263-l_org)/5,36/0
    010163  aa   000000 000000
    010164  aa   000000 001142
    010165  aa   000000 001512
    010166  aa   000000 000000
    010167  aa   040040 040040     872  l_264:		vfd a36/    ,36/i_r,36/r_computational,36/(l_264-l_org)/5,36/0
    010170  aa   000000 000000
    010171  aa   000000 000152
    010172  aa   000000 001513
    010173  aa   000000 000000
    010174  aa   040040 040040     873  l_265:		vfd a36/    ,36/i_r,36/r_computational_1,36/(l_265-l_org)/5,36/0
    010175  aa   000000 000000
    010176  aa   000000 000324
    010177  aa   000000 001514
    010200  aa   000000 000000
    010201  aa   040040 040040     874  l_266:		vfd a36/    ,36/i_r,36/r_computational_2,36/(l_266-l_org)/5,36/0
    010202  aa   000000 000000
    010203  aa   000000 000325
    010204  aa   000000 001515
    010205  aa   000000 000000
    010206  aa   040040 040040     875  l_267:		vfd a36/    ,36/i_r,36/r_computational_3,36/(l_267-l_org)/5,36/0
    010207  aa   000000 000000
    010210  aa   000000 000323
    010211  aa   000000 001516
    010212  aa   000000 000000
    010213  aa   040040 040040     876  l_268:		vfd a36/    ,36/i_r,36/r_computational_4,36/(l_268-l_org)/5,36/0
    010214  aa   000000 000000
    010215  aa   000000 000321
    010216  aa   000000 001517
    010217  aa   000000 000000
    010220  aa   040040 040040     877  l_269:		vfd a36/    ,36/i_r,36/r_computational_5,36/(l_269-l_org)/5,36/0
    010221  aa   000000 000000
    010222  aa   000000 000322
    010223  aa   000000 001520
    010224  aa   000000 000000
    010225  aa   040040 040040     878  l_270:		vfd a36/    ,36/i_r,36/r_computational_6,36/(l_270-l_org)/5,36/0
    010226  aa   000000 000000
    010227  aa   000000 000444
    010230  aa   000000 001521
    010231  aa   000000 000000
    010232  aa   040040 040040     879  l_271:		vfd a36/    ,36/i_r,36/r_computational_7,36/(l_271-l_org)/5,36/0
    010233  aa   000000 000000
    010234  aa   000000 000442
    010235  aa   000000 001522
    010236  aa   000000 000000
    010237  aa   040040 040040     880  l_272:		vfd a36/    ,36/i_r,36/r_computational_8,36/(l_272-l_org)/5,36/0
    010240  aa   000000 000000
    010241  aa   000000 001142
    010242  aa   000000 001523
    010243  aa   000000 000000
    010244  aa   040040 040040     881  l_273:		vfd a36/    ,36/i_r,36/r_stream,36/(l_273-l_org)/5,36/0
    010245  aa   000000 000000
    010246  aa   000000 000627
    010247  aa   000000 001524
    010250  aa   000000 000000
    010251  aa   040040 040040     882  l_274:		vfd a36/    ,36/i_r,36/r_replace,36/(l_274-l_org)/5,36/0
    010252  aa   000000 000000
    010253  aa   000000 000651
    010254  aa   000000 001525
    010255  aa   000000 000000
    010256  aa   040040 040040     883  l_275:		vfd a36/    ,36/i_r,36/r_through,36/(l_275-l_org)/5,36/0
    010257  aa   000000 000000
    010260  aa   000000 000246
    010261  aa   000000 001526
    010262  aa   000000 000000
    010263  aa   040040 040040     884  l_276:		vfd a36/    ,36/i_r,36/r_controls,36/(l_276-l_org)/5,36/0
    010264  aa   000000 000000
    010265  aa   000000 001011
    010266  aa   000000 001527
    010267  aa   000000 000000
    010270  aa   040040 040040     885  l_277:		vfd a36/    ,36/i_r,36/r_standard,36/(l_277-l_org)/5,36/0
    010271  aa   000000 000000
    010272  aa   000000 000242
    010273  aa   000000 001530
    010274  aa   000000 000000
    010275  aa   040040 040040     886  l_278:		vfd a36/    ,36/i_r,36/r_segment,36/(l_278-l_org)/5,36/0
    010276  aa   000000 000000
    010277  aa   000000 000237
    010300  aa   000000 001531
    010301  aa   000000 000000
    010302  aa   040040 040040     887  l_279:		vfd a36/    ,36/i_r,36/r_segment_limit,36/(l_279-l_org)/5,36/0
    010303  aa   000000 000000
    010304  aa   000000 001123
    010305  aa   000000 001532
    010306  aa   000000 000000
    010307  aa   040040 040040     888  l_280:		vfd a36/    ,36/i_r,36/r_standard_1,36/(l_280-l_org)/5,36/0
    010310  aa   000000 000000
    010311  aa   000000 000771
    010312  aa   000000 001533
    010313  aa   000000 000000
    010314  aa   040040 040040     889  l_281:		vfd a36/    ,36/i_r,36/r_standard_2,36/(l_281-l_org)/5,36/0
    010315  aa   000000 000000
    010316  aa   000000 000320
    010317  aa   000000 001534
    010320  aa   000000 000000
    010321  aa   040040 040040     890  l_282:		vfd a36/    ,36/i_r,36/r_all,36/(l_282-l_org)/5,36/0
    010322  aa   000000 000000
    010323  aa   000000 000111
    010324  aa   000000 001535
    010325  aa   000000 000000
    010326  aa   040040 040040     891  l_283:		vfd a36/    ,36/i_r,36/r_high_value,36/(l_283-l_org)/5,36/0
    010327  aa   000000 000000
    010330  aa   000000 000335
    010331  aa   000000 001536
    010332  aa   000000 000000
    010333  aa   040040 040040     892  l_284:		vfd a36/    ,36/i_r,36/r_high_values,36/(l_284-l_org)/5,36/0
    010334  aa   000000 000000
    010335  aa   000000 000335
    010336  aa   000000 001537
    010337  aa   000000 000000
    010340  aa   040040 040040     893  l_285:		vfd a36/    ,36/i_r,36/r_low_value,36/(l_285-l_org)/5,36/0
    010341  aa   000000 000000
    010342  aa   000000 000345
    010343  aa   000000 001540
    010344  aa   000000 000000
    010345  aa   040040 040040     894  l_286:		vfd a36/    ,36/i_r,36/r_low_values,36/(l_286-l_org)/5,36/0
    010346  aa   000000 000000
    010347  aa   000000 000345
    010350  aa   000000 001541
    010351  aa   000000 000000
    010352  aa   040040 040040     895  l_287:		vfd a36/    ,36/i_r,36/r_quote,36/(l_287-l_org)/5,36/0
    010353  aa   000000 000000
    010354  aa   000000 000353
    010355  aa   000000 001542
    010356  aa   000000 000000
    010357  aa   040040 040040     896  l_288:		vfd a36/    ,36/i_r,36/r_quotes,36/(l_288-l_org)/5,36/0
    010360  aa   000000 000000
    010361  aa   000000 000353
    010362  aa   000000 001543
    010363  aa   000000 000000
    010364  aa   040040 040040     897  l_289:		vfd a36/    ,36/i_r,36/r_space,36/(l_289-l_org)/5,36/0
    010365  aa   000000 000000
    010366  aa   000000 000300
    010367  aa   000000 001544
    010370  aa   000000 000000
    010371  aa   040040 040040     898  l_290:		vfd a36/    ,36/i_r,36/r_spaces,36/(l_290-l_org)/5,36/0
    010372  aa   000000 000000
    010373  aa   000000 000300
    010374  aa   000000 001545
    010375  aa   000000 000000
    010376  aa   040040 040040     899  l_291:		vfd a36/    ,36/i_r,36/r_zero,36/(l_291-l_org)/5,36/0
    010377  aa   000000 000000
    010400  aa   000000 000264
    010401  aa   000000 001546
    010402  aa   000000 000000
    010403  aa   040040 040040     900  l_292:		vfd a36/    ,36/i_r,36/r_zeroes,36/(l_292-l_org)/5,36/0
    010404  aa   000000 000000
    010405  aa   000000 000264
    010406  aa   000000 001547
    010407  aa   000000 000000
    010410  aa   040040 040040     901  l_293:		vfd a36/    ,36/i_r,36/r_zeros,36/(l_293-l_org)/5,36/0
    010411  aa   000000 000000
    010412  aa   000000 000264
    010413  aa   000000 001550
    010414  aa   000000 000000
    010415  aa   040040 040040     902  l_294:		vfd a36/    ,36/i_r,36/r_pls,36/(l_294-l_org)/5,36/0
    010416  aa   000000 000000
    010417  aa   000000 000266
    010420  aa   000000 001551
    010421  aa   000000 000000
    010422  aa   040040 040040     903  l_295:		vfd a36/    ,36/i_r,36/r_sub,36/(l_295-l_org)/5,36/0
    010423  aa   000000 000000
    010424  aa   000000 000267
    010425  aa   000000 001552
    010426  aa   000000 000000
    010427  aa   040040 040040     904  l_296:		vfd a36/    ,36/i_r,36/r_tim,36/(l_296-l_org)/5,36/0
    010430  aa   000000 000000
    010431  aa   000000 000270
    010432  aa   000000 001553
    010433  aa   000000 000000
    010434  aa   040040 040040     905  l_297:		vfd a36/    ,36/i_r,36/r_div,36/(l_297-l_org)/5,36/0
    010435  aa   000000 000000
    010436  aa   000000 000271
    010437  aa   000000 001554
    010440  aa   000000 000000
    010441  aa   040040 040040     906  l_298:		vfd a36/    ,36/i_r,36/r_exp,36/(l_298-l_org)/5,36/0
    010442  aa   000000 000000
    010443  aa   000000 000272
    010444  aa   000000 001555
    010445  aa   000000 000000
    010446  aa   040040 040040     907  l_299:		vfd a36/    ,36/i_r,36/r_ls,36/(l_299-l_org)/5,36/0
    010447  aa   000000 000000
    010450  aa   000000 000173
    010451  aa   000000 001556
    010452  aa   000000 000000
    010453  aa   040040 040040     908  l_300:		vfd a36/    ,36/i_r,36/r_gt,36/(l_300-l_org)/5,36/0
    010454  aa   000000 000000
    010455  aa   000000 000161
    010456  aa   000000 001557
    010457  aa   000000 000000
    010460  aa   040040 040040     909  l_301:		vfd a36/    ,36/i_r,36/r_eq,36/(l_301-l_org)/5,36/0
    010461  aa   000000 000000
    010462  aa   000000 000146
    010463  aa   000000 001560
    010464  aa   000000 000000
    010465  aa   040040 040040     910  l_302:		vfd a36/    ,36/i_r,36/r_lt,36/(l_302-l_org)/5,36/0
    010466  aa   000000 000000
    010467  aa   000000 000273
    010470  aa   000000 001561
    010471  aa   000000 000000
    010472  aa   040040 040040     911  l_303:		vfd a36/    ,36/i_r,36/r_rt,36/(l_303-l_org)/5,36/0
    010473  aa   000000 000000
    010474  aa   000000 000274
    010475  aa   000000 001562
    010476  aa   000000 000000
                        000000     912  	equ c_0,0
                        000001     913  	equ c_alfnam,1
                        000063     914  	equ c_alphanmlit,51
                        000003     915  	equ c_areaa,3
                        000004     916  	equ c_asgn,4
                        000070     917  	equ c_catalphalit,56
                        000066     918  	equ c_catusrwd,54
                        000067     919  	equ c_charst1,55
                        000006     920  	equ c_chckft,6
                        000073     921  	equ c_ckintnm,59
                        000014     922  	equ c_cknew,12
                        000021     923  	equ c_ckpnm,17
                        000024     924  	equ c_cktemp1,20
                        000002     925  	equ c_clorder,2
                        000007     926  	equ c_comp_test,7
                        000005     927  	equ c_comptype,5
                        000027     928  	equ c_currlit,23
                        000030     929  	equ c_decptok,24
                        000072     930  	equ c_denint,58
                        000071     931  	equ c_dupdef,57
                        000010     932  	equ c_dupdev,8
                        000025     933  	equ c_dupopt,21
                        000011     934  	equ c_dupsw,9
                        000045     935  	equ c_figcon,37
                        000012     936  	equ c_fileorg,10
                        000013     937  	equ c_filequal,11
                        000016     938  	equ c_idparnm,14
                        000035     939  	equ c_implnm,29
                        000036     940  	equ c_implnm1,30
                        000017     941  	equ c_in_dev,15
                        000037     942  	equ c_integr,31
                        000034     943  	equ c_iocl,28
                        000023     944  	equ c_is_alf,19
                        000022     945  	equ c_is_dev,18
                        000026     946  	equ c_is_sw,22
                        000041     947  	equ c_keyok,33
                        000042     948  	equ c_keyreqd,34
                        000031     949  	equ c_leftname,25
                        000043     950  	equ c_multok,35
                        000032     951  	equ c_oc_name,26
                        000046     952  	equ c_orgopt,38
                        000065     953  	equ c_orgqualok,53
                        000020     954  	equ c_out_dev,16
                        000064     955  	equ c_recovword,52
                        000033     956  	equ c_rempar,27
                        000040     957  	equ c_rightname,32
                        000053     958  	equ c_samefree,43
                        000056     959  	equ c_sc_name,46
                        000052     960  	equ c_smal50,42
                        000044     961  	equ c_sncl,36
                        000034     962  	equ c_sortfile,28
                        000055     963  	equ c_specnam,45
                        000061     964  	equ c_switch,49
                        000062     965  	equ c_switch_1,50
                        000015     966  	equ c_switch_2,13
                        000050     967  	equ c_switchnm,40
                        000057     968  	equ c_temp1eq1,47
                        000051     969  	equ c_tempint,41
                        000060     970  	equ c_usrwd,48
                        000001     971  	equ a_1,1
                        000012     972  	equ a_10,10
                        000144     973  	equ a_100,100
                        001750     974  	equ a_1000,1000
                        001751     975  	equ a_1001,1001
                        001752     976  	equ a_1002,1002
                        001753     977  	equ a_1003,1003
                        001754     978  	equ a_1004,1004
                        001755     979  	equ a_1005,1005
                        001756     980  	equ a_1006,1006
                        001757     981  	equ a_1007,1007
                        001760     982  	equ a_1008,1008
                        001761     983  	equ a_1009,1009
                        000145     984  	equ a_101,101
                        001762     985  	equ a_1010,1010
                        000146     986  	equ a_102,102
                        000147     987  	equ a_103,103
                        000150     988  	equ a_104,104
                        000151     989  	equ a_105,105
                        000152     990  	equ a_106,106
                        000153     991  	equ a_107,107
                        000154     992  	equ a_108,108
                        000155     993  	equ a_109,109
                        000013     994  	equ a_11,11
                        000156     995  	equ a_110,110
                        000157     996  	equ a_111,111
                        000160     997  	equ a_112,112
                        000161     998  	equ a_113,113
                        000162     999  	equ a_114,114
                        000163    1000  	equ a_115,115
                        000164    1001  	equ a_116,116
                        000165    1002  	equ a_117,117
                        000166    1003  	equ a_118,118
                        000167    1004  	equ a_119,119
                        000014    1005  	equ a_12,12
                        000170    1006  	equ a_120,120
                        000171    1007  	equ a_121,121
                        000172    1008  	equ a_122,122
                        000173    1009  	equ a_123,123
                        000174    1010  	equ a_124,124
                        000175    1011  	equ a_125,125
                        000176    1012  	equ a_126,126
                        000177    1013  	equ a_127,127
                        000200    1014  	equ a_128,128
                        000201    1015  	equ a_129,129
                        000015    1016  	equ a_13,13
                        000202    1017  	equ a_130,130
                        000203    1018  	equ a_131,131
                        000204    1019  	equ a_132,132
                        000205    1020  	equ a_133,133
                        000206    1021  	equ a_134,134
                        000207    1022  	equ a_135,135
                        000210    1023  	equ a_136,136
                        000211    1024  	equ a_137,137
                        000212    1025  	equ a_138,138
                        000213    1026  	equ a_139,139
                        000016    1027  	equ a_14,14
                        000214    1028  	equ a_140,140
                        000215    1029  	equ a_141,141
                        000216    1030  	equ a_142,142
                        000217    1031  	equ a_143,143
                        000220    1032  	equ a_144,144
                        000221    1033  	equ a_145,145
                        000222    1034  	equ a_146,146
                        000223    1035  	equ a_147,147
                        000224    1036  	equ a_148,148
                        000225    1037  	equ a_149,149
                        000017    1038  	equ a_15,15
                        000226    1039  	equ a_150,150
                        000227    1040  	equ a_151,151
                        000230    1041  	equ a_152,152
                        000231    1042  	equ a_153,153
                        000232    1043  	equ a_154,154
                        000233    1044  	equ a_155,155
                        000234    1045  	equ a_156,156
                        000235    1046  	equ a_157,157
                        000236    1047  	equ a_158,158
                        000237    1048  	equ a_159,159
                        000020    1049  	equ a_16,16
                        000240    1050  	equ a_160,160
                        000241    1051  	equ a_161,161
                        000242    1052  	equ a_162,162
                        000243    1053  	equ a_163,163
                        000244    1054  	equ a_164,164
                        000245    1055  	equ a_165,165
                        000246    1056  	equ a_166,166
                        000247    1057  	equ a_167,167
                        000250    1058  	equ a_168,168
                        000251    1059  	equ a_169,169
                        000021    1060  	equ a_17,17
                        000252    1061  	equ a_170,170
                        000253    1062  	equ a_171,171
                        000254    1063  	equ a_172,172
                        000255    1064  	equ a_173,173
                        000256    1065  	equ a_174,174
                        000257    1066  	equ a_175,175
                        000260    1067  	equ a_176,176
                        000261    1068  	equ a_177,177
                        000262    1069  	equ a_178,178
                        000263    1070  	equ a_179,179
                        000022    1071  	equ a_18,18
                        000023    1072  	equ a_19,19
                        000002    1073  	equ a_2,2
                        000024    1074  	equ a_20,20
                        000310    1075  	equ a_200,200
                        000311    1076  	equ a_201,201
                        000312    1077  	equ a_202,202
                        000313    1078  	equ a_203,203
                        000314    1079  	equ a_204,204
                        000315    1080  	equ a_205,205
                        000316    1081  	equ a_206,206
                        000317    1082  	equ a_207,207
                        000320    1083  	equ a_208,208
                        000321    1084  	equ a_209,209
                        000025    1085  	equ a_21,21
                        000322    1086  	equ a_210,210
                        000323    1087  	equ a_211,211
                        000324    1088  	equ a_212,212
                        000325    1089  	equ a_213,213
                        000326    1090  	equ a_214,214
                        000327    1091  	equ a_215,215
                        000330    1092  	equ a_216,216
                        000331    1093  	equ a_217,217
                        000332    1094  	equ a_218,218
                        000333    1095  	equ a_219,219
                        000026    1096  	equ a_22,22
                        000334    1097  	equ a_220,220
                        000335    1098  	equ a_221,221
                        000336    1099  	equ a_222,222
                        000337    1100  	equ a_223,223
                        000340    1101  	equ a_224,224
                        000341    1102  	equ a_225,225
                        000342    1103  	equ a_226,226
                        000343    1104  	equ a_227,227
                        000344    1105  	equ a_228,228
                        000345    1106  	equ a_229,229
                        000027    1107  	equ a_23,23
                        000030    1108  	equ a_24,24
                        000031    1109  	equ a_25,25
                        000032    1110  	equ a_26,26
                        000033    1111  	equ a_27,27
                        000034    1112  	equ a_28,28
                        000035    1113  	equ a_29,29
                        000003    1114  	equ a_3,3
                        000036    1115  	equ a_30,30
                        000037    1116  	equ a_31,31
                        000040    1117  	equ a_32,32
                        000041    1118  	equ a_33,33
                        000042    1119  	equ a_34,34
                        000043    1120  	equ a_35,35
                        000044    1121  	equ a_36,36
                        000045    1122  	equ a_37,37
                        000046    1123  	equ a_38,38
                        000047    1124  	equ a_39,39
                        000004    1125  	equ a_4,4
                        000050    1126  	equ a_40,40
                        000051    1127  	equ a_41,41
                        000052    1128  	equ a_42,42
                        000053    1129  	equ a_43,43
                        000054    1130  	equ a_44,44
                        000055    1131  	equ a_45,45
                        000056    1132  	equ a_46,46
                        000057    1133  	equ a_47,47
                        000060    1134  	equ a_48,48
                        000061    1135  	equ a_49,49
                        000005    1136  	equ a_5,5
                        000062    1137  	equ a_50,50
                        000063    1138  	equ a_51,51
                        000064    1139  	equ a_52,52
                        000065    1140  	equ a_53,53
                        000066    1141  	equ a_54,54
                        000067    1142  	equ a_55,55
                        000070    1143  	equ a_56,56
                        000071    1144  	equ a_57,57
                        000072    1145  	equ a_58,58
                        000073    1146  	equ a_59,59
                        000006    1147  	equ a_6,6
                        000074    1148  	equ a_60,60
                        000075    1149  	equ a_61,61
                        000076    1150  	equ a_62,62
                        000077    1151  	equ a_63,63
                        000100    1152  	equ a_64,64
                        000101    1153  	equ a_65,65
                        000102    1154  	equ a_66,66
                        000103    1155  	equ a_67,67
                        000104    1156  	equ a_68,68
                        000105    1157  	equ a_69,69
                        000007    1158  	equ a_7,7
                        000106    1159  	equ a_70,70
                        000107    1160  	equ a_71,71
                        000110    1161  	equ a_72,72
                        000111    1162  	equ a_73,73
                        000112    1163  	equ a_74,74
                        000113    1164  	equ a_75,75
                        000114    1165  	equ a_76,76
                        000115    1166  	equ a_77,77
                        000116    1167  	equ a_78,78
                        000117    1168  	equ a_79,79
                        000010    1169  	equ a_8,8
                        000120    1170  	equ a_80,80
                        000121    1171  	equ a_81,81
                        000122    1172  	equ a_82,82
                        000123    1173  	equ a_83,83
                        000124    1174  	equ a_84,84
                        000125    1175  	equ a_85,85
                        000126    1176  	equ a_86,86
                        000127    1177  	equ a_87,87
                        000130    1178  	equ a_88,88
                        000131    1179  	equ a_89,89
                        000011    1180  	equ a_9,9
                        000132    1181  	equ a_90,90
                        000133    1182  	equ a_91,91
                        000134    1183  	equ a_92,92
                        000135    1184  	equ a_93,93
                        000136    1185  	equ a_94,94
                        000137    1186  	equ a_95,95
                        000140    1187  	equ a_96,96
                        000141    1188  	equ a_97,97
                        000142    1189  	equ a_98,98
                        000143    1190  	equ a_99,99
                        000146    1191  	equ r_eq,102
                        000273    1192  	equ r_lt,187
                        000274    1193  	equ r_rt,188
                        000270    1194  	equ r_tim,184
                        000272    1195  	equ r_exp,186
                        000266    1196  	equ r_pls,182
                        000267    1197  	equ r_sub,183
                        000275    1198  	equ r_per,189
                        000271    1199  	equ r_div,185
                        000173    1200  	equ r_ls,123
                        000161    1201  	equ r_gt,113
                        000001    1202  	equ r_accept,1
                        000765    1203  	equ r_access,501
                        000643    1204  	equ r_additional,419
                        000150    1205  	equ r_aggregate,104
                        000111    1206  	equ r_all,73
                        000770    1207  	equ r_alphabet,504
                        000140    1208  	equ r_also,96
                        000773    1209  	equ r_alternate,507
                        000774    1210  	equ r_apply,508
                        000166    1211  	equ r_are,118
                        000312    1212  	equ r_area,202
                        000312    1213  	equ r_areas,202
                        000775    1214  	equ r_assign,509
                        000117    1215  	equ r_at,79
                        000623    1216  	equ r_attach,403
                        000634    1217  	equ r_attach_options,412
                        000776    1218  	equ r_author,510
                        000302    1219  	equ r_bits,194
                        000314    1220  	equ r_blank,204
                        000315    1221  	equ r_block,205
                        000635    1222  	equ r_bsn,413
                        000122    1223  	equ r_by,82
                        000513    1224  	equ r_catalog_name,331
                        000513    1225  	equ r_catalog_names,331
                        000513    1226  	equ r_catalogue_name,331
                        000513    1227  	equ r_catalogue_names,331
                        000123    1228  	equ r_character,83
                        000123    1229  	equ r_characters,83
                        001001    1230  	equ r_clock_units,513
                        000010    1231  	equ r_close,8
                        001003    1232  	equ r_collating,515
                        001005    1233  	equ r_comma,517
                        000152    1234  	equ r_comp,106
                        000324    1235  	equ r_comp_1,212
                        000325    1236  	equ r_comp_2,213
                        000323    1237  	equ r_comp_3,211
                        000321    1238  	equ r_comp_4,209
                        000322    1239  	equ r_comp_5,210
                        000444    1240  	equ r_comp_6,292
                        000442    1241  	equ r_comp_7,290
                        001142    1242  	equ r_comp_8,610
                        000152    1243  	equ r_computational,106
                        000324    1244  	equ r_computational_1,212
                        000325    1245  	equ r_computational_2,213
                        000323    1246  	equ r_computational_3,211
                        000321    1247  	equ r_computational_4,209
                        000322    1248  	equ r_computational_5,210
                        000444    1249  	equ r_computational_6,292
                        000442    1250  	equ r_computational_7,290
                        001142    1251  	equ r_computational_8,610
                        001006    1252  	equ r_configuration,518
                        000327    1253  	equ r_contains,215
                        001010    1254  	equ r_control,520
                        001011    1255  	equ r_controls,521
                        001012    1256  	equ r_copy,522
                        001015    1257  	equ r_currency,525
                        000304    1258  	equ r_data,196
                        001017    1259  	equ r_date_compiled,527
                        001020    1260  	equ r_date_written,528
                        000130    1261  	equ r_debugging,88
                        001032    1262  	equ r_decimal_point,538
                        000447    1263  	equ r_default,295
                        000636    1264  	equ r_density,414
                        000305    1265  	equ r_descriptors,197
                        000625    1266  	equ r_detach,405
                        000626    1267  	equ r_device,406
                        000052    1268  	equ r_display,42
                        000136    1269  	equ r_division,94
                        000343    1270  	equ r_duplicates,227
                        000251    1271  	equ r_dynamic,169
                        000142    1272  	equ r_end,98
                        001034    1273  	equ r_environment,540
                        001036    1274  	equ r_every,542
                        000463    1275  	equ r_external,307
                        000154    1276  	equ r_file,108
                        001037    1277  	equ r_file_control,543
                        000420    1278  	equ r_flr,272
                        000156    1279  	equ r_for,110
                        000641    1280  	equ r_force,417
                        000055    1281  	equ r_generate,45
                        000644    1282  	equ r_generation,420
                        000335    1283  	equ r_high_value,221
                        000335    1284  	equ r_high_values,221
                        001047    1285  	equ r_i_o_control,551
                        001050    1286  	equ r_identification,552
                        000145    1287  	equ r_in,101
                        000337    1288  	equ r_indexed,223
                        000167    1289  	equ r_input_output,119
                        001052    1290  	equ r_installation,554
                        000166    1291  	equ r_is,118
                        000170    1292  	equ r_key,120
                        000172    1293  	equ r_leading,122
                        001061    1294  	equ r_limit,561
                        001062    1295  	equ r_limits,562
                        000345    1296  	equ r_low_value,229
                        000345    1297  	equ r_low_values,229
                        001070    1298  	equ r_memory,568
                        000176    1299  	equ r_message,126
                        000346    1300  	equ r_mode,230
                        000645    1301  	equ r_modification,421
                        001071    1302  	equ r_modules,569
                        001072    1303  	equ r_multiple,570
                        000440    1304  	equ r_native,288
                        000201    1305  	equ r_no,129
                        000203    1306  	equ r_numeric,131
                        000443    1307  	equ r_object,291
                        001074    1308  	equ r_object_computer,572
                        000205    1309  	equ r_of,133
                        001076    1310  	equ r_off,574
                        000313    1311  	equ r_omitted,203
                        000206    1312  	equ r_on,134
                        001100    1313  	equ r_optional,576
                        000265    1314  	equ r_organization,181
                        000630    1315  	equ r_output_mode,408
                        000632    1316  	equ r_permanent,410
                        001106    1317  	equ r_position,582
                        000216    1318  	equ r_procedure,142
                        000222    1319  	equ r_program,146
                        001107    1320  	equ r_program_id,583
                        000642    1321  	equ r_protect,418
                        000352    1322  	equ r_queue,234
                        000353    1323  	equ r_quote,235
                        000353    1324  	equ r_quotes,235
                        000223    1325  	equ r_random,147
                        000224    1326  	equ r_record,148
                        000303    1327  	equ r_records,195
                        000225    1328  	equ r_reel,149
                        000247    1329  	equ r_relative,167
                        000651    1330  	equ r_replace,425
                        000660    1331  	equ r_replacement,432
                        000230    1332  	equ r_replacing,152
                        001114    1333  	equ r_rerun,588
                        001115    1334  	equ r_reserve,589
                        000637    1335  	equ r_retain,415
                        001121    1336  	equ r_same,593
                        000210    1337  	equ r_scalar,136
                        000236    1338  	equ r_section,158
                        001122    1339  	equ r_security,594
                        000237    1340  	equ r_segment,159
                        001123    1341  	equ r_segment_limit,595
                        001124    1342  	equ r_select,596
                        000364    1343  	equ r_separate,244
                        001113    1344  	equ r_sequence,587
                        001125    1345  	equ r_sequential,597
                        000365    1346  	equ r_sign,245
                        000241    1347  	equ r_size,161
                        000061    1348  	equ r_sort,49
                        001126    1349  	equ r_sort_merge,598
                        001127    1350  	equ r_source_computer,599
                        000300    1351  	equ r_space,192
                        000300    1352  	equ r_spaces,192
                        001131    1353  	equ r_spanned,601
                        001130    1354  	equ r_special_names,600
                        000125    1355  	equ r_ssf,85
                        000242    1356  	equ r_standard,162
                        000771    1357  	equ r_standard_1,505
                        000320    1358  	equ r_standard_2,208
                        000367    1359  	equ r_status,247
                        000627    1360  	equ r_stream,407
                        000663    1361  	equ r_substitution,435
                        000373    1362  	equ r_symbolic,251
                        001136    1363  	equ r_tape,606
                        000633    1364  	equ r_tape_options,411
                        000631    1365  	equ r_temporary,409
                        000246    1366  	equ r_through,166
                        000246    1367  	equ r_thru,166
                        000252    1368  	equ r_to,170
                        000377    1369  	equ r_trailing,255
                        000254    1370  	equ r_unit,172
                        000311    1371  	equ r_vlr,201
                        000263    1372  	equ r_with,179
                        001141    1373  	equ r_words,609
                        000264    1374  	equ r_zero,180
                        000264    1375  	equ r_zeroes,180
                        000264    1376  	equ r_zeros,180
                                  1377  	end
ENTRY SEQUENCES

    010477  5a   000011 0000 00
    010500  aa  7 00046 2721 20
    010501  0a   000000 7100 00

NO LITERALS

NAME DEFINITIONS FOR ENTRY POINTS AND SEGDEFS

    010502  5a   000003 000000
    010503  5a   000026 600000
    010504  aa   000000 000000
    010505  55   000011 000002
    010506  5a   000002 400003
    010507  55   000006 000011
    010510  aa  012 143 157 142
    010511  aa  157 154 137 151
    010512  aa  144 145 144 000
    010513  55   000017 000003
    010514  0a   010500 500000
    010515  55   000014 000003
    010516  aa  012 143 157 142         cobol_ided
    010517  aa  157 154 137 151
    010520  aa  144 145 144 000
    010521  55   000002 000011
    010522  6a   000000 400002
    010523  55   000022 000003
    010524  aa  014 163 171 155         symbol_table
    010525  aa  142 157 154 137
    010526  aa  164 141 142 154
    010527  aa  145 000 000 000

DEFINITIONS HASH TABLE

    010530  aa   000000 000015
    010531  aa   000000 000000
    010532  aa   000000 000000
    010533  aa   000000 000000
    010534  aa   000000 000000
    010535  aa   000000 000000
    010536  aa   000000 000000
    010537  5a   000017 000000
    010540  aa   000000 000000
    010541  aa   000000 000000
    010542  aa   000000 000000
    010543  5a   000011 000000
    010544  aa   000000 000000
    010545  aa   000000 000000

NO EXTERNAL NAMES

NO TRAP POINTER WORDS

TYPE PAIR BLOCKS

    010546  aa   000001 000000
    010547  aa   000000 000000

INTERNAL EXPRESSION WORDS

LINKAGE INFORMATION

    000000  aa   000000 000000
    000001  0a   010502 000000
    000002  aa   000000 000000
    000003  aa   000000 000000
    000004  aa   000000 000000
    000005  aa   000000 000000
    000006  22   000010 000010
    000007  a2   000000 000000
SYMBOL INFORMATION

SYMBOL TABLE HEADER

    000000  aa   000000 000001
    000001  aa   163171 155142
    000002  aa   164162 145145
    000003  aa   000000 000010
    000004  aa   000000 116606
    000005  aa   116110 132154
    000006  aa   000000 117220
    000007  aa   246424 075253
    000010  aa   141154 155040
    000011  aa   040040 040040
    000012  aa   000024 000040
    000013  aa   000034 000040
    000014  aa   000044 000100
    000015  aa   000002 000002
    000016  aa   000064 000000
    000017  aa   000000 000514
    000020  aa   000000 000104
    000021  aa   000477 000474
    000022  aa   000506 000104
    000023  aa   000064 000000
    000024  aa   101114 115040
    000025  aa   126145 162163
    000026  aa   151157 156040
    000027  aa   070056 061063
    000030  aa   040123 145160
    000031  aa   164145 155142
    000032  aa   145162 040061
    000033  aa   071070 070040
    000034  aa   110151 162156
    000035  aa   145151 163145
    000036  aa   156056 123171
    000037  aa   163115 141151
    000040  aa   156164 056141
    000041  aa   040040 040040
    000042  aa   040040 040040
    000043  aa   040040 040040
    000044  aa   055164 141162
    000045  aa   147145 164040
    000046  aa   154066 070040
    000047  aa   040040 040040
    000050  aa   040040 040040
    000051  aa   040040 040040
    000052  aa   040040 040040
    000053  aa   040040 040040
    000054  aa   040040 040040
    000055  aa   040040 040040
    000056  aa   040154 151163
    000057  aa   164040 163171
    000060  aa   155142 157154
    000061  aa   163040 040040
    000062  aa   040040 040040
    000063  aa   040040 040040
    000064  aa   000000 000001
    000065  aa   000000 000001
    000066  aa   000072 000050
    000067  aa   172113 321273
    000070  aa   000000 117220
    000071  aa   217272 400000
    000072  aa   076163 160145          >spec>install>MR12.3-1048>cobol_ided.alm
    000073  aa   143076 151156
    000074  aa   163164 141154
    000075  aa   154076 115122
    000076  aa   061062 056063
    000077  aa   055061 060064
    000100  aa   070076 143157
    000101  aa   142157 154137
    000102  aa   151144 145144
    000103  aa   056141 154155
               MULTICS ASSEMBLY CROSS REFERENCE LISTING

   Value        Symbol                   Source file   Line number

         637    acc_1                    cobol_ided:    84,  112.
        4242    acs_1                    cobol_ided:   405,  471.
        3030    alf                      cobol_ided:   263,  268,  341.
        3100    alf_1                    cobol_ided:   280,  281,  282,  349.
        3124    alf_2                    cobol_ided:   353,  367,  368,  369.
        3174    alf_3                    cobol_ided:   354,  361,  365.
        3232    alf_4                    cobol_ided:   355,  360,  366,  367.
        5024    alt_1                    cobol_ided:   411,  545.
        5031    alt_2                    cobol_ided:   546,  559.
        5067    alt_3                    cobol_ided:   552,  555.
        5120    alt_4                    cobol_ided:   554,  557.
        5365    app_1                    cobol_ided:   566,  572,  590.
        5637    app_10                   cobol_ided:   596,  624.
        5454    app_2                    cobol_ided:   592,  601.
        5500    app_3                    cobol_ided:   605,  628,  629,  632,  636,  656.
        5562    app_4                    cobol_ided:   615,  619,  620,  621,  623.
        5656    app_5                    cobol_ided:   624,  627.
        5675    app_6                    cobol_ided:   597,  630.
        5721    app_7                    cobol_ided:   631,  634,  637.
        5473    app_8                    cobol_ided:   593,  594,  601,  602,  604.
        5644    app_9                    cobol_ided:   595,  625.
        4115    asign_1                  cobol_ided:   402,  454.
           1    a_1                      cobol_ided:    32,  971.
          12    a_10                     cobol_ided:   151,  152,  972.
         144    a_100                    cobol_ided:   973.
        1750    a_1000                   cobol_ided:   974.
        1751    a_1001                   cobol_ided:   975.
        1752    a_1002                   cobol_ided:   976.
        1753    a_1003                   cobol_ided:   977.
        1754    a_1004                   cobol_ided:   978.
        1755    a_1005                   cobol_ided:   979.
        1756    a_1006                   cobol_ided:   980.
        1757    a_1007                   cobol_ided:   981.
        1760    a_1008                   cobol_ided:   982.
        1761    a_1009                   cobol_ided:   983.
         145    a_101                    cobol_ided:   984.
        1762    a_1010                   cobol_ided:   985.
         146    a_102                    cobol_ided:   986.
         147    a_103                    cobol_ided:   987.
         150    a_104                    cobol_ided:   988.
         151    a_105                    cobol_ided:   989.
         152    a_106                    cobol_ided:   990.
         153    a_107                    cobol_ided:   991.
         154    a_108                    cobol_ided:   992.
         155    a_109                    cobol_ided:   993.
          13    a_11                     cobol_ided:   153,  994.
         156    a_110                    cobol_ided:   995.
         157    a_111                    cobol_ided:   996.
         160    a_112                    cobol_ided:   997.
         161    a_113                    cobol_ided:   998.
         162    a_114                    cobol_ided:   999.
         163    a_115                    cobol_ided:  1000.
         164    a_116                    cobol_ided:  1001.
         165    a_117                    cobol_ided:  1002.
         166    a_118                    cobol_ided:  1003.
         167    a_119                    cobol_ided:  1004.
          14    a_12                     cobol_ided:   819, 1005.
         170    a_120                    cobol_ided:  1006.
         171    a_121                    cobol_ided:  1007.
         172    a_122                    cobol_ided:  1008.
         173    a_123                    cobol_ided:  1009.
         174    a_124                    cobol_ided:  1010.
         175    a_125                    cobol_ided:   526, 1011.
         176    a_126                    cobol_ided:  1012.
         177    a_127                    cobol_ided:  1013.
         200    a_128                    cobol_ided:  1014.
         201    a_129                    cobol_ided:  1015.
          15    a_13                     cobol_ided:   246, 1016.
         202    a_130                    cobol_ided:  1017.
         203    a_131                    cobol_ided:  1018.
         204    a_132                    cobol_ided:  1019.
         205    a_133                    cobol_ided:   419, 1020.
         206    a_134                    cobol_ided:  1021.
         207    a_135                    cobol_ided:  1022.
         210    a_136                    cobol_ided:  1023.
         211    a_137                    cobol_ided:  1024.
         212    a_138                    cobol_ided:  1025.
         213    a_139                    cobol_ided:  1026.
          16    a_14                     cobol_ided:   261,  262,  263,  266,  267,  268, 1027.
         214    a_140                    cobol_ided:  1028.
         215    a_141                    cobol_ided:  1029.
         216    a_142                    cobol_ided:  1030.
         217    a_143                    cobol_ided:  1031.
         220    a_144                    cobol_ided:  1032.
         221    a_145                    cobol_ided:  1033.
         222    a_146                    cobol_ided:  1034.
         223    a_147                    cobol_ided:  1035.
         224    a_148                    cobol_ided:  1036.
         225    a_149                    cobol_ided:  1037.
          17    a_15                     cobol_ided:    34,   35,   37,   38, 1038.
         226    a_150                    cobol_ided:  1039.
         227    a_151                    cobol_ided:  1040.
         230    a_152                    cobol_ided:  1041.
         231    a_153                    cobol_ided:  1042.
         232    a_154                    cobol_ided:  1043.
         233    a_155                    cobol_ided:  1044.
         234    a_156                    cobol_ided:  1045.
         235    a_157                    cobol_ided:  1046.
         236    a_158                    cobol_ided:  1047.
         237    a_159                    cobol_ided:  1048.
          20    a_16                     cobol_ided:   331, 1049.
         240    a_160                    cobol_ided:  1050.
         241    a_161                    cobol_ided:  1051.
         242    a_162                    cobol_ided:    79,   80,   83,   84,  115, 1052.
         243    a_163                    cobol_ided:  1053.
         244    a_164                    cobol_ided:   113, 1054.
         245    a_165                    cobol_ided:   100, 1055.
         246    a_166                    cobol_ided:  1056.
         247    a_167                    cobol_ided:   124,  125, 1057.
         250    a_168                    cobol_ided:  1058.
         251    a_169                    cobol_ided:   133, 1059.
          21    a_17                     cobol_ided:   338, 1060.
         252    a_170                    cobol_ided:    87,  101,  105, 1061.
         253    a_171                    cobol_ided:    88,  102,  106, 1062.
         254    a_172                    cobol_ided:   108, 1063.
         255    a_173                    cobol_ided:    45,   51,   55,   66,   73,  140,  162,  170,  176,  190,  203,  225,
                                                       260,  384,  390,  564,  577, 1064.
         256    a_174                    cobol_ided:   610,  619,  720,  733, 1065.
         257    a_175                    cobol_ided:   482,  483,  500,  501,  510,  511,  546, 1066.
         260    a_176                    cobol_ided:   486,  487,  493,  494,  504,  505,  514,  515,  521,  522,  552,  553, 1067.
         261    a_177                    cobol_ided:   488,  495,  506,  516,  523,  554, 1068.
         262    a_178                    cobol_ided:   753,  754,  755,  757, 1069.
         263    a_179                    cobol_ided:   761,  762,  763,  765, 1070.
          22    a_18                     cobol_ided:  1071.
          23    a_19                     cobol_ided:   322, 1072.
           2    a_2                      cobol_ided:   178,  179, 1073.
          24    a_20                     cobol_ided:   325, 1074.
         310    a_200                    cobol_ided:  1075.
         311    a_201                    cobol_ided:  1076.
         312    a_202                    cobol_ided:  1077.
         313    a_203                    cobol_ided:  1078.
         314    a_204                    cobol_ided:  1079.
         315    a_205                    cobol_ided:  1080.
         316    a_206                    cobol_ided:  1081.
         317    a_207                    cobol_ided:  1082.
         320    a_208                    cobol_ided:  1083.
         321    a_209                    cobol_ided:  1084.
          25    a_21                     cobol_ided:   280,  281,  282,  344,  345,  346, 1085.
         322    a_210                    cobol_ided:  1086.
         323    a_211                    cobol_ided:  1087.
         324    a_212                    cobol_ided:  1088.
         325    a_213                    cobol_ided:  1089.
         326    a_214                    cobol_ided:  1090.
         327    a_215                    cobol_ided:  1091.
         330    a_216                    cobol_ided:  1092.
         331    a_217                    cobol_ided:  1093.
         332    a_218                    cobol_ided:  1094.
         333    a_219                    cobol_ided:  1095.
          26    a_22                     cobol_ided:   285,  286,  295, 1096.
         334    a_220                    cobol_ided:  1097.
         335    a_221                    cobol_ided:  1098.
         336    a_222                    cobol_ided:  1099.
         337    a_223                    cobol_ided:  1100.
         340    a_224                    cobol_ided:  1101.
         341    a_225                    cobol_ided:  1102.
         342    a_226                    cobol_ided:  1103.
         343    a_227                    cobol_ided:  1104.
         344    a_228                    cobol_ided:  1105.
         345    a_229                    cobol_ided:  1106.
          27    a_23                     cobol_ided:   305,  313, 1107.
          30    a_24                     cobol_ided:   400, 1108.
          31    a_25                     cobol_ided:   447,  449, 1109.
          32    a_26                     cobol_ided:    58,  816, 1110.
          33    a_27                     cobol_ided:   561,  562, 1111.
          34    a_28                     cobol_ided:   566,  567,  568,  569,  572,  573,  574,  575, 1112.
          35    a_29                     cobol_ided:   473,  474,  475, 1113.
           3    a_3                      cobol_ided:   186,  191, 1114.
          36    a_30                     cobol_ided:   477,  478, 1115.
          37    a_31                     cobol_ided:   394,  395,  396, 1116.
          40    a_32                     cobol_ided:   550, 1117.
          41    a_33                     cobol_ided:  1118.
          42    a_34                     cobol_ided:   440,  441,  442,  443,  445,  446, 1119.
          43    a_35                     cobol_ided:   484, 1120.
          44    a_36                     cobol_ided:   631,  632, 1121.
          45    a_37                     cobol_ided:   657,  672,  682,  686,  702, 1122.
          46    a_38                     cobol_ided:   604, 1123.
          47    a_39                     cobol_ided:   595,  624, 1124.
           4    a_4                      cobol_ided:   196, 1125.
          50    a_40                     cobol_ided:   207,  208, 1126.
          51    a_41                     cobol_ided:   639, 1127.
          52    a_42                     cobol_ided:   392,  425, 1128.
          53    a_43                     cobol_ided:   606,  615, 1129.
          54    a_44                     cobol_ided:   349,  350,  351,  367,  368,  369, 1130.
          55    a_45                     cobol_ided:   674,  675, 1131.
          56    a_46                     cobol_ided:   663,  701, 1132.
          57    a_47                     cobol_ided:   664,  665, 1133.
          60    a_48                     cobol_ided:   177,  204,  684, 1134.
          61    a_49                     cobol_ided:   690,  691,  698,  699, 1135.
           5    a_5                      cobol_ided:   205,  206, 1136.
          62    a_50                     cobol_ided:   582, 1137.
          63    a_51                     cobol_ided:   768, 1138.
          64    a_52                     cobol_ided:   339, 1139.
          65    a_53                     cobol_ided:   370,  371, 1140.
          66    a_54                     cobol_ided:    94, 1141.
          67    a_55                     cobol_ided:    95, 1142.
          70    a_56                     cobol_ided:   783, 1143.
          71    a_57                     cobol_ided:  1144.
          72    a_58                     cobol_ided:   781, 1145.
          73    a_59                     cobol_ided:   814, 1146.
           6    a_6                      cobol_ided:   209,  210,  211,  219,  220,  221, 1147.
          74    a_60                     cobol_ided:    30,   31,   47,   53,  160,  164,  192,  199,  233,  243,  251,  284,
                                                       291,  300,  302,  306,  314,  317,  319,  323,  329,  333,  340,  348,
                                                       352,  359,  364,  376,  386,  398,  424,  429,  437,  456,  460,  467,
                                                       470,  476,  485,  490,  492,  497,  503,  508,  513,  518,  520,  525,
                                                       533,  538,  543,  551,  556,  571,  581,  588,  599,  603,  607,  633,
                                                       638,  648,  662,  666,  671,  676,  681,  685,  692,  697,  710,  714,
                                                       717,  727,  730,  745,  769,  777,  784, 1148.
          75    a_61                     cobol_ided:   256, 1149.
          76    a_62                     cobol_ided:   375, 1150.
          77    a_63                     cobol_ided:   232, 1151.
         100    a_64                     cobol_ided:   328, 1152.
         101    a_65                     cobol_ided:   275,  294,  297, 1153.
         102    a_66                     cobol_ided:   289, 1154.
         103    a_67                     cobol_ided:   353,  354, 1155.
         104    a_68                     cobol_ided:   356,  357,  358,  361,  362,  363, 1156.
         105    a_69                     cobol_ided:   365, 1157.
           7    a_7                      cobol_ided:   226, 1158.
         106    a_70                     cobol_ided:   360,  366, 1159.
         107    a_71                     cobol_ided:   536,  537, 1160.
         110    a_72                     cobol_ided:   355, 1161.
         111    a_73                     cobol_ided:   608,  617,  718,  731,  751,  759, 1162.
         112    a_74                     cobol_ided:  1163.
         113    a_75                     cobol_ided:   558, 1164.
         114    a_76                     cobol_ided:   746, 1165.
         115    a_77                     cobol_ided:   758, 1166.
         116    a_78                     cobol_ided:   399, 1167.
         117    a_79                     cobol_ided:   502, 1168.
          10    a_8                      cobol_ided:   229,  230, 1169.
         120    a_80                     cobol_ided:   512, 1170.
         121    a_81                     cobol_ided:  1171.
         122    a_82                     cobol_ided:  1172.
         123    a_83                     cobol_ided:  1173.
         124    a_84                     cobol_ided:   149, 1174.
         125    a_85                     cobol_ided:  1175.
         126    a_86                     cobol_ided:  1176.
         127    a_87                     cobol_ided:  1177.
         130    a_88                     cobol_ided:  1178.
         131    a_89                     cobol_ided:  1179.
          11    a_9                      cobol_ided:    52, 1180.
         132    a_90                     cobol_ided:  1181.
         133    a_91                     cobol_ided:  1182.
         134    a_92                     cobol_ided:   738,  739,  740,  741, 1183.
         135    a_93                     cobol_ided:  1184.
         136    a_94                     cobol_ided:  1185.
         137    a_95                     cobol_ided:   489,  507,  517,  532,  542,  555,  637,  670,  680,  696, 1186.
         140    a_96                     cobol_ided:   423, 1187.
         141    a_97                     cobol_ided:   292, 1188.
         142    a_98                     cobol_ided:   402,  403,  404,  405,  406,  407,  408,  409,  410,  411,  413,  414,
                                                       415,  416,  417,  432,  433,  434,  435,  436, 1189.
         143    a_99                     cobol_ided:  1190.
        4735    cat_1                    cobol_ided:   408,  534.
        4766    cat_2                    cobol_ided:   536,  539,  542.
        5017    cat_3                    cobol_ided:   537,  541,  544.
         240    cd                       cobol_ided:    33,   61.
           0    cobol_ided               cobol_ided:    18,   19,   20.
        2657    curr                     cobol_ided:   261,  266,  320.
           0    c_0                      cobol_ided:   912.
           1    c_alfnam                 cobol_ided:   232,  913.
          63    c_alphanmlit             cobol_ided:   280,  344,  349,  356,  361,  367,  665,  690,  698,  914.
           3    c_areaa                  cobol_ided:    40,   48,   56,   61,  135,  144,  153,  157,  165,  173,  181,  200,
                                                       213,  252,  257,  379,  387,  561,  787,  915.
           4    c_asgn                   cobol_ided:   419,  916.
          70    c_catalphalit            cobol_ided:   537,  917.
          66    c_catusrwd               cobol_ided:   536,  542,  918.
          67    c_charst1                cobol_ided:   632,  919.
           6    c_chckft                 cobol_ided:   606,  615,  716,  729,  744,  776,  785,  920.
          73    c_ckintnm                cobol_ided:   457,  921.
          14    c_cknew                  cobol_ided:   400,  922.
          21    c_ckpnm                  cobol_ided:   793,  923.
          24    c_cktemp1                cobol_ided:   924.
           2    c_clorder                cobol_ided:    81,  155,  187,  222,  273,  578,  925.
           5    c_comptype               cobol_ided:   130,  927.
           7    c_comp_test              cobol_ided:   183,  215,  926.
          27    c_currlit                cobol_ided:   322,  328,  928.
          30    c_decptok                cobol_ided:   247,  271,  929.
          72    c_denint                 cobol_ided:   684,  930.
          71    c_dupdef                 cobol_ided:   133,  149,  193,  226,  275,  447,  449,  482,  500,  510,  545,  931.
          10    c_dupdev                 cobol_ided:   292,  932.
          25    c_dupopt                 cobol_ided:   703,  933.
          11    c_dupsw                  cobol_ided:   295,  934.
          45    c_figcon                 cobol_ided:   282,  346,  351,  358,  363,  369,  935.
          12    c_fileorg                cobol_ided:   465,  469,  936.
          13    c_filequal               cobol_ided:   466,  937.
          16    c_idparnm                cobol_ided:   146,  938.
          35    c_implnm                 cobol_ided:   455,  939.
          36    c_implnm1                cobol_ided:   728,  940.
          37    c_integr                 cobol_ided:   235,  242,  281,  345,  350,  357,  362,  368,  375,  459,  674,  708,
                                                       783,  942.
          17    c_in_dev                 cobol_ided:   113,  941.
          34    c_iocl                   cobol_ided:   943.
          23    c_is_alf                 cobol_ided:   289,  944.
          22    c_is_dev                 cobol_ided:   288,  945.
          26    c_is_sw                  cobol_ided:   290,  946.
          41    c_keyok                  cobol_ided:   947.
          42    c_keyreqd                cobol_ided:   421,  430,  948.
          31    c_leftname               cobol_ided:   264,  269,  341,  949.
          43    c_multok                 cobol_ided:   778,  950.
          32    c_oc_name                cobol_ided:   205,  951.
          46    c_orgopt                 cobol_ided:   952.
          65    c_orgqualok              cobol_ided:   953.
          20    c_out_dev                cobol_ided:   100,  954.
          64    c_recovword              cobol_ided:   814,  955.
          33    c_rempar                 cobol_ided:   148,  956.
          40    c_rightname              cobol_ided:   283,  347,  957.
          53    c_samefree               cobol_ided:   768,  958.
          56    c_sc_name                cobol_ided:   178,  959.
          52    c_smal50                 cobol_ided:   244,  960.
          44    c_sncl                   cobol_ided:   287,  961.
          34    c_sortfile               cobol_ided:   399,  758,  962.
          55    c_specnam                cobol_ided:   801,  963.
          61    c_switch                 cobol_ided:   301,  964.
          50    c_switchnm               cobol_ided:   800,  967.
          62    c_switch_1               cobol_ided:   318,  965.
          15    c_switch_2               cobol_ided:   310,  966.
          57    c_temp1eq1               cobol_ided:   968.
          51    c_tempint                cobol_ided:   117,  969.
          60    c_usrwd                  cobol_ided:    52,  305,  313,  397,  484,  489,  491,  496,  502,  507,  512,  517,
                                                       519,  524,  526,  532,  550,  555,  631,  637,  664,  670,  675,  680,
                                                       691,  696,  699,  707,  770,  970.
        1476    db_1                     cobol_ided:   186,  191,  195.
        2741    dec                      cobol_ided:   262,  267,  330.
        2772    dec_1                    cobol_ided:   331,  335.
         315    def                      cobol_ided:    68,   70,  141.
         360    def_1                    cobol_ided:    75,   77.
         764    def_2                    cobol_ided:    80,  129.
        1003    def_3                    cobol_ided:    96,   97,  100,  109,  110,  111,  113,  117,  124,  127,  128,  130,  132.
         341    def_4                    cobol_ided:    74,  103,  107,  114,  118,  122,  126,  131,  133,  134.
         461    def_5                    cobol_ided:    78,   90.
         505    def_6                    cobol_ided:    91,   94.
         512    def_7                    cobol_ided:    92,   95.
         517    def_8                    cobol_ided:    94,   95,   96.
         353    def_9                    cobol_ided:    71,   76.
         531    disp_1                   cobol_ided:    77,   98.
         567    disp_2                   cobol_ided:    85,   98,  104.
         574    disp_3                   cobol_ided:    86,  105.
         613    disp_4                   cobol_ided:    87,   88,  101,  102,  108.
        2133    div                      cobol_ided:   143,  252,  426,  428,  570,  580,  587,  834.
         303    ds                       cobol_ided:    68.
         221    ed                       cobol_ided:    58,  153.
        1166    ed_1                     cobol_ided:    58,  155.
        1250    ed_2                     cobol_ided:   165,  817.
        1320    ed_3                     cobol_ided:   173,  818.
        1200    ed_4                     cobol_ided:   157,  816.
        1363    ed_5                     cobol_ided:   180,  182.
        2157    exit                     cobol_ided:   256.
        3511    fcl                      cobol_ided:   402,  447,  448,  449,  450.
        4076    fcl12                    cobol_ided:   417,  436,  443,  445,  451.
        4103    fcl13                    cobol_ided:   413,  414,  415,  432,  433,  434,  440,  441,  442,  452.
        4110    fcl14                    cobol_ided:   416,  435,  453.
        3662    fcl_10                   cobol_ided:   423,  430,  431.
        3737    fcl_2                    cobol_ided:   412,  432.
        3775    fcl_3                    cobol_ided:   406,  438.
        4007    fcl_4                    cobol_ided:   440,  453.
        4040    fcl_5                    cobol_ided:   445,  452.
        4052    fcl_6                    cobol_ided:   444,  446,  447,  451,  461,  462,  463,  465,  469,  479,  488,  495,
                                                       506,  527,  531,  544,  560.
        4064    fcl_7                    cobol_ided:   449,  457,  458.
        3725    fcl_9                    cobol_ided:   420,  430.
        3376    fil_cl                   cobol_ided:   387,  827.
        3460    fn                       cobol_ided:   391,  397.
          31    id                       cobol_ided:    34,   81,   89,   93.
          50    id1                      cobol_ided:    37,   39.
        1111    idpar                    cobol_ided:    59,  146.
        1154    idpar1                   cobol_ided:   147,  153,  154.
         137    id_1                     cobol_ided:    48,  794.
          67    id_2                     cobol_ided:    34,   37,   40,  142,  791.
         125    id_3                     cobol_ided:    35,   38,   46.
         233    id_4                     cobol_ided:    47,   60.
        3326    ios                      cobol_ided:   249,  379,  826.
        3706    io_0                     cobol_ided:   393,  427.
        5144    io_1                     cobol_ided:   427,  561,  829.
        5233    io_2                     cobol_ided:   572,  582,  589,  830,  831,  832,  833.
        5315    io_3                     cobol_ided:   582,  616,  707,  720,  721,  722,  724,  725,  771,  786.
        5322    io_4                     cobol_ided:   576,  583.
        5360    io_5                     cobol_ided:   583,  584,  585,  586,  589.
           1    i_c                      cobol_ided:    24,   40,   48,   52,   56,   61,   81,  100,  113,  117,  130,  133,
                                                       135,  144,  146,  148,  149,  153,  155,  157,  165,  173,  177,  178,
                                                       181,  183,  187,  193,  200,  204,  205,  213,  215,  222,  226,  232,
                                                       235,  242,  244,  247,  252,  257,  264,  269,  271,  273,  275,  280,
                                                       281,  282,  283,  287,  288,  289,  290,  292,  295,  301,  305,  310,
                                                       313,  318,  322,  328,  341,  344,  345,  346,  347,  349,  350,  351,
                                                       356,  357,  358,  361,  362,  363,  367,  368,  369,  375,  379,  387,
                                                       397,  399,  400,  419,  421,  430,  447,  449,  455,  457,  459,  465,
                                                       466,  469,  482,  484,  489,  491,  496,  500,  502,  507,  510,  512,
                                                       517,  519,  524,  526,  532,  536,  537,  542,  545,  550,  555,  561,
                                                       578,  606,  615,  631,  632,  637,  664,  665,  670,  674,  675,  680,
                                                       684,  690,  691,  696,  698,  699,  703,  707,  708,  716,  728,  729,
                                                       744,  758,  768,  770,  776,  778,  783,  785,  787,  793,  800,  801,  814.
           5    i_K                      cobol_ided:    28.
           4    i_k                      cobol_ided:    27.
           2    i_n                      cobol_ided:    26,   30,   31,   32,   36,   39,   41,   43,   45,   47,   49,   51,
                                                        53,   55,   57,   59,   60,   62,   64,   66,   69,   71,   73,   75,
                                                        89,   93,   94,   95,   97,  103,  107,  109,  111,  114,  115,  118,
                                                       120,  122,  126,  128,  131,  134,  136,  138,  140,  145,  147,  150,
                                                       152,  154,  156,  158,  160,  162,  164,  166,  168,  170,  172,  174,
                                                       176,  179,  182,  184,  188,  190,  192,  194,  195,  197,  199,  201,
                                                       203,  206,  214,  216,  223,  225,  227,  230,  233,  239,  240,  243,
                                                       245,  248,  251,  253,  255,  256,  258,  260,  265,  272,  274,  276,
                                                       284,  291,  293,  294,  296,  297,  300,  302,  306,  309,  314,  317,
                                                       319,  323,  325,  329,  333,  334,  336,  340,  342,  348,  352,  355,
                                                       359,  360,  364,  366,  371,  373,  376,  378,  380,  382,  384,  386,
                                                       388,  390,  391,  393,  398,  401,  420,  422,  423,  424,  429,  431,
                                                       437,  439,  444,  446,  448,  450,  451,  452,  453,  456,  458,  460,
                                                       463,  467,  468,  470,  476,  479,  483,  485,  488,  490,  492,  495,
                                                       497,  501,  503,  506,  508,  511,  513,  516,  518,  520,  523,  525,
                                                       527,  528,  531,  533,  534,  538,  541,  543,  544,  547,  551,  554,
                                                       556,  560,  562,  564,  571,  577,  579,  581,  582,  588,  589,  590,
                                                       599,  603,  604,  607,  608,  609,  610,  611,  612,  613,  614,  616,
                                                       617,  618,  619,  620,  621,  622,  623,  624,  626,  629,  633,  636,
                                                       638,  639,  648,  656,  657,  662,  663,  666,  669,  671,  672,  676,
                                                       679,  681,  682,  685,  686,  688,  692,  695,  697,  700,  701,  702,
                                                       704,  710,  714,  717,  718,  719,  720,  721,  722,  723,  724,  727,
                                                       730,  731,  732,  733,  734,  735,  736,  737,  741,  745,  746,  747,
                                                       748,  749,  750,  751,  752,  753,  754,  755,  756,  757,  759,  760,
                                                       761,  762,  763,  764,  765,  766,  767,  769,  771,  772,  777,  779,
                                                       781,  784,  786,  788,  792,  794,  813,  815,  816,  817,  818,  819,
                                                       820,  821,  822,  823,  824,  825,  826,  827,  828,  829,  830,  831,
                                                       832,  833,  834,  835,  836,  837,  838,  839,  840,  841,  842,  843,
                                                       844,  845.
           0    i_r                      cobol_ided:    23,   33,   34,   35,   37,   38,   42,   44,   46,   50,   54,   58,
                                                        63,   65,   67,   68,   70,   72,   74,   76,   77,   78,   79,   80,
                                                        82,   83,   84,   85,   86,   87,   88,   90,   91,   92,   96,   98,
                                                        99,  101,  102,  104,  105,  106,  108,  110,  112,  116,  119,  121,
                                                       123,  124,  125,  127,  129,  132,  137,  139,  141,  142,  143,  151,
                                                       159,  161,  163,  167,  169,  171,  175,  180,  185,  186,  189,  191,
                                                       196,  198,  202,  207,  208,  209,  210,  211,  212,  217,  218,  219,
                                                       220,  221,  224,  228,  229,  231,  234,  236,  237,  238,  241,  246,
                                                       249,  250,  254,  259,  261,  262,  263,  266,  267,  268,  270,  277,
                                                       278,  279,  285,  286,  298,  299,  303,  304,  307,  308,  311,  312,
                                                       315,  316,  320,  321,  324,  326,  327,  330,  331,  332,  335,  337,
                                                       338,  339,  343,  353,  354,  365,  370,  372,  374,  377,  381,  383,
                                                       385,  389,  392,  394,  395,  396,  402,  403,  404,  405,  406,  407,
                                                       408,  409,  410,  411,  412,  413,  414,  415,  416,  417,  418,  425,
                                                       426,  427,  428,  432,  433,  434,  435,  436,  438,  440,  441,  442,
                                                       443,  445,  454,  461,  462,  464,  471,  472,  473,  474,  475,  477,
                                                       478,  480,  481,  486,  487,  493,  494,  498,  499,  504,  505,  509,
                                                       514,  515,  521,  522,  529,  530,  535,  539,  540,  546,  548,  549,
                                                       552,  553,  557,  558,  559,  563,  565,  566,  567,  568,  569,  570,
                                                       572,  573,  574,  575,  576,  580,  583,  584,  585,  586,  587,  591,
                                                       592,  593,  594,  595,  596,  597,  598,  600,  601,  602,  605,  625,
                                                       627,  628,  630,  634,  635,  640,  641,  642,  643,  644,  645,  646,
                                                       647,  649,  650,  651,  652,  653,  654,  655,  658,  659,  660,  661,
                                                       667,  668,  673,  677,  678,  683,  687,  689,  693,  694,  705,  706,
                                                       709,  711,  712,  713,  715,  725,  726,  738,  739,  740,  742,  743,
                                                       773,  774,  775,  780,  782,  789,  790,  791,  795,  796,  797,  798,
                                                       799,  802,  803,  804,  805,  806,  807,  808,  809,  810,  811,  812,
                                                       846,  847,  848,  849,  850,  851,  852,  853,  854,  855,  856,  857,
                                                       858,  859,  860,  861,  862,  863,  864,  865,  866,  867,  868,  869,
                                                       870,  871,  872,  873,  874,  875,  876,  877,  878,  879,  880,  881,
                                                       882,  883,  884,  885,  886,  887,  888,  889,  890,  891,  892,  893,
                                                       894,  895,  896,  897,  898,  899,  900,  901,  902,  903,  904,  905,
                                                       906,  907,  908,  909,  910,  911.
           3    i_s                      cobol_ided:    25.
           5    l_1                      cobol_ided:    30.
         151    l_10                     cobol_ided:    48,   49,   50.
        2722    l_100                    cobol_ided:   326,  327.
        2727    l_101                    cobol_ided:   327,  328.
        2746    l_102                    cobol_ided:   330,  331.
        2765    l_103                    cobol_ided:   332,  334.
        2772    l_104                    cobol_ided:   334,  335.
        3004    l_105                    cobol_ided:   335,  337.
        3011    l_106                    cobol_ided:   337,  338.
        3042    l_107                    cobol_ided:   341,  343.
        3047    l_108                    cobol_ided:   343,  344.
        3100    l_109                    cobol_ided:   344,  345,  346,  349.
         163    l_11                     cobol_ided:    50,   51,   52.
        3124    l_110                    cobol_ided:   349,  350,  351,  353.
        3143    l_111                    cobol_ided:   353,  356.
        3167    l_112                    cobol_ided:   356,  357,  358,  360.
        3220    l_113                    cobol_ided:   361,  362,  363,  365.
        3263    l_114                    cobol_ided:   370,  372.
        3275    l_115                    cobol_ided:   372,  373,  374.
        3302    l_116                    cobol_ided:   374,  375.
        3314    l_117                    cobol_ided:   375,  377.
        3340    l_118                    cobol_ided:   379,  380,  381.
        3352    l_119                    cobol_ided:   381,  382,  383.
         175    l_12                     cobol_ided:    52,   54.
        3364    l_120                    cobol_ided:   383,  384,  385.
        3376    l_121                    cobol_ided:   385,  387.
        3410    l_122                    cobol_ided:   387,  388,  389.
        3441    l_123                    cobol_ided:   392,  394.
        3453    l_124                    cobol_ided:   394,  396.
        3472    l_125                    cobol_ided:   397,  399.
        3477    l_126                    cobol_ided:   399,  400.
        3511    l_127                    cobol_ided:   400,  401,  402.
        3636    l_128                    cobol_ided:   418,  419.
        3650    l_129                    cobol_ided:   419,  421.
         207    l_13                     cobol_ided:    54,   55,   56.
        3662    l_130                    cobol_ided:   421,  422,  423.
        3674    l_131                    cobol_ided:   423,  425.
        4122    l_132                    cobol_ided:   454,  455.
        4134    l_133                    cobol_ided:   455,  457.
        4160    l_134                    cobol_ided:   459,  461.
        4204    l_135                    cobol_ided:   464,  465.
        4230    l_136                    cobol_ided:   468,  469.
        4247    l_137                    cobol_ided:   471,  472.
        4254    l_138                    cobol_ided:   472,  473.
        4300    l_139                    cobol_ided:   473,  474,  475,  477.
         221    l_14                     cobol_ided:    56,   57,   58.
        4324    l_140                    cobol_ided:   480,  481.
        4331    l_141                    cobol_ided:   481,  482.
        4343    l_142                    cobol_ided:   482,  484.
        4355    l_143                    cobol_ided:   484,  486.
        4374    l_144                    cobol_ided:   486,  487,  489.
        4420    l_145                    cobol_ided:   491,  493.
        4437    l_146                    cobol_ided:   493,  494,  496.
        4456    l_147                    cobol_ided:   498,  499.
        4463    l_148                    cobol_ided:   499,  500.
        4475    l_149                    cobol_ided:   500,  502.
         252    l_15                     cobol_ided:    61,   62,   63.
        4507    l_150                    cobol_ided:   502,  504.
        4526    l_151                    cobol_ided:   504,  505,  507.
        4545    l_152                    cobol_ided:   509,  510.
        4557    l_153                    cobol_ided:   510,  512.
        4571    l_154                    cobol_ided:   512,  514.
        4610    l_155                    cobol_ided:   514,  515,  517.
        4634    l_156                    cobol_ided:   519,  521.
        4653    l_157                    cobol_ided:   521,  522,  524.
        4677    l_158                    cobol_ided:   526,  528.
        4704    l_159                    cobol_ided:   528,  529.
         264    l_16                     cobol_ided:    63,   64,   65.
        4723    l_160                    cobol_ided:   529,  530,  532.
        4742    l_161                    cobol_ided:   534,  535.
        4747    l_162                    cobol_ided:   535,  536.
        5005    l_163                    cobol_ided:   539,  540,  542.
        5031    l_164                    cobol_ided:   545,  546.
        5043    l_165                    cobol_ided:   546,  547,  548.
        5050    l_166                    cobol_ided:   548,  549.
        5055    l_167                    cobol_ided:   549,  550.
        5067    l_168                    cobol_ided:   550,  552.
        5106    l_169                    cobol_ided:   552,  553,  555.
         276    l_17                     cobol_ided:    65,   66,   67.
        5125    l_170                    cobol_ided:   557,  558.
        5132    l_171                    cobol_ided:   558,  559.
        5156    l_172                    cobol_ided:   561,  562,  563.
        5170    l_173                    cobol_ided:   563,  564,  565.
        5175    l_174                    cobol_ided:   565,  566.
        5271    l_175                    cobol_ided:   577,  578.
        5303    l_176                    cobol_ided:   578,  579,  580.
        5372    l_177                    cobol_ided:   590,  591.
        5447    l_178                    cobol_ided:   591,  600.
        5454    l_179                    cobol_ided:   600,  601.
         327    l_18                     cobol_ided:    70,   72.
        5500    l_180                    cobol_ided:   604,  605.
        5505    l_181                    cobol_ided:   605,  606.
        5517    l_182                    cobol_ided:   606,  608.
        5531    l_183                    cobol_ided:   608,  610.
        5562    l_184                    cobol_ided:   610,  611,  612,  614,  615.
        5574    l_185                    cobol_ided:   615,  617.
        5606    l_186                    cobol_ided:   617,  619.
        5656    l_187                    cobol_ided:   625,  626,  627.
        5663    l_188                    cobol_ided:   627,  628.
        5702    l_189                    cobol_ided:   630,  631.
         341    l_19                     cobol_ided:    72,   73,   74.
        5740    l_190                    cobol_ided:   634,  635,  637.
        5757    l_191                    cobol_ided:   639,  640.
        5764    l_192                    cobol_ided:   640,  641.
        6104    l_193                    cobol_ided:   649,  657.
        6111    l_194                    cobol_ided:   657,  658.
        6116    l_195                    cobol_ided:   658,  659.
        6142    l_196                    cobol_ided:   661,  663.
        6147    l_197                    cobol_ided:   663,  664.
        6205    l_198                    cobol_ided:   667,  668,  670.
        6224    l_199                    cobol_ided:   672,  673.
          12    l_2                      cobol_ided:    31.
         353    l_20                     cobol_ided:    74,   76.
        6231    l_200                    cobol_ided:   673,  674.
        6267    l_201                    cobol_ided:   677,  678,  680.
        6306    l_202                    cobol_ided:   682,  683.
        6313    l_203                    cobol_ided:   683,  684.
        6332    l_204                    cobol_ided:   686,  687.
        6344    l_205                    cobol_ided:   687,  688,  689.
        6351    l_206                    cobol_ided:   689,  690.
        6370    l_207                    cobol_ided:   691,  693.
        6407    l_208                    cobol_ided:   693,  694,  696.
        6452    l_209                    cobol_ided:   702,  703.
         360    l_21                     cobol_ided:    76,   77.
        6476    l_210                    cobol_ided:   706,  707.
        6522    l_211                    cobol_ided:   709,  711.
        6527    l_212                    cobol_ided:   711,  712.
        6546    l_213                    cobol_ided:   712,  713,  715.
        6553    l_214                    cobol_ided:   715,  716.
        6565    l_215                    cobol_ided:   716,  718.
        6577    l_216                    cobol_ided:   718,  720.
        6666    l_217                    cobol_ided:   729,  731.
        6700    l_218                    cobol_ided:   731,  733.
        6755    l_219                    cobol_ided:   738,  741,  742.
         505    l_22                     cobol_ided:    90,   94.
        6762    l_220                    cobol_ided:   742,  743.
        6767    l_221                    cobol_ided:   743,  744.
        7001    l_222                    cobol_ided:   744,  746.
        7013    l_223                    cobol_ided:   746,  748.
        7032    l_224                    cobol_ided:   751.
        7044    l_225                    cobol_ided:   751,  753.
        7114    l_226                    cobol_ided:   759,  761.
        7171    l_227                    cobol_ided:   768,  770.
        7210    l_228                    cobol_ided:   772,  773.
        7215    l_229                    cobol_ided:   773,  774.
         543    l_23                     cobol_ided:    99,  100.
        7222    l_230                    cobol_ided:   774,  775.
        7227    l_231                    cobol_ided:   775,  776.
        7241    l_232                    cobol_ided:   776,  778.
        7253    l_233                    cobol_ided:   778,  779,  780.
        7265    l_234                    cobol_ided:   780,  782.
        7272    l_235                    cobol_ided:   782,  783.
        7304    l_236                    cobol_ided:   783,  785.
        7330    l_237                    cobol_ided:   787,  789.
        7765    l_238                    cobol_ided:   846.
        7772    l_239                    cobol_ided:   847.
         574    l_24                     cobol_ided:   104,  105.
        7777    l_240                    cobol_ided:   848.
       10004    l_241                    cobol_ided:   849.
       10011    l_242                    cobol_ided:   850.
       10016    l_243                    cobol_ided:   851.
       10023    l_244                    cobol_ided:   852.
       10030    l_245                    cobol_ided:   853.
       10035    l_246                    cobol_ided:   854.
       10042    l_247                    cobol_ided:   855.
       10047    l_248                    cobol_ided:   856.
       10054    l_249                    cobol_ided:   857.
         613    l_25                     cobol_ided:   105,  106,  108.
       10061    l_250                    cobol_ided:   858.
       10066    l_251                    cobol_ided:   859.
       10073    l_252                    cobol_ided:   860.
       10100    l_253                    cobol_ided:   861.
       10105    l_254                    cobol_ided:   862.
       10112    l_255                    cobol_ided:   863.
       10117    l_256                    cobol_ided:   864.
       10124    l_257                    cobol_ided:   865.
       10131    l_258                    cobol_ided:   866.
       10136    l_259                    cobol_ided:   867.
         625    l_26                     cobol_ided:   108,  110.
       10143    l_260                    cobol_ided:   868.
       10150    l_261                    cobol_ided:   869.
       10155    l_262                    cobol_ided:   870.
       10162    l_263                    cobol_ided:   871.
       10167    l_264                    cobol_ided:   872.
       10174    l_265                    cobol_ided:   873.
       10201    l_266                    cobol_ided:   874.
       10206    l_267                    cobol_ided:   875.
       10213    l_268                    cobol_ided:   876.
       10220    l_269                    cobol_ided:   877.
         644    l_27                     cobol_ided:   112,  113.
       10225    l_270                    cobol_ided:   878.
       10232    l_271                    cobol_ided:   879.
       10237    l_272                    cobol_ided:   880.
       10244    l_273                    cobol_ided:   881.
       10251    l_274                    cobol_ided:   882.
       10256    l_275                    cobol_ided:   883.
       10263    l_276                    cobol_ided:   884.
       10270    l_277                    cobol_ided:   885.
       10275    l_278                    cobol_ided:   886.
       10302    l_279                    cobol_ided:   887.
         663    l_28                     cobol_ided:   115,  116.
       10307    l_280                    cobol_ided:   888.
       10314    l_281                    cobol_ided:   889.
       10321    l_282                    cobol_ided:   890.
       10326    l_283                    cobol_ided:   891.
       10333    l_284                    cobol_ided:   892.
       10340    l_285                    cobol_ided:   893.
       10345    l_286                    cobol_ided:   894.
       10352    l_287                    cobol_ided:   895.
       10357    l_288                    cobol_ided:   896.
       10364    l_289                    cobol_ided:   897.
         670    l_29                     cobol_ided:   116,  117.
       10371    l_290                    cobol_ided:   898.
       10376    l_291                    cobol_ided:   899.
       10403    l_292                    cobol_ided:   900.
       10410    l_293                    cobol_ided:   901.
       10415    l_294                    cobol_ided:   902.
       10422    l_295                    cobol_ided:   903.
       10427    l_296                    cobol_ided:   904.
       10434    l_297                    cobol_ided:   905.
       10441    l_298                    cobol_ided:   906.
       10446    l_299                    cobol_ided:   907.
          17    l_3                      cobol_ided:    32.
         726    l_30                     cobol_ided:   121,  123.
       10453    l_300                    cobol_ided:   908.
       10460    l_301                    cobol_ided:   909.
       10465    l_302                    cobol_ided:   910.
       10472    l_303                    cobol_ided:   911.
         733    l_31                     cobol_ided:   123,  124.
         752    l_32                     cobol_ided:   125,  127.
         771    l_33                     cobol_ided:   129,  130.
        1010    l_34                     cobol_ided:   132,  133.
        1034    l_35                     cobol_ided:   135,  136,  137.
        1046    l_36                     cobol_ided:   137,  138,  139.
        1060    l_37                     cobol_ided:   139,  140,  141.
        1111    l_38                     cobol_ided:   144,  146.
        1123    l_39                     cobol_ided:   146,  148.
          24    l_4                      cobol_ided:    32,   33.
        1130    l_40                     cobol_ided:   148,  149.
        1142    l_41                     cobol_ided:   149,  150,  151.
        1154    l_42                     cobol_ided:   151,  152,  153.
        1200    l_43                     cobol_ided:   155,  156,  157.
        1212    l_44                     cobol_ided:   157,  158,  159.
        1224    l_45                     cobol_ided:   159,  161.
        1236    l_46                     cobol_ided:   161,  162,  163.
        1250    l_47                     cobol_ided:   163,  165.
        1262    l_48                     cobol_ided:   165,  166,  167.
        1274    l_49                     cobol_ided:   167,  168,  169.
          50    l_5                      cobol_ided:    36,   37.
        1306    l_50                     cobol_ided:   169,  170,  171.
        1320    l_51                     cobol_ided:   171,  173.
        1332    l_52                     cobol_ided:   173,  174,  175.
        1344    l_53                     cobol_ided:   175,  176,  177.
        1351    l_54                     cobol_ided:   177,  178.
        1363    l_55                     cobol_ided:   179,  180.
        1414    l_56                     cobol_ided:   183,  184,  185.
        1421    l_57                     cobol_ided:   186.
        1440    l_58                     cobol_ided:   187,  188,  189.
        1503    l_59                     cobol_ided:   195,  196.
         101    l_6                      cobol_ided:    40,   41,   42.
        1527    l_60                     cobol_ided:   198,  200.
        1541    l_61                     cobol_ided:   200,  201,  202.
        1553    l_62                     cobol_ided:   202,  203,  204.
        1560    l_63                     cobol_ided:   204,  205.
        1572    l_64                     cobol_ided:   206,  207.
        1654    l_65                     cobol_ided:   215,  216,  217.
        1717    l_66                     cobol_ided:   222,  223,  224.
        1750    l_67                     cobol_ided:   228,  229.
        1762    l_68                     cobol_ided:   229,  230,  231.
        1767    l_69                     cobol_ided:   231,  232.
         113    l_7                      cobol_ided:    42,   43,   44.
        2006    l_70                     cobol_ided:   234,  235.
        2013    l_71                     cobol_ided:   235,  236.
        2044    l_72                     cobol_ided:   240,  241.
        2051    l_73                     cobol_ided:   241,  242.
        2063    l_74                     cobol_ided:   242,  244.
        2114    l_75                     cobol_ided:   247,  248,  249.
        2133    l_76                     cobol_ided:   250,  252.
        2145    l_77                     cobol_ided:   252,  253,  254.
        2157    l_78                     cobol_ided:   254,  255,  256.
        2176    l_79                     cobol_ided:   257,  258,  259.
         125    l_8                      cobol_ided:    44,   45,   46.
        2210    l_80                     cobol_ided:   259,  260,  261.
        2304    l_81                     cobol_ided:   270,  271,  272,  273.
        2347    l_82                     cobol_ided:   277,  280.
        2417    l_83                     cobol_ided:   287,  288.
        2455    l_84                     cobol_ided:   292,  293,  294.
        2474    l_85                     cobol_ided:   295,  296,  297.
        2520    l_86                     cobol_ided:   298,  299,  301.
        2532    l_87                     cobol_ided:   301,  303.
        2537    l_88                     cobol_ided:   303,  304.
        2544    l_89                     cobol_ided:   304,  305.
         137    l_9                      cobol_ided:    46,   48.
        2556    l_90                     cobol_ided:   305,  307.
        2575    l_91                     cobol_ided:   307,  308,  310.
        2602    l_92                     cobol_ided:   310,  311.
        2607    l_93                     cobol_ided:   311,  312.
        2614    l_94                     cobol_ided:   312,  313.
        2645    l_95                     cobol_ided:   315,  316,  318.
        2664    l_96                     cobol_ided:   320,  321.
        2671    l_97                     cobol_ided:   321,  322.
        2703    l_98                     cobol_ided:   322,  324.
        2715    l_99                     cobol_ided:   324,  326.
           0    l_org                    cobol_ided:    29,   30,   31,   32,   33,   34,   35,   36,   37,   38,   39,   40,
                                                        41,   42,   43,   44,   45,   46,   47,   48,   49,   50,   51,   52,
                                                        53,   54,   55,   56,   57,   58,   59,   60,   61,   62,   63,   64,
                                                        65,   66,   67,   68,   69,   70,   71,   72,   73,   74,   75,   76,
                                                        77,   78,   79,   80,   81,   82,   83,   84,   85,   86,   87,   88,
                                                        89,   90,   91,   92,   93,   94,   95,   96,   97,   98,   99,  100,
                                                       101,  102,  103,  104,  105,  106,  107,  108,  109,  110,  111,  112,
                                                       113,  114,  115,  116,  117,  118,  119,  120,  121,  122,  123,  124,
                                                       125,  126,  127,  128,  129,  130,  131,  132,  133,  134,  135,  136,
                                                       137,  138,  139,  140,  141,  142,  143,  144,  145,  146,  147,  148,
                                                       149,  150,  151,  152,  153,  154,  155,  156,  157,  158,  159,  160,
                                                       161,  162,  163,  164,  165,  166,  167,  168,  169,  170,  171,  172,
                                                       173,  174,  175,  176,  177,  178,  179,  180,  181,  182,  183,  184,
                                                       185,  186,  187,  188,  189,  190,  191,  192,  193,  194,  195,  196,
                                                       197,  198,  199,  200,  201,  202,  203,  204,  205,  206,  207,  208,
                                                       209,  210,  211,  212,  213,  214,  215,  216,  217,  218,  219,  220,
                                                       221,  222,  223,  224,  225,  226,  227,  228,  229,  230,  231,  232,
                                                       233,  234,  235,  236,  237,  238,  239,  240,  241,  242,  243,  244,
                                                       245,  246,  247,  248,  249,  250,  251,  252,  253,  254,  255,  256,
                                                       257,  258,  259,  260,  261,  262,  263,  264,  265,  266,  267,  268,
                                                       269,  270,  271,  272,  273,  274,  275,  276,  277,  278,  279,  280,
                                                       281,  282,  283,  284,  285,  286,  287,  288,  289,  290,  291,  292,
                                                       293,  294,  295,  296,  297,  298,  299,  300,  301,  302,  303,  304,
                                                       305,  306,  307,  308,  309,  310,  311,  312,  313,  314,  315,  316,
                                                       317,  318,  319,  320,  321,  322,  323,  324,  325,  326,  327,  328,
                                                       329,  330,  331,  332,  333,  334,  335,  336,  337,  338,  339,  340,
                                                       341,  342,  343,  344,  345,  346,  347,  348,  349,  350,  351,  352,
                                                       353,  354,  355,  356,  357,  358,  359,  360,  361,  362,  363,  364,
                                                       365,  366,  367,  368,  369,  370,  371,  372,  373,  374,  375,  376,
                                                       377,  378,  379,  380,  381,  382,  383,  384,  385,  386,  387,  388,
                                                       389,  390,  391,  392,  393,  394,  395,  396,  397,  398,  399,  400,
                                                       401,  402,  403,  404,  405,  406,  407,  408,  409,  410,  411,  412,
                                                       413,  414,  415,  416,  417,  418,  419,  420,  421,  422,  423,  424,
                                                       425,  426,  427,  428,  429,  430,  431,  432,  433,  434,  435,  436,
                                                       437,  438,  439,  440,  441,  442,  443,  444,  445,  446,  447,  448,
                                                       449,  450,  451,  452,  453,  454,  455,  456,  457,  458,  459,  460,
                                                       461,  462,  463,  464,  465,  466,  467,  468,  469,  470,  471,  472,
                                                       473,  474,  475,  476,  477,  478,  479,  480,  481,  482,  483,  484,
                                                       485,  486,  487,  488,  489,  490,  491,  492,  493,  494,  495,  496,
                                                       497,  498,  499,  500,  501,  502,  503,  504,  505,  506,  507,  508,
                                                       509,  510,  511,  512,  513,  514,  515,  516,  517,  518,  519,  520,
                                                       521,  522,  523,  524,  525,  526,  527,  528,  529,  530,  531,  532,
                                                       533,  534,  535,  536,  537,  538,  539,  540,  541,  542,  543,  544,
                                                       545,  546,  547,  548,  549,  550,  551,  552,  553,  554,  555,  556,
                                                       557,  558,  559,  560,  561,  562,  563,  564,  565,  566,  567,  568,
                                                       569,  570,  571,  572,  573,  574,  575,  576,  577,  578,  579,  580,
                                                       581,  582,  583,  584,  585,  586,  587,  588,  589,  590,  591,  592,
                                                       593,  594,  595,  596,  597,  598,  599,  600,  601,  602,  603,  604,
                                                       605,  606,  607,  608,  609,  610,  611,  612,  613,  614,  615,  616,
                                                       617,  618,  619,  620,  621,  622,  623,  624,  625,  626,  627,  628,
                                                       629,  630,  631,  632,  633,  634,  635,  636,  637,  638,  639,  640,
                                                       641,  642,  643,  644,  645,  646,  647,  648,  649,  650,  651,  652,
                                                       653,  654,  655,  656,  657,  658,  659,  660,  661,  662,  663,  664,
                                                       665,  666,  667,  668,  669,  670,  671,  672,  673,  674,  675,  676,
                                                       677,  678,  679,  680,  681,  682,  683,  684,  685,  686,  687,  688,
                                                       689,  690,  691,  692,  693,  694,  695,  696,  697,  698,  699,  700,
                                                       701,  702,  703,  704,  705,  706,  707,  708,  709,  710,  711,  712,
                                                       713,  714,  715,  716,  717,  718,  719,  720,  721,  722,  723,  724,
                                                       725,  726,  727,  728,  729,  730,  731,  732,  733,  734,  735,  736,
                                                       737,  738,  739,  740,  741,  742,  743,  744,  745,  746,  747,  748,
                                                       749,  750,  751,  752,  753,  754,  755,  756,  757,  758,  759,  760,
                                                       761,  762,  763,  764,  765,  766,  767,  768,  769,  770,  771,  772,
                                                       773,  774,  775,  776,  777,  778,  779,  780,  781,  782,  783,  784,
                                                       785,  786,  787,  788,  789,  790,  791,  792,  793,  794,  795,  796,
                                                       797,  798,  799,  800,  801,  802,  803,  804,  805,  806,  807,  808,
                                                       809,  810,  811,  812,  813,  814,  815,  816,  817,  818,  819,  820,
                                                       821,  822,  823,  824,  825,  826,  827,  828,  829,  830,  831,  832,
                                                       833,  834,  835,  836,  837,  838,  839,  840,  841,  842,  843,  844,
                                                       845,  846,  847,  848,  849,  850,  851,  852,  853,  854,  855,  856,
                                                       857,  858,  859,  860,  861,  862,  863,  864,  865,  866,  867,  868,
                                                       869,  870,  871,  872,  873,  874,  875,  876,  877,  878,  879,  880,
                                                       881,  882,  883,  884,  885,  886,  887,  888,  889,  890,  891,  892,
                                                       893,  894,  895,  896,  897,  898,  899,  900,  901,  902,  903,  904,
                                                       905,  906,  907,  908,  909,  910,  911.
        7203    mul_1                    cobol_ided:   569,  575,  772.
        7241    mul_2                    cobol_ided:   778,  785.
        7304    mul_3                    cobol_ided:   781,  785.
        1515    objcomp                  cobol_ided:   172,  180,  181,  189,  190,  198.
        1527    obj_1                    cobol_ided:   200,  820.
        1654    oc_1                     cobol_ided:   217,  226,  227.
        1731    oc_3                     cobol_ided:   226,  232,  236,  237,  238,  239,  244,  245.
        1642    oc_4                     cobol_ided:   205,  215.
        1572    oc_5                     cobol_ided:   207,  214.
        2001    om_1                     cobol_ided:   210,  220,  234.
        4177    org_1                    cobol_ided:   404,  464.
        4223    org_2                    cobol_ided:   466,  468.
        1743    pcs_1                    cobol_ided:   207,  217,  228.
        1750    pcs_2                    cobol_ided:   208,  218,  229.
        1762    pcs_3                    cobol_ided:   209,  219,  231.
        7316    r1                       cobol_ided:   787,  788,  792,  793,  835.
        7467    r10                      cobol_ided:   808,  845.
        7645    r10a                     cobol_ided:   808,  830.
        7652    r10b                     cobol_ided:   809,  831.
        7657    r10c                     cobol_ided:   810,  832.
        7664    r10d                     cobol_ided:   811,  833.
        7760    r10dg                    cobol_ided:   571,  581,  588,  599,  603,  607,  609,  613,  618,  622,  633,  638,
                                                       648,  662,  666,  671,  676,  681,  685,  692,  697,  710,  714,  717,
                                                       719,  723,  727,  730,  732,  736,  745,  747,  752,  756,  760,  764,
                                                       769,  777,  784,  845.
        7671    r10e                     cobol_ided:   812,  834.
        7525    r11                      cobol_ided:   813,  814,  815.
        7354    r1a                      cobol_ided:   789,  793.
        7537    r1b2                     cobol_ided:   790,  816.
        7676    r1dg                     cobol_ided:    30,   53,   60,   69,  835.
        7366    r2                       cobol_ided:   795,  836.
        7544    r2a                      cobol_ided:   795,  817.
        7703    r2dg                     cobol_ided:    31,  160,  836.
        7373    r3                       cobol_ided:   796,  837.
        7551    r3a                      cobol_ided:   796,  818.
        7710    r3dg                     cobol_ided:   164,  837.
        7400    r4                       cobol_ided:   797,  838.
        7556    r4a                      cobol_ided:   797,  819.
        7715    r4dg                     cobol_ided:   192,  838.
        7405    r5                       cobol_ided:   798,  839.
        7563    r5a                      cobol_ided:   798,  820.
        7722    r5dg                     cobol_ided:   839.
        7727    r6dg                     cobol_ided:   199,  233,  243,  840.
        7570    r6g                      cobol_ided:   799,  821.
        7417    r7                       cobol_ided:   800,  841.
        7412    r77                      cobol_ided:   799,  840,  842.
        7741    r77dg                    cobol_ided:   251,  842.
        7575    r7a                      cobol_ided:   800,  822.
        7602    r7b                      cobol_ided:   801,  823.
        7607    r7c                      cobol_ided:   802,  824.
        7614    r7d                      cobol_ided:   803,  825.
        7734    r7dg                     cobol_ided:   284,  291,  300,  302,  306,  314,  317,  319,  323,  329,  333,  340,
                                                       342,  348,  352,  359,  364,  376,  841.
        7621    r7e                      cobol_ided:   804,  826.
        7450    r8                       cobol_ided:   805,  843.
        7626    r8a                      cobol_ided:   805,  827.
        7746    r8dg                     cobol_ided:   386,  843.
        7455    r9                       cobol_ided:   806,  844.
        7633    r9a                      cobol_ided:   806,  828.
        7640    r9b                      cobol_ided:   807,  829.
        7753    r9dg                     cobol_ided:   398,  424,  429,  437,  456,  460,  467,  470,  476,  485,  490,  492,
                                                       497,  503,  508,  513,  518,  520,  525,  533,  538,  543,  551,  556,  844.
        4451    rec_1                    cobol_ided:   410,  478,  498.
        4507    rec_2                    cobol_ided:   504,  507.
        4317    rel_1                    cobol_ided:   409,  477,  480.
        4355    rel_2                    cobol_ided:   486,  489.
        4406    rel_3                    cobol_ided:   483,  491,  501.
        4420    rel_4                    cobol_ided:   493,  496.
        4146    res_1                    cobol_ided:   403,  459.
        6464    run_1                    cobol_ided:   567,  573,  705.
        6630    run_3                    cobol_ided:   708,  725.
        6546    run_4                    cobol_ided:   715,  726.
        6647    run_5                    cobol_ided:   705,  728.
        6471    run_6                    cobol_ided:   706,  728,  733,  734,  735,  737.
           1    r_accept                 cobol_ided:    84, 1202.
         765    r_access                 cobol_ided:   405, 1203.
         643    r_additional             cobol_ided:   647,  655, 1204.
         150    r_aggregate              cobol_ided:    91, 1205.
         111    r_all                    cobol_ided:   890, 1206.
         770    r_alphabet               cobol_ided:   263,  268, 1207.
         140    r_also                   cobol_ided:   354,  365, 1208.
         773    r_alternate              cobol_ided:   411,  559, 1209.
         774    r_apply                  cobol_ided:   566,  572,  583,  808, 1210.
         166    r_are                    cobol_ided:   630,  640, 1211.
         312    r_area                   cobol_ided:   461,  742, 1212.
         312    r_areas                  cobol_ided:   462, 1213.
         775    r_assign                 cobol_ided:   402, 1214.
         117    r_at                     cobol_ided:   627, 1215.
         623    r_attach                 cobol_ided:   848, 1216.
         634    r_attach_options         cobol_ided:   597, 1217.
         776    r_author                 cobol_ided:   846, 1218.
         302    r_bits                   cobol_ided:   377, 1219.
         314    r_blank                  cobol_ided:   847, 1220.
         315    r_block                  cobol_ided:   849, 1221.
         635    r_bsn                    cobol_ided:   417,  436,  443,  445, 1222.
         122    r_by                     cobol_ided:   860, 1223.
         513    r_catalogue_name         cobol_ided:   862, 1226.
         513    r_catalogue_names        cobol_ided:   863, 1227.
         513    r_catalog_name           cobol_ided:   408,  687, 1224.
         513    r_catalog_names          cobol_ided:   861, 1225.
         123    r_character              cobol_ided:   110,  370, 1228.
         123    r_characters             cobol_ided:   236, 1229.
        1001    r_clock_units            cobol_ided:   725, 1230.
          10    r_close                  cobol_ided:   628, 1231.
        1003    r_collating              cobol_ided:   208,  218,  228, 1232.
        1005    r_comma                  cobol_ided:   331,  338, 1233.
         152    r_comp                   cobol_ided:    80, 1234.
         152    r_computational          cobol_ided:   872, 1243.
         324    r_computational_1        cobol_ided:   873, 1244.
         325    r_computational_2        cobol_ided:   874, 1245.
         323    r_computational_3        cobol_ided:   875, 1246.
         321    r_computational_4        cobol_ided:   876, 1247.
         322    r_computational_5        cobol_ided:   877, 1248.
         444    r_computational_6        cobol_ided:   878, 1249.
         442    r_computational_7        cobol_ided:   879, 1250.
        1142    r_computational_8        cobol_ided:   880, 1251.
         324    r_comp_1                 cobol_ided:   864, 1235.
         325    r_comp_2                 cobol_ided:   865, 1236.
         323    r_comp_3                 cobol_ided:   866, 1237.
         321    r_comp_4                 cobol_ided:   867, 1238.
         322    r_comp_5                 cobol_ided:   868, 1239.
         444    r_comp_6                 cobol_ided:   869, 1240.
         442    r_comp_7                 cobol_ided:   870, 1241.
        1142    r_comp_8                 cobol_ided:   871, 1242.
        1006    r_configuration          cobol_ided:   163,  795, 1252.
         327    r_contains               cobol_ided:   775, 1253.
        1010    r_control                cobol_ided:    33, 1254.
        1011    r_controls               cobol_ided:   884, 1255.
        1012    r_copy                   cobol_ided:   850, 1256.
        1015    r_currency               cobol_ided:   261,  266,  802, 1257.
         304    r_data                   cobol_ided:   143,  250,  426,  428,  570,  580,  587,  812, 1258.
        1017    r_date_compiled          cobol_ided:   852, 1259.
        1020    r_date_written           cobol_ided:   853, 1260.
         130    r_debugging              cobol_ided:   186,  191,  797, 1261.
        1032    r_decimal_point          cobol_ided:   262,  267,  332,  339,  803, 1262.
         447    r_default                cobol_ided:    68,   74,  141, 1263.
         636    r_density                cobol_ided:   643,  651, 1264.
         305    r_descriptors            cobol_ided:    96, 1265.
         625    r_detach                 cobol_ided:   596,  625, 1266.
         626    r_device                 cobol_ided:   642,  650, 1267.
          52    r_display                cobol_ided:    77, 1268.
         271    r_div                    cobol_ided:   905, 1199.
         136    r_division               cobol_ided:    42,   63,  159,  254, 1269.
         343    r_duplicates             cobol_ided:   558, 1270.
         251    r_dynamic                cobol_ided:   475, 1271.
         142    r_end                    cobol_ided:   709, 1272.
        1034    r_environment            cobol_ided:    58,  790, 1273.
         146    r_eq                     cobol_ided:   909, 1191.
        1036    r_every                  cobol_ided:   706, 1274.
         272    r_exp                    cobol_ided:   906, 1195.
         463    r_external               cobol_ided:   395,  396, 1275.
         154    r_file                   cobol_ided:   406,  591,  773, 1276.
        1037    r_file_control           cobol_ided:   385,  805, 1277.
         420    r_flr                    cobol_ided:   413,  432,  440, 1278.
         156    r_for                    cobol_ided:    76,  743, 1279.
         641    r_force                  cobol_ided:   645,  653, 1280.
          55    r_generate               cobol_ided:    78, 1281.
         644    r_generation             cobol_ided:   659, 1282.
         161    r_gt                     cobol_ided:   908, 1201.
         335    r_high_value             cobol_ided:   891, 1283.
         335    r_high_values            cobol_ided:   892, 1284.
        1050    r_identification         cobol_ided:    34,  142, 1286.
         145    r_in                     cobol_ided:   487,  494,  505,  515,  522,  530,  540,  553,  635,  668,  678,  694, 1287.
         337    r_indexed                cobol_ided:   854, 1288.
         167    r_input_output           cobol_ided:   249,  804, 1289.
        1052    r_installation           cobol_ided:   855, 1290.
         166    r_is                     cobol_ided:    86,   99,  104,  112,  116,  123,  129,  231,  241,  277,  304,  312,
                                                       321,  327,  330,  337,  343,  374,  464,  472,  481,  499,  509,  535,
                                                       549,  592,  600,  658,  673,  683,  689,  782, 1291.
        1047    r_i_o_control            cobol_ided:   427,  807, 1285.
         170    r_key                    cobol_ided:   480,  498,  548, 1292.
         172    r_leading                cobol_ided:    87,  101,  105, 1293.
        1061    r_limit                  cobol_ided:   119, 1294.
        1062    r_limits                 cobol_ided:   859, 1295.
         345    r_low_value              cobol_ided:   893, 1296.
         345    r_low_values             cobol_ided:   894, 1297.
         173    r_ls                     cobol_ided:   907, 1200.
         273    r_lt                     cobol_ided:   910, 1192.
        1070    r_memory                 cobol_ided:   210,  220, 1298.
         176    r_message                cobol_ided:   125, 1299.
         346    r_mode                   cobol_ided:   196,  471, 1300.
         645    r_modification           cobol_ided:   660, 1301.
        1071    r_modules                cobol_ided:   238, 1302.
        1072    r_multiple               cobol_ided:   569,  575,  586,  811, 1303.
         440    r_native                 cobol_ided:   857, 1304.
         201    r_no                     cobol_ided:    90,  595, 1305.
         203    r_numeric                cobol_ided:    79, 1306.
         443    r_object                 cobol_ided:   324,  335, 1307.
        1074    r_object_computer        cobol_ided:   198,  798, 1308.
         205    r_of                     cobol_ided:   486,  493,  504,  514,  521,  529,  539,  552,  634,  667,  677,  693,
                                                       711,  715, 1309.
        1076    r_off                    cobol_ided:   279,  286,  299,  308,  316, 1310.
         313    r_omitted                cobol_ided:   124, 1311.
         206    r_on                     cobol_ided:   278,  285,  298,  307,  315,  605,  705, 1312.
        1100    r_optional               cobol_ided:   394, 1313.
         265    r_organization           cobol_ided:   404, 1314.
         630    r_output_mode            cobol_ided:   641,  649, 1315.
         275    r_per                    cobol_ided:    44,   50,   54,   65,   72,  132,  139,  151,  161,  169,  175,  180,
                                                       189,  202,  212,  224,  259,  270,  383,  389,  418,  563,  565,  576, 1198.
         632    r_permanent              cobol_ided:   594,  602, 1316.
         266    r_pls                    cobol_ided:   902, 1196.
        1106    r_position               cobol_ided:   780, 1317.
         216    r_procedure              cobol_ided:   858, 1318.
         222    r_program                cobol_ided:   207,  217, 1319.
        1107    r_program_id             cobol_ided:    35,   46,  789, 1320.
         642    r_protect                cobol_ided:   646,  654, 1321.
         352    r_queue                  cobol_ided:   121, 1322.
         353    r_quote                  cobol_ided:   895, 1323.
         353    r_quotes                 cobol_ided:   896, 1324.
         223    r_random                 cobol_ided:   474, 1325.
         224    r_record                 cobol_ided:   410,  478,  546,  738, 1326.
         303    r_records                cobol_ided:   726, 1327.
         225    r_reel                   cobol_ided:   712, 1328.
         247    r_relative               cobol_ided:   409,  477, 1329.
         651    r_replace                cobol_ided:   882, 1330.
         660    r_replacement            cobol_ided:   661, 1331.
         230    r_replacing              cobol_ided:   851, 1332.
        1114    r_rerun                  cobol_ided:   567,  573,  584,  809, 1333.
        1115    r_reserve                cobol_ided:   403, 1334.
         637    r_retain                 cobol_ided:   644,  652, 1335.
         274    r_rt                     cobol_ided:   911, 1193.
        1121    r_same                   cobol_ided:   568,  574,  585,  810, 1336.
         210    r_scalar                 cobol_ided:    92, 1337.
         236    r_section                cobol_ided:    70,  137,  167,  381, 1338.
        1122    r_security               cobol_ided:   856, 1339.
         237    r_segment                cobol_ided:   886, 1340.
        1123    r_segment_limit          cobol_ided:   211,  221,  887, 1341.
        1124    r_select                 cobol_ided:   392,  425,  806, 1342.
         364    r_separate               cobol_ided:   108, 1343.
        1113    r_sequence               cobol_ided:   209,  219,  229, 1344.
        1125    r_sequential             cobol_ided:   473, 1345.
         365    r_sign                   cobol_ided:    85,   98,  320,  326, 1346.
         241    r_size                   cobol_ided:   234,  372, 1347.
          61    r_sort                   cobol_ided:   739, 1348.
        1126    r_sort_merge             cobol_ided:   740, 1349.
        1127    r_source_computer        cobol_ided:   171,  796, 1350.
         300    r_space                  cobol_ided:   897, 1351.
         300    r_spaces                 cobol_ided:   898, 1352.
        1131    r_spanned                cobol_ided:   415,  434,  442, 1353.
        1130    r_special_names          cobol_ided:   246,  799, 1354.
         125    r_ssf                    cobol_ided:   416,  435, 1355.
         242    r_standard               cobol_ided:   885, 1356.
         771    r_standard_1             cobol_ided:   888, 1357.
         320    r_standard_2             cobol_ided:   889, 1358.
         367    r_status                 cobol_ided:   303,  311,  407,  438, 1359.
         627    r_stream                 cobol_ided:   881, 1360.
         267    r_sub                    cobol_ided:   903, 1197.
         663    r_substitution           cobol_ided:    67, 1361.
         373    r_symbolic               cobol_ided:    83, 1362.
        1136    r_tape                   cobol_ided:   774, 1363.
         633    r_tape_options           cobol_ided:   598, 1364.
         631    r_temporary              cobol_ided:    82,  593,  601, 1365.
         246    r_through                cobol_ided:   883, 1366.
         246    r_thru                   cobol_ided:   353, 1367.
         270    r_tim                    cobol_ided:   904, 1194.
         252    r_to                     cobol_ided:   454, 1368.
         377    r_trailing               cobol_ided:    88,  102,  106, 1369.
         254    r_unit                   cobol_ided:   127,  713, 1370.
         311    r_vlr                    cobol_ided:   414,  433,  441, 1371.
         263    r_with                   cobol_ided:   185,  412,  557, 1372.
        1141    r_words                  cobol_ided:   237, 1373.
         264    r_zero                   cobol_ided:   899, 1374.
         264    r_zeroes                 cobol_ided:   900, 1375.
         264    r_zeros                  cobol_ided:   901, 1376.
        6731    sam_1                    cobol_ided:   568,  574,  738.
        6767    sam_2                    cobol_ided:   744,  770.
        6755    sam_3                    cobol_ided:   742,  766,  767.
        7075    sam_ck1                  cobol_ided:   748,  758.
        7145    sam_ck2                  cobol_ided:   739,  766.
        7152    sam_ck3                  cobol_ided:   740,  767.
        7157    sam_ck4                  cobol_ided:   749,  750,  753,  754,  755,  757,  758,  761,  762,  763,  765,  768.
        1414    sc_1                     cobol_ided:   185,  193,  194.
        1452    sc_2                     cobol_ided:   185,  191,  819.
        1464    sc_3                     cobol_ided:   193,  196,  197.
        1402    sc_4                     cobol_ided:   178,  183.
        2037    segl_1                   cobol_ided:   211,  221,  240.
        3427    sel                      cobol_ided:   389,  390,  392,  828.
        3441    sel1                     cobol_ided:   394,  425.
        3422    sel2                     cobol_ided:   391,  395,  396.
        2075    snp                      cobol_ided:   212,  213,  224,  225,  246,  821.
        2164    snp_1                    cobol_ided:   246,  257.
        2102    snp_2                    cobol_ided:   247.
        2241    snp_3                    cobol_ided:   266,  275,  276,  294,  297,  309,  313,  822,  823,  824,  825.
        2330    snp_4                    cobol_ided:   264,  269,  277.
        2316    snp_5                    cobol_ided:   275,  289,  325,  328,  336,  338,  339,  371,  377,  378.
        2400    snp_6                    cobol_ided:   283,  285,  347.
        2443    snp_7                    cobol_ided:   288,  292.
        2462    snp_8                    cobol_ided:   290,  295.
        2114    snp_9                    cobol_ided:   249,  265,  273,  274.
        4540    stat_1                   cobol_ided:   407,  438,  439,  509.
        4571    stat_2                   cobol_ided:   514,  517.
        4622    stat_3                   cobol_ided:   511,  519.
        4634    stat_4                   cobol_ided:   521,  524.
        4665    stat_5                   cobol_ided:   516,  523,  526.
        4704    stat_6                   cobol_ided:   529,  532.
        1022    sub                      cobol_ided:    67,  135.
        1060    sub_1                    cobol_ided:   141,  145.
        2501    sw_1                     cobol_ided:   278,  279,  298.
        2626    sw_2                     cobol_ided:   285,  286,  315.
        2532    sw_3                     cobol_ided:   303,  318.
         714    symb_1                   cobol_ided:    83,  121.
        6250    tap_10                   cobol_ided:   675,  677,  680.
        5752    tap_11                   cobol_ided:   598,  639.
        6104    tap_12                   cobol_ided:   641,  657.
        6445    tap_13                   cobol_ided:   644,  645,  646,  652,  653,  654,  702.
        6440    tap_14                   cobol_ided:   659,  660,  701.
        6034    tap_2                    cobol_ided:   649,  703,  704.
        6166    tap_3                    cobol_ided:   664,  667,  670.
        6217    tap_4                    cobol_ided:   642,  650,  672.
        6301    tap_5                    cobol_ided:   643,  651,  682.
        6325    tap_6                    cobol_ided:   647,  655,  686.
        6370    tap_7                    cobol_ided:   693,  696,  698,  699.
        6421    tap_8                    cobol_ided:   690,  695,  698.
        6452    tap_9                    cobol_ided:   665,  669,  674,  679,  684,  700,  701,  703.
         656    temp_0                   cobol_ided:    82,  115.
         663    temp_1                   cobol_ided:   116,  119,  120.
         702    temp_2                   cobol_ided:    79,  119.


NO FATAL ERRORS


                                          -----------------------------------------------------------


Historical Background

This edition of the Multics software materials and documentation is provided and donated
to Massachusetts Institute of Technology by Group BULL including BULL HN Information Systems Inc.
as a contribution to computer science knowledge.
This donation is made also to give evidence of the common contributions of Massachusetts Institute of Technology,
Bell Laboratories, General Electric, Honeywell Information Systems Inc., Honeywell BULL Inc., Groupe BULL
and BULL HN Information Systems Inc. to the development of this operating system.
Multics development was initiated by Massachusetts Institute of Technology Project MAC (1963-1970),
renamed the MIT Laboratory for Computer Science and Artificial Intelligence in the mid 1970s, under the leadership
of Professor Fernando Jose Corbato. Users consider that Multics provided the best software architecture
for managing computer hardware properly and for executing programs. Many subsequent operating systems
incorporated Multics principles.
Multics was distributed in 1975 to 2000 by Group Bull in Europe , and in the U.S. by Bull HN Information Systems Inc.,
as successor in interest by change in name only to Honeywell Bull Inc. and Honeywell Information Systems Inc. .

                                          -----------------------------------------------------------

Permission to use, copy, modify, and distribute these programs and their documentation for any purpose and without
fee is hereby granted,provided that the below copyright notice and historical background appear in all copies
and that both the copyright notice and historical background and this permission notice appear in supporting
documentation, and that the names of MIT, HIS, BULL or BULL HN not be used in advertising or publicity pertaining
to distribution of the programs without specific prior written permission.
    Copyright 1972 by Massachusetts Institute of Technology and Honeywell Information Systems Inc.
    Copyright 2006 by BULL HN Information Systems Inc.
    Copyright 2006 by Bull SAS
    All Rights Reserved
