ASSEMBLY LISTING OF SEGMENT >udd>sm>ds>w>ml>cobol_reswd_table_.alm
ASSEMBLED ON:	04/18/00  1142.4 mdt Tue
OPTIONS USED:	list symbols
ASSEMBLED BY:	ALM Version 8.14 March 1989
ASSEMBLER CREATED:	06/09/89  1102.3 mdt Fri

                                     1  " *********************************************************
                                     2  " *                                                       *
                                     3  " * Copyright, (C) BULL HN Information Systems Inc., 1989 *
                                     4  " *                                                       *
                                     5  " * Copyright (c) 1972 by Massachusetts Institute of      *
                                     6  " * Technology and Honeywell Information Systems, Inc.    *
                                     7  " *                                                       *
                                     8  " *********************************************************
                                     9
                                    10  " HISTORY COMMENTS:
                                    11  "  1) change(89-04-23,Zimmerman), approve(89-04-23,MCR8082),
                                    12  "     audit(89-05-05,RWaters), install(89-05-24,MR12.3-1048):
                                    13  "     MCR8082 cobol_reswd_table_.alm Fix wild array subscript.
                                    14  "                                                      END HISTORY COMMENTS
                                    15
                                    16
    000000                          17  name	cobol_reswd_table_
    000000                          18  cobol_reswd_table_:
                        000000      19  	segdef	cobol_reswd_table_
    000000  aa   777777 777777      20  	oct	777777777777
    000001  aa   000000 000037      21  	oct	000000000037
    000002  aa   000000 000153      22  	oct	000000000153
    000003  aa   000000 000450      23  	oct	000000000450
    000004  aa   000000 000773      24  	oct	000000000773
    000005  aa   000000 001466      25  	oct	000000001466
    000006  aa   000000 002262      26  	oct	000000002262
    000007  aa   000000 003146      27  	oct	000000003146
    000010  aa   000000 003753      28  	oct	000000003753
    000011  aa   000000 004421      29  	oct	000000004421
    000012  aa   000000 005064      30  	oct	000000005064
    000013  aa   000000 005544      31  	oct	000000005544
    000014  aa   000000 006116      32  	oct	000000006116
    000015  aa   000000 006430      33  	oct	000000006430
    000016  aa   000000 006663      34  	oct	000000006663
    000017  aa   000000 007104      35  	oct	000000007104
    000020  aa   000000 007347      36  	oct	000000007347
    000021  aa   000000 000037      37  	oct	000000000037
    000022  aa   000000 000037      38  	oct	000000000037
    000023  aa   000000 007472      39  	oct	000000007472
    000024  aa   000000 000037      40  	oct	000000000037
    000025  aa   000000 000037      41  	oct	000000000037
    000026  aa   000000 007616      42  	oct	000000007616
    000027  aa   000000 000037      43  	oct	000000000037
    000030  aa   000000 000037      44  	oct	000000000037
    000031  aa   000000 000037      45  	oct	000000000037
    000032  aa   000000 000037      46  	oct	000000000037
    000033  aa   000000 000037      47  	oct	000000000037
    000034  aa   000000 000037      48  	oct	000000000037
    000035  aa   000000 000037      49  	oct	000000000037
    000036  aa   000000 000037      50  	oct	000000000037
    000037  aa   000000 000000      51  	oct	000000000000
    000040  aa   000000 000000      52  	oct	000000000000
    000041  aa   000000 000000      53  	oct	000000000000
    000042  aa   000000 000000      54  	oct	000000000000
    000043  aa   000000 000000      55  	oct	000000000000
    000044  aa   000000 000000      56  	oct	000000000000
    000045  aa   000000 000000      57  	oct	000000000000
    000046  aa   000000 000000      58  	oct	000000000000
    000047  aa   000000 000000      59  	oct	000000000000
    000050  aa   000000 000000      60  	oct	000000000000
    000051  aa   000000 000000      61  	oct	000000000000
    000052  aa   000000 000000      62  	oct	000000000000
    000053  aa   000000 000000      63  	oct	000000000000
    000054  aa   000000 000000      64  	oct	000000000000
    000055  aa   000000 000000      65  	oct	000000000000
    000056  aa   000000 000000      66  	oct	000000000000
    000057  aa   000000 000000      67  	oct	000000000000
    000060  aa   000000 000000      68  	oct	000000000000
    000061  aa   000000 000000      69  	oct	000000000000
    000062  aa   000000 000000      70  	oct	000000000000
    000063  aa   000000 000000      71  	oct	000000000000
    000064  aa   000000 000000      72  	oct	000000000000
    000065  aa   000000 000000      73  	oct	000000000000
    000066  aa   000000 000000      74  	oct	000000000000
    000067  aa   000000 000000      75  	oct	000000000000
    000070  aa   000000 000000      76  	oct	000000000000
    000071  aa   000000 000000      77  	oct	000000000000
    000072  aa   000000 000000      78  	oct	000000000000
    000073  aa   000000 000000      79  	oct	000000000000
    000074  aa   000000 000000      80  	oct	000000000000
    000075  aa   000000 000000      81  	oct	000000000000
    000076  aa   000000 000000      82  	oct	000000000000
    000077  aa   000000 000000      83  	oct	000000000000
    000100  aa   000000 000000      84  	oct	000000000000
    000101  aa   000000 000000      85  	oct	000000000000
    000102  aa   000000 000000      86  	oct	000000000000
    000103  aa   000000 000000      87  	oct	000000000000
    000104  aa   000000 000000      88  	oct	000000000000
    000105  aa   000000 000000      89  	oct	000000000000
    000106  aa   000000 000000      90  	oct	000000000000
    000107  aa   000000 000000      91  	oct	000000000000
    000110  aa   000000 000000      92  	oct	000000000000
    000111  aa   000000 000000      93  	oct	000000000000
    000112  aa   000000 000000      94  	oct	000000000000
    000113  aa   000000 000000      95  	oct	000000000000
    000114  aa   000000 000000      96  	oct	000000000000
    000115  aa   000000 000000      97  	oct	000000000000
    000116  aa   000000 000000      98  	oct	000000000000
    000117  aa   000000 000000      99  	oct	000000000000
    000120  aa   000000 000000     100  	oct	000000000000
    000121  aa   000000 000000     101  	oct	000000000000
    000122  aa   000000 000000     102  	oct	000000000000
    000123  aa   000000 000000     103  	oct	000000000000
    000124  aa   000000 000000     104  	oct	000000000000
    000125  aa   000000 000000     105  	oct	000000000000
    000126  aa   000000 000000     106  	oct	000000000000
    000127  aa   000000 000000     107  	oct	000000000000
    000130  aa   000000 000000     108  	oct	000000000000
    000131  aa   000000 000000     109  	oct	000000000000
    000132  aa   000000 000000     110  	oct	000000000000
    000133  aa   000000 000000     111  	oct	000000000000
    000134  aa   000000 000000     112  	oct	000000000000
    000135  aa   000000 000000     113  	oct	000000000000
    000136  aa   000000 000000     114  	oct	000000000000
    000137  aa   000000 000000     115  	oct	000000000000
    000140  aa   000000 000000     116  	oct	000000000000
    000141  aa   000000 000000     117  	oct	000000000000
    000142  aa   000000 000000     118  	oct	000000000000
    000143  aa   000000 000000     119  	oct	000000000000
    000144  aa   000000 000000     120  	oct	000000000000
    000145  aa   000000 000000     121  	oct	000000000000
    000146  aa   000000 000000     122  	oct	000000000000
    000147  aa   000000 000000     123  	oct	000000000000
    000150  aa   000000 000000     124  	oct	000000000000
    000151  aa   000000 000000     125  	oct	000000000000
    000152  aa   777777 777777     126  	oct	777777777777
    000153  aa   000000 000000     127  	oct	000000000000
    000154  aa   000000 000000     128  	oct	000000000000
    000155  aa   000000 000000     129  	oct	000000000000
    000156  aa   000000 000000     130  	oct	000000000000
    000157  aa   000000 000000     131  	oct	000000000000
    000160  aa   000000 000000     132  	oct	000000000000
    000161  aa   000000 000000     133  	oct	000000000000
    000162  aa   000000 000000     134  	oct	000000000000
    000163  aa   000000 000000     135  	oct	000000000000
    000164  aa   000000 000000     136  	oct	000000000000
    000165  aa   000000 000000     137  	oct	000000000000
    000166  aa   000000 000000     138  	oct	000000000000
    000167  aa   000000 000000     139  	oct	000000000000
    000170  aa   000000 000000     140  	oct	000000000000
    000171  aa   000000 000000     141  	oct	000000000000
    000172  aa   000000 000000     142  	oct	000000000000
    000173  aa   000000 000000     143  	oct	000000000000
    000174  aa   000000 000000     144  	oct	000000000000
    000175  aa   000000 000000     145  	oct	000000000000
    000176  aa   000000 000000     146  	oct	000000000000
    000177  aa   000000 000000     147  	oct	000000000000
    000200  aa   000000 000000     148  	oct	000000000000
    000201  aa   000000 000000     149  	oct	000000000000
    000202  aa   000000 000000     150  	oct	000000000000
    000203  aa   000000 000000     151  	oct	000000000000
    000204  aa   000000 000000     152  	oct	000000000000
    000205  aa   000000 000000     153  	oct	000000000000
    000206  aa   000000 000000     154  	oct	000000000000
    000207  aa   000000 000000     155  	oct	000000000000
    000210  aa   000000 000000     156  	oct	000000000000
    000211  aa   000000 000000     157  	oct	000000000000
    000212  aa   000000 000000     158  	oct	000000000000
    000213  aa   000000 000000     159  	oct	000000000000
    000214  aa   000000 000000     160  	oct	000000000000
    000215  aa   000000 000000     161  	oct	000000000000
    000216  aa   000000 000000     162  	oct	000000000000
    000217  aa   000000 000000     163  	oct	000000000000
    000220  aa   000000 000000     164  	oct	000000000000
    000221  aa   000000 000000     165  	oct	000000000000
    000222  aa   000000 000000     166  	oct	000000000000
    000223  aa   000000 000000     167  	oct	000000000000
    000224  aa   000000 000000     168  	oct	000000000000
    000225  aa   000000 000000     169  	oct	000000000000
    000226  aa   000000 000000     170  	oct	000000000000
    000227  aa   000000 000000     171  	oct	000000000000
    000230  aa   000000 000000     172  	oct	000000000000
    000231  aa   000000 000000     173  	oct	000000000000
    000232  aa   000000 000000     174  	oct	000000000000
    000233  aa   000000 000000     175  	oct	000000000000
    000234  aa   000000 000266     176  	oct	000000000266
    000235  aa   000000 000273     177  	oct	000000000273
    000236  aa   000000 000300     178  	oct	000000000300
    000237  aa   000000 000315     179  	oct	000000000315
    000240  aa   000000 000000     180  	oct	000000000000
    000241  aa   000000 000326     181  	oct	000000000326
    000242  aa   000000 000333     182  	oct	000000000333
    000243  aa   000000 000000     183  	oct	000000000000
    000244  aa   000000 000340     184  	oct	000000000340
    000245  aa   000000 000000     185  	oct	000000000000
    000246  aa   000000 000000     186  	oct	000000000000
    000247  aa   000000 000000     187  	oct	000000000000
    000250  aa   000000 000000     188  	oct	000000000000
    000251  aa   000000 000355     189  	oct	000000000355
    000252  aa   000000 000362     190  	oct	000000000362
    000253  aa   000000 000377     191  	oct	000000000377
    000254  aa   000000 000000     192  	oct	000000000000
    000255  aa   000000 000410     193  	oct	000000000410
    000256  aa   000000 000425     194  	oct	000000000425
    000257  aa   000000 000436     195  	oct	000000000436
    000260  aa   000000 000443     196  	oct	000000000443
    000261  aa   000000 000000     197  	oct	000000000000
    000262  aa   000000 000000     198  	oct	000000000000
    000263  aa   000000 000000     199  	oct	000000000000
    000264  aa   000000 000000     200  	oct	000000000000
    000265  aa   000000 000000     201  	oct	000000000000
    000266  aa   141164 000000     202  	oct	141164000000
    000267  aa   000117 000002     203  	oct	000117000002
    000270  aa   000004 000000     204  	oct	000004000000
    000271  aa   700000 000000     205  	oct	700000000000
    000272  aa   777777 777777     206  	oct	777777777777
    000273  aa   142171 000000     207  	oct	142171000000
    000274  aa   000122 000002     208  	oct	000122000002
    000275  aa   000004 000000     209  	oct	000004000000
    000276  aa   700000 000000     210  	oct	700000000000
    000277  aa   777777 777777     211  	oct	777777777777
    000300  aa   143144 000000     212  	oct	143144000000
    000301  aa   000316 000002     213  	oct	000316000002
    000302  aa   000404 000000     214  	oct	000404000000
    000303  aa   200000 000000     215  	oct	200000000000
    000304  aa   143146 000000     216  	oct	143146000000
    000305  aa   000777 000002     217  	oct	000777000002
    000306  aa   051004 000000     218  	oct	051004000000
    000307  aa   040000 000000     219  	oct	040000000000
    000310  aa   143150 000000     220  	oct	143150000000
    000311  aa   001000 000002     221  	oct	001000000002
    000312  aa   050004 000000     222  	oct	050004000000
    000313  aa   000000 000000     223  	oct	000000000000
    000314  aa   777777 777777     224  	oct	777777777777
    000315  aa   144142 000000     225  	oct	144142000000
    000316  aa   000406 000000     226  	oct	000406000000
    000317  aa   000404 000000     227  	oct	000404000000
    000320  aa   040000 000000     228  	oct	040000000000
    000321  aa   144145 000000     229  	oct	144145000000
    000322  aa   001021 000002     230  	oct	001021000002
    000323  aa   043004 000000     231  	oct	043004000000
    000324  aa   000000 000000     232  	oct	000000000000
    000325  aa   777777 777777     233  	oct	777777777777
    000326  aa   146144 000000     234  	oct	146144000000
    000327  aa   000333 001002     235  	oct	000333001002
    000330  aa   000404 000000     236  	oct	000404000000
    000331  aa   200000 000000     237  	oct	200000000000
    000332  aa   777777 777777     238  	oct	777777777777
    000333  aa   147157 000000     239  	oct	147157000000
    000334  aa   000016 444004     240  	oct	000016444004
    000335  aa   000044 000240     241  	oct	000044000240
    000336  aa   100000 000000     242  	oct	100000000000
    000337  aa   777777 777777     243  	oct	777777777777
    000340  aa   151146 000000     244  	oct	151146000000
    000341  aa   000057 440006     245  	oct	000057440006
    000342  aa   000004 000000     246  	oct	000004000000
    000343  aa   100000 000000     247  	oct	100000000000
    000344  aa   151156 000000     248  	oct	151156000000
    000345  aa   000145 000002     249  	oct	000145000002
    000346  aa   000004 000000     250  	oct	000004000000
    000347  aa   700000 000000     251  	oct	700000000000
    000350  aa   151163 000000     252  	oct	151163000000
    000351  aa   000166 000002     253  	oct	000166000002
    000352  aa   000004 000000     254  	oct	000004000000
    000353  aa   740000 000000     255  	oct	740000000000
    000354  aa   777777 777777     256  	oct	777777777777
    000355  aa   156157 000000     257  	oct	156157000000
    000356  aa   000201 000002     258  	oct	000201000002
    000357  aa   000004 000000     259  	oct	000004000000
    000360  aa   500000 000000     260  	oct	500000000000
    000361  aa   777777 777777     261  	oct	777777777777
    000362  aa   157146 000000     262  	oct	157146000000
    000363  aa   000205 000002     263  	oct	000205000002
    000364  aa   000004 000000     264  	oct	000004000000
    000365  aa   740000 000000     265  	oct	740000000000
    000366  aa   157156 000000     266  	oct	157156000000
    000367  aa   000206 000002     267  	oct	000206000002
    000370  aa   000004 000000     268  	oct	000004000000
    000371  aa   700000 000000     269  	oct	700000000000
    000372  aa   157162 000000     270  	oct	157162000000
    000373  aa   000207 000002     271  	oct	000207000002
    000374  aa   000004 000000     272  	oct	000004000000
    000375  aa   100000 000000     273  	oct	100000000000
    000376  aa   777777 777777     274  	oct	777777777777
    000377  aa   160146 000000     275  	oct	160146000000
    000400  aa   001103 000002     276  	oct	001103000002
    000401  aa   047004 000000     277  	oct	047004000000
    000402  aa   000000 000000     278  	oct	000000000000
    000403  aa   160150 000000     279  	oct	160150000000
    000404  aa   001104 000002     280  	oct	001104000002
    000405  aa   046004 000000     281  	oct	046004000000
    000406  aa   000000 000000     282  	oct	000000000000
    000407  aa   777777 777777     283  	oct	777777777777
    000410  aa   162144 000000     284  	oct	162144000000
    000411  aa   001110 000002     285  	oct	001110000002
    000412  aa   000404 000000     286  	oct	000404000000
    000413  aa   200000 000000     287  	oct	200000000000
    000414  aa   162146 000000     288  	oct	162146000000
    000415  aa   001117 000002     289  	oct	001117000002
    000416  aa   042004 000000     290  	oct	042004000000
    000417  aa   000000 000000     291  	oct	000000000000
    000420  aa   162150 000000     292  	oct	162150000000
    000421  aa   001120 000002     293  	oct	001120000002
    000422  aa   044004 000000     294  	oct	044004000000
    000423  aa   000000 000000     295  	oct	000000000000
    000424  aa   777777 777777     296  	oct	777777777777
    000425  aa   163141 000000     297  	oct	163141000000
    000426  aa   000362 001002     298  	oct	000362001002
    000427  aa   002004 000001     299  	oct	002004000001
    000430  aa   234000 000000     300  	oct	234000000000
    000431  aa   163144 000000     301  	oct	163144000000
    000432  aa   000363 001002     302  	oct	000363001002
    000433  aa   001414 000034     303  	oct	001414000034
    000434  aa   200000 000000     304  	oct	200000000000
    000435  aa   777777 777777     305  	oct	777777777777
    000436  aa   164157 000000     306  	oct	164157000000
    000437  aa   000252 000002     307  	oct	000252000002
    000440  aa   000004 000000     308  	oct	000004000000
    000441  aa   760000 000000     309  	oct	760000000000
    000442  aa   777777 777777     310  	oct	777777777777
    000443  aa   165160 000000     311  	oct	165160000000
    000444  aa   000256 000002     312  	oct	000256000002
    000445  aa   000004 000000     313  	oct	000004000000
    000446  aa   100000 000000     314  	oct	100000000000
    000447  aa   777777 777777     315  	oct	777777777777
    000450  aa   000000 000000     316  	oct	000000000000
    000451  aa   000000 000000     317  	oct	000000000000
    000452  aa   000000 000000     318  	oct	000000000000
    000453  aa   000000 000000     319  	oct	000000000000
    000454  aa   000000 000000     320  	oct	000000000000
    000455  aa   000000 000000     321  	oct	000000000000
    000456  aa   000000 000000     322  	oct	000000000000
    000457  aa   000000 000000     323  	oct	000000000000
    000460  aa   000000 000000     324  	oct	000000000000
    000461  aa   000000 000000     325  	oct	000000000000
    000462  aa   000000 000000     326  	oct	000000000000
    000463  aa   000000 000000     327  	oct	000000000000
    000464  aa   000000 000000     328  	oct	000000000000
    000465  aa   000000 000000     329  	oct	000000000000
    000466  aa   000000 000000     330  	oct	000000000000
    000467  aa   000000 000000     331  	oct	000000000000
    000470  aa   000000 000000     332  	oct	000000000000
    000471  aa   000000 000000     333  	oct	000000000000
    000472  aa   000000 000000     334  	oct	000000000000
    000473  aa   000000 000000     335  	oct	000000000000
    000474  aa   000000 000000     336  	oct	000000000000
    000475  aa   000000 000000     337  	oct	000000000000
    000476  aa   000000 000000     338  	oct	000000000000
    000477  aa   000000 000000     339  	oct	000000000000
    000500  aa   000000 000000     340  	oct	000000000000
    000501  aa   000000 000000     341  	oct	000000000000
    000502  aa   000000 000000     342  	oct	000000000000
    000503  aa   000000 000000     343  	oct	000000000000
    000504  aa   000000 000000     344  	oct	000000000000
    000505  aa   000000 000000     345  	oct	000000000000
    000506  aa   000000 000000     346  	oct	000000000000
    000507  aa   000000 000000     347  	oct	000000000000
    000510  aa   000000 000000     348  	oct	000000000000
    000511  aa   000000 000000     349  	oct	000000000000
    000512  aa   000000 000000     350  	oct	000000000000
    000513  aa   000000 000000     351  	oct	000000000000
    000514  aa   000000 000000     352  	oct	000000000000
    000515  aa   000000 000000     353  	oct	000000000000
    000516  aa   000000 000000     354  	oct	000000000000
    000517  aa   000000 000000     355  	oct	000000000000
    000520  aa   000000 000000     356  	oct	000000000000
    000521  aa   000000 000000     357  	oct	000000000000
    000522  aa   000000 000000     358  	oct	000000000000
    000523  aa   000000 000000     359  	oct	000000000000
    000524  aa   000000 000000     360  	oct	000000000000
    000525  aa   000000 000000     361  	oct	000000000000
    000526  aa   000000 000000     362  	oct	000000000000
    000527  aa   000000 000000     363  	oct	000000000000
    000530  aa   000000 000000     364  	oct	000000000000
    000531  aa   000000 000563     365  	oct	000000000563
    000532  aa   000000 000610     366  	oct	000000000610
    000533  aa   000000 000000     367  	oct	000000000000
    000534  aa   000000 000621     368  	oct	000000000621
    000535  aa   000000 000626     369  	oct	000000000626
    000536  aa   000000 000657     370  	oct	000000000657
    000537  aa   000000 000670     371  	oct	000000000670
    000540  aa   000000 000000     372  	oct	000000000000
    000541  aa   000000 000675     373  	oct	000000000675
    000542  aa   000000 000000     374  	oct	000000000000
    000543  aa   000000 000702     375  	oct	000000000702
    000544  aa   000000 000000     376  	oct	000000000000
    000545  aa   000000 000000     377  	oct	000000000000
    000546  aa   000000 000707     378  	oct	000000000707
    000547  aa   000000 000714     379  	oct	000000000714
    000550  aa   000000 000721     380  	oct	000000000721
    000551  aa   000000 000000     381  	oct	000000000000
    000552  aa   000000 000726     382  	oct	000000000726
    000553  aa   000000 000733     383  	oct	000000000733
    000554  aa   000000 000750     384  	oct	000000000750
    000555  aa   000000 000755     385  	oct	000000000755
    000556  aa   000000 000762     386  	oct	000000000762
    000557  aa   000000 000000     387  	oct	000000000000
    000560  aa   000000 000000     388  	oct	000000000000
    000561  aa   000000 000000     389  	oct	000000000000
    000562  aa   000000 000000     390  	oct	000000000000
    000563  aa   141144 144000     391  	oct	141144144000
    000564  aa   000002 444006     392  	oct	000002444006
    000565  aa   000044 000240     393  	oct	000044000240
    000566  aa   140000 000000     394  	oct	140000000000
    000567  aa   141154 154000     395  	oct	141154154000
    000570  aa   000111 000002     396  	oct	000111000002
    000571  aa   000004 000000     397  	oct	000004000000
    000572  aa   740000 000000     398  	oct	740000000000
    000573  aa   141156 144000     399  	oct	141156144000
    000574  aa   000115 000002     400  	oct	000115000002
    000575  aa   000004 000000     401  	oct	000004000000
    000576  aa   100000 000000     402  	oct	100000000000
    000577  aa   141156 171000     403  	oct	141156171000
    000600  aa   000720 000000     404  	oct	000720000000
    000601  aa   000004 000000     405  	oct	000004000000
    000602  aa   100000 000000     406  	oct	100000000000
    000603  aa   141162 145000     407  	oct	141162145000
    000604  aa   000166 000002     408  	oct	000166000002
    000605  aa   000004 000000     409  	oct	000004000000
    000606  aa   600000 000000     410  	oct	600000000000
    000607  aa   777777 777777     411  	oct	777777777777
    000610  aa   142151 164000     412  	oct	142151164000
    000611  aa   000302 000000     413  	oct	000302000000
    000612  aa   000004 000001     414  	oct	000004000001
    000613  aa   000000 000000     415  	oct	000000000000
    000614  aa   142163 156000     416  	oct	142163156000
    000615  aa   000635 000000     417  	oct	000635000000
    000616  aa   000004 000000     418  	oct	000004000000
    000617  aa   400000 000000     419  	oct	400000000000
    000620  aa   777777 777777     420  	oct	777777777777
    000621  aa   144141 171000     421  	oct	144141171000
    000622  aa   000127 000002     422  	oct	000127000002
    000623  aa   000004 000000     423  	oct	000004000000
    000624  aa   100000 000000     424  	oct	100000000000
    000625  aa   777777 777777     425  	oct	777777777777
    000626  aa   145147 151000     426  	oct	145147151000
    000627  aa   000351 000002     427  	oct	000351000002
    000630  aa   000004 000000     428  	oct	000004000000
    000631  aa   100000 000000     429  	oct	100000000000
    000632  aa   145155 151000     430  	oct	145155151000
    000633  aa   000141 000002     431  	oct	000141000002
    000634  aa   000004 000000     432  	oct	000004000000
    000635  aa   100000 000000     433  	oct	100000000000
    000636  aa   145156 144000     434  	oct	145156144000
    000637  aa   000142 000102     435  	oct	000142000102
    000640  aa   003014 000016     436  	oct	003014000016
    000641  aa   700000 000000     437  	oct	700000000000
    000642  aa   145157 160000     438  	oct	145157160000
    000643  aa   000144 000002     439  	oct	000144000002
    000644  aa   000004 000000     440  	oct	000004000000
    000645  aa   140000 000000     441  	oct	140000000000
    000646  aa   145163 151000     442  	oct	145163151000
    000647  aa   000151 000002     443  	oct	000151000002
    000650  aa   000004 000000     444  	oct	000004000000
    000651  aa   140000 000000     445  	oct	140000000000
    000652  aa   145170 164000     446  	oct	145170164000
    000653  aa   000667 000000     447  	oct	000667000000
    000654  aa   000004 000000     448  	oct	000004000000
    000655  aa   000000 000000     449  	oct	000000000000
    000656  aa   777777 777777     450  	oct	777777777777
    000657  aa   146154 162000     451  	oct	146154162000
    000660  aa   000420 000000     452  	oct	000420000000
    000661  aa   000004 000000     453  	oct	000004000000
    000662  aa   400000 000000     454  	oct	400000000000
    000663  aa   146157 162000     455  	oct	146157162000
    000664  aa   000156 000002     456  	oct	000156000002
    000665  aa   000004 000000     457  	oct	000004000000
    000666  aa   740000 000000     458  	oct	740000000000
    000667  aa   777777 777777     459  	oct	777777777777
    000670  aa   147145 164000     460  	oct	147145164000
    000671  aa   000652 000000     461  	oct	000652000000
    000672  aa   000004 000000     462  	oct	000004000000
    000673  aa   000000 000000     463  	oct	000000000000
    000674  aa   777777 777777     464  	oct	777777777777
    000675  aa   151055 157000     465  	oct	151055157000
    000676  aa   000167 000002     466  	oct	000167000002
    000677  aa   000004 000000     467  	oct	000004000000
    000700  aa   100000 000000     468  	oct	100000000000
    000701  aa   777777 777777     469  	oct	777777777777
    000702  aa   153145 171000     470  	oct	153145171000
    000703  aa   000170 000002     471  	oct	000170000002
    000704  aa   000004 000000     472  	oct	000004000000
    000705  aa   740000 000000     473  	oct	740000000000
    000706  aa   777777 777777     474  	oct	777777777777
    000707  aa   156157 164000     475  	oct	156157164000
    000710  aa   000202 000002     476  	oct	000202000002
    000711  aa   000004 000000     477  	oct	000004000000
    000712  aa   100000 000000     478  	oct	100000000000
    000713  aa   777777 777777     479  	oct	777777777777
    000714  aa   157146 146000     480  	oct	157146146000
    000715  aa   001076 000002     481  	oct	001076000002
    000716  aa   000004 000000     482  	oct	000004000000
    000717  aa   500000 000000     483  	oct	500000000000
    000720  aa   777777 777777     484  	oct	777777777777
    000721  aa   160151 143000     485  	oct	160151143000
    000722  aa   000350 000202     486  	oct	000350000202
    000723  aa   020014 000002     487  	oct	020014000002
    000724  aa   260000 000000     488  	oct	260000000000
    000725  aa   777777 777777     489  	oct	777777777777
    000726  aa   162165 156000     490  	oct	162165156000
    000727  aa   000235 000002     491  	oct	000235000002
    000730  aa   000004 000000     492  	oct	000004000000
    000731  aa   134000 000000     493  	oct	134000000000
    000732  aa   777777 777777     494  	oct	777777777777
    000733  aa   163145 164000     495  	oct	163145164000
    000734  aa   000037 444024     496  	oct	000037444024
    000735  aa   000004 000000     497  	oct	000004000000
    000736  aa   100000 000000     498  	oct	100000000000
    000737  aa   163163 146000     499  	oct	163163146000
    000740  aa   000125 000000     500  	oct	000125000000
    000741  aa   000004 000000     501  	oct	000004000000
    000742  aa   460000 000000     502  	oct	460000000000
    000743  aa   163165 155000     503  	oct	163165155000
    000744  aa   001133 000002     504  	oct	001133000002
    000745  aa   031004 000000     505  	oct	031004000000
    000746  aa   060000 000000     506  	oct	060000000000
    000747  aa   777777 777777     507  	oct	777777777777
    000750  aa   164157 160000     508  	oct	164157160000
    000751  aa   000276 000002     509  	oct	000276000002
    000752  aa   000004 000000     510  	oct	000004000000
    000753  aa   260000 000000     511  	oct	260000000000
    000754  aa   777777 777777     512  	oct	777777777777
    000755  aa   165163 145000     513  	oct	165163145000
    000756  aa   000047 040006     514  	oct	000047040006
    000757  aa   000004 000000     515  	oct	000004000000
    000760  aa   160000 000000     516  	oct	160000000000
    000761  aa   777777 777777     517  	oct	777777777777
    000762  aa   166151 141000     518  	oct	166151141000
    000763  aa   000464 000000     519  	oct	000464000000
    000764  aa   000004 000000     520  	oct	000004000000
    000765  aa   060000 000000     521  	oct	060000000000
    000766  aa   166154 162000     522  	oct	166154162000
    000767  aa   000311 000000     523  	oct	000311000000
    000770  aa   000004 000000     524  	oct	000004000000
    000771  aa   460000 000000     525  	oct	460000000000
    000772  aa   777777 777777     526  	oct	777777777777
    000773  aa   000000 000000     527  	oct	000000000000
    000774  aa   000000 000000     528  	oct	000000000000
    000775  aa   000000 000000     529  	oct	000000000000
    000776  aa   000000 000000     530  	oct	000000000000
    000777  aa   000000 000000     531  	oct	000000000000
    001000  aa   000000 000000     532  	oct	000000000000
    001001  aa   000000 000000     533  	oct	000000000000
    001002  aa   000000 000000     534  	oct	000000000000
    001003  aa   000000 000000     535  	oct	000000000000
    001004  aa   000000 000000     536  	oct	000000000000
    001005  aa   000000 000000     537  	oct	000000000000
    001006  aa   000000 000000     538  	oct	000000000000
    001007  aa   000000 000000     539  	oct	000000000000
    001010  aa   000000 000000     540  	oct	000000000000
    001011  aa   000000 000000     541  	oct	000000000000
    001012  aa   000000 000000     542  	oct	000000000000
    001013  aa   000000 000000     543  	oct	000000000000
    001014  aa   000000 000000     544  	oct	000000000000
    001015  aa   000000 000000     545  	oct	000000000000
    001016  aa   000000 000000     546  	oct	000000000000
    001017  aa   000000 000000     547  	oct	000000000000
    001020  aa   000000 000000     548  	oct	000000000000
    001021  aa   000000 000000     549  	oct	000000000000
    001022  aa   000000 000000     550  	oct	000000000000
    001023  aa   000000 000000     551  	oct	000000000000
    001024  aa   000000 000000     552  	oct	000000000000
    001025  aa   000000 000000     553  	oct	000000000000
    001026  aa   000000 000000     554  	oct	000000000000
    001027  aa   000000 000000     555  	oct	000000000000
    001030  aa   000000 000000     556  	oct	000000000000
    001031  aa   000000 000000     557  	oct	000000000000
    001032  aa   000000 000000     558  	oct	000000000000
    001033  aa   000000 000000     559  	oct	000000000000
    001034  aa   000000 000000     560  	oct	000000000000
    001035  aa   000000 000000     561  	oct	000000000000
    001036  aa   000000 000000     562  	oct	000000000000
    001037  aa   000000 000000     563  	oct	000000000000
    001040  aa   000000 000000     564  	oct	000000000000
    001041  aa   000000 000000     565  	oct	000000000000
    001042  aa   000000 000000     566  	oct	000000000000
    001043  aa   000000 000000     567  	oct	000000000000
    001044  aa   000000 000000     568  	oct	000000000000
    001045  aa   000000 000000     569  	oct	000000000000
    001046  aa   000000 000000     570  	oct	000000000000
    001047  aa   000000 000000     571  	oct	000000000000
    001050  aa   000000 000000     572  	oct	000000000000
    001051  aa   000000 000000     573  	oct	000000000000
    001052  aa   000000 000000     574  	oct	000000000000
    001053  aa   000000 000000     575  	oct	000000000000
    001054  aa   000000 001106     576  	oct	000000001106
    001055  aa   000000 001117     577  	oct	000000001117
    001056  aa   000000 001124     578  	oct	000000001124
    001057  aa   000000 001151     579  	oct	000000001151
    001060  aa   000000 001166     580  	oct	000000001166
    001061  aa   000000 001177     581  	oct	000000001177
    001062  aa   000000 000000     582  	oct	000000000000
    001063  aa   000000 001214     583  	oct	000000001214
    001064  aa   000000 001221     584  	oct	000000001221
    001065  aa   000000 001226     585  	oct	000000001226
    001066  aa   000000 000000     586  	oct	000000000000
    001067  aa   000000 001233     587  	oct	000000001233
    001070  aa   000000 001260     588  	oct	000000001260
    001071  aa   000000 001271     589  	oct	000000001271
    001072  aa   000000 001302     590  	oct	000000001302
    001073  aa   000000 001313     591  	oct	000000001313
    001074  aa   000000 000000     592  	oct	000000000000
    001075  aa   000000 001330     593  	oct	000000001330
    001076  aa   000000 001341     594  	oct	000000001341
    001077  aa   000000 001402     595  	oct	000000001402
    001100  aa   000000 001437     596  	oct	000000001437
    001101  aa   000000 000000     597  	oct	000000000000
    001102  aa   000000 001450     598  	oct	000000001450
    001103  aa   000000 000000     599  	oct	000000000000
    001104  aa   000000 000000     600  	oct	000000000000
    001105  aa   000000 001461     601  	oct	000000001461
    001106  aa   141154 163157     602  	oct	141154163157
    001107  aa   000140 000000     603  	oct	000140000000
    001110  aa   000004 000000     604  	oct	000004000000
    001111  aa   562000 000000     605  	oct	562000000000
    001112  aa   141162 145141     606  	oct	141162145141
    001113  aa   000312 000002     607  	oct	000312000002
    001114  aa   000004 000000     608  	oct	000004000000
    001115  aa   600000 000000     609  	oct	600000000000
    001116  aa   777777 777777     610  	oct	777777777777
    001117  aa   142151 164163     611  	oct	142151164163
    001120  aa   000302 000000     612  	oct	000302000000
    001121  aa   000004 240001     613  	oct	000004240001
    001122  aa   400000 000000     614  	oct	400000000000
    001123  aa   777777 777777     615  	oct	777777777777
    001124  aa   143141 154154     616  	oct	143141154154
    001125  aa   000005 444006     617  	oct	000005444006
    001126  aa   000004 000000     618  	oct	000004000000
    001127  aa   136000 000000     619  	oct	136000000000
    001130  aa   143157 144145     620  	oct	143157144145
    001131  aa   001002 000002     621  	oct	001002000002
    001132  aa   402004 000000     622  	oct	402004000000
    001133  aa   000000 000000     623  	oct	000000000000
    001134  aa   143157 155160     624  	oct	143157155160
    001135  aa   000152 000202     625  	oct	000152000202
    001136  aa   001004 000000     626  	oct	001004000000
    001137  aa   640000 000000     627  	oct	640000000000
    001140  aa   143157 160171     628  	oct	143157160171
    001141  aa   001012 000002     629  	oct	001012000002
    001142  aa   000014 000006     630  	oct	000014000006
    001143  aa   740000 000000     631  	oct	740000000000
    001144  aa   143157 162162     632  	oct	143157162162
    001145  aa   001014 000012     633  	oct	001014000012
    001146  aa   000104 024000     634  	oct	000104024000
    001147  aa   140000 000000     635  	oct	140000000000
    001150  aa   777777 777777     636  	oct	777777777777
    001151  aa   144141 164141     637  	oct	144141164141
    001152  aa   000304 000403     638  	oct	000304000403
    001153  aa   006424 000200     639  	oct	006424000200
    001154  aa   740000 000000     640  	oct	740000000000
    001155  aa   144141 164145     641  	oct	144141164145
    001156  aa   000126 000002     642  	oct	000126000002
    001157  aa   000004 000000     643  	oct	000004000000
    001160  aa   340000 000000     644  	oct	340000000000
    001161  aa   144157 167156     645  	oct	144157167156
    001162  aa   000137 000002     646  	oct	000137000002
    001163  aa   000004 000000     647  	oct	000004000000
    001164  aa   160000 000000     648  	oct	160000000000
    001165  aa   777777 777777     649  	oct	777777777777
    001166  aa   145154 163145     650  	oct	145154163145
    001167  aa   000140 000002     651  	oct	000140000002
    001170  aa   000004 000000     652  	oct	000004000000
    001171  aa   100000 000000     653  	oct	100000000000
    001172  aa   145170 151164     654  	oct	145170151164
    001173  aa   000014 444002     655  	oct	000014444002
    001174  aa   000004 000000     656  	oct	000004000000
    001175  aa   140000 000000     657  	oct	140000000000
    001176  aa   777777 777777     658  	oct	777777777777
    001177  aa   146151 154145     659  	oct	146151154145
    001200  aa   000154 002002     660  	oct	000154002002
    001201  aa   000404 000000     661  	oct	000404000000
    001202  aa   700000 000000     662  	oct	700000000000
    001203  aa   146151 156144     663  	oct	146151156144
    001204  aa   000417 000000     664  	oct	000417000000
    001205  aa   000004 000000     665  	oct	000004000000
    001206  aa   000000 000000     666  	oct	000000000000
    001207  aa   146162 157155     667  	oct	146162157155
    001210  aa   000157 000024     668  	oct	000157000024
    001211  aa   000004 000000     669  	oct	000004000000
    001212  aa   100000 000000     670  	oct	100000000000
    001213  aa   777777 777777     671  	oct	777777777777
    001214  aa   150157 154144     672  	oct	150157154144
    001215  aa   000056 444004     673  	oct	000056444004
    001216  aa   000004 000001     674  	oct	000004000001
    001217  aa   100000 000000     675  	oct	100000000000
    001220  aa   777777 777777     676  	oct	777777777777
    001221  aa   151156 164157     677  	oct	151156164157
    001222  aa   000164 000002     678  	oct	000164000002
    001223  aa   000004 000000     679  	oct	000004000000
    001224  aa   140000 000000     680  	oct	140000000000
    001225  aa   777777 777777     681  	oct	777777777777
    001226  aa   152165 163164     682  	oct	152165163164
    001227  aa   000340 000202     683  	oct	000340000202
    001230  aa   022004 000000     684  	oct	022004000000
    001231  aa   240000 000000     685  	oct	240000000000
    001232  aa   777777 777777     686  	oct	777777777777
    001233  aa   154141 163164     687  	oct	154141163164
    001234  aa   001054 000002     688  	oct	001054000002
    001235  aa   202004 000000     689  	oct	202004000000
    001236  aa   040000 000000     690  	oct	040000000000
    001237  aa   154145 146164     691  	oct	154145146164
    001240  aa   000341 000002     692  	oct	000341000002
    001241  aa   000004 000000     693  	oct	000004000000
    001242  aa   240000 000000     694  	oct	240000000000
    001243  aa   154145 163163     695  	oct	154145163163
    001244  aa   000173 010002     696  	oct	000173010002
    001245  aa   000004 000000     697  	oct	000004000000
    001246  aa   140000 000000     698  	oct	140000000000
    001247  aa   154151 156145     699  	oct	154151156145
    001250  aa   000174 000002     700  	oct	000174000002
    001251  aa   123004 000000     701  	oct	123004000000
    001252  aa   340000 000000     702  	oct	340000000000
    001253  aa   154157 143153     703  	oct	154157143153
    001254  aa   000175 000002     704  	oct	000175000002
    001255  aa   000004 000000     705  	oct	000004000000
    001256  aa   140000 000000     706  	oct	140000000000
    001257  aa   777777 777777     707  	oct	777777777777
    001260  aa   155157 144145     708  	oct	155157144145
    001261  aa   000346 000002     709  	oct	000346000002
    001262  aa   000004 000000     710  	oct	000004000000
    001263  aa   640000 000000     711  	oct	640000000000
    001264  aa   155157 166145     712  	oct	155157166145
    001265  aa   000022 444006     713  	oct	000022444006
    001266  aa   000044 000240     714  	oct	000044000240
    001267  aa   140000 000000     715  	oct	140000000000
    001270  aa   777777 777777     716  	oct	777777777777
    001271  aa   156145 170164     717  	oct	156145170164
    001272  aa   000200 000002     718  	oct	000200000002
    001273  aa   102004 000000     719  	oct	102004000000
    001274  aa   140000 000000     720  	oct	140000000000
    001275  aa   156165 154154     721  	oct	156165154154
    001276  aa   000666 000000     722  	oct	000666000000
    001277  aa   000004 000000     723  	oct	000004000000
    001300  aa   002000 000000     724  	oct	002000000000
    001301  aa   777777 777777     725  	oct	777777777777
    001302  aa   157156 154171     726  	oct	157156154171
    001303  aa   000670 000000     727  	oct	000670000000
    001304  aa   000004 000000     728  	oct	000004000000
    001305  aa   000000 000000     729  	oct	000000000000
    001306  aa   157160 145156     730  	oct	157160145156
    001307  aa   000023 444006     731  	oct	000023444006
    001310  aa   000004 000000     732  	oct	000004000000
    001311  aa   140000 000000     733  	oct	140000000000
    001312  aa   777777 777777     734  	oct	777777777777
    001313  aa   160141 147145     735  	oct	160141147145
    001314  aa   000213 000002     736  	oct	000213000002
    001315  aa   441004 000000     737  	oct	441004000000
    001316  aa   100000 000000     738  	oct	100000000000
    001317  aa   160141 164150     739  	oct	160141164150
    001320  aa   000675 000000     740  	oct	000675000000
    001321  aa   000004 000000     741  	oct	000004000000
    001322  aa   000000 000000     742  	oct	000000000000
    001323  aa   160154 165163     743  	oct	160154165163
    001324  aa   001105 000002     744  	oct	001105000002
    001325  aa   000004 000000     745  	oct	000004000000
    001326  aa   000000 000000     746  	oct	000000000000
    001327  aa   777777 777777     747  	oct	777777777777
    001330  aa   162145 141144     748  	oct	162145141144
    001331  aa   000025 444006     749  	oct	000025444006
    001332  aa   000004 000000     750  	oct	000004000000
    001333  aa   140000 000000     751  	oct	140000000000
    001334  aa   162145 145154     752  	oct	162145145154
    001335  aa   000225 000002     753  	oct	000225000002
    001336  aa   000004 000000     754  	oct	000004000000
    001337  aa   500000 000000     755  	oct	500000000000
    001340  aa   777777 777777     756  	oct	777777777777
    001341  aa   163141 155145     757  	oct	163141155145
    001342  aa   001121 000003     758  	oct	001121000003
    001343  aa   000004 000000     759  	oct	000004000000
    001344  aa   440000 000000     760  	oct	440000000000
    001345  aa   163145 156144     761  	oct	163145156144
    001346  aa   000036 444006     762  	oct	000036444006
    001347  aa   000004 000000     763  	oct	000004000000
    001350  aa   100000 000000     764  	oct	100000000000
    001351  aa   163145 164163     765  	oct	163145164163
    001352  aa   000437 000000     766  	oct	000437000000
    001353  aa   000004 000000     767  	oct	000004000000
    001354  aa   000000 000000     768  	oct	000000000000
    001355  aa   163151 147156     769  	oct	163151147156
    001356  aa   000365 000202     770  	oct	000365000202
    001357  aa   007004 000000     771  	oct	007004000000
    001360  aa   600000 000000     772  	oct	600000000000
    001361  aa   163151 172145     773  	oct	163151172145
    001362  aa   000241 000002     774  	oct	000241000002
    001363  aa   000004 000000     775  	oct	000004000000
    001364  aa   500000 000000     776  	oct	500000000000
    001365  aa   163157 162164     777  	oct	163157162164
    001366  aa   000061 444006     778  	oct	000061444006
    001367  aa   000014 120010     779  	oct	000014120010
    001370  aa   500000 000000     780  	oct	500000000000
    001371  aa   163164 157160     781  	oct	163164157160
    001372  aa   000041 444006     782  	oct	000041444006
    001373  aa   000004 000000     783  	oct	000004000000
    001374  aa   100000 000000     784  	oct	100000000000
    001375  aa   163171 156143     785  	oct	163171156143
    001376  aa   000374 000202     786  	oct	000374000202
    001377  aa   006004 000000     787  	oct	006004000000
    001400  aa   200000 000000     788  	oct	200000000000
    001401  aa   777777 777777     789  	oct	777777777777
    001402  aa   164141 160145     790  	oct	164141160145
    001403  aa   001136 000002     791  	oct	001136000002
    001404  aa   000004 000000     792  	oct	000004000000
    001405  aa   460000 000000     793  	oct	460000000000
    001406  aa   164145 170164     794  	oct	164145170164
    001407  aa   001137 000142     795  	oct	001137000142
    001410  aa   002004 000000     796  	oct	002004000000
    001411  aa   200000 000000     797  	oct	200000000000
    001412  aa   164150 141156     798  	oct	164150141156
    001413  aa   000245 000002     799  	oct	000245000002
    001414  aa   000004 000000     800  	oct	000004000000
    001415  aa   100000 000000     801  	oct	100000000000
    001416  aa   164150 145156     802  	oct	164150145156
    001417  aa   000454 000000     803  	oct	000454000000
    001420  aa   000004 000000     804  	oct	000004000000
    001421  aa   100000 000000     805  	oct	100000000000
    001422  aa   164150 162165     806  	oct	164150162165
    001423  aa   000246 000002     807  	oct	000246000002
    001424  aa   000004 000000     808  	oct	000004000000
    001425  aa   700000 000000     809  	oct	700000000000
    001426  aa   164151 155145     810  	oct	164151155145
    001427  aa   000250 000002     811  	oct	000250000002
    001430  aa   000004 000000     812  	oct	000004000000
    001431  aa   346000 000000     813  	oct	346000000000
    001432  aa   164171 160145     814  	oct	164171160145
    001433  aa   001140 000002     815  	oct	001140000002
    001434  aa   100004 000000     816  	oct	100004000000
    001435  aa   060000 000000     817  	oct	060000000000
    001436  aa   777777 777777     818  	oct	777777777777
    001437  aa   165156 151164     819  	oct	165156151164
    001440  aa   000254 000002     820  	oct	000254000002
    001441  aa   000004 000000     821  	oct	000004000000
    001442  aa   560000 000000     822  	oct	560000000000
    001443  aa   165160 157156     823  	oct	165160157156
    001444  aa   000257 000024     824  	oct	000257000024
    001445  aa   000004 000000     825  	oct	000004000000
    001446  aa   100000 000000     826  	oct	100000000000
    001447  aa   777777 777777     827  	oct	777777777777
    001450  aa   167150 145156     828  	oct	167150145156
    001451  aa   000262 000006     829  	oct	000262000006
    001452  aa   000004 000000     830  	oct	000004000000
    001453  aa   360000 000000     831  	oct	360000000000
    001454  aa   167151 164150     832  	oct	167151164150
    001455  aa   000263 000002     833  	oct	000263000002
    001456  aa   000004 000000     834  	oct	000004000000
    001457  aa   700000 000000     835  	oct	700000000000
    001460  aa   777777 777777     836  	oct	777777777777
    001461  aa   172145 162157     837  	oct	172145162157
    001462  aa   000264 100002     838  	oct	000264100002
    001463  aa   001004 000000     839  	oct	001004000000
    001464  aa   746000 000000     840  	oct	746000000000
    001465  aa   777777 777777     841  	oct	777777777777
    001466  aa   000000 000000     842  	oct	000000000000
    001467  aa   000000 000000     843  	oct	000000000000
    001470  aa   000000 000000     844  	oct	000000000000
    001471  aa   000000 000000     845  	oct	000000000000
    001472  aa   000000 000000     846  	oct	000000000000
    001473  aa   000000 000000     847  	oct	000000000000
    001474  aa   000000 000000     848  	oct	000000000000
    001475  aa   000000 000000     849  	oct	000000000000
    001476  aa   000000 000000     850  	oct	000000000000
    001477  aa   000000 000000     851  	oct	000000000000
    001500  aa   000000 000000     852  	oct	000000000000
    001501  aa   000000 000000     853  	oct	000000000000
    001502  aa   000000 000000     854  	oct	000000000000
    001503  aa   000000 000000     855  	oct	000000000000
    001504  aa   000000 000000     856  	oct	000000000000
    001505  aa   000000 000000     857  	oct	000000000000
    001506  aa   000000 000000     858  	oct	000000000000
    001507  aa   000000 000000     859  	oct	000000000000
    001510  aa   000000 000000     860  	oct	000000000000
    001511  aa   000000 000000     861  	oct	000000000000
    001512  aa   000000 000000     862  	oct	000000000000
    001513  aa   000000 000000     863  	oct	000000000000
    001514  aa   000000 000000     864  	oct	000000000000
    001515  aa   000000 000000     865  	oct	000000000000
    001516  aa   000000 000000     866  	oct	000000000000
    001517  aa   000000 000000     867  	oct	000000000000
    001520  aa   000000 000000     868  	oct	000000000000
    001521  aa   000000 000000     869  	oct	000000000000
    001522  aa   000000 000000     870  	oct	000000000000
    001523  aa   000000 000000     871  	oct	000000000000
    001524  aa   000000 000000     872  	oct	000000000000
    001525  aa   000000 000000     873  	oct	000000000000
    001526  aa   000000 000000     874  	oct	000000000000
    001527  aa   000000 000000     875  	oct	000000000000
    001530  aa   000000 000000     876  	oct	000000000000
    001531  aa   000000 000000     877  	oct	000000000000
    001532  aa   000000 000000     878  	oct	000000000000
    001533  aa   000000 000000     879  	oct	000000000000
    001534  aa   000000 000000     880  	oct	000000000000
    001535  aa   000000 000000     881  	oct	000000000000
    001536  aa   000000 000000     882  	oct	000000000000
    001537  aa   000000 000000     883  	oct	000000000000
    001540  aa   000000 000000     884  	oct	000000000000
    001541  aa   000000 000000     885  	oct	000000000000
    001542  aa   000000 000000     886  	oct	000000000000
    001543  aa   000000 000000     887  	oct	000000000000
    001544  aa   000000 000000     888  	oct	000000000000
    001545  aa   000000 000000     889  	oct	000000000000
    001546  aa   000000 000000     890  	oct	000000000000
    001547  aa   000000 001601     891  	oct	000000001601
    001550  aa   000000 001626     892  	oct	000000001626
    001551  aa   000000 001641     893  	oct	000000001641
    001552  aa   000000 000000     894  	oct	000000000000
    001553  aa   000000 001700     895  	oct	000000001700
    001554  aa   000000 001737     896  	oct	000000001737
    001555  aa   000000 001764     897  	oct	000000001764
    001556  aa   000000 000000     898  	oct	000000000000
    001557  aa   000000 001772     899  	oct	000000001772
    001560  aa   000000 000000     900  	oct	000000000000
    001561  aa   000000 002005     901  	oct	000000002005
    001562  aa   000000 002013     902  	oct	000000002013
    001563  aa   000000 002040     903  	oct	000000002040
    001564  aa   000000 000000     904  	oct	000000000000
    001565  aa   000000 002046     905  	oct	000000002046
    001566  aa   000000 002066     906  	oct	000000002066
    001567  aa   000000 002101     907  	oct	000000002101
    001570  aa   000000 002114     908  	oct	000000002114
    001571  aa   000000 002146     909  	oct	000000002146
    001572  aa   000000 002166     910  	oct	000000002166
    001573  aa   000000 002213     911  	oct	000000002213
    001574  aa   000000 002233     912  	oct	000000002233
    001575  aa   000000 002241     913  	oct	000000002241
    001576  aa   000000 000000     914  	oct	000000000000
    001577  aa   000000 000000     915  	oct	000000000000
    001600  aa   000000 002254     916  	oct	000000002254
    001601  aa   141146 164145     917  	oct	141146164145
    001602  aa   162000 000000     918  	oct	162000000000
    001603  aa   000110 000002     919  	oct	000110000002
    001604  aa   000004 000000     920  	oct	000004000000
    001605  aa   102000 000000     921  	oct	102000000000
    001606  aa   141154 164145     922  	oct	141154164145
    001607  aa   162000 000000     923  	oct	162000000000
    001610  aa   000004 444004     924  	oct	000004444004
    001611  aa   000004 040000     925  	oct	000004040000
    001612  aa   132000 000000     926  	oct	132000000000
    001613  aa   141160 160154     927  	oct	141160160154
    001614  aa   171000 000000     928  	oct	171000000000
    001615  aa   000774 000003     929  	oct	000774000003
    001616  aa   000004 000000     930  	oct	000004000000
    001617  aa   400000 000000     931  	oct	400000000000
    001620  aa   141162 145141     932  	oct	141162145141
    001621  aa   163000 000000     933  	oct	163000000000
    001622  aa   000312 000002     934  	oct	000312000002
    001623  aa   000004 000000     935  	oct	000004000000
    001624  aa   600000 000000     936  	oct	600000000000
    001625  aa   777777 777777     937  	oct	777777777777
    001626  aa   142154 141156     938  	oct	142154141156
    001627  aa   153000 000000     939  	oct	153000000000
    001630  aa   000314 000202     940  	oct	000314000202
    001631  aa   025004 000000     941  	oct	025004000000
    001632  aa   600000 000000     942  	oct	600000000000
    001633  aa   142154 157143     943  	oct	142154157143
    001634  aa   153000 000000     944  	oct	153000000000
    001635  aa   000315 000402     945  	oct	000315000402
    001636  aa   001004 000000     946  	oct	001004000000
    001637  aa   600000 000000     947  	oct	600000000000
    001640  aa   777777 777777     948  	oct	777777777777
    001641  aa   143150 145143     949  	oct	143150145143
    001642  aa   153000 000000     950  	oct	153000000000
    001643  aa   000703 000000     951  	oct	000703000000
    001644  aa   000004 000000     952  	oct	000004000000
    001645  aa   000000 000000     953  	oct	000000000000
    001646  aa   143154 157163     954  	oct	143154157163
    001647  aa   145000 000000     955  	oct	145000000000
    001650  aa   000010 444006     956  	oct	000010444006
    001651  aa   000004 000000     957  	oct	000004000000
    001652  aa   500000 000000     958  	oct	500000000000
    001653  aa   143157 142157     959  	oct	143157142157
    001654  aa   154000 000000     960  	oct	154000000000
    001655  aa   000277 020002     961  	oct	000277020002
    001656  aa   000004 000000     962  	oct	000004000000
    001657  aa   300000 000000     963  	oct	300000000000
    001660  aa   143157 155155     964  	oct	143157155155
    001661  aa   141000 000000     965  	oct	141000000000
    001662  aa   001005 000002     966  	oct	001005000002
    001663  aa   000004 000000     967  	oct	000004000000
    001664  aa   400000 000000     968  	oct	400000000000
    001665  aa   143157 155160     969  	oct	143157155160
    001666  aa   154000 000000     970  	oct	154000000000
    001667  aa   000704 000000     971  	oct	000704000000
    001670  aa   000004 000000     972  	oct	000004000000
    001671  aa   000000 000000     973  	oct	000000000000
    001672  aa   143157 165156     974  	oct	143157165156
    001673  aa   164000 000000     975  	oct	164000000000
    001674  aa   000124 000102     976  	oct	000124000102
    001675  aa   005004 000000     977  	oct	005004000000
    001676  aa   300000 000000     978  	oct	300000000000
    001677  aa   777777 777777     979  	oct	777777777777
    001700  aa   145155 160164     980  	oct	145155160164
    001701  aa   171000 000000     981  	oct	171000000000
    001702  aa   000414 000000     982  	oct	000414000000
    001703  aa   000004 000000     983  	oct	000004000000
    001704  aa   000000 000000     984  	oct	000000000000
    001705  aa   145156 164145     985  	oct	145156164145
    001706  aa   162000 000000     986  	oct	162000000000
    001707  aa   000054 444006     987  	oct	000054444006
    001710  aa   000004 000000     988  	oct	000004000000
    001711  aa   140000 000000     989  	oct	140000000000
    001712  aa   145161 165141     990  	oct	145161165141
    001713  aa   154000 000000     991  	oct	154000000000
    001714  aa   000146 010002     992  	oct	000146010002
    001715  aa   000004 000000     993  	oct	000004000000
    001716  aa   140000 000000     994  	oct	140000000000
    001717  aa   145162 141163     995  	oct	145162141163
    001720  aa   145000 000000     996  	oct	145000000000
    001721  aa   000415 000000     997  	oct	000415000000
    001722  aa   000004 000000     998  	oct	000004000000
    001723  aa   040000 000000     999  	oct	040000000000
    001724  aa   145162 162157    1000  	oct	145162162157
    001725  aa   162000 000000    1001  	oct	162000000000
    001726  aa   000003 000042    1002  	oct	000003000042
    001727  aa   001004 000000    1003  	oct	001004000000
    001730  aa   300000 000000    1004  	oct	300000000000
    001731  aa   145166 145162    1005  	oct	145166145162
    001732  aa   171000 000000    1006  	oct	171000000000
    001733  aa   001036 000002    1007  	oct	001036000002
    001734  aa   000004 000000    1008  	oct	000004000000
    001735  aa   400000 000000    1009  	oct	400000000000
    001736  aa   777777 777777    1010  	oct	777777777777
    001737  aa   146151 154145    1011  	oct	146151154145
    001740  aa   163000 000000    1012  	oct	163000000000
    001741  aa   000427 000000    1013  	oct	000427000000
    001742  aa   000004 000001    1014  	oct	000004000001
    001743  aa   072000 000000    1015  	oct	072000000000
    001744  aa   146151 156141    1016  	oct	146151156141
    001745  aa   154000 000000    1017  	oct	154000000000
    001746  aa   001042 000002    1018  	oct	001042000002
    001747  aa   000004 000000    1019  	oct	000004000000
    001750  aa   000000 000000    1020  	oct	000000000000
    001751  aa   146151 162163    1021  	oct	146151162163
    001752  aa   164000 000000    1022  	oct	164000000000
    001753  aa   000155 000002    1023  	oct	000155000002
    001754  aa   201004 000000    1024  	oct	201004000000
    001755  aa   100000 000000    1025  	oct	100000000000
    001756  aa   146157 162143    1026  	oct	146157162143
    001757  aa   145000 000000    1027  	oct	145000000000
    001760  aa   000641 000000    1028  	oct	000641000000
    001761  aa   000004 000000    1029  	oct	000004000000
    001762  aa   400000 000000    1030  	oct	400000000000
    001763  aa   777777 777777    1031  	oct	777777777777
    001764  aa   147162 157165    1032  	oct	147162157165
    001765  aa   160000 000000    1033  	oct	160000000000
    001766  aa   001045 000002    1034  	oct	001045000002
    001767  aa   026004 000000    1035  	oct	026004000000
    001770  aa   000000 000000    1036  	oct	000000000000
    001771  aa   777777 777777    1037  	oct	777777777777
    001772  aa   151156 144145    1038  	oct	151156144145
    001773  aa   170000 000000    1039  	oct	170000000000
    001774  aa   000336 000202    1040  	oct	000336000202
    001775  aa   001004 000000    1041  	oct	001004000000
    001776  aa   276000 000000    1042  	oct	276000000000
    001777  aa   151156 160165    1043  	oct	151156160165
    002000  aa   164000 000000    1044  	oct	164000000000
    002001  aa   000163 000002    1045  	oct	000163000002
    002002  aa   000004 000000    1046  	oct	000004000000
    002003  aa   300000 000000    1047  	oct	300000000000
    002004  aa   777777 777777    1048  	oct	777777777777
    002005  aa   153145 171145    1049  	oct	153145171145
    002006  aa   144000 000000    1050  	oct	144000000000
    002007  aa   000640 000000    1051  	oct	000640000000
    002010  aa   000004 000000    1052  	oct	000004000000
    002011  aa   040000 000000    1053  	oct	040000000000
    002012  aa   777777 777777    1054  	oct	777777777777
    002013  aa   154141 142145    1055  	oct	154141142145
    002014  aa   154000 000000    1056  	oct	154000000000
    002015  aa   000171 000402    1057  	oct	000171000402
    002016  aa   003004 000000    1058  	oct	003004000000
    002017  aa   340000 000000    1059  	oct	340000000000
    002020  aa   154151 155151    1060  	oct	154151155151
    002021  aa   164000 000000    1061  	oct	164000000000
    002022  aa   001061 000002    1062  	oct	001061000002
    002023  aa   000004 000000    1063  	oct	000004000000
    002024  aa   640000 000000    1064  	oct	640000000000
    002025  aa   154151 156145    1065  	oct	154151156145
    002026  aa   163000 000000    1066  	oct	163000000000
    002027  aa   000174 000002    1067  	oct	000174000002
    002030  aa   123004 000000    1068  	oct	123004000000
    002031  aa   340000 000000    1069  	oct	340000000000
    002032  aa   154157 143153    1070  	oct	154157143153
    002033  aa   163000 000000    1071  	oct	163000000000
    002034  aa   000676 000000    1072  	oct	000676000000
    002035  aa   000004 000000    1073  	oct	000004000000
    002036  aa   040000 000000    1074  	oct	040000000000
    002037  aa   777777 777777    1075  	oct	777777777777
    002040  aa   155145 162147    1076  	oct	155145162147
    002041  aa   145000 000000    1077  	oct	145000000000
    002042  aa   000017 444006    1078  	oct	000017444006
    002043  aa   000014 140010    1079  	oct	000014140010
    002044  aa   140000 000000    1080  	oct	140000000000
    002045  aa   777777 777777    1081  	oct	777777777777
    002046  aa   157162 144145    1082  	oct	157162144145
    002047  aa   162000 000000    1083  	oct	162000000000
    002050  aa   000672 000000    1084  	oct	000672000000
    002051  aa   000004 000000    1085  	oct	000004000000
    002052  aa   000000 000000    1086  	oct	000000000000
    002053  aa   157164 150145    1087  	oct	157164150145
    002054  aa   162000 000000    1088  	oct	162000000000
    002055  aa   000673 000000    1089  	oct	000673000000
    002056  aa   000004 000000    1090  	oct	000004000000
    002057  aa   100000 000000    1091  	oct	100000000000
    002060  aa   157167 156145    1092  	oct	157167156145
    002061  aa   162000 000000    1093  	oct	162000000000
    002062  aa   000674 000000    1094  	oct	000674000000
    002063  aa   000004 000000    1095  	oct	000004000000
    002064  aa   000000 000000    1096  	oct	000000000000
    002065  aa   777777 777777    1097  	oct	777777777777
    002066  aa   160162 151157    1098  	oct	160162151157
    002067  aa   162000 000000    1099  	oct	162000000000
    002070  aa   000421 000000    1100  	oct	000421000000
    002071  aa   000004 000000    1101  	oct	000004000000
    002072  aa   014000 000000    1102  	oct	014000000000
    002073  aa   160165 162147    1103  	oct	160165162147
    002074  aa   145000 000000    1104  	oct	145000000000
    002075  aa   000072 444006    1105  	oct	000072444006
    002076  aa   000004 000000    1106  	oct	000004000000
    002077  aa   100000 000000    1107  	oct	100000000000
    002100  aa   777777 777777    1108  	oct	777777777777
    002101  aa   161165 145165    1109  	oct	161165145165
    002102  aa   145000 000000    1110  	oct	145000000000
    002103  aa   000352 000102    1111  	oct	000352000102
    002104  aa   000004 000000    1112  	oct	000004000000
    002105  aa   600000 000000    1113  	oct	600000000000
    002106  aa   161165 157164    1114  	oct	161165157164
    002107  aa   145000 000000    1115  	oct	145000000000
    002110  aa   000353 100002    1116  	oct	000353100002
    002111  aa   007004 000000    1117  	oct	007004000000
    002112  aa   700000 000000    1118  	oct	700000000000
    002113  aa   777777 777777    1119  	oct	777777777777
    002114  aa   162145 141144    1120  	oct	162145141144
    002115  aa   171000 000000    1121  	oct	171000000000
    002116  aa   000424 000000    1122  	oct	000424000000
    002117  aa   000004 000000    1123  	oct	000004000000
    002120  aa   000000 000000    1124  	oct	000000000000
    002121  aa   162145 141154    1125  	oct	162145141154
    002122  aa   155000 000000    1126  	oct	155000000000
    002123  aa   000425 000000    1127  	oct	000425000000
    002124  aa   000004 000000    1128  	oct	000004000000
    002125  aa   000000 000000    1129  	oct	000000000000
    002126  aa   162145 162165    1130  	oct	162145162165
    002127  aa   156000 000000    1131  	oct	156000000000
    002130  aa   001114 000003    1132  	oct	001114000003
    002131  aa   000004 000000    1133  	oct	000004000000
    002132  aa   456000 000000    1134  	oct	456000000000
    002133  aa   162145 163145    1135  	oct	162145163145
    002134  aa   164000 000000    1136  	oct	164000000000
    002135  aa   001116 000002    1137  	oct	001116000002
    002136  aa   000004 000000    1138  	oct	000004000000
    002137  aa   000000 000000    1139  	oct	000000000000
    002140  aa   162151 147150    1140  	oct	162151147150
    002141  aa   164000 000000    1141  	oct	164000000000
    002142  aa   000361 000002    1142  	oct	000361000002
    002143  aa   000004 000000    1143  	oct	000004000000
    002144  aa   240000 000000    1144  	oct	240000000000
    002145  aa   777777 777777    1145  	oct	777777777777
    002146  aa   163160 141143    1146  	oct	163160141143
    002147  aa   145000 000000    1147  	oct	145000000000
    002150  aa   000300 100002    1148  	oct	000300100002
    002151  aa   002004 000000    1149  	oct	002004000000
    002152  aa   700000 000000    1150  	oct	700000000000
    002153  aa   163164 141162    1151  	oct	163164141162
    002154  aa   164000 000000    1152  	oct	164000000000
    002155  aa   000070 444006    1153  	oct	000070444006
    002156  aa   000004 000000    1154  	oct	000004000000
    002157  aa   100000 000000    1155  	oct	100000000000
    002160  aa   163164 157162    1156  	oct	163164157162
    002161  aa   145000 000000    1157  	oct	145000000000
    002162  aa   000450 000000    1158  	oct	000450000000
    002163  aa   000004 000000    1159  	oct	000004000000
    002164  aa   000000 000000    1160  	oct	000000000000
    002165  aa   777777 777777    1161  	oct	777777777777
    002166  aa   164141 142154    1162  	oct	164141142154
    002167  aa   145000 000000    1163  	oct	145000000000
    002170  aa   000375 000002    1164  	oct	000375000002
    002171  aa   000004 000000    1165  	oct	000004000000
    002172  aa   260000 000000    1166  	oct	260000000000
    002173  aa   164141 154154    1167  	oct	164141154154
    002174  aa   171000 000000    1168  	oct	171000000000
    002175  aa   000301 000016    1169  	oct	000301000016
    002176  aa   000004 000001    1170  	oct	000004000001
    002177  aa   060000 000000    1171  	oct	060000000000
    002200  aa   164151 155145    1172  	oct	164151155145
    002201  aa   163000 000000    1173  	oct	163000000000
    002202  aa   000250 000002    1174  	oct	000250000002
    002203  aa   000004 000000    1175  	oct	000004000000
    002204  aa   360000 000000    1176  	oct	360000000000
    002205  aa   164151 164154    1177  	oct	164151164154
    002206  aa   145000 000000    1178  	oct	145000000000
    002207  aa   000455 000000    1179  	oct	000455000000
    002210  aa   000004 000000    1180  	oct	000004000000
    002211  aa   060000 000000    1181  	oct	060000000000
    002212  aa   777777 777777    1182  	oct	777777777777
    002213  aa   165156 164151    1183  	oct	165156164151
    002214  aa   154000 000000    1184  	oct	154000000000
    002215  aa   000255 000006    1185  	oct	000255000006
    002216  aa   000004 000000    1186  	oct	000004000000
    002217  aa   100000 000000    1187  	oct	100000000000
    002220  aa   165163 141147    1188  	oct	165163141147
    002221  aa   145000 000000    1189  	oct	145000000000
    002222  aa   000401 000202    1190  	oct	000401000202
    002223  aa   121004 000000    1191  	oct	121004000000
    002224  aa   200000 000000    1192  	oct	200000000000
    002225  aa   165163 151156    1193  	oct	165163151156
    002226  aa   147000 000000    1194  	oct	147000000000
    002227  aa   000260 000002    1195  	oct	000260000002
    002230  aa   000004 000000    1196  	oct	000004000000
    002231  aa   160000 000000    1197  	oct	160000000000
    002232  aa   777777 777777    1198  	oct	777777777777
    002233  aa   166141 154165    1199  	oct	166141154165
    002234  aa   145000 000000    1200  	oct	145000000000
    002235  aa   000402 000602    1201  	oct	000402000602
    002236  aa   024004 000000    1202  	oct	024004000000
    002237  aa   260000 000000    1203  	oct	260000000000
    002240  aa   777777 777777    1204  	oct	777777777777
    002241  aa   167157 162144    1205  	oct	167157162144
    002242  aa   163000 000000    1206  	oct	163000000000
    002243  aa   001141 000002    1207  	oct	001141000002
    002244  aa   000004 000000    1208  	oct	000004000000
    002245  aa   400000 000000    1209  	oct	400000000000
    002246  aa   167162 151164    1210  	oct	167162151164
    002247  aa   145000 000000    1211  	oct	145000000000
    002250  aa   000046 444006    1212  	oct	000046444006
    002251  aa   000004 000000    1213  	oct	000004000000
    002252  aa   100000 000000    1214  	oct	100000000000
    002253  aa   777777 777777    1215  	oct	777777777777
    002254  aa   172145 162157    1216  	oct	172145162157
    002255  aa   163000 000000    1217  	oct	163000000000
    002256  aa   000264 120002    1218  	oct	000264120002
    002257  aa   001004 000000    1219  	oct	001004000000
    002260  aa   760000 000000    1220  	oct	760000000000
    002261  aa   777777 777777    1221  	oct	777777777777
    002262  aa   000000 000000    1222  	oct	000000000000
    002263  aa   000000 000000    1223  	oct	000000000000
    002264  aa   000000 000000    1224  	oct	000000000000
    002265  aa   000000 000000    1225  	oct	000000000000
    002266  aa   000000 000000    1226  	oct	000000000000
    002267  aa   000000 000000    1227  	oct	000000000000
    002270  aa   000000 000000    1228  	oct	000000000000
    002271  aa   000000 000000    1229  	oct	000000000000
    002272  aa   000000 000000    1230  	oct	000000000000
    002273  aa   000000 000000    1231  	oct	000000000000
    002274  aa   000000 000000    1232  	oct	000000000000
    002275  aa   000000 000000    1233  	oct	000000000000
    002276  aa   000000 000000    1234  	oct	000000000000
    002277  aa   000000 000000    1235  	oct	000000000000
    002300  aa   000000 000000    1236  	oct	000000000000
    002301  aa   000000 000000    1237  	oct	000000000000
    002302  aa   000000 000000    1238  	oct	000000000000
    002303  aa   000000 000000    1239  	oct	000000000000
    002304  aa   000000 000000    1240  	oct	000000000000
    002305  aa   000000 000000    1241  	oct	000000000000
    002306  aa   000000 000000    1242  	oct	000000000000
    002307  aa   000000 000000    1243  	oct	000000000000
    002310  aa   000000 000000    1244  	oct	000000000000
    002311  aa   000000 000000    1245  	oct	000000000000
    002312  aa   000000 000000    1246  	oct	000000000000
    002313  aa   000000 000000    1247  	oct	000000000000
    002314  aa   000000 000000    1248  	oct	000000000000
    002315  aa   000000 000000    1249  	oct	000000000000
    002316  aa   000000 000000    1250  	oct	000000000000
    002317  aa   000000 000000    1251  	oct	000000000000
    002320  aa   000000 000000    1252  	oct	000000000000
    002321  aa   000000 000000    1253  	oct	000000000000
    002322  aa   000000 000000    1254  	oct	000000000000
    002323  aa   000000 000000    1255  	oct	000000000000
    002324  aa   000000 000000    1256  	oct	000000000000
    002325  aa   000000 000000    1257  	oct	000000000000
    002326  aa   000000 000000    1258  	oct	000000000000
    002327  aa   000000 000000    1259  	oct	000000000000
    002330  aa   000000 000000    1260  	oct	000000000000
    002331  aa   000000 000000    1261  	oct	000000000000
    002332  aa   000000 000000    1262  	oct	000000000000
    002333  aa   000000 000000    1263  	oct	000000000000
    002334  aa   000000 000000    1264  	oct	000000000000
    002335  aa   000000 000000    1265  	oct	000000000000
    002336  aa   000000 000000    1266  	oct	000000000000
    002337  aa   000000 000000    1267  	oct	000000000000
    002340  aa   000000 000000    1268  	oct	000000000000
    002341  aa   000000 000000    1269  	oct	000000000000
    002342  aa   000000 000000    1270  	oct	000000000000
    002343  aa   000000 002375    1271  	oct	000000002375
    002344  aa   000000 002427    1272  	oct	000000002427
    002345  aa   000000 002442    1273  	oct	000000002442
    002346  aa   000000 002532    1274  	oct	000000002532
    002347  aa   000000 002571    1275  	oct	000000002571
    002350  aa   000000 002623    1276  	oct	000000002623
    002351  aa   000000 002643    1277  	oct	000000002643
    002352  aa   000000 000000    1278  	oct	000000000000
    002353  aa   000000 002651    1279  	oct	000000002651
    002354  aa   000000 000000    1280  	oct	000000000000
    002355  aa   000000 000000    1281  	oct	000000000000
    002356  aa   000000 002657    1282  	oct	000000002657
    002357  aa   000000 002677    1283  	oct	000000002677
    002360  aa   000000 002717    1284  	oct	000000002717
    002361  aa   000000 002732    1285  	oct	000000002732
    002362  aa   000000 002752    1286  	oct	000000002752
    002363  aa   000000 002760    1287  	oct	000000002760
    002364  aa   000000 002766    1288  	oct	000000002766
    002365  aa   000000 003032    1289  	oct	000000003032
    002366  aa   000000 003110    1290  	oct	000000003110
    002367  aa   000000 003116    1291  	oct	000000003116
    002370  aa   000000 003124    1292  	oct	000000003124
    002371  aa   000000 003132    1293  	oct	000000003132
    002372  aa   000000 000000    1294  	oct	000000000000
    002373  aa   000000 000000    1295  	oct	000000000000
    002374  aa   000000 003140    1296  	oct	000000003140
    002375  aa   141143 143145    1297  	oct	141143143145
    002376  aa   160164 000000    1298  	oct	160164000000
    002377  aa   000001 444006    1299  	oct	000001444006
    002400  aa   000004 000000    1300  	oct	000004000000
    002401  aa   576000 000000    1301  	oct	576000000000
    002402  aa   141143 143145    1302  	oct	141143143145
    002403  aa   163163 000000    1303  	oct	163163000000
    002404  aa   000765 000002    1304  	oct	000765000002
    002405  aa   000004 000000    1305  	oct	000004000000
    002406  aa   440000 000000    1306  	oct	440000000000
    002407  aa   141163 163151    1307  	oct	141163163151
    002410  aa   147156 000000    1308  	oct	147156000000
    002411  aa   000775 000003    1309  	oct	000775000003
    002412  aa   000014 000012    1310  	oct	000014000012
    002413  aa   400000 000000    1311  	oct	400000000000
    002414  aa   141164 164141    1312  	oct	141164164141
    002415  aa   143150 000000    1313  	oct	143150000000
    002416  aa   000623 000000    1314  	oct	000623000000
    002417  aa   000004 000000    1315  	oct	000004000000
    002420  aa   440000 000000    1316  	oct	440000000000
    002421  aa   141165 164150    1317  	oct	141165164150
    002422  aa   157162 000000    1318  	oct	157162000000
    002423  aa   000776 000002    1319  	oct	000776000002
    002424  aa   000014 000030    1320  	oct	000014000030
    002425  aa   400000 000000    1321  	oct	400000000000
    002426  aa   777777 777777    1322  	oct	777777777777
    002427  aa   142145 146157    1323  	oct	142145146157
    002430  aa   162145 000000    1324  	oct	162145000000
    002431  aa   000120 000002    1325  	oct	000120000002
    002432  aa   000004 000000    1326  	oct	000004000000
    002433  aa   100000 000000    1327  	oct	100000000000
    002434  aa   142157 164164    1328  	oct	142157164164
    002435  aa   157155 000000    1329  	oct	157155000000
    002436  aa   000354 000002    1330  	oct	000354000002
    002437  aa   000004 000000    1331  	oct	000004000000
    002440  aa   200000 000000    1332  	oct	200000000000
    002441  aa   777777 777777    1333  	oct	777777777777
    002442  aa   143141 156143    1334  	oct	143141156143
    002443  aa   145154 000000    1335  	oct	145154000000
    002444  aa   000007 444006    1336  	oct	000007444006
    002445  aa   000004 000000    1337  	oct	000004000000
    002446  aa   100000 000000    1338  	oct	100000000000
    002447  aa   143157 154165    1339  	oct	143157154165
    002450  aa   155156 000000    1340  	oct	155156000000
    002451  aa   001004 000002    1341  	oct	001004000002
    002452  aa   027004 000000    1342  	oct	027004000000
    002453  aa   000000 000000    1343  	oct	000000000000
    002454  aa   143157 155160    1344  	oct	143157155160
    002455  aa   055061 000000    1345  	oct	055061000000
    002456  aa   000324 000202    1346  	oct	000324000202
    002457  aa   001004 000001    1347  	oct	001004000001
    002460  aa   646000 000000    1348  	oct	646000000000
    002461  aa   143157 155160    1349  	oct	143157155160
    002462  aa   055062 000000    1350  	oct	055062000000
    002463  aa   000325 000202    1351  	oct	000325000202
    002464  aa   001004 000001    1352  	oct	001004000001
    002465  aa   600000 000000    1353  	oct	600000000000
    002466  aa   143157 155160    1354  	oct	143157155160
    002467  aa   055063 000000    1355  	oct	055063000000
    002470  aa   000323 000202    1356  	oct	000323000202
    002471  aa   001004 000001    1357  	oct	001004000001
    002472  aa   600000 000000    1358  	oct	600000000000
    002473  aa   143157 155160    1359  	oct	143157155160
    002474  aa   055064 000000    1360  	oct	055064000000
    002475  aa   000321 000202    1361  	oct	000321000202
    002476  aa   001004 000001    1362  	oct	001004000001
    002477  aa   654000 000000    1363  	oct	654000000000
    002500  aa   143157 155160    1364  	oct	143157155160
    002501  aa   055065 000000    1365  	oct	055065000000
    002502  aa   000322 000202    1366  	oct	000322000202
    002503  aa   001004 000000    1367  	oct	001004000000
    002504  aa   600000 000000    1368  	oct	600000000000
    002505  aa   143157 155160    1369  	oct	143157155160
    002506  aa   055066 000000    1370  	oct	055066000000
    002507  aa   000444 000202    1371  	oct	000444000202
    002510  aa   001004 000000    1372  	oct	001004000000
    002511  aa   600000 000000    1373  	oct	600000000000
    002512  aa   143157 155160    1374  	oct	143157155160
    002513  aa   055067 000000    1375  	oct	055067000000
    002514  aa   000442 000202    1376  	oct	000442000202
    002515  aa   001004 000000    1377  	oct	001004000000
    002516  aa   600000 000000    1378  	oct	600000000000
    002517  aa   143157 155160    1379  	oct	143157155160
    002520  aa   055070 000000    1380  	oct	055070000000
    002521  aa   001142 000202    1381  	oct	001142000202
    002522  aa   001004 000000    1382  	oct	001004000000
    002523  aa   600000 000000    1383  	oct	600000000000
    002524  aa   143157 160151    1384  	oct	143157160151
    002525  aa   145163 000000    1385  	oct	145163000000
    002526  aa   000707 000000    1386  	oct	000707000000
    002527  aa   000004 000000    1387  	oct	000004000000
    002530  aa   040000 000000    1388  	oct	040000000000
    002531  aa   777777 777777    1389  	oct	777777777777
    002532  aa   144142 055153    1390  	oct	144142055153
    002533  aa   145171 000000    1391  	oct	145171000000
    002534  aa   000331 000000    1392  	oct	000331000000
    002535  aa   000004 000000    1393  	oct	000004000000
    002536  aa   040000 000000    1394  	oct	040000000000
    002537  aa   144145 154145    1395  	oct	144145154145
    002540  aa   164145 000000    1396  	oct	164145000000
    002541  aa   000026 444006    1397  	oct	000026444006
    002542  aa   000004 000000    1398  	oct	000004000000
    002543  aa   100000 000000    1399  	oct	100000000000
    002544  aa   144145 164141    1400  	oct	144145164141
    002545  aa   143150 000000    1401  	oct	143150000000
    002546  aa   000625 000000    1402  	oct	000625000000
    002547  aa   000004 000000    1403  	oct	000004000000
    002550  aa   400000 000000    1404  	oct	400000000000
    002551  aa   144145 164141    1405  	oct	144145164141
    002552  aa   151154 000000    1406  	oct	151154000000
    002553  aa   001033 000002    1407  	oct	001033000002
    002554  aa   043004 000000    1408  	oct	043004000000
    002555  aa   076000 000000    1409  	oct	076000000000
    002556  aa   144145 166151    1410  	oct	144145166151
    002557  aa   143145 000000    1411  	oct	143145000000
    002560  aa   000626 000000    1412  	oct	000626000000
    002561  aa   000004 000000    1413  	oct	000004000000
    002562  aa   440000 000000    1414  	oct	440000000000
    002563  aa   144151 166151    1415  	oct	144151166151
    002564  aa   144145 000000    1416  	oct	144145000000
    002565  aa   000011 444006    1417  	oct	000011444006
    002566  aa   000004 000000    1418  	oct	000004000000
    002567  aa   110000 000000    1419  	oct	110000000000
    002570  aa   777777 777777    1420  	oct	777777777777
    002571  aa   145156 141142    1421  	oct	145156141142
    002572  aa   154145 000000    1422  	oct	154145000000
    002573  aa   000053 444006    1423  	oct	000053444006
    002574  aa   000004 000000    1424  	oct	000004000000
    002575  aa   100000 000000    1425  	oct	100000000000
    002576  aa   145156 144055    1426  	oct	145156144055
    002577  aa   151146 000000    1427  	oct	151146000000
    002600  aa   000730 000000    1428  	oct	000730000000
    002601  aa   000004 000000    1429  	oct	000004000000
    002602  aa   104000 000000    1430  	oct	104000000000
    002603  aa   145156 144151    1431  	oct	145156144151
    002604  aa   156147 000000    1432  	oct	156147000000
    002605  aa   000143 000002    1433  	oct	000143000002
    002606  aa   000004 000001    1434  	oct	000004000001
    002607  aa   140000 000000    1435  	oct	140000000000
    002610  aa   145161 165141    1436  	oct	145161165141
    002611  aa   154163 000000    1437  	oct	154163000000
    002612  aa   000146 000002    1438  	oct	000146000002
    002613  aa   000004 000000    1439  	oct	000004000000
    002614  aa   144000 000000    1440  	oct	144000000000
    002615  aa   145170 164145    1441  	oct	145170164145
    002616  aa   156144 000000    1442  	oct	156144000000
    002617  aa   000330 000002    1443  	oct	000330000002
    002620  aa   000004 000000    1444  	oct	000004000000
    002621  aa   100000 000000    1445  	oct	100000000000
    002622  aa   777777 777777    1446  	oct	777777777777
    002623  aa   146151 154154    1447  	oct	146151154154
    002624  aa   145162 000000    1448  	oct	145162000000
    002625  aa   000334 000002    1449  	oct	000334000002
    002626  aa   000004 000000    1450  	oct	000004000000
    002627  aa   250000 000000    1451  	oct	250000000000
    002630  aa   146151 156151    1452  	oct	146151156151
    002631  aa   163150 000000    1453  	oct	163150000000
    002632  aa   000677 000000    1454  	oct	000677000000
    002633  aa   000004 000000    1455  	oct	000004000000
    002634  aa   000000 000000    1456  	oct	000000000000
    002635  aa   146157 162155    1457  	oct	146157162155
    002636  aa   141164 000000    1458  	oct	141164000000
    002637  aa   000624 000000    1459  	oct	000624000000
    002640  aa   000004 000000    1460  	oct	000004000000
    002641  aa   000000 000000    1461  	oct	000000000000
    002642  aa   777777 777777    1462  	oct	777777777777
    002643  aa   147151 166151    1463  	oct	147151166151
    002644  aa   156147 000000    1464  	oct	156147000000
    002645  aa   000160 000002    1465  	oct	000160000002
    002646  aa   000004 000000    1466  	oct	000004000000
    002647  aa   100000 000000    1467  	oct	100000000000
    002650  aa   777777 777777    1468  	oct	777777777777
    002651  aa   151156 163151    1469  	oct	151156163151
    002652  aa   144145 000000    1470  	oct	144145000000
    002653  aa   000653 000000    1471  	oct	000653000000
    002654  aa   000004 000000    1472  	oct	000004000000
    002655  aa   040000 000000    1473  	oct	040000000000
    002656  aa   777777 777777    1474  	oct	777777777777
    002657  aa   154145 156147    1475  	oct	154145156147
    002660  aa   164150 000000    1476  	oct	164150000000
    002661  aa   000342 000002    1477  	oct	000342000002
    002662  aa   000004 000000    1478  	oct	000004000000
    002663  aa   240000 000000    1479  	oct	240000000000
    002664  aa   154151 155151    1480  	oct	154151155151
    002665  aa   164163 000000    1481  	oct	164163000000
    002666  aa   001062 000002    1482  	oct	001062000002
    002667  aa   000004 000000    1483  	oct	000004000000
    002670  aa   600000 000000    1484  	oct	600000000000
    002671  aa   154151 156141    1485  	oct	154151156141
    002672  aa   147145 000000    1486  	oct	147145000000
    002673  aa   001063 000402    1487  	oct	001063000402
    002674  aa   007004 000000    1488  	oct	007004000000
    002675  aa   240000 000000    1489  	oct	240000000000
    002676  aa   777777 777777    1490  	oct	777777777777
    002677  aa   155145 155142    1491  	oct	155145155142
    002700  aa   145162 000000    1492  	oct	145162000000
    002701  aa   000661 000000    1493  	oct	000661000000
    002702  aa   000004 000000    1494  	oct	000004000000
    002703  aa   040000 000000    1495  	oct	040000000000
    002704  aa   155145 155157    1496  	oct	155145155157
    002705  aa   162171 000000    1497  	oct	162171000000
    002706  aa   001070 000002    1498  	oct	001070000002
    002707  aa   000004 000000    1499  	oct	000004000000
    002710  aa   440000 000000    1500  	oct	440000000000
    002711  aa   155157 144151    1501  	oct	155157144151
    002712  aa   146171 000000    1502  	oct	146171000000
    002713  aa   000665 000000    1503  	oct	000665000000
    002714  aa   000004 000000    1504  	oct	000004000000
    002715  aa   040000 000000    1505  	oct	040000000000
    002716  aa   777777 777777    1506  	oct	777777777777
    002717  aa   156141 164151    1507  	oct	156141164151
    002720  aa   166145 000000    1508  	oct	166145000000
    002721  aa   000440 000000    1509  	oct	000440000000
    002722  aa   005004 000000    1510  	oct	005004000000
    002723  aa   440000 000000    1511  	oct	440000000000
    002724  aa   156165 155142    1512  	oct	156165155142
    002725  aa   145162 000000    1513  	oct	145162000000
    002726  aa   001073 000002    1514  	oct	001073000002
    002727  aa   000004 000000    1515  	oct	000004000000
    002730  aa   000000 000000    1516  	oct	000000000000
    002731  aa   777777 777777    1517  	oct	777777777777
    002732  aa   157142 152145    1518  	oct	157142152145
    002733  aa   143164 000000    1519  	oct	143164000000
    002734  aa   000443 000000    1520  	oct	000443000000
    002735  aa   000004 000000    1521  	oct	000004000000
    002736  aa   400000 000000    1522  	oct	400000000000
    002737  aa   157143 143165    1523  	oct	157143143165
    002740  aa   162163 000000    1524  	oct	162163000000
    002741  aa   000347 000202    1525  	oct	000347000202
    002742  aa   003004 000000    1526  	oct	003004000000
    002743  aa   214000 000000    1527  	oct	214000000000
    002744  aa   157165 164160    1528  	oct	157165164160
    002745  aa   165164 000000    1529  	oct	165164000000
    002746  aa   000211 000002    1530  	oct	000211000002
    002747  aa   000004 000000    1531  	oct	000004000000
    002750  aa   300000 000000    1532  	oct	300000000000
    002751  aa   777777 777777    1533  	oct	777777777777
    002752  aa   160162 145146    1534  	oct	160162145146
    002753  aa   151170 000000    1535  	oct	151170000000
    002754  aa   000445 000000    1536  	oct	000445000000
    002755  aa   000004 000000    1537  	oct	000004000000
    002756  aa   076000 000000    1538  	oct	076000000000
    002757  aa   777777 777777    1539  	oct	777777777777
    002760  aa   161165 157164    1540  	oct	161165157164
    002761  aa   145163 000000    1541  	oct	145163000000
    002762  aa   000353 120002    1542  	oct	000353120002
    002763  aa   007004 000000    1543  	oct	007004000000
    002764  aa   700000 000000    1544  	oct	700000000000
    002765  aa   777777 777777    1545  	oct	777777777777
    002766  aa   162141 156144    1546  	oct	162141156144
    002767  aa   157155 000000    1547  	oct	157155000000
    002770  aa   000223 000002    1548  	oct	000223000002
    002771  aa   000004 000000    1549  	oct	000004000000
    002772  aa   500000 000000    1550  	oct	500000000000
    002773  aa   162145 141154    1551  	oct	162145141154
    002774  aa   155163 000000    1552  	oct	155163000000
    002775  aa   000431 000000    1553  	oct	000431000000
    002776  aa   000004 000000    1554  	oct	000004000000
    002777  aa   000000 000000    1555  	oct	000000000000
    003000  aa   162145 143157    1556  	oct	162145143157
    003001  aa   162144 000000    1557  	oct	162144000000
    003002  aa   000224 000402    1558  	oct	000224000402
    003003  aa   002004 000000    1559  	oct	002004000000
    003004  aa   700000 000000    1560  	oct	700000000000
    003005  aa   162145 160157    1561  	oct	162145160157
    003006  aa   162164 000000    1562  	oct	162164000000
    003007  aa   000360 002402    1563  	oct	000360002402
    003010  aa   045414 060036    1564  	oct	045414060036
    003011  aa   200000 000000    1565  	oct	200000000000
    003012  aa   162145 164141    1566  	oct	162145164141
    003013  aa   151156 000000    1567  	oct	151156000000
    003014  aa   000637 000000    1568  	oct	000637000000
    003015  aa   000004 000000    1569  	oct	000004000000
    003016  aa   400000 000000    1570  	oct	400000000000
    003017  aa   162145 164165    1571  	oct	162145164165
    003020  aa   162156 000000    1572  	oct	162156000000
    003021  aa   000031 440006    1573  	oct	000031440006
    003022  aa   000004 000000    1574  	oct	000004000000
    003023  aa   100000 000000    1575  	oct	100000000000
    003024  aa   162145 167151    1576  	oct	162145167151
    003025  aa   156144 000000    1577  	oct	156144000000
    003026  aa   000233 000002    1578  	oct	000233000002
    003027  aa   000004 000000    1579  	oct	000004000000
    003030  aa   176000 000000    1580  	oct	176000000000
    003031  aa   777777 777777    1581  	oct	777777777777
    003032  aa   163143 141154    1582  	oct	163143141154
    003033  aa   141162 000000    1583  	oct	141162000000
    003034  aa   000210 000000    1584  	oct	000210000000
    003035  aa   000004 000000    1585  	oct	000004000000
    003036  aa   400000 000000    1586  	oct	400000000000
    003037  aa   163145 141162    1587  	oct	163145141162
    003040  aa   143150 000000    1588  	oct	143150000000
    003041  aa   000032 440022    1589  	oct	000032440022
    003042  aa   000004 000000    1590  	oct	000004000000
    003043  aa   100000 000000    1591  	oct	100000000000
    003044  aa   163145 154145    1592  	oct	163145154145
    003045  aa   143164 000000    1593  	oct	143164000000
    003046  aa   001124 000003    1594  	oct	001124000003
    003047  aa   000404 000000    1595  	oct	000404000000
    003050  aa   400000 000000    1596  	oct	400000000000
    003051  aa   163157 165162    1597  	oct	163157165162
    003052  aa   143145 000000    1598  	oct	143145000000
    003053  aa   000366 000302    1599  	oct	000366000302
    003054  aa   030004 000000    1600  	oct	030004000000
    003055  aa   200000 000000    1601  	oct	200000000000
    003056  aa   163160 141143    1602  	oct	163160141143
    003057  aa   145163 000000    1603  	oct	145163000000
    003060  aa   000300 120002    1604  	oct	000300120002
    003061  aa   002004 000000    1605  	oct	002004000000
    003062  aa   700000 000000    1606  	oct	700000000000
    003063  aa   163164 141164    1607  	oct	163164141164
    003064  aa   165163 000000    1608  	oct	165163000000
    003065  aa   000367 000142    1609  	oct	000367000142
    003066  aa   004004 000000    1610  	oct	004004000000
    003067  aa   600000 000000    1611  	oct	600000000000
    003070  aa   163164 162145    1612  	oct	163164162145
    003071  aa   141155 000000    1613  	oct	141155000000
    003072  aa   000627 000000    1614  	oct	000627000000
    003073  aa   000004 000000    1615  	oct	000004000000
    003074  aa   446000 000000    1616  	oct	446000000000
    003075  aa   163164 162151    1617  	oct	163164162151
    003076  aa   156147 000000    1618  	oct	156147000000
    003077  aa   000042 444006    1619  	oct	000042444006
    003100  aa   000004 000000    1620  	oct	000004000000
    003101  aa   160000 000000    1621  	oct	160000000000
    003102  aa   163171 163164    1622  	oct	163171163164
    003103  aa   145155 000000    1623  	oct	145155000000
    003104  aa   000452 000000    1624  	oct	000452000000
    003105  aa   000004 000000    1625  	oct	000004000000
    003106  aa   000000 000000    1626  	oct	000000000000
    003107  aa   777777 777777    1627  	oct	777777777777
    003110  aa   164145 156141    1628  	oct	164145156141
    003111  aa   156164 000000    1629  	oct	156164000000
    003112  aa   000453 000000    1630  	oct	000453000000
    003113  aa   000004 000000    1631  	oct	000004000000
    003114  aa   060000 000000    1632  	oct	060000000000
    003115  aa   777777 777777    1633  	oct	777777777777
    003116  aa   165160 144141    1634  	oct	165160144141
    003117  aa   164145 000000    1635  	oct	164145000000
    003120  aa   000460 000000    1636  	oct	000460000000
    003121  aa   000004 000000    1637  	oct	000004000000
    003122  aa   000000 000000    1638  	oct	000000000000
    003123  aa   777777 777777    1639  	oct	777777777777
    003124  aa   166141 154165    1640  	oct	166141154165
    003125  aa   145163 000000    1641  	oct	145163000000
    003126  aa   000402 000002    1642  	oct	000402000002
    003127  aa   000004 000000    1643  	oct	000004000000
    003130  aa   260000 000000    1644  	oct	260000000000
    003131  aa   777777 777777    1645  	oct	777777777777
    003132  aa   167151 164150    1646  	oct	167151164150
    003133  aa   151156 000000    1647  	oct	151156000000
    003134  aa   000465 000000    1648  	oct	000465000000
    003135  aa   000004 000000    1649  	oct	000004000000
    003136  aa   000000 000000    1650  	oct	000000000000
    003137  aa   777777 777777    1651  	oct	777777777777
    003140  aa   172145 162157    1652  	oct	172145162157
    003141  aa   145163 000000    1653  	oct	145163000000
    003142  aa   000264 120002    1654  	oct	000264120002
    003143  aa   001004 000000    1655  	oct	001004000000
    003144  aa   760000 000000    1656  	oct	760000000000
    003145  aa   777777 777777    1657  	oct	777777777777
    003146  aa   000000 000000    1658  	oct	000000000000
    003147  aa   000000 000000    1659  	oct	000000000000
    003150  aa   000000 000000    1660  	oct	000000000000
    003151  aa   000000 000000    1661  	oct	000000000000
    003152  aa   000000 000000    1662  	oct	000000000000
    003153  aa   000000 000000    1663  	oct	000000000000
    003154  aa   000000 000000    1664  	oct	000000000000
    003155  aa   000000 000000    1665  	oct	000000000000
    003156  aa   000000 000000    1666  	oct	000000000000
    003157  aa   000000 000000    1667  	oct	000000000000
    003160  aa   000000 000000    1668  	oct	000000000000
    003161  aa   000000 000000    1669  	oct	000000000000
    003162  aa   000000 000000    1670  	oct	000000000000
    003163  aa   000000 000000    1671  	oct	000000000000
    003164  aa   000000 000000    1672  	oct	000000000000
    003165  aa   000000 000000    1673  	oct	000000000000
    003166  aa   000000 000000    1674  	oct	000000000000
    003167  aa   000000 000000    1675  	oct	000000000000
    003170  aa   000000 000000    1676  	oct	000000000000
    003171  aa   000000 000000    1677  	oct	000000000000
    003172  aa   000000 000000    1678  	oct	000000000000
    003173  aa   000000 000000    1679  	oct	000000000000
    003174  aa   000000 000000    1680  	oct	000000000000
    003175  aa   000000 000000    1681  	oct	000000000000
    003176  aa   000000 000000    1682  	oct	000000000000
    003177  aa   000000 000000    1683  	oct	000000000000
    003200  aa   000000 000000    1684  	oct	000000000000
    003201  aa   000000 000000    1685  	oct	000000000000
    003202  aa   000000 000000    1686  	oct	000000000000
    003203  aa   000000 000000    1687  	oct	000000000000
    003204  aa   000000 000000    1688  	oct	000000000000
    003205  aa   000000 000000    1689  	oct	000000000000
    003206  aa   000000 000000    1690  	oct	000000000000
    003207  aa   000000 000000    1691  	oct	000000000000
    003210  aa   000000 000000    1692  	oct	000000000000
    003211  aa   000000 000000    1693  	oct	000000000000
    003212  aa   000000 000000    1694  	oct	000000000000
    003213  aa   000000 000000    1695  	oct	000000000000
    003214  aa   000000 000000    1696  	oct	000000000000
    003215  aa   000000 000000    1697  	oct	000000000000
    003216  aa   000000 000000    1698  	oct	000000000000
    003217  aa   000000 000000    1699  	oct	000000000000
    003220  aa   000000 000000    1700  	oct	000000000000
    003221  aa   000000 000000    1701  	oct	000000000000
    003222  aa   000000 000000    1702  	oct	000000000000
    003223  aa   000000 000000    1703  	oct	000000000000
    003224  aa   000000 000000    1704  	oct	000000000000
    003225  aa   000000 000000    1705  	oct	000000000000
    003226  aa   000000 000000    1706  	oct	000000000000
    003227  aa   000000 003261    1707  	oct	000000003261
    003230  aa   000000 003267    1708  	oct	000000003267
    003231  aa   000000 003302    1709  	oct	000000003302
    003232  aa   000000 003327    1710  	oct	000000003327
    003233  aa   000000 003361    1711  	oct	000000003361
    003234  aa   000000 003401    1712  	oct	000000003401
    003235  aa   000000 003407    1713  	oct	000000003407
    003236  aa   000000 003415    1714  	oct	000000003415
    003237  aa   000000 003423    1715  	oct	000000003423
    003240  aa   000000 000000    1716  	oct	000000000000
    003241  aa   000000 000000    1717  	oct	000000000000
    003242  aa   000000 003450    1718  	oct	000000003450
    003243  aa   000000 003470    1719  	oct	000000003470
    003244  aa   000000 003515    1720  	oct	000000003515
    003245  aa   000000 003523    1721  	oct	000000003523
    003246  aa   000000 003531    1722  	oct	000000003531
    003247  aa   000000 000000    1723  	oct	000000000000
    003250  aa   000000 003607    1724  	oct	000000003607
    003251  aa   000000 003672    1725  	oct	000000003672
    003252  aa   000000 003724    1726  	oct	000000003724
    003253  aa   000000 003732    1727  	oct	000000003732
    003254  aa   000000 003740    1728  	oct	000000003740
    003255  aa   000000 000000    1729  	oct	000000000000
    003256  aa   000000 000000    1730  	oct	000000000000
    003257  aa   000000 000000    1731  	oct	000000000000
    003260  aa   000000 000000    1732  	oct	000000000000
    003261  aa   141144 144162    1733  	oct	141144144162
    003262  aa   145163 163000    1734  	oct	145163163000
    003263  aa   000767 000002    1735  	oct	000767000002
    003264  aa   000004 000001    1736  	oct	000004000001
    003265  aa   000000 000000    1737  	oct	000000000000
    003266  aa   777777 777777    1738  	oct	777777777777
    003267  aa   142145 143157    1739  	oct	142145143157
    003270  aa   155145 163000    1740  	oct	155145163000
    003271  aa   000721 000000    1741  	oct	000721000000
    003272  aa   000004 000000    1742  	oct	000004000000
    003273  aa   000000 000000    1743  	oct	000000000000
    003274  aa   142157 157154    1744  	oct	142157157154
    003275  aa   145141 156000    1745  	oct	145141156000
    003276  aa   000212 000000    1746  	oct	000212000000
    003277  aa   000004 000001    1747  	oct	000004000001
    003300  aa   000000 000000    1748  	oct	000000000000
    003301  aa   777777 777777    1749  	oct	777777777777
    003302  aa   143157 155160    1750  	oct	143157155160
    003303  aa   165164 145000    1751  	oct	165164145000
    003304  aa   000050 444006    1752  	oct	000050444006
    003305  aa   000004 000000    1753  	oct	000004000000
    003306  aa   140000 000000    1754  	oct	140000000000
    003307  aa   143157 156156    1755  	oct	143157156156
    003310  aa   145143 164000    1756  	oct	145143164000
    003311  aa   000706 000000    1757  	oct	000706000000
    003312  aa   000004 000000    1758  	oct	000004000000
    003313  aa   040000 000000    1759  	oct	040000000000
    003314  aa   143157 156164    1760  	oct	143157156164
    003315  aa   162157 154000    1761  	oct	162157154000
    003316  aa   001010 000002    1762  	oct	001010000002
    003317  aa   440024 300040    1763  	oct	440024300040
    003320  aa   400000 000000    1764  	oct	400000000000
    003321  aa   143165 162162    1765  	oct	143165162162
    003322  aa   145156 164000    1766  	oct	145156164000
    003323  aa   000712 000000    1767  	oct	000712000000
    003324  aa   000004 000000    1768  	oct	000004000000
    003325  aa   000000 000000    1769  	oct	000000000000
    003326  aa   777777 777777    1770  	oct	777777777777
    003327  aa   144145 146141    1771  	oct	144145146141
    003330  aa   165154 164000    1772  	oct	165154164000
    003331  aa   000447 000000    1773  	oct	000447000000
    003332  aa   000004 000000    1774  	oct	000004000000
    003333  aa   400000 000000    1775  	oct	400000000000
    003334  aa   144145 156163    1776  	oct	144145156163
    003335  aa   151164 171000    1777  	oct	151164171000
    003336  aa   000636 000000    1778  	oct	000636000000
    003337  aa   000004 000000    1779  	oct	000004000000
    003340  aa   400000 000000    1780  	oct	400000000000
    003341  aa   144151 163141    1781  	oct	144151163141
    003342  aa   142154 145000    1782  	oct	142154145000
    003343  aa   000051 444006    1783  	oct	000051444006
    003344  aa   000004 000000    1784  	oct	000004000000
    003345  aa   100000 000000    1785  	oct	100000000000
    003346  aa   144151 163160    1786  	oct	144151163160
    003347  aa   154141 171000    1787  	oct	154141171000
    003350  aa   000052 444206    1788  	oct	000052444206
    003351  aa   001004 000000    1789  	oct	001004000000
    003352  aa   700000 000000    1790  	oct	700000000000
    003353  aa   144171 156141    1791  	oct	144171156141
    003354  aa   155151 143000    1792  	oct	155151143000
    003355  aa   000251 000002    1793  	oct	000251000002
    003356  aa   000004 000000    1794  	oct	000004000000
    003357  aa   444000 000000    1795  	oct	444000000000
    003360  aa   777777 777777    1796  	oct	777777777777
    003361  aa   145156 144055    1797  	oct	145156144055
    003362  aa   141144 144000    1798  	oct	141144144000
    003363  aa   000722 000000    1799  	oct	000722000000
    003364  aa   000004 000000    1800  	oct	000004000000
    003365  aa   100000 000000    1801  	oct	100000000000
    003366  aa   145170 141155    1802  	oct	145170141155
    003367  aa   151156 145000    1803  	oct	151156145000
    003370  aa   000062 440006    1804  	oct	000062440006
    003371  aa   000004 200001    1805  	oct	000004200001
    003372  aa   100000 000000    1806  	oct	100000000000
    003373  aa   145170 143145    1807  	oct	145170143145
    003374  aa   145144 163000    1808  	oct	145144163000
    003375  aa   000161 000002    1809  	oct	000161000002
    003376  aa   000004 000000    1810  	oct	000004000000
    003377  aa   100000 000000    1811  	oct	100000000000
    003400  aa   777777 777777    1812  	oct	777777777777
    003401  aa   146157 157164    1813  	oct	146157157164
    003402  aa   151156 147000    1814  	oct	151156147000
    003403  aa   001043 000002    1815  	oct	001043000002
    003404  aa   203004 000000    1816  	oct	203004000000
    003405  aa   200000 000000    1817  	oct	200000000000
    003406  aa   777777 777777    1818  	oct	777777777777
    003407  aa   147162 145141    1819  	oct	147162145141
    003410  aa   164145 162000    1820  	oct	164145162000
    003411  aa   000161 010002    1821  	oct	000161010002
    003412  aa   000004 000000    1822  	oct	000004000000
    003413  aa   100000 000000    1823  	oct	100000000000
    003414  aa   777777 777777    1824  	oct	777777777777
    003415  aa   150145 141144    1825  	oct	150145141144
    003416  aa   151156 147000    1826  	oct	151156147000
    003417  aa   001044 000002    1827  	oct	001044000002
    003420  aa   200004 000000    1828  	oct	200004000000
    003421  aa   000000 000000    1829  	oct	000000000000
    003422  aa   777777 777777    1830  	oct	777777777777
    003423  aa   151156 144145    1831  	oct	151156144145
    003424  aa   170145 144000    1832  	oct	170145144000
    003425  aa   000337 000002    1833  	oct	000337000002
    003426  aa   000004 220000    1834  	oct	000004220000
    003427  aa   600000 000000    1835  	oct	600000000000
    003430  aa   151156 151164    1836  	oct	151156151164
    003431  aa   151141 154000    1837  	oct	151141154000
    003432  aa   000162 000002    1838  	oct	000162000002
    003433  aa   000004 000000    1839  	oct	000004000000
    003434  aa   340000 000000    1840  	oct	340000000000
    003435  aa   151156 163160    1841  	oct	151156163160
    003436  aa   145143 164000    1842  	oct	145143164000
    003437  aa   000021 444006    1843  	oct	000021444006
    003440  aa   000004 160000    1844  	oct	000004160000
    003441  aa   140000 000000    1845  	oct	140000000000
    003442  aa   151156 166141    1846  	oct	151156166141
    003443  aa   154151 144000    1847  	oct	154151144000
    003444  aa   000165 000002    1848  	oct	000165000002
    003445  aa   000004 000000    1849  	oct	000004000000
    003446  aa   140000 000000    1850  	oct	140000000000
    003447  aa   777777 777777    1851  	oct	777777777777
    003450  aa   154145 141144    1852  	oct	154145141144
    003451  aa   151156 147000    1853  	oct	151156147000
    003452  aa   000172 000202    1854  	oct	000172000202
    003453  aa   007004 000000    1855  	oct	007004000000
    003454  aa   740000 000000    1856  	oct	740000000000
    003455  aa   154151 156153    1857  	oct	154151156153
    003456  aa   141147 145000    1858  	oct	141147145000
    003457  aa   000344 002002    1859  	oct	000344002002
    003460  aa   003404 000000    1860  	oct	003404000000
    003461  aa   240000 000000    1861  	oct	240000000000
    003462  aa   154157 143141    1862  	oct	154157143141
    003463  aa   154154 171000    1863  	oct	154154171000
    003464  aa   000656 000000    1864  	oct	000656000000
    003465  aa   000004 000000    1865  	oct	000004000000
    003466  aa   040000 000000    1866  	oct	040000000000
    003467  aa   777777 777777    1867  	oct	777777777777
    003470  aa   155141 170151    1868  	oct	155141170151
    003471  aa   155165 155000    1869  	oct	155165155000
    003472  aa   000456 000000    1870  	oct	000456000000
    003473  aa   000004 000000    1871  	oct	000004000000
    003474  aa   000000 000000    1872  	oct	000000000000
    003475  aa   155145 155142    1873  	oct	155145155142
    003476  aa   145162 163000    1874  	oct	145162163000
    003477  aa   000662 000000    1875  	oct	000662000000
    003500  aa   000004 000000    1876  	oct	000004000000
    003501  aa   040000 000000    1877  	oct	040000000000
    003502  aa   155145 163163    1878  	oct	155145163163
    003503  aa   141147 145000    1879  	oct	141147145000
    003504  aa   000176 000102    1880  	oct	000176000102
    003505  aa   001004 000000    1881  	oct	001004000000
    003506  aa   740000 000000    1882  	oct	740000000000
    003507  aa   155157 144165    1883  	oct	155157144165
    003510  aa   154145 163000    1884  	oct	154145163000
    003511  aa   001071 000002    1885  	oct	001071000002
    003512  aa   000004 000000    1886  	oct	000004000000
    003513  aa   440000 000000    1887  	oct	440000000000
    003514  aa   777777 777777    1888  	oct	777777777777
    003515  aa   156165 155145    1889  	oct	156165155145
    003516  aa   162151 143000    1890  	oct	162151143000
    003517  aa   000203 000002    1891  	oct	000203000002
    003520  aa   000004 000000    1892  	oct	000004000000
    003521  aa   500000 000000    1893  	oct	500000000000
    003522  aa   777777 777777    1894  	oct	777777777777
    003523  aa   157155 151164    1895  	oct	157155151164
    003524  aa   164145 144000    1896  	oct	164145144000
    003525  aa   000313 000002    1897  	oct	000313000002
    003526  aa   000004 000000    1898  	oct	000004000000
    003527  aa   600000 000000    1899  	oct	600000000000
    003530  aa   777777 777777    1900  	oct	777777777777
    003531  aa   160141 144144    1901  	oct	160141144144
    003532  aa   151156 147000    1902  	oct	151156147000
    003533  aa   000515 000000    1903  	oct	000515000000
    003534  aa   000004 000000    1904  	oct	000004000000
    003535  aa   000000 000000    1905  	oct	000000000000
    003536  aa   160145 162146    1906  	oct	160145162146
    003537  aa   157162 155000    1907  	oct	157162155000
    003540  aa   000024 444020    1908  	oct	000024444020
    003541  aa   000044 000240    1909  	oct	000044000240
    003542  aa   100000 000000    1910  	oct	100000000000
    003543  aa   160151 143164    1911  	oct	160151143164
    003544  aa   165162 145000    1912  	oct	165162145000
    003545  aa   000350 000202    1913  	oct	000350000202
    003546  aa   020014 000002    1914  	oct	020014000002
    003547  aa   250000 000000    1915  	oct	250000000000
    003550  aa   160157 151156    1916  	oct	160157151156
    003551  aa   164145 162000    1917  	oct	164145162000
    003552  aa   000214 000002    1918  	oct	000214000002
    003553  aa   000004 000000    1919  	oct	000004000000
    003554  aa   100000 000000    1920  	oct	100000000000
    003555  aa   160162 145163    1921  	oct	160162145163
    003556  aa   145156 164000    1922  	oct	145156164000
    003557  aa   000772 000000    1923  	oct	000772000000
    003560  aa   000004 000000    1924  	oct	000004000000
    003561  aa   000000 000000    1925  	oct	000000000000
    003562  aa   160162 157143    1926  	oct	160162157143
    003563  aa   145145 144000    1927  	oct	145145144000
    003564  aa   000220 000002    1928  	oct	000220000002
    003565  aa   000004 000000    1929  	oct	000004000000
    003566  aa   100000 000000    1930  	oct	100000000000
    003567  aa   160162 157143    1931  	oct	160162157143
    003570  aa   145163 163000    1932  	oct	145163163000
    003571  aa   000060 444004    1933  	oct	000060444004
    003572  aa   000004 000001    1934  	oct	000004000001
    003573  aa   100000 000000    1935  	oct	100000000000
    003574  aa   160162 157147    1936  	oct	160162157147
    003575  aa   162141 155000    1937  	oct	162141155000
    003576  aa   000222 000002    1938  	oct	000222000002
    003577  aa   000004 000000    1939  	oct	000004000000
    003600  aa   500000 000000    1940  	oct	500000000000
    003601  aa   160162 157164    1941  	oct	160162157164
    003602  aa   145143 164000    1942  	oct	145143164000
    003603  aa   000642 000000    1943  	oct	000642000000
    003604  aa   000004 000000    1944  	oct	000004000000
    003605  aa   400000 000000    1945  	oct	400000000000
    003606  aa   777777 777777    1946  	oct	777777777777
    003607  aa   162145 143145    1947  	oct	162145143145
    003610  aa   151166 145000    1948  	oct	151166145000
    003611  aa   000027 444006    1949  	oct	000027444006
    003612  aa   000004 000000    1950  	oct	000004000000
    003613  aa   100000 000000    1951  	oct	100000000000
    003614  aa   162145 143157    1952  	oct	162145143157
    003615  aa   162144 163000    1953  	oct	162144163000
    003616  aa   000303 000002    1954  	oct	000303000002
    003617  aa   000004 000000    1955  	oct	000004000000
    003620  aa   700000 000000    1956  	oct	700000000000
    003621  aa   162145 154145    1957  	oct	162145154145
    003622  aa   141163 145000    1958  	oct	141163145000
    003623  aa   000030 444006    1959  	oct	000030444006
    003624  aa   000004 000000    1960  	oct	000004000000
    003625  aa   100000 000000    1961  	oct	100000000000
    003626  aa   162145 155157    1962  	oct	162145155157
    003627  aa   166141 154000    1963  	oct	166141154000
    003630  aa   000404 000002    1964  	oct	000404000002
    003631  aa   000004 000000    1965  	oct	000004000000
    003632  aa   100000 000000    1966  	oct	100000000000
    003633  aa   162145 156141    1967  	oct	162145156141
    003634  aa   155145 163000    1968  	oct	155145163000
    003635  aa   000357 000002    1969  	oct	000357000002
    003636  aa   000004 000000    1970  	oct	000004000000
    003637  aa   200000 000000    1971  	oct	200000000000
    003640  aa   162145 160154    1972  	oct	162145160154
    003641  aa   141143 145000    1973  	oct	141143145000
    003642  aa   000651 000040    1974  	oct	000651000040
    003643  aa   000014 000006    1975  	oct	000014000006
    003644  aa   700000 000000    1976  	oct	700000000000
    003645  aa   162145 160157    1977  	oct	162145160157
    003646  aa   162164 163000    1978  	oct	162164163000
    003647  aa   000360 000402    1979  	oct	000360000402
    003650  aa   005414 060036    1980  	oct	005414060036
    003651  aa   200000 000000    1981  	oct	200000000000
    003652  aa   162145 163145    1982  	oct	162145163145
    003653  aa   162166 145000    1983  	oct	162166145000
    003654  aa   001115 000002    1984  	oct	001115000002
    003655  aa   000004 000000    1985  	oct	000004000000
    003656  aa   400000 000000    1986  	oct	400000000000
    003657  aa   162145 167162    1987  	oct	162145167162
    003660  aa   151164 145000    1988  	oct	151164145000
    003661  aa   000033 444006    1989  	oct	000033444006
    003662  aa   000004 000000    1990  	oct	000004000000
    003663  aa   100000 000000    1991  	oct	100000000000
    003664  aa   162157 165156    1992  	oct	162157165156
    003665  aa   144145 144000    1993  	oct	144145144000
    003666  aa   000234 000002    1994  	oct	000234000002
    003667  aa   000004 000000    1995  	oct	000004000000
    003670  aa   114000 000000    1996  	oct	114000000000
    003671  aa   777777 777777    1997  	oct	777777777777
    003672  aa   163145 143164    1998  	oct	163145143164
    003673  aa   151157 156000    1999  	oct	151157156000
    003674  aa   000236 000006    2000  	oct	000236000006
    003675  aa   000104 011000    2001  	oct	000104011000
    003676  aa   700000 000000    2002  	oct	700000000000
    003677  aa   163145 147155    2003  	oct	163145147155
    003700  aa   145156 164000    2004  	oct	145156164000
    003701  aa   000237 000002    2005  	oct	000237000002
    003702  aa   000004 000000    2006  	oct	000004000000
    003703  aa   504000 000000    2007  	oct	504000000000
    003704  aa   163160 141156    2008  	oct	163160141156
    003705  aa   156145 144000    2009  	oct	156145144000
    003706  aa   001131 000000    2010  	oct	001131000000
    003707  aa   000004 000000    2011  	oct	000004000000
    003710  aa   400000 000000    2012  	oct	400000000000
    003711  aa   163164 141164    2013  	oct	163164141164
    003712  aa   151157 156000    2014  	oct	151157156000
    003713  aa   000446 000000    2015  	oct	000446000000
    003714  aa   000004 000000    2016  	oct	000004000000
    003715  aa   000000 000000    2017  	oct	000000000000
    003716  aa   163165 163160    2018  	oct	163165163160
    003717  aa   145156 144000    2019  	oct	145156144000
    003720  aa   000043 444006    2020  	oct	000043444006
    003721  aa   000004 000001    2021  	oct	000004000001
    003722  aa   100000 000000    2022  	oct	100000000000
    003723  aa   777777 777777    2023  	oct	777777777777
    003724  aa   164150 162157    2024  	oct	164150162157
    003725  aa   165147 150000    2025  	oct	165147150000
    003726  aa   000246 000002    2026  	oct	000246000002
    003727  aa   000004 000000    2027  	oct	000004000000
    003730  aa   700000 000000    2028  	oct	700000000000
    003731  aa   777777 777777    2029  	oct	777777777777
    003732  aa   165156 145161    2030  	oct	165156145161
    003733  aa   165141 154000    2031  	oct	165141154000
    003734  aa   000253 000002    2032  	oct	000253000002
    003735  aa   000004 000000    2033  	oct	000004000000
    003736  aa   160000 000000    2034  	oct	160000000000
    003737  aa   777777 777777    2035  	oct	777777777777
    003740  aa   166141 162171    2036  	oct	166141162171
    003741  aa   151156 147000    2037  	oct	151156147000
    003742  aa   000261 000006    2038  	oct	000261000006
    003743  aa   000004 000000    2039  	oct	000004000000
    003744  aa   100000 000000    2040  	oct	100000000000
    003745  aa   166151 162164    2041  	oct	166151162164
    003746  aa   165141 154000    2042  	oct	165141154000
    003747  aa   000433 000000    2043  	oct	000433000000
    003750  aa   000004 000000    2044  	oct	000004000000
    003751  aa   060000 000000    2045  	oct	060000000000
    003752  aa   777777 777777    2046  	oct	777777777777
    003753  aa   000000 000000    2047  	oct	000000000000
    003754  aa   000000 000000    2048  	oct	000000000000
    003755  aa   000000 000000    2049  	oct	000000000000
    003756  aa   000000 000000    2050  	oct	000000000000
    003757  aa   000000 000000    2051  	oct	000000000000
    003760  aa   000000 000000    2052  	oct	000000000000
    003761  aa   000000 000000    2053  	oct	000000000000
    003762  aa   000000 000000    2054  	oct	000000000000
    003763  aa   000000 000000    2055  	oct	000000000000
    003764  aa   000000 000000    2056  	oct	000000000000
    003765  aa   000000 000000    2057  	oct	000000000000
    003766  aa   000000 000000    2058  	oct	000000000000
    003767  aa   000000 000000    2059  	oct	000000000000
    003770  aa   000000 000000    2060  	oct	000000000000
    003771  aa   000000 000000    2061  	oct	000000000000
    003772  aa   000000 000000    2062  	oct	000000000000
    003773  aa   000000 000000    2063  	oct	000000000000
    003774  aa   000000 000000    2064  	oct	000000000000
    003775  aa   000000 000000    2065  	oct	000000000000
    003776  aa   000000 000000    2066  	oct	000000000000
    003777  aa   000000 000000    2067  	oct	000000000000
    004000  aa   000000 000000    2068  	oct	000000000000
    004001  aa   000000 000000    2069  	oct	000000000000
    004002  aa   000000 000000    2070  	oct	000000000000
    004003  aa   000000 000000    2071  	oct	000000000000
    004004  aa   000000 000000    2072  	oct	000000000000
    004005  aa   000000 000000    2073  	oct	000000000000
    004006  aa   000000 000000    2074  	oct	000000000000
    004007  aa   000000 000000    2075  	oct	000000000000
    004010  aa   000000 000000    2076  	oct	000000000000
    004011  aa   000000 000000    2077  	oct	000000000000
    004012  aa   000000 000000    2078  	oct	000000000000
    004013  aa   000000 000000    2079  	oct	000000000000
    004014  aa   000000 000000    2080  	oct	000000000000
    004015  aa   000000 000000    2081  	oct	000000000000
    004016  aa   000000 000000    2082  	oct	000000000000
    004017  aa   000000 000000    2083  	oct	000000000000
    004020  aa   000000 000000    2084  	oct	000000000000
    004021  aa   000000 000000    2085  	oct	000000000000
    004022  aa   000000 000000    2086  	oct	000000000000
    004023  aa   000000 000000    2087  	oct	000000000000
    004024  aa   000000 000000    2088  	oct	000000000000
    004025  aa   000000 000000    2089  	oct	000000000000
    004026  aa   000000 000000    2090  	oct	000000000000
    004027  aa   000000 000000    2091  	oct	000000000000
    004030  aa   000000 000000    2092  	oct	000000000000
    004031  aa   000000 000000    2093  	oct	000000000000
    004032  aa   000000 000000    2094  	oct	000000000000
    004033  aa   000000 000000    2095  	oct	000000000000
    004034  aa   000000 004066    2096  	oct	000000004066
    004035  aa   000000 000000    2097  	oct	000000000000
    004036  aa   000000 004101    2098  	oct	000000004101
    004037  aa   000000 004145    2099  	oct	000000004145
    004040  aa   000000 004153    2100  	oct	000000004153
    004041  aa   000000 000000    2101  	oct	000000000000
    004042  aa   000000 004200    2102  	oct	000000004200
    004043  aa   000000 000000    2103  	oct	000000000000
    004044  aa   000000 004206    2104  	oct	000000004206
    004045  aa   000000 000000    2105  	oct	000000000000
    004046  aa   000000 000000    2106  	oct	000000000000
    004047  aa   000000 000000    2107  	oct	000000000000
    004050  aa   000000 004226    2108  	oct	000000004226
    004051  aa   000000 004241    2109  	oct	000000004241
    004052  aa   000000 004247    2110  	oct	000000004247
    004053  aa   000000 004262    2111  	oct	000000004262
    004054  aa   000000 000000    2112  	oct	000000000000
    004055  aa   000000 004302    2113  	oct	000000004302
    004056  aa   000000 004322    2114  	oct	000000004322
    004057  aa   000000 004373    2115  	oct	000000004373
    004060  aa   000000 004413    2116  	oct	000000004413
    004061  aa   000000 000000    2117  	oct	000000000000
    004062  aa   000000 000000    2118  	oct	000000000000
    004063  aa   000000 000000    2119  	oct	000000000000
    004064  aa   000000 000000    2120  	oct	000000000000
    004065  aa   000000 000000    2121  	oct	000000000000
    004066  aa   141154 160150    2122  	oct	141154160150
    004067  aa   141142 145164    2123  	oct	141142145164
    004070  aa   000770 000002    2124  	oct	000770000002
    004071  aa   000004 000000    2125  	oct	000004000000
    004072  aa   440000 000000    2126  	oct	440000000000
    004073  aa   141154 164145    2127  	oct	141154164145
    004074  aa   162151 156147    2128  	oct	162151156147
    004075  aa   000717 000000    2129  	oct	000717000000
    004076  aa   000004 000000    2130  	oct	000004000000
    004077  aa   000000 000000    2131  	oct	000000000000
    004100  aa   777777 777777    2132  	oct	777777777777
    004101  aa   143157 144145    2133  	oct	143157144145
    004102  aa   055163 145164    2134  	oct	055163145164
    004103  aa   000462 000400    2135  	oct	000462000400
    004104  aa   010004 000000    2136  	oct	010004000000
    004105  aa   200000 000000    2137  	oct	200000000000
    004106  aa   143157 156163    2138  	oct	143157156163
    004107  aa   164141 156164    2139  	oct	164141156164
    004110  aa   000326 002002    2140  	oct	000326002002
    004111  aa   002004 000000    2141  	oct	002004000000
    004112  aa   240000 000000    2142  	oct	240000000000
    004113  aa   143157 156164    2143  	oct	143157156164
    004114  aa   141151 156163    2144  	oct	141151156163
    004115  aa   000327 000002    2145  	oct	000327000002
    004116  aa   000004 000000    2146  	oct	000004000000
    004117  aa   640000 000000    2147  	oct	640000000000
    004120  aa   143157 156164    2148  	oct	143157156164
    004121  aa   151156 165145    2149  	oct	151156165145
    004122  aa   000034 444006    2150  	oct	000034444006
    004123  aa   000004 000000    2151  	oct	000004000000
    004124  aa   000000 000000    2152  	oct	000000000000
    004125  aa   143157 156164    2153  	oct	143157156164
    004126  aa   162157 154163    2154  	oct	162157154163
    004127  aa   001011 000002    2155  	oct	001011000002
    004130  aa   440004 000000    2156  	oct	440004000000
    004131  aa   440000 000000    2157  	oct	440000000000
    004132  aa   143163 055142    2158  	oct	143163055142
    004133  aa   141163 151143    2159  	oct	141163151143
    004134  aa   000710 000000    2160  	oct	000710000000
    004135  aa   000004 000000    2161  	oct	000004000000
    004136  aa   040000 000000    2162  	oct	040000000000
    004137  aa   143165 162162    2163  	oct	143165162162
    004140  aa   145156 143171    2164  	oct	145156143171
    004141  aa   001015 000003    2165  	oct	001015000003
    004142  aa   000014 000022    2166  	oct	000014000022
    004143  aa   406000 000000    2167  	oct	406000000000
    004144  aa   777777 777777    2168  	oct	777777777777
    004145  aa   144151 166151    2169  	oct	144151166151
    004146  aa   163151 157156    2170  	oct	163151157156
    004147  aa   000136 000006    2171  	oct	000136000006
    004150  aa   000004 000000    2172  	oct	000004000000
    004151  aa   700000 000000    2173  	oct	700000000000
    004152  aa   777777 777777    2174  	oct	777777777777
    004153  aa   145156 144055    2175  	oct	145156144055
    004154  aa   143141 154154    2176  	oct	143141154154
    004155  aa   000723 000000    2177  	oct	000723000000
    004156  aa   000004 000000    2178  	oct	000004000000
    004157  aa   100000 000000    2179  	oct	100000000000
    004160  aa   145156 144055    2180  	oct	145156144055
    004161  aa   162145 141144    2181  	oct	162145141144
    004162  aa   000733 000000    2182  	oct	000733000000
    004163  aa   000004 000000    2183  	oct	000004000000
    004164  aa   100000 000000    2184  	oct	100000000000
    004165  aa   145166 141154    2185  	oct	145166141154
    004166  aa   165141 164145    2186  	oct	165141164145
    004167  aa   000764 000000    2187  	oct	000764000000
    004170  aa   000004 000000    2188  	oct	000004000000
    004171  aa   100000 000000    2189  	oct	100000000000
    004172  aa   145170 164145    2190  	oct	145170164145
    004173  aa   162156 141154    2191  	oct	162156141154
    004174  aa   000463 000000    2192  	oct	000463000000
    004175  aa   000004 000000    2193  	oct	000004000000
    004176  aa   400000 000000    2194  	oct	400000000000
    004177  aa   777777 777777    2195  	oct	777777777777
    004200  aa   147145 156145    2196  	oct	147145156145
    004201  aa   162141 164145    2197  	oct	162141164145
    004202  aa   000055 444020    2198  	oct	000055444020
    004203  aa   000014 000036    2199  	oct	000014000036
    004204  aa   500000 000000    2200  	oct	500000000000
    004205  aa   777777 777777    2201  	oct	777777777777
    004206  aa   151156 144151    2202  	oct	151156144151
    004207  aa   143141 164145    2203  	oct	143141164145
    004210  aa   001051 000002    2204  	oct	001051000002
    004211  aa   000004 000000    2205  	oct	000004000000
    004212  aa   000000 000000    2206  	oct	000000000000
    004213  aa   151156 151164    2207  	oct	151156151164
    004214  aa   151141 164145    2208  	oct	151141164145
    004215  aa   000020 444020    2209  	oct	000020444020
    004216  aa   000014 000036    2210  	oct	000014000036
    004217  aa   140000 000000    2211  	oct	140000000000
    004220  aa   151156 166157    2212  	oct	151156166157
    004221  aa   153151 156147    2213  	oct	153151156147
    004222  aa   000654 000000    2214  	oct	000654000000
    004223  aa   000004 000000    2215  	oct	000004000000
    004224  aa   040000 000000    2216  	oct	040000000000
    004225  aa   777777 777777    2217  	oct	777777777777
    004226  aa   155165 154164    2218  	oct	155165154164
    004227  aa   151160 154145    2219  	oct	151160154145
    004230  aa   001072 000003    2220  	oct	001072000003
    004231  aa   000004 000000    2221  	oct	000004000000
    004232  aa   440000 000000    2222  	oct	440000000000
    004233  aa   155165 154164    2223  	oct	155165154164
    004234  aa   151160 154171    2224  	oct	151160154171
    004235  aa   000012 444006    2225  	oct	000012444006
    004236  aa   000004 000000    2226  	oct	000004000000
    004237  aa   140000 000000    2227  	oct	140000000000
    004240  aa   777777 777777    2228  	oct	777777777777
    004241  aa   156145 147141    2229  	oct	156145147141
    004242  aa   164151 166145    2230  	oct	164151166145
    004243  aa   000177 000002    2231  	oct	000177000002
    004244  aa   000004 000000    2232  	oct	000004000000
    004245  aa   140000 000000    2233  	oct	140000000000
    004246  aa   777777 777777    2234  	oct	777777777777
    004247  aa   157160 164151    2235  	oct	157160164151
    004250  aa   157156 141154    2236  	oct	157156141154
    004251  aa   001100 000000    2237  	oct	001100000000
    004252  aa   000004 000000    2238  	oct	000004000000
    004253  aa   400000 000000    2239  	oct	400000000000
    004254  aa   157166 145162    2240  	oct	157166145162
    004255  aa   146154 157167    2241  	oct	146154157167
    004256  aa   000006 000002    2242  	oct	000006000002
    004257  aa   000004 000000    2243  	oct	000004000000
    004260  aa   100000 000000    2244  	oct	100000000000
    004261  aa   777777 777777    2245  	oct	777777777777
    004262  aa   160157 163151    2246  	oct	160157163151
    004263  aa   164151 157156    2247  	oct	164151157156
    004264  aa   001106 000002    2248  	oct	001106000002
    004265  aa   000004 000000    2249  	oct	000004000000
    004266  aa   400000 000000    2250  	oct	400000000000
    004267  aa   160157 163151    2251  	oct	160157163151
    004270  aa   164151 166145    2252  	oct	164151166145
    004271  aa   000215 000002    2253  	oct	000215000002
    004272  aa   000004 000000    2254  	oct	000004000000
    004273  aa   100000 000000    2255  	oct	100000000000
    004274  aa   160162 151156    2256  	oct	160162151156
    004275  aa   164151 156147    2257  	oct	164151156147
    004276  aa   001057 000002    2258  	oct	001057000002
    004277  aa   000004 000000    2259  	oct	000004000000
    004300  aa   100000 000000    2260  	oct	100000000000
    004301  aa   777777 777777    2261  	oct	777777777777
    004302  aa   162145 141154    2262  	oct	162145141154
    004303  aa   155055 151144    2263  	oct	155055151144
    004304  aa   000426 000000    2264  	oct	000426000000
    004305  aa   000004 000000    2265  	oct	000004000000
    004306  aa   000000 000000    2266  	oct	000000000000
    004307  aa   162145 154141    2267  	oct	162145154141
    004310  aa   164151 166145    2268  	oct	164151166145
    004311  aa   000247 000002    2269  	oct	000247000002
    004312  aa   000004 000000    2270  	oct	000004000000
    004313  aa   400000 000000    2271  	oct	400000000000
    004314  aa   162145 166145    2272  	oct	162145166145
    004315  aa   162163 145144    2273  	oct	162163145144
    004316  aa   000232 000002    2274  	oct	000232000002
    004317  aa   000004 000000    2275  	oct	000004000000
    004320  aa   100000 000000    2276  	oct	100000000000
    004321  aa   777777 777777    2277  	oct	777777777777
    004322  aa   163145 143165    2278  	oct	163145143165
    004323  aa   162151 164171    2279  	oct	162151164171
    004324  aa   001122 000002    2280  	oct	001122000002
    004325  aa   000014 000030    2281  	oct	000014000030
    004326  aa   400000 000000    2282  	oct	400000000000
    004327  aa   163145 156164    2283  	oct	163145156164
    004330  aa   145156 143145    2284  	oct	145156143145
    004331  aa   000240 000002    2285  	oct	000240000002
    004332  aa   000004 000000    2286  	oct	000004000000
    004333  aa   100000 000000    2287  	oct	100000000000
    004334  aa   163145 160141    2288  	oct	163145160141
    004335  aa   162141 164145    2289  	oct	162141164145
    004336  aa   000364 000002    2290  	oct	000364000002
    004337  aa   000004 000000    2291  	oct	000004000000
    004340  aa   640000 000000    2292  	oct	640000000000
    004341  aa   163145 161165    2293  	oct	163145161165
    004342  aa   145156 143145    2294  	oct	145156143145
    004343  aa   001113 000024    2295  	oct	001113000024
    004344  aa   000004 000000    2296  	oct	000004000000
    004345  aa   500000 000000    2297  	oct	500000000000
    004346  aa   163164 141156    2298  	oct	163164141156
    004347  aa   144141 162144    2299  	oct	144141162144
    004350  aa   000242 000002    2300  	oct	000242000002
    004351  aa   000004 000000    2301  	oct	000004000000
    004352  aa   700000 000000    2302  	oct	700000000000
    004353  aa   163165 142164    2303  	oct	163165142164
    004354  aa   162141 143164    2304  	oct	162141143164
    004355  aa   000013 444006    2305  	oct	000013444006
    004356  aa   000004 000000    2306  	oct	000004000000
    004357  aa   160000 000000    2307  	oct	160000000000
    004360  aa   163165 160160    2308  	oct	163165160160
    004361  aa   162145 163163    2309  	oct	162145163163
    004362  aa   000071 444002    2310  	oct	000071444002
    004363  aa   000414 000036    2311  	oct	000414000036
    004364  aa   000000 000000    2312  	oct	000000000000
    004365  aa   163171 155142    2313  	oct	163171155142
    004366  aa   157154 151143    2314  	oct	157154151143
    004367  aa   000373 000142    2315  	oct	000373000142
    004370  aa   000004 000000    2316  	oct	000004000000
    004371  aa   600000 000000    2317  	oct	600000000000
    004372  aa   777777 777777    2318  	oct	777777777777
    004373  aa   164141 154154    2319  	oct	164141154154
    004374  aa   171151 156147    2320  	oct	171151156147
    004375  aa   000243 000002    2321  	oct	000243000002
    004376  aa   000004 000000    2322  	oct	000004000000
    004377  aa   160000 000000    2323  	oct	160000000000
    004400  aa   164145 162155    2324  	oct	164145162155
    004401  aa   151156 141154    2325  	oct	151156141154
    004402  aa   000244 000002    2326  	oct	000244000002
    004403  aa   000004 000000    2327  	oct	000004000000
    004404  aa   160000 000000    2328  	oct	160000000000
    004405  aa   164162 141151    2329  	oct	164162141151
    004406  aa   154151 156147    2330  	oct	154151156147
    004407  aa   000377 000202    2331  	oct	000377000202
    004410  aa   007004 000000    2332  	oct	007004000000
    004411  aa   600000 000000    2333  	oct	600000000000
    004412  aa   777777 777777    2334  	oct	777777777777
    004413  aa   165156 163164    2335  	oct	165156163164
    004414  aa   162151 156147    2336  	oct	162151156147
    004415  aa   000045 444006    2337  	oct	000045444006
    004416  aa   000004 000000    2338  	oct	000004000000
    004417  aa   100000 000000    2339  	oct	100000000000
    004420  aa   777777 777777    2340  	oct	777777777777
    004421  aa   000000 000000    2341  	oct	000000000000
    004422  aa   000000 000000    2342  	oct	000000000000
    004423  aa   000000 000000    2343  	oct	000000000000
    004424  aa   000000 000000    2344  	oct	000000000000
    004425  aa   000000 000000    2345  	oct	000000000000
    004426  aa   000000 000000    2346  	oct	000000000000
    004427  aa   000000 000000    2347  	oct	000000000000
    004430  aa   000000 000000    2348  	oct	000000000000
    004431  aa   000000 000000    2349  	oct	000000000000
    004432  aa   000000 000000    2350  	oct	000000000000
    004433  aa   000000 000000    2351  	oct	000000000000
    004434  aa   000000 000000    2352  	oct	000000000000
    004435  aa   000000 000000    2353  	oct	000000000000
    004436  aa   000000 000000    2354  	oct	000000000000
    004437  aa   000000 000000    2355  	oct	000000000000
    004440  aa   000000 000000    2356  	oct	000000000000
    004441  aa   000000 000000    2357  	oct	000000000000
    004442  aa   000000 000000    2358  	oct	000000000000
    004443  aa   000000 000000    2359  	oct	000000000000
    004444  aa   000000 000000    2360  	oct	000000000000
    004445  aa   000000 000000    2361  	oct	000000000000
    004446  aa   000000 000000    2362  	oct	000000000000
    004447  aa   000000 000000    2363  	oct	000000000000
    004450  aa   000000 000000    2364  	oct	000000000000
    004451  aa   000000 000000    2365  	oct	000000000000
    004452  aa   000000 000000    2366  	oct	000000000000
    004453  aa   000000 000000    2367  	oct	000000000000
    004454  aa   000000 000000    2368  	oct	000000000000
    004455  aa   000000 000000    2369  	oct	000000000000
    004456  aa   000000 000000    2370  	oct	000000000000
    004457  aa   000000 000000    2371  	oct	000000000000
    004460  aa   000000 000000    2372  	oct	000000000000
    004461  aa   000000 000000    2373  	oct	000000000000
    004462  aa   000000 000000    2374  	oct	000000000000
    004463  aa   000000 000000    2375  	oct	000000000000
    004464  aa   000000 000000    2376  	oct	000000000000
    004465  aa   000000 000000    2377  	oct	000000000000
    004466  aa   000000 000000    2378  	oct	000000000000
    004467  aa   000000 000000    2379  	oct	000000000000
    004470  aa   000000 000000    2380  	oct	000000000000
    004471  aa   000000 000000    2381  	oct	000000000000
    004472  aa   000000 000000    2382  	oct	000000000000
    004473  aa   000000 000000    2383  	oct	000000000000
    004474  aa   000000 000000    2384  	oct	000000000000
    004475  aa   000000 000000    2385  	oct	000000000000
    004476  aa   000000 000000    2386  	oct	000000000000
    004477  aa   000000 000000    2387  	oct	000000000000
    004500  aa   000000 000000    2388  	oct	000000000000
    004501  aa   000000 000000    2389  	oct	000000000000
    004502  aa   000000 004534    2390  	oct	000000004534
    004503  aa   000000 004565    2391  	oct	000000004565
    004504  aa   000000 004574    2392  	oct	000000004574
    004505  aa   000000 004611    2393  	oct	000000004611
    004506  aa   000000 004656    2394  	oct	000000004656
    004507  aa   000000 000000    2395  	oct	000000000000
    004510  aa   000000 000000    2396  	oct	000000000000
    004511  aa   000000 000000    2397  	oct	000000000000
    004512  aa   000000 004707    2398  	oct	000000004707
    004513  aa   000000 004716    2399  	oct	000000004716
    004514  aa   000000 000000    2400  	oct	000000000000
    004515  aa   000000 004725    2401  	oct	000000004725
    004516  aa   000000 000000    2402  	oct	000000000000
    004517  aa   000000 000000    2403  	oct	000000000000
    004520  aa   000000 000000    2404  	oct	000000000000
    004521  aa   000000 004734    2405  	oct	000000004734
    004522  aa   000000 000000    2406  	oct	000000000000
    004523  aa   000000 004751    2407  	oct	000000004751
    004524  aa   000000 005024    2408  	oct	000000005024
    004525  aa   000000 005041    2409  	oct	000000005041
    004526  aa   000000 000000    2410  	oct	000000000000
    004527  aa   000000 000000    2411  	oct	000000000000
    004530  aa   000000 000000    2412  	oct	000000000000
    004531  aa   000000 000000    2413  	oct	000000000000
    004532  aa   000000 000000    2414  	oct	000000000000
    004533  aa   000000 000000    2415  	oct	000000000000
    004534  aa   141144 166141    2416  	oct	141144166141
    004535  aa   156143 151156    2417  	oct	156143151156
    004536  aa   147000 000000    2418  	oct	147000000000
    004537  aa   000107 000002    2419  	oct	000107000002
    004540  aa   000004 000000    2420  	oct	000004000000
    004541  aa   100000 000000    2421  	oct	100000000000
    004542  aa   141147 147162    2422  	oct	141147147162
    004543  aa   145147 141164    2423  	oct	145147141164
    004544  aa   145000 000000    2424  	oct	145000000000
    004545  aa   000150 000000    2425  	oct	000150000000
    004546  aa   000004 000000    2426  	oct	000004000000
    004547  aa   440000 000000    2427  	oct	440000000000
    004550  aa   141154 164145    2428  	oct	141154164145
    004551  aa   162156 141164    2429  	oct	162156141164
    004552  aa   145000 000000    2430  	oct	145000000000
    004553  aa   000773 000002    2431  	oct	000773000002
    004554  aa   000004 000000    2432  	oct	000004000000
    004555  aa   400000 000000    2433  	oct	400000000000
    004556  aa   141163 143145    2434  	oct	141163143145
    004557  aa   156144 151156    2435  	oct	156144151156
    004560  aa   147000 000000    2436  	oct	147000000000
    004561  aa   000116 000002    2437  	oct	000116000002
    004562  aa   000004 000000    2438  	oct	000004000000
    004563  aa   300000 000000    2439  	oct	300000000000
    004564  aa   777777 777777    2440  	oct	777777777777
    004565  aa   142145 147151    2441  	oct	142145147151
    004566  aa   156156 151156    2442  	oct	156156151156
    004567  aa   147000 000000    2443  	oct	147000000000
    004570  aa   000121 000002    2444  	oct	000121000002
    004571  aa   000004 000001    2445  	oct	000004000001
    004572  aa   100000 000000    2446  	oct	100000000000
    004573  aa   777777 777777    2447  	oct	777777777777
    004574  aa   143150 141162    2448  	oct	143150141162
    004575  aa   141143 164145    2449  	oct	141143164145
    004576  aa   162000 000000    2450  	oct	162000000000
    004577  aa   000123 000002    2451  	oct	000123000002
    004600  aa   000004 000000    2452  	oct	000004000000
    004601  aa   740000 000000    2453  	oct	740000000000
    004602  aa   143157 154154    2454  	oct	143157154154
    004603  aa   141164 151156    2455  	oct	141164151156
    004604  aa   147000 000000    2456  	oct	147000000000
    004605  aa   001003 000002    2457  	oct	001003000002
    004606  aa   000004 000000    2458  	oct	000004000000
    004607  aa   540000 000000    2459  	oct	540000000000
    004610  aa   777777 777777    2460  	oct	777777777777
    004611  aa   144142 055163    2461  	oct	144142055163
    004612  aa   164141 164165    2462  	oct	164141164165
    004613  aa   163000 000000    2463  	oct	163000000000
    004614  aa   000455 000000    2464  	oct	000455000000
    004615  aa   000004 000000    2465  	oct	000004000000
    004616  aa   040000 000000    2466  	oct	040000000000
    004617  aa   144145 142165    2467  	oct	144145142165
    004620  aa   147147 151156    2468  	oct	147147151156
    004621  aa   147000 000000    2469  	oct	147000000000
    004622  aa   000130 000015    2470  	oct	000130000015
    004623  aa   020114 326024    2471  	oct	020114326024
    004624  aa   500000 000000    2472  	oct	500000000000
    004625  aa   144145 154151    2473  	oct	144145154151
    004626  aa   155151 164145    2474  	oct	155151164145
    004627  aa   144000 000000    2475  	oct	144000000000
    004630  aa   000132 000002    2476  	oct	000132000002
    004631  aa   000004 000000    2477  	oct	000004000000
    004632  aa   156000 000000    2478  	oct	156000000000
    004633  aa   144145 154151    2479  	oct	144145154151
    004634  aa   155151 164145    2480  	oct	155151164145
    004635  aa   162000 000000    2481  	oct	162000000000
    004636  aa   000133 000002    2482  	oct	000133000002
    004637  aa   000004 000000    2483  	oct	000004000000
    004640  aa   100000 000000    2484  	oct	100000000000
    004641  aa   144145 160145    2485  	oct	144145160145
    004642  aa   156144 151156    2486  	oct	156144151156
    004643  aa   147000 000000    2487  	oct	147000000000
    004644  aa   000134 000006    2488  	oct	000134000006
    004645  aa   000004 000000    2489  	oct	000004000000
    004646  aa   300000 000000    2490  	oct	300000000000
    004647  aa   144165 160154    2491  	oct	144165160154
    004650  aa   151143 141164    2492  	oct	151143141164
    004651  aa   145000 000000    2493  	oct	145000000000
    004652  aa   000413 000000    2494  	oct	000413000000
    004653  aa   000004 000000    2495  	oct	000004000000
    004654  aa   040000 000000    2496  	oct	040000000000
    004655  aa   777777 777777    2497  	oct	777777777777
    004656  aa   145156 144055    2498  	oct	145156144055
    004657  aa   163164 141162    2499  	oct	163164141162
    004660  aa   164000 000000    2500  	oct	164000000000
    004661  aa   000740 000000    2501  	oct	000740000000
    004662  aa   000004 000000    2502  	oct	000004000000
    004663  aa   144000 000000    2503  	oct	144000000000
    004664  aa   145156 144055    2504  	oct	145156144055
    004665  aa   167162 151164    2505  	oct	167162151164
    004666  aa   145000 000000    2506  	oct	145000000000
    004667  aa   000744 000000    2507  	oct	000744000000
    004670  aa   000004 000000    2508  	oct	000004000000
    004671  aa   140000 000000    2509  	oct	140000000000
    004672  aa   145170 143145    2510  	oct	145170143145
    004673  aa   160164 151157    2511  	oct	160164151157
    004674  aa   156000 000000    2512  	oct	156000000000
    004675  aa   000153 000002    2513  	oct	000153000002
    004676  aa   000004 000000    2514  	oct	000004000000
    004677  aa   100000 000000    2515  	oct	100000000000
    004700  aa   145170 143154    2516  	oct	145170143154
    004701  aa   165163 151166    2517  	oct	165163151166
    004702  aa   145000 000000    2518  	oct	145000000000
    004703  aa   000416 000000    2519  	oct	000416000000
    004704  aa   000004 000000    2520  	oct	000004000000
    004705  aa   000000 000000    2521  	oct	000000000000
    004706  aa   777777 777777    2522  	oct	777777777777
    004707  aa   151156 143154    2523  	oct	151156143154
    004710  aa   165144 151156    2524  	oct	165144151156
    004711  aa   147000 000000    2525  	oct	147000000000
    004712  aa   000647 000000    2526  	oct	000647000000
    004713  aa   000004 000000    2527  	oct	000004000000
    004714  aa   040000 000000    2528  	oct	040000000000
    004715  aa   777777 777777    2529  	oct	777777777777
    004716  aa   152165 163164    2530  	oct	152165163164
    004717  aa   151146 151145    2531  	oct	151146151145
    004720  aa   144000 000000    2532  	oct	144000000000
    004721  aa   000340 000202    2533  	oct	000340000202
    004722  aa   022004 000000    2534  	oct	022004000000
    004723  aa   240000 000000    2535  	oct	240000000000
    004724  aa   777777 777777    2536  	oct	777777777777
    004725  aa   154157 167055    2537  	oct	154157167055
    004726  aa   166141 154165    2538  	oct	166141154165
    004727  aa   145000 000000    2539  	oct	145000000000
    004730  aa   000345 100002    2540  	oct	000345100002
    004731  aa   006004 000000    2541  	oct	006004000000
    004732  aa   740000 000000    2542  	oct	740000000000
    004733  aa   777777 777777    2543  	oct	777777777777
    004734  aa   160145 162155    2544  	oct	160145162155
    004735  aa   141156 145156    2545  	oct	141156145156
    004736  aa   164000 000000    2546  	oct	164000000000
    004737  aa   000632 000000    2547  	oct	000632000000
    004740  aa   000004 000000    2548  	oct	000004000000
    004741  aa   400000 000000    2549  	oct	400000000000
    004742  aa   160162 157143    2550  	oct	160162157143
    004743  aa   145144 165162    2551  	oct	145144165162
    004744  aa   145000 000000    2552  	oct	145000000000
    004745  aa   000216 002005    2553  	oct	000216002005
    004746  aa   006424 000240    2554  	oct	006424000240
    004747  aa   740000 000000    2555  	oct	740000000000
    004750  aa   777777 777777    2556  	oct	777777777777
    004751  aa   162145 143157    2557  	oct	162145143157
    004752  aa   162144 151156    2558  	oct	162144151156
    004753  aa   147000 000000    2559  	oct	147000000000
    004754  aa   000355 000402    2560  	oct	000355000402
    004755  aa   000004 000000    2561  	oct	000004000000
    004756  aa   200000 000000    2562  	oct	200000000000
    004757  aa   162145 144145    2563  	oct	162145144145
    004760  aa   146151 156145    2564  	oct	146151156145
    004761  aa   163000 000000    2565  	oct	163000000000
    004762  aa   000356 000202    2566  	oct	000356000202
    004763  aa   010004 000000    2567  	oct	010004000000
    004764  aa   200000 000000    2568  	oct	200000000000
    004765  aa   162145 155141    2569  	oct	162145155141
    004766  aa   151156 144145    2570  	oct	151156144145
    004767  aa   162000 000000    2571  	oct	162000000000
    004770  aa   000227 000002    2572  	oct	000227000002
    004771  aa   000004 000000    2573  	oct	000004000000
    004772  aa   100000 000000    2574  	oct	100000000000
    004773  aa   162145 160154    2575  	oct	162145160154
    004774  aa   141143 151156    2576  	oct	141143151156
    004775  aa   147000 000000    2577  	oct	147000000000
    004776  aa   000230 000002    2578  	oct	000230000002
    004777  aa   000004 000000    2579  	oct	000004000000
    005000  aa   700000 000000    2580  	oct	700000000000
    005001  aa   162145 160157    2581  	oct	162145160157
    005002  aa   162164 151156    2582  	oct	162164151156
    005003  aa   147000 000000    2583  	oct	147000000000
    005004  aa   000231 000004    2584  	oct	000231000004
    005005  aa   000414 000036    2585  	oct	000414000036
    005006  aa   100000 000000    2586  	oct	100000000000
    005007  aa   162145 164141    2587  	oct	162145164141
    005010  aa   151156 151156    2588  	oct	151156151156
    005011  aa   147000 000000    2589  	oct	147000000000
    005012  aa   000467 000000    2590  	oct	000467000000
    005013  aa   000004 000000    2591  	oct	000004000000
    005014  aa   000000 000000    2592  	oct	000000000000
    005015  aa   162145 164162    2593  	oct	162145164162
    005016  aa   151145 166141    2594  	oct	151145166141
    005017  aa   154000 000000    2595  	oct	154000000000
    005020  aa   000435 000000    2596  	oct	000435000000
    005021  aa   000004 000000    2597  	oct	000004000000
    005022  aa   000000 000000    2598  	oct	000000000000
    005023  aa   777777 777777    2599  	oct	777777777777
    005024  aa   163145 143157    2600  	oct	163145143157
    005025  aa   156144 141162    2601  	oct	156144141162
    005026  aa   171000 000000    2602  	oct	171000000000
    005027  aa   000525 000000    2603  	oct	000525000000
    005030  aa   000004 000000    2604  	oct	000004000000
    005031  aa   000000 000000    2605  	oct	000000000000
    005032  aa   163145 154145    2606  	oct	163145154145
    005033  aa   143164 151157    2607  	oct	143164151157
    005034  aa   156000 000000    2608  	oct	156000000000
    005035  aa   000436 000000    2609  	oct	000436000000
    005036  aa   000004 000000    2610  	oct	000004000000
    005037  aa   000000 000000    2611  	oct	000000000000
    005040  aa   777777 777777    2612  	oct	777777777777
    005041  aa   164145 155160    2613  	oct	164145155160
    005042  aa   157162 141162    2614  	oct	157162141162
    005043  aa   171000 000000    2615  	oct	171000000000
    005044  aa   000631 000000    2616  	oct	000631000000
    005045  aa   000004 000000    2617  	oct	000004000000
    005046  aa   460000 000000    2618  	oct	460000000000
    005047  aa   164145 162155    2619  	oct	164145162155
    005050  aa   151156 141164    2620  	oct	151156141164
    005051  aa   145000 000000    2621  	oct	145000000000
    005052  aa   000044 444020    2622  	oct	000044444020
    005053  aa   000014 000036    2623  	oct	000014000036
    005054  aa   160000 000000    2624  	oct	160000000000
    005055  aa   164162 141156    2625  	oct	164162141156
    005056  aa   163146 157162    2626  	oct	163146157162
    005057  aa   155000 000000    2627  	oct	155000000000
    005060  aa   000063 440006    2628  	oct	000063440006
    005061  aa   000004 260001    2629  	oct	000004260001
    005062  aa   160000 000000    2630  	oct	160000000000
    005063  aa   777777 777777    2631  	oct	777777777777
    005064  aa   000000 000000    2632  	oct	000000000000
    005065  aa   000000 000000    2633  	oct	000000000000
    005066  aa   000000 000000    2634  	oct	000000000000
    005067  aa   000000 000000    2635  	oct	000000000000
    005070  aa   000000 000000    2636  	oct	000000000000
    005071  aa   000000 000000    2637  	oct	000000000000
    005072  aa   000000 000000    2638  	oct	000000000000
    005073  aa   000000 000000    2639  	oct	000000000000
    005074  aa   000000 000000    2640  	oct	000000000000
    005075  aa   000000 000000    2641  	oct	000000000000
    005076  aa   000000 000000    2642  	oct	000000000000
    005077  aa   000000 000000    2643  	oct	000000000000
    005100  aa   000000 000000    2644  	oct	000000000000
    005101  aa   000000 000000    2645  	oct	000000000000
    005102  aa   000000 000000    2646  	oct	000000000000
    005103  aa   000000 000000    2647  	oct	000000000000
    005104  aa   000000 000000    2648  	oct	000000000000
    005105  aa   000000 000000    2649  	oct	000000000000
    005106  aa   000000 000000    2650  	oct	000000000000
    005107  aa   000000 000000    2651  	oct	000000000000
    005110  aa   000000 000000    2652  	oct	000000000000
    005111  aa   000000 000000    2653  	oct	000000000000
    005112  aa   000000 000000    2654  	oct	000000000000
    005113  aa   000000 000000    2655  	oct	000000000000
    005114  aa   000000 000000    2656  	oct	000000000000
    005115  aa   000000 000000    2657  	oct	000000000000
    005116  aa   000000 000000    2658  	oct	000000000000
    005117  aa   000000 000000    2659  	oct	000000000000
    005120  aa   000000 000000    2660  	oct	000000000000
    005121  aa   000000 000000    2661  	oct	000000000000
    005122  aa   000000 000000    2662  	oct	000000000000
    005123  aa   000000 000000    2663  	oct	000000000000
    005124  aa   000000 000000    2664  	oct	000000000000
    005125  aa   000000 000000    2665  	oct	000000000000
    005126  aa   000000 000000    2666  	oct	000000000000
    005127  aa   000000 000000    2667  	oct	000000000000
    005130  aa   000000 000000    2668  	oct	000000000000
    005131  aa   000000 000000    2669  	oct	000000000000
    005132  aa   000000 000000    2670  	oct	000000000000
    005133  aa   000000 000000    2671  	oct	000000000000
    005134  aa   000000 000000    2672  	oct	000000000000
    005135  aa   000000 000000    2673  	oct	000000000000
    005136  aa   000000 000000    2674  	oct	000000000000
    005137  aa   000000 000000    2675  	oct	000000000000
    005140  aa   000000 000000    2676  	oct	000000000000
    005141  aa   000000 000000    2677  	oct	000000000000
    005142  aa   000000 000000    2678  	oct	000000000000
    005143  aa   000000 000000    2679  	oct	000000000000
    005144  aa   000000 000000    2680  	oct	000000000000
    005145  aa   000000 005177    2681  	oct	000000005177
    005146  aa   000000 000000    2682  	oct	000000000000
    005147  aa   000000 005214    2683  	oct	000000005214
    005150  aa   000000 005253    2684  	oct	000000005253
    005151  aa   000000 005320    2685  	oct	000000005320
    005152  aa   000000 000000    2686  	oct	000000000000
    005153  aa   000000 005357    2687  	oct	000000005357
    005154  aa   000000 005366    2688  	oct	000000005366
    005155  aa   000000 005375    2689  	oct	000000005375
    005156  aa   000000 000000    2690  	oct	000000000000
    005157  aa   000000 000000    2691  	oct	000000000000
    005160  aa   000000 005404    2692  	oct	000000005404
    005161  aa   000000 005413    2693  	oct	000000005413
    005162  aa   000000 000000    2694  	oct	000000000000
    005163  aa   000000 000000    2695  	oct	000000000000
    005164  aa   000000 005422    2696  	oct	000000005422
    005165  aa   000000 000000    2697  	oct	000000000000
    005166  aa   000000 005445    2698  	oct	000000005445
    005167  aa   000000 005462    2699  	oct	000000005462
    005170  aa   000000 000000    2700  	oct	000000000000
    005171  aa   000000 005535    2701  	oct	000000005535
    005172  aa   000000 000000    2702  	oct	000000000000
    005173  aa   000000 000000    2703  	oct	000000000000
    005174  aa   000000 000000    2704  	oct	000000000000
    005175  aa   000000 000000    2705  	oct	000000000000
    005176  aa   000000 000000    2706  	oct	000000000000
    005177  aa   141144 144151    2707  	oct	141144144151
    005200  aa   164151 157156    2708  	oct	164151157156
    005201  aa   141154 000000    2709  	oct	141154000000
    005202  aa   000643 000000    2710  	oct	000643000000
    005203  aa   000004 000000    2711  	oct	000004000000
    005204  aa   440000 000000    2712  	oct	440000000000
    005205  aa   141154 160150    2713  	oct	141154160150
    005206  aa   141142 145164    2714  	oct	141142145164
    005207  aa   151143 000000    2715  	oct	151143000000
    005210  aa   000112 000002    2716  	oct	000112000002
    005211  aa   000004 000000    2717  	oct	000004000000
    005212  aa   140000 000000    2718  	oct	140000000000
    005213  aa   777777 777777    2719  	oct	777777777777
    005214  aa   143141 164141    2720  	oct	143141164141
    005215  aa   154157 147165    2721  	oct	154157147165
    005216  aa   145144 000000    2722  	oct	145144000000
    005217  aa   000701 000000    2723  	oct	000701000000
    005220  aa   000004 000000    2724  	oct	000004000000
    005221  aa   000000 000000    2725  	oct	000000000000
    005222  aa   143150 141162    2726  	oct	143150141162
    005223  aa   141143 164145    2727  	oct	141143164145
    005224  aa   162163 000000    2728  	oct	162163000000
    005225  aa   000123 000002    2729  	oct	000123000002
    005226  aa   000004 000000    2730  	oct	000004000000
    005227  aa   700000 000000    2731  	oct	700000000000
    005230  aa   143157 156143    2732  	oct	143157156143
    005231  aa   165162 162145    2733  	oct	165162162145
    005232  aa   156164 000000    2734  	oct	156164000000
    005233  aa   000705 000000    2735  	oct	000705000000
    005234  aa   000004 000000    2736  	oct	000004000000
    005235  aa   000000 000000    2737  	oct	000000000000
    005236  aa   143157 156166    2738  	oct	143157156166
    005237  aa   145162 163151    2739  	oct	145162163151
    005240  aa   157156 000000    2740  	oct	157156000000
    005241  aa   001007 000002    2741  	oct	001007000002
    005242  aa   000004 000001    2742  	oct	000004000001
    005243  aa   040000 000000    2743  	oct	040000000000
    005244  aa   143163 055147    2744  	oct	143163055147
    005245  aa   145156 145162    2745  	oct	145156145162
    005246  aa   141154 000000    2746  	oct	141154000000
    005247  aa   000711 000000    2747  	oct	000711000000
    005250  aa   000004 000000    2748  	oct	000004000000
    005251  aa   040000 000000    2749  	oct	040000000000
    005252  aa   777777 777777    2750  	oct	777777777777
    005253  aa   144145 142165    2751  	oct	144145142165
    005254  aa   147055 151164    2752  	oct	147055151164
    005255  aa   145155 000000    2753  	oct	145155000000
    005256  aa   001023 000016    2754  	oct	001023000016
    005257  aa   000004 320000    2755  	oct	000004320000
    005260  aa   000000 000000    2756  	oct	000000000000
    005261  aa   144145 142165    2757  	oct	144145142165
    005262  aa   147055 154151    2758  	oct	147055154151
    005263  aa   156145 000000    2759  	oct	156145000000
    005264  aa   001024 000016    2760  	oct	001024000016
    005265  aa   000004 320000    2761  	oct	000004320000
    005266  aa   040000 000000    2762  	oct	040000000000
    005267  aa   144145 142165    2763  	oct	144145142165
    005270  aa   147055 156141    2764  	oct	147055156141
    005271  aa   155145 000000    2765  	oct	155145000000
    005272  aa   001031 000016    2766  	oct	001031000016
    005273  aa   000004 320000    2767  	oct	000004320000
    005274  aa   040000 000000    2768  	oct	040000000000
    005275  aa   144145 163143    2769  	oct	144145163143
    005276  aa   145156 144151    2770  	oct	145156144151
    005277  aa   156147 000000    2771  	oct	156147000000
    005300  aa   000135 000002    2772  	oct	000135000002
    005301  aa   000004 000000    2773  	oct	000004000000
    005302  aa   300000 000000    2774  	oct	300000000000
    005303  aa   144151 163143    2775  	oct	144151163143
    005304  aa   157156 156145    2776  	oct	157156156145
    005305  aa   143164 000000    2777  	oct	143164000000
    005306  aa   000412 000000    2778  	oct	000412000000
    005307  aa   000004 000000    2779  	oct	000004000000
    005310  aa   000000 000000    2780  	oct	000000000000
    005311  aa   144165 160154    2781  	oct	144165160154
    005312  aa   151143 141164    2782  	oct	151143141164
    005313  aa   145163 000000    2783  	oct	145163000000
    005314  aa   000343 000002    2784  	oct	000343000002
    005315  aa   000004 000000    2785  	oct	000004000000
    005316  aa   440000 000000    2786  	oct	440000000000
    005317  aa   777777 777777    2787  	oct	777777777777
    005320  aa   145156 144055    2788  	oct	145156144055
    005321  aa   144145 154145    2789  	oct	144145154145
    005322  aa   164145 000000    2790  	oct	164145000000
    005323  aa   000725 000000    2791  	oct	000725000000
    005324  aa   000004 000000    2792  	oct	000004000000
    005325  aa   100000 000000    2793  	oct	100000000000
    005326  aa   145156 144055    2794  	oct	145156144055
    005327  aa   144151 166151    2795  	oct	144151166151
    005330  aa   144145 000000    2796  	oct	144145000000
    005331  aa   000726 000000    2797  	oct	000726000000
    005332  aa   000004 000000    2798  	oct	000004000000
    005333  aa   140000 000000    2799  	oct	140000000000
    005334  aa   145156 144055    2800  	oct	145156144055
    005335  aa   162145 164165    2801  	oct	162145164165
    005336  aa   162156 000000    2802  	oct	162156000000
    005337  aa   000735 000000    2803  	oct	000735000000
    005340  aa   000004 000000    2804  	oct	000004000000
    005341  aa   100000 000000    2805  	oct	100000000000
    005342  aa   145156 144055    2806  	oct	145156144055
    005343  aa   163145 141162    2807  	oct	163145141162
    005344  aa   143150 000000    2808  	oct	143150000000
    005345  aa   000737 000000    2809  	oct	000737000000
    005346  aa   000004 000000    2810  	oct	000004000000
    005347  aa   100000 000000    2811  	oct	100000000000
    005350  aa   145156 144055    2812  	oct	145156144055
    005351  aa   163164 162151    2813  	oct	163164162151
    005352  aa   156147 000000    2814  	oct	156147000000
    005353  aa   000741 000000    2815  	oct	000741000000
    005354  aa   000004 000000    2816  	oct	000004000000
    005355  aa   140000 000000    2817  	oct	140000000000
    005356  aa   777777 777777    2818  	oct	777777777777
    005357  aa   147145 156145    2819  	oct	147145156145
    005360  aa   162141 164151    2820  	oct	162141164151
    005361  aa   157156 000000    2821  	oct	157156000000
    005362  aa   000644 000000    2822  	oct	000644000000
    005363  aa   000004 000000    2823  	oct	000004000000
    005364  aa   400000 000000    2824  	oct	400000000000
    005365  aa   777777 777777    2825  	oct	777777777777
    005366  aa   150151 147150    2826  	oct	150151147150
    005367  aa   055166 141154    2827  	oct	055166141154
    005370  aa   165145 000000    2828  	oct	165145000000
    005371  aa   000335 100002    2829  	oct	000335100002
    005372  aa   005004 000000    2830  	oct	005004000000
    005373  aa   700000 000000    2831  	oct	700000000000
    005374  aa   777777 777777    2832  	oct	777777777777
    005375  aa   151156 151164    2833  	oct	151156151164
    005376  aa   151141 154151    2834  	oct	151141154151
    005377  aa   172145 000000    2835  	oct	172145000000
    005400  aa   000015 444010    2836  	oct	000015444010
    005401  aa   000104 005001    2837  	oct	000104005001
    005402  aa   140000 000000    2838  	oct	140000000000
    005403  aa   777777 777777    2839  	oct	777777777777
    005404  aa   154157 167055    2840  	oct	154157167055
    005405  aa   166141 154165    2841  	oct	166141154165
    005406  aa   145163 000000    2842  	oct	145163000000
    005407  aa   000345 120002    2843  	oct	000345120002
    005410  aa   006004 000000    2844  	oct	006004000000
    005411  aa   700000 000000    2845  	oct	700000000000
    005412  aa   777777 777777    2846  	oct	777777777777
    005413  aa   155145 155142    2847  	oct	155145155142
    005414  aa   145162 163150    2848  	oct	145162163150
    005415  aa   151160 000000    2849  	oct	151160000000
    005416  aa   000664 000000    2850  	oct	000664000000
    005417  aa   000004 000000    2851  	oct	000004000000
    005420  aa   040000 000000    2852  	oct	040000000000
    005421  aa   777777 777777    2853  	oct	777777777777
    005422  aa   160162 157143    2854  	oct	160162157143
    005423  aa   145144 165162    2855  	oct	145144165162
    005424  aa   145163 000000    2856  	oct	145163000000
    005425  aa   000217 000002    2857  	oct	000217000002
    005426  aa   000004 000000    2858  	oct	000004000000
    005427  aa   100000 000000    2859  	oct	100000000000
    005430  aa   160162 157143    2860  	oct	160162157143
    005431  aa   145163 163151    2861  	oct	145163163151
    005432  aa   156147 000000    2862  	oct	156147000000
    005433  aa   000221 000002    2863  	oct	000221000002
    005434  aa   000004 000001    2864  	oct	000004000001
    005435  aa   100000 000000    2865  	oct	100000000000
    005436  aa   160162 157147    2866  	oct	160162157147
    005437  aa   162141 155055    2867  	oct	162141155055
    005440  aa   151144 000000    2868  	oct	151144000000
    005441  aa   001107 000002    2869  	oct	001107000002
    005442  aa   000414 000026    2870  	oct	000414000026
    005443  aa   400000 000000    2871  	oct	400000000000
    005444  aa   777777 777777    2872  	oct	777777777777
    005445  aa   162145 141154    2873  	oct	162145141154
    005446  aa   155055 156141    2874  	oct	155055156141
    005447  aa   155145 000000    2875  	oct	155145000000
    005450  aa   000430 000000    2876  	oct	000430000000
    005451  aa   000004 000000    2877  	oct	000004000000
    005452  aa   000000 000000    2878  	oct	000000000000
    005453  aa   162145 146145    2879  	oct	162145146145
    005454  aa   162145 156143    2880  	oct	162145156143
    005455  aa   145163 000000    2881  	oct	145163000000
    005456  aa   000226 000002    2882  	oct	000226000002
    005457  aa   000004 000000    2883  	oct	000004000000
    005460  aa   100000 000000    2884  	oct	100000000000
    005461  aa   777777 777777    2885  	oct	777777777777
    005462  aa   163145 161165    2886  	oct	163145161165
    005463  aa   145156 164151    2887  	oct	145156164151
    005464  aa   141154 000000    2888  	oct	141154000000
    005465  aa   001125 000002    2889  	oct	001125000002
    005466  aa   000004 000000    2890  	oct	000004000000
    005467  aa   400000 000000    2891  	oct	400000000000
    005470  aa   163157 162164    2892  	oct	163157162164
    005471  aa   055155 145162    2893  	oct	055155145162
    005472  aa   147145 000000    2894  	oct	147145000000
    005473  aa   001126 000002    2895  	oct	001126000002
    005474  aa   000004 000000    2896  	oct	000004000000
    005475  aa   400000 000000    2897  	oct	400000000000
    005476  aa   163164 141156    2898  	oct	163164141156
    005477  aa   144141 162144    2899  	oct	144141162144
    005500  aa   055061 000000    2900  	oct	055061000000
    005501  aa   000771 000000    2901  	oct	000771000000
    005502  aa   006004 000000    2902  	oct	006004000000
    005503  aa   400000 000000    2903  	oct	400000000000
    005504  aa   163164 141156    2904  	oct	163164141156
    005505  aa   144141 162144    2905  	oct	144141162144
    005506  aa   055062 000000    2906  	oct	055062000000
    005507  aa   000320 000000    2907  	oct	000320000000
    005510  aa   000004 000001    2908  	oct	000004000001
    005511  aa   460000 000000    2909  	oct	460000000000
    005512  aa   163165 142055    2910  	oct	163165142055
    005513  aa   163143 150145    2911  	oct	163143150145
    005514  aa   155141 000000    2912  	oct	155141000000
    005515  aa   000451 000000    2913  	oct	000451000000
    005516  aa   000404 000000    2914  	oct	000404000000
    005517  aa   000000 000000    2915  	oct	000000000000
    005520  aa   163165 142163    2916  	oct	163165142163
    005521  aa   164151 164165    2917  	oct	164151164165
    005522  aa   164145 000000    2918  	oct	164145000000
    005523  aa   000307 000000    2919  	oct	000307000000
    005524  aa   000004 000000    2920  	oct	000004000000
    005525  aa   060000 000000    2921  	oct	060000000000
    005526  aa   163165 160145    2922  	oct	163165160145
    005527  aa   162166 151163    2923  	oct	162166151163
    005530  aa   157162 000000    2924  	oct	157162000000
    005531  aa   001134 000000    2925  	oct	001134000000
    005532  aa   000004 000000    2926  	oct	000004000000
    005533  aa   000000 000000    2927  	oct	000000000000
    005534  aa   777777 777777    2928  	oct	777777777777
    005535  aa   165163 141147    2929  	oct	165163141147
    005536  aa   145055 155157    2930  	oct	145055155157
    005537  aa   144145 000000    2931  	oct	144145000000
    005540  aa   000461 000000    2932  	oct	000461000000
    005541  aa   000004 000000    2933  	oct	000004000000
    005542  aa   000000 000000    2934  	oct	000000000000
    005543  aa   777777 777777    2935  	oct	777777777777
    005544  aa   000000 000000    2936  	oct	000000000000
    005545  aa   000000 000000    2937  	oct	000000000000
    005546  aa   000000 000000    2938  	oct	000000000000
    005547  aa   000000 000000    2939  	oct	000000000000
    005550  aa   000000 000000    2940  	oct	000000000000
    005551  aa   000000 000000    2941  	oct	000000000000
    005552  aa   000000 000000    2942  	oct	000000000000
    005553  aa   000000 000000    2943  	oct	000000000000
    005554  aa   000000 000000    2944  	oct	000000000000
    005555  aa   000000 000000    2945  	oct	000000000000
    005556  aa   000000 000000    2946  	oct	000000000000
    005557  aa   000000 000000    2947  	oct	000000000000
    005560  aa   000000 000000    2948  	oct	000000000000
    005561  aa   000000 000000    2949  	oct	000000000000
    005562  aa   000000 000000    2950  	oct	000000000000
    005563  aa   000000 000000    2951  	oct	000000000000
    005564  aa   000000 000000    2952  	oct	000000000000
    005565  aa   000000 000000    2953  	oct	000000000000
    005566  aa   000000 000000    2954  	oct	000000000000
    005567  aa   000000 000000    2955  	oct	000000000000
    005570  aa   000000 000000    2956  	oct	000000000000
    005571  aa   000000 000000    2957  	oct	000000000000
    005572  aa   000000 000000    2958  	oct	000000000000
    005573  aa   000000 000000    2959  	oct	000000000000
    005574  aa   000000 000000    2960  	oct	000000000000
    005575  aa   000000 000000    2961  	oct	000000000000
    005576  aa   000000 000000    2962  	oct	000000000000
    005577  aa   000000 000000    2963  	oct	000000000000
    005600  aa   000000 000000    2964  	oct	000000000000
    005601  aa   000000 000000    2965  	oct	000000000000
    005602  aa   000000 000000    2966  	oct	000000000000
    005603  aa   000000 000000    2967  	oct	000000000000
    005604  aa   000000 000000    2968  	oct	000000000000
    005605  aa   000000 000000    2969  	oct	000000000000
    005606  aa   000000 000000    2970  	oct	000000000000
    005607  aa   000000 000000    2971  	oct	000000000000
    005610  aa   000000 000000    2972  	oct	000000000000
    005611  aa   000000 000000    2973  	oct	000000000000
    005612  aa   000000 000000    2974  	oct	000000000000
    005613  aa   000000 000000    2975  	oct	000000000000
    005614  aa   000000 000000    2976  	oct	000000000000
    005615  aa   000000 000000    2977  	oct	000000000000
    005616  aa   000000 000000    2978  	oct	000000000000
    005617  aa   000000 000000    2979  	oct	000000000000
    005620  aa   000000 000000    2980  	oct	000000000000
    005621  aa   000000 000000    2981  	oct	000000000000
    005622  aa   000000 000000    2982  	oct	000000000000
    005623  aa   000000 000000    2983  	oct	000000000000
    005624  aa   000000 000000    2984  	oct	000000000000
    005625  aa   000000 000000    2985  	oct	000000000000
    005626  aa   000000 000000    2986  	oct	000000000000
    005627  aa   000000 005657    2987  	oct	000000005657
    005630  aa   000000 005666    2988  	oct	000000005666
    005631  aa   000000 005741    2989  	oct	000000005741
    005632  aa   000000 000000    2990  	oct	000000000000
    005633  aa   000000 000000    2991  	oct	000000000000
    005634  aa   000000 006006    2992  	oct	000000006006
    005635  aa   000000 006015    2993  	oct	000000006015
    005636  aa   000000 000000    2994  	oct	000000000000
    005637  aa   000000 000000    2995  	oct	000000000000
    005640  aa   000000 000000    2996  	oct	000000000000
    005641  aa   000000 000000    2997  	oct	000000000000
    005642  aa   000000 000000    2998  	oct	000000000000
    005643  aa   000000 006032    2999  	oct	000000006032
    005644  aa   000000 006047    3000  	oct	000000006047
    005645  aa   000000 000000    3001  	oct	000000000000
    005646  aa   000000 006056    3002  	oct	000000006056
    005647  aa   000000 006073    3003  	oct	000000006073
    005650  aa   000000 000000    3004  	oct	000000000000
    005651  aa   000000 000000    3005  	oct	000000000000
    005652  aa   000000 000000    3006  	oct	000000000000
    005653  aa   000000 000000    3007  	oct	000000000000
    005654  aa   000000 000000    3008  	oct	000000000000
    005655  aa   000000 000000    3009  	oct	000000000000
    005656  aa   000000 000000    3010  	oct	000000000000
    005657  aa   143154 157143    3011  	oct	143154157143
    005660  aa   153055 165156    3012  	oct	153055165156
    005661  aa   151164 163000    3013  	oct	151164163000
    005662  aa   001001 000002    3014  	oct	001001000002
    005663  aa   000004 000000    3015  	oct	000004000000
    005664  aa   440000 000000    3016  	oct	440000000000
    005665  aa   777777 777777    3017  	oct	777777777777
    005666  aa   144141 171055    3018  	oct	144141171055
    005667  aa   157146 055167    3019  	oct	157146055167
    005670  aa   145145 153000    3020  	oct	145145153000
    005671  aa   000506 000000    3021  	oct	000506000000
    005672  aa   000004 000000    3022  	oct	000004000000
    005673  aa   100000 000000    3023  	oct	100000000000
    005674  aa   144142 055163    3024  	oct	144142055163
    005675  aa   145164 055156    3025  	oct	145164055156
    005676  aa   141155 145000    3026  	oct	141155145000
    005677  aa   000716 000000    3027  	oct	000716000000
    005700  aa   000004 000000    3028  	oct	000004000000
    005701  aa   040000 000000    3029  	oct	040000000000
    005702  aa   144145 142165    3030  	oct	144145142165
    005703  aa   147055 163165    3031  	oct	147055163165
    005704  aa   142055 061000    3032  	oct	142055061000
    005705  aa   001025 000016    3033  	oct	001025000016
    005706  aa   000004 320000    3034  	oct	000004320000
    005707  aa   040000 000000    3035  	oct	040000000000
    005710  aa   144145 142165    3036  	oct	144145142165
    005711  aa   147055 163165    3037  	oct	147055163165
    005712  aa   142055 062000    3038  	oct	142055062000
    005713  aa   001026 000016    3039  	oct	001026000016
    005714  aa   000004 320000    3040  	oct	000004320000
    005715  aa   006000 000000    3041  	oct	006000000000
    005716  aa   144145 142165    3042  	oct	144145142165
    005717  aa   147055 163165    3043  	oct	147055163165
    005720  aa   142055 063000    3044  	oct	142055063000
    005721  aa   001027 000016    3045  	oct	001027000016
    005722  aa   000004 320000    3046  	oct	000004320000
    005723  aa   000000 000000    3047  	oct	000000000000
    005724  aa   144145 163143    3048  	oct	144145163143
    005725  aa   162151 160164    3049  	oct	162151160164
    005726  aa   157162 163000    3050  	oct	157162163000
    005727  aa   000305 000000    3051  	oct	000305000000
    005730  aa   000004 000000    3052  	oct	000004000000
    005731  aa   400000 000000    3053  	oct	400000000000
    005732  aa   144145 163164    3054  	oct	144145163164
    005733  aa   151156 141164    3055  	oct	151156141164
    005734  aa   151157 156000    3056  	oct	151157156000
    005735  aa   000332 000042    3057  	oct	000332000042
    005736  aa   003004 000000    3058  	oct	003004000000
    005737  aa   240000 000000    3059  	oct	240000000000
    005740  aa   777777 777777    3060  	oct	777777777777
    005741  aa   145156 144055    3061  	oct	145156144055
    005742  aa   143157 155160    3062  	oct	143157155160
    005743  aa   165164 145000    3063  	oct	165164145000
    005744  aa   000724 000000    3064  	oct	000724000000
    005745  aa   000004 000000    3065  	oct	000004000000
    005746  aa   100000 000000    3066  	oct	100000000000
    005747  aa   145156 144055    3067  	oct	145156144055
    005750  aa   157146 055160    3068  	oct	157146055160
    005751  aa   141147 145000    3069  	oct	141147145000
    005752  aa   000144 000002    3070  	oct	000144000002
    005753  aa   000004 000000    3071  	oct	000004000000
    005754  aa   140000 000000    3072  	oct	140000000000
    005755  aa   145156 144055    3073  	oct	145156144055
    005756  aa   160145 162146    3074  	oct	160145162146
    005757  aa   157162 155000    3075  	oct	157162155000
    005760  aa   000732 000000    3076  	oct	000732000000
    005761  aa   000004 000000    3077  	oct	000004000000
    005762  aa   140000 000000    3078  	oct	140000000000
    005763  aa   145156 144055    3079  	oct	145156144055
    005764  aa   162145 143145    3080  	oct	162145143145
    005765  aa   151166 145000    3081  	oct	151166145000
    005766  aa   000734 000000    3082  	oct	000734000000
    005767  aa   000004 000000    3083  	oct	000004000000
    005770  aa   100000 000000    3084  	oct	100000000000
    005771  aa   145156 144055    3085  	oct	145156144055
    005772  aa   162145 167162    3086  	oct	162145167162
    005773  aa   151164 145000    3087  	oct	151164145000
    005774  aa   000736 000000    3088  	oct	000736000000
    005775  aa   000004 000000    3089  	oct	000004000000
    005776  aa   150000 000000    3090  	oct	150000000000
    005777  aa   145156 166151    3091  	oct	145156166151
    006000  aa   162157 156155    3092  	oct	162157156155
    006001  aa   145156 164000    3093  	oct	145156164000
    006002  aa   001034 000002    3094  	oct	001034000002
    006003  aa   000424 000140    3095  	oct	000424000140
    006004  aa   414000 000000    3096  	oct	414000000000
    006005  aa   777777 777777    3097  	oct	777777777777
    006006  aa   150151 147150    3098  	oct	150151147150
    006007  aa   055166 141154    3099  	oct	055166141154
    006010  aa   165145 163000    3100  	oct	165145163000
    006011  aa   000335 120002    3101  	oct	000335120002
    006012  aa   005004 000000    3102  	oct	005004000000
    006013  aa   700000 000000    3103  	oct	700000000000
    006014  aa   777777 777777    3104  	oct	777777777777
    006015  aa   151055 157055    3105  	oct	151055157055
    006016  aa   143157 156164    3106  	oct	143157156164
    006017  aa   162157 154000    3107  	oct	162157154000
    006020  aa   001047 000003    3108  	oct	001047000003
    006021  aa   000404 000000    3109  	oct	000404000000
    006022  aa   400000 000000    3110  	oct	400000000000
    006023  aa   151156 164145    3111  	oct	151156164145
    006024  aa   162143 150141    3112  	oct	162143150141
    006025  aa   156147 145000    3113  	oct	156147145000
    006026  aa   000507 000000    3114  	oct	000507000000
    006027  aa   000004 000000    3115  	oct	000004000000
    006030  aa   000000 000000    3116  	oct	000000000000
    006031  aa   777777 777777    3117  	oct	777777777777
    006032  aa   157160 145162    3118  	oct	157160145162
    006033  aa   141164 151157    3119  	oct	141164151157
    006034  aa   156141 154000    3120  	oct	156141154000
    006035  aa   000671 000000    3121  	oct	000671000000
    006036  aa   000004 000000    3122  	oct	000004000000
    006037  aa   040000 000000    3123  	oct	040000000000
    006040  aa   157165 164160    3124  	oct	157165164160
    006041  aa   165164 055155    3125  	oct	165164055155
    006042  aa   157144 145000    3126  	oct	157144145000
    006043  aa   000630 000000    3127  	oct	000630000000
    006044  aa   000004 000000    3128  	oct	000004000000
    006045  aa   400000 000000    3129  	oct	400000000000
    006046  aa   777777 777777    3130  	oct	777777777777
    006047  aa   160162 145141    3131  	oct	160162145141
    006050  aa   164164 141143    3132  	oct	164164141143
    006051  aa   150145 144000    3133  	oct	150145144000
    006052  aa   000310 000000    3134  	oct	000310000000
    006053  aa   000004 000000    3135  	oct	000004000000
    006054  aa   022000 000000    3136  	oct	022000000000
    006055  aa   777777 777777    3137  	oct	777777777777
    006056  aa   162145 143157    3138  	oct	162145143157
    006057  aa   162144 055156    3139  	oct	162144055156
    006060  aa   141155 145000    3140  	oct	141155145000
    006061  aa   000432 000000    3141  	oct	000432000000
    006062  aa   000004 000000    3142  	oct	000004000000
    006063  aa   000000 000000    3143  	oct	000000000000
    006064  aa   162145 160154    3144  	oct	162145160154
    006065  aa   141143 145155    3145  	oct	141143145155
    006066  aa   145156 164000    3146  	oct	145156164000
    006067  aa   000660 000000    3147  	oct	000660000000
    006070  aa   000004 000000    3148  	oct	000004000000
    006071  aa   462000 000000    3149  	oct	462000000000
    006072  aa   777777 777777    3150  	oct	777777777777
    006073  aa   163165 142055    3151  	oct	163165142055
    006074  aa   161165 145165    3152  	oct	161165145165
    006075  aa   145055 061000    3153  	oct	145055061000
    006076  aa   000370 000102    3154  	oct	000370000102
    006077  aa   000004 000000    3155  	oct	000004000000
    006100  aa   260000 000000    3156  	oct	260000000000
    006101  aa   163165 142055    3157  	oct	163165142055
    006102  aa   161165 145165    3158  	oct	161165145165
    006103  aa   145055 062000    3159  	oct	145055062000
    006104  aa   000371 000102    3160  	oct	000371000102
    006105  aa   000004 000000    3161  	oct	000004000000
    006106  aa   200000 000000    3162  	oct	200000000000
    006107  aa   163165 142055    3163  	oct	163165142055
    006110  aa   161165 145165    3164  	oct	161165145165
    006111  aa   145055 063000    3165  	oct	145055063000
    006112  aa   000372 000102    3166  	oct	000372000102
    006113  aa   000004 000000    3167  	oct	000004000000
    006114  aa   200000 000000    3168  	oct	200000000000
    006115  aa   777777 777777    3169  	oct	777777777777
    006116  aa   000000 000000    3170  	oct	000000000000
    006117  aa   000000 000000    3171  	oct	000000000000
    006120  aa   000000 000000    3172  	oct	000000000000
    006121  aa   000000 000000    3173  	oct	000000000000
    006122  aa   000000 000000    3174  	oct	000000000000
    006123  aa   000000 000000    3175  	oct	000000000000
    006124  aa   000000 000000    3176  	oct	000000000000
    006125  aa   000000 000000    3177  	oct	000000000000
    006126  aa   000000 000000    3178  	oct	000000000000
    006127  aa   000000 000000    3179  	oct	000000000000
    006130  aa   000000 000000    3180  	oct	000000000000
    006131  aa   000000 000000    3181  	oct	000000000000
    006132  aa   000000 000000    3182  	oct	000000000000
    006133  aa   000000 000000    3183  	oct	000000000000
    006134  aa   000000 000000    3184  	oct	000000000000
    006135  aa   000000 000000    3185  	oct	000000000000
    006136  aa   000000 000000    3186  	oct	000000000000
    006137  aa   000000 000000    3187  	oct	000000000000
    006140  aa   000000 000000    3188  	oct	000000000000
    006141  aa   000000 000000    3189  	oct	000000000000
    006142  aa   000000 000000    3190  	oct	000000000000
    006143  aa   000000 000000    3191  	oct	000000000000
    006144  aa   000000 000000    3192  	oct	000000000000
    006145  aa   000000 000000    3193  	oct	000000000000
    006146  aa   000000 000000    3194  	oct	000000000000
    006147  aa   000000 000000    3195  	oct	000000000000
    006150  aa   000000 000000    3196  	oct	000000000000
    006151  aa   000000 000000    3197  	oct	000000000000
    006152  aa   000000 000000    3198  	oct	000000000000
    006153  aa   000000 000000    3199  	oct	000000000000
    006154  aa   000000 000000    3200  	oct	000000000000
    006155  aa   000000 000000    3201  	oct	000000000000
    006156  aa   000000 000000    3202  	oct	000000000000
    006157  aa   000000 000000    3203  	oct	000000000000
    006160  aa   000000 000000    3204  	oct	000000000000
    006161  aa   000000 000000    3205  	oct	000000000000
    006162  aa   000000 000000    3206  	oct	000000000000
    006163  aa   000000 000000    3207  	oct	000000000000
    006164  aa   000000 000000    3208  	oct	000000000000
    006165  aa   000000 000000    3209  	oct	000000000000
    006166  aa   000000 000000    3210  	oct	000000000000
    006167  aa   000000 000000    3211  	oct	000000000000
    006170  aa   000000 000000    3212  	oct	000000000000
    006171  aa   000000 000000    3213  	oct	000000000000
    006172  aa   000000 000000    3214  	oct	000000000000
    006173  aa   000000 000000    3215  	oct	000000000000
    006174  aa   000000 000000    3216  	oct	000000000000
    006175  aa   000000 000000    3217  	oct	000000000000
    006176  aa   000000 000000    3218  	oct	000000000000
    006177  aa   000000 006231    3219  	oct	000000006231
    006200  aa   000000 000000    3220  	oct	000000000000
    006201  aa   000000 006240    3221  	oct	000000006240
    006202  aa   000000 006247    3222  	oct	000000006247
    006203  aa   000000 006264    3223  	oct	000000006264
    006204  aa   000000 006315    3224  	oct	000000006315
    006205  aa   000000 000000    3225  	oct	000000000000
    006206  aa   000000 000000    3226  	oct	000000000000
    006207  aa   000000 006324    3227  	oct	000000006324
    006210  aa   000000 000000    3228  	oct	000000000000
    006211  aa   000000 006341    3229  	oct	000000006341
    006212  aa   000000 006350    3230  	oct	000000006350
    006213  aa   000000 006357    3231  	oct	000000006357
    006214  aa   000000 000000    3232  	oct	000000000000
    006215  aa   000000 006366    3233  	oct	000000006366
    006216  aa   000000 006375    3234  	oct	000000006375
    006217  aa   000000 000000    3235  	oct	000000000000
    006220  aa   000000 000000    3236  	oct	000000000000
    006221  aa   000000 006404    3237  	oct	000000006404
    006222  aa   000000 006421    3238  	oct	000000006421
    006223  aa   000000 000000    3239  	oct	000000000000
    006224  aa   000000 000000    3240  	oct	000000000000
    006225  aa   000000 000000    3241  	oct	000000000000
    006226  aa   000000 000000    3242  	oct	000000000000
    006227  aa   000000 000000    3243  	oct	000000000000
    006230  aa   000000 000000    3244  	oct	000000000000
    006231  aa   141154 160150    3245  	oct	141154160150
    006232  aa   141156 165155    3246  	oct	141156165155
    006233  aa   145162 151143    3247  	oct	145162151143
    006234  aa   000113 000002    3248  	oct	000113000002
    006235  aa   000004 000000    3249  	oct	000004000000
    006236  aa   100000 000000    3250  	oct	100000000000
    006237  aa   777777 777777    3251  	oct	777777777777
    006240  aa   143141 164141    3252  	oct	143141164141
    006241  aa   154157 147055    3253  	oct	154157147055
    006242  aa   156141 155145    3254  	oct	156141155145
    006243  aa   000513 000000    3255  	oct	000513000000
    006244  aa   000004 000000    3256  	oct	000004000000
    006245  aa   600000 000000    3257  	oct	600000000000
    006246  aa   777777 777777    3258  	oct	777777777777
    006247  aa   144141 164145    3259  	oct	144141164145
    006250  aa   055167 162151    3260  	oct	055167162151
    006251  aa   164164 145156    3261  	oct	164164145156
    006252  aa   001020 000002    3262  	oct	001020000002
    006253  aa   000014 000030    3263  	oct	000014000030
    006254  aa   400000 000000    3264  	oct	400000000000
    006255  aa   144145 143154    3265  	oct	144145143154
    006256  aa   141162 141164    3266  	oct	141162141164
    006257  aa   151166 145163    3267  	oct	151166145163
    006260  aa   000131 000002    3268  	oct	000131000002
    006261  aa   000454 000254    3269  	oct	000454000254
    006262  aa   140000 000000    3270  	oct	140000000000
    006263  aa   777777 777777    3271  	oct	777777777777
    006264  aa   145156 144055    3272  	oct	145156144055
    006265  aa   145166 141154    3273  	oct	145166141154
    006266  aa   165141 164145    3274  	oct	165141164145
    006267  aa   000727 000000    3275  	oct	000727000000
    006270  aa   000004 000000    3276  	oct	000004000000
    006271  aa   140000 000000    3277  	oct	140000000000
    006272  aa   145156 144055    3278  	oct	145156144055
    006273  aa   155165 154164    3279  	oct	155165154164
    006274  aa   151160 154171    3280  	oct	151160154171
    006275  aa   000731 000000    3281  	oct	000731000000
    006276  aa   000004 000000    3282  	oct	000004000000
    006277  aa   100000 000000    3283  	oct	100000000000
    006300  aa   145156 144055    3284  	oct	145156144055
    006301  aa   163165 142164    3285  	oct	163165142164
    006302  aa   162141 143164    3286  	oct	162141143164
    006303  aa   000742 000000    3287  	oct	000742000000
    006304  aa   000004 000000    3288  	oct	000004000000
    006305  aa   176000 000000    3289  	oct	176000000000
    006306  aa   145156 144055    3290  	oct	145156144055
    006307  aa   165156 163164    3291  	oct	165156163164
    006310  aa   162151 156147    3292  	oct	162151156147
    006311  aa   000743 000000    3293  	oct	000743000000
    006312  aa   000004 000000    3294  	oct	000004000000
    006313  aa   140000 000000    3295  	oct	140000000000
    006314  aa   777777 777777    3296  	oct	777777777777
    006315  aa   146151 154145    3297  	oct	146151154145
    006316  aa   055143 157156    3298  	oct	055143157156
    006317  aa   164162 157154    3299  	oct	164162157154
    006320  aa   001037 000003    3300  	oct	001037000003
    006321  aa   000404 000000    3301  	oct	000404000000
    006322  aa   400000 000000    3302  	oct	400000000000
    006323  aa   777777 777777    3303  	oct	777777777777
    006324  aa   151156 160165    3304  	oct	151156160165
    006325  aa   164055 157165    3305  	oct	164055157165
    006326  aa   164160 165164    3306  	oct	164160165164
    006327  aa   000167 000003    3307  	oct	000167000003
    006330  aa   000404 000000    3308  	oct	000404000000
    006331  aa   440000 000000    3309  	oct	440000000000
    006332  aa   151156 163164    3310  	oct	151156163164
    006333  aa   141154 154141    3311  	oct	141154154141
    006334  aa   164151 157156    3312  	oct	164151157156
    006335  aa   001052 000002    3313  	oct	001052000002
    006336  aa   000014 000030    3314  	oct	000014000030
    006337  aa   440000 000000    3315  	oct	440000000000
    006340  aa   777777 777777    3316  	oct	777777777777
    006341  aa   153145 171055    3317  	oct	153145171055
    006342  aa   154157 143141    3318  	oct	154157143141
    006343  aa   164151 157156    3319  	oct	164151157156
    006344  aa   000655 000000    3320  	oct	000655000000
    006345  aa   000004 000000    3321  	oct	000004000000
    006346  aa   040000 000000    3322  	oct	040000000000
    006347  aa   777777 777777    3323  	oct	777777777777
    006350  aa   154151 156145    3324  	oct	154151156145
    006351  aa   055143 157165    3325  	oct	055143157165
    006352  aa   156164 145162    3326  	oct	156164145162
    006353  aa   001065 000016    3327  	oct	001065000016
    006354  aa   000004 000000    3328  	oct	000004000000
    006355  aa   040000 000000    3329  	oct	040000000000
    006356  aa   777777 777777    3330  	oct	777777777777
    006357  aa   155157 144151    3331  	oct	155157144151
    006360  aa   146151 143141    3332  	oct	146151143141
    006361  aa   164151 157156    3333  	oct	164151157156
    006362  aa   000645 000000    3334  	oct	000645000000
    006363  aa   000004 000000    3335  	oct	000004000000
    006364  aa   440000 000000    3336  	oct	440000000000
    006365  aa   777777 777777    3337  	oct	777777777777
    006366  aa   157162 147141    3338  	oct	157162147141
    006367  aa   156151 172141    3339  	oct	156151172141
    006370  aa   164151 157156    3340  	oct	164151157156
    006371  aa   000265 000002    3341  	oct	000265000002
    006372  aa   000004 000000    3342  	oct	000004000000
    006373  aa   400000 000000    3343  	oct	400000000000
    006374  aa   777777 777777    3344  	oct	777777777777
    006375  aa   160141 147145    3345  	oct	160141147145
    006376  aa   055143 157165    3346  	oct	055143157165
    006377  aa   156164 145162    3347  	oct	156164145162
    006400  aa   001102 000016    3348  	oct	001102000016
    006401  aa   000004 000000    3349  	oct	000004000000
    006402  aa   000000 000000    3350  	oct	000000000000
    006403  aa   777777 777777    3351  	oct	777777777777
    006404  aa   163165 142163    3352  	oct	163165142163
    006405  aa   164151 164165    3353  	oct	164151164165
    006406  aa   164151 157156    3354  	oct	164151157156
    006407  aa   000663 000000    3355  	oct	000663000000
    006410  aa   000004 000000    3356  	oct	000004000000
    006411  aa   460000 000000    3357  	oct	460000000000
    006412  aa   163171 156143    3358  	oct	163171156143
    006413  aa   150162 157156    3359  	oct	150162157156
    006414  aa   151172 145144    3360  	oct	151172145144
    006415  aa   000374 000202    3361  	oct	000374000202
    006416  aa   006004 000000    3362  	oct	006004000000
    006417  aa   200000 000000    3363  	oct	200000000000
    006420  aa   777777 777777    3364  	oct	777777777777
    006421  aa   164141 160145    3365  	oct	164141160145
    006422  aa   055157 160164    3366  	oct	055157160164
    006423  aa   151157 156163    3367  	oct	151157156163
    006424  aa   000633 000000    3368  	oct	000633000000
    006425  aa   000004 000000    3369  	oct	000004000000
    006426  aa   400000 000000    3370  	oct	400000000000
    006427  aa   777777 777777    3371  	oct	777777777777
    006430  aa   000000 000000    3372  	oct	000000000000
    006431  aa   000000 000000    3373  	oct	000000000000
    006432  aa   000000 000000    3374  	oct	000000000000
    006433  aa   000000 000000    3375  	oct	000000000000
    006434  aa   000000 000000    3376  	oct	000000000000
    006435  aa   000000 000000    3377  	oct	000000000000
    006436  aa   000000 000000    3378  	oct	000000000000
    006437  aa   000000 000000    3379  	oct	000000000000
    006440  aa   000000 000000    3380  	oct	000000000000
    006441  aa   000000 000000    3381  	oct	000000000000
    006442  aa   000000 000000    3382  	oct	000000000000
    006443  aa   000000 000000    3383  	oct	000000000000
    006444  aa   000000 000000    3384  	oct	000000000000
    006445  aa   000000 000000    3385  	oct	000000000000
    006446  aa   000000 000000    3386  	oct	000000000000
    006447  aa   000000 000000    3387  	oct	000000000000
    006450  aa   000000 000000    3388  	oct	000000000000
    006451  aa   000000 000000    3389  	oct	000000000000
    006452  aa   000000 000000    3390  	oct	000000000000
    006453  aa   000000 000000    3391  	oct	000000000000
    006454  aa   000000 000000    3392  	oct	000000000000
    006455  aa   000000 000000    3393  	oct	000000000000
    006456  aa   000000 000000    3394  	oct	000000000000
    006457  aa   000000 000000    3395  	oct	000000000000
    006460  aa   000000 000000    3396  	oct	000000000000
    006461  aa   000000 000000    3397  	oct	000000000000
    006462  aa   000000 000000    3398  	oct	000000000000
    006463  aa   000000 000000    3399  	oct	000000000000
    006464  aa   000000 000000    3400  	oct	000000000000
    006465  aa   000000 000000    3401  	oct	000000000000
    006466  aa   000000 000000    3402  	oct	000000000000
    006467  aa   000000 000000    3403  	oct	000000000000
    006470  aa   000000 000000    3404  	oct	000000000000
    006471  aa   000000 000000    3405  	oct	000000000000
    006472  aa   000000 000000    3406  	oct	000000000000
    006473  aa   000000 000000    3407  	oct	000000000000
    006474  aa   000000 000000    3408  	oct	000000000000
    006475  aa   000000 000000    3409  	oct	000000000000
    006476  aa   000000 000000    3410  	oct	000000000000
    006477  aa   000000 000000    3411  	oct	000000000000
    006500  aa   000000 000000    3412  	oct	000000000000
    006501  aa   000000 000000    3413  	oct	000000000000
    006502  aa   000000 000000    3414  	oct	000000000000
    006503  aa   000000 000000    3415  	oct	000000000000
    006504  aa   000000 000000    3416  	oct	000000000000
    006505  aa   000000 000000    3417  	oct	000000000000
    006506  aa   000000 000000    3418  	oct	000000000000
    006507  aa   000000 000000    3419  	oct	000000000000
    006510  aa   000000 000000    3420  	oct	000000000000
    006511  aa   000000 000000    3421  	oct	000000000000
    006512  aa   000000 000000    3422  	oct	000000000000
    006513  aa   000000 006543    3423  	oct	000000006543
    006514  aa   000000 006607    3424  	oct	000000006607
    006515  aa   000000 000000    3425  	oct	000000000000
    006516  aa   000000 000000    3426  	oct	000000000000
    006517  aa   000000 000000    3427  	oct	000000000000
    006520  aa   000000 000000    3428  	oct	000000000000
    006521  aa   000000 000000    3429  	oct	000000000000
    006522  aa   000000 000000    3430  	oct	000000000000
    006523  aa   000000 000000    3431  	oct	000000000000
    006524  aa   000000 000000    3432  	oct	000000000000
    006525  aa   000000 000000    3433  	oct	000000000000
    006526  aa   000000 000000    3434  	oct	000000000000
    006527  aa   000000 000000    3435  	oct	000000000000
    006530  aa   000000 000000    3436  	oct	000000000000
    006531  aa   000000 000000    3437  	oct	000000000000
    006532  aa   000000 000000    3438  	oct	000000000000
    006533  aa   000000 006644    3439  	oct	000000006644
    006534  aa   000000 000000    3440  	oct	000000000000
    006535  aa   000000 000000    3441  	oct	000000000000
    006536  aa   000000 000000    3442  	oct	000000000000
    006537  aa   000000 000000    3443  	oct	000000000000
    006540  aa   000000 000000    3444  	oct	000000000000
    006541  aa   000000 000000    3445  	oct	000000000000
    006542  aa   000000 000000    3446  	oct	000000000000
    006543  aa   143141 164141    3447  	oct	143141164141
    006544  aa   154157 147055    3448  	oct	154157147055
    006545  aa   156141 155145    3449  	oct	156141155145
    006546  aa   163000 000000    3450  	oct	163000000000
    006547  aa   000513 000000    3451  	oct	000513000000
    006550  aa   000004 000000    3452  	oct	000004000000
    006551  aa   600000 000000    3453  	oct	600000000000
    006552  aa   143157 155155    3454  	oct	143157155155
    006553  aa   165156 151143    3455  	oct	165156151143
    006554  aa   141164 151157    3456  	oct	141164151157
    006555  aa   156000 000000    3457  	oct	156000000000
    006556  aa   000317 002002    3458  	oct	000317002002
    006557  aa   004404 100000    3459  	oct	004404100000
    006560  aa   200000 000000    3460  	oct	200000000000
    006561  aa   143157 155160    3461  	oct	143157155160
    006562  aa   165164 141164    3462  	oct	165164141164
    006563  aa   151157 156141    3463  	oct	151157156141
    006564  aa   154000 000000    3464  	oct	154000000000
    006565  aa   000152 000202    3465  	oct	000152000202
    006566  aa   001004 000000    3466  	oct	001004000000
    006567  aa   600000 000000    3467  	oct	600000000000
    006570  aa   143157 156146    3468  	oct	143157156146
    006571  aa   151147 165162    3469  	oct	151147165162
    006572  aa   141164 151157    3470  	oct	141164151157
    006573  aa   156000 000000    3471  	oct	156000000000
    006574  aa   001006 000003    3472  	oct	001006000003
    006575  aa   000404 000000    3473  	oct	000404000000
    006576  aa   476000 000000    3474  	oct	476000000000
    006577  aa   143157 162162    3475  	oct	143157162162
    006600  aa   145163 160157    3476  	oct	145163160157
    006601  aa   156144 151156    3477  	oct	156144151156
    006602  aa   147000 000000    3478  	oct	147000000000
    006603  aa   001014 000012    3479  	oct	001014000012
    006604  aa   000104 024000    3480  	oct	000104024000
    006605  aa   100000 000000    3481  	oct	100000000000
    006606  aa   777777 777777    3482  	oct	777777777777
    006607  aa   144141 164145    3483  	oct	144141164145
    006610  aa   055143 157155    3484  	oct	055143157155
    006611  aa   160151 154145    3485  	oct	160151154145
    006612  aa   144000 000000    3486  	oct	144000000000
    006613  aa   001017 000002    3487  	oct	001017000002
    006614  aa   000014 000020    3488  	oct	000014000020
    006615  aa   440000 000000    3489  	oct	440000000000
    006616  aa   144142 055145    3490  	oct	144142055145
    006617  aa   170143 145160    3491  	oct	170143145160
    006620  aa   164151 157156    3492  	oct	164151157156
    006621  aa   163000 000000    3493  	oct	163000000000
    006622  aa   000713 000000    3494  	oct	000713000000
    006623  aa   000004 000000    3495  	oct	000004000000
    006624  aa   040000 000000    3496  	oct	040000000000
    006625  aa   144142 055162    3497  	oct	144142055162
    006626  aa   145141 154155    3498  	oct	145141154155
    006627  aa   055156 141155    3499  	oct	055156141155
    006630  aa   145000 000000    3500  	oct	145000000000
    006631  aa   000376 000000    3501  	oct	000376000000
    006632  aa   000004 000000    3502  	oct	000004000000
    006633  aa   000000 000000    3503  	oct	000000000000
    006634  aa   144145 143151    3504  	oct	144145143151
    006635  aa   155141 154055    3505  	oct	155141154055
    006636  aa   160157 151156    3506  	oct	160157151156
    006637  aa   164000 000000    3507  	oct	164000000000
    006640  aa   001032 000003    3508  	oct	001032000003
    006641  aa   000014 000004    3509  	oct	000014000004
    006642  aa   440000 000000    3510  	oct	440000000000
    006643  aa   777777 777777    3511  	oct	777777777777
    006644  aa   163145 147155    3512  	oct	163145147155
    006645  aa   145156 164055    3513  	oct	145156164055
    006646  aa   154151 155151    3514  	oct	154151155151
    006647  aa   164000 000000    3515  	oct	164000000000
    006650  aa   001123 000003    3516  	oct	001123000003
    006651  aa   000004 000000    3517  	oct	000004000000
    006652  aa   400000 000000    3518  	oct	400000000000
    006653  aa   163160 145143    3519  	oct	163160145143
    006654  aa   151141 154055    3520  	oct	151141154055
    006655  aa   156141 155145    3521  	oct	156141155145
    006656  aa   163000 000000    3522  	oct	163000000000
    006657  aa   001130 000003    3523  	oct	001130000003
    006660  aa   000404 000000    3524  	oct	000404000000
    006661  aa   400000 000000    3525  	oct	400000000000
    006662  aa   777777 777777    3526  	oct	777777777777
    006663  aa   000000 000000    3527  	oct	000000000000
    006664  aa   000000 000000    3528  	oct	000000000000
    006665  aa   000000 000000    3529  	oct	000000000000
    006666  aa   000000 000000    3530  	oct	000000000000
    006667  aa   000000 000000    3531  	oct	000000000000
    006670  aa   000000 000000    3532  	oct	000000000000
    006671  aa   000000 000000    3533  	oct	000000000000
    006672  aa   000000 000000    3534  	oct	000000000000
    006673  aa   000000 000000    3535  	oct	000000000000
    006674  aa   000000 000000    3536  	oct	000000000000
    006675  aa   000000 000000    3537  	oct	000000000000
    006676  aa   000000 000000    3538  	oct	000000000000
    006677  aa   000000 000000    3539  	oct	000000000000
    006700  aa   000000 000000    3540  	oct	000000000000
    006701  aa   000000 000000    3541  	oct	000000000000
    006702  aa   000000 000000    3542  	oct	000000000000
    006703  aa   000000 000000    3543  	oct	000000000000
    006704  aa   000000 000000    3544  	oct	000000000000
    006705  aa   000000 000000    3545  	oct	000000000000
    006706  aa   000000 000000    3546  	oct	000000000000
    006707  aa   000000 000000    3547  	oct	000000000000
    006710  aa   000000 000000    3548  	oct	000000000000
    006711  aa   000000 000000    3549  	oct	000000000000
    006712  aa   000000 000000    3550  	oct	000000000000
    006713  aa   000000 000000    3551  	oct	000000000000
    006714  aa   000000 000000    3552  	oct	000000000000
    006715  aa   000000 000000    3553  	oct	000000000000
    006716  aa   000000 000000    3554  	oct	000000000000
    006717  aa   000000 000000    3555  	oct	000000000000
    006720  aa   000000 000000    3556  	oct	000000000000
    006721  aa   000000 000000    3557  	oct	000000000000
    006722  aa   000000 000000    3558  	oct	000000000000
    006723  aa   000000 000000    3559  	oct	000000000000
    006724  aa   000000 000000    3560  	oct	000000000000
    006725  aa   000000 000000    3561  	oct	000000000000
    006726  aa   000000 000000    3562  	oct	000000000000
    006727  aa   000000 000000    3563  	oct	000000000000
    006730  aa   000000 000000    3564  	oct	000000000000
    006731  aa   000000 000000    3565  	oct	000000000000
    006732  aa   000000 000000    3566  	oct	000000000000
    006733  aa   000000 000000    3567  	oct	000000000000
    006734  aa   000000 000000    3568  	oct	000000000000
    006735  aa   000000 000000    3569  	oct	000000000000
    006736  aa   000000 000000    3570  	oct	000000000000
    006737  aa   000000 000000    3571  	oct	000000000000
    006740  aa   000000 000000    3572  	oct	000000000000
    006741  aa   000000 000000    3573  	oct	000000000000
    006742  aa   000000 000000    3574  	oct	000000000000
    006743  aa   000000 000000    3575  	oct	000000000000
    006744  aa   000000 006776    3576  	oct	000000006776
    006745  aa   000000 000000    3577  	oct	000000000000
    006746  aa   000000 007006    3578  	oct	000000007006
    006747  aa   000000 007016    3579  	oct	000000007016
    006750  aa   000000 000000    3580  	oct	000000000000
    006751  aa   000000 000000    3581  	oct	000000000000
    006752  aa   000000 000000    3582  	oct	000000000000
    006753  aa   000000 000000    3583  	oct	000000000000
    006754  aa   000000 007044    3584  	oct	000000007044
    006755  aa   000000 000000    3585  	oct	000000000000
    006756  aa   000000 000000    3586  	oct	000000000000
    006757  aa   000000 007054    3587  	oct	000000007054
    006760  aa   000000 000000    3588  	oct	000000000000
    006761  aa   000000 007064    3589  	oct	000000007064
    006762  aa   000000 007074    3590  	oct	000000007074
    006763  aa   000000 000000    3591  	oct	000000000000
    006764  aa   000000 000000    3592  	oct	000000000000
    006765  aa   000000 000000    3593  	oct	000000000000
    006766  aa   000000 000000    3594  	oct	000000000000
    006767  aa   000000 000000    3595  	oct	000000000000
    006770  aa   000000 000000    3596  	oct	000000000000
    006771  aa   000000 000000    3597  	oct	000000000000
    006772  aa   000000 000000    3598  	oct	000000000000
    006773  aa   000000 000000    3599  	oct	000000000000
    006774  aa   000000 000000    3600  	oct	000000000000
    006775  aa   000000 000000    3601  	oct	000000000000
    006776  aa   141164 164141    3602  	oct	141164164141
    006777  aa   143150 055157    3603  	oct	143150055157
    007000  aa   160164 151157    3604  	oct	160164151157
    007001  aa   156163 000000    3605  	oct	156163000000
    007002  aa   000634 000000    3606  	oct	000634000000
    007003  aa   000004 000000    3607  	oct	000004000000
    007004  aa   400000 000000    3608  	oct	400000000000
    007005  aa   777777 777777    3609  	oct	777777777777
    007006  aa   143141 164141    3610  	oct	143141164141
    007007  aa   154157 147165    3611  	oct	154157147165
    007010  aa   145055 156141    3612  	oct	145055156141
    007011  aa   155145 000000    3613  	oct	155145000000
    007012  aa   000513 000000    3614  	oct	000513000000
    007013  aa   000004 000000    3615  	oct	000004000000
    007014  aa   400000 000000    3616  	oct	400000000000
    007015  aa   777777 777777    3617  	oct	777777777777
    007016  aa   144142 055160    3618  	oct	144142055160
    007017  aa   162151 166141    3619  	oct	162151166141
    007020  aa   143171 055153    3620  	oct	143171055153
    007021  aa   145171 000000    3621  	oct	145171000000
    007022  aa   000714 000000    3622  	oct	000714000000
    007023  aa   000004 000000    3623  	oct	000004000000
    007024  aa   040000 000000    3624  	oct	040000000000
    007025  aa   144142 055162    3625  	oct	144142055162
    007026  aa   145143 157162    3626  	oct	145143157162
    007027  aa   144055 156141    3627  	oct	144055156141
    007030  aa   155145 000000    3628  	oct	155145000000
    007031  aa   000715 000000    3629  	oct	000715000000
    007032  aa   000004 000000    3630  	oct	000004000000
    007033  aa   040000 000000    3631  	oct	040000000000
    007034  aa   144145 142165    3632  	oct	144145142165
    007035  aa   147055 143157    3633  	oct	147055143157
    007036  aa   156164 145156    3634  	oct	156164145156
    007037  aa   164163 000000    3635  	oct	164163000000
    007040  aa   001022 000016    3636  	oct	001022000016
    007041  aa   000004 320000    3637  	oct	000004320000
    007042  aa   000000 000000    3638  	oct	000000000000
    007043  aa   777777 777777    3639  	oct	777777777777
    007044  aa   151144 145156    3640  	oct	151144145156
    007045  aa   164151 146151    3641  	oct	164151146151
    007046  aa   143141 164151    3642  	oct	143141164151
    007047  aa   157156 000000    3643  	oct	157156000000
    007050  aa   001050 000006    3644  	oct	001050000006
    007051  aa   000424 000100    3645  	oct	000424000100
    007052  aa   400000 000000    3646  	oct	400000000000
    007053  aa   777777 777777    3647  	oct	777777777777
    007054  aa   154151 156141    3648  	oct	154151156141
    007055  aa   147145 055143    3649  	oct	147145055143
    007056  aa   157165 156164    3650  	oct	157165156164
    007057  aa   145162 000000    3651  	oct	145162000000
    007060  aa   001064 000016    3652  	oct	001064000016
    007061  aa   000004 000000    3653  	oct	000004000000
    007062  aa   300000 000000    3654  	oct	300000000000
    007063  aa   777777 777777    3655  	oct	777777777777
    007064  aa   156165 155145    3656  	oct	156165155145
    007065  aa   162151 143055    3657  	oct	162151143055
    007066  aa   145144 151164    3658  	oct	145144151164
    007067  aa   145144 000000    3659  	oct	145144000000
    007070  aa   000204 000002    3660  	oct	000204000002
    007071  aa   000004 000000    3661  	oct	000004000000
    007072  aa   100000 000000    3662  	oct	100000000000
    007073  aa   777777 777777    3663  	oct	777777777777
    007074  aa   157142 152145    3664  	oct	157142152145
    007075  aa   143164 055160    3665  	oct	143164055160
    007076  aa   162157 147162    3666  	oct	162157147162
    007077  aa   141155 000000    3667  	oct	141155000000
    007100  aa   001075 000000    3668  	oct	001075000000
    007101  aa   000004 000001    3669  	oct	000004000001
    007102  aa   000000 000000    3670  	oct	000000000000
    007103  aa   777777 777777    3671  	oct	777777777777
    007104  aa   000000 000000    3672  	oct	000000000000
    007105  aa   000000 000000    3673  	oct	000000000000
    007106  aa   000000 000000    3674  	oct	000000000000
    007107  aa   000000 000000    3675  	oct	000000000000
    007110  aa   000000 000000    3676  	oct	000000000000
    007111  aa   000000 000000    3677  	oct	000000000000
    007112  aa   000000 000000    3678  	oct	000000000000
    007113  aa   000000 000000    3679  	oct	000000000000
    007114  aa   000000 000000    3680  	oct	000000000000
    007115  aa   000000 000000    3681  	oct	000000000000
    007116  aa   000000 000000    3682  	oct	000000000000
    007117  aa   000000 000000    3683  	oct	000000000000
    007120  aa   000000 000000    3684  	oct	000000000000
    007121  aa   000000 000000    3685  	oct	000000000000
    007122  aa   000000 000000    3686  	oct	000000000000
    007123  aa   000000 000000    3687  	oct	000000000000
    007124  aa   000000 000000    3688  	oct	000000000000
    007125  aa   000000 000000    3689  	oct	000000000000
    007126  aa   000000 000000    3690  	oct	000000000000
    007127  aa   000000 000000    3691  	oct	000000000000
    007130  aa   000000 000000    3692  	oct	000000000000
    007131  aa   000000 000000    3693  	oct	000000000000
    007132  aa   000000 000000    3694  	oct	000000000000
    007133  aa   000000 000000    3695  	oct	000000000000
    007134  aa   000000 000000    3696  	oct	000000000000
    007135  aa   000000 000000    3697  	oct	000000000000
    007136  aa   000000 000000    3698  	oct	000000000000
    007137  aa   000000 000000    3699  	oct	000000000000
    007140  aa   000000 000000    3700  	oct	000000000000
    007141  aa   000000 000000    3701  	oct	000000000000
    007142  aa   000000 000000    3702  	oct	000000000000
    007143  aa   000000 000000    3703  	oct	000000000000
    007144  aa   000000 000000    3704  	oct	000000000000
    007145  aa   000000 000000    3705  	oct	000000000000
    007146  aa   000000 000000    3706  	oct	000000000000
    007147  aa   000000 000000    3707  	oct	000000000000
    007150  aa   000000 000000    3708  	oct	000000000000
    007151  aa   000000 000000    3709  	oct	000000000000
    007152  aa   000000 000000    3710  	oct	000000000000
    007153  aa   000000 000000    3711  	oct	000000000000
    007154  aa   000000 000000    3712  	oct	000000000000
    007155  aa   000000 000000    3713  	oct	000000000000
    007156  aa   000000 000000    3714  	oct	000000000000
    007157  aa   000000 000000    3715  	oct	000000000000
    007160  aa   000000 000000    3716  	oct	000000000000
    007161  aa   000000 000000    3717  	oct	000000000000
    007162  aa   000000 000000    3718  	oct	000000000000
    007163  aa   000000 000000    3719  	oct	000000000000
    007164  aa   000000 000000    3720  	oct	000000000000
    007165  aa   000000 000000    3721  	oct	000000000000
    007166  aa   000000 000000    3722  	oct	000000000000
    007167  aa   000000 007217    3723  	oct	000000007217
    007170  aa   000000 000000    3724  	oct	000000000000
    007171  aa   000000 000000    3725  	oct	000000000000
    007172  aa   000000 000000    3726  	oct	000000000000
    007173  aa   000000 000000    3727  	oct	000000000000
    007174  aa   000000 000000    3728  	oct	000000000000
    007175  aa   000000 000000    3729  	oct	000000000000
    007176  aa   000000 000000    3730  	oct	000000000000
    007177  aa   000000 000000    3731  	oct	000000000000
    007200  aa   000000 000000    3732  	oct	000000000000
    007201  aa   000000 000000    3733  	oct	000000000000
    007202  aa   000000 000000    3734  	oct	000000000000
    007203  aa   000000 007317    3735  	oct	000000007317
    007204  aa   000000 000000    3736  	oct	000000000000
    007205  aa   000000 000000    3737  	oct	000000000000
    007206  aa   000000 000000    3738  	oct	000000000000
    007207  aa   000000 007327    3739  	oct	000000007327
    007210  aa   000000 000000    3740  	oct	000000000000
    007211  aa   000000 000000    3741  	oct	000000000000
    007212  aa   000000 000000    3742  	oct	000000000000
    007213  aa   000000 007337    3743  	oct	000000007337
    007214  aa   000000 000000    3744  	oct	000000000000
    007215  aa   000000 000000    3745  	oct	000000000000
    007216  aa   000000 000000    3746  	oct	000000000000
    007217  aa   143141 164141    3747  	oct	143141164141
    007220  aa   154157 147165    3748  	oct	154157147165
    007221  aa   145055 156141    3749  	oct	145055156141
    007222  aa   155145 163000    3750  	oct	155145163000
    007223  aa   000513 000000    3751  	oct	000513000000
    007224  aa   000004 000000    3752  	oct	000004000000
    007225  aa   400000 000000    3753  	oct	400000000000
    007226  aa   143157 155160    3754  	oct	143157155160
    007227  aa   165164 141164    3755  	oct	165164141164
    007230  aa   151157 156141    3756  	oct	151157156141
    007231  aa   154055 061000    3757  	oct	154055061000
    007232  aa   000324 000202    3758  	oct	000324000202
    007233  aa   001004 000001    3759  	oct	001004000001
    007234  aa   622000 000000    3760  	oct	622000000000
    007235  aa   143157 155160    3761  	oct	143157155160
    007236  aa   165164 141164    3762  	oct	165164141164
    007237  aa   151157 156141    3763  	oct	151157156141
    007240  aa   154055 062000    3764  	oct	154055062000
    007241  aa   000325 000202    3765  	oct	000325000202
    007242  aa   001004 000001    3766  	oct	001004000001
    007243  aa   640000 000000    3767  	oct	640000000000
    007244  aa   143157 155160    3768  	oct	143157155160
    007245  aa   165164 141164    3769  	oct	165164141164
    007246  aa   151157 156141    3770  	oct	151157156141
    007247  aa   154055 063000    3771  	oct	154055063000
    007250  aa   000323 000202    3772  	oct	000323000202
    007251  aa   001004 000001    3773  	oct	001004000001
    007252  aa   600000 000000    3774  	oct	600000000000
    007253  aa   143157 155160    3775  	oct	143157155160
    007254  aa   165164 141164    3776  	oct	165164141164
    007255  aa   151157 156141    3777  	oct	151157156141
    007256  aa   154055 064000    3778  	oct	154055064000
    007257  aa   000321 000202    3779  	oct	000321000202
    007260  aa   001004 000001    3780  	oct	001004000001
    007261  aa   600000 000000    3781  	oct	600000000000
    007262  aa   143157 155160    3782  	oct	143157155160
    007263  aa   165164 141164    3783  	oct	165164141164
    007264  aa   151157 156141    3784  	oct	151157156141
    007265  aa   154055 065000    3785  	oct	154055065000
    007266  aa   000322 000202    3786  	oct	000322000202
    007267  aa   001004 000000    3787  	oct	001004000000
    007270  aa   600000 000000    3788  	oct	600000000000
    007271  aa   143157 155160    3789  	oct	143157155160
    007272  aa   165164 141164    3790  	oct	165164141164
    007273  aa   151157 156141    3791  	oct	151157156141
    007274  aa   154055 066000    3792  	oct	154055066000
    007275  aa   000444 000202    3793  	oct	000444000202
    007276  aa   001004 000000    3794  	oct	001004000000
    007277  aa   600000 000000    3795  	oct	600000000000
    007300  aa   143157 155160    3796  	oct	143157155160
    007301  aa   165164 141164    3797  	oct	165164141164
    007302  aa   151157 156141    3798  	oct	151157156141
    007303  aa   154055 067000    3799  	oct	154055067000
    007304  aa   000442 000202    3800  	oct	000442000202
    007305  aa   001004 000000    3801  	oct	001004000000
    007306  aa   640000 000000    3802  	oct	640000000000
    007307  aa   143157 155160    3803  	oct	143157155160
    007310  aa   165164 141164    3804  	oct	165164141164
    007311  aa   151157 156141    3805  	oct	151157156141
    007312  aa   154055 070000    3806  	oct	154055070000
    007313  aa   001142 000202    3807  	oct	001142000202
    007314  aa   001004 000000    3808  	oct	001004000000
    007315  aa   600000 000000    3809  	oct	600000000000
    007316  aa   777777 777777    3810  	oct	777777777777
    007317  aa   157142 152145    3811  	oct	157142152145
    007320  aa   143164 055143    3812  	oct	143164055143
    007321  aa   157155 160165    3813  	oct	157155160165
    007322  aa   164145 162000    3814  	oct	164145162000
    007323  aa   001074 000003    3815  	oct	001074000003
    007324  aa   000404 000000    3816  	oct	000404000000
    007325  aa   400000 000000    3817  	oct	400000000000
    007326  aa   777777 777777    3818  	oct	777777777777
    007327  aa   163157 165162    3819  	oct	163157165162
    007330  aa   143145 055143    3820  	oct	143145055143
    007331  aa   157155 160165    3821  	oct	157155160165
    007332  aa   164145 162000    3822  	oct	164145162000
    007333  aa   001127 000003    3823  	oct	001127000003
    007334  aa   000404 000000    3824  	oct	000404000000
    007335  aa   400000 000000    3825  	oct	400000000000
    007336  aa   777777 777777    3826  	oct	777777777777
    007337  aa   167157 162153    3827  	oct	167157162153
    007340  aa   151156 147055    3828  	oct	151156147055
    007341  aa   163164 157162    3829  	oct	163164157162
    007342  aa   141147 145000    3830  	oct	141147145000
    007343  aa   000403 002002    3831  	oct	000403002002
    007344  aa   001414 000032    3832  	oct	001414000032
    007345  aa   200000 000000    3833  	oct	200000000000
    007346  aa   777777 777777    3834  	oct	777777777777
    007347  aa   000000 000000    3835  	oct	000000000000
    007350  aa   000000 000000    3836  	oct	000000000000
    007351  aa   000000 000000    3837  	oct	000000000000
    007352  aa   000000 000000    3838  	oct	000000000000
    007353  aa   000000 000000    3839  	oct	000000000000
    007354  aa   000000 000000    3840  	oct	000000000000
    007355  aa   000000 000000    3841  	oct	000000000000
    007356  aa   000000 000000    3842  	oct	000000000000
    007357  aa   000000 000000    3843  	oct	000000000000
    007360  aa   000000 000000    3844  	oct	000000000000
    007361  aa   000000 000000    3845  	oct	000000000000
    007362  aa   000000 000000    3846  	oct	000000000000
    007363  aa   000000 000000    3847  	oct	000000000000
    007364  aa   000000 000000    3848  	oct	000000000000
    007365  aa   000000 000000    3849  	oct	000000000000
    007366  aa   000000 000000    3850  	oct	000000000000
    007367  aa   000000 000000    3851  	oct	000000000000
    007370  aa   000000 000000    3852  	oct	000000000000
    007371  aa   000000 000000    3853  	oct	000000000000
    007372  aa   000000 000000    3854  	oct	000000000000
    007373  aa   000000 000000    3855  	oct	000000000000
    007374  aa   000000 000000    3856  	oct	000000000000
    007375  aa   000000 000000    3857  	oct	000000000000
    007376  aa   000000 000000    3858  	oct	000000000000
    007377  aa   000000 000000    3859  	oct	000000000000
    007400  aa   000000 000000    3860  	oct	000000000000
    007401  aa   000000 000000    3861  	oct	000000000000
    007402  aa   000000 000000    3862  	oct	000000000000
    007403  aa   000000 000000    3863  	oct	000000000000
    007404  aa   000000 000000    3864  	oct	000000000000
    007405  aa   000000 000000    3865  	oct	000000000000
    007406  aa   000000 000000    3866  	oct	000000000000
    007407  aa   000000 000000    3867  	oct	000000000000
    007410  aa   000000 000000    3868  	oct	000000000000
    007411  aa   000000 000000    3869  	oct	000000000000
    007412  aa   000000 000000    3870  	oct	000000000000
    007413  aa   000000 000000    3871  	oct	000000000000
    007414  aa   000000 000000    3872  	oct	000000000000
    007415  aa   000000 000000    3873  	oct	000000000000
    007416  aa   000000 000000    3874  	oct	000000000000
    007417  aa   000000 000000    3875  	oct	000000000000
    007420  aa   000000 000000    3876  	oct	000000000000
    007421  aa   000000 000000    3877  	oct	000000000000
    007422  aa   000000 000000    3878  	oct	000000000000
    007423  aa   000000 000000    3879  	oct	000000000000
    007424  aa   000000 000000    3880  	oct	000000000000
    007425  aa   000000 000000    3881  	oct	000000000000
    007426  aa   000000 000000    3882  	oct	000000000000
    007427  aa   000000 000000    3883  	oct	000000000000
    007430  aa   000000 000000    3884  	oct	000000000000
    007431  aa   000000 000000    3885  	oct	000000000000
    007432  aa   000000 000000    3886  	oct	000000000000
    007433  aa   000000 007462    3887  	oct	000000007462
    007434  aa   000000 000000    3888  	oct	000000000000
    007435  aa   000000 000000    3889  	oct	000000000000
    007436  aa   000000 000000    3890  	oct	000000000000
    007437  aa   000000 000000    3891  	oct	000000000000
    007440  aa   000000 000000    3892  	oct	000000000000
    007441  aa   000000 000000    3893  	oct	000000000000
    007442  aa   000000 000000    3894  	oct	000000000000
    007443  aa   000000 000000    3895  	oct	000000000000
    007444  aa   000000 000000    3896  	oct	000000000000
    007445  aa   000000 000000    3897  	oct	000000000000
    007446  aa   000000 000000    3898  	oct	000000000000
    007447  aa   000000 000000    3899  	oct	000000000000
    007450  aa   000000 000000    3900  	oct	000000000000
    007451  aa   000000 000000    3901  	oct	000000000000
    007452  aa   000000 000000    3902  	oct	000000000000
    007453  aa   000000 000000    3903  	oct	000000000000
    007454  aa   000000 000000    3904  	oct	000000000000
    007455  aa   000000 000000    3905  	oct	000000000000
    007456  aa   000000 000000    3906  	oct	000000000000
    007457  aa   000000 000000    3907  	oct	000000000000
    007460  aa   000000 000000    3908  	oct	000000000000
    007461  aa   000000 000000    3909  	oct	000000000000
    007462  aa   144151 162145    3910  	oct	144151162145
    007463  aa   143164 055162    3911  	oct	143164055162
    007464  aa   145146 145162    3912  	oct	145146145162
    007465  aa   145156 143145    3913  	oct	145156143145
    007466  aa   000411 000000    3914  	oct	000411000000
    007467  aa   000004 000000    3915  	oct	000004000000
    007470  aa   040000 000000    3916  	oct	040000000000
    007471  aa   777777 777777    3917  	oct	777777777777
    007472  aa   000000 000000    3918  	oct	000000000000
    007473  aa   000000 000000    3919  	oct	000000000000
    007474  aa   000000 000000    3920  	oct	000000000000
    007475  aa   000000 000000    3921  	oct	000000000000
    007476  aa   000000 000000    3922  	oct	000000000000
    007477  aa   000000 000000    3923  	oct	000000000000
    007500  aa   000000 000000    3924  	oct	000000000000
    007501  aa   000000 000000    3925  	oct	000000000000
    007502  aa   000000 000000    3926  	oct	000000000000
    007503  aa   000000 000000    3927  	oct	000000000000
    007504  aa   000000 000000    3928  	oct	000000000000
    007505  aa   000000 000000    3929  	oct	000000000000
    007506  aa   000000 000000    3930  	oct	000000000000
    007507  aa   000000 000000    3931  	oct	000000000000
    007510  aa   000000 000000    3932  	oct	000000000000
    007511  aa   000000 000000    3933  	oct	000000000000
    007512  aa   000000 000000    3934  	oct	000000000000
    007513  aa   000000 000000    3935  	oct	000000000000
    007514  aa   000000 000000    3936  	oct	000000000000
    007515  aa   000000 000000    3937  	oct	000000000000
    007516  aa   000000 000000    3938  	oct	000000000000
    007517  aa   000000 000000    3939  	oct	000000000000
    007520  aa   000000 000000    3940  	oct	000000000000
    007521  aa   000000 000000    3941  	oct	000000000000
    007522  aa   000000 000000    3942  	oct	000000000000
    007523  aa   000000 000000    3943  	oct	000000000000
    007524  aa   000000 000000    3944  	oct	000000000000
    007525  aa   000000 000000    3945  	oct	000000000000
    007526  aa   000000 000000    3946  	oct	000000000000
    007527  aa   000000 000000    3947  	oct	000000000000
    007530  aa   000000 000000    3948  	oct	000000000000
    007531  aa   000000 000000    3949  	oct	000000000000
    007532  aa   000000 000000    3950  	oct	000000000000
    007533  aa   000000 000000    3951  	oct	000000000000
    007534  aa   000000 000000    3952  	oct	000000000000
    007535  aa   000000 000000    3953  	oct	000000000000
    007536  aa   000000 000000    3954  	oct	000000000000
    007537  aa   000000 000000    3955  	oct	000000000000
    007540  aa   000000 000000    3956  	oct	000000000000
    007541  aa   000000 000000    3957  	oct	000000000000
    007542  aa   000000 000000    3958  	oct	000000000000
    007543  aa   000000 000000    3959  	oct	000000000000
    007544  aa   000000 000000    3960  	oct	000000000000
    007545  aa   000000 000000    3961  	oct	000000000000
    007546  aa   000000 000000    3962  	oct	000000000000
    007547  aa   000000 000000    3963  	oct	000000000000
    007550  aa   000000 000000    3964  	oct	000000000000
    007551  aa   000000 000000    3965  	oct	000000000000
    007552  aa   000000 000000    3966  	oct	000000000000
    007553  aa   000000 007605    3967  	oct	000000007605
    007554  aa   000000 000000    3968  	oct	000000000000
    007555  aa   000000 000000    3969  	oct	000000000000
    007556  aa   000000 000000    3970  	oct	000000000000
    007557  aa   000000 000000    3971  	oct	000000000000
    007560  aa   000000 000000    3972  	oct	000000000000
    007561  aa   000000 000000    3973  	oct	000000000000
    007562  aa   000000 000000    3974  	oct	000000000000
    007563  aa   000000 000000    3975  	oct	000000000000
    007564  aa   000000 000000    3976  	oct	000000000000
    007565  aa   000000 000000    3977  	oct	000000000000
    007566  aa   000000 000000    3978  	oct	000000000000
    007567  aa   000000 000000    3979  	oct	000000000000
    007570  aa   000000 000000    3980  	oct	000000000000
    007571  aa   000000 000000    3981  	oct	000000000000
    007572  aa   000000 000000    3982  	oct	000000000000
    007573  aa   000000 000000    3983  	oct	000000000000
    007574  aa   000000 000000    3984  	oct	000000000000
    007575  aa   000000 000000    3985  	oct	000000000000
    007576  aa   000000 000000    3986  	oct	000000000000
    007577  aa   000000 000000    3987  	oct	000000000000
    007600  aa   000000 000000    3988  	oct	000000000000
    007601  aa   000000 000000    3989  	oct	000000000000
    007602  aa   000000 000000    3990  	oct	000000000000
    007603  aa   000000 000000    3991  	oct	000000000000
    007604  aa   000000 000000    3992  	oct	000000000000
    007605  aa   141154 160150    3993  	oct	141154160150
    007606  aa   141156 165155    3994  	oct	141156165155
    007607  aa   145162 151143    3995  	oct	145162151143
    007610  aa   055145 144151    3996  	oct	055145144151
    007611  aa   164145 144000    3997  	oct	164145144000
    007612  aa   000114 000002    3998  	oct	000114000002
    007613  aa   000004 000000    3999  	oct	000004000000
    007614  aa   100000 000000    4000  	oct	100000000000
    007615  aa   777777 777777    4001  	oct	777777777777
    007616  aa   000000 000000    4002  	oct	000000000000
    007617  aa   000000 000000    4003  	oct	000000000000
    007620  aa   000000 000000    4004  	oct	000000000000
    007621  aa   000000 000000    4005  	oct	000000000000
    007622  aa   000000 000000    4006  	oct	000000000000
    007623  aa   000000 000000    4007  	oct	000000000000
    007624  aa   000000 000000    4008  	oct	000000000000
    007625  aa   000000 000000    4009  	oct	000000000000
    007626  aa   000000 000000    4010  	oct	000000000000
    007627  aa   000000 000000    4011  	oct	000000000000
    007630  aa   000000 000000    4012  	oct	000000000000
    007631  aa   000000 000000    4013  	oct	000000000000
    007632  aa   000000 000000    4014  	oct	000000000000
    007633  aa   000000 000000    4015  	oct	000000000000
    007634  aa   000000 000000    4016  	oct	000000000000
    007635  aa   000000 000000    4017  	oct	000000000000
    007636  aa   000000 000000    4018  	oct	000000000000
    007637  aa   000000 000000    4019  	oct	000000000000
    007640  aa   000000 000000    4020  	oct	000000000000
    007641  aa   000000 000000    4021  	oct	000000000000
    007642  aa   000000 000000    4022  	oct	000000000000
    007643  aa   000000 000000    4023  	oct	000000000000
    007644  aa   000000 000000    4024  	oct	000000000000
    007645  aa   000000 000000    4025  	oct	000000000000
    007646  aa   000000 000000    4026  	oct	000000000000
    007647  aa   000000 000000    4027  	oct	000000000000
    007650  aa   000000 000000    4028  	oct	000000000000
    007651  aa   000000 000000    4029  	oct	000000000000
    007652  aa   000000 000000    4030  	oct	000000000000
    007653  aa   000000 000000    4031  	oct	000000000000
    007654  aa   000000 000000    4032  	oct	000000000000
    007655  aa   000000 000000    4033  	oct	000000000000
    007656  aa   000000 000000    4034  	oct	000000000000
    007657  aa   000000 000000    4035  	oct	000000000000
    007660  aa   000000 000000    4036  	oct	000000000000
    007661  aa   000000 000000    4037  	oct	000000000000
    007662  aa   000000 000000    4038  	oct	000000000000
    007663  aa   000000 000000    4039  	oct	000000000000
    007664  aa   000000 000000    4040  	oct	000000000000
    007665  aa   000000 000000    4041  	oct	000000000000
    007666  aa   000000 000000    4042  	oct	000000000000
    007667  aa   000000 000000    4043  	oct	000000000000
    007670  aa   000000 000000    4044  	oct	000000000000
    007671  aa   000000 000000    4045  	oct	000000000000
    007672  aa   000000 000000    4046  	oct	000000000000
    007673  aa   000000 000000    4047  	oct	000000000000
    007674  aa   000000 000000    4048  	oct	000000000000
    007675  aa   000000 000000    4049  	oct	000000000000
    007676  aa   000000 000000    4050  	oct	000000000000
    007677  aa   000000 000000    4051  	oct	000000000000
    007700  aa   000000 000000    4052  	oct	000000000000
    007701  aa   000000 000000    4053  	oct	000000000000
    007702  aa   000000 007731    4054  	oct	000000007731
    007703  aa   000000 000000    4055  	oct	000000000000
    007704  aa   000000 000000    4056  	oct	000000000000
    007705  aa   000000 000000    4057  	oct	000000000000
    007706  aa   000000 000000    4058  	oct	000000000000
    007707  aa   000000 000000    4059  	oct	000000000000
    007710  aa   000000 000000    4060  	oct	000000000000
    007711  aa   000000 000000    4061  	oct	000000000000
    007712  aa   000000 000000    4062  	oct	000000000000
    007713  aa   000000 000000    4063  	oct	000000000000
    007714  aa   000000 000000    4064  	oct	000000000000
    007715  aa   000000 000000    4065  	oct	000000000000
    007716  aa   000000 000000    4066  	oct	000000000000
    007717  aa   000000 000000    4067  	oct	000000000000
    007720  aa   000000 000000    4068  	oct	000000000000
    007721  aa   000000 000000    4069  	oct	000000000000
    007722  aa   000000 000000    4070  	oct	000000000000
    007723  aa   000000 000000    4071  	oct	000000000000
    007724  aa   000000 000000    4072  	oct	000000000000
    007725  aa   000000 000000    4073  	oct	000000000000
    007726  aa   000000 000000    4074  	oct	000000000000
    007727  aa   000000 000000    4075  	oct	000000000000
    007730  aa   000000 000000    4076  	oct	000000000000
    007731  aa   144145 142165    4077  	oct	144145142165
    007732  aa   147055 156165    4078  	oct	147055156165
    007733  aa   155145 162151    4079  	oct	155145162151
    007734  aa   143055 143157    4080  	oct	143055143157
    007735  aa   156164 145156    4081  	oct	156164145156
    007736  aa   164163 000000    4082  	oct	164163000000
    007737  aa   000410 000000    4083  	oct	000410000000
    007740  aa   000004 000000    4084  	oct	000004000000
    007741  aa   000000 000000    4085  	oct	000000000000
    007742  aa   777777 777777    4086  	oct	777777777777
                                  4087  	end

NO LITERALS

NAME DEFINITIONS FOR ENTRY POINTS AND SEGDEFS

    007744  5a   000003 000000
    007745  5a   000032 600000
    007746  aa   000000 000000
    007747  55   000013 000002
    007750  5a   000002 400003
    007751  55   000006 000013
    007752  aa  022 143 157 142
    007753  aa  157 154 137 162
    007754  aa  145 163 167 144
    007755  aa  137 164 141 142
    007756  aa  154 145 137 000
    007757  55   000023 000003
    007760  0a   000000 400000
    007761  55   000016 000003
    007762  aa  022 143 157 142         cobol_reswd_table_
    007763  aa  157 154 137 162
    007764  aa  145 163 167 144
    007765  aa  137 164 141 142
    007766  aa  154 145 137 000
    007767  55   000002 000013
    007770  6a   000000 400002
    007771  55   000026 000003
    007772  aa  014 163 171 155         symbol_table
    007773  aa  142 157 154 137
    007774  aa  164 141 142 154
    007775  aa  145 000 000 000

DEFINITIONS HASH TABLE

    007776  aa   000000 000015
    007777  aa   000000 000000
    010000  aa   000000 000000
    010001  aa   000000 000000
    010002  aa   000000 000000
    010003  aa   000000 000000
    010004  aa   000000 000000
    010005  5a   000023 000000
    010006  aa   000000 000000
    010007  aa   000000 000000
    010010  5a   000013 000000
    010011  aa   000000 000000
    010012  aa   000000 000000
    010013  aa   000000 000000

NO EXTERNAL NAMES

NO TRAP POINTER WORDS

TYPE PAIR BLOCKS

    010014  aa   000001 000000
    010015  aa   000000 000000

INTERNAL EXPRESSION WORDS

LINKAGE INFORMATION

    000000  aa   000000 000000
    000001  0a   007744 000000
    000002  aa   000000 000000
    000003  aa   000000 000000
    000004  aa   000000 000000
    000005  aa   000000 000000
    000006  22   000010 000010
    000007  a2   000000 000000
SYMBOL INFORMATION

SYMBOL TABLE HEADER

    000000  aa   000000 000001
    000001  aa   163171 155142
    000002  aa   164162 145145
    000003  aa   000000 000010
    000004  aa   000000 117244
    000005  aa   361023 525721
    000006  aa   000000 131036
    000007  aa   714621 767661
    000010  aa   141154 155040
    000011  aa   040040 040040
    000012  aa   000024 000040
    000013  aa   000034 000040
    000014  aa   000044 000100
    000015  aa   000002 000002
    000016  aa   000064 000000
    000017  aa   000000 000470
    000020  aa   000000 000104
    000021  aa   000453 000450
    000022  aa   000462 000104
    000023  aa   000064 000000
    000024  aa   101114 115040
    000025  aa   126145 162163
    000026  aa   151157 156040
    000027  aa   070056 061064
    000030  aa   040115 141162
    000031  aa   143150 040061
    000032  aa   071070 071040
    000033  aa   040040 040040
    000034  aa   123143 150162
    000035  aa   157164 150056
    000036  aa   123171 163115
    000037  aa   141151 156164
    000040  aa   056155 040040
    000041  aa   040040 040040
    000042  aa   040040 040040
    000043  aa   040040 040040
    000044  aa   154151 163164
    000045  aa   040163 171155
    000046  aa   142157 154163
    000047  aa   040040 040040
    000050  aa   040040 040040
    000051  aa   040040 040040
    000052  aa   040040 040040
    000053  aa   040040 040040
    000054  aa   040040 040040
    000055  aa   040040 040040
    000056  aa   040040 040040
    000057  aa   040040 040040
    000060  aa   040040 040040
    000061  aa   040040 040040
    000062  aa   040040 040040
    000063  aa   040040 040040
    000064  aa   000000 000001
    000065  aa   000000 000001
    000066  aa   000072 000046
    000067  aa   310157 127223
    000070  aa   000000 131036
    000071  aa   714624 600000
    000072  aa   076165 144144          >udd>sm>ds>w>ml>cobol_reswd_table_.alm
    000073  aa   076163 155076
    000074  aa   144163 076167
    000075  aa   076155 154076
    000076  aa   143157 142157
    000077  aa   154137 162145
    000100  aa   163167 144137
    000101  aa   164141 142154
    000102  aa   145137 056141
    000103  aa   154155 040040
               MULTICS ASSEMBLY CROSS REFERENCE LISTING

   Value        Symbol                   Source file   Line number

           0    cobol_reswd_table_       cobol_reswd_table_:        18,   19.


NO FATAL ERRORS


                                          -----------------------------------------------------------


Historical Background

This edition of the Multics software materials and documentation is provided and donated
to Massachusetts Institute of Technology by Group BULL including BULL HN Information Systems Inc.
as a contribution to computer science knowledge.
This donation is made also to give evidence of the common contributions of Massachusetts Institute of Technology,
Bell Laboratories, General Electric, Honeywell Information Systems Inc., Honeywell BULL Inc., Groupe BULL
and BULL HN Information Systems Inc. to the development of this operating system.
Multics development was initiated by Massachusetts Institute of Technology Project MAC (1963-1970),
renamed the MIT Laboratory for Computer Science and Artificial Intelligence in the mid 1970s, under the leadership
of Professor Fernando Jose Corbato. Users consider that Multics provided the best software architecture
for managing computer hardware properly and for executing programs. Many subsequent operating systems
incorporated Multics principles.
Multics was distributed in 1975 to 2000 by Group Bull in Europe , and in the U.S. by Bull HN Information Systems Inc.,
as successor in interest by change in name only to Honeywell Bull Inc. and Honeywell Information Systems Inc. .

                                          -----------------------------------------------------------

Permission to use, copy, modify, and distribute these programs and their documentation for any purpose and without
fee is hereby granted,provided that the below copyright notice and historical background appear in all copies
and that both the copyright notice and historical background and this permission notice appear in supporting
documentation, and that the names of MIT, HIS, BULL or BULL HN not be used in advertising or publicity pertaining
to distribution of the programs without specific prior written permission.
    Copyright 1972 by Massachusetts Institute of Technology and Honeywell Information Systems Inc.
    Copyright 2006 by BULL HN Information Systems Inc.
    Copyright 2006 by Bull SAS
    All Rights Reserved
