	COMPILATION LISTING OF SEGMENT !BBBJdNmNMqlwJb
	Compiled by: Multics PL/I Compiler, Release 33e, of October 6, 1992
	Compiled at: ACTC Technologies Inc.
	Compiled on: 10/19/92  1541.5 mdt Mon
	    Options: table map

        1 /* ***************************************************************
        2*   *                                                             *
        3*   * Copyright, (C) BULL HN Information Systems Inc., 1992       *
        4*   *                                                             *
        5*   * Copyright, (C) Massachusetts Institute of Technology, 1986  *
        6*   *                                                             *
        7*   * Copyright (c) 1982 by Massachusetts Institute of Technology *
        8*   *                                                             *
        9*   *************************************************************** */
       10
       11
       12
       13
       14 /* HISTORY COMMENTS:
       15*  1) change(86-07-29,Pattin), approve(86-07-29,MCR7354),
       16*     audit(86-08-03,Margolin), install(86-08-16,MR12.0-1128):
       17*     Added meeting_list, log_dir -> log_dest
       18*  2) change(92-09-17,Zimmerman), approve(92-09-17,MCR8258),
       19*     audit(92-09-22,WAAnderson), install(92-09-28,MR12.5-1020):
       20*     Change version number for release 12.5.
       21*  3) change(92-10-07,Vu), approve(92-10-07,MCR8273), audit(92-10-08,Zimmerman),
       22*     install(92-10-19,MR12.5-1027):
       23*     Change version number to 2.16 for release MR12.5
       24*                                                   END HISTORY COMMENTS */
       25
       26
       27 forum_data_:
       28      procedure ();
       29
       30 /* This procedure creates the segment 'forum_data_' which contains
       31*   static information used by the forum subsystem.
       32*
       33*   Initial coding:	800310 by M. Auerbach
       34*   added version_string for ssu_ 08/21/81 Jay Pattin
       35*   rewritten for forum 01/21/82 Jay Pattin
       36*   lobotomized because installers can't answer questions  4/2/82 Jay Pattin
       37*   Added message switches 5/19/82 Jay Pattin
       38*   Added meetings_directory 6/4/83 Jay Pattin
       39*   Added forum_ring 12/30/83 - Jeffrey I. Schiller
       40*   Added log_dir 07/22/84 - Jeffrey I. Schiller */
       41
       42 dcl 1 forum_external_data aligned,
       43     2 major_version fixed binary,
       44     2 minor_version fixed binary,
       45     2 version_string char (8),
       46     2 print_eligibility_messages bit (1) aligned,
       47     2 chairman_override bit (1) aligned,
       48     2 info_directory character (168),
       49     2 central_directory char (168),
       50     2 meetings_directory char (32),			/* default for announce_meeting */
       51     2 forum_ring fixed bin (3),
       52     2 log_destination char (168);
       53
       54 dcl 1 forum_static_data aligned,
       55     2 meeting_list pointer;
       56
       57 dcl 1 cds_data aligned like cds_args;			/* arguments to create_data_segment_ subr */
       58
       59 dcl  code fixed binary (35);
       60
       61 dcl  NAME character (32) static options (constant) initial ("forum_data_");
       62
       63 dcl  com_err_ entry () options (variable);
       64 dcl  create_data_segment_ entry (pointer, fixed binary (35));
       65 dcl  ioa_ entry () options (variable);
       66 dcl  ioa_$rsnnl entry () options (variable);
       67
       68 dcl (addr, currentsize, null, string) builtin;
       69
  1     1 /* BEGIN INCLUDE FILE cds_args.incl.pl1 */
  1     2
  1     3 dcl 1 cds_args based aligned,
  1     4     2 sections (2),
  1     5       3 p ptr,					/* pointer to data for text/static section */
  1     6       3 len fixed bin (18),				/* size of text/static section */
  1     7       3 struct_name char (32),			/* name of declared structure for this section */
  1     8     2 seg_name char (32),				/* name to create segment by */
  1     9     2 num_exclude_names fixed bin,			/* number of names in exclude array */
  1    10     2 exclude_array_ptr ptr,				/* pointer to array of exclude names */
  1    11     2 switches,					/* control switches */
  1    12       3 defs_in_link bit (1) unal,			/* says put defs in linkage */
  1    13       3 separate_static bit (1) unal,			/* says separate static section is wanted */
  1    14       3 have_text bit (1) unal,			/* ON if text section given */
  1    15       3 have_static bit (1) unal,			/* ON if static section given */
  1    16       3 pad bit (32) unal;
  1    17
  1    18 dcl  exclude_names (1) char (32) based;			/* pointed to be cds_args.exclude_array_ptr */
  1    19
  1    20 /* END INCLUDE FILE cds_args.incl.pl1 */
       70
       71
       72 /* Fill in the structure */
       73
       74 	forum_external_data.major_version = 2;		/* canned version for installation */
       75 	forum_external_data.minor_version = 16;
       76           forum_external_data.forum_ring = 2;		/* Ring of forums */
       77 	forum_external_data.print_eligibility_messages = "0"b;
       78 	forum_external_data.chairman_override = "1"b;
       79 	forum_external_data.central_directory = ">site>forum_dir";
       80 	forum_external_data.info_directory = ">doc>subsystem>forum";
       81 	forum_external_data.meetings_directory = "Meetings_Directory.forum";
       82
       83 	/* Shipped version should have log_dest set to "". If it contains
       84*	   a user-name, that user will be sent error messages from
       85*	   forum_logger_. */
       86
       87 	forum_external_data.log_destination = "";
       88
       89 	forum_static_data.meeting_list = null ();
       90
       91 	call ioa_$rsnnl ("^d.^d", forum_external_data.version_string, (0), forum_external_data.major_version,
       92 	     forum_external_data.minor_version);
       93 	call ioa_ ("Generating forum_data_ version ^a", forum_external_data.version_string);
       94 	if forum_external_data.log_destination ^= "" then
       95 	     call ioa_ ("WARNING: Forum error log will be sent to ^a.",
       96 	          forum_external_data.log_destination);
       97
       98 /* Set up arguments for call to create_data_segment_ */
       99
      100 	cds_data.sections (1).p = addr (forum_external_data);
      101 	cds_data.sections (1).len = currentsize (forum_external_data);
      102 	cds_data.sections (1).struct_name = "forum_external_data";
      103
      104 	cds_data.sections (2).p = addr (forum_static_data);
      105 	cds_data.sections (2).len = currentsize (forum_static_data);
      106 	cds_data.sections (2).struct_name = "forum_static_data";
      107
      108 	cds_data.seg_name = NAME;
      109
      110 	cds_data.num_exclude_names = 0;
      111 	cds_data.exclude_array_ptr = null ();
      112
      113 	string (cds_data.switches) = "0"b;
      114 	cds_data.switches.have_text = "1"b;
      115 	cds_data.switches.have_static = "1"b;
      116
      117 /* Call create_data_segment_ */
      118
      119 	call create_data_segment_ (addr (cds_data), code);
      120
      121 	if code ^= 0 then
      122 	     call com_err_ (code, NAME);
      123
      124 	return;
      125
      126      end forum_data_;
	SOURCE FILES USED IN THIS COMPILATION.

LINE      NUMBER  DATE MODIFIED     NAME			PATHNAME
             0    10/19/92  1539.7  !BBBJdNmNMqlwJb.pl1               >spec>inst>1027>forum_data_.cds
70           1    04/01/76  2309.5  cds_args.incl.pl1                 >ldd>include>cds_args.incl.pl1
	NAMES DECLARED IN THIS COMPILATION.

IDENTIFIER	     OFFSET    LOC STORAGE CLASS   DATA TYPE		ATTRIBUTES AND REFERENCES
								(* indicates a set context)

NAMES DECLARED BY DECLARE STATEMENT.
NAME                            000000 constant        char(32)                 initial packed unaligned dcl 61 set ref 108 121*
addr                                                   builtin function         dcl 68 ref 100 104 119 119
cds_args                               based           structure                level 1 dcl 1-3
cds_data                        000320 automatic       structure                level 1 dcl 57 set ref 119 119
central_directory        60     000100 automatic       char(168)                level 2 dcl 42 set ref 79*
chairman_override         5     000100 automatic       bit(1)                   level 2 dcl 42 set ref 78*
code                            000365 automatic       fixed bin(35,0)          dcl 59 set ref 119* 121 121*
com_err_                        000012 constant        entry                    external dcl 63 ref 121
create_data_segment_            000014 constant        entry                    external dcl 64 ref 119
currentsize                                            builtin function         dcl 68 ref 101 105
exclude_array_ptr        42     000320 automatic       pointer                  level 2 dcl 57 set ref 111*
forum_external_data             000100 automatic       structure                level 1 dcl 42 set ref 100 101
forum_ring              142     000100 automatic       fixed bin(3,0)           level 2 dcl 42 set ref 76*
forum_static_data               000316 automatic       structure                level 1 dcl 54 set ref 104 105
have_static              44(03) 000320 automatic       bit(1)                   level 3 packed packed unaligned dcl 57 set ref 115*
have_text                44(02) 000320 automatic       bit(1)                   level 3 packed packed unaligned dcl 57 set ref 114*
info_directory            6     000100 automatic       char(168)                level 2 dcl 42 set ref 80*
ioa_                            000016 constant        entry                    external dcl 65 ref 93 94
ioa_$rsnnl                      000020 constant        entry                    external dcl 66 ref 91
len                       2     000320 automatic       fixed bin(18,0)          array level 3 dcl 57 set ref 101* 105*
log_destination         143     000100 automatic       char(168)                level 2 dcl 42 set ref 87* 94 94*
major_version                   000100 automatic       fixed bin(17,0)          level 2 dcl 42 set ref 74* 91*
meeting_list                    000316 automatic       pointer                  level 2 dcl 54 set ref 89*
meetings_directory      132     000100 automatic       char(32)                 level 2 dcl 42 set ref 81*
minor_version             1     000100 automatic       fixed bin(17,0)          level 2 dcl 42 set ref 75* 91*
null                                                   builtin function         dcl 68 ref 89 111
num_exclude_names        40     000320 automatic       fixed bin(17,0)          level 2 dcl 57 set ref 110*
p                               000320 automatic       pointer                  array level 3 dcl 57 set ref 100* 104*
print_eligibility_messages
                          4     000100 automatic       bit(1)                   level 2 dcl 42 set ref 77*
sections                        000320 automatic       structure                array level 2 dcl 57
seg_name                 30     000320 automatic       char(32)                 level 2 dcl 57 set ref 108*
string                                                 builtin function         dcl 68 set ref 113*
struct_name               3     000320 automatic       char(32)                 array level 3 dcl 57 set ref 102* 106*
switches                 44     000320 automatic       structure                level 2 dcl 57 set ref 113*
version_string            2     000100 automatic       char(8)                  level 2 dcl 42 set ref 91* 93*

NAME DECLARED BY DECLARE STATEMENT AND NEVER REFERENCED.
exclude_names                          based           char(32)                 array packed unaligned dcl 1-18

NAME DECLARED BY EXPLICIT CONTEXT.
forum_data_                     000104 constant        entry                    external dcl 27

THERE WERE NO NAMES DECLARED BY CONTEXT OR IMPLICATION.

STORAGE REQUIREMENTS FOR THIS PROGRAM.

	Object	Text	Link	Symbol	Defs	Static
Start          0       0       406         430     322         416
Length      1622     322        22        1156      64           0

BLOCK NAME	         STACK SIZE     TYPE		WHY NONQUICK/WHO SHARES STACK FRAME
forum_data_                         282 external procedure  is an external procedure.

STORAGE FOR AUTOMATIC VARIABLES.

STACK FRAME                 LOC IDENTIFIER                  BLOCK NAME
forum_data_              000100 forum_external_data         forum_data_
                         000316 forum_static_data           forum_data_
                         000320 cds_data                    forum_data_
                         000365 code                        forum_data_

THE FOLLOWING EXTERNAL OPERATORS ARE USED BY THIS PROGRAM.
call_ext_out_desc   call_ext_out        return_mac          ext_entry

THE FOLLOWING EXTERNAL ENTRIES ARE CALLED BY THIS PROGRAM.
com_err_                      create_data_segment_          ioa_                          ioa_$rsnnl

NO EXTERNAL VARIABLES ARE USED BY THIS PROGRAM.


   LINE    LOC      LINE    LOC      LINE    LOC      LINE    LOC      LINE    LOC      LINE    LOC      LINE    LOC
     27 000103        74 000111        75 000113        76 000115        77 000117        78 000120        79 000122
     80 000125        81 000130        87 000133        89 000136        91 000140        93 000172        94 000212
    100 000236       101 000240       102 000242       104 000245       105 000247       106 000251       108 000254
    110 000257       111 000260       113 000262       114 000263       115 000265       119 000267       121 000302
    124 000321


Object Segment >spec>inst>1027>forum_data_
Created on 10/19/92  1541.8 mdt Mon
by WAAnderson.SysMaint.a
using create_data_segment_, Version II of Friday, May 18, 1990

        Object    Text    Defs    Link    Symb  Static
Start        0       0     216     360     372     370
Length     553     216     142      12     145       2


13 Definitions:


segname:    forum_data_

text|60         central_directory
text|5          chairman_override
text|142        forum_ring
text|6          info_directory
text|143        log_destination
text|0          major_version
link|10         meeting_list
text|132        meetings_directory
text|1          minor_version
text|4          print_eligibility_messages
symb|0          symbol_table
text|2          version_string


No Links.


                                          -----------------------------------------------------------


Historical Background

This edition of the Multics software materials and documentation is provided and donated
to Massachusetts Institute of Technology by Group BULL including BULL HN Information Systems Inc.
as a contribution to computer science knowledge.
This donation is made also to give evidence of the common contributions of Massachusetts Institute of Technology,
Bell Laboratories, General Electric, Honeywell Information Systems Inc., Honeywell BULL Inc., Groupe BULL
and BULL HN Information Systems Inc. to the development of this operating system.
Multics development was initiated by Massachusetts Institute of Technology Project MAC (1963-1970),
renamed the MIT Laboratory for Computer Science and Artificial Intelligence in the mid 1970s, under the leadership
of Professor Fernando Jose Corbato. Users consider that Multics provided the best software architecture
for managing computer hardware properly and for executing programs. Many subsequent operating systems
incorporated Multics principles.
Multics was distributed in 1975 to 2000 by Group Bull in Europe , and in the U.S. by Bull HN Information Systems Inc.,
as successor in interest by change in name only to Honeywell Bull Inc. and Honeywell Information Systems Inc. .

                                          -----------------------------------------------------------

Permission to use, copy, modify, and distribute these programs and their documentation for any purpose and without
fee is hereby granted,provided that the below copyright notice and historical background appear in all copies
and that both the copyright notice and historical background and this permission notice appear in supporting
documentation, and that the names of MIT, HIS, BULL or BULL HN not be used in advertising or publicity pertaining
to distribution of the programs without specific prior written permission.
    Copyright 1972 by Massachusetts Institute of Technology and Honeywell Information Systems Inc.
    Copyright 2006 by BULL HN Information Systems Inc.
    Copyright 2006 by Bull SAS
    All Rights Reserved
