ASSEMBLY LISTING OF SEGMENT >special_ldd>online>6848-10/30/84>forum_mgr_tv_.alm
ASSEMBLED ON:	10/30/84  1226.2 mst Tue
OPTIONS USED:	list
ASSEMBLED BY:	ALM Version  6.6  November 1982
ASSEMBLER CREATED:	09/21/83  1227.3 mst Wed

                                     1  "  ***************************************************************
                                     2  "  *                                                             *
                                     3  "  * Copyright (c) 1982 by Massachusetts Institute of Technology *
                                     4  "  *                                                             *
                                     5  "  ***************************************************************
                                     6  "
                                     7  "	Transfer vector for bound_v1_forum_mgr_
                                     8  "	Designed to avoid problems with installations.
                                     9  "
                                    10  "	Jay Pattin 5/9/82
                                    11
                                    12
    000000                          13  	name	forum_mgr_tv_.alm
                                    14
                                    15  	macro	tv
                              1     16
                              2     17  	segdef	&2
                              3     18
                              4     19  &2:	getlp
                              5     20  &=&3.,.&[	tra	&1$&2
                              6     21  &;	tra	&1$&3
                              7     22  &]
                              8     23
                              9     24  	&end
                                    25
                                    26  	tv	v1_forum_mgr_,open_forum

                        000000          	segdef	open_forum

    000000  aa  7 00046 2721 20         open_forum:	getlp
    000001  4a  4 00010 7101 20         	tra	v1_forum_mgr_$open_forum


                                    27  	tv	v1_forum_mgr_,close_forum

                        000002          	segdef	close_forum

    000002  aa  7 00046 2721 20         close_forum:	getlp
    000003  4a  4 00012 7101 20         	tra	v1_forum_mgr_$close_forum


                                    28
                                    29  	tv	v1_forum_seg_mgr_,list_forum_acl

                        000004          	segdef	list_forum_acl

    000004  aa  7 00046 2721 20         list_forum_acl:	getlp
    000005  4a  4 00014 7101 20         	tra	v1_forum_seg_mgr_$list_forum_acl


                                    30
                                    31  	tv	v1_forum_mgr_,set_switch

                        000006          	segdef	set_switch

    000006  aa  7 00046 2721 20         set_switch:	getlp
    000007  4a  4 00016 7101 20         	tra	v1_forum_mgr_$set_switch


                                    32  	tv	v1_forum_mgr_,set_switch_idx

                        000010          	segdef	set_switch_idx

    000010  aa  7 00046 2721 20         set_switch_idx:	getlp
    000011  4a  4 00020 7101 20         	tra	v1_forum_mgr_$set_switch_idx


                                    33
                                    34  	tv	v1_forum_mgr_,set_event_channel

                        000012          	segdef	set_event_channel

    000012  aa  7 00046 2721 20         set_event_channel:	getlp
    000013  4a  4 00022 7101 20         	tra	v1_forum_mgr_$set_event_channel


                                    35  	tv	v1_forum_mgr_,set_event_channel_idx

                        000014          	segdef	set_event_channel_idx

    000014  aa  7 00046 2721 20         set_event_channel_idx:	getlp
    000015  4a  4 00024 7101 20         	tra	v1_forum_mgr_$set_event_channel_idx


                                    36  	tv	v1_forum_trans_mgr_,convert_attendee_idx

                        000016          	segdef	convert_attendee_idx

    000016  aa  7 00046 2721 20         convert_attendee_idx:	getlp
    000017  4a  4 00026 7101 20         	tra	v1_forum_trans_mgr_$convert_attendee_idx


                                    37  	tv	v1_forum_trans_mgr_,validate_uid

                        000020          	segdef	validate_uid

    000020  aa  7 00046 2721 20         validate_uid:	getlp
    000021  4a  4 00030 7101 20         	tra	v1_forum_trans_mgr_$validate_uid


                                    38
                                    39  	tv	v1_forum_trans_mgr_,get_message

                        000022          	segdef	get_message

    000022  aa  7 00046 2721 20         get_message:	getlp
    000023  4a  4 00032 7101 20         	tra	v1_forum_trans_mgr_$get_message


                                    40  	tv	v1_forum_trans_mgr_,enter_trans

                        000024          	segdef	enter_trans

    000024  aa  7 00046 2721 20         enter_trans:	getlp
    000025  4a  4 00034 7101 20         	tra	v1_forum_trans_mgr_$enter_trans


                                    41  	tv	v1_forum_trans_mgr_,read_trans

                        000026          	segdef	read_trans

    000026  aa  7 00046 2721 20         read_trans:	getlp
    000027  4a  4 00036 7101 20         	tra	v1_forum_trans_mgr_$read_trans


                                    42
                                    43  	tv	v1_forum_trans_mgr_,set_delete_sw

                        000030          	segdef	set_delete_sw

    000030  aa  7 00046 2721 20         set_delete_sw:	getlp
    000031  4a  4 00040 7101 20         	tra	v1_forum_trans_mgr_$set_delete_sw


                                    44
                                    45  	tv	v1_forum_trans_mgr_,forum_limits

                        000032          	segdef	forum_limits

    000032  aa  7 00046 2721 20         forum_limits:	getlp
    000033  4a  4 00042 7101 20         	tra	v1_forum_trans_mgr_$forum_limits


                                    46  	tv	v1_forum_trans_mgr_,real_forum_limits

                        000034          	segdef	real_forum_limits

    000034  aa  7 00046 2721 20         real_forum_limits:	getlp
    000035  4a  4 00044 7101 20         	tra	v1_forum_trans_mgr_$real_forum_limits


                                    47  	tv	v1_forum_mgr_,list_users

                        000036          	segdef	list_users

    000036  aa  7 00046 2721 20         list_users:	getlp
    000037  4a  4 00046 7101 20         	tra	v1_forum_mgr_$list_users


                                    48  	tv	v1_forum_mgr_,list_users_idx

                        000040          	segdef	list_users_idx

    000040  aa  7 00046 2721 20         list_users_idx:	getlp
    000041  4a  4 00050 7101 20         	tra	v1_forum_mgr_$list_users_idx


                                    49
                                    50  	tv	v1_forum_trans_mgr_,trans_ref_info

                        000042          	segdef	trans_ref_info

    000042  aa  7 00046 2721 20         trans_ref_info:	getlp
    000043  4a  4 00052 7101 20         	tra	v1_forum_trans_mgr_$trans_ref_info


                                    51  	tv	v1_forum_trans_mgr_,real_trans_ref_info

                        000044          	segdef	real_trans_ref_info

    000044  aa  7 00046 2721 20         real_trans_ref_info:	getlp
    000045  4a  4 00054 7101 20         	tra	v1_forum_trans_mgr_$real_trans_ref_info


                                    52  	tv	v1_forum_trans_mgr_,trans_time_info

                        000046          	segdef	trans_time_info

    000046  aa  7 00046 2721 20         trans_time_info:	getlp
    000047  4a  4 00056 7101 20         	tra	v1_forum_trans_mgr_$trans_time_info


                                    53  	tv	v1_forum_trans_mgr_,check_user

                        000050          	segdef	check_user

    000050  aa  7 00046 2721 20         check_user:	getlp
    000051  4a  4 00060 7101 20         	tra	v1_forum_trans_mgr_$check_user


                                    54  	tv	v1_forum_mgr_,set_last_seen_idx

                        000052          	segdef	set_last_seen_idx

    000052  aa  7 00046 2721 20         set_last_seen_idx:	getlp
    000053  4a  4 00062 7101 20         	tra	v1_forum_mgr_$set_last_seen_idx


                                    55
                                    56  	tv	v1_forum_mgr_,forum_info

                        000054          	segdef	forum_info

    000054  aa  7 00046 2721 20         forum_info:	getlp
    000055  4a  4 00064 7101 20         	tra	v1_forum_mgr_$forum_info


                                    57  	tv	v1_forum_mgr_,forum_info_idx

                        000056          	segdef	forum_info_idx

    000056  aa  7 00046 2721 20         forum_info_idx:	getlp
    000057  4a  4 00066 7101 20         	tra	v1_forum_mgr_$forum_info_idx


                                    58  	tv	v1_forum_seg_mgr_,get_forum_path

                        000060          	segdef	get_forum_path

    000060  aa  7 00046 2721 20         get_forum_path:	getlp
    000061  4a  4 00070 7101 20         	tra	v1_forum_seg_mgr_$get_forum_path


                                    59  	tv	v1_forum_seg_mgr_,get_forum_path_idx

                        000062          	segdef	get_forum_path_idx

    000062  aa  7 00046 2721 20         get_forum_path_idx:	getlp
    000063  4a  4 00072 7101 20         	tra	v1_forum_seg_mgr_$get_forum_path_idx


                                    60  	tv	v1_forum_seg_mgr_,get_uid_file

                        000064          	segdef	get_uid_file

    000064  aa  7 00046 2721 20         get_uid_file:	getlp
    000065  4a  4 00074 7101 20         	tra	v1_forum_seg_mgr_$get_uid_file


                                    61
                                    62  	tv	v1_forum_seg_mgr_,create_forum

                        000066          	segdef	create_forum

    000066  aa  7 00046 2721 20         create_forum:	getlp
    000067  4a  4 00076 7101 20         	tra	v1_forum_seg_mgr_$create_forum


                                    63  	tv	v1_forum_seg_mgr_,chname_forum

                        000070          	segdef	chname_forum

    000070  aa  7 00046 2721 20         chname_forum:	getlp
    000071  4a  4 00100 7101 20         	tra	v1_forum_seg_mgr_$chname_forum


                                    64  	tv	v1_forum_seg_mgr_,chname_forum_idx

                        000072          	segdef	chname_forum_idx

    000072  aa  7 00046 2721 20         chname_forum_idx:	getlp
    000073  4a  4 00102 7101 20         	tra	v1_forum_seg_mgr_$chname_forum_idx


                                    65  	tv	v1_forum_seg_mgr_,delete_forum

                        000074          	segdef	delete_forum

    000074  aa  7 00046 2721 20         delete_forum:	getlp
    000075  4a  4 00104 7101 20         	tra	v1_forum_seg_mgr_$delete_forum


                                    66  	tv	v1_forum_seg_mgr_,set_forum_acl

                        000076          	segdef	set_forum_acl

    000076  aa  7 00046 2721 20         set_forum_acl:	getlp
    000077  4a  4 00106 7101 20         	tra	v1_forum_seg_mgr_$set_forum_acl


                                    67  	tv	v1_forum_trans_mgr_,set_message

                        000100          	segdef	set_message

    000100  aa  7 00046 2721 20         set_message:	getlp
    000101  4a  4 00110 7101 20         	tra	v1_forum_trans_mgr_$set_message


                                    68
                                    69  	tv	v1_forum_mgr_,change_chairman

                        000102          	segdef	change_chairman

    000102  aa  7 00046 2721 20         change_chairman:	getlp
    000103  4a  4 00112 7101 20         	tra	v1_forum_mgr_$change_chairman


                                    70  	tv	v1_forum_mgr_,change_chairman_idx

                        000104          	segdef	change_chairman_idx

    000104  aa  7 00046 2721 20         change_chairman_idx:	getlp
    000105  4a  4 00114 7101 20         	tra	v1_forum_mgr_$change_chairman_idx


                                    71
                                    72  	tv	v1_forum_gc_,expunge

                        000106          	segdef	expunge

    000106  aa  7 00046 2721 20         expunge:	getlp
    000107  4a  4 00116 7101 20         	tra	v1_forum_gc_$expunge


                                    73
                                    74  	tv	v1_forum_mgr_,priv_change_chairman

                        000110          	segdef	priv_change_chairman

    000110  aa  7 00046 2721 20         priv_change_chairman:	getlp
    000111  4a  4 00120 7101 20         	tra	v1_forum_mgr_$priv_change_chairman


                                    75  	tv	v1_forum_seg_mgr_,priv_delete_forum

                        000112          	segdef	priv_delete_forum

    000112  aa  7 00046 2721 20         priv_delete_forum:	getlp
    000113  4a  4 00122 7101 20         	tra	v1_forum_seg_mgr_$priv_delete_forum


                                    76  	tv	v1_forum_seg_mgr_,priv_set_forum_acl

                        000114          	segdef	priv_set_forum_acl

    000114  aa  7 00046 2721 20         priv_set_forum_acl:	getlp
    000115  4a  4 00124 7101 20         	tra	v1_forum_seg_mgr_$priv_set_forum_acl


                                    77  	tv	v1_forum_mgr_,priv_set_switch

                        000116          	segdef	priv_set_switch

    000116  aa  7 00046 2721 20         priv_set_switch:	getlp
    000117  4a  4 00126 7101 20         	tra	v1_forum_mgr_$priv_set_switch


                                    78  	tv	v1_forum_mgr_,set_global_switch

                        000120          	segdef	set_global_switch

    000120  aa  7 00046 2721 20         set_global_switch:	getlp
    000121  4a  4 00130 7101 20         	tra	v1_forum_mgr_$set_global_switch


                                    79
                                    80  	end

NO LITERALS

NAME DEFINITIONS FOR ENTRY POINTS AND SEGDEFS

    000122  5a   000003 000000
    000123  5a   000465 600000
    000124  aa   000000 000000
    000125  55   000013 000002
    000126  5a   000002 400003
    000127  55   000006 000013
    000130  aa  021 146 157 162
    000131  aa  165 155 137 155
    000132  aa  147 162 137 164
    000133  aa  166 137 056 141
    000134  aa  154 155 000 000
    000135  55   000023 000003
    000136  0a   000120 400000
    000137  55   000016 000003
    000140  aa  021 163 145 164         set_global_switch
    000141  aa  137 147 154 157
    000142  aa  142 141 154 137
    000143  aa  163 167 151 164
    000144  aa  143 150 000 000
    000145  55   000032 000013
    000146  0a   000116 400000
    000147  55   000026 000003
    000150  aa  017 160 162 151         priv_set_switch
    000151  aa  166 137 163 145
    000152  aa  164 137 163 167
    000153  aa  151 164 143 150
    000154  55   000042 000023
    000155  0a   000114 400000
    000156  55   000035 000003
    000157  aa  022 160 162 151         priv_set_forum_acl
    000160  aa  166 137 163 145
    000161  aa  164 137 146 157
    000162  aa  162 165 155 137
    000163  aa  141 143 154 000
    000164  55   000052 000032
    000165  0a   000112 400000
    000166  55   000045 000003
    000167  aa  021 160 162 151         priv_delete_forum
    000170  aa  166 137 144 145
    000171  aa  154 145 164 145
    000172  aa  137 146 157 162
    000173  aa  165 155 000 000
    000174  55   000063 000042
    000175  0a   000110 400000
    000176  55   000055 000003
    000177  aa  024 160 162 151         priv_change_chairman
    000200  aa  166 137 143 150
    000201  aa  141 156 147 145
    000202  aa  137 143 150 141
    000203  aa  151 162 155 141
    000204  aa  156 000 000 000
    000205  55   000070 000052
    000206  0a   000106 400000
    000207  55   000066 000003
    000210  aa  007 145 170 160         expunge
    000211  aa  165 156 147 145
    000212  55   000100 000063
    000213  0a   000104 400000
    000214  55   000073 000003
    000215  aa  023 143 150 141         change_chairman_idx
    000216  aa  156 147 145 137
    000217  aa  143 150 141 151
    000220  aa  162 155 141 156
    000221  aa  137 151 144 170
    000222  55   000107 000070
    000223  0a   000102 400000
    000224  55   000103 000003
    000225  aa  017 143 150 141         change_chairman
    000226  aa  156 147 145 137
    000227  aa  143 150 141 151
    000230  aa  162 155 141 156
    000231  55   000115 000100
    000232  0a   000100 400000
    000233  55   000112 000003
    000234  aa  013 163 145 164         set_message
    000235  aa  137 155 145 163
    000236  aa  163 141 147 145
    000237  55   000124 000107
    000240  0a   000076 400000
    000241  55   000120 000003
    000242  aa  015 163 145 164         set_forum_acl
    000243  aa  137 146 157 162
    000244  aa  165 155 137 141
    000245  aa  143 154 000 000
    000246  55   000133 000115
    000247  0a   000074 400000
    000250  55   000127 000003
    000251  aa  014 144 145 154         delete_forum
    000252  aa  145 164 145 137
    000253  aa  146 157 162 165
    000254  aa  155 000 000 000
    000255  55   000143 000124
    000256  0a   000072 400000
    000257  55   000136 000003
    000260  aa  020 143 150 156         chname_forum_idx
    000261  aa  141 155 145 137
    000262  aa  146 157 162 165
    000263  aa  155 137 151 144
    000264  aa  170 000 000 000
    000265  55   000152 000133
    000266  0a   000070 400000
    000267  55   000146 000003
    000270  aa  014 143 150 156         chname_forum
    000271  aa  141 155 145 137
    000272  aa  146 157 162 165
    000273  aa  155 000 000 000
    000274  55   000161 000143
    000275  0a   000066 400000
    000276  55   000155 000003
    000277  aa  014 143 162 145         create_forum
    000300  aa  141 164 145 137
    000301  aa  146 157 162 165
    000302  aa  155 000 000 000
    000303  55   000170 000152
    000304  0a   000064 400000
    000305  55   000164 000003
    000306  aa  014 147 145 164         get_uid_file
    000307  aa  137 165 151 144
    000310  aa  137 146 151 154
    000311  aa  145 000 000 000
    000312  55   000200 000161
    000313  0a   000062 400000
    000314  55   000173 000003
    000315  aa  022 147 145 164         get_forum_path_idx
    000316  aa  137 146 157 162
    000317  aa  165 155 137 160
    000320  aa  141 164 150 137
    000321  aa  151 144 170 000
    000322  55   000207 000170
    000323  0a   000060 400000
    000324  55   000203 000003
    000325  aa  016 147 145 164         get_forum_path
    000326  aa  137 146 157 162
    000327  aa  165 155 137 160
    000330  aa  141 164 150 000
    000331  55   000216 000200
    000332  0a   000056 400000
    000333  55   000212 000003
    000334  aa  016 146 157 162         forum_info_idx
    000335  aa  165 155 137 151
    000336  aa  156 146 157 137
    000337  aa  151 144 170 000
    000340  55   000224 000207
    000341  0a   000054 400000
    000342  55   000221 000003
    000343  aa  012 146 157 162         forum_info
    000344  aa  165 155 137 151
    000345  aa  156 146 157 000
    000346  55   000234 000216
    000347  0a   000052 400000
    000350  55   000227 000003
    000351  aa  021 163 145 164         set_last_seen_idx
    000352  aa  137 154 141 163
    000353  aa  164 137 163 145
    000354  aa  145 156 137 151
    000355  aa  144 170 000 000
    000356  55   000242 000224
    000357  0a   000050 400000
    000360  55   000237 000003
    000361  aa  012 143 150 145         check_user
    000362  aa  143 153 137 165
    000363  aa  163 145 162 000
    000364  55   000251 000234
    000365  0a   000046 400000
    000366  55   000245 000003
    000367  aa  017 164 162 141         trans_time_info
    000370  aa  156 163 137 164
    000371  aa  151 155 145 137
    000372  aa  151 156 146 157
    000373  55   000261 000242
    000374  0a   000044 400000
    000375  55   000254 000003
    000376  aa  023 162 145 141         real_trans_ref_info
    000377  aa  154 137 164 162
    000400  aa  141 156 163 137
    000401  aa  162 145 146 137
    000402  aa  151 156 146 157
    000403  55   000270 000251
    000404  0a   000042 400000
    000405  55   000264 000003
    000406  aa  016 164 162 141         trans_ref_info
    000407  aa  156 163 137 162
    000410  aa  145 146 137 151
    000411  aa  156 146 157 000
    000412  55   000277 000261
    000413  0a   000040 400000
    000414  55   000273 000003
    000415  aa  016 154 151 163         list_users_idx
    000416  aa  164 137 165 163
    000417  aa  145 162 163 137
    000420  aa  151 144 170 000
    000421  55   000305 000270
    000422  0a   000036 400000
    000423  55   000302 000003
    000424  aa  012 154 151 163         list_users
    000425  aa  164 137 165 163
    000426  aa  145 162 163 000
    000427  55   000315 000277
    000430  0a   000034 400000
    000431  55   000310 000003
    000432  aa  021 162 145 141         real_forum_limits
    000433  aa  154 137 146 157
    000434  aa  162 165 155 137
    000435  aa  154 151 155 151
    000436  aa  164 163 000 000
    000437  55   000324 000305
    000440  0a   000032 400000
    000441  55   000320 000003
    000442  aa  014 146 157 162         forum_limits
    000443  aa  165 155 137 154
    000444  aa  151 155 151 164
    000445  aa  163 000 000 000
    000446  55   000333 000315
    000447  0a   000030 400000
    000450  55   000327 000003
    000451  aa  015 163 145 164         set_delete_sw
    000452  aa  137 144 145 154
    000453  aa  145 164 145 137
    000454  aa  163 167 000 000
    000455  55   000341 000324
    000456  0a   000026 400000
    000457  55   000336 000003
    000460  aa  012 162 145 141         read_trans
    000461  aa  144 137 164 162
    000462  aa  141 156 163 000
    000463  55   000347 000333
    000464  0a   000024 400000
    000465  55   000344 000003
    000466  aa  013 145 156 164         enter_trans
    000467  aa  145 162 137 164
    000470  aa  162 141 156 163
    000471  55   000355 000341
    000472  0a   000022 400000
    000473  55   000352 000003
    000474  aa  013 147 145 164         get_message
    000475  aa  137 155 145 163
    000476  aa  163 141 147 145
    000477  55   000364 000347
    000500  0a   000020 400000
    000501  55   000360 000003
    000502  aa  014 166 141 154         validate_uid
    000503  aa  151 144 141 164
    000504  aa  145 137 165 151
    000505  aa  144 000 000 000
    000506  55   000375 000355
    000507  0a   000016 400000
    000510  55   000367 000003
    000511  aa  024 143 157 156         convert_attendee_idx
    000512  aa  166 145 162 164
    000513  aa  137 141 164 164
    000514  aa  145 156 144 145
    000515  aa  145 137 151 144
    000516  aa  170 000 000 000
    000517  55   000406 000364
    000520  0a   000014 400000
    000521  55   000400 000003
    000522  aa  025 163 145 164         set_event_channel_idx
    000523  aa  137 145 166 145
    000524  aa  156 164 137 143
    000525  aa  150 141 156 156
    000526  aa  145 154 137 151
    000527  aa  144 170 000 000
    000530  55   000416 000375
    000531  0a   000012 400000
    000532  55   000411 000003
    000533  aa  021 163 145 164         set_event_channel
    000534  aa  137 145 166 145
    000535  aa  156 164 137 143
    000536  aa  150 141 156 156
    000537  aa  145 154 000 000
    000540  55   000425 000406
    000541  0a   000010 400000
    000542  55   000421 000003
    000543  aa  016 163 145 164         set_switch_idx
    000544  aa  137 163 167 151
    000545  aa  164 143 150 137
    000546  aa  151 144 170 000
    000547  55   000433 000416
    000550  0a   000006 400000
    000551  55   000430 000003
    000552  aa  012 163 145 164         set_switch
    000553  aa  137 163 167 151
    000554  aa  164 143 150 000
    000555  55   000442 000425
    000556  0a   000004 400000
    000557  55   000436 000003
    000560  aa  016 154 151 163         list_forum_acl
    000561  aa  164 137 146 157
    000562  aa  162 165 155 137
    000563  aa  141 143 154 000
    000564  55   000450 000433
    000565  0a   000002 400000
    000566  55   000445 000003
    000567  aa  013 143 154 157         close_forum
    000570  aa  163 145 137 146
    000571  aa  157 162 165 155
    000572  55   000456 000442
    000573  0a   000000 400000
    000574  55   000453 000003
    000575  aa  012 157 160 145         open_forum
    000576  aa  156 137 146 157
    000577  aa  162 165 155 000
    000600  55   000002 000450
    000601  6a   000000 400002
    000602  55   000461 000003
    000603  aa  014 163 171 155         symbol_table
    000604  aa  142 157 154 137
    000605  aa  164 141 142 154
    000606  aa  145 000 000 000

DEFINITIONS HASH TABLE

    000607  aa   000000 000065
    000610  5a   000070 000000
    000611  5a   000200 000000
    000612  5a   000355 000000
    000613  5a   000333 000000
    000614  5a   000450 000000
    000615  5a   000161 000000
    000616  5a   000375 000000
    000617  5a   000347 000000
    000620  5a   000100 000000
    000621  aa   000000 000000
    000622  5a   000052 000000
    000623  5a   000270 000000
    000624  5a   000433 000000
    000625  5a   000442 000000
    000626  5a   000013 000000
    000627  5a   000032 000000
    000630  5a   000042 000000
    000631  5a   000224 000000
    000632  5a   000406 000000
    000633  5a   000133 000000
    000634  5a   000023 000000
    000635  5a   000277 000000
    000636  5a   000115 000000
    000637  5a   000234 000000
    000640  5a   000324 000000
    000641  5a   000207 000000
    000642  5a   000107 000000
    000643  5a   000143 000000
    000644  5a   000063 000000
    000645  5a   000315 000000
    000646  5a   000416 000000
    000647  5a   000425 000000
    000650  5a   000124 000000
    000651  5a   000216 000000
    000652  5a   000456 000000
    000653  aa   000000 000000
    000654  5a   000242 000000
    000655  aa   000000 000000
    000656  5a   000251 000000
    000657  5a   000261 000000
    000660  aa   000000 000000
    000661  aa   000000 000000
    000662  5a   000305 000000
    000663  aa   000000 000000
    000664  5a   000364 000000
    000665  5a   000341 000000
    000666  5a   000170 000000
    000667  aa   000000 000000
    000670  aa   000000 000000
    000671  aa   000000 000000
    000672  5a   000152 000000
    000673  aa   000000 000000
    000674  aa   000000 000000

EXTERNAL NAMES

    000675  aa  014 166 061 137         v1_forum_gc_
    000676  aa  146 157 162 165
    000677  aa  155 137 147 143
    000700  aa  137 000 000 000
    000701  aa  023 166 061 137         v1_forum_trans_mgr_
    000702  aa  146 157 162 165
    000703  aa  155 137 164 162
    000704  aa  141 156 163 137
    000705  aa  155 147 162 137
    000706  aa  021 166 061 137         v1_forum_seg_mgr_
    000707  aa  146 157 162 165
    000710  aa  155 137 163 145
    000711  aa  147 137 155 147
    000712  aa  162 137 000 000
    000713  aa  015 166 061 137         v1_forum_mgr_
    000714  aa  146 157 162 165
    000715  aa  155 137 155 147
    000716  aa  162 137 000 000

NO TRAP POINTER WORDS

TYPE PAIR BLOCKS

    000717  aa   000004 000000
    000720  55   000571 000016
    000721  aa   000004 000000
    000722  55   000571 000026
    000723  aa   000004 000000
    000724  55   000564 000035
    000725  aa   000004 000000
    000726  55   000564 000045
    000727  aa   000004 000000
    000730  55   000571 000055
    000731  aa   000004 000000
    000732  55   000553 000066
    000733  aa   000004 000000
    000734  55   000571 000073
    000735  aa   000004 000000
    000736  55   000571 000103
    000737  aa   000004 000000
    000740  55   000557 000112
    000741  aa   000004 000000
    000742  55   000564 000120
    000743  aa   000004 000000
    000744  55   000564 000127
    000745  aa   000004 000000
    000746  55   000564 000136
    000747  aa   000004 000000
    000750  55   000564 000146
    000751  aa   000004 000000
    000752  55   000564 000155
    000753  aa   000004 000000
    000754  55   000564 000164
    000755  aa   000004 000000
    000756  55   000564 000173
    000757  aa   000004 000000
    000760  55   000564 000203
    000761  aa   000004 000000
    000762  55   000571 000212
    000763  aa   000004 000000
    000764  55   000571 000221
    000765  aa   000004 000000
    000766  55   000571 000227
    000767  aa   000004 000000
    000770  55   000557 000237
    000771  aa   000004 000000
    000772  55   000557 000245
    000773  aa   000004 000000
    000774  55   000557 000254
    000775  aa   000004 000000
    000776  55   000557 000264
    000777  aa   000004 000000
    001000  55   000571 000273
    001001  aa   000004 000000
    001002  55   000571 000302
    001003  aa   000004 000000
    001004  55   000557 000310
    001005  aa   000004 000000
    001006  55   000557 000320
    001007  aa   000004 000000
    001010  55   000557 000327
    001011  aa   000004 000000
    001012  55   000557 000336
    001013  aa   000004 000000
    001014  55   000557 000344
    001015  aa   000004 000000
    001016  55   000557 000352
    001017  aa   000004 000000
    001020  55   000557 000360
    001021  aa   000004 000000
    001022  55   000557 000367
    001023  aa   000004 000000
    001024  55   000571 000400
    001025  aa   000004 000000
    001026  55   000571 000411
    001027  aa   000004 000000
    001030  55   000571 000421
    001031  aa   000004 000000
    001032  55   000571 000430
    001033  aa   000004 000000
    001034  55   000564 000436
    001035  aa   000004 000000
    001036  55   000571 000445
    001037  aa   000004 000000
    001040  55   000571 000453
    001041  aa   000001 000000
    001042  aa   000000 000000

INTERNAL EXPRESSION WORDS

    001043  5a   000575 000000
    001044  5a   000577 000000
    001045  5a   000601 000000
    001046  5a   000603 000000
    001047  5a   000605 000000
    001050  5a   000607 000000
    001051  5a   000611 000000
    001052  5a   000613 000000
    001053  5a   000615 000000
    001054  5a   000617 000000
    001055  5a   000621 000000
    001056  5a   000623 000000
    001057  5a   000625 000000
    001060  5a   000627 000000
    001061  5a   000631 000000
    001062  5a   000633 000000
    001063  5a   000635 000000
    001064  5a   000637 000000
    001065  5a   000641 000000
    001066  5a   000643 000000
    001067  5a   000645 000000
    001070  5a   000647 000000
    001071  5a   000651 000000
    001072  5a   000653 000000
    001073  5a   000655 000000
    001074  5a   000657 000000
    001075  5a   000661 000000
    001076  5a   000663 000000
    001077  5a   000665 000000
    001100  5a   000667 000000
    001101  5a   000671 000000
    001102  5a   000673 000000
    001103  5a   000675 000000
    001104  5a   000677 000000
    001105  5a   000701 000000
    001106  5a   000703 000000
    001107  5a   000705 000000
    001110  5a   000707 000000
    001111  5a   000711 000000
    001112  5a   000713 000000
    001113  5a   000715 000000
LINKAGE INFORMATION

    000000  aa   000000 000000
    000001  0a   000122 000000
    000002  aa   000000 000000
    000003  aa   000000 000000
    000004  aa   000000 000000
    000005  aa   000000 000000
    000006  22   000010 000132
    000007  a2   000000 000000
    000010  9a   777770 0000 46         v1_forum_mgr_|open_forum
    000011  5a   000771 0000 00
    000012  9a   777766 0000 46         v1_forum_mgr_|close_forum
    000013  5a   000770 0000 00
    000014  9a   777764 0000 46         v1_forum_seg_mgr_|list_forum_acl
    000015  5a   000767 0000 00
    000016  9a   777762 0000 46         v1_forum_mgr_|set_switch
    000017  5a   000766 0000 00
    000020  9a   777760 0000 46         v1_forum_mgr_|set_switch_idx
    000021  5a   000765 0000 00
    000022  9a   777756 0000 46         v1_forum_mgr_|set_event_channel
    000023  5a   000764 0000 00
    000024  9a   777754 0000 46         v1_forum_mgr_|set_event_channel_idx
    000025  5a   000763 0000 00
    000026  9a   777752 0000 46         v1_forum_trans_mgr_|convert_attendee_idx
    000027  5a   000762 0000 00
    000030  9a   777750 0000 46         v1_forum_trans_mgr_|validate_uid
    000031  5a   000761 0000 00
    000032  9a   777746 0000 46         v1_forum_trans_mgr_|get_message
    000033  5a   000760 0000 00
    000034  9a   777744 0000 46         v1_forum_trans_mgr_|enter_trans
    000035  5a   000757 0000 00
    000036  9a   777742 0000 46         v1_forum_trans_mgr_|read_trans
    000037  5a   000756 0000 00
    000040  9a   777740 0000 46         v1_forum_trans_mgr_|set_delete_sw
    000041  5a   000755 0000 00
    000042  9a   777736 0000 46         v1_forum_trans_mgr_|forum_limits
    000043  5a   000754 0000 00
    000044  9a   777734 0000 46         v1_forum_trans_mgr_|real_forum_limits
    000045  5a   000753 0000 00
    000046  9a   777732 0000 46         v1_forum_mgr_|list_users
    000047  5a   000752 0000 00
    000050  9a   777730 0000 46         v1_forum_mgr_|list_users_idx
    000051  5a   000751 0000 00
    000052  9a   777726 0000 46         v1_forum_trans_mgr_|trans_ref_info
    000053  5a   000750 0000 00
    000054  9a   777724 0000 46         v1_forum_trans_mgr_|real_trans_ref_info
    000055  5a   000747 0000 00
    000056  9a   777722 0000 46         v1_forum_trans_mgr_|trans_time_info
    000057  5a   000746 0000 00
    000060  9a   777720 0000 46         v1_forum_trans_mgr_|check_user
    000061  5a   000745 0000 00
    000062  9a   777716 0000 46         v1_forum_mgr_|set_last_seen_idx
    000063  5a   000744 0000 00
    000064  9a   777714 0000 46         v1_forum_mgr_|forum_info
    000065  5a   000743 0000 00
    000066  9a   777712 0000 46         v1_forum_mgr_|forum_info_idx
    000067  5a   000742 0000 00
    000070  9a   777710 0000 46         v1_forum_seg_mgr_|get_forum_path
    000071  5a   000741 0000 00
    000072  9a   777706 0000 46         v1_forum_seg_mgr_|get_forum_path_idx
    000073  5a   000740 0000 00
    000074  9a   777704 0000 46         v1_forum_seg_mgr_|get_uid_file
    000075  5a   000737 0000 00
    000076  9a   777702 0000 46         v1_forum_seg_mgr_|create_forum
    000077  5a   000736 0000 00
    000100  9a   777700 0000 46         v1_forum_seg_mgr_|chname_forum
    000101  5a   000735 0000 00
    000102  9a   777676 0000 46         v1_forum_seg_mgr_|chname_forum_idx
    000103  5a   000734 0000 00
    000104  9a   777674 0000 46         v1_forum_seg_mgr_|delete_forum
    000105  5a   000733 0000 00
    000106  9a   777672 0000 46         v1_forum_seg_mgr_|set_forum_acl
    000107  5a   000732 0000 00
    000110  9a   777670 0000 46         v1_forum_trans_mgr_|set_message
    000111  5a   000731 0000 00
    000112  9a   777666 0000 46         v1_forum_mgr_|change_chairman
    000113  5a   000730 0000 00
    000114  9a   777664 0000 46         v1_forum_mgr_|change_chairman_idx
    000115  5a   000727 0000 00
    000116  9a   777662 0000 46         v1_forum_gc_|expunge
    000117  5a   000726 0000 00
    000120  9a   777660 0000 46         v1_forum_mgr_|priv_change_chairman
    000121  5a   000725 0000 00
    000122  9a   777656 0000 46         v1_forum_seg_mgr_|priv_delete_forum
    000123  5a   000724 0000 00
    000124  9a   777654 0000 46         v1_forum_seg_mgr_|priv_set_forum_acl
    000125  5a   000723 0000 00
    000126  9a   777652 0000 46         v1_forum_mgr_|priv_set_switch
    000127  5a   000722 0000 00
    000130  9a   777650 0000 46         v1_forum_mgr_|set_global_switch
    000131  5a   000721 0000 00
SYMBOL INFORMATION

SYMBOL TABLE HEADER

    000000  aa   000000 000001
    000001  aa   163171 155142
    000002  aa   164162 145145
    000003  aa   000000 000004
    000004  aa   000000 112143
    000005  aa   305203 523135
    000006  aa   000000 113140
    000007  aa   453403 620542
    000010  aa   141154 155040
    000011  aa   040040 040040
    000012  aa   000024 000040
    000013  aa   000034 000040
    000014  aa   000044 000100
    000015  aa   000002 000002
    000016  aa   000064 000000
    000017  aa   000000 000152
    000020  aa   000000 000107
    000021  aa   000000 000123
    000022  aa   000144 000107
    000023  aa   000064 000000
    000024  aa   101114 115040
    000025  aa   126145 162163
    000026  aa   151157 156040
    000027  aa   040066 056066
    000030  aa   040040 116157
    000031  aa   166145 155142
    000032  aa   145162 040061
    000033  aa   071070 062040
    000034  aa   107112 157150
    000035  aa   156163 157156
    000036  aa   056123 171163
    000037  aa   115141 151156
    000040  aa   164056 155040
    000041  aa   040040 040040
    000042  aa   040040 040040
    000043  aa   040040 040040
    000044  aa   154151 163164
    000045  aa   040040 040040
    000046  aa   040040 040040
    000047  aa   040040 040040
    000050  aa   040040 040040
    000051  aa   040040 040040
    000052  aa   040040 040040
    000053  aa   040040 040040
    000054  aa   040040 040040
    000055  aa   040040 040040
    000056  aa   040040 040040
    000057  aa   040040 040040
    000060  aa   040040 040040
    000061  aa   040040 040040
    000062  aa   040040 040040
    000063  aa   040040 040040
    000064  aa   000000 000001
    000065  aa   000000 000001
    000066  aa   000072 000063
    000067  aa   131376 220642
    000070  aa   000000 113140
    000071  aa   351366 000000
    000072  aa   076163 160145          >special_ldd>online>6848-10/30/84>forum_mgr_tv_.alm
    000073  aa   143151 141154
    000074  aa   137154 144144
    000075  aa   076157 156154
    000076  aa   151156 145076
    000077  aa   066070 064070
    000100  aa   055061 060057
    000101  aa   063060 057070
    000102  aa   064076 146157
    000103  aa   162165 155137
    000104  aa   155147 162137
    000105  aa   164166 137056
    000106  aa   141154 155040
               MULTICS ASSEMBLY CROSS REFERENCE LISTING

   Value        Symbol                   Source file   Line number

         102    change_chairman          forum_mgr_tv_:       69.
         104    change_chairman_idx      forum_mgr_tv_:       70.
          50    check_user               forum_mgr_tv_:       53.
          70    chname_forum             forum_mgr_tv_:       63.
          72    chname_forum_idx         forum_mgr_tv_:       64.
           2    close_forum              forum_mgr_tv_:       27.
          16    convert_attendee_idx     forum_mgr_tv_:       36.
          66    create_forum             forum_mgr_tv_:       62.
          74    delete_forum             forum_mgr_tv_:       65.
          24    enter_trans              forum_mgr_tv_:       40.
         106    expunge                  forum_mgr_tv_:       72.
          54    forum_info               forum_mgr_tv_:       56.
          56    forum_info_idx           forum_mgr_tv_:       57.
          32    forum_limits             forum_mgr_tv_:       45.
          60    get_forum_path           forum_mgr_tv_:       58.
          62    get_forum_path_idx       forum_mgr_tv_:       59.
          22    get_message              forum_mgr_tv_:       39.
          64    get_uid_file             forum_mgr_tv_:       60.
           4    list_forum_acl           forum_mgr_tv_:       29.
          36    list_users               forum_mgr_tv_:       47.
          40    list_users_idx           forum_mgr_tv_:       48.
           0    open_forum               forum_mgr_tv_:       26.
         110    priv_change_chairman     forum_mgr_tv_:       74.
         112    priv_delete_forum        forum_mgr_tv_:       75.
         114    priv_set_forum_acl       forum_mgr_tv_:       76.
         116    priv_set_switch          forum_mgr_tv_:       77.
          26    read_trans               forum_mgr_tv_:       41.
          34    real_forum_limits        forum_mgr_tv_:       46.
          44    real_trans_ref_info      forum_mgr_tv_:       51.
          30    set_delete_sw            forum_mgr_tv_:       43.
          12    set_event_channel        forum_mgr_tv_:       34.
          14    set_event_channel_idx    forum_mgr_tv_:       35.
          76    set_forum_acl            forum_mgr_tv_:       66.
         120    set_global_switch        forum_mgr_tv_:       78.
          52    set_last_seen_idx        forum_mgr_tv_:       54.
         100    set_message              forum_mgr_tv_:       67.
           6    set_switch               forum_mgr_tv_:       31.
          10    set_switch_idx           forum_mgr_tv_:       32.
          42    trans_ref_info           forum_mgr_tv_:       50.
          46    trans_time_info          forum_mgr_tv_:       52.
                v1_forum_gc_             forum_mgr_tv_:       72.
                v1_forum_mgr_            forum_mgr_tv_:       26,   27,   31,   32,   34,   35,   47,   48,   54,   56,   57,
                                                              69,   70,   74,   77,   78.
                v1_forum_seg_mgr_        forum_mgr_tv_:       29,   58,   59,   60,   62,   63,   64,   65,   66,   75,   76.
                v1_forum_trans_mgr_      forum_mgr_tv_:       36,   37,   39,   40,   41,   43,   45,   46,   50,   51,   52,
                                                              53,   67.
          20    validate_uid             forum_mgr_tv_:       37.


NO FATAL ERRORS


                                          -----------------------------------------------------------


Historical Background

This edition of the Multics software materials and documentation is provided and donated
to Massachusetts Institute of Technology by Group BULL including BULL HN Information Systems Inc.
as a contribution to computer science knowledge.
This donation is made also to give evidence of the common contributions of Massachusetts Institute of Technology,
Bell Laboratories, General Electric, Honeywell Information Systems Inc., Honeywell BULL Inc., Groupe BULL
and BULL HN Information Systems Inc. to the development of this operating system.
Multics development was initiated by Massachusetts Institute of Technology Project MAC (1963-1970),
renamed the MIT Laboratory for Computer Science and Artificial Intelligence in the mid 1970s, under the leadership
of Professor Fernando Jose Corbato. Users consider that Multics provided the best software architecture
for managing computer hardware properly and for executing programs. Many subsequent operating systems
incorporated Multics principles.
Multics was distributed in 1975 to 2000 by Group Bull in Europe , and in the U.S. by Bull HN Information Systems Inc.,
as successor in interest by change in name only to Honeywell Bull Inc. and Honeywell Information Systems Inc. .

                                          -----------------------------------------------------------

Permission to use, copy, modify, and distribute these programs and their documentation for any purpose and without
fee is hereby granted,provided that the below copyright notice and historical background appear in all copies
and that both the copyright notice and historical background and this permission notice appear in supporting
documentation, and that the names of MIT, HIS, BULL or BULL HN not be used in advertising or publicity pertaining
to distribution of the programs without specific prior written permission.
    Copyright 1972 by Massachusetts Institute of Technology and Honeywell Information Systems Inc.
    Copyright 2006 by BULL HN Information Systems Inc.
    Copyright 2006 by Bull SAS
    All Rights Reserved
