ASSEMBLY LISTING OF SEGMENT >special_ldd>install>MR12.0-1206>forum_error_table_.alm
ASSEMBLED ON:	11/05/86  1107.7 mst Wed
OPTIONS USED:	list
ASSEMBLED BY:	ALM Version  6.7  October 1986
ASSEMBLER CREATED:	10/08/86  1557.5 mst Wed

                                     1  " ***************************************************************
                                     2  " *                                                             *
                                     3  " * Copyright, (C) Massachusetts Institute of Technology, 1986  *
                                     4  " *                                                             *
                                     5  " * Copyright (c) 1982 by Massachusetts Institute of Technology *
                                     6  " *                                                             *
                                     7  " ***************************************************************
                                     8
                                     9  " HISTORY COMMENTS:
                                    10  "  1) change(86-07-29,Pattin), approve(86-07-29,MCR7354),
                                    11  "     audit(86-08-03,Margolin), install(86-08-16,MR12.0-1128):
                                    12  "     Added rqo_load and not_user_switch error codes.
                                    13  "                                                      END HISTORY COMMENTS
                                    14
                                    15
                                    16  "	This is the error table for forum
                                    17  "
                                    18  "	Created 14 June 1981 by J. Spencer Love
                                    19  "	Modified for continuum version 5 and forum version 1 January 1982 Jay Pattin
                                    20
                                    21  	include	et_macros
                                   1-1  " Begin include file ...... et_macros.incl.alm
                                   1-2  "	Written 6/15/77 by Noel I. Morris
                                   1-3  "	Modified '82 so error code entries are in first page of segment.
                                   1-4
                                   1-5  " This include file contains macros for generating error tables
                                   1-6  " for both system and non-system use.
                                   1-7
                                   1-8  " ET MACRO
                                   1-9  "
                                  1-10  " This macro is used to initialize the error table for either
                                  1-11  " system or non-system use.  It is invoked at the beginning of
                                  1-12  " the error table as follows:
                                  1-13  "
                                  1-14  "	et	table_name{,system}
                                  1-15  "
                                  1-16
                                  1-17  macro	et
                              1   1-18  	maclist	on
                              2   1-19
                              3   1-20  	name	&1
                              4   1-21
                              5   1-22  &^=&2,system&[
                              6   1-23
                              7   1-24  	include	stack_header
                              8   1-25
                              9   1-26  
                             10   1-27
                             11   1-28  	use	codes
                             12   1-29  .code_start:
                             13   1-30
                             14   1-31  	use	past_codes
                             15   1-32  .code_end:
                             16   1-33
                             17   1-34  	join	/link/codes,past_codes
                             18   1-35
                             19   1-36  	use	messages
                             20   1-37
                             21   1-38  .trapproc:
                             22   1-39  	epaq	0,ic
                             23   1-40  	eax0	0,au
                             24   1-41  	epbpsb	sp|0
                             25   1-42  	lprplp	sb|stack_header.lot_ptr,*au
                             26   1-43  	eax1	.code_start
                             27   1-44  .loop:	stx0	lp|0,x1
                             28   1-45  	eax1	1,x1
                             29   1-46  	cmpx1	.code_end,du
                             30   1-47  	tmi	.loop-*,ic
                             31   1-48  	short_return
                             32   1-49
                             33   1-50  	firstref	<*text>|.trapproc
                             34   1-51
                             35   1-52  &;	use	codes
                             36   1-53  	use	messages
                             37   1-54
                             38   1-55  	join	/text/codes,messages
                             39   1-56
                             40   1-57  &]
                             41   1-58
                             42   1-59  	bool	.segno,77777
                             43   1-60
                             44   1-61  	maclist	off
                             45   1-62
                             46   1-63  	&end
                                  1-64
                                  1-65  
                                  1-66
                                  1-67  " EC MACRO
                                  1-68  "
                                  1-69  " This macro is used to define an error code as shown:
                                  1-70  "
                                  1-71  "	ec	name,{short_mess},(long_mess)
                                  1-72  "
                                  1-73  " If more than a single name is to be defined for a given message,
                                  1-74  " a list of names separated by commas and enclosed in parentheses
                                  1-75  " must be given.   short_mess must be 8 or less characters.  If omitted,
                                  1-76  " the short_mess will be set to the name.  long_mess is enclosed
                                  1-77  " in parentheses in order to cause ALM to ignore embedded blanks.  Please
                                  1-78  " note that double quote characters in either short_mess or long_mess
                                  1-79  " must be doubled in order to make the ALM assembly work properly.
                                  1-80  " Note that a macro invocation line terminated by a comma will cause that
                                  1-81  " statement to be continued on the next line.
                                  1-82
                                  1-83  macro	ec
                              1   1-84  	use	codes
                              2   1-85
                              3   1-86  	maclist	on,save
                              4   1-87  &(1	segdef  &i
                              5   1-88  &)	maclist	restore
                              6   1-89  &(1&i:
                              7   1-90  &)	maclist	object,save
                              8   1-91  	zero	.segno,&U
                              9   1-92  	maclist	restore
                             10   1-93  	use	messages
                             11   1-94  &^=&l2,0&[	shortname    &2
                             12   1-95  &;	shortname    &1
                             13   1-96  &]
                             14   1-97  &U:
                             15   1-98  	maclist	on,save
                             16   1-99  	acc  "&3"
                             17  1-100
                             18  1-101  	maclist	restore
                             19  1-102  	&end
                                 1-103
                                 1-104  macro	shortname
                              1  1-105  	maclist	on,save
                              2  1-106  	aci  "&1",8
                              3  1-107  	maclist	restore
                              4  1-108  	&end
                                 1-109
                                 1-110  
                                 1-111
                                 1-112  " A typical error table source program might have the following format:
                                 1-113  "
                                 1-114  "	include	et_macros
                                 1-115  "
                                 1-116  "	et	name_of_error_table
                                 1-117  "
                                 1-118  "	ec	error_code_1,ecode1,(This is error code 1.)
                                 1-119  "
                                 1-120  "	ec	error_code_2,ecode2,(This is error code 2.)
                                 1-121  "
                                 1-122  "	:	     :	      :		:
                                 1-123  "
                                 1-124  "	ec	error_code_n,ecoden,(This is the nth error code.)
                                 1-125  "
                                 1-126  "	end
                                 1-127  "
                                 1-128
                                 1-129  " End of include file ...... et_macros.incl.alm
                                 1-130
                                    22
                                    23  	et	forum_error_table_

    000000                              	name	forum_error_table_


                                        	include	stack_header
                                   2-1  "	BEGIN INCLUDE FILE ... stack_header.incl.alm  3/72  Bill Silver
                                   2-2  "
                                   2-3  "	modified 7/76 by M. Weaver for *system links and more system use of areas
                                   2-4  "	modified 3/77 by M. Weaver  to add rnt_ptr
                                   2-5  "	modified 7/77 by S. Webber to add run_unit_depth and assign_linkage_ptr
                                   2-6  "	modified 6/83 by J. Ives to add trace_frames and in_trace.
                                   2-7
                                   2-8  " HISTORY COMMENTS:
                                   2-9  "  1) change(86-06-24,DGHowe), approve(86-06-24,MCR7396),
                                  2-10  "     audit(86-08-05,Schroth), install(86-11-03,MR12.0-1206):
                                  2-11  "     added the heap_header_ptr definition
                                  2-12  "  2) change(86-08-12,Kissel), approve(86-08-12,MCR7473),
                                  2-13  "     audit(86-10-10,Fawcett), install(86-11-03,MR12.0-1206):
                                  2-14  "     Modified to support control point management.  These changes were
                                  2-15  "     actually made in February 1985 by G. Palter.
                                  2-16  "  3) change(86-10-22,Fawcett), approve(86-10-22,MCR7473),
                                  2-17  "     audit(86-10-22,Farley), install(86-11-03,MR12.0-1206):
                                  2-18  "     Remove the old_lot pointer and replace it with cpm_data_ptr. Use the 18
                                  2-19  "     bit pad after cur_lot_size for the cpm_enabled. This was done to save
                                  2-20  "     some space int the stack header and change the cpd_ptr unal to
                                  2-21  "     cpm_data_ptr (ITS pair).
                                  2-22  "                                                      END HISTORY COMMENTS
                                  2-23
                        000004    2-24  	equ	stack_header.cpm_data_ptr,4		ptr to control point for this stack
                        000006    2-25  	equ	stack_header.combined_stat_ptr,6	ptr to separate static area
                                  2-26
                        000010    2-27  	equ	stack_header.clr_ptr,8		ptr to area containing linkage sections
                        000012    2-28  	equ	stack_header.max_lot_size,10		number of words allowed in lot (DU)
                        000012    2-29  	equ	stack_header.main_proc_invoked,10	nonzero if main proc was invoked in run unit (DL)
                        000012    2-30  	equ	stack_header.run_unit_depth,10	number of active run units stacked (DL)
                        000013    2-31  	equ	stack_header.cur_lot_size,11		DU number of words (entries) in lot
                        000013    2-32            equ	stack_header.cpm_enabled,11		DL  non-zero if control point management is enabled
                        000014    2-33  	equ	stack_header.system_free_ptr,12	ptr to system storage area
                        000016    2-34  	equ	stack_header.user_free_ptr,14		ptr to user storage area
                                  2-35
                        000020    2-36  	equ	stack_header.parent_ptr,16		ptr to parent stack or null
                        000022    2-37  	equ	stack_header.stack_begin_ptr,18	ptr to first stack frame
                        000024    2-38  	equ	stack_header.stack_end_ptr,20		ptr to next useable stack frame
                        000026    2-39  	equ	stack_header.lot_ptr,22		ptr to the lot for the current ring
                                  2-40
                        000030    2-41  	equ	stack_header.signal_ptr,24		ptr to signal proc for current ring
                        000032    2-42  	equ	stack_header.bar_mode_sp,26		value of sp before entering bar mode
                        000034    2-43  	equ	stack_header.pl1_operators_ptr,28	ptr: pl1_operators_$operator_table
                        000036    2-44  	equ	stack_header.call_op_ptr,30		ptr to standard call operator
                                  2-45
                        000040    2-46  	equ	stack_header.push_op_ptr,32		ptr to standard push operator
                        000042    2-47  	equ	stack_header.return_op_ptr,34		ptr to standard return operator
                        000044    2-48  	equ	stack_header.ret_no_pop_op_ptr,36	ptr: stand. return/ no pop operator
                        000046    2-49  	equ	stack_header.entry_op_ptr,38		ptr to standard entry operator
                                  2-50
                        000050    2-51  	equ	stack_header.trans_op_tv_ptr,40	ptr to table of translator operator ptrs
                        000052    2-52  	equ	stack_header.isot_ptr,42		pointer to ISOT
                        000054    2-53  	equ	stack_header.sct_ptr,44		pointer to System Condition Table
                        000056    2-54  	equ	stack_header.unwinder_ptr,46		pointer to unwinder for current ring
                                  2-55
                        000060    2-56  	equ	stack_header.sys_link_info_ptr,48	ptr to *system link name table
                        000062    2-57  	equ	stack_header.rnt_ptr,50		ptr to reference name table
                        000064    2-58  	equ	stack_header.ect_ptr,52		ptr to event channel table
                        000066    2-59  	equ	stack_header.assign_linkage_ptr,54	ptr to area for hcs_$assign_linkage calls
                        000070    2-60  	equ	stack_header.heap_header_ptr,56	ptr to heap header.
                        000072    2-61  	equ	stack_header.trace_frames,58		stack of trace_catch_ frames
                        000073    2-62  	equ	stach_header.trace_top_ptr,59		trace pointer
                        000074    2-63  	equ	stack_header.in_trace,60		trace antirecurse bit
                        000100    2-64  	equ	stack_header_end,64			length of stack header
                                  2-65
                                  2-66
                                  2-67
                                  2-68
                        000000    2-69  	equ	trace_frames.count,0		number of trace frames on stack
                        000001    2-70  	equ	trace_frames.top_ptr,1		packed pointer to top one
                                  2-71
                                  2-72  "	The  following constant is an offset within the  pl1  operators table.
                                  2-73  "	It  references a  transfer vector table.
                                  2-74
                        000551    2-75  	bool	tv_offset,551
                                  2-76
                                  2-77
                                  2-78  "	The  following constants are offsets within this transfer vector table.
                                  2-79
                        001170    2-80  	equ	call_offset,tv_offset+271
                        001171    2-81  	equ	push_offset,tv_offset+272
                        001172    2-82  	equ	return_offset,tv_offset+273
                        001173    2-83  	equ	return_no_pop_offset,tv_offset+274
                        001174    2-84  	equ	entry_offset,tv_offset+275
                                  2-85
                                  2-86
                                  2-87  " 	END INCLUDE FILE stack_header.incl.alm

                                        

                                        	use	codes
    000010                              .code_start:

                                        	use	past_codes
    000077                              .code_end:

                                        	join	/link/codes,past_codes

                                        	use	messages

    000000                              .trapproc:
    000000  aa   000000 2130 04         	epaq	0,ic
    000001  aa   000000 6200 01         	eax0	0,au
    000002  aa  6 00000 3731 00         	epbpsb	sp|0
    000003  aa  7 00026 7641 61         	lprplp	sb|stack_header.lot_ptr,*au
    000004  8a   000010 6210 00         	eax1	.code_start
    000005  aa  4 00000 7401 11         .loop:	stx0	lp|0,x1
    000006  aa   000001 6210 11         	eax1	1,x1
    000007  8a   000077 1010 03         	cmpx1	.code_end,du
    000010  aa   777775 6040 04         	tmi	.loop-*,ic
    000011  aa  7 00044 7101 20         	short_return

    000012                              	firstref	<*text>|.trapproc


                        077777          	bool	.segno,77777

                                    24
                                    25  	ec	anon_chairman,AnonChmn,(Anonymous users may not chair meetings.)
                        000010          	segdef  anon_chairman
    000010  a0   077777 000014
    000012  aa  101 156 157 156         	aci  "AnonChmn",8
    000013  aa  103 150 155 156
    000014  aa  047 101 156 157         	acc  "Anonymous users may not chair meetings."
    000015  aa  156 171 155 157
    000016  aa  165 163 040 165
    000017  aa  163 145 162 163
    000020  aa  040 155 141 171
    000021  aa  040 156 157 164
    000022  aa  040 143 150 141
    000023  aa  151 162 040 155
    000024  aa  145 145 164 151
    000025  aa  156 147 163 056

                                    26  	ec	bad_reply_idx,BadRpIdx,(The transaction being replied to must have a lower index.)
                        000011          	segdef  bad_reply_idx
    000011  a0   077777 000030
    000026  aa  102 141 144 122         	aci  "BadRpIdx",8
    000027  aa  160 111 144 170
    000030  aa  071 124 150 145         	acc  "The transaction being replied to must have a lower index."
    000031  aa  040 164 162 141
    000032  aa  156 163 141 143
    000033  aa  164 151 157 156
    000034  aa  040 142 145 151
    000035  aa  156 147 040 162
    000036  aa  145 160 154 151
    000037  aa  145 144 040 164
    000040  aa  157 040 155 165
    000041  aa  163 164 040 150
    000042  aa  141 166 145 040
    000043  aa  141 040 154 157
    000044  aa  167 145 162 040
    000045  aa  151 156 144 145
    000046  aa  170 056 000 000

                                    27  	ec	bad_trans_spec,BadSpec,(Invalid transaction specification.)
                        000012          	segdef  bad_trans_spec
    000012  a0   077777 000051
    000047  aa  102 141 144 123         	aci  "BadSpec",8
    000050  aa  160 145 143 040
    000051  aa  042 111 156 166         	acc  "Invalid transaction specification."
    000052  aa  141 154 151 144
    000053  aa  040 164 162 141
    000054  aa  156 163 141 143
    000055  aa  164 151 157 156
    000056  aa  040 163 160 145
    000057  aa  143 151 146 151
    000060  aa  143 141 164 151
    000061  aa  157 156 056 000

                                    28  	ec	blank_forum_name,NullName,(The meeting name is blank.)
                        000013          	segdef  blank_forum_name
    000013  a0   077777 000064
    000062  aa  116 165 154 154         	aci  "NullName",8
    000063  aa  116 141 155 145
    000064  aa  032 124 150 145         	acc  "The meeting name is blank."
    000065  aa  040 155 145 145
    000066  aa  164 151 156 147
    000067  aa  040 156 141 155
    000070  aa  145 040 151 163
    000071  aa  040 142 154 141
    000072  aa  156 153 056 000

                                    29  	ec	cant_notify,NoNotify,(An unexpected fault occurred while sending notifications.)
                        000014          	segdef  cant_notify
    000014  a0   077777 000075
    000073  aa  116 157 116 157         	aci  "NoNotify",8
    000074  aa  164 151 146 171
    000075  aa  071 101 156 040         	acc  "An unexpected fault occurred while sending notifications."
    000076  aa  165 156 145 170
    000077  aa  160 145 143 164
    000100  aa  145 144 040 146
    000101  aa  141 165 154 164
    000102  aa  040 157 143 143
    000103  aa  165 162 162 145
    000104  aa  144 040 167 150
    000105  aa  151 154 145 040
    000106  aa  163 145 156 144
    000107  aa  151 156 147 040
    000110  aa  156 157 164 151
    000111  aa  146 151 143 141
    000112  aa  164 151 157 156
    000113  aa  163 056 000 000

                                    30  	ec	cant_stop_msg_admin,^MsgAm,(The site administrator requires that eligibility messages be printed for this meeting.)
                        000015          	segdef  cant_stop_msg_admin
    000015  a0   077777 000116
    000114  aa  136 115 163 147         	aci  "^MsgAm",8
    000115  aa  101 155 040 040
    000116  aa  126 124 150 145         	acc  "The site administrator requires that eligibility messages be printed for this meeting."
    000117  aa  040 163 151 164
    000120  aa  145 040 141 144
    000121  aa  155 151 156 151
    000122  aa  163 164 162 141
    000123  aa  164 157 162 040
    000124  aa  162 145 161 165
    000125  aa  151 162 145 163
    000126  aa  040 164 150 141
    000127  aa  164 040 145 154
    000130  aa  151 147 151 142
    000131  aa  151 154 151 164
    000132  aa  171 040 155 145
    000133  aa  163 163 141 147
    000134  aa  145 163 040 142
    000135  aa  145 040 160 162
    000136  aa  151 156 164 145
    000137  aa  144 040 146 157
    000140  aa  162 040 164 150
    000141  aa  151 163 040 155
    000142  aa  145 145 164 151
    000143  aa  156 147 056 000

                                    31  	ec	cant_stop_msg_site,^MsgSite,(This site requires that eligibility messages be printed.)
                        000016          	segdef  cant_stop_msg_site
    000016  a0   077777 000146
    000144  aa  136 115 163 147         	aci  "^MsgSite",8
    000145  aa  123 151 164 145
    000146  aa  070 124 150 151         	acc  "This site requires that eligibility messages be printed."
    000147  aa  163 040 163 151
    000150  aa  164 145 040 162
    000151  aa  145 161 165 151
    000152  aa  162 145 163 040
    000153  aa  164 150 141 164
    000154  aa  040 145 154 151
    000155  aa  147 151 142 151
    000156  aa  154 151 164 171
    000157  aa  040 155 145 163
    000160  aa  163 141 147 145
    000161  aa  163 040 142 145
    000162  aa  040 160 162 151
    000163  aa  156 164 145 144
    000164  aa  056 000 000 000

                                    32  	ec	chairman_only,CharOnly,(Only the chairman of the meeting may perform this operation.)
                        000017          	segdef  chairman_only
    000017  a0   077777 000167
    000165  aa  103 150 141 162         	aci  "CharOnly",8
    000166  aa  117 156 154 171
    000167  aa  074 117 156 154         	acc  "Only the chairman of the meeting may perform this operation."
    000170  aa  171 040 164 150
    000171  aa  145 040 143 150
    000172  aa  141 151 162 155
    000173  aa  141 156 040 157
    000174  aa  146 040 164 150
    000175  aa  145 040 155 145
    000176  aa  145 164 151 156
    000177  aa  147 040 155 141
    000200  aa  171 040 160 145
    000201  aa  162 146 157 162
    000202  aa  155 040 164 150
    000203  aa  151 163 040 157
    000204  aa  160 145 162 141
    000205  aa  164 151 157 156
    000206  aa  056 000 000 000

                                    33  	ec	forum_deleted,BadUID,(The meeting has been deleted or terminated in the inner ring.)
                        000020          	segdef  forum_deleted
    000020  a0   077777 000211
    000207  aa  102 141 144 125         	aci  "BadUID",8
    000210  aa  111 104 040 040
    000211  aa  075 124 150 145         	acc  "The meeting has been deleted or terminated in the inner ring."
    000212  aa  040 155 145 145
    000213  aa  164 151 156 147
    000214  aa  040 150 141 163
    000215  aa  040 142 145 145
    000216  aa  156 040 144 145
    000217  aa  154 145 164 145
    000220  aa  144 040 157 162
    000221  aa  040 164 145 162
    000222  aa  155 151 156 141
    000223  aa  164 145 144 040
    000224  aa  151 156 040 164
    000225  aa  150 145 040 151
    000226  aa  156 156 145 162
    000227  aa  040 162 151 156
    000230  aa  147 056 000 000

                                    34  	ec	incorrect_uid,BadUID,(The specified uid does not correspond to the specified meeting index.)
                        000021          	segdef  incorrect_uid
    000021  a0   077777 000233
    000231  aa  102 141 144 125         	aci  "BadUID",8
    000232  aa  111 104 040 040
    000233  aa  105 124 150 145         	acc  "The specified uid does not correspond to the specified meeting index."
    000234  aa  040 163 160 145
    000235  aa  143 151 146 151
    000236  aa  145 144 040 165
    000237  aa  151 144 040 144
    000240  aa  157 145 163 040
    000241  aa  156 157 164 040
    000242  aa  143 157 162 162
    000243  aa  145 163 160 157
    000244  aa  156 144 040 164
    000245  aa  157 040 164 150
    000246  aa  145 040 163 160
    000247  aa  145 143 151 146
    000250  aa  151 145 144 040
    000251  aa  155 145 145 164
    000252  aa  151 156 147 040
    000253  aa  151 156 144 145
    000254  aa  170 056 000 000

                                    35  	ec	invalid_att_idx,BadAtIdx,(The supplied attendee index is invalid.)
                        000022          	segdef  invalid_att_idx
    000022  a0   077777 000257
    000255  aa  102 141 144 101         	aci  "BadAtIdx",8
    000256  aa  164 111 144 170
    000257  aa  047 124 150 145         	acc  "The supplied attendee index is invalid."
    000260  aa  040 163 165 160
    000261  aa  160 154 151 145
    000262  aa  144 040 141 164
    000263  aa  164 145 156 144
    000264  aa  145 145 040 151
    000265  aa  156 144 145 170
    000266  aa  040 151 163 040
    000267  aa  151 156 166 141
    000270  aa  154 151 144 056

                                    36  	ec	invalid_forum_idx,BadFrIdx,(The specified index does not correspond to an open meeting.)
                        000023          	segdef  invalid_forum_idx
    000023  a0   077777 000273
    000271  aa  102 141 144 106         	aci  "BadFrIdx",8
    000272  aa  162 111 144 170
    000273  aa  073 124 150 145         	acc  "The specified index does not correspond to an open meeting."
    000274  aa  040 163 160 145
    000275  aa  143 151 146 151
    000276  aa  145 144 040 151
    000277  aa  156 144 145 170
    000300  aa  040 144 157 145
    000301  aa  163 040 156 157
    000302  aa  164 040 143 157
    000303  aa  162 162 145 163
    000304  aa  160 157 156 144
    000305  aa  040 164 157 040
    000306  aa  141 156 040 157
    000307  aa  160 145 156 040
    000310  aa  155 145 145 164
    000311  aa  151 156 147 056

                                    37  	ec	invalid_seg_idx,InvSgIdx,(Attempt to initiate a non-existent proceedings segment.)
                        000024          	segdef  invalid_seg_idx
    000024  a0   077777 000314
    000312  aa  111 156 166 123         	aci  "InvSgIdx",8
    000313  aa  147 111 144 170
    000314  aa  067 101 164 164         	acc  "Attempt to initiate a non-existent proceedings segment."
    000315  aa  145 155 160 164
    000316  aa  040 164 157 040
    000317  aa  151 156 151 164
    000320  aa  151 141 164 145
    000321  aa  040 141 040 156
    000322  aa  157 156 055 145
    000323  aa  170 151 163 164
    000324  aa  145 156 164 040
    000325  aa  160 162 157 143
    000326  aa  145 145 144 151
    000327  aa  156 147 163 040
    000330  aa  163 145 147 155
    000331  aa  145 156 164 056

                                    38  	ec	invalid_switch_name,BadSwtch,(The supplied switch name is not valid.)
                        000025          	segdef  invalid_switch_name
    000025  a0   077777 000334
    000332  aa  102 141 144 123         	aci  "BadSwtch",8
    000333  aa  167 164 143 150
    000334  aa  046 124 150 145         	acc  "The supplied switch name is not valid."
    000335  aa  040 163 165 160
    000336  aa  160 154 151 145
    000337  aa  144 040 163 167
    000340  aa  151 164 143 150
    000341  aa  040 156 141 155
    000342  aa  145 040 151 163
    000343  aa  040 156 157 164
    000344  aa  040 166 141 154
    000345  aa  151 144 056 000

                                    39  	ec	invalid_trans_idx,BadTrIdx,(The specified transaction index does not exist.)
                        000026          	segdef  invalid_trans_idx
    000026  a0   077777 000350
    000346  aa  102 141 144 124         	aci  "BadTrIdx",8
    000347  aa  162 111 144 170
    000350  aa  057 124 150 145         	acc  "The specified transaction index does not exist."
    000351  aa  040 163 160 145
    000352  aa  143 151 146 151
    000353  aa  145 144 040 164
    000354  aa  162 141 156 163
    000355  aa  141 143 164 151
    000356  aa  157 156 040 151
    000357  aa  156 144 145 170
    000360  aa  040 144 157 145
    000361  aa  163 040 156 157
    000362  aa  164 040 145 170
    000363  aa  151 163 164 056

                                    40  	ec	long_forum_name,(LongName),(The meeting name is too long.)
                        000027          	segdef  long_forum_name
    000027  a0   077777 000366
    000364  aa  114 157 156 147         	aci  "LongName",8
    000365  aa  116 141 155 145
    000366  aa  035 124 150 145         	acc  "The meeting name is too long."
    000367  aa  040 155 145 145
    000370  aa  164 151 156 147
    000371  aa  040 156 141 155
    000372  aa  145 040 151 163
    000373  aa  040 164 157 157
    000374  aa  040 154 157 156
    000375  aa  147 056 000 000

                                    41  	ec	key_not_allowed,BadKey,(This keyword may not appear in ranges or expressions.)
                        000030          	segdef  key_not_allowed
    000030  a0   077777 000400
    000376  aa  102 141 144 113         	aci  "BadKey",8
    000377  aa  145 171 040 040
    000400  aa  065 124 150 151         	acc  "This keyword may not appear in ranges or expressions."
    000401  aa  163 040 153 145
    000402  aa  171 167 157 162
    000403  aa  144 040 155 141
    000404  aa  171 040 156 157
    000405  aa  164 040 141 160
    000406  aa  160 145 141 162
    000407  aa  040 151 156 040
    000410  aa  162 141 156 147
    000411  aa  145 163 040 157
    000412  aa  162 040 145 170
    000413  aa  160 162 145 163
    000414  aa  163 151 157 156
    000415  aa  163 056 000 000

                                    42  	ec	meeting_adjourned,MtgAdjnd,(The chairman has temporarily adjourned the meeting.)
                        000031          	segdef  meeting_adjourned
    000031  a0   077777 000420
    000416  aa  115 164 147 101         	aci  "MtgAdjnd",8
    000417  aa  144 152 156 144
    000420  aa  063 124 150 145         	acc  "The chairman has temporarily adjourned the meeting."
    000421  aa  040 143 150 141
    000422  aa  151 162 155 141
    000423  aa  156 040 150 141
    000424  aa  163 040 164 145
    000425  aa  155 160 157 162
    000426  aa  141 162 151 154
    000427  aa  171 040 141 144
    000430  aa  152 157 165 162
    000431  aa  156 145 144 040
    000432  aa  164 150 145 040
    000433  aa  155 145 145 164
    000434  aa  151 156 147 056

                                    43  	ec	meeting_bloat,MBloat,(There is no room left in the meeting for new transactions.)
                        000032          	segdef  meeting_bloat
    000032  a0   077777 000437
    000435  aa  115 102 154 157         	aci  "MBloat",8
    000436  aa  141 164 040 040
    000437  aa  072 124 150 145         	acc  "There is no room left in the meeting for new transactions."
    000440  aa  162 145 040 151
    000441  aa  163 040 156 157
    000442  aa  040 162 157 157
    000443  aa  155 040 154 145
    000444  aa  146 164 040 151
    000445  aa  156 040 164 150
    000446  aa  145 040 155 145
    000447  aa  145 164 151 156
    000450  aa  147 040 146 157
    000451  aa  162 040 156 145
    000452  aa  167 040 164 162
    000453  aa  141 156 163 141
    000454  aa  143 164 151 157
    000455  aa  156 163 056 000

                                    44  	ec	message_too_long,MLong,(The chairman message may only be 256 characters long.)
                        000033          	segdef  message_too_long
    000033  a0   077777 000460
    000456  aa  115 114 157 156         	aci  "MLong",8
    000457  aa  147 040 040 040
    000460  aa  065 124 150 145         	acc  "The chairman message may only be 256 characters long."
    000461  aa  040 143 150 141
    000462  aa  151 162 155 141
    000463  aa  156 040 155 145
    000464  aa  163 163 141 147
    000465  aa  145 040 155 141
    000466  aa  171 040 157 156
    000467  aa  154 171 040 142
    000470  aa  145 040 062 065
    000471  aa  066 040 143 150
    000472  aa  141 162 141 143
    000473  aa  164 145 162 163
    000474  aa  040 154 157 156
    000475  aa  147 056 000 000

                                    45  	ec	missing_spec,NoSpec,(A transaction specification must be given.)
                        000034          	segdef  missing_spec
    000034  a0   077777 000500
    000476  aa  116 157 123 160         	aci  "NoSpec",8
    000477  aa  145 143 040 040
    000500  aa  052 101 040 164         	acc  "A transaction specification must be given."
    000501  aa  162 141 156 163
    000502  aa  141 143 164 151
    000503  aa  157 156 040 163
    000504  aa  160 145 143 151
    000505  aa  146 151 143 141
    000506  aa  164 151 157 156
    000507  aa  040 155 165 163
    000510  aa  164 040 142 145
    000511  aa  040 147 151 166
    000512  aa  145 156 056 000

                                    46  	ec	need_system_high,^SysHigh,(Maximum authorization of system_high is needed to created the notifications segment.)
                        000035          	segdef  need_system_high
    000035  a0   077777 000515
    000513  aa  136 123 171 163         	aci  "^SysHigh",8
    000514  aa  110 151 147 150
    000515  aa  124 115 141 170         	acc  "Maximum authorization of system_high is needed to created the notifications segment."
    000516  aa  151 155 165 155
    000517  aa  040 141 165 164
    000520  aa  150 157 162 151
    000521  aa  172 141 164 151
    000522  aa  157 156 040 157
    000523  aa  146 040 163 171
    000524  aa  163 164 145 155
    000525  aa  137 150 151 147
    000526  aa  150 040 151 163
    000527  aa  040 156 145 145
    000530  aa  144 145 144 040
    000531  aa  164 157 040 143
    000532  aa  162 145 141 164
    000533  aa  145 144 040 164
    000534  aa  150 145 040 156
    000535  aa  157 164 151 146
    000536  aa  151 143 141 164
    000537  aa  151 157 156 163
    000540  aa  040 163 145 147
    000541  aa  155 145 156 164
    000542  aa  056 000 000 000

                                    47  	ec	need_star_acl,NdStar,(The ACL term for *.*.* may not be deleted.)
                        000036          	segdef  need_star_acl
    000036  a0   077777 000545
    000543  aa  116 144 123 164         	aci  "NdStar",8
    000544  aa  141 162 040 040
    000545  aa  052 124 150 145         	acc  "The ACL term for *.*.* may not be deleted."
    000546  aa  040 101 103 114
    000547  aa  040 164 145 162
    000550  aa  155 040 146 157
    000551  aa  162 040 052 056
    000552  aa  052 056 052 040
    000553  aa  155 141 171 040
    000554  aa  156 157 164 040
    000555  aa  142 145 040 144
    000556  aa  145 154 145 164
    000557  aa  145 144 056 000

                                    48  	ec	no_control_suffix,BadSufix,(The '.control' suffix must be present on the meeting name.)
                        000037          	segdef  no_control_suffix
    000037  a0   077777 000562
    000560  aa  102 141 144 123         	aci  "BadSufix",8
    000561  aa  165 146 151 170
    000562  aa  072 124 150 145         	acc  "The '.control' suffix must be present on the meeting name."
    000563  aa  040 047 056 143
    000564  aa  157 156 164 162
    000565  aa  157 154 047 040
    000566  aa  163 165 146 146
    000567  aa  151 170 040 155
    000570  aa  165 163 164 040
    000571  aa  142 145 040 160
    000572  aa  162 145 163 145
    000573  aa  156 164 040 157
    000574  aa  156 040 164 150
    000575  aa  145 040 155 145
    000576  aa  145 164 151 156
    000577  aa  147 040 156 141
    000600  aa  155 145 056 000

                                    49  	ec	no_current,NoCurnt,(There is no current transaction.)
                        000040          	segdef  no_current
    000040  a0   077777 000603
    000601  aa  116 157 103 165         	aci  "NoCurnt",8
    000602  aa  162 156 164 040
    000603  aa  040 124 150 145         	acc  "There is no current transaction."
    000604  aa  162 145 040 151
    000605  aa  163 040 156 157
    000606  aa  040 143 165 162
    000607  aa  162 145 156 164
    000610  aa  040 164 162 141
    000611  aa  156 163 141 143
    000612  aa  164 151 157 156
    000613  aa  056 000 000 000

                                    50  	ec	no_forum,NoForum,(There is no current meeting.)
                        000041          	segdef  no_forum
    000041  a0   077777 000616
    000614  aa  116 157 106 157         	aci  "NoForum",8
    000615  aa  162 165 155 040
    000616  aa  034 124 150 145         	acc  "There is no current meeting."
    000617  aa  162 145 040 151
    000620  aa  163 040 156 157
    000621  aa  040 143 165 162
    000622  aa  162 145 156 164
    000623  aa  040 155 145 145
    000624  aa  164 151 156 147
    000625  aa  056 000 000 000

                                    51  	ec	no_message,NoMess,(There is no chairman message.)
                        000042          	segdef  no_message
    000042  a0   077777 000630
    000626  aa  116 157 115 145         	aci  "NoMess",8
    000627  aa  163 163 040 040
    000630  aa  035 124 150 145         	acc  "There is no chairman message."
    000631  aa  162 145 040 151
    000632  aa  163 040 156 157
    000633  aa  040 143 150 141
    000634  aa  151 162 155 141
    000635  aa  156 040 155 145
    000636  aa  163 163 141 147
    000637  aa  145 056 000 000

                                    52  	ec	no_notify_seg,NoNotSeg,(The notifications database cannot be located.)
                        000043          	segdef  no_notify_seg
    000043  a0   077777 000642
    000640  aa  116 157 116 157         	aci  "NoNotSeg",8
    000641  aa  164 123 145 147
    000642  aa  055 124 150 145         	acc  "The notifications database cannot be located."
    000643  aa  040 156 157 164
    000644  aa  151 146 151 143
    000645  aa  141 164 151 157
    000646  aa  156 163 040 144
    000647  aa  141 164 141 142
    000650  aa  141 163 145 040
    000651  aa  143 141 156 156
    000652  aa  157 164 040 142
    000653  aa  145 040 154 157
    000654  aa  143 141 164 145
    000655  aa  144 056 000 000

                                    53  	ec	no_such_forum,NoSchFor,(The specified meeting does not exist.)
                        000044          	segdef  no_such_forum
    000044  a0   077777 000660
    000656  aa  116 157 123 143         	aci  "NoSchFor",8
    000657  aa  150 106 157 162
    000660  aa  045 124 150 145         	acc  "The specified meeting does not exist."
    000661  aa  040 163 160 145
    000662  aa  143 151 146 151
    000663  aa  145 144 040 155
    000664  aa  145 145 164 151
    000665  aa  156 147 040 144
    000666  aa  157 145 163 040
    000667  aa  156 157 164 040
    000670  aa  145 170 151 163
    000671  aa  164 056 000 000

                                    54  	ec	no_such_user,NoSchUsr,(The user is not a participant in the meeting.)
                        000045          	segdef  no_such_user
    000045  a0   077777 000674
    000672  aa  116 157 123 143         	aci  "NoSchUsr",8
    000673  aa  150 125 163 162
    000674  aa  055 124 150 145         	acc  "The user is not a participant in the meeting."
    000675  aa  040 165 163 145
    000676  aa  162 040 151 163
    000677  aa  040 156 157 164
    000700  aa  040 141 040 160
    000701  aa  141 162 164 151
    000702  aa  143 151 160 141
    000703  aa  156 164 040 151
    000704  aa  156 040 164 150
    000705  aa  145 040 155 145
    000706  aa  145 164 151 156
    000707  aa  147 056 000 000

                                    55  	ec	no_suffix,BadSufix,(The '.forum' suffix must be present on the meeting name.)
                        000046          	segdef  no_suffix
    000046  a0   077777 000712
    000710  aa  102 141 144 123         	aci  "BadSufix",8
    000711  aa  165 146 151 170
    000712  aa  070 124 150 145         	acc  "The '.forum' suffix must be present on the meeting name."
    000713  aa  040 047 056 146
    000714  aa  157 162 165 155
    000715  aa  047 040 163 165
    000716  aa  146 146 151 170
    000717  aa  040 155 165 163
    000720  aa  164 040 142 145
    000721  aa  040 160 162 145
    000722  aa  163 145 156 164
    000723  aa  040 157 156 040
    000724  aa  164 150 145 040
    000725  aa  155 145 145 164
    000726  aa  151 156 147 040
    000727  aa  156 141 155 145
    000730  aa  056 000 000 000

                                    56  	ec	no_transactions,NoTrans,(No transactions were selected.)
                        000047          	segdef  no_transactions
    000047  a0   077777 000733
    000731  aa  116 157 124 162         	aci  "NoTrans",8
    000732  aa  141 156 163 040
    000733  aa  036 116 157 040         	acc  "No transactions were selected."
    000734  aa  164 162 141 156
    000735  aa  163 141 143 164
    000736  aa  151 157 156 163
    000737  aa  040 167 145 162
    000740  aa  145 040 163 145
    000741  aa  154 145 143 164
    000742  aa  145 144 056 000

                                    57  	ec	no_trans_for_user,^TrnUser,(There are no transactions for this user.)
                        000050          	segdef  no_trans_for_user
    000050  a0   077777 000745
    000743  aa  136 124 162 156         	aci  "^TrnUser",8
    000744  aa  125 163 145 162
    000745  aa  050 124 150 145         	acc  "There are no transactions for this user."
    000746  aa  162 145 040 141
    000747  aa  162 145 040 156
    000750  aa  157 040 164 162
    000751  aa  141 156 163 141
    000752  aa  143 164 151 157
    000753  aa  156 163 040 146
    000754  aa  157 162 040 164
    000755  aa  150 151 163 040
    000756  aa  165 163 145 162
    000757  aa  056 000 000 000

                                    58  	ec	no_unprocessed,^UnProc,(There is no unprocessed transaction.)
                        000051          	segdef  no_unprocessed
    000051  a0   077777 000762
    000760  aa  136 125 156 120         	aci  "^UnProc",8
    000761  aa  162 157 143 040
    000762  aa  044 124 150 145         	acc  "There is no unprocessed transaction."
    000763  aa  162 145 040 151
    000764  aa  163 040 156 157
    000765  aa  040 165 156 160
    000766  aa  162 157 143 145
    000767  aa  163 163 145 144
    000770  aa  040 164 162 141
    000771  aa  156 163 141 143
    000772  aa  164 151 157 156
    000773  aa  056 000 000 000

                                    59  	ec	not_a_forum,BadFmFmt,(The segments are not in the correct format for a meeting.)
                        000052          	segdef  not_a_forum
    000052  a0   077777 000776
    000774  aa  102 141 144 106         	aci  "BadFmFmt",8
    000775  aa  155 106 155 164
    000776  aa  071 124 150 145         	acc  "The segments are not in the correct format for a meeting."
    000777  aa  040 163 145 147
    001000  aa  155 145 156 164
    001001  aa  163 040 141 162
    001002  aa  145 040 156 157
    001003  aa  164 040 151 156
    001004  aa  040 164 150 145
    001005  aa  040 143 157 162
    001006  aa  162 145 143 164
    001007  aa  040 146 157 162
    001010  aa  155 141 164 040
    001011  aa  146 157 162 040
    001012  aa  141 040 155 145
    001013  aa  145 164 151 156
    001014  aa  147 056 000 000

                                    60  	ec	not_eligible,NoAccess,(Insufficient access to participate in the meeting.)
                        000053          	segdef  not_eligible
    000053  a0   077777 001017
    001015  aa  116 157 101 143         	aci  "NoAccess",8
    001016  aa  143 145 163 163
    001017  aa  062 111 156 163         	acc  "Insufficient access to participate in the meeting."
    001020  aa  165 146 146 151
    001021  aa  143 151 145 156
    001022  aa  164 040 141 143
    001023  aa  143 145 163 163
    001024  aa  040 164 157 040
    001025  aa  160 141 162 164
    001026  aa  151 143 151 160
    001027  aa  141 164 145 040
    001030  aa  151 156 040 164
    001031  aa  150 145 040 155
    001032  aa  145 145 164 151
    001033  aa  156 147 056 000

                                    61  	ec	not_user_switch,NotUsSw,(An attendee name may not be specified with this switch.)
                        000054          	segdef  not_user_switch
    000054  a0   077777 001036
    001034  aa  116 157 164 125         	aci  "NotUsSw",8
    001035  aa  163 123 167 040
    001036  aa  067 101 156 040         	acc  "An attendee name may not be specified with this switch."
    001037  aa  141 164 164 145
    001040  aa  156 144 145 145
    001041  aa  040 156 141 155
    001042  aa  145 040 155 141
    001043  aa  171 040 156 157
    001044  aa  164 040 142 145
    001045  aa  040 163 160 145
    001046  aa  143 151 146 151
    001047  aa  145 144 040 167
    001050  aa  151 164 150 040
    001051  aa  164 150 151 163
    001052  aa  040 163 167 151
    001053  aa  164 143 150 056

                                    62  	ec	not_in_search_list,NotFound,(The meeting could not be found in the 'forum' search list.)
                        000055          	segdef  not_in_search_list
    000055  a0   077777 001056
    001054  aa  116 157 164 106         	aci  "NotFound",8
    001055  aa  157 165 156 144
    001056  aa  072 124 150 145         	acc  "The meeting could not be found in the 'forum' search list."
    001057  aa  040 155 145 145
    001060  aa  164 151 156 147
    001061  aa  040 143 157 165
    001062  aa  154 144 040 156
    001063  aa  157 164 040 142
    001064  aa  145 040 146 157
    001065  aa  165 156 144 040
    001066  aa  151 156 040 164
    001067  aa  150 145 040 047
    001070  aa  146 157 162 165
    001071  aa  155 047 040 163
    001072  aa  145 141 162 143
    001073  aa  150 040 154 151
    001074  aa  163 164 056 000

                                    63  	ec	notify_seg_bad,NotBad,(The Notifications Database is damaged.)
                        000056          	segdef  notify_seg_bad
    000056  a0   077777 001077
    001075  aa  116 157 164 102         	aci  "NotBad",8
    001076  aa  141 144 040 040
    001077  aa  046 124 150 145         	acc  "The Notifications Database is damaged."
    001100  aa  040 116 157 164
    001101  aa  151 146 151 143
    001102  aa  141 164 151 157
    001103  aa  156 163 040 104
    001104  aa  141 164 141 142
    001105  aa  141 163 145 040
    001106  aa  151 163 040 144
    001107  aa  141 155 141 147
    001110  aa  145 144 056 000

                                    64  	ec	null_range_spec,NullRng,(There are no transactions in the specified range.)
                        000057          	segdef  null_range_spec
    000057  a0   077777 001113
    001111  aa  116 165 154 154         	aci  "NullRng",8
    001112  aa  122 156 147 040
    001113  aa  061 124 150 145         	acc  "There are no transactions in the specified range."
    001114  aa  162 145 040 141
    001115  aa  162 145 040 156
    001116  aa  157 040 164 162
    001117  aa  141 156 163 141
    001120  aa  143 164 151 157
    001121  aa  156 163 040 151
    001122  aa  156 040 164 150
    001123  aa  145 040 163 160
    001124  aa  145 143 151 146
    001125  aa  151 145 144 040
    001126  aa  162 141 156 147
    001127  aa  145 056 000 000

                                    65  	ec	old_format,OldFmt,(The specified meeting is a version 1 meeting. Use old forum or convert_forum.)
                        000060          	segdef  old_format
    000060  a0   077777 001132
    001130  aa  117 154 144 106         	aci  "OldFmt",8
    001131  aa  155 164 040 040
    001132  aa  115 124 150 145         	acc  "The specified meeting is a version 1 meeting. Use old forum or convert_forum."
    001133  aa  040 163 160 145
    001134  aa  143 151 146 151
    001135  aa  145 144 040 155
    001136  aa  145 145 164 151
    001137  aa  156 147 040 151
    001140  aa  163 040 141 040
    001141  aa  166 145 162 163
    001142  aa  151 157 156 040
    001143  aa  061 040 155 145
    001144  aa  145 164 151 156
    001145  aa  147 056 040 125
    001146  aa  163 145 040 157
    001147  aa  154 144 040 146
    001150  aa  157 162 165 155
    001151  aa  040 157 162 040
    001152  aa  143 157 156 166
    001153  aa  145 162 164 137
    001154  aa  146 157 162 165
    001155  aa  155 056 000 000

                                    66  	ec	read_only,ROnly,(The user may not enter transactions in this meeting.)
                        000061          	segdef  read_only
    000061  a0   077777 001160
    001156  aa  122 117 156 154         	aci  "ROnly",8
    001157  aa  171 040 040 040
    001160  aa  064 124 150 145         	acc  "The user may not enter transactions in this meeting."
    001161  aa  040 165 163 145
    001162  aa  162 040 155 141
    001163  aa  171 040 156 157
    001164  aa  164 040 145 156
    001165  aa  164 145 162 040
    001166  aa  164 162 141 156
    001167  aa  163 141 143 164
    001170  aa  151 157 156 163
    001171  aa  040 151 156 040
    001172  aa  164 150 151 163
    001173  aa  040 155 145 145
    001174  aa  164 151 156 147
    001175  aa  056 000 000 000

                                    67  	ec	roster_full,UserFull,(There is no room for new attendees in this meeting.)
                        000062          	segdef  roster_full
    000062  a0   077777 001200
    001176  aa  125 163 145 162         	aci  "UserFull",8
    001177  aa  106 165 154 154
    001200  aa  063 124 150 145         	acc  "There is no room for new attendees in this meeting."
    001201  aa  162 145 040 151
    001202  aa  163 040 156 157
    001203  aa  040 162 157 157
    001204  aa  155 040 146 157
    001205  aa  162 040 156 145
    001206  aa  167 040 141 164
    001207  aa  164 145 156 144
    001210  aa  145 145 163 040
    001211  aa  151 156 040 164
    001212  aa  150 151 163 040
    001213  aa  155 145 145 164
    001214  aa  151 156 147 056

                                    68  	ec	rqo,rqo,(There is not enough quota to enter the transaction.)
                        000063          	segdef  rqo
    000063  a0   077777 001217
    001215  aa  162 161 157 040         	aci  "rqo",8
    001216  aa  040 040 040 040
    001217  aa  063 124 150 145         	acc  "There is not enough quota to enter the transaction."
    001220  aa  162 145 040 151
    001221  aa  163 040 156 157
    001222  aa  164 040 145 156
    001223  aa  157 165 147 150
    001224  aa  040 161 165 157
    001225  aa  164 141 040 164
    001226  aa  157 040 145 156
    001227  aa  164 145 162 040
    001230  aa  164 150 145 040
    001231  aa  164 162 141 156
    001232  aa  163 141 143 164
    001233  aa  151 157 156 056

                                    69  	ec	rqo_load,rqoload,(There is not enough quota to copy or expunge the meeting.)
                        000064          	segdef  rqo_load
    000064  a0   077777 001236
    001234  aa  162 161 157 154         	aci  "rqoload",8
    001235  aa  157 141 144 040
    001236  aa  071 124 150 145         	acc  "There is not enough quota to copy or expunge the meeting."
    001237  aa  162 145 040 151
    001240  aa  163 040 156 157
    001241  aa  164 040 145 156
    001242  aa  157 165 147 150
    001243  aa  040 161 165 157
    001244  aa  164 141 040 164
    001245  aa  157 040 143 157
    001246  aa  160 171 040 157
    001247  aa  162 040 145 170
    001250  aa  160 165 156 147
    001251  aa  145 040 164 150
    001252  aa  145 040 155 145
    001253  aa  145 164 151 156
    001254  aa  147 056 000 000

                                    70  	ec	switch_not_changed,Sw^Chg,(The specified switch was not changed.)
                        000065          	segdef  switch_not_changed
    000065  a0   077777 001257
    001255  aa  123 167 136 103         	aci  "Sw^Chg",8
    001256  aa  150 147 040 040
    001257  aa  045 124 150 145         	acc  "The specified switch was not changed."
    001260  aa  040 163 160 145
    001261  aa  143 151 146 151
    001262  aa  145 144 040 163
    001263  aa  167 151 164 143
    001264  aa  150 040 167 141
    001265  aa  163 040 156 157
    001266  aa  164 040 143 150
    001267  aa  141 156 147 145
    001270  aa  144 056 000 000

                                    71  	ec	too_many_personids,MultPers,(Only one person_id may be given.)
                        000066          	segdef  too_many_personids
    000066  a0   077777 001273
    001271  aa  115 165 154 164         	aci  "MultPers",8
    001272  aa  120 145 162 163
    001273  aa  040 117 156 154         	acc  "Only one person_id may be given."
    001274  aa  171 040 157 156
    001275  aa  145 040 160 145
    001276  aa  162 163 157 156
    001277  aa  137 151 144 040
    001300  aa  155 141 171 040
    001301  aa  142 145 040 147
    001302  aa  151 166 145 156
    001303  aa  056 000 000 000

                                    72  	ec	too_many_regexps,MultReg,(Only one regular expression may be specified.)
                        000067          	segdef  too_many_regexps
    000067  a0   077777 001306
    001304  aa  115 165 154 164         	aci  "MultReg",8
    001305  aa  122 145 147 040
    001306  aa  055 117 156 154         	acc  "Only one regular expression may be specified."
    001307  aa  171 040 157 156
    001310  aa  145 040 162 145
    001311  aa  147 165 154 141
    001312  aa  162 040 145 170
    001313  aa  160 162 145 163
    001314  aa  163 151 157 156
    001315  aa  040 155 141 171
    001316  aa  040 142 145 040
    001317  aa  163 160 145 143
    001320  aa  151 146 151 145
    001321  aa  144 056 000 000

                                    73  	ec	too_many_trans,MultTrns,(Only one transaction may be specified.)
                        000070          	segdef  too_many_trans
    000070  a0   077777 001324
    001322  aa  115 165 154 164         	aci  "MultTrns",8
    001323  aa  124 162 156 163
    001324  aa  046 117 156 154         	acc  "Only one transaction may be specified."
    001325  aa  171 040 157 156
    001326  aa  145 040 164 162
    001327  aa  141 156 163 141
    001330  aa  143 164 151 157
    001331  aa  156 040 155 141
    001332  aa  171 040 142 145
    001333  aa  040 163 160 145
    001334  aa  143 151 146 151
    001335  aa  145 144 056 000

                                    74  	ec	trans_deleted,TransDel,(The specified transaction has been deleted.)
                        000071          	segdef  trans_deleted
    000071  a0   077777 001340
    001336  aa  124 162 141 156         	aci  "TransDel",8
    001337  aa  163 104 145 154
    001340  aa  053 124 150 145         	acc  "The specified transaction has been deleted."
    001341  aa  040 163 160 145
    001342  aa  143 151 146 151
    001343  aa  145 144 040 164
    001344  aa  162 141 156 163
    001345  aa  141 143 164 151
    001346  aa  157 156 040 150
    001347  aa  141 163 040 142
    001350  aa  145 145 156 040
    001351  aa  144 145 154 145
    001352  aa  164 145 144 056

                                    75  	ec	trans_not_deleted,Trns^del,(The specified transaction has not been deleted.)
                        000072          	segdef  trans_not_deleted
    000072  a0   077777 001355
    001353  aa  124 162 156 163         	aci  "Trns^del",8
    001354  aa  136 144 145 154
    001355  aa  057 124 150 145         	acc  "The specified transaction has not been deleted."
    001356  aa  040 163 160 145
    001357  aa  143 151 146 151
    001360  aa  145 144 040 164
    001361  aa  162 141 156 163
    001362  aa  141 143 164 151
    001363  aa  157 156 040 150
    001364  aa  141 163 040 156
    001365  aa  157 164 040 142
    001366  aa  145 145 156 040
    001367  aa  144 145 154 145
    001370  aa  164 145 144 056

                                    76  	ec	trans_reaped,TranReap,(The specified transaction has been expunged.)
                        000073          	segdef  trans_reaped
    000073  a0   077777 001373
    001371  aa  124 162 141 156         	aci  "TranReap",8
    001372  aa  122 145 141 160
    001373  aa  054 124 150 145         	acc  "The specified transaction has been expunged."
    001374  aa  040 163 160 145
    001375  aa  143 151 146 151
    001376  aa  145 144 040 164
    001377  aa  162 141 156 163
    001400  aa  141 143 164 151
    001401  aa  157 156 040 150
    001402  aa  141 163 040 142
    001403  aa  145 145 156 040
    001404  aa  145 170 160 165
    001405  aa  156 147 145 144
    001406  aa  056 000 000 000

                                    77  	ec	unexpected_fault,AnyOther,(An unexpected fault occurred in inner ring code.)
                        000074          	segdef  unexpected_fault
    000074  a0   077777 001411
    001407  aa  101 156 171 117         	aci  "AnyOther",8
    001410  aa  164 150 145 162
    001411  aa  060 101 156 040         	acc  "An unexpected fault occurred in inner ring code."
    001412  aa  165 156 145 170
    001413  aa  160 145 143 164
    001414  aa  145 144 040 146
    001415  aa  141 165 154 164
    001416  aa  040 157 143 143
    001417  aa  165 162 162 145
    001420  aa  144 040 151 156
    001421  aa  040 151 156 156
    001422  aa  145 162 040 162
    001423  aa  151 156 147 040
    001424  aa  143 157 144 145
    001425  aa  056 000 000 000

                                    78  	ec	unproc_not_allowed,BadUnpr,(The unprocessed transaction may not be used with this request.)
                        000075          	segdef  unproc_not_allowed
    000075  a0   077777 001430
    001426  aa  102 141 144 125         	aci  "BadUnpr",8
    001427  aa  156 160 162 040
    001430  aa  076 124 150 145         	acc  "The unprocessed transaction may not be used with this request."
    001431  aa  040 165 156 160
    001432  aa  162 157 143 145
    001433  aa  163 163 145 144
    001434  aa  040 164 162 141
    001435  aa  156 163 141 143
    001436  aa  164 151 157 156
    001437  aa  040 155 141 171
    001440  aa  040 156 157 164
    001441  aa  040 142 145 040
    001442  aa  165 163 145 144
    001443  aa  040 167 151 164
    001444  aa  150 040 164 150
    001445  aa  151 163 040 162
    001446  aa  145 161 165 145
    001447  aa  163 164 056 000

                                    79  	ec	you_twit,DumbChmn,(The chairman may not delete his own access.)
                        000076          	segdef  you_twit
    000076  a0   077777 001452
    001450  aa  104 165 155 142         	aci  "DumbChmn",8
    001451  aa  103 150 155 156
    001452  aa  053 124 150 145         	acc  "The chairman may not delete his own access."
    001453  aa  040 143 150 141
    001454  aa  151 162 155 141
    001455  aa  156 040 155 141
    001456  aa  171 040 156 157
    001457  aa  164 040 144 145
    001460  aa  154 145 164 145
    001461  aa  040 150 151 163
    001462  aa  040 157 167 156
    001463  aa  040 141 143 143
    001464  aa  145 163 163 056

                                    80
                                    81  	end

NO LITERALS

NAME DEFINITIONS FOR ENTRY POINTS AND SEGDEFS

    001466  5a   000003 000000
    001467  5a   000627 600000
    001470  aa   000000 000000
    001471  55   000013 000002
    001472  5a   000002 400003
    001473  55   000006 000013
    001474  aa  022 146 157 162
    001475  aa  165 155 137 145
    001476  aa  162 162 157 162
    001477  aa  137 164 141 142
    001500  aa  154 145 137 000
    001501  55   000021 000003
    001502  2a   000076 400001
    001503  55   000016 000003
    001504  aa  010 171 157 165         you_twit
    001505  aa  137 164 167 151
    001506  aa  164 000 000 000
    001507  55   000031 000013
    001510  2a   000075 400001
    001511  55   000024 000003
    001512  aa  022 165 156 160         unproc_not_allowed
    001513  aa  162 157 143 137
    001514  aa  156 157 164 137
    001515  aa  141 154 154 157
    001516  aa  167 145 144 000
    001517  55   000041 000021
    001520  2a   000074 400001
    001521  55   000034 000003
    001522  aa  020 165 156 145         unexpected_fault
    001523  aa  170 160 145 143
    001524  aa  164 145 144 137
    001525  aa  146 141 165 154
    001526  aa  164 000 000 000
    001527  55   000050 000031
    001530  2a   000073 400001
    001531  55   000044 000003
    001532  aa  014 164 162 141         trans_reaped
    001533  aa  156 163 137 162
    001534  aa  145 141 160 145
    001535  aa  144 000 000 000
    001536  55   000060 000041
    001537  2a   000072 400001
    001540  55   000053 000003
    001541  aa  021 164 162 141         trans_not_deleted
    001542  aa  156 163 137 156
    001543  aa  157 164 137 144
    001544  aa  145 154 145 164
    001545  aa  145 144 000 000
    001546  55   000067 000050
    001547  2a   000071 400001
    001550  55   000063 000003
    001551  aa  015 164 162 141         trans_deleted
    001552  aa  156 163 137 144
    001553  aa  145 154 145 164
    001554  aa  145 144 000 000
    001555  55   000076 000060
    001556  2a   000070 400001
    001557  55   000072 000003
    001560  aa  016 164 157 157         too_many_trans
    001561  aa  137 155 141 156
    001562  aa  171 137 164 162
    001563  aa  141 156 163 000
    001564  55   000106 000067
    001565  2a   000067 400001
    001566  55   000101 000003
    001567  aa  020 164 157 157         too_many_regexps
    001570  aa  137 155 141 156
    001571  aa  171 137 162 145
    001572  aa  147 145 170 160
    001573  aa  163 000 000 000
    001574  55   000116 000076
    001575  2a   000066 400001
    001576  55   000111 000003
    001577  aa  022 164 157 157         too_many_personids
    001600  aa  137 155 141 156
    001601  aa  171 137 160 145
    001602  aa  162 163 157 156
    001603  aa  151 144 163 000
    001604  55   000126 000106
    001605  2a   000065 400001
    001606  55   000121 000003
    001607  aa  022 163 167 151         switch_not_changed
    001610  aa  164 143 150 137
    001611  aa  156 157 164 137
    001612  aa  143 150 141 156
    001613  aa  147 145 144 000
    001614  55   000134 000116
    001615  2a   000064 400001
    001616  55   000131 000003
    001617  aa  010 162 161 157         rqo_load
    001620  aa  137 154 157 141
    001621  aa  144 000 000 000
    001622  55   000140 000126
    001623  2a   000063 400001
    001624  55   000137 000003
    001625  aa  003 162 161 157         rqo
    001626  55   000146 000134
    001627  2a   000062 400001
    001630  55   000143 000003
    001631  aa  013 162 157 163         roster_full
    001632  aa  164 145 162 137
    001633  aa  146 165 154 154
    001634  55   000154 000140
    001635  2a   000061 400001
    001636  55   000151 000003
    001637  aa  011 162 145 141         read_only
    001640  aa  144 137 157 156
    001641  aa  154 171 000 000
    001642  55   000162 000146
    001643  2a   000060 400001
    001644  55   000157 000003
    001645  aa  012 157 154 144         old_format
    001646  aa  137 146 157 162
    001647  aa  155 141 164 000
    001650  55   000171 000154
    001651  2a   000057 400001
    001652  55   000165 000003
    001653  aa  017 156 165 154         null_range_spec
    001654  aa  154 137 162 141
    001655  aa  156 147 145 137
    001656  aa  163 160 145 143
    001657  55   000200 000162
    001660  2a   000056 400001
    001661  55   000174 000003
    001662  aa  016 156 157 164         notify_seg_bad
    001663  aa  151 146 171 137
    001664  aa  163 145 147 137
    001665  aa  142 141 144 000
    001666  55   000210 000171
    001667  2a   000055 400001
    001670  55   000203 000003
    001671  aa  022 156 157 164         not_in_search_list
    001672  aa  137 151 156 137
    001673  aa  163 145 141 162
    001674  aa  143 150 137 154
    001675  aa  151 163 164 000
    001676  55   000217 000200
    001677  2a   000054 400001
    001700  55   000213 000003
    001701  aa  017 156 157 164         not_user_switch
    001702  aa  137 165 163 145
    001703  aa  162 137 163 167
    001704  aa  151 164 143 150
    001705  55   000226 000210
    001706  2a   000053 400001
    001707  55   000222 000003
    001710  aa  014 156 157 164         not_eligible
    001711  aa  137 145 154 151
    001712  aa  147 151 142 154
    001713  aa  145 000 000 000
    001714  55   000234 000217
    001715  2a   000052 400001
    001716  55   000231 000003
    001717  aa  013 156 157 164         not_a_forum
    001720  aa  137 141 137 146
    001721  aa  157 162 165 155
    001722  55   000243 000226
    001723  2a   000051 400001
    001724  55   000237 000003
    001725  aa  016 156 157 137         no_unprocessed
    001726  aa  165 156 160 162
    001727  aa  157 143 145 163
    001730  aa  163 145 144 000
    001731  55   000253 000234
    001732  2a   000050 400001
    001733  55   000246 000003
    001734  aa  021 156 157 137         no_trans_for_user
    001735  aa  164 162 141 156
    001736  aa  163 137 146 157
    001737  aa  162 137 165 163
    001740  aa  145 162 000 000
    001741  55   000262 000243
    001742  2a   000047 400001
    001743  55   000256 000003
    001744  aa  017 156 157 137         no_transactions
    001745  aa  164 162 141 156
    001746  aa  163 141 143 164
    001747  aa  151 157 156 163
    001750  55   000270 000253
    001751  2a   000046 400001
    001752  55   000265 000003
    001753  aa  011 156 157 137         no_suffix
    001754  aa  163 165 146 146
    001755  aa  151 170 000 000
    001756  55   000277 000262
    001757  2a   000045 400001
    001760  55   000273 000003
    001761  aa  014 156 157 137         no_such_user
    001762  aa  163 165 143 150
    001763  aa  137 165 163 145
    001764  aa  162 000 000 000
    001765  55   000306 000270
    001766  2a   000044 400001
    001767  55   000302 000003
    001770  aa  015 156 157 137         no_such_forum
    001771  aa  163 165 143 150
    001772  aa  137 146 157 162
    001773  aa  165 155 000 000
    001774  55   000315 000277
    001775  2a   000043 400001
    001776  55   000311 000003
    001777  aa  015 156 157 137         no_notify_seg
    002000  aa  156 157 164 151
    002001  aa  146 171 137 163
    002002  aa  145 147 000 000
    002003  55   000323 000306
    002004  2a   000042 400001
    002005  55   000320 000003
    002006  aa  012 156 157 137         no_message
    002007  aa  155 145 163 163
    002010  aa  141 147 145 000
    002011  55   000331 000315
    002012  2a   000041 400001
    002013  55   000326 000003
    002014  aa  010 156 157 137         no_forum
    002015  aa  146 157 162 165
    002016  aa  155 000 000 000
    002017  55   000337 000323
    002020  2a   000040 400001
    002021  55   000334 000003
    002022  aa  012 156 157 137         no_current
    002023  aa  143 165 162 162
    002024  aa  145 156 164 000
    002025  55   000347 000331
    002026  2a   000037 400001
    002027  55   000342 000003
    002030  aa  021 156 157 137         no_control_suffix
    002031  aa  143 157 156 164
    002032  aa  162 157 154 137
    002033  aa  163 165 146 146
    002034  aa  151 170 000 000
    002035  55   000356 000337
    002036  2a   000036 400001
    002037  55   000352 000003
    002040  aa  015 156 145 145         need_star_acl
    002041  aa  144 137 163 164
    002042  aa  141 162 137 141
    002043  aa  143 154 000 000
    002044  55   000366 000347
    002045  2a   000035 400001
    002046  55   000361 000003
    002047  aa  020 156 145 145         need_system_high
    002050  aa  144 137 163 171
    002051  aa  163 164 145 155
    002052  aa  137 150 151 147
    002053  aa  150 000 000 000
    002054  55   000375 000356
    002055  2a   000034 400001
    002056  55   000371 000003
    002057  aa  014 155 151 163         missing_spec
    002060  aa  163 151 156 147
    002061  aa  137 163 160 145
    002062  aa  143 000 000 000
    002063  55   000405 000366
    002064  2a   000033 400001
    002065  55   000400 000003
    002066  aa  020 155 145 163         message_too_long
    002067  aa  163 141 147 145
    002070  aa  137 164 157 157
    002071  aa  137 154 157 156
    002072  aa  147 000 000 000
    002073  55   000414 000375
    002074  2a   000032 400001
    002075  55   000410 000003
    002076  aa  015 155 145 145         meeting_bloat
    002077  aa  164 151 156 147
    002100  aa  137 142 154 157
    002101  aa  141 164 000 000
    002102  55   000424 000405
    002103  2a   000031 400001
    002104  55   000417 000003
    002105  aa  021 155 145 145         meeting_adjourned
    002106  aa  164 151 156 147
    002107  aa  137 141 144 152
    002110  aa  157 165 162 156
    002111  aa  145 144 000 000
    002112  55   000433 000414
    002113  2a   000030 400001
    002114  55   000427 000003
    002115  aa  017 153 145 171         key_not_allowed
    002116  aa  137 156 157 164
    002117  aa  137 141 154 154
    002120  aa  157 167 145 144
    002121  55   000442 000424
    002122  2a   000027 400001
    002123  55   000436 000003
    002124  aa  017 154 157 156         long_forum_name
    002125  aa  147 137 146 157
    002126  aa  162 165 155 137
    002127  aa  156 141 155 145
    002130  55   000452 000433
    002131  2a   000026 400001
    002132  55   000445 000003
    002133  aa  021 151 156 166         invalid_trans_idx
    002134  aa  141 154 151 144
    002135  aa  137 164 162 141
    002136  aa  156 163 137 151
    002137  aa  144 170 000 000
    002140  55   000462 000442
    002141  2a   000025 400001
    002142  55   000455 000003
    002143  aa  023 151 156 166         invalid_switch_name
    002144  aa  141 154 151 144
    002145  aa  137 163 167 151
    002146  aa  164 143 150 137
    002147  aa  156 141 155 145
    002150  55   000471 000452
    002151  2a   000024 400001
    002152  55   000465 000003
    002153  aa  017 151 156 166         invalid_seg_idx
    002154  aa  141 154 151 144
    002155  aa  137 163 145 147
    002156  aa  137 151 144 170
    002157  55   000501 000462
    002160  2a   000023 400001
    002161  55   000474 000003
    002162  aa  021 151 156 166         invalid_forum_idx
    002163  aa  141 154 151 144
    002164  aa  137 146 157 162
    002165  aa  165 155 137 151
    002166  aa  144 170 000 000
    002167  55   000510 000471
    002170  2a   000022 400001
    002171  55   000504 000003
    002172  aa  017 151 156 166         invalid_att_idx
    002173  aa  141 154 151 144
    002174  aa  137 141 164 164
    002175  aa  137 151 144 170
    002176  55   000517 000501
    002177  2a   000021 400001
    002200  55   000513 000003
    002201  aa  015 151 156 143         incorrect_uid
    002202  aa  157 162 162 145
    002203  aa  143 164 137 165
    002204  aa  151 144 000 000
    002205  55   000526 000510
    002206  2a   000020 400001
    002207  55   000522 000003
    002210  aa  015 146 157 162         forum_deleted
    002211  aa  165 155 137 144
    002212  aa  145 154 145 164
    002213  aa  145 144 000 000
    002214  55   000535 000517
    002215  2a   000017 400001
    002216  55   000531 000003
    002217  aa  015 143 150 141         chairman_only
    002220  aa  151 162 155 141
    002221  aa  156 137 157 156
    002222  aa  154 171 000 000
    002223  55   000545 000526
    002224  2a   000016 400001
    002225  55   000540 000003
    002226  aa  022 143 141 156         cant_stop_msg_site
    002227  aa  164 137 163 164
    002230  aa  157 160 137 155
    002231  aa  163 147 137 163
    002232  aa  151 164 145 000
    002233  55   000555 000535
    002234  2a   000015 400001
    002235  55   000550 000003
    002236  aa  023 143 141 156         cant_stop_msg_admin
    002237  aa  164 137 163 164
    002240  aa  157 160 137 155
    002241  aa  163 147 137 141
    002242  aa  144 155 151 156
    002243  55   000563 000545
    002244  2a   000014 400001
    002245  55   000560 000003
    002246  aa  013 143 141 156         cant_notify
    002247  aa  164 137 156 157
    002250  aa  164 151 146 171
    002251  55   000573 000555
    002252  2a   000013 400001
    002253  55   000566 000003
    002254  aa  020 142 154 141         blank_forum_name
    002255  aa  156 153 137 146
    002256  aa  157 162 165 155
    002257  aa  137 156 141 155
    002260  aa  145 000 000 000
    002261  55   000602 000563
    002262  2a   000012 400001
    002263  55   000576 000003
    002264  aa  016 142 141 144         bad_trans_spec
    002265  aa  137 164 162 141
    002266  aa  156 163 137 163
    002267  aa  160 145 143 000
    002270  55   000611 000573
    002271  2a   000011 400001
    002272  55   000605 000003
    002273  aa  015 142 141 144         bad_reply_idx
    002274  aa  137 162 145 160
    002275  aa  154 171 137 151
    002276  aa  144 170 000 000
    002277  55   000620 000602
    002300  2a   000010 400001
    002301  55   000614 000003
    002302  aa  015 141 156 157         anon_chairman
    002303  aa  156 137 143 150
    002304  aa  141 151 162 155
    002305  aa  141 156 000 000
    002306  55   000002 000611
    002307  6a   000000 400002
    002310  55   000623 000003
    002311  aa  014 163 171 155         symbol_table
    002312  aa  142 157 154 137
    002313  aa  164 141 142 154
    002314  aa  145 000 000 000

DEFINITIONS HASH TABLE

    002315  aa   000000 000131
    002316  aa   000000 000000
    002317  aa   000000 000000
    002320  5a   000226 000000
    002321  5a   000620 000000
    002322  5a   000347 000000
    002323  5a   000041 000000
    002324  5a   000262 000000
    002325  5a   000414 000000
    002326  5a   000563 000000
    002327  5a   000171 000000
    002330  5a   000106 000000
    002331  5a   000356 000000
    002332  5a   000535 000000
    002333  5a   000126 000000
    002334  5a   000270 000000
    002335  5a   000573 000000
    002336  aa   000000 000000
    002337  aa   000000 000000
    002340  aa   000000 000000
    002341  5a   000517 000000
    002342  5a   000253 000000
    002343  5a   000611 000000
    002344  aa   000000 000000
    002345  5a   000442 000000
    002346  5a   000471 000000
    002347  aa   000000 000000
    002350  aa   000000 000000
    002351  aa   000000 000000
    002352  5a   000146 000000
    002353  aa   000000 000000
    002354  aa   000000 000000
    002355  5a   000134 000000
    002356  aa   000000 000000
    002357  aa   000000 000000
    002360  5a   000217 000000
    002361  5a   000076 000000
    002362  aa   000000 000000
    002363  5a   000060 000000
    002364  5a   000315 000000
    002365  5a   000331 000000
    002366  5a   000366 000000
    002367  5a   000210 000000
    002370  5a   000526 000000
    002371  5a   000545 000000
    002372  aa   000000 000000
    002373  5a   000277 000000
    002374  5a   000306 000000
    002375  5a   000433 000000
    002376  5a   000200 000000
    002377  5a   000462 000000
    002400  5a   000501 000000
    002401  aa   000000 000000
    002402  aa   000000 000000
    002403  5a   000555 000000
    002404  5a   000405 000000
    002405  5a   000510 000000
    002406  5a   000116 000000
    002407  aa   000000 000000
    002410  aa   000000 000000
    002411  5a   000154 000000
    002412  5a   000067 000000
    002413  5a   000424 000000
    002414  aa   000000 000000
    002415  5a   000323 000000
    002416  aa   000000 000000
    002417  aa   000000 000000
    002420  aa   000000 000000
    002421  aa   000000 000000
    002422  5a   000140 000000
    002423  5a   000013 000000
    002424  5a   000602 000000
    002425  aa   000000 000000
    002426  5a   000021 000000
    002427  aa   000000 000000
    002430  aa   000000 000000
    002431  5a   000375 000000
    002432  5a   000050 000000
    002433  5a   000234 000000
    002434  aa   000000 000000
    002435  5a   000162 000000
    002436  aa   000000 000000
    002437  aa   000000 000000
    002440  aa   000000 000000
    002441  aa   000000 000000
    002442  5a   000243 000000
    002443  5a   000337 000000
    002444  5a   000031 000000
    002445  5a   000452 000000
    002446  aa   000000 000000

NO EXTERNAL NAMES

NO TRAP POINTER WORDS

TYPE PAIR BLOCKS

    002447  aa   000001 000000
    002450  aa   000000 000000

INTERNAL EXPRESSION WORDS

    002451  50   000761 000000
LINKAGE INFORMATION

    000000  aa   000000 000000
    000001  02   001466 000102
    000002  aa   000000 000000
    000003  aa   000000 000000
    000004  aa   000000 000000
    000005  aa   000000 000000
    000006  22   000100 000105
    000007  a2   000000 000070
    000100  9a   777700 0000 46         *text|
    000101  5a   000763 0000 00

FIRST REFERENCE TRAP LIST

    000102  aa   000000 000001
    000103  aa   000000 000001
    000104  2a   000100 000000
    000105  aa   000000 000000
SYMBOL INFORMATION

SYMBOL TABLE HEADER

    000000  aa   000000 000001
    000001  aa   163171 155142
    000002  aa   164162 145145
    000003  aa   000000 000004
    000004  aa   000000 114732
    000005  aa   732732 062314
    000006  aa   000000 114775
    000007  aa   701634 007174
    000010  aa   141154 155040
    000011  aa   040040 040040
    000012  aa   000024 000040
    000013  aa   000034 000040
    000014  aa   000044 000100
    000015  aa   000002 000002
    000016  aa   000064 000000
    000017  aa   000000 000253
    000020  aa   000000 000146
    000021  aa   000000 000226
    000022  aa   000243 000146
    000023  aa   000064 000000
    000024  aa   101114 115040
    000025  aa   126145 162163
    000026  aa   151157 156040
    000027  aa   040066 056067
    000030  aa   040040 117143
    000031  aa   164157 142145
    000032  aa   162040 061071
    000033  aa   070066 040040
    000034  aa   107112 157150
    000035  aa   156163 157156
    000036  aa   056123 171163
    000037  aa   115141 151156
    000040  aa   164056 141040
    000041  aa   040040 040040
    000042  aa   040040 040040
    000043  aa   040040 040040
    000044  aa   154151 163164
    000045  aa   040040 040040
    000046  aa   040040 040040
    000047  aa   040040 040040
    000050  aa   040040 040040
    000051  aa   040040 040040
    000052  aa   040040 040040
    000053  aa   040040 040040
    000054  aa   040040 040040
    000055  aa   040040 040040
    000056  aa   040040 040040
    000057  aa   040040 040040
    000060  aa   040040 040040
    000061  aa   040040 040040
    000062  aa   040040 040040
    000063  aa   040040 040040
    000064  aa   000000 000001
    000065  aa   000000 000003
    000066  aa   000102 000067
    000067  aa   147740 446267
    000070  aa   000000 114774
    000071  aa   461053 600000
    000072  aa   000120 000037
    000073  aa   120665 316464
    000074  aa   000000 112067
    000075  aa   253504 600000
    000076  aa   000130 000066
    000077  aa   147714 750316
    000100  aa   000000 114774
    000101  aa   453561 000000
    000102  aa   076163 160145          >special_ldd>install>MR12.0-1206>forum_error_table_.alm
    000103  aa   143151 141154
    000104  aa   137154 144144
    000105  aa   076151 156163
    000106  aa   164141 154154
    000107  aa   076115 122061
    000110  aa   062056 060055
    000111  aa   061062 060066
    000112  aa   076146 157162
    000113  aa   165155 137145
    000114  aa   162162 157162
    000115  aa   137164 141142
    000116  aa   154145 137056
    000117  aa   141154 155040
    000120  aa   076154 144144          >ldd>include>et_macros.incl.alm
    000121  aa   076151 156143
    000122  aa   154165 144145
    000123  aa   076145 164137
    000124  aa   155141 143162
    000125  aa   157163 056151
    000126  aa   156143 154056
    000127  aa   141154 155040
    000130  aa   076163 160145          >special_ldd>install>MR12.0-1206>stack_header.incl.alm
    000131  aa   143151 141154
    000132  aa   137154 144144
    000133  aa   076151 156163
    000134  aa   164141 154154
    000135  aa   076115 122061
    000136  aa   062056 060055
    000137  aa   061062 060066
    000140  aa   076163 164141
    000141  aa   143153 137150
    000142  aa   145141 144145
    000143  aa   162056 151156
    000144  aa   143154 056141
    000145  aa   154155 040040
               MULTICS ASSEMBLY CROSS REFERENCE LISTING

   Value        Symbol                   Source file   Line number

                *text                    forum_error_table_:        23.
          14    .._00000                 forum_error_table_:        25.
          30    .._00001                 forum_error_table_:        26.
          51    .._00002                 forum_error_table_:        27.
          64    .._00003                 forum_error_table_:        28.
          75    .._00004                 forum_error_table_:        29.
         116    .._00005                 forum_error_table_:        30.
         146    .._00006                 forum_error_table_:        31.
         167    .._00007                 forum_error_table_:        32.
         211    .._00010                 forum_error_table_:        33.
         233    .._00011                 forum_error_table_:        34.
         257    .._00012                 forum_error_table_:        35.
         273    .._00013                 forum_error_table_:        36.
         314    .._00014                 forum_error_table_:        37.
         334    .._00015                 forum_error_table_:        38.
         350    .._00016                 forum_error_table_:        39.
         366    .._00017                 forum_error_table_:        40.
         400    .._00020                 forum_error_table_:        41.
         420    .._00021                 forum_error_table_:        42.
         437    .._00022                 forum_error_table_:        43.
         460    .._00023                 forum_error_table_:        44.
         500    .._00024                 forum_error_table_:        45.
         515    .._00025                 forum_error_table_:        46.
         545    .._00026                 forum_error_table_:        47.
         562    .._00027                 forum_error_table_:        48.
         603    .._00030                 forum_error_table_:        49.
         616    .._00031                 forum_error_table_:        50.
         630    .._00032                 forum_error_table_:        51.
         642    .._00033                 forum_error_table_:        52.
         660    .._00034                 forum_error_table_:        53.
         674    .._00035                 forum_error_table_:        54.
         712    .._00036                 forum_error_table_:        55.
         733    .._00037                 forum_error_table_:        56.
         745    .._00040                 forum_error_table_:        57.
         762    .._00041                 forum_error_table_:        58.
         776    .._00042                 forum_error_table_:        59.
        1017    .._00043                 forum_error_table_:        60.
        1036    .._00044                 forum_error_table_:        61.
        1056    .._00045                 forum_error_table_:        62.
        1077    .._00046                 forum_error_table_:        63.
        1113    .._00047                 forum_error_table_:        64.
        1132    .._00050                 forum_error_table_:        65.
        1160    .._00051                 forum_error_table_:        66.
        1200    .._00052                 forum_error_table_:        67.
        1217    .._00053                 forum_error_table_:        68.
        1236    .._00054                 forum_error_table_:        69.
        1257    .._00055                 forum_error_table_:        70.
        1273    .._00056                 forum_error_table_:        71.
        1306    .._00057                 forum_error_table_:        72.
        1324    .._00060                 forum_error_table_:        73.
        1340    .._00061                 forum_error_table_:        74.
        1355    .._00062                 forum_error_table_:        75.
        1373    .._00063                 forum_error_table_:        76.
        1411    .._00064                 forum_error_table_:        77.
        1430    .._00065                 forum_error_table_:        78.
        1452    .._00066                 forum_error_table_:        79.
          77    .code_end                forum_error_table_:        23.
          10    .code_start              forum_error_table_:        23.
           5    .loop                    forum_error_table_:        23.
       77777    .segno                   forum_error_table_:        23,   25,   26,   27,   28,   29,   30,   31,   32,   33,
                                                                    34,   35,   36,   37,   38,   39,   40,   41,   42,   43,
                                                                    44,   45,   46,   47,   48,   49,   50,   51,   52,   53,
                                                                    54,   55,   56,   57,   58,   59,   60,   61,   62,   63,
                                                                    64,   65,   66,   67,   68,   69,   70,   71,   72,   73,
                                                                    74,   75,   76,   77,   78,   79.
           0    .trapproc                forum_error_table_:        23.
          10    anon_chairman            forum_error_table_:        25.
          11    bad_reply_idx            forum_error_table_:        26.
          12    bad_trans_spec           forum_error_table_:        27.
          13    blank_forum_name         forum_error_table_:        28.
        1170    call_offset              stack_header:        80.
          14    cant_notify              forum_error_table_:        29.
          15    cant_stop_msg_admin      forum_error_table_:        30.
          16    cant_stop_msg_site       forum_error_table_:        31.
          17    chairman_only            forum_error_table_:        32.
          10    codes                    forum_error_table_:        23,   25,   26,   27,   28,   29,   30,   31,   32,   33,
                                                                    34,   35,   36,   37,   38,   39,   40,   41,   42,   43,
                                                                    44,   45,   46,   47,   48,   49,   50,   51,   52,   53,
                                                                    54,   55,   56,   57,   58,   59,   60,   61,   62,   63,
                                                                    64,   65,   66,   67,   68,   69,   70,   71,   72,   73,
                                                                    74,   75,   76,   77,   78,   79.
        1174    entry_offset             stack_header:        84.
          20    forum_deleted            forum_error_table_:        33.
          21    incorrect_uid            forum_error_table_:        34.
          22    invalid_att_idx          forum_error_table_:        35.
          23    invalid_forum_idx        forum_error_table_:        36.
          24    invalid_seg_idx          forum_error_table_:        37.
          25    invalid_switch_name      forum_error_table_:        38.
          26    invalid_trans_idx        forum_error_table_:        39.
          30    key_not_allowed          forum_error_table_:        41.
          27    long_forum_name          forum_error_table_:        40.
          31    meeting_adjourned        forum_error_table_:        42.
          32    meeting_bloat            forum_error_table_:        43.
           0    messages                 forum_error_table_:        23,   25,   26,   27,   28,   29,   30,   31,   32,   33,
                                                                    34,   35,   36,   37,   38,   39,   40,   41,   42,   43,
                                                                    44,   45,   46,   47,   48,   49,   50,   51,   52,   53,
                                                                    54,   55,   56,   57,   58,   59,   60,   61,   62,   63,
                                                                    64,   65,   66,   67,   68,   69,   70,   71,   72,   73,
                                                                    74,   75,   76,   77,   78,   79.
          33    message_too_long         forum_error_table_:        44.
          34    missing_spec             forum_error_table_:        45.
          36    need_star_acl            forum_error_table_:        47.
          35    need_system_high         forum_error_table_:        46.
          56    notify_seg_bad           forum_error_table_:        63.
          52    not_a_forum              forum_error_table_:        59.
          53    not_eligible             forum_error_table_:        60.
          55    not_in_search_list       forum_error_table_:        62.
          54    not_user_switch          forum_error_table_:        61.
          37    no_control_suffix        forum_error_table_:        48.
          40    no_current               forum_error_table_:        49.
          41    no_forum                 forum_error_table_:        50.
          42    no_message               forum_error_table_:        51.
          43    no_notify_seg            forum_error_table_:        52.
          44    no_such_forum            forum_error_table_:        53.
          45    no_such_user             forum_error_table_:        54.
          46    no_suffix                forum_error_table_:        55.
          47    no_transactions          forum_error_table_:        56.
          50    no_trans_for_user        forum_error_table_:        57.
          51    no_unprocessed           forum_error_table_:        58.
          57    null_range_spec          forum_error_table_:        64.
          60    old_format               forum_error_table_:        65.
          77    past_codes               forum_error_table_:        23.
        1171    push_offset              stack_header:        81.
          61    read_only                forum_error_table_:        66.
        1173    return_no_pop_offset     stack_header:        83.
        1172    return_offset            stack_header:        82.
          62    roster_full              forum_error_table_:        67.
          63    rqo                      forum_error_table_:        68.
          64    rqo_load                 forum_error_table_:        69.
          73    stach_header.trace_top_ptr     stack_header:        62.
          66    stack_header.assign_linkage_ptr      stack_header:        59.
          32    stack_header.bar_mode_sp       stack_header:        42.
          36    stack_header.call_op_ptr       stack_header:        44.
          10    stack_header.clr_ptr     stack_header:        27.
           6    stack_header.combined_stat_ptr       stack_header:        25.
           4    stack_header.cpm_data_ptr      stack_header:        24.
          13    stack_header.cpm_enabled       stack_header:        32.
          13    stack_header.cur_lot_size      stack_header:        31.
          64    stack_header.ect_ptr     stack_header:        58.
          46    stack_header.entry_op_ptr      stack_header:        49.
          70    stack_header.heap_header_ptr   stack_header:        60.
          74    stack_header.in_trace    stack_header:        63.
          52    stack_header.isot_ptr    stack_header:        52.
          26    stack_header.lot_ptr     forum_error_table_:        23,
                                         stack_header:        39.
          12    stack_header.main_proc_invoked       stack_header:        29.
          12    stack_header.max_lot_size      stack_header:        28.
          20    stack_header.parent_ptr  stack_header:        36.
          34    stack_header.pl1_operators_ptr       stack_header:        43.
          40    stack_header.push_op_ptr       stack_header:        46.
          42    stack_header.return_op_ptr     stack_header:        47.
          44    stack_header.ret_no_pop_op_ptr       stack_header:        48.
          62    stack_header.rnt_ptr     stack_header:        57.
          12    stack_header.run_unit_depth    stack_header:        30.
          54    stack_header.sct_ptr     stack_header:        53.
          30    stack_header.signal_ptr  stack_header:        41.
          22    stack_header.stack_begin_ptr   stack_header:        37.
          24    stack_header.stack_end_ptr     stack_header:        38.
          14    stack_header.system_free_ptr   stack_header:        33.
          60    stack_header.sys_link_info_ptr       stack_header:        56.
          72    stack_header.trace_frames      stack_header:        61.
          50    stack_header.trans_op_tv_ptr   stack_header:        51.
          56    stack_header.unwinder_ptr      stack_header:        54.
          16    stack_header.user_free_ptr     stack_header:        34.
         100    stack_header_end         stack_header:        64.
          65    switch_not_changed       forum_error_table_:        70.
          66    too_many_personids       forum_error_table_:        71.
          67    too_many_regexps         forum_error_table_:        72.
          70    too_many_trans           forum_error_table_:        73.
           0    trace_frames.count       stack_header:        69.
           1    trace_frames.top_ptr     stack_header:        70.
          71    trans_deleted            forum_error_table_:        74.
          72    trans_not_deleted        forum_error_table_:        75.
          73    trans_reaped             forum_error_table_:        76.
         551    tv_offset                stack_header:        75,   80,   81,   82,   83,   84.
          74    unexpected_fault         forum_error_table_:        77.
          75    unproc_not_allowed       forum_error_table_:        78.
          76    you_twit                 forum_error_table_:        79.


NO FATAL ERRORS


                                          -----------------------------------------------------------


Historical Background

This edition of the Multics software materials and documentation is provided and donated
to Massachusetts Institute of Technology by Group BULL including BULL HN Information Systems Inc.
as a contribution to computer science knowledge.
This donation is made also to give evidence of the common contributions of Massachusetts Institute of Technology,
Bell Laboratories, General Electric, Honeywell Information Systems Inc., Honeywell BULL Inc., Groupe BULL
and BULL HN Information Systems Inc. to the development of this operating system.
Multics development was initiated by Massachusetts Institute of Technology Project MAC (1963-1970),
renamed the MIT Laboratory for Computer Science and Artificial Intelligence in the mid 1970s, under the leadership
of Professor Fernando Jose Corbato. Users consider that Multics provided the best software architecture
for managing computer hardware properly and for executing programs. Many subsequent operating systems
incorporated Multics principles.
Multics was distributed in 1975 to 2000 by Group Bull in Europe , and in the U.S. by Bull HN Information Systems Inc.,
as successor in interest by change in name only to Honeywell Bull Inc. and Honeywell Information Systems Inc. .

                                          -----------------------------------------------------------

Permission to use, copy, modify, and distribute these programs and their documentation for any purpose and without
fee is hereby granted,provided that the below copyright notice and historical background appear in all copies
and that both the copyright notice and historical background and this permission notice appear in supporting
documentation, and that the names of MIT, HIS, BULL or BULL HN not be used in advertising or publicity pertaining
to distribution of the programs without specific prior written permission.
    Copyright 1972 by Massachusetts Institute of Technology and Honeywell Information Systems Inc.
    Copyright 2006 by BULL HN Information Systems Inc.
    Copyright 2006 by Bull SAS
    All Rights Reserved
