ASSEMBLY LISTING OF SEGMENT >udd>sm>ds>w>ml>forum_request_tables_.alm
ASSEMBLED ON:	04/17/00  1944.9 mdt Mon
OPTIONS USED:	list symbols
ASSEMBLED BY:	ALM Version 8.14 March 1989
ASSEMBLER CREATED:	06/09/89  1102.3 mdt Fri

                                     1  " ***************************************************************
                                     2  " *                                                             *
                                     3  " * Copyright, (C) Massachusetts Institute of Technology, 1986  *
                                     4  " *                                                             *
                                     5  " * Copyright (c) 1982 by Massachusetts Institute of Technology *
                                     6  " *                                                             *
                                     7  " ***************************************************************
                                     8
                                     9  " HISTORY COMMENTS:
                                    10  "  1) change(86-07-29,Pattin), approve(86-07-29,MCR7354),
                                    11  "     audit(86-08-03,Margolin), install(86-08-16,MR12.0-1128):
                                    12  "     added bref request.
                                    13  "  2) change(86-07-29,Pattin), approve(86-07-29,MCR7356),
                                    14  "     audit(86-08-03,Margolin), install(86-08-16,MR12.0-1128):
                                    15  "     Added rechain and unchain requests.
                                    16  "                                                      END HISTORY COMMENTS
                                    17
                                    18
    000000                          19  name      forum_request_tables_
                                    20
                                    21  " requests for forum
                                    22  " modified 9/24/82 Jay Pattin to remove standard ssu_ requests.
                                    23
                                    24            include   ssu_request_macros
                                   1-1  " BEGIN INCLUDE FILE ... ssu_request_macros.incl.alm
                                   1-2  " Created:  5 May 1980 by W. Olin Sibert
                                   1-3  " Modified: 25 July 1980 by G. Palter to add multics_request macro
                                   1-4  " Modified: 1 December 1981 by G. Palter to remove user_flags
                                   1-5  " Modified: 12 February 1982 by G. Palter for version 4
                                   1-6  " Modified: 28 February 1982 by G. Palter to add dont_summarize and dont_list
                                   1-7  " Modified: 2 August 1982 by Jay Pattin to add unknown_request
                                   1-8  " Modified: 24 October 1984 by G. Palter to restore user flags and add the
                                   1-9  "    set_default_flags and set_default_multics_flags macros
                                  1-10
                                  1-11
                                  1-12  " ALM macros used to define subsystem request tables
                                  1-13
                                  1-14
                                  1-15  	macro	request_table_version
                              1   1-16  	aci	"srqt_4.0",8
                              2   1-17  	&end
                                  1-18
                                  1-19
                                  1-20  	macro	namelist
                              1   1-21  	maclist	off,save
                              2   1-22  	vfd	36/&K
                              3   1-23  &R&(	aci	@&i@,32
                              4   1-24  &)
                              5   1-25  	maclist	restore
                              6   1-26  	&end
                                  1-27
                                  1-28  " 
                                  1-29
                                  1-30  " System defined per-request flags
                                  1-31
                        400000    1-32  	bool	flags.allow_command,400000	" valid as a command
                        200000    1-33  	bool	flags.allow_af,200000	" valid as an active function
                        600000    1-34  	bool	flags.allow_both,600000	" valid as both
                                  1-35
                        100000    1-36  	bool	flags.unimplemented,100000	" request is not yet implemented
                        040000    1-37  	bool	flags.multics_request,040000	" request is actually a Multics command
                                  1-38
                        020000    1-39  	bool	flags.dont_summarize,020000	" summarize_requests won't list it
                        010000    1-40  	bool	flags.dont_list,010000	" list_requests won't show it without -all
                                  1-41
                        004000    1-42  	bool	flags.unknown,004000	" request is explicitly made unknown
                                  1-43
                                  1-44
                                  1-45  " Macros for setting per-request flags
                                  1-46
                                  1-47  	macro	set_flags_loop
                              1   1-48  	maclist	off,save
                              2   1-49  &(3
                              3   1-50  &=&i,default&[	set_flags_loop	&1,(0),(&2)
                              4   1-51  &;	set	&1,&1+&i
                              5   1-52  &]&)
                              6   1-53  	maclist	restore
                              7   1-54  	&end
                                  1-55
                                  1-56
                                  1-57  	macro	set_flags
                              1   1-58  	maclist	off,save
                              2   1-59  	set	&1,0
                              3   1-60  &=&3,&[	set_flags_loop	&1,(0),(&2)
                              4   1-61  &;	set_flags_loop	&1,(&2),(&3)
                              5   1-62  &]
                              6   1-63  	maclist	restore
                              7   1-64  	&end
                                  1-65
                                  1-66  " 
                                  1-67
                                  1-68  "	set_default_flags {(system-flags)},{(user-flags)}
                                  1-69
                                  1-70  " Sets the default system and/or user flags to be used for requests:
                                  1-71  "   system-flags: defines the default general nature of requests;" the default
                                  1-72  "      default is flags.allow_command
                                  1-73  "   user-flags:  defines the default setting for the subsystem specific flags
                                  1-74  "      associated with requests;" the default default is none (0)
                                  1-75  "   Note: If either system-flags or user-flags is ommitted, the default is not
                                  1-76  "      changed from its prior value.  This action allows the use of multiple
                                  1-77  "      set_default_flags macros within a table to change system or user
                                  1-78  "      flags without affecting the other defaults
                                  1-79
                                  1-80  	macro	set_default_flags
                              1   1-81  	maclist	off,save
                              2   1-82  &^=&1,&[	set_flags	.dft_sf,(flags.allow_command),(&1)
                              3   1-83  &]
                              4   1-84  &^=&2,&[	set_flags	.dft_uf,(0),(&2)
                              5   1-85  &]
                              6   1-86  	maclist	restore
                              7   1-87  	&end
                                  1-88
                                  1-89
                                  1-90  "	set_default_multics_flags {(system-flags)},{(user-flags)}
                                  1-91
                                  1-92  " Sets the default system and/or user flags to be used for Multics commands when used as requests:
                                  1-93  "   system-flags: defines the default general nature of Multics requests;" the
                                  1-94  "      default default is flags.allow_command+flags.allow_af
                                  1-95  "   user-flags:  defines the default setting for the subsystem specific flags
                                  1-96  "      associated with Multics requests;" the default default is none (0)
                                  1-97  "   Note: If either system-flags or user-flags is ommitted, the default is not
                                  1-98  "      changed from its prior value.  This action allows the use of multiple
                                  1-99  "      set_default_multics_flags macros within a table to change system or user
                                 1-100  "      flags without affecting the other defaults
                                 1-101
                                 1-102  	macro	set_default_multics_flags
                              1  1-103  	maclist	off,save
                              2  1-104  &^=&1,&[	set_flags	.dft_mrsf,(flags.allow_command,flags.allow_af),(&1)
                              3  1-105  &]
                              4  1-106  &^=&2,&[	set_flags	.dft_mruf,(0),(&2)
                              5  1-107  &]
                              6  1-108  	maclist	restore
                              7  1-109  	&end
                                 1-110
                                 1-111  " 
                                 1-112
                                 1-113  	macro	.multics_request_doc
                              1  1-114  	null
                              2  1-115  	&end
                                 1-116
                                 1-117
                                 1-118  	macro	dft_multics_doc_lth
                              1  1-119  	set	.multics_doc_lth,0
                              2  1-120  	&end
                                 1-121
                                 1-122
                                 1-123  "	set_default_multics_doc (string)
                                 1-124
                                 1-125  " Sets the default documentation to be used for Multics commands when used as requests:
                                 1-126  "   string: is the documentation string to be used for any subsequent requests defined by
                                 1-127  "      the multics_request_macro;" all occurences of "&1" in this string will be replaced by
                                 1-128  "      the actual name of the request;" Eg:
                                 1-129  "	set_default_multics_doc (Type '.. help &1' for more information.)
                                 1-130
                                 1-131  	macro	set_default_multics_doc
                              1  1-132  	maclist	off,save
                              2  1-133  	macro	.multics_request_doc
                              3  1-134  	aci	@&1@
                              4  1-135  	&&end
                              5  1-136  	macro	dft_multics_doc_lth
                              6  1-137  	macro	.compute
                              7  1-138  	set	.multics_doc_lth,&&&&l1
                              8  1-139  	&&&&end
                              9  1-140  	.compute (&1)
                             10  1-141  	&&end
                             11  1-142  	maclist	restore
                             12  1-143  	&end
                                 1-144
                                 1-145  " 
                                 1-146
                                 1-147  "	begin_table tablename
                                 1-148
                                 1-149  " Defines a subsystem request table (multiple tables may exist in a single object segment):
                                 1-150  "   tablename: the name by which this table may be referenced externally;" references to the
                                 1-151  "      table should be of the form segname$tablename where segname is the name of this
                                 1-152  "      object segment
                                 1-153
                                 1-154  	macro	begin_table
                              1  1-155  	segdef	&1
                              2  1-156  	maclist	object,save
                              3  1-157  	use	tables
                              4  1-158  &1:	request_table_version
                              5  1-159  	aci	@&1@,32
                              6  1-160  	dup	6
                              7  1-161  	vfd	36/0
                              8  1-162  	dupend
                              9  1-163  	vfd	36/&1.rc
                             10  1-164  	maclist	off
                             11  1-165  	set	.rc,0
                             12  1-166  	set_default_flags (default),(default)
                             13  1-167  	set_default_multics_flags (default),(default)
                             14  1-168  	maclist	restore
                             15  1-169  	&end
                                 1-170
                                 1-171
                                 1-172  "	end_table	tablename
                                 1-173
                                 1-174  " Indicates the end of a subsystem request table definition:
                                 1-175  "   tablename: the name of the table which has now been completely defined
                                 1-176
                                 1-177  	macro	end_table
                              1  1-178  	maclist	off,save
                              2  1-179  	set	&1.rc,.rc
                              3  1-180  	maclist	restore
                              4  1-181  	&end
                                 1-182
                                 1-183  " 
                                 1-184
                                 1-185  "	request	name,processor,({abbreviations}),{(documentation)},
                                 1-186  "		 {(system-flags)},{(user-flags)}
                                 1-187
                                 1-188  " Defines a subsystem request:
                                 1-189  "   name: the primary name of this request
                                 1-190  "   processor: the name of the procedure which actually executes this request;" it must be
                                 1-191  "      of the form segname$entryname
                                 1-192  "   abbreviations: is the list of defined abbreviations for this request
                                 1-193  "   documentation: a short string used by the list_requests request to explain this request
                                 1-194  "   system-flags: defines the general nature of this request;" the default is
                                 1-195  "      flags.allow_command
                                 1-196  "   user-flags: allows a subsystem to provide subsystem-specific information
                                 1-197  "      with the request's definition;" the default is none (0)
                                 1-198
                                 1-199  	macro	request
                              1  1-200  	maclist	off,save
                              2  1-201  	set	.rc,.rc+1
                              3  1-202  	maclist	object
                              4  1-203  	use	tables
                              5  1-204  	vfd	18/&U.call,18/&U.names
                              6  1-205  &=&4,&[	vfd	36/0
                              7  1-206  &;	vfd	18/&U.info,18/&l4
                              8  1-207  	maclist	off
                              9  1-208  	use	info
                             10  1-209  &U.info:	aci	@&4@
                             11  1-210  &]
                             12  1-211  	use	tables
                             13  1-212  	set_flags	.sf,(.dft_sf),(&5)
                             14  1-213  	set_flags	.uf,(.dft_uf),(&6)
                             15  1-214  	maclist	object
                             16  1-215  	vfd	18/.sf,18/.uf
                             17  1-216  	maclist	off
                             18  1-217  	use	calls
                             19  1-218  &U.call:	epaq	*
                             20  1-219  	lprp4	7|stack_header.lot_ptr,*au
                             21  1-220  	call6	&2
                             22  1-221  	use	names
                             23  1-222  &U.names:	namelist	&1&^=&3,&[,&3&]
                             24  1-223  	maclist	restore
                             25  1-224  	&end
                                 1-225
                                 1-226  " 
                                 1-227
                                 1-228  "	unknown_request name,(abbreviations)
                                 1-229
                                 1-230  " Defines an unknown request: used to make the utilities not recognize a request even though
                                 1-231  " it is defined in a later request table (such as ssu_request_tables_$standard_request):
                                 1-232  "   name: the primary name of the request to be marked as unknown
                                 1-233  "   abbreviations: is the list of defined abbreviations for this request
                                 1-234
                                 1-235  	macro	unknown_request
                              1  1-236  	maclist	off,save
                              2  1-237  	set	.rc,.rc+1
                              3  1-238  	maclist	object
                              4  1-239  	use	tables
                              5  1-240  	vfd	18/&U.call,18/&U.names
                              6  1-241  	vfd	36/0
                              7  1-242  	vfd	18/flags.unknown,18/0
                              8  1-243  	maclist	off
                              9  1-244  	use	calls
                             10  1-245  &U.call:	epaq	*
                             11  1-246  	lprp4	7|stack_header.lot_ptr,*au
                             12  1-247  	call6	ssu_$unknown_request
                             13  1-248  	use	names
                             14  1-249  &U.names: namelist	&1&^=&2,&[,&2&]
                             15  1-250  	maclist	restore
                             16  1-251  	&end
                                 1-252
                                 1-253  " 
                                 1-254
                                 1-255  "	multics_request name,({abbreviations}),({documenation}),{procedure},
                                 1-256  "		       {(system-flags)},{(user-flags)}
                                 1-257
                                 1-258  " Defines that a Multics command/AF may be used as a subsystem request:
                                 1-259  "   name: the primary name of this request (usually the name of the Multics command/AF)
                                 1-260  "   abbreviations: is the list of defined abbreviations for this request
                                 1-261  "   documentation: a short string used by the list_requests request to explain this request;
                                 1-262  "      if no documentation is provided, the documentation specified by a prior use of
                                 1-263  "      set_default_multics_doc is used
                                 1-264  "   procedure: the name of the Multics command/AF which is actually executed by this
                                 1-265  "      request;" it must be of the form segname$entryname;" if not given, the default is
                                 1-266  "      name$name
                                 1-267  "   system-flags: defines the general nature of this request;" the default is
                                 1-268  "      flags.allow_command+flags.allow_af
                                 1-269  "   user-flags: allows a subsystem to provide subsystem-specific information
                                 1-270  "      with the request's definition;" the default is none (0)
                                 1-271
                                 1-272  	macro	multics_request
                              1  1-273  	maclist	off,save
                              2  1-274  	set	.rc,.rc+1
                              3  1-275  	maclist	object
                              4  1-276  	use	tables
                              5  1-277  	vfd	18/&U.call,18/&U.names
                              6  1-278  &=&3,&[	dft_multics_doc_lth &1,(&2),(&3),(&4),(&5),(&6)
                              7  1-279  	vfd	18/&U.info,18/.multics_doc_lth
                              8  1-280  &;	vfd	18/&U.info,18/&l3
                              9  1-281  &]
                             10  1-282  	maclist	off
                             11  1-283  	use	info
                             12  1-284  &U.info:
                             13  1-285  &=&3,&[	.multics_request_doc &1,(&2),(&3),(&4),(&5),(&6)
                             14  1-286  &;	aci	@&3@
                             15  1-287  &]
                             16  1-288  	use	tables
                             17  1-289  	maclist	object
                             18  1-290  	set_flags	.sf,(.dft_mrsf),(&5)
                             19  1-291  	set_flags	.uf,(.dft_mruf),(&6)
                             20  1-292  	maclist	object
                             21  1-293  	vfd	18/.sf+flags.multics_request,18/.uf
                             22  1-294  	maclist	off
                             23  1-295  	use	calls
                             24  1-296  &U.call:	epaq	*
                             25  1-297  	lprp4	7|stack_header.lot_ptr,*au
                             26  1-298  &=&4,&[	call6	&1$&1
                             27  1-299  &;	call6	&4
                             28  1-300  &]
                             29  1-301  	use	names
                             30  1-302  &U.names:	namelist	&1&^=&2,&[,&2&]
                             31  1-303  	maclist	restore
                             32  1-304  	&end
                                 1-305
                                 1-306  " 
                                 1-307
                                 1-308  " Required ALM statements to make this all work
                                 1-309
                                 1-310  	use	tables
                                 1-311  	use	calls
                                 1-312  	use	names
                                 1-313  	use	info
                                 1-314  	join	/text/tables,calls,names,info
                                 1-315
                                 1-316  	include	stack_header
                                   2-1  "	BEGIN INCLUDE FILE ... stack_header.incl.alm  3/72  Bill Silver
                                   2-2  "
                                   2-3  "	modified 7/76 by M. Weaver for *system links and more system use of areas
                                   2-4  "	modified 3/77 by M. Weaver  to add rnt_ptr
                                   2-5  "	modified 7/77 by S. Webber to add run_unit_depth and assign_linkage_ptr
                                   2-6  "	modified 6/83 by J. Ives to add trace_frames and in_trace.
                                   2-7
                                   2-8  " HISTORY COMMENTS:
                                   2-9  "  1) change(86-06-24,DGHowe), approve(86-06-24,MCR7396),
                                  2-10  "     audit(86-08-05,Schroth), install(86-11-03,MR12.0-1206):
                                  2-11  "     added the heap_header_ptr definition
                                  2-12  "  2) change(86-08-12,Kissel), approve(86-08-12,MCR7473),
                                  2-13  "     audit(86-10-10,Fawcett), install(86-11-03,MR12.0-1206):
                                  2-14  "     Modified to support control point management.  These changes were
                                  2-15  "     actually made in February 1985 by G. Palter.
                                  2-16  "  3) change(86-10-22,Fawcett), approve(86-10-22,MCR7473),
                                  2-17  "     audit(86-10-22,Farley), install(86-11-03,MR12.0-1206):
                                  2-18  "     Remove the old_lot pointer and replace it with cpm_data_ptr. Use the 18
                                  2-19  "     bit pad after cur_lot_size for the cpm_enabled. This was done to save
                                  2-20  "     some space int the stack header and change the cpd_ptr unal to
                                  2-21  "     cpm_data_ptr (ITS pair).
                                  2-22  "                                                      END HISTORY COMMENTS
                                  2-23
                        000004    2-24  	equ	stack_header.cpm_data_ptr,4		ptr to control point for this stack
                        000006    2-25  	equ	stack_header.combined_stat_ptr,6	ptr to separate static area
                                  2-26
                        000010    2-27  	equ	stack_header.clr_ptr,8		ptr to area containing linkage sections
                        000012    2-28  	equ	stack_header.max_lot_size,10		number of words allowed in lot (DU)
                        000012    2-29  	equ	stack_header.main_proc_invoked,10	nonzero if main proc was invoked in run unit (DL)
                        000012    2-30  	equ	stack_header.run_unit_depth,10	number of active run units stacked (DL)
                        000013    2-31  	equ	stack_header.cur_lot_size,11		DU number of words (entries) in lot
                        000013    2-32            equ	stack_header.cpm_enabled,11		DL  non-zero if control point management is enabled
                        000014    2-33  	equ	stack_header.system_free_ptr,12	ptr to system storage area
                        000016    2-34  	equ	stack_header.user_free_ptr,14		ptr to user storage area
                                  2-35
                        000020    2-36  	equ	stack_header.parent_ptr,16		ptr to parent stack or null
                        000022    2-37  	equ	stack_header.stack_begin_ptr,18	ptr to first stack frame
                        000024    2-38  	equ	stack_header.stack_end_ptr,20		ptr to next useable stack frame
                        000026    2-39  	equ	stack_header.lot_ptr,22		ptr to the lot for the current ring
                                  2-40
                        000030    2-41  	equ	stack_header.signal_ptr,24		ptr to signal proc for current ring
                        000032    2-42  	equ	stack_header.bar_mode_sp,26		value of sp before entering bar mode
                        000034    2-43  	equ	stack_header.pl1_operators_ptr,28	ptr: pl1_operators_$operator_table
                        000036    2-44  	equ	stack_header.call_op_ptr,30		ptr to standard call operator
                                  2-45
                        000040    2-46  	equ	stack_header.push_op_ptr,32		ptr to standard push operator
                        000042    2-47  	equ	stack_header.return_op_ptr,34		ptr to standard return operator
                        000044    2-48  	equ	stack_header.ret_no_pop_op_ptr,36	ptr: stand. return/ no pop operator
                        000046    2-49  	equ	stack_header.entry_op_ptr,38		ptr to standard entry operator
                                  2-50
                        000050    2-51  	equ	stack_header.trans_op_tv_ptr,40	ptr to table of translator operator ptrs
                        000052    2-52  	equ	stack_header.isot_ptr,42		pointer to ISOT
                        000054    2-53  	equ	stack_header.sct_ptr,44		pointer to System Condition Table
                        000056    2-54  	equ	stack_header.unwinder_ptr,46		pointer to unwinder for current ring
                                  2-55
                        000060    2-56  	equ	stack_header.sys_link_info_ptr,48	ptr to *system link name table
                        000062    2-57  	equ	stack_header.rnt_ptr,50		ptr to reference name table
                        000064    2-58  	equ	stack_header.ect_ptr,52		ptr to event channel table
                        000066    2-59  	equ	stack_header.assign_linkage_ptr,54	ptr to area for hcs_$assign_linkage calls
                        000070    2-60  	equ	stack_header.heap_header_ptr,56	ptr to heap header.
                        000072    2-61  	equ	stack_header.trace_frames,58		stack of trace_catch_ frames
                        000073    2-62  	equ	stach_header.trace_top_ptr,59		trace pointer
                        000074    2-63  	equ	stack_header.in_trace,60		trace antirecurse bit
                        000100    2-64  	equ	stack_header_end,64			length of stack header
                                  2-65
                                  2-66
                                  2-67
                                  2-68
                        000000    2-69  	equ	trace_frames.count,0		number of trace frames on stack
                        000001    2-70  	equ	trace_frames.top_ptr,1		packed pointer to top one
                                  2-71
                                  2-72  "	The  following constant is an offset within the  pl1  operators table.
                                  2-73  "	It  references a  transfer vector table.
                                  2-74
                        000551    2-75  	bool	tv_offset,551
                                  2-76
                                  2-77
                                  2-78  "	The  following constants are offsets within this transfer vector table.
                                  2-79
                        001170    2-80  	equ	call_offset,tv_offset+271
                        001171    2-81  	equ	push_offset,tv_offset+272
                        001172    2-82  	equ	return_offset,tv_offset+273
                        001173    2-83  	equ	return_no_pop_offset,tv_offset+274
                        001174    2-84  	equ	entry_offset,tv_offset+275
                                  2-85
                                  2-86
                                  2-87  " 	END INCLUDE FILE stack_header.incl.alm
                                 1-317
                                 1-318  " END INCLUDE FILE ... ssu_request_macros.incl.alm
                                    25
                                    26            begin_table	user_requests
                        000000          	segdef	user_requests
    000000  aa  163 162 161 164
    000001  aa  137 064 056 060
    000002  aa  165 163 145 162
    000003  aa  137 162 145 161
    000004  aa  165 145 163 164
    000005  aa  163 040 040 040
    000006  aa  040 040 040 040
    000007  aa  040 040 040 040
    000010  aa  040 040 040 040
    000011  aa  040 040 040 040
                        000006
    000012  aa   000000 000000
    000013  aa   000000 000000
    000014  aa   000000 000000
    000015  aa   000000 000000
    000016  aa   000000 000000
    000017  aa   000000 000000
    000020  aa   000000 000103
                                    27
                                    28  	request	.,
                                    29  		forum_misc_requests_$dot_request,
                                    30  		(),
                                    31  		(Print current status.)
    000021  00   000664 001506
    000022  0a   005674 000025
    000023  aa   400000 000000
                                    32
                                    33            request   goto,
                                    34                      forum_requests_$goto_request,
                                    35                      (g,go),
                                    36                      (Enter a meeting.),
                                    37                      flags.allow_command
    000024  00   000667 001517
    000025  0a   005702 000020
    000026  aa   400000 000000
                                    38
                                    39            request   list,
                                    40                      forum_output_requests_$list_transactions,
                                    41                      (ls),
                                    42                      (List the specified transactions.),
                                    43  		flags.allow_both
    000027  00   000672 001550
    000030  0a   005706 000040
    000031  aa   600000 000000
                                    44
                                    45            request   print,
                                    46                      forum_output_requests_$print_transactions,
                                    47                      (p,pr),
                                    48                      (Print the specified transactions.),
                                    49                      flags.allow_command
    000032  00   000675 001571
    000033  0a   005716 000041
    000034  aa   400000 000000
                                    50
                                    51            request   quit,
                                    52                      forum_requests_$quit_request,
                                    53                      (q),
                                    54                      (Exit forum.)
    000035  00   000700 001622
    000036  0a   005727 000013
    000037  aa   400000 000000
                                    55
                                    56  	request	add_meeting,
                                    57  		forum_add_meeting$add_meeting,
                                    58  		(am),
                                    59  		(Add meetings to the "forum" search path.)
    000040  00   000703 001643
    000041  0a   005732 000050
    000042  aa   400000 000000
                                    60
                                    61  	request	announce_meeting,
                                    62  		forum_create$announce_meeting,
                                    63  		(anm),
                                    64  		(Place an announcement of this meeting in another meeting.)
    000043  00   000706 001664
    000044  0a   005744 000071
    000045  aa   400000 000000
                                    65
                                    66  	request	announcement_info,
                                    67  		forum_add_meeting$announcement_info,
                                    68  		(ai),
                                    69  		(Extract information from a meeting announcement.),
                                    70  		flags.allow_both
    000046  00   000711 001705
    000047  0a   005763 000060
    000050  aa   600000 000000
                                    71
                                    72  	request	apply,
                                    73  		forum_input_requests_$apply_request,
                                    74  		(ap),
                                    75  		(Apply a Multics command to the unprocessed transaction.)
    000051  00   000714 001726
    000052  0a   005777 000067
    000053  aa   400000 000000
                                    76
                                    77  	request	chairman,
                                    78  		forum_misc_requests_$chairman_request,
                                    79  		(cm),
                                    80                      (Print/return the name of the chairman of the meeting.),
                                    81  		flags.allow_both
    000054  00   000717 001747
    000055  0a   006015 000065
    000056  aa   600000 000000
                                    82
                                    83  	request	check_meetings,
                                    84  		forum_list_meetings$check_meetings,
                                    85  		(ckm),
                                    86  		(Builds a list of changed meetings.)
    000057  00   000722 001770
    000060  0a   006033 000042
    000061  aa   400000 000000
                                    87
                                    88            request   current_meeting,
                                    89                      forum_misc_requests_$current_meeting,
                                    90                      (cmtg),
                                    91                      (Print/return the name of the current meeting.),
                                    92  		flags.allow_both
    000062  00   000725 002011
    000063  0a   006044 000055
    000064  aa   600000 000000
                                    93
                                    94            request   delete,
                                    95                      forum_output_requests_$delete_transactions,
                                    96                      (dl,d),
                                    97                      (Delete specified transactions entered by you.),
                                    98
    000065  00   000730 002032
    000066  0a   006060 000055
    000067  aa   400000 000000
                                    99            request   delete_participant,
                                   100                      forum_misc_requests_$delete_participant,
                                   101                      (dlpt),
                                   102                      (Delete the specified participants.),
                                   103                      flags.allow_command+flags.dont_summarize+flags.dont_list
    000070  00   000733 002063
    000071  0a   006074 000042
    000072  aa   430000 000000
                                   104
                                   105  	request	enter,
                                   106  		forum_input_requests_$enter_request,
                                   107  		(en,send),
                                   108  		(Enter the unprocessed transaction.)
    000073  00   000736 002104
    000074  0a   006105 000042
    000075  aa   400000 000000
                                   109
                                   110  	request	expunge,
                                   111  		forum_misc_requests_$expunge,
                                   112  		(),
                                   113  		(Physically remove deleted participants and transactions.),
                                   114  		flags.allow_command+flags.dont_list+flags.dont_summarize
    000076  00   000741 002135
    000077  0a   006116 000070
    000100  aa   430000 000000
                                   115
                                   116  	request	fill,
                                   117  		forum_input_requests_$fill_request,
                                   118  		(fi),
                                   119  		(Format unprocessed tranaction to fit in a given width.)
    000101  00   000744 002146
    000102  0a   006134 000066
    000103  aa   400000 000000
                                   120
                                   121  	request	forum_dir,
                                   122  		forum_misc_requests_$forum_dir_request,
                                   123  		(fd),
                                   124  		(Print/return pathname of central forum directory.),
                                   125  		flags.allow_both
    000104  00   000747 002167
    000105  0a   006152 000061
    000106  aa   600000 000000
                                   126
                                   127  	request	list_meetings,
                                   128  		forum_list_meetings$forum_list_request,
                                   129  		(lsm),
                                   130  		(Print information about meetings.),
                                   131  		flags.allow_both
    000107  00   000752 002210
    000110  0a   006167 000041
    000111  aa   600000 000000
                                   132
                                   133  	request	list_users,
                                   134  		forum_list_users$list_users_request,
                                   135  		(lsu),
                                   136  		(Print information about meeting participants.),
                                   137  		flags.allow_both
    000112  00   000755 002231
    000113  0a   006200 000055
    000114  aa   600000 000000
                                   138
                                   139  	request	mail,
                                   140  		forum_mailer_$mail,
                                   141  		(),
                                   142  		(Mail specified transactions.)
    000115  00   000760 002252
    000116  0a   006214 000034
    000117  aa   400000 000000
                                   143
                                   144  	request	next_meeting,
                                   145  		forum_list_meetings$next_meeting,
                                   146  		(nm),
                                   147  		(Goto the next meeting in the changed meetings list.),
                                   148  		flags.allow_both
    000120  00   000763 002263
    000121  0a   006223 000063
    000122  aa   600000 000000
                                   149
                                   150  	request	qedx,
                                   151  		forum_input_requests_$qedx_request,
                                   152  		(qx),
                                   153  		(Edit the unprocessed transaction.)
    000123  00   000766 002304
    000124  0a   006240 000041
    000125  aa   400000 000000
                                   154
                                   155  	request	rechain,
                                   156  		forum_misc_requests_$rechain,
                                   157  		(),
                                   158  		(Move a transaction to another chain.),
                                   159  		flags.allow_command+flags.dont_list+flags.dont_summarize
    000126  00   000771 002325
    000127  0a   006251 000044
    000130  aa   430000 000000
                                   160
                                   161  	request	remove_meeting,
                                   162  		forum_add_meeting$remove_meeting,
                                   163  		(rm),
                                   164  		(Remove a meeting from the "forum" search path.)
    000131  00   000774 002336
    000132  0a   006262 000056
    000133  aa   400000 000000
                                   165
                                   166  	request	reply,
                                   167  		forum_input_requests_$reply_request,
                                   168  		(rp),
                                   169  		(Enter a reply to the specified transaction.)
    000134  00   000777 002357
    000135  0a   006276 000053
    000136  aa   400000 000000
                                   170
                                   171            request   reset,
                                   172                      forum_output_requests_$reset_transaction,
                                   173                      (rs),
                                   174  		(Change current or highest seen transaction indices.)
    000137  00   001002 002400
    000140  0a   006311 000063
    000141  aa   400000 000000
                                   175
                                   176            request   retrieve,
                                   177                      forum_output_requests_$retrieve_transactions,
                                   178                      (rt),
                                   179  		(Retrieve transactions deleted by you.),
                                   180
    000142  00   001005 002421
    000143  0a   006326 000045
    000144  aa   400000 000000
                                   181  	request	retrieve_participants,
                                   182  		forum_misc_requests_$retrieve_participant,
                                   183  		(rtpt),
                                   184  		(Retrieve deleted participants.),
                                   185  	          flags.allow_command+flags.dont_summarize+flags.dont_list
    000145  00   001010 002442
    000146  0a   006340 000036
    000147  aa   430000 000000
                                   186
                                   187  	request	set_message,
                                   188  		forum_input_requests_$set_message,
                                   189  		(),
                                   190  		(Set a greeting message for the meeting.),
                                   191  	          flags.allow_command+flags.dont_summarize+flags.dont_list
    000150  00   001013 002463
    000151  0a   006350 000047
    000152  aa   430000 000000
                                   192
                                   193  	request	subject,
                                   194  		forum_input_requests_$subject_request,
                                   195  		(sj),
                                   196  		(Print/modify/return subject of unprocessed transaction.),
                                   197  		flags.allow_both
    000153  00   001016 002474
    000154  0a   006362 000067
    000155  aa   600000 000000
                                   198
                                   199  	request	switch_off,
                                   200  		forum_misc_requests_$switch_off,
                                   201  		(swf),
                                   202  		(Resets various switches.),
                                   203
    000156  00   001021 002515
    000157  0a   006400 000030
    000160  aa   400000 000000
                                   204  	request	switch_on,
                                   205  		forum_misc_requests_$switch_on,
                                   206  		(swn),
                                   207  		(Sets various switches.),
                                   208
    000161  00   001024 002536
    000162  0a   006406 000026
    000163  aa   400000 000000
                                   209  	request	talk,
                                   210  		forum_input_requests_$talk_request,
                                   211  		(t),
                                   212  		(Enter a new transaction.)
    000164  00   001027 002557
    000165  0a   006414 000030
    000166  aa   400000 000000
                                   213
                                   214  	request	ted,
                                   215  		forum_input_requests_$ted_request,
                                   216  		(),
                                   217  		(Invoke ted to edit the unprocessed transaction.)
    000167  00   001032 002600
    000170  0a   006422 000057
    000171  aa   400000 000000
                                   218
                                   219  	request	unchain,
                                   220  		forum_misc_requests_$unchain,
                                   221  		(),
                                   222  		(Remove a transaction from its chain.),
                                   223  		flags.allow_command+flags.dont_list+flags.dont_summarize
    000172  00   001035 002611
    000173  0a   006436 000044
    000174  aa   430000 000000
                                   224
                                   225            request   write,
                                   226                      forum_output_requests_$write_transactions,
                                   227                      (w),
                                   228                      (Write the specified transactions to a segment.)
    000175  00   001040 002622
    000176  0a   006447 000056
    000177  aa   400000 000000
                                   229
                                   230  	request	add_participant,
                                   231  		forum_add_participant$add_participant,
                                   232  		(apt),
                                   233  		(Allow a user to participate in the meeting.),
                                   234  		flags.allow_command+flags.dont_list+flags.dont_summarize
    000200  00   001043 002643
    000201  0a   006463 000053
    000202  aa   430000 000000
                                   235
                                   236  	request	add_project,
                                   237  		forum_add_participant$add_project,
                                   238  		(apj),
                                   239  		(Allow all users on a project to participate in the meeting.),
                                   240  		flags.allow_command+flags.dont_list+flags.dont_summarize
    000203  00   001046 002664
    000204  0a   006476 000073
    000205  aa   430000 000000
                                   241
                                   242  	request	remove_participant,
                                   243  		forum_add_participant$remove_participant,
                                   244  		(rpt),
                                   245  		(Restrict a user from participating in the meeting.),
                                   246  		flags.allow_command+flags.dont_list+flags.dont_summarize
    000206  00   001051 002705
    000207  0a   006515 000062
    000210  aa   430000 000000
                                   247
                                   248  	request	remove_project,
                                   249  		forum_add_participant$remove_project,
                                   250  		(rpj),
                                   251  		(Restrict a project from participating in the meeting.),
                                   252  		flags.allow_command+flags.dont_list+flags.dont_summarize
    000211  00   001054 002726
    000212  0a   006532 000065
    000213  aa   430000 000000
                                   253
                                   254  	request	make_public,
                                   255  		forum_add_participant$make_public,
                                   256  		(mp),
                                   257  		(Allow all users to participate in the meeting.),
                                   258  		flags.allow_command+flags.dont_list+flags.dont_summarize
    000214  00   001057 002747
    000215  0a   006550 000056
    000216  aa   430000 000000
                                   259
                                   260  	request	unmake_public,
                                   261  		forum_add_participant$unmake_public,
                                   262  		(ump),
                                   263  		(Restrict the meeting to specified users only.),
                                   264  		flags.allow_command+flags.dont_list+flags.dont_summarize
    000217  00   001062 002770
    000220  0a   006564 000055
    000221  aa   430000 000000
                                   265
                                   266            request   first,
                                   267                      forum_trans_specs_$first_request,
                                   268                      (f),
                                   269                      (Print/return the index of the first transaction.),
                                   270                      flags.allow_both+flags.dont_list+flags.dont_summarize
    000222  00   001065 003011
    000223  0a   006600 000060
    000224  aa   630000 000000
                                   271
                                   272            request   last,
                                   273                      forum_trans_specs_$last_request,
                                   274                      (l),
                                   275                      (Print/return the index of the last transaction.),
                                   276                      flags.allow_both+flags.dont_list+flags.dont_summarize
    000225  00   001070 003032
    000226  0a   006614 000057
    000227  aa   630000 000000
                                   277
                                   278            request   previous,
                                   279                      forum_trans_specs_$previous_request,
                                   280                      (prev,prior),
                                   281                      (Print/return the index of the previous transaction.),
                                   282                      flags.allow_both+flags.dont_list+flags.dont_summarize
    000230  00   001073 003053
    000231  0a   006630 000063
    000232  aa   630000 000000
                                   283
                                   284            request   next,
                                   285                      forum_trans_specs_$next_request,
                                   286                      (),
                                   287                      (Print/return the index of the next transaction.),
                                   288                      flags.allow_both+flags.dont_list+flags.dont_summarize
    000233  00   001076 003104
    000234  0a   006645 000057
    000235  aa   630000 000000
                                   289
                                   290            request   current,
                                   291                      forum_trans_specs_$current_request,
                                   292                      (c),
                                   293                      (Print/return the index of the current transaction.),
                                   294                      flags.allow_both+flags.dont_list+flags.dont_summarize
    000236  00   001101 003115
    000237  0a   006661 000062
    000240  aa   630000 000000
                                   295
                                   296            request   firstref,
                                   297                      forum_trans_specs_$fref_request,
                                   298                      (fref),
                                   299                      (Print/return the index of the first transaction in the current chain.),
                                   300                      flags.allow_both+flags.dont_list+flags.dont_summarize
    000241  00   001104 003136
    000242  0a   006676 000105
    000243  aa   630000 000000
                                   301
                                   302            request   lastref,
                                   303                      forum_trans_specs_$lref_request,
                                   304                      (lref),
                                   305                      (Print/return the index of the last transaction in the current chain.),
                                   306                      flags.allow_both+flags.dont_list+flags.dont_summarize
    000244  00   001107 003157
    000245  0a   006720 000104
    000246  aa   630000 000000
                                   307
                                   308            request   previousref,
                                   309                      forum_trans_specs_$pref_request,
                                   310                      (priorref,pref),
                                   311                      (Print/return the index of the previous transaction in the current chain.),
                                   312                      flags.allow_both+flags.dont_list+flags.dont_summarize
    000247  00   001112 003200
    000250  0a   006741 000110
    000251  aa   630000 000000
                                   313
                                   314            request   nextref,
                                   315                      forum_trans_specs_$nref_request,
                                   316                      (nref),
                                   317                      (Print/return the index of the next transaction in the current chain.),
                                   318                      flags.allow_both+flags.dont_list+flags.dont_summarize
    000252  00   001115 003231
    000253  0a   006763 000104
    000254  aa   630000 000000
                                   319
                                   320            request   all,
                                   321                      forum_trans_specs_$all_request,
                                   322                      (),
                                   323                      (Print/return the index of all transactions.),
                                   324                      flags.allow_both+flags.dont_list+flags.dont_summarize
    000255  00   001120 003252
    000256  0a   007004 000053
    000257  aa   630000 000000
                                   325
                                   326            request   new,
                                   327                      forum_trans_specs_$new_request,
                                   328                      (),
                                   329                      (Print/return the indices of all new transactions.),
                                   330                      flags.allow_both+flags.dont_list+flags.dont_summarize
    000260  00   001123 003263
    000261  0a   007017 000061
    000262  aa   630000 000000
                                   331
                                   332            request   allref,
                                   333                      forum_trans_specs_$aref_request,
                                   334                      (aref),
                                   335                      (Print/return the indices of all transactions in the current chain.),
                                   336                      flags.allow_both+flags.dont_list+flags.dont_summarize
    000263  00   001126 003274
    000264  0a   007034 000102
    000265  aa   630000 000000
                                   337
                                   338  	request	restref,
                                   339  		forum_trans_specs_$rref_request,
                                   340  		(rref),
                                   341  		(Print/return the indices of the rest of the transactions in the current chain.),
                                   342  		flags.allow_both+flags.dont_list+flags.dont_summarize
    000266  00   001131 003315
    000267  0a   007055 000116
    000270  aa   630000 000000
                                   343
                                   344  	request	beforeref,
                                   345  		forum_trans_specs_$bref_request,
                                   346  		(bref),
                                   347  		(Print/return the indices of all previous transactions in the current chain.),
                                   348  		flags.allow_both+flags.dont_list+flags.dont_summarize
    000271  00   001134 003336
    000272  0a   007101 000113
    000273  aa   630000 000000
                                   349
                                   350  	request	seen,
                                   351  		forum_trans_specs_$seen_request,
                                   352  		(),
                                   353  		(Print/return the indices of all seen transactions.),
                                   354  		flags.allow_both+flags.dont_list+flags.dont_summarize
    000274  00   001137 003357
    000275  0a   007124 000062
    000276  aa   630000 000000
                                   355
                                   356  	request	first_seen,
                                   357  		forum_trans_specs_$first_seen_request,
                                   358  		(fs),
                                   359  		(Print/return the index of the first seen transaction.),
                                   360  		flags.allow_both+flags.dont_list+flags.dont_summarize
    000277  00   001142 003370
    000300  0a   007141 000065
    000301  aa   630000 000000
                                   361
                                   362  	request	next_seen,
                                   363  		forum_trans_specs_$next_seen_request,
                                   364  		(ns),
                                   365  		(Print/return the index of the next seen transaction.),
                                   366  		flags.allow_both+flags.dont_list+flags.dont_summarize
    000302  00   001145 003411
    000303  0a   007157 000064
    000304  aa   630000 000000
                                   367
                                   368  	request	previous_seen,
                                   369  		forum_trans_specs_$prev_seen_request,
                                   370  		(ps),
                                   371  		(Print/return the index of the transactions.),
                                   372  		flags.allow_both+flags.dont_list+flags.dont_summarize
    000305  00   001150 003432
    000306  0a   007174 000053
    000307  aa   630000 000000
                                   373
                                   374  	request	last_seen,
                                   375  		forum_trans_specs_$last_seen_request,
                                   376  		(),
                                   377  		(Print/return the index of the highest seen transaction.),
                                   378                      flags.allow_both+flags.dont_list+flags.dont_summarize
    000310  00   001153 003453
    000311  0a   007207 000067
    000312  aa   630000 000000
                                   379
                                   380  	request	unseen,
                                   381  		forum_trans_specs_$unseen_request,
                                   382  		(),
                                   383  		(Print/return the indices of all unseen transactions.),
                                   384  		flags.allow_both+flags.dont_list+flags.dont_summarize
    000313  00   001156 003464
    000314  0a   007225 000064
    000315  aa   630000 000000
                                   385
                                   386  	request	first_unseen,
                                   387  		forum_trans_specs_$first_unseen_request,
                                   388  		(fu),
                                   389  		(Print/return the index of the first unseen transaction.),
                                   390  		flags.allow_both+flags.dont_list+flags.dont_summarize
    000316  00   001161 003475
    000317  0a   007242 000067
    000320  aa   630000 000000
                                   391
                                   392  	request	next_unseen,
                                   393  		forum_trans_specs_$next_unseen_request,
                                   394  		(nu),
                                   395  		(Print/return the index of the next unseen transaction.),
                                   396  		flags.allow_both+flags.dont_list+flags.dont_summarize
    000321  00   001164 003516
    000322  0a   007260 000066
    000323  aa   630000 000000
                                   397
                                   398  	request	previous_unseen,
                                   399  		forum_trans_specs_$prev_unseen_request,
                                   400  		(pu),
                                   401  		(Print/return the index of the previous unseen transaction.),
                                   402  		flags.allow_both+flags.dont_list+flags.dont_summarize
    000324  00   001167 003537
    000325  0a   007276 000072
    000326  aa   630000 000000
                                   403
                                   404  	request	last_unseen,
                                   405  		forum_trans_specs_$last_unseen_request,
                                   406  		(lu),
                                   407  		(Print/return the index of the last unseen transaction.),
                                   408  		flags.allow_both+flags.dont_list+flags.dont_summarize
    000327  00   001172 003560
    000330  0a   007315 000066
    000331  aa   630000 000000
                                   409
                                   410  "	unknown_request	debug_mode
                                   411
                                   412            end_table		user_requests
                                   413  
                                   414            begin_table	chairman_requests
                        000332          	segdef	chairman_requests
    000332  aa  163 162 161 164
    000333  aa  137 064 056 060
    000334  aa  143 150 141 151
    000335  aa  162 155 141 156
    000336  aa  137 162 145 161
    000337  aa  165 145 163 164
    000340  aa  163 040 040 040
    000341  aa  040 040 040 040
    000342  aa  040 040 040 040
    000343  aa  040 040 040 040
                        000006
    000344  aa   000000 000000
    000345  aa   000000 000000
    000346  aa   000000 000000
    000347  aa   000000 000000
    000350  aa   000000 000000
    000351  aa   000000 000000
    000352  aa   000000 000103
                                   415
                                   416  	request	.,
                                   417  		forum_misc_requests_$dot_request,
                                   418  		(),
                                   419  		(Print current status.)
    000353  00   001175 003601
    000354  0a   007333 000025
    000355  aa   400000 000000
                                   420
                                   421            request   goto,
                                   422                      forum_requests_$goto_request,
                                   423                      (g,go),
                                   424                      (Enter a meeting.),
                                   425                      flags.allow_command
    000356  00   001200 003612
    000357  0a   007341 000020
    000360  aa   400000 000000
                                   426
                                   427            request   list,
                                   428                      forum_output_requests_$list_transactions,
                                   429                      (ls),
                                   430                      (List the specified transactions.),
                                   431  		flags.allow_both
    000361  00   001203 003643
    000362  0a   007345 000040
    000363  aa   600000 000000
                                   432
                                   433            request   print,
                                   434                      forum_output_requests_$print_transactions,
                                   435                      (p,pr),
                                   436                      (Print the specified transactions.)
    000364  00   001206 003664
    000365  0a   007355 000041
    000366  aa   400000 000000
                                   437
                                   438            request   quit,
                                   439                      forum_requests_$quit_request,
                                   440                      (q),
                                   441                      (Exit forum.)
    000367  00   001211 003715
    000370  0a   007366 000013
    000371  aa   400000 000000
                                   442
                                   443  	request	add_meeting,
                                   444  		forum_add_meeting$add_meeting,
                                   445  		(am),
                                   446  		(Add meetings to the "forum" search path.)
    000372  00   001214 003736
    000373  0a   007371 000050
    000374  aa   400000 000000
                                   447
                                   448  	request	announce_meeting,
                                   449  		forum_create$announce_meeting,
                                   450  		(anm),
                                   451  		(Place an announcement of this meeting in another meeting.)
    000375  00   001217 003757
    000376  0a   007403 000071
    000377  aa   400000 000000
                                   452
                                   453  	request	announcement_info,
                                   454  		forum_add_meeting$announcement_info,
                                   455  		(ai),
                                   456  		(Extract information from a meeting announcement.),
                                   457  		flags.allow_both
    000400  00   001222 004000
    000401  0a   007422 000060
    000402  aa   600000 000000
                                   458
                                   459  	request	apply,
                                   460  		forum_input_requests_$apply_request,
                                   461  		(ap),
                                   462  		(Apply a Multics command to the unprocessed transaction.)
    000403  00   001225 004021
    000404  0a   007436 000067
    000405  aa   400000 000000
                                   463
                                   464  	request	chairman,
                                   465  		forum_misc_requests_$chairman_request,
                                   466  		(cm),
                                   467                      (Print/return the name of the chairman of the meeting.),
                                   468  		flags.allow_both
    000406  00   001230 004042
    000407  0a   007454 000065
    000410  aa   600000 000000
                                   469
                                   470  	request	check_meetings,
                                   471  		forum_list_meetings$check_meetings,
                                   472  		(ckm),
                                   473  		(Builds a list of changed meetings.)
    000411  00   001233 004063
    000412  0a   007472 000042
    000413  aa   400000 000000
                                   474
                                   475            request   current_meeting,
                                   476                      forum_misc_requests_$current_meeting,
                                   477                      (cmtg),
                                   478                      (Print/return the name of the current meeting.),
                                   479  		flags.allow_both
    000414  00   001236 004104
    000415  0a   007503 000055
    000416  aa   600000 000000
                                   480
                                   481            request   delete,
                                   482                      forum_output_requests_$delete_transactions,
                                   483                      (dl,d),
                                   484                      (Delete the specified transactions.)
    000417  00   001241 004125
    000420  0a   007517 000042
    000421  aa   400000 000000
                                   485
                                   486            request   delete_participant,
                                   487                      forum_misc_requests_$delete_participant,
                                   488                      (dlpt),
                                   489                      (Delete the specified participants.)
    000422  00   001244 004156
    000423  0a   007530 000042
    000424  aa   400000 000000
                                   490
                                   491  	request	enter,
                                   492  		forum_input_requests_$enter_request,
                                   493  		(en,send),
                                   494  		(Enter the unprocessed transaction.)
    000425  00   001247 004177
    000426  0a   007541 000042
    000427  aa   400000 000000
                                   495
                                   496  	request	expunge,
                                   497  		forum_misc_requests_$expunge,
                                   498  		(),
                                   499  		(Physically remove deleted participants and transactions.)
    000430  00   001252 004230
    000431  0a   007552 000070
    000432  aa   400000 000000
                                   500
                                   501  	request	fill,
                                   502  		forum_input_requests_$fill_request,
                                   503  		(fi),
                                   504  		(Format unprocessed tranaction to fit in a given width.)
    000433  00   001255 004241
    000434  0a   007570 000066
    000435  aa   400000 000000
                                   505
                                   506  	request	forum_dir,
                                   507  		forum_misc_requests_$forum_dir_request,
                                   508  		(fd),
                                   509  		(Print/return pathname of central forum directory.),
                                   510  		flags.allow_both
    000436  00   001260 004262
    000437  0a   007606 000061
    000440  aa   600000 000000
                                   511
                                   512  	request	list_meetings,
                                   513  		forum_list_meetings$forum_list_request,
                                   514  		(lsm),
                                   515  		(Print information about meetings.),
                                   516  		flags.allow_both
    000441  00   001263 004303
    000442  0a   007623 000041
    000443  aa   600000 000000
                                   517
                                   518  	request	list_users,
                                   519  		forum_list_users$list_users_request,
                                   520  		(lsu),
                                   521  		(Print information about meeting participants.),
                                   522  		flags.allow_both
    000444  00   001266 004324
    000445  0a   007634 000055
    000446  aa   600000 000000
                                   523
                                   524  	request	mail,
                                   525  		forum_mailer_$mail,
                                   526  		(),
                                   527  		(Mail specified transactions.)
    000447  00   001271 004345
    000450  0a   007650 000034
    000451  aa   400000 000000
                                   528
                                   529  	request	next_meeting,
                                   530  		forum_list_meetings$next_meeting,
                                   531  		(nm),
                                   532  		(Goto the next meeting in the changed meetings list.),
                                   533  		flags.allow_both
    000452  00   001274 004356
    000453  0a   007657 000063
    000454  aa   600000 000000
                                   534
                                   535  	request	qedx,
                                   536  		forum_input_requests_$qedx_request,
                                   537  		(qx),
                                   538  		(Edit the unprocessed transaction.)
    000455  00   001277 004377
    000456  0a   007674 000041
    000457  aa   400000 000000
                                   539
                                   540  	request	rechain,
                                   541  		forum_misc_requests_$rechain,
                                   542  		(),
                                   543  		(Move a transaction to another chain.)
    000460  00   001302 004420
    000461  0a   007705 000044
    000462  aa   400000 000000
                                   544
                                   545  	request	remove_meeting,
                                   546  		forum_add_meeting$remove_meeting,
                                   547  		(rm),
                                   548  		(Remove a meeting from the "forum" search path.)
    000463  00   001305 004431
    000464  0a   007716 000056
    000465  aa   400000 000000
                                   549
                                   550  	request	reply,
                                   551  		forum_input_requests_$reply_request,
                                   552  		(rp),
                                   553  		(Enter a reply to the specified transaction.)
    000466  00   001310 004452
    000467  0a   007732 000053
    000470  aa   400000 000000
                                   554
                                   555            request   reset,
                                   556                      forum_output_requests_$reset_transaction,
                                   557                      (rs),
                                   558  		(Change current or highest seen transaction indices.)
    000471  00   001313 004473
    000472  0a   007745 000063
    000473  aa   400000 000000
                                   559
                                   560            request   retrieve,
                                   561                      forum_output_requests_$retrieve_transactions,
                                   562                      (rt),
                                   563  		(Retrieve specified deleted transactions.)
    000474  00   001316 004514
    000475  0a   007762 000050
    000476  aa   400000 000000
                                   564
                                   565  	request	retrieve_participants,
                                   566  		forum_misc_requests_$retrieve_participant,
                                   567  		(rtpt),
                                   568  		(Retrieve deleted participants.)
    000477  00   001321 004535
    000500  0a   007774 000036
    000501  aa   400000 000000
                                   569
                                   570  	request	set_message,
                                   571  		forum_input_requests_$set_message,
                                   572  		(),
                                   573  		(Set a greeting message for the meeting.)
    000502  00   001324 004556
    000503  0a   010004 000047
    000504  aa   400000 000000
                                   574
                                   575  	request	subject,
                                   576  		forum_input_requests_$subject_request,
                                   577  		(sj),
                                   578  		(Print/modify/return subject of unprocessed transaction.),
                                   579  		flags.allow_both
    000505  00   001327 004567
    000506  0a   010016 000067
    000507  aa   600000 000000
                                   580
                                   581  	request	switch_off,
                                   582  		forum_misc_requests_$switch_off,
                                   583  		(swf),
                                   584  		(Resets various switches.),
                                   585
    000510  00   001332 004610
    000511  0a   010034 000030
    000512  aa   400000 000000
                                   586  	request	switch_on,
                                   587  		forum_misc_requests_$switch_on,
                                   588  		(swn),
                                   589  		(Sets various switches.),
                                   590
    000513  00   001335 004631
    000514  0a   010042 000026
    000515  aa   400000 000000
                                   591  	request	talk,
                                   592  		forum_input_requests_$talk_request,
                                   593  		(t),
                                   594  		(Enter a new transaction.),
                                   595
    000516  00   001340 004652
    000517  0a   010050 000030
    000520  aa   400000 000000
                                   596  	request	ted,
                                   597  		forum_input_requests_$ted_request,
                                   598  		(),
                                   599  		(Invoke ted to edit the unprocessed transaction.)
    000521  00   001343 004673
    000522  0a   010056 000057
    000523  aa   400000 000000
                                   600
                                   601  	request	unchain,
                                   602  		forum_misc_requests_$unchain,
                                   603  		(),
                                   604  		(Remove a transaction from its chain.)
    000524  00   001346 004704
    000525  0a   010072 000044
    000526  aa   400000 000000
                                   605
                                   606            request   write,
                                   607                      forum_output_requests_$write_transactions,
                                   608                      (w),
                                   609                      (Write the specified transactions to a segment.)
    000527  00   001351 004715
    000530  0a   010103 000056
    000531  aa   400000 000000
                                   610
                                   611  	request	add_participant,
                                   612  		forum_add_participant$add_participant,
                                   613  		(apt),
                                   614  		(Allow a user to participate in the meeting.),
                                   615  		flags.allow_command
    000532  00   001354 004736
    000533  0a   010117 000053
    000534  aa   400000 000000
                                   616
                                   617  	request	add_project,
                                   618  		forum_add_participant$add_project,
                                   619  		(apj),
                                   620  		(Allow all users on a project to participate in the meeting.),
                                   621  		flags.allow_command
    000535  00   001357 004757
    000536  0a   010132 000073
    000537  aa   400000 000000
                                   622
                                   623  	request	remove_participant,
                                   624  		forum_add_participant$remove_participant,
                                   625  		(rpt),
                                   626  		(Restrict a user from participating in the meeting.),
                                   627  		flags.allow_command
    000540  00   001362 005000
    000541  0a   010151 000062
    000542  aa   400000 000000
                                   628
                                   629  	request	remove_project,
                                   630  		forum_add_participant$remove_project,
                                   631  		(rpj),
                                   632  		(Restrict a project from participating in the meeting.),
                                   633  		flags.allow_command
    000543  00   001365 005021
    000544  0a   010166 000065
    000545  aa   400000 000000
                                   634
                                   635  	request	make_public,
                                   636  		forum_add_participant$make_public,
                                   637  		(mp),
                                   638  		(Allow all users to participate in the meeting.),
                                   639  		flags.allow_command
    000546  00   001370 005042
    000547  0a   010204 000056
    000550  aa   400000 000000
                                   640
                                   641  	request	unmake_public,
                                   642  		forum_add_participant$unmake_public,
                                   643  		(ump),
                                   644  		(Restrict the meeting to specified users only.),
                                   645  		flags.allow_command
    000551  00   001373 005063
    000552  0a   010220 000055
    000553  aa   400000 000000
                                   646
                                   647            request   first,
                                   648                      forum_trans_specs_$first_request,
                                   649                      (f),
                                   650                      (Print/return the index of the first transaction.),
                                   651                      flags.allow_both+flags.dont_list+flags.dont_summarize
    000554  00   001376 005104
    000555  0a   010234 000060
    000556  aa   630000 000000
                                   652
                                   653            request   last,
                                   654                      forum_trans_specs_$last_request,
                                   655                      (l),
                                   656                      (Print/return the index of the last transaction.),
                                   657                      flags.allow_both+flags.dont_list+flags.dont_summarize
    000557  00   001401 005125
    000560  0a   010250 000057
    000561  aa   630000 000000
                                   658
                                   659            request   previous,
                                   660                      forum_trans_specs_$previous_request,
                                   661                      (prev,prior),
                                   662                      (Print/return the index of the previous transaction.),
                                   663                      flags.allow_both+flags.dont_list+flags.dont_summarize
    000562  00   001404 005146
    000563  0a   010264 000063
    000564  aa   630000 000000
                                   664
                                   665            request   next,
                                   666                      forum_trans_specs_$next_request,
                                   667                      (),
                                   668                      (Print/return the index of the next transaction.),
                                   669                      flags.allow_both+flags.dont_list+flags.dont_summarize
    000565  00   001407 005177
    000566  0a   010301 000057
    000567  aa   630000 000000
                                   670
                                   671            request   current,
                                   672                      forum_trans_specs_$current_request,
                                   673                      (c),
                                   674                      (Print/return the index of the current transaction.),
                                   675                      flags.allow_both+flags.dont_list+flags.dont_summarize
    000570  00   001412 005210
    000571  0a   010315 000062
    000572  aa   630000 000000
                                   676
                                   677            request   firstref,
                                   678                      forum_trans_specs_$fref_request,
                                   679                      (fref),
                                   680                      (Print/return the index of the first transaction in the current chain.),
                                   681                      flags.allow_both+flags.dont_list+flags.dont_summarize
    000573  00   001415 005231
    000574  0a   010332 000105
    000575  aa   630000 000000
                                   682
                                   683            request   lastref,
                                   684                      forum_trans_specs_$lref_request,
                                   685                      (lref),
                                   686                      (Print/return the index of the last transaction in the current chain.),
                                   687                      flags.allow_both+flags.dont_list+flags.dont_summarize
    000576  00   001420 005252
    000577  0a   010354 000104
    000600  aa   630000 000000
                                   688
                                   689            request   previousref,
                                   690                      forum_trans_specs_$pref_request,
                                   691                      (priorref,pref),
                                   692                      (Print/return the index of the previous transaction in the current chain.),
                                   693                      flags.allow_both+flags.dont_list+flags.dont_summarize
    000601  00   001423 005273
    000602  0a   010375 000110
    000603  aa   630000 000000
                                   694
                                   695            request   nextref,
                                   696                      forum_trans_specs_$nref_request,
                                   697                      (nref),
                                   698                      (Print/return the index of the next transaction in the current chain.),
                                   699                      flags.allow_both+flags.dont_list+flags.dont_summarize
    000604  00   001426 005324
    000605  0a   010417 000104
    000606  aa   630000 000000
                                   700
                                   701            request   all,
                                   702                      forum_trans_specs_$all_request,
                                   703                      (),
                                   704                      (Print/return the index of all transactions.),
                                   705                      flags.allow_both+flags.dont_list+flags.dont_summarize
    000607  00   001431 005345
    000610  0a   010440 000053
    000611  aa   630000 000000
                                   706
                                   707            request   new,
                                   708                      forum_trans_specs_$new_request,
                                   709                      (),
                                   710                      (Print/return the indices of all new transactions.),
                                   711                      flags.allow_both+flags.dont_list+flags.dont_summarize
    000612  00   001434 005356
    000613  0a   010453 000061
    000614  aa   630000 000000
                                   712
                                   713            request   allref,
                                   714                      forum_trans_specs_$aref_request,
                                   715                      (aref),
                                   716                      (Print/return the indices of all transactions in the current chain.),
                                   717                      flags.allow_both+flags.dont_list+flags.dont_summarize
    000615  00   001437 005367
    000616  0a   010470 000102
    000617  aa   630000 000000
                                   718
                                   719  	request	restref,
                                   720  		forum_trans_specs_$rref_request,
                                   721  		(rref),
                                   722  		(Print/return the indices of the rest of the transactions in the current chain.),
                                   723  		flags.allow_both+flags.dont_list+flags.dont_summarize
    000620  00   001442 005410
    000621  0a   010511 000116
    000622  aa   630000 000000
                                   724
                                   725  	request	beforeref,
                                   726  		forum_trans_specs_$bref_request,
                                   727  		(bref),
                                   728  		(Print/return the indices of all previous transactions in the current chain.),
                                   729  		flags.allow_both+flags.dont_list+flags.dont_summarize
    000623  00   001445 005431
    000624  0a   010535 000113
    000625  aa   630000 000000
                                   730
                                   731  	request	seen,
                                   732  		forum_trans_specs_$seen_request,
                                   733  		(),
                                   734  		(Print/return the indices of all seen transactions.),
                                   735  		flags.allow_both+flags.dont_list+flags.dont_summarize
    000626  00   001450 005452
    000627  0a   010560 000062
    000630  aa   630000 000000
                                   736
                                   737  	request	first_seen,
                                   738  		forum_trans_specs_$first_seen_request,
                                   739  		(fs),
                                   740  		(Print/return the index of the first seen transaction.),
                                   741  		flags.allow_both+flags.dont_list+flags.dont_summarize
    000631  00   001453 005463
    000632  0a   010575 000065
    000633  aa   630000 000000
                                   742
                                   743  	request	next_seen,
                                   744  		forum_trans_specs_$next_seen_request,
                                   745  		(ns),
                                   746  		(Print/return the index of the next seen transaction.),
                                   747  		flags.allow_both+flags.dont_list+flags.dont_summarize
    000634  00   001456 005504
    000635  0a   010613 000064
    000636  aa   630000 000000
                                   748
                                   749  	request	previous_seen,
                                   750  		forum_trans_specs_$prev_seen_request,
                                   751  		(ps),
                                   752  		(Print/return the index of the transactions.),
                                   753  		flags.allow_both+flags.dont_list+flags.dont_summarize
    000637  00   001461 005525
    000640  0a   010630 000053
    000641  aa   630000 000000
                                   754
                                   755  	request	last_seen,
                                   756  		forum_trans_specs_$last_seen_request,
                                   757  		(),
                                   758  		(Print/return the index of the highest seen transaction.),
                                   759                      flags.allow_both+flags.dont_list+flags.dont_summarize
    000642  00   001464 005546
    000643  0a   010643 000067
    000644  aa   630000 000000
                                   760
                                   761  	request	unseen,
                                   762  		forum_trans_specs_$unseen_request,
                                   763  		(),
                                   764  		(Print/return the indices of all unseen transactions.),
                                   765  		flags.allow_both+flags.dont_list+flags.dont_summarize
    000645  00   001467 005557
    000646  0a   010661 000064
    000647  aa   630000 000000
                                   766
                                   767  	request	first_unseen,
                                   768  		forum_trans_specs_$first_unseen_request,
                                   769  		(fu),
                                   770  		(Print/return the index of the first unseen transaction.),
                                   771  		flags.allow_both+flags.dont_list+flags.dont_summarize
    000650  00   001472 005570
    000651  0a   010676 000067
    000652  aa   630000 000000
                                   772
                                   773  	request	next_unseen,
                                   774  		forum_trans_specs_$next_unseen_request,
                                   775  		(nu),
                                   776  		(Print/return the index of the next unseen transaction.),
                                   777  		flags.allow_both+flags.dont_list+flags.dont_summarize
    000653  00   001475 005611
    000654  0a   010714 000066
    000655  aa   630000 000000
                                   778
                                   779  	request	previous_unseen,
                                   780  		forum_trans_specs_$prev_unseen_request,
                                   781  		(pu),
                                   782  		(Print/return the index of the previous unseen transaction.),
                                   783  		flags.allow_both+flags.dont_list+flags.dont_summarize
    000656  00   001500 005632
    000657  0a   010732 000072
    000660  aa   630000 000000
                                   784
                                   785  	request	last_unseen,
                                   786  		forum_trans_specs_$last_unseen_request,
                                   787  		(lu),
                                   788  		(Print/return the index of the last unseen transaction.),
                                   789  		flags.allow_both+flags.dont_list+flags.dont_summarize
    000661  00   001503 005653
    000662  0a   010751 000066
    000663  aa   630000 000000
                                   790
                                   791  "	unknown_request	debug_mode
                                   792
                                   793            end_table		chairman_requests
                                   794
                                   795            end

NO LITERALS

NAME DEFINITIONS FOR ENTRY POINTS AND SEGDEFS

    010770  5a   000003 000000
    010771  5a   000042 600000
    010772  aa   000000 000000
    010773  55   000014 000002
    010774  5a   000002 400003
    010775  55   000006 000014
    010776  aa  025 146 157 162
    010777  aa  165 155 137 162
    011000  aa  145 161 165 145
    011001  aa  163 164 137 164
    011002  aa  141 142 154 145
    011003  aa  163 137 000 000
    011004  55   000024 000003
    011005  0a   000332 400000
    011006  55   000017 000003
    011007  aa  021 143 150 141         chairman_requests
    011010  aa  151 162 155 141
    011011  aa  156 137 162 145
    011012  aa  161 165 145 163
    011013  aa  164 163 000 000
    011014  55   000033 000014
    011015  0a   000000 400000
    011016  55   000027 000003
    011017  aa  015 165 163 145         user_requests
    011020  aa  162 137 162 145
    011021  aa  161 165 145 163
    011022  aa  164 163 000 000
    011023  55   000002 000024
    011024  6a   000000 400002
    011025  55   000036 000003
    011026  aa  014 163 171 155         symbol_table
    011027  aa  142 157 154 137
    011030  aa  164 141 142 154
    011031  aa  145 000 000 000

DEFINITIONS HASH TABLE

    011032  aa   000000 000015
    011033  5a   000024 000000
    011034  aa   000000 000000
    011035  aa   000000 000000
    011036  aa   000000 000000
    011037  5a   000014 000000
    011040  aa   000000 000000
    011041  5a   000033 000000
    011042  aa   000000 000000
    011043  aa   000000 000000
    011044  aa   000000 000000
    011045  aa   000000 000000
    011046  aa   000000 000000
    011047  aa   000000 000000

EXTERNAL NAMES

    011050  aa  023 154 141 163         last_unseen_request
    011051  aa  164 137 165 156
    011052  aa  163 145 145 156
    011053  aa  137 162 145 161
    011054  aa  165 145 163 164
    011055  aa  023 160 162 145         prev_unseen_request
    011056  aa  166 137 165 156
    011057  aa  163 145 145 156
    011060  aa  137 162 145 161
    011061  aa  165 145 163 164
    011062  aa  023 156 145 170         next_unseen_request
    011063  aa  164 137 165 156
    011064  aa  163 145 145 156
    011065  aa  137 162 145 161
    011066  aa  165 145 163 164
    011067  aa  024 146 151 162         first_unseen_request
    011070  aa  163 164 137 165
    011071  aa  156 163 145 145
    011072  aa  156 137 162 145
    011073  aa  161 165 145 163
    011074  aa  164 000 000 000
    011075  aa  016 165 156 163         unseen_request
    011076  aa  145 145 156 137
    011077  aa  162 145 161 165
    011100  aa  145 163 164 000
    011101  aa  021 154 141 163         last_seen_request
    011102  aa  164 137 163 145
    011103  aa  145 156 137 162
    011104  aa  145 161 165 145
    011105  aa  163 164 000 000
    011106  aa  021 160 162 145         prev_seen_request
    011107  aa  166 137 163 145
    011110  aa  145 156 137 162
    011111  aa  145 161 165 145
    011112  aa  163 164 000 000
    011113  aa  021 156 145 170         next_seen_request
    011114  aa  164 137 163 145
    011115  aa  145 156 137 162
    011116  aa  145 161 165 145
    011117  aa  163 164 000 000
    011120  aa  022 146 151 162         first_seen_request
    011121  aa  163 164 137 163
    011122  aa  145 145 156 137
    011123  aa  162 145 161 165
    011124  aa  145 163 164 000
    011125  aa  014 163 145 145         seen_request
    011126  aa  156 137 162 145
    011127  aa  161 165 145 163
    011130  aa  164 000 000 000
    011131  aa  014 142 162 145         bref_request
    011132  aa  146 137 162 145
    011133  aa  161 165 145 163
    011134  aa  164 000 000 000
    011135  aa  014 162 162 145         rref_request
    011136  aa  146 137 162 145
    011137  aa  161 165 145 163
    011140  aa  164 000 000 000
    011141  aa  014 141 162 145         aref_request
    011142  aa  146 137 162 145
    011143  aa  161 165 145 163
    011144  aa  164 000 000 000
    011145  aa  013 156 145 167         new_request
    011146  aa  137 162 145 161
    011147  aa  165 145 163 164
    011150  aa  013 141 154 154         all_request
    011151  aa  137 162 145 161
    011152  aa  165 145 163 164
    011153  aa  014 156 162 145         nref_request
    011154  aa  146 137 162 145
    011155  aa  161 165 145 163
    011156  aa  164 000 000 000
    011157  aa  014 160 162 145         pref_request
    011160  aa  146 137 162 145
    011161  aa  161 165 145 163
    011162  aa  164 000 000 000
    011163  aa  014 154 162 145         lref_request
    011164  aa  146 137 162 145
    011165  aa  161 165 145 163
    011166  aa  164 000 000 000
    011167  aa  014 146 162 145         fref_request
    011170  aa  146 137 162 145
    011171  aa  161 165 145 163
    011172  aa  164 000 000 000
    011173  aa  017 143 165 162         current_request
    011174  aa  162 145 156 164
    011175  aa  137 162 145 161
    011176  aa  165 145 163 164
    011177  aa  014 156 145 170         next_request
    011200  aa  164 137 162 145
    011201  aa  161 165 145 163
    011202  aa  164 000 000 000
    011203  aa  020 160 162 145         previous_request
    011204  aa  166 151 157 165
    011205  aa  163 137 162 145
    011206  aa  161 165 145 163
    011207  aa  164 000 000 000
    011210  aa  014 154 141 163         last_request
    011211  aa  164 137 162 145
    011212  aa  161 165 145 163
    011213  aa  164 000 000 000
    011214  aa  015 146 151 162         first_request
    011215  aa  163 164 137 162
    011216  aa  145 161 165 145
    011217  aa  163 164 000 000
    011220  aa  022 146 157 162         forum_trans_specs_
    011221  aa  165 155 137 164
    011222  aa  162 141 156 163
    011223  aa  137 163 160 145
    011224  aa  143 163 137 000
    011225  aa  015 165 156 155         unmake_public
    011226  aa  141 153 145 137
    011227  aa  160 165 142 154
    011230  aa  151 143 000 000
    011231  aa  013 155 141 153         make_public
    011232  aa  145 137 160 165
    011233  aa  142 154 151 143
    011234  aa  016 162 145 155         remove_project
    011235  aa  157 166 145 137
    011236  aa  160 162 157 152
    011237  aa  145 143 164 000
    011240  aa  022 162 145 155         remove_participant
    011241  aa  157 166 145 137
    011242  aa  160 141 162 164
    011243  aa  151 143 151 160
    011244  aa  141 156 164 000
    011245  aa  013 141 144 144         add_project
    011246  aa  137 160 162 157
    011247  aa  152 145 143 164
    011250  aa  017 141 144 144         add_participant
    011251  aa  137 160 141 162
    011252  aa  164 151 143 151
    011253  aa  160 141 156 164
    011254  aa  025 146 157 162         forum_add_participant
    011255  aa  165 155 137 141
    011256  aa  144 144 137 160
    011257  aa  141 162 164 151
    011260  aa  143 151 160 141
    011261  aa  156 164 000 000
    011262  aa  022 167 162 151         write_transactions
    011263  aa  164 145 137 164
    011264  aa  162 141 156 163
    011265  aa  141 143 164 151
    011266  aa  157 156 163 000
    011267  aa  007 165 156 143         unchain
    011270  aa  150 141 151 156
    011271  aa  013 164 145 144         ted_request
    011272  aa  137 162 145 161
    011273  aa  165 145 163 164
    011274  aa  014 164 141 154         talk_request
    011275  aa  153 137 162 145
    011276  aa  161 165 145 163
    011277  aa  164 000 000 000
    011300  aa  011 163 167 151         switch_on
    011301  aa  164 143 150 137
    011302  aa  157 156 000 000
    011303  aa  012 163 167 151         switch_off
    011304  aa  164 143 150 137
    011305  aa  157 146 146 000
    011306  aa  017 163 165 142         subject_request
    011307  aa  152 145 143 164
    011310  aa  137 162 145 161
    011311  aa  165 145 163 164
    011312  aa  013 163 145 164         set_message
    011313  aa  137 155 145 163
    011314  aa  163 141 147 145
    011315  aa  024 162 145 164         retrieve_participant
    011316  aa  162 151 145 166
    011317  aa  145 137 160 141
    011320  aa  162 164 151 143
    011321  aa  151 160 141 156
    011322  aa  164 000 000 000
    011323  aa  025 162 145 164         retrieve_transactions
    011324  aa  162 151 145 166
    011325  aa  145 137 164 162
    011326  aa  141 156 163 141
    011327  aa  143 164 151 157
    011330  aa  156 163 000 000
    011331  aa  021 162 145 163         reset_transaction
    011332  aa  145 164 137 164
    011333  aa  162 141 156 163
    011334  aa  141 143 164 151
    011335  aa  157 156 000 000
    011336  aa  015 162 145 160         reply_request
    011337  aa  154 171 137 162
    011340  aa  145 161 165 145
    011341  aa  163 164 000 000
    011342  aa  016 162 145 155         remove_meeting
    011343  aa  157 166 145 137
    011344  aa  155 145 145 164
    011345  aa  151 156 147 000
    011346  aa  007 162 145 143         rechain
    011347  aa  150 141 151 156
    011350  aa  014 161 145 144         qedx_request
    011351  aa  170 137 162 145
    011352  aa  161 165 145 163
    011353  aa  164 000 000 000
    011354  aa  014 156 145 170         next_meeting
    011355  aa  164 137 155 145
    011356  aa  145 164 151 156
    011357  aa  147 000 000 000
    011360  aa  004 155 141 151         mail
    011361  aa  154 000 000 000
    011362  aa  015 146 157 162         forum_mailer_
    011363  aa  165 155 137 155
    011364  aa  141 151 154 145
    011365  aa  162 137 000 000
    011366  aa  022 154 151 163         list_users_request
    011367  aa  164 137 165 163
    011370  aa  145 162 163 137
    011371  aa  162 145 161 165
    011372  aa  145 163 164 000
    011373  aa  020 146 157 162         forum_list_users
    011374  aa  165 155 137 154
    011375  aa  151 163 164 137
    011376  aa  165 163 145 162
    011377  aa  163 000 000 000
    011400  aa  022 146 157 162         forum_list_request
    011401  aa  165 155 137 154
    011402  aa  151 163 164 137
    011403  aa  162 145 161 165
    011404  aa  145 163 164 000
    011405  aa  021 146 157 162         forum_dir_request
    011406  aa  165 155 137 144
    011407  aa  151 162 137 162
    011410  aa  145 161 165 145
    011411  aa  163 164 000 000
    011412  aa  014 146 151 154         fill_request
    011413  aa  154 137 162 145
    011414  aa  161 165 145 163
    011415  aa  164 000 000 000
    011416  aa  007 145 170 160         expunge
    011417  aa  165 156 147 145
    011420  aa  015 145 156 164         enter_request
    011421  aa  145 162 137 162
    011422  aa  145 161 165 145
    011423  aa  163 164 000 000
    011424  aa  022 144 145 154         delete_participant
    011425  aa  145 164 145 137
    011426  aa  160 141 162 164
    011427  aa  151 143 151 160
    011430  aa  141 156 164 000
    011431  aa  023 144 145 154         delete_transactions
    011432  aa  145 164 145 137
    011433  aa  164 162 141 156
    011434  aa  163 141 143 164
    011435  aa  151 157 156 163
    011436  aa  017 143 165 162         current_meeting
    011437  aa  162 145 156 164
    011440  aa  137 155 145 145
    011441  aa  164 151 156 147
    011442  aa  016 143 150 145         check_meetings
    011443  aa  143 153 137 155
    011444  aa  145 145 164 151
    011445  aa  156 147 163 000
    011446  aa  023 146 157 162         forum_list_meetings
    011447  aa  165 155 137 154
    011450  aa  151 163 164 137
    011451  aa  155 145 145 164
    011452  aa  151 156 147 163
    011453  aa  020 143 150 141         chairman_request
    011454  aa  151 162 155 141
    011455  aa  156 137 162 145
    011456  aa  161 165 145 163
    011457  aa  164 000 000 000
    011460  aa  015 141 160 160         apply_request
    011461  aa  154 171 137 162
    011462  aa  145 161 165 145
    011463  aa  163 164 000 000
    011464  aa  025 146 157 162         forum_input_requests_
    011465  aa  165 155 137 151
    011466  aa  156 160 165 164
    011467  aa  137 162 145 161
    011470  aa  165 145 163 164
    011471  aa  163 137 000 000
    011472  aa  021 141 156 156         announcement_info
    011473  aa  157 165 156 143
    011474  aa  145 155 145 156
    011475  aa  164 137 151 156
    011476  aa  146 157 000 000
    011477  aa  020 141 156 156         announce_meeting
    011500  aa  157 165 156 143
    011501  aa  145 137 155 145
    011502  aa  145 164 151 156
    011503  aa  147 000 000 000
    011504  aa  014 146 157 162         forum_create
    011505  aa  165 155 137 143
    011506  aa  162 145 141 164
    011507  aa  145 000 000 000
    011510  aa  013 141 144 144         add_meeting
    011511  aa  137 155 145 145
    011512  aa  164 151 156 147
    011513  aa  021 146 157 162         forum_add_meeting
    011514  aa  165 155 137 141
    011515  aa  144 144 137 155
    011516  aa  145 145 164 151
    011517  aa  156 147 000 000
    011520  aa  014 161 165 151         quit_request
    011521  aa  164 137 162 145
    011522  aa  161 165 145 163
    011523  aa  164 000 000 000
    011524  aa  022 160 162 151         print_transactions
    011525  aa  156 164 137 164
    011526  aa  162 141 156 163
    011527  aa  141 143 164 151
    011530  aa  157 156 163 000
    011531  aa  021 154 151 163         list_transactions
    011532  aa  164 137 164 162
    011533  aa  141 156 163 141
    011534  aa  143 164 151 157
    011535  aa  156 163 000 000
    011536  aa  026 146 157 162         forum_output_requests_
    011537  aa  165 155 137 157
    011540  aa  165 164 160 165
    011541  aa  164 137 162 145
    011542  aa  161 165 145 163
    011543  aa  164 163 137 000
    011544  aa  014 147 157 164         goto_request
    011545  aa  157 137 162 145
    011546  aa  161 165 145 163
    011547  aa  164 000 000 000
    011550  aa  017 146 157 162         forum_requests_
    011551  aa  165 155 137 162
    011552  aa  145 161 165 145
    011553  aa  163 164 163 137
    011554  aa  013 144 157 164         dot_request
    011555  aa  137 162 145 161
    011556  aa  165 145 163 164
    011557  aa  024 146 157 162         forum_misc_requests_
    011560  aa  165 155 137 155
    011561  aa  151 163 143 137
    011562  aa  162 145 161 165
    011563  aa  145 163 164 163
    011564  aa  137 000 000 000

NO TRAP POINTER WORDS

TYPE PAIR BLOCKS

    011565  aa   000004 000000
    011566  55   000230 000060
    011567  aa   000004 000000
    011570  55   000230 000065
    011571  aa   000004 000000
    011572  55   000230 000072
    011573  aa   000004 000000
    011574  55   000230 000077
    011575  aa   000004 000000
    011576  55   000230 000105
    011577  aa   000004 000000
    011600  55   000230 000111
    011601  aa   000004 000000
    011602  55   000230 000116
    011603  aa   000004 000000
    011604  55   000230 000123
    011605  aa   000004 000000
    011606  55   000230 000130
    011607  aa   000004 000000
    011610  55   000230 000135
    011611  aa   000004 000000
    011612  55   000230 000141
    011613  aa   000004 000000
    011614  55   000230 000145
    011615  aa   000004 000000
    011616  55   000230 000151
    011617  aa   000004 000000
    011620  55   000230 000155
    011621  aa   000004 000000
    011622  55   000230 000160
    011623  aa   000004 000000
    011624  55   000230 000163
    011625  aa   000004 000000
    011626  55   000230 000167
    011627  aa   000004 000000
    011630  55   000230 000173
    011631  aa   000004 000000
    011632  55   000230 000177
    011633  aa   000004 000000
    011634  55   000230 000203
    011635  aa   000004 000000
    011636  55   000230 000207
    011637  aa   000004 000000
    011640  55   000230 000213
    011641  aa   000004 000000
    011642  55   000230 000220
    011643  aa   000004 000000
    011644  55   000230 000224
    011645  aa   000004 000000
    011646  55   000264 000235
    011647  aa   000004 000000
    011650  55   000264 000241
    011651  aa   000004 000000
    011652  55   000264 000244
    011653  aa   000004 000000
    011654  55   000264 000250
    011655  aa   000004 000000
    011656  55   000264 000255
    011657  aa   000004 000000
    011660  55   000264 000260
    011661  aa   000004 000000
    011662  55   000546 000272
    011663  aa   000004 000000
    011664  55   000567 000277
    011665  aa   000004 000000
    011666  55   000474 000301
    011667  aa   000004 000000
    011670  55   000474 000304
    011671  aa   000004 000000
    011672  55   000567 000310
    011673  aa   000004 000000
    011674  55   000567 000313
    011675  aa   000004 000000
    011676  55   000474 000316
    011677  aa   000004 000000
    011700  55   000474 000322
    011701  aa   000004 000000
    011702  55   000567 000325
    011703  aa   000004 000000
    011704  55   000546 000333
    011705  aa   000004 000000
    011706  55   000546 000341
    011707  aa   000004 000000
    011710  55   000474 000346
    011711  aa   000004 000000
    011712  55   000523 000352
    011713  aa   000004 000000
    011714  55   000567 000356
    011715  aa   000004 000000
    011716  55   000474 000360
    011717  aa   000004 000000
    011720  55   000456 000364
    011721  aa   000004 000000
    011722  55   000372 000370
    011723  aa   000004 000000
    011724  55   000403 000376
    011725  aa   000004 000000
    011726  55   000456 000410
    011727  aa   000004 000000
    011730  55   000567 000415
    011731  aa   000004 000000
    011732  55   000474 000422
    011733  aa   000004 000000
    011734  55   000567 000426
    011735  aa   000004 000000
    011736  55   000474 000430
    011737  aa   000004 000000
    011740  55   000567 000434
    011741  aa   000004 000000
    011742  55   000546 000441
    011743  aa   000004 000000
    011744  55   000567 000446
    011745  aa   000004 000000
    011746  55   000456 000452
    011747  aa   000004 000000
    011750  55   000567 000463
    011751  aa   000004 000000
    011752  55   000474 000470
    011753  aa   000004 000000
    011754  55   000523 000502
    011755  aa   000004 000000
    011756  55   000514 000507
    011757  aa   000004 000000
    011760  55   000523 000520
    011761  aa   000004 000000
    011762  55   000560 000530
    011763  aa   000004 000000
    011764  55   000546 000534
    011765  aa   000004 000000
    011766  55   000546 000541
    011767  aa   000004 000000
    011770  55   000560 000554
    011771  aa   000004 000000
    011772  55   000567 000564
    011773  aa   000001 000000
    011774  aa   000000 000000

INTERNAL EXPRESSION WORDS

    011775  5a   000575 000000
    011776  5a   000577 000000
    011777  5a   000601 000000
    012000  5a   000603 000000
    012001  5a   000605 000000
    012002  5a   000607 000000
    012003  5a   000611 000000
    012004  5a   000613 000000
    012005  5a   000615 000000
    012006  5a   000617 000000
    012007  5a   000621 000000
    012010  5a   000623 000000
    012011  5a   000625 000000
    012012  5a   000627 000000
    012013  5a   000631 000000
    012014  5a   000633 000000
    012015  5a   000635 000000
    012016  5a   000637 000000
    012017  5a   000641 000000
    012020  5a   000643 000000
    012021  5a   000645 000000
    012022  5a   000647 000000
    012023  5a   000651 000000
    012024  5a   000653 000000
    012025  5a   000655 000000
    012026  5a   000657 000000
    012027  5a   000661 000000
    012030  5a   000663 000000
    012031  5a   000665 000000
    012032  5a   000667 000000
    012033  5a   000671 000000
    012034  5a   000673 000000
    012035  5a   000675 000000
    012036  5a   000677 000000
    012037  5a   000701 000000
    012040  5a   000703 000000
    012041  5a   000705 000000
    012042  5a   000707 000000
    012043  5a   000711 000000
    012044  5a   000713 000000
    012045  5a   000715 000000
    012046  5a   000717 000000
    012047  5a   000721 000000
    012050  5a   000723 000000
    012051  5a   000725 000000
    012052  5a   000727 000000
    012053  5a   000731 000000
    012054  5a   000733 000000
    012055  5a   000735 000000
    012056  5a   000737 000000
    012057  5a   000741 000000
    012060  5a   000743 000000
    012061  5a   000745 000000
    012062  5a   000747 000000
    012063  5a   000751 000000
    012064  5a   000753 000000
    012065  5a   000755 000000
    012066  5a   000757 000000
    012067  5a   000761 000000
    012070  5a   000763 000000
    012071  5a   000765 000000
    012072  5a   000767 000000
    012073  5a   000771 000000
    012074  5a   000773 000000
    012075  5a   000775 000000
    012076  5a   000777 000000
    012077  5a   001001 000000
LINKAGE INFORMATION

    000000  aa   000000 000000
    000001  0a   010770 000000
    000002  aa   000000 000000
    000003  aa   000000 000000
    000004  aa   000000 000000
    000005  aa   000000 000000
    000006  22   000010 000216
    000007  a2   000000 000000
    000010  9a   777770 0000 46         forum_misc_requests_|dot_request
    000011  5a   001107 0000 00
    000012  9a   777766 0000 46         forum_requests_|goto_request
    000013  5a   001106 0000 00
    000014  9a   777764 0000 46         forum_output_requests_|list_transactions
    000015  5a   001105 0000 00
    000016  9a   777762 0000 46         forum_output_requests_|print_transactions
    000017  5a   001104 0000 00
    000020  9a   777760 0000 46         forum_requests_|quit_request
    000021  5a   001103 0000 00
    000022  9a   777756 0000 46         forum_add_meeting|add_meeting
    000023  5a   001102 0000 00
    000024  9a   777754 0000 46         forum_create|announce_meeting
    000025  5a   001101 0000 00
    000026  9a   777752 0000 46         forum_add_meeting|announcement_info
    000027  5a   001100 0000 00
    000030  9a   777750 0000 46         forum_input_requests_|apply_request
    000031  5a   001077 0000 00
    000032  9a   777746 0000 46         forum_misc_requests_|chairman_request
    000033  5a   001076 0000 00
    000034  9a   777744 0000 46         forum_list_meetings|check_meetings
    000035  5a   001075 0000 00
    000036  9a   777742 0000 46         forum_misc_requests_|current_meeting
    000037  5a   001074 0000 00
    000040  9a   777740 0000 46         forum_output_requests_|delete_transactions
    000041  5a   001073 0000 00
    000042  9a   777736 0000 46         forum_misc_requests_|delete_participant
    000043  5a   001072 0000 00
    000044  9a   777734 0000 46         forum_input_requests_|enter_request
    000045  5a   001071 0000 00
    000046  9a   777732 0000 46         forum_misc_requests_|expunge
    000047  5a   001070 0000 00
    000050  9a   777730 0000 46         forum_input_requests_|fill_request
    000051  5a   001067 0000 00
    000052  9a   777726 0000 46         forum_misc_requests_|forum_dir_request
    000053  5a   001066 0000 00
    000054  9a   777724 0000 46         forum_list_meetings|forum_list_request
    000055  5a   001065 0000 00
    000056  9a   777722 0000 46         forum_list_users|list_users_request
    000057  5a   001064 0000 00
    000060  9a   777720 0000 46         forum_mailer_|mail
    000061  5a   001063 0000 00
    000062  9a   777716 0000 46         forum_list_meetings|next_meeting
    000063  5a   001062 0000 00
    000064  9a   777714 0000 46         forum_input_requests_|qedx_request
    000065  5a   001061 0000 00
    000066  9a   777712 0000 46         forum_misc_requests_|rechain
    000067  5a   001060 0000 00
    000070  9a   777710 0000 46         forum_add_meeting|remove_meeting
    000071  5a   001057 0000 00
    000072  9a   777706 0000 46         forum_input_requests_|reply_request
    000073  5a   001056 0000 00
    000074  9a   777704 0000 46         forum_output_requests_|reset_transaction
    000075  5a   001055 0000 00
    000076  9a   777702 0000 46         forum_output_requests_|retrieve_transactions
    000077  5a   001054 0000 00
    000100  9a   777700 0000 46         forum_misc_requests_|retrieve_participant
    000101  5a   001053 0000 00
    000102  9a   777676 0000 46         forum_input_requests_|set_message
    000103  5a   001052 0000 00
    000104  9a   777674 0000 46         forum_input_requests_|subject_request
    000105  5a   001051 0000 00
    000106  9a   777672 0000 46         forum_misc_requests_|switch_off
    000107  5a   001050 0000 00
    000110  9a   777670 0000 46         forum_misc_requests_|switch_on
    000111  5a   001047 0000 00
    000112  9a   777666 0000 46         forum_input_requests_|talk_request
    000113  5a   001046 0000 00
    000114  9a   777664 0000 46         forum_input_requests_|ted_request
    000115  5a   001045 0000 00
    000116  9a   777662 0000 46         forum_misc_requests_|unchain
    000117  5a   001044 0000 00
    000120  9a   777660 0000 46         forum_output_requests_|write_transactions
    000121  5a   001043 0000 00
    000122  9a   777656 0000 46         forum_add_participant|add_participant
    000123  5a   001042 0000 00
    000124  9a   777654 0000 46         forum_add_participant|add_project
    000125  5a   001041 0000 00
    000126  9a   777652 0000 46         forum_add_participant|remove_participant
    000127  5a   001040 0000 00
    000130  9a   777650 0000 46         forum_add_participant|remove_project
    000131  5a   001037 0000 00
    000132  9a   777646 0000 46         forum_add_participant|make_public
    000133  5a   001036 0000 00
    000134  9a   777644 0000 46         forum_add_participant|unmake_public
    000135  5a   001035 0000 00
    000136  9a   777642 0000 46         forum_trans_specs_|first_request
    000137  5a   001034 0000 00
    000140  9a   777640 0000 46         forum_trans_specs_|last_request
    000141  5a   001033 0000 00
    000142  9a   777636 0000 46         forum_trans_specs_|previous_request
    000143  5a   001032 0000 00
    000144  9a   777634 0000 46         forum_trans_specs_|next_request
    000145  5a   001031 0000 00
    000146  9a   777632 0000 46         forum_trans_specs_|current_request
    000147  5a   001030 0000 00
    000150  9a   777630 0000 46         forum_trans_specs_|fref_request
    000151  5a   001027 0000 00
    000152  9a   777626 0000 46         forum_trans_specs_|lref_request
    000153  5a   001026 0000 00
    000154  9a   777624 0000 46         forum_trans_specs_|pref_request
    000155  5a   001025 0000 00
    000156  9a   777622 0000 46         forum_trans_specs_|nref_request
    000157  5a   001024 0000 00
    000160  9a   777620 0000 46         forum_trans_specs_|all_request
    000161  5a   001023 0000 00
    000162  9a   777616 0000 46         forum_trans_specs_|new_request
    000163  5a   001022 0000 00
    000164  9a   777614 0000 46         forum_trans_specs_|aref_request
    000165  5a   001021 0000 00
    000166  9a   777612 0000 46         forum_trans_specs_|rref_request
    000167  5a   001020 0000 00
    000170  9a   777610 0000 46         forum_trans_specs_|bref_request
    000171  5a   001017 0000 00
    000172  9a   777606 0000 46         forum_trans_specs_|seen_request
    000173  5a   001016 0000 00
    000174  9a   777604 0000 46         forum_trans_specs_|first_seen_request
    000175  5a   001015 0000 00
    000176  9a   777602 0000 46         forum_trans_specs_|next_seen_request
    000177  5a   001014 0000 00
    000200  9a   777600 0000 46         forum_trans_specs_|prev_seen_request
    000201  5a   001013 0000 00
    000202  9a   777576 0000 46         forum_trans_specs_|last_seen_request
    000203  5a   001012 0000 00
    000204  9a   777574 0000 46         forum_trans_specs_|unseen_request
    000205  5a   001011 0000 00
    000206  9a   777572 0000 46         forum_trans_specs_|first_unseen_request
    000207  5a   001010 0000 00
    000210  9a   777570 0000 46         forum_trans_specs_|next_unseen_request
    000211  5a   001007 0000 00
    000212  9a   777566 0000 46         forum_trans_specs_|prev_unseen_request
    000213  5a   001006 0000 00
    000214  9a   777564 0000 46         forum_trans_specs_|last_unseen_request
    000215  5a   001005 0000 00
SYMBOL INFORMATION

SYMBOL TABLE HEADER

    000000  aa   000000 000001
    000001  aa   163171 155142
    000002  aa   164162 145145
    000003  aa   000000 000010
    000004  aa   000000 117244
    000005  aa   361023 525721
    000006  aa   000000 131036
    000007  aa   040576 215633
    000010  aa   141154 155040
    000011  aa   040040 040040
    000012  aa   000024 000040
    000013  aa   000034 000040
    000014  aa   000044 000100
    000015  aa   000002 000002
    000016  aa   000064 000000
    000017  aa   000000 001011
    000020  aa   000000 000137
    000021  aa   000705 000653
    000022  aa   001001 000137
    000023  aa   000064 000000
    000024  aa   101114 115040
    000025  aa   126145 162163
    000026  aa   151157 156040
    000027  aa   070056 061064
    000030  aa   040115 141162
    000031  aa   143150 040061
    000032  aa   071070 071040
    000033  aa   040040 040040
    000034  aa   123143 150162
    000035  aa   157164 150056
    000036  aa   123171 163115
    000037  aa   141151 156164
    000040  aa   056155 040040
    000041  aa   040040 040040
    000042  aa   040040 040040
    000043  aa   040040 040040
    000044  aa   154151 163164
    000045  aa   040163 171155
    000046  aa   142157 154163
    000047  aa   040040 040040
    000050  aa   040040 040040
    000051  aa   040040 040040
    000052  aa   040040 040040
    000053  aa   040040 040040
    000054  aa   040040 040040
    000055  aa   040040 040040
    000056  aa   040040 040040
    000057  aa   040040 040040
    000060  aa   040040 040040
    000061  aa   040040 040040
    000062  aa   040040 040040
    000063  aa   040040 040040
    000064  aa   000000 000001
    000065  aa   000000 000003
    000066  aa   000102 000051
    000067  aa   310157 123600
    000070  aa   000000 131036
    000071  aa   040577 200000
    000072  aa   000115 000045
    000073  aa   305736 051534
    000074  aa   000000 113310
    000075  aa   612334 200000
    000076  aa   000127 000037
    000077  aa   305736 051531
    000100  aa   000000 115000
    000101  aa   507463 000000
    000102  aa   076165 144144          >udd>sm>ds>w>ml>forum_request_tables_.alm
    000103  aa   076163 155076
    000104  aa   144163 076167
    000105  aa   076155 154076
    000106  aa   146157 162165
    000107  aa   155137 162145
    000110  aa   161165 145163
    000111  aa   164137 164141
    000112  aa   142154 145163
    000113  aa   137056 141154
    000114  aa   155040 040040
    000115  aa   076154 144144          >ldd>incl>ssu_request_macros.incl.alm
    000116  aa   076151 156143
    000117  aa   154076 163163
    000120  aa   165137 162145
    000121  aa   161165 145163
    000122  aa   164137 155141
    000123  aa   143162 157163
    000124  aa   056151 156143
    000125  aa   154056 141154
    000126  aa   155040 040040
    000127  aa   076154 144144          >ldd>incl>stack_header.incl.alm
    000130  aa   076151 156143
    000131  aa   154076 163164
    000132  aa   141143 153137
    000133  aa   150145 141144
    000134  aa   145162 056151
    000135  aa   156143 154056
    000136  aa   141154 155040
               MULTICS ASSEMBLY CROSS REFERENCE LISTING

   Value        Symbol                   Source file   Line number

         664    .._00000.call            forum_request_tables_:     31.
        5674    .._00000.info            forum_request_tables_:     31.
        1506    .._00000.names           forum_request_tables_:     31.
         667    .._00001.call            forum_request_tables_:     37.
        5702    .._00001.info            forum_request_tables_:     37.
        1517    .._00001.names           forum_request_tables_:     37.
         672    .._00002.call            forum_request_tables_:     43.
        5706    .._00002.info            forum_request_tables_:     43.
        1550    .._00002.names           forum_request_tables_:     43.
         675    .._00003.call            forum_request_tables_:     49.
        5716    .._00003.info            forum_request_tables_:     49.
        1571    .._00003.names           forum_request_tables_:     49.
         700    .._00004.call            forum_request_tables_:     54.
        5727    .._00004.info            forum_request_tables_:     54.
        1622    .._00004.names           forum_request_tables_:     54.
         703    .._00005.call            forum_request_tables_:     59.
        5732    .._00005.info            forum_request_tables_:     59.
        1643    .._00005.names           forum_request_tables_:     59.
         706    .._00006.call            forum_request_tables_:     64.
        5744    .._00006.info            forum_request_tables_:     64.
        1664    .._00006.names           forum_request_tables_:     64.
         711    .._00007.call            forum_request_tables_:     70.
        5763    .._00007.info            forum_request_tables_:     70.
        1705    .._00007.names           forum_request_tables_:     70.
         714    .._00010.call            forum_request_tables_:     75.
        5777    .._00010.info            forum_request_tables_:     75.
        1726    .._00010.names           forum_request_tables_:     75.
         717    .._00011.call            forum_request_tables_:     81.
        6015    .._00011.info            forum_request_tables_:     81.
        1747    .._00011.names           forum_request_tables_:     81.
         722    .._00012.call            forum_request_tables_:     86.
        6033    .._00012.info            forum_request_tables_:     86.
        1770    .._00012.names           forum_request_tables_:     86.
         725    .._00013.call            forum_request_tables_:     92.
        6044    .._00013.info            forum_request_tables_:     92.
        2011    .._00013.names           forum_request_tables_:     92.
         730    .._00014.call            forum_request_tables_:     98.
        6060    .._00014.info            forum_request_tables_:     98.
        2032    .._00014.names           forum_request_tables_:     98.
         733    .._00015.call            forum_request_tables_:    103.
        6074    .._00015.info            forum_request_tables_:    103.
        2063    .._00015.names           forum_request_tables_:    103.
         736    .._00016.call            forum_request_tables_:    108.
        6105    .._00016.info            forum_request_tables_:    108.
        2104    .._00016.names           forum_request_tables_:    108.
         741    .._00017.call            forum_request_tables_:    114.
        6116    .._00017.info            forum_request_tables_:    114.
        2135    .._00017.names           forum_request_tables_:    114.
         744    .._00020.call            forum_request_tables_:    119.
        6134    .._00020.info            forum_request_tables_:    119.
        2146    .._00020.names           forum_request_tables_:    119.
         747    .._00021.call            forum_request_tables_:    125.
        6152    .._00021.info            forum_request_tables_:    125.
        2167    .._00021.names           forum_request_tables_:    125.
         752    .._00022.call            forum_request_tables_:    131.
        6167    .._00022.info            forum_request_tables_:    131.
        2210    .._00022.names           forum_request_tables_:    131.
         755    .._00023.call            forum_request_tables_:    137.
        6200    .._00023.info            forum_request_tables_:    137.
        2231    .._00023.names           forum_request_tables_:    137.
         760    .._00024.call            forum_request_tables_:    142.
        6214    .._00024.info            forum_request_tables_:    142.
        2252    .._00024.names           forum_request_tables_:    142.
         763    .._00025.call            forum_request_tables_:    148.
        6223    .._00025.info            forum_request_tables_:    148.
        2263    .._00025.names           forum_request_tables_:    148.
         766    .._00026.call            forum_request_tables_:    153.
        6240    .._00026.info            forum_request_tables_:    153.
        2304    .._00026.names           forum_request_tables_:    153.
         771    .._00027.call            forum_request_tables_:    159.
        6251    .._00027.info            forum_request_tables_:    159.
        2325    .._00027.names           forum_request_tables_:    159.
         774    .._00030.call            forum_request_tables_:    164.
        6262    .._00030.info            forum_request_tables_:    164.
        2336    .._00030.names           forum_request_tables_:    164.
         777    .._00031.call            forum_request_tables_:    169.
        6276    .._00031.info            forum_request_tables_:    169.
        2357    .._00031.names           forum_request_tables_:    169.
        1002    .._00032.call            forum_request_tables_:    174.
        6311    .._00032.info            forum_request_tables_:    174.
        2400    .._00032.names           forum_request_tables_:    174.
        1005    .._00033.call            forum_request_tables_:    180.
        6326    .._00033.info            forum_request_tables_:    180.
        2421    .._00033.names           forum_request_tables_:    180.
        1010    .._00034.call            forum_request_tables_:    185.
        6340    .._00034.info            forum_request_tables_:    185.
        2442    .._00034.names           forum_request_tables_:    185.
        1013    .._00035.call            forum_request_tables_:    191.
        6350    .._00035.info            forum_request_tables_:    191.
        2463    .._00035.names           forum_request_tables_:    191.
        1016    .._00036.call            forum_request_tables_:    197.
        6362    .._00036.info            forum_request_tables_:    197.
        2474    .._00036.names           forum_request_tables_:    197.
        1021    .._00037.call            forum_request_tables_:    203.
        6400    .._00037.info            forum_request_tables_:    203.
        2515    .._00037.names           forum_request_tables_:    203.
        1024    .._00040.call            forum_request_tables_:    208.
        6406    .._00040.info            forum_request_tables_:    208.
        2536    .._00040.names           forum_request_tables_:    208.
        1027    .._00041.call            forum_request_tables_:    212.
        6414    .._00041.info            forum_request_tables_:    212.
        2557    .._00041.names           forum_request_tables_:    212.
        1032    .._00042.call            forum_request_tables_:    217.
        6422    .._00042.info            forum_request_tables_:    217.
        2600    .._00042.names           forum_request_tables_:    217.
        1035    .._00043.call            forum_request_tables_:    223.
        6436    .._00043.info            forum_request_tables_:    223.
        2611    .._00043.names           forum_request_tables_:    223.
        1040    .._00044.call            forum_request_tables_:    228.
        6447    .._00044.info            forum_request_tables_:    228.
        2622    .._00044.names           forum_request_tables_:    228.
        1043    .._00045.call            forum_request_tables_:    234.
        6463    .._00045.info            forum_request_tables_:    234.
        2643    .._00045.names           forum_request_tables_:    234.
        1046    .._00046.call            forum_request_tables_:    240.
        6476    .._00046.info            forum_request_tables_:    240.
        2664    .._00046.names           forum_request_tables_:    240.
        1051    .._00047.call            forum_request_tables_:    246.
        6515    .._00047.info            forum_request_tables_:    246.
        2705    .._00047.names           forum_request_tables_:    246.
        1054    .._00050.call            forum_request_tables_:    252.
        6532    .._00050.info            forum_request_tables_:    252.
        2726    .._00050.names           forum_request_tables_:    252.
        1057    .._00051.call            forum_request_tables_:    258.
        6550    .._00051.info            forum_request_tables_:    258.
        2747    .._00051.names           forum_request_tables_:    258.
        1062    .._00052.call            forum_request_tables_:    264.
        6564    .._00052.info            forum_request_tables_:    264.
        2770    .._00052.names           forum_request_tables_:    264.
        1065    .._00053.call            forum_request_tables_:    270.
        6600    .._00053.info            forum_request_tables_:    270.
        3011    .._00053.names           forum_request_tables_:    270.
        1070    .._00054.call            forum_request_tables_:    276.
        6614    .._00054.info            forum_request_tables_:    276.
        3032    .._00054.names           forum_request_tables_:    276.
        1073    .._00055.call            forum_request_tables_:    282.
        6630    .._00055.info            forum_request_tables_:    282.
        3053    .._00055.names           forum_request_tables_:    282.
        1076    .._00056.call            forum_request_tables_:    288.
        6645    .._00056.info            forum_request_tables_:    288.
        3104    .._00056.names           forum_request_tables_:    288.
        1101    .._00057.call            forum_request_tables_:    294.
        6661    .._00057.info            forum_request_tables_:    294.
        3115    .._00057.names           forum_request_tables_:    294.
        1104    .._00060.call            forum_request_tables_:    300.
        6676    .._00060.info            forum_request_tables_:    300.
        3136    .._00060.names           forum_request_tables_:    300.
        1107    .._00061.call            forum_request_tables_:    306.
        6720    .._00061.info            forum_request_tables_:    306.
        3157    .._00061.names           forum_request_tables_:    306.
        1112    .._00062.call            forum_request_tables_:    312.
        6741    .._00062.info            forum_request_tables_:    312.
        3200    .._00062.names           forum_request_tables_:    312.
        1115    .._00063.call            forum_request_tables_:    318.
        6763    .._00063.info            forum_request_tables_:    318.
        3231    .._00063.names           forum_request_tables_:    318.
        1120    .._00064.call            forum_request_tables_:    324.
        7004    .._00064.info            forum_request_tables_:    324.
        3252    .._00064.names           forum_request_tables_:    324.
        1123    .._00065.call            forum_request_tables_:    330.
        7017    .._00065.info            forum_request_tables_:    330.
        3263    .._00065.names           forum_request_tables_:    330.
        1126    .._00066.call            forum_request_tables_:    336.
        7034    .._00066.info            forum_request_tables_:    336.
        3274    .._00066.names           forum_request_tables_:    336.
        1131    .._00067.call            forum_request_tables_:    342.
        7055    .._00067.info            forum_request_tables_:    342.
        3315    .._00067.names           forum_request_tables_:    342.
        1134    .._00070.call            forum_request_tables_:    348.
        7101    .._00070.info            forum_request_tables_:    348.
        3336    .._00070.names           forum_request_tables_:    348.
        1137    .._00071.call            forum_request_tables_:    354.
        7124    .._00071.info            forum_request_tables_:    354.
        3357    .._00071.names           forum_request_tables_:    354.
        1142    .._00072.call            forum_request_tables_:    360.
        7141    .._00072.info            forum_request_tables_:    360.
        3370    .._00072.names           forum_request_tables_:    360.
        1145    .._00073.call            forum_request_tables_:    366.
        7157    .._00073.info            forum_request_tables_:    366.
        3411    .._00073.names           forum_request_tables_:    366.
        1150    .._00074.call            forum_request_tables_:    372.
        7174    .._00074.info            forum_request_tables_:    372.
        3432    .._00074.names           forum_request_tables_:    372.
        1153    .._00075.call            forum_request_tables_:    378.
        7207    .._00075.info            forum_request_tables_:    378.
        3453    .._00075.names           forum_request_tables_:    378.
        1156    .._00076.call            forum_request_tables_:    384.
        7225    .._00076.info            forum_request_tables_:    384.
        3464    .._00076.names           forum_request_tables_:    384.
        1161    .._00077.call            forum_request_tables_:    390.
        7242    .._00077.info            forum_request_tables_:    390.
        3475    .._00077.names           forum_request_tables_:    390.
        1164    .._00100.call            forum_request_tables_:    396.
        7260    .._00100.info            forum_request_tables_:    396.
        3516    .._00100.names           forum_request_tables_:    396.
        1167    .._00101.call            forum_request_tables_:    402.
        7276    .._00101.info            forum_request_tables_:    402.
        3537    .._00101.names           forum_request_tables_:    402.
        1172    .._00102.call            forum_request_tables_:    408.
        7315    .._00102.info            forum_request_tables_:    408.
        3560    .._00102.names           forum_request_tables_:    408.
        1175    .._00103.call            forum_request_tables_:    419.
        7333    .._00103.info            forum_request_tables_:    419.
        3601    .._00103.names           forum_request_tables_:    419.
        1200    .._00104.call            forum_request_tables_:    425.
        7341    .._00104.info            forum_request_tables_:    425.
        3612    .._00104.names           forum_request_tables_:    425.
        1203    .._00105.call            forum_request_tables_:    431.
        7345    .._00105.info            forum_request_tables_:    431.
        3643    .._00105.names           forum_request_tables_:    431.
        1206    .._00106.call            forum_request_tables_:    436.
        7355    .._00106.info            forum_request_tables_:    436.
        3664    .._00106.names           forum_request_tables_:    436.
        1211    .._00107.call            forum_request_tables_:    441.
        7366    .._00107.info            forum_request_tables_:    441.
        3715    .._00107.names           forum_request_tables_:    441.
        1214    .._00110.call            forum_request_tables_:    446.
        7371    .._00110.info            forum_request_tables_:    446.
        3736    .._00110.names           forum_request_tables_:    446.
        1217    .._00111.call            forum_request_tables_:    451.
        7403    .._00111.info            forum_request_tables_:    451.
        3757    .._00111.names           forum_request_tables_:    451.
        1222    .._00112.call            forum_request_tables_:    457.
        7422    .._00112.info            forum_request_tables_:    457.
        4000    .._00112.names           forum_request_tables_:    457.
        1225    .._00113.call            forum_request_tables_:    462.
        7436    .._00113.info            forum_request_tables_:    462.
        4021    .._00113.names           forum_request_tables_:    462.
        1230    .._00114.call            forum_request_tables_:    468.
        7454    .._00114.info            forum_request_tables_:    468.
        4042    .._00114.names           forum_request_tables_:    468.
        1233    .._00115.call            forum_request_tables_:    473.
        7472    .._00115.info            forum_request_tables_:    473.
        4063    .._00115.names           forum_request_tables_:    473.
        1236    .._00116.call            forum_request_tables_:    479.
        7503    .._00116.info            forum_request_tables_:    479.
        4104    .._00116.names           forum_request_tables_:    479.
        1241    .._00117.call            forum_request_tables_:    484.
        7517    .._00117.info            forum_request_tables_:    484.
        4125    .._00117.names           forum_request_tables_:    484.
        1244    .._00120.call            forum_request_tables_:    489.
        7530    .._00120.info            forum_request_tables_:    489.
        4156    .._00120.names           forum_request_tables_:    489.
        1247    .._00121.call            forum_request_tables_:    494.
        7541    .._00121.info            forum_request_tables_:    494.
        4177    .._00121.names           forum_request_tables_:    494.
        1252    .._00122.call            forum_request_tables_:    499.
        7552    .._00122.info            forum_request_tables_:    499.
        4230    .._00122.names           forum_request_tables_:    499.
        1255    .._00123.call            forum_request_tables_:    504.
        7570    .._00123.info            forum_request_tables_:    504.
        4241    .._00123.names           forum_request_tables_:    504.
        1260    .._00124.call            forum_request_tables_:    510.
        7606    .._00124.info            forum_request_tables_:    510.
        4262    .._00124.names           forum_request_tables_:    510.
        1263    .._00125.call            forum_request_tables_:    516.
        7623    .._00125.info            forum_request_tables_:    516.
        4303    .._00125.names           forum_request_tables_:    516.
        1266    .._00126.call            forum_request_tables_:    522.
        7634    .._00126.info            forum_request_tables_:    522.
        4324    .._00126.names           forum_request_tables_:    522.
        1271    .._00127.call            forum_request_tables_:    527.
        7650    .._00127.info            forum_request_tables_:    527.
        4345    .._00127.names           forum_request_tables_:    527.
        1274    .._00130.call            forum_request_tables_:    533.
        7657    .._00130.info            forum_request_tables_:    533.
        4356    .._00130.names           forum_request_tables_:    533.
        1277    .._00131.call            forum_request_tables_:    538.
        7674    .._00131.info            forum_request_tables_:    538.
        4377    .._00131.names           forum_request_tables_:    538.
        1302    .._00132.call            forum_request_tables_:    543.
        7705    .._00132.info            forum_request_tables_:    543.
        4420    .._00132.names           forum_request_tables_:    543.
        1305    .._00133.call            forum_request_tables_:    548.
        7716    .._00133.info            forum_request_tables_:    548.
        4431    .._00133.names           forum_request_tables_:    548.
        1310    .._00134.call            forum_request_tables_:    553.
        7732    .._00134.info            forum_request_tables_:    553.
        4452    .._00134.names           forum_request_tables_:    553.
        1313    .._00135.call            forum_request_tables_:    558.
        7745    .._00135.info            forum_request_tables_:    558.
        4473    .._00135.names           forum_request_tables_:    558.
        1316    .._00136.call            forum_request_tables_:    563.
        7762    .._00136.info            forum_request_tables_:    563.
        4514    .._00136.names           forum_request_tables_:    563.
        1321    .._00137.call            forum_request_tables_:    568.
        7774    .._00137.info            forum_request_tables_:    568.
        4535    .._00137.names           forum_request_tables_:    568.
        1324    .._00140.call            forum_request_tables_:    573.
       10004    .._00140.info            forum_request_tables_:    573.
        4556    .._00140.names           forum_request_tables_:    573.
        1327    .._00141.call            forum_request_tables_:    579.
       10016    .._00141.info            forum_request_tables_:    579.
        4567    .._00141.names           forum_request_tables_:    579.
        1332    .._00142.call            forum_request_tables_:    585.
       10034    .._00142.info            forum_request_tables_:    585.
        4610    .._00142.names           forum_request_tables_:    585.
        1335    .._00143.call            forum_request_tables_:    590.
       10042    .._00143.info            forum_request_tables_:    590.
        4631    .._00143.names           forum_request_tables_:    590.
        1340    .._00144.call            forum_request_tables_:    595.
       10050    .._00144.info            forum_request_tables_:    595.
        4652    .._00144.names           forum_request_tables_:    595.
        1343    .._00145.call            forum_request_tables_:    599.
       10056    .._00145.info            forum_request_tables_:    599.
        4673    .._00145.names           forum_request_tables_:    599.
        1346    .._00146.call            forum_request_tables_:    604.
       10072    .._00146.info            forum_request_tables_:    604.
        4704    .._00146.names           forum_request_tables_:    604.
        1351    .._00147.call            forum_request_tables_:    609.
       10103    .._00147.info            forum_request_tables_:    609.
        4715    .._00147.names           forum_request_tables_:    609.
        1354    .._00150.call            forum_request_tables_:    615.
       10117    .._00150.info            forum_request_tables_:    615.
        4736    .._00150.names           forum_request_tables_:    615.
        1357    .._00151.call            forum_request_tables_:    621.
       10132    .._00151.info            forum_request_tables_:    621.
        4757    .._00151.names           forum_request_tables_:    621.
        1362    .._00152.call            forum_request_tables_:    627.
       10151    .._00152.info            forum_request_tables_:    627.
        5000    .._00152.names           forum_request_tables_:    627.
        1365    .._00153.call            forum_request_tables_:    633.
       10166    .._00153.info            forum_request_tables_:    633.
        5021    .._00153.names           forum_request_tables_:    633.
        1370    .._00154.call            forum_request_tables_:    639.
       10204    .._00154.info            forum_request_tables_:    639.
        5042    .._00154.names           forum_request_tables_:    639.
        1373    .._00155.call            forum_request_tables_:    645.
       10220    .._00155.info            forum_request_tables_:    645.
        5063    .._00155.names           forum_request_tables_:    645.
        1376    .._00156.call            forum_request_tables_:    651.
       10234    .._00156.info            forum_request_tables_:    651.
        5104    .._00156.names           forum_request_tables_:    651.
        1401    .._00157.call            forum_request_tables_:    657.
       10250    .._00157.info            forum_request_tables_:    657.
        5125    .._00157.names           forum_request_tables_:    657.
        1404    .._00160.call            forum_request_tables_:    663.
       10264    .._00160.info            forum_request_tables_:    663.
        5146    .._00160.names           forum_request_tables_:    663.
        1407    .._00161.call            forum_request_tables_:    669.
       10301    .._00161.info            forum_request_tables_:    669.
        5177    .._00161.names           forum_request_tables_:    669.
        1412    .._00162.call            forum_request_tables_:    675.
       10315    .._00162.info            forum_request_tables_:    675.
        5210    .._00162.names           forum_request_tables_:    675.
        1415    .._00163.call            forum_request_tables_:    681.
       10332    .._00163.info            forum_request_tables_:    681.
        5231    .._00163.names           forum_request_tables_:    681.
        1420    .._00164.call            forum_request_tables_:    687.
       10354    .._00164.info            forum_request_tables_:    687.
        5252    .._00164.names           forum_request_tables_:    687.
        1423    .._00165.call            forum_request_tables_:    693.
       10375    .._00165.info            forum_request_tables_:    693.
        5273    .._00165.names           forum_request_tables_:    693.
        1426    .._00166.call            forum_request_tables_:    699.
       10417    .._00166.info            forum_request_tables_:    699.
        5324    .._00166.names           forum_request_tables_:    699.
        1431    .._00167.call            forum_request_tables_:    705.
       10440    .._00167.info            forum_request_tables_:    705.
        5345    .._00167.names           forum_request_tables_:    705.
        1434    .._00170.call            forum_request_tables_:    711.
       10453    .._00170.info            forum_request_tables_:    711.
        5356    .._00170.names           forum_request_tables_:    711.
        1437    .._00171.call            forum_request_tables_:    717.
       10470    .._00171.info            forum_request_tables_:    717.
        5367    .._00171.names           forum_request_tables_:    717.
        1442    .._00172.call            forum_request_tables_:    723.
       10511    .._00172.info            forum_request_tables_:    723.
        5410    .._00172.names           forum_request_tables_:    723.
        1445    .._00173.call            forum_request_tables_:    729.
       10535    .._00173.info            forum_request_tables_:    729.
        5431    .._00173.names           forum_request_tables_:    729.
        1450    .._00174.call            forum_request_tables_:    735.
       10560    .._00174.info            forum_request_tables_:    735.
        5452    .._00174.names           forum_request_tables_:    735.
        1453    .._00175.call            forum_request_tables_:    741.
       10575    .._00175.info            forum_request_tables_:    741.
        5463    .._00175.names           forum_request_tables_:    741.
        1456    .._00176.call            forum_request_tables_:    747.
       10613    .._00176.info            forum_request_tables_:    747.
        5504    .._00176.names           forum_request_tables_:    747.
        1461    .._00177.call            forum_request_tables_:    753.
       10630    .._00177.info            forum_request_tables_:    753.
        5525    .._00177.names           forum_request_tables_:    753.
        1464    .._00200.call            forum_request_tables_:    759.
       10643    .._00200.info            forum_request_tables_:    759.
        5546    .._00200.names           forum_request_tables_:    759.
        1467    .._00201.call            forum_request_tables_:    765.
       10661    .._00201.info            forum_request_tables_:    765.
        5557    .._00201.names           forum_request_tables_:    765.
        1472    .._00202.call            forum_request_tables_:    771.
       10676    .._00202.info            forum_request_tables_:    771.
        5570    .._00202.names           forum_request_tables_:    771.
        1475    .._00203.call            forum_request_tables_:    777.
       10714    .._00203.info            forum_request_tables_:    777.
        5611    .._00203.names           forum_request_tables_:    777.
        1500    .._00204.call            forum_request_tables_:    783.
       10732    .._00204.info            forum_request_tables_:    783.
        5632    .._00204.names           forum_request_tables_:    783.
        1503    .._00205.call            forum_request_tables_:    789.
       10751    .._00205.info            forum_request_tables_:    789.
        5653    .._00205.names           forum_request_tables_:    789.
      600000    .dft_mrsf                forum_request_tables_:     26,  414.
           0    .dft_mruf                forum_request_tables_:     26,  414.
      400000    .dft_sf                  forum_request_tables_:     26,   31,   54,   59,   64,   75,   86,   98,  108,  119,
                                                                   142,  153,  164,  169,  174,  180,  203,  208,  212,  217,
                                                                   228,  414,  419,  436,  441,  446,  451,  462,  473,  484,
                                                                   489,  494,  499,  504,  527,  538,  543,  548,  553,  558,
                                                                   563,  568,  573,  585,  590,  595,  599,  604,  609.
           0    .dft_uf                  forum_request_tables_:     26,   31,   37,   43,   49,   54,   59,   64,   70,   75,
                                                                    81,   86,   92,   98,  103,  108,  114,  119,  125,  131,
                                                                   137,  142,  148,  153,  159,  164,  169,  174,  180,  185,
                                                                   191,  197,  203,  208,  212,  217,  223,  228,  234,  240,
                                                                   246,  252,  258,  264,  270,  276,  282,  288,  294,  300,
                                                                   306,  312,  318,  324,  330,  336,  342,  348,  354,  360,
                                                                   366,  372,  378,  384,  390,  396,  402,  408,  414,  419,
                                                                   425,  431,  436,  441,  446,  451,  457,  462,  468,  473,
                                                                   479,  484,  489,  494,  499,  504,  510,  516,  522,  527,
                                                                   533,  538,  543,  548,  553,  558,  563,  568,  573,  579,
                                                                   585,  590,  595,  599,  604,  609,  615,  621,  627,  633,
                                                                   639,  645,  651,  657,  663,  669,  675,  681,  687,  693,
                                                                   699,  705,  711,  717,  723,  729,  735,  741,  747,  753,
                                                                   759,  765,  771,  777,  783,  789.
         153    .rc                      forum_request_tables_:     26,   31,   37,   43,   49,   54,   59,   64,   70,   75,
                                                                    81,   86,   92,   98,  103,  108,  114,  119,  125,  131,
                                                                   137,  142,  148,  153,  159,  164,  169,  174,  180,  185,
                                                                   191,  197,  203,  208,  212,  217,  223,  228,  234,  240,
                                                                   246,  252,  258,  264,  270,  276,  282,  288,  294,  300,
                                                                   306,  312,  318,  324,  330,  336,  342,  348,  354,  360,
                                                                   366,  372,  378,  384,  390,  396,  402,  408,  412,  414,
                                                                   419,  425,  431,  436,  441,  446,  451,  457,  462,  468,
                                                                   473,  479,  484,  489,  494,  499,  504,  510,  516,  522,
                                                                   527,  533,  538,  543,  548,  553,  558,  563,  568,  573,
                                                                   579,  585,  590,  595,  599,  604,  609,  615,  621,  627,
                                                                   633,  639,  645,  651,  657,  663,  669,  675,  681,  687,
                                                                   693,  699,  705,  711,  717,  723,  729,  735,  741,  747,
                                                                   753,  759,  765,  771,  777,  783,  789,  793.
      630000    .sf                      forum_request_tables_:     31,   37,   43,   49,   54,   59,   64,   70,   75,   81,
                                                                    86,   92,   98,  103,  108,  114,  119,  125,  131,  137,
                                                                   142,  148,  153,  159,  164,  169,  174,  180,  185,  191,
                                                                   197,  203,  208,  212,  217,  223,  228,  234,  240,  246,
                                                                   252,  258,  264,  270,  276,  282,  288,  294,  300,  306,
                                                                   312,  318,  324,  330,  336,  342,  348,  354,  360,  366,
                                                                   372,  378,  384,  390,  396,  402,  408,  419,  425,  431,
                                                                   436,  441,  446,  451,  457,  462,  468,  473,  479,  484,
                                                                   489,  494,  499,  504,  510,  516,  522,  527,  533,  538,
                                                                   543,  548,  553,  558,  563,  568,  573,  579,  585,  590,
                                                                   595,  599,  604,  609,  615,  621,  627,  633,  639,  645,
                                                                   651,  657,  663,  669,  675,  681,  687,  693,  699,  705,
                                                                   711,  717,  723,  729,  735,  741,  747,  753,  759,  765,
                                                                   771,  777,  783,  789.
           0    .uf                      forum_request_tables_:     31,   37,   43,   49,   54,   59,   64,   70,   75,   81,
                                                                    86,   92,   98,  103,  108,  114,  119,  125,  131,  137,
                                                                   142,  148,  153,  159,  164,  169,  174,  180,  185,  191,
                                                                   197,  203,  208,  212,  217,  223,  228,  234,  240,  246,
                                                                   252,  258,  264,  270,  276,  282,  288,  294,  300,  306,
                                                                   312,  318,  324,  330,  336,  342,  348,  354,  360,  366,
                                                                   372,  378,  384,  390,  396,  402,  408,  419,  425,  431,
                                                                   436,  441,  446,  451,  457,  462,  468,  473,  479,  484,
                                                                   489,  494,  499,  504,  510,  516,  522,  527,  533,  538,
                                                                   543,  548,  553,  558,  563,  568,  573,  579,  585,  590,
                                                                   595,  599,  604,  609,  615,  621,  627,  633,  639,  645,
                                                                   651,  657,  663,  669,  675,  681,  687,  693,  699,  705,
                                                                   711,  717,  723,  729,  735,  741,  747,  753,  759,  765,
                                                                   771,  777,  783,  789.
                add_meeting              forum_request_tables_:     59,  446.
                add_participant          forum_request_tables_:    234,  615.
                add_project              forum_request_tables_:    240,  621.
                all_request              forum_request_tables_:    324,  705.
                announcement_info        forum_request_tables_:     70,  457.
                announce_meeting         forum_request_tables_:     64,  451.
                apply_request            forum_request_tables_:     75,  462.
                aref_request             forum_request_tables_:    336,  717.
                bref_request             forum_request_tables_:    348,  729.
         664    calls                    forum_request_tables_:     31,   37,   43,   49,   54,   59,   64,   70,   75,   81,
                                                                    86,   92,   98,  103,  108,  114,  119,  125,  131,  137,
                                                                   142,  148,  153,  159,  164,  169,  174,  180,  185,  191,
                                                                   197,  203,  208,  212,  217,  223,  228,  234,  240,  246,
                                                                   252,  258,  264,  270,  276,  282,  288,  294,  300,  306,
                                                                   312,  318,  324,  330,  336,  342,  348,  354,  360,  366,
                                                                   372,  378,  384,  390,  396,  402,  408,  419,  425,  431,
                                                                   436,  441,  446,  451,  457,  462,  468,  473,  479,  484,
                                                                   489,  494,  499,  504,  510,  516,  522,  527,  533,  538,
                                                                   543,  548,  553,  558,  563,  568,  573,  579,  585,  590,
                                                                   595,  599,  604,  609,  615,  621,  627,  633,  639,  645,
                                                                   651,  657,  663,  669,  675,  681,  687,  693,  699,  705,
                                                                   711,  717,  723,  729,  735,  741,  747,  753,  759,  765,
                                                                   771,  777,  783,  789,
                                         ssu_request_macros:       311,  314.
        1170    call_offset              stack_header:        80.
                chairman_request         forum_request_tables_:     81,  468.
         332    chairman_requests        forum_request_tables_:    414.
         103    chairman_requests.rc     forum_request_tables_:    414,  793.
                check_meetings           forum_request_tables_:     86,  473.
                current_meeting          forum_request_tables_:     92,  479.
                current_request          forum_request_tables_:    294,  675.
                delete_participant       forum_request_tables_:    103,  489.
                delete_transactions      forum_request_tables_:     98,  484.
                dot_request              forum_request_tables_:     31,  419.
                enter_request            forum_request_tables_:    108,  494.
        1174    entry_offset             stack_header:        84.
                expunge                  forum_request_tables_:    114,  499.
                fill_request             forum_request_tables_:    119,  504.
                first_request            forum_request_tables_:    270,  651.
                first_seen_request       forum_request_tables_:    360,  741.
                first_unseen_request     forum_request_tables_:    390,  771.
      200000    flags.allow_af           forum_request_tables_:     26,  414,
                                         ssu_request_macros:        33.
      600000    flags.allow_both         forum_request_tables_:     43,   70,   81,   92,  125,  131,  137,  148,  197,  270,
                                                                   276,  282,  288,  294,  300,  306,  312,  318,  324,  330,
                                                                   336,  342,  348,  354,  360,  366,  372,  378,  384,  390,
                                                                   396,  402,  408,  431,  457,  468,  479,  510,  516,  522,
                                                                   533,  579,  651,  657,  663,  669,  675,  681,  687,  693,
                                                                   699,  705,  711,  717,  723,  729,  735,  741,  747,  753,
                                                                   759,  765,  771,  777,  783,  789,
                                         ssu_request_macros:        34.
      400000    flags.allow_command      forum_request_tables_:     26,   37,   49,  103,  114,  159,  185,  191,  223,  234,
                                                                   240,  246,  252,  258,  264,  414,  425,  615,  621,  627,
                                                                   633,  639,  645,
                                         ssu_request_macros:        32.
       10000    flags.dont_list          forum_request_tables_:    103,  114,  159,  185,  191,  223,  234,  240,  246,  252,
                                                                   258,  264,  270,  276,  282,  288,  294,  300,  306,  312,
                                                                   318,  324,  330,  336,  342,  348,  354,  360,  366,  372,
                                                                   378,  384,  390,  396,  402,  408,  651,  657,  663,  669,
                                                                   675,  681,  687,  693,  699,  705,  711,  717,  723,  729,
                                                                   735,  741,  747,  753,  759,  765,  771,  777,  783,  789,
                                         ssu_request_macros:        40.
       20000    flags.dont_summarize     forum_request_tables_:    103,  114,  159,  185,  191,  223,  234,  240,  246,  252,
                                                                   258,  264,  270,  276,  282,  288,  294,  300,  306,  312,
                                                                   318,  324,  330,  336,  342,  348,  354,  360,  366,  372,
                                                                   378,  384,  390,  396,  402,  408,  651,  657,  663,  669,
                                                                   675,  681,  687,  693,  699,  705,  711,  717,  723,  729,
                                                                   735,  741,  747,  753,  759,  765,  771,  777,  783,  789,
                                         ssu_request_macros:        39.
       40000    flags.multics_request    ssu_request_macros:        37.
      100000    flags.unimplemented      ssu_request_macros:        36.
        4000    flags.unknown            ssu_request_macros:        42.
                forum_add_meeting        forum_request_tables_:     59,   70,  164,  446,  457,  548.
                forum_add_participant    forum_request_tables_:    234,  240,  246,  252,  258,  264,  615,  621,  627,  633,
                                                                   639,  645.
                forum_create             forum_request_tables_:     64,  451.
                forum_dir_request        forum_request_tables_:    125,  510.
                forum_input_requests_    forum_request_tables_:     75,  108,  119,  153,  169,  191,  197,  212,  217,  462,
                                                                   494,  504,  538,  553,  573,  579,  595,  599.
                forum_list_meetings      forum_request_tables_:     86,  131,  148,  473,  516,  533.
                forum_list_request       forum_request_tables_:    131,  516.
                forum_list_users         forum_request_tables_:    137,  522.
                forum_mailer_            forum_request_tables_:    142,  527.
                forum_misc_requests_     forum_request_tables_:     31,   81,   92,  103,  114,  125,  159,  185,  203,  208,
                                                                   223,  419,  468,  479,  489,  499,  510,  543,  568,  585,
                                                                   590,  604.
                forum_output_requests_   forum_request_tables_:     43,   49,   98,  174,  180,  228,  431,  436,  484,  558,
                                                                   563,  609.
                forum_requests_          forum_request_tables_:     37,   54,  425,  441.
                forum_trans_specs_       forum_request_tables_:    270,  276,  282,  288,  294,  300,  306,  312,  318,  324,
                                                                   330,  336,  342,  348,  354,  360,  366,  372,  378,  384,
                                                                   390,  396,  402,  408,  651,  657,  663,  669,  675,  681,
                                                                   687,  693,  699,  705,  711,  717,  723,  729,  735,  741,
                                                                   747,  753,  759,  765,  771,  777,  783,  789.
                fref_request             forum_request_tables_:    300,  681.
                goto_request             forum_request_tables_:     37,  425.
        5674    info                     forum_request_tables_:     31,   37,   43,   49,   54,   59,   64,   70,   75,   81,
                                                                    86,   92,   98,  103,  108,  114,  119,  125,  131,  137,
                                                                   142,  148,  153,  159,  164,  169,  174,  180,  185,  191,
                                                                   197,  203,  208,  212,  217,  223,  228,  234,  240,  246,
                                                                   252,  258,  264,  270,  276,  282,  288,  294,  300,  306,
                                                                   312,  318,  324,  330,  336,  342,  348,  354,  360,  366,
                                                                   372,  378,  384,  390,  396,  402,  408,  419,  425,  431,
                                                                   436,  441,  446,  451,  457,  462,  468,  473,  479,  484,
                                                                   489,  494,  499,  504,  510,  516,  522,  527,  533,  538,
                                                                   543,  548,  553,  558,  563,  568,  573,  579,  585,  590,
                                                                   595,  599,  604,  609,  615,  621,  627,  633,  639,  645,
                                                                   651,  657,  663,  669,  675,  681,  687,  693,  699,  705,
                                                                   711,  717,  723,  729,  735,  741,  747,  753,  759,  765,
                                                                   771,  777,  783,  789,
                                         ssu_request_macros:       313,  314.
                last_request             forum_request_tables_:    276,  657.
                last_seen_request        forum_request_tables_:    378,  759.
                last_unseen_request      forum_request_tables_:    408,  789.
                list_transactions        forum_request_tables_:     43,  431.
                list_users_request       forum_request_tables_:    137,  522.
                lref_request             forum_request_tables_:    306,  687.
                mail                     forum_request_tables_:    142,  527.
                make_public              forum_request_tables_:    258,  639.
        1506    names                    forum_request_tables_:     31,   37,   43,   49,   54,   59,   64,   70,   75,   81,
                                                                    86,   92,   98,  103,  108,  114,  119,  125,  131,  137,
                                                                   142,  148,  153,  159,  164,  169,  174,  180,  185,  191,
                                                                   197,  203,  208,  212,  217,  223,  228,  234,  240,  246,
                                                                   252,  258,  264,  270,  276,  282,  288,  294,  300,  306,
                                                                   312,  318,  324,  330,  336,  342,  348,  354,  360,  366,
                                                                   372,  378,  384,  390,  396,  402,  408,  419,  425,  431,
                                                                   436,  441,  446,  451,  457,  462,  468,  473,  479,  484,
                                                                   489,  494,  499,  504,  510,  516,  522,  527,  533,  538,
                                                                   543,  548,  553,  558,  563,  568,  573,  579,  585,  590,
                                                                   595,  599,  604,  609,  615,  621,  627,  633,  639,  645,
                                                                   651,  657,  663,  669,  675,  681,  687,  693,  699,  705,
                                                                   711,  717,  723,  729,  735,  741,  747,  753,  759,  765,
                                                                   771,  777,  783,  789,
                                         ssu_request_macros:       312,  314.
                new_request              forum_request_tables_:    330,  711.
                next_meeting             forum_request_tables_:    148,  533.
                next_request             forum_request_tables_:    288,  669.
                next_seen_request        forum_request_tables_:    366,  747.
                next_unseen_request      forum_request_tables_:    396,  777.
                nref_request             forum_request_tables_:    318,  699.
                pref_request             forum_request_tables_:    312,  693.
                previous_request         forum_request_tables_:    282,  663.
                prev_seen_request        forum_request_tables_:    372,  753.
                prev_unseen_request      forum_request_tables_:    402,  783.
                print_transactions       forum_request_tables_:     49,  436.
        1171    push_offset              stack_header:        81.
                qedx_request             forum_request_tables_:    153,  538.
                quit_request             forum_request_tables_:     54,  441.
                rechain                  forum_request_tables_:    159,  543.
                remove_meeting           forum_request_tables_:    164,  548.
                remove_participant       forum_request_tables_:    246,  627.
                remove_project           forum_request_tables_:    252,  633.
                reply_request            forum_request_tables_:    169,  553.
                reset_transaction        forum_request_tables_:    174,  558.
                retrieve_participant     forum_request_tables_:    185,  568.
                retrieve_transactions    forum_request_tables_:    180,  563.
        1173    return_no_pop_offset     stack_header:        83.
        1172    return_offset            stack_header:        82.
                rref_request             forum_request_tables_:    342,  723.
                seen_request             forum_request_tables_:    354,  735.
                set_message              forum_request_tables_:    191,  573.
          73    stach_header.trace_top_ptr     stack_header:        62.
          66    stack_header.assign_linkage_ptr      stack_header:        59.
          32    stack_header.bar_mode_sp       stack_header:        42.
          36    stack_header.call_op_ptr       stack_header:        44.
          10    stack_header.clr_ptr     stack_header:        27.
           6    stack_header.combined_stat_ptr       stack_header:        25.
           4    stack_header.cpm_data_ptr      stack_header:        24.
          13    stack_header.cpm_enabled       stack_header:        32.
          13    stack_header.cur_lot_size      stack_header:        31.
          64    stack_header.ect_ptr     stack_header:        58.
          46    stack_header.entry_op_ptr      stack_header:        49.
          70    stack_header.heap_header_ptr   stack_header:        60.
          74    stack_header.in_trace    stack_header:        63.
          52    stack_header.isot_ptr    stack_header:        52.
          26    stack_header.lot_ptr     forum_request_tables_:     31,   37,   43,   49,   54,   59,   64,   70,   75,   81,
                                                                    86,   92,   98,  103,  108,  114,  119,  125,  131,  137,
                                                                   142,  148,  153,  159,  164,  169,  174,  180,  185,  191,
                                                                   197,  203,  208,  212,  217,  223,  228,  234,  240,  246,
                                                                   252,  258,  264,  270,  276,  282,  288,  294,  300,  306,
                                                                   312,  318,  324,  330,  336,  342,  348,  354,  360,  366,
                                                                   372,  378,  384,  390,  396,  402,  408,  419,  425,  431,
                                                                   436,  441,  446,  451,  457,  462,  468,  473,  479,  484,
                                                                   489,  494,  499,  504,  510,  516,  522,  527,  533,  538,
                                                                   543,  548,  553,  558,  563,  568,  573,  579,  585,  590,
                                                                   595,  599,  604,  609,  615,  621,  627,  633,  639,  645,
                                                                   651,  657,  663,  669,  675,  681,  687,  693,  699,  705,
                                                                   711,  717,  723,  729,  735,  741,  747,  753,  759,  765,
                                                                   771,  777,  783,  789,
                                         stack_header:        39.
          12    stack_header.main_proc_invoked       stack_header:        29.
          12    stack_header.max_lot_size      stack_header:        28.
          20    stack_header.parent_ptr  stack_header:        36.
          34    stack_header.pl1_operators_ptr       stack_header:        43.
          40    stack_header.push_op_ptr       stack_header:        46.
          42    stack_header.return_op_ptr     stack_header:        47.
          44    stack_header.ret_no_pop_op_ptr       stack_header:        48.
          62    stack_header.rnt_ptr     stack_header:        57.
          12    stack_header.run_unit_depth    stack_header:        30.
          54    stack_header.sct_ptr     stack_header:        53.
          30    stack_header.signal_ptr  stack_header:        41.
          22    stack_header.stack_begin_ptr   stack_header:        37.
          24    stack_header.stack_end_ptr     stack_header:        38.
          14    stack_header.system_free_ptr   stack_header:        33.
          60    stack_header.sys_link_info_ptr       stack_header:        56.
          72    stack_header.trace_frames      stack_header:        61.
          50    stack_header.trans_op_tv_ptr   stack_header:        51.
          56    stack_header.unwinder_ptr      stack_header:        54.
          16    stack_header.user_free_ptr     stack_header:        34.
         100    stack_header_end         stack_header:        64.
                subject_request          forum_request_tables_:    197,  579.
                switch_off               forum_request_tables_:    203,  585.
                switch_on                forum_request_tables_:    208,  590.
           0    tables                   forum_request_tables_:     26,   31,   37,   43,   49,   54,   59,   64,   70,   75,
                                                                    81,   86,   92,   98,  103,  108,  114,  119,  125,  131,
                                                                   137,  142,  148,  153,  159,  164,  169,  174,  180,  185,
                                                                   191,  197,  203,  208,  212,  217,  223,  228,  234,  240,
                                                                   246,  252,  258,  264,  270,  276,  282,  288,  294,  300,
                                                                   306,  312,  318,  324,  330,  336,  342,  348,  354,  360,
                                                                   366,  372,  378,  384,  390,  396,  402,  408,  414,  419,
                                                                   425,  431,  436,  441,  446,  451,  457,  462,  468,  473,
                                                                   479,  484,  489,  494,  499,  504,  510,  516,  522,  527,
                                                                   533,  538,  543,  548,  553,  558,  563,  568,  573,  579,
                                                                   585,  590,  595,  599,  604,  609,  615,  621,  627,  633,
                                                                   639,  645,  651,  657,  663,  669,  675,  681,  687,  693,
                                                                   699,  705,  711,  717,  723,  729,  735,  741,  747,  753,
                                                                   759,  765,  771,  777,  783,  789,
                                         ssu_request_macros:       310,  314.
                talk_request             forum_request_tables_:    212,  595.
                ted_request              forum_request_tables_:    217,  599.
           0    trace_frames.count       stack_header:        69.
           1    trace_frames.top_ptr     stack_header:        70.
         551    tv_offset                stack_header:        75,   80,   81,   82,   83,   84.
                unchain                  forum_request_tables_:    223,  604.
                unmake_public            forum_request_tables_:    264,  645.
                unseen_request           forum_request_tables_:    384,  765.
           0    user_requests            forum_request_tables_:     26.
         103    user_requests.rc         forum_request_tables_:     26,  412.
                write_transactions       forum_request_tables_:    228,  609.


NO FATAL ERRORS


                                          -----------------------------------------------------------


Historical Background

This edition of the Multics software materials and documentation is provided and donated
to Massachusetts Institute of Technology by Group BULL including BULL HN Information Systems Inc.
as a contribution to computer science knowledge.
This donation is made also to give evidence of the common contributions of Massachusetts Institute of Technology,
Bell Laboratories, General Electric, Honeywell Information Systems Inc., Honeywell BULL Inc., Groupe BULL
and BULL HN Information Systems Inc. to the development of this operating system.
Multics development was initiated by Massachusetts Institute of Technology Project MAC (1963-1970),
renamed the MIT Laboratory for Computer Science and Artificial Intelligence in the mid 1970s, under the leadership
of Professor Fernando Jose Corbato. Users consider that Multics provided the best software architecture
for managing computer hardware properly and for executing programs. Many subsequent operating systems
incorporated Multics principles.
Multics was distributed in 1975 to 2000 by Group Bull in Europe , and in the U.S. by Bull HN Information Systems Inc.,
as successor in interest by change in name only to Honeywell Bull Inc. and Honeywell Information Systems Inc. .

                                          -----------------------------------------------------------

Permission to use, copy, modify, and distribute these programs and their documentation for any purpose and without
fee is hereby granted,provided that the below copyright notice and historical background appear in all copies
and that both the copyright notice and historical background and this permission notice appear in supporting
documentation, and that the names of MIT, HIS, BULL or BULL HN not be used in advertising or publicity pertaining
to distribution of the programs without specific prior written permission.
    Copyright 1972 by Massachusetts Institute of Technology and Honeywell Information Systems Inc.
    Copyright 2006 by BULL HN Information Systems Inc.
    Copyright 2006 by Bull SAS
    All Rights Reserved
