ASSEMBLY LISTING OF SEGMENT >spec>on>11/30/82>forward_command_.alm
ASSEMBLED ON:	11/30/82  1336.7 mst Tue
OPTIONS USED:	list
ASSEMBLED BY:	ALM Version  6.4  April 1981
ASSEMBLER CREATED:	11/03/82  1423.6 mst Wed

                                     1  " ***********************************************************
                                     2  " *                                                         *
                                     3  " * Copyright, (C) Honeywell Information Systems Inc., 1982 *
                                     4  " *                                                         *
                                     5  " * Copyright (c) 1978 by Massachusetts Institute of        *
                                     6  " * Technology and Honeywell Information Systems, Inc.      *
                                     7  " *                                                         *
                                     8  " * Copyright (c) 1972 by Massachusetts Institute of        *
                                     9  " * Technology and Honeywell Information Systems, Inc.      *
                                    10  " *                                                         *
                                    11  " ***********************************************************
                                    12  "
    000000                          13  	name	forward_command_
                        000000      14  	segdef	forward_command_
    000000                          15  forward_command_:
    000000  aa  0 00002 3515 20     16  	eppab	ap|2,*
    000001  aa  1 00000 3515 20     17  	eppab	ab|0,*
    000002  0a   000016 2270 00     18  	ldx7	pushinst
    000003  aa   000002 6270 17     19  	eax7	2,7
    000004  aa  1 00000 0671 00     20  	adx7	ab|0
    000005  aa  1 00001 0671 00     21  	adx7	ab|1
    000006  aa  1 00000 7261 00     22  	lxl6	ab|0
    000007  aa   000010 1060 03     23  	cmpx6	8,du
    000010  0a   000012 6010 00     24  	tnz	*+2
    000011  aa   000002 6270 17     25  	eax7	2,7
    000012  aa   000004 6270 17     26  	eax7	4,7
    000013  aa   000017 0670 03     27  	adx7	15,du
    000014  aa   777760 3670 03     28  	anx7	-16,du
    000015  0a   000017 7100 00     29  	tra	pushinst+1
    000016  aa   000060 6270 00     30  pushinst:	push
    000017  aa  7 00040 2721 20
    000020  0a   000016 2270 00     31  	ldx7	pushinst
    000021  aa  6 00000 3521 17     32  	eppbp	sp|0,7
    000022  aa  1 00000 2371 00     33  	ldaq	ab|0
    000023  aa   000002 0750 03     34  	ada	2,du
    000024  aa   000002 0760 03     35  	adq	2,du
    000025  aa  2 00000 7571 00     36  	staq	bp|0
    000026  aa  0 00006 3535 20     37  	eppbb	ap|6,*
    000027  aa  2 00002 2535 00     38  	spribb	bp|2
    000030  aa  2 00004 3521 00     39  	eppbp	bp|4
    000031  aa  1 00000 2261 00     40  	ldx6	ab|0
    000032  aa   777776 6260 16     41  lp1:	eax6	-2,6
    000033  0a   000037 6040 00     42  	tmi	l1done
    000034  aa  1 00002 2371 16     43  	ldaq	ab|2,6
    000035  aa  2 00000 7571 16     44  	staq	bp|0,x6
    000036  0a   000032 7100 00     45  	tra	lp1
    000037  aa  1 00000 7201 00     46  l1done:	lxl0	ab|0
    000040  aa  1 00000 2261 00     47  	ldx6	ab|0
    000041  aa  2 00000 3521 16     48  	eppbp	bp|0,x6
    000042  aa  1 00000 2251 00     49  	ldx5	ab|0
    000043  aa   000010 1000 03     50  	cmpx0	8,du
    000044  0a   000052 6010 00     51  	tnz	nosp
    000045  aa   000002 6250 15     52  	eax5	2,5
    000046  aa  1 00000 2261 00     53  	ldx6	ab|0
    000047  aa  1 00002 2371 16     54  	ldaq	ab|2,6
    000050  aa  2 00000 7571 00     55  	staq	bp|0
    000051  aa  2 00002 3521 00     56  	eppbp	bp|2
    000052                          57  nosp:
    000052  aa  0 00014 3535 20     58  	eppbb	ap|12,*
    000053  aa  2 00000 2535 00     59  	spribb	bp|0
    000054  aa  2 00002 3521 00     60  	eppbp	bp|2
    000055  aa  1 00001 2261 00     61  	ldx6	ab|1
    000056  aa  1 00002 3535 15     62  	eppbb	ab|2,5
    000057  aa   777776 6260 16     63  lp2:	eax6	-2,6
    000060  0a   000064 6040 00     64  	tmi	l2done
    000061  aa  3 00000 2371 16     65  	ldaq	bb|0,6
    000062  aa  2 00000 7571 16     66  	staq	bp|0,6
    000063  0a   000057 7100 00     67  	tra	lp2
    000064                          68  l2done:
    000064  aa  0 00004 3515 20     69  	eppab	ap|4,*
    000065  aa  1 00000 3515 20     70  	eppab	ab|0,*
    000066  aa  6 00000 3501 17     71  	eppap	sp|0,x7
    000067  aa  1 00000 3521 00     72  	short_call	ab|0
    000070  aa  7 00036 6701 20
    000071  aa  6 00030 3701 20
    000072  aa  7 00042 7101 20     73  	return
                                    74  	end

NO LITERALS

NAME DEFINITIONS FOR ENTRY POINTS AND SEGDEFS

    000074  5a   000003 000000
    000075  5a   000032 600000
    000076  aa   000000 000000
    000077  55   000013 000002
    000100  5a   000002 400003
    000101  55   000006 000013
    000102  aa  020 146 157 162
    000103  aa  167 141 162 144
    000104  aa  137 143 157 155
    000105  aa  155 141 156 144
    000106  aa  137 000 000 000
    000107  55   000023 000003
    000110  0a   000000 400000
    000111  55   000016 000003
    000112  aa  020 146 157 162         forward_command_
    000113  aa  167 141 162 144
    000114  aa  137 143 157 155
    000115  aa  155 141 156 144
    000116  aa  137 000 000 000
    000117  55   000002 000013
    000120  6a   000000 400002
    000121  55   000026 000003
    000122  aa  014 163 171 155         symbol_table
    000123  aa  142 157 154 137
    000124  aa  164 141 142 154
    000125  aa  145 000 000 000

DEFINITIONS HASH TABLE

    000126  aa   000000 000015
    000127  aa   000000 000000
    000130  aa   000000 000000
    000131  aa   000000 000000
    000132  aa   000000 000000
    000133  aa   000000 000000
    000134  aa   000000 000000
    000135  5a   000013 000000
    000136  5a   000023 000000
    000137  aa   000000 000000
    000140  aa   000000 000000
    000141  aa   000000 000000
    000142  aa   000000 000000
    000143  aa   000000 000000

NO EXTERNAL NAMES

NO TRAP POINTER WORDS

TYPE PAIR BLOCKS

    000144  aa   000001 000000
    000145  aa   000000 000000

INTERNAL EXPRESSION WORDS

LINKAGE INFORMATION

    000000  aa   000000 000000
    000001  0a   000074 000000
    000002  aa   000000 000000
    000003  aa   000000 000000
    000004  aa   000000 000000
    000005  aa   000000 000000
    000006  22   000010 000010
    000007  a2   000000 000000
SYMBOL INFORMATION

SYMBOL TABLE HEADER

    000000  aa   000000 000001
    000001  aa   163171 155142
    000002  aa   164162 145145
    000003  aa   000000 000004
    000004  aa   000000 111316
    000005  aa   510113 575622
    000006  aa   000000 111360
    000007  aa   427714 322123
    000010  aa   141154 155040
    000011  aa   040040 040040
    000012  aa   000024 000040
    000013  aa   000034 000040
    000014  aa   000044 000100
    000015  aa   000002 000002
    000016  aa   000064 000000
    000017  aa   000000 000124
    000020  aa   000000 000104
    000021  aa   000000 000113
    000022  aa   000116 000104
    000023  aa   000064 000000
    000024  aa   101114 115040
    000025  aa   126145 162163
    000026  aa   151157 156040
    000027  aa   040066 056064
    000030  aa   040040 101160
    000031  aa   162151 154040
    000032  aa   061071 070061
    000033  aa   040040 040040
    000034  aa   110157 154155
    000035  aa   163164 145144
    000036  aa   164056 123171
    000037  aa   163115 141151
    000040  aa   156164 056155
    000041  aa   040040 040040
    000042  aa   040040 040040
    000043  aa   040040 040040
    000044  aa   154151 163164
    000045  aa   040040 040040
    000046  aa   040040 040040
    000047  aa   040040 040040
    000050  aa   040040 040040
    000051  aa   040040 040040
    000052  aa   040040 040040
    000053  aa   040040 040040
    000054  aa   040040 040040
    000055  aa   040040 040040
    000056  aa   040040 040040
    000057  aa   040040 040040
    000060  aa   040040 040040
    000061  aa   040040 040040
    000062  aa   040040 040040
    000063  aa   040040 040040
    000064  aa   000000 000001
    000065  aa   000000 000001
    000066  aa   000072 000046
    000067  aa   113435 165023
    000070  aa   000000 111360
    000071  aa   426475 000000
    000072  aa   076163 160145          >spec>on>11/30/82>forward_command_.alm
    000073  aa   143076 157156
    000074  aa   076061 061057
    000075  aa   063060 057070
    000076  aa   062076 146157
    000077  aa   162167 141162
    000100  aa   144137 143157
    000101  aa   155155 141156
    000102  aa   144137 056141
    000103  aa   154155 040040
               MULTICS ASSEMBLY CROSS REFERENCE LISTING

   Value        Symbol                   Source file   Line number

           0    forward_command_         forward_command_:    14,   15.
          37    l1done                   forward_command_:    42,   46.
          64    l2done                   forward_command_:    64,   68.
          32    lp1                      forward_command_:    41,   45.
          57    lp2                      forward_command_:    63,   67.
          52    nosp                     forward_command_:    51,   57.
          16    pushinst                 forward_command_:    18,   29,   30,   31.


NO FATAL ERRORS


                                          -----------------------------------------------------------


Historical Background

This edition of the Multics software materials and documentation is provided and donated
to Massachusetts Institute of Technology by Group BULL including BULL HN Information Systems Inc.
as a contribution to computer science knowledge.
This donation is made also to give evidence of the common contributions of Massachusetts Institute of Technology,
Bell Laboratories, General Electric, Honeywell Information Systems Inc., Honeywell BULL Inc., Groupe BULL
and BULL HN Information Systems Inc. to the development of this operating system.
Multics development was initiated by Massachusetts Institute of Technology Project MAC (1963-1970),
renamed the MIT Laboratory for Computer Science and Artificial Intelligence in the mid 1970s, under the leadership
of Professor Fernando Jose Corbato. Users consider that Multics provided the best software architecture
for managing computer hardware properly and for executing programs. Many subsequent operating systems
incorporated Multics principles.
Multics was distributed in 1975 to 2000 by Group Bull in Europe , and in the U.S. by Bull HN Information Systems Inc.,
as successor in interest by change in name only to Honeywell Bull Inc. and Honeywell Information Systems Inc. .

                                          -----------------------------------------------------------

Permission to use, copy, modify, and distribute these programs and their documentation for any purpose and without
fee is hereby granted,provided that the below copyright notice and historical background appear in all copies
and that both the copyright notice and historical background and this permission notice appear in supporting
documentation, and that the names of MIT, HIS, BULL or BULL HN not be used in advertising or publicity pertaining
to distribution of the programs without specific prior written permission.
    Copyright 1972 by Massachusetts Institute of Technology and Honeywell Information Systems Inc.
    Copyright 2006 by BULL HN Information Systems Inc.
    Copyright 2006 by Bull SAS
    All Rights Reserved
