ASSEMBLY LISTING OF SEGMENT >spec>online>spec0227>gcos_daemon_stat_.alm
ASSEMBLED ON:	02/27/78  0957.5 mst Mon
OPTIONS USED:	list
ASSEMBLED BY:	ALM Version 6.1, June 1977
ASSEMBLER CREATED:	08/03/77  1524.2 mst Wed

                                     1  "  ******************************************************
                                     2  "  *                                                    *
                                     3  "  *                                                    *
                                     4  "  * Copyright (c) 1972 by Massachusetts Institute of   *
                                     5  "  * Technology and Honeywell Information Systems, Inc. *
                                     6  "  *                                                    *
                                     7  "  *                                                    *
                                     8  "  ******************************************************
                                     9
                                    10
                                    11
                                    12  "  ********************************************************************
                                    13  "  *							*
                                    14  "  *	WRITTEN BY:	P Haber		March 21,1974	*
                                    15  "  *	MODIFIED BY:	R.H. Morrison	May 22, 1974	*
                                    16  "  *					Nov. 12, 1974	*
                                    17  "  *							*
                                    18  "  ********************************************************************
                                    19
                                    20
    000000                          21  name	gcos_daemon_stat_
                                    22  use	linkc
                                    23  join	/link/linkc
                                    24
                        000010      25  segdef	anonymous_user				"name of default anonymous user
    000010  aa  101 156 157 156     26  anonymous_user:	aci	"Anonymous.GCOS.g"
    000011  aa  171 155 157 165
    000012  aa  163 056 107 103
    000013  aa  117 123 056 147
                                    27
                        000014      28  segdef	anonymous_user_len
    000014  aa   000000 000020      29  anonymous_user_len:	dec	16
                                    30
                        000015      31  segdef	snumb					"current snumb
    000015  aa  040 040 040 040     32  snumb:	aci	"      "
    000016  aa  040 040 000 000
                                    33
                        000017      34  segdef	default_home_dir				"default absentee job home dir
    000017  aa  076 144 144 144     35  default_home_dir:	aci	">ddd>GCOS>Anonymous",168
    000020  aa  076 107 103 117
    000021  aa  123 076 101 156
    000022  aa  157 156 171 155
    000023  aa  157 165 163 040
    000024  aa  040 040 040 040
    000025  aa  040 040 040 040
    000026  aa  040 040 040 040
    000027  aa  040 040 040 040
    000030  aa  040 040 040 040
    000031  aa  040 040 040 040
    000032  aa  040 040 040 040
    000033  aa  040 040 040 040
    000034  aa  040 040 040 040
    000035  aa  040 040 040 040
    000036  aa  040 040 040 040
    000037  aa  040 040 040 040
    000040  aa  040 040 040 040
    000041  aa  040 040 040 040
    000042  aa  040 040 040 040
    000043  aa  040 040 040 040
    000044  aa  040 040 040 040
    000045  aa  040 040 040 040
    000046  aa  040 040 040 040
    000047  aa  040 040 040 040
    000050  aa  040 040 040 040
    000051  aa  040 040 040 040
    000052  aa  040 040 040 040
    000053  aa  040 040 040 040
    000054  aa  040 040 040 040
    000055  aa  040 040 040 040
    000056  aa  040 040 040 040
    000057  aa  040 040 040 040
    000060  aa  040 040 040 040
    000061  aa  040 040 040 040
    000062  aa  040 040 040 040
    000063  aa  040 040 040 040
    000064  aa  040 040 040 040
    000065  aa  040 040 040 040
    000066  aa  040 040 040 040
    000067  aa  040 040 040 040
    000070  aa  040 040 040 040
                                    36
                        000071      37  segdef	default_home_dir_len
    000071  aa   000000 000023      38  default_home_dir_len:	dec	19
                                    39
                        000072      40  segdef	home_root_dir				"root portion of non-default absentee home dir
    000072  aa  076 147 144 144     41  home_root_dir:	aci	">gdd",168
    000073  aa  040 040 040 040
    000074  aa  040 040 040 040
    000075  aa  040 040 040 040
    000076  aa  040 040 040 040
    000077  aa  040 040 040 040
    000100  aa  040 040 040 040
    000101  aa  040 040 040 040
    000102  aa  040 040 040 040
    000103  aa  040 040 040 040
    000104  aa  040 040 040 040
    000105  aa  040 040 040 040
    000106  aa  040 040 040 040
    000107  aa  040 040 040 040
    000110  aa  040 040 040 040
    000111  aa  040 040 040 040
    000112  aa  040 040 040 040
    000113  aa  040 040 040 040
    000114  aa  040 040 040 040
    000115  aa  040 040 040 040
    000116  aa  040 040 040 040
    000117  aa  040 040 040 040
    000120  aa  040 040 040 040
    000121  aa  040 040 040 040
    000122  aa  040 040 040 040
    000123  aa  040 040 040 040
    000124  aa  040 040 040 040
    000125  aa  040 040 040 040
    000126  aa  040 040 040 040
    000127  aa  040 040 040 040
    000130  aa  040 040 040 040
    000131  aa  040 040 040 040
    000132  aa  040 040 040 040
    000133  aa  040 040 040 040
    000134  aa  040 040 040 040
    000135  aa  040 040 040 040
    000136  aa  040 040 040 040
    000137  aa  040 040 040 040
    000140  aa  040 040 040 040
    000141  aa  040 040 040 040
    000142  aa  040 040 040 040
    000143  aa  040 040 040 040
                                    42
                        000144      43  segdef	home_root_dir_len
    000144  aa   000000 000004      44  home_root_dir_len:	dec	4
                                    45
                        000145      46  segdef	input_dir					"pathname of daemon's input directory
    000145  aa  076 144 141 145     47  input_dir: aci	">daemon_dir_dir>GCOS>input_dir",168
    000146  aa  155 157 156 137
    000147  aa  144 151 162 137
    000150  aa  144 151 162 076
    000151  aa  107 103 117 123
    000152  aa  076 151 156 160
    000153  aa  165 164 137 144
    000154  aa  151 162 040 040
    000155  aa  040 040 040 040
    000156  aa  040 040 040 040
    000157  aa  040 040 040 040
    000160  aa  040 040 040 040
    000161  aa  040 040 040 040
    000162  aa  040 040 040 040
    000163  aa  040 040 040 040
    000164  aa  040 040 040 040
    000165  aa  040 040 040 040
    000166  aa  040 040 040 040
    000167  aa  040 040 040 040
    000170  aa  040 040 040 040
    000171  aa  040 040 040 040
    000172  aa  040 040 040 040
    000173  aa  040 040 040 040
    000174  aa  040 040 040 040
    000175  aa  040 040 040 040
    000176  aa  040 040 040 040
    000177  aa  040 040 040 040
    000200  aa  040 040 040 040
    000201  aa  040 040 040 040
    000202  aa  040 040 040 040
    000203  aa  040 040 040 040
    000204  aa  040 040 040 040
    000205  aa  040 040 040 040
    000206  aa  040 040 040 040
    000207  aa  040 040 040 040
    000210  aa  040 040 040 040
    000211  aa  040 040 040 040
    000212  aa  040 040 040 040
    000213  aa  040 040 040 040
    000214  aa  040 040 040 040
    000215  aa  040 040 040 040
    000216  aa  040 040 040 040
                                    48
                        000217      49  segdef	input_dir_len
    000217  aa   000000 000036      50  input_dir_len: dec	30
                                    51
                        000220      52  segdef	pool_dir					"pathname of daemon's pool directory
    000220  aa  076 144 141 145     53  pool_dir:	aci	">daemon_dir_dir>GCOS>pool_dir",168
    000221  aa  155 157 156 137
    000222  aa  144 151 162 137
    000223  aa  144 151 162 076
    000224  aa  107 103 117 123
    000225  aa  076 160 157 157
    000226  aa  154 137 144 151
    000227  aa  162 040 040 040
    000230  aa  040 040 040 040
    000231  aa  040 040 040 040
    000232  aa  040 040 040 040
    000233  aa  040 040 040 040
    000234  aa  040 040 040 040
    000235  aa  040 040 040 040
    000236  aa  040 040 040 040
    000237  aa  040 040 040 040
    000240  aa  040 040 040 040
    000241  aa  040 040 040 040
    000242  aa  040 040 040 040
    000243  aa  040 040 040 040
    000244  aa  040 040 040 040
    000245  aa  040 040 040 040
    000246  aa  040 040 040 040
    000247  aa  040 040 040 040
    000250  aa  040 040 040 040
    000251  aa  040 040 040 040
    000252  aa  040 040 040 040
    000253  aa  040 040 040 040
    000254  aa  040 040 040 040
    000255  aa  040 040 040 040
    000256  aa  040 040 040 040
    000257  aa  040 040 040 040
    000260  aa  040 040 040 040
    000261  aa  040 040 040 040
    000262  aa  040 040 040 040
    000263  aa  040 040 040 040
    000264  aa  040 040 040 040
    000265  aa  040 040 040 040
    000266  aa  040 040 040 040
    000267  aa  040 040 040 040
    000270  aa  040 040 040 040
    000271  aa  040 040 040 040
                                    54
                        000272      55  segdef	pool_dir_len
    000272  aa   000000 000035      56  pool_dir_len: dec	29
                                    57
                        000273      58  segdef	root_dir					"pathname of daemon's root directory
    000273  aa  076 144 141 145     59  root_dir:	aci	">daemon_dir_dir>GCOS",168
    000274  aa  155 157 156 137
    000275  aa  144 151 162 137
    000276  aa  144 151 162 076
    000277  aa  107 103 117 123
    000300  aa  040 040 040 040
    000301  aa  040 040 040 040
    000302  aa  040 040 040 040
    000303  aa  040 040 040 040
    000304  aa  040 040 040 040
    000305  aa  040 040 040 040
    000306  aa  040 040 040 040
    000307  aa  040 040 040 040
    000310  aa  040 040 040 040
    000311  aa  040 040 040 040
    000312  aa  040 040 040 040
    000313  aa  040 040 040 040
    000314  aa  040 040 040 040
    000315  aa  040 040 040 040
    000316  aa  040 040 040 040
    000317  aa  040 040 040 040
    000320  aa  040 040 040 040
    000321  aa  040 040 040 040
    000322  aa  040 040 040 040
    000323  aa  040 040 040 040
    000324  aa  040 040 040 040
    000325  aa  040 040 040 040
    000326  aa  040 040 040 040
    000327  aa  040 040 040 040
    000330  aa  040 040 040 040
    000331  aa  040 040 040 040
    000332  aa  040 040 040 040
    000333  aa  040 040 040 040
    000334  aa  040 040 040 040
    000335  aa  040 040 040 040
    000336  aa  040 040 040 040
    000337  aa  040 040 040 040
    000340  aa  040 040 040 040
    000341  aa  040 040 040 040
    000342  aa  040 040 040 040
    000343  aa  040 040 040 040
    000344  aa  040 040 040 040
                                    60
                        000345      61  segdef	root_dir_len
    000345  aa   000000 000024      62  root_dir_len: dec	20
                                    63
                        000346      64  segdef	sysdir					"absentee message directory
    000346  aa  076 163 171 163     65  sysdir:	aci	">system_control_1",168
    000347  aa  164 145 155 137
    000350  aa  143 157 156 164
    000351  aa  162 157 154 137
    000352  aa  061 040 040 040
    000353  aa  040 040 040 040
    000354  aa  040 040 040 040
    000355  aa  040 040 040 040
    000356  aa  040 040 040 040
    000357  aa  040 040 040 040
    000360  aa  040 040 040 040
    000361  aa  040 040 040 040
    000362  aa  040 040 040 040
    000363  aa  040 040 040 040
    000364  aa  040 040 040 040
    000365  aa  040 040 040 040
    000366  aa  040 040 040 040
    000367  aa  040 040 040 040
    000370  aa  040 040 040 040
    000371  aa  040 040 040 040
    000372  aa  040 040 040 040
    000373  aa  040 040 040 040
    000374  aa  040 040 040 040
    000375  aa  040 040 040 040
    000376  aa  040 040 040 040
    000377  aa  040 040 040 040
    000400  aa  040 040 040 040
    000401  aa  040 040 040 040
    000402  aa  040 040 040 040
    000403  aa  040 040 040 040
    000404  aa  040 040 040 040
    000405  aa  040 040 040 040
    000406  aa  040 040 040 040
    000407  aa  040 040 040 040
    000410  aa  040 040 040 040
    000411  aa  040 040 040 040
    000412  aa  040 040 040 040
    000413  aa  040 040 040 040
    000414  aa  040 040 040 040
    000415  aa  040 040 040 040
    000416  aa  040 040 040 040
    000417  aa  040 040 040 040
                                    66
                        000420      67  segdef	sysdir_len
    000420  aa   000000 000021      68  sysdir_len: dec	17
                                    69
                        000421      70  segdef	tape_dim					"for testing
    000421  aa  156 163 164 144     71  tape_dim:	aci	"nstd_   "			"must be 8 characters
    000422  aa  137 040 040 040
                                    72
                        000423      73  segdef	card_dim					"for testing
    000423  aa  143 162 172 040     74  card_dim:	aci	"crz     "			"must be 8 characters
    000424  aa  040 040 040 040
                                    75
                        000425      76  segdef	max_cpu_time				"maximum time for gcos absentee job
    000425  aa   000000 002260      77  max_cpu_time: dec	1200
                                    78
                        000426      79  segdef	high_priority	"highest legal numerical priority
    000426  aa   000000 000003      80  high_priority: dec	3
                                    81
                        000427      82  segdef	low_priority	"lowest legal numerical priority
    000427  aa   000000 000001      83  low_priority: dec	1
                                    84
                        000430      85  segdef	delete_interval	"days after which to delete a segment
    000430  aa   000000 000003      86  delete_interval: dec	3
                                    87
    000431  aa   000000 0110 03     88  even
                        000432      89  segdef	max_priority				"maximum queue priority
    000432                          90  max_priority: bss	,1
                                    91
                                    92
                                    93
                                    94  use	textc
                                    95  join	/text/textc
                                    96
                                    97  even
                        000000      98  segdef	overflow_channel				"daemon's overflow event channel
    000000                          99  overflow_channel: bss	,2
                                   100
                        000002     101  segdef	process_id				"daemon's process id
    000002                         102  process_id:	bss	,1
                                   103
                                   104  	end

NO LITERALS

NAME DEFINITIONS FOR ENTRY POINTS AND SEGDEFS

    000004  5a   000003 000000
    000005  5a   000265 600000
    000006  aa   000000 000000
    000007  55   000013 000002
    000010  5a   000002 400003
    000011  55   000006 000013
    000012  aa  021 147 143 157
    000013  aa  163 137 144 141
    000014  aa  145 155 157 156
    000015  aa  137 163 164 141
    000016  aa  164 137 000 000
    000017  55   000021 000003
    000020  0a   000002 400000
    000021  55   000016 000003
    000022  aa  012 160 162 157         process_id
    000023  aa  143 145 163 163
    000024  aa  137 151 144 000
    000025  55   000031 000013
    000026  0a   000000 400000
    000027  55   000024 000003
    000030  aa  020 157 166 145         overflow_channel
    000031  aa  162 146 154 157
    000032  aa  167 137 143 150
    000033  aa  141 156 156 145
    000034  aa  154 000 000 000
    000035  55   000040 000021
    000036  2a   000432 400001
    000037  55   000034 000003
    000040  aa  014 155 141 170         max_priority
    000041  aa  137 160 162 151
    000042  aa  157 162 151 164
    000043  aa  171 000 000 000
    000044  55   000047 000031
    000045  2a   000430 400001
    000046  55   000043 000003
    000047  aa  017 144 145 154         delete_interval
    000050  aa  145 164 145 137
    000051  aa  151 156 164 145
    000052  aa  162 166 141 154
    000053  55   000056 000040
    000054  2a   000427 400001
    000055  55   000052 000003
    000056  aa  014 154 157 167         low_priority
    000057  aa  137 160 162 151
    000060  aa  157 162 151 164
    000061  aa  171 000 000 000
    000062  55   000065 000047
    000063  2a   000426 400001
    000064  55   000061 000003
    000065  aa  015 150 151 147         high_priority
    000066  aa  150 137 160 162
    000067  aa  151 157 162 151
    000070  aa  164 171 000 000
    000071  55   000074 000056
    000072  2a   000425 400001
    000073  55   000070 000003
    000074  aa  014 155 141 170         max_cpu_time
    000075  aa  137 143 160 165
    000076  aa  137 164 151 155
    000077  aa  145 000 000 000
    000100  55   000102 000065
    000101  2a   000423 400001
    000102  55   000077 000003
    000103  aa  010 143 141 162         card_dim
    000104  aa  144 137 144 151
    000105  aa  155 000 000 000
    000106  55   000110 000074
    000107  2a   000421 400001
    000110  55   000105 000003
    000111  aa  010 164 141 160         tape_dim
    000112  aa  145 137 144 151
    000113  aa  155 000 000 000
    000114  55   000116 000102
    000115  2a   000420 400001
    000116  55   000113 000003
    000117  aa  012 163 171 163         sysdir_len
    000120  aa  144 151 162 137
    000121  aa  154 145 156 000
    000122  55   000123 000110
    000123  2a   000346 400001
    000124  55   000121 000003
    000125  aa  006 163 171 163         sysdir
    000126  aa  144 151 162 000
    000127  55   000132 000116
    000130  2a   000345 400001
    000131  55   000126 000003
    000132  aa  014 162 157 157         root_dir_len
    000133  aa  164 137 144 151
    000134  aa  162 137 154 145
    000135  aa  156 000 000 000
    000136  55   000140 000123
    000137  2a   000273 400001
    000140  55   000135 000003
    000141  aa  010 162 157 157         root_dir
    000142  aa  164 137 144 151
    000143  aa  162 000 000 000
    000144  55   000147 000132
    000145  2a   000272 400001
    000146  55   000143 000003
    000147  aa  014 160 157 157         pool_dir_len
    000150  aa  154 137 144 151
    000151  aa  162 137 154 145
    000152  aa  156 000 000 000
    000153  55   000155 000140
    000154  2a   000220 400001
    000155  55   000152 000003
    000156  aa  010 160 157 157         pool_dir
    000157  aa  154 137 144 151
    000160  aa  162 000 000 000
    000161  55   000164 000147
    000162  2a   000217 400001
    000163  55   000160 000003
    000164  aa  015 151 156 160         input_dir_len
    000165  aa  165 164 137 144
    000166  aa  151 162 137 154
    000167  aa  145 156 000 000
    000170  55   000172 000155
    000171  2a   000145 400001
    000172  55   000167 000003
    000173  aa  011 151 156 160         input_dir
    000174  aa  165 164 137 144
    000175  aa  151 162 000 000
    000176  55   000202 000164
    000177  2a   000144 400001
    000200  55   000175 000003
    000201  aa  021 150 157 155         home_root_dir_len
    000202  aa  145 137 162 157
    000203  aa  157 164 137 144
    000204  aa  151 162 137 154
    000205  aa  145 156 000 000
    000206  55   000211 000172
    000207  2a   000072 400001
    000210  55   000205 000003
    000211  aa  015 150 157 155         home_root_dir
    000212  aa  145 137 162 157
    000213  aa  157 164 137 144
    000214  aa  151 162 000 000
    000215  55   000222 000202
    000216  2a   000071 400001
    000217  55   000214 000003
    000220  aa  024 144 145 146         default_home_dir_len
    000221  aa  141 165 154 164
    000222  aa  137 150 157 155
    000223  aa  145 137 144 151
    000224  aa  162 137 154 145
    000225  aa  156 000 000 000
    000226  55   000232 000211
    000227  2a   000017 400001
    000230  55   000225 000003
    000231  aa  020 144 145 146         default_home_dir
    000232  aa  141 165 154 164
    000233  aa  137 150 157 155
    000234  aa  145 137 144 151
    000235  aa  162 000 000 000
    000236  55   000237 000222
    000237  2a   000015 400001
    000240  55   000235 000003
    000241  aa  005 163 156 165         snumb
    000242  aa  155 142 000 000
    000243  55   000247 000232
    000244  2a   000014 400001
    000245  55   000242 000003
    000246  aa  022 141 156 157         anonymous_user_len
    000247  aa  156 171 155 157
    000250  aa  165 163 137 165
    000251  aa  163 145 162 137
    000252  aa  154 145 156 000
    000253  55   000256 000237
    000254  2a   000010 400001
    000255  55   000252 000003
    000256  aa  016 141 156 157         anonymous_user
    000257  aa  156 171 155 157
    000260  aa  165 163 137 165
    000261  aa  163 145 162 000
    000262  55   000002 000247
    000263  6a   000000 400002
    000264  55   000261 000003
    000265  aa  014 163 171 155         symbol_table
    000266  aa  142 157 154 137
    000267  aa  164 141 142 154
    000270  aa  145 000 000 000

DEFINITIONS HASH TABLE

    000271  aa   000000 000065
    000272  5a   000102 000000
    000273  5a   000132 000000
    000274  5a   000237 000000
    000275  aa   000000 000000
    000276  aa   000000 000000
    000277  aa   000000 000000
    000300  5a   000074 000000
    000301  aa   000000 000000
    000302  5a   000155 000000
    000303  aa   000000 000000
    000304  5a   000211 000000
    000305  5a   000031 000000
    000306  5a   000065 000000
    000307  5a   000247 000000
    000310  aa   000000 000000
    000311  aa   000000 000000
    000312  5a   000164 000000
    000313  5a   000047 000000
    000314  5a   000222 000000
    000315  aa   000000 000000
    000316  aa   000000 000000
    000317  aa   000000 000000
    000320  aa   000000 000000
    000321  aa   000000 000000
    000322  aa   000000 000000
    000323  aa   000000 000000
    000324  5a   000040 000000
    000325  5a   000172 000000
    000326  5a   000256 000000
    000327  aa   000000 000000
    000330  5a   000056 000000
    000331  aa   000000 000000
    000332  aa   000000 000000
    000333  5a   000140 000000
    000334  5a   000202 000000
    000335  aa   000000 000000
    000336  5a   000013 000000
    000337  5a   000232 000000
    000340  5a   000110 000000
    000341  aa   000000 000000
    000342  aa   000000 000000
    000343  5a   000147 000000
    000344  5a   000021 000000
    000345  aa   000000 000000
    000346  aa   000000 000000
    000347  5a   000123 000000
    000350  5a   000116 000000
    000351  aa   000000 000000
    000352  aa   000000 000000
    000353  aa   000000 000000
    000354  aa   000000 000000
    000355  aa   000000 000000
    000356  aa   000000 000000

NO EXTERNAL NAMES

NO TRAP POINTER WORDS

TYPE PAIR BLOCKS

    000357  aa   000001 000000
    000360  aa   000000 000000

INTERNAL EXPRESSION WORDS

    000361  aa   000000 000000
LINKAGE INFORMATION

    000000  aa   000000 000000
    000001  0a   000004 000000
    000002  aa   000000 000000
    000003  aa   000000 000000
    000004  aa   000000 000000
    000005  aa   000000 000000
    000006  22   000434 000434
    000007  a2   000000 000424
SYMBOL INFORMATION

SYMBOL TABLE HEADER

    000000  aa   000000 000001
    000001  aa   163171 155142
    000002  aa   164162 145145
    000003  aa   000000 000004
    000004  aa   000000 104543
    000005  aa   160620 150561
    000006  aa   000000 105150
    000007  aa   346504 566660
    000010  aa   141154 155040
    000011  aa   040040 040040
    000012  aa   000024 000040
    000013  aa   000034 000040
    000014  aa   000044 000100
    000015  aa   000002 000002
    000016  aa   000064 000000
    000017  aa   000000 000141
    000020  aa   000000 000105
    000021  aa   000000 000110
    000022  aa   000133 000105
    000023  aa   000064 000000
    000024  aa   101114 115040
    000025  aa   126145 162163
    000026  aa   151157 156040
    000027  aa   066056 061054
    000030  aa   040112 165156
    000031  aa   145040 061071
    000032  aa   067067 040040
    000033  aa   040040 040040
    000034  aa   115141 162164
    000035  aa   151156 163157
    000036  aa   156056 123171
    000037  aa   163115 141151
    000040  aa   156164 056141
    000041  aa   040040 040040
    000042  aa   040040 040040
    000043  aa   040040 040040
    000044  aa   154151 163164
    000045  aa   040040 040040
    000046  aa   040040 040040
    000047  aa   040040 040040
    000050  aa   040040 040040
    000051  aa   040040 040040
    000052  aa   040040 040040
    000053  aa   040040 040040
    000054  aa   040040 040040
    000055  aa   040040 040040
    000056  aa   040040 040040
    000057  aa   040040 040040
    000060  aa   040040 040040
    000061  aa   040040 040040
    000062  aa   040040 040040
    000063  aa   040040 040040
    000064  aa   000000 000001
    000065  aa   000000 000001
    000066  aa   000072 000053
    000067  aa   051501 770422
    000070  aa   000000 105150
    000071  aa   346510 200000
    000072  aa   076163 160145          >spec>online>spec0227>gcos_daemon_stat_.alm
    000073  aa   143076 157156
    000074  aa   154151 156145
    000075  aa   076163 160145
    000076  aa   143060 062062
    000077  aa   067076 147143
    000100  aa   157163 137144
    000101  aa   141145 155157
    000102  aa   156137 163164
    000103  aa   141164 137056
    000104  aa   141154 155040
               MULTICS ASSEMBLY CROSS REFERENCE LISTING

   Value        Symbol                   Source file   Line number

          10    anonymous_user           gcos_daemon_stat_:   25,   26.
          14    anonymous_user_len       gcos_daemon_stat_:   28,   29.
         423    card_dim                 gcos_daemon_stat_:   73,   74.
          17    default_home_dir         gcos_daemon_stat_:   34,   35.
          71    default_home_dir_len     gcos_daemon_stat_:   37,   38.
         430    delete_interval          gcos_daemon_stat_:   85,   86.
         426    high_priority            gcos_daemon_stat_:   79,   80.
          72    home_root_dir            gcos_daemon_stat_:   40,   41.
         144    home_root_dir_len        gcos_daemon_stat_:   43,   44.
         145    input_dir                gcos_daemon_stat_:   46,   47.
         217    input_dir_len            gcos_daemon_stat_:   49,   50.
          10    linkc                    gcos_daemon_stat_:   22,   23.
         427    low_priority             gcos_daemon_stat_:   82,   83.
         425    max_cpu_time             gcos_daemon_stat_:   76,   77.
         432    max_priority             gcos_daemon_stat_:   89,   90.
           0    overflow_channel         gcos_daemon_stat_:   98,   99.
         220    pool_dir                 gcos_daemon_stat_:   52,   53.
         272    pool_dir_len             gcos_daemon_stat_:   55,   56.
           2    process_id               gcos_daemon_stat_:  101,  102.
         273    root_dir                 gcos_daemon_stat_:   58,   59.
         345    root_dir_len             gcos_daemon_stat_:   61,   62.
          15    snumb                    gcos_daemon_stat_:   31,   32.
         346    sysdir                   gcos_daemon_stat_:   64,   65.
         420    sysdir_len               gcos_daemon_stat_:   67,   68.
         421    tape_dim                 gcos_daemon_stat_:   70,   71.
           0    textc                    gcos_daemon_stat_:   94,   95.


NO FATAL ERRORS


                                          -----------------------------------------------------------


Historical Background

This edition of the Multics software materials and documentation is provided and donated
to Massachusetts Institute of Technology by Group BULL including BULL HN Information Systems Inc.
as a contribution to computer science knowledge.
This donation is made also to give evidence of the common contributions of Massachusetts Institute of Technology,
Bell Laboratories, General Electric, Honeywell Information Systems Inc., Honeywell BULL Inc., Groupe BULL
and BULL HN Information Systems Inc. to the development of this operating system.
Multics development was initiated by Massachusetts Institute of Technology Project MAC (1963-1970),
renamed the MIT Laboratory for Computer Science and Artificial Intelligence in the mid 1970s, under the leadership
of Professor Fernando Jose Corbato. Users consider that Multics provided the best software architecture
for managing computer hardware properly and for executing programs. Many subsequent operating systems
incorporated Multics principles.
Multics was distributed in 1975 to 2000 by Group Bull in Europe , and in the U.S. by Bull HN Information Systems Inc.,
as successor in interest by change in name only to Honeywell Bull Inc. and Honeywell Information Systems Inc. .

                                          -----------------------------------------------------------

Permission to use, copy, modify, and distribute these programs and their documentation for any purpose and without
fee is hereby granted,provided that the below copyright notice and historical background appear in all copies
and that both the copyright notice and historical background and this permission notice appear in supporting
documentation, and that the names of MIT, HIS, BULL or BULL HN not be used in advertising or publicity pertaining
to distribution of the programs without specific prior written permission.
    Copyright 1972 by Massachusetts Institute of Technology and Honeywell Information Systems Inc.
    Copyright 2006 by BULL HN Information Systems Inc.
    Copyright 2006 by Bull SAS
    All Rights Reserved
