ASSEMBLY LISTING OF SEGMENT >spec>on>09/07/83-gcos>gcos_incode_.alm
ASSEMBLED ON:	09/09/83  1052.3 mst Fri
OPTIONS USED:	list
ASSEMBLED BY:	ALM Version  6.4  April 1981
ASSEMBLER CREATED:	11/03/82  1423.6 mst Wed

                                     1  " ***********************************************************
                                     2  " *                                                         *
                                     3  " * Copyright, (C) Honeywell Information Systems Inc., 1982 *
                                     4  " *                                                         *
                                     5  " * Copyright (c) 1972 by Massachusetts Institute of        *
                                     6  " * Technology and Honeywell Information Systems, Inc.      *
                                     7  " *                                                         *
                                     8  " ***********************************************************
                                     9
                                    10  """""""""""""""""""""""""""""""""""""""""""""""""""""""""""""""""""""""""""
                                    11  """""""""""""""""""""""""""""""""""""""""""""""""""""""""""""""""""""""""""
                                    12  "
                                    13  "
                                    14  "	P E R F O R M   I N C O D E   T R A N S L A T I O N
                                    15  "
                                    16  "
                                    17  "  This routine will perform incode translation for a string of bcd
                                    18  "  characters.  It takes three parameters. Parameter 1 is a pointer to a
                                    19  "  bcd string. Parameter 2 is the length of that string (number of bcd
                                    20  "  characters).  Parameter 3 is a pointer to a receiving field for the
                                    21  "  incoded output.
                                    22  "
                                    23  "
                                    24  "	WRITTEN BY D. KAYDEN JANUARY 1975
                                    25  "
                                    26  "
                                    27  """""""""""""""""""""""""""""""""""""""""""""""""""""""""""""""""""""""""""
                                    28  """""""""""""""""""""""""""""""""""""""""""""""""""""""""""""""""""""""""""
    000000                          29  	name	gcos_incode_
                        000000      30  	entry	gcos_incode_
    000000                          31  gcos_incode_:
    000000  aa  0 00002 3521 20     32  	eppbp	ap|2,*		bp->input data
    000001  aa  2 00000 3521 20     33  	eppbp	bp|0,*
    000002  aa  0 00004 2351 20     34  	lda	ap|4,*		a = char count
    000003  aa  0 00006 3535 20     35  	eppbb	ap|6,*		bb->output buffer
    000004  aa  3 00000 3535 20     36  	eppbb	bb|0,*
    000005  4a  4 00010 2361 20     37  	ldq	<gcos_ext_stat_>|[incode]  q = incode type
    000006  aa   000004 7360 00     38  	qls	4		multiply by 16
    000007  aa  0 00140 1605 40     39  	mvt	(pr,rl),(pr,rl)
    000010  aa   200000 020005      40  	desc6a	bp|0,al
    000011  aa   300000 020005      41  	desc6a	bb|0,al
    000012  0a   777774 0000 06     42  	arg	ibmf-16,ql
    000013  aa  7 00044 7101 20     43  	short_return
                                    44
    000014  aa   000001 002003      45  ibmf:	oct	000001002003
    000015  aa   004005 006007      46  	oct	004005006007
    000016  aa   010011 012075      47  	oct	010011012075
    000017  aa   057013 016017      48  	oct	057013016017
    000020  aa   020021 022023      49  	oct	020021022023
    000021  aa   024025 026027      50  	oct	024025026027
    000022  aa   030031 060033      51  	oct	030031060033
    000023  aa   055035 036037      52  	oct	055035036037
    000024  aa   040041 042043      53  	oct	040041042043
    000025  aa   044045 046047      54  	oct	044045046047
    000026  aa   050051 052053      55  	oct	050051052053
    000027  aa   054055 056057      56  	oct	054055056057
    000030  aa   060061 062063      57  	oct	060061062063
    000031  aa   064065 066067      58  	oct	064065066067
    000032  aa   070071 072073      59  	oct	070071072073
    000033  aa   035075 076077      60  	oct	035075076077
                                    61
    000034  aa   000001 002003      62  ibmc:	oct	000001002003
    000035  aa   004005 006007      63  	oct	004005006007
    000036  aa   010011 012075      64  	oct	010011012075
    000037  aa   076013 016017      65  	oct	076013016017
    000040  aa   020021 022023      66  	oct	020021022023
    000041  aa   024025 026027      67  	oct	024025026027
    000042  aa   030031 060033      68  	oct	030031060033
    000043  aa   055035 036037      69  	oct	055035036037
    000044  aa   040041 042043      70  	oct	040041042043
    000045  aa   044045 046047      71  	oct	044045046047
    000046  aa   050051 052053      72  	oct	050051052053
    000047  aa   054055 056057      73  	oct	054055056057
    000050  aa   060061 062063      74  	oct	060061062063
    000051  aa   064065 066067      75  	oct	064065066067
    000052  aa   070071 072073      76  	oct	070071072073
    000053  aa   035075 076077      77  	oct	035075076077
                                    78
    000054  aa   000001 002003      79  ibmel:	oct	000001002003
    000055  aa   004005 006007      80  	oct	004005006007
    000056  aa   010011 015013      81  	oct	010011015013
    000057  aa   014057 075076      82  	oct	014057075076
    000060  aa   020021 022023      83  	oct	020021022023
    000061  aa   024025 026027      84  	oct	024025026027
    000062  aa   030031 032033      85  	oct	030031032033
    000063  aa   036035 060037      86  	oct	036035060037
    000064  aa   040041 042043      87  	oct	040041042043
    000065  aa   044045 046047      88  	oct	044045046047
    000066  aa   050051 052053      89  	oct	050051052053
    000067  aa   054055 056057      90  	oct	054055056057
    000070  aa   060061 062063      91  	oct	060061062063
    000071  aa   064065 066067      92  	oct	064065066067
    000072  aa   070071 020073      93  	oct	070071020073
    000073  aa   074020 016017      94  	oct	074020016017
                                    95
                                    96  	end
ENTRY SEQUENCES

    000074  5a   000012 0000 00
    000075  aa  7 00046 2721 20
    000076  0a   000000 7100 00

NO LITERALS

NAME DEFINITIONS FOR ENTRY POINTS AND SEGDEFS

    000100  5a   000003 000000
    000101  5a   000030 600000
    000102  aa   000000 000000
    000103  55   000012 000002
    000104  5a   000002 400003
    000105  55   000006 000012
    000106  aa  014 147 143 157
    000107  aa  163 137 151 156
    000110  aa  143 157 144 145
    000111  aa  137 000 000 000
    000112  55   000021 000003
    000113  0a   000075 500000
    000114  55   000015 000003
    000115  aa  014 147 143 157         gcos_incode_
    000116  aa  163 137 151 156
    000117  aa  143 157 144 145
    000120  aa  137 000 000 000
    000121  55   000002 000012
    000122  6a   000000 400002
    000123  55   000024 000003
    000124  aa  014 163 171 155         symbol_table
    000125  aa  142 157 154 137
    000126  aa  164 141 142 154
    000127  aa  145 000 000 000

DEFINITIONS HASH TABLE

    000130  aa   000000 000015
    000131  aa   000000 000000
    000132  5a   000012 000000
    000133  aa   000000 000000
    000134  aa   000000 000000
    000135  aa   000000 000000
    000136  aa   000000 000000
    000137  5a   000021 000000
    000140  aa   000000 000000
    000141  aa   000000 000000
    000142  aa   000000 000000
    000143  aa   000000 000000
    000144  aa   000000 000000
    000145  aa   000000 000000

EXTERNAL NAMES

    000146  aa  006 151 156 143         incode
    000147  aa  157 144 145 000
    000150  aa  016 147 143 157         gcos_ext_stat_
    000151  aa  163 137 145 170
    000152  aa  164 137 163 164
    000153  aa  141 164 137 000

NO TRAP POINTER WORDS

TYPE PAIR BLOCKS

    000154  aa   000004 000000
    000155  55   000050 000046
    000156  aa   000001 000000
    000157  aa   000000 000000

INTERNAL EXPRESSION WORDS

    000160  5a   000054 000000
    000161  aa   000000 000000
LINKAGE INFORMATION

    000000  aa   000000 000000
    000001  0a   000100 000000
    000002  aa   000000 000000
    000003  aa   000000 000000
    000004  aa   000000 000000
    000005  aa   000000 000000
    000006  22   000010 000012
    000007  a2   000000 000000
    000010  9a   777770 0000 46         gcos_ext_stat_|incode
    000011  5a   000060 0000 00
SYMBOL INFORMATION

SYMBOL TABLE HEADER

    000000  aa   000000 000001
    000001  aa   163171 155142
    000002  aa   164162 145145
    000003  aa   000000 000004
    000004  aa   000000 111316
    000005  aa   510113 575622
    000006  aa   000000 112124
    000007  aa   156015 640207
    000010  aa   141154 155040
    000011  aa   040040 040040
    000012  aa   000024 000040
    000013  aa   000034 000040
    000014  aa   000044 000100
    000015  aa   000002 000002
    000016  aa   000064 000000
    000017  aa   000000 000124
    000020  aa   000000 000104
    000021  aa   000000 000112
    000022  aa   000116 000104
    000023  aa   000064 000000
    000024  aa   101114 115040
    000025  aa   126145 162163
    000026  aa   151157 156040
    000027  aa   040066 056064
    000030  aa   040040 101160
    000031  aa   162151 154040
    000032  aa   061071 070061
    000033  aa   040040 040040
    000034  aa   107112 157150
    000035  aa   156163 157156
    000036  aa   056123 171163
    000037  aa   115141 151156
    000040  aa   164056 155040
    000041  aa   040040 040040
    000042  aa   040040 040040
    000043  aa   040040 040040
    000044  aa   154151 163164
    000045  aa   040040 040040
    000046  aa   040040 040040
    000047  aa   040040 040040
    000050  aa   040040 040040
    000051  aa   040040 040040
    000052  aa   040040 040040
    000053  aa   040040 040040
    000054  aa   040040 040040
    000055  aa   040040 040040
    000056  aa   040040 040040
    000057  aa   040040 040040
    000060  aa   040040 040040
    000061  aa   040040 040040
    000062  aa   040040 040040
    000063  aa   040040 040040
    000064  aa   000000 000001
    000065  aa   000000 000001
    000066  aa   000072 000047
    000067  aa   121240 053370
    000070  aa   000000 112124
    000071  aa   131570 400000
    000072  aa   076163 160145          >spec>on>09/07/83-gcos>gcos_incode_.alm
    000073  aa   143076 157156
    000074  aa   076060 071057
    000075  aa   060067 057070
    000076  aa   063055 147143
    000077  aa   157163 076147
    000100  aa   143157 163137
    000101  aa   151156 143157
    000102  aa   144145 137056
    000103  aa   141154 155040
               MULTICS ASSEMBLY CROSS REFERENCE LISTING

   Value        Symbol                   Source file   Line number

                gcos_ext_stat_           gcos_incode_:        37.
           0    gcos_incode_             gcos_incode_:        30,   31.
          34    ibmc                     gcos_incode_:        62.
          54    ibmel                    gcos_incode_:        79.
          14    ibmf                     gcos_incode_:        42,   45.
                incode                   gcos_incode_:        37.


NO FATAL ERRORS


                                          -----------------------------------------------------------


Historical Background

This edition of the Multics software materials and documentation is provided and donated
to Massachusetts Institute of Technology by Group BULL including BULL HN Information Systems Inc.
as a contribution to computer science knowledge.
This donation is made also to give evidence of the common contributions of Massachusetts Institute of Technology,
Bell Laboratories, General Electric, Honeywell Information Systems Inc., Honeywell BULL Inc., Groupe BULL
and BULL HN Information Systems Inc. to the development of this operating system.
Multics development was initiated by Massachusetts Institute of Technology Project MAC (1963-1970),
renamed the MIT Laboratory for Computer Science and Artificial Intelligence in the mid 1970s, under the leadership
of Professor Fernando Jose Corbato. Users consider that Multics provided the best software architecture
for managing computer hardware properly and for executing programs. Many subsequent operating systems
incorporated Multics principles.
Multics was distributed in 1975 to 2000 by Group Bull in Europe , and in the U.S. by Bull HN Information Systems Inc.,
as successor in interest by change in name only to Honeywell Bull Inc. and Honeywell Information Systems Inc. .

                                          -----------------------------------------------------------

Permission to use, copy, modify, and distribute these programs and their documentation for any purpose and without
fee is hereby granted,provided that the below copyright notice and historical background appear in all copies
and that both the copyright notice and historical background and this permission notice appear in supporting
documentation, and that the names of MIT, HIS, BULL or BULL HN not be used in advertising or publicity pertaining
to distribution of the programs without specific prior written permission.
    Copyright 1972 by Massachusetts Institute of Technology and Honeywell Information Systems Inc.
    Copyright 2006 by BULL HN Information Systems Inc.
    Copyright 2006 by Bull SAS
    All Rights Reserved
