ASSEMBLY LISTING OF SEGMENT >2.1spec>online>gcos021875>gcos_daemon_stat2_.alm
ASSEMBLED ON:	02/19/75  1342.7 mst Wed
OPTIONS USED:	list  symbols  new_call  new_object
ASSEMBLED BY:	ALM Version 4.5, September 1974
ASSEMBLER CREATED:	01/10/75  1049.0 mst Fri

                                    1   "  ******************************************************
                                    2   "  *					      *
                                    3   "  *					      *
                                    4   "  * Copyright (c) 1972 by Massachusetts Institute of   *
                                    5   "  * Technology and Honeywell Information Systems, Inc. *
                                    6   "  *					      *
                                    7   "  *					      *
                                    8   "  ******************************************************
                                    9
    000000                         10   name	gcos_daemon_stat2_
                                   11   use	textc
                                   12   join	/text/textc
                                   13
                                   14   even
    000000              000000     15   segdef	overflow_dir
    000000                         16   overflow_dir: bss	,42		"daemon's overflow directory
                                   17
                                   18
                                   19   end;

NO LITERALS

NAME DEFINITIONS FOR ENTRY POINTS AND SEGDEFS

    000052  5a   000003 000000
    000053  aa   000000 600000
    000054  aa   000000 000000
    000055  55   000013 000002
    000056  5a   000002 400003
    000057  55   000006 000013
    000060  aa  022 147 143 157
    000061  aa  163 137 144 141
    000062  aa  145 155 157 156
    000063  aa  137 163 164 141
    000064  aa  164 062 137 000
    000065  55   000022 000003
    000066  0a   000000 400000
    000067  55   000016 000003
    000070  aa  014 157 166 145         overflow_dir
    000071  aa  162 146 154 157
    000072  aa  167 137 144 151
    000073  aa  162 000 000 000
    000074  55   000002 000013
    000075  6a   000000 400002
    000076  55   000025 000003
    000077  aa  014 163 171 155         symbol_table
    000100  aa  142 157 154 137
    000101  aa  164 141 142 154
    000102  aa  145 000 000 000

NO EXTERNAL NAMES

NO TRAP POINTER WORDS

TYPE PAIR BLOCKS

    000103  aa   000001 000000
    000104  aa   000000 000000

INTERNAL EXPRESSION WORDS

    000105  aa   000000 000000
LINKAGE INFORMATION

    000000  aa   000000 000000
    000001  0a   000052 000000
    000002  aa   000000 000000
    000003  aa   000000 000000
    000004  aa   000000 000000
    000005  aa   000000 000000
    000006  22   000010 000010
    000007  a2   000000 000010
SYMBOL INFORMATION

SYMBOL TABLE HEADER

    000000  aa   000000 000001
    000001  aa   163171 155142
    000002  aa   164162 145145
    000003  aa   000000 000004
    000004  aa   000000 102312
    000005  aa   122255 251731
    000006  aa   000000 102374
    000007  aa   465126 733245
    000010  aa   141154 155040
    000011  aa   040040 040040
    000012  aa   000024 000040
    000013  aa   000034 000040
    000014  aa   000044 000100
    000015  aa   000002 000002
    000016  aa   000064 000000
    000017  aa   000000 000125
    000020  aa   000000 000107
    000021  aa   000000 000114
    000022  aa   000117 000107
    000023  aa   000064 000000
    000024  aa   101114 115040
    000025  aa   126145 162163
    000026  aa   151157 156040
    000027  aa   064056 065054
    000030  aa   040123 145160
    000031  aa   164145 155142
    000032  aa   145162 040061
    000033  aa   071067 064040
    000034  aa   115141 162164
    000035  aa   151156 163157
    000036  aa   156056 123171
    000037  aa   163115 141151
    000040  aa   156164 056141
    000041  aa   040040 040040
    000042  aa   040040 040040
    000043  aa   040040 040040
    000044  aa   154151 163164
    000045  aa   040040 163171
    000046  aa   155142 157154
    000047  aa   163040 040156
    000050  aa   145167 137143
    000051  aa   141154 154040
    000052  aa   040156 145167
    000053  aa   137157 142152
    000054  aa   145143 164040
    000055  aa   040040 040040
    000056  aa   040040 040040
    000057  aa   040040 040040
    000060  aa   040040 040040
    000061  aa   040040 040040
    000062  aa   040040 040040
    000063  aa   040040 040040
    000064  aa   000000 000001
    000065  aa   000000 000001
    000066  aa   000072 000061
    000067  aa   023743 161257
    000070  aa   000000 102374
    000071  aa   465131 400000
    000072  aa   076062 056061          >2.1spec>online>gcos021875>gcos_daemon_stat2_.alm
    000073  aa   163160 145143
    000074  aa   076157 156154
    000075  aa   151156 145076
    000076  aa   147143 157163
    000077  aa   060062 061070
    000100  aa   067065 076147
    000101  aa   143157 163137
    000102  aa   144141 145155
    000103  aa   157156 137163
    000104  aa   164141 164062
    000105  aa   137056 141154
    000106  aa   155040 040040
               MULTICS ASSEMBLY CROSS REFERENCE LISTING

   Value        Symbol                   Source file   Line number

           0    overflow_dir             gcos_daemon_stat2_:        15,   16.
           0    textc                    gcos_daemon_stat2_:        11,   12.


NO FATAL ERRORS


                                          -----------------------------------------------------------


Historical Background

This edition of the Multics software materials and documentation is provided and donated
to Massachusetts Institute of Technology by Group BULL including BULL HN Information Systems Inc.
as a contribution to computer science knowledge.
This donation is made also to give evidence of the common contributions of Massachusetts Institute of Technology,
Bell Laboratories, General Electric, Honeywell Information Systems Inc., Honeywell BULL Inc., Groupe BULL
and BULL HN Information Systems Inc. to the development of this operating system.
Multics development was initiated by Massachusetts Institute of Technology Project MAC (1963-1970),
renamed the MIT Laboratory for Computer Science and Artificial Intelligence in the mid 1970s, under the leadership
of Professor Fernando Jose Corbato. Users consider that Multics provided the best software architecture
for managing computer hardware properly and for executing programs. Many subsequent operating systems
incorporated Multics principles.
Multics was distributed in 1975 to 2000 by Group Bull in Europe , and in the U.S. by Bull HN Information Systems Inc.,
as successor in interest by change in name only to Honeywell Bull Inc. and Honeywell Information Systems Inc. .

                                          -----------------------------------------------------------

Permission to use, copy, modify, and distribute these programs and their documentation for any purpose and without
fee is hereby granted,provided that the below copyright notice and historical background appear in all copies
and that both the copyright notice and historical background and this permission notice appear in supporting
documentation, and that the names of MIT, HIS, BULL or BULL HN not be used in advertising or publicity pertaining
to distribution of the programs without specific prior written permission.
    Copyright 1972 by Massachusetts Institute of Technology and Honeywell Information Systems Inc.
    Copyright 2006 by BULL HN Information Systems Inc.
    Copyright 2006 by Bull SAS
    All Rights Reserved
