ASSEMBLY LISTING OF SEGMENT >spec>on>09/07/83-gcos>gcos_get_bar_.alm
ASSEMBLED ON:	09/09/83  1052.1 mst Fri
OPTIONS USED:	list
ASSEMBLED BY:	ALM Version  6.4  April 1981
ASSEMBLER CREATED:	11/03/82  1423.6 mst Wed

                                     1  " ***********************************************************
                                     2  " *                                                         *
                                     3  " * Copyright, (C) Honeywell Information Systems Inc., 1982 *
                                     4  " *                                                         *
                                     5  " ***********************************************************
                                     6  " declare gcos_get_bar_ entry(bit(36));
                                     7  " Return BAR register value (left justified, i.e.,
                                     8  " bar.base[0-8]||bar.bound[9-17]||garbage[18-35])
                                     9  " Dave Ward 09/19/80
    000000                          10  	name	gcos_get_bar_
                        000000      11  	segdef	gcos_get_bar_
                                    12  	even
    000000                          13  gcos_get_bar_:
    000000  aa  0 00002 5501 20     14  	sbar	ap|2,*	" b(36)<-bar register.
    000001  aa  7 00044 7101 20     15  	short_return
                                    16  	end

NO LITERALS

NAME DEFINITIONS FOR ENTRY POINTS AND SEGDEFS

    000002  5a   000003 000000
    000003  5a   000030 600000
    000004  aa   000000 000000
    000005  55   000012 000002
    000006  5a   000002 400003
    000007  55   000006 000012
    000010  aa  015 147 143 157
    000011  aa  163 137 147 145
    000012  aa  164 137 142 141
    000013  aa  162 137 000 000
    000014  55   000021 000003
    000015  0a   000000 400000
    000016  55   000015 000003
    000017  aa  015 147 143 157         gcos_get_bar_
    000020  aa  163 137 147 145
    000021  aa  164 137 142 141
    000022  aa  162 137 000 000
    000023  55   000002 000012
    000024  6a   000000 400002
    000025  55   000024 000003
    000026  aa  014 163 171 155         symbol_table
    000027  aa  142 157 154 137
    000030  aa  164 141 142 154
    000031  aa  145 000 000 000

DEFINITIONS HASH TABLE

    000032  aa   000000 000015
    000033  aa   000000 000000
    000034  aa   000000 000000
    000035  aa   000000 000000
    000036  aa   000000 000000
    000037  aa   000000 000000
    000040  aa   000000 000000
    000041  5a   000021 000000
    000042  aa   000000 000000
    000043  aa   000000 000000
    000044  5a   000012 000000
    000045  aa   000000 000000
    000046  aa   000000 000000
    000047  aa   000000 000000

NO EXTERNAL NAMES

NO TRAP POINTER WORDS

TYPE PAIR BLOCKS

    000050  aa   000001 000000
    000051  aa   000000 000000

INTERNAL EXPRESSION WORDS

LINKAGE INFORMATION

    000000  aa   000000 000000
    000001  0a   000002 000000
    000002  aa   000000 000000
    000003  aa   000000 000000
    000004  aa   000000 000000
    000005  aa   000000 000000
    000006  22   000010 000010
    000007  a2   000000 000000
SYMBOL INFORMATION

SYMBOL TABLE HEADER

    000000  aa   000000 000001
    000001  aa   163171 155142
    000002  aa   164162 145145
    000003  aa   000000 000004
    000004  aa   000000 111316
    000005  aa   510113 575622
    000006  aa   000000 112124
    000007  aa   155765 422011
    000010  aa   141154 155040
    000011  aa   040040 040040
    000012  aa   000024 000040
    000013  aa   000034 000040
    000014  aa   000044 000100
    000015  aa   000002 000002
    000016  aa   000064 000000
    000017  aa   000000 000120
    000020  aa   000000 000104
    000021  aa   000000 000107
    000022  aa   000112 000104
    000023  aa   000064 000000
    000024  aa   101114 115040
    000025  aa   126145 162163
    000026  aa   151157 156040
    000027  aa   040066 056064
    000030  aa   040040 101160
    000031  aa   162151 154040
    000032  aa   061071 070061
    000033  aa   040040 040040
    000034  aa   107112 157150
    000035  aa   156163 157156
    000036  aa   056123 171163
    000037  aa   115141 151156
    000040  aa   164056 155040
    000041  aa   040040 040040
    000042  aa   040040 040040
    000043  aa   040040 040040
    000044  aa   154151 163164
    000045  aa   040040 040040
    000046  aa   040040 040040
    000047  aa   040040 040040
    000050  aa   040040 040040
    000051  aa   040040 040040
    000052  aa   040040 040040
    000053  aa   040040 040040
    000054  aa   040040 040040
    000055  aa   040040 040040
    000056  aa   040040 040040
    000057  aa   040040 040040
    000060  aa   040040 040040
    000061  aa   040040 040040
    000062  aa   040040 040040
    000063  aa   040040 040040
    000064  aa   000000 000001
    000065  aa   000000 000001
    000066  aa   000072 000050
    000067  aa   121240 053364
    000070  aa   000000 112124
    000071  aa   131566 200000
    000072  aa   076163 160145          >spec>on>09/07/83-gcos>gcos_get_bar_.alm
    000073  aa   143076 157156
    000074  aa   076060 071057
    000075  aa   060067 057070
    000076  aa   063055 147143
    000077  aa   157163 076147
    000100  aa   143157 163137
    000101  aa   147145 164137
    000102  aa   142141 162137
    000103  aa   056141 154155
               MULTICS ASSEMBLY CROSS REFERENCE LISTING

   Value        Symbol                   Source file   Line number

           0    gcos_get_bar_            gcos_get_bar_:       11,   13.


NO FATAL ERRORS


                                          -----------------------------------------------------------


Historical Background

This edition of the Multics software materials and documentation is provided and donated
to Massachusetts Institute of Technology by Group BULL including BULL HN Information Systems Inc.
as a contribution to computer science knowledge.
This donation is made also to give evidence of the common contributions of Massachusetts Institute of Technology,
Bell Laboratories, General Electric, Honeywell Information Systems Inc., Honeywell BULL Inc., Groupe BULL
and BULL HN Information Systems Inc. to the development of this operating system.
Multics development was initiated by Massachusetts Institute of Technology Project MAC (1963-1970),
renamed the MIT Laboratory for Computer Science and Artificial Intelligence in the mid 1970s, under the leadership
of Professor Fernando Jose Corbato. Users consider that Multics provided the best software architecture
for managing computer hardware properly and for executing programs. Many subsequent operating systems
incorporated Multics principles.
Multics was distributed in 1975 to 2000 by Group Bull in Europe , and in the U.S. by Bull HN Information Systems Inc.,
as successor in interest by change in name only to Honeywell Bull Inc. and Honeywell Information Systems Inc. .

                                          -----------------------------------------------------------

Permission to use, copy, modify, and distribute these programs and their documentation for any purpose and without
fee is hereby granted,provided that the below copyright notice and historical background appear in all copies
and that both the copyright notice and historical background and this permission notice appear in supporting
documentation, and that the names of MIT, HIS, BULL or BULL HN not be used in advertising or publicity pertaining
to distribution of the programs without specific prior written permission.
    Copyright 1972 by Massachusetts Institute of Technology and Honeywell Information Systems Inc.
    Copyright 2006 by BULL HN Information Systems Inc.
    Copyright 2006 by Bull SAS
    All Rights Reserved
