ASSEMBLY LISTING OF SEGMENT >special_ldd>install>MR12.0-1206>gcos_et_.alm
ASSEMBLED ON:	11/05/86  1057.9 mst Wed
OPTIONS USED:	list
ASSEMBLED BY:	ALM Version  6.7  October 1986
ASSEMBLER CREATED:	10/08/86  1557.5 mst Wed

                                     1  " ***********************************************************
                                     2  " *                                                         *
                                     3  " * Copyright, (C) Honeywell Information Systems Inc., 1982 *
                                     4  " *                                                         *
                                     5  " ***********************************************************
                                     6  "	G C O S   E N V I R O N M E N T   E R R O R   T A B L E
                                     7  "
                                     8  " Error Table for the GCOS Environment.
                                     9  "
                                    10  " Created: M. R. Jordan	08/01/77
                                    11  " Changed: Dave Ward	05/22/81	multirecord codes.
                                    12  " Changed: Scott C. Akers	02/22/82	Tape data exceeds buffer size.
                                    13  "
                                    14  "
    000000                          15  	maclist	off
                                    16  	include	et_macros
                                   1-1  " Begin include file ...... et_macros.incl.alm
                                   1-2  "	Written 6/15/77 by Noel I. Morris
                                   1-3  "	Modified '82 so error code entries are in first page of segment.
                                   1-4
                                   1-5  " This include file contains macros for generating error tables
                                   1-6  " for both system and non-system use.
                                   1-7
                                   1-8  " ET MACRO
                                   1-9  "
                                  1-10  " This macro is used to initialize the error table for either
                                  1-11  " system or non-system use.  It is invoked at the beginning of
                                  1-12  " the error table as follows:
                                  1-13  "
                                  1-14  "	et	table_name{,system}
                                  1-15  "
                                  1-16
                                  1-17  macro	et
                              1   1-18  	maclist	on
                              2   1-19
                              3   1-20  	name	&1
                              4   1-21
                              5   1-22  &^=&2,system&[
                              6   1-23
                              7   1-24  	include	stack_header
                              8   1-25
                              9   1-26  
                             10   1-27
                             11   1-28  	use	codes
                             12   1-29  .code_start:
                             13   1-30
                             14   1-31  	use	past_codes
                             15   1-32  .code_end:
                             16   1-33
                             17   1-34  	join	/link/codes,past_codes
                             18   1-35
                             19   1-36  	use	messages
                             20   1-37
                             21   1-38  .trapproc:
                             22   1-39  	epaq	0,ic
                             23   1-40  	eax0	0,au
                             24   1-41  	epbpsb	sp|0
                             25   1-42  	lprplp	sb|stack_header.lot_ptr,*au
                             26   1-43  	eax1	.code_start
                             27   1-44  .loop:	stx0	lp|0,x1
                             28   1-45  	eax1	1,x1
                             29   1-46  	cmpx1	.code_end,du
                             30   1-47  	tmi	.loop-*,ic
                             31   1-48  	short_return
                             32   1-49
                             33   1-50  	firstref	<*text>|.trapproc
                             34   1-51
                             35   1-52  &;	use	codes
                             36   1-53  	use	messages
                             37   1-54
                             38   1-55  	join	/text/codes,messages
                             39   1-56
                             40   1-57  &]
                             41   1-58
                             42   1-59  	bool	.segno,77777
                             43   1-60
                             44   1-61  	maclist	off
                             45   1-62
                             46   1-63  	&end
                                  1-64
                                  1-65  
                                  1-66
                                  1-67  " EC MACRO
                                  1-68  "
                                  1-69  " This macro is used to define an error code as shown:
                                  1-70  "
                                  1-71  "	ec	name,{short_mess},(long_mess)
                                  1-72  "
                                  1-73  " If more than a single name is to be defined for a given message,
                                  1-74  " a list of names separated by commas and enclosed in parentheses
                                  1-75  " must be given.   short_mess must be 8 or less characters.  If omitted,
                                  1-76  " the short_mess will be set to the name.  long_mess is enclosed
                                  1-77  " in parentheses in order to cause ALM to ignore embedded blanks.  Please
                                  1-78  " note that double quote characters in either short_mess or long_mess
                                  1-79  " must be doubled in order to make the ALM assembly work properly.
                                  1-80  " Note that a macro invocation line terminated by a comma will cause that
                                  1-81  " statement to be continued on the next line.
                                  1-82
                                  1-83  macro	ec
                              1   1-84  	use	codes
                              2   1-85
                              3   1-86  	maclist	on,save
                              4   1-87  &(1	segdef  &i
                              5   1-88  &)	maclist	restore
                              6   1-89  &(1&i:
                              7   1-90  &)	maclist	object,save
                              8   1-91  	zero	.segno,&U
                              9   1-92  	maclist	restore
                             10   1-93  	use	messages
                             11   1-94  &^=&l2,0&[	shortname    &2
                             12   1-95  &;	shortname    &1
                             13   1-96  &]
                             14   1-97  &U:
                             15   1-98  	maclist	on,save
                             16   1-99  	acc  "&3"
                             17  1-100
                             18  1-101  	maclist	restore
                             19  1-102  	&end
                                 1-103
                                 1-104  macro	shortname
                              1  1-105  	maclist	on,save
                              2  1-106  	aci  "&1",8
                              3  1-107  	maclist	restore
                              4  1-108  	&end
                                 1-109
                                 1-110  
                                 1-111
                                 1-112  " A typical error table source program might have the following format:
                                 1-113  "
                                 1-114  "	include	et_macros
                                 1-115  "
                                 1-116  "	et	name_of_error_table
                                 1-117  "
                                 1-118  "	ec	error_code_1,ecode1,(This is error code 1.)
                                 1-119  "
                                 1-120  "	ec	error_code_2,ecode2,(This is error code 2.)
                                 1-121  "
                                 1-122  "	:	     :	      :		:
                                 1-123  "
                                 1-124  "	ec	error_code_n,ecoden,(This is the nth error code.)
                                 1-125  "
                                 1-126  "	end
                                 1-127  "
                                 1-128
                                 1-129  " End of include file ...... et_macros.incl.alm
                                 1-130
                                    17  
                                    18  	et	gcos_et_

    000000                              	name	gcos_et_


                                        	include	stack_header
                                   2-1  "	BEGIN INCLUDE FILE ... stack_header.incl.alm  3/72  Bill Silver
                                   2-2  "
                                   2-3  "	modified 7/76 by M. Weaver for *system links and more system use of areas
                                   2-4  "	modified 3/77 by M. Weaver  to add rnt_ptr
                                   2-5  "	modified 7/77 by S. Webber to add run_unit_depth and assign_linkage_ptr
                                   2-6  "	modified 6/83 by J. Ives to add trace_frames and in_trace.
                                   2-7
                                   2-8  " HISTORY COMMENTS:
                                   2-9  "  1) change(86-06-24,DGHowe), approve(86-06-24,MCR7396),
                                  2-10  "     audit(86-08-05,Schroth), install(86-11-03,MR12.0-1206):
                                  2-11  "     added the heap_header_ptr definition
                                  2-12  "  2) change(86-08-12,Kissel), approve(86-08-12,MCR7473),
                                  2-13  "     audit(86-10-10,Fawcett), install(86-11-03,MR12.0-1206):
                                  2-14  "     Modified to support control point management.  These changes were
                                  2-15  "     actually made in February 1985 by G. Palter.
                                  2-16  "  3) change(86-10-22,Fawcett), approve(86-10-22,MCR7473),
                                  2-17  "     audit(86-10-22,Farley), install(86-11-03,MR12.0-1206):
                                  2-18  "     Remove the old_lot pointer and replace it with cpm_data_ptr. Use the 18
                                  2-19  "     bit pad after cur_lot_size for the cpm_enabled. This was done to save
                                  2-20  "     some space int the stack header and change the cpd_ptr unal to
                                  2-21  "     cpm_data_ptr (ITS pair).
                                  2-22  "                                                      END HISTORY COMMENTS
                                  2-23
                        000004    2-24  	equ	stack_header.cpm_data_ptr,4		ptr to control point for this stack
                        000006    2-25  	equ	stack_header.combined_stat_ptr,6	ptr to separate static area
                                  2-26
                        000010    2-27  	equ	stack_header.clr_ptr,8		ptr to area containing linkage sections
                        000012    2-28  	equ	stack_header.max_lot_size,10		number of words allowed in lot (DU)
                        000012    2-29  	equ	stack_header.main_proc_invoked,10	nonzero if main proc was invoked in run unit (DL)
                        000012    2-30  	equ	stack_header.run_unit_depth,10	number of active run units stacked (DL)
                        000013    2-31  	equ	stack_header.cur_lot_size,11		DU number of words (entries) in lot
                        000013    2-32            equ	stack_header.cpm_enabled,11		DL  non-zero if control point management is enabled
                        000014    2-33  	equ	stack_header.system_free_ptr,12	ptr to system storage area
                        000016    2-34  	equ	stack_header.user_free_ptr,14		ptr to user storage area
                                  2-35
                        000020    2-36  	equ	stack_header.parent_ptr,16		ptr to parent stack or null
                        000022    2-37  	equ	stack_header.stack_begin_ptr,18	ptr to first stack frame
                        000024    2-38  	equ	stack_header.stack_end_ptr,20		ptr to next useable stack frame
                        000026    2-39  	equ	stack_header.lot_ptr,22		ptr to the lot for the current ring
                                  2-40
                        000030    2-41  	equ	stack_header.signal_ptr,24		ptr to signal proc for current ring
                        000032    2-42  	equ	stack_header.bar_mode_sp,26		value of sp before entering bar mode
                        000034    2-43  	equ	stack_header.pl1_operators_ptr,28	ptr: pl1_operators_$operator_table
                        000036    2-44  	equ	stack_header.call_op_ptr,30		ptr to standard call operator
                                  2-45
                        000040    2-46  	equ	stack_header.push_op_ptr,32		ptr to standard push operator
                        000042    2-47  	equ	stack_header.return_op_ptr,34		ptr to standard return operator
                        000044    2-48  	equ	stack_header.ret_no_pop_op_ptr,36	ptr: stand. return/ no pop operator
                        000046    2-49  	equ	stack_header.entry_op_ptr,38		ptr to standard entry operator
                                  2-50
                        000050    2-51  	equ	stack_header.trans_op_tv_ptr,40	ptr to table of translator operator ptrs
                        000052    2-52  	equ	stack_header.isot_ptr,42		pointer to ISOT
                        000054    2-53  	equ	stack_header.sct_ptr,44		pointer to System Condition Table
                        000056    2-54  	equ	stack_header.unwinder_ptr,46		pointer to unwinder for current ring
                                  2-55
                        000060    2-56  	equ	stack_header.sys_link_info_ptr,48	ptr to *system link name table
                        000062    2-57  	equ	stack_header.rnt_ptr,50		ptr to reference name table
                        000064    2-58  	equ	stack_header.ect_ptr,52		ptr to event channel table
                        000066    2-59  	equ	stack_header.assign_linkage_ptr,54	ptr to area for hcs_$assign_linkage calls
                        000070    2-60  	equ	stack_header.heap_header_ptr,56	ptr to heap header.
                        000072    2-61  	equ	stack_header.trace_frames,58		stack of trace_catch_ frames
                        000073    2-62  	equ	stach_header.trace_top_ptr,59		trace pointer
                        000074    2-63  	equ	stack_header.in_trace,60		trace antirecurse bit
                        000100    2-64  	equ	stack_header_end,64			length of stack header
                                  2-65
                                  2-66
                                  2-67
                                  2-68
                        000000    2-69  	equ	trace_frames.count,0		number of trace frames on stack
                        000001    2-70  	equ	trace_frames.top_ptr,1		packed pointer to top one
                                  2-71
                                  2-72  "	The  following constant is an offset within the  pl1  operators table.
                                  2-73  "	It  references a  transfer vector table.
                                  2-74
                        000551    2-75  	bool	tv_offset,551
                                  2-76
                                  2-77
                                  2-78  "	The  following constants are offsets within this transfer vector table.
                                  2-79
                        001170    2-80  	equ	call_offset,tv_offset+271
                        001171    2-81  	equ	push_offset,tv_offset+272
                        001172    2-82  	equ	return_offset,tv_offset+273
                        001173    2-83  	equ	return_no_pop_offset,tv_offset+274
                        001174    2-84  	equ	entry_offset,tv_offset+275
                                  2-85
                                  2-86
                                  2-87  " 	END INCLUDE FILE stack_header.incl.alm

                                        

                                        	use	codes
    000010                              .code_start:

                                        	use	past_codes
    000225                              .code_end:

                                        	join	/link/codes,past_codes

                                        	use	messages

    000000                              .trapproc:
    000000  aa   000000 2130 04         	epaq	0,ic
    000001  aa   000000 6200 01         	eax0	0,au
    000002  aa  6 00000 3731 00         	epbpsb	sp|0
    000003  aa  7 00026 7641 61         	lprplp	sb|stack_header.lot_ptr,*au
    000004  8a   000010 6210 00         	eax1	.code_start
    000005  aa  4 00000 7401 11         .loop:	stx0	lp|0,x1
    000006  aa   000001 6210 11         	eax1	1,x1
    000007  8a   000225 1010 03         	cmpx1	.code_end,du
    000010  aa   777775 6040 04         	tmi	.loop-*,ic
    000011  aa  7 00044 7101 20         	short_return

    000012                              	firstref	<*text>|.trapproc


                        077777          	bool	.segno,77777

                                    19  
                                    20
                                    21  ec no_reason,GCOS0000,
                                    22     (no reason specified)
                        000010          	segdef  no_reason
    000010  a0   077777 000014
    000012  aa  107 103 117 123         	aci  "GCOS0000",8
    000013  aa  060 060 060 060
    000014  aa  023 156 157 040         	acc  "no reason specified"
    000015  aa  162 145 141 163
    000016  aa  157 156 040 163
    000017  aa  160 145 143 151
    000020  aa  146 151 145 144

                                    23  ec cant_load_ssa,GCOS0001,
                                    24     (cannot load ssa module)
                        000011          	segdef  cant_load_ssa
    000011  a0   077777 000023
    000021  aa  107 103 117 123         	aci  "GCOS0001",8
    000022  aa  060 060 060 061
    000023  aa  026 143 141 156         	acc  "cannot load ssa module"
    000024  aa  156 157 164 040
    000025  aa  154 157 141 144
    000026  aa  040 163 163 141
    000027  aa  040 155 157 144
    000030  aa  165 154 145 000

                                    25  ec ssa_mod_cksm_err,GCOS0002,
                                    26     (ssa module cheksum error)
                        000012          	segdef  ssa_mod_cksm_err
    000012  a0   077777 000033
    000031  aa  107 103 117 123         	aci  "GCOS0002",8
    000032  aa  060 060 060 062
    000033  aa  030 163 163 141         	acc  "ssa module cheksum error"
    000034  aa  040 155 157 144
    000035  aa  165 154 145 040
    000036  aa  143 150 145 153
    000037  aa  163 165 155 040
    000040  aa  145 162 162 157
    000041  aa  162 000 000 000

                                    27  ec cant_find_ssa_mod,GCOS0003,
                                    28     (cannot find ssa module)
                        000013          	segdef  cant_find_ssa_mod
    000013  a0   077777 000044
    000042  aa  107 103 117 123         	aci  "GCOS0003",8
    000043  aa  060 060 060 063
    000044  aa  026 143 141 156         	acc  "cannot find ssa module"
    000045  aa  156 157 164 040
    000046  aa  146 151 156 144
    000047  aa  040 163 163 141
    000050  aa  040 155 157 144
    000051  aa  165 154 145 000

                                    29  ec dchln_preselected,GCOS0004,
                                    30     (dchln preselected)
                        000014          	segdef  dchln_preselected
    000014  a0   077777 000054
    000052  aa  107 103 117 123         	aci  "GCOS0004",8
    000053  aa  060 060 060 064
    000054  aa  021 144 143 150         	acc  "dchln preselected"
    000055  aa  154 156 040 160
    000056  aa  162 145 163 145
    000057  aa  154 145 143 164
    000060  aa  145 144 000 000

                                    31  ec out_of_time,GCOS0005,
                                    32     (i8-run time exhausted)
                        000015          	segdef  out_of_time
    000015  a0   077777 000063
    000061  aa  107 103 117 123         	aci  "GCOS0005",8
    000062  aa  060 060 060 065
    000063  aa  025 151 070 055         	acc  "i8-run time exhausted"
    000064  aa  162 165 156 040
    000065  aa  164 151 155 145
    000066  aa  040 145 170 150
    000067  aa  141 165 163 164
    000070  aa  145 144 000 000

                                    33  ec bad_mme_in_cc,GCOS0006,
                                    34     (i2-improper mme in c.c)
                        000016          	segdef  bad_mme_in_cc
    000016  a0   077777 000073
    000071  aa  107 103 117 123         	aci  "GCOS0006",8
    000072  aa  060 060 060 066
    000073  aa  026 151 062 055         	acc  "i2-improper mme in c.c"
    000074  aa  151 155 160 162
    000075  aa  157 160 145 162
    000076  aa  040 155 155 145
    000077  aa  040 151 156 040
    000100  aa  143 056 143 000

                                    35  ec geendc_not_in_cc,GCOS0007,
                                    36     (i6-geendc but not in cc.)
                        000017          	segdef  geendc_not_in_cc
    000017  a0   077777 000103
    000101  aa  107 103 117 123         	aci  "GCOS0007",8
    000102  aa  060 060 060 067
    000103  aa  030 151 066 055         	acc  "i6-geendc but not in cc."
    000104  aa  147 145 145 156
    000105  aa  144 143 040 142
    000106  aa  165 164 040 156
    000107  aa  157 164 040 151
    000110  aa  156 040 143 143
    000111  aa  056 000 000 000

                                    37  ec pri_mailbox_err,GCOS0008,
                                    38     (primary mailbox error)
                        000020          	segdef  pri_mailbox_err
    000020  a0   077777 000114
    000112  aa  107 103 117 123         	aci  "GCOS0008",8
    000113  aa  060 060 060 070
    000114  aa  025 160 162 151         	acc  "primary mailbox error"
    000115  aa  155 141 162 171
    000116  aa  040 155 141 151
    000117  aa  154 142 157 170
    000120  aa  040 145 162 162
    000121  aa  157 162 000 000

                                    39  ec connect_or_ti_err,GCOS0009,
                                    40     (connect or t.i. error)
                        000021          	segdef  connect_or_ti_err
    000021  a0   077777 000124
    000122  aa  107 103 117 123         	aci  "GCOS0009",8
    000123  aa  060 060 060 071
    000124  aa  025 143 157 156         	acc  "connect or t.i. error"
    000125  aa  156 145 143 164
    000126  aa  040 157 162 040
    000127  aa  164 056 151 056
    000130  aa  040 145 162 162
    000131  aa  157 162 000 000

                                    41  ec ioc_data_service_err,GCOS0010,
                                    42     (ioc data-service error)
                        000022          	segdef  ioc_data_service_err
    000022  a0   077777 000134
    000132  aa  107 103 117 123         	aci  "GCOS0010",8
    000133  aa  060 060 061 060
    000134  aa  026 151 157 143         	acc  "ioc data-service error"
    000135  aa  040 144 141 164
    000136  aa  141 055 163 145
    000137  aa  162 166 151 143
    000140  aa  145 040 145 162
    000141  aa  162 157 162 000

                                    43  ec ioc_mem_addr_flt,GCOS0011,
                                    44     (ioc memory address fault)
                        000023          	segdef  ioc_mem_addr_flt
    000023  a0   077777 000144
    000142  aa  107 103 117 123         	aci  "GCOS0011",8
    000143  aa  060 060 061 061
    000144  aa  030 151 157 143         	acc  "ioc memory address fault"
    000145  aa  040 155 145 155
    000146  aa  157 162 171 040
    000147  aa  141 144 144 162
    000150  aa  145 163 163 040
    000151  aa  146 141 165 154
    000152  aa  164 000 000 000

                                    45  ec ioc_not_master_mode,GCOS0012,
                                    46     (ioc not master mode flt.)
                        000024          	segdef  ioc_not_master_mode
    000024  a0   077777 000155
    000153  aa  107 103 117 123         	aci  "GCOS0012",8
    000154  aa  060 060 061 062
    000155  aa  030 151 157 143         	acc  "ioc not master mode flt."
    000156  aa  040 156 157 164
    000157  aa  040 155 141 163
    000160  aa  164 145 162 040
    000161  aa  155 157 144 145
    000162  aa  040 146 154 164
    000163  aa  056 000 000 000

                                    47  ec mem_parity_in_io,GCOS0013,
                                    48     (memory parity during i/o)
                        000025          	segdef  mem_parity_in_io
    000025  a0   077777 000166
    000164  aa  107 103 117 123         	aci  "GCOS0013",8
    000165  aa  060 060 061 063
    000166  aa  030 155 145 155         	acc  "memory parity during i/o"
    000167  aa  157 162 171 040
    000170  aa  160 141 162 151
    000171  aa  164 171 040 144
    000172  aa  165 162 151 156
    000173  aa  147 040 151 057
    000174  aa  157 000 000 000

                                    49  ec ioc_not_ctl_proc,GCOS0014,
                                    50     (ioc not ctl. proc. fault)
                        000026          	segdef  ioc_not_ctl_proc
    000026  a0   077777 000177
    000175  aa  107 103 117 123         	aci  "GCOS0014",8
    000176  aa  060 060 061 064
    000177  aa  030 151 157 143         	acc  "ioc not ctl. proc. fault"
    000200  aa  040 156 157 164
    000201  aa  040 143 164 154
    000202  aa  056 040 160 162
    000203  aa  157 143 056 040
    000204  aa  146 141 165 154
    000205  aa  164 000 000 000

                                    51  ec ioc_mem_protect,GCOS0015,
                                    52     (ioc mem. protect fault)
                        000027          	segdef  ioc_mem_protect
    000027  a0   077777 000210
    000206  aa  107 103 117 123         	aci  "GCOS0015",8
    000207  aa  060 060 061 065
    000210  aa  026 151 157 143         	acc  "ioc mem. protect fault"
    000211  aa  040 155 145 155
    000212  aa  056 040 160 162
    000213  aa  157 164 145 143
    000214  aa  164 040 146 141
    000215  aa  165 154 164 000

                                    53  ec mem_time_out_in_io,GCOS0016,
                                    54     (memory time-out in i/o)
                        000030          	segdef  mem_time_out_in_io
    000030  a0   077777 000220
    000216  aa  107 103 117 123         	aci  "GCOS0016",8
    000217  aa  060 060 061 066
    000220  aa  026 155 145 155         	acc  "memory time-out in i/o"
    000221  aa  157 162 171 040
    000222  aa  164 151 155 145
    000223  aa  055 157 165 164
    000224  aa  040 151 156 040
    000225  aa  151 057 157 000

                                    55  ec other_mem_ioc_err,GCOS0017,
                                    56     (other ioc-memory error)
                        000031          	segdef  other_mem_ioc_err
    000031  a0   077777 000230
    000226  aa  107 103 117 123         	aci  "GCOS0017",8
    000227  aa  060 060 061 067
    000230  aa  026 157 164 150         	acc  "other ioc-memory error"
    000231  aa  145 162 040 151
    000232  aa  157 143 055 155
    000233  aa  145 155 157 162
    000234  aa  171 040 145 162
    000235  aa  162 157 162 000

                                    57  ec mem_addr_flt,GCOS0018,
                                    58     (f0-memory address fault)
                        000032          	segdef  mem_addr_flt
    000032  a0   077777 000240
    000236  aa  107 103 117 123         	aci  "GCOS0018",8
    000237  aa  060 060 061 070
    000240  aa  027 146 060 055         	acc  "f0-memory address fault"
    000241  aa  155 145 155 157
    000242  aa  162 171 040 141
    000243  aa  144 144 162 145
    000244  aa  163 163 040 146
    000245  aa  141 165 154 164

                                    59  ec bad_mme_addr,GCOS0019,
                                    60     (i1-improper mme address)
                        000033          	segdef  bad_mme_addr
    000033  a0   077777 000250
    000246  aa  107 103 117 123         	aci  "GCOS0019",8
    000247  aa  060 060 061 071
    000250  aa  027 151 061 055         	acc  "i1-improper mme address"
    000251  aa  151 155 160 162
    000252  aa  157 160 145 162
    000253  aa  040 155 155 145
    000254  aa  040 141 144 144
    000255  aa  162 145 163 163

                                    61  ec fault_tag_flt,GCOS0020,
                                    62     (f1-fault tag fault)
                        000034          	segdef  fault_tag_flt
    000034  a0   077777 000260
    000256  aa  107 103 117 123         	aci  "GCOS0020",8
    000257  aa  060 060 062 060
    000260  aa  022 146 061 055         	acc  "f1-fault tag fault"
    000261  aa  146 141 165 154
    000262  aa  164 040 164 141
    000263  aa  147 040 146 141
    000264  aa  165 154 164 000

                                    63  ec command_flt,GCOS0021,
                                    64     (f2-command fault)
                        000035          	segdef  command_flt
    000035  a0   077777 000267
    000265  aa  107 103 117 123         	aci  "GCOS0021",8
    000266  aa  060 060 062 061
    000267  aa  020 146 062 055         	acc  "f2-command fault"
    000270  aa  143 157 155 155
    000271  aa  141 156 144 040
    000272  aa  146 141 165 154
    000273  aa  164 000 000 000

                                    65  ec derail_flt,GCOS0022,
                                    66     (f3-derail fault)
                        000036          	segdef  derail_flt
    000036  a0   077777 000276
    000274  aa  107 103 117 123         	aci  "GCOS0022",8
    000275  aa  060 060 062 062
    000276  aa  017 146 063 055         	acc  "f3-derail fault"
    000277  aa  144 145 162 141
    000300  aa  151 154 040 146
    000301  aa  141 165 154 164

                                    67  ec lockup_flt,GCOS0023,
                                    68     (f4-lockup fault)
                        000037          	segdef  lockup_flt
    000037  a0   077777 000304
    000302  aa  107 103 117 123         	aci  "GCOS0023",8
    000303  aa  060 060 062 063
    000304  aa  017 146 064 055         	acc  "f4-lockup fault"
    000305  aa  154 157 143 153
    000306  aa  165 160 040 146
    000307  aa  141 165 154 164

                                    69  ec mem_parity_flt,GCOS0024,
                                    70     (f6-memory parity fault)
                        000040          	segdef  mem_parity_flt
    000040  a0   077777 000312
    000310  aa  107 103 117 123         	aci  "GCOS0024",8
    000311  aa  060 060 062 064
    000312  aa  026 146 066 055         	acc  "f6-memory parity fault"
    000313  aa  155 145 155 157
    000314  aa  162 171 040 160
    000315  aa  141 162 151 164
    000316  aa  171 040 146 141
    000317  aa  165 154 164 000

                                    71  ec illegal_procedure,GCOS0025,
                                    72     (f7-undefined op. fault)
                        000041          	segdef  illegal_procedure
    000041  a0   077777 000322
    000320  aa  107 103 117 123         	aci  "GCOS0025",8
    000321  aa  060 060 062 065
    000322  aa  026 146 067 055         	acc  "f7-undefined op. fault"
    000323  aa  165 156 144 145
    000324  aa  146 151 156 145
    000325  aa  144 040 157 160
    000326  aa  056 040 146 141
    000327  aa  165 154 164 000

                                    73  ec over_or_under_flow,GCOS0026,
                                    74     (f9-overflow/underflow)
                        000042          	segdef  over_or_under_flow
    000042  a0   077777 000332
    000330  aa  107 103 117 123         	aci  "GCOS0026",8
    000331  aa  060 060 062 066
    000332  aa  025 146 071 055         	acc  "f9-overflow/underflow"
    000333  aa  157 166 145 162
    000334  aa  146 154 157 167
    000335  aa  057 165 156 144
    000336  aa  145 162 146 154
    000337  aa  157 167 000 000

                                    75  ec divide_check_flt,GCOS0027,
                                    76     (i0-divide check fault)
                        000043          	segdef  divide_check_flt
    000043  a0   077777 000342
    000340  aa  107 103 117 123         	aci  "GCOS0027",8
    000341  aa  060 060 062 067
    000342  aa  025 151 060 055         	acc  "i0-divide check fault"
    000343  aa  144 151 166 151
    000344  aa  144 145 040 143
    000345  aa  150 145 143 153
    000346  aa  040 146 141 165
    000347  aa  154 164 000 000

                                    77  ec op_not_complete_flt,GCOS0028,
                                    78     (f8-op not complete fault)
                        000044          	segdef  op_not_complete_flt
    000044  a0   077777 000352
    000350  aa  107 103 117 123         	aci  "GCOS0028",8
    000351  aa  060 060 062 070
    000352  aa  030 146 070 055         	acc  "f8-op not complete fault"
    000353  aa  157 160 040 156
    000354  aa  157 164 040 143
    000355  aa  157 155 160 154
    000356  aa  145 164 145 040
    000357  aa  146 141 165 154
    000360  aa  164 000 000 000

                                    79  ec io_oob,GCOS0029,
                                    80     (i/o out of memory bounds)
                        000045          	segdef  io_oob
    000045  a0   077777 000363
    000361  aa  107 103 117 123         	aci  "GCOS0029",8
    000362  aa  060 060 062 071
    000363  aa  030 151 057 157         	acc  "i/o out of memory bounds"
    000364  aa  040 157 165 164
    000365  aa  040 157 146 040
    000366  aa  155 145 155 157
    000367  aa  162 171 040 142
    000370  aa  157 165 156 144
    000371  aa  163 000 000 000

                                    81  ec fc_not_defined,GCOS0030,
                                    82     (i3-file code not defined)
                        000046          	segdef  fc_not_defined
    000046  a0   077777 000374
    000372  aa  107 103 117 123         	aci  "GCOS0030",8
    000373  aa  060 060 063 060
    000374  aa  030 151 063 055         	acc  "i3-file code not defined"
    000375  aa  146 151 154 145
    000376  aa  040 143 157 144
    000377  aa  145 040 156 157
    000400  aa  164 040 144 145
    000401  aa  146 151 156 145
    000402  aa  144 000 000 000

                                    83  ec no_inos_file_ptr,GCOS0031,
                                    84     (i5-no geinos filepointer)
                        000047          	segdef  no_inos_file_ptr
    000047  a0   077777 000405
    000403  aa  107 103 117 123         	aci  "GCOS0031",8
    000404  aa  060 060 063 061
    000405  aa  030 151 065 055         	acc  "i5-no geinos filepointer"
    000406  aa  156 157 040 147
    000407  aa  145 151 156 157
    000410  aa  163 040 146 151
    000411  aa  154 145 160 157
    000412  aa  151 156 164 145
    000413  aa  162 000 000 000

                                    85  ec access_beyond_file,GCOS0032,
                                    86     (i7-access beyond file)
                        000050          	segdef  access_beyond_file
    000050  a0   077777 000416
    000414  aa  107 103 117 123         	aci  "GCOS0032",8
    000415  aa  060 060 063 062
    000416  aa  025 151 067 055         	acc  "i7-access beyond file"
    000417  aa  141 143 143 145
    000420  aa  163 163 040 142
    000421  aa  145 171 157 156
    000422  aa  144 040 146 151
    000423  aa  154 145 000 000

                                    87  ec bad_status_ret_ptr,GCOS0033,
                                    88     (k2-bad status ret. ptr.)
                        000051          	segdef  bad_status_ret_ptr
    000051  a0   077777 000426
    000424  aa  107 103 117 123         	aci  "GCOS0033",8
    000425  aa  060 060 063 063
    000426  aa  027 153 062 055         	acc  "k2-bad status ret. ptr."
    000427  aa  142 141 144 040
    000430  aa  163 164 141 164
    000431  aa  165 163 040 162
    000432  aa  145 164 056 040
    000433  aa  160 164 162 056

                                    89  ec invalid_file_ptr,GCOS0034,
                                    90     (k3-invalid file pointer)
                        000052          	segdef  invalid_file_ptr
    000052  a0   077777 000436
    000434  aa  107 103 117 123         	aci  "GCOS0034",8
    000435  aa  060 060 063 064
    000436  aa  027 153 063 055         	acc  "k3-invalid file pointer"
    000437  aa  151 156 166 141
    000440  aa  154 151 144 040
    000441  aa  146 151 154 145
    000442  aa  040 160 157 151
    000443  aa  156 164 145 162

                                    91  ec invalid_dcw_ptr,GCOS0035,
                                    92     (k4-invalid dcw pointer)
                        000053          	segdef  invalid_dcw_ptr
    000053  a0   077777 000446
    000444  aa  107 103 117 123         	aci  "GCOS0035",8
    000445  aa  060 060 063 065
    000446  aa  026 153 064 055         	acc  "k4-invalid dcw pointer"
    000447  aa  151 156 166 141
    000450  aa  154 151 144 040
    000451  aa  144 143 167 040
    000452  aa  160 157 151 156
    000453  aa  164 145 162 000

                                    93  ec bad_cc_ptr,GCOS0036,
                                    94     (k5-bad courtesy call ptr)
                        000054          	segdef  bad_cc_ptr
    000054  a0   077777 000456
    000454  aa  107 103 117 123         	aci  "GCOS0036",8
    000455  aa  060 060 063 066
    000456  aa  030 153 065 055         	acc  "k5-bad courtesy call ptr"
    000457  aa  142 141 144 040
    000460  aa  143 157 165 162
    000461  aa  164 145 163 171
    000462  aa  040 143 141 154
    000463  aa  154 040 160 164
    000464  aa  162 000 000 000

                                    95  ec bad_io_cmnd_file,GCOS0037,
                                    96     (k6-bad i/o command-file)
                        000055          	segdef  bad_io_cmnd_file
    000055  a0   077777 000467
    000465  aa  107 103 117 123         	aci  "GCOS0037",8
    000466  aa  060 060 063 067
    000467  aa  027 153 066 055         	acc  "k6-bad i/o command-file"
    000470  aa  142 141 144 040
    000471  aa  151 057 157 040
    000472  aa  143 157 155 155
    000473  aa  141 156 144 055
    000474  aa  146 151 154 145

                                    97  ec two_tdcws,GCOS0038,
                                    98     (k7-two successive tdcws)
                        000056          	segdef  two_tdcws
    000056  a0   077777 000477
    000475  aa  107 103 117 123         	aci  "GCOS0038",8
    000476  aa  060 060 063 070
    000477  aa  027 153 067 055         	acc  "k7-two successive tdcws"
    000500  aa  164 167 157 040
    000501  aa  163 165 143 143
    000502  aa  145 163 163 151
    000503  aa  166 145 040 164
    000504  aa  144 143 167 163

                                    99  ec invalid_io_for_device,GCOS0039,
                                   100     (k1-invalid i/o on device)
                        000057          	segdef  invalid_io_for_device
    000057  a0   077777 000507
    000505  aa  107 103 117 123         	aci  "GCOS0039",8
    000506  aa  060 060 063 071
    000507  aa  030 153 061 055         	acc  "k1-invalid i/o on device"
    000510  aa  151 156 166 141
    000511  aa  154 151 144 040
    000512  aa  151 057 157 040
    000513  aa  157 156 040 144
    000514  aa  145 166 151 143
    000515  aa  145 000 000 000

                                   101  ec operator_term_rqst,GCOS0040,
                                   102     (x2-operator term request)
                        000060          	segdef  operator_term_rqst
    000060  a0   077777 000520
    000516  aa  107 103 117 123         	aci  "GCOS0040",8
    000517  aa  060 060 064 060
    000520  aa  030 170 062 055         	acc  "x2-operator term request"
    000521  aa  157 160 145 162
    000522  aa  141 164 157 162
    000523  aa  040 164 145 162
    000524  aa  155 040 162 145
    000525  aa  161 165 145 163
    000526  aa  164 000 000 000

                                   103  ec operator_kill_rqst,GCOS0041,
                                   104     (x2-operator kill request)
                        000061          	segdef  operator_kill_rqst
    000061  a0   077777 000531
    000527  aa  107 103 117 123         	aci  "GCOS0041",8
    000530  aa  060 060 064 061
    000531  aa  030 170 062 055         	acc  "x2-operator kill request"
    000532  aa  157 160 145 162
    000533  aa  141 164 157 162
    000534  aa  040 153 151 154
    000535  aa  154 040 162 145
    000536  aa  161 165 145 163
    000537  aa  164 000 000 000

                                   105  ec io_lim_call_save,GCOS0042,
                                   106     (m4/n4-i/o lim. call/save)
                        000062          	segdef  io_lim_call_save
    000062  a0   077777 000542
    000540  aa  107 103 117 123         	aci  "GCOS0042",8
    000541  aa  060 060 064 062
    000542  aa  030 155 064 057         	acc  "m4/n4-i/o lim. call/save"
    000543  aa  156 064 055 151
    000544  aa  057 157 040 154
    000545  aa  151 155 056 040
    000546  aa  143 141 154 154
    000547  aa  057 163 141 166
    000550  aa  145 000 000 000

                                   107  ec io_err_call_save,GCOS0043,
                                   108     (m6/n7-i/o err. call/save)
                        000063          	segdef  io_err_call_save
    000063  a0   077777 000553
    000551  aa  107 103 117 123         	aci  "GCOS0043",8
    000552  aa  060 060 064 063
    000553  aa  030 155 066 057         	acc  "m6/n7-i/o err. call/save"
    000554  aa  156 067 055 151
    000555  aa  057 157 040 145
    000556  aa  162 162 056 040
    000557  aa  143 141 154 154
    000560  aa  057 163 141 166
    000561  aa  145 000 000 000

                                   109  ec no_call_file_pat,GCOS0044,
                                   110     (m5-no pat for call file)
                        000064          	segdef  no_call_file_pat
    000064  a0   077777 000564
    000562  aa  107 103 117 123         	aci  "GCOS0044",8
    000563  aa  060 060 064 064
    000564  aa  027 155 065 055         	acc  "m5-no pat for call file"
    000565  aa  156 157 040 160
    000566  aa  141 164 040 146
    000567  aa  157 162 040 143
    000570  aa  141 154 154 040
    000571  aa  146 151 154 145

                                   111  ec bad_call_save_device,GCOS0045,
                                   112     (m1/n5-bad dev. call/save)
                        000065          	segdef  bad_call_save_device
    000065  a0   077777 000574
    000572  aa  107 103 117 123         	aci  "GCOS0045",8
    000573  aa  060 060 064 065
    000574  aa  030 155 061 057         	acc  "m1/n5-bad dev. call/save"
    000575  aa  156 065 055 142
    000576  aa  141 144 040 144
    000577  aa  145 166 056 040
    000600  aa  143 141 154 154
    000601  aa  057 163 141 166
    000602  aa  145 000 000 000

                                   113  ec non_rndm_call_file,GCOS0046,
                                   114     (non-random gecall file)
                        000066          	segdef  non_rndm_call_file
    000066  a0   077777 000605
    000603  aa  107 103 117 123         	aci  "GCOS0046",8
    000604  aa  060 060 064 066
    000605  aa  026 156 157 156         	acc  "non-random gecall file"
    000606  aa  055 162 141 156
    000607  aa  144 157 155 040
    000610  aa  147 145 143 141
    000611  aa  154 154 040 146
    000612  aa  151 154 145 000

                                   115  ec save_file_full,GCOS0047,
                                   116     (n8-gesave file is full)
                        000067          	segdef  save_file_full
    000067  a0   077777 000615
    000613  aa  107 103 117 123         	aci  "GCOS0047",8
    000614  aa  060 060 064 067
    000615  aa  026 156 070 055         	acc  "n8-gesave file is full"
    000616  aa  147 145 163 141
    000617  aa  166 145 040 146
    000620  aa  151 154 145 040
    000621  aa  151 163 040 146
    000622  aa  165 154 154 000

                                   117  ec call_rstr_cksm,GCOS0048,
                                   118     (m6-call/rstr checksum)
                        000070          	segdef  call_rstr_cksm
    000070  a0   077777 000625
    000623  aa  107 103 117 123         	aci  "GCOS0048",8
    000624  aa  060 060 064 070
    000625  aa  025 155 066 055         	acc  "m6-call/rstr checksum"
    000626  aa  143 141 154 154
    000627  aa  057 162 163 164
    000630  aa  162 040 143 150
    000631  aa  145 143 153 163
    000632  aa  165 155 000 000

                                   119  ec low_rstr_origin_used,GCOS0049,
                                   120     (low gerstr origin used)
                        000071          	segdef  low_rstr_origin_used
    000071  a0   077777 000635
    000633  aa  107 103 117 123         	aci  "GCOS0049",8
    000634  aa  060 060 064 071
    000635  aa  026 154 157 167         	acc  "low gerstr origin used"
    000636  aa  040 147 145 162
    000637  aa  163 164 162 040
    000640  aa  157 162 151 147
    000641  aa  151 156 040 165
    000642  aa  163 145 144 000

                                   121  ec zero_save_word_cnt,GCOS0050,
                                   122     (n4-zero gesave word ct.)
                        000072          	segdef  zero_save_word_cnt
    000072  a0   077777 000645
    000643  aa  107 103 117 123         	aci  "GCOS0050",8
    000644  aa  060 060 065 060
    000645  aa  027 156 064 055         	acc  "n4-zero gesave word ct."
    000646  aa  172 145 162 157
    000647  aa  040 147 145 163
    000650  aa  141 166 145 040
    000651  aa  167 157 162 144
    000652  aa  040 143 164 056

                                   123  ec call_name_missing,GCOS0051,
                                   124     (m2/m3-call name missing)
                        000073          	segdef  call_name_missing
    000073  a0   077777 000655
    000653  aa  107 103 117 123         	aci  "GCOS0051",8
    000654  aa  060 060 065 061
    000655  aa  027 155 062 057         	acc  "m2/m3-call name missing"
    000656  aa  155 063 055 143
    000657  aa  141 154 154 040
    000660  aa  156 141 155 145
    000661  aa  040 155 151 163
    000662  aa  163 151 156 147

                                   125  ec call_out_of_file_span,GCOS0052,
                                   126     (n8-call out of file span)
                        000074          	segdef  call_out_of_file_span
    000074  a0   077777 000665
    000663  aa  107 103 117 123         	aci  "GCOS0052",8
    000664  aa  060 060 065 062
    000665  aa  030 156 070 055         	acc  "n8-call out of file span"
    000666  aa  143 141 154 154
    000667  aa  040 157 165 164
    000670  aa  040 157 146 040
    000671  aa  146 151 154 145
    000672  aa  040 163 160 141
    000673  aa  156 000 000 000

                                   127  ec bad_gcos_call,GCOS0053,
                                   128     (improper gecos call)
                        000075          	segdef  bad_gcos_call
    000075  a0   077777 000676
    000674  aa  107 103 117 123         	aci  "GCOS0053",8
    000675  aa  060 060 065 063
    000676  aa  023 151 155 160         	acc  "improper gecos call"
    000677  aa  162 157 160 145
    000700  aa  162 040 147 145
    000701  aa  143 157 163 040
    000702  aa  143 141 154 154

                                   129  ec zero_fc_to_more,GCOS0054,
                                   130     (gemore - zero filecode)
                        000076          	segdef  zero_fc_to_more
    000076  a0   077777 000705
    000703  aa  107 103 117 123         	aci  "GCOS0054",8
    000704  aa  060 060 065 064
    000705  aa  026 147 145 155         	acc  "gemore - zero filecode"
    000706  aa  157 162 145 040
    000707  aa  055 040 172 145
    000710  aa  162 157 040 146
    000711  aa  151 154 145 143
    000712  aa  157 144 145 000

                                   131  ec bad_more_param,GCOS0055,
                                   132     (m0-bad gemore parameter)
                        000077          	segdef  bad_more_param
    000077  a0   077777 000715
    000713  aa  107 103 117 123         	aci  "GCOS0055",8
    000714  aa  060 060 065 065
    000715  aa  027 155 060 055         	acc  "m0-bad gemore parameter"
    000716  aa  142 141 144 040
    000717  aa  147 145 155 157
    000720  aa  162 145 040 160
    000721  aa  141 162 141 155
    000722  aa  145 164 145 162

                                   133  ec pat_full_from_more,GCOS0056,
                                   134     (no room in pat - gemore)
                        000100          	segdef  pat_full_from_more
    000100  a0   077777 000725
    000723  aa  107 103 117 123         	aci  "GCOS0056",8
    000724  aa  060 060 065 066
    000725  aa  027 156 157 040         	acc  "no room in pat - gemore"
    000726  aa  162 157 157 155
    000727  aa  040 151 156 040
    000730  aa  160 141 164 040
    000731  aa  055 040 147 145
    000732  aa  155 157 162 145

                                   135  ec not_mass_store_more,GCOS0057,
                                   136     (m7-not disc/drum gemore)
                        000101          	segdef  not_mass_store_more
    000101  a0   077777 000735
    000733  aa  107 103 117 123         	aci  "GCOS0057",8
    000734  aa  060 060 065 067
    000735  aa  027 155 067 055         	acc  "m7-not disc/drum gemore"
    000736  aa  156 157 164 040
    000737  aa  144 151 163 143
    000740  aa  057 144 162 165
    000741  aa  155 040 147 145
    000742  aa  155 157 162 145

                                   137  ec bad_rout_op_code,GCOS0058,
                                   138     (r1-bad gerout op. code)
                        000102          	segdef  bad_rout_op_code
    000102  a0   077777 000745
    000743  aa  107 103 117 123         	aci  "GCOS0058",8
    000744  aa  060 060 065 070
    000745  aa  026 162 061 055         	acc  "r1-bad gerout op. code"
    000746  aa  142 141 144 040
    000747  aa  147 145 162 157
    000750  aa  165 164 040 157
    000751  aa  160 056 040 143
    000752  aa  157 144 145 000

                                   139  ec pat_full_from_rout,GCOS0059,
                                   140     (r4-gerout pat exhausted)
                        000103          	segdef  pat_full_from_rout
    000103  a0   077777 000755
    000753  aa  107 103 117 123         	aci  "GCOS0059",8
    000754  aa  060 060 065 071
    000755  aa  027 162 064 055         	acc  "r4-gerout pat exhausted"
    000756  aa  147 145 162 157
    000757  aa  165 164 040 160
    000760  aa  141 164 040 145
    000761  aa  170 150 141 165
    000762  aa  163 164 145 144

                                   141  ec rmt_term_rec_size,GCOS0060,
                                   142     (rmt terminal record size)
                        000104          	segdef  rmt_term_rec_size
    000104  a0   077777 000765
    000763  aa  107 103 117 123         	aci  "GCOS0060",8
    000764  aa  060 060 066 060
    000765  aa  030 162 155 164         	acc  "rmt terminal record size"
    000766  aa  040 164 145 162
    000767  aa  155 151 156 141
    000770  aa  154 040 162 145
    000771  aa  143 157 162 144
    000772  aa  040 163 151 172
    000773  aa  145 000 000 000

                                   143  ec bad_rmt_station_id,GCOS0061,
                                   144     (undef remote station id)
                        000105          	segdef  bad_rmt_station_id
    000105  a0   077777 000776
    000774  aa  107 103 117 123         	aci  "GCOS0061",8
    000775  aa  060 060 066 061
    000776  aa  027 165 156 144         	acc  "undef remote station id"
    000777  aa  145 146 040 162
    001000  aa  145 155 157 164
    001001  aa  145 040 163 164
    001002  aa  141 164 151 157
    001003  aa  156 040 151 144

                                   145  ec bad_rout_pgm_id,GCOS0062,
                                   146     (invalid gerout prog. id)
                        000106          	segdef  bad_rout_pgm_id
    000106  a0   077777 001006
    001004  aa  107 103 117 123         	aci  "GCOS0062",8
    001005  aa  060 060 066 062
    001006  aa  027 151 156 166         	acc  "invalid gerout prog. id"
    001007  aa  141 154 151 144
    001010  aa  040 147 145 162
    001011  aa  157 165 164 040
    001012  aa  160 162 157 147
    001013  aa  056 040 151 144

                                   147  ec output_limit_exceeded,GCOS0063,
                                   148     (0>-output limit exceeded)
                        000107          	segdef  output_limit_exceeded
    000107  a0   077777 001016
    001014  aa  107 103 117 123         	aci  "GCOS0063",8
    001015  aa  060 060 066 063
    001016  aa  030 060 076 055         	acc  "0>-output limit exceeded"
    001017  aa  157 165 164 160
    001020  aa  165 164 040 154
    001021  aa  151 155 151 164
    001022  aa  040 145 170 143
    001023  aa  145 145 144 145
    001024  aa  144 000 000 000

                                   149  ec syot_rec_size_err,GCOS0064,
                                   150     (sysout record size error)
                        000110          	segdef  syot_rec_size_err
    000110  a0   077777 001027
    001025  aa  107 103 117 123         	aci  "GCOS0064",8
    001026  aa  060 060 066 064
    001027  aa  030 163 171 163         	acc  "sysout record size error"
    001030  aa  157 165 164 040
    001031  aa  162 145 143 157
    001032  aa  162 144 040 163
    001033  aa  151 172 145 040
    001034  aa  145 162 162 157
    001035  aa  162 000 000 000

                                   151  ec syot_seek_err,GCOS0065,
                                   152     (sysout seek error)
                        000111          	segdef  syot_seek_err
    000111  a0   077777 001040
    001036  aa  107 103 117 123         	aci  "GCOS0065",8
    001037  aa  060 060 066 065
    001040  aa  021 163 171 163         	acc  "sysout seek error"
    001041  aa  157 165 164 040
    001042  aa  163 145 145 153
    001043  aa  040 145 162 162
    001044  aa  157 162 000 000

                                   153  ec syot_alloc_err,GCOS0066,
                                   154     (sysout allocation error)
                        000112          	segdef  syot_alloc_err
    000112  a0   077777 001047
    001045  aa  107 103 117 123         	aci  "GCOS0066",8
    001046  aa  060 060 066 066
    001047  aa  027 163 171 163         	acc  "sysout allocation error"
    001050  aa  157 165 164 040
    001051  aa  141 154 154 157
    001052  aa  143 141 164 151
    001053  aa  157 156 040 145
    001054  aa  162 162 157 162

                                   155  ec bad_syot_status_ptr,GCOS0067,
                                   156     (01-bad syot status ptr.)
                        000113          	segdef  bad_syot_status_ptr
    000113  a0   077777 001057
    001055  aa  107 103 117 123         	aci  "GCOS0067",8
    001056  aa  060 060 066 067
    001057  aa  027 060 061 055         	acc  "01-bad syot status ptr."
    001060  aa  142 141 144 040
    001061  aa  163 171 157 164
    001062  aa  040 163 164 141
    001063  aa  164 165 163 040
    001064  aa  160 164 162 056

                                   157  ec bad_syot_buffer_ptr,GCOS0068,
                                   158     (01-bad syot buffer ptr.)
                        000114          	segdef  bad_syot_buffer_ptr
    000114  a0   077777 001067
    001065  aa  107 103 117 123         	aci  "GCOS0068",8
    001066  aa  060 060 066 070
    001067  aa  027 060 061 055         	acc  "01-bad syot buffer ptr."
    001070  aa  142 141 144 040
    001071  aa  163 171 157 164
    001072  aa  040 142 165 146
    001073  aa  146 145 162 040
    001074  aa  160 164 162 056

                                   159  ec syot_buffer_too_high,GCOS0069,
                                   160     (01-syot buffer > limits)
                        000115          	segdef  syot_buffer_too_high
    000115  a0   077777 001077
    001075  aa  107 103 117 123         	aci  "GCOS0069",8
    001076  aa  060 060 066 071
    001077  aa  027 060 061 055         	acc  "01-syot buffer > limits"
    001100  aa  163 171 157 164
    001101  aa  040 142 165 146
    001102  aa  146 145 162 040
    001103  aa  076 040 154 151
    001104  aa  155 151 164 163

                                   161  ec irrecoverable_io_err,GCOS0070,
                                   162     (ep-irrecoverable i/o err)
                        000116          	segdef  irrecoverable_io_err
    000116  a0   077777 001107
    001105  aa  107 103 117 123         	aci  "GCOS0070",8
    001106  aa  060 060 067 060
    001107  aa  030 145 160 055         	acc  "ep-irrecoverable i/o err"
    001110  aa  151 162 162 145
    001111  aa  143 157 166 145
    001112  aa  162 141 142 154
    001113  aa  145 040 151 057
    001114  aa  157 040 145 162
    001115  aa  162 000 000 000

                                   163  ec bad_seek_dcw,GCOS0071,
                                   164     (k4-invalid seek dcw i/o)
                        000117          	segdef  bad_seek_dcw
    000117  a0   077777 001120
    001116  aa  107 103 117 123         	aci  "GCOS0071",8
    001117  aa  060 060 067 061
    001120  aa  027 153 064 055         	acc  "k4-invalid seek dcw i/o"
    001121  aa  151 156 166 141
    001122  aa  154 151 144 040
    001123  aa  163 145 145 153
    001124  aa  040 144 143 167
    001125  aa  040 151 057 157

                                   165  ec bad_syot_media_code,GCOS0072,
                                   166     (bad gesyot media code)
                        000120          	segdef  bad_syot_media_code
    000120  a0   077777 001130
    001126  aa  107 103 117 123         	aci  "GCOS0072",8
    001127  aa  060 060 067 062
    001130  aa  025 142 141 144         	acc  "bad gesyot media code"
    001131  aa  040 147 145 163
    001132  aa  171 157 164 040
    001133  aa  155 145 144 151
    001134  aa  141 040 143 157
    001135  aa  144 145 000 000

                                   167  ec cannot_rollback,GCOS0073,
                                   168     (n3-rollback not possible)
                        000121          	segdef  cannot_rollback
    000121  a0   077777 001140
    001136  aa  107 103 117 123         	aci  "GCOS0073",8
    001137  aa  060 060 067 063
    001140  aa  030 156 063 055         	acc  "n3-rollback not possible"
    001141  aa  162 157 154 154
    001142  aa  142 141 143 153
    001143  aa  040 156 157 164
    001144  aa  040 160 157 163
    001145  aa  163 151 142 154
    001146  aa  145 000 000 000

                                   169  ec tss_requested_term,GCOS0074,
                                   170     (tss requested term)
                        000122          	segdef  tss_requested_term
    000122  a0   077777 001151
    001147  aa  107 103 117 123         	aci  "GCOS0074",8
    001150  aa  060 060 067 064
    001151  aa  022 164 163 163         	acc  "tss requested term"
    001152  aa  040 162 145 161
    001153  aa  165 145 163 164
    001154  aa  145 144 040 164
    001155  aa  145 162 155 000

                                   171  ec duplicate_file_more,GCOS0075,
                                   172     (gemore duplicate file)
                        000123          	segdef  duplicate_file_more
    000123  a0   077777 001160
    001156  aa  107 103 117 123         	aci  "GCOS0075",8
    001157  aa  060 060 067 065
    001160  aa  025 147 145 155         	acc  "gemore duplicate file"
    001161  aa  157 162 145 040
    001162  aa  144 165 160 154
    001163  aa  151 143 141 164
    001164  aa  145 040 146 151
    001165  aa  154 145 000 000

                                   173  ec bad_io_sct_ptr,GCOS0076,
                                   174     (invalid i/o sct pointer)
                        000124          	segdef  bad_io_sct_ptr
    000124  a0   077777 001170
    001166  aa  107 103 117 123         	aci  "GCOS0076",8
    001167  aa  060 060 067 066
    001170  aa  027 151 156 166         	acc  "invalid i/o sct pointer"
    001171  aa  141 154 151 144
    001172  aa  040 151 057 157
    001173  aa  040 163 143 164
    001174  aa  040 160 157 151
    001175  aa  156 164 145 162

                                   175  ec impermissible_perm_write,GCOS0077,
                                   176     (impermissible perm write)
                        000125          	segdef  impermissible_perm_write
    000125  a0   077777 001200
    001176  aa  107 103 117 123         	aci  "GCOS0077",8
    001177  aa  060 060 067 067
    001200  aa  030 151 155 160         	acc  "impermissible perm write"
    001201  aa  145 162 155 151
    001202  aa  163 163 151 142
    001203  aa  154 145 040 160
    001204  aa  145 162 155 040
    001205  aa  167 162 151 164
    001206  aa  145 000 000 000

                                   177  ec impermissible_perm_read,GCOS0078,
                                   178     (impermissible perm read)
                        000126          	segdef  impermissible_perm_read
    000126  a0   077777 001211
    001207  aa  107 103 117 123         	aci  "GCOS0078",8
    001210  aa  060 060 067 070
    001211  aa  027 151 155 160         	acc  "impermissible perm read"
    001212  aa  145 162 155 151
    001213  aa  163 163 151 142
    001214  aa  154 145 040 160
    001215  aa  145 162 155 040
    001216  aa  162 145 141 144

                                   179  ec ids_rec_too_long,GCOS0079,
                                   180     (d2-ids record too long)
                        000127          	segdef  ids_rec_too_long
    000127  a0   077777 001221
    001217  aa  107 103 117 123         	aci  "GCOS0079",8
    001220  aa  060 060 067 071
    001221  aa  026 144 062 055         	acc  "d2-ids record too long"
    001222  aa  151 144 163 040
    001223  aa  162 145 143 157
    001224  aa  162 144 040 164
    001225  aa  157 157 040 154
    001226  aa  157 156 147 000

                                   181  ec out_of_syot_stor,GCOS0080,
                                   182     (sysout storage exhausted)
                        000130          	segdef  out_of_syot_stor
    000130  a0   077777 001231
    001227  aa  107 103 117 123         	aci  "GCOS0080",8
    001230  aa  060 060 070 060
    001231  aa  030 163 171 163         	acc  "sysout storage exhausted"
    001232  aa  157 165 164 040
    001233  aa  163 164 157 162
    001234  aa  141 147 145 040
    001235  aa  145 170 150 141
    001236  aa  165 163 164 145
    001237  aa  144 000 000 000

                                   183  ec bad_mme_param,GCOS0081,
                                   184     (invalid mme parameter)
                        000131          	segdef  bad_mme_param
    000131  a0   077777 001242
    001240  aa  107 103 117 123         	aci  "GCOS0081",8
    001241  aa  060 060 070 061
    001242  aa  025 151 156 166         	acc  "invalid mme parameter"
    001243  aa  141 154 151 144
    001244  aa  040 155 155 145
    001245  aa  040 160 141 162
    001246  aa  141 155 145 164
    001247  aa  145 162 000 000

                                   185  ec lost_extra_ssa_contents,GCOS0082,
                                   186     (lost extra ssa contents)
                        000132          	segdef  lost_extra_ssa_contents
    000132  a0   077777 001252
    001250  aa  107 103 117 123         	aci  "GCOS0082",8
    001251  aa  060 060 070 062
    001252  aa  027 154 157 163         	acc  "lost extra ssa contents"
    001253  aa  164 040 145 170
    001254  aa  164 162 141 040
    001255  aa  163 163 141 040
    001256  aa  143 157 156 164
    001257  aa  145 156 164 163

                                   187  ec aloc_deleted_job,GCOS0083,
                                   188     (j3-aloc deleted job)
                        000133          	segdef  aloc_deleted_job
    000133  a0   077777 001262
    001260  aa  107 103 117 123         	aci  "GCOS0083",8
    001261  aa  060 060 070 063
    001262  aa  023 152 063 055         	acc  "j3-aloc deleted job"
    001263  aa  141 154 157 143
    001264  aa  040 144 145 154
    001265  aa  145 164 145 144
    001266  aa  040 152 157 142

                                   189  ec bad_news_buf_addr,GCOS0084,
                                   190     (bad buffer addr - genews)
                        000134          	segdef  bad_news_buf_addr
    000134  a0   077777 001271
    001267  aa  107 103 117 123         	aci  "GCOS0084",8
    001270  aa  060 060 070 064
    001271  aa  030 142 141 144         	acc  "bad buffer addr - genews"
    001272  aa  040 142 165 146
    001273  aa  146 145 162 040
    001274  aa  141 144 144 162
    001275  aa  040 055 040 147
    001276  aa  145 156 145 167
    001277  aa  163 000 000 000

                                   191  ec guessing_prmfl_more,GCOS0085,
                                   192     (guessing on prmfl gemore)
                        000135          	segdef  guessing_prmfl_more
    000135  a0   077777 001302
    001300  aa  107 103 117 123         	aci  "GCOS0085",8
    001301  aa  060 060 070 065
    001302  aa  030 147 165 145         	acc  "guessing on prmfl gemore"
    001303  aa  163 163 151 156
    001304  aa  147 040 157 156
    001305  aa  040 160 162 155
    001306  aa  146 154 040 147
    001307  aa  145 155 157 162
    001310  aa  145 000 000 000

                                   193  ec no_userid_prmfl_more,GCOS0086,
                                   194     (no userid - prmfl gemore)
                        000136          	segdef  no_userid_prmfl_more
    000136  a0   077777 001313
    001311  aa  107 103 117 123         	aci  "GCOS0086",8
    001312  aa  060 060 070 066
    001313  aa  030 156 157 040         	acc  "no userid - prmfl gemore"
    001314  aa  165 163 145 162
    001315  aa  151 144 040 055
    001316  aa  040 160 162 155
    001317  aa  146 154 040 147
    001320  aa  145 155 157 162
    001321  aa  145 000 000 000

                                   195  ec oper_stop_rqst,GCOS0087,
                                   196     (x2-operator stop request)
                        000137          	segdef  oper_stop_rqst
    000137  a0   077777 001324
    001322  aa  107 103 117 123         	aci  "GCOS0087",8
    001323  aa  060 060 070 067
    001324  aa  030 170 062 055         	acc  "x2-operator stop request"
    001325  aa  157 160 145 162
    001326  aa  141 164 157 162
    001327  aa  040 163 164 157
    001330  aa  160 040 162 145
    001331  aa  161 165 145 163
    001332  aa  164 000 000 000

                                   197  ec cannot_move_job,GCOS0088,
                                   198     (cannot move job in core)
                        000140          	segdef  cannot_move_job
    000140  a0   077777 001335
    001333  aa  107 103 117 123         	aci  "GCOS0088",8
    001334  aa  060 060 070 070
    001335  aa  027 143 141 156         	acc  "cannot move job in core"
    001336  aa  156 157 164 040
    001337  aa  155 157 166 145
    001340  aa  040 152 157 142
    001341  aa  040 151 156 040
    001342  aa  143 157 162 145

                                   199  ec enexpected_pcw,GCOS0089,
                                   200     (iom chan unexpected pcw)
                        000141          	segdef  enexpected_pcw
    000141  a0   077777 001345
    001343  aa  107 103 117 123         	aci  "GCOS0089",8
    001344  aa  060 060 070 071
    001345  aa  027 151 157 155         	acc  "iom chan unexpected pcw"
    001346  aa  040 143 150 141
    001347  aa  156 040 165 156
    001350  aa  145 170 160 145
    001351  aa  143 164 145 144
    001352  aa  040 160 143 167

                                   201  ec improper_instr,GCOS0090,
                                   202     (iom chan improper instr.)
                        000142          	segdef  improper_instr
    000142  a0   077777 001355
    001353  aa  107 103 117 123         	aci  "GCOS0090",8
    001354  aa  060 060 071 060
    001355  aa  030 151 157 155         	acc  "iom chan improper instr."
    001356  aa  040 143 150 141
    001357  aa  156 040 151 155
    001360  aa  160 162 157 160
    001361  aa  145 162 040 151
    001362  aa  156 163 164 162
    001363  aa  056 000 000 000

                                   203  ec iom_chan_bad_dcw,GCOS0091,
                                   204     (iom chan improper dcw)
                        000143          	segdef  iom_chan_bad_dcw
    000143  a0   077777 001366
    001364  aa  107 103 117 123         	aci  "GCOS0091",8
    001365  aa  060 060 071 061
    001366  aa  025 151 157 155         	acc  "iom chan improper dcw"
    001367  aa  040 143 150 141
    001370  aa  156 040 151 155
    001371  aa  160 162 157 160
    001372  aa  145 162 040 144
    001373  aa  143 167 000 000

                                   205  ec iom_cent_lpw_tro,GCOS0092,
                                   206     (iom cent lpw tally rnout)
                        000144          	segdef  iom_cent_lpw_tro
    000144  a0   077777 001376
    001374  aa  107 103 117 123         	aci  "GCOS0092",8
    001375  aa  060 060 071 062
    001376  aa  030 151 157 155         	acc  "iom cent lpw tally rnout"
    001377  aa  040 143 145 156
    001400  aa  164 040 154 160
    001401  aa  167 040 164 141
    001402  aa  154 154 171 040
    001403  aa  162 156 157 165
    001404  aa  164 000 000 000

                                   207  ec iom_cent_two_tdcws,GCOS0093,
                                   208     (iom cent two tdcws)
                        000145          	segdef  iom_cent_two_tdcws
    000145  a0   077777 001407
    001405  aa  107 103 117 123         	aci  "GCOS0093",8
    001406  aa  060 060 071 063
    001407  aa  022 151 157 155         	acc  "iom cent two tdcws"
    001410  aa  040 143 145 156
    001411  aa  164 040 164 167
    001412  aa  157 040 164 144
    001413  aa  143 167 163 000

                                   209  ec iom_cent_bndry_err,GCOS0094,
                                   210     (iom cent boundary error)
                        000146          	segdef  iom_cent_bndry_err
    000146  a0   077777 001416
    001414  aa  107 103 117 123         	aci  "GCOS0094",8
    001415  aa  060 060 071 064
    001416  aa  027 151 157 155         	acc  "iom cent boundary error"
    001417  aa  040 143 145 156
    001420  aa  164 040 142 157
    001421  aa  165 156 144 141
    001422  aa  162 171 040 145
    001423  aa  162 162 157 162

                                   211  ec iom_cent_4bar_viol,GCOS0095,
                                   212     (iom cent 4-bar violation)
                        000147          	segdef  iom_cent_4bar_viol
    000147  a0   077777 001426
    001424  aa  107 103 117 123         	aci  "GCOS0095",8
    001425  aa  060 060 071 065
    001426  aa  030 151 157 155         	acc  "iom cent 4-bar violation"
    001427  aa  040 143 145 156
    001430  aa  164 040 064 055
    001431  aa  142 141 162 040
    001432  aa  166 151 157 154
    001433  aa  141 164 151 157
    001434  aa  156 000 000 000

                                   213  ec iom_cent_idcw_res_mode,GCOS0096,
                                   214     (iom cent idcw res mode)
                        000150          	segdef  iom_cent_idcw_res_mode
    000150  a0   077777 001437
    001435  aa  107 103 117 123         	aci  "GCOS0096",8
    001436  aa  060 060 071 066
    001437  aa  026 151 157 155         	acc  "iom cent idcw res mode"
    001440  aa  040 143 145 156
    001441  aa  164 040 151 144
    001442  aa  143 167 040 162
    001443  aa  145 163 040 155
    001444  aa  157 144 145 000

                                   215  ec iom_cent_char_dis,GCOS0097,
                                   216     (iom cent char pos/sz dis)
                        000151          	segdef  iom_cent_char_dis
    000151  a0   077777 001447
    001445  aa  107 103 117 123         	aci  "GCOS0097",8
    001446  aa  060 060 071 067
    001447  aa  030 151 157 155         	acc  "iom cent char pos/sz dis"
    001450  aa  040 143 145 156
    001451  aa  164 040 143 150
    001452  aa  141 162 040 160
    001453  aa  157 163 057 163
    001454  aa  172 040 144 151
    001455  aa  163 000 000 000

                                   217  ec bad_backdoor_fc,GCOS0098,
                                   218     (backdoor f.c. unknown)
                        000152          	segdef  bad_backdoor_fc
    000152  a0   077777 001460
    001456  aa  107 103 117 123         	aci  "GCOS0098",8
    001457  aa  060 060 071 070
    001460  aa  025 142 141 143         	acc  "backdoor f.c. unknown"
    001461  aa  153 144 157 157
    001462  aa  162 040 146 056
    001463  aa  143 056 040 165
    001464  aa  156 153 156 157
    001465  aa  167 156 000 000

                                   219  ec bad_backdoor_file,GCOS0099,
                                   220     (invalid file to backdoor)
                        000153          	segdef  bad_backdoor_file
    000153  a0   077777 001470
    001466  aa  107 103 117 123         	aci  "GCOS0099",8
    001467  aa  060 060 071 071
    001470  aa  030 151 156 166         	acc  "invalid file to backdoor"
    001471  aa  141 154 151 144
    001472  aa  040 146 151 154
    001473  aa  145 040 164 157
    001474  aa  040 142 141 143
    001475  aa  153 144 157 157
    001476  aa  162 000 000 000

                                   221  ec ids_addr_oob,GCOS0100,
                                   222     (ids address out of bound)
                        000154          	segdef  ids_addr_oob
    000154  a0   077777 001501
    001477  aa  107 103 117 123         	aci  "GCOS0100",8
    001500  aa  060 061 060 060
    001501  aa  030 151 144 163         	acc  "ids address out of bound"
    001502  aa  040 141 144 144
    001503  aa  162 145 163 163
    001504  aa  040 157 165 164
    001505  aa  040 157 146 040
    001506  aa  142 157 165 156
    001507  aa  144 000 000 000

                                   223  ec secur_scc_invalid,GCOS0101,
                                   224     (secur-scc invalid)
                        000155          	segdef  secur_scc_invalid
    000155  a0   077777 001512
    001510  aa  107 103 117 123         	aci  "GCOS0101",8
    001511  aa  060 061 060 061
    001512  aa  021 163 145 143         	acc  "secur-scc invalid"
    001513  aa  165 162 055 163
    001514  aa  143 143 040 151
    001515  aa  156 166 141 154
    001516  aa  151 144 000 000

                                   225  ec file_alloc_err,GCOS0102,
                                   226     (file allocation error)
                        000156          	segdef  file_alloc_err
    000156  a0   077777 001521
    001517  aa  107 103 117 123         	aci  "GCOS0102",8
    001520  aa  060 061 060 062
    001521  aa  025 146 151 154         	acc  "file allocation error"
    001522  aa  145 040 141 154
    001523  aa  154 157 143 141
    001524  aa  164 151 157 156
    001525  aa  040 145 162 162
    001526  aa  157 162 000 000

                                   227  ec scc_invld_for_user,GCOS0103,
                                   228     (secur-scc inval for user)
                        000157          	segdef  scc_invld_for_user
    000157  a0   077777 001531
    001527  aa  107 103 117 123         	aci  "GCOS0103",8
    001530  aa  060 061 060 063
    001531  aa  030 163 145 143         	acc  "secur-scc inval for user"
    001532  aa  165 162 055 163
    001533  aa  143 143 040 151
    001534  aa  156 166 141 154
    001535  aa  040 146 157 162
    001536  aa  040 165 163 145
    001537  aa  162 000 000 000

                                   229  ec scc_invld_for_line,GCOS0104,
                                   230     (secur-scc inval for line)
                        000160          	segdef  scc_invld_for_line
    000160  a0   077777 001542
    001540  aa  107 103 117 123         	aci  "GCOS0104",8
    001541  aa  060 061 060 064
    001542  aa  030 163 145 143         	acc  "secur-scc inval for line"
    001543  aa  165 162 055 163
    001544  aa  143 143 040 151
    001545  aa  156 166 141 154
    001546  aa  040 146 157 162
    001547  aa  040 154 151 156
    001550  aa  145 000 000 000

                                   231  ec duplicate_report,GCOS0105,
                                   232     (secur-duplicate report)
                        000161          	segdef  duplicate_report
    000161  a0   077777 001553
    001551  aa  107 103 117 123         	aci  "GCOS0105",8
    001552  aa  060 061 060 065
    001553  aa  026 163 145 143         	acc  "secur-duplicate report"
    001554  aa  165 162 055 144
    001555  aa  165 160 154 151
    001556  aa  143 141 164 145
    001557  aa  040 162 145 160
    001560  aa  157 162 164 000

                                   233  ec invalid_dcw_string,GCOS0106,
                                   234     (secur-invalid dcw string)
                        000162          	segdef  invalid_dcw_string
    000162  a0   077777 001563
    001561  aa  107 103 117 123         	aci  "GCOS0106",8
    001562  aa  060 061 060 066
    001563  aa  030 163 145 143         	acc  "secur-invalid dcw string"
    001564  aa  165 162 055 151
    001565  aa  156 166 141 154
    001566  aa  151 144 040 144
    001567  aa  143 167 040 163
    001570  aa  164 162 151 156
    001571  aa  147 000 000 000

                                   235  ec invalid_fnc_code,GCOS0107,
                                   236     (secur-invalid funct code)
                        000163          	segdef  invalid_fnc_code
    000163  a0   077777 001574
    001572  aa  107 103 117 123         	aci  "GCOS0107",8
    001573  aa  060 061 060 067
    001574  aa  030 163 145 143         	acc  "secur-invalid funct code"
    001575  aa  165 162 055 151
    001576  aa  156 166 141 154
    001577  aa  151 144 040 146
    001600  aa  165 156 143 164
    001601  aa  040 143 157 144
    001602  aa  145 000 000 000

                                   237  ec no_links_for_swap_file,GCOS0108,
                                   238     (no links for swap file)
                        000164          	segdef  no_links_for_swap_file
    000164  a0   077777 001605
    001603  aa  107 103 117 123         	aci  "GCOS0108",8
    001604  aa  060 061 060 070
    001605  aa  026 156 157 040         	acc  "no links for swap file"
    001606  aa  154 151 156 153
    001607  aa  163 040 146 157
    001610  aa  162 040 163 167
    001611  aa  141 160 040 146
    001612  aa  151 154 145 000

                                   239  ec data_access_sys_abrt,GCOS0109,
                                   240     (data access system abort)
                        000165          	segdef  data_access_sys_abrt
    000165  a0   077777 001615
    001613  aa  107 103 117 123         	aci  "GCOS0109",8
    001614  aa  060 061 060 071
    001615  aa  030 144 141 164         	acc  "data access system abort"
    001616  aa  141 040 141 143
    001617  aa  143 145 163 163
    001620  aa  040 163 171 163
    001621  aa  164 145 155 040
    001622  aa  141 142 157 162
    001623  aa  164 000 000 000

                                   241  ec fms_protect_fail,GCOS0110,
                                   242     (fms protection failure)
                        000166          	segdef  fms_protect_fail
    000166  a0   077777 001626
    001624  aa  107 103 117 123         	aci  "GCOS0110",8
    001625  aa  060 061 061 060
    001626  aa  026 146 155 163         	acc  "fms protection failure"
    001627  aa  040 160 162 157
    001630  aa  164 145 143 164
    001631  aa  151 157 156 040
    001632  aa  146 141 151 154
    001633  aa  165 162 145 000

                                   243  ec bss_mem_bndry_err,GCOS0111,
                                   244     (bss main mem boundry err)
                        000167          	segdef  bss_mem_bndry_err
    000167  a0   077777 001636
    001634  aa  107 103 117 123         	aci  "GCOS0111",8
    001635  aa  060 061 061 061
    001636  aa  030 142 163 163         	acc  "bss main mem boundry err"
    001637  aa  040 155 141 151
    001640  aa  156 040 155 145
    001641  aa  155 040 142 157
    001642  aa  165 156 144 162
    001643  aa  171 040 145 162
    001644  aa  162 000 000 000

                                   245  ec bss_no_sys_respnse,GCOS0112,
                                   246     (bss no system response)
                        000170          	segdef  bss_no_sys_respnse
    000170  a0   077777 001647
    001645  aa  107 103 117 123         	aci  "GCOS0112",8
    001646  aa  060 061 061 062
    001647  aa  026 142 163 163         	acc  "bss no system response"
    001650  aa  040 156 157 040
    001651  aa  163 171 163 164
    001652  aa  145 155 040 162
    001653  aa  145 163 160 157
    001654  aa  156 163 145 000

                                   247  ec bss_connect_halt,GCOS0113,
                                   248     (bss connect halt)
                        000171          	segdef  bss_connect_halt
    000171  a0   077777 001657
    001655  aa  107 103 117 123         	aci  "GCOS0113",8
    001656  aa  060 061 061 063
    001657  aa  020 142 163 163         	acc  "bss connect halt"
    001660  aa  040 143 157 156
    001661  aa  156 145 143 164
    001662  aa  040 150 141 154
    001663  aa  164 000 000 000

                                   249  ec isp_sys_term,GCOS0114,
                                   250     (isp system termination)
                        000172          	segdef  isp_sys_term
    000172  a0   077777 001666
    001664  aa  107 103 117 123         	aci  "GCOS0114",8
    001665  aa  060 061 061 064
    001666  aa  026 151 163 160         	acc  "isp system termination"
    001667  aa  040 163 171 163
    001670  aa  164 145 155 040
    001671  aa  164 145 162 155
    001672  aa  151 156 141 164
    001673  aa  151 157 156 000

                                   251  ec bad_eis_data,GCOS0115,
                                   252     (illegal eis data)
                        000173          	segdef  bad_eis_data
    000173  a0   077777 001676
    001674  aa  107 103 117 123         	aci  "GCOS0115",8
    001675  aa  060 061 061 065
    001676  aa  020 151 154 154         	acc  "illegal eis data"
    001677  aa  145 147 141 154
    001700  aa  040 145 151 163
    001701  aa  040 144 141 164
    001702  aa  141 000 000 000

                                   253  ec io_channel_deactivated,GCOS0116,
                                   254     (i/o channel deactivated)
                        000174          	segdef  io_channel_deactivated
    000174  a0   077777 001705
    001703  aa  107 103 117 123         	aci  "GCOS0116",8
    001704  aa  060 061 061 066
    001705  aa  027 151 057 157         	acc  "i/o channel deactivated"
    001706  aa  040 143 150 141
    001707  aa  156 156 145 154
    001710  aa  040 144 145 141
    001711  aa  143 164 151 166
    001712  aa  141 164 145 144

                                   255  ec user_abort_request,GCOS0117,
                                   256     (user abort request)
                        000175          	segdef  user_abort_request
    000175  a0   077777 001715
    001713  aa  107 103 117 123         	aci  "GCOS0117",8
    001714  aa  060 061 061 067
    001715  aa  022 165 163 145         	acc  "user abort request"
    001716  aa  162 040 141 142
    001717  aa  157 162 164 040
    001720  aa  162 145 161 165
    001721  aa  145 163 164 000

                                   257  ec cache_parity_flt,GCOS0118,
                                   258     (f5-cache parity fault)
                        000176          	segdef  cache_parity_flt
    000176  a0   077777 001724
    001722  aa  107 103 117 123         	aci  "GCOS0118",8
    001723  aa  060 061 061 070
    001724  aa  025 146 065 055         	acc  "f5-cache parity fault"
    001725  aa  143 141 143 150
    001726  aa  145 040 160 141
    001727  aa  162 151 164 171
    001730  aa  040 146 141 165
    001731  aa  154 164 000 000

                                   259  ec bad_rels_rqst,GCOS0119,
                                   260     (invalid mme gerels reqst)
                        000177          	segdef  bad_rels_rqst
    000177  a0   077777 001734
    001732  aa  107 103 117 123         	aci  "GCOS0119",8
    001733  aa  060 061 061 071
    001734  aa  030 151 156 166         	acc  "invalid mme gerels reqst"
    001735  aa  141 154 151 144
    001736  aa  040 155 155 145
    001737  aa  040 147 145 162
    001740  aa  145 154 163 040
    001741  aa  162 145 161 163
    001742  aa  164 000 000 000

                                   261  ec unimp_mme,unimpmme,
                                   262     (The specified MME is not supported by the Multics GCOS Environment.)
                        000200          	segdef  unimp_mme
    000200  a0   077777 001745
    001743  aa  165 156 151 155         	aci  "unimpmme",8
    001744  aa  160 155 155 145
    001745  aa  103 124 150 145         	acc  "The specified MME is not supported by the Multics GCOS Environment."
    001746  aa  040 163 160 145
    001747  aa  143 151 146 151
    001750  aa  145 144 040 115
    001751  aa  115 105 040 151
    001752  aa  163 040 156 157
    001753  aa  164 040 163 165
    001754  aa  160 160 157 162
    001755  aa  164 145 144 040
    001756  aa  142 171 040 164
    001757  aa  150 145 040 115
    001760  aa  165 154 164 151
    001761  aa  143 163 040 107
    001762  aa  103 117 123 040
    001763  aa  105 156 166 151
    001764  aa  162 157 156 155
    001765  aa  145 156 164 056

                                   263  ec fatal_error,fatalerr,
                                   264     (A fatal error has occured.  The current job is being terminated.)
                        000201          	segdef  fatal_error
    000201  a0   077777 001770
    001766  aa  146 141 164 141         	aci  "fatalerr",8
    001767  aa  154 145 162 162
    001770  aa  100 101 040 146         	acc  "A fatal error has occured.  The current job is being terminated."
    001771  aa  141 164 141 154
    001772  aa  040 145 162 162
    001773  aa  157 162 040 150
    001774  aa  141 163 040 157
    001775  aa  143 143 165 162
    001776  aa  145 144 056 040
    001777  aa  040 124 150 145
    002000  aa  040 143 165 162
    002001  aa  162 145 156 164
    002002  aa  040 152 157 142
    002003  aa  040 151 163 040
    002004  aa  142 145 151 156
    002005  aa  147 040 164 145
    002006  aa  162 155 151 156
    002007  aa  141 164 145 144
    002010  aa  056 000 000 000

                                   265  ec cc_bad_fc,badfc,
                                   266     (Illegal file code value specified.)
                        000202          	segdef  cc_bad_fc
    000202  a0   077777 002013
    002011  aa  142 141 144 146         	aci  "badfc",8
    002012  aa  143 040 040 040
    002013  aa  042 111 154 154         	acc  "Illegal file code value specified."
    002014  aa  145 147 141 154
    002015  aa  040 146 151 154
    002016  aa  145 040 143 157
    002017  aa  144 145 040 166
    002020  aa  141 154 165 145
    002021  aa  040 163 160 145
    002022  aa  143 151 146 151
    002023  aa  145 144 056 000

                                   267  ec cc_bad_field,badfield,
                                   268     (Bad control card field.)
                        000203          	segdef  cc_bad_field
    000203  a0   077777 002026
    002024  aa  142 141 144 146         	aci  "badfield",8
    002025  aa  151 145 154 144
    002026  aa  027 102 141 144         	acc  "Bad control card field."
    002027  aa  040 143 157 156
    002030  aa  164 162 157 154
    002031  aa  040 143 141 162
    002032  aa  144 040 146 151
    002033  aa  145 154 144 056

                                   269  ec cc_field_too_long,toolong,
                                   270     (Control card field too long.)
                        000204          	segdef  cc_field_too_long
    000204  a0   077777 002036
    002034  aa  164 157 157 154         	aci  "toolong",8
    002035  aa  157 156 147 040
    002036  aa  034 103 157 156         	acc  "Control card field too long."
    002037  aa  164 162 157 154
    002040  aa  040 143 141 162
    002041  aa  144 040 146 151
    002042  aa  145 154 144 040
    002043  aa  164 157 157 040
    002044  aa  154 157 156 147
    002045  aa  056 000 000 000

                                   271  ec cc_missing_fc,missfc,
                                   272     (No file code value specified.)
                        000205          	segdef  cc_missing_fc
    000205  a0   077777 002050
    002046  aa  155 151 163 163         	aci  "missfc",8
    002047  aa  146 143 040 040
    002050  aa  035 116 157 040         	acc  "No file code value specified."
    002051  aa  146 151 154 145
    002052  aa  040 143 157 144
    002053  aa  145 040 166 141
    002054  aa  154 165 145 040
    002055  aa  163 160 145 143
    002056  aa  151 146 151 145
    002057  aa  144 056 000 000

                                   273  ec cc_bad_lud,badlud,
                                   274     (Illegal Logical Unit Designator (LUD) specified.)
                        000206          	segdef  cc_bad_lud
    000206  a0   077777 002062
    002060  aa  142 141 144 154         	aci  "badlud",8
    002061  aa  165 144 040 040
    002062  aa  060 111 154 154         	acc  "Illegal Logical Unit Designator (LUD) specified."
    002063  aa  145 147 141 154
    002064  aa  040 114 157 147
    002065  aa  151 143 141 154
    002066  aa  040 125 156 151
    002067  aa  164 040 104 145
    002070  aa  163 151 147 156
    002071  aa  141 164 157 162
    002072  aa  040 050 114 125
    002073  aa  104 051 040 163
    002074  aa  160 145 143 151
    002075  aa  146 151 145 144
    002076  aa  056 000 000 000

                                   275  ec cc_unimp,unimpcc,
                                   276     (The specified $ control card is not supported by the Multics GCOS Environment.)
                        000207          	segdef  cc_unimp
    000207  a0   077777 002101
    002077  aa  165 156 151 155         	aci  "unimpcc",8
    002100  aa  160 143 143 040
    002101  aa  116 124 150 145         	acc  "The specified $ control card is not supported by the Multics GCOS Environment."
    002102  aa  040 163 160 145
    002103  aa  143 151 146 151
    002104  aa  145 144 040 044
    002105  aa  040 143 157 156
    002106  aa  164 162 157 154
    002107  aa  040 143 141 162
    002110  aa  144 040 151 163
    002111  aa  040 156 157 164
    002112  aa  040 163 165 160
    002113  aa  160 157 162 164
    002114  aa  145 144 040 142
    002115  aa  171 040 164 150
    002116  aa  145 040 115 165
    002117  aa  154 164 151 143
    002120  aa  163 040 107 103
    002121  aa  117 123 040 105
    002122  aa  156 166 151 162
    002123  aa  157 156 155 145
    002124  aa  156 164 056 000

                                   277  ec cc_missing_field,misfield,
                                   278     (A required control card field is either missing or null.)
                        000210          	segdef  cc_missing_field
    000210  a0   077777 002127
    002125  aa  155 151 163 146         	aci  "misfield",8
    002126  aa  151 145 154 144
    002127  aa  070 101 040 162         	acc  "A required control card field is either missing or null."
    002130  aa  145 161 165 151
    002131  aa  162 145 144 040
    002132  aa  143 157 156 164
    002133  aa  162 157 154 040
    002134  aa  143 141 162 144
    002135  aa  040 146 151 145
    002136  aa  154 144 040 151
    002137  aa  163 040 145 151
    002140  aa  164 150 145 162
    002141  aa  040 155 151 163
    002142  aa  163 151 156 147
    002143  aa  040 157 162 040
    002144  aa  156 165 154 154
    002145  aa  056 000 000 000

                                   279  ec cc_bad_card,badcard,
                                   280     (An error has occured in processing the following $ control card:)
                        000211          	segdef  cc_bad_card
    000211  a0   077777 002150
    002146  aa  142 141 144 143         	aci  "badcard",8
    002147  aa  141 162 144 040
    002150  aa  100 101 156 040         	acc  "An error has occured in processing the following $ control card:"
    002151  aa  145 162 162 157
    002152  aa  162 040 150 141
    002153  aa  163 040 157 143
    002154  aa  143 165 162 145
    002155  aa  144 040 151 156
    002156  aa  040 160 162 157
    002157  aa  143 145 163 163
    002160  aa  151 156 147 040
    002161  aa  164 150 145 040
    002162  aa  146 157 154 154
    002163  aa  157 167 151 156
    002164  aa  147 040 044 040
    002165  aa  143 157 156 164
    002166  aa  162 157 154 040
    002167  aa  143 141 162 144
    002170  aa  072 000 000 000

                                   281  ec too_many_activs,tomnyact,
                                   282     (Too many activities have been specified.)
                        000212          	segdef  too_many_activs
    000212  a0   077777 002173
    002171  aa  164 157 155 156         	aci  "tomnyact",8
    002172  aa  171 141 143 164
    002173  aa  050 124 157 157         	acc  "Too many activities have been specified."
    002174  aa  040 155 141 156
    002175  aa  171 040 141 143
    002176  aa  164 151 166 151
    002177  aa  164 151 145 163
    002200  aa  040 150 141 166
    002201  aa  145 040 142 145
    002202  aa  145 156 040 163
    002203  aa  160 145 143 151
    002204  aa  146 151 145 144
    002205  aa  056 000 000 000

                                   283  ec no_restart,nrestart,
                                   284     (Job restart not specified.)
                        000213          	segdef  no_restart
    000213  a0   077777 002210
    002206  aa  156 162 145 163         	aci  "nrestart",8
    002207  aa  164 141 162 164
    002210  aa  032 112 157 142         	acc  "Job restart not specified."
    002211  aa  040 162 145 163
    002212  aa  164 141 162 164
    002213  aa  040 156 157 164
    002214  aa  040 163 160 145
    002215  aa  143 151 146 151
    002216  aa  145 144 056 000

                                   285  ec fms_bad_cfdesc,FMS00005,
                                   286     (incorrect catalog/file description)
                        000214          	segdef  fms_bad_cfdesc
    000214  a0   077777 002221
    002217  aa  106 115 123 060         	aci  "FMS00005",8
    002220  aa  060 060 060 065
    002221  aa  042 151 156 143         	acc  "incorrect catalog/file description"
    002222  aa  157 162 162 145
    002223  aa  143 164 040 143
    002224  aa  141 164 141 154
    002225  aa  157 147 057 146
    002226  aa  151 154 145 040
    002227  aa  144 145 163 143
    002230  aa  162 151 160 164
    002231  aa  151 157 156 000

                                   287  ec fms_perms_denied,FMS00003,
                                   288     (permissions denied)
                        000215          	segdef  fms_perms_denied
    000215  a0   077777 002234
    002232  aa  106 115 123 060         	aci  "FMS00003",8
    002233  aa  060 060 060 063
    002234  aa  022 160 145 162         	acc  "permissions denied"
    002235  aa  155 151 163 163
    002236  aa  151 157 156 163
    002237  aa  040 144 145 156
    002240  aa  151 145 144 000

                                   289  ec non_gcos_fault,badflt,
                                   290     (A fault has occured which is impossible on a GCOS system.)
                        000216          	segdef  non_gcos_fault
    000216  a0   077777 002243
    002241  aa  142 141 144 146         	aci  "badflt",8
    002242  aa  154 164 040 040
    002243  aa  071 101 040 146         	acc  "A fault has occured which is impossible on a GCOS system."
    002244  aa  141 165 154 164
    002245  aa  040 150 141 163
    002246  aa  040 157 143 143
    002247  aa  165 162 145 144
    002250  aa  040 167 150 151
    002251  aa  143 150 040 151
    002252  aa  163 040 151 155
    002253  aa  160 157 163 163
    002254  aa  151 142 154 145
    002255  aa  040 157 156 040
    002256  aa  141 040 107 103
    002257  aa  117 123 040 163
    002260  aa  171 163 164 145
    002261  aa  155 056 000 000

                                   291  ec no_free_fibs,nofibs,
                                   292     (No free fibs - contact support personel.)
                        000217          	segdef  no_free_fibs
    000217  a0   077777 002264
    002262  aa  156 157 146 151         	aci  "nofibs",8
    002263  aa  142 163 040 040
    002264  aa  050 116 157 040         	acc  "No free fibs - contact support personel."
    002265  aa  146 162 145 145
    002266  aa  040 146 151 142
    002267  aa  163 040 055 040
    002270  aa  143 157 156 164
    002271  aa  141 143 164 040
    002272  aa  163 165 160 160
    002273  aa  157 162 164 040
    002274  aa  160 145 162 163
    002275  aa  157 156 145 154
    002276  aa  056 000 000 000

                                   293  ec rel_fibs_exceeded,tmrfib,
                                   294     (Exceeded number of released fibs provided for.)
                        000220          	segdef  rel_fibs_exceeded
    000220  a0   077777 002301
    002277  aa  164 155 162 146         	aci  "tmrfib",8
    002300  aa  151 142 040 040
    002301  aa  056 105 170 143         	acc  "Exceeded number of released fibs provided for."
    002302  aa  145 145 144 145
    002303  aa  144 040 156 165
    002304  aa  155 142 145 162
    002305  aa  040 157 146 040
    002306  aa  162 145 154 145
    002307  aa  141 163 145 144
    002310  aa  040 146 151 142
    002311  aa  163 040 160 162
    002312  aa  157 166 151 144
    002313  aa  145 144 040 146
    002314  aa  157 162 056 000

                                   295  ec record_too_long,toolong,
                                   296     (A record whose length is > 319 words has been encountered.)
                        000221          	segdef  record_too_long
    000221  a0   077777 002317
    002315  aa  164 157 157 154         	aci  "toolong",8
    002316  aa  157 156 147 040
    002317  aa  072 101 040 162         	acc  "A record whose length is > 319 words has been encountered."
    002320  aa  145 143 157 162
    002321  aa  144 040 167 150
    002322  aa  157 163 145 040
    002323  aa  154 145 156 147
    002324  aa  164 150 040 151
    002325  aa  163 040 076 040
    002326  aa  063 061 071 040
    002327  aa  167 157 162 144
    002330  aa  163 040 150 141
    002331  aa  163 040 142 145
    002332  aa  145 156 040 145
    002333  aa  156 143 157 165
    002334  aa  156 164 145 162
    002335  aa  145 144 056 000

                                   297  ec need_multirec,needmr,
                                   298     (Multirecord MME GEINOS needed for linked disk file.)
                        000222          	segdef  need_multirec
    000222  a0   077777 002340
    002336  aa  156 145 145 144         	aci  "needmr",8
    002337  aa  155 162 040 040
    002340  aa  063 115 165 154         	acc  "Multirecord MME GEINOS needed for linked disk file."
    002341  aa  164 151 162 145
    002342  aa  143 157 162 144
    002343  aa  040 115 115 105
    002344  aa  040 107 105 111
    002345  aa  116 117 123 040
    002346  aa  156 145 145 144
    002347  aa  145 144 040 146
    002350  aa  157 162 040 154
    002351  aa  151 156 153 145
    002352  aa  144 040 144 151
    002353  aa  163 153 040 146
    002354  aa  151 154 145 056

                                   299  ec bad_multirec,badmr,
                                   300     (Multirecord MME GEINOS block count not same as words requested.)
                        000223          	segdef  bad_multirec
    000223  a0   077777 002357
    002355  aa  142 141 144 155         	aci  "badmr",8
    002356  aa  162 040 040 040
    002357  aa  077 115 165 154         	acc  "Multirecord MME GEINOS block count not same as words requested."
    002360  aa  164 151 162 145
    002361  aa  143 157 162 144
    002362  aa  040 115 115 105
    002363  aa  040 107 105 111
    002364  aa  116 117 123 040
    002365  aa  142 154 157 143
    002366  aa  153 040 143 157
    002367  aa  165 156 164 040
    002370  aa  156 157 164 040
    002371  aa  163 141 155 145
    002372  aa  040 141 163 040
    002373  aa  167 157 162 144
    002374  aa  163 040 162 145
    002375  aa  161 165 145 163
    002376  aa  164 145 144 056

                                   301  ec request_too_big,bigreq,
                                   302     (Requested data exceeds permitted tape buffer size.)
                        000224          	segdef  request_too_big
    000224  a0   077777 002401
    002377  aa  142 151 147 162         	aci  "bigreq",8
    002400  aa  145 161 040 040
    002401  aa  062 122 145 161         	acc  "Requested data exceeds permitted tape buffer size."
    002402  aa  165 145 163 164
    002403  aa  145 144 040 144
    002404  aa  141 164 141 040
    002405  aa  145 170 143 145
    002406  aa  145 144 163 040
    002407  aa  160 145 162 155
    002410  aa  151 164 164 145
    002411  aa  144 040 164 141
    002412  aa  160 145 040 142
    002413  aa  165 146 146 145
    002414  aa  162 040 163 151
    002415  aa  172 145 056 000

                                   303  	end

NO LITERALS

NAME DEFINITIONS FOR ENTRY POINTS AND SEGDEFS

    002416  5a   000003 000000
    002417  5a   002100 600000
    002420  aa   000000 000000
    002421  55   000011 000002
    002422  5a   000002 400003
    002423  55   000006 000011
    002424  aa  010 147 143 157
    002425  aa  163 137 145 164
    002426  aa  137 000 000 000
    002427  55   000020 000003
    002430  2a   000224 400001
    002431  55   000014 000003
    002432  aa  017 162 145 161         request_too_big
    002433  aa  165 145 163 164
    002434  aa  137 164 157 157
    002435  aa  137 142 151 147
    002436  55   000027 000011
    002437  2a   000223 400001
    002440  55   000023 000003
    002441  aa  014 142 141 144         bad_multirec
    002442  aa  137 155 165 154
    002443  aa  164 151 162 145
    002444  aa  143 000 000 000
    002445  55   000036 000020
    002446  2a   000222 400001
    002447  55   000032 000003
    002450  aa  015 156 145 145         need_multirec
    002451  aa  144 137 155 165
    002452  aa  154 164 151 162
    002453  aa  145 143 000 000
    002454  55   000045 000027
    002455  2a   000221 400001
    002456  55   000041 000003
    002457  aa  017 162 145 143         record_too_long
    002460  aa  157 162 144 137
    002461  aa  164 157 157 137
    002462  aa  154 157 156 147
    002463  55   000055 000036
    002464  2a   000220 400001
    002465  55   000050 000003
    002466  aa  021 162 145 154         rel_fibs_exceeded
    002467  aa  137 146 151 142
    002470  aa  163 137 145 170
    002471  aa  143 145 145 144
    002472  aa  145 144 000 000
    002473  55   000064 000045
    002474  2a   000217 400001
    002475  55   000060 000003
    002476  aa  014 156 157 137         no_free_fibs
    002477  aa  146 162 145 145
    002500  aa  137 146 151 142
    002501  aa  163 000 000 000
    002502  55   000073 000055
    002503  2a   000216 400001
    002504  55   000067 000003
    002505  aa  016 156 157 156         non_gcos_fault
    002506  aa  137 147 143 157
    002507  aa  163 137 146 141
    002510  aa  165 154 164 000
    002511  55   000103 000064
    002512  2a   000215 400001
    002513  55   000076 000003
    002514  aa  020 146 155 163         fms_perms_denied
    002515  aa  137 160 145 162
    002516  aa  155 163 137 144
    002517  aa  145 156 151 145
    002520  aa  144 000 000 000
    002521  55   000112 000073
    002522  2a   000214 400001
    002523  55   000106 000003
    002524  aa  016 146 155 163         fms_bad_cfdesc
    002525  aa  137 142 141 144
    002526  aa  137 143 146 144
    002527  aa  145 163 143 000
    002530  55   000120 000103
    002531  2a   000213 400001
    002532  55   000115 000003
    002533  aa  012 156 157 137         no_restart
    002534  aa  162 145 163 164
    002535  aa  141 162 164 000
    002536  55   000127 000112
    002537  2a   000212 400001
    002540  55   000123 000003
    002541  aa  017 164 157 157         too_many_activs
    002542  aa  137 155 141 156
    002543  aa  171 137 141 143
    002544  aa  164 151 166 163
    002545  55   000135 000120
    002546  2a   000211 400001
    002547  55   000132 000003
    002550  aa  013 143 143 137         cc_bad_card
    002551  aa  142 141 144 137
    002552  aa  143 141 162 144
    002553  55   000145 000127
    002554  2a   000210 400001
    002555  55   000140 000003
    002556  aa  020 143 143 137         cc_missing_field
    002557  aa  155 151 163 163
    002560  aa  151 156 147 137
    002561  aa  146 151 145 154
    002562  aa  144 000 000 000
    002563  55   000153 000135
    002564  2a   000207 400001
    002565  55   000150 000003
    002566  aa  010 143 143 137         cc_unimp
    002567  aa  165 156 151 155
    002570  aa  160 000 000 000
    002571  55   000161 000145
    002572  2a   000206 400001
    002573  55   000156 000003
    002574  aa  012 143 143 137         cc_bad_lud
    002575  aa  142 141 144 137
    002576  aa  154 165 144 000
    002577  55   000170 000153
    002600  2a   000205 400001
    002601  55   000164 000003
    002602  aa  015 143 143 137         cc_missing_fc
    002603  aa  155 151 163 163
    002604  aa  151 156 147 137
    002605  aa  146 143 000 000
    002606  55   000200 000161
    002607  2a   000204 400001
    002610  55   000173 000003
    002611  aa  021 143 143 137         cc_field_too_long
    002612  aa  146 151 145 154
    002613  aa  144 137 164 157
    002614  aa  157 137 154 157
    002615  aa  156 147 000 000
    002616  55   000207 000170
    002617  2a   000203 400001
    002620  55   000203 000003
    002621  aa  014 143 143 137         cc_bad_field
    002622  aa  142 141 144 137
    002623  aa  146 151 145 154
    002624  aa  144 000 000 000
    002625  55   000215 000200
    002626  2a   000202 400001
    002627  55   000212 000003
    002630  aa  011 143 143 137         cc_bad_fc
    002631  aa  142 141 144 137
    002632  aa  146 143 000 000
    002633  55   000223 000207
    002634  2a   000201 400001
    002635  55   000220 000003
    002636  aa  013 146 141 164         fatal_error
    002637  aa  141 154 137 145
    002640  aa  162 162 157 162
    002641  55   000231 000215
    002642  2a   000200 400001
    002643  55   000226 000003
    002644  aa  011 165 156 151         unimp_mme
    002645  aa  155 160 137 155
    002646  aa  155 145 000 000
    002647  55   000240 000223
    002650  2a   000177 400001
    002651  55   000234 000003
    002652  aa  015 142 141 144         bad_rels_rqst
    002653  aa  137 162 145 154
    002654  aa  163 137 162 161
    002655  aa  163 164 000 000
    002656  55   000250 000231
    002657  2a   000176 400001
    002660  55   000243 000003
    002661  aa  020 143 141 143         cache_parity_flt
    002662  aa  150 145 137 160
    002663  aa  141 162 151 164
    002664  aa  171 137 146 154
    002665  aa  164 000 000 000
    002666  55   000260 000240
    002667  2a   000175 400001
    002670  55   000253 000003
    002671  aa  022 165 163 145         user_abort_request
    002672  aa  162 137 141 142
    002673  aa  157 162 164 137
    002674  aa  162 145 161 165
    002675  aa  145 163 164 000
    002676  55   000271 000250
    002677  2a   000174 400001
    002700  55   000263 000003
    002701  aa  026 151 157 137         io_channel_deactivated
    002702  aa  143 150 141 156
    002703  aa  156 145 154 137
    002704  aa  144 145 141 143
    002705  aa  164 151 166 141
    002706  aa  164 145 144 000
    002707  55   000300 000260
    002710  2a   000173 400001
    002711  55   000274 000003
    002712  aa  014 142 141 144         bad_eis_data
    002713  aa  137 145 151 163
    002714  aa  137 144 141 164
    002715  aa  141 000 000 000
    002716  55   000307 000271
    002717  2a   000172 400001
    002720  55   000303 000003
    002721  aa  014 151 163 160         isp_sys_term
    002722  aa  137 163 171 163
    002723  aa  137 164 145 162
    002724  aa  155 000 000 000
    002725  55   000317 000300
    002726  2a   000171 400001
    002727  55   000312 000003
    002730  aa  020 142 163 163         bss_connect_halt
    002731  aa  137 143 157 156
    002732  aa  156 145 143 164
    002733  aa  137 150 141 154
    002734  aa  164 000 000 000
    002735  55   000327 000307
    002736  2a   000170 400001
    002737  55   000322 000003
    002740  aa  022 142 163 163         bss_no_sys_respnse
    002741  aa  137 156 157 137
    002742  aa  163 171 163 137
    002743  aa  162 145 163 160
    002744  aa  156 163 145 000
    002745  55   000337 000317
    002746  2a   000167 400001
    002747  55   000332 000003
    002750  aa  021 142 163 163         bss_mem_bndry_err
    002751  aa  137 155 145 155
    002752  aa  137 142 156 144
    002753  aa  162 171 137 145
    002754  aa  162 162 000 000
    002755  55   000347 000327
    002756  2a   000166 400001
    002757  55   000342 000003
    002760  aa  020 146 155 163         fms_protect_fail
    002761  aa  137 160 162 157
    002762  aa  164 145 143 164
    002763  aa  137 146 141 151
    002764  aa  154 000 000 000
    002765  55   000360 000337
    002766  2a   000165 400001
    002767  55   000352 000003
    002770  aa  024 144 141 164         data_access_sys_abrt
    002771  aa  141 137 141 143
    002772  aa  143 145 163 163
    002773  aa  137 163 171 163
    002774  aa  137 141 142 162
    002775  aa  164 000 000 000
    002776  55   000371 000347
    002777  2a   000164 400001
    003000  55   000363 000003
    003001  aa  026 156 157 137         no_links_for_swap_file
    003002  aa  154 151 156 153
    003003  aa  163 137 146 157
    003004  aa  162 137 163 167
    003005  aa  141 160 137 146
    003006  aa  151 154 145 000
    003007  55   000401 000360
    003010  2a   000163 400001
    003011  55   000374 000003
    003012  aa  020 151 156 166         invalid_fnc_code
    003013  aa  141 154 151 144
    003014  aa  137 146 156 143
    003015  aa  137 143 157 144
    003016  aa  145 000 000 000
    003017  55   000411 000371
    003020  2a   000162 400001
    003021  55   000404 000003
    003022  aa  022 151 156 166         invalid_dcw_string
    003023  aa  141 154 151 144
    003024  aa  137 144 143 167
    003025  aa  137 163 164 162
    003026  aa  151 156 147 000
    003027  55   000421 000401
    003030  2a   000161 400001
    003031  55   000414 000003
    003032  aa  020 144 165 160         duplicate_report
    003033  aa  154 151 143 141
    003034  aa  164 145 137 162
    003035  aa  145 160 157 162
    003036  aa  164 000 000 000
    003037  55   000431 000411
    003040  2a   000160 400001
    003041  55   000424 000003
    003042  aa  022 163 143 143         scc_invld_for_line
    003043  aa  137 151 156 166
    003044  aa  154 144 137 146
    003045  aa  157 162 137 154
    003046  aa  151 156 145 000
    003047  55   000441 000421
    003050  2a   000157 400001
    003051  55   000434 000003
    003052  aa  022 163 143 143         scc_invld_for_user
    003053  aa  137 151 156 166
    003054  aa  154 144 137 146
    003055  aa  157 162 137 165
    003056  aa  163 145 162 000
    003057  55   000450 000431
    003060  2a   000156 400001
    003061  55   000444 000003
    003062  aa  016 146 151 154         file_alloc_err
    003063  aa  145 137 141 154
    003064  aa  154 157 143 137
    003065  aa  145 162 162 000
    003066  55   000460 000441
    003067  2a   000155 400001
    003070  55   000453 000003
    003071  aa  021 163 145 143         secur_scc_invalid
    003072  aa  165 162 137 163
    003073  aa  143 143 137 151
    003074  aa  156 166 141 154
    003075  aa  151 144 000 000
    003076  55   000467 000450
    003077  2a   000154 400001
    003100  55   000463 000003
    003101  aa  014 151 144 163         ids_addr_oob
    003102  aa  137 141 144 144
    003103  aa  162 137 157 157
    003104  aa  142 000 000 000
    003105  55   000477 000460
    003106  2a   000153 400001
    003107  55   000472 000003
    003110  aa  021 142 141 144         bad_backdoor_file
    003111  aa  137 142 141 143
    003112  aa  153 144 157 157
    003113  aa  162 137 146 151
    003114  aa  154 145 000 000
    003115  55   000506 000467
    003116  2a   000152 400001
    003117  55   000502 000003
    003120  aa  017 142 141 144         bad_backdoor_fc
    003121  aa  137 142 141 143
    003122  aa  153 144 157 157
    003123  aa  162 137 146 143
    003124  55   000516 000477
    003125  2a   000151 400001
    003126  55   000511 000003
    003127  aa  021 151 157 155         iom_cent_char_dis
    003130  aa  137 143 145 156
    003131  aa  164 137 143 150
    003132  aa  141 162 137 144
    003133  aa  151 163 000 000
    003134  55   000527 000506
    003135  2a   000150 400001
    003136  55   000521 000003
    003137  aa  026 151 157 155         iom_cent_idcw_res_mode
    003140  aa  137 143 145 156
    003141  aa  164 137 151 144
    003142  aa  143 167 137 162
    003143  aa  145 163 137 155
    003144  aa  157 144 145 000
    003145  55   000537 000516
    003146  2a   000147 400001
    003147  55   000532 000003
    003150  aa  022 151 157 155         iom_cent_4bar_viol
    003151  aa  137 143 145 156
    003152  aa  164 137 064 142
    003153  aa  141 162 137 166
    003154  aa  151 157 154 000
    003155  55   000547 000527
    003156  2a   000146 400001
    003157  55   000542 000003
    003160  aa  022 151 157 155         iom_cent_bndry_err
    003161  aa  137 143 145 156
    003162  aa  164 137 142 156
    003163  aa  144 162 171 137
    003164  aa  145 162 162 000
    003165  55   000557 000537
    003166  2a   000145 400001
    003167  55   000552 000003
    003170  aa  022 151 157 155         iom_cent_two_tdcws
    003171  aa  137 143 145 156
    003172  aa  164 137 164 167
    003173  aa  157 137 164 144
    003174  aa  143 167 163 000
    003175  55   000567 000547
    003176  2a   000144 400001
    003177  55   000562 000003
    003200  aa  020 151 157 155         iom_cent_lpw_tro
    003201  aa  137 143 145 156
    003202  aa  164 137 154 160
    003203  aa  167 137 164 162
    003204  aa  157 000 000 000
    003205  55   000577 000557
    003206  2a   000143 400001
    003207  55   000572 000003
    003210  aa  020 151 157 155         iom_chan_bad_dcw
    003211  aa  137 143 150 141
    003212  aa  156 137 142 141
    003213  aa  144 137 144 143
    003214  aa  167 000 000 000
    003215  55   000606 000567
    003216  2a   000142 400001
    003217  55   000602 000003
    003220  aa  016 151 155 160         improper_instr
    003221  aa  162 157 160 145
    003222  aa  162 137 151 156
    003223  aa  163 164 162 000
    003224  55   000615 000577
    003225  2a   000141 400001
    003226  55   000611 000003
    003227  aa  016 145 156 145         enexpected_pcw
    003230  aa  170 160 145 143
    003231  aa  164 145 144 137
    003232  aa  160 143 167 000
    003233  55   000624 000606
    003234  2a   000140 400001
    003235  55   000620 000003
    003236  aa  017 143 141 156         cannot_move_job
    003237  aa  156 157 164 137
    003240  aa  155 157 166 145
    003241  aa  137 152 157 142
    003242  55   000633 000615
    003243  2a   000137 400001
    003244  55   000627 000003
    003245  aa  016 157 160 145         oper_stop_rqst
    003246  aa  162 137 163 164
    003247  aa  157 160 137 162
    003250  aa  161 163 164 000
    003251  55   000644 000624
    003252  2a   000136 400001
    003253  55   000636 000003
    003254  aa  024 156 157 137         no_userid_prmfl_more
    003255  aa  165 163 145 162
    003256  aa  151 144 137 160
    003257  aa  162 155 146 154
    003260  aa  137 155 157 162
    003261  aa  145 000 000 000
    003262  55   000654 000633
    003263  2a   000135 400001
    003264  55   000647 000003
    003265  aa  023 147 165 145         guessing_prmfl_more
    003266  aa  163 163 151 156
    003267  aa  147 137 160 162
    003270  aa  155 146 154 137
    003271  aa  155 157 162 145
    003272  55   000664 000644
    003273  2a   000134 400001
    003274  55   000657 000003
    003275  aa  021 142 141 144         bad_news_buf_addr
    003276  aa  137 156 145 167
    003277  aa  163 137 142 165
    003300  aa  146 137 141 144
    003301  aa  144 162 000 000
    003302  55   000674 000654
    003303  2a   000133 400001
    003304  55   000667 000003
    003305  aa  020 141 154 157         aloc_deleted_job
    003306  aa  143 137 144 145
    003307  aa  154 145 164 145
    003310  aa  144 137 152 157
    003311  aa  142 000 000 000
    003312  55   000705 000664
    003313  2a   000132 400001
    003314  55   000677 000003
    003315  aa  027 154 157 163         lost_extra_ssa_contents
    003316  aa  164 137 145 170
    003317  aa  164 162 141 137
    003320  aa  163 163 141 137
    003321  aa  143 157 156 164
    003322  aa  145 156 164 163
    003323  55   000714 000674
    003324  2a   000131 400001
    003325  55   000710 000003
    003326  aa  015 142 141 144         bad_mme_param
    003327  aa  137 155 155 145
    003330  aa  137 160 141 162
    003331  aa  141 155 000 000
    003332  55   000724 000705
    003333  2a   000130 400001
    003334  55   000717 000003
    003335  aa  020 157 165 164         out_of_syot_stor
    003336  aa  137 157 146 137
    003337  aa  163 171 157 164
    003340  aa  137 163 164 157
    003341  aa  162 000 000 000
    003342  55   000734 000714
    003343  2a   000127 400001
    003344  55   000727 000003
    003345  aa  020 151 144 163         ids_rec_too_long
    003346  aa  137 162 145 143
    003347  aa  137 164 157 157
    003350  aa  137 154 157 156
    003351  aa  147 000 000 000
    003352  55   000745 000724
    003353  2a   000126 400001
    003354  55   000737 000003
    003355  aa  027 151 155 160         impermissible_perm_read
    003356  aa  145 162 155 151
    003357  aa  163 163 151 142
    003360  aa  154 145 137 160
    003361  aa  145 162 155 137
    003362  aa  162 145 141 144
    003363  55   000757 000734
    003364  2a   000125 400001
    003365  55   000750 000003
    003366  aa  030 151 155 160         impermissible_perm_write
    003367  aa  145 162 155 151
    003370  aa  163 163 151 142
    003371  aa  154 145 137 160
    003372  aa  145 162 155 137
    003373  aa  167 162 151 164
    003374  aa  145 000 000 000
    003375  55   000766 000745
    003376  2a   000124 400001
    003377  55   000762 000003
    003400  aa  016 142 141 144         bad_io_sct_ptr
    003401  aa  137 151 157 137
    003402  aa  163 143 164 137
    003403  aa  160 164 162 000
    003404  55   000776 000757
    003405  2a   000123 400001
    003406  55   000771 000003
    003407  aa  023 144 165 160         duplicate_file_more
    003410  aa  154 151 143 141
    003411  aa  164 145 137 146
    003412  aa  151 154 145 137
    003413  aa  155 157 162 145
    003414  55   001006 000766
    003415  2a   000122 400001
    003416  55   001001 000003
    003417  aa  022 164 163 163         tss_requested_term
    003420  aa  137 162 145 161
    003421  aa  165 145 163 164
    003422  aa  145 144 137 164
    003423  aa  145 162 155 000
    003424  55   001015 000776
    003425  2a   000121 400001
    003426  55   001011 000003
    003427  aa  017 143 141 156         cannot_rollback
    003430  aa  156 157 164 137
    003431  aa  162 157 154 154
    003432  aa  142 141 143 153
    003433  55   001025 001006
    003434  2a   000120 400001
    003435  55   001020 000003
    003436  aa  023 142 141 144         bad_syot_media_code
    003437  aa  137 163 171 157
    003440  aa  164 137 155 145
    003441  aa  144 151 141 137
    003442  aa  143 157 144 145
    003443  55   001034 001015
    003444  2a   000117 400001
    003445  55   001030 000003
    003446  aa  014 142 141 144         bad_seek_dcw
    003447  aa  137 163 145 145
    003450  aa  153 137 144 143
    003451  aa  167 000 000 000
    003452  55   001045 001025
    003453  2a   000116 400001
    003454  55   001037 000003
    003455  aa  024 151 162 162         irrecoverable_io_err
    003456  aa  145 143 157 166
    003457  aa  145 162 141 142
    003460  aa  154 145 137 151
    003461  aa  157 137 145 162
    003462  aa  162 000 000 000
    003463  55   001056 001034
    003464  2a   000115 400001
    003465  55   001050 000003
    003466  aa  024 163 171 157         syot_buffer_too_high
    003467  aa  164 137 142 165
    003470  aa  146 146 145 162
    003471  aa  137 164 157 157
    003472  aa  137 150 151 147
    003473  aa  150 000 000 000
    003474  55   001066 001045
    003475  2a   000114 400001
    003476  55   001061 000003
    003477  aa  023 142 141 144         bad_syot_buffer_ptr
    003500  aa  137 163 171 157
    003501  aa  164 137 142 165
    003502  aa  146 146 145 162
    003503  aa  137 160 164 162
    003504  55   001076 001056
    003505  2a   000113 400001
    003506  55   001071 000003
    003507  aa  023 142 141 144         bad_syot_status_ptr
    003510  aa  137 163 171 157
    003511  aa  164 137 163 164
    003512  aa  141 164 165 163
    003513  aa  137 160 164 162
    003514  55   001105 001066
    003515  2a   000112 400001
    003516  55   001101 000003
    003517  aa  016 163 171 157         syot_alloc_err
    003520  aa  164 137 141 154
    003521  aa  154 157 143 137
    003522  aa  145 162 162 000
    003523  55   001114 001076
    003524  2a   000111 400001
    003525  55   001110 000003
    003526  aa  015 163 171 157         syot_seek_err
    003527  aa  164 137 163 145
    003530  aa  145 153 137 145
    003531  aa  162 162 000 000
    003532  55   001124 001105
    003533  2a   000110 400001
    003534  55   001117 000003
    003535  aa  021 163 171 157         syot_rec_size_err
    003536  aa  164 137 162 145
    003537  aa  143 137 163 151
    003540  aa  172 145 137 145
    003541  aa  162 162 000 000
    003542  55   001135 001114
    003543  2a   000107 400001
    003544  55   001127 000003
    003545  aa  025 157 165 164         output_limit_exceeded
    003546  aa  160 165 164 137
    003547  aa  154 151 155 151
    003550  aa  164 137 145 170
    003551  aa  143 145 145 144
    003552  aa  145 144 000 000
    003553  55   001144 001124
    003554  2a   000106 400001
    003555  55   001140 000003
    003556  aa  017 142 141 144         bad_rout_pgm_id
    003557  aa  137 162 157 165
    003560  aa  164 137 160 147
    003561  aa  155 137 151 144
    003562  55   001154 001135
    003563  2a   000105 400001
    003564  55   001147 000003
    003565  aa  022 142 141 144         bad_rmt_station_id
    003566  aa  137 162 155 164
    003567  aa  137 163 164 141
    003570  aa  164 151 157 156
    003571  aa  137 151 144 000
    003572  55   001164 001144
    003573  2a   000104 400001
    003574  55   001157 000003
    003575  aa  021 162 155 164         rmt_term_rec_size
    003576  aa  137 164 145 162
    003577  aa  155 137 162 145
    003600  aa  143 137 163 151
    003601  aa  172 145 000 000
    003602  55   001174 001154
    003603  2a   000103 400001
    003604  55   001167 000003
    003605  aa  022 160 141 164         pat_full_from_rout
    003606  aa  137 146 165 154
    003607  aa  154 137 146 162
    003610  aa  157 155 137 162
    003611  aa  157 165 164 000
    003612  55   001204 001164
    003613  2a   000102 400001
    003614  55   001177 000003
    003615  aa  020 142 141 144         bad_rout_op_code
    003616  aa  137 162 157 165
    003617  aa  164 137 157 160
    003620  aa  137 143 157 144
    003621  aa  145 000 000 000
    003622  55   001214 001174
    003623  2a   000101 400001
    003624  55   001207 000003
    003625  aa  023 156 157 164         not_mass_store_more
    003626  aa  137 155 141 163
    003627  aa  163 137 163 164
    003630  aa  157 162 145 137
    003631  aa  155 157 162 145
    003632  55   001224 001204
    003633  2a   000100 400001
    003634  55   001217 000003
    003635  aa  022 160 141 164         pat_full_from_more
    003636  aa  137 146 165 154
    003637  aa  154 137 146 162
    003640  aa  157 155 137 155
    003641  aa  157 162 145 000
    003642  55   001233 001214
    003643  2a   000077 400001
    003644  55   001227 000003
    003645  aa  016 142 141 144         bad_more_param
    003646  aa  137 155 157 162
    003647  aa  145 137 160 141
    003650  aa  162 141 155 000
    003651  55   001242 001224
    003652  2a   000076 400001
    003653  55   001236 000003
    003654  aa  017 172 145 162         zero_fc_to_more
    003655  aa  157 137 146 143
    003656  aa  137 164 157 137
    003657  aa  155 157 162 145
    003660  55   001251 001233
    003661  2a   000075 400001
    003662  55   001245 000003
    003663  aa  015 142 141 144         bad_gcos_call
    003664  aa  137 147 143 157
    003665  aa  163 137 143 141
    003666  aa  154 154 000 000
    003667  55   001262 001242
    003670  2a   000074 400001
    003671  55   001254 000003
    003672  aa  025 143 141 154         call_out_of_file_span
    003673  aa  154 137 157 165
    003674  aa  164 137 157 146
    003675  aa  137 146 151 154
    003676  aa  145 137 163 160
    003677  aa  141 156 000 000
    003700  55   001272 001251
    003701  2a   000073 400001
    003702  55   001265 000003
    003703  aa  021 143 141 154         call_name_missing
    003704  aa  154 137 156 141
    003705  aa  155 145 137 155
    003706  aa  151 163 163 151
    003707  aa  156 147 000 000
    003710  55   001302 001262
    003711  2a   000072 400001
    003712  55   001275 000003
    003713  aa  022 172 145 162         zero_save_word_cnt
    003714  aa  157 137 163 141
    003715  aa  166 145 137 167
    003716  aa  157 162 144 137
    003717  aa  143 156 164 000
    003720  55   001313 001272
    003721  2a   000071 400001
    003722  55   001305 000003
    003723  aa  024 154 157 167         low_rstr_origin_used
    003724  aa  137 162 163 164
    003725  aa  162 137 157 162
    003726  aa  151 147 151 156
    003727  aa  137 165 163 145
    003730  aa  144 000 000 000
    003731  55   001322 001302
    003732  2a   000070 400001
    003733  55   001316 000003
    003734  aa  016 143 141 154         call_rstr_cksm
    003735  aa  154 137 162 163
    003736  aa  164 162 137 143
    003737  aa  153 163 155 000
    003740  55   001331 001313
    003741  2a   000067 400001
    003742  55   001325 000003
    003743  aa  016 163 141 166         save_file_full
    003744  aa  145 137 146 151
    003745  aa  154 145 137 146
    003746  aa  165 154 154 000
    003747  55   001341 001322
    003750  2a   000066 400001
    003751  55   001334 000003
    003752  aa  022 156 157 156         non_rndm_call_file
    003753  aa  137 162 156 144
    003754  aa  155 137 143 141
    003755  aa  154 154 137 146
    003756  aa  151 154 145 000
    003757  55   001352 001331
    003760  2a   000065 400001
    003761  55   001344 000003
    003762  aa  024 142 141 144         bad_call_save_device
    003763  aa  137 143 141 154
    003764  aa  154 137 163 141
    003765  aa  166 145 137 144
    003766  aa  145 166 151 143
    003767  aa  145 000 000 000
    003770  55   001362 001341
    003771  2a   000064 400001
    003772  55   001355 000003
    003773  aa  020 156 157 137         no_call_file_pat
    003774  aa  143 141 154 154
    003775  aa  137 146 151 154
    003776  aa  145 137 160 141
    003777  aa  164 000 000 000
    004000  55   001372 001352
    004001  2a   000063 400001
    004002  55   001365 000003
    004003  aa  020 151 157 137         io_err_call_save
    004004  aa  145 162 162 137
    004005  aa  143 141 154 154
    004006  aa  137 163 141 166
    004007  aa  145 000 000 000
    004010  55   001402 001362
    004011  2a   000062 400001
    004012  55   001375 000003
    004013  aa  020 151 157 137         io_lim_call_save
    004014  aa  154 151 155 137
    004015  aa  143 141 154 154
    004016  aa  137 163 141 166
    004017  aa  145 000 000 000
    004020  55   001412 001372
    004021  2a   000061 400001
    004022  55   001405 000003
    004023  aa  022 157 160 145         operator_kill_rqst
    004024  aa  162 141 164 157
    004025  aa  162 137 153 151
    004026  aa  154 154 137 162
    004027  aa  161 163 164 000
    004030  55   001422 001402
    004031  2a   000060 400001
    004032  55   001415 000003
    004033  aa  022 157 160 145         operator_term_rqst
    004034  aa  162 141 164 157
    004035  aa  162 137 164 145
    004036  aa  162 155 137 162
    004037  aa  161 163 164 000
    004040  55   001433 001412
    004041  2a   000057 400001
    004042  55   001425 000003
    004043  aa  025 151 156 166         invalid_io_for_device
    004044  aa  141 154 151 144
    004045  aa  137 151 157 137
    004046  aa  146 157 162 137
    004047  aa  144 145 166 151
    004050  aa  143 145 000 000
    004051  55   001441 001422
    004052  2a   000056 400001
    004053  55   001436 000003
    004054  aa  011 164 167 157         two_tdcws
    004055  aa  137 164 144 143
    004056  aa  167 163 000 000
    004057  55   001451 001433
    004060  2a   000055 400001
    004061  55   001444 000003
    004062  aa  020 142 141 144         bad_io_cmnd_file
    004063  aa  137 151 157 137
    004064  aa  143 155 156 144
    004065  aa  137 146 151 154
    004066  aa  145 000 000 000
    004067  55   001457 001441
    004070  2a   000054 400001
    004071  55   001454 000003
    004072  aa  012 142 141 144         bad_cc_ptr
    004073  aa  137 143 143 137
    004074  aa  160 164 162 000
    004075  55   001466 001451
    004076  2a   000053 400001
    004077  55   001462 000003
    004100  aa  017 151 156 166         invalid_dcw_ptr
    004101  aa  141 154 151 144
    004102  aa  137 144 143 167
    004103  aa  137 160 164 162
    004104  55   001476 001457
    004105  2a   000052 400001
    004106  55   001471 000003
    004107  aa  020 151 156 166         invalid_file_ptr
    004110  aa  141 154 151 144
    004111  aa  137 146 151 154
    004112  aa  145 137 160 164
    004113  aa  162 000 000 000
    004114  55   001506 001466
    004115  2a   000051 400001
    004116  55   001501 000003
    004117  aa  022 142 141 144         bad_status_ret_ptr
    004120  aa  137 163 164 141
    004121  aa  164 165 163 137
    004122  aa  162 145 164 137
    004123  aa  160 164 162 000
    004124  55   001516 001476
    004125  2a   000050 400001
    004126  55   001511 000003
    004127  aa  022 141 143 143         access_beyond_file
    004130  aa  145 163 163 137
    004131  aa  142 145 171 157
    004132  aa  156 144 137 146
    004133  aa  151 154 145 000
    004134  55   001526 001506
    004135  2a   000047 400001
    004136  55   001521 000003
    004137  aa  020 156 157 137         no_inos_file_ptr
    004140  aa  151 156 157 163
    004141  aa  137 146 151 154
    004142  aa  145 137 160 164
    004143  aa  162 000 000 000
    004144  55   001535 001516
    004145  2a   000046 400001
    004146  55   001531 000003
    004147  aa  016 146 143 137         fc_not_defined
    004150  aa  156 157 164 137
    004151  aa  144 145 146 151
    004152  aa  156 145 144 000
    004153  55   001542 001526
    004154  2a   000045 400001
    004155  55   001540 000003
    004156  aa  006 151 157 137         io_oob
    004157  aa  157 157 142 000
    004160  55   001552 001535
    004161  2a   000044 400001
    004162  55   001545 000003
    004163  aa  023 157 160 137         op_not_complete_flt
    004164  aa  156 157 164 137
    004165  aa  143 157 155 160
    004166  aa  154 145 164 145
    004167  aa  137 146 154 164
    004170  55   001562 001542
    004171  2a   000043 400001
    004172  55   001555 000003
    004173  aa  020 144 151 166         divide_check_flt
    004174  aa  151 144 145 137
    004175  aa  143 150 145 143
    004176  aa  153 137 146 154
    004177  aa  164 000 000 000
    004200  55   001572 001552
    004201  2a   000042 400001
    004202  55   001565 000003
    004203  aa  022 157 166 145         over_or_under_flow
    004204  aa  162 137 157 162
    004205  aa  137 165 156 144
    004206  aa  145 162 137 146
    004207  aa  154 157 167 000
    004210  55   001602 001562
    004211  2a   000041 400001
    004212  55   001575 000003
    004213  aa  021 151 154 154         illegal_procedure
    004214  aa  145 147 141 154
    004215  aa  137 160 162 157
    004216  aa  143 145 144 165
    004217  aa  162 145 000 000
    004220  55   001611 001572
    004221  2a   000040 400001
    004222  55   001605 000003
    004223  aa  016 155 145 155         mem_parity_flt
    004224  aa  137 160 141 162
    004225  aa  151 164 171 137
    004226  aa  146 154 164 000
    004227  55   001617 001602
    004230  2a   000037 400001
    004231  55   001614 000003
    004232  aa  012 154 157 143         lockup_flt
    004233  aa  153 165 160 137
    004234  aa  146 154 164 000
    004235  55   001625 001611
    004236  2a   000036 400001
    004237  55   001622 000003
    004240  aa  012 144 145 162         derail_flt
    004241  aa  141 151 154 137
    004242  aa  146 154 164 000
    004243  55   001633 001617
    004244  2a   000035 400001
    004245  55   001630 000003
    004246  aa  013 143 157 155         command_flt
    004247  aa  155 141 156 144
    004250  aa  137 146 154 164
    004251  55   001642 001625
    004252  2a   000034 400001
    004253  55   001636 000003
    004254  aa  015 146 141 165         fault_tag_flt
    004255  aa  154 164 137 164
    004256  aa  141 147 137 146
    004257  aa  154 164 000 000
    004260  55   001651 001633
    004261  2a   000033 400001
    004262  55   001645 000003
    004263  aa  014 142 141 144         bad_mme_addr
    004264  aa  137 155 155 145
    004265  aa  137 141 144 144
    004266  aa  162 000 000 000
    004267  55   001660 001642
    004270  2a   000032 400001
    004271  55   001654 000003
    004272  aa  014 155 145 155         mem_addr_flt
    004273  aa  137 141 144 144
    004274  aa  162 137 146 154
    004275  aa  164 000 000 000
    004276  55   001670 001651
    004277  2a   000031 400001
    004300  55   001663 000003
    004301  aa  021 157 164 150         other_mem_ioc_err
    004302  aa  145 162 137 155
    004303  aa  145 155 137 151
    004304  aa  157 143 137 145
    004305  aa  162 162 000 000
    004306  55   001700 001660
    004307  2a   000030 400001
    004310  55   001673 000003
    004311  aa  022 155 145 155         mem_time_out_in_io
    004312  aa  137 164 151 155
    004313  aa  145 137 157 165
    004314  aa  164 137 151 156
    004315  aa  137 151 157 000
    004316  55   001707 001670
    004317  2a   000027 400001
    004320  55   001703 000003
    004321  aa  017 151 157 143         ioc_mem_protect
    004322  aa  137 155 145 155
    004323  aa  137 160 162 157
    004324  aa  164 145 143 164
    004325  55   001717 001700
    004326  2a   000026 400001
    004327  55   001712 000003
    004330  aa  020 151 157 143         ioc_not_ctl_proc
    004331  aa  137 156 157 164
    004332  aa  137 143 164 154
    004333  aa  137 160 162 157
    004334  aa  143 000 000 000
    004335  55   001727 001707
    004336  2a   000025 400001
    004337  55   001722 000003
    004340  aa  020 155 145 155         mem_parity_in_io
    004341  aa  137 160 141 162
    004342  aa  151 164 171 137
    004343  aa  151 156 137 151
    004344  aa  157 000 000 000
    004345  55   001737 001717
    004346  2a   000024 400001
    004347  55   001732 000003
    004350  aa  023 151 157 143         ioc_not_master_mode
    004351  aa  137 156 157 164
    004352  aa  137 155 141 163
    004353  aa  164 145 162 137
    004354  aa  155 157 144 145
    004355  55   001747 001727
    004356  2a   000023 400001
    004357  55   001742 000003
    004360  aa  020 151 157 143         ioc_mem_addr_flt
    004361  aa  137 155 145 155
    004362  aa  137 141 144 144
    004363  aa  162 137 146 154
    004364  aa  164 000 000 000
    004365  55   001760 001737
    004366  2a   000022 400001
    004367  55   001752 000003
    004370  aa  024 151 157 143         ioc_data_service_err
    004371  aa  137 144 141 164
    004372  aa  141 137 163 145
    004373  aa  162 166 151 143
    004374  aa  145 137 145 162
    004375  aa  162 000 000 000
    004376  55   001770 001747
    004377  2a   000021 400001
    004400  55   001763 000003
    004401  aa  021 143 157 156         connect_or_ti_err
    004402  aa  156 145 143 164
    004403  aa  137 157 162 137
    004404  aa  164 151 137 145
    004405  aa  162 162 000 000
    004406  55   001777 001760
    004407  2a   000020 400001
    004410  55   001773 000003
    004411  aa  017 160 162 151         pri_mailbox_err
    004412  aa  137 155 141 151
    004413  aa  154 142 157 170
    004414  aa  137 145 162 162
    004415  55   002007 001770
    004416  2a   000017 400001
    004417  55   002002 000003
    004420  aa  020 147 145 145         geendc_not_in_cc
    004421  aa  156 144 143 137
    004422  aa  156 157 164 137
    004423  aa  151 156 137 143
    004424  aa  143 000 000 000
    004425  55   002016 001777
    004426  2a   000016 400001
    004427  55   002012 000003
    004430  aa  015 142 141 144         bad_mme_in_cc
    004431  aa  137 155 155 145
    004432  aa  137 151 156 137
    004433  aa  143 143 000 000
    004434  55   002024 002007
    004435  2a   000015 400001
    004436  55   002021 000003
    004437  aa  013 157 165 164         out_of_time
    004440  aa  137 157 146 137
    004441  aa  164 151 155 145
    004442  55   002034 002016
    004443  2a   000014 400001
    004444  55   002027 000003
    004445  aa  021 144 143 150         dchln_preselected
    004446  aa  154 156 137 160
    004447  aa  162 145 163 145
    004450  aa  154 145 143 164
    004451  aa  145 144 000 000
    004452  55   002044 002024
    004453  2a   000013 400001
    004454  55   002037 000003
    004455  aa  021 143 141 156         cant_find_ssa_mod
    004456  aa  164 137 146 151
    004457  aa  156 144 137 163
    004460  aa  163 141 137 155
    004461  aa  157 144 000 000
    004462  55   002054 002034
    004463  2a   000012 400001
    004464  55   002047 000003
    004465  aa  020 163 163 141         ssa_mod_cksm_err
    004466  aa  137 155 157 144
    004467  aa  137 143 153 163
    004470  aa  155 137 145 162
    004471  aa  162 000 000 000
    004472  55   002063 002044
    004473  2a   000011 400001
    004474  55   002057 000003
    004475  aa  015 143 141 156         cant_load_ssa
    004476  aa  164 137 154 157
    004477  aa  141 144 137 163
    004500  aa  163 141 000 000
    004501  55   002071 002054
    004502  2a   000010 400001
    004503  55   002066 000003
    004504  aa  011 156 157 137         no_reason
    004505  aa  162 145 141 163
    004506  aa  157 156 000 000
    004507  55   000002 002063
    004510  6a   000000 400002
    004511  55   002074 000003
    004512  aa  014 163 171 155         symbol_table
    004513  aa  142 157 154 137
    004514  aa  164 141 142 154
    004515  aa  145 000 000 000

DEFINITIONS HASH TABLE

    004516  aa   000000 000463
    004517  aa   000000 000000
    004520  5a   000347 000000
    004521  aa   000000 000000
    004522  5a   000200 000000
    004523  5a   000103 000000
    004524  aa   000000 000000
    004525  5a   002054 000000
    004526  5a   001506 000000
    004527  aa   000000 000000
    004530  5a   000421 000000
    004531  5a   000431 000000
    004532  aa   000000 000000
    004533  aa   000000 000000
    004534  aa   000000 000000
    004535  aa   000000 000000
    004536  5a   000766 000000
    004537  aa   000000 000000
    004540  5a   000307 000000
    004541  aa   000000 000000
    004542  5a   001670 000000
    004543  aa   000000 000000
    004544  5a   000450 000000
    004545  aa   000000 000000
    004546  aa   000000 000000
    004547  5a   000460 000000
    004550  5a   000120 000000
    004551  5a   000300 000000
    004552  5a   001164 000000
    004553  5a   001214 000000
    004554  aa   000000 000000
    004555  5a   000231 000000
    004556  5a   000705 000000
    004557  5a   001242 000000
    004560  5a   001777 000000
    004561  5a   002007 000000
    004562  5a   000215 000000
    004563  5a   002044 000000
    004564  5a   000207 000000
    004565  aa   000000 000000
    004566  aa   000000 000000
    004567  aa   000000 000000
    004570  aa   000000 000000
    004571  aa   000000 000000
    004572  aa   000000 000000
    004573  aa   000000 000000
    004574  aa   000000 000000
    004575  aa   000000 000000
    004576  aa   000000 000000
    004577  aa   000000 000000
    004600  5a   000411 000000
    004601  5a   001402 000000
    004602  5a   001412 000000
    004603  5a   001552 000000
    004604  5a   001341 000000
    004605  5a   000633 000000
    004606  5a   001562 000000
    004607  5a   000527 000000
    004610  5a   000537 000000
    004611  5a   000547 000000
    004612  aa   000000 000000
    004613  5a   000135 000000
    004614  5a   001262 000000
    004615  aa   000000 000000
    004616  5a   002034 000000
    004617  5a   000045 000000
    004620  5a   000112 000000
    004621  5a   001451 000000
    004622  aa   000000 000000
    004623  aa   000000 000000
    004624  aa   000000 000000
    004625  aa   000000 000000
    004626  aa   000000 000000
    004627  aa   000000 000000
    004630  aa   000000 000000
    004631  aa   000000 000000
    004632  aa   000000 000000
    004633  aa   000000 000000
    004634  aa   000000 000000
    004635  aa   000000 000000
    004636  aa   000000 000000
    004637  5a   001700 000000
    004640  5a   000724 000000
    004641  aa   000000 000000
    004642  5a   001526 000000
    004643  aa   000000 000000
    004644  5a   001105 000000
    004645  aa   000000 000000
    004646  5a   000467 000000
    004647  5a   000654 000000
    004650  5a   001651 000000
    004651  aa   000000 000000
    004652  aa   000000 000000
    004653  aa   000000 000000
    004654  aa   000000 000000
    004655  5a   000161 000000
    004656  5a   001313 000000
    004657  aa   000000 000000
    004660  aa   000000 000000
    004661  5a   000441 000000
    004662  5a   000260 000000
    004663  aa   000000 000000
    004664  aa   000000 000000
    004665  aa   000000 000000
    004666  aa   000000 000000
    004667  5a   000734 000000
    004670  aa   000000 000000
    004671  aa   000000 000000
    004672  aa   000000 000000
    004673  5a   000327 000000
    004674  5a   000674 000000
    004675  5a   001045 000000
    004676  aa   000000 000000
    004677  aa   000000 000000
    004700  5a   000516 000000
    004701  aa   000000 000000
    004702  aa   000000 000000
    004703  aa   000000 000000
    004704  aa   000000 000000
    004705  5a   001251 000000
    004706  aa   000000 000000
    004707  aa   000000 000000
    004710  5a   000757 000000
    004711  5a   001224 000000
    004712  aa   000000 000000
    004713  aa   000000 000000
    004714  aa   000000 000000
    004715  5a   002024 000000
    004716  aa   000000 000000
    004717  5a   000153 000000
    004720  aa   000000 000000
    004721  aa   000000 000000
    004722  aa   000000 000000
    004723  aa   000000 000000
    004724  5a   001422 000000
    004725  5a   001124 000000
    004726  5a   001542 000000
    004727  5a   000027 000000
    004730  5a   000064 000000
    004731  5a   001611 000000
    004732  5a   001727 000000
    004733  aa   000000 000000
    004734  aa   000000 000000
    004735  5a   001114 000000
    004736  aa   000000 000000
    004737  5a   001717 000000
    004740  5a   002016 000000
    004741  5a   001302 000000
    004742  5a   000664 000000
    004743  aa   000000 000000
    004744  aa   000000 000000
    004745  aa   000000 000000
    004746  5a   000170 000000
    004747  aa   000000 000000
    004750  5a   000250 000000
    004751  aa   000000 000000
    004752  5a   000223 000000
    004753  5a   001770 000000
    004754  aa   000000 000000
    004755  aa   000000 000000
    004756  aa   000000 000000
    004757  aa   000000 000000
    004760  aa   000000 000000
    004761  aa   000000 000000
    004762  aa   000000 000000
    004763  aa   000000 000000
    004764  aa   000000 000000
    004765  aa   000000 000000
    004766  5a   000401 000000
    004767  5a   001362 000000
    004770  5a   001372 000000
    004771  5a   001660 000000
    004772  5a   001707 000000
    004773  5a   001737 000000
    004774  5a   001760 000000
    004775  aa   000000 000000
    004776  5a   001322 000000
    004777  5a   001076 000000
    005000  5a   001154 000000
    005001  5a   001144 000000
    005002  5a   001476 000000
    005003  5a   000036 000000
    005004  5a   000557 000000
    005005  5a   000567 000000
    005006  5a   001535 000000
    005007  aa   000000 000000
    005010  aa   000000 000000
    005011  5a   000073 000000
    005012  5a   000337 000000
    005013  5a   000615 000000
    005014  5a   001006 000000
    005015  aa   000000 000000
    005016  aa   000000 000000
    005017  aa   000000 000000
    005020  aa   000000 000000
    005021  5a   000011 000000
    005022  5a   000745 000000
    005023  5a   001272 000000
    005024  5a   001331 000000
    005025  5a   001433 000000
    005026  5a   000317 000000
    005027  aa   000000 000000
    005030  5a   000776 000000
    005031  5a   001457 000000
    005032  aa   000000 000000
    005033  aa   000000 000000
    005034  aa   000000 000000
    005035  5a   000577 000000
    005036  aa   000000 000000
    005037  aa   000000 000000
    005040  5a   000644 000000
    005041  aa   000000 000000
    005042  aa   000000 000000
    005043  5a   000477 000000
    005044  5a   001135 000000
    005045  aa   000000 000000
    005046  aa   000000 000000
    005047  5a   001617 000000
    005050  aa   000000 000000
    005051  5a   001633 000000
    005052  5a   000127 000000
    005053  aa   000000 000000
    005054  aa   000000 000000
    005055  aa   000000 000000
    005056  aa   000000 000000
    005057  aa   000000 000000
    005060  aa   000000 000000
    005061  aa   000000 000000
    005062  aa   000000 000000
    005063  5a   001747 000000
    005064  5a   000606 000000
    005065  5a   001233 000000
    005066  aa   000000 000000
    005067  aa   000000 000000
    005070  aa   000000 000000
    005071  aa   000000 000000
    005072  aa   000000 000000
    005073  5a   000360 000000
    005074  5a   001625 000000
    005075  aa   000000 000000
    005076  aa   000000 000000
    005077  aa   000000 000000
    005100  aa   000000 000000
    005101  aa   000000 000000
    005102  aa   000000 000000
    005103  5a   001034 000000
    005104  aa   000000 000000
    005105  5a   000020 000000
    005106  5a   000055 000000
    005107  5a   000271 000000
    005110  5a   001025 000000
    005111  5a   001642 000000
    005112  aa   000000 000000
    005113  aa   000000 000000
    005114  5a   000145 000000
    005115  aa   000000 000000
    005116  aa   000000 000000
    005117  aa   000000 000000
    005120  aa   000000 000000
    005121  aa   000000 000000
    005122  aa   000000 000000
    005123  aa   000000 000000
    005124  aa   000000 000000
    005125  aa   000000 000000
    005126  aa   000000 000000
    005127  aa   000000 000000
    005130  aa   000000 000000
    005131  aa   000000 000000
    005132  aa   000000 000000
    005133  5a   000240 000000
    005134  5a   001015 000000
    005135  5a   001056 000000
    005136  5a   001066 000000
    005137  5a   000506 000000
    005140  5a   001572 000000
    005141  5a   001602 000000
    005142  aa   000000 000000
    005143  aa   000000 000000
    005144  aa   000000 000000
    005145  aa   000000 000000
    005146  aa   000000 000000
    005147  aa   000000 000000
    005150  5a   002063 000000
    005151  aa   000000 000000
    005152  aa   000000 000000
    005153  aa   000000 000000
    005154  aa   000000 000000
    005155  aa   000000 000000
    005156  aa   000000 000000
    005157  aa   000000 000000
    005160  aa   000000 000000
    005161  aa   000000 000000
    005162  5a   001204 000000
    005163  5a   000371 000000
    005164  5a   000714 000000
    005165  5a   001466 000000
    005166  aa   000000 000000
    005167  aa   000000 000000
    005170  aa   000000 000000
    005171  aa   000000 000000
    005172  5a   000624 000000
    005173  5a   002071 000000
    005174  aa   000000 000000
    005175  aa   000000 000000
    005176  5a   001174 000000
    005177  5a   001352 000000
    005200  5a   001441 000000
    005201  5a   001516 000000

NO EXTERNAL NAMES

NO TRAP POINTER WORDS

TYPE PAIR BLOCKS

    005202  aa   000001 000000
    005203  aa   000000 000000

INTERNAL EXPRESSION WORDS

    005204  50   002564 000000
    005205  aa   000000 000000
LINKAGE INFORMATION

    000000  aa   000000 000000
    000001  02   002416 000230
    000002  aa   000000 000000
    000003  aa   000000 000000
    000004  aa   000000 000000
    000005  aa   000000 000000
    000006  22   000226 000233
    000007  a2   000000 000216
    000226  9a   777552 0000 46         *text|
    000227  5a   002566 0000 00

FIRST REFERENCE TRAP LIST

    000230  aa   000000 000001
    000231  aa   000000 000001
    000232  2a   000226 000000
    000233  aa   000000 000000
SYMBOL INFORMATION

SYMBOL TABLE HEADER

    000000  aa   000000 000001
    000001  aa   163171 155142
    000002  aa   164162 145145
    000003  aa   000000 000004
    000004  aa   000000 114732
    000005  aa   732732 062314
    000006  aa   000000 114775
    000007  aa   675326 653377
    000010  aa   141154 155040
    000011  aa   040040 040040
    000012  aa   000024 000040
    000013  aa   000034 000040
    000014  aa   000044 000100
    000015  aa   000002 000002
    000016  aa   000064 000000
    000017  aa   000000 000323
    000020  aa   000000 000144
    000021  aa   000000 000257
    000022  aa   000313 000144
    000023  aa   000064 000000
    000024  aa   101114 115040
    000025  aa   126145 162163
    000026  aa   151157 156040
    000027  aa   040066 056067
    000030  aa   040040 117143
    000031  aa   164157 142145
    000032  aa   162040 061071
    000033  aa   070066 040040
    000034  aa   107112 157150
    000035  aa   156163 157156
    000036  aa   056123 171163
    000037  aa   115141 151156
    000040  aa   164056 141040
    000041  aa   040040 040040
    000042  aa   040040 040040
    000043  aa   040040 040040
    000044  aa   154151 163164
    000045  aa   040040 040040
    000046  aa   040040 040040
    000047  aa   040040 040040
    000050  aa   040040 040040
    000051  aa   040040 040040
    000052  aa   040040 040040
    000053  aa   040040 040040
    000054  aa   040040 040040
    000055  aa   040040 040040
    000056  aa   040040 040040
    000057  aa   040040 040040
    000060  aa   040040 040040
    000061  aa   040040 040040
    000062  aa   040040 040040
    000063  aa   040040 040040
    000064  aa   000000 000001
    000065  aa   000000 000003
    000066  aa   000102 000055
    000067  aa   147740 446274
    000070  aa   000000 114774
    000071  aa   461130 600000
    000072  aa   000116 000037
    000073  aa   120665 316464
    000074  aa   000000 112067
    000075  aa   253504 600000
    000076  aa   000126 000066
    000077  aa   147714 750316
    000100  aa   000000 114774
    000101  aa   453561 000000
    000102  aa   076163 160145          >special_ldd>install>MR12.0-1206>gcos_et_.alm
    000103  aa   143151 141154
    000104  aa   137154 144144
    000105  aa   076151 156163
    000106  aa   164141 154154
    000107  aa   076115 122061
    000110  aa   062056 060055
    000111  aa   061062 060066
    000112  aa   076147 143157
    000113  aa   163137 145164
    000114  aa   137056 141154
    000115  aa   155040 040040
    000116  aa   076154 144144          >ldd>include>et_macros.incl.alm
    000117  aa   076151 156143
    000120  aa   154165 144145
    000121  aa   076145 164137
    000122  aa   155141 143162
    000123  aa   157163 056151
    000124  aa   156143 154056
    000125  aa   141154 155040
    000126  aa   076163 160145          >special_ldd>install>MR12.0-1206>stack_header.incl.alm
    000127  aa   143151 141154
    000130  aa   137154 144144
    000131  aa   076151 156163
    000132  aa   164141 154154
    000133  aa   076115 122061
    000134  aa   062056 060055
    000135  aa   061062 060066
    000136  aa   076163 164141
    000137  aa   143153 137150
    000140  aa   145141 144145
    000141  aa   162056 151156
    000142  aa   143154 056141
    000143  aa   154155 040040
               MULTICS ASSEMBLY CROSS REFERENCE LISTING

   Value        Symbol                   Source file   Line number

                *text                    gcos_et_:      18.
          14    .._00000                 gcos_et_:      22.
          23    .._00001                 gcos_et_:      24.
          33    .._00002                 gcos_et_:      26.
          44    .._00003                 gcos_et_:      28.
          54    .._00004                 gcos_et_:      30.
          63    .._00005                 gcos_et_:      32.
          73    .._00006                 gcos_et_:      34.
         103    .._00007                 gcos_et_:      36.
         114    .._00010                 gcos_et_:      38.
         124    .._00011                 gcos_et_:      40.
         134    .._00012                 gcos_et_:      42.
         144    .._00013                 gcos_et_:      44.
         155    .._00014                 gcos_et_:      46.
         166    .._00015                 gcos_et_:      48.
         177    .._00016                 gcos_et_:      50.
         210    .._00017                 gcos_et_:      52.
         220    .._00020                 gcos_et_:      54.
         230    .._00021                 gcos_et_:      56.
         240    .._00022                 gcos_et_:      58.
         250    .._00023                 gcos_et_:      60.
         260    .._00024                 gcos_et_:      62.
         267    .._00025                 gcos_et_:      64.
         276    .._00026                 gcos_et_:      66.
         304    .._00027                 gcos_et_:      68.
         312    .._00030                 gcos_et_:      70.
         322    .._00031                 gcos_et_:      72.
         332    .._00032                 gcos_et_:      74.
         342    .._00033                 gcos_et_:      76.
         352    .._00034                 gcos_et_:      78.
         363    .._00035                 gcos_et_:      80.
         374    .._00036                 gcos_et_:      82.
         405    .._00037                 gcos_et_:      84.
         416    .._00040                 gcos_et_:      86.
         426    .._00041                 gcos_et_:      88.
         436    .._00042                 gcos_et_:      90.
         446    .._00043                 gcos_et_:      92.
         456    .._00044                 gcos_et_:      94.
         467    .._00045                 gcos_et_:      96.
         477    .._00046                 gcos_et_:      98.
         507    .._00047                 gcos_et_:     100.
         520    .._00050                 gcos_et_:     102.
         531    .._00051                 gcos_et_:     104.
         542    .._00052                 gcos_et_:     106.
         553    .._00053                 gcos_et_:     108.
         564    .._00054                 gcos_et_:     110.
         574    .._00055                 gcos_et_:     112.
         605    .._00056                 gcos_et_:     114.
         615    .._00057                 gcos_et_:     116.
         625    .._00060                 gcos_et_:     118.
         635    .._00061                 gcos_et_:     120.
         645    .._00062                 gcos_et_:     122.
         655    .._00063                 gcos_et_:     124.
         665    .._00064                 gcos_et_:     126.
         676    .._00065                 gcos_et_:     128.
         705    .._00066                 gcos_et_:     130.
         715    .._00067                 gcos_et_:     132.
         725    .._00070                 gcos_et_:     134.
         735    .._00071                 gcos_et_:     136.
         745    .._00072                 gcos_et_:     138.
         755    .._00073                 gcos_et_:     140.
         765    .._00074                 gcos_et_:     142.
         776    .._00075                 gcos_et_:     144.
        1006    .._00076                 gcos_et_:     146.
        1016    .._00077                 gcos_et_:     148.
        1027    .._00100                 gcos_et_:     150.
        1040    .._00101                 gcos_et_:     152.
        1047    .._00102                 gcos_et_:     154.
        1057    .._00103                 gcos_et_:     156.
        1067    .._00104                 gcos_et_:     158.
        1077    .._00105                 gcos_et_:     160.
        1107    .._00106                 gcos_et_:     162.
        1120    .._00107                 gcos_et_:     164.
        1130    .._00110                 gcos_et_:     166.
        1140    .._00111                 gcos_et_:     168.
        1151    .._00112                 gcos_et_:     170.
        1160    .._00113                 gcos_et_:     172.
        1170    .._00114                 gcos_et_:     174.
        1200    .._00115                 gcos_et_:     176.
        1211    .._00116                 gcos_et_:     178.
        1221    .._00117                 gcos_et_:     180.
        1231    .._00120                 gcos_et_:     182.
        1242    .._00121                 gcos_et_:     184.
        1252    .._00122                 gcos_et_:     186.
        1262    .._00123                 gcos_et_:     188.
        1271    .._00124                 gcos_et_:     190.
        1302    .._00125                 gcos_et_:     192.
        1313    .._00126                 gcos_et_:     194.
        1324    .._00127                 gcos_et_:     196.
        1335    .._00130                 gcos_et_:     198.
        1345    .._00131                 gcos_et_:     200.
        1355    .._00132                 gcos_et_:     202.
        1366    .._00133                 gcos_et_:     204.
        1376    .._00134                 gcos_et_:     206.
        1407    .._00135                 gcos_et_:     208.
        1416    .._00136                 gcos_et_:     210.
        1426    .._00137                 gcos_et_:     212.
        1437    .._00140                 gcos_et_:     214.
        1447    .._00141                 gcos_et_:     216.
        1460    .._00142                 gcos_et_:     218.
        1470    .._00143                 gcos_et_:     220.
        1501    .._00144                 gcos_et_:     222.
        1512    .._00145                 gcos_et_:     224.
        1521    .._00146                 gcos_et_:     226.
        1531    .._00147                 gcos_et_:     228.
        1542    .._00150                 gcos_et_:     230.
        1553    .._00151                 gcos_et_:     232.
        1563    .._00152                 gcos_et_:     234.
        1574    .._00153                 gcos_et_:     236.
        1605    .._00154                 gcos_et_:     238.
        1615    .._00155                 gcos_et_:     240.
        1626    .._00156                 gcos_et_:     242.
        1636    .._00157                 gcos_et_:     244.
        1647    .._00160                 gcos_et_:     246.
        1657    .._00161                 gcos_et_:     248.
        1666    .._00162                 gcos_et_:     250.
        1676    .._00163                 gcos_et_:     252.
        1705    .._00164                 gcos_et_:     254.
        1715    .._00165                 gcos_et_:     256.
        1724    .._00166                 gcos_et_:     258.
        1734    .._00167                 gcos_et_:     260.
        1745    .._00170                 gcos_et_:     262.
        1770    .._00171                 gcos_et_:     264.
        2013    .._00172                 gcos_et_:     266.
        2026    .._00173                 gcos_et_:     268.
        2036    .._00174                 gcos_et_:     270.
        2050    .._00175                 gcos_et_:     272.
        2062    .._00176                 gcos_et_:     274.
        2101    .._00177                 gcos_et_:     276.
        2127    .._00200                 gcos_et_:     278.
        2150    .._00201                 gcos_et_:     280.
        2173    .._00202                 gcos_et_:     282.
        2210    .._00203                 gcos_et_:     284.
        2221    .._00204                 gcos_et_:     286.
        2234    .._00205                 gcos_et_:     288.
        2243    .._00206                 gcos_et_:     290.
        2264    .._00207                 gcos_et_:     292.
        2301    .._00210                 gcos_et_:     294.
        2317    .._00211                 gcos_et_:     296.
        2340    .._00212                 gcos_et_:     298.
        2357    .._00213                 gcos_et_:     300.
        2401    .._00214                 gcos_et_:     302.
         225    .code_end                gcos_et_:      18.
          10    .code_start              gcos_et_:      18.
           5    .loop                    gcos_et_:      18.
       77777    .segno                   gcos_et_:      18,   22,   24,   26,   28,   30,   32,   34,   36,   38,   40,   42,
                                                        44,   46,   48,   50,   52,   54,   56,   58,   60,   62,   64,   66,
                                                        68,   70,   72,   74,   76,   78,   80,   82,   84,   86,   88,   90,
                                                        92,   94,   96,   98,  100,  102,  104,  106,  108,  110,  112,  114,
                                                       116,  118,  120,  122,  124,  126,  128,  130,  132,  134,  136,  138,
                                                       140,  142,  144,  146,  148,  150,  152,  154,  156,  158,  160,  162,
                                                       164,  166,  168,  170,  172,  174,  176,  178,  180,  182,  184,  186,
                                                       188,  190,  192,  194,  196,  198,  200,  202,  204,  206,  208,  210,
                                                       212,  214,  216,  218,  220,  222,  224,  226,  228,  230,  232,  234,
                                                       236,  238,  240,  242,  244,  246,  248,  250,  252,  254,  256,  258,
                                                       260,  262,  264,  266,  268,  270,  272,  274,  276,  278,  280,  282,
                                                       284,  286,  288,  290,  292,  294,  296,  298,  300,  302.
           0    .trapproc                gcos_et_:      18.
          50    access_beyond_file       gcos_et_:      86.
         133    aloc_deleted_job         gcos_et_:     188.
         152    bad_backdoor_fc          gcos_et_:     218.
         153    bad_backdoor_file        gcos_et_:     220.
          65    bad_call_save_device     gcos_et_:     112.
          54    bad_cc_ptr               gcos_et_:      94.
         173    bad_eis_data             gcos_et_:     252.
          75    bad_gcos_call            gcos_et_:     128.
          55    bad_io_cmnd_file         gcos_et_:      96.
         124    bad_io_sct_ptr           gcos_et_:     174.
          33    bad_mme_addr             gcos_et_:      60.
          16    bad_mme_in_cc            gcos_et_:      34.
         131    bad_mme_param            gcos_et_:     184.
          77    bad_more_param           gcos_et_:     132.
         223    bad_multirec             gcos_et_:     300.
         134    bad_news_buf_addr        gcos_et_:     190.
         177    bad_rels_rqst            gcos_et_:     260.
         105    bad_rmt_station_id       gcos_et_:     144.
         102    bad_rout_op_code         gcos_et_:     138.
         106    bad_rout_pgm_id          gcos_et_:     146.
         117    bad_seek_dcw             gcos_et_:     164.
          51    bad_status_ret_ptr       gcos_et_:      88.
         114    bad_syot_buffer_ptr      gcos_et_:     158.
         120    bad_syot_media_code      gcos_et_:     166.
         113    bad_syot_status_ptr      gcos_et_:     156.
         171    bss_connect_halt         gcos_et_:     248.
         167    bss_mem_bndry_err        gcos_et_:     244.
         170    bss_no_sys_respnse       gcos_et_:     246.
         176    cache_parity_flt         gcos_et_:     258.
          73    call_name_missing        gcos_et_:     124.
        1170    call_offset              stack_header:        80.
          74    call_out_of_file_span    gcos_et_:     126.
          70    call_rstr_cksm           gcos_et_:     118.
         140    cannot_move_job          gcos_et_:     198.
         121    cannot_rollback          gcos_et_:     168.
          13    cant_find_ssa_mod        gcos_et_:      28.
          11    cant_load_ssa            gcos_et_:      24.
         211    cc_bad_card              gcos_et_:     280.
         202    cc_bad_fc                gcos_et_:     266.
         203    cc_bad_field             gcos_et_:     268.
         206    cc_bad_lud               gcos_et_:     274.
         204    cc_field_too_long        gcos_et_:     270.
         205    cc_missing_fc            gcos_et_:     272.
         210    cc_missing_field         gcos_et_:     278.
         207    cc_unimp                 gcos_et_:     276.
          10    codes                    gcos_et_:      18,   22,   24,   26,   28,   30,   32,   34,   36,   38,   40,   42,
                                                        44,   46,   48,   50,   52,   54,   56,   58,   60,   62,   64,   66,
                                                        68,   70,   72,   74,   76,   78,   80,   82,   84,   86,   88,   90,
                                                        92,   94,   96,   98,  100,  102,  104,  106,  108,  110,  112,  114,
                                                       116,  118,  120,  122,  124,  126,  128,  130,  132,  134,  136,  138,
                                                       140,  142,  144,  146,  148,  150,  152,  154,  156,  158,  160,  162,
                                                       164,  166,  168,  170,  172,  174,  176,  178,  180,  182,  184,  186,
                                                       188,  190,  192,  194,  196,  198,  200,  202,  204,  206,  208,  210,
                                                       212,  214,  216,  218,  220,  222,  224,  226,  228,  230,  232,  234,
                                                       236,  238,  240,  242,  244,  246,  248,  250,  252,  254,  256,  258,
                                                       260,  262,  264,  266,  268,  270,  272,  274,  276,  278,  280,  282,
                                                       284,  286,  288,  290,  292,  294,  296,  298,  300,  302.
          35    command_flt              gcos_et_:      64.
          21    connect_or_ti_err        gcos_et_:      40.
         165    data_access_sys_abrt     gcos_et_:     240.
          14    dchln_preselected        gcos_et_:      30.
          36    derail_flt               gcos_et_:      66.
          43    divide_check_flt         gcos_et_:      76.
         123    duplicate_file_more      gcos_et_:     172.
         161    duplicate_report         gcos_et_:     232.
         141    enexpected_pcw           gcos_et_:     200.
        1174    entry_offset             stack_header:        84.
         201    fatal_error              gcos_et_:     264.
          34    fault_tag_flt            gcos_et_:      62.
          46    fc_not_defined           gcos_et_:      82.
         156    file_alloc_err           gcos_et_:     226.
         214    fms_bad_cfdesc           gcos_et_:     286.
         215    fms_perms_denied         gcos_et_:     288.
         166    fms_protect_fail         gcos_et_:     242.
          17    geendc_not_in_cc         gcos_et_:      36.
         135    guessing_prmfl_more      gcos_et_:     192.
         154    ids_addr_oob             gcos_et_:     222.
         127    ids_rec_too_long         gcos_et_:     180.
          41    illegal_procedure        gcos_et_:      72.
         126    impermissible_perm_read  gcos_et_:     178.
         125    impermissible_perm_write       gcos_et_:     176.
         142    improper_instr           gcos_et_:     202.
          53    invalid_dcw_ptr          gcos_et_:      92.
         162    invalid_dcw_string       gcos_et_:     234.
          52    invalid_file_ptr         gcos_et_:      90.
         163    invalid_fnc_code         gcos_et_:     236.
          57    invalid_io_for_device    gcos_et_:     100.
          22    ioc_data_service_err     gcos_et_:      42.
          23    ioc_mem_addr_flt         gcos_et_:      44.
          27    ioc_mem_protect          gcos_et_:      52.
          26    ioc_not_ctl_proc         gcos_et_:      50.
          24    ioc_not_master_mode      gcos_et_:      46.
         147    iom_cent_4bar_viol       gcos_et_:     212.
         146    iom_cent_bndry_err       gcos_et_:     210.
         151    iom_cent_char_dis        gcos_et_:     216.
         150    iom_cent_idcw_res_mode   gcos_et_:     214.
         144    iom_cent_lpw_tro         gcos_et_:     206.
         145    iom_cent_two_tdcws       gcos_et_:     208.
         143    iom_chan_bad_dcw         gcos_et_:     204.
         174    io_channel_deactivated   gcos_et_:     254.
          63    io_err_call_save         gcos_et_:     108.
          62    io_lim_call_save         gcos_et_:     106.
          45    io_oob                   gcos_et_:      80.
         116    irrecoverable_io_err     gcos_et_:     162.
         172    isp_sys_term             gcos_et_:     250.
          37    lockup_flt               gcos_et_:      68.
         132    lost_extra_ssa_contents  gcos_et_:     186.
          71    low_rstr_origin_used     gcos_et_:     120.
          32    mem_addr_flt             gcos_et_:      58.
          40    mem_parity_flt           gcos_et_:      70.
          25    mem_parity_in_io         gcos_et_:      48.
          30    mem_time_out_in_io       gcos_et_:      54.
           0    messages                 gcos_et_:      18,   22,   24,   26,   28,   30,   32,   34,   36,   38,   40,   42,
                                                        44,   46,   48,   50,   52,   54,   56,   58,   60,   62,   64,   66,
                                                        68,   70,   72,   74,   76,   78,   80,   82,   84,   86,   88,   90,
                                                        92,   94,   96,   98,  100,  102,  104,  106,  108,  110,  112,  114,
                                                       116,  118,  120,  122,  124,  126,  128,  130,  132,  134,  136,  138,
                                                       140,  142,  144,  146,  148,  150,  152,  154,  156,  158,  160,  162,
                                                       164,  166,  168,  170,  172,  174,  176,  178,  180,  182,  184,  186,
                                                       188,  190,  192,  194,  196,  198,  200,  202,  204,  206,  208,  210,
                                                       212,  214,  216,  218,  220,  222,  224,  226,  228,  230,  232,  234,
                                                       236,  238,  240,  242,  244,  246,  248,  250,  252,  254,  256,  258,
                                                       260,  262,  264,  266,  268,  270,  272,  274,  276,  278,  280,  282,
                                                       284,  286,  288,  290,  292,  294,  296,  298,  300,  302.
         222    need_multirec            gcos_et_:     298.
         216    non_gcos_fault           gcos_et_:     290.
          66    non_rndm_call_file       gcos_et_:     114.
         101    not_mass_store_more      gcos_et_:     136.
          64    no_call_file_pat         gcos_et_:     110.
         217    no_free_fibs             gcos_et_:     292.
          47    no_inos_file_ptr         gcos_et_:      84.
         164    no_links_for_swap_file   gcos_et_:     238.
          10    no_reason                gcos_et_:      22.
         213    no_restart               gcos_et_:     284.
         136    no_userid_prmfl_more     gcos_et_:     194.
          61    operator_kill_rqst       gcos_et_:     104.
          60    operator_term_rqst       gcos_et_:     102.
         137    oper_stop_rqst           gcos_et_:     196.
          44    op_not_complete_flt      gcos_et_:      78.
          31    other_mem_ioc_err        gcos_et_:      56.
         107    output_limit_exceeded    gcos_et_:     148.
         130    out_of_syot_stor         gcos_et_:     182.
          15    out_of_time              gcos_et_:      32.
          42    over_or_under_flow       gcos_et_:      74.
         225    past_codes               gcos_et_:      18.
         100    pat_full_from_more       gcos_et_:     134.
         103    pat_full_from_rout       gcos_et_:     140.
          20    pri_mailbox_err          gcos_et_:      38.
        1171    push_offset              stack_header:        81.
         221    record_too_long          gcos_et_:     296.
         220    rel_fibs_exceeded        gcos_et_:     294.
         224    request_too_big          gcos_et_:     302.
        1173    return_no_pop_offset     stack_header:        83.
        1172    return_offset            stack_header:        82.
         104    rmt_term_rec_size        gcos_et_:     142.
          67    save_file_full           gcos_et_:     116.
         160    scc_invld_for_line       gcos_et_:     230.
         157    scc_invld_for_user       gcos_et_:     228.
         155    secur_scc_invalid        gcos_et_:     224.
          12    ssa_mod_cksm_err         gcos_et_:      26.
          73    stach_header.trace_top_ptr     stack_header:        62.
          66    stack_header.assign_linkage_ptr      stack_header:        59.
          32    stack_header.bar_mode_sp       stack_header:        42.
          36    stack_header.call_op_ptr       stack_header:        44.
          10    stack_header.clr_ptr     stack_header:        27.
           6    stack_header.combined_stat_ptr       stack_header:        25.
           4    stack_header.cpm_data_ptr      stack_header:        24.
          13    stack_header.cpm_enabled       stack_header:        32.
          13    stack_header.cur_lot_size      stack_header:        31.
          64    stack_header.ect_ptr     stack_header:        58.
          46    stack_header.entry_op_ptr      stack_header:        49.
          70    stack_header.heap_header_ptr   stack_header:        60.
          74    stack_header.in_trace    stack_header:        63.
          52    stack_header.isot_ptr    stack_header:        52.
          26    stack_header.lot_ptr     gcos_et_:      18,
                                         stack_header:        39.
          12    stack_header.main_proc_invoked       stack_header:        29.
          12    stack_header.max_lot_size      stack_header:        28.
          20    stack_header.parent_ptr  stack_header:        36.
          34    stack_header.pl1_operators_ptr       stack_header:        43.
          40    stack_header.push_op_ptr       stack_header:        46.
          42    stack_header.return_op_ptr     stack_header:        47.
          44    stack_header.ret_no_pop_op_ptr       stack_header:        48.
          62    stack_header.rnt_ptr     stack_header:        57.
          12    stack_header.run_unit_depth    stack_header:        30.
          54    stack_header.sct_ptr     stack_header:        53.
          30    stack_header.signal_ptr  stack_header:        41.
          22    stack_header.stack_begin_ptr   stack_header:        37.
          24    stack_header.stack_end_ptr     stack_header:        38.
          14    stack_header.system_free_ptr   stack_header:        33.
          60    stack_header.sys_link_info_ptr       stack_header:        56.
          72    stack_header.trace_frames      stack_header:        61.
          50    stack_header.trans_op_tv_ptr   stack_header:        51.
          56    stack_header.unwinder_ptr      stack_header:        54.
          16    stack_header.user_free_ptr     stack_header:        34.
         100    stack_header_end         stack_header:        64.
         112    syot_alloc_err           gcos_et_:     154.
         115    syot_buffer_too_high     gcos_et_:     160.
         110    syot_rec_size_err        gcos_et_:     150.
         111    syot_seek_err            gcos_et_:     152.
         212    too_many_activs          gcos_et_:     282.
           0    trace_frames.count       stack_header:        69.
           1    trace_frames.top_ptr     stack_header:        70.
         122    tss_requested_term       gcos_et_:     170.
         551    tv_offset                stack_header:        75,   80,   81,   82,   83,   84.
          56    two_tdcws                gcos_et_:      98.
         200    unimp_mme                gcos_et_:     262.
         175    user_abort_request       gcos_et_:     256.
          76    zero_fc_to_more          gcos_et_:     130.
          72    zero_save_word_cnt       gcos_et_:     122.


NO FATAL ERRORS


                                          -----------------------------------------------------------


Historical Background

This edition of the Multics software materials and documentation is provided and donated
to Massachusetts Institute of Technology by Group BULL including BULL HN Information Systems Inc.
as a contribution to computer science knowledge.
This donation is made also to give evidence of the common contributions of Massachusetts Institute of Technology,
Bell Laboratories, General Electric, Honeywell Information Systems Inc., Honeywell BULL Inc., Groupe BULL
and BULL HN Information Systems Inc. to the development of this operating system.
Multics development was initiated by Massachusetts Institute of Technology Project MAC (1963-1970),
renamed the MIT Laboratory for Computer Science and Artificial Intelligence in the mid 1970s, under the leadership
of Professor Fernando Jose Corbato. Users consider that Multics provided the best software architecture
for managing computer hardware properly and for executing programs. Many subsequent operating systems
incorporated Multics principles.
Multics was distributed in 1975 to 2000 by Group Bull in Europe , and in the U.S. by Bull HN Information Systems Inc.,
as successor in interest by change in name only to Honeywell Bull Inc. and Honeywell Information Systems Inc. .

                                          -----------------------------------------------------------

Permission to use, copy, modify, and distribute these programs and their documentation for any purpose and without
fee is hereby granted,provided that the below copyright notice and historical background appear in all copies
and that both the copyright notice and historical background and this permission notice appear in supporting
documentation, and that the names of MIT, HIS, BULL or BULL HN not be used in advertising or publicity pertaining
to distribution of the programs without specific prior written permission.
    Copyright 1972 by Massachusetts Institute of Technology and Honeywell Information Systems Inc.
    Copyright 2006 by BULL HN Information Systems Inc.
    Copyright 2006 by Bull SAS
    All Rights Reserved
