ASSEMBLY LISTING OF SEGMENT >spec>on>7105>gfms_ascii_bcd_.alm
ASSEMBLED ON:	12/10/84  1136.5 mst Mon
OPTIONS USED:	list
ASSEMBLED BY:	ALM Version  6.6  November 1982
ASSEMBLER CREATED:	09/21/83  1227.3 mst Wed

                                     1  " ***********************************************************
                                     2  " *                                                         *
                                     3  " * Copyright, (C) Honeywell Information Systems Inc., 1982 *
                                     4  " *                                                         *
                                     5  " ***********************************************************
                                     6  "	ASCII to BCD conversion routine.
                                     7  "
                                     8  "	dcl	gfms_ascii_bcd_ entry(ptr,FB,ptr);
                                     9  "	Parm 1:	Pointer to (input) ascii string.
                                    10  "	Parm 2:	Length of (input) string.
                                    11  "	Parm 3:	Pointer to (output) bcd string.
                                    12  "		(caller must assure output string long enough).
                                    13  "
                                    14  "	Author:	Dave Ward		08/03/81
                                    15  "			(from gfms_ascii_bcd_)
                                    16  "
    000000                          17  	name	gfms_ascii_bcd_
                        000000      18  	entry	gfms_ascii_bcd_
                                    19
    000000                          20  gfms_ascii_bcd_:
    000000  aa  0 00002 3521 20     21  	eppbp	ap|2,*		bp -> input data
    000001  aa  2 00000 3521 20     22  	eppbp	bp|0,*
    000002  aa  0 00004 2351 20     23  	lda	ap|4,*		a = length
    000003  aa  0 00006 3535 20     24  	eppbb	ap|6,*		bb -> output buffer
    000004  aa  3 00000 3535 20     25  	eppbb	bb|0,*
                                    26
    000005  aa  0 00140 1605 40     27  	mvt	(pr,rl),(pr,rl)
    000006  aa   200000 000005      28  	desc9a	bp|0,al
    000007  aa   300000 020005      29  	desc6a	bb|0,al
    000010  0a   000012 0000 00     30  	arg	table
                                    31
    000011  aa  7 00044 7101 20     32  	short_return
                                    33
                                    34
    000012  aa   020020 020020      35  table:	oct	020020020020
    000013  aa   020020 020020      36  	oct	020020020020
    000014  aa   020020 020020      37  	oct	020020020020
    000015  aa   020020 020020      38  	oct	020020020020
    000016  aa   020020 020020      39  	oct	020020020020
    000017  aa   020020 020020      40  	oct	020020020020
    000020  aa   020020 020020      41  	oct	020020020020
    000021  aa   020020 020020      42  	oct	020020020020
    000022  aa   020077 076013      43  	oct	020077076013
    000023  aa   053074 032057      44  	oct	053074032057
    000024  aa   035055 054060      45  	oct	035055054060
    000025  aa   073052 033061      46  	oct	073052033061
    000026  aa   000001 002003      47  	oct	000001002003
    000027  aa   004005 006007      48  	oct	004005006007
    000030  aa   010011 015056      49  	oct	010011015056
    000031  aa   036075 016017      50  	oct	036075016017
    000032  aa   014021 022023      51  	oct	014021022023
    000033  aa   024025 026027      52  	oct	024025026027
    000034  aa   030031 041042      53  	oct	030031041042
    000035  aa   043044 045046      54  	oct	043044045046
    000036  aa   047050 051062      55  	oct	047050051062
    000037  aa   063064 065066      56  	oct	063064065066
    000040  aa   067070 071012      57  	oct	067070071012
    000041  aa   037034 040072      58  	oct	037034040072
    000042  aa   057021 022023      59  	oct	057021022023
    000043  aa   024025 026027      60  	oct	024025026027
    000044  aa   030031 041042      61  	oct	030031041042
    000045  aa   043044 045046      62  	oct	043044045046
    000046  aa   047050 051062      63  	oct	047050051062
    000047  aa   063064 065066      64  	oct	063064065066
    000050  aa   067070 071012      65  	oct	067070071012
    000051  aa   040034 020020      66  	oct	040034020020
                                    67
                                    68  	end
ENTRY SEQUENCES

    000052  5a   000012 0000 00
    000053  aa  7 00046 2721 20
    000054  0a   000000 7100 00

NO LITERALS

NAME DEFINITIONS FOR ENTRY POINTS AND SEGDEFS

    000056  5a   000003 000000
    000057  5a   000030 600000
    000060  aa   000000 000000
    000061  55   000012 000002
    000062  5a   000002 400003
    000063  55   000006 000012
    000064  aa  017 147 146 155
    000065  aa  163 137 141 163
    000066  aa  143 151 151 137
    000067  aa  142 143 144 137
    000070  55   000021 000003
    000071  0a   000053 500000
    000072  55   000015 000003
    000073  aa  017 147 146 155         gfms_ascii_bcd_
    000074  aa  163 137 141 163
    000075  aa  143 151 151 137
    000076  aa  142 143 144 137
    000077  55   000002 000012
    000100  6a   000000 400002
    000101  55   000024 000003
    000102  aa  014 163 171 155         symbol_table
    000103  aa  142 157 154 137
    000104  aa  164 141 142 154
    000105  aa  145 000 000 000

DEFINITIONS HASH TABLE

    000106  aa   000000 000015
    000107  aa   000000 000000
    000110  aa   000000 000000
    000111  aa   000000 000000
    000112  aa   000000 000000
    000113  aa   000000 000000
    000114  aa   000000 000000
    000115  5a   000021 000000
    000116  aa   000000 000000
    000117  aa   000000 000000
    000120  aa   000000 000000
    000121  aa   000000 000000
    000122  aa   000000 000000
    000123  5a   000012 000000

NO EXTERNAL NAMES

NO TRAP POINTER WORDS

TYPE PAIR BLOCKS

    000124  aa   000001 000000
    000125  aa   000000 000000

INTERNAL EXPRESSION WORDS

LINKAGE INFORMATION

    000000  aa   000000 000000
    000001  0a   000056 000000
    000002  aa   000000 000000
    000003  aa   000000 000000
    000004  aa   000000 000000
    000005  aa   000000 000000
    000006  22   000010 000010
    000007  a2   000000 000000
SYMBOL INFORMATION

SYMBOL TABLE HEADER

    000000  aa   000000 000001
    000001  aa   163171 155142
    000002  aa   164162 145145
    000003  aa   000000 000004
    000004  aa   000000 112143
    000005  aa   305203 523135
    000006  aa   000000 113224
    000007  aa   056173 150624
    000010  aa   141154 155040
    000011  aa   040040 040040
    000012  aa   000024 000040
    000013  aa   000034 000040
    000014  aa   000044 000100
    000015  aa   000002 000002
    000016  aa   000064 000000
    000017  aa   000000 000121
    000020  aa   000000 000103
    000021  aa   000000 000110
    000022  aa   000113 000103
    000023  aa   000064 000000
    000024  aa   101114 115040
    000025  aa   126145 162163
    000026  aa   151157 156040
    000027  aa   040066 056066
    000030  aa   040040 116157
    000031  aa   166145 155142
    000032  aa   145162 040061
    000033  aa   071070 062040
    000034  aa   107112 157150
    000035  aa   156163 157156
    000036  aa   056123 171163
    000037  aa   115141 151156
    000040  aa   164056 155040
    000041  aa   040040 040040
    000042  aa   040040 040040
    000043  aa   040040 040040
    000044  aa   154151 163164
    000045  aa   040040 040040
    000046  aa   040040 040040
    000047  aa   040040 040040
    000050  aa   040040 040040
    000051  aa   040040 040040
    000052  aa   040040 040040
    000053  aa   040040 040040
    000054  aa   040040 040040
    000055  aa   040040 040040
    000056  aa   040040 040040
    000057  aa   040040 040040
    000060  aa   040040 040040
    000061  aa   040040 040040
    000062  aa   040040 040040
    000063  aa   040040 040040
    000064  aa   000000 000001
    000065  aa   000000 000001
    000066  aa   000072 000041
    000067  aa   132233 022270
    000070  aa   000000 113224
    000071  aa   025564 600000
    000072  aa   076163 160145          >spec>on>7105>gfms_ascii_bcd_.alm
    000073  aa   143076 157156
    000074  aa   076067 061060
    000075  aa   065076 147146
    000076  aa   155163 137141
    000077  aa   163143 151151
    000100  aa   137142 143144
    000101  aa   137056 141154
    000102  aa   155040 040040
               MULTICS ASSEMBLY CROSS REFERENCE LISTING

   Value        Symbol                   Source file   Line number

           0    gfms_ascii_bcd_          gfms_ascii_bcd_:     18,   20.
          12    table                    gfms_ascii_bcd_:     30,   35.


NO FATAL ERRORS


                                          -----------------------------------------------------------


Historical Background

This edition of the Multics software materials and documentation is provided and donated
to Massachusetts Institute of Technology by Group BULL including BULL HN Information Systems Inc.
as a contribution to computer science knowledge.
This donation is made also to give evidence of the common contributions of Massachusetts Institute of Technology,
Bell Laboratories, General Electric, Honeywell Information Systems Inc., Honeywell BULL Inc., Groupe BULL
and BULL HN Information Systems Inc. to the development of this operating system.
Multics development was initiated by Massachusetts Institute of Technology Project MAC (1963-1970),
renamed the MIT Laboratory for Computer Science and Artificial Intelligence in the mid 1970s, under the leadership
of Professor Fernando Jose Corbato. Users consider that Multics provided the best software architecture
for managing computer hardware properly and for executing programs. Many subsequent operating systems
incorporated Multics principles.
Multics was distributed in 1975 to 2000 by Group Bull in Europe , and in the U.S. by Bull HN Information Systems Inc.,
as successor in interest by change in name only to Honeywell Bull Inc. and Honeywell Information Systems Inc. .

                                          -----------------------------------------------------------

Permission to use, copy, modify, and distribute these programs and their documentation for any purpose and without
fee is hereby granted,provided that the below copyright notice and historical background appear in all copies
and that both the copyright notice and historical background and this permission notice appear in supporting
documentation, and that the names of MIT, HIS, BULL or BULL HN not be used in advertising or publicity pertaining
to distribution of the programs without specific prior written permission.
    Copyright 1972 by Massachusetts Institute of Technology and Honeywell Information Systems Inc.
    Copyright 2006 by BULL HN Information Systems Inc.
    Copyright 2006 by Bull SAS
    All Rights Reserved
