ASSEMBLY LISTING OF SEGMENT >spec>on>7105>gtss_bcd_ascii_.alm
ASSEMBLED ON:	12/10/84  1137.1 mst Mon
OPTIONS USED:	list
ASSEMBLED BY:	ALM Version  6.6  November 1982
ASSEMBLER CREATED:	09/21/83  1227.3 mst Wed

                                     1  "  ***********************************************************
                                     2  "  *                                                         *
                                     3  "  *                                                         *
                                     4  "  * Copyright, (C) Honeywell Information Systems Inc., 1981 *
                                     5  "  *                                                         *
                                     6  "  *                                                         *
                                     7  "  ***********************************************************
                                     8
                                     9  "	bcd to ascii (upper case)
                                    10  "
                                    11  "	dcl gtss_bcd_ascii_ entry(ptr,fixed bin(24),ptr);
                                    12  "	Arguments:
                                    13  "		1. Pointer to input bcd characters (6 bit).
                                    14  "		2. Number of characters.
                                    15  "		3. Pointer to ascii output string.
                                    16  "
                                    17  "	Author:	Dave Ward		05/05/78
                                    18  "		From Mike Jordan's gdb_bcd_ascii_.alm
                                    19  "
    000000                          20  	name	gtss_bcd_ascii_
                        000000      21  	entry	gtss_bcd_ascii_
    000000                          22  gtss_bcd_ascii_:
    000000  aa  0 00002 3521 20     23  	eppbp	ap|2,*		bp->input data
    000001  aa  2 00000 3521 20     24  	eppbp	bp|0,*
    000002  aa  0 00004 2351 20     25  	lda	ap|4,*		get char count
    000003  aa  0 00006 3501 20     26  	eppap	ap|6,*		ap->output buffer
    000004  aa  0 00000 3501 20     27  	eppap	ap|0,*
    000005  aa  0 00140 1605 40     28  	mvt	(pr,rl),(pr,rl)
    000006  aa   200000 020005      29  	desc6a	bp|0,al
    000007  aa   000000 000005      30  	desc9a	ap|0,al
    000010  0a   000024 0000 00     31  	arg	upper
    000011  aa  7 00044 7101 20     32  	short_return
                                    33
                        000012      34  	entry	lc
    000012                          35  lc:
    000012  aa  0 00002 3521 20     36  	eppbp	ap|2,*		bp->input data
    000013  aa  2 00000 3521 20     37  	eppbp	bp|0,*
    000014  aa  0 00004 2351 20     38  	lda	ap|4,*		get char count
    000015  aa  0 00006 3501 20     39  	eppap	ap|6,*		ap->output buffer
    000016  aa  0 00000 3501 20     40  	eppap	ap|0,*
    000017  aa  0 00140 1605 40     41  	mvt	(pr,rl),(pr,rl)
    000020  aa   200000 020005      42  	desc6a	bp|0,al
    000021  aa   000000 000005      43  	desc9a	ap|0,al
    000022  0a   000044 0000 00     44  	arg	lower
    000023  aa  7 00044 7101 20     45  	short_return
                                    46
    000024  aa  060 061 062 063     47  upper:	aci	|0123456789[#@:>?|
    000025  aa  064 065 066 067
    000026  aa  070 071 133 043
    000027  aa  100 072 076 077
    000030  aa  040 101 102 103     48  	aci	| ABCDEFGHI&.](<\|
    000031  aa  104 105 106 107
    000032  aa  110 111 046 056
    000033  aa  135 050 074 134
    000034  aa  136 112 113 114     49  	aci	|^JKLMNOPQR-$*);'|
    000035  aa  115 116 117 120
    000036  aa  121 122 055 044
    000037  aa  052 051 073 047
    000040  aa  053 057 123 124     50  	aci	|+/STUVWXYZ_,%="!|
    000041  aa  125 126 127 130
    000042  aa  131 132 137 054
    000043  aa  045 075 042 041
                                    51
    000044  aa  060 061 062 063     52  lower:	aci	|0123456789[#@:>?|
    000045  aa  064 065 066 067
    000046  aa  070 071 133 043
    000047  aa  100 072 076 077
    000050  aa  040 141 142 143     53  	aci	| abcdefghi&.](<\|
    000051  aa  144 145 146 147
    000052  aa  150 151 046 056
    000053  aa  135 050 074 134
    000054  aa  136 152 153 154     54  	aci	|^jklmnopqr-$*);'|
    000055  aa  155 156 157 160
    000056  aa  161 162 055 044
    000057  aa  052 051 073 047
    000060  aa  053 057 163 164     55  	aci	|+/stuvwxyz_,%="!|
    000061  aa  165 166 167 170
    000062  aa  171 172 137 054
    000063  aa  045 075 042 041
                                    56  	end
ENTRY SEQUENCES

    000064  5a   000016 0000 00
    000065  aa  7 00046 2721 20
    000066  0a   000000 7100 00
    000067  5a   000012 0000 00
    000070  aa  7 00046 2721 20
    000071  0a   000012 7100 00

NO LITERALS

NAME DEFINITIONS FOR ENTRY POINTS AND SEGDEFS

    000072  5a   000003 000000
    000073  5a   000034 600000
    000074  aa   000000 000000
    000075  55   000012 000002
    000076  5a   000002 400003
    000077  55   000006 000012
    000100  aa  017 147 164 163
    000101  aa  163 137 142 143
    000102  aa  144 137 141 163
    000103  aa  143 151 151 137
    000104  55   000016 000003
    000105  0a   000070 500000
    000106  55   000015 000003
    000107  aa  002 154 143 000         lc
    000110  55   000025 000012
    000111  0a   000065 500000
    000112  55   000021 000003
    000113  aa  017 147 164 163         gtss_bcd_ascii_
    000114  aa  163 137 142 143
    000115  aa  144 137 141 163
    000116  aa  143 151 151 137
    000117  55   000002 000016
    000120  6a   000000 400002
    000121  55   000030 000003
    000122  aa  014 163 171 155         symbol_table
    000123  aa  142 157 154 137
    000124  aa  164 141 142 154
    000125  aa  145 000 000 000

DEFINITIONS HASH TABLE

    000126  aa   000000 000015
    000127  5a   000012 000000
    000130  aa   000000 000000
    000131  aa   000000 000000
    000132  aa   000000 000000
    000133  aa   000000 000000
    000134  aa   000000 000000
    000135  5a   000025 000000
    000136  aa   000000 000000
    000137  aa   000000 000000
    000140  aa   000000 000000
    000141  5a   000016 000000
    000142  aa   000000 000000
    000143  aa   000000 000000

NO EXTERNAL NAMES

NO TRAP POINTER WORDS

TYPE PAIR BLOCKS

    000144  aa   000001 000000
    000145  aa   000000 000000

INTERNAL EXPRESSION WORDS

LINKAGE INFORMATION

    000000  aa   000000 000000
    000001  0a   000072 000000
    000002  aa   000000 000000
    000003  aa   000000 000000
    000004  aa   000000 000000
    000005  aa   000000 000000
    000006  22   000010 000010
    000007  a2   000000 000000
SYMBOL INFORMATION

SYMBOL TABLE HEADER

    000000  aa   000000 000001
    000001  aa   163171 155142
    000002  aa   164162 145145
    000003  aa   000000 000004
    000004  aa   000000 112143
    000005  aa   305203 523135
    000006  aa   000000 113224
    000007  aa   056373 036764
    000010  aa   141154 155040
    000011  aa   040040 040040
    000012  aa   000024 000040
    000013  aa   000034 000040
    000014  aa   000044 000100
    000015  aa   000002 000002
    000016  aa   000064 000000
    000017  aa   000000 000122
    000020  aa   000000 000103
    000021  aa   000000 000111
    000022  aa   000114 000103
    000023  aa   000064 000000
    000024  aa   101114 115040
    000025  aa   126145 162163
    000026  aa   151157 156040
    000027  aa   040066 056066
    000030  aa   040040 116157
    000031  aa   166145 155142
    000032  aa   145162 040061
    000033  aa   071070 062040
    000034  aa   107112 157150
    000035  aa   156163 157156
    000036  aa   056123 171163
    000037  aa   115141 151156
    000040  aa   164056 155040
    000041  aa   040040 040040
    000042  aa   040040 040040
    000043  aa   040040 040040
    000044  aa   154151 163164
    000045  aa   040040 040040
    000046  aa   040040 040040
    000047  aa   040040 040040
    000050  aa   040040 040040
    000051  aa   040040 040040
    000052  aa   040040 040040
    000053  aa   040040 040040
    000054  aa   040040 040040
    000055  aa   040040 040040
    000056  aa   040040 040040
    000057  aa   040040 040040
    000060  aa   040040 040040
    000061  aa   040040 040040
    000062  aa   040040 040040
    000063  aa   040040 040040
    000064  aa   000000 000001
    000065  aa   000000 000001
    000066  aa   000072 000041
    000067  aa   132233 022436
    000070  aa   000000 113224
    000071  aa   026172 000000
    000072  aa   076163 160145          >spec>on>7105>gtss_bcd_ascii_.alm
    000073  aa   143076 157156
    000074  aa   076067 061060
    000075  aa   065076 147164
    000076  aa   163163 137142
    000077  aa   143144 137141
    000100  aa   163143 151151
    000101  aa   137056 141154
    000102  aa   155040 040040
               MULTICS ASSEMBLY CROSS REFERENCE LISTING

   Value        Symbol                   Source file   Line number

           0    gtss_bcd_ascii_          gtss_bcd_ascii_:     21,   22.
          12    lc                       gtss_bcd_ascii_:     34,   35.
          44    lower                    gtss_bcd_ascii_:     44,   52.
          24    upper                    gtss_bcd_ascii_:     31,   47.


NO FATAL ERRORS


                                          -----------------------------------------------------------


Historical Background

This edition of the Multics software materials and documentation is provided and donated
to Massachusetts Institute of Technology by Group BULL including BULL HN Information Systems Inc.
as a contribution to computer science knowledge.
This donation is made also to give evidence of the common contributions of Massachusetts Institute of Technology,
Bell Laboratories, General Electric, Honeywell Information Systems Inc., Honeywell BULL Inc., Groupe BULL
and BULL HN Information Systems Inc. to the development of this operating system.
Multics development was initiated by Massachusetts Institute of Technology Project MAC (1963-1970),
renamed the MIT Laboratory for Computer Science and Artificial Intelligence in the mid 1970s, under the leadership
of Professor Fernando Jose Corbato. Users consider that Multics provided the best software architecture
for managing computer hardware properly and for executing programs. Many subsequent operating systems
incorporated Multics principles.
Multics was distributed in 1975 to 2000 by Group Bull in Europe , and in the U.S. by Bull HN Information Systems Inc.,
as successor in interest by change in name only to Honeywell Bull Inc. and Honeywell Information Systems Inc. .

                                          -----------------------------------------------------------

Permission to use, copy, modify, and distribute these programs and their documentation for any purpose and without
fee is hereby granted,provided that the below copyright notice and historical background appear in all copies
and that both the copyright notice and historical background and this permission notice appear in supporting
documentation, and that the names of MIT, HIS, BULL or BULL HN not be used in advertising or publicity pertaining
to distribution of the programs without specific prior written permission.
    Copyright 1972 by Massachusetts Institute of Technology and Honeywell Information Systems Inc.
    Copyright 2006 by BULL HN Information Systems Inc.
    Copyright 2006 by Bull SAS
    All Rights Reserved
