	COMPILATION LISTING OF SEGMENT gtss_drl_koutn_
	Compiled by: Multics PL/I Compiler, Release 28d, of October 4, 1983
	Compiled at: Honeywell Multics Op. - System M
	Compiled on: 12/10/84  1237.2 mst Mon
	    Options: optimize map

        1 /* ***********************************************************
        2*   *                                                         *
        3*   *                                                         *
        4*   * Copyright, (C) Honeywell Information Systems Inc., 1981 *
        5*   *                                                         *
        6*   *                                                         *
        7*   *********************************************************** */
        8
        9 /* *************************************************************
       10*   *						   *
       11*   * Copyright (c) 1979 by Honeywell Information Systems, Inc. *
       12*   *						   *
       13*   ************************************************************* */
       14 gtss_drl_koutn_: proc (mcpp, increment);
       15
       16 /**	Terminal output then input.
       17*
       18*   Authors: Robert J. Grimes	Created
       19*   -	  Albert N. Kepner	  1978
       20*   -	  Robert M. May
       21*   -	  David B. Ward
       22*   Changed: Al Dupuis 05/08/79
       23*                              To have gtss_ext_$get_line called instead
       24*                              of iox_$get_line. Also bytes_read and code
       25*                              to match gtss_ext_'s declares.
       26*   Changed: Dave Ward	07/01/79 Long input lines.
       27*
       28**/
       29 dcl  mcpp                     ptr parm;
       30 dcl  increment                fixed bin parm;
       31 	mcp = mcpp;
       32 
       33 /*
       34*
       35*   DRL KOUTN, KEYBOARD OUTPUT THEN INPUT (octal 3)
       36*
       37*
       38*   8_________1_6_____________________
       39*
       40*   DRL      KOUTN
       41*   ZERO     L(tally),L(char)
       42*
       43*
       44*   This derail sends output to  the  keyboard  device  with  an
       45*   anticipated reply.  The L(tally) and L(char) fields are identical
       46*   to  those  for  the  KOUT  sequence.   In this case, however, the
       47*   Executive  adds  this  output  message  to  any  data  that   has
       48*   accumulated  in  the  keyboard  output  buffer and sends the data
       49*   directly to the keyboard device.  The transfer  of  data  differs
       50*   from  that for KOUT in that the line is left open for a response.
       51*   The response can be retrieved by means of DRL KIN.
       52*
       53**/
       54 
       55 	scup = addr (mc.scu);
       56
       57 /**	Print caller's data on terminal. **/
       58 	call gtss_drl_kotnow_ (mcp, increment);
       59
       60 /**	Refill remote i/o buffer with
       61*	terminal input line. (like build mode).
       62* **/
       63 reinput:	;
       64 	call gtss_ext_$get_line (iox_$user_input
       65 	     , addr (characters_transmitted)
       66 	     , min (gtss_ust.lrtll.char_length, hbound (characters_transmitted, 1))
       67 	     , bytes_read
       68 	     , code);
       69 	if code ^= 0 then do;
       70 	     if code = error_table_$long_record then do;
       71 		call iox_$control (
       72 		     iox_$user_input
       73 		     , "resetread"
       74 		     , null ()
       75 		     , code
       76 		     );
       77 dcl iox_$control entry (ptr, char (*), ptr, fixed bin (35));
       78 dcl  error_table_$long_record fixed bin (35) ext;
       79 dcl  iox_$user_output         ext ptr;
       80
       81 dcl  retry_message            char(21)static int options(constant)init("RETRANSMIT LAST LINE
       82 ");
       83 		call gtss_ext_$put_chars (		/* Print retry message. */
       84 		     iox_$user_output
       85 		     , addr (retry_message)
       86 		     , length (retry_message)
       87 		     , code);
       88 		goto reinput;
       89 	     end;
       90 	     call com_err_ (code, "gtss_drl_koutn_", "Terminal failure.");
       91 	     signal cond (gtss_fail);
       92 	end;
       93 	count_of_characters_transmitted = bytes_read;
       94 	number_words_transmitted =
       95 	     divide ((bytes_read+3), 4, 24, 0);
       96 	characters_transmitted (bytes_read) = CR;
       97
       98 	increment = 1;
       99 	gtss_ext_$last_k_was_out = "0"b;		/* Last tty i/o was not output. */
      100 	gtss_ust.lbuf.tally = "0"b;
      101 	return;
      102 
      103 /**	Variables for gtss_drl_koutn_:
      104*     IDENTIFIER		ATTRIBUTES	**/
      105 dcl  bytes_read               fixed bin (21);
      106 dcl  code                     fixed bin (35);
      107 dcl  gtss_fail                condition ext;
      108 dcl  iox_$user_input          ext ptr;
      109
      110 dcl
      111 	CR char (1) static int options(constant) init ("");
      112 
  1     1 /* BEGIN INCLUDE FILE gtss_ext_.incl.pl1 */
  1     2 /*
  1     3*  Created: (Wardd Multics)  05/20/78 1307.6 mst Sat
  1     4*  Modified: Ward            1981     add suspended_process dcl
  1     5*  Modified: Ron Barstad  83-07-21  Fixed level number on mcfc to 3
  1     6*  Modified: Ron Barstad  83-07-25  Fixed derail range in statistics to 4js3 number
  1     7**/
  1     8 dcl  gtss_ext_$aem                   fixed bin static ext	/* >0 Print "additional" error information. */;
  1     9 dcl  gtss_ext_$bad_drl_rtrn          static ext label	/* Default for drl_rtrn. */;
  1    10 dcl  gtss_ext_$db                    (72)bit(1)unal static ext;
  1    11 dcl  gtss_ext_$deferred_catalogs_ptr ptr ext;
  1    12 dcl  gtss_ext_$dispose_of_drl        static ext label	/* quit handlers for some derails use this label to abort */;
  1    13 dcl  gtss_ext_$drl_rtrn              (4)static ext label	/* where to return at subsystem end */;
  1    14 dcl  gtss_ext_$drm_path              char(168)static ext	/* gtss_expand_pathname_stores drm_path */;
  1    15 dcl  gtss_ext_$drun_jid              char (5) static ext	/* valid only for DRUN executing under absentee */;
  1    16 dcl  gtss_ext_$event_channel         fixed bin (71) static ext	/* used for DABT signals */;
  1    17 dcl  gtss_ext_$finished              static ext label	/* Return to gtss for normal conclusion. */;
  1    18 dcl  gtss_ext_$gdb_name              char(8)ext	/* Name H* module to debug. */;
  1    19 dcl  gtss_ext_$get_line              entry(ptr,ptr,fixed bin(21),fixed bin(21),fixed bin(35))variable ext /* Build mode input procedure. */;
  1    20 dcl  gtss_ext_$gtss_slave_area_seg   (4) ext static ptr	/* pointer to gtss slave area segment */;
  1    21 dcl  gtss_ext_$hcs_work_area_ptr     ptr ext static		/* Temp seg for acl lists. */;
  1    22 dcl  gtss_ext_$homedir               char (64) static ext /* user's home dir */;
  1    23 dcl  gtss_ext_$last_k_was_out        bit (1)aligned ext static	/* "1"b => last tty output was output. */;
  1    24 dcl  gtss_ext_$pdir                  char (168) varying ext static	/* pathname of process directory */;
  1    25 dcl  gtss_ext_$popup_from_pi         static ext label	/* transfer to this label after pi simulates popup primitive */;
  1    26 dcl  gtss_ext_$process_type          fixed bin (17) static ext;
  1    27 dcl  gtss_ext_$put_chars             entry(ptr,ptr,fixed bin(24),fixed bin(35)) variable ext	/* Terminal output procedure. */;
  1    28 dcl  gtss_ext_$restart_from_pi       static ext label	/* transfer to this label after pi restores machine conditions */;
  1    29 dcl  gtss_ext_$restart_seg_ptr       ptr static ext	/* points to DRUN restart file when exec under absentee */;
  1    30 dcl  gtss_ext_$sig_ptr               ext static ptr	/* saved ptr to signal_ */;
  1    31 dcl  gtss_ext_$stack_level_          fixed bin ext static;
  1    32 dcl  gtss_ext_$suspended_process     bit(1) ext static;
  1    33 dcl  gtss_ext_$SYstarstar_file_no    fixed bin (24) static ext;
  1    34 dcl  gtss_ext_$user_id               char (26)var ext;
  1    35 dcl  gtss_ext_$work_area_ptr         ptr ext;
  1    36
  1    37 dcl  1 gtss_ext_$CFP_bits aligned static external
  1    38      , 3 no_input_yet bit (1) unaligned         /* used in gtss_CFP_input_, gtss_read_starCFP_ */
  1    39      , 3 rtn_bits bit (4) unaligned             /* used in gtss_CFP_input_, gtss_CFP_output_ */
  1    40      , 3 cpos_called bit (1) unaligned          /* used in gtss_CFP_input_, gtss_drl_t_cfio_, gtss_abandon_CFP_ */
  1    41      , 3 cout_called bit (1) unaligned          /* used in gtss_read_starCFP_, gtss_abandon_CFP_ */
  1    42      , 3 build_mode bit (1) unaligned	        /* used in gtss_build_, gtss_dsd_process_ */
  1    43      ;
  1    44
  1    45 dcl 1 gtss_ext_$com_reg aligned static ext,
  1    46        3 tsdmx,
  1    47          4 dst fixed bin (18) unsigned unaligned,
  1    48          4 dit fixed bin (18) unsigned unaligned,
  1    49        3 tsdpt fixed bin (36) unsigned unaligned,
  1    50        3 tsddt fixed bin (36) unsigned unaligned,
  1    51        3 tsdid bit (72) unaligned,
  1    52        3 tsdsd bit (36) unaligned,
  1    53        3 tsdst fixed bin (36) unsigned unaligned,
  1    54        3 tsdjb fixed bin (35) unaligned,
  1    55        3 tsdgt,
  1    56          4 ust_loc fixed bin (18) unsigned unaligned,
  1    57          4 gating_ctl fixed bin (18) unsigned unaligned,
  1    58        3 tcdfr bit (36) unaligned;
  1    59
  1    60 dcl 1 gtss_ext_$flags aligned static ext
  1    61      , 3 dispose_of_drl_on_pi	bit (01) unal	/* 1 => drl that should be aborted after quit-pi sequence */
  1    62      , 3 drl_in_progress	bit (01) unal	/* 1 => drl handler executing; 0 => gcos code executing */
  1    63      , 3 popup_from_pi	bit (01) unal	/* 1 => derail processor will simulate Gcos break instead of returning */
  1    64      , 3 unfinished_drl	bit (01) unal	/* 1 => subsystem is handling breaks and quit was raised during a drl */
  1    65      , 3 ss_time_limit_set	bit (01) unal	/* 1 => exec time limit set for subsystem */
  1    66      , 3 timer_ranout	bit (01) unal	/* 1 => user is executing timer runout code */
  1    67      , 3 gtss_com_err_sw      bit (01) unal       /* 1 => stop com_err_ string from going to terminal */
  1    68      , 3 available		bit (65) unal
  1    69      ;
  1    70
  1    71
  1    72 dcl 1 gtss_ext_$statistics aligned static ext,		/* Derail usage statistics */
  1    73       3 total_time (-10:71)fixed bin (71),
  1    74       3 count (-10:71)fixed bin (17);
  1    75
  1    76 /* 	Declaration of Available File Table
  1    77*   */
  1    78 dcl 1 gtss_ext_$aft aligned ext,			/* aft structure */
  1    79
  1    80       3 start_list (0:102) fixed bin (24),		/* >0 => 1st aft_entry row to start of next entry chain. */
  1    81
  1    82       3 aft_entry (20),
  1    83         4 altname char (8),				/* altname name for attaching this file */
  1    84         4 next_entry fixed bin (24),			/* Next aft_entry in hash chain. */
  1    85         4 previous_add fixed bin (24),			/* Previously added entry. */
  1    86         4 next_add fixed bin (24),			/* Entry added after this one. */
  1    87         4 used bit (1) unal,				/* "1"b => aft_entry contains AFT value. */
  1    88         4 forced bit(1) unal,				/* "1"b => gtss_verify_access_ forced access on this file. */
  1    89
  1    90       3 free_space fixed bin (24),			/* Index of start of free space list for aft entries. */
  1    91       3 first_added fixed bin (24),			/* >0  => start of chain in add order. */
  1    92       3 last_added fixed bin (24)			/* >0 => end of chain in added order. */;
  1    93
  1    94 dcl  gtss_ext_$ppt                   ptr ext /*  switch name for tapein drl */;
  1    95 /**	Data structure to provide access to installed
  1    96*   subsystems fast library load.
  1    97*   **/
  1    98 dcl 1 gtss_ext_$fast_lib aligned ext
  1    99      , 3 fast_lib_fcb ptr				/* Pointer to msf fcb.	*/
  1   100      , 3 fast_lib_ncp fixed bin (24)			/* Number of components. */
  1   101      , 3 comp_ptr (0:9)ptr				/* Pointer to component. */
  1   102      , 3 comp_wds (0:9)fixed bin (24)			/* Component length (words). */
  1   103      ;
  1   104
  1   105 /* Pointers to segments to regulate multipler
  1   106*   callers to files. Same segments are used to regulate
  1   107*   all simulator callers.
  1   108**/
  1   109 dcl 1 gtss_ext_$mcfc	aligned ext,
  1   110       3 multics_lock_id	bit(36),
  1   111       3 wait_time		fixed bin,
  1   112       3 files_ptr		ptr,
  1   113       3 names_ptr		ptr,
  1   114       3 callers_ptr		(0:3)ptr
  1   115 ;
  1   116
  1   117 /*   END INCLUDE FILE gtss_ext_.incl.pl1 */
      113
      114 
  2     1 /* BEGIN INCLUDE FILE gtss_ust_ext_.incl.pl1 */
  2     2 /* UST: User Status Table
  2     3*   definitions based on
  2     4*   System Tables, Order number DD14-01E, January 1981
  2     5*   Section 15, Time Sharing System
  2     6*
  2     7*   Authors: Robert J. Grimes	Created
  2     8*   -	  Albert N. Kepner	  1978
  2     9*   -	  Robert M. May
  2    10*   -	  David B. Ward
  2    11*   Change:  Dave Ward	02/23/79 Level 4 numbering.
  2    12*   Change:  Ron Barstad  83-07-12 Repaired damaged formating and word offset comments
  2    13*                                  Brought up to 4JS3 functionality
  2    14**/
  2    15 /* octal word offsets of entries */
  2    16 dcl 1 gtss_ust_ext_$ust aligned ext,
  2    17       3 gtss_ust,
  2    18 /* 0-1  */	4 lid		bit (72),
  2    19 /* 2    */	4 lstp		bit (36),
  2    20 /* 3    */	4 ltin		bit (36),
  2    21 /* 4    */	4 lstio,
  2    22 			5 no_of_chars_by_8  fixed bin (18) uns unal,
  2    23 			5 no_of_disk_io     fixed bin (18) uns unal,
  2    24 /* 5    */	4 lsnub		bit (36),
  2    25 /* 6-7  */	4 lchg		bit (72),
  2    26 /* 10   */	4 lbuf,
  2    27 			5 address		bit (18)unaligned,
  2    28 			5 tally		bit (1)unaligned,
  2    29 			5 terminal_type	bit (5)unaligned,
  2    30 			5 station_id	bit (12)unaligned,
  2    31 /* 11-12 */	4 liost (0:1)	bit (36),
  2    32 /* 13   */	4 lcc		bit (36),
  2    33 /* 14   */	4 lback,
  2    34 			5 fill1		bit (18) unaligned,
  2    35 			5 gwake		fixed bin (17) unaligned,
  2    36 /* 15   */	4 lflag,
  2    37 			5 mp_list		bit (18) unaligned,
  2    38 			5 flags unaligned,
  2    39 				6 b18		bit (1) unaligned,
  2    40 				6 b19		bit (1) unaligned,
  2    41 				6 b20		bit (1) unaligned,
  2    42 				6 b21		bit (1) unaligned,
  2    43 				6 b22		bit (1) unaligned,
  2    44 				6 b23		bit (1) unaligned,
  2    45 				6 b24		bit (1) unaligned,
  2    46 				6 b25		bit (1) unaligned,
  2    47 				6 b26		bit (1) unaligned,
  2    48 				6 b27		bit (1) unaligned,
  2    49 				6 b28		bit (1) unaligned,
  2    50 				6 b29		bit (1) unaligned,
  2    51 				6 b30		bit (1) unaligned,
  2    52 				6 b31		bit (1) unaligned,
  2    53 				6 b32		bit (1) unaligned,
  2    54 				6 b33		bit (1) unaligned,
  2    55 				6 b34		bit (1) unaligned,
  2    56 				6 b35		bit (1) unaligned,
  2    57 /* 16   */	4 lkdss		bit (36),
  2    58 /* 17   */	4 lfile,
  2    59 			5 program_stack	fixed bin (17) unal,
  2    60 			5 file_list_ptr	bit (18) unal,
  2    61 /* 20   */	4 lttys		bit (36),
  2    62 /* 21   */	4 lswth,
  2    63 			5 b0		bit (1) unaligned,
  2    64 			5 b1		bit (1) unaligned,
  2    65 			5 b2		bit (1) unaligned,
  2    66 			5 b3		bit (1) unaligned,
  2    67 			5 b4		bit (1) unaligned,
  2    68 			5 b5		bit (1) unaligned,
  2    69 			5 b6		bit (1) unaligned,
  2    70 			5 b7		bit (1) unaligned,
  2    71 			5 b8		bit (1) unaligned,
  2    72 			5 b9		bit (1) unaligned,
  2    73 			5 b10		bit (1) unaligned,
  2    74 			5 b11		bit (1) unaligned,
  2    75 			5 b12		bit (1) unaligned,
  2    76 			5 b13		bit (1) unaligned,
  2    77 			5 b14		bit (1) unaligned,
  2    78 			5 b15		bit (1) unaligned,
  2    79 			5 b16		bit (1) unaligned,
  2    80 			5 b17		bit (1) unaligned,
  2    81 			5 b18		bit (1) unaligned,
  2    82 			5 b19		bit (1) unaligned,
  2    83 			5 b20		bit (1) unaligned,
  2    84 			5 b21		bit (1) unaligned,
  2    85 			5 b22		bit (1) unaligned,
  2    86 			5 b23		bit (1) unaligned,
  2    87 			5 b24		bit (1) unaligned,
  2    88 			5 b25		bit (1) unaligned,
  2    89 			5 b26		bit (1) unaligned,
  2    90 			5 b27		bit (1) unaligned,
  2    91 			5 b28		bit (1) unaligned,
  2    92 			5 b29		bit (1) unaligned,
  2    93 			5 b30		bit (1) unaligned,
  2    94 			5 b31		bit (1) unaligned,
  2    95 			5 b32		bit (1) unaligned,
  2    96 			5 b33		bit (1) unaligned,
  2    97 			5 b34		bit (1) unaligned,
  2    98 			5 b35		bit (1) unaligned,
  2    99 /* 22   */	4 lsize,
  2   100 			5 bar		fixed bin (17) unaligned,
  2   101 			5 limit		bit (18) unaligned,
  2   102 /* 23... */	4 lswap,
  2   103 			5 fill		bit (18) unal,
  2   104 			5 size		bit (18) unal,
  2   105 /* ...24 */	4 transfer_cell	bit (36) unal,
  2   106 /* 25   */	4 lerrm		bit (36),
  2   107 /* 26-37 */	4 lcfil (0:9)	bit (36),
  2   108 /* 40   */	4 lsybc,
  2   109 			5 b0_17		fixed bin (17) unaligned,
  2   110 			5 b18_35		fixed bin (17) unaligned,
  2   111 /* 41-42 */	4 lstem (0:1)	bit (36),
  2   112 /* 43    */	4 lcals,
  2   113 			5 b0_17		fixed bin (17) unaligned,
  2   114 			5 b18_35		bit (18) unaligned,
  2   115 /* 44-51 */	4 subsystems (3),
  2   116 			5 content_lswap,
  2   117 				6 fill		bit (18) unal,
  2   118 				6 size		bit (18) unal,
  2   119 			5 tally_address	fixed bin (17) unaligned,
  2   120 			5 ss_flags	bit (18) unaligned,
  2   121 /* 52   */	4 ltalc,
  2   122 			5 tod		fixed bin (17) unaligned,
  2   123 			5 startup		fixed bin (17) unaligned,
  2   124 /* 53   */	4 lspts		fixed bin (35),
  2   125 /* 54   */	4 lflg2,
  2   126 			5 b0		bit (1) unaligned,
  2   127 			5 b1		bit (1) unaligned,
  2   128 			5 b2		bit (1) unaligned,
  2   129 			5 b3		bit (1) unaligned,
  2   130 			5 b4		bit (1) unaligned,
  2   131 			5 b5		bit (1) unaligned,
  2   132 			5 b6		bit (1) unaligned,
  2   133 			5 b7		bit (1) unaligned,
  2   134 			5 b8		bit (1) unaligned,
  2   135 			5 b9		bit (1) unaligned,
  2   136 			5 b10		bit (1) unaligned,
  2   137 			5 b11		bit (1) unaligned,
  2   138 			5 b12		bit (1) unaligned,
  2   139 			5 b13		bit (1) unaligned,
  2   140 			5 b14		bit (1) unaligned,
  2   141 			5 b15		bit (1) unaligned,
  2   142 			5 b16		bit (1) unaligned,
  2   143 			5 b17		bit (1) unaligned,
  2   144 			5 b18		bit (1) unaligned,
  2   145 			5 b19		bit (1) unaligned,
  2   146 			5 b20		bit (1) unaligned,
  2   147 			5 b21		bit (1) unaligned,
  2   148 			5 b22		bit (1) unaligned,
  2   149 			5 b23		bit (1) unaligned,
  2   150 			5 b24		bit (1) unaligned,
  2   151 			5 b25		bit (1) unaligned,
  2   152 			5 b26		bit (1) unaligned,
  2   153 			5 b27		bit (1) unaligned,
  2   154 			5 b28		bit (1) unaligned,
  2   155 			5 b29		bit (1) unaligned,
  2   156 			5 b30		bit (1) unaligned,
  2   157 			5 b31		bit (1) unaligned,
  2   158 			5 b32		bit (1) unaligned,
  2   159 			5 b33		bit (1) unaligned,
  2   160 			5 b34		bit (1) unaligned,
  2   161 			5 b35		bit (1) unaligned,
  2   162 /* 55-60 */	4 lsftm (0:3)	bit (36),
  2   163 /* 61    */	4 lsprt		fixed bin (35),
  2   164 /* 62    */	4 ltrm		bit (36),
  2   165 /* 63    */	4 linno		fixed bin (35),
  2   166 /* 64    */	4 lincr		fixed bin (35),
  2   167 /* 65    */	4 ltdes		bit (36),
  2   168 /* 66    */	4 lbptr		bit (36),
  2   169 /* 67    */	4 lpptr,
  2   170 			5 last_file_pat_ptr	bin (18) uns unal,
  2   171 			5 lpptr_reserved	bin (18) uns unal,
  2   172 /* 70    */	4 lsclp		bit (36),
  2   173 /* 71    */	4 limit		fixed bin (35),
  2   174 /* 72    */	4 lacpt,
  2   175 			5 jout_pat_offset	bit (18) unal,
  2   176 			5 permissions unal,
  2   177 				6 lodx		bit (1) unal,
  2   178 				6 cardin		bit (1) unal,
  2   179 				6 talk		bit (1) unal,
  2   180 				6 lods		bit (1) unal,
  2   181 			5 cardin_urgency	bit (14) unal,
  2   182 /* 73    */	4 ldrl,
  2   183 			5 ilc		bit (18) unaligned,
  2   184 			5 code		fixed bin (17) unaligned,
  2   185 /* 74    */	4 ljsnb		bit (36),
  2   186 /* 75    */	4 ltm0		bit (36),
  2   187 /* 76    */	4 ltm1		bit (36),
  2   188 /* 77    */	4 ltm2		bit (36),
  2   189 /* 100   */	4 ltm3		bit (36),
  2   190 /* 101   */	4 ltm4		bit (36),
  2   191 /* 102   */	4 ltm5		bit (36),
  2   192 /* 103   */	4 ltmwt		bit (36),
  2   193 /* 104   */	4 ltmrs		bit (36),
  2   194 /* 105   */	4 ltc0		bit (36),
  2   195 /* 106   */	4 ltc1		bit (36),
  2   196 /* 107   */	4 ltc2		bit (36),
  2   197 /* 110   */	4 lct3		bit (36),
  2   198 /* 111   */	4 ltc4		bit (36),
  2   199 /* 112   */	4 ltc5		bit (36),
  2   200 /* 113   */	4 ltcw		bit (36),
  2   201 /* 114   */	4 lkst		bit (36),
  2   202 /* 115   */	4 lkst2		bit (36),
  2   203 /* 116   */	4 lkcc		bit (36),
  2   204 /* 117   */	4 lkms		bit (36),
  2   205 /* 120-121 */	4 lksdc (0:1)	bit (36),
  2   206 /* 122   */	4 lkntp		bit (36),
  2   207 /* 123   */	4 lkrdc		bit (36),
  2   208 /* 124   */	4 lpqf		bit (36),
  2   209 /* 125   */	4 lpqb		bit (36),
  2   210 /* 126   */	4 lustl		bit (36),
  2   211 /* 127   */	4 ltemp		bit (36),
  2   212 /* 130   */	4 lrtll,
  2   213 			5 word_length	fixed bin unaligned,
  2   214 			5 char_length	fixed bin unaligned,
  2   215 /* 131   */	4 ltim		bit (36),
  2   216 /* 132   */	4 lcfio,
  2   217 			5 sect_out	fixed bin(18)unsigned unal,
  2   218 			5 sect_in		fixed bin(18)unsigned unal,
  2   219 /* 133   */	4 lcfst,
  2   220 			5 initial_sect_out	fixed bin(18)unsigned unal,
  2   221 			5 start_term	fixed bin(18)unsigned unal,
  2   222 /* 134   */	4 lcmpt		bit (36),
  2   223 /* 135   */	4 lcjid		bit (36),
  2   224 /* 136-137 */	4 lrcal (0:1)	bit (36),
  2   225 /* 140   */	4 lrdta		bit (36),
  2   226 /* 141   */	4 lrrsk		bit (36),
  2   227 /* 142   */	4 lrskd		bit (36),
  2   228 /* 143   */	4 lrcc		bit (36),
  2   229 /* 144-145 */	4 lrsts (0:1)	bit (36),
  2   230 /* 146   */	4 lrtm		bit (36),
  2   231 /* 147   */	4 lswt2,
  2   232 			5 b0		bit (1) unaligned,
  2   233 			5 b1		bit (1) unaligned,
  2   234 			5 b2		bit (1) unaligned,
  2   235 			5 b3		bit (1) unaligned,
  2   236 			5 b4		bit (1) unaligned,
  2   237 			5 b5		bit (1) unaligned,
  2   238 			5 b6		bit (1) unaligned,
  2   239 			5 b7		bit (1) unaligned,
  2   240 			5 b8		bit (1) unaligned,
  2   241 			5 b9		bit (1) unaligned,
  2   242 			5 b10		bit (1) unaligned,
  2   243 			5 b11		bit (1) unaligned,
  2   244 			5 b12		bit (1) unaligned,
  2   245 			5 b13		bit (1) unaligned,
  2   246 			5 b14		bit (1) unaligned,
  2   247 			5 b15		bit (1) unaligned,
  2   248 			5 b16		bit (1) unaligned,
  2   249 			5 b17		bit (1) unaligned,
  2   250 			5 b18		bit (1) unaligned,
  2   251 			5 b19		bit (1) unaligned,
  2   252 			5 b20		bit (1) unaligned,
  2   253 			5 b21		bit (1) unaligned,
  2   254 			5 b22		bit (1) unaligned,
  2   255 			5 b23		bit (1) unaligned,
  2   256 			5 b24		bit (1) unaligned,
  2   257 			5 b25		bit (1) unaligned,
  2   258 			5 b26		bit (1) unaligned,
  2   259 			5 b27		bit (1) unaligned,
  2   260 			5 b28		bit (1) unaligned,
  2   261 			5 b29		bit (1) unaligned,
  2   262 			5 b30		bit (1) unaligned,
  2   263 			5 b31		bit (1) unaligned,
  2   264 			5 b32		bit (1) unaligned,
  2   265 			5 b33		bit (1) unaligned,
  2   266 			5 b34		bit (1) unaligned,
  2   267 			5 b35		bit (1) unaligned,
  2   268 /* 150   */	4 llsnb		bit (36),
  2   269 /* 151   */	4 lesq		bit (36),
  2   270 /* 152-153 */	4 lumc (0:1)	bit (36),
  2   271 /* 154-155 */	4 lfnam (0:1)	bit (36),
  2   272 /* 156   */	4 lopts		bit (36),
  2   273 /* 157   */	4 licec,
  2   274 			5 b0_17		bit (18) unaligned,
  2   275 			5 b18_35		fixed bin (17) unaligned,
  2   276 /* 160   */	4 lflg3,
  2   277 			5 b0		bit (1) unaligned,
  2   278 			5 b1		bit (1) unaligned,
  2   279 			5 b2		bit (1) unaligned,
  2   280 			5 b3		bit (1) unaligned,
  2   281 			5 b4		bit (1) unaligned,
  2   282 			5 b5		bit (1) unaligned,
  2   283 			5 b6		bit (1) unaligned,
  2   284 			5 b7		bit (1) unaligned,
  2   285 			5 b8		bit (1) unaligned,
  2   286 			5 b9		bit (1) unaligned,
  2   287 			5 b10		bit (1) unaligned,
  2   288 			5 b11		bit (1) unaligned,
  2   289 			5 b12		bit (1) unaligned,
  2   290 			5 b13		bit (1) unaligned,
  2   291 			5 b14		bit (1) unaligned,
  2   292 			5 b15		bit (1) unaligned,
  2   293 			5 b16		bit (1) unaligned,
  2   294 			5 b17		bit (1) unaligned,
  2   295 			5 b18		bit (1) unaligned,
  2   296 			5 b19		bit (1) unaligned,
  2   297 			5 b20		bit (1) unaligned,
  2   298 			5 b21		bit (1) unaligned,
  2   299 			5 b22		bit (1) unaligned,
  2   300 			5 b23		bit (1) unaligned,
  2   301 			5 b24		bit (1) unaligned,
  2   302 			5 b25		bit (1) unaligned,
  2   303 			5 b26		bit (1) unaligned,
  2   304 			5 b27		bit (1) unaligned,
  2   305 			5 b28		bit (1) unaligned,
  2   306 			5 b29		bit (1) unaligned,
  2   307 			5 b30		bit (1) unaligned,
  2   308 			5 b31		bit (1) unaligned,
  2   309 			5 b32		bit (1) unaligned,
  2   310 			5 b33		bit (1) unaligned,
  2   311 			5 b34		bit (1) unaligned,
  2   312 			5 b35		bit (1) unaligned,
  2   313 /* 161-163 */	4 lpage (0:2)	bit (36),
  2   314 /* 164   */	4 lsit1		bit (36),
  2   315 /* 165   */	4 lsit2		bit (36),
  2   316 /* 166   */	4 lsit3		bit (36),
  2   317 /* 167   */	4 lsit4		bit (36),
  2   318 /* The following entries are maintained by gtss and are not found in TSS UST */
  2   319 /* 170   */	4 lxxx, /* program stack index, offset from gtss_ust */
  2   320 			5 b0_17		fixed bin (17) unaligned,
  2   321 			5 b18_35		bit (18) unaligned, /* not used */
  2   322 /* 171-175 */	4 lprgs (5),
  2   323 			5 b0_17		fixed bin (17) unaligned,
  2   324 			5 b18_35		fixed bin (17) unaligned,
  2   325 /* 176   */	4 fill	bit (36),
  2   326 /* 177   */	4 remote_io_buffer aligned,
  2   327 			5 buffer_control_word,
  2   328 				6 current_line_pointer  bit (18)unal,
  2   329 				6 buffer_threshold_address  bit (18)unal,
  2   330 			5 number_words_transmitted	fixed bin (17)unal,
  2   331 			5 FILL1			fixed bin (17)unal,
  2   332 			5 count_of_characters_transmitted fixed bin (17)unal,
  2   333 			5 FILL2			fixed bin (17)unal,
  2   334 			5 characters_transmitted (244) char (1) unal,
  2   335 /* 277   */	4 word_after_ust		bit (36) aligned;
  2   336
  2   337 /*   END INCLUDE FILE gtss_ust_ext_.incl.pl1 */
      115
      116 
  3     1 /*  */
  3     2 /* BEGIN INCLUDE FILE  mc.incl.pl1   Created Dec 72 for 6180 - WSS. */
  3     3 /* Modified 06/07/76 by Greenberg for mc.resignal */
  3     4 /* Modified 07/07/76 by Morris for fault register data */
  3     5 /* Modified 08/28/80 by J. A. Bush for the DPS8/70M CVPU */
  3     6 /* Modified '82 to make values constant */
  3     7
  3     8 /* words 0-15 pointer registers */
  3     9
  3    10 dcl  mcp ptr;
  3    11
  3    12 dcl 1 mc based (mcp) aligned,
  3    13     2 prs (0:7) ptr,				/* POINTER  REGISTERS */
  3    14    (2 regs,					/* registers */
  3    15       3 x (0:7) bit (18),				/* index registers */
  3    16       3 a bit (36),					/* accumulator */
  3    17       3 q bit (36),					/* q-register */
  3    18       3 e bit (8),					/* exponent */
  3    19       3 pad1 bit (28),
  3    20       3 t bit (27),					/* timer register */
  3    21       3 pad2 bit (6),
  3    22       3 ralr bit (3),				/* ring alarm register */
  3    23
  3    24     2 scu (0:7) bit (36),
  3    25
  3    26     2 mask bit (72),				/* mem controller mask at time of fault */
  3    27     2 ips_temp bit (36),				/* Temporary storage for IPS info */
  3    28     2 errcode fixed bin (35),				/* fault handler's error code */
  3    29     2 fim_temp,
  3    30       3 unique_index bit (18) unal,			/* unique index for restarting faults */
  3    31       3 resignal bit (1) unal,			/* recompute signal name with fcode below */
  3    32       3 fcode bit (17) unal,				/* fault code used as index to FIM table and SCT */
  3    33     2 fault_reg bit (36),				/* fault register */
  3    34     2 pad2 bit (1),
  3    35     2 cpu_type fixed bin (2) unsigned,			/* L68 = 0, DPS8/70M = 1 */
  3    36     2 ext_fault_reg bit (15),				/* extended fault reg for DPS8/70M CPU */
  3    37     2 fault_time bit (54),				/* time of fault */
  3    38
  3    39     2 eis_info (0:7) bit (36)) unaligned;
  3    40
  3    41
  3    42 dcl (apx fixed bin init (0),
  3    43      abx fixed bin init (1),
  3    44      bpx fixed bin init (2),
  3    45      bbx fixed bin init (3),
  3    46      lpx fixed bin init (4),
  3    47      lbx fixed bin init (5),
  3    48      spx fixed bin init (6),
  3    49      sbx fixed bin init (7)) internal static options (constant);
  3    50
  3    51
  3    52 
  3    53
  3    54 dcl  scup ptr;
  3    55
  3    56 dcl 1 scu based (scup) aligned,			/* SCU DATA */
  3    57
  3    58
  3    59 /*	WORD (0)		*/
  3    60
  3    61    (2 ppr,					/* PROCEDURE POINTER REGISTER */
  3    62       3 prr bit (3),				/* procedure ring register */
  3    63       3 psr bit (15),				/* procedure segment register */
  3    64       3 p bit (1),					/* procedure privileged bit */
  3    65
  3    66     2 apu,					/* APPENDING UNIT STATUS */
  3    67       3 xsf bit (1),				/* ext seg flag - IT modification */
  3    68       3 sdwm bit (1),				/* match in SDW Ass. Mem. */
  3    69       3 sd_on bit (1),				/* SDW Ass. Mem.  ON */
  3    70       3 ptwm bit (1),				/* match in PTW Ass. Mem. */
  3    71       3 pt_on bit (1),				/* PTW Ass. Mem.  ON */
  3    72       3 pi_ap bit (1),				/* Instr Fetch or Append cycle */
  3    73       3 dsptw bit (1),				/* Fetch of DSPTW */
  3    74       3 sdwnp bit (1),				/* Fetch of SDW non paged */
  3    75       3 sdwp bit (1),				/* Fetch of SDW paged */
  3    76       3 ptw bit (1),				/* Fetch of PTW */
  3    77       3 ptw2 bit (1),				/* Fetch of pre-paged PTW */
  3    78       3 fap bit (1),				/* Fetch of final address paged */
  3    79       3 fanp bit (1),				/* Fetch of final address non-paged */
  3    80       3 fabs bit (1),				/* Fetch of final address absolute */
  3    81
  3    82     2 fault_cntr bit (3),				/* number of retrys of EIS instructions */
  3    83
  3    84
  3    85 /*	WORD (1)		*/
  3    86
  3    87     2 fd,						/* FAULT  DATA */
  3    88       3 iro bit (1),				/* illegal ring order */
  3    89       3 oeb bit (1),				/* out of execute bracket */
  3    90       3 e_off bit (1),				/* no execute */
  3    91       3 orb bit (1),				/* out of read bracket */
  3    92       3 r_off bit (1),				/* no read */
  3    93       3 owb bit (1),				/* out of write bracket */
  3    94       3 w_off bit (1),				/* no write */
  3    95       3 no_ga bit (1),				/* not a gate */
  3    96       3 ocb bit (1),				/* out of call bracket */
  3    97       3 ocall bit (1),				/* outward call */
  3    98       3 boc bit (1),				/* bad outward call */
  3    99       3 inret bit (1),				/* inward return */
  3   100       3 crt bit (1),				/* cross ring transfer */
  3   101       3 ralr bit (1),				/* ring alarm register */
  3   102       3 am_er bit (1),				/* associative memory fault */
  3   103       3 oosb bit (1),				/* out of segment bounds */
  3   104       3 paru bit (1),				/* processor parity upper */
  3   105       3 parl bit (1),				/* processor parity lower */
  3   106       3 onc_1 bit (1),				/* op not complete type 1 */
  3   107       3 onc_2 bit (1),				/* op not complete type 2 */
  3   108
  3   109     2 port_stat,					/* PORT  STATUS */
  3   110       3 ial bit (4),				/* illegal action lines */
  3   111       3 iac bit (3),				/* illegal action channel */
  3   112       3 con_chan bit (3),				/* connect channel */
  3   113
  3   114     2 fi_num bit (5),				/* (fault/interrupt)  number */
  3   115     2 fi_flag bit (1),				/*  1 => fault,  0 => interrupt  */
  3   116
  3   117
  3   118 /*	WORD (2)		*/
  3   119
  3   120     2 tpr,					/* TEMPORARY POINTER REGISTER */
  3   121       3 trr bit (3),				/* temporary ring register */
  3   122       3 tsr bit (15),				/* temporary segment register */
  3   123
  3   124     2 pad2 bit (9),
  3   125
  3   126     2 cpu_no bit (3),				/* CPU number */
  3   127
  3   128     2 delta bit (6),				/* tally modification DELTA */
  3   129
  3   130
  3   131 /*	WORD (3)		*/
  3   132
  3   133     2 word3 bit (18),
  3   134
  3   135     2 tsr_stat,					/* TSR STATUS for 1,2,&3 word instructions */
  3   136       3 tsna,					/* Word 1 status */
  3   137         4 prn bit (3),				/* Word 1  PR  number */
  3   138         4 prv bit (1),				/* Word 1  PR  valid bit */
  3   139       3 tsnb,					/* Word 2  status */
  3   140         4 prn bit (3),				/* Word 2  PR  number */
  3   141         4 prv bit (1),				/* Word 2  PR  valid bit */
  3   142       3 tsnc,					/* Word 3  status */
  3   143         4 prn bit (3),				/* Word 3  PR  number */
  3   144         4 prv bit (1),				/* Word 3  PR  valid bit */
  3   145
  3   146     2 tpr_tbr bit (6),				/* TPR.TBR  field */
  3   147
  3   148
  3   149 /* 	WORD (4)		*/
  3   150
  3   151     2 ilc bit (18),					/* INSTRUCTION  COUNTER */
  3   152
  3   153     2 ir,						/* INDICATOR  REGISTERS */
  3   154       3 zero bit (1),				/* zero indicator */
  3   155       3 neg bit (1),				/* negative indicator */
  3   156       3 carry bit (1),				/* carryry indicator */
  3   157       3 ovfl bit (1),				/* overflow indicator */
  3   158       3 eovf bit (1),				/* eponent overflow */
  3   159       3 eufl bit (1),				/* exponent underflow */
  3   160       3 oflm bit (1),				/* overflow mask */
  3   161       3 tro bit (1),				/* tally runout */
  3   162       3 par bit (1),				/* parity error */
  3   163       3 parm bit (1),				/* parity mask */
  3   164       3 bm bit (1),					/* ^bar mode */
  3   165       3 tru bit (1),				/* truncation mode */
  3   166       3 mif bit (1),				/* multi-word instruction mode */
  3   167       3 abs bit (1),				/* absolute mode */
  3   168       3 hex bit (1),				/* hexadecimal exponent mode */
  3   169       3 pad bit (3),
  3   170
  3   171
  3   172 /*	WORD (5)		*/
  3   173
  3   174     2 ca bit (18),					/* COMPUTED  ADDRESS */
  3   175
  3   176     2 cu,						/* CONTROL UNIT STATUS */
  3   177       3 rf bit (1),					/* on first cycle of repeat instr */
  3   178       3 rpt bit (1),				/* repeat instruction */
  3   179       3 rd bit (1),					/* repeat double instruction */
  3   180       3 rl bit (1),					/* repeat link instruciton */
  3   181       3 pot bit (1),				/* IT  modification */
  3   182       3 pon bit (1),				/* return type instruction */
  3   183       3 xde bit (1),				/* XDE from Even location */
  3   184       3 xdo bit (1),				/* XDE from Odd  location */
  3   185       3 poa bit (1),				/* operation preparation */
  3   186       3 rfi bit (1),				/* tells CPU to refetch instruction */
  3   187       3 its bit (1),				/* ITS modification */
  3   188       3 if bit (1),					/* fault occured during instruction fetch */
  3   189
  3   190     2 cpu_tag bit (6)) unaligned,			/* computed tag field */
  3   191
  3   192
  3   193 /*	WORDS (6,7)	*/
  3   194
  3   195     2 even_inst bit (36),				/* even instruction of faulting pair */
  3   196
  3   197     2 odd_inst bit (36);				/* odd  instruction of faulting pair */
  3   198
  3   199
  3   200
  3   201
  3   202
  3   203
  3   204 /*	ALTERNATE   SCU  DECLARATION		*/
  3   205
  3   206
  3   207 dcl 1 scux based (scup) aligned,
  3   208
  3   209    (2 pad0 bit (36),
  3   210
  3   211     2 fd,						/* GROUP II  FAULT DATA */
  3   212       3 isn bit (1),				/* illegal segment number */
  3   213       3 ioc bit (1),				/* illegal op  code  */
  3   214       3 ia_am bit (1),				/* illegal address - modifier */
  3   215       3 isp bit (1),				/* illegal slave  procedure */
  3   216       3 ipr bit (1),				/* illegal procedure */
  3   217       3 nea bit (1),				/* non existent address */
  3   218       3 oobb bit (1),				/* out of bounds */
  3   219       3 pad bit (29),
  3   220
  3   221     2 pad2 bit (36),
  3   222
  3   223     2 pad3a bit (18),
  3   224
  3   225     2 tsr_stat (0:2),				/* TSR  STATUS  as an  ARRAY */
  3   226       3 prn bit (3),				/* PR  number */
  3   227       3 prv bit (1),				/* PR  valid bit */
  3   228
  3   229     2 pad3b bit (6)) unaligned,
  3   230
  3   231     2 pad45 (0:1) bit (36),
  3   232
  3   233     2 instr (0:1) bit (36);				/* Instruction ARRAY */
  3   234
  3   235
  3   236
  3   237 /*  END INCLUDE FILE   mc.incl.pl1 */
      117
      118 
  4     1 /* BEGIN INCLUDE FILE gtss_entry_dcls.incl.pl1 */
  4     2 /*
  4     3*  Created: (Wardd Multics)  06/30/78 1624.8 mst Fri
  4     4*  Modified: Ron Barstad  84-02-24  Fixed wrong and obsolete entries
  4     5**/
  4     6
  4     7 /**  gtss external entry variables.		**/
  4     8 dcl  com_err_                                   entry() options(variable);
  4     9 dcl  gtss_CFP_abort_                            entry options(variable);
  4    10 dcl  gtss_CFP_break_                            entry options(variable);
  4    11 dcl  gtss_CFP_input_                            entry (ptr, ptr, fixed bin(21), fixed bin(21), fixed bin(35));
  4    12 dcl  gtss_CFP_output_                           entry (ptr, ptr, fixed bin(21), fixed bin(35));
  4    13 dcl  gtss_abandon_CFP_                          entry options(variable);
  4    14 dcl  gtss_abort_dump_                           entry (fixed bin(18));
  4    15 dcl  gtss_abort_subsystem_                      entry options (variable);
  4    16 dcl  gtss_abort_subsystem_$not_imp              entry (ptr, fixed bin(24));
  4    17 dcl  gtss_abs_login_banner_		        entry() returns(char(*));
  4    18 dcl  gtss_abs_logout_banner_		        entry() returns(char(*));
  4    19 dcl  gtss_abs_$abs_equiv                        entry options(variable);
  4    20 dcl  gtss_abs_$cpu_runout		        entry (ptr, char(4));
  4    21 dcl  gtss_abs_$create_absin                     entry() returns(char(*));
  4    22 dcl  gtss_abs_$dabt_check		        entry (ptr, char(4));
  4    23 dcl  gtss_abs_$get_id                           entry (char(5)) returns(char(19));
  4    24 dcl  gtss_abs_$get_drm                          entry() returns(char(*));
  4    25 dcl  gtss_adjust_size_                          entry (ptr);
  4    26 dcl  gtss_aft_$add                              entry (char(8), fixed bin(24), fixed bin(35));
  4    27 dcl  gtss_aft_$delete                           entry (char(8), fixed bin(24), fixed bin(35));
  4    28 dcl  gtss_aft_$find                             entry (char(8), fixed bin(24), fixed bin(35));
  4    29 dcl  gtss_aft_$initialize                       entry (fixed bin(35));
  4    30 dcl  gtss_ascii_bcd_                            entry (ptr, fixed bin, ptr);
  4    31 dcl  gtss_attributes_mgr_$get                   entry (ptr, fixed bin(35));
  4    32 dcl  gtss_attributes_mgr_$set                   entry (ptr, fixed bin(35));
  4    33 dcl  gtss_bcd_ascii_                            entry (ptr, fixed bin(24), ptr);
  4    34 dcl  gtss_bcd_ascii_$lc                         entry (ptr, fixed bin(24), ptr);
  4    35 dcl  gtss_break_vector_                         entry ();
  4    36 dcl  gtss_break_vector_$drl_in_progress         entry() returns(bit(1));
  4    37 dcl  gtss_break_vector_$status                  entry() returns(bit(1));
  4    38 dcl  gtss_build_                                entry options(variable);
  4    39 dcl  gtss_com_err_                              entry options(variable);
  4    40 dcl  gtss_derail_processor_                     entry (ptr, char(*), ptr, ptr, bit(1) aligned) /* called at fault time instead of signal_ */;
  4    41 dcl  gtss_derail_processor_$set                 entry options(variable);
  4    42 dcl  gtss_dq_$catp                              entry (char (5), ptr, fixed bin (18) unsigned);
  4    43 dcl  gtss_dq_$create                            entry (bit(1));
  4    44 dcl  gtss_dq_$dibp                              entry (char(5), ptr);
  4    45 dcl  gtss_dq_$entries_info		        entry (ptr, fixed bin (18) unsigned, fixed bin (18) unsigned);
  4    46 dcl  gtss_dq_$hdrp                              entry (ptr);
  4    47 dcl  gtss_dq_$mod_js		        entry (char(5), fixed bin (6) unsigned, bit (1));
  4    48 dcl  gtss_dq_$open_exc		        entry (bit(1));
  4    49 dcl  gtss_dq_$open_gen		        entry (bit(1));
  4    50 dcl  gtss_drl_abort_                            entry (ptr, fixed bin);
  4    51 dcl  gtss_drl_addmem_                           entry (ptr, fixed bin);
  4    52 dcl  gtss_drl_callss_                           entry (ptr, fixed bin);
  4    53 dcl  gtss_drl_corfil_                           entry (ptr, fixed bin);
  4    54 dcl  gtss_drl_defil_                            entry (ptr, fixed bin);
  4    55 dcl  gtss_drl_defil_$subr                       entry (ptr, ptr, ptr);
  4    56 dcl  gtss_drl_dio_                              entry (ptr, fixed bin);
  4    57 dcl  gtss_drl_drlimt_                           entry (ptr, fixed bin);
  4    58 dcl  gtss_drl_drlsav_                           entry (ptr, fixed bin);
  4    59 dcl  gtss_drl_filact_                           entry (ptr, fixed bin);
  4    60 dcl  gtss_drl_filsp_                            entry (ptr, fixed bin);
  4    61 dcl  gtss_drl_grow_                             entry (ptr, fixed bin);
  4    62 dcl  gtss_drl_gwake_                            entry (ptr, fixed bin);
  4    63 dcl  gtss_drl_jsts_                             entry (ptr, fixed bin);
  4    64 dcl  gtss_drl_kin_                              entry (ptr, fixed bin);
  4    65 dcl  gtss_drl_kotnow_                           entry (ptr, fixed bin);
  4    66 dcl  gtss_drl_kotnow_$gtss_drl_kout_            entry (ptr, fixed bin);
  4    67 dcl  gtss_drl_koutn_                            entry (ptr, fixed bin);
  4    68 dcl  gtss_drl_morlnk_                           entry (ptr, fixed bin);
  4    69 dcl  gtss_drl_msub_                             entry (ptr, fixed bin);
  4    70 dcl  gtss_drl_objtim_                           entry (ptr, fixed bin);
  4    71 dcl  gtss_drl_part_                             entry (ptr, fixed bin);
  4    72 dcl  gtss_drl_pasaft_                           entry (ptr, fixed bin);
  4    73 dcl  gtss_drl_pasdes_                           entry (ptr, fixed bin);
  4    74 dcl  gtss_drl_pasust_                           entry (ptr, fixed bin);
  4    75 dcl  gtss_drl_pdio_                             entry (ptr, fixed bin);
  4    76 dcl  gtss_drl_prgdes_                           entry (ptr, fixed bin);
  4    77 dcl  gtss_drl_pseudo_                           entry (ptr, fixed bin);
  4    78 dcl  gtss_drl_relmem_                           entry (ptr, fixed bin);
  4    79 dcl  gtss_drl_restor_                           entry (ptr, fixed bin);
  4    80 dcl  gtss_drl_retfil_                           entry (ptr, fixed bin);
  4    81 dcl  gtss_drl_return_                           entry (ptr, fixed bin);
  4    82 dcl  gtss_drl_rew_                              entry (ptr, fixed bin);
  4    83 dcl  gtss_drl_rstswh_                           entry (ptr, fixed bin);
  4    84 dcl  gtss_drl_setlno_                           entry (ptr, fixed bin);
  4    85 dcl  gtss_drl_setswh_                           entry (ptr, fixed bin);
  4    86 dcl  gtss_drl_snumb_                            entry (ptr, fixed bin);
  4    87 dcl  gtss_drl_spawn_                            entry (ptr, fixed bin);
  4    88 dcl  gtss_drl_spawn_$gtss_drl_pasflr_           entry (ptr, fixed bin);
  4    89 dcl  gtss_drl_stoppt_                           entry (ptr, fixed bin);
  4    90 dcl  gtss_drl_switch_                           entry (ptr, fixed bin);
  4    91 dcl  gtss_drl_sysret_                           entry (ptr, fixed bin);
  4    92 dcl  gtss_drl_t_cfio_                           entry (ptr, fixed bin);
  4    93 dcl  gtss_drl_t_cmov_                           entry (ptr, fixed bin);
  4    94 dcl  gtss_drl_t_err_                            entry (ptr, fixed bin);
  4    95 dcl  gtss_drl_t_goto_                           entry (ptr, fixed bin);
  4    96 dcl  gtss_drl_t_linl_                           entry (ptr, fixed bin);
  4    97 dcl  gtss_drl_t_rscc_                           entry (ptr, fixed bin);
  4    98 dcl  gtss_drl_tapein_                           entry (ptr, fixed bin);
  4    99 dcl  gtss_drl_task_                             entry (ptr, fixed bin);
  4   100 dcl  gtss_drl_termtp_                           entry (ptr, fixed bin);
  4   101 dcl  gtss_drl_time_                             entry (ptr, fixed bin);
  4   102 dcl  gtss_drun_                                 entry (bit(1));
  4   103 dcl  gtss_dsd_lookup_                           entry (char(8) var) returns(fixed bin(24));
  4   104 dcl  gtss_dsd_process_                          entry (ptr, ptr, fixed bin(21), fixed bin(21), fixed bin(35));
  4   105 dcl  gtss_edit_dsd_                             entry (ptr, fixed bin(21)) returns(fixed bin(24));
  4   106 dcl  gtss_mcfc_empty                            entry (char(*) var);
  4   107 dcl  gtss_expand_pathname_                      entry (ptr, char(*), char(*), fixed bin(35));
  4   108 dcl  gtss_expand_pathname_$verify_umc           entry (ptr, char(*), char(*), bit(18), fixed bin(35));
  4   109 dcl  gtss_fault_processor_                      entry options(variable);
  4   110 dcl  gtss_find_cond_frame_		        entry (char(32) var) returns(ptr);
  4   111 dcl  gtss_fault_processor_$timer_runout         entry (ptr, char(*));
  4   112 dcl  gtss_filact_error_status_                  entry (fixed bin(35))returns(bit(12));
  4   113 dcl  gtss_filact_funct02_                       entry (ptr, bit(18), ptr, ptr, ptr, fixed bin(35));
  4   114 dcl  gtss_filact_funct03_                       entry (ptr, bit(18), ptr, ptr, ptr, fixed bin(35));
  4   115 dcl  gtss_filact_funct04_                       entry (ptr, bit(18), ptr, ptr, ptr, fixed bin(35));
  4   116 dcl  gtss_filact_funct05_                       entry (ptr, bit(18), ptr, ptr, ptr, fixed bin(35));
  4   117 dcl  gtss_filact_funct08_                       entry (ptr, bit(18), ptr, ptr, ptr, fixed bin(35));
  4   118 dcl  gtss_filact_funct10_                       entry (ptr, bit(18), ptr, ptr, ptr, fixed bin(35));
  4   119 dcl  gtss_filact_funct11_                       entry (ptr, bit(18), ptr, ptr, ptr, fixed bin(35));
  4   120 dcl  gtss_filact_funct14_                       entry (ptr, bit(18), ptr, ptr, ptr, fixed bin(35));
  4   121 dcl  gtss_filact_funct18_                       entry (ptr, bit(18), ptr, ptr, ptr, fixed bin(35));
  4   122 dcl  gtss_filact_funct19_                       entry (ptr, bit(18), ptr, ptr, ptr, fixed bin(35));
  4   123 dcl  gtss_filact_funct21_                       entry (ptr, bit(18), ptr, ptr, ptr, fixed bin(35));
  4   124 dcl  gtss_filact_funct22_                       entry (ptr, bit(18), ptr, ptr, ptr, fixed bin(35));
  4   125 dcl  gtss_mcfc_init_                            entry (char(*) var);
  4   126 dcl  gtss_interp_prim_                          entry options(variable);
  4   127 dcl  gtss_interp_prim_$callss                   entry (char(4), ptr);
  4   128 dcl  gtss_interp_prim_$sysret                   entry options(variable);
  4   129 dcl  gtss_interp_prim_$t_goto                   entry (char(4));
  4   130 dcl  gtss_ios_change_size_                      entry (fixed bin(24), fixed bin(24), bit(1), fixed bin(24), fixed bin(35));
  4   131 dcl  gtss_ios_close_                            entry (fixed bin(24), ptr, fixed bin(35));
  4   132 dcl  gtss_ios_exchange_names_                   entry (fixed bin(24), fixed bin(24), fixed bin(24), fixed bin(35));
  4   133 dcl  gtss_ios_initialize_                       entry options(variable);
  4   134 dcl  gtss_ios_io_                               entry (fixed bin(24), ptr, ptr, fixed bin(24), fixed bin(24), fixed bin(35));
  4   135 dcl  gtss_ios_open_                             entry (fixed bin(24), char(168), char(32), bit(6), bit(1), ptr, ptr, fixed bin(35));
  4   136 dcl  gtss_ios_position_                         entry (fixed bin(24), fixed bin(24), fixed bin(24), bit(6), ptr);
  4   137 dcl  gtss_mcfc_$delete		        entry (fixed bin(24), char(*), char(*), bit(36) aligned, ptr, fixed bin(35));
  4   138 dcl  gtss_mcfc_$open                            entry (char(*), char(*), bit(6), bit(36) aligned, ptr, fixed bin(35));
  4   139 dcl  gtss_mcfc_$close                           entry (char(*), char(*), bit(36) aligned, ptr, fixed bin(35));
  4   140 dcl  gtss_read_starCFP_                         entry (ptr, ptr, fixed bin(21), fixed bin(21), fixed bin(35));
  4   141 dcl  gtss_read_starCFP_$last_os                 entry (ptr, ptr, fixed bin(21), fixed bin(21), fixed bin(35));
  4   142 dcl  gtss_run_subsystem_                        entry (fixed bin(24));
  4   143 dcl  gtss_run_subsystem_$finish                 entry options(variable);
  4   144 dcl  gtss_run_subsystem_$restor                 entry (fixed bin(24), ptr);
  4   145 dcl  gtss_run_subsystem_$restor_perm            entry (fixed bin(24), ptr, fixed bin(18));
  4   146 dcl  gtss_set_slave_                            entry (fixed bin (24), ptr);
  4   147 dcl  gtss_set_slave_$load_bar                   entry (fixed bin (17));
  4   148 dcl  gtss_update_safe_store_                    entry (ptr);
  4   149 dcl  gtss_verify_access_		        entry (char(*), char(*), fixed bin(24), bit(6), bit(12) aligned);
  4   150 dcl  gtss_verify_access_$check_forced_access    entry (char(*), char(*), fixed bin(24));
  4   151 dcl  gtss_write_starCFP_                        entry (ptr, ptr, fixed bin(21), fixed bin(35));
  4   152 /*   END INCLUDE FILE gtss_entry_dcls.incl.pl1 */
      119
      120      end						/* gtss_drl_koutn_ */;
	SOURCE FILES USED IN THIS COMPILATION.

LINE      NUMBER  DATE MODIFIED     NAME			PATHNAME
             0    12/10/84  1043.2  gtss_drl_koutn_.pl1               >spec>on>7105>gtss_drl_koutn_.pl1
113          1    09/09/83  1713.8  gtss_ext_.incl.pl1                >ldd>include>gtss_ext_.incl.pl1
115          2    09/09/83  1714.3  gtss_ust_ext_.incl.pl1            >ldd>include>gtss_ust_ext_.incl.pl1
117          3    12/15/83  1100.4  mc.incl.pl1                       >ldd>include>mc.incl.pl1
119          4    12/10/84  1029.7  gtss_entry_dcls.incl.pl1          >spec>on>7105>gtss_entry_dcls.incl.pl1
	NAMES DECLARED IN THIS COMPILATION.

IDENTIFIER	     OFFSET    LOC STORAGE CLASS   DATA TYPE		ATTRIBUTES AND REFERENCES
								(* indicates a set context)

NAMES DECLARED BY DECLARE STATEMENT.
CR                                     constant        char(1)                  initial unaligned dcl 110 ref 96
bytes_read                      000100 automatic       fixed bin(21,0)          dcl 105 set ref 64* 93 94 96
char_length             130(18) 000026 external static fixed bin(17,0)          level 4 packed unaligned dcl 2-16 ref 64 64
characters_transmitted
                        202     000026 external static char(1)                  array level 4 packed unaligned dcl 2-16 set ref 64
                                                                                  64 64 64 96*
code                            000101 automatic       fixed bin(35,0)          dcl 106 set ref 64* 69 70 71* 83* 90*
com_err_                        000030 constant        entry                    external dcl 4-8 ref 90
count_of_characters_transmitted
                        201     000026 external static fixed bin(17,0)          level 4 packed unaligned dcl 2-16 set ref 93*
error_table_$long_record        000012 external static fixed bin(35,0)          dcl 78 ref 70
gtss_drl_kotnow_                000032 constant        entry                    external dcl 4-65 ref 58
gtss_ext_$get_line              000020 external static entry variable           dcl 1-19 ref 64
gtss_ext_$last_k_was_out        000022 external static bit(1)                   dcl 1-23 set ref 99*
gtss_ext_$put_chars             000024 external static entry variable           dcl 1-27 ref 83
gtss_fail                       000102 stack reference condition                dcl 107 ref 91
gtss_ust                        000026 external static structure                level 2 dcl 2-16
gtss_ust_ext_$ust               000026 external static structure                level 1 dcl 2-16
increment                              parameter       fixed bin(17,0)          dcl 30 set ref 14 58* 98*
iox_$control                    000010 constant        entry                    external dcl 77 ref 71
iox_$user_input                 000016 external static pointer                  dcl 108 set ref 64* 71*
iox_$user_output                000014 external static pointer                  dcl 79 set ref 83*
lbuf                     10     000026 external static structure                level 3 dcl 2-16
lrtll                   130     000026 external static structure                level 3 dcl 2-16
mc                                     based           structure                level 1 dcl 3-12
mcp                             000110 automatic       pointer                  dcl 3-10 set ref 31* 55 58*
mcpp                                   parameter       pointer                  dcl 29 ref 14 31
number_words_transmitted
                        200     000026 external static fixed bin(17,0)          level 4 packed unaligned dcl 2-16 set ref 94*
remote_io_buffer        177     000026 external static structure                level 3 dcl 2-16
retry_message                   000000 constant        char(21)                 initial unaligned dcl 81 set ref 83 83 83 83
scu                      30            based           bit(36)                  array level 2 packed unaligned dcl 3-12 set ref 55
scup                            000112 automatic       pointer                  dcl 3-54 set ref 55*
tally                    10(18) 000026 external static bit(1)                   level 4 packed unaligned dcl 2-16 set ref 100*

NAMES DECLARED BY DECLARE STATEMENT AND NEVER REFERENCED.
abx                                    internal static fixed bin(17,0)          initial dcl 3-42
apx                                    internal static fixed bin(17,0)          initial dcl 3-42
bbx                                    internal static fixed bin(17,0)          initial dcl 3-42
bpx                                    internal static fixed bin(17,0)          initial dcl 3-42
gtss_CFP_abort_                 000000 constant        entry                    external dcl 4-9
gtss_CFP_break_                 000000 constant        entry                    external dcl 4-10
gtss_CFP_input_                 000000 constant        entry                    external dcl 4-11
gtss_CFP_output_                000000 constant        entry                    external dcl 4-12
gtss_abandon_CFP_               000000 constant        entry                    external dcl 4-13
gtss_abort_dump_                000000 constant        entry                    external dcl 4-14
gtss_abort_subsystem_           000000 constant        entry                    external dcl 4-15
gtss_abort_subsystem_$not_imp   000000 constant        entry                    external dcl 4-16
gtss_abs_$abs_equiv             000000 constant        entry                    external dcl 4-19
gtss_abs_$cpu_runout            000000 constant        entry                    external dcl 4-20
gtss_abs_$create_absin          000000 constant        entry                    external dcl 4-21
gtss_abs_$dabt_check            000000 constant        entry                    external dcl 4-22
gtss_abs_$get_drm               000000 constant        entry                    external dcl 4-24
gtss_abs_$get_id                000000 constant        entry                    external dcl 4-23
gtss_abs_login_banner_          000000 constant        entry                    external dcl 4-17
gtss_abs_logout_banner_         000000 constant        entry                    external dcl 4-18
gtss_adjust_size_               000000 constant        entry                    external dcl 4-25
gtss_aft_$add                   000000 constant        entry                    external dcl 4-26
gtss_aft_$delete                000000 constant        entry                    external dcl 4-27
gtss_aft_$find                  000000 constant        entry                    external dcl 4-28
gtss_aft_$initialize            000000 constant        entry                    external dcl 4-29
gtss_ascii_bcd_                 000000 constant        entry                    external dcl 4-30
gtss_attributes_mgr_$get        000000 constant        entry                    external dcl 4-31
gtss_attributes_mgr_$set        000000 constant        entry                    external dcl 4-32
gtss_bcd_ascii_                 000000 constant        entry                    external dcl 4-33
gtss_bcd_ascii_$lc              000000 constant        entry                    external dcl 4-34
gtss_break_vector_              000000 constant        entry                    external dcl 4-35
gtss_break_vector_$drl_in_progress
                                000000 constant        entry                    external dcl 4-36
gtss_break_vector_$status       000000 constant        entry                    external dcl 4-37
gtss_build_                     000000 constant        entry                    external dcl 4-38
gtss_com_err_                   000000 constant        entry                    external dcl 4-39
gtss_derail_processor_          000000 constant        entry                    external dcl 4-40
gtss_derail_processor_$set      000000 constant        entry                    external dcl 4-41
gtss_dq_$catp                   000000 constant        entry                    external dcl 4-42
gtss_dq_$create                 000000 constant        entry                    external dcl 4-43
gtss_dq_$dibp                   000000 constant        entry                    external dcl 4-44
gtss_dq_$entries_info           000000 constant        entry                    external dcl 4-45
gtss_dq_$hdrp                   000000 constant        entry                    external dcl 4-46
gtss_dq_$mod_js                 000000 constant        entry                    external dcl 4-47
gtss_dq_$open_exc               000000 constant        entry                    external dcl 4-48
gtss_dq_$open_gen               000000 constant        entry                    external dcl 4-49
gtss_drl_abort_                 000000 constant        entry                    external dcl 4-50
gtss_drl_addmem_                000000 constant        entry                    external dcl 4-51
gtss_drl_callss_                000000 constant        entry                    external dcl 4-52
gtss_drl_corfil_                000000 constant        entry                    external dcl 4-53
gtss_drl_defil_                 000000 constant        entry                    external dcl 4-54
gtss_drl_defil_$subr            000000 constant        entry                    external dcl 4-55
gtss_drl_dio_                   000000 constant        entry                    external dcl 4-56
gtss_drl_drlimt_                000000 constant        entry                    external dcl 4-57
gtss_drl_drlsav_                000000 constant        entry                    external dcl 4-58
gtss_drl_filact_                000000 constant        entry                    external dcl 4-59
gtss_drl_filsp_                 000000 constant        entry                    external dcl 4-60
gtss_drl_grow_                  000000 constant        entry                    external dcl 4-61
gtss_drl_gwake_                 000000 constant        entry                    external dcl 4-62
gtss_drl_jsts_                  000000 constant        entry                    external dcl 4-63
gtss_drl_kin_                   000000 constant        entry                    external dcl 4-64
gtss_drl_kotnow_$gtss_drl_kout_ 000000 constant        entry                    external dcl 4-66
gtss_drl_koutn_                 000000 constant        entry                    external dcl 4-67
gtss_drl_morlnk_                000000 constant        entry                    external dcl 4-68
gtss_drl_msub_                  000000 constant        entry                    external dcl 4-69
gtss_drl_objtim_                000000 constant        entry                    external dcl 4-70
gtss_drl_part_                  000000 constant        entry                    external dcl 4-71
gtss_drl_pasaft_                000000 constant        entry                    external dcl 4-72
gtss_drl_pasdes_                000000 constant        entry                    external dcl 4-73
gtss_drl_pasust_                000000 constant        entry                    external dcl 4-74
gtss_drl_pdio_                  000000 constant        entry                    external dcl 4-75
gtss_drl_prgdes_                000000 constant        entry                    external dcl 4-76
gtss_drl_pseudo_                000000 constant        entry                    external dcl 4-77
gtss_drl_relmem_                000000 constant        entry                    external dcl 4-78
gtss_drl_restor_                000000 constant        entry                    external dcl 4-79
gtss_drl_retfil_                000000 constant        entry                    external dcl 4-80
gtss_drl_return_                000000 constant        entry                    external dcl 4-81
gtss_drl_rew_                   000000 constant        entry                    external dcl 4-82
gtss_drl_rstswh_                000000 constant        entry                    external dcl 4-83
gtss_drl_setlno_                000000 constant        entry                    external dcl 4-84
gtss_drl_setswh_                000000 constant        entry                    external dcl 4-85
gtss_drl_snumb_                 000000 constant        entry                    external dcl 4-86
gtss_drl_spawn_                 000000 constant        entry                    external dcl 4-87
gtss_drl_spawn_$gtss_drl_pasflr_
                                000000 constant        entry                    external dcl 4-88
gtss_drl_stoppt_                000000 constant        entry                    external dcl 4-89
gtss_drl_switch_                000000 constant        entry                    external dcl 4-90
gtss_drl_sysret_                000000 constant        entry                    external dcl 4-91
gtss_drl_t_cfio_                000000 constant        entry                    external dcl 4-92
gtss_drl_t_cmov_                000000 constant        entry                    external dcl 4-93
gtss_drl_t_err_                 000000 constant        entry                    external dcl 4-94
gtss_drl_t_goto_                000000 constant        entry                    external dcl 4-95
gtss_drl_t_linl_                000000 constant        entry                    external dcl 4-96
gtss_drl_t_rscc_                000000 constant        entry                    external dcl 4-97
gtss_drl_tapein_                000000 constant        entry                    external dcl 4-98
gtss_drl_task_                  000000 constant        entry                    external dcl 4-99
gtss_drl_termtp_                000000 constant        entry                    external dcl 4-100
gtss_drl_time_                  000000 constant        entry                    external dcl 4-101
gtss_drun_                      000000 constant        entry                    external dcl 4-102
gtss_dsd_lookup_                000000 constant        entry                    external dcl 4-103
gtss_dsd_process_               000000 constant        entry                    external dcl 4-104
gtss_edit_dsd_                  000000 constant        entry                    external dcl 4-105
gtss_expand_pathname_           000000 constant        entry                    external dcl 4-107
gtss_expand_pathname_$verify_umc
                                000000 constant        entry                    external dcl 4-108
gtss_ext_$CFP_bits                     external static structure                level 1 dcl 1-37
gtss_ext_$SYstarstar_file_no           external static fixed bin(24,0)          dcl 1-33
gtss_ext_$aem                          external static fixed bin(17,0)          dcl 1-8
gtss_ext_$aft                          external static structure                level 1 dcl 1-78
gtss_ext_$bad_drl_rtrn                 external static label variable           dcl 1-9
gtss_ext_$com_reg                      external static structure                level 1 dcl 1-45
gtss_ext_$db                           external static bit(1)                   array unaligned dcl 1-10
gtss_ext_$deferred_catalogs_ptr        external static pointer                  dcl 1-11
gtss_ext_$dispose_of_drl               external static label variable           dcl 1-12
gtss_ext_$drl_rtrn                     external static label variable           array dcl 1-13
gtss_ext_$drm_path                     external static char(168)                unaligned dcl 1-14
gtss_ext_$drun_jid                     external static char(5)                  unaligned dcl 1-15
gtss_ext_$event_channel                external static fixed bin(71,0)          dcl 1-16
gtss_ext_$fast_lib                     external static structure                level 1 dcl 1-98
gtss_ext_$finished                     external static label variable           dcl 1-17
gtss_ext_$flags                        external static structure                level 1 dcl 1-60
gtss_ext_$gdb_name                     external static char(8)                  unaligned dcl 1-18
gtss_ext_$gtss_slave_area_seg          external static pointer                  array dcl 1-20
gtss_ext_$hcs_work_area_ptr            external static pointer                  dcl 1-21
gtss_ext_$homedir                      external static char(64)                 unaligned dcl 1-22
gtss_ext_$mcfc                         external static structure                level 1 dcl 1-109
gtss_ext_$pdir                         external static varying char(168)        dcl 1-24
gtss_ext_$popup_from_pi                external static label variable           dcl 1-25
gtss_ext_$ppt                          external static pointer                  dcl 1-94
gtss_ext_$process_type                 external static fixed bin(17,0)          dcl 1-26
gtss_ext_$restart_from_pi              external static label variable           dcl 1-28
gtss_ext_$restart_seg_ptr              external static pointer                  dcl 1-29
gtss_ext_$sig_ptr                      external static pointer                  dcl 1-30
gtss_ext_$stack_level_                 external static fixed bin(17,0)          dcl 1-31
gtss_ext_$statistics                   external static structure                level 1 dcl 1-72
gtss_ext_$suspended_process            external static bit(1)                   unaligned dcl 1-32
gtss_ext_$user_id                      external static varying char(26)         dcl 1-34
gtss_ext_$work_area_ptr                external static pointer                  dcl 1-35
gtss_fault_processor_           000000 constant        entry                    external dcl 4-109
gtss_fault_processor_$timer_runout
                                000000 constant        entry                    external dcl 4-111
gtss_filact_error_status_       000000 constant        entry                    external dcl 4-112
gtss_filact_funct02_            000000 constant        entry                    external dcl 4-113
gtss_filact_funct03_            000000 constant        entry                    external dcl 4-114
gtss_filact_funct04_            000000 constant        entry                    external dcl 4-115
gtss_filact_funct05_            000000 constant        entry                    external dcl 4-116
gtss_filact_funct08_            000000 constant        entry                    external dcl 4-117
gtss_filact_funct10_            000000 constant        entry                    external dcl 4-118
gtss_filact_funct11_            000000 constant        entry                    external dcl 4-119
gtss_filact_funct14_            000000 constant        entry                    external dcl 4-120
gtss_filact_funct18_            000000 constant        entry                    external dcl 4-121
gtss_filact_funct19_            000000 constant        entry                    external dcl 4-122
gtss_filact_funct21_            000000 constant        entry                    external dcl 4-123
gtss_filact_funct22_            000000 constant        entry                    external dcl 4-124
gtss_find_cond_frame_           000000 constant        entry                    external dcl 4-110
gtss_interp_prim_               000000 constant        entry                    external dcl 4-126
gtss_interp_prim_$callss        000000 constant        entry                    external dcl 4-127
gtss_interp_prim_$sysret        000000 constant        entry                    external dcl 4-128
gtss_interp_prim_$t_goto        000000 constant        entry                    external dcl 4-129
gtss_ios_change_size_           000000 constant        entry                    external dcl 4-130
gtss_ios_close_                 000000 constant        entry                    external dcl 4-131
gtss_ios_exchange_names_        000000 constant        entry                    external dcl 4-132
gtss_ios_initialize_            000000 constant        entry                    external dcl 4-133
gtss_ios_io_                    000000 constant        entry                    external dcl 4-134
gtss_ios_open_                  000000 constant        entry                    external dcl 4-135
gtss_ios_position_              000000 constant        entry                    external dcl 4-136
gtss_mcfc_$close                000000 constant        entry                    external dcl 4-139
gtss_mcfc_$delete               000000 constant        entry                    external dcl 4-137
gtss_mcfc_$open                 000000 constant        entry                    external dcl 4-138
gtss_mcfc_empty                 000000 constant        entry                    external dcl 4-106
gtss_mcfc_init_                 000000 constant        entry                    external dcl 4-125
gtss_read_starCFP_              000000 constant        entry                    external dcl 4-140
gtss_read_starCFP_$last_os      000000 constant        entry                    external dcl 4-141
gtss_run_subsystem_             000000 constant        entry                    external dcl 4-142
gtss_run_subsystem_$finish      000000 constant        entry                    external dcl 4-143
gtss_run_subsystem_$restor      000000 constant        entry                    external dcl 4-144
gtss_run_subsystem_$restor_perm 000000 constant        entry                    external dcl 4-145
gtss_set_slave_                 000000 constant        entry                    external dcl 4-146
gtss_set_slave_$load_bar        000000 constant        entry                    external dcl 4-147
gtss_update_safe_store_         000000 constant        entry                    external dcl 4-148
gtss_verify_access_             000000 constant        entry                    external dcl 4-149
gtss_verify_access_$check_forced_access
                                000000 constant        entry                    external dcl 4-150
gtss_write_starCFP_             000000 constant        entry                    external dcl 4-151
lbx                                    internal static fixed bin(17,0)          initial dcl 3-42
lpx                                    internal static fixed bin(17,0)          initial dcl 3-42
sbx                                    internal static fixed bin(17,0)          initial dcl 3-42
scu                                    based           structure                level 1 dcl 3-56
scux                                   based           structure                level 1 dcl 3-207
spx                                    internal static fixed bin(17,0)          initial dcl 3-42

NAMES DECLARED BY EXPLICIT CONTEXT.
gtss_drl_koutn_                 000045 constant        entry                    external dcl 14
reinput                         000070 constant        label                    dcl 63 set ref 88

NAMES DECLARED BY CONTEXT OR IMPLICATION.
addr                                                   builtin function         ref 55 64 64 83 83
divide                                                 builtin function         ref 94
hbound                                                 builtin function         ref 64 64
length                                                 builtin function         ref 83 83
min                                                    builtin function         ref 64 64
null                                                   builtin function         ref 71 71

STORAGE REQUIREMENTS FOR THIS PROGRAM.

	Object	Text	Link	Symbol	Defs	Static
Start          0       0       424         460     266         434
Length       722     266        34         226     136           0

BLOCK NAME	         STACK SIZE     TYPE		WHY NONQUICK/WHO SHARES STACK FRAME
gtss_drl_koutn_                     118 external procedure  is an external procedure.

STORAGE FOR AUTOMATIC VARIABLES.

STACK FRAME                 LOC IDENTIFIER                  BLOCK NAME
gtss_drl_koutn_          000100 bytes_read                  gtss_drl_koutn_
                         000101 code                        gtss_drl_koutn_
                         000110 mcp                         gtss_drl_koutn_
                         000112 scup                        gtss_drl_koutn_

THE FOLLOWING EXTERNAL OPERATORS ARE USED BY THIS PROGRAM.
call_var            call_ext_out_desc   call_ext_out        return              signal              ext_entry

THE FOLLOWING EXTERNAL ENTRIES ARE CALLED BY THIS PROGRAM.
com_err_                      gtss_drl_kotnow_              iox_$control

THE FOLLOWING EXTERNAL VARIABLES ARE USED BY THIS PROGRAM.
error_table_$long_record      gtss_ext_$get_line            gtss_ext_$last_k_was_out      gtss_ext_$put_chars
gtss_ust_ext_$ust             iox_$user_input               iox_$user_output


   LINE    LOC      LINE    LOC      LINE    LOC      LINE    LOC      LINE    LOC      LINE    LOC      LINE    LOC
     14 000041        31 000052        55 000056        58 000060        63 000070        64 000071        69 000123
     70 000125        71 000130        83 000161        88 000202        90 000203        91 000235        93 000240
     94 000245        96 000252        98 000256        99 000261       100 000262       101 000264


                                          -----------------------------------------------------------


Historical Background

This edition of the Multics software materials and documentation is provided and donated
to Massachusetts Institute of Technology by Group BULL including BULL HN Information Systems Inc.
as a contribution to computer science knowledge.
This donation is made also to give evidence of the common contributions of Massachusetts Institute of Technology,
Bell Laboratories, General Electric, Honeywell Information Systems Inc., Honeywell BULL Inc., Groupe BULL
and BULL HN Information Systems Inc. to the development of this operating system.
Multics development was initiated by Massachusetts Institute of Technology Project MAC (1963-1970),
renamed the MIT Laboratory for Computer Science and Artificial Intelligence in the mid 1970s, under the leadership
of Professor Fernando Jose Corbato. Users consider that Multics provided the best software architecture
for managing computer hardware properly and for executing programs. Many subsequent operating systems
incorporated Multics principles.
Multics was distributed in 1975 to 2000 by Group Bull in Europe , and in the U.S. by Bull HN Information Systems Inc.,
as successor in interest by change in name only to Honeywell Bull Inc. and Honeywell Information Systems Inc. .

                                          -----------------------------------------------------------

Permission to use, copy, modify, and distribute these programs and their documentation for any purpose and without
fee is hereby granted,provided that the below copyright notice and historical background appear in all copies
and that both the copyright notice and historical background and this permission notice appear in supporting
documentation, and that the names of MIT, HIS, BULL or BULL HN not be used in advertising or publicity pertaining
to distribution of the programs without specific prior written permission.
    Copyright 1972 by Massachusetts Institute of Technology and Honeywell Information Systems Inc.
    Copyright 2006 by BULL HN Information Systems Inc.
    Copyright 2006 by Bull SAS
    All Rights Reserved
