	COMPILATION LISTING OF SEGMENT gtss_drl_abort_
	Compiled by: Multics PL/I Compiler, Release 28d, of October 4, 1983
	Compiled at: Honeywell Multics Op. - System M
	Compiled on: 12/10/84  1226.2 mst Mon
	    Options: optimize map

        1 /* ***********************************************************
        2*   *                                                         *
        3*   *                                                         *
        4*   * Copyright, (C) Honeywell Information Systems Inc., 1981 *
        5*   *                                                         *
        6*   *                                                         *
        7*   *********************************************************** */
        8
        9 /* *************************************************************
       10*   *						   *
       11*   * Copyright (c) 1979 by Honeywell Information Systems, Inc. *
       12*   *						   *
       13*   ************************************************************* */
       14 gtss_drl_abort_: proc (mcpp, increment);
       15
       16 /* *	gtss abort subsystem.
       17*
       18*   Authors:	Robert J. Grimes	Created
       19*   Albert N. Kepner	  1978
       20*   Robert M. May
       21*   David B. Ward
       22*   * */
       23 dcl  mcpp ptr parm;
       24 dcl  increment fixed bin parm;
       25
       26 /* *
       27*
       28*   DRL ABORT, ABORT SUBSYSTEM (octal 07)
       29*
       30*
       31*   8_________1_6_____________________
       32*
       33*   DRL      ABORT
       34*
       35*   (See TSS SYSTEM PROGRAMMER'S
       36*   REFERENCE MANUAL DD17C, Rev. 0, July 1976
       37*   Page 3-6)
       38*
       39**/
       40 
       41 	mcp = mcpp;
       42 	scup = addr (mc.scu);
       43 	increment = 0 ;				/* Zero arguments */
       44 	call gtss_abort_subsystem_ (mcp,
       45 	     "gtss_drl_abort_",
       46 	     35,
       47 	     gtss_pnterr.err35,
       48 	     fixed (scu.ilc, 18));
       49 	return;
       50 
       51 /* *	Variables for gtss_drl_abort_:
       52*   IDENTIFIER		ATTRIBUTES	* */
       53 dcl  gtss_fail condition;
       54 
  1     1 /* BEGIN INCLUDE FILE gtss_pnterr.incl.pl1 */
  1     2 /*
  1     3*  Created: (Grimes SMP)  04/15/78 0933.2 mst Sat
  1     4*   Change: Dave Ward	06/08/78 made attributes constant.
  1     5*   Change: Dave Ward	08/17/81 made lengths same as constans.
  1     6*   Change: Ron Barstad  83-03-29  fixed err 53, add missing err 56
  1     7*   Change: Ron Barstad  84-02-27  changed back to all same length because of based array in gtss_abort_subsystem_
  1     8**/
  1     9 dcl 1 gtss_pnterr static int options (constant),
  1    10     2 err1   char(50) init("001-INCORRECT PRIMITIVE"),
  1    11     2 err2   char(50) init("002-(^6o)INVALID FILE I/O COMMAND"),
  1    12     2 err3   char(50) init("003-(^6o)INVALID DCW"),
  1    13     2 err4   char(50) init("004-(^6o)INVALID DRL ARGUMENT"),
  1    14     2 err5   char(50) init("005-(^6o)INVALID DRL CODE"),
  1    15     2 err6   char(50) init("006-LEVEL OF CONTROL TOO DEEP"),
  1    16     2 err7   char(50) init("007-BAP PROG. DESC."),
  1    17     2 err8   char(50) init("008-LOOP IN PRIMITIVES"),
  1    18     2 err9   char(50) init("009-SYSTEM UNKNOWN"),
  1    19     2 err10  char(50) init("010-PROGRAM TOO LARGE TO SWAP"),
  1    20     2 err11  char(50) init("011-(^6o)INCORRECT CORE FILE USAGE"),
  1    21     2 err12  char(50) init("012-(^6o)PRIVILEGED I/O ATTEMPTED"),
  1    22     2 err13  char(50) init("013-(^6o)DRL USERID NOT PERMITTED"),
  1    23     2 err14  char(50) init("(^6o)ILLEGAL DRL RELMEM REQUEST"),
  1    24     2 err15  char(50) init("015-(^6o)CANNOT RESET USER ID"),
  1    25     2 err16  char(50) init("016-(^6o)OVERFLOW FAULT"),
  1    26     2 err17  char(50) init("017-(^6o)ILLEGAL OP CODE"),
  1    27     2 err18  char(50) init("018-(^6o)MEMORY FAULT"),
  1    28     2 err19  char(50) init("019-(^6o)FAULT TAG FAULT"),
  1    29     2 err20  char(50) init("020-(^6o)DIVIDE CHECK FAULT"),
  1    30     2 err21  char(50) init("021-(^6o)BAD STATUS - SWAP OUT"),
  1    31     2 err22  char(50) init("022-(^6o)BAD STATUS - SWAP IN"),
  1    32     2 err23  char(50) init("023-(^6o)BAD STATUS - LOAD"),
  1    33     2 err24  char(50) init("(^6o)TALK PERMISSION NOT GRANTED"),
  1    34     2 err25  char(50) init("(^6o)WRITE ATTEMPTED ON READ-ONLY FILE - ^8a"),
  1    35     2 err26  char(50) init("(^6o)READ ATTEMPTED ON EXECUTE-ONLY FILE - ^8a"),
  1    36     2 err27  char(50) init("024-(^6o)MME FAULT"),
  1    37     2 err28  char(50) init("028-(^6o)REWIND ATTEMPTED FOR RANDOM FILE - ^8a"),
  1    38     2 err29  char(50) init("029-ILLEGAL SYSTEM SELECTION"),
  1    39     2 err30  char(50) init("134-(^6o)INVALID DRL FILACT FUNCTION #^i"),
  1    40     2 err31  char(50) init("135-(^6o)PRIVILEGED DRL FILACT REQUEST"),
  1    41     2 err32  char(50) init("138-(^6o)NO TAP* FILE FOR DRL TAPEIN"),
  1    42     2 err33  char(50) init("139-ERROR IN WRITING TAP* FILE"),
  1    43     2 err34  char(50) init("(^6o)DRL ABORT - CANNOT WRITE ABRT FILE"),
  1    44     2 err35  char(50) init("(^6o)DRL ABORT - ABRT FILE WRITTEN"),
  1    45     2 err36  char(50) init("NOT ENOUGH CORE TO RUN JOB"),
  1    46     2 err37  char(50) init("SORRY-OUT OF SWAP SPACE. TRY AGAIN."),
  1    47     2 err38  char(50) init("(^6o)FILE ADDRESS ERROR"),
  1    48     2 err39  char(50) init("(^6o)DRL ABORT - ABRT FILE I/O ERROR"),
  1    49     2 err40  char(50) init("(^6o)DRL ABORT - ABRT FILE TOO SMALL"),
  1    50     2 err41  char(50) init("(^6o)BAD STATUS FOR DRL SAVE/RESTOR - ^8a"),
  1    51     2 err42  char(50) init("(^6o)H* FILE NOT IN AFT - ^8a"),
  1    52     2 err43  char(50) init("064-EXECUTE TIME LIMIT EXCEEDED"),
  1    53     2 err44  char(50) init("025-(^6o)LOCKUP FAULT"),
  1    54     2 err45  char(50) init("065-OBJECT PROGRAM SIZE LIMIT EXCEEDED"),
  1    55     2 err46  char(50) init("(^6o)INCORRECT ENTRY TO DRL TASK"),
  1    56     2 err47  char(50) init("(^6o)H* PROGRAM NAME UNDEFINED - ^8a"),
  1    57     2 err48  char(50) init("(^6o)H* FILE CATALOG FULL - ^8a"),
  1    58     2 err49  char(50) init("(^6o)TALLY OR CHARACTER COUNT INCORRECT"),
  1    59     2 err50  char(50) init("(^6o)BAD DRL SAVE DATA LOC"),
  1    60     2 err51  char(50) init("(^6o)H* FILE NOT INITITALIZED - ^8a"),
  1    61     2 err52  char(50) init("(^6o)H* FILE MUST BE RANDOM - ^8a"),
  1    62     2 err53  char(50) init("026-(^6o)OP-NOT-COMPLETE FAULT"),
  1    63     2 err54  char(50) init("(^6o)H* FILE PROGRAM NAME REQUIRED - ^8a"),
  1    64     2 err55  char(50) init("027-(^6o)COMMAND FAULT"),
  1    65     2 err56  char(50) init("(^6o)LINKED FILE I/O CANNOT SPAN >63 LLINKS - ^8a"),
  1    66     2 err57  char(50) init("UNASSIGNED"),
  1    67     2 err58  char(50) init("(^6o)INVALID TIME FOR DRL GWAKE"),
  1    68     2 err59  char(50) init("UNASSIGNED"),
  1    69     2 err60  char(50) init("(^6o)INVALID SNUMB FOR DRL JOUT"),
  1    70     2 err61  char(50) init("(^6o)PRIVILEGED DRL"),
  1    71     2 err62  char(50) init("(^6o)INVALID DRL JOUT FUNCTION"),
  1    72     2 err63  char(50) init("MEMORY PARITY ERROR"),
  1    73     2 err64  char(50) init("SY** I/O ERROR"),
  1    74 /* The following error messages are artifacts of gtss and are not found in TSS */
  1    75     2 err100 char(50) init("DRL ADDMEM ERROR at (^6o)"),
  1    76     2 err101 char(50) init("DRL RELMEM ERROR TRUNCATE SEGMENT at (^6o)"),
  1    77     2 err102 char(50) init("DRL RELMEM ERROR SET MAX SEGMENT LENGTH"),
  1    78     2 err103 char(50) init("UNIMPLEMENTED DRL FILACT FUNCTION (^i)"),
  1    79     2 err999 char(50) init("dummy");
  1    80
  1    81 /*   END INCLUDE FILE gtss_pnterr.incl.pl1 */
       55
       56 
  2     1 /* BEGIN INCLUDE FILE gtss_ext_.incl.pl1 */
  2     2 /*
  2     3*  Created: (Wardd Multics)  05/20/78 1307.6 mst Sat
  2     4*  Modified: Ward            1981     add suspended_process dcl
  2     5*  Modified: Ron Barstad  83-07-21  Fixed level number on mcfc to 3
  2     6*  Modified: Ron Barstad  83-07-25  Fixed derail range in statistics to 4js3 number
  2     7**/
  2     8 dcl  gtss_ext_$aem                   fixed bin static ext	/* >0 Print "additional" error information. */;
  2     9 dcl  gtss_ext_$bad_drl_rtrn          static ext label	/* Default for drl_rtrn. */;
  2    10 dcl  gtss_ext_$db                    (72)bit(1)unal static ext;
  2    11 dcl  gtss_ext_$deferred_catalogs_ptr ptr ext;
  2    12 dcl  gtss_ext_$dispose_of_drl        static ext label	/* quit handlers for some derails use this label to abort */;
  2    13 dcl  gtss_ext_$drl_rtrn              (4)static ext label	/* where to return at subsystem end */;
  2    14 dcl  gtss_ext_$drm_path              char(168)static ext	/* gtss_expand_pathname_stores drm_path */;
  2    15 dcl  gtss_ext_$drun_jid              char (5) static ext	/* valid only for DRUN executing under absentee */;
  2    16 dcl  gtss_ext_$event_channel         fixed bin (71) static ext	/* used for DABT signals */;
  2    17 dcl  gtss_ext_$finished              static ext label	/* Return to gtss for normal conclusion. */;
  2    18 dcl  gtss_ext_$gdb_name              char(8)ext	/* Name H* module to debug. */;
  2    19 dcl  gtss_ext_$get_line              entry(ptr,ptr,fixed bin(21),fixed bin(21),fixed bin(35))variable ext /* Build mode input procedure. */;
  2    20 dcl  gtss_ext_$gtss_slave_area_seg   (4) ext static ptr	/* pointer to gtss slave area segment */;
  2    21 dcl  gtss_ext_$hcs_work_area_ptr     ptr ext static		/* Temp seg for acl lists. */;
  2    22 dcl  gtss_ext_$homedir               char (64) static ext /* user's home dir */;
  2    23 dcl  gtss_ext_$last_k_was_out        bit (1)aligned ext static	/* "1"b => last tty output was output. */;
  2    24 dcl  gtss_ext_$pdir                  char (168) varying ext static	/* pathname of process directory */;
  2    25 dcl  gtss_ext_$popup_from_pi         static ext label	/* transfer to this label after pi simulates popup primitive */;
  2    26 dcl  gtss_ext_$process_type          fixed bin (17) static ext;
  2    27 dcl  gtss_ext_$put_chars             entry(ptr,ptr,fixed bin(24),fixed bin(35)) variable ext	/* Terminal output procedure. */;
  2    28 dcl  gtss_ext_$restart_from_pi       static ext label	/* transfer to this label after pi restores machine conditions */;
  2    29 dcl  gtss_ext_$restart_seg_ptr       ptr static ext	/* points to DRUN restart file when exec under absentee */;
  2    30 dcl  gtss_ext_$sig_ptr               ext static ptr	/* saved ptr to signal_ */;
  2    31 dcl  gtss_ext_$stack_level_          fixed bin ext static;
  2    32 dcl  gtss_ext_$suspended_process     bit(1) ext static;
  2    33 dcl  gtss_ext_$SYstarstar_file_no    fixed bin (24) static ext;
  2    34 dcl  gtss_ext_$user_id               char (26)var ext;
  2    35 dcl  gtss_ext_$work_area_ptr         ptr ext;
  2    36
  2    37 dcl  1 gtss_ext_$CFP_bits aligned static external
  2    38      , 3 no_input_yet bit (1) unaligned         /* used in gtss_CFP_input_, gtss_read_starCFP_ */
  2    39      , 3 rtn_bits bit (4) unaligned             /* used in gtss_CFP_input_, gtss_CFP_output_ */
  2    40      , 3 cpos_called bit (1) unaligned          /* used in gtss_CFP_input_, gtss_drl_t_cfio_, gtss_abandon_CFP_ */
  2    41      , 3 cout_called bit (1) unaligned          /* used in gtss_read_starCFP_, gtss_abandon_CFP_ */
  2    42      , 3 build_mode bit (1) unaligned	        /* used in gtss_build_, gtss_dsd_process_ */
  2    43      ;
  2    44
  2    45 dcl 1 gtss_ext_$com_reg aligned static ext,
  2    46        3 tsdmx,
  2    47          4 dst fixed bin (18) unsigned unaligned,
  2    48          4 dit fixed bin (18) unsigned unaligned,
  2    49        3 tsdpt fixed bin (36) unsigned unaligned,
  2    50        3 tsddt fixed bin (36) unsigned unaligned,
  2    51        3 tsdid bit (72) unaligned,
  2    52        3 tsdsd bit (36) unaligned,
  2    53        3 tsdst fixed bin (36) unsigned unaligned,
  2    54        3 tsdjb fixed bin (35) unaligned,
  2    55        3 tsdgt,
  2    56          4 ust_loc fixed bin (18) unsigned unaligned,
  2    57          4 gating_ctl fixed bin (18) unsigned unaligned,
  2    58        3 tcdfr bit (36) unaligned;
  2    59
  2    60 dcl 1 gtss_ext_$flags aligned static ext
  2    61      , 3 dispose_of_drl_on_pi	bit (01) unal	/* 1 => drl that should be aborted after quit-pi sequence */
  2    62      , 3 drl_in_progress	bit (01) unal	/* 1 => drl handler executing; 0 => gcos code executing */
  2    63      , 3 popup_from_pi	bit (01) unal	/* 1 => derail processor will simulate Gcos break instead of returning */
  2    64      , 3 unfinished_drl	bit (01) unal	/* 1 => subsystem is handling breaks and quit was raised during a drl */
  2    65      , 3 ss_time_limit_set	bit (01) unal	/* 1 => exec time limit set for subsystem */
  2    66      , 3 timer_ranout	bit (01) unal	/* 1 => user is executing timer runout code */
  2    67      , 3 gtss_com_err_sw      bit (01) unal       /* 1 => stop com_err_ string from going to terminal */
  2    68      , 3 available		bit (65) unal
  2    69      ;
  2    70
  2    71
  2    72 dcl 1 gtss_ext_$statistics aligned static ext,		/* Derail usage statistics */
  2    73       3 total_time (-10:71)fixed bin (71),
  2    74       3 count (-10:71)fixed bin (17);
  2    75
  2    76 /* 	Declaration of Available File Table
  2    77*   */
  2    78 dcl 1 gtss_ext_$aft aligned ext,			/* aft structure */
  2    79
  2    80       3 start_list (0:102) fixed bin (24),		/* >0 => 1st aft_entry row to start of next entry chain. */
  2    81
  2    82       3 aft_entry (20),
  2    83         4 altname char (8),				/* altname name for attaching this file */
  2    84         4 next_entry fixed bin (24),			/* Next aft_entry in hash chain. */
  2    85         4 previous_add fixed bin (24),			/* Previously added entry. */
  2    86         4 next_add fixed bin (24),			/* Entry added after this one. */
  2    87         4 used bit (1) unal,				/* "1"b => aft_entry contains AFT value. */
  2    88         4 forced bit(1) unal,				/* "1"b => gtss_verify_access_ forced access on this file. */
  2    89
  2    90       3 free_space fixed bin (24),			/* Index of start of free space list for aft entries. */
  2    91       3 first_added fixed bin (24),			/* >0  => start of chain in add order. */
  2    92       3 last_added fixed bin (24)			/* >0 => end of chain in added order. */;
  2    93
  2    94 dcl  gtss_ext_$ppt                   ptr ext /*  switch name for tapein drl */;
  2    95 /**	Data structure to provide access to installed
  2    96*   subsystems fast library load.
  2    97*   **/
  2    98 dcl 1 gtss_ext_$fast_lib aligned ext
  2    99      , 3 fast_lib_fcb ptr				/* Pointer to msf fcb.	*/
  2   100      , 3 fast_lib_ncp fixed bin (24)			/* Number of components. */
  2   101      , 3 comp_ptr (0:9)ptr				/* Pointer to component. */
  2   102      , 3 comp_wds (0:9)fixed bin (24)			/* Component length (words). */
  2   103      ;
  2   104
  2   105 /* Pointers to segments to regulate multipler
  2   106*   callers to files. Same segments are used to regulate
  2   107*   all simulator callers.
  2   108**/
  2   109 dcl 1 gtss_ext_$mcfc	aligned ext,
  2   110       3 multics_lock_id	bit(36),
  2   111       3 wait_time		fixed bin,
  2   112       3 files_ptr		ptr,
  2   113       3 names_ptr		ptr,
  2   114       3 callers_ptr		(0:3)ptr
  2   115 ;
  2   116
  2   117 /*   END INCLUDE FILE gtss_ext_.incl.pl1 */
       57
       58 
  3     1 /*  */
  3     2 /* BEGIN INCLUDE FILE  mc.incl.pl1   Created Dec 72 for 6180 - WSS. */
  3     3 /* Modified 06/07/76 by Greenberg for mc.resignal */
  3     4 /* Modified 07/07/76 by Morris for fault register data */
  3     5 /* Modified 08/28/80 by J. A. Bush for the DPS8/70M CVPU */
  3     6 /* Modified '82 to make values constant */
  3     7
  3     8 /* words 0-15 pointer registers */
  3     9
  3    10 dcl  mcp ptr;
  3    11
  3    12 dcl 1 mc based (mcp) aligned,
  3    13     2 prs (0:7) ptr,				/* POINTER  REGISTERS */
  3    14    (2 regs,					/* registers */
  3    15       3 x (0:7) bit (18),				/* index registers */
  3    16       3 a bit (36),					/* accumulator */
  3    17       3 q bit (36),					/* q-register */
  3    18       3 e bit (8),					/* exponent */
  3    19       3 pad1 bit (28),
  3    20       3 t bit (27),					/* timer register */
  3    21       3 pad2 bit (6),
  3    22       3 ralr bit (3),				/* ring alarm register */
  3    23
  3    24     2 scu (0:7) bit (36),
  3    25
  3    26     2 mask bit (72),				/* mem controller mask at time of fault */
  3    27     2 ips_temp bit (36),				/* Temporary storage for IPS info */
  3    28     2 errcode fixed bin (35),				/* fault handler's error code */
  3    29     2 fim_temp,
  3    30       3 unique_index bit (18) unal,			/* unique index for restarting faults */
  3    31       3 resignal bit (1) unal,			/* recompute signal name with fcode below */
  3    32       3 fcode bit (17) unal,				/* fault code used as index to FIM table and SCT */
  3    33     2 fault_reg bit (36),				/* fault register */
  3    34     2 pad2 bit (1),
  3    35     2 cpu_type fixed bin (2) unsigned,			/* L68 = 0, DPS8/70M = 1 */
  3    36     2 ext_fault_reg bit (15),				/* extended fault reg for DPS8/70M CPU */
  3    37     2 fault_time bit (54),				/* time of fault */
  3    38
  3    39     2 eis_info (0:7) bit (36)) unaligned;
  3    40
  3    41
  3    42 dcl (apx fixed bin init (0),
  3    43      abx fixed bin init (1),
  3    44      bpx fixed bin init (2),
  3    45      bbx fixed bin init (3),
  3    46      lpx fixed bin init (4),
  3    47      lbx fixed bin init (5),
  3    48      spx fixed bin init (6),
  3    49      sbx fixed bin init (7)) internal static options (constant);
  3    50
  3    51
  3    52 
  3    53
  3    54 dcl  scup ptr;
  3    55
  3    56 dcl 1 scu based (scup) aligned,			/* SCU DATA */
  3    57
  3    58
  3    59 /*	WORD (0)		*/
  3    60
  3    61    (2 ppr,					/* PROCEDURE POINTER REGISTER */
  3    62       3 prr bit (3),				/* procedure ring register */
  3    63       3 psr bit (15),				/* procedure segment register */
  3    64       3 p bit (1),					/* procedure privileged bit */
  3    65
  3    66     2 apu,					/* APPENDING UNIT STATUS */
  3    67       3 xsf bit (1),				/* ext seg flag - IT modification */
  3    68       3 sdwm bit (1),				/* match in SDW Ass. Mem. */
  3    69       3 sd_on bit (1),				/* SDW Ass. Mem.  ON */
  3    70       3 ptwm bit (1),				/* match in PTW Ass. Mem. */
  3    71       3 pt_on bit (1),				/* PTW Ass. Mem.  ON */
  3    72       3 pi_ap bit (1),				/* Instr Fetch or Append cycle */
  3    73       3 dsptw bit (1),				/* Fetch of DSPTW */
  3    74       3 sdwnp bit (1),				/* Fetch of SDW non paged */
  3    75       3 sdwp bit (1),				/* Fetch of SDW paged */
  3    76       3 ptw bit (1),				/* Fetch of PTW */
  3    77       3 ptw2 bit (1),				/* Fetch of pre-paged PTW */
  3    78       3 fap bit (1),				/* Fetch of final address paged */
  3    79       3 fanp bit (1),				/* Fetch of final address non-paged */
  3    80       3 fabs bit (1),				/* Fetch of final address absolute */
  3    81
  3    82     2 fault_cntr bit (3),				/* number of retrys of EIS instructions */
  3    83
  3    84
  3    85 /*	WORD (1)		*/
  3    86
  3    87     2 fd,						/* FAULT  DATA */
  3    88       3 iro bit (1),				/* illegal ring order */
  3    89       3 oeb bit (1),				/* out of execute bracket */
  3    90       3 e_off bit (1),				/* no execute */
  3    91       3 orb bit (1),				/* out of read bracket */
  3    92       3 r_off bit (1),				/* no read */
  3    93       3 owb bit (1),				/* out of write bracket */
  3    94       3 w_off bit (1),				/* no write */
  3    95       3 no_ga bit (1),				/* not a gate */
  3    96       3 ocb bit (1),				/* out of call bracket */
  3    97       3 ocall bit (1),				/* outward call */
  3    98       3 boc bit (1),				/* bad outward call */
  3    99       3 inret bit (1),				/* inward return */
  3   100       3 crt bit (1),				/* cross ring transfer */
  3   101       3 ralr bit (1),				/* ring alarm register */
  3   102       3 am_er bit (1),				/* associative memory fault */
  3   103       3 oosb bit (1),				/* out of segment bounds */
  3   104       3 paru bit (1),				/* processor parity upper */
  3   105       3 parl bit (1),				/* processor parity lower */
  3   106       3 onc_1 bit (1),				/* op not complete type 1 */
  3   107       3 onc_2 bit (1),				/* op not complete type 2 */
  3   108
  3   109     2 port_stat,					/* PORT  STATUS */
  3   110       3 ial bit (4),				/* illegal action lines */
  3   111       3 iac bit (3),				/* illegal action channel */
  3   112       3 con_chan bit (3),				/* connect channel */
  3   113
  3   114     2 fi_num bit (5),				/* (fault/interrupt)  number */
  3   115     2 fi_flag bit (1),				/*  1 => fault,  0 => interrupt  */
  3   116
  3   117
  3   118 /*	WORD (2)		*/
  3   119
  3   120     2 tpr,					/* TEMPORARY POINTER REGISTER */
  3   121       3 trr bit (3),				/* temporary ring register */
  3   122       3 tsr bit (15),				/* temporary segment register */
  3   123
  3   124     2 pad2 bit (9),
  3   125
  3   126     2 cpu_no bit (3),				/* CPU number */
  3   127
  3   128     2 delta bit (6),				/* tally modification DELTA */
  3   129
  3   130
  3   131 /*	WORD (3)		*/
  3   132
  3   133     2 word3 bit (18),
  3   134
  3   135     2 tsr_stat,					/* TSR STATUS for 1,2,&3 word instructions */
  3   136       3 tsna,					/* Word 1 status */
  3   137         4 prn bit (3),				/* Word 1  PR  number */
  3   138         4 prv bit (1),				/* Word 1  PR  valid bit */
  3   139       3 tsnb,					/* Word 2  status */
  3   140         4 prn bit (3),				/* Word 2  PR  number */
  3   141         4 prv bit (1),				/* Word 2  PR  valid bit */
  3   142       3 tsnc,					/* Word 3  status */
  3   143         4 prn bit (3),				/* Word 3  PR  number */
  3   144         4 prv bit (1),				/* Word 3  PR  valid bit */
  3   145
  3   146     2 tpr_tbr bit (6),				/* TPR.TBR  field */
  3   147
  3   148
  3   149 /* 	WORD (4)		*/
  3   150
  3   151     2 ilc bit (18),					/* INSTRUCTION  COUNTER */
  3   152
  3   153     2 ir,						/* INDICATOR  REGISTERS */
  3   154       3 zero bit (1),				/* zero indicator */
  3   155       3 neg bit (1),				/* negative indicator */
  3   156       3 carry bit (1),				/* carryry indicator */
  3   157       3 ovfl bit (1),				/* overflow indicator */
  3   158       3 eovf bit (1),				/* eponent overflow */
  3   159       3 eufl bit (1),				/* exponent underflow */
  3   160       3 oflm bit (1),				/* overflow mask */
  3   161       3 tro bit (1),				/* tally runout */
  3   162       3 par bit (1),				/* parity error */
  3   163       3 parm bit (1),				/* parity mask */
  3   164       3 bm bit (1),					/* ^bar mode */
  3   165       3 tru bit (1),				/* truncation mode */
  3   166       3 mif bit (1),				/* multi-word instruction mode */
  3   167       3 abs bit (1),				/* absolute mode */
  3   168       3 hex bit (1),				/* hexadecimal exponent mode */
  3   169       3 pad bit (3),
  3   170
  3   171
  3   172 /*	WORD (5)		*/
  3   173
  3   174     2 ca bit (18),					/* COMPUTED  ADDRESS */
  3   175
  3   176     2 cu,						/* CONTROL UNIT STATUS */
  3   177       3 rf bit (1),					/* on first cycle of repeat instr */
  3   178       3 rpt bit (1),				/* repeat instruction */
  3   179       3 rd bit (1),					/* repeat double instruction */
  3   180       3 rl bit (1),					/* repeat link instruciton */
  3   181       3 pot bit (1),				/* IT  modification */
  3   182       3 pon bit (1),				/* return type instruction */
  3   183       3 xde bit (1),				/* XDE from Even location */
  3   184       3 xdo bit (1),				/* XDE from Odd  location */
  3   185       3 poa bit (1),				/* operation preparation */
  3   186       3 rfi bit (1),				/* tells CPU to refetch instruction */
  3   187       3 its bit (1),				/* ITS modification */
  3   188       3 if bit (1),					/* fault occured during instruction fetch */
  3   189
  3   190     2 cpu_tag bit (6)) unaligned,			/* computed tag field */
  3   191
  3   192
  3   193 /*	WORDS (6,7)	*/
  3   194
  3   195     2 even_inst bit (36),				/* even instruction of faulting pair */
  3   196
  3   197     2 odd_inst bit (36);				/* odd  instruction of faulting pair */
  3   198
  3   199
  3   200
  3   201
  3   202
  3   203
  3   204 /*	ALTERNATE   SCU  DECLARATION		*/
  3   205
  3   206
  3   207 dcl 1 scux based (scup) aligned,
  3   208
  3   209    (2 pad0 bit (36),
  3   210
  3   211     2 fd,						/* GROUP II  FAULT DATA */
  3   212       3 isn bit (1),				/* illegal segment number */
  3   213       3 ioc bit (1),				/* illegal op  code  */
  3   214       3 ia_am bit (1),				/* illegal address - modifier */
  3   215       3 isp bit (1),				/* illegal slave  procedure */
  3   216       3 ipr bit (1),				/* illegal procedure */
  3   217       3 nea bit (1),				/* non existent address */
  3   218       3 oobb bit (1),				/* out of bounds */
  3   219       3 pad bit (29),
  3   220
  3   221     2 pad2 bit (36),
  3   222
  3   223     2 pad3a bit (18),
  3   224
  3   225     2 tsr_stat (0:2),				/* TSR  STATUS  as an  ARRAY */
  3   226       3 prn bit (3),				/* PR  number */
  3   227       3 prv bit (1),				/* PR  valid bit */
  3   228
  3   229     2 pad3b bit (6)) unaligned,
  3   230
  3   231     2 pad45 (0:1) bit (36),
  3   232
  3   233     2 instr (0:1) bit (36);				/* Instruction ARRAY */
  3   234
  3   235
  3   236
  3   237 /*  END INCLUDE FILE   mc.incl.pl1 */
       59
       60 
  4     1 /* BEGIN INCLUDE FILE gtss_entry_dcls.incl.pl1 */
  4     2 /*
  4     3*  Created: (Wardd Multics)  06/30/78 1624.8 mst Fri
  4     4*  Modified: Ron Barstad  84-02-24  Fixed wrong and obsolete entries
  4     5**/
  4     6
  4     7 /**  gtss external entry variables.		**/
  4     8 dcl  com_err_                                   entry() options(variable);
  4     9 dcl  gtss_CFP_abort_                            entry options(variable);
  4    10 dcl  gtss_CFP_break_                            entry options(variable);
  4    11 dcl  gtss_CFP_input_                            entry (ptr, ptr, fixed bin(21), fixed bin(21), fixed bin(35));
  4    12 dcl  gtss_CFP_output_                           entry (ptr, ptr, fixed bin(21), fixed bin(35));
  4    13 dcl  gtss_abandon_CFP_                          entry options(variable);
  4    14 dcl  gtss_abort_dump_                           entry (fixed bin(18));
  4    15 dcl  gtss_abort_subsystem_                      entry options (variable);
  4    16 dcl  gtss_abort_subsystem_$not_imp              entry (ptr, fixed bin(24));
  4    17 dcl  gtss_abs_login_banner_		        entry() returns(char(*));
  4    18 dcl  gtss_abs_logout_banner_		        entry() returns(char(*));
  4    19 dcl  gtss_abs_$abs_equiv                        entry options(variable);
  4    20 dcl  gtss_abs_$cpu_runout		        entry (ptr, char(4));
  4    21 dcl  gtss_abs_$create_absin                     entry() returns(char(*));
  4    22 dcl  gtss_abs_$dabt_check		        entry (ptr, char(4));
  4    23 dcl  gtss_abs_$get_id                           entry (char(5)) returns(char(19));
  4    24 dcl  gtss_abs_$get_drm                          entry() returns(char(*));
  4    25 dcl  gtss_adjust_size_                          entry (ptr);
  4    26 dcl  gtss_aft_$add                              entry (char(8), fixed bin(24), fixed bin(35));
  4    27 dcl  gtss_aft_$delete                           entry (char(8), fixed bin(24), fixed bin(35));
  4    28 dcl  gtss_aft_$find                             entry (char(8), fixed bin(24), fixed bin(35));
  4    29 dcl  gtss_aft_$initialize                       entry (fixed bin(35));
  4    30 dcl  gtss_ascii_bcd_                            entry (ptr, fixed bin, ptr);
  4    31 dcl  gtss_attributes_mgr_$get                   entry (ptr, fixed bin(35));
  4    32 dcl  gtss_attributes_mgr_$set                   entry (ptr, fixed bin(35));
  4    33 dcl  gtss_bcd_ascii_                            entry (ptr, fixed bin(24), ptr);
  4    34 dcl  gtss_bcd_ascii_$lc                         entry (ptr, fixed bin(24), ptr);
  4    35 dcl  gtss_break_vector_                         entry ();
  4    36 dcl  gtss_break_vector_$drl_in_progress         entry() returns(bit(1));
  4    37 dcl  gtss_break_vector_$status                  entry() returns(bit(1));
  4    38 dcl  gtss_build_                                entry options(variable);
  4    39 dcl  gtss_com_err_                              entry options(variable);
  4    40 dcl  gtss_derail_processor_                     entry (ptr, char(*), ptr, ptr, bit(1) aligned) /* called at fault time instead of signal_ */;
  4    41 dcl  gtss_derail_processor_$set                 entry options(variable);
  4    42 dcl  gtss_dq_$catp                              entry (char (5), ptr, fixed bin (18) unsigned);
  4    43 dcl  gtss_dq_$create                            entry (bit(1));
  4    44 dcl  gtss_dq_$dibp                              entry (char(5), ptr);
  4    45 dcl  gtss_dq_$entries_info		        entry (ptr, fixed bin (18) unsigned, fixed bin (18) unsigned);
  4    46 dcl  gtss_dq_$hdrp                              entry (ptr);
  4    47 dcl  gtss_dq_$mod_js		        entry (char(5), fixed bin (6) unsigned, bit (1));
  4    48 dcl  gtss_dq_$open_exc		        entry (bit(1));
  4    49 dcl  gtss_dq_$open_gen		        entry (bit(1));
  4    50 dcl  gtss_drl_abort_                            entry (ptr, fixed bin);
  4    51 dcl  gtss_drl_addmem_                           entry (ptr, fixed bin);
  4    52 dcl  gtss_drl_callss_                           entry (ptr, fixed bin);
  4    53 dcl  gtss_drl_corfil_                           entry (ptr, fixed bin);
  4    54 dcl  gtss_drl_defil_                            entry (ptr, fixed bin);
  4    55 dcl  gtss_drl_defil_$subr                       entry (ptr, ptr, ptr);
  4    56 dcl  gtss_drl_dio_                              entry (ptr, fixed bin);
  4    57 dcl  gtss_drl_drlimt_                           entry (ptr, fixed bin);
  4    58 dcl  gtss_drl_drlsav_                           entry (ptr, fixed bin);
  4    59 dcl  gtss_drl_filact_                           entry (ptr, fixed bin);
  4    60 dcl  gtss_drl_filsp_                            entry (ptr, fixed bin);
  4    61 dcl  gtss_drl_grow_                             entry (ptr, fixed bin);
  4    62 dcl  gtss_drl_gwake_                            entry (ptr, fixed bin);
  4    63 dcl  gtss_drl_jsts_                             entry (ptr, fixed bin);
  4    64 dcl  gtss_drl_kin_                              entry (ptr, fixed bin);
  4    65 dcl  gtss_drl_kotnow_                           entry (ptr, fixed bin);
  4    66 dcl  gtss_drl_kotnow_$gtss_drl_kout_            entry (ptr, fixed bin);
  4    67 dcl  gtss_drl_koutn_                            entry (ptr, fixed bin);
  4    68 dcl  gtss_drl_morlnk_                           entry (ptr, fixed bin);
  4    69 dcl  gtss_drl_msub_                             entry (ptr, fixed bin);
  4    70 dcl  gtss_drl_objtim_                           entry (ptr, fixed bin);
  4    71 dcl  gtss_drl_part_                             entry (ptr, fixed bin);
  4    72 dcl  gtss_drl_pasaft_                           entry (ptr, fixed bin);
  4    73 dcl  gtss_drl_pasdes_                           entry (ptr, fixed bin);
  4    74 dcl  gtss_drl_pasust_                           entry (ptr, fixed bin);
  4    75 dcl  gtss_drl_pdio_                             entry (ptr, fixed bin);
  4    76 dcl  gtss_drl_prgdes_                           entry (ptr, fixed bin);
  4    77 dcl  gtss_drl_pseudo_                           entry (ptr, fixed bin);
  4    78 dcl  gtss_drl_relmem_                           entry (ptr, fixed bin);
  4    79 dcl  gtss_drl_restor_                           entry (ptr, fixed bin);
  4    80 dcl  gtss_drl_retfil_                           entry (ptr, fixed bin);
  4    81 dcl  gtss_drl_return_                           entry (ptr, fixed bin);
  4    82 dcl  gtss_drl_rew_                              entry (ptr, fixed bin);
  4    83 dcl  gtss_drl_rstswh_                           entry (ptr, fixed bin);
  4    84 dcl  gtss_drl_setlno_                           entry (ptr, fixed bin);
  4    85 dcl  gtss_drl_setswh_                           entry (ptr, fixed bin);
  4    86 dcl  gtss_drl_snumb_                            entry (ptr, fixed bin);
  4    87 dcl  gtss_drl_spawn_                            entry (ptr, fixed bin);
  4    88 dcl  gtss_drl_spawn_$gtss_drl_pasflr_           entry (ptr, fixed bin);
  4    89 dcl  gtss_drl_stoppt_                           entry (ptr, fixed bin);
  4    90 dcl  gtss_drl_switch_                           entry (ptr, fixed bin);
  4    91 dcl  gtss_drl_sysret_                           entry (ptr, fixed bin);
  4    92 dcl  gtss_drl_t_cfio_                           entry (ptr, fixed bin);
  4    93 dcl  gtss_drl_t_cmov_                           entry (ptr, fixed bin);
  4    94 dcl  gtss_drl_t_err_                            entry (ptr, fixed bin);
  4    95 dcl  gtss_drl_t_goto_                           entry (ptr, fixed bin);
  4    96 dcl  gtss_drl_t_linl_                           entry (ptr, fixed bin);
  4    97 dcl  gtss_drl_t_rscc_                           entry (ptr, fixed bin);
  4    98 dcl  gtss_drl_tapein_                           entry (ptr, fixed bin);
  4    99 dcl  gtss_drl_task_                             entry (ptr, fixed bin);
  4   100 dcl  gtss_drl_termtp_                           entry (ptr, fixed bin);
  4   101 dcl  gtss_drl_time_                             entry (ptr, fixed bin);
  4   102 dcl  gtss_drun_                                 entry (bit(1));
  4   103 dcl  gtss_dsd_lookup_                           entry (char(8) var) returns(fixed bin(24));
  4   104 dcl  gtss_dsd_process_                          entry (ptr, ptr, fixed bin(21), fixed bin(21), fixed bin(35));
  4   105 dcl  gtss_edit_dsd_                             entry (ptr, fixed bin(21)) returns(fixed bin(24));
  4   106 dcl  gtss_mcfc_empty                            entry (char(*) var);
  4   107 dcl  gtss_expand_pathname_                      entry (ptr, char(*), char(*), fixed bin(35));
  4   108 dcl  gtss_expand_pathname_$verify_umc           entry (ptr, char(*), char(*), bit(18), fixed bin(35));
  4   109 dcl  gtss_fault_processor_                      entry options(variable);
  4   110 dcl  gtss_find_cond_frame_		        entry (char(32) var) returns(ptr);
  4   111 dcl  gtss_fault_processor_$timer_runout         entry (ptr, char(*));
  4   112 dcl  gtss_filact_error_status_                  entry (fixed bin(35))returns(bit(12));
  4   113 dcl  gtss_filact_funct02_                       entry (ptr, bit(18), ptr, ptr, ptr, fixed bin(35));
  4   114 dcl  gtss_filact_funct03_                       entry (ptr, bit(18), ptr, ptr, ptr, fixed bin(35));
  4   115 dcl  gtss_filact_funct04_                       entry (ptr, bit(18), ptr, ptr, ptr, fixed bin(35));
  4   116 dcl  gtss_filact_funct05_                       entry (ptr, bit(18), ptr, ptr, ptr, fixed bin(35));
  4   117 dcl  gtss_filact_funct08_                       entry (ptr, bit(18), ptr, ptr, ptr, fixed bin(35));
  4   118 dcl  gtss_filact_funct10_                       entry (ptr, bit(18), ptr, ptr, ptr, fixed bin(35));
  4   119 dcl  gtss_filact_funct11_                       entry (ptr, bit(18), ptr, ptr, ptr, fixed bin(35));
  4   120 dcl  gtss_filact_funct14_                       entry (ptr, bit(18), ptr, ptr, ptr, fixed bin(35));
  4   121 dcl  gtss_filact_funct18_                       entry (ptr, bit(18), ptr, ptr, ptr, fixed bin(35));
  4   122 dcl  gtss_filact_funct19_                       entry (ptr, bit(18), ptr, ptr, ptr, fixed bin(35));
  4   123 dcl  gtss_filact_funct21_                       entry (ptr, bit(18), ptr, ptr, ptr, fixed bin(35));
  4   124 dcl  gtss_filact_funct22_                       entry (ptr, bit(18), ptr, ptr, ptr, fixed bin(35));
  4   125 dcl  gtss_mcfc_init_                            entry (char(*) var);
  4   126 dcl  gtss_interp_prim_                          entry options(variable);
  4   127 dcl  gtss_interp_prim_$callss                   entry (char(4), ptr);
  4   128 dcl  gtss_interp_prim_$sysret                   entry options(variable);
  4   129 dcl  gtss_interp_prim_$t_goto                   entry (char(4));
  4   130 dcl  gtss_ios_change_size_                      entry (fixed bin(24), fixed bin(24), bit(1), fixed bin(24), fixed bin(35));
  4   131 dcl  gtss_ios_close_                            entry (fixed bin(24), ptr, fixed bin(35));
  4   132 dcl  gtss_ios_exchange_names_                   entry (fixed bin(24), fixed bin(24), fixed bin(24), fixed bin(35));
  4   133 dcl  gtss_ios_initialize_                       entry options(variable);
  4   134 dcl  gtss_ios_io_                               entry (fixed bin(24), ptr, ptr, fixed bin(24), fixed bin(24), fixed bin(35));
  4   135 dcl  gtss_ios_open_                             entry (fixed bin(24), char(168), char(32), bit(6), bit(1), ptr, ptr, fixed bin(35));
  4   136 dcl  gtss_ios_position_                         entry (fixed bin(24), fixed bin(24), fixed bin(24), bit(6), ptr);
  4   137 dcl  gtss_mcfc_$delete		        entry (fixed bin(24), char(*), char(*), bit(36) aligned, ptr, fixed bin(35));
  4   138 dcl  gtss_mcfc_$open                            entry (char(*), char(*), bit(6), bit(36) aligned, ptr, fixed bin(35));
  4   139 dcl  gtss_mcfc_$close                           entry (char(*), char(*), bit(36) aligned, ptr, fixed bin(35));
  4   140 dcl  gtss_read_starCFP_                         entry (ptr, ptr, fixed bin(21), fixed bin(21), fixed bin(35));
  4   141 dcl  gtss_read_starCFP_$last_os                 entry (ptr, ptr, fixed bin(21), fixed bin(21), fixed bin(35));
  4   142 dcl  gtss_run_subsystem_                        entry (fixed bin(24));
  4   143 dcl  gtss_run_subsystem_$finish                 entry options(variable);
  4   144 dcl  gtss_run_subsystem_$restor                 entry (fixed bin(24), ptr);
  4   145 dcl  gtss_run_subsystem_$restor_perm            entry (fixed bin(24), ptr, fixed bin(18));
  4   146 dcl  gtss_set_slave_                            entry (fixed bin (24), ptr);
  4   147 dcl  gtss_set_slave_$load_bar                   entry (fixed bin (17));
  4   148 dcl  gtss_update_safe_store_                    entry (ptr);
  4   149 dcl  gtss_verify_access_		        entry (char(*), char(*), fixed bin(24), bit(6), bit(12) aligned);
  4   150 dcl  gtss_verify_access_$check_forced_access    entry (char(*), char(*), fixed bin(24));
  4   151 dcl  gtss_write_starCFP_                        entry (ptr, ptr, fixed bin(21), fixed bin(35));
  4   152 /*   END INCLUDE FILE gtss_entry_dcls.incl.pl1 */
       61
       62      end						/* gtss_drl_abort_ */;
	SOURCE FILES USED IN THIS COMPILATION.

LINE      NUMBER  DATE MODIFIED     NAME			PATHNAME
             0    12/10/84  1042.9  gtss_drl_abort_.pl1               >spec>on>7105>gtss_drl_abort_.pl1
55           1    12/10/84  1029.8  gtss_pnterr.incl.pl1              >spec>on>7105>gtss_pnterr.incl.pl1
57           2    09/09/83  1713.8  gtss_ext_.incl.pl1                >ldd>include>gtss_ext_.incl.pl1
59           3    12/15/83  1100.4  mc.incl.pl1                       >ldd>include>mc.incl.pl1
61           4    12/10/84  1029.7  gtss_entry_dcls.incl.pl1          >spec>on>7105>gtss_entry_dcls.incl.pl1
	NAMES DECLARED IN THIS COMPILATION.

IDENTIFIER	     OFFSET    LOC STORAGE CLASS   DATA TYPE		ATTRIBUTES AND REFERENCES
								(* indicates a set context)

NAMES DECLARED BY DECLARE STATEMENT.
err35                   651     000000 constant        char(50)                 initial level 2 packed unaligned dcl 1-9 set ref 44*
gtss_abort_subsystem_           000010 constant        entry                    external dcl 4-15 ref 44
gtss_pnterr                     000000 constant        structure                level 1 packed unaligned dcl 1-9
ilc                       4            based           bit(18)                  level 2 packed unaligned dcl 3-56 ref 44 44
increment                              parameter       fixed bin(17,0)          dcl 24 set ref 14 43*
mc                                     based           structure                level 1 dcl 3-12
mcp                             000100 automatic       pointer                  dcl 3-10 set ref 41* 42 44*
mcpp                                   parameter       pointer                  dcl 23 ref 14 41
scu                                    based           structure                level 1 dcl 3-56 in procedure "gtss_drl_abort_"
scu                      30            based           bit(36)                  array level 2 in structure "mc" packed unaligned
                                                                                  dcl 3-12 in procedure "gtss_drl_abort_" set ref 42
scup                            000102 automatic       pointer                  dcl 3-54 set ref 42* 44 44

NAMES DECLARED BY DECLARE STATEMENT AND NEVER REFERENCED.
abx                                    internal static fixed bin(17,0)          initial dcl 3-42
apx                                    internal static fixed bin(17,0)          initial dcl 3-42
bbx                                    internal static fixed bin(17,0)          initial dcl 3-42
bpx                                    internal static fixed bin(17,0)          initial dcl 3-42
com_err_                        000000 constant        entry                    external dcl 4-8
gtss_CFP_abort_                 000000 constant        entry                    external dcl 4-9
gtss_CFP_break_                 000000 constant        entry                    external dcl 4-10
gtss_CFP_input_                 000000 constant        entry                    external dcl 4-11
gtss_CFP_output_                000000 constant        entry                    external dcl 4-12
gtss_abandon_CFP_               000000 constant        entry                    external dcl 4-13
gtss_abort_dump_                000000 constant        entry                    external dcl 4-14
gtss_abort_subsystem_$not_imp   000000 constant        entry                    external dcl 4-16
gtss_abs_$abs_equiv             000000 constant        entry                    external dcl 4-19
gtss_abs_$cpu_runout            000000 constant        entry                    external dcl 4-20
gtss_abs_$create_absin          000000 constant        entry                    external dcl 4-21
gtss_abs_$dabt_check            000000 constant        entry                    external dcl 4-22
gtss_abs_$get_drm               000000 constant        entry                    external dcl 4-24
gtss_abs_$get_id                000000 constant        entry                    external dcl 4-23
gtss_abs_login_banner_          000000 constant        entry                    external dcl 4-17
gtss_abs_logout_banner_         000000 constant        entry                    external dcl 4-18
gtss_adjust_size_               000000 constant        entry                    external dcl 4-25
gtss_aft_$add                   000000 constant        entry                    external dcl 4-26
gtss_aft_$delete                000000 constant        entry                    external dcl 4-27
gtss_aft_$find                  000000 constant        entry                    external dcl 4-28
gtss_aft_$initialize            000000 constant        entry                    external dcl 4-29
gtss_ascii_bcd_                 000000 constant        entry                    external dcl 4-30
gtss_attributes_mgr_$get        000000 constant        entry                    external dcl 4-31
gtss_attributes_mgr_$set        000000 constant        entry                    external dcl 4-32
gtss_bcd_ascii_                 000000 constant        entry                    external dcl 4-33
gtss_bcd_ascii_$lc              000000 constant        entry                    external dcl 4-34
gtss_break_vector_              000000 constant        entry                    external dcl 4-35
gtss_break_vector_$drl_in_progress
                                000000 constant        entry                    external dcl 4-36
gtss_break_vector_$status       000000 constant        entry                    external dcl 4-37
gtss_build_                     000000 constant        entry                    external dcl 4-38
gtss_com_err_                   000000 constant        entry                    external dcl 4-39
gtss_derail_processor_          000000 constant        entry                    external dcl 4-40
gtss_derail_processor_$set      000000 constant        entry                    external dcl 4-41
gtss_dq_$catp                   000000 constant        entry                    external dcl 4-42
gtss_dq_$create                 000000 constant        entry                    external dcl 4-43
gtss_dq_$dibp                   000000 constant        entry                    external dcl 4-44
gtss_dq_$entries_info           000000 constant        entry                    external dcl 4-45
gtss_dq_$hdrp                   000000 constant        entry                    external dcl 4-46
gtss_dq_$mod_js                 000000 constant        entry                    external dcl 4-47
gtss_dq_$open_exc               000000 constant        entry                    external dcl 4-48
gtss_dq_$open_gen               000000 constant        entry                    external dcl 4-49
gtss_drl_abort_                 000000 constant        entry                    external dcl 4-50
gtss_drl_addmem_                000000 constant        entry                    external dcl 4-51
gtss_drl_callss_                000000 constant        entry                    external dcl 4-52
gtss_drl_corfil_                000000 constant        entry                    external dcl 4-53
gtss_drl_defil_                 000000 constant        entry                    external dcl 4-54
gtss_drl_defil_$subr            000000 constant        entry                    external dcl 4-55
gtss_drl_dio_                   000000 constant        entry                    external dcl 4-56
gtss_drl_drlimt_                000000 constant        entry                    external dcl 4-57
gtss_drl_drlsav_                000000 constant        entry                    external dcl 4-58
gtss_drl_filact_                000000 constant        entry                    external dcl 4-59
gtss_drl_filsp_                 000000 constant        entry                    external dcl 4-60
gtss_drl_grow_                  000000 constant        entry                    external dcl 4-61
gtss_drl_gwake_                 000000 constant        entry                    external dcl 4-62
gtss_drl_jsts_                  000000 constant        entry                    external dcl 4-63
gtss_drl_kin_                   000000 constant        entry                    external dcl 4-64
gtss_drl_kotnow_                000000 constant        entry                    external dcl 4-65
gtss_drl_kotnow_$gtss_drl_kout_ 000000 constant        entry                    external dcl 4-66
gtss_drl_koutn_                 000000 constant        entry                    external dcl 4-67
gtss_drl_morlnk_                000000 constant        entry                    external dcl 4-68
gtss_drl_msub_                  000000 constant        entry                    external dcl 4-69
gtss_drl_objtim_                000000 constant        entry                    external dcl 4-70
gtss_drl_part_                  000000 constant        entry                    external dcl 4-71
gtss_drl_pasaft_                000000 constant        entry                    external dcl 4-72
gtss_drl_pasdes_                000000 constant        entry                    external dcl 4-73
gtss_drl_pasust_                000000 constant        entry                    external dcl 4-74
gtss_drl_pdio_                  000000 constant        entry                    external dcl 4-75
gtss_drl_prgdes_                000000 constant        entry                    external dcl 4-76
gtss_drl_pseudo_                000000 constant        entry                    external dcl 4-77
gtss_drl_relmem_                000000 constant        entry                    external dcl 4-78
gtss_drl_restor_                000000 constant        entry                    external dcl 4-79
gtss_drl_retfil_                000000 constant        entry                    external dcl 4-80
gtss_drl_return_                000000 constant        entry                    external dcl 4-81
gtss_drl_rew_                   000000 constant        entry                    external dcl 4-82
gtss_drl_rstswh_                000000 constant        entry                    external dcl 4-83
gtss_drl_setlno_                000000 constant        entry                    external dcl 4-84
gtss_drl_setswh_                000000 constant        entry                    external dcl 4-85
gtss_drl_snumb_                 000000 constant        entry                    external dcl 4-86
gtss_drl_spawn_                 000000 constant        entry                    external dcl 4-87
gtss_drl_spawn_$gtss_drl_pasflr_
                                000000 constant        entry                    external dcl 4-88
gtss_drl_stoppt_                000000 constant        entry                    external dcl 4-89
gtss_drl_switch_                000000 constant        entry                    external dcl 4-90
gtss_drl_sysret_                000000 constant        entry                    external dcl 4-91
gtss_drl_t_cfio_                000000 constant        entry                    external dcl 4-92
gtss_drl_t_cmov_                000000 constant        entry                    external dcl 4-93
gtss_drl_t_err_                 000000 constant        entry                    external dcl 4-94
gtss_drl_t_goto_                000000 constant        entry                    external dcl 4-95
gtss_drl_t_linl_                000000 constant        entry                    external dcl 4-96
gtss_drl_t_rscc_                000000 constant        entry                    external dcl 4-97
gtss_drl_tapein_                000000 constant        entry                    external dcl 4-98
gtss_drl_task_                  000000 constant        entry                    external dcl 4-99
gtss_drl_termtp_                000000 constant        entry                    external dcl 4-100
gtss_drl_time_                  000000 constant        entry                    external dcl 4-101
gtss_drun_                      000000 constant        entry                    external dcl 4-102
gtss_dsd_lookup_                000000 constant        entry                    external dcl 4-103
gtss_dsd_process_               000000 constant        entry                    external dcl 4-104
gtss_edit_dsd_                  000000 constant        entry                    external dcl 4-105
gtss_expand_pathname_           000000 constant        entry                    external dcl 4-107
gtss_expand_pathname_$verify_umc
                                000000 constant        entry                    external dcl 4-108
gtss_ext_$CFP_bits                     external static structure                level 1 dcl 2-37
gtss_ext_$SYstarstar_file_no           external static fixed bin(24,0)          dcl 2-33
gtss_ext_$aem                          external static fixed bin(17,0)          dcl 2-8
gtss_ext_$aft                          external static structure                level 1 dcl 2-78
gtss_ext_$bad_drl_rtrn                 external static label variable           dcl 2-9
gtss_ext_$com_reg                      external static structure                level 1 dcl 2-45
gtss_ext_$db                           external static bit(1)                   array unaligned dcl 2-10
gtss_ext_$deferred_catalogs_ptr        external static pointer                  dcl 2-11
gtss_ext_$dispose_of_drl               external static label variable           dcl 2-12
gtss_ext_$drl_rtrn                     external static label variable           array dcl 2-13
gtss_ext_$drm_path                     external static char(168)                unaligned dcl 2-14
gtss_ext_$drun_jid                     external static char(5)                  unaligned dcl 2-15
gtss_ext_$event_channel                external static fixed bin(71,0)          dcl 2-16
gtss_ext_$fast_lib                     external static structure                level 1 dcl 2-98
gtss_ext_$finished                     external static label variable           dcl 2-17
gtss_ext_$flags                        external static structure                level 1 dcl 2-60
gtss_ext_$gdb_name                     external static char(8)                  unaligned dcl 2-18
gtss_ext_$get_line                     external static entry variable           dcl 2-19
gtss_ext_$gtss_slave_area_seg          external static pointer                  array dcl 2-20
gtss_ext_$hcs_work_area_ptr            external static pointer                  dcl 2-21
gtss_ext_$homedir                      external static char(64)                 unaligned dcl 2-22
gtss_ext_$last_k_was_out               external static bit(1)                   dcl 2-23
gtss_ext_$mcfc                         external static structure                level 1 dcl 2-109
gtss_ext_$pdir                         external static varying char(168)        dcl 2-24
gtss_ext_$popup_from_pi                external static label variable           dcl 2-25
gtss_ext_$ppt                          external static pointer                  dcl 2-94
gtss_ext_$process_type                 external static fixed bin(17,0)          dcl 2-26
gtss_ext_$put_chars                    external static entry variable           dcl 2-27
gtss_ext_$restart_from_pi              external static label variable           dcl 2-28
gtss_ext_$restart_seg_ptr              external static pointer                  dcl 2-29
gtss_ext_$sig_ptr                      external static pointer                  dcl 2-30
gtss_ext_$stack_level_                 external static fixed bin(17,0)          dcl 2-31
gtss_ext_$statistics                   external static structure                level 1 dcl 2-72
gtss_ext_$suspended_process            external static bit(1)                   unaligned dcl 2-32
gtss_ext_$user_id                      external static varying char(26)         dcl 2-34
gtss_ext_$work_area_ptr                external static pointer                  dcl 2-35
gtss_fail                       000000 stack reference condition                dcl 53
gtss_fault_processor_           000000 constant        entry                    external dcl 4-109
gtss_fault_processor_$timer_runout
                                000000 constant        entry                    external dcl 4-111
gtss_filact_error_status_       000000 constant        entry                    external dcl 4-112
gtss_filact_funct02_            000000 constant        entry                    external dcl 4-113
gtss_filact_funct03_            000000 constant        entry                    external dcl 4-114
gtss_filact_funct04_            000000 constant        entry                    external dcl 4-115
gtss_filact_funct05_            000000 constant        entry                    external dcl 4-116
gtss_filact_funct08_            000000 constant        entry                    external dcl 4-117
gtss_filact_funct10_            000000 constant        entry                    external dcl 4-118
gtss_filact_funct11_            000000 constant        entry                    external dcl 4-119
gtss_filact_funct14_            000000 constant        entry                    external dcl 4-120
gtss_filact_funct18_            000000 constant        entry                    external dcl 4-121
gtss_filact_funct19_            000000 constant        entry                    external dcl 4-122
gtss_filact_funct21_            000000 constant        entry                    external dcl 4-123
gtss_filact_funct22_            000000 constant        entry                    external dcl 4-124
gtss_find_cond_frame_           000000 constant        entry                    external dcl 4-110
gtss_interp_prim_               000000 constant        entry                    external dcl 4-126
gtss_interp_prim_$callss        000000 constant        entry                    external dcl 4-127
gtss_interp_prim_$sysret        000000 constant        entry                    external dcl 4-128
gtss_interp_prim_$t_goto        000000 constant        entry                    external dcl 4-129
gtss_ios_change_size_           000000 constant        entry                    external dcl 4-130
gtss_ios_close_                 000000 constant        entry                    external dcl 4-131
gtss_ios_exchange_names_        000000 constant        entry                    external dcl 4-132
gtss_ios_initialize_            000000 constant        entry                    external dcl 4-133
gtss_ios_io_                    000000 constant        entry                    external dcl 4-134
gtss_ios_open_                  000000 constant        entry                    external dcl 4-135
gtss_ios_position_              000000 constant        entry                    external dcl 4-136
gtss_mcfc_$close                000000 constant        entry                    external dcl 4-139
gtss_mcfc_$delete               000000 constant        entry                    external dcl 4-137
gtss_mcfc_$open                 000000 constant        entry                    external dcl 4-138
gtss_mcfc_empty                 000000 constant        entry                    external dcl 4-106
gtss_mcfc_init_                 000000 constant        entry                    external dcl 4-125
gtss_read_starCFP_              000000 constant        entry                    external dcl 4-140
gtss_read_starCFP_$last_os      000000 constant        entry                    external dcl 4-141
gtss_run_subsystem_             000000 constant        entry                    external dcl 4-142
gtss_run_subsystem_$finish      000000 constant        entry                    external dcl 4-143
gtss_run_subsystem_$restor      000000 constant        entry                    external dcl 4-144
gtss_run_subsystem_$restor_perm 000000 constant        entry                    external dcl 4-145
gtss_set_slave_                 000000 constant        entry                    external dcl 4-146
gtss_set_slave_$load_bar        000000 constant        entry                    external dcl 4-147
gtss_update_safe_store_         000000 constant        entry                    external dcl 4-148
gtss_verify_access_             000000 constant        entry                    external dcl 4-149
gtss_verify_access_$check_forced_access
                                000000 constant        entry                    external dcl 4-150
gtss_write_starCFP_             000000 constant        entry                    external dcl 4-151
lbx                                    internal static fixed bin(17,0)          initial dcl 3-42
lpx                                    internal static fixed bin(17,0)          initial dcl 3-42
sbx                                    internal static fixed bin(17,0)          initial dcl 3-42
scux                                   based           structure                level 1 dcl 3-207
spx                                    internal static fixed bin(17,0)          initial dcl 3-42

NAME DECLARED BY EXPLICIT CONTEXT.
gtss_drl_abort_                 001564 constant        entry                    external dcl 14

NAMES DECLARED BY CONTEXT OR IMPLICATION.
addr                                                   builtin function         ref 42
fixed                                                  builtin function         ref 44 44

STORAGE REQUIREMENTS FOR THIS PROGRAM.

	Object	Text	Link	Symbol	Defs	Static
Start          0       0      1700        1712    1642        1710
Length      2136    1642        12         207      36           0

BLOCK NAME	         STACK SIZE     TYPE		WHY NONQUICK/WHO SHARES STACK FRAME
gtss_drl_abort_                      96 external procedure  is an external procedure.

STORAGE FOR AUTOMATIC VARIABLES.

STACK FRAME                 LOC IDENTIFIER                  BLOCK NAME
gtss_drl_abort_          000100 mcp                         gtss_drl_abort_
                         000102 scup                        gtss_drl_abort_

THE FOLLOWING EXTERNAL OPERATORS ARE USED BY THIS PROGRAM.
call_ext_out_desc   return              ext_entry

THE FOLLOWING EXTERNAL ENTRIES ARE CALLED BY THIS PROGRAM.
gtss_abort_subsystem_

NO EXTERNAL VARIABLES ARE USED BY THIS PROGRAM.


   LINE    LOC      LINE    LOC      LINE    LOC      LINE    LOC      LINE    LOC      LINE    LOC      LINE    LOC
     14 001560        41 001571        42 001575        43 001577        44 001600        49 001641


                                          -----------------------------------------------------------


Historical Background

This edition of the Multics software materials and documentation is provided and donated
to Massachusetts Institute of Technology by Group BULL including BULL HN Information Systems Inc.
as a contribution to computer science knowledge.
This donation is made also to give evidence of the common contributions of Massachusetts Institute of Technology,
Bell Laboratories, General Electric, Honeywell Information Systems Inc., Honeywell BULL Inc., Groupe BULL
and BULL HN Information Systems Inc. to the development of this operating system.
Multics development was initiated by Massachusetts Institute of Technology Project MAC (1963-1970),
renamed the MIT Laboratory for Computer Science and Artificial Intelligence in the mid 1970s, under the leadership
of Professor Fernando Jose Corbato. Users consider that Multics provided the best software architecture
for managing computer hardware properly and for executing programs. Many subsequent operating systems
incorporated Multics principles.
Multics was distributed in 1975 to 2000 by Group Bull in Europe , and in the U.S. by Bull HN Information Systems Inc.,
as successor in interest by change in name only to Honeywell Bull Inc. and Honeywell Information Systems Inc. .

                                          -----------------------------------------------------------

Permission to use, copy, modify, and distribute these programs and their documentation for any purpose and without
fee is hereby granted,provided that the below copyright notice and historical background appear in all copies
and that both the copyright notice and historical background and this permission notice appear in supporting
documentation, and that the names of MIT, HIS, BULL or BULL HN not be used in advertising or publicity pertaining
to distribution of the programs without specific prior written permission.
    Copyright 1972 by Massachusetts Institute of Technology and Honeywell Information Systems Inc.
    Copyright 2006 by BULL HN Information Systems Inc.
    Copyright 2006 by Bull SAS
    All Rights Reserved
