	COMPILATION LISTING OF SEGMENT gtss_drl_callss_
	Compiled by: Multics PL/I Compiler, Release 29, of July 28, 1986
	Compiled at: Honeywell Multics Op. - System M
	Compiled on: 11/05/86  1058.2 mst Wed
	    Options: optimize map

        1 /* ***********************************************************
        2*   *                                                         *
        3*   *                                                         *
        4*   * Copyright, (C) Honeywell Information Systems Inc., 1981 *
        5*   *                                                         *
        6*   *                                                         *
        7*   *********************************************************** */
        8
        9 /* *************************************************************
       10*   *						   *
       11*   * Copyright (c) 1979 by Honeywell Information Systems, Inc. *
       12*   *						   *
       13*   ************************************************************* */
       14 gtss_drl_callss_: proc (mcpp, increment);
       15
       16 /*	Internal call to another subsystem.
       17*
       18*   Authors: Robert J. Grimes	Created
       19*   -	  Albert N. Kepner	  1978
       20*   -	  Robert M. May
       21*   -	  David B. Ward
       22*   Changed: Dave Ward	05/17/79 Debug display of ss name.
       23*   Changed: Bob Alvarado	11/26/79 Added callss_pound_sign_comd entry.
       24*   Changed: Dave Ward         1981     sorted dcl, added %page
       25**/
       26 dcl  increment                fixed bin parm;
       27 dcl  mcpp                     ptr parm;
       28 	mcp = mcpp;
       29
       30 /*
       31*
       32*   DRL CALLSS, INTERNAL CALL TO ANOTHER SUBSYSTEM (octal 30)
       33*
       34*
       35*   8_________1_6_____________________
       36*
       37*   DRL      CALLSS
       38*   ASCII    1,name
       39*
       40*   (See TSS SYSTEM PROGRAMMER'S
       41*   REFERENCE MANUAL DD17C, Rev. 0, July 1977
       42*   Page 3-9)
       43*
       44**/
       45
       46 	increment = 1 ;				/* One argument */
       47 	scup = addr (mc.scu);
       48 	gseg = gtss_ext_$gtss_slave_area_seg (gtss_ext_$stack_level_);
       49 	arg_list_ptr = addrel (gseg, fixed (scu.ilc)+1);	/* get addres of arg_list */
       50
       51 /* Check for DRL RETURN following the DRL CALLSS. If found,
       52*   the combination is treated as a DRL T.GOTO */
       53 	if next_instruction = "000005002000"b3 then do;	/* DRL RETURN */
       54 	     if db_drl_callss then
       55 		call ioa_ ("gtss_drl_callss_: DRL T.GOTO ""^a""", ss_name);
       56 	     call gtss_interp_prim_$t_goto (ss_name);
       57 	end;
       58
       59 /* The above call does not return. The t_goto entry point causes
       60*   the process stack to be unwound to the previous invocation of
       61*   the primitive interpreter. */
       62 	goto cont;
       63
       64 callss_pound_sign_comd: entry (ap, increment);
       65 dcl  ap                       ptr parm;
       66 	mcp = null ();
       67 	arg_list_ptr = ap;
       68 cont:
       69
       70 /* Call a new subsystem */
       71 /* But first save the bar mode stack pointer */
       72
       73 	sb = baseptr (baseno (addr (bar_mode_stack_ptr))); /* Get ptr to stack_4 */
       74 	bar_mode_stack_ptr = stack_header.bar_mode_sp;
       75
       76 	if db_drl_callss then
       77 	     call ioa_ ("gtss_drl_callss_: DRL CALLSS ""^a""", ss_name);
       78 	call gtss_interp_prim_$callss (ss_name, mcp);
       79
       80 /* Restore bar mode stack pointer */
       81 	stack_header.bar_mode_sp = bar_mode_stack_ptr;
       82 	return;
       83
       84 /*   Variables for gtss_drl_callss_:		 */
       85 /*   IDENTIFIER		ATTRIBUTES	 */
       86 dcl  arg_list_ptr             ptr init(null());
       87 dcl  bar_mode_stack_ptr       ptr auto	/* This variable must be automatic */;
       88 dcl  gseg                     ptr init(null());
       89 dcl  ioa_                     entry options(variable);
       90
       91 dcl 1 arg_list aligned based (arg_list_ptr),
       92     2 ss_name char (4) unal,
       93     2 next_instruction bit (36);
       94
  1     1 /* BEGIN INCLUDE FILE gtss_ext_.incl.pl1 */
  1     2 /*
  1     3*  Created: (Wardd Multics)  05/20/78 1307.6 mst Sat
  1     4*  Modified: Ward            1981     add suspended_process dcl
  1     5*  Modified: Ron Barstad  83-07-21  Fixed level number on mcfc to 3
  1     6*  Modified: Ron Barstad  83-07-25  Fixed derail range in statistics to 4js3 number
  1     7**/
  1     8 dcl  gtss_ext_$aem                   fixed bin static ext	/* >0 Print "additional" error information. */;
  1     9 dcl  gtss_ext_$bad_drl_rtrn          static ext label	/* Default for drl_rtrn. */;
  1    10 dcl  gtss_ext_$db                    (72)bit(1)unal static ext;
  1    11 dcl  gtss_ext_$deferred_catalogs_ptr ptr ext;
  1    12 dcl  gtss_ext_$dispose_of_drl        static ext label	/* quit handlers for some derails use this label to abort */;
  1    13 dcl  gtss_ext_$drl_rtrn              (4)static ext label	/* where to return at subsystem end */;
  1    14 dcl  gtss_ext_$drm_path              char(168)static ext	/* gtss_expand_pathname_stores drm_path */;
  1    15 dcl  gtss_ext_$drun_jid              char (5) static ext	/* valid only for DRUN executing under absentee */;
  1    16 dcl  gtss_ext_$event_channel         fixed bin (71) static ext	/* used for DABT signals */;
  1    17 dcl  gtss_ext_$finished              static ext label	/* Return to gtss for normal conclusion. */;
  1    18 dcl  gtss_ext_$gdb_name              char(8)ext	/* Name H* module to debug. */;
  1    19 dcl  gtss_ext_$get_line              entry(ptr,ptr,fixed bin(21),fixed bin(21),fixed bin(35))variable ext /* Build mode input procedure. */;
  1    20 dcl  gtss_ext_$gtss_slave_area_seg   (4) ext static ptr	/* pointer to gtss slave area segment */;
  1    21 dcl  gtss_ext_$hcs_work_area_ptr     ptr ext static		/* Temp seg for acl lists. */;
  1    22 dcl  gtss_ext_$homedir               char (64) static ext /* user's home dir */;
  1    23 dcl  gtss_ext_$last_k_was_out        bit (1)aligned ext static	/* "1"b => last tty output was output. */;
  1    24 dcl  gtss_ext_$pdir                  char (168) varying ext static	/* pathname of process directory */;
  1    25 dcl  gtss_ext_$popup_from_pi         static ext label	/* transfer to this label after pi simulates popup primitive */;
  1    26 dcl  gtss_ext_$process_type          fixed bin (17) static ext;
  1    27 dcl  gtss_ext_$put_chars             entry(ptr,ptr,fixed bin(24),fixed bin(35)) variable ext	/* Terminal output procedure. */;
  1    28 dcl  gtss_ext_$restart_from_pi       static ext label	/* transfer to this label after pi restores machine conditions */;
  1    29 dcl  gtss_ext_$restart_seg_ptr       ptr static ext	/* points to DRUN restart file when exec under absentee */;
  1    30 dcl  gtss_ext_$sig_ptr               ext static ptr	/* saved ptr to signal_ */;
  1    31 dcl  gtss_ext_$stack_level_          fixed bin ext static;
  1    32 dcl  gtss_ext_$suspended_process     bit(1) ext static;
  1    33 dcl  gtss_ext_$SYstarstar_file_no    fixed bin (24) static ext;
  1    34 dcl  gtss_ext_$user_id               char (26)var ext;
  1    35 dcl  gtss_ext_$work_area_ptr         ptr ext;
  1    36
  1    37 dcl  1 gtss_ext_$CFP_bits aligned static external
  1    38      , 3 no_input_yet bit (1) unaligned         /* used in gtss_CFP_input_, gtss_read_starCFP_ */
  1    39      , 3 rtn_bits bit (4) unaligned             /* used in gtss_CFP_input_, gtss_CFP_output_ */
  1    40      , 3 cpos_called bit (1) unaligned          /* used in gtss_CFP_input_, gtss_drl_t_cfio_, gtss_abandon_CFP_ */
  1    41      , 3 cout_called bit (1) unaligned          /* used in gtss_read_starCFP_, gtss_abandon_CFP_ */
  1    42      , 3 build_mode bit (1) unaligned	        /* used in gtss_build_, gtss_dsd_process_ */
  1    43      ;
  1    44
  1    45 dcl 1 gtss_ext_$com_reg aligned static ext,
  1    46        3 tsdmx,
  1    47          4 dst fixed bin (18) unsigned unaligned,
  1    48          4 dit fixed bin (18) unsigned unaligned,
  1    49        3 tsdpt fixed bin (36) unsigned unaligned,
  1    50        3 tsddt fixed bin (36) unsigned unaligned,
  1    51        3 tsdid bit (72) unaligned,
  1    52        3 tsdsd bit (36) unaligned,
  1    53        3 tsdst fixed bin (36) unsigned unaligned,
  1    54        3 tsdjb fixed bin (35) unaligned,
  1    55        3 tsdgt,
  1    56          4 ust_loc fixed bin (18) unsigned unaligned,
  1    57          4 gating_ctl fixed bin (18) unsigned unaligned,
  1    58        3 tcdfr bit (36) unaligned;
  1    59
  1    60 dcl 1 gtss_ext_$flags aligned static ext
  1    61      , 3 dispose_of_drl_on_pi	bit (01) unal	/* 1 => drl that should be aborted after quit-pi sequence */
  1    62      , 3 drl_in_progress	bit (01) unal	/* 1 => drl handler executing; 0 => gcos code executing */
  1    63      , 3 popup_from_pi	bit (01) unal	/* 1 => derail processor will simulate Gcos break instead of returning */
  1    64      , 3 unfinished_drl	bit (01) unal	/* 1 => subsystem is handling breaks and quit was raised during a drl */
  1    65      , 3 ss_time_limit_set	bit (01) unal	/* 1 => exec time limit set for subsystem */
  1    66      , 3 timer_ranout	bit (01) unal	/* 1 => user is executing timer runout code */
  1    67      , 3 gtss_com_err_sw      bit (01) unal       /* 1 => stop com_err_ string from going to terminal */
  1    68      , 3 available		bit (65) unal
  1    69      ;
  1    70
  1    71
  1    72 dcl 1 gtss_ext_$statistics aligned static ext,		/* Derail usage statistics */
  1    73       3 total_time (-10:71)fixed bin (71),
  1    74       3 count (-10:71)fixed bin (17);
  1    75
  1    76 /* 	Declaration of Available File Table
  1    77*   */
  1    78 dcl 1 gtss_ext_$aft aligned ext,			/* aft structure */
  1    79
  1    80       3 start_list (0:102) fixed bin (24),		/* >0 => 1st aft_entry row to start of next entry chain. */
  1    81
  1    82       3 aft_entry (20),
  1    83         4 altname char (8),				/* altname name for attaching this file */
  1    84         4 next_entry fixed bin (24),			/* Next aft_entry in hash chain. */
  1    85         4 previous_add fixed bin (24),			/* Previously added entry. */
  1    86         4 next_add fixed bin (24),			/* Entry added after this one. */
  1    87         4 used bit (1) unal,				/* "1"b => aft_entry contains AFT value. */
  1    88         4 forced bit(1) unal,				/* "1"b => gtss_verify_access_ forced access on this file. */
  1    89
  1    90       3 free_space fixed bin (24),			/* Index of start of free space list for aft entries. */
  1    91       3 first_added fixed bin (24),			/* >0  => start of chain in add order. */
  1    92       3 last_added fixed bin (24)			/* >0 => end of chain in added order. */;
  1    93
  1    94 dcl  gtss_ext_$ppt                   ptr ext /*  switch name for tapein drl */;
  1    95 /**	Data structure to provide access to installed
  1    96*   subsystems fast library load.
  1    97*   **/
  1    98 dcl 1 gtss_ext_$fast_lib aligned ext
  1    99      , 3 fast_lib_fcb ptr				/* Pointer to msf fcb.	*/
  1   100      , 3 fast_lib_ncp fixed bin (24)			/* Number of components. */
  1   101      , 3 comp_ptr (0:9)ptr				/* Pointer to component. */
  1   102      , 3 comp_wds (0:9)fixed bin (24)			/* Component length (words). */
  1   103      ;
  1   104
  1   105 /* Pointers to segments to regulate multipler
  1   106*   callers to files. Same segments are used to regulate
  1   107*   all simulator callers.
  1   108**/
  1   109 dcl 1 gtss_ext_$mcfc	aligned ext,
  1   110       3 multics_lock_id	bit(36),
  1   111       3 wait_time		fixed bin,
  1   112       3 files_ptr		ptr,
  1   113       3 names_ptr		ptr,
  1   114       3 callers_ptr		(0:3)ptr
  1   115 ;
  1   116
  1   117 /*   END INCLUDE FILE gtss_ext_.incl.pl1 */
       95
       96
  2     1 /*  */
  2     2 /* BEGIN INCLUDE FILE  mc.incl.pl1   Created Dec 72 for 6180 - WSS. */
  2     3 /* Modified 06/07/76 by Greenberg for mc.resignal */
  2     4 /* Modified 07/07/76 by Morris for fault register data */
  2     5 /* Modified 08/28/80 by J. A. Bush for the DPS8/70M CVPU */
  2     6 /* Modified '82 to make values constant */
  2     7
  2     8 /* words 0-15 pointer registers */
  2     9
  2    10 dcl  mcp ptr;
  2    11
  2    12 dcl 1 mc based (mcp) aligned,
  2    13     2 prs (0:7) ptr,				/* POINTER  REGISTERS */
  2    14    (2 regs,					/* registers */
  2    15       3 x (0:7) bit (18),				/* index registers */
  2    16       3 a bit (36),					/* accumulator */
  2    17       3 q bit (36),					/* q-register */
  2    18       3 e bit (8),					/* exponent */
  2    19       3 pad1 bit (28),
  2    20       3 t bit (27),					/* timer register */
  2    21       3 pad2 bit (6),
  2    22       3 ralr bit (3),				/* ring alarm register */
  2    23
  2    24     2 scu (0:7) bit (36),
  2    25
  2    26     2 mask bit (72),				/* mem controller mask at time of fault */
  2    27     2 ips_temp bit (36),				/* Temporary storage for IPS info */
  2    28     2 errcode fixed bin (35),				/* fault handler's error code */
  2    29     2 fim_temp,
  2    30       3 unique_index bit (18) unal,			/* unique index for restarting faults */
  2    31       3 resignal bit (1) unal,			/* recompute signal name with fcode below */
  2    32       3 fcode bit (17) unal,				/* fault code used as index to FIM table and SCT */
  2    33     2 fault_reg bit (36),				/* fault register */
  2    34     2 pad2 bit (1),
  2    35     2 cpu_type fixed bin (2) unsigned,			/* L68 = 0, DPS8/70M = 1 */
  2    36     2 ext_fault_reg bit (15),				/* extended fault reg for DPS8/70M CPU */
  2    37     2 fault_time bit (54),				/* time of fault */
  2    38
  2    39     2 eis_info (0:7) bit (36)) unaligned;
  2    40
  2    41
  2    42 dcl (apx fixed bin init (0),
  2    43      abx fixed bin init (1),
  2    44      bpx fixed bin init (2),
  2    45      bbx fixed bin init (3),
  2    46      lpx fixed bin init (4),
  2    47      lbx fixed bin init (5),
  2    48      spx fixed bin init (6),
  2    49      sbx fixed bin init (7)) internal static options (constant);
  2    50
  2    51
  2    52 
  2    53
  2    54 dcl  scup ptr;
  2    55
  2    56 dcl 1 scu based (scup) aligned,			/* SCU DATA */
  2    57
  2    58
  2    59 /*	WORD (0)		*/
  2    60
  2    61    (2 ppr,					/* PROCEDURE POINTER REGISTER */
  2    62       3 prr bit (3),				/* procedure ring register */
  2    63       3 psr bit (15),				/* procedure segment register */
  2    64       3 p bit (1),					/* procedure privileged bit */
  2    65
  2    66     2 apu,					/* APPENDING UNIT STATUS */
  2    67       3 xsf bit (1),				/* ext seg flag - IT modification */
  2    68       3 sdwm bit (1),				/* match in SDW Ass. Mem. */
  2    69       3 sd_on bit (1),				/* SDW Ass. Mem.  ON */
  2    70       3 ptwm bit (1),				/* match in PTW Ass. Mem. */
  2    71       3 pt_on bit (1),				/* PTW Ass. Mem.  ON */
  2    72       3 pi_ap bit (1),				/* Instr Fetch or Append cycle */
  2    73       3 dsptw bit (1),				/* Fetch of DSPTW */
  2    74       3 sdwnp bit (1),				/* Fetch of SDW non paged */
  2    75       3 sdwp bit (1),				/* Fetch of SDW paged */
  2    76       3 ptw bit (1),				/* Fetch of PTW */
  2    77       3 ptw2 bit (1),				/* Fetch of pre-paged PTW */
  2    78       3 fap bit (1),				/* Fetch of final address paged */
  2    79       3 fanp bit (1),				/* Fetch of final address non-paged */
  2    80       3 fabs bit (1),				/* Fetch of final address absolute */
  2    81
  2    82     2 fault_cntr bit (3),				/* number of retrys of EIS instructions */
  2    83
  2    84
  2    85 /*	WORD (1)		*/
  2    86
  2    87     2 fd,						/* FAULT  DATA */
  2    88       3 iro bit (1),				/* illegal ring order */
  2    89       3 oeb bit (1),				/* out of execute bracket */
  2    90       3 e_off bit (1),				/* no execute */
  2    91       3 orb bit (1),				/* out of read bracket */
  2    92       3 r_off bit (1),				/* no read */
  2    93       3 owb bit (1),				/* out of write bracket */
  2    94       3 w_off bit (1),				/* no write */
  2    95       3 no_ga bit (1),				/* not a gate */
  2    96       3 ocb bit (1),				/* out of call bracket */
  2    97       3 ocall bit (1),				/* outward call */
  2    98       3 boc bit (1),				/* bad outward call */
  2    99       3 inret bit (1),				/* inward return */
  2   100       3 crt bit (1),				/* cross ring transfer */
  2   101       3 ralr bit (1),				/* ring alarm register */
  2   102       3 am_er bit (1),				/* associative memory fault */
  2   103       3 oosb bit (1),				/* out of segment bounds */
  2   104       3 paru bit (1),				/* processor parity upper */
  2   105       3 parl bit (1),				/* processor parity lower */
  2   106       3 onc_1 bit (1),				/* op not complete type 1 */
  2   107       3 onc_2 bit (1),				/* op not complete type 2 */
  2   108
  2   109     2 port_stat,					/* PORT  STATUS */
  2   110       3 ial bit (4),				/* illegal action lines */
  2   111       3 iac bit (3),				/* illegal action channel */
  2   112       3 con_chan bit (3),				/* connect channel */
  2   113
  2   114     2 fi_num bit (5),				/* (fault/interrupt)  number */
  2   115     2 fi_flag bit (1),				/*  1 => fault,  0 => interrupt  */
  2   116
  2   117
  2   118 /*	WORD (2)		*/
  2   119
  2   120     2 tpr,					/* TEMPORARY POINTER REGISTER */
  2   121       3 trr bit (3),				/* temporary ring register */
  2   122       3 tsr bit (15),				/* temporary segment register */
  2   123
  2   124     2 pad2 bit (9),
  2   125
  2   126     2 cpu_no bit (3),				/* CPU number */
  2   127
  2   128     2 delta bit (6),				/* tally modification DELTA */
  2   129
  2   130
  2   131 /*	WORD (3)		*/
  2   132
  2   133     2 word3 bit (18),
  2   134
  2   135     2 tsr_stat,					/* TSR STATUS for 1,2,&3 word instructions */
  2   136       3 tsna,					/* Word 1 status */
  2   137         4 prn bit (3),				/* Word 1  PR  number */
  2   138         4 prv bit (1),				/* Word 1  PR  valid bit */
  2   139       3 tsnb,					/* Word 2  status */
  2   140         4 prn bit (3),				/* Word 2  PR  number */
  2   141         4 prv bit (1),				/* Word 2  PR  valid bit */
  2   142       3 tsnc,					/* Word 3  status */
  2   143         4 prn bit (3),				/* Word 3  PR  number */
  2   144         4 prv bit (1),				/* Word 3  PR  valid bit */
  2   145
  2   146     2 tpr_tbr bit (6),				/* TPR.TBR  field */
  2   147
  2   148
  2   149 /* 	WORD (4)		*/
  2   150
  2   151     2 ilc bit (18),					/* INSTRUCTION  COUNTER */
  2   152
  2   153     2 ir,						/* INDICATOR  REGISTERS */
  2   154       3 zero bit (1),				/* zero indicator */
  2   155       3 neg bit (1),				/* negative indicator */
  2   156       3 carry bit (1),				/* carryry indicator */
  2   157       3 ovfl bit (1),				/* overflow indicator */
  2   158       3 eovf bit (1),				/* eponent overflow */
  2   159       3 eufl bit (1),				/* exponent underflow */
  2   160       3 oflm bit (1),				/* overflow mask */
  2   161       3 tro bit (1),				/* tally runout */
  2   162       3 par bit (1),				/* parity error */
  2   163       3 parm bit (1),				/* parity mask */
  2   164       3 bm bit (1),					/* ^bar mode */
  2   165       3 tru bit (1),				/* truncation mode */
  2   166       3 mif bit (1),				/* multi-word instruction mode */
  2   167       3 abs bit (1),				/* absolute mode */
  2   168       3 hex bit (1),				/* hexadecimal exponent mode */
  2   169       3 pad bit (3),
  2   170
  2   171
  2   172 /*	WORD (5)		*/
  2   173
  2   174     2 ca bit (18),					/* COMPUTED  ADDRESS */
  2   175
  2   176     2 cu,						/* CONTROL UNIT STATUS */
  2   177       3 rf bit (1),					/* on first cycle of repeat instr */
  2   178       3 rpt bit (1),				/* repeat instruction */
  2   179       3 rd bit (1),					/* repeat double instruction */
  2   180       3 rl bit (1),					/* repeat link instruciton */
  2   181       3 pot bit (1),				/* IT  modification */
  2   182       3 pon bit (1),				/* return type instruction */
  2   183       3 xde bit (1),				/* XDE from Even location */
  2   184       3 xdo bit (1),				/* XDE from Odd  location */
  2   185       3 poa bit (1),				/* operation preparation */
  2   186       3 rfi bit (1),				/* tells CPU to refetch instruction */
  2   187       3 its bit (1),				/* ITS modification */
  2   188       3 if bit (1),					/* fault occured during instruction fetch */
  2   189
  2   190     2 cpu_tag bit (6)) unaligned,			/* computed tag field */
  2   191
  2   192
  2   193 /*	WORDS (6,7)	*/
  2   194
  2   195     2 even_inst bit (36),				/* even instruction of faulting pair */
  2   196
  2   197     2 odd_inst bit (36);				/* odd  instruction of faulting pair */
  2   198
  2   199
  2   200
  2   201
  2   202
  2   203
  2   204 /*	ALTERNATE   SCU  DECLARATION		*/
  2   205
  2   206
  2   207 dcl 1 scux based (scup) aligned,
  2   208
  2   209    (2 pad0 bit (36),
  2   210
  2   211     2 fd,						/* GROUP II  FAULT DATA */
  2   212       3 isn bit (1),				/* illegal segment number */
  2   213       3 ioc bit (1),				/* illegal op  code  */
  2   214       3 ia_am bit (1),				/* illegal address - modifier */
  2   215       3 isp bit (1),				/* illegal slave  procedure */
  2   216       3 ipr bit (1),				/* illegal procedure */
  2   217       3 nea bit (1),				/* non existent address */
  2   218       3 oobb bit (1),				/* out of bounds */
  2   219       3 pad bit (29),
  2   220
  2   221     2 pad2 bit (36),
  2   222
  2   223     2 pad3a bit (18),
  2   224
  2   225     2 tsr_stat (0:2),				/* TSR  STATUS  as an  ARRAY */
  2   226       3 prn bit (3),				/* PR  number */
  2   227       3 prv bit (1),				/* PR  valid bit */
  2   228
  2   229     2 pad3b bit (6)) unaligned,
  2   230
  2   231     2 pad45 (0:1) bit (36),
  2   232
  2   233     2 instr (0:1) bit (36);				/* Instruction ARRAY */
  2   234
  2   235
  2   236
  2   237 /*  END INCLUDE FILE   mc.incl.pl1 */
       97
       98
  3     1 /* BEGIN INCLUDE FILE gtss_entry_dcls.incl.pl1 */
  3     2 /*
  3     3*  Created: (Wardd Multics)  06/30/78 1624.8 mst Fri
  3     4*  Modified: Ron Barstad  84-02-24  Fixed wrong and obsolete entries
  3     5**/
  3     6
  3     7 /**  gtss external entry variables.		**/
  3     8 dcl  com_err_                                   entry() options(variable);
  3     9 dcl  gtss_CFP_abort_                            entry options(variable);
  3    10 dcl  gtss_CFP_break_                            entry options(variable);
  3    11 dcl  gtss_CFP_input_                            entry (ptr, ptr, fixed bin(21), fixed bin(21), fixed bin(35));
  3    12 dcl  gtss_CFP_output_                           entry (ptr, ptr, fixed bin(21), fixed bin(35));
  3    13 dcl  gtss_abandon_CFP_                          entry options(variable);
  3    14 dcl  gtss_abort_dump_                           entry (fixed bin(18));
  3    15 dcl  gtss_abort_subsystem_                      entry options (variable);
  3    16 dcl  gtss_abort_subsystem_$not_imp              entry (ptr, fixed bin(24));
  3    17 dcl  gtss_abs_login_banner_		        entry() returns(char(*));
  3    18 dcl  gtss_abs_logout_banner_		        entry() returns(char(*));
  3    19 dcl  gtss_abs_$abs_equiv                        entry options(variable);
  3    20 dcl  gtss_abs_$cpu_runout		        entry (ptr, char(4));
  3    21 dcl  gtss_abs_$create_absin                     entry() returns(char(*));
  3    22 dcl  gtss_abs_$dabt_check		        entry (ptr, char(4));
  3    23 dcl  gtss_abs_$get_id                           entry (char(5)) returns(char(19));
  3    24 dcl  gtss_abs_$get_drm                          entry() returns(char(*));
  3    25 dcl  gtss_adjust_size_                          entry (ptr);
  3    26 dcl  gtss_aft_$add                              entry (char(8), fixed bin(24), fixed bin(35));
  3    27 dcl  gtss_aft_$delete                           entry (char(8), fixed bin(24), fixed bin(35));
  3    28 dcl  gtss_aft_$find                             entry (char(8), fixed bin(24), fixed bin(35));
  3    29 dcl  gtss_aft_$initialize                       entry (fixed bin(35));
  3    30 dcl  gtss_ascii_bcd_                            entry (ptr, fixed bin, ptr);
  3    31 dcl  gtss_attributes_mgr_$get                   entry (ptr, fixed bin(35));
  3    32 dcl  gtss_attributes_mgr_$set                   entry (ptr, fixed bin(35));
  3    33 dcl  gtss_bcd_ascii_                            entry (ptr, fixed bin(24), ptr);
  3    34 dcl  gtss_bcd_ascii_$lc                         entry (ptr, fixed bin(24), ptr);
  3    35 dcl  gtss_break_vector_                         entry ();
  3    36 dcl  gtss_break_vector_$drl_in_progress         entry() returns(bit(1));
  3    37 dcl  gtss_break_vector_$status                  entry() returns(bit(1));
  3    38 dcl  gtss_build_                                entry options(variable);
  3    39 dcl  gtss_com_err_                              entry options(variable);
  3    40 dcl  gtss_derail_processor_                     entry (ptr, char(*), ptr, ptr, bit(1) aligned) /* called at fault time instead of signal_ */;
  3    41 dcl  gtss_derail_processor_$set                 entry options(variable);
  3    42 dcl  gtss_dq_$catp                              entry (char (5), ptr, fixed bin (18) unsigned);
  3    43 dcl  gtss_dq_$create                            entry (bit(1));
  3    44 dcl  gtss_dq_$dibp                              entry (char(5), ptr);
  3    45 dcl  gtss_dq_$entries_info		        entry (ptr, fixed bin (18) unsigned, fixed bin (18) unsigned);
  3    46 dcl  gtss_dq_$hdrp                              entry (ptr);
  3    47 dcl  gtss_dq_$mod_js		        entry (char(5), fixed bin (6) unsigned, bit (1));
  3    48 dcl  gtss_dq_$open_exc		        entry (bit(1));
  3    49 dcl  gtss_dq_$open_gen		        entry (bit(1));
  3    50 dcl  gtss_drl_abort_                            entry (ptr, fixed bin);
  3    51 dcl  gtss_drl_addmem_                           entry (ptr, fixed bin);
  3    52 dcl  gtss_drl_callss_                           entry (ptr, fixed bin);
  3    53 dcl  gtss_drl_corfil_                           entry (ptr, fixed bin);
  3    54 dcl  gtss_drl_defil_                            entry (ptr, fixed bin);
  3    55 dcl  gtss_drl_defil_$subr                       entry (ptr, ptr, ptr);
  3    56 dcl  gtss_drl_dio_                              entry (ptr, fixed bin);
  3    57 dcl  gtss_drl_drlimt_                           entry (ptr, fixed bin);
  3    58 dcl  gtss_drl_drlsav_                           entry (ptr, fixed bin);
  3    59 dcl  gtss_drl_filact_                           entry (ptr, fixed bin);
  3    60 dcl  gtss_drl_filsp_                            entry (ptr, fixed bin);
  3    61 dcl  gtss_drl_grow_                             entry (ptr, fixed bin);
  3    62 dcl  gtss_drl_gwake_                            entry (ptr, fixed bin);
  3    63 dcl  gtss_drl_jsts_                             entry (ptr, fixed bin);
  3    64 dcl  gtss_drl_kin_                              entry (ptr, fixed bin);
  3    65 dcl  gtss_drl_kotnow_                           entry (ptr, fixed bin);
  3    66 dcl  gtss_drl_kotnow_$gtss_drl_kout_            entry (ptr, fixed bin);
  3    67 dcl  gtss_drl_koutn_                            entry (ptr, fixed bin);
  3    68 dcl  gtss_drl_morlnk_                           entry (ptr, fixed bin);
  3    69 dcl  gtss_drl_msub_                             entry (ptr, fixed bin);
  3    70 dcl  gtss_drl_objtim_                           entry (ptr, fixed bin);
  3    71 dcl  gtss_drl_part_                             entry (ptr, fixed bin);
  3    72 dcl  gtss_drl_pasaft_                           entry (ptr, fixed bin);
  3    73 dcl  gtss_drl_pasdes_                           entry (ptr, fixed bin);
  3    74 dcl  gtss_drl_pasust_                           entry (ptr, fixed bin);
  3    75 dcl  gtss_drl_pdio_                             entry (ptr, fixed bin);
  3    76 dcl  gtss_drl_prgdes_                           entry (ptr, fixed bin);
  3    77 dcl  gtss_drl_pseudo_                           entry (ptr, fixed bin);
  3    78 dcl  gtss_drl_relmem_                           entry (ptr, fixed bin);
  3    79 dcl  gtss_drl_restor_                           entry (ptr, fixed bin);
  3    80 dcl  gtss_drl_retfil_                           entry (ptr, fixed bin);
  3    81 dcl  gtss_drl_return_                           entry (ptr, fixed bin);
  3    82 dcl  gtss_drl_rew_                              entry (ptr, fixed bin);
  3    83 dcl  gtss_drl_rstswh_                           entry (ptr, fixed bin);
  3    84 dcl  gtss_drl_setlno_                           entry (ptr, fixed bin);
  3    85 dcl  gtss_drl_setswh_                           entry (ptr, fixed bin);
  3    86 dcl  gtss_drl_snumb_                            entry (ptr, fixed bin);
  3    87 dcl  gtss_drl_spawn_                            entry (ptr, fixed bin);
  3    88 dcl  gtss_drl_spawn_$gtss_drl_pasflr_           entry (ptr, fixed bin);
  3    89 dcl  gtss_drl_stoppt_                           entry (ptr, fixed bin);
  3    90 dcl  gtss_drl_switch_                           entry (ptr, fixed bin);
  3    91 dcl  gtss_drl_sysret_                           entry (ptr, fixed bin);
  3    92 dcl  gtss_drl_t_cfio_                           entry (ptr, fixed bin);
  3    93 dcl  gtss_drl_t_cmov_                           entry (ptr, fixed bin);
  3    94 dcl  gtss_drl_t_err_                            entry (ptr, fixed bin);
  3    95 dcl  gtss_drl_t_goto_                           entry (ptr, fixed bin);
  3    96 dcl  gtss_drl_t_linl_                           entry (ptr, fixed bin);
  3    97 dcl  gtss_drl_t_rscc_                           entry (ptr, fixed bin);
  3    98 dcl  gtss_drl_tapein_                           entry (ptr, fixed bin);
  3    99 dcl  gtss_drl_task_                             entry (ptr, fixed bin);
  3   100 dcl  gtss_drl_termtp_                           entry (ptr, fixed bin);
  3   101 dcl  gtss_drl_time_                             entry (ptr, fixed bin);
  3   102 dcl  gtss_drun_                                 entry (bit(1));
  3   103 dcl  gtss_dsd_lookup_                           entry (char(8) var) returns(fixed bin(24));
  3   104 dcl  gtss_dsd_process_                          entry (ptr, ptr, fixed bin(21), fixed bin(21), fixed bin(35));
  3   105 dcl  gtss_edit_dsd_                             entry (ptr, fixed bin(21)) returns(fixed bin(24));
  3   106 dcl  gtss_mcfc_empty                            entry (char(*) var);
  3   107 dcl  gtss_expand_pathname_                      entry (ptr, char(*), char(*), fixed bin(35));
  3   108 dcl  gtss_expand_pathname_$verify_umc           entry (ptr, char(*), char(*), bit(18), fixed bin(35));
  3   109 dcl  gtss_fault_processor_                      entry options(variable);
  3   110 dcl  gtss_find_cond_frame_		        entry (char(32) var) returns(ptr);
  3   111 dcl  gtss_fault_processor_$timer_runout         entry (ptr, char(*));
  3   112 dcl  gtss_filact_error_status_                  entry (fixed bin(35))returns(bit(12));
  3   113 dcl  gtss_filact_funct02_                       entry (ptr, bit(18), ptr, ptr, ptr, fixed bin(35));
  3   114 dcl  gtss_filact_funct03_                       entry (ptr, bit(18), ptr, ptr, ptr, fixed bin(35));
  3   115 dcl  gtss_filact_funct04_                       entry (ptr, bit(18), ptr, ptr, ptr, fixed bin(35));
  3   116 dcl  gtss_filact_funct05_                       entry (ptr, bit(18), ptr, ptr, ptr, fixed bin(35));
  3   117 dcl  gtss_filact_funct08_                       entry (ptr, bit(18), ptr, ptr, ptr, fixed bin(35));
  3   118 dcl  gtss_filact_funct10_                       entry (ptr, bit(18), ptr, ptr, ptr, fixed bin(35));
  3   119 dcl  gtss_filact_funct11_                       entry (ptr, bit(18), ptr, ptr, ptr, fixed bin(35));
  3   120 dcl  gtss_filact_funct14_                       entry (ptr, bit(18), ptr, ptr, ptr, fixed bin(35));
  3   121 dcl  gtss_filact_funct18_                       entry (ptr, bit(18), ptr, ptr, ptr, fixed bin(35));
  3   122 dcl  gtss_filact_funct19_                       entry (ptr, bit(18), ptr, ptr, ptr, fixed bin(35));
  3   123 dcl  gtss_filact_funct21_                       entry (ptr, bit(18), ptr, ptr, ptr, fixed bin(35));
  3   124 dcl  gtss_filact_funct22_                       entry (ptr, bit(18), ptr, ptr, ptr, fixed bin(35));
  3   125 dcl  gtss_mcfc_init_                            entry (char(*) var);
  3   126 dcl  gtss_interp_prim_                          entry options(variable);
  3   127 dcl  gtss_interp_prim_$callss                   entry (char(4), ptr);
  3   128 dcl  gtss_interp_prim_$sysret                   entry options(variable);
  3   129 dcl  gtss_interp_prim_$t_goto                   entry (char(4));
  3   130 dcl  gtss_ios_change_size_                      entry (fixed bin(24), fixed bin(24), bit(1), fixed bin(24), fixed bin(35));
  3   131 dcl  gtss_ios_close_                            entry (fixed bin(24), ptr, fixed bin(35));
  3   132 dcl  gtss_ios_exchange_names_                   entry (fixed bin(24), fixed bin(24), fixed bin(24), fixed bin(35));
  3   133 dcl  gtss_ios_initialize_                       entry options(variable);
  3   134 dcl  gtss_ios_io_                               entry (fixed bin(24), ptr, ptr, fixed bin(24), fixed bin(24), fixed bin(35));
  3   135 dcl  gtss_ios_open_                             entry (fixed bin(24), char(168), char(32), bit(6), bit(1), ptr, ptr, fixed bin(35));
  3   136 dcl  gtss_ios_position_                         entry (fixed bin(24), fixed bin(24), fixed bin(24), bit(6), ptr);
  3   137 dcl  gtss_mcfc_$delete		        entry (fixed bin(24), char(*), char(*), bit(36) aligned, ptr, fixed bin(35));
  3   138 dcl  gtss_mcfc_$open                            entry (char(*), char(*), bit(6), bit(36) aligned, ptr, fixed bin(35));
  3   139 dcl  gtss_mcfc_$close                           entry (char(*), char(*), bit(36) aligned, ptr, fixed bin(35));
  3   140 dcl  gtss_read_starCFP_                         entry (ptr, ptr, fixed bin(21), fixed bin(21), fixed bin(35));
  3   141 dcl  gtss_read_starCFP_$last_os                 entry (ptr, ptr, fixed bin(21), fixed bin(21), fixed bin(35));
  3   142 dcl  gtss_run_subsystem_                        entry (fixed bin(24));
  3   143 dcl  gtss_run_subsystem_$finish                 entry options(variable);
  3   144 dcl  gtss_run_subsystem_$restor                 entry (fixed bin(24), ptr);
  3   145 dcl  gtss_run_subsystem_$restor_perm            entry (fixed bin(24), ptr, fixed bin(18));
  3   146 dcl  gtss_set_slave_                            entry (fixed bin (24), ptr);
  3   147 dcl  gtss_set_slave_$load_bar                   entry (fixed bin (17));
  3   148 dcl  gtss_update_safe_store_                    entry (ptr);
  3   149 dcl  gtss_verify_access_		        entry (char(*), char(*), fixed bin(24), bit(6), bit(12) aligned);
  3   150 dcl  gtss_verify_access_$check_forced_access    entry (char(*), char(*), fixed bin(24));
  3   151 dcl  gtss_write_starCFP_                        entry (ptr, ptr, fixed bin(21), fixed bin(35));
  3   152 /*   END INCLUDE FILE gtss_entry_dcls.incl.pl1 */
       99
      100
  4     1 /* 	BEGIN INCLUDE FILE ... stack_header.incl.pl1 .. 3/72 Bill Silver  */
  4     2 /*	modified 7/76 by M. Weaver for *system links and more system use of areas */
  4     3 /*	modified 3/77 by M. Weaver to add rnt_ptr */
  4     4 /*	Modified April 1983 by C. Hornig for tasking */
  4     5
  4     6 /****^  HISTORY COMMENTS:
  4     7*  1) change(86-06-24,DGHowe), approve(86-06-24,MCR7396),
  4     8*     audit(86-08-05,Schroth), install(86-11-03,MR12.0-1206):
  4     9*     added the heap_header_ptr definition.
  4    10*  2) change(86-08-12,Kissel), approve(86-08-12,MCR7473),
  4    11*     audit(86-10-10,Fawcett), install(86-11-03,MR12.0-1206):
  4    12*     Modified to support control point management.  These changes were actually
  4    13*     made in February 1985 by G. Palter.
  4    14*  3) change(86-10-22,Fawcett), approve(86-10-22,MCR7473),
  4    15*     audit(86-10-22,Farley), install(86-11-03,MR12.0-1206):
  4    16*     Remove the old_lot pointer and replace it with cpm_data_ptr. Use the 18
  4    17*     bit pad after cur_lot_size for the cpm_enabled. This was done to save some
  4    18*     space int the stack header and change the cpd_ptr unal to cpm_data_ptr
  4    19*     (ITS pair).
  4    20*                                                   END HISTORY COMMENTS */
  4    21
  4    22 /* format: style2 */
  4    23
  4    24      dcl	   sb		      ptr;		/* the  main pointer to the stack header */
  4    25
  4    26      dcl	   1 stack_header	      based (sb) aligned,
  4    27 	     2 pad1	      (4) fixed bin,	/*  (0) also used as arg list by outward_call_handler  */
  4    28 	     2 cpm_data_ptr	      ptr,		/*  (4)  pointer to control point which owns this stack */
  4    29 	     2 combined_stat_ptr  ptr,		/*  (6)  pointer to area containing separate static */
  4    30 	     2 clr_ptr	      ptr,		/*  (8)  pointer to area containing linkage sections */
  4    31 	     2 max_lot_size	      fixed bin (17) unal,	/*  (10) DU  number of words allowed in lot */
  4    32 	     2 main_proc_invoked  fixed bin (11) unal,	/*  (10) DL  nonzero if main procedure invoked in run unit */
  4    33 	     2 have_static_vlas   bit (1) unal,		/*  (10) DL  "1"b if (very) large arrays are being used in static */
  4    34 	     2 pad4	      bit (2) unal,
  4    35 	     2 run_unit_depth     fixed bin (2) unal,	/*  (10) DL  number of active run units stacked */
  4    36 	     2 cur_lot_size	      fixed bin (17) unal,	/*  (11) DU  number of words (entries) in lot */
  4    37 	     2 cpm_enabled	      bit (18) unal,	/*  (11) DL  non-zero if control point management is enabled */
  4    38 	     2 system_free_ptr    ptr,		/*  (12)  pointer to system storage area */
  4    39 	     2 user_free_ptr      ptr,		/*  (14)  pointer to user storage area */
  4    40 	     2 null_ptr	      ptr,		/*  (16)  */
  4    41 	     2 stack_begin_ptr    ptr,		/*  (18)  pointer to first stack frame on the stack */
  4    42 	     2 stack_end_ptr      ptr,		/*  (20)  pointer to next useable stack frame */
  4    43 	     2 lot_ptr	      ptr,		/*  (22)  pointer to the lot for the current ring */
  4    44 	     2 signal_ptr	      ptr,		/*  (24)  pointer to signal procedure for current ring */
  4    45 	     2 bar_mode_sp	      ptr,		/*  (26)  value of sp before entering bar mode */
  4    46 	     2 pl1_operators_ptr  ptr,		/*  (28)  pointer to pl1_operators_$operator_table */
  4    47 	     2 call_op_ptr	      ptr,		/*  (30)  pointer to standard call operator */
  4    48 	     2 push_op_ptr	      ptr,		/*  (32)  pointer to standard push operator */
  4    49 	     2 return_op_ptr      ptr,		/*  (34)  pointer to standard return operator */
  4    50 	     2 return_no_pop_op_ptr
  4    51 			      ptr,		/*  (36)  pointer to standard return / no pop operator */
  4    52 	     2 entry_op_ptr	      ptr,		/*  (38)  pointer to standard entry operator */
  4    53 	     2 trans_op_tv_ptr    ptr,		/*  (40)  pointer to translator operator ptrs */
  4    54 	     2 isot_ptr	      ptr,		/*  (42)  pointer to ISOT */
  4    55 	     2 sct_ptr	      ptr,		/*  (44)  pointer to System Condition Table */
  4    56 	     2 unwinder_ptr	      ptr,		/*  (46)  pointer to unwinder for current ring */
  4    57 	     2 sys_link_info_ptr  ptr,		/*  (48)  pointer to *system link name table */
  4    58 	     2 rnt_ptr	      ptr,		/*  (50)  pointer to Reference Name Table */
  4    59 	     2 ect_ptr	      ptr,		/*  (52)  pointer to event channel table */
  4    60 	     2 assign_linkage_ptr ptr,		/*  (54)  pointer to storage for (obsolete) hcs_$assign_linkage */
  4    61 	     2 heap_header_ptr     ptr,		/*  (56)  pointer to the heap header for this ring */
  4    62 	     2 trace,
  4    63 	       3 frames,
  4    64 	         4 count	      fixed bin,		/*  (58)  number of trace frames */
  4    65 	         4 top_ptr	      ptr unal,		/*  (59)  pointer to last trace frame */
  4    66 	       3 in_trace	      bit (36) aligned,	/*  (60)  trace antirecursion flag */
  4    67 	     2 pad2	      bit (36),		/*  (61) */
  4    68                2 pad5	      pointer;		/*  (62)  pointer to future stuff */
  4    69
  4    70 /*	The following offset refers to a table within the  pl1  operator table.  */
  4    71
  4    72      dcl	   tv_offset	      fixed bin init (361) internal static;
  4    73 						/* (551) octal */
  4    74
  4    75
  4    76 /*	The following constants are offsets within this transfer vector table.  */
  4    77
  4    78      dcl	   (
  4    79 	   call_offset	      fixed bin init (271),
  4    80 	   push_offset	      fixed bin init (272),
  4    81 	   return_offset	      fixed bin init (273),
  4    82 	   return_no_pop_offset   fixed bin init (274),
  4    83 	   entry_offset	      fixed bin init (275)
  4    84 	   )		      internal static;
  4    85
  4    86
  4    87
  4    88
  4    89
  4    90 /*	The following declaration  is an overlay of the whole stack header.   Procedures which
  4    91*	move the whole stack header should use this overlay.
  4    92**/
  4    93
  4    94      dcl	   stack_header_overlay   (size (stack_header)) fixed bin based (sb);
  4    95
  4    96
  4    97
  4    98 /* 	END INCLUDE FILE ... stack_header.incl.pl1 */
      101
      102
  5     1 /* BEGIN INCLUDE FILE gtss_db_names.incl.pl1 */
  5     2 /*
  5     3*  Created:  (Wardd Multics)  03/29/79 1909.1 mst Thu
  5     4**/
  5     5
  5     6 /* To provide a new debugging switch:
  5     7*
  5     8*   1) Locate the comment "Insert next entry above this comment".
  5     9*
  5    10*   2) Place a new declaration for a db_ variable just
  5    11*      above this comment, in the same manner as the
  5    12*      current declaration just above the comment, using
  5    13*      the next integer gtss_ext_$db index.
  5    14*
  5    15*   3) Execute the gtss|db_names ted macro (this updates
  5    16*      the sorted name table).
  5    17*
  5    18*   4) Example use:
  5    19*
  5    20*      if db_drl_grow then do;
  5    21*      .
  5    22*      .
  5    23*      .
  5    24*      debug i/o statements using com_err_ or ioa_
  5    25*      .
  5    26*      .
  5    27*      .
  5    28*      end;
  5    29*
  5    30**/
  5    31
  5    32 dcl (
  5    33  db_		bit(1) defined(gtss_ext_$db(01))
  5    34 ,db_CFP_input	bit(1) defined(gtss_ext_$db(02))
  5    35 ,db_drl_addmem	bit(1) defined(gtss_ext_$db(03))
  5    36 ,db_drl_defil	bit(1) defined(gtss_ext_$db(04))
  5    37 ,db_drl_filact	bit(1) defined(gtss_ext_$db(05))
  5    38 ,db_drl_filsp	bit(1) defined(gtss_ext_$db(06))
  5    39 ,db_drl_grow	bit(1) defined(gtss_ext_$db(07))
  5    40 ,db_drl_rew	bit(1) defined(gtss_ext_$db(08))
  5    41 ,db_filact_funct02	bit(1) defined(gtss_ext_$db(09))
  5    42 ,db_filact_funct03	bit(1) defined(gtss_ext_$db(10))
  5    43 ,db_filact_funct04	bit(1) defined(gtss_ext_$db(11))
  5    44 ,db_filact_funct05	bit(1) defined(gtss_ext_$db(12))
  5    45 ,db_filact_funct10	bit(1) defined(gtss_ext_$db(13))
  5    46 ,db_filact_funct11	bit(1) defined(gtss_ext_$db(14))
  5    47 ,db_filact_funct14	bit(1) defined(gtss_ext_$db(15))
  5    48 ,db_filact_funct18	bit(1) defined(gtss_ext_$db(16))
  5    49 ,db_filact_funct19	bit(1) defined(gtss_ext_$db(17))
  5    50 ,db_filact_funct21	bit(1) defined(gtss_ext_$db(18))
  5    51 ,db_filact_funct22	bit(1) defined(gtss_ext_$db(19))
  5    52 ,db_interp_prim	bit(1) defined(gtss_ext_$db(20))
  5    53 ,db_ios		bit(1) defined(gtss_ext_$db(21))
  5    54 ,db_run_subsystem	bit(1) defined(gtss_ext_$db(22))
  5    55 ,db_drl_t_cfio	bit(1) defined(gtss_ext_$db(23))
  5    56 ,db_drl_switch	bit(1) defined(gtss_ext_$db(24))
  5    57 ,db_drl_dio	bit(1) defined(gtss_ext_$db(25))
  5    58 ,db_drl_retfil	bit(1) defined(gtss_ext_$db(26))
  5    59 ,db_drl_msub	bit(1) defined(gtss_ext_$db(27))
  5    60 ,db_drl_callss	bit(1) defined(gtss_ext_$db(28))
  5    61 ,db_drl_rstswh	bit(1) defined(gtss_ext_$db(29))
  5    62 ,db_drl_setswh	bit(1) defined(gtss_ext_$db(30))
  5    63 ,db_mcfc		bit(1) defined(gtss_ext_$db(31))
  5    64 ,db_dq		bit(1) defined(gtss_ext_$db(32))
  5    65 ,db_abs		bit(1) defined(gtss_ext_$db(33))
  5    66 ,db_attributes_mgr	bit(1) defined(gtss_ext_$db(34))
  5    67 ,db_expand_pathname bit(1) defined(gtss_ext_$db(35))
  5    68 ,db_drl_part	bit(1) defined(gtss_ext_$db(36))
  5    69 ,db_drl_morlnk	bit(1) defined(gtss_ext_$db(37))
  5    70 ,db_drl_kin	bit(1) defined(gtss_ext_$db(38))
  5    71 /* Insert next entry above this comment. */
  5    72 );
  5    73
  5    74 /* Table of sorted names. */
  5    75 dcl 1 debug_bit_names (38) static int options(constant)
  5    76 ,     2 name char(18)var init(
  5    77          "" ,"CFP_input" ,"abs" ,"attributes_mgr" ,"dq" ,"drl_addmem"
  5    78          ,"drl_callss" ,"drl_defil" ,"drl_dio" ,"drl_filact" ,"drl_filsp"
  5    79          ,"drl_grow" ,"drl_kin" ,"drl_morlnk" ,"drl_msub" ,"drl_part"
  5    80          ,"drl_retfil" ,"drl_rew" ,"drl_rstswh" ,"drl_setswh" ,"drl_switch"
  5    81          ,"drl_t_cfio" ,"expand_pathname" ,"filact_funct02" ,"filact_funct03"
  5    82          ,"filact_funct04" ,"filact_funct05" ,"filact_funct10" ,"filact_funct11"
  5    83          ,"filact_funct14" ,"filact_funct18" ,"filact_funct19" ,"filact_funct21"
  5    84          ,"filact_funct22" ,"interp_prim" ,"ios" ,"mcfc" ,"run_subsystem"
  5    85 			)
  5    86 ,     2 value fixed bin init(
  5    87          01 ,02 ,33 ,34 ,32 ,03 ,28 ,04 ,25 ,05 ,06 ,07 ,38 ,37 ,27 ,36 ,26 ,08
  5    88          ,29 ,30 ,24 ,23 ,35 ,09 ,10 ,11 ,12 ,13 ,14 ,15 ,16 ,17 ,18 ,19 ,20 ,21
  5    89          ,31 ,22
  5    90 			);
  5    91 /* End of table. */
  5    92 /*   END INCLUDE FILE gtss_db_names.incl.pl1 */
      103
      104      end gtss_drl_callss_;
	SOURCE FILES USED IN THIS COMPILATION.

LINE      NUMBER  DATE MODIFIED     NAME			PATHNAME
             0    11/04/86  1034.1  gtss_drl_callss_.pl1              >special_ldd>install>MR12.0-1206>gtss_drl_callss_.pl1
95           1    09/09/83  1713.8  gtss_ext_.incl.pl1                >ldd>include>gtss_ext_.incl.pl1
97           2    12/15/83  1100.4  mc.incl.pl1                       >ldd>include>mc.incl.pl1
99           3    12/11/84  1420.0  gtss_entry_dcls.incl.pl1          >ldd>include>gtss_entry_dcls.incl.pl1
101          4    11/04/86  1324.3  stack_header.incl.pl1             >special_ldd>install>MR12.0-1206>stack_header.incl.pl1
103          5    09/09/83  1713.6  gtss_db_names.incl.pl1            >ldd>include>gtss_db_names.incl.pl1
	NAMES DECLARED IN THIS COMPILATION.

IDENTIFIER	     OFFSET    LOC STORAGE CLASS   DATA TYPE		ATTRIBUTES AND REFERENCES
								(* indicates a set context)

NAMES DECLARED BY DECLARE STATEMENT.
ap                                     parameter       pointer                  dcl 65 ref 64 67
arg_list                               based           structure                level 1 dcl 91
arg_list_ptr                    000100 automatic       pointer                  initial dcl 86 set ref 49* 53 54 56 67* 76 78 86*
bar_mode_sp              32            based           pointer                  level 2 dcl 4-26 set ref 74 81*
bar_mode_stack_ptr              000102 automatic       pointer                  dcl 87 set ref 68 74* 81
db_drl_callss                          defined         bit(1)                   unaligned dcl 5-32 ref 54 76
gseg                            000104 automatic       pointer                  initial dcl 88 set ref 48* 49 88*
gtss_ext_$db                    000012 external static bit(1)                   array unaligned dcl 1-10 ref 54 54 76 76
gtss_ext_$gtss_slave_area_seg   000014 external static pointer                  array dcl 1-20 ref 48
gtss_ext_$stack_level_          000016 external static fixed bin(17,0)          dcl 1-31 ref 48
gtss_interp_prim_$callss        000020 constant        entry                    external dcl 3-127 ref 78
gtss_interp_prim_$t_goto        000022 constant        entry                    external dcl 3-129 ref 56
ilc                       4            based           bit(18)                  level 2 packed unaligned dcl 2-56 ref 49
increment                              parameter       fixed bin(17,0)          dcl 26 set ref 14 46* 64
ioa_                            000010 constant        entry                    external dcl 89 ref 54 76
mc                                     based           structure                level 1 dcl 2-12
mcp                             000106 automatic       pointer                  dcl 2-10 set ref 28* 47 66* 78*
mcpp                                   parameter       pointer                  dcl 27 ref 14 28
next_instruction          1            based           bit(36)                  level 2 dcl 91 ref 53
sb                              000112 automatic       pointer                  dcl 4-24 set ref 68* 74 81
scu                      30            based           bit(36)                  array level 2 in structure "mc" packed unaligned
                                                                                  dcl 2-12 in procedure "gtss_drl_callss_" set ref
                                                                                  47
scu                                    based           structure                level 1 dcl 2-56 in procedure "gtss_drl_callss_"
scup                            000110 automatic       pointer                  dcl 2-54 set ref 47* 49
ss_name                                based           char(4)                  level 2 packed unaligned dcl 91 set ref 54* 56* 76*
                                                                                  78*
stack_header                           based           structure                level 1 dcl 4-26

NAMES DECLARED BY DECLARE STATEMENT AND NEVER REFERENCED.
abx                                    internal static fixed bin(17,0)          initial dcl 2-42
apx                                    internal static fixed bin(17,0)          initial dcl 2-42
bbx                                    internal static fixed bin(17,0)          initial dcl 2-42
bpx                                    internal static fixed bin(17,0)          initial dcl 2-42
call_offset                            internal static fixed bin(17,0)          initial dcl 4-78
com_err_                        000000 constant        entry                    external dcl 3-8
db_                                    defined         bit(1)                   unaligned dcl 5-32
db_CFP_input                           defined         bit(1)                   unaligned dcl 5-32
db_abs                                 defined         bit(1)                   unaligned dcl 5-32
db_attributes_mgr                      defined         bit(1)                   unaligned dcl 5-32
db_dq                                  defined         bit(1)                   unaligned dcl 5-32
db_drl_addmem                          defined         bit(1)                   unaligned dcl 5-32
db_drl_defil                           defined         bit(1)                   unaligned dcl 5-32
db_drl_dio                             defined         bit(1)                   unaligned dcl 5-32
db_drl_filact                          defined         bit(1)                   unaligned dcl 5-32
db_drl_filsp                           defined         bit(1)                   unaligned dcl 5-32
db_drl_grow                            defined         bit(1)                   unaligned dcl 5-32
db_drl_kin                             defined         bit(1)                   unaligned dcl 5-32
db_drl_morlnk                          defined         bit(1)                   unaligned dcl 5-32
db_drl_msub                            defined         bit(1)                   unaligned dcl 5-32
db_drl_part                            defined         bit(1)                   unaligned dcl 5-32
db_drl_retfil                          defined         bit(1)                   unaligned dcl 5-32
db_drl_rew                             defined         bit(1)                   unaligned dcl 5-32
db_drl_rstswh                          defined         bit(1)                   unaligned dcl 5-32
db_drl_setswh                          defined         bit(1)                   unaligned dcl 5-32
db_drl_switch                          defined         bit(1)                   unaligned dcl 5-32
db_drl_t_cfio                          defined         bit(1)                   unaligned dcl 5-32
db_expand_pathname                     defined         bit(1)                   unaligned dcl 5-32
db_filact_funct02                      defined         bit(1)                   unaligned dcl 5-32
db_filact_funct03                      defined         bit(1)                   unaligned dcl 5-32
db_filact_funct04                      defined         bit(1)                   unaligned dcl 5-32
db_filact_funct05                      defined         bit(1)                   unaligned dcl 5-32
db_filact_funct10                      defined         bit(1)                   unaligned dcl 5-32
db_filact_funct11                      defined         bit(1)                   unaligned dcl 5-32
db_filact_funct14                      defined         bit(1)                   unaligned dcl 5-32
db_filact_funct18                      defined         bit(1)                   unaligned dcl 5-32
db_filact_funct19                      defined         bit(1)                   unaligned dcl 5-32
db_filact_funct21                      defined         bit(1)                   unaligned dcl 5-32
db_filact_funct22                      defined         bit(1)                   unaligned dcl 5-32
db_interp_prim                         defined         bit(1)                   unaligned dcl 5-32
db_ios                                 defined         bit(1)                   unaligned dcl 5-32
db_mcfc                                defined         bit(1)                   unaligned dcl 5-32
db_run_subsystem                       defined         bit(1)                   unaligned dcl 5-32
debug_bit_names                        internal static structure                array level 1 unaligned dcl 5-75
entry_offset                           internal static fixed bin(17,0)          initial dcl 4-78
gtss_CFP_abort_                 000000 constant        entry                    external dcl 3-9
gtss_CFP_break_                 000000 constant        entry                    external dcl 3-10
gtss_CFP_input_                 000000 constant        entry                    external dcl 3-11
gtss_CFP_output_                000000 constant        entry                    external dcl 3-12
gtss_abandon_CFP_               000000 constant        entry                    external dcl 3-13
gtss_abort_dump_                000000 constant        entry                    external dcl 3-14
gtss_abort_subsystem_           000000 constant        entry                    external dcl 3-15
gtss_abort_subsystem_$not_imp   000000 constant        entry                    external dcl 3-16
gtss_abs_$abs_equiv             000000 constant        entry                    external dcl 3-19
gtss_abs_$cpu_runout            000000 constant        entry                    external dcl 3-20
gtss_abs_$create_absin          000000 constant        entry                    external dcl 3-21
gtss_abs_$dabt_check            000000 constant        entry                    external dcl 3-22
gtss_abs_$get_drm               000000 constant        entry                    external dcl 3-24
gtss_abs_$get_id                000000 constant        entry                    external dcl 3-23
gtss_abs_login_banner_          000000 constant        entry                    external dcl 3-17
gtss_abs_logout_banner_         000000 constant        entry                    external dcl 3-18
gtss_adjust_size_               000000 constant        entry                    external dcl 3-25
gtss_aft_$add                   000000 constant        entry                    external dcl 3-26
gtss_aft_$delete                000000 constant        entry                    external dcl 3-27
gtss_aft_$find                  000000 constant        entry                    external dcl 3-28
gtss_aft_$initialize            000000 constant        entry                    external dcl 3-29
gtss_ascii_bcd_                 000000 constant        entry                    external dcl 3-30
gtss_attributes_mgr_$get        000000 constant        entry                    external dcl 3-31
gtss_attributes_mgr_$set        000000 constant        entry                    external dcl 3-32
gtss_bcd_ascii_                 000000 constant        entry                    external dcl 3-33
gtss_bcd_ascii_$lc              000000 constant        entry                    external dcl 3-34
gtss_break_vector_              000000 constant        entry                    external dcl 3-35
gtss_break_vector_$drl_in_progress
                                000000 constant        entry                    external dcl 3-36
gtss_break_vector_$status       000000 constant        entry                    external dcl 3-37
gtss_build_                     000000 constant        entry                    external dcl 3-38
gtss_com_err_                   000000 constant        entry                    external dcl 3-39
gtss_derail_processor_          000000 constant        entry                    external dcl 3-40
gtss_derail_processor_$set      000000 constant        entry                    external dcl 3-41
gtss_dq_$catp                   000000 constant        entry                    external dcl 3-42
gtss_dq_$create                 000000 constant        entry                    external dcl 3-43
gtss_dq_$dibp                   000000 constant        entry                    external dcl 3-44
gtss_dq_$entries_info           000000 constant        entry                    external dcl 3-45
gtss_dq_$hdrp                   000000 constant        entry                    external dcl 3-46
gtss_dq_$mod_js                 000000 constant        entry                    external dcl 3-47
gtss_dq_$open_exc               000000 constant        entry                    external dcl 3-48
gtss_dq_$open_gen               000000 constant        entry                    external dcl 3-49
gtss_drl_abort_                 000000 constant        entry                    external dcl 3-50
gtss_drl_addmem_                000000 constant        entry                    external dcl 3-51
gtss_drl_callss_                000000 constant        entry                    external dcl 3-52
gtss_drl_corfil_                000000 constant        entry                    external dcl 3-53
gtss_drl_defil_                 000000 constant        entry                    external dcl 3-54
gtss_drl_defil_$subr            000000 constant        entry                    external dcl 3-55
gtss_drl_dio_                   000000 constant        entry                    external dcl 3-56
gtss_drl_drlimt_                000000 constant        entry                    external dcl 3-57
gtss_drl_drlsav_                000000 constant        entry                    external dcl 3-58
gtss_drl_filact_                000000 constant        entry                    external dcl 3-59
gtss_drl_filsp_                 000000 constant        entry                    external dcl 3-60
gtss_drl_grow_                  000000 constant        entry                    external dcl 3-61
gtss_drl_gwake_                 000000 constant        entry                    external dcl 3-62
gtss_drl_jsts_                  000000 constant        entry                    external dcl 3-63
gtss_drl_kin_                   000000 constant        entry                    external dcl 3-64
gtss_drl_kotnow_                000000 constant        entry                    external dcl 3-65
gtss_drl_kotnow_$gtss_drl_kout_ 000000 constant        entry                    external dcl 3-66
gtss_drl_koutn_                 000000 constant        entry                    external dcl 3-67
gtss_drl_morlnk_                000000 constant        entry                    external dcl 3-68
gtss_drl_msub_                  000000 constant        entry                    external dcl 3-69
gtss_drl_objtim_                000000 constant        entry                    external dcl 3-70
gtss_drl_part_                  000000 constant        entry                    external dcl 3-71
gtss_drl_pasaft_                000000 constant        entry                    external dcl 3-72
gtss_drl_pasdes_                000000 constant        entry                    external dcl 3-73
gtss_drl_pasust_                000000 constant        entry                    external dcl 3-74
gtss_drl_pdio_                  000000 constant        entry                    external dcl 3-75
gtss_drl_prgdes_                000000 constant        entry                    external dcl 3-76
gtss_drl_pseudo_                000000 constant        entry                    external dcl 3-77
gtss_drl_relmem_                000000 constant        entry                    external dcl 3-78
gtss_drl_restor_                000000 constant        entry                    external dcl 3-79
gtss_drl_retfil_                000000 constant        entry                    external dcl 3-80
gtss_drl_return_                000000 constant        entry                    external dcl 3-81
gtss_drl_rew_                   000000 constant        entry                    external dcl 3-82
gtss_drl_rstswh_                000000 constant        entry                    external dcl 3-83
gtss_drl_setlno_                000000 constant        entry                    external dcl 3-84
gtss_drl_setswh_                000000 constant        entry                    external dcl 3-85
gtss_drl_snumb_                 000000 constant        entry                    external dcl 3-86
gtss_drl_spawn_                 000000 constant        entry                    external dcl 3-87
gtss_drl_spawn_$gtss_drl_pasflr_
                                000000 constant        entry                    external dcl 3-88
gtss_drl_stoppt_                000000 constant        entry                    external dcl 3-89
gtss_drl_switch_                000000 constant        entry                    external dcl 3-90
gtss_drl_sysret_                000000 constant        entry                    external dcl 3-91
gtss_drl_t_cfio_                000000 constant        entry                    external dcl 3-92
gtss_drl_t_cmov_                000000 constant        entry                    external dcl 3-93
gtss_drl_t_err_                 000000 constant        entry                    external dcl 3-94
gtss_drl_t_goto_                000000 constant        entry                    external dcl 3-95
gtss_drl_t_linl_                000000 constant        entry                    external dcl 3-96
gtss_drl_t_rscc_                000000 constant        entry                    external dcl 3-97
gtss_drl_tapein_                000000 constant        entry                    external dcl 3-98
gtss_drl_task_                  000000 constant        entry                    external dcl 3-99
gtss_drl_termtp_                000000 constant        entry                    external dcl 3-100
gtss_drl_time_                  000000 constant        entry                    external dcl 3-101
gtss_drun_                      000000 constant        entry                    external dcl 3-102
gtss_dsd_lookup_                000000 constant        entry                    external dcl 3-103
gtss_dsd_process_               000000 constant        entry                    external dcl 3-104
gtss_edit_dsd_                  000000 constant        entry                    external dcl 3-105
gtss_expand_pathname_           000000 constant        entry                    external dcl 3-107
gtss_expand_pathname_$verify_umc
                                000000 constant        entry                    external dcl 3-108
gtss_ext_$CFP_bits                     external static structure                level 1 dcl 1-37
gtss_ext_$SYstarstar_file_no           external static fixed bin(24,0)          dcl 1-33
gtss_ext_$aem                          external static fixed bin(17,0)          dcl 1-8
gtss_ext_$aft                          external static structure                level 1 dcl 1-78
gtss_ext_$bad_drl_rtrn                 external static label variable           dcl 1-9
gtss_ext_$com_reg                      external static structure                level 1 dcl 1-45
gtss_ext_$deferred_catalogs_ptr        external static pointer                  dcl 1-11
gtss_ext_$dispose_of_drl               external static label variable           dcl 1-12
gtss_ext_$drl_rtrn                     external static label variable           array dcl 1-13
gtss_ext_$drm_path                     external static char(168)                unaligned dcl 1-14
gtss_ext_$drun_jid                     external static char(5)                  unaligned dcl 1-15
gtss_ext_$event_channel                external static fixed bin(71,0)          dcl 1-16
gtss_ext_$fast_lib                     external static structure                level 1 dcl 1-98
gtss_ext_$finished                     external static label variable           dcl 1-17
gtss_ext_$flags                        external static structure                level 1 dcl 1-60
gtss_ext_$gdb_name                     external static char(8)                  unaligned dcl 1-18
gtss_ext_$get_line                     external static entry variable           dcl 1-19
gtss_ext_$hcs_work_area_ptr            external static pointer                  dcl 1-21
gtss_ext_$homedir                      external static char(64)                 unaligned dcl 1-22
gtss_ext_$last_k_was_out               external static bit(1)                   dcl 1-23
gtss_ext_$mcfc                         external static structure                level 1 dcl 1-109
gtss_ext_$pdir                         external static varying char(168)        dcl 1-24
gtss_ext_$popup_from_pi                external static label variable           dcl 1-25
gtss_ext_$ppt                          external static pointer                  dcl 1-94
gtss_ext_$process_type                 external static fixed bin(17,0)          dcl 1-26
gtss_ext_$put_chars                    external static entry variable           dcl 1-27
gtss_ext_$restart_from_pi              external static label variable           dcl 1-28
gtss_ext_$restart_seg_ptr              external static pointer                  dcl 1-29
gtss_ext_$sig_ptr                      external static pointer                  dcl 1-30
gtss_ext_$statistics                   external static structure                level 1 dcl 1-72
gtss_ext_$suspended_process            external static bit(1)                   unaligned dcl 1-32
gtss_ext_$user_id                      external static varying char(26)         dcl 1-34
gtss_ext_$work_area_ptr                external static pointer                  dcl 1-35
gtss_fault_processor_           000000 constant        entry                    external dcl 3-109
gtss_fault_processor_$timer_runout
                                000000 constant        entry                    external dcl 3-111
gtss_filact_error_status_       000000 constant        entry                    external dcl 3-112
gtss_filact_funct02_            000000 constant        entry                    external dcl 3-113
gtss_filact_funct03_            000000 constant        entry                    external dcl 3-114
gtss_filact_funct04_            000000 constant        entry                    external dcl 3-115
gtss_filact_funct05_            000000 constant        entry                    external dcl 3-116
gtss_filact_funct08_            000000 constant        entry                    external dcl 3-117
gtss_filact_funct10_            000000 constant        entry                    external dcl 3-118
gtss_filact_funct11_            000000 constant        entry                    external dcl 3-119
gtss_filact_funct14_            000000 constant        entry                    external dcl 3-120
gtss_filact_funct18_            000000 constant        entry                    external dcl 3-121
gtss_filact_funct19_            000000 constant        entry                    external dcl 3-122
gtss_filact_funct21_            000000 constant        entry                    external dcl 3-123
gtss_filact_funct22_            000000 constant        entry                    external dcl 3-124
gtss_find_cond_frame_           000000 constant        entry                    external dcl 3-110
gtss_interp_prim_               000000 constant        entry                    external dcl 3-126
gtss_interp_prim_$sysret        000000 constant        entry                    external dcl 3-128
gtss_ios_change_size_           000000 constant        entry                    external dcl 3-130
gtss_ios_close_                 000000 constant        entry                    external dcl 3-131
gtss_ios_exchange_names_        000000 constant        entry                    external dcl 3-132
gtss_ios_initialize_            000000 constant        entry                    external dcl 3-133
gtss_ios_io_                    000000 constant        entry                    external dcl 3-134
gtss_ios_open_                  000000 constant        entry                    external dcl 3-135
gtss_ios_position_              000000 constant        entry                    external dcl 3-136
gtss_mcfc_$close                000000 constant        entry                    external dcl 3-139
gtss_mcfc_$delete               000000 constant        entry                    external dcl 3-137
gtss_mcfc_$open                 000000 constant        entry                    external dcl 3-138
gtss_mcfc_empty                 000000 constant        entry                    external dcl 3-106
gtss_mcfc_init_                 000000 constant        entry                    external dcl 3-125
gtss_read_starCFP_              000000 constant        entry                    external dcl 3-140
gtss_read_starCFP_$last_os      000000 constant        entry                    external dcl 3-141
gtss_run_subsystem_             000000 constant        entry                    external dcl 3-142
gtss_run_subsystem_$finish      000000 constant        entry                    external dcl 3-143
gtss_run_subsystem_$restor      000000 constant        entry                    external dcl 3-144
gtss_run_subsystem_$restor_perm 000000 constant        entry                    external dcl 3-145
gtss_set_slave_                 000000 constant        entry                    external dcl 3-146
gtss_set_slave_$load_bar        000000 constant        entry                    external dcl 3-147
gtss_update_safe_store_         000000 constant        entry                    external dcl 3-148
gtss_verify_access_             000000 constant        entry                    external dcl 3-149
gtss_verify_access_$check_forced_access
                                000000 constant        entry                    external dcl 3-150
gtss_write_starCFP_             000000 constant        entry                    external dcl 3-151
lbx                                    internal static fixed bin(17,0)          initial dcl 2-42
lpx                                    internal static fixed bin(17,0)          initial dcl 2-42
push_offset                            internal static fixed bin(17,0)          initial dcl 4-78
return_no_pop_offset                   internal static fixed bin(17,0)          initial dcl 4-78
return_offset                          internal static fixed bin(17,0)          initial dcl 4-78
sbx                                    internal static fixed bin(17,0)          initial dcl 2-42
scux                                   based           structure                level 1 dcl 2-207
spx                                    internal static fixed bin(17,0)          initial dcl 2-42
stack_header_overlay                   based           fixed bin(17,0)          array dcl 4-94
tv_offset                              internal static fixed bin(17,0)          initial dcl 4-72

NAMES DECLARED BY EXPLICIT CONTEXT.
callss_pound_sign_comd          000141 constant        entry                    external dcl 64
cont                            000155 constant        label                    dcl 68 ref 62
gtss_drl_callss_                000050 constant        entry                    external dcl 14

NAMES DECLARED BY CONTEXT OR IMPLICATION.
addr                                                   builtin function         ref 47 68
addrel                                                 builtin function         ref 49
baseno                                                 builtin function         ref 68
baseptr                                                builtin function         ref 68
fixed                                                  builtin function         ref 49
null                                                   builtin function         ref 66 86 88

STORAGE REQUIREMENTS FOR THIS PROGRAM.

	Object	Text	Link	Symbol	Defs	Static
Start          0       0       340         364     226         350
Length       650     226        24         250     111           0

BLOCK NAME	         STACK SIZE     TYPE		WHY NONQUICK/WHO SHARES STACK FRAME
gtss_drl_callss_                    100 external procedure  is an external procedure.

STORAGE FOR AUTOMATIC VARIABLES.

STACK FRAME                 LOC IDENTIFIER                  BLOCK NAME
gtss_drl_callss_         000100 arg_list_ptr                gtss_drl_callss_
                         000102 bar_mode_stack_ptr          gtss_drl_callss_
                         000104 gseg                        gtss_drl_callss_
                         000106 mcp                         gtss_drl_callss_
                         000110 scup                        gtss_drl_callss_
                         000112 sb                          gtss_drl_callss_

THE FOLLOWING EXTERNAL OPERATORS ARE USED BY THIS PROGRAM.
call_ext_out_desc   call_ext_out        return_mac          ext_entry

THE FOLLOWING EXTERNAL ENTRIES ARE CALLED BY THIS PROGRAM.
gtss_interp_prim_$callss      gtss_interp_prim_$t_goto      ioa_

THE FOLLOWING EXTERNAL VARIABLES ARE USED BY THIS PROGRAM.
gtss_ext_$db                  gtss_ext_$gtss_slave_area_seg gtss_ext_$stack_level_


   LINE    LOC      LINE    LOC      LINE    LOC      LINE    LOC      LINE    LOC      LINE    LOC      LINE    LOC
     86 000037        88 000041        14 000044        28 000056        46 000062        47 000064        48 000066
     49 000074        53 000102        54 000105        56 000127        62 000136        64 000137        66 000147
     67 000151        68 000155        74 000163        76 000165        78 000211        81 000222        82 000225


                                          -----------------------------------------------------------


Historical Background

This edition of the Multics software materials and documentation is provided and donated
to Massachusetts Institute of Technology by Group BULL including BULL HN Information Systems Inc.
as a contribution to computer science knowledge.
This donation is made also to give evidence of the common contributions of Massachusetts Institute of Technology,
Bell Laboratories, General Electric, Honeywell Information Systems Inc., Honeywell BULL Inc., Groupe BULL
and BULL HN Information Systems Inc. to the development of this operating system.
Multics development was initiated by Massachusetts Institute of Technology Project MAC (1963-1970),
renamed the MIT Laboratory for Computer Science and Artificial Intelligence in the mid 1970s, under the leadership
of Professor Fernando Jose Corbato. Users consider that Multics provided the best software architecture
for managing computer hardware properly and for executing programs. Many subsequent operating systems
incorporated Multics principles.
Multics was distributed in 1975 to 2000 by Group Bull in Europe , and in the U.S. by Bull HN Information Systems Inc.,
as successor in interest by change in name only to Honeywell Bull Inc. and Honeywell Information Systems Inc. .

                                          -----------------------------------------------------------

Permission to use, copy, modify, and distribute these programs and their documentation for any purpose and without
fee is hereby granted,provided that the below copyright notice and historical background appear in all copies
and that both the copyright notice and historical background and this permission notice appear in supporting
documentation, and that the names of MIT, HIS, BULL or BULL HN not be used in advertising or publicity pertaining
to distribution of the programs without specific prior written permission.
    Copyright 1972 by Massachusetts Institute of Technology and Honeywell Information Systems Inc.
    Copyright 2006 by BULL HN Information Systems Inc.
    Copyright 2006 by Bull SAS
    All Rights Reserved
