	COMPILATION LISTING OF SEGMENT !BBBJPMLHgJHbzb
	Compiled by: Multics PL/I Compiler, Release 28d, of October 4, 1983
	Compiled at: Honeywell Multics Op. - System M
	Compiled on: 12/10/84  1133.9 mst Mon
	    Options: table map

        1 /* ***********************************************************
        2*   *                                                         *
        3*   * Copyright, (C) Honeywell Information Systems Inc., 1983 *
        4*   *                                                         *
        5*   *********************************************************** */
        6 gtss_ext_:proc;
        7
        8 /* Generate object for "gtss_ext_" data.
        9*
       10*   Author:    Dave Ward 1981
       11*   Modified:  Ron Barstad  83-07-21  Remove dependency on ted_com, add include file
       12* */
       13 /** Initialize cds_args **/
       14
       15 	cds_args_ptr=addr(space_for_cds_args);
       16 	unspec(space_for_cds_args)="0"b;
       17
       18 /** Reference structure input to cds to assure it is in runtime table. **/
       19
       20 	if addr(gtss_ext_)=null() then ;
       21
       22 /** No text section **/
       23 	cds_args_ptr -> cds_args.sections (1).p = null ();
       24 	cds_args_ptr -> cds_args.sections (1).len = 0;
       25 	cds_args_ptr -> cds_args.sections (1).struct_name = "NO_TEXT";
       26
       27 /** Static section **/
       28 	cds_args_ptr -> cds_args.sections (2).p = addr (gtss_ext_);	/* Caller's data. */
       29 	cds_args_ptr -> cds_args.sections (2).len = size (gtss_ext_);	/* No. words in data structure. */
       30 	cds_args_ptr -> cds_args.sections (2).struct_name = "gtss_ext_";
       31
       32 	cds_args_ptr -> cds_args.seg_name = "gtss_ext_";	/* Entryname of object segment. */
       33 	cds_args_ptr -> cds_args.num_exclude_names = 0;		/* All level 2 names are entry points. */
       34 	cds_args_ptr -> cds_args.exclude_array_ptr = null ();
       35 	cds_args_ptr -> cds_args.switches.defs_in_link = "0"b;	/* Definitions contiguous to text section. */
       36 	cds_args_ptr -> cds_args.switches.separate_static = "0"b;	/* Static in linkage section (to bind). */
       37 	cds_args_ptr -> cds_args.switches.have_text = "0"b;	/* No text section. */
       38 	cds_args_ptr -> cds_args.switches.have_static = "1"b;	/* There is a static section. */
       39 	cds_args_ptr -> cds_args.switches.pad = "0"b;		/* Must be zeroes (see create_data_segment_). */
       40
       41 	call create_data_segment_ (cds_args_ptr, code);
       42 	if code ^= 0
       43 	   then
       44 	      call com_err_ (code, "cds_gtss_ext_");
       45 	   else
       46 	      call com_err_( 0,"gtss_ext_","Object for gtss_ext_ created [^i words].",size(gtss_ext_));
       47
       48 	return;
       49
       50 /** Data for cds **/
       51 dcl  addr                     builtin;
       52 dcl  cds_args_ptr             ptr init(null());
       53 dcl  code                     fixed bin(35);
       54 dcl  com_err_                 entry options(variable);
       55 dcl  create_data_segment_     entry(ptr,fixed bin(35));
       56 dcl  null                     builtin;
       57 dcl  size                     builtin;
       58 dcl  unspec                   builtin;
       59 dcl  1 space_for_cds_args     aligned like cds_args;
       60
       61 /** This data structure must exactly match that of gtss_ext_.incl.pl1 **/
       62
       63 dcl 1 gtss_ext_ aligned,
       64      2 aem                    fixed bin,
       65      2 bad_drl_rtrn           label,
       66      2 db                     (72) bit (1) unal,
       67      2 deferred_catalogs_ptr  ptr,
       68      2 dispose_of_drl         label,
       69      2 drl_rtrn               (4) label,
       70      2 drm_path               char (168),
       71      2 drun_jid               char (5),
       72      2 event_channel          fixed bin (71),
       73      2 finished               label,
       74      2 gdb_name               char (8),
       75      2 get_line               entry (ptr,ptr,fixed bin(21),fixed bin(21),fixed bin(35))variable,
       76      2 gtss_slave_area_seg    (4) ptr,
       77      2 hcs_work_area_ptr      ptr,
       78      2 homedir                char (64),
       79      2 last_k_was_out         bit (1) aligned,
       80      2 pdir                   char (168) varying,
       81      2 popup_from_pi          label,
       82      2 process_type           fixed bin (17),
       83      2 put_chars              entry (ptr,ptr,fixed bin(24),fixed bin(35)) variable,
       84      2 restart_from_pi        label,
       85      2 restart_seg_ptr        ptr,
       86      2 sig_ptr                ptr,
       87      2 stack_level_           fixed bin,
       88      2 suspended_process      bit (1),
       89      2 SYstarstar_file_no     fixed bin (24),
       90      2 user_id                char (26) var,
       91      2 work_area_ptr          ptr,
       92
       93      2 CFP_bits aligned       like gtss_ext_$CFP_bits,
       94
       95      2 com_reg aligned        like gtss_ext_$com_reg,
       96
       97      2 flags aligned          like gtss_ext_$flags,
       98
       99      2 statistics aligned     like gtss_ext_$statistics,
      100
      101      2 aft aligned            like gtss_ext_$aft,
      102
      103      2 ppt                    ptr,
      104
      105      2 fast_lib aligned       like gtss_ext_$fast_lib,
      106
      107      2 mcfc	  aligned like gtss_ext_$mcfc;
      108
      109
  1     1 /* BEGIN INCLUDE FILE gtss_ext_.incl.pl1 */
  1     2 /*
  1     3*  Created: (Wardd Multics)  05/20/78 1307.6 mst Sat
  1     4*  Modified: Ward            1981     add suspended_process dcl
  1     5*  Modified: Ron Barstad  83-07-21  Fixed level number on mcfc to 3
  1     6*  Modified: Ron Barstad  83-07-25  Fixed derail range in statistics to 4js3 number
  1     7**/
  1     8 dcl  gtss_ext_$aem                   fixed bin static ext	/* >0 Print "additional" error information. */;
  1     9 dcl  gtss_ext_$bad_drl_rtrn          static ext label	/* Default for drl_rtrn. */;
  1    10 dcl  gtss_ext_$db                    (72)bit(1)unal static ext;
  1    11 dcl  gtss_ext_$deferred_catalogs_ptr ptr ext;
  1    12 dcl  gtss_ext_$dispose_of_drl        static ext label	/* quit handlers for some derails use this label to abort */;
  1    13 dcl  gtss_ext_$drl_rtrn              (4)static ext label	/* where to return at subsystem end */;
  1    14 dcl  gtss_ext_$drm_path              char(168)static ext	/* gtss_expand_pathname_stores drm_path */;
  1    15 dcl  gtss_ext_$drun_jid              char (5) static ext	/* valid only for DRUN executing under absentee */;
  1    16 dcl  gtss_ext_$event_channel         fixed bin (71) static ext	/* used for DABT signals */;
  1    17 dcl  gtss_ext_$finished              static ext label	/* Return to gtss for normal conclusion. */;
  1    18 dcl  gtss_ext_$gdb_name              char(8)ext	/* Name H* module to debug. */;
  1    19 dcl  gtss_ext_$get_line              entry(ptr,ptr,fixed bin(21),fixed bin(21),fixed bin(35))variable ext /* Build mode input procedure. */;
  1    20 dcl  gtss_ext_$gtss_slave_area_seg   (4) ext static ptr	/* pointer to gtss slave area segment */;
  1    21 dcl  gtss_ext_$hcs_work_area_ptr     ptr ext static		/* Temp seg for acl lists. */;
  1    22 dcl  gtss_ext_$homedir               char (64) static ext /* user's home dir */;
  1    23 dcl  gtss_ext_$last_k_was_out        bit (1)aligned ext static	/* "1"b => last tty output was output. */;
  1    24 dcl  gtss_ext_$pdir                  char (168) varying ext static	/* pathname of process directory */;
  1    25 dcl  gtss_ext_$popup_from_pi         static ext label	/* transfer to this label after pi simulates popup primitive */;
  1    26 dcl  gtss_ext_$process_type          fixed bin (17) static ext;
  1    27 dcl  gtss_ext_$put_chars             entry(ptr,ptr,fixed bin(24),fixed bin(35)) variable ext	/* Terminal output procedure. */;
  1    28 dcl  gtss_ext_$restart_from_pi       static ext label	/* transfer to this label after pi restores machine conditions */;
  1    29 dcl  gtss_ext_$restart_seg_ptr       ptr static ext	/* points to DRUN restart file when exec under absentee */;
  1    30 dcl  gtss_ext_$sig_ptr               ext static ptr	/* saved ptr to signal_ */;
  1    31 dcl  gtss_ext_$stack_level_          fixed bin ext static;
  1    32 dcl  gtss_ext_$suspended_process     bit(1) ext static;
  1    33 dcl  gtss_ext_$SYstarstar_file_no    fixed bin (24) static ext;
  1    34 dcl  gtss_ext_$user_id               char (26)var ext;
  1    35 dcl  gtss_ext_$work_area_ptr         ptr ext;
  1    36
  1    37 dcl  1 gtss_ext_$CFP_bits aligned static external
  1    38      , 3 no_input_yet bit (1) unaligned         /* used in gtss_CFP_input_, gtss_read_starCFP_ */
  1    39      , 3 rtn_bits bit (4) unaligned             /* used in gtss_CFP_input_, gtss_CFP_output_ */
  1    40      , 3 cpos_called bit (1) unaligned          /* used in gtss_CFP_input_, gtss_drl_t_cfio_, gtss_abandon_CFP_ */
  1    41      , 3 cout_called bit (1) unaligned          /* used in gtss_read_starCFP_, gtss_abandon_CFP_ */
  1    42      , 3 build_mode bit (1) unaligned	        /* used in gtss_build_, gtss_dsd_process_ */
  1    43      ;
  1    44
  1    45 dcl 1 gtss_ext_$com_reg aligned static ext,
  1    46        3 tsdmx,
  1    47          4 dst fixed bin (18) unsigned unaligned,
  1    48          4 dit fixed bin (18) unsigned unaligned,
  1    49        3 tsdpt fixed bin (36) unsigned unaligned,
  1    50        3 tsddt fixed bin (36) unsigned unaligned,
  1    51        3 tsdid bit (72) unaligned,
  1    52        3 tsdsd bit (36) unaligned,
  1    53        3 tsdst fixed bin (36) unsigned unaligned,
  1    54        3 tsdjb fixed bin (35) unaligned,
  1    55        3 tsdgt,
  1    56          4 ust_loc fixed bin (18) unsigned unaligned,
  1    57          4 gating_ctl fixed bin (18) unsigned unaligned,
  1    58        3 tcdfr bit (36) unaligned;
  1    59
  1    60 dcl 1 gtss_ext_$flags aligned static ext
  1    61      , 3 dispose_of_drl_on_pi	bit (01) unal	/* 1 => drl that should be aborted after quit-pi sequence */
  1    62      , 3 drl_in_progress	bit (01) unal	/* 1 => drl handler executing; 0 => gcos code executing */
  1    63      , 3 popup_from_pi	bit (01) unal	/* 1 => derail processor will simulate Gcos break instead of returning */
  1    64      , 3 unfinished_drl	bit (01) unal	/* 1 => subsystem is handling breaks and quit was raised during a drl */
  1    65      , 3 ss_time_limit_set	bit (01) unal	/* 1 => exec time limit set for subsystem */
  1    66      , 3 timer_ranout	bit (01) unal	/* 1 => user is executing timer runout code */
  1    67      , 3 gtss_com_err_sw      bit (01) unal       /* 1 => stop com_err_ string from going to terminal */
  1    68      , 3 available		bit (65) unal
  1    69      ;
  1    70
  1    71
  1    72 dcl 1 gtss_ext_$statistics aligned static ext,		/* Derail usage statistics */
  1    73       3 total_time (-10:71)fixed bin (71),
  1    74       3 count (-10:71)fixed bin (17);
  1    75
  1    76 /* 	Declaration of Available File Table
  1    77*   */
  1    78 dcl 1 gtss_ext_$aft aligned ext,			/* aft structure */
  1    79
  1    80       3 start_list (0:102) fixed bin (24),		/* >0 => 1st aft_entry row to start of next entry chain. */
  1    81
  1    82       3 aft_entry (20),
  1    83         4 altname char (8),				/* altname name for attaching this file */
  1    84         4 next_entry fixed bin (24),			/* Next aft_entry in hash chain. */
  1    85         4 previous_add fixed bin (24),			/* Previously added entry. */
  1    86         4 next_add fixed bin (24),			/* Entry added after this one. */
  1    87         4 used bit (1) unal,				/* "1"b => aft_entry contains AFT value. */
  1    88         4 forced bit(1) unal,				/* "1"b => gtss_verify_access_ forced access on this file. */
  1    89
  1    90       3 free_space fixed bin (24),			/* Index of start of free space list for aft entries. */
  1    91       3 first_added fixed bin (24),			/* >0  => start of chain in add order. */
  1    92       3 last_added fixed bin (24)			/* >0 => end of chain in added order. */;
  1    93
  1    94 dcl  gtss_ext_$ppt                   ptr ext /*  switch name for tapein drl */;
  1    95 /**	Data structure to provide access to installed
  1    96*   subsystems fast library load.
  1    97*   **/
  1    98 dcl 1 gtss_ext_$fast_lib aligned ext
  1    99      , 3 fast_lib_fcb ptr				/* Pointer to msf fcb.	*/
  1   100      , 3 fast_lib_ncp fixed bin (24)			/* Number of components. */
  1   101      , 3 comp_ptr (0:9)ptr				/* Pointer to component. */
  1   102      , 3 comp_wds (0:9)fixed bin (24)			/* Component length (words). */
  1   103      ;
  1   104
  1   105 /* Pointers to segments to regulate multipler
  1   106*   callers to files. Same segments are used to regulate
  1   107*   all simulator callers.
  1   108**/
  1   109 dcl 1 gtss_ext_$mcfc	aligned ext,
  1   110       3 multics_lock_id	bit(36),
  1   111       3 wait_time		fixed bin,
  1   112       3 files_ptr		ptr,
  1   113       3 names_ptr		ptr,
  1   114       3 callers_ptr		(0:3)ptr
  1   115 ;
  1   116
  1   117 /*   END INCLUDE FILE gtss_ext_.incl.pl1 */
      110
      111
  2     1 /* BEGIN INCLUDE FILE cds_args.incl.pl1 */
  2     2
  2     3 dcl 1 cds_args based aligned,
  2     4     2 sections (2),
  2     5       3 p ptr,					/* pointer to data for text/static section */
  2     6       3 len fixed bin (18),				/* size of text/static section */
  2     7       3 struct_name char (32),			/* name of declared structure for this section */
  2     8     2 seg_name char (32),				/* name to create segment by */
  2     9     2 num_exclude_names fixed bin,			/* number of names in exclude array */
  2    10     2 exclude_array_ptr ptr,				/* pointer to array of exclude names */
  2    11     2 switches,					/* control switches */
  2    12       3 defs_in_link bit (1) unal,			/* says put defs in linkage */
  2    13       3 separate_static bit (1) unal,			/* says separate static section is wanted */
  2    14       3 have_text bit (1) unal,			/* ON if text section given */
  2    15       3 have_static bit (1) unal,			/* ON if static section given */
  2    16       3 pad bit (32) unal;
  2    17
  2    18 dcl  exclude_names (1) char (32) based;			/* pointed to be cds_args.exclude_array_ptr */
  2    19
  2    20 /* END INCLUDE FILE cds_args.incl.pl1 */
      112
      113 end;
	SOURCE FILES USED IN THIS COMPILATION.

LINE      NUMBER  DATE MODIFIED     NAME			PATHNAME
             0    12/10/84  1043.9  !BBBJPMLHgJHbzb.pl1               >spec>on>7105>gtss_ext_.cds
110          1    09/09/83  1713.8  gtss_ext_.incl.pl1                >ldd>include>gtss_ext_.incl.pl1
112          2    04/01/76  2209.5  cds_args.incl.pl1                 >ldd>include>cds_args.incl.pl1
	NAMES DECLARED IN THIS COMPILATION.

IDENTIFIER	     OFFSET    LOC STORAGE CLASS   DATA TYPE		ATTRIBUTES AND REFERENCES
								(* indicates a set context)

NAMES DECLARED BY DECLARE STATEMENT.
addr                                                   builtin function         dcl 51 ref 15 20 28
cds_args                               based           structure                level 1 dcl 2-3
cds_args_ptr                    000100 automatic       pointer                  initial dcl 52 set ref 15* 23 24 25 28 29 30 32 33
                                                                                  34 35 36 37 38 39 41* 52*
code                            000102 automatic       fixed bin(35,0)          dcl 53 set ref 41* 42 42*
com_err_                        000012 constant        entry                    external dcl 54 ref 42 45
create_data_segment_            000014 constant        entry                    external dcl 55 ref 41
defs_in_link             44            based           bit(1)                   level 3 packed unaligned dcl 2-3 set ref 35*
exclude_array_ptr        42            based           pointer                  level 2 dcl 2-3 set ref 34*
gtss_ext_                       000152 automatic       structure                level 1 dcl 63 set ref 20 28 29 45 45
gtss_ext_$CFP_bits              000106 external static structure                level 1 dcl 1-37
gtss_ext_$aft                   000116 external static structure                level 1 dcl 1-78
gtss_ext_$com_reg               000110 external static structure                level 1 dcl 1-45
gtss_ext_$fast_lib              000122 external static structure                level 1 dcl 1-98
gtss_ext_$flags                 000112 external static structure                level 1 dcl 1-60
gtss_ext_$mcfc                  000124 external static structure                level 1 dcl 1-109
gtss_ext_$statistics            000114 external static structure                level 1 dcl 1-72
have_static              44(03)        based           bit(1)                   level 3 packed unaligned dcl 2-3 set ref 38*
have_text                44(02)        based           bit(1)                   level 3 packed unaligned dcl 2-3 set ref 37*
len                       2            based           fixed bin(18,0)          array level 3 dcl 2-3 set ref 24* 29*
null                                                   builtin function         dcl 56 ref 20 23 34 52
num_exclude_names        40            based           fixed bin(17,0)          level 2 dcl 2-3 set ref 33*
p                                      based           pointer                  array level 3 dcl 2-3 set ref 23* 28*
pad                      44(04)        based           bit(32)                  level 3 packed unaligned dcl 2-3 set ref 39*
sections                               based           structure                array level 2 dcl 2-3
seg_name                 30            based           char(32)                 level 2 dcl 2-3 set ref 32*
separate_static          44(01)        based           bit(1)                   level 3 packed unaligned dcl 2-3 set ref 36*
size                                                   builtin function         dcl 57 ref 29 45 45
space_for_cds_args              000104 automatic       structure                level 1 dcl 59 set ref 15 16*
struct_name               3            based           char(32)                 array level 3 dcl 2-3 set ref 25* 30*
switches                 44            based           structure                level 2 dcl 2-3
unspec                                                 builtin function         dcl 58 set ref 16*

NAMES DECLARED BY DECLARE STATEMENT AND NEVER REFERENCED.
exclude_names                          based           char(32)                 array unaligned dcl 2-18
gtss_ext_$SYstarstar_file_no    000100 external static fixed bin(24,0)          dcl 1-33
gtss_ext_$aem                   000016 external static fixed bin(17,0)          dcl 1-8
gtss_ext_$bad_drl_rtrn          000020 external static label variable           dcl 1-9
gtss_ext_$db                    000022 external static bit(1)                   array unaligned dcl 1-10
gtss_ext_$deferred_catalogs_ptr 000024 external static pointer                  dcl 1-11
gtss_ext_$dispose_of_drl        000026 external static label variable           dcl 1-12
gtss_ext_$drl_rtrn              000030 external static label variable           array dcl 1-13
gtss_ext_$drm_path              000032 external static char(168)                unaligned dcl 1-14
gtss_ext_$drun_jid              000034 external static char(5)                  unaligned dcl 1-15
gtss_ext_$event_channel         000036 external static fixed bin(71,0)          dcl 1-16
gtss_ext_$finished              000040 external static label variable           dcl 1-17
gtss_ext_$gdb_name              000042 external static char(8)                  unaligned dcl 1-18
gtss_ext_$get_line              000044 external static entry variable           dcl 1-19
gtss_ext_$gtss_slave_area_seg   000046 external static pointer                  array dcl 1-20
gtss_ext_$hcs_work_area_ptr     000050 external static pointer                  dcl 1-21
gtss_ext_$homedir               000052 external static char(64)                 unaligned dcl 1-22
gtss_ext_$last_k_was_out        000054 external static bit(1)                   dcl 1-23
gtss_ext_$pdir                  000056 external static varying char(168)        dcl 1-24
gtss_ext_$popup_from_pi         000060 external static label variable           dcl 1-25
gtss_ext_$ppt                   000120 external static pointer                  dcl 1-94
gtss_ext_$process_type          000062 external static fixed bin(17,0)          dcl 1-26
gtss_ext_$put_chars             000064 external static entry variable           dcl 1-27
gtss_ext_$restart_from_pi       000066 external static label variable           dcl 1-28
gtss_ext_$restart_seg_ptr       000070 external static pointer                  dcl 1-29
gtss_ext_$sig_ptr               000072 external static pointer                  dcl 1-30
gtss_ext_$stack_level_          000074 external static fixed bin(17,0)          dcl 1-31
gtss_ext_$suspended_process     000076 external static bit(1)                   unaligned dcl 1-32
gtss_ext_$user_id               000102 external static varying char(26)         dcl 1-34
gtss_ext_$work_area_ptr         000104 external static pointer                  dcl 1-35

NAME DECLARED BY EXPLICIT CONTEXT.
gtss_ext_                       000034 constant        entry                    external dcl 6

THERE WERE NO NAMES DECLARED BY CONTEXT OR IMPLICATION.

STORAGE REQUIREMENTS FOR THIS PROGRAM.

	Object	Text	Link	Symbol	Defs	Static
Start          0       0       624         752     214         634
Length      4456     214       126        3470     410           0

BLOCK NAME	         STACK SIZE     TYPE		WHY NONQUICK/WHO SHARES STACK FRAME
gtss_ext_                           868 external procedure  is an external procedure.

STORAGE FOR AUTOMATIC VARIABLES.

STACK FRAME                 LOC IDENTIFIER                  BLOCK NAME
gtss_ext_                000100 cds_args_ptr                gtss_ext_
                         000102 code                        gtss_ext_
                         000104 space_for_cds_args          gtss_ext_
                         000152 gtss_ext_                   gtss_ext_

THE FOLLOWING EXTERNAL OPERATORS ARE USED BY THIS PROGRAM.
call_ext_out_desc   call_ext_out        return              ext_entry

THE FOLLOWING EXTERNAL ENTRIES ARE CALLED BY THIS PROGRAM.
com_err_                      create_data_segment_

THE FOLLOWING EXTERNAL VARIABLES ARE USED BY THIS PROGRAM.
gtss_ext_$CFP_bits            gtss_ext_$SYstarstar_file_no  gtss_ext_$aem                 gtss_ext_$aft
gtss_ext_$bad_drl_rtrn        gtss_ext_$com_reg             gtss_ext_$db
gtss_ext_$deferred_catalogs_ptr                             gtss_ext_$dispose_of_drl      gtss_ext_$drl_rtrn
gtss_ext_$drm_path            gtss_ext_$drun_jid            gtss_ext_$event_channel       gtss_ext_$fast_lib
gtss_ext_$finished            gtss_ext_$flags               gtss_ext_$gdb_name            gtss_ext_$get_line
gtss_ext_$gtss_slave_area_seg gtss_ext_$hcs_work_area_ptr   gtss_ext_$homedir             gtss_ext_$last_k_was_out
gtss_ext_$mcfc                gtss_ext_$pdir                gtss_ext_$popup_from_pi       gtss_ext_$ppt
gtss_ext_$process_type        gtss_ext_$put_chars           gtss_ext_$restart_from_pi     gtss_ext_$restart_seg_ptr
gtss_ext_$sig_ptr             gtss_ext_$stack_level_        gtss_ext_$statistics          gtss_ext_$suspended_process
gtss_ext_$user_id             gtss_ext_$work_area_ptr


   LINE    LOC      LINE    LOC      LINE    LOC      LINE    LOC      LINE    LOC      LINE    LOC      LINE    LOC
      6 000033        52 000041        15 000043        16 000045        20 000050        23 000056        24 000060
     25 000061        28 000064        29 000066        30 000070        32 000073        33 000076        34 000077
     35 000101        36 000103        37 000105        38 000107        39 000111        41 000113        42 000123
     45 000151        48 000210


Object Segment >spec>on>7105>gtss_ext_
Created on 12/10/84  1134.2 mst Mon
by GJohnson.SysMaint.m
using create_data_segment_, Version II of Friday, November 30, 1984

        Object    Text    Defs    Link    Symb  Static
Start        0       0       0     356    1712     366
Length    2176       0     356    1334     250    1324


38 Definitions:


segname:    gtss_ext_

link|304        CFP_bits
link|270        SYstarstar_file_no
link|10         aem
link|710        aft
link|12         bad_drl_rtrn
link|305        com_reg
link|16         db
link|20         deferred_catalogs_ptr
link|22         dispose_of_drl
link|26         drl_rtrn
link|46         drm_path
link|120        drun_jid
link|122        event_channel
link|1254       fast_lib
link|124        finished
link|317        flags
link|130        gdb_name
link|132        get_line
link|136        gtss_slave_area_seg
link|146        hcs_work_area_ptr
link|150        homedir
link|170        last_k_was_out
link|1316       mcfc
link|171        pdir
link|244        popup_from_pi
link|1252       ppt
link|250        process_type
link|252        put_chars
link|256        restart_from_pi
link|262        restart_seg_ptr
link|264        sig_ptr
link|266        stack_level_
link|322        statistics
link|267        suspended_process
symb|0          symbol_table
link|271        user_id
link|302        work_area_ptr


No Links.


                                          -----------------------------------------------------------


Historical Background

This edition of the Multics software materials and documentation is provided and donated
to Massachusetts Institute of Technology by Group BULL including BULL HN Information Systems Inc.
as a contribution to computer science knowledge.
This donation is made also to give evidence of the common contributions of Massachusetts Institute of Technology,
Bell Laboratories, General Electric, Honeywell Information Systems Inc., Honeywell BULL Inc., Groupe BULL
and BULL HN Information Systems Inc. to the development of this operating system.
Multics development was initiated by Massachusetts Institute of Technology Project MAC (1963-1970),
renamed the MIT Laboratory for Computer Science and Artificial Intelligence in the mid 1970s, under the leadership
of Professor Fernando Jose Corbato. Users consider that Multics provided the best software architecture
for managing computer hardware properly and for executing programs. Many subsequent operating systems
incorporated Multics principles.
Multics was distributed in 1975 to 2000 by Group Bull in Europe , and in the U.S. by Bull HN Information Systems Inc.,
as successor in interest by change in name only to Honeywell Bull Inc. and Honeywell Information Systems Inc. .

                                          -----------------------------------------------------------

Permission to use, copy, modify, and distribute these programs and their documentation for any purpose and without
fee is hereby granted,provided that the below copyright notice and historical background appear in all copies
and that both the copyright notice and historical background and this permission notice appear in supporting
documentation, and that the names of MIT, HIS, BULL or BULL HN not be used in advertising or publicity pertaining
to distribution of the programs without specific prior written permission.
    Copyright 1972 by Massachusetts Institute of Technology and Honeywell Information Systems Inc.
    Copyright 2006 by BULL HN Information Systems Inc.
    Copyright 2006 by Bull SAS
    All Rights Reserved
