	COMPILATION LISTING OF SEGMENT gtss_abs_login_banner_
	Compiled by: Multics PL/I Compiler, Release 28d, of October 4, 1983
	Compiled at: Honeywell Multics Op. - System M
	Compiled on: 12/10/84  1221.2 mst Mon
	    Options: optimize map

        1 /* ***********************************************************
        2*   *                                                         *
        3*   *                                                         *
        4*   * Copyright, (C) Honeywell Information Systems Inc., 1981 *
        5*   *                                                         *
        6*   *                                                         *
        7*   *********************************************************** */
        8
        9 gtss_abs_login_banner_: proc returns (char (*));
       10
       11 	call user_info_$login_data (pid, pjid, acct, anon, stby, wt, time_login, lw);
       12 	call decode_clock_value_$date_time (time_login, month, dom, year, hour, minute, second, microsecond, dow, "", code);
       13 	call gtss_bcd_ascii_ (addr (gtss_ust.lcjid), 5, addr (ascii_lcjid));
       14 	call ioa_$rs ("HIS SERIES 6000 ON ^d/^d/^d AT ^d.^d  DEFERRED # ^a",
       15 		    ret_string, ret_len,
       16 		    month, dom, year - 1900,
       17 		    hour, minute * 1000 / 60, ascii_lcjid);
       18 	return (substr (ret_string, 1, ret_len));
       19 
       20 /* gtss_abs_login_banner_ local declares */
       21 dcl acct char (32);
       22 dcl anon fixed bin;
       23 dcl ascii_lcjid char (5);
       24 dcl clock_ entry returns (fixed bin (71));
       25 dcl code fixed bin (35);
       26 dcl decode_clock_value_$date_time entry (fixed bin (71), fixed bin, fixed bin, fixed bin, fixed bin,
       27 		fixed bin, fixed bin, fixed bin (71), fixed bin, char (3), fixed bin (35));
       28 dcl dom fixed bin;
       29 dcl dow fixed bin;
       30 dcl hour fixed bin;
       31 dcl ioa_$rs entry options (variable);
       32 dcl lw char (5);
       33 dcl minute fixed bin;
       34 dcl microsecond fixed bin (71);
       35 dcl month fixed bin;
       36 dcl pid char (22);
       37 dcl pjid char (9);
       38 dcl ret_len fixed bin (21);
       39 dcl ret_string char (256);
       40 dcl second fixed bin;
       41 dcl stby fixed bin;
       42 dcl time_login fixed bin (71);
       43 dcl wt fixed bin;
       44 dcl user_info_$login_data entry (char (*), char (*), char (*), fixed bin, fixed bin, fixed bin, fixed bin (71), char (*));
       45 dcl year fixed bin;
       46
       47 
  1     1 /* BEGIN INCLUDE FILE gtss_ust_ext_.incl.pl1 */
  1     2 /* UST: User Status Table
  1     3*   definitions based on
  1     4*   System Tables, Order number DD14-01E, January 1981
  1     5*   Section 15, Time Sharing System
  1     6*
  1     7*   Authors: Robert J. Grimes	Created
  1     8*   -	  Albert N. Kepner	  1978
  1     9*   -	  Robert M. May
  1    10*   -	  David B. Ward
  1    11*   Change:  Dave Ward	02/23/79 Level 4 numbering.
  1    12*   Change:  Ron Barstad  83-07-12 Repaired damaged formating and word offset comments
  1    13*                                  Brought up to 4JS3 functionality
  1    14**/
  1    15 /* octal word offsets of entries */
  1    16 dcl 1 gtss_ust_ext_$ust aligned ext,
  1    17       3 gtss_ust,
  1    18 /* 0-1  */	4 lid		bit (72),
  1    19 /* 2    */	4 lstp		bit (36),
  1    20 /* 3    */	4 ltin		bit (36),
  1    21 /* 4    */	4 lstio,
  1    22 			5 no_of_chars_by_8  fixed bin (18) uns unal,
  1    23 			5 no_of_disk_io     fixed bin (18) uns unal,
  1    24 /* 5    */	4 lsnub		bit (36),
  1    25 /* 6-7  */	4 lchg		bit (72),
  1    26 /* 10   */	4 lbuf,
  1    27 			5 address		bit (18)unaligned,
  1    28 			5 tally		bit (1)unaligned,
  1    29 			5 terminal_type	bit (5)unaligned,
  1    30 			5 station_id	bit (12)unaligned,
  1    31 /* 11-12 */	4 liost (0:1)	bit (36),
  1    32 /* 13   */	4 lcc		bit (36),
  1    33 /* 14   */	4 lback,
  1    34 			5 fill1		bit (18) unaligned,
  1    35 			5 gwake		fixed bin (17) unaligned,
  1    36 /* 15   */	4 lflag,
  1    37 			5 mp_list		bit (18) unaligned,
  1    38 			5 flags unaligned,
  1    39 				6 b18		bit (1) unaligned,
  1    40 				6 b19		bit (1) unaligned,
  1    41 				6 b20		bit (1) unaligned,
  1    42 				6 b21		bit (1) unaligned,
  1    43 				6 b22		bit (1) unaligned,
  1    44 				6 b23		bit (1) unaligned,
  1    45 				6 b24		bit (1) unaligned,
  1    46 				6 b25		bit (1) unaligned,
  1    47 				6 b26		bit (1) unaligned,
  1    48 				6 b27		bit (1) unaligned,
  1    49 				6 b28		bit (1) unaligned,
  1    50 				6 b29		bit (1) unaligned,
  1    51 				6 b30		bit (1) unaligned,
  1    52 				6 b31		bit (1) unaligned,
  1    53 				6 b32		bit (1) unaligned,
  1    54 				6 b33		bit (1) unaligned,
  1    55 				6 b34		bit (1) unaligned,
  1    56 				6 b35		bit (1) unaligned,
  1    57 /* 16   */	4 lkdss		bit (36),
  1    58 /* 17   */	4 lfile,
  1    59 			5 program_stack	fixed bin (17) unal,
  1    60 			5 file_list_ptr	bit (18) unal,
  1    61 /* 20   */	4 lttys		bit (36),
  1    62 /* 21   */	4 lswth,
  1    63 			5 b0		bit (1) unaligned,
  1    64 			5 b1		bit (1) unaligned,
  1    65 			5 b2		bit (1) unaligned,
  1    66 			5 b3		bit (1) unaligned,
  1    67 			5 b4		bit (1) unaligned,
  1    68 			5 b5		bit (1) unaligned,
  1    69 			5 b6		bit (1) unaligned,
  1    70 			5 b7		bit (1) unaligned,
  1    71 			5 b8		bit (1) unaligned,
  1    72 			5 b9		bit (1) unaligned,
  1    73 			5 b10		bit (1) unaligned,
  1    74 			5 b11		bit (1) unaligned,
  1    75 			5 b12		bit (1) unaligned,
  1    76 			5 b13		bit (1) unaligned,
  1    77 			5 b14		bit (1) unaligned,
  1    78 			5 b15		bit (1) unaligned,
  1    79 			5 b16		bit (1) unaligned,
  1    80 			5 b17		bit (1) unaligned,
  1    81 			5 b18		bit (1) unaligned,
  1    82 			5 b19		bit (1) unaligned,
  1    83 			5 b20		bit (1) unaligned,
  1    84 			5 b21		bit (1) unaligned,
  1    85 			5 b22		bit (1) unaligned,
  1    86 			5 b23		bit (1) unaligned,
  1    87 			5 b24		bit (1) unaligned,
  1    88 			5 b25		bit (1) unaligned,
  1    89 			5 b26		bit (1) unaligned,
  1    90 			5 b27		bit (1) unaligned,
  1    91 			5 b28		bit (1) unaligned,
  1    92 			5 b29		bit (1) unaligned,
  1    93 			5 b30		bit (1) unaligned,
  1    94 			5 b31		bit (1) unaligned,
  1    95 			5 b32		bit (1) unaligned,
  1    96 			5 b33		bit (1) unaligned,
  1    97 			5 b34		bit (1) unaligned,
  1    98 			5 b35		bit (1) unaligned,
  1    99 /* 22   */	4 lsize,
  1   100 			5 bar		fixed bin (17) unaligned,
  1   101 			5 limit		bit (18) unaligned,
  1   102 /* 23... */	4 lswap,
  1   103 			5 fill		bit (18) unal,
  1   104 			5 size		bit (18) unal,
  1   105 /* ...24 */	4 transfer_cell	bit (36) unal,
  1   106 /* 25   */	4 lerrm		bit (36),
  1   107 /* 26-37 */	4 lcfil (0:9)	bit (36),
  1   108 /* 40   */	4 lsybc,
  1   109 			5 b0_17		fixed bin (17) unaligned,
  1   110 			5 b18_35		fixed bin (17) unaligned,
  1   111 /* 41-42 */	4 lstem (0:1)	bit (36),
  1   112 /* 43    */	4 lcals,
  1   113 			5 b0_17		fixed bin (17) unaligned,
  1   114 			5 b18_35		bit (18) unaligned,
  1   115 /* 44-51 */	4 subsystems (3),
  1   116 			5 content_lswap,
  1   117 				6 fill		bit (18) unal,
  1   118 				6 size		bit (18) unal,
  1   119 			5 tally_address	fixed bin (17) unaligned,
  1   120 			5 ss_flags	bit (18) unaligned,
  1   121 /* 52   */	4 ltalc,
  1   122 			5 tod		fixed bin (17) unaligned,
  1   123 			5 startup		fixed bin (17) unaligned,
  1   124 /* 53   */	4 lspts		fixed bin (35),
  1   125 /* 54   */	4 lflg2,
  1   126 			5 b0		bit (1) unaligned,
  1   127 			5 b1		bit (1) unaligned,
  1   128 			5 b2		bit (1) unaligned,
  1   129 			5 b3		bit (1) unaligned,
  1   130 			5 b4		bit (1) unaligned,
  1   131 			5 b5		bit (1) unaligned,
  1   132 			5 b6		bit (1) unaligned,
  1   133 			5 b7		bit (1) unaligned,
  1   134 			5 b8		bit (1) unaligned,
  1   135 			5 b9		bit (1) unaligned,
  1   136 			5 b10		bit (1) unaligned,
  1   137 			5 b11		bit (1) unaligned,
  1   138 			5 b12		bit (1) unaligned,
  1   139 			5 b13		bit (1) unaligned,
  1   140 			5 b14		bit (1) unaligned,
  1   141 			5 b15		bit (1) unaligned,
  1   142 			5 b16		bit (1) unaligned,
  1   143 			5 b17		bit (1) unaligned,
  1   144 			5 b18		bit (1) unaligned,
  1   145 			5 b19		bit (1) unaligned,
  1   146 			5 b20		bit (1) unaligned,
  1   147 			5 b21		bit (1) unaligned,
  1   148 			5 b22		bit (1) unaligned,
  1   149 			5 b23		bit (1) unaligned,
  1   150 			5 b24		bit (1) unaligned,
  1   151 			5 b25		bit (1) unaligned,
  1   152 			5 b26		bit (1) unaligned,
  1   153 			5 b27		bit (1) unaligned,
  1   154 			5 b28		bit (1) unaligned,
  1   155 			5 b29		bit (1) unaligned,
  1   156 			5 b30		bit (1) unaligned,
  1   157 			5 b31		bit (1) unaligned,
  1   158 			5 b32		bit (1) unaligned,
  1   159 			5 b33		bit (1) unaligned,
  1   160 			5 b34		bit (1) unaligned,
  1   161 			5 b35		bit (1) unaligned,
  1   162 /* 55-60 */	4 lsftm (0:3)	bit (36),
  1   163 /* 61    */	4 lsprt		fixed bin (35),
  1   164 /* 62    */	4 ltrm		bit (36),
  1   165 /* 63    */	4 linno		fixed bin (35),
  1   166 /* 64    */	4 lincr		fixed bin (35),
  1   167 /* 65    */	4 ltdes		bit (36),
  1   168 /* 66    */	4 lbptr		bit (36),
  1   169 /* 67    */	4 lpptr,
  1   170 			5 last_file_pat_ptr	bin (18) uns unal,
  1   171 			5 lpptr_reserved	bin (18) uns unal,
  1   172 /* 70    */	4 lsclp		bit (36),
  1   173 /* 71    */	4 limit		fixed bin (35),
  1   174 /* 72    */	4 lacpt,
  1   175 			5 jout_pat_offset	bit (18) unal,
  1   176 			5 permissions unal,
  1   177 				6 lodx		bit (1) unal,
  1   178 				6 cardin		bit (1) unal,
  1   179 				6 talk		bit (1) unal,
  1   180 				6 lods		bit (1) unal,
  1   181 			5 cardin_urgency	bit (14) unal,
  1   182 /* 73    */	4 ldrl,
  1   183 			5 ilc		bit (18) unaligned,
  1   184 			5 code		fixed bin (17) unaligned,
  1   185 /* 74    */	4 ljsnb		bit (36),
  1   186 /* 75    */	4 ltm0		bit (36),
  1   187 /* 76    */	4 ltm1		bit (36),
  1   188 /* 77    */	4 ltm2		bit (36),
  1   189 /* 100   */	4 ltm3		bit (36),
  1   190 /* 101   */	4 ltm4		bit (36),
  1   191 /* 102   */	4 ltm5		bit (36),
  1   192 /* 103   */	4 ltmwt		bit (36),
  1   193 /* 104   */	4 ltmrs		bit (36),
  1   194 /* 105   */	4 ltc0		bit (36),
  1   195 /* 106   */	4 ltc1		bit (36),
  1   196 /* 107   */	4 ltc2		bit (36),
  1   197 /* 110   */	4 lct3		bit (36),
  1   198 /* 111   */	4 ltc4		bit (36),
  1   199 /* 112   */	4 ltc5		bit (36),
  1   200 /* 113   */	4 ltcw		bit (36),
  1   201 /* 114   */	4 lkst		bit (36),
  1   202 /* 115   */	4 lkst2		bit (36),
  1   203 /* 116   */	4 lkcc		bit (36),
  1   204 /* 117   */	4 lkms		bit (36),
  1   205 /* 120-121 */	4 lksdc (0:1)	bit (36),
  1   206 /* 122   */	4 lkntp		bit (36),
  1   207 /* 123   */	4 lkrdc		bit (36),
  1   208 /* 124   */	4 lpqf		bit (36),
  1   209 /* 125   */	4 lpqb		bit (36),
  1   210 /* 126   */	4 lustl		bit (36),
  1   211 /* 127   */	4 ltemp		bit (36),
  1   212 /* 130   */	4 lrtll,
  1   213 			5 word_length	fixed bin unaligned,
  1   214 			5 char_length	fixed bin unaligned,
  1   215 /* 131   */	4 ltim		bit (36),
  1   216 /* 132   */	4 lcfio,
  1   217 			5 sect_out	fixed bin(18)unsigned unal,
  1   218 			5 sect_in		fixed bin(18)unsigned unal,
  1   219 /* 133   */	4 lcfst,
  1   220 			5 initial_sect_out	fixed bin(18)unsigned unal,
  1   221 			5 start_term	fixed bin(18)unsigned unal,
  1   222 /* 134   */	4 lcmpt		bit (36),
  1   223 /* 135   */	4 lcjid		bit (36),
  1   224 /* 136-137 */	4 lrcal (0:1)	bit (36),
  1   225 /* 140   */	4 lrdta		bit (36),
  1   226 /* 141   */	4 lrrsk		bit (36),
  1   227 /* 142   */	4 lrskd		bit (36),
  1   228 /* 143   */	4 lrcc		bit (36),
  1   229 /* 144-145 */	4 lrsts (0:1)	bit (36),
  1   230 /* 146   */	4 lrtm		bit (36),
  1   231 /* 147   */	4 lswt2,
  1   232 			5 b0		bit (1) unaligned,
  1   233 			5 b1		bit (1) unaligned,
  1   234 			5 b2		bit (1) unaligned,
  1   235 			5 b3		bit (1) unaligned,
  1   236 			5 b4		bit (1) unaligned,
  1   237 			5 b5		bit (1) unaligned,
  1   238 			5 b6		bit (1) unaligned,
  1   239 			5 b7		bit (1) unaligned,
  1   240 			5 b8		bit (1) unaligned,
  1   241 			5 b9		bit (1) unaligned,
  1   242 			5 b10		bit (1) unaligned,
  1   243 			5 b11		bit (1) unaligned,
  1   244 			5 b12		bit (1) unaligned,
  1   245 			5 b13		bit (1) unaligned,
  1   246 			5 b14		bit (1) unaligned,
  1   247 			5 b15		bit (1) unaligned,
  1   248 			5 b16		bit (1) unaligned,
  1   249 			5 b17		bit (1) unaligned,
  1   250 			5 b18		bit (1) unaligned,
  1   251 			5 b19		bit (1) unaligned,
  1   252 			5 b20		bit (1) unaligned,
  1   253 			5 b21		bit (1) unaligned,
  1   254 			5 b22		bit (1) unaligned,
  1   255 			5 b23		bit (1) unaligned,
  1   256 			5 b24		bit (1) unaligned,
  1   257 			5 b25		bit (1) unaligned,
  1   258 			5 b26		bit (1) unaligned,
  1   259 			5 b27		bit (1) unaligned,
  1   260 			5 b28		bit (1) unaligned,
  1   261 			5 b29		bit (1) unaligned,
  1   262 			5 b30		bit (1) unaligned,
  1   263 			5 b31		bit (1) unaligned,
  1   264 			5 b32		bit (1) unaligned,
  1   265 			5 b33		bit (1) unaligned,
  1   266 			5 b34		bit (1) unaligned,
  1   267 			5 b35		bit (1) unaligned,
  1   268 /* 150   */	4 llsnb		bit (36),
  1   269 /* 151   */	4 lesq		bit (36),
  1   270 /* 152-153 */	4 lumc (0:1)	bit (36),
  1   271 /* 154-155 */	4 lfnam (0:1)	bit (36),
  1   272 /* 156   */	4 lopts		bit (36),
  1   273 /* 157   */	4 licec,
  1   274 			5 b0_17		bit (18) unaligned,
  1   275 			5 b18_35		fixed bin (17) unaligned,
  1   276 /* 160   */	4 lflg3,
  1   277 			5 b0		bit (1) unaligned,
  1   278 			5 b1		bit (1) unaligned,
  1   279 			5 b2		bit (1) unaligned,
  1   280 			5 b3		bit (1) unaligned,
  1   281 			5 b4		bit (1) unaligned,
  1   282 			5 b5		bit (1) unaligned,
  1   283 			5 b6		bit (1) unaligned,
  1   284 			5 b7		bit (1) unaligned,
  1   285 			5 b8		bit (1) unaligned,
  1   286 			5 b9		bit (1) unaligned,
  1   287 			5 b10		bit (1) unaligned,
  1   288 			5 b11		bit (1) unaligned,
  1   289 			5 b12		bit (1) unaligned,
  1   290 			5 b13		bit (1) unaligned,
  1   291 			5 b14		bit (1) unaligned,
  1   292 			5 b15		bit (1) unaligned,
  1   293 			5 b16		bit (1) unaligned,
  1   294 			5 b17		bit (1) unaligned,
  1   295 			5 b18		bit (1) unaligned,
  1   296 			5 b19		bit (1) unaligned,
  1   297 			5 b20		bit (1) unaligned,
  1   298 			5 b21		bit (1) unaligned,
  1   299 			5 b22		bit (1) unaligned,
  1   300 			5 b23		bit (1) unaligned,
  1   301 			5 b24		bit (1) unaligned,
  1   302 			5 b25		bit (1) unaligned,
  1   303 			5 b26		bit (1) unaligned,
  1   304 			5 b27		bit (1) unaligned,
  1   305 			5 b28		bit (1) unaligned,
  1   306 			5 b29		bit (1) unaligned,
  1   307 			5 b30		bit (1) unaligned,
  1   308 			5 b31		bit (1) unaligned,
  1   309 			5 b32		bit (1) unaligned,
  1   310 			5 b33		bit (1) unaligned,
  1   311 			5 b34		bit (1) unaligned,
  1   312 			5 b35		bit (1) unaligned,
  1   313 /* 161-163 */	4 lpage (0:2)	bit (36),
  1   314 /* 164   */	4 lsit1		bit (36),
  1   315 /* 165   */	4 lsit2		bit (36),
  1   316 /* 166   */	4 lsit3		bit (36),
  1   317 /* 167   */	4 lsit4		bit (36),
  1   318 /* The following entries are maintained by gtss and are not found in TSS UST */
  1   319 /* 170   */	4 lxxx, /* program stack index, offset from gtss_ust */
  1   320 			5 b0_17		fixed bin (17) unaligned,
  1   321 			5 b18_35		bit (18) unaligned, /* not used */
  1   322 /* 171-175 */	4 lprgs (5),
  1   323 			5 b0_17		fixed bin (17) unaligned,
  1   324 			5 b18_35		fixed bin (17) unaligned,
  1   325 /* 176   */	4 fill	bit (36),
  1   326 /* 177   */	4 remote_io_buffer aligned,
  1   327 			5 buffer_control_word,
  1   328 				6 current_line_pointer  bit (18)unal,
  1   329 				6 buffer_threshold_address  bit (18)unal,
  1   330 			5 number_words_transmitted	fixed bin (17)unal,
  1   331 			5 FILL1			fixed bin (17)unal,
  1   332 			5 count_of_characters_transmitted fixed bin (17)unal,
  1   333 			5 FILL2			fixed bin (17)unal,
  1   334 			5 characters_transmitted (244) char (1) unal,
  1   335 /* 277   */	4 word_after_ust		bit (36) aligned;
  1   336
  1   337 /*   END INCLUDE FILE gtss_ust_ext_.incl.pl1 */
       48
       49 
  2     1 /* BEGIN INCLUDE FILE gtss_entry_dcls.incl.pl1 */
  2     2 /*
  2     3*  Created: (Wardd Multics)  06/30/78 1624.8 mst Fri
  2     4*  Modified: Ron Barstad  84-02-24  Fixed wrong and obsolete entries
  2     5**/
  2     6
  2     7 /**  gtss external entry variables.		**/
  2     8 dcl  com_err_                                   entry() options(variable);
  2     9 dcl  gtss_CFP_abort_                            entry options(variable);
  2    10 dcl  gtss_CFP_break_                            entry options(variable);
  2    11 dcl  gtss_CFP_input_                            entry (ptr, ptr, fixed bin(21), fixed bin(21), fixed bin(35));
  2    12 dcl  gtss_CFP_output_                           entry (ptr, ptr, fixed bin(21), fixed bin(35));
  2    13 dcl  gtss_abandon_CFP_                          entry options(variable);
  2    14 dcl  gtss_abort_dump_                           entry (fixed bin(18));
  2    15 dcl  gtss_abort_subsystem_                      entry options (variable);
  2    16 dcl  gtss_abort_subsystem_$not_imp              entry (ptr, fixed bin(24));
  2    17 dcl  gtss_abs_login_banner_		        entry() returns(char(*));
  2    18 dcl  gtss_abs_logout_banner_		        entry() returns(char(*));
  2    19 dcl  gtss_abs_$abs_equiv                        entry options(variable);
  2    20 dcl  gtss_abs_$cpu_runout		        entry (ptr, char(4));
  2    21 dcl  gtss_abs_$create_absin                     entry() returns(char(*));
  2    22 dcl  gtss_abs_$dabt_check		        entry (ptr, char(4));
  2    23 dcl  gtss_abs_$get_id                           entry (char(5)) returns(char(19));
  2    24 dcl  gtss_abs_$get_drm                          entry() returns(char(*));
  2    25 dcl  gtss_adjust_size_                          entry (ptr);
  2    26 dcl  gtss_aft_$add                              entry (char(8), fixed bin(24), fixed bin(35));
  2    27 dcl  gtss_aft_$delete                           entry (char(8), fixed bin(24), fixed bin(35));
  2    28 dcl  gtss_aft_$find                             entry (char(8), fixed bin(24), fixed bin(35));
  2    29 dcl  gtss_aft_$initialize                       entry (fixed bin(35));
  2    30 dcl  gtss_ascii_bcd_                            entry (ptr, fixed bin, ptr);
  2    31 dcl  gtss_attributes_mgr_$get                   entry (ptr, fixed bin(35));
  2    32 dcl  gtss_attributes_mgr_$set                   entry (ptr, fixed bin(35));
  2    33 dcl  gtss_bcd_ascii_                            entry (ptr, fixed bin(24), ptr);
  2    34 dcl  gtss_bcd_ascii_$lc                         entry (ptr, fixed bin(24), ptr);
  2    35 dcl  gtss_break_vector_                         entry ();
  2    36 dcl  gtss_break_vector_$drl_in_progress         entry() returns(bit(1));
  2    37 dcl  gtss_break_vector_$status                  entry() returns(bit(1));
  2    38 dcl  gtss_build_                                entry options(variable);
  2    39 dcl  gtss_com_err_                              entry options(variable);
  2    40 dcl  gtss_derail_processor_                     entry (ptr, char(*), ptr, ptr, bit(1) aligned) /* called at fault time instead of signal_ */;
  2    41 dcl  gtss_derail_processor_$set                 entry options(variable);
  2    42 dcl  gtss_dq_$catp                              entry (char (5), ptr, fixed bin (18) unsigned);
  2    43 dcl  gtss_dq_$create                            entry (bit(1));
  2    44 dcl  gtss_dq_$dibp                              entry (char(5), ptr);
  2    45 dcl  gtss_dq_$entries_info		        entry (ptr, fixed bin (18) unsigned, fixed bin (18) unsigned);
  2    46 dcl  gtss_dq_$hdrp                              entry (ptr);
  2    47 dcl  gtss_dq_$mod_js		        entry (char(5), fixed bin (6) unsigned, bit (1));
  2    48 dcl  gtss_dq_$open_exc		        entry (bit(1));
  2    49 dcl  gtss_dq_$open_gen		        entry (bit(1));
  2    50 dcl  gtss_drl_abort_                            entry (ptr, fixed bin);
  2    51 dcl  gtss_drl_addmem_                           entry (ptr, fixed bin);
  2    52 dcl  gtss_drl_callss_                           entry (ptr, fixed bin);
  2    53 dcl  gtss_drl_corfil_                           entry (ptr, fixed bin);
  2    54 dcl  gtss_drl_defil_                            entry (ptr, fixed bin);
  2    55 dcl  gtss_drl_defil_$subr                       entry (ptr, ptr, ptr);
  2    56 dcl  gtss_drl_dio_                              entry (ptr, fixed bin);
  2    57 dcl  gtss_drl_drlimt_                           entry (ptr, fixed bin);
  2    58 dcl  gtss_drl_drlsav_                           entry (ptr, fixed bin);
  2    59 dcl  gtss_drl_filact_                           entry (ptr, fixed bin);
  2    60 dcl  gtss_drl_filsp_                            entry (ptr, fixed bin);
  2    61 dcl  gtss_drl_grow_                             entry (ptr, fixed bin);
  2    62 dcl  gtss_drl_gwake_                            entry (ptr, fixed bin);
  2    63 dcl  gtss_drl_jsts_                             entry (ptr, fixed bin);
  2    64 dcl  gtss_drl_kin_                              entry (ptr, fixed bin);
  2    65 dcl  gtss_drl_kotnow_                           entry (ptr, fixed bin);
  2    66 dcl  gtss_drl_kotnow_$gtss_drl_kout_            entry (ptr, fixed bin);
  2    67 dcl  gtss_drl_koutn_                            entry (ptr, fixed bin);
  2    68 dcl  gtss_drl_morlnk_                           entry (ptr, fixed bin);
  2    69 dcl  gtss_drl_msub_                             entry (ptr, fixed bin);
  2    70 dcl  gtss_drl_objtim_                           entry (ptr, fixed bin);
  2    71 dcl  gtss_drl_part_                             entry (ptr, fixed bin);
  2    72 dcl  gtss_drl_pasaft_                           entry (ptr, fixed bin);
  2    73 dcl  gtss_drl_pasdes_                           entry (ptr, fixed bin);
  2    74 dcl  gtss_drl_pasust_                           entry (ptr, fixed bin);
  2    75 dcl  gtss_drl_pdio_                             entry (ptr, fixed bin);
  2    76 dcl  gtss_drl_prgdes_                           entry (ptr, fixed bin);
  2    77 dcl  gtss_drl_pseudo_                           entry (ptr, fixed bin);
  2    78 dcl  gtss_drl_relmem_                           entry (ptr, fixed bin);
  2    79 dcl  gtss_drl_restor_                           entry (ptr, fixed bin);
  2    80 dcl  gtss_drl_retfil_                           entry (ptr, fixed bin);
  2    81 dcl  gtss_drl_return_                           entry (ptr, fixed bin);
  2    82 dcl  gtss_drl_rew_                              entry (ptr, fixed bin);
  2    83 dcl  gtss_drl_rstswh_                           entry (ptr, fixed bin);
  2    84 dcl  gtss_drl_setlno_                           entry (ptr, fixed bin);
  2    85 dcl  gtss_drl_setswh_                           entry (ptr, fixed bin);
  2    86 dcl  gtss_drl_snumb_                            entry (ptr, fixed bin);
  2    87 dcl  gtss_drl_spawn_                            entry (ptr, fixed bin);
  2    88 dcl  gtss_drl_spawn_$gtss_drl_pasflr_           entry (ptr, fixed bin);
  2    89 dcl  gtss_drl_stoppt_                           entry (ptr, fixed bin);
  2    90 dcl  gtss_drl_switch_                           entry (ptr, fixed bin);
  2    91 dcl  gtss_drl_sysret_                           entry (ptr, fixed bin);
  2    92 dcl  gtss_drl_t_cfio_                           entry (ptr, fixed bin);
  2    93 dcl  gtss_drl_t_cmov_                           entry (ptr, fixed bin);
  2    94 dcl  gtss_drl_t_err_                            entry (ptr, fixed bin);
  2    95 dcl  gtss_drl_t_goto_                           entry (ptr, fixed bin);
  2    96 dcl  gtss_drl_t_linl_                           entry (ptr, fixed bin);
  2    97 dcl  gtss_drl_t_rscc_                           entry (ptr, fixed bin);
  2    98 dcl  gtss_drl_tapein_                           entry (ptr, fixed bin);
  2    99 dcl  gtss_drl_task_                             entry (ptr, fixed bin);
  2   100 dcl  gtss_drl_termtp_                           entry (ptr, fixed bin);
  2   101 dcl  gtss_drl_time_                             entry (ptr, fixed bin);
  2   102 dcl  gtss_drun_                                 entry (bit(1));
  2   103 dcl  gtss_dsd_lookup_                           entry (char(8) var) returns(fixed bin(24));
  2   104 dcl  gtss_dsd_process_                          entry (ptr, ptr, fixed bin(21), fixed bin(21), fixed bin(35));
  2   105 dcl  gtss_edit_dsd_                             entry (ptr, fixed bin(21)) returns(fixed bin(24));
  2   106 dcl  gtss_mcfc_empty                            entry (char(*) var);
  2   107 dcl  gtss_expand_pathname_                      entry (ptr, char(*), char(*), fixed bin(35));
  2   108 dcl  gtss_expand_pathname_$verify_umc           entry (ptr, char(*), char(*), bit(18), fixed bin(35));
  2   109 dcl  gtss_fault_processor_                      entry options(variable);
  2   110 dcl  gtss_find_cond_frame_		        entry (char(32) var) returns(ptr);
  2   111 dcl  gtss_fault_processor_$timer_runout         entry (ptr, char(*));
  2   112 dcl  gtss_filact_error_status_                  entry (fixed bin(35))returns(bit(12));
  2   113 dcl  gtss_filact_funct02_                       entry (ptr, bit(18), ptr, ptr, ptr, fixed bin(35));
  2   114 dcl  gtss_filact_funct03_                       entry (ptr, bit(18), ptr, ptr, ptr, fixed bin(35));
  2   115 dcl  gtss_filact_funct04_                       entry (ptr, bit(18), ptr, ptr, ptr, fixed bin(35));
  2   116 dcl  gtss_filact_funct05_                       entry (ptr, bit(18), ptr, ptr, ptr, fixed bin(35));
  2   117 dcl  gtss_filact_funct08_                       entry (ptr, bit(18), ptr, ptr, ptr, fixed bin(35));
  2   118 dcl  gtss_filact_funct10_                       entry (ptr, bit(18), ptr, ptr, ptr, fixed bin(35));
  2   119 dcl  gtss_filact_funct11_                       entry (ptr, bit(18), ptr, ptr, ptr, fixed bin(35));
  2   120 dcl  gtss_filact_funct14_                       entry (ptr, bit(18), ptr, ptr, ptr, fixed bin(35));
  2   121 dcl  gtss_filact_funct18_                       entry (ptr, bit(18), ptr, ptr, ptr, fixed bin(35));
  2   122 dcl  gtss_filact_funct19_                       entry (ptr, bit(18), ptr, ptr, ptr, fixed bin(35));
  2   123 dcl  gtss_filact_funct21_                       entry (ptr, bit(18), ptr, ptr, ptr, fixed bin(35));
  2   124 dcl  gtss_filact_funct22_                       entry (ptr, bit(18), ptr, ptr, ptr, fixed bin(35));
  2   125 dcl  gtss_mcfc_init_                            entry (char(*) var);
  2   126 dcl  gtss_interp_prim_                          entry options(variable);
  2   127 dcl  gtss_interp_prim_$callss                   entry (char(4), ptr);
  2   128 dcl  gtss_interp_prim_$sysret                   entry options(variable);
  2   129 dcl  gtss_interp_prim_$t_goto                   entry (char(4));
  2   130 dcl  gtss_ios_change_size_                      entry (fixed bin(24), fixed bin(24), bit(1), fixed bin(24), fixed bin(35));
  2   131 dcl  gtss_ios_close_                            entry (fixed bin(24), ptr, fixed bin(35));
  2   132 dcl  gtss_ios_exchange_names_                   entry (fixed bin(24), fixed bin(24), fixed bin(24), fixed bin(35));
  2   133 dcl  gtss_ios_initialize_                       entry options(variable);
  2   134 dcl  gtss_ios_io_                               entry (fixed bin(24), ptr, ptr, fixed bin(24), fixed bin(24), fixed bin(35));
  2   135 dcl  gtss_ios_open_                             entry (fixed bin(24), char(168), char(32), bit(6), bit(1), ptr, ptr, fixed bin(35));
  2   136 dcl  gtss_ios_position_                         entry (fixed bin(24), fixed bin(24), fixed bin(24), bit(6), ptr);
  2   137 dcl  gtss_mcfc_$delete		        entry (fixed bin(24), char(*), char(*), bit(36) aligned, ptr, fixed bin(35));
  2   138 dcl  gtss_mcfc_$open                            entry (char(*), char(*), bit(6), bit(36) aligned, ptr, fixed bin(35));
  2   139 dcl  gtss_mcfc_$close                           entry (char(*), char(*), bit(36) aligned, ptr, fixed bin(35));
  2   140 dcl  gtss_read_starCFP_                         entry (ptr, ptr, fixed bin(21), fixed bin(21), fixed bin(35));
  2   141 dcl  gtss_read_starCFP_$last_os                 entry (ptr, ptr, fixed bin(21), fixed bin(21), fixed bin(35));
  2   142 dcl  gtss_run_subsystem_                        entry (fixed bin(24));
  2   143 dcl  gtss_run_subsystem_$finish                 entry options(variable);
  2   144 dcl  gtss_run_subsystem_$restor                 entry (fixed bin(24), ptr);
  2   145 dcl  gtss_run_subsystem_$restor_perm            entry (fixed bin(24), ptr, fixed bin(18));
  2   146 dcl  gtss_set_slave_                            entry (fixed bin (24), ptr);
  2   147 dcl  gtss_set_slave_$load_bar                   entry (fixed bin (17));
  2   148 dcl  gtss_update_safe_store_                    entry (ptr);
  2   149 dcl  gtss_verify_access_		        entry (char(*), char(*), fixed bin(24), bit(6), bit(12) aligned);
  2   150 dcl  gtss_verify_access_$check_forced_access    entry (char(*), char(*), fixed bin(24));
  2   151 dcl  gtss_write_starCFP_                        entry (ptr, ptr, fixed bin(21), fixed bin(35));
  2   152 /*   END INCLUDE FILE gtss_entry_dcls.incl.pl1 */
       50
       51 end; /* gtss_abs_login_banner_ */
	SOURCE FILES USED IN THIS COMPILATION.

LINE      NUMBER  DATE MODIFIED     NAME			PATHNAME
             0    12/10/84  1042.7  gtss_abs_login_banner_.pl1        >spec>on>7105>gtss_abs_login_banner_.pl1
48           1    09/09/83  1714.3  gtss_ust_ext_.incl.pl1            >ldd>include>gtss_ust_ext_.incl.pl1
50           2    12/10/84  1029.7  gtss_entry_dcls.incl.pl1          >spec>on>7105>gtss_entry_dcls.incl.pl1
	NAMES DECLARED IN THIS COMPILATION.

IDENTIFIER	     OFFSET    LOC STORAGE CLASS   DATA TYPE		ATTRIBUTES AND REFERENCES
								(* indicates a set context)

NAMES DECLARED BY DECLARE STATEMENT.
acct                            000100 automatic       char(32)                 unaligned dcl 21 set ref 11*
anon                            000110 automatic       fixed bin(17,0)          dcl 22 set ref 11*
ascii_lcjid                     000112 automatic       char(5)                  unaligned dcl 23 set ref 13 13 14*
code                            000114 automatic       fixed bin(35,0)          dcl 25 set ref 12*
decode_clock_value_$date_time   000010 constant        entry                    external dcl 26 ref 12
dom                             000115 automatic       fixed bin(17,0)          dcl 28 set ref 12* 14*
dow                             000116 automatic       fixed bin(17,0)          dcl 29 set ref 12*
gtss_bcd_ascii_                 000020 constant        entry                    external dcl 2-33 ref 13
gtss_ust                        000016 external static structure                level 2 dcl 1-16
gtss_ust_ext_$ust               000016 external static structure                level 1 dcl 1-16
hour                            000117 automatic       fixed bin(17,0)          dcl 30 set ref 12* 14*
ioa_$rs                         000012 constant        entry                    external dcl 31 ref 14
lcjid                   135     000016 external static bit(36)                  level 3 dcl 1-16 set ref 13 13
lw                              000120 automatic       char(5)                  unaligned dcl 32 set ref 11*
microsecond                     000124 automatic       fixed bin(71,0)          dcl 34 set ref 12*
minute                          000122 automatic       fixed bin(17,0)          dcl 33 set ref 12* 14
month                           000126 automatic       fixed bin(17,0)          dcl 35 set ref 12* 14*
pid                             000127 automatic       char(22)                 unaligned dcl 36 set ref 11*
pjid                            000135 automatic       char(9)                  unaligned dcl 37 set ref 11*
ret_len                         000140 automatic       fixed bin(21,0)          dcl 38 set ref 14* 18
ret_string                      000141 automatic       char(256)                unaligned dcl 39 set ref 14* 18
second                          000241 automatic       fixed bin(17,0)          dcl 40 set ref 12*
stby                            000242 automatic       fixed bin(17,0)          dcl 41 set ref 11*
time_login                      000244 automatic       fixed bin(71,0)          dcl 42 set ref 11* 12*
user_info_$login_data           000014 constant        entry                    external dcl 44 ref 11
wt                              000246 automatic       fixed bin(17,0)          dcl 43 set ref 11*
year                            000247 automatic       fixed bin(17,0)          dcl 45 set ref 12* 14

NAMES DECLARED BY DECLARE STATEMENT AND NEVER REFERENCED.
clock_                          000000 constant        entry                    external dcl 24
com_err_                        000000 constant        entry                    external dcl 2-8
gtss_CFP_abort_                 000000 constant        entry                    external dcl 2-9
gtss_CFP_break_                 000000 constant        entry                    external dcl 2-10
gtss_CFP_input_                 000000 constant        entry                    external dcl 2-11
gtss_CFP_output_                000000 constant        entry                    external dcl 2-12
gtss_abandon_CFP_               000000 constant        entry                    external dcl 2-13
gtss_abort_dump_                000000 constant        entry                    external dcl 2-14
gtss_abort_subsystem_           000000 constant        entry                    external dcl 2-15
gtss_abort_subsystem_$not_imp   000000 constant        entry                    external dcl 2-16
gtss_abs_$abs_equiv             000000 constant        entry                    external dcl 2-19
gtss_abs_$cpu_runout            000000 constant        entry                    external dcl 2-20
gtss_abs_$create_absin          000000 constant        entry                    external dcl 2-21
gtss_abs_$dabt_check            000000 constant        entry                    external dcl 2-22
gtss_abs_$get_drm               000000 constant        entry                    external dcl 2-24
gtss_abs_$get_id                000000 constant        entry                    external dcl 2-23
gtss_abs_login_banner_          000000 constant        entry                    external dcl 2-17
gtss_abs_logout_banner_         000000 constant        entry                    external dcl 2-18
gtss_adjust_size_               000000 constant        entry                    external dcl 2-25
gtss_aft_$add                   000000 constant        entry                    external dcl 2-26
gtss_aft_$delete                000000 constant        entry                    external dcl 2-27
gtss_aft_$find                  000000 constant        entry                    external dcl 2-28
gtss_aft_$initialize            000000 constant        entry                    external dcl 2-29
gtss_ascii_bcd_                 000000 constant        entry                    external dcl 2-30
gtss_attributes_mgr_$get        000000 constant        entry                    external dcl 2-31
gtss_attributes_mgr_$set        000000 constant        entry                    external dcl 2-32
gtss_bcd_ascii_$lc              000000 constant        entry                    external dcl 2-34
gtss_break_vector_              000000 constant        entry                    external dcl 2-35
gtss_break_vector_$drl_in_progress
                                000000 constant        entry                    external dcl 2-36
gtss_break_vector_$status       000000 constant        entry                    external dcl 2-37
gtss_build_                     000000 constant        entry                    external dcl 2-38
gtss_com_err_                   000000 constant        entry                    external dcl 2-39
gtss_derail_processor_          000000 constant        entry                    external dcl 2-40
gtss_derail_processor_$set      000000 constant        entry                    external dcl 2-41
gtss_dq_$catp                   000000 constant        entry                    external dcl 2-42
gtss_dq_$create                 000000 constant        entry                    external dcl 2-43
gtss_dq_$dibp                   000000 constant        entry                    external dcl 2-44
gtss_dq_$entries_info           000000 constant        entry                    external dcl 2-45
gtss_dq_$hdrp                   000000 constant        entry                    external dcl 2-46
gtss_dq_$mod_js                 000000 constant        entry                    external dcl 2-47
gtss_dq_$open_exc               000000 constant        entry                    external dcl 2-48
gtss_dq_$open_gen               000000 constant        entry                    external dcl 2-49
gtss_drl_abort_                 000000 constant        entry                    external dcl 2-50
gtss_drl_addmem_                000000 constant        entry                    external dcl 2-51
gtss_drl_callss_                000000 constant        entry                    external dcl 2-52
gtss_drl_corfil_                000000 constant        entry                    external dcl 2-53
gtss_drl_defil_                 000000 constant        entry                    external dcl 2-54
gtss_drl_defil_$subr            000000 constant        entry                    external dcl 2-55
gtss_drl_dio_                   000000 constant        entry                    external dcl 2-56
gtss_drl_drlimt_                000000 constant        entry                    external dcl 2-57
gtss_drl_drlsav_                000000 constant        entry                    external dcl 2-58
gtss_drl_filact_                000000 constant        entry                    external dcl 2-59
gtss_drl_filsp_                 000000 constant        entry                    external dcl 2-60
gtss_drl_grow_                  000000 constant        entry                    external dcl 2-61
gtss_drl_gwake_                 000000 constant        entry                    external dcl 2-62
gtss_drl_jsts_                  000000 constant        entry                    external dcl 2-63
gtss_drl_kin_                   000000 constant        entry                    external dcl 2-64
gtss_drl_kotnow_                000000 constant        entry                    external dcl 2-65
gtss_drl_kotnow_$gtss_drl_kout_ 000000 constant        entry                    external dcl 2-66
gtss_drl_koutn_                 000000 constant        entry                    external dcl 2-67
gtss_drl_morlnk_                000000 constant        entry                    external dcl 2-68
gtss_drl_msub_                  000000 constant        entry                    external dcl 2-69
gtss_drl_objtim_                000000 constant        entry                    external dcl 2-70
gtss_drl_part_                  000000 constant        entry                    external dcl 2-71
gtss_drl_pasaft_                000000 constant        entry                    external dcl 2-72
gtss_drl_pasdes_                000000 constant        entry                    external dcl 2-73
gtss_drl_pasust_                000000 constant        entry                    external dcl 2-74
gtss_drl_pdio_                  000000 constant        entry                    external dcl 2-75
gtss_drl_prgdes_                000000 constant        entry                    external dcl 2-76
gtss_drl_pseudo_                000000 constant        entry                    external dcl 2-77
gtss_drl_relmem_                000000 constant        entry                    external dcl 2-78
gtss_drl_restor_                000000 constant        entry                    external dcl 2-79
gtss_drl_retfil_                000000 constant        entry                    external dcl 2-80
gtss_drl_return_                000000 constant        entry                    external dcl 2-81
gtss_drl_rew_                   000000 constant        entry                    external dcl 2-82
gtss_drl_rstswh_                000000 constant        entry                    external dcl 2-83
gtss_drl_setlno_                000000 constant        entry                    external dcl 2-84
gtss_drl_setswh_                000000 constant        entry                    external dcl 2-85
gtss_drl_snumb_                 000000 constant        entry                    external dcl 2-86
gtss_drl_spawn_                 000000 constant        entry                    external dcl 2-87
gtss_drl_spawn_$gtss_drl_pasflr_
                                000000 constant        entry                    external dcl 2-88
gtss_drl_stoppt_                000000 constant        entry                    external dcl 2-89
gtss_drl_switch_                000000 constant        entry                    external dcl 2-90
gtss_drl_sysret_                000000 constant        entry                    external dcl 2-91
gtss_drl_t_cfio_                000000 constant        entry                    external dcl 2-92
gtss_drl_t_cmov_                000000 constant        entry                    external dcl 2-93
gtss_drl_t_err_                 000000 constant        entry                    external dcl 2-94
gtss_drl_t_goto_                000000 constant        entry                    external dcl 2-95
gtss_drl_t_linl_                000000 constant        entry                    external dcl 2-96
gtss_drl_t_rscc_                000000 constant        entry                    external dcl 2-97
gtss_drl_tapein_                000000 constant        entry                    external dcl 2-98
gtss_drl_task_                  000000 constant        entry                    external dcl 2-99
gtss_drl_termtp_                000000 constant        entry                    external dcl 2-100
gtss_drl_time_                  000000 constant        entry                    external dcl 2-101
gtss_drun_                      000000 constant        entry                    external dcl 2-102
gtss_dsd_lookup_                000000 constant        entry                    external dcl 2-103
gtss_dsd_process_               000000 constant        entry                    external dcl 2-104
gtss_edit_dsd_                  000000 constant        entry                    external dcl 2-105
gtss_expand_pathname_           000000 constant        entry                    external dcl 2-107
gtss_expand_pathname_$verify_umc
                                000000 constant        entry                    external dcl 2-108
gtss_fault_processor_           000000 constant        entry                    external dcl 2-109
gtss_fault_processor_$timer_runout
                                000000 constant        entry                    external dcl 2-111
gtss_filact_error_status_       000000 constant        entry                    external dcl 2-112
gtss_filact_funct02_            000000 constant        entry                    external dcl 2-113
gtss_filact_funct03_            000000 constant        entry                    external dcl 2-114
gtss_filact_funct04_            000000 constant        entry                    external dcl 2-115
gtss_filact_funct05_            000000 constant        entry                    external dcl 2-116
gtss_filact_funct08_            000000 constant        entry                    external dcl 2-117
gtss_filact_funct10_            000000 constant        entry                    external dcl 2-118
gtss_filact_funct11_            000000 constant        entry                    external dcl 2-119
gtss_filact_funct14_            000000 constant        entry                    external dcl 2-120
gtss_filact_funct18_            000000 constant        entry                    external dcl 2-121
gtss_filact_funct19_            000000 constant        entry                    external dcl 2-122
gtss_filact_funct21_            000000 constant        entry                    external dcl 2-123
gtss_filact_funct22_            000000 constant        entry                    external dcl 2-124
gtss_find_cond_frame_           000000 constant        entry                    external dcl 2-110
gtss_interp_prim_               000000 constant        entry                    external dcl 2-126
gtss_interp_prim_$callss        000000 constant        entry                    external dcl 2-127
gtss_interp_prim_$sysret        000000 constant        entry                    external dcl 2-128
gtss_interp_prim_$t_goto        000000 constant        entry                    external dcl 2-129
gtss_ios_change_size_           000000 constant        entry                    external dcl 2-130
gtss_ios_close_                 000000 constant        entry                    external dcl 2-131
gtss_ios_exchange_names_        000000 constant        entry                    external dcl 2-132
gtss_ios_initialize_            000000 constant        entry                    external dcl 2-133
gtss_ios_io_                    000000 constant        entry                    external dcl 2-134
gtss_ios_open_                  000000 constant        entry                    external dcl 2-135
gtss_ios_position_              000000 constant        entry                    external dcl 2-136
gtss_mcfc_$close                000000 constant        entry                    external dcl 2-139
gtss_mcfc_$delete               000000 constant        entry                    external dcl 2-137
gtss_mcfc_$open                 000000 constant        entry                    external dcl 2-138
gtss_mcfc_empty                 000000 constant        entry                    external dcl 2-106
gtss_mcfc_init_                 000000 constant        entry                    external dcl 2-125
gtss_read_starCFP_              000000 constant        entry                    external dcl 2-140
gtss_read_starCFP_$last_os      000000 constant        entry                    external dcl 2-141
gtss_run_subsystem_             000000 constant        entry                    external dcl 2-142
gtss_run_subsystem_$finish      000000 constant        entry                    external dcl 2-143
gtss_run_subsystem_$restor      000000 constant        entry                    external dcl 2-144
gtss_run_subsystem_$restor_perm 000000 constant        entry                    external dcl 2-145
gtss_set_slave_                 000000 constant        entry                    external dcl 2-146
gtss_set_slave_$load_bar        000000 constant        entry                    external dcl 2-147
gtss_update_safe_store_         000000 constant        entry                    external dcl 2-148
gtss_verify_access_             000000 constant        entry                    external dcl 2-149
gtss_verify_access_$check_forced_access
                                000000 constant        entry                    external dcl 2-150
gtss_write_starCFP_             000000 constant        entry                    external dcl 2-151

NAME DECLARED BY EXPLICIT CONTEXT.
gtss_abs_login_banner_          000043 constant        entry                    external dcl 9

NAMES DECLARED BY CONTEXT OR IMPLICATION.
addr                                                   builtin function         ref 13 13 13 13
substr                                                 builtin function         ref 18

STORAGE REQUIREMENTS FOR THIS PROGRAM.

	Object	Text	Link	Symbol	Defs	Static
Start          0       0       366         410     265         376
Length       616     265        22         172     100           0

BLOCK NAME	         STACK SIZE     TYPE		WHY NONQUICK/WHO SHARES STACK FRAME
gtss_abs_login_banner_              246 external procedure  is an external procedure.

STORAGE FOR AUTOMATIC VARIABLES.

STACK FRAME                 LOC IDENTIFIER                  BLOCK NAME
gtss_abs_login_banner_   000100 acct                        gtss_abs_login_banner_
                         000110 anon                        gtss_abs_login_banner_
                         000112 ascii_lcjid                 gtss_abs_login_banner_
                         000114 code                        gtss_abs_login_banner_
                         000115 dom                         gtss_abs_login_banner_
                         000116 dow                         gtss_abs_login_banner_
                         000117 hour                        gtss_abs_login_banner_
                         000120 lw                          gtss_abs_login_banner_
                         000122 minute                      gtss_abs_login_banner_
                         000124 microsecond                 gtss_abs_login_banner_
                         000126 month                       gtss_abs_login_banner_
                         000127 pid                         gtss_abs_login_banner_
                         000135 pjid                        gtss_abs_login_banner_
                         000140 ret_len                     gtss_abs_login_banner_
                         000141 ret_string                  gtss_abs_login_banner_
                         000241 second                      gtss_abs_login_banner_
                         000242 stby                        gtss_abs_login_banner_
                         000244 time_login                  gtss_abs_login_banner_
                         000246 wt                          gtss_abs_login_banner_
                         000247 year                        gtss_abs_login_banner_

THE FOLLOWING EXTERNAL OPERATORS ARE USED BY THIS PROGRAM.
call_ext_out_desc   call_ext_out        ext_entry_desc      return_chars_eis    divide_fx1

THE FOLLOWING EXTERNAL ENTRIES ARE CALLED BY THIS PROGRAM.
decode_clock_value_$date_time gtss_bcd_ascii_               ioa_$rs                       user_info_$login_data

THE FOLLOWING EXTERNAL VARIABLES ARE USED BY THIS PROGRAM.
gtss_ust_ext_$ust


   LINE    LOC      LINE    LOC      LINE    LOC      LINE    LOC      LINE    LOC      LINE    LOC      LINE    LOC
      9 000040        11 000050        12 000112        13 000147        14 000171        18 000254


                                          -----------------------------------------------------------


Historical Background

This edition of the Multics software materials and documentation is provided and donated
to Massachusetts Institute of Technology by Group BULL including BULL HN Information Systems Inc.
as a contribution to computer science knowledge.
This donation is made also to give evidence of the common contributions of Massachusetts Institute of Technology,
Bell Laboratories, General Electric, Honeywell Information Systems Inc., Honeywell BULL Inc., Groupe BULL
and BULL HN Information Systems Inc. to the development of this operating system.
Multics development was initiated by Massachusetts Institute of Technology Project MAC (1963-1970),
renamed the MIT Laboratory for Computer Science and Artificial Intelligence in the mid 1970s, under the leadership
of Professor Fernando Jose Corbato. Users consider that Multics provided the best software architecture
for managing computer hardware properly and for executing programs. Many subsequent operating systems
incorporated Multics principles.
Multics was distributed in 1975 to 2000 by Group Bull in Europe , and in the U.S. by Bull HN Information Systems Inc.,
as successor in interest by change in name only to Honeywell Bull Inc. and Honeywell Information Systems Inc. .

                                          -----------------------------------------------------------

Permission to use, copy, modify, and distribute these programs and their documentation for any purpose and without
fee is hereby granted,provided that the below copyright notice and historical background appear in all copies
and that both the copyright notice and historical background and this permission notice appear in supporting
documentation, and that the names of MIT, HIS, BULL or BULL HN not be used in advertising or publicity pertaining
to distribution of the programs without specific prior written permission.
    Copyright 1972 by Massachusetts Institute of Technology and Honeywell Information Systems Inc.
    Copyright 2006 by BULL HN Information Systems Inc.
    Copyright 2006 by Bull SAS
    All Rights Reserved
