	COMPILATION LISTING OF SEGMENT gtss_drl_grow_
	Compiled by: Multics PL/I Compiler, Release 28d, of October 4, 1983
	Compiled at: Honeywell Multics Op. - System M
	Compiled on: 12/10/84  1234.1 mst Mon
	    Options: optimize map

        1 /* ***********************************************************
        2*   *                                                         *
        3*   *                                                         *
        4*   * Copyright, (C) Honeywell Information Systems Inc., 1981 *
        5*   *                                                         *
        6*   *                                                         *
        7*   *********************************************************** */
        8
        9 /* *************************************************************
       10*   *						   *
       11*   * Copyright (c) 1979 by Honeywell Information Systems, Inc. *
       12*   *						   *
       13*   ************************************************************* */
       14 gtss_drl_grow_: proc (mcpp, increment);
       15
       16 /* *	gtss grow a file.
       17*
       18*   Authors: Robert J. Grimes	Created
       19*   -	  Albert N. Kepner	  1978
       20*   -	  Robert M. May
       21*   -	  David B. Ward
       22*   Change:  Dave Ward	02/24/79 $db debug switch.
       23*   Change:  Dave Ward	10/31/79 Record quota overflow handling.
       24*   * */
       25 dcl  mcpp                     ptr parm;
       26 dcl  increment                fixed bin parm;
       27 	mcp = mcpp;
       28
       29 /* *
       30*
       31*   DRL GROW, GROW A PERMANENT OR TEMPORARY FILE (octal 50)
       32*
       33*
       34*   8_________1_6_____________________
       35*
       36*   DRL      GROW
       37*   ZERO     L(n),L(fileid)
       38*   ZERO     L(buff),L(stat)
       39*
       40*   (See TSS SYSTEM PROGRAMMER'S
       41*   REFERENCE MANUAL DD17C, Rev. 0, July 1976
       42*   Page 3-51)
       43*
       44**/
       45 
       46 	increment = 2 ;				/* Two arguments */
       47 	scup = addr (mc.scu);
       48 	gseg = gtss_ext_$gtss_slave_area_seg (gtss_ext_$stack_level_);
       49 	arg_list_ptr = addrel (gseg, fixed (scu.ilc)+1);	/* get addres of arg_list */
       50
       51 /* *	Obtain name of file to grow.	* */
       52 	if L_fileid >= gtss_ust.lsize.limit then do;
       53 	     call gtss_abort_subsystem_ (
       54 		mcp
       55 		, "gtss_drl_grow_"
       56 		, 4				/* Invalid drl argument */
       57 		, "FILE NAME OUTSIDE MEMORY AT (^o)"
       58 		, fixed (scu.ilc, 18)
       59 		);
       60 	     go to ret;
       61 	end;
       62 	afn_ptr = addrel (gseg, L_fileid);
       63
       64 /* *	Obtain pointer to return status word.	* */
       65 	if L_stat >= gtss_ust.lsize.limit then do;
       66 	     call gtss_abort_subsystem_ (
       67 		mcp
       68 		, "gtss_drl_grow_"
       69 		, 4				/* Invalid drl argument */
       70 		, "STATUS WORD OUTSIDE MEMORY (^o)"
       71 		, fixed (scu.ilc, 18)
       72 		);
       73 	     go to ret;
       74 	end;
       75 	grow_status_ptr = addrel (gseg, L_stat);
       76
       77 /* *	Obtain (fn) the AFT index to the file.	* */
       78 	call gtss_aft_$find (ascii_file_name, fn, code);
       79 	if code = 1 then do;			/* Unknown file (i.e., not in AFT). */
       80 	     grow_status = "4024"b3;			/* Failure of name scan (not in AFT). */
       81 	     go to ret;
       82 	end;
       83
       84 /* *	Obtain amount to grow file.	* */
       85 	if L_n >= gtss_ust.lsize.limit then do;
       86 	     call gtss_abort_subsystem_ (
       87 		mcp
       88 		, "gtss_drl_grow_"
       89 		, 4				/* Invalid drl argument */
       90 		, "ATTEMPT TO GROW FILE OUTSIDE MEMORY (^o)"
       91 		, fixed (scu.ilc, 18)
       92 		);
       93 	     go to ret;
       94 	end;
       95 	n_ptr = addrel (gseg, L_n);
       96
       97 /* *	Grow the file.	* */
       98 	call gtss_ios_change_size_ (
       99 	     fn
      100 	     , fixed (n.add, 24, 0)
      101 	     , in_links
      102 	     , status
      103 	     , code);
      104
      105 /* *	adjust size field in file descriptor in attributes structure.   */
      106 	call gtss_adjust_size_ (gtss_disk.attributes_ptr (fn));
      107
      108 	if status ^= 0 & status ^= 2 then do;
      109 	     if db_drl_grow then
      110 		call com_err_ (
      111 		code
      112 		, "gtss_drl_grow_"
      113 		, "gtss_ios_change_size_ (file ^a) status ^i"
      114 		, ascii_file_name
      115 		, status
      116 		);
      117 	     if code = error_table_$rqover then
      118 		grow_status = "4010"b3;		/* Exhausted links. */
      119 	     else
      120 	     grow_status = "4002"b3;			/* I/O error. */
      121 	     go to ret;
      122 	end;
      123
      124 	grow_status = "4000"b3;			/* No errors. */
      125 ret:	;
      126 	if db_drl_grow then
      127 	     call ioa_ (
      128 	     "GROW: file ^a (aft ^i) by ^o (^i.) ^[links^;llinks^],"
      129 	     ||"^/now ^o (^i.) words. Status ^4o"
      130 	     , ascii_file_name
      131 	     , fn
      132 	     , fixed (n.add, 17)
      133 	     , fixed (n.add, 17)
      134 	     , in_links
      135 	     , file_size (fn)
      136 	     , file_size (fn)
      137 	     , fixed (grow_status, 12)
      138 	     );
      139 	return;
      140 
      141 /* *	Variables for gtss_drl_grow_:
      142*   IDENTIFIER		ATTRIBUTES	* */
      143 dcl  addrel                   builtin;
      144 dcl  afn_ptr                  ptr init (null ());
      145 dcl  arg_list_ptr             ptr init (null ());
      146 dcl  ascii_file_name          char (8)based (afn_ptr);
      147 dcl  code                     fixed bin (35);
      148 dcl  error_table_$rqover	fixed bin(35)ext;
      149 dcl  fn                       fixed bin (24);
      150 dcl  grow_status              bit (12)based (grow_status_ptr);
      151 dcl  grow_status_ptr          ptr init (null ());
      152 dcl  gseg                     ptr init (null ());
      153 dcl  ioa_                     entry options (variable);
      154 dcl  lower                    char(26)aligned static int options(constant)init("abcdefghijklmnopqrstuvwxyz");
      155 dcl  n_ptr                    ptr init (null ());
      156 dcl  status                   fixed bin (24);
      157 dcl  UPPER                    char(26)aligned static int options(constant)init("ABCDEFGHIJKLMNOPQRSTUVWXYZ");
      158
      159 dcl 1 arg_list aligned based (arg_list_ptr)
      160      , 2 L_n bit (18)unal
      161      , 2 L_fileid bit (18)unal
      162      , 2 L_buf bit (18)unal
      163      , 2 L_stat bit (18)unal
      164      ;
      165
      166 dcl 1 n aligned based (n_ptr)
      167      , 2 in_links bit (01)unal			/* 1 => links, 0 => llinks. */
      168      , 2 add bit (17)unal				/* Add to file. */
      169      ;
      170 
  1     1 /* BEGIN INCLUDE FILE gtss_ext_.incl.pl1 */
  1     2 /*
  1     3*  Created: (Wardd Multics)  05/20/78 1307.6 mst Sat
  1     4*  Modified: Ward            1981     add suspended_process dcl
  1     5*  Modified: Ron Barstad  83-07-21  Fixed level number on mcfc to 3
  1     6*  Modified: Ron Barstad  83-07-25  Fixed derail range in statistics to 4js3 number
  1     7**/
  1     8 dcl  gtss_ext_$aem                   fixed bin static ext	/* >0 Print "additional" error information. */;
  1     9 dcl  gtss_ext_$bad_drl_rtrn          static ext label	/* Default for drl_rtrn. */;
  1    10 dcl  gtss_ext_$db                    (72)bit(1)unal static ext;
  1    11 dcl  gtss_ext_$deferred_catalogs_ptr ptr ext;
  1    12 dcl  gtss_ext_$dispose_of_drl        static ext label	/* quit handlers for some derails use this label to abort */;
  1    13 dcl  gtss_ext_$drl_rtrn              (4)static ext label	/* where to return at subsystem end */;
  1    14 dcl  gtss_ext_$drm_path              char(168)static ext	/* gtss_expand_pathname_stores drm_path */;
  1    15 dcl  gtss_ext_$drun_jid              char (5) static ext	/* valid only for DRUN executing under absentee */;
  1    16 dcl  gtss_ext_$event_channel         fixed bin (71) static ext	/* used for DABT signals */;
  1    17 dcl  gtss_ext_$finished              static ext label	/* Return to gtss for normal conclusion. */;
  1    18 dcl  gtss_ext_$gdb_name              char(8)ext	/* Name H* module to debug. */;
  1    19 dcl  gtss_ext_$get_line              entry(ptr,ptr,fixed bin(21),fixed bin(21),fixed bin(35))variable ext /* Build mode input procedure. */;
  1    20 dcl  gtss_ext_$gtss_slave_area_seg   (4) ext static ptr	/* pointer to gtss slave area segment */;
  1    21 dcl  gtss_ext_$hcs_work_area_ptr     ptr ext static		/* Temp seg for acl lists. */;
  1    22 dcl  gtss_ext_$homedir               char (64) static ext /* user's home dir */;
  1    23 dcl  gtss_ext_$last_k_was_out        bit (1)aligned ext static	/* "1"b => last tty output was output. */;
  1    24 dcl  gtss_ext_$pdir                  char (168) varying ext static	/* pathname of process directory */;
  1    25 dcl  gtss_ext_$popup_from_pi         static ext label	/* transfer to this label after pi simulates popup primitive */;
  1    26 dcl  gtss_ext_$process_type          fixed bin (17) static ext;
  1    27 dcl  gtss_ext_$put_chars             entry(ptr,ptr,fixed bin(24),fixed bin(35)) variable ext	/* Terminal output procedure. */;
  1    28 dcl  gtss_ext_$restart_from_pi       static ext label	/* transfer to this label after pi restores machine conditions */;
  1    29 dcl  gtss_ext_$restart_seg_ptr       ptr static ext	/* points to DRUN restart file when exec under absentee */;
  1    30 dcl  gtss_ext_$sig_ptr               ext static ptr	/* saved ptr to signal_ */;
  1    31 dcl  gtss_ext_$stack_level_          fixed bin ext static;
  1    32 dcl  gtss_ext_$suspended_process     bit(1) ext static;
  1    33 dcl  gtss_ext_$SYstarstar_file_no    fixed bin (24) static ext;
  1    34 dcl  gtss_ext_$user_id               char (26)var ext;
  1    35 dcl  gtss_ext_$work_area_ptr         ptr ext;
  1    36
  1    37 dcl  1 gtss_ext_$CFP_bits aligned static external
  1    38      , 3 no_input_yet bit (1) unaligned         /* used in gtss_CFP_input_, gtss_read_starCFP_ */
  1    39      , 3 rtn_bits bit (4) unaligned             /* used in gtss_CFP_input_, gtss_CFP_output_ */
  1    40      , 3 cpos_called bit (1) unaligned          /* used in gtss_CFP_input_, gtss_drl_t_cfio_, gtss_abandon_CFP_ */
  1    41      , 3 cout_called bit (1) unaligned          /* used in gtss_read_starCFP_, gtss_abandon_CFP_ */
  1    42      , 3 build_mode bit (1) unaligned	        /* used in gtss_build_, gtss_dsd_process_ */
  1    43      ;
  1    44
  1    45 dcl 1 gtss_ext_$com_reg aligned static ext,
  1    46        3 tsdmx,
  1    47          4 dst fixed bin (18) unsigned unaligned,
  1    48          4 dit fixed bin (18) unsigned unaligned,
  1    49        3 tsdpt fixed bin (36) unsigned unaligned,
  1    50        3 tsddt fixed bin (36) unsigned unaligned,
  1    51        3 tsdid bit (72) unaligned,
  1    52        3 tsdsd bit (36) unaligned,
  1    53        3 tsdst fixed bin (36) unsigned unaligned,
  1    54        3 tsdjb fixed bin (35) unaligned,
  1    55        3 tsdgt,
  1    56          4 ust_loc fixed bin (18) unsigned unaligned,
  1    57          4 gating_ctl fixed bin (18) unsigned unaligned,
  1    58        3 tcdfr bit (36) unaligned;
  1    59
  1    60 dcl 1 gtss_ext_$flags aligned static ext
  1    61      , 3 dispose_of_drl_on_pi	bit (01) unal	/* 1 => drl that should be aborted after quit-pi sequence */
  1    62      , 3 drl_in_progress	bit (01) unal	/* 1 => drl handler executing; 0 => gcos code executing */
  1    63      , 3 popup_from_pi	bit (01) unal	/* 1 => derail processor will simulate Gcos break instead of returning */
  1    64      , 3 unfinished_drl	bit (01) unal	/* 1 => subsystem is handling breaks and quit was raised during a drl */
  1    65      , 3 ss_time_limit_set	bit (01) unal	/* 1 => exec time limit set for subsystem */
  1    66      , 3 timer_ranout	bit (01) unal	/* 1 => user is executing timer runout code */
  1    67      , 3 gtss_com_err_sw      bit (01) unal       /* 1 => stop com_err_ string from going to terminal */
  1    68      , 3 available		bit (65) unal
  1    69      ;
  1    70
  1    71
  1    72 dcl 1 gtss_ext_$statistics aligned static ext,		/* Derail usage statistics */
  1    73       3 total_time (-10:71)fixed bin (71),
  1    74       3 count (-10:71)fixed bin (17);
  1    75
  1    76 /* 	Declaration of Available File Table
  1    77*   */
  1    78 dcl 1 gtss_ext_$aft aligned ext,			/* aft structure */
  1    79
  1    80       3 start_list (0:102) fixed bin (24),		/* >0 => 1st aft_entry row to start of next entry chain. */
  1    81
  1    82       3 aft_entry (20),
  1    83         4 altname char (8),				/* altname name for attaching this file */
  1    84         4 next_entry fixed bin (24),			/* Next aft_entry in hash chain. */
  1    85         4 previous_add fixed bin (24),			/* Previously added entry. */
  1    86         4 next_add fixed bin (24),			/* Entry added after this one. */
  1    87         4 used bit (1) unal,				/* "1"b => aft_entry contains AFT value. */
  1    88         4 forced bit(1) unal,				/* "1"b => gtss_verify_access_ forced access on this file. */
  1    89
  1    90       3 free_space fixed bin (24),			/* Index of start of free space list for aft entries. */
  1    91       3 first_added fixed bin (24),			/* >0  => start of chain in add order. */
  1    92       3 last_added fixed bin (24)			/* >0 => end of chain in added order. */;
  1    93
  1    94 dcl  gtss_ext_$ppt                   ptr ext /*  switch name for tapein drl */;
  1    95 /**	Data structure to provide access to installed
  1    96*   subsystems fast library load.
  1    97*   **/
  1    98 dcl 1 gtss_ext_$fast_lib aligned ext
  1    99      , 3 fast_lib_fcb ptr				/* Pointer to msf fcb.	*/
  1   100      , 3 fast_lib_ncp fixed bin (24)			/* Number of components. */
  1   101      , 3 comp_ptr (0:9)ptr				/* Pointer to component. */
  1   102      , 3 comp_wds (0:9)fixed bin (24)			/* Component length (words). */
  1   103      ;
  1   104
  1   105 /* Pointers to segments to regulate multipler
  1   106*   callers to files. Same segments are used to regulate
  1   107*   all simulator callers.
  1   108**/
  1   109 dcl 1 gtss_ext_$mcfc	aligned ext,
  1   110       3 multics_lock_id	bit(36),
  1   111       3 wait_time		fixed bin,
  1   112       3 files_ptr		ptr,
  1   113       3 names_ptr		ptr,
  1   114       3 callers_ptr		(0:3)ptr
  1   115 ;
  1   116
  1   117 /*   END INCLUDE FILE gtss_ext_.incl.pl1 */
      171
      172 
  2     1 /*  */
  2     2 /* BEGIN INCLUDE FILE  mc.incl.pl1   Created Dec 72 for 6180 - WSS. */
  2     3 /* Modified 06/07/76 by Greenberg for mc.resignal */
  2     4 /* Modified 07/07/76 by Morris for fault register data */
  2     5 /* Modified 08/28/80 by J. A. Bush for the DPS8/70M CVPU */
  2     6 /* Modified '82 to make values constant */
  2     7
  2     8 /* words 0-15 pointer registers */
  2     9
  2    10 dcl  mcp ptr;
  2    11
  2    12 dcl 1 mc based (mcp) aligned,
  2    13     2 prs (0:7) ptr,				/* POINTER  REGISTERS */
  2    14    (2 regs,					/* registers */
  2    15       3 x (0:7) bit (18),				/* index registers */
  2    16       3 a bit (36),					/* accumulator */
  2    17       3 q bit (36),					/* q-register */
  2    18       3 e bit (8),					/* exponent */
  2    19       3 pad1 bit (28),
  2    20       3 t bit (27),					/* timer register */
  2    21       3 pad2 bit (6),
  2    22       3 ralr bit (3),				/* ring alarm register */
  2    23
  2    24     2 scu (0:7) bit (36),
  2    25
  2    26     2 mask bit (72),				/* mem controller mask at time of fault */
  2    27     2 ips_temp bit (36),				/* Temporary storage for IPS info */
  2    28     2 errcode fixed bin (35),				/* fault handler's error code */
  2    29     2 fim_temp,
  2    30       3 unique_index bit (18) unal,			/* unique index for restarting faults */
  2    31       3 resignal bit (1) unal,			/* recompute signal name with fcode below */
  2    32       3 fcode bit (17) unal,				/* fault code used as index to FIM table and SCT */
  2    33     2 fault_reg bit (36),				/* fault register */
  2    34     2 pad2 bit (1),
  2    35     2 cpu_type fixed bin (2) unsigned,			/* L68 = 0, DPS8/70M = 1 */
  2    36     2 ext_fault_reg bit (15),				/* extended fault reg for DPS8/70M CPU */
  2    37     2 fault_time bit (54),				/* time of fault */
  2    38
  2    39     2 eis_info (0:7) bit (36)) unaligned;
  2    40
  2    41
  2    42 dcl (apx fixed bin init (0),
  2    43      abx fixed bin init (1),
  2    44      bpx fixed bin init (2),
  2    45      bbx fixed bin init (3),
  2    46      lpx fixed bin init (4),
  2    47      lbx fixed bin init (5),
  2    48      spx fixed bin init (6),
  2    49      sbx fixed bin init (7)) internal static options (constant);
  2    50
  2    51
  2    52 
  2    53
  2    54 dcl  scup ptr;
  2    55
  2    56 dcl 1 scu based (scup) aligned,			/* SCU DATA */
  2    57
  2    58
  2    59 /*	WORD (0)		*/
  2    60
  2    61    (2 ppr,					/* PROCEDURE POINTER REGISTER */
  2    62       3 prr bit (3),				/* procedure ring register */
  2    63       3 psr bit (15),				/* procedure segment register */
  2    64       3 p bit (1),					/* procedure privileged bit */
  2    65
  2    66     2 apu,					/* APPENDING UNIT STATUS */
  2    67       3 xsf bit (1),				/* ext seg flag - IT modification */
  2    68       3 sdwm bit (1),				/* match in SDW Ass. Mem. */
  2    69       3 sd_on bit (1),				/* SDW Ass. Mem.  ON */
  2    70       3 ptwm bit (1),				/* match in PTW Ass. Mem. */
  2    71       3 pt_on bit (1),				/* PTW Ass. Mem.  ON */
  2    72       3 pi_ap bit (1),				/* Instr Fetch or Append cycle */
  2    73       3 dsptw bit (1),				/* Fetch of DSPTW */
  2    74       3 sdwnp bit (1),				/* Fetch of SDW non paged */
  2    75       3 sdwp bit (1),				/* Fetch of SDW paged */
  2    76       3 ptw bit (1),				/* Fetch of PTW */
  2    77       3 ptw2 bit (1),				/* Fetch of pre-paged PTW */
  2    78       3 fap bit (1),				/* Fetch of final address paged */
  2    79       3 fanp bit (1),				/* Fetch of final address non-paged */
  2    80       3 fabs bit (1),				/* Fetch of final address absolute */
  2    81
  2    82     2 fault_cntr bit (3),				/* number of retrys of EIS instructions */
  2    83
  2    84
  2    85 /*	WORD (1)		*/
  2    86
  2    87     2 fd,						/* FAULT  DATA */
  2    88       3 iro bit (1),				/* illegal ring order */
  2    89       3 oeb bit (1),				/* out of execute bracket */
  2    90       3 e_off bit (1),				/* no execute */
  2    91       3 orb bit (1),				/* out of read bracket */
  2    92       3 r_off bit (1),				/* no read */
  2    93       3 owb bit (1),				/* out of write bracket */
  2    94       3 w_off bit (1),				/* no write */
  2    95       3 no_ga bit (1),				/* not a gate */
  2    96       3 ocb bit (1),				/* out of call bracket */
  2    97       3 ocall bit (1),				/* outward call */
  2    98       3 boc bit (1),				/* bad outward call */
  2    99       3 inret bit (1),				/* inward return */
  2   100       3 crt bit (1),				/* cross ring transfer */
  2   101       3 ralr bit (1),				/* ring alarm register */
  2   102       3 am_er bit (1),				/* associative memory fault */
  2   103       3 oosb bit (1),				/* out of segment bounds */
  2   104       3 paru bit (1),				/* processor parity upper */
  2   105       3 parl bit (1),				/* processor parity lower */
  2   106       3 onc_1 bit (1),				/* op not complete type 1 */
  2   107       3 onc_2 bit (1),				/* op not complete type 2 */
  2   108
  2   109     2 port_stat,					/* PORT  STATUS */
  2   110       3 ial bit (4),				/* illegal action lines */
  2   111       3 iac bit (3),				/* illegal action channel */
  2   112       3 con_chan bit (3),				/* connect channel */
  2   113
  2   114     2 fi_num bit (5),				/* (fault/interrupt)  number */
  2   115     2 fi_flag bit (1),				/*  1 => fault,  0 => interrupt  */
  2   116
  2   117
  2   118 /*	WORD (2)		*/
  2   119
  2   120     2 tpr,					/* TEMPORARY POINTER REGISTER */
  2   121       3 trr bit (3),				/* temporary ring register */
  2   122       3 tsr bit (15),				/* temporary segment register */
  2   123
  2   124     2 pad2 bit (9),
  2   125
  2   126     2 cpu_no bit (3),				/* CPU number */
  2   127
  2   128     2 delta bit (6),				/* tally modification DELTA */
  2   129
  2   130
  2   131 /*	WORD (3)		*/
  2   132
  2   133     2 word3 bit (18),
  2   134
  2   135     2 tsr_stat,					/* TSR STATUS for 1,2,&3 word instructions */
  2   136       3 tsna,					/* Word 1 status */
  2   137         4 prn bit (3),				/* Word 1  PR  number */
  2   138         4 prv bit (1),				/* Word 1  PR  valid bit */
  2   139       3 tsnb,					/* Word 2  status */
  2   140         4 prn bit (3),				/* Word 2  PR  number */
  2   141         4 prv bit (1),				/* Word 2  PR  valid bit */
  2   142       3 tsnc,					/* Word 3  status */
  2   143         4 prn bit (3),				/* Word 3  PR  number */
  2   144         4 prv bit (1),				/* Word 3  PR  valid bit */
  2   145
  2   146     2 tpr_tbr bit (6),				/* TPR.TBR  field */
  2   147
  2   148
  2   149 /* 	WORD (4)		*/
  2   150
  2   151     2 ilc bit (18),					/* INSTRUCTION  COUNTER */
  2   152
  2   153     2 ir,						/* INDICATOR  REGISTERS */
  2   154       3 zero bit (1),				/* zero indicator */
  2   155       3 neg bit (1),				/* negative indicator */
  2   156       3 carry bit (1),				/* carryry indicator */
  2   157       3 ovfl bit (1),				/* overflow indicator */
  2   158       3 eovf bit (1),				/* eponent overflow */
  2   159       3 eufl bit (1),				/* exponent underflow */
  2   160       3 oflm bit (1),				/* overflow mask */
  2   161       3 tro bit (1),				/* tally runout */
  2   162       3 par bit (1),				/* parity error */
  2   163       3 parm bit (1),				/* parity mask */
  2   164       3 bm bit (1),					/* ^bar mode */
  2   165       3 tru bit (1),				/* truncation mode */
  2   166       3 mif bit (1),				/* multi-word instruction mode */
  2   167       3 abs bit (1),				/* absolute mode */
  2   168       3 hex bit (1),				/* hexadecimal exponent mode */
  2   169       3 pad bit (3),
  2   170
  2   171
  2   172 /*	WORD (5)		*/
  2   173
  2   174     2 ca bit (18),					/* COMPUTED  ADDRESS */
  2   175
  2   176     2 cu,						/* CONTROL UNIT STATUS */
  2   177       3 rf bit (1),					/* on first cycle of repeat instr */
  2   178       3 rpt bit (1),				/* repeat instruction */
  2   179       3 rd bit (1),					/* repeat double instruction */
  2   180       3 rl bit (1),					/* repeat link instruciton */
  2   181       3 pot bit (1),				/* IT  modification */
  2   182       3 pon bit (1),				/* return type instruction */
  2   183       3 xde bit (1),				/* XDE from Even location */
  2   184       3 xdo bit (1),				/* XDE from Odd  location */
  2   185       3 poa bit (1),				/* operation preparation */
  2   186       3 rfi bit (1),				/* tells CPU to refetch instruction */
  2   187       3 its bit (1),				/* ITS modification */
  2   188       3 if bit (1),					/* fault occured during instruction fetch */
  2   189
  2   190     2 cpu_tag bit (6)) unaligned,			/* computed tag field */
  2   191
  2   192
  2   193 /*	WORDS (6,7)	*/
  2   194
  2   195     2 even_inst bit (36),				/* even instruction of faulting pair */
  2   196
  2   197     2 odd_inst bit (36);				/* odd  instruction of faulting pair */
  2   198
  2   199
  2   200
  2   201
  2   202
  2   203
  2   204 /*	ALTERNATE   SCU  DECLARATION		*/
  2   205
  2   206
  2   207 dcl 1 scux based (scup) aligned,
  2   208
  2   209    (2 pad0 bit (36),
  2   210
  2   211     2 fd,						/* GROUP II  FAULT DATA */
  2   212       3 isn bit (1),				/* illegal segment number */
  2   213       3 ioc bit (1),				/* illegal op  code  */
  2   214       3 ia_am bit (1),				/* illegal address - modifier */
  2   215       3 isp bit (1),				/* illegal slave  procedure */
  2   216       3 ipr bit (1),				/* illegal procedure */
  2   217       3 nea bit (1),				/* non existent address */
  2   218       3 oobb bit (1),				/* out of bounds */
  2   219       3 pad bit (29),
  2   220
  2   221     2 pad2 bit (36),
  2   222
  2   223     2 pad3a bit (18),
  2   224
  2   225     2 tsr_stat (0:2),				/* TSR  STATUS  as an  ARRAY */
  2   226       3 prn bit (3),				/* PR  number */
  2   227       3 prv bit (1),				/* PR  valid bit */
  2   228
  2   229     2 pad3b bit (6)) unaligned,
  2   230
  2   231     2 pad45 (0:1) bit (36),
  2   232
  2   233     2 instr (0:1) bit (36);				/* Instruction ARRAY */
  2   234
  2   235
  2   236
  2   237 /*  END INCLUDE FILE   mc.incl.pl1 */
      173
      174 
  3     1 /* BEGIN INCLUDE FILE gtss_ust_ext_.incl.pl1 */
  3     2 /* UST: User Status Table
  3     3*   definitions based on
  3     4*   System Tables, Order number DD14-01E, January 1981
  3     5*   Section 15, Time Sharing System
  3     6*
  3     7*   Authors: Robert J. Grimes	Created
  3     8*   -	  Albert N. Kepner	  1978
  3     9*   -	  Robert M. May
  3    10*   -	  David B. Ward
  3    11*   Change:  Dave Ward	02/23/79 Level 4 numbering.
  3    12*   Change:  Ron Barstad  83-07-12 Repaired damaged formating and word offset comments
  3    13*                                  Brought up to 4JS3 functionality
  3    14**/
  3    15 /* octal word offsets of entries */
  3    16 dcl 1 gtss_ust_ext_$ust aligned ext,
  3    17       3 gtss_ust,
  3    18 /* 0-1  */	4 lid		bit (72),
  3    19 /* 2    */	4 lstp		bit (36),
  3    20 /* 3    */	4 ltin		bit (36),
  3    21 /* 4    */	4 lstio,
  3    22 			5 no_of_chars_by_8  fixed bin (18) uns unal,
  3    23 			5 no_of_disk_io     fixed bin (18) uns unal,
  3    24 /* 5    */	4 lsnub		bit (36),
  3    25 /* 6-7  */	4 lchg		bit (72),
  3    26 /* 10   */	4 lbuf,
  3    27 			5 address		bit (18)unaligned,
  3    28 			5 tally		bit (1)unaligned,
  3    29 			5 terminal_type	bit (5)unaligned,
  3    30 			5 station_id	bit (12)unaligned,
  3    31 /* 11-12 */	4 liost (0:1)	bit (36),
  3    32 /* 13   */	4 lcc		bit (36),
  3    33 /* 14   */	4 lback,
  3    34 			5 fill1		bit (18) unaligned,
  3    35 			5 gwake		fixed bin (17) unaligned,
  3    36 /* 15   */	4 lflag,
  3    37 			5 mp_list		bit (18) unaligned,
  3    38 			5 flags unaligned,
  3    39 				6 b18		bit (1) unaligned,
  3    40 				6 b19		bit (1) unaligned,
  3    41 				6 b20		bit (1) unaligned,
  3    42 				6 b21		bit (1) unaligned,
  3    43 				6 b22		bit (1) unaligned,
  3    44 				6 b23		bit (1) unaligned,
  3    45 				6 b24		bit (1) unaligned,
  3    46 				6 b25		bit (1) unaligned,
  3    47 				6 b26		bit (1) unaligned,
  3    48 				6 b27		bit (1) unaligned,
  3    49 				6 b28		bit (1) unaligned,
  3    50 				6 b29		bit (1) unaligned,
  3    51 				6 b30		bit (1) unaligned,
  3    52 				6 b31		bit (1) unaligned,
  3    53 				6 b32		bit (1) unaligned,
  3    54 				6 b33		bit (1) unaligned,
  3    55 				6 b34		bit (1) unaligned,
  3    56 				6 b35		bit (1) unaligned,
  3    57 /* 16   */	4 lkdss		bit (36),
  3    58 /* 17   */	4 lfile,
  3    59 			5 program_stack	fixed bin (17) unal,
  3    60 			5 file_list_ptr	bit (18) unal,
  3    61 /* 20   */	4 lttys		bit (36),
  3    62 /* 21   */	4 lswth,
  3    63 			5 b0		bit (1) unaligned,
  3    64 			5 b1		bit (1) unaligned,
  3    65 			5 b2		bit (1) unaligned,
  3    66 			5 b3		bit (1) unaligned,
  3    67 			5 b4		bit (1) unaligned,
  3    68 			5 b5		bit (1) unaligned,
  3    69 			5 b6		bit (1) unaligned,
  3    70 			5 b7		bit (1) unaligned,
  3    71 			5 b8		bit (1) unaligned,
  3    72 			5 b9		bit (1) unaligned,
  3    73 			5 b10		bit (1) unaligned,
  3    74 			5 b11		bit (1) unaligned,
  3    75 			5 b12		bit (1) unaligned,
  3    76 			5 b13		bit (1) unaligned,
  3    77 			5 b14		bit (1) unaligned,
  3    78 			5 b15		bit (1) unaligned,
  3    79 			5 b16		bit (1) unaligned,
  3    80 			5 b17		bit (1) unaligned,
  3    81 			5 b18		bit (1) unaligned,
  3    82 			5 b19		bit (1) unaligned,
  3    83 			5 b20		bit (1) unaligned,
  3    84 			5 b21		bit (1) unaligned,
  3    85 			5 b22		bit (1) unaligned,
  3    86 			5 b23		bit (1) unaligned,
  3    87 			5 b24		bit (1) unaligned,
  3    88 			5 b25		bit (1) unaligned,
  3    89 			5 b26		bit (1) unaligned,
  3    90 			5 b27		bit (1) unaligned,
  3    91 			5 b28		bit (1) unaligned,
  3    92 			5 b29		bit (1) unaligned,
  3    93 			5 b30		bit (1) unaligned,
  3    94 			5 b31		bit (1) unaligned,
  3    95 			5 b32		bit (1) unaligned,
  3    96 			5 b33		bit (1) unaligned,
  3    97 			5 b34		bit (1) unaligned,
  3    98 			5 b35		bit (1) unaligned,
  3    99 /* 22   */	4 lsize,
  3   100 			5 bar		fixed bin (17) unaligned,
  3   101 			5 limit		bit (18) unaligned,
  3   102 /* 23... */	4 lswap,
  3   103 			5 fill		bit (18) unal,
  3   104 			5 size		bit (18) unal,
  3   105 /* ...24 */	4 transfer_cell	bit (36) unal,
  3   106 /* 25   */	4 lerrm		bit (36),
  3   107 /* 26-37 */	4 lcfil (0:9)	bit (36),
  3   108 /* 40   */	4 lsybc,
  3   109 			5 b0_17		fixed bin (17) unaligned,
  3   110 			5 b18_35		fixed bin (17) unaligned,
  3   111 /* 41-42 */	4 lstem (0:1)	bit (36),
  3   112 /* 43    */	4 lcals,
  3   113 			5 b0_17		fixed bin (17) unaligned,
  3   114 			5 b18_35		bit (18) unaligned,
  3   115 /* 44-51 */	4 subsystems (3),
  3   116 			5 content_lswap,
  3   117 				6 fill		bit (18) unal,
  3   118 				6 size		bit (18) unal,
  3   119 			5 tally_address	fixed bin (17) unaligned,
  3   120 			5 ss_flags	bit (18) unaligned,
  3   121 /* 52   */	4 ltalc,
  3   122 			5 tod		fixed bin (17) unaligned,
  3   123 			5 startup		fixed bin (17) unaligned,
  3   124 /* 53   */	4 lspts		fixed bin (35),
  3   125 /* 54   */	4 lflg2,
  3   126 			5 b0		bit (1) unaligned,
  3   127 			5 b1		bit (1) unaligned,
  3   128 			5 b2		bit (1) unaligned,
  3   129 			5 b3		bit (1) unaligned,
  3   130 			5 b4		bit (1) unaligned,
  3   131 			5 b5		bit (1) unaligned,
  3   132 			5 b6		bit (1) unaligned,
  3   133 			5 b7		bit (1) unaligned,
  3   134 			5 b8		bit (1) unaligned,
  3   135 			5 b9		bit (1) unaligned,
  3   136 			5 b10		bit (1) unaligned,
  3   137 			5 b11		bit (1) unaligned,
  3   138 			5 b12		bit (1) unaligned,
  3   139 			5 b13		bit (1) unaligned,
  3   140 			5 b14		bit (1) unaligned,
  3   141 			5 b15		bit (1) unaligned,
  3   142 			5 b16		bit (1) unaligned,
  3   143 			5 b17		bit (1) unaligned,
  3   144 			5 b18		bit (1) unaligned,
  3   145 			5 b19		bit (1) unaligned,
  3   146 			5 b20		bit (1) unaligned,
  3   147 			5 b21		bit (1) unaligned,
  3   148 			5 b22		bit (1) unaligned,
  3   149 			5 b23		bit (1) unaligned,
  3   150 			5 b24		bit (1) unaligned,
  3   151 			5 b25		bit (1) unaligned,
  3   152 			5 b26		bit (1) unaligned,
  3   153 			5 b27		bit (1) unaligned,
  3   154 			5 b28		bit (1) unaligned,
  3   155 			5 b29		bit (1) unaligned,
  3   156 			5 b30		bit (1) unaligned,
  3   157 			5 b31		bit (1) unaligned,
  3   158 			5 b32		bit (1) unaligned,
  3   159 			5 b33		bit (1) unaligned,
  3   160 			5 b34		bit (1) unaligned,
  3   161 			5 b35		bit (1) unaligned,
  3   162 /* 55-60 */	4 lsftm (0:3)	bit (36),
  3   163 /* 61    */	4 lsprt		fixed bin (35),
  3   164 /* 62    */	4 ltrm		bit (36),
  3   165 /* 63    */	4 linno		fixed bin (35),
  3   166 /* 64    */	4 lincr		fixed bin (35),
  3   167 /* 65    */	4 ltdes		bit (36),
  3   168 /* 66    */	4 lbptr		bit (36),
  3   169 /* 67    */	4 lpptr,
  3   170 			5 last_file_pat_ptr	bin (18) uns unal,
  3   171 			5 lpptr_reserved	bin (18) uns unal,
  3   172 /* 70    */	4 lsclp		bit (36),
  3   173 /* 71    */	4 limit		fixed bin (35),
  3   174 /* 72    */	4 lacpt,
  3   175 			5 jout_pat_offset	bit (18) unal,
  3   176 			5 permissions unal,
  3   177 				6 lodx		bit (1) unal,
  3   178 				6 cardin		bit (1) unal,
  3   179 				6 talk		bit (1) unal,
  3   180 				6 lods		bit (1) unal,
  3   181 			5 cardin_urgency	bit (14) unal,
  3   182 /* 73    */	4 ldrl,
  3   183 			5 ilc		bit (18) unaligned,
  3   184 			5 code		fixed bin (17) unaligned,
  3   185 /* 74    */	4 ljsnb		bit (36),
  3   186 /* 75    */	4 ltm0		bit (36),
  3   187 /* 76    */	4 ltm1		bit (36),
  3   188 /* 77    */	4 ltm2		bit (36),
  3   189 /* 100   */	4 ltm3		bit (36),
  3   190 /* 101   */	4 ltm4		bit (36),
  3   191 /* 102   */	4 ltm5		bit (36),
  3   192 /* 103   */	4 ltmwt		bit (36),
  3   193 /* 104   */	4 ltmrs		bit (36),
  3   194 /* 105   */	4 ltc0		bit (36),
  3   195 /* 106   */	4 ltc1		bit (36),
  3   196 /* 107   */	4 ltc2		bit (36),
  3   197 /* 110   */	4 lct3		bit (36),
  3   198 /* 111   */	4 ltc4		bit (36),
  3   199 /* 112   */	4 ltc5		bit (36),
  3   200 /* 113   */	4 ltcw		bit (36),
  3   201 /* 114   */	4 lkst		bit (36),
  3   202 /* 115   */	4 lkst2		bit (36),
  3   203 /* 116   */	4 lkcc		bit (36),
  3   204 /* 117   */	4 lkms		bit (36),
  3   205 /* 120-121 */	4 lksdc (0:1)	bit (36),
  3   206 /* 122   */	4 lkntp		bit (36),
  3   207 /* 123   */	4 lkrdc		bit (36),
  3   208 /* 124   */	4 lpqf		bit (36),
  3   209 /* 125   */	4 lpqb		bit (36),
  3   210 /* 126   */	4 lustl		bit (36),
  3   211 /* 127   */	4 ltemp		bit (36),
  3   212 /* 130   */	4 lrtll,
  3   213 			5 word_length	fixed bin unaligned,
  3   214 			5 char_length	fixed bin unaligned,
  3   215 /* 131   */	4 ltim		bit (36),
  3   216 /* 132   */	4 lcfio,
  3   217 			5 sect_out	fixed bin(18)unsigned unal,
  3   218 			5 sect_in		fixed bin(18)unsigned unal,
  3   219 /* 133   */	4 lcfst,
  3   220 			5 initial_sect_out	fixed bin(18)unsigned unal,
  3   221 			5 start_term	fixed bin(18)unsigned unal,
  3   222 /* 134   */	4 lcmpt		bit (36),
  3   223 /* 135   */	4 lcjid		bit (36),
  3   224 /* 136-137 */	4 lrcal (0:1)	bit (36),
  3   225 /* 140   */	4 lrdta		bit (36),
  3   226 /* 141   */	4 lrrsk		bit (36),
  3   227 /* 142   */	4 lrskd		bit (36),
  3   228 /* 143   */	4 lrcc		bit (36),
  3   229 /* 144-145 */	4 lrsts (0:1)	bit (36),
  3   230 /* 146   */	4 lrtm		bit (36),
  3   231 /* 147   */	4 lswt2,
  3   232 			5 b0		bit (1) unaligned,
  3   233 			5 b1		bit (1) unaligned,
  3   234 			5 b2		bit (1) unaligned,
  3   235 			5 b3		bit (1) unaligned,
  3   236 			5 b4		bit (1) unaligned,
  3   237 			5 b5		bit (1) unaligned,
  3   238 			5 b6		bit (1) unaligned,
  3   239 			5 b7		bit (1) unaligned,
  3   240 			5 b8		bit (1) unaligned,
  3   241 			5 b9		bit (1) unaligned,
  3   242 			5 b10		bit (1) unaligned,
  3   243 			5 b11		bit (1) unaligned,
  3   244 			5 b12		bit (1) unaligned,
  3   245 			5 b13		bit (1) unaligned,
  3   246 			5 b14		bit (1) unaligned,
  3   247 			5 b15		bit (1) unaligned,
  3   248 			5 b16		bit (1) unaligned,
  3   249 			5 b17		bit (1) unaligned,
  3   250 			5 b18		bit (1) unaligned,
  3   251 			5 b19		bit (1) unaligned,
  3   252 			5 b20		bit (1) unaligned,
  3   253 			5 b21		bit (1) unaligned,
  3   254 			5 b22		bit (1) unaligned,
  3   255 			5 b23		bit (1) unaligned,
  3   256 			5 b24		bit (1) unaligned,
  3   257 			5 b25		bit (1) unaligned,
  3   258 			5 b26		bit (1) unaligned,
  3   259 			5 b27		bit (1) unaligned,
  3   260 			5 b28		bit (1) unaligned,
  3   261 			5 b29		bit (1) unaligned,
  3   262 			5 b30		bit (1) unaligned,
  3   263 			5 b31		bit (1) unaligned,
  3   264 			5 b32		bit (1) unaligned,
  3   265 			5 b33		bit (1) unaligned,
  3   266 			5 b34		bit (1) unaligned,
  3   267 			5 b35		bit (1) unaligned,
  3   268 /* 150   */	4 llsnb		bit (36),
  3   269 /* 151   */	4 lesq		bit (36),
  3   270 /* 152-153 */	4 lumc (0:1)	bit (36),
  3   271 /* 154-155 */	4 lfnam (0:1)	bit (36),
  3   272 /* 156   */	4 lopts		bit (36),
  3   273 /* 157   */	4 licec,
  3   274 			5 b0_17		bit (18) unaligned,
  3   275 			5 b18_35		fixed bin (17) unaligned,
  3   276 /* 160   */	4 lflg3,
  3   277 			5 b0		bit (1) unaligned,
  3   278 			5 b1		bit (1) unaligned,
  3   279 			5 b2		bit (1) unaligned,
  3   280 			5 b3		bit (1) unaligned,
  3   281 			5 b4		bit (1) unaligned,
  3   282 			5 b5		bit (1) unaligned,
  3   283 			5 b6		bit (1) unaligned,
  3   284 			5 b7		bit (1) unaligned,
  3   285 			5 b8		bit (1) unaligned,
  3   286 			5 b9		bit (1) unaligned,
  3   287 			5 b10		bit (1) unaligned,
  3   288 			5 b11		bit (1) unaligned,
  3   289 			5 b12		bit (1) unaligned,
  3   290 			5 b13		bit (1) unaligned,
  3   291 			5 b14		bit (1) unaligned,
  3   292 			5 b15		bit (1) unaligned,
  3   293 			5 b16		bit (1) unaligned,
  3   294 			5 b17		bit (1) unaligned,
  3   295 			5 b18		bit (1) unaligned,
  3   296 			5 b19		bit (1) unaligned,
  3   297 			5 b20		bit (1) unaligned,
  3   298 			5 b21		bit (1) unaligned,
  3   299 			5 b22		bit (1) unaligned,
  3   300 			5 b23		bit (1) unaligned,
  3   301 			5 b24		bit (1) unaligned,
  3   302 			5 b25		bit (1) unaligned,
  3   303 			5 b26		bit (1) unaligned,
  3   304 			5 b27		bit (1) unaligned,
  3   305 			5 b28		bit (1) unaligned,
  3   306 			5 b29		bit (1) unaligned,
  3   307 			5 b30		bit (1) unaligned,
  3   308 			5 b31		bit (1) unaligned,
  3   309 			5 b32		bit (1) unaligned,
  3   310 			5 b33		bit (1) unaligned,
  3   311 			5 b34		bit (1) unaligned,
  3   312 			5 b35		bit (1) unaligned,
  3   313 /* 161-163 */	4 lpage (0:2)	bit (36),
  3   314 /* 164   */	4 lsit1		bit (36),
  3   315 /* 165   */	4 lsit2		bit (36),
  3   316 /* 166   */	4 lsit3		bit (36),
  3   317 /* 167   */	4 lsit4		bit (36),
  3   318 /* The following entries are maintained by gtss and are not found in TSS UST */
  3   319 /* 170   */	4 lxxx, /* program stack index, offset from gtss_ust */
  3   320 			5 b0_17		fixed bin (17) unaligned,
  3   321 			5 b18_35		bit (18) unaligned, /* not used */
  3   322 /* 171-175 */	4 lprgs (5),
  3   323 			5 b0_17		fixed bin (17) unaligned,
  3   324 			5 b18_35		fixed bin (17) unaligned,
  3   325 /* 176   */	4 fill	bit (36),
  3   326 /* 177   */	4 remote_io_buffer aligned,
  3   327 			5 buffer_control_word,
  3   328 				6 current_line_pointer  bit (18)unal,
  3   329 				6 buffer_threshold_address  bit (18)unal,
  3   330 			5 number_words_transmitted	fixed bin (17)unal,
  3   331 			5 FILL1			fixed bin (17)unal,
  3   332 			5 count_of_characters_transmitted fixed bin (17)unal,
  3   333 			5 FILL2			fixed bin (17)unal,
  3   334 			5 characters_transmitted (244) char (1) unal,
  3   335 /* 277   */	4 word_after_ust		bit (36) aligned;
  3   336
  3   337 /*   END INCLUDE FILE gtss_ust_ext_.incl.pl1 */
      175
      176 
  4     1 /* BEGIN INCLUDE FILE gtss_entry_dcls.incl.pl1 */
  4     2 /*
  4     3*  Created: (Wardd Multics)  06/30/78 1624.8 mst Fri
  4     4*  Modified: Ron Barstad  84-02-24  Fixed wrong and obsolete entries
  4     5**/
  4     6
  4     7 /**  gtss external entry variables.		**/
  4     8 dcl  com_err_                                   entry() options(variable);
  4     9 dcl  gtss_CFP_abort_                            entry options(variable);
  4    10 dcl  gtss_CFP_break_                            entry options(variable);
  4    11 dcl  gtss_CFP_input_                            entry (ptr, ptr, fixed bin(21), fixed bin(21), fixed bin(35));
  4    12 dcl  gtss_CFP_output_                           entry (ptr, ptr, fixed bin(21), fixed bin(35));
  4    13 dcl  gtss_abandon_CFP_                          entry options(variable);
  4    14 dcl  gtss_abort_dump_                           entry (fixed bin(18));
  4    15 dcl  gtss_abort_subsystem_                      entry options (variable);
  4    16 dcl  gtss_abort_subsystem_$not_imp              entry (ptr, fixed bin(24));
  4    17 dcl  gtss_abs_login_banner_		        entry() returns(char(*));
  4    18 dcl  gtss_abs_logout_banner_		        entry() returns(char(*));
  4    19 dcl  gtss_abs_$abs_equiv                        entry options(variable);
  4    20 dcl  gtss_abs_$cpu_runout		        entry (ptr, char(4));
  4    21 dcl  gtss_abs_$create_absin                     entry() returns(char(*));
  4    22 dcl  gtss_abs_$dabt_check		        entry (ptr, char(4));
  4    23 dcl  gtss_abs_$get_id                           entry (char(5)) returns(char(19));
  4    24 dcl  gtss_abs_$get_drm                          entry() returns(char(*));
  4    25 dcl  gtss_adjust_size_                          entry (ptr);
  4    26 dcl  gtss_aft_$add                              entry (char(8), fixed bin(24), fixed bin(35));
  4    27 dcl  gtss_aft_$delete                           entry (char(8), fixed bin(24), fixed bin(35));
  4    28 dcl  gtss_aft_$find                             entry (char(8), fixed bin(24), fixed bin(35));
  4    29 dcl  gtss_aft_$initialize                       entry (fixed bin(35));
  4    30 dcl  gtss_ascii_bcd_                            entry (ptr, fixed bin, ptr);
  4    31 dcl  gtss_attributes_mgr_$get                   entry (ptr, fixed bin(35));
  4    32 dcl  gtss_attributes_mgr_$set                   entry (ptr, fixed bin(35));
  4    33 dcl  gtss_bcd_ascii_                            entry (ptr, fixed bin(24), ptr);
  4    34 dcl  gtss_bcd_ascii_$lc                         entry (ptr, fixed bin(24), ptr);
  4    35 dcl  gtss_break_vector_                         entry ();
  4    36 dcl  gtss_break_vector_$drl_in_progress         entry() returns(bit(1));
  4    37 dcl  gtss_break_vector_$status                  entry() returns(bit(1));
  4    38 dcl  gtss_build_                                entry options(variable);
  4    39 dcl  gtss_com_err_                              entry options(variable);
  4    40 dcl  gtss_derail_processor_                     entry (ptr, char(*), ptr, ptr, bit(1) aligned) /* called at fault time instead of signal_ */;
  4    41 dcl  gtss_derail_processor_$set                 entry options(variable);
  4    42 dcl  gtss_dq_$catp                              entry (char (5), ptr, fixed bin (18) unsigned);
  4    43 dcl  gtss_dq_$create                            entry (bit(1));
  4    44 dcl  gtss_dq_$dibp                              entry (char(5), ptr);
  4    45 dcl  gtss_dq_$entries_info		        entry (ptr, fixed bin (18) unsigned, fixed bin (18) unsigned);
  4    46 dcl  gtss_dq_$hdrp                              entry (ptr);
  4    47 dcl  gtss_dq_$mod_js		        entry (char(5), fixed bin (6) unsigned, bit (1));
  4    48 dcl  gtss_dq_$open_exc		        entry (bit(1));
  4    49 dcl  gtss_dq_$open_gen		        entry (bit(1));
  4    50 dcl  gtss_drl_abort_                            entry (ptr, fixed bin);
  4    51 dcl  gtss_drl_addmem_                           entry (ptr, fixed bin);
  4    52 dcl  gtss_drl_callss_                           entry (ptr, fixed bin);
  4    53 dcl  gtss_drl_corfil_                           entry (ptr, fixed bin);
  4    54 dcl  gtss_drl_defil_                            entry (ptr, fixed bin);
  4    55 dcl  gtss_drl_defil_$subr                       entry (ptr, ptr, ptr);
  4    56 dcl  gtss_drl_dio_                              entry (ptr, fixed bin);
  4    57 dcl  gtss_drl_drlimt_                           entry (ptr, fixed bin);
  4    58 dcl  gtss_drl_drlsav_                           entry (ptr, fixed bin);
  4    59 dcl  gtss_drl_filact_                           entry (ptr, fixed bin);
  4    60 dcl  gtss_drl_filsp_                            entry (ptr, fixed bin);
  4    61 dcl  gtss_drl_grow_                             entry (ptr, fixed bin);
  4    62 dcl  gtss_drl_gwake_                            entry (ptr, fixed bin);
  4    63 dcl  gtss_drl_jsts_                             entry (ptr, fixed bin);
  4    64 dcl  gtss_drl_kin_                              entry (ptr, fixed bin);
  4    65 dcl  gtss_drl_kotnow_                           entry (ptr, fixed bin);
  4    66 dcl  gtss_drl_kotnow_$gtss_drl_kout_            entry (ptr, fixed bin);
  4    67 dcl  gtss_drl_koutn_                            entry (ptr, fixed bin);
  4    68 dcl  gtss_drl_morlnk_                           entry (ptr, fixed bin);
  4    69 dcl  gtss_drl_msub_                             entry (ptr, fixed bin);
  4    70 dcl  gtss_drl_objtim_                           entry (ptr, fixed bin);
  4    71 dcl  gtss_drl_part_                             entry (ptr, fixed bin);
  4    72 dcl  gtss_drl_pasaft_                           entry (ptr, fixed bin);
  4    73 dcl  gtss_drl_pasdes_                           entry (ptr, fixed bin);
  4    74 dcl  gtss_drl_pasust_                           entry (ptr, fixed bin);
  4    75 dcl  gtss_drl_pdio_                             entry (ptr, fixed bin);
  4    76 dcl  gtss_drl_prgdes_                           entry (ptr, fixed bin);
  4    77 dcl  gtss_drl_pseudo_                           entry (ptr, fixed bin);
  4    78 dcl  gtss_drl_relmem_                           entry (ptr, fixed bin);
  4    79 dcl  gtss_drl_restor_                           entry (ptr, fixed bin);
  4    80 dcl  gtss_drl_retfil_                           entry (ptr, fixed bin);
  4    81 dcl  gtss_drl_return_                           entry (ptr, fixed bin);
  4    82 dcl  gtss_drl_rew_                              entry (ptr, fixed bin);
  4    83 dcl  gtss_drl_rstswh_                           entry (ptr, fixed bin);
  4    84 dcl  gtss_drl_setlno_                           entry (ptr, fixed bin);
  4    85 dcl  gtss_drl_setswh_                           entry (ptr, fixed bin);
  4    86 dcl  gtss_drl_snumb_                            entry (ptr, fixed bin);
  4    87 dcl  gtss_drl_spawn_                            entry (ptr, fixed bin);
  4    88 dcl  gtss_drl_spawn_$gtss_drl_pasflr_           entry (ptr, fixed bin);
  4    89 dcl  gtss_drl_stoppt_                           entry (ptr, fixed bin);
  4    90 dcl  gtss_drl_switch_                           entry (ptr, fixed bin);
  4    91 dcl  gtss_drl_sysret_                           entry (ptr, fixed bin);
  4    92 dcl  gtss_drl_t_cfio_                           entry (ptr, fixed bin);
  4    93 dcl  gtss_drl_t_cmov_                           entry (ptr, fixed bin);
  4    94 dcl  gtss_drl_t_err_                            entry (ptr, fixed bin);
  4    95 dcl  gtss_drl_t_goto_                           entry (ptr, fixed bin);
  4    96 dcl  gtss_drl_t_linl_                           entry (ptr, fixed bin);
  4    97 dcl  gtss_drl_t_rscc_                           entry (ptr, fixed bin);
  4    98 dcl  gtss_drl_tapein_                           entry (ptr, fixed bin);
  4    99 dcl  gtss_drl_task_                             entry (ptr, fixed bin);
  4   100 dcl  gtss_drl_termtp_                           entry (ptr, fixed bin);
  4   101 dcl  gtss_drl_time_                             entry (ptr, fixed bin);
  4   102 dcl  gtss_drun_                                 entry (bit(1));
  4   103 dcl  gtss_dsd_lookup_                           entry (char(8) var) returns(fixed bin(24));
  4   104 dcl  gtss_dsd_process_                          entry (ptr, ptr, fixed bin(21), fixed bin(21), fixed bin(35));
  4   105 dcl  gtss_edit_dsd_                             entry (ptr, fixed bin(21)) returns(fixed bin(24));
  4   106 dcl  gtss_mcfc_empty                            entry (char(*) var);
  4   107 dcl  gtss_expand_pathname_                      entry (ptr, char(*), char(*), fixed bin(35));
  4   108 dcl  gtss_expand_pathname_$verify_umc           entry (ptr, char(*), char(*), bit(18), fixed bin(35));
  4   109 dcl  gtss_fault_processor_                      entry options(variable);
  4   110 dcl  gtss_find_cond_frame_		        entry (char(32) var) returns(ptr);
  4   111 dcl  gtss_fault_processor_$timer_runout         entry (ptr, char(*));
  4   112 dcl  gtss_filact_error_status_                  entry (fixed bin(35))returns(bit(12));
  4   113 dcl  gtss_filact_funct02_                       entry (ptr, bit(18), ptr, ptr, ptr, fixed bin(35));
  4   114 dcl  gtss_filact_funct03_                       entry (ptr, bit(18), ptr, ptr, ptr, fixed bin(35));
  4   115 dcl  gtss_filact_funct04_                       entry (ptr, bit(18), ptr, ptr, ptr, fixed bin(35));
  4   116 dcl  gtss_filact_funct05_                       entry (ptr, bit(18), ptr, ptr, ptr, fixed bin(35));
  4   117 dcl  gtss_filact_funct08_                       entry (ptr, bit(18), ptr, ptr, ptr, fixed bin(35));
  4   118 dcl  gtss_filact_funct10_                       entry (ptr, bit(18), ptr, ptr, ptr, fixed bin(35));
  4   119 dcl  gtss_filact_funct11_                       entry (ptr, bit(18), ptr, ptr, ptr, fixed bin(35));
  4   120 dcl  gtss_filact_funct14_                       entry (ptr, bit(18), ptr, ptr, ptr, fixed bin(35));
  4   121 dcl  gtss_filact_funct18_                       entry (ptr, bit(18), ptr, ptr, ptr, fixed bin(35));
  4   122 dcl  gtss_filact_funct19_                       entry (ptr, bit(18), ptr, ptr, ptr, fixed bin(35));
  4   123 dcl  gtss_filact_funct21_                       entry (ptr, bit(18), ptr, ptr, ptr, fixed bin(35));
  4   124 dcl  gtss_filact_funct22_                       entry (ptr, bit(18), ptr, ptr, ptr, fixed bin(35));
  4   125 dcl  gtss_mcfc_init_                            entry (char(*) var);
  4   126 dcl  gtss_interp_prim_                          entry options(variable);
  4   127 dcl  gtss_interp_prim_$callss                   entry (char(4), ptr);
  4   128 dcl  gtss_interp_prim_$sysret                   entry options(variable);
  4   129 dcl  gtss_interp_prim_$t_goto                   entry (char(4));
  4   130 dcl  gtss_ios_change_size_                      entry (fixed bin(24), fixed bin(24), bit(1), fixed bin(24), fixed bin(35));
  4   131 dcl  gtss_ios_close_                            entry (fixed bin(24), ptr, fixed bin(35));
  4   132 dcl  gtss_ios_exchange_names_                   entry (fixed bin(24), fixed bin(24), fixed bin(24), fixed bin(35));
  4   133 dcl  gtss_ios_initialize_                       entry options(variable);
  4   134 dcl  gtss_ios_io_                               entry (fixed bin(24), ptr, ptr, fixed bin(24), fixed bin(24), fixed bin(35));
  4   135 dcl  gtss_ios_open_                             entry (fixed bin(24), char(168), char(32), bit(6), bit(1), ptr, ptr, fixed bin(35));
  4   136 dcl  gtss_ios_position_                         entry (fixed bin(24), fixed bin(24), fixed bin(24), bit(6), ptr);
  4   137 dcl  gtss_mcfc_$delete		        entry (fixed bin(24), char(*), char(*), bit(36) aligned, ptr, fixed bin(35));
  4   138 dcl  gtss_mcfc_$open                            entry (char(*), char(*), bit(6), bit(36) aligned, ptr, fixed bin(35));
  4   139 dcl  gtss_mcfc_$close                           entry (char(*), char(*), bit(36) aligned, ptr, fixed bin(35));
  4   140 dcl  gtss_read_starCFP_                         entry (ptr, ptr, fixed bin(21), fixed bin(21), fixed bin(35));
  4   141 dcl  gtss_read_starCFP_$last_os                 entry (ptr, ptr, fixed bin(21), fixed bin(21), fixed bin(35));
  4   142 dcl  gtss_run_subsystem_                        entry (fixed bin(24));
  4   143 dcl  gtss_run_subsystem_$finish                 entry options(variable);
  4   144 dcl  gtss_run_subsystem_$restor                 entry (fixed bin(24), ptr);
  4   145 dcl  gtss_run_subsystem_$restor_perm            entry (fixed bin(24), ptr, fixed bin(18));
  4   146 dcl  gtss_set_slave_                            entry (fixed bin (24), ptr);
  4   147 dcl  gtss_set_slave_$load_bar                   entry (fixed bin (17));
  4   148 dcl  gtss_update_safe_store_                    entry (ptr);
  4   149 dcl  gtss_verify_access_		        entry (char(*), char(*), fixed bin(24), bit(6), bit(12) aligned);
  4   150 dcl  gtss_verify_access_$check_forced_access    entry (char(*), char(*), fixed bin(24));
  4   151 dcl  gtss_write_starCFP_                        entry (ptr, ptr, fixed bin(21), fixed bin(35));
  4   152 /*   END INCLUDE FILE gtss_entry_dcls.incl.pl1 */
      177
      178 
  5     1 /* BEGIN INCLUDE FILE gtss_dfd_ext_.incl.pl1 */
  5     2 /*
  5     3*  Created:  (Wardd Multics)  06/09/78 1650.6 mst Fri
  5     4**/
  5     5
  5     6 dcl 1 gtss_dfd_ext_$disk_file_data (41) aligned ext,		/* disk_file_data structure */
  5     7
  5     8     3 gtss_disk,
  5     9       4 dir_name char (168) unal,			/* containing directory for file */
  5    10       4 entry_name char (32) unal,			/* entry name for file */
  5    11       4 fcb_ptr ptr aligned,				/* ptr to file control block */
  5    12       4 msf_array_ptr ptr,				/* Pointer to an array of pointers for a msf. Each
  5    13*						   component which has been accessed has a corresponding
  5    14*						   initialized pointer.  Currently 500 components
  5    15*						   are supported. */
  5    16       4 single_segment_ptr ptr,			/* Pointer to segment for single segment file */
  5    17       4 indicators aligned,				/* one word of flags */
  5    18
  5    19         5 msf bit (1) unaligned,			/* 1=msf segment | 0= single segment */
  5    20         5 protected_file bit (1) unaligned,		/* 1=file uses protections | 0= unprotected */
  5    21         5 fill bit (34) unal,
  5    22
  5    23       4 permissions aligned,
  5    24         5 read bit (1) unaligned,			/* 1=read permission  */
  5    25         5 execute bit (1) unaligned,			/* 1=execute permission */
  5    26         5 write bit (1) unaligned,			/* 1=write permission */
  5    27         5 fill2 bit (33) unaligned,			/* unused at this time */
  5    28
  5    29       4 access_mode bit (6) aligned,			/* contains the mode by which the file was accessed */
  5    30       4 component fixed bin,				/* current component value (first component = 0) */
  5    31       4 offset fixed bin (24),			/* current word offset in the component */
  5    32       4 file_position fixed bin (30),			/* current file position in words */
  5    33       4 file_size fixed bin (30),			/* size of file in words */
  5    34       4 no_components fixed bin (24),			/* number of components for a msf */
  5    35       4 attributes_ptr ptr,				/* Pointer to the attributes structure
  5    36*						   for this file. (See gtss_file_attributes.incl.pl1) */
  5    37
  5    38       4 pat_body,
  5    39
  5    40         5 word_0,
  5    41 	6 defective bit (1) unal,			/* 1 = file has defective space */
  5    42 	6 io_errors bit (1) unal,			/* 1 = I/O errors encountered on file */
  5    43 	6 reserved bit (2) unal,			/* Reserved for GCOS */
  5    44 	6 sct bit (12) unal,			/* address of SCT for device on which
  5    45*						   file begins or if cataloged,
  5    46*						   for device with file catalog entry */
  5    47 	6 reserved2 bit (2) unal,			/* Reserved for GCOS */
  5    48
  5    49         5 word_1,
  5    50 	6 io_time fixed bin (35),			/* I/O time for this file */
  5    51
  5    52         5 word_2,
  5    53 	6 protected bit (1) unal,			/* 1 = file has protected allocation */
  5    54 	6 hash_code bit (5) unal,			/* hash code of user name under which
  5    55*						   file is cataloged */
  5    56 	6 not_cat bit (1) unal,			/* 1 = file is not cataloged */
  5    57 	6 last_desc bit (1) unal,			/* 1 = last descriptor for file is not in memory */
  5    58 	6 random bit (1) unal,			/* 1 = access to file is random */
  5    59 	6 perm bit (1) unal,			/* 1 = file space is permanently assigned */
  5    60 	6 first_desc bit (1) unal,			/* 1 = first descriptor for file is not in memory */
  5    61 	6 creator bit (1) unal,			/* 1 = user is not creator of file */
  5    62 	6 disposition bit (2) unal,			/* Abort disposition code
  5    63*						   00 = Release
  5    64*						   01 = Dismount
  5    65*						   10 = Save
  5    66*						   11 = Continue */
  5    67 	6 ids1 bit (1) unal,			/* 1 = file is an I-D-S/I file */
  5    68 	6 write_performed bit (1) unal,		/* 1 = write was performed on file */
  5    69 	6 unpermitted_access bit (1) unal,		/* 1 = unpermitted access to file attempted or seek
  5    70*						   attempted to part of file marked defective (only
  5    71*						   for procted allocation) */
  5    72 	6 purge bit (1) unal,			/* 1 = file space to be purgedbefore deallocating file. */
  5    73 	6 sector_number bit (18) unal,		/* If cataloged file, sector number of file catalog
  5    74*						   (on device with SCT referenced in word 0).  If
  5    75*						   cataloged file that is proctected (bit 0 ON in this
  5    76*						   word), memory location of table in File Management
  5    77*						   Supervisor Executive.  If user temporary file,
  5    78*						   largest size file has ever attained, in llinks.
  5    79*						   If system value equals 777777 octal, it is system
  5    80*						   file created by System Input. */
  5    81
  5    82         5 word_3,
  5    83 	6 llink_size bit (14) unal,			/* 0-13 ^= 0, Current total file size in llinks
  5    84*						   0-13 = 0, File size is greater than 16,383 llinks,
  5    85*						   and if the file is cataloged, call to .MFS19,5 with
  5    86*						   offset to PAT pointer in index 5 will cause bits
  5    87*						   14-35 of Q-register to be set to file size. (Unless
  5    88*						   there is a Seek error on file catalog in which case
  5    89*						   zero is returned. )
  5    90*						   */
  5    91 	6 llink_position bit (22) unal,		/* Relative llink position within the space descriptors
  5    92*						   in memory. */
  5    93
  5    94         5 word_4,
  5    95 	6 not_last_desc bit (1) unal,			/* 1 = not last descriptor in memory */
  5    96 	6 space_desc bit (1) unal,			/* 0 = this is space descriptor */
  5    97 	6 space_defective bit (1) unal,		/* 1 = Space is defective */
  5    98 	6 extent bit (15) unal,			/* Number of llinks in this extent (area defined by this
  5    99*						   descriptor) */
  5   100 	6 origin bit (18) unal;			/* device llinks number of origin of this extent */
  5   101 /*   END INCLUDE FILE gtss_dfd_ext_.incl.pl1 */
      179
      180 
  6     1 /* BEGIN INCLUDE FILE gtss_db_names.incl.pl1 */
  6     2 /*
  6     3*  Created:  (Wardd Multics)  03/29/79 1909.1 mst Thu
  6     4**/
  6     5
  6     6 /* To provide a new debugging switch:
  6     7*
  6     8*   1) Locate the comment "Insert next entry above this comment".
  6     9*
  6    10*   2) Place a new declaration for a db_ variable just
  6    11*      above this comment, in the same manner as the
  6    12*      current declaration just above the comment, using
  6    13*      the next integer gtss_ext_$db index.
  6    14*
  6    15*   3) Execute the gtss|db_names ted macro (this updates
  6    16*      the sorted name table).
  6    17*
  6    18*   4) Example use:
  6    19*
  6    20*      if db_drl_grow then do;
  6    21*      .
  6    22*      .
  6    23*      .
  6    24*      debug i/o statements using com_err_ or ioa_
  6    25*      .
  6    26*      .
  6    27*      .
  6    28*      end;
  6    29*
  6    30**/
  6    31
  6    32 dcl (
  6    33  db_		bit(1) defined(gtss_ext_$db(01))
  6    34 ,db_CFP_input	bit(1) defined(gtss_ext_$db(02))
  6    35 ,db_drl_addmem	bit(1) defined(gtss_ext_$db(03))
  6    36 ,db_drl_defil	bit(1) defined(gtss_ext_$db(04))
  6    37 ,db_drl_filact	bit(1) defined(gtss_ext_$db(05))
  6    38 ,db_drl_filsp	bit(1) defined(gtss_ext_$db(06))
  6    39 ,db_drl_grow	bit(1) defined(gtss_ext_$db(07))
  6    40 ,db_drl_rew	bit(1) defined(gtss_ext_$db(08))
  6    41 ,db_filact_funct02	bit(1) defined(gtss_ext_$db(09))
  6    42 ,db_filact_funct03	bit(1) defined(gtss_ext_$db(10))
  6    43 ,db_filact_funct04	bit(1) defined(gtss_ext_$db(11))
  6    44 ,db_filact_funct05	bit(1) defined(gtss_ext_$db(12))
  6    45 ,db_filact_funct10	bit(1) defined(gtss_ext_$db(13))
  6    46 ,db_filact_funct11	bit(1) defined(gtss_ext_$db(14))
  6    47 ,db_filact_funct14	bit(1) defined(gtss_ext_$db(15))
  6    48 ,db_filact_funct18	bit(1) defined(gtss_ext_$db(16))
  6    49 ,db_filact_funct19	bit(1) defined(gtss_ext_$db(17))
  6    50 ,db_filact_funct21	bit(1) defined(gtss_ext_$db(18))
  6    51 ,db_filact_funct22	bit(1) defined(gtss_ext_$db(19))
  6    52 ,db_interp_prim	bit(1) defined(gtss_ext_$db(20))
  6    53 ,db_ios		bit(1) defined(gtss_ext_$db(21))
  6    54 ,db_run_subsystem	bit(1) defined(gtss_ext_$db(22))
  6    55 ,db_drl_t_cfio	bit(1) defined(gtss_ext_$db(23))
  6    56 ,db_drl_switch	bit(1) defined(gtss_ext_$db(24))
  6    57 ,db_drl_dio	bit(1) defined(gtss_ext_$db(25))
  6    58 ,db_drl_retfil	bit(1) defined(gtss_ext_$db(26))
  6    59 ,db_drl_msub	bit(1) defined(gtss_ext_$db(27))
  6    60 ,db_drl_callss	bit(1) defined(gtss_ext_$db(28))
  6    61 ,db_drl_rstswh	bit(1) defined(gtss_ext_$db(29))
  6    62 ,db_drl_setswh	bit(1) defined(gtss_ext_$db(30))
  6    63 ,db_mcfc		bit(1) defined(gtss_ext_$db(31))
  6    64 ,db_dq		bit(1) defined(gtss_ext_$db(32))
  6    65 ,db_abs		bit(1) defined(gtss_ext_$db(33))
  6    66 ,db_attributes_mgr	bit(1) defined(gtss_ext_$db(34))
  6    67 ,db_expand_pathname bit(1) defined(gtss_ext_$db(35))
  6    68 ,db_drl_part	bit(1) defined(gtss_ext_$db(36))
  6    69 ,db_drl_morlnk	bit(1) defined(gtss_ext_$db(37))
  6    70 ,db_drl_kin	bit(1) defined(gtss_ext_$db(38))
  6    71 /* Insert next entry above this comment. */
  6    72 );
  6    73
  6    74 /* Table of sorted names. */
  6    75 dcl 1 debug_bit_names (38) static int options(constant)
  6    76 ,     2 name char(18)var init(
  6    77          "" ,"CFP_input" ,"abs" ,"attributes_mgr" ,"dq" ,"drl_addmem"
  6    78          ,"drl_callss" ,"drl_defil" ,"drl_dio" ,"drl_filact" ,"drl_filsp"
  6    79          ,"drl_grow" ,"drl_kin" ,"drl_morlnk" ,"drl_msub" ,"drl_part"
  6    80          ,"drl_retfil" ,"drl_rew" ,"drl_rstswh" ,"drl_setswh" ,"drl_switch"
  6    81          ,"drl_t_cfio" ,"expand_pathname" ,"filact_funct02" ,"filact_funct03"
  6    82          ,"filact_funct04" ,"filact_funct05" ,"filact_funct10" ,"filact_funct11"
  6    83          ,"filact_funct14" ,"filact_funct18" ,"filact_funct19" ,"filact_funct21"
  6    84          ,"filact_funct22" ,"interp_prim" ,"ios" ,"mcfc" ,"run_subsystem"
  6    85 			)
  6    86 ,     2 value fixed bin init(
  6    87          01 ,02 ,33 ,34 ,32 ,03 ,28 ,04 ,25 ,05 ,06 ,07 ,38 ,37 ,27 ,36 ,26 ,08
  6    88          ,29 ,30 ,24 ,23 ,35 ,09 ,10 ,11 ,12 ,13 ,14 ,15 ,16 ,17 ,18 ,19 ,20 ,21
  6    89          ,31 ,22
  6    90 			);
  6    91 /* End of table. */
  6    92 /*   END INCLUDE FILE gtss_db_names.incl.pl1 */
      181
      182      end						/* gtss_drl_grow_ */;
	SOURCE FILES USED IN THIS COMPILATION.

LINE      NUMBER  DATE MODIFIED     NAME			PATHNAME
             0    12/10/84  1043.1  gtss_drl_grow_.pl1                >spec>on>7105>gtss_drl_grow_.pl1
171          1    09/09/83  1713.8  gtss_ext_.incl.pl1                >ldd>include>gtss_ext_.incl.pl1
173          2    12/15/83  1100.4  mc.incl.pl1                       >ldd>include>mc.incl.pl1
175          3    09/09/83  1714.3  gtss_ust_ext_.incl.pl1            >ldd>include>gtss_ust_ext_.incl.pl1
177          4    12/10/84  1029.7  gtss_entry_dcls.incl.pl1          >spec>on>7105>gtss_entry_dcls.incl.pl1
179          5    09/09/83  1713.2  gtss_dfd_ext_.incl.pl1            >ldd>include>gtss_dfd_ext_.incl.pl1
181          6    09/09/83  1713.6  gtss_db_names.incl.pl1            >ldd>include>gtss_db_names.incl.pl1
	NAMES DECLARED IN THIS COMPILATION.

IDENTIFIER	     OFFSET    LOC STORAGE CLASS   DATA TYPE		ATTRIBUTES AND REFERENCES
								(* indicates a set context)

NAMES DECLARED BY DECLARE STATEMENT.
L_fileid                  0(18)        based           bit(18)                  level 2 packed unaligned dcl 159 ref 52 62
L_n                                    based           bit(18)                  level 2 packed unaligned dcl 159 ref 85 95
L_stat                    1(18)        based           bit(18)                  level 2 packed unaligned dcl 159 ref 65 75
add                       0(01)        based           bit(17)                  level 2 packed unaligned dcl 166 ref 98 98 126 126
                                                                                  126 126
addrel                                                 builtin function         dcl 143 ref 49 62 75 95
afn_ptr                         000100 automatic       pointer                  initial dcl 144 set ref 62* 78 109 126 144*
arg_list                               based           structure                level 1 dcl 159
arg_list_ptr                    000102 automatic       pointer                  initial dcl 145 set ref 49* 52 62 65 75 85 95 145*
ascii_file_name                        based           char(8)                  unaligned dcl 146 set ref 78* 109* 126*
attributes_ptr          100     000036 external static pointer                  array level 3 dcl 5-6 set ref 106*
code                            000104 automatic       fixed bin(35,0)          dcl 147 set ref 78* 79 98* 109* 117
com_err_                        000024 constant        entry                    external dcl 4-8 ref 109
db_drl_grow                            defined         bit(1)                   unaligned dcl 6-32 ref 109 126
error_table_$rqover             000010 external static fixed bin(35,0)          dcl 148 ref 117
file_size                76     000036 external static fixed bin(30,0)          array level 3 dcl 5-6 set ref 126* 126*
fn                              000105 automatic       fixed bin(24,0)          dcl 149 set ref 78* 98* 106 126* 126 126
grow_status                            based           bit(12)                  unaligned dcl 150 set ref 80* 117* 119* 124* 126 126
grow_status_ptr                 000106 automatic       pointer                  initial dcl 151 set ref 75* 80 117 119 124 126 126
                                                                                  151*
gseg                            000110 automatic       pointer                  initial dcl 152 set ref 48* 49 62 75 95 152*
gtss_abort_subsystem_           000026 constant        entry                    external dcl 4-15 ref 53 66 86
gtss_adjust_size_               000030 constant        entry                    external dcl 4-25 ref 106
gtss_aft_$find                  000032 constant        entry                    external dcl 4-28 ref 78
gtss_dfd_ext_$disk_file_data    000036 external static structure                array level 1 dcl 5-6
gtss_disk                       000036 external static structure                array level 2 dcl 5-6
gtss_ext_$db                    000014 external static bit(1)                   array unaligned dcl 1-10 ref 109 109 126 126
gtss_ext_$gtss_slave_area_seg   000016 external static pointer                  array dcl 1-20 ref 48
gtss_ext_$stack_level_          000020 external static fixed bin(17,0)          dcl 1-31 ref 48
gtss_ios_change_size_           000034 constant        entry                    external dcl 4-130 ref 98
gtss_ust                        000022 external static structure                level 2 dcl 3-16
gtss_ust_ext_$ust               000022 external static structure                level 1 dcl 3-16
ilc                       4            based           bit(18)                  level 2 packed unaligned dcl 2-56 ref 49 53 53 66 66
                                                                                  86 86
in_links                               based           bit(1)                   level 2 packed unaligned dcl 166 set ref 98* 126*
increment                              parameter       fixed bin(17,0)          dcl 26 set ref 14 46*
ioa_                            000012 constant        entry                    external dcl 153 ref 126
limit                    22(18) 000022 external static bit(18)                  level 4 packed unaligned dcl 3-16 ref 52 65 85
lsize                    22     000022 external static structure                level 3 dcl 3-16
mc                                     based           structure                level 1 dcl 2-12
mcp                             000116 automatic       pointer                  dcl 2-10 set ref 27* 47 53* 66* 86*
mcpp                                   parameter       pointer                  dcl 25 ref 14 27
n                                      based           structure                level 1 dcl 166
n_ptr                           000112 automatic       pointer                  initial dcl 155 set ref 95* 98 98 98 126 126 126 126
                                                                                  126 155*
scu                                    based           structure                level 1 dcl 2-56 in procedure "gtss_drl_grow_"
scu                      30            based           bit(36)                  array level 2 in structure "mc" packed unaligned
                                                                                  dcl 2-12 in procedure "gtss_drl_grow_" set ref 47
scup                            000120 automatic       pointer                  dcl 2-54 set ref 47* 49 53 53 66 66 86 86
status                          000114 automatic       fixed bin(24,0)          dcl 156 set ref 98* 108 108 109*

NAMES DECLARED BY DECLARE STATEMENT AND NEVER REFERENCED.
UPPER                                  internal static char(26)                 initial dcl 157
abx                                    internal static fixed bin(17,0)          initial dcl 2-42
apx                                    internal static fixed bin(17,0)          initial dcl 2-42
bbx                                    internal static fixed bin(17,0)          initial dcl 2-42
bpx                                    internal static fixed bin(17,0)          initial dcl 2-42
db_                                    defined         bit(1)                   unaligned dcl 6-32
db_CFP_input                           defined         bit(1)                   unaligned dcl 6-32
db_abs                                 defined         bit(1)                   unaligned dcl 6-32
db_attributes_mgr                      defined         bit(1)                   unaligned dcl 6-32
db_dq                                  defined         bit(1)                   unaligned dcl 6-32
db_drl_addmem                          defined         bit(1)                   unaligned dcl 6-32
db_drl_callss                          defined         bit(1)                   unaligned dcl 6-32
db_drl_defil                           defined         bit(1)                   unaligned dcl 6-32
db_drl_dio                             defined         bit(1)                   unaligned dcl 6-32
db_drl_filact                          defined         bit(1)                   unaligned dcl 6-32
db_drl_filsp                           defined         bit(1)                   unaligned dcl 6-32
db_drl_kin                             defined         bit(1)                   unaligned dcl 6-32
db_drl_morlnk                          defined         bit(1)                   unaligned dcl 6-32
db_drl_msub                            defined         bit(1)                   unaligned dcl 6-32
db_drl_part                            defined         bit(1)                   unaligned dcl 6-32
db_drl_retfil                          defined         bit(1)                   unaligned dcl 6-32
db_drl_rew                             defined         bit(1)                   unaligned dcl 6-32
db_drl_rstswh                          defined         bit(1)                   unaligned dcl 6-32
db_drl_setswh                          defined         bit(1)                   unaligned dcl 6-32
db_drl_switch                          defined         bit(1)                   unaligned dcl 6-32
db_drl_t_cfio                          defined         bit(1)                   unaligned dcl 6-32
db_expand_pathname                     defined         bit(1)                   unaligned dcl 6-32
db_filact_funct02                      defined         bit(1)                   unaligned dcl 6-32
db_filact_funct03                      defined         bit(1)                   unaligned dcl 6-32
db_filact_funct04                      defined         bit(1)                   unaligned dcl 6-32
db_filact_funct05                      defined         bit(1)                   unaligned dcl 6-32
db_filact_funct10                      defined         bit(1)                   unaligned dcl 6-32
db_filact_funct11                      defined         bit(1)                   unaligned dcl 6-32
db_filact_funct14                      defined         bit(1)                   unaligned dcl 6-32
db_filact_funct18                      defined         bit(1)                   unaligned dcl 6-32
db_filact_funct19                      defined         bit(1)                   unaligned dcl 6-32
db_filact_funct21                      defined         bit(1)                   unaligned dcl 6-32
db_filact_funct22                      defined         bit(1)                   unaligned dcl 6-32
db_interp_prim                         defined         bit(1)                   unaligned dcl 6-32
db_ios                                 defined         bit(1)                   unaligned dcl 6-32
db_mcfc                                defined         bit(1)                   unaligned dcl 6-32
db_run_subsystem                       defined         bit(1)                   unaligned dcl 6-32
debug_bit_names                        internal static structure                array level 1 unaligned dcl 6-75
gtss_CFP_abort_                 000000 constant        entry                    external dcl 4-9
gtss_CFP_break_                 000000 constant        entry                    external dcl 4-10
gtss_CFP_input_                 000000 constant        entry                    external dcl 4-11
gtss_CFP_output_                000000 constant        entry                    external dcl 4-12
gtss_abandon_CFP_               000000 constant        entry                    external dcl 4-13
gtss_abort_dump_                000000 constant        entry                    external dcl 4-14
gtss_abort_subsystem_$not_imp   000000 constant        entry                    external dcl 4-16
gtss_abs_$abs_equiv             000000 constant        entry                    external dcl 4-19
gtss_abs_$cpu_runout            000000 constant        entry                    external dcl 4-20
gtss_abs_$create_absin          000000 constant        entry                    external dcl 4-21
gtss_abs_$dabt_check            000000 constant        entry                    external dcl 4-22
gtss_abs_$get_drm               000000 constant        entry                    external dcl 4-24
gtss_abs_$get_id                000000 constant        entry                    external dcl 4-23
gtss_abs_login_banner_          000000 constant        entry                    external dcl 4-17
gtss_abs_logout_banner_         000000 constant        entry                    external dcl 4-18
gtss_aft_$add                   000000 constant        entry                    external dcl 4-26
gtss_aft_$delete                000000 constant        entry                    external dcl 4-27
gtss_aft_$initialize            000000 constant        entry                    external dcl 4-29
gtss_ascii_bcd_                 000000 constant        entry                    external dcl 4-30
gtss_attributes_mgr_$get        000000 constant        entry                    external dcl 4-31
gtss_attributes_mgr_$set        000000 constant        entry                    external dcl 4-32
gtss_bcd_ascii_                 000000 constant        entry                    external dcl 4-33
gtss_bcd_ascii_$lc              000000 constant        entry                    external dcl 4-34
gtss_break_vector_              000000 constant        entry                    external dcl 4-35
gtss_break_vector_$drl_in_progress
                                000000 constant        entry                    external dcl 4-36
gtss_break_vector_$status       000000 constant        entry                    external dcl 4-37
gtss_build_                     000000 constant        entry                    external dcl 4-38
gtss_com_err_                   000000 constant        entry                    external dcl 4-39
gtss_derail_processor_          000000 constant        entry                    external dcl 4-40
gtss_derail_processor_$set      000000 constant        entry                    external dcl 4-41
gtss_dq_$catp                   000000 constant        entry                    external dcl 4-42
gtss_dq_$create                 000000 constant        entry                    external dcl 4-43
gtss_dq_$dibp                   000000 constant        entry                    external dcl 4-44
gtss_dq_$entries_info           000000 constant        entry                    external dcl 4-45
gtss_dq_$hdrp                   000000 constant        entry                    external dcl 4-46
gtss_dq_$mod_js                 000000 constant        entry                    external dcl 4-47
gtss_dq_$open_exc               000000 constant        entry                    external dcl 4-48
gtss_dq_$open_gen               000000 constant        entry                    external dcl 4-49
gtss_drl_abort_                 000000 constant        entry                    external dcl 4-50
gtss_drl_addmem_                000000 constant        entry                    external dcl 4-51
gtss_drl_callss_                000000 constant        entry                    external dcl 4-52
gtss_drl_corfil_                000000 constant        entry                    external dcl 4-53
gtss_drl_defil_                 000000 constant        entry                    external dcl 4-54
gtss_drl_defil_$subr            000000 constant        entry                    external dcl 4-55
gtss_drl_dio_                   000000 constant        entry                    external dcl 4-56
gtss_drl_drlimt_                000000 constant        entry                    external dcl 4-57
gtss_drl_drlsav_                000000 constant        entry                    external dcl 4-58
gtss_drl_filact_                000000 constant        entry                    external dcl 4-59
gtss_drl_filsp_                 000000 constant        entry                    external dcl 4-60
gtss_drl_grow_                  000000 constant        entry                    external dcl 4-61
gtss_drl_gwake_                 000000 constant        entry                    external dcl 4-62
gtss_drl_jsts_                  000000 constant        entry                    external dcl 4-63
gtss_drl_kin_                   000000 constant        entry                    external dcl 4-64
gtss_drl_kotnow_                000000 constant        entry                    external dcl 4-65
gtss_drl_kotnow_$gtss_drl_kout_ 000000 constant        entry                    external dcl 4-66
gtss_drl_koutn_                 000000 constant        entry                    external dcl 4-67
gtss_drl_morlnk_                000000 constant        entry                    external dcl 4-68
gtss_drl_msub_                  000000 constant        entry                    external dcl 4-69
gtss_drl_objtim_                000000 constant        entry                    external dcl 4-70
gtss_drl_part_                  000000 constant        entry                    external dcl 4-71
gtss_drl_pasaft_                000000 constant        entry                    external dcl 4-72
gtss_drl_pasdes_                000000 constant        entry                    external dcl 4-73
gtss_drl_pasust_                000000 constant        entry                    external dcl 4-74
gtss_drl_pdio_                  000000 constant        entry                    external dcl 4-75
gtss_drl_prgdes_                000000 constant        entry                    external dcl 4-76
gtss_drl_pseudo_                000000 constant        entry                    external dcl 4-77
gtss_drl_relmem_                000000 constant        entry                    external dcl 4-78
gtss_drl_restor_                000000 constant        entry                    external dcl 4-79
gtss_drl_retfil_                000000 constant        entry                    external dcl 4-80
gtss_drl_return_                000000 constant        entry                    external dcl 4-81
gtss_drl_rew_                   000000 constant        entry                    external dcl 4-82
gtss_drl_rstswh_                000000 constant        entry                    external dcl 4-83
gtss_drl_setlno_                000000 constant        entry                    external dcl 4-84
gtss_drl_setswh_                000000 constant        entry                    external dcl 4-85
gtss_drl_snumb_                 000000 constant        entry                    external dcl 4-86
gtss_drl_spawn_                 000000 constant        entry                    external dcl 4-87
gtss_drl_spawn_$gtss_drl_pasflr_
                                000000 constant        entry                    external dcl 4-88
gtss_drl_stoppt_                000000 constant        entry                    external dcl 4-89
gtss_drl_switch_                000000 constant        entry                    external dcl 4-90
gtss_drl_sysret_                000000 constant        entry                    external dcl 4-91
gtss_drl_t_cfio_                000000 constant        entry                    external dcl 4-92
gtss_drl_t_cmov_                000000 constant        entry                    external dcl 4-93
gtss_drl_t_err_                 000000 constant        entry                    external dcl 4-94
gtss_drl_t_goto_                000000 constant        entry                    external dcl 4-95
gtss_drl_t_linl_                000000 constant        entry                    external dcl 4-96
gtss_drl_t_rscc_                000000 constant        entry                    external dcl 4-97
gtss_drl_tapein_                000000 constant        entry                    external dcl 4-98
gtss_drl_task_                  000000 constant        entry                    external dcl 4-99
gtss_drl_termtp_                000000 constant        entry                    external dcl 4-100
gtss_drl_time_                  000000 constant        entry                    external dcl 4-101
gtss_drun_                      000000 constant        entry                    external dcl 4-102
gtss_dsd_lookup_                000000 constant        entry                    external dcl 4-103
gtss_dsd_process_               000000 constant        entry                    external dcl 4-104
gtss_edit_dsd_                  000000 constant        entry                    external dcl 4-105
gtss_expand_pathname_           000000 constant        entry                    external dcl 4-107
gtss_expand_pathname_$verify_umc
                                000000 constant        entry                    external dcl 4-108
gtss_ext_$CFP_bits                     external static structure                level 1 dcl 1-37
gtss_ext_$SYstarstar_file_no           external static fixed bin(24,0)          dcl 1-33
gtss_ext_$aem                          external static fixed bin(17,0)          dcl 1-8
gtss_ext_$aft                          external static structure                level 1 dcl 1-78
gtss_ext_$bad_drl_rtrn                 external static label variable           dcl 1-9
gtss_ext_$com_reg                      external static structure                level 1 dcl 1-45
gtss_ext_$deferred_catalogs_ptr        external static pointer                  dcl 1-11
gtss_ext_$dispose_of_drl               external static label variable           dcl 1-12
gtss_ext_$drl_rtrn                     external static label variable           array dcl 1-13
gtss_ext_$drm_path                     external static char(168)                unaligned dcl 1-14
gtss_ext_$drun_jid                     external static char(5)                  unaligned dcl 1-15
gtss_ext_$event_channel                external static fixed bin(71,0)          dcl 1-16
gtss_ext_$fast_lib                     external static structure                level 1 dcl 1-98
gtss_ext_$finished                     external static label variable           dcl 1-17
gtss_ext_$flags                        external static structure                level 1 dcl 1-60
gtss_ext_$gdb_name                     external static char(8)                  unaligned dcl 1-18
gtss_ext_$get_line                     external static entry variable           dcl 1-19
gtss_ext_$hcs_work_area_ptr            external static pointer                  dcl 1-21
gtss_ext_$homedir                      external static char(64)                 unaligned dcl 1-22
gtss_ext_$last_k_was_out               external static bit(1)                   dcl 1-23
gtss_ext_$mcfc                         external static structure                level 1 dcl 1-109
gtss_ext_$pdir                         external static varying char(168)        dcl 1-24
gtss_ext_$popup_from_pi                external static label variable           dcl 1-25
gtss_ext_$ppt                          external static pointer                  dcl 1-94
gtss_ext_$process_type                 external static fixed bin(17,0)          dcl 1-26
gtss_ext_$put_chars                    external static entry variable           dcl 1-27
gtss_ext_$restart_from_pi              external static label variable           dcl 1-28
gtss_ext_$restart_seg_ptr              external static pointer                  dcl 1-29
gtss_ext_$sig_ptr                      external static pointer                  dcl 1-30
gtss_ext_$statistics                   external static structure                level 1 dcl 1-72
gtss_ext_$suspended_process            external static bit(1)                   unaligned dcl 1-32
gtss_ext_$user_id                      external static varying char(26)         dcl 1-34
gtss_ext_$work_area_ptr                external static pointer                  dcl 1-35
gtss_fault_processor_           000000 constant        entry                    external dcl 4-109
gtss_fault_processor_$timer_runout
                                000000 constant        entry                    external dcl 4-111
gtss_filact_error_status_       000000 constant        entry                    external dcl 4-112
gtss_filact_funct02_            000000 constant        entry                    external dcl 4-113
gtss_filact_funct03_            000000 constant        entry                    external dcl 4-114
gtss_filact_funct04_            000000 constant        entry                    external dcl 4-115
gtss_filact_funct05_            000000 constant        entry                    external dcl 4-116
gtss_filact_funct08_            000000 constant        entry                    external dcl 4-117
gtss_filact_funct10_            000000 constant        entry                    external dcl 4-118
gtss_filact_funct11_            000000 constant        entry                    external dcl 4-119
gtss_filact_funct14_            000000 constant        entry                    external dcl 4-120
gtss_filact_funct18_            000000 constant        entry                    external dcl 4-121
gtss_filact_funct19_            000000 constant        entry                    external dcl 4-122
gtss_filact_funct21_            000000 constant        entry                    external dcl 4-123
gtss_filact_funct22_            000000 constant        entry                    external dcl 4-124
gtss_find_cond_frame_           000000 constant        entry                    external dcl 4-110
gtss_interp_prim_               000000 constant        entry                    external dcl 4-126
gtss_interp_prim_$callss        000000 constant        entry                    external dcl 4-127
gtss_interp_prim_$sysret        000000 constant        entry                    external dcl 4-128
gtss_interp_prim_$t_goto        000000 constant        entry                    external dcl 4-129
gtss_ios_close_                 000000 constant        entry                    external dcl 4-131
gtss_ios_exchange_names_        000000 constant        entry                    external dcl 4-132
gtss_ios_initialize_            000000 constant        entry                    external dcl 4-133
gtss_ios_io_                    000000 constant        entry                    external dcl 4-134
gtss_ios_open_                  000000 constant        entry                    external dcl 4-135
gtss_ios_position_              000000 constant        entry                    external dcl 4-136
gtss_mcfc_$close                000000 constant        entry                    external dcl 4-139
gtss_mcfc_$delete               000000 constant        entry                    external dcl 4-137
gtss_mcfc_$open                 000000 constant        entry                    external dcl 4-138
gtss_mcfc_empty                 000000 constant        entry                    external dcl 4-106
gtss_mcfc_init_                 000000 constant        entry                    external dcl 4-125
gtss_read_starCFP_              000000 constant        entry                    external dcl 4-140
gtss_read_starCFP_$last_os      000000 constant        entry                    external dcl 4-141
gtss_run_subsystem_             000000 constant        entry                    external dcl 4-142
gtss_run_subsystem_$finish      000000 constant        entry                    external dcl 4-143
gtss_run_subsystem_$restor      000000 constant        entry                    external dcl 4-144
gtss_run_subsystem_$restor_perm 000000 constant        entry                    external dcl 4-145
gtss_set_slave_                 000000 constant        entry                    external dcl 4-146
gtss_set_slave_$load_bar        000000 constant        entry                    external dcl 4-147
gtss_update_safe_store_         000000 constant        entry                    external dcl 4-148
gtss_verify_access_             000000 constant        entry                    external dcl 4-149
gtss_verify_access_$check_forced_access
                                000000 constant        entry                    external dcl 4-150
gtss_write_starCFP_             000000 constant        entry                    external dcl 4-151
lbx                                    internal static fixed bin(17,0)          initial dcl 2-42
lower                                  internal static char(26)                 initial dcl 154
lpx                                    internal static fixed bin(17,0)          initial dcl 2-42
sbx                                    internal static fixed bin(17,0)          initial dcl 2-42
scux                                   based           structure                level 1 dcl 2-207
spx                                    internal static fixed bin(17,0)          initial dcl 2-42

NAMES DECLARED BY EXPLICIT CONTEXT.
gtss_drl_grow_                  000127 constant        entry                    external dcl 14
ret                             000563 constant        label                    dcl 125 set ref 60 73 81 93 121

NAMES DECLARED BY CONTEXT OR IMPLICATION.
addr                                                   builtin function         ref 47
fixed                                                  builtin function         ref 49 53 53 66 66 86 86 98 98 126 126 126 126 126
                                                                                  126
null                                                   builtin function         ref 144 145 151 152 155

STORAGE REQUIREMENTS FOR THIS PROGRAM.

	Object	Text	Link	Symbol	Defs	Static
Start          0       0      1060        1120     673        1070
Length      1420     673        40         264     164           0

BLOCK NAME	         STACK SIZE     TYPE		WHY NONQUICK/WHO SHARES STACK FRAME
gtss_drl_grow_                      182 external procedure  is an external procedure.

STORAGE FOR AUTOMATIC VARIABLES.

STACK FRAME                 LOC IDENTIFIER                  BLOCK NAME
gtss_drl_grow_           000100 afn_ptr                     gtss_drl_grow_
                         000102 arg_list_ptr                gtss_drl_grow_
                         000104 code                        gtss_drl_grow_
                         000105 fn                          gtss_drl_grow_
                         000106 grow_status_ptr             gtss_drl_grow_
                         000110 gseg                        gtss_drl_grow_
                         000112 n_ptr                       gtss_drl_grow_
                         000114 status                      gtss_drl_grow_
                         000116 mcp                         gtss_drl_grow_
                         000120 scup                        gtss_drl_grow_

THE FOLLOWING EXTERNAL OPERATORS ARE USED BY THIS PROGRAM.
call_ext_out_desc   call_ext_out        return              ext_entry

THE FOLLOWING EXTERNAL ENTRIES ARE CALLED BY THIS PROGRAM.
com_err_                      gtss_abort_subsystem_         gtss_adjust_size_             gtss_aft_$find
gtss_ios_change_size_         ioa_

THE FOLLOWING EXTERNAL VARIABLES ARE USED BY THIS PROGRAM.
error_table_$rqover           gtss_dfd_ext_$disk_file_data  gtss_ext_$db                  gtss_ext_$gtss_slave_area_seg
gtss_ext_$stack_level_        gtss_ust_ext_$ust


   LINE    LOC      LINE    LOC      LINE    LOC      LINE    LOC      LINE    LOC      LINE    LOC      LINE    LOC
     14 000123       144 000134       145 000136       151 000137       152 000140       155 000141        27 000142
     46 000146        47 000150        48 000152        49 000157        52 000167        53 000201        60 000245
     62 000246        65 000252        66 000260        73 000324        75 000325        78 000330        79 000342
     80 000345        81 000351        85 000352        86 000364        93 000431        95 000432        98 000436
    106 000460       108 000472       109 000476       117 000541       119 000552       121 000556       124 000557
    125 000563       126 000564       139 000666


                                          -----------------------------------------------------------


Historical Background

This edition of the Multics software materials and documentation is provided and donated
to Massachusetts Institute of Technology by Group BULL including BULL HN Information Systems Inc.
as a contribution to computer science knowledge.
This donation is made also to give evidence of the common contributions of Massachusetts Institute of Technology,
Bell Laboratories, General Electric, Honeywell Information Systems Inc., Honeywell BULL Inc., Groupe BULL
and BULL HN Information Systems Inc. to the development of this operating system.
Multics development was initiated by Massachusetts Institute of Technology Project MAC (1963-1970),
renamed the MIT Laboratory for Computer Science and Artificial Intelligence in the mid 1970s, under the leadership
of Professor Fernando Jose Corbato. Users consider that Multics provided the best software architecture
for managing computer hardware properly and for executing programs. Many subsequent operating systems
incorporated Multics principles.
Multics was distributed in 1975 to 2000 by Group Bull in Europe , and in the U.S. by Bull HN Information Systems Inc.,
as successor in interest by change in name only to Honeywell Bull Inc. and Honeywell Information Systems Inc. .

                                          -----------------------------------------------------------

Permission to use, copy, modify, and distribute these programs and their documentation for any purpose and without
fee is hereby granted,provided that the below copyright notice and historical background appear in all copies
and that both the copyright notice and historical background and this permission notice appear in supporting
documentation, and that the names of MIT, HIS, BULL or BULL HN not be used in advertising or publicity pertaining
to distribution of the programs without specific prior written permission.
    Copyright 1972 by Massachusetts Institute of Technology and Honeywell Information Systems Inc.
    Copyright 2006 by BULL HN Information Systems Inc.
    Copyright 2006 by Bull SAS
    All Rights Reserved
