	COMPILATION LISTING OF SEGMENT gtss_find_cond_frame_
	Compiled by: Multics PL/I Compiler, Release 28d, of October 4, 1983
	Compiled at: Honeywell Multics Op. - System M
	Compiled on: 12/10/84  1340.7 mst Mon
	    Options: optimize map

        1 /* ***********************************************************
        2*   *                                                         *
        3*   *                                                         *
        4*   * Copyright, (C) Honeywell Information Systems Inc., 1981 *
        5*   *                                                         *
        6*   *                                                         *
        7*   *********************************************************** */
        8
        9 /* *************************************************************
       10*   *						   *
       11*   * Copyright (c) 1979 by Honeywell Information Systems, Inc. *
       12*   *						   *
       13*   ************************************************************* */
       14
       15 gtss_find_cond_frame_: proc (cond_arg) returns (ptr);
       16
       17 /**
       18*   Author:	Al Dupuis 10/15/79
       19*
       20*
       21*
       22*   arg_1 input		the condition name.
       23*   returns		ptr to the machine conditions if the condition
       24*			was found in the current slave seg.
       25***/
       26
       27
       28
       29
       30 	sp = find_condition_frame_ (null ());
       31 	do while (sp ^= null ());
       32 	     call find_condition_info_ (sp, addr (cond_info), code);
       33 	     if condition_name = cond_arg
       34 	     then do;
       35 		scup = addr (cond_info.mcptr -> mc.scu);
       36 		if scu.ppr.psr = substr (baseno (gtss_ext_$gtss_slave_area_seg
       37 		(gtss_ext_$stack_level_)), 4, 15) then	/* have found fault in slave segment */
       38 		     return (cond_info.mcptr);
       39 	     end;
       40 	     sp = find_condition_frame_ (sp);
       41 	end;
       42 	return (null ());
       43
       44 
       45 /* gtss_find_cond_frame_ declares			*/
       46 dcl code fixed bin (35);
       47 dcl cond_arg char (32) varying parm;
       48 dcl find_condition_frame_ entry (ptr) returns (ptr);
       49 dcl find_condition_info_ entry (ptr, ptr, fixed bin (35));
       50 dcl sp ptr init (null());
       51 dcl 1 cond_info aligned,
  1     1 	/* BEGIN INCLUDE FILE ... cond_info.incl.pl1
  1     2*	   coded by M. Weaver 12 July 1973 */
  1     3
  1     4 	  2 mcptr ptr,				/* ptr to machine conditions at time of fault */
  1     5 	  2 version fixed bin,			/* version of this structure (now=1) */
  1     6 	  2 condition_name char(32) var,		/* name of condition */
  1     7 	  2 infoptr ptr,				/* ptr to software info structure */
  1     8 	  2 wcptr ptr,				/* ptr to wall crossing machine conditions */
  1     9 	  2 loc_ptr ptr,				/* ptr to location where condition occurred */
  1    10 	  2 flags aligned,
  1    11 	    3 crawlout bit(1) unal,			/* = "1"b if condition occurred in inner ring */
  1    12 	    3 pad1 bit(35) unal,
  1    13 	  2 pad_word bit(36) aligned,
  1    14 	  2 user_loc_ptr ptr,			/* ptr to last non-support loc before condition */
  1    15 	  2 pad (4) bit(36) aligned;
  1    16
  1    17 	/* END INCLUDE FILE ... cond_info.incl.pl1 */
       52
       53 
  2     1 /* BEGIN INCLUDE FILE gtss_ext_.incl.pl1 */
  2     2 /*
  2     3*  Created: (Wardd Multics)  05/20/78 1307.6 mst Sat
  2     4*  Modified: Ward            1981     add suspended_process dcl
  2     5*  Modified: Ron Barstad  83-07-21  Fixed level number on mcfc to 3
  2     6*  Modified: Ron Barstad  83-07-25  Fixed derail range in statistics to 4js3 number
  2     7**/
  2     8 dcl  gtss_ext_$aem                   fixed bin static ext	/* >0 Print "additional" error information. */;
  2     9 dcl  gtss_ext_$bad_drl_rtrn          static ext label	/* Default for drl_rtrn. */;
  2    10 dcl  gtss_ext_$db                    (72)bit(1)unal static ext;
  2    11 dcl  gtss_ext_$deferred_catalogs_ptr ptr ext;
  2    12 dcl  gtss_ext_$dispose_of_drl        static ext label	/* quit handlers for some derails use this label to abort */;
  2    13 dcl  gtss_ext_$drl_rtrn              (4)static ext label	/* where to return at subsystem end */;
  2    14 dcl  gtss_ext_$drm_path              char(168)static ext	/* gtss_expand_pathname_stores drm_path */;
  2    15 dcl  gtss_ext_$drun_jid              char (5) static ext	/* valid only for DRUN executing under absentee */;
  2    16 dcl  gtss_ext_$event_channel         fixed bin (71) static ext	/* used for DABT signals */;
  2    17 dcl  gtss_ext_$finished              static ext label	/* Return to gtss for normal conclusion. */;
  2    18 dcl  gtss_ext_$gdb_name              char(8)ext	/* Name H* module to debug. */;
  2    19 dcl  gtss_ext_$get_line              entry(ptr,ptr,fixed bin(21),fixed bin(21),fixed bin(35))variable ext /* Build mode input procedure. */;
  2    20 dcl  gtss_ext_$gtss_slave_area_seg   (4) ext static ptr	/* pointer to gtss slave area segment */;
  2    21 dcl  gtss_ext_$hcs_work_area_ptr     ptr ext static		/* Temp seg for acl lists. */;
  2    22 dcl  gtss_ext_$homedir               char (64) static ext /* user's home dir */;
  2    23 dcl  gtss_ext_$last_k_was_out        bit (1)aligned ext static	/* "1"b => last tty output was output. */;
  2    24 dcl  gtss_ext_$pdir                  char (168) varying ext static	/* pathname of process directory */;
  2    25 dcl  gtss_ext_$popup_from_pi         static ext label	/* transfer to this label after pi simulates popup primitive */;
  2    26 dcl  gtss_ext_$process_type          fixed bin (17) static ext;
  2    27 dcl  gtss_ext_$put_chars             entry(ptr,ptr,fixed bin(24),fixed bin(35)) variable ext	/* Terminal output procedure. */;
  2    28 dcl  gtss_ext_$restart_from_pi       static ext label	/* transfer to this label after pi restores machine conditions */;
  2    29 dcl  gtss_ext_$restart_seg_ptr       ptr static ext	/* points to DRUN restart file when exec under absentee */;
  2    30 dcl  gtss_ext_$sig_ptr               ext static ptr	/* saved ptr to signal_ */;
  2    31 dcl  gtss_ext_$stack_level_          fixed bin ext static;
  2    32 dcl  gtss_ext_$suspended_process     bit(1) ext static;
  2    33 dcl  gtss_ext_$SYstarstar_file_no    fixed bin (24) static ext;
  2    34 dcl  gtss_ext_$user_id               char (26)var ext;
  2    35 dcl  gtss_ext_$work_area_ptr         ptr ext;
  2    36
  2    37 dcl  1 gtss_ext_$CFP_bits aligned static external
  2    38      , 3 no_input_yet bit (1) unaligned         /* used in gtss_CFP_input_, gtss_read_starCFP_ */
  2    39      , 3 rtn_bits bit (4) unaligned             /* used in gtss_CFP_input_, gtss_CFP_output_ */
  2    40      , 3 cpos_called bit (1) unaligned          /* used in gtss_CFP_input_, gtss_drl_t_cfio_, gtss_abandon_CFP_ */
  2    41      , 3 cout_called bit (1) unaligned          /* used in gtss_read_starCFP_, gtss_abandon_CFP_ */
  2    42      , 3 build_mode bit (1) unaligned	        /* used in gtss_build_, gtss_dsd_process_ */
  2    43      ;
  2    44
  2    45 dcl 1 gtss_ext_$com_reg aligned static ext,
  2    46        3 tsdmx,
  2    47          4 dst fixed bin (18) unsigned unaligned,
  2    48          4 dit fixed bin (18) unsigned unaligned,
  2    49        3 tsdpt fixed bin (36) unsigned unaligned,
  2    50        3 tsddt fixed bin (36) unsigned unaligned,
  2    51        3 tsdid bit (72) unaligned,
  2    52        3 tsdsd bit (36) unaligned,
  2    53        3 tsdst fixed bin (36) unsigned unaligned,
  2    54        3 tsdjb fixed bin (35) unaligned,
  2    55        3 tsdgt,
  2    56          4 ust_loc fixed bin (18) unsigned unaligned,
  2    57          4 gating_ctl fixed bin (18) unsigned unaligned,
  2    58        3 tcdfr bit (36) unaligned;
  2    59
  2    60 dcl 1 gtss_ext_$flags aligned static ext
  2    61      , 3 dispose_of_drl_on_pi	bit (01) unal	/* 1 => drl that should be aborted after quit-pi sequence */
  2    62      , 3 drl_in_progress	bit (01) unal	/* 1 => drl handler executing; 0 => gcos code executing */
  2    63      , 3 popup_from_pi	bit (01) unal	/* 1 => derail processor will simulate Gcos break instead of returning */
  2    64      , 3 unfinished_drl	bit (01) unal	/* 1 => subsystem is handling breaks and quit was raised during a drl */
  2    65      , 3 ss_time_limit_set	bit (01) unal	/* 1 => exec time limit set for subsystem */
  2    66      , 3 timer_ranout	bit (01) unal	/* 1 => user is executing timer runout code */
  2    67      , 3 gtss_com_err_sw      bit (01) unal       /* 1 => stop com_err_ string from going to terminal */
  2    68      , 3 available		bit (65) unal
  2    69      ;
  2    70
  2    71
  2    72 dcl 1 gtss_ext_$statistics aligned static ext,		/* Derail usage statistics */
  2    73       3 total_time (-10:71)fixed bin (71),
  2    74       3 count (-10:71)fixed bin (17);
  2    75
  2    76 /* 	Declaration of Available File Table
  2    77*   */
  2    78 dcl 1 gtss_ext_$aft aligned ext,			/* aft structure */
  2    79
  2    80       3 start_list (0:102) fixed bin (24),		/* >0 => 1st aft_entry row to start of next entry chain. */
  2    81
  2    82       3 aft_entry (20),
  2    83         4 altname char (8),				/* altname name for attaching this file */
  2    84         4 next_entry fixed bin (24),			/* Next aft_entry in hash chain. */
  2    85         4 previous_add fixed bin (24),			/* Previously added entry. */
  2    86         4 next_add fixed bin (24),			/* Entry added after this one. */
  2    87         4 used bit (1) unal,				/* "1"b => aft_entry contains AFT value. */
  2    88         4 forced bit(1) unal,				/* "1"b => gtss_verify_access_ forced access on this file. */
  2    89
  2    90       3 free_space fixed bin (24),			/* Index of start of free space list for aft entries. */
  2    91       3 first_added fixed bin (24),			/* >0  => start of chain in add order. */
  2    92       3 last_added fixed bin (24)			/* >0 => end of chain in added order. */;
  2    93
  2    94 dcl  gtss_ext_$ppt                   ptr ext /*  switch name for tapein drl */;
  2    95 /**	Data structure to provide access to installed
  2    96*   subsystems fast library load.
  2    97*   **/
  2    98 dcl 1 gtss_ext_$fast_lib aligned ext
  2    99      , 3 fast_lib_fcb ptr				/* Pointer to msf fcb.	*/
  2   100      , 3 fast_lib_ncp fixed bin (24)			/* Number of components. */
  2   101      , 3 comp_ptr (0:9)ptr				/* Pointer to component. */
  2   102      , 3 comp_wds (0:9)fixed bin (24)			/* Component length (words). */
  2   103      ;
  2   104
  2   105 /* Pointers to segments to regulate multipler
  2   106*   callers to files. Same segments are used to regulate
  2   107*   all simulator callers.
  2   108**/
  2   109 dcl 1 gtss_ext_$mcfc	aligned ext,
  2   110       3 multics_lock_id	bit(36),
  2   111       3 wait_time		fixed bin,
  2   112       3 files_ptr		ptr,
  2   113       3 names_ptr		ptr,
  2   114       3 callers_ptr		(0:3)ptr
  2   115 ;
  2   116
  2   117 /*   END INCLUDE FILE gtss_ext_.incl.pl1 */
       54
       55 
  3     1 /*  */
  3     2 /* BEGIN INCLUDE FILE  mc.incl.pl1   Created Dec 72 for 6180 - WSS. */
  3     3 /* Modified 06/07/76 by Greenberg for mc.resignal */
  3     4 /* Modified 07/07/76 by Morris for fault register data */
  3     5 /* Modified 08/28/80 by J. A. Bush for the DPS8/70M CVPU */
  3     6 /* Modified '82 to make values constant */
  3     7
  3     8 /* words 0-15 pointer registers */
  3     9
  3    10 dcl  mcp ptr;
  3    11
  3    12 dcl 1 mc based (mcp) aligned,
  3    13     2 prs (0:7) ptr,				/* POINTER  REGISTERS */
  3    14    (2 regs,					/* registers */
  3    15       3 x (0:7) bit (18),				/* index registers */
  3    16       3 a bit (36),					/* accumulator */
  3    17       3 q bit (36),					/* q-register */
  3    18       3 e bit (8),					/* exponent */
  3    19       3 pad1 bit (28),
  3    20       3 t bit (27),					/* timer register */
  3    21       3 pad2 bit (6),
  3    22       3 ralr bit (3),				/* ring alarm register */
  3    23
  3    24     2 scu (0:7) bit (36),
  3    25
  3    26     2 mask bit (72),				/* mem controller mask at time of fault */
  3    27     2 ips_temp bit (36),				/* Temporary storage for IPS info */
  3    28     2 errcode fixed bin (35),				/* fault handler's error code */
  3    29     2 fim_temp,
  3    30       3 unique_index bit (18) unal,			/* unique index for restarting faults */
  3    31       3 resignal bit (1) unal,			/* recompute signal name with fcode below */
  3    32       3 fcode bit (17) unal,				/* fault code used as index to FIM table and SCT */
  3    33     2 fault_reg bit (36),				/* fault register */
  3    34     2 pad2 bit (1),
  3    35     2 cpu_type fixed bin (2) unsigned,			/* L68 = 0, DPS8/70M = 1 */
  3    36     2 ext_fault_reg bit (15),				/* extended fault reg for DPS8/70M CPU */
  3    37     2 fault_time bit (54),				/* time of fault */
  3    38
  3    39     2 eis_info (0:7) bit (36)) unaligned;
  3    40
  3    41
  3    42 dcl (apx fixed bin init (0),
  3    43      abx fixed bin init (1),
  3    44      bpx fixed bin init (2),
  3    45      bbx fixed bin init (3),
  3    46      lpx fixed bin init (4),
  3    47      lbx fixed bin init (5),
  3    48      spx fixed bin init (6),
  3    49      sbx fixed bin init (7)) internal static options (constant);
  3    50
  3    51
  3    52 
  3    53
  3    54 dcl  scup ptr;
  3    55
  3    56 dcl 1 scu based (scup) aligned,			/* SCU DATA */
  3    57
  3    58
  3    59 /*	WORD (0)		*/
  3    60
  3    61    (2 ppr,					/* PROCEDURE POINTER REGISTER */
  3    62       3 prr bit (3),				/* procedure ring register */
  3    63       3 psr bit (15),				/* procedure segment register */
  3    64       3 p bit (1),					/* procedure privileged bit */
  3    65
  3    66     2 apu,					/* APPENDING UNIT STATUS */
  3    67       3 xsf bit (1),				/* ext seg flag - IT modification */
  3    68       3 sdwm bit (1),				/* match in SDW Ass. Mem. */
  3    69       3 sd_on bit (1),				/* SDW Ass. Mem.  ON */
  3    70       3 ptwm bit (1),				/* match in PTW Ass. Mem. */
  3    71       3 pt_on bit (1),				/* PTW Ass. Mem.  ON */
  3    72       3 pi_ap bit (1),				/* Instr Fetch or Append cycle */
  3    73       3 dsptw bit (1),				/* Fetch of DSPTW */
  3    74       3 sdwnp bit (1),				/* Fetch of SDW non paged */
  3    75       3 sdwp bit (1),				/* Fetch of SDW paged */
  3    76       3 ptw bit (1),				/* Fetch of PTW */
  3    77       3 ptw2 bit (1),				/* Fetch of pre-paged PTW */
  3    78       3 fap bit (1),				/* Fetch of final address paged */
  3    79       3 fanp bit (1),				/* Fetch of final address non-paged */
  3    80       3 fabs bit (1),				/* Fetch of final address absolute */
  3    81
  3    82     2 fault_cntr bit (3),				/* number of retrys of EIS instructions */
  3    83
  3    84
  3    85 /*	WORD (1)		*/
  3    86
  3    87     2 fd,						/* FAULT  DATA */
  3    88       3 iro bit (1),				/* illegal ring order */
  3    89       3 oeb bit (1),				/* out of execute bracket */
  3    90       3 e_off bit (1),				/* no execute */
  3    91       3 orb bit (1),				/* out of read bracket */
  3    92       3 r_off bit (1),				/* no read */
  3    93       3 owb bit (1),				/* out of write bracket */
  3    94       3 w_off bit (1),				/* no write */
  3    95       3 no_ga bit (1),				/* not a gate */
  3    96       3 ocb bit (1),				/* out of call bracket */
  3    97       3 ocall bit (1),				/* outward call */
  3    98       3 boc bit (1),				/* bad outward call */
  3    99       3 inret bit (1),				/* inward return */
  3   100       3 crt bit (1),				/* cross ring transfer */
  3   101       3 ralr bit (1),				/* ring alarm register */
  3   102       3 am_er bit (1),				/* associative memory fault */
  3   103       3 oosb bit (1),				/* out of segment bounds */
  3   104       3 paru bit (1),				/* processor parity upper */
  3   105       3 parl bit (1),				/* processor parity lower */
  3   106       3 onc_1 bit (1),				/* op not complete type 1 */
  3   107       3 onc_2 bit (1),				/* op not complete type 2 */
  3   108
  3   109     2 port_stat,					/* PORT  STATUS */
  3   110       3 ial bit (4),				/* illegal action lines */
  3   111       3 iac bit (3),				/* illegal action channel */
  3   112       3 con_chan bit (3),				/* connect channel */
  3   113
  3   114     2 fi_num bit (5),				/* (fault/interrupt)  number */
  3   115     2 fi_flag bit (1),				/*  1 => fault,  0 => interrupt  */
  3   116
  3   117
  3   118 /*	WORD (2)		*/
  3   119
  3   120     2 tpr,					/* TEMPORARY POINTER REGISTER */
  3   121       3 trr bit (3),				/* temporary ring register */
  3   122       3 tsr bit (15),				/* temporary segment register */
  3   123
  3   124     2 pad2 bit (9),
  3   125
  3   126     2 cpu_no bit (3),				/* CPU number */
  3   127
  3   128     2 delta bit (6),				/* tally modification DELTA */
  3   129
  3   130
  3   131 /*	WORD (3)		*/
  3   132
  3   133     2 word3 bit (18),
  3   134
  3   135     2 tsr_stat,					/* TSR STATUS for 1,2,&3 word instructions */
  3   136       3 tsna,					/* Word 1 status */
  3   137         4 prn bit (3),				/* Word 1  PR  number */
  3   138         4 prv bit (1),				/* Word 1  PR  valid bit */
  3   139       3 tsnb,					/* Word 2  status */
  3   140         4 prn bit (3),				/* Word 2  PR  number */
  3   141         4 prv bit (1),				/* Word 2  PR  valid bit */
  3   142       3 tsnc,					/* Word 3  status */
  3   143         4 prn bit (3),				/* Word 3  PR  number */
  3   144         4 prv bit (1),				/* Word 3  PR  valid bit */
  3   145
  3   146     2 tpr_tbr bit (6),				/* TPR.TBR  field */
  3   147
  3   148
  3   149 /* 	WORD (4)		*/
  3   150
  3   151     2 ilc bit (18),					/* INSTRUCTION  COUNTER */
  3   152
  3   153     2 ir,						/* INDICATOR  REGISTERS */
  3   154       3 zero bit (1),				/* zero indicator */
  3   155       3 neg bit (1),				/* negative indicator */
  3   156       3 carry bit (1),				/* carryry indicator */
  3   157       3 ovfl bit (1),				/* overflow indicator */
  3   158       3 eovf bit (1),				/* eponent overflow */
  3   159       3 eufl bit (1),				/* exponent underflow */
  3   160       3 oflm bit (1),				/* overflow mask */
  3   161       3 tro bit (1),				/* tally runout */
  3   162       3 par bit (1),				/* parity error */
  3   163       3 parm bit (1),				/* parity mask */
  3   164       3 bm bit (1),					/* ^bar mode */
  3   165       3 tru bit (1),				/* truncation mode */
  3   166       3 mif bit (1),				/* multi-word instruction mode */
  3   167       3 abs bit (1),				/* absolute mode */
  3   168       3 hex bit (1),				/* hexadecimal exponent mode */
  3   169       3 pad bit (3),
  3   170
  3   171
  3   172 /*	WORD (5)		*/
  3   173
  3   174     2 ca bit (18),					/* COMPUTED  ADDRESS */
  3   175
  3   176     2 cu,						/* CONTROL UNIT STATUS */
  3   177       3 rf bit (1),					/* on first cycle of repeat instr */
  3   178       3 rpt bit (1),				/* repeat instruction */
  3   179       3 rd bit (1),					/* repeat double instruction */
  3   180       3 rl bit (1),					/* repeat link instruciton */
  3   181       3 pot bit (1),				/* IT  modification */
  3   182       3 pon bit (1),				/* return type instruction */
  3   183       3 xde bit (1),				/* XDE from Even location */
  3   184       3 xdo bit (1),				/* XDE from Odd  location */
  3   185       3 poa bit (1),				/* operation preparation */
  3   186       3 rfi bit (1),				/* tells CPU to refetch instruction */
  3   187       3 its bit (1),				/* ITS modification */
  3   188       3 if bit (1),					/* fault occured during instruction fetch */
  3   189
  3   190     2 cpu_tag bit (6)) unaligned,			/* computed tag field */
  3   191
  3   192
  3   193 /*	WORDS (6,7)	*/
  3   194
  3   195     2 even_inst bit (36),				/* even instruction of faulting pair */
  3   196
  3   197     2 odd_inst bit (36);				/* odd  instruction of faulting pair */
  3   198
  3   199
  3   200
  3   201
  3   202
  3   203
  3   204 /*	ALTERNATE   SCU  DECLARATION		*/
  3   205
  3   206
  3   207 dcl 1 scux based (scup) aligned,
  3   208
  3   209    (2 pad0 bit (36),
  3   210
  3   211     2 fd,						/* GROUP II  FAULT DATA */
  3   212       3 isn bit (1),				/* illegal segment number */
  3   213       3 ioc bit (1),				/* illegal op  code  */
  3   214       3 ia_am bit (1),				/* illegal address - modifier */
  3   215       3 isp bit (1),				/* illegal slave  procedure */
  3   216       3 ipr bit (1),				/* illegal procedure */
  3   217       3 nea bit (1),				/* non existent address */
  3   218       3 oobb bit (1),				/* out of bounds */
  3   219       3 pad bit (29),
  3   220
  3   221     2 pad2 bit (36),
  3   222
  3   223     2 pad3a bit (18),
  3   224
  3   225     2 tsr_stat (0:2),				/* TSR  STATUS  as an  ARRAY */
  3   226       3 prn bit (3),				/* PR  number */
  3   227       3 prv bit (1),				/* PR  valid bit */
  3   228
  3   229     2 pad3b bit (6)) unaligned,
  3   230
  3   231     2 pad45 (0:1) bit (36),
  3   232
  3   233     2 instr (0:1) bit (36);				/* Instruction ARRAY */
  3   234
  3   235
  3   236
  3   237 /*  END INCLUDE FILE   mc.incl.pl1 */
       56
       57      end;						/* gtss_find_cond_frame */
	SOURCE FILES USED IN THIS COMPILATION.

LINE      NUMBER  DATE MODIFIED     NAME			PATHNAME
             0    12/10/84  1044.1  gtss_find_cond_frame_.pl1         >spec>on>7105>gtss_find_cond_frame_.pl1
52           1    05/06/74  1741.0  cond_info.incl.pl1                >ldd>include>cond_info.incl.pl1
54           2    09/09/83  1713.8  gtss_ext_.incl.pl1                >ldd>include>gtss_ext_.incl.pl1
56           3    12/15/83  1100.4  mc.incl.pl1                       >ldd>include>mc.incl.pl1
	NAMES DECLARED IN THIS COMPILATION.

IDENTIFIER	     OFFSET    LOC STORAGE CLASS   DATA TYPE		ATTRIBUTES AND REFERENCES
								(* indicates a set context)

NAMES DECLARED BY DECLARE STATEMENT.
code                            000100 automatic       fixed bin(35,0)          dcl 46 set ref 32*
cond_arg                               parameter       varying char(32)         dcl 47 ref 15 33
cond_info                       000104 automatic       structure                level 1 dcl 51 set ref 32 32
condition_name            3     000104 automatic       varying char(32)         level 2 dcl 51 set ref 33
find_condition_frame_           000010 constant        entry                    external dcl 48 ref 30 40
find_condition_info_            000012 constant        entry                    external dcl 49 ref 32
gtss_ext_$gtss_slave_area_seg   000014 external static pointer                  array dcl 2-20 ref 36
gtss_ext_$stack_level_          000016 external static fixed bin(17,0)          dcl 2-31 ref 36
mc                                     based           structure                level 1 dcl 3-12
mcptr                           000104 automatic       pointer                  level 2 dcl 51 set ref 35 36
ppr                                    based           structure                level 2 packed unaligned dcl 3-56
psr                       0(03)        based           bit(15)                  level 3 packed unaligned dcl 3-56 ref 36
scu                                    based           structure                level 1 dcl 3-56 in procedure
                                                                                  "gtss_find_cond_frame_"
scu                      30            based           bit(36)                  array level 2 in structure "mc" packed unaligned
                                                                                  dcl 3-12 in procedure "gtss_find_cond_frame_" set
                                                                                  ref 35
scup                            000136 automatic       pointer                  dcl 3-54 set ref 35* 36
sp                              000102 automatic       pointer                  initial dcl 50 set ref 30* 31 32* 40* 40* 50*

NAMES DECLARED BY DECLARE STATEMENT AND NEVER REFERENCED.
abx                                    internal static fixed bin(17,0)          initial dcl 3-42
apx                                    internal static fixed bin(17,0)          initial dcl 3-42
bbx                                    internal static fixed bin(17,0)          initial dcl 3-42
bpx                                    internal static fixed bin(17,0)          initial dcl 3-42
gtss_ext_$CFP_bits                     external static structure                level 1 dcl 2-37
gtss_ext_$SYstarstar_file_no           external static fixed bin(24,0)          dcl 2-33
gtss_ext_$aem                          external static fixed bin(17,0)          dcl 2-8
gtss_ext_$aft                          external static structure                level 1 dcl 2-78
gtss_ext_$bad_drl_rtrn                 external static label variable           dcl 2-9
gtss_ext_$com_reg                      external static structure                level 1 dcl 2-45
gtss_ext_$db                           external static bit(1)                   array unaligned dcl 2-10
gtss_ext_$deferred_catalogs_ptr        external static pointer                  dcl 2-11
gtss_ext_$dispose_of_drl               external static label variable           dcl 2-12
gtss_ext_$drl_rtrn                     external static label variable           array dcl 2-13
gtss_ext_$drm_path                     external static char(168)                unaligned dcl 2-14
gtss_ext_$drun_jid                     external static char(5)                  unaligned dcl 2-15
gtss_ext_$event_channel                external static fixed bin(71,0)          dcl 2-16
gtss_ext_$fast_lib                     external static structure                level 1 dcl 2-98
gtss_ext_$finished                     external static label variable           dcl 2-17
gtss_ext_$flags                        external static structure                level 1 dcl 2-60
gtss_ext_$gdb_name                     external static char(8)                  unaligned dcl 2-18
gtss_ext_$get_line                     external static entry variable           dcl 2-19
gtss_ext_$hcs_work_area_ptr            external static pointer                  dcl 2-21
gtss_ext_$homedir                      external static char(64)                 unaligned dcl 2-22
gtss_ext_$last_k_was_out               external static bit(1)                   dcl 2-23
gtss_ext_$mcfc                         external static structure                level 1 dcl 2-109
gtss_ext_$pdir                         external static varying char(168)        dcl 2-24
gtss_ext_$popup_from_pi                external static label variable           dcl 2-25
gtss_ext_$ppt                          external static pointer                  dcl 2-94
gtss_ext_$process_type                 external static fixed bin(17,0)          dcl 2-26
gtss_ext_$put_chars                    external static entry variable           dcl 2-27
gtss_ext_$restart_from_pi              external static label variable           dcl 2-28
gtss_ext_$restart_seg_ptr              external static pointer                  dcl 2-29
gtss_ext_$sig_ptr                      external static pointer                  dcl 2-30
gtss_ext_$statistics                   external static structure                level 1 dcl 2-72
gtss_ext_$suspended_process            external static bit(1)                   unaligned dcl 2-32
gtss_ext_$user_id                      external static varying char(26)         dcl 2-34
gtss_ext_$work_area_ptr                external static pointer                  dcl 2-35
lbx                                    internal static fixed bin(17,0)          initial dcl 3-42
lpx                                    internal static fixed bin(17,0)          initial dcl 3-42
mcp                                    automatic       pointer                  dcl 3-10
sbx                                    internal static fixed bin(17,0)          initial dcl 3-42
scux                                   based           structure                level 1 dcl 3-207
spx                                    internal static fixed bin(17,0)          initial dcl 3-42

NAME DECLARED BY EXPLICIT CONTEXT.
gtss_find_cond_frame_           000010 constant        entry                    external dcl 15

NAMES DECLARED BY CONTEXT OR IMPLICATION.
addr                                                   builtin function         ref 32 32 35
baseno                                                 builtin function         ref 36
null                                                   builtin function         ref 30 30 31 42 50
substr                                                 builtin function         ref 36

STORAGE REQUIREMENTS FOR THIS PROGRAM.

	Object	Text	Link	Symbol	Defs	Static
Start          0       0       220         240     125         230
Length       454     125        20         200      73           0

BLOCK NAME	         STACK SIZE     TYPE		WHY NONQUICK/WHO SHARES STACK FRAME
gtss_find_cond_frame_               113 external procedure  is an external procedure.

STORAGE FOR AUTOMATIC VARIABLES.

STACK FRAME                 LOC IDENTIFIER                  BLOCK NAME
gtss_find_cond_frame_    000100 code                        gtss_find_cond_frame_
                         000102 sp                          gtss_find_cond_frame_
                         000104 cond_info                   gtss_find_cond_frame_
                         000136 scup                        gtss_find_cond_frame_

THE FOLLOWING EXTERNAL OPERATORS ARE USED BY THIS PROGRAM.
call_ext_out        return              ext_entry

THE FOLLOWING EXTERNAL ENTRIES ARE CALLED BY THIS PROGRAM.
find_condition_frame_         find_condition_info_

THE FOLLOWING EXTERNAL VARIABLES ARE USED BY THIS PROGRAM.
gtss_ext_$gtss_slave_area_seg gtss_ext_$stack_level_


   LINE    LOC      LINE    LOC      LINE    LOC      LINE    LOC      LINE    LOC      LINE    LOC      LINE    LOC
     15 000004        50 000015        30 000017        31 000031        32 000036        33 000053        35 000063
     36 000066        40 000110        41 000120        42 000121


                                          -----------------------------------------------------------


Historical Background

This edition of the Multics software materials and documentation is provided and donated
to Massachusetts Institute of Technology by Group BULL including BULL HN Information Systems Inc.
as a contribution to computer science knowledge.
This donation is made also to give evidence of the common contributions of Massachusetts Institute of Technology,
Bell Laboratories, General Electric, Honeywell Information Systems Inc., Honeywell BULL Inc., Groupe BULL
and BULL HN Information Systems Inc. to the development of this operating system.
Multics development was initiated by Massachusetts Institute of Technology Project MAC (1963-1970),
renamed the MIT Laboratory for Computer Science and Artificial Intelligence in the mid 1970s, under the leadership
of Professor Fernando Jose Corbato. Users consider that Multics provided the best software architecture
for managing computer hardware properly and for executing programs. Many subsequent operating systems
incorporated Multics principles.
Multics was distributed in 1975 to 2000 by Group Bull in Europe , and in the U.S. by Bull HN Information Systems Inc.,
as successor in interest by change in name only to Honeywell Bull Inc. and Honeywell Information Systems Inc. .

                                          -----------------------------------------------------------

Permission to use, copy, modify, and distribute these programs and their documentation for any purpose and without
fee is hereby granted,provided that the below copyright notice and historical background appear in all copies
and that both the copyright notice and historical background and this permission notice appear in supporting
documentation, and that the names of MIT, HIS, BULL or BULL HN not be used in advertising or publicity pertaining
to distribution of the programs without specific prior written permission.
    Copyright 1972 by Massachusetts Institute of Technology and Honeywell Information Systems Inc.
    Copyright 2006 by BULL HN Information Systems Inc.
    Copyright 2006 by Bull SAS
    All Rights Reserved
