	COMPILATION LISTING OF SEGMENT !BBBJPMLHhBdFNH
	Compiled by: Multics PL/I Compiler, Release 28d, of October 4, 1983
	Compiled at: Honeywell Multics Op. - System M
	Compiled on: 12/10/84  1134.3 mst Mon
	    Options: table map

        1 /* ***********************************************************
        2*   *                                                         *
        3*   * Copyright, (C) Honeywell Information Systems Inc., 1983 *
        4*   *                                                         *
        5*   *********************************************************** */
        6 gtss_install_values_:proc;
        7
        8 /* Generate object for "gtss_install_values_" data.
        9*
       10*   Author:    Dave Ward 1981
       11*   Modified:  Ron Barstad  83-07-21  Remove dependency on ted_com, add include file
       12* */
       13 /** Initialize cds_args **/
       14
       15 	cds_args_ptr=addr(space_for_cds_args);
       16 	unspec(space_for_cds_args)="0"b;
       17
       18 /** Reference structure input to cds to assure it is in runtime table. **/
       19
       20 	if addr(gtss_install_values_)=null() then ;
       21
       22 /** No text section **/
       23 	cds_args_ptr -> cds_args.sections (1).p = null ();
       24 	cds_args_ptr -> cds_args.sections (1).len = 0;
       25 	cds_args_ptr -> cds_args.sections (1).struct_name = "NO_TEXT";
       26
       27 /** Static section **/
       28 	cds_args_ptr -> cds_args.sections (2).p = addr (gtss_install_values_);	/* Caller's data. */
       29 	cds_args_ptr -> cds_args.sections (2).len = size (gtss_install_values_);	/* No. words in data structure. */
       30 	cds_args_ptr -> cds_args.sections (2).struct_name = "gtss_install_values_";
       31
       32 	cds_args_ptr -> cds_args.seg_name = "gtss_install_values_";	/* Entryname of object segment. */
       33 	cds_args_ptr -> cds_args.num_exclude_names = 0;		/* All level 2 names are entry points. */
       34 	cds_args_ptr -> cds_args.exclude_array_ptr = null ();
       35 	cds_args_ptr -> cds_args.switches.defs_in_link = "0"b;	/* Definitions contiguous to text section. */
       36 	cds_args_ptr -> cds_args.switches.separate_static = "0"b;	/* Static in linkage section (to bind). */
       37 	cds_args_ptr -> cds_args.switches.have_text = "0"b;	/* No text section. */
       38 	cds_args_ptr -> cds_args.switches.have_static = "1"b;	/* There is a static section. */
       39 	cds_args_ptr -> cds_args.switches.pad = "0"b;		/* Must be zeroes (see create_data_segment_). */
       40
       41 	call create_data_segment_ (cds_args_ptr, code);
       42 	if code ^= 0
       43 	   then
       44 	      call com_err_ (code, "cds_gtss_install_values_");
       45 	   else
       46 	      call com_err_( 0,"gtss_install_values_","Object for gtss_install_values_ created [^i words].",size(gtss_install_values_));
       47
       48 	return;
       49
       50 /** Data for cds **/
       51 dcl  addr                     builtin;
       52 dcl  cds_args_ptr             ptr init(null());
       53 dcl  code                     fixed bin(35);
       54 dcl  com_err_                 entry options(variable);
       55 dcl  create_data_segment_     entry(ptr,fixed bin(35));
       56 dcl  null                     builtin;
       57 dcl  size                     builtin;
       58 dcl  unspec                   builtin;
       59 dcl  1 space_for_cds_args     aligned like cds_args;
       60
       61 /** This data structure must exactly match that of gtss_install_values_.incl.pl1 **/
       62
       63 dcl 1 gtss_install_values_ aligned,
       64       2 fast_msf     char(32)var	init("gtss_fast_library_"),
       65       2 Lstar_msf    char(32)var	init("gtss_Lstar_"),
       66       2 starL_msf    char(32)var	init("gtss_starL_"),
       67       2 memory_limit fixed bin(24)	init(261120),
       68       2 time_limit   fixed bin(24)	init(1000);
       69
  1     1 /* BEGIN INCLUDE FILE gtss_install_values_.incl.pl1 */
  1     2 /*
  1     3*  NOTE: Changes here must be relected in gtss_install_values_.cds as well.
  1     4*
  1     5*  Created: (Wardd Multics)  01/24/79 1706.9 mst Wed
  1     6*  Modified:  Ron Barstad  83-07-21  Moved inits to cds seg
  1     7**/
  1     8
  1     9 dcl gtss_install_values_$fast_msf     char (32) var ext; /* entry name */
  1    10 dcl gtss_install_values_$Lstar_msf    char (32) var ext; /* searched second */
  1    11 dcl gtss_install_values_$starL_msf    char (32) var ext; /* searched first */
  1    12 dcl gtss_install_values_$memory_limit fixed bin (24) ext;
  1    13 dcl gtss_install_values_$time_limit   fixed bin (24) ext;
  1    14
  1    15 /*   END INCLUDE FILE gtss_install_values_.incl.pl1 */
       70
       71
  2     1 /* BEGIN INCLUDE FILE cds_args.incl.pl1 */
  2     2
  2     3 dcl 1 cds_args based aligned,
  2     4     2 sections (2),
  2     5       3 p ptr,					/* pointer to data for text/static section */
  2     6       3 len fixed bin (18),				/* size of text/static section */
  2     7       3 struct_name char (32),			/* name of declared structure for this section */
  2     8     2 seg_name char (32),				/* name to create segment by */
  2     9     2 num_exclude_names fixed bin,			/* number of names in exclude array */
  2    10     2 exclude_array_ptr ptr,				/* pointer to array of exclude names */
  2    11     2 switches,					/* control switches */
  2    12       3 defs_in_link bit (1) unal,			/* says put defs in linkage */
  2    13       3 separate_static bit (1) unal,			/* says separate static section is wanted */
  2    14       3 have_text bit (1) unal,			/* ON if text section given */
  2    15       3 have_static bit (1) unal,			/* ON if static section given */
  2    16       3 pad bit (32) unal;
  2    17
  2    18 dcl  exclude_names (1) char (32) based;			/* pointed to be cds_args.exclude_array_ptr */
  2    19
  2    20 /* END INCLUDE FILE cds_args.incl.pl1 */
       72
       73 end;
	SOURCE FILES USED IN THIS COMPILATION.

LINE      NUMBER  DATE MODIFIED     NAME			PATHNAME
             0    12/10/84  1044.1  !BBBJPMLHhBdFNH.pl1               >spec>on>7105>gtss_install_values_.cds
70           1    09/09/83  1713.3  gtss_install_values_.incl.pl1     >ldd>include>gtss_install_values_.incl.pl1
72           2    04/01/76  2209.5  cds_args.incl.pl1                 >ldd>include>cds_args.incl.pl1
	NAMES DECLARED IN THIS COMPILATION.

IDENTIFIER	     OFFSET    LOC STORAGE CLASS   DATA TYPE		ATTRIBUTES AND REFERENCES
								(* indicates a set context)

NAMES DECLARED BY DECLARE STATEMENT.
Lstar_msf                11     000151 automatic       varying char(32)         initial level 2 dcl 63 set ref 63*
addr                                                   builtin function         dcl 51 ref 15 20 28
cds_args                               based           structure                level 1 dcl 2-3
cds_args_ptr                    000100 automatic       pointer                  initial dcl 52 set ref 15* 23 24 25 28 29 30 32 33
                                                                                  34 35 36 37 38 39 41* 52*
code                            000102 automatic       fixed bin(35,0)          dcl 53 set ref 41* 42 42*
com_err_                        000012 constant        entry                    external dcl 54 ref 42 45
create_data_segment_            000014 constant        entry                    external dcl 55 ref 41
defs_in_link             44            based           bit(1)                   level 3 packed unaligned dcl 2-3 set ref 35*
exclude_array_ptr        42            based           pointer                  level 2 dcl 2-3 set ref 34*
fast_msf                        000151 automatic       varying char(32)         initial level 2 dcl 63 set ref 63*
gtss_install_values_            000151 automatic       structure                level 1 dcl 63 set ref 20 28 29 45 45
have_static              44(03)        based           bit(1)                   level 3 packed unaligned dcl 2-3 set ref 38*
have_text                44(02)        based           bit(1)                   level 3 packed unaligned dcl 2-3 set ref 37*
len                       2            based           fixed bin(18,0)          array level 3 dcl 2-3 set ref 24* 29*
memory_limit             33     000151 automatic       fixed bin(24,0)          initial level 2 dcl 63 set ref 63*
null                                                   builtin function         dcl 56 ref 20 23 34 52
num_exclude_names        40            based           fixed bin(17,0)          level 2 dcl 2-3 set ref 33*
p                                      based           pointer                  array level 3 dcl 2-3 set ref 23* 28*
pad                      44(04)        based           bit(32)                  level 3 packed unaligned dcl 2-3 set ref 39*
sections                               based           structure                array level 2 dcl 2-3
seg_name                 30            based           char(32)                 level 2 dcl 2-3 set ref 32*
separate_static          44(01)        based           bit(1)                   level 3 packed unaligned dcl 2-3 set ref 36*
size                                                   builtin function         dcl 57 ref 29 45 45
space_for_cds_args              000104 automatic       structure                level 1 dcl 59 set ref 15 16*
starL_msf                22     000151 automatic       varying char(32)         initial level 2 dcl 63 set ref 63*
struct_name               3            based           char(32)                 array level 3 dcl 2-3 set ref 25* 30*
switches                 44            based           structure                level 2 dcl 2-3
time_limit               34     000151 automatic       fixed bin(24,0)          initial level 2 dcl 63 set ref 63*
unspec                                                 builtin function         dcl 58 set ref 16*

NAMES DECLARED BY DECLARE STATEMENT AND NEVER REFERENCED.
exclude_names                          based           char(32)                 array unaligned dcl 2-18
gtss_install_values_$Lstar_msf  000020 external static varying char(32)         dcl 1-10
gtss_install_values_$fast_msf   000016 external static varying char(32)         dcl 1-9
gtss_install_values_$memory_limit
                                000024 external static fixed bin(24,0)          dcl 1-12
gtss_install_values_$starL_msf  000022 external static varying char(32)         dcl 1-11
gtss_install_values_$time_limit 000026 external static fixed bin(24,0)          dcl 1-13

NAME DECLARED BY EXPLICIT CONTEXT.
gtss_install_values_            000056 constant        entry                    external dcl 6

THERE WERE NO NAMES DECLARED BY CONTEXT OR IMPLICATION.

STORAGE REQUIREMENTS FOR THIS PROGRAM.

	Object	Text	Link	Symbol	Defs	Static
Start          0       0       374         424     257         404
Length      1474     257        30        1034     114           0

BLOCK NAME	         STACK SIZE     TYPE		WHY NONQUICK/WHO SHARES STACK FRAME
gtss_install_values_                186 external procedure  is an external procedure.

STORAGE FOR AUTOMATIC VARIABLES.

STACK FRAME                 LOC IDENTIFIER                  BLOCK NAME
gtss_install_values_     000100 cds_args_ptr                gtss_install_values_
                         000102 code                        gtss_install_values_
                         000104 space_for_cds_args          gtss_install_values_
                         000151 gtss_install_values_        gtss_install_values_

THE FOLLOWING EXTERNAL OPERATORS ARE USED BY THIS PROGRAM.
call_ext_out_desc   call_ext_out        return              ext_entry

THE FOLLOWING EXTERNAL ENTRIES ARE CALLED BY THIS PROGRAM.
com_err_                      create_data_segment_

THE FOLLOWING EXTERNAL VARIABLES ARE USED BY THIS PROGRAM.
gtss_install_values_$Lstar_msf                              gtss_install_values_$fast_msf
gtss_install_values_$memory_limit                           gtss_install_values_$starL_msf
gtss_install_values_$time_limit


   LINE    LOC      LINE    LOC      LINE    LOC      LINE    LOC      LINE    LOC      LINE    LOC      LINE    LOC
      6 000055        52 000063        63 000065        15 000107        16 000111        20 000114        23 000122
     24 000124        25 000125        28 000130        29 000132        30 000134        32 000137        33 000142
     34 000143        35 000145        36 000147        37 000151        38 000153        39 000155        41 000157
     42 000167        45 000215        48 000253


Object Segment >spec>on>7105>gtss_install_values_
Created on 12/10/84  1134.6 mst Mon
by GJohnson.SysMaint.m
using create_data_segment_, Version II of Friday, November 30, 1984

        Object    Text    Defs    Link    Symb  Static
Start        0       0       0      62     130      72
Length     317       0      62      46     153      36


7 Definitions:


segname:    gtss_install_values_

link|21         Lstar_msf
link|10         fast_msf
link|43         memory_limit
link|32         starL_msf
symb|0          symbol_table
link|44         time_limit


No Links.


                                          -----------------------------------------------------------


Historical Background

This edition of the Multics software materials and documentation is provided and donated
to Massachusetts Institute of Technology by Group BULL including BULL HN Information Systems Inc.
as a contribution to computer science knowledge.
This donation is made also to give evidence of the common contributions of Massachusetts Institute of Technology,
Bell Laboratories, General Electric, Honeywell Information Systems Inc., Honeywell BULL Inc., Groupe BULL
and BULL HN Information Systems Inc. to the development of this operating system.
Multics development was initiated by Massachusetts Institute of Technology Project MAC (1963-1970),
renamed the MIT Laboratory for Computer Science and Artificial Intelligence in the mid 1970s, under the leadership
of Professor Fernando Jose Corbato. Users consider that Multics provided the best software architecture
for managing computer hardware properly and for executing programs. Many subsequent operating systems
incorporated Multics principles.
Multics was distributed in 1975 to 2000 by Group Bull in Europe , and in the U.S. by Bull HN Information Systems Inc.,
as successor in interest by change in name only to Honeywell Bull Inc. and Honeywell Information Systems Inc. .

                                          -----------------------------------------------------------

Permission to use, copy, modify, and distribute these programs and their documentation for any purpose and without
fee is hereby granted,provided that the below copyright notice and historical background appear in all copies
and that both the copyright notice and historical background and this permission notice appear in supporting
documentation, and that the names of MIT, HIS, BULL or BULL HN not be used in advertising or publicity pertaining
to distribution of the programs without specific prior written permission.
    Copyright 1972 by Massachusetts Institute of Technology and Honeywell Information Systems Inc.
    Copyright 2006 by BULL HN Information Systems Inc.
    Copyright 2006 by Bull SAS
    All Rights Reserved
