	COMPILATION LISTING OF SEGMENT gtss_drl_sysret_
	Compiled by: Multics PL/I Compiler, Release 28d, of October 4, 1983
	Compiled at: Honeywell Multics Op. - System M
	Compiled on: 12/10/84  1248.7 mst Mon
	    Options: optimize map

        1 /* ***********************************************************
        2*   *                                                         *
        3*   *                                                         *
        4*   * Copyright, (C) Honeywell Information Systems Inc., 1981 *
        5*   *                                                         *
        6*   *                                                         *
        7*   *********************************************************** */
        8
        9 /* *************************************************************
       10*   *						   *
       11*   * Copyright (c) 1979 by Honeywell Information Systems, Inc. *
       12*   *						   *
       13*   ************************************************************* */
       14 gtss_drl_sysret_: proc (mcpp, increment);
       15
       16 /*
       17*
       18*   Authors: Robert J. Grimes	Created
       19*   -	  Albert N. Kepner	  1978
       20*   -	  Robert M. May
       21*   -	  David B. Ward
       22*   Changed: Dave Ward	03/27/79 abandon.
       23*   * */
       24 dcl  mcpp ptr parm;
       25 dcl  increment fixed bin parm;
       26
       27 /* *
       28*
       29*   DRL SYSRET, RETURN TO SYSTEM (octal 40)
       30*
       31*
       32*   8_________1_6_____________________
       33*
       34*   DRL      SYSRET
       35*
       36*   (See TSS SYSTEM PROGRAMMER'S
       37*   REFERENCE MANUAL DD17C, Rev. 0, July 1977
       38*   Page 3-27)
       39*
       40**/
       41 
       42 	call gtss_abandon_CFP_;
       43
       44 /* The following call does not return. The sysret entry point causes
       45*   the process stack to be unwound to the first invocation of
       46*   the primitive interpreter. */
       47 	call gtss_interp_prim_$sysret ();
       48
       49 
  1     1 /* BEGIN INCLUDE FILE gtss_entry_dcls.incl.pl1 */
  1     2 /*
  1     3*  Created: (Wardd Multics)  06/30/78 1624.8 mst Fri
  1     4*  Modified: Ron Barstad  84-02-24  Fixed wrong and obsolete entries
  1     5**/
  1     6
  1     7 /**  gtss external entry variables.		**/
  1     8 dcl  com_err_                                   entry() options(variable);
  1     9 dcl  gtss_CFP_abort_                            entry options(variable);
  1    10 dcl  gtss_CFP_break_                            entry options(variable);
  1    11 dcl  gtss_CFP_input_                            entry (ptr, ptr, fixed bin(21), fixed bin(21), fixed bin(35));
  1    12 dcl  gtss_CFP_output_                           entry (ptr, ptr, fixed bin(21), fixed bin(35));
  1    13 dcl  gtss_abandon_CFP_                          entry options(variable);
  1    14 dcl  gtss_abort_dump_                           entry (fixed bin(18));
  1    15 dcl  gtss_abort_subsystem_                      entry options (variable);
  1    16 dcl  gtss_abort_subsystem_$not_imp              entry (ptr, fixed bin(24));
  1    17 dcl  gtss_abs_login_banner_		        entry() returns(char(*));
  1    18 dcl  gtss_abs_logout_banner_		        entry() returns(char(*));
  1    19 dcl  gtss_abs_$abs_equiv                        entry options(variable);
  1    20 dcl  gtss_abs_$cpu_runout		        entry (ptr, char(4));
  1    21 dcl  gtss_abs_$create_absin                     entry() returns(char(*));
  1    22 dcl  gtss_abs_$dabt_check		        entry (ptr, char(4));
  1    23 dcl  gtss_abs_$get_id                           entry (char(5)) returns(char(19));
  1    24 dcl  gtss_abs_$get_drm                          entry() returns(char(*));
  1    25 dcl  gtss_adjust_size_                          entry (ptr);
  1    26 dcl  gtss_aft_$add                              entry (char(8), fixed bin(24), fixed bin(35));
  1    27 dcl  gtss_aft_$delete                           entry (char(8), fixed bin(24), fixed bin(35));
  1    28 dcl  gtss_aft_$find                             entry (char(8), fixed bin(24), fixed bin(35));
  1    29 dcl  gtss_aft_$initialize                       entry (fixed bin(35));
  1    30 dcl  gtss_ascii_bcd_                            entry (ptr, fixed bin, ptr);
  1    31 dcl  gtss_attributes_mgr_$get                   entry (ptr, fixed bin(35));
  1    32 dcl  gtss_attributes_mgr_$set                   entry (ptr, fixed bin(35));
  1    33 dcl  gtss_bcd_ascii_                            entry (ptr, fixed bin(24), ptr);
  1    34 dcl  gtss_bcd_ascii_$lc                         entry (ptr, fixed bin(24), ptr);
  1    35 dcl  gtss_break_vector_                         entry ();
  1    36 dcl  gtss_break_vector_$drl_in_progress         entry() returns(bit(1));
  1    37 dcl  gtss_break_vector_$status                  entry() returns(bit(1));
  1    38 dcl  gtss_build_                                entry options(variable);
  1    39 dcl  gtss_com_err_                              entry options(variable);
  1    40 dcl  gtss_derail_processor_                     entry (ptr, char(*), ptr, ptr, bit(1) aligned) /* called at fault time instead of signal_ */;
  1    41 dcl  gtss_derail_processor_$set                 entry options(variable);
  1    42 dcl  gtss_dq_$catp                              entry (char (5), ptr, fixed bin (18) unsigned);
  1    43 dcl  gtss_dq_$create                            entry (bit(1));
  1    44 dcl  gtss_dq_$dibp                              entry (char(5), ptr);
  1    45 dcl  gtss_dq_$entries_info		        entry (ptr, fixed bin (18) unsigned, fixed bin (18) unsigned);
  1    46 dcl  gtss_dq_$hdrp                              entry (ptr);
  1    47 dcl  gtss_dq_$mod_js		        entry (char(5), fixed bin (6) unsigned, bit (1));
  1    48 dcl  gtss_dq_$open_exc		        entry (bit(1));
  1    49 dcl  gtss_dq_$open_gen		        entry (bit(1));
  1    50 dcl  gtss_drl_abort_                            entry (ptr, fixed bin);
  1    51 dcl  gtss_drl_addmem_                           entry (ptr, fixed bin);
  1    52 dcl  gtss_drl_callss_                           entry (ptr, fixed bin);
  1    53 dcl  gtss_drl_corfil_                           entry (ptr, fixed bin);
  1    54 dcl  gtss_drl_defil_                            entry (ptr, fixed bin);
  1    55 dcl  gtss_drl_defil_$subr                       entry (ptr, ptr, ptr);
  1    56 dcl  gtss_drl_dio_                              entry (ptr, fixed bin);
  1    57 dcl  gtss_drl_drlimt_                           entry (ptr, fixed bin);
  1    58 dcl  gtss_drl_drlsav_                           entry (ptr, fixed bin);
  1    59 dcl  gtss_drl_filact_                           entry (ptr, fixed bin);
  1    60 dcl  gtss_drl_filsp_                            entry (ptr, fixed bin);
  1    61 dcl  gtss_drl_grow_                             entry (ptr, fixed bin);
  1    62 dcl  gtss_drl_gwake_                            entry (ptr, fixed bin);
  1    63 dcl  gtss_drl_jsts_                             entry (ptr, fixed bin);
  1    64 dcl  gtss_drl_kin_                              entry (ptr, fixed bin);
  1    65 dcl  gtss_drl_kotnow_                           entry (ptr, fixed bin);
  1    66 dcl  gtss_drl_kotnow_$gtss_drl_kout_            entry (ptr, fixed bin);
  1    67 dcl  gtss_drl_koutn_                            entry (ptr, fixed bin);
  1    68 dcl  gtss_drl_morlnk_                           entry (ptr, fixed bin);
  1    69 dcl  gtss_drl_msub_                             entry (ptr, fixed bin);
  1    70 dcl  gtss_drl_objtim_                           entry (ptr, fixed bin);
  1    71 dcl  gtss_drl_part_                             entry (ptr, fixed bin);
  1    72 dcl  gtss_drl_pasaft_                           entry (ptr, fixed bin);
  1    73 dcl  gtss_drl_pasdes_                           entry (ptr, fixed bin);
  1    74 dcl  gtss_drl_pasust_                           entry (ptr, fixed bin);
  1    75 dcl  gtss_drl_pdio_                             entry (ptr, fixed bin);
  1    76 dcl  gtss_drl_prgdes_                           entry (ptr, fixed bin);
  1    77 dcl  gtss_drl_pseudo_                           entry (ptr, fixed bin);
  1    78 dcl  gtss_drl_relmem_                           entry (ptr, fixed bin);
  1    79 dcl  gtss_drl_restor_                           entry (ptr, fixed bin);
  1    80 dcl  gtss_drl_retfil_                           entry (ptr, fixed bin);
  1    81 dcl  gtss_drl_return_                           entry (ptr, fixed bin);
  1    82 dcl  gtss_drl_rew_                              entry (ptr, fixed bin);
  1    83 dcl  gtss_drl_rstswh_                           entry (ptr, fixed bin);
  1    84 dcl  gtss_drl_setlno_                           entry (ptr, fixed bin);
  1    85 dcl  gtss_drl_setswh_                           entry (ptr, fixed bin);
  1    86 dcl  gtss_drl_snumb_                            entry (ptr, fixed bin);
  1    87 dcl  gtss_drl_spawn_                            entry (ptr, fixed bin);
  1    88 dcl  gtss_drl_spawn_$gtss_drl_pasflr_           entry (ptr, fixed bin);
  1    89 dcl  gtss_drl_stoppt_                           entry (ptr, fixed bin);
  1    90 dcl  gtss_drl_switch_                           entry (ptr, fixed bin);
  1    91 dcl  gtss_drl_sysret_                           entry (ptr, fixed bin);
  1    92 dcl  gtss_drl_t_cfio_                           entry (ptr, fixed bin);
  1    93 dcl  gtss_drl_t_cmov_                           entry (ptr, fixed bin);
  1    94 dcl  gtss_drl_t_err_                            entry (ptr, fixed bin);
  1    95 dcl  gtss_drl_t_goto_                           entry (ptr, fixed bin);
  1    96 dcl  gtss_drl_t_linl_                           entry (ptr, fixed bin);
  1    97 dcl  gtss_drl_t_rscc_                           entry (ptr, fixed bin);
  1    98 dcl  gtss_drl_tapein_                           entry (ptr, fixed bin);
  1    99 dcl  gtss_drl_task_                             entry (ptr, fixed bin);
  1   100 dcl  gtss_drl_termtp_                           entry (ptr, fixed bin);
  1   101 dcl  gtss_drl_time_                             entry (ptr, fixed bin);
  1   102 dcl  gtss_drun_                                 entry (bit(1));
  1   103 dcl  gtss_dsd_lookup_                           entry (char(8) var) returns(fixed bin(24));
  1   104 dcl  gtss_dsd_process_                          entry (ptr, ptr, fixed bin(21), fixed bin(21), fixed bin(35));
  1   105 dcl  gtss_edit_dsd_                             entry (ptr, fixed bin(21)) returns(fixed bin(24));
  1   106 dcl  gtss_mcfc_empty                            entry (char(*) var);
  1   107 dcl  gtss_expand_pathname_                      entry (ptr, char(*), char(*), fixed bin(35));
  1   108 dcl  gtss_expand_pathname_$verify_umc           entry (ptr, char(*), char(*), bit(18), fixed bin(35));
  1   109 dcl  gtss_fault_processor_                      entry options(variable);
  1   110 dcl  gtss_find_cond_frame_		        entry (char(32) var) returns(ptr);
  1   111 dcl  gtss_fault_processor_$timer_runout         entry (ptr, char(*));
  1   112 dcl  gtss_filact_error_status_                  entry (fixed bin(35))returns(bit(12));
  1   113 dcl  gtss_filact_funct02_                       entry (ptr, bit(18), ptr, ptr, ptr, fixed bin(35));
  1   114 dcl  gtss_filact_funct03_                       entry (ptr, bit(18), ptr, ptr, ptr, fixed bin(35));
  1   115 dcl  gtss_filact_funct04_                       entry (ptr, bit(18), ptr, ptr, ptr, fixed bin(35));
  1   116 dcl  gtss_filact_funct05_                       entry (ptr, bit(18), ptr, ptr, ptr, fixed bin(35));
  1   117 dcl  gtss_filact_funct08_                       entry (ptr, bit(18), ptr, ptr, ptr, fixed bin(35));
  1   118 dcl  gtss_filact_funct10_                       entry (ptr, bit(18), ptr, ptr, ptr, fixed bin(35));
  1   119 dcl  gtss_filact_funct11_                       entry (ptr, bit(18), ptr, ptr, ptr, fixed bin(35));
  1   120 dcl  gtss_filact_funct14_                       entry (ptr, bit(18), ptr, ptr, ptr, fixed bin(35));
  1   121 dcl  gtss_filact_funct18_                       entry (ptr, bit(18), ptr, ptr, ptr, fixed bin(35));
  1   122 dcl  gtss_filact_funct19_                       entry (ptr, bit(18), ptr, ptr, ptr, fixed bin(35));
  1   123 dcl  gtss_filact_funct21_                       entry (ptr, bit(18), ptr, ptr, ptr, fixed bin(35));
  1   124 dcl  gtss_filact_funct22_                       entry (ptr, bit(18), ptr, ptr, ptr, fixed bin(35));
  1   125 dcl  gtss_mcfc_init_                            entry (char(*) var);
  1   126 dcl  gtss_interp_prim_                          entry options(variable);
  1   127 dcl  gtss_interp_prim_$callss                   entry (char(4), ptr);
  1   128 dcl  gtss_interp_prim_$sysret                   entry options(variable);
  1   129 dcl  gtss_interp_prim_$t_goto                   entry (char(4));
  1   130 dcl  gtss_ios_change_size_                      entry (fixed bin(24), fixed bin(24), bit(1), fixed bin(24), fixed bin(35));
  1   131 dcl  gtss_ios_close_                            entry (fixed bin(24), ptr, fixed bin(35));
  1   132 dcl  gtss_ios_exchange_names_                   entry (fixed bin(24), fixed bin(24), fixed bin(24), fixed bin(35));
  1   133 dcl  gtss_ios_initialize_                       entry options(variable);
  1   134 dcl  gtss_ios_io_                               entry (fixed bin(24), ptr, ptr, fixed bin(24), fixed bin(24), fixed bin(35));
  1   135 dcl  gtss_ios_open_                             entry (fixed bin(24), char(168), char(32), bit(6), bit(1), ptr, ptr, fixed bin(35));
  1   136 dcl  gtss_ios_position_                         entry (fixed bin(24), fixed bin(24), fixed bin(24), bit(6), ptr);
  1   137 dcl  gtss_mcfc_$delete		        entry (fixed bin(24), char(*), char(*), bit(36) aligned, ptr, fixed bin(35));
  1   138 dcl  gtss_mcfc_$open                            entry (char(*), char(*), bit(6), bit(36) aligned, ptr, fixed bin(35));
  1   139 dcl  gtss_mcfc_$close                           entry (char(*), char(*), bit(36) aligned, ptr, fixed bin(35));
  1   140 dcl  gtss_read_starCFP_                         entry (ptr, ptr, fixed bin(21), fixed bin(21), fixed bin(35));
  1   141 dcl  gtss_read_starCFP_$last_os                 entry (ptr, ptr, fixed bin(21), fixed bin(21), fixed bin(35));
  1   142 dcl  gtss_run_subsystem_                        entry (fixed bin(24));
  1   143 dcl  gtss_run_subsystem_$finish                 entry options(variable);
  1   144 dcl  gtss_run_subsystem_$restor                 entry (fixed bin(24), ptr);
  1   145 dcl  gtss_run_subsystem_$restor_perm            entry (fixed bin(24), ptr, fixed bin(18));
  1   146 dcl  gtss_set_slave_                            entry (fixed bin (24), ptr);
  1   147 dcl  gtss_set_slave_$load_bar                   entry (fixed bin (17));
  1   148 dcl  gtss_update_safe_store_                    entry (ptr);
  1   149 dcl  gtss_verify_access_		        entry (char(*), char(*), fixed bin(24), bit(6), bit(12) aligned);
  1   150 dcl  gtss_verify_access_$check_forced_access    entry (char(*), char(*), fixed bin(24));
  1   151 dcl  gtss_write_starCFP_                        entry (ptr, ptr, fixed bin(21), fixed bin(35));
  1   152 /*   END INCLUDE FILE gtss_entry_dcls.incl.pl1 */
       50
       51      end gtss_drl_sysret_;
	SOURCE FILES USED IN THIS COMPILATION.

LINE      NUMBER  DATE MODIFIED     NAME			PATHNAME
             0    12/10/84  1043.5  gtss_drl_sysret_.pl1              >spec>on>7105>gtss_drl_sysret_.pl1
50           1    12/10/84  1029.7  gtss_entry_dcls.incl.pl1          >spec>on>7105>gtss_entry_dcls.incl.pl1
	NAMES DECLARED IN THIS COMPILATION.

IDENTIFIER	     OFFSET    LOC STORAGE CLASS   DATA TYPE		ATTRIBUTES AND REFERENCES
								(* indicates a set context)

NAMES DECLARED BY DECLARE STATEMENT.
gtss_abandon_CFP_               000010 constant        entry                    external dcl 1-13 ref 42
gtss_interp_prim_$sysret        000012 constant        entry                    external dcl 1-128 ref 47
increment                              parameter       fixed bin(17,0)          dcl 25 ref 14
mcpp                                   parameter       pointer                  dcl 24 ref 14

NAMES DECLARED BY DECLARE STATEMENT AND NEVER REFERENCED.
com_err_                        000000 constant        entry                    external dcl 1-8
gtss_CFP_abort_                 000000 constant        entry                    external dcl 1-9
gtss_CFP_break_                 000000 constant        entry                    external dcl 1-10
gtss_CFP_input_                 000000 constant        entry                    external dcl 1-11
gtss_CFP_output_                000000 constant        entry                    external dcl 1-12
gtss_abort_dump_                000000 constant        entry                    external dcl 1-14
gtss_abort_subsystem_           000000 constant        entry                    external dcl 1-15
gtss_abort_subsystem_$not_imp   000000 constant        entry                    external dcl 1-16
gtss_abs_$abs_equiv             000000 constant        entry                    external dcl 1-19
gtss_abs_$cpu_runout            000000 constant        entry                    external dcl 1-20
gtss_abs_$create_absin          000000 constant        entry                    external dcl 1-21
gtss_abs_$dabt_check            000000 constant        entry                    external dcl 1-22
gtss_abs_$get_drm               000000 constant        entry                    external dcl 1-24
gtss_abs_$get_id                000000 constant        entry                    external dcl 1-23
gtss_abs_login_banner_          000000 constant        entry                    external dcl 1-17
gtss_abs_logout_banner_         000000 constant        entry                    external dcl 1-18
gtss_adjust_size_               000000 constant        entry                    external dcl 1-25
gtss_aft_$add                   000000 constant        entry                    external dcl 1-26
gtss_aft_$delete                000000 constant        entry                    external dcl 1-27
gtss_aft_$find                  000000 constant        entry                    external dcl 1-28
gtss_aft_$initialize            000000 constant        entry                    external dcl 1-29
gtss_ascii_bcd_                 000000 constant        entry                    external dcl 1-30
gtss_attributes_mgr_$get        000000 constant        entry                    external dcl 1-31
gtss_attributes_mgr_$set        000000 constant        entry                    external dcl 1-32
gtss_bcd_ascii_                 000000 constant        entry                    external dcl 1-33
gtss_bcd_ascii_$lc              000000 constant        entry                    external dcl 1-34
gtss_break_vector_              000000 constant        entry                    external dcl 1-35
gtss_break_vector_$drl_in_progress
                                000000 constant        entry                    external dcl 1-36
gtss_break_vector_$status       000000 constant        entry                    external dcl 1-37
gtss_build_                     000000 constant        entry                    external dcl 1-38
gtss_com_err_                   000000 constant        entry                    external dcl 1-39
gtss_derail_processor_          000000 constant        entry                    external dcl 1-40
gtss_derail_processor_$set      000000 constant        entry                    external dcl 1-41
gtss_dq_$catp                   000000 constant        entry                    external dcl 1-42
gtss_dq_$create                 000000 constant        entry                    external dcl 1-43
gtss_dq_$dibp                   000000 constant        entry                    external dcl 1-44
gtss_dq_$entries_info           000000 constant        entry                    external dcl 1-45
gtss_dq_$hdrp                   000000 constant        entry                    external dcl 1-46
gtss_dq_$mod_js                 000000 constant        entry                    external dcl 1-47
gtss_dq_$open_exc               000000 constant        entry                    external dcl 1-48
gtss_dq_$open_gen               000000 constant        entry                    external dcl 1-49
gtss_drl_abort_                 000000 constant        entry                    external dcl 1-50
gtss_drl_addmem_                000000 constant        entry                    external dcl 1-51
gtss_drl_callss_                000000 constant        entry                    external dcl 1-52
gtss_drl_corfil_                000000 constant        entry                    external dcl 1-53
gtss_drl_defil_                 000000 constant        entry                    external dcl 1-54
gtss_drl_defil_$subr            000000 constant        entry                    external dcl 1-55
gtss_drl_dio_                   000000 constant        entry                    external dcl 1-56
gtss_drl_drlimt_                000000 constant        entry                    external dcl 1-57
gtss_drl_drlsav_                000000 constant        entry                    external dcl 1-58
gtss_drl_filact_                000000 constant        entry                    external dcl 1-59
gtss_drl_filsp_                 000000 constant        entry                    external dcl 1-60
gtss_drl_grow_                  000000 constant        entry                    external dcl 1-61
gtss_drl_gwake_                 000000 constant        entry                    external dcl 1-62
gtss_drl_jsts_                  000000 constant        entry                    external dcl 1-63
gtss_drl_kin_                   000000 constant        entry                    external dcl 1-64
gtss_drl_kotnow_                000000 constant        entry                    external dcl 1-65
gtss_drl_kotnow_$gtss_drl_kout_ 000000 constant        entry                    external dcl 1-66
gtss_drl_koutn_                 000000 constant        entry                    external dcl 1-67
gtss_drl_morlnk_                000000 constant        entry                    external dcl 1-68
gtss_drl_msub_                  000000 constant        entry                    external dcl 1-69
gtss_drl_objtim_                000000 constant        entry                    external dcl 1-70
gtss_drl_part_                  000000 constant        entry                    external dcl 1-71
gtss_drl_pasaft_                000000 constant        entry                    external dcl 1-72
gtss_drl_pasdes_                000000 constant        entry                    external dcl 1-73
gtss_drl_pasust_                000000 constant        entry                    external dcl 1-74
gtss_drl_pdio_                  000000 constant        entry                    external dcl 1-75
gtss_drl_prgdes_                000000 constant        entry                    external dcl 1-76
gtss_drl_pseudo_                000000 constant        entry                    external dcl 1-77
gtss_drl_relmem_                000000 constant        entry                    external dcl 1-78
gtss_drl_restor_                000000 constant        entry                    external dcl 1-79
gtss_drl_retfil_                000000 constant        entry                    external dcl 1-80
gtss_drl_return_                000000 constant        entry                    external dcl 1-81
gtss_drl_rew_                   000000 constant        entry                    external dcl 1-82
gtss_drl_rstswh_                000000 constant        entry                    external dcl 1-83
gtss_drl_setlno_                000000 constant        entry                    external dcl 1-84
gtss_drl_setswh_                000000 constant        entry                    external dcl 1-85
gtss_drl_snumb_                 000000 constant        entry                    external dcl 1-86
gtss_drl_spawn_                 000000 constant        entry                    external dcl 1-87
gtss_drl_spawn_$gtss_drl_pasflr_
                                000000 constant        entry                    external dcl 1-88
gtss_drl_stoppt_                000000 constant        entry                    external dcl 1-89
gtss_drl_switch_                000000 constant        entry                    external dcl 1-90
gtss_drl_sysret_                000000 constant        entry                    external dcl 1-91
gtss_drl_t_cfio_                000000 constant        entry                    external dcl 1-92
gtss_drl_t_cmov_                000000 constant        entry                    external dcl 1-93
gtss_drl_t_err_                 000000 constant        entry                    external dcl 1-94
gtss_drl_t_goto_                000000 constant        entry                    external dcl 1-95
gtss_drl_t_linl_                000000 constant        entry                    external dcl 1-96
gtss_drl_t_rscc_                000000 constant        entry                    external dcl 1-97
gtss_drl_tapein_                000000 constant        entry                    external dcl 1-98
gtss_drl_task_                  000000 constant        entry                    external dcl 1-99
gtss_drl_termtp_                000000 constant        entry                    external dcl 1-100
gtss_drl_time_                  000000 constant        entry                    external dcl 1-101
gtss_drun_                      000000 constant        entry                    external dcl 1-102
gtss_dsd_lookup_                000000 constant        entry                    external dcl 1-103
gtss_dsd_process_               000000 constant        entry                    external dcl 1-104
gtss_edit_dsd_                  000000 constant        entry                    external dcl 1-105
gtss_expand_pathname_           000000 constant        entry                    external dcl 1-107
gtss_expand_pathname_$verify_umc
                                000000 constant        entry                    external dcl 1-108
gtss_fault_processor_           000000 constant        entry                    external dcl 1-109
gtss_fault_processor_$timer_runout
                                000000 constant        entry                    external dcl 1-111
gtss_filact_error_status_       000000 constant        entry                    external dcl 1-112
gtss_filact_funct02_            000000 constant        entry                    external dcl 1-113
gtss_filact_funct03_            000000 constant        entry                    external dcl 1-114
gtss_filact_funct04_            000000 constant        entry                    external dcl 1-115
gtss_filact_funct05_            000000 constant        entry                    external dcl 1-116
gtss_filact_funct08_            000000 constant        entry                    external dcl 1-117
gtss_filact_funct10_            000000 constant        entry                    external dcl 1-118
gtss_filact_funct11_            000000 constant        entry                    external dcl 1-119
gtss_filact_funct14_            000000 constant        entry                    external dcl 1-120
gtss_filact_funct18_            000000 constant        entry                    external dcl 1-121
gtss_filact_funct19_            000000 constant        entry                    external dcl 1-122
gtss_filact_funct21_            000000 constant        entry                    external dcl 1-123
gtss_filact_funct22_            000000 constant        entry                    external dcl 1-124
gtss_find_cond_frame_           000000 constant        entry                    external dcl 1-110
gtss_interp_prim_               000000 constant        entry                    external dcl 1-126
gtss_interp_prim_$callss        000000 constant        entry                    external dcl 1-127
gtss_interp_prim_$t_goto        000000 constant        entry                    external dcl 1-129
gtss_ios_change_size_           000000 constant        entry                    external dcl 1-130
gtss_ios_close_                 000000 constant        entry                    external dcl 1-131
gtss_ios_exchange_names_        000000 constant        entry                    external dcl 1-132
gtss_ios_initialize_            000000 constant        entry                    external dcl 1-133
gtss_ios_io_                    000000 constant        entry                    external dcl 1-134
gtss_ios_open_                  000000 constant        entry                    external dcl 1-135
gtss_ios_position_              000000 constant        entry                    external dcl 1-136
gtss_mcfc_$close                000000 constant        entry                    external dcl 1-139
gtss_mcfc_$delete               000000 constant        entry                    external dcl 1-137
gtss_mcfc_$open                 000000 constant        entry                    external dcl 1-138
gtss_mcfc_empty                 000000 constant        entry                    external dcl 1-106
gtss_mcfc_init_                 000000 constant        entry                    external dcl 1-125
gtss_read_starCFP_              000000 constant        entry                    external dcl 1-140
gtss_read_starCFP_$last_os      000000 constant        entry                    external dcl 1-141
gtss_run_subsystem_             000000 constant        entry                    external dcl 1-142
gtss_run_subsystem_$finish      000000 constant        entry                    external dcl 1-143
gtss_run_subsystem_$restor      000000 constant        entry                    external dcl 1-144
gtss_run_subsystem_$restor_perm 000000 constant        entry                    external dcl 1-145
gtss_set_slave_                 000000 constant        entry                    external dcl 1-146
gtss_set_slave_$load_bar        000000 constant        entry                    external dcl 1-147
gtss_update_safe_store_         000000 constant        entry                    external dcl 1-148
gtss_verify_access_             000000 constant        entry                    external dcl 1-149
gtss_verify_access_$check_forced_access
                                000000 constant        entry                    external dcl 1-150
gtss_write_starCFP_             000000 constant        entry                    external dcl 1-151

NAME DECLARED BY EXPLICIT CONTEXT.
gtss_drl_sysret_                000012 constant        entry                    external dcl 14

THERE WERE NO NAMES DECLARED BY CONTEXT OR IMPLICATION.

STORAGE REQUIREMENTS FOR THIS PROGRAM.

	Object	Text	Link	Symbol	Defs	Static
Start          0       0       102         116      31         112
Length       300      31        14         146      50           0

BLOCK NAME	         STACK SIZE     TYPE		WHY NONQUICK/WHO SHARES STACK FRAME
gtss_drl_sysret_                     64 external procedure  is an external procedure.

THE FOLLOWING EXTERNAL OPERATORS ARE USED BY THIS PROGRAM.
call_ext_out        return              ext_entry

THE FOLLOWING EXTERNAL ENTRIES ARE CALLED BY THIS PROGRAM.
gtss_abandon_CFP_             gtss_interp_prim_$sysret

NO EXTERNAL VARIABLES ARE USED BY THIS PROGRAM.


   LINE    LOC      LINE    LOC      LINE    LOC      LINE    LOC      LINE    LOC      LINE    LOC      LINE    LOC
     14 000006        42 000017        47 000023        51 000030


                                          -----------------------------------------------------------


Historical Background

This edition of the Multics software materials and documentation is provided and donated
to Massachusetts Institute of Technology by Group BULL including BULL HN Information Systems Inc.
as a contribution to computer science knowledge.
This donation is made also to give evidence of the common contributions of Massachusetts Institute of Technology,
Bell Laboratories, General Electric, Honeywell Information Systems Inc., Honeywell BULL Inc., Groupe BULL
and BULL HN Information Systems Inc. to the development of this operating system.
Multics development was initiated by Massachusetts Institute of Technology Project MAC (1963-1970),
renamed the MIT Laboratory for Computer Science and Artificial Intelligence in the mid 1970s, under the leadership
of Professor Fernando Jose Corbato. Users consider that Multics provided the best software architecture
for managing computer hardware properly and for executing programs. Many subsequent operating systems
incorporated Multics principles.
Multics was distributed in 1975 to 2000 by Group Bull in Europe , and in the U.S. by Bull HN Information Systems Inc.,
as successor in interest by change in name only to Honeywell Bull Inc. and Honeywell Information Systems Inc. .

                                          -----------------------------------------------------------

Permission to use, copy, modify, and distribute these programs and their documentation for any purpose and without
fee is hereby granted,provided that the below copyright notice and historical background appear in all copies
and that both the copyright notice and historical background and this permission notice appear in supporting
documentation, and that the names of MIT, HIS, BULL or BULL HN not be used in advertising or publicity pertaining
to distribution of the programs without specific prior written permission.
    Copyright 1972 by Massachusetts Institute of Technology and Honeywell Information Systems Inc.
    Copyright 2006 by BULL HN Information Systems Inc.
    Copyright 2006 by Bull SAS
    All Rights Reserved
