	COMPILATION LISTING OF SEGMENT gtss_drl_switch_
	Compiled by: Multics PL/I Compiler, Release 28d, of October 4, 1983
	Compiled at: Honeywell Multics Op. - System M
	Compiled on: 12/10/84  1248.1 mst Mon
	    Options: optimize map

        1 /* ***********************************************************
        2*   *                                                         *
        3*   *                                                         *
        4*   * Copyright, (C) Honeywell Information Systems Inc., 1981 *
        5*   *                                                         *
        6*   *                                                         *
        7*   *********************************************************** */
        8
        9 /* *************************************************************
       10*   *						   *
       11*   * Copyright (c) 1979 by Honeywell Information Systems, Inc. *
       12*   *						   *
       13*   ************************************************************* */
       14 gtss_drl_switch_: proc (mcpp, increment);
       15
       16 /* *	gtss exchange two temp files.
       17*
       18*   Authors: Robert J. Grimes	Created
       19*   -	  Albert N. Kepner	  1978
       20*   -	  Robert M. May
       21*   -	  David B. Ward
       22*   Change:  Dave Ward	03/28/79 Added aborts, debug code.
       23*   * */
       24 dcl  mcpp ptr parm;
       25 dcl  increment fixed bin parm;
       26 	mcp = mcpp;
       27
       28 /* *
       29*
       30*   DRL SWITCH, SWITCH TEMPORARY FILE NAMES (octal 53)
       31*
       32*
       33*   8_________1_6_____________________
       34*
       35*   DRL      SWITCH
       36*   ZERO     L(fileid1),L(fileid2)
       37*   Error return location.
       38*   Successful return location.
       39*
       40*   (See TSS SYSTEM PROGRAMMER'S
       41*   REFERENCE MANUAL DD17B, Rev. 0, July 1976
       42*   Page 3-54)
       43*
       44**/
       45 dcl  arg_ptr ptr init(null());
       46
       47 dcl 1 arglist aligned based (arg_ptr),
       48     2 file_id_1 fixed bin (18) unsigned unaligned,
       49     2 file_id_2 fixed bin (18) unsigned unaligned;
       50
       51 dcl  file_id_1_ptr ptr init(null());
       52
       53 dcl  file_id_1_name char (8) based (file_id_1_ptr);
       54
       55 dcl  file_id_2_ptr ptr init(null());
       56
       57 dcl  file_id_2_name char (8) based (file_id_2_ptr);
       58
       59 dcl  status fixed bin (24);
       60 dcl  code fixed bin (35);
       61
       62 dcl  file_no_1 fixed bin (24);
       63 dcl  file_no_2 fixed bin (24);
       64
       65 dcl  gseg ptr init(null());
       66
       67 dcl 1 T aligned like gtss_file_attributes;
       68 
       69
       70 /*		P R O C E D U R E 			*/
       71
       72
       73 	scup = addr (mc.scu);			/* get the system conditions */
       74
       75 	increment = 1;				/* set up for possible error */
       76
       77 	mc.regs.a = "0"b;				/* set up for error possiblity */
       78
       79 	gseg = gtss_ext_$gtss_slave_area_seg (gtss_ext_$stack_level_); /* save pointer to this segment */
       80
       81 /* Check for arguments out of bounds. */
       82 	if (fixed (scu.ilc, 18)+2) >= fixed (gtss_ust.lsize.limit, 18) then
       83 	     call gtss_abort_subsystem_ (
       84 	     mcp,
       85 	     "gtss_drl_switch_",
       86 	     4,
       87 	     gtss_pnterr.err4,
       88 	     fixed (scu.ilc, 18));
       89
       90 	arg_ptr = addrel (gseg, fixed (scu.ilc) + 1);	/* wrap pointer around the arguments */
       91
       92 /* Check for arguments out of bounds. */
       93 	if (arglist.file_id_1+1) > fixed (gtss_ust.lsize.limit, 18) then
       94 	     call gtss_abort_subsystem_ (
       95 	     mcp,
       96 	     "gtss_drl_switch_",
       97 	     4,
       98 	     gtss_pnterr.err4,
       99 	     fixed (scu.ilc, 18));
      100
      101 /* Check for arguments out of bounds. */
      102 	if (arglist.file_id_2+1) > fixed (gtss_ust.lsize.limit, 18) then
      103 	     call gtss_abort_subsystem_ (
      104 	     mcp,
      105 	     "gtss_drl_switch_",
      106 	     4,
      107 	     gtss_pnterr.err4,
      108 	     fixed (scu.ilc, 18));
      109
      110 	file_id_1_ptr = addrel (gseg, arglist.file_id_1);
      111 	file_id_2_ptr = addrel (gseg, arglist.file_id_2);
      112
      113 	call gtss_aft_$find (file_id_1_name, file_no_1, code);
      114 	if code ^= 0 then
      115 	     call gtss_abort_subsystem_ (
      116 	     mcp
      117 	     , 0
      118 	     , "1st name ""^a"" not in aft."
      119 	     , file_id_1_name
      120 	     );
      121
      122 	call gtss_aft_$find (file_id_2_name, file_no_2, code);
      123 	if code ^= 0 then
      124 	     call gtss_abort_subsystem_ (
      125 	     mcp
      126 	     , 0
      127 	     , "2nd name ""^a"" not in aft."
      128 	     , file_id_2_name
      129 	     );
      130
      131 	call gtss_ios_exchange_names_ (file_no_1, file_no_2, status, code);
      132 	if status = 13 then mc.regs.a = (36)"1"b;	/* => Exchanging perm file. */
      133 	else
      134 	if status = 14 then do;			/* => file not open. */
      135 	     call com_err_ (0, "gtss_drl_switch_",
      136 		"File not open but in aft ""^a"" (^i) ""^a"" (^i).",
      137 		file_id_1_name, file_no_1,
      138 		file_id_2_name, file_no_2);
      139 	     call gtss_abort_subsystem_ (
      140 		mcp,
      141 		"gtss_drl_switch_",
      142 		0,
      143 		"DRL_SWITCH: IN AFT BUT NOT OPEN (BUG?) at (^60)",
      144 		fixed (scu.ilc, 18));
      145 	end;
      146 	else
      147 	if status = 15 then do;			/* Bad file number. */
      148 	     call com_err_ (0, "gtss_drl_switch_",
      149 		"Bad file nos for exchange ^i ^i.",
      150 		file_no_1, file_no_2);
      151 	     call gtss_abort_subsystem_ (
      152 		mcp,
      153 		"gtss_drl_switch_",
      154 		0,
      155 		"DRL_SWITCH: BAD FILE NUMBERS? at (^6o)",
      156 		fixed (scu.ilc, 18));
      157 	end;
      158 	else
      159 	increment = 2;				/* go back to good return */
      160
      161 	if db_drl_switch then
      162 	     call com_err_ (0, "gtss_drl_switch_"
      163 	     , "file ""^a"" (aft ^i) switched with ""^a"" (^i)."
      164 	     , file_id_1_name, file_no_1
      165 	     , file_id_2_name, file_no_2
      166 	     );
      167
      168 /* Exchange attributes blocks for files being switched */
      169
      170 	T = temp_file (file_no_1);
      171 	temp_file (file_no_1) = temp_file (file_no_2);
      172 	temp_file (file_no_2) = T;
      173
      174 	return;
      175 
  1     1 /* BEGIN INCLUDE FILE gtss_ext_.incl.pl1 */
  1     2 /*
  1     3*  Created: (Wardd Multics)  05/20/78 1307.6 mst Sat
  1     4*  Modified: Ward            1981     add suspended_process dcl
  1     5*  Modified: Ron Barstad  83-07-21  Fixed level number on mcfc to 3
  1     6*  Modified: Ron Barstad  83-07-25  Fixed derail range in statistics to 4js3 number
  1     7**/
  1     8 dcl  gtss_ext_$aem                   fixed bin static ext	/* >0 Print "additional" error information. */;
  1     9 dcl  gtss_ext_$bad_drl_rtrn          static ext label	/* Default for drl_rtrn. */;
  1    10 dcl  gtss_ext_$db                    (72)bit(1)unal static ext;
  1    11 dcl  gtss_ext_$deferred_catalogs_ptr ptr ext;
  1    12 dcl  gtss_ext_$dispose_of_drl        static ext label	/* quit handlers for some derails use this label to abort */;
  1    13 dcl  gtss_ext_$drl_rtrn              (4)static ext label	/* where to return at subsystem end */;
  1    14 dcl  gtss_ext_$drm_path              char(168)static ext	/* gtss_expand_pathname_stores drm_path */;
  1    15 dcl  gtss_ext_$drun_jid              char (5) static ext	/* valid only for DRUN executing under absentee */;
  1    16 dcl  gtss_ext_$event_channel         fixed bin (71) static ext	/* used for DABT signals */;
  1    17 dcl  gtss_ext_$finished              static ext label	/* Return to gtss for normal conclusion. */;
  1    18 dcl  gtss_ext_$gdb_name              char(8)ext	/* Name H* module to debug. */;
  1    19 dcl  gtss_ext_$get_line              entry(ptr,ptr,fixed bin(21),fixed bin(21),fixed bin(35))variable ext /* Build mode input procedure. */;
  1    20 dcl  gtss_ext_$gtss_slave_area_seg   (4) ext static ptr	/* pointer to gtss slave area segment */;
  1    21 dcl  gtss_ext_$hcs_work_area_ptr     ptr ext static		/* Temp seg for acl lists. */;
  1    22 dcl  gtss_ext_$homedir               char (64) static ext /* user's home dir */;
  1    23 dcl  gtss_ext_$last_k_was_out        bit (1)aligned ext static	/* "1"b => last tty output was output. */;
  1    24 dcl  gtss_ext_$pdir                  char (168) varying ext static	/* pathname of process directory */;
  1    25 dcl  gtss_ext_$popup_from_pi         static ext label	/* transfer to this label after pi simulates popup primitive */;
  1    26 dcl  gtss_ext_$process_type          fixed bin (17) static ext;
  1    27 dcl  gtss_ext_$put_chars             entry(ptr,ptr,fixed bin(24),fixed bin(35)) variable ext	/* Terminal output procedure. */;
  1    28 dcl  gtss_ext_$restart_from_pi       static ext label	/* transfer to this label after pi restores machine conditions */;
  1    29 dcl  gtss_ext_$restart_seg_ptr       ptr static ext	/* points to DRUN restart file when exec under absentee */;
  1    30 dcl  gtss_ext_$sig_ptr               ext static ptr	/* saved ptr to signal_ */;
  1    31 dcl  gtss_ext_$stack_level_          fixed bin ext static;
  1    32 dcl  gtss_ext_$suspended_process     bit(1) ext static;
  1    33 dcl  gtss_ext_$SYstarstar_file_no    fixed bin (24) static ext;
  1    34 dcl  gtss_ext_$user_id               char (26)var ext;
  1    35 dcl  gtss_ext_$work_area_ptr         ptr ext;
  1    36
  1    37 dcl  1 gtss_ext_$CFP_bits aligned static external
  1    38      , 3 no_input_yet bit (1) unaligned         /* used in gtss_CFP_input_, gtss_read_starCFP_ */
  1    39      , 3 rtn_bits bit (4) unaligned             /* used in gtss_CFP_input_, gtss_CFP_output_ */
  1    40      , 3 cpos_called bit (1) unaligned          /* used in gtss_CFP_input_, gtss_drl_t_cfio_, gtss_abandon_CFP_ */
  1    41      , 3 cout_called bit (1) unaligned          /* used in gtss_read_starCFP_, gtss_abandon_CFP_ */
  1    42      , 3 build_mode bit (1) unaligned	        /* used in gtss_build_, gtss_dsd_process_ */
  1    43      ;
  1    44
  1    45 dcl 1 gtss_ext_$com_reg aligned static ext,
  1    46        3 tsdmx,
  1    47          4 dst fixed bin (18) unsigned unaligned,
  1    48          4 dit fixed bin (18) unsigned unaligned,
  1    49        3 tsdpt fixed bin (36) unsigned unaligned,
  1    50        3 tsddt fixed bin (36) unsigned unaligned,
  1    51        3 tsdid bit (72) unaligned,
  1    52        3 tsdsd bit (36) unaligned,
  1    53        3 tsdst fixed bin (36) unsigned unaligned,
  1    54        3 tsdjb fixed bin (35) unaligned,
  1    55        3 tsdgt,
  1    56          4 ust_loc fixed bin (18) unsigned unaligned,
  1    57          4 gating_ctl fixed bin (18) unsigned unaligned,
  1    58        3 tcdfr bit (36) unaligned;
  1    59
  1    60 dcl 1 gtss_ext_$flags aligned static ext
  1    61      , 3 dispose_of_drl_on_pi	bit (01) unal	/* 1 => drl that should be aborted after quit-pi sequence */
  1    62      , 3 drl_in_progress	bit (01) unal	/* 1 => drl handler executing; 0 => gcos code executing */
  1    63      , 3 popup_from_pi	bit (01) unal	/* 1 => derail processor will simulate Gcos break instead of returning */
  1    64      , 3 unfinished_drl	bit (01) unal	/* 1 => subsystem is handling breaks and quit was raised during a drl */
  1    65      , 3 ss_time_limit_set	bit (01) unal	/* 1 => exec time limit set for subsystem */
  1    66      , 3 timer_ranout	bit (01) unal	/* 1 => user is executing timer runout code */
  1    67      , 3 gtss_com_err_sw      bit (01) unal       /* 1 => stop com_err_ string from going to terminal */
  1    68      , 3 available		bit (65) unal
  1    69      ;
  1    70
  1    71
  1    72 dcl 1 gtss_ext_$statistics aligned static ext,		/* Derail usage statistics */
  1    73       3 total_time (-10:71)fixed bin (71),
  1    74       3 count (-10:71)fixed bin (17);
  1    75
  1    76 /* 	Declaration of Available File Table
  1    77*   */
  1    78 dcl 1 gtss_ext_$aft aligned ext,			/* aft structure */
  1    79
  1    80       3 start_list (0:102) fixed bin (24),		/* >0 => 1st aft_entry row to start of next entry chain. */
  1    81
  1    82       3 aft_entry (20),
  1    83         4 altname char (8),				/* altname name for attaching this file */
  1    84         4 next_entry fixed bin (24),			/* Next aft_entry in hash chain. */
  1    85         4 previous_add fixed bin (24),			/* Previously added entry. */
  1    86         4 next_add fixed bin (24),			/* Entry added after this one. */
  1    87         4 used bit (1) unal,				/* "1"b => aft_entry contains AFT value. */
  1    88         4 forced bit(1) unal,				/* "1"b => gtss_verify_access_ forced access on this file. */
  1    89
  1    90       3 free_space fixed bin (24),			/* Index of start of free space list for aft entries. */
  1    91       3 first_added fixed bin (24),			/* >0  => start of chain in add order. */
  1    92       3 last_added fixed bin (24)			/* >0 => end of chain in added order. */;
  1    93
  1    94 dcl  gtss_ext_$ppt                   ptr ext /*  switch name for tapein drl */;
  1    95 /**	Data structure to provide access to installed
  1    96*   subsystems fast library load.
  1    97*   **/
  1    98 dcl 1 gtss_ext_$fast_lib aligned ext
  1    99      , 3 fast_lib_fcb ptr				/* Pointer to msf fcb.	*/
  1   100      , 3 fast_lib_ncp fixed bin (24)			/* Number of components. */
  1   101      , 3 comp_ptr (0:9)ptr				/* Pointer to component. */
  1   102      , 3 comp_wds (0:9)fixed bin (24)			/* Component length (words). */
  1   103      ;
  1   104
  1   105 /* Pointers to segments to regulate multipler
  1   106*   callers to files. Same segments are used to regulate
  1   107*   all simulator callers.
  1   108**/
  1   109 dcl 1 gtss_ext_$mcfc	aligned ext,
  1   110       3 multics_lock_id	bit(36),
  1   111       3 wait_time		fixed bin,
  1   112       3 files_ptr		ptr,
  1   113       3 names_ptr		ptr,
  1   114       3 callers_ptr		(0:3)ptr
  1   115 ;
  1   116
  1   117 /*   END INCLUDE FILE gtss_ext_.incl.pl1 */
      176
      177 
  2     1 /* BEGIN INCLUDE FILE gtss_pnterr.incl.pl1 */
  2     2 /*
  2     3*  Created: (Grimes SMP)  04/15/78 0933.2 mst Sat
  2     4*   Change: Dave Ward	06/08/78 made attributes constant.
  2     5*   Change: Dave Ward	08/17/81 made lengths same as constans.
  2     6*   Change: Ron Barstad  83-03-29  fixed err 53, add missing err 56
  2     7*   Change: Ron Barstad  84-02-27  changed back to all same length because of based array in gtss_abort_subsystem_
  2     8**/
  2     9 dcl 1 gtss_pnterr static int options (constant),
  2    10     2 err1   char(50) init("001-INCORRECT PRIMITIVE"),
  2    11     2 err2   char(50) init("002-(^6o)INVALID FILE I/O COMMAND"),
  2    12     2 err3   char(50) init("003-(^6o)INVALID DCW"),
  2    13     2 err4   char(50) init("004-(^6o)INVALID DRL ARGUMENT"),
  2    14     2 err5   char(50) init("005-(^6o)INVALID DRL CODE"),
  2    15     2 err6   char(50) init("006-LEVEL OF CONTROL TOO DEEP"),
  2    16     2 err7   char(50) init("007-BAP PROG. DESC."),
  2    17     2 err8   char(50) init("008-LOOP IN PRIMITIVES"),
  2    18     2 err9   char(50) init("009-SYSTEM UNKNOWN"),
  2    19     2 err10  char(50) init("010-PROGRAM TOO LARGE TO SWAP"),
  2    20     2 err11  char(50) init("011-(^6o)INCORRECT CORE FILE USAGE"),
  2    21     2 err12  char(50) init("012-(^6o)PRIVILEGED I/O ATTEMPTED"),
  2    22     2 err13  char(50) init("013-(^6o)DRL USERID NOT PERMITTED"),
  2    23     2 err14  char(50) init("(^6o)ILLEGAL DRL RELMEM REQUEST"),
  2    24     2 err15  char(50) init("015-(^6o)CANNOT RESET USER ID"),
  2    25     2 err16  char(50) init("016-(^6o)OVERFLOW FAULT"),
  2    26     2 err17  char(50) init("017-(^6o)ILLEGAL OP CODE"),
  2    27     2 err18  char(50) init("018-(^6o)MEMORY FAULT"),
  2    28     2 err19  char(50) init("019-(^6o)FAULT TAG FAULT"),
  2    29     2 err20  char(50) init("020-(^6o)DIVIDE CHECK FAULT"),
  2    30     2 err21  char(50) init("021-(^6o)BAD STATUS - SWAP OUT"),
  2    31     2 err22  char(50) init("022-(^6o)BAD STATUS - SWAP IN"),
  2    32     2 err23  char(50) init("023-(^6o)BAD STATUS - LOAD"),
  2    33     2 err24  char(50) init("(^6o)TALK PERMISSION NOT GRANTED"),
  2    34     2 err25  char(50) init("(^6o)WRITE ATTEMPTED ON READ-ONLY FILE - ^8a"),
  2    35     2 err26  char(50) init("(^6o)READ ATTEMPTED ON EXECUTE-ONLY FILE - ^8a"),
  2    36     2 err27  char(50) init("024-(^6o)MME FAULT"),
  2    37     2 err28  char(50) init("028-(^6o)REWIND ATTEMPTED FOR RANDOM FILE - ^8a"),
  2    38     2 err29  char(50) init("029-ILLEGAL SYSTEM SELECTION"),
  2    39     2 err30  char(50) init("134-(^6o)INVALID DRL FILACT FUNCTION #^i"),
  2    40     2 err31  char(50) init("135-(^6o)PRIVILEGED DRL FILACT REQUEST"),
  2    41     2 err32  char(50) init("138-(^6o)NO TAP* FILE FOR DRL TAPEIN"),
  2    42     2 err33  char(50) init("139-ERROR IN WRITING TAP* FILE"),
  2    43     2 err34  char(50) init("(^6o)DRL ABORT - CANNOT WRITE ABRT FILE"),
  2    44     2 err35  char(50) init("(^6o)DRL ABORT - ABRT FILE WRITTEN"),
  2    45     2 err36  char(50) init("NOT ENOUGH CORE TO RUN JOB"),
  2    46     2 err37  char(50) init("SORRY-OUT OF SWAP SPACE. TRY AGAIN."),
  2    47     2 err38  char(50) init("(^6o)FILE ADDRESS ERROR"),
  2    48     2 err39  char(50) init("(^6o)DRL ABORT - ABRT FILE I/O ERROR"),
  2    49     2 err40  char(50) init("(^6o)DRL ABORT - ABRT FILE TOO SMALL"),
  2    50     2 err41  char(50) init("(^6o)BAD STATUS FOR DRL SAVE/RESTOR - ^8a"),
  2    51     2 err42  char(50) init("(^6o)H* FILE NOT IN AFT - ^8a"),
  2    52     2 err43  char(50) init("064-EXECUTE TIME LIMIT EXCEEDED"),
  2    53     2 err44  char(50) init("025-(^6o)LOCKUP FAULT"),
  2    54     2 err45  char(50) init("065-OBJECT PROGRAM SIZE LIMIT EXCEEDED"),
  2    55     2 err46  char(50) init("(^6o)INCORRECT ENTRY TO DRL TASK"),
  2    56     2 err47  char(50) init("(^6o)H* PROGRAM NAME UNDEFINED - ^8a"),
  2    57     2 err48  char(50) init("(^6o)H* FILE CATALOG FULL - ^8a"),
  2    58     2 err49  char(50) init("(^6o)TALLY OR CHARACTER COUNT INCORRECT"),
  2    59     2 err50  char(50) init("(^6o)BAD DRL SAVE DATA LOC"),
  2    60     2 err51  char(50) init("(^6o)H* FILE NOT INITITALIZED - ^8a"),
  2    61     2 err52  char(50) init("(^6o)H* FILE MUST BE RANDOM - ^8a"),
  2    62     2 err53  char(50) init("026-(^6o)OP-NOT-COMPLETE FAULT"),
  2    63     2 err54  char(50) init("(^6o)H* FILE PROGRAM NAME REQUIRED - ^8a"),
  2    64     2 err55  char(50) init("027-(^6o)COMMAND FAULT"),
  2    65     2 err56  char(50) init("(^6o)LINKED FILE I/O CANNOT SPAN >63 LLINKS - ^8a"),
  2    66     2 err57  char(50) init("UNASSIGNED"),
  2    67     2 err58  char(50) init("(^6o)INVALID TIME FOR DRL GWAKE"),
  2    68     2 err59  char(50) init("UNASSIGNED"),
  2    69     2 err60  char(50) init("(^6o)INVALID SNUMB FOR DRL JOUT"),
  2    70     2 err61  char(50) init("(^6o)PRIVILEGED DRL"),
  2    71     2 err62  char(50) init("(^6o)INVALID DRL JOUT FUNCTION"),
  2    72     2 err63  char(50) init("MEMORY PARITY ERROR"),
  2    73     2 err64  char(50) init("SY** I/O ERROR"),
  2    74 /* The following error messages are artifacts of gtss and are not found in TSS */
  2    75     2 err100 char(50) init("DRL ADDMEM ERROR at (^6o)"),
  2    76     2 err101 char(50) init("DRL RELMEM ERROR TRUNCATE SEGMENT at (^6o)"),
  2    77     2 err102 char(50) init("DRL RELMEM ERROR SET MAX SEGMENT LENGTH"),
  2    78     2 err103 char(50) init("UNIMPLEMENTED DRL FILACT FUNCTION (^i)"),
  2    79     2 err999 char(50) init("dummy");
  2    80
  2    81 /*   END INCLUDE FILE gtss_pnterr.incl.pl1 */
      178
      179 
  3     1 /*  */
  3     2 /* BEGIN INCLUDE FILE  mc.incl.pl1   Created Dec 72 for 6180 - WSS. */
  3     3 /* Modified 06/07/76 by Greenberg for mc.resignal */
  3     4 /* Modified 07/07/76 by Morris for fault register data */
  3     5 /* Modified 08/28/80 by J. A. Bush for the DPS8/70M CVPU */
  3     6 /* Modified '82 to make values constant */
  3     7
  3     8 /* words 0-15 pointer registers */
  3     9
  3    10 dcl  mcp ptr;
  3    11
  3    12 dcl 1 mc based (mcp) aligned,
  3    13     2 prs (0:7) ptr,				/* POINTER  REGISTERS */
  3    14    (2 regs,					/* registers */
  3    15       3 x (0:7) bit (18),				/* index registers */
  3    16       3 a bit (36),					/* accumulator */
  3    17       3 q bit (36),					/* q-register */
  3    18       3 e bit (8),					/* exponent */
  3    19       3 pad1 bit (28),
  3    20       3 t bit (27),					/* timer register */
  3    21       3 pad2 bit (6),
  3    22       3 ralr bit (3),				/* ring alarm register */
  3    23
  3    24     2 scu (0:7) bit (36),
  3    25
  3    26     2 mask bit (72),				/* mem controller mask at time of fault */
  3    27     2 ips_temp bit (36),				/* Temporary storage for IPS info */
  3    28     2 errcode fixed bin (35),				/* fault handler's error code */
  3    29     2 fim_temp,
  3    30       3 unique_index bit (18) unal,			/* unique index for restarting faults */
  3    31       3 resignal bit (1) unal,			/* recompute signal name with fcode below */
  3    32       3 fcode bit (17) unal,				/* fault code used as index to FIM table and SCT */
  3    33     2 fault_reg bit (36),				/* fault register */
  3    34     2 pad2 bit (1),
  3    35     2 cpu_type fixed bin (2) unsigned,			/* L68 = 0, DPS8/70M = 1 */
  3    36     2 ext_fault_reg bit (15),				/* extended fault reg for DPS8/70M CPU */
  3    37     2 fault_time bit (54),				/* time of fault */
  3    38
  3    39     2 eis_info (0:7) bit (36)) unaligned;
  3    40
  3    41
  3    42 dcl (apx fixed bin init (0),
  3    43      abx fixed bin init (1),
  3    44      bpx fixed bin init (2),
  3    45      bbx fixed bin init (3),
  3    46      lpx fixed bin init (4),
  3    47      lbx fixed bin init (5),
  3    48      spx fixed bin init (6),
  3    49      sbx fixed bin init (7)) internal static options (constant);
  3    50
  3    51
  3    52 
  3    53
  3    54 dcl  scup ptr;
  3    55
  3    56 dcl 1 scu based (scup) aligned,			/* SCU DATA */
  3    57
  3    58
  3    59 /*	WORD (0)		*/
  3    60
  3    61    (2 ppr,					/* PROCEDURE POINTER REGISTER */
  3    62       3 prr bit (3),				/* procedure ring register */
  3    63       3 psr bit (15),				/* procedure segment register */
  3    64       3 p bit (1),					/* procedure privileged bit */
  3    65
  3    66     2 apu,					/* APPENDING UNIT STATUS */
  3    67       3 xsf bit (1),				/* ext seg flag - IT modification */
  3    68       3 sdwm bit (1),				/* match in SDW Ass. Mem. */
  3    69       3 sd_on bit (1),				/* SDW Ass. Mem.  ON */
  3    70       3 ptwm bit (1),				/* match in PTW Ass. Mem. */
  3    71       3 pt_on bit (1),				/* PTW Ass. Mem.  ON */
  3    72       3 pi_ap bit (1),				/* Instr Fetch or Append cycle */
  3    73       3 dsptw bit (1),				/* Fetch of DSPTW */
  3    74       3 sdwnp bit (1),				/* Fetch of SDW non paged */
  3    75       3 sdwp bit (1),				/* Fetch of SDW paged */
  3    76       3 ptw bit (1),				/* Fetch of PTW */
  3    77       3 ptw2 bit (1),				/* Fetch of pre-paged PTW */
  3    78       3 fap bit (1),				/* Fetch of final address paged */
  3    79       3 fanp bit (1),				/* Fetch of final address non-paged */
  3    80       3 fabs bit (1),				/* Fetch of final address absolute */
  3    81
  3    82     2 fault_cntr bit (3),				/* number of retrys of EIS instructions */
  3    83
  3    84
  3    85 /*	WORD (1)		*/
  3    86
  3    87     2 fd,						/* FAULT  DATA */
  3    88       3 iro bit (1),				/* illegal ring order */
  3    89       3 oeb bit (1),				/* out of execute bracket */
  3    90       3 e_off bit (1),				/* no execute */
  3    91       3 orb bit (1),				/* out of read bracket */
  3    92       3 r_off bit (1),				/* no read */
  3    93       3 owb bit (1),				/* out of write bracket */
  3    94       3 w_off bit (1),				/* no write */
  3    95       3 no_ga bit (1),				/* not a gate */
  3    96       3 ocb bit (1),				/* out of call bracket */
  3    97       3 ocall bit (1),				/* outward call */
  3    98       3 boc bit (1),				/* bad outward call */
  3    99       3 inret bit (1),				/* inward return */
  3   100       3 crt bit (1),				/* cross ring transfer */
  3   101       3 ralr bit (1),				/* ring alarm register */
  3   102       3 am_er bit (1),				/* associative memory fault */
  3   103       3 oosb bit (1),				/* out of segment bounds */
  3   104       3 paru bit (1),				/* processor parity upper */
  3   105       3 parl bit (1),				/* processor parity lower */
  3   106       3 onc_1 bit (1),				/* op not complete type 1 */
  3   107       3 onc_2 bit (1),				/* op not complete type 2 */
  3   108
  3   109     2 port_stat,					/* PORT  STATUS */
  3   110       3 ial bit (4),				/* illegal action lines */
  3   111       3 iac bit (3),				/* illegal action channel */
  3   112       3 con_chan bit (3),				/* connect channel */
  3   113
  3   114     2 fi_num bit (5),				/* (fault/interrupt)  number */
  3   115     2 fi_flag bit (1),				/*  1 => fault,  0 => interrupt  */
  3   116
  3   117
  3   118 /*	WORD (2)		*/
  3   119
  3   120     2 tpr,					/* TEMPORARY POINTER REGISTER */
  3   121       3 trr bit (3),				/* temporary ring register */
  3   122       3 tsr bit (15),				/* temporary segment register */
  3   123
  3   124     2 pad2 bit (9),
  3   125
  3   126     2 cpu_no bit (3),				/* CPU number */
  3   127
  3   128     2 delta bit (6),				/* tally modification DELTA */
  3   129
  3   130
  3   131 /*	WORD (3)		*/
  3   132
  3   133     2 word3 bit (18),
  3   134
  3   135     2 tsr_stat,					/* TSR STATUS for 1,2,&3 word instructions */
  3   136       3 tsna,					/* Word 1 status */
  3   137         4 prn bit (3),				/* Word 1  PR  number */
  3   138         4 prv bit (1),				/* Word 1  PR  valid bit */
  3   139       3 tsnb,					/* Word 2  status */
  3   140         4 prn bit (3),				/* Word 2  PR  number */
  3   141         4 prv bit (1),				/* Word 2  PR  valid bit */
  3   142       3 tsnc,					/* Word 3  status */
  3   143         4 prn bit (3),				/* Word 3  PR  number */
  3   144         4 prv bit (1),				/* Word 3  PR  valid bit */
  3   145
  3   146     2 tpr_tbr bit (6),				/* TPR.TBR  field */
  3   147
  3   148
  3   149 /* 	WORD (4)		*/
  3   150
  3   151     2 ilc bit (18),					/* INSTRUCTION  COUNTER */
  3   152
  3   153     2 ir,						/* INDICATOR  REGISTERS */
  3   154       3 zero bit (1),				/* zero indicator */
  3   155       3 neg bit (1),				/* negative indicator */
  3   156       3 carry bit (1),				/* carryry indicator */
  3   157       3 ovfl bit (1),				/* overflow indicator */
  3   158       3 eovf bit (1),				/* eponent overflow */
  3   159       3 eufl bit (1),				/* exponent underflow */
  3   160       3 oflm bit (1),				/* overflow mask */
  3   161       3 tro bit (1),				/* tally runout */
  3   162       3 par bit (1),				/* parity error */
  3   163       3 parm bit (1),				/* parity mask */
  3   164       3 bm bit (1),					/* ^bar mode */
  3   165       3 tru bit (1),				/* truncation mode */
  3   166       3 mif bit (1),				/* multi-word instruction mode */
  3   167       3 abs bit (1),				/* absolute mode */
  3   168       3 hex bit (1),				/* hexadecimal exponent mode */
  3   169       3 pad bit (3),
  3   170
  3   171
  3   172 /*	WORD (5)		*/
  3   173
  3   174     2 ca bit (18),					/* COMPUTED  ADDRESS */
  3   175
  3   176     2 cu,						/* CONTROL UNIT STATUS */
  3   177       3 rf bit (1),					/* on first cycle of repeat instr */
  3   178       3 rpt bit (1),				/* repeat instruction */
  3   179       3 rd bit (1),					/* repeat double instruction */
  3   180       3 rl bit (1),					/* repeat link instruciton */
  3   181       3 pot bit (1),				/* IT  modification */
  3   182       3 pon bit (1),				/* return type instruction */
  3   183       3 xde bit (1),				/* XDE from Even location */
  3   184       3 xdo bit (1),				/* XDE from Odd  location */
  3   185       3 poa bit (1),				/* operation preparation */
  3   186       3 rfi bit (1),				/* tells CPU to refetch instruction */
  3   187       3 its bit (1),				/* ITS modification */
  3   188       3 if bit (1),					/* fault occured during instruction fetch */
  3   189
  3   190     2 cpu_tag bit (6)) unaligned,			/* computed tag field */
  3   191
  3   192
  3   193 /*	WORDS (6,7)	*/
  3   194
  3   195     2 even_inst bit (36),				/* even instruction of faulting pair */
  3   196
  3   197     2 odd_inst bit (36);				/* odd  instruction of faulting pair */
  3   198
  3   199
  3   200
  3   201
  3   202
  3   203
  3   204 /*	ALTERNATE   SCU  DECLARATION		*/
  3   205
  3   206
  3   207 dcl 1 scux based (scup) aligned,
  3   208
  3   209    (2 pad0 bit (36),
  3   210
  3   211     2 fd,						/* GROUP II  FAULT DATA */
  3   212       3 isn bit (1),				/* illegal segment number */
  3   213       3 ioc bit (1),				/* illegal op  code  */
  3   214       3 ia_am bit (1),				/* illegal address - modifier */
  3   215       3 isp bit (1),				/* illegal slave  procedure */
  3   216       3 ipr bit (1),				/* illegal procedure */
  3   217       3 nea bit (1),				/* non existent address */
  3   218       3 oobb bit (1),				/* out of bounds */
  3   219       3 pad bit (29),
  3   220
  3   221     2 pad2 bit (36),
  3   222
  3   223     2 pad3a bit (18),
  3   224
  3   225     2 tsr_stat (0:2),				/* TSR  STATUS  as an  ARRAY */
  3   226       3 prn bit (3),				/* PR  number */
  3   227       3 prv bit (1),				/* PR  valid bit */
  3   228
  3   229     2 pad3b bit (6)) unaligned,
  3   230
  3   231     2 pad45 (0:1) bit (36),
  3   232
  3   233     2 instr (0:1) bit (36);				/* Instruction ARRAY */
  3   234
  3   235
  3   236
  3   237 /*  END INCLUDE FILE   mc.incl.pl1 */
      180
      181 
  4     1 /* BEGIN INCLUDE FILE gtss_entry_dcls.incl.pl1 */
  4     2 /*
  4     3*  Created: (Wardd Multics)  06/30/78 1624.8 mst Fri
  4     4*  Modified: Ron Barstad  84-02-24  Fixed wrong and obsolete entries
  4     5**/
  4     6
  4     7 /**  gtss external entry variables.		**/
  4     8 dcl  com_err_                                   entry() options(variable);
  4     9 dcl  gtss_CFP_abort_                            entry options(variable);
  4    10 dcl  gtss_CFP_break_                            entry options(variable);
  4    11 dcl  gtss_CFP_input_                            entry (ptr, ptr, fixed bin(21), fixed bin(21), fixed bin(35));
  4    12 dcl  gtss_CFP_output_                           entry (ptr, ptr, fixed bin(21), fixed bin(35));
  4    13 dcl  gtss_abandon_CFP_                          entry options(variable);
  4    14 dcl  gtss_abort_dump_                           entry (fixed bin(18));
  4    15 dcl  gtss_abort_subsystem_                      entry options (variable);
  4    16 dcl  gtss_abort_subsystem_$not_imp              entry (ptr, fixed bin(24));
  4    17 dcl  gtss_abs_login_banner_		        entry() returns(char(*));
  4    18 dcl  gtss_abs_logout_banner_		        entry() returns(char(*));
  4    19 dcl  gtss_abs_$abs_equiv                        entry options(variable);
  4    20 dcl  gtss_abs_$cpu_runout		        entry (ptr, char(4));
  4    21 dcl  gtss_abs_$create_absin                     entry() returns(char(*));
  4    22 dcl  gtss_abs_$dabt_check		        entry (ptr, char(4));
  4    23 dcl  gtss_abs_$get_id                           entry (char(5)) returns(char(19));
  4    24 dcl  gtss_abs_$get_drm                          entry() returns(char(*));
  4    25 dcl  gtss_adjust_size_                          entry (ptr);
  4    26 dcl  gtss_aft_$add                              entry (char(8), fixed bin(24), fixed bin(35));
  4    27 dcl  gtss_aft_$delete                           entry (char(8), fixed bin(24), fixed bin(35));
  4    28 dcl  gtss_aft_$find                             entry (char(8), fixed bin(24), fixed bin(35));
  4    29 dcl  gtss_aft_$initialize                       entry (fixed bin(35));
  4    30 dcl  gtss_ascii_bcd_                            entry (ptr, fixed bin, ptr);
  4    31 dcl  gtss_attributes_mgr_$get                   entry (ptr, fixed bin(35));
  4    32 dcl  gtss_attributes_mgr_$set                   entry (ptr, fixed bin(35));
  4    33 dcl  gtss_bcd_ascii_                            entry (ptr, fixed bin(24), ptr);
  4    34 dcl  gtss_bcd_ascii_$lc                         entry (ptr, fixed bin(24), ptr);
  4    35 dcl  gtss_break_vector_                         entry ();
  4    36 dcl  gtss_break_vector_$drl_in_progress         entry() returns(bit(1));
  4    37 dcl  gtss_break_vector_$status                  entry() returns(bit(1));
  4    38 dcl  gtss_build_                                entry options(variable);
  4    39 dcl  gtss_com_err_                              entry options(variable);
  4    40 dcl  gtss_derail_processor_                     entry (ptr, char(*), ptr, ptr, bit(1) aligned) /* called at fault time instead of signal_ */;
  4    41 dcl  gtss_derail_processor_$set                 entry options(variable);
  4    42 dcl  gtss_dq_$catp                              entry (char (5), ptr, fixed bin (18) unsigned);
  4    43 dcl  gtss_dq_$create                            entry (bit(1));
  4    44 dcl  gtss_dq_$dibp                              entry (char(5), ptr);
  4    45 dcl  gtss_dq_$entries_info		        entry (ptr, fixed bin (18) unsigned, fixed bin (18) unsigned);
  4    46 dcl  gtss_dq_$hdrp                              entry (ptr);
  4    47 dcl  gtss_dq_$mod_js		        entry (char(5), fixed bin (6) unsigned, bit (1));
  4    48 dcl  gtss_dq_$open_exc		        entry (bit(1));
  4    49 dcl  gtss_dq_$open_gen		        entry (bit(1));
  4    50 dcl  gtss_drl_abort_                            entry (ptr, fixed bin);
  4    51 dcl  gtss_drl_addmem_                           entry (ptr, fixed bin);
  4    52 dcl  gtss_drl_callss_                           entry (ptr, fixed bin);
  4    53 dcl  gtss_drl_corfil_                           entry (ptr, fixed bin);
  4    54 dcl  gtss_drl_defil_                            entry (ptr, fixed bin);
  4    55 dcl  gtss_drl_defil_$subr                       entry (ptr, ptr, ptr);
  4    56 dcl  gtss_drl_dio_                              entry (ptr, fixed bin);
  4    57 dcl  gtss_drl_drlimt_                           entry (ptr, fixed bin);
  4    58 dcl  gtss_drl_drlsav_                           entry (ptr, fixed bin);
  4    59 dcl  gtss_drl_filact_                           entry (ptr, fixed bin);
  4    60 dcl  gtss_drl_filsp_                            entry (ptr, fixed bin);
  4    61 dcl  gtss_drl_grow_                             entry (ptr, fixed bin);
  4    62 dcl  gtss_drl_gwake_                            entry (ptr, fixed bin);
  4    63 dcl  gtss_drl_jsts_                             entry (ptr, fixed bin);
  4    64 dcl  gtss_drl_kin_                              entry (ptr, fixed bin);
  4    65 dcl  gtss_drl_kotnow_                           entry (ptr, fixed bin);
  4    66 dcl  gtss_drl_kotnow_$gtss_drl_kout_            entry (ptr, fixed bin);
  4    67 dcl  gtss_drl_koutn_                            entry (ptr, fixed bin);
  4    68 dcl  gtss_drl_morlnk_                           entry (ptr, fixed bin);
  4    69 dcl  gtss_drl_msub_                             entry (ptr, fixed bin);
  4    70 dcl  gtss_drl_objtim_                           entry (ptr, fixed bin);
  4    71 dcl  gtss_drl_part_                             entry (ptr, fixed bin);
  4    72 dcl  gtss_drl_pasaft_                           entry (ptr, fixed bin);
  4    73 dcl  gtss_drl_pasdes_                           entry (ptr, fixed bin);
  4    74 dcl  gtss_drl_pasust_                           entry (ptr, fixed bin);
  4    75 dcl  gtss_drl_pdio_                             entry (ptr, fixed bin);
  4    76 dcl  gtss_drl_prgdes_                           entry (ptr, fixed bin);
  4    77 dcl  gtss_drl_pseudo_                           entry (ptr, fixed bin);
  4    78 dcl  gtss_drl_relmem_                           entry (ptr, fixed bin);
  4    79 dcl  gtss_drl_restor_                           entry (ptr, fixed bin);
  4    80 dcl  gtss_drl_retfil_                           entry (ptr, fixed bin);
  4    81 dcl  gtss_drl_return_                           entry (ptr, fixed bin);
  4    82 dcl  gtss_drl_rew_                              entry (ptr, fixed bin);
  4    83 dcl  gtss_drl_rstswh_                           entry (ptr, fixed bin);
  4    84 dcl  gtss_drl_setlno_                           entry (ptr, fixed bin);
  4    85 dcl  gtss_drl_setswh_                           entry (ptr, fixed bin);
  4    86 dcl  gtss_drl_snumb_                            entry (ptr, fixed bin);
  4    87 dcl  gtss_drl_spawn_                            entry (ptr, fixed bin);
  4    88 dcl  gtss_drl_spawn_$gtss_drl_pasflr_           entry (ptr, fixed bin);
  4    89 dcl  gtss_drl_stoppt_                           entry (ptr, fixed bin);
  4    90 dcl  gtss_drl_switch_                           entry (ptr, fixed bin);
  4    91 dcl  gtss_drl_sysret_                           entry (ptr, fixed bin);
  4    92 dcl  gtss_drl_t_cfio_                           entry (ptr, fixed bin);
  4    93 dcl  gtss_drl_t_cmov_                           entry (ptr, fixed bin);
  4    94 dcl  gtss_drl_t_err_                            entry (ptr, fixed bin);
  4    95 dcl  gtss_drl_t_goto_                           entry (ptr, fixed bin);
  4    96 dcl  gtss_drl_t_linl_                           entry (ptr, fixed bin);
  4    97 dcl  gtss_drl_t_rscc_                           entry (ptr, fixed bin);
  4    98 dcl  gtss_drl_tapein_                           entry (ptr, fixed bin);
  4    99 dcl  gtss_drl_task_                             entry (ptr, fixed bin);
  4   100 dcl  gtss_drl_termtp_                           entry (ptr, fixed bin);
  4   101 dcl  gtss_drl_time_                             entry (ptr, fixed bin);
  4   102 dcl  gtss_drun_                                 entry (bit(1));
  4   103 dcl  gtss_dsd_lookup_                           entry (char(8) var) returns(fixed bin(24));
  4   104 dcl  gtss_dsd_process_                          entry (ptr, ptr, fixed bin(21), fixed bin(21), fixed bin(35));
  4   105 dcl  gtss_edit_dsd_                             entry (ptr, fixed bin(21)) returns(fixed bin(24));
  4   106 dcl  gtss_mcfc_empty                            entry (char(*) var);
  4   107 dcl  gtss_expand_pathname_                      entry (ptr, char(*), char(*), fixed bin(35));
  4   108 dcl  gtss_expand_pathname_$verify_umc           entry (ptr, char(*), char(*), bit(18), fixed bin(35));
  4   109 dcl  gtss_fault_processor_                      entry options(variable);
  4   110 dcl  gtss_find_cond_frame_		        entry (char(32) var) returns(ptr);
  4   111 dcl  gtss_fault_processor_$timer_runout         entry (ptr, char(*));
  4   112 dcl  gtss_filact_error_status_                  entry (fixed bin(35))returns(bit(12));
  4   113 dcl  gtss_filact_funct02_                       entry (ptr, bit(18), ptr, ptr, ptr, fixed bin(35));
  4   114 dcl  gtss_filact_funct03_                       entry (ptr, bit(18), ptr, ptr, ptr, fixed bin(35));
  4   115 dcl  gtss_filact_funct04_                       entry (ptr, bit(18), ptr, ptr, ptr, fixed bin(35));
  4   116 dcl  gtss_filact_funct05_                       entry (ptr, bit(18), ptr, ptr, ptr, fixed bin(35));
  4   117 dcl  gtss_filact_funct08_                       entry (ptr, bit(18), ptr, ptr, ptr, fixed bin(35));
  4   118 dcl  gtss_filact_funct10_                       entry (ptr, bit(18), ptr, ptr, ptr, fixed bin(35));
  4   119 dcl  gtss_filact_funct11_                       entry (ptr, bit(18), ptr, ptr, ptr, fixed bin(35));
  4   120 dcl  gtss_filact_funct14_                       entry (ptr, bit(18), ptr, ptr, ptr, fixed bin(35));
  4   121 dcl  gtss_filact_funct18_                       entry (ptr, bit(18), ptr, ptr, ptr, fixed bin(35));
  4   122 dcl  gtss_filact_funct19_                       entry (ptr, bit(18), ptr, ptr, ptr, fixed bin(35));
  4   123 dcl  gtss_filact_funct21_                       entry (ptr, bit(18), ptr, ptr, ptr, fixed bin(35));
  4   124 dcl  gtss_filact_funct22_                       entry (ptr, bit(18), ptr, ptr, ptr, fixed bin(35));
  4   125 dcl  gtss_mcfc_init_                            entry (char(*) var);
  4   126 dcl  gtss_interp_prim_                          entry options(variable);
  4   127 dcl  gtss_interp_prim_$callss                   entry (char(4), ptr);
  4   128 dcl  gtss_interp_prim_$sysret                   entry options(variable);
  4   129 dcl  gtss_interp_prim_$t_goto                   entry (char(4));
  4   130 dcl  gtss_ios_change_size_                      entry (fixed bin(24), fixed bin(24), bit(1), fixed bin(24), fixed bin(35));
  4   131 dcl  gtss_ios_close_                            entry (fixed bin(24), ptr, fixed bin(35));
  4   132 dcl  gtss_ios_exchange_names_                   entry (fixed bin(24), fixed bin(24), fixed bin(24), fixed bin(35));
  4   133 dcl  gtss_ios_initialize_                       entry options(variable);
  4   134 dcl  gtss_ios_io_                               entry (fixed bin(24), ptr, ptr, fixed bin(24), fixed bin(24), fixed bin(35));
  4   135 dcl  gtss_ios_open_                             entry (fixed bin(24), char(168), char(32), bit(6), bit(1), ptr, ptr, fixed bin(35));
  4   136 dcl  gtss_ios_position_                         entry (fixed bin(24), fixed bin(24), fixed bin(24), bit(6), ptr);
  4   137 dcl  gtss_mcfc_$delete		        entry (fixed bin(24), char(*), char(*), bit(36) aligned, ptr, fixed bin(35));
  4   138 dcl  gtss_mcfc_$open                            entry (char(*), char(*), bit(6), bit(36) aligned, ptr, fixed bin(35));
  4   139 dcl  gtss_mcfc_$close                           entry (char(*), char(*), bit(36) aligned, ptr, fixed bin(35));
  4   140 dcl  gtss_read_starCFP_                         entry (ptr, ptr, fixed bin(21), fixed bin(21), fixed bin(35));
  4   141 dcl  gtss_read_starCFP_$last_os                 entry (ptr, ptr, fixed bin(21), fixed bin(21), fixed bin(35));
  4   142 dcl  gtss_run_subsystem_                        entry (fixed bin(24));
  4   143 dcl  gtss_run_subsystem_$finish                 entry options(variable);
  4   144 dcl  gtss_run_subsystem_$restor                 entry (fixed bin(24), ptr);
  4   145 dcl  gtss_run_subsystem_$restor_perm            entry (fixed bin(24), ptr, fixed bin(18));
  4   146 dcl  gtss_set_slave_                            entry (fixed bin (24), ptr);
  4   147 dcl  gtss_set_slave_$load_bar                   entry (fixed bin (17));
  4   148 dcl  gtss_update_safe_store_                    entry (ptr);
  4   149 dcl  gtss_verify_access_		        entry (char(*), char(*), fixed bin(24), bit(6), bit(12) aligned);
  4   150 dcl  gtss_verify_access_$check_forced_access    entry (char(*), char(*), fixed bin(24));
  4   151 dcl  gtss_write_starCFP_                        entry (ptr, ptr, fixed bin(21), fixed bin(35));
  4   152 /*   END INCLUDE FILE gtss_entry_dcls.incl.pl1 */
      182
      183 
  5     1 /* BEGIN INCLUDE FILE gtss_ust_ext_.incl.pl1 */
  5     2 /* UST: User Status Table
  5     3*   definitions based on
  5     4*   System Tables, Order number DD14-01E, January 1981
  5     5*   Section 15, Time Sharing System
  5     6*
  5     7*   Authors: Robert J. Grimes	Created
  5     8*   -	  Albert N. Kepner	  1978
  5     9*   -	  Robert M. May
  5    10*   -	  David B. Ward
  5    11*   Change:  Dave Ward	02/23/79 Level 4 numbering.
  5    12*   Change:  Ron Barstad  83-07-12 Repaired damaged formating and word offset comments
  5    13*                                  Brought up to 4JS3 functionality
  5    14**/
  5    15 /* octal word offsets of entries */
  5    16 dcl 1 gtss_ust_ext_$ust aligned ext,
  5    17       3 gtss_ust,
  5    18 /* 0-1  */	4 lid		bit (72),
  5    19 /* 2    */	4 lstp		bit (36),
  5    20 /* 3    */	4 ltin		bit (36),
  5    21 /* 4    */	4 lstio,
  5    22 			5 no_of_chars_by_8  fixed bin (18) uns unal,
  5    23 			5 no_of_disk_io     fixed bin (18) uns unal,
  5    24 /* 5    */	4 lsnub		bit (36),
  5    25 /* 6-7  */	4 lchg		bit (72),
  5    26 /* 10   */	4 lbuf,
  5    27 			5 address		bit (18)unaligned,
  5    28 			5 tally		bit (1)unaligned,
  5    29 			5 terminal_type	bit (5)unaligned,
  5    30 			5 station_id	bit (12)unaligned,
  5    31 /* 11-12 */	4 liost (0:1)	bit (36),
  5    32 /* 13   */	4 lcc		bit (36),
  5    33 /* 14   */	4 lback,
  5    34 			5 fill1		bit (18) unaligned,
  5    35 			5 gwake		fixed bin (17) unaligned,
  5    36 /* 15   */	4 lflag,
  5    37 			5 mp_list		bit (18) unaligned,
  5    38 			5 flags unaligned,
  5    39 				6 b18		bit (1) unaligned,
  5    40 				6 b19		bit (1) unaligned,
  5    41 				6 b20		bit (1) unaligned,
  5    42 				6 b21		bit (1) unaligned,
  5    43 				6 b22		bit (1) unaligned,
  5    44 				6 b23		bit (1) unaligned,
  5    45 				6 b24		bit (1) unaligned,
  5    46 				6 b25		bit (1) unaligned,
  5    47 				6 b26		bit (1) unaligned,
  5    48 				6 b27		bit (1) unaligned,
  5    49 				6 b28		bit (1) unaligned,
  5    50 				6 b29		bit (1) unaligned,
  5    51 				6 b30		bit (1) unaligned,
  5    52 				6 b31		bit (1) unaligned,
  5    53 				6 b32		bit (1) unaligned,
  5    54 				6 b33		bit (1) unaligned,
  5    55 				6 b34		bit (1) unaligned,
  5    56 				6 b35		bit (1) unaligned,
  5    57 /* 16   */	4 lkdss		bit (36),
  5    58 /* 17   */	4 lfile,
  5    59 			5 program_stack	fixed bin (17) unal,
  5    60 			5 file_list_ptr	bit (18) unal,
  5    61 /* 20   */	4 lttys		bit (36),
  5    62 /* 21   */	4 lswth,
  5    63 			5 b0		bit (1) unaligned,
  5    64 			5 b1		bit (1) unaligned,
  5    65 			5 b2		bit (1) unaligned,
  5    66 			5 b3		bit (1) unaligned,
  5    67 			5 b4		bit (1) unaligned,
  5    68 			5 b5		bit (1) unaligned,
  5    69 			5 b6		bit (1) unaligned,
  5    70 			5 b7		bit (1) unaligned,
  5    71 			5 b8		bit (1) unaligned,
  5    72 			5 b9		bit (1) unaligned,
  5    73 			5 b10		bit (1) unaligned,
  5    74 			5 b11		bit (1) unaligned,
  5    75 			5 b12		bit (1) unaligned,
  5    76 			5 b13		bit (1) unaligned,
  5    77 			5 b14		bit (1) unaligned,
  5    78 			5 b15		bit (1) unaligned,
  5    79 			5 b16		bit (1) unaligned,
  5    80 			5 b17		bit (1) unaligned,
  5    81 			5 b18		bit (1) unaligned,
  5    82 			5 b19		bit (1) unaligned,
  5    83 			5 b20		bit (1) unaligned,
  5    84 			5 b21		bit (1) unaligned,
  5    85 			5 b22		bit (1) unaligned,
  5    86 			5 b23		bit (1) unaligned,
  5    87 			5 b24		bit (1) unaligned,
  5    88 			5 b25		bit (1) unaligned,
  5    89 			5 b26		bit (1) unaligned,
  5    90 			5 b27		bit (1) unaligned,
  5    91 			5 b28		bit (1) unaligned,
  5    92 			5 b29		bit (1) unaligned,
  5    93 			5 b30		bit (1) unaligned,
  5    94 			5 b31		bit (1) unaligned,
  5    95 			5 b32		bit (1) unaligned,
  5    96 			5 b33		bit (1) unaligned,
  5    97 			5 b34		bit (1) unaligned,
  5    98 			5 b35		bit (1) unaligned,
  5    99 /* 22   */	4 lsize,
  5   100 			5 bar		fixed bin (17) unaligned,
  5   101 			5 limit		bit (18) unaligned,
  5   102 /* 23... */	4 lswap,
  5   103 			5 fill		bit (18) unal,
  5   104 			5 size		bit (18) unal,
  5   105 /* ...24 */	4 transfer_cell	bit (36) unal,
  5   106 /* 25   */	4 lerrm		bit (36),
  5   107 /* 26-37 */	4 lcfil (0:9)	bit (36),
  5   108 /* 40   */	4 lsybc,
  5   109 			5 b0_17		fixed bin (17) unaligned,
  5   110 			5 b18_35		fixed bin (17) unaligned,
  5   111 /* 41-42 */	4 lstem (0:1)	bit (36),
  5   112 /* 43    */	4 lcals,
  5   113 			5 b0_17		fixed bin (17) unaligned,
  5   114 			5 b18_35		bit (18) unaligned,
  5   115 /* 44-51 */	4 subsystems (3),
  5   116 			5 content_lswap,
  5   117 				6 fill		bit (18) unal,
  5   118 				6 size		bit (18) unal,
  5   119 			5 tally_address	fixed bin (17) unaligned,
  5   120 			5 ss_flags	bit (18) unaligned,
  5   121 /* 52   */	4 ltalc,
  5   122 			5 tod		fixed bin (17) unaligned,
  5   123 			5 startup		fixed bin (17) unaligned,
  5   124 /* 53   */	4 lspts		fixed bin (35),
  5   125 /* 54   */	4 lflg2,
  5   126 			5 b0		bit (1) unaligned,
  5   127 			5 b1		bit (1) unaligned,
  5   128 			5 b2		bit (1) unaligned,
  5   129 			5 b3		bit (1) unaligned,
  5   130 			5 b4		bit (1) unaligned,
  5   131 			5 b5		bit (1) unaligned,
  5   132 			5 b6		bit (1) unaligned,
  5   133 			5 b7		bit (1) unaligned,
  5   134 			5 b8		bit (1) unaligned,
  5   135 			5 b9		bit (1) unaligned,
  5   136 			5 b10		bit (1) unaligned,
  5   137 			5 b11		bit (1) unaligned,
  5   138 			5 b12		bit (1) unaligned,
  5   139 			5 b13		bit (1) unaligned,
  5   140 			5 b14		bit (1) unaligned,
  5   141 			5 b15		bit (1) unaligned,
  5   142 			5 b16		bit (1) unaligned,
  5   143 			5 b17		bit (1) unaligned,
  5   144 			5 b18		bit (1) unaligned,
  5   145 			5 b19		bit (1) unaligned,
  5   146 			5 b20		bit (1) unaligned,
  5   147 			5 b21		bit (1) unaligned,
  5   148 			5 b22		bit (1) unaligned,
  5   149 			5 b23		bit (1) unaligned,
  5   150 			5 b24		bit (1) unaligned,
  5   151 			5 b25		bit (1) unaligned,
  5   152 			5 b26		bit (1) unaligned,
  5   153 			5 b27		bit (1) unaligned,
  5   154 			5 b28		bit (1) unaligned,
  5   155 			5 b29		bit (1) unaligned,
  5   156 			5 b30		bit (1) unaligned,
  5   157 			5 b31		bit (1) unaligned,
  5   158 			5 b32		bit (1) unaligned,
  5   159 			5 b33		bit (1) unaligned,
  5   160 			5 b34		bit (1) unaligned,
  5   161 			5 b35		bit (1) unaligned,
  5   162 /* 55-60 */	4 lsftm (0:3)	bit (36),
  5   163 /* 61    */	4 lsprt		fixed bin (35),
  5   164 /* 62    */	4 ltrm		bit (36),
  5   165 /* 63    */	4 linno		fixed bin (35),
  5   166 /* 64    */	4 lincr		fixed bin (35),
  5   167 /* 65    */	4 ltdes		bit (36),
  5   168 /* 66    */	4 lbptr		bit (36),
  5   169 /* 67    */	4 lpptr,
  5   170 			5 last_file_pat_ptr	bin (18) uns unal,
  5   171 			5 lpptr_reserved	bin (18) uns unal,
  5   172 /* 70    */	4 lsclp		bit (36),
  5   173 /* 71    */	4 limit		fixed bin (35),
  5   174 /* 72    */	4 lacpt,
  5   175 			5 jout_pat_offset	bit (18) unal,
  5   176 			5 permissions unal,
  5   177 				6 lodx		bit (1) unal,
  5   178 				6 cardin		bit (1) unal,
  5   179 				6 talk		bit (1) unal,
  5   180 				6 lods		bit (1) unal,
  5   181 			5 cardin_urgency	bit (14) unal,
  5   182 /* 73    */	4 ldrl,
  5   183 			5 ilc		bit (18) unaligned,
  5   184 			5 code		fixed bin (17) unaligned,
  5   185 /* 74    */	4 ljsnb		bit (36),
  5   186 /* 75    */	4 ltm0		bit (36),
  5   187 /* 76    */	4 ltm1		bit (36),
  5   188 /* 77    */	4 ltm2		bit (36),
  5   189 /* 100   */	4 ltm3		bit (36),
  5   190 /* 101   */	4 ltm4		bit (36),
  5   191 /* 102   */	4 ltm5		bit (36),
  5   192 /* 103   */	4 ltmwt		bit (36),
  5   193 /* 104   */	4 ltmrs		bit (36),
  5   194 /* 105   */	4 ltc0		bit (36),
  5   195 /* 106   */	4 ltc1		bit (36),
  5   196 /* 107   */	4 ltc2		bit (36),
  5   197 /* 110   */	4 lct3		bit (36),
  5   198 /* 111   */	4 ltc4		bit (36),
  5   199 /* 112   */	4 ltc5		bit (36),
  5   200 /* 113   */	4 ltcw		bit (36),
  5   201 /* 114   */	4 lkst		bit (36),
  5   202 /* 115   */	4 lkst2		bit (36),
  5   203 /* 116   */	4 lkcc		bit (36),
  5   204 /* 117   */	4 lkms		bit (36),
  5   205 /* 120-121 */	4 lksdc (0:1)	bit (36),
  5   206 /* 122   */	4 lkntp		bit (36),
  5   207 /* 123   */	4 lkrdc		bit (36),
  5   208 /* 124   */	4 lpqf		bit (36),
  5   209 /* 125   */	4 lpqb		bit (36),
  5   210 /* 126   */	4 lustl		bit (36),
  5   211 /* 127   */	4 ltemp		bit (36),
  5   212 /* 130   */	4 lrtll,
  5   213 			5 word_length	fixed bin unaligned,
  5   214 			5 char_length	fixed bin unaligned,
  5   215 /* 131   */	4 ltim		bit (36),
  5   216 /* 132   */	4 lcfio,
  5   217 			5 sect_out	fixed bin(18)unsigned unal,
  5   218 			5 sect_in		fixed bin(18)unsigned unal,
  5   219 /* 133   */	4 lcfst,
  5   220 			5 initial_sect_out	fixed bin(18)unsigned unal,
  5   221 			5 start_term	fixed bin(18)unsigned unal,
  5   222 /* 134   */	4 lcmpt		bit (36),
  5   223 /* 135   */	4 lcjid		bit (36),
  5   224 /* 136-137 */	4 lrcal (0:1)	bit (36),
  5   225 /* 140   */	4 lrdta		bit (36),
  5   226 /* 141   */	4 lrrsk		bit (36),
  5   227 /* 142   */	4 lrskd		bit (36),
  5   228 /* 143   */	4 lrcc		bit (36),
  5   229 /* 144-145 */	4 lrsts (0:1)	bit (36),
  5   230 /* 146   */	4 lrtm		bit (36),
  5   231 /* 147   */	4 lswt2,
  5   232 			5 b0		bit (1) unaligned,
  5   233 			5 b1		bit (1) unaligned,
  5   234 			5 b2		bit (1) unaligned,
  5   235 			5 b3		bit (1) unaligned,
  5   236 			5 b4		bit (1) unaligned,
  5   237 			5 b5		bit (1) unaligned,
  5   238 			5 b6		bit (1) unaligned,
  5   239 			5 b7		bit (1) unaligned,
  5   240 			5 b8		bit (1) unaligned,
  5   241 			5 b9		bit (1) unaligned,
  5   242 			5 b10		bit (1) unaligned,
  5   243 			5 b11		bit (1) unaligned,
  5   244 			5 b12		bit (1) unaligned,
  5   245 			5 b13		bit (1) unaligned,
  5   246 			5 b14		bit (1) unaligned,
  5   247 			5 b15		bit (1) unaligned,
  5   248 			5 b16		bit (1) unaligned,
  5   249 			5 b17		bit (1) unaligned,
  5   250 			5 b18		bit (1) unaligned,
  5   251 			5 b19		bit (1) unaligned,
  5   252 			5 b20		bit (1) unaligned,
  5   253 			5 b21		bit (1) unaligned,
  5   254 			5 b22		bit (1) unaligned,
  5   255 			5 b23		bit (1) unaligned,
  5   256 			5 b24		bit (1) unaligned,
  5   257 			5 b25		bit (1) unaligned,
  5   258 			5 b26		bit (1) unaligned,
  5   259 			5 b27		bit (1) unaligned,
  5   260 			5 b28		bit (1) unaligned,
  5   261 			5 b29		bit (1) unaligned,
  5   262 			5 b30		bit (1) unaligned,
  5   263 			5 b31		bit (1) unaligned,
  5   264 			5 b32		bit (1) unaligned,
  5   265 			5 b33		bit (1) unaligned,
  5   266 			5 b34		bit (1) unaligned,
  5   267 			5 b35		bit (1) unaligned,
  5   268 /* 150   */	4 llsnb		bit (36),
  5   269 /* 151   */	4 lesq		bit (36),
  5   270 /* 152-153 */	4 lumc (0:1)	bit (36),
  5   271 /* 154-155 */	4 lfnam (0:1)	bit (36),
  5   272 /* 156   */	4 lopts		bit (36),
  5   273 /* 157   */	4 licec,
  5   274 			5 b0_17		bit (18) unaligned,
  5   275 			5 b18_35		fixed bin (17) unaligned,
  5   276 /* 160   */	4 lflg3,
  5   277 			5 b0		bit (1) unaligned,
  5   278 			5 b1		bit (1) unaligned,
  5   279 			5 b2		bit (1) unaligned,
  5   280 			5 b3		bit (1) unaligned,
  5   281 			5 b4		bit (1) unaligned,
  5   282 			5 b5		bit (1) unaligned,
  5   283 			5 b6		bit (1) unaligned,
  5   284 			5 b7		bit (1) unaligned,
  5   285 			5 b8		bit (1) unaligned,
  5   286 			5 b9		bit (1) unaligned,
  5   287 			5 b10		bit (1) unaligned,
  5   288 			5 b11		bit (1) unaligned,
  5   289 			5 b12		bit (1) unaligned,
  5   290 			5 b13		bit (1) unaligned,
  5   291 			5 b14		bit (1) unaligned,
  5   292 			5 b15		bit (1) unaligned,
  5   293 			5 b16		bit (1) unaligned,
  5   294 			5 b17		bit (1) unaligned,
  5   295 			5 b18		bit (1) unaligned,
  5   296 			5 b19		bit (1) unaligned,
  5   297 			5 b20		bit (1) unaligned,
  5   298 			5 b21		bit (1) unaligned,
  5   299 			5 b22		bit (1) unaligned,
  5   300 			5 b23		bit (1) unaligned,
  5   301 			5 b24		bit (1) unaligned,
  5   302 			5 b25		bit (1) unaligned,
  5   303 			5 b26		bit (1) unaligned,
  5   304 			5 b27		bit (1) unaligned,
  5   305 			5 b28		bit (1) unaligned,
  5   306 			5 b29		bit (1) unaligned,
  5   307 			5 b30		bit (1) unaligned,
  5   308 			5 b31		bit (1) unaligned,
  5   309 			5 b32		bit (1) unaligned,
  5   310 			5 b33		bit (1) unaligned,
  5   311 			5 b34		bit (1) unaligned,
  5   312 			5 b35		bit (1) unaligned,
  5   313 /* 161-163 */	4 lpage (0:2)	bit (36),
  5   314 /* 164   */	4 lsit1		bit (36),
  5   315 /* 165   */	4 lsit2		bit (36),
  5   316 /* 166   */	4 lsit3		bit (36),
  5   317 /* 167   */	4 lsit4		bit (36),
  5   318 /* The following entries are maintained by gtss and are not found in TSS UST */
  5   319 /* 170   */	4 lxxx, /* program stack index, offset from gtss_ust */
  5   320 			5 b0_17		fixed bin (17) unaligned,
  5   321 			5 b18_35		bit (18) unaligned, /* not used */
  5   322 /* 171-175 */	4 lprgs (5),
  5   323 			5 b0_17		fixed bin (17) unaligned,
  5   324 			5 b18_35		fixed bin (17) unaligned,
  5   325 /* 176   */	4 fill	bit (36),
  5   326 /* 177   */	4 remote_io_buffer aligned,
  5   327 			5 buffer_control_word,
  5   328 				6 current_line_pointer  bit (18)unal,
  5   329 				6 buffer_threshold_address  bit (18)unal,
  5   330 			5 number_words_transmitted	fixed bin (17)unal,
  5   331 			5 FILL1			fixed bin (17)unal,
  5   332 			5 count_of_characters_transmitted fixed bin (17)unal,
  5   333 			5 FILL2			fixed bin (17)unal,
  5   334 			5 characters_transmitted (244) char (1) unal,
  5   335 /* 277   */	4 word_after_ust		bit (36) aligned;
  5   336
  5   337 /*   END INCLUDE FILE gtss_ust_ext_.incl.pl1 */
      184
      185 
  6     1 /* BEGIN INCLUDE FILE gtss_tfa_ext_.incl.pl1 */
  6     2 /*
  6     3*  Created: (Wardd Multics)  08/07/78 0911.6 mst Mon
  6     4**/
  6     5
  6     6 /* Structure to record file "attributes".
  6     7*   Note: gtss_dfd_ext_$disk_file_data(i).gtss_disk.attributes_ptr
  6     8*         locates gtss_tfa_ext_$file_attributes.temp_file(i).
  6     9**/
  6    10
  6    11 dcl 1 gtss_tfa_ext_$file_attributes	aligned ext,
  6    12       3 temp_file			(20) like  gtss_file_attributes;
  6    13
  7     1 /* BEGIN INCLUDE FILE gtss_file_attributes.incl.pl1 */
  7     2 /*
  7     3*  Created: (Kepner Multics)  06/02/78 1522.0 mst Fri
  7     4**/
  7     5
  7     6 /*	Declaration of File Attributes Segement	*/
  7     7
  7     8
  7     9 dcl  gtss_file_attributes_ptr ptr init(null());
  7    10
  7    11 dcl 1 gtss_file_attributes based (gtss_file_attributes_ptr) aligned,
  7    12     2 max_size fixed bin (24),			/* maximum size the file can grow to
  7    13*						   in 320 word blocks.  if = 0 then the
  7    14*						   file size is unlimited. */
  7    15     2 current_size fixed bin (24),			/* current size of the file in 320 word blocks */
  7    16     2 user_attributes aligned,
  7    17       3 non_null bit (1) unal,			/* 0 = this file has never been written to */
  7    18       3 user_attr bit (35) unal,			/* User defined attributes */
  7    19     2 descriptor aligned,
  7    20       3 device_type bit (6) unaligned,			/* currently ignored */
  7    21       3 words_block bit (12) unaligned,			/* number of words per physical block */
  7    22       3 llink_flag bit (1) unaligned,			/* if 0= size in links | 1= size in llinks */
  7    23       3 mode bit (1) unaligned,			/* 0= linked file | 1= random file */
  7    24       3 perm bit (1) unaligned,			/* 1=permanent file|0=not */
  7    25       3 fill bit (1) unaligned,
  7    26       3 size bit (14) unaligned;
  7    27
  7    28
  7    29 /*   END INCLUDE FILE gtss_file_attributes.incl.pl1 */
  6    14
  6    15
  6    16 /*   END INCLUDE FILE gtss_tfa_ext_.incl.pl1 */
      186
      187 
  8     1 /* BEGIN INCLUDE FILE gtss_db_names.incl.pl1 */
  8     2 /*
  8     3*  Created:  (Wardd Multics)  03/29/79 1909.1 mst Thu
  8     4**/
  8     5
  8     6 /* To provide a new debugging switch:
  8     7*
  8     8*   1) Locate the comment "Insert next entry above this comment".
  8     9*
  8    10*   2) Place a new declaration for a db_ variable just
  8    11*      above this comment, in the same manner as the
  8    12*      current declaration just above the comment, using
  8    13*      the next integer gtss_ext_$db index.
  8    14*
  8    15*   3) Execute the gtss|db_names ted macro (this updates
  8    16*      the sorted name table).
  8    17*
  8    18*   4) Example use:
  8    19*
  8    20*      if db_drl_grow then do;
  8    21*      .
  8    22*      .
  8    23*      .
  8    24*      debug i/o statements using com_err_ or ioa_
  8    25*      .
  8    26*      .
  8    27*      .
  8    28*      end;
  8    29*
  8    30**/
  8    31
  8    32 dcl (
  8    33  db_		bit(1) defined(gtss_ext_$db(01))
  8    34 ,db_CFP_input	bit(1) defined(gtss_ext_$db(02))
  8    35 ,db_drl_addmem	bit(1) defined(gtss_ext_$db(03))
  8    36 ,db_drl_defil	bit(1) defined(gtss_ext_$db(04))
  8    37 ,db_drl_filact	bit(1) defined(gtss_ext_$db(05))
  8    38 ,db_drl_filsp	bit(1) defined(gtss_ext_$db(06))
  8    39 ,db_drl_grow	bit(1) defined(gtss_ext_$db(07))
  8    40 ,db_drl_rew	bit(1) defined(gtss_ext_$db(08))
  8    41 ,db_filact_funct02	bit(1) defined(gtss_ext_$db(09))
  8    42 ,db_filact_funct03	bit(1) defined(gtss_ext_$db(10))
  8    43 ,db_filact_funct04	bit(1) defined(gtss_ext_$db(11))
  8    44 ,db_filact_funct05	bit(1) defined(gtss_ext_$db(12))
  8    45 ,db_filact_funct10	bit(1) defined(gtss_ext_$db(13))
  8    46 ,db_filact_funct11	bit(1) defined(gtss_ext_$db(14))
  8    47 ,db_filact_funct14	bit(1) defined(gtss_ext_$db(15))
  8    48 ,db_filact_funct18	bit(1) defined(gtss_ext_$db(16))
  8    49 ,db_filact_funct19	bit(1) defined(gtss_ext_$db(17))
  8    50 ,db_filact_funct21	bit(1) defined(gtss_ext_$db(18))
  8    51 ,db_filact_funct22	bit(1) defined(gtss_ext_$db(19))
  8    52 ,db_interp_prim	bit(1) defined(gtss_ext_$db(20))
  8    53 ,db_ios		bit(1) defined(gtss_ext_$db(21))
  8    54 ,db_run_subsystem	bit(1) defined(gtss_ext_$db(22))
  8    55 ,db_drl_t_cfio	bit(1) defined(gtss_ext_$db(23))
  8    56 ,db_drl_switch	bit(1) defined(gtss_ext_$db(24))
  8    57 ,db_drl_dio	bit(1) defined(gtss_ext_$db(25))
  8    58 ,db_drl_retfil	bit(1) defined(gtss_ext_$db(26))
  8    59 ,db_drl_msub	bit(1) defined(gtss_ext_$db(27))
  8    60 ,db_drl_callss	bit(1) defined(gtss_ext_$db(28))
  8    61 ,db_drl_rstswh	bit(1) defined(gtss_ext_$db(29))
  8    62 ,db_drl_setswh	bit(1) defined(gtss_ext_$db(30))
  8    63 ,db_mcfc		bit(1) defined(gtss_ext_$db(31))
  8    64 ,db_dq		bit(1) defined(gtss_ext_$db(32))
  8    65 ,db_abs		bit(1) defined(gtss_ext_$db(33))
  8    66 ,db_attributes_mgr	bit(1) defined(gtss_ext_$db(34))
  8    67 ,db_expand_pathname bit(1) defined(gtss_ext_$db(35))
  8    68 ,db_drl_part	bit(1) defined(gtss_ext_$db(36))
  8    69 ,db_drl_morlnk	bit(1) defined(gtss_ext_$db(37))
  8    70 ,db_drl_kin	bit(1) defined(gtss_ext_$db(38))
  8    71 /* Insert next entry above this comment. */
  8    72 );
  8    73
  8    74 /* Table of sorted names. */
  8    75 dcl 1 debug_bit_names (38) static int options(constant)
  8    76 ,     2 name char(18)var init(
  8    77          "" ,"CFP_input" ,"abs" ,"attributes_mgr" ,"dq" ,"drl_addmem"
  8    78          ,"drl_callss" ,"drl_defil" ,"drl_dio" ,"drl_filact" ,"drl_filsp"
  8    79          ,"drl_grow" ,"drl_kin" ,"drl_morlnk" ,"drl_msub" ,"drl_part"
  8    80          ,"drl_retfil" ,"drl_rew" ,"drl_rstswh" ,"drl_setswh" ,"drl_switch"
  8    81          ,"drl_t_cfio" ,"expand_pathname" ,"filact_funct02" ,"filact_funct03"
  8    82          ,"filact_funct04" ,"filact_funct05" ,"filact_funct10" ,"filact_funct11"
  8    83          ,"filact_funct14" ,"filact_funct18" ,"filact_funct19" ,"filact_funct21"
  8    84          ,"filact_funct22" ,"interp_prim" ,"ios" ,"mcfc" ,"run_subsystem"
  8    85 			)
  8    86 ,     2 value fixed bin init(
  8    87          01 ,02 ,33 ,34 ,32 ,03 ,28 ,04 ,25 ,05 ,06 ,07 ,38 ,37 ,27 ,36 ,26 ,08
  8    88          ,29 ,30 ,24 ,23 ,35 ,09 ,10 ,11 ,12 ,13 ,14 ,15 ,16 ,17 ,18 ,19 ,20 ,21
  8    89          ,31 ,22
  8    90 			);
  8    91 /* End of table. */
  8    92 /*   END INCLUDE FILE gtss_db_names.incl.pl1 */
      188
      189      end						/* gtss_drl_switch_ */;
	SOURCE FILES USED IN THIS COMPILATION.

LINE      NUMBER  DATE MODIFIED     NAME			PATHNAME
             0    12/10/84  1043.4  gtss_drl_switch_.pl1              >spec>on>7105>gtss_drl_switch_.pl1
176          1    09/09/83  1713.8  gtss_ext_.incl.pl1                >ldd>include>gtss_ext_.incl.pl1
178          2    12/10/84  1029.8  gtss_pnterr.incl.pl1              >spec>on>7105>gtss_pnterr.incl.pl1
180          3    12/15/83  1100.4  mc.incl.pl1                       >ldd>include>mc.incl.pl1
182          4    12/10/84  1029.7  gtss_entry_dcls.incl.pl1          >spec>on>7105>gtss_entry_dcls.incl.pl1
184          5    09/09/83  1714.3  gtss_ust_ext_.incl.pl1            >ldd>include>gtss_ust_ext_.incl.pl1
186          6    09/09/83  1714.2  gtss_tfa_ext_.incl.pl1            >ldd>include>gtss_tfa_ext_.incl.pl1
6-14         7    09/09/83  1714.0  gtss_file_attributes.incl.pl1     >ldd>include>gtss_file_attributes.incl.pl1
188          8    09/09/83  1713.6  gtss_db_names.incl.pl1            >ldd>include>gtss_db_names.incl.pl1
	NAMES DECLARED IN THIS COMPILATION.

IDENTIFIER	     OFFSET    LOC STORAGE CLASS   DATA TYPE		ATTRIBUTES AND REFERENCES
								(* indicates a set context)

NAMES DECLARED BY DECLARE STATEMENT.
T                               000114 automatic       structure                level 1 dcl 67 set ref 170* 172
a                        24            based           bit(36)                  level 3 packed unaligned dcl 3-12 set ref 77* 132*
arg_ptr                         000100 automatic       pointer                  initial dcl 45 set ref 45* 90* 93 102 110 111
arglist                                based           structure                level 1 dcl 47
code                            000107 automatic       fixed bin(35,0)          dcl 60 set ref 113* 114 122* 123 131*
com_err_                        000016 constant        entry                    external dcl 4-8 ref 135 148 161
db_drl_switch                          defined         bit(1)                   unaligned dcl 8-32 ref 161
err4                     45(18) 000000 constant        char(50)                 initial level 2 packed unaligned dcl 2-9 set ref 82*
                                                                                  93* 102*
file_id_1                              based           fixed bin(18,0)          level 2 packed unsigned unaligned dcl 47 ref 93 110
file_id_1_name                         based           char(8)                  unaligned dcl 53 set ref 113* 114* 135* 161*
file_id_1_ptr                   000102 automatic       pointer                  initial dcl 51 set ref 51* 110* 113 114 135 161
file_id_2                 0(18)        based           fixed bin(18,0)          level 2 packed unsigned unaligned dcl 47 ref 102 111
file_id_2_name                         based           char(8)                  unaligned dcl 57 set ref 122* 123* 135* 161*
file_id_2_ptr                   000104 automatic       pointer                  initial dcl 55 set ref 55* 111* 122 123 135 161
file_no_1                       000110 automatic       fixed bin(24,0)          dcl 62 set ref 113* 131* 135* 148* 161* 170 171
file_no_2                       000111 automatic       fixed bin(24,0)          dcl 63 set ref 122* 131* 135* 148* 161* 171 172
gseg                            000112 automatic       pointer                  initial dcl 65 set ref 65* 79* 90 110 111
gtss_abort_subsystem_           000020 constant        entry                    external dcl 4-15 ref 82 93 102 114 123 139 151
gtss_aft_$find                  000022 constant        entry                    external dcl 4-28 ref 113 122
gtss_ext_$db                    000010 external static bit(1)                   array unaligned dcl 1-10 ref 161 161
gtss_ext_$gtss_slave_area_seg   000012 external static pointer                  array dcl 1-20 ref 79
gtss_ext_$stack_level_          000014 external static fixed bin(17,0)          dcl 1-31 ref 79
gtss_file_attributes                   based           structure                level 1 dcl 7-11
gtss_file_attributes_ptr        000124 automatic       pointer                  initial dcl 7-9 set ref 7-9*
gtss_ios_exchange_names_        000024 constant        entry                    external dcl 4-132 ref 131
gtss_pnterr                     000000 constant        structure                level 1 packed unaligned dcl 2-9
gtss_tfa_ext_$file_attributes   000030 external static structure                level 1 dcl 6-11
gtss_ust                        000026 external static structure                level 2 dcl 5-16
gtss_ust_ext_$ust               000026 external static structure                level 1 dcl 5-16
ilc                       4            based           bit(18)                  level 2 packed unaligned dcl 3-56 ref 82 82 82 90 93
                                                                                  93 102 102 139 139 151 151
increment                              parameter       fixed bin(17,0)          dcl 25 set ref 14 75* 158*
limit                    22(18) 000026 external static bit(18)                  level 4 packed unaligned dcl 5-16 ref 82 93 102
lsize                    22     000026 external static structure                level 3 dcl 5-16
mc                                     based           structure                level 1 dcl 3-12
mcp                             000120 automatic       pointer                  dcl 3-10 set ref 26* 73 77 82* 93* 102* 114* 123*
                                                                                  132 139* 151*
mcpp                                   parameter       pointer                  dcl 24 ref 14 26
regs                     20            based           structure                level 2 packed unaligned dcl 3-12
scu                                    based           structure                level 1 dcl 3-56 in procedure "gtss_drl_switch_"
scu                      30            based           bit(36)                  array level 2 in structure "mc" packed unaligned
                                                                                  dcl 3-12 in procedure "gtss_drl_switch_" set ref
                                                                                  73
scup                            000122 automatic       pointer                  dcl 3-54 set ref 73* 82 82 82 90 93 93 102 102 139
                                                                                  139 151 151
status                          000106 automatic       fixed bin(24,0)          dcl 59 set ref 131* 132 133 146
temp_file                       000030 external static structure                array level 2 dcl 6-11 set ref 170 171* 171 172*

NAMES DECLARED BY DECLARE STATEMENT AND NEVER REFERENCED.
abx                                    internal static fixed bin(17,0)          initial dcl 3-42
apx                                    internal static fixed bin(17,0)          initial dcl 3-42
bbx                                    internal static fixed bin(17,0)          initial dcl 3-42
bpx                                    internal static fixed bin(17,0)          initial dcl 3-42
db_                                    defined         bit(1)                   unaligned dcl 8-32
db_CFP_input                           defined         bit(1)                   unaligned dcl 8-32
db_abs                                 defined         bit(1)                   unaligned dcl 8-32
db_attributes_mgr                      defined         bit(1)                   unaligned dcl 8-32
db_dq                                  defined         bit(1)                   unaligned dcl 8-32
db_drl_addmem                          defined         bit(1)                   unaligned dcl 8-32
db_drl_callss                          defined         bit(1)                   unaligned dcl 8-32
db_drl_defil                           defined         bit(1)                   unaligned dcl 8-32
db_drl_dio                             defined         bit(1)                   unaligned dcl 8-32
db_drl_filact                          defined         bit(1)                   unaligned dcl 8-32
db_drl_filsp                           defined         bit(1)                   unaligned dcl 8-32
db_drl_grow                            defined         bit(1)                   unaligned dcl 8-32
db_drl_kin                             defined         bit(1)                   unaligned dcl 8-32
db_drl_morlnk                          defined         bit(1)                   unaligned dcl 8-32
db_drl_msub                            defined         bit(1)                   unaligned dcl 8-32
db_drl_part                            defined         bit(1)                   unaligned dcl 8-32
db_drl_retfil                          defined         bit(1)                   unaligned dcl 8-32
db_drl_rew                             defined         bit(1)                   unaligned dcl 8-32
db_drl_rstswh                          defined         bit(1)                   unaligned dcl 8-32
db_drl_setswh                          defined         bit(1)                   unaligned dcl 8-32
db_drl_t_cfio                          defined         bit(1)                   unaligned dcl 8-32
db_expand_pathname                     defined         bit(1)                   unaligned dcl 8-32
db_filact_funct02                      defined         bit(1)                   unaligned dcl 8-32
db_filact_funct03                      defined         bit(1)                   unaligned dcl 8-32
db_filact_funct04                      defined         bit(1)                   unaligned dcl 8-32
db_filact_funct05                      defined         bit(1)                   unaligned dcl 8-32
db_filact_funct10                      defined         bit(1)                   unaligned dcl 8-32
db_filact_funct11                      defined         bit(1)                   unaligned dcl 8-32
db_filact_funct14                      defined         bit(1)                   unaligned dcl 8-32
db_filact_funct18                      defined         bit(1)                   unaligned dcl 8-32
db_filact_funct19                      defined         bit(1)                   unaligned dcl 8-32
db_filact_funct21                      defined         bit(1)                   unaligned dcl 8-32
db_filact_funct22                      defined         bit(1)                   unaligned dcl 8-32
db_interp_prim                         defined         bit(1)                   unaligned dcl 8-32
db_ios                                 defined         bit(1)                   unaligned dcl 8-32
db_mcfc                                defined         bit(1)                   unaligned dcl 8-32
db_run_subsystem                       defined         bit(1)                   unaligned dcl 8-32
debug_bit_names                        internal static structure                array level 1 unaligned dcl 8-75
gtss_CFP_abort_                 000000 constant        entry                    external dcl 4-9
gtss_CFP_break_                 000000 constant        entry                    external dcl 4-10
gtss_CFP_input_                 000000 constant        entry                    external dcl 4-11
gtss_CFP_output_                000000 constant        entry                    external dcl 4-12
gtss_abandon_CFP_               000000 constant        entry                    external dcl 4-13
gtss_abort_dump_                000000 constant        entry                    external dcl 4-14
gtss_abort_subsystem_$not_imp   000000 constant        entry                    external dcl 4-16
gtss_abs_$abs_equiv             000000 constant        entry                    external dcl 4-19
gtss_abs_$cpu_runout            000000 constant        entry                    external dcl 4-20
gtss_abs_$create_absin          000000 constant        entry                    external dcl 4-21
gtss_abs_$dabt_check            000000 constant        entry                    external dcl 4-22
gtss_abs_$get_drm               000000 constant        entry                    external dcl 4-24
gtss_abs_$get_id                000000 constant        entry                    external dcl 4-23
gtss_abs_login_banner_          000000 constant        entry                    external dcl 4-17
gtss_abs_logout_banner_         000000 constant        entry                    external dcl 4-18
gtss_adjust_size_               000000 constant        entry                    external dcl 4-25
gtss_aft_$add                   000000 constant        entry                    external dcl 4-26
gtss_aft_$delete                000000 constant        entry                    external dcl 4-27
gtss_aft_$initialize            000000 constant        entry                    external dcl 4-29
gtss_ascii_bcd_                 000000 constant        entry                    external dcl 4-30
gtss_attributes_mgr_$get        000000 constant        entry                    external dcl 4-31
gtss_attributes_mgr_$set        000000 constant        entry                    external dcl 4-32
gtss_bcd_ascii_                 000000 constant        entry                    external dcl 4-33
gtss_bcd_ascii_$lc              000000 constant        entry                    external dcl 4-34
gtss_break_vector_              000000 constant        entry                    external dcl 4-35
gtss_break_vector_$drl_in_progress
                                000000 constant        entry                    external dcl 4-36
gtss_break_vector_$status       000000 constant        entry                    external dcl 4-37
gtss_build_                     000000 constant        entry                    external dcl 4-38
gtss_com_err_                   000000 constant        entry                    external dcl 4-39
gtss_derail_processor_          000000 constant        entry                    external dcl 4-40
gtss_derail_processor_$set      000000 constant        entry                    external dcl 4-41
gtss_dq_$catp                   000000 constant        entry                    external dcl 4-42
gtss_dq_$create                 000000 constant        entry                    external dcl 4-43
gtss_dq_$dibp                   000000 constant        entry                    external dcl 4-44
gtss_dq_$entries_info           000000 constant        entry                    external dcl 4-45
gtss_dq_$hdrp                   000000 constant        entry                    external dcl 4-46
gtss_dq_$mod_js                 000000 constant        entry                    external dcl 4-47
gtss_dq_$open_exc               000000 constant        entry                    external dcl 4-48
gtss_dq_$open_gen               000000 constant        entry                    external dcl 4-49
gtss_drl_abort_                 000000 constant        entry                    external dcl 4-50
gtss_drl_addmem_                000000 constant        entry                    external dcl 4-51
gtss_drl_callss_                000000 constant        entry                    external dcl 4-52
gtss_drl_corfil_                000000 constant        entry                    external dcl 4-53
gtss_drl_defil_                 000000 constant        entry                    external dcl 4-54
gtss_drl_defil_$subr            000000 constant        entry                    external dcl 4-55
gtss_drl_dio_                   000000 constant        entry                    external dcl 4-56
gtss_drl_drlimt_                000000 constant        entry                    external dcl 4-57
gtss_drl_drlsav_                000000 constant        entry                    external dcl 4-58
gtss_drl_filact_                000000 constant        entry                    external dcl 4-59
gtss_drl_filsp_                 000000 constant        entry                    external dcl 4-60
gtss_drl_grow_                  000000 constant        entry                    external dcl 4-61
gtss_drl_gwake_                 000000 constant        entry                    external dcl 4-62
gtss_drl_jsts_                  000000 constant        entry                    external dcl 4-63
gtss_drl_kin_                   000000 constant        entry                    external dcl 4-64
gtss_drl_kotnow_                000000 constant        entry                    external dcl 4-65
gtss_drl_kotnow_$gtss_drl_kout_ 000000 constant        entry                    external dcl 4-66
gtss_drl_koutn_                 000000 constant        entry                    external dcl 4-67
gtss_drl_morlnk_                000000 constant        entry                    external dcl 4-68
gtss_drl_msub_                  000000 constant        entry                    external dcl 4-69
gtss_drl_objtim_                000000 constant        entry                    external dcl 4-70
gtss_drl_part_                  000000 constant        entry                    external dcl 4-71
gtss_drl_pasaft_                000000 constant        entry                    external dcl 4-72
gtss_drl_pasdes_                000000 constant        entry                    external dcl 4-73
gtss_drl_pasust_                000000 constant        entry                    external dcl 4-74
gtss_drl_pdio_                  000000 constant        entry                    external dcl 4-75
gtss_drl_prgdes_                000000 constant        entry                    external dcl 4-76
gtss_drl_pseudo_                000000 constant        entry                    external dcl 4-77
gtss_drl_relmem_                000000 constant        entry                    external dcl 4-78
gtss_drl_restor_                000000 constant        entry                    external dcl 4-79
gtss_drl_retfil_                000000 constant        entry                    external dcl 4-80
gtss_drl_return_                000000 constant        entry                    external dcl 4-81
gtss_drl_rew_                   000000 constant        entry                    external dcl 4-82
gtss_drl_rstswh_                000000 constant        entry                    external dcl 4-83
gtss_drl_setlno_                000000 constant        entry                    external dcl 4-84
gtss_drl_setswh_                000000 constant        entry                    external dcl 4-85
gtss_drl_snumb_                 000000 constant        entry                    external dcl 4-86
gtss_drl_spawn_                 000000 constant        entry                    external dcl 4-87
gtss_drl_spawn_$gtss_drl_pasflr_
                                000000 constant        entry                    external dcl 4-88
gtss_drl_stoppt_                000000 constant        entry                    external dcl 4-89
gtss_drl_switch_                000000 constant        entry                    external dcl 4-90
gtss_drl_sysret_                000000 constant        entry                    external dcl 4-91
gtss_drl_t_cfio_                000000 constant        entry                    external dcl 4-92
gtss_drl_t_cmov_                000000 constant        entry                    external dcl 4-93
gtss_drl_t_err_                 000000 constant        entry                    external dcl 4-94
gtss_drl_t_goto_                000000 constant        entry                    external dcl 4-95
gtss_drl_t_linl_                000000 constant        entry                    external dcl 4-96
gtss_drl_t_rscc_                000000 constant        entry                    external dcl 4-97
gtss_drl_tapein_                000000 constant        entry                    external dcl 4-98
gtss_drl_task_                  000000 constant        entry                    external dcl 4-99
gtss_drl_termtp_                000000 constant        entry                    external dcl 4-100
gtss_drl_time_                  000000 constant        entry                    external dcl 4-101
gtss_drun_                      000000 constant        entry                    external dcl 4-102
gtss_dsd_lookup_                000000 constant        entry                    external dcl 4-103
gtss_dsd_process_               000000 constant        entry                    external dcl 4-104
gtss_edit_dsd_                  000000 constant        entry                    external dcl 4-105
gtss_expand_pathname_           000000 constant        entry                    external dcl 4-107
gtss_expand_pathname_$verify_umc
                                000000 constant        entry                    external dcl 4-108
gtss_ext_$CFP_bits                     external static structure                level 1 dcl 1-37
gtss_ext_$SYstarstar_file_no           external static fixed bin(24,0)          dcl 1-33
gtss_ext_$aem                          external static fixed bin(17,0)          dcl 1-8
gtss_ext_$aft                          external static structure                level 1 dcl 1-78
gtss_ext_$bad_drl_rtrn                 external static label variable           dcl 1-9
gtss_ext_$com_reg                      external static structure                level 1 dcl 1-45
gtss_ext_$deferred_catalogs_ptr        external static pointer                  dcl 1-11
gtss_ext_$dispose_of_drl               external static label variable           dcl 1-12
gtss_ext_$drl_rtrn                     external static label variable           array dcl 1-13
gtss_ext_$drm_path                     external static char(168)                unaligned dcl 1-14
gtss_ext_$drun_jid                     external static char(5)                  unaligned dcl 1-15
gtss_ext_$event_channel                external static fixed bin(71,0)          dcl 1-16
gtss_ext_$fast_lib                     external static structure                level 1 dcl 1-98
gtss_ext_$finished                     external static label variable           dcl 1-17
gtss_ext_$flags                        external static structure                level 1 dcl 1-60
gtss_ext_$gdb_name                     external static char(8)                  unaligned dcl 1-18
gtss_ext_$get_line                     external static entry variable           dcl 1-19
gtss_ext_$hcs_work_area_ptr            external static pointer                  dcl 1-21
gtss_ext_$homedir                      external static char(64)                 unaligned dcl 1-22
gtss_ext_$last_k_was_out               external static bit(1)                   dcl 1-23
gtss_ext_$mcfc                         external static structure                level 1 dcl 1-109
gtss_ext_$pdir                         external static varying char(168)        dcl 1-24
gtss_ext_$popup_from_pi                external static label variable           dcl 1-25
gtss_ext_$ppt                          external static pointer                  dcl 1-94
gtss_ext_$process_type                 external static fixed bin(17,0)          dcl 1-26
gtss_ext_$put_chars                    external static entry variable           dcl 1-27
gtss_ext_$restart_from_pi              external static label variable           dcl 1-28
gtss_ext_$restart_seg_ptr              external static pointer                  dcl 1-29
gtss_ext_$sig_ptr                      external static pointer                  dcl 1-30
gtss_ext_$statistics                   external static structure                level 1 dcl 1-72
gtss_ext_$suspended_process            external static bit(1)                   unaligned dcl 1-32
gtss_ext_$user_id                      external static varying char(26)         dcl 1-34
gtss_ext_$work_area_ptr                external static pointer                  dcl 1-35
gtss_fault_processor_           000000 constant        entry                    external dcl 4-109
gtss_fault_processor_$timer_runout
                                000000 constant        entry                    external dcl 4-111
gtss_filact_error_status_       000000 constant        entry                    external dcl 4-112
gtss_filact_funct02_            000000 constant        entry                    external dcl 4-113
gtss_filact_funct03_            000000 constant        entry                    external dcl 4-114
gtss_filact_funct04_            000000 constant        entry                    external dcl 4-115
gtss_filact_funct05_            000000 constant        entry                    external dcl 4-116
gtss_filact_funct08_            000000 constant        entry                    external dcl 4-117
gtss_filact_funct10_            000000 constant        entry                    external dcl 4-118
gtss_filact_funct11_            000000 constant        entry                    external dcl 4-119
gtss_filact_funct14_            000000 constant        entry                    external dcl 4-120
gtss_filact_funct18_            000000 constant        entry                    external dcl 4-121
gtss_filact_funct19_            000000 constant        entry                    external dcl 4-122
gtss_filact_funct21_            000000 constant        entry                    external dcl 4-123
gtss_filact_funct22_            000000 constant        entry                    external dcl 4-124
gtss_find_cond_frame_           000000 constant        entry                    external dcl 4-110
gtss_interp_prim_               000000 constant        entry                    external dcl 4-126
gtss_interp_prim_$callss        000000 constant        entry                    external dcl 4-127
gtss_interp_prim_$sysret        000000 constant        entry                    external dcl 4-128
gtss_interp_prim_$t_goto        000000 constant        entry                    external dcl 4-129
gtss_ios_change_size_           000000 constant        entry                    external dcl 4-130
gtss_ios_close_                 000000 constant        entry                    external dcl 4-131
gtss_ios_initialize_            000000 constant        entry                    external dcl 4-133
gtss_ios_io_                    000000 constant        entry                    external dcl 4-134
gtss_ios_open_                  000000 constant        entry                    external dcl 4-135
gtss_ios_position_              000000 constant        entry                    external dcl 4-136
gtss_mcfc_$close                000000 constant        entry                    external dcl 4-139
gtss_mcfc_$delete               000000 constant        entry                    external dcl 4-137
gtss_mcfc_$open                 000000 constant        entry                    external dcl 4-138
gtss_mcfc_empty                 000000 constant        entry                    external dcl 4-106
gtss_mcfc_init_                 000000 constant        entry                    external dcl 4-125
gtss_read_starCFP_              000000 constant        entry                    external dcl 4-140
gtss_read_starCFP_$last_os      000000 constant        entry                    external dcl 4-141
gtss_run_subsystem_             000000 constant        entry                    external dcl 4-142
gtss_run_subsystem_$finish      000000 constant        entry                    external dcl 4-143
gtss_run_subsystem_$restor      000000 constant        entry                    external dcl 4-144
gtss_run_subsystem_$restor_perm 000000 constant        entry                    external dcl 4-145
gtss_set_slave_                 000000 constant        entry                    external dcl 4-146
gtss_set_slave_$load_bar        000000 constant        entry                    external dcl 4-147
gtss_update_safe_store_         000000 constant        entry                    external dcl 4-148
gtss_verify_access_             000000 constant        entry                    external dcl 4-149
gtss_verify_access_$check_forced_access
                                000000 constant        entry                    external dcl 4-150
gtss_write_starCFP_             000000 constant        entry                    external dcl 4-151
lbx                                    internal static fixed bin(17,0)          initial dcl 3-42
lpx                                    internal static fixed bin(17,0)          initial dcl 3-42
sbx                                    internal static fixed bin(17,0)          initial dcl 3-42
scux                                   based           structure                level 1 dcl 3-207
spx                                    internal static fixed bin(17,0)          initial dcl 3-42

NAME DECLARED BY EXPLICIT CONTEXT.
gtss_drl_switch_                001675 constant        entry                    external dcl 14

NAMES DECLARED BY CONTEXT OR IMPLICATION.
addr                                                   builtin function         ref 73
addrel                                                 builtin function         ref 90 110 111
fixed                                                  builtin function         ref 82 82 82 82 90 93 93 93 102 102 102 139 139 151
                                                                                  151
null                                                   builtin function         ref 45 51 55 65 7-9

STORAGE REQUIREMENTS FOR THIS PROGRAM.

	Object	Text	Link	Symbol	Defs	Static
Start          0       0      3022        3054    2661        3032
Length      3412    2661        32         321     140           0

BLOCK NAME	         STACK SIZE     TYPE		WHY NONQUICK/WHO SHARES STACK FRAME
gtss_drl_switch_                    164 external procedure  is an external procedure.

STORAGE FOR AUTOMATIC VARIABLES.

STACK FRAME                 LOC IDENTIFIER                  BLOCK NAME
gtss_drl_switch_         000100 arg_ptr                     gtss_drl_switch_
                         000102 file_id_1_ptr               gtss_drl_switch_
                         000104 file_id_2_ptr               gtss_drl_switch_
                         000106 status                      gtss_drl_switch_
                         000107 code                        gtss_drl_switch_
                         000110 file_no_1                   gtss_drl_switch_
                         000111 file_no_2                   gtss_drl_switch_
                         000112 gseg                        gtss_drl_switch_
                         000114 T                           gtss_drl_switch_
                         000120 mcp                         gtss_drl_switch_
                         000122 scup                        gtss_drl_switch_
                         000124 gtss_file_attributes_ptr    gtss_drl_switch_

THE FOLLOWING EXTERNAL OPERATORS ARE USED BY THIS PROGRAM.
call_ext_out_desc   call_ext_out        return              ext_entry

THE FOLLOWING EXTERNAL ENTRIES ARE CALLED BY THIS PROGRAM.
com_err_                      gtss_abort_subsystem_         gtss_aft_$find                gtss_ios_exchange_names_

THE FOLLOWING EXTERNAL VARIABLES ARE USED BY THIS PROGRAM.
gtss_ext_$db                  gtss_ext_$gtss_slave_area_seg gtss_ext_$stack_level_        gtss_tfa_ext_$file_attributes
gtss_ust_ext_$ust


   LINE    LOC      LINE    LOC      LINE    LOC      LINE    LOC      LINE    LOC      LINE    LOC      LINE    LOC
     14 001671        45 001702        51 001704        55 001705        65 001706    7    9 001707        26 001710
     73 001714        75 001716        77 001720        79 001721        82 001726        90 002005        93 002016
    102 002073       110 002151       111 002156       113 002163       114 002175       122 002230       123 002243
    131 002276       132 002313       133 002322       135 002324       139 002373       145 002440       146 002441
    148 002443       151 002503       157 002550       158 002551       161 002554       170 002626       171 002641
    172 002651       174 002657


                                          -----------------------------------------------------------


Historical Background

This edition of the Multics software materials and documentation is provided and donated
to Massachusetts Institute of Technology by Group BULL including BULL HN Information Systems Inc.
as a contribution to computer science knowledge.
This donation is made also to give evidence of the common contributions of Massachusetts Institute of Technology,
Bell Laboratories, General Electric, Honeywell Information Systems Inc., Honeywell BULL Inc., Groupe BULL
and BULL HN Information Systems Inc. to the development of this operating system.
Multics development was initiated by Massachusetts Institute of Technology Project MAC (1963-1970),
renamed the MIT Laboratory for Computer Science and Artificial Intelligence in the mid 1970s, under the leadership
of Professor Fernando Jose Corbato. Users consider that Multics provided the best software architecture
for managing computer hardware properly and for executing programs. Many subsequent operating systems
incorporated Multics principles.
Multics was distributed in 1975 to 2000 by Group Bull in Europe , and in the U.S. by Bull HN Information Systems Inc.,
as successor in interest by change in name only to Honeywell Bull Inc. and Honeywell Information Systems Inc. .

                                          -----------------------------------------------------------

Permission to use, copy, modify, and distribute these programs and their documentation for any purpose and without
fee is hereby granted,provided that the below copyright notice and historical background appear in all copies
and that both the copyright notice and historical background and this permission notice appear in supporting
documentation, and that the names of MIT, HIS, BULL or BULL HN not be used in advertising or publicity pertaining
to distribution of the programs without specific prior written permission.
    Copyright 1972 by Massachusetts Institute of Technology and Honeywell Information Systems Inc.
    Copyright 2006 by BULL HN Information Systems Inc.
    Copyright 2006 by Bull SAS
    All Rights Reserved
