	COMPILATION LISTING OF SEGMENT !BBBJPMLHkXbmLK
	Compiled by: Multics PL/I Compiler, Release 28d, of October 4, 1983
	Compiled at: Honeywell Multics Op. - System M
	Compiled on: 12/10/84  1135.7 mst Mon
	    Options: table map

        1 /* ***********************************************************
        2*   *                                                         *
        3*   * Copyright, (C) Honeywell Information Systems Inc., 1983 *
        4*   *                                                         *
        5*   *********************************************************** */
        6 gtss_tfa_ext_:proc;
        7
        8 /* Generate object for "gtss_tfa_ext_" data.
        9*
       10*   Author:    Dave Ward 1981
       11*   Modified:  Ron Barstad  83-07-21  Remove dependency on ted_com, add include file
       12* */
       13 /** Initialize cds_args **/
       14
       15 	cds_args_ptr=addr(space_for_cds_args);
       16 	unspec(space_for_cds_args)="0"b;
       17
       18 /** Reference structure input to cds to assure it is in runtime table. **/
       19
       20 	if addr(gtss_tfa_ext_)=null() then ;
       21
       22 /** No text section **/
       23 	cds_args_ptr -> cds_args.sections (1).p = null ();
       24 	cds_args_ptr -> cds_args.sections (1).len = 0;
       25 	cds_args_ptr -> cds_args.sections (1).struct_name = "NO_TEXT";
       26
       27 /** Static section **/
       28 	cds_args_ptr -> cds_args.sections (2).p = addr (gtss_tfa_ext_);	/* Caller's data. */
       29 	cds_args_ptr -> cds_args.sections (2).len = size (gtss_tfa_ext_);	/* No. words in data structure. */
       30 	cds_args_ptr -> cds_args.sections (2).struct_name = "gtss_tfa_ext_";
       31
       32 	cds_args_ptr -> cds_args.seg_name = "gtss_tfa_ext_";	/* Entryname of object segment. */
       33 	cds_args_ptr -> cds_args.num_exclude_names = 0;		/* All level 2 names are entry points. */
       34 	cds_args_ptr -> cds_args.exclude_array_ptr = null ();
       35 	cds_args_ptr -> cds_args.switches.defs_in_link = "0"b;	/* Definitions contiguous to text section. */
       36 	cds_args_ptr -> cds_args.switches.separate_static = "0"b;	/* Static in linkage section (to bind). */
       37 	cds_args_ptr -> cds_args.switches.have_text = "0"b;	/* No text section. */
       38 	cds_args_ptr -> cds_args.switches.have_static = "1"b;	/* There is a static section. */
       39 	cds_args_ptr -> cds_args.switches.pad = "0"b;		/* Must be zeroes (see create_data_segment_). */
       40
       41 	call create_data_segment_ (cds_args_ptr, code);
       42 	if code ^= 0
       43 	   then
       44 	      call com_err_ (code, "cds_gtss_tfa_ext_");
       45 	   else
       46 	      call com_err_( 0,"gtss_tfa_ext_","Object for gtss_tfa_ext_ created [^i words].",size(gtss_tfa_ext_));
       47
       48 	return;
       49
       50 /** Data for cds **/
       51 dcl  addr                     builtin;
       52 dcl  cds_args_ptr             ptr init(null());
       53 dcl  code                     fixed bin(35);
       54 dcl  com_err_                 entry options(variable);
       55 dcl  create_data_segment_     entry(ptr,fixed bin(35));
       56 dcl  null                     builtin;
       57 dcl  size                     builtin;
       58 dcl  unspec                   builtin;
       59 dcl  1 space_for_cds_args     aligned like cds_args;
       60
       61 /** This data structure must exactly match that of gtss_tfa_ext_.incl.pl1 **/
       62
       63 dcl 1 gtss_tfa_ext_ aligned,
       64       2 file_attributes like gtss_tfa_ext_$file_attributes;
       65
  1     1 /* BEGIN INCLUDE FILE gtss_tfa_ext_.incl.pl1 */
  1     2 /*
  1     3*  Created: (Wardd Multics)  08/07/78 0911.6 mst Mon
  1     4**/
  1     5
  1     6 /* Structure to record file "attributes".
  1     7*   Note: gtss_dfd_ext_$disk_file_data(i).gtss_disk.attributes_ptr
  1     8*         locates gtss_tfa_ext_$file_attributes.temp_file(i).
  1     9**/
  1    10
  1    11 dcl 1 gtss_tfa_ext_$file_attributes	aligned ext,
  1    12       3 temp_file			(20) like  gtss_file_attributes;
  1    13
  2     1 /* BEGIN INCLUDE FILE gtss_file_attributes.incl.pl1 */
  2     2 /*
  2     3*  Created: (Kepner Multics)  06/02/78 1522.0 mst Fri
  2     4**/
  2     5
  2     6 /*	Declaration of File Attributes Segement	*/
  2     7
  2     8
  2     9 dcl  gtss_file_attributes_ptr ptr init(null());
  2    10
  2    11 dcl 1 gtss_file_attributes based (gtss_file_attributes_ptr) aligned,
  2    12     2 max_size fixed bin (24),			/* maximum size the file can grow to
  2    13*						   in 320 word blocks.  if = 0 then the
  2    14*						   file size is unlimited. */
  2    15     2 current_size fixed bin (24),			/* current size of the file in 320 word blocks */
  2    16     2 user_attributes aligned,
  2    17       3 non_null bit (1) unal,			/* 0 = this file has never been written to */
  2    18       3 user_attr bit (35) unal,			/* User defined attributes */
  2    19     2 descriptor aligned,
  2    20       3 device_type bit (6) unaligned,			/* currently ignored */
  2    21       3 words_block bit (12) unaligned,			/* number of words per physical block */
  2    22       3 llink_flag bit (1) unaligned,			/* if 0= size in links | 1= size in llinks */
  2    23       3 mode bit (1) unaligned,			/* 0= linked file | 1= random file */
  2    24       3 perm bit (1) unaligned,			/* 1=permanent file|0=not */
  2    25       3 fill bit (1) unaligned,
  2    26       3 size bit (14) unaligned;
  2    27
  2    28
  2    29 /*   END INCLUDE FILE gtss_file_attributes.incl.pl1 */
  1    14
  1    15
  1    16 /*   END INCLUDE FILE gtss_tfa_ext_.incl.pl1 */
       66
       67
  3     1 /* BEGIN INCLUDE FILE cds_args.incl.pl1 */
  3     2
  3     3 dcl 1 cds_args based aligned,
  3     4     2 sections (2),
  3     5       3 p ptr,					/* pointer to data for text/static section */
  3     6       3 len fixed bin (18),				/* size of text/static section */
  3     7       3 struct_name char (32),			/* name of declared structure for this section */
  3     8     2 seg_name char (32),				/* name to create segment by */
  3     9     2 num_exclude_names fixed bin,			/* number of names in exclude array */
  3    10     2 exclude_array_ptr ptr,				/* pointer to array of exclude names */
  3    11     2 switches,					/* control switches */
  3    12       3 defs_in_link bit (1) unal,			/* says put defs in linkage */
  3    13       3 separate_static bit (1) unal,			/* says separate static section is wanted */
  3    14       3 have_text bit (1) unal,			/* ON if text section given */
  3    15       3 have_static bit (1) unal,			/* ON if static section given */
  3    16       3 pad bit (32) unal;
  3    17
  3    18 dcl  exclude_names (1) char (32) based;			/* pointed to be cds_args.exclude_array_ptr */
  3    19
  3    20 /* END INCLUDE FILE cds_args.incl.pl1 */
       68
       69 end;
	SOURCE FILES USED IN THIS COMPILATION.

LINE      NUMBER  DATE MODIFIED     NAME			PATHNAME
             0    12/10/84  1044.6  !BBBJPMLHkXbmLK.pl1               >spec>on>7105>gtss_tfa_ext_.cds
66           1    09/09/83  1714.2  gtss_tfa_ext_.incl.pl1            >ldd>include>gtss_tfa_ext_.incl.pl1
1-14         2    09/09/83  1714.0  gtss_file_attributes.incl.pl1     >ldd>include>gtss_file_attributes.incl.pl1
68           3    04/01/76  2209.5  cds_args.incl.pl1                 >ldd>include>cds_args.incl.pl1
	NAMES DECLARED IN THIS COMPILATION.

IDENTIFIER	     OFFSET    LOC STORAGE CLASS   DATA TYPE		ATTRIBUTES AND REFERENCES
								(* indicates a set context)

NAMES DECLARED BY DECLARE STATEMENT.
addr                                                   builtin function         dcl 51 ref 15 20 28
cds_args                               based           structure                level 1 dcl 3-3
cds_args_ptr                    000100 automatic       pointer                  initial dcl 52 set ref 15* 23 24 25 28 29 30 32 33
                                                                                  34 35 36 37 38 39 41* 52*
code                            000102 automatic       fixed bin(35,0)          dcl 53 set ref 41* 42 42*
com_err_                        000012 constant        entry                    external dcl 54 ref 42 45
create_data_segment_            000014 constant        entry                    external dcl 55 ref 41
defs_in_link             44            based           bit(1)                   level 3 packed unaligned dcl 3-3 set ref 35*
exclude_array_ptr        42            based           pointer                  level 2 dcl 3-3 set ref 34*
gtss_file_attributes                   based           structure                level 1 dcl 2-11
gtss_file_attributes_ptr        000272 automatic       pointer                  initial dcl 2-9 set ref 2-9* 2-11 2-11 2-11 2-11
                                                                                  2-11 2-11 2-11 2-11 2-11 2-11 2-11 2-11 2-11 2-11
gtss_tfa_ext_                   000151 automatic       structure                level 1 dcl 63 set ref 20 28 29 45 45
gtss_tfa_ext_$file_attributes   000016 external static structure                level 1 dcl 1-11
have_static              44(03)        based           bit(1)                   level 3 packed unaligned dcl 3-3 set ref 38*
have_text                44(02)        based           bit(1)                   level 3 packed unaligned dcl 3-3 set ref 37*
len                       2            based           fixed bin(18,0)          array level 3 dcl 3-3 set ref 24* 29*
null                                                   builtin function         dcl 56 ref 20 23 34 52 2-9
num_exclude_names        40            based           fixed bin(17,0)          level 2 dcl 3-3 set ref 33*
p                                      based           pointer                  array level 3 dcl 3-3 set ref 23* 28*
pad                      44(04)        based           bit(32)                  level 3 packed unaligned dcl 3-3 set ref 39*
sections                               based           structure                array level 2 dcl 3-3
seg_name                 30            based           char(32)                 level 2 dcl 3-3 set ref 32*
separate_static          44(01)        based           bit(1)                   level 3 packed unaligned dcl 3-3 set ref 36*
size                                                   builtin function         dcl 57 ref 29 45 45
space_for_cds_args              000104 automatic       structure                level 1 dcl 59 set ref 15 16*
struct_name               3            based           char(32)                 array level 3 dcl 3-3 set ref 25* 30*
switches                 44            based           structure                level 2 dcl 3-3
unspec                                                 builtin function         dcl 58 set ref 16*

NAME DECLARED BY DECLARE STATEMENT AND NEVER REFERENCED.
exclude_names                          based           char(32)                 array unaligned dcl 3-18

NAME DECLARED BY EXPLICIT CONTEXT.
gtss_tfa_ext_                   000037 constant        entry                    external dcl 6

THERE WERE NO NAMES DECLARED BY CONTEXT OR IMPLICATION.

STORAGE REQUIREMENTS FOR THIS PROGRAM.

	Object	Text	Link	Symbol	Defs	Static
Start          0       0       302         322     220         312
Length      2240     220        20        1702      62           0

BLOCK NAME	         STACK SIZE     TYPE		WHY NONQUICK/WHO SHARES STACK FRAME
gtss_tfa_ext_                       238 external procedure  is an external procedure.

STORAGE FOR AUTOMATIC VARIABLES.

STACK FRAME                 LOC IDENTIFIER                  BLOCK NAME
gtss_tfa_ext_            000100 cds_args_ptr                gtss_tfa_ext_
                         000102 code                        gtss_tfa_ext_
                         000104 space_for_cds_args          gtss_tfa_ext_
                         000151 gtss_tfa_ext_               gtss_tfa_ext_
                         000272 gtss_file_attributes_ptr    gtss_tfa_ext_

THE FOLLOWING EXTERNAL OPERATORS ARE USED BY THIS PROGRAM.
call_ext_out_desc   call_ext_out        return              ext_entry

THE FOLLOWING EXTERNAL ENTRIES ARE CALLED BY THIS PROGRAM.
com_err_                      create_data_segment_

THE FOLLOWING EXTERNAL VARIABLES ARE USED BY THIS PROGRAM.
gtss_tfa_ext_$file_attributes


   LINE    LOC      LINE    LOC      LINE    LOC      LINE    LOC      LINE    LOC      LINE    LOC      LINE    LOC
      6 000036        52 000044    2    9 000046        15 000047        16 000051        20 000054        23 000062
     24 000064        25 000065        28 000070        29 000072        30 000074        32 000077        33 000102
     34 000103        35 000105        36 000107        37 000111        38 000113        39 000115        41 000117
     42 000127        45 000155        48 000214


Object Segment >spec>on>7105>gtss_tfa_ext_
Created on 12/10/84  1135.8 mst Mon
by GJohnson.SysMaint.m
using create_data_segment_, Version II of Friday, November 30, 1984

        Object    Text    Defs    Link    Symb  Static
Start        0       0       0      30     160      40
Length     363       0      30     130     167     120


3 Definitions:


segname:    gtss_tfa_ext_

link|10         file_attributes
symb|0          symbol_table


No Links.


                                          -----------------------------------------------------------


Historical Background

This edition of the Multics software materials and documentation is provided and donated
to Massachusetts Institute of Technology by Group BULL including BULL HN Information Systems Inc.
as a contribution to computer science knowledge.
This donation is made also to give evidence of the common contributions of Massachusetts Institute of Technology,
Bell Laboratories, General Electric, Honeywell Information Systems Inc., Honeywell BULL Inc., Groupe BULL
and BULL HN Information Systems Inc. to the development of this operating system.
Multics development was initiated by Massachusetts Institute of Technology Project MAC (1963-1970),
renamed the MIT Laboratory for Computer Science and Artificial Intelligence in the mid 1970s, under the leadership
of Professor Fernando Jose Corbato. Users consider that Multics provided the best software architecture
for managing computer hardware properly and for executing programs. Many subsequent operating systems
incorporated Multics principles.
Multics was distributed in 1975 to 2000 by Group Bull in Europe , and in the U.S. by Bull HN Information Systems Inc.,
as successor in interest by change in name only to Honeywell Bull Inc. and Honeywell Information Systems Inc. .

                                          -----------------------------------------------------------

Permission to use, copy, modify, and distribute these programs and their documentation for any purpose and without
fee is hereby granted,provided that the below copyright notice and historical background appear in all copies
and that both the copyright notice and historical background and this permission notice appear in supporting
documentation, and that the names of MIT, HIS, BULL or BULL HN not be used in advertising or publicity pertaining
to distribution of the programs without specific prior written permission.
    Copyright 1972 by Massachusetts Institute of Technology and Honeywell Information Systems Inc.
    Copyright 2006 by BULL HN Information Systems Inc.
    Copyright 2006 by Bull SAS
    All Rights Reserved
