	COMPILATION LISTING OF SEGMENT !BBBJPMLHfHmGXk
	Compiled by: Multics PL/I Compiler, Release 28d, of October 4, 1983
	Compiled at: Honeywell Multics Op. - System M
	Compiled on: 12/10/84  1133.4 mst Mon
	    Options: table map

        1 /* ***********************************************************
        2*   *                                                         *
        3*   * Copyright, (C) Honeywell Information Systems Inc., 1983 *
        4*   *                                                         *
        5*   *********************************************************** */
        6 gtss_def_q_:proc;
        7
        8 /* Generate object for "gtss_def_q_" data.
        9*
       10*   Author:    Dave Ward 1981
       11*   Modified:  Ron Barstad  83-07-21  Remove dependency on ted_com, add include file
       12* */
       13 /** Initialize cds_args **/
       14
       15 	cds_args_ptr=addr(space_for_cds_args);
       16 	unspec(space_for_cds_args)="0"b;
       17
       18 /** Reference structure input to cds to assure it is in runtime table. **/
       19
       20 	if addr(gtss_def_q_)=null() then ;
       21
       22 /** No text section **/
       23 	cds_args_ptr -> cds_args.sections (1).p = null ();
       24 	cds_args_ptr -> cds_args.sections (1).len = 0;
       25 	cds_args_ptr -> cds_args.sections (1).struct_name = "NO_TEXT";
       26
       27 /** Static section **/
       28 	cds_args_ptr -> cds_args.sections (2).p = addr (gtss_def_q_);	/* Caller's data. */
       29 	cds_args_ptr -> cds_args.sections (2).len = size (gtss_def_q_);	/* No. words in data structure. */
       30 	cds_args_ptr -> cds_args.sections (2).struct_name = "gtss_def_q_";
       31
       32 	cds_args_ptr -> cds_args.seg_name = "gtss_def_q_";	/* Entryname of object segment. */
       33 	cds_args_ptr -> cds_args.num_exclude_names = 0;		/* All level 2 names are entry points. */
       34 	cds_args_ptr -> cds_args.exclude_array_ptr = null ();
       35 	cds_args_ptr -> cds_args.switches.defs_in_link = "0"b;	/* Definitions contiguous to text section. */
       36 	cds_args_ptr -> cds_args.switches.separate_static = "0"b;	/* Static in linkage section (to bind). */
       37 	cds_args_ptr -> cds_args.switches.have_text = "0"b;	/* No text section. */
       38 	cds_args_ptr -> cds_args.switches.have_static = "1"b;	/* There is a static section. */
       39 	cds_args_ptr -> cds_args.switches.pad = "0"b;		/* Must be zeroes (see create_data_segment_). */
       40
       41 	call create_data_segment_ (cds_args_ptr, code);
       42 	if code ^= 0
       43 	   then
       44 	      call com_err_ (code, "cds_gtss_def_q_");
       45 	   else
       46 	      call com_err_( 0,"gtss_def_q_","Object for gtss_def_q_ created [^i words].",size(gtss_def_q_));
       47
       48 	return;
       49
       50 /** Data for cds **/
       51 dcl  addr                     builtin;
       52 dcl  cds_args_ptr             ptr init(null());
       53 dcl  code                     fixed bin(35);
       54 dcl  com_err_                 entry options(variable);
       55 dcl  create_data_segment_     entry(ptr,fixed bin(35));
       56 dcl  null                     builtin;
       57 dcl  size                     builtin;
       58 dcl  unspec                   builtin;
       59 dcl  1 space_for_cds_args     aligned like cds_args;
       60
       61 /** This data structure must exactly match that of gtss_def_q_.incl.pl1 **/
       62
       63 dcl 1 gtss_def_q_ aligned,
       64       2 FILE like gtss_def_q_$FILE;
       65
  1     1 /* BEGIN INCLUDE FILE gtss_def_q_.incl.pl1 */
  1     2 /*
  1     3*  Created:  (Dupuis Multics)  08/02/79 0559.5 mst Thu
  1     4**/
  1     5 dcl	1 gtss_def_q_$FILE	aligned static ext
  1     6 ,	  3 select_sequence
  1     7 ,	    4 OP1			/* Seek operation. */
  1     8 ,	      5 Device_Command	bit(06)unal
  1     9 ,	      5 zeroes_1		fixed bin(12)unsigned unal
  1    10 ,	      5 IOC_Command		bit(05)unal
  1    11 ,	      5 zeroes_2		fixed bin(01)unsigned unal
  1    12 ,	      5 Control		fixed bin(06)unsigned unal
  1    13 ,	      5 Count		fixed bin(06)unsigned unal
  1    14
  1    15 ,	    4 ID1
  1    16 ,	      5 fcb_loc		bit(18)unal
  1    17 ,	      5 DCW_list_loc	bit(18)unal
  1    18
  1    19 ,	    4 OP2			/* Write opteration. */
  1    20 ,	      5 Device_Command	bit(06)unal
  1    21 ,	      5 zeroes_1		fixed bin(12)unsigned unal
  1    22 ,	      5 IOC_Command		bit(05)unal
  1    23 ,	      5 zeroes_2		fixed bin(01)unsigned unal
  1    24 ,	      5 Control		fixed bin(06)unsigned unal
  1    25 ,	      5 Count		fixed bin(06)unsigned unal
  1    26
  1    27 ,	    4 ID2
  1    28 ,	      5 fcb_loc		bit(18)unal
  1    29 ,	      5 DCW_list_loc	bit(18)unal
  1    30
  1    31 ,	    4 RETURN_WORD
  1    32 ,	      5 Status_loc		bit(18)unal
  1    33 ,	      5 Courtesy_Call_loc	bit(18)unal
  1    34
  1    35 ,	  3 Seek_Word
  1    36 ,	    4 Seek_loc		bit(18)unal
  1    37 ,	    4 Seek_count		fixed bin(18)unsigned unal
  1    38 ,	  3 Seek_Address		fixed bin(35)
  1    39 ,	  3 STATUS		bit(72) unal
  1    40
  1    41 ,	  3 DCW
  1    42 ,	    4 memory_loc		bit(18)unal
  1    43 ,	    4 zeroes_3		fixed bin(03)unsigned unal
  1    44 ,	    4 action_code		fixed bin(03)unsigned unal
  1    45 ,	    4 word_count		fixed bin(12)unsigned unal
  1    46
  1    47 ,	  3 RECORD
  1    48 ,	    4 no_characters		fixed bin(18)unsigned unal
  1    49 ,	    4 zeroes_4		bit(18)unal
  1    50 ,	    4 chars		char(252)
  1    51 ,	  3 DQ			char (8)
  1    52 ;
  1    53 /*   END INCLUDE FILE gtss_def_q_.incl.pl1 */
       66
       67
  2     1 /* BEGIN INCLUDE FILE cds_args.incl.pl1 */
  2     2
  2     3 dcl 1 cds_args based aligned,
  2     4     2 sections (2),
  2     5       3 p ptr,					/* pointer to data for text/static section */
  2     6       3 len fixed bin (18),				/* size of text/static section */
  2     7       3 struct_name char (32),			/* name of declared structure for this section */
  2     8     2 seg_name char (32),				/* name to create segment by */
  2     9     2 num_exclude_names fixed bin,			/* number of names in exclude array */
  2    10     2 exclude_array_ptr ptr,				/* pointer to array of exclude names */
  2    11     2 switches,					/* control switches */
  2    12       3 defs_in_link bit (1) unal,			/* says put defs in linkage */
  2    13       3 separate_static bit (1) unal,			/* says separate static section is wanted */
  2    14       3 have_text bit (1) unal,			/* ON if text section given */
  2    15       3 have_static bit (1) unal,			/* ON if static section given */
  2    16       3 pad bit (32) unal;
  2    17
  2    18 dcl  exclude_names (1) char (32) based;			/* pointed to be cds_args.exclude_array_ptr */
  2    19
  2    20 /* END INCLUDE FILE cds_args.incl.pl1 */
       68
       69 end;
	SOURCE FILES USED IN THIS COMPILATION.

LINE      NUMBER  DATE MODIFIED     NAME			PATHNAME
             0    12/10/84  1042.9  !BBBJPMLHfHmGXk.pl1               >spec>on>7105>gtss_def_q_.cds
66           1    09/09/83  1713.6  gtss_def_q_.incl.pl1              >ldd>include>gtss_def_q_.incl.pl1
68           2    04/01/76  2209.5  cds_args.incl.pl1                 >ldd>include>cds_args.incl.pl1
	NAMES DECLARED IN THIS COMPILATION.

IDENTIFIER	     OFFSET    LOC STORAGE CLASS   DATA TYPE		ATTRIBUTES AND REFERENCES
								(* indicates a set context)

NAMES DECLARED BY DECLARE STATEMENT.
addr                                                   builtin function         dcl 51 ref 15 20 28
cds_args                               based           structure                level 1 dcl 2-3
cds_args_ptr                    000100 automatic       pointer                  initial dcl 52 set ref 15* 23 24 25 28 29 30 32 33
                                                                                  34 35 36 37 38 39 41* 52*
code                            000102 automatic       fixed bin(35,0)          dcl 53 set ref 41* 42 42*
com_err_                        000012 constant        entry                    external dcl 54 ref 42 45
create_data_segment_            000014 constant        entry                    external dcl 55 ref 41
defs_in_link             44            based           bit(1)                   level 3 packed unaligned dcl 2-3 set ref 35*
exclude_array_ptr        42            based           pointer                  level 2 dcl 2-3 set ref 34*
gtss_def_q_                     000151 automatic       structure                level 1 dcl 63 set ref 20 28 29 45 45
gtss_def_q_$FILE                000016 external static structure                level 1 dcl 1-5
have_static              44(03)        based           bit(1)                   level 3 packed unaligned dcl 2-3 set ref 38*
have_text                44(02)        based           bit(1)                   level 3 packed unaligned dcl 2-3 set ref 37*
len                       2            based           fixed bin(18,0)          array level 3 dcl 2-3 set ref 24* 29*
null                                                   builtin function         dcl 56 ref 20 23 34 52
num_exclude_names        40            based           fixed bin(17,0)          level 2 dcl 2-3 set ref 33*
p                                      based           pointer                  array level 3 dcl 2-3 set ref 23* 28*
pad                      44(04)        based           bit(32)                  level 3 packed unaligned dcl 2-3 set ref 39*
sections                               based           structure                array level 2 dcl 2-3
seg_name                 30            based           char(32)                 level 2 dcl 2-3 set ref 32*
separate_static          44(01)        based           bit(1)                   level 3 packed unaligned dcl 2-3 set ref 36*
size                                                   builtin function         dcl 57 ref 29 45 45
space_for_cds_args              000104 automatic       structure                level 1 dcl 59 set ref 15 16*
struct_name               3            based           char(32)                 array level 3 dcl 2-3 set ref 25* 30*
switches                 44            based           structure                level 2 dcl 2-3
unspec                                                 builtin function         dcl 58 set ref 16*

NAME DECLARED BY DECLARE STATEMENT AND NEVER REFERENCED.
exclude_names                          based           char(32)                 array unaligned dcl 2-18

NAME DECLARED BY EXPLICIT CONTEXT.
gtss_def_q_                     000035 constant        entry                    external dcl 6

THERE WERE NO NAMES DECLARED BY CONTEXT OR IMPLICATION.

STORAGE REQUIREMENTS FOR THIS PROGRAM.

	Object	Text	Link	Symbol	Defs	Static
Start          0       0       274         314     215         304
Length      2432     215        20        2102      57           0

BLOCK NAME	         STACK SIZE     TYPE		WHY NONQUICK/WHO SHARES STACK FRAME
gtss_def_q_                         230 external procedure  is an external procedure.

STORAGE FOR AUTOMATIC VARIABLES.

STACK FRAME                 LOC IDENTIFIER                  BLOCK NAME
gtss_def_q_              000100 cds_args_ptr                gtss_def_q_
                         000102 code                        gtss_def_q_
                         000104 space_for_cds_args          gtss_def_q_
                         000151 gtss_def_q_                 gtss_def_q_

THE FOLLOWING EXTERNAL OPERATORS ARE USED BY THIS PROGRAM.
call_ext_out_desc   call_ext_out        return              ext_entry

THE FOLLOWING EXTERNAL ENTRIES ARE CALLED BY THIS PROGRAM.
com_err_                      create_data_segment_

THE FOLLOWING EXTERNAL VARIABLES ARE USED BY THIS PROGRAM.
gtss_def_q_$FILE


   LINE    LOC      LINE    LOC      LINE    LOC      LINE    LOC      LINE    LOC      LINE    LOC      LINE    LOC
      6 000034        52 000042        15 000044        16 000046        20 000051        23 000057        24 000061
     25 000062        28 000065        29 000067        30 000071        32 000074        33 000077        34 000100
     35 000102        36 000104        37 000106        38 000110        39 000112        41 000114        42 000124
     45 000152        48 000211


Object Segment >spec>on>7105>gtss_def_q_
Created on 12/10/84  1133.5 mst Mon
by GJohnson.SysMaint.m
using create_data_segment_, Version II of Friday, November 30, 1984

        Object    Text    Defs    Link    Symb  Static
Start        0       0       0      26     152      36
Length     335       0      26     124     147     114


3 Definitions:


segname:    gtss_def_q_

link|10         FILE
symb|0          symbol_table


No Links.


                                          -----------------------------------------------------------


Historical Background

This edition of the Multics software materials and documentation is provided and donated
to Massachusetts Institute of Technology by Group BULL including BULL HN Information Systems Inc.
as a contribution to computer science knowledge.
This donation is made also to give evidence of the common contributions of Massachusetts Institute of Technology,
Bell Laboratories, General Electric, Honeywell Information Systems Inc., Honeywell BULL Inc., Groupe BULL
and BULL HN Information Systems Inc. to the development of this operating system.
Multics development was initiated by Massachusetts Institute of Technology Project MAC (1963-1970),
renamed the MIT Laboratory for Computer Science and Artificial Intelligence in the mid 1970s, under the leadership
of Professor Fernando Jose Corbato. Users consider that Multics provided the best software architecture
for managing computer hardware properly and for executing programs. Many subsequent operating systems
incorporated Multics principles.
Multics was distributed in 1975 to 2000 by Group Bull in Europe , and in the U.S. by Bull HN Information Systems Inc.,
as successor in interest by change in name only to Honeywell Bull Inc. and Honeywell Information Systems Inc. .

                                          -----------------------------------------------------------

Permission to use, copy, modify, and distribute these programs and their documentation for any purpose and without
fee is hereby granted,provided that the below copyright notice and historical background appear in all copies
and that both the copyright notice and historical background and this permission notice appear in supporting
documentation, and that the names of MIT, HIS, BULL or BULL HN not be used in advertising or publicity pertaining
to distribution of the programs without specific prior written permission.
    Copyright 1972 by Massachusetts Institute of Technology and Honeywell Information Systems Inc.
    Copyright 2006 by BULL HN Information Systems Inc.
    Copyright 2006 by Bull SAS
    All Rights Reserved
