ASSEMBLY LISTING OF SEGMENT >spec>on>7105>gtss_prgdes_ext_.alm
ASSEMBLED ON:	12/10/84  1137.2 mst Mon
OPTIONS USED:	list
ASSEMBLED BY:	ALM Version  6.6  November 1982
ASSEMBLER CREATED:	09/21/83  1227.3 mst Wed

                                     1  "  ***********************************************************
                                     2  "  *                                                         *
                                     3  "  *                                                         *
                                     4  "  * Copyright, (C) Honeywell Information Systems Inc., 1981 *
                                     5  "  *                                                         *
                                     6  "  *                                                         *
                                     7  "  ***********************************************************
                                     8
                                     9  "	Source for gtss program descriptors data base
                                    10  "
                                    11  "	Created by: Dave Ward		06/08/78
                                    12  "
                                    13  "	Include macros generated by execution of
                                    14  "	on entries:
                                    15  "	ted$com >udd>Gcos>gtss>tools>gtss
                                    16  "  |translate_prgdes       (ANK) Produce gtss_prgdes from TSSA source.
                                    17  "  |get_gtss_names         (ANK) Extract list of GECALL names form gtss_prgdes
                                    18  "  |add_prgdes_info        (ANK) Add SS info (length, entry point, location) to program descriptors.
                                    19  "
                                    20  "	Changed by:	Dave Ward		06/08/78
                                    21  "			ust portion removed (gtss_ext_data_.incl.alm)
                                    22  "
    000000                          23  	name	gtss_prgdes_ext_
                                    24  	include	gtss_prgdes_macros_
                                   1-1  " BEGIN INCLUDE FILE  gtss_prgdes_macros_.incl.alm
                                   1-2  "
                                   1-3  " Created:  Kepner 1978
                                   1-4  " Modified:  Ron Barstad  82-08-09  To add .BCACH def
                                   1-5  "                                   Add qstring macro
                                   1-6  " Modified:  Ron Barstad  83-05-19  To add .BSCF def
                                   1-7  "
                                   1-8  	macro	BIN
                              1    1-9  	zero	0,3
                              2   1-10  	&end
                                  1-11
                                  1-12  	macro	CALLP
                              1   1-13  	vfd	18/&=&1,0&[0&;(&1-.TPD)/12+1&],6/&=1&2,1&[0,6/0&;1,6/&2&],6/1
                              2   1-14  	&end
                                  1-15
                                  1-16  	macro	EVEN
                              1   1-17  	even
                              2   1-18  	&end
                                  1-19
                                  1-20  	macro	EXEC
                              1   1-21  	zero	0,2
                              2   1-22  	&end
                                  1-23
                                  1-24  	macro	IFALSE
                              1   1-25  	vfd	18/&2-BASNM,12/&1,6/8
                              2   1-26  	&end
                                  1-27
                                  1-28  	macro	IFTRUE
                              1   1-29  	vfd	18/&2-BASNM,12/&1,6/9
                              2   1-30  	&end
                                  1-31
                                  1-32  	macro	NULL
                              1   1-33  	null
                              2   1-34  	&end
                                  1-35
                                  1-36  	macro	POPUP
                              1   1-37  	zero	0,4
                              2   1-38  	&end
                                  1-39
                                  1-40  	macro	PRGDES
                              1   1-41  "	word 1	ss_name
                              2   1-42  	ife	1&8,1
                              3   1-43  	zero
                              4   1-44  	ifend
                              5   1-45  	ine	1&8,1
                              6   1-46  	qstring	&8
                              7   1-47  	ifend
                              8   1-48  "	word 2	program_size, load_size
                              9   1-49  	zero	&4,&5
                             10   1-50  "	word 3	entry_point, parameters
                             11   1-51  	zero	&6,&11
                             12   1-52  "	word 4	seek_address,initial_load_address
                             13   1-53  	zero	&3,&7
                             14   1-54  "	word 5	command language offset and length
                             15   1-55  	ine 1&9,1
                             16   1-56  &(9&=&x,1&[	zero	&i-BASNM&]&=&x,2&[,&i&]&)
                             17   1-57  	ifend
                             18   1-58  	ife	1&9,1
                             19   1-59  	zero
                             20   1-60  	ifend
                             21   1-61  "	words 6-9 statistics
                             22   1-62  	dec 0,0,0,0
                             23   1-63  "	word 10	BCI catalog name
                             24   1-64  	ife	1&10,1
                             25   1-65  	zero
                             26   1-66  	ifend
                             27   1-67  	ine	1&10,1
                             28   1-68  	bci	"&10",6
                             29   1-69  	ifend
                             30   1-70  "	word 11	library, component
                             31   1-71  	zero	&1,&2
                             32   1-72  "	word 12	ss_name length
                             33   1-73  	ife	1&8,1
                             34   1-74  	zero
                             35   1-75  	ifend
                             36   1-76  	ine	1&8,1
                             37   1-77  	zero	,&l8
                             38   1-78  	ifend
                             39   1-79  	&end
                                  1-80
                                  1-81  	macro	STFALS
                              1   1-82  	vfd	18/&2-BASNM,12/&1,6/10
                              2   1-83  	&end
                                  1-84
                                  1-85  	macro	STRUE
                              1   1-86  	vfd	18/&2-BASNM,12/&1,6/11
                              2   1-87  	&end
                                  1-88
                                  1-89  	macro	SYSTM
                              1   1-90  	zero	0,7
                              2   1-91  	&end
                                  1-92
                                  1-93  	macro	XCALL
                              1   1-94         CALLP   BSED,17
                              2   1-95         CALLP   &1
                              3   1-96  	ife	&2,BIN
                              4   1-97         BIN
                              5   1-98  	ifend
                              6   1-99  	&end
                                 1-100
                                 1-101  	macro	ZEROP
                              1  1-102  	zero	&1-BASNM
                              2  1-103  	&end
                                 1-104
                                 1-105  	macro	qstring
                              1  1-106  	ife	&1,@
                              2  1-107  	aci	~"~,4
                              3  1-108  	ifend
                              4  1-109  	ine	&1,@
                              5  1-110  	aci	"&1",4
                              6  1-111  	ifend
                              7  1-112  	&end
                                 1-113
                                 1-114  
                                 1-115  "
                                 1-116  "	.LSWTH SYMBOLIC BIT POSITION DEFINITIONS.
                                 1-117  "
                        000000   1-118  	equ	.SW0,0
                        000001   1-119  	equ	.SW1,1
                        000002   1-120  	equ	.SW2,2
                        000003   1-121  	equ	.SW3,3
                        000004   1-122  	equ	.SW4,4
                        000005   1-123  	equ	.SW5,5
                        000006   1-124  	equ	.SW6,6
                        000007   1-125  	equ	.SW7,7
                        000010   1-126  	equ	.SW8,8
                        000011   1-127  	equ	.SW9,9
                        000012   1-128  	equ	.SW10,10
                        000013   1-129  	equ	.SW11,11
                        000014   1-130  	equ	.SW12,12
                        000015   1-131  	equ	.SW13,13
                        000016   1-132  	equ	.SW14,14
                        000017   1-133  	equ	.SW15,15
                        000020   1-134  	equ	.SW16,16
                        000021   1-135  	equ	.SW17,17
                                 1-136  "	.LSWT2 DEFINITIONS (PRESENTLY IN USE).
                        000044   1-137  	equ	.SW36,36		databasic - update primitive flag.
                        000045   1-138  	equ	.SW37,37		databasic - rerun primitive flag.
                        000046   1-139  	equ	.SW38,38		vip terminal ucase/lcase control.
                        000047   1-140  	equ	.SW39,39		vip terminal form/nform control.
                        000050   1-141  	equ	.SW40,40		set by runy to invoke fortran compiler.
                        000051   1-142  	equ	.SW41,41		cf processing $*$trap control.
                        000052   1-143  	equ	.SW42,42		tex - term ss on any T.ERR occurrence.
                                 1-144  
                                 1-145  "	PROGRAM DESCRIPTOR PARAMETER BIT FLAGS
                        000001   1-146         bool      .BPRIV,1      PRIVILEGED SUBSYSTEM.                    D.2
                        000002   1-147         bool      .BMAST,2      MASTER SUBSYSTEM.                        D.2
                        000004   1-148         bool      .BPTCH,4      SUBSYSTEM MUST BE PATCHED WHEN LOADED.   D.2
                        000010   1-149         bool      .BLUSE,10     LOW USE SUBSYSTEM (# Q FILE)             D.2
                        000020   1-150         bool      .BCMCL,20     SUBSYSTEM USES COMMON COMMAND LIST.      D.2
                        000040   1-151         bool      .BASIC,40     BASIC OR DATABASIC                       D.2
                        000100   1-152         bool      .BLSMC,100    SUBSYSTEM CAN READ SYSTEM MASTER CATALOG.D.2
                        000200   1-153         bool      .BEXEC,200    EXECUTE PERMISSION ALLOWED FOR FILE I/O. D.2
                        000400   1-154         bool      .BGSPC,400    SUBSYSTEM ALLOWED USE OF GET-SPECIFIC.   D.2
                        001000   1-155         bool      .BNSYS,1000   SS NOT CALLABLE AT SYSTEM LEVEL.         SR-H
                        002000   1-156         bool      .BTFSW,2000   SPECIAL FILE SWITCH (PERM/TEMP) ALLOWED. SR-H
                        004000   1-157         bool      .BHUSE,4000   HIGH USE PROGRAM FILE,  #P               SR-H
                        010000   1-158         bool      .BSPO,10000   SPECIAL PRODUCT OFFERING.                SR-H
                        020000   1-159         bool      .BCMOV,20000  DRL T.CMOV PERMISSION                    SR.3/I
                        040000   1-160         bool      .BMASX,40000  DRL T.EXEC PERMISSION.                   SR.3/I
                        100000   1-161         bool      .BSPSZ,100000 SPECIAL SIZE REQUEST                     SR.3/I
                        200000   1-162         bool      .BSCF,200000                                           4JS3
                        400000   1-163         bool      .BCACH,400000 CACHE                                    4JS3
                                 1-164  " END INCLUDE FILE gtss_prgdes_macros_.incl.alm
                                    25  	include	gtss_prgdes_alm_
                                   2-1  " BEGIN INCLUDE FILE  gtss_prgdes_alm_.incl.alm
                                   2-2  "
                                   2-3  " Created:  Kepner 1978
                                   2-4  " Modified: Ron Barstad  82-08-09  Add label .TPD
                                   2-5  "                                  fix BASIC call name,
                                   2-6  "                                  change leading 7 digit on 7P0..7K5 names,
                                   2-7  "                                  change leading 7 on 7FOR,
                                   2-8  "                                  and other misc fixes for 4JS3.
                                   2-9  " Modified: Ron Barstad  83-01-14  Changed PSP Fortran names .YPxxx to .YQxxx
                                  2-10  " Modified: Ron Barstad  83-05-09  Brought up to 4JS3 Update 7
                                  2-11  "
                                  2-12            use       loc1
                                  2-13            even
                        000000    2-14  segdef    prgdes
    000000                        2-15  prgdes:   null
                                  2-16  .TPRGD:NULL                    ORIGIN OF PROGRAM DESCRIPTORS
    000000                              	null
                                  2-17  .TPD:  NULL
    000000                              	null
                                  2-18  " Program descriptor 1.
                                  2-19  CARD:  PRGDES  0,0,0,0,0,0,0,
                                  2-20                 card,(CARDCL,1),,.BCMCL                                  4.2
                                        "	word 1	ss_name
                                        	qstring	card
    000000  aa  143 141 162 144         	aci	"card",4
                                        "	word 2	program_size, load_size
    000001  aa   000000 000000          	zero	0,0
                                        "	word 3	entry_point, parameters
    000002  aa   000000 000020          	zero	0,.BCMCL
                                        "	word 4	seek_address,initial_load_address
    000003  aa   000000 000000          	zero	0,0
                                        "	word 5	command language offset and length
    000004  aa   001402 000001          	zero	CARDCL-BASNM,1
                                        "	words 6-9 statistics
    000005  aa   000000 000000          	dec 0,0,0,0
    000006  aa   000000 000000
    000007  aa   000000 000000
    000010  aa   000000 000000
                                        "	word 10	BCI catalog name
    000011  aa   000000 000000          	zero
                                        "	word 11	library, component
    000012  aa   000000 000000          	zero	0,0
                                        "	word 12	ss_name length
    000013  aa   000000 000004          	zero	,4
                                  2-21  " Program descriptor 2.
                                  2-22  CARDIN:PRGDES  1,0,8489,5190,5084,112,106,  " Added by gtbl on 05/19/83  1759.5
                                  2-23                 cdin,EXPCL,.TSCDI                                        6/D-1
                                        "	word 1	ss_name
                                        	qstring	cdin
    000014  aa  143 144 151 156         	aci	"cdin",4
                                        "	word 2	program_size, load_size
    000015  aa   012106 011734          	zero	5190,5084
                                        "	word 3	entry_point, parameters
    000016  aa   000160 000000          	zero	112,
                                        "	word 4	seek_address,initial_load_address
    000017  aa   020451 000152          	zero	8489,106
                                        "	word 5	command language offset and length
    000020  aa   002035 000000          	zero	EXPCL-BASNM
                                        "	words 6-9 statistics
    000021  aa   000000 000000          	dec 0,0,0,0
    000022  aa   000000 000000
    000023  aa   000000 000000
    000024  aa   000000 000000
                                        "	word 10	BCI catalog name
    000025  aa  336 362 232 431         	bci	".TSCDI",6
                                        "	word 11	library, component
    000026  aa   000001 000000          	zero	1,0
                                        "	word 12	ss_name length
    000027  aa   000000 000004          	zero	,4
                                  2-24  " Program descriptor 3.
                                  2-25  PRINT: PRGDES  1,0,13585,2438,2330,112,108,  " Added by gtbl on 05/19/83  1759.5
                                  2-26                 prin,EXPCL,.TSCPT                                        6/D-1
                                        "	word 1	ss_name
                                        	qstring	prin
    000030  aa  160 162 151 156         	aci	"prin",4
                                        "	word 2	program_size, load_size
    000031  aa   004606 004432          	zero	2438,2330
                                        "	word 3	entry_point, parameters
    000032  aa   000160 000000          	zero	112,
                                        "	word 4	seek_address,initial_load_address
    000033  aa   032421 000154          	zero	13585,108
                                        "	word 5	command language offset and length
    000034  aa   002035 000000          	zero	EXPCL-BASNM
                                        "	words 6-9 statistics
    000035  aa   000000 000000          	dec 0,0,0,0
    000036  aa   000000 000000
    000037  aa   000000 000000
    000040  aa   000000 000000
                                        "	word 10	BCI catalog name
    000041  aa  336 362 234 763         	bci	".TSCPT",6
                                        "	word 11	library, component
    000042  aa   000001 000000          	zero	1,0
                                        "	word 12	ss_name length
    000043  aa   000000 000004          	zero	,4
                                  2-27  " Program descriptor 4.
                                  2-28  ASCBCD:PRGDES  1,0,46374,4742,4634,108,108,  " Added by gtbl on 05/19/83  1759.5
                                  2-29                 ascb,EXPCL,.TSZAA                                        6/D-1
                                        "	word 1	ss_name
                                        	qstring	ascb
    000044  aa  141 163 143 142         	aci	"ascb",4
                                        "	word 2	program_size, load_size
    000045  aa   011206 011032          	zero	4742,4634
                                        "	word 3	entry_point, parameters
    000046  aa   000154 000000          	zero	108,
                                        "	word 4	seek_address,initial_load_address
    000047  aa   132446 000154          	zero	46374,108
                                        "	word 5	command language offset and length
    000050  aa   002035 000000          	zero	EXPCL-BASNM
                                        "	words 6-9 statistics
    000051  aa   000000 000000          	dec 0,0,0,0
    000052  aa   000000 000000
    000053  aa   000000 000000
    000054  aa   000000 000000
                                        "	word 10	BCI catalog name
    000055  aa  336 362 712 121         	bci	".TSZAA",6
                                        "	word 11	library, component
    000056  aa   000001 000000          	zero	1,0
                                        "	word 12	ss_name length
    000057  aa   000000 000004          	zero	,4
                                  2-30  " Program descriptor 5.
                                  2-31  BPRI:  PRGDES  1,0,46374,4742,4634,108,108,  " Added by gtbl on 05/19/83  1759.5
                                  2-32                 bpri,EXPCL,.TSZAA,,ASCBCD                                2/H-2
                                        "	word 1	ss_name
                                        	qstring	bpri
    000060  aa  142 160 162 151         	aci	"bpri",4
                                        "	word 2	program_size, load_size
    000061  aa   011206 011032          	zero	4742,4634
                                        "	word 3	entry_point, parameters
    000062  aa   000154 000000          	zero	108,
                                        "	word 4	seek_address,initial_load_address
    000063  aa   132446 000154          	zero	46374,108
                                        "	word 5	command language offset and length
    000064  aa   002035 000000          	zero	EXPCL-BASNM
                                        "	words 6-9 statistics
    000065  aa   000000 000000          	dec 0,0,0,0
    000066  aa   000000 000000
    000067  aa   000000 000000
    000070  aa   000000 000000
                                        "	word 10	BCI catalog name
    000071  aa  336 362 712 121         	bci	".TSZAA",6
                                        "	word 11	library, component
    000072  aa   000001 000000          	zero	1,0
                                        "	word 12	ss_name length
    000073  aa   000000 000004          	zero	,4
                                  2-33  " Program descriptor 6.
                                  2-34  BPUN:  PRGDES  1,0,46374,4742,4634,108,108,  " Added by gtbl on 05/19/83  1759.5
                                  2-35                 bpun,EXPCL,.TSZAA,,ASCBCD                                2/H-2
                                        "	word 1	ss_name
                                        	qstring	bpun
    000074  aa  142 160 165 156         	aci	"bpun",4
                                        "	word 2	program_size, load_size
    000075  aa   011206 011032          	zero	4742,4634
                                        "	word 3	entry_point, parameters
    000076  aa   000154 000000          	zero	108,
                                        "	word 4	seek_address,initial_load_address
    000077  aa   132446 000154          	zero	46374,108
                                        "	word 5	command language offset and length
    000100  aa   002035 000000          	zero	EXPCL-BASNM
                                        "	words 6-9 statistics
    000101  aa   000000 000000          	dec 0,0,0,0
    000102  aa   000000 000000
    000103  aa   000000 000000
    000104  aa   000000 000000
                                        "	word 10	BCI catalog name
    000105  aa  336 362 712 121         	bci	".TSZAA",6
                                        "	word 11	library, component
    000106  aa   000001 000000          	zero	1,0
                                        "	word 12	ss_name length
    000107  aa   000000 000004          	zero	,4
                                  2-36  " Program descriptor 7.
                                  2-37  BCDA:  PRGDES  1,0,46374,4742,4634,108,108,  " Added by gtbl on 05/19/83  1759.5
                                  2-38                 bcda,EXPCL,.TSZAA,,ASCBCD                                2/H-2
                                        "	word 1	ss_name
                                        	qstring	bcda
    000110  aa  142 143 144 141         	aci	"bcda",4
                                        "	word 2	program_size, load_size
    000111  aa   011206 011032          	zero	4742,4634
                                        "	word 3	entry_point, parameters
    000112  aa   000154 000000          	zero	108,
                                        "	word 4	seek_address,initial_load_address
    000113  aa   132446 000154          	zero	46374,108
                                        "	word 5	command language offset and length
    000114  aa   002035 000000          	zero	EXPCL-BASNM
                                        "	words 6-9 statistics
    000115  aa   000000 000000          	dec 0,0,0,0
    000116  aa   000000 000000
    000117  aa   000000 000000
    000120  aa   000000 000000
                                        "	word 10	BCI catalog name
    000121  aa  336 362 712 121         	bci	".TSZAA",6
                                        "	word 11	library, component
    000122  aa   000001 000000          	zero	1,0
                                        "	word 12	ss_name length
    000123  aa   000000 000004          	zero	,4
                                  2-39  " Program descriptor 8.
                                  2-40  ASCASC:PRGDES  1,0,51020,2798,2690,108,108,  " Added by gtbl on 05/19/83  1759.5
                                  2-41                 asca,EXPCL,.TSZCA,.BLUSE                                 6/D-1
                                        "	word 1	ss_name
                                        	qstring	asca
    000124  aa  141 163 143 141         	aci	"asca",4
                                        "	word 2	program_size, load_size
    000125  aa   005356 005202          	zero	2798,2690
                                        "	word 3	entry_point, parameters
    000126  aa   000154 000010          	zero	108,.BLUSE
                                        "	word 4	seek_address,initial_load_address
    000127  aa   143514 000154          	zero	51020,108
                                        "	word 5	command language offset and length
    000130  aa   002035 000000          	zero	EXPCL-BASNM
                                        "	words 6-9 statistics
    000131  aa   000000 000000          	dec 0,0,0,0
    000132  aa   000000 000000
    000133  aa   000000 000000
    000134  aa   000000 000000
                                        "	word 10	BCI catalog name
    000135  aa  336 362 712 321         	bci	".TSZCA",6
                                        "	word 11	library, component
    000136  aa   000001 000000          	zero	1,0
                                        "	word 12	ss_name length
    000137  aa   000000 000004          	zero	,4
                                  2-42  " Program descriptor 9.
                                  2-43  NONE:  PRGDES  0,0,0,0,0,0,0,
                                  2-44                 none,(NONECL,0),,.BASIC
                                        "	word 1	ss_name
                                        	qstring	none
    000140  aa  156 157 156 145         	aci	"none",4
                                        "	word 2	program_size, load_size
    000141  aa   000000 000000          	zero	0,0
                                        "	word 3	entry_point, parameters
    000142  aa   000000 000040          	zero	0,.BASIC
                                        "	word 4	seek_address,initial_load_address
    000143  aa   000000 000000          	zero	0,0
                                        "	word 5	command language offset and length
    000144  aa   000574 000000          	zero	NONECL-BASNM,0
                                        "	words 6-9 statistics
    000145  aa   000000 000000          	dec 0,0,0,0
    000146  aa   000000 000000
    000147  aa   000000 000000
    000150  aa   000000 000000
                                        "	word 10	BCI catalog name
    000151  aa   000000 000000          	zero
                                        "	word 11	library, component
    000152  aa   000000 000000          	zero	0,0
                                        "	word 12	ss_name length
    000153  aa   000000 000004          	zero	,4
                                  2-45  " Program descriptor 10.
                                  2-46  BASIC: PRGDES  0,0,0,0,0,0,0,
                                  2-47                 basi,(BASCL,2),,.BASIC+.BSPO  BASIC                      -PSP-
                                        "	word 1	ss_name
                                        	qstring	basi
    000154  aa  142 141 163 151         	aci	"basi",4
                                        "	word 2	program_size, load_size
    000155  aa   000000 000000          	zero	0,0
                                        "	word 3	entry_point, parameters
    000156  aa   000000 010040          	zero	0,.BASIC+.BSPO
                                        "	word 4	seek_address,initial_load_address
    000157  aa   000000 000000          	zero	0,0
                                        "	word 5	command language offset and length
    000160  aa   000642 000002          	zero	BASCL-BASNM,2
                                        "	words 6-9 statistics
    000161  aa   000000 000000          	dec 0,0,0,0
    000162  aa   000000 000000
    000163  aa   000000 000000
    000164  aa   000000 000000
                                        "	word 10	BCI catalog name
    000165  aa   000000 000000          	zero
                                        "	word 11	library, component
    000166  aa   000000 000000          	zero	0,0
                                        "	word 12	ss_name length
    000167  aa   000000 000004          	zero	,4
                                  2-48  " Program descriptor 11.
                                  2-49  DATAB: PRGDES  0,0,0,0,0,0,0,
                                  2-50                 data,(DATCL,6),,.BASIC+.BSPO  DATA-BASIC                  -PSP-
                                        "	word 1	ss_name
                                        	qstring	data
    000170  aa  144 141 164 141         	aci	"data",4
                                        "	word 2	program_size, load_size
    000171  aa   000000 000000          	zero	0,0
                                        "	word 3	entry_point, parameters
    000172  aa   000000 010040          	zero	0,.BASIC+.BSPO
                                        "	word 4	seek_address,initial_load_address
    000173  aa   000000 000000          	zero	0,0
                                        "	word 5	command language offset and length
    000174  aa   001334 000006          	zero	DATCL-BASNM,6
                                        "	words 6-9 statistics
    000175  aa   000000 000000          	dec 0,0,0,0
    000176  aa   000000 000000
    000177  aa   000000 000000
    000200  aa   000000 000000
                                        "	word 10	BCI catalog name
    000201  aa   000000 000000          	zero
                                        "	word 11	library, component
    000202  aa   000000 000000          	zero	0,0
                                        "	word 12	ss_name length
    000203  aa   000000 000004          	zero	,4
                                  2-51  " Program descriptor 12.
                                  2-52  JOVIAL:PRGDES  0,0,0,0,0,0,0,
                                  2-53                 jovi,(JOVCL,1),,.BCMCL+.BSPO  JOVIAL                      -PSP-
                                        "	word 1	ss_name
                                        	qstring	jovi
    000204  aa  152 157 166 151         	aci	"jovi",4
                                        "	word 2	program_size, load_size
    000205  aa   000000 000000          	zero	0,0
                                        "	word 3	entry_point, parameters
    000206  aa   000000 010020          	zero	0,.BCMCL+.BSPO
                                        "	word 4	seek_address,initial_load_address
    000207  aa   000000 000000          	zero	0,0
                                        "	word 5	command language offset and length
    000210  aa   001444 000001          	zero	JOVCL-BASNM,1
                                        "	words 6-9 statistics
    000211  aa   000000 000000          	dec 0,0,0,0
    000212  aa   000000 000000
    000213  aa   000000 000000
    000214  aa   000000 000000
                                        "	word 10	BCI catalog name
    000215  aa   000000 000000          	zero
                                        "	word 11	library, component
    000216  aa   000000 000000          	zero	0,0
                                        "	word 12	ss_name length
    000217  aa   000000 000004          	zero	,4
                                  2-54  " Program descriptor 13.
                                  2-55  FORTY: PRGDES  0,0,0,0,0,0,0,
                                  2-56                 yfor,(YFORCL,1),,.BCMCL+.BSPO  FORTRAN-Y                  -PSP-
                                        "	word 1	ss_name
                                        	qstring	yfor
    000220  aa  171 146 157 162         	aci	"yfor",4
                                        "	word 2	program_size, load_size
    000221  aa   000000 000000          	zero	0,0
                                        "	word 3	entry_point, parameters
    000222  aa   000000 010020          	zero	0,.BCMCL+.BSPO
                                        "	word 4	seek_address,initial_load_address
    000223  aa   000000 000000          	zero	0,0
                                        "	word 5	command language offset and length
    000224  aa   001452 000001          	zero	YFORCL-BASNM,1
                                        "	words 6-9 statistics
    000225  aa   000000 000000          	dec 0,0,0,0
    000226  aa   000000 000000
    000227  aa   000000 000000
    000230  aa   000000 000000
                                        "	word 10	BCI catalog name
    000231  aa   000000 000000          	zero
                                        "	word 11	library, component
    000232  aa   000000 000000          	zero	0,0
                                        "	word 12	ss_name length
    000233  aa   000000 000004          	zero	,4
                                  2-57  " Program descriptor 14.
                                  2-58  FORTT: PRGDES  0,0,0,0,0,0,0,
                                  2-59                 fort,(TFORCL,1),,.BCMCL+.BSPO  TSS FORTRAN                -PSP-
                                        "	word 1	ss_name
                                        	qstring	fort
    000234  aa  146 157 162 164         	aci	"fort",4
                                        "	word 2	program_size, load_size
    000235  aa   000000 000000          	zero	0,0
                                        "	word 3	entry_point, parameters
    000236  aa   000000 010020          	zero	0,.BCMCL+.BSPO
                                        "	word 4	seek_address,initial_load_address
    000237  aa   000000 000000          	zero	0,0
                                        "	word 5	command language offset and length
    000240  aa   001412 000001          	zero	TFORCL-BASNM,1
                                        "	words 6-9 statistics
    000241  aa   000000 000000          	dec 0,0,0,0
    000242  aa   000000 000000
    000243  aa   000000 000000
    000244  aa   000000 000000
                                        "	word 10	BCI catalog name
    000245  aa   000000 000000          	zero
                                        "	word 11	library, component
    000246  aa   000000 000000          	zero	0,0
                                        "	word 12	ss_name length
    000247  aa   000000 000004          	zero	,4
                                  2-60  " Program descriptor 15.
                                  2-61  ALGOL: PRGDES  0,0,0,0,0,0,0,
                                  2-62                 algo,(ALGLCL,1),,.BCMCL+.BSPO  ALGOL                      -PSP-
                                        "	word 1	ss_name
                                        	qstring	algo
    000250  aa  141 154 147 157         	aci	"algo",4
                                        "	word 2	program_size, load_size
    000251  aa   000000 000000          	zero	0,0
                                        "	word 3	entry_point, parameters
    000252  aa   000000 010020          	zero	0,.BCMCL+.BSPO
                                        "	word 4	seek_address,initial_load_address
    000253  aa   000000 000000          	zero	0,0
                                        "	word 5	command language offset and length
    000254  aa   001460 000001          	zero	ALGLCL-BASNM,1
                                        "	words 6-9 statistics
    000255  aa   000000 000000          	dec 0,0,0,0
    000256  aa   000000 000000
    000257  aa   000000 000000
    000260  aa   000000 000000
                                        "	word 10	BCI catalog name
    000261  aa   000000 000000          	zero
                                        "	word 11	library, component
    000262  aa   000000 000000          	zero	0,0
                                        "	word 12	ss_name length
    000263  aa   000000 000004          	zero	,4
                                  2-63  " Program descriptor 16.
                                  2-64  ACCESS:PRGDES  1,0,165340,5002,4900,102,102,  " Added by gtbl on 05/19/83  1759.5
                                  2-65                 acce,EXPCL,.TSACC,.BGSPC+.BHUSE+.BLUSE+.BSPO              -PSP-
                                        "	word 1	ss_name
                                        	qstring	acce
    000264  aa  141 143 143 145         	aci	"acce",4
                                        "	word 2	program_size, load_size
    000265  aa   011612 011444          	zero	5002,4900
                                        "	word 3	entry_point, parameters
    000266  aa   000146 014410          	zero	102,.BGSPC+.BHUSE+.BLUSE+.BSPO
                                        "	word 4	seek_address,initial_load_address
    000267  aa   502734 000146          	zero	165340,102
                                        "	word 5	command language offset and length
    000270  aa   002035 000000          	zero	EXPCL-BASNM
                                        "	words 6-9 statistics
    000271  aa   000000 000000          	dec 0,0,0,0
    000272  aa   000000 000000
    000273  aa   000000 000000
    000274  aa   000000 000000
                                        "	word 10	BCI catalog name
    000275  aa  336 362 212 323         	bci	".TSACC",6
                                        "	word 11	library, component
    000276  aa   000001 000000          	zero	1,0
                                        "	word 12	ss_name length
    000277  aa   000000 000004          	zero	,4
                                  2-66  " Program descriptor 17.
                                  2-67  EDITOR:PRGDES  0,0,0,0,0,0,0,
                                  2-68                 edit,EDCL
                                        "	word 1	ss_name
                                        	qstring	edit
    000300  aa  145 144 151 164         	aci	"edit",4
                                        "	word 2	program_size, load_size
    000301  aa   000000 000000          	zero	0,0
                                        "	word 3	entry_point, parameters
    000302  aa   000000 000000          	zero	0,
                                        "	word 4	seek_address,initial_load_address
    000303  aa   000000 000000          	zero	0,0
                                        "	word 5	command language offset and length
    000304  aa   001465 000000          	zero	EDCL-BASNM
                                        "	words 6-9 statistics
    000305  aa   000000 000000          	dec 0,0,0,0
    000306  aa   000000 000000
    000307  aa   000000 000000
    000310  aa   000000 000000
                                        "	word 10	BCI catalog name
    000311  aa   000000 000000          	zero
                                        "	word 11	library, component
    000312  aa   000000 000000          	zero	0,0
                                        "	word 12	ss_name length
    000313  aa   000000 000004          	zero	,4
                                  2-69  " Program descriptor 18.
                                  2-70  EDTX:  PRGDES  1,0,15929,11264,11162,1435,102,  " Added by gtbl on 05/19/83  1759.5
                                  2-71                 edtx,EXPCL,.TSEDT,.BHUSE+.BLUSE+.BSPO  TEXT EDITOR        -PSP-
                                        "	word 1	ss_name
                                        	qstring	edtx
    000314  aa  145 144 164 170         	aci	"edtx",4
                                        "	word 2	program_size, load_size
    000315  aa   026000 025632          	zero	11264,11162
                                        "	word 3	entry_point, parameters
    000316  aa   002633 014010          	zero	1435,.BHUSE+.BLUSE+.BSPO
                                        "	word 4	seek_address,initial_load_address
    000317  aa   037071 000146          	zero	15929,102
                                        "	word 5	command language offset and length
    000320  aa   002035 000000          	zero	EXPCL-BASNM
                                        "	words 6-9 statistics
    000321  aa   000000 000000          	dec 0,0,0,0
    000322  aa   000000 000000
    000323  aa   000000 000000
    000324  aa   000000 000000
                                        "	word 10	BCI catalog name
    000325  aa  336 362 252 463         	bci	".TSEDT",6
                                        "	word 11	library, component
    000326  aa   000001 000000          	zero	1,0
                                        "	word 12	ss_name length
    000327  aa   000000 000004          	zero	,4
                                  2-72  " Program descriptor 19.
                                  2-73  TEX:   PRGDES  0,0,0,0,0,0,0,
                                  2-74                 tex,EXPCL,.TSTED,.BSPO
                                        "	word 1	ss_name
                                        	qstring	tex
    000330  aa  164 145 170 040         	aci	"tex",4
                                        "	word 2	program_size, load_size
    000331  aa   000000 000000          	zero	0,0
                                        "	word 3	entry_point, parameters
    000332  aa   000000 010000          	zero	0,.BSPO
                                        "	word 4	seek_address,initial_load_address
    000333  aa   000000 000000          	zero	0,0
                                        "	word 5	command language offset and length
    000334  aa   002035 000000          	zero	EXPCL-BASNM
                                        "	words 6-9 statistics
    000335  aa   000000 000000          	dec 0,0,0,0
    000336  aa   000000 000000
    000337  aa   000000 000000
    000340  aa   000000 000000
                                        "	word 10	BCI catalog name
    000341  aa  336 362 632 524         	bci	".TSTED",6
                                        "	word 11	library, component
    000342  aa   000000 000000          	zero	0,0
                                        "	word 12	ss_name length
    000343  aa   000000 000003          	zero	,3
                                  2-75  " Program descriptor 20.
                                  2-76         PRGDES  0,0,0,0,0,0,0,
                                  2-77                 ttex,EXPCL,.TSTEX,.BNSYS+.BSPO
                                        "	word 1	ss_name
                                        	qstring	ttex
    000344  aa  164 164 145 170         	aci	"ttex",4
                                        "	word 2	program_size, load_size
    000345  aa   000000 000000          	zero	0,0
                                        "	word 3	entry_point, parameters
    000346  aa   000000 011000          	zero	0,.BNSYS+.BSPO
                                        "	word 4	seek_address,initial_load_address
    000347  aa   000000 000000          	zero	0,0
                                        "	word 5	command language offset and length
    000350  aa   002035 000000          	zero	EXPCL-BASNM
                                        "	words 6-9 statistics
    000351  aa   000000 000000          	dec 0,0,0,0
    000352  aa   000000 000000
    000353  aa   000000 000000
    000354  aa   000000 000000
                                        "	word 10	BCI catalog name
    000355  aa  336 362 632 567         	bci	".TSTEX",6
                                        "	word 11	library, component
    000356  aa   000000 000000          	zero	0,0
                                        "	word 12	ss_name length
    000357  aa   000000 000004          	zero	,4
                                  2-78  " Program descriptor 21.
                                  2-79         PRGDES  0,0,0,0,0,0,0,
                                  2-80                 tteb,EXPCL,.TSTEB,.BNSYS+.BSPO                           4JS2
                                        "	word 1	ss_name
                                        	qstring	tteb
    000360  aa  164 164 145 142         	aci	"tteb",4
                                        "	word 2	program_size, load_size
    000361  aa   000000 000000          	zero	0,0
                                        "	word 3	entry_point, parameters
    000362  aa   000000 011000          	zero	0,.BNSYS+.BSPO
                                        "	word 4	seek_address,initial_load_address
    000363  aa   000000 000000          	zero	0,0
                                        "	word 5	command language offset and length
    000364  aa   002035 000000          	zero	EXPCL-BASNM
                                        "	words 6-9 statistics
    000365  aa   000000 000000          	dec 0,0,0,0
    000366  aa   000000 000000
    000367  aa   000000 000000
    000370  aa   000000 000000
                                        "	word 10	BCI catalog name
    000371  aa  336 362 632 522         	bci	".TSTEB",6
                                        "	word 11	library, component
    000372  aa   000000 000000          	zero	0,0
                                        "	word 12	ss_name length
    000373  aa   000000 000004          	zero	,4
                                  2-81  " Program descriptor 22.
                                  2-82         PRGDES  0,0,0,0,0,0,0,
                                  2-83                 ttec,EXPCL,.TSTEC,.BNSYS+.BSPO                           4JS2
                                        "	word 1	ss_name
                                        	qstring	ttec
    000374  aa  164 164 145 143         	aci	"ttec",4
                                        "	word 2	program_size, load_size
    000375  aa   000000 000000          	zero	0,0
                                        "	word 3	entry_point, parameters
    000376  aa   000000 011000          	zero	0,.BNSYS+.BSPO
                                        "	word 4	seek_address,initial_load_address
    000377  aa   000000 000000          	zero	0,0
                                        "	word 5	command language offset and length
    000400  aa   002035 000000          	zero	EXPCL-BASNM
                                        "	words 6-9 statistics
    000401  aa   000000 000000          	dec 0,0,0,0
    000402  aa   000000 000000
    000403  aa   000000 000000
    000404  aa   000000 000000
                                        "	word 10	BCI catalog name
    000405  aa  336 362 632 523         	bci	".TSTEC",6
                                        "	word 11	library, component
    000406  aa   000000 000000          	zero	0,0
                                        "	word 12	ss_name length
    000407  aa   000000 000004          	zero	,4
                                  2-84  " Program descriptor 23.
                                  2-85  CONV:  PRGDES  1,1,27032,12380,12277,503,103,  " Added by gtbl on 05/19/83  1759.5
                                  2-86                 conv,EXPCL,.TCONV,.BCMOV
                                        "	word 1	ss_name
                                        	qstring	conv
    000410  aa  143 157 156 166         	aci	"conv",4
                                        "	word 2	program_size, load_size
    000411  aa   030134 027765          	zero	12380,12277
                                        "	word 3	entry_point, parameters
    000412  aa   000767 020000          	zero	503,.BCMOV
                                        "	word 4	seek_address,initial_load_address
    000413  aa   064630 000147          	zero	27032,103
                                        "	word 5	command language offset and length
    000414  aa   002035 000000          	zero	EXPCL-BASNM
                                        "	words 6-9 statistics
    000415  aa   000000 000000          	dec 0,0,0,0
    000416  aa   000000 000000
    000417  aa   000000 000000
    000420  aa   000000 000000
                                        "	word 10	BCI catalog name
    000421  aa  336 323 464 565         	bci	".TCONV",6
                                        "	word 11	library, component
    000422  aa   000001 000001          	zero	1,1
                                        "	word 12	ss_name length
    000423  aa   000000 000004          	zero	,4
                                  2-87  " Program descriptor 24.
                                  2-88  JRN:   PRGDES  1,1,27032,12380,12277,503,103,  " Added by gtbl on 05/19/83  1759.5
                                  2-89                 jrn,EXPCL,.TCONV,.BCMOV,CONV
                                        "	word 1	ss_name
                                        	qstring	jrn
    000424  aa  152 162 156 040         	aci	"jrn",4
                                        "	word 2	program_size, load_size
    000425  aa   030134 027765          	zero	12380,12277
                                        "	word 3	entry_point, parameters
    000426  aa   000767 020000          	zero	503,.BCMOV
                                        "	word 4	seek_address,initial_load_address
    000427  aa   064630 000147          	zero	27032,103
                                        "	word 5	command language offset and length
    000430  aa   002035 000000          	zero	EXPCL-BASNM
                                        "	words 6-9 statistics
    000431  aa   000000 000000          	dec 0,0,0,0
    000432  aa   000000 000000
    000433  aa   000000 000000
    000434  aa   000000 000000
                                        "	word 10	BCI catalog name
    000435  aa  336 323 464 565         	bci	".TCONV",6
                                        "	word 11	library, component
    000436  aa   000001 000001          	zero	1,1
                                        "	word 12	ss_name length
    000437  aa   000000 000003          	zero	,3
                                  2-90  " Program descriptor 25.
                                  2-91  JPRINT:PRGDES  1,1,27032,12380,12277,503,103,  " Added by gtbl on 05/19/83  1759.5
                                  2-92                 jpri,EXPCL,.TCONV,.BCMOV,CONV
                                        "	word 1	ss_name
                                        	qstring	jpri
    000440  aa  152 160 162 151         	aci	"jpri",4
                                        "	word 2	program_size, load_size
    000441  aa   030134 027765          	zero	12380,12277
                                        "	word 3	entry_point, parameters
    000442  aa   000767 020000          	zero	503,.BCMOV
                                        "	word 4	seek_address,initial_load_address
    000443  aa   064630 000147          	zero	27032,103
                                        "	word 5	command language offset and length
    000444  aa   002035 000000          	zero	EXPCL-BASNM
                                        "	words 6-9 statistics
    000445  aa   000000 000000          	dec 0,0,0,0
    000446  aa   000000 000000
    000447  aa   000000 000000
    000450  aa   000000 000000
                                        "	word 10	BCI catalog name
    000451  aa  336 323 464 565         	bci	".TCONV",6
                                        "	word 11	library, component
    000452  aa   000001 000001          	zero	1,1
                                        "	word 12	ss_name length
    000453  aa   000000 000004          	zero	,4
                                  2-93  " Program descriptor 26.
                                  2-94  JPUNCH:PRGDES  1,1,27032,12380,12277,503,103,  " Added by gtbl on 05/19/83  1759.5
                                  2-95                 jpun,EXPCL,.TCONV,.BCMOV,CONV
                                        "	word 1	ss_name
                                        	qstring	jpun
    000454  aa  152 160 165 156         	aci	"jpun",4
                                        "	word 2	program_size, load_size
    000455  aa   030134 027765          	zero	12380,12277
                                        "	word 3	entry_point, parameters
    000456  aa   000767 020000          	zero	503,.BCMOV
                                        "	word 4	seek_address,initial_load_address
    000457  aa   064630 000147          	zero	27032,103
                                        "	word 5	command language offset and length
    000460  aa   002035 000000          	zero	EXPCL-BASNM
                                        "	words 6-9 statistics
    000461  aa   000000 000000          	dec 0,0,0,0
    000462  aa   000000 000000
    000463  aa   000000 000000
    000464  aa   000000 000000
                                        "	word 10	BCI catalog name
    000465  aa  336 323 464 565         	bci	".TCONV",6
                                        "	word 11	library, component
    000466  aa   000001 000001          	zero	1,1
                                        "	word 12	ss_name length
    000467  aa   000000 000004          	zero	,4
                                  2-96  " Program descriptor 27.
                                  2-97  JDAC:  PRGDES  1,1,27032,12380,12277,503,103,  " Added by gtbl on 05/19/83  1759.5
                                  2-98                 jdac,EXPCL,.TCONV,,CONV
                                        "	word 1	ss_name
                                        	qstring	jdac
    000470  aa  152 144 141 143         	aci	"jdac",4
                                        "	word 2	program_size, load_size
    000471  aa   030134 027765          	zero	12380,12277
                                        "	word 3	entry_point, parameters
    000472  aa   000767 000000          	zero	503,
                                        "	word 4	seek_address,initial_load_address
    000473  aa   064630 000147          	zero	27032,103
                                        "	word 5	command language offset and length
    000474  aa   002035 000000          	zero	EXPCL-BASNM
                                        "	words 6-9 statistics
    000475  aa   000000 000000          	dec 0,0,0,0
    000476  aa   000000 000000
    000477  aa   000000 000000
    000500  aa   000000 000000
                                        "	word 10	BCI catalog name
    000501  aa  336 323 464 565         	bci	".TCONV",6
                                        "	word 11	library, component
    000502  aa   000001 000001          	zero	1,1
                                        "	word 12	ss_name length
    000503  aa   000000 000004          	zero	,4
                                  2-99  " Program descriptor 28.
                                 2-100  DISP:  PRGDES  1,1,27032,12380,12277,503,103,  " Added by gtbl on 05/19/83  1759.5
                                 2-101                 disp,EXPCL,.TCONV,.BCMOV,CONV
                                        "	word 1	ss_name
                                        	qstring	disp
    000504  aa  144 151 163 160         	aci	"disp",4
                                        "	word 2	program_size, load_size
    000505  aa   030134 027765          	zero	12380,12277
                                        "	word 3	entry_point, parameters
    000506  aa   000767 020000          	zero	503,.BCMOV
                                        "	word 4	seek_address,initial_load_address
    000507  aa   064630 000147          	zero	27032,103
                                        "	word 5	command language offset and length
    000510  aa   002035 000000          	zero	EXPCL-BASNM
                                        "	words 6-9 statistics
    000511  aa   000000 000000          	dec 0,0,0,0
    000512  aa   000000 000000
    000513  aa   000000 000000
    000514  aa   000000 000000
                                        "	word 10	BCI catalog name
    000515  aa  336 323 464 565         	bci	".TCONV",6
                                        "	word 11	library, component
    000516  aa   000001 000001          	zero	1,1
                                        "	word 12	ss_name length
    000517  aa   000000 000004          	zero	,4
                                 2-102  " Program descriptor 29.
                                 2-103  MAIL:  PRGDES  0,0,0,0,0,0,0,
                                 2-104                 mail,EXPCL,.TMAIL,.BSPO
                                        "	word 1	ss_name
                                        	qstring	mail
    000520  aa  155 141 151 154         	aci	"mail",4
                                        "	word 2	program_size, load_size
    000521  aa   000000 000000          	zero	0,0
                                        "	word 3	entry_point, parameters
    000522  aa   000000 010000          	zero	0,.BSPO
                                        "	word 4	seek_address,initial_load_address
    000523  aa   000000 000000          	zero	0,0
                                        "	word 5	command language offset and length
    000524  aa   002035 000000          	zero	EXPCL-BASNM
                                        "	words 6-9 statistics
    000525  aa   000000 000000          	dec 0,0,0,0
    000526  aa   000000 000000
    000527  aa   000000 000000
    000530  aa   000000 000000
                                        "	word 10	BCI catalog name
    000531  aa  336 344 213 143         	bci	".TMAIL",6
                                        "	word 11	library, component
    000532  aa   000000 000000          	zero	0,0
                                        "	word 12	ss_name length
    000533  aa   000000 000004          	zero	,4
                                 2-105  " Program descriptor 30.
                                 2-106  SORT:  PRGDES  0,0,0,0,0,0,0,
                                 2-107                 sort,EXPCL,.TSORT,.BSPO
                                        "	word 1	ss_name
                                        	qstring	sort
    000534  aa  163 157 162 164         	aci	"sort",4
                                        "	word 2	program_size, load_size
    000535  aa   000000 000000          	zero	0,0
                                        "	word 3	entry_point, parameters
    000536  aa   000000 010000          	zero	0,.BSPO
                                        "	word 4	seek_address,initial_load_address
    000537  aa   000000 000000          	zero	0,0
                                        "	word 5	command language offset and length
    000540  aa   002035 000000          	zero	EXPCL-BASNM
                                        "	words 6-9 statistics
    000541  aa   000000 000000          	dec 0,0,0,0
    000542  aa   000000 000000
    000543  aa   000000 000000
    000544  aa   000000 000000
                                        "	word 10	BCI catalog name
    000545  aa  336 362 465 163         	bci	".TSORT",6
                                        "	word 11	library, component
    000546  aa   000000 000000          	zero	0,0
                                        "	word 12	ss_name length
    000547  aa   000000 000004          	zero	,4
                                 2-108  " Program descriptor 31.
                                 2-109  BYE:   PRGDES  0,0,0,0,0,0,0,
                                 2-110                 bye,BYEBYE
                                        "	word 1	ss_name
                                        	qstring	bye
    000550  aa  142 171 145 040         	aci	"bye",4
                                        "	word 2	program_size, load_size
    000551  aa   000000 000000          	zero	0,0
                                        "	word 3	entry_point, parameters
    000552  aa   000000 000000          	zero	0,
                                        "	word 4	seek_address,initial_load_address
    000553  aa   000000 000000          	zero	0,0
                                        "	word 5	command language offset and length
    000554  aa   000435 000000          	zero	BYEBYE-BASNM
                                        "	words 6-9 statistics
    000555  aa   000000 000000          	dec 0,0,0,0
    000556  aa   000000 000000
    000557  aa   000000 000000
    000560  aa   000000 000000
                                        "	word 10	BCI catalog name
    000561  aa   000000 000000          	zero
                                        "	word 11	library, component
    000562  aa   000000 000000          	zero	0,0
                                        "	word 12	ss_name length
    000563  aa   000000 000003          	zero	,3
                                 2-111  " Program descriptor 32.
                                 2-112  LODX:  PRGDES  1,0,161781,2034,1932,102,102,  " Added by gtbl on 05/19/83  1759.5
                                 2-113                 lodx,EXPCL,.TSCLD,.BHUSE+.BLUSE+.BEXEC+.BSPO  LODX        -PSP-
                                        "	word 1	ss_name
                                        	qstring	lodx
    000564  aa  154 157 144 170         	aci	"lodx",4
                                        "	word 2	program_size, load_size
    000565  aa   003762 003614          	zero	2034,1932
                                        "	word 3	entry_point, parameters
    000566  aa   000146 014210          	zero	102,.BHUSE+.BLUSE+.BEXEC+.BSPO
                                        "	word 4	seek_address,initial_load_address
    000567  aa   473765 000146          	zero	161781,102
                                        "	word 5	command language offset and length
    000570  aa   002035 000000          	zero	EXPCL-BASNM
                                        "	words 6-9 statistics
    000571  aa   000000 000000          	dec 0,0,0,0
    000572  aa   000000 000000
    000573  aa   000000 000000
    000574  aa   000000 000000
                                        "	word 10	BCI catalog name
    000575  aa  336 362 234 324         	bci	".TSCLD",6
                                        "	word 11	library, component
    000576  aa   000001 000000          	zero	1,0
                                        "	word 12	ss_name length
    000577  aa   000000 000004          	zero	,4
                                 2-114  " Program descriptor 33.
                                 2-115  LOGO:  PRGDES  1,0,252015,1088,980,708,108,  " Added by gtbl on 05/19/83  1759.5
                                 2-116                 logo,EXPCL,.TSLOG,.BPRIV+.BLSMC
                                        "	word 1	ss_name
                                        	qstring	logo
    000600  aa  154 157 147 157         	aci	"logo",4
                                        "	word 2	program_size, load_size
    000601  aa   002100 001724          	zero	1088,980
                                        "	word 3	entry_point, parameters
    000602  aa   001304 000101          	zero	708,.BPRIV+.BLSMC
                                        "	word 4	seek_address,initial_load_address
    000603  aa   754157 000154          	zero	252015,108
                                        "	word 5	command language offset and length
    000604  aa   002035 000000          	zero	EXPCL-BASNM
                                        "	words 6-9 statistics
    000605  aa   000000 000000          	dec 0,0,0,0
    000606  aa   000000 000000
    000607  aa   000000 000000
    000610  aa   000000 000000
                                        "	word 10	BCI catalog name
    000611  aa  336 362 434 627         	bci	".TSLOG",6
                                        "	word 11	library, component
    000612  aa   000001 000000          	zero	1,0
                                        "	word 12	ss_name length
    000613  aa   000000 000004          	zero	,4
                                 2-117  " Program descriptor 34.
                                 2-118  NEWU:  PRGDES  1,0,252015,1088,980,708,108,  " Added by gtbl on 05/19/83  1759.5
                                 2-119                 newu,EXPCL,.TSLOG,.BPRIV+.BLSMC+.BCMOV,LOGO              TSSA0WSM
                                        "	word 1	ss_name
                                        	qstring	newu
    000614  aa  156 145 167 165         	aci	"newu",4
                                        "	word 2	program_size, load_size
    000615  aa   002100 001724          	zero	1088,980
                                        "	word 3	entry_point, parameters
    000616  aa   001304 020101          	zero	708,.BPRIV+.BLSMC+.BCMOV
                                        "	word 4	seek_address,initial_load_address
    000617  aa   754157 000154          	zero	252015,108
                                        "	word 5	command language offset and length
    000620  aa   002035 000000          	zero	EXPCL-BASNM
                                        "	words 6-9 statistics
    000621  aa   000000 000000          	dec 0,0,0,0
    000622  aa   000000 000000
    000623  aa   000000 000000
    000624  aa   000000 000000
                                        "	word 10	BCI catalog name
    000625  aa  336 362 434 627         	bci	".TSLOG",6
                                        "	word 11	library, component
    000626  aa   000001 000000          	zero	1,0
                                        "	word 12	ss_name length
    000627  aa   000000 000004          	zero	,4
                                 2-120  " Program descriptor 35.
                                 2-121  STAT:  PRGDES  1,1,15875,1364,1192,172,172,  " Added by gtbl on 05/19/83  1759.5
                                 2-122                 stat,EXPCL,.TSSTT
                                        "	word 1	ss_name
                                        	qstring	stat
    000630  aa  163 164 141 164         	aci	"stat",4
                                        "	word 2	program_size, load_size
    000631  aa   002524 002250          	zero	1364,1192
                                        "	word 3	entry_point, parameters
    000632  aa   000254 000000          	zero	172,
                                        "	word 4	seek_address,initial_load_address
    000633  aa   037003 000254          	zero	15875,172
                                        "	word 5	command language offset and length
    000634  aa   002035 000000          	zero	EXPCL-BASNM
                                        "	words 6-9 statistics
    000635  aa   000000 000000          	dec 0,0,0,0
    000636  aa   000000 000000
    000637  aa   000000 000000
    000640  aa   000000 000000
                                        "	word 10	BCI catalog name
    000641  aa  336 362 626 363         	bci	".TSSTT",6
                                        "	word 11	library, component
    000642  aa   000001 000001          	zero	1,1
                                        "	word 12	ss_name length
    000643  aa   000000 000004          	zero	,4
                                 2-123  " Program descriptor 36.
                                 2-124  CONN:  PRGDES  1,1,15875,1364,1192,172,172,  " Added by gtbl on 05/19/83  1759.5
                                 2-125                 conn,EXPCL,.TSSTT,.BPRIV,STAT
                                        "	word 1	ss_name
                                        	qstring	conn
    000644  aa  143 157 156 156         	aci	"conn",4
                                        "	word 2	program_size, load_size
    000645  aa   002524 002250          	zero	1364,1192
                                        "	word 3	entry_point, parameters
    000646  aa   000254 000001          	zero	172,.BPRIV
                                        "	word 4	seek_address,initial_load_address
    000647  aa   037003 000254          	zero	15875,172
                                        "	word 5	command language offset and length
    000650  aa   002035 000000          	zero	EXPCL-BASNM
                                        "	words 6-9 statistics
    000651  aa   000000 000000          	dec 0,0,0,0
    000652  aa   000000 000000
    000653  aa   000000 000000
    000654  aa   000000 000000
                                        "	word 10	BCI catalog name
    000655  aa  336 362 626 363         	bci	".TSSTT",6
                                        "	word 11	library, component
    000656  aa   000001 000001          	zero	1,1
                                        "	word 12	ss_name length
    000657  aa   000000 000004          	zero	,4
                                 2-126  " Program descriptor 37.
                                 2-127  AFT:   PRGDES  1,1,15875,1364,1192,172,172,  " Added by gtbl on 05/19/83  1759.5
                                 2-128                 aft,EXPCL,.TSSTT,,STAT                                   4JS2
                                        "	word 1	ss_name
                                        	qstring	aft
    000660  aa  141 146 164 040         	aci	"aft",4
                                        "	word 2	program_size, load_size
    000661  aa   002524 002250          	zero	1364,1192
                                        "	word 3	entry_point, parameters
    000662  aa   000254 000000          	zero	172,
                                        "	word 4	seek_address,initial_load_address
    000663  aa   037003 000254          	zero	15875,172
                                        "	word 5	command language offset and length
    000664  aa   002035 000000          	zero	EXPCL-BASNM
                                        "	words 6-9 statistics
    000665  aa   000000 000000          	dec 0,0,0,0
    000666  aa   000000 000000
    000667  aa   000000 000000
    000670  aa   000000 000000
                                        "	word 10	BCI catalog name
    000671  aa  336 362 626 363         	bci	".TSSTT",6
                                        "	word 11	library, component
    000672  aa   000001 000001          	zero	1,1
                                        "	word 12	ss_name length
    000673  aa   000000 000003          	zero	,3
                                 2-129  " Program descriptor 38.
                                 2-130  TEMP:  PRGDES  1,1,15875,1364,1192,172,172,  " Added by gtbl on 05/19/83  1759.5
                                 2-131                 temp,EXPCL,.TSSTT,,STAT                                  4JS2
                                        "	word 1	ss_name
                                        	qstring	temp
    000674  aa  164 145 155 160         	aci	"temp",4
                                        "	word 2	program_size, load_size
    000675  aa   002524 002250          	zero	1364,1192
                                        "	word 3	entry_point, parameters
    000676  aa   000254 000000          	zero	172,
                                        "	word 4	seek_address,initial_load_address
    000677  aa   037003 000254          	zero	15875,172
                                        "	word 5	command language offset and length
    000700  aa   002035 000000          	zero	EXPCL-BASNM
                                        "	words 6-9 statistics
    000701  aa   000000 000000          	dec 0,0,0,0
    000702  aa   000000 000000
    000703  aa   000000 000000
    000704  aa   000000 000000
                                        "	word 10	BCI catalog name
    000705  aa  336 362 626 363         	bci	".TSSTT",6
                                        "	word 11	library, component
    000706  aa   000001 000001          	zero	1,1
                                        "	word 12	ss_name length
    000707  aa   000000 000004          	zero	,4
                                 2-132  " Program descriptor 39.
                                 2-133  HELP:  PRGDES  1,0,236668,4608,4506,102,102,  " Added by gtbl on 05/19/83  1759.5
                                 2-134                 help,EXPCL,.TSHLP,.BLUSE
                                        "	word 1	ss_name
                                        	qstring	help
    000710  aa  150 145 154 160         	aci	"help",4
                                        "	word 2	program_size, load_size
    000711  aa   011000 010632          	zero	4608,4506
                                        "	word 3	entry_point, parameters
    000712  aa   000146 000010          	zero	102,.BLUSE
                                        "	word 4	seek_address,initial_load_address
    000713  aa   716174 000146          	zero	236668,102
                                        "	word 5	command language offset and length
    000714  aa   002035 000000          	zero	EXPCL-BASNM
                                        "	words 6-9 statistics
    000715  aa   000000 000000          	dec 0,0,0,0
    000716  aa   000000 000000
    000717  aa   000000 000000
    000720  aa   000000 000000
                                        "	word 10	BCI catalog name
    000721  aa  336 362 304 347         	bci	".TSHLP",6
                                        "	word 11	library, component
    000722  aa   000001 000000          	zero	1,0
                                        "	word 12	ss_name length
    000723  aa   000000 000004          	zero	,4
                                 2-135  " Program descriptor 40.
                                 2-136  MASTER:PRGDES  0,0,0,0,0,0,0,
                                 2-137                 mast,EXPCL,.tsmas,.BMAST+.BPRIV+.BLSMC+.BMASX+.BSPO       -PSP-
                                        "	word 1	ss_name
                                        	qstring	mast
    000724  aa  155 141 163 164         	aci	"mast",4
                                        "	word 2	program_size, load_size
    000725  aa   000000 000000          	zero	0,0
                                        "	word 3	entry_point, parameters
    000726  aa   000000 050103          	zero	0,.BMAST+.BPRIV+.BLSMC+.BMASX+.BSPO
                                        "	word 4	seek_address,initial_load_address
    000727  aa   000000 000000          	zero	0,0
                                        "	word 5	command language offset and length
    000730  aa   002035 000000          	zero	EXPCL-BASNM
                                        "	words 6-9 statistics
    000731  aa   000000 000000          	dec 0,0,0,0
    000732  aa   000000 000000
    000733  aa   000000 000000
    000734  aa   000000 000000
                                        "	word 10	BCI catalog name
    000735  aa  336 362 442 162         	bci	".tsmas",6
                                        "	word 11	library, component
    000736  aa   000000 000000          	zero	0,0
                                        "	word 12	ss_name length
    000737  aa   000000 000004          	zero	,4
                                 2-138  " Program descriptor 41.
                                 2-139  TSAR:  PRGDES  0,0,0,0,0,0,0,
                                 2-140                 tsar,EXPCL,.tsma3,.BMAST+.BPRIV+.BMASX+.BSPO  TSAR        -PSP-
                                        "	word 1	ss_name
                                        	qstring	tsar
    000740  aa  164 163 141 162         	aci	"tsar",4
                                        "	word 2	program_size, load_size
    000741  aa   000000 000000          	zero	0,0
                                        "	word 3	entry_point, parameters
    000742  aa   000000 050003          	zero	0,.BMAST+.BPRIV+.BMASX+.BSPO
                                        "	word 4	seek_address,initial_load_address
    000743  aa   000000 000000          	zero	0,0
                                        "	word 5	command language offset and length
    000744  aa   002035 000000          	zero	EXPCL-BASNM
                                        "	words 6-9 statistics
    000745  aa   000000 000000          	dec 0,0,0,0
    000746  aa   000000 000000
    000747  aa   000000 000000
    000750  aa   000000 000000
                                        "	word 10	BCI catalog name
    000751  aa  336 362 442 103         	bci	".tsma3",6
                                        "	word 11	library, component
    000752  aa   000000 000000          	zero	0,0
                                        "	word 12	ss_name length
    000753  aa   000000 000004          	zero	,4
                                 2-141  " Program descriptor 42.
                                 2-142  MAS1:  PRGDES  0,0,0,0,0,0,0,
                                 2-143                 mas1,EXPCL,.tsmas,.BSPO                                  STIA4PZX
                                        "	word 1	ss_name
                                        	qstring	mas1
    000754  aa  155 141 163 061         	aci	"mas1",4
                                        "	word 2	program_size, load_size
    000755  aa   000000 000000          	zero	0,0
                                        "	word 3	entry_point, parameters
    000756  aa   000000 010000          	zero	0,.BSPO
                                        "	word 4	seek_address,initial_load_address
    000757  aa   000000 000000          	zero	0,0
                                        "	word 5	command language offset and length
    000760  aa   002035 000000          	zero	EXPCL-BASNM
                                        "	words 6-9 statistics
    000761  aa   000000 000000          	dec 0,0,0,0
    000762  aa   000000 000000
    000763  aa   000000 000000
    000764  aa   000000 000000
                                        "	word 10	BCI catalog name
    000765  aa  336 362 442 162         	bci	".tsmas",6
                                        "	word 11	library, component
    000766  aa   000000 000000          	zero	0,0
                                        "	word 12	ss_name length
    000767  aa   000000 000004          	zero	,4
                                 2-144  " Program descriptor 43.
                                 2-145  MAS3:  PRGDES  0,0,0,0,0,0,0,
                                 2-146                 mas3,EXPCL,.tsma3,.BSPO                                  STIA4PZX
                                        "	word 1	ss_name
                                        	qstring	mas3
    000770  aa  155 141 163 063         	aci	"mas3",4
                                        "	word 2	program_size, load_size
    000771  aa   000000 000000          	zero	0,0
                                        "	word 3	entry_point, parameters
    000772  aa   000000 010000          	zero	0,.BSPO
                                        "	word 4	seek_address,initial_load_address
    000773  aa   000000 000000          	zero	0,0
                                        "	word 5	command language offset and length
    000774  aa   002035 000000          	zero	EXPCL-BASNM
                                        "	words 6-9 statistics
    000775  aa   000000 000000          	dec 0,0,0,0
    000776  aa   000000 000000
    000777  aa   000000 000000
    001000  aa   000000 000000
                                        "	word 10	BCI catalog name
    001001  aa  336 362 442 103         	bci	".tsma3",6
                                        "	word 11	library, component
    001002  aa   000000 000000          	zero	0,0
                                        "	word 12	ss_name length
    001003  aa   000000 000004          	zero	,4
                                 2-147  " Program descriptor 44.
                                 2-148  MAS4:  PRGDES  0,0,0,0,0,0,0,
                                 2-149                 mas4,EXPCL,.tsma4,.BSPO                                  STIA4PZX
                                        "	word 1	ss_name
                                        	qstring	mas4
    001004  aa  155 141 163 064         	aci	"mas4",4
                                        "	word 2	program_size, load_size
    001005  aa   000000 000000          	zero	0,0
                                        "	word 3	entry_point, parameters
    001006  aa   000000 010000          	zero	0,.BSPO
                                        "	word 4	seek_address,initial_load_address
    001007  aa   000000 000000          	zero	0,0
                                        "	word 5	command language offset and length
    001010  aa   002035 000000          	zero	EXPCL-BASNM
                                        "	words 6-9 statistics
    001011  aa   000000 000000          	dec 0,0,0,0
    001012  aa   000000 000000
    001013  aa   000000 000000
    001014  aa   000000 000000
                                        "	word 10	BCI catalog name
    001015  aa  336 362 442 104         	bci	".tsma4",6
                                        "	word 11	library, component
    001016  aa   000000 000000          	zero	0,0
                                        "	word 12	ss_name length
    001017  aa   000000 000004          	zero	,4
                                 2-150  " Program descriptor 45.
                                 2-151  TSRI:  PRGDES  0,0,0,0,0,0,0,
                                 2-152                 tsri,EXPCL,.tsma4,.BMAST+.BPRIV+.BMASX+.BSPO  TSRI        -PSP-
                                        "	word 1	ss_name
                                        	qstring	tsri
    001020  aa  164 163 162 151         	aci	"tsri",4
                                        "	word 2	program_size, load_size
    001021  aa   000000 000000          	zero	0,0
                                        "	word 3	entry_point, parameters
    001022  aa   000000 050003          	zero	0,.BMAST+.BPRIV+.BMASX+.BSPO
                                        "	word 4	seek_address,initial_load_address
    001023  aa   000000 000000          	zero	0,0
                                        "	word 5	command language offset and length
    001024  aa   002035 000000          	zero	EXPCL-BASNM
                                        "	words 6-9 statistics
    001025  aa   000000 000000          	dec 0,0,0,0
    001026  aa   000000 000000
    001027  aa   000000 000000
    001030  aa   000000 000000
                                        "	word 10	BCI catalog name
    001031  aa  336 362 442 104         	bci	".tsma4",6
                                        "	word 11	library, component
    001032  aa   000000 000000          	zero	0,0
                                        "	word 12	ss_name length
    001033  aa   000000 000004          	zero	,4
                                 2-153  " Program descriptor 46.
                                 2-154  BASY:  PRGDES  1,0,83360,13476,13240,387,236,  " Added by gtbl on 05/19/83  1759.5
                                 2-155                 basy,EXPCL,.TSBAS,.BEXEC+.BSPO                            -PSP-
                                        "	word 1	ss_name
                                        	qstring	basy
    001034  aa  142 141 163 171         	aci	"basy",4
                                        "	word 2	program_size, load_size
    001035  aa   032244 031670          	zero	13476,13240
                                        "	word 3	entry_point, parameters
    001036  aa   000603 010200          	zero	387,.BEXEC+.BSPO
                                        "	word 4	seek_address,initial_load_address
    001037  aa   242640 000354          	zero	83360,236
                                        "	word 5	command language offset and length
    001040  aa   002035 000000          	zero	EXPCL-BASNM
                                        "	words 6-9 statistics
    001041  aa   000000 000000          	dec 0,0,0,0
    001042  aa   000000 000000
    001043  aa   000000 000000
    001044  aa   000000 000000
                                        "	word 10	BCI catalog name
    001045  aa  336 362 222 162         	bci	".TSBAS",6
                                        "	word 11	library, component
    001046  aa   000001 000000          	zero	1,0
                                        "	word 12	ss_name length
    001047  aa   000000 000004          	zero	,4
                                 2-156  " Program descriptor 47.
                                 2-157  SAVE:  PRGDES  1,1,17080,5196,5094,102,102,  " Added by gtbl on 05/19/83  1759.5
                                 2-158                 save,EXPCL,.TSSAV,.BHUSE+.BLUSE
                                        "	word 1	ss_name
                                        	qstring	save
    001050  aa  163 141 166 145         	aci	"save",4
                                        "	word 2	program_size, load_size
    001051  aa   012114 011746          	zero	5196,5094
                                        "	word 3	entry_point, parameters
    001052  aa   000146 004010          	zero	102,.BHUSE+.BLUSE
                                        "	word 4	seek_address,initial_load_address
    001053  aa   041270 000146          	zero	17080,102
                                        "	word 5	command language offset and length
    001054  aa   002035 000000          	zero	EXPCL-BASNM
                                        "	words 6-9 statistics
    001055  aa   000000 000000          	dec 0,0,0,0
    001056  aa   000000 000000
    001057  aa   000000 000000
    001060  aa   000000 000000
                                        "	word 10	BCI catalog name
    001061  aa  336 362 622 165         	bci	".TSSAV",6
                                        "	word 11	library, component
    001062  aa   000001 000001          	zero	1,1
                                        "	word 12	ss_name length
    001063  aa   000000 000004          	zero	,4
                                 2-159  " Program descriptor 48.
                                 2-160  RESE:  PRGDES  1,1,5106,4890,4788,1772,102,  " Added by gtbl on 05/19/83  1759.5
                                 2-161                 rese,EXPCL,.TSRSQ,.BNSYS
                                        "	word 1	ss_name
                                        	qstring	rese
    001064  aa  162 145 163 145         	aci	"rese",4
                                        "	word 2	program_size, load_size
    001065  aa   011432 011264          	zero	4890,4788
                                        "	word 3	entry_point, parameters
    001066  aa   003354 001000          	zero	1772,.BNSYS
                                        "	word 4	seek_address,initial_load_address
    001067  aa   011762 000146          	zero	5106,102
                                        "	word 5	command language offset and length
    001070  aa   002035 000000          	zero	EXPCL-BASNM
                                        "	words 6-9 statistics
    001071  aa   000000 000000          	dec 0,0,0,0
    001072  aa   000000 000000
    001073  aa   000000 000000
    001074  aa   000000 000000
                                        "	word 10	BCI catalog name
    001075  aa  336 362 516 250         	bci	".TSRSQ",6
                                        "	word 11	library, component
    001076  aa   000001 000001          	zero	1,1
                                        "	word 12	ss_name length
    001077  aa   000000 000004          	zero	,4
                                 2-162  " Program descriptor 49.
                                 2-163  DELETE:PRGDES  1,1,5106,4890,4788,1772,102,  " Added by gtbl on 05/19/83  1759.5
                                 2-164                 dele,EXPCL,.TSRSQ,,RESE
                                        "	word 1	ss_name
                                        	qstring	dele
    001100  aa  144 145 154 145         	aci	"dele",4
                                        "	word 2	program_size, load_size
    001101  aa   011432 011264          	zero	4890,4788
                                        "	word 3	entry_point, parameters
    001102  aa   003354 000000          	zero	1772,
                                        "	word 4	seek_address,initial_load_address
    001103  aa   011762 000146          	zero	5106,102
                                        "	word 5	command language offset and length
    001104  aa   002035 000000          	zero	EXPCL-BASNM
                                        "	words 6-9 statistics
    001105  aa   000000 000000          	dec 0,0,0,0
    001106  aa   000000 000000
    001107  aa   000000 000000
    001110  aa   000000 000000
                                        "	word 10	BCI catalog name
    001111  aa  336 362 516 250         	bci	".TSRSQ",6
                                        "	word 11	library, component
    001112  aa   000001 000001          	zero	1,1
                                        "	word 12	ss_name length
    001113  aa   000000 000004          	zero	,4
                                 2-165  " Program descriptor 50.
                                 2-166  OLDNEW:PRGDES  1,1,13,4858,4756,103,102,  " Added by gtbl on 05/19/83  1759.5
                                 2-167                 oldn,EXPCL,.TSONR,.BTFSW+.BHUSE+.BLUSE+.BCACH            4JS2
                                        "	word 1	ss_name
                                        	qstring	oldn
    001114  aa  157 154 144 156         	aci	"oldn",4
                                        "	word 2	program_size, load_size
    001115  aa   011372 011224          	zero	4858,4756
                                        "	word 3	entry_point, parameters
    001116  aa   000147 406010          	zero	103,.BTFSW+.BHUSE+.BLUSE+.BCACH
                                        "	word 4	seek_address,initial_load_address
    001117  aa   000015 000146          	zero	13,102
                                        "	word 5	command language offset and length
    001120  aa   002035 000000          	zero	EXPCL-BASNM
                                        "	words 6-9 statistics
    001121  aa   000000 000000          	dec 0,0,0,0
    001122  aa   000000 000000
    001123  aa   000000 000000
    001124  aa   000000 000000
                                        "	word 10	BCI catalog name
    001125  aa  336 362 464 551         	bci	".TSONR",6
                                        "	word 11	library, component
    001126  aa   000001 000001          	zero	1,1
                                        "	word 12	ss_name length
    001127  aa   000000 000004          	zero	,4
                                 2-168  " Program descriptor 51.
                                 2-169  BSED:  PRGDES  1,0,232425,4332,4230,102,102,  " Added by gtbl on 05/19/83  1759.5
                                 2-170                 bsed,EXPCL,.TSBED,.BHUSE+.BLUSE+.BCACH                   4JS2
                                        "	word 1	ss_name
                                        	qstring	bsed
    001130  aa  142 163 145 144         	aci	"bsed",4
                                        "	word 2	program_size, load_size
    001131  aa   010354 010206          	zero	4332,4230
                                        "	word 3	entry_point, parameters
    001132  aa   000146 404010          	zero	102,.BHUSE+.BLUSE+.BCACH
                                        "	word 4	seek_address,initial_load_address
    001133  aa   705751 000146          	zero	232425,102
                                        "	word 5	command language offset and length
    001134  aa   002035 000000          	zero	EXPCL-BASNM
                                        "	words 6-9 statistics
    001135  aa   000000 000000          	dec 0,0,0,0
    001136  aa   000000 000000
    001137  aa   000000 000000
    001140  aa   000000 000000
                                        "	word 10	BCI catalog name
    001141  aa  336 362 222 524         	bci	".TSBED",6
                                        "	word 11	library, component
    001142  aa   000001 000000          	zero	1,0
                                        "	word 12	ss_name length
    001143  aa   000000 000004          	zero	,4
                                 2-171  " Program descriptor 52.
                                 2-172  LIST:  PRGDES  1,0,253007,3448,3344,128,104,  " Added by gtbl on 05/19/83  1759.5
                                 2-173                 list,EXPCL,.TSLST,.BHUSE+.BLUSE
                                        "	word 1	ss_name
                                        	qstring	list
    001144  aa  154 151 163 164         	aci	"list",4
                                        "	word 2	program_size, load_size
    001145  aa   006570 006420          	zero	3448,3344
                                        "	word 3	entry_point, parameters
    001146  aa   000200 004010          	zero	128,.BHUSE+.BLUSE
                                        "	word 4	seek_address,initial_load_address
    001147  aa   756117 000150          	zero	253007,104
                                        "	word 5	command language offset and length
    001150  aa   002035 000000          	zero	EXPCL-BASNM
                                        "	words 6-9 statistics
    001151  aa   000000 000000          	dec 0,0,0,0
    001152  aa   000000 000000
    001153  aa   000000 000000
    001154  aa   000000 000000
                                        "	word 10	BCI catalog name
    001155  aa  336 362 436 263         	bci	".TSLST",6
                                        "	word 11	library, component
    001156  aa   000001 000000          	zero	1,0
                                        "	word 12	ss_name length
    001157  aa   000000 000004          	zero	,4
                                 2-174  " Program descriptor 53.
                                 2-175  TAPE:  PRGDES  1,0,226152,1346,1244,102,102,  " Added by gtbl on 05/19/83  1759.5
                                 2-176                 tape,EXPCL,.TSTAP,.BNSYS+.BSPO  PAPER TAPE INPUT          -PSP-
                                        "	word 1	ss_name
                                        	qstring	tape
    001160  aa  164 141 160 145         	aci	"tape",4
                                        "	word 2	program_size, load_size
    001161  aa   002502 002334          	zero	1346,1244
                                        "	word 3	entry_point, parameters
    001162  aa   000146 011000          	zero	102,.BNSYS+.BSPO
                                        "	word 4	seek_address,initial_load_address
    001163  aa   671550 000146          	zero	226152,102
                                        "	word 5	command language offset and length
    001164  aa   002035 000000          	zero	EXPCL-BASNM
                                        "	words 6-9 statistics
    001165  aa   000000 000000          	dec 0,0,0,0
    001166  aa   000000 000000
    001167  aa   000000 000000
    001170  aa   000000 000000
                                        "	word 10	BCI catalog name
    001171  aa  336 362 632 147         	bci	".TSTAP",6
                                        "	word 11	library, component
    001172  aa   000001 000000          	zero	1,0
                                        "	word 12	ss_name length
    001173  aa   000000 000004          	zero	,4
                                 2-177  " Program descriptor 54.
                                 2-178  PTON:  PRGDES  1,0,226152,1346,1244,102,102,  " Added by gtbl on 05/19/83  1759.5
                                 2-179                 pton,EXPCL,.TSTAP,.BSPO                                  TSSA4M6U
                                        "	word 1	ss_name
                                        	qstring	pton
    001174  aa  160 164 157 156         	aci	"pton",4
                                        "	word 2	program_size, load_size
    001175  aa   002502 002334          	zero	1346,1244
                                        "	word 3	entry_point, parameters
    001176  aa   000146 010000          	zero	102,.BSPO
                                        "	word 4	seek_address,initial_load_address
    001177  aa   671550 000146          	zero	226152,102
                                        "	word 5	command language offset and length
    001200  aa   002035 000000          	zero	EXPCL-BASNM
                                        "	words 6-9 statistics
    001201  aa   000000 000000          	dec 0,0,0,0
    001202  aa   000000 000000
    001203  aa   000000 000000
    001204  aa   000000 000000
                                        "	word 10	BCI catalog name
    001205  aa  336 362 632 147         	bci	".TSTAP",6
                                        "	word 11	library, component
    001206  aa   000001 000000          	zero	1,0
                                        "	word 12	ss_name length
    001207  aa   000000 000004          	zero	,4
                                 2-180  " Program descriptor 55.
                                 2-181  PTOF:  PRGDES  1,0,226152,1346,1244,102,102,  " Added by gtbl on 05/19/83  1759.5
                                 2-182                 ptof,EXPCL,.TSTAP,.BSPO                                  TSSA4M6U
                                        "	word 1	ss_name
                                        	qstring	ptof
    001210  aa  160 164 157 146         	aci	"ptof",4
                                        "	word 2	program_size, load_size
    001211  aa   002502 002334          	zero	1346,1244
                                        "	word 3	entry_point, parameters
    001212  aa   000146 010000          	zero	102,.BSPO
                                        "	word 4	seek_address,initial_load_address
    001213  aa   671550 000146          	zero	226152,102
                                        "	word 5	command language offset and length
    001214  aa   002035 000000          	zero	EXPCL-BASNM
                                        "	words 6-9 statistics
    001215  aa   000000 000000          	dec 0,0,0,0
    001216  aa   000000 000000
    001217  aa   000000 000000
    001220  aa   000000 000000
                                        "	word 10	BCI catalog name
    001221  aa  336 362 632 147         	bci	".TSTAP",6
                                        "	word 11	library, component
    001222  aa   000001 000000          	zero	1,0
                                        "	word 12	ss_name length
    001223  aa   000000 000004          	zero	,4
                                 2-183  " Program descriptor 56.
                                 2-184  EDBN:  PRGDES  0,0,0,0,0,0,0,
                                 2-185                 edbn,(EDBNCL,8)
                                        "	word 1	ss_name
                                        	qstring	edbn
    001224  aa  145 144 142 156         	aci	"edbn",4
                                        "	word 2	program_size, load_size
    001225  aa   000000 000000          	zero	0,0
                                        "	word 3	entry_point, parameters
    001226  aa   000000 000000          	zero	0,
                                        "	word 4	seek_address,initial_load_address
    001227  aa   000000 000000          	zero	0,0
                                        "	word 5	command language offset and length
    001230  aa   001470 000010          	zero	EDBNCL-BASNM,8
                                        "	words 6-9 statistics
    001231  aa   000000 000000          	dec 0,0,0,0
    001232  aa   000000 000000
    001233  aa   000000 000000
    001234  aa   000000 000000
                                        "	word 10	BCI catalog name
    001235  aa   000000 000000          	zero
                                        "	word 11	library, component
    001236  aa   000000 000000          	zero	0,0
                                        "	word 12	ss_name length
    001237  aa   000000 000004          	zero	,4
                                 2-186  " Program descriptor 57.
                                 2-187  NEW:   PRGDES  1,0,256363,2506,2404,195,102,  " Added by gtbl on 05/19/83  1759.5
                                 2-188                 new,EXPCL,.TSNEW,.BPRIV+.BLSMC+.BCMOV
                                        "	word 1	ss_name
                                        	qstring	new
    001240  aa  156 145 167 040         	aci	"new",4
                                        "	word 2	program_size, load_size
    001241  aa   004712 004544          	zero	2506,2404
                                        "	word 3	entry_point, parameters
    001242  aa   000303 020101          	zero	195,.BPRIV+.BLSMC+.BCMOV
                                        "	word 4	seek_address,initial_load_address
    001243  aa   764553 000146          	zero	256363,102
                                        "	word 5	command language offset and length
    001244  aa   002035 000000          	zero	EXPCL-BASNM
                                        "	words 6-9 statistics
    001245  aa   000000 000000          	dec 0,0,0,0
    001246  aa   000000 000000
    001247  aa   000000 000000
    001250  aa   000000 000000
                                        "	word 10	BCI catalog name
    001251  aa  336 362 452 566         	bci	".TSNEW",6
                                        "	word 11	library, component
    001252  aa   000001 000000          	zero	1,0
                                        "	word 12	ss_name length
    001253  aa   000000 000003          	zero	,3
                                 2-189  " Program descriptor 58.
                                 2-190  TERM:  PRGDES  1,0,252015,1088,980,708,108,  " Added by gtbl on 05/19/83  1759.5
                                 2-191                 term,EXPCL,.TSLOG,.BPRIV+.BLSMC,LOGO
                                        "	word 1	ss_name
                                        	qstring	term
    001254  aa  164 145 162 155         	aci	"term",4
                                        "	word 2	program_size, load_size
    001255  aa   002100 001724          	zero	1088,980
                                        "	word 3	entry_point, parameters
    001256  aa   001304 000101          	zero	708,.BPRIV+.BLSMC
                                        "	word 4	seek_address,initial_load_address
    001257  aa   754157 000154          	zero	252015,108
                                        "	word 5	command language offset and length
    001260  aa   002035 000000          	zero	EXPCL-BASNM
                                        "	words 6-9 statistics
    001261  aa   000000 000000          	dec 0,0,0,0
    001262  aa   000000 000000
    001263  aa   000000 000000
    001264  aa   000000 000000
                                        "	word 10	BCI catalog name
    001265  aa  336 362 434 627         	bci	".TSLOG",6
                                        "	word 11	library, component
    001266  aa   000001 000000          	zero	1,0
                                        "	word 12	ss_name length
    001267  aa   000000 000004          	zero	,4
                                 2-192  " Program descriptor 59.
                                 2-193  AUTO:  PRGDES  1,0,231856,662,556,106,106,  " Added by gtbl on 05/19/83  1759.5
                                 2-194                 auto,EXPCL,.TSATO,.BNSYS
                                        "	word 1	ss_name
                                        	qstring	auto
    001270  aa  141 165 164 157         	aci	"auto",4
                                        "	word 2	program_size, load_size
    001271  aa   001226 001054          	zero	662,556
                                        "	word 3	entry_point, parameters
    001272  aa   000152 001000          	zero	106,.BNSYS
                                        "	word 4	seek_address,initial_load_address
    001273  aa   704660 000152          	zero	231856,106
                                        "	word 5	command language offset and length
    001274  aa   002035 000000          	zero	EXPCL-BASNM
                                        "	words 6-9 statistics
    001275  aa   000000 000000          	dec 0,0,0,0
    001276  aa   000000 000000
    001277  aa   000000 000000
    001300  aa   000000 000000
                                        "	word 10	BCI catalog name
    001301  aa  336 362 216 346         	bci	".TSATO",6
                                        "	word 11	library, component
    001302  aa   000001 000000          	zero	1,0
                                        "	word 12	ss_name length
    001303  aa   000000 000004          	zero	,4
                                 2-195  " Program descriptor 60.
                                 2-196  LINE:  PRGDES  1,0,231856,662,556,106,106,  " Added by gtbl on 05/19/83  1759.5
                                 2-197                 line,EXPCL,.TSATO,,AUTO
                                        "	word 1	ss_name
                                        	qstring	line
    001304  aa  154 151 156 145         	aci	"line",4
                                        "	word 2	program_size, load_size
    001305  aa   001226 001054          	zero	662,556
                                        "	word 3	entry_point, parameters
    001306  aa   000152 000000          	zero	106,
                                        "	word 4	seek_address,initial_load_address
    001307  aa   704660 000152          	zero	231856,106
                                        "	word 5	command language offset and length
    001310  aa   002035 000000          	zero	EXPCL-BASNM
                                        "	words 6-9 statistics
    001311  aa   000000 000000          	dec 0,0,0,0
    001312  aa   000000 000000
    001313  aa   000000 000000
    001314  aa   000000 000000
                                        "	word 10	BCI catalog name
    001315  aa  336 362 216 346         	bci	".TSATO",6
                                        "	word 11	library, component
    001316  aa   000001 000000          	zero	1,0
                                        "	word 12	ss_name length
    001317  aa   000000 000004          	zero	,4
                                 2-198  " Program descriptor 61.
                                 2-199  PAGE:  PRGDES  1,0,231856,662,556,106,106,  " Added by gtbl on 05/19/83  1759.5
                                 2-200                 page,EXPCL,.TSATO,,AUTO
                                        "	word 1	ss_name
                                        	qstring	page
    001320  aa  160 141 147 145         	aci	"page",4
                                        "	word 2	program_size, load_size
    001321  aa   001226 001054          	zero	662,556
                                        "	word 3	entry_point, parameters
    001322  aa   000152 000000          	zero	106,
                                        "	word 4	seek_address,initial_load_address
    001323  aa   704660 000152          	zero	231856,106
                                        "	word 5	command language offset and length
    001324  aa   002035 000000          	zero	EXPCL-BASNM
                                        "	words 6-9 statistics
    001325  aa   000000 000000          	dec 0,0,0,0
    001326  aa   000000 000000
    001327  aa   000000 000000
    001330  aa   000000 000000
                                        "	word 10	BCI catalog name
    001331  aa  336 362 216 346         	bci	".TSATO",6
                                        "	word 11	library, component
    001332  aa   000001 000000          	zero	1,0
                                        "	word 12	ss_name length
    001333  aa   000000 000004          	zero	,4
                                 2-201  " Program descriptor 62.
                                 2-202  FDUMP: PRGDES  1,0,157403,4472,4366,121,106,  " Added by gtbl on 05/19/83  1759.5
                                 2-203                 fdum,EXPCL,.TSFDS,.BSPO  FILE DUMP                        -PSP-
                                        "	word 1	ss_name
                                        	qstring	fdum
    001334  aa  146 144 165 155         	aci	"fdum",4
                                        "	word 2	program_size, load_size
    001335  aa   010570 010416          	zero	4472,4366
                                        "	word 3	entry_point, parameters
    001336  aa   000171 010000          	zero	121,.BSPO
                                        "	word 4	seek_address,initial_load_address
    001337  aa   463333 000152          	zero	157403,106
                                        "	word 5	command language offset and length
    001340  aa   002035 000000          	zero	EXPCL-BASNM
                                        "	words 6-9 statistics
    001341  aa   000000 000000          	dec 0,0,0,0
    001342  aa   000000 000000
    001343  aa   000000 000000
    001344  aa   000000 000000
                                        "	word 10	BCI catalog name
    001345  aa  336 362 262 462         	bci	".TSFDS",6
                                        "	word 11	library, component
    001346  aa   000001 000000          	zero	1,0
                                        "	word 12	ss_name length
    001347  aa   000000 000004          	zero	,4
                                 2-204  " Program descriptor 63.
                                 2-205  GET:   PRGDES  1,0,165340,5002,4900,102,102,  " Added by gtbl on 05/19/83  1759.5
                                 2-206                 get,EXPCL,.TSACC,,ACCESS
                                        "	word 1	ss_name
                                        	qstring	get
    001350  aa  147 145 164 040         	aci	"get",4
                                        "	word 2	program_size, load_size
    001351  aa   011612 011444          	zero	5002,4900
                                        "	word 3	entry_point, parameters
    001352  aa   000146 000000          	zero	102,
                                        "	word 4	seek_address,initial_load_address
    001353  aa   502734 000146          	zero	165340,102
                                        "	word 5	command language offset and length
    001354  aa   002035 000000          	zero	EXPCL-BASNM
                                        "	words 6-9 statistics
    001355  aa   000000 000000          	dec 0,0,0,0
    001356  aa   000000 000000
    001357  aa   000000 000000
    001360  aa   000000 000000
                                        "	word 10	BCI catalog name
    001361  aa  336 362 212 323         	bci	".TSACC",6
                                        "	word 11	library, component
    001362  aa   000001 000000          	zero	1,0
                                        "	word 12	ss_name length
    001363  aa   000000 000003          	zero	,3
                                 2-207  " Program descriptor 64.
                                 2-208  SNAP:  PRGDES  1,0,148075,2076,1968,108,108,  " Added by gtbl on 05/19/83  1759.5
                                 2-209                 sabt,EXPCL,.TSABT,.BLUSE+.BSPO  SCAN ABORT FILE           -PSP-
                                        "	word 1	ss_name
                                        	qstring	sabt
    001364  aa  163 141 142 164         	aci	"sabt",4
                                        "	word 2	program_size, load_size
    001365  aa   004034 003660          	zero	2076,1968
                                        "	word 3	entry_point, parameters
    001366  aa   000154 010010          	zero	108,.BLUSE+.BSPO
                                        "	word 4	seek_address,initial_load_address
    001367  aa   441153 000154          	zero	148075,108
                                        "	word 5	command language offset and length
    001370  aa   002035 000000          	zero	EXPCL-BASNM
                                        "	words 6-9 statistics
    001371  aa   000000 000000          	dec 0,0,0,0
    001372  aa   000000 000000
    001373  aa   000000 000000
    001374  aa   000000 000000
                                        "	word 10	BCI catalog name
    001375  aa  336 362 212 263         	bci	".TSABT",6
                                        "	word 11	library, component
    001376  aa   000001 000000          	zero	1,0
                                        "	word 12	ss_name length
    001377  aa   000000 000004          	zero	,4
                                 2-210  " Program descriptor 65.
                                 2-211  CATA:  PRGDES  1,0,165340,5002,4900,102,102,  " Added by gtbl on 05/19/83  1759.5
                                 2-212                 cata,EXPCL,.TSACC,.BGSPC,ACCESS
                                        "	word 1	ss_name
                                        	qstring	cata
    001400  aa  143 141 164 141         	aci	"cata",4
                                        "	word 2	program_size, load_size
    001401  aa   011612 011444          	zero	5002,4900
                                        "	word 3	entry_point, parameters
    001402  aa   000146 000400          	zero	102,.BGSPC
                                        "	word 4	seek_address,initial_load_address
    001403  aa   502734 000146          	zero	165340,102
                                        "	word 5	command language offset and length
    001404  aa   002035 000000          	zero	EXPCL-BASNM
                                        "	words 6-9 statistics
    001405  aa   000000 000000          	dec 0,0,0,0
    001406  aa   000000 000000
    001407  aa   000000 000000
    001410  aa   000000 000000
                                        "	word 10	BCI catalog name
    001411  aa  336 362 212 323         	bci	".TSACC",6
                                        "	word 11	library, component
    001412  aa   000001 000000          	zero	1,0
                                        "	word 12	ss_name length
    001413  aa   000000 000004          	zero	,4
                                 2-213  " Program descriptor 66.
                                 2-214  PERM:  PRGDES  1,1,17080,5196,5094,102,102,  " Added by gtbl on 05/19/83  1759.5
                                 2-215                 perm,EXPCL,.TSSAV,,SAVE
                                        "	word 1	ss_name
                                        	qstring	perm
    001414  aa  160 145 162 155         	aci	"perm",4
                                        "	word 2	program_size, load_size
    001415  aa   012114 011746          	zero	5196,5094
                                        "	word 3	entry_point, parameters
    001416  aa   000146 000000          	zero	102,
                                        "	word 4	seek_address,initial_load_address
    001417  aa   041270 000146          	zero	17080,102
                                        "	word 5	command language offset and length
    001420  aa   002035 000000          	zero	EXPCL-BASNM
                                        "	words 6-9 statistics
    001421  aa   000000 000000          	dec 0,0,0,0
    001422  aa   000000 000000
    001423  aa   000000 000000
    001424  aa   000000 000000
                                        "	word 10	BCI catalog name
    001425  aa  336 362 622 165         	bci	".TSSAV",6
                                        "	word 11	library, component
    001426  aa   000001 000001          	zero	1,1
                                        "	word 12	ss_name length
    001427  aa   000000 000004          	zero	,4
                                 2-216  " Program descriptor 67.
                                 2-217  REMO:  PRGDES  1,0,165340,5002,4900,102,102,  " Added by gtbl on 05/19/83  1759.5
                                 2-218                 remo,EXPCL,.TSACC,,ACCESS
                                        "	word 1	ss_name
                                        	qstring	remo
    001430  aa  162 145 155 157         	aci	"remo",4
                                        "	word 2	program_size, load_size
    001431  aa   011612 011444          	zero	5002,4900
                                        "	word 3	entry_point, parameters
    001432  aa   000146 000000          	zero	102,
                                        "	word 4	seek_address,initial_load_address
    001433  aa   502734 000146          	zero	165340,102
                                        "	word 5	command language offset and length
    001434  aa   002035 000000          	zero	EXPCL-BASNM
                                        "	words 6-9 statistics
    001435  aa   000000 000000          	dec 0,0,0,0
    001436  aa   000000 000000
    001437  aa   000000 000000
    001440  aa   000000 000000
                                        "	word 10	BCI catalog name
    001441  aa  336 362 212 323         	bci	".TSACC",6
                                        "	word 11	library, component
    001442  aa   000001 000000          	zero	1,0
                                        "	word 12	ss_name length
    001443  aa   000000 000004          	zero	,4
                                 2-219  " Program descriptor 68.
                                 2-220  UCASE: PRGDES  0,0,0,0,0,0,0,
                                 2-221                 ucas,UCASCL     UPPER CASE COMMAND
                                        "	word 1	ss_name
                                        	qstring	ucas
    001444  aa  165 143 141 163         	aci	"ucas",4
                                        "	word 2	program_size, load_size
    001445  aa   000000 000000          	zero	0,0
                                        "	word 3	entry_point, parameters
    001446  aa   000000 000000          	zero	0,
                                        "	word 4	seek_address,initial_load_address
    001447  aa   000000 000000          	zero	0,0
                                        "	word 5	command language offset and length
    001450  aa   002025 000000          	zero	UCASCL-BASNM
                                        "	words 6-9 statistics
    001451  aa   000000 000000          	dec 0,0,0,0
    001452  aa   000000 000000
    001453  aa   000000 000000
    001454  aa   000000 000000
                                        "	word 10	BCI catalog name
    001455  aa   000000 000000          	zero
                                        "	word 11	library, component
    001456  aa   000000 000000          	zero	0,0
                                        "	word 12	ss_name length
    001457  aa   000000 000004          	zero	,4
                                 2-222  " Program descriptor 69.
                                 2-223  LCASE: PRGDES  0,0,0,0,0,0,0,
                                 2-224                 lcas,LCASCL     LOWER CASE COMMAND
                                        "	word 1	ss_name
                                        	qstring	lcas
    001460  aa  154 143 141 163         	aci	"lcas",4
                                        "	word 2	program_size, load_size
    001461  aa   000000 000000          	zero	0,0
                                        "	word 3	entry_point, parameters
    001462  aa   000000 000000          	zero	0,
                                        "	word 4	seek_address,initial_load_address
    001463  aa   000000 000000          	zero	0,0
                                        "	word 5	command language offset and length
    001464  aa   002027 000000          	zero	LCASCL-BASNM
                                        "	words 6-9 statistics
    001465  aa   000000 000000          	dec 0,0,0,0
    001466  aa   000000 000000
    001467  aa   000000 000000
    001470  aa   000000 000000
                                        "	word 10	BCI catalog name
    001471  aa   000000 000000          	zero
                                        "	word 11	library, component
    001472  aa   000000 000000          	zero	0,0
                                        "	word 12	ss_name length
    001473  aa   000000 000004          	zero	,4
                                 2-225  " Program descriptor 70.
                                 2-226  FORM:  PRGDES  0,0,0,0,0,0,0,
                                 2-227                 form,FORMCL     FORM FEED COMMAND
                                        "	word 1	ss_name
                                        	qstring	form
    001474  aa  146 157 162 155         	aci	"form",4
                                        "	word 2	program_size, load_size
    001475  aa   000000 000000          	zero	0,0
                                        "	word 3	entry_point, parameters
    001476  aa   000000 000000          	zero	0,
                                        "	word 4	seek_address,initial_load_address
    001477  aa   000000 000000          	zero	0,0
                                        "	word 5	command language offset and length
    001500  aa   002031 000000          	zero	FORMCL-BASNM
                                        "	words 6-9 statistics
    001501  aa   000000 000000          	dec 0,0,0,0
    001502  aa   000000 000000
    001503  aa   000000 000000
    001504  aa   000000 000000
                                        "	word 10	BCI catalog name
    001505  aa   000000 000000          	zero
                                        "	word 11	library, component
    001506  aa   000000 000000          	zero	0,0
                                        "	word 12	ss_name length
    001507  aa   000000 000004          	zero	,4
                                 2-228  " Program descriptor 71.
                                 2-229  NFORM: PRGDES  0,0,0,0,0,0,0,
                                 2-230                 nfor,NFORCL     NO FORM FEED COMMAND
                                        "	word 1	ss_name
                                        	qstring	nfor
    001510  aa  156 146 157 162         	aci	"nfor",4
                                        "	word 2	program_size, load_size
    001511  aa   000000 000000          	zero	0,0
                                        "	word 3	entry_point, parameters
    001512  aa   000000 000000          	zero	0,
                                        "	word 4	seek_address,initial_load_address
    001513  aa   000000 000000          	zero	0,0
                                        "	word 5	command language offset and length
    001514  aa   002033 000000          	zero	NFORCL-BASNM
                                        "	words 6-9 statistics
    001515  aa   000000 000000          	dec 0,0,0,0
    001516  aa   000000 000000
    001517  aa   000000 000000
    001520  aa   000000 000000
                                        "	word 10	BCI catalog name
    001521  aa   000000 000000          	zero
                                        "	word 11	library, component
    001522  aa   000000 000000          	zero	0,0
                                        "	word 12	ss_name length
    001523  aa   000000 000004          	zero	,4
                                 2-231  " Program descriptor 72.
                                 2-232  STRIP: PRGDES  1,1,5106,4890,4788,1772,102,  " Added by gtbl on 05/19/83  1759.5
                                 2-233                 stri,EXPCL,.TSRSQ,,RESE
                                        "	word 1	ss_name
                                        	qstring	stri
    001524  aa  163 164 162 151         	aci	"stri",4
                                        "	word 2	program_size, load_size
    001525  aa   011432 011264          	zero	4890,4788
                                        "	word 3	entry_point, parameters
    001526  aa   003354 000000          	zero	1772,
                                        "	word 4	seek_address,initial_load_address
    001527  aa   011762 000146          	zero	5106,102
                                        "	word 5	command language offset and length
    001530  aa   002035 000000          	zero	EXPCL-BASNM
                                        "	words 6-9 statistics
    001531  aa   000000 000000          	dec 0,0,0,0
    001532  aa   000000 000000
    001533  aa   000000 000000
    001534  aa   000000 000000
                                        "	word 10	BCI catalog name
    001535  aa  336 362 516 250         	bci	".TSRSQ",6
                                        "	word 11	library, component
    001536  aa   000001 000001          	zero	1,1
                                        "	word 12	ss_name length
    001537  aa   000000 000004          	zero	,4
                                 2-234  " Program descriptor 73.
                                 2-235  SCAN:  PRGDES  1,1,9907,6064,5956,119,108,  " Added by gtbl on 05/19/83  1759.5
                                 2-236                 scan,EXPCL,.TSCAN
                                        "	word 1	ss_name
                                        	qstring	scan
    001540  aa  163 143 141 156         	aci	"scan",4
                                        "	word 2	program_size, load_size
    001541  aa   013660 013504          	zero	6064,5956
                                        "	word 3	entry_point, parameters
    001542  aa   000167 000000          	zero	119,
                                        "	word 4	seek_address,initial_load_address
    001543  aa   023263 000154          	zero	9907,108
                                        "	word 5	command language offset and length
    001544  aa   002035 000000          	zero	EXPCL-BASNM
                                        "	words 6-9 statistics
    001545  aa   000000 000000          	dec 0,0,0,0
    001546  aa   000000 000000
    001547  aa   000000 000000
    001550  aa   000000 000000
                                        "	word 10	BCI catalog name
    001551  aa  336 362 232 145         	bci	".TSCAN",6
                                        "	word 11	library, component
    001552  aa   000001 000001          	zero	1,1
                                        "	word 12	ss_name length
    001553  aa   000000 000004          	zero	,4
                                 2-237  " Program descriptor 74.
                                 2-238  RUNOFF:PRGDES  1,0,40321,6142,6040,103,102,  " Added by gtbl on 05/19/83  1759.5
                                 2-239                 runo,EXPCL,.TSROF,.BCMOV+.BSPO  RUNOFF                    -PSP-
                                        "	word 1	ss_name
                                        	qstring	runo
    001554  aa  162 165 156 157         	aci	"runo",4
                                        "	word 2	program_size, load_size
    001555  aa   013776 013630          	zero	6142,6040
                                        "	word 3	entry_point, parameters
    001556  aa   000147 030000          	zero	103,.BCMOV+.BSPO
                                        "	word 4	seek_address,initial_load_address
    001557  aa   116601 000146          	zero	40321,102
                                        "	word 5	command language offset and length
    001560  aa   002035 000000          	zero	EXPCL-BASNM
                                        "	words 6-9 statistics
    001561  aa   000000 000000          	dec 0,0,0,0
    001562  aa   000000 000000
    001563  aa   000000 000000
    001564  aa   000000 000000
                                        "	word 10	BCI catalog name
    001565  aa  336 362 514 626         	bci	".TSROF",6
                                        "	word 11	library, component
    001566  aa   000001 000000          	zero	1,0
                                        "	word 12	ss_name length
    001567  aa   000000 000004          	zero	,4
                                 2-240  " Program descriptor 75.
                                 2-241  JSTS:  PRGDES  1,0,242464,2038,1930,108,108,  " Added by gtbl on 05/19/83  1759.5
                                 2-242                 jsts,EXPCL,.TSJST,.BPRIV
                                        "	word 1	ss_name
                                        	qstring	jsts
    001570  aa  152 163 164 163         	aci	"jsts",4
                                        "	word 2	program_size, load_size
    001571  aa   003766 003612          	zero	2038,1930
                                        "	word 3	entry_point, parameters
    001572  aa   000154 000001          	zero	108,.BPRIV
                                        "	word 4	seek_address,initial_load_address
    001573  aa   731440 000154          	zero	242464,108
                                        "	word 5	command language offset and length
    001574  aa   002035 000000          	zero	EXPCL-BASNM
                                        "	words 6-9 statistics
    001575  aa   000000 000000          	dec 0,0,0,0
    001576  aa   000000 000000
    001577  aa   000000 000000
    001600  aa   000000 000000
                                        "	word 10	BCI catalog name
    001601  aa  336 362 416 263         	bci	".TSJST",6
                                        "	word 11	library, component
    001602  aa   000001 000000          	zero	1,0
                                        "	word 12	ss_name length
    001603  aa   000000 000004          	zero	,4
                                 2-243  " Program descriptor 76.
                                 2-244  ABC:   PRGDES  1,0,228314,3630,3530,100,100,  " Added by gtbl on 05/19/83  1759.5
                                 2-245                 abc,EXPCL,.TSABC
                                        "	word 1	ss_name
                                        	qstring	abc
    001604  aa  141 142 143 040         	aci	"abc",4
                                        "	word 2	program_size, load_size
    001605  aa   007056 006712          	zero	3630,3530
                                        "	word 3	entry_point, parameters
    001606  aa   000144 000000          	zero	100,
                                        "	word 4	seek_address,initial_load_address
    001607  aa   675732 000144          	zero	228314,100
                                        "	word 5	command language offset and length
    001610  aa   002035 000000          	zero	EXPCL-BASNM
                                        "	words 6-9 statistics
    001611  aa   000000 000000          	dec 0,0,0,0
    001612  aa   000000 000000
    001613  aa   000000 000000
    001614  aa   000000 000000
                                        "	word 10	BCI catalog name
    001615  aa  336 362 212 223         	bci	".TSABC",6
                                        "	word 11	library, component
    001616  aa   000001 000000          	zero	1,0
                                        "	word 12	ss_name length
    001617  aa   000000 000003          	zero	,3
                                 2-246  " Program descriptor 77.
                                 2-247  HOLD:  PRGDES  0,0,0,0,0,0,0,
                                 2-248                 hold,HOLDCL
                                        "	word 1	ss_name
                                        	qstring	hold
    001620  aa  150 157 154 144         	aci	"hold",4
                                        "	word 2	program_size, load_size
    001621  aa   000000 000000          	zero	0,0
                                        "	word 3	entry_point, parameters
    001622  aa   000000 000000          	zero	0,
                                        "	word 4	seek_address,initial_load_address
    001623  aa   000000 000000          	zero	0,0
                                        "	word 5	command language offset and length
    001624  aa   002015 000000          	zero	HOLDCL-BASNM
                                        "	words 6-9 statistics
    001625  aa   000000 000000          	dec 0,0,0,0
    001626  aa   000000 000000
    001627  aa   000000 000000
    001630  aa   000000 000000
                                        "	word 10	BCI catalog name
    001631  aa   000000 000000          	zero
                                        "	word 11	library, component
    001632  aa   000000 000000          	zero	0,0
                                        "	word 12	ss_name length
    001633  aa   000000 000004          	zero	,4
                                 2-249  " Program descriptor 78.
                                 2-250  SEND:  PRGDES  0,0,0,0,0,0,0,
                                 2-251                 send,SENDCL
                                        "	word 1	ss_name
                                        	qstring	send
    001634  aa  163 145 156 144         	aci	"send",4
                                        "	word 2	program_size, load_size
    001635  aa   000000 000000          	zero	0,0
                                        "	word 3	entry_point, parameters
    001636  aa   000000 000000          	zero	0,
                                        "	word 4	seek_address,initial_load_address
    001637  aa   000000 000000          	zero	0,0
                                        "	word 5	command language offset and length
    001640  aa   002017 000000          	zero	SENDCL-BASNM
                                        "	words 6-9 statistics
    001641  aa   000000 000000          	dec 0,0,0,0
    001642  aa   000000 000000
    001643  aa   000000 000000
    001644  aa   000000 000000
                                        "	word 10	BCI catalog name
    001645  aa   000000 000000          	zero
                                        "	word 11	library, component
    001646  aa   000000 000000          	zero	0,0
                                        "	word 12	ss_name length
    001647  aa   000000 000004          	zero	,4
                                 2-252  " Program descriptor 79.
                                 2-253  LENG:  PRGDES  1,1,17080,5196,5094,102,102,  " Added by gtbl on 05/19/83  1759.5
                                 2-254                 leng,EXPCL,.TSSAV,,SAVE
                                        "	word 1	ss_name
                                        	qstring	leng
    001650  aa  154 145 156 147         	aci	"leng",4
                                        "	word 2	program_size, load_size
    001651  aa   012114 011746          	zero	5196,5094
                                        "	word 3	entry_point, parameters
    001652  aa   000146 000000          	zero	102,
                                        "	word 4	seek_address,initial_load_address
    001653  aa   041270 000146          	zero	17080,102
                                        "	word 5	command language offset and length
    001654  aa   002035 000000          	zero	EXPCL-BASNM
                                        "	words 6-9 statistics
    001655  aa   000000 000000          	dec 0,0,0,0
    001656  aa   000000 000000
    001657  aa   000000 000000
    001660  aa   000000 000000
                                        "	word 10	BCI catalog name
    001661  aa  336 362 622 165         	bci	".TSSAV",6
                                        "	word 11	library, component
    001662  aa   000001 000001          	zero	1,1
                                        "	word 12	ss_name length
    001663  aa   000000 000004          	zero	,4
                                 2-255  " Program descriptor 80.
                                 2-256  JABT:  PRGDES  1,0,242464,2038,1930,108,108,  " Added by gtbl on 05/19/83  1759.5
                                 2-257                 jabt,EXPCL,.TSJST,.BPRIV,JSTS
                                        "	word 1	ss_name
                                        	qstring	jabt
    001664  aa  152 141 142 164         	aci	"jabt",4
                                        "	word 2	program_size, load_size
    001665  aa   003766 003612          	zero	2038,1930
                                        "	word 3	entry_point, parameters
    001666  aa   000154 000001          	zero	108,.BPRIV
                                        "	word 4	seek_address,initial_load_address
    001667  aa   731440 000154          	zero	242464,108
                                        "	word 5	command language offset and length
    001670  aa   002035 000000          	zero	EXPCL-BASNM
                                        "	words 6-9 statistics
    001671  aa   000000 000000          	dec 0,0,0,0
    001672  aa   000000 000000
    001673  aa   000000 000000
    001674  aa   000000 000000
                                        "	word 10	BCI catalog name
    001675  aa  336 362 416 263         	bci	".TSJST",6
                                        "	word 11	library, component
    001676  aa   000001 000000          	zero	1,0
                                        "	word 12	ss_name length
    001677  aa   000000 000004          	zero	,4
                                 2-258  " Program descriptor 81.
                                 2-259  APRT:  PRGDES  1,1,27032,12380,12277,503,103,  " Added by gtbl on 05/19/83  1759.5
                                 2-260                 apri,EXPCL,.TCONV,.BCMOV,CONV                            4JS2
                                        "	word 1	ss_name
                                        	qstring	apri
    001700  aa  141 160 162 151         	aci	"apri",4
                                        "	word 2	program_size, load_size
    001701  aa   030134 027765          	zero	12380,12277
                                        "	word 3	entry_point, parameters
    001702  aa   000767 020000          	zero	503,.BCMOV
                                        "	word 4	seek_address,initial_load_address
    001703  aa   064630 000147          	zero	27032,103
                                        "	word 5	command language offset and length
    001704  aa   002035 000000          	zero	EXPCL-BASNM
                                        "	words 6-9 statistics
    001705  aa   000000 000000          	dec 0,0,0,0
    001706  aa   000000 000000
    001707  aa   000000 000000
    001710  aa   000000 000000
                                        "	word 10	BCI catalog name
    001711  aa  336 323 464 565         	bci	".TCONV",6
                                        "	word 11	library, component
    001712  aa   000001 000001          	zero	1,1
                                        "	word 12	ss_name length
    001713  aa   000000 000004          	zero	,4
                                 2-261  " Program descriptor 82.
                                 2-262  PURG:  PRGDES  1,0,165340,5002,4900,102,102,  " Added by gtbl on 05/19/83  1759.5
                                 2-263                 purg,EXPCL,.TSACC,,ACCESS
                                        "	word 1	ss_name
                                        	qstring	purg
    001714  aa  160 165 162 147         	aci	"purg",4
                                        "	word 2	program_size, load_size
    001715  aa   011612 011444          	zero	5002,4900
                                        "	word 3	entry_point, parameters
    001716  aa   000146 000000          	zero	102,
                                        "	word 4	seek_address,initial_load_address
    001717  aa   502734 000146          	zero	165340,102
                                        "	word 5	command language offset and length
    001720  aa   002035 000000          	zero	EXPCL-BASNM
                                        "	words 6-9 statistics
    001721  aa   000000 000000          	dec 0,0,0,0
    001722  aa   000000 000000
    001723  aa   000000 000000
    001724  aa   000000 000000
                                        "	word 10	BCI catalog name
    001725  aa  336 362 212 323         	bci	".TSACC",6
                                        "	word 11	library, component
    001726  aa   000001 000000          	zero	1,0
                                        "	word 12	ss_name length
    001727  aa   000000 000004          	zero	,4
                                 2-264  " Program descriptor 83.
                                 2-265  RELE:  PRGDES  1,0,165340,5002,4900,102,102,  " Added by gtbl on 05/19/83  1759.5
                                 2-266                 rele,EXPCL,.TSACC,,ACCESS
                                        "	word 1	ss_name
                                        	qstring	rele
    001730  aa  162 145 154 145         	aci	"rele",4
                                        "	word 2	program_size, load_size
    001731  aa   011612 011444          	zero	5002,4900
                                        "	word 3	entry_point, parameters
    001732  aa   000146 000000          	zero	102,
                                        "	word 4	seek_address,initial_load_address
    001733  aa   502734 000146          	zero	165340,102
                                        "	word 5	command language offset and length
    001734  aa   002035 000000          	zero	EXPCL-BASNM
                                        "	words 6-9 statistics
    001735  aa   000000 000000          	dec 0,0,0,0
    001736  aa   000000 000000
    001737  aa   000000 000000
    001740  aa   000000 000000
                                        "	word 10	BCI catalog name
    001741  aa  336 362 212 323         	bci	".TSACC",6
                                        "	word 11	library, component
    001742  aa   000001 000000          	zero	1,0
                                        "	word 12	ss_name length
    001743  aa   000000 000004          	zero	,4
                                 2-267  " Program descriptor 84.
                                 2-268  SMCL:  PRGDES  1,0,165340,5002,4900,102,102,  " Added by gtbl on 05/19/83  1759.5
                                 2-269                 smcl,EXPCL,.TSACC,,ACCESS
                                        "	word 1	ss_name
                                        	qstring	smcl
    001744  aa  163 155 143 154         	aci	"smcl",4
                                        "	word 2	program_size, load_size
    001745  aa   011612 011444          	zero	5002,4900
                                        "	word 3	entry_point, parameters
    001746  aa   000146 000000          	zero	102,
                                        "	word 4	seek_address,initial_load_address
    001747  aa   502734 000146          	zero	165340,102
                                        "	word 5	command language offset and length
    001750  aa   002035 000000          	zero	EXPCL-BASNM
                                        "	words 6-9 statistics
    001751  aa   000000 000000          	dec 0,0,0,0
    001752  aa   000000 000000
    001753  aa   000000 000000
    001754  aa   000000 000000
                                        "	word 10	BCI catalog name
    001755  aa  336 362 212 323         	bci	".TSACC",6
                                        "	word 11	library, component
    001756  aa   000001 000000          	zero	1,0
                                        "	word 12	ss_name length
    001757  aa   000000 000004          	zero	,4
                                 2-270  " Program descriptor 85.
                                 2-271  COPY:  PRGDES  1,1,17080,5196,5094,102,102,  " Added by gtbl on 05/19/83  1759.5
                                 2-272                 cpy,EXPCL,.TSSAV,,SAVE
                                        "	word 1	ss_name
                                        	qstring	cpy
    001760  aa  143 160 171 040         	aci	"cpy",4
                                        "	word 2	program_size, load_size
    001761  aa   012114 011746          	zero	5196,5094
                                        "	word 3	entry_point, parameters
    001762  aa   000146 000000          	zero	102,
                                        "	word 4	seek_address,initial_load_address
    001763  aa   041270 000146          	zero	17080,102
                                        "	word 5	command language offset and length
    001764  aa   002035 000000          	zero	EXPCL-BASNM
                                        "	words 6-9 statistics
    001765  aa   000000 000000          	dec 0,0,0,0
    001766  aa   000000 000000
    001767  aa   000000 000000
    001770  aa   000000 000000
                                        "	word 10	BCI catalog name
    001771  aa  336 362 622 165         	bci	".TSSAV",6
                                        "	word 11	library, component
    001772  aa   000001 000001          	zero	1,1
                                        "	word 12	ss_name length
    001773  aa   000000 000003          	zero	,3
                                 2-273  " Program descriptor 86.
                                 2-274  CODE:  PRGDES  1,1,17080,5196,5094,102,102,  " Added by gtbl on 05/19/83  1759.5
                                 2-275                 code,EXPCL,.TSSAV,,SAVE
                                        "	word 1	ss_name
                                        	qstring	code
    001774  aa  143 157 144 145         	aci	"code",4
                                        "	word 2	program_size, load_size
    001775  aa   012114 011746          	zero	5196,5094
                                        "	word 3	entry_point, parameters
    001776  aa   000146 000000          	zero	102,
                                        "	word 4	seek_address,initial_load_address
    001777  aa   041270 000146          	zero	17080,102
                                        "	word 5	command language offset and length
    002000  aa   002035 000000          	zero	EXPCL-BASNM
                                        "	words 6-9 statistics
    002001  aa   000000 000000          	dec 0,0,0,0
    002002  aa   000000 000000
    002003  aa   000000 000000
    002004  aa   000000 000000
                                        "	word 10	BCI catalog name
    002005  aa  336 362 622 165         	bci	".TSSAV",6
                                        "	word 11	library, component
    002006  aa   000001 000001          	zero	1,1
                                        "	word 12	ss_name length
    002007  aa   000000 000004          	zero	,4
                                 2-276  " Program descriptor 87.
                                 2-277  DECODE:PRGDES  1,1,17080,5196,5094,102,102,  " Added by gtbl on 05/19/83  1759.5
                                 2-278                 deco,EXPCL,.TSSAV,,SAVE
                                        "	word 1	ss_name
                                        	qstring	deco
    002010  aa  144 145 143 157         	aci	"deco",4
                                        "	word 2	program_size, load_size
    002011  aa   012114 011746          	zero	5196,5094
                                        "	word 3	entry_point, parameters
    002012  aa   000146 000000          	zero	102,
                                        "	word 4	seek_address,initial_load_address
    002013  aa   041270 000146          	zero	17080,102
                                        "	word 5	command language offset and length
    002014  aa   002035 000000          	zero	EXPCL-BASNM
                                        "	words 6-9 statistics
    002015  aa   000000 000000          	dec 0,0,0,0
    002016  aa   000000 000000
    002017  aa   000000 000000
    002020  aa   000000 000000
                                        "	word 10	BCI catalog name
    002021  aa  336 362 622 165         	bci	".TSSAV",6
                                        "	word 11	library, component
    002022  aa   000001 000001          	zero	1,1
                                        "	word 12	ss_name length
    002023  aa   000000 000004          	zero	,4
                                 2-279  " Program descriptor 88.
                                 2-280  DASH:  PRGDES  1,0,15929,11264,11162,1435,102,  " Added by gtbl on 05/19/83  1759.5
                                 2-281                 -,EXPCL,.TSEDT,,EDTX
                                        "	word 1	ss_name
                                        	qstring	-
    002024  aa  055 040 040 040         	aci	"-",4
                                        "	word 2	program_size, load_size
    002025  aa   026000 025632          	zero	11264,11162
                                        "	word 3	entry_point, parameters
    002026  aa   002633 000000          	zero	1435,
                                        "	word 4	seek_address,initial_load_address
    002027  aa   037071 000146          	zero	15929,102
                                        "	word 5	command language offset and length
    002030  aa   002035 000000          	zero	EXPCL-BASNM
                                        "	words 6-9 statistics
    002031  aa   000000 000000          	dec 0,0,0,0
    002032  aa   000000 000000
    002033  aa   000000 000000
    002034  aa   000000 000000
                                        "	word 10	BCI catalog name
    002035  aa  336 362 252 463         	bci	".TSEDT",6
                                        "	word 11	library, component
    002036  aa   000001 000000          	zero	1,0
                                        "	word 12	ss_name length
    002037  aa   000000 000001          	zero	,1
                                 2-282  " Program descriptor 89.
                                 2-283  ERAS:  PRGDES  1,1,17080,5196,5094,102,102,  " Added by gtbl on 05/19/83  1759.5
                                 2-284                 eras,EXPCL,.TSSAV,,SAVE
                                        "	word 1	ss_name
                                        	qstring	eras
    002040  aa  145 162 141 163         	aci	"eras",4
                                        "	word 2	program_size, load_size
    002041  aa   012114 011746          	zero	5196,5094
                                        "	word 3	entry_point, parameters
    002042  aa   000146 000000          	zero	102,
                                        "	word 4	seek_address,initial_load_address
    002043  aa   041270 000146          	zero	17080,102
                                        "	word 5	command language offset and length
    002044  aa   002035 000000          	zero	EXPCL-BASNM
                                        "	words 6-9 statistics
    002045  aa   000000 000000          	dec 0,0,0,0
    002046  aa   000000 000000
    002047  aa   000000 000000
    002050  aa   000000 000000
                                        "	word 10	BCI catalog name
    002051  aa  336 362 622 165         	bci	".TSSAV",6
                                        "	word 11	library, component
    002052  aa   000001 000001          	zero	1,1
                                        "	word 12	ss_name length
    002053  aa   000000 000004          	zero	,4
                                 2-285  " Program descriptor 90.
                                 2-286  RESA:  PRGDES  1,1,17080,5196,5094,102,102,  " Added by gtbl on 05/19/83  1759.5
                                 2-287                 resa,EXPCL,.TSSAV,,SAVE
                                        "	word 1	ss_name
                                        	qstring	resa
    002054  aa  162 145 163 141         	aci	"resa",4
                                        "	word 2	program_size, load_size
    002055  aa   012114 011746          	zero	5196,5094
                                        "	word 3	entry_point, parameters
    002056  aa   000146 000000          	zero	102,
                                        "	word 4	seek_address,initial_load_address
    002057  aa   041270 000146          	zero	17080,102
                                        "	word 5	command language offset and length
    002060  aa   002035 000000          	zero	EXPCL-BASNM
                                        "	words 6-9 statistics
    002061  aa   000000 000000          	dec 0,0,0,0
    002062  aa   000000 000000
    002063  aa   000000 000000
    002064  aa   000000 000000
                                        "	word 10	BCI catalog name
    002065  aa  336 362 622 165         	bci	".TSSAV",6
                                        "	word 11	library, component
    002066  aa   000001 000001          	zero	1,1
                                        "	word 12	ss_name length
    002067  aa   000000 000004          	zero	,4
                                 2-288  " Program descriptor 91.
                                 2-289         PRGDES  1,0,241186,1366,1266,100,100,  " Added by gtbl on 05/19/83  1759.5
                                 2-290                 jmes,EXPCL,.TSJMS
                                        "	word 1	ss_name
                                        	qstring	jmes
    002070  aa  152 155 145 163         	aci	"jmes",4
                                        "	word 2	program_size, load_size
    002071  aa   002526 002362          	zero	1366,1266
                                        "	word 3	entry_point, parameters
    002072  aa   000144 000000          	zero	100,
                                        "	word 4	seek_address,initial_load_address
    002073  aa   727042 000144          	zero	241186,100
                                        "	word 5	command language offset and length
    002074  aa   002035 000000          	zero	EXPCL-BASNM
                                        "	words 6-9 statistics
    002075  aa   000000 000000          	dec 0,0,0,0
    002076  aa   000000 000000
    002077  aa   000000 000000
    002100  aa   000000 000000
                                        "	word 10	BCI catalog name
    002101  aa  336 362 414 462         	bci	".TSJMS",6
                                        "	word 11	library, component
    002102  aa   000001 000000          	zero	1,0
                                        "	word 12	ss_name length
    002103  aa   000000 000004          	zero	,4
                                 2-291  " Program descriptor 92.
                                 2-292  NOPAR: PRGDES  0,0,0,0,0,0,0,
                                 2-293                 nopa,NOPACL
                                        "	word 1	ss_name
                                        	qstring	nopa
    002104  aa  156 157 160 141         	aci	"nopa",4
                                        "	word 2	program_size, load_size
    002105  aa   000000 000000          	zero	0,0
                                        "	word 3	entry_point, parameters
    002106  aa   000000 000000          	zero	0,
                                        "	word 4	seek_address,initial_load_address
    002107  aa   000000 000000          	zero	0,0
                                        "	word 5	command language offset and length
    002110  aa   002021 000000          	zero	NOPACL-BASNM
                                        "	words 6-9 statistics
    002111  aa   000000 000000          	dec 0,0,0,0
    002112  aa   000000 000000
    002113  aa   000000 000000
    002114  aa   000000 000000
                                        "	word 10	BCI catalog name
    002115  aa   000000 000000          	zero
                                        "	word 11	library, component
    002116  aa   000000 000000          	zero	0,0
                                        "	word 12	ss_name length
    002117  aa   000000 000004          	zero	,4
                                 2-294  " Program descriptor 93.
                                 2-295  PARI:  PRGDES  0,0,0,0,0,0,0,
                                 2-296                 pari,PARICL
                                        "	word 1	ss_name
                                        	qstring	pari
    002120  aa  160 141 162 151         	aci	"pari",4
                                        "	word 2	program_size, load_size
    002121  aa   000000 000000          	zero	0,0
                                        "	word 3	entry_point, parameters
    002122  aa   000000 000000          	zero	0,
                                        "	word 4	seek_address,initial_load_address
    002123  aa   000000 000000          	zero	0,0
                                        "	word 5	command language offset and length
    002124  aa   002023 000000          	zero	PARICL-BASNM
                                        "	words 6-9 statistics
    002125  aa   000000 000000          	dec 0,0,0,0
    002126  aa   000000 000000
    002127  aa   000000 000000
    002130  aa   000000 000000
                                        "	word 10	BCI catalog name
    002131  aa   000000 000000          	zero
                                        "	word 11	library, component
    002132  aa   000000 000000          	zero	0,0
                                        "	word 12	ss_name length
    002133  aa   000000 000004          	zero	,4
                                 2-297  " Program descriptor 94.
                                 2-298  RECO:  PRGDES  1,0,163725,1704,1602,103,102,  " Added by gtbl on 05/19/83  1759.5
                                 2-299                 reco,EXPCL,.TSREC,.BTFSW+.BSPO  RECOVERY                  -PSP-
                                        "	word 1	ss_name
                                        	qstring	reco
    002134  aa  162 145 143 157         	aci	"reco",4
                                        "	word 2	program_size, load_size
    002135  aa   003250 003102          	zero	1704,1602
                                        "	word 3	entry_point, parameters
    002136  aa   000147 012000          	zero	103,.BTFSW+.BSPO
                                        "	word 4	seek_address,initial_load_address
    002137  aa   477615 000146          	zero	163725,102
                                        "	word 5	command language offset and length
    002140  aa   002035 000000          	zero	EXPCL-BASNM
                                        "	words 6-9 statistics
    002141  aa   000000 000000          	dec 0,0,0,0
    002142  aa   000000 000000
    002143  aa   000000 000000
    002144  aa   000000 000000
                                        "	word 10	BCI catalog name
    002145  aa  336 362 512 523         	bci	".TSREC",6
                                        "	word 11	library, component
    002146  aa   000001 000000          	zero	1,0
                                        "	word 12	ss_name length
    002147  aa   000000 000004          	zero	,4
                                 2-300  " Program descriptor 95.
                                 2-301  JOUT:  PRGDES  1,0,244407,7704,7596,108,108,  " Added by gtbl on 05/19/83  1759.5
                                 2-302                 jout,EXPCL,.TSJOT,.BPRIV
                                        "	word 1	ss_name
                                        	qstring	jout
    002150  aa  152 157 165 164         	aci	"jout",4
                                        "	word 2	program_size, load_size
    002151  aa   017030 016654          	zero	7704,7596
                                        "	word 3	entry_point, parameters
    002152  aa   000154 000001          	zero	108,.BPRIV
                                        "	word 4	seek_address,initial_load_address
    002153  aa   735267 000154          	zero	244407,108
                                        "	word 5	command language offset and length
    002154  aa   002035 000000          	zero	EXPCL-BASNM
                                        "	words 6-9 statistics
    002155  aa   000000 000000          	dec 0,0,0,0
    002156  aa   000000 000000
    002157  aa   000000 000000
    002160  aa   000000 000000
                                        "	word 10	BCI catalog name
    002161  aa  336 362 414 663         	bci	".TSJOT",6
                                        "	word 11	library, component
    002162  aa   000001 000000          	zero	1,0
                                        "	word 12	ss_name length
    002163  aa   000000 000004          	zero	,4
                                 2-303  " Program descriptor 96.
                                 2-304         PRGDES  1,0,96614,8756,8500,256,256,  " Added by gtbl on 05/19/83  1759.5
                                 2-305                 bexp,EXPCL,.TSBEX
                                        "	word 1	ss_name
                                        	qstring	bexp
    002164  aa  142 145 170 160         	aci	"bexp",4
                                        "	word 2	program_size, load_size
    002165  aa   021064 020464          	zero	8756,8500
                                        "	word 3	entry_point, parameters
    002166  aa   000400 000000          	zero	256,
                                        "	word 4	seek_address,initial_load_address
    002167  aa   274546 000400          	zero	96614,256
                                        "	word 5	command language offset and length
    002170  aa   002035 000000          	zero	EXPCL-BASNM
                                        "	words 6-9 statistics
    002171  aa   000000 000000          	dec 0,0,0,0
    002172  aa   000000 000000
    002173  aa   000000 000000
    002174  aa   000000 000000
                                        "	word 10	BCI catalog name
    002175  aa  336 362 222 567         	bci	".TSBEX",6
                                        "	word 11	library, component
    002176  aa   000001 000000          	zero	1,0
                                        "	word 12	ss_name length
    002177  aa   000000 000004          	zero	,4
                                 2-306  " Program descriptor 97.
                                 2-307  RUNY:  PRGDES  1,1,22187,4938,4830,109,108,  " Added by gtbl on 05/19/83  1759.5
                                 2-308                 runy,EXPCL,.TSRNY,.BEXEC
                                        "	word 1	ss_name
                                        	qstring	runy
    002200  aa  162 165 156 171         	aci	"runy",4
                                        "	word 2	program_size, load_size
    002201  aa   011512 011336          	zero	4938,4830
                                        "	word 3	entry_point, parameters
    002202  aa   000155 000200          	zero	109,.BEXEC
                                        "	word 4	seek_address,initial_load_address
    002203  aa   053253 000154          	zero	22187,108
                                        "	word 5	command language offset and length
    002204  aa   002035 000000          	zero	EXPCL-BASNM
                                        "	words 6-9 statistics
    002205  aa   000000 000000          	dec 0,0,0,0
    002206  aa   000000 000000
    002207  aa   000000 000000
    002210  aa   000000 000000
                                        "	word 10	BCI catalog name
    002211  aa  336 362 514 570         	bci	".TSRNY",6
                                        "	word 11	library, component
    002212  aa   000001 000001          	zero	1,1
                                        "	word 12	ss_name length
    002213  aa   000000 000004          	zero	,4
                                 2-309  " Program descriptor 98.
                                 2-310  PASS:  PRGDES  1,0,256363,2506,2404,195,102,  " Added by gtbl on 05/19/83  1759.5
                                 2-311                 pass,EXPCL,.TSNEW,.BGSPC+.BPRIV+.BLSMC,NEW               4JS2
                                        "	word 1	ss_name
                                        	qstring	pass
    002214  aa  160 141 163 163         	aci	"pass",4
                                        "	word 2	program_size, load_size
    002215  aa   004712 004544          	zero	2506,2404
                                        "	word 3	entry_point, parameters
    002216  aa   000303 000501          	zero	195,.BGSPC+.BPRIV+.BLSMC
                                        "	word 4	seek_address,initial_load_address
    002217  aa   764553 000146          	zero	256363,102
                                        "	word 5	command language offset and length
    002220  aa   002035 000000          	zero	EXPCL-BASNM
                                        "	words 6-9 statistics
    002221  aa   000000 000000          	dec 0,0,0,0
    002222  aa   000000 000000
    002223  aa   000000 000000
    002224  aa   000000 000000
                                        "	word 10	BCI catalog name
    002225  aa  336 362 452 566         	bci	".TSNEW",6
                                        "	word 11	library, component
    002226  aa   000001 000000          	zero	1,0
                                        "	word 12	ss_name length
    002227  aa   000000 000004          	zero	,4
                                 2-312  " Program descriptor 99.
                                 2-313  APB:   PRGDES  1,0,256363,2506,2404,195,102,  " Added by gtbl on 05/19/83  1759.5
                                 2-314                 apb,EXPCL,.TSNEW,.BCMOV,NEW                              4JS2
                                        "	word 1	ss_name
                                        	qstring	apb
    002230  aa  141 160 142 040         	aci	"apb",4
                                        "	word 2	program_size, load_size
    002231  aa   004712 004544          	zero	2506,2404
                                        "	word 3	entry_point, parameters
    002232  aa   000303 020000          	zero	195,.BCMOV
                                        "	word 4	seek_address,initial_load_address
    002233  aa   764553 000146          	zero	256363,102
                                        "	word 5	command language offset and length
    002234  aa   002035 000000          	zero	EXPCL-BASNM
                                        "	words 6-9 statistics
    002235  aa   000000 000000          	dec 0,0,0,0
    002236  aa   000000 000000
    002237  aa   000000 000000
    002240  aa   000000 000000
                                        "	word 10	BCI catalog name
    002241  aa  336 362 452 566         	bci	".TSNEW",6
                                        "	word 11	library, component
    002242  aa   000001 000000          	zero	1,0
                                        "	word 12	ss_name length
    002243  aa   000000 000003          	zero	,3
                                 2-315  " Program descriptor 100.
                                 2-316  TSDA:  PRGDES  1,0,53729,28670,28568,102,102,  " Added by gtbl on 05/19/83  1759.5
                                 2-317                 tsda,EXPCL,.TSDAS,.BPRIV+.BLUSE+.BCMOV+.BSPO              -PSP-
                                        "	word 1	ss_name
                                        	qstring	tsda
    002244  aa  164 163 144 141         	aci	"tsda",4
                                        "	word 2	program_size, load_size
    002245  aa   067776 067630          	zero	28670,28568
                                        "	word 3	entry_point, parameters
    002246  aa   000146 030011          	zero	102,.BPRIV+.BLUSE+.BCMOV+.BSPO
                                        "	word 4	seek_address,initial_load_address
    002247  aa   150741 000146          	zero	53729,102
                                        "	word 5	command language offset and length
    002250  aa   002035 000000          	zero	EXPCL-BASNM
                                        "	words 6-9 statistics
    002251  aa   000000 000000          	dec 0,0,0,0
    002252  aa   000000 000000
    002253  aa   000000 000000
    002254  aa   000000 000000
                                        "	word 10	BCI catalog name
    002255  aa  336 362 242 162         	bci	".TSDAS",6
                                        "	word 11	library, component
    002256  aa   000001 000000          	zero	1,0
                                        "	word 12	ss_name length
    002257  aa   000000 000004          	zero	,4
                                 2-318  " Program descriptor 101.
                                 2-319  ADMN:  PRGDES  1,0,18,8596,8458,138,138,  " Added by gtbl on 05/19/83  1759.5
                                 2-320                 admn,EXPCL,.TSADM,.BPRIV+.BLSMC+.BSPO
                                        "	word 1	ss_name
                                        	qstring	admn
    002260  aa  141 144 155 156         	aci	"admn",4
                                        "	word 2	program_size, load_size
    002261  aa   020624 020412          	zero	8596,8458
                                        "	word 3	entry_point, parameters
    002262  aa   000212 010101          	zero	138,.BPRIV+.BLSMC+.BSPO
                                        "	word 4	seek_address,initial_load_address
    002263  aa   000022 000212          	zero	18,138
                                        "	word 5	command language offset and length
    002264  aa   002035 000000          	zero	EXPCL-BASNM
                                        "	words 6-9 statistics
    002265  aa   000000 000000          	dec 0,0,0,0
    002266  aa   000000 000000
    002267  aa   000000 000000
    002270  aa   000000 000000
                                        "	word 10	BCI catalog name
    002271  aa  336 362 212 444         	bci	".TSADM",6
                                        "	word 11	library, component
    002272  aa   000001 000000          	zero	1,0
                                        "	word 12	ss_name length
    002273  aa   000000 000004          	zero	,4
                                 2-321  " Program descriptor 102.
                                 2-322  LODS:  PRGDES  1,0,161781,2034,1932,102,102,  " Added by gtbl on 05/19/83  1759.5
                                 2-323                 lods,EXPCL,.TSCLD,.BPRIV+.BEXEC+.BGSPC+.BTFSW+.BCMOV,LODX
                                        "	word 1	ss_name
                                        	qstring	lods
    002274  aa  154 157 144 163         	aci	"lods",4
                                        "	word 2	program_size, load_size
    002275  aa   003762 003614          	zero	2034,1932
                                        "	word 3	entry_point, parameters
    002276  aa   000146 022601          	zero	102,.BPRIV+.BEXEC+.BGSPC+.BTFSW+.BCMOV
                                        "	word 4	seek_address,initial_load_address
    002277  aa   473765 000146          	zero	161781,102
                                        "	word 5	command language offset and length
    002300  aa   002035 000000          	zero	EXPCL-BASNM
                                        "	words 6-9 statistics
    002301  aa   000000 000000          	dec 0,0,0,0
    002302  aa   000000 000000
    002303  aa   000000 000000
    002304  aa   000000 000000
                                        "	word 10	BCI catalog name
    002305  aa  336 362 234 324         	bci	".TSCLD",6
                                        "	word 11	library, component
    002306  aa   000001 000000          	zero	1,0
                                        "	word 12	ss_name length
    002307  aa   000000 000004          	zero	,4
                                 2-324  " Program descriptor 103.
                                 2-325  LODT:  PRGDES  1,0,161781,2034,1932,102,102,  " Added by gtbl on 05/19/83  1759.5
                                 2-326                 lodt,EXPCL,.TSCLD,,LODX
                                        "	word 1	ss_name
                                        	qstring	lodt
    002310  aa  154 157 144 164         	aci	"lodt",4
                                        "	word 2	program_size, load_size
    002311  aa   003762 003614          	zero	2034,1932
                                        "	word 3	entry_point, parameters
    002312  aa   000146 000000          	zero	102,
                                        "	word 4	seek_address,initial_load_address
    002313  aa   473765 000146          	zero	161781,102
                                        "	word 5	command language offset and length
    002314  aa   002035 000000          	zero	EXPCL-BASNM
                                        "	words 6-9 statistics
    002315  aa   000000 000000          	dec 0,0,0,0
    002316  aa   000000 000000
    002317  aa   000000 000000
    002320  aa   000000 000000
                                        "	word 10	BCI catalog name
    002321  aa  336 362 234 324         	bci	".TSCLD",6
                                        "	word 11	library, component
    002322  aa   000001 000000          	zero	1,0
                                        "	word 12	ss_name length
    002323  aa   000000 000004          	zero	,4
                                 2-327  " Program descriptor 104.
                                 2-328  TRACE: PRGDES  1,0,32396,7984,7912,79,72,  " Added by gtbl on 05/19/83  1759.5
                                 2-329                 trac,EXPCL,.TSTRC,.BSPO  TRACE                            -PSP-
                                        "	word 1	ss_name
                                        	qstring	trac
    002324  aa  164 162 141 143         	aci	"trac",4
                                        "	word 2	program_size, load_size
    002325  aa   017460 017350          	zero	7984,7912
                                        "	word 3	entry_point, parameters
    002326  aa   000117 010000          	zero	79,.BSPO
                                        "	word 4	seek_address,initial_load_address
    002327  aa   077214 000110          	zero	32396,72
                                        "	word 5	command language offset and length
    002330  aa   002035 000000          	zero	EXPCL-BASNM
                                        "	words 6-9 statistics
    002331  aa   000000 000000          	dec 0,0,0,0
    002332  aa   000000 000000
    002333  aa   000000 000000
    002334  aa   000000 000000
                                        "	word 10	BCI catalog name
    002335  aa  336 362 635 123         	bci	".TSTRC",6
                                        "	word 11	library, component
    002336  aa   000001 000000          	zero	1,0
                                        "	word 12	ss_name length
    002337  aa   000000 000004          	zero	,4
                                 2-330  " Program descriptor 105.
                                 2-331         PRGDES  1,1,4781,376,312,64,64,  " Added by gtbl on 05/19/83  1759.5
                                 2-332                 pwss,EXPCL,.TSPWS
                                        "	word 1	ss_name
                                        	qstring	pwss
    002340  aa  160 167 163 163         	aci	"pwss",4
                                        "	word 2	program_size, load_size
    002341  aa   000570 000470          	zero	376,312
                                        "	word 3	entry_point, parameters
    002342  aa   000100 000000          	zero	64,
                                        "	word 4	seek_address,initial_load_address
    002343  aa   011255 000100          	zero	4781,64
                                        "	word 5	command language offset and length
    002344  aa   002035 000000          	zero	EXPCL-BASNM
                                        "	words 6-9 statistics
    002345  aa   000000 000000          	dec 0,0,0,0
    002346  aa   000000 000000
    002347  aa   000000 000000
    002350  aa   000000 000000
                                        "	word 10	BCI catalog name
    002351  aa  336 362 476 662         	bci	".TSPWS",6
                                        "	word 11	library, component
    002352  aa   000001 000001          	zero	1,1
                                        "	word 12	ss_name length
    002353  aa   000000 000004          	zero	,4
                                 2-333  " Program descriptor 106.
                                 2-334  PCF:   PRGDES  0,0,0,0,0,0,0,
                                 2-335                 pcf,EXPCL,.PCPCF,.BSPO                                   TSSA4OHK
                                        "	word 1	ss_name
                                        	qstring	pcf
    002354  aa  160 143 146 040         	aci	"pcf",4
                                        "	word 2	program_size, load_size
    002355  aa   000000 000000          	zero	0,0
                                        "	word 3	entry_point, parameters
    002356  aa   000000 010000          	zero	0,.BSPO
                                        "	word 4	seek_address,initial_load_address
    002357  aa   000000 000000          	zero	0,0
                                        "	word 5	command language offset and length
    002360  aa   002035 000000          	zero	EXPCL-BASNM
                                        "	words 6-9 statistics
    002361  aa   000000 000000          	dec 0,0,0,0
    002362  aa   000000 000000
    002363  aa   000000 000000
    002364  aa   000000 000000
                                        "	word 10	BCI catalog name
    002365  aa  334 723 472 326         	bci	".PCPCF",6
                                        "	word 11	library, component
    002366  aa   000000 000000          	zero	0,0
                                        "	word 12	ss_name length
    002367  aa   000000 000003          	zero	,3
                                 2-336  " Program descriptor 107.
                                 2-337  IDSQ:  PRGDES  1,0,203780,1234,1132,102,102,  " Added by gtbl on 05/19/83  1759.5
                                 2-338                 idsq,EXPCL,.TSQIJ,.BSPO                                   -PSP-
                                        "	word 1	ss_name
                                        	qstring	idsq
    002370  aa  151 144 163 161         	aci	"idsq",4
                                        "	word 2	program_size, load_size
    002371  aa   002322 002154          	zero	1234,1132
                                        "	word 3	entry_point, parameters
    002372  aa   000146 010000          	zero	102,.BSPO
                                        "	word 4	seek_address,initial_load_address
    002373  aa   616004 000146          	zero	203780,102
                                        "	word 5	command language offset and length
    002374  aa   002035 000000          	zero	EXPCL-BASNM
                                        "	words 6-9 statistics
    002375  aa   000000 000000          	dec 0,0,0,0
    002376  aa   000000 000000
    002377  aa   000000 000000
    002400  aa   000000 000000
                                        "	word 10	BCI catalog name
    002401  aa  336 362 503 141         	bci	".TSQIJ",6
                                        "	word 11	library, component
    002402  aa   000001 000000          	zero	1,0
                                        "	word 12	ss_name length
    002403  aa   000000 000004          	zero	,4
                                 2-339  " Program descriptor 108.
                                 2-340  PASSWD:PRGDES  1,0,170253,12374,7456,4918,4918,  " Added by gtbl on 05/19/83  1759.5
                                 2-341                 pswd,EXPCL,.TSQIA,.BSPO                                  TSSA0WCY
                                        "	word 1	ss_name
                                        	qstring	pswd
    002404  aa  160 163 167 144         	aci	"pswd",4
                                        "	word 2	program_size, load_size
    002405  aa   030126 016440          	zero	12374,7456
                                        "	word 3	entry_point, parameters
    002406  aa   011466 010000          	zero	4918,.BSPO
                                        "	word 4	seek_address,initial_load_address
    002407  aa   514415 011466          	zero	170253,4918
                                        "	word 5	command language offset and length
    002410  aa   002035 000000          	zero	EXPCL-BASNM
                                        "	words 6-9 statistics
    002411  aa   000000 000000          	dec 0,0,0,0
    002412  aa   000000 000000
    002413  aa   000000 000000
    002414  aa   000000 000000
                                        "	word 10	BCI catalog name
    002415  aa  336 362 503 121         	bci	".TSQIA",6
                                        "	word 11	library, component
    002416  aa   000001 000000          	zero	1,0
                                        "	word 12	ss_name length
    002417  aa   000000 000004          	zero	,4
                                 2-342  " Program descriptor 109.
                                 2-343  LANGDP:PRGDES  1,0,177721,1190,1088,102,102,  " Added by gtbl on 05/19/83  1759.5
                                 2-344                 ldsp,EXPCL,.TSQIC,.BSPO                                  TSSA0WCY
                                        "	word 1	ss_name
                                        	qstring	ldsp
    002420  aa  154 144 163 160         	aci	"ldsp",4
                                        "	word 2	program_size, load_size
    002421  aa   002246 002100          	zero	1190,1088
                                        "	word 3	entry_point, parameters
    002422  aa   000146 010000          	zero	102,.BSPO
                                        "	word 4	seek_address,initial_load_address
    002423  aa   533071 000146          	zero	177721,102
                                        "	word 5	command language offset and length
    002424  aa   002035 000000          	zero	EXPCL-BASNM
                                        "	words 6-9 statistics
    002425  aa   000000 000000          	dec 0,0,0,0
    002426  aa   000000 000000
    002427  aa   000000 000000
    002430  aa   000000 000000
                                        "	word 10	BCI catalog name
    002431  aa  336 362 503 123         	bci	".TSQIC",6
                                        "	word 11	library, component
    002432  aa   000001 000000          	zero	1,0
                                        "	word 12	ss_name length
    002433  aa   000000 000004          	zero	,4
                                 2-345  " Program descriptor 110.
                                 2-346  DCLIST:PRGDES  1,0,204924,606,504,102,102,  " Added by gtbl on 05/19/83  1759.5
                                 2-347                 dclt,EXPCL,.TSQIL,.BSPO                                  TSSA0WCY
                                        "	word 1	ss_name
                                        	qstring	dclt
    002434  aa  144 143 154 164         	aci	"dclt",4
                                        "	word 2	program_size, load_size
    002435  aa   001136 000770          	zero	606,504
                                        "	word 3	entry_point, parameters
    002436  aa   000146 010000          	zero	102,.BSPO
                                        "	word 4	seek_address,initial_load_address
    002437  aa   620174 000146          	zero	204924,102
                                        "	word 5	command language offset and length
    002440  aa   002035 000000          	zero	EXPCL-BASNM
                                        "	words 6-9 statistics
    002441  aa   000000 000000          	dec 0,0,0,0
    002442  aa   000000 000000
    002443  aa   000000 000000
    002444  aa   000000 000000
                                        "	word 10	BCI catalog name
    002445  aa  336 362 503 143         	bci	".TSQIL",6
                                        "	word 11	library, component
    002446  aa   000001 000000          	zero	1,0
                                        "	word 12	ss_name length
    002447  aa   000000 000004          	zero	,4
                                 2-348  " Program descriptor 111.
                                 2-349  QUERY: PRGDES  1,0,178823,10932,8586,2346,2346,  " Added by gtbl on 05/19/83  1759.5
                                 2-350                 qanl,EXPCL,.TSQIE,.BSPO                                  TSSA0WCY
                                        "	word 1	ss_name
                                        	qstring	qanl
    002450  aa  161 141 156 154         	aci	"qanl",4
                                        "	word 2	program_size, load_size
    002451  aa   025264 020612          	zero	10932,8586
                                        "	word 3	entry_point, parameters
    002452  aa   004452 010000          	zero	2346,.BSPO
                                        "	word 4	seek_address,initial_load_address
    002453  aa   535207 004452          	zero	178823,2346
                                        "	word 5	command language offset and length
    002454  aa   002035 000000          	zero	EXPCL-BASNM
                                        "	words 6-9 statistics
    002455  aa   000000 000000          	dec 0,0,0,0
    002456  aa   000000 000000
    002457  aa   000000 000000
    002460  aa   000000 000000
                                        "	word 10	BCI catalog name
    002461  aa  336 362 503 125         	bci	".TSQIE",6
                                        "	word 11	library, component
    002462  aa   000001 000000          	zero	1,0
                                        "	word 12	ss_name length
    002463  aa   000000 000004          	zero	,4
                                 2-351  " Program descriptor 112.
                                 2-352  EXEC:  PRGDES  1,0,205442,13070,10342,4978,2728,  " Added by gtbl on 05/19/83  1759.5
                                 2-353                 exut,EXPCL,.TSQJ1,.BSPO                                  TSSA0WCY
                                        "	word 1	ss_name
                                        	qstring	exut
    002464  aa  145 170 165 164         	aci	"exut",4
                                        "	word 2	program_size, load_size
    002465  aa   031416 024146          	zero	13070,10342
                                        "	word 3	entry_point, parameters
    002466  aa   011562 010000          	zero	4978,.BSPO
                                        "	word 4	seek_address,initial_load_address
    002467  aa   621202 005250          	zero	205442,2728
                                        "	word 5	command language offset and length
    002470  aa   002035 000000          	zero	EXPCL-BASNM
                                        "	words 6-9 statistics
    002471  aa   000000 000000          	dec 0,0,0,0
    002472  aa   000000 000000
    002473  aa   000000 000000
    002474  aa   000000 000000
                                        "	word 10	BCI catalog name
    002475  aa  336 362 504 101         	bci	".TSQJ1",6
                                        "	word 11	library, component
    002476  aa   000001 000000          	zero	1,0
                                        "	word 12	ss_name length
    002477  aa   000000 000004          	zero	,4
                                 2-354  " Program descriptor 113.
                                 2-355  TRANS: PRGDES  1,0,187422,4376,4268,108,108,  " Added by gtbl on 05/19/83  1759.5
                                 2-356                 trfl,EXPCL,.TSQIF,.BSPO                                  TSSA0WCY
                                        "	word 1	ss_name
                                        	qstring	trfl
    002500  aa  164 162 146 154         	aci	"trfl",4
                                        "	word 2	program_size, load_size
    002501  aa   010430 010254          	zero	4376,4268
                                        "	word 3	entry_point, parameters
    002502  aa   000154 010000          	zero	108,.BSPO
                                        "	word 4	seek_address,initial_load_address
    002503  aa   556036 000154          	zero	187422,108
                                        "	word 5	command language offset and length
    002504  aa   002035 000000          	zero	EXPCL-BASNM
                                        "	words 6-9 statistics
    002505  aa   000000 000000          	dec 0,0,0,0
    002506  aa   000000 000000
    002507  aa   000000 000000
    002510  aa   000000 000000
                                        "	word 10	BCI catalog name
    002511  aa  336 362 503 126         	bci	".TSQIF",6
                                        "	word 11	library, component
    002512  aa   000001 000000          	zero	1,0
                                        "	word 12	ss_name length
    002513  aa   000000 000004          	zero	,4
                                 2-357  " Program descriptor 114.
                                 2-358  OUTP:  PRGDES  1,0,191703,5046,4944,102,102,  " Added by gtbl on 05/19/83  1759.5
                                 2-359                 oprm,EXPCL,.TSQIG,.BSPO                                  TSSA0WCY
                                        "	word 1	ss_name
                                        	qstring	oprm
    002514  aa  157 160 162 155         	aci	"oprm",4
                                        "	word 2	program_size, load_size
    002515  aa   011666 011520          	zero	5046,4944
                                        "	word 3	entry_point, parameters
    002516  aa   000146 010000          	zero	102,.BSPO
                                        "	word 4	seek_address,initial_load_address
    002517  aa   566327 000146          	zero	191703,102
                                        "	word 5	command language offset and length
    002520  aa   002035 000000          	zero	EXPCL-BASNM
                                        "	words 6-9 statistics
    002521  aa   000000 000000          	dec 0,0,0,0
    002522  aa   000000 000000
    002523  aa   000000 000000
    002524  aa   000000 000000
                                        "	word 10	BCI catalog name
    002525  aa  336 362 503 127         	bci	".TSQIG",6
                                        "	word 11	library, component
    002526  aa   000001 000000          	zero	1,0
                                        "	word 12	ss_name length
    002527  aa   000000 000004          	zero	,4
                                 2-360  " Program descriptor 115.
                                 2-361  OUTR:  PRGDES  1,0,196659,2614,2512,102,102,  " Added by gtbl on 05/19/83  1759.5
                                 2-362                 orec,EXPCL,.TSQIH,.BSPO                                  TSSA0WCY
                                        "	word 1	ss_name
                                        	qstring	orec
    002530  aa  157 162 145 143         	aci	"orec",4
                                        "	word 2	program_size, load_size
    002531  aa   005066 004720          	zero	2614,2512
                                        "	word 3	entry_point, parameters
    002532  aa   000146 010000          	zero	102,.BSPO
                                        "	word 4	seek_address,initial_load_address
    002533  aa   600063 000146          	zero	196659,102
                                        "	word 5	command language offset and length
    002534  aa   002035 000000          	zero	EXPCL-BASNM
                                        "	words 6-9 statistics
    002535  aa   000000 000000          	dec 0,0,0,0
    002536  aa   000000 000000
    002537  aa   000000 000000
    002540  aa   000000 000000
                                        "	word 10	BCI catalog name
    002541  aa  336 362 503 130         	bci	".TSQIH",6
                                        "	word 11	library, component
    002542  aa   000001 000000          	zero	1,0
                                        "	word 12	ss_name length
    002543  aa   000000 000004          	zero	,4
                                 2-363  " Program descriptor 116.
                                 2-364  OUTF:  PRGDES  1,0,199184,4686,4584,102,102,  " Added by gtbl on 05/19/83  1759.5
                                 2-365                 ofld,EXPCL,.TSQII,.BSPO                                  TSSA0WCY
                                        "	word 1	ss_name
                                        	qstring	ofld
    002544  aa  157 146 154 144         	aci	"ofld",4
                                        "	word 2	program_size, load_size
    002545  aa   011116 010750          	zero	4686,4584
                                        "	word 3	entry_point, parameters
    002546  aa   000146 010000          	zero	102,.BSPO
                                        "	word 4	seek_address,initial_load_address
    002547  aa   605020 000146          	zero	199184,102
                                        "	word 5	command language offset and length
    002550  aa   002035 000000          	zero	EXPCL-BASNM
                                        "	words 6-9 statistics
    002551  aa   000000 000000          	dec 0,0,0,0
    002552  aa   000000 000000
    002553  aa   000000 000000
    002554  aa   000000 000000
                                        "	word 10	BCI catalog name
    002555  aa  336 362 503 131         	bci	".TSQII",6
                                        "	word 11	library, component
    002556  aa   000001 000000          	zero	1,0
                                        "	word 12	ss_name length
    002557  aa   000000 000004          	zero	,4
                                 2-366  " Program descriptor 117.
                                 2-367  DBLP:  PRGDES  1,0,105130,15688,15586,11069,102,  " Added by gtbl on 05/19/83  1759.5
                                 2-368                 dblp,EXPCL,.TSDBL,.BSPO
                                        "	word 1	ss_name
                                        	qstring	dblp
    002560  aa  144 142 154 160         	aci	"dblp",4
                                        "	word 2	program_size, load_size
    002561  aa   036510 036342          	zero	15688,15586
                                        "	word 3	entry_point, parameters
    002562  aa   025475 010000          	zero	11069,.BSPO
                                        "	word 4	seek_address,initial_load_address
    002563  aa   315252 000146          	zero	105130,102
                                        "	word 5	command language offset and length
    002564  aa   002035 000000          	zero	EXPCL-BASNM
                                        "	words 6-9 statistics
    002565  aa   000000 000000          	dec 0,0,0,0
    002566  aa   000000 000000
    002567  aa   000000 000000
    002570  aa   000000 000000
                                        "	word 10	BCI catalog name
    002571  aa  336 362 242 243         	bci	".TSDBL",6
                                        "	word 11	library, component
    002572  aa   000001 000000          	zero	1,0
                                        "	word 12	ss_name length
    002573  aa   000000 000004          	zero	,4
                                 2-369  " Program descriptor 118.
                                 2-370  DBRT:  PRGDES  1,0,145315,1734,1548,726,186,  " Added by gtbl on 05/19/83  1759.5
                                 2-371                 dbrt,EXPCL,.TSDBR,.BSPO
                                        "	word 1	ss_name
                                        	qstring	dbrt
    002574  aa  144 142 162 164         	aci	"dbrt",4
                                        "	word 2	program_size, load_size
    002575  aa   003306 003014          	zero	1734,1548
                                        "	word 3	entry_point, parameters
    002576  aa   001326 010000          	zero	726,.BSPO
                                        "	word 4	seek_address,initial_load_address
    002577  aa   433643 000272          	zero	145315,186
                                        "	word 5	command language offset and length
    002600  aa   002035 000000          	zero	EXPCL-BASNM
                                        "	words 6-9 statistics
    002601  aa   000000 000000          	dec 0,0,0,0
    002602  aa   000000 000000
    002603  aa   000000 000000
    002604  aa   000000 000000
                                        "	word 10	BCI catalog name
    002605  aa  336 362 242 251         	bci	".TSDBR",6
                                        "	word 11	library, component
    002606  aa   000001 000000          	zero	1,0
                                        "	word 12	ss_name length
    002607  aa   000000 000004          	zero	,4
                                 2-372  " Program descriptor 119.
                                 2-373  DBCR:  PRGDES  1,0,120729,6614,6442,5315,172,  " Added by gtbl on 05/19/83  1759.5
                                 2-374                 dbcr,EXPCL,.TSDBC,.BSPO
                                        "	word 1	ss_name
                                        	qstring	dbcr
    002610  aa  144 142 143 162         	aci	"dbcr",4
                                        "	word 2	program_size, load_size
    002611  aa   014726 014452          	zero	6614,6442
                                        "	word 3	entry_point, parameters
    002612  aa   012303 010000          	zero	5315,.BSPO
                                        "	word 4	seek_address,initial_load_address
    002613  aa   353631 000254          	zero	120729,172
                                        "	word 5	command language offset and length
    002614  aa   002035 000000          	zero	EXPCL-BASNM
                                        "	words 6-9 statistics
    002615  aa   000000 000000          	dec 0,0,0,0
    002616  aa   000000 000000
    002617  aa   000000 000000
    002620  aa   000000 000000
                                        "	word 10	BCI catalog name
    002621  aa  336 362 242 223         	bci	".TSDBC",6
                                        "	word 11	library, component
    002622  aa   000001 000000          	zero	1,0
                                        "	word 12	ss_name length
    002623  aa   000000 000004          	zero	,4
                                 2-375  " Program descriptor 120.
                                 2-376  DBDE:  PRGDES  1,0,146875,1360,1188,953,172,  " Added by gtbl on 05/19/83  1759.5
                                 2-377                 dbde,EXPCL,.TSDBD,.BSPO
                                        "	word 1	ss_name
                                        	qstring	dbde
    002624  aa  144 142 144 145         	aci	"dbde",4
                                        "	word 2	program_size, load_size
    002625  aa   002520 002244          	zero	1360,1188
                                        "	word 3	entry_point, parameters
    002626  aa   001671 010000          	zero	953,.BSPO
                                        "	word 4	seek_address,initial_load_address
    002627  aa   436673 000254          	zero	146875,172
                                        "	word 5	command language offset and length
    002630  aa   002035 000000          	zero	EXPCL-BASNM
                                        "	words 6-9 statistics
    002631  aa   000000 000000          	dec 0,0,0,0
    002632  aa   000000 000000
    002633  aa   000000 000000
    002634  aa   000000 000000
                                        "	word 10	BCI catalog name
    002635  aa  336 362 242 224         	bci	".TSDBD",6
                                        "	word 11	library, component
    002636  aa   000001 000000          	zero	1,0
                                        "	word 12	ss_name length
    002637  aa   000000 000004          	zero	,4
                                 2-378  " Program descriptor 121.
                                 2-379  DBVE:  PRGDES  1,0,129267,16138,16036,102,102,  " Added by gtbl on 05/19/83  1759.5
                                 2-380                 dbve,EXPCL,.TSDBV,.BSPO
                                        "	word 1	ss_name
                                        	qstring	dbve
    002640  aa  144 142 166 145         	aci	"dbve",4
                                        "	word 2	program_size, load_size
    002641  aa   037412 037244          	zero	16138,16036
                                        "	word 3	entry_point, parameters
    002642  aa   000146 010000          	zero	102,.BSPO
                                        "	word 4	seek_address,initial_load_address
    002643  aa   374363 000146          	zero	129267,102
                                        "	word 5	command language offset and length
    002644  aa   002035 000000          	zero	EXPCL-BASNM
                                        "	words 6-9 statistics
    002645  aa   000000 000000          	dec 0,0,0,0
    002646  aa   000000 000000
    002647  aa   000000 000000
    002650  aa   000000 000000
                                        "	word 10	BCI catalog name
    002651  aa  336 362 242 265         	bci	".TSDBV",6
                                        "	word 11	library, component
    002652  aa   000001 000000          	zero	1,0
                                        "	word 12	ss_name length
    002653  aa   000000 000004          	zero	,4
                                 2-381  " Program descriptor 122.
                                 2-382  DBAN:  PRGDES  1,0,127183,2240,2068,813,172,  " Added by gtbl on 05/19/83  1759.5
                                 2-383                 dban,EXPCL,.TSDBA,.BSPO
                                        "	word 1	ss_name
                                        	qstring	dban
    002654  aa  144 142 141 156         	aci	"dban",4
                                        "	word 2	program_size, load_size
    002655  aa   004300 004024          	zero	2240,2068
                                        "	word 3	entry_point, parameters
    002656  aa   001455 010000          	zero	813,.BSPO
                                        "	word 4	seek_address,initial_load_address
    002657  aa   370317 000254          	zero	127183,172
                                        "	word 5	command language offset and length
    002660  aa   002035 000000          	zero	EXPCL-BASNM
                                        "	words 6-9 statistics
    002661  aa   000000 000000          	dec 0,0,0,0
    002662  aa   000000 000000
    002663  aa   000000 000000
    002664  aa   000000 000000
                                        "	word 10	BCI catalog name
    002665  aa  336 362 242 221         	bci	".TSDBA",6
                                        "	word 11	library, component
    002666  aa   000001 000000          	zero	1,0
                                        "	word 12	ss_name length
    002667  aa   000000 000004          	zero	,4
                                 2-384  " Program descriptor 123.
                                 2-385  .YQ0:  PRGDES  0,0,0,0,0,0,0,
                                 2-386                 .yp0,EXPCL,.YQ0AT,.BEXEC+.BNSYS+.BSPSZ+.BSPO
                                        "	word 1	ss_name
                                        	qstring	.yp0
    002670  aa  056 171 160 060         	aci	".yp0",4
                                        "	word 2	program_size, load_size
    002671  aa   000000 000000          	zero	0,0
                                        "	word 3	entry_point, parameters
    002672  aa   000000 111200          	zero	0,.BEXEC+.BNSYS+.BSPSZ+.BSPO
                                        "	word 4	seek_address,initial_load_address
    002673  aa   000000 000000          	zero	0,0
                                        "	word 5	command language offset and length
    002674  aa   002035 000000          	zero	EXPCL-BASNM
                                        "	words 6-9 statistics
    002675  aa   000000 000000          	dec 0,0,0,0
    002676  aa   000000 000000
    002677  aa   000000 000000
    002700  aa   000000 000000
                                        "	word 10	BCI catalog name
    002701  aa  337 050 002 163         	bci	".YQ0AT",6
                                        "	word 11	library, component
    002702  aa   000000 000000          	zero	0,0
                                        "	word 12	ss_name length
    002703  aa   000000 000004          	zero	,4
                                 2-387  " Program descriptor 124.
                                 2-388         PRGDES  0,0,0,0,0,0,0,
                                 2-389                 .yp1,EXPCL,.YQ1AT,.BNSYS+.BSPO
                                        "	word 1	ss_name
                                        	qstring	.yp1
    002704  aa  056 171 160 061         	aci	".yp1",4
                                        "	word 2	program_size, load_size
    002705  aa   000000 000000          	zero	0,0
                                        "	word 3	entry_point, parameters
    002706  aa   000000 011000          	zero	0,.BNSYS+.BSPO
                                        "	word 4	seek_address,initial_load_address
    002707  aa   000000 000000          	zero	0,0
                                        "	word 5	command language offset and length
    002710  aa   002035 000000          	zero	EXPCL-BASNM
                                        "	words 6-9 statistics
    002711  aa   000000 000000          	dec 0,0,0,0
    002712  aa   000000 000000
    002713  aa   000000 000000
    002714  aa   000000 000000
                                        "	word 10	BCI catalog name
    002715  aa  337 050 012 163         	bci	".YQ1AT",6
                                        "	word 11	library, component
    002716  aa   000000 000000          	zero	0,0
                                        "	word 12	ss_name length
    002717  aa   000000 000004          	zero	,4
                                 2-390  " Program descriptor 125.
                                 2-391         PRGDES  0,0,0,0,0,0,0,
                                 2-392                 .yp2,EXPCL,.YQ2AT,.BNSYS+.BSPO
                                        "	word 1	ss_name
                                        	qstring	.yp2
    002720  aa  056 171 160 062         	aci	".yp2",4
                                        "	word 2	program_size, load_size
    002721  aa   000000 000000          	zero	0,0
                                        "	word 3	entry_point, parameters
    002722  aa   000000 011000          	zero	0,.BNSYS+.BSPO
                                        "	word 4	seek_address,initial_load_address
    002723  aa   000000 000000          	zero	0,0
                                        "	word 5	command language offset and length
    002724  aa   002035 000000          	zero	EXPCL-BASNM
                                        "	words 6-9 statistics
    002725  aa   000000 000000          	dec 0,0,0,0
    002726  aa   000000 000000
    002727  aa   000000 000000
    002730  aa   000000 000000
                                        "	word 10	BCI catalog name
    002731  aa  337 050 022 163         	bci	".YQ2AT",6
                                        "	word 11	library, component
    002732  aa   000000 000000          	zero	0,0
                                        "	word 12	ss_name length
    002733  aa   000000 000004          	zero	,4
                                 2-393  " Program descriptor 126.
                                 2-394         PRGDES  0,0,0,0,0,0,0,
                                 2-395                 .yp3,EXPCL,.YQ3AT,.BNSYS+.BSPO
                                        "	word 1	ss_name
                                        	qstring	.yp3
    002734  aa  056 171 160 063         	aci	".yp3",4
                                        "	word 2	program_size, load_size
    002735  aa   000000 000000          	zero	0,0
                                        "	word 3	entry_point, parameters
    002736  aa   000000 011000          	zero	0,.BNSYS+.BSPO
                                        "	word 4	seek_address,initial_load_address
    002737  aa   000000 000000          	zero	0,0
                                        "	word 5	command language offset and length
    002740  aa   002035 000000          	zero	EXPCL-BASNM
                                        "	words 6-9 statistics
    002741  aa   000000 000000          	dec 0,0,0,0
    002742  aa   000000 000000
    002743  aa   000000 000000
    002744  aa   000000 000000
                                        "	word 10	BCI catalog name
    002745  aa  337 050 032 163         	bci	".YQ3AT",6
                                        "	word 11	library, component
    002746  aa   000000 000000          	zero	0,0
                                        "	word 12	ss_name length
    002747  aa   000000 000004          	zero	,4
                                 2-396  " Program descriptor 127.
                                 2-397         PRGDES  0,0,0,0,0,0,0,
                                 2-398                 .yp4,EXPCL,.YQ4AT,.BNSYS+.BSPO
                                        "	word 1	ss_name
                                        	qstring	.yp4
    002750  aa  056 171 160 064         	aci	".yp4",4
                                        "	word 2	program_size, load_size
    002751  aa   000000 000000          	zero	0,0
                                        "	word 3	entry_point, parameters
    002752  aa   000000 011000          	zero	0,.BNSYS+.BSPO
                                        "	word 4	seek_address,initial_load_address
    002753  aa   000000 000000          	zero	0,0
                                        "	word 5	command language offset and length
    002754  aa   002035 000000          	zero	EXPCL-BASNM
                                        "	words 6-9 statistics
    002755  aa   000000 000000          	dec 0,0,0,0
    002756  aa   000000 000000
    002757  aa   000000 000000
    002760  aa   000000 000000
                                        "	word 10	BCI catalog name
    002761  aa  337 050 042 163         	bci	".YQ4AT",6
                                        "	word 11	library, component
    002762  aa   000000 000000          	zero	0,0
                                        "	word 12	ss_name length
    002763  aa   000000 000004          	zero	,4
                                 2-399  " Program descriptor 128.
                                 2-400         PRGDES  0,0,0,0,0,0,0,
                                 2-401                 .yp5,EXPCL,.YQ5AT,.BNSYS+.BSPO
                                        "	word 1	ss_name
                                        	qstring	.yp5
    002764  aa  056 171 160 065         	aci	".yp5",4
                                        "	word 2	program_size, load_size
    002765  aa   000000 000000          	zero	0,0
                                        "	word 3	entry_point, parameters
    002766  aa   000000 011000          	zero	0,.BNSYS+.BSPO
                                        "	word 4	seek_address,initial_load_address
    002767  aa   000000 000000          	zero	0,0
                                        "	word 5	command language offset and length
    002770  aa   002035 000000          	zero	EXPCL-BASNM
                                        "	words 6-9 statistics
    002771  aa   000000 000000          	dec 0,0,0,0
    002772  aa   000000 000000
    002773  aa   000000 000000
    002774  aa   000000 000000
                                        "	word 10	BCI catalog name
    002775  aa  337 050 052 163         	bci	".YQ5AT",6
                                        "	word 11	library, component
    002776  aa   000000 000000          	zero	0,0
                                        "	word 12	ss_name length
    002777  aa   000000 000004          	zero	,4
                                 2-402  " Program descriptor 129.
                                 2-403         PRGDES  0,0,0,0,0,0,0,
                                 2-404                 .yp6,EXPCL,.YQ6AT,.BNSYS+.BSPO
                                        "	word 1	ss_name
                                        	qstring	.yp6
    003000  aa  056 171 160 066         	aci	".yp6",4
                                        "	word 2	program_size, load_size
    003001  aa   000000 000000          	zero	0,0
                                        "	word 3	entry_point, parameters
    003002  aa   000000 011000          	zero	0,.BNSYS+.BSPO
                                        "	word 4	seek_address,initial_load_address
    003003  aa   000000 000000          	zero	0,0
                                        "	word 5	command language offset and length
    003004  aa   002035 000000          	zero	EXPCL-BASNM
                                        "	words 6-9 statistics
    003005  aa   000000 000000          	dec 0,0,0,0
    003006  aa   000000 000000
    003007  aa   000000 000000
    003010  aa   000000 000000
                                        "	word 10	BCI catalog name
    003011  aa  337 050 062 163         	bci	".YQ6AT",6
                                        "	word 11	library, component
    003012  aa   000000 000000          	zero	0,0
                                        "	word 12	ss_name length
    003013  aa   000000 000004          	zero	,4
                                 2-405  " Program descriptor 130.
                                 2-406         PRGDES  1,1,60840,4434,4332,129,102,  " Added by gtbl on 05/19/83  1801.0
                                 2-407                 .yld,EXPCL,.YLDAT,.BNSYS+.BSPO
                                        "	word 1	ss_name
                                        	qstring	.yld
    003014  aa  056 171 154 144         	aci	".yld",4
                                        "	word 2	program_size, load_size
    003015  aa   010522 010354          	zero	4434,4332
                                        "	word 3	entry_point, parameters
    003016  aa   000201 011000          	zero	129,.BNSYS+.BSPO
                                        "	word 4	seek_address,initial_load_address
    003017  aa   166650 000146          	zero	60840,102
                                        "	word 5	command language offset and length
    003020  aa   002035 000000          	zero	EXPCL-BASNM
                                        "	words 6-9 statistics
    003021  aa   000000 000000          	dec 0,0,0,0
    003022  aa   000000 000000
    003023  aa   000000 000000
    003024  aa   000000 000000
                                        "	word 10	BCI catalog name
    003025  aa  337 043 242 163         	bci	".YLDAT",6
                                        "	word 11	library, component
    003026  aa   000001 000001          	zero	1,1
                                        "	word 12	ss_name length
    003027  aa   000000 000004          	zero	,4
                                 2-408  " Program descriptor 131.
                                 2-409         PRGDES  1,1,65184,3676,3574,137,102,  " Added by gtbl on 05/19/83  1801.0
                                 2-410                 yldb,EXPCL,.YLDBT,.BNSYS+.BSPO
                                        "	word 1	ss_name
                                        	qstring	yldb
    003030  aa  171 154 144 142         	aci	"yldb",4
                                        "	word 2	program_size, load_size
    003031  aa   007134 006766          	zero	3676,3574
                                        "	word 3	entry_point, parameters
    003032  aa   000211 011000          	zero	137,.BNSYS+.BSPO
                                        "	word 4	seek_address,initial_load_address
    003033  aa   177240 000146          	zero	65184,102
                                        "	word 5	command language offset and length
    003034  aa   002035 000000          	zero	EXPCL-BASNM
                                        "	words 6-9 statistics
    003035  aa   000000 000000          	dec 0,0,0,0
    003036  aa   000000 000000
    003037  aa   000000 000000
    003040  aa   000000 000000
                                        "	word 10	BCI catalog name
    003041  aa  337 043 242 263         	bci	".YLDBT",6
                                        "	word 11	library, component
    003042  aa   000001 000001          	zero	1,1
                                        "	word 12	ss_name length
    003043  aa   000000 000004          	zero	,4
                                 2-411  " Program descriptor 132.
                                 2-412  sevenP0:   PRGDES  0,0,0,0,0,0,0,
                                 2-413                 .7p0,EXPCL,.7P0AT,.BEXEC+.BNSYS+.BSPSZ+.BSPO  FORT77 LDR TSSA0RGW
                                        "	word 1	ss_name
                                        	qstring	.7p0
    003044  aa  056 067 160 060         	aci	".7p0",4
                                        "	word 2	program_size, load_size
    003045  aa   000000 000000          	zero	0,0
                                        "	word 3	entry_point, parameters
    003046  aa   000000 111200          	zero	0,.BEXEC+.BNSYS+.BSPSZ+.BSPO
                                        "	word 4	seek_address,initial_load_address
    003047  aa   000000 000000          	zero	0,0
                                        "	word 5	command language offset and length
    003050  aa   002035 000000          	zero	EXPCL-BASNM
                                        "	words 6-9 statistics
    003051  aa   000000 000000          	dec 0,0,0,0
    003052  aa   000000 000000
    003053  aa   000000 000000
    003054  aa   000000 000000
                                        "	word 10	BCI catalog name
    003055  aa  330 747 002 163         	bci	".7P0AT",6
                                        "	word 11	library, component
    003056  aa   000000 000000          	zero	0,0
                                        "	word 12	ss_name length
    003057  aa   000000 000004          	zero	,4
                                 2-414  " Program descriptor 133.
                                 2-415  sevenP1:   PRGDES  0,0,0,0,0,0,0,
                                 2-416                 .7p1,EXPCL,.7P1AT,.BNSYS+.BSPO                           TSSA0RGW
                                        "	word 1	ss_name
                                        	qstring	.7p1
    003060  aa  056 067 160 061         	aci	".7p1",4
                                        "	word 2	program_size, load_size
    003061  aa   000000 000000          	zero	0,0
                                        "	word 3	entry_point, parameters
    003062  aa   000000 011000          	zero	0,.BNSYS+.BSPO
                                        "	word 4	seek_address,initial_load_address
    003063  aa   000000 000000          	zero	0,0
                                        "	word 5	command language offset and length
    003064  aa   002035 000000          	zero	EXPCL-BASNM
                                        "	words 6-9 statistics
    003065  aa   000000 000000          	dec 0,0,0,0
    003066  aa   000000 000000
    003067  aa   000000 000000
    003070  aa   000000 000000
                                        "	word 10	BCI catalog name
    003071  aa  330 747 012 163         	bci	".7P1AT",6
                                        "	word 11	library, component
    003072  aa   000000 000000          	zero	0,0
                                        "	word 12	ss_name length
    003073  aa   000000 000004          	zero	,4
                                 2-417  " Program descriptor 134.
                                 2-418  sevenP2:   PRGDES  0,0,0,0,0,0,0,
                                 2-419                 .7p2,EXPCL,.7P2AT,.BNSYS+.BSPO                           TSSA0RGW
                                        "	word 1	ss_name
                                        	qstring	.7p2
    003074  aa  056 067 160 062         	aci	".7p2",4
                                        "	word 2	program_size, load_size
    003075  aa   000000 000000          	zero	0,0
                                        "	word 3	entry_point, parameters
    003076  aa   000000 011000          	zero	0,.BNSYS+.BSPO
                                        "	word 4	seek_address,initial_load_address
    003077  aa   000000 000000          	zero	0,0
                                        "	word 5	command language offset and length
    003100  aa   002035 000000          	zero	EXPCL-BASNM
                                        "	words 6-9 statistics
    003101  aa   000000 000000          	dec 0,0,0,0
    003102  aa   000000 000000
    003103  aa   000000 000000
    003104  aa   000000 000000
                                        "	word 10	BCI catalog name
    003105  aa  330 747 022 163         	bci	".7P2AT",6
                                        "	word 11	library, component
    003106  aa   000000 000000          	zero	0,0
                                        "	word 12	ss_name length
    003107  aa   000000 000004          	zero	,4
                                 2-420  " Program descriptor 135.
                                 2-421  sevenP3:   PRGDES  0,0,0,0,0,0,0,
                                 2-422                 .7p3,EXPCL,.7P3AT,.BNSYS+.BSPO                           TSSA0RGW
                                        "	word 1	ss_name
                                        	qstring	.7p3
    003110  aa  056 067 160 063         	aci	".7p3",4
                                        "	word 2	program_size, load_size
    003111  aa   000000 000000          	zero	0,0
                                        "	word 3	entry_point, parameters
    003112  aa   000000 011000          	zero	0,.BNSYS+.BSPO
                                        "	word 4	seek_address,initial_load_address
    003113  aa   000000 000000          	zero	0,0
                                        "	word 5	command language offset and length
    003114  aa   002035 000000          	zero	EXPCL-BASNM
                                        "	words 6-9 statistics
    003115  aa   000000 000000          	dec 0,0,0,0
    003116  aa   000000 000000
    003117  aa   000000 000000
    003120  aa   000000 000000
                                        "	word 10	BCI catalog name
    003121  aa  330 747 032 163         	bci	".7P3AT",6
                                        "	word 11	library, component
    003122  aa   000000 000000          	zero	0,0
                                        "	word 12	ss_name length
    003123  aa   000000 000004          	zero	,4
                                 2-423  " Program descriptor 136.
                                 2-424  sevenP4:   PRGDES  0,0,0,0,0,0,0,
                                 2-425                 .7p4,EXPCL,.7P4AT,.BNSYS+.BSPO                           TSSA0RGW
                                        "	word 1	ss_name
                                        	qstring	.7p4
    003124  aa  056 067 160 064         	aci	".7p4",4
                                        "	word 2	program_size, load_size
    003125  aa   000000 000000          	zero	0,0
                                        "	word 3	entry_point, parameters
    003126  aa   000000 011000          	zero	0,.BNSYS+.BSPO
                                        "	word 4	seek_address,initial_load_address
    003127  aa   000000 000000          	zero	0,0
                                        "	word 5	command language offset and length
    003130  aa   002035 000000          	zero	EXPCL-BASNM
                                        "	words 6-9 statistics
    003131  aa   000000 000000          	dec 0,0,0,0
    003132  aa   000000 000000
    003133  aa   000000 000000
    003134  aa   000000 000000
                                        "	word 10	BCI catalog name
    003135  aa  330 747 042 163         	bci	".7P4AT",6
                                        "	word 11	library, component
    003136  aa   000000 000000          	zero	0,0
                                        "	word 12	ss_name length
    003137  aa   000000 000004          	zero	,4
                                 2-426  " Program descriptor 137.
                                 2-427  sevenP5:   PRGDES  0,0,0,0,0,0,0,
                                 2-428                 .7p5,EXPCL,.7P5AT,.BNSYS+.BSPO                           TSSA0RGW
                                        "	word 1	ss_name
                                        	qstring	.7p5
    003140  aa  056 067 160 065         	aci	".7p5",4
                                        "	word 2	program_size, load_size
    003141  aa   000000 000000          	zero	0,0
                                        "	word 3	entry_point, parameters
    003142  aa   000000 011000          	zero	0,.BNSYS+.BSPO
                                        "	word 4	seek_address,initial_load_address
    003143  aa   000000 000000          	zero	0,0
                                        "	word 5	command language offset and length
    003144  aa   002035 000000          	zero	EXPCL-BASNM
                                        "	words 6-9 statistics
    003145  aa   000000 000000          	dec 0,0,0,0
    003146  aa   000000 000000
    003147  aa   000000 000000
    003150  aa   000000 000000
                                        "	word 10	BCI catalog name
    003151  aa  330 747 052 163         	bci	".7P5AT",6
                                        "	word 11	library, component
    003152  aa   000000 000000          	zero	0,0
                                        "	word 12	ss_name length
    003153  aa   000000 000004          	zero	,4
                                 2-429  " Program descriptor 138.
                                 2-430  sevenP6:   PRGDES  0,0,0,0,0,0,0,
                                 2-431                 .7p6,EXPCL,.7P6AT,.BNSYS+.BSPO                           TSSA0RGW
                                        "	word 1	ss_name
                                        	qstring	.7p6
    003154  aa  056 067 160 066         	aci	".7p6",4
                                        "	word 2	program_size, load_size
    003155  aa   000000 000000          	zero	0,0
                                        "	word 3	entry_point, parameters
    003156  aa   000000 011000          	zero	0,.BNSYS+.BSPO
                                        "	word 4	seek_address,initial_load_address
    003157  aa   000000 000000          	zero	0,0
                                        "	word 5	command language offset and length
    003160  aa   002035 000000          	zero	EXPCL-BASNM
                                        "	words 6-9 statistics
    003161  aa   000000 000000          	dec 0,0,0,0
    003162  aa   000000 000000
    003163  aa   000000 000000
    003164  aa   000000 000000
                                        "	word 10	BCI catalog name
    003165  aa  330 747 062 163         	bci	".7P6AT",6
                                        "	word 11	library, component
    003166  aa   000000 000000          	zero	0,0
                                        "	word 12	ss_name length
    003167  aa   000000 000004          	zero	,4
                                 2-432  " Program descriptor 139.
                                 2-433  sevenP7:   PRGDES  0,0,0,0,0,0,0,
                                 2-434                 .7p7,EXPCL,.7P7AT,.BNSYS+.BSPO                           TSSA0T40
                                        "	word 1	ss_name
                                        	qstring	.7p7
    003170  aa  056 067 160 067         	aci	".7p7",4
                                        "	word 2	program_size, load_size
    003171  aa   000000 000000          	zero	0,0
                                        "	word 3	entry_point, parameters
    003172  aa   000000 011000          	zero	0,.BNSYS+.BSPO
                                        "	word 4	seek_address,initial_load_address
    003173  aa   000000 000000          	zero	0,0
                                        "	word 5	command language offset and length
    003174  aa   002035 000000          	zero	EXPCL-BASNM
                                        "	words 6-9 statistics
    003175  aa   000000 000000          	dec 0,0,0,0
    003176  aa   000000 000000
    003177  aa   000000 000000
    003200  aa   000000 000000
                                        "	word 10	BCI catalog name
    003201  aa  330 747 072 163         	bci	".7P7AT",6
                                        "	word 11	library, component
    003202  aa   000000 000000          	zero	0,0
                                        "	word 12	ss_name length
    003203  aa   000000 000004          	zero	,4
                                 2-435  " Program descriptor 140.
                                 2-436         PRGDES  0,0,0,0,0,0,0,
                                 2-437                 .77b,EXPCL,.77BT,.BNSYS+.BSPO                            TSSA4QDP
                                        "	word 1	ss_name
                                        	qstring	.77b
    003204  aa  056 067 067 142         	aci	".77b",4
                                        "	word 2	program_size, load_size
    003205  aa   000000 000000          	zero	0,0
                                        "	word 3	entry_point, parameters
    003206  aa   000000 011000          	zero	0,.BNSYS+.BSPO
                                        "	word 4	seek_address,initial_load_address
    003207  aa   000000 000000          	zero	0,0
                                        "	word 5	command language offset and length
    003210  aa   002035 000000          	zero	EXPCL-BASNM
                                        "	words 6-9 statistics
    003211  aa   000000 000000          	dec 0,0,0,0
    003212  aa   000000 000000
    003213  aa   000000 000000
    003214  aa   000000 000000
                                        "	word 10	BCI catalog name
    003215  aa  330 707 226 320         	bci	".77BT",6
                                        "	word 11	library, component
    003216  aa   000000 000000          	zero	0,0
                                        "	word 12	ss_name length
    003217  aa   000000 000004          	zero	,4
                                 2-438  " Program descriptor 141.
                                 2-439  sevenLD:   PRGDES  1,1,40244,12662,12560,608,102,  " Added by gtbl on 05/19/83  1759.5
                                 2-440                 .7ld,EXPCL,.7LDAT,.BNSYS+.BSPO                           TSSA0RGW
                                        "	word 1	ss_name
                                        	qstring	.7ld
    003220  aa  056 067 154 144         	aci	".7ld",4
                                        "	word 2	program_size, load_size
    003221  aa   030566 030420          	zero	12662,12560
                                        "	word 3	entry_point, parameters
    003222  aa   001140 011000          	zero	608,.BNSYS+.BSPO
                                        "	word 4	seek_address,initial_load_address
    003223  aa   116464 000146          	zero	40244,102
                                        "	word 5	command language offset and length
    003224  aa   002035 000000          	zero	EXPCL-BASNM
                                        "	words 6-9 statistics
    003225  aa   000000 000000          	dec 0,0,0,0
    003226  aa   000000 000000
    003227  aa   000000 000000
    003230  aa   000000 000000
                                        "	word 10	BCI catalog name
    003231  aa  330 743 242 163         	bci	".7LDAT",6
                                        "	word 11	library, component
    003232  aa   000001 000001          	zero	1,1
                                        "	word 12	ss_name length
    003233  aa   000000 000004          	zero	,4
                                 2-441  " Program descriptor 142.
                                 2-442  sevenK1:   PRGDES  0,0,0,0,0,0,0,
                                 2-443                 .7k1,EXPCL,.7K1,.BNSYS+.BSPO FORT77 OPTION KEYS          TSSA0RGW
                                        "	word 1	ss_name
                                        	qstring	.7k1
    003234  aa  056 067 153 061         	aci	".7k1",4
                                        "	word 2	program_size, load_size
    003235  aa   000000 000000          	zero	0,0
                                        "	word 3	entry_point, parameters
    003236  aa   000000 011000          	zero	0,.BNSYS+.BSPO
                                        "	word 4	seek_address,initial_load_address
    003237  aa   000000 000000          	zero	0,0
                                        "	word 5	command language offset and length
    003240  aa   002035 000000          	zero	EXPCL-BASNM
                                        "	words 6-9 statistics
    003241  aa   000000 000000          	dec 0,0,0,0
    003242  aa   000000 000000
    003243  aa   000000 000000
    003244  aa   000000 000000
                                        "	word 10	BCI catalog name
    003245  aa  330 742 012 020         	bci	".7K1",6
                                        "	word 11	library, component
    003246  aa   000000 000000          	zero	0,0
                                        "	word 12	ss_name length
    003247  aa   000000 000004          	zero	,4
                                 2-444  " Program descriptor 143.
                                 2-445  sevenK2:   PRGDES  0,0,0,0,0,0,0,
                                 2-446                 .7k2,EXPCL,.7K2,.BNSYS+.BSPO                             TSSA0RGW
                                        "	word 1	ss_name
                                        	qstring	.7k2
    003250  aa  056 067 153 062         	aci	".7k2",4
                                        "	word 2	program_size, load_size
    003251  aa   000000 000000          	zero	0,0
                                        "	word 3	entry_point, parameters
    003252  aa   000000 011000          	zero	0,.BNSYS+.BSPO
                                        "	word 4	seek_address,initial_load_address
    003253  aa   000000 000000          	zero	0,0
                                        "	word 5	command language offset and length
    003254  aa   002035 000000          	zero	EXPCL-BASNM
                                        "	words 6-9 statistics
    003255  aa   000000 000000          	dec 0,0,0,0
    003256  aa   000000 000000
    003257  aa   000000 000000
    003260  aa   000000 000000
                                        "	word 10	BCI catalog name
    003261  aa  330 742 022 020         	bci	".7K2",6
                                        "	word 11	library, component
    003262  aa   000000 000000          	zero	0,0
                                        "	word 12	ss_name length
    003263  aa   000000 000004          	zero	,4
                                 2-447  " Program descriptor 144.
                                 2-448  sevenK3:   PRGDES  0,0,0,0,0,0,0,
                                 2-449                 .7k3,EXPCL,.7K3,.BNSYS+.BSPO                             TSSA0RGW
                                        "	word 1	ss_name
                                        	qstring	.7k3
    003264  aa  056 067 153 063         	aci	".7k3",4
                                        "	word 2	program_size, load_size
    003265  aa   000000 000000          	zero	0,0
                                        "	word 3	entry_point, parameters
    003266  aa   000000 011000          	zero	0,.BNSYS+.BSPO
                                        "	word 4	seek_address,initial_load_address
    003267  aa   000000 000000          	zero	0,0
                                        "	word 5	command language offset and length
    003270  aa   002035 000000          	zero	EXPCL-BASNM
                                        "	words 6-9 statistics
    003271  aa   000000 000000          	dec 0,0,0,0
    003272  aa   000000 000000
    003273  aa   000000 000000
    003274  aa   000000 000000
                                        "	word 10	BCI catalog name
    003275  aa  330 742 032 020         	bci	".7K3",6
                                        "	word 11	library, component
    003276  aa   000000 000000          	zero	0,0
                                        "	word 12	ss_name length
    003277  aa   000000 000004          	zero	,4
                                 2-450  " Program descriptor 145.
                                 2-451  sevenK4:   PRGDES  0,0,0,0,0,0,0,
                                 2-452                 .7k4,EXPCL,.7K4,.BNSYS+.BSPO                             TSSA0RGW
                                        "	word 1	ss_name
                                        	qstring	.7k4
    003300  aa  056 067 153 064         	aci	".7k4",4
                                        "	word 2	program_size, load_size
    003301  aa   000000 000000          	zero	0,0
                                        "	word 3	entry_point, parameters
    003302  aa   000000 011000          	zero	0,.BNSYS+.BSPO
                                        "	word 4	seek_address,initial_load_address
    003303  aa   000000 000000          	zero	0,0
                                        "	word 5	command language offset and length
    003304  aa   002035 000000          	zero	EXPCL-BASNM
                                        "	words 6-9 statistics
    003305  aa   000000 000000          	dec 0,0,0,0
    003306  aa   000000 000000
    003307  aa   000000 000000
    003310  aa   000000 000000
                                        "	word 10	BCI catalog name
    003311  aa  330 742 042 020         	bci	".7K4",6
                                        "	word 11	library, component
    003312  aa   000000 000000          	zero	0,0
                                        "	word 12	ss_name length
    003313  aa   000000 000004          	zero	,4
                                 2-453  " Program descriptor 146.
                                 2-454  sevenK5:   PRGDES  0,0,0,0,0,0,0,
                                 2-455                 .7k5,EXPCL,.7K5,.BNSYS+.BSPO                             TSSA0RGW
                                        "	word 1	ss_name
                                        	qstring	.7k5
    003314  aa  056 067 153 065         	aci	".7k5",4
                                        "	word 2	program_size, load_size
    003315  aa   000000 000000          	zero	0,0
                                        "	word 3	entry_point, parameters
    003316  aa   000000 011000          	zero	0,.BNSYS+.BSPO
                                        "	word 4	seek_address,initial_load_address
    003317  aa   000000 000000          	zero	0,0
                                        "	word 5	command language offset and length
    003320  aa   002035 000000          	zero	EXPCL-BASNM
                                        "	words 6-9 statistics
    003321  aa   000000 000000          	dec 0,0,0,0
    003322  aa   000000 000000
    003323  aa   000000 000000
    003324  aa   000000 000000
                                        "	word 10	BCI catalog name
    003325  aa  330 742 052 020         	bci	".7K5",6
                                        "	word 11	library, component
    003326  aa   000000 000000          	zero	0,0
                                        "	word 12	ss_name length
    003327  aa   000000 000004          	zero	,4
                                 2-456  " Program descriptor 147.
                                 2-457  LEAD:  PRGDES  1,0,227408,994,894,100,100,  " Added by gtbl on 05/19/83  1759.5
                                 2-458                 lead,EXPCL,.TSPTL,.BSPO  PAPER TAPE LEADER                -PSP-
                                        "	word 1	ss_name
                                        	qstring	lead
    003330  aa  154 145 141 144         	aci	"lead",4
                                        "	word 2	program_size, load_size
    003331  aa   001742 001576          	zero	994,894
                                        "	word 3	entry_point, parameters
    003332  aa   000144 010000          	zero	100,.BSPO
                                        "	word 4	seek_address,initial_load_address
    003333  aa   674120 000144          	zero	227408,100
                                        "	word 5	command language offset and length
    003334  aa   002035 000000          	zero	EXPCL-BASNM
                                        "	words 6-9 statistics
    003335  aa   000000 000000          	dec 0,0,0,0
    003336  aa   000000 000000
    003337  aa   000000 000000
    003340  aa   000000 000000
                                        "	word 10	BCI catalog name
    003341  aa  336 362 476 343         	bci	".TSPTL",6
                                        "	word 11	library, component
    003342  aa   000001 000000          	zero	1,0
                                        "	word 12	ss_name length
    003343  aa   000000 000004          	zero	,4
                                 2-459  " Program descriptor 148.
                                 2-460  SYST:  PRGDES  0,0,0,0,0,0,0,
                                 2-461                 syst,SYSCL
                                        "	word 1	ss_name
                                        	qstring	syst
    003344  aa  163 171 163 164         	aci	"syst",4
                                        "	word 2	program_size, load_size
    003345  aa   000000 000000          	zero	0,0
                                        "	word 3	entry_point, parameters
    003346  aa   000000 000000          	zero	0,
                                        "	word 4	seek_address,initial_load_address
    003347  aa   000000 000000          	zero	0,0
                                        "	word 5	command language offset and length
    003350  aa   002013 000000          	zero	SYSCL-BASNM
                                        "	words 6-9 statistics
    003351  aa   000000 000000          	dec 0,0,0,0
    003352  aa   000000 000000
    003353  aa   000000 000000
    003354  aa   000000 000000
                                        "	word 10	BCI catalog name
    003355  aa   000000 000000          	zero
                                        "	word 11	library, component
    003356  aa   000000 000000          	zero	0,0
                                        "	word 12	ss_name length
    003357  aa   000000 000004          	zero	,4
                                 2-462  " Program descriptor 149.
                                 2-463         PRGDES  0,0,0,0,0,0,0,
                                 2-464                 ebld,(EBLDCL,2)
                                        "	word 1	ss_name
                                        	qstring	ebld
    003360  aa  145 142 154 144         	aci	"ebld",4
                                        "	word 2	program_size, load_size
    003361  aa   000000 000000          	zero	0,0
                                        "	word 3	entry_point, parameters
    003362  aa   000000 000000          	zero	0,
                                        "	word 4	seek_address,initial_load_address
    003363  aa   000000 000000          	zero	0,0
                                        "	word 5	command language offset and length
    003364  aa   002050 000002          	zero	EBLDCL-BASNM,2
                                        "	words 6-9 statistics
    003365  aa   000000 000000          	dec 0,0,0,0
    003366  aa   000000 000000
    003367  aa   000000 000000
    003370  aa   000000 000000
                                        "	word 10	BCI catalog name
    003371  aa   000000 000000          	zero
                                        "	word 11	library, component
    003372  aa   000000 000000          	zero	0,0
                                        "	word 12	ss_name length
    003373  aa   000000 000004          	zero	,4
                                 2-465  " Program descriptor 150.
                                 2-466  CRUN:  PRGDES  1,0,150056,7436,7334,104,102,  " Added by gtbl on 05/19/83  1759.5
                                 2-467                 crun,EXPCL,.TSCFP,.BPRIV+.BSPO  COMMAND FILE PROC         -PSP-
                                        "	word 1	ss_name
                                        	qstring	crun
    003374  aa  143 162 165 156         	aci	"crun",4
                                        "	word 2	program_size, load_size
    003375  aa   016414 016246          	zero	7436,7334
                                        "	word 3	entry_point, parameters
    003376  aa   000150 010001          	zero	104,.BPRIV+.BSPO
                                        "	word 4	seek_address,initial_load_address
    003377  aa   445050 000146          	zero	150056,102
                                        "	word 5	command language offset and length
    003400  aa   002035 000000          	zero	EXPCL-BASNM
                                        "	words 6-9 statistics
    003401  aa   000000 000000          	dec 0,0,0,0
    003402  aa   000000 000000
    003403  aa   000000 000000
    003404  aa   000000 000000
                                        "	word 10	BCI catalog name
    003405  aa  336 362 232 647         	bci	".TSCFP",6
                                        "	word 11	library, component
    003406  aa   000001 000000          	zero	1,0
                                        "	word 12	ss_name length
    003407  aa   000000 000004          	zero	,4
                                 2-468  " Program descriptor 151.
                                 2-469  QUOTE: PRGDES  1,0,150056,7436,7334,104,102,  " Added by gtbl on 05/19/83  1759.5
                                 2-470                 ",EXPCL,.TSCFP,.BPRIV,CRUN
                                        "	word 1	ss_name
    003410  aa   000000 000000          	zero
                                        "	word 2	program_size, load_size
    003411  aa   016414 016246          	zero	7436,7334
                                        "	word 3	entry_point, parameters
    003412  aa   000150 000000          	zero	104,
                                        "	word 4	seek_address,initial_load_address
    003413  aa   445050 000146          	zero	150056,102
                                        "	word 5	command language offset and length
    003414  aa   000000 000000          	zero
                                        "	words 6-9 statistics
    003415  aa   000000 000000          	dec 0,0,0,0
    003416  aa   000000 000000
    003417  aa   000000 000000
    003420  aa   000000 000000
                                        "	word 10	BCI catalog name
    003421  aa   000000 000000          	zero
                                        "	word 11	library, component
    003422  aa   000001 000000          	zero	1,0
                                        "	word 12	ss_name length
    003423  aa   000000 000000          	zero
                                 2-471  " Program descriptor 152.
                                 2-472  DSTS:  PRGDES  1,0,150056,7436,7334,104,102,  " Added by gtbl on 05/19/83  1759.5
                                 2-473                 dsts,EXPCL,.TSCFP,.BPRIV,CRUN
                                        "	word 1	ss_name
                                        	qstring	dsts
    003424  aa  144 163 164 163         	aci	"dsts",4
                                        "	word 2	program_size, load_size
    003425  aa   016414 016246          	zero	7436,7334
                                        "	word 3	entry_point, parameters
    003426  aa   000150 000001          	zero	104,.BPRIV
                                        "	word 4	seek_address,initial_load_address
    003427  aa   445050 000146          	zero	150056,102
                                        "	word 5	command language offset and length
    003430  aa   002035 000000          	zero	EXPCL-BASNM
                                        "	words 6-9 statistics
    003431  aa   000000 000000          	dec 0,0,0,0
    003432  aa   000000 000000
    003433  aa   000000 000000
    003434  aa   000000 000000
                                        "	word 10	BCI catalog name
    003435  aa  336 362 232 647         	bci	".TSCFP",6
                                        "	word 11	library, component
    003436  aa   000001 000000          	zero	1,0
                                        "	word 12	ss_name length
    003437  aa   000000 000004          	zero	,4
                                 2-474  " Program descriptor 153.
                                 2-475  DABT:  PRGDES  1,0,150056,7436,7334,104,102,  " Added by gtbl on 05/19/83  1759.5
                                 2-476                 dabt,EXPCL,.TSCFP,.BPRIV,CRUN
                                        "	word 1	ss_name
                                        	qstring	dabt
    003440  aa  144 141 142 164         	aci	"dabt",4
                                        "	word 2	program_size, load_size
    003441  aa   016414 016246          	zero	7436,7334
                                        "	word 3	entry_point, parameters
    003442  aa   000150 000001          	zero	104,.BPRIV
                                        "	word 4	seek_address,initial_load_address
    003443  aa   445050 000146          	zero	150056,102
                                        "	word 5	command language offset and length
    003444  aa   002035 000000          	zero	EXPCL-BASNM
                                        "	words 6-9 statistics
    003445  aa   000000 000000          	dec 0,0,0,0
    003446  aa   000000 000000
    003447  aa   000000 000000
    003450  aa   000000 000000
                                        "	word 10	BCI catalog name
    003451  aa  336 362 232 647         	bci	".TSCFP",6
                                        "	word 11	library, component
    003452  aa   000001 000000          	zero	1,0
                                        "	word 12	ss_name length
    003453  aa   000000 000004          	zero	,4
                                 2-477  " Program descriptor 154.
                                 2-478  DRUN:  PRGDES  1,0,150056,7436,7334,104,102,  " Added by gtbl on 05/19/83  1759.5
                                 2-479                 drun,EXPCL,.TSCFP,.BPRIV,CRUN
                                        "	word 1	ss_name
                                        	qstring	drun
    003454  aa  144 162 165 156         	aci	"drun",4
                                        "	word 2	program_size, load_size
    003455  aa   016414 016246          	zero	7436,7334
                                        "	word 3	entry_point, parameters
    003456  aa   000150 000001          	zero	104,.BPRIV
                                        "	word 4	seek_address,initial_load_address
    003457  aa   445050 000146          	zero	150056,102
                                        "	word 5	command language offset and length
    003460  aa   002035 000000          	zero	EXPCL-BASNM
                                        "	words 6-9 statistics
    003461  aa   000000 000000          	dec 0,0,0,0
    003462  aa   000000 000000
    003463  aa   000000 000000
    003464  aa   000000 000000
                                        "	word 10	BCI catalog name
    003465  aa  336 362 232 647         	bci	".TSCFP",6
                                        "	word 11	library, component
    003466  aa   000001 000000          	zero	1,0
                                        "	word 12	ss_name length
    003467  aa   000000 000004          	zero	,4
                                 2-480  " Program descriptor 155.
                                 2-481  CPOS:  PRGDES  1,0,150056,7436,7334,104,102,  " Added by gtbl on 05/19/83  1759.5
                                 2-482                 cpos,EXPCL,.TSCFP,.BPRIV,CRUN                            TSSA0NML
                                        "	word 1	ss_name
                                        	qstring	cpos
    003470  aa  143 160 157 163         	aci	"cpos",4
                                        "	word 2	program_size, load_size
    003471  aa   016414 016246          	zero	7436,7334
                                        "	word 3	entry_point, parameters
    003472  aa   000150 000001          	zero	104,.BPRIV
                                        "	word 4	seek_address,initial_load_address
    003473  aa   445050 000146          	zero	150056,102
                                        "	word 5	command language offset and length
    003474  aa   002035 000000          	zero	EXPCL-BASNM
                                        "	words 6-9 statistics
    003475  aa   000000 000000          	dec 0,0,0,0
    003476  aa   000000 000000
    003477  aa   000000 000000
    003500  aa   000000 000000
                                        "	word 10	BCI catalog name
    003501  aa  336 362 232 647         	bci	".TSCFP",6
                                        "	word 11	library, component
    003502  aa   000001 000000          	zero	1,0
                                        "	word 12	ss_name length
    003503  aa   000000 000004          	zero	,4
                                 2-483  " Program descriptor 156.
                                 2-484  CMOD:  PRGDES  1,0,150056,7436,7334,104,102,  " Added by gtbl on 05/19/83  1759.5
                                 2-485                 cmod,EXPCL,.TSCFP,.BPRIV,CRUN                            TSSA0NML
                                        "	word 1	ss_name
                                        	qstring	cmod
    003504  aa  143 155 157 144         	aci	"cmod",4
                                        "	word 2	program_size, load_size
    003505  aa   016414 016246          	zero	7436,7334
                                        "	word 3	entry_point, parameters
    003506  aa   000150 000001          	zero	104,.BPRIV
                                        "	word 4	seek_address,initial_load_address
    003507  aa   445050 000146          	zero	150056,102
                                        "	word 5	command language offset and length
    003510  aa   002035 000000          	zero	EXPCL-BASNM
                                        "	words 6-9 statistics
    003511  aa   000000 000000          	dec 0,0,0,0
    003512  aa   000000 000000
    003513  aa   000000 000000
    003514  aa   000000 000000
                                        "	word 10	BCI catalog name
    003515  aa  336 362 232 647         	bci	".TSCFP",6
                                        "	word 11	library, component
    003516  aa   000001 000000          	zero	1,0
                                        "	word 12	ss_name length
    003517  aa   000000 000004          	zero	,4
                                 2-486  " Program descriptor 157.
                                 2-487  COUT:  PRGDES  1,0,150056,7436,7334,104,102,  " Added by gtbl on 05/19/83  1759.5
                                 2-488                 cout,EXPCL,.TSCFP,.BPRIV,CRUN
                                        "	word 1	ss_name
                                        	qstring	cout
    003520  aa  143 157 165 164         	aci	"cout",4
                                        "	word 2	program_size, load_size
    003521  aa   016414 016246          	zero	7436,7334
                                        "	word 3	entry_point, parameters
    003522  aa   000150 000001          	zero	104,.BPRIV
                                        "	word 4	seek_address,initial_load_address
    003523  aa   445050 000146          	zero	150056,102
                                        "	word 5	command language offset and length
    003524  aa   002035 000000          	zero	EXPCL-BASNM
                                        "	words 6-9 statistics
    003525  aa   000000 000000          	dec 0,0,0,0
    003526  aa   000000 000000
    003527  aa   000000 000000
    003530  aa   000000 000000
                                        "	word 10	BCI catalog name
    003531  aa  336 362 232 647         	bci	".TSCFP",6
                                        "	word 11	library, component
    003532  aa   000001 000000          	zero	1,0
                                        "	word 12	ss_name length
    003533  aa   000000 000004          	zero	,4
                                 2-489  " Program descriptor 158.
                                 2-490  QUIT:  PRGDES  1,0,150056,7436,7334,104,102,  " Added by gtbl on 05/19/83  1759.5
                                 2-491                 quit,EXPCL,.TSCFP,.BPRIV,CRUN                            TSSA0O9I
                                        "	word 1	ss_name
                                        	qstring	quit
    003534  aa  161 165 151 164         	aci	"quit",4
                                        "	word 2	program_size, load_size
    003535  aa   016414 016246          	zero	7436,7334
                                        "	word 3	entry_point, parameters
    003536  aa   000150 000001          	zero	104,.BPRIV
                                        "	word 4	seek_address,initial_load_address
    003537  aa   445050 000146          	zero	150056,102
                                        "	word 5	command language offset and length
    003540  aa   002035 000000          	zero	EXPCL-BASNM
                                        "	words 6-9 statistics
    003541  aa   000000 000000          	dec 0,0,0,0
    003542  aa   000000 000000
    003543  aa   000000 000000
    003544  aa   000000 000000
                                        "	word 10	BCI catalog name
    003545  aa  336 362 232 647         	bci	".TSCFP",6
                                        "	word 11	library, component
    003546  aa   000001 000000          	zero	1,0
                                        "	word 12	ss_name length
    003547  aa   000000 000004          	zero	,4
                                 2-492  " Program descriptor 159.
                                 2-493  RESU:  PRGDES  1,0,150056,7436,7334,104,102,  " Added by gtbl on 05/19/83  1759.5
                                 2-494                 resu,EXPCL,.TSCFP,.BPRIV,CRUN                            TSSA0O9I
                                        "	word 1	ss_name
                                        	qstring	resu
    003550  aa  162 145 163 165         	aci	"resu",4
                                        "	word 2	program_size, load_size
    003551  aa   016414 016246          	zero	7436,7334
                                        "	word 3	entry_point, parameters
    003552  aa   000150 000001          	zero	104,.BPRIV
                                        "	word 4	seek_address,initial_load_address
    003553  aa   445050 000146          	zero	150056,102
                                        "	word 5	command language offset and length
    003554  aa   002035 000000          	zero	EXPCL-BASNM
                                        "	words 6-9 statistics
    003555  aa   000000 000000          	dec 0,0,0,0
    003556  aa   000000 000000
    003557  aa   000000 000000
    003560  aa   000000 000000
                                        "	word 10	BCI catalog name
    003561  aa  336 362 232 647         	bci	".TSCFP",6
                                        "	word 11	library, component
    003562  aa   000001 000000          	zero	1,0
                                        "	word 12	ss_name length
    003563  aa   000000 000004          	zero	,4
                                 2-495  " Program descriptor 160.
                                 2-496  REM:   PRGDES  1,0,150056,7436,7334,104,102,  " Added by gtbl on 05/19/83  1759.5
                                 2-497                 rem,EXPCL,.TSCFP,.BPRIV,CRUN                             TSSA0O9I
                                        "	word 1	ss_name
                                        	qstring	rem
    003564  aa  162 145 155 040         	aci	"rem",4
                                        "	word 2	program_size, load_size
    003565  aa   016414 016246          	zero	7436,7334
                                        "	word 3	entry_point, parameters
    003566  aa   000150 000001          	zero	104,.BPRIV
                                        "	word 4	seek_address,initial_load_address
    003567  aa   445050 000146          	zero	150056,102
                                        "	word 5	command language offset and length
    003570  aa   002035 000000          	zero	EXPCL-BASNM
                                        "	words 6-9 statistics
    003571  aa   000000 000000          	dec 0,0,0,0
    003572  aa   000000 000000
    003573  aa   000000 000000
    003574  aa   000000 000000
                                        "	word 10	BCI catalog name
    003575  aa  336 362 232 647         	bci	".TSCFP",6
                                        "	word 11	library, component
    003576  aa   000001 000000          	zero	1,0
                                        "	word 12	ss_name length
    003577  aa   000000 000003          	zero	,3
                                 2-498  " Program descriptor 161.
                                 2-499         PRGDES  1,1,76479,1002,1002,2,0,  " Added by gtbl on 05/19/83  1801.0
                                 2-500                 dmpa,EXPCL,.TDMPA,.BNSYS
                                        "	word 1	ss_name
                                        	qstring	dmpa
    003600  aa  144 155 160 141         	aci	"dmpa",4
                                        "	word 2	program_size, load_size
    003601  aa   001752 001752          	zero	1002,1002
                                        "	word 3	entry_point, parameters
    003602  aa   000002 001000          	zero	2,.BNSYS
                                        "	word 4	seek_address,initial_load_address
    003603  aa   225277 000000          	zero	76479,0
                                        "	word 5	command language offset and length
    003604  aa   002035 000000          	zero	EXPCL-BASNM
                                        "	words 6-9 statistics
    003605  aa   000000 000000          	dec 0,0,0,0
    003606  aa   000000 000000
    003607  aa   000000 000000
    003610  aa   000000 000000
                                        "	word 10	BCI catalog name
    003611  aa  336 324 444 721         	bci	".TDMPA",6
                                        "	word 11	library, component
    003612  aa   000001 000001          	zero	1,1
                                        "	word 12	ss_name length
    003613  aa   000000 000004          	zero	,4
                                 2-501  " Program descriptor 162.
                                 2-502         PRGDES  1,1,75557,910,910,2,0,  " Added by gtbl on 05/19/83  1801.0
                                 2-503                 dmpb,EXPCL,.TDMPB,.BNSYS
                                        "	word 1	ss_name
                                        	qstring	dmpb
    003614  aa  144 155 160 142         	aci	"dmpb",4
                                        "	word 2	program_size, load_size
    003615  aa   001616 001616          	zero	910,910
                                        "	word 3	entry_point, parameters
    003616  aa   000002 001000          	zero	2,.BNSYS
                                        "	word 4	seek_address,initial_load_address
    003617  aa   223445 000000          	zero	75557,0
                                        "	word 5	command language offset and length
    003620  aa   002035 000000          	zero	EXPCL-BASNM
                                        "	words 6-9 statistics
    003621  aa   000000 000000          	dec 0,0,0,0
    003622  aa   000000 000000
    003623  aa   000000 000000
    003624  aa   000000 000000
                                        "	word 10	BCI catalog name
    003625  aa  336 324 444 722         	bci	".TDMPB",6
                                        "	word 11	library, component
    003626  aa   000001 000001          	zero	1,1
                                        "	word 12	ss_name length
    003627  aa   000000 000004          	zero	,4
                                 2-504  " Program descriptor 163.
                                 2-505         PRGDES  1,1,80553,3048,3048,2,0,  " Added by gtbl on 05/19/83  1801.0
                                 2-506                 dbga,EXPCL,.TDBGA,.BNSYS
                                        "	word 1	ss_name
                                        	qstring	dbga
    003630  aa  144 142 147 141         	aci	"dbga",4
                                        "	word 2	program_size, load_size
    003631  aa   005750 005750          	zero	3048,3048
                                        "	word 3	entry_point, parameters
    003632  aa   000002 001000          	zero	2,.BNSYS
                                        "	word 4	seek_address,initial_load_address
    003633  aa   235251 000000          	zero	80553,0
                                        "	word 5	command language offset and length
    003634  aa   002035 000000          	zero	EXPCL-BASNM
                                        "	words 6-9 statistics
    003635  aa   000000 000000          	dec 0,0,0,0
    003636  aa   000000 000000
    003637  aa   000000 000000
    003640  aa   000000 000000
                                        "	word 10	BCI catalog name
    003641  aa  336 324 222 721         	bci	".TDBGA",6
                                        "	word 11	library, component
    003642  aa   000001 000001          	zero	1,1
                                        "	word 12	ss_name length
    003643  aa   000000 000004          	zero	,4
                                 2-507  " Program descriptor 164.
                                 2-508         PRGDES  1,1,77493,3048,3048,2,0,  " Added by gtbl on 05/19/83  1801.0
                                 2-509                 dbgb,EXPCL,.TDBGB,.BNSYS
                                        "	word 1	ss_name
                                        	qstring	dbgb
    003644  aa  144 142 147 142         	aci	"dbgb",4
                                        "	word 2	program_size, load_size
    003645  aa   005750 005750          	zero	3048,3048
                                        "	word 3	entry_point, parameters
    003646  aa   000002 001000          	zero	2,.BNSYS
                                        "	word 4	seek_address,initial_load_address
    003647  aa   227265 000000          	zero	77493,0
                                        "	word 5	command language offset and length
    003650  aa   002035 000000          	zero	EXPCL-BASNM
                                        "	words 6-9 statistics
    003651  aa   000000 000000          	dec 0,0,0,0
    003652  aa   000000 000000
    003653  aa   000000 000000
    003654  aa   000000 000000
                                        "	word 10	BCI catalog name
    003655  aa  336 324 222 722         	bci	".TDBGB",6
                                        "	word 11	library, component
    003656  aa   000001 000001          	zero	1,1
                                        "	word 12	ss_name length
    003657  aa   000000 000004          	zero	,4
                                 2-510  "      LEVEL T3 MDQS
                                 2-511  " Program descriptor 165.
                                 2-512  DMSRED:PRGDES  0,0,0,0,0,0,0,
                                 2-513                 redi,EXPCL,.TSRED,.BNSYS+.BSPO
                                        "	word 1	ss_name
                                        	qstring	redi
    003660  aa  162 145 144 151         	aci	"redi",4
                                        "	word 2	program_size, load_size
    003661  aa   000000 000000          	zero	0,0
                                        "	word 3	entry_point, parameters
    003662  aa   000000 011000          	zero	0,.BNSYS+.BSPO
                                        "	word 4	seek_address,initial_load_address
    003663  aa   000000 000000          	zero	0,0
                                        "	word 5	command language offset and length
    003664  aa   002035 000000          	zero	EXPCL-BASNM
                                        "	words 6-9 statistics
    003665  aa   000000 000000          	dec 0,0,0,0
    003666  aa   000000 000000
    003667  aa   000000 000000
    003670  aa   000000 000000
                                        "	word 10	BCI catalog name
    003671  aa  336 362 512 524         	bci	".TSRED",6
                                        "	word 11	library, component
    003672  aa   000000 000000          	zero	0,0
                                        "	word 12	ss_name length
    003673  aa   000000 000004          	zero	,4
                                 2-514  " Program descriptor 166.
                                 2-515  DMSPER:PRGDES  0,0,0,0,0,0,0,
                                 2-516                 perf,EXPCL,.TXBG,.BSPO
                                        "	word 1	ss_name
                                        	qstring	perf
    003674  aa  160 145 162 146         	aci	"perf",4
                                        "	word 2	program_size, load_size
    003675  aa   000000 000000          	zero	0,0
                                        "	word 3	entry_point, parameters
    003676  aa   000000 010000          	zero	0,.BSPO
                                        "	word 4	seek_address,initial_load_address
    003677  aa   000000 000000          	zero	0,0
                                        "	word 5	command language offset and length
    003700  aa   002035 000000          	zero	EXPCL-BASNM
                                        "	words 6-9 statistics
    003701  aa   000000 000000          	dec 0,0,0,0
    003702  aa   000000 000000
    003703  aa   000000 000000
    003704  aa   000000 000000
                                        "	word 10	BCI catalog name
    003705  aa  336 367 222 720         	bci	".TXBG",6
                                        "	word 11	library, component
    003706  aa   000000 000000          	zero	0,0
                                        "	word 12	ss_name length
    003707  aa   000000 000004          	zero	,4
                                 2-517  " Program descriptor 167.
                                 2-518  WDMS:  PRGDES  0,0,0,0,0,0,0,
                                 2-519                 mdq,(WWB3CL,14),,.BCMCL
                                        "	word 1	ss_name
                                        	qstring	mdq
    003710  aa  155 144 161 040         	aci	"mdq",4
                                        "	word 2	program_size, load_size
    003711  aa   000000 000000          	zero	0,0
                                        "	word 3	entry_point, parameters
    003712  aa   000000 000020          	zero	0,.BCMCL
                                        "	word 4	seek_address,initial_load_address
    003713  aa   000000 000000          	zero	0,0
                                        "	word 5	command language offset and length
    003714  aa   001542 000016          	zero	WWB3CL-BASNM,14
                                        "	words 6-9 statistics
    003715  aa   000000 000000          	dec 0,0,0,0
    003716  aa   000000 000000
    003717  aa   000000 000000
    003720  aa   000000 000000
                                        "	word 10	BCI catalog name
    003721  aa   000000 000000          	zero
                                        "	word 11	library, component
    003722  aa   000000 000000          	zero	0,0
                                        "	word 12	ss_name length
    003723  aa   000000 000003          	zero	,3
                                 2-520  " Program descriptor 168.
                                 2-521  B3RUN: PRGDES  0,0,0,0,0,0,0,
                                 2-522                 b3ru,EXPCL,.TXEB,.BNSYS+.BSPO+.BSPSZ
                                        "	word 1	ss_name
                                        	qstring	b3ru
    003724  aa  142 063 162 165         	aci	"b3ru",4
                                        "	word 2	program_size, load_size
    003725  aa   000000 000000          	zero	0,0
                                        "	word 3	entry_point, parameters
    003726  aa   000000 111000          	zero	0,.BNSYS+.BSPO+.BSPSZ
                                        "	word 4	seek_address,initial_load_address
    003727  aa   000000 000000          	zero	0,0
                                        "	word 5	command language offset and length
    003730  aa   002035 000000          	zero	EXPCL-BASNM
                                        "	words 6-9 statistics
    003731  aa   000000 000000          	dec 0,0,0,0
    003732  aa   000000 000000
    003733  aa   000000 000000
    003734  aa   000000 000000
                                        "	word 10	BCI catalog name
    003735  aa  336 367 252 220         	bci	".TXEB",6
                                        "	word 11	library, component
    003736  aa   000000 000000          	zero	0,0
                                        "	word 12	ss_name length
    003737  aa   000000 000004          	zero	,4
                                 2-523  " Program descriptor 169.
                                 2-524         PRGDES  0,0,0,0,0,0,0,
                                 2-525                 wwp2,EXPCL,PHASE2,.BNSYS+.BSPO
                                        "	word 1	ss_name
                                        	qstring	wwp2
    003740  aa  167 167 160 062         	aci	"wwp2",4
                                        "	word 2	program_size, load_size
    003741  aa   000000 000000          	zero	0,0
                                        "	word 3	entry_point, parameters
    003742  aa   000000 011000          	zero	0,.BNSYS+.BSPO
                                        "	word 4	seek_address,initial_load_address
    003743  aa   000000 000000          	zero	0,0
                                        "	word 5	command language offset and length
    003744  aa   002035 000000          	zero	EXPCL-BASNM
                                        "	words 6-9 statistics
    003745  aa   000000 000000          	dec 0,0,0,0
    003746  aa   000000 000000
    003747  aa   000000 000000
    003750  aa   000000 000000
                                        "	word 10	BCI catalog name
    003751  aa  473 021 622 502         	bci	"PHASE2",6
                                        "	word 11	library, component
    003752  aa   000000 000000          	zero	0,0
                                        "	word 12	ss_name length
    003753  aa   000000 000004          	zero	,4
                                 2-526  " Program descriptor 170.
                                 2-527         PRGDES  0,0,0,0,0,0,0,
                                 2-528                 wwp3,EXPCL,PHASE3,.BNSYS+.BSPO
                                        "	word 1	ss_name
                                        	qstring	wwp3
    003754  aa  167 167 160 063         	aci	"wwp3",4
                                        "	word 2	program_size, load_size
    003755  aa   000000 000000          	zero	0,0
                                        "	word 3	entry_point, parameters
    003756  aa   000000 011000          	zero	0,.BNSYS+.BSPO
                                        "	word 4	seek_address,initial_load_address
    003757  aa   000000 000000          	zero	0,0
                                        "	word 5	command language offset and length
    003760  aa   002035 000000          	zero	EXPCL-BASNM
                                        "	words 6-9 statistics
    003761  aa   000000 000000          	dec 0,0,0,0
    003762  aa   000000 000000
    003763  aa   000000 000000
    003764  aa   000000 000000
                                        "	word 10	BCI catalog name
    003765  aa  473 021 622 503         	bci	"PHASE3",6
                                        "	word 11	library, component
    003766  aa   000000 000000          	zero	0,0
                                        "	word 12	ss_name length
    003767  aa   000000 000004          	zero	,4
                                 2-529  " Program descriptor 171.
                                 2-530         PRGDES  0,0,0,0,0,0,0,
                                 2-531                 wwp4,EXPCL,PHASE4,.BNSYS+.BSPO
                                        "	word 1	ss_name
                                        	qstring	wwp4
    003770  aa  167 167 160 064         	aci	"wwp4",4
                                        "	word 2	program_size, load_size
    003771  aa   000000 000000          	zero	0,0
                                        "	word 3	entry_point, parameters
    003772  aa   000000 011000          	zero	0,.BNSYS+.BSPO
                                        "	word 4	seek_address,initial_load_address
    003773  aa   000000 000000          	zero	0,0
                                        "	word 5	command language offset and length
    003774  aa   002035 000000          	zero	EXPCL-BASNM
                                        "	words 6-9 statistics
    003775  aa   000000 000000          	dec 0,0,0,0
    003776  aa   000000 000000
    003777  aa   000000 000000
    004000  aa   000000 000000
                                        "	word 10	BCI catalog name
    004001  aa  473 021 622 504         	bci	"PHASE4",6
                                        "	word 11	library, component
    004002  aa   000000 000000          	zero	0,0
                                        "	word 12	ss_name length
    004003  aa   000000 000004          	zero	,4
                                 2-532  " Program descriptor 172.
                                 2-533         PRGDES  0,0,0,0,0,0,0,
                                 2-534                 wwp5,EXPCL,PHASE5,.BNSYS+.BSPO
                                        "	word 1	ss_name
                                        	qstring	wwp5
    004004  aa  167 167 160 065         	aci	"wwp5",4
                                        "	word 2	program_size, load_size
    004005  aa   000000 000000          	zero	0,0
                                        "	word 3	entry_point, parameters
    004006  aa   000000 011000          	zero	0,.BNSYS+.BSPO
                                        "	word 4	seek_address,initial_load_address
    004007  aa   000000 000000          	zero	0,0
                                        "	word 5	command language offset and length
    004010  aa   002035 000000          	zero	EXPCL-BASNM
                                        "	words 6-9 statistics
    004011  aa   000000 000000          	dec 0,0,0,0
    004012  aa   000000 000000
    004013  aa   000000 000000
    004014  aa   000000 000000
                                        "	word 10	BCI catalog name
    004015  aa  473 021 622 505         	bci	"PHASE5",6
                                        "	word 11	library, component
    004016  aa   000000 000000          	zero	0,0
                                        "	word 12	ss_name length
    004017  aa   000000 000004          	zero	,4
                                 2-535  " Program descriptor 173.
                                 2-536         PRGDES  0,0,0,0,0,0,0,
                                 2-537                 wwpg,EXPCL,PHASEG,.BNSYS+.BSPO
                                        "	word 1	ss_name
                                        	qstring	wwpg
    004020  aa  167 167 160 147         	aci	"wwpg",4
                                        "	word 2	program_size, load_size
    004021  aa   000000 000000          	zero	0,0
                                        "	word 3	entry_point, parameters
    004022  aa   000000 011000          	zero	0,.BNSYS+.BSPO
                                        "	word 4	seek_address,initial_load_address
    004023  aa   000000 000000          	zero	0,0
                                        "	word 5	command language offset and length
    004024  aa   002035 000000          	zero	EXPCL-BASNM
                                        "	words 6-9 statistics
    004025  aa   000000 000000          	dec 0,0,0,0
    004026  aa   000000 000000
    004027  aa   000000 000000
    004030  aa   000000 000000
                                        "	word 10	BCI catalog name
    004031  aa  473 021 622 527         	bci	"PHASEG",6
                                        "	word 11	library, component
    004032  aa   000000 000000          	zero	0,0
                                        "	word 12	ss_name length
    004033  aa   000000 000004          	zero	,4
                                 2-538  " Program descriptor 174.
                                 2-539         PRGDES  0,0,0,0,0,0,0,
                                 2-540                 wwpq,EXPCL,PHASEQ,.BNSYS+.BSPO
                                        "	word 1	ss_name
                                        	qstring	wwpq
    004034  aa  167 167 160 161         	aci	"wwpq",4
                                        "	word 2	program_size, load_size
    004035  aa   000000 000000          	zero	0,0
                                        "	word 3	entry_point, parameters
    004036  aa   000000 011000          	zero	0,.BNSYS+.BSPO
                                        "	word 4	seek_address,initial_load_address
    004037  aa   000000 000000          	zero	0,0
                                        "	word 5	command language offset and length
    004040  aa   002035 000000          	zero	EXPCL-BASNM
                                        "	words 6-9 statistics
    004041  aa   000000 000000          	dec 0,0,0,0
    004042  aa   000000 000000
    004043  aa   000000 000000
    004044  aa   000000 000000
                                        "	word 10	BCI catalog name
    004045  aa  473 021 622 550         	bci	"PHASEQ",6
                                        "	word 11	library, component
    004046  aa   000000 000000          	zero	0,0
                                        "	word 12	ss_name length
    004047  aa   000000 000004          	zero	,4
                                 2-541  " Program descriptor 175.
                                 2-542  TZCK:  PRGDES  0,0,0,0,0,0,0,
                                 2-543                 wwpc,EXPCL,.TXGU,.BNSYS+.BSPO
                                        "	word 1	ss_name
                                        	qstring	wwpc
    004050  aa  167 167 160 143         	aci	"wwpc",4
                                        "	word 2	program_size, load_size
    004051  aa   000000 000000          	zero	0,0
                                        "	word 3	entry_point, parameters
    004052  aa   000000 011000          	zero	0,.BNSYS+.BSPO
                                        "	word 4	seek_address,initial_load_address
    004053  aa   000000 000000          	zero	0,0
                                        "	word 5	command language offset and length
    004054  aa   002035 000000          	zero	EXPCL-BASNM
                                        "	words 6-9 statistics
    004055  aa   000000 000000          	dec 0,0,0,0
    004056  aa   000000 000000
    004057  aa   000000 000000
    004060  aa   000000 000000
                                        "	word 10	BCI catalog name
    004061  aa  336 367 276 420         	bci	".TXGU",6
                                        "	word 11	library, component
    004062  aa   000000 000000          	zero	0,0
                                        "	word 12	ss_name length
    004063  aa   000000 000004          	zero	,4
                                 2-544  " Program descriptor 176.
                                 2-545  B3TUT: PRGDES  0,0,0,0,0,0,0,
                                 2-546                 tut0,EXPCL,.TXGC,.BNSYS+.BSPO
                                        "	word 1	ss_name
                                        	qstring	tut0
    004064  aa  164 165 164 060         	aci	"tut0",4
                                        "	word 2	program_size, load_size
    004065  aa   000000 000000          	zero	0,0
                                        "	word 3	entry_point, parameters
    004066  aa   000000 011000          	zero	0,.BNSYS+.BSPO
                                        "	word 4	seek_address,initial_load_address
    004067  aa   000000 000000          	zero	0,0
                                        "	word 5	command language offset and length
    004070  aa   002035 000000          	zero	EXPCL-BASNM
                                        "	words 6-9 statistics
    004071  aa   000000 000000          	dec 0,0,0,0
    004072  aa   000000 000000
    004073  aa   000000 000000
    004074  aa   000000 000000
                                        "	word 10	BCI catalog name
    004075  aa  336 367 272 320         	bci	".TXGC",6
                                        "	word 11	library, component
    004076  aa   000000 000000          	zero	0,0
                                        "	word 12	ss_name length
    004077  aa   000000 000004          	zero	,4
                                 2-547  " Program descriptor 177.
                                 2-548  B3DIR: PRGDES  0,0,0,0,0,0,0,
                                 2-549                 diru,EXPCL,.TXGA,.BNSYS+.BSPO
                                        "	word 1	ss_name
                                        	qstring	diru
    004100  aa  144 151 162 165         	aci	"diru",4
                                        "	word 2	program_size, load_size
    004101  aa   000000 000000          	zero	0,0
                                        "	word 3	entry_point, parameters
    004102  aa   000000 011000          	zero	0,.BNSYS+.BSPO
                                        "	word 4	seek_address,initial_load_address
    004103  aa   000000 000000          	zero	0,0
                                        "	word 5	command language offset and length
    004104  aa   002035 000000          	zero	EXPCL-BASNM
                                        "	words 6-9 statistics
    004105  aa   000000 000000          	dec 0,0,0,0
    004106  aa   000000 000000
    004107  aa   000000 000000
    004110  aa   000000 000000
                                        "	word 10	BCI catalog name
    004111  aa  336 367 272 120         	bci	".TXGA",6
                                        "	word 11	library, component
    004112  aa   000000 000000          	zero	0,0
                                        "	word 12	ss_name length
    004113  aa   000000 000004          	zero	,4
                                 2-550  " Program descriptor 178.
                                 2-551  B3SIN: PRGDES  0,0,0,0,0,0,0,
                                 2-552                 sini,EXPCL,.TXGF,.BNSYS+.BSPO
                                        "	word 1	ss_name
                                        	qstring	sini
    004114  aa  163 151 156 151         	aci	"sini",4
                                        "	word 2	program_size, load_size
    004115  aa   000000 000000          	zero	0,0
                                        "	word 3	entry_point, parameters
    004116  aa   000000 011000          	zero	0,.BNSYS+.BSPO
                                        "	word 4	seek_address,initial_load_address
    004117  aa   000000 000000          	zero	0,0
                                        "	word 5	command language offset and length
    004120  aa   002035 000000          	zero	EXPCL-BASNM
                                        "	words 6-9 statistics
    004121  aa   000000 000000          	dec 0,0,0,0
    004122  aa   000000 000000
    004123  aa   000000 000000
    004124  aa   000000 000000
                                        "	word 10	BCI catalog name
    004125  aa  336 367 272 620         	bci	".TXGF",6
                                        "	word 11	library, component
    004126  aa   000000 000000          	zero	0,0
                                        "	word 12	ss_name length
    004127  aa   000000 000004          	zero	,4
                                 2-553  " Program descriptor 179.
                                 2-554  B3DJS: PRGDES  0,0,0,0,0,0,0,
                                 2-555                 djst,EXPCL,.TXGE,.BNSYS+.BSPO
                                        "	word 1	ss_name
                                        	qstring	djst
    004130  aa  144 152 163 164         	aci	"djst",4
                                        "	word 2	program_size, load_size
    004131  aa   000000 000000          	zero	0,0
                                        "	word 3	entry_point, parameters
    004132  aa   000000 011000          	zero	0,.BNSYS+.BSPO
                                        "	word 4	seek_address,initial_load_address
    004133  aa   000000 000000          	zero	0,0
                                        "	word 5	command language offset and length
    004134  aa   002035 000000          	zero	EXPCL-BASNM
                                        "	words 6-9 statistics
    004135  aa   000000 000000          	dec 0,0,0,0
    004136  aa   000000 000000
    004137  aa   000000 000000
    004140  aa   000000 000000
                                        "	word 10	BCI catalog name
    004141  aa  336 367 272 520         	bci	".TXGE",6
                                        "	word 11	library, component
    004142  aa   000000 000000          	zero	0,0
                                        "	word 12	ss_name length
    004143  aa   000000 000004          	zero	,4
                                 2-556  " Program descriptor 180.
                                 2-557  B3PRI: PRGDES  0,0,0,0,0,0,0,
                                 2-558                 priv,EXPCL,.TXGB,.BNSYS+.BSPO
                                        "	word 1	ss_name
                                        	qstring	priv
    004144  aa  160 162 151 166         	aci	"priv",4
                                        "	word 2	program_size, load_size
    004145  aa   000000 000000          	zero	0,0
                                        "	word 3	entry_point, parameters
    004146  aa   000000 011000          	zero	0,.BNSYS+.BSPO
                                        "	word 4	seek_address,initial_load_address
    004147  aa   000000 000000          	zero	0,0
                                        "	word 5	command language offset and length
    004150  aa   002035 000000          	zero	EXPCL-BASNM
                                        "	words 6-9 statistics
    004151  aa   000000 000000          	dec 0,0,0,0
    004152  aa   000000 000000
    004153  aa   000000 000000
    004154  aa   000000 000000
                                        "	word 10	BCI catalog name
    004155  aa  336 367 272 220         	bci	".TXGB",6
                                        "	word 11	library, component
    004156  aa   000000 000000          	zero	0,0
                                        "	word 12	ss_name length
    004157  aa   000000 000004          	zero	,4
                                 2-559  " Program descriptor 181.
                                 2-560  B3ADF: PRGDES  0,0,0,0,0,0,0,
                                 2-561                 adfq,EXPCL,.TXGD,.BNSYS+.BSPO
                                        "	word 1	ss_name
                                        	qstring	adfq
    004160  aa  141 144 146 161         	aci	"adfq",4
                                        "	word 2	program_size, load_size
    004161  aa   000000 000000          	zero	0,0
                                        "	word 3	entry_point, parameters
    004162  aa   000000 011000          	zero	0,.BNSYS+.BSPO
                                        "	word 4	seek_address,initial_load_address
    004163  aa   000000 000000          	zero	0,0
                                        "	word 5	command language offset and length
    004164  aa   002035 000000          	zero	EXPCL-BASNM
                                        "	words 6-9 statistics
    004165  aa   000000 000000          	dec 0,0,0,0
    004166  aa   000000 000000
    004167  aa   000000 000000
    004170  aa   000000 000000
                                        "	word 10	BCI catalog name
    004171  aa  336 367 272 420         	bci	".TXGD",6
                                        "	word 11	library, component
    004172  aa   000000 000000          	zero	0,0
                                        "	word 12	ss_name length
    004173  aa   000000 000004          	zero	,4
                                 2-562  " Program descriptor 182.
                                 2-563  TGPRO: PRGDES  0,0,0,0,0,0,0,
                                 2-564                 dmup,EXPCL,.TXGI,.BNSYS+.BSPO
                                        "	word 1	ss_name
                                        	qstring	dmup
    004174  aa  144 155 165 160         	aci	"dmup",4
                                        "	word 2	program_size, load_size
    004175  aa   000000 000000          	zero	0,0
                                        "	word 3	entry_point, parameters
    004176  aa   000000 011000          	zero	0,.BNSYS+.BSPO
                                        "	word 4	seek_address,initial_load_address
    004177  aa   000000 000000          	zero	0,0
                                        "	word 5	command language offset and length
    004200  aa   002035 000000          	zero	EXPCL-BASNM
                                        "	words 6-9 statistics
    004201  aa   000000 000000          	dec 0,0,0,0
    004202  aa   000000 000000
    004203  aa   000000 000000
    004204  aa   000000 000000
                                        "	word 10	BCI catalog name
    004205  aa  336 367 273 120         	bci	".TXGI",6
                                        "	word 11	library, component
    004206  aa   000000 000000          	zero	0,0
                                        "	word 12	ss_name length
    004207  aa   000000 000004          	zero	,4
                                 2-565  " Program descriptor 183.
                                 2-566  B3XX1: PRGDES  0,0,0,0,0,0,0,
                                 2-567                 cmdq,EXPCL,.TXGL,.BNSYS+.BSPO
                                        "	word 1	ss_name
                                        	qstring	cmdq
    004210  aa  143 155 144 161         	aci	"cmdq",4
                                        "	word 2	program_size, load_size
    004211  aa   000000 000000          	zero	0,0
                                        "	word 3	entry_point, parameters
    004212  aa   000000 011000          	zero	0,.BNSYS+.BSPO
                                        "	word 4	seek_address,initial_load_address
    004213  aa   000000 000000          	zero	0,0
                                        "	word 5	command language offset and length
    004214  aa   002035 000000          	zero	EXPCL-BASNM
                                        "	words 6-9 statistics
    004215  aa   000000 000000          	dec 0,0,0,0
    004216  aa   000000 000000
    004217  aa   000000 000000
    004220  aa   000000 000000
                                        "	word 10	BCI catalog name
    004221  aa  336 367 274 320         	bci	".TXGL",6
                                        "	word 11	library, component
    004222  aa   000000 000000          	zero	0,0
                                        "	word 12	ss_name length
    004223  aa   000000 000004          	zero	,4
                                 2-568  " Program descriptor 184.
                                 2-569  B3XX2: PRGDES  0,0,0,0,0,0,0,
                                 2-570                 dmli,EXPCL,.TXGO,.BNSYS+.BSPO
                                        "	word 1	ss_name
                                        	qstring	dmli
    004224  aa  144 155 154 151         	aci	"dmli",4
                                        "	word 2	program_size, load_size
    004225  aa   000000 000000          	zero	0,0
                                        "	word 3	entry_point, parameters
    004226  aa   000000 011000          	zero	0,.BNSYS+.BSPO
                                        "	word 4	seek_address,initial_load_address
    004227  aa   000000 000000          	zero	0,0
                                        "	word 5	command language offset and length
    004230  aa   002035 000000          	zero	EXPCL-BASNM
                                        "	words 6-9 statistics
    004231  aa   000000 000000          	dec 0,0,0,0
    004232  aa   000000 000000
    004233  aa   000000 000000
    004234  aa   000000 000000
                                        "	word 10	BCI catalog name
    004235  aa  336 367 274 620         	bci	".TXGO",6
                                        "	word 11	library, component
    004236  aa   000000 000000          	zero	0,0
                                        "	word 12	ss_name length
    004237  aa   000000 000004          	zero	,4
                                 2-571  " Program descriptor 185.
                                 2-572  B3XX3: PRGDES  0,0,0,0,0,0,0,
                                 2-573                 dfau,EXPCL,DFAULT,.BNSYS+.BSPO
                                        "	word 1	ss_name
                                        	qstring	dfau
    004240  aa  144 146 141 165         	aci	"dfau",4
                                        "	word 2	program_size, load_size
    004241  aa   000000 000000          	zero	0,0
                                        "	word 3	entry_point, parameters
    004242  aa   000000 011000          	zero	0,.BNSYS+.BSPO
                                        "	word 4	seek_address,initial_load_address
    004243  aa   000000 000000          	zero	0,0
                                        "	word 5	command language offset and length
    004244  aa   002035 000000          	zero	EXPCL-BASNM
                                        "	words 6-9 statistics
    004245  aa   000000 000000          	dec 0,0,0,0
    004246  aa   000000 000000
    004247  aa   000000 000000
    004250  aa   000000 000000
                                        "	word 10	BCI catalog name
    004251  aa  242 621 644 363         	bci	"DFAULT",6
                                        "	word 11	library, component
    004252  aa   000000 000000          	zero	0,0
                                        "	word 12	ss_name length
    004253  aa   000000 000004          	zero	,4
                                 2-574  "      DISCRIPTORS FOR INTERACTIVE COBOL (SPECIAL PRODUCT OFFERING)
                                 2-575  " Program descriptor 186.
                                 2-576         PRGDES  1,1,68770,1282,1282,15,0,  " Added by gtbl on 05/19/83  1801.0
                                 2-577                 cwga,EXPCL,.CSL0A,.BNSYS+.BSPO
                                        "	word 1	ss_name
                                        	qstring	cwga
    004254  aa  143 167 147 141         	aci	"cwga",4
                                        "	word 2	program_size, load_size
    004255  aa   002402 002402          	zero	1282,1282
                                        "	word 3	entry_point, parameters
    004256  aa   000017 011000          	zero	15,.BNSYS+.BSPO
                                        "	word 4	seek_address,initial_load_address
    004257  aa   206242 000000          	zero	68770,0
                                        "	word 5	command language offset and length
    004260  aa   002035 000000          	zero	EXPCL-BASNM
                                        "	words 6-9 statistics
    004261  aa   000000 000000          	dec 0,0,0,0
    004262  aa   000000 000000
    004263  aa   000000 000000
    004264  aa   000000 000000
                                        "	word 10	BCI catalog name
    004265  aa  332 362 430 021         	bci	".CSL0A",6
                                        "	word 11	library, component
    004266  aa   000001 000001          	zero	1,1
                                        "	word 12	ss_name length
    004267  aa   000000 000004          	zero	,4
                                 2-578  " Program descriptor 187.
                                 2-579         PRGDES  1,1,70064,1206,1206,15,0,  " Added by gtbl on 05/19/83  1801.0
                                 2-580                 cwgb,EXPCL,.CSL0B,.BNSYS+.BSPO
                                        "	word 1	ss_name
                                        	qstring	cwgb
    004270  aa  143 167 147 142         	aci	"cwgb",4
                                        "	word 2	program_size, load_size
    004271  aa   002266 002266          	zero	1206,1206
                                        "	word 3	entry_point, parameters
    004272  aa   000017 011000          	zero	15,.BNSYS+.BSPO
                                        "	word 4	seek_address,initial_load_address
    004273  aa   210660 000000          	zero	70064,0
                                        "	word 5	command language offset and length
    004274  aa   002035 000000          	zero	EXPCL-BASNM
                                        "	words 6-9 statistics
    004275  aa   000000 000000          	dec 0,0,0,0
    004276  aa   000000 000000
    004277  aa   000000 000000
    004300  aa   000000 000000
                                        "	word 10	BCI catalog name
    004301  aa  332 362 430 022         	bci	".CSL0B",6
                                        "	word 11	library, component
    004302  aa   000001 000001          	zero	1,1
                                        "	word 12	ss_name length
    004303  aa   000000 000004          	zero	,4
                                 2-581  " Program descriptor 188.
                                 2-582         PRGDES  1,1,71282,1068,1068,15,0,  " Added by gtbl on 05/19/83  1801.0
                                 2-583                 cwgc,EXPCL,.CSL0C,.BNSYS+.BSPO
                                        "	word 1	ss_name
                                        	qstring	cwgc
    004304  aa  143 167 147 143         	aci	"cwgc",4
                                        "	word 2	program_size, load_size
    004305  aa   002054 002054          	zero	1068,1068
                                        "	word 3	entry_point, parameters
    004306  aa   000017 011000          	zero	15,.BNSYS+.BSPO
                                        "	word 4	seek_address,initial_load_address
    004307  aa   213162 000000          	zero	71282,0
                                        "	word 5	command language offset and length
    004310  aa   002035 000000          	zero	EXPCL-BASNM
                                        "	words 6-9 statistics
    004311  aa   000000 000000          	dec 0,0,0,0
    004312  aa   000000 000000
    004313  aa   000000 000000
    004314  aa   000000 000000
                                        "	word 10	BCI catalog name
    004315  aa  332 362 430 023         	bci	".CSL0C",6
                                        "	word 11	library, component
    004316  aa   000001 000001          	zero	1,1
                                        "	word 12	ss_name length
    004317  aa   000000 000004          	zero	,4
                                 2-584  " Program descriptor 189.
                                 2-585         PRGDES  1,1,72362,1490,1490,15,0,  " Added by gtbl on 05/19/83  1801.0
                                 2-586                 cwgd,EXPCL,.CSL0D,.BNSYS+.BSPO
                                        "	word 1	ss_name
                                        	qstring	cwgd
    004320  aa  143 167 147 144         	aci	"cwgd",4
                                        "	word 2	program_size, load_size
    004321  aa   002722 002722          	zero	1490,1490
                                        "	word 3	entry_point, parameters
    004322  aa   000017 011000          	zero	15,.BNSYS+.BSPO
                                        "	word 4	seek_address,initial_load_address
    004323  aa   215252 000000          	zero	72362,0
                                        "	word 5	command language offset and length
    004324  aa   002035 000000          	zero	EXPCL-BASNM
                                        "	words 6-9 statistics
    004325  aa   000000 000000          	dec 0,0,0,0
    004326  aa   000000 000000
    004327  aa   000000 000000
    004330  aa   000000 000000
                                        "	word 10	BCI catalog name
    004331  aa  332 362 430 024         	bci	".CSL0D",6
                                        "	word 11	library, component
    004332  aa   000001 000001          	zero	1,1
                                        "	word 12	ss_name length
    004333  aa   000000 000004          	zero	,4
                                 2-587  " Program descriptor 190.
                                 2-588         PRGDES  1,1,73864,526,526,0,0,  " Added by gtbl on 05/19/83  1801.0
                                 2-589                 cwgh,EXPCL,.CSL0H,.BNSYS+.BSPO
                                        "	word 1	ss_name
                                        	qstring	cwgh
    004334  aa  143 167 147 150         	aci	"cwgh",4
                                        "	word 2	program_size, load_size
    004335  aa   001016 001016          	zero	526,526
                                        "	word 3	entry_point, parameters
    004336  aa   000000 011000          	zero	0,.BNSYS+.BSPO
                                        "	word 4	seek_address,initial_load_address
    004337  aa   220210 000000          	zero	73864,0
                                        "	word 5	command language offset and length
    004340  aa   002035 000000          	zero	EXPCL-BASNM
                                        "	words 6-9 statistics
    004341  aa   000000 000000          	dec 0,0,0,0
    004342  aa   000000 000000
    004343  aa   000000 000000
    004344  aa   000000 000000
                                        "	word 10	BCI catalog name
    004345  aa  332 362 430 030         	bci	".CSL0H",6
                                        "	word 11	library, component
    004346  aa   000001 000001          	zero	1,1
                                        "	word 12	ss_name length
    004347  aa   000000 000004          	zero	,4
                                 2-590  " Program descriptor 191.
                                 2-591         PRGDES  1,1,74402,1082,1082,18,0,  " Added by gtbl on 05/19/83  1801.0
                                 2-592                 cwgi,EXPCL,.CSL0I,.BNSYS+.BSPO
                                        "	word 1	ss_name
                                        	qstring	cwgi
    004350  aa  143 167 147 151         	aci	"cwgi",4
                                        "	word 2	program_size, load_size
    004351  aa   002072 002072          	zero	1082,1082
                                        "	word 3	entry_point, parameters
    004352  aa   000022 011000          	zero	18,.BNSYS+.BSPO
                                        "	word 4	seek_address,initial_load_address
    004353  aa   221242 000000          	zero	74402,0
                                        "	word 5	command language offset and length
    004354  aa   002035 000000          	zero	EXPCL-BASNM
                                        "	words 6-9 statistics
    004355  aa   000000 000000          	dec 0,0,0,0
    004356  aa   000000 000000
    004357  aa   000000 000000
    004360  aa   000000 000000
                                        "	word 10	BCI catalog name
    004361  aa  332 362 430 031         	bci	".CSL0I",6
                                        "	word 11	library, component
    004362  aa   000001 000001          	zero	1,1
                                        "	word 12	ss_name length
    004363  aa   000000 000004          	zero	,4
                                 2-593  "      DESCRIPTORS FOR INTERACTIVE I-D-S/II & UFAS.
                                 2-594  " Program descriptor 192.
                                 2-595  IIDS:  PRGDES  0,0,0,0,0,0,0,
                                 2-596                 iids,EXPCL,IIDS,.BSPO
                                        "	word 1	ss_name
                                        	qstring	iids
    004364  aa  151 151 144 163         	aci	"iids",4
                                        "	word 2	program_size, load_size
    004365  aa   000000 000000          	zero	0,0
                                        "	word 3	entry_point, parameters
    004366  aa   000000 010000          	zero	0,.BSPO
                                        "	word 4	seek_address,initial_load_address
    004367  aa   000000 000000          	zero	0,0
                                        "	word 5	command language offset and length
    004370  aa   002035 000000          	zero	EXPCL-BASNM
                                        "	words 6-9 statistics
    004371  aa   000000 000000          	dec 0,0,0,0
    004372  aa   000000 000000
    004373  aa   000000 000000
    004374  aa   000000 000000
                                        "	word 10	BCI catalog name
    004375  aa  313 124 622 020         	bci	"IIDS",6
                                        "	word 11	library, component
    004376  aa   000000 000000          	zero	0,0
                                        "	word 12	ss_name length
    004377  aa   000000 000004          	zero	,4
                                 2-597  " Program descriptor 193.
                                 2-598         PRGDES  0,0,0,0,0,0,0,
                                 2-599                 dbcs,EXPCL,.TSQ2A,.BNSYS+.BSPO
                                        "	word 1	ss_name
                                        	qstring	dbcs
    004400  aa  144 142 143 163         	aci	"dbcs",4
                                        "	word 2	program_size, load_size
    004401  aa   000000 000000          	zero	0,0
                                        "	word 3	entry_point, parameters
    004402  aa   000000 011000          	zero	0,.BNSYS+.BSPO
                                        "	word 4	seek_address,initial_load_address
    004403  aa   000000 000000          	zero	0,0
                                        "	word 5	command language offset and length
    004404  aa   002035 000000          	zero	EXPCL-BASNM
                                        "	words 6-9 statistics
    004405  aa   000000 000000          	dec 0,0,0,0
    004406  aa   000000 000000
    004407  aa   000000 000000
    004410  aa   000000 000000
                                        "	word 10	BCI catalog name
    004411  aa  336 362 500 221         	bci	".TSQ2A",6
                                        "	word 11	library, component
    004412  aa   000000 000000          	zero	0,0
                                        "	word 12	ss_name length
    004413  aa   000000 000004          	zero	,4
                                 2-600  " Program descriptor 194.
                                 2-601  CIDS:  PRGDES  0,0,0,0,0,0,0,
                                 2-602                 cids,EXPCL,CIDS,.BSPO
                                        "	word 1	ss_name
                                        	qstring	cids
    004414  aa  143 151 144 163         	aci	"cids",4
                                        "	word 2	program_size, load_size
    004415  aa   000000 000000          	zero	0,0
                                        "	word 3	entry_point, parameters
    004416  aa   000000 010000          	zero	0,.BSPO
                                        "	word 4	seek_address,initial_load_address
    004417  aa   000000 000000          	zero	0,0
                                        "	word 5	command language offset and length
    004420  aa   002035 000000          	zero	EXPCL-BASNM
                                        "	words 6-9 statistics
    004421  aa   000000 000000          	dec 0,0,0,0
    004422  aa   000000 000000
    004423  aa   000000 000000
    004424  aa   000000 000000
                                        "	word 10	BCI catalog name
    004425  aa  233 124 622 020         	bci	"CIDS",6
                                        "	word 11	library, component
    004426  aa   000000 000000          	zero	0,0
                                        "	word 12	ss_name length
    004427  aa   000000 000004          	zero	,4
                                 2-603  " Program descriptor 195.
                                 2-604         PRGDES  0,0,0,0,0,0,0,
                                 2-605                 coex,EXPCL,.TSQ2B,.BNSYS+.BSPO
                                        "	word 1	ss_name
                                        	qstring	coex
    004430  aa  143 157 145 170         	aci	"coex",4
                                        "	word 2	program_size, load_size
    004431  aa   000000 000000          	zero	0,0
                                        "	word 3	entry_point, parameters
    004432  aa   000000 011000          	zero	0,.BNSYS+.BSPO
                                        "	word 4	seek_address,initial_load_address
    004433  aa   000000 000000          	zero	0,0
                                        "	word 5	command language offset and length
    004434  aa   002035 000000          	zero	EXPCL-BASNM
                                        "	words 6-9 statistics
    004435  aa   000000 000000          	dec 0,0,0,0
    004436  aa   000000 000000
    004437  aa   000000 000000
    004440  aa   000000 000000
                                        "	word 10	BCI catalog name
    004441  aa  336 362 500 222         	bci	".TSQ2B",6
                                        "	word 11	library, component
    004442  aa   000000 000000          	zero	0,0
                                        "	word 12	ss_name length
    004443  aa   000000 000004          	zero	,4
                                 2-606  " Program descriptor 196.
                                 2-607         PRGDES  0,0,0,0,0,0,0,
                                 2-608                 dtco,EXPCL,.DTSCO,.BNSYS+.BSPO
                                        "	word 1	ss_name
                                        	qstring	dtco
    004444  aa  144 164 143 157         	aci	"dtco",4
                                        "	word 2	program_size, load_size
    004445  aa   000000 000000          	zero	0,0
                                        "	word 3	entry_point, parameters
    004446  aa   000000 011000          	zero	0,.BNSYS+.BSPO
                                        "	word 4	seek_address,initial_load_address
    004447  aa   000000 000000          	zero	0,0
                                        "	word 5	command language offset and length
    004450  aa   002035 000000          	zero	EXPCL-BASNM
                                        "	words 6-9 statistics
    004451  aa   000000 000000          	dec 0,0,0,0
    004452  aa   000000 000000
    004453  aa   000000 000000
    004454  aa   000000 000000
                                        "	word 10	BCI catalog name
    004455  aa  332 463 622 346         	bci	".DTSCO",6
                                        "	word 11	library, component
    004456  aa   000000 000000          	zero	0,0
                                        "	word 12	ss_name length
    004457  aa   000000 000004          	zero	,4
                                 2-609  " Program descriptor 197.
                                 2-610         PRGDES  0,0,0,0,0,0,0,
                                 2-611                 dtuf,EXPCL,.DTSUF,.BNSYS+.BSPO
                                        "	word 1	ss_name
                                        	qstring	dtuf
    004460  aa  144 164 165 146         	aci	"dtuf",4
                                        "	word 2	program_size, load_size
    004461  aa   000000 000000          	zero	0,0
                                        "	word 3	entry_point, parameters
    004462  aa   000000 011000          	zero	0,.BNSYS+.BSPO
                                        "	word 4	seek_address,initial_load_address
    004463  aa   000000 000000          	zero	0,0
                                        "	word 5	command language offset and length
    004464  aa   002035 000000          	zero	EXPCL-BASNM
                                        "	words 6-9 statistics
    004465  aa   000000 000000          	dec 0,0,0,0
    004466  aa   000000 000000
    004467  aa   000000 000000
    004470  aa   000000 000000
                                        "	word 10	BCI catalog name
    004471  aa  332 463 626 426         	bci	".DTSUF",6
                                        "	word 11	library, component
    004472  aa   000000 000000          	zero	0,0
                                        "	word 12	ss_name length
    004473  aa   000000 000004          	zero	,4
                                 2-612  " Program descriptor 198.
                                 2-613         PRGDES  0,0,0,0,0,0,0,
                                 2-614                 dtab,EXPCL,.DTSAB,.BNSYS+.BSPO
                                        "	word 1	ss_name
                                        	qstring	dtab
    004474  aa  144 164 141 142         	aci	"dtab",4
                                        "	word 2	program_size, load_size
    004475  aa   000000 000000          	zero	0,0
                                        "	word 3	entry_point, parameters
    004476  aa   000000 011000          	zero	0,.BNSYS+.BSPO
                                        "	word 4	seek_address,initial_load_address
    004477  aa   000000 000000          	zero	0,0
                                        "	word 5	command language offset and length
    004500  aa   002035 000000          	zero	EXPCL-BASNM
                                        "	words 6-9 statistics
    004501  aa   000000 000000          	dec 0,0,0,0
    004502  aa   000000 000000
    004503  aa   000000 000000
    004504  aa   000000 000000
                                        "	word 10	BCI catalog name
    004505  aa  332 463 622 122         	bci	".DTSAB",6
                                        "	word 11	library, component
    004506  aa   000000 000000          	zero	0,0
                                        "	word 12	ss_name length
    004507  aa   000000 000004          	zero	,4
                                 2-615  " Program descriptor 199.
                                 2-616         PRGDES  0,0,0,0,0,0,0,
                                 2-617                 dtgf,EXPCL,.DTSGF,.BNSYS+.BSPO
                                        "	word 1	ss_name
                                        	qstring	dtgf
    004510  aa  144 164 147 146         	aci	"dtgf",4
                                        "	word 2	program_size, load_size
    004511  aa   000000 000000          	zero	0,0
                                        "	word 3	entry_point, parameters
    004512  aa   000000 011000          	zero	0,.BNSYS+.BSPO
                                        "	word 4	seek_address,initial_load_address
    004513  aa   000000 000000          	zero	0,0
                                        "	word 5	command language offset and length
    004514  aa   002035 000000          	zero	EXPCL-BASNM
                                        "	words 6-9 statistics
    004515  aa   000000 000000          	dec 0,0,0,0
    004516  aa   000000 000000
    004517  aa   000000 000000
    004520  aa   000000 000000
                                        "	word 10	BCI catalog name
    004521  aa  332 463 622 726         	bci	".DTSGF",6
                                        "	word 11	library, component
    004522  aa   000000 000000          	zero	0,0
                                        "	word 12	ss_name length
    004523  aa   000000 000004          	zero	,4
                                 2-618  " Program descriptor 200.
                                 2-619         PRGDES  0,0,0,0,0,0,0,
                                 2-620                 dtls,EXPCL,.DTSLS,.BNSYS+.BSPO
                                        "	word 1	ss_name
                                        	qstring	dtls
    004524  aa  144 164 154 163         	aci	"dtls",4
                                        "	word 2	program_size, load_size
    004525  aa   000000 000000          	zero	0,0
                                        "	word 3	entry_point, parameters
    004526  aa   000000 011000          	zero	0,.BNSYS+.BSPO
                                        "	word 4	seek_address,initial_load_address
    004527  aa   000000 000000          	zero	0,0
                                        "	word 5	command language offset and length
    004530  aa   002035 000000          	zero	EXPCL-BASNM
                                        "	words 6-9 statistics
    004531  aa   000000 000000          	dec 0,0,0,0
    004532  aa   000000 000000
    004533  aa   000000 000000
    004534  aa   000000 000000
                                        "	word 10	BCI catalog name
    004535  aa  332 463 624 362         	bci	".DTSLS",6
                                        "	word 11	library, component
    004536  aa   000000 000000          	zero	0,0
                                        "	word 12	ss_name length
    004537  aa   000000 000004          	zero	,4
                                 2-621  " Program descriptor 201.
                                 2-622  DXEC:  PRGDES  1,0,215798,13070,10342,4978,2728,  " Added by gtbl on 05/19/83  1759.5
                                 2-623                 dxut,EXPCL,.TSQJ2,.BNSYS+.BSPO                           TSSA0TKD
                                        "	word 1	ss_name
                                        	qstring	dxut
    004540  aa  144 170 165 164         	aci	"dxut",4
                                        "	word 2	program_size, load_size
    004541  aa   031416 024146          	zero	13070,10342
                                        "	word 3	entry_point, parameters
    004542  aa   011562 011000          	zero	4978,.BNSYS+.BSPO
                                        "	word 4	seek_address,initial_load_address
    004543  aa   645366 005250          	zero	215798,2728
                                        "	word 5	command language offset and length
    004544  aa   002035 000000          	zero	EXPCL-BASNM
                                        "	words 6-9 statistics
    004545  aa   000000 000000          	dec 0,0,0,0
    004546  aa   000000 000000
    004547  aa   000000 000000
    004550  aa   000000 000000
                                        "	word 10	BCI catalog name
    004551  aa  336 362 504 102         	bci	".TSQJ2",6
                                        "	word 11	library, component
    004552  aa   000001 000000          	zero	1,0
                                        "	word 12	ss_name length
    004553  aa   000000 000004          	zero	,4
                                 2-624  "      DESCRIPTORS FOR TSS UFAS.
                                 2-625  " Program descriptor 202.
                                 2-626         PRGDES  1,1,52816,1140,1140,20,0,  " Added by gtbl on 05/19/83  1801.0
                                 2-627                 daft,EXPCL,DAFT.1,.BNSYS
                                        "	word 1	ss_name
                                        	qstring	daft
    004554  aa  144 141 146 164         	aci	"daft",4
                                        "	word 2	program_size, load_size
    004555  aa   002164 002164          	zero	1140,1140
                                        "	word 3	entry_point, parameters
    004556  aa   000024 001000          	zero	20,.BNSYS
                                        "	word 4	seek_address,initial_load_address
    004557  aa   147120 000000          	zero	52816,0
                                        "	word 5	command language offset and length
    004560  aa   002035 000000          	zero	EXPCL-BASNM
                                        "	words 6-9 statistics
    004561  aa   000000 000000          	dec 0,0,0,0
    004562  aa   000000 000000
    004563  aa   000000 000000
    004564  aa   000000 000000
                                        "	word 10	BCI catalog name
    004565  aa  242 126 633 301         	bci	"DAFT.1",6
                                        "	word 11	library, component
    004566  aa   000001 000001          	zero	1,1
                                        "	word 12	ss_name length
    004567  aa   000000 000004          	zero	,4
                                 2-628  " Program descriptor 203.
                                 2-629         PRGDES  1,1,53968,1406,1406,28,0,  " Added by gtbl on 05/19/83  1801.0
                                 2-630                 dopn,EXPCL,DOPN.1,.BNSYS
                                        "	word 1	ss_name
                                        	qstring	dopn
    004570  aa  144 157 160 156         	aci	"dopn",4
                                        "	word 2	program_size, load_size
    004571  aa   002576 002576          	zero	1406,1406
                                        "	word 3	entry_point, parameters
    004572  aa   000034 001000          	zero	28,.BNSYS
                                        "	word 4	seek_address,initial_load_address
    004573  aa   151320 000000          	zero	53968,0
                                        "	word 5	command language offset and length
    004574  aa   002035 000000          	zero	EXPCL-BASNM
                                        "	words 6-9 statistics
    004575  aa   000000 000000          	dec 0,0,0,0
    004576  aa   000000 000000
    004577  aa   000000 000000
    004600  aa   000000 000000
                                        "	word 10	BCI catalog name
    004601  aa  244 647 453 301         	bci	"DOPN.1",6
                                        "	word 11	library, component
    004602  aa   000001 000001          	zero	1,1
                                        "	word 12	ss_name length
    004603  aa   000000 000004          	zero	,4
                                 2-631  " Program descriptor 204.
                                 2-632         PRGDES  1,1,55465,1424,1424,20,0,  " Added by gtbl on 05/19/83  1801.0
                                 2-633                 dufs,EXPCL,DUFS.1,.BNSYS
                                        "	word 1	ss_name
                                        	qstring	dufs
    004604  aa  144 165 146 163         	aci	"dufs",4
                                        "	word 2	program_size, load_size
    004605  aa   002620 002620          	zero	1424,1424
                                        "	word 3	entry_point, parameters
    004606  aa   000024 001000          	zero	20,.BNSYS
                                        "	word 4	seek_address,initial_load_address
    004607  aa   154251 000000          	zero	55465,0
                                        "	word 5	command language offset and length
    004610  aa   002035 000000          	zero	EXPCL-BASNM
                                        "	words 6-9 statistics
    004611  aa   000000 000000          	dec 0,0,0,0
    004612  aa   000000 000000
    004613  aa   000000 000000
    004614  aa   000000 000000
                                        "	word 10	BCI catalog name
    004615  aa  246 426 623 301         	bci	"DUFS.1",6
                                        "	word 11	library, component
    004616  aa   000001 000001          	zero	1,1
                                        "	word 12	ss_name length
    004617  aa   000000 000004          	zero	,4
                                 2-634  " Program descriptor 205.
                                 2-635         PRGDES  1,1,56981,606,606,20,0,  " Added by gtbl on 05/19/83  1801.0
                                 2-636                 drps,EXPCL,DRPS.1,.BNSYS
                                        "	word 1	ss_name
                                        	qstring	drps
    004620  aa  144 162 160 163         	aci	"drps",4
                                        "	word 2	program_size, load_size
    004621  aa   001136 001136          	zero	606,606
                                        "	word 3	entry_point, parameters
    004622  aa   000024 001000          	zero	20,.BNSYS
                                        "	word 4	seek_address,initial_load_address
    004623  aa   157225 000000          	zero	56981,0
                                        "	word 5	command language offset and length
    004624  aa   002035 000000          	zero	EXPCL-BASNM
                                        "	words 6-9 statistics
    004625  aa   000000 000000          	dec 0,0,0,0
    004626  aa   000000 000000
    004627  aa   000000 000000
    004630  aa   000000 000000
                                        "	word 10	BCI catalog name
    004631  aa  245 147 623 301         	bci	"DRPS.1",6
                                        "	word 11	library, component
    004632  aa   000001 000001          	zero	1,1
                                        "	word 12	ss_name length
    004633  aa   000000 000004          	zero	,4
                                 2-637  " Program descriptor 206.
                                 2-638         PRGDES  1,1,57633,882,882,20,0,  " Added by gtbl on 05/19/83  1801.0
                                 2-639                 dabf,EXPCL,DABF.1,.BNSYS
                                        "	word 1	ss_name
                                        	qstring	dabf
    004634  aa  144 141 142 146         	aci	"dabf",4
                                        "	word 2	program_size, load_size
    004635  aa   001562 001562          	zero	882,882
                                        "	word 3	entry_point, parameters
    004636  aa   000024 001000          	zero	20,.BNSYS
                                        "	word 4	seek_address,initial_load_address
    004637  aa   160441 000000          	zero	57633,0
                                        "	word 5	command language offset and length
    004640  aa   002035 000000          	zero	EXPCL-BASNM
                                        "	words 6-9 statistics
    004641  aa   000000 000000          	dec 0,0,0,0
    004642  aa   000000 000000
    004643  aa   000000 000000
    004644  aa   000000 000000
                                        "	word 10	BCI catalog name
    004645  aa  242 122 263 301         	bci	"DABF.1",6
                                        "	word 11	library, component
    004646  aa   000001 000001          	zero	1,1
                                        "	word 12	ss_name length
    004647  aa   000000 000004          	zero	,4
                                 2-640  " Program descriptor 207.
                                 2-641         PRGDES  1,1,58527,802,802,20,0,  " Added by gtbl on 05/19/83  1801.0
                                 2-642                 dacl,EXPCL,DACL.1,.BNSYS
                                        "	word 1	ss_name
                                        	qstring	dacl
    004650  aa  144 141 143 154         	aci	"dacl",4
                                        "	word 2	program_size, load_size
    004651  aa   001442 001442          	zero	802,802
                                        "	word 3	entry_point, parameters
    004652  aa   000024 001000          	zero	20,.BNSYS
                                        "	word 4	seek_address,initial_load_address
    004653  aa   162237 000000          	zero	58527,0
                                        "	word 5	command language offset and length
    004654  aa   002035 000000          	zero	EXPCL-BASNM
                                        "	words 6-9 statistics
    004655  aa   000000 000000          	dec 0,0,0,0
    004656  aa   000000 000000
    004657  aa   000000 000000
    004660  aa   000000 000000
                                        "	word 10	BCI catalog name
    004661  aa  242 123 433 301         	bci	"DACL.1",6
                                        "	word 11	library, component
    004662  aa   000001 000001          	zero	1,1
                                        "	word 12	ss_name length
    004663  aa   000000 000004          	zero	,4
                                 2-643  " Program descriptor 208.
                                 2-644         PRGDES  1,1,59341,1486,1486,0,0,  " Added by gtbl on 05/19/83  1801.0
                                 2-645                 dabr,EXPCL,DABR.1,.BNSYS
                                        "	word 1	ss_name
                                        	qstring	dabr
    004664  aa  144 141 142 162         	aci	"dabr",4
                                        "	word 2	program_size, load_size
    004665  aa   002716 002716          	zero	1486,1486
                                        "	word 3	entry_point, parameters
    004666  aa   000000 001000          	zero	0,.BNSYS
                                        "	word 4	seek_address,initial_load_address
    004667  aa   163715 000000          	zero	59341,0
                                        "	word 5	command language offset and length
    004670  aa   002035 000000          	zero	EXPCL-BASNM
                                        "	words 6-9 statistics
    004671  aa   000000 000000          	dec 0,0,0,0
    004672  aa   000000 000000
    004673  aa   000000 000000
    004674  aa   000000 000000
                                        "	word 10	BCI catalog name
    004675  aa  242 122 513 301         	bci	"DABR.1",6
                                        "	word 11	library, component
    004676  aa   000001 000001          	zero	1,1
                                        "	word 12	ss_name length
    004677  aa   000000 000004          	zero	,4
                                 2-646  " Program descriptor 209.
                                 2-647         PRGDES  1,1,39321,980,908,72,72,  " Added by gtbl on 05/19/83  1759.5
                                 2-648                 scaf,EXPCL,LSCAF,.BNSYS
                                        "	word 1	ss_name
                                        	qstring	scaf
    004700  aa  163 143 141 146         	aci	"scaf",4
                                        "	word 2	program_size, load_size
    004701  aa   001724 001614          	zero	980,908
                                        "	word 3	entry_point, parameters
    004702  aa   000110 001000          	zero	72,.BNSYS
                                        "	word 4	seek_address,initial_load_address
    004703  aa   114631 000110          	zero	39321,72
                                        "	word 5	command language offset and length
    004704  aa   002035 000000          	zero	EXPCL-BASNM
                                        "	words 6-9 statistics
    004705  aa   000000 000000          	dec 0,0,0,0
    004706  aa   000000 000000
    004707  aa   000000 000000
    004710  aa   000000 000000
                                        "	word 10	BCI catalog name
    004711  aa  436 223 212 620         	bci	"LSCAF",6
                                        "	word 11	library, component
    004712  aa   000001 000001          	zero	1,1
                                        "	word 12	ss_name length
    004713  aa   000000 000004          	zero	,4
                                 2-649  " Program descriptor 210.
                                 2-650         PRGDES  1,0,82309,968,896,72,72,  " Added by gtbl on 05/19/83  1759.5
                                 2-651                 gtfl,EXPCL,LGTFL,.BNSYS
                                        "	word 1	ss_name
                                        	qstring	gtfl
    004714  aa  147 164 146 154         	aci	"gtfl",4
                                        "	word 2	program_size, load_size
    004715  aa   001710 001600          	zero	968,896
                                        "	word 3	entry_point, parameters
    004716  aa   000110 001000          	zero	72,.BNSYS
                                        "	word 4	seek_address,initial_load_address
    004717  aa   240605 000110          	zero	82309,72
                                        "	word 5	command language offset and length
    004720  aa   002035 000000          	zero	EXPCL-BASNM
                                        "	words 6-9 statistics
    004721  aa   000000 000000          	dec 0,0,0,0
    004722  aa   000000 000000
    004723  aa   000000 000000
    004724  aa   000000 000000
                                        "	word 10	BCI catalog name
    004725  aa  432 763 264 320         	bci	"LGTFL",6
                                        "	word 11	library, component
    004726  aa   000001 000000          	zero	1,0
                                        "	word 12	ss_name length
    004727  aa   000000 000004          	zero	,4
                                 2-652  " Program descriptor 211.
                                 2-653         PRGDES  1,0,83217,200,128,72,72,  " Added by gtbl on 05/19/83  1759.5
                                 2-654                 rtfl,EXPCL,LRTFL,.BNSYS
                                        "	word 1	ss_name
                                        	qstring	rtfl
    004730  aa  162 164 146 154         	aci	"rtfl",4
                                        "	word 2	program_size, load_size
    004731  aa   000310 000200          	zero	200,128
                                        "	word 3	entry_point, parameters
    004732  aa   000110 001000          	zero	72,.BNSYS
                                        "	word 4	seek_address,initial_load_address
    004733  aa   242421 000110          	zero	83217,72
                                        "	word 5	command language offset and length
    004734  aa   002035 000000          	zero	EXPCL-BASNM
                                        "	words 6-9 statistics
    004735  aa   000000 000000          	dec 0,0,0,0
    004736  aa   000000 000000
    004737  aa   000000 000000
    004740  aa   000000 000000
                                        "	word 10	BCI catalog name
    004741  aa  435 163 264 320         	bci	"LRTFL",6
                                        "	word 11	library, component
    004742  aa   000001 000000          	zero	1,0
                                        "	word 12	ss_name length
    004743  aa   000000 000004          	zero	,4
                                 2-655  "              DESCRIPTOR FOR COBOL-74
                                 2-656  " Program descriptor 212.
                                 2-657  COBL74:PRGDES  0,0,0,0,0,0,0,
                                 2-658                 crn,EXPCL,.TSC74,.BSPO+.BEXEC
                                        "	word 1	ss_name
                                        	qstring	crn
    004744  aa  143 162 156 040         	aci	"crn",4
                                        "	word 2	program_size, load_size
    004745  aa   000000 000000          	zero	0,0
                                        "	word 3	entry_point, parameters
    004746  aa   000000 010200          	zero	0,.BSPO+.BEXEC
                                        "	word 4	seek_address,initial_load_address
    004747  aa   000000 000000          	zero	0,0
                                        "	word 5	command language offset and length
    004750  aa   002035 000000          	zero	EXPCL-BASNM
                                        "	words 6-9 statistics
    004751  aa   000000 000000          	dec 0,0,0,0
    004752  aa   000000 000000
    004753  aa   000000 000000
    004754  aa   000000 000000
                                        "	word 10	BCI catalog name
    004755  aa  336 362 230 704         	bci	".TSC74",6
                                        "	word 11	library, component
    004756  aa   000000 000000          	zero	0,0
                                        "	word 12	ss_name length
    004757  aa   000000 000003          	zero	,3
                                 2-659  " Program descriptor 213.
                                 2-660  BRN:   PRGDES  1,0,83360,13476,13240,387,236,  " Added by gtbl on 05/19/83  1759.5
                                 2-661                 brn,BRNCL,.TSBAS,.BEXEC,BASY
                                        "	word 1	ss_name
                                        	qstring	brn
    004760  aa  142 162 156 040         	aci	"brn",4
                                        "	word 2	program_size, load_size
    004761  aa   032244 031670          	zero	13476,13240
                                        "	word 3	entry_point, parameters
    004762  aa   000603 000200          	zero	387,.BEXEC
                                        "	word 4	seek_address,initial_load_address
    004763  aa   242640 000354          	zero	83360,236
                                        "	word 5	command language offset and length
    004764  aa   000575 000000          	zero	BRNCL-BASNM
                                        "	words 6-9 statistics
    004765  aa   000000 000000          	dec 0,0,0,0
    004766  aa   000000 000000
    004767  aa   000000 000000
    004770  aa   000000 000000
                                        "	word 10	BCI catalog name
    004771  aa  336 362 222 162         	bci	".TSBAS",6
                                        "	word 11	library, component
    004772  aa   000001 000000          	zero	1,0
                                        "	word 12	ss_name length
    004773  aa   000000 000003          	zero	,3
                                 2-662  " Program descriptor 214.
                                 2-663  sevenFOR:  PRGDES  0,0,0,0,0,0,0,
                                 2-664                 7for,EXPCL,.T7RNY,.BEXEC+.BSPO  FORT77                   TSSA0RGW
                                        "	word 1	ss_name
                                        	qstring	7for
    004774  aa  067 146 157 162         	aci	"7for",4
                                        "	word 2	program_size, load_size
    004775  aa   000000 000000          	zero	0,0
                                        "	word 3	entry_point, parameters
    004776  aa   000000 010200          	zero	0,.BEXEC+.BSPO
                                        "	word 4	seek_address,initial_load_address
    004777  aa   000000 000000          	zero	0,0
                                        "	word 5	command language offset and length
    005000  aa   002035 000000          	zero	EXPCL-BASNM
                                        "	words 6-9 statistics
    005001  aa   000000 000000          	dec 0,0,0,0
    005002  aa   000000 000000
    005003  aa   000000 000000
    005004  aa   000000 000000
                                        "	word 10	BCI catalog name
    005005  aa  336 307 514 570         	bci	".T7RNY",6
                                        "	word 11	library, component
    005006  aa   000000 000000          	zero	0,0
                                        "	word 12	ss_name length
    005007  aa   000000 000004          	zero	,4
                                 2-665  " Program descriptor 215.
                                 2-666  FR7T:  PRGDES  0,0,0,0,0,0,0,
                                 2-667                 fr7t,FR7TCL,.T7RNY,.BEXEC+.BSPO,7FOR  FORT77 (TSS)       TSSA0RGW
                                        "	word 1	ss_name
                                        	qstring	fr7t
    005010  aa  146 162 067 164         	aci	"fr7t",4
                                        "	word 2	program_size, load_size
    005011  aa   000000 000000          	zero	0,0
                                        "	word 3	entry_point, parameters
    005012  aa   000000 010200          	zero	0,.BEXEC+.BSPO
                                        "	word 4	seek_address,initial_load_address
    005013  aa   000000 000000          	zero	0,0
                                        "	word 5	command language offset and length
    005014  aa   000622 000000          	zero	FR7TCL-BASNM
                                        "	words 6-9 statistics
    005015  aa   000000 000000          	dec 0,0,0,0
    005016  aa   000000 000000
    005017  aa   000000 000000
    005020  aa   000000 000000
                                        "	word 10	BCI catalog name
    005021  aa  336 307 514 570         	bci	".T7RNY",6
                                        "	word 11	library, component
    005022  aa   000000 000000          	zero	0,0
                                        "	word 12	ss_name length
    005023  aa   000000 000004          	zero	,4
                                 2-668  " Program descriptor 216.
                                 2-669  FR7:   PRGDES  0,0,0,0,0,0,0,
                                 2-670                 fr7,FR7CL,.T7RNY,.BEXEC+.BSPO,7FOR  FORT77 (TASK)        TSSA0RGW
                                        "	word 1	ss_name
                                        	qstring	fr7
    005024  aa  146 162 067 040         	aci	"fr7",4
                                        "	word 2	program_size, load_size
    005025  aa   000000 000000          	zero	0,0
                                        "	word 3	entry_point, parameters
    005026  aa   000000 010200          	zero	0,.BEXEC+.BSPO
                                        "	word 4	seek_address,initial_load_address
    005027  aa   000000 000000          	zero	0,0
                                        "	word 5	command language offset and length
    005030  aa   000612 000000          	zero	FR7CL-BASNM
                                        "	words 6-9 statistics
    005031  aa   000000 000000          	dec 0,0,0,0
    005032  aa   000000 000000
    005033  aa   000000 000000
    005034  aa   000000 000000
                                        "	word 10	BCI catalog name
    005035  aa  336 307 514 570         	bci	".T7RNY",6
                                        "	word 11	library, component
    005036  aa   000000 000000          	zero	0,0
                                        "	word 12	ss_name length
    005037  aa   000000 000003          	zero	,3
                                 2-671  " Program descriptor 217.
                                 2-672  FRN:   PRGDES  1,1,22187,4938,4830,109,108,  " Added by gtbl on 05/19/83  1759.5
                                 2-673                 frn,FRNCL,.TSRNY,.BEXEC,RUNY
                                        "	word 1	ss_name
                                        	qstring	frn
    005040  aa  146 162 156 040         	aci	"frn",4
                                        "	word 2	program_size, load_size
    005041  aa   011512 011336          	zero	4938,4830
                                        "	word 3	entry_point, parameters
    005042  aa   000155 000200          	zero	109,.BEXEC
                                        "	word 4	seek_address,initial_load_address
    005043  aa   053253 000154          	zero	22187,108
                                        "	word 5	command language offset and length
    005044  aa   000602 000000          	zero	FRNCL-BASNM
                                        "	words 6-9 statistics
    005045  aa   000000 000000          	dec 0,0,0,0
    005046  aa   000000 000000
    005047  aa   000000 000000
    005050  aa   000000 000000
                                        "	word 10	BCI catalog name
    005051  aa  336 362 514 570         	bci	".TSRNY",6
                                        "	word 11	library, component
    005052  aa   000001 000001          	zero	1,1
                                        "	word 12	ss_name length
    005053  aa   000000 000003          	zero	,3
                                 2-674  " Program descriptor 218.
                                 2-675  BSEQ:  PRGDES  1,1,5106,4890,4788,1772,102,  " Added by gtbl on 05/19/83  1759.5
                                 2-676                 bseq,BSQCL,.TSRSQ,,RESE
                                        "	word 1	ss_name
                                        	qstring	bseq
    005054  aa  142 163 145 161         	aci	"bseq",4
                                        "	word 2	program_size, load_size
    005055  aa   011432 011264          	zero	4890,4788
                                        "	word 3	entry_point, parameters
    005056  aa   003354 000000          	zero	1772,
                                        "	word 4	seek_address,initial_load_address
    005057  aa   011762 000146          	zero	5106,102
                                        "	word 5	command language offset and length
    005060  aa   000632 000000          	zero	BSQCL-BASNM
                                        "	words 6-9 statistics
    005061  aa   000000 000000          	dec 0,0,0,0
    005062  aa   000000 000000
    005063  aa   000000 000000
    005064  aa   000000 000000
                                        "	word 10	BCI catalog name
    005065  aa  336 362 516 250         	bci	".TSRSQ",6
                                        "	word 11	library, component
    005066  aa   000001 000001          	zero	1,1
                                        "	word 12	ss_name length
    005067  aa   000000 000004          	zero	,4
                                 2-677  " Program descriptor 219.
                                 2-678  SEQU:  PRGDES  1,1,5106,4890,4788,1772,102,  " Added by gtbl on 05/19/83  1759.5
                                 2-679                 sequ,SEQCL,.TSRSQ,,RESE
                                        "	word 1	ss_name
                                        	qstring	sequ
    005070  aa  163 145 161 165         	aci	"sequ",4
                                        "	word 2	program_size, load_size
    005071  aa   011432 011264          	zero	4890,4788
                                        "	word 3	entry_point, parameters
    005072  aa   003354 000000          	zero	1772,
                                        "	word 4	seek_address,initial_load_address
    005073  aa   011762 000146          	zero	5106,102
                                        "	word 5	command language offset and length
    005074  aa   000637 000000          	zero	SEQCL-BASNM
                                        "	words 6-9 statistics
    005075  aa   000000 000000          	dec 0,0,0,0
    005076  aa   000000 000000
    005077  aa   000000 000000
    005100  aa   000000 000000
                                        "	word 10	BCI catalog name
    005101  aa  336 362 516 250         	bci	".TSRSQ",6
                                        "	word 11	library, component
    005102  aa   000001 000001          	zero	1,1
                                        "	word 12	ss_name length
    005103  aa   000000 000004          	zero	,4
                                 2-680  " Program descriptor 220.
                                 2-681  DBU:   PRGDES  0,0,0,0,0,0,0,
                                 2-682                 dbu,EXPCL,DBU,.BSPO                                      TSSA4M8U
                                        "	word 1	ss_name
                                        	qstring	dbu
    005104  aa  144 142 165 040         	aci	"dbu",4
                                        "	word 2	program_size, load_size
    005105  aa   000000 000000          	zero	0,0
                                        "	word 3	entry_point, parameters
    005106  aa   000000 010000          	zero	0,.BSPO
                                        "	word 4	seek_address,initial_load_address
    005107  aa   000000 000000          	zero	0,0
                                        "	word 5	command language offset and length
    005110  aa   002035 000000          	zero	EXPCL-BASNM
                                        "	words 6-9 statistics
    005111  aa   000000 000000          	dec 0,0,0,0
    005112  aa   000000 000000
    005113  aa   000000 000000
    005114  aa   000000 000000
                                        "	word 10	BCI catalog name
    005115  aa  242 264 202 020         	bci	"DBU",6
                                        "	word 11	library, component
    005116  aa   000000 000000          	zero	0,0
                                        "	word 12	ss_name length
    005117  aa   000000 000003          	zero	,3
                                 2-683  " Program descriptor 221.
                                 2-684         PRGDES  0,0,0,0,0,0,0,
                                 2-685                 dbua,EXPCL,DBUA,.BNSYS+.BSPO                             TSSA4M8U
                                        "	word 1	ss_name
                                        	qstring	dbua
    005120  aa  144 142 165 141         	aci	"dbua",4
                                        "	word 2	program_size, load_size
    005121  aa   000000 000000          	zero	0,0
                                        "	word 3	entry_point, parameters
    005122  aa   000000 011000          	zero	0,.BNSYS+.BSPO
                                        "	word 4	seek_address,initial_load_address
    005123  aa   000000 000000          	zero	0,0
                                        "	word 5	command language offset and length
    005124  aa   002035 000000          	zero	EXPCL-BASNM
                                        "	words 6-9 statistics
    005125  aa   000000 000000          	dec 0,0,0,0
    005126  aa   000000 000000
    005127  aa   000000 000000
    005130  aa   000000 000000
                                        "	word 10	BCI catalog name
    005131  aa  242 264 212 020         	bci	"DBUA",6
                                        "	word 11	library, component
    005132  aa   000000 000000          	zero	0,0
                                        "	word 12	ss_name length
    005133  aa   000000 000004          	zero	,4
                                 2-686  " Program descriptor 222.
                                 2-687         PRGDES  0,0,0,0,0,0,0,
                                 2-688                 dbub,EXPCL,DBUB,.BNSYS+.BSPO                             TSSA4M8U
                                        "	word 1	ss_name
                                        	qstring	dbub
    005134  aa  144 142 165 142         	aci	"dbub",4
                                        "	word 2	program_size, load_size
    005135  aa   000000 000000          	zero	0,0
                                        "	word 3	entry_point, parameters
    005136  aa   000000 011000          	zero	0,.BNSYS+.BSPO
                                        "	word 4	seek_address,initial_load_address
    005137  aa   000000 000000          	zero	0,0
                                        "	word 5	command language offset and length
    005140  aa   002035 000000          	zero	EXPCL-BASNM
                                        "	words 6-9 statistics
    005141  aa   000000 000000          	dec 0,0,0,0
    005142  aa   000000 000000
    005143  aa   000000 000000
    005144  aa   000000 000000
                                        "	word 10	BCI catalog name
    005145  aa  242 264 222 020         	bci	"DBUB",6
                                        "	word 11	library, component
    005146  aa   000000 000000          	zero	0,0
                                        "	word 12	ss_name length
    005147  aa   000000 000004          	zero	,4
                                 2-689  " Program descriptor 223.
                                 2-690         PRGDES  0,0,0,0,0,0,0,
                                 2-691                 dbuc,EXPCL,DBUC,.BNSYS+.BSPO                             TSSA4M8U
                                        "	word 1	ss_name
                                        	qstring	dbuc
    005150  aa  144 142 165 143         	aci	"dbuc",4
                                        "	word 2	program_size, load_size
    005151  aa   000000 000000          	zero	0,0
                                        "	word 3	entry_point, parameters
    005152  aa   000000 011000          	zero	0,.BNSYS+.BSPO
                                        "	word 4	seek_address,initial_load_address
    005153  aa   000000 000000          	zero	0,0
                                        "	word 5	command language offset and length
    005154  aa   002035 000000          	zero	EXPCL-BASNM
                                        "	words 6-9 statistics
    005155  aa   000000 000000          	dec 0,0,0,0
    005156  aa   000000 000000
    005157  aa   000000 000000
    005160  aa   000000 000000
                                        "	word 10	BCI catalog name
    005161  aa  242 264 232 020         	bci	"DBUC",6
                                        "	word 11	library, component
    005162  aa   000000 000000          	zero	0,0
                                        "	word 12	ss_name length
    005163  aa   000000 000004          	zero	,4
                                 2-692  " Program descriptor 224.
                                 2-693         PRGDES  0,0,0,0,0,0,0,
                                 2-694                 dbud,EXPCL,DBUD,.BNSYS+.BSPO                             TSSA4M8U
                                        "	word 1	ss_name
                                        	qstring	dbud
    005164  aa  144 142 165 144         	aci	"dbud",4
                                        "	word 2	program_size, load_size
    005165  aa   000000 000000          	zero	0,0
                                        "	word 3	entry_point, parameters
    005166  aa   000000 011000          	zero	0,.BNSYS+.BSPO
                                        "	word 4	seek_address,initial_load_address
    005167  aa   000000 000000          	zero	0,0
                                        "	word 5	command language offset and length
    005170  aa   002035 000000          	zero	EXPCL-BASNM
                                        "	words 6-9 statistics
    005171  aa   000000 000000          	dec 0,0,0,0
    005172  aa   000000 000000
    005173  aa   000000 000000
    005174  aa   000000 000000
                                        "	word 10	BCI catalog name
    005175  aa  242 264 242 020         	bci	"DBUD",6
                                        "	word 11	library, component
    005176  aa   000000 000000          	zero	0,0
                                        "	word 12	ss_name length
    005177  aa   000000 000004          	zero	,4
                                 2-695  " Program descriptor 225.
                                 2-696         PRGDES  0,0,0,0,0,0,0,
                                 2-697                 dbue,EXPCL,DBUE,.BNSYS+.BSPO                             TSSA4M8U
                                        "	word 1	ss_name
                                        	qstring	dbue
    005200  aa  144 142 165 145         	aci	"dbue",4
                                        "	word 2	program_size, load_size
    005201  aa   000000 000000          	zero	0,0
                                        "	word 3	entry_point, parameters
    005202  aa   000000 011000          	zero	0,.BNSYS+.BSPO
                                        "	word 4	seek_address,initial_load_address
    005203  aa   000000 000000          	zero	0,0
                                        "	word 5	command language offset and length
    005204  aa   002035 000000          	zero	EXPCL-BASNM
                                        "	words 6-9 statistics
    005205  aa   000000 000000          	dec 0,0,0,0
    005206  aa   000000 000000
    005207  aa   000000 000000
    005210  aa   000000 000000
                                        "	word 10	BCI catalog name
    005211  aa  242 264 252 020         	bci	"DBUE",6
                                        "	word 11	library, component
    005212  aa   000000 000000          	zero	0,0
                                        "	word 12	ss_name length
    005213  aa   000000 000004          	zero	,4
                                 2-698  " Program descriptor 226.
                                 2-699         PRGDES  0,0,0,0,0,0,0,
                                 2-700                 dbuf,EXPCL,DBUF,.BNSYS+.BSPO                             TSSA4M8U
                                        "	word 1	ss_name
                                        	qstring	dbuf
    005214  aa  144 142 165 146         	aci	"dbuf",4
                                        "	word 2	program_size, load_size
    005215  aa   000000 000000          	zero	0,0
                                        "	word 3	entry_point, parameters
    005216  aa   000000 011000          	zero	0,.BNSYS+.BSPO
                                        "	word 4	seek_address,initial_load_address
    005217  aa   000000 000000          	zero	0,0
                                        "	word 5	command language offset and length
    005220  aa   002035 000000          	zero	EXPCL-BASNM
                                        "	words 6-9 statistics
    005221  aa   000000 000000          	dec 0,0,0,0
    005222  aa   000000 000000
    005223  aa   000000 000000
    005224  aa   000000 000000
                                        "	word 10	BCI catalog name
    005225  aa  242 264 262 020         	bci	"DBUF",6
                                        "	word 11	library, component
    005226  aa   000000 000000          	zero	0,0
                                        "	word 12	ss_name length
    005227  aa   000000 000004          	zero	,4
                                 2-701  " Program descriptor 227.
                                 2-702         PRGDES  0,0,0,0,0,0,0,
                                 2-703                 dbug,EXPCL,DBUG,.BNSYS+.BSPO                             TSSA4M8U
                                        "	word 1	ss_name
                                        	qstring	dbug
    005230  aa  144 142 165 147         	aci	"dbug",4
                                        "	word 2	program_size, load_size
    005231  aa   000000 000000          	zero	0,0
                                        "	word 3	entry_point, parameters
    005232  aa   000000 011000          	zero	0,.BNSYS+.BSPO
                                        "	word 4	seek_address,initial_load_address
    005233  aa   000000 000000          	zero	0,0
                                        "	word 5	command language offset and length
    005234  aa   002035 000000          	zero	EXPCL-BASNM
                                        "	words 6-9 statistics
    005235  aa   000000 000000          	dec 0,0,0,0
    005236  aa   000000 000000
    005237  aa   000000 000000
    005240  aa   000000 000000
                                        "	word 10	BCI catalog name
    005241  aa  242 264 272 020         	bci	"DBUG",6
                                        "	word 11	library, component
    005242  aa   000000 000000          	zero	0,0
                                        "	word 12	ss_name length
    005243  aa   000000 000004          	zero	,4
                                 2-704  " Program descriptor 228.
                                 2-705         PRGDES  0,0,0,0,0,0,0,
                                 2-706                 dbuh,EXPCL,DBUH,.BNSYS+.BSPO                             TSSA4M8U
                                        "	word 1	ss_name
                                        	qstring	dbuh
    005244  aa  144 142 165 150         	aci	"dbuh",4
                                        "	word 2	program_size, load_size
    005245  aa   000000 000000          	zero	0,0
                                        "	word 3	entry_point, parameters
    005246  aa   000000 011000          	zero	0,.BNSYS+.BSPO
                                        "	word 4	seek_address,initial_load_address
    005247  aa   000000 000000          	zero	0,0
                                        "	word 5	command language offset and length
    005250  aa   002035 000000          	zero	EXPCL-BASNM
                                        "	words 6-9 statistics
    005251  aa   000000 000000          	dec 0,0,0,0
    005252  aa   000000 000000
    005253  aa   000000 000000
    005254  aa   000000 000000
                                        "	word 10	BCI catalog name
    005255  aa  242 264 302 020         	bci	"DBUH",6
                                        "	word 11	library, component
    005256  aa   000000 000000          	zero	0,0
                                        "	word 12	ss_name length
    005257  aa   000000 000004          	zero	,4
                                 2-707  " Program descriptor 229.
                                 2-708         PRGDES  0,0,0,0,0,0,0,
                                 2-709                 dbui,EXPCL,DBUI,.BNSYS+.BSPO                             TSSA4M8U
                                        "	word 1	ss_name
                                        	qstring	dbui
    005260  aa  144 142 165 151         	aci	"dbui",4
                                        "	word 2	program_size, load_size
    005261  aa   000000 000000          	zero	0,0
                                        "	word 3	entry_point, parameters
    005262  aa   000000 011000          	zero	0,.BNSYS+.BSPO
                                        "	word 4	seek_address,initial_load_address
    005263  aa   000000 000000          	zero	0,0
                                        "	word 5	command language offset and length
    005264  aa   002035 000000          	zero	EXPCL-BASNM
                                        "	words 6-9 statistics
    005265  aa   000000 000000          	dec 0,0,0,0
    005266  aa   000000 000000
    005267  aa   000000 000000
    005270  aa   000000 000000
                                        "	word 10	BCI catalog name
    005271  aa  242 264 312 020         	bci	"DBUI",6
                                        "	word 11	library, component
    005272  aa   000000 000000          	zero	0,0
                                        "	word 12	ss_name length
    005273  aa   000000 000004          	zero	,4
                                 2-710  " Program descriptor 230.
                                 2-711         PRGDES  0,0,0,0,0,0,0,
                                 2-712                 dbuj,EXPCL,DBUJ,.BNSYS+.BSPO                             TSSA4M8U
                                        "	word 1	ss_name
                                        	qstring	dbuj
    005274  aa  144 142 165 152         	aci	"dbuj",4
                                        "	word 2	program_size, load_size
    005275  aa   000000 000000          	zero	0,0
                                        "	word 3	entry_point, parameters
    005276  aa   000000 011000          	zero	0,.BNSYS+.BSPO
                                        "	word 4	seek_address,initial_load_address
    005277  aa   000000 000000          	zero	0,0
                                        "	word 5	command language offset and length
    005300  aa   002035 000000          	zero	EXPCL-BASNM
                                        "	words 6-9 statistics
    005301  aa   000000 000000          	dec 0,0,0,0
    005302  aa   000000 000000
    005303  aa   000000 000000
    005304  aa   000000 000000
                                        "	word 10	BCI catalog name
    005305  aa  242 264 412 020         	bci	"DBUJ",6
                                        "	word 11	library, component
    005306  aa   000000 000000          	zero	0,0
                                        "	word 12	ss_name length
    005307  aa   000000 000004          	zero	,4
                                 2-713  " Program descriptor 231.
                                 2-714         PRGDES  0,0,0,0,0,0,0,
                                 2-715                 dbuk,EXPCL,DBUK,.BNSYS+.BSPO                             TSSA4M8U
                                        "	word 1	ss_name
                                        	qstring	dbuk
    005310  aa  144 142 165 153         	aci	"dbuk",4
                                        "	word 2	program_size, load_size
    005311  aa   000000 000000          	zero	0,0
                                        "	word 3	entry_point, parameters
    005312  aa   000000 011000          	zero	0,.BNSYS+.BSPO
                                        "	word 4	seek_address,initial_load_address
    005313  aa   000000 000000          	zero	0,0
                                        "	word 5	command language offset and length
    005314  aa   002035 000000          	zero	EXPCL-BASNM
                                        "	words 6-9 statistics
    005315  aa   000000 000000          	dec 0,0,0,0
    005316  aa   000000 000000
    005317  aa   000000 000000
    005320  aa   000000 000000
                                        "	word 10	BCI catalog name
    005321  aa  242 264 422 020         	bci	"DBUK",6
                                        "	word 11	library, component
    005322  aa   000000 000000          	zero	0,0
                                        "	word 12	ss_name length
    005323  aa   000000 000004          	zero	,4
                                 2-716  " Program descriptor 232.
                                 2-717         PRGDES  0,0,0,0,0,0,0,
                                 2-718                 dbul,EXPCL,DBUL,.BNSYS+.BSPO                             TSSA4M8U
                                        "	word 1	ss_name
                                        	qstring	dbul
    005324  aa  144 142 165 154         	aci	"dbul",4
                                        "	word 2	program_size, load_size
    005325  aa   000000 000000          	zero	0,0
                                        "	word 3	entry_point, parameters
    005326  aa   000000 011000          	zero	0,.BNSYS+.BSPO
                                        "	word 4	seek_address,initial_load_address
    005327  aa   000000 000000          	zero	0,0
                                        "	word 5	command language offset and length
    005330  aa   002035 000000          	zero	EXPCL-BASNM
                                        "	words 6-9 statistics
    005331  aa   000000 000000          	dec 0,0,0,0
    005332  aa   000000 000000
    005333  aa   000000 000000
    005334  aa   000000 000000
                                        "	word 10	BCI catalog name
    005335  aa  242 264 432 020         	bci	"DBUL",6
                                        "	word 11	library, component
    005336  aa   000000 000000          	zero	0,0
                                        "	word 12	ss_name length
    005337  aa   000000 000004          	zero	,4
                                 2-719  " Program descriptor 233.
                                 2-720         PRGDES  0,0,0,0,0,0,0,
                                 2-721                 dbum,EXPCL,DBUM,.BNSYS+.BSPO                             TSSA4M8U
                                        "	word 1	ss_name
                                        	qstring	dbum
    005340  aa  144 142 165 155         	aci	"dbum",4
                                        "	word 2	program_size, load_size
    005341  aa   000000 000000          	zero	0,0
                                        "	word 3	entry_point, parameters
    005342  aa   000000 011000          	zero	0,.BNSYS+.BSPO
                                        "	word 4	seek_address,initial_load_address
    005343  aa   000000 000000          	zero	0,0
                                        "	word 5	command language offset and length
    005344  aa   002035 000000          	zero	EXPCL-BASNM
                                        "	words 6-9 statistics
    005345  aa   000000 000000          	dec 0,0,0,0
    005346  aa   000000 000000
    005347  aa   000000 000000
    005350  aa   000000 000000
                                        "	word 10	BCI catalog name
    005351  aa  242 264 442 020         	bci	"DBUM",6
                                        "	word 11	library, component
    005352  aa   000000 000000          	zero	0,0
                                        "	word 12	ss_name length
    005353  aa   000000 000004          	zero	,4
                                 2-722  " Program descriptor 234.
                                 2-723         PRGDES  0,0,0,0,0,0,0,
                                 2-724                 dbun,EXPCL,DBUN,.BNSYS+.BSPO                             TSSA4M8U
                                        "	word 1	ss_name
                                        	qstring	dbun
    005354  aa  144 142 165 156         	aci	"dbun",4
                                        "	word 2	program_size, load_size
    005355  aa   000000 000000          	zero	0,0
                                        "	word 3	entry_point, parameters
    005356  aa   000000 011000          	zero	0,.BNSYS+.BSPO
                                        "	word 4	seek_address,initial_load_address
    005357  aa   000000 000000          	zero	0,0
                                        "	word 5	command language offset and length
    005360  aa   002035 000000          	zero	EXPCL-BASNM
                                        "	words 6-9 statistics
    005361  aa   000000 000000          	dec 0,0,0,0
    005362  aa   000000 000000
    005363  aa   000000 000000
    005364  aa   000000 000000
                                        "	word 10	BCI catalog name
    005365  aa  242 264 452 020         	bci	"DBUN",6
                                        "	word 11	library, component
    005366  aa   000000 000000          	zero	0,0
                                        "	word 12	ss_name length
    005367  aa   000000 000004          	zero	,4
                                 2-725  " Program descriptor 235.
                                 2-726         PRGDES  0,0,0,0,0,0,0,
                                 2-727                 dbuo,EXPCL,DBUO,.BNSYS+.BSPO                             TSSA4M8U
                                        "	word 1	ss_name
                                        	qstring	dbuo
    005370  aa  144 142 165 157         	aci	"dbuo",4
                                        "	word 2	program_size, load_size
    005371  aa   000000 000000          	zero	0,0
                                        "	word 3	entry_point, parameters
    005372  aa   000000 011000          	zero	0,.BNSYS+.BSPO
                                        "	word 4	seek_address,initial_load_address
    005373  aa   000000 000000          	zero	0,0
                                        "	word 5	command language offset and length
    005374  aa   002035 000000          	zero	EXPCL-BASNM
                                        "	words 6-9 statistics
    005375  aa   000000 000000          	dec 0,0,0,0
    005376  aa   000000 000000
    005377  aa   000000 000000
    005400  aa   000000 000000
                                        "	word 10	BCI catalog name
    005401  aa  242 264 462 020         	bci	"DBUO",6
                                        "	word 11	library, component
    005402  aa   000000 000000          	zero	0,0
                                        "	word 12	ss_name length
    005403  aa   000000 000004          	zero	,4
                                 2-728  " Program descriptor 236.
                                 2-729         PRGDES  0,0,0,0,0,0,0,
                                 2-730                 dbup,EXPCL,DBUP,.BNSYS+.BSPO                             TSSA4M8U
                                        "	word 1	ss_name
                                        	qstring	dbup
    005404  aa  144 142 165 160         	aci	"dbup",4
                                        "	word 2	program_size, load_size
    005405  aa   000000 000000          	zero	0,0
                                        "	word 3	entry_point, parameters
    005406  aa   000000 011000          	zero	0,.BNSYS+.BSPO
                                        "	word 4	seek_address,initial_load_address
    005407  aa   000000 000000          	zero	0,0
                                        "	word 5	command language offset and length
    005410  aa   002035 000000          	zero	EXPCL-BASNM
                                        "	words 6-9 statistics
    005411  aa   000000 000000          	dec 0,0,0,0
    005412  aa   000000 000000
    005413  aa   000000 000000
    005414  aa   000000 000000
                                        "	word 10	BCI catalog name
    005415  aa  242 264 472 020         	bci	"DBUP",6
                                        "	word 11	library, component
    005416  aa   000000 000000          	zero	0,0
                                        "	word 12	ss_name length
    005417  aa   000000 000004          	zero	,4
                                 2-731  " Program descriptor 237.
                                 2-732         PRGDES  0,0,0,0,0,0,0,
                                 2-733                 dbuq,EXPCL,DBUQ,.BNSYS+.BSPO                             TSSA4M8U
                                        "	word 1	ss_name
                                        	qstring	dbuq
    005420  aa  144 142 165 161         	aci	"dbuq",4
                                        "	word 2	program_size, load_size
    005421  aa   000000 000000          	zero	0,0
                                        "	word 3	entry_point, parameters
    005422  aa   000000 011000          	zero	0,.BNSYS+.BSPO
                                        "	word 4	seek_address,initial_load_address
    005423  aa   000000 000000          	zero	0,0
                                        "	word 5	command language offset and length
    005424  aa   002035 000000          	zero	EXPCL-BASNM
                                        "	words 6-9 statistics
    005425  aa   000000 000000          	dec 0,0,0,0
    005426  aa   000000 000000
    005427  aa   000000 000000
    005430  aa   000000 000000
                                        "	word 10	BCI catalog name
    005431  aa  242 264 502 020         	bci	"DBUQ",6
                                        "	word 11	library, component
    005432  aa   000000 000000          	zero	0,0
                                        "	word 12	ss_name length
    005433  aa   000000 000004          	zero	,4
                                 2-734  " Program descriptor 238.
                                 2-735         PRGDES  0,0,0,0,0,0,0,
                                 2-736                 dbur,EXPCL,DBUR,.BNSYS+.BSPO                             TSSA4M8U
                                        "	word 1	ss_name
                                        	qstring	dbur
    005434  aa  144 142 165 162         	aci	"dbur",4
                                        "	word 2	program_size, load_size
    005435  aa   000000 000000          	zero	0,0
                                        "	word 3	entry_point, parameters
    005436  aa   000000 011000          	zero	0,.BNSYS+.BSPO
                                        "	word 4	seek_address,initial_load_address
    005437  aa   000000 000000          	zero	0,0
                                        "	word 5	command language offset and length
    005440  aa   002035 000000          	zero	EXPCL-BASNM
                                        "	words 6-9 statistics
    005441  aa   000000 000000          	dec 0,0,0,0
    005442  aa   000000 000000
    005443  aa   000000 000000
    005444  aa   000000 000000
                                        "	word 10	BCI catalog name
    005445  aa  242 264 512 020         	bci	"DBUR",6
                                        "	word 11	library, component
    005446  aa   000000 000000          	zero	0,0
                                        "	word 12	ss_name length
    005447  aa   000000 000004          	zero	,4
                                 2-737  " Program descriptor 239.
                                 2-738         PRGDES  0,0,0,0,0,0,0,
                                 2-739                 dbus,EXPCL,DBUS,.BNSYS+.BSPO                             TSSA4M8U
                                        "	word 1	ss_name
                                        	qstring	dbus
    005450  aa  144 142 165 163         	aci	"dbus",4
                                        "	word 2	program_size, load_size
    005451  aa   000000 000000          	zero	0,0
                                        "	word 3	entry_point, parameters
    005452  aa   000000 011000          	zero	0,.BNSYS+.BSPO
                                        "	word 4	seek_address,initial_load_address
    005453  aa   000000 000000          	zero	0,0
                                        "	word 5	command language offset and length
    005454  aa   002035 000000          	zero	EXPCL-BASNM
                                        "	words 6-9 statistics
    005455  aa   000000 000000          	dec 0,0,0,0
    005456  aa   000000 000000
    005457  aa   000000 000000
    005460  aa   000000 000000
                                        "	word 10	BCI catalog name
    005461  aa  242 264 622 020         	bci	"DBUS",6
                                        "	word 11	library, component
    005462  aa   000000 000000          	zero	0,0
                                        "	word 12	ss_name length
    005463  aa   000000 000004          	zero	,4
                                 2-740  " Program descriptor 240.
                                 2-741         PRGDES  0,0,0,0,0,0,0,
                                 2-742                 dbut,EXPCL,DBUT,.BNSYS+.BSPO                             TSSA4M8U
                                        "	word 1	ss_name
                                        	qstring	dbut
    005464  aa  144 142 165 164         	aci	"dbut",4
                                        "	word 2	program_size, load_size
    005465  aa   000000 000000          	zero	0,0
                                        "	word 3	entry_point, parameters
    005466  aa   000000 011000          	zero	0,.BNSYS+.BSPO
                                        "	word 4	seek_address,initial_load_address
    005467  aa   000000 000000          	zero	0,0
                                        "	word 5	command language offset and length
    005470  aa   002035 000000          	zero	EXPCL-BASNM
                                        "	words 6-9 statistics
    005471  aa   000000 000000          	dec 0,0,0,0
    005472  aa   000000 000000
    005473  aa   000000 000000
    005474  aa   000000 000000
                                        "	word 10	BCI catalog name
    005475  aa  242 264 632 020         	bci	"DBUT",6
                                        "	word 11	library, component
    005476  aa   000000 000000          	zero	0,0
                                        "	word 12	ss_name length
    005477  aa   000000 000004          	zero	,4
                                 2-743  " Program descriptor 241.
                                 2-744         PRGDES  0,0,0,0,0,0,0,
                                 2-745                 dbuu,EXPCL,DBUU,.BNSYS+.BSPO                             TSSA4M8U
                                        "	word 1	ss_name
                                        	qstring	dbuu
    005500  aa  144 142 165 165         	aci	"dbuu",4
                                        "	word 2	program_size, load_size
    005501  aa   000000 000000          	zero	0,0
                                        "	word 3	entry_point, parameters
    005502  aa   000000 011000          	zero	0,.BNSYS+.BSPO
                                        "	word 4	seek_address,initial_load_address
    005503  aa   000000 000000          	zero	0,0
                                        "	word 5	command language offset and length
    005504  aa   002035 000000          	zero	EXPCL-BASNM
                                        "	words 6-9 statistics
    005505  aa   000000 000000          	dec 0,0,0,0
    005506  aa   000000 000000
    005507  aa   000000 000000
    005510  aa   000000 000000
                                        "	word 10	BCI catalog name
    005511  aa  242 264 642 020         	bci	"DBUU",6
                                        "	word 11	library, component
    005512  aa   000000 000000          	zero	0,0
                                        "	word 12	ss_name length
    005513  aa   000000 000004          	zero	,4
                                 2-746  " Program descriptor 242.
                                 2-747         PRGDES  0,0,0,0,0,0,0,
                                 2-748                 dbuv,EXPCL,DBUV,.BNSYS+.BSPO                             TSSA4M8U
                                        "	word 1	ss_name
                                        	qstring	dbuv
    005514  aa  144 142 165 166         	aci	"dbuv",4
                                        "	word 2	program_size, load_size
    005515  aa   000000 000000          	zero	0,0
                                        "	word 3	entry_point, parameters
    005516  aa   000000 011000          	zero	0,.BNSYS+.BSPO
                                        "	word 4	seek_address,initial_load_address
    005517  aa   000000 000000          	zero	0,0
                                        "	word 5	command language offset and length
    005520  aa   002035 000000          	zero	EXPCL-BASNM
                                        "	words 6-9 statistics
    005521  aa   000000 000000          	dec 0,0,0,0
    005522  aa   000000 000000
    005523  aa   000000 000000
    005524  aa   000000 000000
                                        "	word 10	BCI catalog name
    005525  aa  242 264 652 020         	bci	"DBUV",6
                                        "	word 11	library, component
    005526  aa   000000 000000          	zero	0,0
                                        "	word 12	ss_name length
    005527  aa   000000 000004          	zero	,4
                                 2-749  " Program descriptor 243.
                                 2-750         PRGDES  0,0,0,0,0,0,0,
                                 2-751                 dbuw,EXPCL,DBUW,.BNSYS+.BSPO                             TSSA4M8U
                                        "	word 1	ss_name
                                        	qstring	dbuw
    005530  aa  144 142 165 167         	aci	"dbuw",4
                                        "	word 2	program_size, load_size
    005531  aa   000000 000000          	zero	0,0
                                        "	word 3	entry_point, parameters
    005532  aa   000000 011000          	zero	0,.BNSYS+.BSPO
                                        "	word 4	seek_address,initial_load_address
    005533  aa   000000 000000          	zero	0,0
                                        "	word 5	command language offset and length
    005534  aa   002035 000000          	zero	EXPCL-BASNM
                                        "	words 6-9 statistics
    005535  aa   000000 000000          	dec 0,0,0,0
    005536  aa   000000 000000
    005537  aa   000000 000000
    005540  aa   000000 000000
                                        "	word 10	BCI catalog name
    005541  aa  242 264 662 020         	bci	"DBUW",6
                                        "	word 11	library, component
    005542  aa   000000 000000          	zero	0,0
                                        "	word 12	ss_name length
    005543  aa   000000 000004          	zero	,4
                                 2-752  " Program descriptor 244.
                                 2-753         PRGDES  0,0,0,0,0,0,0,
                                 2-754                 dbux,EXPCL,DBUX,.BNSYS+.BSPO                             TSSA4M8U
                                        "	word 1	ss_name
                                        	qstring	dbux
    005544  aa  144 142 165 170         	aci	"dbux",4
                                        "	word 2	program_size, load_size
    005545  aa   000000 000000          	zero	0,0
                                        "	word 3	entry_point, parameters
    005546  aa   000000 011000          	zero	0,.BNSYS+.BSPO
                                        "	word 4	seek_address,initial_load_address
    005547  aa   000000 000000          	zero	0,0
                                        "	word 5	command language offset and length
    005550  aa   002035 000000          	zero	EXPCL-BASNM
                                        "	words 6-9 statistics
    005551  aa   000000 000000          	dec 0,0,0,0
    005552  aa   000000 000000
    005553  aa   000000 000000
    005554  aa   000000 000000
                                        "	word 10	BCI catalog name
    005555  aa  242 264 672 020         	bci	"DBUX",6
                                        "	word 11	library, component
    005556  aa   000000 000000          	zero	0,0
                                        "	word 12	ss_name length
    005557  aa   000000 000004          	zero	,4
                                 2-755  " Program descriptor 245.
                                 2-756         PRGDES  0,0,0,0,0,0,0,
                                 2-757                 dbuy,EXPCL,DBUY,.BNSYS+.BSPO                             TSSA4M8U
                                        "	word 1	ss_name
                                        	qstring	dbuy
    005560  aa  144 142 165 171         	aci	"dbuy",4
                                        "	word 2	program_size, load_size
    005561  aa   000000 000000          	zero	0,0
                                        "	word 3	entry_point, parameters
    005562  aa   000000 011000          	zero	0,.BNSYS+.BSPO
                                        "	word 4	seek_address,initial_load_address
    005563  aa   000000 000000          	zero	0,0
                                        "	word 5	command language offset and length
    005564  aa   002035 000000          	zero	EXPCL-BASNM
                                        "	words 6-9 statistics
    005565  aa   000000 000000          	dec 0,0,0,0
    005566  aa   000000 000000
    005567  aa   000000 000000
    005570  aa   000000 000000
                                        "	word 10	BCI catalog name
    005571  aa  242 264 702 020         	bci	"DBUY",6
                                        "	word 11	library, component
    005572  aa   000000 000000          	zero	0,0
                                        "	word 12	ss_name length
    005573  aa   000000 000004          	zero	,4
                                 2-758  " Program descriptor 246.
                                 2-759         PRGDES  0,0,0,0,0,0,0,
                                 2-760                 dbuz,EXPCL,DBUZ,.BNSYS+.BSPO                             TSSA4M8U
                                        "	word 1	ss_name
                                        	qstring	dbuz
    005574  aa  144 142 165 172         	aci	"dbuz",4
                                        "	word 2	program_size, load_size
    005575  aa   000000 000000          	zero	0,0
                                        "	word 3	entry_point, parameters
    005576  aa   000000 011000          	zero	0,.BNSYS+.BSPO
                                        "	word 4	seek_address,initial_load_address
    005577  aa   000000 000000          	zero	0,0
                                        "	word 5	command language offset and length
    005600  aa   002035 000000          	zero	EXPCL-BASNM
                                        "	words 6-9 statistics
    005601  aa   000000 000000          	dec 0,0,0,0
    005602  aa   000000 000000
    005603  aa   000000 000000
    005604  aa   000000 000000
                                        "	word 10	BCI catalog name
    005605  aa  242 264 712 020         	bci	"DBUZ",6
                                        "	word 11	library, component
    005606  aa   000000 000000          	zero	0,0
                                        "	word 12	ss_name length
    005607  aa   000000 000004          	zero	,4
                                 2-761  "              DESCRIPTORS FOR ASCII MDQ  DMIV
                                 2-762  " Program descriptor 247.
                                 2-763  DMIV:  PRGDES  0,0,0,0,0,0,0,
                                 2-764                 dmiv,(AMDCL,15),,.BCMCL
                                        "	word 1	ss_name
                                        	qstring	dmiv
    005610  aa  144 155 151 166         	aci	"dmiv",4
                                        "	word 2	program_size, load_size
    005611  aa   000000 000000          	zero	0,0
                                        "	word 3	entry_point, parameters
    005612  aa   000000 000020          	zero	0,.BCMCL
                                        "	word 4	seek_address,initial_load_address
    005613  aa   000000 000000          	zero	0,0
                                        "	word 5	command language offset and length
    005614  aa   001670 000017          	zero	AMDCL-BASNM,15
                                        "	words 6-9 statistics
    005615  aa   000000 000000          	dec 0,0,0,0
    005616  aa   000000 000000
    005617  aa   000000 000000
    005620  aa   000000 000000
                                        "	word 10	BCI catalog name
    005621  aa   000000 000000          	zero
                                        "	word 11	library, component
    005622  aa   000000 000000          	zero	0,0
                                        "	word 12	ss_name length
    005623  aa   000000 000004          	zero	,4
                                 2-765  " Program descriptor 248.
                                 2-766  MDRUN: PRGDES  0,0,0,0,0,0,0,
                                 2-767                 mdru,EXPCL,.TXIA,.BNSYS+.BSPO+.BSPSZ
                                        "	word 1	ss_name
                                        	qstring	mdru
    005624  aa  155 144 162 165         	aci	"mdru",4
                                        "	word 2	program_size, load_size
    005625  aa   000000 000000          	zero	0,0
                                        "	word 3	entry_point, parameters
    005626  aa   000000 111000          	zero	0,.BNSYS+.BSPO+.BSPSZ
                                        "	word 4	seek_address,initial_load_address
    005627  aa   000000 000000          	zero	0,0
                                        "	word 5	command language offset and length
    005630  aa   002035 000000          	zero	EXPCL-BASNM
                                        "	words 6-9 statistics
    005631  aa   000000 000000          	dec 0,0,0,0
    005632  aa   000000 000000
    005633  aa   000000 000000
    005634  aa   000000 000000
                                        "	word 10	BCI catalog name
    005635  aa  336 367 312 120         	bci	".TXIA",6
                                        "	word 11	library, component
    005636  aa   000000 000000          	zero	0,0
                                        "	word 12	ss_name length
    005637  aa   000000 000004          	zero	,4
                                 2-768  " Program descriptor 249.
                                 2-769         PRGDES  0,0,0,0,0,0,0,
                                 2-770                 mdp2,EXPCL,ASYN2,.BNSYS+.BSPO
                                        "	word 1	ss_name
                                        	qstring	mdp2
    005640  aa  155 144 160 062         	aci	"mdp2",4
                                        "	word 2	program_size, load_size
    005641  aa   000000 000000          	zero	0,0
                                        "	word 3	entry_point, parameters
    005642  aa   000000 011000          	zero	0,.BNSYS+.BSPO
                                        "	word 4	seek_address,initial_load_address
    005643  aa   000000 000000          	zero	0,0
                                        "	word 5	command language offset and length
    005644  aa   002035 000000          	zero	EXPCL-BASNM
                                        "	words 6-9 statistics
    005645  aa   000000 000000          	dec 0,0,0,0
    005646  aa   000000 000000
    005647  aa   000000 000000
    005650  aa   000000 000000
                                        "	word 10	BCI catalog name
    005651  aa  216 270 450 220         	bci	"ASYN2",6
                                        "	word 11	library, component
    005652  aa   000000 000000          	zero	0,0
                                        "	word 12	ss_name length
    005653  aa   000000 000004          	zero	,4
                                 2-771  " Program descriptor 250.
                                 2-772         PRGDES  0,0,0,0,0,0,0,
                                 2-773                 mdp3,EXPCL,ASYN3,.BNSYS+.BSPO
                                        "	word 1	ss_name
                                        	qstring	mdp3
    005654  aa  155 144 160 063         	aci	"mdp3",4
                                        "	word 2	program_size, load_size
    005655  aa   000000 000000          	zero	0,0
                                        "	word 3	entry_point, parameters
    005656  aa   000000 011000          	zero	0,.BNSYS+.BSPO
                                        "	word 4	seek_address,initial_load_address
    005657  aa   000000 000000          	zero	0,0
                                        "	word 5	command language offset and length
    005660  aa   002035 000000          	zero	EXPCL-BASNM
                                        "	words 6-9 statistics
    005661  aa   000000 000000          	dec 0,0,0,0
    005662  aa   000000 000000
    005663  aa   000000 000000
    005664  aa   000000 000000
                                        "	word 10	BCI catalog name
    005665  aa  216 270 450 320         	bci	"ASYN3",6
                                        "	word 11	library, component
    005666  aa   000000 000000          	zero	0,0
                                        "	word 12	ss_name length
    005667  aa   000000 000004          	zero	,4
                                 2-774  " Program descriptor 251.
                                 2-775         PRGDES  0,0,0,0,0,0,0,
                                 2-776                 mdp4,EXPCL,ASYN4,.BNSYS+.BSPO
                                        "	word 1	ss_name
                                        	qstring	mdp4
    005670  aa  155 144 160 064         	aci	"mdp4",4
                                        "	word 2	program_size, load_size
    005671  aa   000000 000000          	zero	0,0
                                        "	word 3	entry_point, parameters
    005672  aa   000000 011000          	zero	0,.BNSYS+.BSPO
                                        "	word 4	seek_address,initial_load_address
    005673  aa   000000 000000          	zero	0,0
                                        "	word 5	command language offset and length
    005674  aa   002035 000000          	zero	EXPCL-BASNM
                                        "	words 6-9 statistics
    005675  aa   000000 000000          	dec 0,0,0,0
    005676  aa   000000 000000
    005677  aa   000000 000000
    005700  aa   000000 000000
                                        "	word 10	BCI catalog name
    005701  aa  216 270 450 420         	bci	"ASYN4",6
                                        "	word 11	library, component
    005702  aa   000000 000000          	zero	0,0
                                        "	word 12	ss_name length
    005703  aa   000000 000004          	zero	,4
                                 2-777  " Program descriptor 252.
                                 2-778         PRGDES  0,0,0,0,0,0,0,
                                 2-779                 mdp5,EXPCL,ASYN5,.BNSYS+.BSPO
                                        "	word 1	ss_name
                                        	qstring	mdp5
    005704  aa  155 144 160 065         	aci	"mdp5",4
                                        "	word 2	program_size, load_size
    005705  aa   000000 000000          	zero	0,0
                                        "	word 3	entry_point, parameters
    005706  aa   000000 011000          	zero	0,.BNSYS+.BSPO
                                        "	word 4	seek_address,initial_load_address
    005707  aa   000000 000000          	zero	0,0
                                        "	word 5	command language offset and length
    005710  aa   002035 000000          	zero	EXPCL-BASNM
                                        "	words 6-9 statistics
    005711  aa   000000 000000          	dec 0,0,0,0
    005712  aa   000000 000000
    005713  aa   000000 000000
    005714  aa   000000 000000
                                        "	word 10	BCI catalog name
    005715  aa  216 270 450 520         	bci	"ASYN5",6
                                        "	word 11	library, component
    005716  aa   000000 000000          	zero	0,0
                                        "	word 12	ss_name length
    005717  aa   000000 000004          	zero	,4
                                 2-780  " Program descriptor 253.
                                 2-781         PRGDES  0,0,0,0,0,0,0,
                                 2-782                 mdpg,EXPCL,ASYNG,.BNSYS+.BSPO
                                        "	word 1	ss_name
                                        	qstring	mdpg
    005720  aa  155 144 160 147         	aci	"mdpg",4
                                        "	word 2	program_size, load_size
    005721  aa   000000 000000          	zero	0,0
                                        "	word 3	entry_point, parameters
    005722  aa   000000 011000          	zero	0,.BNSYS+.BSPO
                                        "	word 4	seek_address,initial_load_address
    005723  aa   000000 000000          	zero	0,0
                                        "	word 5	command language offset and length
    005724  aa   002035 000000          	zero	EXPCL-BASNM
                                        "	words 6-9 statistics
    005725  aa   000000 000000          	dec 0,0,0,0
    005726  aa   000000 000000
    005727  aa   000000 000000
    005730  aa   000000 000000
                                        "	word 10	BCI catalog name
    005731  aa  216 270 452 720         	bci	"ASYNG",6
                                        "	word 11	library, component
    005732  aa   000000 000000          	zero	0,0
                                        "	word 12	ss_name length
    005733  aa   000000 000004          	zero	,4
                                 2-783  " Program descriptor 254.
                                 2-784         PRGDES  0,0,0,0,0,0,0,
                                 2-785                 mdpq,EXPCL,ASYNQ,.BNSYS+.BSPO
                                        "	word 1	ss_name
                                        	qstring	mdpq
    005734  aa  155 144 160 161         	aci	"mdpq",4
                                        "	word 2	program_size, load_size
    005735  aa   000000 000000          	zero	0,0
                                        "	word 3	entry_point, parameters
    005736  aa   000000 011000          	zero	0,.BNSYS+.BSPO
                                        "	word 4	seek_address,initial_load_address
    005737  aa   000000 000000          	zero	0,0
                                        "	word 5	command language offset and length
    005740  aa   002035 000000          	zero	EXPCL-BASNM
                                        "	words 6-9 statistics
    005741  aa   000000 000000          	dec 0,0,0,0
    005742  aa   000000 000000
    005743  aa   000000 000000
    005744  aa   000000 000000
                                        "	word 10	BCI catalog name
    005745  aa  216 270 455 020         	bci	"ASYNQ",6
                                        "	word 11	library, component
    005746  aa   000000 000000          	zero	0,0
                                        "	word 12	ss_name length
    005747  aa   000000 000004          	zero	,4
                                 2-786  " Program descriptor 255.
                                 2-787  ATZCK: PRGDES  0,0,0,0,0,0,0,
                                 2-788                 mdpc,EXPCL,.TXJA,.BNSYS+.BSPO
                                        "	word 1	ss_name
                                        	qstring	mdpc
    005750  aa  155 144 160 143         	aci	"mdpc",4
                                        "	word 2	program_size, load_size
    005751  aa   000000 000000          	zero	0,0
                                        "	word 3	entry_point, parameters
    005752  aa   000000 011000          	zero	0,.BNSYS+.BSPO
                                        "	word 4	seek_address,initial_load_address
    005753  aa   000000 000000          	zero	0,0
                                        "	word 5	command language offset and length
    005754  aa   002035 000000          	zero	EXPCL-BASNM
                                        "	words 6-9 statistics
    005755  aa   000000 000000          	dec 0,0,0,0
    005756  aa   000000 000000
    005757  aa   000000 000000
    005760  aa   000000 000000
                                        "	word 10	BCI catalog name
    005761  aa  336 367 412 120         	bci	".TXJA",6
                                        "	word 11	library, component
    005762  aa   000000 000000          	zero	0,0
                                        "	word 12	ss_name length
    005763  aa   000000 000004          	zero	,4
                                 2-789  " Program descriptor 256.
                                 2-790  MDPER: PRGDES  0,0,0,0,0,0,0,
                                 2-791                 .dm0,EXPCL,.TXIM,.BSPO
                                        "	word 1	ss_name
                                        	qstring	.dm0
    005764  aa  056 144 155 060         	aci	".dm0",4
                                        "	word 2	program_size, load_size
    005765  aa   000000 000000          	zero	0,0
                                        "	word 3	entry_point, parameters
    005766  aa   000000 010000          	zero	0,.BSPO
                                        "	word 4	seek_address,initial_load_address
    005767  aa   000000 000000          	zero	0,0
                                        "	word 5	command language offset and length
    005770  aa   002035 000000          	zero	EXPCL-BASNM
                                        "	words 6-9 statistics
    005771  aa   000000 000000          	dec 0,0,0,0
    005772  aa   000000 000000
    005773  aa   000000 000000
    005774  aa   000000 000000
                                        "	word 10	BCI catalog name
    005775  aa  336 367 314 420         	bci	".TXIM",6
                                        "	word 11	library, component
    005776  aa   000000 000000          	zero	0,0
                                        "	word 12	ss_name length
    005777  aa   000000 000004          	zero	,4
                                 2-792  " Program descriptor 257.
                                 2-793  MDTUT: PRGDES  0,0,0,0,0,0,0,
                                 2-794                 .dm1,EXPCL,.TXIQ,.BNSYS+.BSPO
                                        "	word 1	ss_name
                                        	qstring	.dm1
    006000  aa  056 144 155 061         	aci	".dm1",4
                                        "	word 2	program_size, load_size
    006001  aa   000000 000000          	zero	0,0
                                        "	word 3	entry_point, parameters
    006002  aa   000000 011000          	zero	0,.BNSYS+.BSPO
                                        "	word 4	seek_address,initial_load_address
    006003  aa   000000 000000          	zero	0,0
                                        "	word 5	command language offset and length
    006004  aa   002035 000000          	zero	EXPCL-BASNM
                                        "	words 6-9 statistics
    006005  aa   000000 000000          	dec 0,0,0,0
    006006  aa   000000 000000
    006007  aa   000000 000000
    006010  aa   000000 000000
                                        "	word 10	BCI catalog name
    006011  aa  336 367 315 020         	bci	".TXIQ",6
                                        "	word 11	library, component
    006012  aa   000000 000000          	zero	0,0
                                        "	word 12	ss_name length
    006013  aa   000000 000004          	zero	,4
                                 2-795  " Program descriptor 258.
                                 2-796  MDDIR: PRGDES  0,0,0,0,0,0,0,
                                 2-797                 .dm2,EXPCL,.TXIO,.BNSYS+.BSPO
                                        "	word 1	ss_name
                                        	qstring	.dm2
    006014  aa  056 144 155 062         	aci	".dm2",4
                                        "	word 2	program_size, load_size
    006015  aa   000000 000000          	zero	0,0
                                        "	word 3	entry_point, parameters
    006016  aa   000000 011000          	zero	0,.BNSYS+.BSPO
                                        "	word 4	seek_address,initial_load_address
    006017  aa   000000 000000          	zero	0,0
                                        "	word 5	command language offset and length
    006020  aa   002035 000000          	zero	EXPCL-BASNM
                                        "	words 6-9 statistics
    006021  aa   000000 000000          	dec 0,0,0,0
    006022  aa   000000 000000
    006023  aa   000000 000000
    006024  aa   000000 000000
                                        "	word 10	BCI catalog name
    006025  aa  336 367 314 620         	bci	".TXIO",6
                                        "	word 11	library, component
    006026  aa   000000 000000          	zero	0,0
                                        "	word 12	ss_name length
    006027  aa   000000 000004          	zero	,4
                                 2-798  " Program descriptor 259.
                                 2-799  MDPRI: PRGDES  0,0,0,0,0,0,0,
                                 2-800                 .dm3,EXPCL,.TXIP,.BNSYS+.BSPO
                                        "	word 1	ss_name
                                        	qstring	.dm3
    006030  aa  056 144 155 063         	aci	".dm3",4
                                        "	word 2	program_size, load_size
    006031  aa   000000 000000          	zero	0,0
                                        "	word 3	entry_point, parameters
    006032  aa   000000 011000          	zero	0,.BNSYS+.BSPO
                                        "	word 4	seek_address,initial_load_address
    006033  aa   000000 000000          	zero	0,0
                                        "	word 5	command language offset and length
    006034  aa   002035 000000          	zero	EXPCL-BASNM
                                        "	words 6-9 statistics
    006035  aa   000000 000000          	dec 0,0,0,0
    006036  aa   000000 000000
    006037  aa   000000 000000
    006040  aa   000000 000000
                                        "	word 10	BCI catalog name
    006041  aa  336 367 314 720         	bci	".TXIP",6
                                        "	word 11	library, component
    006042  aa   000000 000000          	zero	0,0
                                        "	word 12	ss_name length
    006043  aa   000000 000004          	zero	,4
                                 2-801  " Program descriptor 260.
                                 2-802  MDADF: PRGDES  0,0,0,0,0,0,0,
                                 2-803                 desc,EXPCL,.TXIR,.BNSYS+.BSPO
                                        "	word 1	ss_name
                                        	qstring	desc
    006044  aa  144 145 163 143         	aci	"desc",4
                                        "	word 2	program_size, load_size
    006045  aa   000000 000000          	zero	0,0
                                        "	word 3	entry_point, parameters
    006046  aa   000000 011000          	zero	0,.BNSYS+.BSPO
                                        "	word 4	seek_address,initial_load_address
    006047  aa   000000 000000          	zero	0,0
                                        "	word 5	command language offset and length
    006050  aa   002035 000000          	zero	EXPCL-BASNM
                                        "	words 6-9 statistics
    006051  aa   000000 000000          	dec 0,0,0,0
    006052  aa   000000 000000
    006053  aa   000000 000000
    006054  aa   000000 000000
                                        "	word 10	BCI catalog name
    006055  aa  336 367 315 120         	bci	".TXIR",6
                                        "	word 11	library, component
    006056  aa   000000 000000          	zero	0,0
                                        "	word 12	ss_name length
    006057  aa   000000 000004          	zero	,4
                                 2-804  " Program descriptor 261.
                                 2-805  MDUPS: PRGDES  0,0,0,0,0,0,0,
                                 2-806                 .dm4,EXPCL,.TXIS,.BNSYS+.BSPO
                                        "	word 1	ss_name
                                        	qstring	.dm4
    006060  aa  056 144 155 064         	aci	".dm4",4
                                        "	word 2	program_size, load_size
    006061  aa   000000 000000          	zero	0,0
                                        "	word 3	entry_point, parameters
    006062  aa   000000 011000          	zero	0,.BNSYS+.BSPO
                                        "	word 4	seek_address,initial_load_address
    006063  aa   000000 000000          	zero	0,0
                                        "	word 5	command language offset and length
    006064  aa   002035 000000          	zero	EXPCL-BASNM
                                        "	words 6-9 statistics
    006065  aa   000000 000000          	dec 0,0,0,0
    006066  aa   000000 000000
    006067  aa   000000 000000
    006070  aa   000000 000000
                                        "	word 10	BCI catalog name
    006071  aa  336 367 316 220         	bci	".TXIS",6
                                        "	word 11	library, component
    006072  aa   000000 000000          	zero	0,0
                                        "	word 12	ss_name length
    006073  aa   000000 000004          	zero	,4
                                 2-807  " Program descriptor 262.
                                 2-808  MDCMD: PRGDES  0,0,0,0,0,0,0,
                                 2-809                 dial,EXPCL,.TXIT,.BNSYS+.BSPO
                                        "	word 1	ss_name
                                        	qstring	dial
    006074  aa  144 151 141 154         	aci	"dial",4
                                        "	word 2	program_size, load_size
    006075  aa   000000 000000          	zero	0,0
                                        "	word 3	entry_point, parameters
    006076  aa   000000 011000          	zero	0,.BNSYS+.BSPO
                                        "	word 4	seek_address,initial_load_address
    006077  aa   000000 000000          	zero	0,0
                                        "	word 5	command language offset and length
    006100  aa   002035 000000          	zero	EXPCL-BASNM
                                        "	words 6-9 statistics
    006101  aa   000000 000000          	dec 0,0,0,0
    006102  aa   000000 000000
    006103  aa   000000 000000
    006104  aa   000000 000000
                                        "	word 10	BCI catalog name
    006105  aa  336 367 316 320         	bci	".TXIT",6
                                        "	word 11	library, component
    006106  aa   000000 000000          	zero	0,0
                                        "	word 12	ss_name length
    006107  aa   000000 000004          	zero	,4
                                 2-810  " Program descriptor 263.
                                 2-811  MDDML: PRGDES  0,0,0,0,0,0,0,
                                 2-812                 .dm5,EXPCL,.TXIU,.BNSYS+.BSPO
                                        "	word 1	ss_name
                                        	qstring	.dm5
    006110  aa  056 144 155 065         	aci	".dm5",4
                                        "	word 2	program_size, load_size
    006111  aa   000000 000000          	zero	0,0
                                        "	word 3	entry_point, parameters
    006112  aa   000000 011000          	zero	0,.BNSYS+.BSPO
                                        "	word 4	seek_address,initial_load_address
    006113  aa   000000 000000          	zero	0,0
                                        "	word 5	command language offset and length
    006114  aa   002035 000000          	zero	EXPCL-BASNM
                                        "	words 6-9 statistics
    006115  aa   000000 000000          	dec 0,0,0,0
    006116  aa   000000 000000
    006117  aa   000000 000000
    006120  aa   000000 000000
                                        "	word 10	BCI catalog name
    006121  aa  336 367 316 420         	bci	".TXIU",6
                                        "	word 11	library, component
    006122  aa   000000 000000          	zero	0,0
                                        "	word 12	ss_name length
    006123  aa   000000 000004          	zero	,4
                                 2-813  " Program descriptor 264.
                                 2-814  MDREDI:PRGDES  0,0,0,0,0,0,0,
                                 2-815                 .dm6,EXPCL,.TXJL,.BNSYS+.BSPO
                                        "	word 1	ss_name
                                        	qstring	.dm6
    006124  aa  056 144 155 066         	aci	".dm6",4
                                        "	word 2	program_size, load_size
    006125  aa   000000 000000          	zero	0,0
                                        "	word 3	entry_point, parameters
    006126  aa   000000 011000          	zero	0,.BNSYS+.BSPO
                                        "	word 4	seek_address,initial_load_address
    006127  aa   000000 000000          	zero	0,0
                                        "	word 5	command language offset and length
    006130  aa   002035 000000          	zero	EXPCL-BASNM
                                        "	words 6-9 statistics
    006131  aa   000000 000000          	dec 0,0,0,0
    006132  aa   000000 000000
    006133  aa   000000 000000
    006134  aa   000000 000000
                                        "	word 10	BCI catalog name
    006135  aa  336 367 414 320         	bci	".TXJL",6
                                        "	word 11	library, component
    006136  aa   000000 000000          	zero	0,0
                                        "	word 12	ss_name length
    006137  aa   000000 000004          	zero	,4
                                 2-816  " Program descriptor 265.
                                 2-817  MDFLO: PRGDES  0,0,0,0,0,0,0,
                                 2-818                 plus,EXPCL,.TXJH,.BNSYS+.BSPO
                                        "	word 1	ss_name
                                        	qstring	plus
    006140  aa  160 154 165 163         	aci	"plus",4
                                        "	word 2	program_size, load_size
    006141  aa   000000 000000          	zero	0,0
                                        "	word 3	entry_point, parameters
    006142  aa   000000 011000          	zero	0,.BNSYS+.BSPO
                                        "	word 4	seek_address,initial_load_address
    006143  aa   000000 000000          	zero	0,0
                                        "	word 5	command language offset and length
    006144  aa   002035 000000          	zero	EXPCL-BASNM
                                        "	words 6-9 statistics
    006145  aa   000000 000000          	dec 0,0,0,0
    006146  aa   000000 000000
    006147  aa   000000 000000
    006150  aa   000000 000000
                                        "	word 10	BCI catalog name
    006151  aa  336 367 413 020         	bci	".TXJH",6
                                        "	word 11	library, component
    006152  aa   000000 000000          	zero	0,0
                                        "	word 12	ss_name length
    006153  aa   000000 000004          	zero	,4
                                 2-819  "      DESCRIPTORS FOR APL (SPECIAL PRODUCT OFFERING)
                                 2-820  " Program descriptor 266.
                                 2-821  APL:   PRGDES  0,0,0,0,0,0,0,
                                 2-822                 apl,EXPCL,.TAPL,.BSPO
                                        "	word 1	ss_name
                                        	qstring	apl
    006154  aa  141 160 154 040         	aci	"apl",4
                                        "	word 2	program_size, load_size
    006155  aa   000000 000000          	zero	0,0
                                        "	word 3	entry_point, parameters
    006156  aa   000000 010000          	zero	0,.BSPO
                                        "	word 4	seek_address,initial_load_address
    006157  aa   000000 000000          	zero	0,0
                                        "	word 5	command language offset and length
    006160  aa   002035 000000          	zero	EXPCL-BASNM
                                        "	words 6-9 statistics
    006161  aa   000000 000000          	dec 0,0,0,0
    006162  aa   000000 000000
    006163  aa   000000 000000
    006164  aa   000000 000000
                                        "	word 10	BCI catalog name
    006165  aa  336 321 474 320         	bci	".TAPL",6
                                        "	word 11	library, component
    006166  aa   000000 000000          	zero	0,0
                                        "	word 12	ss_name length
    006167  aa   000000 000003          	zero	,3
                                 2-823  " Program descriptor 267.
                                 2-824         PRGDES  0,0,0,0,0,0,0,
                                 2-825                 apla,EXPCL,.TAPLA,.BNSYS+.BSPO
                                        "	word 1	ss_name
                                        	qstring	apla
    006170  aa  141 160 154 141         	aci	"apla",4
                                        "	word 2	program_size, load_size
    006171  aa   000000 000000          	zero	0,0
                                        "	word 3	entry_point, parameters
    006172  aa   000000 011000          	zero	0,.BNSYS+.BSPO
                                        "	word 4	seek_address,initial_load_address
    006173  aa   000000 000000          	zero	0,0
                                        "	word 5	command language offset and length
    006174  aa   002035 000000          	zero	EXPCL-BASNM
                                        "	words 6-9 statistics
    006175  aa   000000 000000          	dec 0,0,0,0
    006176  aa   000000 000000
    006177  aa   000000 000000
    006200  aa   000000 000000
                                        "	word 10	BCI catalog name
    006201  aa  336 321 474 321         	bci	".TAPLA",6
                                        "	word 11	library, component
    006202  aa   000000 000000          	zero	0,0
                                        "	word 12	ss_name length
    006203  aa   000000 000004          	zero	,4
                                 2-826  " Program descriptor 268.
                                 2-827         PRGDES  0,0,0,0,0,0,0,
                                 2-828                 aplb,EXPCL,.TAPLB,.BNSYS+.BSPO
                                        "	word 1	ss_name
                                        	qstring	aplb
    006204  aa  141 160 154 142         	aci	"aplb",4
                                        "	word 2	program_size, load_size
    006205  aa   000000 000000          	zero	0,0
                                        "	word 3	entry_point, parameters
    006206  aa   000000 011000          	zero	0,.BNSYS+.BSPO
                                        "	word 4	seek_address,initial_load_address
    006207  aa   000000 000000          	zero	0,0
                                        "	word 5	command language offset and length
    006210  aa   002035 000000          	zero	EXPCL-BASNM
                                        "	words 6-9 statistics
    006211  aa   000000 000000          	dec 0,0,0,0
    006212  aa   000000 000000
    006213  aa   000000 000000
    006214  aa   000000 000000
                                        "	word 10	BCI catalog name
    006215  aa  336 321 474 322         	bci	".TAPLB",6
                                        "	word 11	library, component
    006216  aa   000000 000000          	zero	0,0
                                        "	word 12	ss_name length
    006217  aa   000000 000004          	zero	,4
                                 2-829  " Program descriptor 269.
                                 2-830         PRGDES  0,0,0,0,0,0,0,
                                 2-831                 aplc,EXPCL,.TAPLC,.BNSYS+.BSPO
                                        "	word 1	ss_name
                                        	qstring	aplc
    006220  aa  141 160 154 143         	aci	"aplc",4
                                        "	word 2	program_size, load_size
    006221  aa   000000 000000          	zero	0,0
                                        "	word 3	entry_point, parameters
    006222  aa   000000 011000          	zero	0,.BNSYS+.BSPO
                                        "	word 4	seek_address,initial_load_address
    006223  aa   000000 000000          	zero	0,0
                                        "	word 5	command language offset and length
    006224  aa   002035 000000          	zero	EXPCL-BASNM
                                        "	words 6-9 statistics
    006225  aa   000000 000000          	dec 0,0,0,0
    006226  aa   000000 000000
    006227  aa   000000 000000
    006230  aa   000000 000000
                                        "	word 10	BCI catalog name
    006231  aa  336 321 474 323         	bci	".TAPLC",6
                                        "	word 11	library, component
    006232  aa   000000 000000          	zero	0,0
                                        "	word 12	ss_name length
    006233  aa   000000 000004          	zero	,4
                                 2-832  " Program descriptor 270.
                                 2-833         PRGDES  0,0,0,0,0,0,0,
                                 2-834                 apld,EXPCL,.TAPLD,.BNSYS+.BSPO
                                        "	word 1	ss_name
                                        	qstring	apld
    006234  aa  141 160 154 144         	aci	"apld",4
                                        "	word 2	program_size, load_size
    006235  aa   000000 000000          	zero	0,0
                                        "	word 3	entry_point, parameters
    006236  aa   000000 011000          	zero	0,.BNSYS+.BSPO
                                        "	word 4	seek_address,initial_load_address
    006237  aa   000000 000000          	zero	0,0
                                        "	word 5	command language offset and length
    006240  aa   002035 000000          	zero	EXPCL-BASNM
                                        "	words 6-9 statistics
    006241  aa   000000 000000          	dec 0,0,0,0
    006242  aa   000000 000000
    006243  aa   000000 000000
    006244  aa   000000 000000
                                        "	word 10	BCI catalog name
    006245  aa  336 321 474 324         	bci	".TAPLD",6
                                        "	word 11	library, component
    006246  aa   000000 000000          	zero	0,0
                                        "	word 12	ss_name length
    006247  aa   000000 000004          	zero	,4
                                 2-835  " Program descriptor 271.
                                 2-836         PRGDES  0,0,0,0,0,0,0,
                                 2-837                 aple,EXPCL,.TAPLE,.BNSYS+.BSPO
                                        "	word 1	ss_name
                                        	qstring	aple
    006250  aa  141 160 154 145         	aci	"aple",4
                                        "	word 2	program_size, load_size
    006251  aa   000000 000000          	zero	0,0
                                        "	word 3	entry_point, parameters
    006252  aa   000000 011000          	zero	0,.BNSYS+.BSPO
                                        "	word 4	seek_address,initial_load_address
    006253  aa   000000 000000          	zero	0,0
                                        "	word 5	command language offset and length
    006254  aa   002035 000000          	zero	EXPCL-BASNM
                                        "	words 6-9 statistics
    006255  aa   000000 000000          	dec 0,0,0,0
    006256  aa   000000 000000
    006257  aa   000000 000000
    006260  aa   000000 000000
                                        "	word 10	BCI catalog name
    006261  aa  336 321 474 325         	bci	".TAPLE",6
                                        "	word 11	library, component
    006262  aa   000000 000000          	zero	0,0
                                        "	word 12	ss_name length
    006263  aa   000000 000004          	zero	,4
                                 2-838  " Program descriptor 272.
                                 2-839         PRGDES  0,0,0,0,0,0,0,
                                 2-840                 aplf,EXPCL,.TAPLF,.BNSYS+.BSPO
                                        "	word 1	ss_name
                                        	qstring	aplf
    006264  aa  141 160 154 146         	aci	"aplf",4
                                        "	word 2	program_size, load_size
    006265  aa   000000 000000          	zero	0,0
                                        "	word 3	entry_point, parameters
    006266  aa   000000 011000          	zero	0,.BNSYS+.BSPO
                                        "	word 4	seek_address,initial_load_address
    006267  aa   000000 000000          	zero	0,0
                                        "	word 5	command language offset and length
    006270  aa   002035 000000          	zero	EXPCL-BASNM
                                        "	words 6-9 statistics
    006271  aa   000000 000000          	dec 0,0,0,0
    006272  aa   000000 000000
    006273  aa   000000 000000
    006274  aa   000000 000000
                                        "	word 10	BCI catalog name
    006275  aa  336 321 474 326         	bci	".TAPLF",6
                                        "	word 11	library, component
    006276  aa   000000 000000          	zero	0,0
                                        "	word 12	ss_name length
    006277  aa   000000 000004          	zero	,4
                                 2-841  " Program descriptor 273.
                                 2-842         PRGDES  0,0,0,0,0,0,0,
                                 2-843                 aplg,EXPCL,.TAPLG,.BNSYS+.BSPO
                                        "	word 1	ss_name
                                        	qstring	aplg
    006300  aa  141 160 154 147         	aci	"aplg",4
                                        "	word 2	program_size, load_size
    006301  aa   000000 000000          	zero	0,0
                                        "	word 3	entry_point, parameters
    006302  aa   000000 011000          	zero	0,.BNSYS+.BSPO
                                        "	word 4	seek_address,initial_load_address
    006303  aa   000000 000000          	zero	0,0
                                        "	word 5	command language offset and length
    006304  aa   002035 000000          	zero	EXPCL-BASNM
                                        "	words 6-9 statistics
    006305  aa   000000 000000          	dec 0,0,0,0
    006306  aa   000000 000000
    006307  aa   000000 000000
    006310  aa   000000 000000
                                        "	word 10	BCI catalog name
    006311  aa  336 321 474 327         	bci	".TAPLG",6
                                        "	word 11	library, component
    006312  aa   000000 000000          	zero	0,0
                                        "	word 12	ss_name length
    006313  aa   000000 000004          	zero	,4
                                 2-844  " Program descriptor 274.
                                 2-845         PRGDES  0,0,0,0,0,0,0,
                                 2-846                 aplh,EXPCL,.TAPLH,.BNSYS+.BSPO
                                        "	word 1	ss_name
                                        	qstring	aplh
    006314  aa  141 160 154 150         	aci	"aplh",4
                                        "	word 2	program_size, load_size
    006315  aa   000000 000000          	zero	0,0
                                        "	word 3	entry_point, parameters
    006316  aa   000000 011000          	zero	0,.BNSYS+.BSPO
                                        "	word 4	seek_address,initial_load_address
    006317  aa   000000 000000          	zero	0,0
                                        "	word 5	command language offset and length
    006320  aa   002035 000000          	zero	EXPCL-BASNM
                                        "	words 6-9 statistics
    006321  aa   000000 000000          	dec 0,0,0,0
    006322  aa   000000 000000
    006323  aa   000000 000000
    006324  aa   000000 000000
                                        "	word 10	BCI catalog name
    006325  aa  336 321 474 330         	bci	".TAPLH",6
                                        "	word 11	library, component
    006326  aa   000000 000000          	zero	0,0
                                        "	word 12	ss_name length
    006327  aa   000000 000004          	zero	,4
                                 2-847  " Program descriptor 275.
                                 2-848         PRGDES  0,0,0,0,0,0,0,
                                 2-849                 apli,EXPCL,.TAPLI,.BNSYS+.BSPO
                                        "	word 1	ss_name
                                        	qstring	apli
    006330  aa  141 160 154 151         	aci	"apli",4
                                        "	word 2	program_size, load_size
    006331  aa   000000 000000          	zero	0,0
                                        "	word 3	entry_point, parameters
    006332  aa   000000 011000          	zero	0,.BNSYS+.BSPO
                                        "	word 4	seek_address,initial_load_address
    006333  aa   000000 000000          	zero	0,0
                                        "	word 5	command language offset and length
    006334  aa   002035 000000          	zero	EXPCL-BASNM
                                        "	words 6-9 statistics
    006335  aa   000000 000000          	dec 0,0,0,0
    006336  aa   000000 000000
    006337  aa   000000 000000
    006340  aa   000000 000000
                                        "	word 10	BCI catalog name
    006341  aa  336 321 474 331         	bci	".TAPLI",6
                                        "	word 11	library, component
    006342  aa   000000 000000          	zero	0,0
                                        "	word 12	ss_name length
    006343  aa   000000 000004          	zero	,4
                                 2-850  " Program descriptor 276.
                                 2-851         PRGDES  0,0,0,0,0,0,0,
                                 2-852                 aplj,EXPCL,.TAPLJ,.BNSYS+.BSPO
                                        "	word 1	ss_name
                                        	qstring	aplj
    006344  aa  141 160 154 152         	aci	"aplj",4
                                        "	word 2	program_size, load_size
    006345  aa   000000 000000          	zero	0,0
                                        "	word 3	entry_point, parameters
    006346  aa   000000 011000          	zero	0,.BNSYS+.BSPO
                                        "	word 4	seek_address,initial_load_address
    006347  aa   000000 000000          	zero	0,0
                                        "	word 5	command language offset and length
    006350  aa   002035 000000          	zero	EXPCL-BASNM
                                        "	words 6-9 statistics
    006351  aa   000000 000000          	dec 0,0,0,0
    006352  aa   000000 000000
    006353  aa   000000 000000
    006354  aa   000000 000000
                                        "	word 10	BCI catalog name
    006355  aa  336 321 474 341         	bci	".TAPLJ",6
                                        "	word 11	library, component
    006356  aa   000000 000000          	zero	0,0
                                        "	word 12	ss_name length
    006357  aa   000000 000004          	zero	,4
                                 2-853  " Program descriptor 277.
                                 2-854         PRGDES  0,0,0,0,0,0,0,
                                 2-855                 aplk,EXPCL,.TAPLK,.BNSYS+.BSPO
                                        "	word 1	ss_name
                                        	qstring	aplk
    006360  aa  141 160 154 153         	aci	"aplk",4
                                        "	word 2	program_size, load_size
    006361  aa   000000 000000          	zero	0,0
                                        "	word 3	entry_point, parameters
    006362  aa   000000 011000          	zero	0,.BNSYS+.BSPO
                                        "	word 4	seek_address,initial_load_address
    006363  aa   000000 000000          	zero	0,0
                                        "	word 5	command language offset and length
    006364  aa   002035 000000          	zero	EXPCL-BASNM
                                        "	words 6-9 statistics
    006365  aa   000000 000000          	dec 0,0,0,0
    006366  aa   000000 000000
    006367  aa   000000 000000
    006370  aa   000000 000000
                                        "	word 10	BCI catalog name
    006371  aa  336 321 474 342         	bci	".TAPLK",6
                                        "	word 11	library, component
    006372  aa   000000 000000          	zero	0,0
                                        "	word 12	ss_name length
    006373  aa   000000 000004          	zero	,4
                                 2-856  " Program descriptor 278.
                                 2-857         PRGDES  0,0,0,0,0,0,0,
                                 2-858                 apll,EXPCL,.TAPLL,.BNSYS+.BSPO
                                        "	word 1	ss_name
                                        	qstring	apll
    006374  aa  141 160 154 154         	aci	"apll",4
                                        "	word 2	program_size, load_size
    006375  aa   000000 000000          	zero	0,0
                                        "	word 3	entry_point, parameters
    006376  aa   000000 011000          	zero	0,.BNSYS+.BSPO
                                        "	word 4	seek_address,initial_load_address
    006377  aa   000000 000000          	zero	0,0
                                        "	word 5	command language offset and length
    006400  aa   002035 000000          	zero	EXPCL-BASNM
                                        "	words 6-9 statistics
    006401  aa   000000 000000          	dec 0,0,0,0
    006402  aa   000000 000000
    006403  aa   000000 000000
    006404  aa   000000 000000
                                        "	word 10	BCI catalog name
    006405  aa  336 321 474 343         	bci	".TAPLL",6
                                        "	word 11	library, component
    006406  aa   000000 000000          	zero	0,0
                                        "	word 12	ss_name length
    006407  aa   000000 000004          	zero	,4
                                 2-859  "      ISP OVERLAYS
                                 2-860  " Program descriptor 279.
                                 2-861         PRGDES  1,1,90491,1024,1024,0,0,  " Added by gtbl on 05/19/83  1801.0
                                 2-862                 xopf,EXPCL,XOPFST,.BNSYS+.BSPO
                                        "	word 1	ss_name
                                        	qstring	xopf
    006410  aa  170 157 160 146         	aci	"xopf",4
                                        "	word 2	program_size, load_size
    006411  aa   002000 002000          	zero	1024,1024
                                        "	word 3	entry_point, parameters
    006412  aa   000000 011000          	zero	0,.BNSYS+.BSPO
                                        "	word 4	seek_address,initial_load_address
    006413  aa   260573 000000          	zero	90491,0
                                        "	word 5	command language offset and length
    006414  aa   002035 000000          	zero	EXPCL-BASNM
                                        "	words 6-9 statistics
    006415  aa   000000 000000          	dec 0,0,0,0
    006416  aa   000000 000000
    006417  aa   000000 000000
    006420  aa   000000 000000
                                        "	word 10	BCI catalog name
    006421  aa  674 647 266 263         	bci	"XOPFST",6
                                        "	word 11	library, component
    006422  aa   000001 000001          	zero	1,1
                                        "	word 12	ss_name length
    006423  aa   000000 000004          	zero	,4
                                 2-863  " Program descriptor 280.
                                 2-864         PRGDES  1,1,91584,630,630,0,0,  " Added by gtbl on 05/19/83  1801.0
                                 2-865                 xops,EXPCL,XOPSEC,.BNSYS+.BSPO
                                        "	word 1	ss_name
                                        	qstring	xops
    006424  aa  170 157 160 163         	aci	"xops",4
                                        "	word 2	program_size, load_size
    006425  aa   001166 001166          	zero	630,630
                                        "	word 3	entry_point, parameters
    006426  aa   000000 011000          	zero	0,.BNSYS+.BSPO
                                        "	word 4	seek_address,initial_load_address
    006427  aa   262700 000000          	zero	91584,0
                                        "	word 5	command language offset and length
    006430  aa   002035 000000          	zero	EXPCL-BASNM
                                        "	words 6-9 statistics
    006431  aa   000000 000000          	dec 0,0,0,0
    006432  aa   000000 000000
    006433  aa   000000 000000
    006434  aa   000000 000000
                                        "	word 10	BCI catalog name
    006435  aa  674 647 622 523         	bci	"XOPSEC",6
                                        "	word 11	library, component
    006436  aa   000001 000001          	zero	1,1
                                        "	word 12	ss_name length
    006437  aa   000000 000004          	zero	,4
                                 2-866  " Program descriptor 281.
                                 2-867         PRGDES  1,1,92261,902,902,0,0,  " Added by gtbl on 05/19/83  1801.0
                                 2-868                 xclf,EXPCL,XCLFST,.BNSYS+.BSPO
                                        "	word 1	ss_name
                                        	qstring	xclf
    006440  aa  170 143 154 146         	aci	"xclf",4
                                        "	word 2	program_size, load_size
    006441  aa   001606 001606          	zero	902,902
                                        "	word 3	entry_point, parameters
    006442  aa   000000 011000          	zero	0,.BNSYS+.BSPO
                                        "	word 4	seek_address,initial_load_address
    006443  aa   264145 000000          	zero	92261,0
                                        "	word 5	command language offset and length
    006444  aa   002035 000000          	zero	EXPCL-BASNM
                                        "	words 6-9 statistics
    006445  aa   000000 000000          	dec 0,0,0,0
    006446  aa   000000 000000
    006447  aa   000000 000000
    006450  aa   000000 000000
                                        "	word 10	BCI catalog name
    006451  aa  672 343 266 263         	bci	"XCLFST",6
                                        "	word 11	library, component
    006452  aa   000001 000001          	zero	1,1
                                        "	word 12	ss_name length
    006453  aa   000000 000004          	zero	,4
                                 2-869  " Program descriptor 282.
                                 2-870         PRGDES  0,0,0,0,0,0,0,
                                 2-871                 xisp,EXPCL,XISPAB,.BNSYS+.BSPO
                                        "	word 1	ss_name
                                        	qstring	xisp
    006454  aa  170 151 163 160         	aci	"xisp",4
                                        "	word 2	program_size, load_size
    006455  aa   000000 000000          	zero	0,0
                                        "	word 3	entry_point, parameters
    006456  aa   000000 011000          	zero	0,.BNSYS+.BSPO
                                        "	word 4	seek_address,initial_load_address
    006457  aa   000000 000000          	zero	0,0
                                        "	word 5	command language offset and length
    006460  aa   002035 000000          	zero	EXPCL-BASNM
                                        "	words 6-9 statistics
    006461  aa   000000 000000          	dec 0,0,0,0
    006462  aa   000000 000000
    006463  aa   000000 000000
    006464  aa   000000 000000
                                        "	word 10	BCI catalog name
    006465  aa  673 162 472 122         	bci	"XISPAB",6
                                        "	word 11	library, component
    006466  aa   000000 000000          	zero	0,0
                                        "	word 12	ss_name length
    006467  aa   000000 000004          	zero	,4
                                 2-872  " Program descriptor 283.
                                 2-873  DSS:   PRGDES  0,0,0,0,0,0,0,
                                 2-874                 dss,EXPCL,DSS,.BNSYS+.BSPO  DEBUG SUPPORT SYSTEM         TSSA0RGW
                                        "	word 1	ss_name
                                        	qstring	dss
    006470  aa  144 163 163 040         	aci	"dss",4
                                        "	word 2	program_size, load_size
    006471  aa   000000 000000          	zero	0,0
                                        "	word 3	entry_point, parameters
    006472  aa   000000 011000          	zero	0,.BNSYS+.BSPO
                                        "	word 4	seek_address,initial_load_address
    006473  aa   000000 000000          	zero	0,0
                                        "	word 5	command language offset and length
    006474  aa   002035 000000          	zero	EXPCL-BASNM
                                        "	words 6-9 statistics
    006475  aa   000000 000000          	dec 0,0,0,0
    006476  aa   000000 000000
    006477  aa   000000 000000
    006500  aa   000000 000000
                                        "	word 10	BCI catalog name
    006501  aa  246 262 202 020         	bci	"DSS",6
                                        "	word 11	library, component
    006502  aa   000000 000000          	zero	0,0
                                        "	word 12	ss_name length
    006503  aa   000000 000003          	zero	,3
                                 2-875  " Program descriptor 284.
                                 2-876  DS01:  PRGDES  0,0,0,0,0,0,0,
                                 2-877                 ds01,EXPCL,DS01,.BNSYS+.BSPO                             TSSA0RGW
                                        "	word 1	ss_name
                                        	qstring	ds01
    006504  aa  144 163 060 061         	aci	"ds01",4
                                        "	word 2	program_size, load_size
    006505  aa   000000 000000          	zero	0,0
                                        "	word 3	entry_point, parameters
    006506  aa   000000 011000          	zero	0,.BNSYS+.BSPO
                                        "	word 4	seek_address,initial_load_address
    006507  aa   000000 000000          	zero	0,0
                                        "	word 5	command language offset and length
    006510  aa   002035 000000          	zero	EXPCL-BASNM
                                        "	words 6-9 statistics
    006511  aa   000000 000000          	dec 0,0,0,0
    006512  aa   000000 000000
    006513  aa   000000 000000
    006514  aa   000000 000000
                                        "	word 10	BCI catalog name
    006515  aa  246 200 012 020         	bci	"DS01",6
                                        "	word 11	library, component
    006516  aa   000000 000000          	zero	0,0
                                        "	word 12	ss_name length
    006517  aa   000000 000004          	zero	,4
                                 2-878  " Program descriptor 285.
                                 2-879  DS02:  PRGDES  0,0,0,0,0,0,0,
                                 2-880                 ds02,EXPCL,DS02,.BNSYS+.BSPO                             TSSA0RGW
                                        "	word 1	ss_name
                                        	qstring	ds02
    006520  aa  144 163 060 062         	aci	"ds02",4
                                        "	word 2	program_size, load_size
    006521  aa   000000 000000          	zero	0,0
                                        "	word 3	entry_point, parameters
    006522  aa   000000 011000          	zero	0,.BNSYS+.BSPO
                                        "	word 4	seek_address,initial_load_address
    006523  aa   000000 000000          	zero	0,0
                                        "	word 5	command language offset and length
    006524  aa   002035 000000          	zero	EXPCL-BASNM
                                        "	words 6-9 statistics
    006525  aa   000000 000000          	dec 0,0,0,0
    006526  aa   000000 000000
    006527  aa   000000 000000
    006530  aa   000000 000000
                                        "	word 10	BCI catalog name
    006531  aa  246 200 022 020         	bci	"DS02",6
                                        "	word 11	library, component
    006532  aa   000000 000000          	zero	0,0
                                        "	word 12	ss_name length
    006533  aa   000000 000004          	zero	,4
                                 2-881  " Program descriptor 286.
                                 2-882  DS03:  PRGDES  0,0,0,0,0,0,0,
                                 2-883                 ds03,EXPCL,DS03,.BNSYS+.BSPO                             TSSA0RGW
                                        "	word 1	ss_name
                                        	qstring	ds03
    006534  aa  144 163 060 063         	aci	"ds03",4
                                        "	word 2	program_size, load_size
    006535  aa   000000 000000          	zero	0,0
                                        "	word 3	entry_point, parameters
    006536  aa   000000 011000          	zero	0,.BNSYS+.BSPO
                                        "	word 4	seek_address,initial_load_address
    006537  aa   000000 000000          	zero	0,0
                                        "	word 5	command language offset and length
    006540  aa   002035 000000          	zero	EXPCL-BASNM
                                        "	words 6-9 statistics
    006541  aa   000000 000000          	dec 0,0,0,0
    006542  aa   000000 000000
    006543  aa   000000 000000
    006544  aa   000000 000000
                                        "	word 10	BCI catalog name
    006545  aa  246 200 032 020         	bci	"DS03",6
                                        "	word 11	library, component
    006546  aa   000000 000000          	zero	0,0
                                        "	word 12	ss_name length
    006547  aa   000000 000004          	zero	,4
                                 2-884  " Program descriptor 287.
                                 2-885  DS04:  PRGDES  0,0,0,0,0,0,0,
                                 2-886                 ds04,EXPCL,DS04,.BNSYS+.BSPO                             TSSA0RGW
                                        "	word 1	ss_name
                                        	qstring	ds04
    006550  aa  144 163 060 064         	aci	"ds04",4
                                        "	word 2	program_size, load_size
    006551  aa   000000 000000          	zero	0,0
                                        "	word 3	entry_point, parameters
    006552  aa   000000 011000          	zero	0,.BNSYS+.BSPO
                                        "	word 4	seek_address,initial_load_address
    006553  aa   000000 000000          	zero	0,0
                                        "	word 5	command language offset and length
    006554  aa   002035 000000          	zero	EXPCL-BASNM
                                        "	words 6-9 statistics
    006555  aa   000000 000000          	dec 0,0,0,0
    006556  aa   000000 000000
    006557  aa   000000 000000
    006560  aa   000000 000000
                                        "	word 10	BCI catalog name
    006561  aa  246 200 042 020         	bci	"DS04",6
                                        "	word 11	library, component
    006562  aa   000000 000000          	zero	0,0
                                        "	word 12	ss_name length
    006563  aa   000000 000004          	zero	,4
                                 2-887  " Program descriptor 288.
                                 2-888  DS05:  PRGDES  0,0,0,0,0,0,0,
                                 2-889                 ds05,EXPCL,DS05,.BNSYS+.BSPO                             TSSA0RGW
                                        "	word 1	ss_name
                                        	qstring	ds05
    006564  aa  144 163 060 065         	aci	"ds05",4
                                        "	word 2	program_size, load_size
    006565  aa   000000 000000          	zero	0,0
                                        "	word 3	entry_point, parameters
    006566  aa   000000 011000          	zero	0,.BNSYS+.BSPO
                                        "	word 4	seek_address,initial_load_address
    006567  aa   000000 000000          	zero	0,0
                                        "	word 5	command language offset and length
    006570  aa   002035 000000          	zero	EXPCL-BASNM
                                        "	words 6-9 statistics
    006571  aa   000000 000000          	dec 0,0,0,0
    006572  aa   000000 000000
    006573  aa   000000 000000
    006574  aa   000000 000000
                                        "	word 10	BCI catalog name
    006575  aa  246 200 052 020         	bci	"DS05",6
                                        "	word 11	library, component
    006576  aa   000000 000000          	zero	0,0
                                        "	word 12	ss_name length
    006577  aa   000000 000004          	zero	,4
                                 2-890  " Program descriptor 289.
                                 2-891  DS06:  PRGDES  0,0,0,0,0,0,0,
                                 2-892                 ds06,EXPCL,DS06,.BNSYS+.BSPO                             TSSA0RGW
                                        "	word 1	ss_name
                                        	qstring	ds06
    006600  aa  144 163 060 066         	aci	"ds06",4
                                        "	word 2	program_size, load_size
    006601  aa   000000 000000          	zero	0,0
                                        "	word 3	entry_point, parameters
    006602  aa   000000 011000          	zero	0,.BNSYS+.BSPO
                                        "	word 4	seek_address,initial_load_address
    006603  aa   000000 000000          	zero	0,0
                                        "	word 5	command language offset and length
    006604  aa   002035 000000          	zero	EXPCL-BASNM
                                        "	words 6-9 statistics
    006605  aa   000000 000000          	dec 0,0,0,0
    006606  aa   000000 000000
    006607  aa   000000 000000
    006610  aa   000000 000000
                                        "	word 10	BCI catalog name
    006611  aa  246 200 062 020         	bci	"DS06",6
                                        "	word 11	library, component
    006612  aa   000000 000000          	zero	0,0
                                        "	word 12	ss_name length
    006613  aa   000000 000004          	zero	,4
                                 2-893  " Program descriptor 290.
                                 2-894  DS07:  PRGDES  0,0,0,0,0,0,0,
                                 2-895                 ds07,EXPCL,DS07,.BNSYS+.BSPO                             TSSA0RGW
                                        "	word 1	ss_name
                                        	qstring	ds07
    006614  aa  144 163 060 067         	aci	"ds07",4
                                        "	word 2	program_size, load_size
    006615  aa   000000 000000          	zero	0,0
                                        "	word 3	entry_point, parameters
    006616  aa   000000 011000          	zero	0,.BNSYS+.BSPO
                                        "	word 4	seek_address,initial_load_address
    006617  aa   000000 000000          	zero	0,0
                                        "	word 5	command language offset and length
    006620  aa   002035 000000          	zero	EXPCL-BASNM
                                        "	words 6-9 statistics
    006621  aa   000000 000000          	dec 0,0,0,0
    006622  aa   000000 000000
    006623  aa   000000 000000
    006624  aa   000000 000000
                                        "	word 10	BCI catalog name
    006625  aa  246 200 072 020         	bci	"DS07",6
                                        "	word 11	library, component
    006626  aa   000000 000000          	zero	0,0
                                        "	word 12	ss_name length
    006627  aa   000000 000004          	zero	,4
                                 2-896  " Program descriptor 291.
                                 2-897  DS08:  PRGDES  0,0,0,0,0,0,0,
                                 2-898                 ds08,EXPCL,DS08,.BNSYS+.BSPO                             TSSA0RGW
                                        "	word 1	ss_name
                                        	qstring	ds08
    006630  aa  144 163 060 070         	aci	"ds08",4
                                        "	word 2	program_size, load_size
    006631  aa   000000 000000          	zero	0,0
                                        "	word 3	entry_point, parameters
    006632  aa   000000 011000          	zero	0,.BNSYS+.BSPO
                                        "	word 4	seek_address,initial_load_address
    006633  aa   000000 000000          	zero	0,0
                                        "	word 5	command language offset and length
    006634  aa   002035 000000          	zero	EXPCL-BASNM
                                        "	words 6-9 statistics
    006635  aa   000000 000000          	dec 0,0,0,0
    006636  aa   000000 000000
    006637  aa   000000 000000
    006640  aa   000000 000000
                                        "	word 10	BCI catalog name
    006641  aa  246 200 102 020         	bci	"DS08",6
                                        "	word 11	library, component
    006642  aa   000000 000000          	zero	0,0
                                        "	word 12	ss_name length
    006643  aa   000000 000004          	zero	,4
                                 2-899  " Program descriptor 292.
                                 2-900  DS09:  PRGDES  0,0,0,0,0,0,0,
                                 2-901                 ds09,EXPCL,DS09,.BNSYS+.BSPO                             TSSA0RGW
                                        "	word 1	ss_name
                                        	qstring	ds09
    006644  aa  144 163 060 071         	aci	"ds09",4
                                        "	word 2	program_size, load_size
    006645  aa   000000 000000          	zero	0,0
                                        "	word 3	entry_point, parameters
    006646  aa   000000 011000          	zero	0,.BNSYS+.BSPO
                                        "	word 4	seek_address,initial_load_address
    006647  aa   000000 000000          	zero	0,0
                                        "	word 5	command language offset and length
    006650  aa   002035 000000          	zero	EXPCL-BASNM
                                        "	words 6-9 statistics
    006651  aa   000000 000000          	dec 0,0,0,0
    006652  aa   000000 000000
    006653  aa   000000 000000
    006654  aa   000000 000000
                                        "	word 10	BCI catalog name
    006655  aa  246 200 112 020         	bci	"DS09",6
                                        "	word 11	library, component
    006656  aa   000000 000000          	zero	0,0
                                        "	word 12	ss_name length
    006657  aa   000000 000004          	zero	,4
                                 2-902  " Program descriptor 293.
                                 2-903  DS10:  PRGDES  0,0,0,0,0,0,0,
                                 2-904                 ds10,EXPCL,DS10,.BNSYS+.BSPO                             TSSA0RGW
                                        "	word 1	ss_name
                                        	qstring	ds10
    006660  aa  144 163 061 060         	aci	"ds10",4
                                        "	word 2	program_size, load_size
    006661  aa   000000 000000          	zero	0,0
                                        "	word 3	entry_point, parameters
    006662  aa   000000 011000          	zero	0,.BNSYS+.BSPO
                                        "	word 4	seek_address,initial_load_address
    006663  aa   000000 000000          	zero	0,0
                                        "	word 5	command language offset and length
    006664  aa   002035 000000          	zero	EXPCL-BASNM
                                        "	words 6-9 statistics
    006665  aa   000000 000000          	dec 0,0,0,0
    006666  aa   000000 000000
    006667  aa   000000 000000
    006670  aa   000000 000000
                                        "	word 10	BCI catalog name
    006671  aa  246 201 002 020         	bci	"DS10",6
                                        "	word 11	library, component
    006672  aa   000000 000000          	zero	0,0
                                        "	word 12	ss_name length
    006673  aa   000000 000004          	zero	,4
                                 2-905  " Program descriptor 294.
                                 2-906  DS11:  PRGDES  0,0,0,0,0,0,0,
                                 2-907                 ds11,EXPCL,DS11,.BNSYS+.BSPO                             TSSA0RGW
                                        "	word 1	ss_name
                                        	qstring	ds11
    006674  aa  144 163 061 061         	aci	"ds11",4
                                        "	word 2	program_size, load_size
    006675  aa   000000 000000          	zero	0,0
                                        "	word 3	entry_point, parameters
    006676  aa   000000 011000          	zero	0,.BNSYS+.BSPO
                                        "	word 4	seek_address,initial_load_address
    006677  aa   000000 000000          	zero	0,0
                                        "	word 5	command language offset and length
    006700  aa   002035 000000          	zero	EXPCL-BASNM
                                        "	words 6-9 statistics
    006701  aa   000000 000000          	dec 0,0,0,0
    006702  aa   000000 000000
    006703  aa   000000 000000
    006704  aa   000000 000000
                                        "	word 10	BCI catalog name
    006705  aa  246 201 012 020         	bci	"DS11",6
                                        "	word 11	library, component
    006706  aa   000000 000000          	zero	0,0
                                        "	word 12	ss_name length
    006707  aa   000000 000004          	zero	,4
                                 2-908  " Program descriptor 295.
                                 2-909  DS12:  PRGDES  0,0,0,0,0,0,0,
                                 2-910                 ds12,EXPCL,DS12,.BNSYS+.BSPO                             TSSA0RGW
                                        "	word 1	ss_name
                                        	qstring	ds12
    006710  aa  144 163 061 062         	aci	"ds12",4
                                        "	word 2	program_size, load_size
    006711  aa   000000 000000          	zero	0,0
                                        "	word 3	entry_point, parameters
    006712  aa   000000 011000          	zero	0,.BNSYS+.BSPO
                                        "	word 4	seek_address,initial_load_address
    006713  aa   000000 000000          	zero	0,0
                                        "	word 5	command language offset and length
    006714  aa   002035 000000          	zero	EXPCL-BASNM
                                        "	words 6-9 statistics
    006715  aa   000000 000000          	dec 0,0,0,0
    006716  aa   000000 000000
    006717  aa   000000 000000
    006720  aa   000000 000000
                                        "	word 10	BCI catalog name
    006721  aa  246 201 022 020         	bci	"DS12",6
                                        "	word 11	library, component
    006722  aa   000000 000000          	zero	0,0
                                        "	word 12	ss_name length
    006723  aa   000000 000004          	zero	,4
                                 2-911  " Program descriptor 296.
                                 2-912  DS13:  PRGDES  0,0,0,0,0,0,0,
                                 2-913                 ds13,EXPCL,DS13,.BNSYS+.BSPO                             TSSA0RGW
                                        "	word 1	ss_name
                                        	qstring	ds13
    006724  aa  144 163 061 063         	aci	"ds13",4
                                        "	word 2	program_size, load_size
    006725  aa   000000 000000          	zero	0,0
                                        "	word 3	entry_point, parameters
    006726  aa   000000 011000          	zero	0,.BNSYS+.BSPO
                                        "	word 4	seek_address,initial_load_address
    006727  aa   000000 000000          	zero	0,0
                                        "	word 5	command language offset and length
    006730  aa   002035 000000          	zero	EXPCL-BASNM
                                        "	words 6-9 statistics
    006731  aa   000000 000000          	dec 0,0,0,0
    006732  aa   000000 000000
    006733  aa   000000 000000
    006734  aa   000000 000000
                                        "	word 10	BCI catalog name
    006735  aa  246 201 032 020         	bci	"DS13",6
                                        "	word 11	library, component
    006736  aa   000000 000000          	zero	0,0
                                        "	word 12	ss_name length
    006737  aa   000000 000004          	zero	,4
                                 2-914  " Program descriptor 297.
                                 2-915  DS14:  PRGDES  0,0,0,0,0,0,0,
                                 2-916                 ds14,EXPCL,DS14,.BNSYS+.BSPO                             TSSA0RGW
                                        "	word 1	ss_name
                                        	qstring	ds14
    006740  aa  144 163 061 064         	aci	"ds14",4
                                        "	word 2	program_size, load_size
    006741  aa   000000 000000          	zero	0,0
                                        "	word 3	entry_point, parameters
    006742  aa   000000 011000          	zero	0,.BNSYS+.BSPO
                                        "	word 4	seek_address,initial_load_address
    006743  aa   000000 000000          	zero	0,0
                                        "	word 5	command language offset and length
    006744  aa   002035 000000          	zero	EXPCL-BASNM
                                        "	words 6-9 statistics
    006745  aa   000000 000000          	dec 0,0,0,0
    006746  aa   000000 000000
    006747  aa   000000 000000
    006750  aa   000000 000000
                                        "	word 10	BCI catalog name
    006751  aa  246 201 042 020         	bci	"DS14",6
                                        "	word 11	library, component
    006752  aa   000000 000000          	zero	0,0
                                        "	word 12	ss_name length
    006753  aa   000000 000004          	zero	,4
                                 2-917  " Program descriptor 298.
                                 2-918  DS15:  PRGDES  0,0,0,0,0,0,0,
                                 2-919                 ds15,EXPCL,DS15,.BNSYS+.BSPO                             TSSA0RGW
                                        "	word 1	ss_name
                                        	qstring	ds15
    006754  aa  144 163 061 065         	aci	"ds15",4
                                        "	word 2	program_size, load_size
    006755  aa   000000 000000          	zero	0,0
                                        "	word 3	entry_point, parameters
    006756  aa   000000 011000          	zero	0,.BNSYS+.BSPO
                                        "	word 4	seek_address,initial_load_address
    006757  aa   000000 000000          	zero	0,0
                                        "	word 5	command language offset and length
    006760  aa   002035 000000          	zero	EXPCL-BASNM
                                        "	words 6-9 statistics
    006761  aa   000000 000000          	dec 0,0,0,0
    006762  aa   000000 000000
    006763  aa   000000 000000
    006764  aa   000000 000000
                                        "	word 10	BCI catalog name
    006765  aa  246 201 052 020         	bci	"DS15",6
                                        "	word 11	library, component
    006766  aa   000000 000000          	zero	0,0
                                        "	word 12	ss_name length
    006767  aa   000000 000004          	zero	,4
                                 2-920  " Program descriptor 299.
                                 2-921  DS16:  PRGDES  0,0,0,0,0,0,0,
                                 2-922                 ds16,EXPCL,DS16,.BNSYS+.BSPO                             TSSA0TBF
                                        "	word 1	ss_name
                                        	qstring	ds16
    006770  aa  144 163 061 066         	aci	"ds16",4
                                        "	word 2	program_size, load_size
    006771  aa   000000 000000          	zero	0,0
                                        "	word 3	entry_point, parameters
    006772  aa   000000 011000          	zero	0,.BNSYS+.BSPO
                                        "	word 4	seek_address,initial_load_address
    006773  aa   000000 000000          	zero	0,0
                                        "	word 5	command language offset and length
    006774  aa   002035 000000          	zero	EXPCL-BASNM
                                        "	words 6-9 statistics
    006775  aa   000000 000000          	dec 0,0,0,0
    006776  aa   000000 000000
    006777  aa   000000 000000
    007000  aa   000000 000000
                                        "	word 10	BCI catalog name
    007001  aa  246 201 062 020         	bci	"DS16",6
                                        "	word 11	library, component
    007002  aa   000000 000000          	zero	0,0
                                        "	word 12	ss_name length
    007003  aa   000000 000004          	zero	,4
                                 2-923  " Program descriptor 300.
                                 2-924  TTOP:  PRGDES  1,1,85567,5018,4912,128,106,  " Added by gtbl on 05/19/83  1801.0
                                 2-925                 ttop,EXPCL,.TTTOP,.BLUSE+.BGSPC                          STIA4PZX
                                        "	word 1	ss_name
                                        	qstring	ttop
    007004  aa  164 164 157 160         	aci	"ttop",4
                                        "	word 2	program_size, load_size
    007005  aa   011632 011460          	zero	5018,4912
                                        "	word 3	entry_point, parameters
    007006  aa   000200 000410          	zero	128,.BLUSE+.BGSPC
                                        "	word 4	seek_address,initial_load_address
    007007  aa   247077 000152          	zero	85567,106
                                        "	word 5	command language offset and length
    007010  aa   002035 000000          	zero	EXPCL-BASNM
                                        "	words 6-9 statistics
    007011  aa   000000 000000          	dec 0,0,0,0
    007012  aa   000000 000000
    007013  aa   000000 000000
    007014  aa   000000 000000
                                        "	word 10	BCI catalog name
    007015  aa  336 363 634 647         	bci	".TTTOP",6
                                        "	word 11	library, component
    007016  aa   000001 000001          	zero	1,1
                                        "	word 12	ss_name length
    007017  aa   000000 000004          	zero	,4
                                 2-926  " Program descriptor 301.
                                 2-927  STII:  PRGDES  1,0,27104,5380,5278,116,102,  " Added by gtbl on 05/19/83  1759.5
                                 2-928                 stii,EXPCL,.TSTII,.BLUSE+.BMASX+.BCMOV                   STIA4PZX
                                        "	word 1	ss_name
                                        	qstring	stii
    007020  aa  163 164 151 151         	aci	"stii",4
                                        "	word 2	program_size, load_size
    007021  aa   012404 012236          	zero	5380,5278
                                        "	word 3	entry_point, parameters
    007022  aa   000164 060010          	zero	116,.BLUSE+.BMASX+.BCMOV
                                        "	word 4	seek_address,initial_load_address
    007023  aa   064740 000146          	zero	27104,102
                                        "	word 5	command language offset and length
    007024  aa   002035 000000          	zero	EXPCL-BASNM
                                        "	words 6-9 statistics
    007025  aa   000000 000000          	dec 0,0,0,0
    007026  aa   000000 000000
    007027  aa   000000 000000
    007030  aa   000000 000000
                                        "	word 10	BCI catalog name
    007031  aa  336 362 633 131         	bci	".TSTII",6
                                        "	word 11	library, component
    007032  aa   000001 000000          	zero	1,0
                                        "	word 12	ss_name length
    007033  aa   000000 000004          	zero	,4
                                 2-929  " Program descriptor 302.
                                 2-930  CMDL:  PRGDES  1,0,161781,2034,1932,102,102,  " Added by gtbl on 05/19/83  1759.5
                                 2-931                 cmdl,EXPCL,.TSCLD,.BEXEC,LODX  MUST BE LAST DESCR.
                                        "	word 1	ss_name
                                        	qstring	cmdl
    007034  aa  143 155 144 154         	aci	"cmdl",4
                                        "	word 2	program_size, load_size
    007035  aa   003762 003614          	zero	2034,1932
                                        "	word 3	entry_point, parameters
    007036  aa   000146 000200          	zero	102,.BEXEC
                                        "	word 4	seek_address,initial_load_address
    007037  aa   473765 000146          	zero	161781,102
                                        "	word 5	command language offset and length
    007040  aa   002035 000000          	zero	EXPCL-BASNM
                                        "	words 6-9 statistics
    007041  aa   000000 000000          	dec 0,0,0,0
    007042  aa   000000 000000
    007043  aa   000000 000000
    007044  aa   000000 000000
                                        "	word 10	BCI catalog name
    007045  aa  336 362 234 324         	bci	".TSCLD",6
                                        "	word 11	library, component
    007046  aa   000001 000000          	zero	1,0
                                        "	word 12	ss_name length
    007047  aa   000000 000004          	zero	,4
                                 2-932  " Program descriptor end.
                        007050   2-933  segdef    basic_cmd_num       " Number of commands of the common command list
                                 2-934                                " used for BASIC.
    007050  aa   000000 000175   2-935  basic_cmd_num:      zero      ,.BASNM/2
                                 2-936
                        007051   2-937  segdef    common_cmd_num      " Number of commands in the common command list.
    007051  aa   000000 000176   2-938  common_cmd_num:     zero      ,.COMCL/2
                                 2-939
                        007052   2-940  segdef    bsed                " Program descriptor number for BSED.
    007052  aa   000000 000063   2-941  bsed:               zero      ,51
                                 2-942
                        007053   2-943  segdef    cmlcl               " Offset of primitive list for command loader
    007053  aa   000000 002041   2-944  cmlcl:              zero      ,CMLCL-BASNM
                                 2-945
                        007054   2-946  segdef    edbn                " Program descriptor number for EDBN.
    007054  aa   000000 000070   2-947  edbn:               zero      ,56
                                 2-948
    007055  aa   000000 0110 03  2-949            even
                        007056   2-950  segdef    primitives
    007056                       2-951  primitives:         null
    007056  aa   000000 000000   2-952  BASNM: zero
    007057  aa   000000 000000   2-953  COMCL: zero
    007060  aa  154 151 163 164  2-954         aci     ~list~,4
    007061  aa   000000 000004   2-955         dec     4
    007062  aa  163 141 166 145  2-956         aci     ~save~,4
    007063  aa   000000 000004   2-957         dec     4
    007064  aa  157 154 144 040  2-958         aci     ~old ~,4
    007065  aa   000000 000003   2-959         dec     3
    007066  aa  147 145 164 040  2-960         aci     ~get ~,4
    007067  aa   000000 000003   2-961         dec     3
    007070  aa  145 144 151 164  2-962         aci     ~edit~,4        CALL EDITOR
    007071  aa   000000 000004   2-963         dec     4
    007072  aa  143 141 164 141  2-964         aci     ~cata~,4 "CATALOG
    007073  aa   000000 000004   2-965         dec     4
    007074  aa  162 145 155 157  2-966         aci     ~remo~,4 "REMOVE
    007075  aa   000000 000004   2-967         dec     4
    007076  aa  141 146 164 040  2-968         aci     ~aft ~,4        AFT                                      4JS2
    007077  aa   000000 000003   2-969         dec     3                                                        4JS2
    007100  aa  162 145 154 145  2-970         aci     ~rele~,4 "RELEASE       PURGE
    007101  aa   000000 000004   2-971         dec     4
    007102  aa  143 162 165 156  2-972         aci     ~crun~,4
    007103  aa   000000 000004   2-973         dec     4
    007104  aa  144 162 165 156  2-974         aci     ~drun~,4
    007105  aa   000000 000004   2-975         dec     4
    007106  aa  152 163 164 163  2-976         aci     ~jsts~,4
    007107  aa   000000 000004   2-977         dec     4
    007110  aa  162 145 163 141  2-978         aci     ~resa~,4 "RESAVE
    007111  aa   000000 000004   2-979         dec     4
    007112  aa  141 143 143 145  2-980         aci     ~acce~,4 "ACCESS
    007113  aa   000000 000004   2-981         dec     4
    007114  aa   004004 004001   2-982         oct     004004004001    DUMMY FOR FULL SY**
    007115  aa   000000 000004   2-983         dec     4
    007116  aa   015000 000000   2-984         oct     015000000000
    007117  aa   000000 000001   2-985         dec     1
    007120  aa  055 040 040 040  2-986         aci     ~-   ~,4
    007121  aa   000000 000001   2-987         dec     1
    007122  aa  042 040 040 040  2-988         aci     ~"   ~,4
    007123  aa   000000 000001   2-989         dec     1
    007124  aa  143 157 156 166  2-990         aci     ~conv~,4
    007125  aa   000000 000004   2-991         dec     4
    007126  aa  152 162 156 040  2-992         aci     ~jrn ~,4
    007127  aa   000000 000003   2-993         dec     3
    007130  aa  144 151 163 160  2-994         aci     ~disp~,4 "DISPLAY
    007131  aa   000000 000004   2-995         dec     4
    007132  aa  163 145 161 165  2-996         aci     ~sequ~,4
    007133  aa   000000 000004   2-997         dec     4
    007134  aa  164 145 170 040  2-998         aci     ~tex ~,4
    007135  aa   000000 000003   2-999         dec     3
    007136  aa  141 163 143 141 2-1000         aci     ~asca~,4                                                 D.2
    007137  aa   000000 000004  2-1001         dec     4                                                        D.2
    007140  aa  141 163 143 142 2-1002         aci     ~ascb~,4 "ASCBCD
    007141  aa   000000 000004  2-1003         dec     4
    007142  aa  142 160 162 151 2-1004         aci     ~bpri~,4 "BPRINT
    007143  aa   000000 000004  2-1005         dec     4
    007144  aa  142 160 165 156 2-1006         aci     ~bpun~,4 "BPUNCH
    007145  aa   000000 000004  2-1007         dec     4
    007146  aa  142 143 144 141 2-1008         aci     ~bcda~,4 "BCDASC
    007147  aa   000000 000004  2-1009         dec     4
    007150  aa  160 162 151 156 2-1010         aci     ~prin~,4 "PRINT
    007151  aa   000000 000004  2-1011         dec     4
    007152  aa  143 141 162 144 2-1012         aci     ~card~,4                                                 4.2
    007153  aa   000000 000004  2-1013         dec     4                                                        4.2
    007154  aa  144 157 156 145 2-1014         aci     ~done~,4
    007155  aa   000000 000004  2-1015         dec     4
    007156  aa  142 171 145 040 2-1016         aci     ~bye ~,4
    007157  aa   000000 000003  2-1017         dec     3
    007160  aa  156 145 167 165 2-1018         aci     ~newu~,4
    007161  aa   000000 000004  2-1019         dec     4
    007162  aa  156 145 167 040 2-1020         aci     ~new ~,4
    007163  aa   000000 000003  2-1021         dec     3
    007164  aa  164 141 160 145 2-1022         aci     ~tape~,4
    007165  aa   000000 000004  2-1023         dec     4
    007166  aa  167 162 151 164 2-1024         aci     ~writ~,4        WRITE TAPE N / WRITE CEOF N
    007167  aa   000000 000004  2-1025         dec     4
    007170  aa  160 164 157 156 2-1026         aci     ~pton~,4        PRINT ON.
    007171  aa   000000 000004  2-1027         dec     4
    007172  aa  162 145 141 144 2-1028         aci     ~read~,4        READ TAPE N
    007173  aa   000000 000004  2-1029         dec     4
    007174  aa  160 164 157 146 2-1030         aci     ~ptof~,4        PRINT OFF
    007175  aa   000000 000004  2-1031         dec     4
    007176  aa  142 163 160 040 2-1032         aci     ~bsp ~,4        BSP TAPE N
    007177  aa   000000 000003  2-1033         dec     3
    007200  aa  162 145 167 040 2-1034         aci     ~rew ~,4        REW TAPE N
    007201  aa   000000 000003  2-1035         dec     3
    007202  aa  144 145 154 145 2-1036         aci     ~dele~,4        DELETE
    007203  aa   000000 000004  2-1037         dec     4
    007204  aa  154 151 142 040 2-1038         aci     ~lib ~,4        LIBRARY
    007205  aa   000000 000003  2-1039         dec     3
    007206  aa  160 165 162 147 2-1040         aci     ~purg~,4        PURGE
    007207  aa   000000 000004  2-1041         dec     4
    007210  aa  163 164 141 164 2-1042         aci     ~stat~,4
    007211  aa   000000 000004  2-1043         dec     4
    007212  aa  143 157 156 156 2-1044         aci     ~conn~,4        CONNECT
    007213  aa   000000 000004  2-1045         dec     4
    007214  aa  141 165 164 157 2-1046         aci     ~auto~,4
    007215  aa   000000 000004  2-1047         dec     4
    007216  aa  154 151 156 145 2-1048         aci     ~line~,4        TTY LINE LENGTH COMMAND
    007217  aa   000000 000004  2-1049         dec     4
    007220  aa  154 145 141 144 2-1050         aci     ~lead~,4        PPT LEADER
    007221  aa   000000 000004  2-1051         dec     4
    007222  aa  144 163 164 163 2-1052         aci     ~dsts~,4
    007223  aa   000000 000004  2-1053         dec     4
    007224  aa  144 141 142 164 2-1054         aci     ~dabt~,4
    007225  aa   000000 000004  2-1055         dec     4
    007226  aa  143 160 157 163 2-1056         aci     ~cpos~,4
    007227  aa   000000 000004  2-1057         dec     4
    007230  aa  143 155 157 144 2-1058         aci     ~cmod~,4
    007231  aa   000000 000004  2-1059         dec     4
    007232  aa  143 157 165 164 2-1060         aci     ~cout~,4
    007233  aa   000000 000004  2-1061         dec     4
    007234  aa  161 165 151 164 2-1062         aci     ~quit~,4        QUIT                                     TSSA0O9I
    007235  aa   000000 000004  2-1063         dec     4                                                        TSSA0O9I
    007236  aa  162 145 163 165 2-1064         aci     ~resu~,4        RESUME                                   TSSA0O9I
    007237  aa   000000 000004  2-1065         dec     4                                                        TSSA0O9I
    007240  aa  162 145 155 040 2-1066         aci     ~rem ~,4        REMARK                                   TSSA0O9I
    007241  aa   000000 000003  2-1067         dec     3                                                        TSSA0O9I
    007242  aa  141 142 143 040 2-1068         aci     ~abc ~,4
    007243  aa   000000 000003  2-1069         dec     3
    007244  aa  145 162 141 163 2-1070         aci     ~eras~,4 "ERASE
    007245  aa   000000 000004  2-1071         dec     4
    007246  aa  150 157 154 144 2-1072         aci     ~hold~,4
    007247  aa   000000 000004  2-1073         dec     4
    007250  aa  163 145 156 144 2-1074         aci     ~send~,4
    007251  aa   000000 000004  2-1075         dec     4
    007252  aa  154 145 156 147 2-1076         aci     ~leng~,4        LENGTH
    007253  aa   000000 000004  2-1077         dec     4
    007254  aa  150 145 154 160 2-1078         aci     ~help~,4
    007255  aa   000000 000004  2-1079         dec     4
    007256  aa  163 171 163 164 2-1080         aci     ~syst~,4 "SYSTEM
    007257  aa   000000 000004  2-1081         dec     4
    007260  aa  156 157 160 141 2-1082         aci     ~nopa~,4
    007261  aa   000000 000004  2-1083         dec     4
    007262  aa  160 141 162 151 2-1084         aci     ~pari~,4
    007263  aa   000000 000004  2-1085         dec     4
    007264  aa  162 145 143 157 2-1086         aci     ~reco~,4 "RECOVER
    007265  aa   000000 000004  2-1087         dec     4
    007266  aa  162 157 154 154 2-1088         aci     ~roll~,4 "ROLLBACK
    007267  aa   000000 000004  2-1089         dec     4
    007270  aa  154 165 143 151 2-1090         aci     ~luci~,4 "LUCID
    007271  aa   000000 000004  2-1091         dec     4
    007272  aa  160 145 162 155 2-1092         aci     ~perm~,4
    007273  aa   000000 000004  2-1093         dec     4
    007274  aa  152 157 165 164 2-1094         aci     ~jout~,4
    007275  aa   000000 000004  2-1095         dec     4
    007276  aa  141 160 162 151 2-1096         aci     ~apri~,4 "APRINT
    007277  aa   000000 000004  2-1097         dec     4
    007300  aa  146 144 165 155 2-1098         aci     ~fdum~,4 "FDUMP
    007301  aa   000000 000004  2-1099         dec     4
    007302  aa  152 141 142 164 2-1100         aci     ~jabt~,4
    007303  aa   000000 000004  2-1101         dec     4
    007304  aa  163 143 141 156 2-1102         aci     ~scan~,4
    007305  aa   000000 000004  2-1103         dec     4
    007306  aa  165 143 141 163 2-1104         aci     ~ucas~,4
    007307  aa   000000 000004  2-1105         dec     4
    007310  aa  154 143 141 163 2-1106         aci     ~lcas~,4
    007311  aa   000000 000004  2-1107         dec     4
    007312  aa  146 157 162 155 2-1108         aci     ~form~,4
    007313  aa   000000 000004  2-1109         dec     4
    007314  aa  156 146 157 162 2-1110         aci     ~nfor~,4
    007315  aa   000000 000004  2-1111         dec     4
    007316  aa  163 164 162 151 2-1112         aci     ~stri~,4        STRIP
    007317  aa   000000 000004  2-1113         dec     4
    007320  aa  163 155 143 154 2-1114         aci     ~smcl~,4
    007321  aa   000000 000004  2-1115         dec     4
    007322  aa  143 160 171 040 2-1116         aci     ~cpy ~,4
    007323  aa   000000 000003  2-1117         dec     3
    007324  aa  143 157 144 145 2-1118         aci     ~code~,4
    007325  aa   000000 000004  2-1119         dec     4
    007326  aa  144 145 143 157 2-1120         aci     ~deco~,4 "DECODE
    007327  aa   000000 000004  2-1121         dec     4
    007330  aa  163 141 142 164 2-1122         aci     ~sabt~,4
    007331  aa   000000 000004  2-1123         dec     4
    007332  aa  141 160 154 040 2-1124         aci     ~apl ~,4
    007333  aa   000000 000003  2-1125         dec     3
    007334  aa  152 160 162 151 2-1126         aci     ~jpri~,4 "JPRINT
    007335  aa   000000 000004  2-1127         dec     4
    007336  aa  152 160 165 156 2-1128         aci     ~jpun~,4 "JPUNCH
    007337  aa   000000 000004  2-1129         dec     4
    007340  aa  152 144 141 143 2-1130         aci     ~jdac~,4
    007341  aa   000000 000004  2-1131         dec     4
    007342  aa  154 157 144 170 2-1132         aci     ~lodx~,4
    007343  aa   000000 000004  2-1133         dec     4
    007344  aa  154 157 144 163 2-1134         aci     ~lods~,4
    007345  aa   000000 000004  2-1135         dec     4
    007346  aa  154 157 144 164 2-1136         aci     ~lodt~,4
    007347  aa   000000 000004  2-1137         dec     4
    007350  aa  155 141 163 164 2-1138         aci     ~mast~,4
    007351  aa   000000 000004  2-1139         dec     4
    007352  aa  143 162 156 040 2-1140         aci     ~crn ~,4        COBOL-74 RUN
    007353  aa   000000 000003  2-1141         dec     3
    007354  aa  146 162 156 040 2-1142         aci     ~frn ~,4
    007355  aa   000000 000003  2-1143         dec     3
    007356  aa  146 162 067 164 2-1144         aci     ~fr7t~,4        FR7T                                     TSSA0TCS
    007357  aa   000000 000004  2-1145         dec     4                                                        TSSA0TCS
    007360  aa  146 162 067 040 2-1146         aci     ~fr7 ~,4                                                 TSSA0TCS
    007361  aa   000000 000003  2-1147         dec     3                                                        TSSA0TCS
    007362  aa  142 162 156 040 2-1148         aci     ~brn ~,4
    007363  aa   000000 000003  2-1149         dec     3
    007364  aa  142 163 145 161 2-1150         aci     ~bseq~,4
    007365  aa   000000 000004  2-1151         dec     4
    007366  aa  162 165 156 157 2-1152         aci     ~runo~,4
    007367  aa   000000 000004  2-1153         dec     4
    007370  aa  142 141 163 151 2-1154         aci     ~basi~,4
    007371  aa   000000 000004  2-1155         dec     4
    007372  aa  144 141 164 141 2-1156         aci     ~data~,4
    007373  aa   000000 000004  2-1157         dec     4
    007374  aa  152 157 166 151 2-1158         aci     ~jovi~,4
    007375  aa   000000 000004  2-1159         dec     4
    007376  aa  171 146 157 162 2-1160         aci     ~yfor~,4
    007377  aa   000000 000004  2-1161         dec     4
    007400  aa  146 157 162 164 2-1162         aci     ~fort~,4
    007401  aa   000000 000004  2-1163         dec     4
    007402  aa  141 154 147 157 2-1164         aci     ~algo~,4
    007403  aa   000000 000004  2-1165         dec     4
    007404  aa  160 143 146 040 2-1166         aci     ~pcf ~,4                                                 TSSA4OHK
    007405  aa   000000 000003  2-1167         dec     3                                                        TSSA4OHK
    007406  aa  151 144 163 161 2-1168         aci     ~idsq~,4
    007407  aa   000000 000004  2-1169         dec     4
    007410  aa  151 151 144 163 2-1170         aci     ~iids~,4
    007411  aa   000000 000004  2-1171         dec     4
    007412  aa  154 157 147 157 2-1172         aci     ~logo~,4
    007413  aa   000000 000004  2-1173         dec     4
    007414  aa  144 142 165 040 2-1174         aci     ~dbu ~,4                                                 TSSA4M8U
    007415  aa   000000 000003  2-1175         dec     3                                                        TSSA4M8U
    007416  aa  164 163 141 162 2-1176         aci     ~tsar~,4
    007417  aa   000000 000004  2-1177         dec     4
    007420  aa  155 144 161 040 2-1178         aci     ~mdq ~,4
    007421  aa   000000 000003  2-1179         dec     3
    007422  aa  143 151 144 163 2-1180         aci     ~cids~,4
    007423  aa   000000 000004  2-1181         dec     4
    007424  aa  155 141 151 154 2-1182         aci     ~mail~,4
    007425  aa   000000 000004  2-1183         dec     4
    007426  aa  144 155 151 166 2-1184         aci     ~dmiv~,4
    007427  aa   000000 000004  2-1185         dec     4
    007430  aa  141 144 155 156 2-1186         aci     ~admn~,4
    007431  aa   000000 000004  2-1187         dec     4
    007432  aa  163 157 162 164 2-1188         aci     ~sort~,4                                                 4JS2
    007433  aa   000000 000004  2-1189         dec     4                                                        4JS2
    007434  aa  164 163 144 141 2-1190         aci     ~tsda~,4                                                 4JS2
    007435  aa   000000 000004  2-1191         dec     4                                                        4JS2
    007436  aa  160 141 163 163 2-1192         aci     ~pass~,4                                                 4JS2
    007437  aa   000000 000004  2-1193         dec     4                                                        4JS2
    007440  aa  141 160 142 040 2-1194         aci     ~apb ~,4                                                 4JS2
    007441  aa   000000 000003  2-1195         dec     3                                                        4JS2
    007442  aa  160 141 147 145 2-1196         aci     ~page~,4                                                 4JS2
    007443  aa   000000 000004  2-1197         dec     4                                                        4JS2
    007444  aa  164 145 155 160 2-1198         aci     ~temp~,4                                                 4JS2
    007445  aa   000000 000004  2-1199         dec     4                                                        4JS2
    007446  aa  164 164 157 160 2-1200         aci     ~ttop~,4                                                 STIA4PZX
    007447  aa   000000 000004  2-1201         dec     4                                                        STIA4PZX
    007450  aa  163 164 151 151 2-1202         aci     ~stii~,4                                                 STIA4PZX
    007451  aa   000000 000004  2-1203         dec     4                                                        STIA4PZX
                        000372  2-1204         equ     .BASNM,*-COMCL-1
                                2-1205  "
                                2-1206  "              COMMANDS BELOW HERE ARE COMMON FOR ANY
                                2-1207  "              NON-BASIC SYSTEM
                                2-1208  "
    007452  aa  162 145 163 145 2-1209         aci     ~rese~,4 "RESEQUENCE
    007453  aa   000000 000004  2-1210         dec     4
                        000374  2-1211         equ     .COMCL,*-COMCL-1
                                2-1212         ZEROP   C1              LIST
    007454  aa   000651 000000          	zero	C1-BASNM
                                2-1213         ZEROP   C3              SAVE
    007455  aa   000656 000000          	zero	C3-BASNM
                                2-1214         ZEROP   C5              OLD
    007456  aa   000665 000000          	zero	C5-BASNM
                                2-1215         ZEROP   C8              GET
    007457  aa   000674 000000          	zero	C8-BASNM
                                2-1216         ZEROP   C9              EDITOR
    007460  aa   000677 000000          	zero	C9-BASNM
                                2-1217         ZEROP   C10             CATALOG
    007461  aa   000702 000000          	zero	C10-BASNM
                                2-1218         ZEROP   C11             REMOVE
    007462  aa   000705 000000          	zero	C11-BASNM
                                2-1219         ZEROP   C23.1           AFT                                      4JS2
    007463  aa   000735 000000          	zero	C23.1-BASNM
                                2-1220         ZEROP   C24             RELEASE
    007464  aa   000740 000000          	zero	C24-BASNM
                                2-1221         ZEROP   C28             CRUN
    007465  aa   000754 000000          	zero	C28-BASNM
                                2-1222         ZEROP   C31             DRUN
    007466  aa   000765 000000          	zero	C31-BASNM
                                2-1223         ZEROP   C35             JSTS
    007467  aa   001012 000000          	zero	C35-BASNM
                                2-1224         ZEROP   C37             RESAVE
    007470  aa   001020 000000          	zero	C37-BASNM
                                2-1225         ZEROP   C38             ACCESS
    007471  aa   001023 000000          	zero	C38-BASNM
                                2-1226         ZEROP   C50             FULL SY**
    007472  aa   000712 000000          	zero	C50-BASNM
                                2-1227         ZEROP   C53             CR (CAUSES SY** BUFFER FLUSH ONLY)
    007473  aa   001070 000000          	zero	C53-BASNM
                                2-1228         ZEROP   C74             - (EDIT)
    007474  aa   000677 000000          	zero	C74-BASNM
                                2-1229         ZEROP   C75             " (CRUN)
    007475  aa   000754 000000          	zero	C75-BASNM
                                2-1230         ZEROP   C78             CONVERT
    007476  aa   001175 000000          	zero	C78-BASNM
                                2-1231         ZEROP   C79             JRN
    007477  aa   001200 000000          	zero	C79-BASNM
                                2-1232         ZEROP   C83             DISPLAY
    007500  aa   001214 000000          	zero	C83-BASNM
                                2-1233         ZEROP   C92             SEQU
    007501  aa   001133 000000          	zero	C92-BASNM
                                2-1234         ZEROP   C109            TEX
    007502  aa   001260 000000          	zero	C109-BASNM
                                2-1235         ZEROP   C52             ASCASC                                   2/H-2
    007503  aa   001075 000000          	zero	C52-BASNM
                                2-1236         ZEROP   C55             ASCBCD                                   2/H-2
    007504  aa   001100 000000          	zero	C55-BASNM
                                2-1237         ZEROP   C57             BPRINT                                   2/H-2
    007505  aa   001103 000000          	zero	C57-BASNM
                                2-1238         ZEROP   C58             BPUNCH                                   2/H-2
    007506  aa   001106 000000          	zero	C58-BASNM
                                2-1239         ZEROP   C59             BCDASC                                   2/H-2
    007507  aa   001111 000000          	zero	C59-BASNM
                                2-1240         ZEROP   C63             PRINT                                    2/H-2
    007510  aa   001114 000000          	zero	C63-BASNM
                                2-1241         ZEROP   C96             CARD                                     4.2
    007511  aa   001045 000000          	zero	C96-BASNM
                                2-1242         ZEROP   C2              DONE
    007512  aa   000654 000000          	zero	C2-BASNM
                                2-1243  BYEBYE:ZEROP   C4              BYE
    007513  aa   000661 000000          	zero	C4-BASNM
                                2-1244         ZEROP   C6              NEWUSER
    007514  aa   000671 000000          	zero	C6-BASNM
                                2-1245         ZEROP   C7              NEW
    007515  aa   000665 000000          	zero	C7-BASNM
                                2-1246         ZEROP   C12             TAPE
    007516  aa   000710 000000          	zero	C12-BASNM
                                2-1247         ZEROP   C13             WRITE TAPE N / WRITE CEOF N
    007517  aa   000715 000000          	zero	C13-BASNM
                                2-1248         ZEROP   C14             PRINT ON
    007520  aa   000716 000000          	zero	C14-BASNM
                                2-1249         ZEROP   C15             READ TAPE N
    007521  aa   000710 000000          	zero	C15-BASNM
                                2-1250         ZEROP   C16             PRINT OFF
    007522  aa   000716 000000          	zero	C16-BASNM
                                2-1251         ZEROP   C17             BSP TAPE N
    007523  aa   000716 000000          	zero	C17-BASNM
                                2-1252         ZEROP   C18             REW TAPE N
    007524  aa   000716 000000          	zero	C18-BASNM
                                2-1253         ZEROP   C19             DELETE
    007525  aa   000721 000000          	zero	C19-BASNM
                                2-1254         ZEROP   C20             LIB
    007526  aa   000665 000000          	zero	C20-BASNM
                                2-1255         ZEROP   C21             PURGE
    007527  aa   000724 000000          	zero	C21-BASNM
                                2-1256         ZEROP   C22             STATUS
    007530  aa   000727 000000          	zero	C22-BASNM
                                2-1257         ZEROP   C23             CONNECT
    007531  aa   000732 000000          	zero	C23-BASNM
                                2-1258         ZEROP   C25             AUTOMATIC
    007532  aa   000743 000000          	zero	C25-BASNM
                                2-1259         ZEROP   C26             LINE
    007533  aa   000746 000000          	zero	C26-BASNM
                                2-1260         ZEROP   C27             LEADER
    007534  aa   000751 000000          	zero	C27-BASNM
                                2-1261         ZEROP   C29             DSTS
    007535  aa   000757 000000          	zero	C29-BASNM
                                2-1262         ZEROP   C30             DABT
    007536  aa   000762 000000          	zero	C30-BASNM
                                2-1263         ZEROP   C32             CPOS
    007537  aa   000770 000000          	zero	C32-BASNM
                                2-1264         ZEROP   C33             CMOD
    007540  aa   000773 000000          	zero	C33-BASNM
                                2-1265         ZEROP   C34             COUT
    007541  aa   000776 000000          	zero	C34-BASNM
                                2-1266         ZEROP   C34.1           QUIT                                     TSSA0O9I
    007542  aa   001001 000000          	zero	C34.1-BASNM
                                2-1267         ZEROP   C34.2           RESUME                                   TSSA0O9I
    007543  aa   001004 000000          	zero	C34.2-BASNM
                                2-1268         ZEROP   C34.3           REMARK                                   TSSA0O9I
    007544  aa   001007 000000          	zero	C34.3-BASNM
                                2-1269         ZEROP   C36             ABACUS
    007545  aa   001015 000000          	zero	C36-BASNM
                                2-1270         ZEROP   C39             ERASE
    007546  aa   001026 000000          	zero	C39-BASNM
                                2-1271         ZEROP   C40             HOLD
    007547  aa   001031 000000          	zero	C40-BASNM
                                2-1272         ZEROP   C41             SEND
    007550  aa   001034 000000          	zero	C41-BASNM
                                2-1273         ZEROP   C42             LENGTH
    007551  aa   001037 000000          	zero	C42-BASNM
                                2-1274         ZEROP   C43             HELP
    007552  aa   001042 000000          	zero	C43-BASNM
                                2-1275         ZEROP   C44             SYSTEM
    007553  aa   001045 000000          	zero	C44-BASNM
                                2-1276         ZEROP   C45             NOPARITY
    007554  aa   001047 000000          	zero	C45-BASNM
                                2-1277         ZEROP   C46             PARITY
    007555  aa   001052 000000          	zero	C46-BASNM
                                2-1278         ZEROP   C47             RECOVER
    007556  aa   001055 000000          	zero	C47-BASNM
                                2-1279         ZEROP   C48             ROLLBACK
    007557  aa   001060 000000          	zero	C48-BASNM
                                2-1280         ZEROP   C49             LUCID
    007560  aa   001064 000000          	zero	C49-BASNM
                                2-1281         ZEROP   C51             PERM
    007561  aa   001065 000000          	zero	C51-BASNM
                                2-1282         ZEROP   C54             JOUT
    007562  aa   001072 000000          	zero	C54-BASNM
                                2-1283         ZEROP   C56             APRINT
    007563  aa   001117 000000          	zero	C56-BASNM
                                2-1284         ZEROP   C60             FDUMP
    007564  aa   001122 000000          	zero	C60-BASNM
                                2-1285         ZEROP   C61             JABT
    007565  aa   001125 000000          	zero	C61-BASNM
                                2-1286         ZEROP   C62             SCAN
    007566  aa   001130 000000          	zero	C62-BASNM
                                2-1287         ZEROP   C65             UPPER CASE
    007567  aa   001137 000000          	zero	C65-BASNM
                                2-1288         ZEROP   C66             LOWER CASE
    007570  aa   001142 000000          	zero	C66-BASNM
                                2-1289         ZEROP   C67             FORM
    007571  aa   001145 000000          	zero	C67-BASNM
                                2-1290         ZEROP   C68             NO FORM
    007572  aa   001150 000000          	zero	C68-BASNM
                                2-1291         ZEROP   C69             STRIP
    007573  aa   000721 000000          	zero	C69-BASNM
                                2-1292         ZEROP   C70             SMCL
    007574  aa   001153 000000          	zero	C70-BASNM
                                2-1293         ZEROP   C71             COPY
    007575  aa   001156 000000          	zero	C71-BASNM
                                2-1294         ZEROP   C72             CODE
    007576  aa   001161 000000          	zero	C72-BASNM
                                2-1295         ZEROP   C73             DECODE
    007577  aa   001164 000000          	zero	C73-BASNM
                                2-1296         ZEROP   C76             SABT
    007600  aa   001167 000000          	zero	C76-BASNM
                                2-1297         ZEROP   C77             APL
    007601  aa   001172 000000          	zero	C77-BASNM
                                2-1298         ZEROP   C80             JPRINT
    007602  aa   001203 000000          	zero	C80-BASNM
                                2-1299         ZEROP   C81             JPUNCH
    007603  aa   001206 000000          	zero	C81-BASNM
                                2-1300         ZEROP   C82             JDAC
    007604  aa   001211 000000          	zero	C82-BASNM
                                2-1301         ZEROP   C84             LODX
    007605  aa   001217 000000          	zero	C84-BASNM
                                2-1302         ZEROP   C85             LODS
    007606  aa   001222 000000          	zero	C85-BASNM
                                2-1303         ZEROP   C86             LODT
    007607  aa   001225 000000          	zero	C86-BASNM
                                2-1304         ZEROP   C87             MAST
    007610  aa   001230 000000          	zero	C87-BASNM
                                2-1305         ZEROP   C88             CRN  COBOL-74 RUN
    007611  aa   001233 000000          	zero	C88-BASNM
                                2-1306         ZEROP   F1              FRN
    007612  aa   001416 000000          	zero	F1-BASNM
                                2-1307         ZEROP   FR7T.4          FR7T                                     TSSA0TCS
    007613  aa   001434 000000          	zero	FR7T.4-BASNM
                                2-1308         ZEROP   FR7.4           FR7                                      TSSA0TCS
    007614  aa   001425 000000          	zero	FR7.4-BASNM
                                2-1309         ZEROP   B1              BRN
    007615  aa   001324 000000          	zero	B1-BASNM
                                2-1310         ZEROP   B2              BSEQ
    007616  aa   001330 000000          	zero	B2-BASNM
                                2-1311         ZEROP   C93             RUNO
    007617  aa   001236 000000          	zero	C93-BASNM
                                2-1312         ZEROP   C94             BASI
    007620  aa   001045 000000          	zero	C94-BASNM
                                2-1313         ZEROP   C95             DATA
    007621  aa   001045 000000          	zero	C95-BASNM
                                2-1314         ZEROP   C97             JOVI
    007622  aa   001045 000000          	zero	C97-BASNM
                                2-1315         ZEROP   C98             YFOR
    007623  aa   001045 000000          	zero	C98-BASNM
                                2-1316         ZEROP   C99             FORT
    007624  aa   001045 000000          	zero	C99-BASNM
                                2-1317         ZEROP   C100            ALGO
    007625  aa   001045 000000          	zero	C100-BASNM
                                2-1318         ZEROP   C122            PCF                                      TSSA4OHK
    007626  aa   001313 000000          	zero	C122-BASNM
                                2-1319         ZEROP   C101            IDSQ
    007627  aa   001241 000000          	zero	C101-BASNM
                                2-1320         ZEROP   C102            IIDS
    007630  aa   001244 000000          	zero	C102-BASNM
                                2-1321         ZEROP   C103            LOGO
    007631  aa   000663 000000          	zero	C103-BASNM
                                2-1322         ZEROP   C120            DBU                                      TSSA4M8U
    007632  aa   001310 000000          	zero	C120-BASNM
                                2-1323         ZEROP   C104            TSAR
    007633  aa   001247 000000          	zero	C104-BASNM
                                2-1324         ZEROP   C105            MDQ
    007634  aa   001045 000000          	zero	C105-BASNM
                                2-1325         ZEROP   C106            CIDS- COEXISTANCE IDS
    007635  aa   001252 000000          	zero	C106-BASNM
                                2-1326         ZEROP   C107            MAIL
    007636  aa   001255 000000          	zero	C107-BASNM
                                2-1327         ZEROP   C108            DMIV
    007637  aa   001045 000000          	zero	C108-BASNM
                                2-1328         ZEROP   C109.1          ADMN
    007640  aa   001263 000000          	zero	C109.1-BASNM
                                2-1329         ZEROP   C110            SORT                                     4JS2
    007641  aa   001266 000000          	zero	C110-BASNM
                                2-1330         ZEROP   C111            TSDA                                     4JS2
    007642  aa   001271 000000          	zero	C111-BASNM
                                2-1331         ZEROP   C112            PASS                                     4JS2
    007643  aa   001274 000000          	zero	C112-BASNM
                                2-1332         ZEROP   C113            APB                                      4JS2
    007644  aa   001277 000000          	zero	C113-BASNM
                                2-1333         ZEROP   C114            PAGE                                     4JS2
    007645  aa   001302 000000          	zero	C114-BASNM
                                2-1334         ZEROP   C115            TEMP                                     4JS2
    007646  aa   001305 000000          	zero	C115-BASNM
                                2-1335         ZEROP   C118            TTOP                                     STIA4PZX
    007647  aa   001316 000000          	zero	C118-BASNM
                                2-1336         ZEROP   C119            STII                                     STIA4PZX
    007650  aa   001321 000000          	zero	C119-BASNM
                                2-1337  ".X     SET     0                                                         -PSP-
                                2-1338  "       DUP     2,.LXTRA                                                  -PSP-
                                2-1339  "       ZERO    C999+.X         UNUSED PRIMITIVE POINTER                  -PSP-
                                2-1340  ".X     SET     .X+1                                                      -PSP-
                                2-1341         ZEROP   C64             RESEQUENCE (NON-BASIC)
    007651  aa   001133 000000          	zero	C64-BASNM
                                2-1342  "
                                2-1343            even
    007652                      2-1344  NONECL:null    DEFAULT SYSTEM SELECTION
                                2-1345         ZEROP   .BIN            START-UP PRIMITIVE
    007652  aa   002046 000000          	zero	.BIN-BASNM
                                2-1346  "
                                2-1347  "
                                2-1348  BRNCL: ZEROP   *+1
    007653  aa   000576 000000          	zero	*+1-BASNM
                                2-1349         CALLP   BSED,.SW17      BRN FROM CALLSS
    007654  aa   000063 012101          	vfd	18/(BSED-.TPD)/12+1,6/1,6/.SW17,6/1
                                2-1350  BRN.1: CALLP   BASY
    007655  aa   000056 000001          	vfd	18/(BASY-.TPD)/12+1,6/0,6/0,6/1
                                2-1351         IFTRUE  .SW9,BRN.1
    007656  aa   000577 001111          	vfd	18/BRN.1-BASNM,12/.SW9,6/9
                                2-1352         POPUP
    007657  aa   000000 000004          	zero	0,4
                                2-1353  "
                                2-1354  FRNCL: ZEROP   *+1
    007660  aa   000603 000000          	zero	*+1-BASNM
                                2-1355         STRUE   .SW0,FRN.1      FRN FROM CALLSS
    007661  aa   000604 000013          	vfd	18/FRN.1-BASNM,12/.SW0,6/11
                                2-1356  FRN.1: STRUE   .SW1,FRN.2
    007662  aa   000605 000113          	vfd	18/FRN.2-BASNM,12/.SW1,6/11
                                2-1357  FRN.2: STFALS  .SW2,FRN.3
    007663  aa   000606 000212          	vfd	18/FRN.3-BASNM,12/.SW2,6/10
                                2-1358  FRN.3: XCALL   RUNY
                                               CALLP   BSED,17
    007664  aa   000063 012101          	vfd	18/(BSED-.TPD)/12+1,6/1,6/17,6/1
                                               CALLP   RUNY
    007665  aa   000141 000001          	vfd	18/(RUNY-.TPD)/12+1,6/0,6/0,6/1
                                2-1359         CALLP   .YQ0,.SW40
    007666  aa   000173 015001          	vfd	18/(.YQ0-.TPD)/12+1,6/1,6/.SW40,6/1
                                2-1360         POPUP
    007667  aa   000000 000004          	zero	0,4
                                2-1361  "
                                2-1362  "                                                                       TSSA0RGW
                                2-1363  FR7CL: ZEROP   FR7.0           TASK FORT77                              TSSA0RGW
    007670  aa   000613 000000          	zero	FR7.0-BASNM
                                2-1364  FR7.0: STFALS  .SW0,FR7.1                                               TSSA0T6C
    007671  aa   000614 000012          	vfd	18/FR7.1-BASNM,12/.SW0,6/10
                                2-1365  FR7.1: STFALS  .SW1,FR7.2                                               TSSA0T6C
    007672  aa   000615 000112          	vfd	18/FR7.2-BASNM,12/.SW1,6/10
                                2-1366  FR7.2: STFALS  .SW2,FR7.3                                               TSSA0T6C
    007673  aa   000616 000212          	vfd	18/FR7.3-BASNM,12/.SW2,6/10
                                2-1367  FR7.3: XCALL   sevenFOR                                                 TSSA0RGW
                                               CALLP   BSED,17
    007674  aa   000063 012101          	vfd	18/(BSED-.TPD)/12+1,6/1,6/17,6/1
                                               CALLP   sevenFOR
    007675  aa   000326 000001          	vfd	18/(sevenFOR-.TPD)/12+1,6/0,6/0,6/1
                                2-1368         CALLP   sevenP0,.SW40                                            TSSA0RGW
    007676  aa   000204 015001          	vfd	18/(sevenP0-.TPD)/12+1,6/1,6/.SW40,6/1
                                2-1369         POPUP                                                            TSSA0RGW
    007677  aa   000000 000004          	zero	0,4
                                2-1370  "                                                                       TSSA0RGW
                                2-1371  FR7TCL:ZEROP   FR7T.0          TSS FORT77                               TSSA0RGW
    007700  aa   000623 000000          	zero	FR7T.0-BASNM
                                2-1372  FR7T.0:STRUE   .SW0,FR7T.1                                              TSSA0T6C
    007701  aa   000624 000013          	vfd	18/FR7T.1-BASNM,12/.SW0,6/11
                                2-1373  FR7T.1:STRUE   .SW1,FR7T.2                                              TSSA0T6C
    007702  aa   000625 000113          	vfd	18/FR7T.2-BASNM,12/.SW1,6/11
                                2-1374  FR7T.2:STRUE   .SW2,FR7T.3                                              TSSA0T6C
    007703  aa   000626 000213          	vfd	18/FR7T.3-BASNM,12/.SW2,6/11
                                2-1375  FR7T.3:XCALL   sevenFOR                                                 TSSA0RGW
                                               CALLP   BSED,17
    007704  aa   000063 012101          	vfd	18/(BSED-.TPD)/12+1,6/1,6/17,6/1
                                               CALLP   sevenFOR
    007705  aa   000326 000001          	vfd	18/(sevenFOR-.TPD)/12+1,6/0,6/0,6/1
                                2-1376         CALLP   sevenP0,.SW40                                            TSSA0RGW
    007706  aa   000204 015001          	vfd	18/(sevenP0-.TPD)/12+1,6/1,6/.SW40,6/1
                                2-1377         POPUP                                                            TSSA0RGW
    007707  aa   000000 000004          	zero	0,4
                                2-1378  "                                                                       TSSA0RGW
                                2-1379  "
                                2-1380  BSQCL: ZEROP   *+1
    007710  aa   000633 000000          	zero	*+1-BASNM
                                2-1381         STFALS  .SW14,BSQ.1     BSEQ FROM CALLSS
    007711  aa   000634 001612          	vfd	18/BSQ.1-BASNM,12/.SW14,6/10
                                2-1382  BSQ.1: XCALL   RESE
                                               CALLP   BSED,17
    007712  aa   000063 012101          	vfd	18/(BSED-.TPD)/12+1,6/1,6/17,6/1
                                               CALLP   RESE
    007713  aa   000060 000001          	vfd	18/(RESE-.TPD)/12+1,6/0,6/0,6/1
                                2-1383         POPUP
    007714  aa   000000 000004          	zero	0,4
                                2-1384  SEQCL: ZEROP   *+1
    007715  aa   000640 000000          	zero	*+1-BASNM
                                2-1385         STRUE   .SW14,BSQ.1     SEQU FROM CALLSS
    007716  aa   000634 001613          	vfd	18/BSQ.1-BASNM,12/.SW14,6/11
                                2-1386  "
    007717  aa   000000 0110 03 2-1387            even
    007720  aa  162 165 156 040 2-1388  BASCL: aci     ~run ~,4
    007721  aa   000000 000003  2-1389         dec     3
    007722  aa  162 145 163 145 2-1390         aci     ~rese~,4
    007723  aa   000000 000004  2-1391         dec     4
                                2-1392         ZEROP   B1              RUN
    007724  aa   001324 000000          	zero	B1-BASNM
                                2-1393         ZEROP   B2              RESEQUENCE
    007725  aa   001330 000000          	zero	B2-BASNM
                                2-1394         ZEROP   B3              STARTUP
    007726  aa   001331 000000          	zero	B3-BASNM
                                2-1395  "
                                2-1396  C1:    XCALL   LIST,BIN        LIST
                                               CALLP   BSED,17
    007727  aa   000063 012101          	vfd	18/(BSED-.TPD)/12+1,6/1,6/17,6/1
                                               CALLP   LIST
    007730  aa   000064 000001          	vfd	18/(LIST-.TPD)/12+1,6/0,6/0,6/1
                                               BIN
    007731  aa   000000 000003          	zero	0,3
                                2-1397  C2:    CALLP   BSED,.SW17      DONE
    007732  aa   000063 012101          	vfd	18/(BSED-.TPD)/12+1,6/1,6/.SW17,6/1
                                2-1398  C2.1:  POPUP
    007733  aa   000000 000004          	zero	0,4
                                2-1399  C3:    XCALL   SAVE,BIN        SAVE
                                               CALLP   BSED,17
    007734  aa   000063 012101          	vfd	18/(BSED-.TPD)/12+1,6/1,6/17,6/1
                                               CALLP   SAVE
    007735  aa   000057 000001          	vfd	18/(SAVE-.TPD)/12+1,6/0,6/0,6/1
                                               BIN
    007736  aa   000000 000003          	zero	0,3
                                2-1400  C4:    XCALL   PERM            BYE
                                               CALLP   BSED,17
    007737  aa   000063 012101          	vfd	18/(BSED-.TPD)/12+1,6/1,6/17,6/1
                                               CALLP   PERM
    007740  aa   000102 000001          	vfd	18/(PERM-.TPD)/12+1,6/0,6/0,6/1
                                2-1401  C4.1:  CALLP   LOGO            LOGOFF
    007741  aa   000041 000001          	vfd	18/(LOGO-.TPD)/12+1,6/0,6/0,6/1
                                2-1402         POPUP
    007742  aa   000000 000004          	zero	0,4
                                2-1403  C5:    STRUE   .SW15,C5.1      OLD
    007743  aa   000666 001713          	vfd	18/C5.1-BASNM,12/.SW15,6/11
                                2-1404  C5.1:  XCALL   OLDNEW,BIN
                                               CALLP   BSED,17
    007744  aa   000063 012101          	vfd	18/(BSED-.TPD)/12+1,6/1,6/17,6/1
                                               CALLP   OLDNEW
    007745  aa   000062 000001          	vfd	18/(OLDNEW-.TPD)/12+1,6/0,6/0,6/1
                                               BIN
    007746  aa   000000 000003          	zero	0,3
                                2-1405  C6:    XCALL   NEWU,BIN        NEWUSER
                                               CALLP   BSED,17
    007747  aa   000063 012101          	vfd	18/(BSED-.TPD)/12+1,6/1,6/17,6/1
                                               CALLP   NEWU
    007750  aa   000042 000001          	vfd	18/(NEWU-.TPD)/12+1,6/0,6/0,6/1
                                               BIN
    007751  aa   000000 000003          	zero	0,3
                        007743  2-1406         equ     C7,C5           NEW
                                2-1407  C8:    XCALL   GET,BIN         GET
                                               CALLP   BSED,17
    007752  aa   000063 012101          	vfd	18/(BSED-.TPD)/12+1,6/1,6/17,6/1
                                               CALLP   GET
    007753  aa   000077 000001          	vfd	18/(GET-.TPD)/12+1,6/0,6/0,6/1
                                               BIN
    007754  aa   000000 000003          	zero	0,3
                                2-1408  C9:    XCALL   EDTX,BIN        EDITOR
                                               CALLP   BSED,17
    007755  aa   000063 012101          	vfd	18/(BSED-.TPD)/12+1,6/1,6/17,6/1
                                               CALLP   EDTX
    007756  aa   000022 000001          	vfd	18/(EDTX-.TPD)/12+1,6/0,6/0,6/1
                                               BIN
    007757  aa   000000 000003          	zero	0,3
                                2-1409  C10:   XCALL   CATA,BIN        CATALOG
                                               CALLP   BSED,17
    007760  aa   000063 012101          	vfd	18/(BSED-.TPD)/12+1,6/1,6/17,6/1
                                               CALLP   CATA
    007761  aa   000101 000001          	vfd	18/(CATA-.TPD)/12+1,6/0,6/0,6/1
                                               BIN
    007762  aa   000000 000003          	zero	0,3
                                2-1410  C11:   XCALL   REMO,BIN        REMOVE
                                               CALLP   BSED,17
    007763  aa   000063 012101          	vfd	18/(BSED-.TPD)/12+1,6/1,6/17,6/1
                                               CALLP   REMO
    007764  aa   000103 000001          	vfd	18/(REMO-.TPD)/12+1,6/0,6/0,6/1
                                               BIN
    007765  aa   000000 000003          	zero	0,3
                                2-1411  C12:   XCALL   TAPE            TAPE
                                               CALLP   BSED,17
    007766  aa   000063 012101          	vfd	18/(BSED-.TPD)/12+1,6/1,6/17,6/1
                                               CALLP   TAPE
    007767  aa   000065 000001          	vfd	18/(TAPE-.TPD)/12+1,6/0,6/0,6/1
                                2-1412  C12.1: STRUE   .SW10,*+1
    007770  aa   000713 001213          	vfd	18/*+1-BASNM,12/.SW10,6/11
                                2-1413         CALLP   BSED
    007771  aa   000063 000001          	vfd	18/(BSED-.TPD)/12+1,6/0,6/0,6/1
                                2-1414         STFALS  .SW10,.BIN
    007772  aa   002046 001212          	vfd	18/.BIN-BASNM,12/.SW10,6/10
                                2-1415  C13:   STRUE   .SW4,C13.1      WRITE TAPE N / WRITE CEOF N
    007773  aa   000716 000413          	vfd	18/C13.1-BASNM,12/.SW4,6/11
                                2-1416  C13.1: XCALL   TAPE,BIN
                                               CALLP   BSED,17
    007774  aa   000063 012101          	vfd	18/(BSED-.TPD)/12+1,6/1,6/17,6/1
                                               CALLP   TAPE
    007775  aa   000065 000001          	vfd	18/(TAPE-.TPD)/12+1,6/0,6/0,6/1
                                               BIN
    007776  aa   000000 000003          	zero	0,3
                        007774  2-1417         equ     C14,C13.1       PRINT ON.
                        007766  2-1418         equ     C15,C12         READ TAPE N
                        007774  2-1419         equ     C16,C13.1       PRINT OFF.
                        007774  2-1420         equ     C17,C13.1       BSP TAPE N
                        007774  2-1421         equ     C18,C13.1       REW TAPE N
                                2-1422  C19:   XCALL   DELETE,BIN      DELETE
                                               CALLP   BSED,17
    007777  aa   000063 012101          	vfd	18/(BSED-.TPD)/12+1,6/1,6/17,6/1
                                               CALLP   DELETE
    010000  aa   000061 000001          	vfd	18/(DELETE-.TPD)/12+1,6/0,6/0,6/1
                                               BIN
    010001  aa   000000 000003          	zero	0,3
                        007743  2-1423         equ     C20,C5          LIB
                                2-1424  C21:   XCALL   PURG,BIN        PURGE
                                               CALLP   BSED,17
    010002  aa   000063 012101          	vfd	18/(BSED-.TPD)/12+1,6/1,6/17,6/1
                                               CALLP   PURG
    010003  aa   000122 000001          	vfd	18/(PURG-.TPD)/12+1,6/0,6/0,6/1
                                               BIN
    010004  aa   000000 000003          	zero	0,3
                                2-1425  C22:   XCALL   STAT,BIN        STATUS
                                               CALLP   BSED,17
    010005  aa   000063 012101          	vfd	18/(BSED-.TPD)/12+1,6/1,6/17,6/1
                                               CALLP   STAT
    010006  aa   000043 000001          	vfd	18/(STAT-.TPD)/12+1,6/0,6/0,6/1
                                               BIN
    010007  aa   000000 000003          	zero	0,3
                                2-1426  C23:   XCALL   CONN,BIN        CONNECT
                                               CALLP   BSED,17
    010010  aa   000063 012101          	vfd	18/(BSED-.TPD)/12+1,6/1,6/17,6/1
                                               CALLP   CONN
    010011  aa   000044 000001          	vfd	18/(CONN-.TPD)/12+1,6/0,6/0,6/1
                                               BIN
    010012  aa   000000 000003          	zero	0,3
                                2-1427  C23.1: XCALL   AFT,BIN         AFT                                      4JS2
                                               CALLP   BSED,17
    010013  aa   000063 012101          	vfd	18/(BSED-.TPD)/12+1,6/1,6/17,6/1
                                               CALLP   AFT
    010014  aa   000045 000001          	vfd	18/(AFT-.TPD)/12+1,6/0,6/0,6/1
                                               BIN
    010015  aa   000000 000003          	zero	0,3
                                2-1428  C24:   XCALL   RELE,BIN        RELEASE
                                               CALLP   BSED,17
    010016  aa   000063 012101          	vfd	18/(BSED-.TPD)/12+1,6/1,6/17,6/1
                                               CALLP   RELE
    010017  aa   000123 000001          	vfd	18/(RELE-.TPD)/12+1,6/0,6/0,6/1
                                               BIN
    010020  aa   000000 000003          	zero	0,3
                                2-1429  C25:   XCALL   AUTO,BIN        AUTOMATIC
                                               CALLP   BSED,17
    010021  aa   000063 012101          	vfd	18/(BSED-.TPD)/12+1,6/1,6/17,6/1
                                               CALLP   AUTO
    010022  aa   000073 000001          	vfd	18/(AUTO-.TPD)/12+1,6/0,6/0,6/1
                                               BIN
    010023  aa   000000 000003          	zero	0,3
                                2-1430  C26:   XCALL   LINE,BIN        LINE
                                               CALLP   BSED,17
    010024  aa   000063 012101          	vfd	18/(BSED-.TPD)/12+1,6/1,6/17,6/1
                                               CALLP   LINE
    010025  aa   000074 000001          	vfd	18/(LINE-.TPD)/12+1,6/0,6/0,6/1
                                               BIN
    010026  aa   000000 000003          	zero	0,3
                                2-1431  C27:   XCALL   LEAD,BIN        LEADER
                                               CALLP   BSED,17
    010027  aa   000063 012101          	vfd	18/(BSED-.TPD)/12+1,6/1,6/17,6/1
                                               CALLP   LEAD
    010030  aa   000223 000001          	vfd	18/(LEAD-.TPD)/12+1,6/0,6/0,6/1
                                               BIN
    010031  aa   000000 000003          	zero	0,3
                                2-1432  C28:   XCALL   CRUN,BIN        CRUN
                                               CALLP   BSED,17
    010032  aa   000063 012101          	vfd	18/(BSED-.TPD)/12+1,6/1,6/17,6/1
                                               CALLP   CRUN
    010033  aa   000226 000001          	vfd	18/(CRUN-.TPD)/12+1,6/0,6/0,6/1
                                               BIN
    010034  aa   000000 000003          	zero	0,3
                                2-1433  C29:   XCALL   DSTS,BIN        DSTS
                                               CALLP   BSED,17
    010035  aa   000063 012101          	vfd	18/(BSED-.TPD)/12+1,6/1,6/17,6/1
                                               CALLP   DSTS
    010036  aa   000230 000001          	vfd	18/(DSTS-.TPD)/12+1,6/0,6/0,6/1
                                               BIN
    010037  aa   000000 000003          	zero	0,3
                                2-1434  C30:   XCALL   DABT,BIN        DABT
                                               CALLP   BSED,17
    010040  aa   000063 012101          	vfd	18/(BSED-.TPD)/12+1,6/1,6/17,6/1
                                               CALLP   DABT
    010041  aa   000231 000001          	vfd	18/(DABT-.TPD)/12+1,6/0,6/0,6/1
                                               BIN
    010042  aa   000000 000003          	zero	0,3
                                2-1435  C31:   XCALL   DRUN,BIN        DRUN
                                               CALLP   BSED,17
    010043  aa   000063 012101          	vfd	18/(BSED-.TPD)/12+1,6/1,6/17,6/1
                                               CALLP   DRUN
    010044  aa   000232 000001          	vfd	18/(DRUN-.TPD)/12+1,6/0,6/0,6/1
                                               BIN
    010045  aa   000000 000003          	zero	0,3
                                2-1436  C32:   XCALL   CPOS,BIN        CPOS
                                               CALLP   BSED,17
    010046  aa   000063 012101          	vfd	18/(BSED-.TPD)/12+1,6/1,6/17,6/1
                                               CALLP   CPOS
    010047  aa   000233 000001          	vfd	18/(CPOS-.TPD)/12+1,6/0,6/0,6/1
                                               BIN
    010050  aa   000000 000003          	zero	0,3
                                2-1437  C33:   XCALL   CMOD,BIN        CMOD
                                               CALLP   BSED,17
    010051  aa   000063 012101          	vfd	18/(BSED-.TPD)/12+1,6/1,6/17,6/1
                                               CALLP   CMOD
    010052  aa   000234 000001          	vfd	18/(CMOD-.TPD)/12+1,6/0,6/0,6/1
                                               BIN
    010053  aa   000000 000003          	zero	0,3
                                2-1438  C34:   XCALL   COUT,BIN        COUT
                                               CALLP   BSED,17
    010054  aa   000063 012101          	vfd	18/(BSED-.TPD)/12+1,6/1,6/17,6/1
                                               CALLP   COUT
    010055  aa   000235 000001          	vfd	18/(COUT-.TPD)/12+1,6/0,6/0,6/1
                                               BIN
    010056  aa   000000 000003          	zero	0,3
                                2-1439  C34.1: XCALL   QUIT,BIN        QUIT                                     TSSA0O9I
                                               CALLP   BSED,17
    010057  aa   000063 012101          	vfd	18/(BSED-.TPD)/12+1,6/1,6/17,6/1
                                               CALLP   QUIT
    010060  aa   000236 000001          	vfd	18/(QUIT-.TPD)/12+1,6/0,6/0,6/1
                                               BIN
    010061  aa   000000 000003          	zero	0,3
                                2-1440  C34.2: XCALL   RESU,BIN        RESUME                                   TSSA0O9I
                                               CALLP   BSED,17
    010062  aa   000063 012101          	vfd	18/(BSED-.TPD)/12+1,6/1,6/17,6/1
                                               CALLP   RESU
    010063  aa   000237 000001          	vfd	18/(RESU-.TPD)/12+1,6/0,6/0,6/1
                                               BIN
    010064  aa   000000 000003          	zero	0,3
                                2-1441  C34.3: XCALL   REM,BIN         REMARK                                   TSSA0O9I
                                               CALLP   BSED,17
    010065  aa   000063 012101          	vfd	18/(BSED-.TPD)/12+1,6/1,6/17,6/1
                                               CALLP   REM
    010066  aa   000240 000001          	vfd	18/(REM-.TPD)/12+1,6/0,6/0,6/1
                                               BIN
    010067  aa   000000 000003          	zero	0,3
                                2-1442  C35:   XCALL   JSTS,BIN        JSTS
                                               CALLP   BSED,17
    010070  aa   000063 012101          	vfd	18/(BSED-.TPD)/12+1,6/1,6/17,6/1
                                               CALLP   JSTS
    010071  aa   000113 000001          	vfd	18/(JSTS-.TPD)/12+1,6/0,6/0,6/1
                                               BIN
    010072  aa   000000 000003          	zero	0,3
                                2-1443  C36:   XCALL   ABC,BIN         ABACUS
                                               CALLP   BSED,17
    010073  aa   000063 012101          	vfd	18/(BSED-.TPD)/12+1,6/1,6/17,6/1
                                               CALLP   ABC
    010074  aa   000114 000001          	vfd	18/(ABC-.TPD)/12+1,6/0,6/0,6/1
                                               BIN
    010075  aa   000000 000003          	zero	0,3
                                2-1444  C37:   XCALL   RESA,BIN        RESAVE
                                               CALLP   BSED,17
    010076  aa   000063 012101          	vfd	18/(BSED-.TPD)/12+1,6/1,6/17,6/1
                                               CALLP   RESA
    010077  aa   000132 000001          	vfd	18/(RESA-.TPD)/12+1,6/0,6/0,6/1
                                               BIN
    010100  aa   000000 000003          	zero	0,3
                                2-1445  C38:   XCALL   ACCESS,BIN      ACCESS
                                               CALLP   BSED,17
    010101  aa   000063 012101          	vfd	18/(BSED-.TPD)/12+1,6/1,6/17,6/1
                                               CALLP   ACCESS
    010102  aa   000020 000001          	vfd	18/(ACCESS-.TPD)/12+1,6/0,6/0,6/1
                                               BIN
    010103  aa   000000 000003          	zero	0,3
                                2-1446  C39:   XCALL   ERAS,BIN        ERASE
                                               CALLP   BSED,17
    010104  aa   000063 012101          	vfd	18/(BSED-.TPD)/12+1,6/1,6/17,6/1
                                               CALLP   ERAS
    010105  aa   000131 000001          	vfd	18/(ERAS-.TPD)/12+1,6/0,6/0,6/1
                                               BIN
    010106  aa   000000 000003          	zero	0,3
                                2-1447  C40:   XCALL   HOLD,BIN        HOLD
                                               CALLP   BSED,17
    010107  aa   000063 012101          	vfd	18/(BSED-.TPD)/12+1,6/1,6/17,6/1
                                               CALLP   HOLD
    010110  aa   000115 000001          	vfd	18/(HOLD-.TPD)/12+1,6/0,6/0,6/1
                                               BIN
    010111  aa   000000 000003          	zero	0,3
                                2-1448  C41:   XCALL   SEND,BIN        SEND
                                               CALLP   BSED,17
    010112  aa   000063 012101          	vfd	18/(BSED-.TPD)/12+1,6/1,6/17,6/1
                                               CALLP   SEND
    010113  aa   000116 000001          	vfd	18/(SEND-.TPD)/12+1,6/0,6/0,6/1
                                               BIN
    010114  aa   000000 000003          	zero	0,3
                                2-1449  C42:   XCALL   LENG,BIN        LENGTH
                                               CALLP   BSED,17
    010115  aa   000063 012101          	vfd	18/(BSED-.TPD)/12+1,6/1,6/17,6/1
                                               CALLP   LENG
    010116  aa   000117 000001          	vfd	18/(LENG-.TPD)/12+1,6/0,6/0,6/1
                                               BIN
    010117  aa   000000 000003          	zero	0,3
                                2-1450  C43:   XCALL   HELP,BIN        HELP
                                               CALLP   BSED,17
    010120  aa   000063 012101          	vfd	18/(BSED-.TPD)/12+1,6/1,6/17,6/1
                                               CALLP   HELP
    010121  aa   000047 000001          	vfd	18/(HELP-.TPD)/12+1,6/0,6/0,6/1
                                               BIN
    010122  aa   000000 000003          	zero	0,3
                                2-1451  C44:   XCALL   SYST            SYSTEM
                                               CALLP   BSED,17
    010123  aa   000063 012101          	vfd	18/(BSED-.TPD)/12+1,6/1,6/17,6/1
                                               CALLP   SYST
    010124  aa   000224 000001          	vfd	18/(SYST-.TPD)/12+1,6/0,6/0,6/1
                                2-1452  C45:   XCALL   NOPAR,BIN       NOPARITY
                                               CALLP   BSED,17
    010125  aa   000063 012101          	vfd	18/(BSED-.TPD)/12+1,6/1,6/17,6/1
                                               CALLP   NOPAR
    010126  aa   000134 000001          	vfd	18/(NOPAR-.TPD)/12+1,6/0,6/0,6/1
                                               BIN
    010127  aa   000000 000003          	zero	0,3
                                2-1453  C46:   XCALL   PARI,BIN        PARITY
                                               CALLP   BSED,17
    010130  aa   000063 012101          	vfd	18/(BSED-.TPD)/12+1,6/1,6/17,6/1
                                               CALLP   PARI
    010131  aa   000135 000001          	vfd	18/(PARI-.TPD)/12+1,6/0,6/0,6/1
                                               BIN
    010132  aa   000000 000003          	zero	0,3
                                2-1454  C47:   XCALL   RECO,BIN        RECOVER
                                               CALLP   BSED,17
    010133  aa   000063 012101          	vfd	18/(BSED-.TPD)/12+1,6/1,6/17,6/1
                                               CALLP   RECO
    010134  aa   000136 000001          	vfd	18/(RECO-.TPD)/12+1,6/0,6/0,6/1
                                               BIN
    010135  aa   000000 000003          	zero	0,3
                                2-1455  C48:   XCALL   RECO            ROLLBACK
                                               CALLP   BSED,17
    010136  aa   000063 012101          	vfd	18/(BSED-.TPD)/12+1,6/1,6/17,6/1
                                               CALLP   RECO
    010137  aa   000136 000001          	vfd	18/(RECO-.TPD)/12+1,6/0,6/0,6/1
                                2-1456         CALLP   BSED,.SW10
    010140  aa   000063 011201          	vfd	18/(BSED-.TPD)/12+1,6/1,6/.SW10,6/1
                                2-1457         BIN
    010141  aa   000000 000003          	zero	0,3
                                2-1458  C49:   STRUE   .SW5,C13.1      LUCID
    010142  aa   000716 000513          	vfd	18/C13.1-BASNM,12/.SW5,6/11
                        007770  2-1459         equ     C50,C12.1       FULL SY**
                                2-1460  C51:   XCALL   PERM,BIN        PERM
                                               CALLP   BSED,17
    010143  aa   000063 012101          	vfd	18/(BSED-.TPD)/12+1,6/1,6/17,6/1
                                               CALLP   PERM
    010144  aa   000102 000001          	vfd	18/(PERM-.TPD)/12+1,6/0,6/0,6/1
                                               BIN
    010145  aa   000000 000003          	zero	0,3
                                2-1461  C53:   CALLP   BSED,.SW17      CR IN LINE NUMBERED BUILD MODE
    010146  aa   000063 012101          	vfd	18/(BSED-.TPD)/12+1,6/1,6/.SW17,6/1
                                2-1462         BIN
    010147  aa   000000 000003          	zero	0,3
                                2-1463  C54:   XCALL   JOUT,BIN        JOUT
                                               CALLP   BSED,17
    010150  aa   000063 012101          	vfd	18/(BSED-.TPD)/12+1,6/1,6/17,6/1
                                               CALLP   JOUT
    010151  aa   000137 000001          	vfd	18/(JOUT-.TPD)/12+1,6/0,6/0,6/1
                                               BIN
    010152  aa   000000 000003          	zero	0,3
                                2-1464  C52:   XCALL   ASCASC,BIN      ASCASC                                   2/H-2
                                               CALLP   BSED,17
    010153  aa   000063 012101          	vfd	18/(BSED-.TPD)/12+1,6/1,6/17,6/1
                                               CALLP   ASCASC
    010154  aa   000010 000001          	vfd	18/(ASCASC-.TPD)/12+1,6/0,6/0,6/1
                                               BIN
    010155  aa   000000 000003          	zero	0,3
                                2-1465  C55:   XCALL   ASCBCD,BIN      ASCBCD                                   2/H-2
                                               CALLP   BSED,17
    010156  aa   000063 012101          	vfd	18/(BSED-.TPD)/12+1,6/1,6/17,6/1
                                               CALLP   ASCBCD
    010157  aa   000004 000001          	vfd	18/(ASCBCD-.TPD)/12+1,6/0,6/0,6/1
                                               BIN
    010160  aa   000000 000003          	zero	0,3
                                2-1466  C57:   XCALL   BPRI,BIN        BPRINT                                   2/H-2
                                               CALLP   BSED,17
    010161  aa   000063 012101          	vfd	18/(BSED-.TPD)/12+1,6/1,6/17,6/1
                                               CALLP   BPRI
    010162  aa   000005 000001          	vfd	18/(BPRI-.TPD)/12+1,6/0,6/0,6/1
                                               BIN
    010163  aa   000000 000003          	zero	0,3
                                2-1467  C58:   XCALL   BPUN,BIN        BPUNCH                                   2/H-2
                                               CALLP   BSED,17
    010164  aa   000063 012101          	vfd	18/(BSED-.TPD)/12+1,6/1,6/17,6/1
                                               CALLP   BPUN
    010165  aa   000006 000001          	vfd	18/(BPUN-.TPD)/12+1,6/0,6/0,6/1
                                               BIN
    010166  aa   000000 000003          	zero	0,3
                                2-1468  C59:   XCALL   BCDA,BIN        BCDASC                                   2/H-2
                                               CALLP   BSED,17
    010167  aa   000063 012101          	vfd	18/(BSED-.TPD)/12+1,6/1,6/17,6/1
                                               CALLP   BCDA
    010170  aa   000007 000001          	vfd	18/(BCDA-.TPD)/12+1,6/0,6/0,6/1
                                               BIN
    010171  aa   000000 000003          	zero	0,3
                                2-1469  C63:   XCALL   PRINT,BIN       PRINT                                    2/H-2
                                               CALLP   BSED,17
    010172  aa   000063 012101          	vfd	18/(BSED-.TPD)/12+1,6/1,6/17,6/1
                                               CALLP   PRINT
    010173  aa   000003 000001          	vfd	18/(PRINT-.TPD)/12+1,6/0,6/0,6/1
                                               BIN
    010174  aa   000000 000003          	zero	0,3
                        010123  2-1470         equ     C96,C44         CARD                                     4.2
                                2-1471  C56:   XCALL   APRT,BIN        APRINT
                                               CALLP   BSED,17
    010175  aa   000063 012101          	vfd	18/(BSED-.TPD)/12+1,6/1,6/17,6/1
                                               CALLP   APRT
    010176  aa   000121 000001          	vfd	18/(APRT-.TPD)/12+1,6/0,6/0,6/1
                                               BIN
    010177  aa   000000 000003          	zero	0,3
                                2-1472  C60:   XCALL   FDUMP,BIN       FDUMP
                                               CALLP   BSED,17
    010200  aa   000063 012101          	vfd	18/(BSED-.TPD)/12+1,6/1,6/17,6/1
                                               CALLP   FDUMP
    010201  aa   000076 000001          	vfd	18/(FDUMP-.TPD)/12+1,6/0,6/0,6/1
                                               BIN
    010202  aa   000000 000003          	zero	0,3
                                2-1473  C61:   XCALL   JABT,BIN        JABT
                                               CALLP   BSED,17
    010203  aa   000063 012101          	vfd	18/(BSED-.TPD)/12+1,6/1,6/17,6/1
                                               CALLP   JABT
    010204  aa   000120 000001          	vfd	18/(JABT-.TPD)/12+1,6/0,6/0,6/1
                                               BIN
    010205  aa   000000 000003          	zero	0,3
                                2-1474  C62:   XCALL   SCAN,BIN        SCAN
                                               CALLP   BSED,17
    010206  aa   000063 012101          	vfd	18/(BSED-.TPD)/12+1,6/1,6/17,6/1
                                               CALLP   SCAN
    010207  aa   000111 000001          	vfd	18/(SCAN-.TPD)/12+1,6/0,6/0,6/1
                                               BIN
    010210  aa   000000 000003          	zero	0,3
                                2-1475  C64:   STRUE   .SW14,C64.1     RESEQUENCE (NON-BASIC)
    010211  aa   001134 001613          	vfd	18/C64.1-BASNM,12/.SW14,6/11
                                2-1476  C64.1: XCALL   RESE,BIN
                                               CALLP   BSED,17
    010212  aa   000063 012101          	vfd	18/(BSED-.TPD)/12+1,6/1,6/17,6/1
                                               CALLP   RESE
    010213  aa   000060 000001          	vfd	18/(RESE-.TPD)/12+1,6/0,6/0,6/1
                                               BIN
    010214  aa   000000 000003          	zero	0,3
                                2-1477  C65:   XCALL   UCASE,BIN       UCASE
                                               CALLP   BSED,17
    010215  aa   000063 012101          	vfd	18/(BSED-.TPD)/12+1,6/1,6/17,6/1
                                               CALLP   UCASE
    010216  aa   000104 000001          	vfd	18/(UCASE-.TPD)/12+1,6/0,6/0,6/1
                                               BIN
    010217  aa   000000 000003          	zero	0,3
                                2-1478  C66:   XCALL   LCASE,BIN       LCASE
                                               CALLP   BSED,17
    010220  aa   000063 012101          	vfd	18/(BSED-.TPD)/12+1,6/1,6/17,6/1
                                               CALLP   LCASE
    010221  aa   000105 000001          	vfd	18/(LCASE-.TPD)/12+1,6/0,6/0,6/1
                                               BIN
    010222  aa   000000 000003          	zero	0,3
                                2-1479  C67:   XCALL   FORM,BIN        FORM
                                               CALLP   BSED,17
    010223  aa   000063 012101          	vfd	18/(BSED-.TPD)/12+1,6/1,6/17,6/1
                                               CALLP   FORM
    010224  aa   000106 000001          	vfd	18/(FORM-.TPD)/12+1,6/0,6/0,6/1
                                               BIN
    010225  aa   000000 000003          	zero	0,3
                                2-1480  C68:   XCALL   NFORM,BIN       NFORM
                                               CALLP   BSED,17
    010226  aa   000063 012101          	vfd	18/(BSED-.TPD)/12+1,6/1,6/17,6/1
                                               CALLP   NFORM
    010227  aa   000107 000001          	vfd	18/(NFORM-.TPD)/12+1,6/0,6/0,6/1
                                               BIN
    010230  aa   000000 000003          	zero	0,3
                        007777  2-1481         equ     C69,C19         STRIP
                                2-1482  C70:   XCALL   SMCL,BIN        SMCL
                                               CALLP   BSED,17
    010231  aa   000063 012101          	vfd	18/(BSED-.TPD)/12+1,6/1,6/17,6/1
                                               CALLP   SMCL
    010232  aa   000124 000001          	vfd	18/(SMCL-.TPD)/12+1,6/0,6/0,6/1
                                               BIN
    010233  aa   000000 000003          	zero	0,3
                                2-1483  C71:   XCALL   COPY,BIN        COPY
                                               CALLP   BSED,17
    010234  aa   000063 012101          	vfd	18/(BSED-.TPD)/12+1,6/1,6/17,6/1
                                               CALLP   COPY
    010235  aa   000125 000001          	vfd	18/(COPY-.TPD)/12+1,6/0,6/0,6/1
                                               BIN
    010236  aa   000000 000003          	zero	0,3
                                2-1484  C72:   XCALL   CODE,BIN        CODE
                                               CALLP   BSED,17
    010237  aa   000063 012101          	vfd	18/(BSED-.TPD)/12+1,6/1,6/17,6/1
                                               CALLP   CODE
    010240  aa   000126 000001          	vfd	18/(CODE-.TPD)/12+1,6/0,6/0,6/1
                                               BIN
    010241  aa   000000 000003          	zero	0,3
                                2-1485  C73:   XCALL   DECODE,BIN      DECODE
                                               CALLP   BSED,17
    010242  aa   000063 012101          	vfd	18/(BSED-.TPD)/12+1,6/1,6/17,6/1
                                               CALLP   DECODE
    010243  aa   000127 000001          	vfd	18/(DECODE-.TPD)/12+1,6/0,6/0,6/1
                                               BIN
    010244  aa   000000 000003          	zero	0,3
                        007755  2-1486         equ     C74,C9          - (ONE-LINER EDIT COMMAND)
                        010032  2-1487         equ     C75,C28         " (CRUN ABBREV)
                                2-1488  C76:   XCALL   SNAP,BIN        SABT
                                               CALLP   BSED,17
    010245  aa   000063 012101          	vfd	18/(BSED-.TPD)/12+1,6/1,6/17,6/1
                                               CALLP   SNAP
    010246  aa   000100 000001          	vfd	18/(SNAP-.TPD)/12+1,6/0,6/0,6/1
                                               BIN
    010247  aa   000000 000003          	zero	0,3
                                2-1489  C77:   XCALL   APL,BIN         APL
                                               CALLP   BSED,17
    010250  aa   000063 012101          	vfd	18/(BSED-.TPD)/12+1,6/1,6/17,6/1
                                               CALLP   APL
    010251  aa   000412 000001          	vfd	18/(APL-.TPD)/12+1,6/0,6/0,6/1
                                               BIN
    010252  aa   000000 000003          	zero	0,3
                                2-1490  C78:   XCALL   CONV,BIN        CONVERT
                                               CALLP   BSED,17
    010253  aa   000063 012101          	vfd	18/(BSED-.TPD)/12+1,6/1,6/17,6/1
                                               CALLP   CONV
    010254  aa   000027 000001          	vfd	18/(CONV-.TPD)/12+1,6/0,6/0,6/1
                                               BIN
    010255  aa   000000 000003          	zero	0,3
                                2-1491  C79:   XCALL   JRN,BIN         JRN
                                               CALLP   BSED,17
    010256  aa   000063 012101          	vfd	18/(BSED-.TPD)/12+1,6/1,6/17,6/1
                                               CALLP   JRN
    010257  aa   000030 000001          	vfd	18/(JRN-.TPD)/12+1,6/0,6/0,6/1
                                               BIN
    010260  aa   000000 000003          	zero	0,3
                                2-1492  C80:   XCALL   JPRINT,BIN      JPRINT
                                               CALLP   BSED,17
    010261  aa   000063 012101          	vfd	18/(BSED-.TPD)/12+1,6/1,6/17,6/1
                                               CALLP   JPRINT
    010262  aa   000031 000001          	vfd	18/(JPRINT-.TPD)/12+1,6/0,6/0,6/1
                                               BIN
    010263  aa   000000 000003          	zero	0,3
                                2-1493  C81:   XCALL   JPUNCH,BIN      JPUNCH
                                               CALLP   BSED,17
    010264  aa   000063 012101          	vfd	18/(BSED-.TPD)/12+1,6/1,6/17,6/1
                                               CALLP   JPUNCH
    010265  aa   000032 000001          	vfd	18/(JPUNCH-.TPD)/12+1,6/0,6/0,6/1
                                               BIN
    010266  aa   000000 000003          	zero	0,3
                                2-1494  C82:   XCALL   JDAC,BIN        JDAC
                                               CALLP   BSED,17
    010267  aa   000063 012101          	vfd	18/(BSED-.TPD)/12+1,6/1,6/17,6/1
                                               CALLP   JDAC
    010270  aa   000033 000001          	vfd	18/(JDAC-.TPD)/12+1,6/0,6/0,6/1
                                               BIN
    010271  aa   000000 000003          	zero	0,3
                                2-1495  C83:   XCALL   DISP,BIN        DISPLAY
                                               CALLP   BSED,17
    010272  aa   000063 012101          	vfd	18/(BSED-.TPD)/12+1,6/1,6/17,6/1
                                               CALLP   DISP
    010273  aa   000034 000001          	vfd	18/(DISP-.TPD)/12+1,6/0,6/0,6/1
                                               BIN
    010274  aa   000000 000003          	zero	0,3
                                2-1496  C84:   XCALL   LODX,BIN        LODX
                                               CALLP   BSED,17
    010275  aa   000063 012101          	vfd	18/(BSED-.TPD)/12+1,6/1,6/17,6/1
                                               CALLP   LODX
    010276  aa   000040 000001          	vfd	18/(LODX-.TPD)/12+1,6/0,6/0,6/1
                                               BIN
    010277  aa   000000 000003          	zero	0,3
                                2-1497  C85:   XCALL   LODS,BIN        LODS
                                               CALLP   BSED,17
    010300  aa   000063 012101          	vfd	18/(BSED-.TPD)/12+1,6/1,6/17,6/1
                                               CALLP   LODS
    010301  aa   000146 000001          	vfd	18/(LODS-.TPD)/12+1,6/0,6/0,6/1
                                               BIN
    010302  aa   000000 000003          	zero	0,3
                                2-1498  C86:   XCALL   LODT,BIN        LODT
                                               CALLP   BSED,17
    010303  aa   000063 012101          	vfd	18/(BSED-.TPD)/12+1,6/1,6/17,6/1
                                               CALLP   LODT
    010304  aa   000147 000001          	vfd	18/(LODT-.TPD)/12+1,6/0,6/0,6/1
                                               BIN
    010305  aa   000000 000003          	zero	0,3
                                2-1499  C87:   XCALL   MASTER,BIN      MAST
                                               CALLP   BSED,17
    010306  aa   000063 012101          	vfd	18/(BSED-.TPD)/12+1,6/1,6/17,6/1
                                               CALLP   MASTER
    010307  aa   000050 000001          	vfd	18/(MASTER-.TPD)/12+1,6/0,6/0,6/1
                                               BIN
    010310  aa   000000 000003          	zero	0,3
                                2-1500  C88:   XCALL   COBL74,BIN      C74 - COBOL-74 RUN
                                               CALLP   BSED,17
    010311  aa   000063 012101          	vfd	18/(BSED-.TPD)/12+1,6/1,6/17,6/1
                                               CALLP   COBL74
    010312  aa   000324 000001          	vfd	18/(COBL74-.TPD)/12+1,6/0,6/0,6/1
                                               BIN
    010313  aa   000000 000003          	zero	0,3
                        010211  2-1501         equ     C92,C64         SEQU - NON-BASIC RESEQUENCE
                                2-1502  C93:   XCALL   RUNOFF,BIN      RUNOFF
                                               CALLP   BSED,17
    010314  aa   000063 012101          	vfd	18/(BSED-.TPD)/12+1,6/1,6/17,6/1
                                               CALLP   RUNOFF
    010315  aa   000112 000001          	vfd	18/(RUNOFF-.TPD)/12+1,6/0,6/0,6/1
                                               BIN
    010316  aa   000000 000003          	zero	0,3
                        010123  2-1503         equ     C94,C44         BASIC
                        010123  2-1504         equ     C95,C44         DATA
                        010123  2-1505         equ     C97,C44         JOVI
                        010123  2-1506         equ     C98,C44         YFOR
                        010123  2-1507         equ     C99,C44         FORT
                        010123  2-1508         equ     C100,C44        ALGO
                                2-1509  C101:  XCALL   IDSQ,BIN        IDSQ
                                               CALLP   BSED,17
    010317  aa   000063 012101          	vfd	18/(BSED-.TPD)/12+1,6/1,6/17,6/1
                                               CALLP   IDSQ
    010320  aa   000153 000001          	vfd	18/(IDSQ-.TPD)/12+1,6/0,6/0,6/1
                                               BIN
    010321  aa   000000 000003          	zero	0,3
                                2-1510  C102:  XCALL   IIDS,BIN        IIDS
                                               CALLP   BSED,17
    010322  aa   000063 012101          	vfd	18/(BSED-.TPD)/12+1,6/1,6/17,6/1
                                               CALLP   IIDS
    010323  aa   000300 000001          	vfd	18/(IIDS-.TPD)/12+1,6/0,6/0,6/1
                                               BIN
    010324  aa   000000 000003          	zero	0,3
                        007741  2-1511         equ     C103,C4.1       LOGOFF
                                2-1512  C104:  XCALL   TSAR,BIN
                                               CALLP   BSED,17
    010325  aa   000063 012101          	vfd	18/(BSED-.TPD)/12+1,6/1,6/17,6/1
                                               CALLP   TSAR
    010326  aa   000051 000001          	vfd	18/(TSAR-.TPD)/12+1,6/0,6/0,6/1
                                               BIN
    010327  aa   000000 000003          	zero	0,3
                        010123  2-1513         equ     C105,C44        MDQ
                                2-1514  C106:  XCALL   CIDS,BIN        CIDS
                                               CALLP   BSED,17
    010330  aa   000063 012101          	vfd	18/(BSED-.TPD)/12+1,6/1,6/17,6/1
                                               CALLP   CIDS
    010331  aa   000302 000001          	vfd	18/(CIDS-.TPD)/12+1,6/0,6/0,6/1
                                               BIN
    010332  aa   000000 000003          	zero	0,3
                                2-1515  C107:  XCALL   MAIL,BIN        MAIL
                                               CALLP   BSED,17
    010333  aa   000063 012101          	vfd	18/(BSED-.TPD)/12+1,6/1,6/17,6/1
                                               CALLP   MAIL
    010334  aa   000035 000001          	vfd	18/(MAIL-.TPD)/12+1,6/0,6/0,6/1
                                               BIN
    010335  aa   000000 000003          	zero	0,3
                        010123  2-1516         equ     C108,C44
                                2-1517  C109:  XCALL   TEX,BIN         TEX
                                               CALLP   BSED,17
    010336  aa   000063 012101          	vfd	18/(BSED-.TPD)/12+1,6/1,6/17,6/1
                                               CALLP   TEX
    010337  aa   000023 000001          	vfd	18/(TEX-.TPD)/12+1,6/0,6/0,6/1
                                               BIN
    010340  aa   000000 000003          	zero	0,3
                                2-1518  C109.1:XCALL   ADMN,BIN        ADMN
                                               CALLP   BSED,17
    010341  aa   000063 012101          	vfd	18/(BSED-.TPD)/12+1,6/1,6/17,6/1
                                               CALLP   ADMN
    010342  aa   000145 000001          	vfd	18/(ADMN-.TPD)/12+1,6/0,6/0,6/1
                                               BIN
    010343  aa   000000 000003          	zero	0,3
                                2-1519  C110:  XCALL   SORT,BIN        SORT                                     4JS2
                                               CALLP   BSED,17
    010344  aa   000063 012101          	vfd	18/(BSED-.TPD)/12+1,6/1,6/17,6/1
                                               CALLP   SORT
    010345  aa   000036 000001          	vfd	18/(SORT-.TPD)/12+1,6/0,6/0,6/1
                                               BIN
    010346  aa   000000 000003          	zero	0,3
                                2-1520  C111:  XCALL   TSDA,BIN        TSDA                                     4JS2
                                               CALLP   BSED,17
    010347  aa   000063 012101          	vfd	18/(BSED-.TPD)/12+1,6/1,6/17,6/1
                                               CALLP   TSDA
    010350  aa   000144 000001          	vfd	18/(TSDA-.TPD)/12+1,6/0,6/0,6/1
                                               BIN
    010351  aa   000000 000003          	zero	0,3
                                2-1521  C112:  XCALL   PASS,BIN        PASS                                     4JS2
                                               CALLP   BSED,17
    010352  aa   000063 012101          	vfd	18/(BSED-.TPD)/12+1,6/1,6/17,6/1
                                               CALLP   PASS
    010353  aa   000142 000001          	vfd	18/(PASS-.TPD)/12+1,6/0,6/0,6/1
                                               BIN
    010354  aa   000000 000003          	zero	0,3
                                2-1522  C113:  XCALL   APB,BIN         APB                                      4JS2
                                               CALLP   BSED,17
    010355  aa   000063 012101          	vfd	18/(BSED-.TPD)/12+1,6/1,6/17,6/1
                                               CALLP   APB
    010356  aa   000143 000001          	vfd	18/(APB-.TPD)/12+1,6/0,6/0,6/1
                                               BIN
    010357  aa   000000 000003          	zero	0,3
                                2-1523  C114:  XCALL   PAGE,BIN        PAGE                                     4JS2
                                               CALLP   BSED,17
    010360  aa   000063 012101          	vfd	18/(BSED-.TPD)/12+1,6/1,6/17,6/1
                                               CALLP   PAGE
    010361  aa   000075 000001          	vfd	18/(PAGE-.TPD)/12+1,6/0,6/0,6/1
                                               BIN
    010362  aa   000000 000003          	zero	0,3
                                2-1524  C115:  XCALL   TEMP,BIN        TEMP                                     4JS2
                                               CALLP   BSED,17
    010363  aa   000063 012101          	vfd	18/(BSED-.TPD)/12+1,6/1,6/17,6/1
                                               CALLP   TEMP
    010364  aa   000046 000001          	vfd	18/(TEMP-.TPD)/12+1,6/0,6/0,6/1
                                               BIN
    010365  aa   000000 000003          	zero	0,3
                                2-1525  C120:  XCALL   DBU,BIN         DBU                                      TSSA4M8U
                                               CALLP   BSED,17
    010366  aa   000063 012101          	vfd	18/(BSED-.TPD)/12+1,6/1,6/17,6/1
                                               CALLP   DBU
    010367  aa   000334 000001          	vfd	18/(DBU-.TPD)/12+1,6/0,6/0,6/1
                                               BIN
    010370  aa   000000 000003          	zero	0,3
                                2-1526  C122:  XCALL   PCF,BIN         PCF                                      TSSA4OHK
                                               CALLP   BSED,17
    010371  aa   000063 012101          	vfd	18/(BSED-.TPD)/12+1,6/1,6/17,6/1
                                               CALLP   PCF
    010372  aa   000152 000001          	vfd	18/(PCF-.TPD)/12+1,6/0,6/0,6/1
                                               BIN
    010373  aa   000000 000003          	zero	0,3
                                2-1527  C118:  XCALL   TTOP,BIN                                                 STIA4PZX
                                               CALLP   BSED,17
    010374  aa   000063 012101          	vfd	18/(BSED-.TPD)/12+1,6/1,6/17,6/1
                                               CALLP   TTOP
    010375  aa   000454 000001          	vfd	18/(TTOP-.TPD)/12+1,6/0,6/0,6/1
                                               BIN
    010376  aa   000000 000003          	zero	0,3
                                2-1528  C119:  XCALL   STII,BIN                                                 STIA4PZX
                                               CALLP   BSED,17
    010377  aa   000063 012101          	vfd	18/(BSED-.TPD)/12+1,6/1,6/17,6/1
                                               CALLP   STII
    010400  aa   000455 000001          	vfd	18/(STII-.TPD)/12+1,6/0,6/0,6/1
                                               BIN
    010401  aa   000000 000003          	zero	0,3
                                2-1529  "
                                2-1530  B1:    CALLP   BSED,.SW17      BASIC RUN
    010402  aa   000063 012101          	vfd	18/(BSED-.TPD)/12+1,6/1,6/.SW17,6/1
                                2-1531  B1.1:  CALLP   BASY
    010403  aa   000056 000001          	vfd	18/(BASY-.TPD)/12+1,6/0,6/0,6/1
                                2-1532         IFTRUE  .SW9,B1.1
    010404  aa   001325 001111          	vfd	18/B1.1-BASNM,12/.SW9,6/9
                                2-1533         BIN
    010405  aa   000000 000003          	zero	0,3
                                2-1534  B2:    STFALS  .SW14,C64.1     BASIC RESEQUENCE
    010406  aa   001134 001612          	vfd	18/C64.1-BASNM,12/.SW14,6/10
                                2-1535  B3:    STFALS  .SW15,B3.1      BASIC STARTUP
    010407  aa   001332 001712          	vfd	18/B3.1-BASNM,12/.SW15,6/10
                                2-1536  B3.1:  CALLP   OLDNEW
    010410  aa   000062 000001          	vfd	18/(OLDNEW-.TPD)/12+1,6/0,6/0,6/1
                                2-1537         BIN
    010411  aa   000000 000003          	zero	0,3
                                2-1538  "
                                2-1539  "
                                2-1540  "
                                2-1541  "      DATABASIC COMMANDS
                                2-1542            even
    010412  aa  162 165 156 040 2-1543  DATCL: aci     ~run ~,4      1 RUN
    010413  aa   000000 000003  2-1544         dec     3
    010414  aa  162 145 163 145 2-1545         aci     ~rese~,4     14 RESEQUENCE
    010415  aa   000000 000004  2-1546         dec     4
    010416  aa  143 162 145 141 2-1547         aci     ~crea~,4     31 CREATE
    010417  aa   000000 000004  2-1548         dec     4
    010420  aa  144 145 163 164 2-1549         aci     ~dest~,4     32 DESTROY
    010421  aa   000000 000004  2-1550         dec     4
    010422  aa  166 145 162 151 2-1551         aci     ~veri~,4     33 VERIFY
    010423  aa   000000 000004  2-1552         dec     4
    010424  aa  141 156 141 154 2-1553         aci     ~anal~,4     34 ANALYZE
    010425  aa   000000 000004  2-1554         dec     4
                                2-1555         ZEROP   D1              RUN
    010426  aa   001357 000000          	zero	D1-BASNM
                                2-1556         ZEROP   D2              RESEQUENCE
    010427  aa   001330 000000          	zero	D2-BASNM
                                2-1557         ZEROP   D3              CREATE
    010430  aa   001365 000000          	zero	D3-BASNM
                                2-1558         ZEROP   D4              DESTROY
    010431  aa   001370 000000          	zero	D4-BASNM
                                2-1559         ZEROP   D5              VERIFY
    010432  aa   001373 000000          	zero	D5-BASNM
                                2-1560         ZEROP   D6              ANALYZE
    010433  aa   001376 000000          	zero	D6-BASNM
                                2-1561         ZEROP   D7              STARTUP
    010434  aa   001331 000000          	zero	D7-BASNM
                                2-1562  "
                                2-1563  D1:    CALLP   BSED,.SW17      RUN
    010435  aa   000063 012101          	vfd	18/(BSED-.TPD)/12+1,6/1,6/.SW17,6/1
                                2-1564  D1.1:  CALLP   DBLP
    010436  aa   000165 000001          	vfd	18/(DBLP-.TPD)/12+1,6/0,6/0,6/1
                                2-1565         IFALSE  .SW36,D1.2
    010437  aa   001364 004410          	vfd	18/D1.2-BASNM,12/.SW36,6/8
                                2-1566         CALLP   DBRT
    010440  aa   000166 000001          	vfd	18/(DBRT-.TPD)/12+1,6/0,6/0,6/1
                                2-1567         IFTRUE  .SW37,D1.1
    010441  aa   001360 004511          	vfd	18/D1.1-BASNM,12/.SW37,6/9
                                2-1568  D1.2:  BIN
    010442  aa   000000 000003          	zero	0,3
                        010406  2-1569         equ     D2,B2           RESEQUENCE
                                2-1570  D3:    XCALL   DBCR,BIN        CREATE
                                               CALLP   BSED,17
    010443  aa   000063 012101          	vfd	18/(BSED-.TPD)/12+1,6/1,6/17,6/1
                                               CALLP   DBCR
    010444  aa   000167 000001          	vfd	18/(DBCR-.TPD)/12+1,6/0,6/0,6/1
                                               BIN
    010445  aa   000000 000003          	zero	0,3
                                2-1571  D4:    XCALL   DBDE,BIN        DESTROY
                                               CALLP   BSED,17
    010446  aa   000063 012101          	vfd	18/(BSED-.TPD)/12+1,6/1,6/17,6/1
                                               CALLP   DBDE
    010447  aa   000170 000001          	vfd	18/(DBDE-.TPD)/12+1,6/0,6/0,6/1
                                               BIN
    010450  aa   000000 000003          	zero	0,3
                                2-1572  D5:    XCALL   DBVE,BIN        VERIFY
                                               CALLP   BSED,17
    010451  aa   000063 012101          	vfd	18/(BSED-.TPD)/12+1,6/1,6/17,6/1
                                               CALLP   DBVE
    010452  aa   000171 000001          	vfd	18/(DBVE-.TPD)/12+1,6/0,6/0,6/1
                                               BIN
    010453  aa   000000 000003          	zero	0,3
                                2-1573  D6:    XCALL   DBAN,BIN        ANALYZE
                                               CALLP   BSED,17
    010454  aa   000063 012101          	vfd	18/(BSED-.TPD)/12+1,6/1,6/17,6/1
                                               CALLP   DBAN
    010455  aa   000172 000001          	vfd	18/(DBAN-.TPD)/12+1,6/0,6/0,6/1
                                               BIN
    010456  aa   000000 000003          	zero	0,3
                        010407  2-1574         equ     D7,B3           STARTUP
                                2-1575  "
    010457  aa   000000 0110 03 2-1576            even
    010460  aa  162 165 156 040 2-1577  CARDCL:aci     ~run ~,4        CARDIN COMMAND LANGUAGE
    010461  aa   000000 000003  2-1578         dec     3
                                2-1579         ZEROP   S1              RUN                                      2/H-2
    010462  aa   001406 000000          	zero	S1-BASNM
                                2-1580         ZEROP   S3              STARTUP                                  2/H-2
    010463  aa   001331 000000          	zero	S3-BASNM
                                2-1581  "                                                                       2/H-2
                                2-1582  S1:    XCALL   CARDIN,BIN      RUN                                      2/H-2
                                               CALLP   BSED,17
    010464  aa   000063 012101          	vfd	18/(BSED-.TPD)/12+1,6/1,6/17,6/1
                                               CALLP   CARDIN
    010465  aa   000002 000001          	vfd	18/(CARDIN-.TPD)/12+1,6/0,6/0,6/1
                                               BIN
    010466  aa   000000 000003          	zero	0,3
                        010407  2-1583         equ     S3,B3           STARTUP                                  2/H-2
                                2-1584        "REM                                                              2/H-2
    010467  aa   000000 0110 03 2-1585            even
    010470  aa  162 165 156 040 2-1586  TFORCL:aci     ~run ~,4
    010471  aa   000000 000003  2-1587         dec     3
                                2-1588         ZEROP   F1              FORTRAN RUN
    010472  aa   001416 000000          	zero	F1-BASNM
                                2-1589         ZEROP   F2              FORTRAN STARTUP
    010473  aa   001331 000000          	zero	F2-BASNM
                                2-1590  "
                                2-1591  F1:    STRUE   .SW0,F1.1       FORTRAN RUN PRIMITIVE SEQUENCE
    010474  aa   001417 000013          	vfd	18/F1.1-BASNM,12/.SW0,6/11
                                2-1592  F1.1:  STRUE   .SW1,F1.2
    010475  aa   001420 000113          	vfd	18/F1.2-BASNM,12/.SW1,6/11
                                2-1593  F1.2:  STFALS  .SW2,F1.3
    010476  aa   001421 000212          	vfd	18/F1.3-BASNM,12/.SW2,6/10
                                2-1594  F1.3:  XCALL   RUNY
                                               CALLP   BSED,17
    010477  aa   000063 012101          	vfd	18/(BSED-.TPD)/12+1,6/1,6/17,6/1
                                               CALLP   RUNY
    010500  aa   000141 000001          	vfd	18/(RUNY-.TPD)/12+1,6/0,6/0,6/1
                                2-1595         CALLP   .YQ0,.SW40
    010501  aa   000173 015001          	vfd	18/(.YQ0-.TPD)/12+1,6/1,6/.SW40,6/1
                                2-1596         BIN
    010502  aa   000000 000003          	zero	0,3
                        010407  2-1597         equ     F2,B3           STARTUP
                                2-1598  "
                                2-1599  "                                                                       TSSA0T6C
                                2-1600  "                                                                       TSSA0T6C
                                2-1601  FR7.4: STFALS  .SW0,FR7.5                                               TSSA0T6C
    010503  aa   001426 000012          	vfd	18/FR7.5-BASNM,12/.SW0,6/10
                                2-1602  FR7.5: STFALS  .SW1,FR7.6                                               TSSA0T6C
    010504  aa   001427 000112          	vfd	18/FR7.6-BASNM,12/.SW1,6/10
                                2-1603  FR7.6: STFALS  .SW2,FR7.7                                               TSSA0T6C
    010505  aa   001430 000212          	vfd	18/FR7.7-BASNM,12/.SW2,6/10
                                2-1604  FR7.7: XCALL   sevenFOR                                                 TSSA0T6C
                                               CALLP   BSED,17
    010506  aa   000063 012101          	vfd	18/(BSED-.TPD)/12+1,6/1,6/17,6/1
                                               CALLP   sevenFOR
    010507  aa   000326 000001          	vfd	18/(sevenFOR-.TPD)/12+1,6/0,6/0,6/1
                                2-1605         CALLP   sevenP0,.SW40                                            TSSA0T6C
    010510  aa   000204 015001          	vfd	18/(sevenP0-.TPD)/12+1,6/1,6/.SW40,6/1
                                2-1606         BIN                                                              TSSA0T6C
    010511  aa   000000 000003          	zero	0,3
                                2-1607  FR7T.4:STRUE   .SW0,FR7T.5                                              TSSA0T6C
    010512  aa   001435 000013          	vfd	18/FR7T.5-BASNM,12/.SW0,6/11
                                2-1608  FR7T.5:STRUE   .SW1,FR7T.6                                              TSSA0T6C
    010513  aa   001436 000113          	vfd	18/FR7T.6-BASNM,12/.SW1,6/11
                                2-1609  FR7T.6:STRUE   .SW2,FR7T.7                                              TSSA0T6C
    010514  aa   001437 000213          	vfd	18/FR7T.7-BASNM,12/.SW2,6/11
                                2-1610  FR7T.7:XCALL   sevenFOR                                                 TSSA0T6C
                                               CALLP   BSED,17
    010515  aa   000063 012101          	vfd	18/(BSED-.TPD)/12+1,6/1,6/17,6/1
                                               CALLP   sevenFOR
    010516  aa   000326 000001          	vfd	18/(sevenFOR-.TPD)/12+1,6/0,6/0,6/1
                                2-1611         CALLP   sevenP0,.SW40                                            TSSA0T6C
    010517  aa   000204 015001          	vfd	18/(sevenP0-.TPD)/12+1,6/1,6/.SW40,6/1
                                2-1612         BIN                                                              TSSA0T6C
    010520  aa   000000 000003          	zero	0,3
                                2-1613  "                                                                       TSSA0T6C
                                2-1614  "                                                                       TSSA0T6C
    010521  aa   000000 0110 03 2-1615            even
    010522  aa  162 165 156 040 2-1616  JOVCL: aci     ~run ~,4
    010523  aa   000000 000003  2-1617         dec     3
                                2-1618         ZEROP   J1              JOVIAL RUN
    010524  aa   001450 000000          	zero	J1-BASNM
                                2-1619         ZEROP   J2              JOVIAL STARTUP
    010525  aa   001331 000000          	zero	J2-BASNM
                                2-1620  "
                                2-1621  J1:    STFALS  .SW0,F1.1       JOVIAL RUN PRIMITIVE SEQUENCE
    010526  aa   001417 000012          	vfd	18/F1.1-BASNM,12/.SW0,6/10
                        010407  2-1622         equ     J2,B3           STARTUP
                                2-1623  "
    010527  aa   000000 0110 03 2-1624            even
    010530  aa  162 165 156 040 2-1625  YFORCL:aci     ~run ~,4
    010531  aa   000000 000003  2-1626         dec     3
                                2-1627         ZEROP   Y1              YFORTRAN RUN
    010532  aa   001456 000000          	zero	Y1-BASNM
                                2-1628         ZEROP   Y2              YFORTRAN STARTUP
    010533  aa   001331 000000          	zero	Y2-BASNM
                                2-1629  "
                                2-1630  Y1:    STFALS  .SW0,Y1.1       YFORTRAN RUN PRIMITIVE SEQUENCE
    010534  aa   001457 000012          	vfd	18/Y1.1-BASNM,12/.SW0,6/10
                                2-1631  Y1.1:  STFALS  .SW1,F1.2
    010535  aa   001420 000112          	vfd	18/F1.2-BASNM,12/.SW1,6/10
                        010407  2-1632         equ     Y2,B3           STARTUP
                                2-1633  "
                                2-1634            even
    010536  aa  162 165 156 040 2-1635  ALGLCL:aci     ~run ~,4
    010537  aa   000000 000003  2-1636         dec     3
                                2-1637         ZEROP   A1              ALGOL RUN
    010540  aa   001464 000000          	zero	A1-BASNM
                                2-1638         ZEROP   A2              ALGOL STARTUP
    010541  aa   001331 000000          	zero	A2-BASNM
                                2-1639  "
                                2-1640  A1:    STRUE   .SW0,Y1.1       ALGOL RUN PRIMITIVE SEQUENCE
    010542  aa   001457 000013          	vfd	18/Y1.1-BASNM,12/.SW0,6/11
                        010407  2-1641         equ     A2,B3           STARTUP
                                2-1642  "
                                2-1643  EDCL:  ZEROP   *+1
    010543  aa   001466 000000          	zero	*+1-BASNM
                                2-1644         CALLP   EDTX
    010544  aa   000022 000001          	vfd	18/(EDTX-.TPD)/12+1,6/0,6/0,6/1
                                2-1645         POPUP
    010545  aa   000000 000004          	zero	0,4
                                2-1646            even
    010546  aa   015000 000000  2-1647  EDBNCL:oct     015000000000
    010547  aa   000000 000001  2-1648         dec     1
    010550  aa  043 164 141 160 2-1649         aci     ~#tap~,4
    010551  aa   000000 000004  2-1650         dec     4
    010552  aa  043 043 040 040 2-1651         aci     ~##  ~,4
    010553  aa   000000 000003  2-1652         dec     3               END OF BUILD MODE FOR DN760 IS ##BLANK
    010554  aa  043 162 145 143 2-1653         aci     ~#rec~,4 "#RECOVER
    010555  aa   000000 000004  2-1654         dec     4
    010556  aa  043 162 157 154 2-1655         aci     ~#rol~,4 "#ROLLBACK
    010557  aa   000000 000004  2-1656         dec     4
    010560  aa  043 154 165 143 2-1657         aci     ~#luc~,4 "#LUCID
    010561  aa   000000 000004  2-1658         dec     4
    010562  aa  043 141 165 164 2-1659         aci     ~#aut~,4 "#AUTO
    010563  aa   000000 000004  2-1660         dec     4
    010564  aa   004004 004001  2-1661         oct     004004004001,4  DUMMY FOR SY** OVERFLOW
    010565  aa   000000 000004
                                2-1662         ZEROP   E1              CR ONLY
    010566  aa   000655 000000          	zero	E1-BASNM
                                2-1663         ZEROP   E2              #TAPE
    010567  aa   001521 000000          	zero	E2-BASNM
                                2-1664         ZEROP   E3              ##BLANK
    010570  aa   000655 000000          	zero	E3-BASNM
                                2-1665         ZEROP   E4              #RECOVER
    010571  aa   001526 000000          	zero	E4-BASNM
                                2-1666         ZEROP   E5              #ROLLBACK
    010572  aa   001526 000000          	zero	E5-BASNM
                                2-1667         ZEROP   E6              #LUCID
    010573  aa   001533 000000          	zero	E6-BASNM
                                2-1668         ZEROP   E9              #AUTO
    010574  aa   001534 000000          	zero	E9-BASNM
                                2-1669         ZEROP   E7              FULL SY**
    010575  aa   001535 000000          	zero	E7-BASNM
                                2-1670         ZEROP   E8              STARTUP
    010576  aa   001536 000000          	zero	E8-BASNM
                                2-1671  "
                        007733  2-1672         equ     E1,C2.1         CR ONLY
                                2-1673  E2:    IFALSE  .SW17,E2.1      #TAPE
    010577  aa   001523 002110          	vfd	18/E2.1-BASNM,12/.SW17,6/8
                                2-1674         STRUE   .SW0,.POPUP
    010600  aa   000655 000013          	vfd	18/.POPUP-BASNM,12/.SW0,6/11
                                2-1675  E2.1:  CALLP   TAPE
    010601  aa   000065 000001          	vfd	18/(TAPE-.TPD)/12+1,6/0,6/0,6/1
                                2-1676         IFALSE  .SW12,.BIN
    010602  aa   002046 001410          	vfd	18/.BIN-BASNM,12/.SW12,6/8
                                2-1677         POPUP
    010603  aa   000000 000004          	zero	0,4
                        007733  2-1678         equ     E3,C2.1         ##BLANK
                                2-1679  E4:    IFALSE  .SW17,E4.1      #RECOVER
    010604  aa   001530 002110          	vfd	18/E4.1-BASNM,12/.SW17,6/8
                                2-1680         STRUE   .SW1,.POPUP
    010605  aa   000655 000113          	vfd	18/.POPUP-BASNM,12/.SW1,6/11
                                2-1681  E4.1:  CALLP   RECO
    010606  aa   000136 000001          	vfd	18/(RECO-.TPD)/12+1,6/0,6/0,6/1
                                2-1682         IFALSE  .SW10,.BIN
    010607  aa   002046 001210          	vfd	18/.BIN-BASNM,12/.SW10,6/8
                                2-1683         POPUP
    010610  aa   000000 000004          	zero	0,4
                        010604  2-1684         equ     E5,E4           #ROLLBACK
                                2-1685  E6:    STRUE   .SW5,E2         #LUCID
    010611  aa   001521 000513          	vfd	18/E2-BASNM,12/.SW5,6/11
                                2-1686  E9:    POPUP                   #AUTO
    010612  aa   000000 000004          	zero	0,4
                                2-1687  E7:    STRUE   .SW10,.POPUP    FULL SY**
    010613  aa   000655 001213          	vfd	18/.POPUP-BASNM,12/.SW10,6/11
                                2-1688  E8:    STFALS  .SW0,E8.1       EDBN STARTUP
    010614  aa   001537 000012          	vfd	18/E8.1-BASNM,12/.SW0,6/10
                                2-1689  E8.1:  STFALS  .SW1,E8.2
    010615  aa   001540 000112          	vfd	18/E8.2-BASNM,12/.SW1,6/10
                                2-1690  E8.2:  STFALS  .SW2,.BIN
    010616  aa   002046 000212          	vfd	18/.BIN-BASNM,12/.SW2,6/10
                                2-1691  "
                                2-1692  "      MDQ  (T3)  COMMAND LIST...
    010617  aa   000000 0110 03 2-1693            even
    010620  aa  162 165 156 040 2-1694  WWB3CL:aci     ~run ~,4
    010621  aa   000000 000003  2-1695         dec     3
    010622  aa  141 144 146 161 2-1696         aci     ~adfq~,4
    010623  aa   000000 000004  2-1697         dec     4
    010624  aa  143 150 145 143 2-1698         aci     ~chec~,4
    010625  aa   000000 000004  2-1699         dec     4
    010626  aa  164 165 164 157 2-1700         aci     ~tuto~,4
    010627  aa   000000 000004  2-1701         dec     4
    010630  aa  144 151 162 165 2-1702         aci     ~diru~,4
    010631  aa   000000 000004  2-1703         dec     4
    010632  aa  160 145 162 146 2-1704         aci     ~perf~,4
    010633  aa   000000 000004  2-1705         dec     4
    010634  aa  163 151 156 151 2-1706         aci     ~sini~,4
    010635  aa   000000 000004  2-1707         dec     4
    010636  aa  144 152 163 164 2-1708         aci     ~djst~,4
    010637  aa   000000 000004  2-1709         dec     4
    010640  aa  160 162 151 166 2-1710         aci     ~priv~,4
    010641  aa   000000 000004  2-1711         dec     4
    010642  aa  162 145 144 151 2-1712         aci     ~redi~,4
    010643  aa   000000 000004  2-1713         dec     4
    010644  aa  143 155 144 161 2-1714         aci     ~cmdq~,4
    010645  aa   000000 000004  2-1715         dec     4
    010646  aa  144 155 154 151 2-1716         aci     ~dmli~,4
    010647  aa   000000 000004  2-1717         dec     4
    010650  aa  144 155 165 160 2-1718         aci     ~dmup~,4
    010651  aa   000000 000004  2-1719         dec     4
    010652  aa  144 146 141 165 2-1720         aci     ~dfau~,4
    010653  aa   000000 000004  2-1721         dec     4
                                2-1722         ZEROP   WWDMR
    010654  aa   001623 000000          	zero	WWDMR-BASNM
                                2-1723         ZEROP   WWADF
    010655  aa   001626 000000          	zero	WWADF-BASNM
                                2-1724         ZEROP   WWDMR
    010656  aa   001623 000000          	zero	WWDMR-BASNM
                                2-1725         ZEROP   WWDMT
    010657  aa   001631 000000          	zero	WWDMT-BASNM
                                2-1726         ZEROP   WWDMDI
    010660  aa   001634 000000          	zero	WWDMDI-BASNM
                                2-1727         ZEROP   DM6
    010661  aa   001615 000000          	zero	DM6-BASNM
                                2-1728         ZEROP   WWDMS
    010662  aa   001637 000000          	zero	WWDMS-BASNM
                                2-1729         ZEROP   WWDMDJ
    010663  aa   001642 000000          	zero	WWDMDJ-BASNM
                                2-1730         ZEROP   WWDMP
    010664  aa   001645 000000          	zero	WWDMP-BASNM
                                2-1731         ZEROP   DM12
    010665  aa   001620 000000          	zero	DM12-BASNM
                                2-1732         ZEROP   WWXD1           RESERVED...
    010666  aa   001654 000000          	zero	WWXD1-BASNM
                                2-1733         ZEROP   WWDX2           RESERVED...
    010667  aa   001657 000000          	zero	WWDX2-BASNM
                                2-1734         ZEROP   WWDX3
    010670  aa   001662 000000          	zero	WWDX3-BASNM
                                2-1735         ZEROP   WWDX4
    010671  aa   001665 000000          	zero	WWDX4-BASNM
                                2-1736         ZEROP   WWSU
    010672  aa   001650 000000          	zero	WWSU-BASNM
                                2-1737  "
                                2-1738  DM6:   XCALL   DMSPER,BIN
                                               CALLP   BSED,17
    010673  aa   000063 012101          	vfd	18/(BSED-.TPD)/12+1,6/1,6/17,6/1
                                               CALLP   DMSPER
    010674  aa   000246 000001          	vfd	18/(DMSPER-.TPD)/12+1,6/0,6/0,6/1
                                               BIN
    010675  aa   000000 000003          	zero	0,3
                                2-1739  DM12:  XCALL   DMSRED,BIN
                                               CALLP   BSED,17
    010676  aa   000063 012101          	vfd	18/(BSED-.TPD)/12+1,6/1,6/17,6/1
                                               CALLP   DMSRED
    010677  aa   000245 000001          	vfd	18/(DMSRED-.TPD)/12+1,6/0,6/0,6/1
                                               BIN
    010700  aa   000000 000003          	zero	0,3
                                2-1740  WWDMR: XCALL   B3RUN,BIN
                                               CALLP   BSED,17
    010701  aa   000063 012101          	vfd	18/(BSED-.TPD)/12+1,6/1,6/17,6/1
                                               CALLP   B3RUN
    010702  aa   000250 000001          	vfd	18/(B3RUN-.TPD)/12+1,6/0,6/0,6/1
                                               BIN
    010703  aa   000000 000003          	zero	0,3
                                2-1741  WWADF: XCALL   B3ADF,BIN
                                               CALLP   BSED,17
    010704  aa   000063 012101          	vfd	18/(BSED-.TPD)/12+1,6/1,6/17,6/1
                                               CALLP   B3ADF
    010705  aa   000265 000001          	vfd	18/(B3ADF-.TPD)/12+1,6/0,6/0,6/1
                                               BIN
    010706  aa   000000 000003          	zero	0,3
                                2-1742  WWDMT: XCALL   B3TUT,BIN
                                               CALLP   BSED,17
    010707  aa   000063 012101          	vfd	18/(BSED-.TPD)/12+1,6/1,6/17,6/1
                                               CALLP   B3TUT
    010710  aa   000260 000001          	vfd	18/(B3TUT-.TPD)/12+1,6/0,6/0,6/1
                                               BIN
    010711  aa   000000 000003          	zero	0,3
                                2-1743  WWDMDI:XCALL   B3DIR,BIN
                                               CALLP   BSED,17
    010712  aa   000063 012101          	vfd	18/(BSED-.TPD)/12+1,6/1,6/17,6/1
                                               CALLP   B3DIR
    010713  aa   000261 000001          	vfd	18/(B3DIR-.TPD)/12+1,6/0,6/0,6/1
                                               BIN
    010714  aa   000000 000003          	zero	0,3
                                2-1744  WWDMS: XCALL   B3SIN,BIN
                                               CALLP   BSED,17
    010715  aa   000063 012101          	vfd	18/(BSED-.TPD)/12+1,6/1,6/17,6/1
                                               CALLP   B3SIN
    010716  aa   000262 000001          	vfd	18/(B3SIN-.TPD)/12+1,6/0,6/0,6/1
                                               BIN
    010717  aa   000000 000003          	zero	0,3
                                2-1745  WWDMDJ:XCALL   B3DJS,BIN
                                               CALLP   BSED,17
    010720  aa   000063 012101          	vfd	18/(BSED-.TPD)/12+1,6/1,6/17,6/1
                                               CALLP   B3DJS
    010721  aa   000263 000001          	vfd	18/(B3DJS-.TPD)/12+1,6/0,6/0,6/1
                                               BIN
    010722  aa   000000 000003          	zero	0,3
                                2-1746  WWDMP: XCALL   B3PRI,BIN
                                               CALLP   BSED,17
    010723  aa   000063 012101          	vfd	18/(BSED-.TPD)/12+1,6/1,6/17,6/1
                                               CALLP   B3PRI
    010724  aa   000264 000001          	vfd	18/(B3PRI-.TPD)/12+1,6/0,6/0,6/1
                                               BIN
    010725  aa   000000 000003          	zero	0,3
                                2-1747  WWSU:  CALLP   BSED,.SW17
    010726  aa   000063 012101          	vfd	18/(BSED-.TPD)/12+1,6/1,6/.SW17,6/1
                                2-1748         CALLP   TZCK
    010727  aa   000257 000001          	vfd	18/(TZCK-.TPD)/12+1,6/0,6/0,6/1
                                2-1749         CALLP   OLDNEW
    010730  aa   000062 000001          	vfd	18/(OLDNEW-.TPD)/12+1,6/0,6/0,6/1
                                2-1750         BIN
    010731  aa   000000 000003          	zero	0,3
                                2-1751  WWXD1: XCALL   B3XX1,BIN       PRESENTLY UNUSED...
                                               CALLP   BSED,17
    010732  aa   000063 012101          	vfd	18/(BSED-.TPD)/12+1,6/1,6/17,6/1
                                               CALLP   B3XX1
    010733  aa   000267 000001          	vfd	18/(B3XX1-.TPD)/12+1,6/0,6/0,6/1
                                               BIN
    010734  aa   000000 000003          	zero	0,3
                                2-1752  WWDX2: XCALL   B3XX2,BIN
                                               CALLP   BSED,17
    010735  aa   000063 012101          	vfd	18/(BSED-.TPD)/12+1,6/1,6/17,6/1
                                               CALLP   B3XX2
    010736  aa   000270 000001          	vfd	18/(B3XX2-.TPD)/12+1,6/0,6/0,6/1
                                               BIN
    010737  aa   000000 000003          	zero	0,3
                                2-1753  WWDX3: XCALL   TGPRO,BIN
                                               CALLP   BSED,17
    010740  aa   000063 012101          	vfd	18/(BSED-.TPD)/12+1,6/1,6/17,6/1
                                               CALLP   TGPRO
    010741  aa   000266 000001          	vfd	18/(TGPRO-.TPD)/12+1,6/0,6/0,6/1
                                               BIN
    010742  aa   000000 000003          	zero	0,3
                                2-1754  WWDX4: XCALL   B3XX3,BIN
                                               CALLP   BSED,17
    010743  aa   000063 012101          	vfd	18/(BSED-.TPD)/12+1,6/1,6/17,6/1
                                               CALLP   B3XX3
    010744  aa   000271 000001          	vfd	18/(B3XX3-.TPD)/12+1,6/0,6/0,6/1
                                               BIN
    010745  aa   000000 000003          	zero	0,3
                                2-1755            even
    010746                      2-1756  AMDCL: null    ASCII MDQ COMMAND LANGUAGE
    010746  aa  162 165 156 040 2-1757         aci     ~run ~,4
    010747  aa   000000 000003  2-1758         dec     3
    010750  aa  144 145 163 143 2-1759         aci     ~desc~,4
    010751  aa   000000 000004  2-1760         dec     4
    010752  aa  143 150 145 143 2-1761         aci     ~chec~,4
    010753  aa   000000 000004  2-1762         dec     4
    010754  aa  164 165 164 157 2-1763         aci     ~tuto~,4
    010755  aa   000000 000004  2-1764         dec     4
    010756  aa  144 151 162 165 2-1765         aci     ~diru~,4
    010757  aa   000000 000004  2-1766         dec     4
    010760  aa  160 145 162 146 2-1767         aci     ~perf~,4
    010761  aa   000000 000004  2-1768         dec     4
    010762  aa  144 152 163 164 2-1769         aci     ~djst~,4
    010763  aa   000000 000004  2-1770         dec     4
    010764  aa  160 162 151 166 2-1771         aci     ~priv~,4
    010765  aa   000000 000004  2-1772         dec     4
    010766  aa  162 145 144 151 2-1773         aci     ~redi~,4
    010767  aa   000000 000004  2-1774         dec     4
    010770  aa  144 151 141 154 2-1775         aci     ~dial~,4
    010771  aa   000000 000004  2-1776         dec     4
    010772  aa  144 155 154 151 2-1777         aci     ~dmli~,4
    010773  aa   000000 000004  2-1778         dec     4
    010774  aa  163 151 156 151 2-1779         aci     ~sini~,4
    010775  aa   000000 000004  2-1780         dec     4
    010776  aa  144 155 165 160 2-1781         aci     ~dmup~,4
    010777  aa   000000 000004  2-1782         dec     4
    011000  aa  144 146 141 165 2-1783         aci     ~dfau~,4
    011001  aa   000000 000004  2-1784         dec     4
    011002  aa  160 154 165 163 2-1785         aci     ~plus~,4
    011003  aa   000000 000004  2-1786         dec     4
                                2-1787         ZEROP   MDDMR
    011004  aa   001746 000000          	zero	MDDMR-BASNM
                                2-1788         ZEROP   MDADFQ
    011005  aa   001774 000000          	zero	MDADFQ-BASNM
                                2-1789         ZEROP   MDDMR
    011006  aa   001746 000000          	zero	MDDMR-BASNM
                                2-1790         ZEROP   MDDMT
    011007  aa   001760 000000          	zero	MDDMT-BASNM
                                2-1791         ZEROP   MDDMDI
    011010  aa   001763 000000          	zero	MDDMDI-BASNM
                                2-1792         ZEROP   MDPRF
    011011  aa   001755 000000          	zero	MDPRF-BASNM
                                2-1793         ZEROP   WWDMDJ
    011012  aa   001642 000000          	zero	WWDMDJ-BASNM
                                2-1794         ZEROP   MDDMP
    011013  aa   001766 000000          	zero	MDDMP-BASNM
                                2-1795         ZEROP   MDRED
    011014  aa   001771 000000          	zero	MDRED-BASNM
                                2-1796         ZEROP   MDCON
    011015  aa   002002 000000          	zero	MDCON-BASNM
                                2-1797         ZEROP   MDLIB
    011016  aa   002005 000000          	zero	MDLIB-BASNM
                                2-1798         ZEROP   WWDMS
    011017  aa   001637 000000          	zero	WWDMS-BASNM
                                2-1799         ZEROP   MDUSR
    011020  aa   001777 000000          	zero	MDUSR-BASNM
                                2-1800         ZEROP   WWDX4
    011021  aa   001665 000000          	zero	WWDX4-BASNM
                                2-1801         ZEROP   MDPLS
    011022  aa   002010 000000          	zero	MDPLS-BASNM
                                2-1802         ZEROP   MDSU
    011023  aa   001751 000000          	zero	MDSU-BASNM
                                2-1803  MDDMR: XCALL   MDRUN,BIN
                                               CALLP   BSED,17
    011024  aa   000063 012101          	vfd	18/(BSED-.TPD)/12+1,6/1,6/17,6/1
                                               CALLP   MDRUN
    011025  aa   000370 000001          	vfd	18/(MDRUN-.TPD)/12+1,6/0,6/0,6/1
                                               BIN
    011026  aa   000000 000003          	zero	0,3
                                2-1804  MDSU:  CALLP   BSED,.SW17
    011027  aa   000063 012101          	vfd	18/(BSED-.TPD)/12+1,6/1,6/.SW17,6/1
                                2-1805         CALLP   ATZCK
    011030  aa   000377 000001          	vfd	18/(ATZCK-.TPD)/12+1,6/0,6/0,6/1
                                2-1806         CALLP   OLDNEW
    011031  aa   000062 000001          	vfd	18/(OLDNEW-.TPD)/12+1,6/0,6/0,6/1
                                2-1807         BIN
    011032  aa   000000 000003          	zero	0,3
                                2-1808  MDPRF: XCALL   MDPER,BIN
                                               CALLP   BSED,17
    011033  aa   000063 012101          	vfd	18/(BSED-.TPD)/12+1,6/1,6/17,6/1
                                               CALLP   MDPER
    011034  aa   000400 000001          	vfd	18/(MDPER-.TPD)/12+1,6/0,6/0,6/1
                                               BIN
    011035  aa   000000 000003          	zero	0,3
                                2-1809  MDDMT: XCALL   MDTUT,BIN
                                               CALLP   BSED,17
    011036  aa   000063 012101          	vfd	18/(BSED-.TPD)/12+1,6/1,6/17,6/1
                                               CALLP   MDTUT
    011037  aa   000401 000001          	vfd	18/(MDTUT-.TPD)/12+1,6/0,6/0,6/1
                                               BIN
    011040  aa   000000 000003          	zero	0,3
                                2-1810  MDDMDI:XCALL   MDDIR,BIN
                                               CALLP   BSED,17
    011041  aa   000063 012101          	vfd	18/(BSED-.TPD)/12+1,6/1,6/17,6/1
                                               CALLP   MDDIR
    011042  aa   000402 000001          	vfd	18/(MDDIR-.TPD)/12+1,6/0,6/0,6/1
                                               BIN
    011043  aa   000000 000003          	zero	0,3
                                2-1811  MDDMP: XCALL   MDPRI,BIN
                                               CALLP   BSED,17
    011044  aa   000063 012101          	vfd	18/(BSED-.TPD)/12+1,6/1,6/17,6/1
                                               CALLP   MDPRI
    011045  aa   000403 000001          	vfd	18/(MDPRI-.TPD)/12+1,6/0,6/0,6/1
                                               BIN
    011046  aa   000000 000003          	zero	0,3
                                2-1812  MDRED: XCALL   MDREDI,BIN
                                               CALLP   BSED,17
    011047  aa   000063 012101          	vfd	18/(BSED-.TPD)/12+1,6/1,6/17,6/1
                                               CALLP   MDREDI
    011050  aa   000410 000001          	vfd	18/(MDREDI-.TPD)/12+1,6/0,6/0,6/1
                                               BIN
    011051  aa   000000 000003          	zero	0,3
                                2-1813  MDADFQ:XCALL   MDADF,BIN
                                               CALLP   BSED,17
    011052  aa   000063 012101          	vfd	18/(BSED-.TPD)/12+1,6/1,6/17,6/1
                                               CALLP   MDADF
    011053  aa   000404 000001          	vfd	18/(MDADF-.TPD)/12+1,6/0,6/0,6/1
                                               BIN
    011054  aa   000000 000003          	zero	0,3
                                2-1814  MDUSR: XCALL   MDUPS,BIN
                                               CALLP   BSED,17
    011055  aa   000063 012101          	vfd	18/(BSED-.TPD)/12+1,6/1,6/17,6/1
                                               CALLP   MDUPS
    011056  aa   000405 000001          	vfd	18/(MDUPS-.TPD)/12+1,6/0,6/0,6/1
                                               BIN
    011057  aa   000000 000003          	zero	0,3
                                2-1815  MDCON: XCALL   MDCMD,BIN
                                               CALLP   BSED,17
    011060  aa   000063 012101          	vfd	18/(BSED-.TPD)/12+1,6/1,6/17,6/1
                                               CALLP   MDCMD
    011061  aa   000406 000001          	vfd	18/(MDCMD-.TPD)/12+1,6/0,6/0,6/1
                                               BIN
    011062  aa   000000 000003          	zero	0,3
                                2-1816  MDLIB: XCALL   MDDML,BIN
                                               CALLP   BSED,17
    011063  aa   000063 012101          	vfd	18/(BSED-.TPD)/12+1,6/1,6/17,6/1
                                               CALLP   MDDML
    011064  aa   000407 000001          	vfd	18/(MDDML-.TPD)/12+1,6/0,6/0,6/1
                                               BIN
    011065  aa   000000 000003          	zero	0,3
                                2-1817  MDPLS: XCALL   MDFLO,BIN
                                               CALLP   BSED,17
    011066  aa   000063 012101          	vfd	18/(BSED-.TPD)/12+1,6/1,6/17,6/1
                                               CALLP   MDFLO
    011067  aa   000411 000001          	vfd	18/(MDFLO-.TPD)/12+1,6/0,6/0,6/1
                                               BIN
    011070  aa   000000 000003          	zero	0,3
                                2-1818  "
                                2-1819  SYSCL: ZEROP   *+1
    011071  aa   002014 000000          	zero	*+1-BASNM
                                2-1820         SYSTM
    011072  aa   000000 000007          	zero	0,7
                                2-1821  HOLDCL:ZEROP   *+1
    011073  aa   002016 000000          	zero	*+1-BASNM
                                2-1822         STRUE   .SW11,.POPUP
    011074  aa   000655 001313          	vfd	18/.POPUP-BASNM,12/.SW11,6/11
                                2-1823  SENDCL:ZEROP   *+1
    011075  aa   002020 000000          	zero	*+1-BASNM
                                2-1824         STFALS  .SW11,.POPUP
    011076  aa   000655 001312          	vfd	18/.POPUP-BASNM,12/.SW11,6/10
                                2-1825  NOPACL:ZEROP   *+1
    011077  aa   002022 000000          	zero	*+1-BASNM
                                2-1826         STRUE   .SW16,.POPUP
    011100  aa   000655 002013          	vfd	18/.POPUP-BASNM,12/.SW16,6/11
                                2-1827  PARICL:ZEROP   *+1
    011101  aa   002024 000000          	zero	*+1-BASNM
                                2-1828         STFALS  .SW16,.POPUP
    011102  aa   000655 002012          	vfd	18/.POPUP-BASNM,12/.SW16,6/10
                                2-1829  UCASCL:ZEROP   *+1
    011103  aa   002026 000000          	zero	*+1-BASNM
                                2-1830         STFALS  .SW38,.POPUP
    011104  aa   000655 004612          	vfd	18/.POPUP-BASNM,12/.SW38,6/10
                                2-1831  LCASCL:ZEROP   *+1
    011105  aa   002030 000000          	zero	*+1-BASNM
                                2-1832         STRUE   .SW38,.POPUP
    011106  aa   000655 004613          	vfd	18/.POPUP-BASNM,12/.SW38,6/11
                                2-1833  FORMCL:ZEROP   *+1
    011107  aa   002032 000000          	zero	*+1-BASNM
                                2-1834         STFALS  .SW39,.POPUP
    011110  aa   000655 004712          	vfd	18/.POPUP-BASNM,12/.SW39,6/10
                                2-1835  NFORCL:ZEROP   *+1
    011111  aa   002034 000000          	zero	*+1-BASNM
                                2-1836         STRUE   .SW39,.POPUP
    011112  aa   000655 004713          	vfd	18/.POPUP-BASNM,12/.SW39,6/11
                                2-1837  EXPCL: ZEROP   *+1
    011113  aa   002036 000000          	zero	*+1-BASNM
                                2-1838         EXEC
    011114  aa   000000 000002          	zero	0,2
                                2-1839         POPUP
    011115  aa   000000 000004          	zero	0,4
                                2-1840         ZEROP   PSKEL           **MUST IMMEDIATELY PRECEDE CMLCL**
    011116  aa   002044 000000          	zero	PSKEL-BASNM
                                2-1841  CMLCL: XCALL   CMDL,BIN
                                               CALLP   BSED,17
    011117  aa   000063 012101          	vfd	18/(BSED-.TPD)/12+1,6/1,6/17,6/1
                                               CALLP   CMDL
    011120  aa   000456 000001          	vfd	18/(CMDL-.TPD)/12+1,6/0,6/0,6/1
                                               BIN
    011121  aa   000000 000003          	zero	0,3
                                2-1842  PSKEL: CALLP   BSED,.SW17      SKELETON SEQUENCE FOR XCALL SS,BIN
    011122  aa   000063 012101          	vfd	18/(BSED-.TPD)/12+1,6/1,6/.SW17,6/1
                                2-1843         CALLP   0
    011123  aa   000000 000001          	vfd	18/0,6/0,6/0,6/1
                                2-1844  .BIN:  BIN
    011124  aa   000000 000003          	zero	0,3
                        007733  2-1845         equ     .POPUP,C2.1
                                2-1846  "
    011125  aa   000000 0110 03 2-1847            even
    011126  aa   004004 004001  2-1848  EBLDCL:oct     004004004001
    011127  aa   000000 000004  2-1849         dec     4
    011130  aa   000000 000000  2-1850         oct     0
    011131  aa   000000 000000  2-1851         dec     0
                                2-1852         ZEROP   C12.1
    011132  aa   000712 000000          	zero	C12.1-BASNM
                                2-1853         ZEROP   C2
    011133  aa   000654 000000          	zero	C2-BASNM
                                2-1854         ZEROP   .BIN
    011134  aa   002046 000000          	zero	.BIN-BASNM
                                2-1855  "   END INCLUDE FILE  gtss_prgdes_alm_.incl.alm
                                    26  "
                                    27  "
                                    28  "	Mark end of program descriptors.
                        011135      29  	segdef	ENDprgds
    011135  aa  105 116 104 160     30  ENDprgds:	aci	|ENDprgds|
    011136  aa  162 147 144 163
                                    31  "
                                    32
                                    33  	join	/static/loc1
                                    34  	end

NO LITERALS

NAME DEFINITIONS FOR ENTRY POINTS AND SEGDEFS

    000000  5a   000003 000000
    000001  5a   000100 600000
    000002  aa   000000 000000
    000003  55   000013 000002
    000004  5a   000002 400003
    000005  55   000006 000013
    000006  aa  020 147 164 163
    000007  aa  163 137 160 162
    000010  aa  147 144 145 163
    000011  aa  137 145 170 164
    000012  aa  137 000 000 000
    000013  55   000021 000003
    000014  4a   011135 400004
    000015  55   000016 000003
    000016  aa  010 105 116 104         ENDprgds
    000017  aa  160 162 147 144
    000020  aa  163 000 000 000
    000021  55   000027 000013
    000022  4a   007056 400004
    000023  55   000024 000003
    000024  aa  012 160 162 151         primitives
    000025  aa  155 151 164 151
    000026  aa  166 145 163 000
    000027  55   000034 000021
    000030  4a   007054 400004
    000031  55   000032 000003
    000032  aa  004 145 144 142         edbn
    000033  aa  156 000 000 000
    000034  55   000041 000027
    000035  4a   007053 400004
    000036  55   000037 000003
    000037  aa  005 143 155 154         cmlcl
    000040  aa  143 154 000 000
    000041  55   000046 000034
    000042  4a   007052 400004
    000043  55   000044 000003
    000044  aa  004 142 163 145         bsed
    000045  aa  144 000 000 000
    000046  55   000055 000041
    000047  4a   007051 400004
    000050  55   000051 000003
    000051  aa  016 143 157 155         common_cmd_num
    000052  aa  155 157 156 137
    000053  aa  143 155 144 137
    000054  aa  156 165 155 000
    000055  55   000064 000046
    000056  4a   007050 400004
    000057  55   000060 000003
    000060  aa  015 142 141 163         basic_cmd_num
    000061  aa  151 143 137 143
    000062  aa  155 144 137 156
    000063  aa  165 155 000 000
    000064  55   000071 000055
    000065  4a   000000 400004
    000066  55   000067 000003
    000067  aa  006 160 162 147         prgdes
    000070  aa  144 145 163 000
    000071  55   000002 000064
    000072  6a   000000 400002
    000073  55   000074 000003
    000074  aa  014 163 171 155         symbol_table
    000075  aa  142 157 154 137
    000076  aa  164 141 142 154
    000077  aa  145 000 000 000

DEFINITIONS HASH TABLE

    000100  aa   000000 000015
    000101  5a   000064 000000
    000102  5a   000046 000000
    000103  aa   000000 000000
    000104  aa   000000 000000
    000105  aa   000000 000000
    000106  aa   000000 000000
    000107  5a   000021 000000
    000110  5a   000071 000000
    000111  5a   000055 000000
    000112  5a   000027 000000
    000113  5a   000034 000000
    000114  5a   000013 000000
    000115  5a   000041 000000

NO EXTERNAL NAMES

NO TRAP POINTER WORDS

TYPE PAIR BLOCKS

    000116  aa   000001 000000
    000117  aa   000000 000000

INTERNAL EXPRESSION WORDS

LINKAGE INFORMATION

    011140  aa   000000 000000
    011141  0a   000000 000000
    011142  aa   000000 000000
    011143  aa   000000 000000
    011144  aa   000000 000000
    011145  aa   000000 000000
    011146  22   000010 000010
    011147  a2   000000 011140
SYMBOL INFORMATION

SYMBOL TABLE HEADER

    000000  aa   000000 000001
    000001  aa   163171 155142
    000002  aa   164162 145145
    000003  aa   000000 000004
    000004  aa   000000 112143
    000005  aa   305203 523135
    000006  aa   000000 113224
    000007  aa   056421 146712
    000010  aa   141154 155040
    000011  aa   040040 040040
    000012  aa   000024 000040
    000013  aa   000034 000040
    000014  aa   000044 000100
    000015  aa   000002 000002
    000016  aa   000064 000000
    000017  aa   000000 000155
    000020  aa   000000 000140
    000021  aa   000000 000142
    000022  aa   000145 000140
    000023  aa   000064 000000
    000024  aa   101114 115040
    000025  aa   126145 162163
    000026  aa   151157 156040
    000027  aa   040066 056066
    000030  aa   040040 116157
    000031  aa   166145 155142
    000032  aa   145162 040061
    000033  aa   071070 062040
    000034  aa   107112 157150
    000035  aa   156163 157156
    000036  aa   056123 171163
    000037  aa   115141 151156
    000040  aa   164056 155040
    000041  aa   040040 040040
    000042  aa   040040 040040
    000043  aa   040040 040040
    000044  aa   154151 163164
    000045  aa   040040 040040
    000046  aa   040040 040040
    000047  aa   040040 040040
    000050  aa   040040 040040
    000051  aa   040040 040040
    000052  aa   040040 040040
    000053  aa   040040 040040
    000054  aa   040040 040040
    000055  aa   040040 040040
    000056  aa   040040 040040
    000057  aa   040040 040040
    000060  aa   040040 040040
    000061  aa   040040 040040
    000062  aa   040040 040040
    000063  aa   040040 040040
    000064  aa   000000 000001
    000065  aa   000000 000003
    000066  aa   000102 000042
    000067  aa   132233 023102
    000070  aa   000000 113224
    000071  aa   026741 600000
    000072  aa   000113 000051
    000073  aa   121240 121276
    000074  aa   000000 112124
    000075  aa   430556 600000
    000076  aa   000126 000046
    000077  aa   121240 121273
    000100  aa   000000 112124
    000101  aa   430556 200000
    000102  aa   076163 160145          >spec>on>7105>gtss_prgdes_ext_.alm
    000103  aa   143076 157156
    000104  aa   076067 061060
    000105  aa   065076 147164
    000106  aa   163163 137160
    000107  aa   162147 144145
    000110  aa   163137 145170
    000111  aa   164137 056141
    000112  aa   154155 040040
    000113  aa   076154 144144          >ldd>include>gtss_prgdes_macros_.incl.alm
    000114  aa   076151 156143
    000115  aa   154165 144145
    000116  aa   076147 164163
    000117  aa   163137 160162
    000120  aa   147144 145163
    000121  aa   137155 141143
    000122  aa   162157 163137
    000123  aa   056151 156143
    000124  aa   154056 141154
    000125  aa   155040 040040
    000126  aa   076154 144144          >ldd>include>gtss_prgdes_alm_.incl.alm
    000127  aa   076151 156143
    000130  aa   154165 144145
    000131  aa   076147 164163
    000132  aa   163137 160162
    000133  aa   147144 145163
    000134  aa   137141 154155
    000135  aa   137056 151156
    000136  aa   143154 056141
    000137  aa   154155 040040
               MULTICS ASSEMBLY CROSS REFERENCE LISTING

   Value        Symbol                   Source file   Line number

          40    .BASIC                   gtss_prgdes_macros_:      151,
                                         gtss_prgdes_alm_:    44,   47,   50.
         372    .BASNM                   gtss_prgdes_alm_:   935, 1204.
      400000    .BCACH                   gtss_prgdes_macros_:      163,
                                         gtss_prgdes_alm_:   167,  170.
          20    .BCMCL                   gtss_prgdes_macros_:      150,
                                         gtss_prgdes_alm_:    20,   53,   56,   59,   62,  519,  764.
       20000    .BCMOV                   gtss_prgdes_macros_:      159,
                                         gtss_prgdes_alm_:    86,   89,   92,   95,  101,  119,  188,  239,  260,  314,  317,
                                                             323,  928.
         200    .BEXEC                   gtss_prgdes_macros_:      153,
                                         gtss_prgdes_alm_:   113,  155,  308,  323,  386,  413,  658,  661,  664,  667,  670,
                                                             673,  931.
         400    .BGSPC                   gtss_prgdes_macros_:      154,
                                         gtss_prgdes_alm_:    65,  212,  311,  323,  925.
        4000    .BHUSE                   gtss_prgdes_macros_:      157,
                                         gtss_prgdes_alm_:    65,   71,  113,  158,  167,  170,  173.
       11124    .BIN                     gtss_prgdes_alm_:  1345, 1414, 1676, 1682, 1690, 1844, 1854.
         100    .BLSMC                   gtss_prgdes_macros_:      152,
                                         gtss_prgdes_alm_:   116,  119,  137,  188,  191,  311,  320.
          10    .BLUSE                   gtss_prgdes_macros_:      149,
                                         gtss_prgdes_alm_:    41,   65,   71,  113,  134,  158,  167,  170,  173,  209,  317,
                                                             925,  928.
           2    .BMAST                   gtss_prgdes_macros_:      147,
                                         gtss_prgdes_alm_:   137,  140,  152.
       40000    .BMASX                   gtss_prgdes_macros_:      160,
                                         gtss_prgdes_alm_:   137,  140,  152,  928.
        1000    .BNSYS                   gtss_prgdes_macros_:      155,
                                         gtss_prgdes_alm_:    77,   80,   83,  161,  176,  194,  386,  389,  392,  395,  398,
                                                             401,  404,  407,  410,  413,  416,  419,  422,  425,  428,  431,
                                                             434,  437,  440,  443,  446,  449,  452,  455,  500,  503,  506,
                                                             509,  513,  522,  525,  528,  531,  534,  537,  540,  543,  546,
                                                             549,  552,  555,  558,  561,  564,  567,  570,  573,  577,  580,
                                                             583,  586,  589,  592,  599,  605,  608,  611,  614,  617,  620,
                                                             623,  627,  630,  633,  636,  639,  642,  645,  648,  651,  654,
                                                             685,  688,  691,  694,  697,  700,  703,  706,  709,  712,  715,
                                                             718,  721,  724,  727,  730,  733,  736,  739,  742,  745,  748,
                                                             751,  754,  757,  760,  767,  770,  773,  776,  779,  782,  785,
                                                             788,  794,  797,  800,  803,  806,  809,  812,  815,  818,  825,
                                                             828,  831,  834,  837,  840,  843,  846,  849,  852,  855,  858,
                                                             862,  865,  868,  871,  874,  877,  880,  883,  886,  889,  892,
                                                             895,  898,  901,  904,  907,  910,  913,  916,  919,  922.
           1    .BPRIV                   gtss_prgdes_macros_:      146,
                                         gtss_prgdes_alm_:   116,  119,  125,  137,  140,  152,  188,  191,  242,  257,  302,
                                                             311,  317,  320,  323,  467,  473,  476,  479,  482,  485,  488,
                                                             491,  494,  497.
           4    .BPTCH                   gtss_prgdes_macros_:      148.
      200000    .BSCF                    gtss_prgdes_macros_:      162.
       10000    .BSPO                    gtss_prgdes_macros_:      158,
                                         gtss_prgdes_alm_:    47,   50,   53,   56,   59,   62,   65,   71,   74,   77,   80,
                                                              83,  104,  107,  113,  137,  140,  143,  146,  149,  152,  155,
                                                             176,  179,  182,  203,  209,  239,  299,  317,  320,  329,  335,
                                                             338,  341,  344,  347,  350,  353,  356,  359,  362,  365,  368,
                                                             371,  374,  377,  380,  383,  386,  389,  392,  395,  398,  401,
                                                             404,  407,  410,  413,  416,  419,  422,  425,  428,  431,  434,
                                                             437,  440,  443,  446,  449,  452,  455,  458,  467,  513,  516,
                                                             522,  525,  528,  531,  534,  537,  540,  543,  546,  549,  552,
                                                             555,  558,  561,  564,  567,  570,  573,  577,  580,  583,  586,
                                                             589,  592,  596,  599,  602,  605,  608,  611,  614,  617,  620,
                                                             623,  658,  664,  667,  670,  682,  685,  688,  691,  694,  697,
                                                             700,  703,  706,  709,  712,  715,  718,  721,  724,  727,  730,
                                                             733,  736,  739,  742,  745,  748,  751,  754,  757,  760,  767,
                                                             770,  773,  776,  779,  782,  785,  788,  791,  794,  797,  800,
                                                             803,  806,  809,  812,  815,  818,  822,  825,  828,  831,  834,
                                                             837,  840,  843,  846,  849,  852,  855,  858,  862,  865,  868,
                                                             871,  874,  877,  880,  883,  886,  889,  892,  895,  898,  901,
                                                             904,  907,  910,  913,  916,  919,  922.
      100000    .BSPSZ                   gtss_prgdes_macros_:      161,
                                         gtss_prgdes_alm_:   386,  413,  522,  767.
        2000    .BTFSW                   gtss_prgdes_macros_:      156,
                                         gtss_prgdes_alm_:   167,  299,  323.
         374    .COMCL                   gtss_prgdes_alm_:   938, 1211.
        7733    .POPUP                   gtss_prgdes_alm_:  1674, 1680, 1687, 1822, 1824, 1826, 1828, 1830, 1832, 1834, 1836, 1845.
           0    .SW0                     gtss_prgdes_macros_:      118,
                                         gtss_prgdes_alm_:  1355, 1364, 1372, 1591, 1601, 1607, 1621, 1630, 1640, 1674, 1688.
           1    .SW1                     gtss_prgdes_macros_:      119,
                                         gtss_prgdes_alm_:  1356, 1365, 1373, 1592, 1602, 1608, 1631, 1680, 1689.
          12    .SW10                    gtss_prgdes_macros_:      128,
                                         gtss_prgdes_alm_:  1412, 1414, 1456, 1682, 1687.
          13    .SW11                    gtss_prgdes_macros_:      129,
                                         gtss_prgdes_alm_:  1822, 1824.
          14    .SW12                    gtss_prgdes_macros_:      130,
                                         gtss_prgdes_alm_:  1676.
          15    .SW13                    gtss_prgdes_macros_:      131.
          16    .SW14                    gtss_prgdes_macros_:      132,
                                         gtss_prgdes_alm_:  1381, 1385, 1475, 1534.
          17    .SW15                    gtss_prgdes_macros_:      133,
                                         gtss_prgdes_alm_:  1403, 1535.
          20    .SW16                    gtss_prgdes_macros_:      134,
                                         gtss_prgdes_alm_:  1826, 1828.
          21    .SW17                    gtss_prgdes_macros_:      135,
                                         gtss_prgdes_alm_:  1349, 1397, 1461, 1530, 1563, 1673, 1679, 1747, 1804, 1842.
           2    .SW2                     gtss_prgdes_macros_:      120,
                                         gtss_prgdes_alm_:  1357, 1366, 1374, 1593, 1603, 1609, 1690.
           3    .SW3                     gtss_prgdes_macros_:      121.
          44    .SW36                    gtss_prgdes_macros_:      137,
                                         gtss_prgdes_alm_:  1565.
          45    .SW37                    gtss_prgdes_macros_:      138,
                                         gtss_prgdes_alm_:  1567.
          46    .SW38                    gtss_prgdes_macros_:      139,
                                         gtss_prgdes_alm_:  1830, 1832.
          47    .SW39                    gtss_prgdes_macros_:      140,
                                         gtss_prgdes_alm_:  1834, 1836.
           4    .SW4                     gtss_prgdes_macros_:      122,
                                         gtss_prgdes_alm_:  1415.
          50    .SW40                    gtss_prgdes_macros_:      141,
                                         gtss_prgdes_alm_:  1359, 1368, 1376, 1595, 1605, 1611.
          51    .SW41                    gtss_prgdes_macros_:      142.
          52    .SW42                    gtss_prgdes_macros_:      143.
           5    .SW5                     gtss_prgdes_macros_:      123,
                                         gtss_prgdes_alm_:  1458, 1685.
           6    .SW6                     gtss_prgdes_macros_:      124.
           7    .SW7                     gtss_prgdes_macros_:      125.
          10    .SW8                     gtss_prgdes_macros_:      126.
          11    .SW9                     gtss_prgdes_macros_:      127,
                                         gtss_prgdes_alm_:  1351, 1532.
           0    .TPD                     gtss_prgdes_alm_:    17, 1349, 1350, 1358, 1359, 1367, 1368, 1375, 1376, 1382, 1396,
                                                            1397, 1399, 1400, 1401, 1404, 1405, 1407, 1408, 1409, 1410, 1411,
                                                            1413, 1416, 1422, 1424, 1425, 1426, 1427, 1428, 1429, 1430, 1431,
                                                            1432, 1433, 1434, 1435, 1436, 1437, 1438, 1439, 1440, 1441, 1442,
                                                            1443, 1444, 1445, 1446, 1447, 1448, 1449, 1450, 1451, 1452, 1453,
                                                            1454, 1455, 1456, 1460, 1461, 1463, 1464, 1465, 1466, 1467, 1468,
                                                            1469, 1471, 1472, 1473, 1474, 1476, 1477, 1478, 1479, 1480, 1482,
                                                            1483, 1484, 1485, 1488, 1489, 1490, 1491, 1492, 1493, 1494, 1495,
                                                            1496, 1497, 1498, 1499, 1500, 1502, 1509, 1510, 1512, 1514, 1515,
                                                            1517, 1518, 1519, 1520, 1521, 1522, 1523, 1524, 1525, 1526, 1527,
                                                            1528, 1530, 1531, 1536, 1563, 1564, 1566, 1570, 1571, 1572, 1573,
                                                            1582, 1594, 1595, 1604, 1605, 1610, 1611, 1644, 1675, 1681, 1738,
                                                            1739, 1740, 1741, 1742, 1743, 1744, 1745, 1746, 1747, 1748, 1749,
                                                            1751, 1752, 1753, 1754, 1803, 1804, 1805, 1806, 1808, 1809, 1810,
                                                            1811, 1812, 1813, 1814, 1815, 1816, 1817, 1841, 1842.
           0    .TPRGD                   gtss_prgdes_alm_:    16.
        2670    .YQ0                     gtss_prgdes_alm_:   385, 1359, 1595.
       10542    A1                       gtss_prgdes_alm_:  1637, 1640.
       10407    A2                       gtss_prgdes_alm_:  1638, 1641.
        1604    ABC                      gtss_prgdes_alm_:   244, 1443.
         264    ACCESS                   gtss_prgdes_alm_:    64, 1445.
        2260    ADMN                     gtss_prgdes_alm_:   319, 1518.
         660    AFT                      gtss_prgdes_alm_:   127, 1427.
       10536    ALGLCL                   gtss_prgdes_alm_:    62, 1635.
         250    ALGOL                    gtss_prgdes_alm_:    61.
       10746    AMDCL                    gtss_prgdes_alm_:   764, 1756.
        2230    APB                      gtss_prgdes_alm_:   313, 1522.
        6154    APL                      gtss_prgdes_alm_:   821, 1489.
        1700    APRT                     gtss_prgdes_alm_:   259, 1471.
         124    ASCASC                   gtss_prgdes_alm_:    40, 1464.
          44    ASCBCD                   gtss_prgdes_alm_:    28, 1465.
        5750    ATZCK                    gtss_prgdes_alm_:   787, 1805.
        1270    AUTO                     gtss_prgdes_alm_:   193, 1429.
       10402    B1                       gtss_prgdes_alm_:  1309, 1392, 1530.
       10403    B1.1                     gtss_prgdes_alm_:  1531, 1532.
       10406    B2                       gtss_prgdes_alm_:  1310, 1393, 1534, 1569.
       10407    B3                       gtss_prgdes_alm_:  1394, 1535, 1574, 1583, 1597, 1622, 1632, 1641.
       10410    B3.1                     gtss_prgdes_alm_:  1535, 1536.
        4160    B3ADF                    gtss_prgdes_alm_:   560, 1741.
        4100    B3DIR                    gtss_prgdes_alm_:   548, 1743.
        4130    B3DJS                    gtss_prgdes_alm_:   554, 1745.
        4144    B3PRI                    gtss_prgdes_alm_:   557, 1746.
        3724    B3RUN                    gtss_prgdes_alm_:   521, 1740.
        4114    B3SIN                    gtss_prgdes_alm_:   551, 1744.
        4064    B3TUT                    gtss_prgdes_alm_:   545, 1742.
        4210    B3XX1                    gtss_prgdes_alm_:   566, 1751.
        4224    B3XX2                    gtss_prgdes_alm_:   569, 1752.
        4240    B3XX3                    gtss_prgdes_alm_:   572, 1754.
        7720    BASCL                    gtss_prgdes_alm_:    47, 1388.
         154    BASIC                    gtss_prgdes_alm_:    46.
        7050    basic_cmd_num            gtss_prgdes_alm_:   933,  935.
        7056    BASNM                    gtss_prgdes_alm_:    20,   23,   26,   29,   32,   35,   38,   41,   44,   47,   50,
                                                              53,   56,   59,   62,   65,   68,   71,   74,   77,   80,   83,
                                                              86,   89,   92,   95,   98,  101,  104,  107,  110,  113,  116,
                                                             119,  122,  125,  128,  131,  134,  137,  140,  143,  146,  149,
                                                             152,  155,  158,  161,  164,  167,  170,  173,  176,  179,  182,
                                                             185,  188,  191,  194,  197,  200,  203,  206,  209,  212,  215,
                                                             218,  221,  224,  227,  230,  233,  236,  239,  242,  245,  248,
                                                             251,  254,  257,  260,  263,  266,  269,  272,  275,  278,  281,
                                                             284,  287,  290,  293,  296,  299,  302,  305,  308,  311,  314,
                                                             317,  320,  323,  326,  329,  332,  335,  338,  341,  344,  347,
                                                             350,  353,  356,  359,  362,  365,  368,  371,  374,  377,  380,
                                                             383,  386,  389,  392,  395,  398,  401,  404,  407,  410,  413,
                                                             416,  419,  422,  425,  428,  431,  434,  437,  440,  443,  446,
                                                             449,  452,  455,  458,  461,  464,  467,  473,  476,  479,  482,
                                                             485,  488,  491,  494,  497,  500,  503,  506,  509,  513,  516,
                                                             519,  522,  525,  528,  531,  534,  537,  540,  543,  546,  549,
                                                             552,  555,  558,  561,  564,  567,  570,  573,  577,  580,  583,
                                                             586,  589,  592,  596,  599,  602,  605,  608,  611,  614,  617,
                                                             620,  623,  627,  630,  633,  636,  639,  642,  645,  648,  651,
                                                             654,  658,  661,  664,  667,  670,  673,  676,  679,  682,  685,
                                                             688,  691,  694,  697,  700,  703,  706,  709,  712,  715,  718,
                                                             721,  724,  727,  730,  733,  736,  739,  742,  745,  748,  751,
                                                             754,  757,  760,  764,  767,  770,  773,  776,  779,  782,  785,
                                                             788,  791,  794,  797,  800,  803,  806,  809,  812,  815,  818,
                                                             822,  825,  828,  831,  834,  837,  840,  843,  846,  849,  852,
                                                             855,  858,  862,  865,  868,  871,  874,  877,  880,  883,  886,
                                                             889,  892,  895,  898,  901,  904,  907,  910,  913,  916,  919,
                                                             922,  925,  928,  931,  944,  952, 1212, 1213, 1214, 1215, 1216,
                                                            1217, 1218, 1219, 1220, 1221, 1222, 1223, 1224, 1225, 1226, 1227,
                                                            1228, 1229, 1230, 1231, 1232, 1233, 1234, 1235, 1236, 1237, 1238,
                                                            1239, 1240, 1241, 1242, 1243, 1244, 1245, 1246, 1247, 1248, 1249,
                                                            1250, 1251, 1252, 1253, 1254, 1255, 1256, 1257, 1258, 1259, 1260,
                                                            1261, 1262, 1263, 1264, 1265, 1266, 1267, 1268, 1269, 1270, 1271,
                                                            1272, 1273, 1274, 1275, 1276, 1277, 1278, 1279, 1280, 1281, 1282,
                                                            1283, 1284, 1285, 1286, 1287, 1288, 1289, 1290, 1291, 1292, 1293,
                                                            1294, 1295, 1296, 1297, 1298, 1299, 1300, 1301, 1302, 1303, 1304,
                                                            1305, 1306, 1307, 1308, 1309, 1310, 1311, 1312, 1313, 1314, 1315,
                                                            1316, 1317, 1318, 1319, 1320, 1321, 1322, 1323, 1324, 1325, 1326,
                                                            1327, 1328, 1329, 1330, 1331, 1332, 1333, 1334, 1335, 1336, 1341,
                                                            1345, 1348, 1351, 1354, 1355, 1356, 1357, 1363, 1364, 1365, 1366,
                                                            1371, 1372, 1373, 1374, 1380, 1381, 1384, 1385, 1392, 1393, 1394,
                                                            1403, 1412, 1414, 1415, 1458, 1475, 1532, 1534, 1535, 1555, 1556,
                                                            1557, 1558, 1559, 1560, 1561, 1565, 1567, 1579, 1580, 1588, 1589,
                                                            1591, 1592, 1593, 1601, 1602, 1603, 1607, 1608, 1609, 1618, 1619,
                                                            1621, 1627, 1628, 1630, 1631, 1637, 1638, 1640, 1643, 1662, 1663,
                                                            1664, 1665, 1666, 1667, 1668, 1669, 1670, 1673, 1674, 1676, 1679,
                                                            1680, 1682, 1685, 1687, 1688, 1689, 1690, 1722, 1723, 1724, 1725,
                                                            1726, 1727, 1728, 1729, 1730, 1731, 1732, 1733, 1734, 1735, 1736,
                                                            1787, 1788, 1789, 1790, 1791, 1792, 1793, 1794, 1795, 1796, 1797,
                                                            1798, 1799, 1800, 1801, 1802, 1819, 1821, 1822, 1823, 1824, 1825,
                                                            1826, 1827, 1828, 1829, 1830, 1831, 1832, 1833, 1834, 1835, 1836,
                                                            1837, 1840, 1852, 1853, 1854.
        1034    BASY                     gtss_prgdes_alm_:   154, 1350, 1531.
         110    BCDA                     gtss_prgdes_alm_:    37, 1468.
          60    BPRI                     gtss_prgdes_alm_:    31, 1466.
          74    BPUN                     gtss_prgdes_alm_:    34, 1467.
        4760    BRN                      gtss_prgdes_alm_:   660.
        7655    BRN.1                    gtss_prgdes_alm_:  1350, 1351.
        7653    BRNCL                    gtss_prgdes_alm_:   661, 1348.
        1130    BSED                     gtss_prgdes_alm_:   169, 1349, 1358, 1367, 1375, 1382, 1396, 1397, 1399, 1400, 1404,
                                                            1405, 1407, 1408, 1409, 1410, 1411, 1413, 1416, 1422, 1424, 1425,
                                                            1426, 1427, 1428, 1429, 1430, 1431, 1432, 1433, 1434, 1435, 1436,
                                                            1437, 1438, 1439, 1440, 1441, 1442, 1443, 1444, 1445, 1446, 1447,
                                                            1448, 1449, 1450, 1451, 1452, 1453, 1454, 1455, 1456, 1460, 1461,
                                                            1463, 1464, 1465, 1466, 1467, 1468, 1469, 1471, 1472, 1473, 1474,
                                                            1476, 1477, 1478, 1479, 1480, 1482, 1483, 1484, 1485, 1488, 1489,
                                                            1490, 1491, 1492, 1493, 1494, 1495, 1496, 1497, 1498, 1499, 1500,
                                                            1502, 1509, 1510, 1512, 1514, 1515, 1517, 1518, 1519, 1520, 1521,
                                                            1522, 1523, 1524, 1525, 1526, 1527, 1528, 1530, 1563, 1570, 1571,
                                                            1572, 1573, 1582, 1594, 1604, 1610, 1738, 1739, 1740, 1741, 1742,
                                                            1743, 1744, 1745, 1746, 1747, 1751, 1752, 1753, 1754, 1803, 1804,
                                                            1808, 1809, 1810, 1811, 1812, 1813, 1814, 1815, 1816, 1817, 1841, 1842.
        7052    bsed                     gtss_prgdes_alm_:   940,  941.
        5054    BSEQ                     gtss_prgdes_alm_:   675.
        7712    BSQ.1                    gtss_prgdes_alm_:  1381, 1382, 1385.
        7710    BSQCL                    gtss_prgdes_alm_:   676, 1380.
         550    BYE                      gtss_prgdes_alm_:   109.
        7513    BYEBYE                   gtss_prgdes_alm_:   110, 1243.
        7727    C1                       gtss_prgdes_alm_:  1212, 1396.
        7760    C10                      gtss_prgdes_alm_:  1217, 1409.
       10123    C100                     gtss_prgdes_alm_:  1317, 1508.
       10317    C101                     gtss_prgdes_alm_:  1319, 1509.
       10322    C102                     gtss_prgdes_alm_:  1320, 1510.
        7741    C103                     gtss_prgdes_alm_:  1321, 1511.
       10325    C104                     gtss_prgdes_alm_:  1323, 1512.
       10123    C105                     gtss_prgdes_alm_:  1324, 1513.
       10330    C106                     gtss_prgdes_alm_:  1325, 1514.
       10333    C107                     gtss_prgdes_alm_:  1326, 1515.
       10123    C108                     gtss_prgdes_alm_:  1327, 1516.
       10336    C109                     gtss_prgdes_alm_:  1234, 1517.
       10341    C109.1                   gtss_prgdes_alm_:  1328, 1518.
        7763    C11                      gtss_prgdes_alm_:  1218, 1410.
       10344    C110                     gtss_prgdes_alm_:  1329, 1519.
       10347    C111                     gtss_prgdes_alm_:  1330, 1520.
       10352    C112                     gtss_prgdes_alm_:  1331, 1521.
       10355    C113                     gtss_prgdes_alm_:  1332, 1522.
       10360    C114                     gtss_prgdes_alm_:  1333, 1523.
       10363    C115                     gtss_prgdes_alm_:  1334, 1524.
       10374    C118                     gtss_prgdes_alm_:  1335, 1527.
       10377    C119                     gtss_prgdes_alm_:  1336, 1528.
        7766    C12                      gtss_prgdes_alm_:  1246, 1411, 1418.
        7770    C12.1                    gtss_prgdes_alm_:  1412, 1459, 1852.
       10366    C120                     gtss_prgdes_alm_:  1322, 1525.
       10371    C122                     gtss_prgdes_alm_:  1318, 1526.
        7773    C13                      gtss_prgdes_alm_:  1247, 1415.
        7774    C13.1                    gtss_prgdes_alm_:  1415, 1416, 1417, 1419, 1420, 1421, 1458.
        7774    C14                      gtss_prgdes_alm_:  1248, 1417.
        7766    C15                      gtss_prgdes_alm_:  1249, 1418.
        7774    C16                      gtss_prgdes_alm_:  1250, 1419.
        7774    C17                      gtss_prgdes_alm_:  1251, 1420.
        7774    C18                      gtss_prgdes_alm_:  1252, 1421.
        7777    C19                      gtss_prgdes_alm_:  1253, 1422, 1481.
        7732    C2                       gtss_prgdes_alm_:  1242, 1397, 1853.
        7733    C2.1                     gtss_prgdes_alm_:  1398, 1672, 1678, 1845.
        7743    C20                      gtss_prgdes_alm_:  1254, 1423.
       10002    C21                      gtss_prgdes_alm_:  1255, 1424.
       10005    C22                      gtss_prgdes_alm_:  1256, 1425.
       10010    C23                      gtss_prgdes_alm_:  1257, 1426.
       10013    C23.1                    gtss_prgdes_alm_:  1219, 1427.
       10016    C24                      gtss_prgdes_alm_:  1220, 1428.
       10021    C25                      gtss_prgdes_alm_:  1258, 1429.
       10024    C26                      gtss_prgdes_alm_:  1259, 1430.
       10027    C27                      gtss_prgdes_alm_:  1260, 1431.
       10032    C28                      gtss_prgdes_alm_:  1221, 1432, 1487.
       10035    C29                      gtss_prgdes_alm_:  1261, 1433.
        7734    C3                       gtss_prgdes_alm_:  1213, 1399.
       10040    C30                      gtss_prgdes_alm_:  1262, 1434.
       10043    C31                      gtss_prgdes_alm_:  1222, 1435.
       10046    C32                      gtss_prgdes_alm_:  1263, 1436.
       10051    C33                      gtss_prgdes_alm_:  1264, 1437.
       10054    C34                      gtss_prgdes_alm_:  1265, 1438.
       10057    C34.1                    gtss_prgdes_alm_:  1266, 1439.
       10062    C34.2                    gtss_prgdes_alm_:  1267, 1440.
       10065    C34.3                    gtss_prgdes_alm_:  1268, 1441.
       10070    C35                      gtss_prgdes_alm_:  1223, 1442.
       10073    C36                      gtss_prgdes_alm_:  1269, 1443.
       10076    C37                      gtss_prgdes_alm_:  1224, 1444.
       10101    C38                      gtss_prgdes_alm_:  1225, 1445.
       10104    C39                      gtss_prgdes_alm_:  1270, 1446.
        7737    C4                       gtss_prgdes_alm_:  1243, 1400.
        7741    C4.1                     gtss_prgdes_alm_:  1401, 1511.
       10107    C40                      gtss_prgdes_alm_:  1271, 1447.
       10112    C41                      gtss_prgdes_alm_:  1272, 1448.
       10115    C42                      gtss_prgdes_alm_:  1273, 1449.
       10120    C43                      gtss_prgdes_alm_:  1274, 1450.
       10123    C44                      gtss_prgdes_alm_:  1275, 1451, 1470, 1503, 1504, 1505, 1506, 1507, 1508, 1513, 1516.
       10125    C45                      gtss_prgdes_alm_:  1276, 1452.
       10130    C46                      gtss_prgdes_alm_:  1277, 1453.
       10133    C47                      gtss_prgdes_alm_:  1278, 1454.
       10136    C48                      gtss_prgdes_alm_:  1279, 1455.
       10142    C49                      gtss_prgdes_alm_:  1280, 1458.
        7743    C5                       gtss_prgdes_alm_:  1214, 1403, 1406, 1423.
        7744    C5.1                     gtss_prgdes_alm_:  1403, 1404.
        7770    C50                      gtss_prgdes_alm_:  1226, 1459.
       10143    C51                      gtss_prgdes_alm_:  1281, 1460.
       10153    C52                      gtss_prgdes_alm_:  1235, 1464.
       10146    C53                      gtss_prgdes_alm_:  1227, 1461.
       10150    C54                      gtss_prgdes_alm_:  1282, 1463.
       10156    C55                      gtss_prgdes_alm_:  1236, 1465.
       10175    C56                      gtss_prgdes_alm_:  1283, 1471.
       10161    C57                      gtss_prgdes_alm_:  1237, 1466.
       10164    C58                      gtss_prgdes_alm_:  1238, 1467.
       10167    C59                      gtss_prgdes_alm_:  1239, 1468.
        7747    C6                       gtss_prgdes_alm_:  1244, 1405.
       10200    C60                      gtss_prgdes_alm_:  1284, 1472.
       10203    C61                      gtss_prgdes_alm_:  1285, 1473.
       10206    C62                      gtss_prgdes_alm_:  1286, 1474.
       10172    C63                      gtss_prgdes_alm_:  1240, 1469.
       10211    C64                      gtss_prgdes_alm_:  1341, 1475, 1501.
       10212    C64.1                    gtss_prgdes_alm_:  1475, 1476, 1534.
       10215    C65                      gtss_prgdes_alm_:  1287, 1477.
       10220    C66                      gtss_prgdes_alm_:  1288, 1478.
       10223    C67                      gtss_prgdes_alm_:  1289, 1479.
       10226    C68                      gtss_prgdes_alm_:  1290, 1480.
        7777    C69                      gtss_prgdes_alm_:  1291, 1481.
        7743    C7                       gtss_prgdes_alm_:  1245, 1406.
       10231    C70                      gtss_prgdes_alm_:  1292, 1482.
       10234    C71                      gtss_prgdes_alm_:  1293, 1483.
       10237    C72                      gtss_prgdes_alm_:  1294, 1484.
       10242    C73                      gtss_prgdes_alm_:  1295, 1485.
        7755    C74                      gtss_prgdes_alm_:  1228, 1486.
       10032    C75                      gtss_prgdes_alm_:  1229, 1487.
       10245    C76                      gtss_prgdes_alm_:  1296, 1488.
       10250    C77                      gtss_prgdes_alm_:  1297, 1489.
       10253    C78                      gtss_prgdes_alm_:  1230, 1490.
       10256    C79                      gtss_prgdes_alm_:  1231, 1491.
        7752    C8                       gtss_prgdes_alm_:  1215, 1407.
       10261    C80                      gtss_prgdes_alm_:  1298, 1492.
       10264    C81                      gtss_prgdes_alm_:  1299, 1493.
       10267    C82                      gtss_prgdes_alm_:  1300, 1494.
       10272    C83                      gtss_prgdes_alm_:  1232, 1495.
       10275    C84                      gtss_prgdes_alm_:  1301, 1496.
       10300    C85                      gtss_prgdes_alm_:  1302, 1497.
       10303    C86                      gtss_prgdes_alm_:  1303, 1498.
       10306    C87                      gtss_prgdes_alm_:  1304, 1499.
       10311    C88                      gtss_prgdes_alm_:  1305, 1500.
        7755    C9                       gtss_prgdes_alm_:  1216, 1408, 1486.
       10211    C92                      gtss_prgdes_alm_:  1233, 1501.
       10314    C93                      gtss_prgdes_alm_:  1311, 1502.
       10123    C94                      gtss_prgdes_alm_:  1312, 1503.
       10123    C95                      gtss_prgdes_alm_:  1313, 1504.
       10123    C96                      gtss_prgdes_alm_:  1241, 1470.
       10123    C97                      gtss_prgdes_alm_:  1314, 1505.
       10123    C98                      gtss_prgdes_alm_:  1315, 1506.
       10123    C99                      gtss_prgdes_alm_:  1316, 1507.
           0    CARD                     gtss_prgdes_alm_:    19.
       10460    CARDCL                   gtss_prgdes_alm_:    20, 1577.
          14    CARDIN                   gtss_prgdes_alm_:    22, 1582.
        1400    CATA                     gtss_prgdes_alm_:   211, 1409.
        4414    CIDS                     gtss_prgdes_alm_:   601, 1514.
        7034    CMDL                     gtss_prgdes_alm_:   930, 1841.
       11117    CMLCL                    gtss_prgdes_alm_:   944, 1841.
        7053    cmlcl                    gtss_prgdes_alm_:   943,  944.
        3504    CMOD                     gtss_prgdes_alm_:   484, 1437.
        4744    COBL74                   gtss_prgdes_alm_:   657, 1500.
        1774    CODE                     gtss_prgdes_alm_:   274, 1484.
        7057    COMCL                    gtss_prgdes_alm_:   953, 1204, 1211.
        7051    common_cmd_num           gtss_prgdes_alm_:   937,  938.
         644    CONN                     gtss_prgdes_alm_:   124, 1426.
         410    CONV                     gtss_prgdes_alm_:    85, 1490.
        1760    COPY                     gtss_prgdes_alm_:   271, 1483.
        3520    COUT                     gtss_prgdes_alm_:   487, 1438.
        3470    CPOS                     gtss_prgdes_alm_:   481, 1436.
        3374    CRUN                     gtss_prgdes_alm_:   466, 1432.
       10435    D1                       gtss_prgdes_alm_:  1555, 1563.
       10436    D1.1                     gtss_prgdes_alm_:  1564, 1567.
       10442    D1.2                     gtss_prgdes_alm_:  1565, 1568.
       10406    D2                       gtss_prgdes_alm_:  1556, 1569.
       10443    D3                       gtss_prgdes_alm_:  1557, 1570.
       10446    D4                       gtss_prgdes_alm_:  1558, 1571.
       10451    D5                       gtss_prgdes_alm_:  1559, 1572.
       10454    D6                       gtss_prgdes_alm_:  1560, 1573.
       10407    D7                       gtss_prgdes_alm_:  1561, 1574.
        3440    DABT                     gtss_prgdes_alm_:   475, 1434.
        2024    DASH                     gtss_prgdes_alm_:   280.
         170    DATAB                    gtss_prgdes_alm_:    49.
       10412    DATCL                    gtss_prgdes_alm_:    50, 1543.
        2654    DBAN                     gtss_prgdes_alm_:   382, 1573.
        2610    DBCR                     gtss_prgdes_alm_:   373, 1570.
        2624    DBDE                     gtss_prgdes_alm_:   376, 1571.
        2560    DBLP                     gtss_prgdes_alm_:   367, 1564.
        2574    DBRT                     gtss_prgdes_alm_:   370, 1566.
        5104    DBU                      gtss_prgdes_alm_:   681, 1525.
        2640    DBVE                     gtss_prgdes_alm_:   379, 1572.
        2434    DCLIST                   gtss_prgdes_alm_:   346.
        2010    DECODE                   gtss_prgdes_alm_:   277, 1485.
        1100    DELETE                   gtss_prgdes_alm_:   163, 1422.
         504    DISP                     gtss_prgdes_alm_:   100, 1495.
       10676    DM12                     gtss_prgdes_alm_:  1731, 1739.
       10673    DM6                      gtss_prgdes_alm_:  1727, 1738.
        5610    DMIV                     gtss_prgdes_alm_:   763.
        3674    DMSPER                   gtss_prgdes_alm_:   515, 1738.
        3660    DMSRED                   gtss_prgdes_alm_:   512, 1739.
        3454    DRUN                     gtss_prgdes_alm_:   478, 1435.
        6504    DS01                     gtss_prgdes_alm_:   876.
        6520    DS02                     gtss_prgdes_alm_:   879.
        6534    DS03                     gtss_prgdes_alm_:   882.
        6550    DS04                     gtss_prgdes_alm_:   885.
        6564    DS05                     gtss_prgdes_alm_:   888.
        6600    DS06                     gtss_prgdes_alm_:   891.
        6614    DS07                     gtss_prgdes_alm_:   894.
        6630    DS08                     gtss_prgdes_alm_:   897.
        6644    DS09                     gtss_prgdes_alm_:   900.
        6660    DS10                     gtss_prgdes_alm_:   903.
        6674    DS11                     gtss_prgdes_alm_:   906.
        6710    DS12                     gtss_prgdes_alm_:   909.
        6724    DS13                     gtss_prgdes_alm_:   912.
        6740    DS14                     gtss_prgdes_alm_:   915.
        6754    DS15                     gtss_prgdes_alm_:   918.
        6770    DS16                     gtss_prgdes_alm_:   921.
        6470    DSS                      gtss_prgdes_alm_:   873.
        3424    DSTS                     gtss_prgdes_alm_:   472, 1433.
        4540    DXEC                     gtss_prgdes_alm_:   622.
        7733    E1                       gtss_prgdes_alm_:  1662, 1672.
       10577    E2                       gtss_prgdes_alm_:  1663, 1673, 1685.
       10601    E2.1                     gtss_prgdes_alm_:  1673, 1675.
        7733    E3                       gtss_prgdes_alm_:  1664, 1678.
       10604    E4                       gtss_prgdes_alm_:  1665, 1679, 1684.
       10606    E4.1                     gtss_prgdes_alm_:  1679, 1681.
       10604    E5                       gtss_prgdes_alm_:  1666, 1684.
       10611    E6                       gtss_prgdes_alm_:  1667, 1685.
       10613    E7                       gtss_prgdes_alm_:  1669, 1687.
       10614    E8                       gtss_prgdes_alm_:  1670, 1688.
       10615    E8.1                     gtss_prgdes_alm_:  1688, 1689.
       10616    E8.2                     gtss_prgdes_alm_:  1689, 1690.
       10612    E9                       gtss_prgdes_alm_:  1668, 1686.
       11126    EBLDCL                   gtss_prgdes_alm_:   464, 1848.
        1224    EDBN                     gtss_prgdes_alm_:   184.
        7054    edbn                     gtss_prgdes_alm_:   946,  947.
       10546    EDBNCL                   gtss_prgdes_alm_:   185, 1647.
       10543    EDCL                     gtss_prgdes_alm_:    68, 1643.
         300    EDITOR                   gtss_prgdes_alm_:    67.
         314    EDTX                     gtss_prgdes_alm_:    70, 1408, 1644.
       11135    ENDprgds                 gtss_prgdes_ext_:    29,   30.
        2040    ERAS                     gtss_prgdes_alm_:   283, 1446.
        2464    EXEC                     gtss_prgdes_alm_:   352.
       11113    EXPCL                    gtss_prgdes_alm_:    23,   26,   29,   32,   35,   38,   41,   65,   71,   74,   77,
                                                              80,   83,   86,   89,   92,   95,   98,  101,  104,  107,  113,
                                                             116,  119,  122,  125,  128,  131,  134,  137,  140,  143,  146,
                                                             149,  152,  155,  158,  161,  164,  167,  170,  173,  176,  179,
                                                             182,  188,  191,  194,  197,  200,  203,  206,  209,  212,  215,
                                                             218,  233,  236,  239,  242,  245,  254,  257,  260,  263,  266,
                                                             269,  272,  275,  278,  281,  284,  287,  290,  299,  302,  305,
                                                             308,  311,  314,  317,  320,  323,  326,  329,  332,  335,  338,
                                                             341,  344,  347,  350,  353,  356,  359,  362,  365,  368,  371,
                                                             374,  377,  380,  383,  386,  389,  392,  395,  398,  401,  404,
                                                             407,  410,  413,  416,  419,  422,  425,  428,  431,  434,  437,
                                                             440,  443,  446,  449,  452,  455,  458,  467,  473,  476,  479,
                                                             482,  485,  488,  491,  494,  497,  500,  503,  506,  509,  513,
                                                             516,  522,  525,  528,  531,  534,  537,  540,  543,  546,  549,
                                                             552,  555,  558,  561,  564,  567,  570,  573,  577,  580,  583,
                                                             586,  589,  592,  596,  599,  602,  605,  608,  611,  614,  617,
                                                             620,  623,  627,  630,  633,  636,  639,  642,  645,  648,  651,
                                                             654,  658,  664,  682,  685,  688,  691,  694,  697,  700,  703,
                                                             706,  709,  712,  715,  718,  721,  724,  727,  730,  733,  736,
                                                             739,  742,  745,  748,  751,  754,  757,  760,  767,  770,  773,
                                                             776,  779,  782,  785,  788,  791,  794,  797,  800,  803,  806,
                                                             809,  812,  815,  818,  822,  825,  828,  831,  834,  837,  840,
                                                             843,  846,  849,  852,  855,  858,  862,  865,  868,  871,  874,
                                                             877,  880,  883,  886,  889,  892,  895,  898,  901,  904,  907,
                                                             910,  913,  916,  919,  922,  925,  928,  931, 1837.
       10474    F1                       gtss_prgdes_alm_:  1306, 1588, 1591.
       10475    F1.1                     gtss_prgdes_alm_:  1591, 1592, 1621.
       10476    F1.2                     gtss_prgdes_alm_:  1592, 1593, 1631.
       10477    F1.3                     gtss_prgdes_alm_:  1593, 1594.
       10407    F2                       gtss_prgdes_alm_:  1589, 1597.
        1334    FDUMP                    gtss_prgdes_alm_:   202, 1472.
        1474    FORM                     gtss_prgdes_alm_:   226, 1479.
       11107    FORMCL                   gtss_prgdes_alm_:   227, 1833.
         234    FORTT                    gtss_prgdes_alm_:    58.
         220    FORTY                    gtss_prgdes_alm_:    55.
        5024    FR7                      gtss_prgdes_alm_:   669.
        7671    FR7.0                    gtss_prgdes_alm_:  1363, 1364.
        7672    FR7.1                    gtss_prgdes_alm_:  1364, 1365.
        7673    FR7.2                    gtss_prgdes_alm_:  1365, 1366.
        7674    FR7.3                    gtss_prgdes_alm_:  1366, 1367.
       10503    FR7.4                    gtss_prgdes_alm_:  1308, 1601.
       10504    FR7.5                    gtss_prgdes_alm_:  1601, 1602.
       10505    FR7.6                    gtss_prgdes_alm_:  1602, 1603.
       10506    FR7.7                    gtss_prgdes_alm_:  1603, 1604.
        7670    FR7CL                    gtss_prgdes_alm_:   670, 1363.
        5010    FR7T                     gtss_prgdes_alm_:   666.
        7701    FR7T.0                   gtss_prgdes_alm_:  1371, 1372.
        7702    FR7T.1                   gtss_prgdes_alm_:  1372, 1373.
        7703    FR7T.2                   gtss_prgdes_alm_:  1373, 1374.
        7704    FR7T.3                   gtss_prgdes_alm_:  1374, 1375.
       10512    FR7T.4                   gtss_prgdes_alm_:  1307, 1607.
       10513    FR7T.5                   gtss_prgdes_alm_:  1607, 1608.
       10514    FR7T.6                   gtss_prgdes_alm_:  1608, 1609.
       10515    FR7T.7                   gtss_prgdes_alm_:  1609, 1610.
        7700    FR7TCL                   gtss_prgdes_alm_:   667, 1371.
        5040    FRN                      gtss_prgdes_alm_:   672.
        7662    FRN.1                    gtss_prgdes_alm_:  1355, 1356.
        7663    FRN.2                    gtss_prgdes_alm_:  1356, 1357.
        7664    FRN.3                    gtss_prgdes_alm_:  1357, 1358.
        7660    FRNCL                    gtss_prgdes_alm_:   673, 1354.
        1350    GET                      gtss_prgdes_alm_:   205, 1407.
         710    HELP                     gtss_prgdes_alm_:   133, 1450.
        1620    HOLD                     gtss_prgdes_alm_:   247, 1447.
       11073    HOLDCL                   gtss_prgdes_alm_:   248, 1821.
        2370    IDSQ                     gtss_prgdes_alm_:   337, 1509.
        4364    IIDS                     gtss_prgdes_alm_:   595, 1510.
       10526    J1                       gtss_prgdes_alm_:  1618, 1621.
       10407    J2                       gtss_prgdes_alm_:  1619, 1622.
        1664    JABT                     gtss_prgdes_alm_:   256, 1473.
         470    JDAC                     gtss_prgdes_alm_:    97, 1494.
        2150    JOUT                     gtss_prgdes_alm_:   301, 1463.
       10522    JOVCL                    gtss_prgdes_alm_:    53, 1616.
         204    JOVIAL                   gtss_prgdes_alm_:    52.
         440    JPRINT                   gtss_prgdes_alm_:    91, 1492.
         454    JPUNCH                   gtss_prgdes_alm_:    94, 1493.
         424    JRN                      gtss_prgdes_alm_:    88, 1491.
        1570    JSTS                     gtss_prgdes_alm_:   241, 1442.
        2420    LANGDP                   gtss_prgdes_alm_:   343.
       11105    LCASCL                   gtss_prgdes_alm_:   224, 1831.
        1460    LCASE                    gtss_prgdes_alm_:   223, 1478.
        3330    LEAD                     gtss_prgdes_alm_:   457, 1431.
        1650    LENG                     gtss_prgdes_alm_:   253, 1449.
        1304    LINE                     gtss_prgdes_alm_:   196, 1430.
        1144    LIST                     gtss_prgdes_alm_:   172, 1396.
           0    loc1                     gtss_prgdes_ext_:    33,
                                         gtss_prgdes_alm_:    12.
        2274    LODS                     gtss_prgdes_alm_:   322, 1497.
        2310    LODT                     gtss_prgdes_alm_:   325, 1498.
         564    LODX                     gtss_prgdes_alm_:   112, 1496.
         600    LOGO                     gtss_prgdes_alm_:   115, 1401.
         520    MAIL                     gtss_prgdes_alm_:   103, 1515.
         754    MAS1                     gtss_prgdes_alm_:   142.
         770    MAS3                     gtss_prgdes_alm_:   145.
        1004    MAS4                     gtss_prgdes_alm_:   148.
         724    MASTER                   gtss_prgdes_alm_:   136, 1499.
        6044    MDADF                    gtss_prgdes_alm_:   802, 1813.
       11052    MDADFQ                   gtss_prgdes_alm_:  1788, 1813.
        6074    MDCMD                    gtss_prgdes_alm_:   808, 1815.
       11060    MDCON                    gtss_prgdes_alm_:  1796, 1815.
        6014    MDDIR                    gtss_prgdes_alm_:   796, 1810.
       11041    MDDMDI                   gtss_prgdes_alm_:  1791, 1810.
        6110    MDDML                    gtss_prgdes_alm_:   811, 1816.
       11044    MDDMP                    gtss_prgdes_alm_:  1794, 1811.
       11024    MDDMR                    gtss_prgdes_alm_:  1787, 1789, 1803.
       11036    MDDMT                    gtss_prgdes_alm_:  1790, 1809.
        6140    MDFLO                    gtss_prgdes_alm_:   817, 1817.
       11063    MDLIB                    gtss_prgdes_alm_:  1797, 1816.
        5764    MDPER                    gtss_prgdes_alm_:   790, 1808.
       11066    MDPLS                    gtss_prgdes_alm_:  1801, 1817.
       11033    MDPRF                    gtss_prgdes_alm_:  1792, 1808.
        6030    MDPRI                    gtss_prgdes_alm_:   799, 1811.
       11047    MDRED                    gtss_prgdes_alm_:  1795, 1812.
        6124    MDREDI                   gtss_prgdes_alm_:   814, 1812.
        5624    MDRUN                    gtss_prgdes_alm_:   766, 1803.
       11027    MDSU                     gtss_prgdes_alm_:  1802, 1804.
        6000    MDTUT                    gtss_prgdes_alm_:   793, 1809.
        6060    MDUPS                    gtss_prgdes_alm_:   805, 1814.
       11055    MDUSR                    gtss_prgdes_alm_:  1799, 1814.
        1240    NEW                      gtss_prgdes_alm_:   187.
         614    NEWU                     gtss_prgdes_alm_:   118, 1405.
       11111    NFORCL                   gtss_prgdes_alm_:   230, 1835.
        1510    NFORM                    gtss_prgdes_alm_:   229, 1480.
         140    NONE                     gtss_prgdes_alm_:    43.
        7652    NONECL                   gtss_prgdes_alm_:    44, 1344.
       11077    NOPACL                   gtss_prgdes_alm_:   293, 1825.
        2104    NOPAR                    gtss_prgdes_alm_:   292, 1452.
        1114    OLDNEW                   gtss_prgdes_alm_:   166, 1404, 1536, 1749, 1806.
        2544    OUTF                     gtss_prgdes_alm_:   364.
        2514    OUTP                     gtss_prgdes_alm_:   358.
        2530    OUTR                     gtss_prgdes_alm_:   361.
        1320    PAGE                     gtss_prgdes_alm_:   199, 1523.
        2120    PARI                     gtss_prgdes_alm_:   295, 1453.
       11101    PARICL                   gtss_prgdes_alm_:   296, 1827.
        2214    PASS                     gtss_prgdes_alm_:   310, 1521.
        2404    PASSWD                   gtss_prgdes_alm_:   340.
        2354    PCF                      gtss_prgdes_alm_:   334, 1526.
        1414    PERM                     gtss_prgdes_alm_:   214, 1400, 1460.
           0    prgdes                   gtss_prgdes_alm_:    14,   15.
        7056    primitives               gtss_prgdes_alm_:   950,  951.
          30    PRINT                    gtss_prgdes_alm_:    25, 1469.
       11122    PSKEL                    gtss_prgdes_alm_:  1840, 1842.
        1210    PTOF                     gtss_prgdes_alm_:   181.
        1174    PTON                     gtss_prgdes_alm_:   178.
        1714    PURG                     gtss_prgdes_alm_:   262, 1424.
        2450    QUERY                    gtss_prgdes_alm_:   349.
        3534    QUIT                     gtss_prgdes_alm_:   490, 1439.
        3410    QUOTE                    gtss_prgdes_alm_:   469.
        2134    RECO                     gtss_prgdes_alm_:   298, 1454, 1455, 1681.
        1730    RELE                     gtss_prgdes_alm_:   265, 1428.
        3564    REM                      gtss_prgdes_alm_:   496, 1441.
        1430    REMO                     gtss_prgdes_alm_:   217, 1410.
        2054    RESA                     gtss_prgdes_alm_:   286, 1444.
        1064    RESE                     gtss_prgdes_alm_:   160, 1382, 1476.
        3550    RESU                     gtss_prgdes_alm_:   493, 1440.
        1554    RUNOFF                   gtss_prgdes_alm_:   238, 1502.
        2200    RUNY                     gtss_prgdes_alm_:   307, 1358, 1594.
       10464    S1                       gtss_prgdes_alm_:  1579, 1582.
       10407    S3                       gtss_prgdes_alm_:  1580, 1583.
        1050    SAVE                     gtss_prgdes_alm_:   157, 1399.
        1540    SCAN                     gtss_prgdes_alm_:   235, 1474.
        1634    SEND                     gtss_prgdes_alm_:   250, 1448.
       11075    SENDCL                   gtss_prgdes_alm_:   251, 1823.
        7715    SEQCL                    gtss_prgdes_alm_:   679, 1384.
        5070    SEQU                     gtss_prgdes_alm_:   678.
        4774    sevenFOR                 gtss_prgdes_alm_:   663, 1367, 1375, 1604, 1610.
        3234    sevenK1                  gtss_prgdes_alm_:   442.
        3250    sevenK2                  gtss_prgdes_alm_:   445.
        3264    sevenK3                  gtss_prgdes_alm_:   448.
        3300    sevenK4                  gtss_prgdes_alm_:   451.
        3314    sevenK5                  gtss_prgdes_alm_:   454.
        3220    sevenLD                  gtss_prgdes_alm_:   439.
        3044    sevenP0                  gtss_prgdes_alm_:   412, 1368, 1376, 1605, 1611.
        3060    sevenP1                  gtss_prgdes_alm_:   415.
        3074    sevenP2                  gtss_prgdes_alm_:   418.
        3110    sevenP3                  gtss_prgdes_alm_:   421.
        3124    sevenP4                  gtss_prgdes_alm_:   424.
        3140    sevenP5                  gtss_prgdes_alm_:   427.
        3154    sevenP6                  gtss_prgdes_alm_:   430.
        3170    sevenP7                  gtss_prgdes_alm_:   433.
        1744    SMCL                     gtss_prgdes_alm_:   268, 1482.
        1364    SNAP                     gtss_prgdes_alm_:   208, 1488.
         534    SORT                     gtss_prgdes_alm_:   106, 1519.
         630    STAT                     gtss_prgdes_alm_:   121, 1425.
        7020    STII                     gtss_prgdes_alm_:   927, 1528.
        1524    STRIP                    gtss_prgdes_alm_:   232.
       11071    SYSCL                    gtss_prgdes_alm_:   461, 1819.
        3344    SYST                     gtss_prgdes_alm_:   460, 1451.
        1160    TAPE                     gtss_prgdes_alm_:   175, 1411, 1416, 1675.
         674    TEMP                     gtss_prgdes_alm_:   130, 1524.
        1254    TERM                     gtss_prgdes_alm_:   190.
         330    TEX                      gtss_prgdes_alm_:    73, 1517.
       10470    TFORCL                   gtss_prgdes_alm_:    59, 1586.
        4174    TGPRO                    gtss_prgdes_alm_:   563, 1753.
        2324    TRACE                    gtss_prgdes_alm_:   328.
        2500    TRANS                    gtss_prgdes_alm_:   355.
         740    TSAR                     gtss_prgdes_alm_:   139, 1512.
        2244    TSDA                     gtss_prgdes_alm_:   316, 1520.
        1020    TSRI                     gtss_prgdes_alm_:   151.
        7004    TTOP                     gtss_prgdes_alm_:   924, 1527.
        4050    TZCK                     gtss_prgdes_alm_:   542, 1748.
       11103    UCASCL                   gtss_prgdes_alm_:   221, 1829.
        1444    UCASE                    gtss_prgdes_alm_:   220, 1477.
        3710    WDMS                     gtss_prgdes_alm_:   518.
       10704    WWADF                    gtss_prgdes_alm_:  1723, 1741.
       10620    WWB3CL                   gtss_prgdes_alm_:   519, 1694.
       10712    WWDMDI                   gtss_prgdes_alm_:  1726, 1743.
       10720    WWDMDJ                   gtss_prgdes_alm_:  1729, 1745, 1793.
       10723    WWDMP                    gtss_prgdes_alm_:  1730, 1746.
       10701    WWDMR                    gtss_prgdes_alm_:  1722, 1724, 1740.
       10715    WWDMS                    gtss_prgdes_alm_:  1728, 1744, 1798.
       10707    WWDMT                    gtss_prgdes_alm_:  1725, 1742.
       10735    WWDX2                    gtss_prgdes_alm_:  1733, 1752.
       10740    WWDX3                    gtss_prgdes_alm_:  1734, 1753.
       10743    WWDX4                    gtss_prgdes_alm_:  1735, 1754, 1800.
       10726    WWSU                     gtss_prgdes_alm_:  1736, 1747.
       10732    WWXD1                    gtss_prgdes_alm_:  1732, 1751.
       10534    Y1                       gtss_prgdes_alm_:  1627, 1630.
       10535    Y1.1                     gtss_prgdes_alm_:  1630, 1631, 1640.
       10407    Y2                       gtss_prgdes_alm_:  1628, 1632.
       10530    YFORCL                   gtss_prgdes_alm_:    56, 1625.


NO FATAL ERRORS


                                          -----------------------------------------------------------


Historical Background

This edition of the Multics software materials and documentation is provided and donated
to Massachusetts Institute of Technology by Group BULL including BULL HN Information Systems Inc.
as a contribution to computer science knowledge.
This donation is made also to give evidence of the common contributions of Massachusetts Institute of Technology,
Bell Laboratories, General Electric, Honeywell Information Systems Inc., Honeywell BULL Inc., Groupe BULL
and BULL HN Information Systems Inc. to the development of this operating system.
Multics development was initiated by Massachusetts Institute of Technology Project MAC (1963-1970),
renamed the MIT Laboratory for Computer Science and Artificial Intelligence in the mid 1970s, under the leadership
of Professor Fernando Jose Corbato. Users consider that Multics provided the best software architecture
for managing computer hardware properly and for executing programs. Many subsequent operating systems
incorporated Multics principles.
Multics was distributed in 1975 to 2000 by Group Bull in Europe , and in the U.S. by Bull HN Information Systems Inc.,
as successor in interest by change in name only to Honeywell Bull Inc. and Honeywell Information Systems Inc. .

                                          -----------------------------------------------------------

Permission to use, copy, modify, and distribute these programs and their documentation for any purpose and without
fee is hereby granted,provided that the below copyright notice and historical background appear in all copies
and that both the copyright notice and historical background and this permission notice appear in supporting
documentation, and that the names of MIT, HIS, BULL or BULL HN not be used in advertising or publicity pertaining
to distribution of the programs without specific prior written permission.
    Copyright 1972 by Massachusetts Institute of Technology and Honeywell Information Systems Inc.
    Copyright 2006 by BULL HN Information Systems Inc.
    Copyright 2006 by Bull SAS
    All Rights Reserved
