	COMPILATION LISTING OF SEGMENT gtss_com_err_
	Compiled by: Multics PL/I Compiler, Release 28d, of October 4, 1983
	Compiled at: Honeywell Multics Op. - System M
	Compiled on: 12/10/84  1224.1 mst Mon
	    Options: optimize map

        1 /* ***********************************************************
        2*   *                                                         *
        3*   *                                                         *
        4*   * Copyright, (C) Honeywell Information Systems Inc., 1981 *
        5*   *                                                         *
        6*   *                                                         *
        7*   *********************************************************** */
        8
        9 /* *************************************************************
       10*   *						   *
       11*   * Copyright (c) 1979 by Honeywell Information Systems, Inc. *
       12*   *						   *
       13*   ************************************************************* */
       14
       15 gtss_com_err_: proc;
       16
       17 /**       This procedure is called from gtss after the condition
       18*	command_error has been signalled by com_err_. It takes
       19*	the com_err_ string and sends it to *CFP. com_err_ is
       20*	then requested not to print it if gtss_ext_$flags.gtss_com_err_sw
       21*	is true. If the call was a result of problems with the
       22*	*CFP file the write to it is not attempted.
       23*
       24*	Author: Al Dupuis      11/02/79.                         **/
       25
       26 	/** Check for *CFP problems **/
       27 	if gtss_ust.lcfst.start_term > 0
       28 	& gtss_ust.lcfst.start_term < 5
       29 	then return;
       30
       31           /** Locate the error condition information **/
       32 	if find_frame ("command_error") = null ()
       33 	then do;
       34 	     call ioa_ ("Couldn't get frame for command_error.");
       35 	     return;
       36 	end;
       37
       38 	/** And write error message to *CFP after preceding it with cr lf **/
       39 	if errmess_lth > gtss_max_lth - 2
       40 	then errmess_lth = gtss_max_lth - 2;
       41 	error_message = cr_lf || error_message;
       42 	errmess_lth = errmess_lth + 2;
       43 	call gtss_write_starCFP_ (null (), errmess_ptr, fixed (errmess_lth, 21), code);
       44 	if gtss_ext_$flags.gtss_com_err_sw
       45 	then gtss_ext_$flags.gtss_com_err_sw,
       46 	     print_sw = "0"b;
       47
       48 
       49 find_frame: proc (condition_parm) returns (ptr);
       50
       51 	     sp = find_condition_frame_ (null ());
       52 	     do while (sp ^= null ());
       53 		call find_condition_info_ (sp, addr (cond_info), code);
       54 		if cond_info.condition_name = condition_parm then
       55 		     return (cond_info.infoptr);
       56 		sp = find_condition_frame_ (sp);
       57 	     end;
       58 	     return (null ());
       59
       60 dcl condition_parm char (32) varying parm;
       61 	end;					/* find_frame */
       62 
       63 dcl code fixed bin (35);
       64 dcl command_error cond ext;
       65 dcl cr_lf char (2) based (addr (crlf));
       66 dcl crlf bit (18) static int options (constant) init ("015012"b3);
       67 dcl err_mess char (errmess_lth) based (errmess_ptr);
       68 dcl error_message char (max_errmess_lth) based (errmess_ptr);
       69 dcl find_condition_frame_ entry (ptr) returns (ptr);
       70 dcl find_condition_info_ entry (ptr, ptr, fixed bin(35));
       71 dcl gtss_max_lth fixed bin static int options (constant) init (252);
       72 dcl ioa_ entry options (variable);
       73 dcl sp ptr init (null ());
       74 dcl 1 command_error_info aligned based (cond_info.infoptr),
       75       2 length fixed bin,
       76       2 version fixed bin,
       77       2 action_flags aligned,
       78         3 cant_restart bit (1) unaligned,
       79         3 default_restart bit (1) unaligned,
       80         3 reserved bit (34) unaligned,
       81       2 info_string char (256) varying,
       82       2 status_code fixed bin (35),
       83       2 name_ptr ptr,
       84       2 name_lth fixed bin,
       85       2 errmess_ptr ptr,
       86       2 errmess_lth fixed bin,
       87       2 max_errmess_lth fixed bin,
       88       2 print_sw bit (1);
       89 dcl 1 cond_info aligned,
  1     1 	/* BEGIN INCLUDE FILE ... cond_info.incl.pl1
  1     2*	   coded by M. Weaver 12 July 1973 */
  1     3
  1     4 	  2 mcptr ptr,				/* ptr to machine conditions at time of fault */
  1     5 	  2 version fixed bin,			/* version of this structure (now=1) */
  1     6 	  2 condition_name char(32) var,		/* name of condition */
  1     7 	  2 infoptr ptr,				/* ptr to software info structure */
  1     8 	  2 wcptr ptr,				/* ptr to wall crossing machine conditions */
  1     9 	  2 loc_ptr ptr,				/* ptr to location where condition occurred */
  1    10 	  2 flags aligned,
  1    11 	    3 crawlout bit(1) unal,			/* = "1"b if condition occurred in inner ring */
  1    12 	    3 pad1 bit(35) unal,
  1    13 	  2 pad_word bit(36) aligned,
  1    14 	  2 user_loc_ptr ptr,			/* ptr to last non-support loc before condition */
  1    15 	  2 pad (4) bit(36) aligned;
  1    16
  1    17 	/* END INCLUDE FILE ... cond_info.incl.pl1 */
       90
       91 
  2     1 /*  */
  2     2 /* BEGIN INCLUDE FILE  mc.incl.pl1   Created Dec 72 for 6180 - WSS. */
  2     3 /* Modified 06/07/76 by Greenberg for mc.resignal */
  2     4 /* Modified 07/07/76 by Morris for fault register data */
  2     5 /* Modified 08/28/80 by J. A. Bush for the DPS8/70M CVPU */
  2     6 /* Modified '82 to make values constant */
  2     7
  2     8 /* words 0-15 pointer registers */
  2     9
  2    10 dcl  mcp ptr;
  2    11
  2    12 dcl 1 mc based (mcp) aligned,
  2    13     2 prs (0:7) ptr,				/* POINTER  REGISTERS */
  2    14    (2 regs,					/* registers */
  2    15       3 x (0:7) bit (18),				/* index registers */
  2    16       3 a bit (36),					/* accumulator */
  2    17       3 q bit (36),					/* q-register */
  2    18       3 e bit (8),					/* exponent */
  2    19       3 pad1 bit (28),
  2    20       3 t bit (27),					/* timer register */
  2    21       3 pad2 bit (6),
  2    22       3 ralr bit (3),				/* ring alarm register */
  2    23
  2    24     2 scu (0:7) bit (36),
  2    25
  2    26     2 mask bit (72),				/* mem controller mask at time of fault */
  2    27     2 ips_temp bit (36),				/* Temporary storage for IPS info */
  2    28     2 errcode fixed bin (35),				/* fault handler's error code */
  2    29     2 fim_temp,
  2    30       3 unique_index bit (18) unal,			/* unique index for restarting faults */
  2    31       3 resignal bit (1) unal,			/* recompute signal name with fcode below */
  2    32       3 fcode bit (17) unal,				/* fault code used as index to FIM table and SCT */
  2    33     2 fault_reg bit (36),				/* fault register */
  2    34     2 pad2 bit (1),
  2    35     2 cpu_type fixed bin (2) unsigned,			/* L68 = 0, DPS8/70M = 1 */
  2    36     2 ext_fault_reg bit (15),				/* extended fault reg for DPS8/70M CPU */
  2    37     2 fault_time bit (54),				/* time of fault */
  2    38
  2    39     2 eis_info (0:7) bit (36)) unaligned;
  2    40
  2    41
  2    42 dcl (apx fixed bin init (0),
  2    43      abx fixed bin init (1),
  2    44      bpx fixed bin init (2),
  2    45      bbx fixed bin init (3),
  2    46      lpx fixed bin init (4),
  2    47      lbx fixed bin init (5),
  2    48      spx fixed bin init (6),
  2    49      sbx fixed bin init (7)) internal static options (constant);
  2    50
  2    51
  2    52 
  2    53
  2    54 dcl  scup ptr;
  2    55
  2    56 dcl 1 scu based (scup) aligned,			/* SCU DATA */
  2    57
  2    58
  2    59 /*	WORD (0)		*/
  2    60
  2    61    (2 ppr,					/* PROCEDURE POINTER REGISTER */
  2    62       3 prr bit (3),				/* procedure ring register */
  2    63       3 psr bit (15),				/* procedure segment register */
  2    64       3 p bit (1),					/* procedure privileged bit */
  2    65
  2    66     2 apu,					/* APPENDING UNIT STATUS */
  2    67       3 xsf bit (1),				/* ext seg flag - IT modification */
  2    68       3 sdwm bit (1),				/* match in SDW Ass. Mem. */
  2    69       3 sd_on bit (1),				/* SDW Ass. Mem.  ON */
  2    70       3 ptwm bit (1),				/* match in PTW Ass. Mem. */
  2    71       3 pt_on bit (1),				/* PTW Ass. Mem.  ON */
  2    72       3 pi_ap bit (1),				/* Instr Fetch or Append cycle */
  2    73       3 dsptw bit (1),				/* Fetch of DSPTW */
  2    74       3 sdwnp bit (1),				/* Fetch of SDW non paged */
  2    75       3 sdwp bit (1),				/* Fetch of SDW paged */
  2    76       3 ptw bit (1),				/* Fetch of PTW */
  2    77       3 ptw2 bit (1),				/* Fetch of pre-paged PTW */
  2    78       3 fap bit (1),				/* Fetch of final address paged */
  2    79       3 fanp bit (1),				/* Fetch of final address non-paged */
  2    80       3 fabs bit (1),				/* Fetch of final address absolute */
  2    81
  2    82     2 fault_cntr bit (3),				/* number of retrys of EIS instructions */
  2    83
  2    84
  2    85 /*	WORD (1)		*/
  2    86
  2    87     2 fd,						/* FAULT  DATA */
  2    88       3 iro bit (1),				/* illegal ring order */
  2    89       3 oeb bit (1),				/* out of execute bracket */
  2    90       3 e_off bit (1),				/* no execute */
  2    91       3 orb bit (1),				/* out of read bracket */
  2    92       3 r_off bit (1),				/* no read */
  2    93       3 owb bit (1),				/* out of write bracket */
  2    94       3 w_off bit (1),				/* no write */
  2    95       3 no_ga bit (1),				/* not a gate */
  2    96       3 ocb bit (1),				/* out of call bracket */
  2    97       3 ocall bit (1),				/* outward call */
  2    98       3 boc bit (1),				/* bad outward call */
  2    99       3 inret bit (1),				/* inward return */
  2   100       3 crt bit (1),				/* cross ring transfer */
  2   101       3 ralr bit (1),				/* ring alarm register */
  2   102       3 am_er bit (1),				/* associative memory fault */
  2   103       3 oosb bit (1),				/* out of segment bounds */
  2   104       3 paru bit (1),				/* processor parity upper */
  2   105       3 parl bit (1),				/* processor parity lower */
  2   106       3 onc_1 bit (1),				/* op not complete type 1 */
  2   107       3 onc_2 bit (1),				/* op not complete type 2 */
  2   108
  2   109     2 port_stat,					/* PORT  STATUS */
  2   110       3 ial bit (4),				/* illegal action lines */
  2   111       3 iac bit (3),				/* illegal action channel */
  2   112       3 con_chan bit (3),				/* connect channel */
  2   113
  2   114     2 fi_num bit (5),				/* (fault/interrupt)  number */
  2   115     2 fi_flag bit (1),				/*  1 => fault,  0 => interrupt  */
  2   116
  2   117
  2   118 /*	WORD (2)		*/
  2   119
  2   120     2 tpr,					/* TEMPORARY POINTER REGISTER */
  2   121       3 trr bit (3),				/* temporary ring register */
  2   122       3 tsr bit (15),				/* temporary segment register */
  2   123
  2   124     2 pad2 bit (9),
  2   125
  2   126     2 cpu_no bit (3),				/* CPU number */
  2   127
  2   128     2 delta bit (6),				/* tally modification DELTA */
  2   129
  2   130
  2   131 /*	WORD (3)		*/
  2   132
  2   133     2 word3 bit (18),
  2   134
  2   135     2 tsr_stat,					/* TSR STATUS for 1,2,&3 word instructions */
  2   136       3 tsna,					/* Word 1 status */
  2   137         4 prn bit (3),				/* Word 1  PR  number */
  2   138         4 prv bit (1),				/* Word 1  PR  valid bit */
  2   139       3 tsnb,					/* Word 2  status */
  2   140         4 prn bit (3),				/* Word 2  PR  number */
  2   141         4 prv bit (1),				/* Word 2  PR  valid bit */
  2   142       3 tsnc,					/* Word 3  status */
  2   143         4 prn bit (3),				/* Word 3  PR  number */
  2   144         4 prv bit (1),				/* Word 3  PR  valid bit */
  2   145
  2   146     2 tpr_tbr bit (6),				/* TPR.TBR  field */
  2   147
  2   148
  2   149 /* 	WORD (4)		*/
  2   150
  2   151     2 ilc bit (18),					/* INSTRUCTION  COUNTER */
  2   152
  2   153     2 ir,						/* INDICATOR  REGISTERS */
  2   154       3 zero bit (1),				/* zero indicator */
  2   155       3 neg bit (1),				/* negative indicator */
  2   156       3 carry bit (1),				/* carryry indicator */
  2   157       3 ovfl bit (1),				/* overflow indicator */
  2   158       3 eovf bit (1),				/* eponent overflow */
  2   159       3 eufl bit (1),				/* exponent underflow */
  2   160       3 oflm bit (1),				/* overflow mask */
  2   161       3 tro bit (1),				/* tally runout */
  2   162       3 par bit (1),				/* parity error */
  2   163       3 parm bit (1),				/* parity mask */
  2   164       3 bm bit (1),					/* ^bar mode */
  2   165       3 tru bit (1),				/* truncation mode */
  2   166       3 mif bit (1),				/* multi-word instruction mode */
  2   167       3 abs bit (1),				/* absolute mode */
  2   168       3 hex bit (1),				/* hexadecimal exponent mode */
  2   169       3 pad bit (3),
  2   170
  2   171
  2   172 /*	WORD (5)		*/
  2   173
  2   174     2 ca bit (18),					/* COMPUTED  ADDRESS */
  2   175
  2   176     2 cu,						/* CONTROL UNIT STATUS */
  2   177       3 rf bit (1),					/* on first cycle of repeat instr */
  2   178       3 rpt bit (1),				/* repeat instruction */
  2   179       3 rd bit (1),					/* repeat double instruction */
  2   180       3 rl bit (1),					/* repeat link instruciton */
  2   181       3 pot bit (1),				/* IT  modification */
  2   182       3 pon bit (1),				/* return type instruction */
  2   183       3 xde bit (1),				/* XDE from Even location */
  2   184       3 xdo bit (1),				/* XDE from Odd  location */
  2   185       3 poa bit (1),				/* operation preparation */
  2   186       3 rfi bit (1),				/* tells CPU to refetch instruction */
  2   187       3 its bit (1),				/* ITS modification */
  2   188       3 if bit (1),					/* fault occured during instruction fetch */
  2   189
  2   190     2 cpu_tag bit (6)) unaligned,			/* computed tag field */
  2   191
  2   192
  2   193 /*	WORDS (6,7)	*/
  2   194
  2   195     2 even_inst bit (36),				/* even instruction of faulting pair */
  2   196
  2   197     2 odd_inst bit (36);				/* odd  instruction of faulting pair */
  2   198
  2   199
  2   200
  2   201
  2   202
  2   203
  2   204 /*	ALTERNATE   SCU  DECLARATION		*/
  2   205
  2   206
  2   207 dcl 1 scux based (scup) aligned,
  2   208
  2   209    (2 pad0 bit (36),
  2   210
  2   211     2 fd,						/* GROUP II  FAULT DATA */
  2   212       3 isn bit (1),				/* illegal segment number */
  2   213       3 ioc bit (1),				/* illegal op  code  */
  2   214       3 ia_am bit (1),				/* illegal address - modifier */
  2   215       3 isp bit (1),				/* illegal slave  procedure */
  2   216       3 ipr bit (1),				/* illegal procedure */
  2   217       3 nea bit (1),				/* non existent address */
  2   218       3 oobb bit (1),				/* out of bounds */
  2   219       3 pad bit (29),
  2   220
  2   221     2 pad2 bit (36),
  2   222
  2   223     2 pad3a bit (18),
  2   224
  2   225     2 tsr_stat (0:2),				/* TSR  STATUS  as an  ARRAY */
  2   226       3 prn bit (3),				/* PR  number */
  2   227       3 prv bit (1),				/* PR  valid bit */
  2   228
  2   229     2 pad3b bit (6)) unaligned,
  2   230
  2   231     2 pad45 (0:1) bit (36),
  2   232
  2   233     2 instr (0:1) bit (36);				/* Instruction ARRAY */
  2   234
  2   235
  2   236
  2   237 /*  END INCLUDE FILE   mc.incl.pl1 */
       92
       93 
  3     1 /* BEGIN INCLUDE FILE gtss_entry_dcls.incl.pl1 */
  3     2 /*
  3     3*  Created: (Wardd Multics)  06/30/78 1624.8 mst Fri
  3     4*  Modified: Ron Barstad  84-02-24  Fixed wrong and obsolete entries
  3     5**/
  3     6
  3     7 /**  gtss external entry variables.		**/
  3     8 dcl  com_err_                                   entry() options(variable);
  3     9 dcl  gtss_CFP_abort_                            entry options(variable);
  3    10 dcl  gtss_CFP_break_                            entry options(variable);
  3    11 dcl  gtss_CFP_input_                            entry (ptr, ptr, fixed bin(21), fixed bin(21), fixed bin(35));
  3    12 dcl  gtss_CFP_output_                           entry (ptr, ptr, fixed bin(21), fixed bin(35));
  3    13 dcl  gtss_abandon_CFP_                          entry options(variable);
  3    14 dcl  gtss_abort_dump_                           entry (fixed bin(18));
  3    15 dcl  gtss_abort_subsystem_                      entry options (variable);
  3    16 dcl  gtss_abort_subsystem_$not_imp              entry (ptr, fixed bin(24));
  3    17 dcl  gtss_abs_login_banner_		        entry() returns(char(*));
  3    18 dcl  gtss_abs_logout_banner_		        entry() returns(char(*));
  3    19 dcl  gtss_abs_$abs_equiv                        entry options(variable);
  3    20 dcl  gtss_abs_$cpu_runout		        entry (ptr, char(4));
  3    21 dcl  gtss_abs_$create_absin                     entry() returns(char(*));
  3    22 dcl  gtss_abs_$dabt_check		        entry (ptr, char(4));
  3    23 dcl  gtss_abs_$get_id                           entry (char(5)) returns(char(19));
  3    24 dcl  gtss_abs_$get_drm                          entry() returns(char(*));
  3    25 dcl  gtss_adjust_size_                          entry (ptr);
  3    26 dcl  gtss_aft_$add                              entry (char(8), fixed bin(24), fixed bin(35));
  3    27 dcl  gtss_aft_$delete                           entry (char(8), fixed bin(24), fixed bin(35));
  3    28 dcl  gtss_aft_$find                             entry (char(8), fixed bin(24), fixed bin(35));
  3    29 dcl  gtss_aft_$initialize                       entry (fixed bin(35));
  3    30 dcl  gtss_ascii_bcd_                            entry (ptr, fixed bin, ptr);
  3    31 dcl  gtss_attributes_mgr_$get                   entry (ptr, fixed bin(35));
  3    32 dcl  gtss_attributes_mgr_$set                   entry (ptr, fixed bin(35));
  3    33 dcl  gtss_bcd_ascii_                            entry (ptr, fixed bin(24), ptr);
  3    34 dcl  gtss_bcd_ascii_$lc                         entry (ptr, fixed bin(24), ptr);
  3    35 dcl  gtss_break_vector_                         entry ();
  3    36 dcl  gtss_break_vector_$drl_in_progress         entry() returns(bit(1));
  3    37 dcl  gtss_break_vector_$status                  entry() returns(bit(1));
  3    38 dcl  gtss_build_                                entry options(variable);
  3    39 dcl  gtss_com_err_                              entry options(variable);
  3    40 dcl  gtss_derail_processor_                     entry (ptr, char(*), ptr, ptr, bit(1) aligned) /* called at fault time instead of signal_ */;
  3    41 dcl  gtss_derail_processor_$set                 entry options(variable);
  3    42 dcl  gtss_dq_$catp                              entry (char (5), ptr, fixed bin (18) unsigned);
  3    43 dcl  gtss_dq_$create                            entry (bit(1));
  3    44 dcl  gtss_dq_$dibp                              entry (char(5), ptr);
  3    45 dcl  gtss_dq_$entries_info		        entry (ptr, fixed bin (18) unsigned, fixed bin (18) unsigned);
  3    46 dcl  gtss_dq_$hdrp                              entry (ptr);
  3    47 dcl  gtss_dq_$mod_js		        entry (char(5), fixed bin (6) unsigned, bit (1));
  3    48 dcl  gtss_dq_$open_exc		        entry (bit(1));
  3    49 dcl  gtss_dq_$open_gen		        entry (bit(1));
  3    50 dcl  gtss_drl_abort_                            entry (ptr, fixed bin);
  3    51 dcl  gtss_drl_addmem_                           entry (ptr, fixed bin);
  3    52 dcl  gtss_drl_callss_                           entry (ptr, fixed bin);
  3    53 dcl  gtss_drl_corfil_                           entry (ptr, fixed bin);
  3    54 dcl  gtss_drl_defil_                            entry (ptr, fixed bin);
  3    55 dcl  gtss_drl_defil_$subr                       entry (ptr, ptr, ptr);
  3    56 dcl  gtss_drl_dio_                              entry (ptr, fixed bin);
  3    57 dcl  gtss_drl_drlimt_                           entry (ptr, fixed bin);
  3    58 dcl  gtss_drl_drlsav_                           entry (ptr, fixed bin);
  3    59 dcl  gtss_drl_filact_                           entry (ptr, fixed bin);
  3    60 dcl  gtss_drl_filsp_                            entry (ptr, fixed bin);
  3    61 dcl  gtss_drl_grow_                             entry (ptr, fixed bin);
  3    62 dcl  gtss_drl_gwake_                            entry (ptr, fixed bin);
  3    63 dcl  gtss_drl_jsts_                             entry (ptr, fixed bin);
  3    64 dcl  gtss_drl_kin_                              entry (ptr, fixed bin);
  3    65 dcl  gtss_drl_kotnow_                           entry (ptr, fixed bin);
  3    66 dcl  gtss_drl_kotnow_$gtss_drl_kout_            entry (ptr, fixed bin);
  3    67 dcl  gtss_drl_koutn_                            entry (ptr, fixed bin);
  3    68 dcl  gtss_drl_morlnk_                           entry (ptr, fixed bin);
  3    69 dcl  gtss_drl_msub_                             entry (ptr, fixed bin);
  3    70 dcl  gtss_drl_objtim_                           entry (ptr, fixed bin);
  3    71 dcl  gtss_drl_part_                             entry (ptr, fixed bin);
  3    72 dcl  gtss_drl_pasaft_                           entry (ptr, fixed bin);
  3    73 dcl  gtss_drl_pasdes_                           entry (ptr, fixed bin);
  3    74 dcl  gtss_drl_pasust_                           entry (ptr, fixed bin);
  3    75 dcl  gtss_drl_pdio_                             entry (ptr, fixed bin);
  3    76 dcl  gtss_drl_prgdes_                           entry (ptr, fixed bin);
  3    77 dcl  gtss_drl_pseudo_                           entry (ptr, fixed bin);
  3    78 dcl  gtss_drl_relmem_                           entry (ptr, fixed bin);
  3    79 dcl  gtss_drl_restor_                           entry (ptr, fixed bin);
  3    80 dcl  gtss_drl_retfil_                           entry (ptr, fixed bin);
  3    81 dcl  gtss_drl_return_                           entry (ptr, fixed bin);
  3    82 dcl  gtss_drl_rew_                              entry (ptr, fixed bin);
  3    83 dcl  gtss_drl_rstswh_                           entry (ptr, fixed bin);
  3    84 dcl  gtss_drl_setlno_                           entry (ptr, fixed bin);
  3    85 dcl  gtss_drl_setswh_                           entry (ptr, fixed bin);
  3    86 dcl  gtss_drl_snumb_                            entry (ptr, fixed bin);
  3    87 dcl  gtss_drl_spawn_                            entry (ptr, fixed bin);
  3    88 dcl  gtss_drl_spawn_$gtss_drl_pasflr_           entry (ptr, fixed bin);
  3    89 dcl  gtss_drl_stoppt_                           entry (ptr, fixed bin);
  3    90 dcl  gtss_drl_switch_                           entry (ptr, fixed bin);
  3    91 dcl  gtss_drl_sysret_                           entry (ptr, fixed bin);
  3    92 dcl  gtss_drl_t_cfio_                           entry (ptr, fixed bin);
  3    93 dcl  gtss_drl_t_cmov_                           entry (ptr, fixed bin);
  3    94 dcl  gtss_drl_t_err_                            entry (ptr, fixed bin);
  3    95 dcl  gtss_drl_t_goto_                           entry (ptr, fixed bin);
  3    96 dcl  gtss_drl_t_linl_                           entry (ptr, fixed bin);
  3    97 dcl  gtss_drl_t_rscc_                           entry (ptr, fixed bin);
  3    98 dcl  gtss_drl_tapein_                           entry (ptr, fixed bin);
  3    99 dcl  gtss_drl_task_                             entry (ptr, fixed bin);
  3   100 dcl  gtss_drl_termtp_                           entry (ptr, fixed bin);
  3   101 dcl  gtss_drl_time_                             entry (ptr, fixed bin);
  3   102 dcl  gtss_drun_                                 entry (bit(1));
  3   103 dcl  gtss_dsd_lookup_                           entry (char(8) var) returns(fixed bin(24));
  3   104 dcl  gtss_dsd_process_                          entry (ptr, ptr, fixed bin(21), fixed bin(21), fixed bin(35));
  3   105 dcl  gtss_edit_dsd_                             entry (ptr, fixed bin(21)) returns(fixed bin(24));
  3   106 dcl  gtss_mcfc_empty                            entry (char(*) var);
  3   107 dcl  gtss_expand_pathname_                      entry (ptr, char(*), char(*), fixed bin(35));
  3   108 dcl  gtss_expand_pathname_$verify_umc           entry (ptr, char(*), char(*), bit(18), fixed bin(35));
  3   109 dcl  gtss_fault_processor_                      entry options(variable);
  3   110 dcl  gtss_find_cond_frame_		        entry (char(32) var) returns(ptr);
  3   111 dcl  gtss_fault_processor_$timer_runout         entry (ptr, char(*));
  3   112 dcl  gtss_filact_error_status_                  entry (fixed bin(35))returns(bit(12));
  3   113 dcl  gtss_filact_funct02_                       entry (ptr, bit(18), ptr, ptr, ptr, fixed bin(35));
  3   114 dcl  gtss_filact_funct03_                       entry (ptr, bit(18), ptr, ptr, ptr, fixed bin(35));
  3   115 dcl  gtss_filact_funct04_                       entry (ptr, bit(18), ptr, ptr, ptr, fixed bin(35));
  3   116 dcl  gtss_filact_funct05_                       entry (ptr, bit(18), ptr, ptr, ptr, fixed bin(35));
  3   117 dcl  gtss_filact_funct08_                       entry (ptr, bit(18), ptr, ptr, ptr, fixed bin(35));
  3   118 dcl  gtss_filact_funct10_                       entry (ptr, bit(18), ptr, ptr, ptr, fixed bin(35));
  3   119 dcl  gtss_filact_funct11_                       entry (ptr, bit(18), ptr, ptr, ptr, fixed bin(35));
  3   120 dcl  gtss_filact_funct14_                       entry (ptr, bit(18), ptr, ptr, ptr, fixed bin(35));
  3   121 dcl  gtss_filact_funct18_                       entry (ptr, bit(18), ptr, ptr, ptr, fixed bin(35));
  3   122 dcl  gtss_filact_funct19_                       entry (ptr, bit(18), ptr, ptr, ptr, fixed bin(35));
  3   123 dcl  gtss_filact_funct21_                       entry (ptr, bit(18), ptr, ptr, ptr, fixed bin(35));
  3   124 dcl  gtss_filact_funct22_                       entry (ptr, bit(18), ptr, ptr, ptr, fixed bin(35));
  3   125 dcl  gtss_mcfc_init_                            entry (char(*) var);
  3   126 dcl  gtss_interp_prim_                          entry options(variable);
  3   127 dcl  gtss_interp_prim_$callss                   entry (char(4), ptr);
  3   128 dcl  gtss_interp_prim_$sysret                   entry options(variable);
  3   129 dcl  gtss_interp_prim_$t_goto                   entry (char(4));
  3   130 dcl  gtss_ios_change_size_                      entry (fixed bin(24), fixed bin(24), bit(1), fixed bin(24), fixed bin(35));
  3   131 dcl  gtss_ios_close_                            entry (fixed bin(24), ptr, fixed bin(35));
  3   132 dcl  gtss_ios_exchange_names_                   entry (fixed bin(24), fixed bin(24), fixed bin(24), fixed bin(35));
  3   133 dcl  gtss_ios_initialize_                       entry options(variable);
  3   134 dcl  gtss_ios_io_                               entry (fixed bin(24), ptr, ptr, fixed bin(24), fixed bin(24), fixed bin(35));
  3   135 dcl  gtss_ios_open_                             entry (fixed bin(24), char(168), char(32), bit(6), bit(1), ptr, ptr, fixed bin(35));
  3   136 dcl  gtss_ios_position_                         entry (fixed bin(24), fixed bin(24), fixed bin(24), bit(6), ptr);
  3   137 dcl  gtss_mcfc_$delete		        entry (fixed bin(24), char(*), char(*), bit(36) aligned, ptr, fixed bin(35));
  3   138 dcl  gtss_mcfc_$open                            entry (char(*), char(*), bit(6), bit(36) aligned, ptr, fixed bin(35));
  3   139 dcl  gtss_mcfc_$close                           entry (char(*), char(*), bit(36) aligned, ptr, fixed bin(35));
  3   140 dcl  gtss_read_starCFP_                         entry (ptr, ptr, fixed bin(21), fixed bin(21), fixed bin(35));
  3   141 dcl  gtss_read_starCFP_$last_os                 entry (ptr, ptr, fixed bin(21), fixed bin(21), fixed bin(35));
  3   142 dcl  gtss_run_subsystem_                        entry (fixed bin(24));
  3   143 dcl  gtss_run_subsystem_$finish                 entry options(variable);
  3   144 dcl  gtss_run_subsystem_$restor                 entry (fixed bin(24), ptr);
  3   145 dcl  gtss_run_subsystem_$restor_perm            entry (fixed bin(24), ptr, fixed bin(18));
  3   146 dcl  gtss_set_slave_                            entry (fixed bin (24), ptr);
  3   147 dcl  gtss_set_slave_$load_bar                   entry (fixed bin (17));
  3   148 dcl  gtss_update_safe_store_                    entry (ptr);
  3   149 dcl  gtss_verify_access_		        entry (char(*), char(*), fixed bin(24), bit(6), bit(12) aligned);
  3   150 dcl  gtss_verify_access_$check_forced_access    entry (char(*), char(*), fixed bin(24));
  3   151 dcl  gtss_write_starCFP_                        entry (ptr, ptr, fixed bin(21), fixed bin(35));
  3   152 /*   END INCLUDE FILE gtss_entry_dcls.incl.pl1 */
       94
       95 
  4     1 /* BEGIN INCLUDE FILE gtss_ext_.incl.pl1 */
  4     2 /*
  4     3*  Created: (Wardd Multics)  05/20/78 1307.6 mst Sat
  4     4*  Modified: Ward            1981     add suspended_process dcl
  4     5*  Modified: Ron Barstad  83-07-21  Fixed level number on mcfc to 3
  4     6*  Modified: Ron Barstad  83-07-25  Fixed derail range in statistics to 4js3 number
  4     7**/
  4     8 dcl  gtss_ext_$aem                   fixed bin static ext	/* >0 Print "additional" error information. */;
  4     9 dcl  gtss_ext_$bad_drl_rtrn          static ext label	/* Default for drl_rtrn. */;
  4    10 dcl  gtss_ext_$db                    (72)bit(1)unal static ext;
  4    11 dcl  gtss_ext_$deferred_catalogs_ptr ptr ext;
  4    12 dcl  gtss_ext_$dispose_of_drl        static ext label	/* quit handlers for some derails use this label to abort */;
  4    13 dcl  gtss_ext_$drl_rtrn              (4)static ext label	/* where to return at subsystem end */;
  4    14 dcl  gtss_ext_$drm_path              char(168)static ext	/* gtss_expand_pathname_stores drm_path */;
  4    15 dcl  gtss_ext_$drun_jid              char (5) static ext	/* valid only for DRUN executing under absentee */;
  4    16 dcl  gtss_ext_$event_channel         fixed bin (71) static ext	/* used for DABT signals */;
  4    17 dcl  gtss_ext_$finished              static ext label	/* Return to gtss for normal conclusion. */;
  4    18 dcl  gtss_ext_$gdb_name              char(8)ext	/* Name H* module to debug. */;
  4    19 dcl  gtss_ext_$get_line              entry(ptr,ptr,fixed bin(21),fixed bin(21),fixed bin(35))variable ext /* Build mode input procedure. */;
  4    20 dcl  gtss_ext_$gtss_slave_area_seg   (4) ext static ptr	/* pointer to gtss slave area segment */;
  4    21 dcl  gtss_ext_$hcs_work_area_ptr     ptr ext static		/* Temp seg for acl lists. */;
  4    22 dcl  gtss_ext_$homedir               char (64) static ext /* user's home dir */;
  4    23 dcl  gtss_ext_$last_k_was_out        bit (1)aligned ext static	/* "1"b => last tty output was output. */;
  4    24 dcl  gtss_ext_$pdir                  char (168) varying ext static	/* pathname of process directory */;
  4    25 dcl  gtss_ext_$popup_from_pi         static ext label	/* transfer to this label after pi simulates popup primitive */;
  4    26 dcl  gtss_ext_$process_type          fixed bin (17) static ext;
  4    27 dcl  gtss_ext_$put_chars             entry(ptr,ptr,fixed bin(24),fixed bin(35)) variable ext	/* Terminal output procedure. */;
  4    28 dcl  gtss_ext_$restart_from_pi       static ext label	/* transfer to this label after pi restores machine conditions */;
  4    29 dcl  gtss_ext_$restart_seg_ptr       ptr static ext	/* points to DRUN restart file when exec under absentee */;
  4    30 dcl  gtss_ext_$sig_ptr               ext static ptr	/* saved ptr to signal_ */;
  4    31 dcl  gtss_ext_$stack_level_          fixed bin ext static;
  4    32 dcl  gtss_ext_$suspended_process     bit(1) ext static;
  4    33 dcl  gtss_ext_$SYstarstar_file_no    fixed bin (24) static ext;
  4    34 dcl  gtss_ext_$user_id               char (26)var ext;
  4    35 dcl  gtss_ext_$work_area_ptr         ptr ext;
  4    36
  4    37 dcl  1 gtss_ext_$CFP_bits aligned static external
  4    38      , 3 no_input_yet bit (1) unaligned         /* used in gtss_CFP_input_, gtss_read_starCFP_ */
  4    39      , 3 rtn_bits bit (4) unaligned             /* used in gtss_CFP_input_, gtss_CFP_output_ */
  4    40      , 3 cpos_called bit (1) unaligned          /* used in gtss_CFP_input_, gtss_drl_t_cfio_, gtss_abandon_CFP_ */
  4    41      , 3 cout_called bit (1) unaligned          /* used in gtss_read_starCFP_, gtss_abandon_CFP_ */
  4    42      , 3 build_mode bit (1) unaligned	        /* used in gtss_build_, gtss_dsd_process_ */
  4    43      ;
  4    44
  4    45 dcl 1 gtss_ext_$com_reg aligned static ext,
  4    46        3 tsdmx,
  4    47          4 dst fixed bin (18) unsigned unaligned,
  4    48          4 dit fixed bin (18) unsigned unaligned,
  4    49        3 tsdpt fixed bin (36) unsigned unaligned,
  4    50        3 tsddt fixed bin (36) unsigned unaligned,
  4    51        3 tsdid bit (72) unaligned,
  4    52        3 tsdsd bit (36) unaligned,
  4    53        3 tsdst fixed bin (36) unsigned unaligned,
  4    54        3 tsdjb fixed bin (35) unaligned,
  4    55        3 tsdgt,
  4    56          4 ust_loc fixed bin (18) unsigned unaligned,
  4    57          4 gating_ctl fixed bin (18) unsigned unaligned,
  4    58        3 tcdfr bit (36) unaligned;
  4    59
  4    60 dcl 1 gtss_ext_$flags aligned static ext
  4    61      , 3 dispose_of_drl_on_pi	bit (01) unal	/* 1 => drl that should be aborted after quit-pi sequence */
  4    62      , 3 drl_in_progress	bit (01) unal	/* 1 => drl handler executing; 0 => gcos code executing */
  4    63      , 3 popup_from_pi	bit (01) unal	/* 1 => derail processor will simulate Gcos break instead of returning */
  4    64      , 3 unfinished_drl	bit (01) unal	/* 1 => subsystem is handling breaks and quit was raised during a drl */
  4    65      , 3 ss_time_limit_set	bit (01) unal	/* 1 => exec time limit set for subsystem */
  4    66      , 3 timer_ranout	bit (01) unal	/* 1 => user is executing timer runout code */
  4    67      , 3 gtss_com_err_sw      bit (01) unal       /* 1 => stop com_err_ string from going to terminal */
  4    68      , 3 available		bit (65) unal
  4    69      ;
  4    70
  4    71
  4    72 dcl 1 gtss_ext_$statistics aligned static ext,		/* Derail usage statistics */
  4    73       3 total_time (-10:71)fixed bin (71),
  4    74       3 count (-10:71)fixed bin (17);
  4    75
  4    76 /* 	Declaration of Available File Table
  4    77*   */
  4    78 dcl 1 gtss_ext_$aft aligned ext,			/* aft structure */
  4    79
  4    80       3 start_list (0:102) fixed bin (24),		/* >0 => 1st aft_entry row to start of next entry chain. */
  4    81
  4    82       3 aft_entry (20),
  4    83         4 altname char (8),				/* altname name for attaching this file */
  4    84         4 next_entry fixed bin (24),			/* Next aft_entry in hash chain. */
  4    85         4 previous_add fixed bin (24),			/* Previously added entry. */
  4    86         4 next_add fixed bin (24),			/* Entry added after this one. */
  4    87         4 used bit (1) unal,				/* "1"b => aft_entry contains AFT value. */
  4    88         4 forced bit(1) unal,				/* "1"b => gtss_verify_access_ forced access on this file. */
  4    89
  4    90       3 free_space fixed bin (24),			/* Index of start of free space list for aft entries. */
  4    91       3 first_added fixed bin (24),			/* >0  => start of chain in add order. */
  4    92       3 last_added fixed bin (24)			/* >0 => end of chain in added order. */;
  4    93
  4    94 dcl  gtss_ext_$ppt                   ptr ext /*  switch name for tapein drl */;
  4    95 /**	Data structure to provide access to installed
  4    96*   subsystems fast library load.
  4    97*   **/
  4    98 dcl 1 gtss_ext_$fast_lib aligned ext
  4    99      , 3 fast_lib_fcb ptr				/* Pointer to msf fcb.	*/
  4   100      , 3 fast_lib_ncp fixed bin (24)			/* Number of components. */
  4   101      , 3 comp_ptr (0:9)ptr				/* Pointer to component. */
  4   102      , 3 comp_wds (0:9)fixed bin (24)			/* Component length (words). */
  4   103      ;
  4   104
  4   105 /* Pointers to segments to regulate multipler
  4   106*   callers to files. Same segments are used to regulate
  4   107*   all simulator callers.
  4   108**/
  4   109 dcl 1 gtss_ext_$mcfc	aligned ext,
  4   110       3 multics_lock_id	bit(36),
  4   111       3 wait_time		fixed bin,
  4   112       3 files_ptr		ptr,
  4   113       3 names_ptr		ptr,
  4   114       3 callers_ptr		(0:3)ptr
  4   115 ;
  4   116
  4   117 /*   END INCLUDE FILE gtss_ext_.incl.pl1 */
       96
       97 
  5     1 /* BEGIN INCLUDE FILE gtss_ust_ext_.incl.pl1 */
  5     2 /* UST: User Status Table
  5     3*   definitions based on
  5     4*   System Tables, Order number DD14-01E, January 1981
  5     5*   Section 15, Time Sharing System
  5     6*
  5     7*   Authors: Robert J. Grimes	Created
  5     8*   -	  Albert N. Kepner	  1978
  5     9*   -	  Robert M. May
  5    10*   -	  David B. Ward
  5    11*   Change:  Dave Ward	02/23/79 Level 4 numbering.
  5    12*   Change:  Ron Barstad  83-07-12 Repaired damaged formating and word offset comments
  5    13*                                  Brought up to 4JS3 functionality
  5    14**/
  5    15 /* octal word offsets of entries */
  5    16 dcl 1 gtss_ust_ext_$ust aligned ext,
  5    17       3 gtss_ust,
  5    18 /* 0-1  */	4 lid		bit (72),
  5    19 /* 2    */	4 lstp		bit (36),
  5    20 /* 3    */	4 ltin		bit (36),
  5    21 /* 4    */	4 lstio,
  5    22 			5 no_of_chars_by_8  fixed bin (18) uns unal,
  5    23 			5 no_of_disk_io     fixed bin (18) uns unal,
  5    24 /* 5    */	4 lsnub		bit (36),
  5    25 /* 6-7  */	4 lchg		bit (72),
  5    26 /* 10   */	4 lbuf,
  5    27 			5 address		bit (18)unaligned,
  5    28 			5 tally		bit (1)unaligned,
  5    29 			5 terminal_type	bit (5)unaligned,
  5    30 			5 station_id	bit (12)unaligned,
  5    31 /* 11-12 */	4 liost (0:1)	bit (36),
  5    32 /* 13   */	4 lcc		bit (36),
  5    33 /* 14   */	4 lback,
  5    34 			5 fill1		bit (18) unaligned,
  5    35 			5 gwake		fixed bin (17) unaligned,
  5    36 /* 15   */	4 lflag,
  5    37 			5 mp_list		bit (18) unaligned,
  5    38 			5 flags unaligned,
  5    39 				6 b18		bit (1) unaligned,
  5    40 				6 b19		bit (1) unaligned,
  5    41 				6 b20		bit (1) unaligned,
  5    42 				6 b21		bit (1) unaligned,
  5    43 				6 b22		bit (1) unaligned,
  5    44 				6 b23		bit (1) unaligned,
  5    45 				6 b24		bit (1) unaligned,
  5    46 				6 b25		bit (1) unaligned,
  5    47 				6 b26		bit (1) unaligned,
  5    48 				6 b27		bit (1) unaligned,
  5    49 				6 b28		bit (1) unaligned,
  5    50 				6 b29		bit (1) unaligned,
  5    51 				6 b30		bit (1) unaligned,
  5    52 				6 b31		bit (1) unaligned,
  5    53 				6 b32		bit (1) unaligned,
  5    54 				6 b33		bit (1) unaligned,
  5    55 				6 b34		bit (1) unaligned,
  5    56 				6 b35		bit (1) unaligned,
  5    57 /* 16   */	4 lkdss		bit (36),
  5    58 /* 17   */	4 lfile,
  5    59 			5 program_stack	fixed bin (17) unal,
  5    60 			5 file_list_ptr	bit (18) unal,
  5    61 /* 20   */	4 lttys		bit (36),
  5    62 /* 21   */	4 lswth,
  5    63 			5 b0		bit (1) unaligned,
  5    64 			5 b1		bit (1) unaligned,
  5    65 			5 b2		bit (1) unaligned,
  5    66 			5 b3		bit (1) unaligned,
  5    67 			5 b4		bit (1) unaligned,
  5    68 			5 b5		bit (1) unaligned,
  5    69 			5 b6		bit (1) unaligned,
  5    70 			5 b7		bit (1) unaligned,
  5    71 			5 b8		bit (1) unaligned,
  5    72 			5 b9		bit (1) unaligned,
  5    73 			5 b10		bit (1) unaligned,
  5    74 			5 b11		bit (1) unaligned,
  5    75 			5 b12		bit (1) unaligned,
  5    76 			5 b13		bit (1) unaligned,
  5    77 			5 b14		bit (1) unaligned,
  5    78 			5 b15		bit (1) unaligned,
  5    79 			5 b16		bit (1) unaligned,
  5    80 			5 b17		bit (1) unaligned,
  5    81 			5 b18		bit (1) unaligned,
  5    82 			5 b19		bit (1) unaligned,
  5    83 			5 b20		bit (1) unaligned,
  5    84 			5 b21		bit (1) unaligned,
  5    85 			5 b22		bit (1) unaligned,
  5    86 			5 b23		bit (1) unaligned,
  5    87 			5 b24		bit (1) unaligned,
  5    88 			5 b25		bit (1) unaligned,
  5    89 			5 b26		bit (1) unaligned,
  5    90 			5 b27		bit (1) unaligned,
  5    91 			5 b28		bit (1) unaligned,
  5    92 			5 b29		bit (1) unaligned,
  5    93 			5 b30		bit (1) unaligned,
  5    94 			5 b31		bit (1) unaligned,
  5    95 			5 b32		bit (1) unaligned,
  5    96 			5 b33		bit (1) unaligned,
  5    97 			5 b34		bit (1) unaligned,
  5    98 			5 b35		bit (1) unaligned,
  5    99 /* 22   */	4 lsize,
  5   100 			5 bar		fixed bin (17) unaligned,
  5   101 			5 limit		bit (18) unaligned,
  5   102 /* 23... */	4 lswap,
  5   103 			5 fill		bit (18) unal,
  5   104 			5 size		bit (18) unal,
  5   105 /* ...24 */	4 transfer_cell	bit (36) unal,
  5   106 /* 25   */	4 lerrm		bit (36),
  5   107 /* 26-37 */	4 lcfil (0:9)	bit (36),
  5   108 /* 40   */	4 lsybc,
  5   109 			5 b0_17		fixed bin (17) unaligned,
  5   110 			5 b18_35		fixed bin (17) unaligned,
  5   111 /* 41-42 */	4 lstem (0:1)	bit (36),
  5   112 /* 43    */	4 lcals,
  5   113 			5 b0_17		fixed bin (17) unaligned,
  5   114 			5 b18_35		bit (18) unaligned,
  5   115 /* 44-51 */	4 subsystems (3),
  5   116 			5 content_lswap,
  5   117 				6 fill		bit (18) unal,
  5   118 				6 size		bit (18) unal,
  5   119 			5 tally_address	fixed bin (17) unaligned,
  5   120 			5 ss_flags	bit (18) unaligned,
  5   121 /* 52   */	4 ltalc,
  5   122 			5 tod		fixed bin (17) unaligned,
  5   123 			5 startup		fixed bin (17) unaligned,
  5   124 /* 53   */	4 lspts		fixed bin (35),
  5   125 /* 54   */	4 lflg2,
  5   126 			5 b0		bit (1) unaligned,
  5   127 			5 b1		bit (1) unaligned,
  5   128 			5 b2		bit (1) unaligned,
  5   129 			5 b3		bit (1) unaligned,
  5   130 			5 b4		bit (1) unaligned,
  5   131 			5 b5		bit (1) unaligned,
  5   132 			5 b6		bit (1) unaligned,
  5   133 			5 b7		bit (1) unaligned,
  5   134 			5 b8		bit (1) unaligned,
  5   135 			5 b9		bit (1) unaligned,
  5   136 			5 b10		bit (1) unaligned,
  5   137 			5 b11		bit (1) unaligned,
  5   138 			5 b12		bit (1) unaligned,
  5   139 			5 b13		bit (1) unaligned,
  5   140 			5 b14		bit (1) unaligned,
  5   141 			5 b15		bit (1) unaligned,
  5   142 			5 b16		bit (1) unaligned,
  5   143 			5 b17		bit (1) unaligned,
  5   144 			5 b18		bit (1) unaligned,
  5   145 			5 b19		bit (1) unaligned,
  5   146 			5 b20		bit (1) unaligned,
  5   147 			5 b21		bit (1) unaligned,
  5   148 			5 b22		bit (1) unaligned,
  5   149 			5 b23		bit (1) unaligned,
  5   150 			5 b24		bit (1) unaligned,
  5   151 			5 b25		bit (1) unaligned,
  5   152 			5 b26		bit (1) unaligned,
  5   153 			5 b27		bit (1) unaligned,
  5   154 			5 b28		bit (1) unaligned,
  5   155 			5 b29		bit (1) unaligned,
  5   156 			5 b30		bit (1) unaligned,
  5   157 			5 b31		bit (1) unaligned,
  5   158 			5 b32		bit (1) unaligned,
  5   159 			5 b33		bit (1) unaligned,
  5   160 			5 b34		bit (1) unaligned,
  5   161 			5 b35		bit (1) unaligned,
  5   162 /* 55-60 */	4 lsftm (0:3)	bit (36),
  5   163 /* 61    */	4 lsprt		fixed bin (35),
  5   164 /* 62    */	4 ltrm		bit (36),
  5   165 /* 63    */	4 linno		fixed bin (35),
  5   166 /* 64    */	4 lincr		fixed bin (35),
  5   167 /* 65    */	4 ltdes		bit (36),
  5   168 /* 66    */	4 lbptr		bit (36),
  5   169 /* 67    */	4 lpptr,
  5   170 			5 last_file_pat_ptr	bin (18) uns unal,
  5   171 			5 lpptr_reserved	bin (18) uns unal,
  5   172 /* 70    */	4 lsclp		bit (36),
  5   173 /* 71    */	4 limit		fixed bin (35),
  5   174 /* 72    */	4 lacpt,
  5   175 			5 jout_pat_offset	bit (18) unal,
  5   176 			5 permissions unal,
  5   177 				6 lodx		bit (1) unal,
  5   178 				6 cardin		bit (1) unal,
  5   179 				6 talk		bit (1) unal,
  5   180 				6 lods		bit (1) unal,
  5   181 			5 cardin_urgency	bit (14) unal,
  5   182 /* 73    */	4 ldrl,
  5   183 			5 ilc		bit (18) unaligned,
  5   184 			5 code		fixed bin (17) unaligned,
  5   185 /* 74    */	4 ljsnb		bit (36),
  5   186 /* 75    */	4 ltm0		bit (36),
  5   187 /* 76    */	4 ltm1		bit (36),
  5   188 /* 77    */	4 ltm2		bit (36),
  5   189 /* 100   */	4 ltm3		bit (36),
  5   190 /* 101   */	4 ltm4		bit (36),
  5   191 /* 102   */	4 ltm5		bit (36),
  5   192 /* 103   */	4 ltmwt		bit (36),
  5   193 /* 104   */	4 ltmrs		bit (36),
  5   194 /* 105   */	4 ltc0		bit (36),
  5   195 /* 106   */	4 ltc1		bit (36),
  5   196 /* 107   */	4 ltc2		bit (36),
  5   197 /* 110   */	4 lct3		bit (36),
  5   198 /* 111   */	4 ltc4		bit (36),
  5   199 /* 112   */	4 ltc5		bit (36),
  5   200 /* 113   */	4 ltcw		bit (36),
  5   201 /* 114   */	4 lkst		bit (36),
  5   202 /* 115   */	4 lkst2		bit (36),
  5   203 /* 116   */	4 lkcc		bit (36),
  5   204 /* 117   */	4 lkms		bit (36),
  5   205 /* 120-121 */	4 lksdc (0:1)	bit (36),
  5   206 /* 122   */	4 lkntp		bit (36),
  5   207 /* 123   */	4 lkrdc		bit (36),
  5   208 /* 124   */	4 lpqf		bit (36),
  5   209 /* 125   */	4 lpqb		bit (36),
  5   210 /* 126   */	4 lustl		bit (36),
  5   211 /* 127   */	4 ltemp		bit (36),
  5   212 /* 130   */	4 lrtll,
  5   213 			5 word_length	fixed bin unaligned,
  5   214 			5 char_length	fixed bin unaligned,
  5   215 /* 131   */	4 ltim		bit (36),
  5   216 /* 132   */	4 lcfio,
  5   217 			5 sect_out	fixed bin(18)unsigned unal,
  5   218 			5 sect_in		fixed bin(18)unsigned unal,
  5   219 /* 133   */	4 lcfst,
  5   220 			5 initial_sect_out	fixed bin(18)unsigned unal,
  5   221 			5 start_term	fixed bin(18)unsigned unal,
  5   222 /* 134   */	4 lcmpt		bit (36),
  5   223 /* 135   */	4 lcjid		bit (36),
  5   224 /* 136-137 */	4 lrcal (0:1)	bit (36),
  5   225 /* 140   */	4 lrdta		bit (36),
  5   226 /* 141   */	4 lrrsk		bit (36),
  5   227 /* 142   */	4 lrskd		bit (36),
  5   228 /* 143   */	4 lrcc		bit (36),
  5   229 /* 144-145 */	4 lrsts (0:1)	bit (36),
  5   230 /* 146   */	4 lrtm		bit (36),
  5   231 /* 147   */	4 lswt2,
  5   232 			5 b0		bit (1) unaligned,
  5   233 			5 b1		bit (1) unaligned,
  5   234 			5 b2		bit (1) unaligned,
  5   235 			5 b3		bit (1) unaligned,
  5   236 			5 b4		bit (1) unaligned,
  5   237 			5 b5		bit (1) unaligned,
  5   238 			5 b6		bit (1) unaligned,
  5   239 			5 b7		bit (1) unaligned,
  5   240 			5 b8		bit (1) unaligned,
  5   241 			5 b9		bit (1) unaligned,
  5   242 			5 b10		bit (1) unaligned,
  5   243 			5 b11		bit (1) unaligned,
  5   244 			5 b12		bit (1) unaligned,
  5   245 			5 b13		bit (1) unaligned,
  5   246 			5 b14		bit (1) unaligned,
  5   247 			5 b15		bit (1) unaligned,
  5   248 			5 b16		bit (1) unaligned,
  5   249 			5 b17		bit (1) unaligned,
  5   250 			5 b18		bit (1) unaligned,
  5   251 			5 b19		bit (1) unaligned,
  5   252 			5 b20		bit (1) unaligned,
  5   253 			5 b21		bit (1) unaligned,
  5   254 			5 b22		bit (1) unaligned,
  5   255 			5 b23		bit (1) unaligned,
  5   256 			5 b24		bit (1) unaligned,
  5   257 			5 b25		bit (1) unaligned,
  5   258 			5 b26		bit (1) unaligned,
  5   259 			5 b27		bit (1) unaligned,
  5   260 			5 b28		bit (1) unaligned,
  5   261 			5 b29		bit (1) unaligned,
  5   262 			5 b30		bit (1) unaligned,
  5   263 			5 b31		bit (1) unaligned,
  5   264 			5 b32		bit (1) unaligned,
  5   265 			5 b33		bit (1) unaligned,
  5   266 			5 b34		bit (1) unaligned,
  5   267 			5 b35		bit (1) unaligned,
  5   268 /* 150   */	4 llsnb		bit (36),
  5   269 /* 151   */	4 lesq		bit (36),
  5   270 /* 152-153 */	4 lumc (0:1)	bit (36),
  5   271 /* 154-155 */	4 lfnam (0:1)	bit (36),
  5   272 /* 156   */	4 lopts		bit (36),
  5   273 /* 157   */	4 licec,
  5   274 			5 b0_17		bit (18) unaligned,
  5   275 			5 b18_35		fixed bin (17) unaligned,
  5   276 /* 160   */	4 lflg3,
  5   277 			5 b0		bit (1) unaligned,
  5   278 			5 b1		bit (1) unaligned,
  5   279 			5 b2		bit (1) unaligned,
  5   280 			5 b3		bit (1) unaligned,
  5   281 			5 b4		bit (1) unaligned,
  5   282 			5 b5		bit (1) unaligned,
  5   283 			5 b6		bit (1) unaligned,
  5   284 			5 b7		bit (1) unaligned,
  5   285 			5 b8		bit (1) unaligned,
  5   286 			5 b9		bit (1) unaligned,
  5   287 			5 b10		bit (1) unaligned,
  5   288 			5 b11		bit (1) unaligned,
  5   289 			5 b12		bit (1) unaligned,
  5   290 			5 b13		bit (1) unaligned,
  5   291 			5 b14		bit (1) unaligned,
  5   292 			5 b15		bit (1) unaligned,
  5   293 			5 b16		bit (1) unaligned,
  5   294 			5 b17		bit (1) unaligned,
  5   295 			5 b18		bit (1) unaligned,
  5   296 			5 b19		bit (1) unaligned,
  5   297 			5 b20		bit (1) unaligned,
  5   298 			5 b21		bit (1) unaligned,
  5   299 			5 b22		bit (1) unaligned,
  5   300 			5 b23		bit (1) unaligned,
  5   301 			5 b24		bit (1) unaligned,
  5   302 			5 b25		bit (1) unaligned,
  5   303 			5 b26		bit (1) unaligned,
  5   304 			5 b27		bit (1) unaligned,
  5   305 			5 b28		bit (1) unaligned,
  5   306 			5 b29		bit (1) unaligned,
  5   307 			5 b30		bit (1) unaligned,
  5   308 			5 b31		bit (1) unaligned,
  5   309 			5 b32		bit (1) unaligned,
  5   310 			5 b33		bit (1) unaligned,
  5   311 			5 b34		bit (1) unaligned,
  5   312 			5 b35		bit (1) unaligned,
  5   313 /* 161-163 */	4 lpage (0:2)	bit (36),
  5   314 /* 164   */	4 lsit1		bit (36),
  5   315 /* 165   */	4 lsit2		bit (36),
  5   316 /* 166   */	4 lsit3		bit (36),
  5   317 /* 167   */	4 lsit4		bit (36),
  5   318 /* The following entries are maintained by gtss and are not found in TSS UST */
  5   319 /* 170   */	4 lxxx, /* program stack index, offset from gtss_ust */
  5   320 			5 b0_17		fixed bin (17) unaligned,
  5   321 			5 b18_35		bit (18) unaligned, /* not used */
  5   322 /* 171-175 */	4 lprgs (5),
  5   323 			5 b0_17		fixed bin (17) unaligned,
  5   324 			5 b18_35		fixed bin (17) unaligned,
  5   325 /* 176   */	4 fill	bit (36),
  5   326 /* 177   */	4 remote_io_buffer aligned,
  5   327 			5 buffer_control_word,
  5   328 				6 current_line_pointer  bit (18)unal,
  5   329 				6 buffer_threshold_address  bit (18)unal,
  5   330 			5 number_words_transmitted	fixed bin (17)unal,
  5   331 			5 FILL1			fixed bin (17)unal,
  5   332 			5 count_of_characters_transmitted fixed bin (17)unal,
  5   333 			5 FILL2			fixed bin (17)unal,
  5   334 			5 characters_transmitted (244) char (1) unal,
  5   335 /* 277   */	4 word_after_ust		bit (36) aligned;
  5   336
  5   337 /*   END INCLUDE FILE gtss_ust_ext_.incl.pl1 */
       98
       99      end;						/* gtss_com_err_ */
      100
	SOURCE FILES USED IN THIS COMPILATION.

LINE      NUMBER  DATE MODIFIED     NAME			PATHNAME
             0    12/10/84  1042.9  gtss_com_err_.pl1                 >spec>on>7105>gtss_com_err_.pl1
90           1    05/06/74  1741.0  cond_info.incl.pl1                >ldd>include>cond_info.incl.pl1
92           2    12/15/83  1100.4  mc.incl.pl1                       >ldd>include>mc.incl.pl1
94           3    12/10/84  1029.7  gtss_entry_dcls.incl.pl1          >spec>on>7105>gtss_entry_dcls.incl.pl1
96           4    09/09/83  1713.8  gtss_ext_.incl.pl1                >ldd>include>gtss_ext_.incl.pl1
98           5    09/09/83  1714.3  gtss_ust_ext_.incl.pl1            >ldd>include>gtss_ust_ext_.incl.pl1
	NAMES DECLARED IN THIS COMPILATION.

IDENTIFIER	     OFFSET    LOC STORAGE CLASS   DATA TYPE		ATTRIBUTES AND REFERENCES
								(* indicates a set context)

NAMES DECLARED BY DECLARE STATEMENT.
code                            000100 automatic       fixed bin(35,0)          dcl 63 set ref 43* 53*
command_error_info                     based           structure                level 1 dcl 74
cond_info                       000104 automatic       structure                level 1 dcl 89 set ref 53 53
condition_name            3     000104 automatic       varying char(32)         level 2 dcl 89 set ref 54
condition_parm                         parameter       varying char(32)         dcl 60 ref 49 54
cr_lf                                  based           char(2)                  unaligned dcl 65 ref 41
crlf                            000000 constant        bit(18)                  initial unaligned dcl 66 set ref 41
errmess_lth             114            based           fixed bin(17,0)          level 2 dcl 74 set ref 39 39* 42* 42 43 43
errmess_ptr             112            based           pointer                  level 2 dcl 74 set ref 41 41 43*
error_message                          based           char                     unaligned dcl 68 set ref 41* 41
find_condition_frame_           000010 constant        entry                    external dcl 69 ref 51 56
find_condition_info_            000012 constant        entry                    external dcl 70 ref 53
gtss_com_err_sw           0(06) 000020 external static bit(1)                   level 2 packed unaligned dcl 4-60 set ref 44 44*
gtss_ext_$flags                 000020 external static structure                level 1 dcl 4-60
gtss_max_lth                           constant        fixed bin(17,0)          initial dcl 71 ref 39 39
gtss_ust                        000022 external static structure                level 2 dcl 5-16
gtss_ust_ext_$ust               000022 external static structure                level 1 dcl 5-16
gtss_write_starCFP_             000016 constant        entry                    external dcl 3-151 ref 43
infoptr                  14     000104 automatic       pointer                  level 2 dcl 89 set ref 39 39 41 41 41 41 42 42 43 43
                                                                                  43 44 54
ioa_                            000014 constant        entry                    external dcl 72 ref 34
lcfst                   133     000022 external static structure                level 3 dcl 5-16
max_errmess_lth         115            based           fixed bin(17,0)          level 2 dcl 74 ref 41 41
print_sw                116            based           bit(1)                   level 2 dcl 74 set ref 44*
sp                              000102 automatic       pointer                  initial dcl 73 set ref 51* 52 53* 56* 56* 73*
start_term              133(18) 000022 external static fixed bin(18,0)          level 4 packed unsigned unaligned dcl 5-16 ref 27 27

NAMES DECLARED BY DECLARE STATEMENT AND NEVER REFERENCED.
abx                                    internal static fixed bin(17,0)          initial dcl 2-42
apx                                    internal static fixed bin(17,0)          initial dcl 2-42
bbx                                    internal static fixed bin(17,0)          initial dcl 2-42
bpx                                    internal static fixed bin(17,0)          initial dcl 2-42
com_err_                        000000 constant        entry                    external dcl 3-8
command_error                   000000 stack reference condition                dcl 64
err_mess                               based           char                     unaligned dcl 67
gtss_CFP_abort_                 000000 constant        entry                    external dcl 3-9
gtss_CFP_break_                 000000 constant        entry                    external dcl 3-10
gtss_CFP_input_                 000000 constant        entry                    external dcl 3-11
gtss_CFP_output_                000000 constant        entry                    external dcl 3-12
gtss_abandon_CFP_               000000 constant        entry                    external dcl 3-13
gtss_abort_dump_                000000 constant        entry                    external dcl 3-14
gtss_abort_subsystem_           000000 constant        entry                    external dcl 3-15
gtss_abort_subsystem_$not_imp   000000 constant        entry                    external dcl 3-16
gtss_abs_$abs_equiv             000000 constant        entry                    external dcl 3-19
gtss_abs_$cpu_runout            000000 constant        entry                    external dcl 3-20
gtss_abs_$create_absin          000000 constant        entry                    external dcl 3-21
gtss_abs_$dabt_check            000000 constant        entry                    external dcl 3-22
gtss_abs_$get_drm               000000 constant        entry                    external dcl 3-24
gtss_abs_$get_id                000000 constant        entry                    external dcl 3-23
gtss_abs_login_banner_          000000 constant        entry                    external dcl 3-17
gtss_abs_logout_banner_         000000 constant        entry                    external dcl 3-18
gtss_adjust_size_               000000 constant        entry                    external dcl 3-25
gtss_aft_$add                   000000 constant        entry                    external dcl 3-26
gtss_aft_$delete                000000 constant        entry                    external dcl 3-27
gtss_aft_$find                  000000 constant        entry                    external dcl 3-28
gtss_aft_$initialize            000000 constant        entry                    external dcl 3-29
gtss_ascii_bcd_                 000000 constant        entry                    external dcl 3-30
gtss_attributes_mgr_$get        000000 constant        entry                    external dcl 3-31
gtss_attributes_mgr_$set        000000 constant        entry                    external dcl 3-32
gtss_bcd_ascii_                 000000 constant        entry                    external dcl 3-33
gtss_bcd_ascii_$lc              000000 constant        entry                    external dcl 3-34
gtss_break_vector_              000000 constant        entry                    external dcl 3-35
gtss_break_vector_$drl_in_progress
                                000000 constant        entry                    external dcl 3-36
gtss_break_vector_$status       000000 constant        entry                    external dcl 3-37
gtss_build_                     000000 constant        entry                    external dcl 3-38
gtss_com_err_                   000000 constant        entry                    external dcl 3-39
gtss_derail_processor_          000000 constant        entry                    external dcl 3-40
gtss_derail_processor_$set      000000 constant        entry                    external dcl 3-41
gtss_dq_$catp                   000000 constant        entry                    external dcl 3-42
gtss_dq_$create                 000000 constant        entry                    external dcl 3-43
gtss_dq_$dibp                   000000 constant        entry                    external dcl 3-44
gtss_dq_$entries_info           000000 constant        entry                    external dcl 3-45
gtss_dq_$hdrp                   000000 constant        entry                    external dcl 3-46
gtss_dq_$mod_js                 000000 constant        entry                    external dcl 3-47
gtss_dq_$open_exc               000000 constant        entry                    external dcl 3-48
gtss_dq_$open_gen               000000 constant        entry                    external dcl 3-49
gtss_drl_abort_                 000000 constant        entry                    external dcl 3-50
gtss_drl_addmem_                000000 constant        entry                    external dcl 3-51
gtss_drl_callss_                000000 constant        entry                    external dcl 3-52
gtss_drl_corfil_                000000 constant        entry                    external dcl 3-53
gtss_drl_defil_                 000000 constant        entry                    external dcl 3-54
gtss_drl_defil_$subr            000000 constant        entry                    external dcl 3-55
gtss_drl_dio_                   000000 constant        entry                    external dcl 3-56
gtss_drl_drlimt_                000000 constant        entry                    external dcl 3-57
gtss_drl_drlsav_                000000 constant        entry                    external dcl 3-58
gtss_drl_filact_                000000 constant        entry                    external dcl 3-59
gtss_drl_filsp_                 000000 constant        entry                    external dcl 3-60
gtss_drl_grow_                  000000 constant        entry                    external dcl 3-61
gtss_drl_gwake_                 000000 constant        entry                    external dcl 3-62
gtss_drl_jsts_                  000000 constant        entry                    external dcl 3-63
gtss_drl_kin_                   000000 constant        entry                    external dcl 3-64
gtss_drl_kotnow_                000000 constant        entry                    external dcl 3-65
gtss_drl_kotnow_$gtss_drl_kout_ 000000 constant        entry                    external dcl 3-66
gtss_drl_koutn_                 000000 constant        entry                    external dcl 3-67
gtss_drl_morlnk_                000000 constant        entry                    external dcl 3-68
gtss_drl_msub_                  000000 constant        entry                    external dcl 3-69
gtss_drl_objtim_                000000 constant        entry                    external dcl 3-70
gtss_drl_part_                  000000 constant        entry                    external dcl 3-71
gtss_drl_pasaft_                000000 constant        entry                    external dcl 3-72
gtss_drl_pasdes_                000000 constant        entry                    external dcl 3-73
gtss_drl_pasust_                000000 constant        entry                    external dcl 3-74
gtss_drl_pdio_                  000000 constant        entry                    external dcl 3-75
gtss_drl_prgdes_                000000 constant        entry                    external dcl 3-76
gtss_drl_pseudo_                000000 constant        entry                    external dcl 3-77
gtss_drl_relmem_                000000 constant        entry                    external dcl 3-78
gtss_drl_restor_                000000 constant        entry                    external dcl 3-79
gtss_drl_retfil_                000000 constant        entry                    external dcl 3-80
gtss_drl_return_                000000 constant        entry                    external dcl 3-81
gtss_drl_rew_                   000000 constant        entry                    external dcl 3-82
gtss_drl_rstswh_                000000 constant        entry                    external dcl 3-83
gtss_drl_setlno_                000000 constant        entry                    external dcl 3-84
gtss_drl_setswh_                000000 constant        entry                    external dcl 3-85
gtss_drl_snumb_                 000000 constant        entry                    external dcl 3-86
gtss_drl_spawn_                 000000 constant        entry                    external dcl 3-87
gtss_drl_spawn_$gtss_drl_pasflr_
                                000000 constant        entry                    external dcl 3-88
gtss_drl_stoppt_                000000 constant        entry                    external dcl 3-89
gtss_drl_switch_                000000 constant        entry                    external dcl 3-90
gtss_drl_sysret_                000000 constant        entry                    external dcl 3-91
gtss_drl_t_cfio_                000000 constant        entry                    external dcl 3-92
gtss_drl_t_cmov_                000000 constant        entry                    external dcl 3-93
gtss_drl_t_err_                 000000 constant        entry                    external dcl 3-94
gtss_drl_t_goto_                000000 constant        entry                    external dcl 3-95
gtss_drl_t_linl_                000000 constant        entry                    external dcl 3-96
gtss_drl_t_rscc_                000000 constant        entry                    external dcl 3-97
gtss_drl_tapein_                000000 constant        entry                    external dcl 3-98
gtss_drl_task_                  000000 constant        entry                    external dcl 3-99
gtss_drl_termtp_                000000 constant        entry                    external dcl 3-100
gtss_drl_time_                  000000 constant        entry                    external dcl 3-101
gtss_drun_                      000000 constant        entry                    external dcl 3-102
gtss_dsd_lookup_                000000 constant        entry                    external dcl 3-103
gtss_dsd_process_               000000 constant        entry                    external dcl 3-104
gtss_edit_dsd_                  000000 constant        entry                    external dcl 3-105
gtss_expand_pathname_           000000 constant        entry                    external dcl 3-107
gtss_expand_pathname_$verify_umc
                                000000 constant        entry                    external dcl 3-108
gtss_ext_$CFP_bits                     external static structure                level 1 dcl 4-37
gtss_ext_$SYstarstar_file_no           external static fixed bin(24,0)          dcl 4-33
gtss_ext_$aem                          external static fixed bin(17,0)          dcl 4-8
gtss_ext_$aft                          external static structure                level 1 dcl 4-78
gtss_ext_$bad_drl_rtrn                 external static label variable           dcl 4-9
gtss_ext_$com_reg                      external static structure                level 1 dcl 4-45
gtss_ext_$db                           external static bit(1)                   array unaligned dcl 4-10
gtss_ext_$deferred_catalogs_ptr        external static pointer                  dcl 4-11
gtss_ext_$dispose_of_drl               external static label variable           dcl 4-12
gtss_ext_$drl_rtrn                     external static label variable           array dcl 4-13
gtss_ext_$drm_path                     external static char(168)                unaligned dcl 4-14
gtss_ext_$drun_jid                     external static char(5)                  unaligned dcl 4-15
gtss_ext_$event_channel                external static fixed bin(71,0)          dcl 4-16
gtss_ext_$fast_lib                     external static structure                level 1 dcl 4-98
gtss_ext_$finished                     external static label variable           dcl 4-17
gtss_ext_$gdb_name                     external static char(8)                  unaligned dcl 4-18
gtss_ext_$get_line                     external static entry variable           dcl 4-19
gtss_ext_$gtss_slave_area_seg          external static pointer                  array dcl 4-20
gtss_ext_$hcs_work_area_ptr            external static pointer                  dcl 4-21
gtss_ext_$homedir                      external static char(64)                 unaligned dcl 4-22
gtss_ext_$last_k_was_out               external static bit(1)                   dcl 4-23
gtss_ext_$mcfc                         external static structure                level 1 dcl 4-109
gtss_ext_$pdir                         external static varying char(168)        dcl 4-24
gtss_ext_$popup_from_pi                external static label variable           dcl 4-25
gtss_ext_$ppt                          external static pointer                  dcl 4-94
gtss_ext_$process_type                 external static fixed bin(17,0)          dcl 4-26
gtss_ext_$put_chars                    external static entry variable           dcl 4-27
gtss_ext_$restart_from_pi              external static label variable           dcl 4-28
gtss_ext_$restart_seg_ptr              external static pointer                  dcl 4-29
gtss_ext_$sig_ptr                      external static pointer                  dcl 4-30
gtss_ext_$stack_level_                 external static fixed bin(17,0)          dcl 4-31
gtss_ext_$statistics                   external static structure                level 1 dcl 4-72
gtss_ext_$suspended_process            external static bit(1)                   unaligned dcl 4-32
gtss_ext_$user_id                      external static varying char(26)         dcl 4-34
gtss_ext_$work_area_ptr                external static pointer                  dcl 4-35
gtss_fault_processor_           000000 constant        entry                    external dcl 3-109
gtss_fault_processor_$timer_runout
                                000000 constant        entry                    external dcl 3-111
gtss_filact_error_status_       000000 constant        entry                    external dcl 3-112
gtss_filact_funct02_            000000 constant        entry                    external dcl 3-113
gtss_filact_funct03_            000000 constant        entry                    external dcl 3-114
gtss_filact_funct04_            000000 constant        entry                    external dcl 3-115
gtss_filact_funct05_            000000 constant        entry                    external dcl 3-116
gtss_filact_funct08_            000000 constant        entry                    external dcl 3-117
gtss_filact_funct10_            000000 constant        entry                    external dcl 3-118
gtss_filact_funct11_            000000 constant        entry                    external dcl 3-119
gtss_filact_funct14_            000000 constant        entry                    external dcl 3-120
gtss_filact_funct18_            000000 constant        entry                    external dcl 3-121
gtss_filact_funct19_            000000 constant        entry                    external dcl 3-122
gtss_filact_funct21_            000000 constant        entry                    external dcl 3-123
gtss_filact_funct22_            000000 constant        entry                    external dcl 3-124
gtss_find_cond_frame_           000000 constant        entry                    external dcl 3-110
gtss_interp_prim_               000000 constant        entry                    external dcl 3-126
gtss_interp_prim_$callss        000000 constant        entry                    external dcl 3-127
gtss_interp_prim_$sysret        000000 constant        entry                    external dcl 3-128
gtss_interp_prim_$t_goto        000000 constant        entry                    external dcl 3-129
gtss_ios_change_size_           000000 constant        entry                    external dcl 3-130
gtss_ios_close_                 000000 constant        entry                    external dcl 3-131
gtss_ios_exchange_names_        000000 constant        entry                    external dcl 3-132
gtss_ios_initialize_            000000 constant        entry                    external dcl 3-133
gtss_ios_io_                    000000 constant        entry                    external dcl 3-134
gtss_ios_open_                  000000 constant        entry                    external dcl 3-135
gtss_ios_position_              000000 constant        entry                    external dcl 3-136
gtss_mcfc_$close                000000 constant        entry                    external dcl 3-139
gtss_mcfc_$delete               000000 constant        entry                    external dcl 3-137
gtss_mcfc_$open                 000000 constant        entry                    external dcl 3-138
gtss_mcfc_empty                 000000 constant        entry                    external dcl 3-106
gtss_mcfc_init_                 000000 constant        entry                    external dcl 3-125
gtss_read_starCFP_              000000 constant        entry                    external dcl 3-140
gtss_read_starCFP_$last_os      000000 constant        entry                    external dcl 3-141
gtss_run_subsystem_             000000 constant        entry                    external dcl 3-142
gtss_run_subsystem_$finish      000000 constant        entry                    external dcl 3-143
gtss_run_subsystem_$restor      000000 constant        entry                    external dcl 3-144
gtss_run_subsystem_$restor_perm 000000 constant        entry                    external dcl 3-145
gtss_set_slave_                 000000 constant        entry                    external dcl 3-146
gtss_set_slave_$load_bar        000000 constant        entry                    external dcl 3-147
gtss_update_safe_store_         000000 constant        entry                    external dcl 3-148
gtss_verify_access_             000000 constant        entry                    external dcl 3-149
gtss_verify_access_$check_forced_access
                                000000 constant        entry                    external dcl 3-150
lbx                                    internal static fixed bin(17,0)          initial dcl 2-42
lpx                                    internal static fixed bin(17,0)          initial dcl 2-42
mc                                     based           structure                level 1 dcl 2-12
mcp                                    automatic       pointer                  dcl 2-10
sbx                                    internal static fixed bin(17,0)          initial dcl 2-42
scu                                    based           structure                level 1 dcl 2-56
scup                                   automatic       pointer                  dcl 2-54
scux                                   based           structure                level 1 dcl 2-207
spx                                    internal static fixed bin(17,0)          initial dcl 2-42

NAMES DECLARED BY EXPLICIT CONTEXT.
find_frame                      000160 constant        entry                    internal dcl 49 ref 32
gtss_com_err_                   000031 constant        entry                    external dcl 15

NAMES DECLARED BY CONTEXT OR IMPLICATION.
addr                                                   builtin function         ref 41 53 53
fixed                                                  builtin function         ref 43 43
null                                                   builtin function         ref 32 43 43 51 51 52 58 73

STORAGE REQUIREMENTS FOR THIS PROGRAM.

	Object	Text	Link	Symbol	Defs	Static
Start          0       0       362         406     256         372
Length       654     256        24         232     104           0

BLOCK NAME	         STACK SIZE     TYPE		WHY NONQUICK/WHO SHARES STACK FRAME
gtss_com_err_                       140 external procedure  is an external procedure.
find_frame                              internal procedure  shares stack frame of external procedure gtss_com_err_.

STORAGE FOR AUTOMATIC VARIABLES.

STACK FRAME                 LOC IDENTIFIER                  BLOCK NAME
gtss_com_err_            000100 code                        gtss_com_err_
                         000102 sp                          gtss_com_err_
                         000104 cond_info                   gtss_com_err_

THE FOLLOWING EXTERNAL OPERATORS ARE USED BY THIS PROGRAM.
alloc_cs            call_ext_out_desc   call_ext_out        return              shorten_stack       ext_entry

THE FOLLOWING EXTERNAL ENTRIES ARE CALLED BY THIS PROGRAM.
find_condition_frame_         find_condition_info_          gtss_write_starCFP_           ioa_

THE FOLLOWING EXTERNAL VARIABLES ARE USED BY THIS PROGRAM.
gtss_ext_$flags               gtss_ust_ext_$ust


   LINE    LOC      LINE    LOC      LINE    LOC      LINE    LOC      LINE    LOC      LINE    LOC      LINE    LOC
     15 000030        73 000036        27 000040        32 000047        34 000062        35 000076        39 000077
     41 000105        42 000123        43 000126        44 000147        99 000157        49 000160        51 000162
     52 000175        53 000202        54 000217        56 000232        57 000242        58 000243


                                          -----------------------------------------------------------


Historical Background

This edition of the Multics software materials and documentation is provided and donated
to Massachusetts Institute of Technology by Group BULL including BULL HN Information Systems Inc.
as a contribution to computer science knowledge.
This donation is made also to give evidence of the common contributions of Massachusetts Institute of Technology,
Bell Laboratories, General Electric, Honeywell Information Systems Inc., Honeywell BULL Inc., Groupe BULL
and BULL HN Information Systems Inc. to the development of this operating system.
Multics development was initiated by Massachusetts Institute of Technology Project MAC (1963-1970),
renamed the MIT Laboratory for Computer Science and Artificial Intelligence in the mid 1970s, under the leadership
of Professor Fernando Jose Corbato. Users consider that Multics provided the best software architecture
for managing computer hardware properly and for executing programs. Many subsequent operating systems
incorporated Multics principles.
Multics was distributed in 1975 to 2000 by Group Bull in Europe , and in the U.S. by Bull HN Information Systems Inc.,
as successor in interest by change in name only to Honeywell Bull Inc. and Honeywell Information Systems Inc. .

                                          -----------------------------------------------------------

Permission to use, copy, modify, and distribute these programs and their documentation for any purpose and without
fee is hereby granted,provided that the below copyright notice and historical background appear in all copies
and that both the copyright notice and historical background and this permission notice appear in supporting
documentation, and that the names of MIT, HIS, BULL or BULL HN not be used in advertising or publicity pertaining
to distribution of the programs without specific prior written permission.
    Copyright 1972 by Massachusetts Institute of Technology and Honeywell Information Systems Inc.
    Copyright 2006 by BULL HN Information Systems Inc.
    Copyright 2006 by Bull SAS
    All Rights Reserved
