	COMPILATION LISTING OF SEGMENT gtss_break_vector_
	Compiled by: Multics PL/I Compiler, Release 28d, of October 4, 1983
	Compiled at: Honeywell Multics Op. - System M
	Compiled on: 12/10/84  1153.3 mst Mon
	    Options: optimize map

        1 /* ***********************************************************
        2*   *                                                         *
        3*   *                                                         *
        4*   * Copyright, (C) Honeywell Information Systems Inc., 1981 *
        5*   *                                                         *
        6*   *                                                         *
        7*   *********************************************************** */
        8
        9 /* *************************************************************
       10*   *						   *
       11*   * Copyright (c) 1979 by Honeywell Information Systems, Inc. *
       12*   *						   *
       13*   ************************************************************* */
       14 gtss_break_vector_: proc (mcpp);
       15
       16 /* The subsystem has specified a transfer vector for line break
       17*   (mulitcs quit).  We must locate the appropriate machine
       18*   conditions and alter the instruction counter.
       19*
       20*	Authors:	Robert J. Grimes	Created
       21*		Albert N. Kepner	  1978
       22*		Robert M. May
       23*		David B. Ward
       24**/
       25
       26 /* We will search the stack backwards from the current
       27*   stack frame checking each quit and derail fault
       28*   to see if it occurred in the current slave segment. If no
       29*   such fault is found then the  subsystem must have returned before
       30*   quit was signalled so no machine conditions will be altered. */
       31
       32 	sp = find_condition_frame_ (null ());
       33 	do while (sp ^= null ());
       34 	     call find_condition_info_ (sp, addr (cond_info), code);
       35 	     if condition_name = "quit" | condition_name = "derail"
       36 	     then do;
       37 		scup = addr (cond_info.mcptr -> mc.scu);
       38 		if scu.ppr.psr = substr (baseno (gtss_ext_$gtss_slave_area_seg
       39 		(gtss_ext_$stack_level_)), 4, 15) then do; /* have found fault in slave segment */
       40 		     mcp = cond_info.mcptr;
       41 		     gseg = gtss_ext_$gtss_slave_area_seg (gtss_ext_$stack_level_);
       42 		     lbrk.ic = scu.ilc;
       43 		     lbrk.ir = string (scu.ir);
       44 		     scu.ilc = lbrk.tra_addr;
       45 		end;
       46 	     end;
       47 	     sp = find_condition_frame_ (sp);
       48 	end;
       49 	return;					/* end of main entry */
       50
       51 
       52 drl_in_progress: entry () returns (bit (1));
       53
       54 /* This entry searches the stack backwards from the current stack
       55*   frame to determine if the slave program was interrupted by a derail
       56*   fault. If so, it returns "1"b */
       57
       58 	sp = find_condition_frame_ (null ());
       59 	do while (sp ^= null ());
       60 	     call find_condition_info_ (sp, addr (cond_info), code);
       61 	     if condition_name = "derail"
       62 	     then do;
       63 		scup = addr (cond_info.mcptr -> mc.scu);
       64 		if scu.ppr.psr = substr (baseno (gtss_ext_$gtss_slave_area_seg
       65 		(gtss_ext_$stack_level_)), 4, 15) then do; /* have found fault in slave segment */
       66 		     return ("1"b);
       67 		end;
       68 	     end;
       69 	     sp = find_condition_frame_ (sp);
       70 	end;
       71 	return ("0"b);				/* end of drl_in_progress entry */
       72
       73
       74 status:	entry () returns (bit (1)unal);
       75
       76 /* The entry gtss_break_vector_$status indicated is the subsystem
       77*   wants to handle its own line breaks ((.LBRK+1) in nonzero).
       78*   Usage:
       79*   dcl gtss_break_vector_$status entry() returns (bit(1)unal);
       80*   flag = gtss_break_vector_$status();
       81*   where flag is "1"b iff (.LBRK+1) is nonzero. */
       82
       83 	gseg = gtss_ext_$gtss_slave_area_seg (gtss_ext_$stack_level_);
       84 	lower_limit = bit (binary (100, 18), 18);
       85 	upper_limit = gtss_ust.lsize.limit;
       86 	return (lbrk.tra_addr >= lower_limit & lbrk.tra_addr < upper_limit); /* end of status entry */
       87
       88 
       89 dcl  code fixed bin(35);
       90 dcl  gseg ptr ;
       91 dcl  lower_limit bit(18);
       92 dcl  mcpp ptr parm;
       93 dcl  sp ptr;						/* ptr to current stack frame being searched */
       94 dcl  upper_limit bit(18);
       95 dcl 1 cond_info aligned,
  1     1 	/* BEGIN INCLUDE FILE ... cond_info.incl.pl1
  1     2*	   coded by M. Weaver 12 July 1973 */
  1     3
  1     4 	  2 mcptr ptr,				/* ptr to machine conditions at time of fault */
  1     5 	  2 version fixed bin,			/* version of this structure (now=1) */
  1     6 	  2 condition_name char(32) var,		/* name of condition */
  1     7 	  2 infoptr ptr,				/* ptr to software info structure */
  1     8 	  2 wcptr ptr,				/* ptr to wall crossing machine conditions */
  1     9 	  2 loc_ptr ptr,				/* ptr to location where condition occurred */
  1    10 	  2 flags aligned,
  1    11 	    3 crawlout bit(1) unal,			/* = "1"b if condition occurred in inner ring */
  1    12 	    3 pad1 bit(35) unal,
  1    13 	  2 pad_word bit(36) aligned,
  1    14 	  2 user_loc_ptr ptr,			/* ptr to last non-support loc before condition */
  1    15 	  2 pad (4) bit(36) aligned;
  1    16
  1    17 	/* END INCLUDE FILE ... cond_info.incl.pl1 */
       96
       97 dcl find_condition_frame_ entry(ptr) returns(ptr);
       98 dcl find_condition_info_ entry(ptr,ptr,fixed bin(35));
       99 
  2     1 /* BEGIN INCLUDE FILE gtss_ext_.incl.pl1 */
  2     2 /*
  2     3*  Created: (Wardd Multics)  05/20/78 1307.6 mst Sat
  2     4*  Modified: Ward            1981     add suspended_process dcl
  2     5*  Modified: Ron Barstad  83-07-21  Fixed level number on mcfc to 3
  2     6*  Modified: Ron Barstad  83-07-25  Fixed derail range in statistics to 4js3 number
  2     7**/
  2     8 dcl  gtss_ext_$aem                   fixed bin static ext	/* >0 Print "additional" error information. */;
  2     9 dcl  gtss_ext_$bad_drl_rtrn          static ext label	/* Default for drl_rtrn. */;
  2    10 dcl  gtss_ext_$db                    (72)bit(1)unal static ext;
  2    11 dcl  gtss_ext_$deferred_catalogs_ptr ptr ext;
  2    12 dcl  gtss_ext_$dispose_of_drl        static ext label	/* quit handlers for some derails use this label to abort */;
  2    13 dcl  gtss_ext_$drl_rtrn              (4)static ext label	/* where to return at subsystem end */;
  2    14 dcl  gtss_ext_$drm_path              char(168)static ext	/* gtss_expand_pathname_stores drm_path */;
  2    15 dcl  gtss_ext_$drun_jid              char (5) static ext	/* valid only for DRUN executing under absentee */;
  2    16 dcl  gtss_ext_$event_channel         fixed bin (71) static ext	/* used for DABT signals */;
  2    17 dcl  gtss_ext_$finished              static ext label	/* Return to gtss for normal conclusion. */;
  2    18 dcl  gtss_ext_$gdb_name              char(8)ext	/* Name H* module to debug. */;
  2    19 dcl  gtss_ext_$get_line              entry(ptr,ptr,fixed bin(21),fixed bin(21),fixed bin(35))variable ext /* Build mode input procedure. */;
  2    20 dcl  gtss_ext_$gtss_slave_area_seg   (4) ext static ptr	/* pointer to gtss slave area segment */;
  2    21 dcl  gtss_ext_$hcs_work_area_ptr     ptr ext static		/* Temp seg for acl lists. */;
  2    22 dcl  gtss_ext_$homedir               char (64) static ext /* user's home dir */;
  2    23 dcl  gtss_ext_$last_k_was_out        bit (1)aligned ext static	/* "1"b => last tty output was output. */;
  2    24 dcl  gtss_ext_$pdir                  char (168) varying ext static	/* pathname of process directory */;
  2    25 dcl  gtss_ext_$popup_from_pi         static ext label	/* transfer to this label after pi simulates popup primitive */;
  2    26 dcl  gtss_ext_$process_type          fixed bin (17) static ext;
  2    27 dcl  gtss_ext_$put_chars             entry(ptr,ptr,fixed bin(24),fixed bin(35)) variable ext	/* Terminal output procedure. */;
  2    28 dcl  gtss_ext_$restart_from_pi       static ext label	/* transfer to this label after pi restores machine conditions */;
  2    29 dcl  gtss_ext_$restart_seg_ptr       ptr static ext	/* points to DRUN restart file when exec under absentee */;
  2    30 dcl  gtss_ext_$sig_ptr               ext static ptr	/* saved ptr to signal_ */;
  2    31 dcl  gtss_ext_$stack_level_          fixed bin ext static;
  2    32 dcl  gtss_ext_$suspended_process     bit(1) ext static;
  2    33 dcl  gtss_ext_$SYstarstar_file_no    fixed bin (24) static ext;
  2    34 dcl  gtss_ext_$user_id               char (26)var ext;
  2    35 dcl  gtss_ext_$work_area_ptr         ptr ext;
  2    36
  2    37 dcl  1 gtss_ext_$CFP_bits aligned static external
  2    38      , 3 no_input_yet bit (1) unaligned         /* used in gtss_CFP_input_, gtss_read_starCFP_ */
  2    39      , 3 rtn_bits bit (4) unaligned             /* used in gtss_CFP_input_, gtss_CFP_output_ */
  2    40      , 3 cpos_called bit (1) unaligned          /* used in gtss_CFP_input_, gtss_drl_t_cfio_, gtss_abandon_CFP_ */
  2    41      , 3 cout_called bit (1) unaligned          /* used in gtss_read_starCFP_, gtss_abandon_CFP_ */
  2    42      , 3 build_mode bit (1) unaligned	        /* used in gtss_build_, gtss_dsd_process_ */
  2    43      ;
  2    44
  2    45 dcl 1 gtss_ext_$com_reg aligned static ext,
  2    46        3 tsdmx,
  2    47          4 dst fixed bin (18) unsigned unaligned,
  2    48          4 dit fixed bin (18) unsigned unaligned,
  2    49        3 tsdpt fixed bin (36) unsigned unaligned,
  2    50        3 tsddt fixed bin (36) unsigned unaligned,
  2    51        3 tsdid bit (72) unaligned,
  2    52        3 tsdsd bit (36) unaligned,
  2    53        3 tsdst fixed bin (36) unsigned unaligned,
  2    54        3 tsdjb fixed bin (35) unaligned,
  2    55        3 tsdgt,
  2    56          4 ust_loc fixed bin (18) unsigned unaligned,
  2    57          4 gating_ctl fixed bin (18) unsigned unaligned,
  2    58        3 tcdfr bit (36) unaligned;
  2    59
  2    60 dcl 1 gtss_ext_$flags aligned static ext
  2    61      , 3 dispose_of_drl_on_pi	bit (01) unal	/* 1 => drl that should be aborted after quit-pi sequence */
  2    62      , 3 drl_in_progress	bit (01) unal	/* 1 => drl handler executing; 0 => gcos code executing */
  2    63      , 3 popup_from_pi	bit (01) unal	/* 1 => derail processor will simulate Gcos break instead of returning */
  2    64      , 3 unfinished_drl	bit (01) unal	/* 1 => subsystem is handling breaks and quit was raised during a drl */
  2    65      , 3 ss_time_limit_set	bit (01) unal	/* 1 => exec time limit set for subsystem */
  2    66      , 3 timer_ranout	bit (01) unal	/* 1 => user is executing timer runout code */
  2    67      , 3 gtss_com_err_sw      bit (01) unal       /* 1 => stop com_err_ string from going to terminal */
  2    68      , 3 available		bit (65) unal
  2    69      ;
  2    70
  2    71
  2    72 dcl 1 gtss_ext_$statistics aligned static ext,		/* Derail usage statistics */
  2    73       3 total_time (-10:71)fixed bin (71),
  2    74       3 count (-10:71)fixed bin (17);
  2    75
  2    76 /* 	Declaration of Available File Table
  2    77*   */
  2    78 dcl 1 gtss_ext_$aft aligned ext,			/* aft structure */
  2    79
  2    80       3 start_list (0:102) fixed bin (24),		/* >0 => 1st aft_entry row to start of next entry chain. */
  2    81
  2    82       3 aft_entry (20),
  2    83         4 altname char (8),				/* altname name for attaching this file */
  2    84         4 next_entry fixed bin (24),			/* Next aft_entry in hash chain. */
  2    85         4 previous_add fixed bin (24),			/* Previously added entry. */
  2    86         4 next_add fixed bin (24),			/* Entry added after this one. */
  2    87         4 used bit (1) unal,				/* "1"b => aft_entry contains AFT value. */
  2    88         4 forced bit(1) unal,				/* "1"b => gtss_verify_access_ forced access on this file. */
  2    89
  2    90       3 free_space fixed bin (24),			/* Index of start of free space list for aft entries. */
  2    91       3 first_added fixed bin (24),			/* >0  => start of chain in add order. */
  2    92       3 last_added fixed bin (24)			/* >0 => end of chain in added order. */;
  2    93
  2    94 dcl  gtss_ext_$ppt                   ptr ext /*  switch name for tapein drl */;
  2    95 /**	Data structure to provide access to installed
  2    96*   subsystems fast library load.
  2    97*   **/
  2    98 dcl 1 gtss_ext_$fast_lib aligned ext
  2    99      , 3 fast_lib_fcb ptr				/* Pointer to msf fcb.	*/
  2   100      , 3 fast_lib_ncp fixed bin (24)			/* Number of components. */
  2   101      , 3 comp_ptr (0:9)ptr				/* Pointer to component. */
  2   102      , 3 comp_wds (0:9)fixed bin (24)			/* Component length (words). */
  2   103      ;
  2   104
  2   105 /* Pointers to segments to regulate multipler
  2   106*   callers to files. Same segments are used to regulate
  2   107*   all simulator callers.
  2   108**/
  2   109 dcl 1 gtss_ext_$mcfc	aligned ext,
  2   110       3 multics_lock_id	bit(36),
  2   111       3 wait_time		fixed bin,
  2   112       3 files_ptr		ptr,
  2   113       3 names_ptr		ptr,
  2   114       3 callers_ptr		(0:3)ptr
  2   115 ;
  2   116
  2   117 /*   END INCLUDE FILE gtss_ext_.incl.pl1 */
      100
      101 
  3     1 /* BEGIN INCLUDE FILE gtss_spa.incl.pl1 */
  3     2 /*
  3     3*  Created: (Grimes SMP)  04/15/78
  3     4*   Changed	6/22/78	A. Kepner		add labrt
  3     5*   Changed	6/28/78	D. Ward		lwrap defined (lrap)
  3     6*   Changed	10/16/79  Al Dupuis		lsztm was off by two words.
  3     7*   Changed          84-02-27  Ron Barstad         added hex ir bit
  3     8*   */
  3     9 dcl 1 gtss_spa aligned based (gseg),
  3    10       3 fault_vector (0:9) bit(36),
  3    11       3 lhstr char (8) unal,
  3    12       3 lbrk,
  3    13         4 ic	bit(18) unal,
  3    14         4 ir	bit(18) unal,
  3    15         4 tra_addr	bit(18) unal,
  3    16         4 tra_op	bit(18) unal,
  3    17       3 fill1 (0:1) bit(36),
  3    18       3 lsztm,
  3    19         4 ic_ir,
  3    20 	5 IC	bit(18)unal,
  3    21 	5 IR	bit(16)unal,
  3    22 	5 b34	bit(1)unal,
  3    23 	5 b35	bit(1)unal,
  3    24         4 tra	bit(36)unal,
  3    25       3 losti unal,
  3    26         4 ilc	bit(18) unal,
  3    27         4 ir unal,				/* INDICATOR  REGISTERS */
  3    28 	5 zero	bit(1) unal,			/* zero indicator */
  3    29 	5 neg	bit(1) unal,			/* negative indicator */
  3    30 	5 carry	bit(1) unal,			/* carryry indicator */
  3    31 	5 ovfl	bit(1) unal,			/* overflow indicator */
  3    32 	5 eovf	bit(1) unal,			/* eponent overflow */
  3    33 	5 eufl	bit(1) unal,			/* exponent underflow */
  3    34 	5 oflm	bit(1) unal,			/* overflow mask */
  3    35 	5 tro	bit(1) unal,			/* tally runout */
  3    36 	5 par	bit(1) unal,			/* parity error */
  3    37 	5 parm	bit(1) unal,			/* parity mask */
  3    38 	5 bm	bit(1) unal,			/* ^bar mode */
  3    39 	5 tru	bit(1) unal,			/* truncation mode */
  3    40 	5 mif	bit(1) unal,			/* multi-word instruction mode */
  3    41 	5 abs	bit(1) unal,			/* absolute mode */
  3    42           5 hex     bit(1) unal,                            /* hexadecimalexponent mode */
  3    43 	5 pad	bit(3) unal,
  3    44       3 lnam	bit(36),			/* Library name (bcd). */
  3    45       3 labrt,
  3    46         4 b0_17	bit(18) unal,
  3    47         4 b18_35 fixed bin (17) unal,
  3    48       3 fill2	bit(36),
  3    49       3 lfig	bit(36),
  3    50       3 lwrap,
  3    51 	5 b0_17	bit(1) unal,
  3    52 	5 b18	bit(1) unal,
  3    53 	5 b19	bit(1) unal,
  3    54 	5 b20	bit(1) unal,
  3    55 	5 b21	bit(1) unal,
  3    56 	5 b22	bit(1) unal,
  3    57 	5 b23	bit(1) unal,
  3    58 	5 b24	bit(1) unal,
  3    59 	5 b25	bit(1) unal,
  3    60 	5 b26	bit(1) unal,
  3    61 	5 b27	bit(1) unal,
  3    62 	5 b28	bit(1) unal,
  3    63 	5 b29	bit(1) unal,
  3    64 	5 b30	bit(1) unal,
  3    65 	5 b31	bit(1) unal,
  3    66 	5 b32	bit(1) unal,
  3    67 	5 b33	bit(1) unal,
  3    68 	5 b34	bit(1) unal,
  3    69 	5 b35	bit(1) unal,
  3    70       3 lsid	bit(36),
  3    71       3 lftst	bit(36),
  3    72       3 lpcal (0:3) bit(36),
  3    73       3 lpcnt fixed bin (35) unal,
  3    74       3 lhole,
  3    75         4 high fixed bin (17) unal,
  3    76         4 total fixed bin (17) unal,
  3    77       3 lostr unal,
  3    78         4 regs unal,				/* registers */
  3    79 	5 x (0:7) bit(18) unal,			/* index registers */
  3    80 	5 a	bit(36),			/* accumulator */
  3    81 	5 q	bit(36),			/* q-register */
  3    82 	5 e	bit(8) unal,			/* exponent */
  3    83 	5 pad1	bit(28) unal,
  3    84 	5 t	bit(27) unal,			/* timer register */
  3    85 	5 pad2	bit(6) unal,
  3    86 	5 ralr	bit(3) unal,			/* ring alarm register */
  3    87       3 leisa	(0:7) bit(36),
  3    88       3 leisp	(0:7) bit(36),
  3    89       3 fill3	(0:35) bit(36);
  3    90
  3    91 /*   END INCLUDE FILE gtss_spa.incl.pl1 */
      102
      103 
  4     1 /*  */
  4     2 /* BEGIN INCLUDE FILE  mc.incl.pl1   Created Dec 72 for 6180 - WSS. */
  4     3 /* Modified 06/07/76 by Greenberg for mc.resignal */
  4     4 /* Modified 07/07/76 by Morris for fault register data */
  4     5 /* Modified 08/28/80 by J. A. Bush for the DPS8/70M CVPU */
  4     6 /* Modified '82 to make values constant */
  4     7
  4     8 /* words 0-15 pointer registers */
  4     9
  4    10 dcl  mcp ptr;
  4    11
  4    12 dcl 1 mc based (mcp) aligned,
  4    13     2 prs (0:7) ptr,				/* POINTER  REGISTERS */
  4    14    (2 regs,					/* registers */
  4    15       3 x (0:7) bit (18),				/* index registers */
  4    16       3 a bit (36),					/* accumulator */
  4    17       3 q bit (36),					/* q-register */
  4    18       3 e bit (8),					/* exponent */
  4    19       3 pad1 bit (28),
  4    20       3 t bit (27),					/* timer register */
  4    21       3 pad2 bit (6),
  4    22       3 ralr bit (3),				/* ring alarm register */
  4    23
  4    24     2 scu (0:7) bit (36),
  4    25
  4    26     2 mask bit (72),				/* mem controller mask at time of fault */
  4    27     2 ips_temp bit (36),				/* Temporary storage for IPS info */
  4    28     2 errcode fixed bin (35),				/* fault handler's error code */
  4    29     2 fim_temp,
  4    30       3 unique_index bit (18) unal,			/* unique index for restarting faults */
  4    31       3 resignal bit (1) unal,			/* recompute signal name with fcode below */
  4    32       3 fcode bit (17) unal,				/* fault code used as index to FIM table and SCT */
  4    33     2 fault_reg bit (36),				/* fault register */
  4    34     2 pad2 bit (1),
  4    35     2 cpu_type fixed bin (2) unsigned,			/* L68 = 0, DPS8/70M = 1 */
  4    36     2 ext_fault_reg bit (15),				/* extended fault reg for DPS8/70M CPU */
  4    37     2 fault_time bit (54),				/* time of fault */
  4    38
  4    39     2 eis_info (0:7) bit (36)) unaligned;
  4    40
  4    41
  4    42 dcl (apx fixed bin init (0),
  4    43      abx fixed bin init (1),
  4    44      bpx fixed bin init (2),
  4    45      bbx fixed bin init (3),
  4    46      lpx fixed bin init (4),
  4    47      lbx fixed bin init (5),
  4    48      spx fixed bin init (6),
  4    49      sbx fixed bin init (7)) internal static options (constant);
  4    50
  4    51
  4    52 
  4    53
  4    54 dcl  scup ptr;
  4    55
  4    56 dcl 1 scu based (scup) aligned,			/* SCU DATA */
  4    57
  4    58
  4    59 /*	WORD (0)		*/
  4    60
  4    61    (2 ppr,					/* PROCEDURE POINTER REGISTER */
  4    62       3 prr bit (3),				/* procedure ring register */
  4    63       3 psr bit (15),				/* procedure segment register */
  4    64       3 p bit (1),					/* procedure privileged bit */
  4    65
  4    66     2 apu,					/* APPENDING UNIT STATUS */
  4    67       3 xsf bit (1),				/* ext seg flag - IT modification */
  4    68       3 sdwm bit (1),				/* match in SDW Ass. Mem. */
  4    69       3 sd_on bit (1),				/* SDW Ass. Mem.  ON */
  4    70       3 ptwm bit (1),				/* match in PTW Ass. Mem. */
  4    71       3 pt_on bit (1),				/* PTW Ass. Mem.  ON */
  4    72       3 pi_ap bit (1),				/* Instr Fetch or Append cycle */
  4    73       3 dsptw bit (1),				/* Fetch of DSPTW */
  4    74       3 sdwnp bit (1),				/* Fetch of SDW non paged */
  4    75       3 sdwp bit (1),				/* Fetch of SDW paged */
  4    76       3 ptw bit (1),				/* Fetch of PTW */
  4    77       3 ptw2 bit (1),				/* Fetch of pre-paged PTW */
  4    78       3 fap bit (1),				/* Fetch of final address paged */
  4    79       3 fanp bit (1),				/* Fetch of final address non-paged */
  4    80       3 fabs bit (1),				/* Fetch of final address absolute */
  4    81
  4    82     2 fault_cntr bit (3),				/* number of retrys of EIS instructions */
  4    83
  4    84
  4    85 /*	WORD (1)		*/
  4    86
  4    87     2 fd,						/* FAULT  DATA */
  4    88       3 iro bit (1),				/* illegal ring order */
  4    89       3 oeb bit (1),				/* out of execute bracket */
  4    90       3 e_off bit (1),				/* no execute */
  4    91       3 orb bit (1),				/* out of read bracket */
  4    92       3 r_off bit (1),				/* no read */
  4    93       3 owb bit (1),				/* out of write bracket */
  4    94       3 w_off bit (1),				/* no write */
  4    95       3 no_ga bit (1),				/* not a gate */
  4    96       3 ocb bit (1),				/* out of call bracket */
  4    97       3 ocall bit (1),				/* outward call */
  4    98       3 boc bit (1),				/* bad outward call */
  4    99       3 inret bit (1),				/* inward return */
  4   100       3 crt bit (1),				/* cross ring transfer */
  4   101       3 ralr bit (1),				/* ring alarm register */
  4   102       3 am_er bit (1),				/* associative memory fault */
  4   103       3 oosb bit (1),				/* out of segment bounds */
  4   104       3 paru bit (1),				/* processor parity upper */
  4   105       3 parl bit (1),				/* processor parity lower */
  4   106       3 onc_1 bit (1),				/* op not complete type 1 */
  4   107       3 onc_2 bit (1),				/* op not complete type 2 */
  4   108
  4   109     2 port_stat,					/* PORT  STATUS */
  4   110       3 ial bit (4),				/* illegal action lines */
  4   111       3 iac bit (3),				/* illegal action channel */
  4   112       3 con_chan bit (3),				/* connect channel */
  4   113
  4   114     2 fi_num bit (5),				/* (fault/interrupt)  number */
  4   115     2 fi_flag bit (1),				/*  1 => fault,  0 => interrupt  */
  4   116
  4   117
  4   118 /*	WORD (2)		*/
  4   119
  4   120     2 tpr,					/* TEMPORARY POINTER REGISTER */
  4   121       3 trr bit (3),				/* temporary ring register */
  4   122       3 tsr bit (15),				/* temporary segment register */
  4   123
  4   124     2 pad2 bit (9),
  4   125
  4   126     2 cpu_no bit (3),				/* CPU number */
  4   127
  4   128     2 delta bit (6),				/* tally modification DELTA */
  4   129
  4   130
  4   131 /*	WORD (3)		*/
  4   132
  4   133     2 word3 bit (18),
  4   134
  4   135     2 tsr_stat,					/* TSR STATUS for 1,2,&3 word instructions */
  4   136       3 tsna,					/* Word 1 status */
  4   137         4 prn bit (3),				/* Word 1  PR  number */
  4   138         4 prv bit (1),				/* Word 1  PR  valid bit */
  4   139       3 tsnb,					/* Word 2  status */
  4   140         4 prn bit (3),				/* Word 2  PR  number */
  4   141         4 prv bit (1),				/* Word 2  PR  valid bit */
  4   142       3 tsnc,					/* Word 3  status */
  4   143         4 prn bit (3),				/* Word 3  PR  number */
  4   144         4 prv bit (1),				/* Word 3  PR  valid bit */
  4   145
  4   146     2 tpr_tbr bit (6),				/* TPR.TBR  field */
  4   147
  4   148
  4   149 /* 	WORD (4)		*/
  4   150
  4   151     2 ilc bit (18),					/* INSTRUCTION  COUNTER */
  4   152
  4   153     2 ir,						/* INDICATOR  REGISTERS */
  4   154       3 zero bit (1),				/* zero indicator */
  4   155       3 neg bit (1),				/* negative indicator */
  4   156       3 carry bit (1),				/* carryry indicator */
  4   157       3 ovfl bit (1),				/* overflow indicator */
  4   158       3 eovf bit (1),				/* eponent overflow */
  4   159       3 eufl bit (1),				/* exponent underflow */
  4   160       3 oflm bit (1),				/* overflow mask */
  4   161       3 tro bit (1),				/* tally runout */
  4   162       3 par bit (1),				/* parity error */
  4   163       3 parm bit (1),				/* parity mask */
  4   164       3 bm bit (1),					/* ^bar mode */
  4   165       3 tru bit (1),				/* truncation mode */
  4   166       3 mif bit (1),				/* multi-word instruction mode */
  4   167       3 abs bit (1),				/* absolute mode */
  4   168       3 hex bit (1),				/* hexadecimal exponent mode */
  4   169       3 pad bit (3),
  4   170
  4   171
  4   172 /*	WORD (5)		*/
  4   173
  4   174     2 ca bit (18),					/* COMPUTED  ADDRESS */
  4   175
  4   176     2 cu,						/* CONTROL UNIT STATUS */
  4   177       3 rf bit (1),					/* on first cycle of repeat instr */
  4   178       3 rpt bit (1),				/* repeat instruction */
  4   179       3 rd bit (1),					/* repeat double instruction */
  4   180       3 rl bit (1),					/* repeat link instruciton */
  4   181       3 pot bit (1),				/* IT  modification */
  4   182       3 pon bit (1),				/* return type instruction */
  4   183       3 xde bit (1),				/* XDE from Even location */
  4   184       3 xdo bit (1),				/* XDE from Odd  location */
  4   185       3 poa bit (1),				/* operation preparation */
  4   186       3 rfi bit (1),				/* tells CPU to refetch instruction */
  4   187       3 its bit (1),				/* ITS modification */
  4   188       3 if bit (1),					/* fault occured during instruction fetch */
  4   189
  4   190     2 cpu_tag bit (6)) unaligned,			/* computed tag field */
  4   191
  4   192
  4   193 /*	WORDS (6,7)	*/
  4   194
  4   195     2 even_inst bit (36),				/* even instruction of faulting pair */
  4   196
  4   197     2 odd_inst bit (36);				/* odd  instruction of faulting pair */
  4   198
  4   199
  4   200
  4   201
  4   202
  4   203
  4   204 /*	ALTERNATE   SCU  DECLARATION		*/
  4   205
  4   206
  4   207 dcl 1 scux based (scup) aligned,
  4   208
  4   209    (2 pad0 bit (36),
  4   210
  4   211     2 fd,						/* GROUP II  FAULT DATA */
  4   212       3 isn bit (1),				/* illegal segment number */
  4   213       3 ioc bit (1),				/* illegal op  code  */
  4   214       3 ia_am bit (1),				/* illegal address - modifier */
  4   215       3 isp bit (1),				/* illegal slave  procedure */
  4   216       3 ipr bit (1),				/* illegal procedure */
  4   217       3 nea bit (1),				/* non existent address */
  4   218       3 oobb bit (1),				/* out of bounds */
  4   219       3 pad bit (29),
  4   220
  4   221     2 pad2 bit (36),
  4   222
  4   223     2 pad3a bit (18),
  4   224
  4   225     2 tsr_stat (0:2),				/* TSR  STATUS  as an  ARRAY */
  4   226       3 prn bit (3),				/* PR  number */
  4   227       3 prv bit (1),				/* PR  valid bit */
  4   228
  4   229     2 pad3b bit (6)) unaligned,
  4   230
  4   231     2 pad45 (0:1) bit (36),
  4   232
  4   233     2 instr (0:1) bit (36);				/* Instruction ARRAY */
  4   234
  4   235
  4   236
  4   237 /*  END INCLUDE FILE   mc.incl.pl1 */
      104
      105 
  5     1 /* BEGIN INCLUDE FILE gtss_ust_ext_.incl.pl1 */
  5     2 /* UST: User Status Table
  5     3*   definitions based on
  5     4*   System Tables, Order number DD14-01E, January 1981
  5     5*   Section 15, Time Sharing System
  5     6*
  5     7*   Authors: Robert J. Grimes	Created
  5     8*   -	  Albert N. Kepner	  1978
  5     9*   -	  Robert M. May
  5    10*   -	  David B. Ward
  5    11*   Change:  Dave Ward	02/23/79 Level 4 numbering.
  5    12*   Change:  Ron Barstad  83-07-12 Repaired damaged formating and word offset comments
  5    13*                                  Brought up to 4JS3 functionality
  5    14**/
  5    15 /* octal word offsets of entries */
  5    16 dcl 1 gtss_ust_ext_$ust aligned ext,
  5    17       3 gtss_ust,
  5    18 /* 0-1  */	4 lid		bit (72),
  5    19 /* 2    */	4 lstp		bit (36),
  5    20 /* 3    */	4 ltin		bit (36),
  5    21 /* 4    */	4 lstio,
  5    22 			5 no_of_chars_by_8  fixed bin (18) uns unal,
  5    23 			5 no_of_disk_io     fixed bin (18) uns unal,
  5    24 /* 5    */	4 lsnub		bit (36),
  5    25 /* 6-7  */	4 lchg		bit (72),
  5    26 /* 10   */	4 lbuf,
  5    27 			5 address		bit (18)unaligned,
  5    28 			5 tally		bit (1)unaligned,
  5    29 			5 terminal_type	bit (5)unaligned,
  5    30 			5 station_id	bit (12)unaligned,
  5    31 /* 11-12 */	4 liost (0:1)	bit (36),
  5    32 /* 13   */	4 lcc		bit (36),
  5    33 /* 14   */	4 lback,
  5    34 			5 fill1		bit (18) unaligned,
  5    35 			5 gwake		fixed bin (17) unaligned,
  5    36 /* 15   */	4 lflag,
  5    37 			5 mp_list		bit (18) unaligned,
  5    38 			5 flags unaligned,
  5    39 				6 b18		bit (1) unaligned,
  5    40 				6 b19		bit (1) unaligned,
  5    41 				6 b20		bit (1) unaligned,
  5    42 				6 b21		bit (1) unaligned,
  5    43 				6 b22		bit (1) unaligned,
  5    44 				6 b23		bit (1) unaligned,
  5    45 				6 b24		bit (1) unaligned,
  5    46 				6 b25		bit (1) unaligned,
  5    47 				6 b26		bit (1) unaligned,
  5    48 				6 b27		bit (1) unaligned,
  5    49 				6 b28		bit (1) unaligned,
  5    50 				6 b29		bit (1) unaligned,
  5    51 				6 b30		bit (1) unaligned,
  5    52 				6 b31		bit (1) unaligned,
  5    53 				6 b32		bit (1) unaligned,
  5    54 				6 b33		bit (1) unaligned,
  5    55 				6 b34		bit (1) unaligned,
  5    56 				6 b35		bit (1) unaligned,
  5    57 /* 16   */	4 lkdss		bit (36),
  5    58 /* 17   */	4 lfile,
  5    59 			5 program_stack	fixed bin (17) unal,
  5    60 			5 file_list_ptr	bit (18) unal,
  5    61 /* 20   */	4 lttys		bit (36),
  5    62 /* 21   */	4 lswth,
  5    63 			5 b0		bit (1) unaligned,
  5    64 			5 b1		bit (1) unaligned,
  5    65 			5 b2		bit (1) unaligned,
  5    66 			5 b3		bit (1) unaligned,
  5    67 			5 b4		bit (1) unaligned,
  5    68 			5 b5		bit (1) unaligned,
  5    69 			5 b6		bit (1) unaligned,
  5    70 			5 b7		bit (1) unaligned,
  5    71 			5 b8		bit (1) unaligned,
  5    72 			5 b9		bit (1) unaligned,
  5    73 			5 b10		bit (1) unaligned,
  5    74 			5 b11		bit (1) unaligned,
  5    75 			5 b12		bit (1) unaligned,
  5    76 			5 b13		bit (1) unaligned,
  5    77 			5 b14		bit (1) unaligned,
  5    78 			5 b15		bit (1) unaligned,
  5    79 			5 b16		bit (1) unaligned,
  5    80 			5 b17		bit (1) unaligned,
  5    81 			5 b18		bit (1) unaligned,
  5    82 			5 b19		bit (1) unaligned,
  5    83 			5 b20		bit (1) unaligned,
  5    84 			5 b21		bit (1) unaligned,
  5    85 			5 b22		bit (1) unaligned,
  5    86 			5 b23		bit (1) unaligned,
  5    87 			5 b24		bit (1) unaligned,
  5    88 			5 b25		bit (1) unaligned,
  5    89 			5 b26		bit (1) unaligned,
  5    90 			5 b27		bit (1) unaligned,
  5    91 			5 b28		bit (1) unaligned,
  5    92 			5 b29		bit (1) unaligned,
  5    93 			5 b30		bit (1) unaligned,
  5    94 			5 b31		bit (1) unaligned,
  5    95 			5 b32		bit (1) unaligned,
  5    96 			5 b33		bit (1) unaligned,
  5    97 			5 b34		bit (1) unaligned,
  5    98 			5 b35		bit (1) unaligned,
  5    99 /* 22   */	4 lsize,
  5   100 			5 bar		fixed bin (17) unaligned,
  5   101 			5 limit		bit (18) unaligned,
  5   102 /* 23... */	4 lswap,
  5   103 			5 fill		bit (18) unal,
  5   104 			5 size		bit (18) unal,
  5   105 /* ...24 */	4 transfer_cell	bit (36) unal,
  5   106 /* 25   */	4 lerrm		bit (36),
  5   107 /* 26-37 */	4 lcfil (0:9)	bit (36),
  5   108 /* 40   */	4 lsybc,
  5   109 			5 b0_17		fixed bin (17) unaligned,
  5   110 			5 b18_35		fixed bin (17) unaligned,
  5   111 /* 41-42 */	4 lstem (0:1)	bit (36),
  5   112 /* 43    */	4 lcals,
  5   113 			5 b0_17		fixed bin (17) unaligned,
  5   114 			5 b18_35		bit (18) unaligned,
  5   115 /* 44-51 */	4 subsystems (3),
  5   116 			5 content_lswap,
  5   117 				6 fill		bit (18) unal,
  5   118 				6 size		bit (18) unal,
  5   119 			5 tally_address	fixed bin (17) unaligned,
  5   120 			5 ss_flags	bit (18) unaligned,
  5   121 /* 52   */	4 ltalc,
  5   122 			5 tod		fixed bin (17) unaligned,
  5   123 			5 startup		fixed bin (17) unaligned,
  5   124 /* 53   */	4 lspts		fixed bin (35),
  5   125 /* 54   */	4 lflg2,
  5   126 			5 b0		bit (1) unaligned,
  5   127 			5 b1		bit (1) unaligned,
  5   128 			5 b2		bit (1) unaligned,
  5   129 			5 b3		bit (1) unaligned,
  5   130 			5 b4		bit (1) unaligned,
  5   131 			5 b5		bit (1) unaligned,
  5   132 			5 b6		bit (1) unaligned,
  5   133 			5 b7		bit (1) unaligned,
  5   134 			5 b8		bit (1) unaligned,
  5   135 			5 b9		bit (1) unaligned,
  5   136 			5 b10		bit (1) unaligned,
  5   137 			5 b11		bit (1) unaligned,
  5   138 			5 b12		bit (1) unaligned,
  5   139 			5 b13		bit (1) unaligned,
  5   140 			5 b14		bit (1) unaligned,
  5   141 			5 b15		bit (1) unaligned,
  5   142 			5 b16		bit (1) unaligned,
  5   143 			5 b17		bit (1) unaligned,
  5   144 			5 b18		bit (1) unaligned,
  5   145 			5 b19		bit (1) unaligned,
  5   146 			5 b20		bit (1) unaligned,
  5   147 			5 b21		bit (1) unaligned,
  5   148 			5 b22		bit (1) unaligned,
  5   149 			5 b23		bit (1) unaligned,
  5   150 			5 b24		bit (1) unaligned,
  5   151 			5 b25		bit (1) unaligned,
  5   152 			5 b26		bit (1) unaligned,
  5   153 			5 b27		bit (1) unaligned,
  5   154 			5 b28		bit (1) unaligned,
  5   155 			5 b29		bit (1) unaligned,
  5   156 			5 b30		bit (1) unaligned,
  5   157 			5 b31		bit (1) unaligned,
  5   158 			5 b32		bit (1) unaligned,
  5   159 			5 b33		bit (1) unaligned,
  5   160 			5 b34		bit (1) unaligned,
  5   161 			5 b35		bit (1) unaligned,
  5   162 /* 55-60 */	4 lsftm (0:3)	bit (36),
  5   163 /* 61    */	4 lsprt		fixed bin (35),
  5   164 /* 62    */	4 ltrm		bit (36),
  5   165 /* 63    */	4 linno		fixed bin (35),
  5   166 /* 64    */	4 lincr		fixed bin (35),
  5   167 /* 65    */	4 ltdes		bit (36),
  5   168 /* 66    */	4 lbptr		bit (36),
  5   169 /* 67    */	4 lpptr,
  5   170 			5 last_file_pat_ptr	bin (18) uns unal,
  5   171 			5 lpptr_reserved	bin (18) uns unal,
  5   172 /* 70    */	4 lsclp		bit (36),
  5   173 /* 71    */	4 limit		fixed bin (35),
  5   174 /* 72    */	4 lacpt,
  5   175 			5 jout_pat_offset	bit (18) unal,
  5   176 			5 permissions unal,
  5   177 				6 lodx		bit (1) unal,
  5   178 				6 cardin		bit (1) unal,
  5   179 				6 talk		bit (1) unal,
  5   180 				6 lods		bit (1) unal,
  5   181 			5 cardin_urgency	bit (14) unal,
  5   182 /* 73    */	4 ldrl,
  5   183 			5 ilc		bit (18) unaligned,
  5   184 			5 code		fixed bin (17) unaligned,
  5   185 /* 74    */	4 ljsnb		bit (36),
  5   186 /* 75    */	4 ltm0		bit (36),
  5   187 /* 76    */	4 ltm1		bit (36),
  5   188 /* 77    */	4 ltm2		bit (36),
  5   189 /* 100   */	4 ltm3		bit (36),
  5   190 /* 101   */	4 ltm4		bit (36),
  5   191 /* 102   */	4 ltm5		bit (36),
  5   192 /* 103   */	4 ltmwt		bit (36),
  5   193 /* 104   */	4 ltmrs		bit (36),
  5   194 /* 105   */	4 ltc0		bit (36),
  5   195 /* 106   */	4 ltc1		bit (36),
  5   196 /* 107   */	4 ltc2		bit (36),
  5   197 /* 110   */	4 lct3		bit (36),
  5   198 /* 111   */	4 ltc4		bit (36),
  5   199 /* 112   */	4 ltc5		bit (36),
  5   200 /* 113   */	4 ltcw		bit (36),
  5   201 /* 114   */	4 lkst		bit (36),
  5   202 /* 115   */	4 lkst2		bit (36),
  5   203 /* 116   */	4 lkcc		bit (36),
  5   204 /* 117   */	4 lkms		bit (36),
  5   205 /* 120-121 */	4 lksdc (0:1)	bit (36),
  5   206 /* 122   */	4 lkntp		bit (36),
  5   207 /* 123   */	4 lkrdc		bit (36),
  5   208 /* 124   */	4 lpqf		bit (36),
  5   209 /* 125   */	4 lpqb		bit (36),
  5   210 /* 126   */	4 lustl		bit (36),
  5   211 /* 127   */	4 ltemp		bit (36),
  5   212 /* 130   */	4 lrtll,
  5   213 			5 word_length	fixed bin unaligned,
  5   214 			5 char_length	fixed bin unaligned,
  5   215 /* 131   */	4 ltim		bit (36),
  5   216 /* 132   */	4 lcfio,
  5   217 			5 sect_out	fixed bin(18)unsigned unal,
  5   218 			5 sect_in		fixed bin(18)unsigned unal,
  5   219 /* 133   */	4 lcfst,
  5   220 			5 initial_sect_out	fixed bin(18)unsigned unal,
  5   221 			5 start_term	fixed bin(18)unsigned unal,
  5   222 /* 134   */	4 lcmpt		bit (36),
  5   223 /* 135   */	4 lcjid		bit (36),
  5   224 /* 136-137 */	4 lrcal (0:1)	bit (36),
  5   225 /* 140   */	4 lrdta		bit (36),
  5   226 /* 141   */	4 lrrsk		bit (36),
  5   227 /* 142   */	4 lrskd		bit (36),
  5   228 /* 143   */	4 lrcc		bit (36),
  5   229 /* 144-145 */	4 lrsts (0:1)	bit (36),
  5   230 /* 146   */	4 lrtm		bit (36),
  5   231 /* 147   */	4 lswt2,
  5   232 			5 b0		bit (1) unaligned,
  5   233 			5 b1		bit (1) unaligned,
  5   234 			5 b2		bit (1) unaligned,
  5   235 			5 b3		bit (1) unaligned,
  5   236 			5 b4		bit (1) unaligned,
  5   237 			5 b5		bit (1) unaligned,
  5   238 			5 b6		bit (1) unaligned,
  5   239 			5 b7		bit (1) unaligned,
  5   240 			5 b8		bit (1) unaligned,
  5   241 			5 b9		bit (1) unaligned,
  5   242 			5 b10		bit (1) unaligned,
  5   243 			5 b11		bit (1) unaligned,
  5   244 			5 b12		bit (1) unaligned,
  5   245 			5 b13		bit (1) unaligned,
  5   246 			5 b14		bit (1) unaligned,
  5   247 			5 b15		bit (1) unaligned,
  5   248 			5 b16		bit (1) unaligned,
  5   249 			5 b17		bit (1) unaligned,
  5   250 			5 b18		bit (1) unaligned,
  5   251 			5 b19		bit (1) unaligned,
  5   252 			5 b20		bit (1) unaligned,
  5   253 			5 b21		bit (1) unaligned,
  5   254 			5 b22		bit (1) unaligned,
  5   255 			5 b23		bit (1) unaligned,
  5   256 			5 b24		bit (1) unaligned,
  5   257 			5 b25		bit (1) unaligned,
  5   258 			5 b26		bit (1) unaligned,
  5   259 			5 b27		bit (1) unaligned,
  5   260 			5 b28		bit (1) unaligned,
  5   261 			5 b29		bit (1) unaligned,
  5   262 			5 b30		bit (1) unaligned,
  5   263 			5 b31		bit (1) unaligned,
  5   264 			5 b32		bit (1) unaligned,
  5   265 			5 b33		bit (1) unaligned,
  5   266 			5 b34		bit (1) unaligned,
  5   267 			5 b35		bit (1) unaligned,
  5   268 /* 150   */	4 llsnb		bit (36),
  5   269 /* 151   */	4 lesq		bit (36),
  5   270 /* 152-153 */	4 lumc (0:1)	bit (36),
  5   271 /* 154-155 */	4 lfnam (0:1)	bit (36),
  5   272 /* 156   */	4 lopts		bit (36),
  5   273 /* 157   */	4 licec,
  5   274 			5 b0_17		bit (18) unaligned,
  5   275 			5 b18_35		fixed bin (17) unaligned,
  5   276 /* 160   */	4 lflg3,
  5   277 			5 b0		bit (1) unaligned,
  5   278 			5 b1		bit (1) unaligned,
  5   279 			5 b2		bit (1) unaligned,
  5   280 			5 b3		bit (1) unaligned,
  5   281 			5 b4		bit (1) unaligned,
  5   282 			5 b5		bit (1) unaligned,
  5   283 			5 b6		bit (1) unaligned,
  5   284 			5 b7		bit (1) unaligned,
  5   285 			5 b8		bit (1) unaligned,
  5   286 			5 b9		bit (1) unaligned,
  5   287 			5 b10		bit (1) unaligned,
  5   288 			5 b11		bit (1) unaligned,
  5   289 			5 b12		bit (1) unaligned,
  5   290 			5 b13		bit (1) unaligned,
  5   291 			5 b14		bit (1) unaligned,
  5   292 			5 b15		bit (1) unaligned,
  5   293 			5 b16		bit (1) unaligned,
  5   294 			5 b17		bit (1) unaligned,
  5   295 			5 b18		bit (1) unaligned,
  5   296 			5 b19		bit (1) unaligned,
  5   297 			5 b20		bit (1) unaligned,
  5   298 			5 b21		bit (1) unaligned,
  5   299 			5 b22		bit (1) unaligned,
  5   300 			5 b23		bit (1) unaligned,
  5   301 			5 b24		bit (1) unaligned,
  5   302 			5 b25		bit (1) unaligned,
  5   303 			5 b26		bit (1) unaligned,
  5   304 			5 b27		bit (1) unaligned,
  5   305 			5 b28		bit (1) unaligned,
  5   306 			5 b29		bit (1) unaligned,
  5   307 			5 b30		bit (1) unaligned,
  5   308 			5 b31		bit (1) unaligned,
  5   309 			5 b32		bit (1) unaligned,
  5   310 			5 b33		bit (1) unaligned,
  5   311 			5 b34		bit (1) unaligned,
  5   312 			5 b35		bit (1) unaligned,
  5   313 /* 161-163 */	4 lpage (0:2)	bit (36),
  5   314 /* 164   */	4 lsit1		bit (36),
  5   315 /* 165   */	4 lsit2		bit (36),
  5   316 /* 166   */	4 lsit3		bit (36),
  5   317 /* 167   */	4 lsit4		bit (36),
  5   318 /* The following entries are maintained by gtss and are not found in TSS UST */
  5   319 /* 170   */	4 lxxx, /* program stack index, offset from gtss_ust */
  5   320 			5 b0_17		fixed bin (17) unaligned,
  5   321 			5 b18_35		bit (18) unaligned, /* not used */
  5   322 /* 171-175 */	4 lprgs (5),
  5   323 			5 b0_17		fixed bin (17) unaligned,
  5   324 			5 b18_35		fixed bin (17) unaligned,
  5   325 /* 176   */	4 fill	bit (36),
  5   326 /* 177   */	4 remote_io_buffer aligned,
  5   327 			5 buffer_control_word,
  5   328 				6 current_line_pointer  bit (18)unal,
  5   329 				6 buffer_threshold_address  bit (18)unal,
  5   330 			5 number_words_transmitted	fixed bin (17)unal,
  5   331 			5 FILL1			fixed bin (17)unal,
  5   332 			5 count_of_characters_transmitted fixed bin (17)unal,
  5   333 			5 FILL2			fixed bin (17)unal,
  5   334 			5 characters_transmitted (244) char (1) unal,
  5   335 /* 277   */	4 word_after_ust		bit (36) aligned;
  5   336
  5   337 /*   END INCLUDE FILE gtss_ust_ext_.incl.pl1 */
      106
      107      end gtss_break_vector_;
	SOURCE FILES USED IN THIS COMPILATION.

LINE      NUMBER  DATE MODIFIED     NAME			PATHNAME
             0    12/10/84  1028.8  gtss_break_vector_.pl1            >spec>on>7105>gtss_break_vector_.pl1
96           1    05/06/74  1741.0  cond_info.incl.pl1                >ldd>include>cond_info.incl.pl1
100          2    09/09/83  1713.8  gtss_ext_.incl.pl1                >ldd>include>gtss_ext_.incl.pl1
102          3    12/10/84  1029.8  gtss_spa.incl.pl1                 >spec>on>7105>gtss_spa.incl.pl1
104          4    12/15/83  1100.4  mc.incl.pl1                       >ldd>include>mc.incl.pl1
106          5    09/09/83  1714.3  gtss_ust_ext_.incl.pl1            >ldd>include>gtss_ust_ext_.incl.pl1
	NAMES DECLARED IN THIS COMPILATION.

IDENTIFIER	     OFFSET    LOC STORAGE CLASS   DATA TYPE		ATTRIBUTES AND REFERENCES
								(* indicates a set context)

NAMES DECLARED BY DECLARE STATEMENT.
code                            000100 automatic       fixed bin(35,0)          dcl 89 set ref 34* 60*
cond_info                       000112 automatic       structure                level 1 dcl 95 set ref 34 34 60 60
condition_name            3     000112 automatic       varying char(32)         level 2 dcl 95 set ref 35 35 61
find_condition_frame_           000010 constant        entry                    external dcl 97 ref 32 47 58 69
find_condition_info_            000012 constant        entry                    external dcl 98 ref 34 60
gseg                            000102 automatic       pointer                  dcl 90 set ref 41* 42 43 44 83* 86 86
gtss_ext_$gtss_slave_area_seg   000014 external static pointer                  array dcl 2-20 ref 38 41 64 83
gtss_ext_$stack_level_          000016 external static fixed bin(17,0)          dcl 2-31 ref 38 41 64 83
gtss_spa                               based           structure                level 1 dcl 3-9
gtss_ust                        000020 external static structure                level 2 dcl 5-16
gtss_ust_ext_$ust               000020 external static structure                level 1 dcl 5-16
ic                       14            based           bit(18)                  level 3 packed unaligned dcl 3-9 set ref 42*
ilc                       4            based           bit(18)                  level 2 packed unaligned dcl 4-56 set ref 42 44*
ir                        4(18)        based           structure                level 2 in structure "scu" packed unaligned dcl 4-56
                                                                                  in procedure "gtss_break_vector_" ref 43
ir                       14(18)        based           bit(18)                  level 3 in structure "gtss_spa" packed unaligned
                                                                                  dcl 3-9 in procedure "gtss_break_vector_" set ref
                                                                                  43*
lbrk                     14            based           structure                level 2 dcl 3-9
limit                    22(18) 000020 external static bit(18)                  level 4 packed unaligned dcl 5-16 ref 85
lower_limit                     000104 automatic       bit(18)                  unaligned dcl 91 set ref 84* 86
lsize                    22     000020 external static structure                level 3 dcl 5-16
mc                                     based           structure                level 1 dcl 4-12
mcp                             000144 automatic       pointer                  dcl 4-10 set ref 40*
mcpp                                   parameter       pointer                  dcl 92 ref 14
mcptr                           000112 automatic       pointer                  level 2 dcl 95 set ref 37 40 63
ppr                                    based           structure                level 2 packed unaligned dcl 4-56
psr                       0(03)        based           bit(15)                  level 3 packed unaligned dcl 4-56 ref 38 64
scu                                    based           structure                level 1 dcl 4-56 in procedure "gtss_break_vector_"
scu                      30            based           bit(36)                  array level 2 in structure "mc" packed unaligned
                                                                                  dcl 4-12 in procedure "gtss_break_vector_" set ref
                                                                                  37 63
scup                            000146 automatic       pointer                  dcl 4-54 set ref 37* 38 42 43 44 63* 64
sp                              000106 automatic       pointer                  dcl 93 set ref 32* 33 34* 47* 47* 58* 59 60* 69* 69*
tra_addr                 15            based           bit(18)                  level 3 packed unaligned dcl 3-9 ref 44 86 86
upper_limit                     000110 automatic       bit(18)                  unaligned dcl 94 set ref 85* 86

NAMES DECLARED BY DECLARE STATEMENT AND NEVER REFERENCED.
abx                                    internal static fixed bin(17,0)          initial dcl 4-42
apx                                    internal static fixed bin(17,0)          initial dcl 4-42
bbx                                    internal static fixed bin(17,0)          initial dcl 4-42
bpx                                    internal static fixed bin(17,0)          initial dcl 4-42
gtss_ext_$CFP_bits                     external static structure                level 1 dcl 2-37
gtss_ext_$SYstarstar_file_no           external static fixed bin(24,0)          dcl 2-33
gtss_ext_$aem                          external static fixed bin(17,0)          dcl 2-8
gtss_ext_$aft                          external static structure                level 1 dcl 2-78
gtss_ext_$bad_drl_rtrn                 external static label variable           dcl 2-9
gtss_ext_$com_reg                      external static structure                level 1 dcl 2-45
gtss_ext_$db                           external static bit(1)                   array unaligned dcl 2-10
gtss_ext_$deferred_catalogs_ptr        external static pointer                  dcl 2-11
gtss_ext_$dispose_of_drl               external static label variable           dcl 2-12
gtss_ext_$drl_rtrn                     external static label variable           array dcl 2-13
gtss_ext_$drm_path                     external static char(168)                unaligned dcl 2-14
gtss_ext_$drun_jid                     external static char(5)                  unaligned dcl 2-15
gtss_ext_$event_channel                external static fixed bin(71,0)          dcl 2-16
gtss_ext_$fast_lib                     external static structure                level 1 dcl 2-98
gtss_ext_$finished                     external static label variable           dcl 2-17
gtss_ext_$flags                        external static structure                level 1 dcl 2-60
gtss_ext_$gdb_name                     external static char(8)                  unaligned dcl 2-18
gtss_ext_$get_line                     external static entry variable           dcl 2-19
gtss_ext_$hcs_work_area_ptr            external static pointer                  dcl 2-21
gtss_ext_$homedir                      external static char(64)                 unaligned dcl 2-22
gtss_ext_$last_k_was_out               external static bit(1)                   dcl 2-23
gtss_ext_$mcfc                         external static structure                level 1 dcl 2-109
gtss_ext_$pdir                         external static varying char(168)        dcl 2-24
gtss_ext_$popup_from_pi                external static label variable           dcl 2-25
gtss_ext_$ppt                          external static pointer                  dcl 2-94
gtss_ext_$process_type                 external static fixed bin(17,0)          dcl 2-26
gtss_ext_$put_chars                    external static entry variable           dcl 2-27
gtss_ext_$restart_from_pi              external static label variable           dcl 2-28
gtss_ext_$restart_seg_ptr              external static pointer                  dcl 2-29
gtss_ext_$sig_ptr                      external static pointer                  dcl 2-30
gtss_ext_$statistics                   external static structure                level 1 dcl 2-72
gtss_ext_$suspended_process            external static bit(1)                   unaligned dcl 2-32
gtss_ext_$user_id                      external static varying char(26)         dcl 2-34
gtss_ext_$work_area_ptr                external static pointer                  dcl 2-35
lbx                                    internal static fixed bin(17,0)          initial dcl 4-42
lpx                                    internal static fixed bin(17,0)          initial dcl 4-42
sbx                                    internal static fixed bin(17,0)          initial dcl 4-42
scux                                   based           structure                level 1 dcl 4-207
spx                                    internal static fixed bin(17,0)          initial dcl 4-42

NAMES DECLARED BY EXPLICIT CONTEXT.
drl_in_progress                 000156 constant        entry                    external dcl 52
gtss_break_vector_              000021 constant        entry                    external dcl 14
status                          000313 constant        entry                    external dcl 74

NAMES DECLARED BY CONTEXT OR IMPLICATION.
addr                                                   builtin function         ref 34 34 37 60 60 63
baseno                                                 builtin function         ref 38 64
binary                                                 builtin function         ref 84
bit                                                    builtin function         ref 84
null                                                   builtin function         ref 32 32 33 58 58 59
string                                                 builtin function         ref 43
substr                                                 builtin function         ref 38 64

STORAGE REQUIREMENTS FOR THIS PROGRAM.

	Object	Text	Link	Symbol	Defs	Static
Start          0       0       506         530     367         516
Length      1004     367        22         240     116           0

BLOCK NAME	         STACK SIZE     TYPE		WHY NONQUICK/WHO SHARES STACK FRAME
gtss_break_vector_                  123 external procedure  is an external procedure.

STORAGE FOR AUTOMATIC VARIABLES.

STACK FRAME                 LOC IDENTIFIER                  BLOCK NAME
gtss_break_vector_       000100 code                        gtss_break_vector_
                         000102 gseg                        gtss_break_vector_
                         000104 lower_limit                 gtss_break_vector_
                         000106 sp                          gtss_break_vector_
                         000110 upper_limit                 gtss_break_vector_
                         000112 cond_info                   gtss_break_vector_
                         000144 mcp                         gtss_break_vector_
                         000146 scup                        gtss_break_vector_

THE FOLLOWING EXTERNAL OPERATORS ARE USED BY THIS PROGRAM.
r_l_s               r_ge_s              call_ext_out        return              signal              ext_entry

THE FOLLOWING EXTERNAL ENTRIES ARE CALLED BY THIS PROGRAM.
find_condition_frame_         find_condition_info_

THE FOLLOWING EXTERNAL VARIABLES ARE USED BY THIS PROGRAM.
gtss_ext_$gtss_slave_area_seg gtss_ext_$stack_level_        gtss_ust_ext_$ust


   LINE    LOC      LINE    LOC      LINE    LOC      LINE    LOC      LINE    LOC      LINE    LOC      LINE    LOC
     14 000016        32 000030        33 000042        34 000046        35 000063        37 000075        38 000100
     40 000120        41 000122        42 000125        43 000127        44 000131        47 000133        48 000143
     49 000144        52 000153        58 000164        59 000177        60 000204        61 000221        63 000226
     64 000231        66 000250        69 000264        70 000274        71 000275        74 000311        83 000321
     84 000327        85 000334        86 000340


                                          -----------------------------------------------------------


Historical Background

This edition of the Multics software materials and documentation is provided and donated
to Massachusetts Institute of Technology by Group BULL including BULL HN Information Systems Inc.
as a contribution to computer science knowledge.
This donation is made also to give evidence of the common contributions of Massachusetts Institute of Technology,
Bell Laboratories, General Electric, Honeywell Information Systems Inc., Honeywell BULL Inc., Groupe BULL
and BULL HN Information Systems Inc. to the development of this operating system.
Multics development was initiated by Massachusetts Institute of Technology Project MAC (1963-1970),
renamed the MIT Laboratory for Computer Science and Artificial Intelligence in the mid 1970s, under the leadership
of Professor Fernando Jose Corbato. Users consider that Multics provided the best software architecture
for managing computer hardware properly and for executing programs. Many subsequent operating systems
incorporated Multics principles.
Multics was distributed in 1975 to 2000 by Group Bull in Europe , and in the U.S. by Bull HN Information Systems Inc.,
as successor in interest by change in name only to Honeywell Bull Inc. and Honeywell Information Systems Inc. .

                                          -----------------------------------------------------------

Permission to use, copy, modify, and distribute these programs and their documentation for any purpose and without
fee is hereby granted,provided that the below copyright notice and historical background appear in all copies
and that both the copyright notice and historical background and this permission notice appear in supporting
documentation, and that the names of MIT, HIS, BULL or BULL HN not be used in advertising or publicity pertaining
to distribution of the programs without specific prior written permission.
    Copyright 1972 by Massachusetts Institute of Technology and Honeywell Information Systems Inc.
    Copyright 2006 by BULL HN Information Systems Inc.
    Copyright 2006 by Bull SAS
    All Rights Reserved
