	COMPILATION LISTING OF SEGMENT gtss_drl_jsts_
	Compiled by: Multics PL/I Compiler, Release 33e, of October 6, 1992
	Compiled at: CGI
	Compiled on: 2000-04-18_1121.45_Tue_mdt
	    Options: optimize map

        1 /* ***********************************************************
        2*   *                                                         *
        3*   *                                                         *
        4*   * Copyright, (C) Honeywell Information Systems Inc., 1981 *
        5*   *                                                         *
        6*   *                                                         *
        7*   *********************************************************** */
        8
        9 gtss_drl_jsts_: proc (mcpp, increment);
       10
       11 /**	gtss obtain job status.
       12*
       13*	Author:	Mel Wilson			29mar79
       14* **/
       15 dcl  mcpp                     ptr parm;
       16 dcl  increment fixed bin parm;
       17 	mcp = mcpp;
       18
       19 /**
       20*
       21*   DRL JSTS, OBTAIN JOB STATUS (octal ('drl_code'))
       22*
       23*
       24*   8_________1_6_____________________
       25*
       26*   DRL      JSTS
       27*on input:
       28*word_1
       29*   BCI     1,snumb
       30*word_2 (optional)
       31*   VFD     18/L_buffer,9/0,6/,3/n
       32*
       33*on output:
       34*word_1
       35*   VFD     9/status_code,9/activity_number,18/
       36*word_2, if present, is not affected
       37*
       38*
       39*    (See TSS SYSTEM PROGRAMMER'S
       40*         REFERENCE MANUAL DD17C, Rev. 0, July 1976
       41*         Page 3-13)
       42*
       43**/
       44 
       45 	scup = addr (mc.scu);
       46 	gseg = gtss_ext_$gtss_slave_area_seg (gtss_ext_$stack_level_);
       47 	if fixed (scu.ilc, 18) + 1 >= fixed (gtss_ust.lsize.limit, 18) then
       48 	     call gtss_abort_subsystem_ (mcp, "gtss_drl_jsts_", 0,
       49 	     "DRL parameter list outside memory (^o)", fixed (scu.ilc, 18));
       50 	arg_list_ptr = addrel (gseg, fixed (scu.ilc, 18) + 1);
       51
       52 	call gtss_bcd_ascii_$lc (arg_list_ptr, 5, addr (given_snumb));
       53
       54 	call gtss_get_user_state_ (u_state_ptr);
       55 	do i = 1 to entry_count while (snumb (i) ^= given_snumb);
       56 	end;
       57 	if i > entry_count then do;			/* given snumb not known */
       58 	     return_status = 18;
       59 	     return_activity = 0;
       60 	end;
       61 	else do;					/* set up status from gtss_user_state_ entry */
       62 	     return_status = status (i);
       63 	     return_activity = activity (i);
       64 	end;
       65 	return_filler = "0"b;
       66
       67 	if opcode ^= "0"b then			/* no optional buffer supplied */
       68 	     increment = 1;
       69 	else do;					/* return status message into buffer, if all is legal */
       70 	     increment = 2;
       71 	     if L_buffer > fixed (gtss_ust.lsize.limit, 18) - max (320, 320*buf_n) then
       72 		call gtss_abort_subsystem_ (mcp, "gtss_drl_jsts_", 0,
       73 		"Buffer outside memory (^o)", fixed (scu.ilc, 18));
       74 	     call gtss_ascii_bcd_ (addr (status_msg (return_status)),length (rtrim (status_msg (return_status))),
       75 		addrel (gseg, L_buffer));
       76 	     ret_tally_adr = L_buffer;		/* set up buffer tally for return */
       77 	     ret_tally_cnt = length (rtrim (status_msg (return_status)));
       78 	     ret_tally_off = 0;
       79 	end;
       80
       81 	return;
       82 
       83 /** gtss_drl_jsts_ local declarations */
       84
       85 dcl  arg_list_ptr ptr;
       86 dcl 1 arg_list based (arg_list_ptr),
       87    2 bcd_snumb unal,
       88       3 return_status fixed bin (9) unsigned unal,
       89       3 return_activity fixed bin (9) unsigned unal,
       90       3 return_filler bit (18),
       91    2 optional_word_2 unal,
       92       3 L_buffer fixed bin (18) unsigned unal,
       93       3 opcode bit (9) unal,
       94       3 filler1 bit(6) unal,
       95       3 buf_n fixed bin (3) unsigned unal;
       96
       97 dcl  gseg ptr;
       98 dcl  given_snumb char (5) init ("");
       99 dcl  i fixed bin;
      100
      101 dcl  status_msg (0:20) int static char (16)
      102         init ( /* msg_0  */ "status changing",
      103 	     /* msg_1  */ "reading-cr",
      104 	     /* msg_2  */ "reading-mt",
      105 	     /* msg_3  */ "reading-rmt",
      106 	     /* msg_4  */ "wait-aloc",
      107 	     /* msg_5  */ "wait-perip",
      108 	     /* msg_6  */ "wait-core",
      109 	     /* msg_7  */ "in hold",
      110 	     /* msg_8  */ "in limbo",
      111 	     /* msg_9  */ "executing",
      112 	     /* msg_10 */ "swapped",
      113 	     /* msg_11 */ "wait-media",
      114 	     /* msg_12 */ "too-big",
      115 	     /* msg_13 */ "overdue",
      116 	     /* msg_14 */ "in restart",
      117 	     /* msg_15 */ "terminating",
      118 	     /* msg_16 */ "output waiting",
      119 	     /* msg_17 */ "output complete",
      120 	     /* msg_18 */ "not accesible",
      121 	     /* msg_19 */ "not your job",
      122 	     /* msg_20 */ "aborted" );
      123
      124 dcl 1 local_q based (addr(mc.q)),
      125    2 ret_tally_adr fixed bin (18) unsigned unal,
      126    2 ret_tally_cnt fixed bin (12) unsigned unal,
      127    2 ret_tally_off fixed bin (6) unsigned unal;
      128
      129 dcl  gtss_get_user_state_ entry (ptr);
      130 
  1     1 /* BEGIN INCLUDE FILE gtss_ext_.incl.pl1 */
  1     2 /*
  1     3*  Created: (Wardd Multics)  05/20/78 1307.6 mst Sat
  1     4*  Modified: Ward            1981     add suspended_process dcl
  1     5*  Modified: Ron Barstad  83-07-21  Fixed level number on mcfc to 3
  1     6*  Modified: Ron Barstad  83-07-25  Fixed derail range in statistics to 4js3 number
  1     7**/
  1     8 dcl  gtss_ext_$aem                   fixed bin static ext	/* >0 Print "additional" error information. */;
  1     9 dcl  gtss_ext_$bad_drl_rtrn          static ext label	/* Default for drl_rtrn. */;
  1    10 dcl  gtss_ext_$db                    (72)bit(1)unal static ext;
  1    11 dcl  gtss_ext_$deferred_catalogs_ptr ptr ext;
  1    12 dcl  gtss_ext_$dispose_of_drl        static ext label	/* quit handlers for some derails use this label to abort */;
  1    13 dcl  gtss_ext_$drl_rtrn              (4)static ext label	/* where to return at subsystem end */;
  1    14 dcl  gtss_ext_$drm_path              char(168)static ext	/* gtss_expand_pathname_stores drm_path */;
  1    15 dcl  gtss_ext_$drun_jid              char (5) static ext	/* valid only for DRUN executing under absentee */;
  1    16 dcl  gtss_ext_$event_channel         fixed bin (71) static ext	/* used for DABT signals */;
  1    17 dcl  gtss_ext_$finished              static ext label	/* Return to gtss for normal conclusion. */;
  1    18 dcl  gtss_ext_$gdb_name              char(8)ext	/* Name H* module to debug. */;
  1    19 dcl  gtss_ext_$get_line              entry(ptr,ptr,fixed bin(21),fixed bin(21),fixed bin(35))variable ext /* Build mode input procedure. */;
  1    20 dcl  gtss_ext_$gtss_slave_area_seg   (4) ext static ptr	/* pointer to gtss slave area segment */;
  1    21 dcl  gtss_ext_$hcs_work_area_ptr     ptr ext static		/* Temp seg for acl lists. */;
  1    22 dcl  gtss_ext_$homedir               char (64) static ext /* user's home dir */;
  1    23 dcl  gtss_ext_$last_k_was_out        bit (1)aligned ext static	/* "1"b => last tty output was output. */;
  1    24 dcl  gtss_ext_$pdir                  char (168) varying ext static	/* pathname of process directory */;
  1    25 dcl  gtss_ext_$popup_from_pi         static ext label	/* transfer to this label after pi simulates popup primitive */;
  1    26 dcl  gtss_ext_$process_type          fixed bin (17) static ext;
  1    27 dcl  gtss_ext_$put_chars             entry(ptr,ptr,fixed bin(24),fixed bin(35)) variable ext	/* Terminal output procedure. */;
  1    28 dcl  gtss_ext_$restart_from_pi       static ext label	/* transfer to this label after pi restores machine conditions */;
  1    29 dcl  gtss_ext_$restart_seg_ptr       ptr static ext	/* points to DRUN restart file when exec under absentee */;
  1    30 dcl  gtss_ext_$sig_ptr               ext static ptr	/* saved ptr to signal_ */;
  1    31 dcl  gtss_ext_$stack_level_          fixed bin ext static;
  1    32 dcl  gtss_ext_$suspended_process     bit(1) ext static;
  1    33 dcl  gtss_ext_$SYstarstar_file_no    fixed bin (24) static ext;
  1    34 dcl  gtss_ext_$user_id               char (26)var ext;
  1    35 dcl  gtss_ext_$work_area_ptr         ptr ext;
  1    36
  1    37 dcl  1 gtss_ext_$CFP_bits aligned static external
  1    38      , 3 no_input_yet bit (1) unaligned         /* used in gtss_CFP_input_, gtss_read_starCFP_ */
  1    39      , 3 rtn_bits bit (4) unaligned             /* used in gtss_CFP_input_, gtss_CFP_output_ */
  1    40      , 3 cpos_called bit (1) unaligned          /* used in gtss_CFP_input_, gtss_drl_t_cfio_, gtss_abandon_CFP_ */
  1    41      , 3 cout_called bit (1) unaligned          /* used in gtss_read_starCFP_, gtss_abandon_CFP_ */
  1    42      , 3 build_mode bit (1) unaligned	        /* used in gtss_build_, gtss_dsd_process_ */
  1    43      ;
  1    44
  1    45 dcl 1 gtss_ext_$com_reg aligned static ext,
  1    46        3 tsdmx,
  1    47          4 dst fixed bin (18) unsigned unaligned,
  1    48          4 dit fixed bin (18) unsigned unaligned,
  1    49        3 tsdpt fixed bin (36) unsigned unaligned,
  1    50        3 tsddt fixed bin (36) unsigned unaligned,
  1    51        3 tsdid bit (72) unaligned,
  1    52        3 tsdsd bit (36) unaligned,
  1    53        3 tsdst fixed bin (36) unsigned unaligned,
  1    54        3 tsdjb fixed bin (35) unaligned,
  1    55        3 tsdgt,
  1    56          4 ust_loc fixed bin (18) unsigned unaligned,
  1    57          4 gating_ctl fixed bin (18) unsigned unaligned,
  1    58        3 tcdfr bit (36) unaligned;
  1    59
  1    60 dcl 1 gtss_ext_$flags aligned static ext
  1    61      , 3 dispose_of_drl_on_pi	bit (01) unal	/* 1 => drl that should be aborted after quit-pi sequence */
  1    62      , 3 drl_in_progress	bit (01) unal	/* 1 => drl handler executing; 0 => gcos code executing */
  1    63      , 3 popup_from_pi	bit (01) unal	/* 1 => derail processor will simulate Gcos break instead of returning */
  1    64      , 3 unfinished_drl	bit (01) unal	/* 1 => subsystem is handling breaks and quit was raised during a drl */
  1    65      , 3 ss_time_limit_set	bit (01) unal	/* 1 => exec time limit set for subsystem */
  1    66      , 3 timer_ranout	bit (01) unal	/* 1 => user is executing timer runout code */
  1    67      , 3 gtss_com_err_sw      bit (01) unal       /* 1 => stop com_err_ string from going to terminal */
  1    68      , 3 available		bit (65) unal
  1    69      ;
  1    70
  1    71
  1    72 dcl 1 gtss_ext_$statistics aligned static ext,		/* Derail usage statistics */
  1    73       3 total_time (-10:71)fixed bin (71),
  1    74       3 count (-10:71)fixed bin (17);
  1    75
  1    76 /* 	Declaration of Available File Table
  1    77*   */
  1    78 dcl 1 gtss_ext_$aft aligned ext,			/* aft structure */
  1    79
  1    80       3 start_list (0:102) fixed bin (24),		/* >0 => 1st aft_entry row to start of next entry chain. */
  1    81
  1    82       3 aft_entry (20),
  1    83         4 altname char (8),				/* altname name for attaching this file */
  1    84         4 next_entry fixed bin (24),			/* Next aft_entry in hash chain. */
  1    85         4 previous_add fixed bin (24),			/* Previously added entry. */
  1    86         4 next_add fixed bin (24),			/* Entry added after this one. */
  1    87         4 used bit (1) unal,				/* "1"b => aft_entry contains AFT value. */
  1    88         4 forced bit(1) unal,				/* "1"b => gtss_verify_access_ forced access on this file. */
  1    89
  1    90       3 free_space fixed bin (24),			/* Index of start of free space list for aft entries. */
  1    91       3 first_added fixed bin (24),			/* >0  => start of chain in add order. */
  1    92       3 last_added fixed bin (24)			/* >0 => end of chain in added order. */;
  1    93
  1    94 dcl  gtss_ext_$ppt                   ptr ext /*  switch name for tapein drl */;
  1    95 /**	Data structure to provide access to installed
  1    96*   subsystems fast library load.
  1    97*   **/
  1    98 dcl 1 gtss_ext_$fast_lib aligned ext
  1    99      , 3 fast_lib_fcb ptr				/* Pointer to msf fcb.	*/
  1   100      , 3 fast_lib_ncp fixed bin (24)			/* Number of components. */
  1   101      , 3 comp_ptr (0:9)ptr				/* Pointer to component. */
  1   102      , 3 comp_wds (0:9)fixed bin (24)			/* Component length (words). */
  1   103      ;
  1   104
  1   105 /* Pointers to segments to regulate multipler
  1   106*   callers to files. Same segments are used to regulate
  1   107*   all simulator callers.
  1   108**/
  1   109 dcl 1 gtss_ext_$mcfc	aligned ext,
  1   110       3 multics_lock_id	bit(36),
  1   111       3 wait_time		fixed bin,
  1   112       3 files_ptr		ptr,
  1   113       3 names_ptr		ptr,
  1   114       3 callers_ptr		(0:3)ptr
  1   115 ;
  1   116
  1   117 /*   END INCLUDE FILE gtss_ext_.incl.pl1 */
      131
      132 
  2     1 /* BEGIN INCLUDE FILE gtss_snumb_xref_.incl.pl1 */
  2     2 /*
  2     3*  Created: (MWilson Multics)  03/26/79 1152.0 mst Mon
  2     4**/
  2     5
  2     6 dcl  u_state_ptr ptr;
  2     7 dcl 1 gtss_snumb_xref_ based (u_state_ptr),
  2     8       3 snumb_sequence pic "9999",
  2     9       3 entry_count fixed bin,
  2    10       3 snumb_entry (100),
  2    11         4 snumb char (5),
  2    12         4 jout_id bit (12),
  2    13         4 activity fixed bin,
  2    14         4 status fixed bin;
  2    15
  2    16 /* * snumb_entry.status key values * */
  2    17
  2    18 dcl (READING_RMT, INITIATED)	init(3)		static int options(constant);
  2    19 dcl EXECUTING	init(9)		static int options(constant);
  2    20 dcl WAIT_MEDIA	init(11)		static int options(constant);
  2    21 dcl TERMINATING	init(15)		static int options(constant);
  2    22 dcl OUTPUT_WAITING	init(16)		static int options(constant);
  2    23 dcl (OUTPUT_COMPLETE, COMPLETE)	init(17)		static int options(constant);
  2    24
  2    25 /*   END INCLUDE FILE gtss_snumb_xref_.incl.pl1 */
      133
      134 
  3     1 /*  */
  3     2 /* BEGIN INCLUDE FILE  mc.incl.pl1   Created Dec 72 for 6180 - WSS. */
  3     3 /* Modified 06/07/76 by Greenberg for mc.resignal */
  3     4 /* Modified 07/07/76 by Morris for fault register data */
  3     5 /* Modified 08/28/80 by J. A. Bush for the DPS8/70M CVPU */
  3     6 /* Modified '82 to make values constant */
  3     7
  3     8 /* words 0-15 pointer registers */
  3     9
  3    10 dcl  mcp ptr;
  3    11
  3    12 dcl 1 mc based (mcp) aligned,
  3    13     2 prs (0:7) ptr,				/* POINTER  REGISTERS */
  3    14    (2 regs,					/* registers */
  3    15       3 x (0:7) bit (18),				/* index registers */
  3    16       3 a bit (36),					/* accumulator */
  3    17       3 q bit (36),					/* q-register */
  3    18       3 e bit (8),					/* exponent */
  3    19       3 pad1 bit (28),
  3    20       3 t bit (27),					/* timer register */
  3    21       3 pad2 bit (6),
  3    22       3 ralr bit (3),				/* ring alarm register */
  3    23
  3    24     2 scu (0:7) bit (36),
  3    25
  3    26     2 mask bit (72),				/* mem controller mask at time of fault */
  3    27     2 ips_temp bit (36),				/* Temporary storage for IPS info */
  3    28     2 errcode fixed bin (35),				/* fault handler's error code */
  3    29     2 fim_temp,
  3    30       3 unique_index bit (18) unal,			/* unique index for restarting faults */
  3    31       3 resignal bit (1) unal,			/* recompute signal name with fcode below */
  3    32       3 fcode bit (17) unal,				/* fault code used as index to FIM table and SCT */
  3    33     2 fault_reg bit (36),				/* fault register */
  3    34     2 pad2 bit (1),
  3    35     2 cpu_type fixed bin (2) unsigned,			/* L68 = 0, DPS8/70M = 1 */
  3    36     2 ext_fault_reg bit (15),				/* extended fault reg for DPS8/70M CPU */
  3    37     2 fault_time bit (54),				/* time of fault */
  3    38
  3    39     2 eis_info (0:7) bit (36)) unaligned;
  3    40
  3    41
  3    42 dcl (apx fixed bin init (0),
  3    43      abx fixed bin init (1),
  3    44      bpx fixed bin init (2),
  3    45      bbx fixed bin init (3),
  3    46      lpx fixed bin init (4),
  3    47      lbx fixed bin init (5),
  3    48      spx fixed bin init (6),
  3    49      sbx fixed bin init (7)) internal static options (constant);
  3    50
  3    51
  3    52 
  3    53
  3    54 dcl  scup ptr;
  3    55
  3    56 dcl 1 scu based (scup) aligned,			/* SCU DATA */
  3    57
  3    58
  3    59 /*	WORD (0)		*/
  3    60
  3    61    (2 ppr,					/* PROCEDURE POINTER REGISTER */
  3    62       3 prr bit (3),				/* procedure ring register */
  3    63       3 psr bit (15),				/* procedure segment register */
  3    64       3 p bit (1),					/* procedure privileged bit */
  3    65
  3    66     2 apu,					/* APPENDING UNIT STATUS */
  3    67       3 xsf bit (1),				/* ext seg flag - IT modification */
  3    68       3 sdwm bit (1),				/* match in SDW Ass. Mem. */
  3    69       3 sd_on bit (1),				/* SDW Ass. Mem.  ON */
  3    70       3 ptwm bit (1),				/* match in PTW Ass. Mem. */
  3    71       3 pt_on bit (1),				/* PTW Ass. Mem.  ON */
  3    72       3 pi_ap bit (1),				/* Instr Fetch or Append cycle */
  3    73       3 dsptw bit (1),				/* Fetch of DSPTW */
  3    74       3 sdwnp bit (1),				/* Fetch of SDW non paged */
  3    75       3 sdwp bit (1),				/* Fetch of SDW paged */
  3    76       3 ptw bit (1),				/* Fetch of PTW */
  3    77       3 ptw2 bit (1),				/* Fetch of pre-paged PTW */
  3    78       3 fap bit (1),				/* Fetch of final address paged */
  3    79       3 fanp bit (1),				/* Fetch of final address non-paged */
  3    80       3 fabs bit (1),				/* Fetch of final address absolute */
  3    81
  3    82     2 fault_cntr bit (3),				/* number of retrys of EIS instructions */
  3    83
  3    84
  3    85 /*	WORD (1)		*/
  3    86
  3    87     2 fd,						/* FAULT  DATA */
  3    88       3 iro bit (1),				/* illegal ring order */
  3    89       3 oeb bit (1),				/* out of execute bracket */
  3    90       3 e_off bit (1),				/* no execute */
  3    91       3 orb bit (1),				/* out of read bracket */
  3    92       3 r_off bit (1),				/* no read */
  3    93       3 owb bit (1),				/* out of write bracket */
  3    94       3 w_off bit (1),				/* no write */
  3    95       3 no_ga bit (1),				/* not a gate */
  3    96       3 ocb bit (1),				/* out of call bracket */
  3    97       3 ocall bit (1),				/* outward call */
  3    98       3 boc bit (1),				/* bad outward call */
  3    99       3 inret bit (1),				/* inward return */
  3   100       3 crt bit (1),				/* cross ring transfer */
  3   101       3 ralr bit (1),				/* ring alarm register */
  3   102       3 am_er bit (1),				/* associative memory fault */
  3   103       3 oosb bit (1),				/* out of segment bounds */
  3   104       3 paru bit (1),				/* processor parity upper */
  3   105       3 parl bit (1),				/* processor parity lower */
  3   106       3 onc_1 bit (1),				/* op not complete type 1 */
  3   107       3 onc_2 bit (1),				/* op not complete type 2 */
  3   108
  3   109     2 port_stat,					/* PORT  STATUS */
  3   110       3 ial bit (4),				/* illegal action lines */
  3   111       3 iac bit (3),				/* illegal action channel */
  3   112       3 con_chan bit (3),				/* connect channel */
  3   113
  3   114     2 fi_num bit (5),				/* (fault/interrupt)  number */
  3   115     2 fi_flag bit (1),				/*  1 => fault,  0 => interrupt  */
  3   116
  3   117
  3   118 /*	WORD (2)		*/
  3   119
  3   120     2 tpr,					/* TEMPORARY POINTER REGISTER */
  3   121       3 trr bit (3),				/* temporary ring register */
  3   122       3 tsr bit (15),				/* temporary segment register */
  3   123
  3   124     2 pad2 bit (9),
  3   125
  3   126     2 cpu_no bit (3),				/* CPU number */
  3   127
  3   128     2 delta bit (6),				/* tally modification DELTA */
  3   129
  3   130
  3   131 /*	WORD (3)		*/
  3   132
  3   133     2 word3 bit (18),
  3   134
  3   135     2 tsr_stat,					/* TSR STATUS for 1,2,&3 word instructions */
  3   136       3 tsna,					/* Word 1 status */
  3   137         4 prn bit (3),				/* Word 1  PR  number */
  3   138         4 prv bit (1),				/* Word 1  PR  valid bit */
  3   139       3 tsnb,					/* Word 2  status */
  3   140         4 prn bit (3),				/* Word 2  PR  number */
  3   141         4 prv bit (1),				/* Word 2  PR  valid bit */
  3   142       3 tsnc,					/* Word 3  status */
  3   143         4 prn bit (3),				/* Word 3  PR  number */
  3   144         4 prv bit (1),				/* Word 3  PR  valid bit */
  3   145
  3   146     2 tpr_tbr bit (6),				/* TPR.TBR  field */
  3   147
  3   148
  3   149 /* 	WORD (4)		*/
  3   150
  3   151     2 ilc bit (18),					/* INSTRUCTION  COUNTER */
  3   152
  3   153     2 ir,						/* INDICATOR  REGISTERS */
  3   154       3 zero bit (1),				/* zero indicator */
  3   155       3 neg bit (1),				/* negative indicator */
  3   156       3 carry bit (1),				/* carryry indicator */
  3   157       3 ovfl bit (1),				/* overflow indicator */
  3   158       3 eovf bit (1),				/* eponent overflow */
  3   159       3 eufl bit (1),				/* exponent underflow */
  3   160       3 oflm bit (1),				/* overflow mask */
  3   161       3 tro bit (1),				/* tally runout */
  3   162       3 par bit (1),				/* parity error */
  3   163       3 parm bit (1),				/* parity mask */
  3   164       3 bm bit (1),					/* ^bar mode */
  3   165       3 tru bit (1),				/* truncation mode */
  3   166       3 mif bit (1),				/* multi-word instruction mode */
  3   167       3 abs bit (1),				/* absolute mode */
  3   168       3 hex bit (1),				/* hexadecimal exponent mode */
  3   169       3 pad bit (3),
  3   170
  3   171
  3   172 /*	WORD (5)		*/
  3   173
  3   174     2 ca bit (18),					/* COMPUTED  ADDRESS */
  3   175
  3   176     2 cu,						/* CONTROL UNIT STATUS */
  3   177       3 rf bit (1),					/* on first cycle of repeat instr */
  3   178       3 rpt bit (1),				/* repeat instruction */
  3   179       3 rd bit (1),					/* repeat double instruction */
  3   180       3 rl bit (1),					/* repeat link instruciton */
  3   181       3 pot bit (1),				/* IT  modification */
  3   182       3 pon bit (1),				/* return type instruction */
  3   183       3 xde bit (1),				/* XDE from Even location */
  3   184       3 xdo bit (1),				/* XDE from Odd  location */
  3   185       3 poa bit (1),				/* operation preparation */
  3   186       3 rfi bit (1),				/* tells CPU to refetch instruction */
  3   187       3 its bit (1),				/* ITS modification */
  3   188       3 if bit (1),					/* fault occured during instruction fetch */
  3   189
  3   190     2 cpu_tag bit (6)) unaligned,			/* computed tag field */
  3   191
  3   192
  3   193 /*	WORDS (6,7)	*/
  3   194
  3   195     2 even_inst bit (36),				/* even instruction of faulting pair */
  3   196
  3   197     2 odd_inst bit (36);				/* odd  instruction of faulting pair */
  3   198
  3   199
  3   200
  3   201
  3   202
  3   203
  3   204 /*	ALTERNATE   SCU  DECLARATION		*/
  3   205
  3   206
  3   207 dcl 1 scux based (scup) aligned,
  3   208
  3   209    (2 pad0 bit (36),
  3   210
  3   211     2 fd,						/* GROUP II  FAULT DATA */
  3   212       3 isn bit (1),				/* illegal segment number */
  3   213       3 ioc bit (1),				/* illegal op  code  */
  3   214       3 ia_am bit (1),				/* illegal address - modifier */
  3   215       3 isp bit (1),				/* illegal slave  procedure */
  3   216       3 ipr bit (1),				/* illegal procedure */
  3   217       3 nea bit (1),				/* non existent address */
  3   218       3 oobb bit (1),				/* out of bounds */
  3   219       3 pad bit (29),
  3   220
  3   221     2 pad2 bit (36),
  3   222
  3   223     2 pad3a bit (18),
  3   224
  3   225     2 tsr_stat (0:2),				/* TSR  STATUS  as an  ARRAY */
  3   226       3 prn bit (3),				/* PR  number */
  3   227       3 prv bit (1),				/* PR  valid bit */
  3   228
  3   229     2 pad3b bit (6)) unaligned,
  3   230
  3   231     2 pad45 (0:1) bit (36),
  3   232
  3   233     2 instr (0:1) bit (36);				/* Instruction ARRAY */
  3   234
  3   235
  3   236
  3   237 /*  END INCLUDE FILE   mc.incl.pl1 */
      135
      136 
  4     1 /* BEGIN INCLUDE FILE gtss_ust_ext_.incl.pl1 */
  4     2 /* UST: User Status Table
  4     3*   definitions based on
  4     4*   System Tables, Order number DD14-01E, January 1981
  4     5*   Section 15, Time Sharing System
  4     6*
  4     7*   Authors: Robert J. Grimes	Created
  4     8*   -	  Albert N. Kepner	  1978
  4     9*   -	  Robert M. May
  4    10*   -	  David B. Ward
  4    11*   Change:  Dave Ward	02/23/79 Level 4 numbering.
  4    12*   Change:  Ron Barstad  83-07-12 Repaired damaged formating and word offset comments
  4    13*                                  Brought up to 4JS3 functionality
  4    14**/
  4    15 /* octal word offsets of entries */
  4    16 dcl 1 gtss_ust_ext_$ust aligned ext,
  4    17       3 gtss_ust,
  4    18 /* 0-1  */	4 lid		bit (72),
  4    19 /* 2    */	4 lstp		bit (36),
  4    20 /* 3    */	4 ltin		bit (36),
  4    21 /* 4    */	4 lstio,
  4    22 			5 no_of_chars_by_8  fixed bin (18) uns unal,
  4    23 			5 no_of_disk_io     fixed bin (18) uns unal,
  4    24 /* 5    */	4 lsnub		bit (36),
  4    25 /* 6-7  */	4 lchg		bit (72),
  4    26 /* 10   */	4 lbuf,
  4    27 			5 address		bit (18)unaligned,
  4    28 			5 tally		bit (1)unaligned,
  4    29 			5 terminal_type	bit (5)unaligned,
  4    30 			5 station_id	bit (12)unaligned,
  4    31 /* 11-12 */	4 liost (0:1)	bit (36),
  4    32 /* 13   */	4 lcc		bit (36),
  4    33 /* 14   */	4 lback,
  4    34 			5 fill1		bit (18) unaligned,
  4    35 			5 gwake		fixed bin (17) unaligned,
  4    36 /* 15   */	4 lflag,
  4    37 			5 mp_list		bit (18) unaligned,
  4    38 			5 flags unaligned,
  4    39 				6 b18		bit (1) unaligned,
  4    40 				6 b19		bit (1) unaligned,
  4    41 				6 b20		bit (1) unaligned,
  4    42 				6 b21		bit (1) unaligned,
  4    43 				6 b22		bit (1) unaligned,
  4    44 				6 b23		bit (1) unaligned,
  4    45 				6 b24		bit (1) unaligned,
  4    46 				6 b25		bit (1) unaligned,
  4    47 				6 b26		bit (1) unaligned,
  4    48 				6 b27		bit (1) unaligned,
  4    49 				6 b28		bit (1) unaligned,
  4    50 				6 b29		bit (1) unaligned,
  4    51 				6 b30		bit (1) unaligned,
  4    52 				6 b31		bit (1) unaligned,
  4    53 				6 b32		bit (1) unaligned,
  4    54 				6 b33		bit (1) unaligned,
  4    55 				6 b34		bit (1) unaligned,
  4    56 				6 b35		bit (1) unaligned,
  4    57 /* 16   */	4 lkdss		bit (36),
  4    58 /* 17   */	4 lfile,
  4    59 			5 program_stack	fixed bin (17) unal,
  4    60 			5 file_list_ptr	bit (18) unal,
  4    61 /* 20   */	4 lttys		bit (36),
  4    62 /* 21   */	4 lswth,
  4    63 			5 b0		bit (1) unaligned,
  4    64 			5 b1		bit (1) unaligned,
  4    65 			5 b2		bit (1) unaligned,
  4    66 			5 b3		bit (1) unaligned,
  4    67 			5 b4		bit (1) unaligned,
  4    68 			5 b5		bit (1) unaligned,
  4    69 			5 b6		bit (1) unaligned,
  4    70 			5 b7		bit (1) unaligned,
  4    71 			5 b8		bit (1) unaligned,
  4    72 			5 b9		bit (1) unaligned,
  4    73 			5 b10		bit (1) unaligned,
  4    74 			5 b11		bit (1) unaligned,
  4    75 			5 b12		bit (1) unaligned,
  4    76 			5 b13		bit (1) unaligned,
  4    77 			5 b14		bit (1) unaligned,
  4    78 			5 b15		bit (1) unaligned,
  4    79 			5 b16		bit (1) unaligned,
  4    80 			5 b17		bit (1) unaligned,
  4    81 			5 b18		bit (1) unaligned,
  4    82 			5 b19		bit (1) unaligned,
  4    83 			5 b20		bit (1) unaligned,
  4    84 			5 b21		bit (1) unaligned,
  4    85 			5 b22		bit (1) unaligned,
  4    86 			5 b23		bit (1) unaligned,
  4    87 			5 b24		bit (1) unaligned,
  4    88 			5 b25		bit (1) unaligned,
  4    89 			5 b26		bit (1) unaligned,
  4    90 			5 b27		bit (1) unaligned,
  4    91 			5 b28		bit (1) unaligned,
  4    92 			5 b29		bit (1) unaligned,
  4    93 			5 b30		bit (1) unaligned,
  4    94 			5 b31		bit (1) unaligned,
  4    95 			5 b32		bit (1) unaligned,
  4    96 			5 b33		bit (1) unaligned,
  4    97 			5 b34		bit (1) unaligned,
  4    98 			5 b35		bit (1) unaligned,
  4    99 /* 22   */	4 lsize,
  4   100 			5 bar		fixed bin (17) unaligned,
  4   101 			5 limit		bit (18) unaligned,
  4   102 /* 23... */	4 lswap,
  4   103 			5 fill		bit (18) unal,
  4   104 			5 size		bit (18) unal,
  4   105 /* ...24 */	4 transfer_cell	bit (36) unal,
  4   106 /* 25   */	4 lerrm		bit (36),
  4   107 /* 26-37 */	4 lcfil (0:9)	bit (36),
  4   108 /* 40   */	4 lsybc,
  4   109 			5 b0_17		fixed bin (17) unaligned,
  4   110 			5 b18_35		fixed bin (17) unaligned,
  4   111 /* 41-42 */	4 lstem (0:1)	bit (36),
  4   112 /* 43    */	4 lcals,
  4   113 			5 b0_17		fixed bin (17) unaligned,
  4   114 			5 b18_35		bit (18) unaligned,
  4   115 /* 44-51 */	4 subsystems (3),
  4   116 			5 content_lswap,
  4   117 				6 fill		bit (18) unal,
  4   118 				6 size		bit (18) unal,
  4   119 			5 tally_address	fixed bin (17) unaligned,
  4   120 			5 ss_flags	bit (18) unaligned,
  4   121 /* 52   */	4 ltalc,
  4   122 			5 tod		fixed bin (17) unaligned,
  4   123 			5 startup		fixed bin (17) unaligned,
  4   124 /* 53   */	4 lspts		fixed bin (35),
  4   125 /* 54   */	4 lflg2,
  4   126 			5 b0		bit (1) unaligned,
  4   127 			5 b1		bit (1) unaligned,
  4   128 			5 b2		bit (1) unaligned,
  4   129 			5 b3		bit (1) unaligned,
  4   130 			5 b4		bit (1) unaligned,
  4   131 			5 b5		bit (1) unaligned,
  4   132 			5 b6		bit (1) unaligned,
  4   133 			5 b7		bit (1) unaligned,
  4   134 			5 b8		bit (1) unaligned,
  4   135 			5 b9		bit (1) unaligned,
  4   136 			5 b10		bit (1) unaligned,
  4   137 			5 b11		bit (1) unaligned,
  4   138 			5 b12		bit (1) unaligned,
  4   139 			5 b13		bit (1) unaligned,
  4   140 			5 b14		bit (1) unaligned,
  4   141 			5 b15		bit (1) unaligned,
  4   142 			5 b16		bit (1) unaligned,
  4   143 			5 b17		bit (1) unaligned,
  4   144 			5 b18		bit (1) unaligned,
  4   145 			5 b19		bit (1) unaligned,
  4   146 			5 b20		bit (1) unaligned,
  4   147 			5 b21		bit (1) unaligned,
  4   148 			5 b22		bit (1) unaligned,
  4   149 			5 b23		bit (1) unaligned,
  4   150 			5 b24		bit (1) unaligned,
  4   151 			5 b25		bit (1) unaligned,
  4   152 			5 b26		bit (1) unaligned,
  4   153 			5 b27		bit (1) unaligned,
  4   154 			5 b28		bit (1) unaligned,
  4   155 			5 b29		bit (1) unaligned,
  4   156 			5 b30		bit (1) unaligned,
  4   157 			5 b31		bit (1) unaligned,
  4   158 			5 b32		bit (1) unaligned,
  4   159 			5 b33		bit (1) unaligned,
  4   160 			5 b34		bit (1) unaligned,
  4   161 			5 b35		bit (1) unaligned,
  4   162 /* 55-60 */	4 lsftm (0:3)	bit (36),
  4   163 /* 61    */	4 lsprt		fixed bin (35),
  4   164 /* 62    */	4 ltrm		bit (36),
  4   165 /* 63    */	4 linno		fixed bin (35),
  4   166 /* 64    */	4 lincr		fixed bin (35),
  4   167 /* 65    */	4 ltdes		bit (36),
  4   168 /* 66    */	4 lbptr		bit (36),
  4   169 /* 67    */	4 lpptr,
  4   170 			5 last_file_pat_ptr	bin (18) uns unal,
  4   171 			5 lpptr_reserved	bin (18) uns unal,
  4   172 /* 70    */	4 lsclp		bit (36),
  4   173 /* 71    */	4 limit		fixed bin (35),
  4   174 /* 72    */	4 lacpt,
  4   175 			5 jout_pat_offset	bit (18) unal,
  4   176 			5 permissions unal,
  4   177 				6 lodx		bit (1) unal,
  4   178 				6 cardin		bit (1) unal,
  4   179 				6 talk		bit (1) unal,
  4   180 				6 lods		bit (1) unal,
  4   181 			5 cardin_urgency	bit (14) unal,
  4   182 /* 73    */	4 ldrl,
  4   183 			5 ilc		bit (18) unaligned,
  4   184 			5 code		fixed bin (17) unaligned,
  4   185 /* 74    */	4 ljsnb		bit (36),
  4   186 /* 75    */	4 ltm0		bit (36),
  4   187 /* 76    */	4 ltm1		bit (36),
  4   188 /* 77    */	4 ltm2		bit (36),
  4   189 /* 100   */	4 ltm3		bit (36),
  4   190 /* 101   */	4 ltm4		bit (36),
  4   191 /* 102   */	4 ltm5		bit (36),
  4   192 /* 103   */	4 ltmwt		bit (36),
  4   193 /* 104   */	4 ltmrs		bit (36),
  4   194 /* 105   */	4 ltc0		bit (36),
  4   195 /* 106   */	4 ltc1		bit (36),
  4   196 /* 107   */	4 ltc2		bit (36),
  4   197 /* 110   */	4 lct3		bit (36),
  4   198 /* 111   */	4 ltc4		bit (36),
  4   199 /* 112   */	4 ltc5		bit (36),
  4   200 /* 113   */	4 ltcw		bit (36),
  4   201 /* 114   */	4 lkst		bit (36),
  4   202 /* 115   */	4 lkst2		bit (36),
  4   203 /* 116   */	4 lkcc		bit (36),
  4   204 /* 117   */	4 lkms		bit (36),
  4   205 /* 120-121 */	4 lksdc (0:1)	bit (36),
  4   206 /* 122   */	4 lkntp		bit (36),
  4   207 /* 123   */	4 lkrdc		bit (36),
  4   208 /* 124   */	4 lpqf		bit (36),
  4   209 /* 125   */	4 lpqb		bit (36),
  4   210 /* 126   */	4 lustl		bit (36),
  4   211 /* 127   */	4 ltemp		bit (36),
  4   212 /* 130   */	4 lrtll,
  4   213 			5 word_length	fixed bin unaligned,
  4   214 			5 char_length	fixed bin unaligned,
  4   215 /* 131   */	4 ltim		bit (36),
  4   216 /* 132   */	4 lcfio,
  4   217 			5 sect_out	fixed bin(18)unsigned unal,
  4   218 			5 sect_in		fixed bin(18)unsigned unal,
  4   219 /* 133   */	4 lcfst,
  4   220 			5 initial_sect_out	fixed bin(18)unsigned unal,
  4   221 			5 start_term	fixed bin(18)unsigned unal,
  4   222 /* 134   */	4 lcmpt		bit (36),
  4   223 /* 135   */	4 lcjid		bit (36),
  4   224 /* 136-137 */	4 lrcal (0:1)	bit (36),
  4   225 /* 140   */	4 lrdta		bit (36),
  4   226 /* 141   */	4 lrrsk		bit (36),
  4   227 /* 142   */	4 lrskd		bit (36),
  4   228 /* 143   */	4 lrcc		bit (36),
  4   229 /* 144-145 */	4 lrsts (0:1)	bit (36),
  4   230 /* 146   */	4 lrtm		bit (36),
  4   231 /* 147   */	4 lswt2,
  4   232 			5 b0		bit (1) unaligned,
  4   233 			5 b1		bit (1) unaligned,
  4   234 			5 b2		bit (1) unaligned,
  4   235 			5 b3		bit (1) unaligned,
  4   236 			5 b4		bit (1) unaligned,
  4   237 			5 b5		bit (1) unaligned,
  4   238 			5 b6		bit (1) unaligned,
  4   239 			5 b7		bit (1) unaligned,
  4   240 			5 b8		bit (1) unaligned,
  4   241 			5 b9		bit (1) unaligned,
  4   242 			5 b10		bit (1) unaligned,
  4   243 			5 b11		bit (1) unaligned,
  4   244 			5 b12		bit (1) unaligned,
  4   245 			5 b13		bit (1) unaligned,
  4   246 			5 b14		bit (1) unaligned,
  4   247 			5 b15		bit (1) unaligned,
  4   248 			5 b16		bit (1) unaligned,
  4   249 			5 b17		bit (1) unaligned,
  4   250 			5 b18		bit (1) unaligned,
  4   251 			5 b19		bit (1) unaligned,
  4   252 			5 b20		bit (1) unaligned,
  4   253 			5 b21		bit (1) unaligned,
  4   254 			5 b22		bit (1) unaligned,
  4   255 			5 b23		bit (1) unaligned,
  4   256 			5 b24		bit (1) unaligned,
  4   257 			5 b25		bit (1) unaligned,
  4   258 			5 b26		bit (1) unaligned,
  4   259 			5 b27		bit (1) unaligned,
  4   260 			5 b28		bit (1) unaligned,
  4   261 			5 b29		bit (1) unaligned,
  4   262 			5 b30		bit (1) unaligned,
  4   263 			5 b31		bit (1) unaligned,
  4   264 			5 b32		bit (1) unaligned,
  4   265 			5 b33		bit (1) unaligned,
  4   266 			5 b34		bit (1) unaligned,
  4   267 			5 b35		bit (1) unaligned,
  4   268 /* 150   */	4 llsnb		bit (36),
  4   269 /* 151   */	4 lesq		bit (36),
  4   270 /* 152-153 */	4 lumc (0:1)	bit (36),
  4   271 /* 154-155 */	4 lfnam (0:1)	bit (36),
  4   272 /* 156   */	4 lopts		bit (36),
  4   273 /* 157   */	4 licec,
  4   274 			5 b0_17		bit (18) unaligned,
  4   275 			5 b18_35		fixed bin (17) unaligned,
  4   276 /* 160   */	4 lflg3,
  4   277 			5 b0		bit (1) unaligned,
  4   278 			5 b1		bit (1) unaligned,
  4   279 			5 b2		bit (1) unaligned,
  4   280 			5 b3		bit (1) unaligned,
  4   281 			5 b4		bit (1) unaligned,
  4   282 			5 b5		bit (1) unaligned,
  4   283 			5 b6		bit (1) unaligned,
  4   284 			5 b7		bit (1) unaligned,
  4   285 			5 b8		bit (1) unaligned,
  4   286 			5 b9		bit (1) unaligned,
  4   287 			5 b10		bit (1) unaligned,
  4   288 			5 b11		bit (1) unaligned,
  4   289 			5 b12		bit (1) unaligned,
  4   290 			5 b13		bit (1) unaligned,
  4   291 			5 b14		bit (1) unaligned,
  4   292 			5 b15		bit (1) unaligned,
  4   293 			5 b16		bit (1) unaligned,
  4   294 			5 b17		bit (1) unaligned,
  4   295 			5 b18		bit (1) unaligned,
  4   296 			5 b19		bit (1) unaligned,
  4   297 			5 b20		bit (1) unaligned,
  4   298 			5 b21		bit (1) unaligned,
  4   299 			5 b22		bit (1) unaligned,
  4   300 			5 b23		bit (1) unaligned,
  4   301 			5 b24		bit (1) unaligned,
  4   302 			5 b25		bit (1) unaligned,
  4   303 			5 b26		bit (1) unaligned,
  4   304 			5 b27		bit (1) unaligned,
  4   305 			5 b28		bit (1) unaligned,
  4   306 			5 b29		bit (1) unaligned,
  4   307 			5 b30		bit (1) unaligned,
  4   308 			5 b31		bit (1) unaligned,
  4   309 			5 b32		bit (1) unaligned,
  4   310 			5 b33		bit (1) unaligned,
  4   311 			5 b34		bit (1) unaligned,
  4   312 			5 b35		bit (1) unaligned,
  4   313 /* 161-163 */	4 lpage (0:2)	bit (36),
  4   314 /* 164   */	4 lsit1		bit (36),
  4   315 /* 165   */	4 lsit2		bit (36),
  4   316 /* 166   */	4 lsit3		bit (36),
  4   317 /* 167   */	4 lsit4		bit (36),
  4   318 /* The following entries are maintained by gtss and are not found in TSS UST */
  4   319 /* 170   */	4 lxxx, /* program stack index, offset from gtss_ust */
  4   320 			5 b0_17		fixed bin (17) unaligned,
  4   321 			5 b18_35		bit (18) unaligned, /* not used */
  4   322 /* 171-175 */	4 lprgs (5),
  4   323 			5 b0_17		fixed bin (17) unaligned,
  4   324 			5 b18_35		fixed bin (17) unaligned,
  4   325 /* 176   */	4 fill	bit (36),
  4   326 /* 177   */	4 remote_io_buffer aligned,
  4   327 			5 buffer_control_word,
  4   328 				6 current_line_pointer  bit (18)unal,
  4   329 				6 buffer_threshold_address  bit (18)unal,
  4   330 			5 number_words_transmitted	fixed bin (17)unal,
  4   331 			5 FILL1			fixed bin (17)unal,
  4   332 			5 count_of_characters_transmitted fixed bin (17)unal,
  4   333 			5 FILL2			fixed bin (17)unal,
  4   334 			5 characters_transmitted (244) char (1) unal,
  4   335 /* 277   */	4 word_after_ust		bit (36) aligned;
  4   336
  4   337 /*   END INCLUDE FILE gtss_ust_ext_.incl.pl1 */
      137
      138 
  5     1 /* BEGIN INCLUDE FILE gtss_entry_dcls.incl.pl1 */
  5     2 /*
  5     3*  Created: (Wardd Multics)  06/30/78 1624.8 mst Fri
  5     4*  Modified: Ron Barstad  84-02-24  Fixed wrong and obsolete entries
  5     5**/
  5     6
  5     7 /**  gtss external entry variables.		**/
  5     8 dcl  com_err_                                   entry() options(variable);
  5     9 dcl  gtss_CFP_abort_                            entry options(variable);
  5    10 dcl  gtss_CFP_break_                            entry options(variable);
  5    11 dcl  gtss_CFP_input_                            entry (ptr, ptr, fixed bin(21), fixed bin(21), fixed bin(35));
  5    12 dcl  gtss_CFP_output_                           entry (ptr, ptr, fixed bin(21), fixed bin(35));
  5    13 dcl  gtss_abandon_CFP_                          entry options(variable);
  5    14 dcl  gtss_abort_dump_                           entry (fixed bin(18));
  5    15 dcl  gtss_abort_subsystem_                      entry options (variable);
  5    16 dcl  gtss_abort_subsystem_$not_imp              entry (ptr, fixed bin(24));
  5    17 dcl  gtss_abs_login_banner_		        entry() returns(char(*));
  5    18 dcl  gtss_abs_logout_banner_		        entry() returns(char(*));
  5    19 dcl  gtss_abs_$abs_equiv                        entry options(variable);
  5    20 dcl  gtss_abs_$cpu_runout		        entry (ptr, char(4));
  5    21 dcl  gtss_abs_$create_absin                     entry() returns(char(*));
  5    22 dcl  gtss_abs_$dabt_check		        entry (ptr, char(4));
  5    23 dcl  gtss_abs_$get_id                           entry (char(5)) returns(char(19));
  5    24 dcl  gtss_abs_$get_drm                          entry() returns(char(*));
  5    25 dcl  gtss_adjust_size_                          entry (ptr);
  5    26 dcl  gtss_aft_$add                              entry (char(8), fixed bin(24), fixed bin(35));
  5    27 dcl  gtss_aft_$delete                           entry (char(8), fixed bin(24), fixed bin(35));
  5    28 dcl  gtss_aft_$find                             entry (char(8), fixed bin(24), fixed bin(35));
  5    29 dcl  gtss_aft_$initialize                       entry (fixed bin(35));
  5    30 dcl  gtss_ascii_bcd_                            entry (ptr, fixed bin, ptr);
  5    31 dcl  gtss_attributes_mgr_$get                   entry (ptr, fixed bin(35));
  5    32 dcl  gtss_attributes_mgr_$set                   entry (ptr, fixed bin(35));
  5    33 dcl  gtss_bcd_ascii_                            entry (ptr, fixed bin(24), ptr);
  5    34 dcl  gtss_bcd_ascii_$lc                         entry (ptr, fixed bin(24), ptr);
  5    35 dcl  gtss_break_vector_                         entry ();
  5    36 dcl  gtss_break_vector_$drl_in_progress         entry() returns(bit(1));
  5    37 dcl  gtss_break_vector_$status                  entry() returns(bit(1));
  5    38 dcl  gtss_build_                                entry options(variable);
  5    39 dcl  gtss_com_err_                              entry options(variable);
  5    40 dcl  gtss_derail_processor_                     entry (ptr, char(*), ptr, ptr, bit(1) aligned) /* called at fault time instead of signal_ */;
  5    41 dcl  gtss_derail_processor_$set                 entry options(variable);
  5    42 dcl  gtss_dq_$catp                              entry (char (5), ptr, fixed bin (18) unsigned);
  5    43 dcl  gtss_dq_$create                            entry (bit(1));
  5    44 dcl  gtss_dq_$dibp                              entry (char(5), ptr);
  5    45 dcl  gtss_dq_$entries_info		        entry (ptr, fixed bin (18) unsigned, fixed bin (18) unsigned);
  5    46 dcl  gtss_dq_$hdrp                              entry (ptr);
  5    47 dcl  gtss_dq_$mod_js		        entry (char(5), fixed bin (6) unsigned, bit (1));
  5    48 dcl  gtss_dq_$open_exc		        entry (bit(1));
  5    49 dcl  gtss_dq_$open_gen		        entry (bit(1));
  5    50 dcl  gtss_drl_abort_                            entry (ptr, fixed bin);
  5    51 dcl  gtss_drl_addmem_                           entry (ptr, fixed bin);
  5    52 dcl  gtss_drl_callss_                           entry (ptr, fixed bin);
  5    53 dcl  gtss_drl_corfil_                           entry (ptr, fixed bin);
  5    54 dcl  gtss_drl_defil_                            entry (ptr, fixed bin);
  5    55 dcl  gtss_drl_defil_$subr                       entry (ptr, ptr, ptr);
  5    56 dcl  gtss_drl_dio_                              entry (ptr, fixed bin);
  5    57 dcl  gtss_drl_drlimt_                           entry (ptr, fixed bin);
  5    58 dcl  gtss_drl_drlsav_                           entry (ptr, fixed bin);
  5    59 dcl  gtss_drl_filact_                           entry (ptr, fixed bin);
  5    60 dcl  gtss_drl_filsp_                            entry (ptr, fixed bin);
  5    61 dcl  gtss_drl_grow_                             entry (ptr, fixed bin);
  5    62 dcl  gtss_drl_gwake_                            entry (ptr, fixed bin);
  5    63 dcl  gtss_drl_jsts_                             entry (ptr, fixed bin);
  5    64 dcl  gtss_drl_kin_                              entry (ptr, fixed bin);
  5    65 dcl  gtss_drl_kotnow_                           entry (ptr, fixed bin);
  5    66 dcl  gtss_drl_kotnow_$gtss_drl_kout_            entry (ptr, fixed bin);
  5    67 dcl  gtss_drl_koutn_                            entry (ptr, fixed bin);
  5    68 dcl  gtss_drl_morlnk_                           entry (ptr, fixed bin);
  5    69 dcl  gtss_drl_msub_                             entry (ptr, fixed bin);
  5    70 dcl  gtss_drl_objtim_                           entry (ptr, fixed bin);
  5    71 dcl  gtss_drl_part_                             entry (ptr, fixed bin);
  5    72 dcl  gtss_drl_pasaft_                           entry (ptr, fixed bin);
  5    73 dcl  gtss_drl_pasdes_                           entry (ptr, fixed bin);
  5    74 dcl  gtss_drl_pasust_                           entry (ptr, fixed bin);
  5    75 dcl  gtss_drl_pdio_                             entry (ptr, fixed bin);
  5    76 dcl  gtss_drl_prgdes_                           entry (ptr, fixed bin);
  5    77 dcl  gtss_drl_pseudo_                           entry (ptr, fixed bin);
  5    78 dcl  gtss_drl_relmem_                           entry (ptr, fixed bin);
  5    79 dcl  gtss_drl_restor_                           entry (ptr, fixed bin);
  5    80 dcl  gtss_drl_retfil_                           entry (ptr, fixed bin);
  5    81 dcl  gtss_drl_return_                           entry (ptr, fixed bin);
  5    82 dcl  gtss_drl_rew_                              entry (ptr, fixed bin);
  5    83 dcl  gtss_drl_rstswh_                           entry (ptr, fixed bin);
  5    84 dcl  gtss_drl_setlno_                           entry (ptr, fixed bin);
  5    85 dcl  gtss_drl_setswh_                           entry (ptr, fixed bin);
  5    86 dcl  gtss_drl_snumb_                            entry (ptr, fixed bin);
  5    87 dcl  gtss_drl_spawn_                            entry (ptr, fixed bin);
  5    88 dcl  gtss_drl_spawn_$gtss_drl_pasflr_           entry (ptr, fixed bin);
  5    89 dcl  gtss_drl_stoppt_                           entry (ptr, fixed bin);
  5    90 dcl  gtss_drl_switch_                           entry (ptr, fixed bin);
  5    91 dcl  gtss_drl_sysret_                           entry (ptr, fixed bin);
  5    92 dcl  gtss_drl_t_cfio_                           entry (ptr, fixed bin);
  5    93 dcl  gtss_drl_t_cmov_                           entry (ptr, fixed bin);
  5    94 dcl  gtss_drl_t_err_                            entry (ptr, fixed bin);
  5    95 dcl  gtss_drl_t_goto_                           entry (ptr, fixed bin);
  5    96 dcl  gtss_drl_t_linl_                           entry (ptr, fixed bin);
  5    97 dcl  gtss_drl_t_rscc_                           entry (ptr, fixed bin);
  5    98 dcl  gtss_drl_tapein_                           entry (ptr, fixed bin);
  5    99 dcl  gtss_drl_task_                             entry (ptr, fixed bin);
  5   100 dcl  gtss_drl_termtp_                           entry (ptr, fixed bin);
  5   101 dcl  gtss_drl_time_                             entry (ptr, fixed bin);
  5   102 dcl  gtss_drun_                                 entry (bit(1));
  5   103 dcl  gtss_dsd_lookup_                           entry (char(8) var) returns(fixed bin(24));
  5   104 dcl  gtss_dsd_process_                          entry (ptr, ptr, fixed bin(21), fixed bin(21), fixed bin(35));
  5   105 dcl  gtss_edit_dsd_                             entry (ptr, fixed bin(21)) returns(fixed bin(24));
  5   106 dcl  gtss_mcfc_empty                            entry (char(*) var);
  5   107 dcl  gtss_expand_pathname_                      entry (ptr, char(*), char(*), fixed bin(35));
  5   108 dcl  gtss_expand_pathname_$verify_umc           entry (ptr, char(*), char(*), bit(18), fixed bin(35));
  5   109 dcl  gtss_fault_processor_                      entry options(variable);
  5   110 dcl  gtss_find_cond_frame_		        entry (char(32) var) returns(ptr);
  5   111 dcl  gtss_fault_processor_$timer_runout         entry (ptr, char(*));
  5   112 dcl  gtss_filact_error_status_                  entry (fixed bin(35))returns(bit(12));
  5   113 dcl  gtss_filact_funct02_                       entry (ptr, bit(18), ptr, ptr, ptr, fixed bin(35));
  5   114 dcl  gtss_filact_funct03_                       entry (ptr, bit(18), ptr, ptr, ptr, fixed bin(35));
  5   115 dcl  gtss_filact_funct04_                       entry (ptr, bit(18), ptr, ptr, ptr, fixed bin(35));
  5   116 dcl  gtss_filact_funct05_                       entry (ptr, bit(18), ptr, ptr, ptr, fixed bin(35));
  5   117 dcl  gtss_filact_funct08_                       entry (ptr, bit(18), ptr, ptr, ptr, fixed bin(35));
  5   118 dcl  gtss_filact_funct10_                       entry (ptr, bit(18), ptr, ptr, ptr, fixed bin(35));
  5   119 dcl  gtss_filact_funct11_                       entry (ptr, bit(18), ptr, ptr, ptr, fixed bin(35));
  5   120 dcl  gtss_filact_funct14_                       entry (ptr, bit(18), ptr, ptr, ptr, fixed bin(35));
  5   121 dcl  gtss_filact_funct18_                       entry (ptr, bit(18), ptr, ptr, ptr, fixed bin(35));
  5   122 dcl  gtss_filact_funct19_                       entry (ptr, bit(18), ptr, ptr, ptr, fixed bin(35));
  5   123 dcl  gtss_filact_funct21_                       entry (ptr, bit(18), ptr, ptr, ptr, fixed bin(35));
  5   124 dcl  gtss_filact_funct22_                       entry (ptr, bit(18), ptr, ptr, ptr, fixed bin(35));
  5   125 dcl  gtss_mcfc_init_                            entry (char(*) var);
  5   126 dcl  gtss_interp_prim_                          entry options(variable);
  5   127 dcl  gtss_interp_prim_$callss                   entry (char(4), ptr);
  5   128 dcl  gtss_interp_prim_$sysret                   entry options(variable);
  5   129 dcl  gtss_interp_prim_$t_goto                   entry (char(4));
  5   130 dcl  gtss_ios_change_size_                      entry (fixed bin(24), fixed bin(24), bit(1), fixed bin(24), fixed bin(35));
  5   131 dcl  gtss_ios_close_                            entry (fixed bin(24), ptr, fixed bin(35));
  5   132 dcl  gtss_ios_exchange_names_                   entry (fixed bin(24), fixed bin(24), fixed bin(24), fixed bin(35));
  5   133 dcl  gtss_ios_initialize_                       entry options(variable);
  5   134 dcl  gtss_ios_io_                               entry (fixed bin(24), ptr, ptr, fixed bin(24), fixed bin(24), fixed bin(35));
  5   135 dcl  gtss_ios_open_                             entry (fixed bin(24), char(168), char(32), bit(6), bit(1), ptr, ptr, fixed bin(35));
  5   136 dcl  gtss_ios_position_                         entry (fixed bin(24), fixed bin(24), fixed bin(24), bit(6), ptr);
  5   137 dcl  gtss_mcfc_$delete		        entry (fixed bin(24), char(*), char(*), bit(36) aligned, ptr, fixed bin(35));
  5   138 dcl  gtss_mcfc_$open                            entry (char(*), char(*), bit(6), bit(36) aligned, ptr, fixed bin(35));
  5   139 dcl  gtss_mcfc_$close                           entry (char(*), char(*), bit(36) aligned, ptr, fixed bin(35));
  5   140 dcl  gtss_read_starCFP_                         entry (ptr, ptr, fixed bin(21), fixed bin(21), fixed bin(35));
  5   141 dcl  gtss_read_starCFP_$last_os                 entry (ptr, ptr, fixed bin(21), fixed bin(21), fixed bin(35));
  5   142 dcl  gtss_run_subsystem_                        entry (fixed bin(24));
  5   143 dcl  gtss_run_subsystem_$finish                 entry options(variable);
  5   144 dcl  gtss_run_subsystem_$restor                 entry (fixed bin(24), ptr);
  5   145 dcl  gtss_run_subsystem_$restor_perm            entry (fixed bin(24), ptr, fixed bin(18));
  5   146 dcl  gtss_set_slave_                            entry (fixed bin (24), ptr);
  5   147 dcl  gtss_set_slave_$load_bar                   entry (fixed bin (17));
  5   148 dcl  gtss_update_safe_store_                    entry (ptr);
  5   149 dcl  gtss_verify_access_		        entry (char(*), char(*), fixed bin(24), bit(6), bit(12) aligned);
  5   150 dcl  gtss_verify_access_$check_forced_access    entry (char(*), char(*), fixed bin(24));
  5   151 dcl  gtss_write_starCFP_                        entry (ptr, ptr, fixed bin(21), fixed bin(35));
  5   152 /*   END INCLUDE FILE gtss_entry_dcls.incl.pl1 */
      139
      140      end gtss_drl_jsts_;
	SOURCE FILES USED IN THIS COMPILATION.

LINE      NUMBER  DATE MODIFIED     NAME			PATHNAME
             0    04/18/00  1121.4  gtss_drl_jsts_.pl1                >udd>sm>ds>w>ml>gtss_drl_jsts_.pl1
131          1    09/09/83  1813.8  gtss_ext_.incl.pl1                >ldd>incl>gtss_ext_.incl.pl1
133          2    09/09/83  1814.2  gtss_snumb_xref_.incl.pl1         >ldd>incl>gtss_snumb_xref_.incl.pl1
135          3    12/15/83  1200.4  mc.incl.pl1                       >ldd>incl>mc.incl.pl1
137          4    09/09/83  1814.3  gtss_ust_ext_.incl.pl1            >ldd>incl>gtss_ust_ext_.incl.pl1
139          5    12/11/84  1520.0  gtss_entry_dcls.incl.pl1          >ldd>incl>gtss_entry_dcls.incl.pl1
	NAMES DECLARED IN THIS COMPILATION.

IDENTIFIER	     OFFSET    LOC STORAGE CLASS   DATA TYPE		ATTRIBUTES AND REFERENCES
								(* indicates a set context)

NAMES DECLARED BY DECLARE STATEMENT.
L_buffer                  1            based           fixed bin(18,0)          level 3 packed packed unsigned unaligned dcl 86 ref
                                                                                  71 74 74 76
activity                  4            based           fixed bin(17,0)          array level 3 dcl 2-7 ref 63
arg_list                               based           structure                level 1 packed packed unaligned dcl 86
arg_list_ptr                    000100 automatic       pointer                  dcl 85 set ref 50* 52* 58 59 62 63 65 67 71 71 74 74
                                                                                  74 74 74 74 76 77
bcd_snumb                              based           structure                level 2 packed packed unaligned dcl 86
buf_n                     1(33)        based           fixed bin(3,0)           level 3 packed packed unsigned unaligned dcl 86 ref
                                                                                  71
entry_count               1            based           fixed bin(17,0)          level 2 dcl 2-7 ref 55 57
given_snumb                     000104 automatic       char(5)                  initial packed unaligned dcl 98 set ref 52 52 55 98*
gseg                            000102 automatic       pointer                  dcl 97 set ref 46* 50 74 74
gtss_abort_subsystem_           000144 constant        entry                    external dcl 5-15 ref 47 71
gtss_ascii_bcd_                 000146 constant        entry                    external dcl 5-30 ref 74
gtss_bcd_ascii_$lc              000150 constant        entry                    external dcl 5-34 ref 52
gtss_ext_$gtss_slave_area_seg   000136 external static pointer                  array dcl 1-20 ref 46
gtss_ext_$stack_level_          000140 external static fixed bin(17,0)          dcl 1-31 ref 46
gtss_get_user_state_            000134 constant        entry                    external dcl 129 ref 54
gtss_snumb_xref_                       based           structure                level 1 unaligned dcl 2-7
gtss_ust                        000142 external static structure                level 2 dcl 4-16
gtss_ust_ext_$ust               000142 external static structure                level 1 dcl 4-16
i                               000106 automatic       fixed bin(17,0)          dcl 99 set ref 55* 55* 57 62 63
ilc                       4            based           bit(18)                  level 2 packed packed unaligned dcl 3-56 ref 47 47
                                                                                  47 50 71 71
increment                              parameter       fixed bin(17,0)          dcl 16 set ref 9 67* 70*
limit                    22(18) 000142 external static bit(18)                  level 4 packed packed unaligned dcl 4-16 ref 47 71
local_q                                based           structure                level 1 packed packed unaligned dcl 124
lsize                    22     000142 external static structure                level 3 dcl 4-16
mc                                     based           structure                level 1 dcl 3-12
mcp                             000112 automatic       pointer                  dcl 3-10 set ref 17* 45 47* 71* 76 77 78
mcpp                                   parameter       pointer                  dcl 15 ref 9 17
opcode                    1(18)        based           bit(9)                   level 3 packed packed unaligned dcl 86 ref 67
optional_word_2           1            based           structure                level 2 packed packed unaligned dcl 86
q                        25            based           bit(36)                  level 3 packed packed unaligned dcl 3-12 set ref 76
                                                                                  77 78
regs                     20            based           structure                level 2 packed packed unaligned dcl 3-12
ret_tally_adr                          based           fixed bin(18,0)          level 2 packed packed unsigned unaligned dcl 124 set
                                                                                  ref 76*
ret_tally_cnt             0(18)        based           fixed bin(12,0)          level 2 packed packed unsigned unaligned dcl 124 set
                                                                                  ref 77*
ret_tally_off             0(30)        based           fixed bin(6,0)           level 2 packed packed unsigned unaligned dcl 124 set
                                                                                  ref 78*
return_activity           0(09)        based           fixed bin(9,0)           level 3 packed packed unsigned unaligned dcl 86 set
                                                                                  ref 59* 63*
return_filler             0(18)        based           bit(18)                  level 3 packed packed unaligned dcl 86 set ref 65*
return_status                          based           fixed bin(9,0)           level 3 packed packed unsigned unaligned dcl 86 set
                                                                                  ref 58* 62* 74 74 74 74 77
scu                      30            based           bit(36)                  array level 2 in structure "mc" packed packed
                                                                                  unaligned dcl 3-12 in procedure "gtss_drl_jsts_"
                                                                                  set ref 45
scu                                    based           structure                level 1 dcl 3-56 in procedure "gtss_drl_jsts_"
scup                            000114 automatic       pointer                  dcl 3-54 set ref 45* 47 47 47 50 71 71
snumb                     2            based           char(5)                  array level 3 packed packed unaligned dcl 2-7 ref 55
snumb_entry               2            based           structure                array level 2 unaligned dcl 2-7
status                    5            based           fixed bin(17,0)          array level 3 dcl 2-7 ref 62
status_msg                      000010 internal static char(16)                 initial array packed unaligned dcl 101 set ref 74 74
                                                                                  74 74 77
u_state_ptr                     000110 automatic       pointer                  dcl 2-6 set ref 54* 55 55 57 62 63

NAMES DECLARED BY DECLARE STATEMENT AND NEVER REFERENCED.
COMPLETE                               internal static fixed bin(17,0)          initial dcl 2-23
EXECUTING                              internal static fixed bin(17,0)          initial dcl 2-19
INITIATED                              internal static fixed bin(17,0)          initial dcl 2-18
OUTPUT_COMPLETE                        internal static fixed bin(17,0)          initial dcl 2-23
OUTPUT_WAITING                         internal static fixed bin(17,0)          initial dcl 2-22
READING_RMT                            internal static fixed bin(17,0)          initial dcl 2-18
TERMINATING                            internal static fixed bin(17,0)          initial dcl 2-21
WAIT_MEDIA                             internal static fixed bin(17,0)          initial dcl 2-20
abx                                    internal static fixed bin(17,0)          initial dcl 3-42
apx                                    internal static fixed bin(17,0)          initial dcl 3-42
bbx                                    internal static fixed bin(17,0)          initial dcl 3-42
bpx                                    internal static fixed bin(17,0)          initial dcl 3-42
com_err_                        000000 constant        entry                    external dcl 5-8
gtss_CFP_abort_                 000000 constant        entry                    external dcl 5-9
gtss_CFP_break_                 000000 constant        entry                    external dcl 5-10
gtss_CFP_input_                 000000 constant        entry                    external dcl 5-11
gtss_CFP_output_                000000 constant        entry                    external dcl 5-12
gtss_abandon_CFP_               000000 constant        entry                    external dcl 5-13
gtss_abort_dump_                000000 constant        entry                    external dcl 5-14
gtss_abort_subsystem_$not_imp   000000 constant        entry                    external dcl 5-16
gtss_abs_$abs_equiv             000000 constant        entry                    external dcl 5-19
gtss_abs_$cpu_runout            000000 constant        entry                    external dcl 5-20
gtss_abs_$create_absin          000000 constant        entry                    external dcl 5-21
gtss_abs_$dabt_check            000000 constant        entry                    external dcl 5-22
gtss_abs_$get_drm               000000 constant        entry                    external dcl 5-24
gtss_abs_$get_id                000000 constant        entry                    external dcl 5-23
gtss_abs_login_banner_          000000 constant        entry                    external dcl 5-17
gtss_abs_logout_banner_         000000 constant        entry                    external dcl 5-18
gtss_adjust_size_               000000 constant        entry                    external dcl 5-25
gtss_aft_$add                   000000 constant        entry                    external dcl 5-26
gtss_aft_$delete                000000 constant        entry                    external dcl 5-27
gtss_aft_$find                  000000 constant        entry                    external dcl 5-28
gtss_aft_$initialize            000000 constant        entry                    external dcl 5-29
gtss_attributes_mgr_$get        000000 constant        entry                    external dcl 5-31
gtss_attributes_mgr_$set        000000 constant        entry                    external dcl 5-32
gtss_bcd_ascii_                 000000 constant        entry                    external dcl 5-33
gtss_break_vector_              000000 constant        entry                    external dcl 5-35
gtss_break_vector_$drl_in_progress
                                000000 constant        entry                    external dcl 5-36
gtss_break_vector_$status       000000 constant        entry                    external dcl 5-37
gtss_build_                     000000 constant        entry                    external dcl 5-38
gtss_com_err_                   000000 constant        entry                    external dcl 5-39
gtss_derail_processor_          000000 constant        entry                    external dcl 5-40
gtss_derail_processor_$set      000000 constant        entry                    external dcl 5-41
gtss_dq_$catp                   000000 constant        entry                    external dcl 5-42
gtss_dq_$create                 000000 constant        entry                    external dcl 5-43
gtss_dq_$dibp                   000000 constant        entry                    external dcl 5-44
gtss_dq_$entries_info           000000 constant        entry                    external dcl 5-45
gtss_dq_$hdrp                   000000 constant        entry                    external dcl 5-46
gtss_dq_$mod_js                 000000 constant        entry                    external dcl 5-47
gtss_dq_$open_exc               000000 constant        entry                    external dcl 5-48
gtss_dq_$open_gen               000000 constant        entry                    external dcl 5-49
gtss_drl_abort_                 000000 constant        entry                    external dcl 5-50
gtss_drl_addmem_                000000 constant        entry                    external dcl 5-51
gtss_drl_callss_                000000 constant        entry                    external dcl 5-52
gtss_drl_corfil_                000000 constant        entry                    external dcl 5-53
gtss_drl_defil_                 000000 constant        entry                    external dcl 5-54
gtss_drl_defil_$subr            000000 constant        entry                    external dcl 5-55
gtss_drl_dio_                   000000 constant        entry                    external dcl 5-56
gtss_drl_drlimt_                000000 constant        entry                    external dcl 5-57
gtss_drl_drlsav_                000000 constant        entry                    external dcl 5-58
gtss_drl_filact_                000000 constant        entry                    external dcl 5-59
gtss_drl_filsp_                 000000 constant        entry                    external dcl 5-60
gtss_drl_grow_                  000000 constant        entry                    external dcl 5-61
gtss_drl_gwake_                 000000 constant        entry                    external dcl 5-62
gtss_drl_jsts_                  000000 constant        entry                    external dcl 5-63
gtss_drl_kin_                   000000 constant        entry                    external dcl 5-64
gtss_drl_kotnow_                000000 constant        entry                    external dcl 5-65
gtss_drl_kotnow_$gtss_drl_kout_ 000000 constant        entry                    external dcl 5-66
gtss_drl_koutn_                 000000 constant        entry                    external dcl 5-67
gtss_drl_morlnk_                000000 constant        entry                    external dcl 5-68
gtss_drl_msub_                  000000 constant        entry                    external dcl 5-69
gtss_drl_objtim_                000000 constant        entry                    external dcl 5-70
gtss_drl_part_                  000000 constant        entry                    external dcl 5-71
gtss_drl_pasaft_                000000 constant        entry                    external dcl 5-72
gtss_drl_pasdes_                000000 constant        entry                    external dcl 5-73
gtss_drl_pasust_                000000 constant        entry                    external dcl 5-74
gtss_drl_pdio_                  000000 constant        entry                    external dcl 5-75
gtss_drl_prgdes_                000000 constant        entry                    external dcl 5-76
gtss_drl_pseudo_                000000 constant        entry                    external dcl 5-77
gtss_drl_relmem_                000000 constant        entry                    external dcl 5-78
gtss_drl_restor_                000000 constant        entry                    external dcl 5-79
gtss_drl_retfil_                000000 constant        entry                    external dcl 5-80
gtss_drl_return_                000000 constant        entry                    external dcl 5-81
gtss_drl_rew_                   000000 constant        entry                    external dcl 5-82
gtss_drl_rstswh_                000000 constant        entry                    external dcl 5-83
gtss_drl_setlno_                000000 constant        entry                    external dcl 5-84
gtss_drl_setswh_                000000 constant        entry                    external dcl 5-85
gtss_drl_snumb_                 000000 constant        entry                    external dcl 5-86
gtss_drl_spawn_                 000000 constant        entry                    external dcl 5-87
gtss_drl_spawn_$gtss_drl_pasflr_
                                000000 constant        entry                    external dcl 5-88
gtss_drl_stoppt_                000000 constant        entry                    external dcl 5-89
gtss_drl_switch_                000000 constant        entry                    external dcl 5-90
gtss_drl_sysret_                000000 constant        entry                    external dcl 5-91
gtss_drl_t_cfio_                000000 constant        entry                    external dcl 5-92
gtss_drl_t_cmov_                000000 constant        entry                    external dcl 5-93
gtss_drl_t_err_                 000000 constant        entry                    external dcl 5-94
gtss_drl_t_goto_                000000 constant        entry                    external dcl 5-95
gtss_drl_t_linl_                000000 constant        entry                    external dcl 5-96
gtss_drl_t_rscc_                000000 constant        entry                    external dcl 5-97
gtss_drl_tapein_                000000 constant        entry                    external dcl 5-98
gtss_drl_task_                  000000 constant        entry                    external dcl 5-99
gtss_drl_termtp_                000000 constant        entry                    external dcl 5-100
gtss_drl_time_                  000000 constant        entry                    external dcl 5-101
gtss_drun_                      000000 constant        entry                    external dcl 5-102
gtss_dsd_lookup_                000000 constant        entry                    external dcl 5-103
gtss_dsd_process_               000000 constant        entry                    external dcl 5-104
gtss_edit_dsd_                  000000 constant        entry                    external dcl 5-105
gtss_expand_pathname_           000000 constant        entry                    external dcl 5-107
gtss_expand_pathname_$verify_umc
                                000000 constant        entry                    external dcl 5-108
gtss_ext_$CFP_bits                     external static structure                level 1 dcl 1-37
gtss_ext_$SYstarstar_file_no           external static fixed bin(24,0)          dcl 1-33
gtss_ext_$aem                          external static fixed bin(17,0)          dcl 1-8
gtss_ext_$aft                          external static structure                level 1 dcl 1-78
gtss_ext_$bad_drl_rtrn                 external static label variable           dcl 1-9
gtss_ext_$com_reg                      external static structure                level 1 dcl 1-45
gtss_ext_$db                           external static bit(1)                   array packed unaligned dcl 1-10
gtss_ext_$deferred_catalogs_ptr        external static pointer                  dcl 1-11
gtss_ext_$dispose_of_drl               external static label variable           dcl 1-12
gtss_ext_$drl_rtrn                     external static label variable           array dcl 1-13
gtss_ext_$drm_path                     external static char(168)                packed unaligned dcl 1-14
gtss_ext_$drun_jid                     external static char(5)                  packed unaligned dcl 1-15
gtss_ext_$event_channel                external static fixed bin(71,0)          dcl 1-16
gtss_ext_$fast_lib                     external static structure                level 1 dcl 1-98
gtss_ext_$finished                     external static label variable           dcl 1-17
gtss_ext_$flags                        external static structure                level 1 dcl 1-60
gtss_ext_$gdb_name                     external static char(8)                  packed unaligned dcl 1-18
gtss_ext_$get_line                     external static entry variable           dcl 1-19
gtss_ext_$hcs_work_area_ptr            external static pointer                  dcl 1-21
gtss_ext_$homedir                      external static char(64)                 packed unaligned dcl 1-22
gtss_ext_$last_k_was_out               external static bit(1)                   dcl 1-23
gtss_ext_$mcfc                         external static structure                level 1 dcl 1-109
gtss_ext_$pdir                         external static varying char(168)        dcl 1-24
gtss_ext_$popup_from_pi                external static label variable           dcl 1-25
gtss_ext_$ppt                          external static pointer                  dcl 1-94
gtss_ext_$process_type                 external static fixed bin(17,0)          dcl 1-26
gtss_ext_$put_chars                    external static entry variable           dcl 1-27
gtss_ext_$restart_from_pi              external static label variable           dcl 1-28
gtss_ext_$restart_seg_ptr              external static pointer                  dcl 1-29
gtss_ext_$sig_ptr                      external static pointer                  dcl 1-30
gtss_ext_$statistics                   external static structure                level 1 dcl 1-72
gtss_ext_$suspended_process            external static bit(1)                   packed unaligned dcl 1-32
gtss_ext_$user_id                      external static varying char(26)         dcl 1-34
gtss_ext_$work_area_ptr                external static pointer                  dcl 1-35
gtss_fault_processor_           000000 constant        entry                    external dcl 5-109
gtss_fault_processor_$timer_runout
                                000000 constant        entry                    external dcl 5-111
gtss_filact_error_status_       000000 constant        entry                    external dcl 5-112
gtss_filact_funct02_            000000 constant        entry                    external dcl 5-113
gtss_filact_funct03_            000000 constant        entry                    external dcl 5-114
gtss_filact_funct04_            000000 constant        entry                    external dcl 5-115
gtss_filact_funct05_            000000 constant        entry                    external dcl 5-116
gtss_filact_funct08_            000000 constant        entry                    external dcl 5-117
gtss_filact_funct10_            000000 constant        entry                    external dcl 5-118
gtss_filact_funct11_            000000 constant        entry                    external dcl 5-119
gtss_filact_funct14_            000000 constant        entry                    external dcl 5-120
gtss_filact_funct18_            000000 constant        entry                    external dcl 5-121
gtss_filact_funct19_            000000 constant        entry                    external dcl 5-122
gtss_filact_funct21_            000000 constant        entry                    external dcl 5-123
gtss_filact_funct22_            000000 constant        entry                    external dcl 5-124
gtss_find_cond_frame_           000000 constant        entry                    external dcl 5-110
gtss_interp_prim_               000000 constant        entry                    external dcl 5-126
gtss_interp_prim_$callss        000000 constant        entry                    external dcl 5-127
gtss_interp_prim_$sysret        000000 constant        entry                    external dcl 5-128
gtss_interp_prim_$t_goto        000000 constant        entry                    external dcl 5-129
gtss_ios_change_size_           000000 constant        entry                    external dcl 5-130
gtss_ios_close_                 000000 constant        entry                    external dcl 5-131
gtss_ios_exchange_names_        000000 constant        entry                    external dcl 5-132
gtss_ios_initialize_            000000 constant        entry                    external dcl 5-133
gtss_ios_io_                    000000 constant        entry                    external dcl 5-134
gtss_ios_open_                  000000 constant        entry                    external dcl 5-135
gtss_ios_position_              000000 constant        entry                    external dcl 5-136
gtss_mcfc_$close                000000 constant        entry                    external dcl 5-139
gtss_mcfc_$delete               000000 constant        entry                    external dcl 5-137
gtss_mcfc_$open                 000000 constant        entry                    external dcl 5-138
gtss_mcfc_empty                 000000 constant        entry                    external dcl 5-106
gtss_mcfc_init_                 000000 constant        entry                    external dcl 5-125
gtss_read_starCFP_              000000 constant        entry                    external dcl 5-140
gtss_read_starCFP_$last_os      000000 constant        entry                    external dcl 5-141
gtss_run_subsystem_             000000 constant        entry                    external dcl 5-142
gtss_run_subsystem_$finish      000000 constant        entry                    external dcl 5-143
gtss_run_subsystem_$restor      000000 constant        entry                    external dcl 5-144
gtss_run_subsystem_$restor_perm 000000 constant        entry                    external dcl 5-145
gtss_set_slave_                 000000 constant        entry                    external dcl 5-146
gtss_set_slave_$load_bar        000000 constant        entry                    external dcl 5-147
gtss_update_safe_store_         000000 constant        entry                    external dcl 5-148
gtss_verify_access_             000000 constant        entry                    external dcl 5-149
gtss_verify_access_$check_forced_access
                                000000 constant        entry                    external dcl 5-150
gtss_write_starCFP_             000000 constant        entry                    external dcl 5-151
lbx                                    internal static fixed bin(17,0)          initial dcl 3-42
lpx                                    internal static fixed bin(17,0)          initial dcl 3-42
sbx                                    internal static fixed bin(17,0)          initial dcl 3-42
scux                                   based           structure                level 1 dcl 3-207
spx                                    internal static fixed bin(17,0)          initial dcl 3-42

NAME DECLARED BY EXPLICIT CONTEXT.
gtss_drl_jsts_                  000047 constant        entry                    external dcl 9

NAMES DECLARED BY CONTEXT OR IMPLICATION.
addr                                                   builtin function         ref 45 52 52 74 74 76 77 78
addrel                                                 builtin function         ref 50 74 74
fixed                                                  builtin function         ref 47 47 47 47 50 71 71 71
length                                                 builtin function         ref 74 74 77
max                                                    builtin function         ref 71
rtrim                                                  builtin function         ref 74 74 77

STORAGE REQUIREMENTS FOR THIS PROGRAM.

	Object	Text	Link	Symbol	Defs	Static
Start          0       0       620         772     477         630
Length      1244     477       152         235     120         124

BLOCK NAME	         STACK SIZE     TYPE		WHY NONQUICK/WHO SHARES STACK FRAME
gtss_drl_jsts_                      122 external procedure  is an external procedure.

STORAGE FOR INTERNAL STATIC VARIABLES.

   LOC IDENTIFIER                  BLOCK NAME
000010 status_msg                  gtss_drl_jsts_

STORAGE FOR AUTOMATIC VARIABLES.

STACK FRAME                 LOC IDENTIFIER                  BLOCK NAME
gtss_drl_jsts_           000100 arg_list_ptr                gtss_drl_jsts_
                         000102 gseg                        gtss_drl_jsts_
                         000104 given_snumb                 gtss_drl_jsts_
                         000106 i                           gtss_drl_jsts_
                         000110 u_state_ptr                 gtss_drl_jsts_
                         000112 mcp                         gtss_drl_jsts_
                         000114 scup                        gtss_drl_jsts_

THE FOLLOWING EXTERNAL OPERATORS ARE USED BY THIS PROGRAM.
call_ext_out_desc   call_ext_out        return_mac          ext_entry

THE FOLLOWING EXTERNAL ENTRIES ARE CALLED BY THIS PROGRAM.
gtss_abort_subsystem_         gtss_ascii_bcd_               gtss_bcd_ascii_$lc            gtss_get_user_state_

THE FOLLOWING EXTERNAL VARIABLES ARE USED BY THIS PROGRAM.
gtss_ext_$gtss_slave_area_seg gtss_ext_$stack_level_        gtss_ust_ext_$ust


   LINE    LOC      LINE    LOC      LINE    LOC      LINE    LOC      LINE    LOC      LINE    LOC      LINE    LOC
      9 000043        98 000054        17 000056        45 000062        46 000064        47 000071        50 000147
     52 000156        54 000175        55 000204        56 000224        57 000226        58 000232        59 000236
     60 000241        62 000242        63 000253        65 000261        67 000264        70 000274        71 000277
     74 000372        76 000441        77 000446        78 000472        81 000474


                                          -----------------------------------------------------------


Historical Background

This edition of the Multics software materials and documentation is provided and donated
to Massachusetts Institute of Technology by Group BULL including BULL HN Information Systems Inc.
as a contribution to computer science knowledge.
This donation is made also to give evidence of the common contributions of Massachusetts Institute of Technology,
Bell Laboratories, General Electric, Honeywell Information Systems Inc., Honeywell BULL Inc., Groupe BULL
and BULL HN Information Systems Inc. to the development of this operating system.
Multics development was initiated by Massachusetts Institute of Technology Project MAC (1963-1970),
renamed the MIT Laboratory for Computer Science and Artificial Intelligence in the mid 1970s, under the leadership
of Professor Fernando Jose Corbato. Users consider that Multics provided the best software architecture
for managing computer hardware properly and for executing programs. Many subsequent operating systems
incorporated Multics principles.
Multics was distributed in 1975 to 2000 by Group Bull in Europe , and in the U.S. by Bull HN Information Systems Inc.,
as successor in interest by change in name only to Honeywell Bull Inc. and Honeywell Information Systems Inc. .

                                          -----------------------------------------------------------

Permission to use, copy, modify, and distribute these programs and their documentation for any purpose and without
fee is hereby granted,provided that the below copyright notice and historical background appear in all copies
and that both the copyright notice and historical background and this permission notice appear in supporting
documentation, and that the names of MIT, HIS, BULL or BULL HN not be used in advertising or publicity pertaining
to distribution of the programs without specific prior written permission.
    Copyright 1972 by Massachusetts Institute of Technology and Honeywell Information Systems Inc.
    Copyright 2006 by BULL HN Information Systems Inc.
    Copyright 2006 by Bull SAS
    All Rights Reserved
