	COMPILATION LISTING OF SEGMENT gtss_ios_initialize_
	Compiled by: Multics PL/I Compiler, Release 28d, of October 4, 1983
	Compiled at: Honeywell Multics Op. - System M
	Compiled on: 12/10/84  1348.2 mst Mon
	    Options: optimize map

        1 /* ***********************************************************
        2*   *                                                         *
        3*   *                                                         *
        4*   * Copyright, (C) Honeywell Information Systems Inc., 1981 *
        5*   *                                                         *
        6*   *                                                         *
        7*   *********************************************************** */
        8
        9 gtss_ios_initialize_: proc;
       10
       11 /* Initialize disk file data base file control
       12*   blocks structure to null pointers.
       13*
       14*   Author: Dave Ward	03/04/80 (derived from gtss_ios_)
       15**/
       16 	gtss_disk.fcb_ptr = null ();
       17 	return;
       18
       19 dcl null builtin;
       20 
  1     1 /* BEGIN INCLUDE FILE gtss_dfd_ext_.incl.pl1 */
  1     2 /*
  1     3*  Created:  (Wardd Multics)  06/09/78 1650.6 mst Fri
  1     4**/
  1     5
  1     6 dcl 1 gtss_dfd_ext_$disk_file_data (41) aligned ext,		/* disk_file_data structure */
  1     7
  1     8     3 gtss_disk,
  1     9       4 dir_name char (168) unal,			/* containing directory for file */
  1    10       4 entry_name char (32) unal,			/* entry name for file */
  1    11       4 fcb_ptr ptr aligned,				/* ptr to file control block */
  1    12       4 msf_array_ptr ptr,				/* Pointer to an array of pointers for a msf. Each
  1    13*						   component which has been accessed has a corresponding
  1    14*						   initialized pointer.  Currently 500 components
  1    15*						   are supported. */
  1    16       4 single_segment_ptr ptr,			/* Pointer to segment for single segment file */
  1    17       4 indicators aligned,				/* one word of flags */
  1    18
  1    19         5 msf bit (1) unaligned,			/* 1=msf segment | 0= single segment */
  1    20         5 protected_file bit (1) unaligned,		/* 1=file uses protections | 0= unprotected */
  1    21         5 fill bit (34) unal,
  1    22
  1    23       4 permissions aligned,
  1    24         5 read bit (1) unaligned,			/* 1=read permission  */
  1    25         5 execute bit (1) unaligned,			/* 1=execute permission */
  1    26         5 write bit (1) unaligned,			/* 1=write permission */
  1    27         5 fill2 bit (33) unaligned,			/* unused at this time */
  1    28
  1    29       4 access_mode bit (6) aligned,			/* contains the mode by which the file was accessed */
  1    30       4 component fixed bin,				/* current component value (first component = 0) */
  1    31       4 offset fixed bin (24),			/* current word offset in the component */
  1    32       4 file_position fixed bin (30),			/* current file position in words */
  1    33       4 file_size fixed bin (30),			/* size of file in words */
  1    34       4 no_components fixed bin (24),			/* number of components for a msf */
  1    35       4 attributes_ptr ptr,				/* Pointer to the attributes structure
  1    36*						   for this file. (See gtss_file_attributes.incl.pl1) */
  1    37
  1    38       4 pat_body,
  1    39
  1    40         5 word_0,
  1    41 	6 defective bit (1) unal,			/* 1 = file has defective space */
  1    42 	6 io_errors bit (1) unal,			/* 1 = I/O errors encountered on file */
  1    43 	6 reserved bit (2) unal,			/* Reserved for GCOS */
  1    44 	6 sct bit (12) unal,			/* address of SCT for device on which
  1    45*						   file begins or if cataloged,
  1    46*						   for device with file catalog entry */
  1    47 	6 reserved2 bit (2) unal,			/* Reserved for GCOS */
  1    48
  1    49         5 word_1,
  1    50 	6 io_time fixed bin (35),			/* I/O time for this file */
  1    51
  1    52         5 word_2,
  1    53 	6 protected bit (1) unal,			/* 1 = file has protected allocation */
  1    54 	6 hash_code bit (5) unal,			/* hash code of user name under which
  1    55*						   file is cataloged */
  1    56 	6 not_cat bit (1) unal,			/* 1 = file is not cataloged */
  1    57 	6 last_desc bit (1) unal,			/* 1 = last descriptor for file is not in memory */
  1    58 	6 random bit (1) unal,			/* 1 = access to file is random */
  1    59 	6 perm bit (1) unal,			/* 1 = file space is permanently assigned */
  1    60 	6 first_desc bit (1) unal,			/* 1 = first descriptor for file is not in memory */
  1    61 	6 creator bit (1) unal,			/* 1 = user is not creator of file */
  1    62 	6 disposition bit (2) unal,			/* Abort disposition code
  1    63*						   00 = Release
  1    64*						   01 = Dismount
  1    65*						   10 = Save
  1    66*						   11 = Continue */
  1    67 	6 ids1 bit (1) unal,			/* 1 = file is an I-D-S/I file */
  1    68 	6 write_performed bit (1) unal,		/* 1 = write was performed on file */
  1    69 	6 unpermitted_access bit (1) unal,		/* 1 = unpermitted access to file attempted or seek
  1    70*						   attempted to part of file marked defective (only
  1    71*						   for procted allocation) */
  1    72 	6 purge bit (1) unal,			/* 1 = file space to be purgedbefore deallocating file. */
  1    73 	6 sector_number bit (18) unal,		/* If cataloged file, sector number of file catalog
  1    74*						   (on device with SCT referenced in word 0).  If
  1    75*						   cataloged file that is proctected (bit 0 ON in this
  1    76*						   word), memory location of table in File Management
  1    77*						   Supervisor Executive.  If user temporary file,
  1    78*						   largest size file has ever attained, in llinks.
  1    79*						   If system value equals 777777 octal, it is system
  1    80*						   file created by System Input. */
  1    81
  1    82         5 word_3,
  1    83 	6 llink_size bit (14) unal,			/* 0-13 ^= 0, Current total file size in llinks
  1    84*						   0-13 = 0, File size is greater than 16,383 llinks,
  1    85*						   and if the file is cataloged, call to .MFS19,5 with
  1    86*						   offset to PAT pointer in index 5 will cause bits
  1    87*						   14-35 of Q-register to be set to file size. (Unless
  1    88*						   there is a Seek error on file catalog in which case
  1    89*						   zero is returned. )
  1    90*						   */
  1    91 	6 llink_position bit (22) unal,		/* Relative llink position within the space descriptors
  1    92*						   in memory. */
  1    93
  1    94         5 word_4,
  1    95 	6 not_last_desc bit (1) unal,			/* 1 = not last descriptor in memory */
  1    96 	6 space_desc bit (1) unal,			/* 0 = this is space descriptor */
  1    97 	6 space_defective bit (1) unal,		/* 1 = Space is defective */
  1    98 	6 extent bit (15) unal,			/* Number of llinks in this extent (area defined by this
  1    99*						   descriptor) */
  1   100 	6 origin bit (18) unal;			/* device llinks number of origin of this extent */
  1   101 /*   END INCLUDE FILE gtss_dfd_ext_.incl.pl1 */
       21
       22      end						/* gtss_ios_initialize_ */;
	SOURCE FILES USED IN THIS COMPILATION.

LINE      NUMBER  DATE MODIFIED     NAME			PATHNAME
             0    12/10/84  1044.2  gtss_ios_initialize_.pl1          >spec>on>7105>gtss_ios_initialize_.pl1
21           1    09/09/83  1713.2  gtss_dfd_ext_.incl.pl1            >ldd>include>gtss_dfd_ext_.incl.pl1
	NAMES DECLARED IN THIS COMPILATION.

IDENTIFIER	     OFFSET    LOC STORAGE CLASS   DATA TYPE		ATTRIBUTES AND REFERENCES
								(* indicates a set context)

NAMES DECLARED BY DECLARE STATEMENT.
fcb_ptr                  62     000010 external static pointer                  array level 3 dcl 1-6 set ref 16*
gtss_dfd_ext_$disk_file_data    000010 external static structure                array level 1 dcl 1-6
gtss_disk                       000010 external static structure                array level 2 dcl 1-6
null                                                   builtin function         dcl 19 ref 16

NAME DECLARED BY EXPLICIT CONTEXT.
gtss_ios_initialize_            000003 constant        entry                    external dcl 9

THERE WERE NO NAMES DECLARED BY CONTEXT OR IMPLICATION.

STORAGE REQUIREMENTS FOR THIS PROGRAM.

	Object	Text	Link	Symbol	Defs	Static
Start          0       0        70         102      26         100
Length       262      26        12         144      42           0

BLOCK NAME	         STACK SIZE     TYPE		WHY NONQUICK/WHO SHARES STACK FRAME
gtss_ios_initialize_                 66 external procedure  is an external procedure.

THE FOLLOWING EXTERNAL OPERATORS ARE USED BY THIS PROGRAM.
return              ext_entry

NO EXTERNAL ENTRIES ARE CALLED BY THIS PROGRAM.

THE FOLLOWING EXTERNAL VARIABLES ARE USED BY THIS PROGRAM.
gtss_dfd_ext_$disk_file_data


   LINE    LOC      LINE    LOC      LINE    LOC      LINE    LOC      LINE    LOC      LINE    LOC      LINE    LOC
      9 000002        16 000010        17 000025


                                          -----------------------------------------------------------


Historical Background

This edition of the Multics software materials and documentation is provided and donated
to Massachusetts Institute of Technology by Group BULL including BULL HN Information Systems Inc.
as a contribution to computer science knowledge.
This donation is made also to give evidence of the common contributions of Massachusetts Institute of Technology,
Bell Laboratories, General Electric, Honeywell Information Systems Inc., Honeywell BULL Inc., Groupe BULL
and BULL HN Information Systems Inc. to the development of this operating system.
Multics development was initiated by Massachusetts Institute of Technology Project MAC (1963-1970),
renamed the MIT Laboratory for Computer Science and Artificial Intelligence in the mid 1970s, under the leadership
of Professor Fernando Jose Corbato. Users consider that Multics provided the best software architecture
for managing computer hardware properly and for executing programs. Many subsequent operating systems
incorporated Multics principles.
Multics was distributed in 1975 to 2000 by Group Bull in Europe , and in the U.S. by Bull HN Information Systems Inc.,
as successor in interest by change in name only to Honeywell Bull Inc. and Honeywell Information Systems Inc. .

                                          -----------------------------------------------------------

Permission to use, copy, modify, and distribute these programs and their documentation for any purpose and without
fee is hereby granted,provided that the below copyright notice and historical background appear in all copies
and that both the copyright notice and historical background and this permission notice appear in supporting
documentation, and that the names of MIT, HIS, BULL or BULL HN not be used in advertising or publicity pertaining
to distribution of the programs without specific prior written permission.
    Copyright 1972 by Massachusetts Institute of Technology and Honeywell Information Systems Inc.
    Copyright 2006 by BULL HN Information Systems Inc.
    Copyright 2006 by Bull SAS
    All Rights Reserved
