ASSEMBLY LISTING OF SEGMENT >special_ldd>install>MR12.2-1165>imft_et_.alm
ASSEMBLED ON:	10/14/88  1214.1 mst Fri
OPTIONS USED:	-target l68                              list symbols
ASSEMBLED BY:	ALM Version 7.4 April 1987
ASSEMBLER CREATED:	11/02/87  1303.7 mst Mon

                                     1  " ***********************************************************
                                     2  " *                                                         *
                                     3  " * Copyright, (C) Honeywell Bull Inc., 1988                *
                                     4  " *                                                         *
                                     5  " * Copyright, (C) Honeywell Information Systems Inc., 1982 *
                                     6  " *                                                         *
                                     7  " ***********************************************************
                                     8
                                     9  " Error table for the Inter-Multics File Transfer Facility
                                    10
                                    11  " Created:  April 1982 by G. Palter
                                    12  " Modified: July 1982 by G. Palter for true AIM support
                                    13
                                    14
                                    15  " HISTORY COMMENTS:
                                    16  "  1) change(88-07-11,Beattie), approve(88-08-01,MCR7948),
                                    17  "     audit(88-10-11,Farley), install(88-10-14,MR12.2-1165):
                                    18  "     Add entry for mismatching versions.
                                    19  "                                                      END HISTORY COMMENTS
                                    20
                                    21
    000000                          22  	name	imft_et_
                                    23
                                    24  	include	et_macros
                                   1-1  " Begin include file ...... et_macros.incl.alm
                                   1-2  "	Written 6/15/77 by Noel I. Morris
                                   1-3  "	Modified '82 so error code entries are in first page of segment.
                                   1-4
                                   1-5  " This include file contains macros for generating error tables
                                   1-6  " for both system and non-system use.
                                   1-7
                                   1-8  " ET MACRO
                                   1-9  "
                                  1-10  " This macro is used to initialize the error table for either
                                  1-11  " system or non-system use.  It is invoked at the beginning of
                                  1-12  " the error table as follows:
                                  1-13  "
                                  1-14  "	et	table_name{,system}
                                  1-15  "
                                  1-16
                                  1-17  macro	et
                              1   1-18  	maclist	on
                              2   1-19
                              3   1-20  	name	&1
                              4   1-21
                              5   1-22  &^=&2,system&[
                              6   1-23
                              7   1-24  	include	stack_header
                              8   1-25
                              9   1-26  
                             10   1-27
                             11   1-28  	use	codes
                             12   1-29  .code_start:
                             13   1-30
                             14   1-31  	use	past_codes
                             15   1-32  .code_end:
                             16   1-33
                             17   1-34  	join	/link/codes,past_codes
                             18   1-35
                             19   1-36  	use	messages
                             20   1-37
                             21   1-38  .trapproc:
                             22   1-39  	epaq	0,ic
                             23   1-40  	eax0	0,au
                             24   1-41  	epbpsb	sp|0
                             25   1-42  	lprplp	sb|stack_header.lot_ptr,*au
                             26   1-43  	eax1	.code_start
                             27   1-44  .loop:	stx0	lp|0,x1
                             28   1-45  	eax1	1,x1
                             29   1-46  	cmpx1	.code_end,du
                             30   1-47  	tmi	.loop-*,ic
                             31   1-48  	short_return
                             32   1-49
                             33   1-50  	firstref	<*text>|.trapproc
                             34   1-51
                             35   1-52  &;	use	codes
                             36   1-53  	use	messages
                             37   1-54
                             38   1-55  	join	/text/codes,messages
                             39   1-56
                             40   1-57  &]
                             41   1-58
                             42   1-59  	bool	.segno,77777
                             43   1-60
                             44   1-61  	maclist	off
                             45   1-62
                             46   1-63  	&end
                                  1-64
                                  1-65  
                                  1-66
                                  1-67  " EC MACRO
                                  1-68  "
                                  1-69  " This macro is used to define an error code as shown:
                                  1-70  "
                                  1-71  "	ec	name,{short_mess},(long_mess)
                                  1-72  "
                                  1-73  " If more than a single name is to be defined for a given message,
                                  1-74  " a list of names separated by commas and enclosed in parentheses
                                  1-75  " must be given.   short_mess must be 8 or less characters.  If omitted,
                                  1-76  " the short_mess will be set to the name.  long_mess is enclosed
                                  1-77  " in parentheses in order to cause ALM to ignore embedded blanks.  Please
                                  1-78  " note that double quote characters in either short_mess or long_mess
                                  1-79  " must be doubled in order to make the ALM assembly work properly.
                                  1-80  " Note that a macro invocation line terminated by a comma will cause that
                                  1-81  " statement to be continued on the next line.
                                  1-82
                                  1-83  macro	ec
                              1   1-84  	use	codes
                              2   1-85
                              3   1-86  	maclist	on,save
                              4   1-87  &(1	segdef  &i
                              5   1-88  &)	maclist	restore
                              6   1-89  &(1&i:
                              7   1-90  &)	maclist	object,save
                              8   1-91  	zero	.segno,&U
                              9   1-92  	maclist	restore
                             10   1-93  	use	messages
                             11   1-94  &^=&l2,0&[	shortname    &2
                             12   1-95  &;	shortname    &1
                             13   1-96  &]
                             14   1-97  &U:
                             15   1-98  	maclist	on,save
                             16   1-99  	acc  "&3"
                             17  1-100
                             18  1-101  	maclist	restore
                             19  1-102  	&end
                                 1-103
                                 1-104  macro	shortname
                              1  1-105  	maclist	on,save
                              2  1-106  	aci  "&1",8
                              3  1-107  	maclist	restore
                              4  1-108  	&end
                                 1-109
                                 1-110  
                                 1-111
                                 1-112  " A typical error table source program might have the following format:
                                 1-113  "
                                 1-114  "	include	et_macros
                                 1-115  "
                                 1-116  "	et	name_of_error_table
                                 1-117  "
                                 1-118  "	ec	error_code_1,ecode1,(This is error code 1.)
                                 1-119  "
                                 1-120  "	ec	error_code_2,ecode2,(This is error code 2.)
                                 1-121  "
                                 1-122  "	:	     :	      :		:
                                 1-123  "
                                 1-124  "	ec	error_code_n,ecoden,(This is the nth error code.)
                                 1-125  "
                                 1-126  "	end
                                 1-127  "
                                 1-128
                                 1-129  " End of include file ...... et_macros.incl.alm
                                 1-130
                                    25
                                    26  	et	imft_et_

    000000                              	name	imft_et_


                                        	include	stack_header
                                   2-1  "	BEGIN INCLUDE FILE ... stack_header.incl.alm  3/72  Bill Silver
                                   2-2  "
                                   2-3  "	modified 7/76 by M. Weaver for *system links and more system use of areas
                                   2-4  "	modified 3/77 by M. Weaver  to add rnt_ptr
                                   2-5  "	modified 7/77 by S. Webber to add run_unit_depth and assign_linkage_ptr
                                   2-6  "	modified 6/83 by J. Ives to add trace_frames and in_trace.
                                   2-7
                                   2-8  " HISTORY COMMENTS:
                                   2-9  "  1) change(86-06-24,DGHowe), approve(86-06-24,MCR7396),
                                  2-10  "     audit(86-08-05,Schroth), install(86-11-03,MR12.0-1206):
                                  2-11  "     added the heap_header_ptr definition
                                  2-12  "  2) change(86-08-12,Kissel), approve(86-08-12,MCR7473),
                                  2-13  "     audit(86-10-10,Fawcett), install(86-11-03,MR12.0-1206):
                                  2-14  "     Modified to support control point management.  These changes were
                                  2-15  "     actually made in February 1985 by G. Palter.
                                  2-16  "  3) change(86-10-22,Fawcett), approve(86-10-22,MCR7473),
                                  2-17  "     audit(86-10-22,Farley), install(86-11-03,MR12.0-1206):
                                  2-18  "     Remove the old_lot pointer and replace it with cpm_data_ptr. Use the 18
                                  2-19  "     bit pad after cur_lot_size for the cpm_enabled. This was done to save
                                  2-20  "     some space int the stack header and change the cpd_ptr unal to
                                  2-21  "     cpm_data_ptr (ITS pair).
                                  2-22  "                                                      END HISTORY COMMENTS
                                  2-23
                        000004    2-24  	equ	stack_header.cpm_data_ptr,4		ptr to control point for this stack
                        000006    2-25  	equ	stack_header.combined_stat_ptr,6	ptr to separate static area
                                  2-26
                        000010    2-27  	equ	stack_header.clr_ptr,8		ptr to area containing linkage sections
                        000012    2-28  	equ	stack_header.max_lot_size,10		number of words allowed in lot (DU)
                        000012    2-29  	equ	stack_header.main_proc_invoked,10	nonzero if main proc was invoked in run unit (DL)
                        000012    2-30  	equ	stack_header.run_unit_depth,10	number of active run units stacked (DL)
                        000013    2-31  	equ	stack_header.cur_lot_size,11		DU number of words (entries) in lot
                        000013    2-32            equ	stack_header.cpm_enabled,11		DL  non-zero if control point management is enabled
                        000014    2-33  	equ	stack_header.system_free_ptr,12	ptr to system storage area
                        000016    2-34  	equ	stack_header.user_free_ptr,14		ptr to user storage area
                                  2-35
                        000020    2-36  	equ	stack_header.parent_ptr,16		ptr to parent stack or null
                        000022    2-37  	equ	stack_header.stack_begin_ptr,18	ptr to first stack frame
                        000024    2-38  	equ	stack_header.stack_end_ptr,20		ptr to next useable stack frame
                        000026    2-39  	equ	stack_header.lot_ptr,22		ptr to the lot for the current ring
                                  2-40
                        000030    2-41  	equ	stack_header.signal_ptr,24		ptr to signal proc for current ring
                        000032    2-42  	equ	stack_header.bar_mode_sp,26		value of sp before entering bar mode
                        000034    2-43  	equ	stack_header.pl1_operators_ptr,28	ptr: pl1_operators_$operator_table
                        000036    2-44  	equ	stack_header.call_op_ptr,30		ptr to standard call operator
                                  2-45
                        000040    2-46  	equ	stack_header.push_op_ptr,32		ptr to standard push operator
                        000042    2-47  	equ	stack_header.return_op_ptr,34		ptr to standard return operator
                        000044    2-48  	equ	stack_header.ret_no_pop_op_ptr,36	ptr: stand. return/ no pop operator
                        000046    2-49  	equ	stack_header.entry_op_ptr,38		ptr to standard entry operator
                                  2-50
                        000050    2-51  	equ	stack_header.trans_op_tv_ptr,40	ptr to table of translator operator ptrs
                        000052    2-52  	equ	stack_header.isot_ptr,42		pointer to ISOT
                        000054    2-53  	equ	stack_header.sct_ptr,44		pointer to System Condition Table
                        000056    2-54  	equ	stack_header.unwinder_ptr,46		pointer to unwinder for current ring
                                  2-55
                        000060    2-56  	equ	stack_header.sys_link_info_ptr,48	ptr to *system link name table
                        000062    2-57  	equ	stack_header.rnt_ptr,50		ptr to reference name table
                        000064    2-58  	equ	stack_header.ect_ptr,52		ptr to event channel table
                        000066    2-59  	equ	stack_header.assign_linkage_ptr,54	ptr to area for hcs_$assign_linkage calls
                        000070    2-60  	equ	stack_header.heap_header_ptr,56	ptr to heap header.
                        000072    2-61  	equ	stack_header.trace_frames,58		stack of trace_catch_ frames
                        000073    2-62  	equ	stach_header.trace_top_ptr,59		trace pointer
                        000074    2-63  	equ	stack_header.in_trace,60		trace antirecurse bit
                        000100    2-64  	equ	stack_header_end,64			length of stack header
                                  2-65
                                  2-66
                                  2-67
                                  2-68
                        000000    2-69  	equ	trace_frames.count,0		number of trace frames on stack
                        000001    2-70  	equ	trace_frames.top_ptr,1		packed pointer to top one
                                  2-71
                                  2-72  "	The  following constant is an offset within the  pl1  operators table.
                                  2-73  "	It  references a  transfer vector table.
                                  2-74
                        000551    2-75  	bool	tv_offset,551
                                  2-76
                                  2-77
                                  2-78  "	The  following constants are offsets within this transfer vector table.
                                  2-79
                        001170    2-80  	equ	call_offset,tv_offset+271
                        001171    2-81  	equ	push_offset,tv_offset+272
                        001172    2-82  	equ	return_offset,tv_offset+273
                        001173    2-83  	equ	return_no_pop_offset,tv_offset+274
                        001174    2-84  	equ	entry_offset,tv_offset+275
                                  2-85
                                  2-86
                                  2-87  " 	END INCLUDE FILE stack_header.incl.alm

                                        

                                        	use	codes
    000010                              .code_start:

                                        	use	past_codes
    000027                              .code_end:

                                        	join	/link/codes,past_codes

                                        	use	messages

    000000                              .trapproc:
    000000  aa   000000 2130 04         	epaq	0,ic
    000001  aa   000000 6200 01         	eax0	0,au
    000002  aa  6 00000 3731 00         	epbpsb	sp|0
    000003  aa  7 00026 7641 61         	lprplp	sb|stack_header.lot_ptr,*au
    000004  8a   000010 6210 00         	eax1	.code_start
    000005  aa  4 00000 7401 11         .loop:	stx0	lp|0,x1
    000006  aa   000001 6210 11         	eax1	1,x1
    000007  8a   000027 1010 03         	cmpx1	.code_end,du
    000010  aa   777775 6040 04         	tmi	.loop-*,ic
    000011  aa  7 00044 7101 20         	short_return

    000012                              	firstref	<*text>|.trapproc


                        077777          	bool	.segno,77777

                                    27
                                    28
                                    29  ec   cant_access_pnt,nopnt,
                                    30  	(IMFT driver process can not access the system PNT.)
                        000010          	segdef  cant_access_pnt
    000010  a0   077777 000014
    000012  aa  156 157 160 156         	aci  "nopnt",8
    000013  aa  164 040 040 040
    000014  aa  062 111 115 106         	acc  "IMFT driver process can not access the system PNT."
    000015  aa  124 040 144 162
    000016  aa  151 166 145 162
    000017  aa  040 160 162 157
    000020  aa  143 145 163 163
    000021  aa  040 143 141 156
    000022  aa  040 156 157 164
    000023  aa  040 141 143 143
    000024  aa  145 163 163 040
    000025  aa  164 150 145 040
    000026  aa  163 171 163 164
    000027  aa  145 155 040 120
    000030  aa  116 124 056 000

                                    31
                                    32  ec   cant_get_channel_names,nochnnms,
                                    33  	(IMFT driver can not determine the names of the channels used for data transmission.)
                        000011          	segdef  cant_get_channel_names
    000011  a0   077777 000033
    000031  aa  156 157 143 150         	aci  "nochnnms",8
    000032  aa  156 156 155 163
    000033  aa  123 111 115 106         	acc  "IMFT driver can not determine the names of the channels used for data transmission."
    000034  aa  124 040 144 162
    000035  aa  151 166 145 162
    000036  aa  040 143 141 156
    000037  aa  040 156 157 164
    000040  aa  040 144 145 164
    000041  aa  145 162 155 151
    000042  aa  156 145 040 164
    000043  aa  150 145 040 156
    000044  aa  141 155 145 163
    000045  aa  040 157 146 040
    000046  aa  164 150 145 040
    000047  aa  143 150 141 156
    000050  aa  156 145 154 163
    000051  aa  040 165 163 145
    000052  aa  144 040 146 157
    000053  aa  162 040 144 141
    000054  aa  164 141 040 164
    000055  aa  162 141 156 163
    000056  aa  155 151 163 163
    000057  aa  151 157 156 056

                                    34
                                    35  ec   computed_ceiling_mismatch,^eqcc,
                                    36  	(Local and remote systems did not compute the same access class ceiling.)
                        000012          	segdef  computed_ceiling_mismatch
    000012  a0   077777 000062
    000060  aa  136 145 161 143         	aci  "^eqcc",8
    000061  aa  143 040 040 040
    000062  aa  107 114 157 143         	acc  "Local and remote systems did not compute the same access class ceiling."
    000063  aa  141 154 040 141
    000064  aa  156 144 040 162
    000065  aa  145 155 157 164
    000066  aa  145 040 163 171
    000067  aa  163 164 145 155
    000070  aa  163 040 144 151
    000071  aa  144 040 156 157
    000072  aa  164 040 143 157
    000073  aa  155 160 165 164
    000074  aa  145 040 164 150
    000075  aa  145 040 163 141
    000076  aa  155 145 040 141
    000077  aa  143 143 145 163
    000100  aa  163 040 143 154
    000101  aa  141 163 163 040
    000102  aa  143 145 151 154
    000103  aa  151 156 147 056

                                    37
                                    38  ec   explicit_ceiling_mismatch,^eqec,
                                    39  	(max_access_class specified on local and remote systems are isolated.)
                        000013          	segdef  explicit_ceiling_mismatch
    000013  a0   077777 000106
    000104  aa  136 145 161 145         	aci  "^eqec",8
    000105  aa  143 040 040 040
    000106  aa  104 155 141 170         	acc  "max_access_class specified on local and remote systems are isolated."
    000107  aa  137 141 143 143
    000110  aa  145 163 163 137
    000111  aa  143 154 141 163
    000112  aa  163 040 163 160
    000113  aa  145 143 151 146
    000114  aa  151 145 144 040
    000115  aa  157 156 040 154
    000116  aa  157 143 141 154
    000117  aa  040 141 156 144
    000120  aa  040 162 145 155
    000121  aa  157 164 145 040
    000122  aa  163 171 163 164
    000123  aa  145 155 163 040
    000124  aa  141 162 145 040
    000125  aa  151 163 157 154
    000126  aa  141 164 145 144
    000127  aa  056 000 000 000

                                    40
                                    41  ec   explicit_floor_mismatch,^eqef,
                                    42  	(min_access_class specified on local and remote systems are isolated.)
                        000014          	segdef  explicit_floor_mismatch
    000014  a0   077777 000132
    000130  aa  136 145 161 145         	aci  "^eqef",8
    000131  aa  146 040 040 040
    000132  aa  104 155 151 156         	acc  "min_access_class specified on local and remote systems are isolated."
    000133  aa  137 141 143 143
    000134  aa  145 163 163 137
    000135  aa  143 154 141 163
    000136  aa  163 040 163 160
    000137  aa  145 143 151 146
    000140  aa  151 145 144 040
    000141  aa  157 156 040 154
    000142  aa  157 143 141 154
    000143  aa  040 141 156 144
    000144  aa  040 162 145 155
    000145  aa  157 164 145 040
    000146  aa  163 171 163 164
    000147  aa  145 155 163 040
    000150  aa  141 162 145 040
    000151  aa  151 163 157 154
    000152  aa  141 164 145 144
    000153  aa  056 000 000 000

                                    43
                                    44  ec   no_card_password,^pass,
                                    45  	(Person_id specified does not have a card input password.)
                        000015          	segdef  no_card_password
    000015  a0   077777 000156
    000154  aa  136 160 141 163         	aci  "^pass",8
    000155  aa  163 040 040 040
    000156  aa  070 120 145 162         	acc  "Person_id specified does not have a card input password."
    000157  aa  163 157 156 137
    000160  aa  151 144 040 163
    000161  aa  160 145 143 151
    000162  aa  146 151 145 144
    000163  aa  040 144 157 145
    000164  aa  163 040 156 157
    000165  aa  164 040 150 141
    000166  aa  166 145 040 141
    000167  aa  040 143 141 162
    000170  aa  144 040 151 156
    000171  aa  160 165 164 040
    000172  aa  160 141 163 163
    000173  aa  167 157 162 144
    000174  aa  056 000 000 000

                                    46
                                    47  ec   no_person_id,^id,
                                    48  	(Person_id specified does not exist.)
                        000016          	segdef  no_person_id
    000016  a0   077777 000177
    000175  aa  136 151 144 040         	aci  "^id",8
    000176  aa  040 040 040 040
    000177  aa  043 120 145 162         	acc  "Person_id specified does not exist."
    000200  aa  163 157 156 137
    000201  aa  151 144 040 163
    000202  aa  160 145 143 151
    000203  aa  146 151 145 144
    000204  aa  040 144 157 145
    000205  aa  163 040 156 157
    000206  aa  164 040 145 170
    000207  aa  151 163 164 056

                                    49
                                    50  ec   non_matching_ids,^mtchids,
                                    51  	(Person_ids on local and remote systems do not match.)
                        000017          	segdef  non_matching_ids
    000017  a0   077777 000212
    000210  aa  136 155 164 143         	aci  "^mtchids",8
    000211  aa  150 151 144 163
    000212  aa  064 120 145 162         	acc  "Person_ids on local and remote systems do not match."
    000213  aa  163 157 156 137
    000214  aa  151 144 163 040
    000215  aa  157 156 040 154
    000216  aa  157 143 141 154
    000217  aa  040 141 156 144
    000220  aa  040 162 145 155
    000221  aa  157 164 145 040
    000222  aa  163 171 163 164
    000223  aa  145 155 163 040
    000224  aa  144 157 040 156
    000225  aa  157 164 040 155
    000226  aa  141 164 143 150
    000227  aa  056 000 000 000

                                    52
                                    53  ec   non_matching_passwords,^mtchpas,
                                    54  	(Card input passwords on local and remote systems do not match.)
                        000020          	segdef  non_matching_passwords
    000020  a0   077777 000232
    000230  aa  136 155 164 143         	aci  "^mtchpas",8
    000231  aa  150 160 141 163
    000232  aa  076 103 141 162         	acc  "Card input passwords on local and remote systems do not match."
    000233  aa  144 040 151 156
    000234  aa  160 165 164 040
    000235  aa  160 141 163 163
    000236  aa  167 157 162 144
    000237  aa  163 040 157 156
    000240  aa  040 154 157 143
    000241  aa  141 154 040 141
    000242  aa  156 144 040 162
    000243  aa  145 155 157 164
    000244  aa  145 040 163 171
    000245  aa  163 164 145 155
    000246  aa  163 040 144 157
    000247  aa  040 156 157 164
    000250  aa  040 155 141 164
    000251  aa  143 150 056 000

                                    55
                                    56  ec   non_matching_versions,^mtchvrs,
                                    57  	(Remote system IMFT version does not match specification on local system.)
                        000021          	segdef  non_matching_versions
    000021  a0   077777 000254
    000252  aa  136 155 164 143         	aci  "^mtchvrs",8
    000253  aa  150 166 162 163
    000254  aa  110 122 145 155         	acc  "Remote system IMFT version does not match specification on local system."
    000255  aa  157 164 145 040
    000256  aa  163 171 163 164
    000257  aa  145 155 040 111
    000260  aa  115 106 124 040
    000261  aa  166 145 162 163
    000262  aa  151 157 156 040
    000263  aa  144 157 145 163
    000264  aa  040 156 157 164
    000265  aa  040 155 141 164
    000266  aa  143 150 040 163
    000267  aa  160 145 143 151
    000270  aa  146 151 143 141
    000271  aa  164 151 157 156
    000272  aa  040 157 156 040
    000273  aa  154 157 143 141
    000274  aa  154 040 163 171
    000275  aa  163 164 145 155
    000276  aa  056 000 000 000

                                    58
                                    59  ec   not_synchronized,^sync,
                                    60  	(Remote system is not sychronized with local system.)
                        000022          	segdef  not_synchronized
    000022  a0   077777 000301
    000277  aa  136 163 171 156         	aci  "^sync",8
    000300  aa  143 040 040 040
    000301  aa  063 122 145 155         	acc  "Remote system is not sychronized with local system."
    000302  aa  157 164 145 040
    000303  aa  163 171 163 164
    000304  aa  145 155 040 151
    000305  aa  163 040 156 157
    000306  aa  164 040 163 171
    000307  aa  143 150 162 157
    000310  aa  156 151 172 145
    000311  aa  144 040 167 151
    000312  aa  164 150 040 154
    000313  aa  157 143 141 154
    000314  aa  040 163 171 163
    000315  aa  164 145 155 056

                                    61
                                    62  ec   process_authorization_too_low,palow,
                                    63  	(Maximum access class for data transfer is greater than process authorization.)
                        000023          	segdef  process_authorization_too_low
    000023  a0   077777 000320
    000316  aa  160 141 154 157         	aci  "palow",8
    000317  aa  167 040 040 040
    000320  aa  115 115 141 170         	acc  "Maximum access class for data transfer is greater than process authorization."
    000321  aa  151 155 165 155
    000322  aa  040 141 143 143
    000323  aa  145 163 163 040
    000324  aa  143 154 141 163
    000325  aa  163 040 146 157
    000326  aa  162 040 144 141
    000327  aa  164 141 040 164
    000330  aa  162 141 156 163
    000331  aa  146 145 162 040
    000332  aa  151 163 040 147
    000333  aa  162 145 141 164
    000334  aa  145 162 040 164
    000335  aa  150 141 156 040
    000336  aa  160 162 157 143
    000337  aa  145 163 163 040
    000340  aa  141 165 164 150
    000341  aa  157 162 151 172
    000342  aa  141 164 151 157
    000343  aa  156 056 000 000

                                    64
                                    65  ec   reply_pending,rpypndg,
                                    66  	(Reply to previous command pending.)
                        000024          	segdef  reply_pending
    000024  a0   077777 000346
    000344  aa  162 160 171 160         	aci  "rpypndg",8
    000345  aa  156 144 147 040
    000346  aa  042 122 145 160         	acc  "Reply to previous command pending."
    000347  aa  154 171 040 164
    000350  aa  157 040 160 162
    000351  aa  145 166 151 157
    000352  aa  165 163 040 143
    000353  aa  157 155 155 141
    000354  aa  156 144 040 160
    000355  aa  145 156 144 151
    000356  aa  156 147 056 000

                                    67
                                    68  ec   timeout,timeout,
                                    69  	(Attempt to read/write record timed out.)
                        000025          	segdef  timeout
    000025  a0   077777 000361
    000357  aa  164 151 155 145         	aci  "timeout",8
    000360  aa  157 165 164 040
    000361  aa  047 101 164 164         	acc  "Attempt to read/write record timed out."
    000362  aa  145 155 160 164
    000363  aa  040 164 157 040
    000364  aa  162 145 141 144
    000365  aa  057 167 162 151
    000366  aa  164 145 040 162
    000367  aa  145 143 157 162
    000370  aa  144 040 164 151
    000371  aa  155 145 144 040
    000372  aa  157 165 164 056

                                    70
                                    71  ec   unknown_status_code,badcode,
                                    72  	(Status code from remote system is not recognized by this driver.)
                        000026          	segdef  unknown_status_code
    000026  a0   077777 000375
    000373  aa  142 141 144 143         	aci  "badcode",8
    000374  aa  157 144 145 040
    000375  aa  100 123 164 141         	acc  "Status code from remote system is not recognized by this driver."
    000376  aa  164 165 163 040
    000377  aa  143 157 144 145
    000400  aa  040 146 162 157
    000401  aa  155 040 162 145
    000402  aa  155 157 164 145
    000403  aa  040 163 171 163
    000404  aa  164 145 155 040
    000405  aa  151 163 040 156
    000406  aa  157 164 040 162
    000407  aa  145 143 157 147
    000410  aa  156 151 172 145
    000411  aa  144 040 142 171
    000412  aa  040 164 150 151
    000413  aa  163 040 144 162
    000414  aa  151 166 145 162
    000415  aa  056 000 000 000

                                    73
                                    74  	end

NO LITERALS

NAME DEFINITIONS FOR ENTRY POINTS AND SEGDEFS

    000416  5a   000003 000000
    000417  5a   000215 600000
    000420  aa   000000 000000
    000421  55   000011 000002
    000422  5a   000002 400003
    000423  55   000006 000011
    000424  aa  010 151 155 146
    000425  aa  164 137 145 164
    000426  aa  137 000 000 000
    000427  55   000021 000003
    000430  2a   000026 400001
    000431  55   000014 000003
    000432  aa  023 165 156 153         unknown_status_code
    000433  aa  156 157 167 156
    000434  aa  137 163 164 141
    000435  aa  164 165 163 137
    000436  aa  143 157 144 145
    000437  55   000026 000011
    000440  2a   000025 400001
    000441  55   000024 000003
    000442  aa  007 164 151 155         timeout
    000443  aa  145 157 165 164
    000444  55   000035 000021
    000445  2a   000024 400001
    000446  55   000031 000003
    000447  aa  015 162 145 160         reply_pending
    000450  aa  154 171 137 160
    000451  aa  145 156 144 151
    000452  aa  156 147 000 000
    000453  55   000050 000026
    000454  2a   000023 400001
    000455  55   000040 000003
    000456  aa  035 160 162 157         process_authorization_too_low
    000457  aa  143 145 163 163
    000460  aa  137 141 165 164
    000461  aa  150 157 162 151
    000462  aa  172 141 164 151
    000463  aa  157 156 137 164
    000464  aa  157 157 137 154
    000465  aa  157 167 000 000
    000466  55   000060 000035
    000467  2a   000022 400001
    000470  55   000053 000003
    000471  aa  020 156 157 164         not_synchronized
    000472  aa  137 163 171 156
    000473  aa  143 150 162 157
    000474  aa  156 151 172 145
    000475  aa  144 000 000 000
    000476  55   000071 000050
    000477  2a   000021 400001
    000500  55   000063 000003
    000501  aa  025 156 157 156         non_matching_versions
    000502  aa  137 155 141 164
    000503  aa  143 150 151 156
    000504  aa  147 137 166 145
    000505  aa  162 163 151 157
    000506  aa  156 163 000 000
    000507  55   000102 000060
    000510  2a   000020 400001
    000511  55   000074 000003
    000512  aa  026 156 157 156         non_matching_passwords
    000513  aa  137 155 141 164
    000514  aa  143 150 151 156
    000515  aa  147 137 160 141
    000516  aa  163 163 167 157
    000517  aa  162 144 163 000
    000520  55   000112 000071
    000521  2a   000017 400001
    000522  55   000105 000003
    000523  aa  020 156 157 156         non_matching_ids
    000524  aa  137 155 141 164
    000525  aa  143 150 151 156
    000526  aa  147 137 151 144
    000527  aa  163 000 000 000
    000530  55   000121 000102
    000531  2a   000016 400001
    000532  55   000115 000003
    000533  aa  014 156 157 137         no_person_id
    000534  aa  160 145 162 163
    000535  aa  157 156 137 151
    000536  aa  144 000 000 000
    000537  55   000131 000112
    000540  2a   000015 400001
    000541  55   000124 000003
    000542  aa  020 156 157 137         no_card_password
    000543  aa  143 141 162 144
    000544  aa  137 160 141 163
    000545  aa  163 167 157 162
    000546  aa  144 000 000 000
    000547  55   000142 000121
    000550  2a   000014 400001
    000551  55   000134 000003
    000552  aa  027 145 170 160         explicit_floor_mismatch
    000553  aa  154 151 143 151
    000554  aa  164 137 146 154
    000555  aa  157 157 162 137
    000556  aa  155 151 163 155
    000557  aa  141 164 143 150
    000560  55   000154 000131
    000561  2a   000013 400001
    000562  55   000145 000003
    000563  aa  031 145 170 160         explicit_ceiling_mismatch
    000564  aa  154 151 143 151
    000565  aa  164 137 143 145
    000566  aa  151 154 151 156
    000567  aa  147 137 155 151
    000570  aa  163 155 141 164
    000571  aa  143 150 000 000
    000572  55   000166 000142
    000573  2a   000012 400001
    000574  55   000157 000003
    000575  aa  031 143 157 155         computed_ceiling_mismatch
    000576  aa  160 165 164 145
    000577  aa  144 137 143 145
    000600  aa  151 154 151 156
    000601  aa  147 137 155 151
    000602  aa  163 155 141 164
    000603  aa  143 150 000 000
    000604  55   000177 000154
    000605  2a   000011 400001
    000606  55   000171 000003
    000607  aa  026 143 141 156         cant_get_channel_names
    000610  aa  164 137 147 145
    000611  aa  164 137 143 150
    000612  aa  141 156 156 145
    000613  aa  154 137 156 141
    000614  aa  155 145 163 000
    000615  55   000206 000166
    000616  2a   000010 400001
    000617  55   000202 000003
    000620  aa  017 143 141 156         cant_access_pnt
    000621  aa  164 137 141 143
    000622  aa  143 145 163 163
    000623  aa  137 160 156 164
    000624  55   000002 000177
    000625  6a   000000 400002
    000626  55   000211 000003
    000627  aa  014 163 171 155         symbol_table
    000630  aa  142 157 154 137
    000631  aa  164 141 142 154
    000632  aa  145 000 000 000

DEFINITIONS HASH TABLE

    000633  aa   000000 000033
    000634  aa   000000 000000
    000635  5a   000112 000000
    000636  aa   000000 000000
    000637  aa   000000 000000
    000640  5a   000026 000000
    000641  5a   000021 000000
    000642  5a   000071 000000
    000643  5a   000060 000000
    000644  aa   000000 000000
    000645  5a   000166 000000
    000646  5a   000206 000000
    000647  aa   000000 000000
    000650  5a   000102 000000
    000651  aa   000000 000000
    000652  5a   000011 000000
    000653  5a   000142 000000
    000654  5a   000131 000000
    000655  5a   000177 000000
    000656  5a   000050 000000
    000657  5a   000154 000000
    000660  aa   000000 000000
    000661  aa   000000 000000
    000662  aa   000000 000000
    000663  aa   000000 000000
    000664  5a   000121 000000
    000665  aa   000000 000000
    000666  5a   000035 000000

NO EXTERNAL NAMES

NO TRAP POINTER WORDS

TYPE PAIR BLOCKS

    000667  aa   000001 000000
    000670  aa   000000 000000

INTERNAL EXPRESSION WORDS

    000671  50   000251 000000
LINKAGE INFORMATION

    000000  aa   000000 000000
    000001  02   000416 000032
    000002  aa   000000 000000
    000003  aa   000000 000000
    000004  aa   000000 000000
    000005  aa   000000 000000
    000006  22   000030 000035
    000007  a2   000000 000020
    000030  9a   777750 0000 46         *text|
    000031  5a   000253 0000 00

FIRST REFERENCE TRAP LIST

    000032  aa   000000 000001
    000033  aa   000000 000001
    000034  2a   000030 000000
    000035  aa   000000 000000
SYMBOL INFORMATION

SYMBOL TABLE HEADER

    000000  aa   000000 000001
    000001  aa   163171 155142
    000002  aa   164162 145145
    000003  aa   000000 000007
    000004  aa   000000 115705
    000005  aa   073761 335527
    000006  aa   000000 116571
    000007  aa   264132 572027
    000010  aa   141154 155040
    000011  aa   040040 040040
    000012  aa   000024 000040
    000013  aa   000034 000040
    000014  aa   000044 000100
    000015  aa   000002 000002
    000016  aa   000064 000000
    000017  aa   000000 000230
    000020  aa   000000 000137
    000021  aa   000170 000161
    000022  aa   000220 000137
    000023  aa   000064 000000
    000024  aa   101114 115040
    000025  aa   126145 162163
    000026  aa   151157 156040
    000027  aa   067056 064040
    000030  aa   101160 162151
    000031  aa   154040 061071
    000032  aa   070067 040040
    000033  aa   040040 040040
    000034  aa   110151 162156
    000035  aa   145151 163145
    000036  aa   156056 123171
    000037  aa   163115 141151
    000040  aa   156164 056141
    000041  aa   040040 040040
    000042  aa   040040 040040
    000043  aa   040040 040040
    000044  aa   055164 141162
    000045  aa   147145 164040
    000046  aa   154066 070040
    000047  aa   040040 040040
    000050  aa   040040 040040
    000051  aa   040040 040040
    000052  aa   040040 040040
    000053  aa   040040 040040
    000054  aa   040040 040040
    000055  aa   040040 040040
    000056  aa   040154 151163
    000057  aa   164040 163171
    000060  aa   155142 157154
    000061  aa   163040 040040
    000062  aa   040040 040040
    000063  aa   040040 040040
    000064  aa   000000 000001
    000065  aa   000000 000003
    000066  aa   000102 000055
    000067  aa   165700 723405
    000070  aa   000000 116571
    000071  aa   263375 600000
    000072  aa   000116 000037
    000073  aa   120665 316464
    000074  aa   000000 112067
    000075  aa   253504 600000
    000076  aa   000126 000042
    000077  aa   147777 464111
    000100  aa   000000 115000
    000101  aa   507463 000000
    000102  aa   076163 160145          >special_ldd>install>MR12.2-1165>imft_et_.alm
    000103  aa   143151 141154
    000104  aa   137154 144144
    000105  aa   076151 156163
    000106  aa   164141 154154
    000107  aa   076115 122061
    000110  aa   062056 062055
    000111  aa   061061 066065
    000112  aa   076151 155146
    000113  aa   164137 145164
    000114  aa   137056 141154
    000115  aa   155040 040040
    000116  aa   076154 144144          >ldd>include>et_macros.incl.alm
    000117  aa   076151 156143
    000120  aa   154165 144145
    000121  aa   076145 164137
    000122  aa   155141 143162
    000123  aa   157163 056151
    000124  aa   156143 154056
    000125  aa   141154 155040
    000126  aa   076154 144144          >ldd>include>stack_header.incl.alm
    000127  aa   076151 156143
    000130  aa   154165 144145
    000131  aa   076163 164141
    000132  aa   143153 137150
    000133  aa   145141 144145
    000134  aa   162056 151156
    000135  aa   143154 056141
    000136  aa   154155 040040
               MULTICS ASSEMBLY CROSS REFERENCE LISTING

   Value        Symbol                   Source file   Line number

                *text                    imft_et_:      26.
          14    .._00000                 imft_et_:      30.
          33    .._00001                 imft_et_:      33.
          62    .._00002                 imft_et_:      36.
         106    .._00003                 imft_et_:      39.
         132    .._00004                 imft_et_:      42.
         156    .._00005                 imft_et_:      45.
         177    .._00006                 imft_et_:      48.
         212    .._00007                 imft_et_:      51.
         232    .._00010                 imft_et_:      54.
         254    .._00011                 imft_et_:      57.
         301    .._00012                 imft_et_:      60.
         320    .._00013                 imft_et_:      63.
         346    .._00014                 imft_et_:      66.
         361    .._00015                 imft_et_:      69.
         375    .._00016                 imft_et_:      72.
          27    .code_end                imft_et_:      26.
          10    .code_start              imft_et_:      26.
           5    .loop                    imft_et_:      26.
       77777    .segno                   imft_et_:      26,   30,   33,   36,   39,   42,   45,   48,   51,   54,   57,   60,
                                                        63,   66,   69,   72.
           0    .trapproc                imft_et_:      26.
        1170    call_offset              stack_header:        80.
          10    cant_access_pnt          imft_et_:      30.
          11    cant_get_channel_names   imft_et_:      33.
          10    codes                    imft_et_:      26,   30,   33,   36,   39,   42,   45,   48,   51,   54,   57,   60,
                                                        63,   66,   69,   72.
          12    computed_ceiling_mismatch      imft_et_:      36.
        1174    entry_offset             stack_header:        84.
          13    explicit_ceiling_mismatch      imft_et_:      39.
          14    explicit_floor_mismatch  imft_et_:      42.
           0    messages                 imft_et_:      26,   30,   33,   36,   39,   42,   45,   48,   51,   54,   57,   60,
                                                        63,   66,   69,   72.
          17    non_matching_ids         imft_et_:      51.
          20    non_matching_passwords   imft_et_:      54.
          21    non_matching_versions    imft_et_:      57.
          22    not_synchronized         imft_et_:      60.
          15    no_card_password         imft_et_:      45.
          16    no_person_id             imft_et_:      48.
          27    past_codes               imft_et_:      26.
          23    process_authorization_too_low  imft_et_:      63.
        1171    push_offset              stack_header:        81.
          24    reply_pending            imft_et_:      66.
        1173    return_no_pop_offset     stack_header:        83.
        1172    return_offset            stack_header:        82.
          73    stach_header.trace_top_ptr     stack_header:        62.
          66    stack_header.assign_linkage_ptr      stack_header:        59.
          32    stack_header.bar_mode_sp       stack_header:        42.
          36    stack_header.call_op_ptr       stack_header:        44.
          10    stack_header.clr_ptr     stack_header:        27.
           6    stack_header.combined_stat_ptr       stack_header:        25.
           4    stack_header.cpm_data_ptr      stack_header:        24.
          13    stack_header.cpm_enabled       stack_header:        32.
          13    stack_header.cur_lot_size      stack_header:        31.
          64    stack_header.ect_ptr     stack_header:        58.
          46    stack_header.entry_op_ptr      stack_header:        49.
          70    stack_header.heap_header_ptr   stack_header:        60.
          74    stack_header.in_trace    stack_header:        63.
          52    stack_header.isot_ptr    stack_header:        52.
          26    stack_header.lot_ptr     imft_et_:      26,
                                         stack_header:        39.
          12    stack_header.main_proc_invoked       stack_header:        29.
          12    stack_header.max_lot_size      stack_header:        28.
          20    stack_header.parent_ptr  stack_header:        36.
          34    stack_header.pl1_operators_ptr       stack_header:        43.
          40    stack_header.push_op_ptr       stack_header:        46.
          42    stack_header.return_op_ptr     stack_header:        47.
          44    stack_header.ret_no_pop_op_ptr       stack_header:        48.
          62    stack_header.rnt_ptr     stack_header:        57.
          12    stack_header.run_unit_depth    stack_header:        30.
          54    stack_header.sct_ptr     stack_header:        53.
          30    stack_header.signal_ptr  stack_header:        41.
          22    stack_header.stack_begin_ptr   stack_header:        37.
          24    stack_header.stack_end_ptr     stack_header:        38.
          14    stack_header.system_free_ptr   stack_header:        33.
          60    stack_header.sys_link_info_ptr       stack_header:        56.
          72    stack_header.trace_frames      stack_header:        61.
          50    stack_header.trans_op_tv_ptr   stack_header:        51.
          56    stack_header.unwinder_ptr      stack_header:        54.
          16    stack_header.user_free_ptr     stack_header:        34.
         100    stack_header_end         stack_header:        64.
          25    timeout                  imft_et_:      69.
           0    trace_frames.count       stack_header:        69.
           1    trace_frames.top_ptr     stack_header:        70.
         551    tv_offset                stack_header:        75,   80,   81,   82,   83,   84.
          26    unknown_status_code      imft_et_:      72.


NO FATAL ERRORS


                                          -----------------------------------------------------------


Historical Background

This edition of the Multics software materials and documentation is provided and donated
to Massachusetts Institute of Technology by Group BULL including BULL HN Information Systems Inc.
as a contribution to computer science knowledge.
This donation is made also to give evidence of the common contributions of Massachusetts Institute of Technology,
Bell Laboratories, General Electric, Honeywell Information Systems Inc., Honeywell BULL Inc., Groupe BULL
and BULL HN Information Systems Inc. to the development of this operating system.
Multics development was initiated by Massachusetts Institute of Technology Project MAC (1963-1970),
renamed the MIT Laboratory for Computer Science and Artificial Intelligence in the mid 1970s, under the leadership
of Professor Fernando Jose Corbato. Users consider that Multics provided the best software architecture
for managing computer hardware properly and for executing programs. Many subsequent operating systems
incorporated Multics principles.
Multics was distributed in 1975 to 2000 by Group Bull in Europe , and in the U.S. by Bull HN Information Systems Inc.,
as successor in interest by change in name only to Honeywell Bull Inc. and Honeywell Information Systems Inc. .

                                          -----------------------------------------------------------

Permission to use, copy, modify, and distribute these programs and their documentation for any purpose and without
fee is hereby granted,provided that the below copyright notice and historical background appear in all copies
and that both the copyright notice and historical background and this permission notice appear in supporting
documentation, and that the names of MIT, HIS, BULL or BULL HN not be used in advertising or publicity pertaining
to distribution of the programs without specific prior written permission.
    Copyright 1972 by Massachusetts Institute of Technology and Honeywell Information Systems Inc.
    Copyright 2006 by BULL HN Information Systems Inc.
    Copyright 2006 by Bull SAS
    All Rights Reserved
