ASSEMBLY LISTING OF SEGMENT >spec>on>06/27/83>lisp_static_vars_.alm
ASSEMBLED ON:	07/06/83  0928.4 mst Wed
OPTIONS USED:	list
ASSEMBLED BY:	ALM Version  6.4  April 1981
ASSEMBLER CREATED:	11/03/82  1423.6 mst Wed

                                     1  " **************************************************************
                                     2  " *                                                            *
                                     3  " * Copyright, (C) Massachusetts Institute of Technology, 1973 *
                                     4  " *                                                            *
                                     5  " **************************************************************
                                     6  "
                                     7  " last modified October 1982 to add progn atom.
                                     8  "
                                     9
                                    10  	use lk
                                    11  	join	/link/lk
                                    12  	even
                        000010      13  	segdef	lisp_static_vars_	lisp communications area
    000010                          14  lisp_static_vars_:
    000010  aa   077777 000043      15  	its	-1,1,n		cclist_ptr (totally obsolete)
    000011  aa   000001 000000
                                    16  
                                    17  """ Table of Contents
                                    18
                        000124      19  	segdef	maknum_table_ptr
                        000124      20  	segdef	maknum_data
                        000126      21  	segdef	maknum_next
                        000127      22  	segdef	maknum_mask
                        000130      23  	segdef	maknum_left
                        000012      24  	segdef	garbage_collect_soon
                        000013      25  	segdef	quit_handler_flag
                        000122      26  	segdef	binding_reversal_flag
                        000504      27  	segdef	evalhook_status,evalhook_atom
                        000014      28  	segdef	gc_time
                        000016      29  	segdef	gc_mark_bits
                        000022      30  	segdef	gcmin,gcmin_fraction,gcsize,gcmax
                        000023      31  	segdef	no_snapped_links
                        000454      32  	segdef	space_names_atom
                        000024      33  	segdef	transparent		switch to make lisp transparent to quits
                        000025      34  	segdef	read_print_nl_sync
                        000036      35  	segdef	rdr_state,garbage_collect_inhibit,rdr_ptr,rdr_label
                        000027      36  	segdef	masked
                        000030      37  	segdef	emptying_buffers	 non-negative when lisp_default_handler_ is emptying all stream output buffers
                        000136      38  	segdef	pending_ctrl
                        000031      39  	segdef	i_am_gcing
                        000042      40  	segdef	saved_environment_dir
                        000114      41  	segdef	hi_random
                        000115      42  	segdef	lo_random
                        000137      43  	segdef	ignore_faults
                        000144      44  	segdef	stack_ptr
                        000146      45  	segdef	unmkd_ptr	pointer to top of unmkd_stack
                        000150      46  	segdef	frame_ptrs	the following 6 things must be kept in the same order,
                        000150      47  	segdef	binding_top	pointer to top of binding block chain
                        000152      48  	segdef	err_recp
                        000154      49  	segdef	prog_frame	7 pointers to threaded lists of frames in unmarked stack
                        000156      50  	segdef	err_frame
                        000160      51  	segdef	catch_frame
                        000162      52  	segdef	eval_frame	stuff kept by eval if *rset t
                        000164      53  	segdef	unwp_frame	head of unwind-protect frame list
                        000166      54  	segdef	arg_list_ptr	needed by status jcl
                        000170      55  	segdef	top_level		the top-level read-eval-print loop
                        000174      56  	segdef	argatom		used to hold arg list of lexpr(not really an atom)
                        000116      57  	segdef	iochan_list	list of all opened iochans (files)
                        000120      58  	segdef	subr_block_list	list of all new (fasload) subr blocks
                        000202      59  	segdef	garbage_collected_ptrs
                        000202      60  	segdef	first_value_atom		for (status system)
                        000202      61  	segdef	obarray
                        000204      62  	segdef	atomic_constants
                        000204      63  	segdef	nil
                        000206      64  	segdef	t_atom
                        000212      65  	segdef	ctrlD
                        000214      66  	segdef	ctrlQ
                        000216      67  	segdef	ctrlR
                        000220      68  	segdef	ctrlW
                        000224      69  	segdef	user_intr_array
                        000274      70  	segdef	STAR	atom *
                        000276      71  	segdef	PLUS	atom +
                        000536      72  	segdef	MINUS	atom -
                        000540      73  	segdef	SLASH	atom //
                        000300      74  	segdef	base
                        000302      75  	segdef	ibase
                        000304      76  	segdef	readtable
                        000306      77  	segdef	stnopoint		atom *nopoint
                        000310      78  	segdef	tty_atom
                        000312      79  	segdef	errlist
                        000332      80  	segdef	ctrlA		the atom ^a, whose value is interrupted by the CTRL/a input
                        000340      81  	segdef	prinlevel,prinlength
                        000342      82  	segdef	last_value_atom			for (status system)
                        000342      83  	segdef	value_atom
                        000344      84  	segdef	readeof_atom			for lisp_error_, eof_in_object err
                        000346      85  	segdef	s_atom
                        000350      86  	segdef	dollar_p_atom
                        000352      87  	segdef	quote_atom
                        000422      88  	segdef	array_atom
                        000422      89  	segdef	array
                        000354      90  	segdef	pname_atom
                        000356      91  	segdef	string_atom
                        000360      92  	segdef	fixnum_atom
                        000360      93  	segdef	fixnum
                        000210      94  	segdef	external
                        000362      95  	segdef	flonum_atom
                        000362      96  	segdef	flonum
                        000364      97  	segdef	random_atom
                        000366      98  	segdef	bignum_atom
                        000370      99  	segdef	list_atom
                        000376     100  	segdef	go_atom,return_atom,pdlframe_atom
                        000400     101  	segdef	alphalessp_atom
                        000410     102  	segdef	function_properties
                        000420     103  	segdef	lambda,label,subr,lsubr,fsubr,expr,fexpr
                        000436     104  	segdef	funarg,macro,autoload,qarg,qsetarg,qlstfy
                        000430     105  	segdef	quotient
                        000440     106  	segdef	evalframe_atom
                        000442     107  	segdef	arrayindex
                        000444     108  	segdef	setq_atom
                        000446     109  	segdef	question_mark
                        000452     110  	segdef	nouuo_flag,noret_flag
                        000456     111  	segdef	quote_macro,semicolon_macro		special flags for builtin macros, used by rdr
                        000462     112  	segdef	runtime_atom,time_atom
                        000466     113  	segdef	comment_atom,declare_atom
                        000500     114  	segdef	close,deletef,filepos,infile,instack,mergef,open
                        000512     115  	segdef	outfile,outfiles,rename,stream
                        000330     116  	segdef	dsk_atom,crunit_atom,uread_atom,uwrite_atom,old_io_defaults
                        000520     117  	segdef	args	for err_break routine in lisp_subr_tv_
                        000334     118  	segdef	star_rset
                        000534     119  	segdef	err_atom,eval_atom,apply_atom,princ_atom,prin1_atom,print_atom
                        000532     120  	segdef	prin1
                        000322     121  	segdef	zunderflow
                        000554     122  	segdef	toplevel	toplevel function ptr
                        000556     123  	segdef	divov_flag
                        000560     124  	segdef	plus_status
                        000562     125  	segdef	status_gctwa
                        000564     126  	segdef	tty_input_chan		-> iochan block for user_input stream
                        000566     127  	segdef	tty_output_chan
                        000570     128  	segdef	property_list_of_nil
                        000126     129  	segdef	number_gc_ptrs
                        000127     130  	segdef	number_of_atomic_constants
                        000131     131  	segdef	atomic_constants_names
                        000000     132  	segdef	template
                        000125     133  	segdef	 template_size
                        000130     134  	segdef	subsys_recurse_save_size
                        000140     135  	segdef	cur_stat_seg
                        000142     136  	segdef	cur_stat_pos
                        000176     137  	segdef	gc_unwinder_kludge
                        000132     138  	segdef	activate_gc_unwinder_kludge
                        000131     139  	segdef	cleanup_list_exists
                        000572     140  	segdef	cleanup_list
                        000544     141  	segdef	defun,expr_hash
                        000552     142  	segdef	vertical_bar_macro,eof_atom,progn_atom
                        000134     143  	segdef	mulquit_state,mulpi_state
                        000135     144  	segdef	deferred_interrupt
                                   145  
    000012                         146  garbage_collect_soon:
    000012  aa   000000 000000     147  	dec	0		garbage collection flag
                                   148
    000013                         149  quit_handler_flag:
    000013  aa   000000 000000     150  	oct	0			"1"b means quitting out of a quit handler
                                   151  	even
    000014  aa   000000 000000     152  gc_time:	dec	0
    000015  aa   000000 000000     153  	dec	0
                                   154
    000016                         155  gc_mark_bits:
    000016  aa   525252 000000     156  	oct	525252000000
                                   157
                                   158  """ Bibop-compatible garbage collection parameters
                                   159
    000017  aa   000400 000000     160  gcmin:	dec	0.5
    000020  aa   400000 000000     161  gcmin_fraction:  oct 400000000000	bit(1)
    000021  aa   000000 072460     162  gcsize:	dec	30000
    000022  aa   007346 545000     163  gcmax:	dec	1000000000
                                   164
    000023  aa   000000 000000     165  no_snapped_links:  oct 0		flag, "1"b means there are no snapped links in any compiled subr blocks
                                   166
    000024  aa   000000 000000     167  transparent: oct	0
    000025                         168  read_print_nl_sync:
    000025  aa   000000 000000     169  	dec	0		if this is non-zero, read has just read a newline,
                                   170  				" and if print is to output one, it should suppress it.
    000026                         171  garbage_collect_inhibit:
    000026  aa   000000 000000     172  	oct	0		set nonzero by interrupts
                                   173
                                   174
    000027  aa   000000 000000     175  masked:	oct	0		"1"b if we are masked against alrm, cput, and ctrl chars
                                   176  				" i.e. (nointerrupt t) mode.
    000030                         177  emptying_buffers:
    000030  aa   777777 777777     178  	dec	-1
                                   179
    000031  aa   000000 000000     180  i_am_gcing: oct	0				"1"b when garbage-collecting
                                   181
    000032  aa   000000 000000     182  rdr_state:dec	0			0 = normal, 1 = ios_$read wait, 2 = readlist
                                   183
    000033  aa   000000 0110 03    184  	even
    000034  aa   077777 000043     185  rdr_ptr:	its	-1,1			-> current readlist
    000035  aa   000001 000000
                                   186
    000036  aa   077777 000043     187  rdr_label:its	-1,1			label for abnormal exit from  (tti wait)
    000037  aa   000001 000000
    000040  aa   077777 000043     188  	its	-1,1
    000041  aa   000001 000000
                                   189
    000042                         190  saved_environment_dir:
    000042  aa  040 040 040 040    191  	aci	"                                        "
    000043  aa  040 040 040 040
    000044  aa  040 040 040 040
    000045  aa  040 040 040 040
    000046  aa  040 040 040 040
    000047  aa  040 040 040 040
    000050  aa  040 040 040 040
    000051  aa  040 040 040 040
    000052  aa  040 040 040 040
    000053  aa  040 040 040 040
    000054  aa  040 040 040 040    192  	aci	"                                        "
    000055  aa  040 040 040 040
    000056  aa  040 040 040 040
    000057  aa  040 040 040 040
    000060  aa  040 040 040 040
    000061  aa  040 040 040 040
    000062  aa  040 040 040 040
    000063  aa  040 040 040 040
    000064  aa  040 040 040 040
    000065  aa  040 040 040 040
    000066  aa  040 040 040 040    193  	aci	"                                        "
    000067  aa  040 040 040 040
    000070  aa  040 040 040 040
    000071  aa  040 040 040 040
    000072  aa  040 040 040 040
    000073  aa  040 040 040 040
    000074  aa  040 040 040 040
    000075  aa  040 040 040 040
    000076  aa  040 040 040 040
    000077  aa  040 040 040 040
    000100  aa  040 040 040 040    194  	aci	"                                                "
    000101  aa  040 040 040 040
    000102  aa  040 040 040 040
    000103  aa  040 040 040 040
    000104  aa  040 040 040 040
    000105  aa  040 040 040 040
    000106  aa  040 040 040 040
    000107  aa  040 040 040 040
    000110  aa  040 040 040 040
    000111  aa  040 040 040 040
    000112  aa  040 040 040 040
    000113  aa  040 040 040 040
                                   195
                                   196  	even
    000114                         197  hi_random:
    000114  aa   000000 000000     198  	oct	0		These are two words to store the random numbers
                                   199  				"between calls to the function random.
    000115                         200  lo_random:
    000115  aa   000000 000000     201  	oct	0
                                   202
    000116  aa   077777 000043     203  iochan_list:  its  -1,1
    000117  aa   000001 000000
                                   204
    000120  aa   077777 000043     205  subr_block_list:  its -1,1	list of all subr blocks
    000121  aa   000001 000000
    000122  aa   000000 000000     206  binding_reversal_flag:  oct  0		nonzero means can't interrupt because reversing a binding block
    000123  aa   000000 000000     207  evalhook_status:  oct 0			see lisp_
                                   208  	even
    000124                         209  maknum_data:
    000124  aa   077777 000043     210  maknum_table_ptr:	its	-1,1
    000125  aa   000001 000000
    000126  aa   000000 000000     211  maknum_next:	oct	0
    000127  aa   777777 777777     212  maknum_mask:	dec	-1
    000130  aa   000000 000000     213  maknum_left:	oct	0
                                   214
    000131  aa   000000 000000     215  cleanup_list_exists:oct	0		1 => cleanup_list non-nil
                                   216  "					(needed since might be in gc and can't look at it)
    000132  aa   000000 000000     217  activate_gc_unwinder_kludge: oct 0		flag that gc should do cleanup kludge
    000133  aa   777777 777777     218  mulquit_state:	dec	-1		handling of Multics quit condition
    000134  aa   777777 777777     219  mulpi_state:	dec	-1		handling of Multics program_interrupt condition
    000135  aa   000000 000000     220  deferred_interrupt: oct	0		we must poll interrupts when we leave (nointerrupt t)
                                   221  	even
                                   222
    000136                         223  pending_ctrl:
    000136  aa   000000 000000     224  	oct	0		"1"b when in process of handling stacked-up
                                   225  				"ctrl chars received while masked = 1.
                                   226
    000137                         227  ignore_faults:
    000137  aa   000000 000000     228  	dec	0
                                   229
                                   230  	even
                                   231
    000140  aa   077777 000043     232  cur_stat_seg: its -1,1		current static seg, used by make_lisp_subr_block_
    000141  aa   000001 000000
    000142  aa   000000 000000     233  cur_stat_pos: dec 0		height in seg that has been allocated
                                   234
    000143  aa   000000 0110 03    235  	even
    000144                         236  stack_ptr:
    000144  aa   077777 000043     237  	its	-1,1,n		stack_ptr
    000145  aa   000001 000000
    000146  aa   077777 000043     238  unmkd_ptr: its	-1,1,n
    000147  aa   000001 000000
                                   239
    000150                         240  frame_ptrs:			"since programs think this is an array.  binding_top _m_u_s_t be first.
                                   241
    000150                         242  binding_top:
    000150  aa   077777 000043     243  	its	-1,1,n
    000151  aa   000001 000000
    000152  aa   077777 000043     244  err_recp:	its	-1,1
    000153  aa   000001 000000
    000154                         245  prog_frame:
    000154  aa   077777 000043     246  	its -1,1
    000155  aa   000001 000000
                                   247
    000156  aa   077777 000043     248  err_frame:its -1,1
    000157  aa   000001 000000
    000160                         249  catch_frame:
    000160  aa   077777 000043     250  	its -1,1
    000161  aa   000001 000000
    000162                         251  eval_frame:
    000162  aa   077777 000043     252  	its	-1,1
    000163  aa   000001 000000
    000164                         253  unwp_frame:
    000164  aa   077777 000043     254  	its	-1,1
    000165  aa   000001 000000
    000166                         255  arg_list_ptr:
    000166  aa   077777 000043     256  	its	-1,1
    000167  aa   000001 000000
                                   257
    000170                         258  top_level:
    000170  aa   077777 000043     259  	its	-1,1		a pl1 label is two pointers
    000171  aa   000001 000000
    000172  aa   077777 000043     260  	its 	-1,1
    000173  aa   000001 000000
                                   261
    000174  aa   000000 000000     262  argatom:	oct	0,0	double word zero for eval, arg....
    000175  aa   000000 000000
                                   263
    000176  aa   077777 000043     264  gc_unwinder_kludge:  its  -1,1	target of unwindage through in-progress gc,
    000177  aa   000001 000000
    000200  aa   077777 000043     265  	its -1,1		has to be saved while gc is completed if cleanup list exists
    000201  aa   000001 000000
                                   266  "
                                   267  """ Template for initialization of some of the above data
                                   268
                                   269  	use	tx
                                   270  	join	/text/tx
                                   271
                                   272  	even
    000000                         273  template:
    000000  aa   077777 000043     274  	its	-1,1		cclist ptr
    000001  aa   000001 000000
    000002  aa   000000 000000     275  	dec	0		garbage_collect_soon
    000003  aa   000000 000000     276  	oct	0		quit_handler_flag
                                   277  	even
    000004  aa   000000 000000     278  	dec	0,0		gc_time
    000005  aa   000000 000000
    000006  aa   525252 000000     279  	oct	525252000000	gc_mark_bits
                                   280
    000007  aa   000400 000000     281  	dec	0.5		gcmin
    000010  aa   400000 000000     282  	oct	400000000000	gcmin_fraction
    000011  aa   000000 072460     283  	dec	30000		gcsize
    000012  aa   007346 545000     284  	dec	1000000000	gcmax
    000013  aa   000000 000000     285  	oct	0		no_snapped_links
                                   286
    000014  aa   000000 000000     287  	oct	0		transparent
    000015  aa   000000 000000     288  	dec	0		read_print_nl_sync
    000016  aa   000000 000000     289  	oct	0		garbage_collect_inhibit
    000017  aa   000000 000000     290  	oct	0		masked
    000020  aa   777777 777777     291  	dec	-1		emptying_buffers
    000021  aa   000000 000000     292  	oct	0		i_am_gcing
    000022  aa   000000 000000     293  	dec	0		rdr_state
    000023  aa   000000 0110 03    294  	even
    000024  aa   077777 000043     295  	its	-1,1		rdr_ptr
    000025  aa   000001 000000
    000026  aa   077777 000043     296  	its	-1,1		rdr_label
    000027  aa   000001 000000
    000030  aa   077777 000043     297  	its	-1,1		..
    000031  aa   000001 000000
                                   298  "				saved_environment_dir
    000032  aa  040 040 040 040    299  	aci	"                                        "
    000033  aa  040 040 040 040
    000034  aa  040 040 040 040
    000035  aa  040 040 040 040
    000036  aa  040 040 040 040
    000037  aa  040 040 040 040
    000040  aa  040 040 040 040
    000041  aa  040 040 040 040
    000042  aa  040 040 040 040
    000043  aa  040 040 040 040
    000044  aa  040 040 040 040    300  	aci	"                                        "
    000045  aa  040 040 040 040
    000046  aa  040 040 040 040
    000047  aa  040 040 040 040
    000050  aa  040 040 040 040
    000051  aa  040 040 040 040
    000052  aa  040 040 040 040
    000053  aa  040 040 040 040
    000054  aa  040 040 040 040
    000055  aa  040 040 040 040
    000056  aa  040 040 040 040    301  	aci	"                                        "
    000057  aa  040 040 040 040
    000060  aa  040 040 040 040
    000061  aa  040 040 040 040
    000062  aa  040 040 040 040
    000063  aa  040 040 040 040
    000064  aa  040 040 040 040
    000065  aa  040 040 040 040
    000066  aa  040 040 040 040
    000067  aa  040 040 040 040
    000070  aa  040 040 040 040    302  	aci	"                                                "
    000071  aa  040 040 040 040
    000072  aa  040 040 040 040
    000073  aa  040 040 040 040
    000074  aa  040 040 040 040
    000075  aa  040 040 040 040
    000076  aa  040 040 040 040
    000077  aa  040 040 040 040
    000100  aa  040 040 040 040
    000101  aa  040 040 040 040
    000102  aa  040 040 040 040
    000103  aa  040 040 040 040
    000104  aa   000000 000000     303  	oct	0		hi_random
    000105  aa   000000 000000     304  	oct	0		lo_random
    000106  aa   077777 000043     305  	its	-1,1		iochan_list
    000107  aa   000001 000000
    000110  aa   077777 000043     306  	its	-1,1		subr_block_list
    000111  aa   000001 000000
    000112  aa   000000 000000     307  	oct	0		binding_reversal_flag
    000113  aa   000000 000000     308  	oct	0		evalhook_status
                                   309  	even
    000114  aa   077777 000043     310  	its	-1,1		maknum_table_ptr
    000115  aa   000001 000000
    000116  aa   000000 000000     311  	oct	0
    000117  aa   777777 777777     312  	dec	-1
    000120  aa   000000 000000     313  	oct	0
    000121  aa   000000 000000     314  	oct	0		cleanup_list_exists
    000122  aa   000000 000000     315  	oct	0		activate_gc_unwinder_kludge
    000123  aa   777777 777777     316  	dec	-1		mulquit_state
    000124  aa   777777 777777     317  	dec	-1		mulpi_state
                                   318  """ End of template
                                   319
    000125                         320  template_size:
    000125  aa   000000 000125     321  	zero	0,template_size-template
                                   322  	use	lk
                                   323  "
    000202                         324  garbage_collected_ptrs:
                                   325
    000202                         326  first_value_atom:
    000202  aa   077777 000043     327  obarray:	its	-1,1
    000203  aa   000001 000000
                                   328
                                   329
                                   330  " the following  is a table of pointers to atoms, which are needed as constants
                                   331  " by various system subrs.  The pointers are inited by lisp_boot_ using
                                   332  " the table of names which appears below. These atom pointers are preserved
                                   333  " through a save/unsave.
                                   334
    000204                         335  atomic_constants:
                                   336
    000204  aa   077777 000043     337  nil:	its	-1,1,n
    000205  aa   000001 000000
                                   338
    000206  aa   077777 000043     339  t_atom:	its	-1,1,n		pointer to atom t.
    000207  aa   000001 000000
                                   340
    000210  aa   077777 000043     341  external:	its	-1,1	the atom "external"
    000211  aa   000001 000000
                                   342
    000212  aa   077777 000043     343  ctrlD:	its	-1,1
    000213  aa   000001 000000
                                   344
    000214  aa   077777 000043     345  ctrlQ:	its	-1,1
    000215  aa   000001 000000
                                   346
    000216  aa   077777 000043     347  ctrlR:	its	-1,1
    000217  aa   000001 000000
                                   348
    000220  aa   077777 000043     349  ctrlW:	its	-1,1
    000221  aa   000001 000000
                                   350
    000222  aa   077777 000043     351  	its	-1,1		interrupt channel 0. (CTRL/@)
    000223  aa   000001 000000
                                   352
    000224                         353  user_intr_array:		"pointers to atoms whose values are user interrupt service functions
    000224  aa   077777 000043     354  	its	-1,1
    000225  aa   000001 000000
    000226  aa   077777 000043     355  	its	-1,1
    000227  aa   000001 000000
    000230  aa   077777 000043     356  	its	-1,1
    000231  aa   000001 000000
    000232  aa   077777 000043     357  	its	-1,1
    000233  aa   000001 000000
    000234  aa   077777 000043     358  	its	-1,1
    000235  aa   000001 000000
    000236  aa   077777 000043     359  	its	-1,1
    000237  aa   000001 000000
    000240  aa   077777 000043     360  	its	-1,1
    000241  aa   000001 000000
    000242  aa   077777 000043     361  	its	-1,1
    000243  aa   000001 000000
    000244  aa   077777 000043     362  	its	-1,1
    000245  aa   000001 000000
    000246  aa   077777 000043     363  	its	-1,1
    000247  aa   000001 000000
    000250  aa   077777 000043     364  	its	-1,1
    000251  aa   000001 000000
    000252  aa   077777 000043     365  	its	-1,1
    000253  aa   000001 000000
    000254  aa   077777 000043     366  	its	-1,1
    000255  aa   000001 000000
    000256  aa   077777 000043     367  	its	-1,1
    000257  aa   000001 000000
    000260  aa   077777 000043     368  	its	-1,1
    000261  aa   000001 000000
    000262  aa   077777 000043     369  	its	-1,1
    000263  aa   000001 000000
    000264  aa   077777 000043     370  	its	-1,1
    000265  aa   000001 000000
    000266  aa   077777 000043     371  	its	-1,1
    000267  aa   000001 000000
    000270  aa   077777 000043     372  	its	-1,1
    000271  aa   000001 000000
    000272  aa   077777 000043     373  	its	-1,1
    000273  aa   000001 000000
    000274  aa   077777 000043     374  STAR:	its	-1,1
    000275  aa   000001 000000
    000276  aa   077777 000043     375  PLUS:	its	-1,1
    000277  aa   000001 000000
                                   376
    000300  aa   077777 000043     377  base:	its	-1,1
    000301  aa   000001 000000
                                   378
    000302  aa   077777 000043     379  ibase:	its	-1,1
    000303  aa   000001 000000
                                   380
    000304  aa   077777 000043     381  readtable: its	-1,1
    000305  aa   000001 000000
                                   382
    000306  aa   077777 000043     383  stnopoint:its	-1,1
    000307  aa   000001 000000
                                   384
    000310  aa   077777 000043     385  tty_atom:	its	-1,1
    000311  aa   000001 000000
                                   386
                                   387
    000312  aa   077777 000043     388  errlist:	its	-1,1	atom errlist, value used by errors.
    000313  aa   000001 000000
                                   389
                                   390
    000314  aa   077777 000043     391  infile:	its	-1,1
    000315  aa   000001 000000
    000316  aa   077777 000043     392  instack:	its	-1,1
    000317  aa   000001 000000
                                   393
    000320  aa   077777 000043     394  outfiles:	its	-1,1
    000321  aa   000001 000000
                                   395
    000322  aa   077777 000043     396  zunderflow: its	-1,1
    000323  aa   000001 000000
    000324  aa   077777 000043     397  uread_atom:	its	-1,1
    000325  aa   000001 000000
    000326  aa   077777 000043     398  uwrite_atom:	its	-1,1
    000327  aa   000001 000000
    000330  aa   077777 000043     399  old_io_defaults: its	-1,1
    000331  aa   000001 000000
                                   400
                                   401
    000332  aa   077777 000043     402  ctrlA:	its	-1,1
    000333  aa   000001 000000
                                   403
    000334  aa   077777 000043     404  star_rset: its	-1,1	now -> the atom *rset
    000335  aa   000001 000000
                                   405
    000336                         406  prinlevel:
    000336  aa   077777 000043     407  	its	-1,1
    000337  aa   000001 000000
    000340                         408  prinlength:
    000340  aa   077777 000043     409  	its	-1,1
    000341  aa   000001 000000
                                   410
    000342                         411  last_value_atom:
                                   412
                                   413
    000342  aa   077777 000043     414  value_atom:	its	-1,1
    000343  aa   000001 000000
                                   415
    000344  aa   077777 000043     416  readeof_atom: 	its	-1,1
    000345  aa   000001 000000
                                   417
    000346  aa   077777 000043     418  s_atom:	its	-1,1
    000347  aa   000001 000000
                                   419
    000350                         420  dollar_p_atom:
    000350  aa   077777 000043     421  	its	-1,1
    000351  aa   000001 000000
                                   422
    000352  aa   077777 000043     423  quote_atom: its	-1,1			points to the atom quote
    000353  aa   000001 000000
                                   424
                                   425
    000354  aa   077777 000043     426  pname_atom:	its	-1,1
    000355  aa   000001 000000
    000356  aa   077777 000043     427  string_atom:	its	-1,1
    000357  aa   000001 000000
                                   428
    000360                         429  fixnum:
    000360  aa   077777 000043     430  fixnum_atom:	its	-1,1
    000361  aa   000001 000000
                                   431
    000362                         432  flonum:
    000362  aa   077777 000043     433  flonum_atom:	its	-1,1
    000363  aa   000001 000000
                                   434
    000364  aa   077777 000043     435  random_atom:	its	-1,1
    000365  aa   000001 000000
                                   436
    000366  aa   077777 000043     437  bignum_atom:	its	-1,1
    000367  aa   000001 000000
                                   438
    000370  aa   077777 000043     439  list_atom:	its	-1,1
    000371  aa   000001 000000
                                   440
                                   441  " constants needed by lisp_error_
                                   442
    000372  aa   077777 000043     443  go_atom:	its	-1,1
    000373  aa   000001 000000
    000374                         444  return_atom:
    000374  aa   077777 000043     445  	its	-1,1
    000375  aa   000001 000000
    000376                         446  pdlframe_atom:
    000376  aa   077777 000043     447  	its	-1,1
    000377  aa   000001 000000
    000400                         448  alphalessp_atom:
    000400  aa   077777 000043     449  	its	-1,1
    000401  aa   000001 000000
                                   450
                                   451  "constants needed by the evaluator
                                   452
    000402  aa   077777 000043     453  lambda:	its	-1,1
    000403  aa   000001 000000
    000404  aa   077777 000043     454  label:	its	-1,1
    000405  aa   000001 000000
    000406  aa   077777 000043     455  funarg:	its	-1,1
    000407  aa   000001 000000
    000410                         456  function_properties:
    000410  aa   077777 000043     457  subr:	its	-1,1
    000411  aa   000001 000000
    000412  aa   077777 000043     458  lsubr:	its	-1,1
    000413  aa   000001 000000
    000414  aa   077777 000043     459  fsubr:	its	-1,1
    000415  aa   000001 000000
    000416  aa   077777 000043     460  expr:	its	-1,1
    000417  aa   000001 000000
    000420  aa   077777 000043     461  fexpr:	its	-1,1
    000421  aa   000001 000000
    000422                         462  array:
    000422                         463  array_atom:
    000422  aa   077777 000043     464  	its	-1,1,n		atom "array"
    000423  aa   000001 000000
    000424  aa   077777 000043     465  macro:	its	-1,1
    000425  aa   000001 000000
    000426  aa   077777 000043     466  autoload:	its	-1,1
    000427  aa   000001 000000
    000430  aa   077777 000043     467  quotient:	its	-1,1		fail-act name
    000431  aa   000001 000000
    000432  aa   077777 000043     468  qarg:	its	-1,1
    000433  aa   000001 000000
    000434  aa   077777 000043     469  qsetarg:	its	-1,1
    000435  aa   000001 000000
    000436  aa   077777 000043     470  qlstfy:	its	-1,1
    000437  aa   000001 000000
                                   471
    000440                         472  evalframe_atom:
    000440  aa   077777 000043     473  	its	-1,1	atom evalframe, which is another name for pdlframe (used by that fcn)
    000441  aa   000001 000000
                                   474
    000442  aa   077777 000043     475  arrayindex: its	-1,1
    000443  aa   000001 000000
                                   476
    000444  aa   077777 000043     477  setq_atom: its	-1,1
    000445  aa   000001 000000
                                   478
    000446                         479  question_mark:
    000446  aa   077777 000043     480  	its	-1,1	the atom ?, used by array access error handler
    000447  aa   000001 000000
                                   481
                                   482
    000450  aa   077777 000043     483  nouuo_flag: its	-1,1
    000451  aa   000001 000000
                                   484
    000452  aa   077777 000043     485  noret_flag: its	-1,1
    000453  aa   000001 000000
                                   486
                                   487
    000454                         488  space_names_atom:			"value=(list markedpdl unmarkedpdl)
    000454                         489  quote_macro:			"used as indicator for quote macro char
    000454  aa   077777 000043     490  	its	-1,1
    000455  aa   000001 000000
                                   491
    000456                         492  semicolon_macro:			"indicator for semicolon macro char + value = (status features)
    000456  aa   077777 000043     493  	its	-1,1
    000457  aa   000001 000000
                                   494
                                   495
    000460                         496  runtime_atom:
    000460  aa   077777 000043     497  	its	-1,1
    000461  aa   000001 000000
    000462                         498  time_atom:
    000462  aa   077777 000043     499  	its	-1,1
    000463  aa   000001 000000
                                   500
    000464                         501  comment_atom:
    000464  aa   077777 000043     502  	its	-1,1
    000465  aa   000001 000000
    000466                         503  declare_atom:
    000466  aa   077777 000043     504  	its	-1,1
    000467  aa   000001 000000
                                   505
                                   506  " atomic constants needed by the new I/O system.
                                   507
                                   508
    000470  aa   077777 000043     509  close:	its	-1,1
    000471  aa   000001 000000
    000472  aa   077777 000043     510  deletef:	its	-1,1
    000473  aa   000001 000000
    000474  aa   077777 000043     511  filepos:	its	-1,1
    000475  aa   000001 000000
    000476  aa   077777 000043     512  mergef:	its	-1,1
    000477  aa   000001 000000
    000500  aa   077777 000043     513  open:	its	-1,1
    000501  aa   000001 000000
    000502  aa   077777 000043     514  cruft1:	its	-1,1		used to be openi
    000503  aa   000001 000000
    000504  aa   077777 000043     515  evalhook_atom:  its  -1,1		used to be openo, now is 'evalhook (nothing to do with I/O)
    000505  aa   000001 000000
    000506  aa   077777 000043     516  outfile:	its	-1,1
    000507  aa   000001 000000
    000510  aa   077777 000043     517  rename:	its	-1,1
    000511  aa   000001 000000
    000512  aa   077777 000043     518  stream:	its	-1,1
    000513  aa   000001 000000
                                   519
                                   520  "  atomic constants needed by status   &   sstatus for  new  I/O  system
                                   521
                                   522
    000514  aa   077777 000043     523  dsk_atom:	its	-1,1
    000515  aa   000001 000000
                                   524
    000516  aa   077777 000043     525  crunit_atom:	its	-1,1
    000517  aa   000001 000000
                                   526
    000520  aa   077777 000043     527  args:	its	-1,1
    000521  aa   000001 000000
                                   528
                                   529  	" atomic constants needed by lisp_error_
                                   530
    000522  aa   077777 000043     531  err_atom:	its	-1,1
    000523  aa   000001 000000
                                   532
    000524  aa   077777 000043     533  eval_atom: its	-1,1
    000525  aa   000001 000000
                                   534
    000526  aa   077777 000043     535  apply_atom: its	-1,1
    000527  aa   000001 000000
                                   536
    000530  aa   077777 000043     537  princ_atom: its	-1,1
    000531  aa   000001 000000
                                   538
    000532                         539  prin1:
    000532  aa   077777 000043     540  prin1_atom: its	-1,1
    000533  aa   000001 000000
                                   541
    000534  aa   077777 000043     542  print_atom: its	-1,1
    000535  aa   000001 000000
    000536  aa   077777 000043     543  MINUS:	its	-1,1
    000537  aa   000001 000000
    000540  aa   077777 000043     544  SLASH:	its	-1,1
    000541  aa   000001 000000
    000542  aa   077777 000043     545  defun:	its	-1,1
    000543  aa   000001 000000
    000544  aa   077777 000043     546  expr_hash:its	-1,1
    000545  aa   000001 000000
    000546                         547  vertical_bar_macro:
    000546  aa   077777 000043     548  	its 	-1,1
    000547  aa   000001 000000
    000550  aa   077777 000043     549  eof_atom: its	-1,1
    000551  aa   000001 000000
    000552                         550  progn_atom:
    000552  aa   077777 000043     551  	its	-1,1
    000553  aa   000001 000000
                                   552
    000554                         553  end_atomic_constants:
                                   554
                                   555
    000554  aa   077777 000043     556  toplevel:	its	-1,1
    000555  aa   000001 000000
    000556  aa   077777 000043     557  divov_flag:	its -1,1			(status divov) - t means handle divide overflow
    000557  aa   000001 000000
    000560                         558  plus_status:
    000560  aa   077777 000043     559  	its	-1,1
    000561  aa   000001 000000
                                   560
                                   561
    000562  aa   077777 000043     562  status_gctwa:	its	-1,1
    000563  aa   000001 000000
    000564                         563  tty_input_chan:
    000564  aa   077777 000043     564  	its	-1,1
    000565  aa   000001 000000
                                   565
    000566                         566  tty_output_chan:
    000566  aa   077777 000043     567  	its	-1,1
    000567  aa   000001 000000
                                   568
    000570                         569  property_list_of_nil:
    000570  aa   077777 000043     570  	its	-1,1
    000571  aa   000001 000000
    000572                         571  cleanup_list:
    000572  aa   077777 000043     572  	its	-1,1
    000573  aa   000001 000000
    000574                         573  end_gc_area: null
                                   574  "
                                   575  	use	tx
                                   576  "	join	/text/tx		put this unchanging stuff in the text section
                                   577
    000126                         578  number_gc_ptrs:
    000126  aa   000000 000175     579  	zero	0,(end_gc_area-garbage_collected_ptrs)/2
    000127                         580  number_of_atomic_constants:
    000127  aa   000000 000164     581  	zero	0,(end_atomic_constants-atomic_constants)/2
                                   582
    000130                         583  subsys_recurse_save_size:
    000130  aa   000000 000564     584  	zero	0,end_gc_area-lisp_static_vars_
                                   585
                                   586
                                   587
                                   588
                                   589  " table of names of atomic constants above.
                                   590  " in acc format. There is no maximum name length, the names
                                   591  " are simply concatenated.
                                   592
    000131                         593  atomic_constants_names:
    000131  aa  003 156 151 154    594  	acc	/nil/
    000132  aa  001 164 000 000    595  	acc	/t/
    000133  aa  010 145 170 164    596  	acc	/external/
    000134  aa  145 162 156 141
    000135  aa  154 000 000 000
    000136  aa  002 136 144 000    597  	acc	/^d/
    000137  aa  002 136 161 000    598  	acc	/^q/
    000140  aa  002 136 162 000    599  	acc	/^r/
    000141  aa  002 136 167 000    600  	acc	/^w/
    000142  aa  032 151 156 164    601  	acc	/internal_interrupt_0_atom_/
    000143  aa  145 162 156 141
    000144  aa  154 137 151 156
    000145  aa  164 145 162 162
    000146  aa  165 160 164 137
    000147  aa  060 137 141 164
    000150  aa  157 155 137 000
    000151  aa  002 136 142 000    602  	acc	/^b/			user_intr_array(1)
    000152  aa  032 151 156 164    603  	acc	/internal_interrupt_2_atom_/
    000153  aa  145 162 156 141
    000154  aa  154 137 151 156
    000155  aa  164 145 162 162
    000156  aa  165 160 164 137
    000157  aa  062 137 141 164
    000160  aa  157 155 137 000
    000161  aa  012 141 154 141    604  	acc	/alarmclock/
    000162  aa  162 155 143 154
    000163  aa  157 143 153 000
    000164  aa  006 145 162 162    605  	acc	/errset/
    000165  aa  163 145 164 000
    000166  aa  012 165 156 144    606  	acc	/undf-fnctn/
    000167  aa  146 055 146 156
    000170  aa  143 164 156 000
    000171  aa  012 165 156 142    607  	acc	/unbnd-vrbl/
    000172  aa  156 144 055 166
    000173  aa  162 142 154 000
    000174  aa  015 167 162 156    608  	acc	/wrng-type-arg/
    000175  aa  147 055 164 171
    000176  aa  160 145 055 141
    000177  aa  162 147 000 000
    000200  aa  015 165 156 163    609  	acc	/unseen-go-tag/
    000201  aa  145 145 156 055
    000202  aa  147 157 055 164
    000203  aa  141 147 000 000
    000204  aa  014 167 162 156    610  	acc	/wrng-no-args/
    000205  aa  147 055 156 157
    000206  aa  055 141 162 147
    000207  aa  163 000 000 000
    000210  aa  012 147 143 055    611  	acc	/gc-lossage/
    000211  aa  154 157 163 163
    000212  aa  141 147 145 000
    000213  aa  010 146 141 151    612  	acc	/fail-act/
    000214  aa  154 055 141 143
    000215  aa  164 000 000 000
    000216  aa  014 160 144 154    613  	acc	/pdl-overflow/
    000217  aa  055 157 166 145
    000220  aa  162 146 154 157
    000221  aa  167 000 000 000
    000222  aa  003 156 151 154    614  	acc	/nil/
    000223  aa  033 151 156 164    615  	acc	/internal_interrupt_14_atom_/
    000224  aa  145 162 156 141
    000225  aa  154 137 151 156
    000226  aa  164 145 162 162
    000227  aa  165 160 164 137
    000230  aa  061 064 137 141
    000231  aa  164 157 155 137
    000232  aa  033 151 156 164    616  	acc	/internal_interrupt_15_atom_/
    000233  aa  145 162 156 141
    000234  aa  154 137 151 156
    000235  aa  164 145 162 162
    000236  aa  165 160 164 137
    000237  aa  061 065 137 141
    000240  aa  164 157 155 137
    000241  aa  033 151 156 164    617  	acc	/internal_interrupt_16_atom_/
    000242  aa  145 162 156 141
    000243  aa  154 137 151 156
    000244  aa  164 145 162 162
    000245  aa  165 160 164 137
    000246  aa  061 066 137 141
    000247  aa  164 157 155 137
    000250  aa  003 156 151 154    618  	acc	/nil/
    000251  aa  027 151 156 164    619  	acc	/internal_autoload_atom_/
    000252  aa  145 162 156 141
    000253  aa  154 137 141 165
    000254  aa  164 157 154 157
    000255  aa  141 144 137 141
    000256  aa  164 157 155 137
    000257  aa  012 052 162 163    620  	acc	/*rset-trap/
    000260  aa  145 164 055 164
    000261  aa  162 141 160 000
    000262  aa  011 147 143 055    621  	acc	/gc-daemon/
    000263  aa  144 141 145 155
    000264  aa  157 156 000 000
    000265  aa  001 052 000 000    622  	acc	/*/
    000266  aa  001 053 000 000    623  	acc	/+/
    000267  aa  004 142 141 163    624  	acc	/base/
    000270  aa  145 000 000 000
    000271  aa  005 151 142 141    625  	acc	/ibase/
    000272  aa  163 145 000 000
    000273  aa  011 162 145 141    626  	acc	/readtable/
    000274  aa  144 164 141 142
    000275  aa  154 145 000 000
    000276  aa  010 052 156 157    627  	acc	/*nopoint/
    000277  aa  160 157 151 156
    000300  aa  164 000 000 000
    000301  aa  003 164 164 171    628  	acc	/tty/
    000302  aa  007 145 162 162    629  	acc	/errlist/
    000303  aa  154 151 163 164
    000304  aa  006 151 156 146    630  	acc	/infile/
    000305  aa  151 154 145 000
    000306  aa  007 151 156 163    631  	acc	/instack/
    000307  aa  164 141 143 153
    000310  aa  010 157 165 164    632  	acc	/outfiles/
    000311  aa  146 151 154 145
    000312  aa  163 000 000 000
    000313  aa  012 172 165 156    633  	acc	/zunderflow/
    000314  aa  144 145 162 146
    000315  aa  154 157 167 000
    000316  aa  005 165 162 145    634  	acc	/uread/
    000317  aa  141 144 000 000
    000320  aa  006 165 167 162    635  	acc	/uwrite/
    000321  aa  151 164 145 000
    000322  aa  017 157 154 144    636  	acc	/old-io-defaults/
    000323  aa  055 151 157 055
    000324  aa  144 145 146 141
    000325  aa  165 154 164 163
    000326  aa  002 136 141 000    637  	acc	/^a/
    000327  aa  005 052 162 163    638  	acc	/*rset/
    000330  aa  145 164 000 000
    000331  aa  011 160 162 151    639  	acc	/prinlevel/
    000332  aa  156 154 145 166
    000333  aa  145 154 000 000
    000334  aa  012 160 162 151    640  	acc	/prinlength/
    000335  aa  156 154 145 156
    000336  aa  147 164 150 000
    000337  aa  005 166 141 154    641  	acc	/value/
    000340  aa  165 145 000 000
    000341  aa  010 162 145 141    642  	acc	/read-eof/
    000342  aa  144 055 145 157
    000343  aa  146 000 000 000
    000344  aa  010 163 160 154    643  	acc	/splicing/
    000345  aa  151 143 151 156
    000346  aa  147 000 000 000
    000347  aa  002 044 160 000    644  	acc	/$p/
    000350  aa  005 161 165 157    645  	acc	/quote/
    000351  aa  164 145 000 000
    000352  aa  006 163 171 155    646  	acc	/symbol/
    000353  aa  142 157 154 000
    000354  aa  006 163 164 162    647  	acc	/string/
    000355  aa  151 156 147 000
    000356  aa  006 146 151 170    648  	acc	/fixnum/
    000357  aa  156 165 155 000
    000360  aa  006 146 154 157    649  	acc	/flonum/
    000361  aa  156 165 155 000
    000362  aa  006 162 141 156    650  	acc	/random/
    000363  aa  144 157 155 000
    000364  aa  006 142 151 147    651  	acc	/bignum/
    000365  aa  156 165 155 000
    000366  aa  004 154 151 163    652  	acc	/list/
    000367  aa  164 000 000 000
    000370  aa  002 147 157 000    653  	acc	/go/
    000371  aa  006 162 145 164    654  	acc	/return/
    000372  aa  165 162 156 000
    000373  aa  010 160 144 154    655  	acc	/pdlframe/
    000374  aa  146 162 141 155
    000375  aa  145 000 000 000
    000376  aa  012 141 154 160    656  	acc	/alphalessp/
    000377  aa  150 141 154 145
    000400  aa  163 163 160 000
    000401  aa  006 154 141 155    657  	acc	/lambda/
    000402  aa  142 144 141 000
    000403  aa  005 154 141 142    658  	acc	/label/
    000404  aa  145 154 000 000
    000405  aa  006 146 165 156    659  	acc	/funarg/
    000406  aa  141 162 147 000
    000407  aa  004 163 165 142    660  	acc	/subr/
    000410  aa  162 000 000 000
    000411  aa  005 154 163 165    661  	acc	/lsubr/
    000412  aa  142 162 000 000
    000413  aa  005 146 163 165    662  	acc	/fsubr/
    000414  aa  142 162 000 000
    000415  aa  004 145 170 160    663  	acc	/expr/
    000416  aa  162 000 000 000
    000417  aa  005 146 145 170    664  	acc	/fexpr/
    000420  aa  160 162 000 000
    000421  aa  005 141 162 162    665  	acc	/array/
    000422  aa  141 171 000 000
    000423  aa  005 155 141 143    666  	acc	/macro/
    000424  aa  162 157 000 000
    000425  aa  010 141 165 164    667  	acc	/autoload/
    000426  aa  157 154 157 141
    000427  aa  144 000 000 000
    000430  aa  010 161 165 157    668  	acc	/quotient/
    000431  aa  164 151 145 156
    000432  aa  164 000 000 000
    000433  aa  003 141 162 147    669  	acc	/arg/
    000434  aa  006 163 145 164    670  	acc	/setarg/
    000435  aa  141 162 147 000
    000436  aa  007 154 151 163    671  	acc	/listify/
    000437  aa  164 151 146 171
    000440  aa  011 145 166 141    672  	acc	/evalframe/
    000441  aa  154 146 162 141
    000442  aa  155 145 000 000
    000443  aa  012 141 162 162    673  	acc	/arrayindex/
    000444  aa  141 171 151 156
    000445  aa  144 145 170 000
    000446  aa  004 163 145 164    674  	acc	/setq/
    000447  aa  161 000 000 000
    000450  aa  001 077 000 000    675  	acc	/?/
    000451  aa  005 156 157 165    676  	acc	/nouuo/		nouuo flag = global var
    000452  aa  165 157 000 000
    000453  aa  005 156 157 162    677  	acc	/noret/		noret flag = global var
    000454  aa  145 164 000 000
    000455  aa  025 151 156 164    678  	acc	/internal_quote_macro_/
    000456  aa  145 162 156 141
    000457  aa  154 137 161 165
    000460  aa  157 164 145 137
    000461  aa  155 141 143 162
    000462  aa  157 137 000 000
    000463  aa  031 151 156 164    679  	acc	/internal_semicolon_macro_/
    000464  aa  145 162 156 141
    000465  aa  154 137 163 145
    000466  aa  155 151 143 157
    000467  aa  154 157 156 137
    000470  aa  155 141 143 162
    000471  aa  157 137 000 000
    000472  aa  007 162 165 156    680  	acc	/runtime/
    000473  aa  164 151 155 145
    000474  aa  004 164 151 155    681  	acc	/time/
    000475  aa  145 000 000 000
    000476  aa  007 143 157 155    682  	acc	/comment/	atom for comment subr to return
    000477  aa  155 145 156 164
    000500  aa  007 144 145 143    683  	acc	/declare/ atom for declare subr to return.
    000501  aa  154 141 162 145
    000502  aa  005 143 154 157    684  	acc	/close/
    000503  aa  163 145 000 000
    000504  aa  007 144 145 154    685  	acc	/deletef/
    000505  aa  145 164 145 146
    000506  aa  007 146 151 154    686  	acc	/filepos/
    000507  aa  145 160 157 163
    000510  aa  006 155 145 162    687  	acc	/mergef/
    000511  aa  147 145 146 000
    000512  aa  004 157 160 145    688  	acc	/open/
    000513  aa  156 000 000 000
    000514  aa  010 143 162 165    689  	acc	/cruft1../	used to be openi
    000515  aa  146 164 061 056
    000516  aa  056 000 000 000
    000517  aa  010 145 166 141    690  	acc	/evalhook/	used to be openo...
    000520  aa  154 150 157 157
    000521  aa  153 000 000 000
    000522  aa  007 157 165 164    691  	acc	/outfile/
    000523  aa  146 151 154 145
    000524  aa  006 162 145 156    692  	acc	/rename/
    000525  aa  141 155 145 000
    000526  aa  006 163 164 162    693  	acc	/stream/
    000527  aa  145 141 155 000
    000530  aa  003 144 163 153    694  	acc	/dsk/
    000531  aa  006 143 162 165    695  	acc	/crunit/
    000532  aa  156 151 164 000
    000533  aa  004 141 162 147    696  	acc	/args/
    000534  aa  163 000 000 000
    000535  aa  003 145 162 162    697  	acc	/err/
    000536  aa  004 145 166 141    698  	acc	/eval/
    000537  aa  154 000 000 000
    000540  aa  005 141 160 160    699  	acc	/apply/
    000541  aa  154 171 000 000
    000542  aa  005 160 162 151    700  	acc	/princ/
    000543  aa  156 143 000 000
    000544  aa  005 160 162 151    701  	acc	/prin1/
    000545  aa  156 061 000 000
    000546  aa  005 160 162 151    702  	acc	/print/
    000547  aa  156 164 000 000
    000550  aa  001 055 000 000    703  	acc	/-/
    000551  aa  001 057 000 000    704  	acc	|/|
    000552  aa  005 144 145 146    705  	acc	/defun/
    000553  aa  165 156 000 000
    000554  aa  011 145 170 160    706  	acc	/expr-hash/
    000555  aa  162 055 150 141
    000556  aa  163 150 000 000
    000557  aa  034 151 156 164    707  	acc	/internal_vertical_bar_macro_/
    000560  aa  145 162 156 141
    000561  aa  154 137 166 145
    000562  aa  162 164 151 143
    000563  aa  141 154 137 142
    000564  aa  141 162 137 155
    000565  aa  141 143 162 157
    000566  aa  137 000 000 000
    000567  aa  003 145 157 146    708  	acc	/eof/
    000570  aa  005 160 162 157    709  	acc	/progn/
    000571  aa  147 156 000 000
                                   710  	end

NO LITERALS

NAME DEFINITIONS FOR ENTRY POINTS AND SEGDEFS

    000572  5a   000003 000000
    000573  5a   002114 600000
    000574  aa   000000 000000
    000575  55   000013 000002
    000576  5a   000002 400003
    000577  55   000006 000013
    000600  aa  021 154 151 163
    000601  aa  160 137 163 164
    000602  aa  141 164 151 143
    000603  aa  137 166 141 162
    000604  aa  163 137 000 000
    000605  55   000023 000003
    000606  2a   000135 400001
    000607  55   000016 000003
    000610  aa  022 144 145 146         deferred_interrupt
    000611  aa  145 162 162 145
    000612  aa  144 137 151 156
    000613  aa  164 145 162 162
    000614  aa  165 160 164 000
    000615  55   000031 000013
    000616  2a   000134 400001
    000617  55   000026 000003
    000620  aa  013 155 165 154         mulpi_state
    000621  aa  160 151 137 163
    000622  aa  164 141 164 145
    000623  55   000040 000023
    000624  2a   000133 400001
    000625  55   000034 000003
    000626  aa  015 155 165 154         mulquit_state
    000627  aa  161 165 151 164
    000630  aa  137 163 164 141
    000631  aa  164 145 000 000
    000632  55   000046 000031
    000633  2a   000552 400001
    000634  55   000043 000003
    000635  aa  012 160 162 157         progn_atom
    000636  aa  147 156 137 141
    000637  aa  164 157 155 000
    000640  55   000054 000040
    000641  2a   000550 400001
    000642  55   000051 000003
    000643  aa  010 145 157 146         eof_atom
    000644  aa  137 141 164 157
    000645  aa  155 000 000 000
    000646  55   000064 000046
    000647  2a   000546 400001
    000650  55   000057 000003
    000651  aa  022 166 145 162         vertical_bar_macro
    000652  aa  164 151 143 141
    000653  aa  154 137 142 141
    000654  aa  162 137 155 141
    000655  aa  143 162 157 000
    000656  55   000072 000054
    000657  2a   000544 400001
    000660  55   000067 000003
    000661  aa  011 145 170 160         expr_hash
    000662  aa  162 137 150 141
    000663  aa  163 150 000 000
    000664  55   000077 000064
    000665  2a   000542 400001
    000666  55   000075 000003
    000667  aa  005 144 145 146         defun
    000670  aa  165 156 000 000
    000671  55   000106 000072
    000672  2a   000572 400001
    000673  55   000102 000003
    000674  aa  014 143 154 145         cleanup_list
    000675  aa  141 156 165 160
    000676  aa  137 154 151 163
    000677  aa  164 000 000 000
    000700  55   000116 000077
    000701  2a   000131 400001
    000702  55   000111 000003
    000703  aa  023 143 154 145         cleanup_list_exists
    000704  aa  141 156 165 160
    000705  aa  137 154 151 163
    000706  aa  164 137 145 170
    000707  aa  151 163 164 163
    000710  55   000130 000106
    000711  2a   000132 400001
    000712  55   000121 000003
    000713  aa  033 141 143 164         activate_gc_unwinder_kludge
    000714  aa  151 166 141 164
    000715  aa  145 137 147 143
    000716  aa  137 165 156 167
    000717  aa  151 156 144 145
    000720  aa  162 137 153 154
    000721  aa  165 144 147 145
    000722  55   000140 000116
    000723  2a   000176 400001
    000724  55   000133 000003
    000725  aa  022 147 143 137         gc_unwinder_kludge
    000726  aa  165 156 167 151
    000727  aa  156 144 145 162
    000730  aa  137 153 154 165
    000731  aa  144 147 145 000
    000732  55   000147 000130
    000733  2a   000142 400001
    000734  55   000143 000003
    000735  aa  014 143 165 162         cur_stat_pos
    000736  aa  137 163 164 141
    000737  aa  164 137 160 157
    000740  aa  163 000 000 000
    000741  55   000156 000140
    000742  2a   000140 400001
    000743  55   000152 000003
    000744  aa  014 143 165 162         cur_stat_seg
    000745  aa  137 163 164 141
    000746  aa  164 137 163 145
    000747  aa  147 000 000 000
    000750  55   000170 000147
    000751  0a   000130 400000
    000752  55   000161 000003
    000753  aa  030 163 165 142         subsys_recurse_save_size
    000754  aa  163 171 163 137
    000755  aa  162 145 143 165
    000756  aa  162 163 145 137
    000757  aa  163 141 166 145
    000760  aa  137 163 151 172
    000761  aa  145 000 000 000
    000762  55   000177 000156
    000763  0a   000125 400000
    000764  55   000173 000003
    000765  aa  015 164 145 155         template_size
    000766  aa  160 154 141 164
    000767  aa  145 137 163 151
    000770  aa  172 145 000 000
    000771  55   000205 000170
    000772  0a   000000 400000
    000773  55   000202 000003
    000774  aa  010 164 145 155         template
    000775  aa  160 154 141 164
    000776  aa  145 000 000 000
    000777  55   000216 000177
    001000  0a   000131 400000
    001001  55   000210 000003
    001002  aa  026 141 164 157         atomic_constants_names
    001003  aa  155 151 143 137
    001004  aa  143 157 156 163
    001005  aa  164 141 156 164
    001006  aa  163 137 156 141
    001007  aa  155 145 163 000
    001010  55   000230 000205
    001011  0a   000127 400000
    001012  55   000221 000003
    001013  aa  032 156 165 155         number_of_atomic_constants
    001014  aa  142 145 162 137
    001015  aa  157 146 137 141
    001016  aa  164 157 155 151
    001017  aa  143 137 143 157
    001020  aa  156 163 164 141
    001021  aa  156 164 163 000
    001022  55   000237 000216
    001023  0a   000126 400000
    001024  55   000233 000003
    001025  aa  016 156 165 155         number_gc_ptrs
    001026  aa  142 145 162 137
    001027  aa  147 143 137 160
    001030  aa  164 162 163 000
    001031  55   000250 000230
    001032  2a   000570 400001
    001033  55   000242 000003
    001034  aa  024 160 162 157         property_list_of_nil
    001035  aa  160 145 162 164
    001036  aa  171 137 154 151
    001037  aa  163 164 137 157
    001040  aa  146 137 156 151
    001041  aa  154 000 000 000
    001042  55   000257 000237
    001043  2a   000566 400001
    001044  55   000253 000003
    001045  aa  017 164 164 171         tty_output_chan
    001046  aa  137 157 165 164
    001047  aa  160 165 164 137
    001050  aa  143 150 141 156
    001051  55   000266 000250
    001052  2a   000564 400001
    001053  55   000262 000003
    001054  aa  016 164 164 171         tty_input_chan
    001055  aa  137 151 156 160
    001056  aa  165 164 137 143
    001057  aa  150 141 156 000
    001060  55   000275 000257
    001061  2a   000562 400001
    001062  55   000271 000003
    001063  aa  014 163 164 141         status_gctwa
    001064  aa  164 165 163 137
    001065  aa  147 143 164 167
    001066  aa  141 000 000 000
    001067  55   000303 000266
    001070  2a   000560 400001
    001071  55   000300 000003
    001072  aa  013 160 154 165         plus_status
    001073  aa  163 137 163 164
    001074  aa  141 164 165 163
    001075  55   000311 000275
    001076  2a   000556 400001
    001077  55   000306 000003
    001100  aa  012 144 151 166         divov_flag
    001101  aa  157 166 137 146
    001102  aa  154 141 147 000
    001103  55   000317 000303
    001104  2a   000554 400001
    001105  55   000314 000003
    001106  aa  010 164 157 160         toplevel
    001107  aa  154 145 166 145
    001110  aa  154 000 000 000
    001111  55   000325 000311
    001112  2a   000322 400001
    001113  55   000322 000003
    001114  aa  012 172 165 156         zunderflow
    001115  aa  144 145 162 146
    001116  aa  154 157 167 000
    001117  55   000332 000317
    001120  2a   000532 400001
    001121  55   000330 000003
    001122  aa  005 160 162 151         prin1
    001123  aa  156 061 000 000
    001124  55   000340 000325
    001125  2a   000534 400001
    001126  55   000335 000003
    001127  aa  012 160 162 151         print_atom
    001130  aa  156 164 137 141
    001131  aa  164 157 155 000
    001132  55   000346 000332
    001133  2a   000532 400001
    001134  55   000343 000003
    001135  aa  012 160 162 151         prin1_atom
    001136  aa  156 061 137 141
    001137  aa  164 157 155 000
    001140  55   000354 000340
    001141  2a   000530 400001
    001142  55   000351 000003
    001143  aa  012 160 162 151         princ_atom
    001144  aa  156 143 137 141
    001145  aa  164 157 155 000
    001146  55   000362 000346
    001147  2a   000526 400001
    001150  55   000357 000003
    001151  aa  012 141 160 160         apply_atom
    001152  aa  154 171 137 141
    001153  aa  164 157 155 000
    001154  55   000370 000354
    001155  2a   000524 400001
    001156  55   000365 000003
    001157  aa  011 145 166 141         eval_atom
    001160  aa  154 137 141 164
    001161  aa  157 155 000 000
    001162  55   000376 000362
    001163  2a   000522 400001
    001164  55   000373 000003
    001165  aa  010 145 162 162         err_atom
    001166  aa  137 141 164 157
    001167  aa  155 000 000 000
    001170  55   000404 000370
    001171  2a   000334 400001
    001172  55   000401 000003
    001173  aa  011 163 164 141         star_rset
    001174  aa  162 137 162 163
    001175  aa  145 164 000 000
    001176  55   000411 000376
    001177  2a   000520 400001
    001200  55   000407 000003
    001201  aa  004 141 162 147         args
    001202  aa  163 000 000 000
    001203  55   000420 000404
    001204  2a   000330 400001
    001205  55   000414 000003
    001206  aa  017 157 154 144         old_io_defaults
    001207  aa  137 151 157 137
    001210  aa  144 145 146 141
    001211  aa  165 154 164 163
    001212  55   000426 000411
    001213  2a   000326 400001
    001214  55   000423 000003
    001215  aa  013 165 167 162         uwrite_atom
    001216  aa  151 164 145 137
    001217  aa  141 164 157 155
    001220  55   000434 000420
    001221  2a   000324 400001
    001222  55   000431 000003
    001223  aa  012 165 162 145         uread_atom
    001224  aa  141 144 137 141
    001225  aa  164 157 155 000
    001226  55   000442 000426
    001227  2a   000516 400001
    001230  55   000437 000003
    001231  aa  013 143 162 165         crunit_atom
    001232  aa  156 151 164 137
    001233  aa  141 164 157 155
    001234  55   000450 000434
    001235  2a   000514 400001
    001236  55   000445 000003
    001237  aa  010 144 163 153         dsk_atom
    001240  aa  137 141 164 157
    001241  aa  155 000 000 000
    001242  55   000455 000442
    001243  2a   000512 400001
    001244  55   000453 000003
    001245  aa  006 163 164 162         stream
    001246  aa  145 141 155 000
    001247  55   000462 000450
    001250  2a   000510 400001
    001251  55   000460 000003
    001252  aa  006 162 145 156         rename
    001253  aa  141 155 145 000
    001254  55   000470 000455
    001255  2a   000320 400001
    001256  55   000465 000003
    001257  aa  010 157 165 164         outfiles
    001260  aa  146 151 154 145
    001261  aa  163 000 000 000
    001262  55   000475 000462
    001263  2a   000506 400001
    001264  55   000473 000003
    001265  aa  007 157 165 164         outfile
    001266  aa  146 151 154 145
    001267  55   000502 000470
    001270  2a   000500 400001
    001271  55   000500 000003
    001272  aa  004 157 160 145         open
    001273  aa  156 000 000 000
    001274  55   000507 000475
    001275  2a   000476 400001
    001276  55   000505 000003
    001277  aa  006 155 145 162         mergef
    001300  aa  147 145 146 000
    001301  55   000514 000502
    001302  2a   000316 400001
    001303  55   000512 000003
    001304  aa  007 151 156 163         instack
    001305  aa  164 141 143 153
    001306  55   000521 000507
    001307  2a   000314 400001
    001310  55   000517 000003
    001311  aa  006 151 156 146         infile
    001312  aa  151 154 145 000
    001313  55   000526 000514
    001314  2a   000474 400001
    001315  55   000524 000003
    001316  aa  007 146 151 154         filepos
    001317  aa  145 160 157 163
    001320  55   000533 000521
    001321  2a   000472 400001
    001322  55   000531 000003
    001323  aa  007 144 145 154         deletef
    001324  aa  145 164 145 146
    001325  55   000540 000526
    001326  2a   000470 400001
    001327  55   000536 000003
    001330  aa  005 143 154 157         close
    001331  aa  163 145 000 000
    001332  55   000547 000533
    001333  2a   000466 400001
    001334  55   000543 000003
    001335  aa  014 144 145 143         declare_atom
    001336  aa  154 141 162 145
    001337  aa  137 141 164 157
    001340  aa  155 000 000 000
    001341  55   000556 000540
    001342  2a   000464 400001
    001343  55   000552 000003
    001344  aa  014 143 157 155         comment_atom
    001345  aa  155 145 156 164
    001346  aa  137 141 164 157
    001347  aa  155 000 000 000
    001350  55   000564 000547
    001351  2a   000462 400001
    001352  55   000561 000003
    001353  aa  011 164 151 155         time_atom
    001354  aa  145 137 141 164
    001355  aa  157 155 000 000
    001356  55   000573 000556
    001357  2a   000460 400001
    001360  55   000567 000003
    001361  aa  014 162 165 156         runtime_atom
    001362  aa  164 151 155 145
    001363  aa  137 141 164 157
    001364  aa  155 000 000 000
    001365  55   000602 000564
    001366  2a   000456 400001
    001367  55   000576 000003
    001370  aa  017 163 145 155         semicolon_macro
    001371  aa  151 143 157 154
    001372  aa  157 156 137 155
    001373  aa  141 143 162 157
    001374  55   000610 000573
    001375  2a   000454 400001
    001376  55   000605 000003
    001377  aa  013 161 165 157         quote_macro
    001400  aa  164 145 137 155
    001401  aa  141 143 162 157
    001402  55   000616 000602
    001403  2a   000452 400001
    001404  55   000613 000003
    001405  aa  012 156 157 162         noret_flag
    001406  aa  145 164 137 146
    001407  aa  154 141 147 000
    001410  55   000624 000610
    001411  2a   000450 400001
    001412  55   000621 000003
    001413  aa  012 156 157 165         nouuo_flag
    001414  aa  165 157 137 146
    001415  aa  154 141 147 000
    001416  55   000633 000616
    001417  2a   000446 400001
    001420  55   000627 000003
    001421  aa  015 161 165 145         question_mark
    001422  aa  163 164 151 157
    001423  aa  156 137 155 141
    001424  aa  162 153 000 000
    001425  55   000641 000624
    001426  2a   000444 400001
    001427  55   000636 000003
    001430  aa  011 163 145 164         setq_atom
    001431  aa  161 137 141 164
    001432  aa  157 155 000 000
    001433  55   000647 000633
    001434  2a   000442 400001
    001435  55   000644 000003
    001436  aa  012 141 162 162         arrayindex
    001437  aa  141 171 151 156
    001440  aa  144 145 170 000
    001441  55   000656 000641
    001442  2a   000440 400001
    001443  55   000652 000003
    001444  aa  016 145 166 141         evalframe_atom
    001445  aa  154 146 162 141
    001446  aa  155 145 137 141
    001447  aa  164 157 155 000
    001450  55   000664 000647
    001451  2a   000430 400001
    001452  55   000661 000003
    001453  aa  010 161 165 157         quotient
    001454  aa  164 151 145 156
    001455  aa  164 000 000 000
    001456  55   000671 000656
    001457  2a   000436 400001
    001460  55   000667 000003
    001461  aa  006 161 154 163         qlstfy
    001462  aa  164 146 171 000
    001463  55   000676 000664
    001464  2a   000434 400001
    001465  55   000674 000003
    001466  aa  007 161 163 145         qsetarg
    001467  aa  164 141 162 147
    001470  55   000703 000671
    001471  2a   000432 400001
    001472  55   000701 000003
    001473  aa  004 161 141 162         qarg
    001474  aa  147 000 000 000
    001475  55   000711 000676
    001476  2a   000426 400001
    001477  55   000706 000003
    001500  aa  010 141 165 164         autoload
    001501  aa  157 154 157 141
    001502  aa  144 000 000 000
    001503  55   000716 000703
    001504  2a   000424 400001
    001505  55   000714 000003
    001506  aa  005 155 141 143         macro
    001507  aa  162 157 000 000
    001510  55   000723 000711
    001511  2a   000406 400001
    001512  55   000721 000003
    001513  aa  006 146 165 156         funarg
    001514  aa  141 162 147 000
    001515  55   000730 000716
    001516  2a   000420 400001
    001517  55   000726 000003
    001520  aa  005 146 145 170         fexpr
    001521  aa  160 162 000 000
    001522  55   000735 000723
    001523  2a   000416 400001
    001524  55   000733 000003
    001525  aa  004 145 170 160         expr
    001526  aa  162 000 000 000
    001527  55   000742 000730
    001530  2a   000414 400001
    001531  55   000740 000003
    001532  aa  005 146 163 165         fsubr
    001533  aa  142 162 000 000
    001534  55   000747 000735
    001535  2a   000412 400001
    001536  55   000745 000003
    001537  aa  005 154 163 165         lsubr
    001540  aa  142 162 000 000
    001541  55   000754 000742
    001542  2a   000410 400001
    001543  55   000752 000003
    001544  aa  004 163 165 142         subr
    001545  aa  162 000 000 000
    001546  55   000761 000747
    001547  2a   000404 400001
    001550  55   000757 000003
    001551  aa  005 154 141 142         label
    001552  aa  145 154 000 000
    001553  55   000766 000754
    001554  2a   000402 400001
    001555  55   000764 000003
    001556  aa  006 154 141 155         lambda
    001557  aa  142 144 141 000
    001560  55   000776 000761
    001561  2a   000410 400001
    001562  55   000771 000003
    001563  aa  023 146 165 156         function_properties
    001564  aa  143 164 151 157
    001565  aa  156 137 160 162
    001566  aa  157 160 145 162
    001567  aa  164 151 145 163
    001570  55   001005 000766
    001571  2a   000400 400001
    001572  55   001001 000003
    001573  aa  017 141 154 160         alphalessp_atom
    001574  aa  150 141 154 145
    001575  aa  163 163 160 137
    001576  aa  141 164 157 155
    001577  55   001014 000776
    001600  2a   000376 400001
    001601  55   001010 000003
    001602  aa  015 160 144 154         pdlframe_atom
    001603  aa  146 162 141 155
    001604  aa  145 137 141 164
    001605  aa  157 155 000 000
    001606  55   001022 001005
    001607  2a   000374 400001
    001610  55   001017 000003
    001611  aa  013 162 145 164         return_atom
    001612  aa  165 162 156 137
    001613  aa  141 164 157 155
    001614  55   001027 001014
    001615  2a   000372 400001
    001616  55   001025 000003
    001617  aa  007 147 157 137         go_atom
    001620  aa  141 164 157 155
    001621  55   001035 001022
    001622  2a   000370 400001
    001623  55   001032 000003
    001624  aa  011 154 151 163         list_atom
    001625  aa  164 137 141 164
    001626  aa  157 155 000 000
    001627  55   001043 001027
    001630  2a   000366 400001
    001631  55   001040 000003
    001632  aa  013 142 151 147         bignum_atom
    001633  aa  156 165 155 137
    001634  aa  141 164 157 155
    001635  55   001051 001035
    001636  2a   000364 400001
    001637  55   001046 000003
    001640  aa  013 162 141 156         random_atom
    001641  aa  144 157 155 137
    001642  aa  141 164 157 155
    001643  55   001056 001043
    001644  2a   000362 400001
    001645  55   001054 000003
    001646  aa  006 146 154 157         flonum
    001647  aa  156 165 155 000
    001650  55   001064 001051
    001651  2a   000362 400001
    001652  55   001061 000003
    001653  aa  013 146 154 157         flonum_atom
    001654  aa  156 165 155 137
    001655  aa  141 164 157 155
    001656  55   001072 001056
    001657  2a   000210 400001
    001660  55   001067 000003
    001661  aa  010 145 170 164         external
    001662  aa  145 162 156 141
    001663  aa  154 000 000 000
    001664  55   001077 001064
    001665  2a   000360 400001
    001666  55   001075 000003
    001667  aa  006 146 151 170         fixnum
    001670  aa  156 165 155 000
    001671  55   001105 001072
    001672  2a   000360 400001
    001673  55   001102 000003
    001674  aa  013 146 151 170         fixnum_atom
    001675  aa  156 165 155 137
    001676  aa  141 164 157 155
    001677  55   001113 001077
    001700  2a   000356 400001
    001701  55   001110 000003
    001702  aa  013 163 164 162         string_atom
    001703  aa  151 156 147 137
    001704  aa  141 164 157 155
    001705  55   001121 001105
    001706  2a   000354 400001
    001707  55   001116 000003
    001710  aa  012 160 156 141         pname_atom
    001711  aa  155 145 137 141
    001712  aa  164 157 155 000
    001713  55   001126 001113
    001714  2a   000422 400001
    001715  55   001124 000003
    001716  aa  005 141 162 162         array
    001717  aa  141 171 000 000
    001720  55   001134 001121
    001721  2a   000422 400001
    001722  55   001131 000003
    001723  aa  012 141 162 162         array_atom
    001724  aa  141 171 137 141
    001725  aa  164 157 155 000
    001726  55   001142 001126
    001727  2a   000352 400001
    001730  55   001137 000003
    001731  aa  012 161 165 157         quote_atom
    001732  aa  164 145 137 141
    001733  aa  164 157 155 000
    001734  55   001151 001134
    001735  2a   000350 400001
    001736  55   001145 000003
    001737  aa  015 144 157 154         dollar_p_atom
    001740  aa  154 141 162 137
    001741  aa  160 137 141 164
    001742  aa  157 155 000 000
    001743  55   001156 001142
    001744  2a   000346 400001
    001745  55   001154 000003
    001746  aa  006 163 137 141         s_atom
    001747  aa  164 157 155 000
    001750  55   001165 001151
    001751  2a   000344 400001
    001752  55   001161 000003
    001753  aa  014 162 145 141         readeof_atom
    001754  aa  144 145 157 146
    001755  aa  137 141 164 157
    001756  aa  155 000 000 000
    001757  55   001173 001156
    001760  2a   000342 400001
    001761  55   001170 000003
    001762  aa  012 166 141 154         value_atom
    001763  aa  165 145 137 141
    001764  aa  164 157 155 000
    001765  55   001202 001165
    001766  2a   000342 400001
    001767  55   001176 000003
    001770  aa  017 154 141 163         last_value_atom
    001771  aa  164 137 166 141
    001772  aa  154 165 145 137
    001773  aa  141 164 157 155
    001774  55   001210 001173
    001775  2a   000340 400001
    001776  55   001205 000003
    001777  aa  012 160 162 151         prinlength
    002000  aa  156 154 145 156
    002001  aa  147 164 150 000
    002002  55   001216 001202
    002003  2a   000336 400001
    002004  55   001213 000003
    002005  aa  011 160 162 151         prinlevel
    002006  aa  156 154 145 166
    002007  aa  145 154 000 000
    002010  55   001223 001210
    002011  2a   000332 400001
    002012  55   001221 000003
    002013  aa  005 143 164 162         ctrlA
    002014  aa  154 101 000 000
    002015  55   001230 001216
    002016  2a   000312 400001
    002017  55   001226 000003
    002020  aa  007 145 162 162         errlist
    002021  aa  154 151 163 164
    002022  55   001236 001223
    002023  2a   000310 400001
    002024  55   001233 000003
    002025  aa  010 164 164 171         tty_atom
    002026  aa  137 141 164 157
    002027  aa  155 000 000 000
    002030  55   001244 001230
    002031  2a   000306 400001
    002032  55   001241 000003
    002033  aa  011 163 164 156         stnopoint
    002034  aa  157 160 157 151
    002035  aa  156 164 000 000
    002036  55   001252 001236
    002037  2a   000304 400001
    002040  55   001247 000003
    002041  aa  011 162 145 141         readtable
    002042  aa  144 164 141 142
    002043  aa  154 145 000 000
    002044  55   001257 001244
    002045  2a   000302 400001
    002046  55   001255 000003
    002047  aa  005 151 142 141         ibase
    002050  aa  163 145 000 000
    002051  55   001264 001252
    002052  2a   000300 400001
    002053  55   001262 000003
    002054  aa  004 142 141 163         base
    002055  aa  145 000 000 000
    002056  55   001271 001257
    002057  2a   000540 400001
    002060  55   001267 000003
    002061  aa  005 123 114 101         SLASH
    002062  aa  123 110 000 000
    002063  55   001276 001264
    002064  2a   000536 400001
    002065  55   001274 000003
    002066  aa  005 115 111 116         MINUS
    002067  aa  125 123 000 000
    002070  55   001303 001271
    002071  2a   000276 400001
    002072  55   001301 000003
    002073  aa  004 120 114 125         PLUS
    002074  aa  123 000 000 000
    002075  55   001310 001276
    002076  2a   000274 400001
    002077  55   001306 000003
    002100  aa  004 123 124 101         STAR
    002101  aa  122 000 000 000
    002102  55   001317 001303
    002103  2a   000224 400001
    002104  55   001313 000003
    002105  aa  017 165 163 145         user_intr_array
    002106  aa  162 137 151 156
    002107  aa  164 162 137 141
    002110  aa  162 162 141 171
    002111  55   001324 001310
    002112  2a   000220 400001
    002113  55   001322 000003
    002114  aa  005 143 164 162         ctrlW
    002115  aa  154 127 000 000
    002116  55   001331 001317
    002117  2a   000216 400001
    002120  55   001327 000003
    002121  aa  005 143 164 162         ctrlR
    002122  aa  154 122 000 000
    002123  55   001336 001324
    002124  2a   000214 400001
    002125  55   001334 000003
    002126  aa  005 143 164 162         ctrlQ
    002127  aa  154 121 000 000
    002130  55   001343 001331
    002131  2a   000212 400001
    002132  55   001341 000003
    002133  aa  005 143 164 162         ctrlD
    002134  aa  154 104 000 000
    002135  55   001350 001336
    002136  2a   000206 400001
    002137  55   001346 000003
    002140  aa  006 164 137 141         t_atom
    002141  aa  164 157 155 000
    002142  55   001354 001343
    002143  2a   000204 400001
    002144  55   001353 000003
    002145  aa  003 156 151 154         nil
    002146  55   001364 001350
    002147  2a   000204 400001
    002150  55   001357 000003
    002151  aa  020 141 164 157         atomic_constants
    002152  aa  155 151 143 137
    002153  aa  143 157 156 163
    002154  aa  164 141 156 164
    002155  aa  163 000 000 000
    002156  55   001371 001354
    002157  2a   000202 400001
    002160  55   001367 000003
    002161  aa  007 157 142 141         obarray
    002162  aa  162 162 141 171
    002163  55   001401 001364
    002164  2a   000202 400001
    002165  55   001374 000003
    002166  aa  020 146 151 162         first_value_atom
    002167  aa  163 164 137 166
    002170  aa  141 154 165 145
    002171  aa  137 141 164 157
    002172  aa  155 000 000 000
    002173  55   001412 001371
    002174  2a   000202 400001
    002175  55   001404 000003
    002176  aa  026 147 141 162         garbage_collected_ptrs
    002177  aa  142 141 147 145
    002200  aa  137 143 157 154
    002201  aa  154 145 143 164
    002202  aa  145 144 137 160
    002203  aa  164 162 163 000
    002204  55   001421 001401
    002205  2a   000120 400001
    002206  55   001415 000003
    002207  aa  017 163 165 142         subr_block_list
    002210  aa  162 137 142 154
    002211  aa  157 143 153 137
    002212  aa  154 151 163 164
    002213  55   001427 001412
    002214  2a   000116 400001
    002215  55   001424 000003
    002216  aa  013 151 157 143         iochan_list
    002217  aa  150 141 156 137
    002220  aa  154 151 163 164
    002221  55   001434 001421
    002222  2a   000174 400001
    002223  55   001432 000003
    002224  aa  007 141 162 147         argatom
    002225  aa  141 164 157 155
    002226  55   001442 001427
    002227  2a   000170 400001
    002230  55   001437 000003
    002231  aa  011 164 157 160         top_level
    002232  aa  137 154 145 166
    002233  aa  145 154 000 000
    002234  55   001451 001434
    002235  2a   000166 400001
    002236  55   001445 000003
    002237  aa  014 141 162 147         arg_list_ptr
    002240  aa  137 154 151 163
    002241  aa  164 137 160 164
    002242  aa  162 000 000 000
    002243  55   001457 001442
    002244  2a   000164 400001
    002245  55   001454 000003
    002246  aa  012 165 156 167         unwp_frame
    002247  aa  160 137 146 162
    002250  aa  141 155 145 000
    002251  55   001465 001451
    002252  2a   000162 400001
    002253  55   001462 000003
    002254  aa  012 145 166 141         eval_frame
    002255  aa  154 137 146 162
    002256  aa  141 155 145 000
    002257  55   001473 001457
    002260  2a   000160 400001
    002261  55   001470 000003
    002262  aa  013 143 141 164         catch_frame
    002263  aa  143 150 137 146
    002264  aa  162 141 155 145
    002265  55   001501 001465
    002266  2a   000156 400001
    002267  55   001476 000003
    002270  aa  011 145 162 162         err_frame
    002271  aa  137 146 162 141
    002272  aa  155 145 000 000
    002273  55   001507 001473
    002274  2a   000154 400001
    002275  55   001504 000003
    002276  aa  012 160 162 157         prog_frame
    002277  aa  147 137 146 162
    002300  aa  141 155 145 000
    002301  55   001515 001501
    002302  2a   000152 400001
    002303  55   001512 000003
    002304  aa  010 145 162 162         err_recp
    002305  aa  137 162 145 143
    002306  aa  160 000 000 000
    002307  55   001523 001507
    002310  2a   000150 400001
    002311  55   001520 000003
    002312  aa  013 142 151 156         binding_top
    002313  aa  144 151 156 147
    002314  aa  137 164 157 160
    002315  55   001531 001515
    002316  2a   000150 400001
    002317  55   001526 000003
    002320  aa  012 146 162 141         frame_ptrs
    002321  aa  155 145 137 160
    002322  aa  164 162 163 000
    002323  55   001537 001523
    002324  2a   000146 400001
    002325  55   001534 000003
    002326  aa  011 165 156 155         unmkd_ptr
    002327  aa  153 144 137 160
    002330  aa  164 162 000 000
    002331  55   001545 001531
    002332  2a   000144 400001
    002333  55   001542 000003
    002334  aa  011 163 164 141         stack_ptr
    002335  aa  143 153 137 160
    002336  aa  164 162 000 000
    002337  55   001554 001537
    002340  2a   000137 400001
    002341  55   001550 000003
    002342  aa  015 151 147 156         ignore_faults
    002343  aa  157 162 145 137
    002344  aa  146 141 165 154
    002345  aa  164 163 000 000
    002346  55   001562 001545
    002347  2a   000115 400001
    002350  55   001557 000003
    002351  aa  011 154 157 137         lo_random
    002352  aa  162 141 156 144
    002353  aa  157 155 000 000
    002354  55   001570 001554
    002355  2a   000114 400001
    002356  55   001565 000003
    002357  aa  011 150 151 137         hi_random
    002360  aa  162 141 156 144
    002361  aa  157 155 000 000
    002362  55   001601 001562
    002363  2a   000042 400001
    002364  55   001573 000003
    002365  aa  025 163 141 166         saved_environment_dir
    002366  aa  145 144 137 145
    002367  aa  156 166 151 162
    002370  aa  157 156 155 145
    002371  aa  156 164 137 144
    002372  aa  151 162 000 000
    002373  55   001607 001570
    002374  2a   000031 400001
    002375  55   001604 000003
    002376  aa  012 151 137 141         i_am_gcing
    002377  aa  155 137 147 143
    002400  aa  151 156 147 000
    002401  55   001616 001601
    002402  2a   000136 400001
    002403  55   001612 000003
    002404  aa  014 160 145 156         pending_ctrl
    002405  aa  144 151 156 147
    002406  aa  137 143 164 162
    002407  aa  154 000 000 000
    002410  55   001626 001607
    002411  2a   000030 400001
    002412  55   001621 000003
    002413  aa  020 145 155 160         emptying_buffers
    002414  aa  164 171 151 156
    002415  aa  147 137 142 165
    002416  aa  146 146 145 162
    002417  aa  163 000 000 000
    002420  55   001633 001616
    002421  2a   000027 400001
    002422  55   001631 000003
    002423  aa  006 155 141 163         masked
    002424  aa  153 145 144 000
    002425  55   001641 001626
    002426  2a   000036 400001
    002427  55   001636 000003
    002430  aa  011 162 144 162         rdr_label
    002431  aa  137 154 141 142
    002432  aa  145 154 000 000
    002433  55   001646 001633
    002434  2a   000034 400001
    002435  55   001644 000003
    002436  aa  007 162 144 162         rdr_ptr
    002437  aa  137 160 164 162
    002440  55   001657 001641
    002441  2a   000026 400001
    002442  55   001651 000003
    002443  aa  027 147 141 162         garbage_collect_inhibit
    002444  aa  142 141 147 145
    002445  aa  137 143 157 154
    002446  aa  154 145 143 164
    002447  aa  137 151 156 150
    002450  aa  151 142 151 164
    002451  55   001665 001646
    002452  2a   000032 400001
    002453  55   001662 000003
    002454  aa  011 162 144 162         rdr_state
    002455  aa  137 163 164 141
    002456  aa  164 145 000 000
    002457  55   001675 001657
    002460  2a   000025 400001
    002461  55   001670 000003
    002462  aa  022 162 145 141         read_print_nl_sync
    002463  aa  144 137 160 162
    002464  aa  151 156 164 137
    002465  aa  156 154 137 163
    002466  aa  171 156 143 000
    002467  55   001703 001665
    002470  2a   000024 400001
    002471  55   001700 000003
    002472  aa  013 164 162 141         transparent
    002473  aa  156 163 160 141
    002474  aa  162 145 156 164
    002475  55   001713 001675
    002476  2a   000454 400001
    002477  55   001706 000003
    002500  aa  020 163 160 141         space_names_atom
    002501  aa  143 145 137 156
    002502  aa  141 155 145 163
    002503  aa  137 141 164 157
    002504  aa  155 000 000 000
    002505  55   001723 001703
    002506  2a   000023 400001
    002507  55   001716 000003
    002510  aa  020 156 157 137         no_snapped_links
    002511  aa  163 156 141 160
    002512  aa  160 145 144 137
    002513  aa  154 151 156 153
    002514  aa  163 000 000 000
    002515  55   001730 001713
    002516  2a   000022 400001
    002517  55   001726 000003
    002520  aa  005 147 143 155         gcmax
    002521  aa  141 170 000 000
    002522  55   001735 001723
    002523  2a   000021 400001
    002524  55   001733 000003
    002525  aa  006 147 143 163         gcsize
    002526  aa  151 172 145 000
    002527  55   001744 001730
    002530  2a   000020 400001
    002531  55   001740 000003
    002532  aa  016 147 143 155         gcmin_fraction
    002533  aa  151 156 137 146
    002534  aa  162 141 143 164
    002535  aa  151 157 156 000
    002536  55   001751 001735
    002537  2a   000017 400001
    002540  55   001747 000003
    002541  aa  005 147 143 155         gcmin
    002542  aa  151 156 000 000
    002543  55   001760 001744
    002544  2a   000016 400001
    002545  55   001754 000003
    002546  aa  014 147 143 137         gc_mark_bits
    002547  aa  155 141 162 153
    002550  aa  137 142 151 164
    002551  aa  163 000 000 000
    002552  55   001765 001751
    002553  2a   000014 400001
    002554  55   001763 000003
    002555  aa  007 147 143 137         gc_time
    002556  aa  164 151 155 145
    002557  55   001774 001760
    002560  2a   000504 400001
    002561  55   001770 000003
    002562  aa  015 145 166 141         evalhook_atom
    002563  aa  154 150 157 157
    002564  aa  153 137 141 164
    002565  aa  157 155 000 000
    002566  55   002003 001765
    002567  2a   000123 400001
    002570  55   001777 000003
    002571  aa  017 145 166 141         evalhook_status
    002572  aa  154 150 157 157
    002573  aa  153 137 163 164
    002574  aa  141 164 165 163
    002575  55   002014 001774
    002576  2a   000122 400001
    002577  55   002006 000003
    002600  aa  025 142 151 156         binding_reversal_flag
    002601  aa  144 151 156 147
    002602  aa  137 162 145 166
    002603  aa  145 162 163 141
    002604  aa  154 137 146 154
    002605  aa  141 147 000 000
    002606  55   002024 002003
    002607  2a   000013 400001
    002610  55   002017 000003
    002611  aa  021 161 165 151         quit_handler_flag
    002612  aa  164 137 150 141
    002613  aa  156 144 154 145
    002614  aa  162 137 146 154
    002615  aa  141 147 000 000
    002616  55   002035 002014
    002617  2a   000012 400001
    002620  55   002027 000003
    002621  aa  024 147 141 162         garbage_collect_soon
    002622  aa  142 141 147 145
    002623  aa  137 143 157 154
    002624  aa  154 145 143 164
    002625  aa  137 163 157 157
    002626  aa  156 000 000 000
    002627  55   002043 002024
    002630  2a   000130 400001
    002631  55   002040 000003
    002632  aa  013 155 141 153         maknum_left
    002633  aa  156 165 155 137
    002634  aa  154 145 146 164
    002635  55   002051 002035
    002636  2a   000127 400001
    002637  55   002046 000003
    002640  aa  013 155 141 153         maknum_mask
    002641  aa  156 165 155 137
    002642  aa  155 141 163 153
    002643  55   002057 002043
    002644  2a   000126 400001
    002645  55   002054 000003
    002646  aa  013 155 141 153         maknum_next
    002647  aa  156 165 155 137
    002650  aa  156 145 170 164
    002651  55   002065 002051
    002652  2a   000124 400001
    002653  55   002062 000003
    002654  aa  013 155 141 153         maknum_data
    002655  aa  156 165 155 137
    002656  aa  144 141 164 141
    002657  55   002075 002057
    002660  2a   000124 400001
    002661  55   002070 000003
    002662  aa  020 155 141 153         maknum_table_ptr
    002663  aa  156 165 155 137
    002664  aa  164 141 142 154
    002665  aa  145 137 160 164
    002666  aa  162 000 000 000
    002667  55   002105 002065
    002670  2a   000010 400001
    002671  55   002100 000003
    002672  aa  021 154 151 163         lisp_static_vars_
    002673  aa  160 137 163 164
    002674  aa  141 164 151 143
    002675  aa  137 166 141 162
    002676  aa  163 137 000 000
    002677  55   000002 002075
    002700  6a   000000 400002
    002701  55   002110 000003
    002702  aa  014 163 171 155         symbol_table
    002703  aa  142 157 154 137
    002704  aa  164 141 142 154
    002705  aa  145 000 000 000

DEFINITIONS HASH TABLE

    002706  aa   000000 000463
    002707  aa   000000 000000
    002710  aa   000000 000000
    002711  5a   000216 000000
    002712  5a   000237 000000
    002713  5a   000311 000000
    002714  5a   000475 000000
    002715  5a   000723 000000
    002716  5a   001165 000000
    002717  5a   000332 000000
    002720  5a   000340 000000
    002721  5a   000346 000000
    002722  5a   000013 000000
    002723  5a   000077 000000
    002724  5a   001202 000000
    002725  5a   000040 000000
    002726  5a   001501 000000
    002727  aa   000000 000000
    002730  aa   000000 000000
    002731  aa   000000 000000
    002732  aa   000000 000000
    002733  aa   000000 000000
    002734  5a   000547 000000
    002735  aa   000000 000000
    002736  5a   000647 000000
    002737  5a   001421 000000
    002740  5a   000054 000000
    002741  5a   001760 000000
    002742  5a   001601 000000
    002743  5a   000140 000000
    002744  5a   000147 000000
    002745  5a   001022 000000
    002746  aa   000000 000000
    002747  aa   000000 000000
    002750  5a   001523 000000
    002751  5a   001703 000000
    002752  5a   000106 000000
    002753  aa   000000 000000
    002754  aa   000000 000000
    002755  aa   000000 000000
    002756  aa   000000 000000
    002757  aa   000000 000000
    002760  5a   000703 000000
    002761  5a   000420 000000
    002762  5a   001554 000000
    002763  aa   000000 000000
    002764  aa   000000 000000
    002765  aa   000000 000000
    002766  aa   000000 000000
    002767  5a   000257 000000
    002770  5a   001412 000000
    002771  aa   000000 000000
    002772  aa   000000 000000
    002773  aa   000000 000000
    002774  5a   001350 000000
    002775  aa   000000 000000
    002776  aa   000000 000000
    002777  5a   000072 000000
    003000  5a   000776 000000
    003001  5a   001633 000000
    003002  5a   001657 000000
    003003  5a   001027 000000
    003004  aa   000000 000000
    003005  aa   000000 000000
    003006  5a   001735 000000
    003007  aa   000000 000000
    003010  aa   000000 000000
    003011  aa   000000 000000
    003012  aa   000000 000000
    003013  aa   000000 000000
    003014  aa   000000 000000
    003015  aa   000000 000000
    003016  aa   000000 000000
    003017  5a   000602 000000
    003020  5a   001121 000000
    003021  aa   000000 000000
    003022  5a   000521 000000
    003023  5a   000540 000000
    003024  5a   001142 000000
    003025  5a   001264 000000
    003026  5a   001401 000000
    003027  5a   000031 000000
    003030  aa   000000 000000
    003031  aa   000000 000000
    003032  aa   000000 000000
    003033  5a   000507 000000
    003034  5a   000610 000000
    003035  5a   001442 000000
    003036  5a   000616 000000
    003037  5a   000470 000000
    003040  5a   000556 000000
    003041  aa   000000 000000
    003042  5a   001303 000000
    003043  aa   000000 000000
    003044  aa   000000 000000
    003045  5a   001434 000000
    003046  5a   002035 000000
    003047  5a   002043 000000
    003050  5a   002051 000000
    003051  5a   002057 000000
    003052  5a   000177 000000
    003053  aa   000000 000000
    003054  5a   001113 000000
    003055  aa   000000 000000
    003056  aa   000000 000000
    003057  aa   000000 000000
    003060  aa   000000 000000
    003061  5a   000130 000000
    003062  5a   000656 000000
    003063  5a   001216 000000
    003064  5a   000275 000000
    003065  5a   000735 000000
    003066  5a   001105 000000
    003067  5a   001276 000000
    003070  5a   001317 000000
    003071  5a   001324 000000
    003072  5a   000354 000000
    003073  5a   001230 000000
    003074  5a   001331 000000
    003075  5a   001223 000000
    003076  5a   000303 000000
    003077  5a   001336 000000
    003100  5a   001545 000000
    003101  5a   001774 000000
    003102  aa   000000 000000
    003103  aa   000000 000000
    003104  aa   000000 000000
    003105  aa   000000 000000
    003106  aa   000000 000000
    003107  5a   000564 000000
    003110  aa   000000 000000
    003111  aa   000000 000000
    003112  aa   000000 000000
    003113  aa   000000 000000
    003114  aa   000000 000000
    003115  5a   000442 000000
    003116  aa   000000 000000
    003117  5a   001056 000000
    003120  5a   001465 000000
    003121  5a   000230 000000
    003122  5a   000250 000000
    003123  5a   001014 000000
    003124  5a   000426 000000
    003125  aa   000000 000000
    003126  aa   000000 000000
    003127  5a   001077 000000
    003130  5a   001665 000000
    003131  aa   000000 000000
    003132  5a   001257 000000
    003133  aa   000000 000000
    003134  aa   000000 000000
    003135  aa   000000 000000
    003136  aa   000000 000000
    003137  5a   000730 000000
    003140  aa   000000 000000
    003141  aa   000000 000000
    003142  5a   000711 000000
    003143  5a   000573 000000
    003144  aa   000000 000000
    003145  aa   000000 000000
    003146  5a   001531 000000
    003147  5a   000502 000000
    003150  aa   000000 000000
    003151  aa   000000 000000
    003152  aa   000000 000000
    003153  aa   000000 000000
    003154  5a   001364 000000
    003155  5a   001723 000000
    003156  5a   000325 000000
    003157  5a   001744 000000
    003160  aa   000000 000000
    003161  5a   001646 000000
    003162  aa   000000 000000
    003163  aa   000000 000000
    003164  aa   000000 000000
    003165  5a   001751 000000
    003166  5a   002075 000000
    003167  5a   001562 000000
    003170  5a   001005 000000
    003171  aa   000000 000000
    003172  5a   000462 000000
    003173  aa   000000 000000
    003174  aa   000000 000000
    003175  5a   000362 000000
    003176  5a   000266 000000
    003177  5a   000205 000000
    003200  5a   000411 000000
    003201  5a   001641 000000
    003202  5a   001252 000000
    003203  5a   000754 000000
    003204  5a   001310 000000
    003205  aa   000000 000000
    003206  aa   000000 000000
    003207  aa   000000 000000
    003210  aa   000000 000000
    003211  5a   001173 000000
    003212  aa   000000 000000
    003213  5a   000046 000000
    003214  aa   000000 000000
    003215  5a   001570 000000
    003216  aa   000000 000000
    003217  aa   000000 000000
    003220  aa   000000 000000
    003221  aa   000000 000000
    003222  aa   000000 000000
    003223  5a   002024 000000
    003224  5a   000023 000000
    003225  aa   000000 000000
    003226  aa   000000 000000
    003227  aa   000000 000000
    003230  5a   000370 000000
    003231  5a   000671 000000
    003232  5a   001343 000000
    003233  5a   001156 000000
    003234  5a   000742 000000
    003235  5a   001064 000000
    003236  5a   001507 000000
    003237  aa   000000 000000
    003240  5a   000376 000000
    003241  5a   001537 000000
    003242  5a   001616 000000
    003243  5a   000641 000000
    003244  5a   001126 000000
    003245  aa   000000 000000
    003246  aa   000000 000000
    003247  5a   001210 000000
    003250  aa   000000 000000
    003251  aa   000000 000000
    003252  aa   000000 000000
    003253  aa   000000 000000
    003254  5a   000116 000000
    003255  5a   001236 000000
    003256  5a   000633 000000
    003257  5a   000664 000000
    003260  aa   000000 000000
    003261  aa   000000 000000
    003262  5a   001043 000000
    003263  aa   000000 000000
    003264  aa   000000 000000
    003265  aa   000000 000000
    003266  5a   001765 000000
    003267  aa   000000 000000
    003270  aa   000000 000000
    003271  aa   000000 000000
    003272  5a   001427 000000
    003273  5a   000526 000000
    003274  5a   000624 000000
    003275  5a   000434 000000
    003276  5a   000170 000000
    003277  5a   001151 000000
    003300  5a   001244 000000
    003301  5a   000676 000000
    003302  5a   002065 000000
    003303  5a   000766 000000
    003304  5a   000156 000000
    003305  5a   001354 000000
    003306  aa   000000 000000
    003307  aa   000000 000000
    003310  aa   000000 000000
    003311  aa   000000 000000
    003312  5a   002003 000000
    003313  5a   001451 000000
    003314  aa   000000 000000
    003315  5a   001626 000000
    003316  5a   001035 000000
    003317  5a   001675 000000
    003320  5a   001730 000000
    003321  aa   000000 000000
    003322  aa   000000 000000
    003323  5a   000450 000000
    003324  aa   000000 000000
    003325  5a   001515 000000
    003326  aa   000000 000000
    003327  aa   000000 000000
    003330  5a   001457 000000
    003331  aa   000000 000000
    003332  5a   000747 000000
    003333  aa   000000 000000
    003334  5a   000404 000000
    003335  aa   000000 000000
    003336  aa   000000 000000
    003337  aa   000000 000000
    003340  aa   000000 000000
    003341  aa   000000 000000
    003342  aa   000000 000000
    003343  aa   000000 000000
    003344  aa   000000 000000
    003345  5a   001371 000000
    003346  5a   000514 000000
    003347  5a   000317 000000
    003350  5a   001134 000000
    003351  5a   000761 000000
    003352  aa   000000 000000
    003353  aa   000000 000000
    003354  5a   000455 000000
    003355  5a   001271 000000
    003356  5a   001051 000000
    003357  5a   001607 000000
    003360  5a   000716 000000
    003361  aa   000000 000000
    003362  5a   002105 000000
    003363  5a   000064 000000
    003364  5a   001473 000000
    003365  aa   000000 000000
    003366  5a   001072 000000
    003367  5a   001713 000000
    003370  5a   002014 000000
    003371  5a   000533 000000

NO EXTERNAL NAMES

NO TRAP POINTER WORDS

TYPE PAIR BLOCKS

    003372  aa   000001 000000
    003373  aa   000000 000000

INTERNAL EXPRESSION WORDS

LINKAGE INFORMATION

    000000  aa   000000 000000
    000001  0a   000572 000000
    000002  aa   000000 000000
    000003  aa   000000 000000
    000004  aa   000000 000000
    000005  aa   000000 000000
    000006  22   000574 000574
    000007  a2   000000 000564
SYMBOL INFORMATION

SYMBOL TABLE HEADER

    000000  aa   000000 000001
    000001  aa   163171 155142
    000002  aa   164162 145145
    000003  aa   000000 000004
    000004  aa   000000 111316
    000005  aa   510113 575622
    000006  aa   000000 112002
    000007  aa   326036 516472
    000010  aa   141154 155040
    000011  aa   040040 040040
    000012  aa   000024 000040
    000013  aa   000034 000040
    000014  aa   000044 000100
    000015  aa   000002 000002
    000016  aa   000064 000000
    000017  aa   000000 000171
    000020  aa   000000 000104
    000021  aa   000000 000133
    000022  aa   000163 000104
    000023  aa   000064 000000
    000024  aa   101114 115040
    000025  aa   126145 162163
    000026  aa   151157 156040
    000027  aa   040066 056064
    000030  aa   040040 101160
    000031  aa   162151 154040
    000032  aa   061071 070061
    000033  aa   040040 040040
    000034  aa   107112 157150
    000035  aa   156163 157156
    000036  aa   056123 171163
    000037  aa   115141 151156
    000040  aa   164056 141040
    000041  aa   040040 040040
    000042  aa   040040 040040
    000043  aa   040040 040040
    000044  aa   154151 163164
    000045  aa   040040 040040
    000046  aa   040040 040040
    000047  aa   040040 040040
    000050  aa   040040 040040
    000051  aa   040040 040040
    000052  aa   040040 040040
    000053  aa   040040 040040
    000054  aa   040040 040040
    000055  aa   040040 040040
    000056  aa   040040 040040
    000057  aa   040040 040040
    000060  aa   040040 040040
    000061  aa   040040 040040
    000062  aa   040040 040040
    000063  aa   040040 040040
    000064  aa   000000 000001
    000065  aa   000000 000001
    000066  aa   000072 000047
    000067  aa   117710 106020
    000070  aa   000000 111771
    000071  aa   743263 600000
    000072  aa   076163 160145          >spec>on>06/27/83>lisp_static_vars_.alm
    000073  aa   143076 157156
    000074  aa   076060 066057
    000075  aa   062067 057070
    000076  aa   063076 154151
    000077  aa   163160 137163
    000100  aa   164141 164151
    000101  aa   143137 166141
    000102  aa   162163 137056
    000103  aa   141154 155040
               MULTICS ASSEMBLY CROSS REFERENCE LISTING

   Value        Symbol                   Source file   Line number

         132    activate_gc_unwinder_kludge    lisp_static_vars_:  138,  217.
         400    alphalessp_atom          lisp_static_vars_:  101,  448.
         526    apply_atom               lisp_static_vars_:  119,  535.
         174    argatom                  lisp_static_vars_:   56,  262.
         520    args                     lisp_static_vars_:  117,  527.
         166    arg_list_ptr             lisp_static_vars_:   54,  255.
         422    array                    lisp_static_vars_:   89,  462.
         442    arrayindex               lisp_static_vars_:  107,  475.
         422    array_atom               lisp_static_vars_:   88,  463.
         204    atomic_constants         lisp_static_vars_:   62,  335,  581.
         131    atomic_constants_names   lisp_static_vars_:  131,  593.
         426    autoload                 lisp_static_vars_:  104,  466.
         300    base                     lisp_static_vars_:   74,  377.
         366    bignum_atom              lisp_static_vars_:   98,  437.
         122    binding_reversal_flag    lisp_static_vars_:   26,  206.
         150    binding_top              lisp_static_vars_:   47,  242.
         160    catch_frame              lisp_static_vars_:   51,  249.
         572    cleanup_list             lisp_static_vars_:  140,  571.
         131    cleanup_list_exists      lisp_static_vars_:  139,  215.
         470    close                    lisp_static_vars_:  114,  509.
         464    comment_atom             lisp_static_vars_:  113,  501.
         502    cruft1                   lisp_static_vars_:  514.
         516    crunit_atom              lisp_static_vars_:  116,  525.
         332    ctrlA                    lisp_static_vars_:   80,  402.
         212    ctrlD                    lisp_static_vars_:   65,  343.
         214    ctrlQ                    lisp_static_vars_:   66,  345.
         216    ctrlR                    lisp_static_vars_:   67,  347.
         220    ctrlW                    lisp_static_vars_:   68,  349.
         142    cur_stat_pos             lisp_static_vars_:  136,  233.
         140    cur_stat_seg             lisp_static_vars_:  135,  232.
         466    declare_atom             lisp_static_vars_:  113,  503.
         135    deferred_interrupt       lisp_static_vars_:  144,  220.
         542    defun                    lisp_static_vars_:  141,  545.
         472    deletef                  lisp_static_vars_:  114,  510.
         556    divov_flag               lisp_static_vars_:  123,  557.
         350    dollar_p_atom            lisp_static_vars_:   86,  420.
         514    dsk_atom                 lisp_static_vars_:  116,  523.
          30    emptying_buffers         lisp_static_vars_:   37,  177.
         554    end_atomic_constants     lisp_static_vars_:  553,  581.
         574    end_gc_area              lisp_static_vars_:  573,  579,  584.
         550    eof_atom                 lisp_static_vars_:  142,  549.
         312    errlist                  lisp_static_vars_:   79,  388.
         522    err_atom                 lisp_static_vars_:  119,  531.
         156    err_frame                lisp_static_vars_:   50,  248.
         152    err_recp                 lisp_static_vars_:   48,  244.
         440    evalframe_atom           lisp_static_vars_:  106,  472.
         504    evalhook_atom            lisp_static_vars_:   27,  515.
         123    evalhook_status          lisp_static_vars_:   27,  207.
         524    eval_atom                lisp_static_vars_:  119,  533.
         162    eval_frame               lisp_static_vars_:   52,  251.
         416    expr                     lisp_static_vars_:  103,  460.
         544    expr_hash                lisp_static_vars_:  141,  546.
         210    external                 lisp_static_vars_:   94,  341.
         420    fexpr                    lisp_static_vars_:  103,  461.
         474    filepos                  lisp_static_vars_:  114,  511.
         202    first_value_atom         lisp_static_vars_:   60,  326.
         360    fixnum                   lisp_static_vars_:   93,  429.
         360    fixnum_atom              lisp_static_vars_:   92,  430.
         362    flonum                   lisp_static_vars_:   96,  432.
         362    flonum_atom              lisp_static_vars_:   95,  433.
         150    frame_ptrs               lisp_static_vars_:   46,  240.
         414    fsubr                    lisp_static_vars_:  103,  459.
         406    funarg                   lisp_static_vars_:  104,  455.
         410    function_properties      lisp_static_vars_:  102,  456.
         202    garbage_collected_ptrs   lisp_static_vars_:   59,  324,  579.
          26    garbage_collect_inhibit  lisp_static_vars_:   35,  171.
          12    garbage_collect_soon     lisp_static_vars_:   24,  146.
          22    gcmax                    lisp_static_vars_:   30,  163.
          17    gcmin                    lisp_static_vars_:   30,  160.
          20    gcmin_fraction           lisp_static_vars_:   30,  161.
          21    gcsize                   lisp_static_vars_:   30,  162.
          16    gc_mark_bits             lisp_static_vars_:   29,  155.
          14    gc_time                  lisp_static_vars_:   28,  152.
         176    gc_unwinder_kludge       lisp_static_vars_:  137,  264.
         372    go_atom                  lisp_static_vars_:  100,  443.
         114    hi_random                lisp_static_vars_:   41,  197.
         302    ibase                    lisp_static_vars_:   75,  379.
         137    ignore_faults            lisp_static_vars_:   43,  227.
         314    infile                   lisp_static_vars_:  114,  391.
         316    instack                  lisp_static_vars_:  114,  392.
         116    iochan_list              lisp_static_vars_:   57,  203.
          31    i_am_gcing               lisp_static_vars_:   39,  180.
         404    label                    lisp_static_vars_:  103,  454.
         402    lambda                   lisp_static_vars_:  103,  453.
         342    last_value_atom          lisp_static_vars_:   82,  411.
          10    lisp_static_vars_        lisp_static_vars_:   13,   14,  584.
         370    list_atom                lisp_static_vars_:   99,  439.
          10    lk                       lisp_static_vars_:   10,   11,  322.
         115    lo_random                lisp_static_vars_:   42,  200.
         412    lsubr                    lisp_static_vars_:  103,  458.
         424    macro                    lisp_static_vars_:  104,  465.
         124    maknum_data              lisp_static_vars_:   20,  209.
         130    maknum_left              lisp_static_vars_:   23,  213.
         127    maknum_mask              lisp_static_vars_:   22,  212.
         126    maknum_next              lisp_static_vars_:   21,  211.
         124    maknum_table_ptr         lisp_static_vars_:   19,  210.
          27    masked                   lisp_static_vars_:   36,  175.
         476    mergef                   lisp_static_vars_:  114,  512.
         536    MINUS                    lisp_static_vars_:   72,  543.
         134    mulpi_state              lisp_static_vars_:  143,  219.
         133    mulquit_state            lisp_static_vars_:  143,  218.
         204    nil                      lisp_static_vars_:   63,  337.
         452    noret_flag               lisp_static_vars_:  110,  485.
         450    nouuo_flag               lisp_static_vars_:  110,  483.
          23    no_snapped_links         lisp_static_vars_:   31,  165.
         126    number_gc_ptrs           lisp_static_vars_:  129,  578.
         127    number_of_atomic_constants     lisp_static_vars_:  130,  580.
         202    obarray                  lisp_static_vars_:   61,  327.
         330    old_io_defaults          lisp_static_vars_:  116,  399.
         500    open                     lisp_static_vars_:  114,  513.
         506    outfile                  lisp_static_vars_:  115,  516.
         320    outfiles                 lisp_static_vars_:  115,  394.
         376    pdlframe_atom            lisp_static_vars_:  100,  446.
         136    pending_ctrl             lisp_static_vars_:   38,  223.
         276    PLUS                     lisp_static_vars_:   71,  375.
         560    plus_status              lisp_static_vars_:  124,  558.
         354    pname_atom               lisp_static_vars_:   90,  426.
         532    prin1                    lisp_static_vars_:  120,  539.
         532    prin1_atom               lisp_static_vars_:  119,  540.
         530    princ_atom               lisp_static_vars_:  119,  537.
         340    prinlength               lisp_static_vars_:   81,  408.
         336    prinlevel                lisp_static_vars_:   81,  406.
         534    print_atom               lisp_static_vars_:  119,  542.
         552    progn_atom               lisp_static_vars_:  142,  550.
         154    prog_frame               lisp_static_vars_:   49,  245.
         570    property_list_of_nil     lisp_static_vars_:  128,  569.
         432    qarg                     lisp_static_vars_:  104,  468.
         436    qlstfy                   lisp_static_vars_:  104,  470.
         434    qsetarg                  lisp_static_vars_:  104,  469.
         446    question_mark            lisp_static_vars_:  109,  479.
          13    quit_handler_flag        lisp_static_vars_:   25,  149.
         352    quote_atom               lisp_static_vars_:   87,  423.
         454    quote_macro              lisp_static_vars_:  111,  489.
         430    quotient                 lisp_static_vars_:  105,  467.
         364    random_atom              lisp_static_vars_:   97,  435.
          36    rdr_label                lisp_static_vars_:   35,  187.
          34    rdr_ptr                  lisp_static_vars_:   35,  185.
          32    rdr_state                lisp_static_vars_:   35,  182.
         344    readeof_atom             lisp_static_vars_:   84,  416.
         304    readtable                lisp_static_vars_:   76,  381.
          25    read_print_nl_sync       lisp_static_vars_:   34,  168.
         510    rename                   lisp_static_vars_:  115,  517.
         374    return_atom              lisp_static_vars_:  100,  444.
         460    runtime_atom             lisp_static_vars_:  112,  496.
          42    saved_environment_dir    lisp_static_vars_:   40,  190.
         456    semicolon_macro          lisp_static_vars_:  111,  492.
         444    setq_atom                lisp_static_vars_:  108,  477.
         540    SLASH                    lisp_static_vars_:   73,  544.
         454    space_names_atom         lisp_static_vars_:   32,  488.
         144    stack_ptr                lisp_static_vars_:   44,  236.
         274    STAR                     lisp_static_vars_:   70,  374.
         334    star_rset                lisp_static_vars_:  118,  404.
         562    status_gctwa             lisp_static_vars_:  125,  562.
         306    stnopoint                lisp_static_vars_:   77,  383.
         512    stream                   lisp_static_vars_:  115,  518.
         356    string_atom              lisp_static_vars_:   91,  427.
         410    subr                     lisp_static_vars_:  103,  457.
         120    subr_block_list          lisp_static_vars_:   58,  205.
         130    subsys_recurse_save_size       lisp_static_vars_:  134,  583.
         346    s_atom                   lisp_static_vars_:   85,  418.
           0    template                 lisp_static_vars_:  132,  273,  321.
         125    template_size            lisp_static_vars_:  133,  320,  321.
         462    time_atom                lisp_static_vars_:  112,  498.
         554    toplevel                 lisp_static_vars_:  122,  556.
         170    top_level                lisp_static_vars_:   55,  258.
          24    transparent              lisp_static_vars_:   33,  167.
         310    tty_atom                 lisp_static_vars_:   78,  385.
         564    tty_input_chan           lisp_static_vars_:  126,  563.
         566    tty_output_chan          lisp_static_vars_:  127,  566.
           0    tx                       lisp_static_vars_:  269,  270,  575.
         206    t_atom                   lisp_static_vars_:   64,  339.
         146    unmkd_ptr                lisp_static_vars_:   45,  238.
         164    unwp_frame               lisp_static_vars_:   53,  253.
         324    uread_atom               lisp_static_vars_:  116,  397.
         224    user_intr_array          lisp_static_vars_:   69,  353.
         326    uwrite_atom              lisp_static_vars_:  116,  398.
         342    value_atom               lisp_static_vars_:   83,  414.
         546    vertical_bar_macro       lisp_static_vars_:  142,  547.
         322    zunderflow               lisp_static_vars_:  121,  396.


NO FATAL ERRORS


                                          -----------------------------------------------------------


Historical Background

This edition of the Multics software materials and documentation is provided and donated
to Massachusetts Institute of Technology by Group BULL including BULL HN Information Systems Inc.
as a contribution to computer science knowledge.
This donation is made also to give evidence of the common contributions of Massachusetts Institute of Technology,
Bell Laboratories, General Electric, Honeywell Information Systems Inc., Honeywell BULL Inc., Groupe BULL
and BULL HN Information Systems Inc. to the development of this operating system.
Multics development was initiated by Massachusetts Institute of Technology Project MAC (1963-1970),
renamed the MIT Laboratory for Computer Science and Artificial Intelligence in the mid 1970s, under the leadership
of Professor Fernando Jose Corbato. Users consider that Multics provided the best software architecture
for managing computer hardware properly and for executing programs. Many subsequent operating systems
incorporated Multics principles.
Multics was distributed in 1975 to 2000 by Group Bull in Europe , and in the U.S. by Bull HN Information Systems Inc.,
as successor in interest by change in name only to Honeywell Bull Inc. and Honeywell Information Systems Inc. .

                                          -----------------------------------------------------------

Permission to use, copy, modify, and distribute these programs and their documentation for any purpose and without
fee is hereby granted,provided that the below copyright notice and historical background appear in all copies
and that both the copyright notice and historical background and this permission notice appear in supporting
documentation, and that the names of MIT, HIS, BULL or BULL HN not be used in advertising or publicity pertaining
to distribution of the programs without specific prior written permission.
    Copyright 1972 by Massachusetts Institute of Technology and Honeywell Information Systems Inc.
    Copyright 2006 by BULL HN Information Systems Inc.
    Copyright 2006 by Bull SAS
    All Rights Reserved
