ASSEMBLY LISTING OF SEGMENT >spec>install>1212>optimized_procedures.alm
ASSEMBLED ON:	11/12/86  1649.9 mst Wed
OPTIONS USED:	-target l68                              list symbols
ASSEMBLED BY:	ALM Version 7.0 July 1986
ASSEMBLER CREATED:	11/12/86  1058.3 mst Wed

                                     1  " *************************************************************************
                                     2  " *                                                                       *
                                     3  " * Copyright (c) 1980 by Centre Interuniversitaire de Calcul de Grenoble *
                                     4  " * and Institut National de Recherche en Informatique et Automatique     *
                                     5  " *                                                                       *
                                     6  " * Copyright, (C) Massachusetts Institute of Technology, 1973            *
                                     7  " *                                                                       *
                                     8  " *************************************************************************
                                     9
                                    10  " HISTORY COMMENTS:
                                    11  "  1) change(86-10-09,JMAthane), approve(86-10-09,MCR7521),
                                    12  "     audit(86-10-09,JPFauche), install(86-11-12,MR12.0-1208):
                                    13  "     Pascal Version 8.03 for MR12.0.
                                    14  "                                                      END HISTORY COMMENTS
                                    15
                                    16  "	OPTIMIZED PROCEDURES OF THE MULTICS PASCAL COMPILER
                                    17  "
                                    18  "
                                    19  "	RACINE>SEARCH
                                    20  "	-----------------
                                    21  "
                                    22  "
                        000000      23  	segdef	search
                                    24  "
                                    25  "
                        000040      26  	equ	maxident,32
                        000072      27  	equ	recidscopelength,58
                        000010      28  	equ	nxtelplaceincontextable,8
                        000000      29  	equ	nameplaceincontextable,0
                        000024      30  	equ	return_ptr,20
                        000050      31  	equ	trans_op_tv_ptr,40
                        000120      32  	equ	work_0,80
                                    33  "
                                    34  "
    000000                          35  search:
    000000  aa   000000 2130 04     36  	epaq	0,ic
    000001  aa  7 00026 7641 61     37  	lprp4	7|22,*au
    000002  aa  7 00050 3501 20     38  	epp0	7|trans_op_tv_ptr,*
    000003  aa  0 00010 3501 20     39  	epp0	0|8,*
    000004  4a  4 00010 2361 20     40  	ldq	<RACINE.defs>|[top]
    000005  0a   000031 6040 00     41  	tmi	end_downto
    000006  4a  4 00012 3535 20     42  	epp3	<RACINE.defs>|[aval]
    000007                          43  downto_loop:
    000007  aa  6 00120 7561 00     44  	stq	6|work_0
    000010  aa   000072 4020 07     45  	mpy	recidscopelength,dl
    000011  4a  4 00014 3515 20     46  	epp1	<RACINE.defs>|[display],ql*
    000012                          47  while_loop:
    000012  aa  1 77777 6211 00     48  	eax1	1|-1
    000013  0a   000026 6000 00     49  	tze	end_while
    000014  aa  0 40100 1065 00     50  	cmpc	(pr),(pr),fill(040)
    000015  aa   100000 000040      51  	desc9a	1|nameplaceincontextable,maxident
    000016  aa   300000 000040      52  	desc9a	3|0,maxident
    000017  0a   000024 6010 00     53  	tnz	aval_not_found
    000020  aa  6 00120 2361 00     54  	ldq	6|work_0
    000021  4a  4 00016 7561 20     55  	stq	<RACINE.defs>|[disx]
    000022  4a  4 00020 2515 20     56  	spri1	<RACINE.defs>|[ctptr]
    000023  aa  6 00024 7101 20     57  	tra	6|return_ptr,*
    000024                          58  aval_not_found:
    000024  aa  1 00010 3515 20     59  	epp1	1|nxtelplaceincontextable,*
    000025  0a   000012 7100 00     60  	tra	while_loop
    000026                          61  end_while:
    000026  aa  6 00120 2361 00     62  	ldq	6|work_0
    000027  aa   000001 1760 07     63  	sbq	1,dl
    000030  0a   000007 6050 00     64  	tpl	downto_loop
    000031                          65  end_downto:
    000031  4a  4 00016 4501 20     66  	stz	<RACINE.defs>|[disx]
    000032  4a  4 00020 2515 20     67  	spri1	<RACINE.defs>|[ctptr]
    000033  aa  6 00024 7101 20     68  	tra	6|return_ptr,*
                                    69  "
                                    70  "
                                    71  "	END OF SEARCH
                                    72  "
                                    73  "
                                    74  "
                                    75  "
                                    76  "	RACINE>SRCHREC
                                    77  "	------------------
                                    78  "
                                    79  "
                        000034      80  	segdef	srchrec
                                    81  "
                                    82  "
    000034                          83  srchrec:
    000034  aa   000000 2130 04     84  	epaq	0,ic
    000035  aa  7 00026 7641 61     85  	lprp4	7|22,*au
    000036  aa   000000 2130 04     86  	epaq	0,ic
    000037  aa  0 00002 3515 20     87  	epp1	0|2,*
    000040  aa  1 00000 3515 20     88  	epp1	1|0,*
    000041  aa  7 00050 3501 20     89  	epp0	7|trans_op_tv_ptr,*
    000042  aa  0 00010 3501 20     90  	epp0	0|8,*
    000043  4a  4 00012 3535 20     91  	epp3	<RACINE.defs>|[aval]
    000044                          92  rec_while_loop:
    000044  aa  1 77777 6211 00     93  	eax1	1|-1
    000045  0a   000052 6000 00     94  	tze	rec_end_while
    000046  aa  0 40100 1065 00     95  	cmpc	(pr),(pr),fill(040)
    000047  aa   100000 000040      96  	desc9a	1|nameplaceincontextable,maxident
    000050  aa   300000 000040      97  	desc9a	3|0,maxident
    000051  0a   000054 6010 00     98  	tnz	rec_aval_not_found
    000052                          99  rec_end_while:
    000052  4a  4 00020 2515 20    100  	spri1	<RACINE.defs>|[ctptr]
    000053  aa  6 00024 7101 20    101  	tra	6|return_ptr,*
    000054                         102  rec_aval_not_found:
    000054  aa  1 00010 3515 20    103  	epp1	1|nxtelplaceincontextable,*
    000055  0a   000044 7100 00    104  	tra	rec_while_loop
                                   105  "
                                   106  "
                                   107  "
                                   108  "	END OF SRCHREC
                                   109  "
                                   110  "
                                   111  "
                                   112  	end

NO LITERALS

NAME DEFINITIONS FOR ENTRY POINTS AND SEGDEFS

    000056  5a   000003 000000
    000057  5a   000035 600000
    000060  aa   000000 000000
    000061  55   000014 000002
    000062  5a   000002 400003
    000063  55   000006 000014
    000064  aa  024 157 160 164
    000065  aa  151 155 151 172
    000066  aa  145 144 137 160
    000067  aa  162 157 143 145
    000070  aa  144 165 162 145
    000071  aa  163 000 000 000
    000072  55   000021 000003
    000073  0a   000034 400000
    000074  55   000017 000003
    000075  aa  007 163 162 143         srchrec
    000076  aa  150 162 145 143
    000077  55   000026 000014
    000100  0a   000000 400000
    000101  55   000024 000003
    000102  aa  006 163 145 141         search
    000103  aa  162 143 150 000
    000104  55   000002 000021
    000105  6a   000000 400002
    000106  55   000031 000003
    000107  aa  014 163 171 155         symbol_table
    000110  aa  142 157 154 137
    000111  aa  164 141 142 154
    000112  aa  145 000 000 000

DEFINITIONS HASH TABLE

    000113  aa   000000 000015
    000114  aa   000000 000000
    000115  aa   000000 000000
    000116  5a   000021 000000
    000117  aa   000000 000000
    000120  aa   000000 000000
    000121  aa   000000 000000
    000122  5a   000026 000000
    000123  aa   000000 000000
    000124  aa   000000 000000
    000125  aa   000000 000000
    000126  aa   000000 000000
    000127  aa   000000 000000
    000130  5a   000014 000000

EXTERNAL NAMES

    000131  aa  005 143 164 160         ctptr
    000132  aa  164 162 000 000
    000133  aa  004 144 151 163         disx
    000134  aa  170 000 000 000
    000135  aa  007 144 151 163         display
    000136  aa  160 154 141 171
    000137  aa  004 141 166 141         aval
    000140  aa  154 000 000 000
    000141  aa  003 164 157 160         top
    000142  aa  013 122 101 103         RACINE.defs
    000143  aa  111 116 105 056
    000144  aa  144 145 146 163

NO TRAP POINTER WORDS

TYPE PAIR BLOCKS

    000145  aa   000004 000000
    000146  55   000064 000053
    000147  aa   000004 000000
    000150  55   000064 000055
    000151  aa   000004 000000
    000152  55   000064 000057
    000153  aa   000004 000000
    000154  55   000064 000061
    000155  aa   000004 000000
    000156  55   000064 000063
    000157  aa   000001 000000
    000160  aa   000000 000000

INTERNAL EXPRESSION WORDS

    000161  5a   000067 000000
    000162  5a   000071 000000
    000163  5a   000073 000000
    000164  5a   000075 000000
    000165  5a   000077 000000
LINKAGE INFORMATION

    000000  aa   000000 000000
    000001  0a   000056 000000
    000002  aa   000000 000000
    000003  aa   000000 000000
    000004  aa   000000 000000
    000005  aa   000000 000000
    000006  22   000010 000022
    000007  a2   000000 000000
    000010  9a   777770 0000 46         RACINE.defs|top
    000011  5a   000107 0000 00
    000012  9a   777766 0000 46         RACINE.defs|aval
    000013  5a   000106 0000 00
    000014  9a   777764 0000 46         RACINE.defs|display
    000015  5a   000105 0000 26
    000016  9a   777762 0000 46         RACINE.defs|disx
    000017  5a   000104 0000 00
    000020  9a   777760 0000 46         RACINE.defs|ctptr
    000021  5a   000103 0000 00
SYMBOL INFORMATION

SYMBOL TABLE HEADER

    000000  aa   000000 000001
    000001  aa   163171 155142
    000002  aa   164162 145145
    000003  aa   000000 000007
    000004  aa   000000 115006
    000005  aa   527562 321553
    000006  aa   000000 115006
    000007  aa   764713 103531
    000010  aa   141154 155040
    000011  aa   040040 040040
    000012  aa   000024 000040
    000013  aa   000034 000040
    000014  aa   000044 000100
    000015  aa   000002 000002
    000016  aa   000064 000000
    000017  aa   000000 000142
    000020  aa   000000 000105
    000021  aa   000121 000114
    000022  aa   000134 000105
    000023  aa   000064 000000
    000024  aa   101114 115040
    000025  aa   126145 162163
    000026  aa   151157 156040
    000027  aa   067056 060040
    000030  aa   112165 154171
    000031  aa   040061 071070
    000032  aa   066040 040040
    000033  aa   040040 040040
    000034  aa   115141 162164
    000035  aa   151156 163157
    000036  aa   156056 123171
    000037  aa   163115 141151
    000040  aa   156164 056141
    000041  aa   040040 040040
    000042  aa   040040 040040
    000043  aa   040040 040040
    000044  aa   055164 141162
    000045  aa   147145 164040
    000046  aa   154066 070040
    000047  aa   040040 040040
    000050  aa   040040 040040
    000051  aa   040040 040040
    000052  aa   040040 040040
    000053  aa   040040 040040
    000054  aa   040040 040040
    000055  aa   040040 040040
    000056  aa   040154 151163
    000057  aa   164040 163171
    000060  aa   155142 157154
    000061  aa   163040 040040
    000062  aa   040040 040040
    000063  aa   040040 040040
    000064  aa   000000 000001
    000065  aa   000000 000001
    000066  aa   000072 000053
    000067  aa   150057 030614
    000070  aa   000000 115006
    000071  aa   742051 000000
    000072  aa   076163 160145          >spec>install>1212>optimized_procedures.alm
    000073  aa   143076 151156
    000074  aa   163164 141154
    000075  aa   154076 061062
    000076  aa   061062 076157
    000077  aa   160164 151155
    000100  aa   151172 145144
    000101  aa   137160 162157
    000102  aa   143145 144165
    000103  aa   162145 163056
    000104  aa   141154 155040
               MULTICS ASSEMBLY CROSS REFERENCE LISTING

   Value        Symbol                   Source file   Line number

                aval                     optimized_procedures:      42,   91.
          24    aval_not_found           optimized_procedures:      53,   58.
                ctptr                    optimized_procedures:      56,   67,  100.
                display                  optimized_procedures:      46.
                disx                     optimized_procedures:      55,   66.
           7    downto_loop              optimized_procedures:      43,   64.
          31    end_downto               optimized_procedures:      41,   65.
          26    end_while                optimized_procedures:      49,   61.
          40    maxident                 optimized_procedures:      26,   51,   52,   96,   97.
           0    nameplaceincontextable   optimized_procedures:      29,   51,   96.
          10    nxtelplaceincontextable  optimized_procedures:      28,   59,  103.
                RACINE.defs              optimized_procedures:      40,   42,   46,   55,   56,   66,   67,   91,  100.
          72    recidscopelength         optimized_procedures:      27,   45.
          54    rec_aval_not_found       optimized_procedures:      98,  102.
          52    rec_end_while            optimized_procedures:      94,   99.
          44    rec_while_loop           optimized_procedures:      92,  104.
          24    return_ptr               optimized_procedures:      30,   57,   68,  101.
           0    search                   optimized_procedures:      23,   35.
          34    srchrec                  optimized_procedures:      80,   83.
                top                      optimized_procedures:      40.
          50    trans_op_tv_ptr          optimized_procedures:      31,   38,   89.
          12    while_loop               optimized_procedures:      47,   60.
         120    work_0                   optimized_procedures:      32,   44,   54,   62.


NO FATAL ERRORS


                                          -----------------------------------------------------------


Historical Background

This edition of the Multics software materials and documentation is provided and donated
to Massachusetts Institute of Technology by Group BULL including BULL HN Information Systems Inc.
as a contribution to computer science knowledge.
This donation is made also to give evidence of the common contributions of Massachusetts Institute of Technology,
Bell Laboratories, General Electric, Honeywell Information Systems Inc., Honeywell BULL Inc., Groupe BULL
and BULL HN Information Systems Inc. to the development of this operating system.
Multics development was initiated by Massachusetts Institute of Technology Project MAC (1963-1970),
renamed the MIT Laboratory for Computer Science and Artificial Intelligence in the mid 1970s, under the leadership
of Professor Fernando Jose Corbato. Users consider that Multics provided the best software architecture
for managing computer hardware properly and for executing programs. Many subsequent operating systems
incorporated Multics principles.
Multics was distributed in 1975 to 2000 by Group Bull in Europe , and in the U.S. by Bull HN Information Systems Inc.,
as successor in interest by change in name only to Honeywell Bull Inc. and Honeywell Information Systems Inc. .

                                          -----------------------------------------------------------

Permission to use, copy, modify, and distribute these programs and their documentation for any purpose and without
fee is hereby granted,provided that the below copyright notice and historical background appear in all copies
and that both the copyright notice and historical background and this permission notice appear in supporting
documentation, and that the names of MIT, HIS, BULL or BULL HN not be used in advertising or publicity pertaining
to distribution of the programs without specific prior written permission.
    Copyright 1972 by Massachusetts Institute of Technology and Honeywell Information Systems Inc.
    Copyright 2006 by BULL HN Information Systems Inc.
    Copyright 2006 by Bull SAS
    All Rights Reserved
