ASSEMBLY LISTING OF SEGMENT >spec>online>8.1.pps>ppf6023.alm
ASSEMBLED ON:	05/27/80  1613.9 mst Tue
OPTIONS USED:	list
ASSEMBLED BY:	ALM Version 6.2, June 1979
ASSEMBLER CREATED:	01/28/80  0927.8 mst Mon

                                     1  "  ******************************************************
                                     2  "  *                                                    *
                                     3  "  *                                                    *
                                     4  "  * Copyright (c) 1972 by Massachusetts Institute of   *
                                     5  "  * Technology and Honeywell Information Systems, Inc. *
                                     6  "  *                                                    *
                                     7  "  *                                                    *
                                     8  "  ******************************************************
                                     9
                        000000      10  	segdef	ppf6023_move
    000000                          11  ppf6023_move:
    000000  aa  0 00002 3515 20     12  	epp1	ap|2,*		address of source string to pr1
    000001  aa  0 00004 3535 20     13  	epp3	ap|4,*		address of target string to pr3
    000002  aa   000000 2230 03     14  	ldx3	0,du		set x3 not to skip parent pointer if none
    000003  aa  0 00000 7221 00     15  	lxl2	ap|0		load argument list code value
    000004  aa   000004 3020 03     16  	canx2	=o000004,du	check for code 4 - no parent pointer
    000005  0a   000007 6010 00     17  	tnz	*+2		transfer if no parent pointer
    000006  aa   000002 2230 03     18  	ldx3	2,du		parent pointer - set x3 to skip it
    000007  aa  0 00006 2351 33     19  	lda	ap|6,x3*		load source string descriptor
    000010  aa  0 00010 2361 33     20  	ldq	ap|8,x3*		load target string descriptor
    000011  0a   000021 3750 00     21  	ana	mask		drop all but string size bits
    000012  0a   000021 3760 00     22  	anq	mask		ditto
    000013  aa   000000 0110 03     23  	even
    000014  aa  0 40140 1605 40     24  	mvt	(pr,rl),(pr,rl),fill(040)	translate ascii to ebcdic
    000015  aa   100000 000005      25  	desc9a	1|0,al		source string
    000016  aa   300000 000006      26  	desc9a	3|0,ql		target string
    000017  0a   014022 0000 00     27  	arg	mvtt
    000020  aa  7 00044 7101 20     28  	short_return		"exit
    000021  aa   000077 777777      29  mask:	oct	000077777777
                                    30
                        000022      31  	segdef	ppf6023_table
    000022                          32  ppf6023_table:
    000022  aa   377377 377377      33  	oct	377377377377,377377377377,377377377377,377377377377
    000023  aa   377377 377377
    000024  aa   377377 377377
    000025  aa   377377 377377
    000026  aa   377377 377377      34  	oct	377377377377,377377377377,377377377377,377377377377
    000027  aa   377377 377377
    000030  aa   377377 377377
    000031  aa   377377 377377
    000032  aa   377377 377377      35  	oct	377377377377,377377377377,377377377377,377377377377
    000033  aa   377377 377377
    000034  aa   377377 377377
    000035  aa   377377 377377
    000036  aa   377377 377377      36  	oct	377377377377,377377377377,377377377377,377377377377
    000037  aa   377377 377377
    000040  aa   377377 377377
    000041  aa   377377 377377
    000042  aa   100377 377377      37  	oct	100377377377,377377377377,377377377377,377377377377
    000043  aa   377377 377377
    000044  aa   377377 377377
    000045  aa   377377 377377
    000046  aa   377377 377377      38  	oct	377377377377,377377377377,377377377377,377377377377
    000047  aa   377377 377377
    000050  aa   377377 377377
    000051  aa   377377 377377
    000052  aa   377377 377377      39  	oct	377377377377,377377377377,377377377377,377377377377
    000053  aa   377377 377377
    000054  aa   377377 377377
    000055  aa   377377 377377
    000056  aa   377377 377377      40  	oct	377377377377,377377377377,377377377377,377377377377
    000057  aa   377377 377377
    000060  aa   377377 377377
    000061  aa   377377 377377
    000062  aa   377377 377377      41  	oct	377377377377,377377377377,377377377377,377377377377
    000063  aa   377377 377377
    000064  aa   377377 377377
    000065  aa   377377 377377
    000066  aa   377377 377377      42  	oct	377377377377,377377377377,377377377377,377377377377
    000067  aa   377377 377377
    000070  aa   377377 377377
    000071  aa   377377 377377
    000072  aa   377377 377377      43  	oct	377377377377,377377377377,377377377377,377377377377
    000073  aa   377377 377377
    000074  aa   377377 377377
    000075  aa   377377 377377
    000076  aa   377377 377377      44  	oct	377377377377,377377377377,377377377377,377377377377
    000077  aa   377377 377377
    000100  aa   377377 377377
    000101  aa   377377 377377
    000102  aa   377377 377377      45  	oct	377377377377,377377377377,377377377377,377377377377
    000103  aa   377377 377377
    000104  aa   377377 377377
    000105  aa   377377 377377
    000106  aa   377377 377377      46  	oct	377377377377,377377377377,377377377377,377377377377
    000107  aa   377377 377377
    000110  aa   377377 377377
    000111  aa   377377 377377
    000112  aa   377377 377377      47  	oct	377377377377,377377377377,377377377377,377377377377
    000113  aa   377377 377377
    000114  aa   377377 377377
    000115  aa   377377 377377
    000116  aa   377377 377377      48  	oct	377377377377,377377377377,377377377377,377377377377
    000117  aa   377377 377377
    000120  aa   377377 377377
    000121  aa   377377 377377
    000122  aa   377377 377377      49  	oct	377377377377,377377377377,377377377377,377377377377
    000123  aa   377377 377377
    000124  aa   377377 377377
    000125  aa   377377 377377
    000126  aa   377377 377377      50  	oct	377377377377,377377377377,377377377377,377377377377
    000127  aa   377377 377377
    000130  aa   377377 377377
    000131  aa   377377 377377
    000132  aa   377377 377377      51  	oct	377377377377,377377377377,377377377377,377377377377
    000133  aa   377377 377377
    000134  aa   377377 377377
    000135  aa   377377 377377
    000136  aa   377377 377377      52  	oct	377377377377,377377377377,377377377377,377377377377
    000137  aa   377377 377377
    000140  aa   377377 377377
    000141  aa   377377 377377
    000142  aa   377377 377377      53  	oct	377377377377,377377377377,377377377377,377377377377
    000143  aa   377377 377377
    000144  aa   377377 377377
    000145  aa   377377 377377
    000146  aa   377377 377377      54  	oct	377377377377,377377377377,377377132377,377377377377
    000147  aa   377377 377377
    000150  aa   377377 132377
    000151  aa   377377 377377
    000152  aa   377377 377377      55  	oct	377377377377,377377377377,377377377377,377132377377
    000153  aa   377377 377377
    000154  aa   377377 377377
    000155  aa   377132 377377
    000156  aa   377377 377377      56  	oct	377377377377,377377377377,377377377377,377377377377
    000157  aa   377377 377377
    000160  aa   377377 377377
    000161  aa   377377 377377
    000162  aa   377377 377377      57  	oct	377377377377,377377377377,377377377377,377377377377
    000163  aa   377377 377377
    000164  aa   377377 377377
    000165  aa   377377 377377
    000166  aa   377377 377377      58  	oct	377377377377,377377377377,377377377377,377377377377
    000167  aa   377377 377377
    000170  aa   377377 377377
    000171  aa   377377 377377
    000172  aa   377377 377377      59  	oct	377377377377,377377377377,377377377377,377377377377
    000173  aa   377377 377377
    000174  aa   377377 377377
    000175  aa   377377 377377
    000176  aa   377377 377377      60  	oct	377377377377,377377377377,377377377377,377377377377
    000177  aa   377377 377377
    000200  aa   377377 377377
    000201  aa   377377 377377
    000202  aa   377377 377377      61  	oct	377377377377,377377377377,377377377377,377377377377
    000203  aa   377377 377377
    000204  aa   377377 377377
    000205  aa   377377 377377
    000206  aa   377377 377377      62  	oct	377377377377,377377377377,377377377377,377377377377
    000207  aa   377377 377377
    000210  aa   377377 377377
    000211  aa   377377 377377
    000212  aa   377377 377377      63  	oct	377377377377,377377377377,377377377377,377377377377
    000213  aa   377377 377377
    000214  aa   377377 377377
    000215  aa   377377 377377
    000216  aa   377377 377377      64  	oct	377377377377,377377377377,377377377377,377377377377
    000217  aa   377377 377377
    000220  aa   377377 377377
    000221  aa   377377 377377
    000222  aa   377377 377377      65  	oct	377377377377,377377377377,377377377377,377377377377
    000223  aa   377377 377377
    000224  aa   377377 377377
    000225  aa   377377 377377
    000226  aa   377377 377377      66  	oct	377377377377,377377377377,377377377377,377377377377
    000227  aa   377377 377377
    000230  aa   377377 377377
    000231  aa   377377 377377
    000232  aa   377377 377377      67  	oct	377377377377,377377377377,377377377377,377377377377
    000233  aa   377377 377377
    000234  aa   377377 377377
    000235  aa   377377 377377
    000236  aa   377377 377377      68  	oct	377377377377,377377377377,377377377377,377377377377
    000237  aa   377377 377377
    000240  aa   377377 377377
    000241  aa   377377 377377
    000242  aa   377377 377377      69  	oct	377377377377,377377377377,377377377377,377377377377
    000243  aa   377377 377377
    000244  aa   377377 377377
    000245  aa   377377 377377
    000246  aa   377377 377377      70  	oct	377377377377,377377377377,377377377377,377377377377
    000247  aa   377377 377377
    000250  aa   377377 377377
    000251  aa   377377 377377
    000252  aa   377377 377377      71  	oct	377377377377,377377377377,377377377377,377177377377
    000253  aa   377377 377377
    000254  aa   377377 377377
    000255  aa   377177 377377
    000256  aa   377377 377377      72  	oct	377377377377,377377377377,377377377377,377377377177
    000257  aa   377377 377377
    000260  aa   377377 377377
    000261  aa   377377 377177
    000262  aa   377377 377377      73  	oct	377377377377,377377377377,377377377377,377377377377
    000263  aa   377377 377377
    000264  aa   377377 377377
    000265  aa   377377 377377
    000266  aa   377377 377377      74  	oct	377377377377,377377377377,377377377377,377377377377
    000267  aa   377377 377377
    000270  aa   377377 377377
    000271  aa   377377 377377
    000272  aa   377377 377377      75  	oct	377377377377,377377377377,377377377377,377377377377
    000273  aa   377377 377377
    000274  aa   377377 377377
    000275  aa   377377 377377
    000276  aa   377377 377377      76  	oct	377377377377,377377377377,377377377377,377377377377
    000277  aa   377377 377377
    000300  aa   377377 377377
    000301  aa   377377 377377
    000302  aa   377377 377377      77  	oct	377377377377,377377377377,377377377377,377377377377
    000303  aa   377377 377377
    000304  aa   377377 377377
    000305  aa   377377 377377
    000306  aa   377377 377377      78  	oct	377377377377,377377377377,377377377377,377377377377
    000307  aa   377377 377377
    000310  aa   377377 377377
    000311  aa   377377 377377
    000312  aa   377377 377377      79  	oct	377377377377,377377377377,377377377377,377377377377
    000313  aa   377377 377377
    000314  aa   377377 377377
    000315  aa   377377 377377
    000316  aa   377377 377377      80  	oct	377377377377,377377377377,377377377377,377377377377
    000317  aa   377377 377377
    000320  aa   377377 377377
    000321  aa   377377 377377
    000322  aa   377377 377377      81  	oct	377377377377,377377377377,377377377377,377377377377
    000323  aa   377377 377377
    000324  aa   377377 377377
    000325  aa   377377 377377
    000326  aa   377377 377377      82  	oct	377377377377,377377377377,377377377377,377377377377
    000327  aa   377377 377377
    000330  aa   377377 377377
    000331  aa   377377 377377
    000332  aa   377377 377377      83  	oct	377377377377,377377377377,377377377377,377377377377
    000333  aa   377377 377377
    000334  aa   377377 377377
    000335  aa   377377 377377
    000336  aa   377377 377377      84  	oct	377377377377,377377377377,377377377377,377377377377
    000337  aa   377377 377377
    000340  aa   377377 377377
    000341  aa   377377 377377
    000342  aa   377377 377377      85  	oct	377377377377,377377377377,377377377377,377377377377
    000343  aa   377377 377377
    000344  aa   377377 377377
    000345  aa   377377 377377
    000346  aa   377377 377377      86  	oct	377377377377,377377377377,377377377377,377377377377
    000347  aa   377377 377377
    000350  aa   377377 377377
    000351  aa   377377 377377
    000352  aa   377377 377377      87  	oct	377377377377,377377377377,377377377377,377173377377
    000353  aa   377377 377377
    000354  aa   377377 377377
    000355  aa   377173 377377
    000356  aa   377377 377377      88  	oct	377377377377,377377377377,377377377173,377377377377
    000357  aa   377377 377377
    000360  aa   377377 377173
    000361  aa   377377 377377
    000362  aa   377377 377377      89  	oct	377377377377,377377377377,377377377377,377377377377
    000363  aa   377377 377377
    000364  aa   377377 377377
    000365  aa   377377 377377
    000366  aa   377377 377377      90  	oct	377377377377,377377377377,377377377377,377377377377
    000367  aa   377377 377377
    000370  aa   377377 377377
    000371  aa   377377 377377
    000372  aa   377377 377377      91  	oct	377377377377,377377377377,377377377377,377377377377
    000373  aa   377377 377377
    000374  aa   377377 377377
    000375  aa   377377 377377
    000376  aa   377377 377377      92  	oct	377377377377,377377377377,377377377377,377377377377
    000377  aa   377377 377377
    000400  aa   377377 377377
    000401  aa   377377 377377
    000402  aa   377377 377377      93  	oct	377377377377,377377377377,377377377377,377377377377
    000403  aa   377377 377377
    000404  aa   377377 377377
    000405  aa   377377 377377
    000406  aa   377377 377377      94  	oct	377377377377,377377377377,377377377377,377377377377
    000407  aa   377377 377377
    000410  aa   377377 377377
    000411  aa   377377 377377
    000412  aa   377377 377377      95  	oct	377377377377,377377377377,377377377377,377377377377
    000413  aa   377377 377377
    000414  aa   377377 377377
    000415  aa   377377 377377
    000416  aa   377377 377377      96  	oct	377377377377,377377377377,377377377377,377377377377
    000417  aa   377377 377377
    000420  aa   377377 377377
    000421  aa   377377 377377
    000422  aa   377377 377377      97  	oct	377377377377,377377377377,377377377377,377377377377
    000423  aa   377377 377377
    000424  aa   377377 377377
    000425  aa   377377 377377
    000426  aa   377377 377377      98  	oct	377377377377,377377377377,377377377377,377377377377
    000427  aa   377377 377377
    000430  aa   377377 377377
    000431  aa   377377 377377
    000432  aa   377377 377377      99  	oct	377377377377,377377377377,377377377377,377377377377
    000433  aa   377377 377377
    000434  aa   377377 377377
    000435  aa   377377 377377
    000436  aa   377377 377377     100  	oct	377377377377,377377377377,377377377377,377377377377
    000437  aa   377377 377377
    000440  aa   377377 377377
    000441  aa   377377 377377
    000442  aa   377377 377377     101  	oct	377377377377,377377377377,377377377377,377377377377
    000443  aa   377377 377377
    000444  aa   377377 377377
    000445  aa   377377 377377
    000446  aa   377377 377377     102  	oct	377377377377,377377377377,377377377133,377377377377
    000447  aa   377377 377377
    000450  aa   377377 377133
    000451  aa   377377 377377
    000452  aa   377377 377377     103  	oct	377377377377,377377377377,377377377377,377133377377
    000453  aa   377377 377377
    000454  aa   377377 377377
    000455  aa   377133 377377
    000456  aa   377377 377377     104  	oct	377377377377,377377377377,377377377377,377377377377
    000457  aa   377377 377377
    000460  aa   377377 377377
    000461  aa   377377 377377
    000462  aa   377377 377377     105  	oct	377377377377,377377377377,377377377377,377377377377
    000463  aa   377377 377377
    000464  aa   377377 377377
    000465  aa   377377 377377
    000466  aa   377377 377377     106  	oct	377377377377,377377377377,377377377377,377377377377
    000467  aa   377377 377377
    000470  aa   377377 377377
    000471  aa   377377 377377
    000472  aa   377377 377377     107  	oct	377377377377,377377377377,377377377377,377377377377
    000473  aa   377377 377377
    000474  aa   377377 377377
    000475  aa   377377 377377
    000476  aa   377377 377377     108  	oct	377377377377,377377377377,377377377377,377377377377
    000477  aa   377377 377377
    000500  aa   377377 377377
    000501  aa   377377 377377
    000502  aa   377377 377377     109  	oct	377377377377,377377377377,377377377377,377377377377
    000503  aa   377377 377377
    000504  aa   377377 377377
    000505  aa   377377 377377
    000506  aa   377377 377377     110  	oct	377377377377,377377377377,377377377377,377377377377
    000507  aa   377377 377377
    000510  aa   377377 377377
    000511  aa   377377 377377
    000512  aa   377377 377377     111  	oct	377377377377,377377377377,377377377377,377377377377
    000513  aa   377377 377377
    000514  aa   377377 377377
    000515  aa   377377 377377
    000516  aa   377377 377377     112  	oct	377377377377,377377377377,377377377377,377377377377
    000517  aa   377377 377377
    000520  aa   377377 377377
    000521  aa   377377 377377
    000522  aa   377377 377377     113  	oct	377377377377,377377377377,377377377377,377377377377
    000523  aa   377377 377377
    000524  aa   377377 377377
    000525  aa   377377 377377
    000526  aa   377377 377377     114  	oct	377377377377,377377377377,377377377377,377377377377
    000527  aa   377377 377377
    000530  aa   377377 377377
    000531  aa   377377 377377
    000532  aa   377377 377377     115  	oct	377377377377,377377377377,377377377377,377377377377
    000533  aa   377377 377377
    000534  aa   377377 377377
    000535  aa   377377 377377
    000536  aa   377377 377377     116  	oct	377377377377,377377377377,377377377377,377377377377
    000537  aa   377377 377377
    000540  aa   377377 377377
    000541  aa   377377 377377
    000542  aa   377377 377377     117  	oct	377377377377,377377377377,377377377377,377377377377
    000543  aa   377377 377377
    000544  aa   377377 377377
    000545  aa   377377 377377
    000546  aa   377377 377377     118  	oct	377377377377,377377377377,377377377377,377377377377
    000547  aa   377377 377377
    000550  aa   377377 377377
    000551  aa   377377 377377
    000552  aa   377377 377377     119  	oct	377377377377,377377377377,377377377377,154154377377
    000553  aa   377377 377377
    000554  aa   377377 377377
    000555  aa   154154 377377
    000556  aa   377377 377377     120  	oct	377377377377,377377377377,377377377377,377377377377
    000557  aa   377377 377377
    000560  aa   377377 377377
    000561  aa   377377 377377
    000562  aa   377377 377377     121  	oct	377377377377,377377377377,377377377377,377377377377
    000563  aa   377377 377377
    000564  aa   377377 377377
    000565  aa   377377 377377
    000566  aa   377377 377377     122  	oct	377377377377,377377377377,377377377377,377377377377
    000567  aa   377377 377377
    000570  aa   377377 377377
    000571  aa   377377 377377
    000572  aa   377377 377377     123  	oct	377377377377,377377377377,377377377377,377377377377
    000573  aa   377377 377377
    000574  aa   377377 377377
    000575  aa   377377 377377
    000576  aa   377377 377377     124  	oct	377377377377,377377377377,377377377377,377377377377
    000577  aa   377377 377377
    000600  aa   377377 377377
    000601  aa   377377 377377
    000602  aa   377377 377377     125  	oct	377377377377,377377377377,377377377377,377377377377
    000603  aa   377377 377377
    000604  aa   377377 377377
    000605  aa   377377 377377
    000606  aa   377377 377377     126  	oct	377377377377,377377377377,377377377377,377377377377
    000607  aa   377377 377377
    000610  aa   377377 377377
    000611  aa   377377 377377
    000612  aa   377377 377377     127  	oct	377377377377,377377377377,377377377377,377377377377
    000613  aa   377377 377377
    000614  aa   377377 377377
    000615  aa   377377 377377
    000616  aa   377377 377377     128  	oct	377377377377,377377377377,377377377377,377377377377
    000617  aa   377377 377377
    000620  aa   377377 377377
    000621  aa   377377 377377
    000622  aa   377377 377377     129  	oct	377377377377,377377377377,377377377377,377377377377
    000623  aa   377377 377377
    000624  aa   377377 377377
    000625  aa   377377 377377
    000626  aa   377377 377377     130  	oct	377377377377,377377377377,377377377377,377377377377
    000627  aa   377377 377377
    000630  aa   377377 377377
    000631  aa   377377 377377
    000632  aa   377377 377377     131  	oct	377377377377,377377377377,377377377377,377377377377
    000633  aa   377377 377377
    000634  aa   377377 377377
    000635  aa   377377 377377
    000636  aa   377377 377377     132  	oct	377377377377,377377377377,377377377377,377377377377
    000637  aa   377377 377377
    000640  aa   377377 377377
    000641  aa   377377 377377
    000642  aa   377377 377377     133  	oct	377377377377,377377377377,377377377377,377377377377
    000643  aa   377377 377377
    000644  aa   377377 377377
    000645  aa   377377 377377
    000646  aa   120377 377377     134  	oct	120377377377,377377377377,377377377377,377377377377
    000647  aa   377377 377377
    000650  aa   377377 377377
    000651  aa   377377 377377
    000652  aa   377377 377377     135  	oct	377377377377,377377377377,377377377377,377120377377
    000653  aa   377377 377377
    000654  aa   377377 377377
    000655  aa   377120 377377
    000656  aa   377377 377377     136  	oct	377377377377,377377377377,377377377377,377377377377
    000657  aa   377377 377377
    000660  aa   377377 377377
    000661  aa   377377 377377
    000662  aa   377377 377377     137  	oct	377377377377,377377377377,377377377377,377377377377
    000663  aa   377377 377377
    000664  aa   377377 377377
    000665  aa   377377 377377
    000666  aa   377377 377377     138  	oct	377377377377,377377377377,377377377377,377377377377
    000667  aa   377377 377377
    000670  aa   377377 377377
    000671  aa   377377 377377
    000672  aa   377377 377377     139  	oct	377377377377,377377377377,377377377377,377377377377
    000673  aa   377377 377377
    000674  aa   377377 377377
    000675  aa   377377 377377
    000676  aa   377377 377377     140  	oct	377377377377,377377377377,377377377377,377377377377
    000677  aa   377377 377377
    000700  aa   377377 377377
    000701  aa   377377 377377
    000702  aa   377377 377377     141  	oct	377377377377,377377377377,377377377377,377377377377
    000703  aa   377377 377377
    000704  aa   377377 377377
    000705  aa   377377 377377
    000706  aa   377377 377377     142  	oct	377377377377,377377377377,377377377377,377377377377
    000707  aa   377377 377377
    000710  aa   377377 377377
    000711  aa   377377 377377
    000712  aa   377377 377377     143  	oct	377377377377,377377377377,377377377377,377377377377
    000713  aa   377377 377377
    000714  aa   377377 377377
    000715  aa   377377 377377
    000716  aa   377377 377377     144  	oct	377377377377,377377377377,377377377377,377377377377
    000717  aa   377377 377377
    000720  aa   377377 377377
    000721  aa   377377 377377
    000722  aa   377377 377377     145  	oct	377377377377,377377377377,377377377377,377377377377
    000723  aa   377377 377377
    000724  aa   377377 377377
    000725  aa   377377 377377
    000726  aa   377377 377377     146  	oct	377377377377,377377377377,377377377377,377377377377
    000727  aa   377377 377377
    000730  aa   377377 377377
    000731  aa   377377 377377
    000732  aa   377377 377377     147  	oct	377377377377,377377377377,377377377377,377377377377
    000733  aa   377377 377377
    000734  aa   377377 377377
    000735  aa   377377 377377
    000736  aa   377377 377377     148  	oct	377377377377,377377377377,377377377377,377377377377
    000737  aa   377377 377377
    000740  aa   377377 377377
    000741  aa   377377 377377
    000742  aa   377377 377377     149  	oct	377377377377,377377377377,377377377377,377377377377
    000743  aa   377377 377377
    000744  aa   377377 377377
    000745  aa   377377 377377
    000746  aa   377377 377377     150  	oct	377377377377,377377377377,377377377377,377377377377
    000747  aa   377377 377377
    000750  aa   377377 377377
    000751  aa   377377 377377
    000752  aa   377377 377377     151  	oct	377377377377,377377377377,377377377377,377175377377
    000753  aa   377377 377377
    000754  aa   377377 377377
    000755  aa   377175 377377
    000756  aa   377377 377377     152  	oct	377377377377,377377377377,377377377377,377175377377
    000757  aa   377377 377377
    000760  aa   377377 377377
    000761  aa   377175 377377
    000762  aa   377377 377377     153  	oct	377377377377,377377377377,377377377377,377377377377
    000763  aa   377377 377377
    000764  aa   377377 377377
    000765  aa   377377 377377
    000766  aa   377377 377377     154  	oct	377377377377,377377377377,377377377377,377377377377
    000767  aa   377377 377377
    000770  aa   377377 377377
    000771  aa   377377 377377
    000772  aa   377377 377377     155  	oct	377377377377,377377377377,377377377377,377377377377
    000773  aa   377377 377377
    000774  aa   377377 377377
    000775  aa   377377 377377
    000776  aa   377377 377377     156  	oct	377377377377,377377377377,377377377377,377377377377
    000777  aa   377377 377377
    001000  aa   377377 377377
    001001  aa   377377 377377
    001002  aa   377377 377377     157  	oct	377377377377,377377377377,377377377377,377377377377
    001003  aa   377377 377377
    001004  aa   377377 377377
    001005  aa   377377 377377
    001006  aa   377377 377377     158  	oct	377377377377,377377377377,377377377377,377377377377
    001007  aa   377377 377377
    001010  aa   377377 377377
    001011  aa   377377 377377
    001012  aa   377377 377377     159  	oct	377377377377,377377377377,377377377377,377377377377
    001013  aa   377377 377377
    001014  aa   377377 377377
    001015  aa   377377 377377
    001016  aa   377377 377377     160  	oct	377377377377,377377377377,377377377377,377377377377
    001017  aa   377377 377377
    001020  aa   377377 377377
    001021  aa   377377 377377
    001022  aa   377377 377377     161  	oct	377377377377,377377377377,377377377377,377377377377
    001023  aa   377377 377377
    001024  aa   377377 377377
    001025  aa   377377 377377
    001026  aa   377377 377377     162  	oct	377377377377,377377377377,377377377377,377377377377
    001027  aa   377377 377377
    001030  aa   377377 377377
    001031  aa   377377 377377
    001032  aa   377377 377377     163  	oct	377377377377,377377377377,377377377377,377377377377
    001033  aa   377377 377377
    001034  aa   377377 377377
    001035  aa   377377 377377
    001036  aa   377377 377377     164  	oct	377377377377,377377377377,377377377377,377377377377
    001037  aa   377377 377377
    001040  aa   377377 377377
    001041  aa   377377 377377
    001042  aa   377377 377377     165  	oct	377377377377,377377377377,377377377377,377115377377
    001043  aa   377377 377377
    001044  aa   377377 377377
    001045  aa   377115 377377
    001046  aa   377377 377377     166  	oct	377377377377,377377377377,377377377377,377377377377
    001047  aa   377377 377377
    001050  aa   377377 377377
    001051  aa   377377 377377
    001052  aa   377377 377377     167  	oct	377377377377,377377377377,377377377377,377115377377
    001053  aa   377377 377377
    001054  aa   377377 377377
    001055  aa   377115 377377
    001056  aa   377377 377377     168  	oct	377377377377,377377377377,377377377377,377377377377
    001057  aa   377377 377377
    001060  aa   377377 377377
    001061  aa   377377 377377
    001062  aa   377377 377377     169  	oct	377377377377,377377377377,377377377377,377377377377
    001063  aa   377377 377377
    001064  aa   377377 377377
    001065  aa   377377 377377
    001066  aa   377377 377377     170  	oct	377377377377,377377377377,377377377377,377377377377
    001067  aa   377377 377377
    001070  aa   377377 377377
    001071  aa   377377 377377
    001072  aa   377377 377377     171  	oct	377377377377,377377377377,377377377377,377377377377
    001073  aa   377377 377377
    001074  aa   377377 377377
    001075  aa   377377 377377
    001076  aa   377377 377377     172  	oct	377377377377,377377377377,377377377377,377377377377
    001077  aa   377377 377377
    001100  aa   377377 377377
    001101  aa   377377 377377
    001102  aa   377377 377377     173  	oct	377377377377,377377377377,377377377377,377377377377
    001103  aa   377377 377377
    001104  aa   377377 377377
    001105  aa   377377 377377
    001106  aa   377377 377377     174  	oct	377377377377,377377377377,377377377377,377377377377
    001107  aa   377377 377377
    001110  aa   377377 377377
    001111  aa   377377 377377
    001112  aa   377377 377377     175  	oct	377377377377,377377377377,377377377377,377377377377
    001113  aa   377377 377377
    001114  aa   377377 377377
    001115  aa   377377 377377
    001116  aa   377377 377377     176  	oct	377377377377,377377377377,377377377377,377377377377
    001117  aa   377377 377377
    001120  aa   377377 377377
    001121  aa   377377 377377
    001122  aa   377377 377377     177  	oct	377377377377,377377377377,377377377377,377377377377
    001123  aa   377377 377377
    001124  aa   377377 377377
    001125  aa   377377 377377
    001126  aa   377377 377377     178  	oct	377377377377,377377377377,377377377377,377377377377
    001127  aa   377377 377377
    001130  aa   377377 377377
    001131  aa   377377 377377
    001132  aa   377377 377377     179  	oct	377377377377,377377377377,377377377377,377377377377
    001133  aa   377377 377377
    001134  aa   377377 377377
    001135  aa   377377 377377
    001136  aa   377377 377377     180  	oct	377377377377,377377377377,377377377377,377377377377
    001137  aa   377377 377377
    001140  aa   377377 377377
    001141  aa   377377 377377
    001142  aa   377377 377377     181  	oct	377377377377,377377377377,377377377377,377377377377
    001143  aa   377377 377377
    001144  aa   377377 377377
    001145  aa   377377 377377
    001146  aa   377377 377377     182  	oct	377377377377,377377377377,377377377377,377135377377
    001147  aa   377377 377377
    001150  aa   377377 377377
    001151  aa   377135 377377
    001152  aa   377377 377377     183  	oct	377377377377,377377377377,377377377377,377135377377
    001153  aa   377377 377377
    001154  aa   377377 377377
    001155  aa   377135 377377
    001156  aa   377377 377377     184  	oct	377377377377,377377377377,377377377377,377377377377
    001157  aa   377377 377377
    001160  aa   377377 377377
    001161  aa   377377 377377
    001162  aa   377377 377377     185  	oct	377377377377,377377377377,377377377377,377377377377
    001163  aa   377377 377377
    001164  aa   377377 377377
    001165  aa   377377 377377
    001166  aa   377377 377377     186  	oct	377377377377,377377377377,377377377377,377377377377
    001167  aa   377377 377377
    001170  aa   377377 377377
    001171  aa   377377 377377
    001172  aa   377377 377377     187  	oct	377377377377,377377377377,377377377377,377377377377
    001173  aa   377377 377377
    001174  aa   377377 377377
    001175  aa   377377 377377
    001176  aa   377377 377377     188  	oct	377377377377,377377377377,377377377377,377377377377
    001177  aa   377377 377377
    001200  aa   377377 377377
    001201  aa   377377 377377
    001202  aa   377377 377377     189  	oct	377377377377,377377377377,377377377377,377377377377
    001203  aa   377377 377377
    001204  aa   377377 377377
    001205  aa   377377 377377
    001206  aa   377377 377377     190  	oct	377377377377,377377377377,377377377377,377377377377
    001207  aa   377377 377377
    001210  aa   377377 377377
    001211  aa   377377 377377
    001212  aa   377377 377377     191  	oct	377377377377,377377377377,377377377377,377377377377
    001213  aa   377377 377377
    001214  aa   377377 377377
    001215  aa   377377 377377
    001216  aa   377377 377377     192  	oct	377377377377,377377377377,377377377377,377377377377
    001217  aa   377377 377377
    001220  aa   377377 377377
    001221  aa   377377 377377
    001222  aa   377377 377377     193  	oct	377377377377,377377377377,377377377377,377377377377
    001223  aa   377377 377377
    001224  aa   377377 377377
    001225  aa   377377 377377
    001226  aa   377377 377377     194  	oct	377377377377,377377377377,377377377377,377377377377
    001227  aa   377377 377377
    001230  aa   377377 377377
    001231  aa   377377 377377
    001232  aa   377377 377377     195  	oct	377377377377,377377377377,377377377377,377377377377
    001233  aa   377377 377377
    001234  aa   377377 377377
    001235  aa   377377 377377
    001236  aa   377377 377377     196  	oct	377377377377,377377377377,377377377377,377377377377
    001237  aa   377377 377377
    001240  aa   377377 377377
    001241  aa   377377 377377
    001242  aa   377377 377377     197  	oct	377377377377,377377377377,377377377377,377377377377
    001243  aa   377377 377377
    001244  aa   377377 377377
    001245  aa   377377 377377
    001246  aa   377377 377377     198  	oct	377377377377,377377377377,377377377377,134377377377
    001247  aa   377377 377377
    001250  aa   377377 377377
    001251  aa   134377 377377
    001252  aa   377377 377377     199  	oct	377377377377,377377377377,377377377377,377134377377
    001253  aa   377377 377377
    001254  aa   377377 377377
    001255  aa   377134 377377
    001256  aa   377377 377377     200  	oct	377377377377,377377377377,377377377377,377377377377
    001257  aa   377377 377377
    001260  aa   377377 377377
    001261  aa   377377 377377
    001262  aa   377377 377377     201  	oct	377377377377,377377377377,377377377377,377377377377
    001263  aa   377377 377377
    001264  aa   377377 377377
    001265  aa   377377 377377
    001266  aa   377377 377377     202  	oct	377377377377,377377377377,377377377377,377377377377
    001267  aa   377377 377377
    001270  aa   377377 377377
    001271  aa   377377 377377
    001272  aa   377377 377377     203  	oct	377377377377,377377377377,377377377377,377377377377
    001273  aa   377377 377377
    001274  aa   377377 377377
    001275  aa   377377 377377
    001276  aa   377377 377377     204  	oct	377377377377,377377377377,377377377377,377377377377
    001277  aa   377377 377377
    001300  aa   377377 377377
    001301  aa   377377 377377
    001302  aa   377377 377377     205  	oct	377377377377,377377377377,377377377377,377377377377
    001303  aa   377377 377377
    001304  aa   377377 377377
    001305  aa   377377 377377
    001306  aa   377377 377377     206  	oct	377377377377,377377377377,377377377377,377377377377
    001307  aa   377377 377377
    001310  aa   377377 377377
    001311  aa   377377 377377
    001312  aa   377377 377377     207  	oct	377377377377,377377377377,377377377377,377377377377
    001313  aa   377377 377377
    001314  aa   377377 377377
    001315  aa   377377 377377
    001316  aa   377377 377377     208  	oct	377377377377,377377377377,377377377377,377377377377
    001317  aa   377377 377377
    001320  aa   377377 377377
    001321  aa   377377 377377
    001322  aa   377377 377377     209  	oct	377377377377,377377377377,377377377377,377377377377
    001323  aa   377377 377377
    001324  aa   377377 377377
    001325  aa   377377 377377
    001326  aa   377021 377377     210  	oct	377021377377,377377377377,377377377377,377377377377
    001327  aa   377377 377377
    001330  aa   377377 377377
    001331  aa   377377 377377
    001332  aa   377377 377377     211  	oct	377377377377,377377377377,377377377377,377377377377
    001333  aa   377377 377377
    001334  aa   377377 377377
    001335  aa   377377 377377
    001336  aa   377377 377377     212  	oct	377377377377,377377377377,377377377377,377377377377
    001337  aa   377377 377377
    001340  aa   377377 377377
    001341  aa   377377 377377
    001342  aa   377377 377377     213  	oct	377377377377,377377377377,377377377377,377377116377
    001343  aa   377377 377377
    001344  aa   377377 377377
    001345  aa   377377 116377
    001346  aa   377377 377377     214  	oct	377377377377,377377377377,377377377377,377377377377
    001347  aa   377377 377377
    001350  aa   377377 377377
    001351  aa   377377 377377
    001352  aa   021377 377377     215  	oct	021377377377,377377377377,377377377377,377116377377
    001353  aa   377377 377377
    001354  aa   377377 377377
    001355  aa   377116 377377
    001356  aa   377377 377377     216  	oct	377377377377,377377377377,377377377377,377377377377
    001357  aa   377377 377377
    001360  aa   377377 377377
    001361  aa   377377 377377
    001362  aa   377377 377377     217  	oct	377377377377,377377377377,377377377377,377377377377
    001363  aa   377377 377377
    001364  aa   377377 377377
    001365  aa   377377 377377
    001366  aa   377377 377377     218  	oct	377377377377,377377377377,377377377377,377377377377
    001367  aa   377377 377377
    001370  aa   377377 377377
    001371  aa   377377 377377
    001372  aa   377377 377377     219  	oct	377377377377,377377377377,377377377377,377377377377
    001373  aa   377377 377377
    001374  aa   377377 377377
    001375  aa   377377 377377
    001376  aa   377377 377377     220  	oct	377377377377,377377377377,377377377377,377377377377
    001377  aa   377377 377377
    001400  aa   377377 377377
    001401  aa   377377 377377
    001402  aa   377377 377377     221  	oct	377377377377,377377377377,377377377377,377377377377
    001403  aa   377377 377377
    001404  aa   377377 377377
    001405  aa   377377 377377
    001406  aa   377377 377377     222  	oct	377377377377,377377377377,377377377377,377377377377
    001407  aa   377377 377377
    001410  aa   377377 377377
    001411  aa   377377 377377
    001412  aa   377377 377377     223  	oct	377377377377,377377377377,377377377377,377377377377
    001413  aa   377377 377377
    001414  aa   377377 377377
    001415  aa   377377 377377
    001416  aa   377377 377377     224  	oct	377377377377,377377377377,377377377377,377377377377
    001417  aa   377377 377377
    001420  aa   377377 377377
    001421  aa   377377 377377
    001422  aa   377377 377377     225  	oct	377377377377,377377377377,377377377377,377377377377
    001423  aa   377377 377377
    001424  aa   377377 377377
    001425  aa   377377 377377
    001426  aa   377377 377377     226  	oct	377377377377,377377377377,377377377377,377377377377
    001427  aa   377377 377377
    001430  aa   377377 377377
    001431  aa   377377 377377
    001432  aa   377377 377377     227  	oct	377377377377,377377377377,377377377377,377377377377
    001433  aa   377377 377377
    001434  aa   377377 377377
    001435  aa   377377 377377
    001436  aa   377377 377377     228  	oct	377377377377,377377377377,377377377377,377377377377
    001437  aa   377377 377377
    001440  aa   377377 377377
    001441  aa   377377 377377
    001442  aa   377377 377377     229  	oct	377377377377,377377377377,377377377377,377377377377
    001443  aa   377377 377377
    001444  aa   377377 377377
    001445  aa   377377 377377
    001446  aa   377377 377377     230  	oct	377377377377,377377377377,377377377377,377377377377
    001447  aa   377377 377377
    001450  aa   377377 377377
    001451  aa   377377 377377
    001452  aa   377377 377377     231  	oct	377377377377,377377377377,377377377153,377153377377
    001453  aa   377377 377377
    001454  aa   377377 377153
    001455  aa   377153 377377
    001456  aa   377377 377377     232  	oct	377377377377,377377377377,377377377377,377377377377
    001457  aa   377377 377377
    001460  aa   377377 377377
    001461  aa   377377 377377
    001462  aa   377377 377377     233  	oct	377377377377,377377377377,377377377377,377377377377
    001463  aa   377377 377377
    001464  aa   377377 377377
    001465  aa   377377 377377
    001466  aa   377377 377377     234  	oct	377377377377,377377377377,377377377377,377377377377
    001467  aa   377377 377377
    001470  aa   377377 377377
    001471  aa   377377 377377
    001472  aa   377377 377377     235  	oct	377377377377,377377377377,377377377377,377377377377
    001473  aa   377377 377377
    001474  aa   377377 377377
    001475  aa   377377 377377
    001476  aa   377377 377377     236  	oct	377377377377,377377377377,377377377377,377377377377
    001477  aa   377377 377377
    001500  aa   377377 377377
    001501  aa   377377 377377
    001502  aa   377377 377377     237  	oct	377377377377,377377377377,377377377377,377377377377
    001503  aa   377377 377377
    001504  aa   377377 377377
    001505  aa   377377 377377
    001506  aa   377377 377377     238  	oct	377377377377,377377377377,377377377377,377377377377
    001507  aa   377377 377377
    001510  aa   377377 377377
    001511  aa   377377 377377
    001512  aa   377377 377377     239  	oct	377377377377,377377377377,377377377377,377377377377
    001513  aa   377377 377377
    001514  aa   377377 377377
    001515  aa   377377 377377
    001516  aa   377377 377377     240  	oct	377377377377,377377377377,377377377377,377377377377
    001517  aa   377377 377377
    001520  aa   377377 377377
    001521  aa   377377 377377
    001522  aa   377377 377377     241  	oct	377377377377,377377377007,377377377377,377377377377
    001523  aa   377377 377007
    001524  aa   377377 377377
    001525  aa   377377 377377
    001526  aa   377021 377377     242  	oct	377021377377,377377377377,377377377377,377377377377
    001527  aa   377377 377377
    001530  aa   377377 377377
    001531  aa   377377 377377
    001532  aa   377377 377377     243  	oct	377377377377,377377377377,377377377377,377377377377
    001533  aa   377377 377377
    001534  aa   377377 377377
    001535  aa   377377 377377
    001536  aa   377377 062377     244  	oct	377377062377,377377377377,377377377377,377377377377
    001537  aa   377377 377377
    001540  aa   377377 377377
    001541  aa   377377 377377
    001542  aa   377377 377377     245  	oct	377377377377,377377377377,377377377377,062377021217
    001543  aa   377377 377377
    001544  aa   377377 377377
    001545  aa   062377 021217
    001546  aa   377377 377377     246  	oct	377377377377,377377377377,377377377377,377377377377
    001547  aa   377377 377377
    001550  aa   377377 377377
    001551  aa   377377 377377
    001552  aa   140377 377377     247  	oct	140377377377,377377377377,377377377377,377140377377
    001553  aa   377377 377377
    001554  aa   377377 377377
    001555  aa   377140 377377
    001556  aa   377377 377377     248  	oct	377377377377,377377377377,377377377377,377377007377
    001557  aa   377377 377377
    001560  aa   377377 377377
    001561  aa   377377 007377
    001562  aa   377377 377377     249  	oct	377377377377,377377377377,377377377377,377377377217
    001563  aa   377377 377377
    001564  aa   377377 377377
    001565  aa   377377 377217
    001566  aa   377377 377377     250  	oct	377377377377,377377377377,377377377377,377377377377
    001567  aa   377377 377377
    001570  aa   377377 377377
    001571  aa   377377 377377
    001572  aa   377377 377377     251  	oct	377377377377,377377377377,377377377377,377377377377
    001573  aa   377377 377377
    001574  aa   377377 377377
    001575  aa   377377 377377
    001576  aa   377377 377377     252  	oct	377377377377,377377377377,377377377377,377377377377
    001577  aa   377377 377377
    001600  aa   377377 377377
    001601  aa   377377 377377
    001602  aa   377377 377377     253  	oct	377377377377,377377377377,377377377377,377377377377
    001603  aa   377377 377377
    001604  aa   377377 377377
    001605  aa   377377 377377
    001606  aa   377377 377377     254  	oct	377377377377,377377377377,377377377377,377377377377
    001607  aa   377377 377377
    001610  aa   377377 377377
    001611  aa   377377 377377
    001612  aa   377377 377377     255  	oct	377377377377,377377377377,377377377377,377377377377
    001613  aa   377377 377377
    001614  aa   377377 377377
    001615  aa   377377 377377
    001616  aa   377377 377377     256  	oct	377377377377,377377377377,377377377377,377377377377
    001617  aa   377377 377377
    001620  aa   377377 377377
    001621  aa   377377 377377
    001622  aa   377377 377377     257  	oct	377377377377,377377377377,377377377377,377377377377
    001623  aa   377377 377377
    001624  aa   377377 377377
    001625  aa   377377 377377
    001626  aa   377377 377377     258  	oct	377377377377,377377377377,377377377377,377377377377
    001627  aa   377377 377377
    001630  aa   377377 377377
    001631  aa   377377 377377
    001632  aa   377377 377377     259  	oct	377377377377,377377377377,377377377377,377377377377
    001633  aa   377377 377377
    001634  aa   377377 377377
    001635  aa   377377 377377
    001636  aa   377377 377377     260  	oct	377377377377,377377377377,377377377377,377377377377
    001637  aa   377377 377377
    001640  aa   377377 377377
    001641  aa   377377 377377
    001642  aa   377377 377377     261  	oct	377377377377,377377377377,377377377113,377377377377
    001643  aa   377377 377377
    001644  aa   377377 377113
    001645  aa   377377 377377
    001646  aa   377377 377377     262  	oct	377377377377,377377377377,377377377377,377377377377
    001647  aa   377377 377377
    001650  aa   377377 377377
    001651  aa   377377 377377
    001652  aa   377377 377377     263  	oct	377377377377,377377377377,377377377377,377113377377
    001653  aa   377377 377377
    001654  aa   377377 377377
    001655  aa   377113 377377
    001656  aa   377377 377377     264  	oct	377377377377,377377377377,377377377377,377377377377
    001657  aa   377377 377377
    001660  aa   377377 377377
    001661  aa   377377 377377
    001662  aa   377377 377377     265  	oct	377377377377,377377377377,377377377377,377377377377
    001663  aa   377377 377377
    001664  aa   377377 377377
    001665  aa   377377 377377
    001666  aa   377377 377377     266  	oct	377377377377,377377377377,377377377377,377377377377
    001667  aa   377377 377377
    001670  aa   377377 377377
    001671  aa   377377 377377
    001672  aa   377377 377377     267  	oct	377377377377,377377377377,377377377377,377377377377
    001673  aa   377377 377377
    001674  aa   377377 377377
    001675  aa   377377 377377
    001676  aa   377377 377377     268  	oct	377377377377,377377377377,377377377377,377377377377
    001677  aa   377377 377377
    001700  aa   377377 377377
    001701  aa   377377 377377
    001702  aa   377377 377377     269  	oct	377377377377,377377377377,377377377377,377377377377
    001703  aa   377377 377377
    001704  aa   377377 377377
    001705  aa   377377 377377
    001706  aa   377377 377377     270  	oct	377377377377,377377377377,377377377377,377377377377
    001707  aa   377377 377377
    001710  aa   377377 377377
    001711  aa   377377 377377
    001712  aa   377377 377377     271  	oct	377377377377,377377377377,377377377377,377377377377
    001713  aa   377377 377377
    001714  aa   377377 377377
    001715  aa   377377 377377
    001716  aa   377377 377377     272  	oct	377377377377,377377377377,377377377377,377377377377
    001717  aa   377377 377377
    001720  aa   377377 377377
    001721  aa   377377 377377
    001722  aa   377377 377377     273  	oct	377377377377,377377377377,377377377377,377377377377
    001723  aa   377377 377377
    001724  aa   377377 377377
    001725  aa   377377 377377
    001726  aa   377377 377377     274  	oct	377377377377,377377377377,377377377377,377377377377
    001727  aa   377377 377377
    001730  aa   377377 377377
    001731  aa   377377 377377
    001732  aa   377377 377377     275  	oct	377377377377,377377377377,377377377377,377377377377
    001733  aa   377377 377377
    001734  aa   377377 377377
    001735  aa   377377 377377
    001736  aa   377377 377377     276  	oct	377377377377,377377377377,377377377377,377377377377
    001737  aa   377377 377377
    001740  aa   377377 377377
    001741  aa   377377 377377
    001742  aa   377377 377377     277  	oct	377377377377,377377377377,377377377377,377377377377
    001743  aa   377377 377377
    001744  aa   377377 377377
    001745  aa   377377 377377
    001746  aa   377377 377377     278  	oct	377377377377,377377377377,377377377377,377377377377
    001747  aa   377377 377377
    001750  aa   377377 377377
    001751  aa   377377 377377
    001752  aa   377141 377377     279  	oct	377141377377,377377377377,377377377377,377141377377
    001753  aa   377377 377377
    001754  aa   377377 377377
    001755  aa   377141 377377
    001756  aa   377377 377377     280  	oct	377377377377,377377377377,377377377377,377377377377
    001757  aa   377377 377377
    001760  aa   377377 377377
    001761  aa   377377 377377
    001762  aa   377377 377377     281  	oct	377377377377,377377377377,377377377377,377377377377
    001763  aa   377377 377377
    001764  aa   377377 377377
    001765  aa   377377 377377
    001766  aa   377377 377377     282  	oct	377377377377,377377377377,377377377377,377377377377
    001767  aa   377377 377377
    001770  aa   377377 377377
    001771  aa   377377 377377
    001772  aa   377377 377377     283  	oct	377377377377,377377377377,377377377377,377377377377
    001773  aa   377377 377377
    001774  aa   377377 377377
    001775  aa   377377 377377
    001776  aa   377377 377377     284  	oct	377377377377,377377377377,377377377377,377377377377
    001777  aa   377377 377377
    002000  aa   377377 377377
    002001  aa   377377 377377
    002002  aa   377377 377377     285  	oct	377377377377,377377377377,377377377377,377377377377
    002003  aa   377377 377377
    002004  aa   377377 377377
    002005  aa   377377 377377
    002006  aa   377377 377377     286  	oct	377377377377,377377377377,377377377377,377377377377
    002007  aa   377377 377377
    002010  aa   377377 377377
    002011  aa   377377 377377
    002012  aa   377377 377377     287  	oct	377377377377,377377377377,377377377377,377377377377
    002013  aa   377377 377377
    002014  aa   377377 377377
    002015  aa   377377 377377
    002016  aa   377377 377377     288  	oct	377377377377,377377377377,377377377377,377377377377
    002017  aa   377377 377377
    002020  aa   377377 377377
    002021  aa   377377 377377
    002022  aa   377377 377377     289  	oct	377377377377,377377377377,377377377377,377377377377
    002023  aa   377377 377377
    002024  aa   377377 377377
    002025  aa   377377 377377
    002026  aa   377377 377377     290  	oct	377377377377,377377377377,377377377377,377377377377
    002027  aa   377377 377377
    002030  aa   377377 377377
    002031  aa   377377 377377
    002032  aa   377377 377377     291  	oct	377377377377,377377377377,377377377377,377377377377
    002033  aa   377377 377377
    002034  aa   377377 377377
    002035  aa   377377 377377
    002036  aa   377377 377377     292  	oct	377377377377,377377377377,377377377377,377377377377
    002037  aa   377377 377377
    002040  aa   377377 377377
    002041  aa   377377 377377
    002042  aa   377377 377377     293  	oct	377377377377,377377377377,377377377377,377377377377
    002043  aa   377377 377377
    002044  aa   377377 377377
    002045  aa   377377 377377
    002046  aa   377377 377377     294  	oct	377377377377,377377377377,377377377377,377377377377
    002047  aa   377377 377377
    002050  aa   377377 377377
    002051  aa   377377 377377
    002052  aa   377377 377377     295  	oct	377377377377,377377377377,377377377377,377360377377
    002053  aa   377377 377377
    002054  aa   377377 377377
    002055  aa   377360 377377
    002056  aa   377377 377377     296  	oct	377377377377,377377377377,377377377377,377377377377
    002057  aa   377377 377377
    002060  aa   377377 377377
    002061  aa   377377 377377
    002062  aa   377377 377377     297  	oct	377377377377,377377377377,377377377377,377377377377
    002063  aa   377377 377377
    002064  aa   377377 377377
    002065  aa   377377 377377
    002066  aa   377377 377377     298  	oct	377377377377,377377377377,377377377377,377377377377
    002067  aa   377377 377377
    002070  aa   377377 377377
    002071  aa   377377 377377
    002072  aa   377377 377377     299  	oct	377377377377,377377377377,377377377377,377377377377
    002073  aa   377377 377377
    002074  aa   377377 377377
    002075  aa   377377 377377
    002076  aa   377377 377377     300  	oct	377377377377,377377377377,377377377377,377377377377
    002077  aa   377377 377377
    002100  aa   377377 377377
    002101  aa   377377 377377
    002102  aa   377377 377377     301  	oct	377377377377,377377377377,377377377377,377377377377
    002103  aa   377377 377377
    002104  aa   377377 377377
    002105  aa   377377 377377
    002106  aa   377377 377377     302  	oct	377377377377,377377377377,377377377377,377377377377
    002107  aa   377377 377377
    002110  aa   377377 377377
    002111  aa   377377 377377
    002112  aa   377377 377377     303  	oct	377377377377,377377377377,377377377377,377377377377
    002113  aa   377377 377377
    002114  aa   377377 377377
    002115  aa   377377 377377
    002116  aa   360377 377377     304  	oct	360377377377,377377377377,377377377377,377377377377
    002117  aa   377377 377377
    002120  aa   377377 377377
    002121  aa   377377 377377
    002122  aa   377377 377377     305  	oct	377377377377,377377377377,377377377377,377377377377
    002123  aa   377377 377377
    002124  aa   377377 377377
    002125  aa   377377 377377
    002126  aa   377377 377377     306  	oct	377377377377,377377377377,377377377377,377377377377
    002127  aa   377377 377377
    002130  aa   377377 377377
    002131  aa   377377 377377
    002132  aa   377377 377377     307  	oct	377377377377,377377377377,377377377377,377377377377
    002133  aa   377377 377377
    002134  aa   377377 377377
    002135  aa   377377 377377
    002136  aa   377377 377377     308  	oct	377377377377,377377377377,377377377377,377377377377
    002137  aa   377377 377377
    002140  aa   377377 377377
    002141  aa   377377 377377
    002142  aa   377377 377377     309  	oct	377377377377,377377377377,377377377377,377377377377
    002143  aa   377377 377377
    002144  aa   377377 377377
    002145  aa   377377 377377
    002146  aa   377377 377377     310  	oct	377377377377,377377377377,377377377377,377377377377
    002147  aa   377377 377377
    002150  aa   377377 377377
    002151  aa   377377 377377
    002152  aa   377377 377377     311  	oct	377377377377,377377377377,377377377377,377361377377
    002153  aa   377377 377377
    002154  aa   377377 377377
    002155  aa   377361 377377
    002156  aa   377377 377377     312  	oct	377377377377,377377377377,377377377377,377377377377
    002157  aa   377377 377377
    002160  aa   377377 377377
    002161  aa   377377 377377
    002162  aa   377377 377377     313  	oct	377377377377,377377377377,377377377377,377377377377
    002163  aa   377377 377377
    002164  aa   377377 377377
    002165  aa   377377 377377
    002166  aa   377377 377377     314  	oct	377377377377,377377377377,377377377377,377377377377
    002167  aa   377377 377377
    002170  aa   377377 377377
    002171  aa   377377 377377
    002172  aa   377377 377377     315  	oct	377377377377,377377377377,377377377377,377377377377
    002173  aa   377377 377377
    002174  aa   377377 377377
    002175  aa   377377 377377
    002176  aa   377377 377377     316  	oct	377377377377,377377377377,377377377377,377377377377
    002177  aa   377377 377377
    002200  aa   377377 377377
    002201  aa   377377 377377
    002202  aa   377377 377377     317  	oct	377377377377,377377377377,377377377377,377377377377
    002203  aa   377377 377377
    002204  aa   377377 377377
    002205  aa   377377 377377
    002206  aa   377377 377377     318  	oct	377377377377,377377377377,377377377377,377377377377
    002207  aa   377377 377377
    002210  aa   377377 377377
    002211  aa   377377 377377
    002212  aa   377377 377377     319  	oct	377377377377,377377377377,377377377377,377377377377
    002213  aa   377377 377377
    002214  aa   377377 377377
    002215  aa   377377 377377
    002216  aa   377361 377377     320  	oct	377361377377,377377377377,377377377377,377377377377
    002217  aa   377377 377377
    002220  aa   377377 377377
    002221  aa   377377 377377
    002222  aa   377377 377377     321  	oct	377377377377,377377377377,377377377377,377377377377
    002223  aa   377377 377377
    002224  aa   377377 377377
    002225  aa   377377 377377
    002226  aa   377377 377377     322  	oct	377377377377,377377377377,377377377377,377377377377
    002227  aa   377377 377377
    002230  aa   377377 377377
    002231  aa   377377 377377
    002232  aa   377377 377377     323  	oct	377377377377,377377377377,377377377377,377377377377
    002233  aa   377377 377377
    002234  aa   377377 377377
    002235  aa   377377 377377
    002236  aa   377377 377377     324  	oct	377377377377,377377377377,377377377377,377377377377
    002237  aa   377377 377377
    002240  aa   377377 377377
    002241  aa   377377 377377
    002242  aa   377377 377377     325  	oct	377377377377,377377377377,377377377377,377377377377
    002243  aa   377377 377377
    002244  aa   377377 377377
    002245  aa   377377 377377
    002246  aa   377377 377377     326  	oct	377377377377,377377377377,377377377377,377377377377
    002247  aa   377377 377377
    002250  aa   377377 377377
    002251  aa   377377 377377
    002252  aa   377377 377377     327  	oct	377377377377,377377377377,377377377377,377362377377
    002253  aa   377377 377377
    002254  aa   377377 377377
    002255  aa   377362 377377
    002256  aa   377377 377377     328  	oct	377377377377,377377377377,377377377377,377377377377
    002257  aa   377377 377377
    002260  aa   377377 377377
    002261  aa   377377 377377
    002262  aa   377377 377377     329  	oct	377377377377,377377377377,377377377377,377377377377
    002263  aa   377377 377377
    002264  aa   377377 377377
    002265  aa   377377 377377
    002266  aa   377377 377377     330  	oct	377377377377,377377377377,377377377377,377377377377
    002267  aa   377377 377377
    002270  aa   377377 377377
    002271  aa   377377 377377
    002272  aa   377377 377377     331  	oct	377377377377,377377377377,377377377377,377377377377
    002273  aa   377377 377377
    002274  aa   377377 377377
    002275  aa   377377 377377
    002276  aa   377377 377377     332  	oct	377377377377,377377377377,377377377377,377377377377
    002277  aa   377377 377377
    002300  aa   377377 377377
    002301  aa   377377 377377
    002302  aa   377377 377377     333  	oct	377377377377,377377377377,377377377377,377377377377
    002303  aa   377377 377377
    002304  aa   377377 377377
    002305  aa   377377 377377
    002306  aa   377377 377377     334  	oct	377377377377,377377377377,377377377377,377377377377
    002307  aa   377377 377377
    002310  aa   377377 377377
    002311  aa   377377 377377
    002312  aa   377377 377377     335  	oct	377377377377,377377377377,377377377377,377377377377
    002313  aa   377377 377377
    002314  aa   377377 377377
    002315  aa   377377 377377
    002316  aa   377377 362377     336  	oct	377377362377,377377377377,377377377377,377377377377
    002317  aa   377377 377377
    002320  aa   377377 377377
    002321  aa   377377 377377
    002322  aa   377377 377377     337  	oct	377377377377,377377377377,377377377377,377377377377
    002323  aa   377377 377377
    002324  aa   377377 377377
    002325  aa   377377 377377
    002326  aa   377377 377377     338  	oct	377377377377,377377377377,377377377377,377377377377
    002327  aa   377377 377377
    002330  aa   377377 377377
    002331  aa   377377 377377
    002332  aa   377377 377377     339  	oct	377377377377,377377377377,377377377377,377377377377
    002333  aa   377377 377377
    002334  aa   377377 377377
    002335  aa   377377 377377
    002336  aa   377377 377377     340  	oct	377377377377,377377377377,377377377377,377377377377
    002337  aa   377377 377377
    002340  aa   377377 377377
    002341  aa   377377 377377
    002342  aa   377377 377377     341  	oct	377377377377,377377377377,377377377377,377377377377
    002343  aa   377377 377377
    002344  aa   377377 377377
    002345  aa   377377 377377
    002346  aa   377377 377377     342  	oct	377377377377,377377377377,377377377377,377377377377
    002347  aa   377377 377377
    002350  aa   377377 377377
    002351  aa   377377 377377
    002352  aa   377377 377377     343  	oct	377377377377,377377377377,377377377377,377363377377
    002353  aa   377377 377377
    002354  aa   377377 377377
    002355  aa   377363 377377
    002356  aa   377377 377377     344  	oct	377377377377,377377377377,377377377377,377377377377
    002357  aa   377377 377377
    002360  aa   377377 377377
    002361  aa   377377 377377
    002362  aa   377377 377377     345  	oct	377377377377,377377377377,377377377377,377377377377
    002363  aa   377377 377377
    002364  aa   377377 377377
    002365  aa   377377 377377
    002366  aa   377377 377377     346  	oct	377377377377,377377377377,377377377377,377377377377
    002367  aa   377377 377377
    002370  aa   377377 377377
    002371  aa   377377 377377
    002372  aa   377377 377377     347  	oct	377377377377,377377377377,377377377377,377377377377
    002373  aa   377377 377377
    002374  aa   377377 377377
    002375  aa   377377 377377
    002376  aa   377377 377377     348  	oct	377377377377,377377377377,377377377377,377377377377
    002377  aa   377377 377377
    002400  aa   377377 377377
    002401  aa   377377 377377
    002402  aa   377377 377377     349  	oct	377377377377,377377377377,377377377377,377377377377
    002403  aa   377377 377377
    002404  aa   377377 377377
    002405  aa   377377 377377
    002406  aa   377377 377377     350  	oct	377377377377,377377377377,377377377377,377377377377
    002407  aa   377377 377377
    002410  aa   377377 377377
    002411  aa   377377 377377
    002412  aa   377377 377377     351  	oct	377377377377,377377377377,377377377377,377377377377
    002413  aa   377377 377377
    002414  aa   377377 377377
    002415  aa   377377 377377
    002416  aa   377377 377363     352  	oct	377377377363,377377377377,377377377377,377377377377
    002417  aa   377377 377377
    002420  aa   377377 377377
    002421  aa   377377 377377
    002422  aa   377377 377377     353  	oct	377377377377,377377377377,377377377377,377377377377
    002423  aa   377377 377377
    002424  aa   377377 377377
    002425  aa   377377 377377
    002426  aa   377377 377377     354  	oct	377377377377,377377377377,377377377377,377377377377
    002427  aa   377377 377377
    002430  aa   377377 377377
    002431  aa   377377 377377
    002432  aa   377377 377377     355  	oct	377377377377,377377377377,377377377377,377377377377
    002433  aa   377377 377377
    002434  aa   377377 377377
    002435  aa   377377 377377
    002436  aa   377377 377377     356  	oct	377377377377,377377377377,377377377377,377377377377
    002437  aa   377377 377377
    002440  aa   377377 377377
    002441  aa   377377 377377
    002442  aa   377377 377377     357  	oct	377377377377,377377377377,377377377377,377377377377
    002443  aa   377377 377377
    002444  aa   377377 377377
    002445  aa   377377 377377
    002446  aa   377377 377377     358  	oct	377377377377,377377377377,377377377377,377377377377
    002447  aa   377377 377377
    002450  aa   377377 377377
    002451  aa   377377 377377
    002452  aa   377377 377377     359  	oct	377377377377,377377377377,377377377377,377364377377
    002453  aa   377377 377377
    002454  aa   377377 377377
    002455  aa   377364 377377
    002456  aa   377377 377377     360  	oct	377377377377,377377377377,377377377377,377377377377
    002457  aa   377377 377377
    002460  aa   377377 377377
    002461  aa   377377 377377
    002462  aa   377377 377377     361  	oct	377377377377,377377377377,377377377377,377377377377
    002463  aa   377377 377377
    002464  aa   377377 377377
    002465  aa   377377 377377
    002466  aa   377377 377377     362  	oct	377377377377,377377377377,377377377377,377377377377
    002467  aa   377377 377377
    002470  aa   377377 377377
    002471  aa   377377 377377
    002472  aa   377377 377377     363  	oct	377377377377,377377377377,377377377377,377377377377
    002473  aa   377377 377377
    002474  aa   377377 377377
    002475  aa   377377 377377
    002476  aa   377377 377377     364  	oct	377377377377,377377377377,377377377377,377377377377
    002477  aa   377377 377377
    002500  aa   377377 377377
    002501  aa   377377 377377
    002502  aa   377377 377377     365  	oct	377377377377,377377377377,377377377377,377377377377
    002503  aa   377377 377377
    002504  aa   377377 377377
    002505  aa   377377 377377
    002506  aa   377377 377377     366  	oct	377377377377,377377377377,377377377377,377377377377
    002507  aa   377377 377377
    002510  aa   377377 377377
    002511  aa   377377 377377
    002512  aa   377377 377377     367  	oct	377377377377,377377377377,377377377377,377377377377
    002513  aa   377377 377377
    002514  aa   377377 377377
    002515  aa   377377 377377
    002516  aa   377377 377377     368  	oct	377377377377,364377377377,377377377377,377377377377
    002517  aa   364377 377377
    002520  aa   377377 377377
    002521  aa   377377 377377
    002522  aa   377377 377377     369  	oct	377377377377,377377377377,377377377377,377377377377
    002523  aa   377377 377377
    002524  aa   377377 377377
    002525  aa   377377 377377
    002526  aa   377377 377377     370  	oct	377377377377,377377377377,377377377377,377377377377
    002527  aa   377377 377377
    002530  aa   377377 377377
    002531  aa   377377 377377
    002532  aa   377377 377377     371  	oct	377377377377,377377377377,377377377377,377377377377
    002533  aa   377377 377377
    002534  aa   377377 377377
    002535  aa   377377 377377
    002536  aa   377377 377377     372  	oct	377377377377,377377377377,377377377377,377377377377
    002537  aa   377377 377377
    002540  aa   377377 377377
    002541  aa   377377 377377
    002542  aa   377377 377377     373  	oct	377377377377,377377377377,377377377377,377377377377
    002543  aa   377377 377377
    002544  aa   377377 377377
    002545  aa   377377 377377
    002546  aa   377377 377377     374  	oct	377377377377,377377377377,377377377377,377377377377
    002547  aa   377377 377377
    002550  aa   377377 377377
    002551  aa   377377 377377
    002552  aa   377377 377377     375  	oct	377377377377,377377377377,377377377377,377365377377
    002553  aa   377377 377377
    002554  aa   377377 377377
    002555  aa   377365 377377
    002556  aa   377377 377377     376  	oct	377377377377,377377377377,377377377377,377377377377
    002557  aa   377377 377377
    002560  aa   377377 377377
    002561  aa   377377 377377
    002562  aa   377377 377377     377  	oct	377377377377,377377377377,377377377377,377377377377
    002563  aa   377377 377377
    002564  aa   377377 377377
    002565  aa   377377 377377
    002566  aa   377377 377377     378  	oct	377377377377,377377377377,377377377377,377377377377
    002567  aa   377377 377377
    002570  aa   377377 377377
    002571  aa   377377 377377
    002572  aa   377377 377377     379  	oct	377377377377,377377377377,377377377377,377377377377
    002573  aa   377377 377377
    002574  aa   377377 377377
    002575  aa   377377 377377
    002576  aa   377377 377377     380  	oct	377377377377,377377377377,377377377377,377377377377
    002577  aa   377377 377377
    002600  aa   377377 377377
    002601  aa   377377 377377
    002602  aa   377377 377377     381  	oct	377377377377,377377377377,377377377377,377377377377
    002603  aa   377377 377377
    002604  aa   377377 377377
    002605  aa   377377 377377
    002606  aa   377377 377377     382  	oct	377377377377,377377377377,377377377377,377377377377
    002607  aa   377377 377377
    002610  aa   377377 377377
    002611  aa   377377 377377
    002612  aa   377377 377377     383  	oct	377377377377,377377377377,377377377377,377377377377
    002613  aa   377377 377377
    002614  aa   377377 377377
    002615  aa   377377 377377
    002616  aa   377377 377377     384  	oct	377377377377,377365377377,377377377377,377377377377
    002617  aa   377365 377377
    002620  aa   377377 377377
    002621  aa   377377 377377
    002622  aa   377377 377377     385  	oct	377377377377,377377377377,377377377377,377377377377
    002623  aa   377377 377377
    002624  aa   377377 377377
    002625  aa   377377 377377
    002626  aa   377377 377377     386  	oct	377377377377,377377377377,377377377377,377377377377
    002627  aa   377377 377377
    002630  aa   377377 377377
    002631  aa   377377 377377
    002632  aa   377377 377377     387  	oct	377377377377,377377377377,377377377377,377377377377
    002633  aa   377377 377377
    002634  aa   377377 377377
    002635  aa   377377 377377
    002636  aa   377377 377377     388  	oct	377377377377,377377377377,377377377377,377377377377
    002637  aa   377377 377377
    002640  aa   377377 377377
    002641  aa   377377 377377
    002642  aa   377377 377377     389  	oct	377377377377,377377377377,377377377377,377377377377
    002643  aa   377377 377377
    002644  aa   377377 377377
    002645  aa   377377 377377
    002646  aa   377377 377377     390  	oct	377377377377,377377377377,377377377377,377377377377
    002647  aa   377377 377377
    002650  aa   377377 377377
    002651  aa   377377 377377
    002652  aa   377377 377377     391  	oct	377377377377,377377377377,377377377377,377366377377
    002653  aa   377377 377377
    002654  aa   377377 377377
    002655  aa   377366 377377
    002656  aa   377377 377377     392  	oct	377377377377,377377377377,377377377377,377377377377
    002657  aa   377377 377377
    002660  aa   377377 377377
    002661  aa   377377 377377
    002662  aa   377377 377377     393  	oct	377377377377,377377377377,377377377377,377377377377
    002663  aa   377377 377377
    002664  aa   377377 377377
    002665  aa   377377 377377
    002666  aa   377377 377377     394  	oct	377377377377,377377377377,377377377377,377377377377
    002667  aa   377377 377377
    002670  aa   377377 377377
    002671  aa   377377 377377
    002672  aa   377377 377377     395  	oct	377377377377,377377377377,377377377377,377377377377
    002673  aa   377377 377377
    002674  aa   377377 377377
    002675  aa   377377 377377
    002676  aa   377377 377377     396  	oct	377377377377,377377377377,377377377377,377377377377
    002677  aa   377377 377377
    002700  aa   377377 377377
    002701  aa   377377 377377
    002702  aa   377377 377377     397  	oct	377377377377,377377377377,377377377377,377377377377
    002703  aa   377377 377377
    002704  aa   377377 377377
    002705  aa   377377 377377
    002706  aa   377377 377377     398  	oct	377377377377,377377377377,377377377377,377377377377
    002707  aa   377377 377377
    002710  aa   377377 377377
    002711  aa   377377 377377
    002712  aa   377377 377377     399  	oct	377377377377,377377377377,377377377377,377377377377
    002713  aa   377377 377377
    002714  aa   377377 377377
    002715  aa   377377 377377
    002716  aa   377377 377377     400  	oct	377377377377,377377366377,377377377377,377377377377
    002717  aa   377377 366377
    002720  aa   377377 377377
    002721  aa   377377 377377
    002722  aa   377377 377377     401  	oct	377377377377,377377377377,377377377377,377377377377
    002723  aa   377377 377377
    002724  aa   377377 377377
    002725  aa   377377 377377
    002726  aa   377377 377377     402  	oct	377377377377,377377377377,377377377377,377377377377
    002727  aa   377377 377377
    002730  aa   377377 377377
    002731  aa   377377 377377
    002732  aa   377377 377377     403  	oct	377377377377,377377377377,377377377377,377377377377
    002733  aa   377377 377377
    002734  aa   377377 377377
    002735  aa   377377 377377
    002736  aa   377377 377377     404  	oct	377377377377,377377377377,377377377377,377377377377
    002737  aa   377377 377377
    002740  aa   377377 377377
    002741  aa   377377 377377
    002742  aa   377377 377377     405  	oct	377377377377,377377377377,377377377377,377377377377
    002743  aa   377377 377377
    002744  aa   377377 377377
    002745  aa   377377 377377
    002746  aa   377377 377377     406  	oct	377377377377,377377377377,377377377377,377377377377
    002747  aa   377377 377377
    002750  aa   377377 377377
    002751  aa   377377 377377
    002752  aa   377377 377377     407  	oct	377377377377,377377377377,377377377377,377367377377
    002753  aa   377377 377377
    002754  aa   377377 377377
    002755  aa   377367 377377
    002756  aa   377377 377377     408  	oct	377377377377,377377377377,377377377377,377377377377
    002757  aa   377377 377377
    002760  aa   377377 377377
    002761  aa   377377 377377
    002762  aa   377377 377377     409  	oct	377377377377,377377377377,377377377377,377377377377
    002763  aa   377377 377377
    002764  aa   377377 377377
    002765  aa   377377 377377
    002766  aa   377377 377377     410  	oct	377377377377,377377377377,377377377377,377377377377
    002767  aa   377377 377377
    002770  aa   377377 377377
    002771  aa   377377 377377
    002772  aa   377377 377377     411  	oct	377377377377,377377377377,377377377377,377377377377
    002773  aa   377377 377377
    002774  aa   377377 377377
    002775  aa   377377 377377
    002776  aa   377377 377377     412  	oct	377377377377,377377377377,377377377377,377377377377
    002777  aa   377377 377377
    003000  aa   377377 377377
    003001  aa   377377 377377
    003002  aa   377377 377377     413  	oct	377377377377,377377377377,377377377377,377377377377
    003003  aa   377377 377377
    003004  aa   377377 377377
    003005  aa   377377 377377
    003006  aa   377377 377377     414  	oct	377377377377,377377377377,377377377377,377377377377
    003007  aa   377377 377377
    003010  aa   377377 377377
    003011  aa   377377 377377
    003012  aa   377377 377377     415  	oct	377377377377,377377377377,377377377377,377377377377
    003013  aa   377377 377377
    003014  aa   377377 377377
    003015  aa   377377 377377
    003016  aa   377377 377377     416  	oct	377377377377,377377377367,377377377377,377377377377
    003017  aa   377377 377367
    003020  aa   377377 377377
    003021  aa   377377 377377
    003022  aa   377377 377377     417  	oct	377377377377,377377377377,377377377377,377377377377
    003023  aa   377377 377377
    003024  aa   377377 377377
    003025  aa   377377 377377
    003026  aa   377377 377377     418  	oct	377377377377,377377377377,377377377377,377377377377
    003027  aa   377377 377377
    003030  aa   377377 377377
    003031  aa   377377 377377
    003032  aa   377377 377377     419  	oct	377377377377,377377377377,377377377377,377377377377
    003033  aa   377377 377377
    003034  aa   377377 377377
    003035  aa   377377 377377
    003036  aa   377377 377377     420  	oct	377377377377,377377377377,377377377377,377377377377
    003037  aa   377377 377377
    003040  aa   377377 377377
    003041  aa   377377 377377
    003042  aa   377377 377377     421  	oct	377377377377,377377377377,377377377377,377377377377
    003043  aa   377377 377377
    003044  aa   377377 377377
    003045  aa   377377 377377
    003046  aa   377377 377377     422  	oct	377377377377,377377377377,377377377377,377377377377
    003047  aa   377377 377377
    003050  aa   377377 377377
    003051  aa   377377 377377
    003052  aa   377377 377377     423  	oct	377377377377,377377377377,377377377377,377370377377
    003053  aa   377377 377377
    003054  aa   377377 377377
    003055  aa   377370 377377
    003056  aa   377377 377377     424  	oct	377377377377,377377377377,377377377377,377377377377
    003057  aa   377377 377377
    003060  aa   377377 377377
    003061  aa   377377 377377
    003062  aa   377377 377377     425  	oct	377377377377,377377377377,377377377377,377377377377
    003063  aa   377377 377377
    003064  aa   377377 377377
    003065  aa   377377 377377
    003066  aa   377377 377377     426  	oct	377377377377,377377377377,377377377377,377377377377
    003067  aa   377377 377377
    003070  aa   377377 377377
    003071  aa   377377 377377
    003072  aa   377377 377377     427  	oct	377377377377,377377377377,377377377377,377377377377
    003073  aa   377377 377377
    003074  aa   377377 377377
    003075  aa   377377 377377
    003076  aa   377377 377377     428  	oct	377377377377,377377377377,377377377377,377377377377
    003077  aa   377377 377377
    003100  aa   377377 377377
    003101  aa   377377 377377
    003102  aa   377377 377377     429  	oct	377377377377,377377377377,377377377377,377377377377
    003103  aa   377377 377377
    003104  aa   377377 377377
    003105  aa   377377 377377
    003106  aa   377377 377377     430  	oct	377377377377,377377377377,377377377377,377377377377
    003107  aa   377377 377377
    003110  aa   377377 377377
    003111  aa   377377 377377
    003112  aa   377377 377377     431  	oct	377377377377,377377377377,377377377377,377377377377
    003113  aa   377377 377377
    003114  aa   377377 377377
    003115  aa   377377 377377
    003116  aa   377377 377377     432  	oct	377377377377,377377377377,370377377377,377377377377
    003117  aa   377377 377377
    003120  aa   370377 377377
    003121  aa   377377 377377
    003122  aa   377377 377377     433  	oct	377377377377,377377377377,377377377377,377377377377
    003123  aa   377377 377377
    003124  aa   377377 377377
    003125  aa   377377 377377
    003126  aa   377377 377377     434  	oct	377377377377,377377377377,377377377377,377377377377
    003127  aa   377377 377377
    003130  aa   377377 377377
    003131  aa   377377 377377
    003132  aa   377377 377377     435  	oct	377377377377,377377377377,377377377377,377377377377
    003133  aa   377377 377377
    003134  aa   377377 377377
    003135  aa   377377 377377
    003136  aa   377377 377377     436  	oct	377377377377,377377377377,377377377377,377377377377
    003137  aa   377377 377377
    003140  aa   377377 377377
    003141  aa   377377 377377
    003142  aa   377377 377377     437  	oct	377377377377,377377377377,377377377377,377377377377
    003143  aa   377377 377377
    003144  aa   377377 377377
    003145  aa   377377 377377
    003146  aa   377377 377377     438  	oct	377377377377,377377377377,377377377377,377377377377
    003147  aa   377377 377377
    003150  aa   377377 377377
    003151  aa   377377 377377
    003152  aa   377377 377377     439  	oct	377377377377,377377377377,377377377377,377371377377
    003153  aa   377377 377377
    003154  aa   377377 377377
    003155  aa   377371 377377
    003156  aa   377377 377377     440  	oct	377377377377,377377377377,377377377377,377377377377
    003157  aa   377377 377377
    003160  aa   377377 377377
    003161  aa   377377 377377
    003162  aa   377377 377377     441  	oct	377377377377,377377377377,377377377377,377377377377
    003163  aa   377377 377377
    003164  aa   377377 377377
    003165  aa   377377 377377
    003166  aa   377377 377377     442  	oct	377377377377,377377377377,377377377377,377377377377
    003167  aa   377377 377377
    003170  aa   377377 377377
    003171  aa   377377 377377
    003172  aa   377377 377377     443  	oct	377377377377,377377377377,377377377377,377377377377
    003173  aa   377377 377377
    003174  aa   377377 377377
    003175  aa   377377 377377
    003176  aa   377377 377377     444  	oct	377377377377,377377377377,377377377377,377377377377
    003177  aa   377377 377377
    003200  aa   377377 377377
    003201  aa   377377 377377
    003202  aa   377377 377377     445  	oct	377377377377,377377377377,377377377377,377377377377
    003203  aa   377377 377377
    003204  aa   377377 377377
    003205  aa   377377 377377
    003206  aa   377377 377377     446  	oct	377377377377,377377377377,377377377377,377377377377
    003207  aa   377377 377377
    003210  aa   377377 377377
    003211  aa   377377 377377
    003212  aa   377377 377377     447  	oct	377377377377,377377377377,377377377377,377377377377
    003213  aa   377377 377377
    003214  aa   377377 377377
    003215  aa   377377 377377
    003216  aa   377377 377377     448  	oct	377377377377,377377377377,377371377377,377377377377
    003217  aa   377377 377377
    003220  aa   377371 377377
    003221  aa   377377 377377
    003222  aa   377377 377377     449  	oct	377377377377,377377377377,377377377377,377377377377
    003223  aa   377377 377377
    003224  aa   377377 377377
    003225  aa   377377 377377
    003226  aa   377377 377377     450  	oct	377377377377,377377377377,377377377377,377377377377
    003227  aa   377377 377377
    003230  aa   377377 377377
    003231  aa   377377 377377
    003232  aa   377377 377377     451  	oct	377377377377,377377377377,377377377377,377377377377
    003233  aa   377377 377377
    003234  aa   377377 377377
    003235  aa   377377 377377
    003236  aa   377377 377377     452  	oct	377377377377,377377377377,377377377377,377377377377
    003237  aa   377377 377377
    003240  aa   377377 377377
    003241  aa   377377 377377
    003242  aa   377377 377377     453  	oct	377377377377,377377377377,377377377377,377377377377
    003243  aa   377377 377377
    003244  aa   377377 377377
    003245  aa   377377 377377
    003246  aa   377377 377377     454  	oct	377377377377,377377377377,377377377377,377377377377
    003247  aa   377377 377377
    003250  aa   377377 377377
    003251  aa   377377 377377
    003252  aa   377377 377377     455  	oct	377377377377,377377377377,377377377377,377172377377
    003253  aa   377377 377377
    003254  aa   377377 377377
    003255  aa   377172 377377
    003256  aa   377377 377377     456  	oct	377377377377,377377377377,377377172377,377377377377
    003257  aa   377377 377377
    003260  aa   377377 172377
    003261  aa   377377 377377
    003262  aa   377377 377377     457  	oct	377377377377,377377377377,377377377377,377377377377
    003263  aa   377377 377377
    003264  aa   377377 377377
    003265  aa   377377 377377
    003266  aa   377377 377377     458  	oct	377377377377,377377377377,377377377377,377377377377
    003267  aa   377377 377377
    003270  aa   377377 377377
    003271  aa   377377 377377
    003272  aa   377377 377377     459  	oct	377377377377,377377377377,377377377377,377377377377
    003273  aa   377377 377377
    003274  aa   377377 377377
    003275  aa   377377 377377
    003276  aa   377377 377377     460  	oct	377377377377,377377377377,377377377377,377377377377
    003277  aa   377377 377377
    003300  aa   377377 377377
    003301  aa   377377 377377
    003302  aa   377377 377377     461  	oct	377377377377,377377377377,377377377377,377377377377
    003303  aa   377377 377377
    003304  aa   377377 377377
    003305  aa   377377 377377
    003306  aa   377377 377377     462  	oct	377377377377,377377377377,377377377377,377377377377
    003307  aa   377377 377377
    003310  aa   377377 377377
    003311  aa   377377 377377
    003312  aa   377377 377377     463  	oct	377377377377,377377377377,377377377377,377377377377
    003313  aa   377377 377377
    003314  aa   377377 377377
    003315  aa   377377 377377
    003316  aa   377377 377377     464  	oct	377377377377,377377377377,377377377377,377377377377
    003317  aa   377377 377377
    003320  aa   377377 377377
    003321  aa   377377 377377
    003322  aa   377377 377377     465  	oct	377377377377,377377377377,377377377377,377377377377
    003323  aa   377377 377377
    003324  aa   377377 377377
    003325  aa   377377 377377
    003326  aa   377377 377377     466  	oct	377377377377,377377377377,377377377377,377377377377
    003327  aa   377377 377377
    003330  aa   377377 377377
    003331  aa   377377 377377
    003332  aa   377377 377377     467  	oct	377377377377,377377377377,377377377377,377377377377
    003333  aa   377377 377377
    003334  aa   377377 377377
    003335  aa   377377 377377
    003336  aa   377377 377377     468  	oct	377377377377,377377377377,377377377377,377377377377
    003337  aa   377377 377377
    003340  aa   377377 377377
    003341  aa   377377 377377
    003342  aa   377377 377377     469  	oct	377377377377,377377377377,377377377377,377377377377
    003343  aa   377377 377377
    003344  aa   377377 377377
    003345  aa   377377 377377
    003346  aa   377377 377377     470  	oct	377377377377,377377377377,377377377377,377377136377
    003347  aa   377377 377377
    003350  aa   377377 377377
    003351  aa   377377 136377
    003352  aa   377377 377377     471  	oct	377377377377,377377377377,377377377377,377136377377
    003353  aa   377377 377377
    003354  aa   377377 377377
    003355  aa   377136 377377
    003356  aa   377377 377377     472  	oct	377377377377,377377377377,377377377377,377377377377
    003357  aa   377377 377377
    003360  aa   377377 377377
    003361  aa   377377 377377
    003362  aa   377377 377377     473  	oct	377377377377,377377377377,377377377377,377377377377
    003363  aa   377377 377377
    003364  aa   377377 377377
    003365  aa   377377 377377
    003366  aa   377377 377377     474  	oct	377377377377,377377377377,377377377377,377377377377
    003367  aa   377377 377377
    003370  aa   377377 377377
    003371  aa   377377 377377
    003372  aa   377377 377377     475  	oct	377377377377,377377377377,377377377377,377377377377
    003373  aa   377377 377377
    003374  aa   377377 377377
    003375  aa   377377 377377
    003376  aa   377377 377377     476  	oct	377377377377,377377377377,377377377377,377377377377
    003377  aa   377377 377377
    003400  aa   377377 377377
    003401  aa   377377 377377
    003402  aa   377377 377377     477  	oct	377377377377,377377377377,377377377377,377377377377
    003403  aa   377377 377377
    003404  aa   377377 377377
    003405  aa   377377 377377
    003406  aa   377377 377377     478  	oct	377377377377,377377377377,377377377377,377377377377
    003407  aa   377377 377377
    003410  aa   377377 377377
    003411  aa   377377 377377
    003412  aa   377377 377377     479  	oct	377377377377,377377377377,377377377377,377377377377
    003413  aa   377377 377377
    003414  aa   377377 377377
    003415  aa   377377 377377
    003416  aa   377377 377377     480  	oct	377377377377,377377377377,377377377377,377377377377
    003417  aa   377377 377377
    003420  aa   377377 377377
    003421  aa   377377 377377
    003422  aa   377377 377377     481  	oct	377377377377,377377377377,377377377377,377377377377
    003423  aa   377377 377377
    003424  aa   377377 377377
    003425  aa   377377 377377
    003426  aa   377377 377377     482  	oct	377377377377,377377377377,377377377377,377377377377
    003427  aa   377377 377377
    003430  aa   377377 377377
    003431  aa   377377 377377
    003432  aa   377377 377377     483  	oct	377377377377,377377377377,377377377377,377377377377
    003433  aa   377377 377377
    003434  aa   377377 377377
    003435  aa   377377 377377
    003436  aa   377377 062377     484  	oct	377377062377,377377377377,377377377377,377377377377
    003437  aa   377377 377377
    003440  aa   377377 377377
    003441  aa   377377 377377
    003442  aa   377377 377377     485  	oct	377377377377,377377377377,377377377377,114377377377
    003443  aa   377377 377377
    003444  aa   377377 377377
    003445  aa   114377 377377
    003446  aa   377377 377377     486  	oct	377377377377,377377377377,377377377377,377377377377
    003447  aa   377377 377377
    003450  aa   377377 377377
    003451  aa   377377 377377
    003452  aa   062377 377377     487  	oct	062377377377,377377377377,377377377377,377114377377
    003453  aa   377377 377377
    003454  aa   377377 377377
    003455  aa   377114 377377
    003456  aa   377377 377377     488  	oct	377377377377,377377377377,377377377377,377377214377
    003457  aa   377377 377377
    003460  aa   377377 377377
    003461  aa   377377 214377
    003462  aa   377377 377377     489  	oct	377377377377,377377377377,377377377377,214377377377
    003463  aa   377377 377377
    003464  aa   377377 377377
    003465  aa   214377 377377
    003466  aa   377377 377377     490  	oct	377377377377,377377377377,377377377377,377377377377
    003467  aa   377377 377377
    003470  aa   377377 377377
    003471  aa   377377 377377
    003472  aa   377377 377377     491  	oct	377377377377,377377377377,377377377377,377377377377
    003473  aa   377377 377377
    003474  aa   377377 377377
    003475  aa   377377 377377
    003476  aa   377377 377377     492  	oct	377377377377,377377377377,377377377377,377377377377
    003477  aa   377377 377377
    003500  aa   377377 377377
    003501  aa   377377 377377
    003502  aa   377377 377377     493  	oct	377377377377,377377377377,377377377377,377377377377
    003503  aa   377377 377377
    003504  aa   377377 377377
    003505  aa   377377 377377
    003506  aa   377377 377377     494  	oct	377377377377,377377377377,377377377377,377377377377
    003507  aa   377377 377377
    003510  aa   377377 377377
    003511  aa   377377 377377
    003512  aa   377377 377377     495  	oct	377377377377,377377377377,377377377377,377377377377
    003513  aa   377377 377377
    003514  aa   377377 377377
    003515  aa   377377 377377
    003516  aa   377377 377377     496  	oct	377377377377,377377377377,377377377377,377377377377
    003517  aa   377377 377377
    003520  aa   377377 377377
    003521  aa   377377 377377
    003522  aa   377377 377377     497  	oct	377377377377,377377377007,377377377377,377377377377
    003523  aa   377377 377007
    003524  aa   377377 377377
    003525  aa   377377 377377
    003526  aa   377377 377377     498  	oct	377377377377,377377377377,377377377377,377377377377
    003527  aa   377377 377377
    003530  aa   377377 377377
    003531  aa   377377 377377
    003532  aa   377377 377377     499  	oct	377377377377,377377377377,377377377377,377377377377
    003533  aa   377377 377377
    003534  aa   377377 377377
    003535  aa   377377 377377
    003536  aa   377377 377377     500  	oct	377377377377,377377377377,377377377377,377377377377
    003537  aa   377377 377377
    003540  aa   377377 377377
    003541  aa   377377 377377
    003542  aa   377377 377377     501  	oct	377377377377,377377377377,377377377377,214377377276
    003543  aa   377377 377377
    003544  aa   377377 377377
    003545  aa   214377 377276
    003546  aa   377377 377377     502  	oct	377377377377,377377377377,377377377377,377377377377
    003547  aa   377377 377377
    003550  aa   377377 377377
    003551  aa   377377 377377
    003552  aa   007377 377377     503  	oct	007377377377,377377377377,377377377377,377176256377
    003553  aa   377377 377377
    003554  aa   377377 377377
    003555  aa   377176 256377
    003556  aa   377377 377377     504  	oct	377377377377,377377377377,377377377377,377377176377
    003557  aa   377377 377377
    003560  aa   377377 377377
    003561  aa   377377 176377
    003562  aa   377377 377377     505  	oct	377377377377,377377377377,377377377377,214377377377
    003563  aa   377377 377377
    003564  aa   377377 377377
    003565  aa   214377 377377
    003566  aa   377377 377377     506  	oct	377377377377,377377377377,377377377377,377377377377
    003567  aa   377377 377377
    003570  aa   377377 377377
    003571  aa   377377 377377
    003572  aa   377377 377377     507  	oct	377377377377,377377377377,377377377377,377377256377
    003573  aa   377377 377377
    003574  aa   377377 377377
    003575  aa   377377 256377
    003576  aa   377377 377377     508  	oct	377377377377,377377377377,377377377377,377377276377
    003577  aa   377377 377377
    003600  aa   377377 377377
    003601  aa   377377 276377
    003602  aa   377377 377377     509  	oct	377377377377,377377377377,377377377377,377377377377
    003603  aa   377377 377377
    003604  aa   377377 377377
    003605  aa   377377 377377
    003606  aa   377377 377377     510  	oct	377377377377,377377377377,377377377377,377377377377
    003607  aa   377377 377377
    003610  aa   377377 377377
    003611  aa   377377 377377
    003612  aa   377377 377377     511  	oct	377377377377,377377377377,377377377377,377377377377
    003613  aa   377377 377377
    003614  aa   377377 377377
    003615  aa   377377 377377
    003616  aa   377377 377377     512  	oct	377377377377,377377377377,377377377377,377377377377
    003617  aa   377377 377377
    003620  aa   377377 377377
    003621  aa   377377 377377
    003622  aa   377377 377377     513  	oct	377377377377,377377377377,377377377377,377377377377
    003623  aa   377377 377377
    003624  aa   377377 377377
    003625  aa   377377 377377
    003626  aa   377377 377377     514  	oct	377377377377,377377377377,377377377377,377377377377
    003627  aa   377377 377377
    003630  aa   377377 377377
    003631  aa   377377 377377
    003632  aa   377377 377377     515  	oct	377377377377,377377377377,377377377377,377377377377
    003633  aa   377377 377377
    003634  aa   377377 377377
    003635  aa   377377 377377
    003636  aa   377377 377377     516  	oct	377377377377,377377377377,377377377377,377377377377
    003637  aa   377377 377377
    003640  aa   377377 377377
    003641  aa   377377 377377
    003642  aa   377377 377377     517  	oct	377377377377,377377377377,377377377377,377377377377
    003643  aa   377377 377377
    003644  aa   377377 377377
    003645  aa   377377 377377
    003646  aa   377377 377377     518  	oct	377377377377,377377377377,377377377377,377377377377
    003647  aa   377377 377377
    003650  aa   377377 377377
    003651  aa   377377 377377
    003652  aa   377377 377377     519  	oct	377377377377,377377377377,377377377377,377156156377
    003653  aa   377377 377377
    003654  aa   377377 377377
    003655  aa   377156 156377
    003656  aa   377377 377377     520  	oct	377377377377,377377377377,377377377377,377377256377
    003657  aa   377377 377377
    003660  aa   377377 377377
    003661  aa   377377 256377
    003662  aa   377377 377377     521  	oct	377377377377,377377377377,377377377377,377377377377
    003663  aa   377377 377377
    003664  aa   377377 377377
    003665  aa   377377 377377
    003666  aa   377377 377377     522  	oct	377377377377,377377377377,377377377377,377377377377
    003667  aa   377377 377377
    003670  aa   377377 377377
    003671  aa   377377 377377
    003672  aa   377377 377377     523  	oct	377377377377,377377377377,377377377377,377377256377
    003673  aa   377377 377377
    003674  aa   377377 377377
    003675  aa   377377 256377
    003676  aa   377377 377377     524  	oct	377377377377,377377377377,377377377377,377377377377
    003677  aa   377377 377377
    003700  aa   377377 377377
    003701  aa   377377 377377
    003702  aa   377377 377377     525  	oct	377377377377,377377377377,377377377377,377377377377
    003703  aa   377377 377377
    003704  aa   377377 377377
    003705  aa   377377 377377
    003706  aa   377377 377377     526  	oct	377377377377,377377377377,377377377377,377377377377
    003707  aa   377377 377377
    003710  aa   377377 377377
    003711  aa   377377 377377
    003712  aa   377377 377377     527  	oct	377377377377,377377377377,377377377377,377377377377
    003713  aa   377377 377377
    003714  aa   377377 377377
    003715  aa   377377 377377
    003716  aa   377377 377377     528  	oct	377377377377,377377377377,377377377377,377377377377
    003717  aa   377377 377377
    003720  aa   377377 377377
    003721  aa   377377 377377
    003722  aa   377377 377377     529  	oct	377377377377,377377377377,377377377377,377377377377
    003723  aa   377377 377377
    003724  aa   377377 377377
    003725  aa   377377 377377
    003726  aa   377377 377377     530  	oct	377377377377,377377377377,377377377377,377377377377
    003727  aa   377377 377377
    003730  aa   377377 377377
    003731  aa   377377 377377
    003732  aa   377377 377377     531  	oct	377377377377,377377377377,377377377377,377377377377
    003733  aa   377377 377377
    003734  aa   377377 377377
    003735  aa   377377 377377
    003736  aa   377377 377377     532  	oct	377377377377,377377377377,377377377377,377377377377
    003737  aa   377377 377377
    003740  aa   377377 377377
    003741  aa   377377 377377
    003742  aa   377377 377377     533  	oct	377377377377,377377377377,377377377377,377377377377
    003743  aa   377377 377377
    003744  aa   377377 377377
    003745  aa   377377 377377
    003746  aa   377377 377377     534  	oct	377377377377,377377377377,377377377377,377377377377
    003747  aa   377377 377377
    003750  aa   377377 377377
    003751  aa   377377 377377
    003752  aa   377377 377377     535  	oct	377377377377,377377377377,377377377377,377157377157
    003753  aa   377377 377377
    003754  aa   377377 377377
    003755  aa   377157 377157
    003756  aa   377377 377377     536  	oct	377377377377,377377377377,377377377377,377377377377
    003757  aa   377377 377377
    003760  aa   377377 377377
    003761  aa   377377 377377
    003762  aa   377377 377377     537  	oct	377377377377,377377377377,377377377377,377377377377
    003763  aa   377377 377377
    003764  aa   377377 377377
    003765  aa   377377 377377
    003766  aa   377377 377377     538  	oct	377377377377,377377377377,377377377377,377377377377
    003767  aa   377377 377377
    003770  aa   377377 377377
    003771  aa   377377 377377
    003772  aa   377377 377377     539  	oct	377377377377,377377377377,377377377377,377377377377
    003773  aa   377377 377377
    003774  aa   377377 377377
    003775  aa   377377 377377
    003776  aa   377377 377377     540  	oct	377377377377,377377377377,377377377377,377377377377
    003777  aa   377377 377377
    004000  aa   377377 377377
    004001  aa   377377 377377
    004002  aa   377377 377377     541  	oct	377377377377,377377377377,377377377377,377377377377
    004003  aa   377377 377377
    004004  aa   377377 377377
    004005  aa   377377 377377
    004006  aa   377377 377377     542  	oct	377377377377,377377377377,377377377377,377377377377
    004007  aa   377377 377377
    004010  aa   377377 377377
    004011  aa   377377 377377
    004012  aa   377377 377377     543  	oct	377377377377,377377377377,377377377377,377377377377
    004013  aa   377377 377377
    004014  aa   377377 377377
    004015  aa   377377 377377
    004016  aa   377377 377377     544  	oct	377377377377,377377377377,377377377377,377377377377
    004017  aa   377377 377377
    004020  aa   377377 377377
    004021  aa   377377 377377
    004022  aa   377377 377377     545  	oct	377377377377,377377377377,377377377377,377377377377
    004023  aa   377377 377377
    004024  aa   377377 377377
    004025  aa   377377 377377
    004026  aa   377377 377377     546  	oct	377377377377,377377377377,377377377377,377377377377
    004027  aa   377377 377377
    004030  aa   377377 377377
    004031  aa   377377 377377
    004032  aa   377377 377377     547  	oct	377377377377,377377377377,377377377377,377377377377
    004033  aa   377377 377377
    004034  aa   377377 377377
    004035  aa   377377 377377
    004036  aa   377377 377377     548  	oct	377377377377,377377377377,377377377377,377377377377
    004037  aa   377377 377377
    004040  aa   377377 377377
    004041  aa   377377 377377
    004042  aa   377377 377377     549  	oct	377377377377,377377377377,377377377377,377377377377
    004043  aa   377377 377377
    004044  aa   377377 377377
    004045  aa   377377 377377
    004046  aa   377377 377377     550  	oct	377377377377,377377377377,377377377377,377377377377
    004047  aa   377377 377377
    004050  aa   377377 377377
    004051  aa   377377 377377
    004052  aa   377377 377377     551  	oct	377377377377,377377377377,377377377377,377174377377
    004053  aa   377377 377377
    004054  aa   377377 377377
    004055  aa   377174 377377
    004056  aa   377377 377377     552  	oct	377377377377,377377377377,377377377377,174377377377
    004057  aa   377377 377377
    004060  aa   377377 377377
    004061  aa   174377 377377
    004062  aa   377377 377377     553  	oct	377377377377,377377377377,377377377377,377377377377
    004063  aa   377377 377377
    004064  aa   377377 377377
    004065  aa   377377 377377
    004066  aa   377377 377377     554  	oct	377377377377,377377377377,377377377377,377377377377
    004067  aa   377377 377377
    004070  aa   377377 377377
    004071  aa   377377 377377
    004072  aa   377377 377377     555  	oct	377377377377,377377377377,377377377377,377377377377
    004073  aa   377377 377377
    004074  aa   377377 377377
    004075  aa   377377 377377
    004076  aa   377377 377377     556  	oct	377377377377,377377377377,377377377377,377377377377
    004077  aa   377377 377377
    004100  aa   377377 377377
    004101  aa   377377 377377
    004102  aa   377377 377377     557  	oct	377377377377,377377377377,377377377377,377377377377
    004103  aa   377377 377377
    004104  aa   377377 377377
    004105  aa   377377 377377
    004106  aa   377377 377377     558  	oct	377377377377,377377377377,377377377377,377377377377
    004107  aa   377377 377377
    004110  aa   377377 377377
    004111  aa   377377 377377
    004112  aa   377377 377377     559  	oct	377377377377,377377377377,377377377377,377377377377
    004113  aa   377377 377377
    004114  aa   377377 377377
    004115  aa   377377 377377
    004116  aa   377377 377377     560  	oct	377377377377,377377377377,377377377377,377377377377
    004117  aa   377377 377377
    004120  aa   377377 377377
    004121  aa   377377 377377
    004122  aa   377377 377377     561  	oct	377377377377,377377377377,377377377377,377377377377
    004123  aa   377377 377377
    004124  aa   377377 377377
    004125  aa   377377 377377
    004126  aa   377377 377377     562  	oct	377377377377,377377377377,377377377377,377377377377
    004127  aa   377377 377377
    004130  aa   377377 377377
    004131  aa   377377 377377
    004132  aa   377377 377377     563  	oct	377377377377,377377377377,377377377377,377377377377
    004133  aa   377377 377377
    004134  aa   377377 377377
    004135  aa   377377 377377
    004136  aa   377377 377377     564  	oct	377377377377,377377377377,377377377377,377377377377
    004137  aa   377377 377377
    004140  aa   377377 377377
    004141  aa   377377 377377
    004142  aa   377377 377377     565  	oct	377377377377,377377377377,377377377377,377377377377
    004143  aa   377377 377377
    004144  aa   377377 377377
    004145  aa   377377 377377
    004146  aa   377377 377377     566  	oct	377377377377,377377377377,377377377377,377377377377
    004147  aa   377377 377377
    004150  aa   377377 377377
    004151  aa   377377 377377
    004152  aa   377377 377377     567  	oct	377377377377,377377377377,377377377377,377301377377
    004153  aa   377377 377377
    004154  aa   377377 377377
    004155  aa   377301 377377
    004156  aa   377377 377377     568  	oct	377377377377,377377377377,377377377377,377377377377
    004157  aa   377377 377377
    004160  aa   377377 377377
    004161  aa   377377 377377
    004162  aa   377377 377377     569  	oct	377377377377,377377377377,377377377377,377377377377
    004163  aa   377377 377377
    004164  aa   377377 377377
    004165  aa   377377 377377
    004166  aa   377377 377377     570  	oct	377377377377,377377377377,377377377377,377377377377
    004167  aa   377377 377377
    004170  aa   377377 377377
    004171  aa   377377 377377
    004172  aa   377377 377377     571  	oct	377377377377,377377377377,377377377377,377377377377
    004173  aa   377377 377377
    004174  aa   377377 377377
    004175  aa   377377 377377
    004176  aa   377377 377377     572  	oct	377377377377,377377377377,377377377377,377377377377
    004177  aa   377377 377377
    004200  aa   377377 377377
    004201  aa   377377 377377
    004202  aa   377301 377377     573  	oct	377301377377,377377377377,377377377377,377377377377
    004203  aa   377377 377377
    004204  aa   377377 377377
    004205  aa   377377 377377
    004206  aa   377377 377377     574  	oct	377377377377,377377377377,377377377377,377377377377
    004207  aa   377377 377377
    004210  aa   377377 377377
    004211  aa   377377 377377
    004212  aa   377377 377377     575  	oct	377377377377,377377377377,377377377377,377377377377
    004213  aa   377377 377377
    004214  aa   377377 377377
    004215  aa   377377 377377
    004216  aa   377377 377377     576  	oct	377377377377,377377377377,377377377377,377377377377
    004217  aa   377377 377377
    004220  aa   377377 377377
    004221  aa   377377 377377
    004222  aa   377377 377377     577  	oct	377377377377,377377377377,377377377377,377377377377
    004223  aa   377377 377377
    004224  aa   377377 377377
    004225  aa   377377 377377
    004226  aa   377377 377377     578  	oct	377377377377,377377377377,377377377377,377377377377
    004227  aa   377377 377377
    004230  aa   377377 377377
    004231  aa   377377 377377
    004232  aa   377377 377377     579  	oct	377377377377,377377377377,377377377377,377377377377
    004233  aa   377377 377377
    004234  aa   377377 377377
    004235  aa   377377 377377
    004236  aa   377377 377377     580  	oct	377377377377,377377377377,377377377377,377377377377
    004237  aa   377377 377377
    004240  aa   377377 377377
    004241  aa   377377 377377
    004242  aa   377377 377377     581  	oct	377377377377,377377377377,377377377377,377377377377
    004243  aa   377377 377377
    004244  aa   377377 377377
    004245  aa   377377 377377
    004246  aa   377377 377377     582  	oct	377377377377,377377377377,377377377377,377377377377
    004247  aa   377377 377377
    004250  aa   377377 377377
    004251  aa   377377 377377
    004252  aa   377377 377377     583  	oct	377377377377,377377377377,377377377377,377302377377
    004253  aa   377377 377377
    004254  aa   377377 377377
    004255  aa   377302 377377
    004256  aa   377377 377377     584  	oct	377377377377,377377377377,377377377377,377377377377
    004257  aa   377377 377377
    004260  aa   377377 377377
    004261  aa   377377 377377
    004262  aa   377377 377377     585  	oct	377377377377,377377377377,377377377377,377377377377
    004263  aa   377377 377377
    004264  aa   377377 377377
    004265  aa   377377 377377
    004266  aa   377377 377377     586  	oct	377377377377,377377377377,377377377377,377377377377
    004267  aa   377377 377377
    004270  aa   377377 377377
    004271  aa   377377 377377
    004272  aa   377377 377377     587  	oct	377377377377,377377377377,377377377377,377377377377
    004273  aa   377377 377377
    004274  aa   377377 377377
    004275  aa   377377 377377
    004276  aa   377377 377377     588  	oct	377377377377,377377377377,377377377377,377377377377
    004277  aa   377377 377377
    004300  aa   377377 377377
    004301  aa   377377 377377
    004302  aa   377377 302377     589  	oct	377377302377,377377377377,377377377377,377377377377
    004303  aa   377377 377377
    004304  aa   377377 377377
    004305  aa   377377 377377
    004306  aa   377377 377377     590  	oct	377377377377,377377377377,377377377377,377377377377
    004307  aa   377377 377377
    004310  aa   377377 377377
    004311  aa   377377 377377
    004312  aa   377377 377377     591  	oct	377377377377,377377377377,377377377377,377377377377
    004313  aa   377377 377377
    004314  aa   377377 377377
    004315  aa   377377 377377
    004316  aa   377377 377377     592  	oct	377377377377,377377377377,377377377377,377377377377
    004317  aa   377377 377377
    004320  aa   377377 377377
    004321  aa   377377 377377
    004322  aa   377377 377377     593  	oct	377377377377,377377377377,377377377377,377377377377
    004323  aa   377377 377377
    004324  aa   377377 377377
    004325  aa   377377 377377
    004326  aa   377377 377377     594  	oct	377377377377,377377377377,377377377377,377377377377
    004327  aa   377377 377377
    004330  aa   377377 377377
    004331  aa   377377 377377
    004332  aa   377377 377377     595  	oct	377377377377,377377377377,377377377377,377377377377
    004333  aa   377377 377377
    004334  aa   377377 377377
    004335  aa   377377 377377
    004336  aa   377377 377377     596  	oct	377377377377,377377377377,377377377377,377377377377
    004337  aa   377377 377377
    004340  aa   377377 377377
    004341  aa   377377 377377
    004342  aa   377377 377377     597  	oct	377377377377,377377377377,377377377377,377377377377
    004343  aa   377377 377377
    004344  aa   377377 377377
    004345  aa   377377 377377
    004346  aa   377377 377377     598  	oct	377377377377,377377377377,377377377377,377377377377
    004347  aa   377377 377377
    004350  aa   377377 377377
    004351  aa   377377 377377
    004352  aa   377377 377377     599  	oct	377377377377,377377377377,377377377377,377303377377
    004353  aa   377377 377377
    004354  aa   377377 377377
    004355  aa   377303 377377
    004356  aa   377377 377377     600  	oct	377377377377,377377377377,377377377377,377377377377
    004357  aa   377377 377377
    004360  aa   377377 377377
    004361  aa   377377 377377
    004362  aa   377377 377377     601  	oct	377377377377,377377377377,377377377377,377377377377
    004363  aa   377377 377377
    004364  aa   377377 377377
    004365  aa   377377 377377
    004366  aa   377377 377377     602  	oct	377377377377,377377377377,377377377377,377377377377
    004367  aa   377377 377377
    004370  aa   377377 377377
    004371  aa   377377 377377
    004372  aa   377377 377377     603  	oct	377377377377,377377377377,377377377377,377377377377
    004373  aa   377377 377377
    004374  aa   377377 377377
    004375  aa   377377 377377
    004376  aa   377377 377377     604  	oct	377377377377,377377377377,377377377377,377377377377
    004377  aa   377377 377377
    004400  aa   377377 377377
    004401  aa   377377 377377
    004402  aa   377377 377303     605  	oct	377377377303,377377377377,377377377377,377377377377
    004403  aa   377377 377377
    004404  aa   377377 377377
    004405  aa   377377 377377
    004406  aa   377377 377377     606  	oct	377377377377,377377377377,377377377377,377377377377
    004407  aa   377377 377377
    004410  aa   377377 377377
    004411  aa   377377 377377
    004412  aa   377377 377377     607  	oct	377377377377,377377377377,377377377377,377377377377
    004413  aa   377377 377377
    004414  aa   377377 377377
    004415  aa   377377 377377
    004416  aa   377377 377377     608  	oct	377377377377,377377377377,377377377377,377377377377
    004417  aa   377377 377377
    004420  aa   377377 377377
    004421  aa   377377 377377
    004422  aa   377377 377377     609  	oct	377377377377,377377377377,377377377377,377377377377
    004423  aa   377377 377377
    004424  aa   377377 377377
    004425  aa   377377 377377
    004426  aa   377377 377377     610  	oct	377377377377,377377377377,377377377377,377377377377
    004427  aa   377377 377377
    004430  aa   377377 377377
    004431  aa   377377 377377
    004432  aa   377377 377377     611  	oct	377377377377,377377377377,377377377377,377377377377
    004433  aa   377377 377377
    004434  aa   377377 377377
    004435  aa   377377 377377
    004436  aa   377377 377377     612  	oct	377377377377,377377377377,377377377377,377377377377
    004437  aa   377377 377377
    004440  aa   377377 377377
    004441  aa   377377 377377
    004442  aa   377377 377377     613  	oct	377377377377,377377377377,377377377377,377377377377
    004443  aa   377377 377377
    004444  aa   377377 377377
    004445  aa   377377 377377
    004446  aa   377377 377377     614  	oct	377377377377,377377377377,377377377377,377377377377
    004447  aa   377377 377377
    004450  aa   377377 377377
    004451  aa   377377 377377
    004452  aa   377377 377377     615  	oct	377377377377,377377377377,377377377377,377304377377
    004453  aa   377377 377377
    004454  aa   377377 377377
    004455  aa   377304 377377
    004456  aa   377377 377377     616  	oct	377377377377,377377377377,377377377377,377377377377
    004457  aa   377377 377377
    004460  aa   377377 377377
    004461  aa   377377 377377
    004462  aa   377377 377377     617  	oct	377377377377,377377377377,377377377377,377377377377
    004463  aa   377377 377377
    004464  aa   377377 377377
    004465  aa   377377 377377
    004466  aa   377377 377377     618  	oct	377377377377,377377377377,377377377377,377377377377
    004467  aa   377377 377377
    004470  aa   377377 377377
    004471  aa   377377 377377
    004472  aa   377377 377377     619  	oct	377377377377,377377377377,377377377377,377377377377
    004473  aa   377377 377377
    004474  aa   377377 377377
    004475  aa   377377 377377
    004476  aa   377377 377377     620  	oct	377377377377,377377377377,377377377377,377377377377
    004477  aa   377377 377377
    004500  aa   377377 377377
    004501  aa   377377 377377
    004502  aa   377377 377377     621  	oct	377377377377,304377377377,377377377377,377377377377
    004503  aa   304377 377377
    004504  aa   377377 377377
    004505  aa   377377 377377
    004506  aa   377377 377377     622  	oct	377377377377,377377377377,377377377377,377377377377
    004507  aa   377377 377377
    004510  aa   377377 377377
    004511  aa   377377 377377
    004512  aa   377377 377377     623  	oct	377377377377,377377377377,377377377377,377377377377
    004513  aa   377377 377377
    004514  aa   377377 377377
    004515  aa   377377 377377
    004516  aa   377377 377377     624  	oct	377377377377,377377377377,377377377377,377377377377
    004517  aa   377377 377377
    004520  aa   377377 377377
    004521  aa   377377 377377
    004522  aa   377377 377377     625  	oct	377377377377,377377377377,377377377377,377377377377
    004523  aa   377377 377377
    004524  aa   377377 377377
    004525  aa   377377 377377
    004526  aa   377377 377377     626  	oct	377377377377,377377377377,377377377377,377377377377
    004527  aa   377377 377377
    004530  aa   377377 377377
    004531  aa   377377 377377
    004532  aa   377377 377377     627  	oct	377377377377,377377377377,377377377377,377377377377
    004533  aa   377377 377377
    004534  aa   377377 377377
    004535  aa   377377 377377
    004536  aa   377377 377377     628  	oct	377377377377,377377377377,377377377377,377377377377
    004537  aa   377377 377377
    004540  aa   377377 377377
    004541  aa   377377 377377
    004542  aa   377377 377377     629  	oct	377377377377,377377377377,377377377377,377377377377
    004543  aa   377377 377377
    004544  aa   377377 377377
    004545  aa   377377 377377
    004546  aa   377377 377377     630  	oct	377377377377,377377377377,377377377377,377377377377
    004547  aa   377377 377377
    004550  aa   377377 377377
    004551  aa   377377 377377
    004552  aa   377377 377377     631  	oct	377377377377,377377377377,377377377377,377305377377
    004553  aa   377377 377377
    004554  aa   377377 377377
    004555  aa   377305 377377
    004556  aa   377377 377377     632  	oct	377377377377,377377377377,377377377377,377377377377
    004557  aa   377377 377377
    004560  aa   377377 377377
    004561  aa   377377 377377
    004562  aa   377377 377377     633  	oct	377377377377,377377377377,377377377377,377377377377
    004563  aa   377377 377377
    004564  aa   377377 377377
    004565  aa   377377 377377
    004566  aa   377377 377377     634  	oct	377377377377,377377377377,377377377377,377377377377
    004567  aa   377377 377377
    004570  aa   377377 377377
    004571  aa   377377 377377
    004572  aa   377377 377377     635  	oct	377377377377,377377377377,377377377377,377377377377
    004573  aa   377377 377377
    004574  aa   377377 377377
    004575  aa   377377 377377
    004576  aa   377377 377377     636  	oct	377377377377,377377377377,377377377377,377377377377
    004577  aa   377377 377377
    004600  aa   377377 377377
    004601  aa   377377 377377
    004602  aa   377377 377377     637  	oct	377377377377,377305377377,377377377377,377377377377
    004603  aa   377305 377377
    004604  aa   377377 377377
    004605  aa   377377 377377
    004606  aa   377377 377377     638  	oct	377377377377,377377377377,377377377377,377377377377
    004607  aa   377377 377377
    004610  aa   377377 377377
    004611  aa   377377 377377
    004612  aa   377377 377377     639  	oct	377377377377,377377377377,377377377377,377377377377
    004613  aa   377377 377377
    004614  aa   377377 377377
    004615  aa   377377 377377
    004616  aa   377377 377377     640  	oct	377377377377,377377377377,377377377377,377377377377
    004617  aa   377377 377377
    004620  aa   377377 377377
    004621  aa   377377 377377
    004622  aa   377377 377377     641  	oct	377377377377,377377377377,377377377377,377377377377
    004623  aa   377377 377377
    004624  aa   377377 377377
    004625  aa   377377 377377
    004626  aa   377377 377377     642  	oct	377377377377,377377377377,377377377377,377377377377
    004627  aa   377377 377377
    004630  aa   377377 377377
    004631  aa   377377 377377
    004632  aa   377377 377377     643  	oct	377377377377,377377377377,377377377377,377377377377
    004633  aa   377377 377377
    004634  aa   377377 377377
    004635  aa   377377 377377
    004636  aa   377377 377377     644  	oct	377377377377,377377377377,377377377377,377377377377
    004637  aa   377377 377377
    004640  aa   377377 377377
    004641  aa   377377 377377
    004642  aa   377377 377377     645  	oct	377377377377,377377377377,377377377377,377377377377
    004643  aa   377377 377377
    004644  aa   377377 377377
    004645  aa   377377 377377
    004646  aa   377377 377377     646  	oct	377377377377,377377377377,377377377377,377377377377
    004647  aa   377377 377377
    004650  aa   377377 377377
    004651  aa   377377 377377
    004652  aa   377377 377377     647  	oct	377377377377,377377377377,377377377377,377306377377
    004653  aa   377377 377377
    004654  aa   377377 377377
    004655  aa   377306 377377
    004656  aa   377377 377377     648  	oct	377377377377,377377377377,377377377377,377377377377
    004657  aa   377377 377377
    004660  aa   377377 377377
    004661  aa   377377 377377
    004662  aa   377377 377377     649  	oct	377377377377,377377377377,377377377377,377377377377
    004663  aa   377377 377377
    004664  aa   377377 377377
    004665  aa   377377 377377
    004666  aa   377377 377377     650  	oct	377377377377,377377377377,377377377377,377377377377
    004667  aa   377377 377377
    004670  aa   377377 377377
    004671  aa   377377 377377
    004672  aa   377377 377377     651  	oct	377377377377,377377377377,377377377377,377377377377
    004673  aa   377377 377377
    004674  aa   377377 377377
    004675  aa   377377 377377
    004676  aa   377377 377377     652  	oct	377377377377,377377377377,377377377377,377377377377
    004677  aa   377377 377377
    004700  aa   377377 377377
    004701  aa   377377 377377
    004702  aa   377377 377377     653  	oct	377377377377,377377306377,377377377377,377377377377
    004703  aa   377377 306377
    004704  aa   377377 377377
    004705  aa   377377 377377
    004706  aa   377377 377377     654  	oct	377377377377,377377377377,377377377377,377377377377
    004707  aa   377377 377377
    004710  aa   377377 377377
    004711  aa   377377 377377
    004712  aa   377377 377377     655  	oct	377377377377,377377377377,377377377377,377377377377
    004713  aa   377377 377377
    004714  aa   377377 377377
    004715  aa   377377 377377
    004716  aa   377377 377377     656  	oct	377377377377,377377377377,377377377377,377377377377
    004717  aa   377377 377377
    004720  aa   377377 377377
    004721  aa   377377 377377
    004722  aa   377377 377377     657  	oct	377377377377,377377377377,377377377377,377377377377
    004723  aa   377377 377377
    004724  aa   377377 377377
    004725  aa   377377 377377
    004726  aa   377377 377377     658  	oct	377377377377,377377377377,377377377377,377377377377
    004727  aa   377377 377377
    004730  aa   377377 377377
    004731  aa   377377 377377
    004732  aa   377377 377377     659  	oct	377377377377,377377377377,377377377377,377377377377
    004733  aa   377377 377377
    004734  aa   377377 377377
    004735  aa   377377 377377
    004736  aa   377377 377377     660  	oct	377377377377,377377377377,377377377377,377377377377
    004737  aa   377377 377377
    004740  aa   377377 377377
    004741  aa   377377 377377
    004742  aa   377377 377377     661  	oct	377377377377,377377377377,377377377377,377377377377
    004743  aa   377377 377377
    004744  aa   377377 377377
    004745  aa   377377 377377
    004746  aa   377377 377377     662  	oct	377377377377,377377377377,377377377377,377377377377
    004747  aa   377377 377377
    004750  aa   377377 377377
    004751  aa   377377 377377
    004752  aa   377377 377377     663  	oct	377377377377,377377377377,377377377377,377307377377
    004753  aa   377377 377377
    004754  aa   377377 377377
    004755  aa   377307 377377
    004756  aa   377377 377377     664  	oct	377377377377,377377377377,377377377377,377377377377
    004757  aa   377377 377377
    004760  aa   377377 377377
    004761  aa   377377 377377
    004762  aa   377377 377377     665  	oct	377377377377,377377377377,377377377377,377377377377
    004763  aa   377377 377377
    004764  aa   377377 377377
    004765  aa   377377 377377
    004766  aa   377377 377377     666  	oct	377377377377,377377377377,377377377377,377377377377
    004767  aa   377377 377377
    004770  aa   377377 377377
    004771  aa   377377 377377
    004772  aa   377377 377377     667  	oct	377377377377,377377377377,377377377377,377377377377
    004773  aa   377377 377377
    004774  aa   377377 377377
    004775  aa   377377 377377
    004776  aa   377377 377377     668  	oct	377377377377,377377377377,377377377377,377377377377
    004777  aa   377377 377377
    005000  aa   377377 377377
    005001  aa   377377 377377
    005002  aa   377377 377377     669  	oct	377377377377,377377377307,377377377377,377377377377
    005003  aa   377377 377307
    005004  aa   377377 377377
    005005  aa   377377 377377
    005006  aa   377377 377377     670  	oct	377377377377,377377377377,377377377377,377377377377
    005007  aa   377377 377377
    005010  aa   377377 377377
    005011  aa   377377 377377
    005012  aa   377377 377377     671  	oct	377377377377,377377377377,377377377377,377377377377
    005013  aa   377377 377377
    005014  aa   377377 377377
    005015  aa   377377 377377
    005016  aa   377377 377377     672  	oct	377377377377,377377377377,377377377377,377377377377
    005017  aa   377377 377377
    005020  aa   377377 377377
    005021  aa   377377 377377
    005022  aa   377377 377377     673  	oct	377377377377,377377377377,377377377377,377377377377
    005023  aa   377377 377377
    005024  aa   377377 377377
    005025  aa   377377 377377
    005026  aa   377377 377377     674  	oct	377377377377,377377377377,377377377377,377377377377
    005027  aa   377377 377377
    005030  aa   377377 377377
    005031  aa   377377 377377
    005032  aa   377377 377377     675  	oct	377377377377,377377377377,377377377377,377377377377
    005033  aa   377377 377377
    005034  aa   377377 377377
    005035  aa   377377 377377
    005036  aa   377377 377377     676  	oct	377377377377,377377377377,377377377377,377377377377
    005037  aa   377377 377377
    005040  aa   377377 377377
    005041  aa   377377 377377
    005042  aa   377377 377377     677  	oct	377377377377,377377377377,377377377377,377377377377
    005043  aa   377377 377377
    005044  aa   377377 377377
    005045  aa   377377 377377
    005046  aa   377377 377377     678  	oct	377377377377,377377377377,377377377377,377377377377
    005047  aa   377377 377377
    005050  aa   377377 377377
    005051  aa   377377 377377
    005052  aa   377377 377377     679  	oct	377377377377,377377377377,377377377377,377310377377
    005053  aa   377377 377377
    005054  aa   377377 377377
    005055  aa   377310 377377
    005056  aa   377377 377377     680  	oct	377377377377,377377377377,377377377377,377377377377
    005057  aa   377377 377377
    005060  aa   377377 377377
    005061  aa   377377 377377
    005062  aa   377377 377377     681  	oct	377377377377,377377377377,377377377377,377377377377
    005063  aa   377377 377377
    005064  aa   377377 377377
    005065  aa   377377 377377
    005066  aa   377377 377377     682  	oct	377377377377,377377377377,377377377377,377377377377
    005067  aa   377377 377377
    005070  aa   377377 377377
    005071  aa   377377 377377
    005072  aa   377377 377377     683  	oct	377377377377,377377377377,377377377377,377377377377
    005073  aa   377377 377377
    005074  aa   377377 377377
    005075  aa   377377 377377
    005076  aa   377377 377377     684  	oct	377377377377,377377377377,377377377377,377377377377
    005077  aa   377377 377377
    005100  aa   377377 377377
    005101  aa   377377 377377
    005102  aa   377377 377377     685  	oct	377377377377,377377377377,310377377377,377377377377
    005103  aa   377377 377377
    005104  aa   310377 377377
    005105  aa   377377 377377
    005106  aa   377377 377377     686  	oct	377377377377,377377377377,377377377377,377377377377
    005107  aa   377377 377377
    005110  aa   377377 377377
    005111  aa   377377 377377
    005112  aa   377377 377377     687  	oct	377377377377,377377377377,377377377377,377377377377
    005113  aa   377377 377377
    005114  aa   377377 377377
    005115  aa   377377 377377
    005116  aa   377377 377377     688  	oct	377377377377,377377377377,377377377377,377377377377
    005117  aa   377377 377377
    005120  aa   377377 377377
    005121  aa   377377 377377
    005122  aa   377377 377377     689  	oct	377377377377,377377377377,377377377377,377377377377
    005123  aa   377377 377377
    005124  aa   377377 377377
    005125  aa   377377 377377
    005126  aa   377377 377377     690  	oct	377377377377,377377377377,377377377377,377377377377
    005127  aa   377377 377377
    005130  aa   377377 377377
    005131  aa   377377 377377
    005132  aa   377377 377377     691  	oct	377377377377,377377377377,377377377377,377377377377
    005133  aa   377377 377377
    005134  aa   377377 377377
    005135  aa   377377 377377
    005136  aa   377377 377377     692  	oct	377377377377,377377377377,377377377377,377377377377
    005137  aa   377377 377377
    005140  aa   377377 377377
    005141  aa   377377 377377
    005142  aa   377377 377377     693  	oct	377377377377,377377377377,377377377377,377377377377
    005143  aa   377377 377377
    005144  aa   377377 377377
    005145  aa   377377 377377
    005146  aa   377377 377377     694  	oct	377377377377,377377377377,377377377377,377377377377
    005147  aa   377377 377377
    005150  aa   377377 377377
    005151  aa   377377 377377
    005152  aa   377377 377377     695  	oct	377377377377,377377377377,377377377377,377311377377
    005153  aa   377377 377377
    005154  aa   377377 377377
    005155  aa   377311 377377
    005156  aa   377377 377377     696  	oct	377377377377,377377377377,377377377377,377377377377
    005157  aa   377377 377377
    005160  aa   377377 377377
    005161  aa   377377 377377
    005162  aa   377377 377377     697  	oct	377377377377,377377377377,377377377377,377377377377
    005163  aa   377377 377377
    005164  aa   377377 377377
    005165  aa   377377 377377
    005166  aa   377377 377377     698  	oct	377377377377,377377377377,377377377377,377377377377
    005167  aa   377377 377377
    005170  aa   377377 377377
    005171  aa   377377 377377
    005172  aa   377377 377377     699  	oct	377377377377,377377377377,377377377377,377377377377
    005173  aa   377377 377377
    005174  aa   377377 377377
    005175  aa   377377 377377
    005176  aa   377377 377377     700  	oct	377377377377,377377377377,377377377377,377377377377
    005177  aa   377377 377377
    005200  aa   377377 377377
    005201  aa   377377 377377
    005202  aa   377377 377377     701  	oct	377377377377,377377377377,377311377377,377377377377
    005203  aa   377377 377377
    005204  aa   377311 377377
    005205  aa   377377 377377
    005206  aa   377377 377377     702  	oct	377377377377,377377377377,377377377377,377377377377
    005207  aa   377377 377377
    005210  aa   377377 377377
    005211  aa   377377 377377
    005212  aa   377377 377377     703  	oct	377377377377,377377377377,377377377377,377377377377
    005213  aa   377377 377377
    005214  aa   377377 377377
    005215  aa   377377 377377
    005216  aa   377377 377377     704  	oct	377377377377,377377377377,377377377377,377377377377
    005217  aa   377377 377377
    005220  aa   377377 377377
    005221  aa   377377 377377
    005222  aa   377377 377377     705  	oct	377377377377,377377377377,377377377377,377377377377
    005223  aa   377377 377377
    005224  aa   377377 377377
    005225  aa   377377 377377
    005226  aa   377377 377377     706  	oct	377377377377,377377377377,377377377377,377377377377
    005227  aa   377377 377377
    005230  aa   377377 377377
    005231  aa   377377 377377
    005232  aa   377377 377377     707  	oct	377377377377,377377377377,377377377377,377377377377
    005233  aa   377377 377377
    005234  aa   377377 377377
    005235  aa   377377 377377
    005236  aa   377377 377377     708  	oct	377377377377,377377377377,377377377377,377377377377
    005237  aa   377377 377377
    005240  aa   377377 377377
    005241  aa   377377 377377
    005242  aa   377377 377377     709  	oct	377377377377,377377377377,377377377377,377377377377
    005243  aa   377377 377377
    005244  aa   377377 377377
    005245  aa   377377 377377
    005246  aa   377377 377377     710  	oct	377377377377,377377377377,377377377377,377377377377
    005247  aa   377377 377377
    005250  aa   377377 377377
    005251  aa   377377 377377
    005252  aa   377377 377377     711  	oct	377377377377,377377377377,377377377377,377321377377
    005253  aa   377377 377377
    005254  aa   377377 377377
    005255  aa   377321 377377
    005256  aa   377377 377377     712  	oct	377377377377,377377377377,377377377377,377377377377
    005257  aa   377377 377377
    005260  aa   377377 377377
    005261  aa   377377 377377
    005262  aa   377377 377377     713  	oct	377377377377,377377377377,377377377377,377377377377
    005263  aa   377377 377377
    005264  aa   377377 377377
    005265  aa   377377 377377
    005266  aa   377377 377377     714  	oct	377377377377,377377377377,377377377377,377377377377
    005267  aa   377377 377377
    005270  aa   377377 377377
    005271  aa   377377 377377
    005272  aa   377377 377377     715  	oct	377377377377,377377377377,377377377377,377377377377
    005273  aa   377377 377377
    005274  aa   377377 377377
    005275  aa   377377 377377
    005276  aa   377377 377377     716  	oct	377377377377,377377377377,377377377377,377377377377
    005277  aa   377377 377377
    005300  aa   377377 377377
    005301  aa   377377 377377
    005302  aa   377377 377377     717  	oct	377377377377,377377377377,377377377377,377377377377
    005303  aa   377377 377377
    005304  aa   377377 377377
    005305  aa   377377 377377
    005306  aa   377321 377377     718  	oct	377321377377,377377377377,377377377377,377377377377
    005307  aa   377377 377377
    005310  aa   377377 377377
    005311  aa   377377 377377
    005312  aa   377377 377377     719  	oct	377377377377,377377377377,377377377377,377377377377
    005313  aa   377377 377377
    005314  aa   377377 377377
    005315  aa   377377 377377
    005316  aa   377377 377377     720  	oct	377377377377,377377377377,377377377377,377377377377
    005317  aa   377377 377377
    005320  aa   377377 377377
    005321  aa   377377 377377
    005322  aa   377377 377377     721  	oct	377377377377,377377377377,377377377377,377377377377
    005323  aa   377377 377377
    005324  aa   377377 377377
    005325  aa   377377 377377
    005326  aa   377377 377377     722  	oct	377377377377,377377377377,377377377377,377377377377
    005327  aa   377377 377377
    005330  aa   377377 377377
    005331  aa   377377 377377
    005332  aa   377377 377377     723  	oct	377377377377,377377377377,377377377377,377377377377
    005333  aa   377377 377377
    005334  aa   377377 377377
    005335  aa   377377 377377
    005336  aa   377377 377377     724  	oct	377377377377,377377377377,377377377377,377377377377
    005337  aa   377377 377377
    005340  aa   377377 377377
    005341  aa   377377 377377
    005342  aa   377377 377377     725  	oct	377377377377,377377377377,377377377377,377377377377
    005343  aa   377377 377377
    005344  aa   377377 377377
    005345  aa   377377 377377
    005346  aa   377377 377377     726  	oct	377377377377,377377377377,377377377377,377377377377
    005347  aa   377377 377377
    005350  aa   377377 377377
    005351  aa   377377 377377
    005352  aa   377377 377377     727  	oct	377377377377,377377377377,377377377377,377322377377
    005353  aa   377377 377377
    005354  aa   377377 377377
    005355  aa   377322 377377
    005356  aa   377377 377377     728  	oct	377377377377,377377377377,377377377377,377377377377
    005357  aa   377377 377377
    005360  aa   377377 377377
    005361  aa   377377 377377
    005362  aa   377377 377377     729  	oct	377377377377,377377377377,377377377377,377377377377
    005363  aa   377377 377377
    005364  aa   377377 377377
    005365  aa   377377 377377
    005366  aa   377377 377377     730  	oct	377377377377,377377377377,377377377377,377377377377
    005367  aa   377377 377377
    005370  aa   377377 377377
    005371  aa   377377 377377
    005372  aa   377377 377377     731  	oct	377377377377,377377377377,377377377377,377377377377
    005373  aa   377377 377377
    005374  aa   377377 377377
    005375  aa   377377 377377
    005376  aa   377377 377377     732  	oct	377377377377,377377377377,377377377377,377377377377
    005377  aa   377377 377377
    005400  aa   377377 377377
    005401  aa   377377 377377
    005402  aa   377377 377377     733  	oct	377377377377,377377377377,377377377377,377377377377
    005403  aa   377377 377377
    005404  aa   377377 377377
    005405  aa   377377 377377
    005406  aa   377377 322377     734  	oct	377377322377,377377377377,377377377377,377377377377
    005407  aa   377377 377377
    005410  aa   377377 377377
    005411  aa   377377 377377
    005412  aa   377377 377377     735  	oct	377377377377,377377377377,377377377377,377377377377
    005413  aa   377377 377377
    005414  aa   377377 377377
    005415  aa   377377 377377
    005416  aa   377377 377377     736  	oct	377377377377,377377377377,377377377377,377377377377
    005417  aa   377377 377377
    005420  aa   377377 377377
    005421  aa   377377 377377
    005422  aa   377377 377377     737  	oct	377377377377,377377377377,377377377377,377377377377
    005423  aa   377377 377377
    005424  aa   377377 377377
    005425  aa   377377 377377
    005426  aa   377377 377377     738  	oct	377377377377,377377377377,377377377377,377377377377
    005427  aa   377377 377377
    005430  aa   377377 377377
    005431  aa   377377 377377
    005432  aa   377377 377377     739  	oct	377377377377,377377377377,377377377377,377377377377
    005433  aa   377377 377377
    005434  aa   377377 377377
    005435  aa   377377 377377
    005436  aa   377377 377377     740  	oct	377377377377,377377377377,377377377377,377377377377
    005437  aa   377377 377377
    005440  aa   377377 377377
    005441  aa   377377 377377
    005442  aa   377377 377377     741  	oct	377377377377,377377377377,377377377377,377377377377
    005443  aa   377377 377377
    005444  aa   377377 377377
    005445  aa   377377 377377
    005446  aa   377377 377377     742  	oct	377377377377,377377377377,377377377377,377377377377
    005447  aa   377377 377377
    005450  aa   377377 377377
    005451  aa   377377 377377
    005452  aa   377377 377377     743  	oct	377377377377,377377377377,377377377377,377323377377
    005453  aa   377377 377377
    005454  aa   377377 377377
    005455  aa   377323 377377
    005456  aa   377377 377377     744  	oct	377377377377,377377377377,377377377377,377377377377
    005457  aa   377377 377377
    005460  aa   377377 377377
    005461  aa   377377 377377
    005462  aa   377377 377377     745  	oct	377377377377,377377377377,377377377377,377377377377
    005463  aa   377377 377377
    005464  aa   377377 377377
    005465  aa   377377 377377
    005466  aa   377377 377377     746  	oct	377377377377,377377377377,377377377377,377377377377
    005467  aa   377377 377377
    005470  aa   377377 377377
    005471  aa   377377 377377
    005472  aa   377377 377377     747  	oct	377377377377,377377377377,377377377377,377377377377
    005473  aa   377377 377377
    005474  aa   377377 377377
    005475  aa   377377 377377
    005476  aa   377377 377377     748  	oct	377377377377,377377377377,377377377377,377377377377
    005477  aa   377377 377377
    005500  aa   377377 377377
    005501  aa   377377 377377
    005502  aa   377377 377377     749  	oct	377377377377,377377377377,377377377377,377377377377
    005503  aa   377377 377377
    005504  aa   377377 377377
    005505  aa   377377 377377
    005506  aa   377377 377323     750  	oct	377377377323,377377377377,377377377377,377377377377
    005507  aa   377377 377377
    005510  aa   377377 377377
    005511  aa   377377 377377
    005512  aa   377377 377377     751  	oct	377377377377,377377377377,377377377377,377377377377
    005513  aa   377377 377377
    005514  aa   377377 377377
    005515  aa   377377 377377
    005516  aa   377377 377377     752  	oct	377377377377,377377377377,377377377377,377377377377
    005517  aa   377377 377377
    005520  aa   377377 377377
    005521  aa   377377 377377
    005522  aa   377377 377377     753  	oct	377377377377,377377377377,377377377377,377377377377
    005523  aa   377377 377377
    005524  aa   377377 377377
    005525  aa   377377 377377
    005526  aa   377377 377377     754  	oct	377377377377,377377377377,377377377377,377377377377
    005527  aa   377377 377377
    005530  aa   377377 377377
    005531  aa   377377 377377
    005532  aa   377377 377377     755  	oct	377377377377,377377377377,377377377377,377377377377
    005533  aa   377377 377377
    005534  aa   377377 377377
    005535  aa   377377 377377
    005536  aa   377377 377377     756  	oct	377377377377,377377377377,377377377377,377377377377
    005537  aa   377377 377377
    005540  aa   377377 377377
    005541  aa   377377 377377
    005542  aa   377377 377377     757  	oct	377377377377,377377377377,377377377377,377377377377
    005543  aa   377377 377377
    005544  aa   377377 377377
    005545  aa   377377 377377
    005546  aa   377377 377377     758  	oct	377377377377,377377377377,377377377377,377377377377
    005547  aa   377377 377377
    005550  aa   377377 377377
    005551  aa   377377 377377
    005552  aa   377377 377377     759  	oct	377377377377,377377377377,377377377377,377324377377
    005553  aa   377377 377377
    005554  aa   377377 377377
    005555  aa   377324 377377
    005556  aa   377377 377377     760  	oct	377377377377,377377377377,377377377377,377377377377
    005557  aa   377377 377377
    005560  aa   377377 377377
    005561  aa   377377 377377
    005562  aa   377377 377377     761  	oct	377377377377,377377377377,377377377377,377377377377
    005563  aa   377377 377377
    005564  aa   377377 377377
    005565  aa   377377 377377
    005566  aa   377377 377377     762  	oct	377377377377,377377377377,377377377377,377377377377
    005567  aa   377377 377377
    005570  aa   377377 377377
    005571  aa   377377 377377
    005572  aa   377377 377377     763  	oct	377377377377,377377377377,377377377377,377377377377
    005573  aa   377377 377377
    005574  aa   377377 377377
    005575  aa   377377 377377
    005576  aa   377377 377377     764  	oct	377377377377,377377377377,377377377377,377377377377
    005577  aa   377377 377377
    005600  aa   377377 377377
    005601  aa   377377 377377
    005602  aa   377377 377377     765  	oct	377377377377,377377377377,377377377377,377377377377
    005603  aa   377377 377377
    005604  aa   377377 377377
    005605  aa   377377 377377
    005606  aa   377377 377377     766  	oct	377377377377,324377377377,377377377377,377377377377
    005607  aa   324377 377377
    005610  aa   377377 377377
    005611  aa   377377 377377
    005612  aa   377377 377377     767  	oct	377377377377,377377377377,377377377377,377377377377
    005613  aa   377377 377377
    005614  aa   377377 377377
    005615  aa   377377 377377
    005616  aa   377377 377377     768  	oct	377377377377,377377377377,377377377377,377377377377
    005617  aa   377377 377377
    005620  aa   377377 377377
    005621  aa   377377 377377
    005622  aa   377377 377377     769  	oct	377377377377,377377377377,377377377377,377377377377
    005623  aa   377377 377377
    005624  aa   377377 377377
    005625  aa   377377 377377
    005626  aa   377377 377377     770  	oct	377377377377,377377377377,377377377377,377377377377
    005627  aa   377377 377377
    005630  aa   377377 377377
    005631  aa   377377 377377
    005632  aa   377377 377377     771  	oct	377377377377,377377377377,377377377377,377377377377
    005633  aa   377377 377377
    005634  aa   377377 377377
    005635  aa   377377 377377
    005636  aa   377377 377377     772  	oct	377377377377,377377377377,377377377377,377377377377
    005637  aa   377377 377377
    005640  aa   377377 377377
    005641  aa   377377 377377
    005642  aa   377377 377377     773  	oct	377377377377,377377377377,377377377377,377377377377
    005643  aa   377377 377377
    005644  aa   377377 377377
    005645  aa   377377 377377
    005646  aa   377377 377377     774  	oct	377377377377,377377377377,377377377377,377377377377
    005647  aa   377377 377377
    005650  aa   377377 377377
    005651  aa   377377 377377
    005652  aa   377377 377377     775  	oct	377377377377,377377377377,377377377377,377325377377
    005653  aa   377377 377377
    005654  aa   377377 377377
    005655  aa   377325 377377
    005656  aa   377377 377377     776  	oct	377377377377,377377377377,377377377377,377377377377
    005657  aa   377377 377377
    005660  aa   377377 377377
    005661  aa   377377 377377
    005662  aa   377377 377377     777  	oct	377377377377,377377377377,377377377377,377377377377
    005663  aa   377377 377377
    005664  aa   377377 377377
    005665  aa   377377 377377
    005666  aa   377377 377377     778  	oct	377377377377,377377377377,377377377377,377377377377
    005667  aa   377377 377377
    005670  aa   377377 377377
    005671  aa   377377 377377
    005672  aa   377377 377377     779  	oct	377377377377,377377377377,377377377377,377377377377
    005673  aa   377377 377377
    005674  aa   377377 377377
    005675  aa   377377 377377
    005676  aa   377377 377377     780  	oct	377377377377,377377377377,377377377377,377377377377
    005677  aa   377377 377377
    005700  aa   377377 377377
    005701  aa   377377 377377
    005702  aa   377377 377377     781  	oct	377377377377,377377377377,377377377377,377377377377
    005703  aa   377377 377377
    005704  aa   377377 377377
    005705  aa   377377 377377
    005706  aa   377377 377377     782  	oct	377377377377,377325377377,377377377377,377377377377
    005707  aa   377325 377377
    005710  aa   377377 377377
    005711  aa   377377 377377
    005712  aa   377377 377377     783  	oct	377377377377,377377377377,377377377377,377377377377
    005713  aa   377377 377377
    005714  aa   377377 377377
    005715  aa   377377 377377
    005716  aa   377377 377377     784  	oct	377377377377,377377377377,377377377377,377377377377
    005717  aa   377377 377377
    005720  aa   377377 377377
    005721  aa   377377 377377
    005722  aa   377377 377377     785  	oct	377377377377,377377377377,377377377377,377377377377
    005723  aa   377377 377377
    005724  aa   377377 377377
    005725  aa   377377 377377
    005726  aa   377377 377377     786  	oct	377377377377,377377377377,377377377377,377377377377
    005727  aa   377377 377377
    005730  aa   377377 377377
    005731  aa   377377 377377
    005732  aa   377377 377377     787  	oct	377377377377,377377377377,377377377377,377377377377
    005733  aa   377377 377377
    005734  aa   377377 377377
    005735  aa   377377 377377
    005736  aa   377377 377377     788  	oct	377377377377,377377377377,377377377377,377377377377
    005737  aa   377377 377377
    005740  aa   377377 377377
    005741  aa   377377 377377
    005742  aa   377377 377377     789  	oct	377377377377,377377377377,377377377377,377377377377
    005743  aa   377377 377377
    005744  aa   377377 377377
    005745  aa   377377 377377
    005746  aa   377377 377377     790  	oct	377377377377,377377377377,377377377377,377377377377
    005747  aa   377377 377377
    005750  aa   377377 377377
    005751  aa   377377 377377
    005752  aa   377377 377377     791  	oct	377377377377,377377377377,377377377377,377326377377
    005753  aa   377377 377377
    005754  aa   377377 377377
    005755  aa   377326 377377
    005756  aa   377377 377377     792  	oct	377377377377,377377377377,377377377377,377377377377
    005757  aa   377377 377377
    005760  aa   377377 377377
    005761  aa   377377 377377
    005762  aa   377377 377377     793  	oct	377377377377,377377377377,377377377377,377377377377
    005763  aa   377377 377377
    005764  aa   377377 377377
    005765  aa   377377 377377
    005766  aa   377377 377377     794  	oct	377377377377,377377377377,377377377377,377377377377
    005767  aa   377377 377377
    005770  aa   377377 377377
    005771  aa   377377 377377
    005772  aa   377377 377377     795  	oct	377377377377,377377377377,377377377377,377377377377
    005773  aa   377377 377377
    005774  aa   377377 377377
    005775  aa   377377 377377
    005776  aa   377377 377377     796  	oct	377377377377,377377377377,377377377377,377377377377
    005777  aa   377377 377377
    006000  aa   377377 377377
    006001  aa   377377 377377
    006002  aa   377377 377377     797  	oct	377377377377,377377377377,377377377377,377377377377
    006003  aa   377377 377377
    006004  aa   377377 377377
    006005  aa   377377 377377
    006006  aa   377377 377377     798  	oct	377377377377,377377326377,377377377377,377377377377
    006007  aa   377377 326377
    006010  aa   377377 377377
    006011  aa   377377 377377
    006012  aa   377377 377377     799  	oct	377377377377,377377377377,377377377377,377377377377
    006013  aa   377377 377377
    006014  aa   377377 377377
    006015  aa   377377 377377
    006016  aa   377377 377377     800  	oct	377377377377,377377377377,377377377377,377377377377
    006017  aa   377377 377377
    006020  aa   377377 377377
    006021  aa   377377 377377
    006022  aa   377377 377377     801  	oct	377377377377,377377377377,377377377377,377377377377
    006023  aa   377377 377377
    006024  aa   377377 377377
    006025  aa   377377 377377
    006026  aa   377377 377377     802  	oct	377377377377,377377377377,377377377377,377377377377
    006027  aa   377377 377377
    006030  aa   377377 377377
    006031  aa   377377 377377
    006032  aa   377377 377377     803  	oct	377377377377,377377377377,377377377377,377377377377
    006033  aa   377377 377377
    006034  aa   377377 377377
    006035  aa   377377 377377
    006036  aa   377377 377377     804  	oct	377377377377,377377377377,377377377377,377377377377
    006037  aa   377377 377377
    006040  aa   377377 377377
    006041  aa   377377 377377
    006042  aa   377377 377377     805  	oct	377377377377,377377377377,377377377377,377377377377
    006043  aa   377377 377377
    006044  aa   377377 377377
    006045  aa   377377 377377
    006046  aa   377377 377377     806  	oct	377377377377,377377377377,377377377377,377377377377
    006047  aa   377377 377377
    006050  aa   377377 377377
    006051  aa   377377 377377
    006052  aa   377377 377377     807  	oct	377377377377,377377377377,377377377377,377327377377
    006053  aa   377377 377377
    006054  aa   377377 377377
    006055  aa   377327 377377
    006056  aa   377377 377377     808  	oct	377377377377,377377377377,377377377377,377377377377
    006057  aa   377377 377377
    006060  aa   377377 377377
    006061  aa   377377 377377
    006062  aa   377377 377377     809  	oct	377377377377,377377377377,377377377377,377377377377
    006063  aa   377377 377377
    006064  aa   377377 377377
    006065  aa   377377 377377
    006066  aa   377377 377377     810  	oct	377377377377,377377377377,377377377377,377377377377
    006067  aa   377377 377377
    006070  aa   377377 377377
    006071  aa   377377 377377
    006072  aa   377377 377377     811  	oct	377377377377,377377377377,377377377377,377377377377
    006073  aa   377377 377377
    006074  aa   377377 377377
    006075  aa   377377 377377
    006076  aa   377377 377377     812  	oct	377377377377,377377377377,377377377377,377377377377
    006077  aa   377377 377377
    006100  aa   377377 377377
    006101  aa   377377 377377
    006102  aa   377377 377377     813  	oct	377377377377,377377377377,377377377377,377377377377
    006103  aa   377377 377377
    006104  aa   377377 377377
    006105  aa   377377 377377
    006106  aa   377377 377377     814  	oct	377377377377,377377377327,377377377377,377377377377
    006107  aa   377377 377327
    006110  aa   377377 377377
    006111  aa   377377 377377
    006112  aa   377377 377377     815  	oct	377377377377,377377377377,377377377377,377377377377
    006113  aa   377377 377377
    006114  aa   377377 377377
    006115  aa   377377 377377
    006116  aa   377377 377377     816  	oct	377377377377,377377377377,377377377377,377377377377
    006117  aa   377377 377377
    006120  aa   377377 377377
    006121  aa   377377 377377
    006122  aa   377377 377377     817  	oct	377377377377,377377377377,377377377377,377377377377
    006123  aa   377377 377377
    006124  aa   377377 377377
    006125  aa   377377 377377
    006126  aa   377377 377377     818  	oct	377377377377,377377377377,377377377377,377377377377
    006127  aa   377377 377377
    006130  aa   377377 377377
    006131  aa   377377 377377
    006132  aa   377377 377377     819  	oct	377377377377,377377377377,377377377377,377377377377
    006133  aa   377377 377377
    006134  aa   377377 377377
    006135  aa   377377 377377
    006136  aa   377377 377377     820  	oct	377377377377,377377377377,377377377377,377377377377
    006137  aa   377377 377377
    006140  aa   377377 377377
    006141  aa   377377 377377
    006142  aa   377377 377377     821  	oct	377377377377,377377377377,377377377377,377377377377
    006143  aa   377377 377377
    006144  aa   377377 377377
    006145  aa   377377 377377
    006146  aa   377377 377377     822  	oct	377377377377,377377377377,377377377377,377377377377
    006147  aa   377377 377377
    006150  aa   377377 377377
    006151  aa   377377 377377
    006152  aa   377377 377377     823  	oct	377377377377,377377377377,377377377377,377330377377
    006153  aa   377377 377377
    006154  aa   377377 377377
    006155  aa   377330 377377
    006156  aa   377377 377377     824  	oct	377377377377,377377377377,377377377377,377377377377
    006157  aa   377377 377377
    006160  aa   377377 377377
    006161  aa   377377 377377
    006162  aa   377377 377377     825  	oct	377377377377,377377377377,377377377377,377377377377
    006163  aa   377377 377377
    006164  aa   377377 377377
    006165  aa   377377 377377
    006166  aa   377377 377377     826  	oct	377377377377,377377377377,377377377377,377377377377
    006167  aa   377377 377377
    006170  aa   377377 377377
    006171  aa   377377 377377
    006172  aa   377377 377377     827  	oct	377377377377,377377377377,377377377377,377377377377
    006173  aa   377377 377377
    006174  aa   377377 377377
    006175  aa   377377 377377
    006176  aa   377377 377377     828  	oct	377377377377,377377377377,377377377377,377377377377
    006177  aa   377377 377377
    006200  aa   377377 377377
    006201  aa   377377 377377
    006202  aa   377377 377377     829  	oct	377377377377,377377377377,377377377377,377377377377
    006203  aa   377377 377377
    006204  aa   377377 377377
    006205  aa   377377 377377
    006206  aa   377377 377377     830  	oct	377377377377,377377377377,330377377377,377377377377
    006207  aa   377377 377377
    006210  aa   330377 377377
    006211  aa   377377 377377
    006212  aa   377377 377377     831  	oct	377377377377,377377377377,377377377377,377377377377
    006213  aa   377377 377377
    006214  aa   377377 377377
    006215  aa   377377 377377
    006216  aa   377377 377377     832  	oct	377377377377,377377377377,377377377377,377377377377
    006217  aa   377377 377377
    006220  aa   377377 377377
    006221  aa   377377 377377
    006222  aa   377377 377377     833  	oct	377377377377,377377377377,377377377377,377377377377
    006223  aa   377377 377377
    006224  aa   377377 377377
    006225  aa   377377 377377
    006226  aa   377377 377377     834  	oct	377377377377,377377377377,377377377377,377377377377
    006227  aa   377377 377377
    006230  aa   377377 377377
    006231  aa   377377 377377
    006232  aa   377377 377377     835  	oct	377377377377,377377377377,377377377377,377377377377
    006233  aa   377377 377377
    006234  aa   377377 377377
    006235  aa   377377 377377
    006236  aa   377377 377377     836  	oct	377377377377,377377377377,377377377377,377377377377
    006237  aa   377377 377377
    006240  aa   377377 377377
    006241  aa   377377 377377
    006242  aa   377377 377377     837  	oct	377377377377,377377377377,377377377377,377377377377
    006243  aa   377377 377377
    006244  aa   377377 377377
    006245  aa   377377 377377
    006246  aa   377377 377377     838  	oct	377377377377,377377377377,377377377377,377377377377
    006247  aa   377377 377377
    006250  aa   377377 377377
    006251  aa   377377 377377
    006252  aa   377377 377377     839  	oct	377377377377,377377377377,377377377377,377331377377
    006253  aa   377377 377377
    006254  aa   377377 377377
    006255  aa   377331 377377
    006256  aa   377377 377377     840  	oct	377377377377,377377377377,377377377377,377377377377
    006257  aa   377377 377377
    006260  aa   377377 377377
    006261  aa   377377 377377
    006262  aa   377377 377377     841  	oct	377377377377,377377377377,377377377377,377377377377
    006263  aa   377377 377377
    006264  aa   377377 377377
    006265  aa   377377 377377
    006266  aa   377377 377377     842  	oct	377377377377,377377377377,377377377377,377377377377
    006267  aa   377377 377377
    006270  aa   377377 377377
    006271  aa   377377 377377
    006272  aa   377377 377377     843  	oct	377377377377,377377377377,377377377377,377377377377
    006273  aa   377377 377377
    006274  aa   377377 377377
    006275  aa   377377 377377
    006276  aa   377377 377377     844  	oct	377377377377,377377377377,377377377377,377377377377
    006277  aa   377377 377377
    006300  aa   377377 377377
    006301  aa   377377 377377
    006302  aa   377377 377377     845  	oct	377377377377,377377377377,377377377377,377377377377
    006303  aa   377377 377377
    006304  aa   377377 377377
    006305  aa   377377 377377
    006306  aa   377377 377377     846  	oct	377377377377,377377377377,377331377377,377377377377
    006307  aa   377377 377377
    006310  aa   377331 377377
    006311  aa   377377 377377
    006312  aa   377377 377377     847  	oct	377377377377,377377377377,377377377377,377377377377
    006313  aa   377377 377377
    006314  aa   377377 377377
    006315  aa   377377 377377
    006316  aa   377377 377377     848  	oct	377377377377,377377377377,377377377377,377377377377
    006317  aa   377377 377377
    006320  aa   377377 377377
    006321  aa   377377 377377
    006322  aa   377377 377377     849  	oct	377377377377,377377377377,377377377377,377377377377
    006323  aa   377377 377377
    006324  aa   377377 377377
    006325  aa   377377 377377
    006326  aa   377377 377377     850  	oct	377377377377,377377377377,377377377377,377377377377
    006327  aa   377377 377377
    006330  aa   377377 377377
    006331  aa   377377 377377
    006332  aa   377377 377377     851  	oct	377377377377,377377377377,377377377377,377377377377
    006333  aa   377377 377377
    006334  aa   377377 377377
    006335  aa   377377 377377
    006336  aa   377377 377377     852  	oct	377377377377,377377377377,377377377377,377377377377
    006337  aa   377377 377377
    006340  aa   377377 377377
    006341  aa   377377 377377
    006342  aa   377377 377377     853  	oct	377377377377,377377377377,377377377377,377377377377
    006343  aa   377377 377377
    006344  aa   377377 377377
    006345  aa   377377 377377
    006346  aa   377377 377377     854  	oct	377377377377,377377377377,377377377377,377377377377
    006347  aa   377377 377377
    006350  aa   377377 377377
    006351  aa   377377 377377
    006352  aa   377377 377377     855  	oct	377377377377,377377377377,377377377377,377342377377
    006353  aa   377377 377377
    006354  aa   377377 377377
    006355  aa   377342 377377
    006356  aa   377377 377377     856  	oct	377377377377,377377377377,377377377377,377377377377
    006357  aa   377377 377377
    006360  aa   377377 377377
    006361  aa   377377 377377
    006362  aa   377377 377377     857  	oct	377377377377,377377377377,377377377377,377377377377
    006363  aa   377377 377377
    006364  aa   377377 377377
    006365  aa   377377 377377
    006366  aa   377377 377377     858  	oct	377377377377,377377377377,377377377377,377377377377
    006367  aa   377377 377377
    006370  aa   377377 377377
    006371  aa   377377 377377
    006372  aa   377377 377377     859  	oct	377377377377,377377377377,377377377377,377377377377
    006373  aa   377377 377377
    006374  aa   377377 377377
    006375  aa   377377 377377
    006376  aa   377377 377377     860  	oct	377377377377,377377377377,377377377377,377377377377
    006377  aa   377377 377377
    006400  aa   377377 377377
    006401  aa   377377 377377
    006402  aa   377377 377377     861  	oct	377377377377,377377377377,377377377377,377377377377
    006403  aa   377377 377377
    006404  aa   377377 377377
    006405  aa   377377 377377
    006406  aa   377377 377377     862  	oct	377377377377,377377377377,377377377377,377377377377
    006407  aa   377377 377377
    006410  aa   377377 377377
    006411  aa   377377 377377
    006412  aa   377377 342377     863  	oct	377377342377,377377377377,377377377377,377377377377
    006413  aa   377377 377377
    006414  aa   377377 377377
    006415  aa   377377 377377
    006416  aa   377377 377377     864  	oct	377377377377,377377377377,377377377377,377377377377
    006417  aa   377377 377377
    006420  aa   377377 377377
    006421  aa   377377 377377
    006422  aa   377377 377377     865  	oct	377377377377,377377377377,377377377377,377377377377
    006423  aa   377377 377377
    006424  aa   377377 377377
    006425  aa   377377 377377
    006426  aa   377377 377377     866  	oct	377377377377,377377377377,377377377377,377377377377
    006427  aa   377377 377377
    006430  aa   377377 377377
    006431  aa   377377 377377
    006432  aa   377377 377377     867  	oct	377377377377,377377377377,377377377377,377377377377
    006433  aa   377377 377377
    006434  aa   377377 377377
    006435  aa   377377 377377
    006436  aa   377377 377377     868  	oct	377377377377,377377377377,377377377377,377377377377
    006437  aa   377377 377377
    006440  aa   377377 377377
    006441  aa   377377 377377
    006442  aa   377377 377377     869  	oct	377377377377,377377377377,377377377377,377377377377
    006443  aa   377377 377377
    006444  aa   377377 377377
    006445  aa   377377 377377
    006446  aa   377377 377377     870  	oct	377377377377,377377377377,377377377377,377377377377
    006447  aa   377377 377377
    006450  aa   377377 377377
    006451  aa   377377 377377
    006452  aa   377377 377377     871  	oct	377377377377,377377377377,377377377377,377343377377
    006453  aa   377377 377377
    006454  aa   377377 377377
    006455  aa   377343 377377
    006456  aa   377377 377377     872  	oct	377377377377,377377377377,377377377377,377377377377
    006457  aa   377377 377377
    006460  aa   377377 377377
    006461  aa   377377 377377
    006462  aa   377377 377377     873  	oct	377377377377,377377377377,377377377377,377377377377
    006463  aa   377377 377377
    006464  aa   377377 377377
    006465  aa   377377 377377
    006466  aa   377377 377377     874  	oct	377377377377,377377377377,377377377377,377377377377
    006467  aa   377377 377377
    006470  aa   377377 377377
    006471  aa   377377 377377
    006472  aa   377377 377377     875  	oct	377377377377,377377377377,377377377377,377377377377
    006473  aa   377377 377377
    006474  aa   377377 377377
    006475  aa   377377 377377
    006476  aa   377377 377377     876  	oct	377377377377,377377377377,377377377377,377377377377
    006477  aa   377377 377377
    006500  aa   377377 377377
    006501  aa   377377 377377
    006502  aa   377377 377377     877  	oct	377377377377,377377377377,377377377377,377377377377
    006503  aa   377377 377377
    006504  aa   377377 377377
    006505  aa   377377 377377
    006506  aa   377377 377377     878  	oct	377377377377,377377377377,377377377377,377377377377
    006507  aa   377377 377377
    006510  aa   377377 377377
    006511  aa   377377 377377
    006512  aa   377377 377343     879  	oct	377377377343,377377377377,377377377377,377377377377
    006513  aa   377377 377377
    006514  aa   377377 377377
    006515  aa   377377 377377
    006516  aa   377377 377377     880  	oct	377377377377,377377377377,377377377377,377377377377
    006517  aa   377377 377377
    006520  aa   377377 377377
    006521  aa   377377 377377
    006522  aa   377377 377377     881  	oct	377377377377,377377377377,377377377377,377377377377
    006523  aa   377377 377377
    006524  aa   377377 377377
    006525  aa   377377 377377
    006526  aa   377377 377377     882  	oct	377377377377,377377377377,377377377377,377377377377
    006527  aa   377377 377377
    006530  aa   377377 377377
    006531  aa   377377 377377
    006532  aa   377377 377377     883  	oct	377377377377,377377377377,377377377377,377377377377
    006533  aa   377377 377377
    006534  aa   377377 377377
    006535  aa   377377 377377
    006536  aa   377377 377377     884  	oct	377377377377,377377377377,377377377377,377377377377
    006537  aa   377377 377377
    006540  aa   377377 377377
    006541  aa   377377 377377
    006542  aa   377377 377377     885  	oct	377377377377,377377377377,377377377377,377377377377
    006543  aa   377377 377377
    006544  aa   377377 377377
    006545  aa   377377 377377
    006546  aa   377377 377377     886  	oct	377377377377,377377377377,377377377377,377377377377
    006547  aa   377377 377377
    006550  aa   377377 377377
    006551  aa   377377 377377
    006552  aa   377377 377377     887  	oct	377377377377,377377377377,377377377377,377344377377
    006553  aa   377377 377377
    006554  aa   377377 377377
    006555  aa   377344 377377
    006556  aa   377377 377377     888  	oct	377377377377,377377377377,377377377377,377377377377
    006557  aa   377377 377377
    006560  aa   377377 377377
    006561  aa   377377 377377
    006562  aa   377377 377377     889  	oct	377377377377,377377377377,377377377377,377377377377
    006563  aa   377377 377377
    006564  aa   377377 377377
    006565  aa   377377 377377
    006566  aa   377377 377377     890  	oct	377377377377,377377377377,377377377377,377377377377
    006567  aa   377377 377377
    006570  aa   377377 377377
    006571  aa   377377 377377
    006572  aa   377377 377377     891  	oct	377377377377,377377377377,377377377377,377377377377
    006573  aa   377377 377377
    006574  aa   377377 377377
    006575  aa   377377 377377
    006576  aa   377377 377377     892  	oct	377377377377,377377377377,377377377377,377377377377
    006577  aa   377377 377377
    006600  aa   377377 377377
    006601  aa   377377 377377
    006602  aa   377377 377377     893  	oct	377377377377,377377377377,377377377377,377377377377
    006603  aa   377377 377377
    006604  aa   377377 377377
    006605  aa   377377 377377
    006606  aa   377377 377377     894  	oct	377377377377,377377377377,377377377377,377377377377
    006607  aa   377377 377377
    006610  aa   377377 377377
    006611  aa   377377 377377
    006612  aa   377377 377377     895  	oct	377377377377,344377377377,377377377377,377377377377
    006613  aa   344377 377377
    006614  aa   377377 377377
    006615  aa   377377 377377
    006616  aa   377377 377377     896  	oct	377377377377,377377377377,377377377377,377377377377
    006617  aa   377377 377377
    006620  aa   377377 377377
    006621  aa   377377 377377
    006622  aa   377377 377377     897  	oct	377377377377,377377377377,377377377377,377377377377
    006623  aa   377377 377377
    006624  aa   377377 377377
    006625  aa   377377 377377
    006626  aa   377377 377377     898  	oct	377377377377,377377377377,377377377377,377377377377
    006627  aa   377377 377377
    006630  aa   377377 377377
    006631  aa   377377 377377
    006632  aa   377377 377377     899  	oct	377377377377,377377377377,377377377377,377377377377
    006633  aa   377377 377377
    006634  aa   377377 377377
    006635  aa   377377 377377
    006636  aa   377377 377377     900  	oct	377377377377,377377377377,377377377377,377377377377
    006637  aa   377377 377377
    006640  aa   377377 377377
    006641  aa   377377 377377
    006642  aa   377377 377377     901  	oct	377377377377,377377377377,377377377377,377377377377
    006643  aa   377377 377377
    006644  aa   377377 377377
    006645  aa   377377 377377
    006646  aa   377377 377377     902  	oct	377377377377,377377377377,377377377377,377377377377
    006647  aa   377377 377377
    006650  aa   377377 377377
    006651  aa   377377 377377
    006652  aa   377377 377377     903  	oct	377377377377,377377377377,377377377377,377345377377
    006653  aa   377377 377377
    006654  aa   377377 377377
    006655  aa   377345 377377
    006656  aa   377377 377377     904  	oct	377377377377,377377377377,377377377377,377377377377
    006657  aa   377377 377377
    006660  aa   377377 377377
    006661  aa   377377 377377
    006662  aa   377377 377377     905  	oct	377377377377,377377377377,377377377377,377377377377
    006663  aa   377377 377377
    006664  aa   377377 377377
    006665  aa   377377 377377
    006666  aa   377377 377377     906  	oct	377377377377,377377377377,377377377377,377377377377
    006667  aa   377377 377377
    006670  aa   377377 377377
    006671  aa   377377 377377
    006672  aa   377377 377377     907  	oct	377377377377,377377377377,377377377377,377377377377
    006673  aa   377377 377377
    006674  aa   377377 377377
    006675  aa   377377 377377
    006676  aa   377377 377377     908  	oct	377377377377,377377377377,377377377377,377377377377
    006677  aa   377377 377377
    006700  aa   377377 377377
    006701  aa   377377 377377
    006702  aa   377377 377377     909  	oct	377377377377,377377377377,377377377377,377377377377
    006703  aa   377377 377377
    006704  aa   377377 377377
    006705  aa   377377 377377
    006706  aa   377377 377377     910  	oct	377377377377,377377377377,377377377377,377377377377
    006707  aa   377377 377377
    006710  aa   377377 377377
    006711  aa   377377 377377
    006712  aa   377377 377377     911  	oct	377377377377,377345377377,377377377377,377377377377
    006713  aa   377345 377377
    006714  aa   377377 377377
    006715  aa   377377 377377
    006716  aa   377377 377377     912  	oct	377377377377,377377377377,377377377377,377377377377
    006717  aa   377377 377377
    006720  aa   377377 377377
    006721  aa   377377 377377
    006722  aa   377377 377377     913  	oct	377377377377,377377377377,377377377377,377377377377
    006723  aa   377377 377377
    006724  aa   377377 377377
    006725  aa   377377 377377
    006726  aa   377377 377377     914  	oct	377377377377,377377377377,377377377377,377377377377
    006727  aa   377377 377377
    006730  aa   377377 377377
    006731  aa   377377 377377
    006732  aa   377377 377377     915  	oct	377377377377,377377377377,377377377377,377377377377
    006733  aa   377377 377377
    006734  aa   377377 377377
    006735  aa   377377 377377
    006736  aa   377377 377377     916  	oct	377377377377,377377377377,377377377377,377377377377
    006737  aa   377377 377377
    006740  aa   377377 377377
    006741  aa   377377 377377
    006742  aa   377377 377377     917  	oct	377377377377,377377377377,377377377377,377377377377
    006743  aa   377377 377377
    006744  aa   377377 377377
    006745  aa   377377 377377
    006746  aa   377377 377377     918  	oct	377377377377,377377377377,377377377377,377377377377
    006747  aa   377377 377377
    006750  aa   377377 377377
    006751  aa   377377 377377
    006752  aa   377377 377377     919  	oct	377377377377,377377377377,377377377377,377346377377
    006753  aa   377377 377377
    006754  aa   377377 377377
    006755  aa   377346 377377
    006756  aa   377377 377377     920  	oct	377377377377,377377377377,377377377377,377377377377
    006757  aa   377377 377377
    006760  aa   377377 377377
    006761  aa   377377 377377
    006762  aa   377377 377377     921  	oct	377377377377,377377377377,377377377377,377377377377
    006763  aa   377377 377377
    006764  aa   377377 377377
    006765  aa   377377 377377
    006766  aa   377377 377377     922  	oct	377377377377,377377377377,377377377377,377377377377
    006767  aa   377377 377377
    006770  aa   377377 377377
    006771  aa   377377 377377
    006772  aa   377377 377377     923  	oct	377377377377,377377377377,377377377377,377377377377
    006773  aa   377377 377377
    006774  aa   377377 377377
    006775  aa   377377 377377
    006776  aa   377377 377377     924  	oct	377377377377,377377377377,377377377377,377377377377
    006777  aa   377377 377377
    007000  aa   377377 377377
    007001  aa   377377 377377
    007002  aa   377377 377377     925  	oct	377377377377,377377377377,377377377377,377377377377
    007003  aa   377377 377377
    007004  aa   377377 377377
    007005  aa   377377 377377
    007006  aa   377377 377377     926  	oct	377377377377,377377377377,377377377377,377377377377
    007007  aa   377377 377377
    007010  aa   377377 377377
    007011  aa   377377 377377
    007012  aa   377377 377377     927  	oct	377377377377,377377346377,377377377377,377377377377
    007013  aa   377377 346377
    007014  aa   377377 377377
    007015  aa   377377 377377
    007016  aa   377377 377377     928  	oct	377377377377,377377377377,377377377377,377377377377
    007017  aa   377377 377377
    007020  aa   377377 377377
    007021  aa   377377 377377
    007022  aa   377377 377377     929  	oct	377377377377,377377377377,377377377377,377377377377
    007023  aa   377377 377377
    007024  aa   377377 377377
    007025  aa   377377 377377
    007026  aa   377377 377377     930  	oct	377377377377,377377377377,377377377377,377377377377
    007027  aa   377377 377377
    007030  aa   377377 377377
    007031  aa   377377 377377
    007032  aa   377377 377377     931  	oct	377377377377,377377377377,377377377377,377377377377
    007033  aa   377377 377377
    007034  aa   377377 377377
    007035  aa   377377 377377
    007036  aa   377377 377377     932  	oct	377377377377,377377377377,377377377377,377377377377
    007037  aa   377377 377377
    007040  aa   377377 377377
    007041  aa   377377 377377
    007042  aa   377377 377377     933  	oct	377377377377,377377377377,377377377377,377377377377
    007043  aa   377377 377377
    007044  aa   377377 377377
    007045  aa   377377 377377
    007046  aa   377377 377377     934  	oct	377377377377,377377377377,377377377377,377377377377
    007047  aa   377377 377377
    007050  aa   377377 377377
    007051  aa   377377 377377
    007052  aa   377377 377377     935  	oct	377377377377,377377377377,377377377377,377347377377
    007053  aa   377377 377377
    007054  aa   377377 377377
    007055  aa   377347 377377
    007056  aa   377377 377377     936  	oct	377377377377,377377377377,377377377377,377377377377
    007057  aa   377377 377377
    007060  aa   377377 377377
    007061  aa   377377 377377
    007062  aa   377377 377377     937  	oct	377377377377,377377377377,377377377377,377377377377
    007063  aa   377377 377377
    007064  aa   377377 377377
    007065  aa   377377 377377
    007066  aa   377377 377377     938  	oct	377377377377,377377377377,377377377377,377377377377
    007067  aa   377377 377377
    007070  aa   377377 377377
    007071  aa   377377 377377
    007072  aa   377377 377377     939  	oct	377377377377,377377377377,377377377377,377377377377
    007073  aa   377377 377377
    007074  aa   377377 377377
    007075  aa   377377 377377
    007076  aa   377377 377377     940  	oct	377377377377,377377377377,377377377377,377377377377
    007077  aa   377377 377377
    007100  aa   377377 377377
    007101  aa   377377 377377
    007102  aa   377377 377377     941  	oct	377377377377,377377377377,377377377377,377377377377
    007103  aa   377377 377377
    007104  aa   377377 377377
    007105  aa   377377 377377
    007106  aa   377377 377377     942  	oct	377377377377,377377377377,377377377377,377377377377
    007107  aa   377377 377377
    007110  aa   377377 377377
    007111  aa   377377 377377
    007112  aa   377377 377377     943  	oct	377377377377,377377377347,377377377377,377377377377
    007113  aa   377377 377347
    007114  aa   377377 377377
    007115  aa   377377 377377
    007116  aa   377377 377377     944  	oct	377377377377,377377377377,377377377377,377377377377
    007117  aa   377377 377377
    007120  aa   377377 377377
    007121  aa   377377 377377
    007122  aa   377377 377377     945  	oct	377377377377,377377377377,377377377377,377377377377
    007123  aa   377377 377377
    007124  aa   377377 377377
    007125  aa   377377 377377
    007126  aa   377377 377377     946  	oct	377377377377,377377377377,377377377377,377377377377
    007127  aa   377377 377377
    007130  aa   377377 377377
    007131  aa   377377 377377
    007132  aa   377377 377377     947  	oct	377377377377,377377377377,377377377377,377377377377
    007133  aa   377377 377377
    007134  aa   377377 377377
    007135  aa   377377 377377
    007136  aa   377377 377377     948  	oct	377377377377,377377377377,377377377377,377377377377
    007137  aa   377377 377377
    007140  aa   377377 377377
    007141  aa   377377 377377
    007142  aa   377377 377377     949  	oct	377377377377,377377377377,377377377377,377377377377
    007143  aa   377377 377377
    007144  aa   377377 377377
    007145  aa   377377 377377
    007146  aa   377377 377377     950  	oct	377377377377,377377377377,377377377377,377377377377
    007147  aa   377377 377377
    007150  aa   377377 377377
    007151  aa   377377 377377
    007152  aa   377377 377377     951  	oct	377377377377,377377377377,377377377377,377350377377
    007153  aa   377377 377377
    007154  aa   377377 377377
    007155  aa   377350 377377
    007156  aa   377377 377377     952  	oct	377377377377,377377377377,377377377377,377377377377
    007157  aa   377377 377377
    007160  aa   377377 377377
    007161  aa   377377 377377
    007162  aa   377377 377377     953  	oct	377377377377,377377377377,377377377377,377377377377
    007163  aa   377377 377377
    007164  aa   377377 377377
    007165  aa   377377 377377
    007166  aa   377377 377377     954  	oct	377377377377,377377377377,377377377377,377377377377
    007167  aa   377377 377377
    007170  aa   377377 377377
    007171  aa   377377 377377
    007172  aa   377377 377377     955  	oct	377377377377,377377377377,377377377377,377377377377
    007173  aa   377377 377377
    007174  aa   377377 377377
    007175  aa   377377 377377
    007176  aa   377377 377377     956  	oct	377377377377,377377377377,377377377377,377377377377
    007177  aa   377377 377377
    007200  aa   377377 377377
    007201  aa   377377 377377
    007202  aa   377377 377377     957  	oct	377377377377,377377377377,377377377377,377377377377
    007203  aa   377377 377377
    007204  aa   377377 377377
    007205  aa   377377 377377
    007206  aa   377377 377377     958  	oct	377377377377,377377377377,377377377377,377377377377
    007207  aa   377377 377377
    007210  aa   377377 377377
    007211  aa   377377 377377
    007212  aa   377377 377377     959  	oct	377377377377,377377377377,350377377377,377377377377
    007213  aa   377377 377377
    007214  aa   350377 377377
    007215  aa   377377 377377
    007216  aa   377377 377377     960  	oct	377377377377,377377377377,377377377377,377377377377
    007217  aa   377377 377377
    007220  aa   377377 377377
    007221  aa   377377 377377
    007222  aa   377377 377377     961  	oct	377377377377,377377377377,377377377377,377377377377
    007223  aa   377377 377377
    007224  aa   377377 377377
    007225  aa   377377 377377
    007226  aa   377377 377377     962  	oct	377377377377,377377377377,377377377377,377377377377
    007227  aa   377377 377377
    007230  aa   377377 377377
    007231  aa   377377 377377
    007232  aa   377377 377377     963  	oct	377377377377,377377377377,377377377377,377377377377
    007233  aa   377377 377377
    007234  aa   377377 377377
    007235  aa   377377 377377
    007236  aa   377377 377377     964  	oct	377377377377,377377377377,377377377377,377377377377
    007237  aa   377377 377377
    007240  aa   377377 377377
    007241  aa   377377 377377
    007242  aa   377377 377377     965  	oct	377377377377,377377377377,377377377377,377377377377
    007243  aa   377377 377377
    007244  aa   377377 377377
    007245  aa   377377 377377
    007246  aa   377377 377377     966  	oct	377377377377,377377377377,377377377377,377377377377
    007247  aa   377377 377377
    007250  aa   377377 377377
    007251  aa   377377 377377
    007252  aa   377377 377377     967  	oct	377377377377,377377377377,377377377377,377351377377
    007253  aa   377377 377377
    007254  aa   377377 377377
    007255  aa   377351 377377
    007256  aa   377377 377377     968  	oct	377377377377,377377377377,377377377377,377377377377
    007257  aa   377377 377377
    007260  aa   377377 377377
    007261  aa   377377 377377
    007262  aa   377377 377377     969  	oct	377377377377,377377377377,377377377377,377377377377
    007263  aa   377377 377377
    007264  aa   377377 377377
    007265  aa   377377 377377
    007266  aa   377377 377377     970  	oct	377377377377,377377377377,377377377377,377377377377
    007267  aa   377377 377377
    007270  aa   377377 377377
    007271  aa   377377 377377
    007272  aa   377377 377377     971  	oct	377377377377,377377377377,377377377377,377377377377
    007273  aa   377377 377377
    007274  aa   377377 377377
    007275  aa   377377 377377
    007276  aa   377377 377377     972  	oct	377377377377,377377377377,377377377377,377377377377
    007277  aa   377377 377377
    007300  aa   377377 377377
    007301  aa   377377 377377
    007302  aa   377377 377377     973  	oct	377377377377,377377377377,377377377377,377377377377
    007303  aa   377377 377377
    007304  aa   377377 377377
    007305  aa   377377 377377
    007306  aa   377377 377377     974  	oct	377377377377,377377377377,377377377377,377377377377
    007307  aa   377377 377377
    007310  aa   377377 377377
    007311  aa   377377 377377
    007312  aa   377377 377377     975  	oct	377377377377,377377377377,377351377377,377377377377
    007313  aa   377377 377377
    007314  aa   377351 377377
    007315  aa   377377 377377
    007316  aa   377377 377377     976  	oct	377377377377,377377377377,377377377377,377377377377
    007317  aa   377377 377377
    007320  aa   377377 377377
    007321  aa   377377 377377
    007322  aa   377377 377377     977  	oct	377377377377,377377377377,377377377377,377377377377
    007323  aa   377377 377377
    007324  aa   377377 377377
    007325  aa   377377 377377
    007326  aa   377377 377377     978  	oct	377377377377,377377377377,377377377377,377377377377
    007327  aa   377377 377377
    007330  aa   377377 377377
    007331  aa   377377 377377
    007332  aa   377377 377377     979  	oct	377377377377,377377377377,377377377377,377377377377
    007333  aa   377377 377377
    007334  aa   377377 377377
    007335  aa   377377 377377
    007336  aa   377377 377377     980  	oct	377377377377,377377377377,377377377377,377377377377
    007337  aa   377377 377377
    007340  aa   377377 377377
    007341  aa   377377 377377
    007342  aa   377377 377377     981  	oct	377377377377,377377377377,377377377377,377377377377
    007343  aa   377377 377377
    007344  aa   377377 377377
    007345  aa   377377 377377
    007346  aa   377377 377377     982  	oct	377377377377,377377377377,377377377377,377377377377
    007347  aa   377377 377377
    007350  aa   377377 377377
    007351  aa   377377 377377
    007352  aa   377377 377377     983  	oct	377377377377,377377377377,377377377377,377255377377
    007353  aa   377377 377377
    007354  aa   377377 377377
    007355  aa   377255 377377
    007356  aa   377377 377377     984  	oct	377377377377,377377377377,377377377377,377377377377
    007357  aa   377377 377377
    007360  aa   377377 377377
    007361  aa   377377 377377
    007362  aa   377377 377377     985  	oct	377377377377,377377377377,377377377377,377377377377
    007363  aa   377377 377377
    007364  aa   377377 377377
    007365  aa   377377 377377
    007366  aa   377377 377377     986  	oct	377377377377,377377377377,377377377377,377377377377
    007367  aa   377377 377377
    007370  aa   377377 377377
    007371  aa   377377 377377
    007372  aa   377377 377377     987  	oct	377377377377,377377377377,377377377377,377255377377
    007373  aa   377377 377377
    007374  aa   377377 377377
    007375  aa   377255 377377
    007376  aa   377377 377377     988  	oct	377377377377,377377377377,377377377377,377377377377
    007377  aa   377377 377377
    007400  aa   377377 377377
    007401  aa   377377 377377
    007402  aa   377377 377377     989  	oct	377377377377,377377377377,377377377377,377377377377
    007403  aa   377377 377377
    007404  aa   377377 377377
    007405  aa   377377 377377
    007406  aa   377377 377377     990  	oct	377377377377,377377377377,377377377377,377377377377
    007407  aa   377377 377377
    007410  aa   377377 377377
    007411  aa   377377 377377
    007412  aa   377377 377377     991  	oct	377377377377,377377377377,377377377377,377377377377
    007413  aa   377377 377377
    007414  aa   377377 377377
    007415  aa   377377 377377
    007416  aa   377377 377377     992  	oct	377377377377,377377377377,377377377377,377377377377
    007417  aa   377377 377377
    007420  aa   377377 377377
    007421  aa   377377 377377
    007422  aa   377377 377377     993  	oct	377377377377,377377377377,377377377377,377377377377
    007423  aa   377377 377377
    007424  aa   377377 377377
    007425  aa   377377 377377
    007426  aa   377377 377377     994  	oct	377377377377,377377377377,377377377377,377377377377
    007427  aa   377377 377377
    007430  aa   377377 377377
    007431  aa   377377 377377
    007432  aa   377377 377377     995  	oct	377377377377,377377377377,377377377377,377377377377
    007433  aa   377377 377377
    007434  aa   377377 377377
    007435  aa   377377 377377
    007436  aa   377377 377377     996  	oct	377377377377,377377377377,377377377377,377377377377
    007437  aa   377377 377377
    007440  aa   377377 377377
    007441  aa   377377 377377
    007442  aa   377377 377377     997  	oct	377377377377,377377377377,377377377377,377377377377
    007443  aa   377377 377377
    007444  aa   377377 377377
    007445  aa   377377 377377
    007446  aa   377377 377377     998  	oct	377377377377,377377377377,377377377377,377377377377
    007447  aa   377377 377377
    007450  aa   377377 377377
    007451  aa   377377 377377
    007452  aa   377377 377377     999  	oct	377377377377,377377377377,377377377377,377340377377
    007453  aa   377377 377377
    007454  aa   377377 377377
    007455  aa   377340 377377
    007456  aa   377377 377377    1000  	oct	377377377377,377377377377,377377377377,377377377377
    007457  aa   377377 377377
    007460  aa   377377 377377
    007461  aa   377377 377377
    007462  aa   377377 377377    1001  	oct	377377377377,377377377377,377377377377,377377377377
    007463  aa   377377 377377
    007464  aa   377377 377377
    007465  aa   377377 377377
    007466  aa   377377 377377    1002  	oct	377377377377,377377377377,377377377377,377377377377
    007467  aa   377377 377377
    007470  aa   377377 377377
    007471  aa   377377 377377
    007472  aa   377377 377377    1003  	oct	377377377377,377377377377,377377377377,377377377377
    007473  aa   377377 377377
    007474  aa   377377 377377
    007475  aa   377377 377377
    007476  aa   377377 377377    1004  	oct	377377377377,377377377377,377377377377,377377377377
    007477  aa   377377 377377
    007500  aa   377377 377377
    007501  aa   377377 377377
    007502  aa   377377 377377    1005  	oct	377377377377,377377377377,377377377377,377377377377
    007503  aa   377377 377377
    007504  aa   377377 377377
    007505  aa   377377 377377
    007506  aa   377377 377377    1006  	oct	377377377377,377377377377,377377377377,377377377377
    007507  aa   377377 377377
    007510  aa   377377 377377
    007511  aa   377377 377377
    007512  aa   340377 377377    1007  	oct	340377377377,377377377377,377377377377,377377377377
    007513  aa   377377 377377
    007514  aa   377377 377377
    007515  aa   377377 377377
    007516  aa   377377 377377    1008  	oct	377377377377,377377377377,377377377377,377377377377
    007517  aa   377377 377377
    007520  aa   377377 377377
    007521  aa   377377 377377
    007522  aa   377377 377377    1009  	oct	377377377377,377377377377,377377377377,377377377377
    007523  aa   377377 377377
    007524  aa   377377 377377
    007525  aa   377377 377377
    007526  aa   377377 377377    1010  	oct	377377377377,377377377377,377377377377,377377377377
    007527  aa   377377 377377
    007530  aa   377377 377377
    007531  aa   377377 377377
    007532  aa   377377 377377    1011  	oct	377377377377,377377377377,377377377377,377377377377
    007533  aa   377377 377377
    007534  aa   377377 377377
    007535  aa   377377 377377
    007536  aa   377377 377377    1012  	oct	377377377377,377377377377,377377377377,377377377377
    007537  aa   377377 377377
    007540  aa   377377 377377
    007541  aa   377377 377377
    007542  aa   377377 377377    1013  	oct	377377377377,377377377377,377377377377,377377377377
    007543  aa   377377 377377
    007544  aa   377377 377377
    007545  aa   377377 377377
    007546  aa   377377 377377    1014  	oct	377377377377,377377377377,377377377377,377377377377
    007547  aa   377377 377377
    007550  aa   377377 377377
    007551  aa   377377 377377
    007552  aa   377377 377377    1015  	oct	377377377377,377377377377,377377377377,377275377377
    007553  aa   377377 377377
    007554  aa   377377 377377
    007555  aa   377275 377377
    007556  aa   377377 377377    1016  	oct	377377377377,377377377377,377377377377,377377377377
    007557  aa   377377 377377
    007560  aa   377377 377377
    007561  aa   377377 377377
    007562  aa   377377 377377    1017  	oct	377377377377,377377377377,377377377377,377377377377
    007563  aa   377377 377377
    007564  aa   377377 377377
    007565  aa   377377 377377
    007566  aa   377377 377377    1018  	oct	377377377377,377377377377,377377377377,377377377377
    007567  aa   377377 377377
    007570  aa   377377 377377
    007571  aa   377377 377377
    007572  aa   377377 377377    1019  	oct	377377377377,377377377377,377377377377,377377377377
    007573  aa   377377 377377
    007574  aa   377377 377377
    007575  aa   377377 377377
    007576  aa   377377 377377    1020  	oct	377377377377,377377377377,377377377377,377275377377
    007577  aa   377377 377377
    007600  aa   377377 377377
    007601  aa   377275 377377
    007602  aa   377377 377377    1021  	oct	377377377377,377377377377,377377377377,377377377377
    007603  aa   377377 377377
    007604  aa   377377 377377
    007605  aa   377377 377377
    007606  aa   377377 377377    1022  	oct	377377377377,377377377377,377377377377,377377377377
    007607  aa   377377 377377
    007610  aa   377377 377377
    007611  aa   377377 377377
    007612  aa   377377 377377    1023  	oct	377377377377,377377377377,377377377377,377377377377
    007613  aa   377377 377377
    007614  aa   377377 377377
    007615  aa   377377 377377
    007616  aa   377377 377377    1024  	oct	377377377377,377377377377,377377377377,377377377377
    007617  aa   377377 377377
    007620  aa   377377 377377
    007621  aa   377377 377377
    007622  aa   377377 377377    1025  	oct	377377377377,377377377377,377377377377,377377377377
    007623  aa   377377 377377
    007624  aa   377377 377377
    007625  aa   377377 377377
    007626  aa   377377 377377    1026  	oct	377377377377,377377377377,377377377377,377377377377
    007627  aa   377377 377377
    007630  aa   377377 377377
    007631  aa   377377 377377
    007632  aa   377377 377377    1027  	oct	377377377377,377377377377,377377377377,377377377377
    007633  aa   377377 377377
    007634  aa   377377 377377
    007635  aa   377377 377377
    007636  aa   377377 377377    1028  	oct	377377377377,377377377377,377377377377,377075377377
    007637  aa   377377 377377
    007640  aa   377377 377377
    007641  aa   377075 377377
    007642  aa   377377 377377    1029  	oct	377377377377,377377377377,377377377377,377377377075
    007643  aa   377377 377377
    007644  aa   377377 377377
    007645  aa   377377 377075
    007646  aa   377377 377377    1030  	oct	377377377377,377377377377,377377377377,377377377137
    007647  aa   377377 377377
    007650  aa   377377 377377
    007651  aa   377377 377137
    007652  aa   377377 377377    1031  	oct	377377377377,377377377377,377377377377,377137377377
    007653  aa   377377 377377
    007654  aa   377377 377377
    007655  aa   377137 377377
    007656  aa   377377 377377    1032  	oct	377377377377,377377377377,377377377377,377377377377
    007657  aa   377377 377377
    007660  aa   377377 377377
    007661  aa   377377 377377
    007662  aa   377377 377377    1033  	oct	377377377377,377377377377,377377377377,377377377377
    007663  aa   377377 377377
    007664  aa   377377 377377
    007665  aa   377377 377377
    007666  aa   377377 377377    1034  	oct	377377377377,377377377377,377377377377,377377377377
    007667  aa   377377 377377
    007670  aa   377377 377377
    007671  aa   377377 377377
    007672  aa   377377 377377    1035  	oct	377377377377,377377377377,377377377377,377377377377
    007673  aa   377377 377377
    007674  aa   377377 377377
    007675  aa   377377 377377
    007676  aa   377377 377377    1036  	oct	377377377377,377377377377,377377377377,377377377377
    007677  aa   377377 377377
    007700  aa   377377 377377
    007701  aa   377377 377377
    007702  aa   377377 377377    1037  	oct	377377377377,377377377377,377377377377,377377377377
    007703  aa   377377 377377
    007704  aa   377377 377377
    007705  aa   377377 377377
    007706  aa   377377 377377    1038  	oct	377377377377,377377377377,377377377377,377377377377
    007707  aa   377377 377377
    007710  aa   377377 377377
    007711  aa   377377 377377
    007712  aa   377377 377377    1039  	oct	377377377377,377377377377,377377377377,377377377377
    007713  aa   377377 377377
    007714  aa   377377 377377
    007715  aa   377377 377377
    007716  aa   377377 377377    1040  	oct	377377377377,377377377377,377377377377,377377377377
    007717  aa   377377 377377
    007720  aa   377377 377377
    007721  aa   377377 377377
    007722  aa   377377 377377    1041  	oct	377377377377,377377377007,377377377377,377377377377
    007723  aa   377377 377007
    007724  aa   377377 377377
    007725  aa   377377 377377
    007726  aa   377021 377377    1042  	oct	377021377377,377377377377,377377377377,377377377377
    007727  aa   377377 377377
    007730  aa   377377 377377
    007731  aa   377377 377377
    007732  aa   377377 377377    1043  	oct	377377377377,377377377377,377377377377,377377377377
    007733  aa   377377 377377
    007734  aa   377377 377377
    007735  aa   377377 377377
    007736  aa   377377 062377    1044  	oct	377377062377,377377377377,377377377377,377075377377
    007737  aa   377377 377377
    007740  aa   377377 377377
    007741  aa   377075 377377
    007742  aa   377377 377377    1045  	oct	377377377377,377377377377,377377112113,114115116117
    007743  aa   377377 377377
    007744  aa   377377 112113
    007745  aa   114115 116117
    007746  aa   120377 377377    1046  	oct	120377377377,377377377377,377377132133,134135136137
    007747  aa   377377 377377
    007750  aa   377377 132133
    007751  aa   134135 136137
    007752  aa   140141 377377    1047  	oct	140141377377,377377377377,377377377153,154155156157
    007753  aa   377377 377377
    007754  aa   377377 377153
    007755  aa   154155 156157
    007756  aa   377377 377377    1048  	oct	377377377377,377377377377,377377172173,174175176177
    007757  aa   377377 377377
    007760  aa   377377 172173
    007761  aa   174175 176177
    007762  aa   377201 202203    1049  	oct	377201202203,204205206207,210211377213,214377377217
    007763  aa   204205 206207
    007764  aa   210211 377213
    007765  aa   214377 377217
    007766  aa   377221 222223    1050  	oct	377221222223,224225226227,230231377233,377377377377
    007767  aa   224225 226227
    007770  aa   230231 377233
    007771  aa   377377 377377
    007772  aa   377377 242243    1051  	oct	377377242243,244245246247,250251377377,377255256377
    007773  aa   244245 246247
    007774  aa   250251 377377
    007775  aa   377255 256377
    007776  aa   377377 377377    1052  	oct	377377377377,377377377377,377377377377,377275276377
    007777  aa   377377 377377
    010000  aa   377377 377377
    010001  aa   377275 276377
    010002  aa   377301 302303    1053  	oct	377301302303,304305306307,310311377377,377377377377
    010003  aa   304305 306307
    010004  aa   310311 377377
    010005  aa   377377 377377
    010006  aa   377321 322323    1054  	oct	377321322323,324325326327,330331377377,377377377377
    010007  aa   324325 326327
    010010  aa   330331 377377
    010011  aa   377377 377377
    010012  aa   340377 342343    1055  	oct	340377342343,344345346347,350351377377,377377377377
    010013  aa   344345 346347
    010014  aa   350351 377377
    010015  aa   377377 377377
    010016  aa   360361 362363    1056  	oct	360361362363,364365366367,370371377377,377377377377
    010017  aa   364365 366367
    010020  aa   370371 377377
    010021  aa   377377 377377
    010022  aa   377377 377377    1057  	oct	377377377377,377377377377,377377377377,377377377377
    010023  aa   377377 377377
    010024  aa   377377 377377
    010025  aa   377377 377377
    010026  aa   377377 377377    1058  	oct	377377377377,377377377377,377377377377,377377377377
    010027  aa   377377 377377
    010030  aa   377377 377377
    010031  aa   377377 377377
    010032  aa   377377 377377    1059  	oct	377377377377,377377377377,377377377377,377377377377
    010033  aa   377377 377377
    010034  aa   377377 377377
    010035  aa   377377 377377
    010036  aa   377377 377377    1060  	oct	377377377377,377377377377,377377377377,377377377377
    010037  aa   377377 377377
    010040  aa   377377 377377
    010041  aa   377377 377377
    010042  aa   377377 377377    1061  	oct	377377377377,377377377377,377377377377,377377377377
    010043  aa   377377 377377
    010044  aa   377377 377377
    010045  aa   377377 377377
    010046  aa   377377 377377    1062  	oct	377377377377,377377377377,377377377377,377377377377
    010047  aa   377377 377377
    010050  aa   377377 377377
    010051  aa   377377 377377
    010052  aa   377377 377377    1063  	oct	377377377377,377377377377,377377377377,377377377377
    010053  aa   377377 377377
    010054  aa   377377 377377
    010055  aa   377377 377377
    010056  aa   377377 377377    1064  	oct	377377377377,377377377377,377377377377,377377377377
    010057  aa   377377 377377
    010060  aa   377377 377377
    010061  aa   377377 377377
    010062  aa   377377 377377    1065  	oct	377377377377,377377377377,377377377377,377377377377
    010063  aa   377377 377377
    010064  aa   377377 377377
    010065  aa   377377 377377
    010066  aa   377377 377377    1066  	oct	377377377377,377377377377,377377377377,377377377377
    010067  aa   377377 377377
    010070  aa   377377 377377
    010071  aa   377377 377377
    010072  aa   377377 377377    1067  	oct	377377377377,377377377377,377377377377,377377377377
    010073  aa   377377 377377
    010074  aa   377377 377377
    010075  aa   377377 377377
    010076  aa   377377 377377    1068  	oct	377377377377,377377377377,377377377377,377377377377
    010077  aa   377377 377377
    010100  aa   377377 377377
    010101  aa   377377 377377
    010102  aa   377377 377377    1069  	oct	377377377377,377377377377,377377377377,377377377377
    010103  aa   377377 377377
    010104  aa   377377 377377
    010105  aa   377377 377377
    010106  aa   377377 377377    1070  	oct	377377377377,377377377377,377377377377,377377377377
    010107  aa   377377 377377
    010110  aa   377377 377377
    010111  aa   377377 377377
    010112  aa   377377 377377    1071  	oct	377377377377,377377377377,377377377377,377377377377
    010113  aa   377377 377377
    010114  aa   377377 377377
    010115  aa   377377 377377
    010116  aa   377377 377377    1072  	oct	377377377377,377377377377,377377377377,377377377377
    010117  aa   377377 377377
    010120  aa   377377 377377
    010121  aa   377377 377377
    010122  aa   377377 377377    1073  	oct	377377377377,377377377377,377377377377,377377377377
    010123  aa   377377 377377
    010124  aa   377377 377377
    010125  aa   377377 377377
    010126  aa   377377 377377    1074  	oct	377377377377,377377377377,377377377377,377377377377
    010127  aa   377377 377377
    010130  aa   377377 377377
    010131  aa   377377 377377
    010132  aa   377377 377377    1075  	oct	377377377377,377377377377,377377377377,377377377377
    010133  aa   377377 377377
    010134  aa   377377 377377
    010135  aa   377377 377377
    010136  aa   377377 377377    1076  	oct	377377377377,377377377377,377377377377,377377377377
    010137  aa   377377 377377
    010140  aa   377377 377377
    010141  aa   377377 377377
    010142  aa   377377 377377    1077  	oct	377377377377,377377377377,377377377377,377377377377
    010143  aa   377377 377377
    010144  aa   377377 377377
    010145  aa   377377 377377
    010146  aa   377377 377377    1078  	oct	377377377377,377377377377,377377377377,377377377377
    010147  aa   377377 377377
    010150  aa   377377 377377
    010151  aa   377377 377377
    010152  aa   377377 377377    1079  	oct	377377377377,377377377377,377377377377,377201377377
    010153  aa   377377 377377
    010154  aa   377377 377377
    010155  aa   377201 377377
    010156  aa   377377 377377    1080  	oct	377377377377,377377377377,377377377377,377377377377
    010157  aa   377377 377377
    010160  aa   377377 377377
    010161  aa   377377 377377
    010162  aa   377201 377377    1081  	oct	377201377377,377377377377,377377377377,377377377377
    010163  aa   377377 377377
    010164  aa   377377 377377
    010165  aa   377377 377377
    010166  aa   377377 377377    1082  	oct	377377377377,377377377377,377377377377,377377377377
    010167  aa   377377 377377
    010170  aa   377377 377377
    010171  aa   377377 377377
    010172  aa   377377 377377    1083  	oct	377377377377,377377377377,377377377377,377377377377
    010173  aa   377377 377377
    010174  aa   377377 377377
    010175  aa   377377 377377
    010176  aa   377377 377377    1084  	oct	377377377377,377377377377,377377377377,377377377377
    010177  aa   377377 377377
    010200  aa   377377 377377
    010201  aa   377377 377377
    010202  aa   377377 377377    1085  	oct	377377377377,377377377377,377377377377,377377377377
    010203  aa   377377 377377
    010204  aa   377377 377377
    010205  aa   377377 377377
    010206  aa   377377 377377    1086  	oct	377377377377,377377377377,377377377377,377377377377
    010207  aa   377377 377377
    010210  aa   377377 377377
    010211  aa   377377 377377
    010212  aa   377377 377377    1087  	oct	377377377377,377377377377,377377377377,377377377377
    010213  aa   377377 377377
    010214  aa   377377 377377
    010215  aa   377377 377377
    010216  aa   377377 377377    1088  	oct	377377377377,377377377377,377377377377,377377377377
    010217  aa   377377 377377
    010220  aa   377377 377377
    010221  aa   377377 377377
    010222  aa   377377 377377    1089  	oct	377377377377,377377377377,377377377377,377377377377
    010223  aa   377377 377377
    010224  aa   377377 377377
    010225  aa   377377 377377
    010226  aa   377377 377377    1090  	oct	377377377377,377377377377,377377377377,377377377377
    010227  aa   377377 377377
    010230  aa   377377 377377
    010231  aa   377377 377377
    010232  aa   377377 377377    1091  	oct	377377377377,377377377377,377377377377,377377377377
    010233  aa   377377 377377
    010234  aa   377377 377377
    010235  aa   377377 377377
    010236  aa   377377 377377    1092  	oct	377377377377,377377377377,377377377377,377377377377
    010237  aa   377377 377377
    010240  aa   377377 377377
    010241  aa   377377 377377
    010242  aa   377377 377377    1093  	oct	377377377377,377377377377,377377377377,377377377377
    010243  aa   377377 377377
    010244  aa   377377 377377
    010245  aa   377377 377377
    010246  aa   377377 377377    1094  	oct	377377377377,377377377377,377377377377,377377377377
    010247  aa   377377 377377
    010250  aa   377377 377377
    010251  aa   377377 377377
    010252  aa   377377 377377    1095  	oct	377377377377,377377377377,377377377377,377202377377
    010253  aa   377377 377377
    010254  aa   377377 377377
    010255  aa   377202 377377
    010256  aa   377377 377377    1096  	oct	377377377377,377377377377,377377377377,377377377377
    010257  aa   377377 377377
    010260  aa   377377 377377
    010261  aa   377377 377377
    010262  aa   377377 202377    1097  	oct	377377202377,377377377377,377377377377,377377377377
    010263  aa   377377 377377
    010264  aa   377377 377377
    010265  aa   377377 377377
    010266  aa   377377 377377    1098  	oct	377377377377,377377377377,377377377377,377377377377
    010267  aa   377377 377377
    010270  aa   377377 377377
    010271  aa   377377 377377
    010272  aa   377377 377377    1099  	oct	377377377377,377377377377,377377377377,377377377377
    010273  aa   377377 377377
    010274  aa   377377 377377
    010275  aa   377377 377377
    010276  aa   377377 377377    1100  	oct	377377377377,377377377377,377377377377,377377377377
    010277  aa   377377 377377
    010300  aa   377377 377377
    010301  aa   377377 377377
    010302  aa   377377 377377    1101  	oct	377377377377,377377377377,377377377377,377377377377
    010303  aa   377377 377377
    010304  aa   377377 377377
    010305  aa   377377 377377
    010306  aa   377377 377377    1102  	oct	377377377377,377377377377,377377377377,377377377377
    010307  aa   377377 377377
    010310  aa   377377 377377
    010311  aa   377377 377377
    010312  aa   377377 377377    1103  	oct	377377377377,377377377377,377377377377,377377377377
    010313  aa   377377 377377
    010314  aa   377377 377377
    010315  aa   377377 377377
    010316  aa   377377 377377    1104  	oct	377377377377,377377377377,377377377377,377377377377
    010317  aa   377377 377377
    010320  aa   377377 377377
    010321  aa   377377 377377
    010322  aa   377377 377377    1105  	oct	377377377377,377377377377,377377377377,377377377377
    010323  aa   377377 377377
    010324  aa   377377 377377
    010325  aa   377377 377377
    010326  aa   377377 377377    1106  	oct	377377377377,377377377377,377377377377,377377377377
    010327  aa   377377 377377
    010330  aa   377377 377377
    010331  aa   377377 377377
    010332  aa   377377 377377    1107  	oct	377377377377,377377377377,377377377377,377377377377
    010333  aa   377377 377377
    010334  aa   377377 377377
    010335  aa   377377 377377
    010336  aa   377377 377377    1108  	oct	377377377377,377377377377,377377377377,377377377377
    010337  aa   377377 377377
    010340  aa   377377 377377
    010341  aa   377377 377377
    010342  aa   377377 377377    1109  	oct	377377377377,377377377377,377377112377,377377377112
    010343  aa   377377 377377
    010344  aa   377377 112377
    010345  aa   377377 377112
    010346  aa   377377 377377    1110  	oct	377377377377,377377377377,377377377377,377377377377
    010347  aa   377377 377377
    010350  aa   377377 377377
    010351  aa   377377 377377
    010352  aa   377377 377377    1111  	oct	377377377377,377377377377,377377377377,377203377377
    010353  aa   377377 377377
    010354  aa   377377 377377
    010355  aa   377203 377377
    010356  aa   377377 377377    1112  	oct	377377377377,377377377377,377377377377,377377377377
    010357  aa   377377 377377
    010360  aa   377377 377377
    010361  aa   377377 377377
    010362  aa   377377 377203    1113  	oct	377377377203,377377377377,377377377377,377377377377
    010363  aa   377377 377377
    010364  aa   377377 377377
    010365  aa   377377 377377
    010366  aa   377377 377377    1114  	oct	377377377377,377377377377,377377377377,377377377377
    010367  aa   377377 377377
    010370  aa   377377 377377
    010371  aa   377377 377377
    010372  aa   377377 377377    1115  	oct	377377377377,377377377377,377377377377,377377377377
    010373  aa   377377 377377
    010374  aa   377377 377377
    010375  aa   377377 377377
    010376  aa   377377 377377    1116  	oct	377377377377,377377377377,377377377377,377377377377
    010377  aa   377377 377377
    010400  aa   377377 377377
    010401  aa   377377 377377
    010402  aa   377377 377377    1117  	oct	377377377377,377377377377,377377377377,377377377377
    010403  aa   377377 377377
    010404  aa   377377 377377
    010405  aa   377377 377377
    010406  aa   377377 377377    1118  	oct	377377377377,377377377377,377377377377,377377377377
    010407  aa   377377 377377
    010410  aa   377377 377377
    010411  aa   377377 377377
    010412  aa   377377 377377    1119  	oct	377377377377,377377377377,377377377377,377377377377
    010413  aa   377377 377377
    010414  aa   377377 377377
    010415  aa   377377 377377
    010416  aa   377377 377377    1120  	oct	377377377377,377377377377,377377377377,377377377377
    010417  aa   377377 377377
    010420  aa   377377 377377
    010421  aa   377377 377377
    010422  aa   377377 377377    1121  	oct	377377377377,377377377377,377377377377,377377377377
    010423  aa   377377 377377
    010424  aa   377377 377377
    010425  aa   377377 377377
    010426  aa   377377 377377    1122  	oct	377377377377,377377377377,377377377377,377377377377
    010427  aa   377377 377377
    010430  aa   377377 377377
    010431  aa   377377 377377
    010432  aa   377377 377377    1123  	oct	377377377377,377377377377,377377377377,377377377377
    010433  aa   377377 377377
    010434  aa   377377 377377
    010435  aa   377377 377377
    010436  aa   377377 377377    1124  	oct	377377377377,377377377377,377377377377,377377377377
    010437  aa   377377 377377
    010440  aa   377377 377377
    010441  aa   377377 377377
    010442  aa   377377 377377    1125  	oct	377377377377,377377377377,377377377377,377377377377
    010443  aa   377377 377377
    010444  aa   377377 377377
    010445  aa   377377 377377
    010446  aa   377377 377377    1126  	oct	377377377377,377377377377,377377377377,377377377377
    010447  aa   377377 377377
    010450  aa   377377 377377
    010451  aa   377377 377377
    010452  aa   377377 377377    1127  	oct	377377377377,377377377377,377377377377,377204377377
    010453  aa   377377 377377
    010454  aa   377377 377377
    010455  aa   377204 377377
    010456  aa   377377 377377    1128  	oct	377377377377,377377377377,377377377377,377377377377
    010457  aa   377377 377377
    010460  aa   377377 377377
    010461  aa   377377 377377
    010462  aa   377377 377377    1129  	oct	377377377377,204377377377,377377377377,377377377377
    010463  aa   204377 377377
    010464  aa   377377 377377
    010465  aa   377377 377377
    010466  aa   377377 377377    1130  	oct	377377377377,377377377377,377377377377,377377377377
    010467  aa   377377 377377
    010470  aa   377377 377377
    010471  aa   377377 377377
    010472  aa   377377 377377    1131  	oct	377377377377,377377377377,377377377377,377377377377
    010473  aa   377377 377377
    010474  aa   377377 377377
    010475  aa   377377 377377
    010476  aa   377377 377377    1132  	oct	377377377377,377377377377,377377377377,377377377377
    010477  aa   377377 377377
    010500  aa   377377 377377
    010501  aa   377377 377377
    010502  aa   377377 377377    1133  	oct	377377377377,377377377377,377377377377,377377377377
    010503  aa   377377 377377
    010504  aa   377377 377377
    010505  aa   377377 377377
    010506  aa   377377 377377    1134  	oct	377377377377,377377377377,377377377377,377377377377
    010507  aa   377377 377377
    010510  aa   377377 377377
    010511  aa   377377 377377
    010512  aa   377377 377377    1135  	oct	377377377377,377377377377,377377377377,377377377377
    010513  aa   377377 377377
    010514  aa   377377 377377
    010515  aa   377377 377377
    010516  aa   377377 377377    1136  	oct	377377377377,377377377377,377377377377,377377377377
    010517  aa   377377 377377
    010520  aa   377377 377377
    010521  aa   377377 377377
    010522  aa   377377 377377    1137  	oct	377377377377,377377377377,377377377377,377377377377
    010523  aa   377377 377377
    010524  aa   377377 377377
    010525  aa   377377 377377
    010526  aa   377377 377377    1138  	oct	377377377377,377377377377,377377377377,377377377377
    010527  aa   377377 377377
    010530  aa   377377 377377
    010531  aa   377377 377377
    010532  aa   377377 377377    1139  	oct	377377377377,377377377377,377377377377,377377377377
    010533  aa   377377 377377
    010534  aa   377377 377377
    010535  aa   377377 377377
    010536  aa   377377 377377    1140  	oct	377377377377,377377377377,377377377377,377377377377
    010537  aa   377377 377377
    010540  aa   377377 377377
    010541  aa   377377 377377
    010542  aa   377377 377377    1141  	oct	377377377377,377377377377,377377377377,377377377377
    010543  aa   377377 377377
    010544  aa   377377 377377
    010545  aa   377377 377377
    010546  aa   377377 377377    1142  	oct	377377377377,377377377377,377377377377,377377377377
    010547  aa   377377 377377
    010550  aa   377377 377377
    010551  aa   377377 377377
    010552  aa   377377 377377    1143  	oct	377377377377,377377377377,377377377377,377205377377
    010553  aa   377377 377377
    010554  aa   377377 377377
    010555  aa   377205 377377
    010556  aa   377377 377377    1144  	oct	377377377377,377377377377,377377377377,377377377377
    010557  aa   377377 377377
    010560  aa   377377 377377
    010561  aa   377377 377377
    010562  aa   377377 377377    1145  	oct	377377377377,377205377377,377377377377,377377377377
    010563  aa   377205 377377
    010564  aa   377377 377377
    010565  aa   377377 377377
    010566  aa   377377 377377    1146  	oct	377377377377,377377377377,377377377377,377377377377
    010567  aa   377377 377377
    010570  aa   377377 377377
    010571  aa   377377 377377
    010572  aa   377377 377377    1147  	oct	377377377377,377377377377,377377377377,377377377377
    010573  aa   377377 377377
    010574  aa   377377 377377
    010575  aa   377377 377377
    010576  aa   377377 377377    1148  	oct	377377377377,377377377377,377377377377,377377377377
    010577  aa   377377 377377
    010600  aa   377377 377377
    010601  aa   377377 377377
    010602  aa   377377 377377    1149  	oct	377377377377,377377377377,377377377377,377377377377
    010603  aa   377377 377377
    010604  aa   377377 377377
    010605  aa   377377 377377
    010606  aa   377377 377377    1150  	oct	377377377377,377377377377,377377377377,377377377377
    010607  aa   377377 377377
    010610  aa   377377 377377
    010611  aa   377377 377377
    010612  aa   377377 377377    1151  	oct	377377377377,377377377377,377377377377,377377377377
    010613  aa   377377 377377
    010614  aa   377377 377377
    010615  aa   377377 377377
    010616  aa   377377 377377    1152  	oct	377377377377,377377377377,377377377377,377377377377
    010617  aa   377377 377377
    010620  aa   377377 377377
    010621  aa   377377 377377
    010622  aa   377377 377377    1153  	oct	377377377377,377377377377,377377377377,377377377377
    010623  aa   377377 377377
    010624  aa   377377 377377
    010625  aa   377377 377377
    010626  aa   377377 377377    1154  	oct	377377377377,377377377377,377377377377,377377377377
    010627  aa   377377 377377
    010630  aa   377377 377377
    010631  aa   377377 377377
    010632  aa   377377 377377    1155  	oct	377377377377,377377377377,377377377377,377377377377
    010633  aa   377377 377377
    010634  aa   377377 377377
    010635  aa   377377 377377
    010636  aa   377377 377377    1156  	oct	377377377377,377377377377,377377377377,377377377377
    010637  aa   377377 377377
    010640  aa   377377 377377
    010641  aa   377377 377377
    010642  aa   377377 377377    1157  	oct	377377377377,377377377377,377377377377,377377377377
    010643  aa   377377 377377
    010644  aa   377377 377377
    010645  aa   377377 377377
    010646  aa   377377 377377    1158  	oct	377377377377,377377377377,377377377377,377377377377
    010647  aa   377377 377377
    010650  aa   377377 377377
    010651  aa   377377 377377
    010652  aa   377377 377377    1159  	oct	377377377377,377377377377,377377377377,377206377377
    010653  aa   377377 377377
    010654  aa   377377 377377
    010655  aa   377206 377377
    010656  aa   377377 377377    1160  	oct	377377377377,377377377377,377377377377,377377377377
    010657  aa   377377 377377
    010660  aa   377377 377377
    010661  aa   377377 377377
    010662  aa   377377 377377    1161  	oct	377377377377,377377206377,377377377377,377377377377
    010663  aa   377377 206377
    010664  aa   377377 377377
    010665  aa   377377 377377
    010666  aa   377377 377377    1162  	oct	377377377377,377377377377,377377377377,377377377377
    010667  aa   377377 377377
    010670  aa   377377 377377
    010671  aa   377377 377377
    010672  aa   377377 377377    1163  	oct	377377377377,377377377377,377377377377,377377377377
    010673  aa   377377 377377
    010674  aa   377377 377377
    010675  aa   377377 377377
    010676  aa   377377 377377    1164  	oct	377377377377,377377377377,377377377377,377377377377
    010677  aa   377377 377377
    010700  aa   377377 377377
    010701  aa   377377 377377
    010702  aa   377377 377377    1165  	oct	377377377377,377377377377,377377377377,377377377377
    010703  aa   377377 377377
    010704  aa   377377 377377
    010705  aa   377377 377377
    010706  aa   377377 377377    1166  	oct	377377377377,377377377377,377377377377,377377377377
    010707  aa   377377 377377
    010710  aa   377377 377377
    010711  aa   377377 377377
    010712  aa   377377 377377    1167  	oct	377377377377,377377377377,377377377377,377377377377
    010713  aa   377377 377377
    010714  aa   377377 377377
    010715  aa   377377 377377
    010716  aa   377377 377377    1168  	oct	377377377377,377377377377,377377377377,377377377377
    010717  aa   377377 377377
    010720  aa   377377 377377
    010721  aa   377377 377377
    010722  aa   377377 377377    1169  	oct	377377377377,377377377377,377377377377,377377377377
    010723  aa   377377 377377
    010724  aa   377377 377377
    010725  aa   377377 377377
    010726  aa   377377 377377    1170  	oct	377377377377,377377377377,377377377377,377377377377
    010727  aa   377377 377377
    010730  aa   377377 377377
    010731  aa   377377 377377
    010732  aa   377377 377377    1171  	oct	377377377377,377377377377,377377377377,377377377377
    010733  aa   377377 377377
    010734  aa   377377 377377
    010735  aa   377377 377377
    010736  aa   377377 377377    1172  	oct	377377377377,377377377377,377377377377,377377377377
    010737  aa   377377 377377
    010740  aa   377377 377377
    010741  aa   377377 377377
    010742  aa   377377 377377    1173  	oct	377377377377,377377377377,377377377377,377377377377
    010743  aa   377377 377377
    010744  aa   377377 377377
    010745  aa   377377 377377
    010746  aa   377377 377377    1174  	oct	377377377377,377377377377,377377377377,377377377377
    010747  aa   377377 377377
    010750  aa   377377 377377
    010751  aa   377377 377377
    010752  aa   377377 377377    1175  	oct	377377377377,377377377377,377377377377,377207377377
    010753  aa   377377 377377
    010754  aa   377377 377377
    010755  aa   377207 377377
    010756  aa   377377 377377    1176  	oct	377377377377,377377377377,377377377377,377377377377
    010757  aa   377377 377377
    010760  aa   377377 377377
    010761  aa   377377 377377
    010762  aa   377377 377377    1177  	oct	377377377377,377377377207,377377377377,377377377377
    010763  aa   377377 377207
    010764  aa   377377 377377
    010765  aa   377377 377377
    010766  aa   377377 377377    1178  	oct	377377377377,377377377377,377377377377,377377377377
    010767  aa   377377 377377
    010770  aa   377377 377377
    010771  aa   377377 377377
    010772  aa   377377 377377    1179  	oct	377377377377,377377377377,377377377377,377377377377
    010773  aa   377377 377377
    010774  aa   377377 377377
    010775  aa   377377 377377
    010776  aa   377377 377377    1180  	oct	377377377377,377377377377,377377377377,377377377377
    010777  aa   377377 377377
    011000  aa   377377 377377
    011001  aa   377377 377377
    011002  aa   377377 377377    1181  	oct	377377377377,377377377377,377377377377,377377377377
    011003  aa   377377 377377
    011004  aa   377377 377377
    011005  aa   377377 377377
    011006  aa   377377 377377    1182  	oct	377377377377,377377377377,377377377377,377377377377
    011007  aa   377377 377377
    011010  aa   377377 377377
    011011  aa   377377 377377
    011012  aa   377377 377377    1183  	oct	377377377377,377377377377,377377377377,377377377377
    011013  aa   377377 377377
    011014  aa   377377 377377
    011015  aa   377377 377377
    011016  aa   377377 377377    1184  	oct	377377377377,377377377377,377377377377,377377377377
    011017  aa   377377 377377
    011020  aa   377377 377377
    011021  aa   377377 377377
    011022  aa   377377 377377    1185  	oct	377377377377,377377377377,377377377377,377377377377
    011023  aa   377377 377377
    011024  aa   377377 377377
    011025  aa   377377 377377
    011026  aa   377377 377377    1186  	oct	377377377377,377377377377,377377377377,377377377377
    011027  aa   377377 377377
    011030  aa   377377 377377
    011031  aa   377377 377377
    011032  aa   377377 377377    1187  	oct	377377377377,377377377377,377377377377,377377377377
    011033  aa   377377 377377
    011034  aa   377377 377377
    011035  aa   377377 377377
    011036  aa   377377 377377    1188  	oct	377377377377,377377377377,377377377377,377377377377
    011037  aa   377377 377377
    011040  aa   377377 377377
    011041  aa   377377 377377
    011042  aa   377377 377377    1189  	oct	377377377377,377377377377,377377377377,377377377377
    011043  aa   377377 377377
    011044  aa   377377 377377
    011045  aa   377377 377377
    011046  aa   377377 377377    1190  	oct	377377377377,377377377377,377377377377,377377377377
    011047  aa   377377 377377
    011050  aa   377377 377377
    011051  aa   377377 377377
    011052  aa   377377 377377    1191  	oct	377377377377,377377377377,377377377377,377210377377
    011053  aa   377377 377377
    011054  aa   377377 377377
    011055  aa   377210 377377
    011056  aa   377377 377377    1192  	oct	377377377377,377377377377,377377377377,377377377377
    011057  aa   377377 377377
    011060  aa   377377 377377
    011061  aa   377377 377377
    011062  aa   377377 377377    1193  	oct	377377377377,377377377377,210377377377,377377377377
    011063  aa   377377 377377
    011064  aa   210377 377377
    011065  aa   377377 377377
    011066  aa   377377 377377    1194  	oct	377377377377,377377377377,377377377377,377377377377
    011067  aa   377377 377377
    011070  aa   377377 377377
    011071  aa   377377 377377
    011072  aa   377377 377377    1195  	oct	377377377377,377377377377,377377377377,377377377377
    011073  aa   377377 377377
    011074  aa   377377 377377
    011075  aa   377377 377377
    011076  aa   377377 377377    1196  	oct	377377377377,377377377377,377377377377,377377377377
    011077  aa   377377 377377
    011100  aa   377377 377377
    011101  aa   377377 377377
    011102  aa   377377 377377    1197  	oct	377377377377,377377377377,377377377377,377377377377
    011103  aa   377377 377377
    011104  aa   377377 377377
    011105  aa   377377 377377
    011106  aa   377377 377377    1198  	oct	377377377377,377377377377,377377377377,377377377377
    011107  aa   377377 377377
    011110  aa   377377 377377
    011111  aa   377377 377377
    011112  aa   377377 377377    1199  	oct	377377377377,377377377377,377377377377,377377377377
    011113  aa   377377 377377
    011114  aa   377377 377377
    011115  aa   377377 377377
    011116  aa   377377 377377    1200  	oct	377377377377,377377377377,377377377377,377377377377
    011117  aa   377377 377377
    011120  aa   377377 377377
    011121  aa   377377 377377
    011122  aa   377377 377377    1201  	oct	377377377377,377377377377,377377377377,377377377377
    011123  aa   377377 377377
    011124  aa   377377 377377
    011125  aa   377377 377377
    011126  aa   377377 377377    1202  	oct	377377377377,377377377377,377377377377,377377377377
    011127  aa   377377 377377
    011130  aa   377377 377377
    011131  aa   377377 377377
    011132  aa   377377 377377    1203  	oct	377377377377,377377377377,377377377377,377377377377
    011133  aa   377377 377377
    011134  aa   377377 377377
    011135  aa   377377 377377
    011136  aa   377377 377377    1204  	oct	377377377377,377377377377,377377377377,377377377377
    011137  aa   377377 377377
    011140  aa   377377 377377
    011141  aa   377377 377377
    011142  aa   377377 377377    1205  	oct	377377377377,377377377377,377377377377,377377377377
    011143  aa   377377 377377
    011144  aa   377377 377377
    011145  aa   377377 377377
    011146  aa   377377 377377    1206  	oct	377377377377,377377377377,377377377377,377377377377
    011147  aa   377377 377377
    011150  aa   377377 377377
    011151  aa   377377 377377
    011152  aa   377377 377377    1207  	oct	377377377377,377377377377,377377377377,377211377377
    011153  aa   377377 377377
    011154  aa   377377 377377
    011155  aa   377211 377377
    011156  aa   377377 377377    1208  	oct	377377377377,377377377377,377377377377,377377377377
    011157  aa   377377 377377
    011160  aa   377377 377377
    011161  aa   377377 377377
    011162  aa   377377 377377    1209  	oct	377377377377,377377377377,377211377377,377377377377
    011163  aa   377377 377377
    011164  aa   377211 377377
    011165  aa   377377 377377
    011166  aa   377377 377377    1210  	oct	377377377377,377377377377,377377377377,377377377377
    011167  aa   377377 377377
    011170  aa   377377 377377
    011171  aa   377377 377377
    011172  aa   377377 377377    1211  	oct	377377377377,377377377377,377377377377,377377377377
    011173  aa   377377 377377
    011174  aa   377377 377377
    011175  aa   377377 377377
    011176  aa   377377 377377    1212  	oct	377377377377,377377377377,377377377377,377377377377
    011177  aa   377377 377377
    011200  aa   377377 377377
    011201  aa   377377 377377
    011202  aa   377377 377377    1213  	oct	377377377377,377377377377,377377377377,377377377377
    011203  aa   377377 377377
    011204  aa   377377 377377
    011205  aa   377377 377377
    011206  aa   377377 377377    1214  	oct	377377377377,377377377377,377377377377,377377377377
    011207  aa   377377 377377
    011210  aa   377377 377377
    011211  aa   377377 377377
    011212  aa   377377 377377    1215  	oct	377377377377,377377377377,377377377377,377377377377
    011213  aa   377377 377377
    011214  aa   377377 377377
    011215  aa   377377 377377
    011216  aa   377377 377377    1216  	oct	377377377377,377377377377,377377377377,377377377377
    011217  aa   377377 377377
    011220  aa   377377 377377
    011221  aa   377377 377377
    011222  aa   377377 377377    1217  	oct	377377377377,377377377377,377377377377,377377377377
    011223  aa   377377 377377
    011224  aa   377377 377377
    011225  aa   377377 377377
    011226  aa   377377 377377    1218  	oct	377377377377,377377377377,377377377377,377377377377
    011227  aa   377377 377377
    011230  aa   377377 377377
    011231  aa   377377 377377
    011232  aa   377377 377377    1219  	oct	377377377377,377377377377,377377377377,377377377377
    011233  aa   377377 377377
    011234  aa   377377 377377
    011235  aa   377377 377377
    011236  aa   377377 377377    1220  	oct	377377377377,377377377377,377377377377,377377377377
    011237  aa   377377 377377
    011240  aa   377377 377377
    011241  aa   377377 377377
    011242  aa   377377 377377    1221  	oct	377377377377,377377377377,377377377377,377377377377
    011243  aa   377377 377377
    011244  aa   377377 377377
    011245  aa   377377 377377
    011246  aa   377377 377377    1222  	oct	377377377377,377377377377,377377377377,377377377377
    011247  aa   377377 377377
    011250  aa   377377 377377
    011251  aa   377377 377377
    011252  aa   377377 377377    1223  	oct	377377377377,377377377377,377377377377,377221377377
    011253  aa   377377 377377
    011254  aa   377377 377377
    011255  aa   377221 377377
    011256  aa   377377 377377    1224  	oct	377377377377,377377377377,377377377377,377377377377
    011257  aa   377377 377377
    011260  aa   377377 377377
    011261  aa   377377 377377
    011262  aa   377377 377377    1225  	oct	377377377377,377377377377,377377377377,377377377377
    011263  aa   377377 377377
    011264  aa   377377 377377
    011265  aa   377377 377377
    011266  aa   377221 377377    1226  	oct	377221377377,377377377377,377377377377,377377377377
    011267  aa   377377 377377
    011270  aa   377377 377377
    011271  aa   377377 377377
    011272  aa   377377 377377    1227  	oct	377377377377,377377377377,377377377377,377377377377
    011273  aa   377377 377377
    011274  aa   377377 377377
    011275  aa   377377 377377
    011276  aa   377377 377377    1228  	oct	377377377377,377377377377,377377377377,377377377377
    011277  aa   377377 377377
    011300  aa   377377 377377
    011301  aa   377377 377377
    011302  aa   377377 377377    1229  	oct	377377377377,377377377377,377377377377,377377377377
    011303  aa   377377 377377
    011304  aa   377377 377377
    011305  aa   377377 377377
    011306  aa   377377 377377    1230  	oct	377377377377,377377377377,377377377377,377377377377
    011307  aa   377377 377377
    011310  aa   377377 377377
    011311  aa   377377 377377
    011312  aa   377377 377377    1231  	oct	377377377377,377377377377,377377377377,377377377377
    011313  aa   377377 377377
    011314  aa   377377 377377
    011315  aa   377377 377377
    011316  aa   377377 377377    1232  	oct	377377377377,377377377377,377377377377,377377377377
    011317  aa   377377 377377
    011320  aa   377377 377377
    011321  aa   377377 377377
    011322  aa   377377 377377    1233  	oct	377377377377,377377377377,377377377377,377377377377
    011323  aa   377377 377377
    011324  aa   377377 377377
    011325  aa   377377 377377
    011326  aa   377377 377377    1234  	oct	377377377377,377377377377,377377377377,377377377377
    011327  aa   377377 377377
    011330  aa   377377 377377
    011331  aa   377377 377377
    011332  aa   377377 377377    1235  	oct	377377377377,377377377377,377377377377,377377377377
    011333  aa   377377 377377
    011334  aa   377377 377377
    011335  aa   377377 377377
    011336  aa   377377 377377    1236  	oct	377377377377,377377377377,377377377377,377377377377
    011337  aa   377377 377377
    011340  aa   377377 377377
    011341  aa   377377 377377
    011342  aa   377377 377377    1237  	oct	377377377377,377377377377,377377377377,377377377377
    011343  aa   377377 377377
    011344  aa   377377 377377
    011345  aa   377377 377377
    011346  aa   377377 377377    1238  	oct	377377377377,377377377377,377377377377,377377377377
    011347  aa   377377 377377
    011350  aa   377377 377377
    011351  aa   377377 377377
    011352  aa   377377 377377    1239  	oct	377377377377,377377377377,377377377377,377222377377
    011353  aa   377377 377377
    011354  aa   377377 377377
    011355  aa   377222 377377
    011356  aa   377377 377377    1240  	oct	377377377377,377377377377,377377377377,377377377377
    011357  aa   377377 377377
    011360  aa   377377 377377
    011361  aa   377377 377377
    011362  aa   377377 377377    1241  	oct	377377377377,377377377377,377377377377,377377377377
    011363  aa   377377 377377
    011364  aa   377377 377377
    011365  aa   377377 377377
    011366  aa   377377 222377    1242  	oct	377377222377,377377377377,377377377377,377377377377
    011367  aa   377377 377377
    011370  aa   377377 377377
    011371  aa   377377 377377
    011372  aa   377377 377377    1243  	oct	377377377377,377377377377,377377377377,377377377377
    011373  aa   377377 377377
    011374  aa   377377 377377
    011375  aa   377377 377377
    011376  aa   377377 377377    1244  	oct	377377377377,377377377377,377377377377,377377377377
    011377  aa   377377 377377
    011400  aa   377377 377377
    011401  aa   377377 377377
    011402  aa   377377 377377    1245  	oct	377377377377,377377377377,377377377377,377377377377
    011403  aa   377377 377377
    011404  aa   377377 377377
    011405  aa   377377 377377
    011406  aa   377377 377377    1246  	oct	377377377377,377377377377,377377377377,377377377377
    011407  aa   377377 377377
    011410  aa   377377 377377
    011411  aa   377377 377377
    011412  aa   377377 377377    1247  	oct	377377377377,377377377377,377377377377,377377377377
    011413  aa   377377 377377
    011414  aa   377377 377377
    011415  aa   377377 377377
    011416  aa   377377 377377    1248  	oct	377377377377,377377377377,377377377377,377377377377
    011417  aa   377377 377377
    011420  aa   377377 377377
    011421  aa   377377 377377
    011422  aa   377377 377377    1249  	oct	377377377377,377377377377,377377377377,377377377377
    011423  aa   377377 377377
    011424  aa   377377 377377
    011425  aa   377377 377377
    011426  aa   377377 377377    1250  	oct	377377377377,377377377377,377377377377,377377377377
    011427  aa   377377 377377
    011430  aa   377377 377377
    011431  aa   377377 377377
    011432  aa   377377 377377    1251  	oct	377377377377,377377377377,377377377377,377377377377
    011433  aa   377377 377377
    011434  aa   377377 377377
    011435  aa   377377 377377
    011436  aa   377377 377377    1252  	oct	377377377377,377377377377,377377377377,377377377377
    011437  aa   377377 377377
    011440  aa   377377 377377
    011441  aa   377377 377377
    011442  aa   377377 377377    1253  	oct	377377377377,377377377377,377377377377,377377377377
    011443  aa   377377 377377
    011444  aa   377377 377377
    011445  aa   377377 377377
    011446  aa   377377 377377    1254  	oct	377377377377,377377377377,377377377377,377377377377
    011447  aa   377377 377377
    011450  aa   377377 377377
    011451  aa   377377 377377
    011452  aa   377377 377377    1255  	oct	377377377377,377377377377,377377377377,377223377377
    011453  aa   377377 377377
    011454  aa   377377 377377
    011455  aa   377223 377377
    011456  aa   377377 377377    1256  	oct	377377377377,377377377377,377377377377,377377377377
    011457  aa   377377 377377
    011460  aa   377377 377377
    011461  aa   377377 377377
    011462  aa   377377 377377    1257  	oct	377377377377,377377377377,377377377377,377377377377
    011463  aa   377377 377377
    011464  aa   377377 377377
    011465  aa   377377 377377
    011466  aa   377377 377223    1258  	oct	377377377223,377377377377,377377377377,377377377377
    011467  aa   377377 377377
    011470  aa   377377 377377
    011471  aa   377377 377377
    011472  aa   377377 377377    1259  	oct	377377377377,377377377377,377377377377,377377377377
    011473  aa   377377 377377
    011474  aa   377377 377377
    011475  aa   377377 377377
    011476  aa   377377 377377    1260  	oct	377377377377,377377377377,377377377377,377377377377
    011477  aa   377377 377377
    011500  aa   377377 377377
    011501  aa   377377 377377
    011502  aa   377377 377377    1261  	oct	377377377377,377377377377,377377377377,377377377377
    011503  aa   377377 377377
    011504  aa   377377 377377
    011505  aa   377377 377377
    011506  aa   377377 377377    1262  	oct	377377377377,377377377377,377377377377,377377377377
    011507  aa   377377 377377
    011510  aa   377377 377377
    011511  aa   377377 377377
    011512  aa   377377 377377    1263  	oct	377377377377,377377377377,377377377377,377377377377
    011513  aa   377377 377377
    011514  aa   377377 377377
    011515  aa   377377 377377
    011516  aa   377377 377377    1264  	oct	377377377377,377377377377,377377377377,377377377377
    011517  aa   377377 377377
    011520  aa   377377 377377
    011521  aa   377377 377377
    011522  aa   377377 377377    1265  	oct	377377377377,377377377377,377377377377,377377377377
    011523  aa   377377 377377
    011524  aa   377377 377377
    011525  aa   377377 377377
    011526  aa   377377 377377    1266  	oct	377377377377,377377377377,377377377377,377377377377
    011527  aa   377377 377377
    011530  aa   377377 377377
    011531  aa   377377 377377
    011532  aa   377377 377377    1267  	oct	377377377377,377377377377,377377377377,377377377377
    011533  aa   377377 377377
    011534  aa   377377 377377
    011535  aa   377377 377377
    011536  aa   377377 377377    1268  	oct	377377377377,377377377377,377377377377,377377377377
    011537  aa   377377 377377
    011540  aa   377377 377377
    011541  aa   377377 377377
    011542  aa   377377 377377    1269  	oct	377377377377,377377377377,377377377377,377377377377
    011543  aa   377377 377377
    011544  aa   377377 377377
    011545  aa   377377 377377
    011546  aa   377377 377377    1270  	oct	377377377377,377377377377,377377377377,377377377377
    011547  aa   377377 377377
    011550  aa   377377 377377
    011551  aa   377377 377377
    011552  aa   377377 377377    1271  	oct	377377377377,377377377377,377377377377,377224377377
    011553  aa   377377 377377
    011554  aa   377377 377377
    011555  aa   377224 377377
    011556  aa   377377 377377    1272  	oct	377377377377,377377377377,377377377377,377377377377
    011557  aa   377377 377377
    011560  aa   377377 377377
    011561  aa   377377 377377
    011562  aa   377377 377377    1273  	oct	377377377377,377377377377,377377377377,377377377377
    011563  aa   377377 377377
    011564  aa   377377 377377
    011565  aa   377377 377377
    011566  aa   377377 377377    1274  	oct	377377377377,224377377377,377377377377,377377377377
    011567  aa   224377 377377
    011570  aa   377377 377377
    011571  aa   377377 377377
    011572  aa   377377 377377    1275  	oct	377377377377,377377377377,377377377377,377377377377
    011573  aa   377377 377377
    011574  aa   377377 377377
    011575  aa   377377 377377
    011576  aa   377377 377377    1276  	oct	377377377377,377377377377,377377377377,377377377377
    011577  aa   377377 377377
    011600  aa   377377 377377
    011601  aa   377377 377377
    011602  aa   377377 377377    1277  	oct	377377377377,377377377377,377377377377,377377377377
    011603  aa   377377 377377
    011604  aa   377377 377377
    011605  aa   377377 377377
    011606  aa   377377 377377    1278  	oct	377377377377,377377377377,377377377377,377377377377
    011607  aa   377377 377377
    011610  aa   377377 377377
    011611  aa   377377 377377
    011612  aa   377377 377377    1279  	oct	377377377377,377377377377,377377377377,377377377377
    011613  aa   377377 377377
    011614  aa   377377 377377
    011615  aa   377377 377377
    011616  aa   377377 377377    1280  	oct	377377377377,377377377377,377377377377,377377377377
    011617  aa   377377 377377
    011620  aa   377377 377377
    011621  aa   377377 377377
    011622  aa   377377 377377    1281  	oct	377377377377,377377377377,377377377377,377377377377
    011623  aa   377377 377377
    011624  aa   377377 377377
    011625  aa   377377 377377
    011626  aa   377377 377377    1282  	oct	377377377377,377377377377,377377377377,377377377377
    011627  aa   377377 377377
    011630  aa   377377 377377
    011631  aa   377377 377377
    011632  aa   377377 377377    1283  	oct	377377377377,377377377377,377377377377,377377377377
    011633  aa   377377 377377
    011634  aa   377377 377377
    011635  aa   377377 377377
    011636  aa   377377 377377    1284  	oct	377377377377,377377377377,377377377377,377377377377
    011637  aa   377377 377377
    011640  aa   377377 377377
    011641  aa   377377 377377
    011642  aa   377377 377377    1285  	oct	377377377377,377377377377,377377377377,377377377377
    011643  aa   377377 377377
    011644  aa   377377 377377
    011645  aa   377377 377377
    011646  aa   377377 377377    1286  	oct	377377377377,377377377377,377377377377,377377377377
    011647  aa   377377 377377
    011650  aa   377377 377377
    011651  aa   377377 377377
    011652  aa   377377 377377    1287  	oct	377377377377,377377377377,377377377377,377225377377
    011653  aa   377377 377377
    011654  aa   377377 377377
    011655  aa   377225 377377
    011656  aa   377377 377377    1288  	oct	377377377377,377377377377,377377377377,377377377377
    011657  aa   377377 377377
    011660  aa   377377 377377
    011661  aa   377377 377377
    011662  aa   377377 377377    1289  	oct	377377377377,377377377377,377377377377,377377377377
    011663  aa   377377 377377
    011664  aa   377377 377377
    011665  aa   377377 377377
    011666  aa   377377 377377    1290  	oct	377377377377,377225377377,377377377377,377377377377
    011667  aa   377225 377377
    011670  aa   377377 377377
    011671  aa   377377 377377
    011672  aa   377377 377377    1291  	oct	377377377377,377377377377,377377377377,377377377377
    011673  aa   377377 377377
    011674  aa   377377 377377
    011675  aa   377377 377377
    011676  aa   377377 377377    1292  	oct	377377377377,377377377377,377377377377,377377377377
    011677  aa   377377 377377
    011700  aa   377377 377377
    011701  aa   377377 377377
    011702  aa   377377 377377    1293  	oct	377377377377,377377377377,377377377377,377377377377
    011703  aa   377377 377377
    011704  aa   377377 377377
    011705  aa   377377 377377
    011706  aa   377377 377377    1294  	oct	377377377377,377377377377,377377377377,377377377377
    011707  aa   377377 377377
    011710  aa   377377 377377
    011711  aa   377377 377377
    011712  aa   377377 377377    1295  	oct	377377377377,377377377377,377377377377,377377377377
    011713  aa   377377 377377
    011714  aa   377377 377377
    011715  aa   377377 377377
    011716  aa   377377 377377    1296  	oct	377377377377,377377377377,377377377377,377377377377
    011717  aa   377377 377377
    011720  aa   377377 377377
    011721  aa   377377 377377
    011722  aa   377377 377377    1297  	oct	377377377377,377377377377,377377377377,377377377377
    011723  aa   377377 377377
    011724  aa   377377 377377
    011725  aa   377377 377377
    011726  aa   377377 377377    1298  	oct	377377377377,377377377377,377377377377,377377377377
    011727  aa   377377 377377
    011730  aa   377377 377377
    011731  aa   377377 377377
    011732  aa   377377 377377    1299  	oct	377377377377,377377377377,377377377377,377377377377
    011733  aa   377377 377377
    011734  aa   377377 377377
    011735  aa   377377 377377
    011736  aa   377377 377377    1300  	oct	377377377377,377377377377,377377377377,377377377377
    011737  aa   377377 377377
    011740  aa   377377 377377
    011741  aa   377377 377377
    011742  aa   377377 377377    1301  	oct	377377377377,377377377377,377377377377,377377377377
    011743  aa   377377 377377
    011744  aa   377377 377377
    011745  aa   377377 377377
    011746  aa   377377 377377    1302  	oct	377377377377,377377377377,377377377377,377377377377
    011747  aa   377377 377377
    011750  aa   377377 377377
    011751  aa   377377 377377
    011752  aa   377377 377377    1303  	oct	377377377377,377377377377,377377377377,377226377377
    011753  aa   377377 377377
    011754  aa   377377 377377
    011755  aa   377226 377377
    011756  aa   377377 377377    1304  	oct	377377377377,377377377377,377377377377,377377377377
    011757  aa   377377 377377
    011760  aa   377377 377377
    011761  aa   377377 377377
    011762  aa   377377 377377    1305  	oct	377377377377,377377377377,377377377377,377377377377
    011763  aa   377377 377377
    011764  aa   377377 377377
    011765  aa   377377 377377
    011766  aa   377377 377377    1306  	oct	377377377377,377377226377,377377377377,377377377377
    011767  aa   377377 226377
    011770  aa   377377 377377
    011771  aa   377377 377377
    011772  aa   377377 377377    1307  	oct	377377377377,377377377377,377377377377,377377377377
    011773  aa   377377 377377
    011774  aa   377377 377377
    011775  aa   377377 377377
    011776  aa   377377 377377    1308  	oct	377377377377,377377377377,377377377377,377377377377
    011777  aa   377377 377377
    012000  aa   377377 377377
    012001  aa   377377 377377
    012002  aa   377377 377377    1309  	oct	377377377377,377377377377,377377377377,377377377377
    012003  aa   377377 377377
    012004  aa   377377 377377
    012005  aa   377377 377377
    012006  aa   377377 377377    1310  	oct	377377377377,377377377377,377377377377,377377377377
    012007  aa   377377 377377
    012010  aa   377377 377377
    012011  aa   377377 377377
    012012  aa   377377 377377    1311  	oct	377377377377,377377377377,377377377377,377377377377
    012013  aa   377377 377377
    012014  aa   377377 377377
    012015  aa   377377 377377
    012016  aa   377377 377377    1312  	oct	377377377377,377377377377,377377377377,377377377377
    012017  aa   377377 377377
    012020  aa   377377 377377
    012021  aa   377377 377377
    012022  aa   377377 377377    1313  	oct	377377377377,377377377377,377377377377,377377377377
    012023  aa   377377 377377
    012024  aa   377377 377377
    012025  aa   377377 377377
    012026  aa   377377 377377    1314  	oct	377377377377,377377377377,377377377377,377377377377
    012027  aa   377377 377377
    012030  aa   377377 377377
    012031  aa   377377 377377
    012032  aa   377377 377377    1315  	oct	377377377377,377377377377,377377377377,377377377377
    012033  aa   377377 377377
    012034  aa   377377 377377
    012035  aa   377377 377377
    012036  aa   377377 377377    1316  	oct	377377377377,377377377377,377377377377,377377377377
    012037  aa   377377 377377
    012040  aa   377377 377377
    012041  aa   377377 377377
    012042  aa   377377 377377    1317  	oct	377377377377,377377377377,377377377377,377377377377
    012043  aa   377377 377377
    012044  aa   377377 377377
    012045  aa   377377 377377
    012046  aa   377377 377377    1318  	oct	377377377377,377377377377,377377377377,377377377377
    012047  aa   377377 377377
    012050  aa   377377 377377
    012051  aa   377377 377377
    012052  aa   377377 377377    1319  	oct	377377377377,377377377377,377377377377,377227377377
    012053  aa   377377 377377
    012054  aa   377377 377377
    012055  aa   377227 377377
    012056  aa   377377 377377    1320  	oct	377377377377,377377377377,377377377377,377377377377
    012057  aa   377377 377377
    012060  aa   377377 377377
    012061  aa   377377 377377
    012062  aa   377377 377377    1321  	oct	377377377377,377377377377,377377377377,377377377377
    012063  aa   377377 377377
    012064  aa   377377 377377
    012065  aa   377377 377377
    012066  aa   377377 377377    1322  	oct	377377377377,377377377227,377377377377,377377377377
    012067  aa   377377 377227
    012070  aa   377377 377377
    012071  aa   377377 377377
    012072  aa   377377 377377    1323  	oct	377377377377,377377377377,377377377377,377377377377
    012073  aa   377377 377377
    012074  aa   377377 377377
    012075  aa   377377 377377
    012076  aa   377377 377377    1324  	oct	377377377377,377377377377,377377377377,377377377377
    012077  aa   377377 377377
    012100  aa   377377 377377
    012101  aa   377377 377377
    012102  aa   377377 377377    1325  	oct	377377377377,377377377377,377377377377,377377377377
    012103  aa   377377 377377
    012104  aa   377377 377377
    012105  aa   377377 377377
    012106  aa   377377 377377    1326  	oct	377377377377,377377377377,377377377377,377377377377
    012107  aa   377377 377377
    012110  aa   377377 377377
    012111  aa   377377 377377
    012112  aa   377377 377377    1327  	oct	377377377377,377377377377,377377377377,377377377377
    012113  aa   377377 377377
    012114  aa   377377 377377
    012115  aa   377377 377377
    012116  aa   377377 377377    1328  	oct	377377377377,377377377377,377377377377,377377377377
    012117  aa   377377 377377
    012120  aa   377377 377377
    012121  aa   377377 377377
    012122  aa   377377 377377    1329  	oct	377377377377,377377377377,377377377377,377377377377
    012123  aa   377377 377377
    012124  aa   377377 377377
    012125  aa   377377 377377
    012126  aa   377377 377377    1330  	oct	377377377377,377377377377,377377377377,377377377377
    012127  aa   377377 377377
    012130  aa   377377 377377
    012131  aa   377377 377377
    012132  aa   377377 377377    1331  	oct	377377377377,377377377377,377377377377,377377377377
    012133  aa   377377 377377
    012134  aa   377377 377377
    012135  aa   377377 377377
    012136  aa   377377 377377    1332  	oct	377377377377,377377377377,377377377377,377377377377
    012137  aa   377377 377377
    012140  aa   377377 377377
    012141  aa   377377 377377
    012142  aa   377377 377377    1333  	oct	377377377377,377377377377,377377377377,377377377377
    012143  aa   377377 377377
    012144  aa   377377 377377
    012145  aa   377377 377377
    012146  aa   377377 377377    1334  	oct	377377377377,377377377377,377377377377,377377377377
    012147  aa   377377 377377
    012150  aa   377377 377377
    012151  aa   377377 377377
    012152  aa   377377 377377    1335  	oct	377377377377,377377377377,377377377377,377230377377
    012153  aa   377377 377377
    012154  aa   377377 377377
    012155  aa   377230 377377
    012156  aa   377377 377377    1336  	oct	377377377377,377377377377,377377377377,377377377377
    012157  aa   377377 377377
    012160  aa   377377 377377
    012161  aa   377377 377377
    012162  aa   377377 377377    1337  	oct	377377377377,377377377377,377377377377,377377377377
    012163  aa   377377 377377
    012164  aa   377377 377377
    012165  aa   377377 377377
    012166  aa   377377 377377    1338  	oct	377377377377,377377377377,230377377377,377377377377
    012167  aa   377377 377377
    012170  aa   230377 377377
    012171  aa   377377 377377
    012172  aa   377377 377377    1339  	oct	377377377377,377377377377,377377377377,377377377377
    012173  aa   377377 377377
    012174  aa   377377 377377
    012175  aa   377377 377377
    012176  aa   377377 377377    1340  	oct	377377377377,377377377377,377377377377,377377377377
    012177  aa   377377 377377
    012200  aa   377377 377377
    012201  aa   377377 377377
    012202  aa   377377 377377    1341  	oct	377377377377,377377377377,377377377377,377377377377
    012203  aa   377377 377377
    012204  aa   377377 377377
    012205  aa   377377 377377
    012206  aa   377377 377377    1342  	oct	377377377377,377377377377,377377377377,377377377377
    012207  aa   377377 377377
    012210  aa   377377 377377
    012211  aa   377377 377377
    012212  aa   377377 377377    1343  	oct	377377377377,377377377377,377377377377,377377377377
    012213  aa   377377 377377
    012214  aa   377377 377377
    012215  aa   377377 377377
    012216  aa   377377 377377    1344  	oct	377377377377,377377377377,377377377377,377377377377
    012217  aa   377377 377377
    012220  aa   377377 377377
    012221  aa   377377 377377
    012222  aa   377377 377377    1345  	oct	377377377377,377377377377,377377377377,377377377377
    012223  aa   377377 377377
    012224  aa   377377 377377
    012225  aa   377377 377377
    012226  aa   377377 377377    1346  	oct	377377377377,377377377377,377377377377,377377377377
    012227  aa   377377 377377
    012230  aa   377377 377377
    012231  aa   377377 377377
    012232  aa   377377 377377    1347  	oct	377377377377,377377377377,377377377377,377377377377
    012233  aa   377377 377377
    012234  aa   377377 377377
    012235  aa   377377 377377
    012236  aa   377377 377377    1348  	oct	377377377377,377377377377,377377377377,377377377377
    012237  aa   377377 377377
    012240  aa   377377 377377
    012241  aa   377377 377377
    012242  aa   377377 377377    1349  	oct	377377377377,377377377377,377377377377,377377377377
    012243  aa   377377 377377
    012244  aa   377377 377377
    012245  aa   377377 377377
    012246  aa   377377 377377    1350  	oct	377377377377,377377377377,377377377377,377377377377
    012247  aa   377377 377377
    012250  aa   377377 377377
    012251  aa   377377 377377
    012252  aa   377377 377377    1351  	oct	377377377377,377377377377,377377377377,377231377377
    012253  aa   377377 377377
    012254  aa   377377 377377
    012255  aa   377231 377377
    012256  aa   377377 377377    1352  	oct	377377377377,377377377377,377377377377,377377377377
    012257  aa   377377 377377
    012260  aa   377377 377377
    012261  aa   377377 377377
    012262  aa   377377 377377    1353  	oct	377377377377,377377377377,377377377377,377377377377
    012263  aa   377377 377377
    012264  aa   377377 377377
    012265  aa   377377 377377
    012266  aa   377377 377377    1354  	oct	377377377377,377377377377,377231377377,377377377377
    012267  aa   377377 377377
    012270  aa   377231 377377
    012271  aa   377377 377377
    012272  aa   377377 377377    1355  	oct	377377377377,377377377377,377377377377,377377377377
    012273  aa   377377 377377
    012274  aa   377377 377377
    012275  aa   377377 377377
    012276  aa   377377 377377    1356  	oct	377377377377,377377377377,377377377377,377377377377
    012277  aa   377377 377377
    012300  aa   377377 377377
    012301  aa   377377 377377
    012302  aa   377377 377377    1357  	oct	377377377377,377377377377,377377377377,377377377377
    012303  aa   377377 377377
    012304  aa   377377 377377
    012305  aa   377377 377377
    012306  aa   377377 377377    1358  	oct	377377377377,377377377377,377377377377,377377377377
    012307  aa   377377 377377
    012310  aa   377377 377377
    012311  aa   377377 377377
    012312  aa   377377 377377    1359  	oct	377377377377,377377377377,377377377377,377377377377
    012313  aa   377377 377377
    012314  aa   377377 377377
    012315  aa   377377 377377
    012316  aa   377377 377377    1360  	oct	377377377377,377377377377,377377377377,377377377377
    012317  aa   377377 377377
    012320  aa   377377 377377
    012321  aa   377377 377377
    012322  aa   377377 377377    1361  	oct	377377377377,377377377377,377377377377,377377377377
    012323  aa   377377 377377
    012324  aa   377377 377377
    012325  aa   377377 377377
    012326  aa   377377 377377    1362  	oct	377377377377,377377377377,377377377377,377377377377
    012327  aa   377377 377377
    012330  aa   377377 377377
    012331  aa   377377 377377
    012332  aa   377377 377377    1363  	oct	377377377377,377377377377,377377377377,377377377377
    012333  aa   377377 377377
    012334  aa   377377 377377
    012335  aa   377377 377377
    012336  aa   377377 377377    1364  	oct	377377377377,377377377377,377377377377,377377377377
    012337  aa   377377 377377
    012340  aa   377377 377377
    012341  aa   377377 377377
    012342  aa   377377 377377    1365  	oct	377377377377,377377377377,377377377377,377377377377
    012343  aa   377377 377377
    012344  aa   377377 377377
    012345  aa   377377 377377
    012346  aa   377377 377377    1366  	oct	377377377377,377377377377,377377377377,377377377377
    012347  aa   377377 377377
    012350  aa   377377 377377
    012351  aa   377377 377377
    012352  aa   377377 377377    1367  	oct	377377377377,377377377377,377377377377,377242377377
    012353  aa   377377 377377
    012354  aa   377377 377377
    012355  aa   377242 377377
    012356  aa   377377 377377    1368  	oct	377377377377,377377377377,377377377377,377377377377
    012357  aa   377377 377377
    012360  aa   377377 377377
    012361  aa   377377 377377
    012362  aa   377377 377377    1369  	oct	377377377377,377377377377,377377377377,377377377377
    012363  aa   377377 377377
    012364  aa   377377 377377
    012365  aa   377377 377377
    012366  aa   377377 377377    1370  	oct	377377377377,377377377377,377377377377,377377377377
    012367  aa   377377 377377
    012370  aa   377377 377377
    012371  aa   377377 377377
    012372  aa   377377 242377    1371  	oct	377377242377,377377377377,377377377377,377377377377
    012373  aa   377377 377377
    012374  aa   377377 377377
    012375  aa   377377 377377
    012376  aa   377377 377377    1372  	oct	377377377377,377377377377,377377377377,377377377377
    012377  aa   377377 377377
    012400  aa   377377 377377
    012401  aa   377377 377377
    012402  aa   377377 377377    1373  	oct	377377377377,377377377377,377377377377,377377377377
    012403  aa   377377 377377
    012404  aa   377377 377377
    012405  aa   377377 377377
    012406  aa   377377 377377    1374  	oct	377377377377,377377377377,377377377377,377377377377
    012407  aa   377377 377377
    012410  aa   377377 377377
    012411  aa   377377 377377
    012412  aa   377377 377377    1375  	oct	377377377377,377377377377,377377377377,377377377377
    012413  aa   377377 377377
    012414  aa   377377 377377
    012415  aa   377377 377377
    012416  aa   377377 377377    1376  	oct	377377377377,377377377377,377377377377,377377377377
    012417  aa   377377 377377
    012420  aa   377377 377377
    012421  aa   377377 377377
    012422  aa   377377 377377    1377  	oct	377377377377,377377377377,377377377377,377377377377
    012423  aa   377377 377377
    012424  aa   377377 377377
    012425  aa   377377 377377
    012426  aa   377377 377377    1378  	oct	377377377377,377377377377,377377377377,377377377377
    012427  aa   377377 377377
    012430  aa   377377 377377
    012431  aa   377377 377377
    012432  aa   377377 377377    1379  	oct	377377377377,377377377377,377377377377,377377377377
    012433  aa   377377 377377
    012434  aa   377377 377377
    012435  aa   377377 377377
    012436  aa   377377 377377    1380  	oct	377377377377,377377377377,377377377377,377377377377
    012437  aa   377377 377377
    012440  aa   377377 377377
    012441  aa   377377 377377
    012442  aa   377377 377377    1381  	oct	377377377377,377377377377,377377377377,377377377377
    012443  aa   377377 377377
    012444  aa   377377 377377
    012445  aa   377377 377377
    012446  aa   377377 377377    1382  	oct	377377377377,377377377377,377377377377,377377377377
    012447  aa   377377 377377
    012450  aa   377377 377377
    012451  aa   377377 377377
    012452  aa   377377 377377    1383  	oct	377377377377,377377377377,377377377377,377243377377
    012453  aa   377377 377377
    012454  aa   377377 377377
    012455  aa   377243 377377
    012456  aa   377377 377377    1384  	oct	377377377377,377377377377,377377377377,377377377377
    012457  aa   377377 377377
    012460  aa   377377 377377
    012461  aa   377377 377377
    012462  aa   377377 377377    1385  	oct	377377377377,377377377377,377377377377,377377377377
    012463  aa   377377 377377
    012464  aa   377377 377377
    012465  aa   377377 377377
    012466  aa   377377 377377    1386  	oct	377377377377,377377377377,377377377377,377377377377
    012467  aa   377377 377377
    012470  aa   377377 377377
    012471  aa   377377 377377
    012472  aa   377377 377243    1387  	oct	377377377243,377377377377,377377377377,377377377377
    012473  aa   377377 377377
    012474  aa   377377 377377
    012475  aa   377377 377377
    012476  aa   377377 377377    1388  	oct	377377377377,377377377377,377377377377,377377377377
    012477  aa   377377 377377
    012500  aa   377377 377377
    012501  aa   377377 377377
    012502  aa   377377 377377    1389  	oct	377377377377,377377377377,377377377377,377377377377
    012503  aa   377377 377377
    012504  aa   377377 377377
    012505  aa   377377 377377
    012506  aa   377377 377377    1390  	oct	377377377377,377377377377,377377377377,377377377377
    012507  aa   377377 377377
    012510  aa   377377 377377
    012511  aa   377377 377377
    012512  aa   377377 377377    1391  	oct	377377377377,377377377377,377377377377,377377377377
    012513  aa   377377 377377
    012514  aa   377377 377377
    012515  aa   377377 377377
    012516  aa   377377 377377    1392  	oct	377377377377,377377377377,377377377377,377377377377
    012517  aa   377377 377377
    012520  aa   377377 377377
    012521  aa   377377 377377
    012522  aa   377377 377377    1393  	oct	377377377377,377377377377,377377377377,377377377377
    012523  aa   377377 377377
    012524  aa   377377 377377
    012525  aa   377377 377377
    012526  aa   377377 377377    1394  	oct	377377377377,377377377377,377377377377,377377377377
    012527  aa   377377 377377
    012530  aa   377377 377377
    012531  aa   377377 377377
    012532  aa   377377 377377    1395  	oct	377377377377,377377377377,377377377377,377377377377
    012533  aa   377377 377377
    012534  aa   377377 377377
    012535  aa   377377 377377
    012536  aa   377377 377377    1396  	oct	377377377377,377377377377,377377377377,377377377377
    012537  aa   377377 377377
    012540  aa   377377 377377
    012541  aa   377377 377377
    012542  aa   377377 377377    1397  	oct	377377377377,377377377377,377377377377,377377377377
    012543  aa   377377 377377
    012544  aa   377377 377377
    012545  aa   377377 377377
    012546  aa   377377 377377    1398  	oct	377377377377,377377377377,377377377377,377377377377
    012547  aa   377377 377377
    012550  aa   377377 377377
    012551  aa   377377 377377
    012552  aa   377377 377377    1399  	oct	377377377377,377377377377,377377377377,377244377377
    012553  aa   377377 377377
    012554  aa   377377 377377
    012555  aa   377244 377377
    012556  aa   377377 377377    1400  	oct	377377377377,377377377377,377377377377,377377377377
    012557  aa   377377 377377
    012560  aa   377377 377377
    012561  aa   377377 377377
    012562  aa   377377 377377    1401  	oct	377377377377,377377377377,377377377377,377377377377
    012563  aa   377377 377377
    012564  aa   377377 377377
    012565  aa   377377 377377
    012566  aa   377377 377377    1402  	oct	377377377377,377377377377,377377377377,377377377377
    012567  aa   377377 377377
    012570  aa   377377 377377
    012571  aa   377377 377377
    012572  aa   377377 377377    1403  	oct	377377377377,244377377377,377377377377,377377377377
    012573  aa   244377 377377
    012574  aa   377377 377377
    012575  aa   377377 377377
    012576  aa   377377 377377    1404  	oct	377377377377,377377377377,377377377377,377377377377
    012577  aa   377377 377377
    012600  aa   377377 377377
    012601  aa   377377 377377
    012602  aa   377377 377377    1405  	oct	377377377377,377377377377,377377377377,377377377377
    012603  aa   377377 377377
    012604  aa   377377 377377
    012605  aa   377377 377377
    012606  aa   377377 377377    1406  	oct	377377377377,377377377377,377377377377,377377377377
    012607  aa   377377 377377
    012610  aa   377377 377377
    012611  aa   377377 377377
    012612  aa   377377 377377    1407  	oct	377377377377,377377377377,377377377377,377377377377
    012613  aa   377377 377377
    012614  aa   377377 377377
    012615  aa   377377 377377
    012616  aa   377377 377377    1408  	oct	377377377377,377377377377,377377377377,377377377377
    012617  aa   377377 377377
    012620  aa   377377 377377
    012621  aa   377377 377377
    012622  aa   377377 377377    1409  	oct	377377377377,377377377377,377377377377,377377377377
    012623  aa   377377 377377
    012624  aa   377377 377377
    012625  aa   377377 377377
    012626  aa   377377 377377    1410  	oct	377377377377,377377377377,377377377377,377377377377
    012627  aa   377377 377377
    012630  aa   377377 377377
    012631  aa   377377 377377
    012632  aa   377377 377377    1411  	oct	377377377377,377377377377,377377377377,377377377377
    012633  aa   377377 377377
    012634  aa   377377 377377
    012635  aa   377377 377377
    012636  aa   377377 377377    1412  	oct	377377377377,377377377377,377377377377,377377377377
    012637  aa   377377 377377
    012640  aa   377377 377377
    012641  aa   377377 377377
    012642  aa   377377 377377    1413  	oct	377377377377,377377377377,377377377377,377377377377
    012643  aa   377377 377377
    012644  aa   377377 377377
    012645  aa   377377 377377
    012646  aa   377377 377377    1414  	oct	377377377377,377377377377,377377377377,377377377377
    012647  aa   377377 377377
    012650  aa   377377 377377
    012651  aa   377377 377377
    012652  aa   377377 377377    1415  	oct	377377377377,377377377377,377377377377,377245377377
    012653  aa   377377 377377
    012654  aa   377377 377377
    012655  aa   377245 377377
    012656  aa   377377 377377    1416  	oct	377377377377,377377377377,377377377377,377377377377
    012657  aa   377377 377377
    012660  aa   377377 377377
    012661  aa   377377 377377
    012662  aa   377377 377377    1417  	oct	377377377377,377377377377,377377377377,377377377377
    012663  aa   377377 377377
    012664  aa   377377 377377
    012665  aa   377377 377377
    012666  aa   377377 377377    1418  	oct	377377377377,377377377377,377377377377,377377377377
    012667  aa   377377 377377
    012670  aa   377377 377377
    012671  aa   377377 377377
    012672  aa   377377 377377    1419  	oct	377377377377,377245377377,377377377377,377377377377
    012673  aa   377245 377377
    012674  aa   377377 377377
    012675  aa   377377 377377
    012676  aa   377377 377377    1420  	oct	377377377377,377377377377,377377377377,377377377377
    012677  aa   377377 377377
    012700  aa   377377 377377
    012701  aa   377377 377377
    012702  aa   377377 377377    1421  	oct	377377377377,377377377377,377377377377,377377377377
    012703  aa   377377 377377
    012704  aa   377377 377377
    012705  aa   377377 377377
    012706  aa   377377 377377    1422  	oct	377377377377,377377377377,377377377377,377377377377
    012707  aa   377377 377377
    012710  aa   377377 377377
    012711  aa   377377 377377
    012712  aa   377377 377377    1423  	oct	377377377377,377377377377,377377377377,377377377377
    012713  aa   377377 377377
    012714  aa   377377 377377
    012715  aa   377377 377377
    012716  aa   377377 377377    1424  	oct	377377377377,377377377377,377377377377,377377377377
    012717  aa   377377 377377
    012720  aa   377377 377377
    012721  aa   377377 377377
    012722  aa   377377 377377    1425  	oct	377377377377,377377377377,377377377377,377377377377
    012723  aa   377377 377377
    012724  aa   377377 377377
    012725  aa   377377 377377
    012726  aa   377377 377377    1426  	oct	377377377377,377377377377,377377377377,377377377377
    012727  aa   377377 377377
    012730  aa   377377 377377
    012731  aa   377377 377377
    012732  aa   377377 377377    1427  	oct	377377377377,377377377377,377377377377,377377377377
    012733  aa   377377 377377
    012734  aa   377377 377377
    012735  aa   377377 377377
    012736  aa   377377 377377    1428  	oct	377377377377,377377377377,377377377377,377377377377
    012737  aa   377377 377377
    012740  aa   377377 377377
    012741  aa   377377 377377
    012742  aa   377377 377377    1429  	oct	377377377377,377377377377,377377377377,377377377377
    012743  aa   377377 377377
    012744  aa   377377 377377
    012745  aa   377377 377377
    012746  aa   377377 377377    1430  	oct	377377377377,377377377377,377377377377,377377377377
    012747  aa   377377 377377
    012750  aa   377377 377377
    012751  aa   377377 377377
    012752  aa   377377 377377    1431  	oct	377377377377,377377377377,377377377377,377246377377
    012753  aa   377377 377377
    012754  aa   377377 377377
    012755  aa   377246 377377
    012756  aa   377377 377377    1432  	oct	377377377377,377377377377,377377377377,377377377377
    012757  aa   377377 377377
    012760  aa   377377 377377
    012761  aa   377377 377377
    012762  aa   377377 377377    1433  	oct	377377377377,377377377377,377377377377,377377377377
    012763  aa   377377 377377
    012764  aa   377377 377377
    012765  aa   377377 377377
    012766  aa   377377 377377    1434  	oct	377377377377,377377377377,377377377377,377377377377
    012767  aa   377377 377377
    012770  aa   377377 377377
    012771  aa   377377 377377
    012772  aa   377377 377377    1435  	oct	377377377377,377377246377,377377377377,377377377377
    012773  aa   377377 246377
    012774  aa   377377 377377
    012775  aa   377377 377377
    012776  aa   377377 377377    1436  	oct	377377377377,377377377377,377377377377,377377377377
    012777  aa   377377 377377
    013000  aa   377377 377377
    013001  aa   377377 377377
    013002  aa   377377 377377    1437  	oct	377377377377,377377377377,377377377377,377377377377
    013003  aa   377377 377377
    013004  aa   377377 377377
    013005  aa   377377 377377
    013006  aa   377377 377377    1438  	oct	377377377377,377377377377,377377377377,377377377377
    013007  aa   377377 377377
    013010  aa   377377 377377
    013011  aa   377377 377377
    013012  aa   377377 377377    1439  	oct	377377377377,377377377377,377377377377,377377377377
    013013  aa   377377 377377
    013014  aa   377377 377377
    013015  aa   377377 377377
    013016  aa   377377 377377    1440  	oct	377377377377,377377377377,377377377377,377377377377
    013017  aa   377377 377377
    013020  aa   377377 377377
    013021  aa   377377 377377
    013022  aa   377377 377377    1441  	oct	377377377377,377377377377,377377377377,377377377377
    013023  aa   377377 377377
    013024  aa   377377 377377
    013025  aa   377377 377377
    013026  aa   377377 377377    1442  	oct	377377377377,377377377377,377377377377,377377377377
    013027  aa   377377 377377
    013030  aa   377377 377377
    013031  aa   377377 377377
    013032  aa   377377 377377    1443  	oct	377377377377,377377377377,377377377377,377377377377
    013033  aa   377377 377377
    013034  aa   377377 377377
    013035  aa   377377 377377
    013036  aa   377377 377377    1444  	oct	377377377377,377377377377,377377377377,377377377377
    013037  aa   377377 377377
    013040  aa   377377 377377
    013041  aa   377377 377377
    013042  aa   377377 377377    1445  	oct	377377377377,377377377377,377377377377,377377377377
    013043  aa   377377 377377
    013044  aa   377377 377377
    013045  aa   377377 377377
    013046  aa   377377 377377    1446  	oct	377377377377,377377377377,377377377377,377377377377
    013047  aa   377377 377377
    013050  aa   377377 377377
    013051  aa   377377 377377
    013052  aa   377377 377377    1447  	oct	377377377377,377377377377,377377377377,377247377377
    013053  aa   377377 377377
    013054  aa   377377 377377
    013055  aa   377247 377377
    013056  aa   377377 377377    1448  	oct	377377377377,377377377377,377377377377,377377377377
    013057  aa   377377 377377
    013060  aa   377377 377377
    013061  aa   377377 377377
    013062  aa   377377 377377    1449  	oct	377377377377,377377377377,377377377377,377377377377
    013063  aa   377377 377377
    013064  aa   377377 377377
    013065  aa   377377 377377
    013066  aa   377377 377377    1450  	oct	377377377377,377377377377,377377377377,377377377377
    013067  aa   377377 377377
    013070  aa   377377 377377
    013071  aa   377377 377377
    013072  aa   377377 377377    1451  	oct	377377377377,377377377247,377377377377,377377377377
    013073  aa   377377 377247
    013074  aa   377377 377377
    013075  aa   377377 377377
    013076  aa   377377 377377    1452  	oct	377377377377,377377377377,377377377377,377377377377
    013077  aa   377377 377377
    013100  aa   377377 377377
    013101  aa   377377 377377
    013102  aa   377377 377377    1453  	oct	377377377377,377377377377,377377377377,377377377377
    013103  aa   377377 377377
    013104  aa   377377 377377
    013105  aa   377377 377377
    013106  aa   377377 377377    1454  	oct	377377377377,377377377377,377377377377,377377377377
    013107  aa   377377 377377
    013110  aa   377377 377377
    013111  aa   377377 377377
    013112  aa   377377 377377    1455  	oct	377377377377,377377377377,377377377377,377377377377
    013113  aa   377377 377377
    013114  aa   377377 377377
    013115  aa   377377 377377
    013116  aa   377377 377377    1456  	oct	377377377377,377377377377,377377377377,377377377377
    013117  aa   377377 377377
    013120  aa   377377 377377
    013121  aa   377377 377377
    013122  aa   377377 377377    1457  	oct	377377377377,377377377377,377377377377,377377377377
    013123  aa   377377 377377
    013124  aa   377377 377377
    013125  aa   377377 377377
    013126  aa   377377 377377    1458  	oct	377377377377,377377377377,377377377377,377377377377
    013127  aa   377377 377377
    013130  aa   377377 377377
    013131  aa   377377 377377
    013132  aa   377377 377377    1459  	oct	377377377377,377377377377,377377377377,377377377377
    013133  aa   377377 377377
    013134  aa   377377 377377
    013135  aa   377377 377377
    013136  aa   377377 377377    1460  	oct	377377377377,377377377377,377377377377,377377377377
    013137  aa   377377 377377
    013140  aa   377377 377377
    013141  aa   377377 377377
    013142  aa   377377 377377    1461  	oct	377377377377,377377377377,377377377377,377377377377
    013143  aa   377377 377377
    013144  aa   377377 377377
    013145  aa   377377 377377
    013146  aa   377377 377377    1462  	oct	377377377377,377377377377,377377377377,377377377377
    013147  aa   377377 377377
    013150  aa   377377 377377
    013151  aa   377377 377377
    013152  aa   377377 377377    1463  	oct	377377377377,377377377377,377377377377,377250377377
    013153  aa   377377 377377
    013154  aa   377377 377377
    013155  aa   377250 377377
    013156  aa   377377 377377    1464  	oct	377377377377,377377377377,377377377377,377377377377
    013157  aa   377377 377377
    013160  aa   377377 377377
    013161  aa   377377 377377
    013162  aa   377377 377377    1465  	oct	377377377377,377377377377,377377377377,377377377377
    013163  aa   377377 377377
    013164  aa   377377 377377
    013165  aa   377377 377377
    013166  aa   377377 377377    1466  	oct	377377377377,377377377377,377377377377,377377377377
    013167  aa   377377 377377
    013170  aa   377377 377377
    013171  aa   377377 377377
    013172  aa   377377 377377    1467  	oct	377377377377,377377377377,250377377377,377377377377
    013173  aa   377377 377377
    013174  aa   250377 377377
    013175  aa   377377 377377
    013176  aa   377377 377377    1468  	oct	377377377377,377377377377,377377377377,377377377377
    013177  aa   377377 377377
    013200  aa   377377 377377
    013201  aa   377377 377377
    013202  aa   377377 377377    1469  	oct	377377377377,377377377377,377377377377,377377377377
    013203  aa   377377 377377
    013204  aa   377377 377377
    013205  aa   377377 377377
    013206  aa   377377 377377    1470  	oct	377377377377,377377377377,377377377377,377377377377
    013207  aa   377377 377377
    013210  aa   377377 377377
    013211  aa   377377 377377
    013212  aa   377377 377377    1471  	oct	377377377377,377377377377,377377377377,377377377377
    013213  aa   377377 377377
    013214  aa   377377 377377
    013215  aa   377377 377377
    013216  aa   377377 377377    1472  	oct	377377377377,377377377377,377377377377,377377377377
    013217  aa   377377 377377
    013220  aa   377377 377377
    013221  aa   377377 377377
    013222  aa   377377 377377    1473  	oct	377377377377,377377377377,377377377377,377377377377
    013223  aa   377377 377377
    013224  aa   377377 377377
    013225  aa   377377 377377
    013226  aa   377377 377377    1474  	oct	377377377377,377377377377,377377377377,377377377377
    013227  aa   377377 377377
    013230  aa   377377 377377
    013231  aa   377377 377377
    013232  aa   377377 377377    1475  	oct	377377377377,377377377377,377377377377,377377377377
    013233  aa   377377 377377
    013234  aa   377377 377377
    013235  aa   377377 377377
    013236  aa   377377 377377    1476  	oct	377377377377,377377377377,377377377377,377377377377
    013237  aa   377377 377377
    013240  aa   377377 377377
    013241  aa   377377 377377
    013242  aa   377377 377377    1477  	oct	377377377377,377377377377,377377377377,377377377377
    013243  aa   377377 377377
    013244  aa   377377 377377
    013245  aa   377377 377377
    013246  aa   377377 377377    1478  	oct	377377377377,377377377377,377377377377,377377377377
    013247  aa   377377 377377
    013250  aa   377377 377377
    013251  aa   377377 377377
    013252  aa   377377 377377    1479  	oct	377377377377,377377377377,377377377377,377251377377
    013253  aa   377377 377377
    013254  aa   377377 377377
    013255  aa   377251 377377
    013256  aa   377377 377377    1480  	oct	377377377377,377377377377,377377377377,377377377377
    013257  aa   377377 377377
    013260  aa   377377 377377
    013261  aa   377377 377377
    013262  aa   377377 377377    1481  	oct	377377377377,377377377377,377377377377,377377377377
    013263  aa   377377 377377
    013264  aa   377377 377377
    013265  aa   377377 377377
    013266  aa   377377 377377    1482  	oct	377377377377,377377377377,377377377377,377377377377
    013267  aa   377377 377377
    013270  aa   377377 377377
    013271  aa   377377 377377
    013272  aa   377377 377377    1483  	oct	377377377377,377377377377,377251377377,377377377377
    013273  aa   377377 377377
    013274  aa   377251 377377
    013275  aa   377377 377377
    013276  aa   377377 377377    1484  	oct	377377377377,377377377377,377377377377,377377377377
    013277  aa   377377 377377
    013300  aa   377377 377377
    013301  aa   377377 377377
    013302  aa   377377 377377    1485  	oct	377377377377,377377377377,377377377377,377377377377
    013303  aa   377377 377377
    013304  aa   377377 377377
    013305  aa   377377 377377
    013306  aa   377377 377377    1486  	oct	377377377377,377377377377,377377377377,377377377377
    013307  aa   377377 377377
    013310  aa   377377 377377
    013311  aa   377377 377377
    013312  aa   377377 377377    1487  	oct	377377377377,377377377377,377377377377,377377377377
    013313  aa   377377 377377
    013314  aa   377377 377377
    013315  aa   377377 377377
    013316  aa   377377 377377    1488  	oct	377377377377,377377377377,377377377377,377377377377
    013317  aa   377377 377377
    013320  aa   377377 377377
    013321  aa   377377 377377
    013322  aa   377377 377377    1489  	oct	377377377377,377377377377,377377377377,377377377377
    013323  aa   377377 377377
    013324  aa   377377 377377
    013325  aa   377377 377377
    013326  aa   377377 377377    1490  	oct	377377377377,377377377377,377377377377,377377377377
    013327  aa   377377 377377
    013330  aa   377377 377377
    013331  aa   377377 377377
    013332  aa   377377 377377    1491  	oct	377377377377,377377377377,377377377377,377377377377
    013333  aa   377377 377377
    013334  aa   377377 377377
    013335  aa   377377 377377
    013336  aa   377377 377377    1492  	oct	377377377377,377377377377,377377377377,377377377377
    013337  aa   377377 377377
    013340  aa   377377 377377
    013341  aa   377377 377377
    013342  aa   377377 377377    1493  	oct	377377377377,377377377377,377377377377,377377377377
    013343  aa   377377 377377
    013344  aa   377377 377377
    013345  aa   377377 377377
    013346  aa   377377 377377    1494  	oct	377377377377,377377377377,377377377377,377377377377
    013347  aa   377377 377377
    013350  aa   377377 377377
    013351  aa   377377 377377
    013352  aa   377377 377377    1495  	oct	377377377377,377377377377,377377377377,377213377377
    013353  aa   377377 377377
    013354  aa   377377 377377
    013355  aa   377213 377377
    013356  aa   377377 377377    1496  	oct	377377377377,377377377377,377377377377,377377377377
    013357  aa   377377 377377
    013360  aa   377377 377377
    013361  aa   377377 377377
    013362  aa   377377 377377    1497  	oct	377377377377,377377377377,377377377213,377377377377
    013363  aa   377377 377377
    013364  aa   377377 377213
    013365  aa   377377 377377
    013366  aa   377377 377377    1498  	oct	377377377377,377377377377,377377377377,377377377377
    013367  aa   377377 377377
    013370  aa   377377 377377
    013371  aa   377377 377377
    013372  aa   377377 377377    1499  	oct	377377377377,377377377377,377377377377,377377377377
    013373  aa   377377 377377
    013374  aa   377377 377377
    013375  aa   377377 377377
    013376  aa   377377 377377    1500  	oct	377377377377,377377377377,377377377377,377377377377
    013377  aa   377377 377377
    013400  aa   377377 377377
    013401  aa   377377 377377
    013402  aa   377377 377377    1501  	oct	377377377377,377377377377,377377377377,377377377377
    013403  aa   377377 377377
    013404  aa   377377 377377
    013405  aa   377377 377377
    013406  aa   377377 377377    1502  	oct	377377377377,377377377377,377377377377,377377377377
    013407  aa   377377 377377
    013410  aa   377377 377377
    013411  aa   377377 377377
    013412  aa   377377 377377    1503  	oct	377377377377,377377377377,377377377377,377377377377
    013413  aa   377377 377377
    013414  aa   377377 377377
    013415  aa   377377 377377
    013416  aa   377377 377377    1504  	oct	377377377377,377377377377,377377377377,377377377377
    013417  aa   377377 377377
    013420  aa   377377 377377
    013421  aa   377377 377377
    013422  aa   377377 377377    1505  	oct	377377377377,377377377377,377377377377,377377377377
    013423  aa   377377 377377
    013424  aa   377377 377377
    013425  aa   377377 377377
    013426  aa   377377 377377    1506  	oct	377377377377,377377377377,377377377377,377377377377
    013427  aa   377377 377377
    013430  aa   377377 377377
    013431  aa   377377 377377
    013432  aa   377377 377377    1507  	oct	377377377377,377377377377,377377377377,377377377377
    013433  aa   377377 377377
    013434  aa   377377 377377
    013435  aa   377377 377377
    013436  aa   377377 377377    1508  	oct	377377377377,377377377377,377377377377,377075377377
    013437  aa   377377 377377
    013440  aa   377377 377377
    013441  aa   377075 377377
    013442  aa   377377 377377    1509  	oct	377377377377,377377377377,377377112377,377377377117
    013443  aa   377377 377377
    013444  aa   377377 112377
    013445  aa   377377 377117
    013446  aa   377377 377377    1510  	oct	377377377377,377377377377,377377377377,377377377075
    013447  aa   377377 377377
    013450  aa   377377 377377
    013451  aa   377377 377075
    013452  aa   217377 377377    1511  	oct	217377377377,377377377377,377377377377,377117377377
    013453  aa   377377 377377
    013454  aa   377377 377377
    013455  aa   377117 377377
    013456  aa   377377 377377    1512  	oct	377377377377,377377377377,377377377377,377377276377
    013457  aa   377377 377377
    013460  aa   377377 377377
    013461  aa   377377 276377
    013462  aa   377377 377112    1513  	oct	377377377112,377377377377,377377377377,377377377217
    013463  aa   377377 377377
    013464  aa   377377 377377
    013465  aa   377377 377217
    013466  aa   377377 377377    1514  	oct	377377377377,377377377377,377377377377,377377377377
    013467  aa   377377 377377
    013470  aa   377377 377377
    013471  aa   377377 377377
    013472  aa   377377 377377    1515  	oct	377377377377,377377377377,377377377377,377377377377
    013473  aa   377377 377377
    013474  aa   377377 377377
    013475  aa   377377 377377
    013476  aa   377377 377377    1516  	oct	377377377377,377377377377,377377377377,377377276377
    013477  aa   377377 377377
    013500  aa   377377 377377
    013501  aa   377377 276377
    013502  aa   377377 377377    1517  	oct	377377377377,377377377377,377377377377,377377377377
    013503  aa   377377 377377
    013504  aa   377377 377377
    013505  aa   377377 377377
    013506  aa   377377 377377    1518  	oct	377377377377,377377377377,377377377377,377377377377
    013507  aa   377377 377377
    013510  aa   377377 377377
    013511  aa   377377 377377
    013512  aa   377377 377377    1519  	oct	377377377377,377377377377,377377377377,377377377377
    013513  aa   377377 377377
    013514  aa   377377 377377
    013515  aa   377377 377377
    013516  aa   377377 377377    1520  	oct	377377377377,377377377377,377377377377,377377377377
    013517  aa   377377 377377
    013520  aa   377377 377377
    013521  aa   377377 377377
    013522  aa   377377 377377    1521  	oct	377377377377,377377377377,377377377377,377377377377
    013523  aa   377377 377377
    013524  aa   377377 377377
    013525  aa   377377 377377
    013526  aa   377377 377377    1522  	oct	377377377377,377377377377,377377377377,377377377377
    013527  aa   377377 377377
    013530  aa   377377 377377
    013531  aa   377377 377377
    013532  aa   377377 377377    1523  	oct	377377377377,377377377377,377377377377,377377377377
    013533  aa   377377 377377
    013534  aa   377377 377377
    013535  aa   377377 377377
    013536  aa   377377 377377    1524  	oct	377377377377,377377377377,377377377377,377377377377
    013537  aa   377377 377377
    013540  aa   377377 377377
    013541  aa   377377 377377
    013542  aa   377377 377377    1525  	oct	377377377377,377377377377,377377377377,377377377377
    013543  aa   377377 377377
    013544  aa   377377 377377
    013545  aa   377377 377377
    013546  aa   377377 377377    1526  	oct	377377377377,377377377377,377377377377,377377377377
    013547  aa   377377 377377
    013550  aa   377377 377377
    013551  aa   377377 377377
    013552  aa   377377 377377    1527  	oct	377377377377,377377377377,377377377377,377233377377
    013553  aa   377377 377377
    013554  aa   377377 377377
    013555  aa   377233 377377
    013556  aa   377377 377377    1528  	oct	377377377377,377377377377,377377377377,377377377377
    013557  aa   377377 377377
    013560  aa   377377 377377
    013561  aa   377377 377377
    013562  aa   377377 377377    1529  	oct	377377377377,377377377377,377377377377,377377377377
    013563  aa   377377 377377
    013564  aa   377377 377377
    013565  aa   377377 377377
    013566  aa   377377 377377    1530  	oct	377377377377,377377377377,377377377233,377377377377
    013567  aa   377377 377377
    013570  aa   377377 377233
    013571  aa   377377 377377
    013572  aa   377377 377377    1531  	oct	377377377377,377377377377,377377377377,377377377377
    013573  aa   377377 377377
    013574  aa   377377 377377
    013575  aa   377377 377377
    013576  aa   377377 377377    1532  	oct	377377377377,377377377377,377377377377,377377377377
    013577  aa   377377 377377
    013600  aa   377377 377377
    013601  aa   377377 377377
    013602  aa   377377 377377    1533  	oct	377377377377,377377377377,377377377377,377377377377
    013603  aa   377377 377377
    013604  aa   377377 377377
    013605  aa   377377 377377
    013606  aa   377377 377377    1534  	oct	377377377377,377377377377,377377377377,377377377377
    013607  aa   377377 377377
    013610  aa   377377 377377
    013611  aa   377377 377377
    013612  aa   377377 377377    1535  	oct	377377377377,377377377377,377377377377,377377377377
    013613  aa   377377 377377
    013614  aa   377377 377377
    013615  aa   377377 377377
    013616  aa   377377 377377    1536  	oct	377377377377,377377377377,377377377377,377377377377
    013617  aa   377377 377377
    013620  aa   377377 377377
    013621  aa   377377 377377
    013622  aa   377377 377377    1537  	oct	377377377377,377377377377,377377377377,377377377377
    013623  aa   377377 377377
    013624  aa   377377 377377
    013625  aa   377377 377377
    013626  aa   377377 377377    1538  	oct	377377377377,377377377377,377377377377,377377377377
    013627  aa   377377 377377
    013630  aa   377377 377377
    013631  aa   377377 377377
    013632  aa   377377 377377    1539  	oct	377377377377,377377377377,377377377377,377377377377
    013633  aa   377377 377377
    013634  aa   377377 377377
    013635  aa   377377 377377
    013636  aa   377377 377377    1540  	oct	377377377377,377377377377,377377377377,377377377377
    013637  aa   377377 377377
    013640  aa   377377 377377
    013641  aa   377377 377377
    013642  aa   377377 377377    1541  	oct	377377377377,377377377377,377377377377,377377377377
    013643  aa   377377 377377
    013644  aa   377377 377377
    013645  aa   377377 377377
    013646  aa   377377 377377    1542  	oct	377377377377,377377377377,377377377377,377377377377
    013647  aa   377377 377377
    013650  aa   377377 377377
    013651  aa   377377 377377
    013652  aa   377377 377377    1543  	oct	377377377377,377377377377,377377377377,377377377377
    013653  aa   377377 377377
    013654  aa   377377 377377
    013655  aa   377377 377377
    013656  aa   377377 377377    1544  	oct	377377377377,377377377377,377377377377,377377377377
    013657  aa   377377 377377
    013660  aa   377377 377377
    013661  aa   377377 377377
    013662  aa   377377 377377    1545  	oct	377377377377,377377377377,377377377377,377377377377
    013663  aa   377377 377377
    013664  aa   377377 377377
    013665  aa   377377 377377
    013666  aa   377377 377377    1546  	oct	377377377377,377377377377,377377377377,377377377377
    013667  aa   377377 377377
    013670  aa   377377 377377
    013671  aa   377377 377377
    013672  aa   377377 377377    1547  	oct	377377377377,377377377377,377377377377,377377377377
    013673  aa   377377 377377
    013674  aa   377377 377377
    013675  aa   377377 377377
    013676  aa   377377 377377    1548  	oct	377377377377,377377377377,377377377377,377377377377
    013677  aa   377377 377377
    013700  aa   377377 377377
    013701  aa   377377 377377
    013702  aa   377377 377377    1549  	oct	377377377377,377377377377,377377377377,377377377377
    013703  aa   377377 377377
    013704  aa   377377 377377
    013705  aa   377377 377377
    013706  aa   377377 377377    1550  	oct	377377377377,377377377377,377377377377,377377377377
    013707  aa   377377 377377
    013710  aa   377377 377377
    013711  aa   377377 377377
    013712  aa   377377 377377    1551  	oct	377377377377,377377377377,377377377377,377377377377
    013713  aa   377377 377377
    013714  aa   377377 377377
    013715  aa   377377 377377
    013716  aa   377377 377377    1552  	oct	377377377377,377377377377,377377377377,377377377377
    013717  aa   377377 377377
    013720  aa   377377 377377
    013721  aa   377377 377377
    013722  aa   377377 377377    1553  	oct	377377377377,377377377377,377377377377,377377377377
    013723  aa   377377 377377
    013724  aa   377377 377377
    013725  aa   377377 377377
    013726  aa   377377 377377    1554  	oct	377377377377,377377377377,377377377377,377377377377
    013727  aa   377377 377377
    013730  aa   377377 377377
    013731  aa   377377 377377
    013732  aa   377377 377377    1555  	oct	377377377377,377377377377,377377377377,377377377377
    013733  aa   377377 377377
    013734  aa   377377 377377
    013735  aa   377377 377377
    013736  aa   377377 377377    1556  	oct	377377377377,377377377377,377377377377,377377377377
    013737  aa   377377 377377
    013740  aa   377377 377377
    013741  aa   377377 377377
    013742  aa   377377 377377    1557  	oct	377377377377,377377377377,377377377377,377377377377
    013743  aa   377377 377377
    013744  aa   377377 377377
    013745  aa   377377 377377
    013746  aa   377377 377377    1558  	oct	377377377377,377377377377,377377377377,377377377377
    013747  aa   377377 377377
    013750  aa   377377 377377
    013751  aa   377377 377377
    013752  aa   377377 377377    1559  	oct	377377377377,377377377377,377377377377,377377377377
    013753  aa   377377 377377
    013754  aa   377377 377377
    013755  aa   377377 377377
    013756  aa   377377 377377    1560  	oct	377377377377,377377377377,377377377377,377377377377
    013757  aa   377377 377377
    013760  aa   377377 377377
    013761  aa   377377 377377
    013762  aa   377377 377377    1561  	oct	377377377377,377377377377,377377377377,377377377377
    013763  aa   377377 377377
    013764  aa   377377 377377
    013765  aa   377377 377377
    013766  aa   377377 377377    1562  	oct	377377377377,377377377377,377377377377,377377377377
    013767  aa   377377 377377
    013770  aa   377377 377377
    013771  aa   377377 377377
    013772  aa   377377 377377    1563  	oct	377377377377,377377377377,377377377377,377377377377
    013773  aa   377377 377377
    013774  aa   377377 377377
    013775  aa   377377 377377
    013776  aa   377377 377377    1564  	oct	377377377377,377377377377,377377377377,377377377377
    013777  aa   377377 377377
    014000  aa   377377 377377
    014001  aa   377377 377377
    014002  aa   377377 377377    1565  	oct	377377377377,377377377377,377377377377,377377377377
    014003  aa   377377 377377
    014004  aa   377377 377377
    014005  aa   377377 377377
    014006  aa   377377 377377    1566  	oct	377377377377,377377377377,377377377377,377377377377
    014007  aa   377377 377377
    014010  aa   377377 377377
    014011  aa   377377 377377
    014012  aa   377377 377377    1567  	oct	377377377377,377377377377,377377377377,377377377377
    014013  aa   377377 377377
    014014  aa   377377 377377
    014015  aa   377377 377377
    014016  aa   377377 377377    1568  	oct	377377377377,377377377377,377377377377,377377377377
    014017  aa   377377 377377
    014020  aa   377377 377377
    014021  aa   377377 377377
    014022                        1569  mvtt:	null
    014022  aa   377377 377377    1570  	oct	377377377377,377377377377,377377377377,377377377377
    014023  aa   377377 377377
    014024  aa   377377 377377
    014025  aa   377377 377377
    014026  aa   377377 377377    1571  	oct	377377377377,377377377377,377377377377,377377377377
    014027  aa   377377 377377
    014030  aa   377377 377377
    014031  aa   377377 377377
    014032  aa   100132 177173    1572  	oct	100132177173,133154120175,115135134116,153140113141
    014033  aa   133154 120175
    014034  aa   115135 134116
    014035  aa   153140 113141
    014036  aa   360361 362363    1573  	oct	360361362363,364365366367,370371172136,114176156157
    014037  aa   364365 366367
    014040  aa   370371 172136
    014041  aa   114176 156157
    014042  aa   174301 302303    1574  	oct	174301302303,304305306307,310311321322,323324325326
    014043  aa   304305 306307
    014044  aa   310311 321322
    014045  aa   323324 325326
    014046  aa   327330 331342    1575  	oct	327330331342,343344345346,347350351255,340275137155
    014047  aa   343344 345346
    014050  aa   347350 351255
    014051  aa   340275 137155
    014052  aa   377201 202203    1576  	oct	377201202203,204205206207,210211221222,223224225226
    014053  aa   204205 206207
    014054  aa   210211 221222
    014055  aa   223224 225226
    014056  aa   227230 231242    1577  	oct	227230231242,243244245246,247250251213,117233377377
    014057  aa   243244 245246
    014060  aa   247250 251213
    014061  aa   117233 377377
    014062  aa   377377 377377    1578  	oct	377377377377,377377377377,377377377377,377377377377
    014063  aa   377377 377377
    014064  aa   377377 377377
    014065  aa   377377 377377
    014066  aa   377377 377377    1579  	oct	377377377377,377377377377,377377377377,377377377377
    014067  aa   377377 377377
    014070  aa   377377 377377
    014071  aa   377377 377377
    014072  aa   377377 377377    1580  	oct	377377377377,377377377377,377377377377,377377377377
    014073  aa   377377 377377
    014074  aa   377377 377377
    014075  aa   377377 377377
    014076  aa   377377 377377    1581  	oct	377377377377,377377377377,377377377377,377377377377
    014077  aa   377377 377377
    014100  aa   377377 377377
    014101  aa   377377 377377
    014102  aa   377377 377377    1582  	oct	377377377377,377377377377,377377377377,377377377377
    014103  aa   377377 377377
    014104  aa   377377 377377
    014105  aa   377377 377377
    014106  aa   377377 377377    1583  	oct	377377377377,377377377377,377377377377,377377377377
    014107  aa   377377 377377
    014110  aa   377377 377377
    014111  aa   377377 377377
    014112  aa   377377 377377    1584  	oct	377377377377,377377377377,377377377377,377377377377
    014113  aa   377377 377377
    014114  aa   377377 377377
    014115  aa   377377 377377
    014116  aa   377377 377377    1585  	oct	377377377377,377377377377,377377377377,377377377377
    014117  aa   377377 377377
    014120  aa   377377 377377
    014121  aa   377377 377377
                                  1586  	end

NO LITERALS

NAME DEFINITIONS FOR ENTRY POINTS AND SEGDEFS

    014122  5a   000003 000000
    014123  5a   000035 600000
    014124  aa   000000 000000
    014125  55   000010 000002
    014126  5a   000002 400003
    014127  55   000006 000010
    014130  aa  007 160 160 146
    014131  aa  066 060 062 063
    014132  55   000017 000003
    014133  0a   000022 400000
    014134  55   000013 000003
    014135  aa  015 160 160 146         ppf6023_table
    014136  aa  066 060 062 063
    014137  aa  137 164 141 142
    014140  aa  154 145 000 000
    014141  55   000026 000010
    014142  0a   000000 400000
    014143  55   000022 000003
    014144  aa  014 160 160 146         ppf6023_move
    014145  aa  066 060 062 063
    014146  aa  137 155 157 166
    014147  aa  145 000 000 000
    014150  55   000002 000017
    014151  6a   000000 400002
    014152  55   000031 000003
    014153  aa  014 163 171 155         symbol_table
    014154  aa  142 157 154 137
    014155  aa  164 141 142 154
    014156  aa  145 000 000 000

DEFINITIONS HASH TABLE

    014157  aa   000000 000015
    014160  aa   000000 000000
    014161  aa   000000 000000
    014162  aa   000000 000000
    014163  aa   000000 000000
    014164  5a   000010 000000
    014165  aa   000000 000000
    014166  5a   000026 000000
    014167  aa   000000 000000
    014170  aa   000000 000000
    014171  5a   000017 000000
    014172  aa   000000 000000
    014173  aa   000000 000000
    014174  aa   000000 000000

NO EXTERNAL NAMES

NO TRAP POINTER WORDS

TYPE PAIR BLOCKS

    014175  aa   000001 000000
    014176  aa   000000 000000

INTERNAL EXPRESSION WORDS

    014177  aa   000000 000000
LINKAGE INFORMATION

    000000  aa   000000 000000
    000001  0a   014122 000000
    000002  aa   000000 000000
    000003  aa   000000 000000
    000004  aa   000000 000000
    000005  aa   000000 000000
    000006  22   000010 000010
    000007  a2   000000 000000
SYMBOL INFORMATION

SYMBOL TABLE HEADER

    000000  aa   000000 000001
    000001  aa   163171 155142
    000002  aa   164162 145145
    000003  aa   000000 000004
    000004  aa   000000 106730
    000005  aa   414344 011300
    000006  aa   000000 107157
    000007  aa   601474 554672
    000010  aa   141154 155040
    000011  aa   040040 040040
    000012  aa   000024 000040
    000013  aa   000034 000040
    000014  aa   000044 000100
    000015  aa   000002 000002
    000016  aa   000064 000000
    000017  aa   000000 000650
    000020  aa   000000 000102
    000021  aa   000000 000637
    000022  aa   000642 000102
    000023  aa   000064 000000
    000024  aa   101114 115040
    000025  aa   126145 162163
    000026  aa   151157 156040
    000027  aa   066056 062054
    000030  aa   040112 165156
    000031  aa   145040 061071
    000032  aa   067071 040040
    000033  aa   040040 040040
    000034  aa   115141 162164
    000035  aa   151156 163157
    000036  aa   156056 123171
    000037  aa   163115 141151
    000040  aa   156164 056141
    000041  aa   040040 040040
    000042  aa   040040 040040
    000043  aa   040040 040040
    000044  aa   154151 163164
    000045  aa   040040 040040
    000046  aa   040040 040040
    000047  aa   040040 040040
    000050  aa   040040 040040
    000051  aa   040040 040040
    000052  aa   040040 040040
    000053  aa   040040 040040
    000054  aa   040040 040040
    000055  aa   040040 040040
    000056  aa   040040 040040
    000057  aa   040040 040040
    000060  aa   040040 040040
    000061  aa   040040 040040
    000062  aa   040040 040040
    000063  aa   040040 040040
    000064  aa   000000 000001
    000065  aa   000000 000001
    000066  aa   000072 000040
    000067  aa   071575 567011
    000070  aa   000000 107157
    000071  aa   601475 000000
    000072  aa   076163 160145          >spec>online>8.1.pps>ppf6023.alm
    000073  aa   143076 157156
    000074  aa   154151 156145
    000075  aa   076070 056061
    000076  aa   056160 160163
    000077  aa   076160 160146
    000100  aa   066060 062063
    000101  aa   056141 154155
               MULTICS ASSEMBLY CROSS REFERENCE LISTING

   Value        Symbol                   Source file   Line number

          21    mask                     ppf6023:       21,   22,   29.
       14022    mvtt                     ppf6023:       27, 1569.
           0    ppf6023_move             ppf6023:       10,   11.
          22    ppf6023_table            ppf6023:       31,   32.


NO FATAL ERRORS


                                          -----------------------------------------------------------


Historical Background

This edition of the Multics software materials and documentation is provided and donated
to Massachusetts Institute of Technology by Group BULL including BULL HN Information Systems Inc.
as a contribution to computer science knowledge.
This donation is made also to give evidence of the common contributions of Massachusetts Institute of Technology,
Bell Laboratories, General Electric, Honeywell Information Systems Inc., Honeywell BULL Inc., Groupe BULL
and BULL HN Information Systems Inc. to the development of this operating system.
Multics development was initiated by Massachusetts Institute of Technology Project MAC (1963-1970),
renamed the MIT Laboratory for Computer Science and Artificial Intelligence in the mid 1970s, under the leadership
of Professor Fernando Jose Corbato. Users consider that Multics provided the best software architecture
for managing computer hardware properly and for executing programs. Many subsequent operating systems
incorporated Multics principles.
Multics was distributed in 1975 to 2000 by Group Bull in Europe , and in the U.S. by Bull HN Information Systems Inc.,
as successor in interest by change in name only to Honeywell Bull Inc. and Honeywell Information Systems Inc. .

                                          -----------------------------------------------------------

Permission to use, copy, modify, and distribute these programs and their documentation for any purpose and without
fee is hereby granted,provided that the below copyright notice and historical background appear in all copies
and that both the copyright notice and historical background and this permission notice appear in supporting
documentation, and that the names of MIT, HIS, BULL or BULL HN not be used in advertising or publicity pertaining
to distribution of the programs without specific prior written permission.
    Copyright 1972 by Massachusetts Institute of Technology and Honeywell Information Systems Inc.
    Copyright 2006 by BULL HN Information Systems Inc.
    Copyright 2006 by Bull SAS
    All Rights Reserved
