ASSEMBLY LISTING OF SEGMENT >spec>install>1037>ted4.alm
ASSEMBLED ON:	05/02/89  1049.0 mst Tue
OPTIONS USED:	-target l68                              list symbols
ASSEMBLED BY:	ALM Version 8.13 September 1988
ASSEMBLER CREATED:	10/24/88  1635.1 mst Mon

                                     1  " ***********************************************************
                                     2  " *                                                         *
                                     3  " * Copyright, (C) BULL HN Information Systems Inc., 1989   *
                                     4  " *                                                         *
                                     5  " * Copyright, (C) Honeywell Bull Inc., 1988                *
                                     6  " *                                                         *
                                     7  " * Copyright, (C) Honeywell Information Systems Inc., 1982 *
                                     8  " *                                                         *
                                     9  " * Copyright (c) 1972 by Massachusetts Institute of        *
                                    10  " * Technology and Honeywell Information Systems, Inc.      *
                                    11  " *                                                         *
                                    12  " ***********************************************************
                                    13
                                    14  " HISTORY COMMENTS:
                                    15  "  1) change(88-08-03,RWaters), approve(88-08-03,MCR7950),
                                    16  "     audit(88-09-29,Huen), install(88-10-07,MR12.2-1146):
                                    17  "     Changed version number to 3.2a for MR12.2.
                                    18  "  2) change(89-03-29,Huen), approve(89-03-29,MCR8062),
                                    19  "     audit(89-04-25,JRGray), install(89-05-02,MR12.3-1037):
                                    20  "     Changed version number to 3.3a for MR12.3 .
                                    21  "                                                      END HISTORY COMMENTS
                                    22
                                    23
    000000                          24  ;	name	tedcommon_
                                    25  	use	text
                                    26  				"dcl 1 tedcommon_$id ext static,
    000000  aa   000000 000004      27  id:	dec	4		"      2 ted_vers char(12)var;
    000001  aa  063 056 063 141     28  	aci	'3.3a',12,
    000002  aa  040 040 040 040
    000003  aa  040 040 040 040
                                    29
                                    30  	macro	do_def
                              1     31  &R3,&K&(&i:&)
                              2     32  	getlp
                              3     33  	tra	&1$&2
                              4     34  	segdef	&F3
                              5     35  	&end
                                    36
                                    37  do_def	ted_command_,ted,ted,ted4
    000004                              ted:ted4:
    000004  aa  7 00046 2721 20         	getlp
    000005  4a  4 00050 7101 20         	tra	ted_command_$ted
                        000004          	segdef	ted,ted4
                                    38  do_def	ted_command_,qedx,qx,qedx
    000006                              qx:qedx:
    000006  aa  7 00046 2721 20         	getlp
    000007  4a  4 00052 7101 20         	tra	ted_command_$qedx
                        000006          	segdef	qx,qedx
                                    39  do_def	ted_command_,ted_opt,ted_opt
    000010                              ted_opt:
    000010  aa  7 00046 2721 20         	getlp
    000011  4a  4 00054 7101 20         	tra	ted_command_$ted_opt
                        000010          	segdef	ted_opt
                                    40  do_def	ted_command_,safe,safe
    000012                              safe:
    000012  aa  7 00046 2721 20         	getlp
    000013  4a  4 00056 7101 20         	tra	ted_command_$safe
                        000012          	segdef	safe
                                    41  do_def	ted_command_,com,com
    000014                              com:
    000014  aa  7 00046 2721 20         	getlp
    000015  4a  4 00060 7101 20         	tra	ted_command_$com
                        000014          	segdef	com
                                    42  do_def	ted_command_,restart,restart
    000016                              restart:
    000016  aa  7 00046 2721 20         	getlp
    000017  4a  4 00062 7101 20         	tra	ted_command_$restart
                        000016          	segdef	restart
                                    43  do_def	ted__,act,act,ted_act
    000020                              act:ted_act:
    000020  aa  7 00046 2721 20         	getlp
    000021  4a  4 00064 7101 20         	tra	ted__$act
                        000020          	segdef	act,ted_act
                                    44  do_def	ted__,blank,blank
    000022                              blank:
    000022  aa  7 00046 2721 20         	getlp
    000023  4a  4 00066 7101 20         	tra	ted__$blank
                        000022          	segdef	blank
                                    45  do_def	ted__,noblank,noblank
    000024                              noblank:
    000024  aa  7 00046 2721 20         	getlp
    000025  4a  4 00070 7101 20         	tra	ted__$noblank
                        000024          	segdef	noblank
                                    46  do_def	ted__,partblank,partblank
    000026                              partblank:
    000026  aa  7 00046 2721 20         	getlp
    000027  4a  4 00072 7101 20         	tra	ted__$partblank
                        000026          	segdef	partblank
                                    47  do_def	ted__,passthru,passthru
    000030                              passthru:
    000030  aa  7 00046 2721 20         	getlp
    000031  4a  4 00074 7101 20         	tra	ted__$passthru
                        000030          	segdef	passthru
                                    48  do_def	ted__,clear_chars_moved,clear_chars_moved
    000032                              clear_chars_moved:
    000032  aa  7 00046 2721 20         	getlp
    000033  4a  4 00076 7101 20         	tra	ted__$clear_chars_moved
                        000032          	segdef	clear_chars_moved
                                    49  do_def	ted__,show_chars_moved,show_chars_moved
    000034                              show_chars_moved:
    000034  aa  7 00046 2721 20         	getlp
    000035  4a  4 00100 7101 20         	tra	ted__$show_chars_moved
                        000034          	segdef	show_chars_moved
                                    50  do_def	ted__,dbn,dbn
    000036                              dbn:
    000036  aa  7 00046 2721 20         	getlp
    000037  4a  4 00102 7101 20         	tra	ted__$dbn
                        000036          	segdef	dbn
                                    51  do_def	ted__,dbf,dbf
    000040                              dbf:
    000040  aa  7 00046 2721 20         	getlp
    000041  4a  4 00104 7101 20         	tra	ted__$dbf
                        000040          	segdef	dbf
                                    52  do_def	ted__,lgn,lgn
    000042                              lgn:
    000042  aa  7 00046 2721 20         	getlp
    000043  4a  4 00106 7101 20         	tra	ted__$lgn
                        000042          	segdef	lgn
                                    53  do_def	ted__,lgf,lgf
    000044                              lgf:
    000044  aa  7 00046 2721 20         	getlp
    000045  4a  4 00110 7101 20         	tra	ted__$lgf
                        000044          	segdef	lgf
                                    54  do_def	tedutil_,set_req_line,set_req_line
    000046                              set_req_line:
    000046  aa  7 00046 2721 20         	getlp
    000047  4a  4 00112 7101 20         	tra	tedutil_$set_req_line
                        000046          	segdef	set_req_line
                                    55  do_def	tedutil_,get_req_line,get_req_line
    000050                              get_req_line:
    000050  aa  7 00046 2721 20         	getlp
    000051  4a  4 00114 7101 20         	tra	tedutil_$get_req_line
                        000050          	segdef	get_req_line
                                    56  do_def	tedmgr_,buffer,buffer,ted_buffer
    000052                              buffer:ted_buffer:
    000052  aa  7 00046 2721 20         	getlp
    000053  4a  4 00116 7101 20         	tra	tedmgr_$buffer
                        000052          	segdef	buffer,ted_buffer
                                    57  do_def	tedmgr_,tedmgr_,tedmgr_
    000054                              tedmgr_:
    000054  aa  7 00046 2721 20         	getlp
    000055  4a  4 00120 7101 20         	tra	tedmgr_$tedmgr_
                        000054          	segdef	tedmgr_
                                    58  do_def	tedshow_,tedshow_,tedshow_
    000056                              tedshow_:
    000056  aa  7 00046 2721 20         	getlp
    000057  4a  4 00122 7101 20         	tra	tedshow_$tedshow_
                        000056          	segdef	tedshow_
                                    59  do_def	tedsort_,set,Jset
    000060                              Jset:
    000060  aa  7 00046 2721 20         	getlp
    000061  4a  4 00124 7101 20         	tra	tedsort_$set
                        000060          	segdef	Jset
                                    60  do_def	tedsort_,show,Jshow
    000062                              Jshow:
    000062  aa  7 00046 2721 20         	getlp
    000063  4a  4 00126 7101 20         	tra	tedsort_$show
                        000062          	segdef	Jshow
                                    61
                                    62  "/* ted common data area		tedcommon_.incl.pl1 */
                                    63  				"/* ... version.revision ... */
                                    64  				"dcl 1 tedcommon_$no_data
                                    65  				"	like buf_des;
    000064  aa   000000 000000      66  no_data:	dec	0		"        3 l.ln	fixed bin (21),
    000065  aa   000000 000001      67  	dec	1		"        3 l.le	fixed bin (21),
    000066  aa   000000 000000      68  	dec	0		"        3 l.re	fixed bin (21),
    000067  aa   000000 000000      69  	dec	0		"        3 r.ln	fixed bin (21),
    000070  aa   000000 000001      70  	dec	1		"        3 r.le	fixed bin (21),
    000071  aa   000000 000000      71  	dec	0		"        3 r.re	fixed bin (21);
                        000072      72  	segdef	id,no_data,no_seg
                                    73
                                    74  				"dcl 1 tedcommon_$no_seg
                                    75  				"	like seg_des,
                                    76  	even
    000072  aa   077777 000043      77  no_seg:	its	32767,1		"        3 sp	ptr,
    000073  aa   000001 000000
    000074  aa   000000 000000      78  	dec	0		"        3 sn	fixed bin,
    000075  aa   000000 000001      79  	dec	1		"        3 pn	fixed bin,
    000076  aa   000000 000000      80  	dec	0		"        3 ast	fixed bin,
    000077  aa   000000 000000      81  	dec	0		"        3 mbz	fixed bin;
                                    82
                                    83  	use	link
                                    84
                                    85  				"/* ... all other variables ... */
                                    86  				"dcl 1 tedcommon_$etc ext static,
    000010  aa   000000 000000      87  etc:	oct 000000000000		"      2 com_blank bit(1)aligned,
    000011  aa   000000 000000      88  	oct 000000000000		"      2 com1_blank bit(1)aligned,
    000012  aa   400000 000000      89  	oct 400000000000		"      2 caps bit(1)aligned,
    000013  aa   400000 000000      90  	oct 400000000000		"      2 reset_read bit(1);
    000014  aa   000000 000000      91  	oct 0,0,0,0,0,0,0,0,0,0,0,0	"      2 dbsw(12)bit(1)aligned,
    000015  aa   000000 000000
    000016  aa   000000 000000
    000017  aa   000000 000000
    000020  aa   000000 000000
    000021  aa   000000 000000
    000022  aa   000000 000000
    000023  aa   000000 000000
    000024  aa   000000 000000
    000025  aa   000000 000000
    000026  aa   000000 000000
    000027  aa   000000 000000
    000030  aa   000000 000000      92  	oct 0,0,0,0,0,0,0,0,0,0,0,0	"      2 lgsw(12)bit(1)aligned,
    000031  aa   000000 000000
    000032  aa   000000 000000
    000033  aa   000000 000000
    000034  aa   000000 000000
    000035  aa   000000 000000
    000036  aa   000000 000000
    000037  aa   000000 000000
    000040  aa   000000 000000
    000041  aa   000000 000000
    000042  aa   000000 000000
    000043  aa   000000 000000
    000044  aa   000000 000000      93  	oct 0,0			"      2 (db_catch, xxxx)bit(1)aligned,
    000045  aa   000000 000000
    000046  aa   077777 000043      94  	its	32767,1		"      2 db_output ptr;
    000047  aa   000001 000000
                        000010      95  	segdef	etc		"
                                    96  				"dcl 1 tedcommon_$eval ext static,
                                    97  "eval:	its	32767,1		"      2 global ptr;
                                    98  "	segdef	eval
                                    99
                                   100  	join	/link/link
                                   101  	join	/text/text
                                   102
                                   103  	end

NO LITERALS

NAME DEFINITIONS FOR ENTRY POINTS AND SEGDEFS

    000100  5a   000003 000000
    000101  5a   000264 600000
    000102  aa   000000 000000
    000103  55   000011 000002
    000104  5a   000002 400003
    000105  55   000006 000011
    000106  aa  012 164 145 144
    000107  aa  143 157 155 155
    000110  aa  157 156 137 000
    000111  55   000015 000003
    000112  2a   000010 400001
    000113  55   000014 000003
    000114  aa  003 145 164 143         etc
    000115  55   000022 000011
    000116  0a   000072 400000
    000117  55   000020 000003
    000120  aa  006 156 157 137         no_seg
    000121  aa  163 145 147 000
    000122  55   000027 000015
    000123  0a   000064 400000
    000124  55   000025 000003
    000125  aa  007 156 157 137         no_data
    000126  aa  144 141 164 141
    000127  55   000033 000022
    000130  0a   000000 400000
    000131  55   000032 000003
    000132  aa  002 151 144 000         id
    000133  55   000040 000027
    000134  0a   000062 400000
    000135  55   000036 000003
    000136  aa  005 112 163 150         Jshow
    000137  aa  157 167 000 000
    000140  55   000045 000033
    000141  0a   000060 400000
    000142  55   000043 000003
    000143  aa  004 112 163 145         Jset
    000144  aa  164 000 000 000
    000145  55   000053 000040
    000146  0a   000056 400000
    000147  55   000050 000003
    000150  aa  010 164 145 144         tedshow_
    000151  aa  163 150 157 167
    000152  aa  137 000 000 000
    000153  55   000060 000045
    000154  0a   000054 400000
    000155  55   000056 000003
    000156  aa  007 164 145 144         tedmgr_
    000157  aa  155 147 162 137
    000160  55   000066 000053
    000161  0a   000052 400000
    000162  55   000063 000003
    000163  aa  012 164 145 144         ted_buffer
    000164  aa  137 142 165 146
    000165  aa  146 145 162 000
    000166  55   000073 000060
    000167  0a   000052 400000
    000170  55   000071 000003
    000171  aa  006 142 165 146         buffer
    000172  aa  146 145 162 000
    000173  55   000102 000066
    000174  0a   000050 400000
    000175  55   000076 000003
    000176  aa  014 147 145 164         get_req_line
    000177  aa  137 162 145 161
    000200  aa  137 154 151 156
    000201  aa  145 000 000 000
    000202  55   000111 000073
    000203  0a   000046 400000
    000204  55   000105 000003
    000205  aa  014 163 145 164         set_req_line
    000206  aa  137 162 145 161
    000207  aa  137 154 151 156
    000210  aa  145 000 000 000
    000211  55   000115 000102
    000212  0a   000044 400000
    000213  55   000114 000003
    000214  aa  003 154 147 146         lgf
    000215  55   000121 000111
    000216  0a   000042 400000
    000217  55   000120 000003
    000220  aa  003 154 147 156         lgn
    000221  55   000125 000115
    000222  0a   000040 400000
    000223  55   000124 000003
    000224  aa  003 144 142 146         dbf
    000225  55   000131 000121
    000226  0a   000036 400000
    000227  55   000130 000003
    000230  aa  003 144 142 156         dbn
    000231  55   000141 000125
    000232  0a   000034 400000
    000233  55   000134 000003
    000234  aa  020 163 150 157         show_chars_moved
    000235  aa  167 137 143 150
    000236  aa  141 162 163 137
    000237  aa  155 157 166 145
    000240  aa  144 000 000 000
    000241  55   000151 000131
    000242  0a   000032 400000
    000243  55   000144 000003
    000244  aa  021 143 154 145         clear_chars_moved
    000245  aa  141 162 137 143
    000246  aa  150 141 162 163
    000247  aa  137 155 157 166
    000250  aa  145 144 000 000
    000251  55   000157 000141
    000252  0a   000030 400000
    000253  55   000154 000003
    000254  aa  010 160 141 163         passthru
    000255  aa  163 164 150 162
    000256  aa  165 000 000 000
    000257  55   000165 000151
    000260  0a   000026 400000
    000261  55   000162 000003
    000262  aa  011 160 141 162         partblank
    000263  aa  164 142 154 141
    000264  aa  156 153 000 000
    000265  55   000172 000157
    000266  0a   000024 400000
    000267  55   000170 000003
    000270  aa  007 156 157 142         noblank
    000271  aa  154 141 156 153
    000272  55   000177 000165
    000273  0a   000022 400000
    000274  55   000175 000003
    000275  aa  005 142 154 141         blank
    000276  aa  156 153 000 000
    000277  55   000204 000172
    000300  0a   000020 400000
    000301  55   000202 000003
    000302  aa  007 164 145 144         ted_act
    000303  aa  137 141 143 164
    000304  55   000210 000177
    000305  0a   000020 400000
    000306  55   000207 000003
    000307  aa  003 141 143 164         act
    000310  55   000215 000204
    000311  0a   000016 400000
    000312  55   000213 000003
    000313  aa  007 162 145 163         restart
    000314  aa  164 141 162 164
    000315  55   000221 000210
    000316  0a   000014 400000
    000317  55   000220 000003
    000320  aa  003 143 157 155         com
    000321  55   000226 000215
    000322  0a   000012 400000
    000323  55   000224 000003
    000324  aa  004 163 141 146         safe
    000325  aa  145 000 000 000
    000326  55   000233 000221
    000327  0a   000010 400000
    000330  55   000231 000003
    000331  aa  007 164 145 144         ted_opt
    000332  aa  137 157 160 164
    000333  55   000240 000226
    000334  0a   000006 400000
    000335  55   000236 000003
    000336  aa  004 161 145 144         qedx
    000337  aa  170 000 000 000
    000340  55   000244 000233
    000341  0a   000006 400000
    000342  55   000243 000003
    000343  aa  002 161 170 000         qx
    000344  55   000251 000240
    000345  0a   000004 400000
    000346  55   000247 000003
    000347  aa  004 164 145 144         ted4
    000350  aa  064 000 000 000
    000351  55   000255 000244
    000352  0a   000004 400000
    000353  55   000254 000003
    000354  aa  003 164 145 144         ted
    000355  55   000002 000251
    000356  6a   000000 400002
    000357  55   000260 000003
    000360  aa  014 163 171 155         symbol_table
    000361  aa  142 157 154 137
    000362  aa  164 141 142 154
    000363  aa  145 000 000 000

DEFINITIONS HASH TABLE

    000364  aa   000000 000065
    000365  5a   000125 000000
    000366  aa   000000 000000
    000367  aa   000000 000000
    000370  5a   000066 000000
    000371  5a   000040 000000
    000372  5a   000033 000000
    000373  5a   000073 000000
    000374  5a   000111 000000
    000375  5a   000172 000000
    000376  aa   000000 000000
    000377  5a   000131 000000
    000400  5a   000115 000000
    000401  5a   000233 000000
    000402  aa   000000 000000
    000403  aa   000000 000000
    000404  5a   000022 000000
    000405  aa   000000 000000
    000406  5a   000015 000000
    000407  5a   000060 000000
    000410  5a   000165 000000
    000411  aa   000000 000000
    000412  aa   000000 000000
    000413  5a   000045 000000
    000414  5a   000204 000000
    000415  5a   000053 000000
    000416  5a   000102 000000
    000417  5a   000177 000000
    000420  5a   000210 000000
    000421  5a   000215 000000
    000422  5a   000157 000000
    000423  5a   000226 000000
    000424  5a   000244 000000
    000425  5a   000151 000000
    000426  5a   000251 000000
    000427  5a   000255 000000
    000430  aa   000000 000000
    000431  aa   000000 000000
    000432  aa   000000 000000
    000433  aa   000000 000000
    000434  aa   000000 000000
    000435  aa   000000 000000
    000436  aa   000000 000000
    000437  5a   000011 000000
    000440  5a   000141 000000
    000441  aa   000000 000000
    000442  5a   000027 000000
    000443  5a   000121 000000
    000444  5a   000221 000000
    000445  aa   000000 000000
    000446  aa   000000 000000
    000447  aa   000000 000000
    000450  5a   000240 000000
    000451  aa   000000 000000

EXTERNAL NAMES

    000452  aa  004 163 150 157         show
    000453  aa  167 000 000 000
    000454  aa  003 163 145 164         set
    000455  aa  010 164 145 144         tedsort_
    000456  aa  163 157 162 164
    000457  aa  137 000 000 000
    000460  aa  010 164 145 144         tedutil_
    000461  aa  165 164 151 154
    000462  aa  137 000 000 000
    000463  aa  005 164 145 144         ted__
    000464  aa  137 137 000 000
    000465  aa  014 164 145 144         ted_command_
    000466  aa  137 143 157 155
    000467  aa  155 141 156 144
    000470  aa  137 000 000 000

NO TRAP POINTER WORDS

TYPE PAIR BLOCKS

    000471  aa   000004 000000
    000472  55   000355 000352
    000473  aa   000004 000000
    000474  55   000355 000354
    000475  aa   000004 000000
    000476  55   000050 000050
    000477  aa   000004 000000
    000500  55   000056 000056
    000501  aa   000004 000000
    000502  55   000056 000071
    000503  aa   000004 000000
    000504  55   000360 000076
    000505  aa   000004 000000
    000506  55   000360 000105
    000507  aa   000004 000000
    000510  55   000363 000114
    000511  aa   000004 000000
    000512  55   000363 000120
    000513  aa   000004 000000
    000514  55   000363 000124
    000515  aa   000004 000000
    000516  55   000363 000130
    000517  aa   000004 000000
    000520  55   000363 000134
    000521  aa   000004 000000
    000522  55   000363 000144
    000523  aa   000004 000000
    000524  55   000363 000154
    000525  aa   000004 000000
    000526  55   000363 000162
    000527  aa   000004 000000
    000530  55   000363 000170
    000531  aa   000004 000000
    000532  55   000363 000175
    000533  aa   000004 000000
    000534  55   000363 000207
    000535  aa   000004 000000
    000536  55   000365 000213
    000537  aa   000004 000000
    000540  55   000365 000220
    000541  aa   000004 000000
    000542  55   000365 000224
    000543  aa   000004 000000
    000544  55   000365 000231
    000545  aa   000004 000000
    000546  55   000365 000236
    000547  aa   000004 000000
    000550  55   000365 000254
    000551  aa   000001 000000
    000552  aa   000000 000000

INTERNAL EXPRESSION WORDS

    000553  5a   000371 000000
    000554  5a   000373 000000
    000555  5a   000375 000000
    000556  5a   000377 000000
    000557  5a   000401 000000
    000560  5a   000403 000000
    000561  5a   000405 000000
    000562  5a   000407 000000
    000563  5a   000411 000000
    000564  5a   000413 000000
    000565  5a   000415 000000
    000566  5a   000417 000000
    000567  5a   000421 000000
    000570  5a   000423 000000
    000571  5a   000425 000000
    000572  5a   000427 000000
    000573  5a   000431 000000
    000574  5a   000433 000000
    000575  5a   000435 000000
    000576  5a   000437 000000
    000577  5a   000441 000000
    000600  5a   000443 000000
    000601  5a   000445 000000
    000602  5a   000447 000000
    000603  aa   000000 000000
LINKAGE INFORMATION

    000000  aa   000000 000000
    000001  0a   000100 000000
    000002  aa   000000 000000
    000003  aa   000000 000000
    000004  aa   000000 000000
    000005  aa   000000 000000
    000006  22   000050 000130
    000007  a2   000000 000040
    000050  9a   777730 0000 46         ted_command_|ted
    000051  5a   000502 0000 00
    000052  9a   777726 0000 46         ted_command_|qedx
    000053  5a   000501 0000 00
    000054  9a   777724 0000 46         ted_command_|ted_opt
    000055  5a   000500 0000 00
    000056  9a   777722 0000 46         ted_command_|safe
    000057  5a   000477 0000 00
    000060  9a   777720 0000 46         ted_command_|com
    000061  5a   000476 0000 00
    000062  9a   777716 0000 46         ted_command_|restart
    000063  5a   000475 0000 00
    000064  9a   777714 0000 46         ted__|act
    000065  5a   000474 0000 00
    000066  9a   777712 0000 46         ted__|blank
    000067  5a   000473 0000 00
    000070  9a   777710 0000 46         ted__|noblank
    000071  5a   000472 0000 00
    000072  9a   777706 0000 46         ted__|partblank
    000073  5a   000471 0000 00
    000074  9a   777704 0000 46         ted__|passthru
    000075  5a   000470 0000 00
    000076  9a   777702 0000 46         ted__|clear_chars_moved
    000077  5a   000467 0000 00
    000100  9a   777700 0000 46         ted__|show_chars_moved
    000101  5a   000466 0000 00
    000102  9a   777676 0000 46         ted__|dbn
    000103  5a   000465 0000 00
    000104  9a   777674 0000 46         ted__|dbf
    000105  5a   000464 0000 00
    000106  9a   777672 0000 46         ted__|lgn
    000107  5a   000463 0000 00
    000110  9a   777670 0000 46         ted__|lgf
    000111  5a   000462 0000 00
    000112  9a   777666 0000 46         tedutil_|set_req_line
    000113  5a   000461 0000 00
    000114  9a   777664 0000 46         tedutil_|get_req_line
    000115  5a   000460 0000 00
    000116  9a   777662 0000 46         tedmgr_|buffer
    000117  5a   000457 0000 00
    000120  9a   777660 0000 46         tedmgr_|tedmgr_
    000121  5a   000456 0000 00
    000122  9a   777656 0000 46         tedshow_|tedshow_
    000123  5a   000455 0000 00
    000124  9a   777654 0000 46         tedsort_|set
    000125  5a   000454 0000 00
    000126  9a   777652 0000 46         tedsort_|show
    000127  5a   000453 0000 00
SYMBOL INFORMATION

SYMBOL TABLE HEADER

    000000  aa   000000 000001
    000001  aa   163171 155142
    000002  aa   164162 145145
    000003  aa   000000 000010
    000004  aa   000000 116606
    000005  aa   116110 132154
    000006  aa   000000 117164
    000007  aa   570115 177335
    000010  aa   141154 155040
    000011  aa   040040 040040
    000012  aa   000024 000040
    000013  aa   000034 000040
    000014  aa   000044 000100
    000015  aa   000002 000002
    000016  aa   000064 000000
    000017  aa   000000 000220
    000020  aa   000000 000101
    000021  aa   000127 000112
    000022  aa   000212 000101
    000023  aa   000064 000000
    000024  aa   101114 115040
    000025  aa   126145 162163
    000026  aa   151157 156040
    000027  aa   070056 061063
    000030  aa   040123 145160
    000031  aa   164145 155142
    000032  aa   145162 040061
    000033  aa   071070 070040
    000034  aa   110151 162156
    000035  aa   145151 163145
    000036  aa   156056 123171
    000037  aa   163115 141151
    000040  aa   156164 056141
    000041  aa   040040 040040
    000042  aa   040040 040040
    000043  aa   040040 040040
    000044  aa   055164 141162
    000045  aa   147145 164040
    000046  aa   154066 070040
    000047  aa   040040 040040
    000050  aa   040040 040040
    000051  aa   040040 040040
    000052  aa   040040 040040
    000053  aa   040040 040040
    000054  aa   040040 040040
    000055  aa   040040 040040
    000056  aa   040154 151163
    000057  aa   164040 163171
    000060  aa   155142 157154
    000061  aa   163040 040040
    000062  aa   040040 040040
    000063  aa   040040 040040
    000064  aa   000000 000001
    000065  aa   000000 000001
    000066  aa   000072 000033
    000067  aa   171606 361125
    000070  aa   000000 117164
    000071  aa   566415 400000
    000072  aa   076163 160145          >spec>install>1037>ted4.alm
    000073  aa   143076 151156
    000074  aa   163164 141154
    000075  aa   154076 061060
    000076  aa   063067 076164
    000077  aa   145144 064056
    000100  aa   141154 155040
               MULTICS ASSEMBLY CROSS REFERENCE LISTING

   Value        Symbol                   Source file   Line number

          20    act                      ted4:          43.
          22    blank                    ted4:          44.
          52    buffer                   ted4:          56.
          32    clear_chars_moved        ted4:          48.
          14    com                      ted4:          41.
          40    dbf                      ted4:          51.
          36    dbn                      ted4:          50.
          10    etc                      ted4:          87,   95.
          50    get_req_line             ted4:          55.
           0    id                       ted4:          27,   72.
          60    Jset                     ted4:          59.
          62    Jshow                    ted4:          60.
          44    lgf                      ted4:          53.
          42    lgn                      ted4:          52.
          10    link                     ted4:          83,  100.
          24    noblank                  ted4:          45.
          64    no_data                  ted4:          66,   72.
          72    no_seg                   ted4:          72,   77.
          26    partblank                ted4:          46.
          30    passthru                 ted4:          47.
           6    qedx                     ted4:          38.
           6    qx                       ted4:          38.
          16    restart                  ted4:          42.
          12    safe                     ted4:          40.
                set                      ted4:          59.
          46    set_req_line             ted4:          54.
                show                     ted4:          60.
          34    show_chars_moved         ted4:          49.
           4    ted                      ted4:          37.
           4    ted4                     ted4:          37.
          54    tedmgr_                  ted4:          56,   57.
          56    tedshow_                 ted4:          58.
                tedsort_                 ted4:          59,   60.
                tedutil_                 ted4:          54,   55.
          20    ted_act                  ted4:          43.
          52    ted_buffer               ted4:          56.
                ted_command_             ted4:          37,   38,   39,   40,   41,   42.
          10    ted_opt                  ted4:          39.
                ted__                    ted4:          43,   44,   45,   46,   47,   48,   49,   50,   51,   52,   53.
           0    text                     ted4:          25,  101.


NO FATAL ERRORS


                                          -----------------------------------------------------------


Historical Background

This edition of the Multics software materials and documentation is provided and donated
to Massachusetts Institute of Technology by Group BULL including BULL HN Information Systems Inc.
as a contribution to computer science knowledge.
This donation is made also to give evidence of the common contributions of Massachusetts Institute of Technology,
Bell Laboratories, General Electric, Honeywell Information Systems Inc., Honeywell BULL Inc., Groupe BULL
and BULL HN Information Systems Inc. to the development of this operating system.
Multics development was initiated by Massachusetts Institute of Technology Project MAC (1963-1970),
renamed the MIT Laboratory for Computer Science and Artificial Intelligence in the mid 1970s, under the leadership
of Professor Fernando Jose Corbato. Users consider that Multics provided the best software architecture
for managing computer hardware properly and for executing programs. Many subsequent operating systems
incorporated Multics principles.
Multics was distributed in 1975 to 2000 by Group Bull in Europe , and in the U.S. by Bull HN Information Systems Inc.,
as successor in interest by change in name only to Honeywell Bull Inc. and Honeywell Information Systems Inc. .

                                          -----------------------------------------------------------

Permission to use, copy, modify, and distribute these programs and their documentation for any purpose and without
fee is hereby granted,provided that the below copyright notice and historical background appear in all copies
and that both the copyright notice and historical background and this permission notice appear in supporting
documentation, and that the names of MIT, HIS, BULL or BULL HN not be used in advertising or publicity pertaining
to distribution of the programs without specific prior written permission.
    Copyright 1972 by Massachusetts Institute of Technology and Honeywell Information Systems Inc.
    Copyright 2006 by BULL HN Information Systems Inc.
    Copyright 2006 by Bull SAS
    All Rights Reserved
