ASSEMBLY LISTING OF SEGMENT >udd>sm>ds>w>ml>ted_gv_t_.alm
ASSEMBLED ON:	04/18/00  1127.7 mdt Tue
OPTIONS USED:	list symbols
ASSEMBLED BY:	ALM Version 8.14 March 1989
ASSEMBLER CREATED:	06/09/89  1102.3 mdt Fri

                                     1  " ***********************************************************
                                     2  " *                                                         *
                                     3  " * Copyright, (C) Honeywell Information Systems Inc., 1982 *
                                     4  " *                                                         *
                                     5  " ***********************************************************
                        000000       6  	segdef	TC
                        000012       7  	segdef	TL
                        000024       8  	segdef	DPDA
                        000000       9  	equ	STRD,0
                        000001      10  	equ	LOOK,1
                        000002      11  	equ	STRDS,2
                        000003      12  	equ	LOOKS,3
                        000004      13  	equ	APLY,4
                        000005      14  	equ	APLY1,5
                        000006      15  	equ	APLYS,6
                        000007      16  	equ	SKIP,7
                        000010      17  	equ	ADJUST,8
                        000011      18  	equ	NSRD,9
                        000012      19  	equ	NSRDS,10
                        000000      20  	equ	T0,0
                        000000      21  	equ	ST0,0
                                    22  "
                                    23  "
                                    24  " TERMINALS table (TL TC)
                                    25  "
                                    26  	use	utc
    000000  aa   000000 000000      27  TC:	zero	0,TCs*4
                                    28  	use	utl
    000012  aa   000000 000011      29  TL:	zero	0,TLs
                                    30  "
                                    31  " TERMINAL 1
                                    32  	use	utc
                        000000      33  	set	Tsl,*-TC-1
    000001  aa  147 052 040 040     34  	aci	"g*  "
                                    35  	use	utl
                        000001      36  	equ	T1,*-TL
    000013  aa   000001 000002      37  	zero	Tsl*4+1,2
                                    38  "
                                    39  " TERMINAL 2
                                    40  	use	utc
                        000001      41  	set	Tsl,*-TC-1
    000002  aa  166 052 040 040     42  	aci	"v*  "
                                    43  	use	utl
                        000002      44  	equ	T2,*-TL
    000014  aa   000005 000002      45  	zero	Tsl*4+1,2
                                    46  "
                                    47  " TERMINAL 3
                                    48  	use	utc
                        000002      49  	set	Tsl,*-TC-1
    000003  aa  050 040 040 040     50  	aci	"(   "
                                    51  	use	utl
                        000003      52  	equ	T3,*-TL
    000015  aa   000011 000001      53  	zero	Tsl*4+1,1
                                    54  "
                                    55  " TERMINAL 4
                                    56  	use	utc
                        000003      57  	set	Tsl,*-TC-1
    000004  aa  136 040 040 040     58  	aci	"^   "
                                    59  	use	utl
                        000004      60  	equ	T4,*-TL
    000016  aa   000015 000001      61  	zero	Tsl*4+1,1
                                    62  "
                                    63  " TERMINAL 5
                                    64  	use	utc
                        000004      65  	set	Tsl,*-TC-1
    000005  aa  174 040 040 040     66  	aci	"|   "
                                    67  	use	utl
                        000005      68  	equ	T5,*-TL
    000017  aa   000021 000001      69  	zero	Tsl*4+1,1
                                    70  "
                                    71  " TERMINAL 6
                                    72  	use	utc
                        000005      73  	set	Tsl,*-TC-1
    000006  aa  046 040 040 040     74  	aci	"&   "
                                    75  	use	utl
                        000006      76  	equ	T6,*-TL
    000020  aa   000025 000001      77  	zero	Tsl*4+1,1
                                    78  "
                                    79  " TERMINAL 7
                                    80  	use	utc
                        000006      81  	set	Tsl,*-TC-1
    000007  aa  051 040 040 040     82  	aci	")   "
                                    83  	use	utl
                        000007      84  	equ	T7,*-TL
    000021  aa   000031 000001      85  	zero	Tsl*4+1,1
                                    86  "
                                    87  " TERMINAL 8
                                    88  	use	utc
                        000007      89  	set	Tsl,*-TC-1
    000010  aa  040 040 040 040     90  	aci	"    "
                                    91  	use	utl
                        000010      92  	equ	T8,*-TL
    000022  aa   000035 000001      93  	zero	Tsl*4+1,1
                                    94  "
                                    95  " TERMINAL 9
                                    96  	use	utc
                        000010      97  	set	Tsl,*-TC-1
    000011  aa  130 040 040 040     98  	aci	"X   "
                                    99  	use	utl
                        000011     100  	equ	T9,*-TL
    000023  aa   000041 000001     101  	zero	Tsl*4+1,1
                                   102  "
                                   103  	use	utc
                        000000     104  	equ	TCs,"-TC-1
                                   105  	use	utl
                        000011     106  	equ	TLs,*-TL-1
                                   107
                                   108  	use	text
                                   109  "
                                   110  "
                                   111  " DPDA table
    000024  aa   000000 000141     112  DPDA:	zero	0,DPDAs
                                   113  "
                                   114  " STATE 1
                        000001     115  	equ	ST1,*-DPDA
    000025  aa   000000 000002     116  	zero	STRD,LN1
    000026  aa   000001 000012     117  	zero	T1,ST10	"g*
    000027  aa   000002 000017     118  	zero	T2,ST15	"v*
                        000002     119  	equ	LN1,*-DPDA-ST1-1
                                   120  "
                                   121  " STATE 4
                        000004     122  	equ	ST4,*-DPDA
    000030  aa   000005 000003     123  	zero	APLY1,LN4
    000031  aa   000000 000000     124  	zero	0,0   pd ld
    000032  aa   777777 000001     125  	zero	-1,1   rule/alt
    000033  aa   000001 000010     126  	zero	1,ST8 prod/val
                        000003     127  	equ	LN4,*-DPDA-ST4-1
                                   128  "
                                   129  " STATE 8
                        000010     130  	equ	ST8,*-DPDA
    000034  aa   000000 000001     131  	zero	STRD,LN8
    000035  aa   000000 000000     132  	zero	T0,ST0	"EOI
                        000001     133  	equ	LN8,*-DPDA-ST8-1
                                   134  "
                                   135  " STATE 10
                        000012     136  	equ	ST10,*-DPDA
    000036  aa   000000 000004     137  	zero	STRD,LN10
    000037  aa   000003 000045     138  	zero	T3,ST37	"(
    000040  aa   000004 000046     139  	zero	T4,ST38	"^
    000041  aa   000010 000051     140  	zero	T8,ST41	"
    000042  aa   000011 000055     141  	zero	T9,ST45	"X
                        000004     142  	equ	LN10,*-DPDA-ST10-1
                                   143  "
                                   144  " STATE 15
                        000017     145  	equ	ST15,*-DPDA
    000043  aa   000000 000003     146  	zero	STRD,LN15
    000044  aa   000003 000045     147  	zero	T3,ST37	"(
    000045  aa   000004 000046     148  	zero	T4,ST38	"^
    000046  aa   000011 000055     149  	zero	T9,ST45	"X
                        000003     150  	equ	LN15,*-DPDA-ST15-1
                                   151  "
                                   152  " STATE 19
                        000023     153  	equ	ST19,*-DPDA
    000047  aa   000004 000004     154  	zero	APLY,LN19
    000050  aa   000000 000000     155  	zero	0,0   pd ld
    000051  aa   777765 000001     156  	zero	-11,1   rule/alt
    000052  aa   000006 000030     157  	zero	6,ST24 prod/val
    000053  aa   000065 000106     158  	zero	ST53,ST70
                        000004     159  	equ	LN19,*-DPDA-ST19-1
                                   160  "
                                   161  " STATE 24
                        000030     162  	equ	ST24,*-DPDA
    000054  aa   000004 000004     163  	zero	APLY,LN24
    000055  aa   000000 000000     164  	zero	0,0   pd ld
    000056  aa   777767 000001     165  	zero	-9,1   rule/alt
    000057  aa   000005 000035     166  	zero	5,ST29 prod/val
    000060  aa   000066 000112     167  	zero	ST54,ST74
                        000004     168  	equ	LN24,*-DPDA-ST24-1
                                   169  "
                                   170  " STATE 29
                        000035     171  	equ	ST29,*-DPDA
    000061  aa   000011 000004     172  	zero	NSRD,LN29
    000062  aa   000005 777653     173  	zero	T5,-ST85	"|
    000063  aa   000006 777655     174  	zero	T6,-ST83	"&
    000064  aa   000007 777653     175  	zero	T7,-ST85	")
    000065  aa   000010 777653     176  	zero	T8,-ST85	"
                        000004     177  	equ	LN29,*-DPDA-ST29-1
                                   178  "
                                   179  " STATE 34
                        000042     180  	equ	ST34,*-DPDA
    000066  aa   000000 000002     181  	zero	STRD,LN34
    000067  aa   000005 000066     182  	zero	T5,ST54	"|
    000070  aa   000010 000067     183  	zero	T8,ST55	"
                        000002     184  	equ	LN34,*-DPDA-ST34-1
                                   185  "
                                   186  " STATE 37
                        000045     187  	equ	ST37,*-DPDA
    000071  aa   000002 000017     188  	zero	STRDS,ST15
                                   189
                                   190  "
                                   191  " STATE 38
                        000046     192  	equ	ST38,*-DPDA
    000072  aa   000000 000002     193  	zero	STRD,LN38
    000073  aa   000003 000045     194  	zero	T3,ST37	"(
    000074  aa   000011 000055     195  	zero	T9,ST45	"X
                        000002     196  	equ	LN38,*-DPDA-ST38-1
                                   197  "
                                   198  " STATE 41
                        000051     199  	equ	ST41,*-DPDA
    000075  aa   000005 000003     200  	zero	APLY1,LN41
    000076  aa   000001 000001     201  	zero	1,1   pd ld
    000077  aa   000004 000001     202  	zero	4,1   rule/alt
    000100  aa   000003 000004     203  	zero	3,ST4 prod/val
                        000003     204  	equ	LN41,*-DPDA-ST41-1
                                   205  "
                                   206  " STATE 45
                        000055     207  	equ	ST45,*-DPDA
    000101  aa   000004 000004     208  	zero	APLY,LN45
    000102  aa   000000 000000     209  	zero	0,0   pd ld
    000103  aa   777764 000001     210  	zero	-12,1   rule/alt
    000104  aa   000007 000023     211  	zero	7,ST19 prod/val
    000105  aa   000046 000076     212  	zero	ST38,ST62
                        000004     213  	equ	LN45,*-DPDA-ST45-1
                                   214  "
                                   215  " STATE 50
                        000062     216  	equ	ST50,*-DPDA
    000106  aa   000000 000002     217  	zero	STRD,LN50
    000107  aa   000005 000066     218  	zero	T5,ST54	"|
    000110  aa   000010 000102     219  	zero	T8,ST66	"
                        000002     220  	equ	LN50,*-DPDA-ST50-1
                                   221  "
                                   222  " STATE 53
                        000065     223  	equ	ST53,*-DPDA
    000111  aa   000002 000017     224  	zero	STRDS,ST15
                                   225
                                   226  "
                                   227  " STATE 54
                        000066     228  	equ	ST54,*-DPDA
    000112  aa   000002 000017     229  	zero	STRDS,ST15
                                   230
                                   231  "
                                   232  " STATE 55
                        000067     233  	equ	ST55,*-DPDA
    000113  aa   000005 000003     234  	zero	APLY1,LN55
    000114  aa   000002 000002     235  	zero	2,2   pd ld
    000115  aa   000003 000001     236  	zero	3,1   rule/alt
    000116  aa   000003 000004     237  	zero	3,ST4 prod/val
                        000003     238  	equ	LN55,*-DPDA-ST55-1
                                   239  "
                                   240  " STATE 59
                        000073     241  	equ	ST59,*-DPDA
    000117  aa   000000 000002     242  	zero	STRD,LN59
    000120  aa   000005 000066     243  	zero	T5,ST54	"|
    000121  aa   000007 000117     244  	zero	T7,ST79	")
                        000002     245  	equ	LN59,*-DPDA-ST59-1
                                   246  "
                                   247  " STATE 62
                        000076     248  	equ	ST62,*-DPDA
    000122  aa   000006 000003     249  	zero	APLYS,LN62
    000123  aa   000001 000001     250  	zero	1,1   pd ld
    000124  aa   000012 000001     251  	zero	10,1   rule/alt
    000125  aa   000006 000023     252  	zero	6,ST19 prod/val
                        000003     253  	equ	LN62,*-DPDA-ST62-1
                                   254  "
                                   255  " STATE 66
                        000102     256  	equ	ST66,*-DPDA
    000126  aa   000005 000003     257  	zero	APLY1,LN66
    000127  aa   000002 000002     258  	zero	2,2   pd ld
    000130  aa   000005 000001     259  	zero	5,1   rule/alt
    000131  aa   000003 000004     260  	zero	3,ST4 prod/val
                        000003     261  	equ	LN66,*-DPDA-ST66-1
                                   262  "
                                   263  " STATE 70
                        000106     264  	equ	ST70,*-DPDA
    000132  aa   000006 000003     265  	zero	APLYS,LN70
    000133  aa   000002 000002     266  	zero	2,2   pd ld
    000134  aa   000010 000001     267  	zero	8,1   rule/alt
    000135  aa   000005 000030     268  	zero	5,ST24 prod/val
                        000003     269  	equ	LN70,*-DPDA-ST70-1
                                   270  "
                                   271  " STATE 74
                        000112     272  	equ	ST74,*-DPDA
    000136  aa   000011 000004     273  	zero	NSRD,LN74
    000137  aa   000005 777643     274  	zero	T5,-ST93	"|
    000140  aa   000006 777645     275  	zero	T6,-ST91	"&
    000141  aa   000007 777643     276  	zero	T7,-ST93	")
    000142  aa   000010 777643     277  	zero	T8,-ST93	"
                        000004     278  	equ	LN74,*-DPDA-ST74-1
                                   279  "
                                   280  " STATE 79
                        000117     281  	equ	ST79,*-DPDA
    000143  aa   000006 000003     282  	zero	APLYS,LN79
    000144  aa   000002 000002     283  	zero	2,2   pd ld
    000145  aa   000015 000001     284  	zero	13,1   rule/alt
    000146  aa   000007 000055     285  	zero	7,ST45 prod/val
                        000003     286  	equ	LN79,*-DPDA-ST79-1
                                   287  "
                                   288  " STATE 83
                        000123     289  	equ	ST83,*-DPDA
    000147  aa   000000 000001     290  	zero	STRD,LN83
    000150  aa   000006 000065     291  	zero	T6,ST53	"&
                        000001     292  	equ	LN83,*-DPDA-ST83-1
                                   293  "
                                   294  " STATE 85
                        000125     295  	equ	ST85,*-DPDA
    000151  aa   000004 000005     296  	zero	APLY,LN85
    000152  aa   000000 000000     297  	zero	0,0   pd ld
    000153  aa   777771 000001     298  	zero	-7,1   rule/alt
    000154  aa   000004 000042     299  	zero	4,ST34 prod/val
    000155  aa   000017 000062     300  	zero	ST15,ST50
    000156  aa   000045 000073     301  	zero	ST37,ST59
                        000005     302  	equ	LN85,*-DPDA-ST85-1
                                   303  "
                                   304  " STATE 91
                        000133     305  	equ	ST91,*-DPDA
    000157  aa   000000 000001     306  	zero	STRD,LN91
    000160  aa   000006 000065     307  	zero	T6,ST53	"&
                        000001     308  	equ	LN91,*-DPDA-ST91-1
                                   309  "
                                   310  " STATE 93
                        000135     311  	equ	ST93,*-DPDA
    000161  aa   000006 000003     312  	zero	APLYS,LN93
    000162  aa   000002 000002     313  	zero	2,2   pd ld
    000163  aa   000006 000001     314  	zero	6,1   rule/alt
    000164  aa   000004 000125     315  	zero	4,ST85 prod/val
                        000003     316  	equ	LN93,*-DPDA-ST93-1
                        000141     317  	equ	DPDAs,*-DPDA
                                   318
                                   319
    000165  aa   000000 000000     320  	zero	0,0	"SKIP/ADJ
                                   321
    000166  aa   000000 000000     322  	zero	0,0	"SKIP/ADJ
                                   323
    000167  aa   000000 000000     324  	zero	0,0	"SKIP/ADJ
                                   325
    000170  aa   000000 000000     326  	zero	0,0	"SKIP/ADJ
                                   327
    000171  aa   000000 000000     328  	zero	0,0	"SKIP/ADJ
                                   329
    000172  aa   000000 000000     330  	zero	0,0	"SKIP/ADJ
                                   331
    000173  aa   000000 000000     332  	zero	0,0	"SKIP/ADJ
                                   333
    000174  aa   000000 000000     334  	zero	0,0	"SKIP/ADJ
                                   335
    000175  aa   000000 000000     336  	zero	0,0	"SKIP/ADJ
                                   337
    000176  aa   000000 000000     338  	zero	0,0	"SKIP/ADJ
                                   339
    000177  aa   000000 000000     340  	zero	0,0	"SKIP/ADJ
                                   341
    000200  aa   000000 000000     342  	zero	0,0	"SKIP/ADJ
                                   343
    000201  aa   000000 000000     344  	zero	0,0	"SKIP/ADJ
                                   345
    000202  aa   000000 000000     346  	zero	0,0	"SKIP/ADJ
                                   347
    000203  aa   000000 000000     348  	zero	0,0	"SKIP/ADJ
                                   349
    000204  aa   000000 000000     350  	zero	0,0	"SKIP/ADJ
                                   351
    000205  aa   000000 000000     352  	zero	0,0	"SKIP/ADJ
                                   353
    000206  aa   000000 000000     354  	zero	0,0	"SKIP/ADJ
                                   355
    000207  aa   000000 000000     356  	zero	0,0	"SKIP/ADJ
                                   357
    000210  aa   000000 000000     358  	zero	0,0	"SKIP/ADJ
                                   359
    000211  aa   000000 000000     360  	zero	0,0	"SKIP/ADJ
                                   361
    000212  aa   000000 000000     362  	zero	0,0	"SKIP/ADJ
                                   363
    000213  aa   000000 000000     364  	zero	0,0	"SKIP/ADJ
                                   365
    000214  aa   000000 000000     366  	zero	0,0	"SKIP/ADJ
                                   367
    000215  aa   000000 000000     368  	zero	0,0	"SKIP/ADJ
                                   369
    000216  aa   000000 000000     370  	zero	0,0	"SKIP/ADJ
                                   371
    000217  aa   000000 000000     372  	zero	0,0	"SKIP/ADJ
                                   373
    000220  aa   000000 000000     374  	zero	0,0	"SKIP/ADJ
                                   375
    000221  aa   000000 000000     376  	zero	0,0	"SKIP/ADJ
                                   377
    000222  aa   000000 000000     378  	zero	0,0	"SKIP/ADJ
                                   379
    000223  aa   000000 000000     380  	zero	0,0	"SKIP/ADJ
                                   381
    000224  aa   000000 000000     382  	zero	0,0	"SKIP/ADJ
                                   383
    000225  aa   000000 000000     384  	zero	0,0	"SKIP/ADJ
                                   385
    000226  aa   000000 000000     386  	zero	0,0	"SKIP/ADJ
                                   387
    000227  aa   000000 000000     388  	zero	0,0	"SKIP/ADJ
                                   389
    000230  aa   000000 000000     390  	zero	0,0	"SKIP/ADJ
                                   391
    000231  aa   000000 000000     392  	zero	0,0	"SKIP/ADJ
                                   393
    000232  aa   000000 000000     394  	zero	0,0	"SKIP/ADJ
                                   395
    000233  aa   000000 000000     396  	zero	0,0	"SKIP/ADJ
                                   397
    000234  aa   000000 000000     398  	zero	0,0	"SKIP/ADJ
                                   399
    000235  aa   000000 000000     400  	zero	0,0	"SKIP/ADJ
                                   401
    000236  aa   000000 000000     402  	zero	0,0	"SKIP/ADJ
                                   403
    000237  aa   000000 000000     404  	zero	0,0	"SKIP/ADJ
                                   405
    000240  aa   000000 000000     406  	zero	0,0	"SKIP/ADJ
                                   407
    000241  aa   000000 000000     408  	zero	0,0	"SKIP/ADJ
                                   409
    000242  aa   000000 000000     410  	zero	0,0	"SKIP/ADJ
                                   411
    000243  aa   000000 000000     412  	zero	0,0	"SKIP/ADJ
                                   413
    000244  aa   000000 000000     414  	zero	0,0	"SKIP/ADJ
                                   415
    000245  aa   000000 000000     416  	zero	0,0	"SKIP/ADJ
                                   417
    000246  aa   000000 000000     418  	zero	0,0	"SKIP/ADJ
                                   419
    000247  aa   000000 000000     420  	zero	0,0	"SKIP/ADJ
                                   421
    000250  aa   000000 000000     422  	zero	0,0	"SKIP/ADJ
                                   423
    000251  aa   000000 000000     424  	zero	0,0	"SKIP/ADJ
                                   425
    000252  aa   000000 000000     426  	zero	0,0	"SKIP/ADJ
                                   427
    000253  aa   000000 000000     428  	zero	0,0	"SKIP/ADJ
                                   429
    000254  aa   000000 000000     430  	zero	0,0	"SKIP/ADJ
                                   431
    000255  aa   000000 000000     432  	zero	0,0	"SKIP/ADJ
                                   433
    000256  aa   000000 000000     434  	zero	0,0	"SKIP/ADJ
                                   435
    000257  aa   000000 000000     436  	zero	0,0	"SKIP/ADJ
                                   437
    000260  aa   000000 000000     438  	zero	0,0	"SKIP/ADJ
                                   439
    000261  aa   000000 000000     440  	zero	0,0	"SKIP/ADJ
                                   441
    000262  aa   000000 000000     442  	zero	0,0	"SKIP/ADJ
                                   443
    000263  aa   000000 000000     444  	zero	0,0	"SKIP/ADJ
                                   445
    000264  aa   000000 000000     446  	zero	0,0	"SKIP/ADJ
                                   447
    000265  aa   000000 000000     448  	zero	0,0	"SKIP/ADJ
                                   449
    000266  aa   000000 000000     450  	zero	0,0	"SKIP/ADJ
                                   451
    000267  aa   000000 000000     452  	zero	0,0	"SKIP/ADJ
                                   453
    000270  aa   000000 000000     454  	zero	0,0	"SKIP/ADJ
                                   455
    000271  aa   000000 000000     456  	zero	0,0	"SKIP/ADJ
                                   457
    000272  aa   000000 000000     458  	zero	0,0	"SKIP/ADJ
                                   459
    000273  aa   000000 000000     460  	zero	0,0	"SKIP/ADJ
                                   461
    000274  aa   000000 000000     462  	zero	0,0	"SKIP/ADJ
                                   463
    000275  aa   000000 000000     464  	zero	0,0	"SKIP/ADJ
                                   465
    000276  aa   000000 000000     466  	zero	0,0	"SKIP/ADJ
                                   467
    000277  aa   000000 000000     468  	zero	0,0	"SKIP/ADJ
                                   469
    000300  aa   000000 000000     470  	zero	0,0	"SKIP/ADJ
                                   471
    000301  aa   000000 000000     472  	zero	0,0	"SKIP/ADJ
                                   473
    000302  aa   000000 000000     474  	zero	0,0	"SKIP/ADJ
                                   475
    000303  aa   000000 000000     476  	zero	0,0	"SKIP/ADJ
                                   477
    000304  aa   000000 000000     478  	zero	0,0	"SKIP/ADJ
                                   479
    000305  aa   000000 000000     480  	zero	0,0	"SKIP/ADJ
                                   481
    000306  aa   000000 000000     482  	zero	0,0	"SKIP/ADJ
                                   483
    000307  aa   000000 000000     484  	zero	0,0	"SKIP/ADJ
                                   485
    000310  aa   000000 000000     486  	zero	0,0	"SKIP/ADJ
                                   487
    000311  aa   000000 000000     488  	zero	0,0	"SKIP/ADJ
                                   489
    000312  aa   000000 000000     490  	zero	0,0	"SKIP/ADJ
                                   491  	end

NO LITERALS

NAME DEFINITIONS FOR ENTRY POINTS AND SEGDEFS

    000314  5a   000003 000000
    000315  5a   000035 600000
    000316  aa   000000 000000
    000317  55   000011 000002
    000320  5a   000002 400003
    000321  55   000006 000011
    000322  aa  011 164 145 144
    000323  aa  137 147 166 137
    000324  aa  164 137 000 000
    000325  55   000016 000003
    000326  0a   000024 400000
    000327  55   000014 000003
    000330  aa  004 104 120 104         DPDA
    000331  aa  101 000 000 000
    000332  55   000022 000011
    000333  0a   000012 400000
    000334  55   000021 000003
    000335  aa  002 124 114 000         TL
    000336  55   000026 000016
    000337  0a   000000 400000
    000340  55   000025 000003
    000341  aa  002 124 103 000         TC
    000342  55   000002 000022
    000343  6a   000000 400002
    000344  55   000031 000003
    000345  aa  014 163 171 155         symbol_table
    000346  aa  142 157 154 137
    000347  aa  164 141 142 154
    000350  aa  145 000 000 000

DEFINITIONS HASH TABLE

    000351  aa   000000 000015
    000352  5a   000016 000000
    000353  aa   000000 000000
    000354  aa   000000 000000
    000355  5a   000011 000000
    000356  aa   000000 000000
    000357  aa   000000 000000
    000360  5a   000026 000000
    000361  5a   000022 000000
    000362  aa   000000 000000
    000363  aa   000000 000000
    000364  aa   000000 000000
    000365  aa   000000 000000
    000366  aa   000000 000000

NO EXTERNAL NAMES

NO TRAP POINTER WORDS

TYPE PAIR BLOCKS

    000367  aa   000001 000000
    000370  aa   000000 000000

INTERNAL EXPRESSION WORDS

    000371  aa   000000 000000
LINKAGE INFORMATION

    000000  aa   000000 000000
    000001  0a   000314 000000
    000002  aa   000000 000000
    000003  aa   000000 000000
    000004  aa   000000 000000
    000005  aa   000000 000000
    000006  22   000010 000010
    000007  a2   000000 000000
SYMBOL INFORMATION

SYMBOL TABLE HEADER

    000000  aa   000000 000001
    000001  aa   163171 155142
    000002  aa   164162 145145
    000003  aa   000000 000010
    000004  aa   000000 117244
    000005  aa   361023 525721
    000006  aa   000000 131036
    000007  aa   706147 054513
    000010  aa   141154 155040
    000011  aa   040040 040040
    000012  aa   000024 000040
    000013  aa   000034 000040
    000014  aa   000044 000100
    000015  aa   000002 000002
    000016  aa   000064 000000
    000017  aa   000000 000141
    000020  aa   000000 000102
    000021  aa   000123 000120
    000022  aa   000133 000102
    000023  aa   000064 000000
    000024  aa   101114 115040
    000025  aa   126145 162163
    000026  aa   151157 156040
    000027  aa   070056 061064
    000030  aa   040115 141162
    000031  aa   143150 040061
    000032  aa   071070 071040
    000033  aa   040040 040040
    000034  aa   123143 150162
    000035  aa   157164 150056
    000036  aa   123171 163115
    000037  aa   141151 156164
    000040  aa   056155 040040
    000041  aa   040040 040040
    000042  aa   040040 040040
    000043  aa   040040 040040
    000044  aa   154151 163164
    000045  aa   040163 171155
    000046  aa   142157 154163
    000047  aa   040040 040040
    000050  aa   040040 040040
    000051  aa   040040 040040
    000052  aa   040040 040040
    000053  aa   040040 040040
    000054  aa   040040 040040
    000055  aa   040040 040040
    000056  aa   040040 040040
    000057  aa   040040 040040
    000060  aa   040040 040040
    000061  aa   040040 040040
    000062  aa   040040 040040
    000063  aa   040040 040040
    000064  aa   000000 000001
    000065  aa   000000 000001
    000066  aa   000072 000035
    000067  aa   310157 126304
    000070  aa   000000 131036
    000071  aa   706147 000000
    000072  aa   076165 144144          >udd>sm>ds>w>ml>ted_gv_t_.alm
    000073  aa   076163 155076
    000074  aa   144163 076167
    000075  aa   076155 154076
    000076  aa   164145 144137
    000077  aa   147166 137164
    000100  aa   137056 141154
    000101  aa   155040 040040
               MULTICS ASSEMBLY CROSS REFERENCE LISTING

   Value        Symbol                   Source file   Line number

          10    ADJUST                   ted_gv_t_:     17.
           4    APLY                     ted_gv_t_:     13,  154,  163,  208,  296.
           5    APLY1                    ted_gv_t_:     14,  123,  200,  234,  257.
           6    APLYS                    ted_gv_t_:     15,  249,  265,  282,  312.
          24    DPDA                     ted_gv_t_:      8,  112,  115,  119,  122,  127,  130,  133,  136,  142,  145,  150,
                                                       153,  159,  162,  168,  171,  177,  180,  184,  187,  192,  196,  199,
                                                       204,  207,  213,  216,  220,  223,  228,  233,  238,  241,  245,  248,
                                                       253,  256,  261,  264,  269,  272,  278,  281,  286,  289,  292,  295,
                                                       302,  305,  308,  311,  316,  317.
         141    DPDAs                    ted_gv_t_:    112,  317.
           2    LN1                      ted_gv_t_:    116,  119.
           4    LN10                     ted_gv_t_:    137,  142.
           3    LN15                     ted_gv_t_:    146,  150.
           4    LN19                     ted_gv_t_:    154,  159.
           4    LN24                     ted_gv_t_:    163,  168.
           4    LN29                     ted_gv_t_:    172,  177.
           2    LN34                     ted_gv_t_:    181,  184.
           2    LN38                     ted_gv_t_:    193,  196.
           3    LN4                      ted_gv_t_:    123,  127.
           3    LN41                     ted_gv_t_:    200,  204.
           4    LN45                     ted_gv_t_:    208,  213.
           2    LN50                     ted_gv_t_:    217,  220.
           3    LN55                     ted_gv_t_:    234,  238.
           2    LN59                     ted_gv_t_:    242,  245.
           3    LN62                     ted_gv_t_:    249,  253.
           3    LN66                     ted_gv_t_:    257,  261.
           3    LN70                     ted_gv_t_:    265,  269.
           4    LN74                     ted_gv_t_:    273,  278.
           3    LN79                     ted_gv_t_:    282,  286.
           1    LN8                      ted_gv_t_:    131,  133.
           1    LN83                     ted_gv_t_:    290,  292.
           5    LN85                     ted_gv_t_:    296,  302.
           1    LN91                     ted_gv_t_:    306,  308.
           3    LN93                     ted_gv_t_:    312,  316.
           1    LOOK                     ted_gv_t_:     10.
           3    LOOKS                    ted_gv_t_:     12.
          11    NSRD                     ted_gv_t_:     18,  172,  273.
          12    NSRDS                    ted_gv_t_:     19.
           7    SKIP                     ted_gv_t_:     16.
           0    ST0                      ted_gv_t_:     21,  132.
           1    ST1                      ted_gv_t_:    115,  119.
          12    ST10                     ted_gv_t_:    117,  136,  142.
          17    ST15                     ted_gv_t_:    118,  145,  150,  188,  224,  229,  300.
          23    ST19                     ted_gv_t_:    153,  159,  211,  252.
          30    ST24                     ted_gv_t_:    157,  162,  168,  268.
          35    ST29                     ted_gv_t_:    166,  171,  177.
          42    ST34                     ted_gv_t_:    180,  184,  299.
          45    ST37                     ted_gv_t_:    138,  147,  187,  194,  301.
          46    ST38                     ted_gv_t_:    139,  148,  192,  196,  212.
           4    ST4                      ted_gv_t_:    122,  127,  203,  237,  260.
          51    ST41                     ted_gv_t_:    140,  199,  204.
          55    ST45                     ted_gv_t_:    141,  149,  195,  207,  213,  285.
          62    ST50                     ted_gv_t_:    216,  220,  300.
          65    ST53                     ted_gv_t_:    158,  223,  291,  307.
          66    ST54                     ted_gv_t_:    167,  182,  218,  228,  243.
          67    ST55                     ted_gv_t_:    183,  233,  238.
          73    ST59                     ted_gv_t_:    241,  245,  301.
          76    ST62                     ted_gv_t_:    212,  248,  253.
         102    ST66                     ted_gv_t_:    219,  256,  261.
         106    ST70                     ted_gv_t_:    158,  264,  269.
         112    ST74                     ted_gv_t_:    167,  272,  278.
         117    ST79                     ted_gv_t_:    244,  281,  286.
          10    ST8                      ted_gv_t_:    126,  130,  133.
         123    ST83                     ted_gv_t_:    174,  289,  292.
         125    ST85                     ted_gv_t_:    173,  175,  176,  295,  302,  315.
         133    ST91                     ted_gv_t_:    275,  305,  308.
         135    ST93                     ted_gv_t_:    274,  276,  277,  311,  316.
           0    STRD                     ted_gv_t_:      9,  116,  131,  137,  146,  181,  193,  217,  242,  290,  306.
           2    STRDS                    ted_gv_t_:     11,  188,  224,  229.
           0    T0                       ted_gv_t_:     20,  132.
           1    T1                       ted_gv_t_:     36,  117.
           2    T2                       ted_gv_t_:     44,  118.
           3    T3                       ted_gv_t_:     52,  138,  147,  194.
           4    T4                       ted_gv_t_:     60,  139,  148.
           5    T5                       ted_gv_t_:     68,  173,  182,  218,  243,  274.
           6    T6                       ted_gv_t_:     76,  174,  275,  291,  307.
           7    T7                       ted_gv_t_:     84,  175,  244,  276.
          10    T8                       ted_gv_t_:     92,  140,  176,  183,  219,  277.
          11    T9                       ted_gv_t_:    100,  141,  149,  195.
           0    TC                       ted_gv_t_:      6,   27,   33,   41,   49,   57,   65,   73,   81,   89,   97.
           0    TCs                      ted_gv_t_:     27,  104.
          24    text                     ted_gv_t_:    108.
          12    TL                       ted_gv_t_:      7,   29,   36,   44,   52,   60,   68,   76,   84,   92,  100,  106.
          11    TLs                      ted_gv_t_:     29,  106.
          10    Tsl                      ted_gv_t_:     33,   37,   41,   45,   49,   53,   57,   61,   65,   69,   73,   77,
                                                        81,   85,   89,   93,   97,  101.
           0    utc                      ted_gv_t_:     26,   32,   40,   48,   56,   64,   72,   80,   88,   96,  103.
          12    utl                      ted_gv_t_:     28,   35,   43,   51,   59,   67,   75,   83,   91,   99,  105.


NO FATAL ERRORS


                                          -----------------------------------------------------------


Historical Background

This edition of the Multics software materials and documentation is provided and donated
to Massachusetts Institute of Technology by Group BULL including BULL HN Information Systems Inc.
as a contribution to computer science knowledge.
This donation is made also to give evidence of the common contributions of Massachusetts Institute of Technology,
Bell Laboratories, General Electric, Honeywell Information Systems Inc., Honeywell BULL Inc., Groupe BULL
and BULL HN Information Systems Inc. to the development of this operating system.
Multics development was initiated by Massachusetts Institute of Technology Project MAC (1963-1970),
renamed the MIT Laboratory for Computer Science and Artificial Intelligence in the mid 1970s, under the leadership
of Professor Fernando Jose Corbato. Users consider that Multics provided the best software architecture
for managing computer hardware properly and for executing programs. Many subsequent operating systems
incorporated Multics principles.
Multics was distributed in 1975 to 2000 by Group Bull in Europe , and in the U.S. by Bull HN Information Systems Inc.,
as successor in interest by change in name only to Honeywell Bull Inc. and Honeywell Information Systems Inc. .

                                          -----------------------------------------------------------

Permission to use, copy, modify, and distribute these programs and their documentation for any purpose and without
fee is hereby granted,provided that the below copyright notice and historical background appear in all copies
and that both the copyright notice and historical background and this permission notice appear in supporting
documentation, and that the names of MIT, HIS, BULL or BULL HN not be used in advertising or publicity pertaining
to distribution of the programs without specific prior written permission.
    Copyright 1972 by Massachusetts Institute of Technology and Honeywell Information Systems Inc.
    Copyright 2006 by BULL HN Information Systems Inc.
    Copyright 2006 by Bull SAS
    All Rights Reserved
