ASSEMBLY LISTING OF SEGMENT >spec>on>11/22/82>ted_eval_t_.alm
ASSEMBLED ON:	11/23/82  1031.5 mst Tue
OPTIONS USED:	list
ASSEMBLED BY:	ALM Version  6.4  April 1981
ASSEMBLER CREATED:	11/03/82  1423.6 mst Wed

                                     1  " ***********************************************************
                                     2  " *                                                         *
                                     3  " * Copyright, (C) Honeywell Information Systems Inc., 1982 *
                                     4  " *                                                         *
                                     5  " ***********************************************************
                        000000       6  	equ	STRD,0
                        000001       7  	equ	LOOK,1
                        000002       8  	equ	STRDS,2
                        000003       9  	equ	LOOKS,3
                        000004      10  	equ	APLY,4
                        000005      11  	equ	APLY1,5
                        000006      12  	equ	APLYS,6
                        000007      13  	equ	SKIP,7
                        000010      14  	equ	ADJUST,8
                        000011      15  	equ	NSRD,9
                        000012      16  	equ	NSRDS,10
                        000000      17  	equ	T0,0
                        000000      18  	equ	ST0,0
                                    19  "
                                    20  "
                                    21  " TERMINALS table (TL TC)
                                    22  "
                                    23  	use	utc
    000000  aa   000000 000000      24  TC:	zero	0,TCs*4
                        000000      25  	segdef	TC
                        000000      26  	equ	T0,0
                                    27  	use	utl
    000116  aa   000000 000110      28  TL:	zero	0,TLs
                        000116      29  	segdef	TL
                                    30  "
                                    31  " TERMINAL 1
                                    32  	use	utc
                        000000      33  	set	Tsl,*-TC-1
    000001  aa  074 151 156 164     34  	aci	"<int"
    000002  aa  145 147 145 162     35  	aci	"eger"
    000003  aa  076 040 040 040     36  	aci	">   "
                                    37  	use	utl
                        000001      38  	equ	T1,*-TL
    000117  aa   000001 000011      39  	zero	Tsl*4+1,9
                                    40  "
                                    41  " TERMINAL 2
                                    42  	use	utc
                        000003      43  	set	Tsl,*-TC-1
    000004  aa  074 163 164 162     44  	aci	"<str"
    000005  aa  151 156 147 076     45  	aci	"ing>"
                                    46  	use	utl
                        000002      47  	equ	T2,*-TL
    000120  aa   000015 000010      48  	zero	Tsl*4+1,8
                                    49  "
                                    50  " TERMINAL 3
                                    51  	use	utc
                        000005      52  	set	Tsl,*-TC-1
    000006  aa  135 040 040 040     53  	aci	"]   "
                                    54  	use	utl
                        000003      55  	equ	T3,*-TL
    000121  aa   000025 000001      56  	zero	Tsl*4+1,1
                                    57  "
                                    58  " TERMINAL 4
                                    59  	use	utc
                        000006      60  	set	Tsl,*-TC-1
    000007  aa  054 040 040 040     61  	aci	",   "
                                    62  	use	utl
                        000004      63  	equ	T4,*-TL
    000122  aa   000031 000001      64  	zero	Tsl*4+1,1
                                    65  "
                                    66  " TERMINAL 5
                                    67  	use	utc
                        000007      68  	set	Tsl,*-TC-1
    000010  aa  173 040 040 040     69  	aci	"{   "
                                    70  	use	utl
                        000005      71  	equ	T5,*-TL
    000123  aa   000035 000001      72  	zero	Tsl*4+1,1
                                    73  "
                                    74  " TERMINAL 6
                                    75  	use	utc
                        000010      76  	set	Tsl,*-TC-1
    000011  aa  175 040 040 040     77  	aci	"}   "
                                    78  	use	utl
                        000006      79  	equ	T6,*-TL
    000124  aa   000041 000001      80  	zero	Tsl*4+1,1
                                    81  "
                                    82  " TERMINAL 7
                                    83  	use	utc
                        000011      84  	set	Tsl,*-TC-1
    000012  aa  050 040 040 040     85  	aci	"(   "
                                    86  	use	utl
                        000007      87  	equ	T7,*-TL
    000125  aa   000045 000001      88  	zero	Tsl*4+1,1
                                    89  "
                                    90  " TERMINAL 8
                                    91  	use	utc
                        000012      92  	set	Tsl,*-TC-1
    000013  aa  051 040 040 040     93  	aci	")   "
                                    94  	use	utl
                        000010      95  	equ	T8,*-TL
    000126  aa   000051 000001      96  	zero	Tsl*4+1,1
                                    97  "
                                    98  " TERMINAL 9
                                    99  	use	utc
                        000013     100  	set	Tsl,*-TC-1
    000014  aa  072 040 040 040    101  	aci	":   "
                                   102  	use	utl
                        000011     103  	equ	T9,*-TL
    000127  aa   000055 000001     104  	zero	Tsl*4+1,1
                                   105  "
                                   106  " TERMINAL 10
                                   107  	use	utc
                        000014     108  	set	Tsl,*-TC-1
    000015  aa  073 040 040 040    109  	aci	";   "
                                   110  	use	utl
                        000012     111  	equ	T10,*-TL
    000130  aa   000061 000001     112  	zero	Tsl*4+1,1
                                   113  "
                                   114  " TERMINAL 11
                                   115  	use	utc
                        000015     116  	set	Tsl,*-TC-1
    000016  aa  072 075 040 040    117  	aci	":=  "
                                   118  	use	utl
                        000013     119  	equ	T11,*-TL
    000131  aa   000065 000002     120  	zero	Tsl*4+1,2
                                   121  "
                                   122  " TERMINAL 12
                                   123  	use	utc
                        000016     124  	set	Tsl,*-TC-1
    000017  aa  052 040 040 040    125  	aci	"*   "
                                   126  	use	utl
                        000014     127  	equ	T12,*-TL
    000132  aa   000071 000001     128  	zero	Tsl*4+1,1
                                   129  "
                                   130  " TERMINAL 13
                                   131  	use	utc
                        000017     132  	set	Tsl,*-TC-1
    000020  aa  057 040 040 040    133  	aci	"/   "
                                   134  	use	utl
                        000015     135  	equ	T13,*-TL
    000133  aa   000075 000001     136  	zero	Tsl*4+1,1
                                   137  "
                                   138  " TERMINAL 14
                                   139  	use	utc
                        000020     140  	set	Tsl,*-TC-1
    000021  aa  174 040 040 040    141  	aci	"|   "
                                   142  	use	utl
                        000016     143  	equ	T14,*-TL
    000134  aa   000101 000001     144  	zero	Tsl*4+1,1
                                   145  "
                                   146  " TERMINAL 15
                                   147  	use	utc
                        000021     148  	set	Tsl,*-TC-1
    000022  aa  053 040 040 040    149  	aci	"+   "
                                   150  	use	utl
                        000017     151  	equ	T15,*-TL
    000135  aa   000105 000001     152  	zero	Tsl*4+1,1
                                   153  "
                                   154  " TERMINAL 16
                                   155  	use	utc
                        000022     156  	set	Tsl,*-TC-1
    000023  aa  055 040 040 040    157  	aci	"-   "
                                   158  	use	utl
                        000020     159  	equ	T16,*-TL
    000136  aa   000111 000001     160  	zero	Tsl*4+1,1
                                   161  "
                                   162  " TERMINAL 17
                                   163  	use	utc
                        000023     164  	set	Tsl,*-TC-1
    000024  aa  074 040 040 040    165  	aci	"<   "
                                   166  	use	utl
                        000021     167  	equ	T17,*-TL
    000137  aa   000115 000001     168  	zero	Tsl*4+1,1
                                   169  "
                                   170  " TERMINAL 18
                                   171  	use	utc
                        000024     172  	set	Tsl,*-TC-1
    000025  aa  076 040 040 040    173  	aci	">   "
                                   174  	use	utl
                        000022     175  	equ	T18,*-TL
    000140  aa   000121 000001     176  	zero	Tsl*4+1,1
                                   177  "
                                   178  " TERMINAL 19
                                   179  	use	utc
                        000025     180  	set	Tsl,*-TC-1
    000026  aa  075 040 040 040    181  	aci	"=   "
                                   182  	use	utl
                        000023     183  	equ	T19,*-TL
    000141  aa   000125 000001     184  	zero	Tsl*4+1,1
                                   185  "
                                   186  " TERMINAL 20
                                   187  	use	utc
                        000026     188  	set	Tsl,*-TC-1
    000027  aa  074 075 040 040    189  	aci	"<=  "
                                   190  	use	utl
                        000024     191  	equ	T20,*-TL
    000142  aa   000131 000002     192  	zero	Tsl*4+1,2
                                   193  "
                                   194  " TERMINAL 21
                                   195  	use	utc
                        000027     196  	set	Tsl,*-TC-1
    000030  aa  076 075 040 040    197  	aci	">=  "
                                   198  	use	utl
                        000025     199  	equ	T21,*-TL
    000143  aa   000135 000002     200  	zero	Tsl*4+1,2
                                   201  "
                                   202  " TERMINAL 22
                                   203  	use	utc
                        000030     204  	set	Tsl,*-TC-1
    000031  aa  136 075 040 040    205  	aci	"^=  "
                                   206  	use	utl
                        000026     207  	equ	T22,*-TL
    000144  aa   000141 000002     208  	zero	Tsl*4+1,2
                                   209  "
                                   210  " TERMINAL 23
                                   211  	use	utc
                        000031     212  	set	Tsl,*-TC-1
    000032  aa  141 133 040 040    213  	aci	"a[  "
                                   214  	use	utl
                        000027     215  	equ	T23,*-TL
    000145  aa   000145 000002     216  	zero	Tsl*4+1,2
                                   217  "
                                   218  " TERMINAL 24
                                   219  	use	utc
                        000032     220  	set	Tsl,*-TC-1
    000033  aa  153 133 040 040    221  	aci	"k[  "
                                   222  	use	utl
                        000030     223  	equ	T24,*-TL
    000146  aa   000151 000002     224  	zero	Tsl*4+1,2
                                   225  "
                                   226  " TERMINAL 25
                                   227  	use	utc
                        000033     228  	set	Tsl,*-TC-1
    000034  aa  113 133 040 040    229  	aci	"K[  "
                                   230  	use	utl
                        000031     231  	equ	T25,*-TL
    000147  aa   000155 000002     232  	zero	Tsl*4+1,2
                                   233  "
                                   234  " TERMINAL 26
                                   235  	use	utc
                        000034     236  	set	Tsl,*-TC-1
    000035  aa  113 163 040 040    237  	aci	"Ks  "
                                   238  	use	utl
                        000032     239  	equ	T26,*-TL
    000150  aa   000161 000002     240  	zero	Tsl*4+1,2
                                   241  "
                                   242  " TERMINAL 27
                                   243  	use	utc
                        000035     244  	set	Tsl,*-TC-1
    000036  aa  142 145 040 040    245  	aci	"be  "
                                   246  	use	utl
                        000033     247  	equ	T27,*-TL
    000151  aa   000165 000002     248  	zero	Tsl*4+1,2
                                   249  "
                                   250  " TERMINAL 28
                                   251  	use	utc
                        000036     252  	set	Tsl,*-TC-1
    000037  aa  142 156 040 040    253  	aci	"bn  "
                                   254  	use	utl
                        000034     255  	equ	T28,*-TL
    000152  aa   000171 000002     256  	zero	Tsl*4+1,2
                                   257  "
                                   258  " TERMINAL 29
                                   259  	use	utc
                        000037     260  	set	Tsl,*-TC-1
    000040  aa  146 154 040 040    261  	aci	"fl  "
                                   262  	use	utl
                        000035     263  	equ	T29,*-TL
    000153  aa   000175 000002     264  	zero	Tsl*4+1,2
                                   265  "
                                   266  " TERMINAL 30
                                   267  	use	utc
                        000040     268  	set	Tsl,*-TC-1
    000041  aa  146 163 040 040    269  	aci	"fs  "
                                   270  	use	utl
                        000036     271  	equ	T30,*-TL
    000154  aa   000201 000002     272  	zero	Tsl*4+1,2
                                   273  "
                                   274  " TERMINAL 31
                                   275  	use	utc
                        000041     276  	set	Tsl,*-TC-1
    000042  aa  154 142 040 040    277  	aci	"lb  "
                                   278  	use	utl
                        000037     279  	equ	T31,*-TL
    000155  aa   000205 000002     280  	zero	Tsl*4+1,2
                                   281  "
                                   282  " TERMINAL 32
                                   283  	use	utc
                        000042     284  	set	Tsl,*-TC-1
    000043  aa  154 145 040 040    285  	aci	"le  "
                                   286  	use	utl
                        000040     287  	equ	T32,*-TL
    000156  aa   000211 000002     288  	zero	Tsl*4+1,2
                                   289  "
                                   290  " TERMINAL 33
                                   291  	use	utc
                        000043     292  	set	Tsl,*-TC-1
    000044  aa  163 142 040 040    293  	aci	"sb  "
                                   294  	use	utl
                        000041     295  	equ	T33,*-TL
    000157  aa   000215 000002     296  	zero	Tsl*4+1,2
                                   297  "
                                   298  " TERMINAL 34
                                   299  	use	utc
                        000044     300  	set	Tsl,*-TC-1
    000045  aa  163 145 040 040    301  	aci	"se  "
                                   302  	use	utl
                        000042     303  	equ	T34,*-TL
    000160  aa   000221 000002     304  	zero	Tsl*4+1,2
                                   305  "
                                   306  " TERMINAL 35
                                   307  	use	utc
                        000045     308  	set	Tsl,*-TC-1
    000046  aa  144 141 040 040    309  	aci	"da  "
                                   310  	use	utl
                        000043     311  	equ	T35,*-TL
    000161  aa   000225 000002     312  	zero	Tsl*4+1,2
                                   313  "
                                   314  " TERMINAL 36
                                   315  	use	utc
                        000046     316  	set	Tsl,*-TC-1
    000047  aa  144 153 040 040    317  	aci	"dk  "
                                   318  	use	utl
                        000044     319  	equ	T36,*-TL
    000162  aa   000231 000002     320  	zero	Tsl*4+1,2
                                   321  "
                                   322  " TERMINAL 37
                                   323  	use	utc
                        000047     324  	set	Tsl,*-TC-1
    000050  aa  144 113 040 040    325  	aci	"dK  "
                                   326  	use	utl
                        000045     327  	equ	T37,*-TL
    000163  aa   000235 000002     328  	zero	Tsl*4+1,2
                                   329  "
                                   330  " TERMINAL 38
                                   331  	use	utc
                        000050     332  	set	Tsl,*-TC-1
    000051  aa  144 156 040 040    333  	aci	"dn  "
                                   334  	use	utl
                        000046     335  	equ	T38,*-TL
    000164  aa   000241 000002     336  	zero	Tsl*4+1,2
                                   337  "
                                   338  " TERMINAL 39
                                   339  	use	utc
                        000051     340  	set	Tsl,*-TC-1
    000052  aa  145 156 040 040    341  	aci	"en  "
                                   342  	use	utl
                        000047     343  	equ	T39,*-TL
    000165  aa   000245 000002     344  	zero	Tsl*4+1,2
                                   345  "
                                   346  " TERMINAL 40
                                   347  	use	utc
                        000052     348  	set	Tsl,*-TC-1
    000053  aa  163 156 040 040    349  	aci	"sn  "
                                   350  	use	utl
                        000050     351  	equ	T40,*-TL
    000166  aa   000251 000002     352  	zero	Tsl*4+1,2
                                   353  "
                                   354  " TERMINAL 41
                                   355  	use	utc
                        000053     356  	set	Tsl,*-TC-1
    000054  aa  146 141 153 040    357  	aci	"fak "
                                   358  	use	utl
                        000051     359  	equ	T41,*-TL
    000167  aa   000255 000003     360  	zero	Tsl*4+1,3
                                   361  "
                                   362  " TERMINAL 42
                                   363  	use	utc
                        000054     364  	set	Tsl,*-TC-1
    000055  aa  146 153 141 040    365  	aci	"fka "
                                   366  	use	utl
                        000052     367  	equ	T42,*-TL
    000170  aa   000261 000003     368  	zero	Tsl*4+1,3
                                   369  "
                                   370  " TERMINAL 43
                                   371  	use	utc
                        000055     372  	set	Tsl,*-TC-1
    000056  aa  145 155 040 040    373  	aci	"em  "
                                   374  	use	utl
                        000053     375  	equ	T43,*-TL
    000171  aa   000265 000002     376  	zero	Tsl*4+1,2
                                   377  "
                                   378  " TERMINAL 44
                                   379  	use	utc
                        000056     380  	set	Tsl,*-TC-1
    000057  aa  146 151 040 040    381  	aci	"fi  "
                                   382  	use	utl
                        000054     383  	equ	T44,*-TL
    000172  aa   000271 000002     384  	zero	Tsl*4+1,2
                                   385  "
                                   386  " TERMINAL 45
                                   387  	use	utc
                        000057     388  	set	Tsl,*-TC-1
    000060  aa  146 151 162 040    389  	aci	"fir "
                                   390  	use	utl
                        000055     391  	equ	T45,*-TL
    000173  aa   000275 000003     392  	zero	Tsl*4+1,3
                                   393  "
                                   394  " TERMINAL 46
                                   395  	use	utc
                        000060     396  	set	Tsl,*-TC-1
    000061  aa  146 166 040 040    397  	aci	"fv  "
                                   398  	use	utl
                        000056     399  	equ	T46,*-TL
    000174  aa   000301 000002     400  	zero	Tsl*4+1,2
                                   401  "
                                   402  " TERMINAL 47
                                   403  	use	utc
                        000061     404  	set	Tsl,*-TC-1
    000062  aa  146 166 162 040    405  	aci	"fvr "
                                   406  	use	utl
                        000057     407  	equ	T47,*-TL
    000175  aa   000305 000003     408  	zero	Tsl*4+1,3
                                   409  "
                                   410  " TERMINAL 48
                                   411  	use	utc
                        000062     412  	set	Tsl,*-TC-1
    000063  aa  146 146 040 040    413  	aci	"ff  "
                                   414  	use	utl
                        000060     415  	equ	T48,*-TL
    000176  aa   000311 000002     416  	zero	Tsl*4+1,2
                                   417  "
                                   418  " TERMINAL 49
                                   419  	use	utc
                        000063     420  	set	Tsl,*-TC-1
    000064  aa  146 146 162 040    421  	aci	"ffr "
                                   422  	use	utl
                        000061     423  	equ	T49,*-TL
    000177  aa   000315 000003     424  	zero	Tsl*4+1,3
                                   425  "
                                   426  " TERMINAL 50
                                   427  	use	utc
                        000064     428  	set	Tsl,*-TC-1
    000065  aa  146 154 156 040    429  	aci	"fln "
                                   430  	use	utl
                        000062     431  	equ	T50,*-TL
    000200  aa   000321 000003     432  	zero	Tsl*4+1,3
                                   433  "
                                   434  " TERMINAL 51
                                   435  	use	utc
                        000065     436  	set	Tsl,*-TC-1
    000066  aa  163 153 040 040    437  	aci	"sk  "
                                   438  	use	utl
                        000063     439  	equ	T51,*-TL
    000201  aa   000325 000002     440  	zero	Tsl*4+1,2
                                   441  "
                                   442  " TERMINAL 52
                                   443  	use	utc
                        000066     444  	set	Tsl,*-TC-1
    000067  aa  112 040 040 040    445  	aci	"J   "
                                   446  	use	utl
                        000064     447  	equ	T52,*-TL
    000202  aa   000331 000001     448  	zero	Tsl*4+1,1
                                   449  "
                                   450  " TERMINAL 53
                                   451  	use	utc
                        000067     452  	set	Tsl,*-TC-1
    000070  aa  113 154 040 040    453  	aci	"Kl  "
                                   454  	use	utl
                        000065     455  	equ	T53,*-TL
    000203  aa   000335 000002     456  	zero	Tsl*4+1,2
                                   457  "
                                   458  " TERMINAL 54
                                   459  	use	utc
                        000070     460  	set	Tsl,*-TC-1
    000071  aa  113 142 040 040    461  	aci	"Kb  "
                                   462  	use	utl
                        000066     463  	equ	T54,*-TL
    000204  aa   000341 000002     464  	zero	Tsl*4+1,2
                                   465  "
                                   466  " TERMINAL 55
                                   467  	use	utc
                        000071     468  	set	Tsl,*-TC-1
    000072  aa  151 146 040 040    469  	aci	"if  "
                                   470  	use	utl
                        000067     471  	equ	T55,*-TL
    000205  aa   000345 000002     472  	zero	Tsl*4+1,2
                                   473  "
                                   474  " TERMINAL 56
                                   475  	use	utc
                        000072     476  	set	Tsl,*-TC-1
    000073  aa  145 170 040 040    477  	aci	"ex  "
                                   478  	use	utl
                        000070     479  	equ	T56,*-TL
    000206  aa   000351 000002     480  	zero	Tsl*4+1,2
                                   481  "
                                   482  " TERMINAL 57
                                   483  	use	utc
                        000073     484  	set	Tsl,*-TC-1
    000074  aa  141 147 040 040    485  	aci	"ag  "
                                   486  	use	utl
                        000071     487  	equ	T57,*-TL
    000207  aa   000355 000002     488  	zero	Tsl*4+1,2
                                   489  "
                                   490  " TERMINAL 58
                                   491  	use	utc
                        000074     492  	set	Tsl,*-TC-1
    000075  aa  143 163 040 040    493  	aci	"cs  "
                                   494  	use	utl
                        000072     495  	equ	T58,*-TL
    000210  aa   000361 000002     496  	zero	Tsl*4+1,2
                                   497  "
                                   498  " TERMINAL 59
                                   499  	use	utc
                        000075     500  	set	Tsl,*-TC-1
    000076  aa  074 163 145 164    501  	aci	"<set"
    000077  aa  076 040 040 040    502  	aci	">   "
                                   503  	use	utl
                        000073     504  	equ	T59,*-TL
    000211  aa   000365 000005     505  	zero	Tsl*4+1,5
                                   506  "
                                   507  " TERMINAL 60
                                   508  	use	utc
                        000077     509  	set	Tsl,*-TC-1
    000100  aa  160 156 040 040    510  	aci	"pn  "
                                   511  	use	utl
                        000074     512  	equ	T60,*-TL
    000212  aa   000375 000002     513  	zero	Tsl*4+1,2
                                   514  "
                                   515  " TERMINAL 61
                                   516  	use	utc
                        000100     517  	set	Tsl,*-TC-1
    000101  aa  160 133 040 040    518  	aci	"p[  "
                                   519  	use	utl
                        000075     520  	equ	T61,*-TL
    000213  aa   000401 000002     521  	zero	Tsl*4+1,2
                                   522  "
                                   523  " TERMINAL 62
                                   524  	use	utc
                        000101     525  	set	Tsl,*-TC-1
    000102  aa  146 155 170 040    526  	aci	"fmx "
                                   527  	use	utl
                        000076     528  	equ	T62,*-TL
    000214  aa   000405 000003     529  	zero	Tsl*4+1,3
                                   530  "
                                   531  " TERMINAL 63
                                   532  	use	utc
                        000102     533  	set	Tsl,*-TC-1
    000103  aa  146 155 156 040    534  	aci	"fmn "
                                   535  	use	utl
                        000077     536  	equ	T63,*-TL
    000215  aa   000411 000003     537  	zero	Tsl*4+1,3
                                   538  "
                                   539  " TERMINAL 64
                                   540  	use	utc
                        000103     541  	set	Tsl,*-TC-1
    000104  aa  146 162 163 040    542  	aci	"frs "
                                   543  	use	utl
                        000100     544  	equ	T64,*-TL
    000216  aa   000415 000003     545  	zero	Tsl*4+1,3
                                   546  "
                                   547  " TERMINAL 65
                                   548  	use	utc
                        000104     549  	set	Tsl,*-TC-1
    000105  aa  174 174 040 040    550  	aci	"||  "
                                   551  	use	utl
                        000101     552  	equ	T65,*-TL
    000217  aa   000421 000002     553  	zero	Tsl*4+1,2
                                   554  "
                                   555  " TERMINAL 66
                                   556  	use	utc
                        000105     557  	set	Tsl,*-TC-1
    000106  aa  074 166 141 162    558  	aci	"<var"
    000107  aa  076 040 040 040    559  	aci	">   "
                                   560  	use	utl
                        000102     561  	equ	T66,*-TL
    000220  aa   000425 000005     562  	zero	Tsl*4+1,5
                                   563  "
                                   564  " TERMINAL 67
                                   565  	use	utc
                        000107     566  	set	Tsl,*-TC-1
    000110  aa  144 040 040 040    567  	aci	"d   "
                                   568  	use	utl
                        000103     569  	equ	T67,*-TL
    000221  aa   000435 000001     570  	zero	Tsl*4+1,1
                                   571  "
                                   572  " TERMINAL 68
                                   573  	use	utc
                        000110     574  	set	Tsl,*-TC-1
    000111  aa  155 143 164 040    575  	aci	"mct "
                                   576  	use	utl
                        000104     577  	equ	T68,*-TL
    000222  aa   000441 000003     578  	zero	Tsl*4+1,3
                                   579  "
                                   580  " TERMINAL 69
                                   581  	use	utc
                        000111     582  	set	Tsl,*-TC-1
    000112  aa  145 155 164 040    583  	aci	"emt "
                                   584  	use	utl
                        000105     585  	equ	T69,*-TL
    000223  aa   000445 000003     586  	zero	Tsl*4+1,3
                                   587  "
                                   588  " TERMINAL 70
                                   589  	use	utc
                        000112     590  	set	Tsl,*-TC-1
    000113  aa  145 155 143 040    591  	aci	"emc "
                                   592  	use	utl
                        000106     593  	equ	T70,*-TL
    000224  aa   000451 000003     594  	zero	Tsl*4+1,3
                                   595  "
                                   596  " TERMINAL 71
                                   597  	use	utc
                        000113     598  	set	Tsl,*-TC-1
    000114  aa  074 165 053 076    599  	aci	"<u+>"
                                   600  	use	utl
                        000107     601  	equ	T71,*-TL
    000225  aa   000455 000004     602  	zero	Tsl*4+1,4
                                   603  "
                                   604  " TERMINAL 72
                                   605  	use	utc
                        000114     606  	set	Tsl,*-TC-1
    000115  aa  074 165 055 076    607  	aci	"<u->"
                                   608  	use	utl
                        000110     609  	equ	T72,*-TL
    000226  aa   000461 000004     610  	zero	Tsl*4+1,4
                                   611  "
                                   612  	use	utc
                        000000     613  	equ	TCs,"-TC-1
                                   614  	use	utl
                        000110     615  	equ	TLs,*-TL-1
                                   616
                                   617  	use	text
                                   618  "
                                   619  "
                                   620  " DPDA table
    000227  aa   000000 010163     621  DPDA:	zero	0,DPDAs
                        000227     622  	segdef	DPDA
                                   623  "
                                   624  " STATE 1
                        000001     625  	equ	ST1,*-DPDA
    000230  aa   000000 000002     626  	zero	STRD,LN1
    000231  aa   000005 000016     627  	zero	T5,ST14	"{
    000232  aa   000070 000101     628  	zero	T56,ST65	"ex
                        000002     629  	equ	LN1,*-DPDA-ST1-1
                                   630  "
                                   631  " STATE 4
                        000004     632  	equ	ST4,*-DPDA
    000233  aa   000005 000003     633  	zero	APLY1,LN4
    000234  aa   000000 000000     634  	zero	0,0   pd ld
    000235  aa   000002 000001     635  	zero	2,1   rule/alt
    000236  aa   000001 000014     636  	zero	1,ST12 prod/val
                        000003     637  	equ	LN4,*-DPDA-ST4-1
                                   638  "
                                   639  " STATE 8
                        000010     640  	equ	ST8,*-DPDA
    000237  aa   000005 000003     641  	zero	APLY1,LN8
    000240  aa   000000 000000     642  	zero	0,0   pd ld
    000241  aa   777777 000001     643  	zero	-1,1   rule/alt
    000242  aa   000001 000014     644  	zero	1,ST12 prod/val
                        000003     645  	equ	LN8,*-DPDA-ST8-1
                                   646  "
                                   647  " STATE 12
                        000014     648  	equ	ST12,*-DPDA
    000243  aa   000000 000001     649  	zero	STRD,LN12
    000244  aa   000000 000000     650  	zero	T0,ST0	"EOI
                        000001     651  	equ	LN12,*-DPDA-ST12-1
                                   652  "
                                   653  " STATE 14
                        000016     654  	equ	ST14,*-DPDA
    000245  aa   000000 000062     655  	zero	STRD,LN14
    000246  aa   000001 000601     656  	zero	T1,ST385	"<integer>
    000247  aa   000002 000605     657  	zero	T2,ST389	"<string>
    000250  aa   000006 000705     658  	zero	T6,ST453	"}
    000251  aa   000007 000711     659  	zero	T7,ST457	"(
    000252  aa   000027 000767     660  	zero	T23,ST503	"a[
    000253  aa   000030 000770     661  	zero	T24,ST504	"k[
    000254  aa   000031 000771     662  	zero	T25,ST505	"K[
    000255  aa   000032 000772     663  	zero	T26,ST506	"Ks
    000256  aa   000033 000776     664  	zero	T27,ST510	"be
    000257  aa   000034 001002     665  	zero	T28,ST514	"bn
    000260  aa   000035 001006     666  	zero	T29,ST518	"fl
    000261  aa   000036 001010     667  	zero	T30,ST520	"fs
    000262  aa   000037 001012     668  	zero	T31,ST522	"lb
    000263  aa   000040 001016     669  	zero	T32,ST526	"le
    000264  aa   000041 001022     670  	zero	T33,ST530	"sb
    000265  aa   000042 001026     671  	zero	T34,ST534	"se
    000266  aa   000043 001032     672  	zero	T35,ST538	"da
    000267  aa   000044 001034     673  	zero	T36,ST540	"dk
    000270  aa   000045 001036     674  	zero	T37,ST542	"dK
    000271  aa   000046 001040     675  	zero	T38,ST544	"dn
    000272  aa   000047 001044     676  	zero	T39,ST548	"en
    000273  aa   000050 001050     677  	zero	T40,ST552	"sn
    000274  aa   000051 001054     678  	zero	T41,ST556	"fak
    000275  aa   000052 001056     679  	zero	T42,ST558	"fka
    000276  aa   000053 001060     680  	zero	T43,ST560	"em
    000277  aa   000054 001064     681  	zero	T44,ST564	"fi
    000300  aa   000055 001066     682  	zero	T45,ST566	"fir
    000301  aa   000056 001070     683  	zero	T46,ST568	"fv
    000302  aa   000057 001072     684  	zero	T47,ST570	"fvr
    000303  aa   000060 001074     685  	zero	T48,ST572	"ff
    000304  aa   000061 001076     686  	zero	T49,ST574	"ffr
    000305  aa   000062 001100     687  	zero	T50,ST576	"fln
    000306  aa   000063 001102     688  	zero	T51,ST578	"sk
    000307  aa   000065 001106     689  	zero	T53,ST582	"Kl
    000310  aa   000066 001112     690  	zero	T54,ST586	"Kb
    000311  aa   000067 001116     691  	zero	T55,ST590	"if
    000312  aa   000071 001120     692  	zero	T57,ST592	"ag
    000313  aa   000072 001124     693  	zero	T58,ST596	"cs
    000314  aa   000074 001130     694  	zero	T60,ST600	"pn
    000315  aa   000075 001134     695  	zero	T61,ST604	"p[
    000316  aa   000076 001135     696  	zero	T62,ST605	"fmx
    000317  aa   000077 001141     697  	zero	T63,ST609	"fmn
    000320  aa   000100 001145     698  	zero	T64,ST613	"frs
    000321  aa   000102 001147     699  	zero	T66,ST615	"<var>
    000322  aa   000103 001247     700  	zero	T67,ST679	"d
    000323  aa   000104 001251     701  	zero	T68,ST681	"mct
    000324  aa   000105 001253     702  	zero	T69,ST683	"emt
    000325  aa   000106 001255     703  	zero	T70,ST685	"emc
    000326  aa   000107 001257     704  	zero	T71,ST687	"<u+>
    000327  aa   000110 001333     705  	zero	T72,ST731	"<u->
                        000062     706  	equ	LN14,*-DPDA-ST14-1
                                   707  "
                                   708  " STATE 65
                        000101     709  	equ	ST65,*-DPDA
    000330  aa   000000 000001     710  	zero	STRD,LN65
    000331  aa   000007 001334     711  	zero	T7,ST732	"(
                        000001     712  	equ	LN65,*-DPDA-ST65-1
                                   713  "
                                   714  " STATE 67
                        000103     715  	equ	ST67,*-DPDA
    000332  aa   000000 000001     716  	zero	STRD,LN67
    000333  aa   000007 001335     717  	zero	T7,ST733	"(
                        000001     718  	equ	LN67,*-DPDA-ST67-1
                                   719  "
                                   720  " STATE 69
                        000105     721  	equ	ST69,*-DPDA
    000334  aa   000000 000001     722  	zero	STRD,LN69
    000335  aa   000007 001336     723  	zero	T7,ST734	"(
                        000001     724  	equ	LN69,*-DPDA-ST69-1
                                   725  "
                                   726  " STATE 71
                        000107     727  	equ	ST71,*-DPDA
    000336  aa   000004 000006     728  	zero	APLY,LN71
    000337  aa   000000 000000     729  	zero	0,0   pd ld
    000340  aa   777703 000001     730  	zero	-61,1   rule/alt
    000341  aa   000020 000116     731  	zero	16,ST78 prod/val
    000342  aa   001337 002553     732  	zero	ST735,ST1387
    000343  aa   001340 002557     733  	zero	ST736,ST1391
    000344  aa   001341 002563     734  	zero	ST737,ST1395
                        000006     735  	equ	LN71,*-DPDA-ST71-1
                                   736  "
                                   737  " STATE 78
                        000116     738  	equ	ST78,*-DPDA
    000345  aa   000004 000005     739  	zero	APLY,LN78
    000346  aa   000000 000000     740  	zero	0,0   pd ld
    000347  aa   777704 000001     741  	zero	-60,1   rule/alt
    000350  aa   000017 000124     742  	zero	15,ST84 prod/val
    000351  aa   001342 002567     743  	zero	ST738,ST1399
    000352  aa   001343 002670     744  	zero	ST739,ST1464
                        000005     745  	equ	LN78,*-DPDA-ST78-1
                                   746  "
                                   747  " STATE 84
                        000124     748  	equ	ST84,*-DPDA
    000353  aa   000011 000100     749  	zero	NSRD,LN84
    000354  aa   000001 770274     750  	zero	T1,-ST3908	"<integer>
    000355  aa   000002 770274     751  	zero	T2,-ST3908	"<string>
    000356  aa   000003 770274     752  	zero	T3,-ST3908	"]
    000357  aa   000004 770274     753  	zero	T4,-ST3908	",
    000360  aa   000006 770274     754  	zero	T6,-ST3908	"}
    000361  aa   000007 770274     755  	zero	T7,-ST3908	"(
    000362  aa   000010 770274     756  	zero	T8,-ST3908	")
    000363  aa   000011 770274     757  	zero	T9,-ST3908	":
    000364  aa   000012 770274     758  	zero	T10,-ST3908	".
    000365  aa   000014 770300     759  	zero	T12,-ST3904	"*
    000366  aa   000015 770300     760  	zero	T13,-ST3904	"/
    000367  aa   000016 770300     761  	zero	T14,-ST3904	"|
    000370  aa   000017 770274     762  	zero	T15,-ST3908	"+
    000371  aa   000020 770274     763  	zero	T16,-ST3908	"-
    000372  aa   000021 770274     764  	zero	T17,-ST3908	"<
    000373  aa   000022 770274     765  	zero	T18,-ST3908	">
    000374  aa   000023 770274     766  	zero	T19,-ST3908	"=
    000375  aa   000024 770274     767  	zero	T20,-ST3908	"<=
    000376  aa   000025 770274     768  	zero	T21,-ST3908	">=
    000377  aa   000026 770274     769  	zero	T22,-ST3908	"^=
    000400  aa   000027 770274     770  	zero	T23,-ST3908	"a[
    000401  aa   000030 770274     771  	zero	T24,-ST3908	"k[
    000402  aa   000031 770274     772  	zero	T25,-ST3908	"K[
    000403  aa   000032 770274     773  	zero	T26,-ST3908	"Ks
    000404  aa   000033 770274     774  	zero	T27,-ST3908	"be
    000405  aa   000034 770274     775  	zero	T28,-ST3908	"bn
    000406  aa   000035 770274     776  	zero	T29,-ST3908	"fl
    000407  aa   000036 770274     777  	zero	T30,-ST3908	"fs
    000410  aa   000037 770274     778  	zero	T31,-ST3908	"lb
    000411  aa   000040 770274     779  	zero	T32,-ST3908	"le
    000412  aa   000041 770274     780  	zero	T33,-ST3908	"sb
    000413  aa   000042 770274     781  	zero	T34,-ST3908	"se
    000414  aa   000046 770274     782  	zero	T38,-ST3908	"dn
    000415  aa   000047 770274     783  	zero	T39,-ST3908	"en
    000416  aa   000050 770274     784  	zero	T40,-ST3908	"sn
    000417  aa   000051 770274     785  	zero	T41,-ST3908	"fak
    000420  aa   000052 770274     786  	zero	T42,-ST3908	"fka
    000421  aa   000053 770274     787  	zero	T43,-ST3908	"em
    000422  aa   000054 770274     788  	zero	T44,-ST3908	"fi
    000423  aa   000055 770274     789  	zero	T45,-ST3908	"fir
    000424  aa   000056 770274     790  	zero	T46,-ST3908	"fv
    000425  aa   000057 770274     791  	zero	T47,-ST3908	"fvr
    000426  aa   000060 770274     792  	zero	T48,-ST3908	"ff
    000427  aa   000061 770274     793  	zero	T49,-ST3908	"ffr
    000430  aa   000062 770274     794  	zero	T50,-ST3908	"fln
    000431  aa   000063 770274     795  	zero	T51,-ST3908	"sk
    000432  aa   000064 770274     796  	zero	T52,-ST3908	"J
    000433  aa   000065 770274     797  	zero	T53,-ST3908	"Kl
    000434  aa   000066 770274     798  	zero	T54,-ST3908	"Kb
    000435  aa   000067 770274     799  	zero	T55,-ST3908	"if
    000436  aa   000071 770274     800  	zero	T57,-ST3908	"ag
    000437  aa   000072 770274     801  	zero	T58,-ST3908	"cs
    000440  aa   000074 770274     802  	zero	T60,-ST3908	"pn
    000441  aa   000075 770274     803  	zero	T61,-ST3908	"p[
    000442  aa   000076 770274     804  	zero	T62,-ST3908	"fmx
    000443  aa   000077 770274     805  	zero	T63,-ST3908	"fmn
    000444  aa   000100 770274     806  	zero	T64,-ST3908	"frs
    000445  aa   000101 770274     807  	zero	T65,-ST3908	"||
    000446  aa   000102 770274     808  	zero	T66,-ST3908	"<var>
    000447  aa   000104 770274     809  	zero	T68,-ST3908	"mct
    000450  aa   000105 770274     810  	zero	T69,-ST3908	"emt
    000451  aa   000106 770274     811  	zero	T70,-ST3908	"emc
    000452  aa   000107 770274     812  	zero	T71,-ST3908	"<u+>
    000453  aa   000110 770274     813  	zero	T72,-ST3908	"<u->
                        000100     814  	equ	LN84,*-DPDA-ST84-1
                                   815  "
                                   816  " STATE 149
                        000225     817  	equ	ST149,*-DPDA
    000454  aa   000011 000075     818  	zero	NSRD,LN149
    000455  aa   000001 770206     819  	zero	T1,-ST3962	"<integer>
    000456  aa   000002 770206     820  	zero	T2,-ST3962	"<string>
    000457  aa   000003 770206     821  	zero	T3,-ST3962	"]
    000460  aa   000004 770206     822  	zero	T4,-ST3962	",
    000461  aa   000006 770206     823  	zero	T6,-ST3962	"}
    000462  aa   000007 770206     824  	zero	T7,-ST3962	"(
    000463  aa   000010 770206     825  	zero	T8,-ST3962	")
    000464  aa   000011 770206     826  	zero	T9,-ST3962	":
    000465  aa   000012 770206     827  	zero	T10,-ST3962	".
    000466  aa   000017 770211     828  	zero	T15,-ST3959	"+
    000467  aa   000020 770211     829  	zero	T16,-ST3959	"-
    000470  aa   000021 770206     830  	zero	T17,-ST3962	"<
    000471  aa   000022 770206     831  	zero	T18,-ST3962	">
    000472  aa   000023 770206     832  	zero	T19,-ST3962	"=
    000473  aa   000024 770206     833  	zero	T20,-ST3962	"<=
    000474  aa   000025 770206     834  	zero	T21,-ST3962	">=
    000475  aa   000026 770206     835  	zero	T22,-ST3962	"^=
    000476  aa   000027 770206     836  	zero	T23,-ST3962	"a[
    000477  aa   000030 770206     837  	zero	T24,-ST3962	"k[
    000500  aa   000031 770206     838  	zero	T25,-ST3962	"K[
    000501  aa   000032 770206     839  	zero	T26,-ST3962	"Ks
    000502  aa   000033 770206     840  	zero	T27,-ST3962	"be
    000503  aa   000034 770206     841  	zero	T28,-ST3962	"bn
    000504  aa   000035 770206     842  	zero	T29,-ST3962	"fl
    000505  aa   000036 770206     843  	zero	T30,-ST3962	"fs
    000506  aa   000037 770206     844  	zero	T31,-ST3962	"lb
    000507  aa   000040 770206     845  	zero	T32,-ST3962	"le
    000510  aa   000041 770206     846  	zero	T33,-ST3962	"sb
    000511  aa   000042 770206     847  	zero	T34,-ST3962	"se
    000512  aa   000046 770206     848  	zero	T38,-ST3962	"dn
    000513  aa   000047 770206     849  	zero	T39,-ST3962	"en
    000514  aa   000050 770206     850  	zero	T40,-ST3962	"sn
    000515  aa   000051 770206     851  	zero	T41,-ST3962	"fak
    000516  aa   000052 770206     852  	zero	T42,-ST3962	"fka
    000517  aa   000053 770206     853  	zero	T43,-ST3962	"em
    000520  aa   000054 770206     854  	zero	T44,-ST3962	"fi
    000521  aa   000055 770206     855  	zero	T45,-ST3962	"fir
    000522  aa   000056 770206     856  	zero	T46,-ST3962	"fv
    000523  aa   000057 770206     857  	zero	T47,-ST3962	"fvr
    000524  aa   000060 770206     858  	zero	T48,-ST3962	"ff
    000525  aa   000061 770206     859  	zero	T49,-ST3962	"ffr
    000526  aa   000062 770206     860  	zero	T50,-ST3962	"fln
    000527  aa   000063 770206     861  	zero	T51,-ST3962	"sk
    000530  aa   000064 770206     862  	zero	T52,-ST3962	"J
    000531  aa   000065 770206     863  	zero	T53,-ST3962	"Kl
    000532  aa   000066 770206     864  	zero	T54,-ST3962	"Kb
    000533  aa   000067 770206     865  	zero	T55,-ST3962	"if
    000534  aa   000071 770206     866  	zero	T57,-ST3962	"ag
    000535  aa   000072 770206     867  	zero	T58,-ST3962	"cs
    000536  aa   000074 770206     868  	zero	T60,-ST3962	"pn
    000537  aa   000075 770206     869  	zero	T61,-ST3962	"p[
    000540  aa   000076 770206     870  	zero	T62,-ST3962	"fmx
    000541  aa   000077 770206     871  	zero	T63,-ST3962	"fmn
    000542  aa   000100 770206     872  	zero	T64,-ST3962	"frs
    000543  aa   000101 770206     873  	zero	T65,-ST3962	"||
    000544  aa   000102 770206     874  	zero	T66,-ST3962	"<var>
    000545  aa   000104 770206     875  	zero	T68,-ST3962	"mct
    000546  aa   000105 770206     876  	zero	T69,-ST3962	"emt
    000547  aa   000106 770206     877  	zero	T70,-ST3962	"emc
    000550  aa   000107 770206     878  	zero	T71,-ST3962	"<u+>
    000551  aa   000110 770206     879  	zero	T72,-ST3962	"<u->
                        000075     880  	equ	LN149,*-DPDA-ST149-1
                                   881  "
                                   882  " STATE 211
                        000323     883  	equ	ST211,*-DPDA
    000552  aa   000011 000003     884  	zero	NSRD,LN211
    000553  aa   000006 770121     885  	zero	T6,-ST4015	"}
    000554  aa   000011 770124     886  	zero	T9,-ST4012	":
    000555  aa   000012 770124     887  	zero	T10,-ST4012	".
                        000003     888  	equ	LN211,*-DPDA-ST211-1
                                   889  "
                                   890  " STATE 215
                        000327     891  	equ	ST215,*-DPDA
    000556  aa   000011 000070     892  	zero	NSRD,LN215
    000557  aa   000001 770114     893  	zero	T1,-ST4020	"<integer>
    000560  aa   000002 770114     894  	zero	T2,-ST4020	"<string>
    000561  aa   000006 770024     895  	zero	T6,-ST4076	"}
    000562  aa   000007 770114     896  	zero	T7,-ST4020	"(
    000563  aa   000011 770114     897  	zero	T9,-ST4020	":
    000564  aa   000012 770114     898  	zero	T10,-ST4020	".
    000565  aa   000021 770114     899  	zero	T17,-ST4020	"<
    000566  aa   000022 770114     900  	zero	T18,-ST4020	">
    000567  aa   000023 770114     901  	zero	T19,-ST4020	"=
    000570  aa   000024 770114     902  	zero	T20,-ST4020	"<=
    000571  aa   000025 770114     903  	zero	T21,-ST4020	">=
    000572  aa   000026 770114     904  	zero	T22,-ST4020	"^=
    000573  aa   000027 770114     905  	zero	T23,-ST4020	"a[
    000574  aa   000030 770114     906  	zero	T24,-ST4020	"k[
    000575  aa   000031 770114     907  	zero	T25,-ST4020	"K[
    000576  aa   000032 770114     908  	zero	T26,-ST4020	"Ks
    000577  aa   000033 770114     909  	zero	T27,-ST4020	"be
    000600  aa   000034 770114     910  	zero	T28,-ST4020	"bn
    000601  aa   000035 770114     911  	zero	T29,-ST4020	"fl
    000602  aa   000036 770114     912  	zero	T30,-ST4020	"fs
    000603  aa   000037 770114     913  	zero	T31,-ST4020	"lb
    000604  aa   000040 770114     914  	zero	T32,-ST4020	"le
    000605  aa   000041 770114     915  	zero	T33,-ST4020	"sb
    000606  aa   000042 770114     916  	zero	T34,-ST4020	"se
    000607  aa   000046 770114     917  	zero	T38,-ST4020	"dn
    000610  aa   000047 770114     918  	zero	T39,-ST4020	"en
    000611  aa   000050 770114     919  	zero	T40,-ST4020	"sn
    000612  aa   000051 770114     920  	zero	T41,-ST4020	"fak
    000613  aa   000052 770114     921  	zero	T42,-ST4020	"fka
    000614  aa   000053 770114     922  	zero	T43,-ST4020	"em
    000615  aa   000054 770114     923  	zero	T44,-ST4020	"fi
    000616  aa   000055 770114     924  	zero	T45,-ST4020	"fir
    000617  aa   000056 770114     925  	zero	T46,-ST4020	"fv
    000620  aa   000057 770114     926  	zero	T47,-ST4020	"fvr
    000621  aa   000060 770114     927  	zero	T48,-ST4020	"ff
    000622  aa   000061 770114     928  	zero	T49,-ST4020	"ffr
    000623  aa   000062 770114     929  	zero	T50,-ST4020	"fln
    000624  aa   000063 770114     930  	zero	T51,-ST4020	"sk
    000625  aa   000064 770114     931  	zero	T52,-ST4020	"J
    000626  aa   000065 770114     932  	zero	T53,-ST4020	"Kl
    000627  aa   000066 770114     933  	zero	T54,-ST4020	"Kb
    000630  aa   000067 770114     934  	zero	T55,-ST4020	"if
    000631  aa   000071 770114     935  	zero	T57,-ST4020	"ag
    000632  aa   000072 770114     936  	zero	T58,-ST4020	"cs
    000633  aa   000074 770114     937  	zero	T60,-ST4020	"pn
    000634  aa   000075 770114     938  	zero	T61,-ST4020	"p[
    000635  aa   000076 770114     939  	zero	T62,-ST4020	"fmx
    000636  aa   000077 770114     940  	zero	T63,-ST4020	"fmn
    000637  aa   000100 770114     941  	zero	T64,-ST4020	"frs
    000640  aa   000101 770114     942  	zero	T65,-ST4020	"||
    000641  aa   000102 770114     943  	zero	T66,-ST4020	"<var>
    000642  aa   000104 770114     944  	zero	T68,-ST4020	"mct
    000643  aa   000105 770114     945  	zero	T69,-ST4020	"emt
    000644  aa   000106 770114     946  	zero	T70,-ST4020	"emc
    000645  aa   000107 770114     947  	zero	T71,-ST4020	"<u+>
    000646  aa   000110 770114     948  	zero	T72,-ST4020	"<u->
                        000070     949  	equ	LN215,*-DPDA-ST215-1
                                   950  "
                                   951  " STATE 272
                        000420     952  	equ	ST272,*-DPDA
    000647  aa   000004 000005     953  	zero	APLY,LN272
    000650  aa   000000 000000     954  	zero	0,0   pd ld
    000651  aa   777700 000001     955  	zero	-64,1   rule/alt
    000652  aa   000021 000107     956  	zero	17,ST71 prod/val
    000653  aa   001257 002374     957  	zero	ST687,ST1276
    000654  aa   001333 002400     958  	zero	ST731,ST1280
                        000005     959  	equ	LN272,*-DPDA-ST272-1
                                   960  "
                                   961  " STATE 278
                        000426     962  	equ	ST278,*-DPDA
    000655  aa   000000 000055     963  	zero	STRD,LN278
    000656  aa   000001 000601     964  	zero	T1,ST385	"<integer>
    000657  aa   000002 001454     965  	zero	T2,ST812	"<string>
    000660  aa   000007 000711     966  	zero	T7,ST457	"(
    000661  aa   000027 001521     967  	zero	T23,ST849	"a[
    000662  aa   000030 001522     968  	zero	T24,ST850	"k[
    000663  aa   000031 001523     969  	zero	T25,ST851	"K[
    000664  aa   000032 000772     970  	zero	T26,ST506	"Ks
    000665  aa   000033 000776     971  	zero	T27,ST510	"be
    000666  aa   000034 001002     972  	zero	T28,ST514	"bn
    000667  aa   000035 001006     973  	zero	T29,ST518	"fl
    000670  aa   000036 001010     974  	zero	T30,ST520	"fs
    000671  aa   000037 001012     975  	zero	T31,ST522	"lb
    000672  aa   000040 001016     976  	zero	T32,ST526	"le
    000673  aa   000041 001022     977  	zero	T33,ST530	"sb
    000674  aa   000042 001026     978  	zero	T34,ST534	"se
    000675  aa   000046 001040     979  	zero	T38,ST544	"dn
    000676  aa   000047 001044     980  	zero	T39,ST548	"en
    000677  aa   000050 001050     981  	zero	T40,ST552	"sn
    000700  aa   000051 001054     982  	zero	T41,ST556	"fak
    000701  aa   000052 001056     983  	zero	T42,ST558	"fka
    000702  aa   000053 001060     984  	zero	T43,ST560	"em
    000703  aa   000054 001064     985  	zero	T44,ST564	"fi
    000704  aa   000055 001066     986  	zero	T45,ST566	"fir
    000705  aa   000056 001070     987  	zero	T46,ST568	"fv
    000706  aa   000057 001072     988  	zero	T47,ST570	"fvr
    000707  aa   000060 001074     989  	zero	T48,ST572	"ff
    000710  aa   000061 001076     990  	zero	T49,ST574	"ffr
    000711  aa   000062 001100     991  	zero	T50,ST576	"fln
    000712  aa   000063 001102     992  	zero	T51,ST578	"sk
    000713  aa   000065 001106     993  	zero	T53,ST582	"Kl
    000714  aa   000066 001112     994  	zero	T54,ST586	"Kb
    000715  aa   000067 001116     995  	zero	T55,ST590	"if
    000716  aa   000071 001120     996  	zero	T57,ST592	"ag
    000717  aa   000072 001124     997  	zero	T58,ST596	"cs
    000720  aa   000074 001130     998  	zero	T60,ST600	"pn
    000721  aa   000075 001134     999  	zero	T61,ST604	"p[
    000722  aa   000076 001135    1000  	zero	T62,ST605	"fmx
    000723  aa   000077 001141    1001  	zero	T63,ST609	"fmn
    000724  aa   000100 001145    1002  	zero	T64,ST613	"frs
    000725  aa   000102 001534    1003  	zero	T66,ST860	"<var>
    000726  aa   000104 001251    1004  	zero	T68,ST681	"mct
    000727  aa   000105 001253    1005  	zero	T69,ST683	"emt
    000730  aa   000106 001255    1006  	zero	T70,ST685	"emc
    000731  aa   000107 001257    1007  	zero	T71,ST687	"<u+>
    000732  aa   000110 001333    1008  	zero	T72,ST731	"<u->
                        000055    1009  	equ	LN278,*-DPDA-ST278-1
                                  1010  "
                                  1011  " STATE 324
                        000504    1012  	equ	ST324,*-DPDA
    000733  aa   000002 000426    1013  	zero	STRDS,ST278
                                  1014
                                  1015  "
                                  1016  " STATE 325
                        000505    1017  	equ	ST325,*-DPDA
    000734  aa   000011 000002    1018  	zero	NSRD,LN325
    000735  aa   000006 770016    1019  	zero	T6,-ST4082	"}
    000736  aa   000012 770020    1020  	zero	T10,-ST4080	".
                        000002    1021  	equ	LN325,*-DPDA-ST325-1
                                  1022  "
                                  1023  " STATE 328
                        000510    1024  	equ	ST328,*-DPDA
    000737  aa   000000 000001    1025  	zero	STRD,LN328
    000740  aa   000006 001710    1026  	zero	T6,ST968	"}
                        000001    1027  	equ	LN328,*-DPDA-ST328-1
                                  1028  "
                                  1029  " STATE 330
                        000512    1030  	equ	ST330,*-DPDA
    000741  aa   000005 000003    1031  	zero	APLY1,LN330
    000742  aa   000000 000000    1032  	zero	0,0   pd ld
    000743  aa   777770 000001    1033  	zero	-8,1   rule/alt
    000744  aa   000003 000516    1034  	zero	3,ST334 prod/val
                        000003    1035  	equ	LN330,*-DPDA-ST330-1
                                  1036  "
                                  1037  " STATE 334
                        000516    1038  	equ	ST334,*-DPDA
    000745  aa   000000 000062    1039  	zero	STRD,LN334
    000746  aa   000001 000601    1040  	zero	T1,ST385	"<integer>
    000747  aa   000002 000605    1041  	zero	T2,ST389	"<string>
    000750  aa   000006 001722    1042  	zero	T6,ST978	"}
    000751  aa   000007 000711    1043  	zero	T7,ST457	"(
    000752  aa   000027 000767    1044  	zero	T23,ST503	"a[
    000753  aa   000030 000770    1045  	zero	T24,ST504	"k[
    000754  aa   000031 000771    1046  	zero	T25,ST505	"K[
    000755  aa   000032 000772    1047  	zero	T26,ST506	"Ks
    000756  aa   000033 000776    1048  	zero	T27,ST510	"be
    000757  aa   000034 001002    1049  	zero	T28,ST514	"bn
    000760  aa   000035 001006    1050  	zero	T29,ST518	"fl
    000761  aa   000036 001010    1051  	zero	T30,ST520	"fs
    000762  aa   000037 001012    1052  	zero	T31,ST522	"lb
    000763  aa   000040 001016    1053  	zero	T32,ST526	"le
    000764  aa   000041 001022    1054  	zero	T33,ST530	"sb
    000765  aa   000042 001026    1055  	zero	T34,ST534	"se
    000766  aa   000043 001032    1056  	zero	T35,ST538	"da
    000767  aa   000044 001034    1057  	zero	T36,ST540	"dk
    000770  aa   000045 001036    1058  	zero	T37,ST542	"dK
    000771  aa   000046 001040    1059  	zero	T38,ST544	"dn
    000772  aa   000047 001044    1060  	zero	T39,ST548	"en
    000773  aa   000050 001050    1061  	zero	T40,ST552	"sn
    000774  aa   000051 001054    1062  	zero	T41,ST556	"fak
    000775  aa   000052 001056    1063  	zero	T42,ST558	"fka
    000776  aa   000053 001060    1064  	zero	T43,ST560	"em
    000777  aa   000054 001064    1065  	zero	T44,ST564	"fi
    001000  aa   000055 001066    1066  	zero	T45,ST566	"fir
    001001  aa   000056 001070    1067  	zero	T46,ST568	"fv
    001002  aa   000057 001072    1068  	zero	T47,ST570	"fvr
    001003  aa   000060 001074    1069  	zero	T48,ST572	"ff
    001004  aa   000061 001076    1070  	zero	T49,ST574	"ffr
    001005  aa   000062 001100    1071  	zero	T50,ST576	"fln
    001006  aa   000063 001102    1072  	zero	T51,ST578	"sk
    001007  aa   000065 001106    1073  	zero	T53,ST582	"Kl
    001010  aa   000066 001112    1074  	zero	T54,ST586	"Kb
    001011  aa   000067 001116    1075  	zero	T55,ST590	"if
    001012  aa   000071 001120    1076  	zero	T57,ST592	"ag
    001013  aa   000072 001124    1077  	zero	T58,ST596	"cs
    001014  aa   000074 001130    1078  	zero	T60,ST600	"pn
    001015  aa   000075 001134    1079  	zero	T61,ST604	"p[
    001016  aa   000076 001135    1080  	zero	T62,ST605	"fmx
    001017  aa   000077 001141    1081  	zero	T63,ST609	"fmn
    001020  aa   000100 001145    1082  	zero	T64,ST613	"frs
    001021  aa   000102 001147    1083  	zero	T66,ST615	"<var>
    001022  aa   000103 001247    1084  	zero	T67,ST679	"d
    001023  aa   000104 001251    1085  	zero	T68,ST681	"mct
    001024  aa   000105 001253    1086  	zero	T69,ST683	"emt
    001025  aa   000106 001255    1087  	zero	T70,ST685	"emc
    001026  aa   000107 001257    1088  	zero	T71,ST687	"<u+>
    001027  aa   000110 001333    1089  	zero	T72,ST731	"<u->
                        000062    1090  	equ	LN334,*-DPDA-ST334-1
                                  1091  "
                                  1092  " STATE 385
                        000601    1093  	equ	ST385,*-DPDA
    001030  aa   000005 000003    1094  	zero	APLY1,LN385
    001031  aa   000000 000000    1095  	zero	0,0   pd ld
    001032  aa   000104 000001    1096  	zero	68,1   rule/alt
    001033  aa   000011 000420    1097  	zero	9,ST272 prod/val
                        000003    1098  	equ	LN385,*-DPDA-ST385-1
                                  1099  "
                                  1100  " STATE 389
                        000605    1101  	equ	ST389,*-DPDA
    001034  aa   000011 000077    1102  	zero	NSRD,LN389
    001035  aa   000001 776324    1103  	zero	T1,-ST812	"<integer>
    001036  aa   000002 776324    1104  	zero	T2,-ST812	"<string>
    001037  aa   000006 776324    1105  	zero	T6,-ST812	"}
    001040  aa   000007 776324    1106  	zero	T7,-ST812	"(
    001041  aa   000010 776324    1107  	zero	T8,-ST812	")
    001042  aa   000011 776324    1108  	zero	T9,-ST812	":
    001043  aa   000012 776324    1109  	zero	T10,-ST812	".
    001044  aa   000013 770012    1110  	zero	T11,-ST4086	":=
    001045  aa   000014 776324    1111  	zero	T12,-ST812	"*
    001046  aa   000015 776324    1112  	zero	T13,-ST812	"/
    001047  aa   000016 776324    1113  	zero	T14,-ST812	"|
    001050  aa   000017 776324    1114  	zero	T15,-ST812	"+
    001051  aa   000020 776324    1115  	zero	T16,-ST812	"-
    001052  aa   000021 776324    1116  	zero	T17,-ST812	"<
    001053  aa   000022 776324    1117  	zero	T18,-ST812	">
    001054  aa   000023 776324    1118  	zero	T19,-ST812	"=
    001055  aa   000024 776324    1119  	zero	T20,-ST812	"<=
    001056  aa   000025 776324    1120  	zero	T21,-ST812	">=
    001057  aa   000026 776324    1121  	zero	T22,-ST812	"^=
    001060  aa   000027 776324    1122  	zero	T23,-ST812	"a[
    001061  aa   000030 776324    1123  	zero	T24,-ST812	"k[
    001062  aa   000031 776324    1124  	zero	T25,-ST812	"K[
    001063  aa   000032 776324    1125  	zero	T26,-ST812	"Ks
    001064  aa   000033 776324    1126  	zero	T27,-ST812	"be
    001065  aa   000034 776324    1127  	zero	T28,-ST812	"bn
    001066  aa   000035 776324    1128  	zero	T29,-ST812	"fl
    001067  aa   000036 776324    1129  	zero	T30,-ST812	"fs
    001070  aa   000037 776324    1130  	zero	T31,-ST812	"lb
    001071  aa   000040 776324    1131  	zero	T32,-ST812	"le
    001072  aa   000041 776324    1132  	zero	T33,-ST812	"sb
    001073  aa   000042 776324    1133  	zero	T34,-ST812	"se
    001074  aa   000046 776324    1134  	zero	T38,-ST812	"dn
    001075  aa   000047 776324    1135  	zero	T39,-ST812	"en
    001076  aa   000050 776324    1136  	zero	T40,-ST812	"sn
    001077  aa   000051 776324    1137  	zero	T41,-ST812	"fak
    001100  aa   000052 776324    1138  	zero	T42,-ST812	"fka
    001101  aa   000053 776324    1139  	zero	T43,-ST812	"em
    001102  aa   000054 776324    1140  	zero	T44,-ST812	"fi
    001103  aa   000055 776324    1141  	zero	T45,-ST812	"fir
    001104  aa   000056 776324    1142  	zero	T46,-ST812	"fv
    001105  aa   000057 776324    1143  	zero	T47,-ST812	"fvr
    001106  aa   000060 776324    1144  	zero	T48,-ST812	"ff
    001107  aa   000061 776324    1145  	zero	T49,-ST812	"ffr
    001110  aa   000062 776324    1146  	zero	T50,-ST812	"fln
    001111  aa   000063 776324    1147  	zero	T51,-ST812	"sk
    001112  aa   000064 776324    1148  	zero	T52,-ST812	"J
    001113  aa   000065 776324    1149  	zero	T53,-ST812	"Kl
    001114  aa   000066 776324    1150  	zero	T54,-ST812	"Kb
    001115  aa   000067 776324    1151  	zero	T55,-ST812	"if
    001116  aa   000071 776324    1152  	zero	T57,-ST812	"ag
    001117  aa   000072 776324    1153  	zero	T58,-ST812	"cs
    001120  aa   000074 776324    1154  	zero	T60,-ST812	"pn
    001121  aa   000075 776324    1155  	zero	T61,-ST812	"p[
    001122  aa   000076 776324    1156  	zero	T62,-ST812	"fmx
    001123  aa   000077 776324    1157  	zero	T63,-ST812	"fmn
    001124  aa   000100 776324    1158  	zero	T64,-ST812	"frs
    001125  aa   000101 776324    1159  	zero	T65,-ST812	"||
    001126  aa   000102 776324    1160  	zero	T66,-ST812	"<var>
    001127  aa   000104 776324    1161  	zero	T68,-ST812	"mct
    001130  aa   000105 776324    1162  	zero	T69,-ST812	"emt
    001131  aa   000106 776324    1163  	zero	T70,-ST812	"emc
    001132  aa   000107 776324    1164  	zero	T71,-ST812	"<u+>
    001133  aa   000110 776324    1165  	zero	T72,-ST812	"<u->
                        000077    1166  	equ	LN389,*-DPDA-ST389-1
                                  1167  "
                                  1168  " STATE 453
                        000705    1169  	equ	ST453,*-DPDA
    001134  aa   000005 000003    1170  	zero	APLY1,LN453
    001135  aa   000001 000001    1171  	zero	1,1   pd ld
    001136  aa   000006 000001    1172  	zero	6,1   rule/alt
    001137  aa   000002 000010    1173  	zero	2,ST8 prod/val
                        000003    1174  	equ	LN453,*-DPDA-ST453-1
                                  1175  "
                                  1176  " STATE 457
                        000711    1177  	equ	ST457,*-DPDA
    001140  aa   000000 000055    1178  	zero	STRD,LN457
    001141  aa   000001 000601    1179  	zero	T1,ST385	"<integer>
    001142  aa   000002 000605    1180  	zero	T2,ST389	"<string>
    001143  aa   000007 000711    1181  	zero	T7,ST457	"(
    001144  aa   000027 000767    1182  	zero	T23,ST503	"a[
    001145  aa   000030 000770    1183  	zero	T24,ST504	"k[
    001146  aa   000031 000771    1184  	zero	T25,ST505	"K[
    001147  aa   000032 000772    1185  	zero	T26,ST506	"Ks
    001150  aa   000033 000776    1186  	zero	T27,ST510	"be
    001151  aa   000034 001002    1187  	zero	T28,ST514	"bn
    001152  aa   000035 001006    1188  	zero	T29,ST518	"fl
    001153  aa   000036 001010    1189  	zero	T30,ST520	"fs
    001154  aa   000037 001012    1190  	zero	T31,ST522	"lb
    001155  aa   000040 001016    1191  	zero	T32,ST526	"le
    001156  aa   000041 001022    1192  	zero	T33,ST530	"sb
    001157  aa   000042 001026    1193  	zero	T34,ST534	"se
    001160  aa   000046 001040    1194  	zero	T38,ST544	"dn
    001161  aa   000047 001044    1195  	zero	T39,ST548	"en
    001162  aa   000050 001050    1196  	zero	T40,ST552	"sn
    001163  aa   000051 001054    1197  	zero	T41,ST556	"fak
    001164  aa   000052 001056    1198  	zero	T42,ST558	"fka
    001165  aa   000053 001060    1199  	zero	T43,ST560	"em
    001166  aa   000054 001064    1200  	zero	T44,ST564	"fi
    001167  aa   000055 001066    1201  	zero	T45,ST566	"fir
    001170  aa   000056 001070    1202  	zero	T46,ST568	"fv
    001171  aa   000057 001072    1203  	zero	T47,ST570	"fvr
    001172  aa   000060 001074    1204  	zero	T48,ST572	"ff
    001173  aa   000061 001076    1205  	zero	T49,ST574	"ffr
    001174  aa   000062 001100    1206  	zero	T50,ST576	"fln
    001175  aa   000063 001102    1207  	zero	T51,ST578	"sk
    001176  aa   000065 001106    1208  	zero	T53,ST582	"Kl
    001177  aa   000066 001112    1209  	zero	T54,ST586	"Kb
    001200  aa   000067 001116    1210  	zero	T55,ST590	"if
    001201  aa   000071 001120    1211  	zero	T57,ST592	"ag
    001202  aa   000072 001124    1212  	zero	T58,ST596	"cs
    001203  aa   000074 001130    1213  	zero	T60,ST600	"pn
    001204  aa   000075 001134    1214  	zero	T61,ST604	"p[
    001205  aa   000076 001135    1215  	zero	T62,ST605	"fmx
    001206  aa   000077 001141    1216  	zero	T63,ST609	"fmn
    001207  aa   000100 001145    1217  	zero	T64,ST613	"frs
    001210  aa   000102 001147    1218  	zero	T66,ST615	"<var>
    001211  aa   000104 001251    1219  	zero	T68,ST681	"mct
    001212  aa   000105 001253    1220  	zero	T69,ST683	"emt
    001213  aa   000106 001255    1221  	zero	T70,ST685	"emc
    001214  aa   000107 001257    1222  	zero	T71,ST687	"<u+>
    001215  aa   000110 001333    1223  	zero	T72,ST731	"<u->
                        000055    1224  	equ	LN457,*-DPDA-ST457-1
                                  1225  "
                                  1226  " STATE 503
                        000767    1227  	equ	ST503,*-DPDA
    001216  aa   000002 000426    1228  	zero	STRDS,ST278
                                  1229
                                  1230  "
                                  1231  " STATE 504
                        000770    1232  	equ	ST504,*-DPDA
    001217  aa   000002 000426    1233  	zero	STRDS,ST278
                                  1234
                                  1235  "
                                  1236  " STATE 505
                        000771    1237  	equ	ST505,*-DPDA
    001220  aa   000002 000426    1238  	zero	STRDS,ST278
                                  1239
                                  1240  "
                                  1241  " STATE 506
                        000772    1242  	equ	ST506,*-DPDA
    001221  aa   000005 000003    1243  	zero	APLY1,LN506
    001222  aa   000000 000000    1244  	zero	0,0   pd ld
    001223  aa   000034 000001    1245  	zero	28,1   rule/alt
    001224  aa   000011 000420    1246  	zero	9,ST272 prod/val
                        000003    1247  	equ	LN506,*-DPDA-ST506-1
                                  1248  "
                                  1249  " STATE 510
                        000776    1250  	equ	ST510,*-DPDA
    001225  aa   000005 000003    1251  	zero	APLY1,LN510
    001226  aa   000000 000000    1252  	zero	0,0   pd ld
    001227  aa   000114 000001    1253  	zero	76,1   rule/alt
    001230  aa   000011 000420    1254  	zero	9,ST272 prod/val
                        000003    1255  	equ	LN510,*-DPDA-ST510-1
                                  1256  "
                                  1257  " STATE 514
                        001002    1258  	equ	ST514,*-DPDA
    001231  aa   000005 000003    1259  	zero	APLY1,LN514
    001232  aa   000000 000000    1260  	zero	0,0   pd ld
    001233  aa   000047 000001    1261  	zero	39,1   rule/alt
    001234  aa   000011 000420    1262  	zero	9,ST272 prod/val
                        000003    1263  	equ	LN514,*-DPDA-ST514-1
                                  1264  "
                                  1265  " STATE 518
                        001006    1266  	equ	ST518,*-DPDA
    001235  aa   000000 000001    1267  	zero	STRD,LN518
    001236  aa   000007 002245    1268  	zero	T7,ST1189	"(
                        000001    1269  	equ	LN518,*-DPDA-ST518-1
                                  1270  "
                                  1271  " STATE 520
                        001010    1272  	equ	ST520,*-DPDA
    001237  aa   000000 000001    1273  	zero	STRD,LN520
    001240  aa   000007 002246    1274  	zero	T7,ST1190	"(
                        000001    1275  	equ	LN520,*-DPDA-ST520-1
                                  1276  "
                                  1277  " STATE 522
                        001012    1278  	equ	ST522,*-DPDA
    001241  aa   000005 000003    1279  	zero	APLY1,LN522
    001242  aa   000000 000000    1280  	zero	0,0   pd ld
    001243  aa   000110 000001    1281  	zero	72,1   rule/alt
    001244  aa   000011 000420    1282  	zero	9,ST272 prod/val
                        000003    1283  	equ	LN522,*-DPDA-ST522-1
                                  1284  "
                                  1285  " STATE 526
                        001016    1286  	equ	ST526,*-DPDA
    001245  aa   000005 000003    1287  	zero	APLY1,LN526
    001246  aa   000000 000000    1288  	zero	0,0   pd ld
    001247  aa   000113 000001    1289  	zero	75,1   rule/alt
    001250  aa   000011 000420    1290  	zero	9,ST272 prod/val
                        000003    1291  	equ	LN526,*-DPDA-ST526-1
                                  1292  "
                                  1293  " STATE 530
                        001022    1294  	equ	ST530,*-DPDA
    001251  aa   000005 000003    1295  	zero	APLY1,LN530
    001252  aa   000000 000000    1296  	zero	0,0   pd ld
    001253  aa   000111 000001    1297  	zero	73,1   rule/alt
    001254  aa   000011 000420    1298  	zero	9,ST272 prod/val
                        000003    1299  	equ	LN530,*-DPDA-ST530-1
                                  1300  "
                                  1301  " STATE 534
                        001026    1302  	equ	ST534,*-DPDA
    001255  aa   000005 000003    1303  	zero	APLY1,LN534
    001256  aa   000000 000000    1304  	zero	0,0   pd ld
    001257  aa   000112 000001    1305  	zero	74,1   rule/alt
    001260  aa   000011 000420    1306  	zero	9,ST272 prod/val
                        000003    1307  	equ	LN534,*-DPDA-ST534-1
                                  1308  "
                                  1309  " STATE 538
                        001032    1310  	equ	ST538,*-DPDA
    001261  aa   000000 000001    1311  	zero	STRD,LN538
    001262  aa   000012 002247    1312  	zero	T10,ST1191	".
                        000001    1313  	equ	LN538,*-DPDA-ST538-1
                                  1314  "
                                  1315  " STATE 540
                        001034    1316  	equ	ST540,*-DPDA
    001263  aa   000000 000001    1317  	zero	STRD,LN540
    001264  aa   000012 002253    1318  	zero	T10,ST1195	".
                        000001    1319  	equ	LN540,*-DPDA-ST540-1
                                  1320  "
                                  1321  " STATE 542
                        001036    1322  	equ	ST542,*-DPDA
    001265  aa   000000 000001    1323  	zero	STRD,LN542
    001266  aa   000012 002257    1324  	zero	T10,ST1199	".
                        000001    1325  	equ	LN542,*-DPDA-ST542-1
                                  1326  "
                                  1327  " STATE 544
                        001040    1328  	equ	ST544,*-DPDA
    001267  aa   000005 000003    1329  	zero	APLY1,LN544
    001270  aa   000000 000000    1330  	zero	0,0   pd ld
    001271  aa   000050 000001    1331  	zero	40,1   rule/alt
    001272  aa   000011 000420    1332  	zero	9,ST272 prod/val
                        000003    1333  	equ	LN544,*-DPDA-ST544-1
                                  1334  "
                                  1335  " STATE 548
                        001044    1336  	equ	ST548,*-DPDA
    001273  aa   000005 000003    1337  	zero	APLY1,LN548
    001274  aa   000000 000000    1338  	zero	0,0   pd ld
    001275  aa   000051 000001    1339  	zero	41,1   rule/alt
    001276  aa   000011 000420    1340  	zero	9,ST272 prod/val
                        000003    1341  	equ	LN548,*-DPDA-ST548-1
                                  1342  "
                                  1343  " STATE 552
                        001050    1344  	equ	ST552,*-DPDA
    001277  aa   000005 000003    1345  	zero	APLY1,LN552
    001300  aa   000000 000000    1346  	zero	0,0   pd ld
    001301  aa   000052 000001    1347  	zero	42,1   rule/alt
    001302  aa   000011 000420    1348  	zero	9,ST272 prod/val
                        000003    1349  	equ	LN552,*-DPDA-ST552-1
                                  1350  "
                                  1351  " STATE 556
                        001054    1352  	equ	ST556,*-DPDA
    001303  aa   000000 000001    1353  	zero	STRD,LN556
    001304  aa   000007 002263    1354  	zero	T7,ST1203	"(
                        000001    1355  	equ	LN556,*-DPDA-ST556-1
                                  1356  "
                                  1357  " STATE 558
                        001056    1358  	equ	ST558,*-DPDA
    001305  aa   000000 000001    1359  	zero	STRD,LN558
    001306  aa   000007 002264    1360  	zero	T7,ST1204	"(
                        000001    1361  	equ	LN558,*-DPDA-ST558-1
                                  1362  "
                                  1363  " STATE 560
                        001060    1364  	equ	ST560,*-DPDA
    001307  aa   000005 000003    1365  	zero	APLY1,LN560
    001310  aa   000000 000000    1366  	zero	0,0   pd ld
    001311  aa   000054 000001    1367  	zero	44,1   rule/alt
    001312  aa   000011 000420    1368  	zero	9,ST272 prod/val
                        000003    1369  	equ	LN560,*-DPDA-ST560-1
                                  1370  "
                                  1371  " STATE 564
                        001064    1372  	equ	ST564,*-DPDA
    001313  aa   000000 000001    1373  	zero	STRD,LN564
    001314  aa   000007 002265    1374  	zero	T7,ST1205	"(
                        000001    1375  	equ	LN564,*-DPDA-ST564-1
                                  1376  "
                                  1377  " STATE 566
                        001066    1378  	equ	ST566,*-DPDA
    001315  aa   000000 000001    1379  	zero	STRD,LN566
    001316  aa   000007 002266    1380  	zero	T7,ST1206	"(
                        000001    1381  	equ	LN566,*-DPDA-ST566-1
                                  1382  "
                                  1383  " STATE 568
                        001070    1384  	equ	ST568,*-DPDA
    001317  aa   000000 000001    1385  	zero	STRD,LN568
    001320  aa   000007 002267    1386  	zero	T7,ST1207	"(
                        000001    1387  	equ	LN568,*-DPDA-ST568-1
                                  1388  "
                                  1389  " STATE 570
                        001072    1390  	equ	ST570,*-DPDA
    001321  aa   000000 000001    1391  	zero	STRD,LN570
    001322  aa   000007 002270    1392  	zero	T7,ST1208	"(
                        000001    1393  	equ	LN570,*-DPDA-ST570-1
                                  1394  "
                                  1395  " STATE 572
                        001074    1396  	equ	ST572,*-DPDA
    001323  aa   000000 000001    1397  	zero	STRD,LN572
    001324  aa   000007 002271    1398  	zero	T7,ST1209	"(
                        000001    1399  	equ	LN572,*-DPDA-ST572-1
                                  1400  "
                                  1401  " STATE 574
                        001076    1402  	equ	ST574,*-DPDA
    001325  aa   000000 000001    1403  	zero	STRD,LN574
    001326  aa   000007 002272    1404  	zero	T7,ST1210	"(
                        000001    1405  	equ	LN574,*-DPDA-ST574-1
                                  1406  "
                                  1407  " STATE 576
                        001100    1408  	equ	ST576,*-DPDA
    001327  aa   000000 000001    1409  	zero	STRD,LN576
    001330  aa   000007 002273    1410  	zero	T7,ST1211	"(
                        000001    1411  	equ	LN576,*-DPDA-ST576-1
                                  1412  "
                                  1413  " STATE 578
                        001102    1414  	equ	ST578,*-DPDA
    001331  aa   000005 000003    1415  	zero	APLY1,LN578
    001332  aa   000000 000000    1416  	zero	0,0   pd ld
    001333  aa   000053 000001    1417  	zero	43,1   rule/alt
    001334  aa   000011 000420    1418  	zero	9,ST272 prod/val
                        000003    1419  	equ	LN578,*-DPDA-ST578-1
                                  1420  "
                                  1421  " STATE 582
                        001106    1422  	equ	ST582,*-DPDA
    001335  aa   000005 000003    1423  	zero	APLY1,LN582
    001336  aa   000000 000000    1424  	zero	0,0   pd ld
    001337  aa   000035 000001    1425  	zero	29,1   rule/alt
    001340  aa   000011 000420    1426  	zero	9,ST272 prod/val
                        000003    1427  	equ	LN582,*-DPDA-ST582-1
                                  1428  "
                                  1429  " STATE 586
                        001112    1430  	equ	ST586,*-DPDA
    001341  aa   000005 000003    1431  	zero	APLY1,LN586
    001342  aa   000000 000000    1432  	zero	0,0   pd ld
    001343  aa   000036 000001    1433  	zero	30,1   rule/alt
    001344  aa   000011 000420    1434  	zero	9,ST272 prod/val
                        000003    1435  	equ	LN586,*-DPDA-ST586-1
                                  1436  "
                                  1437  " STATE 590
                        001116    1438  	equ	ST590,*-DPDA
    001345  aa   000000 000001    1439  	zero	STRD,LN590
    001346  aa   000007 002277    1440  	zero	T7,ST1215	"(
                        000001    1441  	equ	LN590,*-DPDA-ST590-1
                                  1442  "
                                  1443  " STATE 592
                        001120    1444  	equ	ST592,*-DPDA
    001347  aa   000005 000003    1445  	zero	APLY1,LN592
    001350  aa   000000 000000    1446  	zero	0,0   pd ld
    001351  aa   000106 000001    1447  	zero	70,1   rule/alt
    001352  aa   000011 000420    1448  	zero	9,ST272 prod/val
                        000003    1449  	equ	LN592,*-DPDA-ST592-1
                                  1450  "
                                  1451  " STATE 596
                        001124    1452  	equ	ST596,*-DPDA
    001353  aa   000005 000003    1453  	zero	APLY1,LN596
    001354  aa   000000 000000    1454  	zero	0,0   pd ld
    001355  aa   000037 000001    1455  	zero	31,1   rule/alt
    001356  aa   000011 000420    1456  	zero	9,ST272 prod/val
                        000003    1457  	equ	LN596,*-DPDA-ST596-1
                                  1458  "
                                  1459  " STATE 600
                        001130    1460  	equ	ST600,*-DPDA
    001357  aa   000005 000003    1461  	zero	APLY1,LN600
    001360  aa   000000 000000    1462  	zero	0,0   pd ld
    001361  aa   000105 000001    1463  	zero	69,1   rule/alt
    001362  aa   000011 000420    1464  	zero	9,ST272 prod/val
                        000003    1465  	equ	LN600,*-DPDA-ST600-1
                                  1466  "
                                  1467  " STATE 604
                        001134    1468  	equ	ST604,*-DPDA
    001363  aa   000002 000426    1469  	zero	STRDS,ST278
                                  1470
                                  1471  "
                                  1472  " STATE 605
                        001135    1473  	equ	ST605,*-DPDA
    001364  aa   000005 000003    1474  	zero	APLY1,LN605
    001365  aa   000000 000000    1475  	zero	0,0   pd ld
    001366  aa   000115 000001    1476  	zero	77,1   rule/alt
    001367  aa   000022 000105    1477  	zero	18,ST69 prod/val
                        000003    1478  	equ	LN605,*-DPDA-ST605-1
                                  1479  "
                                  1480  " STATE 609
                        001141    1481  	equ	ST609,*-DPDA
    001370  aa   000005 000003    1482  	zero	APLY1,LN609
    001371  aa   000000 000000    1483  	zero	0,0   pd ld
    001372  aa   000116 000001    1484  	zero	78,1   rule/alt
    001373  aa   000023 000103    1485  	zero	19,ST67 prod/val
                        000003    1486  	equ	LN609,*-DPDA-ST609-1
                                  1487  "
                                  1488  " STATE 613
                        001145    1489  	equ	ST613,*-DPDA
    001374  aa   000000 000001    1490  	zero	STRD,LN613
    001375  aa   000007 002360    1491  	zero	T7,ST1264	"(
                        000001    1492  	equ	LN613,*-DPDA-ST613-1
                                  1493  "
                                  1494  " STATE 615
                        001147    1495  	equ	ST615,*-DPDA
    001376  aa   000011 000077    1496  	zero	NSRD,LN615
    001377  aa   000001 776244    1497  	zero	T1,-ST860	"<integer>
    001400  aa   000002 776244    1498  	zero	T2,-ST860	"<string>
    001401  aa   000006 776244    1499  	zero	T6,-ST860	"}
    001402  aa   000007 776244    1500  	zero	T7,-ST860	"(
    001403  aa   000010 776244    1501  	zero	T8,-ST860	")
    001404  aa   000011 776244    1502  	zero	T9,-ST860	":
    001405  aa   000012 776244    1503  	zero	T10,-ST860	".
    001406  aa   000013 770010    1504  	zero	T11,-ST4088	":=
    001407  aa   000014 776244    1505  	zero	T12,-ST860	"*
    001410  aa   000015 776244    1506  	zero	T13,-ST860	"/
    001411  aa   000016 776244    1507  	zero	T14,-ST860	"|
    001412  aa   000017 776244    1508  	zero	T15,-ST860	"+
    001413  aa   000020 776244    1509  	zero	T16,-ST860	"-
    001414  aa   000021 776244    1510  	zero	T17,-ST860	"<
    001415  aa   000022 776244    1511  	zero	T18,-ST860	">
    001416  aa   000023 776244    1512  	zero	T19,-ST860	"=
    001417  aa   000024 776244    1513  	zero	T20,-ST860	"<=
    001420  aa   000025 776244    1514  	zero	T21,-ST860	">=
    001421  aa   000026 776244    1515  	zero	T22,-ST860	"^=
    001422  aa   000027 776244    1516  	zero	T23,-ST860	"a[
    001423  aa   000030 776244    1517  	zero	T24,-ST860	"k[
    001424  aa   000031 776244    1518  	zero	T25,-ST860	"K[
    001425  aa   000032 776244    1519  	zero	T26,-ST860	"Ks
    001426  aa   000033 776244    1520  	zero	T27,-ST860	"be
    001427  aa   000034 776244    1521  	zero	T28,-ST860	"bn
    001430  aa   000035 776244    1522  	zero	T29,-ST860	"fl
    001431  aa   000036 776244    1523  	zero	T30,-ST860	"fs
    001432  aa   000037 776244    1524  	zero	T31,-ST860	"lb
    001433  aa   000040 776244    1525  	zero	T32,-ST860	"le
    001434  aa   000041 776244    1526  	zero	T33,-ST860	"sb
    001435  aa   000042 776244    1527  	zero	T34,-ST860	"se
    001436  aa   000046 776244    1528  	zero	T38,-ST860	"dn
    001437  aa   000047 776244    1529  	zero	T39,-ST860	"en
    001440  aa   000050 776244    1530  	zero	T40,-ST860	"sn
    001441  aa   000051 776244    1531  	zero	T41,-ST860	"fak
    001442  aa   000052 776244    1532  	zero	T42,-ST860	"fka
    001443  aa   000053 776244    1533  	zero	T43,-ST860	"em
    001444  aa   000054 776244    1534  	zero	T44,-ST860	"fi
    001445  aa   000055 776244    1535  	zero	T45,-ST860	"fir
    001446  aa   000056 776244    1536  	zero	T46,-ST860	"fv
    001447  aa   000057 776244    1537  	zero	T47,-ST860	"fvr
    001450  aa   000060 776244    1538  	zero	T48,-ST860	"ff
    001451  aa   000061 776244    1539  	zero	T49,-ST860	"ffr
    001452  aa   000062 776244    1540  	zero	T50,-ST860	"fln
    001453  aa   000063 776244    1541  	zero	T51,-ST860	"sk
    001454  aa   000064 776244    1542  	zero	T52,-ST860	"J
    001455  aa   000065 776244    1543  	zero	T53,-ST860	"Kl
    001456  aa   000066 776244    1544  	zero	T54,-ST860	"Kb
    001457  aa   000067 776244    1545  	zero	T55,-ST860	"if
    001460  aa   000071 776244    1546  	zero	T57,-ST860	"ag
    001461  aa   000072 776244    1547  	zero	T58,-ST860	"cs
    001462  aa   000074 776244    1548  	zero	T60,-ST860	"pn
    001463  aa   000075 776244    1549  	zero	T61,-ST860	"p[
    001464  aa   000076 776244    1550  	zero	T62,-ST860	"fmx
    001465  aa   000077 776244    1551  	zero	T63,-ST860	"fmn
    001466  aa   000100 776244    1552  	zero	T64,-ST860	"frs
    001467  aa   000101 776244    1553  	zero	T65,-ST860	"||
    001470  aa   000102 776244    1554  	zero	T66,-ST860	"<var>
    001471  aa   000104 776244    1555  	zero	T68,-ST860	"mct
    001472  aa   000105 776244    1556  	zero	T69,-ST860	"emt
    001473  aa   000106 776244    1557  	zero	T70,-ST860	"emc
    001474  aa   000107 776244    1558  	zero	T71,-ST860	"<u+>
    001475  aa   000110 776244    1559  	zero	T72,-ST860	"<u->
                        000077    1560  	equ	LN615,*-DPDA-ST615-1
                                  1561  "
                                  1562  " STATE 679
                        001247    1563  	equ	ST679,*-DPDA
    001476  aa   000000 000001    1564  	zero	STRD,LN679
    001477  aa   000007 002365    1565  	zero	T7,ST1269	"(
                        000001    1566  	equ	LN679,*-DPDA-ST679-1
                                  1567  "
                                  1568  " STATE 681
                        001251    1569  	equ	ST681,*-DPDA
    001500  aa   000000 000001    1570  	zero	STRD,LN681
    001501  aa   000007 002366    1571  	zero	T7,ST1270	"(
                        000001    1572  	equ	LN681,*-DPDA-ST681-1
                                  1573  "
                                  1574  " STATE 683
                        001253    1575  	equ	ST683,*-DPDA
    001502  aa   000000 000001    1576  	zero	STRD,LN683
    001503  aa   000007 002370    1577  	zero	T7,ST1272	"(
                        000001    1578  	equ	LN683,*-DPDA-ST683-1
                                  1579  "
                                  1580  " STATE 685
                        001255    1581  	equ	ST685,*-DPDA
    001504  aa   000000 000001    1582  	zero	STRD,LN685
    001505  aa   000007 002372    1583  	zero	T7,ST1274	"(
                        000001    1584  	equ	LN685,*-DPDA-ST685-1
                                  1585  "
                                  1586  " STATE 687
                        001257    1587  	equ	ST687,*-DPDA
    001506  aa   000000 000053    1588  	zero	STRD,LN687
    001507  aa   000001 000601    1589  	zero	T1,ST385	"<integer>
    001510  aa   000002 001454    1590  	zero	T2,ST812	"<string>
    001511  aa   000007 000711    1591  	zero	T7,ST457	"(
    001512  aa   000027 001521    1592  	zero	T23,ST849	"a[
    001513  aa   000030 001522    1593  	zero	T24,ST850	"k[
    001514  aa   000031 001523    1594  	zero	T25,ST851	"K[
    001515  aa   000032 000772    1595  	zero	T26,ST506	"Ks
    001516  aa   000033 000776    1596  	zero	T27,ST510	"be
    001517  aa   000034 001002    1597  	zero	T28,ST514	"bn
    001520  aa   000035 001006    1598  	zero	T29,ST518	"fl
    001521  aa   000036 001010    1599  	zero	T30,ST520	"fs
    001522  aa   000037 001012    1600  	zero	T31,ST522	"lb
    001523  aa   000040 001016    1601  	zero	T32,ST526	"le
    001524  aa   000041 001022    1602  	zero	T33,ST530	"sb
    001525  aa   000042 001026    1603  	zero	T34,ST534	"se
    001526  aa   000046 001040    1604  	zero	T38,ST544	"dn
    001527  aa   000047 001044    1605  	zero	T39,ST548	"en
    001530  aa   000050 001050    1606  	zero	T40,ST552	"sn
    001531  aa   000051 001054    1607  	zero	T41,ST556	"fak
    001532  aa   000052 001056    1608  	zero	T42,ST558	"fka
    001533  aa   000053 001060    1609  	zero	T43,ST560	"em
    001534  aa   000054 001064    1610  	zero	T44,ST564	"fi
    001535  aa   000055 001066    1611  	zero	T45,ST566	"fir
    001536  aa   000056 001070    1612  	zero	T46,ST568	"fv
    001537  aa   000057 001072    1613  	zero	T47,ST570	"fvr
    001540  aa   000060 001074    1614  	zero	T48,ST572	"ff
    001541  aa   000061 001076    1615  	zero	T49,ST574	"ffr
    001542  aa   000062 001100    1616  	zero	T50,ST576	"fln
    001543  aa   000063 001102    1617  	zero	T51,ST578	"sk
    001544  aa   000065 001106    1618  	zero	T53,ST582	"Kl
    001545  aa   000066 001112    1619  	zero	T54,ST586	"Kb
    001546  aa   000067 001116    1620  	zero	T55,ST590	"if
    001547  aa   000071 001120    1621  	zero	T57,ST592	"ag
    001550  aa   000072 001124    1622  	zero	T58,ST596	"cs
    001551  aa   000074 001130    1623  	zero	T60,ST600	"pn
    001552  aa   000075 001134    1624  	zero	T61,ST604	"p[
    001553  aa   000076 001135    1625  	zero	T62,ST605	"fmx
    001554  aa   000077 001141    1626  	zero	T63,ST609	"fmn
    001555  aa   000100 001145    1627  	zero	T64,ST613	"frs
    001556  aa   000102 001534    1628  	zero	T66,ST860	"<var>
    001557  aa   000104 001251    1629  	zero	T68,ST681	"mct
    001560  aa   000105 001253    1630  	zero	T69,ST683	"emt
    001561  aa   000106 001255    1631  	zero	T70,ST685	"emc
                        000053    1632  	equ	LN687,*-DPDA-ST687-1
                                  1633  "
                                  1634  " STATE 731
                        001333    1635  	equ	ST731,*-DPDA
    001562  aa   000002 001257    1636  	zero	STRDS,ST687
                                  1637
                                  1638  "
                                  1639  " STATE 732
                        001334    1640  	equ	ST732,*-DPDA
    001563  aa   000002 000426    1641  	zero	STRDS,ST278
                                  1642
                                  1643  "
                                  1644  " STATE 733
                        001335    1645  	equ	ST733,*-DPDA
    001564  aa   000002 000426    1646  	zero	STRDS,ST278
                                  1647
                                  1648  "
                                  1649  " STATE 734
                        001336    1650  	equ	ST734,*-DPDA
    001565  aa   000002 000426    1651  	zero	STRDS,ST278
                                  1652
                                  1653  "
                                  1654  " STATE 735
                        001337    1655  	equ	ST735,*-DPDA
    001566  aa   000002 000426    1656  	zero	STRDS,ST278
                                  1657
                                  1658  "
                                  1659  " STATE 736
                        001340    1660  	equ	ST736,*-DPDA
    001567  aa   000002 000426    1661  	zero	STRDS,ST278
                                  1662
                                  1663  "
                                  1664  " STATE 737
                        001341    1665  	equ	ST737,*-DPDA
    001570  aa   000002 000426    1666  	zero	STRDS,ST278
                                  1667
                                  1668  "
                                  1669  " STATE 738
                        001342    1670  	equ	ST738,*-DPDA
    001571  aa   000002 000426    1671  	zero	STRDS,ST278
                                  1672
                                  1673  "
                                  1674  " STATE 739
                        001343    1675  	equ	ST739,*-DPDA
    001572  aa   000002 000426    1676  	zero	STRDS,ST278
                                  1677
                                  1678  "
                                  1679  " STATE 740
                        001344    1680  	equ	ST740,*-DPDA
    001573  aa   000004 000004    1681  	zero	APLY,LN740
    001574  aa   000001 000001    1682  	zero	1,1   pd ld
    001575  aa   000011 000002    1683  	zero	9,2   rule/alt
    001576  aa   000004 000512    1684  	zero	4,ST330 prod/val
    001577  aa   000516 001716    1685  	zero	ST334,ST974
                        000004    1686  	equ	LN740,*-DPDA-ST740-1
                                  1687  "
                                  1688  " STATE 745
                        001351    1689  	equ	ST745,*-DPDA
    001600  aa   000006 000003    1690  	zero	APLYS,LN745
    001601  aa   000001 000001    1691  	zero	1,1   pd ld
    001602  aa   000012 000002    1692  	zero	10,2   rule/alt
    001603  aa   000004 001344    1693  	zero	4,ST740 prod/val
                        000003    1694  	equ	LN745,*-DPDA-ST745-1
                                  1695  "
                                  1696  " STATE 749
                        001355    1697  	equ	ST749,*-DPDA
    001604  aa   000011 000075    1698  	zero	NSRD,LN749
    001605  aa   000001 770005    1699  	zero	T1,-ST4091	"<integer>
    001606  aa   000002 770005    1700  	zero	T2,-ST4091	"<string>
    001607  aa   000003 770005    1701  	zero	T3,-ST4091	"]
    001610  aa   000004 770005    1702  	zero	T4,-ST4091	",
    001611  aa   000006 770005    1703  	zero	T6,-ST4091	"}
    001612  aa   000007 770005    1704  	zero	T7,-ST4091	"(
    001613  aa   000010 770005    1705  	zero	T8,-ST4091	")
    001614  aa   000011 770005    1706  	zero	T9,-ST4091	":
    001615  aa   000012 770005    1707  	zero	T10,-ST4091	".
    001616  aa   000017 770006    1708  	zero	T15,-ST4090	"+
    001617  aa   000020 770006    1709  	zero	T16,-ST4090	"-
    001620  aa   000021 770005    1710  	zero	T17,-ST4091	"<
    001621  aa   000022 770005    1711  	zero	T18,-ST4091	">
    001622  aa   000023 770005    1712  	zero	T19,-ST4091	"=
    001623  aa   000024 770005    1713  	zero	T20,-ST4091	"<=
    001624  aa   000025 770005    1714  	zero	T21,-ST4091	">=
    001625  aa   000026 770005    1715  	zero	T22,-ST4091	"^=
    001626  aa   000027 770005    1716  	zero	T23,-ST4091	"a[
    001627  aa   000030 770005    1717  	zero	T24,-ST4091	"k[
    001630  aa   000031 770005    1718  	zero	T25,-ST4091	"K[
    001631  aa   000032 770005    1719  	zero	T26,-ST4091	"Ks
    001632  aa   000033 770005    1720  	zero	T27,-ST4091	"be
    001633  aa   000034 770005    1721  	zero	T28,-ST4091	"bn
    001634  aa   000035 770005    1722  	zero	T29,-ST4091	"fl
    001635  aa   000036 770005    1723  	zero	T30,-ST4091	"fs
    001636  aa   000037 770005    1724  	zero	T31,-ST4091	"lb
    001637  aa   000040 770005    1725  	zero	T32,-ST4091	"le
    001640  aa   000041 770005    1726  	zero	T33,-ST4091	"sb
    001641  aa   000042 770005    1727  	zero	T34,-ST4091	"se
    001642  aa   000046 770005    1728  	zero	T38,-ST4091	"dn
    001643  aa   000047 770005    1729  	zero	T39,-ST4091	"en
    001644  aa   000050 770005    1730  	zero	T40,-ST4091	"sn
    001645  aa   000051 770005    1731  	zero	T41,-ST4091	"fak
    001646  aa   000052 770005    1732  	zero	T42,-ST4091	"fka
    001647  aa   000053 770005    1733  	zero	T43,-ST4091	"em
    001650  aa   000054 770005    1734  	zero	T44,-ST4091	"fi
    001651  aa   000055 770005    1735  	zero	T45,-ST4091	"fir
    001652  aa   000056 770005    1736  	zero	T46,-ST4091	"fv
    001653  aa   000057 770005    1737  	zero	T47,-ST4091	"fvr
    001654  aa   000060 770005    1738  	zero	T48,-ST4091	"ff
    001655  aa   000061 770005    1739  	zero	T49,-ST4091	"ffr
    001656  aa   000062 770005    1740  	zero	T50,-ST4091	"fln
    001657  aa   000063 770005    1741  	zero	T51,-ST4091	"sk
    001660  aa   000064 770005    1742  	zero	T52,-ST4091	"J
    001661  aa   000065 770005    1743  	zero	T53,-ST4091	"Kl
    001662  aa   000066 770005    1744  	zero	T54,-ST4091	"Kb
    001663  aa   000067 770005    1745  	zero	T55,-ST4091	"if
    001664  aa   000071 770005    1746  	zero	T57,-ST4091	"ag
    001665  aa   000072 770005    1747  	zero	T58,-ST4091	"cs
    001666  aa   000074 770005    1748  	zero	T60,-ST4091	"pn
    001667  aa   000075 770005    1749  	zero	T61,-ST4091	"p[
    001670  aa   000076 770005    1750  	zero	T62,-ST4091	"fmx
    001671  aa   000077 770005    1751  	zero	T63,-ST4091	"fmn
    001672  aa   000100 770005    1752  	zero	T64,-ST4091	"frs
    001673  aa   000101 770005    1753  	zero	T65,-ST4091	"||
    001674  aa   000102 770005    1754  	zero	T66,-ST4091	"<var>
    001675  aa   000104 770005    1755  	zero	T68,-ST4091	"mct
    001676  aa   000105 770005    1756  	zero	T69,-ST4091	"emt
    001677  aa   000106 770005    1757  	zero	T70,-ST4091	"emc
    001700  aa   000107 770005    1758  	zero	T71,-ST4091	"<u+>
    001701  aa   000110 770005    1759  	zero	T72,-ST4091	"<u->
                        000075    1760  	equ	LN749,*-DPDA-ST749-1
                                  1761  "
                                  1762  " STATE 811
                        001453    1763  	equ	ST811,*-DPDA
    001702  aa   000002 000426    1764  	zero	STRDS,ST278
                                  1765
                                  1766  "
                                  1767  " STATE 812
                        001454    1768  	equ	ST812,*-DPDA
    001703  aa   000005 000003    1769  	zero	APLY1,LN812
    001704  aa   000000 000000    1770  	zero	0,0   pd ld
    001705  aa   000040 000001    1771  	zero	32,1   rule/alt
    001706  aa   000011 000420    1772  	zero	9,ST272 prod/val
                        000003    1773  	equ	LN812,*-DPDA-ST812-1
                                  1774  "
                                  1775  " STATE 816
                        001460    1776  	equ	ST816,*-DPDA
    001707  aa   000006 000003    1777  	zero	APLYS,LN816
    001710  aa   000001 000001    1778  	zero	1,1   pd ld
    001711  aa   000011 000001    1779  	zero	9,1   rule/alt
    001712  aa   000004 001344    1780  	zero	4,ST740 prod/val
                        000003    1781  	equ	LN816,*-DPDA-ST816-1
                                  1782  "
                                  1783  " STATE 820
                        001464    1784  	equ	ST820,*-DPDA
    001713  aa   000006 000003    1785  	zero	APLYS,LN820
    001714  aa   000001 000001    1786  	zero	1,1   pd ld
    001715  aa   000012 000001    1787  	zero	10,1   rule/alt
    001716  aa   000004 001344    1788  	zero	4,ST740 prod/val
                        000003    1789  	equ	LN820,*-DPDA-ST820-1
                                  1790  "
                                  1791  " STATE 824
                        001470    1792  	equ	ST824,*-DPDA
    001717  aa   000004 000004    1793  	zero	APLY,LN824
    001720  aa   000000 000000    1794  	zero	0,0   pd ld
    001721  aa   000065 000005    1795  	zero	53,5   rule/alt
    001722  aa   000015 001453    1796  	zero	13,ST811 prod/val
    001723  aa   001524 003275    1797  	zero	ST852,ST1725
                        000004    1798  	equ	LN824,*-DPDA-ST824-1
                                  1799  "
                                  1800  " STATE 829
                        001475    1801  	equ	ST829,*-DPDA
    001724  aa   000006 000003    1802  	zero	APLYS,LN829
    001725  aa   000000 000000    1803  	zero	0,0   pd ld
    001726  aa   000065 000006    1804  	zero	53,6   rule/alt
    001727  aa   000015 001470    1805  	zero	13,ST824 prod/val
                        000003    1806  	equ	LN829,*-DPDA-ST829-1
                                  1807  "
                                  1808  " STATE 833
                        001501    1809  	equ	ST833,*-DPDA
    001730  aa   000006 000003    1810  	zero	APLYS,LN833
    001731  aa   000000 000000    1811  	zero	0,0   pd ld
    001732  aa   000065 000001    1812  	zero	53,1   rule/alt
    001733  aa   000015 001470    1813  	zero	13,ST824 prod/val
                        000003    1814  	equ	LN833,*-DPDA-ST833-1
                                  1815  "
                                  1816  " STATE 837
                        001505    1817  	equ	ST837,*-DPDA
    001734  aa   000006 000003    1818  	zero	APLYS,LN837
    001735  aa   000000 000000    1819  	zero	0,0   pd ld
    001736  aa   000065 000004    1820  	zero	53,4   rule/alt
    001737  aa   000015 001470    1821  	zero	13,ST824 prod/val
                        000003    1822  	equ	LN837,*-DPDA-ST837-1
                                  1823  "
                                  1824  " STATE 841
                        001511    1825  	equ	ST841,*-DPDA
    001740  aa   000006 000003    1826  	zero	APLYS,LN841
    001741  aa   000000 000000    1827  	zero	0,0   pd ld
    001742  aa   000065 000003    1828  	zero	53,3   rule/alt
    001743  aa   000015 001470    1829  	zero	13,ST824 prod/val
                        000003    1830  	equ	LN841,*-DPDA-ST841-1
                                  1831  "
                                  1832  " STATE 845
                        001515    1833  	equ	ST845,*-DPDA
    001744  aa   000006 000003    1834  	zero	APLYS,LN845
    001745  aa   000000 000000    1835  	zero	0,0   pd ld
    001746  aa   000065 000002    1836  	zero	53,2   rule/alt
    001747  aa   000015 001470    1837  	zero	13,ST824 prod/val
                        000003    1838  	equ	LN845,*-DPDA-ST845-1
                                  1839  "
                                  1840  " STATE 849
                        001521    1841  	equ	ST849,*-DPDA
    001750  aa   000002 000426    1842  	zero	STRDS,ST278
                                  1843
                                  1844  "
                                  1845  " STATE 850
                        001522    1846  	equ	ST850,*-DPDA
    001751  aa   000002 000426    1847  	zero	STRDS,ST278
                                  1848
                                  1849  "
                                  1850  " STATE 851
                        001523    1851  	equ	ST851,*-DPDA
    001752  aa   000002 000426    1852  	zero	STRDS,ST278
                                  1853
                                  1854  "
                                  1855  " STATE 852
                        001524    1856  	equ	ST852,*-DPDA
    001753  aa   000000 000006    1857  	zero	STRD,LN852
    001754  aa   000021 001470    1858  	zero	T17,ST824	"<
    001755  aa   000022 001475    1859  	zero	T18,ST829	">
    001756  aa   000023 001501    1860  	zero	T19,ST833	"=
    001757  aa   000024 001505    1861  	zero	T20,ST837	"<=
    001760  aa   000025 001511    1862  	zero	T21,ST841	">=
    001761  aa   000026 001515    1863  	zero	T22,ST845	"^=
                        000006    1864  	equ	LN852,*-DPDA-ST852-1
                                  1865  "
                                  1866  " STATE 859
                        001533    1867  	equ	ST859,*-DPDA
    001762  aa   000002 000426    1868  	zero	STRDS,ST278
                                  1869
                                  1870  "
                                  1871  " STATE 860
                        001534    1872  	equ	ST860,*-DPDA
    001763  aa   000005 000003    1873  	zero	APLY1,LN860
    001764  aa   000000 000000    1874  	zero	0,0   pd ld
    001765  aa   000046 000001    1875  	zero	38,1   rule/alt
    001766  aa   000011 000420    1876  	zero	9,ST272 prod/val
                        000003    1877  	equ	LN860,*-DPDA-ST860-1
                                  1878  "
                                  1879  " STATE 864
                        001540    1880  	equ	ST864,*-DPDA
    001767  aa   000011 000061    1881  	zero	NSRD,LN864
    001770  aa   000001 770001    1882  	zero	T1,-ST4095	"<integer>
    001771  aa   000002 770001    1883  	zero	T2,-ST4095	"<string>
    001772  aa   000006 767722    1884  	zero	T6,-ST4142	"}
    001773  aa   000007 770001    1885  	zero	T7,-ST4095	"(
    001774  aa   000010 767722    1886  	zero	T8,-ST4142	")
    001775  aa   000012 767722    1887  	zero	T10,-ST4142	".
    001776  aa   000027 770001    1888  	zero	T23,-ST4095	"a[
    001777  aa   000030 770001    1889  	zero	T24,-ST4095	"k[
    002000  aa   000031 770001    1890  	zero	T25,-ST4095	"K[
    002001  aa   000032 770001    1891  	zero	T26,-ST4095	"Ks
    002002  aa   000033 770001    1892  	zero	T27,-ST4095	"be
    002003  aa   000034 770001    1893  	zero	T28,-ST4095	"bn
    002004  aa   000035 770001    1894  	zero	T29,-ST4095	"fl
    002005  aa   000036 770001    1895  	zero	T30,-ST4095	"fs
    002006  aa   000037 770001    1896  	zero	T31,-ST4095	"lb
    002007  aa   000040 770001    1897  	zero	T32,-ST4095	"le
    002010  aa   000041 770001    1898  	zero	T33,-ST4095	"sb
    002011  aa   000042 770001    1899  	zero	T34,-ST4095	"se
    002012  aa   000046 770001    1900  	zero	T38,-ST4095	"dn
    002013  aa   000047 770001    1901  	zero	T39,-ST4095	"en
    002014  aa   000050 770001    1902  	zero	T40,-ST4095	"sn
    002015  aa   000051 770001    1903  	zero	T41,-ST4095	"fak
    002016  aa   000052 770001    1904  	zero	T42,-ST4095	"fka
    002017  aa   000053 770001    1905  	zero	T43,-ST4095	"em
    002020  aa   000054 770001    1906  	zero	T44,-ST4095	"fi
    002021  aa   000055 770001    1907  	zero	T45,-ST4095	"fir
    002022  aa   000056 770001    1908  	zero	T46,-ST4095	"fv
    002023  aa   000057 770001    1909  	zero	T47,-ST4095	"fvr
    002024  aa   000060 770001    1910  	zero	T48,-ST4095	"ff
    002025  aa   000061 770001    1911  	zero	T49,-ST4095	"ffr
    002026  aa   000062 770001    1912  	zero	T50,-ST4095	"fln
    002027  aa   000063 770001    1913  	zero	T51,-ST4095	"sk
    002030  aa   000065 770001    1914  	zero	T53,-ST4095	"Kl
    002031  aa   000066 770001    1915  	zero	T54,-ST4095	"Kb
    002032  aa   000067 770001    1916  	zero	T55,-ST4095	"if
    002033  aa   000071 770001    1917  	zero	T57,-ST4095	"ag
    002034  aa   000072 770001    1918  	zero	T58,-ST4095	"cs
    002035  aa   000074 770001    1919  	zero	T60,-ST4095	"pn
    002036  aa   000075 770001    1920  	zero	T61,-ST4095	"p[
    002037  aa   000076 770001    1921  	zero	T62,-ST4095	"fmx
    002040  aa   000077 770001    1922  	zero	T63,-ST4095	"fmn
    002041  aa   000100 770001    1923  	zero	T64,-ST4095	"frs
    002042  aa   000101 770001    1924  	zero	T65,-ST4095	"||
    002043  aa   000102 770001    1925  	zero	T66,-ST4095	"<var>
    002044  aa   000104 770001    1926  	zero	T68,-ST4095	"mct
    002045  aa   000105 770001    1927  	zero	T69,-ST4095	"emt
    002046  aa   000106 770001    1928  	zero	T70,-ST4095	"emc
    002047  aa   000107 770001    1929  	zero	T71,-ST4095	"<u+>
    002050  aa   000110 770001    1930  	zero	T72,-ST4095	"<u->
                        000061    1931  	equ	LN864,*-DPDA-ST864-1
                                  1932  "
                                  1933  " STATE 914
                        001622    1934  	equ	ST914,*-DPDA
    002051  aa   000011 000061    1935  	zero	NSRD,LN914
    002052  aa   000001 767715    1936  	zero	T1,-ST4147	"<integer>
    002053  aa   000002 767715    1937  	zero	T2,-ST4147	"<string>
    002054  aa   000006 767714    1938  	zero	T6,-ST4148	"}
    002055  aa   000007 767715    1939  	zero	T7,-ST4147	"(
    002056  aa   000010 767714    1940  	zero	T8,-ST4148	")
    002057  aa   000012 767714    1941  	zero	T10,-ST4148	".
    002060  aa   000027 767715    1942  	zero	T23,-ST4147	"a[
    002061  aa   000030 767715    1943  	zero	T24,-ST4147	"k[
    002062  aa   000031 767715    1944  	zero	T25,-ST4147	"K[
    002063  aa   000032 767715    1945  	zero	T26,-ST4147	"Ks
    002064  aa   000033 767715    1946  	zero	T27,-ST4147	"be
    002065  aa   000034 767715    1947  	zero	T28,-ST4147	"bn
    002066  aa   000035 767715    1948  	zero	T29,-ST4147	"fl
    002067  aa   000036 767715    1949  	zero	T30,-ST4147	"fs
    002070  aa   000037 767715    1950  	zero	T31,-ST4147	"lb
    002071  aa   000040 767715    1951  	zero	T32,-ST4147	"le
    002072  aa   000041 767715    1952  	zero	T33,-ST4147	"sb
    002073  aa   000042 767715    1953  	zero	T34,-ST4147	"se
    002074  aa   000046 767715    1954  	zero	T38,-ST4147	"dn
    002075  aa   000047 767715    1955  	zero	T39,-ST4147	"en
    002076  aa   000050 767715    1956  	zero	T40,-ST4147	"sn
    002077  aa   000051 767715    1957  	zero	T41,-ST4147	"fak
    002100  aa   000052 767715    1958  	zero	T42,-ST4147	"fka
    002101  aa   000053 767715    1959  	zero	T43,-ST4147	"em
    002102  aa   000054 767715    1960  	zero	T44,-ST4147	"fi
    002103  aa   000055 767715    1961  	zero	T45,-ST4147	"fir
    002104  aa   000056 767715    1962  	zero	T46,-ST4147	"fv
    002105  aa   000057 767715    1963  	zero	T47,-ST4147	"fvr
    002106  aa   000060 767715    1964  	zero	T48,-ST4147	"ff
    002107  aa   000061 767715    1965  	zero	T49,-ST4147	"ffr
    002110  aa   000062 767715    1966  	zero	T50,-ST4147	"fln
    002111  aa   000063 767715    1967  	zero	T51,-ST4147	"sk
    002112  aa   000065 767715    1968  	zero	T53,-ST4147	"Kl
    002113  aa   000066 767715    1969  	zero	T54,-ST4147	"Kb
    002114  aa   000067 767715    1970  	zero	T55,-ST4147	"if
    002115  aa   000071 767715    1971  	zero	T57,-ST4147	"ag
    002116  aa   000072 767715    1972  	zero	T58,-ST4147	"cs
    002117  aa   000074 767715    1973  	zero	T60,-ST4147	"pn
    002120  aa   000075 767715    1974  	zero	T61,-ST4147	"p[
    002121  aa   000076 767715    1975  	zero	T62,-ST4147	"fmx
    002122  aa   000077 767715    1976  	zero	T63,-ST4147	"fmn
    002123  aa   000100 767715    1977  	zero	T64,-ST4147	"frs
    002124  aa   000101 767715    1978  	zero	T65,-ST4147	"||
    002125  aa   000102 767715    1979  	zero	T66,-ST4147	"<var>
    002126  aa   000104 767715    1980  	zero	T68,-ST4147	"mct
    002127  aa   000105 767715    1981  	zero	T69,-ST4147	"emt
    002130  aa   000106 767715    1982  	zero	T70,-ST4147	"emc
    002131  aa   000107 767715    1983  	zero	T71,-ST4147	"<u+>
    002132  aa   000110 767715    1984  	zero	T72,-ST4147	"<u->
                        000061    1985  	equ	LN914,*-DPDA-ST914-1
                                  1986  "
                                  1987  " STATE 964
                        001704    1988  	equ	ST964,*-DPDA
    002133  aa   000006 000003    1989  	zero	APLYS,LN964
    002134  aa   000001 000001    1990  	zero	1,1   pd ld
    002135  aa   000014 000001    1991  	zero	12,1   rule/alt
    002136  aa   000004 001344    1992  	zero	4,ST740 prod/val
                        000003    1993  	equ	LN964,*-DPDA-ST964-1
                                  1994  "
                                  1995  " STATE 968
                        001710    1996  	equ	ST968,*-DPDA
    002137  aa   000005 000003    1997  	zero	APLY1,LN968
    002140  aa   000002 000002    1998  	zero	2,2   pd ld
    002141  aa   000004 000001    1999  	zero	4,1   rule/alt
    002142  aa   000002 000010    2000  	zero	2,ST8 prod/val
                        000003    2001  	equ	LN968,*-DPDA-ST968-1
                                  2002  "
                                  2003  " STATE 972
                        001714    2004  	equ	ST972,*-DPDA
    002143  aa   000000 000001    2005  	zero	STRD,LN972
    002144  aa   000006 003374    2006  	zero	T6,ST1788	"}
                        000001    2007  	equ	LN972,*-DPDA-ST972-1
                                  2008  "
                                  2009  " STATE 974
                        001716    2010  	equ	ST974,*-DPDA
    002145  aa   000005 000003    2011  	zero	APLY1,LN974
    002146  aa   000001 000001    2012  	zero	1,1   pd ld
    002147  aa   777771 000001    2013  	zero	-7,1   rule/alt
    002150  aa   000003 000516    2014  	zero	3,ST334 prod/val
                        000003    2015  	equ	LN974,*-DPDA-ST974-1
                                  2016  "
                                  2017  " STATE 978
                        001722    2018  	equ	ST978,*-DPDA
    002151  aa   000005 000003    2019  	zero	APLY1,LN978
    002152  aa   000002 000002    2020  	zero	2,2   pd ld
    002153  aa   000005 000001    2021  	zero	5,1   rule/alt
    002154  aa   000002 000010    2022  	zero	2,ST8 prod/val
                        000003    2023  	equ	LN978,*-DPDA-ST978-1
                                  2024  "
                                  2025  " STATE 982
                        001726    2026  	equ	ST982,*-DPDA
    002155  aa   000005 000003    2027  	zero	APLY1,LN982
    002156  aa   000001 000001    2028  	zero	1,1   pd ld
    002157  aa   000030 000001    2029  	zero	24,1   rule/alt
    002160  aa   000010 000426    2030  	zero	8,ST278 prod/val
                        000003    2031  	equ	LN982,*-DPDA-ST982-1
                                  2032  "
                                  2033  " STATE 986
                        001732    2034  	equ	ST986,*-DPDA
    002161  aa   000000 000001    2035  	zero	STRD,LN986
    002162  aa   000010 003400    2036  	zero	T8,ST1792	")
                        000001    2037  	equ	LN986,*-DPDA-ST986-1
                                  2038  "
                                  2039  " STATE 988
                        001734    2040  	equ	ST988,*-DPDA
    002163  aa   000000 000066    2041  	zero	STRD,LN988
    002164  aa   000001 000601    2042  	zero	T1,ST385	"<integer>
    002165  aa   000002 001454    2043  	zero	T2,ST812	"<string>
    002166  aa   000007 000711    2044  	zero	T7,ST457	"(
    002167  aa   000010 003404    2045  	zero	T8,ST1796	")
    002170  aa   000021 001470    2046  	zero	T17,ST824	"<
    002171  aa   000022 001475    2047  	zero	T18,ST829	">
    002172  aa   000023 001501    2048  	zero	T19,ST833	"=
    002173  aa   000024 001505    2049  	zero	T20,ST837	"<=
    002174  aa   000025 001511    2050  	zero	T21,ST841	">=
    002175  aa   000026 001515    2051  	zero	T22,ST845	"^=
    002176  aa   000027 001521    2052  	zero	T23,ST849	"a[
    002177  aa   000030 001522    2053  	zero	T24,ST850	"k[
    002200  aa   000031 001523    2054  	zero	T25,ST851	"K[
    002201  aa   000032 000772    2055  	zero	T26,ST506	"Ks
    002202  aa   000033 000776    2056  	zero	T27,ST510	"be
    002203  aa   000034 001002    2057  	zero	T28,ST514	"bn
    002204  aa   000035 001006    2058  	zero	T29,ST518	"fl
    002205  aa   000036 001010    2059  	zero	T30,ST520	"fs
    002206  aa   000037 001012    2060  	zero	T31,ST522	"lb
    002207  aa   000040 001016    2061  	zero	T32,ST526	"le
    002210  aa   000041 001022    2062  	zero	T33,ST530	"sb
    002211  aa   000042 001026    2063  	zero	T34,ST534	"se
    002212  aa   000046 001040    2064  	zero	T38,ST544	"dn
    002213  aa   000047 001044    2065  	zero	T39,ST548	"en
    002214  aa   000050 001050    2066  	zero	T40,ST552	"sn
    002215  aa   000051 001054    2067  	zero	T41,ST556	"fak
    002216  aa   000052 001056    2068  	zero	T42,ST558	"fka
    002217  aa   000053 001060    2069  	zero	T43,ST560	"em
    002220  aa   000054 001064    2070  	zero	T44,ST564	"fi
    002221  aa   000055 001066    2071  	zero	T45,ST566	"fir
    002222  aa   000056 001070    2072  	zero	T46,ST568	"fv
    002223  aa   000057 001072    2073  	zero	T47,ST570	"fvr
    002224  aa   000060 001074    2074  	zero	T48,ST572	"ff
    002225  aa   000061 001076    2075  	zero	T49,ST574	"ffr
    002226  aa   000062 001100    2076  	zero	T50,ST576	"fln
    002227  aa   000063 001102    2077  	zero	T51,ST578	"sk
    002230  aa   000064 001524    2078  	zero	T52,ST852	"J
    002231  aa   000065 001106    2079  	zero	T53,ST582	"Kl
    002232  aa   000066 001112    2080  	zero	T54,ST586	"Kb
    002233  aa   000067 001116    2081  	zero	T55,ST590	"if
    002234  aa   000071 001120    2082  	zero	T57,ST592	"ag
    002235  aa   000072 001124    2083  	zero	T58,ST596	"cs
    002236  aa   000074 001130    2084  	zero	T60,ST600	"pn
    002237  aa   000075 001134    2085  	zero	T61,ST604	"p[
    002240  aa   000076 001135    2086  	zero	T62,ST605	"fmx
    002241  aa   000077 001141    2087  	zero	T63,ST609	"fmn
    002242  aa   000100 001145    2088  	zero	T64,ST613	"frs
    002243  aa   000101 001533    2089  	zero	T65,ST859	"||
    002244  aa   000102 001534    2090  	zero	T66,ST860	"<var>
    002245  aa   000104 001251    2091  	zero	T68,ST681	"mct
    002246  aa   000105 001253    2092  	zero	T69,ST683	"emt
    002247  aa   000106 001255    2093  	zero	T70,ST685	"emc
    002250  aa   000107 001257    2094  	zero	T71,ST687	"<u+>
    002251  aa   000110 001333    2095  	zero	T72,ST731	"<u->
                        000066    2096  	equ	LN988,*-DPDA-ST988-1
                                  2097  "
                                  2098  " STATE 1043
                        002023    2099  	equ	ST1043,*-DPDA
    002252  aa   000000 000001    2100  	zero	STRD,LN1043
    002253  aa   000010 003410    2101  	zero	T8,ST1800	")
                        000001    2102  	equ	LN1043,*-DPDA-ST1043-1
                                  2103  "
                                  2104  " STATE 1045
                        002025    2105  	equ	ST1045,*-DPDA
    002254  aa   000000 000057    2106  	zero	STRD,LN1045
    002255  aa   000001 000601    2107  	zero	T1,ST385	"<integer>
    002256  aa   000002 001454    2108  	zero	T2,ST812	"<string>
    002257  aa   000003 003414    2109  	zero	T3,ST1804	"]
    002260  aa   000007 000711    2110  	zero	T7,ST457	"(
    002261  aa   000027 001521    2111  	zero	T23,ST849	"a[
    002262  aa   000030 001522    2112  	zero	T24,ST850	"k[
    002263  aa   000031 001523    2113  	zero	T25,ST851	"K[
    002264  aa   000032 000772    2114  	zero	T26,ST506	"Ks
    002265  aa   000033 000776    2115  	zero	T27,ST510	"be
    002266  aa   000034 001002    2116  	zero	T28,ST514	"bn
    002267  aa   000035 001006    2117  	zero	T29,ST518	"fl
    002270  aa   000036 001010    2118  	zero	T30,ST520	"fs
    002271  aa   000037 001012    2119  	zero	T31,ST522	"lb
    002272  aa   000040 001016    2120  	zero	T32,ST526	"le
    002273  aa   000041 001022    2121  	zero	T33,ST530	"sb
    002274  aa   000042 001026    2122  	zero	T34,ST534	"se
    002275  aa   000046 001040    2123  	zero	T38,ST544	"dn
    002276  aa   000047 001044    2124  	zero	T39,ST548	"en
    002277  aa   000050 001050    2125  	zero	T40,ST552	"sn
    002300  aa   000051 001054    2126  	zero	T41,ST556	"fak
    002301  aa   000052 001056    2127  	zero	T42,ST558	"fka
    002302  aa   000053 001060    2128  	zero	T43,ST560	"em
    002303  aa   000054 001064    2129  	zero	T44,ST564	"fi
    002304  aa   000055 001066    2130  	zero	T45,ST566	"fir
    002305  aa   000056 001070    2131  	zero	T46,ST568	"fv
    002306  aa   000057 001072    2132  	zero	T47,ST570	"fvr
    002307  aa   000060 001074    2133  	zero	T48,ST572	"ff
    002310  aa   000061 001076    2134  	zero	T49,ST574	"ffr
    002311  aa   000062 001100    2135  	zero	T50,ST576	"fln
    002312  aa   000063 001102    2136  	zero	T51,ST578	"sk
    002313  aa   000065 001106    2137  	zero	T53,ST582	"Kl
    002314  aa   000066 001112    2138  	zero	T54,ST586	"Kb
    002315  aa   000067 001116    2139  	zero	T55,ST590	"if
    002316  aa   000071 001120    2140  	zero	T57,ST592	"ag
    002317  aa   000072 001124    2141  	zero	T58,ST596	"cs
    002320  aa   000074 001130    2142  	zero	T60,ST600	"pn
    002321  aa   000075 001134    2143  	zero	T61,ST604	"p[
    002322  aa   000076 001135    2144  	zero	T62,ST605	"fmx
    002323  aa   000077 001141    2145  	zero	T63,ST609	"fmn
    002324  aa   000100 001145    2146  	zero	T64,ST613	"frs
    002325  aa   000101 001533    2147  	zero	T65,ST859	"||
    002326  aa   000102 001534    2148  	zero	T66,ST860	"<var>
    002327  aa   000104 001251    2149  	zero	T68,ST681	"mct
    002330  aa   000105 001253    2150  	zero	T69,ST683	"emt
    002331  aa   000106 001255    2151  	zero	T70,ST685	"emc
    002332  aa   000107 001257    2152  	zero	T71,ST687	"<u+>
    002333  aa   000110 001333    2153  	zero	T72,ST731	"<u->
                        000057    2154  	equ	LN1045,*-DPDA-ST1045-1
                                  2155  "
                                  2156  " STATE 1093
                        002105    2157  	equ	ST1093,*-DPDA
    002334  aa   000000 000057    2158  	zero	STRD,LN1093
    002335  aa   000001 000601    2159  	zero	T1,ST385	"<integer>
    002336  aa   000002 001454    2160  	zero	T2,ST812	"<string>
    002337  aa   000003 003514    2161  	zero	T3,ST1868	"]
    002340  aa   000007 000711    2162  	zero	T7,ST457	"(
    002341  aa   000027 001521    2163  	zero	T23,ST849	"a[
    002342  aa   000030 001522    2164  	zero	T24,ST850	"k[
    002343  aa   000031 001523    2165  	zero	T25,ST851	"K[
    002344  aa   000032 000772    2166  	zero	T26,ST506	"Ks
    002345  aa   000033 000776    2167  	zero	T27,ST510	"be
    002346  aa   000034 001002    2168  	zero	T28,ST514	"bn
    002347  aa   000035 001006    2169  	zero	T29,ST518	"fl
    002350  aa   000036 001010    2170  	zero	T30,ST520	"fs
    002351  aa   000037 001012    2171  	zero	T31,ST522	"lb
    002352  aa   000040 001016    2172  	zero	T32,ST526	"le
    002353  aa   000041 001022    2173  	zero	T33,ST530	"sb
    002354  aa   000042 001026    2174  	zero	T34,ST534	"se
    002355  aa   000046 001040    2175  	zero	T38,ST544	"dn
    002356  aa   000047 001044    2176  	zero	T39,ST548	"en
    002357  aa   000050 001050    2177  	zero	T40,ST552	"sn
    002360  aa   000051 001054    2178  	zero	T41,ST556	"fak
    002361  aa   000052 001056    2179  	zero	T42,ST558	"fka
    002362  aa   000053 001060    2180  	zero	T43,ST560	"em
    002363  aa   000054 001064    2181  	zero	T44,ST564	"fi
    002364  aa   000055 001066    2182  	zero	T45,ST566	"fir
    002365  aa   000056 001070    2183  	zero	T46,ST568	"fv
    002366  aa   000057 001072    2184  	zero	T47,ST570	"fvr
    002367  aa   000060 001074    2185  	zero	T48,ST572	"ff
    002370  aa   000061 001076    2186  	zero	T49,ST574	"ffr
    002371  aa   000062 001100    2187  	zero	T50,ST576	"fln
    002372  aa   000063 001102    2188  	zero	T51,ST578	"sk
    002373  aa   000065 001106    2189  	zero	T53,ST582	"Kl
    002374  aa   000066 001112    2190  	zero	T54,ST586	"Kb
    002375  aa   000067 001116    2191  	zero	T55,ST590	"if
    002376  aa   000071 001120    2192  	zero	T57,ST592	"ag
    002377  aa   000072 001124    2193  	zero	T58,ST596	"cs
    002400  aa   000074 001130    2194  	zero	T60,ST600	"pn
    002401  aa   000075 001134    2195  	zero	T61,ST604	"p[
    002402  aa   000076 001135    2196  	zero	T62,ST605	"fmx
    002403  aa   000077 001141    2197  	zero	T63,ST609	"fmn
    002404  aa   000100 001145    2198  	zero	T64,ST613	"frs
    002405  aa   000101 001533    2199  	zero	T65,ST859	"||
    002406  aa   000102 001534    2200  	zero	T66,ST860	"<var>
    002407  aa   000104 001251    2201  	zero	T68,ST681	"mct
    002410  aa   000105 001253    2202  	zero	T69,ST683	"emt
    002411  aa   000106 001255    2203  	zero	T70,ST685	"emc
    002412  aa   000107 001257    2204  	zero	T71,ST687	"<u+>
    002413  aa   000110 001333    2205  	zero	T72,ST731	"<u->
                        000057    2206  	equ	LN1093,*-DPDA-ST1093-1
                                  2207  "
                                  2208  " STATE 1141
                        002165    2209  	equ	ST1141,*-DPDA
    002414  aa   000000 000057    2210  	zero	STRD,LN1141
    002415  aa   000001 000601    2211  	zero	T1,ST385	"<integer>
    002416  aa   000002 001454    2212  	zero	T2,ST812	"<string>
    002417  aa   000003 003614    2213  	zero	T3,ST1932	"]
    002420  aa   000007 000711    2214  	zero	T7,ST457	"(
    002421  aa   000027 001521    2215  	zero	T23,ST849	"a[
    002422  aa   000030 001522    2216  	zero	T24,ST850	"k[
    002423  aa   000031 001523    2217  	zero	T25,ST851	"K[
    002424  aa   000032 000772    2218  	zero	T26,ST506	"Ks
    002425  aa   000033 000776    2219  	zero	T27,ST510	"be
    002426  aa   000034 001002    2220  	zero	T28,ST514	"bn
    002427  aa   000035 001006    2221  	zero	T29,ST518	"fl
    002430  aa   000036 001010    2222  	zero	T30,ST520	"fs
    002431  aa   000037 001012    2223  	zero	T31,ST522	"lb
    002432  aa   000040 001016    2224  	zero	T32,ST526	"le
    002433  aa   000041 001022    2225  	zero	T33,ST530	"sb
    002434  aa   000042 001026    2226  	zero	T34,ST534	"se
    002435  aa   000046 001040    2227  	zero	T38,ST544	"dn
    002436  aa   000047 001044    2228  	zero	T39,ST548	"en
    002437  aa   000050 001050    2229  	zero	T40,ST552	"sn
    002440  aa   000051 001054    2230  	zero	T41,ST556	"fak
    002441  aa   000052 001056    2231  	zero	T42,ST558	"fka
    002442  aa   000053 001060    2232  	zero	T43,ST560	"em
    002443  aa   000054 001064    2233  	zero	T44,ST564	"fi
    002444  aa   000055 001066    2234  	zero	T45,ST566	"fir
    002445  aa   000056 001070    2235  	zero	T46,ST568	"fv
    002446  aa   000057 001072    2236  	zero	T47,ST570	"fvr
    002447  aa   000060 001074    2237  	zero	T48,ST572	"ff
    002450  aa   000061 001076    2238  	zero	T49,ST574	"ffr
    002451  aa   000062 001100    2239  	zero	T50,ST576	"fln
    002452  aa   000063 001102    2240  	zero	T51,ST578	"sk
    002453  aa   000065 001106    2241  	zero	T53,ST582	"Kl
    002454  aa   000066 001112    2242  	zero	T54,ST586	"Kb
    002455  aa   000067 001116    2243  	zero	T55,ST590	"if
    002456  aa   000071 001120    2244  	zero	T57,ST592	"ag
    002457  aa   000072 001124    2245  	zero	T58,ST596	"cs
    002460  aa   000074 001130    2246  	zero	T60,ST600	"pn
    002461  aa   000075 001134    2247  	zero	T61,ST604	"p[
    002462  aa   000076 001135    2248  	zero	T62,ST605	"fmx
    002463  aa   000077 001141    2249  	zero	T63,ST609	"fmn
    002464  aa   000100 001145    2250  	zero	T64,ST613	"frs
    002465  aa   000101 001533    2251  	zero	T65,ST859	"||
    002466  aa   000102 001534    2252  	zero	T66,ST860	"<var>
    002467  aa   000104 001251    2253  	zero	T68,ST681	"mct
    002470  aa   000105 001253    2254  	zero	T69,ST683	"emt
    002471  aa   000106 001255    2255  	zero	T70,ST685	"emc
    002472  aa   000107 001257    2256  	zero	T71,ST687	"<u+>
    002473  aa   000110 001333    2257  	zero	T72,ST731	"<u->
                        000057    2258  	equ	LN1141,*-DPDA-ST1141-1
                                  2259  "
                                  2260  " STATE 1189
                        002245    2261  	equ	ST1189,*-DPDA
    002474  aa   000002 000426    2262  	zero	STRDS,ST278
                                  2263
                                  2264  "
                                  2265  " STATE 1190
                        002246    2266  	equ	ST1190,*-DPDA
    002475  aa   000002 000426    2267  	zero	STRDS,ST278
                                  2268
                                  2269  "
                                  2270  " STATE 1191
                        002247    2271  	equ	ST1191,*-DPDA
    002476  aa   000006 000003    2272  	zero	APLYS,LN1191
    002477  aa   000001 000001    2273  	zero	1,1   pd ld
    002500  aa   000015 000001    2274  	zero	13,1   rule/alt
    002501  aa   000004 001344    2275  	zero	4,ST740 prod/val
                        000003    2276  	equ	LN1191,*-DPDA-ST1191-1
                                  2277  "
                                  2278  " STATE 1195
                        002253    2279  	equ	ST1195,*-DPDA
    002502  aa   000006 000003    2280  	zero	APLYS,LN1195
    002503  aa   000001 000001    2281  	zero	1,1   pd ld
    002504  aa   000016 000001    2282  	zero	14,1   rule/alt
    002505  aa   000004 001344    2283  	zero	4,ST740 prod/val
                        000003    2284  	equ	LN1195,*-DPDA-ST1195-1
                                  2285  "
                                  2286  " STATE 1199
                        002257    2287  	equ	ST1199,*-DPDA
    002506  aa   000006 000003    2288  	zero	APLYS,LN1199
    002507  aa   000001 000001    2289  	zero	1,1   pd ld
    002510  aa   000017 000001    2290  	zero	15,1   rule/alt
    002511  aa   000004 001344    2291  	zero	4,ST740 prod/val
                        000003    2292  	equ	LN1199,*-DPDA-ST1199-1
                                  2293  "
                                  2294  " STATE 1203
                        002263    2295  	equ	ST1203,*-DPDA
    002512  aa   000002 000426    2296  	zero	STRDS,ST278
                                  2297
                                  2298  "
                                  2299  " STATE 1204
                        002264    2300  	equ	ST1204,*-DPDA
    002513  aa   000002 000426    2301  	zero	STRDS,ST278
                                  2302
                                  2303  "
                                  2304  " STATE 1205
                        002265    2305  	equ	ST1205,*-DPDA
    002514  aa   000002 000426    2306  	zero	STRDS,ST278
                                  2307
                                  2308  "
                                  2309  " STATE 1206
                        002266    2310  	equ	ST1206,*-DPDA
    002515  aa   000002 000426    2311  	zero	STRDS,ST278
                                  2312
                                  2313  "
                                  2314  " STATE 1207
                        002267    2315  	equ	ST1207,*-DPDA
    002516  aa   000002 000426    2316  	zero	STRDS,ST278
                                  2317
                                  2318  "
                                  2319  " STATE 1208
                        002270    2320  	equ	ST1208,*-DPDA
    002517  aa   000002 000426    2321  	zero	STRDS,ST278
                                  2322
                                  2323  "
                                  2324  " STATE 1209
                        002271    2325  	equ	ST1209,*-DPDA
    002520  aa   000002 000426    2326  	zero	STRDS,ST278
                                  2327
                                  2328  "
                                  2329  " STATE 1210
                        002272    2330  	equ	ST1210,*-DPDA
    002521  aa   000002 000426    2331  	zero	STRDS,ST278
                                  2332
                                  2333  "
                                  2334  " STATE 1211
                        002273    2335  	equ	ST1211,*-DPDA
    002522  aa   000000 000003    2336  	zero	STRD,LN1211
    002523  aa   000033 004654    2337  	zero	T27,ST2476	"be
    002524  aa   000037 004656    2338  	zero	T31,ST2478	"lb
    002525  aa   000040 004660    2339  	zero	T32,ST2480	"le
                        000003    2340  	equ	LN1211,*-DPDA-ST1211-1
                                  2341  "
                                  2342  " STATE 1215
                        002277    2343  	equ	ST1215,*-DPDA
    002526  aa   000002 000426    2344  	zero	STRDS,ST278
                                  2345
                                  2346  "
                                  2347  " STATE 1216
                        002300    2348  	equ	ST1216,*-DPDA
    002527  aa   000000 000057    2349  	zero	STRD,LN1216
    002530  aa   000001 000601    2350  	zero	T1,ST385	"<integer>
    002531  aa   000002 001454    2351  	zero	T2,ST812	"<string>
    002532  aa   000003 004752    2352  	zero	T3,ST2538	"]
    002533  aa   000007 000711    2353  	zero	T7,ST457	"(
    002534  aa   000027 001521    2354  	zero	T23,ST849	"a[
    002535  aa   000030 001522    2355  	zero	T24,ST850	"k[
    002536  aa   000031 001523    2356  	zero	T25,ST851	"K[
    002537  aa   000032 000772    2357  	zero	T26,ST506	"Ks
    002540  aa   000033 000776    2358  	zero	T27,ST510	"be
    002541  aa   000034 001002    2359  	zero	T28,ST514	"bn
    002542  aa   000035 001006    2360  	zero	T29,ST518	"fl
    002543  aa   000036 001010    2361  	zero	T30,ST520	"fs
    002544  aa   000037 001012    2362  	zero	T31,ST522	"lb
    002545  aa   000040 001016    2363  	zero	T32,ST526	"le
    002546  aa   000041 001022    2364  	zero	T33,ST530	"sb
    002547  aa   000042 001026    2365  	zero	T34,ST534	"se
    002550  aa   000046 001040    2366  	zero	T38,ST544	"dn
    002551  aa   000047 001044    2367  	zero	T39,ST548	"en
    002552  aa   000050 001050    2368  	zero	T40,ST552	"sn
    002553  aa   000051 001054    2369  	zero	T41,ST556	"fak
    002554  aa   000052 001056    2370  	zero	T42,ST558	"fka
    002555  aa   000053 001060    2371  	zero	T43,ST560	"em
    002556  aa   000054 001064    2372  	zero	T44,ST564	"fi
    002557  aa   000055 001066    2373  	zero	T45,ST566	"fir
    002560  aa   000056 001070    2374  	zero	T46,ST568	"fv
    002561  aa   000057 001072    2375  	zero	T47,ST570	"fvr
    002562  aa   000060 001074    2376  	zero	T48,ST572	"ff
    002563  aa   000061 001076    2377  	zero	T49,ST574	"ffr
    002564  aa   000062 001100    2378  	zero	T50,ST576	"fln
    002565  aa   000063 001102    2379  	zero	T51,ST578	"sk
    002566  aa   000065 001106    2380  	zero	T53,ST582	"Kl
    002567  aa   000066 001112    2381  	zero	T54,ST586	"Kb
    002570  aa   000067 001116    2382  	zero	T55,ST590	"if
    002571  aa   000071 001120    2383  	zero	T57,ST592	"ag
    002572  aa   000072 001124    2384  	zero	T58,ST596	"cs
    002573  aa   000074 001130    2385  	zero	T60,ST600	"pn
    002574  aa   000075 001134    2386  	zero	T61,ST604	"p[
    002575  aa   000076 001135    2387  	zero	T62,ST605	"fmx
    002576  aa   000077 001141    2388  	zero	T63,ST609	"fmn
    002577  aa   000100 001145    2389  	zero	T64,ST613	"frs
    002600  aa   000101 001533    2390  	zero	T65,ST859	"||
    002601  aa   000102 001534    2391  	zero	T66,ST860	"<var>
    002602  aa   000104 001251    2392  	zero	T68,ST681	"mct
    002603  aa   000105 001253    2393  	zero	T69,ST683	"emt
    002604  aa   000106 001255    2394  	zero	T70,ST685	"emc
    002605  aa   000107 001257    2395  	zero	T71,ST687	"<u+>
    002606  aa   000110 001333    2396  	zero	T72,ST731	"<u->
                        000057    2397  	equ	LN1216,*-DPDA-ST1216-1
                                  2398  "
                                  2399  " STATE 1264
                        002360    2400  	equ	ST1264,*-DPDA
    002607  aa   000002 000426    2401  	zero	STRDS,ST278
                                  2402
                                  2403  "
                                  2404  " STATE 1265
                        002361    2405  	equ	ST1265,*-DPDA
    002610  aa   000005 000003    2406  	zero	APLY1,LN1265
    002611  aa   000001 000001    2407  	zero	1,1   pd ld
    002612  aa   000027 000001    2408  	zero	23,1   rule/alt
    002613  aa   000007 000504    2409  	zero	7,ST324 prod/val
                        000003    2410  	equ	LN1265,*-DPDA-ST1265-1
                                  2411  "
                                  2412  " STATE 1269
                        002365    2413  	equ	ST1269,*-DPDA
    002614  aa   000002 000426    2414  	zero	STRDS,ST278
                                  2415
                                  2416  "
                                  2417  " STATE 1270
                        002366    2418  	equ	ST1270,*-DPDA
    002615  aa   000000 000001    2419  	zero	STRD,LN1270
    002616  aa   000010 005116    2420  	zero	T8,ST2638	")
                        000001    2421  	equ	LN1270,*-DPDA-ST1270-1
                                  2422  "
                                  2423  " STATE 1272
                        002370    2424  	equ	ST1272,*-DPDA
    002617  aa   000000 000001    2425  	zero	STRD,LN1272
    002620  aa   000010 005122    2426  	zero	T8,ST2642	")
                        000001    2427  	equ	LN1272,*-DPDA-ST1272-1
                                  2428  "
                                  2429  " STATE 1274
                        002372    2430  	equ	ST1274,*-DPDA
    002621  aa   000000 000001    2431  	zero	STRD,LN1274
    002622  aa   000010 005126    2432  	zero	T8,ST2646	")
                        000001    2433  	equ	LN1274,*-DPDA-ST1274-1
                                  2434  "
                                  2435  " STATE 1276
                        002374    2436  	equ	ST1276,*-DPDA
    002623  aa   000006 000003    2437  	zero	APLYS,LN1276
    002624  aa   000001 000001    2438  	zero	1,1   pd ld
    002625  aa   000076 000001    2439  	zero	62,1   rule/alt
    002626  aa   000020 000107    2440  	zero	16,ST71 prod/val
                        000003    2441  	equ	LN1276,*-DPDA-ST1276-1
                                  2442  "
                                  2443  " STATE 1280
                        002400    2444  	equ	ST1280,*-DPDA
    002627  aa   000006 000003    2445  	zero	APLYS,LN1280
    002630  aa   000001 000001    2446  	zero	1,1   pd ld
    002631  aa   000077 000001    2447  	zero	63,1   rule/alt
    002632  aa   000020 000107    2448  	zero	16,ST71 prod/val
                        000003    2449  	equ	LN1280,*-DPDA-ST1280-1
                                  2450  "
                                  2451  " STATE 1284
                        002404    2452  	equ	ST1284,*-DPDA
    002633  aa   000000 000057    2453  	zero	STRD,LN1284
    002634  aa   000001 000601    2454  	zero	T1,ST385	"<integer>
    002635  aa   000002 001454    2455  	zero	T2,ST812	"<string>
    002636  aa   000007 000711    2456  	zero	T7,ST457	"(
    002637  aa   000010 005132    2457  	zero	T8,ST2650	")
    002640  aa   000027 001521    2458  	zero	T23,ST849	"a[
    002641  aa   000030 001522    2459  	zero	T24,ST850	"k[
    002642  aa   000031 001523    2460  	zero	T25,ST851	"K[
    002643  aa   000032 000772    2461  	zero	T26,ST506	"Ks
    002644  aa   000033 000776    2462  	zero	T27,ST510	"be
    002645  aa   000034 001002    2463  	zero	T28,ST514	"bn
    002646  aa   000035 001006    2464  	zero	T29,ST518	"fl
    002647  aa   000036 001010    2465  	zero	T30,ST520	"fs
    002650  aa   000037 001012    2466  	zero	T31,ST522	"lb
    002651  aa   000040 001016    2467  	zero	T32,ST526	"le
    002652  aa   000041 001022    2468  	zero	T33,ST530	"sb
    002653  aa   000042 001026    2469  	zero	T34,ST534	"se
    002654  aa   000046 001040    2470  	zero	T38,ST544	"dn
    002655  aa   000047 001044    2471  	zero	T39,ST548	"en
    002656  aa   000050 001050    2472  	zero	T40,ST552	"sn
    002657  aa   000051 001054    2473  	zero	T41,ST556	"fak
    002660  aa   000052 001056    2474  	zero	T42,ST558	"fka
    002661  aa   000053 001060    2475  	zero	T43,ST560	"em
    002662  aa   000054 001064    2476  	zero	T44,ST564	"fi
    002663  aa   000055 001066    2477  	zero	T45,ST566	"fir
    002664  aa   000056 001070    2478  	zero	T46,ST568	"fv
    002665  aa   000057 001072    2479  	zero	T47,ST570	"fvr
    002666  aa   000060 001074    2480  	zero	T48,ST572	"ff
    002667  aa   000061 001076    2481  	zero	T49,ST574	"ffr
    002670  aa   000062 001100    2482  	zero	T50,ST576	"fln
    002671  aa   000063 001102    2483  	zero	T51,ST578	"sk
    002672  aa   000065 001106    2484  	zero	T53,ST582	"Kl
    002673  aa   000066 001112    2485  	zero	T54,ST586	"Kb
    002674  aa   000067 001116    2486  	zero	T55,ST590	"if
    002675  aa   000071 001120    2487  	zero	T57,ST592	"ag
    002676  aa   000072 001124    2488  	zero	T58,ST596	"cs
    002677  aa   000074 001130    2489  	zero	T60,ST600	"pn
    002700  aa   000075 001134    2490  	zero	T61,ST604	"p[
    002701  aa   000076 001135    2491  	zero	T62,ST605	"fmx
    002702  aa   000077 001141    2492  	zero	T63,ST609	"fmn
    002703  aa   000100 001145    2493  	zero	T64,ST613	"frs
    002704  aa   000101 001533    2494  	zero	T65,ST859	"||
    002705  aa   000102 001534    2495  	zero	T66,ST860	"<var>
    002706  aa   000104 001251    2496  	zero	T68,ST681	"mct
    002707  aa   000105 001253    2497  	zero	T69,ST683	"emt
    002710  aa   000106 001255    2498  	zero	T70,ST685	"emc
    002711  aa   000107 001257    2499  	zero	T71,ST687	"<u+>
    002712  aa   000110 001333    2500  	zero	T72,ST731	"<u->
                        000057    2501  	equ	LN1284,*-DPDA-ST1284-1
                                  2502  "
                                  2503  " STATE 1332
                        002464    2504  	equ	ST1332,*-DPDA
    002713  aa   000000 000002    2505  	zero	STRD,LN1332
    002714  aa   000004 005136    2506  	zero	T4,ST2654	",
    002715  aa   000010 005137    2507  	zero	T8,ST2655	")
                        000002    2508  	equ	LN1332,*-DPDA-ST1332-1
                                  2509  "
                                  2510  " STATE 1335
                        002467    2511  	equ	ST1335,*-DPDA
    002716  aa   000011 000060    2512  	zero	NSRD,LN1335
    002717  aa   000001 767710    2513  	zero	T1,-ST4152	"<integer>
    002720  aa   000002 767710    2514  	zero	T2,-ST4152	"<string>
    002721  aa   000004 767707    2515  	zero	T4,-ST4153	",
    002722  aa   000007 767710    2516  	zero	T7,-ST4152	"(
    002723  aa   000010 767707    2517  	zero	T8,-ST4153	")
    002724  aa   000027 767710    2518  	zero	T23,-ST4152	"a[
    002725  aa   000030 767710    2519  	zero	T24,-ST4152	"k[
    002726  aa   000031 767710    2520  	zero	T25,-ST4152	"K[
    002727  aa   000032 767710    2521  	zero	T26,-ST4152	"Ks
    002730  aa   000033 767710    2522  	zero	T27,-ST4152	"be
    002731  aa   000034 767710    2523  	zero	T28,-ST4152	"bn
    002732  aa   000035 767710    2524  	zero	T29,-ST4152	"fl
    002733  aa   000036 767710    2525  	zero	T30,-ST4152	"fs
    002734  aa   000037 767710    2526  	zero	T31,-ST4152	"lb
    002735  aa   000040 767710    2527  	zero	T32,-ST4152	"le
    002736  aa   000041 767710    2528  	zero	T33,-ST4152	"sb
    002737  aa   000042 767710    2529  	zero	T34,-ST4152	"se
    002740  aa   000046 767710    2530  	zero	T38,-ST4152	"dn
    002741  aa   000047 767710    2531  	zero	T39,-ST4152	"en
    002742  aa   000050 767710    2532  	zero	T40,-ST4152	"sn
    002743  aa   000051 767710    2533  	zero	T41,-ST4152	"fak
    002744  aa   000052 767710    2534  	zero	T42,-ST4152	"fka
    002745  aa   000053 767710    2535  	zero	T43,-ST4152	"em
    002746  aa   000054 767710    2536  	zero	T44,-ST4152	"fi
    002747  aa   000055 767710    2537  	zero	T45,-ST4152	"fir
    002750  aa   000056 767710    2538  	zero	T46,-ST4152	"fv
    002751  aa   000057 767710    2539  	zero	T47,-ST4152	"fvr
    002752  aa   000060 767710    2540  	zero	T48,-ST4152	"ff
    002753  aa   000061 767710    2541  	zero	T49,-ST4152	"ffr
    002754  aa   000062 767710    2542  	zero	T50,-ST4152	"fln
    002755  aa   000063 767710    2543  	zero	T51,-ST4152	"sk
    002756  aa   000065 767710    2544  	zero	T53,-ST4152	"Kl
    002757  aa   000066 767710    2545  	zero	T54,-ST4152	"Kb
    002760  aa   000067 767710    2546  	zero	T55,-ST4152	"if
    002761  aa   000071 767710    2547  	zero	T57,-ST4152	"ag
    002762  aa   000072 767710    2548  	zero	T58,-ST4152	"cs
    002763  aa   000074 767710    2549  	zero	T60,-ST4152	"pn
    002764  aa   000075 767710    2550  	zero	T61,-ST4152	"p[
    002765  aa   000076 767710    2551  	zero	T62,-ST4152	"fmx
    002766  aa   000077 767710    2552  	zero	T63,-ST4152	"fmn
    002767  aa   000100 767710    2553  	zero	T64,-ST4152	"frs
    002770  aa   000101 767710    2554  	zero	T65,-ST4152	"||
    002771  aa   000102 767710    2555  	zero	T66,-ST4152	"<var>
    002772  aa   000104 767710    2556  	zero	T68,-ST4152	"mct
    002773  aa   000105 767710    2557  	zero	T69,-ST4152	"emt
    002774  aa   000106 767710    2558  	zero	T70,-ST4152	"emc
    002775  aa   000107 767710    2559  	zero	T71,-ST4152	"<u+>
    002776  aa   000110 767710    2560  	zero	T72,-ST4152	"<u->
                        000060    2561  	equ	LN1335,*-DPDA-ST1335-1
                                  2562  "
                                  2563  " STATE 1384
                        002550    2564  	equ	ST1384,*-DPDA
    002777  aa   000000 000002    2565  	zero	STRD,LN1384
    003000  aa   000004 005136    2566  	zero	T4,ST2654	",
    003001  aa   000010 005143    2567  	zero	T8,ST2659	")
                        000002    2568  	equ	LN1384,*-DPDA-ST1384-1
                                  2569  "
                                  2570  " STATE 1387
                        002553    2571  	equ	ST1387,*-DPDA
    003002  aa   000006 000003    2572  	zero	APLYS,LN1387
    003003  aa   000002 000002    2573  	zero	2,2   pd ld
    003004  aa   000071 000001    2574  	zero	57,1   rule/alt
    003005  aa   000017 000116    2575  	zero	15,ST78 prod/val
                        000003    2576  	equ	LN1387,*-DPDA-ST1387-1
                                  2577  "
                                  2578  " STATE 1391
                        002557    2579  	equ	ST1391,*-DPDA
    003006  aa   000006 000003    2580  	zero	APLYS,LN1391
    003007  aa   000002 000002    2581  	zero	2,2   pd ld
    003010  aa   000072 000001    2582  	zero	58,1   rule/alt
    003011  aa   000017 000116    2583  	zero	15,ST78 prod/val
                        000003    2584  	equ	LN1391,*-DPDA-ST1391-1
                                  2585  "
                                  2586  " STATE 1395
                        002563    2587  	equ	ST1395,*-DPDA
    003012  aa   000006 000003    2588  	zero	APLYS,LN1395
    003013  aa   000002 000002    2589  	zero	2,2   pd ld
    003014  aa   000073 000001    2590  	zero	59,1   rule/alt
    003015  aa   000017 000116    2591  	zero	15,ST78 prod/val
                        000003    2592  	equ	LN1395,*-DPDA-ST1395-1
                                  2593  "
                                  2594  " STATE 1399
                        002567    2595  	equ	ST1399,*-DPDA
    003016  aa   000011 000100    2596  	zero	NSRD,LN1399
    003017  aa   000001 767701    2597  	zero	T1,-ST4159	"<integer>
    003020  aa   000002 767701    2598  	zero	T2,-ST4159	"<string>
    003021  aa   000003 767701    2599  	zero	T3,-ST4159	"]
    003022  aa   000004 767701    2600  	zero	T4,-ST4159	",
    003023  aa   000006 767701    2601  	zero	T6,-ST4159	"}
    003024  aa   000007 767701    2602  	zero	T7,-ST4159	"(
    003025  aa   000010 767701    2603  	zero	T8,-ST4159	")
    003026  aa   000011 767701    2604  	zero	T9,-ST4159	":
    003027  aa   000012 767701    2605  	zero	T10,-ST4159	".
    003030  aa   000014 767702    2606  	zero	T12,-ST4158	"*
    003031  aa   000015 767702    2607  	zero	T13,-ST4158	"/
    003032  aa   000016 767702    2608  	zero	T14,-ST4158	"|
    003033  aa   000017 767701    2609  	zero	T15,-ST4159	"+
    003034  aa   000020 767701    2610  	zero	T16,-ST4159	"-
    003035  aa   000021 767701    2611  	zero	T17,-ST4159	"<
    003036  aa   000022 767701    2612  	zero	T18,-ST4159	">
    003037  aa   000023 767701    2613  	zero	T19,-ST4159	"=
    003040  aa   000024 767701    2614  	zero	T20,-ST4159	"<=
    003041  aa   000025 767701    2615  	zero	T21,-ST4159	">=
    003042  aa   000026 767701    2616  	zero	T22,-ST4159	"^=
    003043  aa   000027 767701    2617  	zero	T23,-ST4159	"a[
    003044  aa   000030 767701    2618  	zero	T24,-ST4159	"k[
    003045  aa   000031 767701    2619  	zero	T25,-ST4159	"K[
    003046  aa   000032 767701    2620  	zero	T26,-ST4159	"Ks
    003047  aa   000033 767701    2621  	zero	T27,-ST4159	"be
    003050  aa   000034 767701    2622  	zero	T28,-ST4159	"bn
    003051  aa   000035 767701    2623  	zero	T29,-ST4159	"fl
    003052  aa   000036 767701    2624  	zero	T30,-ST4159	"fs
    003053  aa   000037 767701    2625  	zero	T31,-ST4159	"lb
    003054  aa   000040 767701    2626  	zero	T32,-ST4159	"le
    003055  aa   000041 767701    2627  	zero	T33,-ST4159	"sb
    003056  aa   000042 767701    2628  	zero	T34,-ST4159	"se
    003057  aa   000046 767701    2629  	zero	T38,-ST4159	"dn
    003060  aa   000047 767701    2630  	zero	T39,-ST4159	"en
    003061  aa   000050 767701    2631  	zero	T40,-ST4159	"sn
    003062  aa   000051 767701    2632  	zero	T41,-ST4159	"fak
    003063  aa   000052 767701    2633  	zero	T42,-ST4159	"fka
    003064  aa   000053 767701    2634  	zero	T43,-ST4159	"em
    003065  aa   000054 767701    2635  	zero	T44,-ST4159	"fi
    003066  aa   000055 767701    2636  	zero	T45,-ST4159	"fir
    003067  aa   000056 767701    2637  	zero	T46,-ST4159	"fv
    003070  aa   000057 767701    2638  	zero	T47,-ST4159	"fvr
    003071  aa   000060 767701    2639  	zero	T48,-ST4159	"ff
    003072  aa   000061 767701    2640  	zero	T49,-ST4159	"ffr
    003073  aa   000062 767701    2641  	zero	T50,-ST4159	"fln
    003074  aa   000063 767701    2642  	zero	T51,-ST4159	"sk
    003075  aa   000064 767701    2643  	zero	T52,-ST4159	"J
    003076  aa   000065 767701    2644  	zero	T53,-ST4159	"Kl
    003077  aa   000066 767701    2645  	zero	T54,-ST4159	"Kb
    003100  aa   000067 767701    2646  	zero	T55,-ST4159	"if
    003101  aa   000071 767701    2647  	zero	T57,-ST4159	"ag
    003102  aa   000072 767701    2648  	zero	T58,-ST4159	"cs
    003103  aa   000074 767701    2649  	zero	T60,-ST4159	"pn
    003104  aa   000075 767701    2650  	zero	T61,-ST4159	"p[
    003105  aa   000076 767701    2651  	zero	T62,-ST4159	"fmx
    003106  aa   000077 767701    2652  	zero	T63,-ST4159	"fmn
    003107  aa   000100 767701    2653  	zero	T64,-ST4159	"frs
    003110  aa   000101 767701    2654  	zero	T65,-ST4159	"||
    003111  aa   000102 767701    2655  	zero	T66,-ST4159	"<var>
    003112  aa   000104 767701    2656  	zero	T68,-ST4159	"mct
    003113  aa   000105 767701    2657  	zero	T69,-ST4159	"emt
    003114  aa   000106 767701    2658  	zero	T70,-ST4159	"emc
    003115  aa   000107 767701    2659  	zero	T71,-ST4159	"<u+>
    003116  aa   000110 767701    2660  	zero	T72,-ST4159	"<u->
                        000100    2661  	equ	LN1399,*-DPDA-ST1399-1
                                  2662  "
                                  2663  " STATE 1464
                        002670    2664  	equ	ST1464,*-DPDA
    003117  aa   000011 000100    2665  	zero	NSRD,LN1464
    003120  aa   000001 767674    2666  	zero	T1,-ST4164	"<integer>
    003121  aa   000002 767674    2667  	zero	T2,-ST4164	"<string>
    003122  aa   000003 767674    2668  	zero	T3,-ST4164	"]
    003123  aa   000004 767674    2669  	zero	T4,-ST4164	",
    003124  aa   000006 767674    2670  	zero	T6,-ST4164	"}
    003125  aa   000007 767674    2671  	zero	T7,-ST4164	"(
    003126  aa   000010 767674    2672  	zero	T8,-ST4164	")
    003127  aa   000011 767674    2673  	zero	T9,-ST4164	":
    003130  aa   000012 767674    2674  	zero	T10,-ST4164	".
    003131  aa   000014 767675    2675  	zero	T12,-ST4163	"*
    003132  aa   000015 767675    2676  	zero	T13,-ST4163	"/
    003133  aa   000016 767675    2677  	zero	T14,-ST4163	"|
    003134  aa   000017 767674    2678  	zero	T15,-ST4164	"+
    003135  aa   000020 767674    2679  	zero	T16,-ST4164	"-
    003136  aa   000021 767674    2680  	zero	T17,-ST4164	"<
    003137  aa   000022 767674    2681  	zero	T18,-ST4164	">
    003140  aa   000023 767674    2682  	zero	T19,-ST4164	"=
    003141  aa   000024 767674    2683  	zero	T20,-ST4164	"<=
    003142  aa   000025 767674    2684  	zero	T21,-ST4164	">=
    003143  aa   000026 767674    2685  	zero	T22,-ST4164	"^=
    003144  aa   000027 767674    2686  	zero	T23,-ST4164	"a[
    003145  aa   000030 767674    2687  	zero	T24,-ST4164	"k[
    003146  aa   000031 767674    2688  	zero	T25,-ST4164	"K[
    003147  aa   000032 767674    2689  	zero	T26,-ST4164	"Ks
    003150  aa   000033 767674    2690  	zero	T27,-ST4164	"be
    003151  aa   000034 767674    2691  	zero	T28,-ST4164	"bn
    003152  aa   000035 767674    2692  	zero	T29,-ST4164	"fl
    003153  aa   000036 767674    2693  	zero	T30,-ST4164	"fs
    003154  aa   000037 767674    2694  	zero	T31,-ST4164	"lb
    003155  aa   000040 767674    2695  	zero	T32,-ST4164	"le
    003156  aa   000041 767674    2696  	zero	T33,-ST4164	"sb
    003157  aa   000042 767674    2697  	zero	T34,-ST4164	"se
    003160  aa   000046 767674    2698  	zero	T38,-ST4164	"dn
    003161  aa   000047 767674    2699  	zero	T39,-ST4164	"en
    003162  aa   000050 767674    2700  	zero	T40,-ST4164	"sn
    003163  aa   000051 767674    2701  	zero	T41,-ST4164	"fak
    003164  aa   000052 767674    2702  	zero	T42,-ST4164	"fka
    003165  aa   000053 767674    2703  	zero	T43,-ST4164	"em
    003166  aa   000054 767674    2704  	zero	T44,-ST4164	"fi
    003167  aa   000055 767674    2705  	zero	T45,-ST4164	"fir
    003170  aa   000056 767674    2706  	zero	T46,-ST4164	"fv
    003171  aa   000057 767674    2707  	zero	T47,-ST4164	"fvr
    003172  aa   000060 767674    2708  	zero	T48,-ST4164	"ff
    003173  aa   000061 767674    2709  	zero	T49,-ST4164	"ffr
    003174  aa   000062 767674    2710  	zero	T50,-ST4164	"fln
    003175  aa   000063 767674    2711  	zero	T51,-ST4164	"sk
    003176  aa   000064 767674    2712  	zero	T52,-ST4164	"J
    003177  aa   000065 767674    2713  	zero	T53,-ST4164	"Kl
    003200  aa   000066 767674    2714  	zero	T54,-ST4164	"Kb
    003201  aa   000067 767674    2715  	zero	T55,-ST4164	"if
    003202  aa   000071 767674    2716  	zero	T57,-ST4164	"ag
    003203  aa   000072 767674    2717  	zero	T58,-ST4164	"cs
    003204  aa   000074 767674    2718  	zero	T60,-ST4164	"pn
    003205  aa   000075 767674    2719  	zero	T61,-ST4164	"p[
    003206  aa   000076 767674    2720  	zero	T62,-ST4164	"fmx
    003207  aa   000077 767674    2721  	zero	T63,-ST4164	"fmn
    003210  aa   000100 767674    2722  	zero	T64,-ST4164	"frs
    003211  aa   000101 767674    2723  	zero	T65,-ST4164	"||
    003212  aa   000102 767674    2724  	zero	T66,-ST4164	"<var>
    003213  aa   000104 767674    2725  	zero	T68,-ST4164	"mct
    003214  aa   000105 767674    2726  	zero	T69,-ST4164	"emt
    003215  aa   000106 767674    2727  	zero	T70,-ST4164	"emc
    003216  aa   000107 767674    2728  	zero	T71,-ST4164	"<u+>
    003217  aa   000110 767674    2729  	zero	T72,-ST4164	"<u->
                        000100    2730  	equ	LN1464,*-DPDA-ST1464-1
                                  2731  "
                                  2732  " STATE 1529
                        002771    2733  	equ	ST1529,*-DPDA
    003220  aa   000011 000063    2734  	zero	NSRD,LN1529
    003221  aa   000001 767670    2735  	zero	T1,-ST4168	"<integer>
    003222  aa   000002 767670    2736  	zero	T2,-ST4168	"<string>
    003223  aa   000004 767667    2737  	zero	T4,-ST4169	",
    003224  aa   000006 767667    2738  	zero	T6,-ST4169	"}
    003225  aa   000007 767670    2739  	zero	T7,-ST4168	"(
    003226  aa   000010 767667    2740  	zero	T8,-ST4169	")
    003227  aa   000011 767667    2741  	zero	T9,-ST4169	":
    003230  aa   000012 767667    2742  	zero	T10,-ST4169	".
    003231  aa   000027 767670    2743  	zero	T23,-ST4168	"a[
    003232  aa   000030 767670    2744  	zero	T24,-ST4168	"k[
    003233  aa   000031 767670    2745  	zero	T25,-ST4168	"K[
    003234  aa   000032 767670    2746  	zero	T26,-ST4168	"Ks
    003235  aa   000033 767670    2747  	zero	T27,-ST4168	"be
    003236  aa   000034 767670    2748  	zero	T28,-ST4168	"bn
    003237  aa   000035 767670    2749  	zero	T29,-ST4168	"fl
    003240  aa   000036 767670    2750  	zero	T30,-ST4168	"fs
    003241  aa   000037 767670    2751  	zero	T31,-ST4168	"lb
    003242  aa   000040 767670    2752  	zero	T32,-ST4168	"le
    003243  aa   000041 767670    2753  	zero	T33,-ST4168	"sb
    003244  aa   000042 767670    2754  	zero	T34,-ST4168	"se
    003245  aa   000046 767670    2755  	zero	T38,-ST4168	"dn
    003246  aa   000047 767670    2756  	zero	T39,-ST4168	"en
    003247  aa   000050 767670    2757  	zero	T40,-ST4168	"sn
    003250  aa   000051 767670    2758  	zero	T41,-ST4168	"fak
    003251  aa   000052 767670    2759  	zero	T42,-ST4168	"fka
    003252  aa   000053 767670    2760  	zero	T43,-ST4168	"em
    003253  aa   000054 767670    2761  	zero	T44,-ST4168	"fi
    003254  aa   000055 767670    2762  	zero	T45,-ST4168	"fir
    003255  aa   000056 767670    2763  	zero	T46,-ST4168	"fv
    003256  aa   000057 767670    2764  	zero	T47,-ST4168	"fvr
    003257  aa   000060 767670    2765  	zero	T48,-ST4168	"ff
    003260  aa   000061 767670    2766  	zero	T49,-ST4168	"ffr
    003261  aa   000062 767670    2767  	zero	T50,-ST4168	"fln
    003262  aa   000063 767670    2768  	zero	T51,-ST4168	"sk
    003263  aa   000065 767670    2769  	zero	T53,-ST4168	"Kl
    003264  aa   000066 767670    2770  	zero	T54,-ST4168	"Kb
    003265  aa   000067 767670    2771  	zero	T55,-ST4168	"if
    003266  aa   000071 767670    2772  	zero	T57,-ST4168	"ag
    003267  aa   000072 767670    2773  	zero	T58,-ST4168	"cs
    003270  aa   000074 767670    2774  	zero	T60,-ST4168	"pn
    003271  aa   000075 767670    2775  	zero	T61,-ST4168	"p[
    003272  aa   000076 767670    2776  	zero	T62,-ST4168	"fmx
    003273  aa   000077 767670    2777  	zero	T63,-ST4168	"fmn
    003274  aa   000100 767670    2778  	zero	T64,-ST4168	"frs
    003275  aa   000101 767670    2779  	zero	T65,-ST4168	"||
    003276  aa   000102 767670    2780  	zero	T66,-ST4168	"<var>
    003277  aa   000104 767670    2781  	zero	T68,-ST4168	"mct
    003300  aa   000105 767670    2782  	zero	T69,-ST4168	"emt
    003301  aa   000106 767670    2783  	zero	T70,-ST4168	"emc
    003302  aa   000107 767670    2784  	zero	T71,-ST4168	"<u+>
    003303  aa   000110 767670    2785  	zero	T72,-ST4168	"<u->
                        000063    2786  	equ	LN1529,*-DPDA-ST1529-1
                                  2787  "
                                  2788  " STATE 1581
                        003055    2789  	equ	ST1581,*-DPDA
    003304  aa   000000 000057    2790  	zero	STRD,LN1581
    003305  aa   000001 000601    2791  	zero	T1,ST385	"<integer>
    003306  aa   000002 001454    2792  	zero	T2,ST812	"<string>
    003307  aa   000003 005147    2793  	zero	T3,ST2663	"]
    003310  aa   000007 000711    2794  	zero	T7,ST457	"(
    003311  aa   000027 001521    2795  	zero	T23,ST849	"a[
    003312  aa   000030 001522    2796  	zero	T24,ST850	"k[
    003313  aa   000031 001523    2797  	zero	T25,ST851	"K[
    003314  aa   000032 000772    2798  	zero	T26,ST506	"Ks
    003315  aa   000033 000776    2799  	zero	T27,ST510	"be
    003316  aa   000034 001002    2800  	zero	T28,ST514	"bn
    003317  aa   000035 001006    2801  	zero	T29,ST518	"fl
    003320  aa   000036 001010    2802  	zero	T30,ST520	"fs
    003321  aa   000037 001012    2803  	zero	T31,ST522	"lb
    003322  aa   000040 001016    2804  	zero	T32,ST526	"le
    003323  aa   000041 001022    2805  	zero	T33,ST530	"sb
    003324  aa   000042 001026    2806  	zero	T34,ST534	"se
    003325  aa   000046 001040    2807  	zero	T38,ST544	"dn
    003326  aa   000047 001044    2808  	zero	T39,ST548	"en
    003327  aa   000050 001050    2809  	zero	T40,ST552	"sn
    003330  aa   000051 001054    2810  	zero	T41,ST556	"fak
    003331  aa   000052 001056    2811  	zero	T42,ST558	"fka
    003332  aa   000053 001060    2812  	zero	T43,ST560	"em
    003333  aa   000054 001064    2813  	zero	T44,ST564	"fi
    003334  aa   000055 001066    2814  	zero	T45,ST566	"fir
    003335  aa   000056 001070    2815  	zero	T46,ST568	"fv
    003336  aa   000057 001072    2816  	zero	T47,ST570	"fvr
    003337  aa   000060 001074    2817  	zero	T48,ST572	"ff
    003340  aa   000061 001076    2818  	zero	T49,ST574	"ffr
    003341  aa   000062 001100    2819  	zero	T50,ST576	"fln
    003342  aa   000063 001102    2820  	zero	T51,ST578	"sk
    003343  aa   000065 001106    2821  	zero	T53,ST582	"Kl
    003344  aa   000066 001112    2822  	zero	T54,ST586	"Kb
    003345  aa   000067 001116    2823  	zero	T55,ST590	"if
    003346  aa   000071 001120    2824  	zero	T57,ST592	"ag
    003347  aa   000072 001124    2825  	zero	T58,ST596	"cs
    003350  aa   000074 001130    2826  	zero	T60,ST600	"pn
    003351  aa   000075 001134    2827  	zero	T61,ST604	"p[
    003352  aa   000076 001135    2828  	zero	T62,ST605	"fmx
    003353  aa   000077 001141    2829  	zero	T63,ST609	"fmn
    003354  aa   000100 001145    2830  	zero	T64,ST613	"frs
    003355  aa   000101 001533    2831  	zero	T65,ST859	"||
    003356  aa   000102 001534    2832  	zero	T66,ST860	"<var>
    003357  aa   000104 001251    2833  	zero	T68,ST681	"mct
    003360  aa   000105 001253    2834  	zero	T69,ST683	"emt
    003361  aa   000106 001255    2835  	zero	T70,ST685	"emc
    003362  aa   000107 001257    2836  	zero	T71,ST687	"<u+>
    003363  aa   000110 001333    2837  	zero	T72,ST731	"<u->
                        000057    2838  	equ	LN1581,*-DPDA-ST1581-1
                                  2839  "
                                  2840  " STATE 1629
                        003135    2841  	equ	ST1629,*-DPDA
    003364  aa   000000 000057    2842  	zero	STRD,LN1629
    003365  aa   000001 000601    2843  	zero	T1,ST385	"<integer>
    003366  aa   000002 001454    2844  	zero	T2,ST812	"<string>
    003367  aa   000003 005153    2845  	zero	T3,ST2667	"]
    003370  aa   000007 000711    2846  	zero	T7,ST457	"(
    003371  aa   000027 001521    2847  	zero	T23,ST849	"a[
    003372  aa   000030 001522    2848  	zero	T24,ST850	"k[
    003373  aa   000031 001523    2849  	zero	T25,ST851	"K[
    003374  aa   000032 000772    2850  	zero	T26,ST506	"Ks
    003375  aa   000033 000776    2851  	zero	T27,ST510	"be
    003376  aa   000034 001002    2852  	zero	T28,ST514	"bn
    003377  aa   000035 001006    2853  	zero	T29,ST518	"fl
    003400  aa   000036 001010    2854  	zero	T30,ST520	"fs
    003401  aa   000037 001012    2855  	zero	T31,ST522	"lb
    003402  aa   000040 001016    2856  	zero	T32,ST526	"le
    003403  aa   000041 001022    2857  	zero	T33,ST530	"sb
    003404  aa   000042 001026    2858  	zero	T34,ST534	"se
    003405  aa   000046 001040    2859  	zero	T38,ST544	"dn
    003406  aa   000047 001044    2860  	zero	T39,ST548	"en
    003407  aa   000050 001050    2861  	zero	T40,ST552	"sn
    003410  aa   000051 001054    2862  	zero	T41,ST556	"fak
    003411  aa   000052 001056    2863  	zero	T42,ST558	"fka
    003412  aa   000053 001060    2864  	zero	T43,ST560	"em
    003413  aa   000054 001064    2865  	zero	T44,ST564	"fi
    003414  aa   000055 001066    2866  	zero	T45,ST566	"fir
    003415  aa   000056 001070    2867  	zero	T46,ST568	"fv
    003416  aa   000057 001072    2868  	zero	T47,ST570	"fvr
    003417  aa   000060 001074    2869  	zero	T48,ST572	"ff
    003420  aa   000061 001076    2870  	zero	T49,ST574	"ffr
    003421  aa   000062 001100    2871  	zero	T50,ST576	"fln
    003422  aa   000063 001102    2872  	zero	T51,ST578	"sk
    003423  aa   000065 001106    2873  	zero	T53,ST582	"Kl
    003424  aa   000066 001112    2874  	zero	T54,ST586	"Kb
    003425  aa   000067 001116    2875  	zero	T55,ST590	"if
    003426  aa   000071 001120    2876  	zero	T57,ST592	"ag
    003427  aa   000072 001124    2877  	zero	T58,ST596	"cs
    003430  aa   000074 001130    2878  	zero	T60,ST600	"pn
    003431  aa   000075 001134    2879  	zero	T61,ST604	"p[
    003432  aa   000076 001135    2880  	zero	T62,ST605	"fmx
    003433  aa   000077 001141    2881  	zero	T63,ST609	"fmn
    003434  aa   000100 001145    2882  	zero	T64,ST613	"frs
    003435  aa   000101 001533    2883  	zero	T65,ST859	"||
    003436  aa   000102 001534    2884  	zero	T66,ST860	"<var>
    003437  aa   000104 001251    2885  	zero	T68,ST681	"mct
    003440  aa   000105 001253    2886  	zero	T69,ST683	"emt
    003441  aa   000106 001255    2887  	zero	T70,ST685	"emc
    003442  aa   000107 001257    2888  	zero	T71,ST687	"<u+>
    003443  aa   000110 001333    2889  	zero	T72,ST731	"<u->
                        000057    2890  	equ	LN1629,*-DPDA-ST1629-1
                                  2891  "
                                  2892  " STATE 1677
                        003215    2893  	equ	ST1677,*-DPDA
    003444  aa   000000 000057    2894  	zero	STRD,LN1677
    003445  aa   000001 000601    2895  	zero	T1,ST385	"<integer>
    003446  aa   000002 001454    2896  	zero	T2,ST812	"<string>
    003447  aa   000003 005157    2897  	zero	T3,ST2671	"]
    003450  aa   000007 000711    2898  	zero	T7,ST457	"(
    003451  aa   000027 001521    2899  	zero	T23,ST849	"a[
    003452  aa   000030 001522    2900  	zero	T24,ST850	"k[
    003453  aa   000031 001523    2901  	zero	T25,ST851	"K[
    003454  aa   000032 000772    2902  	zero	T26,ST506	"Ks
    003455  aa   000033 000776    2903  	zero	T27,ST510	"be
    003456  aa   000034 001002    2904  	zero	T28,ST514	"bn
    003457  aa   000035 001006    2905  	zero	T29,ST518	"fl
    003460  aa   000036 001010    2906  	zero	T30,ST520	"fs
    003461  aa   000037 001012    2907  	zero	T31,ST522	"lb
    003462  aa   000040 001016    2908  	zero	T32,ST526	"le
    003463  aa   000041 001022    2909  	zero	T33,ST530	"sb
    003464  aa   000042 001026    2910  	zero	T34,ST534	"se
    003465  aa   000046 001040    2911  	zero	T38,ST544	"dn
    003466  aa   000047 001044    2912  	zero	T39,ST548	"en
    003467  aa   000050 001050    2913  	zero	T40,ST552	"sn
    003470  aa   000051 001054    2914  	zero	T41,ST556	"fak
    003471  aa   000052 001056    2915  	zero	T42,ST558	"fka
    003472  aa   000053 001060    2916  	zero	T43,ST560	"em
    003473  aa   000054 001064    2917  	zero	T44,ST564	"fi
    003474  aa   000055 001066    2918  	zero	T45,ST566	"fir
    003475  aa   000056 001070    2919  	zero	T46,ST568	"fv
    003476  aa   000057 001072    2920  	zero	T47,ST570	"fvr
    003477  aa   000060 001074    2921  	zero	T48,ST572	"ff
    003500  aa   000061 001076    2922  	zero	T49,ST574	"ffr
    003501  aa   000062 001100    2923  	zero	T50,ST576	"fln
    003502  aa   000063 001102    2924  	zero	T51,ST578	"sk
    003503  aa   000065 001106    2925  	zero	T53,ST582	"Kl
    003504  aa   000066 001112    2926  	zero	T54,ST586	"Kb
    003505  aa   000067 001116    2927  	zero	T55,ST590	"if
    003506  aa   000071 001120    2928  	zero	T57,ST592	"ag
    003507  aa   000072 001124    2929  	zero	T58,ST596	"cs
    003510  aa   000074 001130    2930  	zero	T60,ST600	"pn
    003511  aa   000075 001134    2931  	zero	T61,ST604	"p[
    003512  aa   000076 001135    2932  	zero	T62,ST605	"fmx
    003513  aa   000077 001141    2933  	zero	T63,ST609	"fmn
    003514  aa   000100 001145    2934  	zero	T64,ST613	"frs
    003515  aa   000101 001533    2935  	zero	T65,ST859	"||
    003516  aa   000102 001534    2936  	zero	T66,ST860	"<var>
    003517  aa   000104 001251    2937  	zero	T68,ST681	"mct
    003520  aa   000105 001253    2938  	zero	T69,ST683	"emt
    003521  aa   000106 001255    2939  	zero	T70,ST685	"emc
    003522  aa   000107 001257    2940  	zero	T71,ST687	"<u+>
    003523  aa   000110 001333    2941  	zero	T72,ST731	"<u->
                        000057    2942  	equ	LN1677,*-DPDA-ST1677-1
                                  2943  "
                                  2944  " STATE 1725
                        003275    2945  	equ	ST1725,*-DPDA
    003524  aa   000002 000426    2946  	zero	STRDS,ST278
                                  2947
                                  2948  "
                                  2949  " STATE 1726
                        003276    2950  	equ	ST1726,*-DPDA
    003525  aa   000011 000075    2951  	zero	NSRD,LN1726
    003526  aa   000001 767660    2952  	zero	T1,-ST4176	"<integer>
    003527  aa   000002 767660    2953  	zero	T2,-ST4176	"<string>
    003530  aa   000003 767660    2954  	zero	T3,-ST4176	"]
    003531  aa   000004 767660    2955  	zero	T4,-ST4176	",
    003532  aa   000006 767660    2956  	zero	T6,-ST4176	"}
    003533  aa   000007 767660    2957  	zero	T7,-ST4176	"(
    003534  aa   000010 767660    2958  	zero	T8,-ST4176	")
    003535  aa   000011 767660    2959  	zero	T9,-ST4176	":
    003536  aa   000012 767660    2960  	zero	T10,-ST4176	".
    003537  aa   000017 767661    2961  	zero	T15,-ST4175	"+
    003540  aa   000020 767661    2962  	zero	T16,-ST4175	"-
    003541  aa   000021 767660    2963  	zero	T17,-ST4176	"<
    003542  aa   000022 767660    2964  	zero	T18,-ST4176	">
    003543  aa   000023 767660    2965  	zero	T19,-ST4176	"=
    003544  aa   000024 767660    2966  	zero	T20,-ST4176	"<=
    003545  aa   000025 767660    2967  	zero	T21,-ST4176	">=
    003546  aa   000026 767660    2968  	zero	T22,-ST4176	"^=
    003547  aa   000027 767660    2969  	zero	T23,-ST4176	"a[
    003550  aa   000030 767660    2970  	zero	T24,-ST4176	"k[
    003551  aa   000031 767660    2971  	zero	T25,-ST4176	"K[
    003552  aa   000032 767660    2972  	zero	T26,-ST4176	"Ks
    003553  aa   000033 767660    2973  	zero	T27,-ST4176	"be
    003554  aa   000034 767660    2974  	zero	T28,-ST4176	"bn
    003555  aa   000035 767660    2975  	zero	T29,-ST4176	"fl
    003556  aa   000036 767660    2976  	zero	T30,-ST4176	"fs
    003557  aa   000037 767660    2977  	zero	T31,-ST4176	"lb
    003560  aa   000040 767660    2978  	zero	T32,-ST4176	"le
    003561  aa   000041 767660    2979  	zero	T33,-ST4176	"sb
    003562  aa   000042 767660    2980  	zero	T34,-ST4176	"se
    003563  aa   000046 767660    2981  	zero	T38,-ST4176	"dn
    003564  aa   000047 767660    2982  	zero	T39,-ST4176	"en
    003565  aa   000050 767660    2983  	zero	T40,-ST4176	"sn
    003566  aa   000051 767660    2984  	zero	T41,-ST4176	"fak
    003567  aa   000052 767660    2985  	zero	T42,-ST4176	"fka
    003570  aa   000053 767660    2986  	zero	T43,-ST4176	"em
    003571  aa   000054 767660    2987  	zero	T44,-ST4176	"fi
    003572  aa   000055 767660    2988  	zero	T45,-ST4176	"fir
    003573  aa   000056 767660    2989  	zero	T46,-ST4176	"fv
    003574  aa   000057 767660    2990  	zero	T47,-ST4176	"fvr
    003575  aa   000060 767660    2991  	zero	T48,-ST4176	"ff
    003576  aa   000061 767660    2992  	zero	T49,-ST4176	"ffr
    003577  aa   000062 767660    2993  	zero	T50,-ST4176	"fln
    003600  aa   000063 767660    2994  	zero	T51,-ST4176	"sk
    003601  aa   000064 767660    2995  	zero	T52,-ST4176	"J
    003602  aa   000065 767660    2996  	zero	T53,-ST4176	"Kl
    003603  aa   000066 767660    2997  	zero	T54,-ST4176	"Kb
    003604  aa   000067 767660    2998  	zero	T55,-ST4176	"if
    003605  aa   000071 767660    2999  	zero	T57,-ST4176	"ag
    003606  aa   000072 767660    3000  	zero	T58,-ST4176	"cs
    003607  aa   000074 767660    3001  	zero	T60,-ST4176	"pn
    003610  aa   000075 767660    3002  	zero	T61,-ST4176	"p[
    003611  aa   000076 767660    3003  	zero	T62,-ST4176	"fmx
    003612  aa   000077 767660    3004  	zero	T63,-ST4176	"fmn
    003613  aa   000100 767660    3005  	zero	T64,-ST4176	"frs
    003614  aa   000101 767660    3006  	zero	T65,-ST4176	"||
    003615  aa   000102 767660    3007  	zero	T66,-ST4176	"<var>
    003616  aa   000104 767660    3008  	zero	T68,-ST4176	"mct
    003617  aa   000105 767660    3009  	zero	T69,-ST4176	"emt
    003620  aa   000106 767660    3010  	zero	T70,-ST4176	"emc
    003621  aa   000107 767660    3011  	zero	T71,-ST4176	"<u+>
    003622  aa   000110 767660    3012  	zero	T72,-ST4176	"<u->
                        000075    3013  	equ	LN1726,*-DPDA-ST1726-1
                                  3014  "
                                  3015  " STATE 1788
                        003374    3016  	equ	ST1788,*-DPDA
    003623  aa   000005 000003    3017  	zero	APLY1,LN1788
    003624  aa   000003 000003    3018  	zero	3,3   pd ld
    003625  aa   000003 000001    3019  	zero	3,1   rule/alt
    003626  aa   000002 000010    3020  	zero	2,ST8 prod/val
                        000003    3021  	equ	LN1788,*-DPDA-ST1788-1
                                  3022  "
                                  3023  " STATE 1792
                        003400    3024  	equ	ST1792,*-DPDA
    003627  aa   000006 000003    3025  	zero	APLYS,LN1792
    003630  aa   000002 000002    3026  	zero	2,2   pd ld
    003631  aa   000101 000002    3027  	zero	65,2   rule/alt
    003632  aa   000021 000420    3028  	zero	17,ST272 prod/val
                        000003    3029  	equ	LN1792,*-DPDA-ST1792-1
                                  3030  "
                                  3031  " STATE 1796
                        003404    3032  	equ	ST1796,*-DPDA
    003633  aa   000006 000003    3033  	zero	APLYS,LN1796
    003634  aa   000002 000002    3034  	zero	2,2   pd ld
    003635  aa   000101 000001    3035  	zero	65,1   rule/alt
    003636  aa   000021 000420    3036  	zero	17,ST272 prod/val
                        000003    3037  	equ	LN1796,*-DPDA-ST1796-1
                                  3038  "
                                  3039  " STATE 1800
                        003410    3040  	equ	ST1800,*-DPDA
    003637  aa   000006 000003    3041  	zero	APLYS,LN1800
    003640  aa   000002 000002    3042  	zero	2,2   pd ld
    003641  aa   000101 000003    3043  	zero	65,3   rule/alt
    003642  aa   000021 000420    3044  	zero	17,ST272 prod/val
                        000003    3045  	equ	LN1800,*-DPDA-ST1800-1
                                  3046  "
                                  3047  " STATE 1804
                        003414    3048  	equ	ST1804,*-DPDA
    003643  aa   000011 000077    3049  	zero	NSRD,LN1804
    003644  aa   000001 772631    3050  	zero	T1,-ST2663	"<integer>
    003645  aa   000002 772631    3051  	zero	T2,-ST2663	"<string>
    003646  aa   000006 772631    3052  	zero	T6,-ST2663	"}
    003647  aa   000007 772631    3053  	zero	T7,-ST2663	"(
    003650  aa   000010 772631    3054  	zero	T8,-ST2663	")
    003651  aa   000011 772631    3055  	zero	T9,-ST2663	":
    003652  aa   000012 772631    3056  	zero	T10,-ST2663	".
    003653  aa   000013 767654    3057  	zero	T11,-ST4180	":=
    003654  aa   000014 772631    3058  	zero	T12,-ST2663	"*
    003655  aa   000015 772631    3059  	zero	T13,-ST2663	"/
    003656  aa   000016 772631    3060  	zero	T14,-ST2663	"|
    003657  aa   000017 772631    3061  	zero	T15,-ST2663	"+
    003660  aa   000020 772631    3062  	zero	T16,-ST2663	"-
    003661  aa   000021 772631    3063  	zero	T17,-ST2663	"<
    003662  aa   000022 772631    3064  	zero	T18,-ST2663	">
    003663  aa   000023 772631    3065  	zero	T19,-ST2663	"=
    003664  aa   000024 772631    3066  	zero	T20,-ST2663	"<=
    003665  aa   000025 772631    3067  	zero	T21,-ST2663	">=
    003666  aa   000026 772631    3068  	zero	T22,-ST2663	"^=
    003667  aa   000027 772631    3069  	zero	T23,-ST2663	"a[
    003670  aa   000030 772631    3070  	zero	T24,-ST2663	"k[
    003671  aa   000031 772631    3071  	zero	T25,-ST2663	"K[
    003672  aa   000032 772631    3072  	zero	T26,-ST2663	"Ks
    003673  aa   000033 772631    3073  	zero	T27,-ST2663	"be
    003674  aa   000034 772631    3074  	zero	T28,-ST2663	"bn
    003675  aa   000035 772631    3075  	zero	T29,-ST2663	"fl
    003676  aa   000036 772631    3076  	zero	T30,-ST2663	"fs
    003677  aa   000037 772631    3077  	zero	T31,-ST2663	"lb
    003700  aa   000040 772631    3078  	zero	T32,-ST2663	"le
    003701  aa   000041 772631    3079  	zero	T33,-ST2663	"sb
    003702  aa   000042 772631    3080  	zero	T34,-ST2663	"se
    003703  aa   000046 772631    3081  	zero	T38,-ST2663	"dn
    003704  aa   000047 772631    3082  	zero	T39,-ST2663	"en
    003705  aa   000050 772631    3083  	zero	T40,-ST2663	"sn
    003706  aa   000051 772631    3084  	zero	T41,-ST2663	"fak
    003707  aa   000052 772631    3085  	zero	T42,-ST2663	"fka
    003710  aa   000053 772631    3086  	zero	T43,-ST2663	"em
    003711  aa   000054 772631    3087  	zero	T44,-ST2663	"fi
    003712  aa   000055 772631    3088  	zero	T45,-ST2663	"fir
    003713  aa   000056 772631    3089  	zero	T46,-ST2663	"fv
    003714  aa   000057 772631    3090  	zero	T47,-ST2663	"fvr
    003715  aa   000060 772631    3091  	zero	T48,-ST2663	"ff
    003716  aa   000061 772631    3092  	zero	T49,-ST2663	"ffr
    003717  aa   000062 772631    3093  	zero	T50,-ST2663	"fln
    003720  aa   000063 772631    3094  	zero	T51,-ST2663	"sk
    003721  aa   000064 772631    3095  	zero	T52,-ST2663	"J
    003722  aa   000065 772631    3096  	zero	T53,-ST2663	"Kl
    003723  aa   000066 772631    3097  	zero	T54,-ST2663	"Kb
    003724  aa   000067 772631    3098  	zero	T55,-ST2663	"if
    003725  aa   000071 772631    3099  	zero	T57,-ST2663	"ag
    003726  aa   000072 772631    3100  	zero	T58,-ST2663	"cs
    003727  aa   000074 772631    3101  	zero	T60,-ST2663	"pn
    003730  aa   000075 772631    3102  	zero	T61,-ST2663	"p[
    003731  aa   000076 772631    3103  	zero	T62,-ST2663	"fmx
    003732  aa   000077 772631    3104  	zero	T63,-ST2663	"fmn
    003733  aa   000100 772631    3105  	zero	T64,-ST2663	"frs
    003734  aa   000101 772631    3106  	zero	T65,-ST2663	"||
    003735  aa   000102 772631    3107  	zero	T66,-ST2663	"<var>
    003736  aa   000104 772631    3108  	zero	T68,-ST2663	"mct
    003737  aa   000105 772631    3109  	zero	T69,-ST2663	"emt
    003740  aa   000106 772631    3110  	zero	T70,-ST2663	"emc
    003741  aa   000107 772631    3111  	zero	T71,-ST2663	"<u+>
    003742  aa   000110 772631    3112  	zero	T72,-ST2663	"<u->
                        000077    3113  	equ	LN1804,*-DPDA-ST1804-1
                                  3114  "
                                  3115  " STATE 1868
                        003514    3116  	equ	ST1868,*-DPDA
    003743  aa   000011 000077    3117  	zero	NSRD,LN1868
    003744  aa   000001 772625    3118  	zero	T1,-ST2667	"<integer>
    003745  aa   000002 772625    3119  	zero	T2,-ST2667	"<string>
    003746  aa   000006 772625    3120  	zero	T6,-ST2667	"}
    003747  aa   000007 772625    3121  	zero	T7,-ST2667	"(
    003750  aa   000010 772625    3122  	zero	T8,-ST2667	")
    003751  aa   000011 772625    3123  	zero	T9,-ST2667	":
    003752  aa   000012 772625    3124  	zero	T10,-ST2667	".
    003753  aa   000013 767652    3125  	zero	T11,-ST4182	":=
    003754  aa   000014 772625    3126  	zero	T12,-ST2667	"*
    003755  aa   000015 772625    3127  	zero	T13,-ST2667	"/
    003756  aa   000016 772625    3128  	zero	T14,-ST2667	"|
    003757  aa   000017 772625    3129  	zero	T15,-ST2667	"+
    003760  aa   000020 772625    3130  	zero	T16,-ST2667	"-
    003761  aa   000021 772625    3131  	zero	T17,-ST2667	"<
    003762  aa   000022 772625    3132  	zero	T18,-ST2667	">
    003763  aa   000023 772625    3133  	zero	T19,-ST2667	"=
    003764  aa   000024 772625    3134  	zero	T20,-ST2667	"<=
    003765  aa   000025 772625    3135  	zero	T21,-ST2667	">=
    003766  aa   000026 772625    3136  	zero	T22,-ST2667	"^=
    003767  aa   000027 772625    3137  	zero	T23,-ST2667	"a[
    003770  aa   000030 772625    3138  	zero	T24,-ST2667	"k[
    003771  aa   000031 772625    3139  	zero	T25,-ST2667	"K[
    003772  aa   000032 772625    3140  	zero	T26,-ST2667	"Ks
    003773  aa   000033 772625    3141  	zero	T27,-ST2667	"be
    003774  aa   000034 772625    3142  	zero	T28,-ST2667	"bn
    003775  aa   000035 772625    3143  	zero	T29,-ST2667	"fl
    003776  aa   000036 772625    3144  	zero	T30,-ST2667	"fs
    003777  aa   000037 772625    3145  	zero	T31,-ST2667	"lb
    004000  aa   000040 772625    3146  	zero	T32,-ST2667	"le
    004001  aa   000041 772625    3147  	zero	T33,-ST2667	"sb
    004002  aa   000042 772625    3148  	zero	T34,-ST2667	"se
    004003  aa   000046 772625    3149  	zero	T38,-ST2667	"dn
    004004  aa   000047 772625    3150  	zero	T39,-ST2667	"en
    004005  aa   000050 772625    3151  	zero	T40,-ST2667	"sn
    004006  aa   000051 772625    3152  	zero	T41,-ST2667	"fak
    004007  aa   000052 772625    3153  	zero	T42,-ST2667	"fka
    004010  aa   000053 772625    3154  	zero	T43,-ST2667	"em
    004011  aa   000054 772625    3155  	zero	T44,-ST2667	"fi
    004012  aa   000055 772625    3156  	zero	T45,-ST2667	"fir
    004013  aa   000056 772625    3157  	zero	T46,-ST2667	"fv
    004014  aa   000057 772625    3158  	zero	T47,-ST2667	"fvr
    004015  aa   000060 772625    3159  	zero	T48,-ST2667	"ff
    004016  aa   000061 772625    3160  	zero	T49,-ST2667	"ffr
    004017  aa   000062 772625    3161  	zero	T50,-ST2667	"fln
    004020  aa   000063 772625    3162  	zero	T51,-ST2667	"sk
    004021  aa   000064 772625    3163  	zero	T52,-ST2667	"J
    004022  aa   000065 772625    3164  	zero	T53,-ST2667	"Kl
    004023  aa   000066 772625    3165  	zero	T54,-ST2667	"Kb
    004024  aa   000067 772625    3166  	zero	T55,-ST2667	"if
    004025  aa   000071 772625    3167  	zero	T57,-ST2667	"ag
    004026  aa   000072 772625    3168  	zero	T58,-ST2667	"cs
    004027  aa   000074 772625    3169  	zero	T60,-ST2667	"pn
    004030  aa   000075 772625    3170  	zero	T61,-ST2667	"p[
    004031  aa   000076 772625    3171  	zero	T62,-ST2667	"fmx
    004032  aa   000077 772625    3172  	zero	T63,-ST2667	"fmn
    004033  aa   000100 772625    3173  	zero	T64,-ST2667	"frs
    004034  aa   000101 772625    3174  	zero	T65,-ST2667	"||
    004035  aa   000102 772625    3175  	zero	T66,-ST2667	"<var>
    004036  aa   000104 772625    3176  	zero	T68,-ST2667	"mct
    004037  aa   000105 772625    3177  	zero	T69,-ST2667	"emt
    004040  aa   000106 772625    3178  	zero	T70,-ST2667	"emc
    004041  aa   000107 772625    3179  	zero	T71,-ST2667	"<u+>
    004042  aa   000110 772625    3180  	zero	T72,-ST2667	"<u->
                        000077    3181  	equ	LN1868,*-DPDA-ST1868-1
                                  3182  "
                                  3183  " STATE 1932
                        003614    3184  	equ	ST1932,*-DPDA
    004043  aa   000011 000077    3185  	zero	NSRD,LN1932
    004044  aa   000001 772621    3186  	zero	T1,-ST2671	"<integer>
    004045  aa   000002 772621    3187  	zero	T2,-ST2671	"<string>
    004046  aa   000006 772621    3188  	zero	T6,-ST2671	"}
    004047  aa   000007 772621    3189  	zero	T7,-ST2671	"(
    004050  aa   000010 772621    3190  	zero	T8,-ST2671	")
    004051  aa   000011 772621    3191  	zero	T9,-ST2671	":
    004052  aa   000012 772621    3192  	zero	T10,-ST2671	".
    004053  aa   000013 767650    3193  	zero	T11,-ST4184	":=
    004054  aa   000014 772621    3194  	zero	T12,-ST2671	"*
    004055  aa   000015 772621    3195  	zero	T13,-ST2671	"/
    004056  aa   000016 772621    3196  	zero	T14,-ST2671	"|
    004057  aa   000017 772621    3197  	zero	T15,-ST2671	"+
    004060  aa   000020 772621    3198  	zero	T16,-ST2671	"-
    004061  aa   000021 772621    3199  	zero	T17,-ST2671	"<
    004062  aa   000022 772621    3200  	zero	T18,-ST2671	">
    004063  aa   000023 772621    3201  	zero	T19,-ST2671	"=
    004064  aa   000024 772621    3202  	zero	T20,-ST2671	"<=
    004065  aa   000025 772621    3203  	zero	T21,-ST2671	">=
    004066  aa   000026 772621    3204  	zero	T22,-ST2671	"^=
    004067  aa   000027 772621    3205  	zero	T23,-ST2671	"a[
    004070  aa   000030 772621    3206  	zero	T24,-ST2671	"k[
    004071  aa   000031 772621    3207  	zero	T25,-ST2671	"K[
    004072  aa   000032 772621    3208  	zero	T26,-ST2671	"Ks
    004073  aa   000033 772621    3209  	zero	T27,-ST2671	"be
    004074  aa   000034 772621    3210  	zero	T28,-ST2671	"bn
    004075  aa   000035 772621    3211  	zero	T29,-ST2671	"fl
    004076  aa   000036 772621    3212  	zero	T30,-ST2671	"fs
    004077  aa   000037 772621    3213  	zero	T31,-ST2671	"lb
    004100  aa   000040 772621    3214  	zero	T32,-ST2671	"le
    004101  aa   000041 772621    3215  	zero	T33,-ST2671	"sb
    004102  aa   000042 772621    3216  	zero	T34,-ST2671	"se
    004103  aa   000046 772621    3217  	zero	T38,-ST2671	"dn
    004104  aa   000047 772621    3218  	zero	T39,-ST2671	"en
    004105  aa   000050 772621    3219  	zero	T40,-ST2671	"sn
    004106  aa   000051 772621    3220  	zero	T41,-ST2671	"fak
    004107  aa   000052 772621    3221  	zero	T42,-ST2671	"fka
    004110  aa   000053 772621    3222  	zero	T43,-ST2671	"em
    004111  aa   000054 772621    3223  	zero	T44,-ST2671	"fi
    004112  aa   000055 772621    3224  	zero	T45,-ST2671	"fir
    004113  aa   000056 772621    3225  	zero	T46,-ST2671	"fv
    004114  aa   000057 772621    3226  	zero	T47,-ST2671	"fvr
    004115  aa   000060 772621    3227  	zero	T48,-ST2671	"ff
    004116  aa   000061 772621    3228  	zero	T49,-ST2671	"ffr
    004117  aa   000062 772621    3229  	zero	T50,-ST2671	"fln
    004120  aa   000063 772621    3230  	zero	T51,-ST2671	"sk
    004121  aa   000064 772621    3231  	zero	T52,-ST2671	"J
    004122  aa   000065 772621    3232  	zero	T53,-ST2671	"Kl
    004123  aa   000066 772621    3233  	zero	T54,-ST2671	"Kb
    004124  aa   000067 772621    3234  	zero	T55,-ST2671	"if
    004125  aa   000071 772621    3235  	zero	T57,-ST2671	"ag
    004126  aa   000072 772621    3236  	zero	T58,-ST2671	"cs
    004127  aa   000074 772621    3237  	zero	T60,-ST2671	"pn
    004130  aa   000075 772621    3238  	zero	T61,-ST2671	"p[
    004131  aa   000076 772621    3239  	zero	T62,-ST2671	"fmx
    004132  aa   000077 772621    3240  	zero	T63,-ST2671	"fmn
    004133  aa   000100 772621    3241  	zero	T64,-ST2671	"frs
    004134  aa   000101 772621    3242  	zero	T65,-ST2671	"||
    004135  aa   000102 772621    3243  	zero	T66,-ST2671	"<var>
    004136  aa   000104 772621    3244  	zero	T68,-ST2671	"mct
    004137  aa   000105 772621    3245  	zero	T69,-ST2671	"emt
    004140  aa   000106 772621    3246  	zero	T70,-ST2671	"emc
    004141  aa   000107 772621    3247  	zero	T71,-ST2671	"<u+>
    004142  aa   000110 772621    3248  	zero	T72,-ST2671	"<u->
                        000077    3249  	equ	LN1932,*-DPDA-ST1932-1
                                  3250  "
                                  3251  " STATE 1996
                        003714    3252  	equ	ST1996,*-DPDA
    004143  aa   000000 000057    3253  	zero	STRD,LN1996
    004144  aa   000001 000601    3254  	zero	T1,ST385	"<integer>
    004145  aa   000002 001454    3255  	zero	T2,ST812	"<string>
    004146  aa   000007 000711    3256  	zero	T7,ST457	"(
    004147  aa   000010 005252    3257  	zero	T8,ST2730	")
    004150  aa   000027 001521    3258  	zero	T23,ST849	"a[
    004151  aa   000030 001522    3259  	zero	T24,ST850	"k[
    004152  aa   000031 001523    3260  	zero	T25,ST851	"K[
    004153  aa   000032 000772    3261  	zero	T26,ST506	"Ks
    004154  aa   000033 000776    3262  	zero	T27,ST510	"be
    004155  aa   000034 001002    3263  	zero	T28,ST514	"bn
    004156  aa   000035 001006    3264  	zero	T29,ST518	"fl
    004157  aa   000036 001010    3265  	zero	T30,ST520	"fs
    004160  aa   000037 001012    3266  	zero	T31,ST522	"lb
    004161  aa   000040 001016    3267  	zero	T32,ST526	"le
    004162  aa   000041 001022    3268  	zero	T33,ST530	"sb
    004163  aa   000042 001026    3269  	zero	T34,ST534	"se
    004164  aa   000046 001040    3270  	zero	T38,ST544	"dn
    004165  aa   000047 001044    3271  	zero	T39,ST548	"en
    004166  aa   000050 001050    3272  	zero	T40,ST552	"sn
    004167  aa   000051 001054    3273  	zero	T41,ST556	"fak
    004170  aa   000052 001056    3274  	zero	T42,ST558	"fka
    004171  aa   000053 001060    3275  	zero	T43,ST560	"em
    004172  aa   000054 001064    3276  	zero	T44,ST564	"fi
    004173  aa   000055 001066    3277  	zero	T45,ST566	"fir
    004174  aa   000056 001070    3278  	zero	T46,ST568	"fv
    004175  aa   000057 001072    3279  	zero	T47,ST570	"fvr
    004176  aa   000060 001074    3280  	zero	T48,ST572	"ff
    004177  aa   000061 001076    3281  	zero	T49,ST574	"ffr
    004200  aa   000062 001100    3282  	zero	T50,ST576	"fln
    004201  aa   000063 001102    3283  	zero	T51,ST578	"sk
    004202  aa   000065 001106    3284  	zero	T53,ST582	"Kl
    004203  aa   000066 001112    3285  	zero	T54,ST586	"Kb
    004204  aa   000067 001116    3286  	zero	T55,ST590	"if
    004205  aa   000071 001120    3287  	zero	T57,ST592	"ag
    004206  aa   000072 001124    3288  	zero	T58,ST596	"cs
    004207  aa   000074 001130    3289  	zero	T60,ST600	"pn
    004210  aa   000075 001134    3290  	zero	T61,ST604	"p[
    004211  aa   000076 001135    3291  	zero	T62,ST605	"fmx
    004212  aa   000077 001141    3292  	zero	T63,ST609	"fmn
    004213  aa   000100 001145    3293  	zero	T64,ST613	"frs
    004214  aa   000101 001533    3294  	zero	T65,ST859	"||
    004215  aa   000102 001534    3295  	zero	T66,ST860	"<var>
    004216  aa   000104 001251    3296  	zero	T68,ST681	"mct
    004217  aa   000105 001253    3297  	zero	T69,ST683	"emt
    004220  aa   000106 001255    3298  	zero	T70,ST685	"emc
    004221  aa   000107 001257    3299  	zero	T71,ST687	"<u+>
    004222  aa   000110 001333    3300  	zero	T72,ST731	"<u->
                        000057    3301  	equ	LN1996,*-DPDA-ST1996-1
                                  3302  "
                                  3303  " STATE 2044
                        003774    3304  	equ	ST2044,*-DPDA
    004223  aa   000000 000057    3305  	zero	STRD,LN2044
    004224  aa   000001 000601    3306  	zero	T1,ST385	"<integer>
    004225  aa   000002 001454    3307  	zero	T2,ST812	"<string>
    004226  aa   000004 005256    3308  	zero	T4,ST2734	",
    004227  aa   000007 000711    3309  	zero	T7,ST457	"(
    004230  aa   000027 001521    3310  	zero	T23,ST849	"a[
    004231  aa   000030 001522    3311  	zero	T24,ST850	"k[
    004232  aa   000031 001523    3312  	zero	T25,ST851	"K[
    004233  aa   000032 000772    3313  	zero	T26,ST506	"Ks
    004234  aa   000033 000776    3314  	zero	T27,ST510	"be
    004235  aa   000034 001002    3315  	zero	T28,ST514	"bn
    004236  aa   000035 001006    3316  	zero	T29,ST518	"fl
    004237  aa   000036 001010    3317  	zero	T30,ST520	"fs
    004240  aa   000037 001012    3318  	zero	T31,ST522	"lb
    004241  aa   000040 001016    3319  	zero	T32,ST526	"le
    004242  aa   000041 001022    3320  	zero	T33,ST530	"sb
    004243  aa   000042 001026    3321  	zero	T34,ST534	"se
    004244  aa   000046 001040    3322  	zero	T38,ST544	"dn
    004245  aa   000047 001044    3323  	zero	T39,ST548	"en
    004246  aa   000050 001050    3324  	zero	T40,ST552	"sn
    004247  aa   000051 001054    3325  	zero	T41,ST556	"fak
    004250  aa   000052 001056    3326  	zero	T42,ST558	"fka
    004251  aa   000053 001060    3327  	zero	T43,ST560	"em
    004252  aa   000054 001064    3328  	zero	T44,ST564	"fi
    004253  aa   000055 001066    3329  	zero	T45,ST566	"fir
    004254  aa   000056 001070    3330  	zero	T46,ST568	"fv
    004255  aa   000057 001072    3331  	zero	T47,ST570	"fvr
    004256  aa   000060 001074    3332  	zero	T48,ST572	"ff
    004257  aa   000061 001076    3333  	zero	T49,ST574	"ffr
    004260  aa   000062 001100    3334  	zero	T50,ST576	"fln
    004261  aa   000063 001102    3335  	zero	T51,ST578	"sk
    004262  aa   000065 001106    3336  	zero	T53,ST582	"Kl
    004263  aa   000066 001112    3337  	zero	T54,ST586	"Kb
    004264  aa   000067 001116    3338  	zero	T55,ST590	"if
    004265  aa   000071 001120    3339  	zero	T57,ST592	"ag
    004266  aa   000072 001124    3340  	zero	T58,ST596	"cs
    004267  aa   000074 001130    3341  	zero	T60,ST600	"pn
    004270  aa   000075 001134    3342  	zero	T61,ST604	"p[
    004271  aa   000076 001135    3343  	zero	T62,ST605	"fmx
    004272  aa   000077 001141    3344  	zero	T63,ST609	"fmn
    004273  aa   000100 001145    3345  	zero	T64,ST613	"frs
    004274  aa   000101 001533    3346  	zero	T65,ST859	"||
    004275  aa   000102 001534    3347  	zero	T66,ST860	"<var>
    004276  aa   000104 001251    3348  	zero	T68,ST681	"mct
    004277  aa   000105 001253    3349  	zero	T69,ST683	"emt
    004300  aa   000106 001255    3350  	zero	T70,ST685	"emc
    004301  aa   000107 001257    3351  	zero	T71,ST687	"<u+>
    004302  aa   000110 001333    3352  	zero	T72,ST731	"<u->
                        000057    3353  	equ	LN2044,*-DPDA-ST2044-1
                                  3354  "
                                  3355  " STATE 2092
                        004054    3356  	equ	ST2092,*-DPDA
    004303  aa   000000 000057    3357  	zero	STRD,LN2092
    004304  aa   000001 000601    3358  	zero	T1,ST385	"<integer>
    004305  aa   000002 001454    3359  	zero	T2,ST812	"<string>
    004306  aa   000004 005257    3360  	zero	T4,ST2735	",
    004307  aa   000007 000711    3361  	zero	T7,ST457	"(
    004310  aa   000027 001521    3362  	zero	T23,ST849	"a[
    004311  aa   000030 001522    3363  	zero	T24,ST850	"k[
    004312  aa   000031 001523    3364  	zero	T25,ST851	"K[
    004313  aa   000032 000772    3365  	zero	T26,ST506	"Ks
    004314  aa   000033 000776    3366  	zero	T27,ST510	"be
    004315  aa   000034 001002    3367  	zero	T28,ST514	"bn
    004316  aa   000035 001006    3368  	zero	T29,ST518	"fl
    004317  aa   000036 001010    3369  	zero	T30,ST520	"fs
    004320  aa   000037 001012    3370  	zero	T31,ST522	"lb
    004321  aa   000040 001016    3371  	zero	T32,ST526	"le
    004322  aa   000041 001022    3372  	zero	T33,ST530	"sb
    004323  aa   000042 001026    3373  	zero	T34,ST534	"se
    004324  aa   000046 001040    3374  	zero	T38,ST544	"dn
    004325  aa   000047 001044    3375  	zero	T39,ST548	"en
    004326  aa   000050 001050    3376  	zero	T40,ST552	"sn
    004327  aa   000051 001054    3377  	zero	T41,ST556	"fak
    004330  aa   000052 001056    3378  	zero	T42,ST558	"fka
    004331  aa   000053 001060    3379  	zero	T43,ST560	"em
    004332  aa   000054 001064    3380  	zero	T44,ST564	"fi
    004333  aa   000055 001066    3381  	zero	T45,ST566	"fir
    004334  aa   000056 001070    3382  	zero	T46,ST568	"fv
    004335  aa   000057 001072    3383  	zero	T47,ST570	"fvr
    004336  aa   000060 001074    3384  	zero	T48,ST572	"ff
    004337  aa   000061 001076    3385  	zero	T49,ST574	"ffr
    004340  aa   000062 001100    3386  	zero	T50,ST576	"fln
    004341  aa   000063 001102    3387  	zero	T51,ST578	"sk
    004342  aa   000065 001106    3388  	zero	T53,ST582	"Kl
    004343  aa   000066 001112    3389  	zero	T54,ST586	"Kb
    004344  aa   000067 001116    3390  	zero	T55,ST590	"if
    004345  aa   000071 001120    3391  	zero	T57,ST592	"ag
    004346  aa   000072 001124    3392  	zero	T58,ST596	"cs
    004347  aa   000074 001130    3393  	zero	T60,ST600	"pn
    004350  aa   000075 001134    3394  	zero	T61,ST604	"p[
    004351  aa   000076 001135    3395  	zero	T62,ST605	"fmx
    004352  aa   000077 001141    3396  	zero	T63,ST609	"fmn
    004353  aa   000100 001145    3397  	zero	T64,ST613	"frs
    004354  aa   000101 001533    3398  	zero	T65,ST859	"||
    004355  aa   000102 001534    3399  	zero	T66,ST860	"<var>
    004356  aa   000104 001251    3400  	zero	T68,ST681	"mct
    004357  aa   000105 001253    3401  	zero	T69,ST683	"emt
    004360  aa   000106 001255    3402  	zero	T70,ST685	"emc
    004361  aa   000107 001257    3403  	zero	T71,ST687	"<u+>
    004362  aa   000110 001333    3404  	zero	T72,ST731	"<u->
                        000057    3405  	equ	LN2092,*-DPDA-ST2092-1
                                  3406  "
                                  3407  " STATE 2140
                        004134    3408  	equ	ST2140,*-DPDA
    004363  aa   000000 000057    3409  	zero	STRD,LN2140
    004364  aa   000001 000601    3410  	zero	T1,ST385	"<integer>
    004365  aa   000002 001454    3411  	zero	T2,ST812	"<string>
    004366  aa   000007 000711    3412  	zero	T7,ST457	"(
    004367  aa   000010 005260    3413  	zero	T8,ST2736	")
    004370  aa   000027 001521    3414  	zero	T23,ST849	"a[
    004371  aa   000030 001522    3415  	zero	T24,ST850	"k[
    004372  aa   000031 001523    3416  	zero	T25,ST851	"K[
    004373  aa   000032 000772    3417  	zero	T26,ST506	"Ks
    004374  aa   000033 000776    3418  	zero	T27,ST510	"be
    004375  aa   000034 001002    3419  	zero	T28,ST514	"bn
    004376  aa   000035 001006    3420  	zero	T29,ST518	"fl
    004377  aa   000036 001010    3421  	zero	T30,ST520	"fs
    004400  aa   000037 001012    3422  	zero	T31,ST522	"lb
    004401  aa   000040 001016    3423  	zero	T32,ST526	"le
    004402  aa   000041 001022    3424  	zero	T33,ST530	"sb
    004403  aa   000042 001026    3425  	zero	T34,ST534	"se
    004404  aa   000046 001040    3426  	zero	T38,ST544	"dn
    004405  aa   000047 001044    3427  	zero	T39,ST548	"en
    004406  aa   000050 001050    3428  	zero	T40,ST552	"sn
    004407  aa   000051 001054    3429  	zero	T41,ST556	"fak
    004410  aa   000052 001056    3430  	zero	T42,ST558	"fka
    004411  aa   000053 001060    3431  	zero	T43,ST560	"em
    004412  aa   000054 001064    3432  	zero	T44,ST564	"fi
    004413  aa   000055 001066    3433  	zero	T45,ST566	"fir
    004414  aa   000056 001070    3434  	zero	T46,ST568	"fv
    004415  aa   000057 001072    3435  	zero	T47,ST570	"fvr
    004416  aa   000060 001074    3436  	zero	T48,ST572	"ff
    004417  aa   000061 001076    3437  	zero	T49,ST574	"ffr
    004420  aa   000062 001100    3438  	zero	T50,ST576	"fln
    004421  aa   000063 001102    3439  	zero	T51,ST578	"sk
    004422  aa   000065 001106    3440  	zero	T53,ST582	"Kl
    004423  aa   000066 001112    3441  	zero	T54,ST586	"Kb
    004424  aa   000067 001116    3442  	zero	T55,ST590	"if
    004425  aa   000071 001120    3443  	zero	T57,ST592	"ag
    004426  aa   000072 001124    3444  	zero	T58,ST596	"cs
    004427  aa   000074 001130    3445  	zero	T60,ST600	"pn
    004430  aa   000075 001134    3446  	zero	T61,ST604	"p[
    004431  aa   000076 001135    3447  	zero	T62,ST605	"fmx
    004432  aa   000077 001141    3448  	zero	T63,ST609	"fmn
    004433  aa   000100 001145    3449  	zero	T64,ST613	"frs
    004434  aa   000101 001533    3450  	zero	T65,ST859	"||
    004435  aa   000102 001534    3451  	zero	T66,ST860	"<var>
    004436  aa   000104 001251    3452  	zero	T68,ST681	"mct
    004437  aa   000105 001253    3453  	zero	T69,ST683	"emt
    004440  aa   000106 001255    3454  	zero	T70,ST685	"emc
    004441  aa   000107 001257    3455  	zero	T71,ST687	"<u+>
    004442  aa   000110 001333    3456  	zero	T72,ST731	"<u->
                        000057    3457  	equ	LN2140,*-DPDA-ST2140-1
                                  3458  "
                                  3459  " STATE 2188
                        004214    3460  	equ	ST2188,*-DPDA
    004443  aa   000000 000057    3461  	zero	STRD,LN2188
    004444  aa   000001 000601    3462  	zero	T1,ST385	"<integer>
    004445  aa   000002 001454    3463  	zero	T2,ST812	"<string>
    004446  aa   000004 005264    3464  	zero	T4,ST2740	",
    004447  aa   000007 000711    3465  	zero	T7,ST457	"(
    004450  aa   000027 001521    3466  	zero	T23,ST849	"a[
    004451  aa   000030 001522    3467  	zero	T24,ST850	"k[
    004452  aa   000031 001523    3468  	zero	T25,ST851	"K[
    004453  aa   000032 000772    3469  	zero	T26,ST506	"Ks
    004454  aa   000033 000776    3470  	zero	T27,ST510	"be
    004455  aa   000034 001002    3471  	zero	T28,ST514	"bn
    004456  aa   000035 001006    3472  	zero	T29,ST518	"fl
    004457  aa   000036 001010    3473  	zero	T30,ST520	"fs
    004460  aa   000037 001012    3474  	zero	T31,ST522	"lb
    004461  aa   000040 001016    3475  	zero	T32,ST526	"le
    004462  aa   000041 001022    3476  	zero	T33,ST530	"sb
    004463  aa   000042 001026    3477  	zero	T34,ST534	"se
    004464  aa   000046 001040    3478  	zero	T38,ST544	"dn
    004465  aa   000047 001044    3479  	zero	T39,ST548	"en
    004466  aa   000050 001050    3480  	zero	T40,ST552	"sn
    004467  aa   000051 001054    3481  	zero	T41,ST556	"fak
    004470  aa   000052 001056    3482  	zero	T42,ST558	"fka
    004471  aa   000053 001060    3483  	zero	T43,ST560	"em
    004472  aa   000054 001064    3484  	zero	T44,ST564	"fi
    004473  aa   000055 001066    3485  	zero	T45,ST566	"fir
    004474  aa   000056 001070    3486  	zero	T46,ST568	"fv
    004475  aa   000057 001072    3487  	zero	T47,ST570	"fvr
    004476  aa   000060 001074    3488  	zero	T48,ST572	"ff
    004477  aa   000061 001076    3489  	zero	T49,ST574	"ffr
    004500  aa   000062 001100    3490  	zero	T50,ST576	"fln
    004501  aa   000063 001102    3491  	zero	T51,ST578	"sk
    004502  aa   000065 001106    3492  	zero	T53,ST582	"Kl
    004503  aa   000066 001112    3493  	zero	T54,ST586	"Kb
    004504  aa   000067 001116    3494  	zero	T55,ST590	"if
    004505  aa   000071 001120    3495  	zero	T57,ST592	"ag
    004506  aa   000072 001124    3496  	zero	T58,ST596	"cs
    004507  aa   000074 001130    3497  	zero	T60,ST600	"pn
    004510  aa   000075 001134    3498  	zero	T61,ST604	"p[
    004511  aa   000076 001135    3499  	zero	T62,ST605	"fmx
    004512  aa   000077 001141    3500  	zero	T63,ST609	"fmn
    004513  aa   000100 001145    3501  	zero	T64,ST613	"frs
    004514  aa   000101 001533    3502  	zero	T65,ST859	"||
    004515  aa   000102 001534    3503  	zero	T66,ST860	"<var>
    004516  aa   000104 001251    3504  	zero	T68,ST681	"mct
    004517  aa   000105 001253    3505  	zero	T69,ST683	"emt
    004520  aa   000106 001255    3506  	zero	T70,ST685	"emc
    004521  aa   000107 001257    3507  	zero	T71,ST687	"<u+>
    004522  aa   000110 001333    3508  	zero	T72,ST731	"<u->
                        000057    3509  	equ	LN2188,*-DPDA-ST2188-1
                                  3510  "
                                  3511  " STATE 2236
                        004274    3512  	equ	ST2236,*-DPDA
    004523  aa   000000 000057    3513  	zero	STRD,LN2236
    004524  aa   000001 000601    3514  	zero	T1,ST385	"<integer>
    004525  aa   000002 001454    3515  	zero	T2,ST812	"<string>
    004526  aa   000004 005265    3516  	zero	T4,ST2741	",
    004527  aa   000007 000711    3517  	zero	T7,ST457	"(
    004530  aa   000027 001521    3518  	zero	T23,ST849	"a[
    004531  aa   000030 001522    3519  	zero	T24,ST850	"k[
    004532  aa   000031 001523    3520  	zero	T25,ST851	"K[
    004533  aa   000032 000772    3521  	zero	T26,ST506	"Ks
    004534  aa   000033 000776    3522  	zero	T27,ST510	"be
    004535  aa   000034 001002    3523  	zero	T28,ST514	"bn
    004536  aa   000035 001006    3524  	zero	T29,ST518	"fl
    004537  aa   000036 001010    3525  	zero	T30,ST520	"fs
    004540  aa   000037 001012    3526  	zero	T31,ST522	"lb
    004541  aa   000040 001016    3527  	zero	T32,ST526	"le
    004542  aa   000041 001022    3528  	zero	T33,ST530	"sb
    004543  aa   000042 001026    3529  	zero	T34,ST534	"se
    004544  aa   000046 001040    3530  	zero	T38,ST544	"dn
    004545  aa   000047 001044    3531  	zero	T39,ST548	"en
    004546  aa   000050 001050    3532  	zero	T40,ST552	"sn
    004547  aa   000051 001054    3533  	zero	T41,ST556	"fak
    004550  aa   000052 001056    3534  	zero	T42,ST558	"fka
    004551  aa   000053 001060    3535  	zero	T43,ST560	"em
    004552  aa   000054 001064    3536  	zero	T44,ST564	"fi
    004553  aa   000055 001066    3537  	zero	T45,ST566	"fir
    004554  aa   000056 001070    3538  	zero	T46,ST568	"fv
    004555  aa   000057 001072    3539  	zero	T47,ST570	"fvr
    004556  aa   000060 001074    3540  	zero	T48,ST572	"ff
    004557  aa   000061 001076    3541  	zero	T49,ST574	"ffr
    004560  aa   000062 001100    3542  	zero	T50,ST576	"fln
    004561  aa   000063 001102    3543  	zero	T51,ST578	"sk
    004562  aa   000065 001106    3544  	zero	T53,ST582	"Kl
    004563  aa   000066 001112    3545  	zero	T54,ST586	"Kb
    004564  aa   000067 001116    3546  	zero	T55,ST590	"if
    004565  aa   000071 001120    3547  	zero	T57,ST592	"ag
    004566  aa   000072 001124    3548  	zero	T58,ST596	"cs
    004567  aa   000074 001130    3549  	zero	T60,ST600	"pn
    004570  aa   000075 001134    3550  	zero	T61,ST604	"p[
    004571  aa   000076 001135    3551  	zero	T62,ST605	"fmx
    004572  aa   000077 001141    3552  	zero	T63,ST609	"fmn
    004573  aa   000100 001145    3553  	zero	T64,ST613	"frs
    004574  aa   000101 001533    3554  	zero	T65,ST859	"||
    004575  aa   000102 001534    3555  	zero	T66,ST860	"<var>
    004576  aa   000104 001251    3556  	zero	T68,ST681	"mct
    004577  aa   000105 001253    3557  	zero	T69,ST683	"emt
    004600  aa   000106 001255    3558  	zero	T70,ST685	"emc
    004601  aa   000107 001257    3559  	zero	T71,ST687	"<u+>
    004602  aa   000110 001333    3560  	zero	T72,ST731	"<u->
                        000057    3561  	equ	LN2236,*-DPDA-ST2236-1
                                  3562  "
                                  3563  " STATE 2284
                        004354    3564  	equ	ST2284,*-DPDA
    004603  aa   000000 000057    3565  	zero	STRD,LN2284
    004604  aa   000001 000601    3566  	zero	T1,ST385	"<integer>
    004605  aa   000002 001454    3567  	zero	T2,ST812	"<string>
    004606  aa   000004 005266    3568  	zero	T4,ST2742	",
    004607  aa   000007 000711    3569  	zero	T7,ST457	"(
    004610  aa   000027 001521    3570  	zero	T23,ST849	"a[
    004611  aa   000030 001522    3571  	zero	T24,ST850	"k[
    004612  aa   000031 001523    3572  	zero	T25,ST851	"K[
    004613  aa   000032 000772    3573  	zero	T26,ST506	"Ks
    004614  aa   000033 000776    3574  	zero	T27,ST510	"be
    004615  aa   000034 001002    3575  	zero	T28,ST514	"bn
    004616  aa   000035 001006    3576  	zero	T29,ST518	"fl
    004617  aa   000036 001010    3577  	zero	T30,ST520	"fs
    004620  aa   000037 001012    3578  	zero	T31,ST522	"lb
    004621  aa   000040 001016    3579  	zero	T32,ST526	"le
    004622  aa   000041 001022    3580  	zero	T33,ST530	"sb
    004623  aa   000042 001026    3581  	zero	T34,ST534	"se
    004624  aa   000046 001040    3582  	zero	T38,ST544	"dn
    004625  aa   000047 001044    3583  	zero	T39,ST548	"en
    004626  aa   000050 001050    3584  	zero	T40,ST552	"sn
    004627  aa   000051 001054    3585  	zero	T41,ST556	"fak
    004630  aa   000052 001056    3586  	zero	T42,ST558	"fka
    004631  aa   000053 001060    3587  	zero	T43,ST560	"em
    004632  aa   000054 001064    3588  	zero	T44,ST564	"fi
    004633  aa   000055 001066    3589  	zero	T45,ST566	"fir
    004634  aa   000056 001070    3590  	zero	T46,ST568	"fv
    004635  aa   000057 001072    3591  	zero	T47,ST570	"fvr
    004636  aa   000060 001074    3592  	zero	T48,ST572	"ff
    004637  aa   000061 001076    3593  	zero	T49,ST574	"ffr
    004640  aa   000062 001100    3594  	zero	T50,ST576	"fln
    004641  aa   000063 001102    3595  	zero	T51,ST578	"sk
    004642  aa   000065 001106    3596  	zero	T53,ST582	"Kl
    004643  aa   000066 001112    3597  	zero	T54,ST586	"Kb
    004644  aa   000067 001116    3598  	zero	T55,ST590	"if
    004645  aa   000071 001120    3599  	zero	T57,ST592	"ag
    004646  aa   000072 001124    3600  	zero	T58,ST596	"cs
    004647  aa   000074 001130    3601  	zero	T60,ST600	"pn
    004650  aa   000075 001134    3602  	zero	T61,ST604	"p[
    004651  aa   000076 001135    3603  	zero	T62,ST605	"fmx
    004652  aa   000077 001141    3604  	zero	T63,ST609	"fmn
    004653  aa   000100 001145    3605  	zero	T64,ST613	"frs
    004654  aa   000101 001533    3606  	zero	T65,ST859	"||
    004655  aa   000102 001534    3607  	zero	T66,ST860	"<var>
    004656  aa   000104 001251    3608  	zero	T68,ST681	"mct
    004657  aa   000105 001253    3609  	zero	T69,ST683	"emt
    004660  aa   000106 001255    3610  	zero	T70,ST685	"emc
    004661  aa   000107 001257    3611  	zero	T71,ST687	"<u+>
    004662  aa   000110 001333    3612  	zero	T72,ST731	"<u->
                        000057    3613  	equ	LN2284,*-DPDA-ST2284-1
                                  3614  "
                                  3615  " STATE 2332
                        004434    3616  	equ	ST2332,*-DPDA
    004663  aa   000000 000057    3617  	zero	STRD,LN2332
    004664  aa   000001 000601    3618  	zero	T1,ST385	"<integer>
    004665  aa   000002 001454    3619  	zero	T2,ST812	"<string>
    004666  aa   000004 005345    3620  	zero	T4,ST2789	",
    004667  aa   000007 000711    3621  	zero	T7,ST457	"(
    004670  aa   000027 001521    3622  	zero	T23,ST849	"a[
    004671  aa   000030 001522    3623  	zero	T24,ST850	"k[
    004672  aa   000031 001523    3624  	zero	T25,ST851	"K[
    004673  aa   000032 000772    3625  	zero	T26,ST506	"Ks
    004674  aa   000033 000776    3626  	zero	T27,ST510	"be
    004675  aa   000034 001002    3627  	zero	T28,ST514	"bn
    004676  aa   000035 001006    3628  	zero	T29,ST518	"fl
    004677  aa   000036 001010    3629  	zero	T30,ST520	"fs
    004700  aa   000037 001012    3630  	zero	T31,ST522	"lb
    004701  aa   000040 001016    3631  	zero	T32,ST526	"le
    004702  aa   000041 001022    3632  	zero	T33,ST530	"sb
    004703  aa   000042 001026    3633  	zero	T34,ST534	"se
    004704  aa   000046 001040    3634  	zero	T38,ST544	"dn
    004705  aa   000047 001044    3635  	zero	T39,ST548	"en
    004706  aa   000050 001050    3636  	zero	T40,ST552	"sn
    004707  aa   000051 001054    3637  	zero	T41,ST556	"fak
    004710  aa   000052 001056    3638  	zero	T42,ST558	"fka
    004711  aa   000053 001060    3639  	zero	T43,ST560	"em
    004712  aa   000054 001064    3640  	zero	T44,ST564	"fi
    004713  aa   000055 001066    3641  	zero	T45,ST566	"fir
    004714  aa   000056 001070    3642  	zero	T46,ST568	"fv
    004715  aa   000057 001072    3643  	zero	T47,ST570	"fvr
    004716  aa   000060 001074    3644  	zero	T48,ST572	"ff
    004717  aa   000061 001076    3645  	zero	T49,ST574	"ffr
    004720  aa   000062 001100    3646  	zero	T50,ST576	"fln
    004721  aa   000063 001102    3647  	zero	T51,ST578	"sk
    004722  aa   000065 001106    3648  	zero	T53,ST582	"Kl
    004723  aa   000066 001112    3649  	zero	T54,ST586	"Kb
    004724  aa   000067 001116    3650  	zero	T55,ST590	"if
    004725  aa   000071 001120    3651  	zero	T57,ST592	"ag
    004726  aa   000072 001124    3652  	zero	T58,ST596	"cs
    004727  aa   000074 001130    3653  	zero	T60,ST600	"pn
    004730  aa   000075 001134    3654  	zero	T61,ST604	"p[
    004731  aa   000076 001135    3655  	zero	T62,ST605	"fmx
    004732  aa   000077 001141    3656  	zero	T63,ST609	"fmn
    004733  aa   000100 001145    3657  	zero	T64,ST613	"frs
    004734  aa   000101 001533    3658  	zero	T65,ST859	"||
    004735  aa   000102 001534    3659  	zero	T66,ST860	"<var>
    004736  aa   000104 001251    3660  	zero	T68,ST681	"mct
    004737  aa   000105 001253    3661  	zero	T69,ST683	"emt
    004740  aa   000106 001255    3662  	zero	T70,ST685	"emc
    004741  aa   000107 001257    3663  	zero	T71,ST687	"<u+>
    004742  aa   000110 001333    3664  	zero	T72,ST731	"<u->
                        000057    3665  	equ	LN2332,*-DPDA-ST2332-1
                                  3666  "
                                  3667  " STATE 2380
                        004514    3668  	equ	ST2380,*-DPDA
    004743  aa   000000 000057    3669  	zero	STRD,LN2380
    004744  aa   000001 000601    3670  	zero	T1,ST385	"<integer>
    004745  aa   000002 001454    3671  	zero	T2,ST812	"<string>
    004746  aa   000004 005424    3672  	zero	T4,ST2836	",
    004747  aa   000007 000711    3673  	zero	T7,ST457	"(
    004750  aa   000027 001521    3674  	zero	T23,ST849	"a[
    004751  aa   000030 001522    3675  	zero	T24,ST850	"k[
    004752  aa   000031 001523    3676  	zero	T25,ST851	"K[
    004753  aa   000032 000772    3677  	zero	T26,ST506	"Ks
    004754  aa   000033 000776    3678  	zero	T27,ST510	"be
    004755  aa   000034 001002    3679  	zero	T28,ST514	"bn
    004756  aa   000035 001006    3680  	zero	T29,ST518	"fl
    004757  aa   000036 001010    3681  	zero	T30,ST520	"fs
    004760  aa   000037 001012    3682  	zero	T31,ST522	"lb
    004761  aa   000040 001016    3683  	zero	T32,ST526	"le
    004762  aa   000041 001022    3684  	zero	T33,ST530	"sb
    004763  aa   000042 001026    3685  	zero	T34,ST534	"se
    004764  aa   000046 001040    3686  	zero	T38,ST544	"dn
    004765  aa   000047 001044    3687  	zero	T39,ST548	"en
    004766  aa   000050 001050    3688  	zero	T40,ST552	"sn
    004767  aa   000051 001054    3689  	zero	T41,ST556	"fak
    004770  aa   000052 001056    3690  	zero	T42,ST558	"fka
    004771  aa   000053 001060    3691  	zero	T43,ST560	"em
    004772  aa   000054 001064    3692  	zero	T44,ST564	"fi
    004773  aa   000055 001066    3693  	zero	T45,ST566	"fir
    004774  aa   000056 001070    3694  	zero	T46,ST568	"fv
    004775  aa   000057 001072    3695  	zero	T47,ST570	"fvr
    004776  aa   000060 001074    3696  	zero	T48,ST572	"ff
    004777  aa   000061 001076    3697  	zero	T49,ST574	"ffr
    005000  aa   000062 001100    3698  	zero	T50,ST576	"fln
    005001  aa   000063 001102    3699  	zero	T51,ST578	"sk
    005002  aa   000065 001106    3700  	zero	T53,ST582	"Kl
    005003  aa   000066 001112    3701  	zero	T54,ST586	"Kb
    005004  aa   000067 001116    3702  	zero	T55,ST590	"if
    005005  aa   000071 001120    3703  	zero	T57,ST592	"ag
    005006  aa   000072 001124    3704  	zero	T58,ST596	"cs
    005007  aa   000074 001130    3705  	zero	T60,ST600	"pn
    005010  aa   000075 001134    3706  	zero	T61,ST604	"p[
    005011  aa   000076 001135    3707  	zero	T62,ST605	"fmx
    005012  aa   000077 001141    3708  	zero	T63,ST609	"fmn
    005013  aa   000100 001145    3709  	zero	T64,ST613	"frs
    005014  aa   000101 001533    3710  	zero	T65,ST859	"||
    005015  aa   000102 001534    3711  	zero	T66,ST860	"<var>
    005016  aa   000104 001251    3712  	zero	T68,ST681	"mct
    005017  aa   000105 001253    3713  	zero	T69,ST683	"emt
    005020  aa   000106 001255    3714  	zero	T70,ST685	"emc
    005021  aa   000107 001257    3715  	zero	T71,ST687	"<u+>
    005022  aa   000110 001333    3716  	zero	T72,ST731	"<u->
                        000057    3717  	equ	LN2380,*-DPDA-ST2380-1
                                  3718  "
                                  3719  " STATE 2428
                        004574    3720  	equ	ST2428,*-DPDA
    005023  aa   000000 000057    3721  	zero	STRD,LN2428
    005024  aa   000001 000601    3722  	zero	T1,ST385	"<integer>
    005025  aa   000002 001454    3723  	zero	T2,ST812	"<string>
    005026  aa   000004 005503    3724  	zero	T4,ST2883	",
    005027  aa   000007 000711    3725  	zero	T7,ST457	"(
    005030  aa   000027 001521    3726  	zero	T23,ST849	"a[
    005031  aa   000030 001522    3727  	zero	T24,ST850	"k[
    005032  aa   000031 001523    3728  	zero	T25,ST851	"K[
    005033  aa   000032 000772    3729  	zero	T26,ST506	"Ks
    005034  aa   000033 000776    3730  	zero	T27,ST510	"be
    005035  aa   000034 001002    3731  	zero	T28,ST514	"bn
    005036  aa   000035 001006    3732  	zero	T29,ST518	"fl
    005037  aa   000036 001010    3733  	zero	T30,ST520	"fs
    005040  aa   000037 001012    3734  	zero	T31,ST522	"lb
    005041  aa   000040 001016    3735  	zero	T32,ST526	"le
    005042  aa   000041 001022    3736  	zero	T33,ST530	"sb
    005043  aa   000042 001026    3737  	zero	T34,ST534	"se
    005044  aa   000046 001040    3738  	zero	T38,ST544	"dn
    005045  aa   000047 001044    3739  	zero	T39,ST548	"en
    005046  aa   000050 001050    3740  	zero	T40,ST552	"sn
    005047  aa   000051 001054    3741  	zero	T41,ST556	"fak
    005050  aa   000052 001056    3742  	zero	T42,ST558	"fka
    005051  aa   000053 001060    3743  	zero	T43,ST560	"em
    005052  aa   000054 001064    3744  	zero	T44,ST564	"fi
    005053  aa   000055 001066    3745  	zero	T45,ST566	"fir
    005054  aa   000056 001070    3746  	zero	T46,ST568	"fv
    005055  aa   000057 001072    3747  	zero	T47,ST570	"fvr
    005056  aa   000060 001074    3748  	zero	T48,ST572	"ff
    005057  aa   000061 001076    3749  	zero	T49,ST574	"ffr
    005060  aa   000062 001100    3750  	zero	T50,ST576	"fln
    005061  aa   000063 001102    3751  	zero	T51,ST578	"sk
    005062  aa   000065 001106    3752  	zero	T53,ST582	"Kl
    005063  aa   000066 001112    3753  	zero	T54,ST586	"Kb
    005064  aa   000067 001116    3754  	zero	T55,ST590	"if
    005065  aa   000071 001120    3755  	zero	T57,ST592	"ag
    005066  aa   000072 001124    3756  	zero	T58,ST596	"cs
    005067  aa   000074 001130    3757  	zero	T60,ST600	"pn
    005070  aa   000075 001134    3758  	zero	T61,ST604	"p[
    005071  aa   000076 001135    3759  	zero	T62,ST605	"fmx
    005072  aa   000077 001141    3760  	zero	T63,ST609	"fmn
    005073  aa   000100 001145    3761  	zero	T64,ST613	"frs
    005074  aa   000101 001533    3762  	zero	T65,ST859	"||
    005075  aa   000102 001534    3763  	zero	T66,ST860	"<var>
    005076  aa   000104 001251    3764  	zero	T68,ST681	"mct
    005077  aa   000105 001253    3765  	zero	T69,ST683	"emt
    005100  aa   000106 001255    3766  	zero	T70,ST685	"emc
    005101  aa   000107 001257    3767  	zero	T71,ST687	"<u+>
    005102  aa   000110 001333    3768  	zero	T72,ST731	"<u->
                        000057    3769  	equ	LN2428,*-DPDA-ST2428-1
                                  3770  "
                                  3771  " STATE 2476
                        004654    3772  	equ	ST2476,*-DPDA
    005103  aa   000000 000001    3773  	zero	STRD,LN2476
    005104  aa   000010 005562    3774  	zero	T8,ST2930	")
                        000001    3775  	equ	LN2476,*-DPDA-ST2476-1
                                  3776  "
                                  3777  " STATE 2478
                        004656    3778  	equ	ST2478,*-DPDA
    005105  aa   000000 000001    3779  	zero	STRD,LN2478
    005106  aa   000010 005566    3780  	zero	T8,ST2934	")
                        000001    3781  	equ	LN2478,*-DPDA-ST2478-1
                                  3782  "
                                  3783  " STATE 2480
                        004660    3784  	equ	ST2480,*-DPDA
    005107  aa   000000 000001    3785  	zero	STRD,LN2480
    005110  aa   000010 005572    3786  	zero	T8,ST2938	")
                        000001    3787  	equ	LN2480,*-DPDA-ST2480-1
                                  3788  "
                                  3789  " STATE 2482
                        004662    3790  	equ	ST2482,*-DPDA
    005111  aa   000000 000001    3791  	zero	STRD,LN2482
    005112  aa   000004 005576    3792  	zero	T4,ST2942	",
                        000001    3793  	equ	LN2482,*-DPDA-ST2482-1
                                  3794  "
                                  3795  " STATE 2484
                        004664    3796  	equ	ST2484,*-DPDA
    005113  aa   000000 000065    3797  	zero	STRD,LN2484
    005114  aa   000001 000601    3798  	zero	T1,ST385	"<integer>
    005115  aa   000002 001454    3799  	zero	T2,ST812	"<string>
    005116  aa   000007 000711    3800  	zero	T7,ST457	"(
    005117  aa   000021 001470    3801  	zero	T17,ST824	"<
    005120  aa   000022 001475    3802  	zero	T18,ST829	">
    005121  aa   000023 001501    3803  	zero	T19,ST833	"=
    005122  aa   000024 001505    3804  	zero	T20,ST837	"<=
    005123  aa   000025 001511    3805  	zero	T21,ST841	">=
    005124  aa   000026 001515    3806  	zero	T22,ST845	"^=
    005125  aa   000027 001521    3807  	zero	T23,ST849	"a[
    005126  aa   000030 001522    3808  	zero	T24,ST850	"k[
    005127  aa   000031 001523    3809  	zero	T25,ST851	"K[
    005130  aa   000032 000772    3810  	zero	T26,ST506	"Ks
    005131  aa   000033 000776    3811  	zero	T27,ST510	"be
    005132  aa   000034 001002    3812  	zero	T28,ST514	"bn
    005133  aa   000035 001006    3813  	zero	T29,ST518	"fl
    005134  aa   000036 001010    3814  	zero	T30,ST520	"fs
    005135  aa   000037 001012    3815  	zero	T31,ST522	"lb
    005136  aa   000040 001016    3816  	zero	T32,ST526	"le
    005137  aa   000041 001022    3817  	zero	T33,ST530	"sb
    005140  aa   000042 001026    3818  	zero	T34,ST534	"se
    005141  aa   000046 001040    3819  	zero	T38,ST544	"dn
    005142  aa   000047 001044    3820  	zero	T39,ST548	"en
    005143  aa   000050 001050    3821  	zero	T40,ST552	"sn
    005144  aa   000051 001054    3822  	zero	T41,ST556	"fak
    005145  aa   000052 001056    3823  	zero	T42,ST558	"fka
    005146  aa   000053 001060    3824  	zero	T43,ST560	"em
    005147  aa   000054 001064    3825  	zero	T44,ST564	"fi
    005150  aa   000055 001066    3826  	zero	T45,ST566	"fir
    005151  aa   000056 001070    3827  	zero	T46,ST568	"fv
    005152  aa   000057 001072    3828  	zero	T47,ST570	"fvr
    005153  aa   000060 001074    3829  	zero	T48,ST572	"ff
    005154  aa   000061 001076    3830  	zero	T49,ST574	"ffr
    005155  aa   000062 001100    3831  	zero	T50,ST576	"fln
    005156  aa   000063 001102    3832  	zero	T51,ST578	"sk
    005157  aa   000064 001524    3833  	zero	T52,ST852	"J
    005160  aa   000065 001106    3834  	zero	T53,ST582	"Kl
    005161  aa   000066 001112    3835  	zero	T54,ST586	"Kb
    005162  aa   000067 001116    3836  	zero	T55,ST590	"if
    005163  aa   000071 001120    3837  	zero	T57,ST592	"ag
    005164  aa   000072 001124    3838  	zero	T58,ST596	"cs
    005165  aa   000074 001130    3839  	zero	T60,ST600	"pn
    005166  aa   000075 001134    3840  	zero	T61,ST604	"p[
    005167  aa   000076 001135    3841  	zero	T62,ST605	"fmx
    005170  aa   000077 001141    3842  	zero	T63,ST609	"fmn
    005171  aa   000100 001145    3843  	zero	T64,ST613	"frs
    005172  aa   000101 001533    3844  	zero	T65,ST859	"||
    005173  aa   000102 001534    3845  	zero	T66,ST860	"<var>
    005174  aa   000104 001251    3846  	zero	T68,ST681	"mct
    005175  aa   000105 001253    3847  	zero	T69,ST683	"emt
    005176  aa   000106 001255    3848  	zero	T70,ST685	"emc
    005177  aa   000107 001257    3849  	zero	T71,ST687	"<u+>
    005200  aa   000110 001333    3850  	zero	T72,ST731	"<u->
                        000065    3851  	equ	LN2484,*-DPDA-ST2484-1
                                  3852  "
                                  3853  " STATE 2538
                        004752    3854  	equ	ST2538,*-DPDA
    005201  aa   000005 000003    3855  	zero	APLY1,LN2538
    005202  aa   000002 000002    3856  	zero	2,2   pd ld
    005203  aa   000033 000001    3857  	zero	27,1   rule/alt
    005204  aa   000011 000420    3858  	zero	9,ST272 prod/val
                        000003    3859  	equ	LN2538,*-DPDA-ST2538-1
                                  3860  "
                                  3861  " STATE 2542
                        004756    3862  	equ	ST2542,*-DPDA
    005205  aa   000000 000057    3863  	zero	STRD,LN2542
    005206  aa   000001 000601    3864  	zero	T1,ST385	"<integer>
    005207  aa   000002 001454    3865  	zero	T2,ST812	"<string>
    005210  aa   000004 005577    3866  	zero	T4,ST2943	",
    005211  aa   000007 000711    3867  	zero	T7,ST457	"(
    005212  aa   000027 001521    3868  	zero	T23,ST849	"a[
    005213  aa   000030 001522    3869  	zero	T24,ST850	"k[
    005214  aa   000031 001523    3870  	zero	T25,ST851	"K[
    005215  aa   000032 000772    3871  	zero	T26,ST506	"Ks
    005216  aa   000033 000776    3872  	zero	T27,ST510	"be
    005217  aa   000034 001002    3873  	zero	T28,ST514	"bn
    005220  aa   000035 001006    3874  	zero	T29,ST518	"fl
    005221  aa   000036 001010    3875  	zero	T30,ST520	"fs
    005222  aa   000037 001012    3876  	zero	T31,ST522	"lb
    005223  aa   000040 001016    3877  	zero	T32,ST526	"le
    005224  aa   000041 001022    3878  	zero	T33,ST530	"sb
    005225  aa   000042 001026    3879  	zero	T34,ST534	"se
    005226  aa   000046 001040    3880  	zero	T38,ST544	"dn
    005227  aa   000047 001044    3881  	zero	T39,ST548	"en
    005230  aa   000050 001050    3882  	zero	T40,ST552	"sn
    005231  aa   000051 001054    3883  	zero	T41,ST556	"fak
    005232  aa   000052 001056    3884  	zero	T42,ST558	"fka
    005233  aa   000053 001060    3885  	zero	T43,ST560	"em
    005234  aa   000054 001064    3886  	zero	T44,ST564	"fi
    005235  aa   000055 001066    3887  	zero	T45,ST566	"fir
    005236  aa   000056 001070    3888  	zero	T46,ST568	"fv
    005237  aa   000057 001072    3889  	zero	T47,ST570	"fvr
    005240  aa   000060 001074    3890  	zero	T48,ST572	"ff
    005241  aa   000061 001076    3891  	zero	T49,ST574	"ffr
    005242  aa   000062 001100    3892  	zero	T50,ST576	"fln
    005243  aa   000063 001102    3893  	zero	T51,ST578	"sk
    005244  aa   000065 001106    3894  	zero	T53,ST582	"Kl
    005245  aa   000066 001112    3895  	zero	T54,ST586	"Kb
    005246  aa   000067 001116    3896  	zero	T55,ST590	"if
    005247  aa   000071 001120    3897  	zero	T57,ST592	"ag
    005250  aa   000072 001124    3898  	zero	T58,ST596	"cs
    005251  aa   000074 001130    3899  	zero	T60,ST600	"pn
    005252  aa   000075 001134    3900  	zero	T61,ST604	"p[
    005253  aa   000076 001135    3901  	zero	T62,ST605	"fmx
    005254  aa   000077 001141    3902  	zero	T63,ST609	"fmn
    005255  aa   000100 001145    3903  	zero	T64,ST613	"frs
    005256  aa   000101 001533    3904  	zero	T65,ST859	"||
    005257  aa   000102 001534    3905  	zero	T66,ST860	"<var>
    005260  aa   000104 001251    3906  	zero	T68,ST681	"mct
    005261  aa   000105 001253    3907  	zero	T69,ST683	"emt
    005262  aa   000106 001255    3908  	zero	T70,ST685	"emc
    005263  aa   000107 001257    3909  	zero	T71,ST687	"<u+>
    005264  aa   000110 001333    3910  	zero	T72,ST731	"<u->
                        000057    3911  	equ	LN2542,*-DPDA-ST2542-1
                                  3912  "
                                  3913  " STATE 2590
                        005036    3914  	equ	ST2590,*-DPDA
    005265  aa   000000 000057    3915  	zero	STRD,LN2590
    005266  aa   000001 000601    3916  	zero	T1,ST385	"<integer>
    005267  aa   000002 001454    3917  	zero	T2,ST812	"<string>
    005270  aa   000007 000711    3918  	zero	T7,ST457	"(
    005271  aa   000010 005600    3919  	zero	T8,ST2944	")
    005272  aa   000027 001521    3920  	zero	T23,ST849	"a[
    005273  aa   000030 001522    3921  	zero	T24,ST850	"k[
    005274  aa   000031 001523    3922  	zero	T25,ST851	"K[
    005275  aa   000032 000772    3923  	zero	T26,ST506	"Ks
    005276  aa   000033 000776    3924  	zero	T27,ST510	"be
    005277  aa   000034 001002    3925  	zero	T28,ST514	"bn
    005300  aa   000035 001006    3926  	zero	T29,ST518	"fl
    005301  aa   000036 001010    3927  	zero	T30,ST520	"fs
    005302  aa   000037 001012    3928  	zero	T31,ST522	"lb
    005303  aa   000040 001016    3929  	zero	T32,ST526	"le
    005304  aa   000041 001022    3930  	zero	T33,ST530	"sb
    005305  aa   000042 001026    3931  	zero	T34,ST534	"se
    005306  aa   000046 001040    3932  	zero	T38,ST544	"dn
    005307  aa   000047 001044    3933  	zero	T39,ST548	"en
    005310  aa   000050 001050    3934  	zero	T40,ST552	"sn
    005311  aa   000051 001054    3935  	zero	T41,ST556	"fak
    005312  aa   000052 001056    3936  	zero	T42,ST558	"fka
    005313  aa   000053 001060    3937  	zero	T43,ST560	"em
    005314  aa   000054 001064    3938  	zero	T44,ST564	"fi
    005315  aa   000055 001066    3939  	zero	T45,ST566	"fir
    005316  aa   000056 001070    3940  	zero	T46,ST568	"fv
    005317  aa   000057 001072    3941  	zero	T47,ST570	"fvr
    005320  aa   000060 001074    3942  	zero	T48,ST572	"ff
    005321  aa   000061 001076    3943  	zero	T49,ST574	"ffr
    005322  aa   000062 001100    3944  	zero	T50,ST576	"fln
    005323  aa   000063 001102    3945  	zero	T51,ST578	"sk
    005324  aa   000065 001106    3946  	zero	T53,ST582	"Kl
    005325  aa   000066 001112    3947  	zero	T54,ST586	"Kb
    005326  aa   000067 001116    3948  	zero	T55,ST590	"if
    005327  aa   000071 001120    3949  	zero	T57,ST592	"ag
    005330  aa   000072 001124    3950  	zero	T58,ST596	"cs
    005331  aa   000074 001130    3951  	zero	T60,ST600	"pn
    005332  aa   000075 001134    3952  	zero	T61,ST604	"p[
    005333  aa   000076 001135    3953  	zero	T62,ST605	"fmx
    005334  aa   000077 001141    3954  	zero	T63,ST609	"fmn
    005335  aa   000100 001145    3955  	zero	T64,ST613	"frs
    005336  aa   000101 001533    3956  	zero	T65,ST859	"||
    005337  aa   000102 001534    3957  	zero	T66,ST860	"<var>
    005340  aa   000104 001251    3958  	zero	T68,ST681	"mct
    005341  aa   000105 001253    3959  	zero	T69,ST683	"emt
    005342  aa   000106 001255    3960  	zero	T70,ST685	"emc
    005343  aa   000107 001257    3961  	zero	T71,ST687	"<u+>
    005344  aa   000110 001333    3962  	zero	T72,ST731	"<u->
                        000057    3963  	equ	LN2590,*-DPDA-ST2590-1
                                  3964  "
                                  3965  " STATE 2638
                        005116    3966  	equ	ST2638,*-DPDA
    005345  aa   000005 000003    3967  	zero	APLY1,LN2638
    005346  aa   000002 000002    3968  	zero	2,2   pd ld
    005347  aa   000107 000001    3969  	zero	71,1   rule/alt
    005350  aa   000011 000420    3970  	zero	9,ST272 prod/val
                        000003    3971  	equ	LN2638,*-DPDA-ST2638-1
                                  3972  "
                                  3973  " STATE 2642
                        005122    3974  	equ	ST2642,*-DPDA
    005351  aa   000005 000003    3975  	zero	APLY1,LN2642
    005352  aa   000002 000002    3976  	zero	2,2   pd ld
    005353  aa   000055 000001    3977  	zero	45,1   rule/alt
    005354  aa   000011 000420    3978  	zero	9,ST272 prod/val
                        000003    3979  	equ	LN2642,*-DPDA-ST2642-1
                                  3980  "
                                  3981  " STATE 2646
                        005126    3982  	equ	ST2646,*-DPDA
    005355  aa   000005 000003    3983  	zero	APLY1,LN2646
    005356  aa   000002 000002    3984  	zero	2,2   pd ld
    005357  aa   000056 000001    3985  	zero	46,1   rule/alt
    005360  aa   000011 000420    3986  	zero	9,ST272 prod/val
                        000003    3987  	equ	LN2646,*-DPDA-ST2646-1
                                  3988  "
                                  3989  " STATE 2650
                        005132    3990  	equ	ST2650,*-DPDA
    005361  aa   000005 000003    3991  	zero	APLY1,LN2650
    005362  aa   000003 000003    3992  	zero	3,3   pd ld
    005363  aa   000062 000001    3993  	zero	50,1   rule/alt
    005364  aa   000013 000004    3994  	zero	11,ST4 prod/val
                        000003    3995  	equ	LN2650,*-DPDA-ST2650-1
                                  3996  "
                                  3997  " STATE 2654
                        005136    3998  	equ	ST2654,*-DPDA
    005365  aa   000002 000426    3999  	zero	STRDS,ST278
                                  4000
                                  4001  "
                                  4002  " STATE 2655
                        005137    4003  	equ	ST2655,*-DPDA
    005366  aa   000005 000003    4004  	zero	APLY1,LN2655
    005367  aa   000003 000003    4005  	zero	3,3   pd ld
    005370  aa   000120 000001    4006  	zero	80,1   rule/alt
    005371  aa   000011 000420    4007  	zero	9,ST272 prod/val
                        000003    4008  	equ	LN2655,*-DPDA-ST2655-1
                                  4009  "
                                  4010  " STATE 2659
                        005143    4011  	equ	ST2659,*-DPDA
    005372  aa   000005 000003    4012  	zero	APLY1,LN2659
    005373  aa   000003 000003    4013  	zero	3,3   pd ld
    005374  aa   000117 000001    4014  	zero	79,1   rule/alt
    005375  aa   000011 000420    4015  	zero	9,ST272 prod/val
                        000003    4016  	equ	LN2659,*-DPDA-ST2659-1
                                  4017  "
                                  4018  " STATE 2663
                        005147    4019  	equ	ST2663,*-DPDA
    005376  aa   000005 000003    4020  	zero	APLY1,LN2663
    005377  aa   000002 000002    4021  	zero	2,2   pd ld
    005400  aa   000102 000001    4022  	zero	66,1   rule/alt
    005401  aa   000011 000420    4023  	zero	9,ST272 prod/val
                        000003    4024  	equ	LN2663,*-DPDA-ST2663-1
                                  4025  "
                                  4026  " STATE 2667
                        005153    4027  	equ	ST2667,*-DPDA
    005402  aa   000005 000003    4028  	zero	APLY1,LN2667
    005403  aa   000002 000002    4029  	zero	2,2   pd ld
    005404  aa   000031 000001    4030  	zero	25,1   rule/alt
    005405  aa   000011 000420    4031  	zero	9,ST272 prod/val
                        000003    4032  	equ	LN2667,*-DPDA-ST2667-1
                                  4033  "
                                  4034  " STATE 2671
                        005157    4035  	equ	ST2671,*-DPDA
    005406  aa   000005 000003    4036  	zero	APLY1,LN2671
    005407  aa   000002 000002    4037  	zero	2,2   pd ld
    005410  aa   000032 000001    4038  	zero	26,1   rule/alt
    005411  aa   000011 000420    4039  	zero	9,ST272 prod/val
                        000003    4040  	equ	LN2671,*-DPDA-ST2671-1
                                  4041  "
                                  4042  " STATE 2675
                        005163    4043  	equ	ST2675,*-DPDA
    005412  aa   000011 000063    4044  	zero	NSRD,LN2675
    005413  aa   000001 767646    4045  	zero	T1,-ST4186	"<integer>
    005414  aa   000002 767646    4046  	zero	T2,-ST4186	"<string>
    005415  aa   000004 767645    4047  	zero	T4,-ST4187	",
    005416  aa   000006 767645    4048  	zero	T6,-ST4187	"}
    005417  aa   000007 767646    4049  	zero	T7,-ST4186	"(
    005420  aa   000010 767645    4050  	zero	T8,-ST4187	")
    005421  aa   000011 767645    4051  	zero	T9,-ST4187	":
    005422  aa   000012 767645    4052  	zero	T10,-ST4187	".
    005423  aa   000027 767646    4053  	zero	T23,-ST4186	"a[
    005424  aa   000030 767646    4054  	zero	T24,-ST4186	"k[
    005425  aa   000031 767646    4055  	zero	T25,-ST4186	"K[
    005426  aa   000032 767646    4056  	zero	T26,-ST4186	"Ks
    005427  aa   000033 767646    4057  	zero	T27,-ST4186	"be
    005430  aa   000034 767646    4058  	zero	T28,-ST4186	"bn
    005431  aa   000035 767646    4059  	zero	T29,-ST4186	"fl
    005432  aa   000036 767646    4060  	zero	T30,-ST4186	"fs
    005433  aa   000037 767646    4061  	zero	T31,-ST4186	"lb
    005434  aa   000040 767646    4062  	zero	T32,-ST4186	"le
    005435  aa   000041 767646    4063  	zero	T33,-ST4186	"sb
    005436  aa   000042 767646    4064  	zero	T34,-ST4186	"se
    005437  aa   000046 767646    4065  	zero	T38,-ST4186	"dn
    005440  aa   000047 767646    4066  	zero	T39,-ST4186	"en
    005441  aa   000050 767646    4067  	zero	T40,-ST4186	"sn
    005442  aa   000051 767646    4068  	zero	T41,-ST4186	"fak
    005443  aa   000052 767646    4069  	zero	T42,-ST4186	"fka
    005444  aa   000053 767646    4070  	zero	T43,-ST4186	"em
    005445  aa   000054 767646    4071  	zero	T44,-ST4186	"fi
    005446  aa   000055 767646    4072  	zero	T45,-ST4186	"fir
    005447  aa   000056 767646    4073  	zero	T46,-ST4186	"fv
    005450  aa   000057 767646    4074  	zero	T47,-ST4186	"fvr
    005451  aa   000060 767646    4075  	zero	T48,-ST4186	"ff
    005452  aa   000061 767646    4076  	zero	T49,-ST4186	"ffr
    005453  aa   000062 767646    4077  	zero	T50,-ST4186	"fln
    005454  aa   000063 767646    4078  	zero	T51,-ST4186	"sk
    005455  aa   000065 767646    4079  	zero	T53,-ST4186	"Kl
    005456  aa   000066 767646    4080  	zero	T54,-ST4186	"Kb
    005457  aa   000067 767646    4081  	zero	T55,-ST4186	"if
    005460  aa   000071 767646    4082  	zero	T57,-ST4186	"ag
    005461  aa   000072 767646    4083  	zero	T58,-ST4186	"cs
    005462  aa   000074 767646    4084  	zero	T60,-ST4186	"pn
    005463  aa   000075 767646    4085  	zero	T61,-ST4186	"p[
    005464  aa   000076 767646    4086  	zero	T62,-ST4186	"fmx
    005465  aa   000077 767646    4087  	zero	T63,-ST4186	"fmn
    005466  aa   000100 767646    4088  	zero	T64,-ST4186	"frs
    005467  aa   000101 767646    4089  	zero	T65,-ST4186	"||
    005470  aa   000102 767646    4090  	zero	T66,-ST4186	"<var>
    005471  aa   000104 767646    4091  	zero	T68,-ST4186	"mct
    005472  aa   000105 767646    4092  	zero	T69,-ST4186	"emt
    005473  aa   000106 767646    4093  	zero	T70,-ST4186	"emc
    005474  aa   000107 767646    4094  	zero	T71,-ST4186	"<u+>
    005475  aa   000110 767646    4095  	zero	T72,-ST4186	"<u->
                        000063    4096  	equ	LN2675,*-DPDA-ST2675-1
                                  4097  "
                                  4098  " STATE 2727
                        005247    4099  	equ	ST2727,*-DPDA
    005476  aa   000002 000426    4100  	zero	STRDS,ST278
                                  4101
                                  4102  "
                                  4103  " STATE 2728
                        005250    4104  	equ	ST2728,*-DPDA
    005477  aa   000002 000426    4105  	zero	STRDS,ST278
                                  4106
                                  4107  "
                                  4108  " STATE 2729
                        005251    4109  	equ	ST2729,*-DPDA
    005500  aa   000002 000426    4110  	zero	STRDS,ST278
                                  4111
                                  4112  "
                                  4113  " STATE 2730
                        005252    4114  	equ	ST2730,*-DPDA
    005501  aa   000005 000003    4115  	zero	APLY1,LN2730
    005502  aa   000003 000003    4116  	zero	3,3   pd ld
    005503  aa   000123 000001    4117  	zero	83,1   rule/alt
    005504  aa   000011 000420    4118  	zero	9,ST272 prod/val
                        000003    4119  	equ	LN2730,*-DPDA-ST2730-1
                                  4120  "
                                  4121  " STATE 2734
                        005256    4122  	equ	ST2734,*-DPDA
    005505  aa   000002 000426    4123  	zero	STRDS,ST278
                                  4124
                                  4125  "
                                  4126  " STATE 2735
                        005257    4127  	equ	ST2735,*-DPDA
    005506  aa   000002 000426    4128  	zero	STRDS,ST278
                                  4129
                                  4130  "
                                  4131  " STATE 2736
                        005260    4132  	equ	ST2736,*-DPDA
    005507  aa   000005 000003    4133  	zero	APLY1,LN2736
    005510  aa   000003 000003    4134  	zero	3,3   pd ld
    005511  aa   000103 000001    4135  	zero	67,1   rule/alt
    005512  aa   000011 000420    4136  	zero	9,ST272 prod/val
                        000003    4137  	equ	LN2736,*-DPDA-ST2736-1
                                  4138  "
                                  4139  " STATE 2740
                        005264    4140  	equ	ST2740,*-DPDA
    005513  aa   000002 000426    4141  	zero	STRDS,ST278
                                  4142
                                  4143  "
                                  4144  " STATE 2741
                        005265    4145  	equ	ST2741,*-DPDA
    005514  aa   000002 000426    4146  	zero	STRDS,ST278
                                  4147
                                  4148  "
                                  4149  " STATE 2742
                        005266    4150  	equ	ST2742,*-DPDA
    005515  aa   000000 000056    4151  	zero	STRD,LN2742
    005516  aa   000001 000601    4152  	zero	T1,ST385	"<integer>
    005517  aa   000002 001454    4153  	zero	T2,ST812	"<string>
    005520  aa   000007 000711    4154  	zero	T7,ST457	"(
    005521  aa   000027 001521    4155  	zero	T23,ST849	"a[
    005522  aa   000030 001522    4156  	zero	T24,ST850	"k[
    005523  aa   000031 001523    4157  	zero	T25,ST851	"K[
    005524  aa   000032 000772    4158  	zero	T26,ST506	"Ks
    005525  aa   000033 000776    4159  	zero	T27,ST510	"be
    005526  aa   000034 001002    4160  	zero	T28,ST514	"bn
    005527  aa   000035 001006    4161  	zero	T29,ST518	"fl
    005530  aa   000036 001010    4162  	zero	T30,ST520	"fs
    005531  aa   000037 001012    4163  	zero	T31,ST522	"lb
    005532  aa   000040 001016    4164  	zero	T32,ST526	"le
    005533  aa   000041 001022    4165  	zero	T33,ST530	"sb
    005534  aa   000042 001026    4166  	zero	T34,ST534	"se
    005535  aa   000046 001040    4167  	zero	T38,ST544	"dn
    005536  aa   000047 001044    4168  	zero	T39,ST548	"en
    005537  aa   000050 001050    4169  	zero	T40,ST552	"sn
    005540  aa   000051 001054    4170  	zero	T41,ST556	"fak
    005541  aa   000052 001056    4171  	zero	T42,ST558	"fka
    005542  aa   000053 001060    4172  	zero	T43,ST560	"em
    005543  aa   000054 001064    4173  	zero	T44,ST564	"fi
    005544  aa   000055 001066    4174  	zero	T45,ST566	"fir
    005545  aa   000056 001070    4175  	zero	T46,ST568	"fv
    005546  aa   000057 001072    4176  	zero	T47,ST570	"fvr
    005547  aa   000060 001074    4177  	zero	T48,ST572	"ff
    005550  aa   000061 001076    4178  	zero	T49,ST574	"ffr
    005551  aa   000062 001100    4179  	zero	T50,ST576	"fln
    005552  aa   000063 001102    4180  	zero	T51,ST578	"sk
    005553  aa   000065 001106    4181  	zero	T53,ST582	"Kl
    005554  aa   000066 001112    4182  	zero	T54,ST586	"Kb
    005555  aa   000067 001116    4183  	zero	T55,ST590	"if
    005556  aa   000071 001120    4184  	zero	T57,ST592	"ag
    005557  aa   000072 001124    4185  	zero	T58,ST596	"cs
    005560  aa   000073 006473    4186  	zero	T59,ST3387	"<set>
    005561  aa   000074 001130    4187  	zero	T60,ST600	"pn
    005562  aa   000075 001134    4188  	zero	T61,ST604	"p[
    005563  aa   000076 001135    4189  	zero	T62,ST605	"fmx
    005564  aa   000077 001141    4190  	zero	T63,ST609	"fmn
    005565  aa   000100 001145    4191  	zero	T64,ST613	"frs
    005566  aa   000102 001534    4192  	zero	T66,ST860	"<var>
    005567  aa   000104 001251    4193  	zero	T68,ST681	"mct
    005570  aa   000105 001253    4194  	zero	T69,ST683	"emt
    005571  aa   000106 001255    4195  	zero	T70,ST685	"emc
    005572  aa   000107 001257    4196  	zero	T71,ST687	"<u+>
    005573  aa   000110 001333    4197  	zero	T72,ST731	"<u->
                        000056    4198  	equ	LN2742,*-DPDA-ST2742-1
                                  4199  "
                                  4200  " STATE 2789
                        005345    4201  	equ	ST2789,*-DPDA
    005574  aa   000000 000056    4202  	zero	STRD,LN2789
    005575  aa   000001 000601    4203  	zero	T1,ST385	"<integer>
    005576  aa   000002 001454    4204  	zero	T2,ST812	"<string>
    005577  aa   000007 000711    4205  	zero	T7,ST457	"(
    005600  aa   000027 001521    4206  	zero	T23,ST849	"a[
    005601  aa   000030 001522    4207  	zero	T24,ST850	"k[
    005602  aa   000031 001523    4208  	zero	T25,ST851	"K[
    005603  aa   000032 000772    4209  	zero	T26,ST506	"Ks
    005604  aa   000033 000776    4210  	zero	T27,ST510	"be
    005605  aa   000034 001002    4211  	zero	T28,ST514	"bn
    005606  aa   000035 001006    4212  	zero	T29,ST518	"fl
    005607  aa   000036 001010    4213  	zero	T30,ST520	"fs
    005610  aa   000037 001012    4214  	zero	T31,ST522	"lb
    005611  aa   000040 001016    4215  	zero	T32,ST526	"le
    005612  aa   000041 001022    4216  	zero	T33,ST530	"sb
    005613  aa   000042 001026    4217  	zero	T34,ST534	"se
    005614  aa   000046 001040    4218  	zero	T38,ST544	"dn
    005615  aa   000047 001044    4219  	zero	T39,ST548	"en
    005616  aa   000050 001050    4220  	zero	T40,ST552	"sn
    005617  aa   000051 001054    4221  	zero	T41,ST556	"fak
    005620  aa   000052 001056    4222  	zero	T42,ST558	"fka
    005621  aa   000053 001060    4223  	zero	T43,ST560	"em
    005622  aa   000054 001064    4224  	zero	T44,ST564	"fi
    005623  aa   000055 001066    4225  	zero	T45,ST566	"fir
    005624  aa   000056 001070    4226  	zero	T46,ST568	"fv
    005625  aa   000057 001072    4227  	zero	T47,ST570	"fvr
    005626  aa   000060 001074    4228  	zero	T48,ST572	"ff
    005627  aa   000061 001076    4229  	zero	T49,ST574	"ffr
    005630  aa   000062 001100    4230  	zero	T50,ST576	"fln
    005631  aa   000063 001102    4231  	zero	T51,ST578	"sk
    005632  aa   000065 001106    4232  	zero	T53,ST582	"Kl
    005633  aa   000066 001112    4233  	zero	T54,ST586	"Kb
    005634  aa   000067 001116    4234  	zero	T55,ST590	"if
    005635  aa   000071 001120    4235  	zero	T57,ST592	"ag
    005636  aa   000072 001124    4236  	zero	T58,ST596	"cs
    005637  aa   000073 006555    4237  	zero	T59,ST3437	"<set>
    005640  aa   000074 001130    4238  	zero	T60,ST600	"pn
    005641  aa   000075 001134    4239  	zero	T61,ST604	"p[
    005642  aa   000076 001135    4240  	zero	T62,ST605	"fmx
    005643  aa   000077 001141    4241  	zero	T63,ST609	"fmn
    005644  aa   000100 001145    4242  	zero	T64,ST613	"frs
    005645  aa   000102 001534    4243  	zero	T66,ST860	"<var>
    005646  aa   000104 001251    4244  	zero	T68,ST681	"mct
    005647  aa   000105 001253    4245  	zero	T69,ST683	"emt
    005650  aa   000106 001255    4246  	zero	T70,ST685	"emc
    005651  aa   000107 001257    4247  	zero	T71,ST687	"<u+>
    005652  aa   000110 001333    4248  	zero	T72,ST731	"<u->
                        000056    4249  	equ	LN2789,*-DPDA-ST2789-1
                                  4250  "
                                  4251  " STATE 2836
                        005424    4252  	equ	ST2836,*-DPDA
    005653  aa   000000 000056    4253  	zero	STRD,LN2836
    005654  aa   000001 000601    4254  	zero	T1,ST385	"<integer>
    005655  aa   000002 001454    4255  	zero	T2,ST812	"<string>
    005656  aa   000007 000711    4256  	zero	T7,ST457	"(
    005657  aa   000027 001521    4257  	zero	T23,ST849	"a[
    005660  aa   000030 001522    4258  	zero	T24,ST850	"k[
    005661  aa   000031 001523    4259  	zero	T25,ST851	"K[
    005662  aa   000032 000772    4260  	zero	T26,ST506	"Ks
    005663  aa   000033 000776    4261  	zero	T27,ST510	"be
    005664  aa   000034 001002    4262  	zero	T28,ST514	"bn
    005665  aa   000035 001006    4263  	zero	T29,ST518	"fl
    005666  aa   000036 001010    4264  	zero	T30,ST520	"fs
    005667  aa   000037 001012    4265  	zero	T31,ST522	"lb
    005670  aa   000040 001016    4266  	zero	T32,ST526	"le
    005671  aa   000041 001022    4267  	zero	T33,ST530	"sb
    005672  aa   000042 001026    4268  	zero	T34,ST534	"se
    005673  aa   000046 001040    4269  	zero	T38,ST544	"dn
    005674  aa   000047 001044    4270  	zero	T39,ST548	"en
    005675  aa   000050 001050    4271  	zero	T40,ST552	"sn
    005676  aa   000051 001054    4272  	zero	T41,ST556	"fak
    005677  aa   000052 001056    4273  	zero	T42,ST558	"fka
    005700  aa   000053 001060    4274  	zero	T43,ST560	"em
    005701  aa   000054 001064    4275  	zero	T44,ST564	"fi
    005702  aa   000055 001066    4276  	zero	T45,ST566	"fir
    005703  aa   000056 001070    4277  	zero	T46,ST568	"fv
    005704  aa   000057 001072    4278  	zero	T47,ST570	"fvr
    005705  aa   000060 001074    4279  	zero	T48,ST572	"ff
    005706  aa   000061 001076    4280  	zero	T49,ST574	"ffr
    005707  aa   000062 001100    4281  	zero	T50,ST576	"fln
    005710  aa   000063 001102    4282  	zero	T51,ST578	"sk
    005711  aa   000065 001106    4283  	zero	T53,ST582	"Kl
    005712  aa   000066 001112    4284  	zero	T54,ST586	"Kb
    005713  aa   000067 001116    4285  	zero	T55,ST590	"if
    005714  aa   000071 001120    4286  	zero	T57,ST592	"ag
    005715  aa   000072 001124    4287  	zero	T58,ST596	"cs
    005716  aa   000073 006637    4288  	zero	T59,ST3487	"<set>
    005717  aa   000074 001130    4289  	zero	T60,ST600	"pn
    005720  aa   000075 001134    4290  	zero	T61,ST604	"p[
    005721  aa   000076 001135    4291  	zero	T62,ST605	"fmx
    005722  aa   000077 001141    4292  	zero	T63,ST609	"fmn
    005723  aa   000100 001145    4293  	zero	T64,ST613	"frs
    005724  aa   000102 001534    4294  	zero	T66,ST860	"<var>
    005725  aa   000104 001251    4295  	zero	T68,ST681	"mct
    005726  aa   000105 001253    4296  	zero	T69,ST683	"emt
    005727  aa   000106 001255    4297  	zero	T70,ST685	"emc
    005730  aa   000107 001257    4298  	zero	T71,ST687	"<u+>
    005731  aa   000110 001333    4299  	zero	T72,ST731	"<u->
                        000056    4300  	equ	LN2836,*-DPDA-ST2836-1
                                  4301  "
                                  4302  " STATE 2883
                        005503    4303  	equ	ST2883,*-DPDA
    005732  aa   000000 000056    4304  	zero	STRD,LN2883
    005733  aa   000001 000601    4305  	zero	T1,ST385	"<integer>
    005734  aa   000002 001454    4306  	zero	T2,ST812	"<string>
    005735  aa   000007 000711    4307  	zero	T7,ST457	"(
    005736  aa   000027 001521    4308  	zero	T23,ST849	"a[
    005737  aa   000030 001522    4309  	zero	T24,ST850	"k[
    005740  aa   000031 001523    4310  	zero	T25,ST851	"K[
    005741  aa   000032 000772    4311  	zero	T26,ST506	"Ks
    005742  aa   000033 000776    4312  	zero	T27,ST510	"be
    005743  aa   000034 001002    4313  	zero	T28,ST514	"bn
    005744  aa   000035 001006    4314  	zero	T29,ST518	"fl
    005745  aa   000036 001010    4315  	zero	T30,ST520	"fs
    005746  aa   000037 001012    4316  	zero	T31,ST522	"lb
    005747  aa   000040 001016    4317  	zero	T32,ST526	"le
    005750  aa   000041 001022    4318  	zero	T33,ST530	"sb
    005751  aa   000042 001026    4319  	zero	T34,ST534	"se
    005752  aa   000046 001040    4320  	zero	T38,ST544	"dn
    005753  aa   000047 001044    4321  	zero	T39,ST548	"en
    005754  aa   000050 001050    4322  	zero	T40,ST552	"sn
    005755  aa   000051 001054    4323  	zero	T41,ST556	"fak
    005756  aa   000052 001056    4324  	zero	T42,ST558	"fka
    005757  aa   000053 001060    4325  	zero	T43,ST560	"em
    005760  aa   000054 001064    4326  	zero	T44,ST564	"fi
    005761  aa   000055 001066    4327  	zero	T45,ST566	"fir
    005762  aa   000056 001070    4328  	zero	T46,ST568	"fv
    005763  aa   000057 001072    4329  	zero	T47,ST570	"fvr
    005764  aa   000060 001074    4330  	zero	T48,ST572	"ff
    005765  aa   000061 001076    4331  	zero	T49,ST574	"ffr
    005766  aa   000062 001100    4332  	zero	T50,ST576	"fln
    005767  aa   000063 001102    4333  	zero	T51,ST578	"sk
    005770  aa   000065 001106    4334  	zero	T53,ST582	"Kl
    005771  aa   000066 001112    4335  	zero	T54,ST586	"Kb
    005772  aa   000067 001116    4336  	zero	T55,ST590	"if
    005773  aa   000071 001120    4337  	zero	T57,ST592	"ag
    005774  aa   000072 001124    4338  	zero	T58,ST596	"cs
    005775  aa   000073 006721    4339  	zero	T59,ST3537	"<set>
    005776  aa   000074 001130    4340  	zero	T60,ST600	"pn
    005777  aa   000075 001134    4341  	zero	T61,ST604	"p[
    006000  aa   000076 001135    4342  	zero	T62,ST605	"fmx
    006001  aa   000077 001141    4343  	zero	T63,ST609	"fmn
    006002  aa   000100 001145    4344  	zero	T64,ST613	"frs
    006003  aa   000102 001534    4345  	zero	T66,ST860	"<var>
    006004  aa   000104 001251    4346  	zero	T68,ST681	"mct
    006005  aa   000105 001253    4347  	zero	T69,ST683	"emt
    006006  aa   000106 001255    4348  	zero	T70,ST685	"emc
    006007  aa   000107 001257    4349  	zero	T71,ST687	"<u+>
    006010  aa   000110 001333    4350  	zero	T72,ST731	"<u->
                        000056    4351  	equ	LN2883,*-DPDA-ST2883-1
                                  4352  "
                                  4353  " STATE 2930
                        005562    4354  	equ	ST2930,*-DPDA
    006011  aa   000005 000003    4355  	zero	APLY1,LN2930
    006012  aa   000003 000003    4356  	zero	3,3   pd ld
    006013  aa   000136 000003    4357  	zero	94,3   rule/alt
    006014  aa   000011 000420    4358  	zero	9,ST272 prod/val
                        000003    4359  	equ	LN2930,*-DPDA-ST2930-1
                                  4360  "
                                  4361  " STATE 2934
                        005566    4362  	equ	ST2934,*-DPDA
    006015  aa   000005 000003    4363  	zero	APLY1,LN2934
    006016  aa   000003 000003    4364  	zero	3,3   pd ld
    006017  aa   000136 000001    4365  	zero	94,1   rule/alt
    006020  aa   000011 000420    4366  	zero	9,ST272 prod/val
                        000003    4367  	equ	LN2934,*-DPDA-ST2934-1
                                  4368  "
                                  4369  " STATE 2938
                        005572    4370  	equ	ST2938,*-DPDA
    006021  aa   000005 000003    4371  	zero	APLY1,LN2938
    006022  aa   000003 000003    4372  	zero	3,3   pd ld
    006023  aa   000136 000002    4373  	zero	94,2   rule/alt
    006024  aa   000011 000420    4374  	zero	9,ST272 prod/val
                        000003    4375  	equ	LN2938,*-DPDA-ST2938-1
                                  4376  "
                                  4377  " STATE 2942
                        005576    4378  	equ	ST2942,*-DPDA
    006025  aa   000002 000426    4379  	zero	STRDS,ST278
                                  4380
                                  4381  "
                                  4382  " STATE 2943
                        005577    4383  	equ	ST2943,*-DPDA
    006026  aa   000002 000426    4384  	zero	STRDS,ST278
                                  4385
                                  4386  "
                                  4387  " STATE 2944
                        005600    4388  	equ	ST2944,*-DPDA
    006027  aa   000000 000001    4389  	zero	STRD,LN2944
    006030  aa   000012 007064    4390  	zero	T10,ST3636	".
                        000001    4391  	equ	LN2944,*-DPDA-ST2944-1
                                  4392  "
                                  4393  " STATE 2946
                        005602    4394  	equ	ST2946,*-DPDA
    006031  aa   000011 000060    4395  	zero	NSRD,LN2946
    006032  aa   000001 767641    4396  	zero	T1,-ST4191	"<integer>
    006033  aa   000002 767641    4397  	zero	T2,-ST4191	"<string>
    006034  aa   000004 767640    4398  	zero	T4,-ST4192	",
    006035  aa   000007 767641    4399  	zero	T7,-ST4191	"(
    006036  aa   000010 767640    4400  	zero	T8,-ST4192	")
    006037  aa   000027 767641    4401  	zero	T23,-ST4191	"a[
    006040  aa   000030 767641    4402  	zero	T24,-ST4191	"k[
    006041  aa   000031 767641    4403  	zero	T25,-ST4191	"K[
    006042  aa   000032 767641    4404  	zero	T26,-ST4191	"Ks
    006043  aa   000033 767641    4405  	zero	T27,-ST4191	"be
    006044  aa   000034 767641    4406  	zero	T28,-ST4191	"bn
    006045  aa   000035 767641    4407  	zero	T29,-ST4191	"fl
    006046  aa   000036 767641    4408  	zero	T30,-ST4191	"fs
    006047  aa   000037 767641    4409  	zero	T31,-ST4191	"lb
    006050  aa   000040 767641    4410  	zero	T32,-ST4191	"le
    006051  aa   000041 767641    4411  	zero	T33,-ST4191	"sb
    006052  aa   000042 767641    4412  	zero	T34,-ST4191	"se
    006053  aa   000046 767641    4413  	zero	T38,-ST4191	"dn
    006054  aa   000047 767641    4414  	zero	T39,-ST4191	"en
    006055  aa   000050 767641    4415  	zero	T40,-ST4191	"sn
    006056  aa   000051 767641    4416  	zero	T41,-ST4191	"fak
    006057  aa   000052 767641    4417  	zero	T42,-ST4191	"fka
    006060  aa   000053 767641    4418  	zero	T43,-ST4191	"em
    006061  aa   000054 767641    4419  	zero	T44,-ST4191	"fi
    006062  aa   000055 767641    4420  	zero	T45,-ST4191	"fir
    006063  aa   000056 767641    4421  	zero	T46,-ST4191	"fv
    006064  aa   000057 767641    4422  	zero	T47,-ST4191	"fvr
    006065  aa   000060 767641    4423  	zero	T48,-ST4191	"ff
    006066  aa   000061 767641    4424  	zero	T49,-ST4191	"ffr
    006067  aa   000062 767641    4425  	zero	T50,-ST4191	"fln
    006070  aa   000063 767641    4426  	zero	T51,-ST4191	"sk
    006071  aa   000065 767641    4427  	zero	T53,-ST4191	"Kl
    006072  aa   000066 767641    4428  	zero	T54,-ST4191	"Kb
    006073  aa   000067 767641    4429  	zero	T55,-ST4191	"if
    006074  aa   000071 767641    4430  	zero	T57,-ST4191	"ag
    006075  aa   000072 767641    4431  	zero	T58,-ST4191	"cs
    006076  aa   000074 767641    4432  	zero	T60,-ST4191	"pn
    006077  aa   000075 767641    4433  	zero	T61,-ST4191	"p[
    006100  aa   000076 767641    4434  	zero	T62,-ST4191	"fmx
    006101  aa   000077 767641    4435  	zero	T63,-ST4191	"fmn
    006102  aa   000100 767641    4436  	zero	T64,-ST4191	"frs
    006103  aa   000101 767641    4437  	zero	T65,-ST4191	"||
    006104  aa   000102 767641    4438  	zero	T66,-ST4191	"<var>
    006105  aa   000104 767641    4439  	zero	T68,-ST4191	"mct
    006106  aa   000105 767641    4440  	zero	T69,-ST4191	"emt
    006107  aa   000106 767641    4441  	zero	T70,-ST4191	"emc
    006110  aa   000107 767641    4442  	zero	T71,-ST4191	"<u+>
    006111  aa   000110 767641    4443  	zero	T72,-ST4191	"<u->
                        000060    4444  	equ	LN2946,*-DPDA-ST2946-1
                                  4445  "
                                  4446  " STATE 2995
                        005663    4447  	equ	ST2995,*-DPDA
    006112  aa   000011 000061    4448  	zero	NSRD,LN2995
    006113  aa   000001 767634    4449  	zero	T1,-ST4196	"<integer>
    006114  aa   000002 767634    4450  	zero	T2,-ST4196	"<string>
    006115  aa   000006 767633    4451  	zero	T6,-ST4197	"}
    006116  aa   000007 767634    4452  	zero	T7,-ST4196	"(
    006117  aa   000010 767633    4453  	zero	T8,-ST4197	")
    006120  aa   000012 767633    4454  	zero	T10,-ST4197	".
    006121  aa   000027 767634    4455  	zero	T23,-ST4196	"a[
    006122  aa   000030 767634    4456  	zero	T24,-ST4196	"k[
    006123  aa   000031 767634    4457  	zero	T25,-ST4196	"K[
    006124  aa   000032 767634    4458  	zero	T26,-ST4196	"Ks
    006125  aa   000033 767634    4459  	zero	T27,-ST4196	"be
    006126  aa   000034 767634    4460  	zero	T28,-ST4196	"bn
    006127  aa   000035 767634    4461  	zero	T29,-ST4196	"fl
    006130  aa   000036 767634    4462  	zero	T30,-ST4196	"fs
    006131  aa   000037 767634    4463  	zero	T31,-ST4196	"lb
    006132  aa   000040 767634    4464  	zero	T32,-ST4196	"le
    006133  aa   000041 767634    4465  	zero	T33,-ST4196	"sb
    006134  aa   000042 767634    4466  	zero	T34,-ST4196	"se
    006135  aa   000046 767634    4467  	zero	T38,-ST4196	"dn
    006136  aa   000047 767634    4468  	zero	T39,-ST4196	"en
    006137  aa   000050 767634    4469  	zero	T40,-ST4196	"sn
    006140  aa   000051 767634    4470  	zero	T41,-ST4196	"fak
    006141  aa   000052 767634    4471  	zero	T42,-ST4196	"fka
    006142  aa   000053 767634    4472  	zero	T43,-ST4196	"em
    006143  aa   000054 767634    4473  	zero	T44,-ST4196	"fi
    006144  aa   000055 767634    4474  	zero	T45,-ST4196	"fir
    006145  aa   000056 767634    4475  	zero	T46,-ST4196	"fv
    006146  aa   000057 767634    4476  	zero	T47,-ST4196	"fvr
    006147  aa   000060 767634    4477  	zero	T48,-ST4196	"ff
    006150  aa   000061 767634    4478  	zero	T49,-ST4196	"ffr
    006151  aa   000062 767634    4479  	zero	T50,-ST4196	"fln
    006152  aa   000063 767634    4480  	zero	T51,-ST4196	"sk
    006153  aa   000065 767634    4481  	zero	T53,-ST4196	"Kl
    006154  aa   000066 767634    4482  	zero	T54,-ST4196	"Kb
    006155  aa   000067 767634    4483  	zero	T55,-ST4196	"if
    006156  aa   000071 767634    4484  	zero	T57,-ST4196	"ag
    006157  aa   000072 767634    4485  	zero	T58,-ST4196	"cs
    006160  aa   000074 767634    4486  	zero	T60,-ST4196	"pn
    006161  aa   000075 767634    4487  	zero	T61,-ST4196	"p[
    006162  aa   000076 767634    4488  	zero	T62,-ST4196	"fmx
    006163  aa   000077 767634    4489  	zero	T63,-ST4196	"fmn
    006164  aa   000100 767634    4490  	zero	T64,-ST4196	"frs
    006165  aa   000101 767634    4491  	zero	T65,-ST4196	"||
    006166  aa   000102 767634    4492  	zero	T66,-ST4196	"<var>
    006167  aa   000104 767634    4493  	zero	T68,-ST4196	"mct
    006170  aa   000105 767634    4494  	zero	T69,-ST4196	"emt
    006171  aa   000106 767634    4495  	zero	T70,-ST4196	"emc
    006172  aa   000107 767634    4496  	zero	T71,-ST4196	"<u+>
    006173  aa   000110 767634    4497  	zero	T72,-ST4196	"<u->
                        000061    4498  	equ	LN2995,*-DPDA-ST2995-1
                                  4499  "
                                  4500  " STATE 3045
                        005745    4501  	equ	ST3045,*-DPDA
    006174  aa   000011 000061    4502  	zero	NSRD,LN3045
    006175  aa   000001 767627    4503  	zero	T1,-ST4201	"<integer>
    006176  aa   000002 767627    4504  	zero	T2,-ST4201	"<string>
    006177  aa   000006 767626    4505  	zero	T6,-ST4202	"}
    006200  aa   000007 767627    4506  	zero	T7,-ST4201	"(
    006201  aa   000010 767626    4507  	zero	T8,-ST4202	")
    006202  aa   000012 767626    4508  	zero	T10,-ST4202	".
    006203  aa   000027 767627    4509  	zero	T23,-ST4201	"a[
    006204  aa   000030 767627    4510  	zero	T24,-ST4201	"k[
    006205  aa   000031 767627    4511  	zero	T25,-ST4201	"K[
    006206  aa   000032 767627    4512  	zero	T26,-ST4201	"Ks
    006207  aa   000033 767627    4513  	zero	T27,-ST4201	"be
    006210  aa   000034 767627    4514  	zero	T28,-ST4201	"bn
    006211  aa   000035 767627    4515  	zero	T29,-ST4201	"fl
    006212  aa   000036 767627    4516  	zero	T30,-ST4201	"fs
    006213  aa   000037 767627    4517  	zero	T31,-ST4201	"lb
    006214  aa   000040 767627    4518  	zero	T32,-ST4201	"le
    006215  aa   000041 767627    4519  	zero	T33,-ST4201	"sb
    006216  aa   000042 767627    4520  	zero	T34,-ST4201	"se
    006217  aa   000046 767627    4521  	zero	T38,-ST4201	"dn
    006220  aa   000047 767627    4522  	zero	T39,-ST4201	"en
    006221  aa   000050 767627    4523  	zero	T40,-ST4201	"sn
    006222  aa   000051 767627    4524  	zero	T41,-ST4201	"fak
    006223  aa   000052 767627    4525  	zero	T42,-ST4201	"fka
    006224  aa   000053 767627    4526  	zero	T43,-ST4201	"em
    006225  aa   000054 767627    4527  	zero	T44,-ST4201	"fi
    006226  aa   000055 767627    4528  	zero	T45,-ST4201	"fir
    006227  aa   000056 767627    4529  	zero	T46,-ST4201	"fv
    006230  aa   000057 767627    4530  	zero	T47,-ST4201	"fvr
    006231  aa   000060 767627    4531  	zero	T48,-ST4201	"ff
    006232  aa   000061 767627    4532  	zero	T49,-ST4201	"ffr
    006233  aa   000062 767627    4533  	zero	T50,-ST4201	"fln
    006234  aa   000063 767627    4534  	zero	T51,-ST4201	"sk
    006235  aa   000065 767627    4535  	zero	T53,-ST4201	"Kl
    006236  aa   000066 767627    4536  	zero	T54,-ST4201	"Kb
    006237  aa   000067 767627    4537  	zero	T55,-ST4201	"if
    006240  aa   000071 767627    4538  	zero	T57,-ST4201	"ag
    006241  aa   000072 767627    4539  	zero	T58,-ST4201	"cs
    006242  aa   000074 767627    4540  	zero	T60,-ST4201	"pn
    006243  aa   000075 767627    4541  	zero	T61,-ST4201	"p[
    006244  aa   000076 767627    4542  	zero	T62,-ST4201	"fmx
    006245  aa   000077 767627    4543  	zero	T63,-ST4201	"fmn
    006246  aa   000100 767627    4544  	zero	T64,-ST4201	"frs
    006247  aa   000101 767627    4545  	zero	T65,-ST4201	"||
    006250  aa   000102 767627    4546  	zero	T66,-ST4201	"<var>
    006251  aa   000104 767627    4547  	zero	T68,-ST4201	"mct
    006252  aa   000105 767627    4548  	zero	T69,-ST4201	"emt
    006253  aa   000106 767627    4549  	zero	T70,-ST4201	"emc
    006254  aa   000107 767627    4550  	zero	T71,-ST4201	"<u+>
    006255  aa   000110 767627    4551  	zero	T72,-ST4201	"<u->
                        000061    4552  	equ	LN3045,*-DPDA-ST3045-1
                                  4553  "
                                  4554  " STATE 3095
                        006027    4555  	equ	ST3095,*-DPDA
    006256  aa   000011 000061    4556  	zero	NSRD,LN3095
    006257  aa   000001 767622    4557  	zero	T1,-ST4206	"<integer>
    006260  aa   000002 767622    4558  	zero	T2,-ST4206	"<string>
    006261  aa   000006 767621    4559  	zero	T6,-ST4207	"}
    006262  aa   000007 767622    4560  	zero	T7,-ST4206	"(
    006263  aa   000010 767621    4561  	zero	T8,-ST4207	")
    006264  aa   000012 767621    4562  	zero	T10,-ST4207	".
    006265  aa   000027 767622    4563  	zero	T23,-ST4206	"a[
    006266  aa   000030 767622    4564  	zero	T24,-ST4206	"k[
    006267  aa   000031 767622    4565  	zero	T25,-ST4206	"K[
    006270  aa   000032 767622    4566  	zero	T26,-ST4206	"Ks
    006271  aa   000033 767622    4567  	zero	T27,-ST4206	"be
    006272  aa   000034 767622    4568  	zero	T28,-ST4206	"bn
    006273  aa   000035 767622    4569  	zero	T29,-ST4206	"fl
    006274  aa   000036 767622    4570  	zero	T30,-ST4206	"fs
    006275  aa   000037 767622    4571  	zero	T31,-ST4206	"lb
    006276  aa   000040 767622    4572  	zero	T32,-ST4206	"le
    006277  aa   000041 767622    4573  	zero	T33,-ST4206	"sb
    006300  aa   000042 767622    4574  	zero	T34,-ST4206	"se
    006301  aa   000046 767622    4575  	zero	T38,-ST4206	"dn
    006302  aa   000047 767622    4576  	zero	T39,-ST4206	"en
    006303  aa   000050 767622    4577  	zero	T40,-ST4206	"sn
    006304  aa   000051 767622    4578  	zero	T41,-ST4206	"fak
    006305  aa   000052 767622    4579  	zero	T42,-ST4206	"fka
    006306  aa   000053 767622    4580  	zero	T43,-ST4206	"em
    006307  aa   000054 767622    4581  	zero	T44,-ST4206	"fi
    006310  aa   000055 767622    4582  	zero	T45,-ST4206	"fir
    006311  aa   000056 767622    4583  	zero	T46,-ST4206	"fv
    006312  aa   000057 767622    4584  	zero	T47,-ST4206	"fvr
    006313  aa   000060 767622    4585  	zero	T48,-ST4206	"ff
    006314  aa   000061 767622    4586  	zero	T49,-ST4206	"ffr
    006315  aa   000062 767622    4587  	zero	T50,-ST4206	"fln
    006316  aa   000063 767622    4588  	zero	T51,-ST4206	"sk
    006317  aa   000065 767622    4589  	zero	T53,-ST4206	"Kl
    006320  aa   000066 767622    4590  	zero	T54,-ST4206	"Kb
    006321  aa   000067 767622    4591  	zero	T55,-ST4206	"if
    006322  aa   000071 767622    4592  	zero	T57,-ST4206	"ag
    006323  aa   000072 767622    4593  	zero	T58,-ST4206	"cs
    006324  aa   000074 767622    4594  	zero	T60,-ST4206	"pn
    006325  aa   000075 767622    4595  	zero	T61,-ST4206	"p[
    006326  aa   000076 767622    4596  	zero	T62,-ST4206	"fmx
    006327  aa   000077 767622    4597  	zero	T63,-ST4206	"fmn
    006330  aa   000100 767622    4598  	zero	T64,-ST4206	"frs
    006331  aa   000101 767622    4599  	zero	T65,-ST4206	"||
    006332  aa   000102 767622    4600  	zero	T66,-ST4206	"<var>
    006333  aa   000104 767622    4601  	zero	T68,-ST4206	"mct
    006334  aa   000105 767622    4602  	zero	T69,-ST4206	"emt
    006335  aa   000106 767622    4603  	zero	T70,-ST4206	"emc
    006336  aa   000107 767622    4604  	zero	T71,-ST4206	"<u+>
    006337  aa   000110 767622    4605  	zero	T72,-ST4206	"<u->
                        000061    4606  	equ	LN3095,*-DPDA-ST3095-1
                                  4607  "
                                  4608  " STATE 3145
                        006111    4609  	equ	ST3145,*-DPDA
    006340  aa   000000 000061    4610  	zero	STRD,LN3145
    006341  aa   000001 000601    4611  	zero	T1,ST385	"<integer>
    006342  aa   000002 001454    4612  	zero	T2,ST812	"<string>
    006343  aa   000004 007070    4613  	zero	T4,ST3640	",
    006344  aa   000007 000711    4614  	zero	T7,ST457	"(
    006345  aa   000010 007071    4615  	zero	T8,ST3641	")
    006346  aa   000011 007075    4616  	zero	T9,ST3645	":
    006347  aa   000027 001521    4617  	zero	T23,ST849	"a[
    006350  aa   000030 001522    4618  	zero	T24,ST850	"k[
    006351  aa   000031 001523    4619  	zero	T25,ST851	"K[
    006352  aa   000032 000772    4620  	zero	T26,ST506	"Ks
    006353  aa   000033 000776    4621  	zero	T27,ST510	"be
    006354  aa   000034 001002    4622  	zero	T28,ST514	"bn
    006355  aa   000035 001006    4623  	zero	T29,ST518	"fl
    006356  aa   000036 001010    4624  	zero	T30,ST520	"fs
    006357  aa   000037 001012    4625  	zero	T31,ST522	"lb
    006360  aa   000040 001016    4626  	zero	T32,ST526	"le
    006361  aa   000041 001022    4627  	zero	T33,ST530	"sb
    006362  aa   000042 001026    4628  	zero	T34,ST534	"se
    006363  aa   000046 001040    4629  	zero	T38,ST544	"dn
    006364  aa   000047 001044    4630  	zero	T39,ST548	"en
    006365  aa   000050 001050    4631  	zero	T40,ST552	"sn
    006366  aa   000051 001054    4632  	zero	T41,ST556	"fak
    006367  aa   000052 001056    4633  	zero	T42,ST558	"fka
    006370  aa   000053 001060    4634  	zero	T43,ST560	"em
    006371  aa   000054 001064    4635  	zero	T44,ST564	"fi
    006372  aa   000055 001066    4636  	zero	T45,ST566	"fir
    006373  aa   000056 001070    4637  	zero	T46,ST568	"fv
    006374  aa   000057 001072    4638  	zero	T47,ST570	"fvr
    006375  aa   000060 001074    4639  	zero	T48,ST572	"ff
    006376  aa   000061 001076    4640  	zero	T49,ST574	"ffr
    006377  aa   000062 001100    4641  	zero	T50,ST576	"fln
    006400  aa   000063 001102    4642  	zero	T51,ST578	"sk
    006401  aa   000065 001106    4643  	zero	T53,ST582	"Kl
    006402  aa   000066 001112    4644  	zero	T54,ST586	"Kb
    006403  aa   000067 001116    4645  	zero	T55,ST590	"if
    006404  aa   000071 001120    4646  	zero	T57,ST592	"ag
    006405  aa   000072 001124    4647  	zero	T58,ST596	"cs
    006406  aa   000074 001130    4648  	zero	T60,ST600	"pn
    006407  aa   000075 001134    4649  	zero	T61,ST604	"p[
    006410  aa   000076 001135    4650  	zero	T62,ST605	"fmx
    006411  aa   000077 001141    4651  	zero	T63,ST609	"fmn
    006412  aa   000100 001145    4652  	zero	T64,ST613	"frs
    006413  aa   000101 001533    4653  	zero	T65,ST859	"||
    006414  aa   000102 001534    4654  	zero	T66,ST860	"<var>
    006415  aa   000104 001251    4655  	zero	T68,ST681	"mct
    006416  aa   000105 001253    4656  	zero	T69,ST683	"emt
    006417  aa   000106 001255    4657  	zero	T70,ST685	"emc
    006420  aa   000107 001257    4658  	zero	T71,ST687	"<u+>
    006421  aa   000110 001333    4659  	zero	T72,ST731	"<u->
                        000061    4660  	equ	LN3145,*-DPDA-ST3145-1
                                  4661  "
                                  4662  " STATE 3195
                        006173    4663  	equ	ST3195,*-DPDA
    006422  aa   000000 000057    4664  	zero	STRD,LN3195
    006423  aa   000001 000601    4665  	zero	T1,ST385	"<integer>
    006424  aa   000002 001454    4666  	zero	T2,ST812	"<string>
    006425  aa   000007 000711    4667  	zero	T7,ST457	"(
    006426  aa   000010 007076    4668  	zero	T8,ST3646	")
    006427  aa   000027 001521    4669  	zero	T23,ST849	"a[
    006430  aa   000030 001522    4670  	zero	T24,ST850	"k[
    006431  aa   000031 001523    4671  	zero	T25,ST851	"K[
    006432  aa   000032 000772    4672  	zero	T26,ST506	"Ks
    006433  aa   000033 000776    4673  	zero	T27,ST510	"be
    006434  aa   000034 001002    4674  	zero	T28,ST514	"bn
    006435  aa   000035 001006    4675  	zero	T29,ST518	"fl
    006436  aa   000036 001010    4676  	zero	T30,ST520	"fs
    006437  aa   000037 001012    4677  	zero	T31,ST522	"lb
    006440  aa   000040 001016    4678  	zero	T32,ST526	"le
    006441  aa   000041 001022    4679  	zero	T33,ST530	"sb
    006442  aa   000042 001026    4680  	zero	T34,ST534	"se
    006443  aa   000046 001040    4681  	zero	T38,ST544	"dn
    006444  aa   000047 001044    4682  	zero	T39,ST548	"en
    006445  aa   000050 001050    4683  	zero	T40,ST552	"sn
    006446  aa   000051 001054    4684  	zero	T41,ST556	"fak
    006447  aa   000052 001056    4685  	zero	T42,ST558	"fka
    006450  aa   000053 001060    4686  	zero	T43,ST560	"em
    006451  aa   000054 001064    4687  	zero	T44,ST564	"fi
    006452  aa   000055 001066    4688  	zero	T45,ST566	"fir
    006453  aa   000056 001070    4689  	zero	T46,ST568	"fv
    006454  aa   000057 001072    4690  	zero	T47,ST570	"fvr
    006455  aa   000060 001074    4691  	zero	T48,ST572	"ff
    006456  aa   000061 001076    4692  	zero	T49,ST574	"ffr
    006457  aa   000062 001100    4693  	zero	T50,ST576	"fln
    006460  aa   000063 001102    4694  	zero	T51,ST578	"sk
    006461  aa   000065 001106    4695  	zero	T53,ST582	"Kl
    006462  aa   000066 001112    4696  	zero	T54,ST586	"Kb
    006463  aa   000067 001116    4697  	zero	T55,ST590	"if
    006464  aa   000071 001120    4698  	zero	T57,ST592	"ag
    006465  aa   000072 001124    4699  	zero	T58,ST596	"cs
    006466  aa   000074 001130    4700  	zero	T60,ST600	"pn
    006467  aa   000075 001134    4701  	zero	T61,ST604	"p[
    006470  aa   000076 001135    4702  	zero	T62,ST605	"fmx
    006471  aa   000077 001141    4703  	zero	T63,ST609	"fmn
    006472  aa   000100 001145    4704  	zero	T64,ST613	"frs
    006473  aa   000101 001533    4705  	zero	T65,ST859	"||
    006474  aa   000102 001534    4706  	zero	T66,ST860	"<var>
    006475  aa   000104 001251    4707  	zero	T68,ST681	"mct
    006476  aa   000105 001253    4708  	zero	T69,ST683	"emt
    006477  aa   000106 001255    4709  	zero	T70,ST685	"emc
    006500  aa   000107 001257    4710  	zero	T71,ST687	"<u+>
    006501  aa   000110 001333    4711  	zero	T72,ST731	"<u->
                        000057    4712  	equ	LN3195,*-DPDA-ST3195-1
                                  4713  "
                                  4714  " STATE 3243
                        006253    4715  	equ	ST3243,*-DPDA
    006502  aa   000000 000057    4716  	zero	STRD,LN3243
    006503  aa   000001 000601    4717  	zero	T1,ST385	"<integer>
    006504  aa   000002 001454    4718  	zero	T2,ST812	"<string>
    006505  aa   000007 000711    4719  	zero	T7,ST457	"(
    006506  aa   000010 007102    4720  	zero	T8,ST3650	")
    006507  aa   000027 001521    4721  	zero	T23,ST849	"a[
    006510  aa   000030 001522    4722  	zero	T24,ST850	"k[
    006511  aa   000031 001523    4723  	zero	T25,ST851	"K[
    006512  aa   000032 000772    4724  	zero	T26,ST506	"Ks
    006513  aa   000033 000776    4725  	zero	T27,ST510	"be
    006514  aa   000034 001002    4726  	zero	T28,ST514	"bn
    006515  aa   000035 001006    4727  	zero	T29,ST518	"fl
    006516  aa   000036 001010    4728  	zero	T30,ST520	"fs
    006517  aa   000037 001012    4729  	zero	T31,ST522	"lb
    006520  aa   000040 001016    4730  	zero	T32,ST526	"le
    006521  aa   000041 001022    4731  	zero	T33,ST530	"sb
    006522  aa   000042 001026    4732  	zero	T34,ST534	"se
    006523  aa   000046 001040    4733  	zero	T38,ST544	"dn
    006524  aa   000047 001044    4734  	zero	T39,ST548	"en
    006525  aa   000050 001050    4735  	zero	T40,ST552	"sn
    006526  aa   000051 001054    4736  	zero	T41,ST556	"fak
    006527  aa   000052 001056    4737  	zero	T42,ST558	"fka
    006530  aa   000053 001060    4738  	zero	T43,ST560	"em
    006531  aa   000054 001064    4739  	zero	T44,ST564	"fi
    006532  aa   000055 001066    4740  	zero	T45,ST566	"fir
    006533  aa   000056 001070    4741  	zero	T46,ST568	"fv
    006534  aa   000057 001072    4742  	zero	T47,ST570	"fvr
    006535  aa   000060 001074    4743  	zero	T48,ST572	"ff
    006536  aa   000061 001076    4744  	zero	T49,ST574	"ffr
    006537  aa   000062 001100    4745  	zero	T50,ST576	"fln
    006540  aa   000063 001102    4746  	zero	T51,ST578	"sk
    006541  aa   000065 001106    4747  	zero	T53,ST582	"Kl
    006542  aa   000066 001112    4748  	zero	T54,ST586	"Kb
    006543  aa   000067 001116    4749  	zero	T55,ST590	"if
    006544  aa   000071 001120    4750  	zero	T57,ST592	"ag
    006545  aa   000072 001124    4751  	zero	T58,ST596	"cs
    006546  aa   000074 001130    4752  	zero	T60,ST600	"pn
    006547  aa   000075 001134    4753  	zero	T61,ST604	"p[
    006550  aa   000076 001135    4754  	zero	T62,ST605	"fmx
    006551  aa   000077 001141    4755  	zero	T63,ST609	"fmn
    006552  aa   000100 001145    4756  	zero	T64,ST613	"frs
    006553  aa   000101 001533    4757  	zero	T65,ST859	"||
    006554  aa   000102 001534    4758  	zero	T66,ST860	"<var>
    006555  aa   000104 001251    4759  	zero	T68,ST681	"mct
    006556  aa   000105 001253    4760  	zero	T69,ST683	"emt
    006557  aa   000106 001255    4761  	zero	T70,ST685	"emc
    006560  aa   000107 001257    4762  	zero	T71,ST687	"<u+>
    006561  aa   000110 001333    4763  	zero	T72,ST731	"<u->
                        000057    4764  	equ	LN3243,*-DPDA-ST3243-1
                                  4765  "
                                  4766  " STATE 3291
                        006333    4767  	equ	ST3291,*-DPDA
    006562  aa   000000 000057    4768  	zero	STRD,LN3291
    006563  aa   000001 000601    4769  	zero	T1,ST385	"<integer>
    006564  aa   000002 001454    4770  	zero	T2,ST812	"<string>
    006565  aa   000007 000711    4771  	zero	T7,ST457	"(
    006566  aa   000010 007106    4772  	zero	T8,ST3654	")
    006567  aa   000027 001521    4773  	zero	T23,ST849	"a[
    006570  aa   000030 001522    4774  	zero	T24,ST850	"k[
    006571  aa   000031 001523    4775  	zero	T25,ST851	"K[
    006572  aa   000032 000772    4776  	zero	T26,ST506	"Ks
    006573  aa   000033 000776    4777  	zero	T27,ST510	"be
    006574  aa   000034 001002    4778  	zero	T28,ST514	"bn
    006575  aa   000035 001006    4779  	zero	T29,ST518	"fl
    006576  aa   000036 001010    4780  	zero	T30,ST520	"fs
    006577  aa   000037 001012    4781  	zero	T31,ST522	"lb
    006600  aa   000040 001016    4782  	zero	T32,ST526	"le
    006601  aa   000041 001022    4783  	zero	T33,ST530	"sb
    006602  aa   000042 001026    4784  	zero	T34,ST534	"se
    006603  aa   000046 001040    4785  	zero	T38,ST544	"dn
    006604  aa   000047 001044    4786  	zero	T39,ST548	"en
    006605  aa   000050 001050    4787  	zero	T40,ST552	"sn
    006606  aa   000051 001054    4788  	zero	T41,ST556	"fak
    006607  aa   000052 001056    4789  	zero	T42,ST558	"fka
    006610  aa   000053 001060    4790  	zero	T43,ST560	"em
    006611  aa   000054 001064    4791  	zero	T44,ST564	"fi
    006612  aa   000055 001066    4792  	zero	T45,ST566	"fir
    006613  aa   000056 001070    4793  	zero	T46,ST568	"fv
    006614  aa   000057 001072    4794  	zero	T47,ST570	"fvr
    006615  aa   000060 001074    4795  	zero	T48,ST572	"ff
    006616  aa   000061 001076    4796  	zero	T49,ST574	"ffr
    006617  aa   000062 001100    4797  	zero	T50,ST576	"fln
    006620  aa   000063 001102    4798  	zero	T51,ST578	"sk
    006621  aa   000065 001106    4799  	zero	T53,ST582	"Kl
    006622  aa   000066 001112    4800  	zero	T54,ST586	"Kb
    006623  aa   000067 001116    4801  	zero	T55,ST590	"if
    006624  aa   000071 001120    4802  	zero	T57,ST592	"ag
    006625  aa   000072 001124    4803  	zero	T58,ST596	"cs
    006626  aa   000074 001130    4804  	zero	T60,ST600	"pn
    006627  aa   000075 001134    4805  	zero	T61,ST604	"p[
    006630  aa   000076 001135    4806  	zero	T62,ST605	"fmx
    006631  aa   000077 001141    4807  	zero	T63,ST609	"fmn
    006632  aa   000100 001145    4808  	zero	T64,ST613	"frs
    006633  aa   000101 001533    4809  	zero	T65,ST859	"||
    006634  aa   000102 001534    4810  	zero	T66,ST860	"<var>
    006635  aa   000104 001251    4811  	zero	T68,ST681	"mct
    006636  aa   000105 001253    4812  	zero	T69,ST683	"emt
    006637  aa   000106 001255    4813  	zero	T70,ST685	"emc
    006640  aa   000107 001257    4814  	zero	T71,ST687	"<u+>
    006641  aa   000110 001333    4815  	zero	T72,ST731	"<u->
                        000057    4816  	equ	LN3291,*-DPDA-ST3291-1
                                  4817  "
                                  4818  " STATE 3339
                        006413    4819  	equ	ST3339,*-DPDA
    006642  aa   000000 000057    4820  	zero	STRD,LN3339
    006643  aa   000001 000601    4821  	zero	T1,ST385	"<integer>
    006644  aa   000002 001454    4822  	zero	T2,ST812	"<string>
    006645  aa   000007 000711    4823  	zero	T7,ST457	"(
    006646  aa   000010 007112    4824  	zero	T8,ST3658	")
    006647  aa   000027 001521    4825  	zero	T23,ST849	"a[
    006650  aa   000030 001522    4826  	zero	T24,ST850	"k[
    006651  aa   000031 001523    4827  	zero	T25,ST851	"K[
    006652  aa   000032 000772    4828  	zero	T26,ST506	"Ks
    006653  aa   000033 000776    4829  	zero	T27,ST510	"be
    006654  aa   000034 001002    4830  	zero	T28,ST514	"bn
    006655  aa   000035 001006    4831  	zero	T29,ST518	"fl
    006656  aa   000036 001010    4832  	zero	T30,ST520	"fs
    006657  aa   000037 001012    4833  	zero	T31,ST522	"lb
    006660  aa   000040 001016    4834  	zero	T32,ST526	"le
    006661  aa   000041 001022    4835  	zero	T33,ST530	"sb
    006662  aa   000042 001026    4836  	zero	T34,ST534	"se
    006663  aa   000046 001040    4837  	zero	T38,ST544	"dn
    006664  aa   000047 001044    4838  	zero	T39,ST548	"en
    006665  aa   000050 001050    4839  	zero	T40,ST552	"sn
    006666  aa   000051 001054    4840  	zero	T41,ST556	"fak
    006667  aa   000052 001056    4841  	zero	T42,ST558	"fka
    006670  aa   000053 001060    4842  	zero	T43,ST560	"em
    006671  aa   000054 001064    4843  	zero	T44,ST564	"fi
    006672  aa   000055 001066    4844  	zero	T45,ST566	"fir
    006673  aa   000056 001070    4845  	zero	T46,ST568	"fv
    006674  aa   000057 001072    4846  	zero	T47,ST570	"fvr
    006675  aa   000060 001074    4847  	zero	T48,ST572	"ff
    006676  aa   000061 001076    4848  	zero	T49,ST574	"ffr
    006677  aa   000062 001100    4849  	zero	T50,ST576	"fln
    006700  aa   000063 001102    4850  	zero	T51,ST578	"sk
    006701  aa   000065 001106    4851  	zero	T53,ST582	"Kl
    006702  aa   000066 001112    4852  	zero	T54,ST586	"Kb
    006703  aa   000067 001116    4853  	zero	T55,ST590	"if
    006704  aa   000071 001120    4854  	zero	T57,ST592	"ag
    006705  aa   000072 001124    4855  	zero	T58,ST596	"cs
    006706  aa   000074 001130    4856  	zero	T60,ST600	"pn
    006707  aa   000075 001134    4857  	zero	T61,ST604	"p[
    006710  aa   000076 001135    4858  	zero	T62,ST605	"fmx
    006711  aa   000077 001141    4859  	zero	T63,ST609	"fmn
    006712  aa   000100 001145    4860  	zero	T64,ST613	"frs
    006713  aa   000101 001533    4861  	zero	T65,ST859	"||
    006714  aa   000102 001534    4862  	zero	T66,ST860	"<var>
    006715  aa   000104 001251    4863  	zero	T68,ST681	"mct
    006716  aa   000105 001253    4864  	zero	T69,ST683	"emt
    006717  aa   000106 001255    4865  	zero	T70,ST685	"emc
    006720  aa   000107 001257    4866  	zero	T71,ST687	"<u+>
    006721  aa   000110 001333    4867  	zero	T72,ST731	"<u->
                        000057    4868  	equ	LN3339,*-DPDA-ST3339-1
                                  4869  "
                                  4870  " STATE 3387
                        006473    4871  	equ	ST3387,*-DPDA
    006722  aa   000000 000001    4872  	zero	STRD,LN3387
    006723  aa   000010 007116    4873  	zero	T8,ST3662	")
                        000001    4874  	equ	LN3387,*-DPDA-ST3387-1
                                  4875  "
                                  4876  " STATE 3389
                        006475    4877  	equ	ST3389,*-DPDA
    006724  aa   000000 000057    4878  	zero	STRD,LN3389
    006725  aa   000001 000601    4879  	zero	T1,ST385	"<integer>
    006726  aa   000002 001454    4880  	zero	T2,ST812	"<string>
    006727  aa   000007 000711    4881  	zero	T7,ST457	"(
    006730  aa   000010 007122    4882  	zero	T8,ST3666	")
    006731  aa   000027 001521    4883  	zero	T23,ST849	"a[
    006732  aa   000030 001522    4884  	zero	T24,ST850	"k[
    006733  aa   000031 001523    4885  	zero	T25,ST851	"K[
    006734  aa   000032 000772    4886  	zero	T26,ST506	"Ks
    006735  aa   000033 000776    4887  	zero	T27,ST510	"be
    006736  aa   000034 001002    4888  	zero	T28,ST514	"bn
    006737  aa   000035 001006    4889  	zero	T29,ST518	"fl
    006740  aa   000036 001010    4890  	zero	T30,ST520	"fs
    006741  aa   000037 001012    4891  	zero	T31,ST522	"lb
    006742  aa   000040 001016    4892  	zero	T32,ST526	"le
    006743  aa   000041 001022    4893  	zero	T33,ST530	"sb
    006744  aa   000042 001026    4894  	zero	T34,ST534	"se
    006745  aa   000046 001040    4895  	zero	T38,ST544	"dn
    006746  aa   000047 001044    4896  	zero	T39,ST548	"en
    006747  aa   000050 001050    4897  	zero	T40,ST552	"sn
    006750  aa   000051 001054    4898  	zero	T41,ST556	"fak
    006751  aa   000052 001056    4899  	zero	T42,ST558	"fka
    006752  aa   000053 001060    4900  	zero	T43,ST560	"em
    006753  aa   000054 001064    4901  	zero	T44,ST564	"fi
    006754  aa   000055 001066    4902  	zero	T45,ST566	"fir
    006755  aa   000056 001070    4903  	zero	T46,ST568	"fv
    006756  aa   000057 001072    4904  	zero	T47,ST570	"fvr
    006757  aa   000060 001074    4905  	zero	T48,ST572	"ff
    006760  aa   000061 001076    4906  	zero	T49,ST574	"ffr
    006761  aa   000062 001100    4907  	zero	T50,ST576	"fln
    006762  aa   000063 001102    4908  	zero	T51,ST578	"sk
    006763  aa   000065 001106    4909  	zero	T53,ST582	"Kl
    006764  aa   000066 001112    4910  	zero	T54,ST586	"Kb
    006765  aa   000067 001116    4911  	zero	T55,ST590	"if
    006766  aa   000071 001120    4912  	zero	T57,ST592	"ag
    006767  aa   000072 001124    4913  	zero	T58,ST596	"cs
    006770  aa   000074 001130    4914  	zero	T60,ST600	"pn
    006771  aa   000075 001134    4915  	zero	T61,ST604	"p[
    006772  aa   000076 001135    4916  	zero	T62,ST605	"fmx
    006773  aa   000077 001141    4917  	zero	T63,ST609	"fmn
    006774  aa   000100 001145    4918  	zero	T64,ST613	"frs
    006775  aa   000101 001533    4919  	zero	T65,ST859	"||
    006776  aa   000102 001534    4920  	zero	T66,ST860	"<var>
    006777  aa   000104 001251    4921  	zero	T68,ST681	"mct
    007000  aa   000105 001253    4922  	zero	T69,ST683	"emt
    007001  aa   000106 001255    4923  	zero	T70,ST685	"emc
    007002  aa   000107 001257    4924  	zero	T71,ST687	"<u+>
    007003  aa   000110 001333    4925  	zero	T72,ST731	"<u->
                        000057    4926  	equ	LN3389,*-DPDA-ST3389-1
                                  4927  "
                                  4928  " STATE 3437
                        006555    4929  	equ	ST3437,*-DPDA
    007004  aa   000000 000001    4930  	zero	STRD,LN3437
    007005  aa   000010 007126    4931  	zero	T8,ST3670	")
                        000001    4932  	equ	LN3437,*-DPDA-ST3437-1
                                  4933  "
                                  4934  " STATE 3439
                        006557    4935  	equ	ST3439,*-DPDA
    007006  aa   000000 000057    4936  	zero	STRD,LN3439
    007007  aa   000001 000601    4937  	zero	T1,ST385	"<integer>
    007010  aa   000002 001454    4938  	zero	T2,ST812	"<string>
    007011  aa   000007 000711    4939  	zero	T7,ST457	"(
    007012  aa   000010 007132    4940  	zero	T8,ST3674	")
    007013  aa   000027 001521    4941  	zero	T23,ST849	"a[
    007014  aa   000030 001522    4942  	zero	T24,ST850	"k[
    007015  aa   000031 001523    4943  	zero	T25,ST851	"K[
    007016  aa   000032 000772    4944  	zero	T26,ST506	"Ks
    007017  aa   000033 000776    4945  	zero	T27,ST510	"be
    007020  aa   000034 001002    4946  	zero	T28,ST514	"bn
    007021  aa   000035 001006    4947  	zero	T29,ST518	"fl
    007022  aa   000036 001010    4948  	zero	T30,ST520	"fs
    007023  aa   000037 001012    4949  	zero	T31,ST522	"lb
    007024  aa   000040 001016    4950  	zero	T32,ST526	"le
    007025  aa   000041 001022    4951  	zero	T33,ST530	"sb
    007026  aa   000042 001026    4952  	zero	T34,ST534	"se
    007027  aa   000046 001040    4953  	zero	T38,ST544	"dn
    007030  aa   000047 001044    4954  	zero	T39,ST548	"en
    007031  aa   000050 001050    4955  	zero	T40,ST552	"sn
    007032  aa   000051 001054    4956  	zero	T41,ST556	"fak
    007033  aa   000052 001056    4957  	zero	T42,ST558	"fka
    007034  aa   000053 001060    4958  	zero	T43,ST560	"em
    007035  aa   000054 001064    4959  	zero	T44,ST564	"fi
    007036  aa   000055 001066    4960  	zero	T45,ST566	"fir
    007037  aa   000056 001070    4961  	zero	T46,ST568	"fv
    007040  aa   000057 001072    4962  	zero	T47,ST570	"fvr
    007041  aa   000060 001074    4963  	zero	T48,ST572	"ff
    007042  aa   000061 001076    4964  	zero	T49,ST574	"ffr
    007043  aa   000062 001100    4965  	zero	T50,ST576	"fln
    007044  aa   000063 001102    4966  	zero	T51,ST578	"sk
    007045  aa   000065 001106    4967  	zero	T53,ST582	"Kl
    007046  aa   000066 001112    4968  	zero	T54,ST586	"Kb
    007047  aa   000067 001116    4969  	zero	T55,ST590	"if
    007050  aa   000071 001120    4970  	zero	T57,ST592	"ag
    007051  aa   000072 001124    4971  	zero	T58,ST596	"cs
    007052  aa   000074 001130    4972  	zero	T60,ST600	"pn
    007053  aa   000075 001134    4973  	zero	T61,ST604	"p[
    007054  aa   000076 001135    4974  	zero	T62,ST605	"fmx
    007055  aa   000077 001141    4975  	zero	T63,ST609	"fmn
    007056  aa   000100 001145    4976  	zero	T64,ST613	"frs
    007057  aa   000101 001533    4977  	zero	T65,ST859	"||
    007060  aa   000102 001534    4978  	zero	T66,ST860	"<var>
    007061  aa   000104 001251    4979  	zero	T68,ST681	"mct
    007062  aa   000105 001253    4980  	zero	T69,ST683	"emt
    007063  aa   000106 001255    4981  	zero	T70,ST685	"emc
    007064  aa   000107 001257    4982  	zero	T71,ST687	"<u+>
    007065  aa   000110 001333    4983  	zero	T72,ST731	"<u->
                        000057    4984  	equ	LN3439,*-DPDA-ST3439-1
                                  4985  "
                                  4986  " STATE 3487
                        006637    4987  	equ	ST3487,*-DPDA
    007066  aa   000000 000001    4988  	zero	STRD,LN3487
    007067  aa   000010 007136    4989  	zero	T8,ST3678	")
                        000001    4990  	equ	LN3487,*-DPDA-ST3487-1
                                  4991  "
                                  4992  " STATE 3489
                        006641    4993  	equ	ST3489,*-DPDA
    007070  aa   000000 000057    4994  	zero	STRD,LN3489
    007071  aa   000001 000601    4995  	zero	T1,ST385	"<integer>
    007072  aa   000002 001454    4996  	zero	T2,ST812	"<string>
    007073  aa   000007 000711    4997  	zero	T7,ST457	"(
    007074  aa   000010 007142    4998  	zero	T8,ST3682	")
    007075  aa   000027 001521    4999  	zero	T23,ST849	"a[
    007076  aa   000030 001522    5000  	zero	T24,ST850	"k[
    007077  aa   000031 001523    5001  	zero	T25,ST851	"K[
    007100  aa   000032 000772    5002  	zero	T26,ST506	"Ks
    007101  aa   000033 000776    5003  	zero	T27,ST510	"be
    007102  aa   000034 001002    5004  	zero	T28,ST514	"bn
    007103  aa   000035 001006    5005  	zero	T29,ST518	"fl
    007104  aa   000036 001010    5006  	zero	T30,ST520	"fs
    007105  aa   000037 001012    5007  	zero	T31,ST522	"lb
    007106  aa   000040 001016    5008  	zero	T32,ST526	"le
    007107  aa   000041 001022    5009  	zero	T33,ST530	"sb
    007110  aa   000042 001026    5010  	zero	T34,ST534	"se
    007111  aa   000046 001040    5011  	zero	T38,ST544	"dn
    007112  aa   000047 001044    5012  	zero	T39,ST548	"en
    007113  aa   000050 001050    5013  	zero	T40,ST552	"sn
    007114  aa   000051 001054    5014  	zero	T41,ST556	"fak
    007115  aa   000052 001056    5015  	zero	T42,ST558	"fka
    007116  aa   000053 001060    5016  	zero	T43,ST560	"em
    007117  aa   000054 001064    5017  	zero	T44,ST564	"fi
    007120  aa   000055 001066    5018  	zero	T45,ST566	"fir
    007121  aa   000056 001070    5019  	zero	T46,ST568	"fv
    007122  aa   000057 001072    5020  	zero	T47,ST570	"fvr
    007123  aa   000060 001074    5021  	zero	T48,ST572	"ff
    007124  aa   000061 001076    5022  	zero	T49,ST574	"ffr
    007125  aa   000062 001100    5023  	zero	T50,ST576	"fln
    007126  aa   000063 001102    5024  	zero	T51,ST578	"sk
    007127  aa   000065 001106    5025  	zero	T53,ST582	"Kl
    007130  aa   000066 001112    5026  	zero	T54,ST586	"Kb
    007131  aa   000067 001116    5027  	zero	T55,ST590	"if
    007132  aa   000071 001120    5028  	zero	T57,ST592	"ag
    007133  aa   000072 001124    5029  	zero	T58,ST596	"cs
    007134  aa   000074 001130    5030  	zero	T60,ST600	"pn
    007135  aa   000075 001134    5031  	zero	T61,ST604	"p[
    007136  aa   000076 001135    5032  	zero	T62,ST605	"fmx
    007137  aa   000077 001141    5033  	zero	T63,ST609	"fmn
    007140  aa   000100 001145    5034  	zero	T64,ST613	"frs
    007141  aa   000101 001533    5035  	zero	T65,ST859	"||
    007142  aa   000102 001534    5036  	zero	T66,ST860	"<var>
    007143  aa   000104 001251    5037  	zero	T68,ST681	"mct
    007144  aa   000105 001253    5038  	zero	T69,ST683	"emt
    007145  aa   000106 001255    5039  	zero	T70,ST685	"emc
    007146  aa   000107 001257    5040  	zero	T71,ST687	"<u+>
    007147  aa   000110 001333    5041  	zero	T72,ST731	"<u->
                        000057    5042  	equ	LN3489,*-DPDA-ST3489-1
                                  5043  "
                                  5044  " STATE 3537
                        006721    5045  	equ	ST3537,*-DPDA
    007150  aa   000000 000001    5046  	zero	STRD,LN3537
    007151  aa   000010 007146    5047  	zero	T8,ST3686	")
                        000001    5048  	equ	LN3537,*-DPDA-ST3537-1
                                  5049  "
                                  5050  " STATE 3539
                        006723    5051  	equ	ST3539,*-DPDA
    007152  aa   000000 000060    5052  	zero	STRD,LN3539
    007153  aa   000001 000601    5053  	zero	T1,ST385	"<integer>
    007154  aa   000002 001454    5054  	zero	T2,ST812	"<string>
    007155  aa   000004 007152    5055  	zero	T4,ST3690	",
    007156  aa   000007 000711    5056  	zero	T7,ST457	"(
    007157  aa   000010 007153    5057  	zero	T8,ST3691	")
    007160  aa   000027 001521    5058  	zero	T23,ST849	"a[
    007161  aa   000030 001522    5059  	zero	T24,ST850	"k[
    007162  aa   000031 001523    5060  	zero	T25,ST851	"K[
    007163  aa   000032 000772    5061  	zero	T26,ST506	"Ks
    007164  aa   000033 000776    5062  	zero	T27,ST510	"be
    007165  aa   000034 001002    5063  	zero	T28,ST514	"bn
    007166  aa   000035 001006    5064  	zero	T29,ST518	"fl
    007167  aa   000036 001010    5065  	zero	T30,ST520	"fs
    007170  aa   000037 001012    5066  	zero	T31,ST522	"lb
    007171  aa   000040 001016    5067  	zero	T32,ST526	"le
    007172  aa   000041 001022    5068  	zero	T33,ST530	"sb
    007173  aa   000042 001026    5069  	zero	T34,ST534	"se
    007174  aa   000046 001040    5070  	zero	T38,ST544	"dn
    007175  aa   000047 001044    5071  	zero	T39,ST548	"en
    007176  aa   000050 001050    5072  	zero	T40,ST552	"sn
    007177  aa   000051 001054    5073  	zero	T41,ST556	"fak
    007200  aa   000052 001056    5074  	zero	T42,ST558	"fka
    007201  aa   000053 001060    5075  	zero	T43,ST560	"em
    007202  aa   000054 001064    5076  	zero	T44,ST564	"fi
    007203  aa   000055 001066    5077  	zero	T45,ST566	"fir
    007204  aa   000056 001070    5078  	zero	T46,ST568	"fv
    007205  aa   000057 001072    5079  	zero	T47,ST570	"fvr
    007206  aa   000060 001074    5080  	zero	T48,ST572	"ff
    007207  aa   000061 001076    5081  	zero	T49,ST574	"ffr
    007210  aa   000062 001100    5082  	zero	T50,ST576	"fln
    007211  aa   000063 001102    5083  	zero	T51,ST578	"sk
    007212  aa   000065 001106    5084  	zero	T53,ST582	"Kl
    007213  aa   000066 001112    5085  	zero	T54,ST586	"Kb
    007214  aa   000067 001116    5086  	zero	T55,ST590	"if
    007215  aa   000071 001120    5087  	zero	T57,ST592	"ag
    007216  aa   000072 001124    5088  	zero	T58,ST596	"cs
    007217  aa   000074 001130    5089  	zero	T60,ST600	"pn
    007220  aa   000075 001134    5090  	zero	T61,ST604	"p[
    007221  aa   000076 001135    5091  	zero	T62,ST605	"fmx
    007222  aa   000077 001141    5092  	zero	T63,ST609	"fmn
    007223  aa   000100 001145    5093  	zero	T64,ST613	"frs
    007224  aa   000101 001533    5094  	zero	T65,ST859	"||
    007225  aa   000102 001534    5095  	zero	T66,ST860	"<var>
    007226  aa   000104 001251    5096  	zero	T68,ST681	"mct
    007227  aa   000105 001253    5097  	zero	T69,ST683	"emt
    007230  aa   000106 001255    5098  	zero	T70,ST685	"emc
    007231  aa   000107 001257    5099  	zero	T71,ST687	"<u+>
    007232  aa   000110 001333    5100  	zero	T72,ST731	"<u->
                        000060    5101  	equ	LN3539,*-DPDA-ST3539-1
                                  5102  "
                                  5103  " STATE 3588
                        007004    5104  	equ	ST3588,*-DPDA
    007233  aa   000000 000057    5105  	zero	STRD,LN3588
    007234  aa   000001 000601    5106  	zero	T1,ST385	"<integer>
    007235  aa   000002 001454    5107  	zero	T2,ST812	"<string>
    007236  aa   000004 007157    5108  	zero	T4,ST3695	",
    007237  aa   000007 000711    5109  	zero	T7,ST457	"(
    007240  aa   000027 001521    5110  	zero	T23,ST849	"a[
    007241  aa   000030 001522    5111  	zero	T24,ST850	"k[
    007242  aa   000031 001523    5112  	zero	T25,ST851	"K[
    007243  aa   000032 000772    5113  	zero	T26,ST506	"Ks
    007244  aa   000033 000776    5114  	zero	T27,ST510	"be
    007245  aa   000034 001002    5115  	zero	T28,ST514	"bn
    007246  aa   000035 001006    5116  	zero	T29,ST518	"fl
    007247  aa   000036 001010    5117  	zero	T30,ST520	"fs
    007250  aa   000037 001012    5118  	zero	T31,ST522	"lb
    007251  aa   000040 001016    5119  	zero	T32,ST526	"le
    007252  aa   000041 001022    5120  	zero	T33,ST530	"sb
    007253  aa   000042 001026    5121  	zero	T34,ST534	"se
    007254  aa   000046 001040    5122  	zero	T38,ST544	"dn
    007255  aa   000047 001044    5123  	zero	T39,ST548	"en
    007256  aa   000050 001050    5124  	zero	T40,ST552	"sn
    007257  aa   000051 001054    5125  	zero	T41,ST556	"fak
    007260  aa   000052 001056    5126  	zero	T42,ST558	"fka
    007261  aa   000053 001060    5127  	zero	T43,ST560	"em
    007262  aa   000054 001064    5128  	zero	T44,ST564	"fi
    007263  aa   000055 001066    5129  	zero	T45,ST566	"fir
    007264  aa   000056 001070    5130  	zero	T46,ST568	"fv
    007265  aa   000057 001072    5131  	zero	T47,ST570	"fvr
    007266  aa   000060 001074    5132  	zero	T48,ST572	"ff
    007267  aa   000061 001076    5133  	zero	T49,ST574	"ffr
    007270  aa   000062 001100    5134  	zero	T50,ST576	"fln
    007271  aa   000063 001102    5135  	zero	T51,ST578	"sk
    007272  aa   000065 001106    5136  	zero	T53,ST582	"Kl
    007273  aa   000066 001112    5137  	zero	T54,ST586	"Kb
    007274  aa   000067 001116    5138  	zero	T55,ST590	"if
    007275  aa   000071 001120    5139  	zero	T57,ST592	"ag
    007276  aa   000072 001124    5140  	zero	T58,ST596	"cs
    007277  aa   000074 001130    5141  	zero	T60,ST600	"pn
    007300  aa   000075 001134    5142  	zero	T61,ST604	"p[
    007301  aa   000076 001135    5143  	zero	T62,ST605	"fmx
    007302  aa   000077 001141    5144  	zero	T63,ST609	"fmn
    007303  aa   000100 001145    5145  	zero	T64,ST613	"frs
    007304  aa   000101 001533    5146  	zero	T65,ST859	"||
    007305  aa   000102 001534    5147  	zero	T66,ST860	"<var>
    007306  aa   000104 001251    5148  	zero	T68,ST681	"mct
    007307  aa   000105 001253    5149  	zero	T69,ST683	"emt
    007310  aa   000106 001255    5150  	zero	T70,ST685	"emc
    007311  aa   000107 001257    5151  	zero	T71,ST687	"<u+>
    007312  aa   000110 001333    5152  	zero	T72,ST731	"<u->
                        000057    5153  	equ	LN3588,*-DPDA-ST3588-1
                                  5154  "
                                  5155  " STATE 3636
                        007064    5156  	equ	ST3636,*-DPDA
    007313  aa   000006 000003    5157  	zero	APLYS,LN3636
    007314  aa   000004 000004    5158  	zero	4,4   pd ld
    007315  aa   000020 000001    5159  	zero	16,1   rule/alt
    007316  aa   000004 001344    5160  	zero	4,ST740 prod/val
                        000003    5161  	equ	LN3636,*-DPDA-ST3636-1
                                  5162  "
                                  5163  " STATE 3640
                        007070    5164  	equ	ST3640,*-DPDA
    007317  aa   000002 000426    5165  	zero	STRDS,ST278
                                  5166
                                  5167  "
                                  5168  " STATE 3641
                        007071    5169  	equ	ST3641,*-DPDA
    007320  aa   000005 000003    5170  	zero	APLY1,LN3641
    007321  aa   000005 000005    5171  	zero	5,5   pd ld
    007322  aa   000042 000001    5172  	zero	34,1   rule/alt
    007323  aa   000011 000420    5173  	zero	9,ST272 prod/val
                        000003    5174  	equ	LN3641,*-DPDA-ST3641-1
                                  5175  "
                                  5176  " STATE 3645
                        007075    5177  	equ	ST3645,*-DPDA
    007324  aa   000002 000426    5178  	zero	STRDS,ST278
                                  5179
                                  5180  "
                                  5181  " STATE 3646
                        007076    5182  	equ	ST3646,*-DPDA
    007325  aa   000005 000003    5183  	zero	APLY1,LN3646
    007326  aa   000005 000005    5184  	zero	5,5   pd ld
    007327  aa   000041 000001    5185  	zero	33,1   rule/alt
    007330  aa   000011 000420    5186  	zero	9,ST272 prod/val
                        000003    5187  	equ	LN3646,*-DPDA-ST3646-1
                                  5188  "
                                  5189  " STATE 3650
                        007102    5190  	equ	ST3650,*-DPDA
    007331  aa   000005 000003    5191  	zero	APLY1,LN3650
    007332  aa   000005 000005    5192  	zero	5,5   pd ld
    007333  aa   000126 000001    5193  	zero	86,1   rule/alt
    007334  aa   000011 000420    5194  	zero	9,ST272 prod/val
                        000003    5195  	equ	LN3650,*-DPDA-ST3650-1
                                  5196  "
                                  5197  " STATE 3654
                        007106    5198  	equ	ST3654,*-DPDA
    007335  aa   000005 000003    5199  	zero	APLY1,LN3654
    007336  aa   000005 000005    5200  	zero	5,5   pd ld
    007337  aa   000127 000001    5201  	zero	87,1   rule/alt
    007340  aa   000011 000420    5202  	zero	9,ST272 prod/val
                        000003    5203  	equ	LN3654,*-DPDA-ST3654-1
                                  5204  "
                                  5205  " STATE 3658
                        007112    5206  	equ	ST3658,*-DPDA
    007341  aa   000005 000003    5207  	zero	APLY1,LN3658
    007342  aa   000005 000005    5208  	zero	5,5   pd ld
    007343  aa   000130 000001    5209  	zero	88,1   rule/alt
    007344  aa   000011 000420    5210  	zero	9,ST272 prod/val
                        000003    5211  	equ	LN3658,*-DPDA-ST3658-1
                                  5212  "
                                  5213  " STATE 3662
                        007116    5214  	equ	ST3662,*-DPDA
    007345  aa   000005 000003    5215  	zero	APLY1,LN3662
    007346  aa   000005 000005    5216  	zero	5,5   pd ld
    007347  aa   000134 000001    5217  	zero	92,1   rule/alt
    007350  aa   000011 000420    5218  	zero	9,ST272 prod/val
                        000003    5219  	equ	LN3662,*-DPDA-ST3662-1
                                  5220  "
                                  5221  " STATE 3666
                        007122    5222  	equ	ST3666,*-DPDA
    007351  aa   000005 000003    5223  	zero	APLY1,LN3666
    007352  aa   000005 000005    5224  	zero	5,5   pd ld
    007353  aa   000131 000001    5225  	zero	89,1   rule/alt
    007354  aa   000011 000420    5226  	zero	9,ST272 prod/val
                        000003    5227  	equ	LN3666,*-DPDA-ST3666-1
                                  5228  "
                                  5229  " STATE 3670
                        007126    5230  	equ	ST3670,*-DPDA
    007355  aa   000005 000003    5231  	zero	APLY1,LN3670
    007356  aa   000005 000005    5232  	zero	5,5   pd ld
    007357  aa   000135 000001    5233  	zero	93,1   rule/alt
    007360  aa   000011 000420    5234  	zero	9,ST272 prod/val
                        000003    5235  	equ	LN3670,*-DPDA-ST3670-1
                                  5236  "
                                  5237  " STATE 3674
                        007132    5238  	equ	ST3674,*-DPDA
    007361  aa   000005 000003    5239  	zero	APLY1,LN3674
    007362  aa   000005 000005    5240  	zero	5,5   pd ld
    007363  aa   000124 000001    5241  	zero	84,1   rule/alt
    007364  aa   000011 000420    5242  	zero	9,ST272 prod/val
                        000003    5243  	equ	LN3674,*-DPDA-ST3674-1
                                  5244  "
                                  5245  " STATE 3678
                        007136    5246  	equ	ST3678,*-DPDA
    007365  aa   000005 000003    5247  	zero	APLY1,LN3678
    007366  aa   000005 000005    5248  	zero	5,5   pd ld
    007367  aa   000132 000001    5249  	zero	90,1   rule/alt
    007370  aa   000011 000420    5250  	zero	9,ST272 prod/val
                        000003    5251  	equ	LN3678,*-DPDA-ST3678-1
                                  5252  "
                                  5253  " STATE 3682
                        007142    5254  	equ	ST3682,*-DPDA
    007371  aa   000005 000003    5255  	zero	APLY1,LN3682
    007372  aa   000005 000005    5256  	zero	5,5   pd ld
    007373  aa   000125 000001    5257  	zero	85,1   rule/alt
    007374  aa   000011 000420    5258  	zero	9,ST272 prod/val
                        000003    5259  	equ	LN3682,*-DPDA-ST3682-1
                                  5260  "
                                  5261  " STATE 3686
                        007146    5262  	equ	ST3686,*-DPDA
    007375  aa   000005 000003    5263  	zero	APLY1,LN3686
    007376  aa   000005 000005    5264  	zero	5,5   pd ld
    007377  aa   000133 000001    5265  	zero	91,1   rule/alt
    007400  aa   000011 000420    5266  	zero	9,ST272 prod/val
                        000003    5267  	equ	LN3686,*-DPDA-ST3686-1
                                  5268  "
                                  5269  " STATE 3690
                        007152    5270  	equ	ST3690,*-DPDA
    007401  aa   000002 000426    5271  	zero	STRDS,ST278
                                  5272
                                  5273  "
                                  5274  " STATE 3691
                        007153    5275  	equ	ST3691,*-DPDA
    007402  aa   000005 000003    5276  	zero	APLY1,LN3691
    007403  aa   000005 000005    5277  	zero	5,5   pd ld
    007404  aa   000044 000001    5278  	zero	36,1   rule/alt
    007405  aa   000011 000420    5279  	zero	9,ST272 prod/val
                        000003    5280  	equ	LN3691,*-DPDA-ST3691-1
                                  5281  "
                                  5282  " STATE 3695
                        007157    5283  	equ	ST3695,*-DPDA
    007406  aa   000002 000426    5284  	zero	STRDS,ST278
                                  5285
                                  5286  "
                                  5287  " STATE 3696
                        007160    5288  	equ	ST3696,*-DPDA
    007407  aa   000000 000057    5289  	zero	STRD,LN3696
    007410  aa   000001 000601    5290  	zero	T1,ST385	"<integer>
    007411  aa   000002 001454    5291  	zero	T2,ST812	"<string>
    007412  aa   000007 000711    5292  	zero	T7,ST457	"(
    007413  aa   000010 007460    5293  	zero	T8,ST3888	")
    007414  aa   000027 001521    5294  	zero	T23,ST849	"a[
    007415  aa   000030 001522    5295  	zero	T24,ST850	"k[
    007416  aa   000031 001523    5296  	zero	T25,ST851	"K[
    007417  aa   000032 000772    5297  	zero	T26,ST506	"Ks
    007420  aa   000033 000776    5298  	zero	T27,ST510	"be
    007421  aa   000034 001002    5299  	zero	T28,ST514	"bn
    007422  aa   000035 001006    5300  	zero	T29,ST518	"fl
    007423  aa   000036 001010    5301  	zero	T30,ST520	"fs
    007424  aa   000037 001012    5302  	zero	T31,ST522	"lb
    007425  aa   000040 001016    5303  	zero	T32,ST526	"le
    007426  aa   000041 001022    5304  	zero	T33,ST530	"sb
    007427  aa   000042 001026    5305  	zero	T34,ST534	"se
    007430  aa   000046 001040    5306  	zero	T38,ST544	"dn
    007431  aa   000047 001044    5307  	zero	T39,ST548	"en
    007432  aa   000050 001050    5308  	zero	T40,ST552	"sn
    007433  aa   000051 001054    5309  	zero	T41,ST556	"fak
    007434  aa   000052 001056    5310  	zero	T42,ST558	"fka
    007435  aa   000053 001060    5311  	zero	T43,ST560	"em
    007436  aa   000054 001064    5312  	zero	T44,ST564	"fi
    007437  aa   000055 001066    5313  	zero	T45,ST566	"fir
    007440  aa   000056 001070    5314  	zero	T46,ST568	"fv
    007441  aa   000057 001072    5315  	zero	T47,ST570	"fvr
    007442  aa   000060 001074    5316  	zero	T48,ST572	"ff
    007443  aa   000061 001076    5317  	zero	T49,ST574	"ffr
    007444  aa   000062 001100    5318  	zero	T50,ST576	"fln
    007445  aa   000063 001102    5319  	zero	T51,ST578	"sk
    007446  aa   000065 001106    5320  	zero	T53,ST582	"Kl
    007447  aa   000066 001112    5321  	zero	T54,ST586	"Kb
    007450  aa   000067 001116    5322  	zero	T55,ST590	"if
    007451  aa   000071 001120    5323  	zero	T57,ST592	"ag
    007452  aa   000072 001124    5324  	zero	T58,ST596	"cs
    007453  aa   000074 001130    5325  	zero	T60,ST600	"pn
    007454  aa   000075 001134    5326  	zero	T61,ST604	"p[
    007455  aa   000076 001135    5327  	zero	T62,ST605	"fmx
    007456  aa   000077 001141    5328  	zero	T63,ST609	"fmn
    007457  aa   000100 001145    5329  	zero	T64,ST613	"frs
    007460  aa   000101 001533    5330  	zero	T65,ST859	"||
    007461  aa   000102 001534    5331  	zero	T66,ST860	"<var>
    007462  aa   000104 001251    5332  	zero	T68,ST681	"mct
    007463  aa   000105 001253    5333  	zero	T69,ST683	"emt
    007464  aa   000106 001255    5334  	zero	T70,ST685	"emc
    007465  aa   000107 001257    5335  	zero	T71,ST687	"<u+>
    007466  aa   000110 001333    5336  	zero	T72,ST731	"<u->
                        000057    5337  	equ	LN3696,*-DPDA-ST3696-1
                                  5338  "
                                  5339  " STATE 3744
                        007240    5340  	equ	ST3744,*-DPDA
    007467  aa   000000 000057    5341  	zero	STRD,LN3744
    007470  aa   000001 000601    5342  	zero	T1,ST385	"<integer>
    007471  aa   000002 001454    5343  	zero	T2,ST812	"<string>
    007472  aa   000007 000711    5344  	zero	T7,ST457	"(
    007473  aa   000010 007464    5345  	zero	T8,ST3892	")
    007474  aa   000027 001521    5346  	zero	T23,ST849	"a[
    007475  aa   000030 001522    5347  	zero	T24,ST850	"k[
    007476  aa   000031 001523    5348  	zero	T25,ST851	"K[
    007477  aa   000032 000772    5349  	zero	T26,ST506	"Ks
    007500  aa   000033 000776    5350  	zero	T27,ST510	"be
    007501  aa   000034 001002    5351  	zero	T28,ST514	"bn
    007502  aa   000035 001006    5352  	zero	T29,ST518	"fl
    007503  aa   000036 001010    5353  	zero	T30,ST520	"fs
    007504  aa   000037 001012    5354  	zero	T31,ST522	"lb
    007505  aa   000040 001016    5355  	zero	T32,ST526	"le
    007506  aa   000041 001022    5356  	zero	T33,ST530	"sb
    007507  aa   000042 001026    5357  	zero	T34,ST534	"se
    007510  aa   000046 001040    5358  	zero	T38,ST544	"dn
    007511  aa   000047 001044    5359  	zero	T39,ST548	"en
    007512  aa   000050 001050    5360  	zero	T40,ST552	"sn
    007513  aa   000051 001054    5361  	zero	T41,ST556	"fak
    007514  aa   000052 001056    5362  	zero	T42,ST558	"fka
    007515  aa   000053 001060    5363  	zero	T43,ST560	"em
    007516  aa   000054 001064    5364  	zero	T44,ST564	"fi
    007517  aa   000055 001066    5365  	zero	T45,ST566	"fir
    007520  aa   000056 001070    5366  	zero	T46,ST568	"fv
    007521  aa   000057 001072    5367  	zero	T47,ST570	"fvr
    007522  aa   000060 001074    5368  	zero	T48,ST572	"ff
    007523  aa   000061 001076    5369  	zero	T49,ST574	"ffr
    007524  aa   000062 001100    5370  	zero	T50,ST576	"fln
    007525  aa   000063 001102    5371  	zero	T51,ST578	"sk
    007526  aa   000065 001106    5372  	zero	T53,ST582	"Kl
    007527  aa   000066 001112    5373  	zero	T54,ST586	"Kb
    007530  aa   000067 001116    5374  	zero	T55,ST590	"if
    007531  aa   000071 001120    5375  	zero	T57,ST592	"ag
    007532  aa   000072 001124    5376  	zero	T58,ST596	"cs
    007533  aa   000074 001130    5377  	zero	T60,ST600	"pn
    007534  aa   000075 001134    5378  	zero	T61,ST604	"p[
    007535  aa   000076 001135    5379  	zero	T62,ST605	"fmx
    007536  aa   000077 001141    5380  	zero	T63,ST609	"fmn
    007537  aa   000100 001145    5381  	zero	T64,ST613	"frs
    007540  aa   000101 001533    5382  	zero	T65,ST859	"||
    007541  aa   000102 001534    5383  	zero	T66,ST860	"<var>
    007542  aa   000104 001251    5384  	zero	T68,ST681	"mct
    007543  aa   000105 001253    5385  	zero	T69,ST683	"emt
    007544  aa   000106 001255    5386  	zero	T70,ST685	"emc
    007545  aa   000107 001257    5387  	zero	T71,ST687	"<u+>
    007546  aa   000110 001333    5388  	zero	T72,ST731	"<u->
                        000057    5389  	equ	LN3744,*-DPDA-ST3744-1
                                  5390  "
                                  5391  " STATE 3792
                        007320    5392  	equ	ST3792,*-DPDA
    007547  aa   000000 000057    5393  	zero	STRD,LN3792
    007550  aa   000001 000601    5394  	zero	T1,ST385	"<integer>
    007551  aa   000002 001454    5395  	zero	T2,ST812	"<string>
    007552  aa   000007 000711    5396  	zero	T7,ST457	"(
    007553  aa   000010 007470    5397  	zero	T8,ST3896	")
    007554  aa   000027 001521    5398  	zero	T23,ST849	"a[
    007555  aa   000030 001522    5399  	zero	T24,ST850	"k[
    007556  aa   000031 001523    5400  	zero	T25,ST851	"K[
    007557  aa   000032 000772    5401  	zero	T26,ST506	"Ks
    007560  aa   000033 000776    5402  	zero	T27,ST510	"be
    007561  aa   000034 001002    5403  	zero	T28,ST514	"bn
    007562  aa   000035 001006    5404  	zero	T29,ST518	"fl
    007563  aa   000036 001010    5405  	zero	T30,ST520	"fs
    007564  aa   000037 001012    5406  	zero	T31,ST522	"lb
    007565  aa   000040 001016    5407  	zero	T32,ST526	"le
    007566  aa   000041 001022    5408  	zero	T33,ST530	"sb
    007567  aa   000042 001026    5409  	zero	T34,ST534	"se
    007570  aa   000046 001040    5410  	zero	T38,ST544	"dn
    007571  aa   000047 001044    5411  	zero	T39,ST548	"en
    007572  aa   000050 001050    5412  	zero	T40,ST552	"sn
    007573  aa   000051 001054    5413  	zero	T41,ST556	"fak
    007574  aa   000052 001056    5414  	zero	T42,ST558	"fka
    007575  aa   000053 001060    5415  	zero	T43,ST560	"em
    007576  aa   000054 001064    5416  	zero	T44,ST564	"fi
    007577  aa   000055 001066    5417  	zero	T45,ST566	"fir
    007600  aa   000056 001070    5418  	zero	T46,ST568	"fv
    007601  aa   000057 001072    5419  	zero	T47,ST570	"fvr
    007602  aa   000060 001074    5420  	zero	T48,ST572	"ff
    007603  aa   000061 001076    5421  	zero	T49,ST574	"ffr
    007604  aa   000062 001100    5422  	zero	T50,ST576	"fln
    007605  aa   000063 001102    5423  	zero	T51,ST578	"sk
    007606  aa   000065 001106    5424  	zero	T53,ST582	"Kl
    007607  aa   000066 001112    5425  	zero	T54,ST586	"Kb
    007610  aa   000067 001116    5426  	zero	T55,ST590	"if
    007611  aa   000071 001120    5427  	zero	T57,ST592	"ag
    007612  aa   000072 001124    5428  	zero	T58,ST596	"cs
    007613  aa   000074 001130    5429  	zero	T60,ST600	"pn
    007614  aa   000075 001134    5430  	zero	T61,ST604	"p[
    007615  aa   000076 001135    5431  	zero	T62,ST605	"fmx
    007616  aa   000077 001141    5432  	zero	T63,ST609	"fmn
    007617  aa   000100 001145    5433  	zero	T64,ST613	"frs
    007620  aa   000101 001533    5434  	zero	T65,ST859	"||
    007621  aa   000102 001534    5435  	zero	T66,ST860	"<var>
    007622  aa   000104 001251    5436  	zero	T68,ST681	"mct
    007623  aa   000105 001253    5437  	zero	T69,ST683	"emt
    007624  aa   000106 001255    5438  	zero	T70,ST685	"emc
    007625  aa   000107 001257    5439  	zero	T71,ST687	"<u+>
    007626  aa   000110 001333    5440  	zero	T72,ST731	"<u->
                        000057    5441  	equ	LN3792,*-DPDA-ST3792-1
                                  5442  "
                                  5443  " STATE 3840
                        007400    5444  	equ	ST3840,*-DPDA
    007627  aa   000000 000057    5445  	zero	STRD,LN3840
    007630  aa   000001 000601    5446  	zero	T1,ST385	"<integer>
    007631  aa   000002 001454    5447  	zero	T2,ST812	"<string>
    007632  aa   000007 000711    5448  	zero	T7,ST457	"(
    007633  aa   000010 007474    5449  	zero	T8,ST3900	")
    007634  aa   000027 001521    5450  	zero	T23,ST849	"a[
    007635  aa   000030 001522    5451  	zero	T24,ST850	"k[
    007636  aa   000031 001523    5452  	zero	T25,ST851	"K[
    007637  aa   000032 000772    5453  	zero	T26,ST506	"Ks
    007640  aa   000033 000776    5454  	zero	T27,ST510	"be
    007641  aa   000034 001002    5455  	zero	T28,ST514	"bn
    007642  aa   000035 001006    5456  	zero	T29,ST518	"fl
    007643  aa   000036 001010    5457  	zero	T30,ST520	"fs
    007644  aa   000037 001012    5458  	zero	T31,ST522	"lb
    007645  aa   000040 001016    5459  	zero	T32,ST526	"le
    007646  aa   000041 001022    5460  	zero	T33,ST530	"sb
    007647  aa   000042 001026    5461  	zero	T34,ST534	"se
    007650  aa   000046 001040    5462  	zero	T38,ST544	"dn
    007651  aa   000047 001044    5463  	zero	T39,ST548	"en
    007652  aa   000050 001050    5464  	zero	T40,ST552	"sn
    007653  aa   000051 001054    5465  	zero	T41,ST556	"fak
    007654  aa   000052 001056    5466  	zero	T42,ST558	"fka
    007655  aa   000053 001060    5467  	zero	T43,ST560	"em
    007656  aa   000054 001064    5468  	zero	T44,ST564	"fi
    007657  aa   000055 001066    5469  	zero	T45,ST566	"fir
    007660  aa   000056 001070    5470  	zero	T46,ST568	"fv
    007661  aa   000057 001072    5471  	zero	T47,ST570	"fvr
    007662  aa   000060 001074    5472  	zero	T48,ST572	"ff
    007663  aa   000061 001076    5473  	zero	T49,ST574	"ffr
    007664  aa   000062 001100    5474  	zero	T50,ST576	"fln
    007665  aa   000063 001102    5475  	zero	T51,ST578	"sk
    007666  aa   000065 001106    5476  	zero	T53,ST582	"Kl
    007667  aa   000066 001112    5477  	zero	T54,ST586	"Kb
    007670  aa   000067 001116    5478  	zero	T55,ST590	"if
    007671  aa   000071 001120    5479  	zero	T57,ST592	"ag
    007672  aa   000072 001124    5480  	zero	T58,ST596	"cs
    007673  aa   000074 001130    5481  	zero	T60,ST600	"pn
    007674  aa   000075 001134    5482  	zero	T61,ST604	"p[
    007675  aa   000076 001135    5483  	zero	T62,ST605	"fmx
    007676  aa   000077 001141    5484  	zero	T63,ST609	"fmn
    007677  aa   000100 001145    5485  	zero	T64,ST613	"frs
    007700  aa   000101 001533    5486  	zero	T65,ST859	"||
    007701  aa   000102 001534    5487  	zero	T66,ST860	"<var>
    007702  aa   000104 001251    5488  	zero	T68,ST681	"mct
    007703  aa   000105 001253    5489  	zero	T69,ST683	"emt
    007704  aa   000106 001255    5490  	zero	T70,ST685	"emc
    007705  aa   000107 001257    5491  	zero	T71,ST687	"<u+>
    007706  aa   000110 001333    5492  	zero	T72,ST731	"<u->
                        000057    5493  	equ	LN3840,*-DPDA-ST3840-1
                                  5494  "
                                  5495  " STATE 3888
                        007460    5496  	equ	ST3888,*-DPDA
    007707  aa   000005 000003    5497  	zero	APLY1,LN3888
    007710  aa   000007 000007    5498  	zero	7,7   pd ld
    007711  aa   000042 000002    5499  	zero	34,2   rule/alt
    007712  aa   000011 000420    5500  	zero	9,ST272 prod/val
                        000003    5501  	equ	LN3888,*-DPDA-ST3888-1
                                  5502  "
                                  5503  " STATE 3892
                        007464    5504  	equ	ST3892,*-DPDA
    007713  aa   000005 000003    5505  	zero	APLY1,LN3892
    007714  aa   000007 000007    5506  	zero	7,7   pd ld
    007715  aa   000042 000003    5507  	zero	34,3   rule/alt
    007716  aa   000011 000420    5508  	zero	9,ST272 prod/val
                        000003    5509  	equ	LN3892,*-DPDA-ST3892-1
                                  5510  "
                                  5511  " STATE 3896
                        007470    5512  	equ	ST3896,*-DPDA
    007717  aa   000005 000003    5513  	zero	APLY1,LN3896
    007720  aa   000007 000007    5514  	zero	7,7   pd ld
    007721  aa   000045 000001    5515  	zero	37,1   rule/alt
    007722  aa   000011 000420    5516  	zero	9,ST272 prod/val
                        000003    5517  	equ	LN3896,*-DPDA-ST3896-1
                                  5518  "
                                  5519  " STATE 3900
                        007474    5520  	equ	ST3900,*-DPDA
    007723  aa   000005 000003    5521  	zero	APLY1,LN3900
    007724  aa   000007 000007    5522  	zero	7,7   pd ld
    007725  aa   000043 000001    5523  	zero	35,1   rule/alt
    007726  aa   000011 000420    5524  	zero	9,ST272 prod/val
                        000003    5525  	equ	LN3900,*-DPDA-ST3900-1
                                  5526  "
                                  5527  " STATE 3904
                        007500    5528  	equ	ST3904,*-DPDA
    007727  aa   000000 000003    5529  	zero	STRD,LN3904
    007730  aa   000014 001337    5530  	zero	T12,ST735	"*
    007731  aa   000015 001340    5531  	zero	T13,ST736	"/
    007732  aa   000016 001341    5532  	zero	T14,ST737	"|
                        000003    5533  	equ	LN3904,*-DPDA-ST3904-1
                                  5534  "
                                  5535  " STATE 3908
                        007504    5536  	equ	ST3908,*-DPDA
    007733  aa   000004 000062    5537  	zero	APLY,LN3908
    007734  aa   000000 000000    5538  	zero	0,0   pd ld
    007735  aa   777710 000001    5539  	zero	-56,1   rule/alt
    007736  aa   000016 000225    5540  	zero	14,ST149 prod/val
    007737  aa   001533 003276    5541  	zero	ST859,ST1726
    007740  aa   001734 001355    5542  	zero	ST988,ST749
    007741  aa   002025 001355    5543  	zero	ST1045,ST749
    007742  aa   002105 001355    5544  	zero	ST1093,ST749
    007743  aa   002165 001355    5545  	zero	ST1141,ST749
    007744  aa   002300 001355    5546  	zero	ST1216,ST749
    007745  aa   002404 001355    5547  	zero	ST1284,ST749
    007746  aa   003055 001355    5548  	zero	ST1581,ST749
    007747  aa   003135 001355    5549  	zero	ST1629,ST749
    007750  aa   003215 001355    5550  	zero	ST1677,ST749
    007751  aa   003714 001355    5551  	zero	ST1996,ST749
    007752  aa   003774 001355    5552  	zero	ST2044,ST749
    007753  aa   004054 001355    5553  	zero	ST2092,ST749
    007754  aa   004134 001355    5554  	zero	ST2140,ST749
    007755  aa   004214 001355    5555  	zero	ST2188,ST749
    007756  aa   004274 001355    5556  	zero	ST2236,ST749
    007757  aa   004354 001355    5557  	zero	ST2284,ST749
    007760  aa   004434 001355    5558  	zero	ST2332,ST749
    007761  aa   004514 001355    5559  	zero	ST2380,ST749
    007762  aa   004574 001355    5560  	zero	ST2428,ST749
    007763  aa   004664 001355    5561  	zero	ST2484,ST749
    007764  aa   004756 001355    5562  	zero	ST2542,ST749
    007765  aa   005036 001355    5563  	zero	ST2590,ST749
    007766  aa   006111 001355    5564  	zero	ST3145,ST749
    007767  aa   006173 001355    5565  	zero	ST3195,ST749
    007770  aa   006253 001355    5566  	zero	ST3243,ST749
    007771  aa   006333 001355    5567  	zero	ST3291,ST749
    007772  aa   006413 001355    5568  	zero	ST3339,ST749
    007773  aa   006475 001355    5569  	zero	ST3389,ST749
    007774  aa   006557 001355    5570  	zero	ST3439,ST749
    007775  aa   006641 001355    5571  	zero	ST3489,ST749
    007776  aa   006723 001355    5572  	zero	ST3539,ST749
    007777  aa   007004 001355    5573  	zero	ST3588,ST749
    010000  aa   007160 001355    5574  	zero	ST3696,ST749
    010001  aa   007240 001355    5575  	zero	ST3744,ST749
    010002  aa   007320 001355    5576  	zero	ST3792,ST749
    010003  aa   007400 001355    5577  	zero	ST3840,ST749
    010004  aa   007664 001355    5578  	zero	ST4020,ST749
    010005  aa   007777 001355    5579  	zero	ST4095,ST749
    010006  aa   010063 001355    5580  	zero	ST4147,ST749
    010007  aa   010070 001355    5581  	zero	ST4152,ST749
    010010  aa   010110 001355    5582  	zero	ST4168,ST749
    010011  aa   010132 001355    5583  	zero	ST4186,ST749
    010012  aa   010137 001355    5584  	zero	ST4191,ST749
    010013  aa   010144 001355    5585  	zero	ST4196,ST749
    010014  aa   010151 001355    5586  	zero	ST4201,ST749
    010015  aa   010156 001355    5587  	zero	ST4206,ST749
                        000062    5588  	equ	LN3908,*-DPDA-ST3908-1
                                  5589  "
                                  5590  " STATE 3959
                        007567    5591  	equ	ST3959,*-DPDA
    010016  aa   000000 000002    5592  	zero	STRD,LN3959
    010017  aa   000017 001342    5593  	zero	T15,ST738	"+
    010020  aa   000020 001343    5594  	zero	T16,ST739	"-
                        000002    5595  	equ	LN3959,*-DPDA-ST3959-1
                                  5596  "
                                  5597  " STATE 3962
                        007572    5598  	equ	ST3962,*-DPDA
    010021  aa   000004 000061    5599  	zero	APLY,LN3962
    010022  aa   000000 000000    5600  	zero	0,0   pd ld
    010023  aa   777721 000001    5601  	zero	-47,1   rule/alt
    010024  aa   000012 000327    5602  	zero	10,ST215 prod/val
    010025  aa   000426 001540    5603  	zero	ST278,ST864
    010026  aa   000504 001622    5604  	zero	ST324,ST914
    010027  aa   000711 001734    5605  	zero	ST457,ST988
    010030  aa   000767 002025    5606  	zero	ST503,ST1045
    010031  aa   000770 002105    5607  	zero	ST504,ST1093
    010032  aa   000771 002165    5608  	zero	ST505,ST1141
    010033  aa   001134 002300    5609  	zero	ST604,ST1216
    010034  aa   001334 002404    5610  	zero	ST732,ST1284
    010035  aa   001335 002467    5611  	zero	ST733,ST1335
    010036  aa   001336 002467    5612  	zero	ST734,ST1335
    010037  aa   001453 002771    5613  	zero	ST811,ST1529
    010040  aa   001521 003055    5614  	zero	ST849,ST1581
    010041  aa   001522 003135    5615  	zero	ST850,ST1629
    010042  aa   001523 003215    5616  	zero	ST851,ST1677
    010043  aa   002245 003714    5617  	zero	ST1189,ST1996
    010044  aa   002246 003774    5618  	zero	ST1190,ST2044
    010045  aa   002263 004054    5619  	zero	ST1203,ST2092
    010046  aa   002264 004134    5620  	zero	ST1204,ST2140
    010047  aa   002265 004214    5621  	zero	ST1205,ST2188
    010050  aa   002266 004274    5622  	zero	ST1206,ST2236
    010051  aa   002267 004354    5623  	zero	ST1207,ST2284
    010052  aa   002270 004434    5624  	zero	ST1208,ST2332
    010053  aa   002271 004514    5625  	zero	ST1209,ST2380
    010054  aa   002272 004574    5626  	zero	ST1210,ST2428
    010055  aa   002277 004664    5627  	zero	ST1215,ST2484
    010056  aa   002360 004756    5628  	zero	ST1264,ST2542
    010057  aa   002365 005036    5629  	zero	ST1269,ST2590
    010060  aa   003275 005163    5630  	zero	ST1725,ST2675
    010061  aa   005136 005602    5631  	zero	ST2654,ST2946
    010062  aa   005247 005663    5632  	zero	ST2727,ST2995
    010063  aa   005250 005745    5633  	zero	ST2728,ST3045
    010064  aa   005251 006027    5634  	zero	ST2729,ST3095
    010065  aa   005256 006111    5635  	zero	ST2734,ST3145
    010066  aa   005257 006173    5636  	zero	ST2735,ST3195
    010067  aa   005264 006253    5637  	zero	ST2740,ST3243
    010070  aa   005265 006333    5638  	zero	ST2741,ST3291
    010071  aa   005266 006413    5639  	zero	ST2742,ST3339
    010072  aa   005345 006475    5640  	zero	ST2789,ST3389
    010073  aa   005424 006557    5641  	zero	ST2836,ST3439
    010074  aa   005503 006641    5642  	zero	ST2883,ST3489
    010075  aa   005576 006723    5643  	zero	ST2942,ST3539
    010076  aa   005577 007004    5644  	zero	ST2943,ST3588
    010077  aa   007070 007160    5645  	zero	ST3640,ST3696
    010100  aa   007075 007240    5646  	zero	ST3645,ST3744
    010101  aa   007152 007320    5647  	zero	ST3690,ST3792
    010102  aa   007157 007400    5648  	zero	ST3695,ST3840
                        000061    5649  	equ	LN3962,*-DPDA-ST3962-1
                                  5650  "
                                  5651  " STATE 4012
                        007654    5652  	equ	ST4012,*-DPDA
    010103  aa   000000 000002    5653  	zero	STRD,LN4012
    010104  aa   000011 001344    5654  	zero	T9,ST740	":
    010105  aa   000012 001351    5655  	zero	T10,ST745	".
                        000002    5656  	equ	LN4012,*-DPDA-ST4012-1
                                  5657  "
                                  5658  " STATE 4015
                        007657    5659  	equ	ST4015,*-DPDA
    010106  aa   000004 000004    5660  	zero	APLY,LN4015
    010107  aa   000000 000000    5661  	zero	0,0   pd ld
    010110  aa   000013 000002    5662  	zero	11,2   rule/alt
    010111  aa   000005 000510    5663  	zero	5,ST328 prod/val
    010112  aa   000516 001714    5664  	zero	ST334,ST972
                        000004    5665  	equ	LN4015,*-DPDA-ST4015-1
                                  5666  "
                                  5667  " STATE 4020
                        007664    5668  	equ	ST4020,*-DPDA
    010113  aa   000000 000067    5669  	zero	STRD,LN4020
    010114  aa   000001 000601    5670  	zero	T1,ST385	"<integer>
    010115  aa   000002 001454    5671  	zero	T2,ST812	"<string>
    010116  aa   000007 000711    5672  	zero	T7,ST457	"(
    010117  aa   000011 001460    5673  	zero	T9,ST816	":
    010120  aa   000012 001464    5674  	zero	T10,ST820	".
    010121  aa   000021 001470    5675  	zero	T17,ST824	"<
    010122  aa   000022 001475    5676  	zero	T18,ST829	">
    010123  aa   000023 001501    5677  	zero	T19,ST833	"=
    010124  aa   000024 001505    5678  	zero	T20,ST837	"<=
    010125  aa   000025 001511    5679  	zero	T21,ST841	">=
    010126  aa   000026 001515    5680  	zero	T22,ST845	"^=
    010127  aa   000027 001521    5681  	zero	T23,ST849	"a[
    010130  aa   000030 001522    5682  	zero	T24,ST850	"k[
    010131  aa   000031 001523    5683  	zero	T25,ST851	"K[
    010132  aa   000032 000772    5684  	zero	T26,ST506	"Ks
    010133  aa   000033 000776    5685  	zero	T27,ST510	"be
    010134  aa   000034 001002    5686  	zero	T28,ST514	"bn
    010135  aa   000035 001006    5687  	zero	T29,ST518	"fl
    010136  aa   000036 001010    5688  	zero	T30,ST520	"fs
    010137  aa   000037 001012    5689  	zero	T31,ST522	"lb
    010140  aa   000040 001016    5690  	zero	T32,ST526	"le
    010141  aa   000041 001022    5691  	zero	T33,ST530	"sb
    010142  aa   000042 001026    5692  	zero	T34,ST534	"se
    010143  aa   000046 001040    5693  	zero	T38,ST544	"dn
    010144  aa   000047 001044    5694  	zero	T39,ST548	"en
    010145  aa   000050 001050    5695  	zero	T40,ST552	"sn
    010146  aa   000051 001054    5696  	zero	T41,ST556	"fak
    010147  aa   000052 001056    5697  	zero	T42,ST558	"fka
    010150  aa   000053 001060    5698  	zero	T43,ST560	"em
    010151  aa   000054 001064    5699  	zero	T44,ST564	"fi
    010152  aa   000055 001066    5700  	zero	T45,ST566	"fir
    010153  aa   000056 001070    5701  	zero	T46,ST568	"fv
    010154  aa   000057 001072    5702  	zero	T47,ST570	"fvr
    010155  aa   000060 001074    5703  	zero	T48,ST572	"ff
    010156  aa   000061 001076    5704  	zero	T49,ST574	"ffr
    010157  aa   000062 001100    5705  	zero	T50,ST576	"fln
    010160  aa   000063 001102    5706  	zero	T51,ST578	"sk
    010161  aa   000064 001524    5707  	zero	T52,ST852	"J
    010162  aa   000065 001106    5708  	zero	T53,ST582	"Kl
    010163  aa   000066 001112    5709  	zero	T54,ST586	"Kb
    010164  aa   000067 001116    5710  	zero	T55,ST590	"if
    010165  aa   000071 001120    5711  	zero	T57,ST592	"ag
    010166  aa   000072 001124    5712  	zero	T58,ST596	"cs
    010167  aa   000074 001130    5713  	zero	T60,ST600	"pn
    010170  aa   000075 001134    5714  	zero	T61,ST604	"p[
    010171  aa   000076 001135    5715  	zero	T62,ST605	"fmx
    010172  aa   000077 001141    5716  	zero	T63,ST609	"fmn
    010173  aa   000100 001145    5717  	zero	T64,ST613	"frs
    010174  aa   000101 001533    5718  	zero	T65,ST859	"||
    010175  aa   000102 001534    5719  	zero	T66,ST860	"<var>
    010176  aa   000104 001251    5720  	zero	T68,ST681	"mct
    010177  aa   000105 001253    5721  	zero	T69,ST683	"emt
    010200  aa   000106 001255    5722  	zero	T70,ST685	"emc
    010201  aa   000107 001257    5723  	zero	T71,ST687	"<u+>
    010202  aa   000110 001333    5724  	zero	T72,ST731	"<u->
                        000067    5725  	equ	LN4020,*-DPDA-ST4020-1
                                  5726  "
                                  5727  " STATE 4076
                        007754    5728  	equ	ST4076,*-DPDA
    010203  aa   000006 000003    5729  	zero	APLYS,LN4076
    010204  aa   000000 000000    5730  	zero	0,0   pd ld
    010205  aa   000013 000001    5731  	zero	11,1   rule/alt
    010206  aa   000005 007657    5732  	zero	5,ST4015 prod/val
                        000003    5733  	equ	LN4076,*-DPDA-ST4076-1
                                  5734  "
                                  5735  " STATE 4080
                        007760    5736  	equ	ST4080,*-DPDA
    010207  aa   000000 000001    5737  	zero	STRD,LN4080
    010210  aa   000012 001704    5738  	zero	T10,ST964	".
                        000001    5739  	equ	LN4080,*-DPDA-ST4080-1
                                  5740  "
                                  5741  " STATE 4082
                        007762    5742  	equ	ST4082,*-DPDA
    010211  aa   000006 000003    5743  	zero	APLYS,LN4082
    010212  aa   000000 000000    5744  	zero	0,0   pd ld
    010213  aa   777757 000001    5745  	zero	-17,1   rule/alt
    010214  aa   000005 007657    5746  	zero	5,ST4015 prod/val
                        000003    5747  	equ	LN4082,*-DPDA-ST4082-1
                                  5748  "
                                  5749  " STATE 4086
                        007766    5750  	equ	ST4086,*-DPDA
    010215  aa   000000 000001    5751  	zero	STRD,LN4086
    010216  aa   000013 001726    5752  	zero	T11,ST982	":=
                        000001    5753  	equ	LN4086,*-DPDA-ST4086-1
                                  5754  "
                                  5755  " STATE 4088
                        007770    5756  	equ	ST4088,*-DPDA
    010217  aa   000000 000001    5757  	zero	STRD,LN4088
    010220  aa   000013 002361    5758  	zero	T11,ST1265	":=
                        000001    5759  	equ	LN4088,*-DPDA-ST4088-1
                                  5760  "
                                  5761  " STATE 4090
                        007772    5762  	equ	ST4090,*-DPDA
    010221  aa   000002 007567    5763  	zero	STRDS,ST3959
                                  5764
                                  5765  "
                                  5766  " STATE 4091
                        007773    5767  	equ	ST4091,*-DPDA
    010222  aa   000006 000003    5768  	zero	APLYS,LN4091
    010223  aa   000001 000001    5769  	zero	1,1   pd ld
    010224  aa   000061 000001    5770  	zero	49,1   rule/alt
    010225  aa   000012 007572    5771  	zero	10,ST3962 prod/val
                        000003    5772  	equ	LN4091,*-DPDA-ST4091-1
                                  5773  "
                                  5774  " STATE 4095
                        007777    5775  	equ	ST4095,*-DPDA
    010226  aa   000000 000056    5776  	zero	STRD,LN4095
    010227  aa   000001 000601    5777  	zero	T1,ST385	"<integer>
    010230  aa   000002 001454    5778  	zero	T2,ST812	"<string>
    010231  aa   000007 000711    5779  	zero	T7,ST457	"(
    010232  aa   000027 001521    5780  	zero	T23,ST849	"a[
    010233  aa   000030 001522    5781  	zero	T24,ST850	"k[
    010234  aa   000031 001523    5782  	zero	T25,ST851	"K[
    010235  aa   000032 000772    5783  	zero	T26,ST506	"Ks
    010236  aa   000033 000776    5784  	zero	T27,ST510	"be
    010237  aa   000034 001002    5785  	zero	T28,ST514	"bn
    010240  aa   000035 001006    5786  	zero	T29,ST518	"fl
    010241  aa   000036 001010    5787  	zero	T30,ST520	"fs
    010242  aa   000037 001012    5788  	zero	T31,ST522	"lb
    010243  aa   000040 001016    5789  	zero	T32,ST526	"le
    010244  aa   000041 001022    5790  	zero	T33,ST530	"sb
    010245  aa   000042 001026    5791  	zero	T34,ST534	"se
    010246  aa   000046 001040    5792  	zero	T38,ST544	"dn
    010247  aa   000047 001044    5793  	zero	T39,ST548	"en
    010250  aa   000050 001050    5794  	zero	T40,ST552	"sn
    010251  aa   000051 001054    5795  	zero	T41,ST556	"fak
    010252  aa   000052 001056    5796  	zero	T42,ST558	"fka
    010253  aa   000053 001060    5797  	zero	T43,ST560	"em
    010254  aa   000054 001064    5798  	zero	T44,ST564	"fi
    010255  aa   000055 001066    5799  	zero	T45,ST566	"fir
    010256  aa   000056 001070    5800  	zero	T46,ST568	"fv
    010257  aa   000057 001072    5801  	zero	T47,ST570	"fvr
    010260  aa   000060 001074    5802  	zero	T48,ST572	"ff
    010261  aa   000061 001076    5803  	zero	T49,ST574	"ffr
    010262  aa   000062 001100    5804  	zero	T50,ST576	"fln
    010263  aa   000063 001102    5805  	zero	T51,ST578	"sk
    010264  aa   000065 001106    5806  	zero	T53,ST582	"Kl
    010265  aa   000066 001112    5807  	zero	T54,ST586	"Kb
    010266  aa   000067 001116    5808  	zero	T55,ST590	"if
    010267  aa   000071 001120    5809  	zero	T57,ST592	"ag
    010270  aa   000072 001124    5810  	zero	T58,ST596	"cs
    010271  aa   000074 001130    5811  	zero	T60,ST600	"pn
    010272  aa   000075 001134    5812  	zero	T61,ST604	"p[
    010273  aa   000076 001135    5813  	zero	T62,ST605	"fmx
    010274  aa   000077 001141    5814  	zero	T63,ST609	"fmn
    010275  aa   000100 001145    5815  	zero	T64,ST613	"frs
    010276  aa   000101 001533    5816  	zero	T65,ST859	"||
    010277  aa   000102 001534    5817  	zero	T66,ST860	"<var>
    010300  aa   000104 001251    5818  	zero	T68,ST681	"mct
    010301  aa   000105 001253    5819  	zero	T69,ST683	"emt
    010302  aa   000106 001255    5820  	zero	T70,ST685	"emc
    010303  aa   000107 001257    5821  	zero	T71,ST687	"<u+>
    010304  aa   000110 001333    5822  	zero	T72,ST731	"<u->
                        000056    5823  	equ	LN4095,*-DPDA-ST4095-1
                                  5824  "
                                  5825  " STATE 4142
                        010056    5826  	equ	ST4142,*-DPDA
    010305  aa   000004 000004    5827  	zero	APLY,LN4142
    010306  aa   000001 000001    5828  	zero	1,1   pd ld
    010307  aa   000025 000001    5829  	zero	21,1   rule/alt
    010310  aa   000006 000505    5830  	zero	6,ST325 prod/val
    010311  aa   000711 002023    5831  	zero	ST457,ST1043
                        000004    5832  	equ	LN4142,*-DPDA-ST4142-1
                                  5833  "
                                  5834  " STATE 4147
                        010063    5835  	equ	ST4147,*-DPDA
    010312  aa   000002 007777    5836  	zero	STRDS,ST4095
                                  5837
                                  5838  "
                                  5839  " STATE 4148
                        010064    5840  	equ	ST4148,*-DPDA
    010313  aa   000006 000003    5841  	zero	APLYS,LN4148
    010314  aa   000001 000001    5842  	zero	1,1   pd ld
    010315  aa   000026 000001    5843  	zero	22,1   rule/alt
    010316  aa   000006 010056    5844  	zero	6,ST4142 prod/val
                        000003    5845  	equ	LN4148,*-DPDA-ST4148-1
                                  5846  "
                                  5847  " STATE 4152
                        010070    5848  	equ	ST4152,*-DPDA
    010317  aa   000002 007777    5849  	zero	STRDS,ST4095
                                  5850
                                  5851  "
                                  5852  " STATE 4153
                        010071    5853  	equ	ST4153,*-DPDA
    010320  aa   000004 000004    5854  	zero	APLY,LN4153
    010321  aa   000000 000000    5855  	zero	0,0   pd ld
    010322  aa   777657 000001    5856  	zero	-81,1   rule/alt
    010323  aa   000024 002464    5857  	zero	20,ST1332 prod/val
    010324  aa   001336 002550    5858  	zero	ST734,ST1384
                        000004    5859  	equ	LN4153,*-DPDA-ST4153-1
                                  5860  "
                                  5861  " STATE 4158
                        010076    5862  	equ	ST4158,*-DPDA
    010325  aa   000002 007500    5863  	zero	STRDS,ST3904
                                  5864
                                  5865  "
                                  5866  " STATE 4159
                        010077    5867  	equ	ST4159,*-DPDA
    010326  aa   000006 000003    5868  	zero	APLYS,LN4159
    010327  aa   000002 000002    5869  	zero	2,2   pd ld
    010330  aa   000066 000001    5870  	zero	54,1   rule/alt
    010331  aa   000016 007504    5871  	zero	14,ST3908 prod/val
                        000003    5872  	equ	LN4159,*-DPDA-ST4159-1
                                  5873  "
                                  5874  " STATE 4163
                        010103    5875  	equ	ST4163,*-DPDA
    010332  aa   000002 007500    5876  	zero	STRDS,ST3904
                                  5877
                                  5878  "
                                  5879  " STATE 4164
                        010104    5880  	equ	ST4164,*-DPDA
    010333  aa   000006 000003    5881  	zero	APLYS,LN4164
    010334  aa   000002 000002    5882  	zero	2,2   pd ld
    010335  aa   000067 000001    5883  	zero	55,1   rule/alt
    010336  aa   000016 007504    5884  	zero	14,ST3908 prod/val
                        000003    5885  	equ	LN4164,*-DPDA-ST4164-1
                                  5886  "
                                  5887  " STATE 4168
                        010110    5888  	equ	ST4168,*-DPDA
    010337  aa   000002 007777    5889  	zero	STRDS,ST4095
                                  5890
                                  5891  "
                                  5892  " STATE 4169
                        010111    5893  	equ	ST4169,*-DPDA
    010340  aa   000004 000005    5894  	zero	APLY,LN4169
    010341  aa   000002 000002    5895  	zero	2,2   pd ld
    010342  aa   000063 000001    5896  	zero	51,1   rule/alt
    010343  aa   000014 000323    5897  	zero	12,ST211 prod/val
    010344  aa   000711 001732    5898  	zero	ST457,ST986
    010345  aa   002277 004662    5899  	zero	ST1215,ST2482
                        000005    5900  	equ	LN4169,*-DPDA-ST4169-1
                                  5901  "
                                  5902  " STATE 4175
                        010117    5903  	equ	ST4175,*-DPDA
    010346  aa   000002 007567    5904  	zero	STRDS,ST3959
                                  5905
                                  5906  "
                                  5907  " STATE 4176
                        010120    5908  	equ	ST4176,*-DPDA
    010347  aa   000006 000003    5909  	zero	APLYS,LN4176
    010350  aa   000002 000002    5910  	zero	2,2   pd ld
    010351  aa   000060 000001    5911  	zero	48,1   rule/alt
    010352  aa   000012 007572    5912  	zero	10,ST3962 prod/val
                        000003    5913  	equ	LN4176,*-DPDA-ST4176-1
                                  5914  "
                                  5915  " STATE 4180
                        010124    5916  	equ	ST4180,*-DPDA
    010353  aa   000000 000001    5917  	zero	STRD,LN4180
    010354  aa   000013 005247    5918  	zero	T11,ST2727	":=
                        000001    5919  	equ	LN4180,*-DPDA-ST4180-1
                                  5920  "
                                  5921  " STATE 4182
                        010126    5922  	equ	ST4182,*-DPDA
    010355  aa   000000 000001    5923  	zero	STRD,LN4182
    010356  aa   000013 005250    5924  	zero	T11,ST2728	":=
                        000001    5925  	equ	LN4182,*-DPDA-ST4182-1
                                  5926  "
                                  5927  " STATE 4184
                        010130    5928  	equ	ST4184,*-DPDA
    010357  aa   000000 000001    5929  	zero	STRD,LN4184
    010360  aa   000013 005251    5930  	zero	T11,ST2729	":=
                        000001    5931  	equ	LN4184,*-DPDA-ST4184-1
                                  5932  "
                                  5933  " STATE 4186
                        010132    5934  	equ	ST4186,*-DPDA
    010361  aa   000002 007777    5935  	zero	STRDS,ST4095
                                  5936
                                  5937  "
                                  5938  " STATE 4187
                        010133    5939  	equ	ST4187,*-DPDA
    010362  aa   000006 000003    5940  	zero	APLYS,LN4187
    010363  aa   000003 000003    5941  	zero	3,3   pd ld
    010364  aa   000064 000001    5942  	zero	52,1   rule/alt
    010365  aa   000014 010111    5943  	zero	12,ST4169 prod/val
                        000003    5944  	equ	LN4187,*-DPDA-ST4187-1
                                  5945  "
                                  5946  " STATE 4191
                        010137    5947  	equ	ST4191,*-DPDA
    010366  aa   000002 007777    5948  	zero	STRDS,ST4095
                                  5949
                                  5950  "
                                  5951  " STATE 4192
                        010140    5952  	equ	ST4192,*-DPDA
    010367  aa   000006 000003    5953  	zero	APLYS,LN4192
    010370  aa   000002 000002    5954  	zero	2,2   pd ld
    010371  aa   000122 000001    5955  	zero	82,1   rule/alt
    010372  aa   000024 010071    5956  	zero	20,ST4153 prod/val
                        000003    5957  	equ	LN4192,*-DPDA-ST4192-1
                                  5958  "
                                  5959  " STATE 4196
                        010144    5960  	equ	ST4196,*-DPDA
    010373  aa   000002 007777    5961  	zero	STRDS,ST4095
                                  5962
                                  5963  "
                                  5964  " STATE 4197
                        010145    5965  	equ	ST4197,*-DPDA
    010374  aa   000006 000003    5966  	zero	APLYS,LN4197
    010375  aa   000004 000004    5967  	zero	4,4   pd ld
    010376  aa   000022 000001    5968  	zero	18,1   rule/alt
    010377  aa   000006 010056    5969  	zero	6,ST4142 prod/val
                        000003    5970  	equ	LN4197,*-DPDA-ST4197-1
                                  5971  "
                                  5972  " STATE 4201
                        010151    5973  	equ	ST4201,*-DPDA
    010400  aa   000002 007777    5974  	zero	STRDS,ST4095
                                  5975
                                  5976  "
                                  5977  " STATE 4202
                        010152    5978  	equ	ST4202,*-DPDA
    010401  aa   000006 000003    5979  	zero	APLYS,LN4202
    010402  aa   000004 000004    5980  	zero	4,4   pd ld
    010403  aa   000023 000001    5981  	zero	19,1   rule/alt
    010404  aa   000006 010056    5982  	zero	6,ST4142 prod/val
                        000003    5983  	equ	LN4202,*-DPDA-ST4202-1
                                  5984  "
                                  5985  " STATE 4206
                        010156    5986  	equ	ST4206,*-DPDA
    010405  aa   000002 007777    5987  	zero	STRDS,ST4095
                                  5988
                                  5989  "
                                  5990  " STATE 4207
                        010157    5991  	equ	ST4207,*-DPDA
    010406  aa   000006 000003    5992  	zero	APLYS,LN4207
    010407  aa   000004 000004    5993  	zero	4,4   pd ld
    010410  aa   000024 000001    5994  	zero	20,1   rule/alt
    010411  aa   000006 010056    5995  	zero	6,ST4142 prod/val
                        000003    5996  	equ	LN4207,*-DPDA-ST4207-1
                        010163    5997  	equ	DPDAs,*-DPDA
                                  5998
                                  5999
    010412  aa   000000 000000    6000  	zero	0,0	"SKIP/ADJ
                                  6001  	end

NO LITERALS

NAME DEFINITIONS FOR ENTRY POINTS AND SEGDEFS

    010414  5a   000003 000000
    010415  5a   000035 600000
    010416  aa   000000 000000
    010417  55   000011 000002
    010420  5a   000002 400003
    010421  55   000006 000011
    010422  aa  013 164 145 144
    010423  aa  137 145 166 141
    010424  aa  154 137 164 137
    010425  55   000016 000003
    010426  0a   000227 400000
    010427  55   000014 000003
    010430  aa  004 104 120 104         DPDA
    010431  aa  101 000 000 000
    010432  55   000022 000011
    010433  0a   000116 400000
    010434  55   000021 000003
    010435  aa  002 124 114 000         TL
    010436  55   000026 000016
    010437  0a   000000 400000
    010440  55   000025 000003
    010441  aa  002 124 103 000         TC
    010442  55   000002 000022
    010443  6a   000000 400002
    010444  55   000031 000003
    010445  aa  014 163 171 155         symbol_table
    010446  aa  142 157 154 137
    010447  aa  164 141 142 154
    010450  aa  145 000 000 000

DEFINITIONS HASH TABLE

    010451  aa   000000 000015
    010452  5a   000016 000000
    010453  aa   000000 000000
    010454  aa   000000 000000
    010455  5a   000011 000000
    010456  aa   000000 000000
    010457  aa   000000 000000
    010460  5a   000026 000000
    010461  5a   000022 000000
    010462  aa   000000 000000
    010463  aa   000000 000000
    010464  aa   000000 000000
    010465  aa   000000 000000
    010466  aa   000000 000000

NO EXTERNAL NAMES

NO TRAP POINTER WORDS

TYPE PAIR BLOCKS

    010467  aa   000001 000000
    010470  aa   000000 000000

INTERNAL EXPRESSION WORDS

    010471  aa   000000 000000
LINKAGE INFORMATION

    000000  aa   000000 000000
    000001  0a   010414 000000
    000002  aa   000000 000000
    000003  aa   000000 000000
    000004  aa   000000 000000
    000005  aa   000000 000000
    000006  22   000010 000010
    000007  a2   000000 000000
SYMBOL INFORMATION

SYMBOL TABLE HEADER

    000000  aa   000000 000001
    000001  aa   163171 155142
    000002  aa   164162 145145
    000003  aa   000000 000004
    000004  aa   000000 111316
    000005  aa   510113 575622
    000006  aa   000000 111347
    000007  aa   453006 533600
    000010  aa   141154 155040
    000011  aa   040040 040040
    000012  aa   000024 000040
    000013  aa   000034 000040
    000014  aa   000044 000100
    000015  aa   000002 000002
    000016  aa   000064 000000
    000017  aa   000000 000501
    000020  aa   000000 000103
    000021  aa   000000 000470
    000022  aa   000473 000103
    000023  aa   000064 000000
    000024  aa   101114 115040
    000025  aa   126145 162163
    000026  aa   151157 156040
    000027  aa   040066 056064
    000030  aa   040040 101160
    000031  aa   162151 154040
    000032  aa   061071 070061
    000033  aa   040040 040040
    000034  aa   110157 154155
    000035  aa   163164 145144
    000036  aa   164056 123171
    000037  aa   163115 141151
    000040  aa   156164 056155
    000041  aa   040040 040040
    000042  aa   040040 040040
    000043  aa   040040 040040
    000044  aa   154151 163164
    000045  aa   040040 040040
    000046  aa   040040 040040
    000047  aa   040040 040040
    000050  aa   040040 040040
    000051  aa   040040 040040
    000052  aa   040040 040040
    000053  aa   040040 040040
    000054  aa   040040 040040
    000055  aa   040040 040040
    000056  aa   040040 040040
    000057  aa   040040 040040
    000060  aa   040040 040040
    000061  aa   040040 040040
    000062  aa   040040 040040
    000063  aa   040040 040040
    000064  aa   000000 000001
    000065  aa   000000 000001
    000066  aa   000072 000041
    000067  aa   113434 121425
    000070  aa   000000 111346
    000071  aa   456154 400000
    000072  aa   076163 160145          >spec>on>11/22/82>ted_eval_t_.alm
    000073  aa   143076 157156
    000074  aa   076061 061057
    000075  aa   062062 057070
    000076  aa   062076 164145
    000077  aa   144137 145166
    000100  aa   141154 137164
    000101  aa   137056 141154
    000102  aa   155040 040040
               MULTICS ASSEMBLY CROSS REFERENCE LISTING

   Value        Symbol                   Source file   Line number

          10    ADJUST                   ted_eval_t_:   14.
           4    APLY                     ted_eval_t_:   10,  728,  739,  953, 1681, 1793, 5537, 5599, 5660, 5827, 5854, 5894.
           5    APLY1                    ted_eval_t_:   11,  633,  641, 1031, 1094, 1170, 1243, 1251, 1259, 1279, 1287, 1295,
                                                      1303, 1329, 1337, 1345, 1365, 1415, 1423, 1431, 1445, 1453, 1461, 1474,
                                                      1482, 1769, 1873, 1997, 2011, 2019, 2027, 2406, 3017, 3855, 3967, 3975,
                                                      3983, 3991, 4004, 4012, 4020, 4028, 4036, 4115, 4133, 4355, 4363, 4371,
                                                      5170, 5183, 5191, 5199, 5207, 5215, 5223, 5231, 5239, 5247, 5255, 5263,
                                                      5276, 5497, 5505, 5513, 5521.
           6    APLYS                    ted_eval_t_:   12, 1690, 1777, 1785, 1802, 1810, 1818, 1826, 1834, 1989, 2272, 2280,
                                                      2288, 2437, 2445, 2572, 2580, 2588, 3025, 3033, 3041, 5157, 5729, 5743,
                                                      5768, 5841, 5868, 5881, 5909, 5940, 5953, 5966, 5979, 5992.
         227    DPDA                     ted_eval_t_:  621,  622,  625,  629,  632,  637,  640,  645,  648,  651,  654,  706,
                                                       709,  712,  715,  718,  721,  724,  727,  735,  738,  745,  748,  814,
                                                       817,  880,  883,  888,  891,  949,  952,  959,  962, 1009, 1012, 1017,
                                                      1021, 1024, 1027, 1030, 1035, 1038, 1090, 1093, 1098, 1101, 1166, 1169,
                                                      1174, 1177, 1224, 1227, 1232, 1237, 1242, 1247, 1250, 1255, 1258, 1263,
                                                      1266, 1269, 1272, 1275, 1278, 1283, 1286, 1291, 1294, 1299, 1302, 1307,
                                                      1310, 1313, 1316, 1319, 1322, 1325, 1328, 1333, 1336, 1341, 1344, 1349,
                                                      1352, 1355, 1358, 1361, 1364, 1369, 1372, 1375, 1378, 1381, 1384, 1387,
                                                      1390, 1393, 1396, 1399, 1402, 1405, 1408, 1411, 1414, 1419, 1422, 1427,
                                                      1430, 1435, 1438, 1441, 1444, 1449, 1452, 1457, 1460, 1465, 1468, 1473,
                                                      1478, 1481, 1486, 1489, 1492, 1495, 1560, 1563, 1566, 1569, 1572, 1575,
                                                      1578, 1581, 1584, 1587, 1632, 1635, 1640, 1645, 1650, 1655, 1660, 1665,
                                                      1670, 1675, 1680, 1686, 1689, 1694, 1697, 1760, 1763, 1768, 1773, 1776,
                                                      1781, 1784, 1789, 1792, 1798, 1801, 1806, 1809, 1814, 1817, 1822, 1825,
                                                      1830, 1833, 1838, 1841, 1846, 1851, 1856, 1864, 1867, 1872, 1877, 1880,
                                                      1931, 1934, 1985, 1988, 1993, 1996, 2001, 2004, 2007, 2010, 2015, 2018,
                                                      2023, 2026, 2031, 2034, 2037, 2040, 2096, 2099, 2102, 2105, 2154, 2157,
                                                      2206, 2209, 2258, 2261, 2266, 2271, 2276, 2279, 2284, 2287, 2292, 2295,
                                                      2300, 2305, 2310, 2315, 2320, 2325, 2330, 2335, 2340, 2343, 2348, 2397,
                                                      2400, 2405, 2410, 2413, 2418, 2421, 2424, 2427, 2430, 2433, 2436, 2441,
                                                      2444, 2449, 2452, 2501, 2504, 2508, 2511, 2561, 2564, 2568, 2571, 2576,
                                                      2579, 2584, 2587, 2592, 2595, 2661, 2664, 2730, 2733, 2786, 2789, 2838,
                                                      2841, 2890, 2893, 2942, 2945, 2950, 3013, 3016, 3021, 3024, 3029, 3032,
                                                      3037, 3040, 3045, 3048, 3113, 3116, 3181, 3184, 3249, 3252, 3301, 3304,
                                                      3353, 3356, 3405, 3408, 3457, 3460, 3509, 3512, 3561, 3564, 3613, 3616,
                                                      3665, 3668, 3717, 3720, 3769, 3772, 3775, 3778, 3781, 3784, 3787, 3790,
                                                      3793, 3796, 3851, 3854, 3859, 3862, 3911, 3914, 3963, 3966, 3971, 3974,
                                                      3979, 3982, 3987, 3990, 3995, 3998, 4003, 4008, 4011, 4016, 4019, 4024,
                                                      4027, 4032, 4035, 4040, 4043, 4096, 4099, 4104, 4109, 4114, 4119, 4122,
                                                      4127, 4132, 4137, 4140, 4145, 4150, 4198, 4201, 4249, 4252, 4300, 4303,
                                                      4351, 4354, 4359, 4362, 4367, 4370, 4375, 4378, 4383, 4388, 4391, 4394,
                                                      4444, 4447, 4498, 4501, 4552, 4555, 4606, 4609, 4660, 4663, 4712, 4715,
                                                      4764, 4767, 4816, 4819, 4868, 4871, 4874, 4877, 4926, 4929, 4932, 4935,
                                                      4984, 4987, 4990, 4993, 5042, 5045, 5048, 5051, 5101, 5104, 5153, 5156,
                                                      5161, 5164, 5169, 5174, 5177, 5182, 5187, 5190, 5195, 5198, 5203, 5206,
                                                      5211, 5214, 5219, 5222, 5227, 5230, 5235, 5238, 5243, 5246, 5251, 5254,
                                                      5259, 5262, 5267, 5270, 5275, 5280, 5283, 5288, 5337, 5340, 5389, 5392,
                                                      5441, 5444, 5493, 5496, 5501, 5504, 5509, 5512, 5517, 5520, 5525, 5528,
                                                      5533, 5536, 5588, 5591, 5595, 5598, 5649, 5652, 5656, 5659, 5665, 5668,
                                                      5725, 5728, 5733, 5736, 5739, 5742, 5747, 5750, 5753, 5756, 5759, 5762,
                                                      5767, 5772, 5775, 5823, 5826, 5832, 5835, 5840, 5845, 5848, 5853, 5859,
                                                      5862, 5867, 5872, 5875, 5880, 5885, 5888, 5893, 5900, 5903, 5908, 5913,
                                                      5916, 5919, 5922, 5925, 5928, 5931, 5934, 5939, 5944, 5947, 5952, 5957,
                                                      5960, 5965, 5970, 5973, 5978, 5983, 5986, 5991, 5996, 5997.
       10163    DPDAs                    ted_eval_t_:  621, 5997.
           2    LN1                      ted_eval_t_:  626,  629.
           1    LN1043                   ted_eval_t_: 2100, 2102.
          57    LN1045                   ted_eval_t_: 2106, 2154.
          57    LN1093                   ted_eval_t_: 2158, 2206.
          57    LN1141                   ted_eval_t_: 2210, 2258.
           3    LN1191                   ted_eval_t_: 2272, 2276.
           3    LN1195                   ted_eval_t_: 2280, 2284.
           3    LN1199                   ted_eval_t_: 2288, 2292.
           1    LN12                     ted_eval_t_:  649,  651.
           3    LN1211                   ted_eval_t_: 2336, 2340.
          57    LN1216                   ted_eval_t_: 2349, 2397.
           3    LN1265                   ted_eval_t_: 2406, 2410.
           1    LN1270                   ted_eval_t_: 2419, 2421.
           1    LN1272                   ted_eval_t_: 2425, 2427.
           1    LN1274                   ted_eval_t_: 2431, 2433.
           3    LN1276                   ted_eval_t_: 2437, 2441.
           3    LN1280                   ted_eval_t_: 2445, 2449.
          57    LN1284                   ted_eval_t_: 2453, 2501.
           2    LN1332                   ted_eval_t_: 2505, 2508.
          60    LN1335                   ted_eval_t_: 2512, 2561.
           2    LN1384                   ted_eval_t_: 2565, 2568.
           3    LN1387                   ted_eval_t_: 2572, 2576.
           3    LN1391                   ted_eval_t_: 2580, 2584.
           3    LN1395                   ted_eval_t_: 2588, 2592.
         100    LN1399                   ted_eval_t_: 2596, 2661.
          62    LN14                     ted_eval_t_:  655,  706.
         100    LN1464                   ted_eval_t_: 2665, 2730.
          75    LN149                    ted_eval_t_:  818,  880.
          63    LN1529                   ted_eval_t_: 2734, 2786.
          57    LN1581                   ted_eval_t_: 2790, 2838.
          57    LN1629                   ted_eval_t_: 2842, 2890.
          57    LN1677                   ted_eval_t_: 2894, 2942.
          75    LN1726                   ted_eval_t_: 2951, 3013.
           3    LN1788                   ted_eval_t_: 3017, 3021.
           3    LN1792                   ted_eval_t_: 3025, 3029.
           3    LN1796                   ted_eval_t_: 3033, 3037.
           3    LN1800                   ted_eval_t_: 3041, 3045.
          77    LN1804                   ted_eval_t_: 3049, 3113.
          77    LN1868                   ted_eval_t_: 3117, 3181.
          77    LN1932                   ted_eval_t_: 3185, 3249.
          57    LN1996                   ted_eval_t_: 3253, 3301.
          57    LN2044                   ted_eval_t_: 3305, 3353.
          57    LN2092                   ted_eval_t_: 3357, 3405.
           3    LN211                    ted_eval_t_:  884,  888.
          57    LN2140                   ted_eval_t_: 3409, 3457.
          70    LN215                    ted_eval_t_:  892,  949.
          57    LN2188                   ted_eval_t_: 3461, 3509.
          57    LN2236                   ted_eval_t_: 3513, 3561.
          57    LN2284                   ted_eval_t_: 3565, 3613.
          57    LN2332                   ted_eval_t_: 3617, 3665.
          57    LN2380                   ted_eval_t_: 3669, 3717.
          57    LN2428                   ted_eval_t_: 3721, 3769.
           1    LN2476                   ted_eval_t_: 3773, 3775.
           1    LN2478                   ted_eval_t_: 3779, 3781.
           1    LN2480                   ted_eval_t_: 3785, 3787.
           1    LN2482                   ted_eval_t_: 3791, 3793.
          65    LN2484                   ted_eval_t_: 3797, 3851.
           3    LN2538                   ted_eval_t_: 3855, 3859.
          57    LN2542                   ted_eval_t_: 3863, 3911.
          57    LN2590                   ted_eval_t_: 3915, 3963.
           3    LN2638                   ted_eval_t_: 3967, 3971.
           3    LN2642                   ted_eval_t_: 3975, 3979.
           3    LN2646                   ted_eval_t_: 3983, 3987.
           3    LN2650                   ted_eval_t_: 3991, 3995.
           3    LN2655                   ted_eval_t_: 4004, 4008.
           3    LN2659                   ted_eval_t_: 4012, 4016.
           3    LN2663                   ted_eval_t_: 4020, 4024.
           3    LN2667                   ted_eval_t_: 4028, 4032.
           3    LN2671                   ted_eval_t_: 4036, 4040.
          63    LN2675                   ted_eval_t_: 4044, 4096.
           5    LN272                    ted_eval_t_:  953,  959.
           3    LN2730                   ted_eval_t_: 4115, 4119.
           3    LN2736                   ted_eval_t_: 4133, 4137.
          56    LN2742                   ted_eval_t_: 4151, 4198.
          55    LN278                    ted_eval_t_:  963, 1009.
          56    LN2789                   ted_eval_t_: 4202, 4249.
          56    LN2836                   ted_eval_t_: 4253, 4300.
          56    LN2883                   ted_eval_t_: 4304, 4351.
           3    LN2930                   ted_eval_t_: 4355, 4359.
           3    LN2934                   ted_eval_t_: 4363, 4367.
           3    LN2938                   ted_eval_t_: 4371, 4375.
           1    LN2944                   ted_eval_t_: 4389, 4391.
          60    LN2946                   ted_eval_t_: 4395, 4444.
          61    LN2995                   ted_eval_t_: 4448, 4498.
          61    LN3045                   ted_eval_t_: 4502, 4552.
          61    LN3095                   ted_eval_t_: 4556, 4606.
          61    LN3145                   ted_eval_t_: 4610, 4660.
          57    LN3195                   ted_eval_t_: 4664, 4712.
          57    LN3243                   ted_eval_t_: 4716, 4764.
           2    LN325                    ted_eval_t_: 1018, 1021.
           1    LN328                    ted_eval_t_: 1025, 1027.
          57    LN3291                   ted_eval_t_: 4768, 4816.
           3    LN330                    ted_eval_t_: 1031, 1035.
          57    LN3339                   ted_eval_t_: 4820, 4868.
          62    LN334                    ted_eval_t_: 1039, 1090.
           1    LN3387                   ted_eval_t_: 4872, 4874.
          57    LN3389                   ted_eval_t_: 4878, 4926.
           1    LN3437                   ted_eval_t_: 4930, 4932.
          57    LN3439                   ted_eval_t_: 4936, 4984.
           1    LN3487                   ted_eval_t_: 4988, 4990.
          57    LN3489                   ted_eval_t_: 4994, 5042.
           1    LN3537                   ted_eval_t_: 5046, 5048.
          60    LN3539                   ted_eval_t_: 5052, 5101.
          57    LN3588                   ted_eval_t_: 5105, 5153.
           3    LN3636                   ted_eval_t_: 5157, 5161.
           3    LN3641                   ted_eval_t_: 5170, 5174.
           3    LN3646                   ted_eval_t_: 5183, 5187.
           3    LN3650                   ted_eval_t_: 5191, 5195.
           3    LN3654                   ted_eval_t_: 5199, 5203.
           3    LN3658                   ted_eval_t_: 5207, 5211.
           3    LN3662                   ted_eval_t_: 5215, 5219.
           3    LN3666                   ted_eval_t_: 5223, 5227.
           3    LN3670                   ted_eval_t_: 5231, 5235.
           3    LN3674                   ted_eval_t_: 5239, 5243.
           3    LN3678                   ted_eval_t_: 5247, 5251.
           3    LN3682                   ted_eval_t_: 5255, 5259.
           3    LN3686                   ted_eval_t_: 5263, 5267.
           3    LN3691                   ted_eval_t_: 5276, 5280.
          57    LN3696                   ted_eval_t_: 5289, 5337.
          57    LN3744                   ted_eval_t_: 5341, 5389.
          57    LN3792                   ted_eval_t_: 5393, 5441.
          57    LN3840                   ted_eval_t_: 5445, 5493.
           3    LN385                    ted_eval_t_: 1094, 1098.
           3    LN3888                   ted_eval_t_: 5497, 5501.
          77    LN389                    ted_eval_t_: 1102, 1166.
           3    LN3892                   ted_eval_t_: 5505, 5509.
           3    LN3896                   ted_eval_t_: 5513, 5517.
           3    LN3900                   ted_eval_t_: 5521, 5525.
           3    LN3904                   ted_eval_t_: 5529, 5533.
          62    LN3908                   ted_eval_t_: 5537, 5588.
           2    LN3959                   ted_eval_t_: 5592, 5595.
          61    LN3962                   ted_eval_t_: 5599, 5649.
           3    LN4                      ted_eval_t_:  633,  637.
           2    LN4012                   ted_eval_t_: 5653, 5656.
           4    LN4015                   ted_eval_t_: 5660, 5665.
          67    LN4020                   ted_eval_t_: 5669, 5725.
           3    LN4076                   ted_eval_t_: 5729, 5733.
           1    LN4080                   ted_eval_t_: 5737, 5739.
           3    LN4082                   ted_eval_t_: 5743, 5747.
           1    LN4086                   ted_eval_t_: 5751, 5753.
           1    LN4088                   ted_eval_t_: 5757, 5759.
           3    LN4091                   ted_eval_t_: 5768, 5772.
          56    LN4095                   ted_eval_t_: 5776, 5823.
           4    LN4142                   ted_eval_t_: 5827, 5832.
           3    LN4148                   ted_eval_t_: 5841, 5845.
           4    LN4153                   ted_eval_t_: 5854, 5859.
           3    LN4159                   ted_eval_t_: 5868, 5872.
           3    LN4164                   ted_eval_t_: 5881, 5885.
           5    LN4169                   ted_eval_t_: 5894, 5900.
           3    LN4176                   ted_eval_t_: 5909, 5913.
           1    LN4180                   ted_eval_t_: 5917, 5919.
           1    LN4182                   ted_eval_t_: 5923, 5925.
           1    LN4184                   ted_eval_t_: 5929, 5931.
           3    LN4187                   ted_eval_t_: 5940, 5944.
           3    LN4192                   ted_eval_t_: 5953, 5957.
           3    LN4197                   ted_eval_t_: 5966, 5970.
           3    LN4202                   ted_eval_t_: 5979, 5983.
           3    LN4207                   ted_eval_t_: 5992, 5996.
           3    LN453                    ted_eval_t_: 1170, 1174.
          55    LN457                    ted_eval_t_: 1178, 1224.
           3    LN506                    ted_eval_t_: 1243, 1247.
           3    LN510                    ted_eval_t_: 1251, 1255.
           3    LN514                    ted_eval_t_: 1259, 1263.
           1    LN518                    ted_eval_t_: 1267, 1269.
           1    LN520                    ted_eval_t_: 1273, 1275.
           3    LN522                    ted_eval_t_: 1279, 1283.
           3    LN526                    ted_eval_t_: 1287, 1291.
           3    LN530                    ted_eval_t_: 1295, 1299.
           3    LN534                    ted_eval_t_: 1303, 1307.
           1    LN538                    ted_eval_t_: 1311, 1313.
           1    LN540                    ted_eval_t_: 1317, 1319.
           1    LN542                    ted_eval_t_: 1323, 1325.
           3    LN544                    ted_eval_t_: 1329, 1333.
           3    LN548                    ted_eval_t_: 1337, 1341.
           3    LN552                    ted_eval_t_: 1345, 1349.
           1    LN556                    ted_eval_t_: 1353, 1355.
           1    LN558                    ted_eval_t_: 1359, 1361.
           3    LN560                    ted_eval_t_: 1365, 1369.
           1    LN564                    ted_eval_t_: 1373, 1375.
           1    LN566                    ted_eval_t_: 1379, 1381.
           1    LN568                    ted_eval_t_: 1385, 1387.
           1    LN570                    ted_eval_t_: 1391, 1393.
           1    LN572                    ted_eval_t_: 1397, 1399.
           1    LN574                    ted_eval_t_: 1403, 1405.
           1    LN576                    ted_eval_t_: 1409, 1411.
           3    LN578                    ted_eval_t_: 1415, 1419.
           3    LN582                    ted_eval_t_: 1423, 1427.
           3    LN586                    ted_eval_t_: 1431, 1435.
           1    LN590                    ted_eval_t_: 1439, 1441.
           3    LN592                    ted_eval_t_: 1445, 1449.
           3    LN596                    ted_eval_t_: 1453, 1457.
           3    LN600                    ted_eval_t_: 1461, 1465.
           3    LN605                    ted_eval_t_: 1474, 1478.
           3    LN609                    ted_eval_t_: 1482, 1486.
           1    LN613                    ted_eval_t_: 1490, 1492.
          77    LN615                    ted_eval_t_: 1496, 1560.
           1    LN65                     ted_eval_t_:  710,  712.
           1    LN67                     ted_eval_t_:  716,  718.
           1    LN679                    ted_eval_t_: 1564, 1566.
           1    LN681                    ted_eval_t_: 1570, 1572.
           1    LN683                    ted_eval_t_: 1576, 1578.
           1    LN685                    ted_eval_t_: 1582, 1584.
          53    LN687                    ted_eval_t_: 1588, 1632.
           1    LN69                     ted_eval_t_:  722,  724.
           6    LN71                     ted_eval_t_:  728,  735.
           4    LN740                    ted_eval_t_: 1681, 1686.
           3    LN745                    ted_eval_t_: 1690, 1694.
          75    LN749                    ted_eval_t_: 1698, 1760.
           5    LN78                     ted_eval_t_:  739,  745.
           3    LN8                      ted_eval_t_:  641,  645.
           3    LN812                    ted_eval_t_: 1769, 1773.
           3    LN816                    ted_eval_t_: 1777, 1781.
           3    LN820                    ted_eval_t_: 1785, 1789.
           4    LN824                    ted_eval_t_: 1793, 1798.
           3    LN829                    ted_eval_t_: 1802, 1806.
           3    LN833                    ted_eval_t_: 1810, 1814.
           3    LN837                    ted_eval_t_: 1818, 1822.
         100    LN84                     ted_eval_t_:  749,  814.
           3    LN841                    ted_eval_t_: 1826, 1830.
           3    LN845                    ted_eval_t_: 1834, 1838.
           6    LN852                    ted_eval_t_: 1857, 1864.
           3    LN860                    ted_eval_t_: 1873, 1877.
          61    LN864                    ted_eval_t_: 1881, 1931.
          61    LN914                    ted_eval_t_: 1935, 1985.
           3    LN964                    ted_eval_t_: 1989, 1993.
           3    LN968                    ted_eval_t_: 1997, 2001.
           1    LN972                    ted_eval_t_: 2005, 2007.
           3    LN974                    ted_eval_t_: 2011, 2015.
           3    LN978                    ted_eval_t_: 2019, 2023.
           3    LN982                    ted_eval_t_: 2027, 2031.
           1    LN986                    ted_eval_t_: 2035, 2037.
          66    LN988                    ted_eval_t_: 2041, 2096.
           1    LOOK                     ted_eval_t_:    7.
           3    LOOKS                    ted_eval_t_:    9.
          11    NSRD                     ted_eval_t_:   15,  749,  818,  884,  892, 1018, 1102, 1496, 1698, 1881, 1935, 2512,
                                                      2596, 2665, 2734, 2951, 3049, 3117, 3185, 4044, 4395, 4448, 4502, 4556.
          12    NSRDS                    ted_eval_t_:   16.
           7    SKIP                     ted_eval_t_:   13.
           0    ST0                      ted_eval_t_:   18,  650.
           1    ST1                      ted_eval_t_:  625,  629.
        2023    ST1043                   ted_eval_t_: 2099, 2102, 5831.
        2025    ST1045                   ted_eval_t_: 2105, 2154, 5543, 5606.
        2105    ST1093                   ted_eval_t_: 2157, 2206, 5544, 5607.
        2165    ST1141                   ted_eval_t_: 2209, 2258, 5545, 5608.
        2245    ST1189                   ted_eval_t_: 1268, 2261, 5617.
        2246    ST1190                   ted_eval_t_: 1274, 2266, 5618.
        2247    ST1191                   ted_eval_t_: 1312, 2271, 2276.
        2253    ST1195                   ted_eval_t_: 1318, 2279, 2284.
        2257    ST1199                   ted_eval_t_: 1324, 2287, 2292.
          14    ST12                     ted_eval_t_:  636,  644,  648,  651.
        2263    ST1203                   ted_eval_t_: 1354, 2295, 5619.
        2264    ST1204                   ted_eval_t_: 1360, 2300, 5620.
        2265    ST1205                   ted_eval_t_: 1374, 2305, 5621.
        2266    ST1206                   ted_eval_t_: 1380, 2310, 5622.
        2267    ST1207                   ted_eval_t_: 1386, 2315, 5623.
        2270    ST1208                   ted_eval_t_: 1392, 2320, 5624.
        2271    ST1209                   ted_eval_t_: 1398, 2325, 5625.
        2272    ST1210                   ted_eval_t_: 1404, 2330, 5626.
        2273    ST1211                   ted_eval_t_: 1410, 2335, 2340.
        2277    ST1215                   ted_eval_t_: 1440, 2343, 5627, 5899.
        2300    ST1216                   ted_eval_t_: 2348, 2397, 5546, 5609.
        2360    ST1264                   ted_eval_t_: 1491, 2400, 5628.
        2361    ST1265                   ted_eval_t_: 2405, 2410, 5758.
        2365    ST1269                   ted_eval_t_: 1565, 2413, 5629.
        2366    ST1270                   ted_eval_t_: 1571, 2418, 2421.
        2370    ST1272                   ted_eval_t_: 1577, 2424, 2427.
        2372    ST1274                   ted_eval_t_: 1583, 2430, 2433.
        2374    ST1276                   ted_eval_t_:  957, 2436, 2441.
        2400    ST1280                   ted_eval_t_:  958, 2444, 2449.
        2404    ST1284                   ted_eval_t_: 2452, 2501, 5547, 5610.
        2464    ST1332                   ted_eval_t_: 2504, 2508, 5857.
        2467    ST1335                   ted_eval_t_: 2511, 2561, 5611, 5612.
        2550    ST1384                   ted_eval_t_: 2564, 2568, 5858.
        2553    ST1387                   ted_eval_t_:  732, 2571, 2576.
        2557    ST1391                   ted_eval_t_:  733, 2579, 2584.
        2563    ST1395                   ted_eval_t_:  734, 2587, 2592.
        2567    ST1399                   ted_eval_t_:  743, 2595, 2661.
          16    ST14                     ted_eval_t_:  627,  654,  706.
        2670    ST1464                   ted_eval_t_:  744, 2664, 2730.
         225    ST149                    ted_eval_t_:  817,  880, 5540.
        2771    ST1529                   ted_eval_t_: 2733, 2786, 5613.
        3055    ST1581                   ted_eval_t_: 2789, 2838, 5548, 5614.
        3135    ST1629                   ted_eval_t_: 2841, 2890, 5549, 5615.
        3215    ST1677                   ted_eval_t_: 2893, 2942, 5550, 5616.
        3275    ST1725                   ted_eval_t_: 1797, 2945, 5630.
        3276    ST1726                   ted_eval_t_: 2950, 3013, 5541.
        3374    ST1788                   ted_eval_t_: 2006, 3016, 3021.
        3400    ST1792                   ted_eval_t_: 2036, 3024, 3029.
        3404    ST1796                   ted_eval_t_: 2045, 3032, 3037.
        3410    ST1800                   ted_eval_t_: 2101, 3040, 3045.
        3414    ST1804                   ted_eval_t_: 2109, 3048, 3113.
        3514    ST1868                   ted_eval_t_: 2161, 3116, 3181.
        3614    ST1932                   ted_eval_t_: 2213, 3184, 3249.
        3714    ST1996                   ted_eval_t_: 3252, 3301, 5551, 5617.
        3774    ST2044                   ted_eval_t_: 3304, 3353, 5552, 5618.
        4054    ST2092                   ted_eval_t_: 3356, 3405, 5553, 5619.
         323    ST211                    ted_eval_t_:  883,  888, 5897.
        4134    ST2140                   ted_eval_t_: 3408, 3457, 5554, 5620.
         327    ST215                    ted_eval_t_:  891,  949, 5602.
        4214    ST2188                   ted_eval_t_: 3460, 3509, 5555, 5621.
        4274    ST2236                   ted_eval_t_: 3512, 3561, 5556, 5622.
        4354    ST2284                   ted_eval_t_: 3564, 3613, 5557, 5623.
        4434    ST2332                   ted_eval_t_: 3616, 3665, 5558, 5624.
        4514    ST2380                   ted_eval_t_: 3668, 3717, 5559, 5625.
        4574    ST2428                   ted_eval_t_: 3720, 3769, 5560, 5626.
        4654    ST2476                   ted_eval_t_: 2337, 3772, 3775.
        4656    ST2478                   ted_eval_t_: 2338, 3778, 3781.
        4660    ST2480                   ted_eval_t_: 2339, 3784, 3787.
        4662    ST2482                   ted_eval_t_: 3790, 3793, 5899.
        4664    ST2484                   ted_eval_t_: 3796, 3851, 5561, 5627.
        4752    ST2538                   ted_eval_t_: 2352, 3854, 3859.
        4756    ST2542                   ted_eval_t_: 3862, 3911, 5562, 5628.
        5036    ST2590                   ted_eval_t_: 3914, 3963, 5563, 5629.
        5116    ST2638                   ted_eval_t_: 2420, 3966, 3971.
        5122    ST2642                   ted_eval_t_: 2426, 3974, 3979.
        5126    ST2646                   ted_eval_t_: 2432, 3982, 3987.
        5132    ST2650                   ted_eval_t_: 2457, 3990, 3995.
        5136    ST2654                   ted_eval_t_: 2506, 2566, 3998, 5631.
        5137    ST2655                   ted_eval_t_: 2507, 4003, 4008.
        5143    ST2659                   ted_eval_t_: 2567, 4011, 4016.
        5147    ST2663                   ted_eval_t_: 2793, 3050, 3051, 3052, 3053, 3054, 3055, 3056, 3058, 3059, 3060, 3061,
                                                      3062, 3063, 3064, 3065, 3066, 3067, 3068, 3069, 3070, 3071, 3072, 3073,
                                                      3074, 3075, 3076, 3077, 3078, 3079, 3080, 3081, 3082, 3083, 3084, 3085,
                                                      3086, 3087, 3088, 3089, 3090, 3091, 3092, 3093, 3094, 3095, 3096, 3097,
                                                      3098, 3099, 3100, 3101, 3102, 3103, 3104, 3105, 3106, 3107, 3108, 3109,
                                                      3110, 3111, 3112, 4019, 4024.
        5153    ST2667                   ted_eval_t_: 2845, 3118, 3119, 3120, 3121, 3122, 3123, 3124, 3126, 3127, 3128, 3129,
                                                      3130, 3131, 3132, 3133, 3134, 3135, 3136, 3137, 3138, 3139, 3140, 3141,
                                                      3142, 3143, 3144, 3145, 3146, 3147, 3148, 3149, 3150, 3151, 3152, 3153,
                                                      3154, 3155, 3156, 3157, 3158, 3159, 3160, 3161, 3162, 3163, 3164, 3165,
                                                      3166, 3167, 3168, 3169, 3170, 3171, 3172, 3173, 3174, 3175, 3176, 3177,
                                                      3178, 3179, 3180, 4027, 4032.
        5157    ST2671                   ted_eval_t_: 2897, 3186, 3187, 3188, 3189, 3190, 3191, 3192, 3194, 3195, 3196, 3197,
                                                      3198, 3199, 3200, 3201, 3202, 3203, 3204, 3205, 3206, 3207, 3208, 3209,
                                                      3210, 3211, 3212, 3213, 3214, 3215, 3216, 3217, 3218, 3219, 3220, 3221,
                                                      3222, 3223, 3224, 3225, 3226, 3227, 3228, 3229, 3230, 3231, 3232, 3233,
                                                      3234, 3235, 3236, 3237, 3238, 3239, 3240, 3241, 3242, 3243, 3244, 3245,
                                                      3246, 3247, 3248, 4035, 4040.
        5163    ST2675                   ted_eval_t_: 4043, 4096, 5630.
         420    ST272                    ted_eval_t_:  952,  959, 1097, 1246, 1254, 1262, 1282, 1290, 1298, 1306, 1332, 1340,
                                                      1348, 1368, 1418, 1426, 1434, 1448, 1456, 1464, 1772, 1876, 3028, 3036,
                                                      3044, 3858, 3970, 3978, 3986, 4007, 4015, 4023, 4031, 4039, 4118, 4136,
                                                      4358, 4366, 4374, 5173, 5186, 5194, 5202, 5210, 5218, 5226, 5234, 5242,
                                                      5250, 5258, 5266, 5279, 5500, 5508, 5516, 5524.
        5247    ST2727                   ted_eval_t_: 4099, 5632, 5918.
        5250    ST2728                   ted_eval_t_: 4104, 5633, 5924.
        5251    ST2729                   ted_eval_t_: 4109, 5634, 5930.
        5252    ST2730                   ted_eval_t_: 3257, 4114, 4119.
        5256    ST2734                   ted_eval_t_: 3308, 4122, 5635.
        5257    ST2735                   ted_eval_t_: 3360, 4127, 5636.
        5260    ST2736                   ted_eval_t_: 3413, 4132, 4137.
        5264    ST2740                   ted_eval_t_: 3464, 4140, 5637.
        5265    ST2741                   ted_eval_t_: 3516, 4145, 5638.
        5266    ST2742                   ted_eval_t_: 3568, 4150, 4198, 5639.
         426    ST278                    ted_eval_t_:  962, 1009, 1013, 1228, 1233, 1238, 1469, 1641, 1646, 1651, 1656, 1661,
                                                      1666, 1671, 1676, 1764, 1842, 1847, 1852, 1868, 2030, 2262, 2267, 2296,
                                                      2301, 2306, 2311, 2316, 2321, 2326, 2331, 2344, 2401, 2414, 2946, 3999,
                                                      4100, 4105, 4110, 4123, 4128, 4141, 4146, 4379, 4384, 5165, 5178, 5271,
                                                      5284, 5603.
        5345    ST2789                   ted_eval_t_: 3620, 4201, 4249, 5640.
        5424    ST2836                   ted_eval_t_: 3672, 4252, 4300, 5641.
        5503    ST2883                   ted_eval_t_: 3724, 4303, 4351, 5642.
        5562    ST2930                   ted_eval_t_: 3774, 4354, 4359.
        5566    ST2934                   ted_eval_t_: 3780, 4362, 4367.
        5572    ST2938                   ted_eval_t_: 3786, 4370, 4375.
        5576    ST2942                   ted_eval_t_: 3792, 4378, 5643.
        5577    ST2943                   ted_eval_t_: 3866, 4383, 5644.
        5600    ST2944                   ted_eval_t_: 3919, 4388, 4391.
        5602    ST2946                   ted_eval_t_: 4394, 4444, 5631.
        5663    ST2995                   ted_eval_t_: 4447, 4498, 5632.
        5745    ST3045                   ted_eval_t_: 4501, 4552, 5633.
        6027    ST3095                   ted_eval_t_: 4555, 4606, 5634.
        6111    ST3145                   ted_eval_t_: 4609, 4660, 5564, 5635.
        6173    ST3195                   ted_eval_t_: 4663, 4712, 5565, 5636.
         504    ST324                    ted_eval_t_: 1012, 2409, 5604.
        6253    ST3243                   ted_eval_t_: 4715, 4764, 5566, 5637.
         505    ST325                    ted_eval_t_: 1017, 1021, 5830.
         510    ST328                    ted_eval_t_: 1024, 1027, 5663.
        6333    ST3291                   ted_eval_t_: 4767, 4816, 5567, 5638.
         512    ST330                    ted_eval_t_: 1030, 1035, 1684.
        6413    ST3339                   ted_eval_t_: 4819, 4868, 5568, 5639.
         516    ST334                    ted_eval_t_: 1034, 1038, 1090, 1685, 2014, 5664.
        6473    ST3387                   ted_eval_t_: 4186, 4871, 4874.
        6475    ST3389                   ted_eval_t_: 4877, 4926, 5569, 5640.
        6555    ST3437                   ted_eval_t_: 4237, 4929, 4932.
        6557    ST3439                   ted_eval_t_: 4935, 4984, 5570, 5641.
        6637    ST3487                   ted_eval_t_: 4288, 4987, 4990.
        6641    ST3489                   ted_eval_t_: 4993, 5042, 5571, 5642.
        6721    ST3537                   ted_eval_t_: 4339, 5045, 5048.
        6723    ST3539                   ted_eval_t_: 5051, 5101, 5572, 5643.
        7004    ST3588                   ted_eval_t_: 5104, 5153, 5573, 5644.
        7064    ST3636                   ted_eval_t_: 4390, 5156, 5161.
        7070    ST3640                   ted_eval_t_: 4613, 5164, 5645.
        7071    ST3641                   ted_eval_t_: 4615, 5169, 5174.
        7075    ST3645                   ted_eval_t_: 4616, 5177, 5646.
        7076    ST3646                   ted_eval_t_: 4668, 5182, 5187.
        7102    ST3650                   ted_eval_t_: 4720, 5190, 5195.
        7106    ST3654                   ted_eval_t_: 4772, 5198, 5203.
        7112    ST3658                   ted_eval_t_: 4824, 5206, 5211.
        7116    ST3662                   ted_eval_t_: 4873, 5214, 5219.
        7122    ST3666                   ted_eval_t_: 4882, 5222, 5227.
        7126    ST3670                   ted_eval_t_: 4931, 5230, 5235.
        7132    ST3674                   ted_eval_t_: 4940, 5238, 5243.
        7136    ST3678                   ted_eval_t_: 4989, 5246, 5251.
        7142    ST3682                   ted_eval_t_: 4998, 5254, 5259.
        7146    ST3686                   ted_eval_t_: 5047, 5262, 5267.
        7152    ST3690                   ted_eval_t_: 5055, 5270, 5647.
        7153    ST3691                   ted_eval_t_: 5057, 5275, 5280.
        7157    ST3695                   ted_eval_t_: 5108, 5283, 5648.
        7160    ST3696                   ted_eval_t_: 5288, 5337, 5574, 5645.
        7240    ST3744                   ted_eval_t_: 5340, 5389, 5575, 5646.
        7320    ST3792                   ted_eval_t_: 5392, 5441, 5576, 5647.
        7400    ST3840                   ted_eval_t_: 5444, 5493, 5577, 5648.
         601    ST385                    ted_eval_t_:  656,  964, 1040, 1093, 1098, 1179, 1589, 2042, 2107, 2159, 2211, 2350,
                                                      2454, 2791, 2843, 2895, 3254, 3306, 3358, 3410, 3462, 3514, 3566, 3618,
                                                      3670, 3722, 3798, 3864, 3916, 4152, 4203, 4254, 4305, 4611, 4665, 4717,
                                                      4769, 4821, 4879, 4937, 4995, 5053, 5106, 5290, 5342, 5394, 5446, 5670, 5777.
        7460    ST3888                   ted_eval_t_: 5293, 5496, 5501.
         605    ST389                    ted_eval_t_:  657, 1041, 1101, 1166, 1180.
        7464    ST3892                   ted_eval_t_: 5345, 5504, 5509.
        7470    ST3896                   ted_eval_t_: 5397, 5512, 5517.
        7474    ST3900                   ted_eval_t_: 5449, 5520, 5525.
        7500    ST3904                   ted_eval_t_:  759,  760,  761, 5528, 5533, 5863, 5876.
        7504    ST3908                   ted_eval_t_:  750,  751,  752,  753,  754,  755,  756,  757,  758,  762,  763,  764,
                                                       765,  766,  767,  768,  769,  770,  771,  772,  773,  774,  775,  776,
                                                       777,  778,  779,  780,  781,  782,  783,  784,  785,  786,  787,  788,
                                                       789,  790,  791,  792,  793,  794,  795,  796,  797,  798,  799,  800,
                                                       801,  802,  803,  804,  805,  806,  807,  808,  809,  810,  811,  812,
                                                       813, 5536, 5588, 5871, 5884.
        7567    ST3959                   ted_eval_t_:  828,  829, 5591, 5595, 5763, 5904.
        7572    ST3962                   ted_eval_t_:  819,  820,  821,  822,  823,  824,  825,  826,  827,  830,  831,  832,
                                                       833,  834,  835,  836,  837,  838,  839,  840,  841,  842,  843,  844,
                                                       845,  846,  847,  848,  849,  850,  851,  852,  853,  854,  855,  856,
                                                       857,  858,  859,  860,  861,  862,  863,  864,  865,  866,  867,  868,
                                                       869,  870,  871,  872,  873,  874,  875,  876,  877,  878,  879, 5598,
                                                      5649, 5771, 5912.
           4    ST4                      ted_eval_t_:  632,  637, 3994.
        7654    ST4012                   ted_eval_t_:  886,  887, 5652, 5656.
        7657    ST4015                   ted_eval_t_:  885, 5659, 5665, 5732, 5746.
        7664    ST4020                   ted_eval_t_:  893,  894,  896,  897,  898,  899,  900,  901,  902,  903,  904,  905,
                                                       906,  907,  908,  909,  910,  911,  912,  913,  914,  915,  916,  917,
                                                       918,  919,  920,  921,  922,  923,  924,  925,  926,  927,  928,  929,
                                                       930,  931,  932,  933,  934,  935,  936,  937,  938,  939,  940,  941,
                                                       942,  943,  944,  945,  946,  947,  948, 5578, 5668, 5725.
        7754    ST4076                   ted_eval_t_:  895, 5728, 5733.
        7760    ST4080                   ted_eval_t_: 1020, 5736, 5739.
        7762    ST4082                   ted_eval_t_: 1019, 5742, 5747.
        7766    ST4086                   ted_eval_t_: 1110, 5750, 5753.
        7770    ST4088                   ted_eval_t_: 1504, 5756, 5759.
        7772    ST4090                   ted_eval_t_: 1708, 1709, 5762.
        7773    ST4091                   ted_eval_t_: 1699, 1700, 1701, 1702, 1703, 1704, 1705, 1706, 1707, 1710, 1711, 1712,
                                                      1713, 1714, 1715, 1716, 1717, 1718, 1719, 1720, 1721, 1722, 1723, 1724,
                                                      1725, 1726, 1727, 1728, 1729, 1730, 1731, 1732, 1733, 1734, 1735, 1736,
                                                      1737, 1738, 1739, 1740, 1741, 1742, 1743, 1744, 1745, 1746, 1747, 1748,
                                                      1749, 1750, 1751, 1752, 1753, 1754, 1755, 1756, 1757, 1758, 1759, 5767, 5772.
        7777    ST4095                   ted_eval_t_: 1882, 1883, 1885, 1888, 1889, 1890, 1891, 1892, 1893, 1894, 1895, 1896,
                                                      1897, 1898, 1899, 1900, 1901, 1902, 1903, 1904, 1905, 1906, 1907, 1908,
                                                      1909, 1910, 1911, 1912, 1913, 1914, 1915, 1916, 1917, 1918, 1919, 1920,
                                                      1921, 1922, 1923, 1924, 1925, 1926, 1927, 1928, 1929, 1930, 5579, 5775,
                                                      5823, 5836, 5849, 5889, 5935, 5948, 5961, 5974, 5987.
       10056    ST4142                   ted_eval_t_: 1884, 1886, 1887, 5826, 5832, 5844, 5969, 5982, 5995.
       10063    ST4147                   ted_eval_t_: 1936, 1937, 1939, 1942, 1943, 1944, 1945, 1946, 1947, 1948, 1949, 1950,
                                                      1951, 1952, 1953, 1954, 1955, 1956, 1957, 1958, 1959, 1960, 1961, 1962,
                                                      1963, 1964, 1965, 1966, 1967, 1968, 1969, 1970, 1971, 1972, 1973, 1974,
                                                      1975, 1976, 1977, 1978, 1979, 1980, 1981, 1982, 1983, 1984, 5580, 5835.
       10064    ST4148                   ted_eval_t_: 1938, 1940, 1941, 5840, 5845.
       10070    ST4152                   ted_eval_t_: 2513, 2514, 2516, 2518, 2519, 2520, 2521, 2522, 2523, 2524, 2525, 2526,
                                                      2527, 2528, 2529, 2530, 2531, 2532, 2533, 2534, 2535, 2536, 2537, 2538,
                                                      2539, 2540, 2541, 2542, 2543, 2544, 2545, 2546, 2547, 2548, 2549, 2550,
                                                      2551, 2552, 2553, 2554, 2555, 2556, 2557, 2558, 2559, 2560, 5581, 5848.
       10071    ST4153                   ted_eval_t_: 2515, 2517, 5853, 5859, 5956.
       10076    ST4158                   ted_eval_t_: 2606, 2607, 2608, 5862.
       10077    ST4159                   ted_eval_t_: 2597, 2598, 2599, 2600, 2601, 2602, 2603, 2604, 2605, 2609, 2610, 2611,
                                                      2612, 2613, 2614, 2615, 2616, 2617, 2618, 2619, 2620, 2621, 2622, 2623,
                                                      2624, 2625, 2626, 2627, 2628, 2629, 2630, 2631, 2632, 2633, 2634, 2635,
                                                      2636, 2637, 2638, 2639, 2640, 2641, 2642, 2643, 2644, 2645, 2646, 2647,
                                                      2648, 2649, 2650, 2651, 2652, 2653, 2654, 2655, 2656, 2657, 2658, 2659,
                                                      2660, 5867, 5872.
       10103    ST4163                   ted_eval_t_: 2675, 2676, 2677, 5875.
       10104    ST4164                   ted_eval_t_: 2666, 2667, 2668, 2669, 2670, 2671, 2672, 2673, 2674, 2678, 2679, 2680,
                                                      2681, 2682, 2683, 2684, 2685, 2686, 2687, 2688, 2689, 2690, 2691, 2692,
                                                      2693, 2694, 2695, 2696, 2697, 2698, 2699, 2700, 2701, 2702, 2703, 2704,
                                                      2705, 2706, 2707, 2708, 2709, 2710, 2711, 2712, 2713, 2714, 2715, 2716,
                                                      2717, 2718, 2719, 2720, 2721, 2722, 2723, 2724, 2725, 2726, 2727, 2728,
                                                      2729, 5880, 5885.
       10110    ST4168                   ted_eval_t_: 2735, 2736, 2739, 2743, 2744, 2745, 2746, 2747, 2748, 2749, 2750, 2751,
                                                      2752, 2753, 2754, 2755, 2756, 2757, 2758, 2759, 2760, 2761, 2762, 2763,
                                                      2764, 2765, 2766, 2767, 2768, 2769, 2770, 2771, 2772, 2773, 2774, 2775,
                                                      2776, 2777, 2778, 2779, 2780, 2781, 2782, 2783, 2784, 2785, 5582, 5888.
       10111    ST4169                   ted_eval_t_: 2737, 2738, 2740, 2741, 2742, 5893, 5900, 5943.
       10117    ST4175                   ted_eval_t_: 2961, 2962, 5903.
       10120    ST4176                   ted_eval_t_: 2952, 2953, 2954, 2955, 2956, 2957, 2958, 2959, 2960, 2963, 2964, 2965,
                                                      2966, 2967, 2968, 2969, 2970, 2971, 2972, 2973, 2974, 2975, 2976, 2977,
                                                      2978, 2979, 2980, 2981, 2982, 2983, 2984, 2985, 2986, 2987, 2988, 2989,
                                                      2990, 2991, 2992, 2993, 2994, 2995, 2996, 2997, 2998, 2999, 3000, 3001,
                                                      3002, 3003, 3004, 3005, 3006, 3007, 3008, 3009, 3010, 3011, 3012, 5908, 5913.
       10124    ST4180                   ted_eval_t_: 3057, 5916, 5919.
       10126    ST4182                   ted_eval_t_: 3125, 5922, 5925.
       10130    ST4184                   ted_eval_t_: 3193, 5928, 5931.
       10132    ST4186                   ted_eval_t_: 4045, 4046, 4049, 4053, 4054, 4055, 4056, 4057, 4058, 4059, 4060, 4061,
                                                      4062, 4063, 4064, 4065, 4066, 4067, 4068, 4069, 4070, 4071, 4072, 4073,
                                                      4074, 4075, 4076, 4077, 4078, 4079, 4080, 4081, 4082, 4083, 4084, 4085,
                                                      4086, 4087, 4088, 4089, 4090, 4091, 4092, 4093, 4094, 4095, 5583, 5934.
       10133    ST4187                   ted_eval_t_: 4047, 4048, 4050, 4051, 4052, 5939, 5944.
       10137    ST4191                   ted_eval_t_: 4396, 4397, 4399, 4401, 4402, 4403, 4404, 4405, 4406, 4407, 4408, 4409,
                                                      4410, 4411, 4412, 4413, 4414, 4415, 4416, 4417, 4418, 4419, 4420, 4421,
                                                      4422, 4423, 4424, 4425, 4426, 4427, 4428, 4429, 4430, 4431, 4432, 4433,
                                                      4434, 4435, 4436, 4437, 4438, 4439, 4440, 4441, 4442, 4443, 5584, 5947.
       10140    ST4192                   ted_eval_t_: 4398, 4400, 5952, 5957.
       10144    ST4196                   ted_eval_t_: 4449, 4450, 4452, 4455, 4456, 4457, 4458, 4459, 4460, 4461, 4462, 4463,
                                                      4464, 4465, 4466, 4467, 4468, 4469, 4470, 4471, 4472, 4473, 4474, 4475,
                                                      4476, 4477, 4478, 4479, 4480, 4481, 4482, 4483, 4484, 4485, 4486, 4487,
                                                      4488, 4489, 4490, 4491, 4492, 4493, 4494, 4495, 4496, 4497, 5585, 5960.
       10145    ST4197                   ted_eval_t_: 4451, 4453, 4454, 5965, 5970.
       10151    ST4201                   ted_eval_t_: 4503, 4504, 4506, 4509, 4510, 4511, 4512, 4513, 4514, 4515, 4516, 4517,
                                                      4518, 4519, 4520, 4521, 4522, 4523, 4524, 4525, 4526, 4527, 4528, 4529,
                                                      4530, 4531, 4532, 4533, 4534, 4535, 4536, 4537, 4538, 4539, 4540, 4541,
                                                      4542, 4543, 4544, 4545, 4546, 4547, 4548, 4549, 4550, 4551, 5586, 5973.
       10152    ST4202                   ted_eval_t_: 4505, 4507, 4508, 5978, 5983.
       10156    ST4206                   ted_eval_t_: 4557, 4558, 4560, 4563, 4564, 4565, 4566, 4567, 4568, 4569, 4570, 4571,
                                                      4572, 4573, 4574, 4575, 4576, 4577, 4578, 4579, 4580, 4581, 4582, 4583,
                                                      4584, 4585, 4586, 4587, 4588, 4589, 4590, 4591, 4592, 4593, 4594, 4595,
                                                      4596, 4597, 4598, 4599, 4600, 4601, 4602, 4603, 4604, 4605, 5587, 5986.
       10157    ST4207                   ted_eval_t_: 4559, 4561, 4562, 5991, 5996.
         705    ST453                    ted_eval_t_:  658, 1169, 1174.
         711    ST457                    ted_eval_t_:  659,  966, 1043, 1177, 1181, 1224, 1591, 2044, 2110, 2162, 2214, 2353,
                                                      2456, 2794, 2846, 2898, 3256, 3309, 3361, 3412, 3465, 3517, 3569, 3621,
                                                      3673, 3725, 3800, 3867, 3918, 4154, 4205, 4256, 4307, 4614, 4667, 4719,
                                                      4771, 4823, 4881, 4939, 4997, 5056, 5109, 5292, 5344, 5396, 5448, 5605,
                                                      5672, 5779, 5831, 5898.
         767    ST503                    ted_eval_t_:  660, 1044, 1182, 1227, 5606.
         770    ST504                    ted_eval_t_:  661, 1045, 1183, 1232, 5607.
         771    ST505                    ted_eval_t_:  662, 1046, 1184, 1237, 5608.
         772    ST506                    ted_eval_t_:  663,  970, 1047, 1185, 1242, 1247, 1595, 2055, 2114, 2166, 2218, 2357,
                                                      2461, 2798, 2850, 2902, 3261, 3313, 3365, 3417, 3469, 3521, 3573, 3625,
                                                      3677, 3729, 3810, 3871, 3923, 4158, 4209, 4260, 4311, 4620, 4672, 4724,
                                                      4776, 4828, 4886, 4944, 5002, 5061, 5113, 5297, 5349, 5401, 5453, 5684, 5783.
         776    ST510                    ted_eval_t_:  664,  971, 1048, 1186, 1250, 1255, 1596, 2056, 2115, 2167, 2219, 2358,
                                                      2462, 2799, 2851, 2903, 3262, 3314, 3366, 3418, 3470, 3522, 3574, 3626,
                                                      3678, 3730, 3811, 3872, 3924, 4159, 4210, 4261, 4312, 4621, 4673, 4725,
                                                      4777, 4829, 4887, 4945, 5003, 5062, 5114, 5298, 5350, 5402, 5454, 5685, 5784.
        1002    ST514                    ted_eval_t_:  665,  972, 1049, 1187, 1258, 1263, 1597, 2057, 2116, 2168, 2220, 2359,
                                                      2463, 2800, 2852, 2904, 3263, 3315, 3367, 3419, 3471, 3523, 3575, 3627,
                                                      3679, 3731, 3812, 3873, 3925, 4160, 4211, 4262, 4313, 4622, 4674, 4726,
                                                      4778, 4830, 4888, 4946, 5004, 5063, 5115, 5299, 5351, 5403, 5455, 5686, 5785.
        1006    ST518                    ted_eval_t_:  666,  973, 1050, 1188, 1266, 1269, 1598, 2058, 2117, 2169, 2221, 2360,
                                                      2464, 2801, 2853, 2905, 3264, 3316, 3368, 3420, 3472, 3524, 3576, 3628,
                                                      3680, 3732, 3813, 3874, 3926, 4161, 4212, 4263, 4314, 4623, 4675, 4727,
                                                      4779, 4831, 4889, 4947, 5005, 5064, 5116, 5300, 5352, 5404, 5456, 5687, 5786.
        1010    ST520                    ted_eval_t_:  667,  974, 1051, 1189, 1272, 1275, 1599, 2059, 2118, 2170, 2222, 2361,
                                                      2465, 2802, 2854, 2906, 3265, 3317, 3369, 3421, 3473, 3525, 3577, 3629,
                                                      3681, 3733, 3814, 3875, 3927, 4162, 4213, 4264, 4315, 4624, 4676, 4728,
                                                      4780, 4832, 4890, 4948, 5006, 5065, 5117, 5301, 5353, 5405, 5457, 5688, 5787.
        1012    ST522                    ted_eval_t_:  668,  975, 1052, 1190, 1278, 1283, 1600, 2060, 2119, 2171, 2223, 2362,
                                                      2466, 2803, 2855, 2907, 3266, 3318, 3370, 3422, 3474, 3526, 3578, 3630,
                                                      3682, 3734, 3815, 3876, 3928, 4163, 4214, 4265, 4316, 4625, 4677, 4729,
                                                      4781, 4833, 4891, 4949, 5007, 5066, 5118, 5302, 5354, 5406, 5458, 5689, 5788.
        1016    ST526                    ted_eval_t_:  669,  976, 1053, 1191, 1286, 1291, 1601, 2061, 2120, 2172, 2224, 2363,
                                                      2467, 2804, 2856, 2908, 3267, 3319, 3371, 3423, 3475, 3527, 3579, 3631,
                                                      3683, 3735, 3816, 3877, 3929, 4164, 4215, 4266, 4317, 4626, 4678, 4730,
                                                      4782, 4834, 4892, 4950, 5008, 5067, 5119, 5303, 5355, 5407, 5459, 5690, 5789.
        1022    ST530                    ted_eval_t_:  670,  977, 1054, 1192, 1294, 1299, 1602, 2062, 2121, 2173, 2225, 2364,
                                                      2468, 2805, 2857, 2909, 3268, 3320, 3372, 3424, 3476, 3528, 3580, 3632,
                                                      3684, 3736, 3817, 3878, 3930, 4165, 4216, 4267, 4318, 4627, 4679, 4731,
                                                      4783, 4835, 4893, 4951, 5009, 5068, 5120, 5304, 5356, 5408, 5460, 5691, 5790.
        1026    ST534                    ted_eval_t_:  671,  978, 1055, 1193, 1302, 1307, 1603, 2063, 2122, 2174, 2226, 2365,
                                                      2469, 2806, 2858, 2910, 3269, 3321, 3373, 3425, 3477, 3529, 3581, 3633,
                                                      3685, 3737, 3818, 3879, 3931, 4166, 4217, 4268, 4319, 4628, 4680, 4732,
                                                      4784, 4836, 4894, 4952, 5010, 5069, 5121, 5305, 5357, 5409, 5461, 5692, 5791.
        1032    ST538                    ted_eval_t_:  672, 1056, 1310, 1313.
        1034    ST540                    ted_eval_t_:  673, 1057, 1316, 1319.
        1036    ST542                    ted_eval_t_:  674, 1058, 1322, 1325.
        1040    ST544                    ted_eval_t_:  675,  979, 1059, 1194, 1328, 1333, 1604, 2064, 2123, 2175, 2227, 2366,
                                                      2470, 2807, 2859, 2911, 3270, 3322, 3374, 3426, 3478, 3530, 3582, 3634,
                                                      3686, 3738, 3819, 3880, 3932, 4167, 4218, 4269, 4320, 4629, 4681, 4733,
                                                      4785, 4837, 4895, 4953, 5011, 5070, 5122, 5306, 5358, 5410, 5462, 5693, 5792.
        1044    ST548                    ted_eval_t_:  676,  980, 1060, 1195, 1336, 1341, 1605, 2065, 2124, 2176, 2228, 2367,
                                                      2471, 2808, 2860, 2912, 3271, 3323, 3375, 3427, 3479, 3531, 3583, 3635,
                                                      3687, 3739, 3820, 3881, 3933, 4168, 4219, 4270, 4321, 4630, 4682, 4734,
                                                      4786, 4838, 4896, 4954, 5012, 5071, 5123, 5307, 5359, 5411, 5463, 5694, 5793.
        1050    ST552                    ted_eval_t_:  677,  981, 1061, 1196, 1344, 1349, 1606, 2066, 2125, 2177, 2229, 2368,
                                                      2472, 2809, 2861, 2913, 3272, 3324, 3376, 3428, 3480, 3532, 3584, 3636,
                                                      3688, 3740, 3821, 3882, 3934, 4169, 4220, 4271, 4322, 4631, 4683, 4735,
                                                      4787, 4839, 4897, 4955, 5013, 5072, 5124, 5308, 5360, 5412, 5464, 5695, 5794.
        1054    ST556                    ted_eval_t_:  678,  982, 1062, 1197, 1352, 1355, 1607, 2067, 2126, 2178, 2230, 2369,
                                                      2473, 2810, 2862, 2914, 3273, 3325, 3377, 3429, 3481, 3533, 3585, 3637,
                                                      3689, 3741, 3822, 3883, 3935, 4170, 4221, 4272, 4323, 4632, 4684, 4736,
                                                      4788, 4840, 4898, 4956, 5014, 5073, 5125, 5309, 5361, 5413, 5465, 5696, 5795.
        1056    ST558                    ted_eval_t_:  679,  983, 1063, 1198, 1358, 1361, 1608, 2068, 2127, 2179, 2231, 2370,
                                                      2474, 2811, 2863, 2915, 3274, 3326, 3378, 3430, 3482, 3534, 3586, 3638,
                                                      3690, 3742, 3823, 3884, 3936, 4171, 4222, 4273, 4324, 4633, 4685, 4737,
                                                      4789, 4841, 4899, 4957, 5015, 5074, 5126, 5310, 5362, 5414, 5466, 5697, 5796.
        1060    ST560                    ted_eval_t_:  680,  984, 1064, 1199, 1364, 1369, 1609, 2069, 2128, 2180, 2232, 2371,
                                                      2475, 2812, 2864, 2916, 3275, 3327, 3379, 3431, 3483, 3535, 3587, 3639,
                                                      3691, 3743, 3824, 3885, 3937, 4172, 4223, 4274, 4325, 4634, 4686, 4738,
                                                      4790, 4842, 4900, 4958, 5016, 5075, 5127, 5311, 5363, 5415, 5467, 5698, 5797.
        1064    ST564                    ted_eval_t_:  681,  985, 1065, 1200, 1372, 1375, 1610, 2070, 2129, 2181, 2233, 2372,
                                                      2476, 2813, 2865, 2917, 3276, 3328, 3380, 3432, 3484, 3536, 3588, 3640,
                                                      3692, 3744, 3825, 3886, 3938, 4173, 4224, 4275, 4326, 4635, 4687, 4739,
                                                      4791, 4843, 4901, 4959, 5017, 5076, 5128, 5312, 5364, 5416, 5468, 5699, 5798.
        1066    ST566                    ted_eval_t_:  682,  986, 1066, 1201, 1378, 1381, 1611, 2071, 2130, 2182, 2234, 2373,
                                                      2477, 2814, 2866, 2918, 3277, 3329, 3381, 3433, 3485, 3537, 3589, 3641,
                                                      3693, 3745, 3826, 3887, 3939, 4174, 4225, 4276, 4327, 4636, 4688, 4740,
                                                      4792, 4844, 4902, 4960, 5018, 5077, 5129, 5313, 5365, 5417, 5469, 5700, 5799.
        1070    ST568                    ted_eval_t_:  683,  987, 1067, 1202, 1384, 1387, 1612, 2072, 2131, 2183, 2235, 2374,
                                                      2478, 2815, 2867, 2919, 3278, 3330, 3382, 3434, 3486, 3538, 3590, 3642,
                                                      3694, 3746, 3827, 3888, 3940, 4175, 4226, 4277, 4328, 4637, 4689, 4741,
                                                      4793, 4845, 4903, 4961, 5019, 5078, 5130, 5314, 5366, 5418, 5470, 5701, 5800.
        1072    ST570                    ted_eval_t_:  684,  988, 1068, 1203, 1390, 1393, 1613, 2073, 2132, 2184, 2236, 2375,
                                                      2479, 2816, 2868, 2920, 3279, 3331, 3383, 3435, 3487, 3539, 3591, 3643,
                                                      3695, 3747, 3828, 3889, 3941, 4176, 4227, 4278, 4329, 4638, 4690, 4742,
                                                      4794, 4846, 4904, 4962, 5020, 5079, 5131, 5315, 5367, 5419, 5471, 5702, 5801.
        1074    ST572                    ted_eval_t_:  685,  989, 1069, 1204, 1396, 1399, 1614, 2074, 2133, 2185, 2237, 2376,
                                                      2480, 2817, 2869, 2921, 3280, 3332, 3384, 3436, 3488, 3540, 3592, 3644,
                                                      3696, 3748, 3829, 3890, 3942, 4177, 4228, 4279, 4330, 4639, 4691, 4743,
                                                      4795, 4847, 4905, 4963, 5021, 5080, 5132, 5316, 5368, 5420, 5472, 5703, 5802.
        1076    ST574                    ted_eval_t_:  686,  990, 1070, 1205, 1402, 1405, 1615, 2075, 2134, 2186, 2238, 2377,
                                                      2481, 2818, 2870, 2922, 3281, 3333, 3385, 3437, 3489, 3541, 3593, 3645,
                                                      3697, 3749, 3830, 3891, 3943, 4178, 4229, 4280, 4331, 4640, 4692, 4744,
                                                      4796, 4848, 4906, 4964, 5022, 5081, 5133, 5317, 5369, 5421, 5473, 5704, 5803.
        1100    ST576                    ted_eval_t_:  687,  991, 1071, 1206, 1408, 1411, 1616, 2076, 2135, 2187, 2239, 2378,
                                                      2482, 2819, 2871, 2923, 3282, 3334, 3386, 3438, 3490, 3542, 3594, 3646,
                                                      3698, 3750, 3831, 3892, 3944, 4179, 4230, 4281, 4332, 4641, 4693, 4745,
                                                      4797, 4849, 4907, 4965, 5023, 5082, 5134, 5318, 5370, 5422, 5474, 5705, 5804.
        1102    ST578                    ted_eval_t_:  688,  992, 1072, 1207, 1414, 1419, 1617, 2077, 2136, 2188, 2240, 2379,
                                                      2483, 2820, 2872, 2924, 3283, 3335, 3387, 3439, 3491, 3543, 3595, 3647,
                                                      3699, 3751, 3832, 3893, 3945, 4180, 4231, 4282, 4333, 4642, 4694, 4746,
                                                      4798, 4850, 4908, 4966, 5024, 5083, 5135, 5319, 5371, 5423, 5475, 5706, 5805.
        1106    ST582                    ted_eval_t_:  689,  993, 1073, 1208, 1422, 1427, 1618, 2079, 2137, 2189, 2241, 2380,
                                                      2484, 2821, 2873, 2925, 3284, 3336, 3388, 3440, 3492, 3544, 3596, 3648,
                                                      3700, 3752, 3834, 3894, 3946, 4181, 4232, 4283, 4334, 4643, 4695, 4747,
                                                      4799, 4851, 4909, 4967, 5025, 5084, 5136, 5320, 5372, 5424, 5476, 5708, 5806.
        1112    ST586                    ted_eval_t_:  690,  994, 1074, 1209, 1430, 1435, 1619, 2080, 2138, 2190, 2242, 2381,
                                                      2485, 2822, 2874, 2926, 3285, 3337, 3389, 3441, 3493, 3545, 3597, 3649,
                                                      3701, 3753, 3835, 3895, 3947, 4182, 4233, 4284, 4335, 4644, 4696, 4748,
                                                      4800, 4852, 4910, 4968, 5026, 5085, 5137, 5321, 5373, 5425, 5477, 5709, 5807.
        1116    ST590                    ted_eval_t_:  691,  995, 1075, 1210, 1438, 1441, 1620, 2081, 2139, 2191, 2243, 2382,
                                                      2486, 2823, 2875, 2927, 3286, 3338, 3390, 3442, 3494, 3546, 3598, 3650,
                                                      3702, 3754, 3836, 3896, 3948, 4183, 4234, 4285, 4336, 4645, 4697, 4749,
                                                      4801, 4853, 4911, 4969, 5027, 5086, 5138, 5322, 5374, 5426, 5478, 5710, 5808.
        1120    ST592                    ted_eval_t_:  692,  996, 1076, 1211, 1444, 1449, 1621, 2082, 2140, 2192, 2244, 2383,
                                                      2487, 2824, 2876, 2928, 3287, 3339, 3391, 3443, 3495, 3547, 3599, 3651,
                                                      3703, 3755, 3837, 3897, 3949, 4184, 4235, 4286, 4337, 4646, 4698, 4750,
                                                      4802, 4854, 4912, 4970, 5028, 5087, 5139, 5323, 5375, 5427, 5479, 5711, 5809.
        1124    ST596                    ted_eval_t_:  693,  997, 1077, 1212, 1452, 1457, 1622, 2083, 2141, 2193, 2245, 2384,
                                                      2488, 2825, 2877, 2929, 3288, 3340, 3392, 3444, 3496, 3548, 3600, 3652,
                                                      3704, 3756, 3838, 3898, 3950, 4185, 4236, 4287, 4338, 4647, 4699, 4751,
                                                      4803, 4855, 4913, 4971, 5029, 5088, 5140, 5324, 5376, 5428, 5480, 5712, 5810.
        1130    ST600                    ted_eval_t_:  694,  998, 1078, 1213, 1460, 1465, 1623, 2084, 2142, 2194, 2246, 2385,
                                                      2489, 2826, 2878, 2930, 3289, 3341, 3393, 3445, 3497, 3549, 3601, 3653,
                                                      3705, 3757, 3839, 3899, 3951, 4187, 4238, 4289, 4340, 4648, 4700, 4752,
                                                      4804, 4856, 4914, 4972, 5030, 5089, 5141, 5325, 5377, 5429, 5481, 5713, 5811.
        1134    ST604                    ted_eval_t_:  695,  999, 1079, 1214, 1468, 1624, 2085, 2143, 2195, 2247, 2386, 2490,
                                                      2827, 2879, 2931, 3290, 3342, 3394, 3446, 3498, 3550, 3602, 3654, 3706,
                                                      3758, 3840, 3900, 3952, 4188, 4239, 4290, 4341, 4649, 4701, 4753, 4805,
                                                      4857, 4915, 4973, 5031, 5090, 5142, 5326, 5378, 5430, 5482, 5609, 5714, 5812.
        1135    ST605                    ted_eval_t_:  696, 1000, 1080, 1215, 1473, 1478, 1625, 2086, 2144, 2196, 2248, 2387,
                                                      2491, 2828, 2880, 2932, 3291, 3343, 3395, 3447, 3499, 3551, 3603, 3655,
                                                      3707, 3759, 3841, 3901, 3953, 4189, 4240, 4291, 4342, 4650, 4702, 4754,
                                                      4806, 4858, 4916, 4974, 5032, 5091, 5143, 5327, 5379, 5431, 5483, 5715, 5813.
        1141    ST609                    ted_eval_t_:  697, 1001, 1081, 1216, 1481, 1486, 1626, 2087, 2145, 2197, 2249, 2388,
                                                      2492, 2829, 2881, 2933, 3292, 3344, 3396, 3448, 3500, 3552, 3604, 3656,
                                                      3708, 3760, 3842, 3902, 3954, 4190, 4241, 4292, 4343, 4651, 4703, 4755,
                                                      4807, 4859, 4917, 4975, 5033, 5092, 5144, 5328, 5380, 5432, 5484, 5716, 5814.
        1145    ST613                    ted_eval_t_:  698, 1002, 1082, 1217, 1489, 1492, 1627, 2088, 2146, 2198, 2250, 2389,
                                                      2493, 2830, 2882, 2934, 3293, 3345, 3397, 3449, 3501, 3553, 3605, 3657,
                                                      3709, 3761, 3843, 3903, 3955, 4191, 4242, 4293, 4344, 4652, 4704, 4756,
                                                      4808, 4860, 4918, 4976, 5034, 5093, 5145, 5329, 5381, 5433, 5485, 5717, 5815.
        1147    ST615                    ted_eval_t_:  699, 1083, 1218, 1495, 1560.
         101    ST65                     ted_eval_t_:  628,  709,  712.
         103    ST67                     ted_eval_t_:  715,  718, 1485.
        1247    ST679                    ted_eval_t_:  700, 1084, 1563, 1566.
        1251    ST681                    ted_eval_t_:  701, 1004, 1085, 1219, 1569, 1572, 1629, 2091, 2149, 2201, 2253, 2392,
                                                      2496, 2833, 2885, 2937, 3296, 3348, 3400, 3452, 3504, 3556, 3608, 3660,
                                                      3712, 3764, 3846, 3906, 3958, 4193, 4244, 4295, 4346, 4655, 4707, 4759,
                                                      4811, 4863, 4921, 4979, 5037, 5096, 5148, 5332, 5384, 5436, 5488, 5720, 5818.
        1253    ST683                    ted_eval_t_:  702, 1005, 1086, 1220, 1575, 1578, 1630, 2092, 2150, 2202, 2254, 2393,
                                                      2497, 2834, 2886, 2938, 3297, 3349, 3401, 3453, 3505, 3557, 3609, 3661,
                                                      3713, 3765, 3847, 3907, 3959, 4194, 4245, 4296, 4347, 4656, 4708, 4760,
                                                      4812, 4864, 4922, 4980, 5038, 5097, 5149, 5333, 5385, 5437, 5489, 5721, 5819.
        1255    ST685                    ted_eval_t_:  703, 1006, 1087, 1221, 1581, 1584, 1631, 2093, 2151, 2203, 2255, 2394,
                                                      2498, 2835, 2887, 2939, 3298, 3350, 3402, 3454, 3506, 3558, 3610, 3662,
                                                      3714, 3766, 3848, 3908, 3960, 4195, 4246, 4297, 4348, 4657, 4709, 4761,
                                                      4813, 4865, 4923, 4981, 5039, 5098, 5150, 5334, 5386, 5438, 5490, 5722, 5820.
        1257    ST687                    ted_eval_t_:  704,  957, 1007, 1088, 1222, 1587, 1632, 1636, 2094, 2152, 2204, 2256,
                                                      2395, 2499, 2836, 2888, 2940, 3299, 3351, 3403, 3455, 3507, 3559, 3611,
                                                      3663, 3715, 3767, 3849, 3909, 3961, 4196, 4247, 4298, 4349, 4658, 4710,
                                                      4762, 4814, 4866, 4924, 4982, 5040, 5099, 5151, 5335, 5387, 5439, 5491,
                                                      5723, 5821.
         105    ST69                     ted_eval_t_:  721,  724, 1477.
         107    ST71                     ted_eval_t_:  727,  735,  956, 2440, 2448.
        1333    ST731                    ted_eval_t_:  705,  958, 1008, 1089, 1223, 1635, 2095, 2153, 2205, 2257, 2396, 2500,
                                                      2837, 2889, 2941, 3300, 3352, 3404, 3456, 3508, 3560, 3612, 3664, 3716,
                                                      3768, 3850, 3910, 3962, 4197, 4248, 4299, 4350, 4659, 4711, 4763, 4815,
                                                      4867, 4925, 4983, 5041, 5100, 5152, 5336, 5388, 5440, 5492, 5724, 5822.
        1334    ST732                    ted_eval_t_:  711, 1640, 5610.
        1335    ST733                    ted_eval_t_:  717, 1645, 5611.
        1336    ST734                    ted_eval_t_:  723, 1650, 5612, 5858.
        1337    ST735                    ted_eval_t_:  732, 1655, 5530.
        1340    ST736                    ted_eval_t_:  733, 1660, 5531.
        1341    ST737                    ted_eval_t_:  734, 1665, 5532.
        1342    ST738                    ted_eval_t_:  743, 1670, 5593.
        1343    ST739                    ted_eval_t_:  744, 1675, 5594.
        1344    ST740                    ted_eval_t_: 1680, 1686, 1693, 1780, 1788, 1992, 2275, 2283, 2291, 5160, 5654.
        1351    ST745                    ted_eval_t_: 1689, 1694, 5655.
        1355    ST749                    ted_eval_t_: 1697, 1760, 5542, 5543, 5544, 5545, 5546, 5547, 5548, 5549, 5550, 5551,
                                                      5552, 5553, 5554, 5555, 5556, 5557, 5558, 5559, 5560, 5561, 5562, 5563,
                                                      5564, 5565, 5566, 5567, 5568, 5569, 5570, 5571, 5572, 5573, 5574, 5575,
                                                      5576, 5577, 5578, 5579, 5580, 5581, 5582, 5583, 5584, 5585, 5586, 5587.
         116    ST78                     ted_eval_t_:  731,  738,  745, 2575, 2583, 2591.
          10    ST8                      ted_eval_t_:  640,  645, 1173, 2000, 2022, 3020.
        1453    ST811                    ted_eval_t_: 1763, 1796, 5613.
        1454    ST812                    ted_eval_t_:  965, 1103, 1104, 1105, 1106, 1107, 1108, 1109, 1111, 1112, 1113, 1114,
                                                      1115, 1116, 1117, 1118, 1119, 1120, 1121, 1122, 1123, 1124, 1125, 1126,
                                                      1127, 1128, 1129, 1130, 1131, 1132, 1133, 1134, 1135, 1136, 1137, 1138,
                                                      1139, 1140, 1141, 1142, 1143, 1144, 1145, 1146, 1147, 1148, 1149, 1150,
                                                      1151, 1152, 1153, 1154, 1155, 1156, 1157, 1158, 1159, 1160, 1161, 1162,
                                                      1163, 1164, 1165, 1590, 1768, 1773, 2043, 2108, 2160, 2212, 2351, 2455,
                                                      2792, 2844, 2896, 3255, 3307, 3359, 3411, 3463, 3515, 3567, 3619, 3671,
                                                      3723, 3799, 3865, 3917, 4153, 4204, 4255, 4306, 4612, 4666, 4718, 4770,
                                                      4822, 4880, 4938, 4996, 5054, 5107, 5291, 5343, 5395, 5447, 5671, 5778.
        1460    ST816                    ted_eval_t_: 1776, 1781, 5673.
        1464    ST820                    ted_eval_t_: 1784, 1789, 5674.
        1470    ST824                    ted_eval_t_: 1792, 1798, 1805, 1813, 1821, 1829, 1837, 1858, 2046, 3801, 5675.
        1475    ST829                    ted_eval_t_: 1801, 1806, 1859, 2047, 3802, 5676.
        1501    ST833                    ted_eval_t_: 1809, 1814, 1860, 2048, 3803, 5677.
        1505    ST837                    ted_eval_t_: 1817, 1822, 1861, 2049, 3804, 5678.
         124    ST84                     ted_eval_t_:  742,  748,  814.
        1511    ST841                    ted_eval_t_: 1825, 1830, 1862, 2050, 3805, 5679.
        1515    ST845                    ted_eval_t_: 1833, 1838, 1863, 2051, 3806, 5680.
        1521    ST849                    ted_eval_t_:  967, 1592, 1841, 2052, 2111, 2163, 2215, 2354, 2458, 2795, 2847, 2899,
                                                      3258, 3310, 3362, 3414, 3466, 3518, 3570, 3622, 3674, 3726, 3807, 3868,
                                                      3920, 4155, 4206, 4257, 4308, 4617, 4669, 4721, 4773, 4825, 4883, 4941,
                                                      4999, 5058, 5110, 5294, 5346, 5398, 5450, 5614, 5681, 5780.
        1522    ST850                    ted_eval_t_:  968, 1593, 1846, 2053, 2112, 2164, 2216, 2355, 2459, 2796, 2848, 2900,
                                                      3259, 3311, 3363, 3415, 3467, 3519, 3571, 3623, 3675, 3727, 3808, 3869,
                                                      3921, 4156, 4207, 4258, 4309, 4618, 4670, 4722, 4774, 4826, 4884, 4942,
                                                      5000, 5059, 5111, 5295, 5347, 5399, 5451, 5615, 5682, 5781.
        1523    ST851                    ted_eval_t_:  969, 1594, 1851, 2054, 2113, 2165, 2217, 2356, 2460, 2797, 2849, 2901,
                                                      3260, 3312, 3364, 3416, 3468, 3520, 3572, 3624, 3676, 3728, 3809, 3870,
                                                      3922, 4157, 4208, 4259, 4310, 4619, 4671, 4723, 4775, 4827, 4885, 4943,
                                                      5001, 5060, 5112, 5296, 5348, 5400, 5452, 5616, 5683, 5782.
        1524    ST852                    ted_eval_t_: 1797, 1856, 1864, 2078, 3833, 5707.
        1533    ST859                    ted_eval_t_: 1867, 2089, 2147, 2199, 2251, 2390, 2494, 2831, 2883, 2935, 3294, 3346,
                                                      3398, 3450, 3502, 3554, 3606, 3658, 3710, 3762, 3844, 3904, 3956, 4653,
                                                      4705, 4757, 4809, 4861, 4919, 4977, 5035, 5094, 5146, 5330, 5382, 5434,
                                                      5486, 5541, 5718, 5816.
        1534    ST860                    ted_eval_t_: 1003, 1497, 1498, 1499, 1500, 1501, 1502, 1503, 1505, 1506, 1507, 1508,
                                                      1509, 1510, 1511, 1512, 1513, 1514, 1515, 1516, 1517, 1518, 1519, 1520,
                                                      1521, 1522, 1523, 1524, 1525, 1526, 1527, 1528, 1529, 1530, 1531, 1532,
                                                      1533, 1534, 1535, 1536, 1537, 1538, 1539, 1540, 1541, 1542, 1543, 1544,
                                                      1545, 1546, 1547, 1548, 1549, 1550, 1551, 1552, 1553, 1554, 1555, 1556,
                                                      1557, 1558, 1559, 1628, 1872, 1877, 2090, 2148, 2200, 2252, 2391, 2495,
                                                      2832, 2884, 2936, 3295, 3347, 3399, 3451, 3503, 3555, 3607, 3659, 3711,
                                                      3763, 3845, 3905, 3957, 4192, 4243, 4294, 4345, 4654, 4706, 4758, 4810,
                                                      4862, 4920, 4978, 5036, 5095, 5147, 5331, 5383, 5435, 5487, 5719, 5817.
        1540    ST864                    ted_eval_t_: 1880, 1931, 5603.
        1622    ST914                    ted_eval_t_: 1934, 1985, 5604.
        1704    ST964                    ted_eval_t_: 1988, 1993, 5738.
        1710    ST968                    ted_eval_t_: 1026, 1996, 2001.
        1714    ST972                    ted_eval_t_: 2004, 2007, 5664.
        1716    ST974                    ted_eval_t_: 1685, 2010, 2015.
        1722    ST978                    ted_eval_t_: 1042, 2018, 2023.
        1726    ST982                    ted_eval_t_: 2026, 2031, 5752.
        1732    ST986                    ted_eval_t_: 2034, 2037, 5898.
        1734    ST988                    ted_eval_t_: 2040, 2096, 5542, 5605.
           0    STRD                     ted_eval_t_:    6,  626,  649,  655,  710,  716,  722,  963, 1025, 1039, 1178, 1267,
                                                      1273, 1311, 1317, 1323, 1353, 1359, 1373, 1379, 1385, 1391, 1397, 1403,
                                                      1409, 1439, 1490, 1564, 1570, 1576, 1582, 1588, 1857, 2005, 2035, 2041,
                                                      2100, 2106, 2158, 2210, 2336, 2349, 2419, 2425, 2431, 2453, 2505, 2565,
                                                      2790, 2842, 2894, 3253, 3305, 3357, 3409, 3461, 3513, 3565, 3617, 3669,
                                                      3721, 3773, 3779, 3785, 3791, 3797, 3863, 3915, 4151, 4202, 4253, 4304,
                                                      4389, 4610, 4664, 4716, 4768, 4820, 4872, 4878, 4930, 4936, 4988, 4994,
                                                      5046, 5052, 5105, 5289, 5341, 5393, 5445, 5529, 5592, 5653, 5669, 5737,
                                                      5751, 5757, 5776, 5917, 5923, 5929.
           2    STRDS                    ted_eval_t_:    8, 1013, 1228, 1233, 1238, 1469, 1636, 1641, 1646, 1651, 1656, 1661,
                                                      1666, 1671, 1676, 1764, 1842, 1847, 1852, 1868, 2262, 2267, 2296, 2301,
                                                      2306, 2311, 2316, 2321, 2326, 2331, 2344, 2401, 2414, 2946, 3999, 4100,
                                                      4105, 4110, 4123, 4128, 4141, 4146, 4379, 4384, 5165, 5178, 5271, 5284,
                                                      5763, 5836, 5849, 5863, 5876, 5889, 5904, 5935, 5948, 5961, 5974, 5987.
           0    T0                       ted_eval_t_:   17,   26,  650.
           1    T1                       ted_eval_t_:   38,  656,  750,  819,  893,  964, 1040, 1103, 1179, 1497, 1589, 1699,
                                                      1882, 1936, 2042, 2107, 2159, 2211, 2350, 2454, 2513, 2597, 2666, 2735,
                                                      2791, 2843, 2895, 2952, 3050, 3118, 3186, 3254, 3306, 3358, 3410, 3462,
                                                      3514, 3566, 3618, 3670, 3722, 3798, 3864, 3916, 4045, 4152, 4203, 4254,
                                                      4305, 4396, 4449, 4503, 4557, 4611, 4665, 4717, 4769, 4821, 4879, 4937,
                                                      4995, 5053, 5106, 5290, 5342, 5394, 5446, 5670, 5777.
          12    T10                      ted_eval_t_:  111,  758,  827,  887,  898, 1020, 1109, 1312, 1318, 1324, 1503, 1707,
                                                      1887, 1941, 2605, 2674, 2742, 2960, 3056, 3124, 3192, 4052, 4390, 4454,
                                                      4508, 4562, 5655, 5674, 5738.
          13    T11                      ted_eval_t_:  119, 1110, 1504, 3057, 3125, 3193, 5752, 5758, 5918, 5924, 5930.
          14    T12                      ted_eval_t_:  127,  759, 1111, 1505, 2606, 2675, 3058, 3126, 3194, 5530.
          15    T13                      ted_eval_t_:  135,  760, 1112, 1506, 2607, 2676, 3059, 3127, 3195, 5531.
          16    T14                      ted_eval_t_:  143,  761, 1113, 1507, 2608, 2677, 3060, 3128, 3196, 5532.
          17    T15                      ted_eval_t_:  151,  762,  828, 1114, 1508, 1708, 2609, 2678, 2961, 3061, 3129, 3197, 5593.
          20    T16                      ted_eval_t_:  159,  763,  829, 1115, 1509, 1709, 2610, 2679, 2962, 3062, 3130, 3198, 5594.
          21    T17                      ted_eval_t_:  167,  764,  830,  899, 1116, 1510, 1710, 1858, 2046, 2611, 2680, 2963,
                                                      3063, 3131, 3199, 3801, 5675.
          22    T18                      ted_eval_t_:  175,  765,  831,  900, 1117, 1511, 1711, 1859, 2047, 2612, 2681, 2964,
                                                      3064, 3132, 3200, 3802, 5676.
          23    T19                      ted_eval_t_:  183,  766,  832,  901, 1118, 1512, 1712, 1860, 2048, 2613, 2682, 2965,
                                                      3065, 3133, 3201, 3803, 5677.
           2    T2                       ted_eval_t_:   47,  657,  751,  820,  894,  965, 1041, 1104, 1180, 1498, 1590, 1700,
                                                      1883, 1937, 2043, 2108, 2160, 2212, 2351, 2455, 2514, 2598, 2667, 2736,
                                                      2792, 2844, 2896, 2953, 3051, 3119, 3187, 3255, 3307, 3359, 3411, 3463,
                                                      3515, 3567, 3619, 3671, 3723, 3799, 3865, 3917, 4046, 4153, 4204, 4255,
                                                      4306, 4397, 4450, 4504, 4558, 4612, 4666, 4718, 4770, 4822, 4880, 4938,
                                                      4996, 5054, 5107, 5291, 5343, 5395, 5447, 5671, 5778.
          24    T20                      ted_eval_t_:  191,  767,  833,  902, 1119, 1513, 1713, 1861, 2049, 2614, 2683, 2966,
                                                      3066, 3134, 3202, 3804, 5678.
          25    T21                      ted_eval_t_:  199,  768,  834,  903, 1120, 1514, 1714, 1862, 2050, 2615, 2684, 2967,
                                                      3067, 3135, 3203, 3805, 5679.
          26    T22                      ted_eval_t_:  207,  769,  835,  904, 1121, 1515, 1715, 1863, 2051, 2616, 2685, 2968,
                                                      3068, 3136, 3204, 3806, 5680.
          27    T23                      ted_eval_t_:  215,  660,  770,  836,  905,  967, 1044, 1122, 1182, 1516, 1592, 1716,
                                                      1888, 1942, 2052, 2111, 2163, 2215, 2354, 2458, 2518, 2617, 2686, 2743,
                                                      2795, 2847, 2899, 2969, 3069, 3137, 3205, 3258, 3310, 3362, 3414, 3466,
                                                      3518, 3570, 3622, 3674, 3726, 3807, 3868, 3920, 4053, 4155, 4206, 4257,
                                                      4308, 4401, 4455, 4509, 4563, 4617, 4669, 4721, 4773, 4825, 4883, 4941,
                                                      4999, 5058, 5110, 5294, 5346, 5398, 5450, 5681, 5780.
          30    T24                      ted_eval_t_:  223,  661,  771,  837,  906,  968, 1045, 1123, 1183, 1517, 1593, 1717,
                                                      1889, 1943, 2053, 2112, 2164, 2216, 2355, 2459, 2519, 2618, 2687, 2744,
                                                      2796, 2848, 2900, 2970, 3070, 3138, 3206, 3259, 3311, 3363, 3415, 3467,
                                                      3519, 3571, 3623, 3675, 3727, 3808, 3869, 3921, 4054, 4156, 4207, 4258,
                                                      4309, 4402, 4456, 4510, 4564, 4618, 4670, 4722, 4774, 4826, 4884, 4942,
                                                      5000, 5059, 5111, 5295, 5347, 5399, 5451, 5682, 5781.
          31    T25                      ted_eval_t_:  231,  662,  772,  838,  907,  969, 1046, 1124, 1184, 1518, 1594, 1718,
                                                      1890, 1944, 2054, 2113, 2165, 2217, 2356, 2460, 2520, 2619, 2688, 2745,
                                                      2797, 2849, 2901, 2971, 3071, 3139, 3207, 3260, 3312, 3364, 3416, 3468,
                                                      3520, 3572, 3624, 3676, 3728, 3809, 3870, 3922, 4055, 4157, 4208, 4259,
                                                      4310, 4403, 4457, 4511, 4565, 4619, 4671, 4723, 4775, 4827, 4885, 4943,
                                                      5001, 5060, 5112, 5296, 5348, 5400, 5452, 5683, 5782.
          32    T26                      ted_eval_t_:  239,  663,  773,  839,  908,  970, 1047, 1125, 1185, 1519, 1595, 1719,
                                                      1891, 1945, 2055, 2114, 2166, 2218, 2357, 2461, 2521, 2620, 2689, 2746,
                                                      2798, 2850, 2902, 2972, 3072, 3140, 3208, 3261, 3313, 3365, 3417, 3469,
                                                      3521, 3573, 3625, 3677, 3729, 3810, 3871, 3923, 4056, 4158, 4209, 4260,
                                                      4311, 4404, 4458, 4512, 4566, 4620, 4672, 4724, 4776, 4828, 4886, 4944,
                                                      5002, 5061, 5113, 5297, 5349, 5401, 5453, 5684, 5783.
          33    T27                      ted_eval_t_:  247,  664,  774,  840,  909,  971, 1048, 1126, 1186, 1520, 1596, 1720,
                                                      1892, 1946, 2056, 2115, 2167, 2219, 2337, 2358, 2462, 2522, 2621, 2690,
                                                      2747, 2799, 2851, 2903, 2973, 3073, 3141, 3209, 3262, 3314, 3366, 3418,
                                                      3470, 3522, 3574, 3626, 3678, 3730, 3811, 3872, 3924, 4057, 4159, 4210,
                                                      4261, 4312, 4405, 4459, 4513, 4567, 4621, 4673, 4725, 4777, 4829, 4887,
                                                      4945, 5003, 5062, 5114, 5298, 5350, 5402, 5454, 5685, 5784.
          34    T28                      ted_eval_t_:  255,  665,  775,  841,  910,  972, 1049, 1127, 1187, 1521, 1597, 1721,
                                                      1893, 1947, 2057, 2116, 2168, 2220, 2359, 2463, 2523, 2622, 2691, 2748,
                                                      2800, 2852, 2904, 2974, 3074, 3142, 3210, 3263, 3315, 3367, 3419, 3471,
                                                      3523, 3575, 3627, 3679, 3731, 3812, 3873, 3925, 4058, 4160, 4211, 4262,
                                                      4313, 4406, 4460, 4514, 4568, 4622, 4674, 4726, 4778, 4830, 4888, 4946,
                                                      5004, 5063, 5115, 5299, 5351, 5403, 5455, 5686, 5785.
          35    T29                      ted_eval_t_:  263,  666,  776,  842,  911,  973, 1050, 1128, 1188, 1522, 1598, 1722,
                                                      1894, 1948, 2058, 2117, 2169, 2221, 2360, 2464, 2524, 2623, 2692, 2749,
                                                      2801, 2853, 2905, 2975, 3075, 3143, 3211, 3264, 3316, 3368, 3420, 3472,
                                                      3524, 3576, 3628, 3680, 3732, 3813, 3874, 3926, 4059, 4161, 4212, 4263,
                                                      4314, 4407, 4461, 4515, 4569, 4623, 4675, 4727, 4779, 4831, 4889, 4947,
                                                      5005, 5064, 5116, 5300, 5352, 5404, 5456, 5687, 5786.
           3    T3                       ted_eval_t_:   55,  752,  821, 1701, 2109, 2161, 2213, 2352, 2599, 2668, 2793, 2845,
                                                      2897, 2954.
          36    T30                      ted_eval_t_:  271,  667,  777,  843,  912,  974, 1051, 1129, 1189, 1523, 1599, 1723,
                                                      1895, 1949, 2059, 2118, 2170, 2222, 2361, 2465, 2525, 2624, 2693, 2750,
                                                      2802, 2854, 2906, 2976, 3076, 3144, 3212, 3265, 3317, 3369, 3421, 3473,
                                                      3525, 3577, 3629, 3681, 3733, 3814, 3875, 3927, 4060, 4162, 4213, 4264,
                                                      4315, 4408, 4462, 4516, 4570, 4624, 4676, 4728, 4780, 4832, 4890, 4948,
                                                      5006, 5065, 5117, 5301, 5353, 5405, 5457, 5688, 5787.
          37    T31                      ted_eval_t_:  279,  668,  778,  844,  913,  975, 1052, 1130, 1190, 1524, 1600, 1724,
                                                      1896, 1950, 2060, 2119, 2171, 2223, 2338, 2362, 2466, 2526, 2625, 2694,
                                                      2751, 2803, 2855, 2907, 2977, 3077, 3145, 3213, 3266, 3318, 3370, 3422,
                                                      3474, 3526, 3578, 3630, 3682, 3734, 3815, 3876, 3928, 4061, 4163, 4214,
                                                      4265, 4316, 4409, 4463, 4517, 4571, 4625, 4677, 4729, 4781, 4833, 4891,
                                                      4949, 5007, 5066, 5118, 5302, 5354, 5406, 5458, 5689, 5788.
          40    T32                      ted_eval_t_:  287,  669,  779,  845,  914,  976, 1053, 1131, 1191, 1525, 1601, 1725,
                                                      1897, 1951, 2061, 2120, 2172, 2224, 2339, 2363, 2467, 2527, 2626, 2695,
                                                      2752, 2804, 2856, 2908, 2978, 3078, 3146, 3214, 3267, 3319, 3371, 3423,
                                                      3475, 3527, 3579, 3631, 3683, 3735, 3816, 3877, 3929, 4062, 4164, 4215,
                                                      4266, 4317, 4410, 4464, 4518, 4572, 4626, 4678, 4730, 4782, 4834, 4892,
                                                      4950, 5008, 5067, 5119, 5303, 5355, 5407, 5459, 5690, 5789.
          41    T33                      ted_eval_t_:  295,  670,  780,  846,  915,  977, 1054, 1132, 1192, 1526, 1602, 1726,
                                                      1898, 1952, 2062, 2121, 2173, 2225, 2364, 2468, 2528, 2627, 2696, 2753,
                                                      2805, 2857, 2909, 2979, 3079, 3147, 3215, 3268, 3320, 3372, 3424, 3476,
                                                      3528, 3580, 3632, 3684, 3736, 3817, 3878, 3930, 4063, 4165, 4216, 4267,
                                                      4318, 4411, 4465, 4519, 4573, 4627, 4679, 4731, 4783, 4835, 4893, 4951,
                                                      5009, 5068, 5120, 5304, 5356, 5408, 5460, 5691, 5790.
          42    T34                      ted_eval_t_:  303,  671,  781,  847,  916,  978, 1055, 1133, 1193, 1527, 1603, 1727,
                                                      1899, 1953, 2063, 2122, 2174, 2226, 2365, 2469, 2529, 2628, 2697, 2754,
                                                      2806, 2858, 2910, 2980, 3080, 3148, 3216, 3269, 3321, 3373, 3425, 3477,
                                                      3529, 3581, 3633, 3685, 3737, 3818, 3879, 3931, 4064, 4166, 4217, 4268,
                                                      4319, 4412, 4466, 4520, 4574, 4628, 4680, 4732, 4784, 4836, 4894, 4952,
                                                      5010, 5069, 5121, 5305, 5357, 5409, 5461, 5692, 5791.
          43    T35                      ted_eval_t_:  311,  672, 1056.
          44    T36                      ted_eval_t_:  319,  673, 1057.
          45    T37                      ted_eval_t_:  327,  674, 1058.
          46    T38                      ted_eval_t_:  335,  675,  782,  848,  917,  979, 1059, 1134, 1194, 1528, 1604, 1728,
                                                      1900, 1954, 2064, 2123, 2175, 2227, 2366, 2470, 2530, 2629, 2698, 2755,
                                                      2807, 2859, 2911, 2981, 3081, 3149, 3217, 3270, 3322, 3374, 3426, 3478,
                                                      3530, 3582, 3634, 3686, 3738, 3819, 3880, 3932, 4065, 4167, 4218, 4269,
                                                      4320, 4413, 4467, 4521, 4575, 4629, 4681, 4733, 4785, 4837, 4895, 4953,
                                                      5011, 5070, 5122, 5306, 5358, 5410, 5462, 5693, 5792.
          47    T39                      ted_eval_t_:  343,  676,  783,  849,  918,  980, 1060, 1135, 1195, 1529, 1605, 1729,
                                                      1901, 1955, 2065, 2124, 2176, 2228, 2367, 2471, 2531, 2630, 2699, 2756,
                                                      2808, 2860, 2912, 2982, 3082, 3150, 3218, 3271, 3323, 3375, 3427, 3479,
                                                      3531, 3583, 3635, 3687, 3739, 3820, 3881, 3933, 4066, 4168, 4219, 4270,
                                                      4321, 4414, 4468, 4522, 4576, 4630, 4682, 4734, 4786, 4838, 4896, 4954,
                                                      5012, 5071, 5123, 5307, 5359, 5411, 5463, 5694, 5793.
           4    T4                       ted_eval_t_:   63,  753,  822, 1702, 2506, 2515, 2566, 2600, 2669, 2737, 2955, 3308,
                                                      3360, 3464, 3516, 3568, 3620, 3672, 3724, 3792, 3866, 4047, 4398, 4613,
                                                      5055, 5108.
          50    T40                      ted_eval_t_:  351,  677,  784,  850,  919,  981, 1061, 1136, 1196, 1530, 1606, 1730,
                                                      1902, 1956, 2066, 2125, 2177, 2229, 2368, 2472, 2532, 2631, 2700, 2757,
                                                      2809, 2861, 2913, 2983, 3083, 3151, 3219, 3272, 3324, 3376, 3428, 3480,
                                                      3532, 3584, 3636, 3688, 3740, 3821, 3882, 3934, 4067, 4169, 4220, 4271,
                                                      4322, 4415, 4469, 4523, 4577, 4631, 4683, 4735, 4787, 4839, 4897, 4955,
                                                      5013, 5072, 5124, 5308, 5360, 5412, 5464, 5695, 5794.
          51    T41                      ted_eval_t_:  359,  678,  785,  851,  920,  982, 1062, 1137, 1197, 1531, 1607, 1731,
                                                      1903, 1957, 2067, 2126, 2178, 2230, 2369, 2473, 2533, 2632, 2701, 2758,
                                                      2810, 2862, 2914, 2984, 3084, 3152, 3220, 3273, 3325, 3377, 3429, 3481,
                                                      3533, 3585, 3637, 3689, 3741, 3822, 3883, 3935, 4068, 4170, 4221, 4272,
                                                      4323, 4416, 4470, 4524, 4578, 4632, 4684, 4736, 4788, 4840, 4898, 4956,
                                                      5014, 5073, 5125, 5309, 5361, 5413, 5465, 5696, 5795.
          52    T42                      ted_eval_t_:  367,  679,  786,  852,  921,  983, 1063, 1138, 1198, 1532, 1608, 1732,
                                                      1904, 1958, 2068, 2127, 2179, 2231, 2370, 2474, 2534, 2633, 2702, 2759,
                                                      2811, 2863, 2915, 2985, 3085, 3153, 3221, 3274, 3326, 3378, 3430, 3482,
                                                      3534, 3586, 3638, 3690, 3742, 3823, 3884, 3936, 4069, 4171, 4222, 4273,
                                                      4324, 4417, 4471, 4525, 4579, 4633, 4685, 4737, 4789, 4841, 4899, 4957,
                                                      5015, 5074, 5126, 5310, 5362, 5414, 5466, 5697, 5796.
          53    T43                      ted_eval_t_:  375,  680,  787,  853,  922,  984, 1064, 1139, 1199, 1533, 1609, 1733,
                                                      1905, 1959, 2069, 2128, 2180, 2232, 2371, 2475, 2535, 2634, 2703, 2760,
                                                      2812, 2864, 2916, 2986, 3086, 3154, 3222, 3275, 3327, 3379, 3431, 3483,
                                                      3535, 3587, 3639, 3691, 3743, 3824, 3885, 3937, 4070, 4172, 4223, 4274,
                                                      4325, 4418, 4472, 4526, 4580, 4634, 4686, 4738, 4790, 4842, 4900, 4958,
                                                      5016, 5075, 5127, 5311, 5363, 5415, 5467, 5698, 5797.
          54    T44                      ted_eval_t_:  383,  681,  788,  854,  923,  985, 1065, 1140, 1200, 1534, 1610, 1734,
                                                      1906, 1960, 2070, 2129, 2181, 2233, 2372, 2476, 2536, 2635, 2704, 2761,
                                                      2813, 2865, 2917, 2987, 3087, 3155, 3223, 3276, 3328, 3380, 3432, 3484,
                                                      3536, 3588, 3640, 3692, 3744, 3825, 3886, 3938, 4071, 4173, 4224, 4275,
                                                      4326, 4419, 4473, 4527, 4581, 4635, 4687, 4739, 4791, 4843, 4901, 4959,
                                                      5017, 5076, 5128, 5312, 5364, 5416, 5468, 5699, 5798.
          55    T45                      ted_eval_t_:  391,  682,  789,  855,  924,  986, 1066, 1141, 1201, 1535, 1611, 1735,
                                                      1907, 1961, 2071, 2130, 2182, 2234, 2373, 2477, 2537, 2636, 2705, 2762,
                                                      2814, 2866, 2918, 2988, 3088, 3156, 3224, 3277, 3329, 3381, 3433, 3485,
                                                      3537, 3589, 3641, 3693, 3745, 3826, 3887, 3939, 4072, 4174, 4225, 4276,
                                                      4327, 4420, 4474, 4528, 4582, 4636, 4688, 4740, 4792, 4844, 4902, 4960,
                                                      5018, 5077, 5129, 5313, 5365, 5417, 5469, 5700, 5799.
          56    T46                      ted_eval_t_:  399,  683,  790,  856,  925,  987, 1067, 1142, 1202, 1536, 1612, 1736,
                                                      1908, 1962, 2072, 2131, 2183, 2235, 2374, 2478, 2538, 2637, 2706, 2763,
                                                      2815, 2867, 2919, 2989, 3089, 3157, 3225, 3278, 3330, 3382, 3434, 3486,
                                                      3538, 3590, 3642, 3694, 3746, 3827, 3888, 3940, 4073, 4175, 4226, 4277,
                                                      4328, 4421, 4475, 4529, 4583, 4637, 4689, 4741, 4793, 4845, 4903, 4961,
                                                      5019, 5078, 5130, 5314, 5366, 5418, 5470, 5701, 5800.
          57    T47                      ted_eval_t_:  407,  684,  791,  857,  926,  988, 1068, 1143, 1203, 1537, 1613, 1737,
                                                      1909, 1963, 2073, 2132, 2184, 2236, 2375, 2479, 2539, 2638, 2707, 2764,
                                                      2816, 2868, 2920, 2990, 3090, 3158, 3226, 3279, 3331, 3383, 3435, 3487,
                                                      3539, 3591, 3643, 3695, 3747, 3828, 3889, 3941, 4074, 4176, 4227, 4278,
                                                      4329, 4422, 4476, 4530, 4584, 4638, 4690, 4742, 4794, 4846, 4904, 4962,
                                                      5020, 5079, 5131, 5315, 5367, 5419, 5471, 5702, 5801.
          60    T48                      ted_eval_t_:  415,  685,  792,  858,  927,  989, 1069, 1144, 1204, 1538, 1614, 1738,
                                                      1910, 1964, 2074, 2133, 2185, 2237, 2376, 2480, 2540, 2639, 2708, 2765,
                                                      2817, 2869, 2921, 2991, 3091, 3159, 3227, 3280, 3332, 3384, 3436, 3488,
                                                      3540, 3592, 3644, 3696, 3748, 3829, 3890, 3942, 4075, 4177, 4228, 4279,
                                                      4330, 4423, 4477, 4531, 4585, 4639, 4691, 4743, 4795, 4847, 4905, 4963,
                                                      5021, 5080, 5132, 5316, 5368, 5420, 5472, 5703, 5802.
          61    T49                      ted_eval_t_:  423,  686,  793,  859,  928,  990, 1070, 1145, 1205, 1539, 1615, 1739,
                                                      1911, 1965, 2075, 2134, 2186, 2238, 2377, 2481, 2541, 2640, 2709, 2766,
                                                      2818, 2870, 2922, 2992, 3092, 3160, 3228, 3281, 3333, 3385, 3437, 3489,
                                                      3541, 3593, 3645, 3697, 3749, 3830, 3891, 3943, 4076, 4178, 4229, 4280,
                                                      4331, 4424, 4478, 4532, 4586, 4640, 4692, 4744, 4796, 4848, 4906, 4964,
                                                      5022, 5081, 5133, 5317, 5369, 5421, 5473, 5704, 5803.
           5    T5                       ted_eval_t_:   71,  627.
          62    T50                      ted_eval_t_:  431,  687,  794,  860,  929,  991, 1071, 1146, 1206, 1540, 1616, 1740,
                                                      1912, 1966, 2076, 2135, 2187, 2239, 2378, 2482, 2542, 2641, 2710, 2767,
                                                      2819, 2871, 2923, 2993, 3093, 3161, 3229, 3282, 3334, 3386, 3438, 3490,
                                                      3542, 3594, 3646, 3698, 3750, 3831, 3892, 3944, 4077, 4179, 4230, 4281,
                                                      4332, 4425, 4479, 4533, 4587, 4641, 4693, 4745, 4797, 4849, 4907, 4965,
                                                      5023, 5082, 5134, 5318, 5370, 5422, 5474, 5705, 5804.
          63    T51                      ted_eval_t_:  439,  688,  795,  861,  930,  992, 1072, 1147, 1207, 1541, 1617, 1741,
                                                      1913, 1967, 2077, 2136, 2188, 2240, 2379, 2483, 2543, 2642, 2711, 2768,
                                                      2820, 2872, 2924, 2994, 3094, 3162, 3230, 3283, 3335, 3387, 3439, 3491,
                                                      3543, 3595, 3647, 3699, 3751, 3832, 3893, 3945, 4078, 4180, 4231, 4282,
                                                      4333, 4426, 4480, 4534, 4588, 4642, 4694, 4746, 4798, 4850, 4908, 4966,
                                                      5024, 5083, 5135, 5319, 5371, 5423, 5475, 5706, 5805.
          64    T52                      ted_eval_t_:  447,  796,  862,  931, 1148, 1542, 1742, 2078, 2643, 2712, 2995, 3095,
                                                      3163, 3231, 3833, 5707.
          65    T53                      ted_eval_t_:  455,  689,  797,  863,  932,  993, 1073, 1149, 1208, 1543, 1618, 1743,
                                                      1914, 1968, 2079, 2137, 2189, 2241, 2380, 2484, 2544, 2644, 2713, 2769,
                                                      2821, 2873, 2925, 2996, 3096, 3164, 3232, 3284, 3336, 3388, 3440, 3492,
                                                      3544, 3596, 3648, 3700, 3752, 3834, 3894, 3946, 4079, 4181, 4232, 4283,
                                                      4334, 4427, 4481, 4535, 4589, 4643, 4695, 4747, 4799, 4851, 4909, 4967,
                                                      5025, 5084, 5136, 5320, 5372, 5424, 5476, 5708, 5806.
          66    T54                      ted_eval_t_:  463,  690,  798,  864,  933,  994, 1074, 1150, 1209, 1544, 1619, 1744,
                                                      1915, 1969, 2080, 2138, 2190, 2242, 2381, 2485, 2545, 2645, 2714, 2770,
                                                      2822, 2874, 2926, 2997, 3097, 3165, 3233, 3285, 3337, 3389, 3441, 3493,
                                                      3545, 3597, 3649, 3701, 3753, 3835, 3895, 3947, 4080, 4182, 4233, 4284,
                                                      4335, 4428, 4482, 4536, 4590, 4644, 4696, 4748, 4800, 4852, 4910, 4968,
                                                      5026, 5085, 5137, 5321, 5373, 5425, 5477, 5709, 5807.
          67    T55                      ted_eval_t_:  471,  691,  799,  865,  934,  995, 1075, 1151, 1210, 1545, 1620, 1745,
                                                      1916, 1970, 2081, 2139, 2191, 2243, 2382, 2486, 2546, 2646, 2715, 2771,
                                                      2823, 2875, 2927, 2998, 3098, 3166, 3234, 3286, 3338, 3390, 3442, 3494,
                                                      3546, 3598, 3650, 3702, 3754, 3836, 3896, 3948, 4081, 4183, 4234, 4285,
                                                      4336, 4429, 4483, 4537, 4591, 4645, 4697, 4749, 4801, 4853, 4911, 4969,
                                                      5027, 5086, 5138, 5322, 5374, 5426, 5478, 5710, 5808.
          70    T56                      ted_eval_t_:  479,  628.
          71    T57                      ted_eval_t_:  487,  692,  800,  866,  935,  996, 1076, 1152, 1211, 1546, 1621, 1746,
                                                      1917, 1971, 2082, 2140, 2192, 2244, 2383, 2487, 2547, 2647, 2716, 2772,
                                                      2824, 2876, 2928, 2999, 3099, 3167, 3235, 3287, 3339, 3391, 3443, 3495,
                                                      3547, 3599, 3651, 3703, 3755, 3837, 3897, 3949, 4082, 4184, 4235, 4286,
                                                      4337, 4430, 4484, 4538, 4592, 4646, 4698, 4750, 4802, 4854, 4912, 4970,
                                                      5028, 5087, 5139, 5323, 5375, 5427, 5479, 5711, 5809.
          72    T58                      ted_eval_t_:  495,  693,  801,  867,  936,  997, 1077, 1153, 1212, 1547, 1622, 1747,
                                                      1918, 1972, 2083, 2141, 2193, 2245, 2384, 2488, 2548, 2648, 2717, 2773,
                                                      2825, 2877, 2929, 3000, 3100, 3168, 3236, 3288, 3340, 3392, 3444, 3496,
                                                      3548, 3600, 3652, 3704, 3756, 3838, 3898, 3950, 4083, 4185, 4236, 4287,
                                                      4338, 4431, 4485, 4539, 4593, 4647, 4699, 4751, 4803, 4855, 4913, 4971,
                                                      5029, 5088, 5140, 5324, 5376, 5428, 5480, 5712, 5810.
          73    T59                      ted_eval_t_:  504, 4186, 4237, 4288, 4339.
           6    T6                       ted_eval_t_:   79,  658,  754,  823,  885,  895, 1019, 1026, 1042, 1105, 1499, 1703,
                                                      1884, 1938, 2006, 2601, 2670, 2738, 2956, 3052, 3120, 3188, 4048, 4451,
                                                      4505, 4559.
          74    T60                      ted_eval_t_:  512,  694,  802,  868,  937,  998, 1078, 1154, 1213, 1548, 1623, 1748,
                                                      1919, 1973, 2084, 2142, 2194, 2246, 2385, 2489, 2549, 2649, 2718, 2774,
                                                      2826, 2878, 2930, 3001, 3101, 3169, 3237, 3289, 3341, 3393, 3445, 3497,
                                                      3549, 3601, 3653, 3705, 3757, 3839, 3899, 3951, 4084, 4187, 4238, 4289,
                                                      4340, 4432, 4486, 4540, 4594, 4648, 4700, 4752, 4804, 4856, 4914, 4972,
                                                      5030, 5089, 5141, 5325, 5377, 5429, 5481, 5713, 5811.
          75    T61                      ted_eval_t_:  520,  695,  803,  869,  938,  999, 1079, 1155, 1214, 1549, 1624, 1749,
                                                      1920, 1974, 2085, 2143, 2195, 2247, 2386, 2490, 2550, 2650, 2719, 2775,
                                                      2827, 2879, 2931, 3002, 3102, 3170, 3238, 3290, 3342, 3394, 3446, 3498,
                                                      3550, 3602, 3654, 3706, 3758, 3840, 3900, 3952, 4085, 4188, 4239, 4290,
                                                      4341, 4433, 4487, 4541, 4595, 4649, 4701, 4753, 4805, 4857, 4915, 4973,
                                                      5031, 5090, 5142, 5326, 5378, 5430, 5482, 5714, 5812.
          76    T62                      ted_eval_t_:  528,  696,  804,  870,  939, 1000, 1080, 1156, 1215, 1550, 1625, 1750,
                                                      1921, 1975, 2086, 2144, 2196, 2248, 2387, 2491, 2551, 2651, 2720, 2776,
                                                      2828, 2880, 2932, 3003, 3103, 3171, 3239, 3291, 3343, 3395, 3447, 3499,
                                                      3551, 3603, 3655, 3707, 3759, 3841, 3901, 3953, 4086, 4189, 4240, 4291,
                                                      4342, 4434, 4488, 4542, 4596, 4650, 4702, 4754, 4806, 4858, 4916, 4974,
                                                      5032, 5091, 5143, 5327, 5379, 5431, 5483, 5715, 5813.
          77    T63                      ted_eval_t_:  536,  697,  805,  871,  940, 1001, 1081, 1157, 1216, 1551, 1626, 1751,
                                                      1922, 1976, 2087, 2145, 2197, 2249, 2388, 2492, 2552, 2652, 2721, 2777,
                                                      2829, 2881, 2933, 3004, 3104, 3172, 3240, 3292, 3344, 3396, 3448, 3500,
                                                      3552, 3604, 3656, 3708, 3760, 3842, 3902, 3954, 4087, 4190, 4241, 4292,
                                                      4343, 4435, 4489, 4543, 4597, 4651, 4703, 4755, 4807, 4859, 4917, 4975,
                                                      5033, 5092, 5144, 5328, 5380, 5432, 5484, 5716, 5814.
         100    T64                      ted_eval_t_:  544,  698,  806,  872,  941, 1002, 1082, 1158, 1217, 1552, 1627, 1752,
                                                      1923, 1977, 2088, 2146, 2198, 2250, 2389, 2493, 2553, 2653, 2722, 2778,
                                                      2830, 2882, 2934, 3005, 3105, 3173, 3241, 3293, 3345, 3397, 3449, 3501,
                                                      3553, 3605, 3657, 3709, 3761, 3843, 3903, 3955, 4088, 4191, 4242, 4293,
                                                      4344, 4436, 4490, 4544, 4598, 4652, 4704, 4756, 4808, 4860, 4918, 4976,
                                                      5034, 5093, 5145, 5329, 5381, 5433, 5485, 5717, 5815.
         101    T65                      ted_eval_t_:  552,  807,  873,  942, 1159, 1553, 1753, 1924, 1978, 2089, 2147, 2199,
                                                      2251, 2390, 2494, 2554, 2654, 2723, 2779, 2831, 2883, 2935, 3006, 3106,
                                                      3174, 3242, 3294, 3346, 3398, 3450, 3502, 3554, 3606, 3658, 3710, 3762,
                                                      3844, 3904, 3956, 4089, 4437, 4491, 4545, 4599, 4653, 4705, 4757, 4809,
                                                      4861, 4919, 4977, 5035, 5094, 5146, 5330, 5382, 5434, 5486, 5718, 5816.
         102    T66                      ted_eval_t_:  561,  699,  808,  874,  943, 1003, 1083, 1160, 1218, 1554, 1628, 1754,
                                                      1925, 1979, 2090, 2148, 2200, 2252, 2391, 2495, 2555, 2655, 2724, 2780,
                                                      2832, 2884, 2936, 3007, 3107, 3175, 3243, 3295, 3347, 3399, 3451, 3503,
                                                      3555, 3607, 3659, 3711, 3763, 3845, 3905, 3957, 4090, 4192, 4243, 4294,
                                                      4345, 4438, 4492, 4546, 4600, 4654, 4706, 4758, 4810, 4862, 4920, 4978,
                                                      5036, 5095, 5147, 5331, 5383, 5435, 5487, 5719, 5817.
         103    T67                      ted_eval_t_:  569,  700, 1084.
         104    T68                      ted_eval_t_:  577,  701,  809,  875,  944, 1004, 1085, 1161, 1219, 1555, 1629, 1755,
                                                      1926, 1980, 2091, 2149, 2201, 2253, 2392, 2496, 2556, 2656, 2725, 2781,
                                                      2833, 2885, 2937, 3008, 3108, 3176, 3244, 3296, 3348, 3400, 3452, 3504,
                                                      3556, 3608, 3660, 3712, 3764, 3846, 3906, 3958, 4091, 4193, 4244, 4295,
                                                      4346, 4439, 4493, 4547, 4601, 4655, 4707, 4759, 4811, 4863, 4921, 4979,
                                                      5037, 5096, 5148, 5332, 5384, 5436, 5488, 5720, 5818.
         105    T69                      ted_eval_t_:  585,  702,  810,  876,  945, 1005, 1086, 1162, 1220, 1556, 1630, 1756,
                                                      1927, 1981, 2092, 2150, 2202, 2254, 2393, 2497, 2557, 2657, 2726, 2782,
                                                      2834, 2886, 2938, 3009, 3109, 3177, 3245, 3297, 3349, 3401, 3453, 3505,
                                                      3557, 3609, 3661, 3713, 3765, 3847, 3907, 3959, 4092, 4194, 4245, 4296,
                                                      4347, 4440, 4494, 4548, 4602, 4656, 4708, 4760, 4812, 4864, 4922, 4980,
                                                      5038, 5097, 5149, 5333, 5385, 5437, 5489, 5721, 5819.
           7    T7                       ted_eval_t_:   87,  659,  711,  717,  723,  755,  824,  896,  966, 1043, 1106, 1181,
                                                      1268, 1274, 1354, 1360, 1374, 1380, 1386, 1392, 1398, 1404, 1410, 1440,
                                                      1491, 1500, 1565, 1571, 1577, 1583, 1591, 1704, 1885, 1939, 2044, 2110,
                                                      2162, 2214, 2353, 2456, 2516, 2602, 2671, 2739, 2794, 2846, 2898, 2957,
                                                      3053, 3121, 3189, 3256, 3309, 3361, 3412, 3465, 3517, 3569, 3621, 3673,
                                                      3725, 3800, 3867, 3918, 4049, 4154, 4205, 4256, 4307, 4399, 4452, 4506,
                                                      4560, 4614, 4667, 4719, 4771, 4823, 4881, 4939, 4997, 5056, 5109, 5292,
                                                      5344, 5396, 5448, 5672, 5779.
         106    T70                      ted_eval_t_:  593,  703,  811,  877,  946, 1006, 1087, 1163, 1221, 1557, 1631, 1757,
                                                      1928, 1982, 2093, 2151, 2203, 2255, 2394, 2498, 2558, 2658, 2727, 2783,
                                                      2835, 2887, 2939, 3010, 3110, 3178, 3246, 3298, 3350, 3402, 3454, 3506,
                                                      3558, 3610, 3662, 3714, 3766, 3848, 3908, 3960, 4093, 4195, 4246, 4297,
                                                      4348, 4441, 4495, 4549, 4603, 4657, 4709, 4761, 4813, 4865, 4923, 4981,
                                                      5039, 5098, 5150, 5334, 5386, 5438, 5490, 5722, 5820.
         107    T71                      ted_eval_t_:  601,  704,  812,  878,  947, 1007, 1088, 1164, 1222, 1558, 1758, 1929,
                                                      1983, 2094, 2152, 2204, 2256, 2395, 2499, 2559, 2659, 2728, 2784, 2836,
                                                      2888, 2940, 3011, 3111, 3179, 3247, 3299, 3351, 3403, 3455, 3507, 3559,
                                                      3611, 3663, 3715, 3767, 3849, 3909, 3961, 4094, 4196, 4247, 4298, 4349,
                                                      4442, 4496, 4550, 4604, 4658, 4710, 4762, 4814, 4866, 4924, 4982, 5040,
                                                      5099, 5151, 5335, 5387, 5439, 5491, 5723, 5821.
         110    T72                      ted_eval_t_:  609,  705,  813,  879,  948, 1008, 1089, 1165, 1223, 1559, 1759, 1930,
                                                      1984, 2095, 2153, 2205, 2257, 2396, 2500, 2560, 2660, 2729, 2785, 2837,
                                                      2889, 2941, 3012, 3112, 3180, 3248, 3300, 3352, 3404, 3456, 3508, 3560,
                                                      3612, 3664, 3716, 3768, 3850, 3910, 3962, 4095, 4197, 4248, 4299, 4350,
                                                      4443, 4497, 4551, 4605, 4659, 4711, 4763, 4815, 4867, 4925, 4983, 5041,
                                                      5100, 5152, 5336, 5388, 5440, 5492, 5724, 5822.
          10    T8                       ted_eval_t_:   95,  756,  825, 1107, 1501, 1705, 1886, 1940, 2036, 2045, 2101, 2420,
                                                      2426, 2432, 2457, 2507, 2517, 2567, 2603, 2672, 2740, 2958, 3054, 3122,
                                                      3190, 3257, 3413, 3774, 3780, 3786, 3919, 4050, 4400, 4453, 4507, 4561,
                                                      4615, 4668, 4720, 4772, 4824, 4873, 4882, 4931, 4940, 4989, 4998, 5047,
                                                      5057, 5293, 5345, 5397, 5449.
          11    T9                       ted_eval_t_:  103,  757,  826,  886,  897, 1108, 1502, 1706, 2604, 2673, 2741, 2959,
                                                      3055, 3123, 3191, 4051, 4616, 5654, 5673.
           0    TC                       ted_eval_t_:   24,   25,   33,   43,   52,   60,   68,   76,   84,   92,  100,  108,
                                                       116,  124,  132,  140,  148,  156,  164,  172,  180,  188,  196,  204,
                                                       212,  220,  228,  236,  244,  252,  260,  268,  276,  284,  292,  300,
                                                       308,  316,  324,  332,  340,  348,  356,  364,  372,  380,  388,  396,
                                                       404,  412,  420,  428,  436,  444,  452,  460,  468,  476,  484,  492,
                                                       500,  509,  517,  525,  533,  541,  549,  557,  566,  574,  582,  590,
                                                       598,  606.
           0    TCs                      ted_eval_t_:   24,  613.
         227    text                     ted_eval_t_:  617.
         116    TL                       ted_eval_t_:   28,   29,   38,   47,   55,   63,   71,   79,   87,   95,  103,  111,
                                                       119,  127,  135,  143,  151,  159,  167,  175,  183,  191,  199,  207,
                                                       215,  223,  231,  239,  247,  255,  263,  271,  279,  287,  295,  303,
                                                       311,  319,  327,  335,  343,  351,  359,  367,  375,  383,  391,  399,
                                                       407,  415,  423,  431,  439,  447,  455,  463,  471,  479,  487,  495,
                                                       504,  512,  520,  528,  536,  544,  552,  561,  569,  577,  585,  593,
                                                       601,  609,  615.
         110    TLs                      ted_eval_t_:   28,  615.
         114    Tsl                      ted_eval_t_:   33,   39,   43,   48,   52,   56,   60,   64,   68,   72,   76,   80,
                                                        84,   88,   92,   96,  100,  104,  108,  112,  116,  120,  124,  128,
                                                       132,  136,  140,  144,  148,  152,  156,  160,  164,  168,  172,  176,
                                                       180,  184,  188,  192,  196,  200,  204,  208,  212,  216,  220,  224,
                                                       228,  232,  236,  240,  244,  248,  252,  256,  260,  264,  268,  272,
                                                       276,  280,  284,  288,  292,  296,  300,  304,  308,  312,  316,  320,
                                                       324,  328,  332,  336,  340,  344,  348,  352,  356,  360,  364,  368,
                                                       372,  376,  380,  384,  388,  392,  396,  400,  404,  408,  412,  416,
                                                       420,  424,  428,  432,  436,  440,  444,  448,  452,  456,  460,  464,
                                                       468,  472,  476,  480,  484,  488,  492,  496,  500,  505,  509,  513,
                                                       517,  521,  525,  529,  533,  537,  541,  545,  549,  553,  557,  562,
                                                       566,  570,  574,  578,  582,  586,  590,  594,  598,  602,  606,  610.
           0    utc                      ted_eval_t_:   23,   32,   42,   51,   59,   67,   75,   83,   91,   99,  107,  115,
                                                       123,  131,  139,  147,  155,  163,  171,  179,  187,  195,  203,  211,
                                                       219,  227,  235,  243,  251,  259,  267,  275,  283,  291,  299,  307,
                                                       315,  323,  331,  339,  347,  355,  363,  371,  379,  387,  395,  403,
                                                       411,  419,  427,  435,  443,  451,  459,  467,  475,  483,  491,  499,
                                                       508,  516,  524,  532,  540,  548,  556,  565,  573,  581,  589,  597,
                                                       605,  612.
         116    utl                      ted_eval_t_:   27,   37,   46,   54,   62,   70,   78,   86,   94,  102,  110,  118,
                                                       126,  134,  142,  150,  158,  166,  174,  182,  190,  198,  206,  214,
                                                       222,  230,  238,  246,  254,  262,  270,  278,  286,  294,  302,  310,
                                                       318,  326,  334,  342,  350,  358,  366,  374,  382,  390,  398,  406,
                                                       414,  422,  430,  438,  446,  454,  462,  470,  478,  486,  494,  503,
                                                       511,  519,  527,  535,  543,  551,  560,  568,  576,  584,  592,  600,
                                                       608,  614.


NO FATAL ERRORS


                                          -----------------------------------------------------------


Historical Background

This edition of the Multics software materials and documentation is provided and donated
to Massachusetts Institute of Technology by Group BULL including BULL HN Information Systems Inc.
as a contribution to computer science knowledge.
This donation is made also to give evidence of the common contributions of Massachusetts Institute of Technology,
Bell Laboratories, General Electric, Honeywell Information Systems Inc., Honeywell BULL Inc., Groupe BULL
and BULL HN Information Systems Inc. to the development of this operating system.
Multics development was initiated by Massachusetts Institute of Technology Project MAC (1963-1970),
renamed the MIT Laboratory for Computer Science and Artificial Intelligence in the mid 1970s, under the leadership
of Professor Fernando Jose Corbato. Users consider that Multics provided the best software architecture
for managing computer hardware properly and for executing programs. Many subsequent operating systems
incorporated Multics principles.
Multics was distributed in 1975 to 2000 by Group Bull in Europe , and in the U.S. by Bull HN Information Systems Inc.,
as successor in interest by change in name only to Honeywell Bull Inc. and Honeywell Information Systems Inc. .

                                          -----------------------------------------------------------

Permission to use, copy, modify, and distribute these programs and their documentation for any purpose and without
fee is hereby granted,provided that the below copyright notice and historical background appear in all copies
and that both the copyright notice and historical background and this permission notice appear in supporting
documentation, and that the names of MIT, HIS, BULL or BULL HN not be used in advertising or publicity pertaining
to distribution of the programs without specific prior written permission.
    Copyright 1972 by Massachusetts Institute of Technology and Honeywell Information Systems Inc.
    Copyright 2006 by BULL HN Information Systems Inc.
    Copyright 2006 by Bull SAS
    All Rights Reserved
