	COMPILATION LISTING OF SEGMENT xforum_redisplay_
	Compiled by: Multics PL/I Compiler, Release 28d, of October 4, 1983
	Compiled at: Honeywell Multics Op. - System M
	Compiled on: 12/03/84  1144.6 mst Mon
	    Options: optimize map

        1 /* ***********************************************************
        2*   *                                                         *
        3*   * Copyright, (C) Honeywell Information Systems Inc., 1983 *
        4*   *                                                         *
        5*   *********************************************************** */
        6
        7 xforum_redisplay_: proc ();
        8
        9 /*
       10*   BEGIN DESCRIPTION
       11*
       12*   function:
       13*      This module is used to redisplay the entire screen.
       14*
       15*      xforum_redisplay: The xforum_redisplay_menu condition is signaled to
       16*      redisplay the menu. A condition is used so that only 1 module is used
       17*      to display a particular menu. The xforum_status_$redisplay entry will
       18*      display both the status window and the help line window.
       19*
       20*   description:
       21*
       22*   known bugs:
       23*
       24*   notes:
       25*
       26*   history:
       27*      84-10-16 Davids: Added a call to clear the help line window so that
       28*      when xforum_status$redisplay calls xforum_help_line$redisplay the
       29*      help line will really be redisplayed.
       30*
       31*   END DESCRIPTION
       32**/
       33 
       34 /* PARAMETERS */
       35
       36 /* EXTERNAL STATIC */
       37
       38 /* ENTRIES */
       39
       40 	dcl     xforum_status_$redisplay entry (fixed bin (35));
       41 	dcl     window_$clear_window	 entry (ptr, fixed bin (35));
       42
       43 /* CONDITIONS */
       44
       45 	dcl     xforum_redisplay_menu	 condition;
       46
       47 /* INTERNAL AUTOMATIC */
       48
       49 /* INTERNAL STATIC */
       50
       51 /* CONSTANTS */
       52
       53 /* BUILTINS */
       54
       55 /* BASED */
       56
       57 /* INCLUDES */
       58
  1     1 /*  START OF:	xforum_windows.incl.pl1		  *  *  *  *  * */
  1     2
  1     3 /* structures for windows used by xforum - Deryk Barker January 1984 */
  1     4
  1     5 dcl      1 xforum_windows aligned external static,
  1     6 	 2 (status, menu, bottom, orig_user_io, help_line) aligned like xforum_window_info;
  1     7
  1     8 dcl      1 xforum_window_info,
  1     9 	 2 iocb      ptr,
  1    10 	 2 position  aligned like window_position_info;
  1    11 
  2     1 /* BEGIN INCLUDE FILE ... window_control_info.incl.pl1 JRD  */
  2     2 /* format: style3 */
  2     3
  2     4 /* Modified 26 January 1982 by William York to add the set_more_handler
  2     5*   and reset_more_handler control orders. */
  2     6 /* Modified October 1982 by WMY to add set and get_token_characters,
  2     7*   set and get_more_prompt. */
  2     8 /* Modified February 1983 by WMY to add the line_editor_key_binding_info
  2     9*   structure. */
  2    10 /* Modified 30 September 1983 by Jon A. Rochlis to add the origin.column for
  2    11*   partial screen width windows. */
  2    12 /* Modified 9 October 1983 by JR to add version 1 window_edit_line_info.
  2    13*   This should be removed when window_info.incl.pl1 is created. */
  2    14 /* Modified 29 February 1984 by Barmar to add version 1
  2    15*   get_editor_key_bindings_info. */
  2    16 /* Modified 1 March 1984 by Barmar to add version 1
  2    17*   set_editor_key_bindings_info. */
  2    18 /* Modified 2 March 1984 by Barmar to upgrade to version 3
  2    19*   line_editor_key_bindings_info, which includes the name, description, and
  2    20*   info path */
  2    21
  2    22 /* structure for the set_window_info and get_window_info
  2    23*   control orders. */
  2    24
  2    25 dcl	1 window_position_info
  2    26 			based (window_position_info_ptr),
  2    27 	  2 version	fixed bin,
  2    28 	  2 origin,
  2    29 	    3 column	fixed bin,
  2    30 	    3 line	fixed bin,
  2    31 	  2 extent,
  2    32 	    3 width	fixed bin,
  2    33 	    3 height	fixed bin;
  2    34
  2    35 dcl	(window_position_info_version, window_position_info_version_1)
  2    36 			fixed bin internal static init (1) options (constant);
  2    37 dcl	window_position_info_ptr
  2    38 			pointer;
  2    39
  2    40 /* structure for the set_window_status and get_window_status
  2    41*   control orders */
  2    42
  2    43 declare	window_status_info_ptr
  2    44 			pointer;
  2    45 declare	1 window_status_info
  2    46 			aligned based (window_status_info_ptr),
  2    47 	  2 version	fixed bin,
  2    48 	  2 status_string	bit (36) aligned;		/* string (window_status) */
  2    49 /* see window_status.incl.pl1 for the contents of this string */
  2    50
  2    51
  2    52 declare	(window_status_version, window_status_version_1)
  2    53 			fixed bin internal static init (1) options (constant);
  2    54
  2    55 /* info structure for the set_more_responses and get_more_responses control
  2    56*   orders */
  2    57
  2    58
  2    59 dcl	1 more_responses_info
  2    60 			aligned based (more_responses_info_ptr),
  2    61 	  2 version	fixed bin,
  2    62 	  2 n_yeses	fixed bin, /* how many valid characters in the strings below */
  2    63 	  2 n_noes	fixed bin,
  2    64 	  2 yeses		char (32) unaligned,
  2    65 	  2 noes		char (32) unaligned;
  2    66
  2    67 dcl	(more_responses_info_version_1, more_responses_version)
  2    68 			fixed bin internal static init (1) options (constant);
  2    69 dcl	more_responses_info_ptr
  2    70 			pointer;
  2    71
  2    72 /* structure for the set_break_table and get_break_table
  2    73*   control orders */
  2    74
  2    75 declare	break_table_ptr	pointer;
  2    76 declare	1 break_table_info	aligned based (break_table_ptr),
  2    77 	  2 version	fixed bin,
  2    78 	  2 breaks	(0:127) bit (1) unaligned;
  2    79
  2    80 declare	(break_table_info_version, break_table_info_version_1)
  2    81 			fixed bin init (1) internal static options (constant);
  2    82
  2    83 declare	1 more_handler_info aligned based (more_handler_info_ptr),
  2    84 	  2 version	fixed bin,
  2    85 	  2 flags		unaligned,
  2    86 	    3 old_handler_valid
  2    87 			bit(1),
  2    88 	    3 pad		bit(35),
  2    89 	  2 more_handler	entry (pointer, bit(1) aligned),
  2    90 	  2 old_more_handler entry (pointer, bit(1) aligned);
  2    91
  2    92 declare	more_handler_info_ptr pointer;
  2    93
  2    94 declare	(more_handler_info_version, more_handler_info_version_3)
  2    95 			fixed bin internal static options (constant) init (3);
  2    96
  2    97 declare   1 token_characters_info aligned based (token_characters_info_ptr),
  2    98 	  2 version	char(8),
  2    99 	  2 token_character_count
  2   100 			fixed bin,
  2   101 	  2 token_characters
  2   102 			char (128) unaligned;
  2   103
  2   104 declare   token_characters_info_ptr pointer;
  2   105
  2   106 declare   token_characters_info_version_1 char(8) internal static options (constant) init ("wtci0001");
  2   107
  2   108 declare   1 more_prompt_info	aligned based (more_prompt_info_ptr),
  2   109 	  2 version	char(8),
  2   110 	  2 more_prompt	char(80);
  2   111
  2   112 declare   more_prompt_info_ptr pointer;
  2   113
  2   114 declare   more_prompt_info_version_1 char(8) static options (constant) init ("wsmp0001");
  2   115
  2   116 /* Line editor stuff ... */
  2   117
  2   118 dcl  line_editor_key_binding_info_ptr
  2   119 			pointer;
  2   120
  2   121 dcl  line_editor_binding_count
  2   122 			fixed bin;
  2   123 dcl  line_editor_longest_sequence
  2   124 			fixed bin;
  2   125 /* For each binding, action defines what to do for that sequence. Constants
  2   126*   are defined in window_editor_values.incl.pl1. Only if action is set to
  2   127*   EXTERNAL_ROUTINE does the editor_routine entry variable get examined. */
  2   128
  2   129 dcl  1 line_editor_key_binding_info
  2   130 			aligned based (line_editor_key_binding_info_ptr),
  2   131        2 version		char(8),
  2   132        2 binding_count	fixed bin,
  2   133        2 longest_sequence	fixed bin,
  2   134        2 bindings		(line_editor_binding_count refer
  2   135 			(line_editor_key_binding_info.binding_count)),
  2   136          3 sequence		char(line_editor_longest_sequence refer
  2   137 			(line_editor_key_binding_info.longest_sequence)) varying,
  2   138          3 action		fixed bin,
  2   139          3 numarg_action      fixed binary,
  2   140          3 editor_routine	entry (pointer, fixed bin(35)),
  2   141          3 name		char (64) varying unaligned,
  2   142          3 description	char (256) varying unaligned,
  2   143          3 info_path	unaligned,
  2   144 	 4 info_dir	char (168),
  2   145 	 4 info_entry	char (32);
  2   146
  2   147
  2   148 dcl  line_editor_key_binding_info_version_3
  2   149 			char(8) static options (constant) init ("lekbi003");
  2   150
  2   151 dcl 1 get_editor_key_bindings_info	aligned based (get_editor_key_bindings_info_ptr),
  2   152       2 version			char (8),
  2   153       2 flags,
  2   154         3 entire_state		bit (1) unaligned,
  2   155         3 mbz			bit (35) unaligned,
  2   156       2 key_binding_info_ptr		ptr,
  2   157       2 entire_state_ptr		ptr;
  2   158
  2   159 dcl get_editor_key_bindings_info_ptr	ptr;
  2   160 dcl get_editor_key_bindings_info_version_1 char (8) int static options (constant) init ("gekbi_01");
  2   161
  2   162 dcl 1 set_editor_key_bindings_info	aligned
  2   163 				based (set_editor_key_bindings_info_ptr),
  2   164       2 version			char (8),
  2   165       2 flags,
  2   166         3 replace			bit (1) unaligned,
  2   167         3 update			bit (1) unaligned,
  2   168         3 mbz			bit (34) unaligned,
  2   169       2 key_binding_info_ptr		ptr;
  2   170
  2   171 dcl set_editor_key_bindings_info_ptr	ptr;
  2   172 dcl set_editor_key_bindings_info_version_1 char (8) int static options (constant) init ("sekbi_01");
  2   173
  2   174 /* This should be moved to window_info.incl.pl1 when that include file is
  2   175*   created.  JR 2/1/84 */
  2   176
  2   177 dcl	1 window_edit_line_info
  2   178 			based (window_edit_line_info_ptr),
  2   179 	  2 version	char (8),
  2   180 	  2 line_ptr	ptr,
  2   181 	  2 line_length	fixed bin (21);		/* later we will hack initial cursor position, key bindings, etc. */
  2   182
  2   183 dcl	window_edit_line_info_version_1
  2   184 			char (8) static options (constant) init ("wedl0001");
  2   185
  2   186 dcl	window_edit_line_info_ptr
  2   187 			ptr;
  2   188
  2   189 /* END INCLUDE FILE window_control_info.incl.pl1 */
  1    12
  1    13
  1    14 /*  END OF:	xforum_windows.incl.pl1		  *  *  *  *  * */
       59
       60 
       61 	call window_$clear_window (xforum_windows.status.iocb, (0));
       62 	call window_$clear_window (xforum_windows.menu.iocb, (0));
       63 	call window_$clear_window (xforum_windows.bottom.iocb, (0));
       64 	call window_$clear_window (xforum_windows.help_line.iocb, (0));
       65 	signal xforum_redisplay_menu;
       66 	call xforum_status_$redisplay ((0));
       67
       68 	return;
       69
       70      end xforum_redisplay_;
	SOURCE FILES USED IN THIS COMPILATION.

LINE      NUMBER  DATE MODIFIED     NAME			PATHNAME
             0    12/03/84  1112.1  xforum_redisplay_.pl1             >special_ldd>online>6890-12/03/84>xforum_redisplay_.pl1
59           1    12/03/84  1114.1  xforum_windows.incl.pl1           >special_ldd>online>6890-12/03/84>xforum_windows.incl.pl1
1-12         2    09/12/84  0916.7  window_control_info.incl.pl1      >ldd>include>window_control_info.incl.pl1
	NAMES DECLARED IN THIS COMPILATION.

IDENTIFIER	     OFFSET    LOC STORAGE CLASS   DATA TYPE		ATTRIBUTES AND REFERENCES
								(* indicates a set context)

NAMES DECLARED BY DECLARE STATEMENT.
bottom                   20     000014 external static structure                level 2 dcl 1-5
help_line                40     000014 external static structure                level 2 dcl 1-5
iocb                     10     000014 external static pointer                  level 3 in structure "xforum_windows" dcl 1-5
                                                                                  in procedure "xforum_redisplay_" set ref 62*
iocb                     20     000014 external static pointer                  level 3 in structure "xforum_windows" dcl 1-5
                                                                                  in procedure "xforum_redisplay_" set ref 63*
iocb                            000014 external static pointer                  level 3 in structure "xforum_windows" dcl 1-5
                                                                                  in procedure "xforum_redisplay_" set ref 61*
iocb                     40     000014 external static pointer                  level 3 in structure "xforum_windows" dcl 1-5
                                                                                  in procedure "xforum_redisplay_" set ref 64*
menu                     10     000014 external static structure                level 2 dcl 1-5
status                          000014 external static structure                level 2 dcl 1-5
window_$clear_window            000012 constant        entry                    external dcl 41 ref 61 62 63 64
window_position_info                   based           structure                level 1 unaligned dcl 2-25
xforum_redisplay_menu           000100 stack reference condition                dcl 45 ref 65
xforum_status_$redisplay        000010 constant        entry                    external dcl 40 ref 66
xforum_window_info              000106 automatic       structure                level 1 unaligned dcl 1-8
xforum_windows                  000014 external static structure                level 1 dcl 1-5

NAMES DECLARED BY DECLARE STATEMENT AND NEVER REFERENCED.
break_table_info                       based           structure                level 1 dcl 2-76
break_table_info_version               internal static fixed bin(17,0)          initial dcl 2-80
break_table_info_version_1             internal static fixed bin(17,0)          initial dcl 2-80
break_table_ptr                        automatic       pointer                  dcl 2-75
get_editor_key_bindings_info           based           structure                level 1 dcl 2-151
get_editor_key_bindings_info_ptr       automatic       pointer                  dcl 2-159
get_editor_key_bindings_info_version_1 internal static char(8)                  initial unaligned dcl 2-160
line_editor_binding_count              automatic       fixed bin(17,0)          dcl 2-121
line_editor_key_binding_info           based           structure                level 1 dcl 2-129
line_editor_key_binding_info_ptr       automatic       pointer                  dcl 2-118
line_editor_key_binding_info_version_3 internal static char(8)                  initial unaligned dcl 2-148
line_editor_longest_sequence           automatic       fixed bin(17,0)          dcl 2-123
more_handler_info                      based           structure                level 1 dcl 2-83
more_handler_info_ptr                  automatic       pointer                  dcl 2-92
more_handler_info_version              internal static fixed bin(17,0)          initial dcl 2-94
more_handler_info_version_3            internal static fixed bin(17,0)          initial dcl 2-94
more_prompt_info                       based           structure                level 1 dcl 2-108
more_prompt_info_ptr                   automatic       pointer                  dcl 2-112
more_prompt_info_version_1             internal static char(8)                  initial unaligned dcl 2-114
more_responses_info                    based           structure                level 1 dcl 2-59
more_responses_info_ptr                automatic       pointer                  dcl 2-69
more_responses_info_version_1          internal static fixed bin(17,0)          initial dcl 2-67
more_responses_version                 internal static fixed bin(17,0)          initial dcl 2-67
set_editor_key_bindings_info           based           structure                level 1 dcl 2-162
set_editor_key_bindings_info_ptr       automatic       pointer                  dcl 2-171
set_editor_key_bindings_info_version_1 internal static char(8)                  initial unaligned dcl 2-172
token_characters_info                  based           structure                level 1 dcl 2-97
token_characters_info_ptr              automatic       pointer                  dcl 2-104
token_characters_info_version_1        internal static char(8)                  initial unaligned dcl 2-106
window_edit_line_info                  based           structure                level 1 unaligned dcl 2-177
window_edit_line_info_ptr              automatic       pointer                  dcl 2-186
window_edit_line_info_version_1        internal static char(8)                  initial unaligned dcl 2-183
window_position_info_ptr               automatic       pointer                  dcl 2-37
window_position_info_version           internal static fixed bin(17,0)          initial dcl 2-35
window_position_info_version_1         internal static fixed bin(17,0)          initial dcl 2-35
window_status_info                     based           structure                level 1 dcl 2-45
window_status_info_ptr                 automatic       pointer                  dcl 2-43
window_status_version                  internal static fixed bin(17,0)          initial dcl 2-52
window_status_version_1                internal static fixed bin(17,0)          initial dcl 2-52

NAME DECLARED BY EXPLICIT CONTEXT.
xforum_redisplay_               000007 constant        entry                    external dcl 7

THERE WERE NO NAMES DECLARED BY CONTEXT OR IMPLICATION.

STORAGE REQUIREMENTS FOR THIS PROGRAM.

	Object	Text	Link	Symbol	Defs	Static
Start          0       0       166         204     102         176
Length       424     102        16         203      63           0

BLOCK NAME	         STACK SIZE     TYPE		WHY NONQUICK/WHO SHARES STACK FRAME
xforum_redisplay_                    84 external procedure  is an external procedure.

STORAGE FOR AUTOMATIC VARIABLES.

STACK FRAME                 LOC IDENTIFIER                  BLOCK NAME
xforum_redisplay_        000106 xforum_window_info          xforum_redisplay_

THE FOLLOWING EXTERNAL OPERATORS ARE USED BY THIS PROGRAM.
call_ext_out        return              signal              ext_entry

THE FOLLOWING EXTERNAL ENTRIES ARE CALLED BY THIS PROGRAM.
window_$clear_window          xforum_status_$redisplay

THE FOLLOWING EXTERNAL VARIABLES ARE USED BY THIS PROGRAM.
xforum_windows


   LINE    LOC      LINE    LOC      LINE    LOC      LINE    LOC      LINE    LOC      LINE    LOC      LINE    LOC
      7 000006        61 000014        62 000025        63 000040        64 000053        65 000066        66 000071
     68 000101


                                          -----------------------------------------------------------


Historical Background

This edition of the Multics software materials and documentation is provided and donated
to Massachusetts Institute of Technology by Group BULL including BULL HN Information Systems Inc.
as a contribution to computer science knowledge.
This donation is made also to give evidence of the common contributions of Massachusetts Institute of Technology,
Bell Laboratories, General Electric, Honeywell Information Systems Inc., Honeywell BULL Inc., Groupe BULL
and BULL HN Information Systems Inc. to the development of this operating system.
Multics development was initiated by Massachusetts Institute of Technology Project MAC (1963-1970),
renamed the MIT Laboratory for Computer Science and Artificial Intelligence in the mid 1970s, under the leadership
of Professor Fernando Jose Corbato. Users consider that Multics provided the best software architecture
for managing computer hardware properly and for executing programs. Many subsequent operating systems
incorporated Multics principles.
Multics was distributed in 1975 to 2000 by Group Bull in Europe , and in the U.S. by Bull HN Information Systems Inc.,
as successor in interest by change in name only to Honeywell Bull Inc. and Honeywell Information Systems Inc. .

                                          -----------------------------------------------------------

Permission to use, copy, modify, and distribute these programs and their documentation for any purpose and without
fee is hereby granted,provided that the below copyright notice and historical background appear in all copies
and that both the copyright notice and historical background and this permission notice appear in supporting
documentation, and that the names of MIT, HIS, BULL or BULL HN not be used in advertising or publicity pertaining
to distribution of the programs without specific prior written permission.
    Copyright 1972 by Massachusetts Institute of Technology and Honeywell Information Systems Inc.
    Copyright 2006 by BULL HN Information Systems Inc.
    Copyright 2006 by Bull SAS
    All Rights Reserved
