	COMPILATION LISTING OF SEGMENT xmail_delete_mlist_
	Compiled by: Multics PL/I Compiler, Release 28d, of October 4, 1983
	Compiled at: Honeywell LCPD Phoenix, System M
	Compiled on: 11/15/83  1425.9 mst Tue
	    Options: optimize map

        1 /* ***********************************************************
        2*   *                                                         *
        3*   * Copyright, (C) Honeywell Information Systems Inc., 1982 *
        4*   *                                                         *
        5*   * Copyright (c) 1972 by Massachusetts Institute of        *
        6*   * Technology and Honeywell Information Systems, Inc.      *
        7*   *                                                         *
        8*   *********************************************************** */
        9
       10
       11 xmail_delete_mlist_: proc (P_dir, P_file);
       12
       13 	dcl     (P_dir, P_file)	 char (*);
       14 	dcl     code		 fixed bin (35);
       15 	dcl     com_err_$suppress_name entry () options (variable);
       16 	dcl     hcs_$delentry_file	 entry (char (*), char (*), fixed bin (35));
       17 	dcl     ioa_		 entry () options (variable);
       18 	dcl     ME_CHAR		 char (19) init ("xmail_delete_mlist_");
       19 	dcl     xmail_sw_$update_file	 entry (char (*));
       20 	dcl     xmail_sw_$redisplay	 entry ();
       21 	dcl     rtrim		 builtin;
       22 	dcl     timer_manager_$sleep	 entry (fixed bin (71), bit (2));
       23 	dcl     MLIST_SUFFIX	 char (3) init ("mls") int static options (constant);
       24
       25 	call hcs_$delentry_file (P_dir, P_file, code);
       26 	if code ^= 0 then call delete_mlist_err (code, "Trying to delete mailing list.");
       27
       28 	call xmail_sw_$update_file (" ");
       29 	call xmail_sw_$redisplay ();
       30 	call ioa_ ("""^a"" mailing list was discarded.", rtrim (rtrim (P_file,
       31 	     MLIST_SUFFIX), " ."));
       32 	call timer_manager_$sleep (3, "11"b);
       33
       34 EXIT:
       35
       36 	return;
       37
       38
       39 /* Internal procedures */
       40
       41 delete_mlist_err: proc (P_code, P_str);
       42
       43 	dcl     P_code		 fixed bin (35);
       44 	dcl     P_str		 char (*);
       45
       46 	call com_err_$suppress_name (P_code, ME_CHAR, "^a", P_str);
       47 	go to EXIT;
       48
       49      end delete_mlist_err;
       50
       51      end xmail_delete_mlist_;
	SOURCE FILES USED IN THIS COMPILATION.

LINE      NUMBER  DATE MODIFIED     NAME			PATHNAME
             0    11/15/83  1400.2  xmail_delete_mlist_.pl1           >spec>on>xmail3>xmail_delete_mlist_.pl1
	NAMES DECLARED IN THIS COMPILATION.

IDENTIFIER	     OFFSET    LOC STORAGE CLASS   DATA TYPE		ATTRIBUTES AND REFERENCES
								(* indicates a set context)

NAMES DECLARED BY DECLARE STATEMENT.
ME_CHAR                         000101 automatic       char(19)                 initial unaligned dcl 18 set ref 18* 46*
MLIST_SUFFIX                    000000 constant        char(3)                  initial unaligned dcl 23 ref 30 30
P_code                                 parameter       fixed bin(35,0)          dcl 43 set ref 41 46*
P_dir                                  parameter       char                     unaligned dcl 13 set ref 11 25*
P_file                                 parameter       char                     unaligned dcl 13 set ref 11 25* 30 30
P_str                                  parameter       char                     unaligned dcl 44 set ref 41 46*
code                            000100 automatic       fixed bin(35,0)          dcl 14 set ref 25* 26 26*
com_err_$suppress_name          000010 constant        entry                    external dcl 15 ref 46
hcs_$delentry_file              000012 constant        entry                    external dcl 16 ref 25
ioa_                            000014 constant        entry                    external dcl 17 ref 30
rtrim                                                  builtin function         dcl 21 ref 30 30 30 30
timer_manager_$sleep            000022 constant        entry                    external dcl 22 ref 32
xmail_sw_$redisplay             000020 constant        entry                    external dcl 20 ref 29
xmail_sw_$update_file           000016 constant        entry                    external dcl 19 ref 28

NAMES DECLARED BY EXPLICIT CONTEXT.
EXIT                            000234 constant        label                    dcl 34 set ref 47
delete_mlist_err                000235 constant        entry                    internal dcl 41 ref 26
xmail_delete_mlist_             000045 constant        entry                    external dcl 11

THERE WERE NO NAMES DECLARED BY CONTEXT OR IMPLICATION.

STORAGE REQUIREMENTS FOR THIS PROGRAM.

	Object	Text	Link	Symbol	Defs	Static
Start          0       0      1020        1044     712        1030
Length      1222     712        24         141     106           0

BLOCK NAME	         STACK SIZE     TYPE		WHY NONQUICK/WHO SHARES STACK FRAME
xmail_delete_mlist_                 128 external procedure  is an external procedure.
delete_mlist_err                        internal procedure  shares stack frame of external procedure xmail_delete_mlist_.

STORAGE FOR AUTOMATIC VARIABLES.

STACK FRAME                 LOC IDENTIFIER                  BLOCK NAME
xmail_delete_mlist_      000100 code                        xmail_delete_mlist_
                         000101 ME_CHAR                     xmail_delete_mlist_

THE FOLLOWING EXTERNAL OPERATORS ARE USED BY THIS PROGRAM.
alloc_cs            call_ext_out_desc   call_ext_out        return              shorten_stack       ext_entry_desc

THE FOLLOWING EXTERNAL ENTRIES ARE CALLED BY THIS PROGRAM.
com_err_$suppress_name        hcs_$delentry_file            ioa_                          timer_manager_$sleep
xmail_sw_$redisplay           xmail_sw_$update_file

NO EXTERNAL VARIABLES ARE USED BY THIS PROGRAM.


   LINE    LOC      LINE    LOC      LINE    LOC      LINE    LOC      LINE    LOC      LINE    LOC      LINE    LOC
     11 000041        18 000065        25 000070        26 000111        28 000121        29 000134        30 000141
     32 000216        34 000234        41 000235        46 000246        47 000277


                                          -----------------------------------------------------------


Historical Background

This edition of the Multics software materials and documentation is provided and donated
to Massachusetts Institute of Technology by Group BULL including BULL HN Information Systems Inc.
as a contribution to computer science knowledge.
This donation is made also to give evidence of the common contributions of Massachusetts Institute of Technology,
Bell Laboratories, General Electric, Honeywell Information Systems Inc., Honeywell BULL Inc., Groupe BULL
and BULL HN Information Systems Inc. to the development of this operating system.
Multics development was initiated by Massachusetts Institute of Technology Project MAC (1963-1970),
renamed the MIT Laboratory for Computer Science and Artificial Intelligence in the mid 1970s, under the leadership
of Professor Fernando Jose Corbato. Users consider that Multics provided the best software architecture
for managing computer hardware properly and for executing programs. Many subsequent operating systems
incorporated Multics principles.
Multics was distributed in 1975 to 2000 by Group Bull in Europe , and in the U.S. by Bull HN Information Systems Inc.,
as successor in interest by change in name only to Honeywell Bull Inc. and Honeywell Information Systems Inc. .

                                          -----------------------------------------------------------

Permission to use, copy, modify, and distribute these programs and their documentation for any purpose and without
fee is hereby granted,provided that the below copyright notice and historical background appear in all copies
and that both the copyright notice and historical background and this permission notice appear in supporting
documentation, and that the names of MIT, HIS, BULL or BULL HN not be used in advertising or publicity pertaining
to distribution of the programs without specific prior written permission.
    Copyright 1972 by Massachusetts Institute of Technology and Honeywell Information Systems Inc.
    Copyright 2006 by BULL HN Information Systems Inc.
    Copyright 2006 by Bull SAS
    All Rights Reserved
