    041463  aa   147145 040113   17227  	oct	147145040113
    041464  aa   145171 040154   17228  	oct	145171040154
    041465  aa   157143 040151   17229  	oct	157143040151
    041466  aa   163040 157165   17230  	oct	163040157165
    041467  aa   164163 151144   17231  	oct	164163151144
    041470  aa   145040 157146   17232  	oct	145040157146
    041471  aa   040164 150145   17233  	oct	040164150145
    041472  aa   040162 145143   17234  	oct	040162145143
    041473  aa   157162 144040   17235  	oct	157162144040
    041474  aa   141162 145141   17236  	oct	141162145141
    041475  aa   040101 040155   17237  	oct	040101040155
    041476  aa   156145 155157   17238  	oct	156145155157
    041477  aa   156151 143055   17239  	oct	156151143055
    041500  aa   156141 155145   17240  	oct	156141155145
    041501  aa   040155 165163   17241  	oct	040155165163
    041502  aa   164040 156157   17242  	oct	164040156157
    041503  aa   164040 142145   17243  	oct	164040142145
    041504  aa   040165 163145   17244  	oct	040165163145
    041505  aa   144040 141163   17245  	oct	144040141163
    041506  aa   040141 040161   17246  	oct	040141040161
    041507  aa   165141 154151   17247  	oct	165141154151
    041510  aa   146151 145162   17248  	oct	146151145162
    041511  aa   040101 156040   17249  	oct	040101156040
    041512  aa   151156 144145   17250  	oct	151156144145
    041513  aa   170055 156141   17251  	oct	170055156141
    041514  aa   155145 040155   17252  	oct	155145040155
    041515  aa   165163 164040   17253  	oct	165163164040
    041516  aa   156157 164040   17254  	oct	156157164040
    041517  aa   142145 040165   17255  	oct	142145040165
    041520  aa   163145 144040   17256  	oct	163145144040
    041521  aa   141163 040141   17257  	oct	141163040141
    041522  aa   040161 165141   17258  	oct	040161165141
    041523  aa   154151 146151   17259  	oct	154151146151
    041524  aa   145162 040101   17260  	oct	145162040101
    041525  aa   156040 141154   17261  	oct	156040141154
    041526  aa   160150 141142   17262  	oct	160150141142
    041527  aa   145164 055156   17263  	oct	145164055156
    041530  aa   141155 145040   17264  	oct	141155145040
    041531  aa   155165 163164   17265  	oct	155165163164
    041532  aa   040156 157164   17266  	oct	040156157164
    041533  aa   040142 145040   17267  	oct	040142145040
    041534  aa   165163 145144   17268  	oct	165163145144
    041535  aa   040141 163040   17269  	oct	040141163040
    041536  aa   141040 161165   17270  	oct	141040161165
    041537  aa   141154 151146   17271  	oct	141154151146
    041540  aa   151145 162040   17272  	oct	151145162040
    041541  aa   121165 141154   17273  	oct	121165141154
    041542  aa   151146 151145   17274  	oct	151146151145
    041543  aa   144040 162145   17275  	oct	144040162145
    041544  aa   146145 162145   17276  	oct	146145162145
    041545  aa   156143 145040   17277  	oct	156143145040
    041546  aa   143157 156164   17278  	oct	143157156164
    041547  aa   141151 156163   17279  	oct	141151156163
    041550  aa   040141 156040   17280  	oct	040141156040
    041551  aa   151164 145155   17281  	oct	151164145155
    041552  aa   040167 150151   17282  	oct	040167150151
    041553  aa   143150 040155   17283  	oct	143150040155
    041554  aa   165163 164040   17284  	oct	165163164040
    041555  aa   156157 164040   17285  	oct	156157164040
    041556  aa   142145 040165   17286  	oct	142145040165
    041557  aa   163145 144040   17287  	oct	163145144040
    041560  aa   141163 040141   17288  	oct	141163040141
    041561  aa   040161 165141   17289  	oct	040161165141
    041562  aa   154151 146151   17290  	oct	154151146151
    041563  aa   145162 040115   17291  	oct	145162040115
    041564  aa   156145 155157   17292  	oct	156145155157
    041565  aa   156151 143055   17293  	oct	156151143055
    041566  aa   156141 155145   17294  	oct	156141155145
    041567  aa   040145 170160   17295  	oct	040145170160
    041570  aa   145143 164145   17296  	oct	145143164145
    041571  aa   144040 150145   17297  	oct	144040150145
    041572  aa   162145 040117   17298  	oct	162145040117
    041573  aa   142163 157154   17299  	oct	142163157154
    041574  aa   145164 145040   17300  	oct	145164145040
    041575  aa   165163 141147   17301  	oct	165163141147
    041576  aa   145040 055040   17302  	oct	145040055040
    041577  aa   155156 145155   17303  	oct	155156145155
    041600  aa   157156 151143   17304  	oct	157156151143
    041601  aa   055156 141155   17305  	oct	055156141155
    041602  aa   145040 156157   17306  	oct	145040156157
    041603  aa   167040 162145   17307  	oct	167040162145
    041604  aa   161165 151162   17308  	oct	161165151162
    041605  aa   145144 040150   17309  	oct	145144040150
    041606  aa   145162 145040   17310  	oct	145162145040
    041607  aa   116117 124105   17311  	oct	116117124105
    041610  aa   072040 106157   17312  	oct	072040106157
    041611  aa   162040 101116   17313  	oct	162040101116
    041612  aa   123040 143157   17314  	oct	123040143157
    041613  aa   155160 154151   17315  	oct	155160154151
    041614  aa   141156 143145   17316  	oct	141156143145
    041615  aa   054040 141154   17317  	oct	054040141154
    041616  aa   154040 163171   17318  	oct	154040163171
    041617  aa   163164 145155   17319  	oct	163164145155
    041620  aa   055156 141155   17320  	oct	055156141155
    041621  aa   145163 040155   17321  	oct	145163040155
    041622  aa   165163 164040   17322  	oct	165163164040
    041623  aa   142145 040141   17323  	oct	142145040141
    041624  aa   163163 151147   17324  	oct	163163151147
    041625  aa   156145 144040   17325  	oct	156145144040
    041626  aa   155156 145155   17326  	oct	155156145155
    041627  aa   157156 151143   17327  	oct	157156151143
    041630  aa   055156 141155   17328  	oct	055156141155
    041631  aa   145163 040166   17329  	oct	145163040166
    041632  aa   151141 040123   17330  	oct	151141040123
    041633  aa   120105 103111   17331  	oct	120105103111
    041634  aa   101114 055116   17332  	oct	101114055116
    041635  aa   101115 105123   17333  	oct	101115105123
    041636  aa   040160 141162   17334  	oct	040160141162
    041637  aa   141147 162141   17335  	oct	141147162141
    041640  aa   160150 040103   17336  	oct	160150040103
    041641  aa   157155 160151   17337  	oct	157155160151
    041642  aa   154141 164151   17338  	oct	154141164151
    041643  aa   157156 040160   17339  	oct	157156040160
    041644  aa   162157 143145   17340  	oct	162157143145
    041645  aa   145144 163040   17341  	oct	145144163040
    041646  aa   141163 040151   17342  	oct	141163040151
    041647  aa   146040 042123   17343  	oct	146040042123
    041650  aa   120105 103111   17344  	oct	120105103111
    041651  aa   101114 055116   17345  	oct	101114055116
    041652  aa   101115 105123   17346  	oct	101115105123
    041653  aa   056040 040136   17347  	oct	056040040136
    041654  aa   056042 040150   17348  	oct	056042040150
    041655  aa   141144 040142   17349  	oct	141144040142
    041656  aa   145145 156040   17350  	oct	145145156040
    041657  aa   163160 145143   17351  	oct	163160145143
    041660  aa   151146 151145   17352  	oct	151146151145
    041661  aa   144040 106151   17353  	oct	144040106151
    041662  aa   154145 055156   17354  	oct	154145055156
    041663  aa   141155 145040   17355  	oct	141155145040
    041664  aa   155165 154164   17356  	oct	155165154164
    041665  aa   151160 154171   17357  	oct	151160154171
    041666  aa   040144 145146   17358  	oct	040144145146
    041667  aa   151156 145144   17359  	oct	151156145144
    041670  aa   040124 150145   17360  	oct	040124150145
    041671  aa   040114 111116   17361  	oct	040114111116
    041672  aa   101107 105040   17362  	oct	101107105040
    041673  aa   143154 141165   17363  	oct	143154141165
    041674  aa   163145 040151   17364  	oct	163145040151
    041675  aa   163040 156157   17365  	oct	163040156157
    041676  aa   164040 163160   17366  	oct	164040163160
    041677  aa   145143 151146   17367  	oct	145143151146
    041700  aa   151145 144040   17368  	oct	151145144040
    041701  aa   146157 162040   17369  	oct	146157162040
    041702  aa   164150 151163   17370  	oct	164150151163
    041703  aa   040146 151154   17371  	oct	040146151154
    041704  aa   145040 124150   17372  	oct	145040124150
    041705  aa   145040 114111   17373  	oct	145040114111
    041706  aa   116101 107105   17374  	oct	116101107105
    041707  aa   040143 154141   17375  	oct	040143154141
    041710  aa   165163 145040   17376  	oct	165163145040
    041711  aa   151163 040156   17377  	oct	151163040156
    041712  aa   157164 040163   17378  	oct	157164040163
    041713  aa   160145 143151   17379  	oct	160145143151
    041714  aa   146151 145144   17380  	oct	146151145144
    041715  aa   040146 157162   17381  	oct	040146157162
    041716  aa   040141 156171   17382  	oct	040141156171
    041717  aa   040146 151154   17383  	oct	040146151154
    041720  aa   145040 151156   17384  	oct	145040151156
    041721  aa   040164 150151   17385  	oct	040164150151
    041722  aa   163040 160162   17386  	oct	163040160162
    041723  aa   157147 162141   17387  	oct	157147162141
    041724  aa   155040 114111   17388  	oct	155040114111
    041725  aa   116101 107105   17389  	oct	116101107105
    041726  aa   055103 117125   17390  	oct	055103117125
    041727  aa   116124 105122   17391  	oct	116124105122
    041730  aa   040162 145146   17392  	oct	040162145146
    041731  aa   145162 145156   17393  	oct	145162145156
    041732  aa   143145 040151   17394  	oct	143145040151
    041733  aa   163040 141155   17395  	oct	163040141155
    041734  aa   142151 147165   17396  	oct	142151147165
    041735  aa   157165 163040   17397  	oct	157165163040
    041736  aa   122145 146145   17398  	oct	122145146145
    041737  aa   162145 156143   17399  	oct	162145156143
    041740  aa   145040 164157   17400  	oct	145040164157
    041741  aa   040160 162157   17401  	oct	040160162157
    041742  aa   143145 144165   17402  	oct	143145144165
    041743  aa   162145 055156   17403  	oct	162145055156
    041744  aa   141155 145040   17404  	oct	141155145040
    041745  aa   151163 040141   17405  	oct	151163040141
    041746  aa   155142 151147   17406  	oct	155142151147
    041747  aa   165157 165163   17407  	oct	165157165163
    041750  aa   040106 151154   17408  	oct	040106151154
    041751  aa   145055 156141   17409  	oct	145055156141
    041752  aa   155145 040145   17410  	oct	155145040145
    041753  aa   170160 145143   17411  	oct	170160145143
    041754  aa   164145 144040   17412  	oct	164145144040
    041755  aa   150145 162145   17413  	oct	150145162145
    041756  aa   040104 141164   17414  	oct	040104141164
    041757  aa   141055 156141   17415  	oct	141055156141
    041760  aa   155145 040145   17416  	oct	155145040145
    041761  aa   170160 145143   17417  	oct	170160145143
    041762  aa   164145 144040   17418  	oct	164145144040
    041763  aa   150145 162145   17419  	oct	150145162145
    041764  aa   040124 150151   17420  	oct	040124150151
    041765  aa   163040 144141   17421  	oct	163040144141
    041766  aa   164141 055156   17422  	oct	164141055156
    041767  aa   141155 145040   17423  	oct	141155145040
    041770  aa   155165 163164   17424  	oct	155165163164
    041771  aa   040144 145163   17425  	oct	040144145163
    041772  aa   143162 151142   17426  	oct	143162151142
    041773  aa   145040 156165   17427  	oct	145040156165
    041774  aa   155145 162151   17428  	oct	155145162151
    041775  aa   143040 144141   17429  	oct	143040144141
    041776  aa   164141 040124   17430  	oct	164141040124
    041777  aa   150151 163040   17431  	oct	150151163040
    042000  aa   144141 164141   17432  	oct	144141164141
    042001  aa   055156 141155   17433  	oct	055156141155
    042002  aa   145040 144157   17434  	oct	145040144157
    042003  aa   145163 040156   17435  	oct	145163040156
    042004  aa   157164 040144   17436  	oct	157164040144
    042005  aa   145163 143162   17437  	oct	145163143162
    042006  aa   151142 145040   17438  	oct	151142145040
    042007  aa   141156 040165   17439  	oct	141156040165
    042010  aa   156163 151147   17440  	oct	156163151147
    042011  aa   156145 144040   17441  	oct	156145144040
    042012  aa   151156 164145   17442  	oct	151156164145
    042013  aa   147145 162040   17443  	oct	147145162040
    042014  aa   124150 145040   17444  	oct	124150145040
    042015  aa   166141 162151   17445  	oct	166141162151
    042016  aa   141142 154145   17446  	oct	141142154145
    042017  aa   040165 163145   17447  	oct	040165163145
    042020  aa   144040 167151   17448  	oct	144040167151
    042021  aa   164150 040164   17449  	oct	164150040164
    042022  aa   150145 040104   17450  	oct	150145040104
    042023  aa   105120 105116   17451  	oct	105120105116
    042024  aa   104111 116107   17452  	oct	104111116107
    042025  aa   040117 116040   17453  	oct	040117116040
    042026  aa   160150 162141   17454  	oct	160150162141
    042027  aa   163145 040151   17455  	oct	163145040151
    042030  aa   163040 167151   17456  	oct	163040167151
    042031  aa   164150 151156   17457  	oct	164150151156
    042032  aa   040164 150145   17458  	oct	040164150145
    042033  aa   040162 141156   17459  	oct	040162141156
    042034  aa   147145 040157   17460  	oct	147145040157
    042035  aa   146040 164150   17461  	oct	146040164150
    042036  aa   145040 141163   17462  	oct	145040141163
    042037  aa   163157 143151   17463  	oct	163157143151
    042040  aa   141164 145144   17464  	oct	141164145144
    042041  aa   040141 162162   17465  	oct	040141162162
    042042  aa   141171 040124   17466  	oct	141171040124
    042043  aa   150145 040165   17467  	oct	150145040165
    042044  aa   163145 040157   17468  	oct	163145040157
    042045  aa   146040 141040   17469  	oct	146040141040
    042046  aa   144141 164141   17470  	oct	144141164141
    042047  aa   055156 141155   17471  	oct	055156141155
    042050  aa   145040 144145   17472  	oct	145040144145
    042051  aa   146151 156145   17473  	oct	146151156145
    042052  aa   144040 151156   17474  	oct	144040151156
    042053  aa   040164 150145   17475  	oct	040164150145
    042054  aa   040103 157156   17476  	oct	040103157156
    042055  aa   163164 141156   17477  	oct	163164141156
    042056  aa   164040 123145   17478  	oct	164040123145
    042057  aa   143164 151157   17479  	oct	143164151157
    042060  aa   156040 163145   17480  	oct	156040163145
    042061  aa   145155 163040   17481  	oct	145155163040
    042062  aa   151154 154157   17482  	oct	151154154157
    042063  aa   147151 143141   17483  	oct	147151143141
    042064  aa   154040 150145   17484  	oct	154040150145
    042065  aa   162145 040124   17485  	oct	162145040124
    042066  aa   150151 163040   17486  	oct	150151163040
    042067  aa   144141 164141   17487  	oct	144141164141
    042070  aa   055156 141155   17488  	oct	055156141155
    042071  aa   145040 155165   17489  	oct	145040155165
    042072  aa   163164 040156   17490  	oct	163164040156
    042073  aa   157164 040142   17491  	oct	157164040142
    042074  aa   145040 163165   17492  	oct	145040163165
    042075  aa   142163 143162   17493  	oct	142163143162
    042076  aa   151160 164145   17494  	oct	151160164145
    042077  aa   144040 126141   17495  	oct	144040126141
    042100  aa   162151 141142   17496  	oct	162151141142
    042101  aa   154145 040154   17497  	oct	154145040154
    042102  aa   145156 147164   17498  	oct	145156147164
    042103  aa   150040 144141   17499  	oct	150040144141
    042104  aa   164141 055156   17500  	oct	164141055156
    042105  aa   141155 145040   17501  	oct	141155145040
    042106  aa   156157 164040   17502  	oct	156157164040
    042107  aa   141154 154157   17503  	oct	141154154157
    042110  aa   167145 144040   17504  	oct	167145144040
    042111  aa   150145 162145   17505  	oct	150145162145
    042112  aa   040055 040155   17506  	oct	040055040155
    042113  aa   141170 151155   17507  	oct	141170151155
    042114  aa   165155 040163   17508  	oct	165155040163
    042115  aa   151172 145040   17509  	oct	151172145040
    042116  aa   141163 163165   17510  	oct	141163163165
    042117  aa   155145 144040   17511  	oct	155145144040
    042120  aa   146157 162040   17512  	oct	146157162040
    042121  aa   164150 151163   17513  	oct	164150151163
    042122  aa   040164 171160   17514  	oct	040164171160
    042123  aa   145040 157146   17515  	oct	145040157146
    042124  aa   040165 163141   17516  	oct	040165163141
    042125  aa   147145 040124   17517  	oct	147145040124
    042126  aa   150151 163040   17518  	oct	150151163040
    042127  aa   144141 164141   17519  	oct	144141164141
    042130  aa   055156 141155   17520  	oct	055156141155
    042131  aa   145040 151163   17521  	oct	145040151163
    042132  aa   040144 145146   17522  	oct	040144145146
    042133  aa   151156 145144   17523  	oct	151156145144
    042134  aa   040151 156040   17524  	oct	040151156040
    042135  aa   164150 145040   17525  	oct	164150145040
    042136  aa   106151 154145   17526  	oct	106151154145
    042137  aa   040123 145143   17527  	oct	040123145143
    042140  aa   164151 157156   17528  	oct	164151157156
    042141  aa   040124 150151   17529  	oct	040124150151
    042142  aa   163040 144141   17530  	oct	163040144141
    042143  aa   164141 055156   17531  	oct	164141055156
    042144  aa   141155 145040   17532  	oct	141155145040
    042145  aa   155165 163164   17533  	oct	155165163164
    042146  aa   040156 157164   17534  	oct	040156157164
    042147  aa   040142 145040   17535  	oct	040142145040
    042150  aa   144145 146151   17536  	oct	144145146151
    042151  aa   156145 144040   17537  	oct	156145144040
    042152  aa   151156 040164   17538  	oct	151156040164
    042153  aa   150145 040103   17539  	oct	150145040103
    042154  aa   157155 155165   17540  	oct	157155155165
    042155  aa   156151 143141   17541  	oct	156151143141
    042156  aa   164151 157156   17542  	oct	164151157156
    042157  aa   040123 145143   17543  	oct	040123145143
    042160  aa   164151 157156   17544  	oct	164151157156
    042161  aa   040124 150151   17545  	oct	040124150151
    042162  aa   163040 144141   17546  	oct	163040144141
    042163  aa   164141 055156   17547  	oct	164141055156
    042164  aa   141155 145040   17548  	oct	141155145040
    042165  aa   155165 163164   17549  	oct	155165163164
    042166  aa   040156 157164   17550  	oct	040156157164
    042167  aa   040142 145040   17551  	oct	040142145040
    042170  aa   144145 146151   17552  	oct	144145146151
    042171  aa   156145 144040   17553  	oct	156145144040
    042172  aa   151156 040164   17554  	oct	151156040164
    042173  aa   150145 040122   17555  	oct	150145040122
    042174  aa   145160 157162   17556  	oct	145160157162
    042175  aa   164040 123145   17557  	oct	164040123145
    042176  aa   143164 151157   17558  	oct	143164151157
    042177  aa   156040 124150   17559  	oct	156040124150
    042200  aa   151163 040144   17560  	oct	151163040144
    042201  aa   141164 141055   17561  	oct	141164141055
    042202  aa   156141 155145   17562  	oct	156141155145
    042203  aa   040155 165163   17563  	oct	040155165163
    042204  aa   164040 156157   17564  	oct	164040156157
    042205  aa   164040 142145   17565  	oct	164040142145
    042206  aa   040144 145146   17566  	oct	040144145146
    042207  aa   151156 145144   17567  	oct	151156145144
    042210  aa   040151 156040   17568  	oct	040151156040
    042211  aa   164150 145040   17569  	oct	164150145040
    042212  aa   103157 156163   17570  	oct	103157156163
    042213  aa   164141 156164   17571  	oct	164141156164
    042214  aa   040123 145143   17572  	oct	040123145143
    042215  aa   164151 157156   17573  	oct	164151157156
    042216  aa   040124 150151   17574  	oct	040124150151
    042217  aa   163040 144141   17575  	oct	163040144141
    042220  aa   164141 055156   17576  	oct	164141055156
    042221  aa   141155 145040   17577  	oct	141155145040
    042222  aa   163150 157165   17578  	oct	163150157165
    042223  aa   154144 040144   17579  	oct	154144040144
    042224  aa   145163 143162   17580  	oct	145163143162
    042225  aa   151142 145040   17581  	oct	151142145040
    042226  aa   141156 040141   17582  	oct	141156040141
    042227  aa   154160 150141   17583  	oct	154160150141
    042230  aa   156165 155145   17584  	oct	156165155145
    042231  aa   162151 143040   17585  	oct	162151143040
    042232  aa   146151 145154   17586  	oct	146151145154
    042233  aa   144040 156157   17587  	oct	144040156157
    042234  aa   164040 154157   17588  	oct	164040154157
    042235  aa   156147 145162   17589  	oct	156147145162
    042236  aa   040164 150141   17590  	oct	040164150141
    042237  aa   156040 062060   17591  	oct	156040062060
    042240  aa   060040 143150   17592  	oct	060040143150
    042241  aa   141162 141143   17593  	oct	141162141143
    042242  aa   164145 162163   17594  	oct	164145162163
    042243  aa   040124 150151   17595  	oct	040124150151
    042244  aa   163040 144141   17596  	oct	163040144141
    042245  aa   164141 055156   17597  	oct	164141055156
    042246  aa   141155 145040   17598  	oct	141155145040
    042247  aa   163150 157165   17599  	oct	163150157165
    042250  aa   154144 040144   17600  	oct	154144040144
    042251  aa   145163 143162   17601  	oct	145163143162
    042252  aa   151142 145040   17602  	oct	151142145040
    042253  aa   141040 156165   17603  	oct	141040156165
    042254  aa   155145 162151   17604  	oct	155145162151
    042255  aa   143040 157162   17605  	oct	143040157162
    042256  aa   040141 154160   17606  	oct	040141154160
    042257  aa   150141 156165   17607  	oct	150141156165
    042260  aa   155145 162151   17608  	oct	155145162151
    042261  aa   143040 146151   17609  	oct	143040146151
    042262  aa   145154 144040   17610  	oct	145154144040
    042263  aa   156157 164040   17611  	oct	156157164040
    042264  aa   154157 156147   17612  	oct	154157156147
    042265  aa   145162 040164   17613  	oct	145162040164
    042266  aa   150141 156040   17614  	oct	150141156040
    042267  aa   066040 143150   17615  	oct	066040143150
    042270  aa   141162 141143   17616  	oct	141162141143
    042271  aa   164145 162163   17617  	oct	164145162163
    042272  aa   040124 150151   17618  	oct	040124150151
    042273  aa   163040 144141   17619  	oct	163040144141
    042274  aa   164141 055156   17620  	oct	164141055156
    042275  aa   141155 145040   17621  	oct	141155145040
    042276  aa   163150 157165   17622  	oct	163150157165
    042277  aa   154144 040144   17623  	oct	154144040144
    042300  aa   145163 143162   17624  	oct	145163143162
    042301  aa   151142 145040   17625  	oct	151142145040
    042302  aa   141156 040141   17626  	oct	141156040141
    042303  aa   154160 150141   17627  	oct	154160150141
    042304  aa   156165 155145   17628  	oct	156165155145
    042305  aa   162151 143040   17629  	oct	162151143040
    042306  aa   146151 145154   17630  	oct	146151145154
    042307  aa   144040 156157   17631  	oct	144040156157
    042310  aa   164040 154157   17632  	oct	164040154157
    042311  aa   156147 145162   17633  	oct	156147145162
    042312  aa   040164 150141   17634  	oct	040164150141
    042313  aa   156040 062065   17635  	oct	156040062065
    042314  aa   066040 143150   17636  	oct	066040143150
    042315  aa   141162 141143   17637  	oct	141162141143
    042316  aa   164145 162163   17638  	oct	164145162163
    042317  aa   040124 150151   17639  	oct	040124150151
    042320  aa   163040 144141   17640  	oct	163040144141
    042321  aa   164141 055156   17641  	oct	164141055156
    042322  aa   141155 145040   17642  	oct	141155145040
    042323  aa   163150 157165   17643  	oct	163150157165
    042324  aa   154144 040144   17644  	oct	154144040144
    042325  aa   145163 143162   17645  	oct	145163143162
    042326  aa   151142 145040   17646  	oct	151142145040
    042327  aa   141156 040141   17647  	oct	141156040141
    042330  aa   154160 150141   17648  	oct	154160150141
    042331  aa   156165 155145   17649  	oct	156165155145
    042332  aa   162151 143040   17650  	oct	162151143040
    042333  aa   146151 145154   17651  	oct	146151145154
    042334  aa   144040 156157   17652  	oct	144040156157
    042335  aa   164040 154157   17653  	oct	164040154157
    042336  aa   156147 145162   17654  	oct	156147145162
    042337  aa   040164 150141   17655  	oct	040164150141
    042340  aa   156040 061067   17656  	oct	156040061067
    042341  aa   040143 150141   17657  	oct	040143150141
    042342  aa   162141 143164   17658  	oct	162141143164
    042343  aa   145162 163040   17659  	oct	145162163040
    042344  aa   124150 151163   17660  	oct	124150151163
    042345  aa   040144 141164   17661  	oct	040144141164
    042346  aa   141055 156141   17662  	oct	141055156141
    042347  aa   155145 040163   17663  	oct	155145040163
    042350  aa   150157 165154   17664  	oct	150157165154
    042351  aa   144040 144145   17665  	oct	144040144145
    042352  aa   163143 162151   17666  	oct	163143162151
    042353  aa   142145 040141   17667  	oct	142145040141
    042354  aa   156040 151156   17668  	oct	156040151156
    042355  aa   164145 147145   17669  	oct	164145147145
    042356  aa   162040 157146   17670  	oct	162040157146
    042357  aa   040156 157040   17671  	oct	040156157040
    042360  aa   155157 162145   17672  	oct	155157162145
    042361  aa   040164 150141   17673  	oct	040164150141
    042362  aa   156040 164150   17674  	oct	156040164150
    042363  aa   162145 145040   17675  	oct	162145145040
    042364  aa   144151 147151   17676  	oct	144151147151
    042365  aa   164163 040103   17677  	oct	164163040103
    042366  aa   144055 156141   17678  	oct	144055156141
    042367  aa   155145 040155   17679  	oct	155145040155
    042370  aa   165154 164151   17680  	oct	165154164151
    042371  aa   160154 171040   17681  	oct	160154171040
    042372  aa   144145 146151   17682  	oct	144145146151
    042373  aa   156145 144040   17683  	oct	156145144040
    042374  aa   122145 143157   17684  	oct	122145143157
    042375  aa   162144 040153   17685  	oct	162144040153
    042376  aa   145171 040151   17686  	oct	145171040151
    042377  aa   163040 157165   17687  	oct	163040157165
    042400  aa   164163 151144   17688  	oct	164163151144
    042401  aa   145040 157146   17689  	oct	145040157146
    042402  aa   040162 145143   17690  	oct	040162145143
    042403  aa   157162 144040   17691  	oct	157162144040
    042404  aa   144145 163143   17692  	oct	144145163143
    042405  aa   162151 160164   17693  	oct	162151160164
    042406  aa   151157 156040   17694  	oct	151157156040
    042407  aa   124167 157040   17695  	oct	124167157040
    042410  aa   157162 040155   17696  	oct	157162040155
    042411  aa   157162 145040   17697  	oct	157162145040
    042412  aa   162145 143157   17698  	oct	162145143157
    042413  aa   162144 163040   17699  	oct	162144163040
    042414  aa   153145 171163   17700  	oct	153145171163
    042415  aa   040150 141166   17701  	oct	040150141166
    042416  aa   145040 164150   17702  	oct	145040164150
    042417  aa   145040 163141   17703  	oct	145040163141
    042420  aa   155145 040157   17704  	oct	155145040157
    042421  aa   146146 163145   17705  	oct	146146163145
    042422  aa   164040 103157   17706  	oct	164040103157
    042423  aa   162162 145163   17707  	oct	162162145163
    042424  aa   160157 156144   17708  	oct	160157156144
    042425  aa   151156 147040   17709  	oct	151156147040
    042426  aa   157160 164151   17710  	oct	157160164151
    042427  aa   157156 040162   17711  	oct	157156040162
    042430  aa   145163 165154   17712  	oct	145163165154
    042431  aa   164163 040151   17713  	oct	164163040151
    042432  aa   156040 156165   17714  	oct	156040156165
    042433  aa   154154 040155   17715  	oct	154154040155
    042434  aa   141164 143150   17716  	oct	141164143150
    042435  aa   040111 164145   17717  	oct	040111164145
    042436  aa   155040 156157   17718  	oct	155040156157
    042437  aa   164040 136040   17719  	oct	164040136040
    042440  aa   105170 160145   17720  	oct	105170160145
    042441  aa   143164 145144   17721  	oct	143164145144
    042442  aa   040167 157162   17722  	oct	040167157162
    042443  aa   144040 151163   17723  	oct	144040151163
    042444  aa   040136 040104   17724  	oct	040136040104
    042445  aa   141164 141055   17725  	oct	141164141055
    042446  aa   156141 155145   17726  	oct	156141155145
    042447  aa   163040 141156   17727  	oct	163040141156
    042450  aa   144040 151156   17728  	oct	144040151156
    042451  aa   144145 170055   17729  	oct	144145170055
    042452  aa   156141 155145   17730  	oct	156141155145
    042453  aa   163040 156157   17731  	oct	163040156157
    042454  aa   164040 141154   17732  	oct	164040141154
    042455  aa   154157 167145   17733  	oct	154157167145
    042456  aa   144040 164157   17734  	oct	144040164157
    042457  aa   147145 164150   17735  	oct	147145164150
    042460  aa   145162 040141   17736  	oct	145162040141
    042461  aa   163040 163165   17737  	oct	163040163165
    042462  aa   142163 143162   17738  	oct	142163143162
    042463  aa   151160 164163   17739  	oct	151160164163
    042464  aa   040101 040163   17740  	oct	040101040163
    042465  aa   165142 163143   17741  	oct	165142163143
    042466  aa   162151 160164   17742  	oct	162151160164
    042467  aa   040155 165163   17743  	oct	040155165163
    042470  aa   164040 156157   17744  	oct	164040156157
    042471  aa   164040 151164   17745  	oct	164040151164
    042472  aa   163145 154146   17746  	oct	163145154146
    042473  aa   040162 145161   17747  	oct	040162145161
    042474  aa   165151 162145   17748  	oct	165151162145
    042475  aa   040163 165142   17749  	oct	040163165142
    042476  aa   163143 162151   17750  	oct	163143162151
    042477  aa   160164 151156   17751  	oct	160164151156
    042500  aa   147040 126141   17752  	oct	147040126141
    042501  aa   154165 145040   17753  	oct	154165145040
    042502  aa   157146 040156   17754  	oct	157146040156
    042503  aa   165155 145162   17755  	oct	165155145162
    042504  aa   151143 040154   17756  	oct	151143040154
    042505  aa   151164 145162   17757  	oct	151164145162
    042506  aa   141154 040163   17758  	oct	141154040163
    042507  aa   165142 163143   17759  	oct	165142163143
    042510  aa   162151 160164   17760  	oct	162151160164
    042511  aa   040145 170143   17761  	oct	040145170143
    042512  aa   145145 144163   17762  	oct	145145144163
    042513  aa   040155 141170   17763  	oct	040155141170
    042514  aa   151155 165155   17764  	oct	151155165155
    042515  aa   040156 165155   17765  	oct	040156165155
    042516  aa   142145 162040   17766  	oct	142145162040
    042517  aa   157146 040157   17767  	oct	157146040157
    042520  aa   143143 165162   17768  	oct	143143165162
    042521  aa   162145 156143   17769  	oct	162145156143
    042522  aa   145163 040123   17770  	oct	145163040123
    042523  aa   171156 164141   17771  	oct	171156164141
    042524  aa   170040 143150   17772  	oct	170040143150
    042525  aa   145143 153151   17773  	oct	145143153151
    042526  aa   156147 040144   17774  	oct	156147040144
    042527  aa   151163 143157   17775  	oct	151163143157
    042530  aa   156164 151156   17776  	oct	156164151156
    042531  aa   165145 144040   17777  	oct	165145144040
    042532  aa   123171 156164   17778  	oct	123171156164
    042533  aa   141170 040143   17779  	oct	141170040143
    042534  aa   150145 143153   17780  	oct	150145143153
    042535  aa   151156 147040   17781  	oct	151156147040
    042536  aa   162145 163165   17782  	oct	162145163165
    042537  aa   155145 144040   17783  	oct	155145144040
    042540  aa   125156 145170   17784  	oct	125156145170
    042541  aa   160145 143164   17785  	oct	160145143164
    042542  aa   145144 040145   17786  	oct	145144040145
    042543  aa   156144 040157   17787  	oct	156144040157
    042544  aa   146040 146151   17788  	oct	146040146151
    042545  aa   154145 040104   17789  	oct	154145040104
    042546  aa   141164 141055   17790  	oct	141164141055
    042547  aa   156141 155145   17791  	oct	156141155145
    042550  aa   040144 145163   17792  	oct	040144145163
    042551  aa   143162 151160   17793  	oct	143162151160
    042552  aa   164151 157156   17794  	oct	164151157156
    042553  aa   040143 157156   17795  	oct	040143157156
    042554  aa   164141 151156   17796  	oct	164141151156
    042555  aa   163040 136040   17797  	oct	163040136040
    042556  aa   125156 145170   17798  	oct	125156145170
    042557  aa   160145 143164   17799  	oct	160145143164
    042560  aa   145144 040164   17800  	oct	145144040164
    042561  aa   157153 145156   17801  	oct	157153145156
    042562  aa   040151 156040   17802  	oct	040151156040
    042563  aa   143157 162162   17803  	oct	143157162162
    042564  aa   145163 160157   17804  	oct	145163160157
    042565  aa   156144 151156   17805  	oct	156144151156
    042566  aa   147040 157160   17806  	oct	147040157160
    042567  aa   145162 141156   17807  	oct	145162141156
    042570  aa   144040 125156   17808  	oct	144040125156
    042571  aa   145170 160145   17809  	oct	145170160145
    042572  aa   143164 145144   17810  	oct	143164145144
    042573  aa   040167 157162   17811  	oct	040167157162
    042574  aa   144040 042136   17812  	oct	144040042136
    042575  aa   042040 101040   17813  	oct	042040101040
    042576  aa   147162 157165   17814  	oct	147162157165
    042577  aa   160040 151164   17815  	oct	160040151164
    042600  aa   145155 040163   17816  	oct	145155040163
    042601  aa   160145 143151   17817  	oct	160145143151
    042602  aa   146151 145144   17818  	oct	146151145144
    042603  aa   040142 171040   17819  	oct	040142171040
    042604  aa   141040 103117   17820  	oct	141040103117
    042605  aa   122122 105123   17821  	oct	122122105123
    042606  aa   120117 116104   17822  	oct	120117116104
    042607  aa   111116 107040   17823  	oct	111116107040
    042610  aa   157160 164151   17824  	oct	157160164151
    042611  aa   157156 040143   17825  	oct	157156040143
    042612  aa   157156 164141   17826  	oct	157156164141
    042613  aa   151156 163040   17827  	oct	151156163040
    042614  aa   141156 040141   17828  	oct	141156040141
    042615  aa   155142 151147   17829  	oct	155142151147
    042616  aa   165157 165163   17830  	oct	165157165163
    042617  aa   040144 141164   17831  	oct	040144141164
    042620  aa   141055 156141   17832  	oct	141055156141
    042621  aa   155145 040103   17833  	oct	155145040103
    042622  aa   157162 162145   17834  	oct	157162162145
    042623  aa   163160 157156   17835  	oct	163160157156
    042624  aa   144151 156147   17836  	oct	144151156147
    042625  aa   040153 145171   17837  	oct	040153145171
    042626  aa   055151 156144   17838  	oct	055151156144
    042627  aa   145170 040145   17839  	oct	145170040145
    042630  aa   170143 145145   17840  	oct	170143145145
    042631  aa   144163 040155   17841  	oct	144163040155
    042632  aa   141170 151155   17842  	oct	141170151155
    042633  aa   165155 040120   17843  	oct	165155040120
    042634  aa   162145 155141   17844  	oct	162145155141
    042635  aa   164165 162145   17845  	oct	164165162145
    042636  aa   040145 156144   17846  	oct	040145156144
    042637  aa   040157 146040   17847  	oct	040157146040
    042640  aa   146151 154145   17848  	oct	146151154145
    042641  aa   040144 165162   17849  	oct	040144165162
    042642  aa   151156 147040   17850  	oct	151156147040
    042643  aa   103117 122122   17851  	oct	103117122122
    042644  aa   040157 160164   17852  	oct	040157160164
    042645  aa   151157 156040   17853  	oct	151157156040
    042646  aa   157162 040111   17854  	oct	157162040111
    042647  aa   116111 124111   17855  	oct	116111124111
    042650  aa   101114 111132   17856  	oct	101114111132
    042651  aa   105040 163164   17857  	oct	105040163164
    042652  aa   141164 145155   17858  	oct	141164145155
    042653  aa   145156 164040   17859  	oct	145156164040
    042654  aa   117160 145162   17860  	oct	117160145162
    042655  aa   141156 144040   17861  	oct	141156144040
    042656  aa   157146 040143   17862  	oct	157146040143
    042657  aa   157162 162145   17863  	oct	157162162145
    042660  aa   163160 157156   17864  	oct	163160157156
    042661  aa   144151 156147   17865  	oct	144151156147
    042662  aa   040155 165163   17866  	oct	040155165163
    042663  aa   164040 142145   17867  	oct	164040142145
    042664  aa   040147 162157   17868  	oct	040147162157
    042665  aa   165160 040156   17869  	oct	165160040156
    042666  aa   141155 145040   17870  	oct	141155145040
    042667  aa   116145 147141   17871  	oct	116145147141
    042670  aa   164151 166145   17872  	oct	164151166145
    042671  aa   040156 165155   17873  	oct	040156165155
    042672  aa   142145 162040   17874  	oct	142145162040
    042673  aa   151163 040151   17875  	oct	151163040151
    042674  aa   154154 145147   17876  	oct	154154145147
    042675  aa   141154 040163   17877  	oct	141154040163
    042676  aa   165142 163143   17878  	oct	165142163143
    042677  aa   162151 160164   17879  	oct	162151160164
    042700  aa   040122 145154   17880  	oct	040122145154
    042701  aa   141164 151166   17881  	oct	141164151166
    042702  aa   145040 151156   17882  	oct	145040151156
    042703  aa   144145 170151   17883  	oct	144145170151
    042704  aa   156147 040162   17884  	oct	156147040162
    042705  aa   145161 165151   17885  	oct	145161165151
    042706  aa   162145 163040   17886  	oct	162145163040
    042707  aa   165156 163151   17887  	oct	165156163151
    042710  aa   147156 145144   17888  	oct	147156145144
    042711  aa   040154 151164   17889  	oct	040154151164
    042712  aa   145162 141154   17890  	oct	145162141154
    042713  aa   040103 157162   17891  	oct	040103157162
    042714  aa   162145 163160   17892  	oct	162145163160
    042715  aa   157156 144151   17893  	oct	157156144151
    042716  aa   156147 040164   17894  	oct	156147040164
    042717  aa   141142 154145   17895  	oct	141142154145
    042720  aa   040157 166145   17896  	oct	040157166145
    042721  aa   162146 154157   17897  	oct	162146154157
    042722  aa   167040 055040   17898  	oct	167040055040
    042723  aa   156165 155142   17899  	oct	156165155142
    042724  aa   145162 040157   17900  	oct	145162040157
    042725  aa   146040 163165   17901  	oct	146040163165
    042726  aa   142157 162144   17902  	oct	142157162144
    042727  aa   151156 141164   17903  	oct	151156141164
    042730  aa   145040 151164   17904  	oct	145040151164
    042731  aa   145155 163040   17905  	oct	145155163040
    042732  aa   151156 040141   17906  	oct	151156040141
    042733  aa   040147 162157   17907  	oct	040147162157
    042734  aa   165160 040145   17908  	oct	165160040145
    042735  aa   170143 145145   17909  	oct	170143145145
    042736  aa   144163 040155   17910  	oct	144163040155
    042737  aa   141170 151155   17911  	oct	141170151155
    042740  aa   165155 040103   17912  	oct	165155040103
    042741  aa   157162 162145   17913  	oct	157162162145
    042742  aa   163160 157156   17914  	oct	163160157156
    042743  aa   144151 156147   17915  	oct	144151156147
    042744  aa   040163 164141   17916  	oct	040163164141
    042745  aa   143153 040157   17917  	oct	143153040157
    042746  aa   166145 162146   17918  	oct	166145162146
    042747  aa   154157 167040   17919  	oct	154157167040
    042750  aa   055040 156145   17920  	oct	055040156145
    042751  aa   163164 151156   17921  	oct	163164151156
    042752  aa   147040 154151   17922  	oct	147040154151
    042753  aa   155151 164040   17923  	oct	155151164040
    042754  aa   157146 040065   17924  	oct	157146040065
    042755  aa   060040 145170   17925  	oct	060040145170
    042756  aa   143145 145144   17926  	oct	143145145144
    042757  aa   145144 040103   17927  	oct	145144040103
    042760  aa   157162 162145   17928  	oct	157162162145
    042761  aa   163160 157156   17929  	oct	163160157156
    042762  aa   144151 156147   17930  	oct	144151156147
    042763  aa   040144 151162   17931  	oct	040144151162
    042764  aa   145143 164157   17932  	oct	145143164157
    042765  aa   162171 040157   17933  	oct	162171040157
    042766  aa   166145 162146   17934  	oct	166145162146
    042767  aa   154157 167040   17935  	oct	154157167040
    042770  aa   055040 156165   17936  	oct	055040156165
    042771  aa   155145 162040   17937  	oct	155145162040
    042772  aa   157146 040151   17938  	oct	157146040151
    042773  aa   164145 155163   17939  	oct	164145155163
    042774  aa   040151 156040   17940  	oct	040151156040
    042775  aa   147162 157165   17941  	oct	147162157165
    042776  aa   160040 145170   17942  	oct	160040145170
    042777  aa   143145 145144   17943  	oct	143145145144
    043000  aa   163040 154151   17944  	oct	163040154151
    043001  aa   155151 164040   17945  	oct	155151164040
    043002  aa   157146 040065   17946  	oct	157146040065
    043003  aa   061062 040117   17947  	oct	061062040117
    043004  aa   160145 162141   17948  	oct	160145162141
    043005  aa   156144 040157   17949  	oct	156144040157
    043006  aa   146040 111116   17950  	oct	146040111116
    043007  aa   111124 111101   17951  	oct	111124111101
    043010  aa   114111 132105   17952  	oct	114111132105
    043011  aa   040155 165163   17953  	oct	040155165163
    043012  aa   164040 156157   17954  	oct	164040156157
    043013  aa   164040 150141   17955  	oct	164040150141
    043014  aa   166145 040136   17956  	oct	166145040136
    043015  aa   040117 160145   17957  	oct	040117160145
    043016  aa   162141 156144   17958  	oct	162141156144
    043017  aa   040157 146040   17959  	oct	040157146040
    043020  aa   111116 111124   17960  	oct	111116111124
    043021  aa   111101 114111   17961  	oct	111101114111
    043022  aa   132105 040155   17962  	oct	132105040155
    043023  aa   165163 164040   17963  	oct	165163164040
    043024  aa   156157 164040   17964  	oct	156157164040
    043025  aa   142145 040136   17965  	oct	142145040136
    043026  aa   040111 116111   17966  	oct	040111116111
    043027  aa   124111 101114   17967  	oct	124111101114
    043030  aa   111132 105040   17968  	oct	111132105040
    043031  aa   162145 143145   17969  	oct	162145143145
    043032  aa   151166 151156   17970  	oct	151166151156
    043033  aa   147040 157160   17971  	oct	147040157160
    043034  aa   145162 141156   17972  	oct	145162141156
    043035  aa   144040 156157   17973  	oct	144040156157
    043036  aa   164040 154145   17974  	oct	164040154145
    043037  aa   147141 154040   17975  	oct	147141154040
    043040  aa   143141 164145   17976  	oct	143141164145
    043041  aa   147157 162171   17977  	oct	147157162171
    043042  aa   040127 141162   17978  	oct	040127141162
    043043  aa   156151 156147   17979  	oct	156151156147
    043044  aa   072040 156165   17980  	oct	072040156165
    043045  aa   154154 040155   17981  	oct	154154040155
    043046  aa   141164 143150   17982  	oct	141164143150
    043047  aa   040151 156040   17983  	oct	040151156040
    043050  aa   111116 111124   17984  	oct	111116111124
    043051  aa   111101 114111   17985  	oct	111101114111
    043052  aa   132105 040163   17986  	oct	132105040163
    043053  aa   164141 164145   17987  	oct	164141164145
    043054  aa   155145 156164   17988  	oct	155145156164
    043055  aa   040111 116111   17989  	oct	040111116111
    043056  aa   124111 101114   17990  	oct	124111101114
    043057  aa   111132 105040   17991  	oct	111132105040
    043060  aa  