ASSEMBLY LISTING OF SEGMENT >udd>sm>ds>w>ml>cobol_diag_table_.alm
ASSEMBLED ON:	05/05/00  1833.4 mdt Fri
OPTIONS USED:	list symbols
ASSEMBLED BY:	ALM Version 8.14 March 1989
ASSEMBLER CREATED:	06/09/89  1102.3 mdt Fri

                                     1  " *********************************************************
                                     2  " *                                                       *
                                     3  " * Copyright, (C) BULL HN Information Systems Inc., 1989 *
                                     4  " *                                                       *
                                     5  " * Copyright (c) 1972 by Massachusetts Institute of      *
                                     6  " * Technology and Honeywell Information Systems, Inc.    *
                                     7  " *                                                       *
                                     8  " *********************************************************
                                     9
                                    10  " HISTORY COMMENTS:
                                    11  "  1) change(89-04-23,Zimmerman), approve(89-04-23,MCR8082),
                                    12  "     audit(89-05-05,RWaters), install(89-05-24,MR12.3-1048):
                                    13  "     MCR8082 cobol_diag_table_.alm Fix wild array subscript.
                                    14  "  2) change(89-04-23,Zimmerman), approve(89-04-23,MCR8083),
                                    15  "     audit(89-05-05,RWaters), install(89-05-24,MR12.3-1048):
                                    16  "     MCR8083 cobol_diag_table_.alm Fix bug detecting illegal level 77 group
                                    17  "     item.
                                    18  "                                                      END HISTORY COMMENTS
                                    19
                                    20
    000000                          21  name	cobol_diag_table_
    000000                          22  cobol_diag_table_:
                        000000      23  	segdef	cobol_diag_table_
    000000  aa   000000 000013      24  	oct	000000000013
    000001  aa   000000 002271      25  	oct	000000002271
    000002  aa   000000 161427      26  	oct	000000161427
    000003  aa   000000 000000      27  	oct	000000000000
    000004  aa   000000 000050      28  	oct	000000000050
    000005  aa   000000 000050      29  	oct	000000000050
    000006  aa   000000 000265      30  	oct	000000000265
    000007  aa   000000 000335      31  	oct	000000000335
    000010  aa   000000 000342      32  	oct	000000000342
    000011  aa   000000 000677      33  	oct	000000000677
    000012  aa   000000 000176      34  	oct	000000000176
    000013  aa   000000 001075      35  	oct	000000001075
    000014  aa   000000 000474      36  	oct	000000000474
    000015  aa   000000 001571      37  	oct	000000001571
    000016  aa   000000 000100      38  	oct	000000000100
    000017  aa   000000 001671      39  	oct	000000001671
    000020  aa   000000 000000      40  	oct	000000000000
    000021  aa   000000 001671      41  	oct	000000001671
    000022  aa   000000 000033      42  	oct	000000000033
    000023  aa   000000 001724      43  	oct	000000001724
    000024  aa   000000 000336      44  	oct	000000000336
    000025  aa   000000 002262      45  	oct	000000002262
    000026  aa   000000 000007      46  	oct	000000000007
    000027  aa   000000 000000      47  	oct	000000000000
    000030  aa   000000 000000      48  	oct	000000000000
    000031  aa   000000 000001      49  	oct	000000000001
    000032  aa   000000 000050      50  	oct	000000000050
    000033  aa   000000 000003      51  	oct	000000000003
    000034  aa   000000 000000      52  	oct	000000000000
    000035  aa   000000 000051      53  	oct	000000000051
    000036  aa   000000 000065      54  	oct	000000000065
    000037  aa   000000 000003      55  	oct	000000000003
    000040  aa   000000 000051      56  	oct	000000000051
    000041  aa   000000 000136      57  	oct	000000000136
    000042  aa   000000 000057      58  	oct	000000000057
    000043  aa   000000 000003      59  	oct	000000000003
    000044  aa   000000 000000      60  	oct	000000000000
    000045  aa   000000 000215      61  	oct	000000000215
    000046  aa   000000 000072      62  	oct	000000000072
    000047  aa   000000 000003      63  	oct	000000000003
    000050  aa   000000 000056      64  	oct	000000000056
    000051  aa   000000 000307      65  	oct	000000000307
    000052  aa   000000 000076      66  	oct	000000000076
    000053  aa   000000 000003      67  	oct	000000000003
    000054  aa   000000 000000      68  	oct	000000000000
    000055  aa   000000 000405      69  	oct	000000000405
    000056  aa   000000 000047      70  	oct	000000000047
    000057  aa   000000 000002      71  	oct	000000000002
    000060  aa   000000 000000      72  	oct	000000000000
    000061  aa   000000 000454      73  	oct	000000000454
    000062  aa   000000 000043      74  	oct	000000000043
    000063  aa   000000 000003      75  	oct	000000000003
    000064  aa   000000 000000      76  	oct	000000000000
    000065  aa   000000 000517      77  	oct	000000000517
    000066  aa   000000 000104      78  	oct	000000000104
    000067  aa   000000 000002      79  	oct	000000000002
    000070  aa   000000 000000      80  	oct	000000000000
    000071  aa   000000 000623      81  	oct	000000000623
    000072  aa   000000 000124      82  	oct	000000000124
    000073  aa   000000 000003      83  	oct	000000000003
    000074  aa   000000 000000      84  	oct	000000000000
    000075  aa   000000 000747      85  	oct	000000000747
    000076  aa   000000 000015      86  	oct	000000000015
    000077  aa   000000 000003      87  	oct	000000000003
    000100  aa   000000 000000      88  	oct	000000000000
    000101  aa   000000 000764      89  	oct	000000000764
    000102  aa   000000 000035      90  	oct	000000000035
    000103  aa   000000 000001      91  	oct	000000000001
    000104  aa   000000 000000      92  	oct	000000000000
    000105  aa   000000 001021      93  	oct	000000001021
    000106  aa   000000 000030      94  	oct	000000000030
    000107  aa   000000 000001      95  	oct	000000000001
    000110  aa   000000 000000      96  	oct	000000000000
    000111  aa   000000 001051      97  	oct	000000001051
    000112  aa   000000 000043      98  	oct	000000000043
    000113  aa   000000 000002      99  	oct	000000000002
    000114  aa   000000 000000     100  	oct	000000000000
    000115  aa   000000 001114     101  	oct	000000001114
    000116  aa   000000 000054     102  	oct	000000000054
    000117  aa   000000 000002     103  	oct	000000000002
    000120  aa   000000 000012     104  	oct	000000000012
    000121  aa   000000 001170     105  	oct	000000001170
    000122  aa   000000 000115     106  	oct	000000000115
    000123  aa   000000 000003     107  	oct	000000000003
    000124  aa   000000 000000     108  	oct	000000000000
    000125  aa   000000 001305     109  	oct	000000001305
    000126  aa   000000 000052     110  	oct	000000000052
    000127  aa   000000 000001     111  	oct	000000000001
    000130  aa   000000 000000     112  	oct	000000000000
    000131  aa   000000 001357     113  	oct	000000001357
    000132  aa   000000 000071     114  	oct	000000000071
    000133  aa   000000 000003     115  	oct	000000000003
    000134  aa   000000 000000     116  	oct	000000000000
    000135  aa   000000 001450     117  	oct	000000001450
    000136  aa   000000 000104     118  	oct	000000000104
    000137  aa   000000 000002     119  	oct	000000000002
    000140  aa   000000 000000     120  	oct	000000000000
    000141  aa   000000 001554     121  	oct	000000001554
    000142  aa   000000 000077     122  	oct	000000000077
    000143  aa   000000 000002     123  	oct	000000000002
    000144  aa   000000 000005     124  	oct	000000000005
    000145  aa   000000 001653     125  	oct	000000001653
    000146  aa   000000 000032     126  	oct	000000000032
    000147  aa   000000 000002     127  	oct	000000000002
    000150  aa   000000 000000     128  	oct	000000000000
    000151  aa   000000 001705     129  	oct	000000001705
    000152  aa   000000 000041     130  	oct	000000000041
    000153  aa   000000 000003     131  	oct	000000000003
    000154  aa   000000 000005     132  	oct	000000000005
    000155  aa   000000 001746     133  	oct	000000001746
    000156  aa   000000 000022     134  	oct	000000000022
    000157  aa   000000 000003     135  	oct	000000000003
    000160  aa   000000 000012     136  	oct	000000000012
    000161  aa   000000 001770     137  	oct	000000001770
    000162  aa   000000 000060     138  	oct	000000000060
    000163  aa   000000 000003     139  	oct	000000000003
    000164  aa   000000 000000     140  	oct	000000000000
    000165  aa   000000 002050     141  	oct	000000002050
    000166  aa   000000 000060     142  	oct	000000000060
    000167  aa   000000 000003     143  	oct	000000000003
    000170  aa   000000 000000     144  	oct	000000000000
    000171  aa   000000 002130     145  	oct	000000002130
    000172  aa   000000 000061     146  	oct	000000000061
    000173  aa   000000 000003     147  	oct	000000000003
    000174  aa   000000 000000     148  	oct	000000000000
    000175  aa   000000 002211     149  	oct	000000002211
    000176  aa   000000 000102     150  	oct	000000000102
    000177  aa   000000 000003     151  	oct	000000000003
    000200  aa   000000 000000     152  	oct	000000000000
    000201  aa   000000 002313     153  	oct	000000002313
    000202  aa   000000 000067     154  	oct	000000000067
    000203  aa   000000 000003     155  	oct	000000000003
    000204  aa   000000 000000     156  	oct	000000000000
    000205  aa   000000 002402     157  	oct	000000002402
    000206  aa   000000 000024     158  	oct	000000000024
    000207  aa   000000 000003     159  	oct	000000000003
    000210  aa   000000 000000     160  	oct	000000000000
    000211  aa   000000 002426     161  	oct	000000002426
    000212  aa   000000 000123     162  	oct	000000000123
    000213  aa   000000 000002     163  	oct	000000000002
    000214  aa   000000 000000     164  	oct	000000000000
    000215  aa   000000 002551     165  	oct	000000002551
    000216  aa   000000 000054     166  	oct	000000000054
    000217  aa   000000 000002     167  	oct	000000000002
    000220  aa   000000 000000     168  	oct	000000000000
    000221  aa   000000 002625     169  	oct	000000002625
    000222  aa   000000 000053     170  	oct	000000000053
    000223  aa   000000 000002     171  	oct	000000000002
    000224  aa   000000 000000     172  	oct	000000000000
    000225  aa   000000 002700     173  	oct	000000002700
    000226  aa   000000 000066     174  	oct	000000000066
    000227  aa   000000 000002     175  	oct	000000000002
    000230  aa   000000 000000     176  	oct	000000000000
    000231  aa   000000 002766     177  	oct	000000002766
    000232  aa   000000 000132     178  	oct	000000000132
    000233  aa   000000 000002     179  	oct	000000000002
    000234  aa   000000 000000     180  	oct	000000000000
    000235  aa   000000 003120     181  	oct	000000003120
    000236  aa   000000 000132     182  	oct	000000000132
    000237  aa   000000 000002     183  	oct	000000000002
    000240  aa   000000 000000     184  	oct	000000000000
    000241  aa   000000 003252     185  	oct	000000003252
    000242  aa   000000 000041     186  	oct	000000000041
    000243  aa   000000 000003     187  	oct	000000000003
    000244  aa   000000 000000     188  	oct	000000000000
    000245  aa   000000 003313     189  	oct	000000003313
    000246  aa   000000 000050     190  	oct	000000000050
    000247  aa   000000 000003     191  	oct	000000000003
    000250  aa   000000 000000     192  	oct	000000000000
    000251  aa   000000 003363     193  	oct	000000003363
    000252  aa   000000 000136     194  	oct	000000000136
    000253  aa   000000 000003     195  	oct	000000000003
    000254  aa   000000 000000     196  	oct	000000000000
    000255  aa   000000 003521     197  	oct	000000003521
    000256  aa   000000 000044     198  	oct	000000000044
    000257  aa   000000 000003     199  	oct	000000000003
    000260  aa   000000 000000     200  	oct	000000000000
    000261  aa   000000 003565     201  	oct	000000003565
    000262  aa   000000 000045     202  	oct	000000000045
    000263  aa   000000 000003     203  	oct	000000000003
    000264  aa   000000 000005     204  	oct	000000000005
    000265  aa   000000 003632     205  	oct	000000003632
    000266  aa   000000 000105     206  	oct	000000000105
    000267  aa   000000 000002     207  	oct	000000000002
    000270  aa   000000 000000     208  	oct	000000000000
    000271  aa   000000 003737     209  	oct	000000003737
    000272  aa   000000 000041     210  	oct	000000000041
    000273  aa   000000 000002     211  	oct	000000000002
    000274  aa   000000 000000     212  	oct	000000000000
    000275  aa   000000 004000     213  	oct	000000004000
    000276  aa   000000 000043     214  	oct	000000000043
    000277  aa   000000 000002     215  	oct	000000000002
    000300  aa   000000 000000     216  	oct	000000000000
    000301  aa   000000 004043     217  	oct	000000004043
    000302  aa   000000 000050     218  	oct	000000000050
    000303  aa   000000 000002     219  	oct	000000000002
    000304  aa   000000 000000     220  	oct	000000000000
    000305  aa   000000 004113     221  	oct	000000004113
    000306  aa   000000 000132     222  	oct	000000000132
    000307  aa   000000 000002     223  	oct	000000000002
    000310  aa   000000 000000     224  	oct	000000000000
    000311  aa   000000 004245     225  	oct	000000004245
    000312  aa   000000 000052     226  	oct	000000000052
    000313  aa   000000 000003     227  	oct	000000000003
    000314  aa   000000 000000     228  	oct	000000000000
    000315  aa   000000 004317     229  	oct	000000004317
    000316  aa   000000 000104     230  	oct	000000000104
    000317  aa   000000 000003     231  	oct	000000000003
    000320  aa   000000 000000     232  	oct	000000000000
    000321  aa   000000 004423     233  	oct	000000004423
    000322  aa   000000 000046     234  	oct	000000000046
    000323  aa   000000 000001     235  	oct	000000000001
    000324  aa   000000 000000     236  	oct	000000000000
    000325  aa   000000 004471     237  	oct	000000004471
    000326  aa   000000 000106     238  	oct	000000000106
    000327  aa   000000 000002     239  	oct	000000000002
    000330  aa   000000 000000     240  	oct	000000000000
    000331  aa   000000 004577     241  	oct	000000004577
    000332  aa   000000 000124     242  	oct	000000000124
    000333  aa   000000 000001     243  	oct	000000000001
    000334  aa   000000 000000     244  	oct	000000000000
    000335  aa   000000 004723     245  	oct	000000004723
    000336  aa   000000 000052     246  	oct	000000000052
    000337  aa   000000 000002     247  	oct	000000000002
    000340  aa   000000 000000     248  	oct	000000000000
    000341  aa   000000 004775     249  	oct	000000004775
    000342  aa   000000 000054     250  	oct	000000000054
    000343  aa   000000 000002     251  	oct	000000000002
    000344  aa   000000 000000     252  	oct	000000000000
    000345  aa   000000 005051     253  	oct	000000005051
    000346  aa   000000 000042     254  	oct	000000000042
    000347  aa   000000 000002     255  	oct	000000000002
    000350  aa   000000 000000     256  	oct	000000000000
    000351  aa   000000 005113     257  	oct	000000005113
    000352  aa   000000 000062     258  	oct	000000000062
    000353  aa   000000 000002     259  	oct	000000000002
    000354  aa   000000 000000     260  	oct	000000000000
    000355  aa   000000 005175     261  	oct	000000005175
    000356  aa   000000 000037     262  	oct	000000000037
    000357  aa   000000 000003     263  	oct	000000000003
    000360  aa   000000 000000     264  	oct	000000000000
    000361  aa   000000 005234     265  	oct	000000005234
    000362  aa   000000 000105     266  	oct	000000000105
    000363  aa   000000 000001     267  	oct	000000000001
    000364  aa   000000 000000     268  	oct	000000000000
    000365  aa   000000 005341     269  	oct	000000005341
    000366  aa   000000 000056     270  	oct	000000000056
    000367  aa   000000 000003     271  	oct	000000000003
    000370  aa   000000 000000     272  	oct	000000000000
    000371  aa   000000 005417     273  	oct	000000005417
    000372  aa   000000 000055     274  	oct	000000000055
    000373  aa   000000 000001     275  	oct	000000000001
    000374  aa   000000 000000     276  	oct	000000000000
    000375  aa   000000 005474     277  	oct	000000005474
    000376  aa   000000 000051     278  	oct	000000000051
    000377  aa   000000 000002     279  	oct	000000000002
    000400  aa   000000 000000     280  	oct	000000000000
    000401  aa   000000 005545     281  	oct	000000005545
    000402  aa   000000 000043     282  	oct	000000000043
    000403  aa   000000 000002     283  	oct	000000000002
    000404  aa   000000 000000     284  	oct	000000000000
    000405  aa   000000 005610     285  	oct	000000005610
    000406  aa   000000 000042     286  	oct	000000000042
    000407  aa   000000 000003     287  	oct	000000000003
    000410  aa   000000 000000     288  	oct	000000000000
    000411  aa   000000 005652     289  	oct	000000005652
    000412  aa   000000 000051     290  	oct	000000000051
    000413  aa   000000 000002     291  	oct	000000000002
    000414  aa   000000 000000     292  	oct	000000000000
    000415  aa   000000 005723     293  	oct	000000005723
    000416  aa   000000 000045     294  	oct	000000000045
    000417  aa   000000 000002     295  	oct	000000000002
    000420  aa   000000 000000     296  	oct	000000000000
    000421  aa   000000 005770     297  	oct	000000005770
    000422  aa   000000 000034     298  	oct	000000000034
    000423  aa   000000 000002     299  	oct	000000000002
    000424  aa   000000 000000     300  	oct	000000000000
    000425  aa   000000 006024     301  	oct	000000006024
    000426  aa   000000 000104     302  	oct	000000000104
    000427  aa   000000 000002     303  	oct	000000000002
    000430  aa   000000 000000     304  	oct	000000000000
    000431  aa   000000 006130     305  	oct	000000006130
    000432  aa   000000 000061     306  	oct	000000000061
    000433  aa   000000 000003     307  	oct	000000000003
    000434  aa   000000 000000     308  	oct	000000000000
    000435  aa   000000 006211     309  	oct	000000006211
    000436  aa   000000 000103     310  	oct	000000000103
    000437  aa   000000 000002     311  	oct	000000000002
    000440  aa   000000 000000     312  	oct	000000000000
    000441  aa   000000 006314     313  	oct	000000006314
    000442  aa   000000 000064     314  	oct	000000000064
    000443  aa   000000 000003     315  	oct	000000000003
    000444  aa   000000 000000     316  	oct	000000000000
    000445  aa   000000 006400     317  	oct	000000006400
    000446  aa   000000 000067     318  	oct	000000000067
    000447  aa   000000 000003     319  	oct	000000000003
    000450  aa   000000 000000     320  	oct	000000000000
    000451  aa   000000 006467     321  	oct	000000006467
    000452  aa   000000 000037     322  	oct	000000000037
    000453  aa   000000 000002     323  	oct	000000000002
    000454  aa   000000 000000     324  	oct	000000000000
    000455  aa   000000 006526     325  	oct	000000006526
    000456  aa   000000 000107     326  	oct	000000000107
    000457  aa   000000 000003     327  	oct	000000000003
    000460  aa   000000 000000     328  	oct	000000000000
    000461  aa   000000 006635     329  	oct	000000006635
    000462  aa   000000 000107     330  	oct	000000000107
    000463  aa   000000 000003     331  	oct	000000000003
    000464  aa   000000 000000     332  	oct	000000000000
    000465  aa   000000 006744     333  	oct	000000006744
    000466  aa   000000 000035     334  	oct	000000000035
    000467  aa   000000 000003     335  	oct	000000000003
    000470  aa   000000 000000     336  	oct	000000000000
    000471  aa   000000 007001     337  	oct	000000007001
    000472  aa   000000 000133     338  	oct	000000000133
    000473  aa   000000 000003     339  	oct	000000000003
    000474  aa   000000 000000     340  	oct	000000000000
    000475  aa   000000 007134     341  	oct	000000007134
    000476  aa   000000 000042     342  	oct	000000000042
    000477  aa   000000 000003     343  	oct	000000000003
    000500  aa   000000 000000     344  	oct	000000000000
    000501  aa   000000 007176     345  	oct	000000007176
    000502  aa   000000 000076     346  	oct	000000000076
    000503  aa   000000 000003     347  	oct	000000000003
    000504  aa   000000 000000     348  	oct	000000000000
    000505  aa   000000 007274     349  	oct	000000007274
    000506  aa   000000 000041     350  	oct	000000000041
    000507  aa   000000 000002     351  	oct	000000000002
    000510  aa   000000 000000     352  	oct	000000000000
    000511  aa   000000 007335     353  	oct	000000007335
    000512  aa   000000 000057     354  	oct	000000000057
    000513  aa   000000 000003     355  	oct	000000000003
    000514  aa   000000 000000     356  	oct	000000000000
    000515  aa   000000 007414     357  	oct	000000007414
    000516  aa   000000 000047     358  	oct	000000000047
    000517  aa   000000 000003     359  	oct	000000000003
    000520  aa   000000 000000     360  	oct	000000000000
    000521  aa   000000 007463     361  	oct	000000007463
    000522  aa   000000 000060     362  	oct	000000000060
    000523  aa   000000 000003     363  	oct	000000000003
    000524  aa   000000 000000     364  	oct	000000000000
    000525  aa   000000 007543     365  	oct	000000007543
    000526  aa   000000 000035     366  	oct	000000000035
    000527  aa   000000 000003     367  	oct	000000000003
    000530  aa   000000 000000     368  	oct	000000000000
    000531  aa   000000 007600     369  	oct	000000007600
    000532  aa   000000 000073     370  	oct	000000000073
    000533  aa   000000 000002     371  	oct	000000000002
    000534  aa   000000 000000     372  	oct	000000000000
    000535  aa   000000 007673     373  	oct	000000007673
    000536  aa   000000 000100     374  	oct	000000000100
    000537  aa   000000 000003     375  	oct	000000000003
    000540  aa   000000 000000     376  	oct	000000000000
    000541  aa   000000 007773     377  	oct	000000007773
    000542  aa   000000 000074     378  	oct	000000000074
    000543  aa   000000 000003     379  	oct	000000000003
    000544  aa   000000 000000     380  	oct	000000000000
    000545  aa   000000 010067     381  	oct	000000010067
    000546  aa   000000 000146     382  	oct	000000000146
    000547  aa   000000 000003     383  	oct	000000000003
    000550  aa   000000 000000     384  	oct	000000000000
    000551  aa   000000 010235     385  	oct	000000010235
    000552  aa   000000 000104     386  	oct	000000000104
    000553  aa   000000 000003     387  	oct	000000000003
    000554  aa   000000 000000     388  	oct	000000000000
    000555  aa   000000 010341     389  	oct	000000010341
    000556  aa   000000 000044     390  	oct	000000000044
    000557  aa   000000 000003     391  	oct	000000000003
    000560  aa   000000 000000     392  	oct	000000000000
    000561  aa   000000 010405     393  	oct	000000010405
    000562  aa   000000 000044     394  	oct	000000000044
    000563  aa   000000 000003     395  	oct	000000000003
    000564  aa   000000 000000     396  	oct	000000000000
    000565  aa   000000 010451     397  	oct	000000010451
    000566  aa   000000 000035     398  	oct	000000000035
    000567  aa   000000 000003     399  	oct	000000000003
    000570  aa   000000 000000     400  	oct	000000000000
    000571  aa   000000 010506     401  	oct	000000010506
    000572  aa   000000 000036     402  	oct	000000000036
    000573  aa   000000 000003     403  	oct	000000000003
    000574  aa   000000 000000     404  	oct	000000000000
    000575  aa   000000 010544     405  	oct	000000010544
    000576  aa   000000 000044     406  	oct	000000000044
    000577  aa   000000 000003     407  	oct	000000000003
    000600  aa   000000 000000     408  	oct	000000000000
    000601  aa   000000 010610     409  	oct	000000010610
    000602  aa   000000 000066     410  	oct	000000000066
    000603  aa   000000 000003     411  	oct	000000000003
    000604  aa   000000 000000     412  	oct	000000000000
    000605  aa   000000 010676     413  	oct	000000010676
    000606  aa   000000 000035     414  	oct	000000000035
    000607  aa   000000 000003     415  	oct	000000000003
    000610  aa   000000 000000     416  	oct	000000000000
    000611  aa   000000 010733     417  	oct	000000010733
    000612  aa   000000 000035     418  	oct	000000000035
    000613  aa   000000 000003     419  	oct	000000000003
    000614  aa   000000 000000     420  	oct	000000000000
    000615  aa   000000 010770     421  	oct	000000010770
    000616  aa   000000 000054     422  	oct	000000000054
    000617  aa   000000 000003     423  	oct	000000000003
    000620  aa   000000 000000     424  	oct	000000000000
    000621  aa   000000 011044     425  	oct	000000011044
    000622  aa   000000 000102     426  	oct	000000000102
    000623  aa   000000 000003     427  	oct	000000000003
    000624  aa   000000 000000     428  	oct	000000000000
    000625  aa   000000 011146     429  	oct	000000011146
    000626  aa   000000 000070     430  	oct	000000000070
    000627  aa   000000 000003     431  	oct	000000000003
    000630  aa   000000 000000     432  	oct	000000000000
    000631  aa   000000 011236     433  	oct	000000011236
    000632  aa   000000 000053     434  	oct	000000000053
    000633  aa   000000 000003     435  	oct	000000000003
    000634  aa   000000 000000     436  	oct	000000000000
    000635  aa   000000 011311     437  	oct	000000011311
    000636  aa   000000 000047     438  	oct	000000000047
    000637  aa   000000 000003     439  	oct	000000000003
    000640  aa   000000 000000     440  	oct	000000000000
    000641  aa   000000 011360     441  	oct	000000011360
    000642  aa   000000 000047     442  	oct	000000000047
    000643  aa   000000 000003     443  	oct	000000000003
    000644  aa   000000 000000     444  	oct	000000000000
    000645  aa   000000 011427     445  	oct	000000011427
    000646  aa   000000 000061     446  	oct	000000000061
    000647  aa   000000 000003     447  	oct	000000000003
    000650  aa   000000 000000     448  	oct	000000000000
    000651  aa   000000 011510     449  	oct	000000011510
    000652  aa   000000 000050     450  	oct	000000000050
    000653  aa   000000 000003     451  	oct	000000000003
    000654  aa   000000 000000     452  	oct	000000000000
    000655  aa   000000 011560     453  	oct	000000011560
    000656  aa   000000 000060     454  	oct	000000000060
    000657  aa   000000 000003     455  	oct	000000000003
    000660  aa   000000 000000     456  	oct	000000000000
    000661  aa   000000 011640     457  	oct	000000011640
    000662  aa   000000 000074     458  	oct	000000000074
    000663  aa   000000 000003     459  	oct	000000000003
    000664  aa   000000 000000     460  	oct	000000000000
    000665  aa   000000 011734     461  	oct	000000011734
    000666  aa   000000 000072     462  	oct	000000000072
    000667  aa   000000 000002     463  	oct	000000000002
    000670  aa   000000 000000     464  	oct	000000000000
    000671  aa   000000 012026     465  	oct	000000012026
    000672  aa   000000 000037     466  	oct	000000000037
    000673  aa   000000 000002     467  	oct	000000000002
    000674  aa   000000 000000     468  	oct	000000000000
    000675  aa   000000 012065     469  	oct	000000012065
    000676  aa   000000 000100     470  	oct	000000000100
    000677  aa   000000 000003     471  	oct	000000000003
    000700  aa   000000 000000     472  	oct	000000000000
    000701  aa   000000 012165     473  	oct	000000012165
    000702  aa   000000 000041     474  	oct	000000000041
    000703  aa   000000 000002     475  	oct	000000000002
    000704  aa   000000 000000     476  	oct	000000000000
    000705  aa   000000 012226     477  	oct	000000012226
    000706  aa   000000 000061     478  	oct	000000000061
    000707  aa   000000 000003     479  	oct	000000000003
    000710  aa   000000 000000     480  	oct	000000000000
    000711  aa   000000 012307     481  	oct	000000012307
    000712  aa   000000 000010     482  	oct	000000000010
    000713  aa   000000 000002     483  	oct	000000000002
    000714  aa   000000 000000     484  	oct	000000000000
    000715  aa   000000 012317     485  	oct	000000012317
    000716  aa   000000 000067     486  	oct	000000000067
    000717  aa   000000 000002     487  	oct	000000000002
    000720  aa   000000 000000     488  	oct	000000000000
    000721  aa   000000 012406     489  	oct	000000012406
    000722  aa   000000 000106     490  	oct	000000000106
    000723  aa   000000 000002     491  	oct	000000000002
    000724  aa   000000 000000     492  	oct	000000000000
    000725  aa   000000 012514     493  	oct	000000012514
    000726  aa   000000 000055     494  	oct	000000000055
    000727  aa   000000 000002     495  	oct	000000000002
    000730  aa   000000 000000     496  	oct	000000000000
    000731  aa   000000 012571     497  	oct	000000012571
    000732  aa   000000 000062     498  	oct	000000000062
    000733  aa   000000 000003     499  	oct	000000000003
    000734  aa   000000 000000     500  	oct	000000000000
    000735  aa   000000 012653     501  	oct	000000012653
    000736  aa   000000 000010     502  	oct	000000000010
    000737  aa   000000 000002     503  	oct	000000000002
    000740  aa   000000 000000     504  	oct	000000000000
    000741  aa   000000 012663     505  	oct	000000012663
    000742  aa   000000 000010     506  	oct	000000000010
    000743  aa   000000 000002     507  	oct	000000000002
    000744  aa   000000 000000     508  	oct	000000000000
    000745  aa   000000 012673     509  	oct	000000012673
    000746  aa   000000 000051     510  	oct	000000000051
    000747  aa   000000 000001     511  	oct	000000000001
    000750  aa   000000 000000     512  	oct	000000000000
    000751  aa   000000 012744     513  	oct	000000012744
    000752  aa   000000 000063     514  	oct	000000000063
    000753  aa   000000 000001     515  	oct	000000000001
    000754  aa   000000 000000     516  	oct	000000000000
    000755  aa   000000 013027     517  	oct	000000013027
    000756  aa   000000 000064     518  	oct	000000000064
    000757  aa   000000 000001     519  	oct	000000000001
    000760  aa   000000 000000     520  	oct	000000000000
    000761  aa   000000 013113     521  	oct	000000013113
    000762  aa   000000 000056     522  	oct	000000000056
    000763  aa   000000 000002     523  	oct	000000000002
    000764  aa   000000 000000     524  	oct	000000000000
    000765  aa   000000 013171     525  	oct	000000013171
    000766  aa   000000 000074     526  	oct	000000000074
    000767  aa   000000 000002     527  	oct	000000000002
    000770  aa   000000 000000     528  	oct	000000000000
    000771  aa   000000 013265     529  	oct	000000013265
    000772  aa   000000 000056     530  	oct	000000000056
    000773  aa   000000 000002     531  	oct	000000000002
    000774  aa   000000 000000     532  	oct	000000000000
    000775  aa   000000 013343     533  	oct	000000013343
    000776  aa   000000 000053     534  	oct	000000000053
    000777  aa   000000 000002     535  	oct	000000000002
    001000  aa   000000 000000     536  	oct	000000000000
    001001  aa   000000 013416     537  	oct	000000013416
    001002  aa   000000 000056     538  	oct	000000000056
    001003  aa   000000 000002     539  	oct	000000000002
    001004  aa   000000 000000     540  	oct	000000000000
    001005  aa   000000 013474     541  	oct	000000013474
    001006  aa   000000 000040     542  	oct	000000000040
    001007  aa   000000 000002     543  	oct	000000000002
    001010  aa   000000 000000     544  	oct	000000000000
    001011  aa   000000 013534     545  	oct	000000013534
    001012  aa   000000 000113     546  	oct	000000000113
    001013  aa   000000 000003     547  	oct	000000000003
    001014  aa   000000 000000     548  	oct	000000000000
    001015  aa   000000 013647     549  	oct	000000013647
    001016  aa   000000 000104     550  	oct	000000000104
    001017  aa   000000 000003     551  	oct	000000000003
    001020  aa   000000 000000     552  	oct	000000000000
    001021  aa   000000 013753     553  	oct	000000013753
    001022  aa   000000 000060     554  	oct	000000000060
    001023  aa   000000 000003     555  	oct	000000000003
    001024  aa   000000 000000     556  	oct	000000000000
    001025  aa   000000 014033     557  	oct	000000014033
    001026  aa   000000 000105     558  	oct	000000000105
    001027  aa   000000 000002     559  	oct	000000000002
    001030  aa   000000 000000     560  	oct	000000000000
    001031  aa   000000 014140     561  	oct	000000014140
    001032  aa   000000 000030     562  	oct	000000000030
    001033  aa   000000 000001     563  	oct	000000000001
    001034  aa   000000 000000     564  	oct	000000000000
    001035  aa   000000 014170     565  	oct	000000014170
    001036  aa   000000 000035     566  	oct	000000000035
    001037  aa   000000 000003     567  	oct	000000000003
    001040  aa   000000 000000     568  	oct	000000000000
    001041  aa   000000 014225     569  	oct	000000014225
    001042  aa   000000 000051     570  	oct	000000000051
    001043  aa   000000 000002     571  	oct	000000000002
    001044  aa   000000 000000     572  	oct	000000000000
    001045  aa   000000 014276     573  	oct	000000014276
    001046  aa   000000 000037     574  	oct	000000000037
    001047  aa   000000 000002     575  	oct	000000000002
    001050  aa   000000 000000     576  	oct	000000000000
    001051  aa   000000 014335     577  	oct	000000014335
    001052  aa   000000 000111     578  	oct	000000000111
    001053  aa   000000 000002     579  	oct	000000000002
    001054  aa   000000 000000     580  	oct	000000000000
    001055  aa   000000 014446     581  	oct	000000014446
    001056  aa   000000 000052     582  	oct	000000000052
    001057  aa   000000 000003     583  	oct	000000000003
    001060  aa   000000 000000     584  	oct	000000000000
    001061  aa   000000 014520     585  	oct	000000014520
    001062  aa   000000 000041     586  	oct	000000000041
    001063  aa   000000 000002     587  	oct	000000000002
    001064  aa   000000 000000     588  	oct	000000000000
    001065  aa   000000 014561     589  	oct	000000014561
    001066  aa   000000 000101     590  	oct	000000000101
    001067  aa   000000 000001     591  	oct	000000000001
    001070  aa   000000 000000     592  	oct	000000000000
    001071  aa   000000 014662     593  	oct	000000014662
    001072  aa   000000 000044     594  	oct	000000000044
    001073  aa   000000 000003     595  	oct	000000000003
    001074  aa   000000 000000     596  	oct	000000000000
    001075  aa   000000 014726     597  	oct	000000014726
    001076  aa   000000 000052     598  	oct	000000000052
    001077  aa   000000 000003     599  	oct	000000000003
    001100  aa   000000 000000     600  	oct	000000000000
    001101  aa   000000 015000     601  	oct	000000015000
    001102  aa   000000 000142     602  	oct	000000000142
    001103  aa   000000 000002     603  	oct	000000000002
    001104  aa   000000 000000     604  	oct	000000000000
    001105  aa   000000 015142     605  	oct	000000015142
    001106  aa   000000 000057     606  	oct	000000000057
    001107  aa   000000 000003     607  	oct	000000000003
    001110  aa   000000 000000     608  	oct	000000000000
    001111  aa   000000 015221     609  	oct	000000015221
    001112  aa   000000 000066     610  	oct	000000000066
    001113  aa   000000 000002     611  	oct	000000000002
    001114  aa   000000 000000     612  	oct	000000000000
    001115  aa   000000 015307     613  	oct	000000015307
    001116  aa   000000 000120     614  	oct	000000000120
    001117  aa   000000 000002     615  	oct	000000000002
    001120  aa   000000 000000     616  	oct	000000000000
    001121  aa   000000 015427     617  	oct	000000015427
    001122  aa   000000 000150     618  	oct	000000000150
    001123  aa   000000 000001     619  	oct	000000000001
    001124  aa   000000 000000     620  	oct	000000000000
    001125  aa   000000 015577     621  	oct	000000015577
    001126  aa   000000 000035     622  	oct	000000000035
    001127  aa   000000 000001     623  	oct	000000000001
    001130  aa   000000 000000     624  	oct	000000000000
    001131  aa   000000 015634     625  	oct	000000015634
    001132  aa   000000 000011     626  	oct	000000000011
    001133  aa   000000 000003     627  	oct	000000000003
    001134  aa   000000 000000     628  	oct	000000000000
    001135  aa   000000 015645     629  	oct	000000015645
    001136  aa   000000 000076     630  	oct	000000000076
    001137  aa   000000 000002     631  	oct	000000000002
    001140  aa   000000 000000     632  	oct	000000000000
    001141  aa   000000 015743     633  	oct	000000015743
    001142  aa   000000 000043     634  	oct	000000000043
    001143  aa   000000 000003     635  	oct	000000000003
    001144  aa   000000 000000     636  	oct	000000000000
    001145  aa   000000 016006     637  	oct	000000016006
    001146  aa   000000 000045     638  	oct	000000000045
    001147  aa   000000 000003     639  	oct	000000000003
    001150  aa   000000 000000     640  	oct	000000000000
    001151  aa   000000 016053     641  	oct	000000016053
    001152  aa   000000 000123     642  	oct	000000000123
    001153  aa   000000 000002     643  	oct	000000000002
    001154  aa   000000 000000     644  	oct	000000000000
    001155  aa   000000 016176     645  	oct	000000016176
    001156  aa   000000 000140     646  	oct	000000000140
    001157  aa   000000 000001     647  	oct	000000000001
    001160  aa   000000 000000     648  	oct	000000000000
    001161  aa   000000 016336     649  	oct	000000016336
    001162  aa   000000 000027     650  	oct	000000000027
    001163  aa   000000 000003     651  	oct	000000000003
    001164  aa   000000 000000     652  	oct	000000000000
    001165  aa   000000 016365     653  	oct	000000016365
    001166  aa   000000 000033     654  	oct	000000000033
    001167  aa   000000 000001     655  	oct	000000000001
    001170  aa   000000 000000     656  	oct	000000000000
    001171  aa   000000 000000     657  	oct	000000000000
    001172  aa   000000 000000     658  	oct	000000000000
    001173  aa   000000 000000     659  	oct	000000000000
    001174  aa   000000 000000     660  	oct	000000000000
    001175  aa   000000 000000     661  	oct	000000000000
    001176  aa   000000 000000     662  	oct	000000000000
    001177  aa   000000 000000     663  	oct	000000000000
    001200  aa   000000 000000     664  	oct	000000000000
    001201  aa   000000 000000     665  	oct	000000000000
    001202  aa   000000 000000     666  	oct	000000000000
    001203  aa   000000 000000     667  	oct	000000000000
    001204  aa   000000 000000     668  	oct	000000000000
    001205  aa   000000 000000     669  	oct	000000000000
    001206  aa   000000 000000     670  	oct	000000000000
    001207  aa   000000 000000     671  	oct	000000000000
    001210  aa   000000 000000     672  	oct	000000000000
    001211  aa   000000 000000     673  	oct	000000000000
    001212  aa   000000 000000     674  	oct	000000000000
    001213  aa   000000 000000     675  	oct	000000000000
    001214  aa   000000 000000     676  	oct	000000000000
    001215  aa   000000 000000     677  	oct	000000000000
    001216  aa   000000 000000     678  	oct	000000000000
    001217  aa   000000 000000     679  	oct	000000000000
    001220  aa   000000 000000     680  	oct	000000000000
    001221  aa   000000 000000     681  	oct	000000000000
    001222  aa   000000 000000     682  	oct	000000000000
    001223  aa   000000 000000     683  	oct	000000000000
    001224  aa   000000 000000     684  	oct	000000000000
    001225  aa   000000 000000     685  	oct	000000000000
    001226  aa   000000 000000     686  	oct	000000000000
    001227  aa   000000 000000     687  	oct	000000000000
    001230  aa   000000 000000     688  	oct	000000000000
    001231  aa   000000 000000     689  	oct	000000000000
    001232  aa   000000 000000     690  	oct	000000000000
    001233  aa   000000 000000     691  	oct	000000000000
    001234  aa   000000 000000     692  	oct	000000000000
    001235  aa   000000 000000     693  	oct	000000000000
    001236  aa   000000 000000     694  	oct	000000000000
    001237  aa   000000 000000     695  	oct	000000000000
    001240  aa   000000 000000     696  	oct	000000000000
    001241  aa   000000 000000     697  	oct	000000000000
    001242  aa   000000 000000     698  	oct	000000000000
    001243  aa   000000 000000     699  	oct	000000000000
    001244  aa   000000 000000     700  	oct	000000000000
    001245  aa   000000 000000     701  	oct	000000000000
    001246  aa   000000 000000     702  	oct	000000000000
    001247  aa   000000 000000     703  	oct	000000000000
    001250  aa   000000 000000     704  	oct	000000000000
    001251  aa   000000 000000     705  	oct	000000000000
    001252  aa   000000 000000     706  	oct	000000000000
    001253  aa   000000 000000     707  	oct	000000000000
    001254  aa   000000 000000     708  	oct	000000000000
    001255  aa   000000 000000     709  	oct	000000000000
    001256  aa   000000 000000     710  	oct	000000000000
    001257  aa   000000 000000     711  	oct	000000000000
    001260  aa   000000 000000     712  	oct	000000000000
    001261  aa   000000 000000     713  	oct	000000000000
    001262  aa   000000 000000     714  	oct	000000000000
    001263  aa   000000 000000     715  	oct	000000000000
    001264  aa   000000 000000     716  	oct	000000000000
    001265  aa   000000 000000     717  	oct	000000000000
    001266  aa   000000 000000     718  	oct	000000000000
    001267  aa   000000 000000     719  	oct	000000000000
    001270  aa   000000 000000     720  	oct	000000000000
    001271  aa   000000 000000     721  	oct	000000000000
    001272  aa   000000 000000     722  	oct	000000000000
    001273  aa   000000 000000     723  	oct	000000000000
    001274  aa   000000 000000     724  	oct	000000000000
    001275  aa   000000 000000     725  	oct	000000000000
    001276  aa   000000 000000     726  	oct	000000000000
    001277  aa   000000 000000     727  	oct	000000000000
    001300  aa   000000 000000     728  	oct	000000000000
    001301  aa   000000 000000     729  	oct	000000000000
    001302  aa   000000 000000     730  	oct	000000000000
    001303  aa   000000 000000     731  	oct	000000000000
    001304  aa   000000 000000     732  	oct	000000000000
    001305  aa   000000 000000     733  	oct	000000000000
    001306  aa   000000 000000     734  	oct	000000000000
    001307  aa   000000 000000     735  	oct	000000000000
    001310  aa   000000 000000     736  	oct	000000000000
    001311  aa   000000 000000     737  	oct	000000000000
    001312  aa   000000 000000     738  	oct	000000000000
    001313  aa   000000 000000     739  	oct	000000000000
    001314  aa   000000 000000     740  	oct	000000000000
    001315  aa   000000 000000     741  	oct	000000000000
    001316  aa   000000 000000     742  	oct	000000000000
    001317  aa   000000 000000     743  	oct	000000000000
    001320  aa   000000 000000     744  	oct	000000000000
    001321  aa   000000 000000     745  	oct	000000000000
    001322  aa   000000 000000     746  	oct	000000000000
    001323  aa   000000 000000     747  	oct	000000000000
    001324  aa   000000 000000     748  	oct	000000000000
    001325  aa   000000 000000     749  	oct	000000000000
    001326  aa   000000 000000     750  	oct	000000000000
    001327  aa   000000 000000     751  	oct	000000000000
    001330  aa   000000 000000     752  	oct	000000000000
    001331  aa   000000 000000     753  	oct	000000000000
    001332  aa   000000 000000     754  	oct	000000000000
    001333  aa   000000 000000     755  	oct	000000000000
    001334  aa   000000 000000     756  	oct	000000000000
    001335  aa   000000 000000     757  	oct	000000000000
    001336  aa   000000 000000     758  	oct	000000000000
    001337  aa   000000 000000     759  	oct	000000000000
    001340  aa   000000 000000     760  	oct	000000000000
    001341  aa   000000 000000     761  	oct	000000000000
    001342  aa   000000 000000     762  	oct	000000000000
    001343  aa   000000 000000     763  	oct	000000000000
    001344  aa   000000 000000     764  	oct	000000000000
    001345  aa   000000 000000     765  	oct	000000000000
    001346  aa   000000 000000     766  	oct	000000000000
    001347  aa   000000 000000     767  	oct	000000000000
    001350  aa   000000 000000     768  	oct	000000000000
    001351  aa   000000 000000     769  	oct	000000000000
    001352  aa   000000 000000     770  	oct	000000000000
    001353  aa   000000 000000     771  	oct	000000000000
    001354  aa   000000 000000     772  	oct	000000000000
    001355  aa   000000 000000     773  	oct	000000000000
    001356  aa   000000 000000     774  	oct	000000000000
    001357  aa   000000 000000     775  	oct	000000000000
    001360  aa   000000 000000     776  	oct	000000000000
    001361  aa   000000 000000     777  	oct	000000000000
    001362  aa   000000 000000     778  	oct	000000000000
    001363  aa   000000 000000     779  	oct	000000000000
    001364  aa   000000 000000     780  	oct	000000000000
    001365  aa   000000 000000     781  	oct	000000000000
    001366  aa   000000 000000     782  	oct	000000000000
    001367  aa   000000 000000     783  	oct	000000000000
    001370  aa   000000 000000     784  	oct	000000000000
    001371  aa   000000 000000     785  	oct	000000000000
    001372  aa   000000 000000     786  	oct	000000000000
    001373  aa   000000 000000     787  	oct	000000000000
    001374  aa   000000 000000     788  	oct	000000000000
    001375  aa   000000 000000     789  	oct	000000000000
    001376  aa   000000 000000     790  	oct	000000000000
    001377  aa   000000 000000     791  	oct	000000000000
    001400  aa   000000 000000     792  	oct	000000000000
    001401  aa   000000 000000     793  	oct	000000000000
    001402  aa   000000 000000     794  	oct	000000000000
    001403  aa   000000 000000     795  	oct	000000000000
    001404  aa   000000 000000     796  	oct	000000000000
    001405  aa   000000 000000     797  	oct	000000000000
    001406  aa   000000 000000     798  	oct	000000000000
    001407  aa   000000 000000     799  	oct	000000000000
    001410  aa   000000 000000     800  	oct	000000000000
    001411  aa   000000 000000     801  	oct	000000000000
    001412  aa   000000 000000     802  	oct	000000000000
    001413  aa   000000 000000     803  	oct	000000000000
    001414  aa   000000 000000     804  	oct	000000000000
    001415  aa   000000 016420     805  	oct	000000016420
    001416  aa   000000 000121     806  	oct	000000000121
    001417  aa   000000 000002     807  	oct	000000000002
    001420  aa   000000 000000     808  	oct	000000000000
    001421  aa   000000 016541     809  	oct	000000016541
    001422  aa   000000 000052     810  	oct	000000000052
    001423  aa   000000 000003     811  	oct	000000000003
    001424  aa   000000 000000     812  	oct	000000000000
    001425  aa   000000 016613     813  	oct	000000016613
    001426  aa   000000 000144     814  	oct	000000000144
    001427  aa   000000 000002     815  	oct	000000000002
    001430  aa   000000 000000     816  	oct	000000000000
    001431  aa   000000 016757     817  	oct	000000016757
    001432  aa   000000 000070     818  	oct	000000000070
    001433  aa   000000 000003     819  	oct	000000000003
    001434  aa   000000 000000     820  	oct	000000000000
    001435  aa   000000 017047     821  	oct	000000017047
    001436  aa   000000 000100     822  	oct	000000000100
    001437  aa   000000 000003     823  	oct	000000000003
    001440  aa   000000 000000     824  	oct	000000000000
    001441  aa   000000 017147     825  	oct	000000017147
    001442  aa   000000 000137     826  	oct	000000000137
    001443  aa   000000 000003     827  	oct	000000000003
    001444  aa   000000 000000     828  	oct	000000000000
    001445  aa   000000 017306     829  	oct	000000017306
    001446  aa   000000 000102     830  	oct	000000000102
    001447  aa   000000 000002     831  	oct	000000000002
    001450  aa   000000 000000     832  	oct	000000000000
    001451  aa   000000 017410     833  	oct	000000017410
    001452  aa   000000 000150     834  	oct	000000000150
    001453  aa   000000 000002     835  	oct	000000000002
    001454  aa   000000 000000     836  	oct	000000000000
    001455  aa   000000 017560     837  	oct	000000017560
    001456  aa   000000 000121     838  	oct	000000000121
    001457  aa   000000 000002     839  	oct	000000000002
    001460  aa   000000 000000     840  	oct	000000000000
    001461  aa   000000 017701     841  	oct	000000017701
    001462  aa   000000 000141     842  	oct	000000000141
    001463  aa   000000 000002     843  	oct	000000000002
    001464  aa   000000 000000     844  	oct	000000000000
    001465  aa   000000 020042     845  	oct	000000020042
    001466  aa   000000 000141     846  	oct	000000000141
    001467  aa   000000 000002     847  	oct	000000000002
    001470  aa   000000 000000     848  	oct	000000000000
    001471  aa   000000 020203     849  	oct	000000020203
    001472  aa   000000 000152     850  	oct	000000000152
    001473  aa   000000 000002     851  	oct	000000000002
    001474  aa   000000 000000     852  	oct	000000000000
    001475  aa   000000 020355     853  	oct	000000020355
    001476  aa   000000 000141     854  	oct	000000000141
    001477  aa   000000 000002     855  	oct	000000000002
    001500  aa   000000 000000     856  	oct	000000000000
    001501  aa   000000 020516     857  	oct	000000020516
    001502  aa   000000 000140     858  	oct	000000000140
    001503  aa   000000 000002     859  	oct	000000000002
    001504  aa   000000 000000     860  	oct	000000000000
    001505  aa   000000 020656     861  	oct	000000020656
    001506  aa   000000 000124     862  	oct	000000000124
    001507  aa   000000 000002     863  	oct	000000000002
    001510  aa   000000 000000     864  	oct	000000000000
    001511  aa   000000 021002     865  	oct	000000021002
    001512  aa   000000 000114     866  	oct	000000000114
    001513  aa   000000 000002     867  	oct	000000000002
    001514  aa   000000 000000     868  	oct	000000000000
    001515  aa   000000 021116     869  	oct	000000021116
    001516  aa   000000 000071     870  	oct	000000000071
    001517  aa   000000 000001     871  	oct	000000000001
    001520  aa   000000 000000     872  	oct	000000000000
    001521  aa   000000 021207     873  	oct	000000021207
    001522  aa   000000 000071     874  	oct	000000000071
    001523  aa   000000 000001     875  	oct	000000000001
    001524  aa   000000 000000     876  	oct	000000000000
    001525  aa   000000 021300     877  	oct	000000021300
    001526  aa   000000 000121     878  	oct	000000000121
    001527  aa   000000 000001     879  	oct	000000000001
    001530  aa   000000 000000     880  	oct	000000000000
    001531  aa   000000 021421     881  	oct	000000021421
    001532  aa   000000 000144     882  	oct	000000000144
    001533  aa   000000 000001     883  	oct	000000000001
    001534  aa   000000 000000     884  	oct	000000000000
    001535  aa   000000 021565     885  	oct	000000021565
    001536  aa   000000 000144     886  	oct	000000000144
    001537  aa   000000 000002     887  	oct	000000000002
    001540  aa   000000 000000     888  	oct	000000000000
    001541  aa   000000 021731     889  	oct	000000021731
    001542  aa   000000 000137     890  	oct	000000000137
    001543  aa   000000 000001     891  	oct	000000000001
    001544  aa   000000 000000     892  	oct	000000000000
    001545  aa   000000 022070     893  	oct	000000022070
    001546  aa   000000 000134     894  	oct	000000000134
    001547  aa   000000 000001     895  	oct	000000000001
    001550  aa   000000 000000     896  	oct	000000000000
    001551  aa   000000 022224     897  	oct	000000022224
    001552  aa   000000 000135     898  	oct	000000000135
    001553  aa   000000 000001     899  	oct	000000000001
    001554  aa   000000 000000     900  	oct	000000000000
    001555  aa   000000 022361     901  	oct	000000022361
    001556  aa   000000 000136     902  	oct	000000000136
    001557  aa   000000 000001     903  	oct	000000000001
    001560  aa   000000 000000     904  	oct	000000000000
    001561  aa   000000 022517     905  	oct	000000022517
    001562  aa   000000 000146     906  	oct	000000000146
    001563  aa   000000 000001     907  	oct	000000000001
    001564  aa   000000 000000     908  	oct	000000000000
    001565  aa   000000 022665     909  	oct	000000022665
    001566  aa   000000 000151     910  	oct	000000000151
    001567  aa   000000 000001     911  	oct	000000000001
    001570  aa   000000 000000     912  	oct	000000000000
    001571  aa   000000 023036     913  	oct	000000023036
    001572  aa   000000 000152     914  	oct	000000000152
    001573  aa   000000 000001     915  	oct	000000000001
    001574  aa   000000 000000     916  	oct	000000000000
    001575  aa   000000 023210     917  	oct	000000023210
    001576  aa   000000 000111     918  	oct	000000000111
    001577  aa   000000 000001     919  	oct	000000000001
    001600  aa   000000 000000     920  	oct	000000000000
    001601  aa   000000 023321     921  	oct	000000023321
    001602  aa   000000 000142     922  	oct	000000000142
    001603  aa   000000 000001     923  	oct	000000000001
    001604  aa   000000 000000     924  	oct	000000000000
    001605  aa   000000 023463     925  	oct	000000023463
    001606  aa   000000 000135     926  	oct	000000000135
    001607  aa   000000 000001     927  	oct	000000000001
    001610  aa   000000 000000     928  	oct	000000000000
    001611  aa   000000 023620     929  	oct	000000023620
    001612  aa   000000 000132     930  	oct	000000000132
    001613  aa   000000 000002     931  	oct	000000000002
    001614  aa   000000 000000     932  	oct	000000000000
    001615  aa   000000 023752     933  	oct	000000023752
    001616  aa   000000 000060     934  	oct	000000000060
    001617  aa   000000 000002     935  	oct	000000000002
    001620  aa   000000 000000     936  	oct	000000000000
    001621  aa   000000 024032     937  	oct	000000024032
    001622  aa   000000 000041     938  	oct	000000000041
    001623  aa   000000 000002     939  	oct	000000000002
    001624  aa   000000 000000     940  	oct	000000000000
    001625  aa   000000 024073     941  	oct	000000024073
    001626  aa   000000 000022     942  	oct	000000000022
    001627  aa   000000 000002     943  	oct	000000000002
    001630  aa   000000 000000     944  	oct	000000000000
    001631  aa   000000 024115     945  	oct	000000024115
    001632  aa   000000 000100     946  	oct	000000000100
    001633  aa   000000 000003     947  	oct	000000000003
    001634  aa   000000 000000     948  	oct	000000000000
    001635  aa   000000 024215     949  	oct	000000024215
    001636  aa   000000 000025     950  	oct	000000000025
    001637  aa   000000 000003     951  	oct	000000000003
    001640  aa   000000 000000     952  	oct	000000000000
    001641  aa   000000 024242     953  	oct	000000024242
    001642  aa   000000 000107     954  	oct	000000000107
    001643  aa   000000 000003     955  	oct	000000000003
    001644  aa   000000 000000     956  	oct	000000000000
    001645  aa   000000 024351     957  	oct	000000024351
    001646  aa   000000 000051     958  	oct	000000000051
    001647  aa   000000 000003     959  	oct	000000000003
    001650  aa   000000 000000     960  	oct	000000000000
    001651  aa   000000 024422     961  	oct	000000024422
    001652  aa   000000 000137     962  	oct	000000000137
    001653  aa   000000 000003     963  	oct	000000000003
    001654  aa   000000 000000     964  	oct	000000000000
    001655  aa   000000 024561     965  	oct	000000024561
    001656  aa   000000 000110     966  	oct	000000000110
    001657  aa   000000 000003     967  	oct	000000000003
    001660  aa   000000 000107     968  	oct	000000000107
    001661  aa   000000 024671     969  	oct	000000024671
    001662  aa   000000 000072     970  	oct	000000000072
    001663  aa   000000 000003     971  	oct	000000000003
    001664  aa   000000 000000     972  	oct	000000000000
    001665  aa   000000 024763     973  	oct	000000024763
    001666  aa   000000 000041     974  	oct	000000000041
    001667  aa   000000 000003     975  	oct	000000000003
    001670  aa   000000 000000     976  	oct	000000000000
    001671  aa   000000 025024     977  	oct	000000025024
    001672  aa   000000 000054     978  	oct	000000000054
    001673  aa   000000 000003     979  	oct	000000000003
    001674  aa   000000 000000     980  	oct	000000000000
    001675  aa   000000 025100     981  	oct	000000025100
    001676  aa   000000 000036     982  	oct	000000000036
    001677  aa   000000 000001     983  	oct	000000000001
    001700  aa   000000 000000     984  	oct	000000000000
    001701  aa   000000 025136     985  	oct	000000025136
    001702  aa   000000 000045     986  	oct	000000000045
    001703  aa   000000 000003     987  	oct	000000000003
    001704  aa   000000 000000     988  	oct	000000000000
    001705  aa   000000 025203     989  	oct	000000025203
    001706  aa   000000 000062     990  	oct	000000000062
    001707  aa   000000 000001     991  	oct	000000000001
    001710  aa   000000 000000     992  	oct	000000000000
    001711  aa   000000 025265     993  	oct	000000025265
    001712  aa   000000 000046     994  	oct	000000000046
    001713  aa   000000 000003     995  	oct	000000000003
    001714  aa   000000 000000     996  	oct	000000000000
    001715  aa   000000 025333     997  	oct	000000025333
    001716  aa   000000 000047     998  	oct	000000000047
    001717  aa   000000 000003     999  	oct	000000000003
    001720  aa   000000 000000    1000  	oct	000000000000
    001721  aa   000000 025402    1001  	oct	000000025402
    001722  aa   000000 000053    1002  	oct	000000000053
    001723  aa   000000 000002    1003  	oct	000000000002
    001724  aa   000000 000000    1004  	oct	000000000000
    001725  aa   000000 025455    1005  	oct	000000025455
    001726  aa   000000 000026    1006  	oct	000000000026
    001727  aa   000000 000003    1007  	oct	000000000003
    001730  aa   000000 000000    1008  	oct	000000000000
    001731  aa   000000 025503    1009  	oct	000000025503
    001732  aa   000000 000043    1010  	oct	000000000043
    001733  aa   000000 000003    1011  	oct	000000000003
    001734  aa   000000 000000    1012  	oct	000000000000
    001735  aa   000000 025546    1013  	oct	000000025546
    001736  aa   000000 000040    1014  	oct	000000000040
    001737  aa   000000 000003    1015  	oct	000000000003
    001740  aa   000000 000000    1016  	oct	000000000000
    001741  aa   000000 025606    1017  	oct	000000025606
    001742  aa   000000 000061    1018  	oct	000000000061
    001743  aa   000000 000003    1019  	oct	000000000003
    001744  aa   000000 000000    1020  	oct	000000000000
    001745  aa   000000 025667    1021  	oct	000000025667
    001746  aa   000000 000041    1022  	oct	000000000041
    001747  aa   000000 000003    1023  	oct	000000000003
    001750  aa   000000 000000    1024  	oct	000000000000
    001751  aa   000000 025730    1025  	oct	000000025730
    001752  aa   000000 000141    1026  	oct	000000000141
    001753  aa   000000 000003    1027  	oct	000000000003
    001754  aa   000000 000000    1028  	oct	000000000000
    001755  aa   000000 026071    1029  	oct	000000026071
    001756  aa   000000 000034    1030  	oct	000000000034
    001757  aa   000000 000003    1031  	oct	000000000003
    001760  aa   000000 000000    1032  	oct	000000000000
    001761  aa   000000 026125    1033  	oct	000000026125
    001762  aa   000000 000027    1034  	oct	000000000027
    001763  aa   000000 000003    1035  	oct	000000000003
    001764  aa   000000 000000    1036  	oct	000000000000
    001765  aa   000000 026154    1037  	oct	000000026154
    001766  aa   000000 000113    1038  	oct	000000000113
    001767  aa   000000 000003    1039  	oct	000000000003
    001770  aa   000000 000000    1040  	oct	000000000000
    001771  aa   000000 026267    1041  	oct	000000026267
    001772  aa   000000 000056    1042  	oct	000000000056
    001773  aa   000000 000003    1043  	oct	000000000003
    001774  aa   000000 000000    1044  	oct	000000000000
    001775  aa   000000 026345    1045  	oct	000000026345
    001776  aa   000000 000123    1046  	oct	000000000123
    001777  aa   000000 000003    1047  	oct	000000000003
    002000  aa   000000 000000    1048  	oct	000000000000
    002001  aa   000000 026470    1049  	oct	000000026470
    002002  aa   000000 000052    1050  	oct	000000000052
    002003  aa   000000 000003    1051  	oct	000000000003
    002004  aa   000000 000000    1052  	oct	000000000000
    002005  aa   000000 026542    1053  	oct	000000026542
    002006  aa   000000 000110    1054  	oct	000000000110
    002007  aa   000000 000003    1055  	oct	000000000003
    002010  aa   000000 000000    1056  	oct	000000000000
    002011  aa   000000 026652    1057  	oct	000000026652
    002012  aa   000000 000126    1058  	oct	000000000126
    002013  aa   000000 000002    1059  	oct	000000000002
    002014  aa   000000 000000    1060  	oct	000000000000
    002015  aa   000000 027000    1061  	oct	000000027000
    002016  aa   000000 000110    1062  	oct	000000000110
    002017  aa   000000 000003    1063  	oct	000000000003
    002020  aa   000000 000000    1064  	oct	000000000000
    002021  aa   000000 027110    1065  	oct	000000027110
    002022  aa   000000 000064    1066  	oct	000000000064
    002023  aa   000000 000003    1067  	oct	000000000003
    002024  aa   000000 000000    1068  	oct	000000000000
    002025  aa   000000 027174    1069  	oct	000000027174
    002026  aa   000000 000026    1070  	oct	000000000026
    002027  aa   000000 000002    1071  	oct	000000000002
    002030  aa   000000 000000    1072  	oct	000000000000
    002031  aa   000000 027222    1073  	oct	000000027222
    002032  aa   000000 000074    1074  	oct	000000000074
    002033  aa   000000 000003    1075  	oct	000000000003
    002034  aa   000000 000000    1076  	oct	000000000000
    002035  aa   000000 027316    1077  	oct	000000027316
    002036  aa   000000 000067    1078  	oct	000000000067
    002037  aa   000000 000003    1079  	oct	000000000003
    002040  aa   000000 000000    1080  	oct	000000000000
    002041  aa   000000 027405    1081  	oct	000000027405
    002042  aa   000000 000112    1082  	oct	000000000112
    002043  aa   000000 000003    1083  	oct	000000000003
    002044  aa   000000 000000    1084  	oct	000000000000
    002045  aa   000000 027517    1085  	oct	000000027517
    002046  aa   000000 000075    1086  	oct	000000000075
    002047  aa   000000 000003    1087  	oct	000000000003
    002050  aa   000000 000000    1088  	oct	000000000000
    002051  aa   000000 027614    1089  	oct	000000027614
    002052  aa   000000 000100    1090  	oct	000000000100
    002053  aa   000000 000003    1091  	oct	000000000003
    002054  aa   000000 000000    1092  	oct	000000000000
    002055  aa   000000 027714    1093  	oct	000000027714
    002056  aa   000000 000124    1094  	oct	000000000124
    002057  aa   000000 000003    1095  	oct	000000000003
    002060  aa   000000 000000    1096  	oct	000000000000
    002061  aa   000000 030040    1097  	oct	000000030040
    002062  aa   000000 000054    1098  	oct	000000000054
    002063  aa   000000 000003    1099  	oct	000000000003
    002064  aa   000000 000000    1100  	oct	000000000000
    002065  aa   000000 030114    1101  	oct	000000030114
    002066  aa   000000 000106    1102  	oct	000000000106
    002067  aa   000000 000003    1103  	oct	000000000003
    002070  aa   000000 000000    1104  	oct	000000000000
    002071  aa   000000 030222    1105  	oct	000000030222
    002072  aa   000000 000104    1106  	oct	000000000104
    002073  aa   000000 000003    1107  	oct	000000000003
    002074  aa   000000 000000    1108  	oct	000000000000
    002075  aa   000000 030326    1109  	oct	000000030326
    002076  aa   000000 000075    1110  	oct	000000000075
    002077  aa   000000 000003    1111  	oct	000000000003
    002100  aa   000000 000000    1112  	oct	000000000000
    002101  aa   000000 030423    1113  	oct	000000030423
    002102  aa   000000 000075    1114  	oct	000000000075
    002103  aa   000000 000003    1115  	oct	000000000003
    002104  aa   000000 000000    1116  	oct	000000000000
    002105  aa   000000 030520    1117  	oct	000000030520
    002106  aa   000000 000146    1118  	oct	000000000146
    002107  aa   000000 000003    1119  	oct	000000000003
    002110  aa   000000 000000    1120  	oct	000000000000
    002111  aa   000000 030666    1121  	oct	000000030666
    002112  aa   000000 000101    1122  	oct	000000000101
    002113  aa   000000 000003    1123  	oct	000000000003
    002114  aa   000000 000000    1124  	oct	000000000000
    002115  aa   000000 030767    1125  	oct	000000030767
    002116  aa   000000 000114    1126  	oct	000000000114
    002117  aa   000000 000003    1127  	oct	000000000003
    002120  aa   000000 000000    1128  	oct	000000000000
    002121  aa   000000 031103    1129  	oct	000000031103
    002122  aa   000000 000110    1130  	oct	000000000110
    002123  aa   000000 000003    1131  	oct	000000000003
    002124  aa   000000 000000    1132  	oct	000000000000
    002125  aa   000000 031213    1133  	oct	000000031213
    002126  aa   000000 000101    1134  	oct	000000000101
    002127  aa   000000 000003    1135  	oct	000000000003
    002130  aa   000000 000000    1136  	oct	000000000000
    002131  aa   000000 031314    1137  	oct	000000031314
    002132  aa   000000 000077    1138  	oct	000000000077
    002133  aa   000000 000003    1139  	oct	000000000003
    002134  aa   000000 000000    1140  	oct	000000000000
    002135  aa   000000 031413    1141  	oct	000000031413
    002136  aa   000000 000055    1142  	oct	000000000055
    002137  aa   000000 000003    1143  	oct	000000000003
    002140  aa   000000 000000    1144  	oct	000000000000
    002141  aa   000000 031470    1145  	oct	000000031470
    002142  aa   000000 000075    1146  	oct	000000000075
    002143  aa   000000 000002    1147  	oct	000000000002
    002144  aa   000000 000000    1148  	oct	000000000000
    002145  aa   000000 031565    1149  	oct	000000031565
    002146  aa   000000 000076    1150  	oct	000000000076
    002147  aa   000000 000003    1151  	oct	000000000003
    002150  aa   000000 000000    1152  	oct	000000000000
    002151  aa   000000 031663    1153  	oct	000000031663
    002152  aa   000000 000067    1154  	oct	000000000067
    002153  aa   000000 000003    1155  	oct	000000000003
    002154  aa   000000 000000    1156  	oct	000000000000
    002155  aa   000000 031752    1157  	oct	000000031752
    002156  aa   000000 000077    1158  	oct	000000000077
    002157  aa   000000 000003    1159  	oct	000000000003
    002160  aa   000000 000000    1160  	oct	000000000000
    002161  aa   000000 032051    1161  	oct	000000032051
    002162  aa   000000 000144    1162  	oct	000000000144
    002163  aa   000000 000003    1163  	oct	000000000003
    002164  aa   000000 000000    1164  	oct	000000000000
    002165  aa   000000 032215    1165  	oct	000000032215
    002166  aa   000000 000050    1166  	oct	000000000050
    002167  aa   000000 000003    1167  	oct	000000000003
    002170  aa   000000 000000    1168  	oct	000000000000
    002171  aa   000000 032265    1169  	oct	000000032265
    002172  aa   000000 000064    1170  	oct	000000000064
    002173  aa   000000 000003    1171  	oct	000000000003
    002174  aa   000000 000000    1172  	oct	000000000000
    002175  aa   000000 032351    1173  	oct	000000032351
    002176  aa   000000 000111    1174  	oct	000000000111
    002177  aa   000000 000003    1175  	oct	000000000003
    002200  aa   000000 000000    1176  	oct	000000000000
    002201  aa   000000 032462    1177  	oct	000000032462
    002202  aa   000000 000113    1178  	oct	000000000113
    002203  aa   000000 000003    1179  	oct	000000000003
    002204  aa   000000 000000    1180  	oct	000000000000
    002205  aa   000000 032575    1181  	oct	000000032575
    002206  aa   000000 000145    1182  	oct	000000000145
    002207  aa   000000 000003    1183  	oct	000000000003
    002210  aa   000000 000000    1184  	oct	000000000000
    002211  aa   000000 032742    1185  	oct	000000032742
    002212  aa   000000 000036    1186  	oct	000000000036
    002213  aa   000000 000003    1187  	oct	000000000003
    002214  aa   000000 000000    1188  	oct	000000000000
    002215  aa   000000 033000    1189  	oct	000000033000
    002216  aa   000000 000064    1190  	oct	000000000064
    002217  aa   000000 000003    1191  	oct	000000000003
    002220  aa   000000 000000    1192  	oct	000000000000
    002221  aa   000000 033064    1193  	oct	000000033064
    002222  aa   000000 000113    1194  	oct	000000000113
    002223  aa   000000 000003    1195  	oct	000000000003
    002224  aa   000000 000000    1196  	oct	000000000000
    002225  aa   000000 033177    1197  	oct	000000033177
    002226  aa   000000 000072    1198  	oct	000000000072
    002227  aa   000000 000003    1199  	oct	000000000003
    002230  aa   000000 000000    1200  	oct	000000000000
    002231  aa   000000 033271    1201  	oct	000000033271
    002232  aa   000000 000137    1202  	oct	000000000137
    002233  aa   000000 000002    1203  	oct	000000000002
    002234  aa   000000 000000    1204  	oct	000000000000
    002235  aa   000000 033430    1205  	oct	000000033430
    002236  aa   000000 000104    1206  	oct	000000000104
    002237  aa   000000 000003    1207  	oct	000000000003
    002240  aa   000000 000000    1208  	oct	000000000000
    002241  aa   000000 033534    1209  	oct	000000033534
    002242  aa   000000 000117    1210  	oct	000000000117
    002243  aa   000000 000003    1211  	oct	000000000003
    002244  aa   000000 000000    1212  	oct	000000000000
    002245  aa   000000 033653    1213  	oct	000000033653
    002246  aa   000000 000150    1214  	oct	000000000150
    002247  aa   000000 000003    1215  	oct	000000000003
    002250  aa   000000 000000    1216  	oct	000000000000
    002251  aa   000000 034023    1217  	oct	000000034023
    002252  aa   000000 000033    1218  	oct	000000000033
    002253  aa   000000 000001    1219  	oct	000000000001
    002254  aa   000000 000000    1220  	oct	000000000000
    002255  aa   000000 034056    1221  	oct	000000034056
    002256  aa   000000 000143    1222  	oct	000000000143
    002257  aa   000000 000003    1223  	oct	000000000003
    002260  aa   000000 000000    1224  	oct	000000000000
    002261  aa   000000 034221    1225  	oct	000000034221
    002262  aa   000000 000036    1226  	oct	000000000036
    002263  aa   000000 000001    1227  	oct	000000000001
    002264  aa   000000 000000    1228  	oct	000000000000
    002265  aa   000000 034257    1229  	oct	000000034257
    002266  aa   000000 000146    1230  	oct	000000000146
    002267  aa   000000 000003    1231  	oct	000000000003
    002270  aa   000000 000000    1232  	oct	000000000000
    002271  aa   000000 034425    1233  	oct	000000034425
    002272  aa   000000 000056    1234  	oct	000000000056
    002273  aa   000000 000003    1235  	oct	000000000003
    002274  aa   000000 000000    1236  	oct	000000000000
    002275  aa   000000 034503    1237  	oct	000000034503
    002276  aa   000000 000141    1238  	oct	000000000141
    002277  aa   000000 000003    1239  	oct	000000000003
    002300  aa   000000 000000    1240  	oct	000000000000
    002301  aa   000000 000000    1241  	oct	000000000000
    002302  aa   000000 000000    1242  	oct	000000000000
    002303  aa   000000 000000    1243  	oct	000000000000
    002304  aa   000000 000000    1244  	oct	000000000000
    002305  aa   000000 034644    1245  	oct	000000034644
    002306  aa   000000 000036    1246  	oct	000000000036
    002307  aa   000000 000003    1247  	oct	000000000003
    002310  aa   000000 000000    1248  	oct	000000000000
    002311  aa   000000 034702    1249  	oct	000000034702
    002312  aa   000000 000143    1250  	oct	000000000143
    002313  aa   000000 000003    1251  	oct	000000000003
    002314  aa   000000 000000    1252  	oct	000000000000
    002315  aa   000000 035045    1253  	oct	000000035045
    002316  aa   000000 000145    1254  	oct	000000000145
    002317  aa   000000 000003    1255  	oct	000000000003
    002320  aa   000000 000000    1256  	oct	000000000000
    002321  aa   000000 035212    1257  	oct	000000035212
    002322  aa   000000 000136    1258  	oct	000000000136
    002323  aa   000000 000003    1259  	oct	000000000003
    002324  aa   000000 000000    1260  	oct	000000000000
    002325  aa   000000 035350    1261  	oct	000000035350
    002326  aa   000000 000052    1262  	oct	000000000052
    002327  aa   000000 000003    1263  	oct	000000000003
    002330  aa   000000 000000    1264  	oct	000000000000
    002331  aa   000000 035422    1265  	oct	000000035422
    002332  aa   000000 000046    1266  	oct	000000000046
    002333  aa   000000 000003    1267  	oct	000000000003
    002334  aa   000000 000000    1268  	oct	000000000000
    002335  aa   000000 035470    1269  	oct	000000035470
    002336  aa   000000 000043    1270  	oct	000000000043
    002337  aa   000000 000003    1271  	oct	000000000003
    002340  aa   000000 000000    1272  	oct	000000000000
    002341  aa   000000 035533    1273  	oct	000000035533
    002342  aa   000000 000105    1274  	oct	000000000105
    002343  aa   000000 000003    1275  	oct	000000000003
    002344  aa   000000 000000    1276  	oct	000000000000
    002345  aa   000000 035640    1277  	oct	000000035640
    002346  aa   000000 000065    1278  	oct	000000000065
    002347  aa   000000 000003    1279  	oct	000000000003
    002350  aa   000000 000000    1280  	oct	000000000000
    002351  aa   000000 035725    1281  	oct	000000035725
    002352  aa   000000 000140    1282  	oct	000000000140
    002353  aa   000000 000003    1283  	oct	000000000003
    002354  aa   000000 000000    1284  	oct	000000000000
    002355  aa   000000 036065    1285  	oct	000000036065
    002356  aa   000000 000032    1286  	oct	000000000032
    002357  aa   000000 000003    1287  	oct	000000000003
    002360  aa   000000 000000    1288  	oct	000000000000
    002361  aa   000000 036117    1289  	oct	000000036117
    002362  aa   000000 000144    1290  	oct	000000000144
    002363  aa   000000 000003    1291  	oct	000000000003
    002364  aa   000000 000000    1292  	oct	000000000000
    002365  aa   000000 036263    1293  	oct	000000036263
    002366  aa   000000 000123    1294  	oct	000000000123
    002367  aa   000000 000003    1295  	oct	000000000003
    002370  aa   000000 000000    1296  	oct	000000000000
    002371  aa   000000 036406    1297  	oct	000000036406
    002372  aa   000000 000107    1298  	oct	000000000107
    002373  aa   000000 000003    1299  	oct	000000000003
    002374  aa   000000 000000    1300  	oct	000000000000
    002375  aa   000000 036515    1301  	oct	000000036515
    002376  aa   000000 000110    1302  	oct	000000000110
    002377  aa   000000 000002    1303  	oct	000000000002
    002400  aa   000000 000000    1304  	oct	000000000000
    002401  aa   000000 036625    1305  	oct	000000036625
    002402  aa   000000 000047    1306  	oct	000000000047
    002403  aa   000000 000003    1307  	oct	000000000003
    002404  aa   000000 000000    1308  	oct	000000000000
    002405  aa   000000 036674    1309  	oct	000000036674
    002406  aa   000000 000100    1310  	oct	000000000100
    002407  aa   000000 000004    1311  	oct	000000000004
    002410  aa   000000 000000    1312  	oct	000000000000
    002411  aa   000000 036774    1313  	oct	000000036774
    002412  aa   000000 000053    1314  	oct	000000000053
    002413  aa   000000 000002    1315  	oct	000000000002
    002414  aa   000000 000000    1316  	oct	000000000000
    002415  aa   000000 037047    1317  	oct	000000037047
    002416  aa   000000 000052    1318  	oct	000000000052
    002417  aa   000000 000003    1319  	oct	000000000003
    002420  aa   000000 000000    1320  	oct	000000000000
    002421  aa   000000 037121    1321  	oct	000000037121
    002422  aa   000000 000023    1322  	oct	000000000023
    002423  aa   000000 000003    1323  	oct	000000000003
    002424  aa   000000 000000    1324  	oct	000000000000
    002425  aa   000000 037144    1325  	oct	000000037144
    002426  aa   000000 000073    1326  	oct	000000000073
    002427  aa   000000 000003    1327  	oct	000000000003
    002430  aa   000000 000000    1328  	oct	000000000000
    002431  aa   000000 037237    1329  	oct	000000037237
    002432  aa   000000 000100    1330  	oct	000000000100
    002433  aa   000000 000003    1331  	oct	000000000003
    002434  aa   000000 000000    1332  	oct	000000000000
    002435  aa   000000 037337    1333  	oct	000000037337
    002436  aa   000000 000141    1334  	oct	000000000141
    002437  aa   000000 000003    1335  	oct	000000000003
    002440  aa   000000 000000    1336  	oct	000000000000
    002441  aa   000000 037500    1337  	oct	000000037500
    002442  aa   000000 000071    1338  	oct	000000000071
    002443  aa   000000 000003    1339  	oct	000000000003
    002444  aa   000000 000000    1340  	oct	000000000000
    002445  aa   000000 037571    1341  	oct	000000037571
    002446  aa   000000 000107    1342  	oct	000000000107
    002447  aa   000000 000003    1343  	oct	000000000003
    002450  aa   000000 000000    1344  	oct	000000000000
    002451  aa   000000 037700    1345  	oct	000000037700
    002452  aa   000000 000022    1346  	oct	000000000022
    002453  aa   000000 000003    1347  	oct	000000000003
    002454  aa   000000 000000    1348  	oct	000000000000
    002455  aa   000000 037722    1349  	oct	000000037722
    002456  aa   000000 000056    1350  	oct	000000000056
    002457  aa   000000 000003    1351  	oct	000000000003
    002460  aa   000000 000000    1352  	oct	000000000000
    002461  aa   000000 040000    1353  	oct	000000040000
    002462  aa   000000 000056    1354  	oct	000000000056
    002463  aa   000000 000003    1355  	oct	000000000003
    002464  aa   000000 000000    1356  	oct	000000000000
    002465  aa   000000 040056    1357  	oct	000000040056
    002466  aa   000000 000056    1358  	oct	000000000056
    002467  aa   000000 000003    1359  	oct	000000000003
    002470  aa   000000 000000    1360  	oct	000000000000
    002471  aa   000000 040134    1361  	oct	000000040134
    002472  aa   000000 000051    1362  	oct	000000000051
    002473  aa   000000 000003    1363  	oct	000000000003
    002474  aa   000000 000000    1364  	oct	000000000000
    002475  aa   000000 040205    1365  	oct	000000040205
    002476  aa   000000 000047    1366  	oct	000000000047
    002477  aa   000000 000003    1367  	oct	000000000003
    002500  aa   000000 000000    1368  	oct	000000000000
    002501  aa   000000 040254    1369  	oct	000000040254
    002502  aa   000000 000047    1370  	oct	000000000047
    002503  aa   000000 000003    1371  	oct	000000000003
    002504  aa   000000 000000    1372  	oct	000000000000
    002505  aa   000000 040323    1373  	oct	000000040323
    002506  aa   000000 000046    1374  	oct	000000000046
    002507  aa   000000 000003    1375  	oct	000000000003
    002510  aa   000000 000000    1376  	oct	000000000000
    002511  aa   000000 040371    1377  	oct	000000040371
    002512  aa   000000 000042    1378  	oct	000000000042
    002513  aa   000000 000003    1379  	oct	000000000003
    002514  aa   000000 000000    1380  	oct	000000000000
    002515  aa   000000 040433    1381  	oct	000000040433
    002516  aa   000000 000045    1382  	oct	000000000045
    002517  aa   000000 000003    1383  	oct	000000000003
    002520  aa   000000 000000    1384  	oct	000000000000
    002521  aa   000000 040500    1385  	oct	000000040500
    002522  aa   000000 000046    1386  	oct	000000000046
    002523  aa   000000 000003    1387  	oct	000000000003
    002524  aa   000000 000000    1388  	oct	000000000000
    002525  aa   000000 040546    1389  	oct	000000040546
    002526  aa   000000 000052    1390  	oct	000000000052
    002527  aa   000000 000003    1391  	oct	000000000003
    002530  aa   000000 000000    1392  	oct	000000000000
    002531  aa   000000 040620    1393  	oct	000000040620
    002532  aa   000000 000042    1394  	oct	000000000042
    002533  aa   000000 000003    1395  	oct	000000000003
    002534  aa   000000 000000    1396  	oct	000000000000
    002535  aa   000000 040662    1397  	oct	000000040662
    002536  aa   000000 000043    1398  	oct	000000000043
    002537  aa   000000 000003    1399  	oct	000000000003
    002540  aa   000000 000000    1400  	oct	000000000000
    002541  aa   000000 040725    1401  	oct	000000040725
    002542  aa   000000 000105    1402  	oct	000000000105
    002543  aa   000000 000003    1403  	oct	000000000003
    002544  aa   000000 000000    1404  	oct	000000000000
    002545  aa   000000 041032    1405  	oct	000000041032
    002546  aa   000000 000055    1406  	oct	000000000055
    002547  aa   000000 000003    1407  	oct	000000000003
    002550  aa   000000 000000    1408  	oct	000000000000
    002551  aa   000000 041107    1409  	oct	000000041107
    002552  aa   000000 000047    1410  	oct	000000000047
    002553  aa   000000 000003    1411  	oct	000000000003
    002554  aa   000000 000000    1412  	oct	000000000000
    002555  aa   000000 041156    1413  	oct	000000041156
    002556  aa   000000 000046    1414  	oct	000000000046
    002557  aa   000000 000003    1415  	oct	000000000003
    002560  aa   000000 000000    1416  	oct	000000000000
    002561  aa   000000 041224    1417  	oct	000000041224
    002562  aa   000000 000055    1418  	oct	000000000055
    002563  aa   000000 000003    1419  	oct	000000000003
    002564  aa   000000 000000    1420  	oct	000000000000
    002565  aa   000000 041301    1421  	oct	000000041301
    002566  aa   000000 000045    1422  	oct	000000000045
    002567  aa   000000 000003    1423  	oct	000000000003
    002570  aa   000000 000000    1424  	oct	000000000000
    002571  aa   000000 041346    1425  	oct	000000041346
    002572  aa   000000 000060    1426  	oct	000000000060
    002573  aa   000000 000003    1427  	oct	000000000003
    002574  aa   000000 000000    1428  	oct	000000000000
    002575  aa   000000 041426    1429  	oct	000000041426
    002576  aa   000000 000132    1430  	oct	000000000132
    002577  aa   000000 000003    1431  	oct	000000000003
    002600  aa   000000 000000    1432  	oct	000000000000
    002601  aa   000000 041560    1433  	oct	000000041560
    002602  aa   000000 000055    1434  	oct	000000000055
    002603  aa   000000 000003    1435  	oct	000000000003
    002604  aa   000000 000000    1436  	oct	000000000000
    002605  aa   000000 041635    1437  	oct	000000041635
    002606  aa   000000 000047    1438  	oct	000000000047
    002607  aa   000000 000003    1439  	oct	000000000003
    002610  aa   000000 000000    1440  	oct	000000000000
    002611  aa   000000 041704    1441  	oct	000000041704
    002612  aa   000000 000073    1442  	oct	000000000073
    002613  aa   000000 000003    1443  	oct	000000000003
    002614  aa   000000 000000    1444  	oct	000000000000
    002615  aa   000000 041777    1445  	oct	000000041777
    002616  aa   000000 000150    1446  	oct	000000000150
    002617  aa   000000 000003    1447  	oct	000000000003
    002620  aa   000000 000000    1448  	oct	000000000000
    002621  aa   000000 042147    1449  	oct	000000042147
    002622  aa   000000 000067    1450  	oct	000000000067
    002623  aa   000000 000003    1451  	oct	000000000003
    002624  aa   000000 000000    1452  	oct	000000000000
    002625  aa   000000 042236    1453  	oct	000000042236
    002626  aa   000000 000103    1454  	oct	000000000103
    002627  aa   000000 000003    1455  	oct	000000000003
    002630  aa   000000 000000    1456  	oct	000000000000
    002631  aa   000000 042341    1457  	oct	000000042341
    002632  aa   000000 000074    1458  	oct	000000000074
    002633  aa   000000 000003    1459  	oct	000000000003
    002634  aa   000000 000000    1460  	oct	000000000000
    002635  aa   000000 042435    1461  	oct	000000042435
    002636  aa   000000 000104    1462  	oct	000000000104
    002637  aa   000000 000003    1463  	oct	000000000003
    002640  aa   000000 000000    1464  	oct	000000000000
    002641  aa   000000 042541    1465  	oct	000000042541
    002642  aa   000000 000114    1466  	oct	000000000114
    002643  aa   000000 000003    1467  	oct	000000000003
    002644  aa   000000 000000    1468  	oct	000000000000
    002645  aa   000000 042655    1469  	oct	000000042655
    002646  aa   000000 000046    1470  	oct	000000000046
    002647  aa   000000 000003    1471  	oct	000000000003
    002650  aa   000000 000000    1472  	oct	000000000000
    002651  aa   000000 042723    1473  	oct	000000042723
    002652  aa   000000 000112    1474  	oct	000000000112
    002653  aa   000000 000003    1475  	oct	000000000003
    002654  aa   000000 000000    1476  	oct	000000000000
    002655  aa   000000 043035    1477  	oct	000000043035
    002656  aa   000000 000102    1478  	oct	000000000102
    002657  aa   000000 000003    1479  	oct	000000000003
    002660  aa   000000 000000    1480  	oct	000000000000
    002661  aa   000000 043137    1481  	oct	000000043137
    002662  aa   000000 000146    1482  	oct	000000000146
    002663  aa   000000 000003    1483  	oct	000000000003
    002664  aa   000000 000000    1484  	oct	000000000000
    002665  aa   000000 043305    1485  	oct	000000043305
    002666  aa   000000 000056    1486  	oct	000000000056
    002667  aa   000000 000003    1487  	oct	000000000003
    002670  aa   000000 000000    1488  	oct	000000000000
    002671  aa   000000 043363    1489  	oct	000000043363
    002672  aa   000000 000056    1490  	oct	000000000056
    002673  aa   000000 000003    1491  	oct	000000000003
    002674  aa   000000 000000    1492  	oct	000000000000
    002675  aa   000000 043441    1493  	oct	000000043441
    002676  aa   000000 000044    1494  	oct	000000000044
    002677  aa   000000 000003    1495  	oct	000000000003
    002700  aa   000000 000000    1496  	oct	000000000000
    002701  aa   000000 043505    1497  	oct	000000043505
    002702  aa   000000 000054    1498  	oct	000000000054
    002703  aa   000000 000003    1499  	oct	000000000003
    002704  aa   000000 000000    1500  	oct	000000000000
    002705  aa   000000 043561    1501  	oct	000000043561
    002706  aa   000000 000037    1502  	oct	000000000037
    002707  aa   000000 000003    1503  	oct	000000000003
    002710  aa   000000 000000    1504  	oct	000000000000
    002711  aa   000000 043620    1505  	oct	000000043620
    002712  aa   000000 000040    1506  	oct	000000000040
    002713  aa   000000 000003    1507  	oct	000000000003
    002714  aa   000000 000000    1508  	oct	000000000000
    002715  aa   000000 043660    1509  	oct	000000043660
    002716  aa   000000 000051    1510  	oct	000000000051
    002717  aa   000000 000003    1511  	oct	000000000003
    002720  aa   000000 000000    1512  	oct	000000000000
    002721  aa   000000 043731    1513  	oct	000000043731
    002722  aa   000000 000051    1514  	oct	000000000051
    002723  aa   000000 000003    1515  	oct	000000000003
    002724  aa   000000 000000    1516  	oct	000000000000
    002725  aa   000000 044002    1517  	oct	000000044002
    002726  aa   000000 000111    1518  	oct	000000000111
    002727  aa   000000 000003    1519  	oct	000000000003
    002730  aa   000000 000000    1520  	oct	000000000000
    002731  aa   000000 044113    1521  	oct	000000044113
    002732  aa   000000 000065    1522  	oct	000000000065
    002733  aa   000000 000003    1523  	oct	000000000003
    002734  aa   000000 000000    1524  	oct	000000000000
    002735  aa   000000 000000    1525  	oct	000000000000
    002736  aa   000000 000000    1526  	oct	000000000000
    002737  aa   000000 000000    1527  	oct	000000000000
    002740  aa   000000 000000    1528  	oct	000000000000
    002741  aa   000000 044200    1529  	oct	000000044200
    002742  aa   000000 000066    1530  	oct	000000000066
    002743  aa   000000 000002    1531  	oct	000000000002
    002744  aa   000000 000000    1532  	oct	000000000000
    002745  aa   000000 044266    1533  	oct	000000044266
    002746  aa   000000 000101    1534  	oct	000000000101
    002747  aa   000000 000002    1535  	oct	000000000002
    002750  aa   000000 000000    1536  	oct	000000000000
    002751  aa   000000 044367    1537  	oct	000000044367
    002752  aa   000000 000067    1538  	oct	000000000067
    002753  aa   000000 000001    1539  	oct	000000000001
    002754  aa   000000 000000    1540  	oct	000000000000
    002755  aa   000000 044456    1541  	oct	000000044456
    002756  aa   000000 000071    1542  	oct	000000000071
    002757  aa   000000 000001    1543  	oct	000000000001
    002760  aa   000000 000000    1544  	oct	000000000000
    002761  aa   000000 044547    1545  	oct	000000044547
    002762  aa   000000 000030    1546  	oct	000000000030
    002763  aa   000000 000001    1547  	oct	000000000001
    002764  aa   000000 000000    1548  	oct	000000000000
    002765  aa   000000 000000    1549  	oct	000000000000
    002766  aa   000000 000000    1550  	oct	000000000000
    002767  aa   000000 000000    1551  	oct	000000000000
    002770  aa   000000 000000    1552  	oct	000000000000
    002771  aa   000000 044577    1553  	oct	000000044577
    002772  aa   000000 000067    1554  	oct	000000000067
    002773  aa   000000 000001    1555  	oct	000000000001
    002774  aa   000000 000000    1556  	oct	000000000000
    002775  aa   000000 000000    1557  	oct	000000000000
    002776  aa   000000 000000    1558  	oct	000000000000
    002777  aa   000000 000000    1559  	oct	000000000000
    003000  aa   000000 000000    1560  	oct	000000000000
    003001  aa   000000 044666    1561  	oct	000000044666
    003002  aa   000000 000064    1562  	oct	000000000064
    003003  aa   000000 000003    1563  	oct	000000000003
    003004  aa   000000 000000    1564  	oct	000000000000
    003005  aa   000000 044752    1565  	oct	000000044752
    003006  aa   000000 000130    1566  	oct	000000000130
    003007  aa   000000 000003    1567  	oct	000000000003
    003010  aa   000000 000000    1568  	oct	000000000000
    003011  aa   000000 045102    1569  	oct	000000045102
    003012  aa   000000 000035    1570  	oct	000000000035
    003013  aa   000000 000003    1571  	oct	000000000003
    003014  aa   000000 000000    1572  	oct	000000000000
    003015  aa   000000 000000    1573  	oct	000000000000
    003016  aa   000000 000000    1574  	oct	000000000000
    003017  aa   000000 000000    1575  	oct	000000000000
    003020  aa   000000 000000    1576  	oct	000000000000
    003021  aa   000000 045137    1577  	oct	000000045137
    003022  aa   000000 000061    1578  	oct	000000000061
    003023  aa   000000 000003    1579  	oct	000000000003
    003024  aa   000000 000000    1580  	oct	000000000000
    003025  aa   000000 045220    1581  	oct	000000045220
    003026  aa   000000 000145    1582  	oct	000000000145
    003027  aa   000000 000003    1583  	oct	000000000003
    003030  aa   000000 000000    1584  	oct	000000000000
    003031  aa   000000 045365    1585  	oct	000000045365
    003032  aa   000000 000031    1586  	oct	000000000031
    003033  aa   000000 000003    1587  	oct	000000000003
    003034  aa   000000 000000    1588  	oct	000000000000
    003035  aa   000000 045416    1589  	oct	000000045416
    003036  aa   000000 000027    1590  	oct	000000000027
    003037  aa   000000 000003    1591  	oct	000000000003
    003040  aa   000000 000000    1592  	oct	000000000000
    003041  aa   000000 045445    1593  	oct	000000045445
    003042  aa   000000 000107    1594  	oct	000000000107
    003043  aa   000000 000001    1595  	oct	000000000001
    003044  aa   000000 000000    1596  	oct	000000000000
    003045  aa   000000 045554    1597  	oct	000000045554
    003046  aa   000000 000041    1598  	oct	000000000041
    003047  aa   000000 000003    1599  	oct	000000000003
    003050  aa   000000 000000    1600  	oct	000000000000
    003051  aa   000000 000000    1601  	oct	000000000000
    003052  aa   000000 000000    1602  	oct	000000000000
    003053  aa   000000 000000    1603  	oct	000000000000
    003054  aa   000000 000000    1604  	oct	000000000000
    003055  aa   000000 045615    1605  	oct	000000045615
    003056  aa   000000 000136    1606  	oct	000000000136
    003057  aa   000000 000003    1607  	oct	000000000003
    003060  aa   000000 000000    1608  	oct	000000000000
    003061  aa   000000 045753    1609  	oct	000000045753
    003062  aa   000000 000045    1610  	oct	000000000045
    003063  aa   000000 000003    1611  	oct	000000000003
    003064  aa   000000 000000    1612  	oct	000000000000
    003065  aa   000000 046020    1613  	oct	000000046020
    003066  aa   000000 000027    1614  	oct	000000000027
    003067  aa   000000 000003    1615  	oct	000000000003
    003070  aa   000000 000000    1616  	oct	000000000000
    003071  aa   000000 046047    1617  	oct	000000046047
    003072  aa   000000 000025    1618  	oct	000000000025
    003073  aa   000000 000003    1619  	oct	000000000003
    003074  aa   000000 000000    1620  	oct	000000000000
    003075  aa   000000 046074    1621  	oct	000000046074
    003076  aa   000000 000030    1622  	oct	000000000030
    003077  aa   000000 000003    1623  	oct	000000000003
    003100  aa   000000 000000    1624  	oct	000000000000
    003101  aa   000000 046124    1625  	oct	000000046124
    003102  aa   000000 000037    1626  	oct	000000000037
    003103  aa   000000 000003    1627  	oct	000000000003
    003104  aa   000000 000000    1628  	oct	000000000000
    003105  aa   000000 046163    1629  	oct	000000046163
    003106  aa   000000 000064    1630  	oct	000000000064
    003107  aa   000000 000003    1631  	oct	000000000003
    003110  aa   000000 000000    1632  	oct	000000000000
    003111  aa   000000 046247    1633  	oct	000000046247
    003112  aa   000000 000065    1634  	oct	000000000065
    003113  aa   000000 000003    1635  	oct	000000000003
    003114  aa   000000 000000    1636  	oct	000000000000
    003115  aa   000000 000000    1637  	oct	000000000000
    003116  aa   000000 000000    1638  	oct	000000000000
    003117  aa   000000 000000    1639  	oct	000000000000
    003120  aa   000000 000000    1640  	oct	000000000000
    003121  aa   000000 046334    1641  	oct	000000046334
    003122  aa   000000 000031    1642  	oct	000000000031
    003123  aa   000000 000003    1643  	oct	000000000003
    003124  aa   000000 000000    1644  	oct	000000000000
    003125  aa   000000 046365    1645  	oct	000000046365
    003126  aa   000000 000117    1646  	oct	000000000117
    003127  aa   000000 000003    1647  	oct	000000000003
    003130  aa   000000 000000    1648  	oct	000000000000
    003131  aa   000000 046504    1649  	oct	000000046504
    003132  aa   000000 000076    1650  	oct	000000000076
    003133  aa   000000 000001    1651  	oct	000000000001
    003134  aa   000000 000000    1652  	oct	000000000000
    003135  aa   000000 046602    1653  	oct	000000046602
    003136  aa   000000 000102    1654  	oct	000000000102
    003137  aa   000000 000002    1655  	oct	000000000002
    003140  aa   000000 000000    1656  	oct	000000000000
    003141  aa   000000 046704    1657  	oct	000000046704
    003142  aa   000000 000055    1658  	oct	000000000055
    003143  aa   000000 000002    1659  	oct	000000000002
    003144  aa   000000 000000    1660  	oct	000000000000
    003145  aa   000000 046761    1661  	oct	000000046761
    003146  aa   000000 000072    1662  	oct	000000000072
    003147  aa   000000 000001    1663  	oct	000000000001
    003150  aa   000000 000000    1664  	oct	000000000000
    003151  aa   000000 047053    1665  	oct	000000047053
    003152  aa   000000 000102    1666  	oct	000000000102
    003153  aa   000000 000003    1667  	oct	000000000003
    003154  aa   000000 000000    1668  	oct	000000000000
    003155  aa   000000 047155    1669  	oct	000000047155
    003156  aa   000000 000102    1670  	oct	000000000102
    003157  aa   000000 000003    1671  	oct	000000000003
    003160  aa   000000 000000    1672  	oct	000000000000
    003161  aa   000000 047257    1673  	oct	000000047257
    003162  aa   000000 000033    1674  	oct	000000000033
    003163  aa   000000 000003    1675  	oct	000000000003
    003164  aa   000000 000000    1676  	oct	000000000000
    003165  aa   000000 000000    1677  	oct	000000000000
    003166  aa   000000 000000    1678  	oct	000000000000
    003167  aa   000000 000000    1679  	oct	000000000000
    003170  aa   000000 000000    1680  	oct	000000000000
    003171  aa   000000 047312    1681  	oct	000000047312
    003172  aa   000000 000120    1682  	oct	000000000120
    003173  aa   000000 000003    1683  	oct	000000000003
    003174  aa   000000 000000    1684  	oct	000000000000
    003175  aa   000000 047432    1685  	oct	000000047432
    003176  aa   000000 000125    1686  	oct	000000000125
    003177  aa   000000 000002    1687  	oct	000000000002
    003200  aa   000000 000000    1688  	oct	000000000000
    003201  aa   000000 047557    1689  	oct	000000047557
    003202  aa   000000 000134    1690  	oct	000000000134
    003203  aa   000000 000003    1691  	oct	000000000003
    003204  aa   000000 000000    1692  	oct	000000000000
    003205  aa   000000 047713    1693  	oct	000000047713
    003206  aa   000000 000076    1694  	oct	000000000076
    003207  aa   000000 000001    1695  	oct	000000000001
    003210  aa   000000 000000    1696  	oct	000000000000
    003211  aa   000000 050011    1697  	oct	000000050011
    003212  aa   000000 000133    1698  	oct	000000000133
    003213  aa   000000 000002    1699  	oct	000000000002
    003214  aa   000000 000000    1700  	oct	000000000000
    003215  aa   000000 050144    1701  	oct	000000050144
    003216  aa   000000 000153    1702  	oct	000000000153
    003217  aa   000000 000002    1703  	oct	000000000002
    003220  aa   000000 000000    1704  	oct	000000000000
    003221  aa   000000 050317    1705  	oct	000000050317
    003222  aa   000000 000106    1706  	oct	000000000106
    003223  aa   000000 000003    1707  	oct	000000000003
    003224  aa   000000 000000    1708  	oct	000000000000
    003225  aa   000000 050425    1709  	oct	000000050425
    003226  aa   000000 000031    1710  	oct	000000000031
    003227  aa   000000 000004    1711  	oct	000000000004
    003230  aa   000000 000000    1712  	oct	000000000000
    003231  aa   000000 050456    1713  	oct	000000050456
    003232  aa   000000 000032    1714  	oct	000000000032
    003233  aa   000000 000004    1715  	oct	000000000004
    003234  aa   000000 000000    1716  	oct	000000000000
    003235  aa   000000 050510    1717  	oct	000000050510
    003236  aa   000000 000033    1718  	oct	000000000033
    003237  aa   000000 000003    1719  	oct	000000000003
    003240  aa   000000 000000    1720  	oct	000000000000
    003241  aa   000000 050543    1721  	oct	000000050543
    003242  aa   000000 000134    1722  	oct	000000000134
    003243  aa   000000 000001    1723  	oct	000000000001
    003244  aa   000000 000000    1724  	oct	000000000000
    003245  aa   000000 050677    1725  	oct	000000050677
    003246  aa   000000 000070    1726  	oct	000000000070
    003247  aa   000000 000003    1727  	oct	000000000003
    003250  aa   000000 000000    1728  	oct	000000000000
    003251  aa   000000 050767    1729  	oct	000000050767
    003252  aa   000000 000121    1730  	oct	000000000121
    003253  aa   000000 000001    1731  	oct	000000000001
    003254  aa   000000 000000    1732  	oct	000000000000
    003255  aa   000000 051110    1733  	oct	000000051110
    003256  aa   000000 000060    1734  	oct	000000000060
    003257  aa   000000 000003    1735  	oct	000000000003
    003260  aa   000000 000000    1736  	oct	000000000000
    003261  aa   000000 051170    1737  	oct	000000051170
    003262  aa   000000 000100    1738  	oct	000000000100
    003263  aa   000000 000003    1739  	oct	000000000003
    003264  aa   000000 000000    1740  	oct	000000000000
    003265  aa   000000 051270    1741  	oct	000000051270
    003266  aa   000000 000020    1742  	oct	000000000020
    003267  aa   000000 000003    1743  	oct	000000000003
    003270  aa   000000 000000    1744  	oct	000000000000
    003271  aa   000000 051310    1745  	oct	000000051310
    003272  aa   000000 000137    1746  	oct	000000000137
    003273  aa   000000 000001    1747  	oct	000000000001
    003274  aa   000000 000000    1748  	oct	000000000000
    003275  aa   000000 051447    1749  	oct	000000051447
    003276  aa   000000 000104    1750  	oct	000000000104
    003277  aa   000000 000003    1751  	oct	000000000003
    003300  aa   000000 000000    1752  	oct	000000000000
    003301  aa   000000 051553    1753  	oct	000000051553
    003302  aa   000000 000075    1754  	oct	000000000075
    003303  aa   000000 000003    1755  	oct	000000000003
    003304  aa   000000 000000    1756  	oct	000000000000
    003305  aa   000000 051650    1757  	oct	000000051650
    003306  aa   000000 000075    1758  	oct	000000000075
    003307  aa   000000 000002    1759  	oct	000000000002
    003310  aa   000000 000000    1760  	oct	000000000000
    003311  aa   000000 051745    1761  	oct	000000051745
    003312  aa   000000 000027    1762  	oct	000000000027
    003313  aa   000000 000003    1763  	oct	000000000003
    003314  aa   000000 000000    1764  	oct	000000000000
    003315  aa   000000 051774    1765  	oct	000000051774
    003316  aa   000000 000036    1766  	oct	000000000036
    003317  aa   000000 000003    1767  	oct	000000000003
    003320  aa   000000 000000    1768  	oct	000000000000
    003321  aa   000000 052032    1769  	oct	000000052032
    003322  aa   000000 000062    1770  	oct	000000000062
    003323  aa   000000 000002    1771  	oct	000000000002
    003324  aa   000000 000000    1772  	oct	000000000000
    003325  aa   000000 052114    1773  	oct	000000052114
    003326  aa   000000 000076    1774  	oct	000000000076
    003327  aa   000000 000002    1775  	oct	000000000002
    003330  aa   000000 000000    1776  	oct	000000000000
    003331  aa   000000 052212    1777  	oct	000000052212
    003332  aa   000000 000107    1778  	oct	000000000107
    003333  aa   000000 000003    1779  	oct	000000000003
    003334  aa   000000 000000    1780  	oct	000000000000
    003335  aa   000000 052321    1781  	oct	000000052321
    003336  aa   000000 000037    1782  	oct	000000000037
    003337  aa   000000 000003    1783  	oct	000000000003
    003340  aa   000000 000000    1784  	oct	000000000000
    003341  aa   000000 052360    1785  	oct	000000052360
    003342  aa   000000 000055    1786  	oct	000000000055
    003343  aa   000000 000002    1787  	oct	000000000002
    003344  aa   000000 000000    1788  	oct	000000000000
    003345  aa   000000 052435    1789  	oct	000000052435
    003346  aa   000000 000134    1790  	oct	000000000134
    003347  aa   000000 000001    1791  	oct	000000000001
    003350  aa   000000 000000    1792  	oct	000000000000
    003351  aa   000000 052571    1793  	oct	000000052571
    003352  aa   000000 000114    1794  	oct	000000000114
    003353  aa   000000 000002    1795  	oct	000000000002
    003354  aa   000000 000000    1796  	oct	000000000000
    003355  aa   000000 052705    1797  	oct	000000052705
    003356  aa   000000 000130    1798  	oct	000000000130
    003357  aa   000000 000001    1799  	oct	000000000001
    003360  aa   000000 000000    1800  	oct	000000000000
    003361  aa   000000 053035    1801  	oct	000000053035
    003362  aa   000000 000062    1802  	oct	000000000062
    003363  aa   000000 000003    1803  	oct	000000000003
    003364  aa   000000 000000    1804  	oct	000000000000
    003365  aa   000000 053117    1805  	oct	000000053117
    003366  aa   000000 000041    1806  	oct	000000000041
    003367  aa   000000 000001    1807  	oct	000000000001
    003370  aa   000000 000000    1808  	oct	000000000000
    003371  aa   000000 053160    1809  	oct	000000053160
    003372  aa   000000 000073    1810  	oct	000000000073
    003373  aa   000000 000003    1811  	oct	000000000003
    003374  aa   000000 000000    1812  	oct	000000000000
    003375  aa   000000 053253    1813  	oct	000000053253
    003376  aa   000000 000057    1814  	oct	000000000057
    003377  aa   000000 000003    1815  	oct	000000000003
    003400  aa   000000 000000    1816  	oct	000000000000
    003401  aa   000000 053332    1817  	oct	000000053332
    003402  aa   000000 000110    1818  	oct	000000000110
    003403  aa   000000 000002    1819  	oct	000000000002
    003404  aa   000000 000000    1820  	oct	000000000000
    003405  aa   000000 053442    1821  	oct	000000053442
    003406  aa   000000 000066    1822  	oct	000000000066
    003407  aa   000000 000003    1823  	oct	000000000003
    003410  aa   000000 000000    1824  	oct	000000000000
    003411  aa   000000 053530    1825  	oct	000000053530
    003412  aa   000000 000056    1826  	oct	000000000056
    003413  aa   000000 000003    1827  	oct	000000000003
    003414  aa   000000 000000    1828  	oct	000000000000
    003415  aa   000000 053606    1829  	oct	000000053606
    003416  aa   000000 000051    1830  	oct	000000000051
    003417  aa   000000 000003    1831  	oct	000000000003
    003420  aa   000000 000000    1832  	oct	000000000000
    003421  aa   000000 053657    1833  	oct	000000053657
    003422  aa   000000 000051    1834  	oct	000000000051
    003423  aa   000000 000003    1835  	oct	000000000003
    003424  aa   000000 000000    1836  	oct	000000000000
    003425  aa   000000 053730    1837  	oct	000000053730
    003426  aa   000000 000070    1838  	oct	000000000070
    003427  aa   000000 000003    1839  	oct	000000000003
    003430  aa   000000 000000    1840  	oct	000000000000
    003431  aa   000000 054020    1841  	oct	000000054020
    003432  aa   000000 000104    1842  	oct	000000000104
    003433  aa   000000 000003    1843  	oct	000000000003
    003434  aa   000000 000000    1844  	oct	000000000000
    003435  aa   000000 054124    1845  	oct	000000054124
    003436  aa   000000 000104    1846  	oct	000000000104
    003437  aa   000000 000003    1847  	oct	000000000003
    003440  aa   000000 000000    1848  	oct	000000000000
    003441  aa   000000 054230    1849  	oct	000000054230
    003442  aa   000000 000104    1850  	oct	000000000104
    003443  aa   000000 000003    1851  	oct	000000000003
    003444  aa   000000 000000    1852  	oct	000000000000
    003445  aa   000000 054334    1853  	oct	000000054334
    003446  aa   000000 000110    1854  	oct	000000000110
    003447  aa   000000 000003    1855  	oct	000000000003
    003450  aa   000000 000000    1856  	oct	000000000000
    003451  aa   000000 054444    1857  	oct	000000054444
    003452  aa   000000 000110    1858  	oct	000000000110
    003453  aa   000000 000003    1859  	oct	000000000003
    003454  aa   000000 000000    1860  	oct	000000000000
    003455  aa   000000 054554    1861  	oct	000000054554
    003456  aa   000000 000060    1862  	oct	000000000060
    003457  aa   000000 000003    1863  	oct	000000000003
    003460  aa   000000 000000    1864  	oct	000000000000
    003461  aa   000000 054634    1865  	oct	000000054634
    003462  aa   000000 000131    1866  	oct	000000000131
    003463  aa   000000 000003    1867  	oct	000000000003
    003464  aa   000000 000000    1868  	oct	000000000000
    003465  aa   000000 054765    1869  	oct	000000054765
    003466  aa   000000 000125    1870  	oct	000000000125
    003467  aa   000000 000002    1871  	oct	000000000002
    003470  aa   000000 000000    1872  	oct	000000000000
    003471  aa   000000 055112    1873  	oct	000000055112
    003472  aa   000000 000111    1874  	oct	000000000111
    003473  aa   000000 000002    1875  	oct	000000000002
    003474  aa   000000 000000    1876  	oct	000000000000
    003475  aa   000000 055223    1877  	oct	000000055223
    003476  aa   000000 000125    1878  	oct	000000000125
    003477  aa   000000 000002    1879  	oct	000000000002
    003500  aa   000000 000000    1880  	oct	000000000000
    003501  aa   000000 055350    1881  	oct	000000055350
    003502  aa   000000 000125    1882  	oct	000000000125
    003503  aa   000000 000003    1883  	oct	000000000003
    003504  aa   000000 000000    1884  	oct	000000000000
    003505  aa   000000 055475    1885  	oct	000000055475
    003506  aa   000000 000211    1886  	oct	000000000211
    003507  aa   000000 000003    1887  	oct	000000000003
    003510  aa   000000 000000    1888  	oct	000000000000
    003511  aa   000000 055706    1889  	oct	000000055706
    003512  aa   000000 000132    1890  	oct	000000000132
    003513  aa   000000 000003    1891  	oct	000000000003
    003514  aa   000000 000000    1892  	oct	000000000000
    003515  aa   000000 056040    1893  	oct	000000056040
    003516  aa   000000 000110    1894  	oct	000000000110
    003517  aa   000000 000002    1895  	oct	000000000002
    003520  aa   000000 000000    1896  	oct	000000000000
    003521  aa   000000 056150    1897  	oct	000000056150
    003522  aa   000000 000152    1898  	oct	000000000152
    003523  aa   000000 000002    1899  	oct	000000000002
    003524  aa   000000 000000    1900  	oct	000000000000
    003525  aa   000000 056322    1901  	oct	000000056322
    003526  aa   000000 000175    1902  	oct	000000000175
    003527  aa   000000 000002    1903  	oct	000000000002
    003530  aa   000000 000000    1904  	oct	000000000000
    003531  aa   000000 056517    1905  	oct	000000056517
    003532  aa   000000 000136    1906  	oct	000000000136
    003533  aa   000000 000003    1907  	oct	000000000003
    003534  aa   000000 000000    1908  	oct	000000000000
    003535  aa   000000 056655    1909  	oct	000000056655
    003536  aa   000000 000151    1910  	oct	000000000151
    003537  aa   000000 000003    1911  	oct	000000000003
    003540  aa   000000 000000    1912  	oct	000000000000
    003541  aa   000000 057026    1913  	oct	000000057026
    003542  aa   000000 000260    1914  	oct	000000000260
    003543  aa   000000 000003    1915  	oct	000000000003
    003544  aa   000000 000000    1916  	oct	000000000000
    003545  aa   000000 057306    1917  	oct	000000057306
    003546  aa   000000 000202    1918  	oct	000000000202
    003547  aa   000000 000003    1919  	oct	000000000003
    003550  aa   000000 000000    1920  	oct	000000000000
    003551  aa   000000 057510    1921  	oct	000000057510
    003552  aa   000000 000173    1922  	oct	000000000173
    003553  aa   000000 000002    1923  	oct	000000000002
    003554  aa   000000 000000    1924  	oct	000000000000
    003555  aa   000000 057703    1925  	oct	000000057703
    003556  aa   000000 000216    1926  	oct	000000000216
    003557  aa   000000 000002    1927  	oct	000000000002
    003560  aa   000000 000000    1928  	oct	000000000000
    003561  aa   000000 060121    1929  	oct	000000060121
    003562  aa   000000 000066    1930  	oct	000000000066
    003563  aa   000000 000002    1931  	oct	000000000002
    003564  aa   000000 000000    1932  	oct	000000000000
    003565  aa   000000 060207    1933  	oct	000000060207
    003566  aa   000000 000202    1934  	oct	000000000202
    003567  aa   000000 000003    1935  	oct	000000000003
    003570  aa   000000 000000    1936  	oct	000000000000
    003571  aa   000000 060411    1937  	oct	000000060411
    003572  aa   000000 000207    1938  	oct	000000000207
    003573  aa   000000 000003    1939  	oct	000000000003
    003574  aa   000000 000000    1940  	oct	000000000000
    003575  aa   000000 060620    1941  	oct	000000060620
    003576  aa   000000 000164    1942  	oct	000000000164
    003577  aa   000000 000003    1943  	oct	000000000003
    003600  aa   000000 000000    1944  	oct	000000000000
    003601  aa   000000 061004    1945  	oct	000000061004
    003602  aa   000000 000220    1946  	oct	000000000220
    003603  aa   000000 000003    1947  	oct	000000000003
    003604  aa   000000 000000    1948  	oct	000000000000
    003605  aa   000000 061224    1949  	oct	000000061224
    003606  aa   000000 000203    1950  	oct	000000000203
    003607  aa   000000 000003    1951  	oct	000000000003
    003610  aa   000000 000000    1952  	oct	000000000000
    003611  aa   000000 061427    1953  	oct	000000061427
    003612  aa   000000 000143    1954  	oct	000000000143
    003613  aa   000000 000003    1955  	oct	000000000003
    003614  aa   000000 000000    1956  	oct	000000000000
    003615  aa   000000 061572    1957  	oct	000000061572
    003616  aa   000000 000160    1958  	oct	000000000160
    003617  aa   000000 000003    1959  	oct	000000000003
    003620  aa   000000 000000    1960  	oct	000000000000
    003621  aa   000000 061752    1961  	oct	000000061752
    003622  aa   000000 000072    1962  	oct	000000000072
    003623  aa   000000 000003    1963  	oct	000000000003
    003624  aa   000000 000000    1964  	oct	000000000000
    003625  aa   000000 062044    1965  	oct	000000062044
    003626  aa   000000 000116    1966  	oct	000000000116
    003627  aa   000000 000003    1967  	oct	000000000003
    003630  aa   000000 000000    1968  	oct	000000000000
    003631  aa   000000 062162    1969  	oct	000000062162
    003632  aa   000000 000122    1970  	oct	000000000122
    003633  aa   000000 000003    1971  	oct	000000000003
    003634  aa   000000 000000    1972  	oct	000000000000
    003635  aa   000000 062304    1973  	oct	000000062304
    003636  aa   000000 000115    1974  	oct	000000000115
    003637  aa   000000 000003    1975  	oct	000000000003
    003640  aa   000000 000000    1976  	oct	000000000000
    003641  aa   000000 062421    1977  	oct	000000062421
    003642  aa   000000 000114    1978  	oct	000000000114
    003643  aa   000000 000003    1979  	oct	000000000003
    003644  aa   000000 000000    1980  	oct	000000000000
    003645  aa   000000 062535    1981  	oct	000000062535
    003646  aa   000000 000152    1982  	oct	000000000152
    003647  aa   000000 000003    1983  	oct	000000000003
    003650  aa   000000 000000    1984  	oct	000000000000
    003651  aa   000000 062707    1985  	oct	000000062707
    003652  aa   000000 000064    1986  	oct	000000000064
    003653  aa   000000 000003    1987  	oct	000000000003
    003654  aa   000000 000000    1988  	oct	000000000000
    003655  aa   000000 062773    1989  	oct	000000062773
    003656  aa   000000 000224    1990  	oct	000000000224
    003657  aa   000000 000003    1991  	oct	000000000003
    003660  aa   000000 000000    1992  	oct	000000000000
    003661  aa   000000 063217    1993  	oct	000000063217
    003662  aa   000000 000037    1994  	oct	000000000037
    003663  aa   000000 000003    1995  	oct	000000000003
    003664  aa   000000 000000    1996  	oct	000000000000
    003665  aa   000000 063256    1997  	oct	000000063256
    003666  aa   000000 000266    1998  	oct	000000000266
    003667  aa   000000 000003    1999  	oct	000000000003
    003670  aa   000000 000000    2000  	oct	000000000000
    003671  aa   000000 063544    2001  	oct	000000063544
    003672  aa   000000 000051    2002  	oct	000000000051
    003673  aa   000000 000003    2003  	oct	000000000003
    003674  aa   000000 000000    2004  	oct	000000000000
    003675  aa   000000 063615    2005  	oct	000000063615
    003676  aa   000000 000215    2006  	oct	000000000215
    003677  aa   000000 000003    2007  	oct	000000000003
    003700  aa   000000 000000    2008  	oct	000000000000
    003701  aa   000000 064032    2009  	oct	000000064032
    003702  aa   000000 000077    2010  	oct	000000000077
    003703  aa   000000 000003    2011  	oct	000000000003
    003704  aa   000000 000000    2012  	oct	000000000000
    003705  aa   000000 064131    2013  	oct	000000064131
    003706  aa   000000 000064    2014  	oct	000000000064
    003707  aa   000000 000002    2015  	oct	000000000002
    003710  aa   000000 000000    2016  	oct	000000000000
    003711  aa   000000 064215    2017  	oct	000000064215
    003712  aa   000000 000205    2018  	oct	000000000205
    003713  aa   000000 000003    2019  	oct	000000000003
    003714  aa   000000 000000    2020  	oct	000000000000
    003715  aa   000000 064422    2021  	oct	000000064422
    003716  aa   000000 000074    2022  	oct	000000000074
    003717  aa   000000 000003    2023  	oct	000000000003
    003720  aa   000000 000000    2024  	oct	000000000000
    003721  aa   000000 064516    2025  	oct	000000064516
    003722  aa   000000 000142    2026  	oct	000000000142
    003723  aa   000000 000003    2027  	oct	000000000003
    003724  aa   000000 000000    2028  	oct	000000000000
    003725  aa   000000 064660    2029  	oct	000000064660
    003726  aa   000000 000134    2030  	oct	000000000134
    003727  aa   000000 000003    2031  	oct	000000000003
    003730  aa   000000 000000    2032  	oct	000000000000
    003731  aa   000000 065014    2033  	oct	000000065014
    003732  aa   000000 000102    2034  	oct	000000000102
    003733  aa   000000 000003    2035  	oct	000000000003
    003734  aa   000000 000000    2036  	oct	000000000000
    003735  aa   000000 065116    2037  	oct	000000065116
    003736  aa   000000 000136    2038  	oct	000000000136
    003737  aa   000000 000003    2039  	oct	000000000003
    003740  aa   000000 000000    2040  	oct	000000000000
    003741  aa   000000 065254    2041  	oct	000000065254
    003742  aa   000000 000215    2042  	oct	000000000215
    003743  aa   000000 000003    2043  	oct	000000000003
    003744  aa   000000 000000    2044  	oct	000000000000
    003745  aa   000000 065471    2045  	oct	000000065471
    003746  aa   000000 000210    2046  	oct	000000000210
    003747  aa   000000 000003    2047  	oct	000000000003
    003750  aa   000000 000000    2048  	oct	000000000000
    003751  aa   000000 065701    2049  	oct	000000065701
    003752  aa   000000 000214    2050  	oct	000000000214
    003753  aa   000000 000003    2051  	oct	000000000003
    003754  aa   000000 000000    2052  	oct	000000000000
    003755  aa   000000 066115    2053  	oct	000000066115
    003756  aa   000000 000144    2054  	oct	000000000144
    003757  aa   000000 000003    2055  	oct	000000000003
    003760  aa   000000 000000    2056  	oct	000000000000
    003761  aa   000000 066261    2057  	oct	000000066261
    003762  aa   000000 000160    2058  	oct	000000000160
    003763  aa   000000 000003    2059  	oct	000000000003
    003764  aa   000000 000000    2060  	oct	000000000000
    003765  aa   000000 066441    2061  	oct	000000066441
    003766  aa   000000 000101    2062  	oct	000000000101
    003767  aa   000000 000003    2063  	oct	000000000003
    003770  aa   000000 000000    2064  	oct	000000000000
    003771  aa   000000 066542    2065  	oct	000000066542
    003772  aa   000000 000134    2066  	oct	000000000134
    003773  aa   000000 000003    2067  	oct	000000000003
    003774  aa   000000 000000    2068  	oct	000000000000
    003775  aa   000000 066676    2069  	oct	000000066676
    003776  aa   000000 000044    2070  	oct	000000000044
    003777  aa   000000 000003    2071  	oct	000000000003
    004000  aa   000000 000000    2072  	oct	000000000000
    004001  aa   000000 066742    2073  	oct	000000066742
    004002  aa   000000 000113    2074  	oct	000000000113
    004003  aa   000000 000003    2075  	oct	000000000003
    004004  aa   000000 000000    2076  	oct	000000000000
    004005  aa   000000 067055    2077  	oct	000000067055
    004006  aa   000000 000072    2078  	oct	000000000072
    004007  aa   000000 000003    2079  	oct	000000000003
    004010  aa   000000 000000    2080  	oct	000000000000
    004011  aa   000000 067147    2081  	oct	000000067147
    004012  aa   000000 000141    2082  	oct	000000000141
    004013  aa   000000 000003    2083  	oct	000000000003
    004014  aa   000000 000000    2084  	oct	000000000000
    004015  aa   000000 067310    2085  	oct	000000067310
    004016  aa   000000 000126    2086  	oct	000000000126
    004017  aa   000000 000003    2087  	oct	000000000003
    004020  aa   000000 000000    2088  	oct	000000000000
    004021  aa   000000 067436    2089  	oct	000000067436
    004022  aa   000000 000106    2090  	oct	000000000106
    004023  aa   000000 000003    2091  	oct	000000000003
    004024  aa   000000 000000    2092  	oct	000000000000
    004025  aa   000000 067544    2093  	oct	000000067544
    004026  aa   000000 000066    2094  	oct	000000000066
    004027  aa   000000 000003    2095  	oct	000000000003
    004030  aa   000000 000000    2096  	oct	000000000000
    004031  aa   000000 067632    2097  	oct	000000067632
    004032  aa   000000 000073    2098  	oct	000000000073
    004033  aa   000000 000003    2099  	oct	000000000003
    004034  aa   000000 000000    2100  	oct	000000000000
    004035  aa   000000 067725    2101  	oct	000000067725
    004036  aa   000000 000133    2102  	oct	000000000133
    004037  aa   000000 000002    2103  	oct	000000000002
    004040  aa   000000 000000    2104  	oct	000000000000
    004041  aa   000000 070060    2105  	oct	000000070060
    004042  aa   000000 000172    2106  	oct	000000000172
    004043  aa   000000 000002    2107  	oct	000000000002
    004044  aa   000000 000000    2108  	oct	000000000000
    004045  aa   000000 070252    2109  	oct	000000070252
    004046  aa   000000 000127    2110  	oct	000000000127
    004047  aa   000000 000003    2111  	oct	000000000003
    004050  aa   000000 000000    2112  	oct	000000000000
    004051  aa   000000 070401    2113  	oct	000000070401
    004052  aa   000000 000073    2114  	oct	000000000073
    004053  aa   000000 000002    2115  	oct	000000000002
    004054  aa   000000 000000    2116  	oct	000000000000
    004055  aa   000000 070474    2117  	oct	000000070474
    004056  aa   000000 000114    2118  	oct	000000000114
    004057  aa   000000 000003    2119  	oct	000000000003
    004060  aa   000000 000000    2120  	oct	000000000000
    004061  aa   000000 070610    2121  	oct	000000070610
    004062  aa   000000 000112    2122  	oct	000000000112
    004063  aa   000000 000002    2123  	oct	000000000002
    004064  aa   000000 000000    2124  	oct	000000000000
    004065  aa   000000 070722    2125  	oct	000000070722
    004066  aa   000000 000160    2126  	oct	000000000160
    004067  aa   000000 000002    2127  	oct	000000000002
    004070  aa   000000 000000    2128  	oct	000000000000
    004071  aa   000000 071102    2129  	oct	000000071102
    004072  aa   000000 000136    2130  	oct	000000000136
    004073  aa   000000 000002    2131  	oct	000000000002
    004074  aa   000000 000000    2132  	oct	000000000000
    004075  aa   000000 071240    2133  	oct	000000071240
    004076  aa   000000 000152    2134  	oct	000000000152
    004077  aa   000000 000002    2135  	oct	000000000002
    004100  aa   000000 000000    2136  	oct	000000000000
    004101  aa   000000 071412    2137  	oct	000000071412
    004102  aa   000000 000160    2138  	oct	000000000160
    004103  aa   000000 000002    2139  	oct	000000000002
    004104  aa   000000 000000    2140  	oct	000000000000
    004105  aa   000000 071572    2141  	oct	000000071572
    004106  aa   000000 000212    2142  	oct	000000000212
    004107  aa   000000 000003    2143  	oct	000000000003
    004110  aa   000000 000000    2144  	oct	000000000000
    004111  aa   000000 072004    2145  	oct	000000072004
    004112  aa   000000 000114    2146  	oct	000000000114
    004113  aa   000000 000003    2147  	oct	000000000003
    004114  aa   000000 000000    2148  	oct	000000000000
    004115  aa   000000 072120    2149  	oct	000000072120
    004116  aa   000000 000107    2150  	oct	000000000107
    004117  aa   000000 000003    2151  	oct	000000000003
    004120  aa   000000 000000    2152  	oct	000000000000
    004121  aa   000000 072227    2153  	oct	000000072227
    004122  aa   000000 000143    2154  	oct	000000000143
    004123  aa   000000 000003    2155  	oct	000000000003
    004124  aa   000000 000000    2156  	oct	000000000000
    004125  aa   000000 072372    2157  	oct	000000072372
    004126  aa   000000 000223    2158  	oct	000000000223
    004127  aa   000000 000003    2159  	oct	000000000003
    004130  aa   000000 000000    2160  	oct	000000000000
    004131  aa   000000 072615    2161  	oct	000000072615
    004132  aa   000000 000113    2162  	oct	000000000113
    004133  aa   000000 000003    2163  	oct	000000000003
    004134  aa   000000 000000    2164  	oct	000000000000
    004135  aa   000000 072730    2165  	oct	000000072730
    004136  aa   000000 000103    2166  	oct	000000000103
    004137  aa   000000 000003    2167  	oct	000000000003
    004140  aa   000000 000000    2168  	oct	000000000000
    004141  aa   000000 073033    2169  	oct	000000073033
    004142  aa   000000 000204    2170  	oct	000000000204
    004143  aa   000000 000003    2171  	oct	000000000003
    004144  aa   000000 000000    2172  	oct	000000000000
    004145  aa   000000 073237    2173  	oct	000000073237
    004146  aa   000000 000162    2174  	oct	000000000162
    004147  aa   000000 000003    2175  	oct	000000000003
    004150  aa   000000 000000    2176  	oct	000000000000
    004151  aa   000000 073421    2177  	oct	000000073421
    004152  aa   000000 000330    2178  	oct	000000000330
    004153  aa   000000 000003    2179  	oct	000000000003
    004154  aa   000000 000000    2180  	oct	000000000000
    004155  aa   000000 073751    2181  	oct	000000073751
    004156  aa   000000 000220    2182  	oct	000000000220
    004157  aa   000000 000003    2183  	oct	000000000003
    004160  aa   000000 000000    2184  	oct	000000000000
    004161  aa   000000 074171    2185  	oct	000000074171
    004162  aa   000000 000236    2186  	oct	000000000236
    004163  aa   000000 000003    2187  	oct	000000000003
    004164  aa   000000 000000    2188  	oct	000000000000
    004165  aa   000000 074427    2189  	oct	000000074427
    004166  aa   000000 000171    2190  	oct	000000000171
    004167  aa   000000 000003    2191  	oct	000000000003
    004170  aa   000000 000000    2192  	oct	000000000000
    004171  aa   000000 074620    2193  	oct	000000074620
    004172  aa   000000 000254    2194  	oct	000000000254
    004173  aa   000000 000003    2195  	oct	000000000003
    004174  aa   000000 000000    2196  	oct	000000000000
    004175  aa   000000 075074    2197  	oct	000000075074
    004176  aa   000000 000207    2198  	oct	000000000207
    004177  aa   000000 000003    2199  	oct	000000000003
    004200  aa   000000 000000    2200  	oct	000000000000
    004201  aa   000000 075303    2201  	oct	000000075303
    004202  aa   000000 000225    2202  	oct	000000000225
    004203  aa   000000 000003    2203  	oct	000000000003
    004204  aa   000000 000000    2204  	oct	000000000000
    004205  aa   000000 075530    2205  	oct	000000075530
    004206  aa   000000 000220    2206  	oct	000000000220
    004207  aa   000000 000003    2207  	oct	000000000003
    004210  aa   000000 000000    2208  	oct	000000000000
    004211  aa   000000 075750    2209  	oct	000000075750
    004212  aa   000000 000160    2210  	oct	000000000160
    004213  aa   000000 000003    2211  	oct	000000000003
    004214  aa   000000 000000    2212  	oct	000000000000
    004215  aa   000000 076130    2213  	oct	000000076130
    004216  aa   000000 000262    2214  	oct	000000000262
    004217  aa   000000 000003    2215  	oct	000000000003
    004220  aa   000000 000000    2216  	oct	000000000000
    004221  aa   000000 076412    2217  	oct	000000076412
    004222  aa   000000 000222    2218  	oct	000000000222
    004223  aa   000000 000003    2219  	oct	000000000003
    004224  aa   000000 000000    2220  	oct	000000000000
    004225  aa   000000 076634    2221  	oct	000000076634
    004226  aa   000000 000211    2222  	oct	000000000211
    004227  aa   000000 000003    2223  	oct	000000000003
    004230  aa   000000 000000    2224  	oct	000000000000
    004231  aa   000000 077045    2225  	oct	000000077045
    004232  aa   000000 000162    2226  	oct	000000000162
    004233  aa   000000 000003    2227  	oct	000000000003
    004234  aa   000000 000000    2228  	oct	000000000000
    004235  aa   000000 077227    2229  	oct	000000077227
    004236  aa   000000 000202    2230  	oct	000000000202
    004237  aa   000000 000003    2231  	oct	000000000003
    004240  aa   000000 000000    2232  	oct	000000000000
    004241  aa   000000 077431    2233  	oct	000000077431
    004242  aa   000000 000136    2234  	oct	000000000136
    004243  aa   000000 000003    2235  	oct	000000000003
    004244  aa   000000 000000    2236  	oct	000000000000
    004245  aa   000000 077567    2237  	oct	000000077567
    004246  aa   000000 000302    2238  	oct	000000000302
    004247  aa   000000 000003    2239  	oct	000000000003
    004250  aa   000000 000000    2240  	oct	000000000000
    004251  aa   000000 100071    2241  	oct	000000100071
    004252  aa   000000 000206    2242  	oct	000000000206
    004253  aa   000000 000003    2243  	oct	000000000003
    004254  aa   000000 000000    2244  	oct	000000000000
    004255  aa   000000 100277    2245  	oct	000000100277
    004256  aa   000000 000204    2246  	oct	000000000204
    004257  aa   000000 000003    2247  	oct	000000000003
    004260  aa   000000 000000    2248  	oct	000000000000
    004261  aa   000000 100503    2249  	oct	000000100503
    004262  aa   000000 000211    2250  	oct	000000000211
    004263  aa   000000 000003    2251  	oct	000000000003
    004264  aa   000000 000000    2252  	oct	000000000000
    004265  aa   000000 100714    2253  	oct	000000100714
    004266  aa   000000 000244    2254  	oct	000000000244
    004267  aa   000000 000003    2255  	oct	000000000003
    004270  aa   000000 000000    2256  	oct	000000000000
    004271  aa   000000 101160    2257  	oct	000000101160
    004272  aa   000000 000216    2258  	oct	000000000216
    004273  aa   000000 000003    2259  	oct	000000000003
    004274  aa   000000 000000    2260  	oct	000000000000
    004275  aa   000000 101376    2261  	oct	000000101376
    004276  aa   000000 000024    2262  	oct	000000000024
    004277  aa   000000 000003    2263  	oct	000000000003
    004300  aa   000000 000000    2264  	oct	000000000000
    004301  aa   000000 101422    2265  	oct	000000101422
    004302  aa   000000 000032    2266  	oct	000000000032
    004303  aa   000000 000003    2267  	oct	000000000003
    004304  aa   000000 000000    2268  	oct	000000000000
    004305  aa   000000 101454    2269  	oct	000000101454
    004306  aa   000000 000024    2270  	oct	000000000024
    004307  aa   000000 000003    2271  	oct	000000000003
    004310  aa   000000 000000    2272  	oct	000000000000
    004311  aa   000000 101500    2273  	oct	000000101500
    004312  aa   000000 000025    2274  	oct	000000000025
    004313  aa   000000 000003    2275  	oct	000000000003
    004314  aa   000000 000000    2276  	oct	000000000000
    004315  aa   000000 101525    2277  	oct	000000101525
    004316  aa   000000 000037    2278  	oct	000000000037
    004317  aa   000000 000003    2279  	oct	000000000003
    004320  aa   000000 000000    2280  	oct	000000000000
    004321  aa   000000 101564    2281  	oct	000000101564
    004322  aa   000000 000036    2282  	oct	000000000036
    004323  aa   000000 000003    2283  	oct	000000000003
    004324  aa   000000 000000    2284  	oct	000000000000
    004325  aa   000000 101622    2285  	oct	000000101622
    004326  aa   000000 000037    2286  	oct	000000000037
    004327  aa   000000 000003    2287  	oct	000000000003
    004330  aa   000000 000000    2288  	oct	000000000000
    004331  aa   000000 101661    2289  	oct	000000101661
    004332  aa   000000 000026    2290  	oct	000000000026
    004333  aa   000000 000003    2291  	oct	000000000003
    004334  aa   000000 000000    2292  	oct	000000000000
    004335  aa   000000 101707    2293  	oct	000000101707
    004336  aa   000000 000027    2294  	oct	000000000027
    004337  aa   000000 000003    2295  	oct	000000000003
    004340  aa   000000 000000    2296  	oct	000000000000
    004341  aa   000000 101736    2297  	oct	000000101736
    004342  aa   000000 000026    2298  	oct	000000000026
    004343  aa   000000 000003    2299  	oct	000000000003
    004344  aa   000000 000000    2300  	oct	000000000000
    004345  aa   000000 101764    2301  	oct	000000101764
    004346  aa   000000 000025    2302  	oct	000000000025
    004347  aa   000000 000003    2303  	oct	000000000003
    004350  aa   000000 000000    2304  	oct	000000000000
    004351  aa   000000 102011    2305  	oct	000000102011
    004352  aa   000000 000023    2306  	oct	000000000023
    004353  aa   000000 000003    2307  	oct	000000000003
    004354  aa   000000 000000    2308  	oct	000000000000
    004355  aa   000000 102034    2309  	oct	000000102034
    004356  aa   000000 000024    2310  	oct	000000000024
    004357  aa   000000 000003    2311  	oct	000000000003
    004360  aa   000000 000000    2312  	oct	000000000000
    004361  aa   000000 102060    2313  	oct	000000102060
    004362  aa   000000 000024    2314  	oct	000000000024
    004363  aa   000000 000003    2315  	oct	000000000003
    004364  aa   000000 000000    2316  	oct	000000000000
    004365  aa   000000 102104    2317  	oct	000000102104
    004366  aa   000000 000030    2318  	oct	000000000030
    004367  aa   000000 000003    2319  	oct	000000000003
    004370  aa   000000 000000    2320  	oct	000000000000
    004371  aa   000000 102134    2321  	oct	000000102134
    004372  aa   000000 000024    2322  	oct	000000000024
    004373  aa   000000 000003    2323  	oct	000000000003
    004374  aa   000000 000000    2324  	oct	000000000000
    004375  aa   000000 102160    2325  	oct	000000102160
    004376  aa   000000 000036    2326  	oct	000000000036
    004377  aa   000000 000003    2327  	oct	000000000003
    004400  aa   000000 000000    2328  	oct	000000000000
    004401  aa   000000 102216    2329  	oct	000000102216
    004402  aa   000000 000055    2330  	oct	000000000055
    004403  aa   000000 000003    2331  	oct	000000000003
    004404  aa   000000 000000    2332  	oct	000000000000
    004405  aa   000000 102273    2333  	oct	000000102273
    004406  aa   000000 000063    2334  	oct	000000000063
    004407  aa   000000 000003    2335  	oct	000000000003
    004410  aa   000000 000000    2336  	oct	000000000000
    004411  aa   000000 102356    2337  	oct	000000102356
    004412  aa   000000 000123    2338  	oct	000000000123
    004413  aa   000000 000002    2339  	oct	000000000002
    004414  aa   000000 000000    2340  	oct	000000000000
    004415  aa   000000 102501    2341  	oct	000000102501
    004416  aa   000000 000033    2342  	oct	000000000033
    004417  aa   000000 000003    2343  	oct	000000000003
    004420  aa   000000 000000    2344  	oct	000000000000
    004421  aa   000000 102534    2345  	oct	000000102534
    004422  aa   000000 000032    2346  	oct	000000000032
    004423  aa   000000 000003    2347  	oct	000000000003
    004424  aa   000000 000000    2348  	oct	000000000000
    004425  aa   000000 102566    2349  	oct	000000102566
    004426  aa   000000 000043    2350  	oct	000000000043
    004427  aa   000000 000003    2351  	oct	000000000003
    004430  aa   000000 000000    2352  	oct	000000000000
    004431  aa   000000 102631    2353  	oct	000000102631
    004432  aa   000000 000067    2354  	oct	000000000067
    004433  aa   000000 000003    2355  	oct	000000000003
    004434  aa   000000 000000    2356  	oct	000000000000
    004435  aa   000000 102720    2357  	oct	000000102720
    004436  aa   000000 000107    2358  	oct	000000000107
    004437  aa   000000 000003    2359  	oct	000000000003
    004440  aa   000000 000000    2360  	oct	000000000000
    004441  aa   000000 103027    2361  	oct	000000103027
    004442  aa   000000 000131    2362  	oct	000000000131
    004443  aa   000000 000001    2363  	oct	000000000001
    004444  aa   000000 000000    2364  	oct	000000000000
    004445  aa   000000 103160    2365  	oct	000000103160
    004446  aa   000000 000046    2366  	oct	000000000046
    004447  aa   000000 000002    2367  	oct	000000000002
    004450  aa   000000 000000    2368  	oct	000000000000
    004451  aa   000000 103226    2369  	oct	000000103226
    004452  aa   000000 000042    2370  	oct	000000000042
    004453  aa   000000 000003    2371  	oct	000000000003
    004454  aa   000000 000000    2372  	oct	000000000000
    004455  aa   000000 103270    2373  	oct	000000103270
    004456  aa   000000 000025    2374  	oct	000000000025
    004457  aa   000000 000003    2375  	oct	000000000003
    004460  aa   000000 000000    2376  	oct	000000000000
    004461  aa   000000 103315    2377  	oct	000000103315
    004462  aa   000000 000057    2378  	oct	000000000057
    004463  aa   000000 000003    2379  	oct	000000000003
    004464  aa   000000 000000    2380  	oct	000000000000
    004465  aa   000000 103374    2381  	oct	000000103374
    004466  aa   000000 000074    2382  	oct	000000000074
    004467  aa   000000 000003    2383  	oct	000000000003
    004470  aa   000000 000000    2384  	oct	000000000000
    004471  aa   000000 103470    2385  	oct	000000103470
    004472  aa   000000 000037    2386  	oct	000000000037
    004473  aa   000000 000003    2387  	oct	000000000003
    004474  aa   000000 000000    2388  	oct	000000000000
    004475  aa   000000 103527    2389  	oct	000000103527
    004476  aa   000000 000027    2390  	oct	000000000027
    004477  aa   000000 000003    2391  	oct	000000000003
    004500  aa   000000 000000    2392  	oct	000000000000
    004501  aa   000000 103556    2393  	oct	000000103556
    004502  aa   000000 000066    2394  	oct	000000000066
    004503  aa   000000 000003    2395  	oct	000000000003
    004504  aa   000000 000000    2396  	oct	000000000000
    004505  aa   000000 103644    2397  	oct	000000103644
    004506  aa   000000 000035    2398  	oct	000000000035
    004507  aa   000000 000003    2399  	oct	000000000003
    004510  aa   000000 000000    2400  	oct	000000000000
    004511  aa   000000 103701    2401  	oct	000000103701
    004512  aa   000000 000042    2402  	oct	000000000042
    004513  aa   000000 000003    2403  	oct	000000000003
    004514  aa   000000 000000    2404  	oct	000000000000
    004515  aa   000000 103743    2405  	oct	000000103743
    004516  aa   000000 000041    2406  	oct	000000000041
    004517  aa   000000 000003    2407  	oct	000000000003
    004520  aa   000000 000000    2408  	oct	000000000000
    004521  aa   000000 104004    2409  	oct	000000104004
    004522  aa   000000 000123    2410  	oct	000000000123
    004523  aa   000000 000003    2411  	oct	000000000003
    004524  aa   000000 000000    2412  	oct	000000000000
    004525  aa   000000 104127    2413  	oct	000000104127
    004526  aa   000000 000101    2414  	oct	000000000101
    004527  aa   000000 000003    2415  	oct	000000000003
    004530  aa   000000 000000    2416  	oct	000000000000
    004531  aa   000000 104230    2417  	oct	000000104230
    004532  aa   000000 000061    2418  	oct	000000000061
    004533  aa   000000 000003    2419  	oct	000000000003
    004534  aa   000000 000000    2420  	oct	000000000000
    004535  aa   000000 104311    2421  	oct	000000104311
    004536  aa   000000 000032    2422  	oct	000000000032
    004537  aa   000000 000003    2423  	oct	000000000003
    004540  aa   000000 000000    2424  	oct	000000000000
    004541  aa   000000 104343    2425  	oct	000000104343
    004542  aa   000000 000054    2426  	oct	000000000054
    004543  aa   000000 000003    2427  	oct	000000000003
    004544  aa   000000 000000    2428  	oct	000000000000
    004545  aa   000000 104417    2429  	oct	000000104417
    004546  aa   000000 000110    2430  	oct	000000000110
    004547  aa   000000 000003    2431  	oct	000000000003
    004550  aa   000000 000000    2432  	oct	000000000000
    004551  aa   000000 104527    2433  	oct	000000104527
    004552  aa   000000 000054    2434  	oct	000000000054
    004553  aa   000000 000003    2435  	oct	000000000003
    004554  aa   000000 000000    2436  	oct	000000000000
    004555  aa   000000 104603    2437  	oct	000000104603
    004556  aa   000000 000105    2438  	oct	000000000105
    004557  aa   000000 000003    2439  	oct	000000000003
    004560  aa   000000 000000    2440  	oct	000000000000
    004561  aa   000000 104710    2441  	oct	000000104710
    004562  aa   000000 000076    2442  	oct	000000000076
    004563  aa   000000 000003    2443  	oct	000000000003
    004564  aa   000000 000000    2444  	oct	000000000000
    004565  aa   000000 105006    2445  	oct	000000105006
    004566  aa   000000 000050    2446  	oct	000000000050
    004567  aa   000000 000003    2447  	oct	000000000003
    004570  aa   000000 000000    2448  	oct	000000000000
    004571  aa   000000 105056    2449  	oct	000000105056
    004572  aa   000000 000030    2450  	oct	000000000030
    004573  aa   000000 000003    2451  	oct	000000000003
    004574  aa   000000 000000    2452  	oct	000000000000
    004575  aa   000000 105106    2453  	oct	000000105106
    004576  aa   000000 000057    2454  	oct	000000000057
    004577  aa   000000 000003    2455  	oct	000000000003
    004600  aa   000000 000000    2456  	oct	000000000000
    004601  aa   000000 105165    2457  	oct	000000105165
    004602  aa   000000 000047    2458  	oct	000000000047
    004603  aa   000000 000003    2459  	oct	000000000003
    004604  aa   000000 000000    2460  	oct	000000000000
    004605  aa   000000 105234    2461  	oct	000000105234
    004606  aa   000000 000041    2462  	oct	000000000041
    004607  aa   000000 000003    2463  	oct	000000000003
    004610  aa   000000 000000    2464  	oct	000000000000
    004611  aa   000000 105275    2465  	oct	000000105275
    004612  aa   000000 000026    2466  	oct	000000000026
    004613  aa   000000 000003    2467  	oct	000000000003
    004614  aa   000000 000000    2468  	oct	000000000000
    004615  aa   000000 105323    2469  	oct	000000105323
    004616  aa   000000 000050    2470  	oct	000000000050
    004617  aa   000000 000003    2471  	oct	000000000003
    004620  aa   000000 000000    2472  	oct	000000000000
    004621  aa   000000 105373    2473  	oct	000000105373
    004622  aa   000000 000045    2474  	oct	000000000045
    004623  aa   000000 000003    2475  	oct	000000000003
    004624  aa   000000 000000    2476  	oct	000000000000
    004625  aa   000000 105440    2477  	oct	000000105440
    004626  aa   000000 000036    2478  	oct	000000000036
    004627  aa   000000 000003    2479  	oct	000000000003
    004630  aa   000000 000000    2480  	oct	000000000000
    004631  aa   000000 105476    2481  	oct	000000105476
    004632  aa   000000 000035    2482  	oct	000000000035
    004633  aa   000000 000003    2483  	oct	000000000003
    004634  aa   000000 000000    2484  	oct	000000000000
    004635  aa   000000 105533    2485  	oct	000000105533
    004636  aa   000000 000031    2486  	oct	000000000031
    004637  aa   000000 000003    2487  	oct	000000000003
    004640  aa   000000 000000    2488  	oct	000000000000
    004641  aa   000000 105564    2489  	oct	000000105564
    004642  aa   000000 000062    2490  	oct	000000000062
    004643  aa   000000 000003    2491  	oct	000000000003
    004644  aa   000000 000000    2492  	oct	000000000000
    004645  aa   000000 105646    2493  	oct	000000105646
    004646  aa   000000 000045    2494  	oct	000000000045
    004647  aa   000000 000003    2495  	oct	000000000003
    004650  aa   000000 000000    2496  	oct	000000000000
    004651  aa   000000 105713    2497  	oct	000000105713
    004652  aa   000000 000031    2498  	oct	000000000031
    004653  aa   000000 000003    2499  	oct	000000000003
    004654  aa   000000 000000    2500  	oct	000000000000
    004655  aa   000000 105744    2501  	oct	000000105744
    004656  aa   000000 000034    2502  	oct	000000000034
    004657  aa   000000 000003    2503  	oct	000000000003
    004660  aa   000000 000000    2504  	oct	000000000000
    004661  aa   000000 106000    2505  	oct	000000106000
    004662  aa   000000 000034    2506  	oct	000000000034
    004663  aa   000000 000003    2507  	oct	000000000003
    004664  aa   000000 000000    2508  	oct	000000000000
    004665  aa   000000 106034    2509  	oct	000000106034
    004666  aa   000000 000030    2510  	oct	000000000030
    004667  aa   000000 000003    2511  	oct	000000000003
    004670  aa   000000 000000    2512  	oct	000000000000
    004671  aa   000000 106064    2513  	oct	000000106064
    004672  aa   000000 000063    2514  	oct	000000000063
    004673  aa   000000 000003    2515  	oct	000000000003
    004674  aa   000000 000000    2516  	oct	000000000000
    004675  aa   000000 106147    2517  	oct	000000106147
    004676  aa   000000 000027    2518  	oct	000000000027
    004677  aa   000000 000003    2519  	oct	000000000003
    004700  aa   000000 000000    2520  	oct	000000000000
    004701  aa   000000 106176    2521  	oct	000000106176
    004702  aa   000000 000047    2522  	oct	000000000047
    004703  aa   000000 000003    2523  	oct	000000000003
    004704  aa   000000 000000    2524  	oct	000000000000
    004705  aa   000000 106245    2525  	oct	000000106245
    004706  aa   000000 000052    2526  	oct	000000000052
    004707  aa   000000 000003    2527  	oct	000000000003
    004710  aa   000000 000000    2528  	oct	000000000000
    004711  aa   000000 106317    2529  	oct	000000106317
    004712  aa   000000 000055    2530  	oct	000000000055
    004713  aa   000000 000003    2531  	oct	000000000003
    004714  aa   000000 000000    2532  	oct	000000000000
    004715  aa   000000 106374    2533  	oct	000000106374
    004716  aa   000000 000053    2534  	oct	000000000053
    004717  aa   000000 000003    2535  	oct	000000000003
    004720  aa   000000 000000    2536  	oct	000000000000
    004721  aa   000000 106447    2537  	oct	000000106447
    004722  aa   000000 000031    2538  	oct	000000000031
    004723  aa   000000 000003    2539  	oct	000000000003
    004724  aa   000000 000000    2540  	oct	000000000000
    004725  aa   000000 106500    2541  	oct	000000106500
    004726  aa   000000 000061    2542  	oct	000000000061
    004727  aa   000000 000003    2543  	oct	000000000003
    004730  aa   000000 000000    2544  	oct	000000000000
    004731  aa   000000 106561    2545  	oct	000000106561
    004732  aa   000000 000117    2546  	oct	000000000117
    004733  aa   000000 000003    2547  	oct	000000000003
    004734  aa   000000 000000    2548  	oct	000000000000
    004735  aa   000000 106700    2549  	oct	000000106700
    004736  aa   000000 000054    2550  	oct	000000000054
    004737  aa   000000 000003    2551  	oct	000000000003
    004740  aa   000000 000000    2552  	oct	000000000000
    004741  aa   000000 106754    2553  	oct	000000106754
    004742  aa   000000 000030    2554  	oct	000000000030
    004743  aa   000000 000003    2555  	oct	000000000003
    004744  aa   000000 000000    2556  	oct	000000000000
    004745  aa   000000 000000    2557  	oct	000000000000
    004746  aa   000000 000000    2558  	oct	000000000000
    004747  aa   000000 000000    2559  	oct	000000000000
    004750  aa   000000 000000    2560  	oct	000000000000
    004751  aa   000000 107004    2561  	oct	000000107004
    004752  aa   000000 000050    2562  	oct	000000000050
    004753  aa   000000 000003    2563  	oct	000000000003
    004754  aa   000000 000000    2564  	oct	000000000000
    004755  aa   000000 107054    2565  	oct	000000107054
    004756  aa   000000 000062    2566  	oct	000000000062
    004757  aa   000000 000003    2567  	oct	000000000003
    004760  aa   000000 000000    2568  	oct	000000000000
    004761  aa   000000 107136    2569  	oct	000000107136
    004762  aa   000000 000034    2570  	oct	000000000034
    004763  aa   000000 000003    2571  	oct	000000000003
    004764  aa   000000 000000    2572  	oct	000000000000
    004765  aa   000000 107172    2573  	oct	000000107172
    004766  aa   000000 000053    2574  	oct	000000000053
    004767  aa   000000 000003    2575  	oct	000000000003
    004770  aa   000000 000000    2576  	oct	000000000000
    004771  aa   000000 107245    2577  	oct	000000107245
    004772  aa   000000 000072    2578  	oct	000000000072
    004773  aa   000000 000003    2579  	oct	000000000003
    004774  aa   000000 000000    2580  	oct	000000000000
    004775  aa   000000 107337    2581  	oct	000000107337
    004776  aa   000000 000051    2582  	oct	000000000051
    004777  aa   000000 000003    2583  	oct	000000000003
    005000  aa   000000 000000    2584  	oct	000000000000
    005001  aa   000000 107410    2585  	oct	000000107410
    005002  aa   000000 000035    2586  	oct	000000000035
    005003  aa   000000 000003    2587  	oct	000000000003
    005004  aa   000000 000000    2588  	oct	000000000000
    005005  aa   000000 107445    2589  	oct	000000107445
    005006  aa   000000 000033    2590  	oct	000000000033
    005007  aa   000000 000003    2591  	oct	000000000003
    005010  aa   000000 000000    2592  	oct	000000000000
    005011  aa   000000 107500    2593  	oct	000000107500
    005012  aa   000000 000045    2594  	oct	000000000045
    005013  aa   000000 000003    2595  	oct	000000000003
    005014  aa   000000 000000    2596  	oct	000000000000
    005015  aa   000000 107545    2597  	oct	000000107545
    005016  aa   000000 000032    2598  	oct	000000000032
    005017  aa   000000 000003    2599  	oct	000000000003
    005020  aa   000000 000000    2600  	oct	000000000000
    005021  aa   000000 107577    2601  	oct	000000107577
    005022  aa   000000 000033    2602  	oct	000000000033
    005023  aa   000000 000003    2603  	oct	000000000003
    005024  aa   000000 000000    2604  	oct	000000000000
    005025  aa   000000 107632    2605  	oct	000000107632
    005026  aa   000000 000032    2606  	oct	000000000032
    005027  aa   000000 000003    2607  	oct	000000000003
    005030  aa   000000 000000    2608  	oct	000000000000
    005031  aa   000000 107664    2609  	oct	000000107664
    005032  aa   000000 000050    2610  	oct	000000000050
    005033  aa   000000 000003    2611  	oct	000000000003
    005034  aa   000000 000000    2612  	oct	000000000000
    005035  aa   000000 107734    2613  	oct	000000107734
    005036  aa   000000 000051    2614  	oct	000000000051
    005037  aa   000000 000003    2615  	oct	000000000003
    005040  aa   000000 000000    2616  	oct	000000000000
    005041  aa   000000 110005    2617  	oct	000000110005
    005042  aa   000000 000037    2618  	oct	000000000037
    005043  aa   000000 000003    2619  	oct	000000000003
    005044  aa   000000 000000    2620  	oct	000000000000
    005045  aa   000000 110044    2621  	oct	000000110044
    005046  aa   000000 000050    2622  	oct	000000000050
    005047  aa   000000 000003    2623  	oct	000000000003
    005050  aa   000000 000000    2624  	oct	000000000000
    005051  aa   000000 110114    2625  	oct	000000110114
    005052  aa   000000 000032    2626  	oct	000000000032
    005053  aa   000000 000003    2627  	oct	000000000003
    005054  aa   000000 000000    2628  	oct	000000000000
    005055  aa   000000 110146    2629  	oct	000000110146
    005056  aa   000000 000055    2630  	oct	000000000055
    005057  aa   000000 000003    2631  	oct	000000000003
    005060  aa   000000 000000    2632  	oct	000000000000
    005061  aa   000000 110223    2633  	oct	000000110223
    005062  aa   000000 000056    2634  	oct	000000000056
    005063  aa   000000 000003    2635  	oct	000000000003
    005064  aa   000000 000000    2636  	oct	000000000000
    005065  aa   000000 110301    2637  	oct	000000110301
    005066  aa   000000 000065    2638  	oct	000000000065
    005067  aa   000000 000003    2639  	oct	000000000003
    005070  aa   000000 000000    2640  	oct	000000000000
    005071  aa   000000 110366    2641  	oct	000000110366
    005072  aa   000000 000051    2642  	oct	000000000051
    005073  aa   000000 000003    2643  	oct	000000000003
    005074  aa   000000 000000    2644  	oct	000000000000
    005075  aa   000000 110437    2645  	oct	000000110437
    005076  aa   000000 000052    2646  	oct	000000000052
    005077  aa   000000 000003    2647  	oct	000000000003
    005100  aa   000000 000000    2648  	oct	000000000000
    005101  aa   000000 110511    2649  	oct	000000110511
    005102  aa   000000 000050    2650  	oct	000000000050
    005103  aa   000000 000003    2651  	oct	000000000003
    005104  aa   000000 000000    2652  	oct	000000000000
    005105  aa   000000 110561    2653  	oct	000000110561
    005106  aa   000000 000032    2654  	oct	000000000032
    005107  aa   000000 000003    2655  	oct	000000000003
    005110  aa   000000 000000    2656  	oct	000000000000
    005111  aa   000000 110613    2657  	oct	000000110613
    005112  aa   000000 000060    2658  	oct	000000000060
    005113  aa   000000 000003    2659  	oct	000000000003
    005114  aa   000000 000000    2660  	oct	000000000000
    005115  aa   000000 110673    2661  	oct	000000110673
    005116  aa   000000 000123    2662  	oct	000000000123
    005117  aa   000000 000003    2663  	oct	000000000003
    005120  aa   000000 000000    2664  	oct	000000000000
    005121  aa   000000 111016    2665  	oct	000000111016
    005122  aa   000000 000041    2666  	oct	000000000041
    005123  aa   000000 000003    2667  	oct	000000000003
    005124  aa   000000 000000    2668  	oct	000000000000
    005125  aa   000000 111057    2669  	oct	000000111057
    005126  aa   000000 000056    2670  	oct	000000000056
    005127  aa   000000 000003    2671  	oct	000000000003
    005130  aa   000000 000000    2672  	oct	000000000000
    005131  aa   000000 111135    2673  	oct	000000111135
    005132  aa   000000 000067    2674  	oct	000000000067
    005133  aa   000000 000003    2675  	oct	000000000003
    005134  aa   000000 000000    2676  	oct	000000000000
    005135  aa   000000 111224    2677  	oct	000000111224
    005136  aa   000000 000104    2678  	oct	000000000104
    005137  aa   000000 000003    2679  	oct	000000000003
    005140  aa   000000 000000    2680  	oct	000000000000
    005141  aa   000000 111330    2681  	oct	000000111330
    005142  aa   000000 000044    2682  	oct	000000000044
    005143  aa   000000 000003    2683  	oct	000000000003
    005144  aa   000000 000000    2684  	oct	000000000000
    005145  aa   000000 111374    2685  	oct	000000111374
    005146  aa   000000 000060    2686  	oct	000000000060
    005147  aa   000000 000003    2687  	oct	000000000003
    005150  aa   000000 000000    2688  	oct	000000000000
    005151  aa   000000 111454    2689  	oct	000000111454
    005152  aa   000000 000055    2690  	oct	000000000055
    005153  aa   000000 000003    2691  	oct	000000000003
    005154  aa   000000 000000    2692  	oct	000000000000
    005155  aa   000000 111531    2693  	oct	000000111531
    005156  aa   000000 000027    2694  	oct	000000000027
    005157  aa   000000 000003    2695  	oct	000000000003
    005160  aa   000000 000000    2696  	oct	000000000000
    005161  aa   000000 111560    2697  	oct	000000111560
    005162  aa   000000 000035    2698  	oct	000000000035
    005163  aa   000000 000003    2699  	oct	000000000003
    005164  aa   000000 000000    2700  	oct	000000000000
    005165  aa   000000 111615    2701  	oct	000000111615
    005166  aa   000000 000035    2702  	oct	000000000035
    005167  aa   000000 000003    2703  	oct	000000000003
    005170  aa   000000 000000    2704  	oct	000000000000
    005171  aa   000000 111652    2705  	oct	000000111652
    005172  aa   000000 000053    2706  	oct	000000000053
    005173  aa   000000 000003    2707  	oct	000000000003
    005174  aa   000000 000000    2708  	oct	000000000000
    005175  aa   000000 111725    2709  	oct	000000111725
    005176  aa   000000 000117    2710  	oct	000000000117
    005177  aa   000000 000003    2711  	oct	000000000003
    005200  aa   000000 000000    2712  	oct	000000000000
    005201  aa   000000 112044    2713  	oct	000000112044
    005202  aa   000000 000046    2714  	oct	000000000046
    005203  aa   000000 000003    2715  	oct	000000000003
    005204  aa   000000 000000    2716  	oct	000000000000
    005205  aa   000000 112112    2717  	oct	000000112112
    005206  aa   000000 000041    2718  	oct	000000000041
    005207  aa   000000 000003    2719  	oct	000000000003
    005210  aa   000000 000000    2720  	oct	000000000000
    005211  aa   000000 112153    2721  	oct	000000112153
    005212  aa   000000 000105    2722  	oct	000000000105
    005213  aa   000000 000003    2723  	oct	000000000003
    005214  aa   000000 000000    2724  	oct	000000000000
    005215  aa   000000 112260    2725  	oct	000000112260
    005216  aa   000000 000077    2726  	oct	000000000077
    005217  aa   000000 000003    2727  	oct	000000000003
    005220  aa   000000 000000    2728  	oct	000000000000
    005221  aa   000000 112357    2729  	oct	000000112357
    005222  aa   000000 000054    2730  	oct	000000000054
    005223  aa   000000 000003    2731  	oct	000000000003
    005224  aa   000000 000000    2732  	oct	000000000000
    005225  aa   000000 112433    2733  	oct	000000112433
    005226  aa   000000 000100    2734  	oct	000000000100
    005227  aa   000000 000003    2735  	oct	000000000003
    005230  aa   000000 000000    2736  	oct	000000000000
    005231  aa   000000 112533    2737  	oct	000000112533
    005232  aa   000000 000102    2738  	oct	000000000102
    005233  aa   000000 000003    2739  	oct	000000000003
    005234  aa   000000 000000    2740  	oct	000000000000
    005235  aa   000000 112635    2741  	oct	000000112635
    005236  aa   000000 000064    2742  	oct	000000000064
    005237  aa   000000 000003    2743  	oct	000000000003
    005240  aa   000000 000000    2744  	oct	000000000000
    005241  aa   000000 112721    2745  	oct	000000112721
    005242  aa   000000 000055    2746  	oct	000000000055
    005243  aa   000000 000003    2747  	oct	000000000003
    005244  aa   000000 000000    2748  	oct	000000000000
    005245  aa   000000 112776    2749  	oct	000000112776
    005246  aa   000000 000075    2750  	oct	000000000075
    005247  aa   000000 000003    2751  	oct	000000000003
    005250  aa   000000 000000    2752  	oct	000000000000
    005251  aa   000000 113073    2753  	oct	000000113073
    005252  aa   000000 000047    2754  	oct	000000000047
    005253  aa   000000 000003    2755  	oct	000000000003
    005254  aa   000000 000000    2756  	oct	000000000000
    005255  aa   000000 113142    2757  	oct	000000113142
    005256  aa   000000 000031    2758  	oct	000000000031
    005257  aa   000000 000003    2759  	oct	000000000003
    005260  aa   000000 000000    2760  	oct	000000000000
    005261  aa   000000 113173    2761  	oct	000000113173
    005262  aa   000000 000047    2762  	oct	000000000047
    005263  aa   000000 000003    2763  	oct	000000000003
    005264  aa   000000 000000    2764  	oct	000000000000
    005265  aa   000000 113242    2765  	oct	000000113242
    005266  aa   000000 000050    2766  	oct	000000000050
    005267  aa   000000 000003    2767  	oct	000000000003
    005270  aa   000000 000000    2768  	oct	000000000000
    005271  aa   000000 113312    2769  	oct	000000113312
    005272  aa   000000 000053    2770  	oct	000000000053
    005273  aa   000000 000003    2771  	oct	000000000003
    005274  aa   000000 000000    2772  	oct	000000000000
    005275  aa   000000 113365    2773  	oct	000000113365
    005276  aa   000000 000065    2774  	oct	000000000065
    005277  aa   000000 000003    2775  	oct	000000000003
    005300  aa   000000 000000    2776  	oct	000000000000
    005301  aa   000000 113452    2777  	oct	000000113452
    005302  aa   000000 000064    2778  	oct	000000000064
    005303  aa   000000 000003    2779  	oct	000000000003
    005304  aa   000000 000000    2780  	oct	000000000000
    005305  aa   000000 113536    2781  	oct	000000113536
    005306  aa   000000 000034    2782  	oct	000000000034
    005307  aa   000000 000003    2783  	oct	000000000003
    005310  aa   000000 000000    2784  	oct	000000000000
    005311  aa   000000 113572    2785  	oct	000000113572
    005312  aa   000000 000037    2786  	oct	000000000037
    005313  aa   000000 000003    2787  	oct	000000000003
    005314  aa   000000 000000    2788  	oct	000000000000
    005315  aa   000000 113631    2789  	oct	000000113631
    005316  aa   000000 000040    2790  	oct	000000000040
    005317  aa   000000 000003    2791  	oct	000000000003
    005320  aa   000000 000000    2792  	oct	000000000000
    005321  aa   000000 113671    2793  	oct	000000113671
    005322  aa   000000 000036    2794  	oct	000000000036
    005323  aa   000000 000003    2795  	oct	000000000003
    005324  aa   000000 000000    2796  	oct	000000000000
    005325  aa   000000 113727    2797  	oct	000000113727
    005326  aa   000000 000032    2798  	oct	000000000032
    005327  aa   000000 000003    2799  	oct	000000000003
    005330  aa   000000 000000    2800  	oct	000000000000
    005331  aa   000000 113761    2801  	oct	000000113761
    005332  aa   000000 000064    2802  	oct	000000000064
    005333  aa   000000 000003    2803  	oct	000000000003
    005334  aa   000000 000000    2804  	oct	000000000000
    005335  aa   000000 114045    2805  	oct	000000114045
    005336  aa   000000 000040    2806  	oct	000000000040
    005337  aa   000000 000003    2807  	oct	000000000003
    005340  aa   000000 000000    2808  	oct	000000000000
    005341  aa   000000 114105    2809  	oct	000000114105
    005342  aa   000000 000053    2810  	oct	000000000053
    005343  aa   000000 000003    2811  	oct	000000000003
    005344  aa   000000 000000    2812  	oct	000000000000
    005345  aa   000000 114160    2813  	oct	000000114160
    005346  aa   000000 000047    2814  	oct	000000000047
    005347  aa   000000 000003    2815  	oct	000000000003
    005350  aa   000000 000000    2816  	oct	000000000000
    005351  aa   000000 114227    2817  	oct	000000114227
    005352  aa   000000 000135    2818  	oct	000000000135
    005353  aa   000000 000003    2819  	oct	000000000003
    005354  aa   000000 000000    2820  	oct	000000000000
    005355  aa   000000 114364    2821  	oct	000000114364
    005356  aa   000000 000056    2822  	oct	000000000056
    005357  aa   000000 000003    2823  	oct	000000000003
    005360  aa   000000 000000    2824  	oct	000000000000
    005361  aa   000000 114442    2825  	oct	000000114442
    005362  aa   000000 000027    2826  	oct	000000000027
    005363  aa   000000 000003    2827  	oct	000000000003
    005364  aa   000000 000000    2828  	oct	000000000000
    005365  aa   000000 114471    2829  	oct	000000114471
    005366  aa   000000 000044    2830  	oct	000000000044
    005367  aa   000000 000003    2831  	oct	000000000003
    005370  aa   000000 000000    2832  	oct	000000000000
    005371  aa   000000 114535    2833  	oct	000000114535
    005372  aa   000000 000041    2834  	oct	000000000041
    005373  aa   000000 000003    2835  	oct	000000000003
    005374  aa   000000 000000    2836  	oct	000000000000
    005375  aa   000000 114576    2837  	oct	000000114576
    005376  aa   000000 000061    2838  	oct	000000000061
    005377  aa   000000 000002    2839  	oct	000000000002
    005400  aa   000000 000000    2840  	oct	000000000000
    005401  aa   000000 114657    2841  	oct	000000114657
    005402  aa   000000 000137    2842  	oct	000000000137
    005403  aa   000000 000002    2843  	oct	000000000002
    005404  aa   000000 000000    2844  	oct	000000000000
    005405  aa   000000 115016    2845  	oct	000000115016
    005406  aa   000000 000046    2846  	oct	000000000046
    005407  aa   000000 000003    2847  	oct	000000000003
    005410  aa   000000 000000    2848  	oct	000000000000
    005411  aa   000000 115064    2849  	oct	000000115064
    005412  aa   000000 000037    2850  	oct	000000000037
    005413  aa   000000 000003    2851  	oct	000000000003
    005414  aa   000000 000000    2852  	oct	000000000000
    005415  aa   000000 115123    2853  	oct	000000115123
    005416  aa   000000 000052    2854  	oct	000000000052
    005417  aa   000000 000003    2855  	oct	000000000003
    005420  aa   000000 000000    2856  	oct	000000000000
    005421  aa   000000 115175    2857  	oct	000000115175
    005422  aa   000000 000042    2858  	oct	000000000042
    005423  aa   000000 000003    2859  	oct	000000000003
    005424  aa   000000 000000    2860  	oct	000000000000
    005425  aa   000000 115237    2861  	oct	000000115237
    005426  aa   000000 000035    2862  	oct	000000000035
    005427  aa   000000 000002    2863  	oct	000000000002
    005430  aa   000000 000000    2864  	oct	000000000000
    005431  aa   000000 115274    2865  	oct	000000115274
    005432  aa   000000 000072    2866  	oct	000000000072
    005433  aa   000000 000003    2867  	oct	000000000003
    005434  aa   000000 000000    2868  	oct	000000000000
    005435  aa   000000 115366    2869  	oct	000000115366
    005436  aa   000000 000030    2870  	oct	000000000030
    005437  aa   000000 000003    2871  	oct	000000000003
    005440  aa   000000 000000    2872  	oct	000000000000
    005441  aa   000000 115416    2873  	oct	000000115416
    005442  aa   000000 000074    2874  	oct	000000000074
    005443  aa   000000 000003    2875  	oct	000000000003
    005444  aa   000000 000000    2876  	oct	000000000000
    005445  aa   000000 115512    2877  	oct	000000115512
    005446  aa   000000 000032    2878  	oct	000000000032
    005447  aa   000000 000003    2879  	oct	000000000003
    005450  aa   000000 000000    2880  	oct	000000000000
    005451  aa   000000 115544    2881  	oct	000000115544
    005452  aa   000000 000121    2882  	oct	000000000121
    005453  aa   000000 000003    2883  	oct	000000000003
    005454  aa   000000 000000    2884  	oct	000000000000
    005455  aa   000000 115665    2885  	oct	000000115665
    005456  aa   000000 000030    2886  	oct	000000000030
    005457  aa   000000 000003    2887  	oct	000000000003
    005460  aa   000000 000000    2888  	oct	000000000000
    005461  aa   000000 115715    2889  	oct	000000115715
    005462  aa   000000 000025    2890  	oct	000000000025
    005463  aa   000000 000003    2891  	oct	000000000003
    005464  aa   000000 000000    2892  	oct	000000000000
    005465  aa   000000 115742    2893  	oct	000000115742
    005466  aa   000000 000027    2894  	oct	000000000027
    005467  aa   000000 000003    2895  	oct	000000000003
    005470  aa   000000 000000    2896  	oct	000000000000
    005471  aa   000000 115771    2897  	oct	000000115771
    005472  aa   000000 000073    2898  	oct	000000000073
    005473  aa   000000 000003    2899  	oct	000000000003
    005474  aa   000000 000000    2900  	oct	000000000000
    005475  aa   000000 116064    2901  	oct	000000116064
    005476  aa   000000 000115    2902  	oct	000000000115
    005477  aa   000000 000003    2903  	oct	000000000003
    005500  aa   000000 000000    2904  	oct	000000000000
    005501  aa   000000 116201    2905  	oct	000000116201
    005502  aa   000000 000077    2906  	oct	000000000077
    005503  aa   000000 000003    2907  	oct	000000000003
    005504  aa   000000 000000    2908  	oct	000000000000
    005505  aa   000000 116300    2909  	oct	000000116300
    005506  aa   000000 000036    2910  	oct	000000000036
    005507  aa   000000 000003    2911  	oct	000000000003
    005510  aa   000000 000000    2912  	oct	000000000000
    005511  aa   000000 116336    2913  	oct	000000116336
    005512  aa   000000 000034    2914  	oct	000000000034
    005513  aa   000000 000003    2915  	oct	000000000003
    005514  aa   000000 000000    2916  	oct	000000000000
    005515  aa   000000 116372    2917  	oct	000000116372
    005516  aa   000000 000053    2918  	oct	000000000053
    005517  aa   000000 000003    2919  	oct	000000000003
    005520  aa   000000 000000    2920  	oct	000000000000
    005521  aa   000000 116445    2921  	oct	000000116445
    005522  aa   000000 000064    2922  	oct	000000000064
    005523  aa   000000 000003    2923  	oct	000000000003
    005524  aa   000000 000000    2924  	oct	000000000000
    005525  aa   000000 116531    2925  	oct	000000116531
    005526  aa   000000 000107    2926  	oct	000000000107
    005527  aa   000000 000002    2927  	oct	000000000002
    005530  aa   000000 000000    2928  	oct	000000000000
    005531  aa   000000 116640    2929  	oct	000000116640
    005532  aa   000000 000072    2930  	oct	000000000072
    005533  aa   000000 000001    2931  	oct	000000000001
    005534  aa   000000 000000    2932  	oct	000000000000
    005535  aa   000000 116732    2933  	oct	000000116732
    005536  aa   000000 000130    2934  	oct	000000000130
    005537  aa   000000 000003    2935  	oct	000000000003
    005540  aa   000000 000000    2936  	oct	000000000000
    005541  aa   000000 117062    2937  	oct	000000117062
    005542  aa   000000 000066    2938  	oct	000000000066
    005543  aa   000000 000001    2939  	oct	000000000001
    005544  aa   000000 000000    2940  	oct	000000000000
    005545  aa   000000 117150    2941  	oct	000000117150
    005546  aa   000000 000112    2942  	oct	000000000112
    005547  aa   000000 000003    2943  	oct	000000000003
    005550  aa   000000 000000    2944  	oct	000000000000
    005551  aa   000000 117262    2945  	oct	000000117262
    005552  aa   000000 000112    2946  	oct	000000000112
    005553  aa   000000 000003    2947  	oct	000000000003
    005554  aa   000000 000000    2948  	oct	000000000000
    005555  aa   000000 117374    2949  	oct	000000117374
    005556  aa   000000 000123    2950  	oct	000000000123
    005557  aa   000000 000003    2951  	oct	000000000003
    005560  aa   000000 000000    2952  	oct	000000000000
    005561  aa   000000 117517    2953  	oct	000000117517
    005562  aa   000000 000115    2954  	oct	000000000115
    005563  aa   000000 000003    2955  	oct	000000000003
    005564  aa   000000 000000    2956  	oct	000000000000
    005565  aa   000000 117634    2957  	oct	000000117634
    005566  aa   000000 000032    2958  	oct	000000000032
    005567  aa   000000 000001    2959  	oct	000000000001
    005570  aa   000000 000000    2960  	oct	000000000000
    005571  aa   000000 117666    2961  	oct	000000117666
    005572  aa   000000 000107    2962  	oct	000000000107
    005573  aa   000000 000001    2963  	oct	000000000001
    005574  aa   000000 000000    2964  	oct	000000000000
    005575  aa   000000 117775    2965  	oct	000000117775
    005576  aa   000000 000024    2966  	oct	000000000024
    005577  aa   000000 000003    2967  	oct	000000000003
    005600  aa   000000 000000    2968  	oct	000000000000
    005601  aa   000000 120021    2969  	oct	000000120021
    005602  aa   000000 000030    2970  	oct	000000000030
    005603  aa   000000 000003    2971  	oct	000000000003
    005604  aa   000000 000000    2972  	oct	000000000000
    005605  aa   000000 120051    2973  	oct	000000120051
    005606  aa   000000 000040    2974  	oct	000000000040
    005607  aa   000000 000003    2975  	oct	000000000003
    005610  aa   000000 000000    2976  	oct	000000000000
    005611  aa   000000 120111    2977  	oct	000000120111
    005612  aa   000000 000046    2978  	oct	000000000046
    005613  aa   000000 000003    2979  	oct	000000000003
    005614  aa   000000 000000    2980  	oct	000000000000
    005615  aa   000000 120157    2981  	oct	000000120157
    005616  aa   000000 000055    2982  	oct	000000000055
    005617  aa   000000 000003    2983  	oct	000000000003
    005620  aa   000000 000000    2984  	oct	000000000000
    005621  aa   000000 120234    2985  	oct	000000120234
    005622  aa   000000 000060    2986  	oct	000000000060
    005623  aa   000000 000003    2987  	oct	000000000003
    005624  aa   000000 000000    2988  	oct	000000000000
    005625  aa   000000 120314    2989  	oct	000000120314
    005626  aa   000000 000035    2990  	oct	000000000035
    005627  aa   000000 000003    2991  	oct	000000000003
    005630  aa   000000 000000    2992  	oct	000000000000
    005631  aa   000000 120351    2993  	oct	000000120351
    005632  aa   000000 000035    2994  	oct	000000000035
    005633  aa   000000 000001    2995  	oct	000000000001
    005634  aa   000000 000000    2996  	oct	000000000000
    005635  aa   000000 120406    2997  	oct	000000120406
    005636  aa   000000 000030    2998  	oct	000000000030
    005637  aa   000000 000001    2999  	oct	000000000001
    005640  aa   000000 000000    3000  	oct	000000000000
    005641  aa   000000 120436    3001  	oct	000000120436
    005642  aa   000000 000055    3002  	oct	000000000055
    005643  aa   000000 000003    3003  	oct	000000000003
    005644  aa   000000 000000    3004  	oct	000000000000
    005645  aa   000000 120513    3005  	oct	000000120513
    005646  aa   000000 000076    3006  	oct	000000000076
    005647  aa   000000 000003    3007  	oct	000000000003
    005650  aa   000000 000000    3008  	oct	000000000000
    005651  aa   000000 120611    3009  	oct	000000120611
    005652  aa   000000 000057    3010  	oct	000000000057
    005653  aa   000000 000003    3011  	oct	000000000003
    005654  aa   000000 000000    3012  	oct	000000000000
    005655  aa   000000 120670    3013  	oct	000000120670
    005656  aa   000000 000035    3014  	oct	000000000035
    005657  aa   000000 000003    3015  	oct	000000000003
    005660  aa   000000 000000    3016  	oct	000000000000
    005661  aa   000000 120725    3017  	oct	000000120725
    005662  aa   000000 000024    3018  	oct	000000000024
    005663  aa   000000 000003    3019  	oct	000000000003
    005664  aa   000000 000000    3020  	oct	000000000000
    005665  aa   000000 120751    3021  	oct	000000120751
    005666  aa   000000 000037    3022  	oct	000000000037
    005667  aa   000000 000003    3023  	oct	000000000003
    005670  aa   000000 000000    3024  	oct	000000000000
    005671  aa   000000 121010    3025  	oct	000000121010
    005672  aa   000000 000075    3026  	oct	000000000075
    005673  aa   000000 000003    3027  	oct	000000000003
    005674  aa   000000 000000    3028  	oct	000000000000
    005675  aa   000000 121105    3029  	oct	000000121105
    005676  aa   000000 000044    3030  	oct	000000000044
    005677  aa   000000 000003    3031  	oct	000000000003
    005700  aa   000000 000000    3032  	oct	000000000000
    005701  aa   000000 121151    3033  	oct	000000121151
    005702  aa   000000 000031    3034  	oct	000000000031
    005703  aa   000000 000003    3035  	oct	000000000003
    005704  aa   000000 000000    3036  	oct	000000000000
    005705  aa   000000 121202    3037  	oct	000000121202
    005706  aa   000000 000053    3038  	oct	000000000053
    005707  aa   000000 000003    3039  	oct	000000000003
    005710  aa   000000 000000    3040  	oct	000000000000
    005711  aa   000000 121255    3041  	oct	000000121255
    005712  aa   000000 000057    3042  	oct	000000000057
    005713  aa   000000 000003    3043  	oct	000000000003
    005714  aa   000000 000000    3044  	oct	000000000000
    005715  aa   000000 121334    3045  	oct	000000121334
    005716  aa   000000 000045    3046  	oct	000000000045
    005717  aa   000000 000003    3047  	oct	000000000003
    005720  aa   000000 000000    3048  	oct	000000000000
    005721  aa   000000 121401    3049  	oct	000000121401
    005722  aa   000000 000051    3050  	oct	000000000051
    005723  aa   000000 000003    3051  	oct	000000000003
    005724  aa   000000 000000    3052  	oct	000000000000
    005725  aa   000000 121452    3053  	oct	000000121452
    005726  aa   000000 000114    3054  	oct	000000000114
    005727  aa   000000 000003    3055  	oct	000000000003
    005730  aa   000000 000000    3056  	oct	000000000000
    005731  aa   000000 121566    3057  	oct	000000121566
    005732  aa   000000 000041    3058  	oct	000000000041
    005733  aa   000000 000003    3059  	oct	000000000003
    005734  aa   000000 000000    3060  	oct	000000000000
    005735  aa   000000 121627    3061  	oct	000000121627
    005736  aa   000000 000123    3062  	oct	000000000123
    005737  aa   000000 000003    3063  	oct	000000000003
    005740  aa   000000 000000    3064  	oct	000000000000
    005741  aa   000000 121752    3065  	oct	000000121752
    005742  aa   000000 000104    3066  	oct	000000000104
    005743  aa   000000 000003    3067  	oct	000000000003
    005744  aa   000000 000000    3068  	oct	000000000000
    005745  aa   000000 122056    3069  	oct	000000122056
    005746  aa   000000 000063    3070  	oct	000000000063
    005747  aa   000000 000004    3071  	oct	000000000004
    005750  aa   000000 000000    3072  	oct	000000000000
    005751  aa   000000 122141    3073  	oct	000000122141
    005752  aa   000000 000043    3074  	oct	000000000043
    005753  aa   000000 000003    3075  	oct	000000000003
    005754  aa   000000 000000    3076  	oct	000000000000
    005755  aa   000000 122204    3077  	oct	000000122204
    005756  aa   000000 000030    3078  	oct	000000000030
    005757  aa   000000 000003    3079  	oct	000000000003
    005760  aa   000000 000000    3080  	oct	000000000000
    005761  aa   000000 122234    3081  	oct	000000122234
    005762  aa   000000 000060    3082  	oct	000000000060
    005763  aa   000000 000003    3083  	oct	000000000003
    005764  aa   000000 000000    3084  	oct	000000000000
    005765  aa   000000 122314    3085  	oct	000000122314
    005766  aa   000000 000100    3086  	oct	000000000100
    005767  aa   000000 000003    3087  	oct	000000000003
    005770  aa   000000 000000    3088  	oct	000000000000
    005771  aa   000000 122414    3089  	oct	000000122414
    005772  aa   000000 000141    3090  	oct	000000000141
    005773  aa   000000 000003    3091  	oct	000000000003
    005774  aa   000000 000000    3092  	oct	000000000000
    005775  aa   000000 122555    3093  	oct	000000122555
    005776  aa   000000 000060    3094  	oct	000000000060
    005777  aa   000000 000003    3095  	oct	000000000003
    006000  aa   000000 000000    3096  	oct	000000000000
    006001  aa   000000 122635    3097  	oct	000000122635
    006002  aa   000000 000031    3098  	oct	000000000031
    006003  aa   000000 000003    3099  	oct	000000000003
    006004  aa   000000 000000    3100  	oct	000000000000
    006005  aa   000000 122666    3101  	oct	000000122666
    006006  aa   000000 000043    3102  	oct	000000000043
    006007  aa   000000 000003    3103  	oct	000000000003
    006010  aa   000000 000000    3104  	oct	000000000000
    006011  aa   000000 122731    3105  	oct	000000122731
    006012  aa   000000 000065    3106  	oct	000000000065
    006013  aa   000000 000002    3107  	oct	000000000002
    006014  aa   000000 000000    3108  	oct	000000000000
    006015  aa   000000 123016    3109  	oct	000000123016
    006016  aa   000000 000063    3110  	oct	000000000063
    006017  aa   000000 000002    3111  	oct	000000000002
    006020  aa   000000 000000    3112  	oct	000000000000
    006021  aa   000000 123101    3113  	oct	000000123101
    006022  aa   000000 000066    3114  	oct	000000000066
    006023  aa   000000 000002    3115  	oct	000000000002
    006024  aa   000000 000000    3116  	oct	000000000000
    006025  aa   000000 123167    3117  	oct	000000123167
    006026  aa   000000 000064    3118  	oct	000000000064
    006027  aa   000000 000002    3119  	oct	000000000002
    006030  aa   000000 000000    3120  	oct	000000000000
    006031  aa   000000 123253    3121  	oct	000000123253
    006032  aa   000000 000067    3122  	oct	000000000067
    006033  aa   000000 000002    3123  	oct	000000000002
    006034  aa   000000 000000    3124  	oct	000000000000
    006035  aa   000000 123342    3125  	oct	000000123342
    006036  aa   000000 000065    3126  	oct	000000000065
    006037  aa   000000 000002    3127  	oct	000000000002
    006040  aa   000000 000000    3128  	oct	000000000000
    006041  aa   000000 123427    3129  	oct	000000123427
    006042  aa   000000 000064    3130  	oct	000000000064
    006043  aa   000000 000002    3131  	oct	000000000002
    006044  aa   000000 000000    3132  	oct	000000000000
    006045  aa   000000 123513    3133  	oct	000000123513
    006046  aa   000000 000064    3134  	oct	000000000064
    006047  aa   000000 000002    3135  	oct	000000000002
    006050  aa   000000 000000    3136  	oct	000000000000
    006051  aa   000000 123577    3137  	oct	000000123577
    006052  aa   000000 000065    3138  	oct	000000000065
    006053  aa   000000 000002    3139  	oct	000000000002
    006054  aa   000000 000000    3140  	oct	000000000000
    006055  aa   000000 123664    3141  	oct	000000123664
    006056  aa   000000 000027    3142  	oct	000000000027
    006057  aa   000000 000003    3143  	oct	000000000003
    006060  aa   000000 000000    3144  	oct	000000000000
    006061  aa   000000 123713    3145  	oct	000000123713
    006062  aa   000000 000050    3146  	oct	000000000050
    006063  aa   000000 000003    3147  	oct	000000000003
    006064  aa   000000 000000    3148  	oct	000000000000
    006065  aa   000000 123763    3149  	oct	000000123763
    006066  aa   000000 000066    3150  	oct	000000000066
    006067  aa   000000 000003    3151  	oct	000000000003
    006070  aa   000000 000000    3152  	oct	000000000000
    006071  aa   000000 124051    3153  	oct	000000124051
    006072  aa   000000 000037    3154  	oct	000000000037
    006073  aa   000000 000003    3155  	oct	000000000003
    006074  aa   000000 000000    3156  	oct	000000000000
    006075  aa   000000 124110    3157  	oct	000000124110
    006076  aa   000000 000056    3158  	oct	000000000056
    006077  aa   000000 000003    3159  	oct	000000000003
    006100  aa   000000 000000    3160  	oct	000000000000
    006101  aa   000000 124166    3161  	oct	000000124166
    006102  aa   000000 000064    3162  	oct	000000000064
    006103  aa   000000 000003    3163  	oct	000000000003
    006104  aa   000000 000000    3164  	oct	000000000000
    006105  aa   000000 124252    3165  	oct	000000124252
    006106  aa   000000 000026    3166  	oct	000000000026
    006107  aa   000000 000003    3167  	oct	000000000003
    006110  aa   000000 000000    3168  	oct	000000000000
    006111  aa   000000 124300    3169  	oct	000000124300
    006112  aa   000000 000061    3170  	oct	000000000061
    006113  aa   000000 000003    3171  	oct	000000000003
    006114  aa   000000 000000    3172  	oct	000000000000
    006115  aa   000000 124361    3173  	oct	000000124361
    006116  aa   000000 000045    3174  	oct	000000000045
    006117  aa   000000 000003    3175  	oct	000000000003
    006120  aa   000000 000000    3176  	oct	000000000000
    006121  aa   000000 124426    3177  	oct	000000124426
    006122  aa   000000 000063    3178  	oct	000000000063
    006123  aa   000000 000003    3179  	oct	000000000003
    006124  aa   000000 000000    3180  	oct	000000000000
    006125  aa   000000 124511    3181  	oct	000000124511
    006126  aa   000000 000035    3182  	oct	000000000035
    006127  aa   000000 000003    3183  	oct	000000000003
    006130  aa   000000 000000    3184  	oct	000000000000
    006131  aa   000000 124546    3185  	oct	000000124546
    006132  aa   000000 000045    3186  	oct	000000000045
    006133  aa   000000 000003    3187  	oct	000000000003
    006134  aa   000000 000000    3188  	oct	000000000000
    006135  aa   000000 124613    3189  	oct	000000124613
    006136  aa   000000 000042    3190  	oct	000000000042
    006137  aa   000000 000003    3191  	oct	000000000003
    006140  aa   000000 000000    3192  	oct	000000000000
    006141  aa   000000 124655    3193  	oct	000000124655
    006142  aa   000000 000036    3194  	oct	000000000036
    006143  aa   000000 000003    3195  	oct	000000000003
    006144  aa   000000 000000    3196  	oct	000000000000
    006145  aa   000000 124713    3197  	oct	000000124713
    006146  aa   000000 000036    3198  	oct	000000000036
    006147  aa   000000 000003    3199  	oct	000000000003
    006150  aa   000000 000000    3200  	oct	000000000000
    006151  aa   000000 124751    3201  	oct	000000124751
    006152  aa   000000 000032    3202  	oct	000000000032
    006153  aa   000000 000003    3203  	oct	000000000003
    006154  aa   000000 000000    3204  	oct	000000000000
    006155  aa   000000 125003    3205  	oct	000000125003
    006156  aa   000000 000046    3206  	oct	000000000046
    006157  aa   000000 000003    3207  	oct	000000000003
    006160  aa   000000 000000    3208  	oct	000000000000
    006161  aa   000000 125051    3209  	oct	000000125051
    006162  aa   000000 000051    3210  	oct	000000000051
    006163  aa   000000 000003    3211  	oct	000000000003
    006164  aa   000000 000000    3212  	oct	000000000000
    006165  aa   000000 125122    3213  	oct	000000125122
    006166  aa   000000 000100    3214  	oct	000000000100
    006167  aa   000000 000003    3215  	oct	000000000003
    006170  aa   000000 000000    3216  	oct	000000000000
    006171  aa   000000 125222    3217  	oct	000000125222
    006172  aa   000000 000060    3218  	oct	000000000060
    006173  aa   000000 000003    3219  	oct	000000000003
    006174  aa   000000 000000    3220  	oct	000000000000
    006175  aa   000000 125302    3221  	oct	000000125302
    006176  aa   000000 000027    3222  	oct	000000000027
    006177  aa   000000 000003    3223  	oct	000000000003
    006200  aa   000000 000000    3224  	oct	000000000000
    006201  aa   000000 125331    3225  	oct	000000125331
    006202  aa   000000 000075    3226  	oct	000000000075
    006203  aa   000000 000003    3227  	oct	000000000003
    006204  aa   000000 000000    3228  	oct	000000000000
    006205  aa   000000 125426    3229  	oct	000000125426
    006206  aa   000000 000045    3230  	oct	000000000045
    006207  aa   000000 000003    3231  	oct	000000000003
    006210  aa   000000 000000    3232  	oct	000000000000
    006211  aa   000000 125473    3233  	oct	000000125473
    006212  aa   000000 000046    3234  	oct	000000000046
    006213  aa   000000 000003    3235  	oct	000000000003
    006214  aa   000000 000000    3236  	oct	000000000000
    006215  aa   000000 125541    3237  	oct	000000125541
    006216  aa   000000 000060    3238  	oct	000000000060
    006217  aa   000000 000002    3239  	oct	000000000002
    006220  aa   000000 000000    3240  	oct	000000000000
    006221  aa   000000 125621    3241  	oct	000000125621
    006222  aa   000000 000033    3242  	oct	000000000033
    006223  aa   000000 000003    3243  	oct	000000000003
    006224  aa   000000 000000    3244  	oct	000000000000
    006225  aa   000000 125654    3245  	oct	000000125654
    006226  aa   000000 000136    3246  	oct	000000000136
    006227  aa   000000 000003    3247  	oct	000000000003
    006230  aa   000000 000000    3248  	oct	000000000000
    006231  aa   000000 126012    3249  	oct	000000126012
    006232  aa   000000 000047    3250  	oct	000000000047
    006233  aa   000000 000003    3251  	oct	000000000003
    006234  aa   000000 000000    3252  	oct	000000000000
    006235  aa   000000 126061    3253  	oct	000000126061
    006236  aa   000000 000151    3254  	oct	000000000151
    006237  aa   000000 000003    3255  	oct	000000000003
    006240  aa   000000 000000    3256  	oct	000000000000
    006241  aa   000000 126232    3257  	oct	000000126232
    006242  aa   000000 000110    3258  	oct	000000000110
    006243  aa   000000 000003    3259  	oct	000000000003
    006244  aa   000000 000000    3260  	oct	000000000000
    006245  aa   000000 126342    3261  	oct	000000126342
    006246  aa   000000 000153    3262  	oct	000000000153
    006247  aa   000000 000003    3263  	oct	000000000003
    006250  aa   000000 000000    3264  	oct	000000000000
    006251  aa   000000 126515    3265  	oct	000000126515
    006252  aa   000000 000033    3266  	oct	000000000033
    006253  aa   000000 000003    3267  	oct	000000000003
    006254  aa   000000 000000    3268  	oct	000000000000
    006255  aa   000000 126550    3269  	oct	000000126550
    006256  aa   000000 000153    3270  	oct	000000000153
    006257  aa   000000 000003    3271  	oct	000000000003
    006260  aa   000000 000000    3272  	oct	000000000000
    006261  aa   000000 126723    3273  	oct	000000126723
    006262  aa   000000 000034    3274  	oct	000000000034
    006263  aa   000000 000003    3275  	oct	000000000003
    006264  aa   000000 000000    3276  	oct	000000000000
    006265  aa   000000 126757    3277  	oct	000000126757
    006266  aa   000000 000034    3278  	oct	000000000034
    006267  aa   000000 000003    3279  	oct	000000000003
    006270  aa   000000 000000    3280  	oct	000000000000
    006271  aa   000000 127013    3281  	oct	000000127013
    006272  aa   000000 000104    3282  	oct	000000000104
    006273  aa   000000 000003    3283  	oct	000000000003
    006274  aa   000000 000000    3284  	oct	000000000000
    006275  aa   000000 127117    3285  	oct	000000127117
    006276  aa   000000 000130    3286  	oct	000000000130
    006277  aa   000000 000003    3287  	oct	000000000003
    006300  aa   000000 000000    3288  	oct	000000000000
    006301  aa   000000 127247    3289  	oct	000000127247
    006302  aa   000000 000106    3290  	oct	000000000106
    006303  aa   000000 000003    3291  	oct	000000000003
    006304  aa   000000 000000    3292  	oct	000000000000
    006305  aa   000000 127355    3293  	oct	000000127355
    006306  aa   000000 000075    3294  	oct	000000000075
    006307  aa   000000 000003    3295  	oct	000000000003
    006310  aa   000000 000000    3296  	oct	000000000000
    006311  aa   000000 127452    3297  	oct	000000127452
    006312  aa   000000 000117    3298  	oct	000000000117
    006313  aa   000000 000003    3299  	oct	000000000003
    006314  aa   000000 000000    3300  	oct	000000000000
    006315  aa   000000 127571    3301  	oct	000000127571
    006316  aa   000000 000117    3302  	oct	000000000117
    006317  aa   000000 000003    3303  	oct	000000000003
    006320  aa   000000 000000    3304  	oct	000000000000
    006321  aa   000000 127710    3305  	oct	000000127710
    006322  aa   000000 000113    3306  	oct	000000000113
    006323  aa   000000 000003    3307  	oct	000000000003
    006324  aa   000000 000000    3308  	oct	000000000000
    006325  aa   000000 130023    3309  	oct	000000130023
    006326  aa   000000 000107    3310  	oct	000000000107
    006327  aa   000000 000003    3311  	oct	000000000003
    006330  aa   000000 000000    3312  	oct	000000000000
    006331  aa   000000 130132    3313  	oct	000000130132
    006332  aa   000000 000116    3314  	oct	000000000116
    006333  aa   000000 000003    3315  	oct	000000000003
    006334  aa   000000 000000    3316  	oct	000000000000
    006335  aa   000000 130250    3317  	oct	000000130250
    006336  aa   000000 000107    3318  	oct	000000000107
    006337  aa   000000 000003    3319  	oct	000000000003
    006340  aa   000000 000000    3320  	oct	000000000000
    006341  aa   000000 130357    3321  	oct	000000130357
    006342  aa   000000 000067    3322  	oct	000000000067
    006343  aa   000000 000003    3323  	oct	000000000003
    006344  aa   000000 000000    3324  	oct	000000000000
    006345  aa   000000 130446    3325  	oct	000000130446
    006346  aa   000000 000107    3326  	oct	000000000107
    006347  aa   000000 000003    3327  	oct	000000000003
    006350  aa   000000 000000    3328  	oct	000000000000
    006351  aa   000000 130555    3329  	oct	000000130555
    006352  aa   000000 000065    3330  	oct	000000000065
    006353  aa   000000 000003    3331  	oct	000000000003
    006354  aa   000000 000000    3332  	oct	000000000000
    006355  aa   000000 130642    3333  	oct	000000130642
    006356  aa   000000 000055    3334  	oct	000000000055
    006357  aa   000000 000002    3335  	oct	000000000002
    006360  aa   000000 000000    3336  	oct	000000000000
    006361  aa   000000 130717    3337  	oct	000000130717
    006362  aa   000000 000106    3338  	oct	000000000106
    006363  aa   000000 000002    3339  	oct	000000000002
    006364  aa   000000 000000    3340  	oct	000000000000
    006365  aa   000000 131025    3341  	oct	000000131025
    006366  aa   000000 000042    3342  	oct	000000000042
    006367  aa   000000 000003    3343  	oct	000000000003
    006370  aa   000000 000000    3344  	oct	000000000000
    006371  aa   000000 131067    3345  	oct	000000131067
    006372  aa   000000 000041    3346  	oct	000000000041
    006373  aa   000000 000001    3347  	oct	000000000001
    006374  aa   000000 000000    3348  	oct	000000000000
    006375  aa   000000 131130    3349  	oct	000000131130
    006376  aa   000000 000041    3350  	oct	000000000041
    006377  aa   000000 000001    3351  	oct	000000000001
    006400  aa   000000 000000    3352  	oct	000000000000
    006401  aa   000000 131171    3353  	oct	000000131171
    006402  aa   000000 000076    3354  	oct	000000000076
    006403  aa   000000 000003    3355  	oct	000000000003
    006404  aa   000000 000000    3356  	oct	000000000000
    006405  aa   000000 131267    3357  	oct	000000131267
    006406  aa   000000 000106    3358  	oct	000000000106
    006407  aa   000000 000003    3359  	oct	000000000003
    006410  aa   000000 000000    3360  	oct	000000000000
    006411  aa   000000 131375    3361  	oct	000000131375
    006412  aa   000000 000055    3362  	oct	000000000055
    006413  aa   000000 000001    3363  	oct	000000000001
    006414  aa   000000 000000    3364  	oct	000000000000
    006415  aa   000000 131452    3365  	oct	000000131452
    006416  aa   000000 000073    3366  	oct	000000000073
    006417  aa   000000 000003    3367  	oct	000000000003
    006420  aa   000000 000000    3368  	oct	000000000000
    006421  aa   000000 131545    3369  	oct	000000131545
    006422  aa   000000 000063    3370  	oct	000000000063
    006423  aa   000000 000003    3371  	oct	000000000003
    006424  aa   000000 000000    3372  	oct	000000000000
    006425  aa   000000 131630    3373  	oct	000000131630
    006426  aa   000000 000062    3374  	oct	000000000062
    006427  aa   000000 000003    3375  	oct	000000000003
    006430  aa   000000 000000    3376  	oct	000000000000
    006431  aa   000000 131712    3377  	oct	000000131712
    006432  aa   000000 000032    3378  	oct	000000000032
    006433  aa   000000 000003    3379  	oct	000000000003
    006434  aa   000000 000000    3380  	oct	000000000000
    006435  aa   000000 131744    3381  	oct	000000131744
    006436  aa   000000 000034    3382  	oct	000000000034
    006437  aa   000000 000003    3383  	oct	000000000003
    006440  aa   000000 000000    3384  	oct	000000000000
    006441  aa   000000 132000    3385  	oct	000000132000
    006442  aa   000000 000075    3386  	oct	000000000075
    006443  aa   000000 000003    3387  	oct	000000000003
    006444  aa   000000 000000    3388  	oct	000000000000
    006445  aa   000000 132075    3389  	oct	000000132075
    006446  aa   000000 000121    3390  	oct	000000000121
    006447  aa   000000 000001    3391  	oct	000000000001
    006450  aa   000000 000000    3392  	oct	000000000000
    006451  aa   000000 132216    3393  	oct	000000132216
    006452  aa   000000 000035    3394  	oct	000000000035
    006453  aa   000000 000002    3395  	oct	000000000002
    006454  aa   000000 000000    3396  	oct	000000000000
    006455  aa   000000 132253    3397  	oct	000000132253
    006456  aa   000000 000044    3398  	oct	000000000044
    006457  aa   000000 000003    3399  	oct	000000000003
    006460  aa   000000 000000    3400  	oct	000000000000
    006461  aa   000000 132317    3401  	oct	000000132317
    006462  aa   000000 000043    3402  	oct	000000000043
    006463  aa   000000 000002    3403  	oct	000000000002
    006464  aa   000000 000000    3404  	oct	000000000000
    006465  aa   000000 132362    3405  	oct	000000132362
    006466  aa   000000 000042    3406  	oct	000000000042
    006467  aa   000000 000003    3407  	oct	000000000003
    006470  aa   000000 000000    3408  	oct	000000000000
    006471  aa   000000 132424    3409  	oct	000000132424
    006472  aa   000000 000074    3410  	oct	000000000074
    006473  aa   000000 000003    3411  	oct	000000000003
    006474  aa   000000 000000    3412  	oct	000000000000
    006475  aa   000000 132520    3413  	oct	000000132520
    006476  aa   000000 000110    3414  	oct	000000000110
    006477  aa   000000 000002    3415  	oct	000000000002
    006500  aa   000000 000000    3416  	oct	000000000000
    006501  aa   000000 132630    3417  	oct	000000132630
    006502  aa   000000 000077    3418  	oct	000000000077
    006503  aa   000000 000003    3419  	oct	000000000003
    006504  aa   000000 000000    3420  	oct	000000000000
    006505  aa   000000 132727    3421  	oct	000000132727
    006506  aa   000000 000036    3422  	oct	000000000036
    006507  aa   000000 000003    3423  	oct	000000000003
    006510  aa   000000 000000    3424  	oct	000000000000
    006511  aa   000000 132765    3425  	oct	000000132765
    006512  aa   000000 000062    3426  	oct	000000000062
    006513  aa   000000 000003    3427  	oct	000000000003
    006514  aa   000000 000000    3428  	oct	000000000000
    006515  aa   000000 133047    3429  	oct	000000133047
    006516  aa   000000 000074    3430  	oct	000000000074
    006517  aa   000000 000003    3431  	oct	000000000003
    006520  aa   000000 000000    3432  	oct	000000000000
    006521  aa   000000 133143    3433  	oct	000000133143
    006522  aa   000000 000133    3434  	oct	000000000133
    006523  aa   000000 000003    3435  	oct	000000000003
    006524  aa   000000 000000    3436  	oct	000000000000
    006525  aa   000000 133276    3437  	oct	000000133276
    006526  aa   000000 000040    3438  	oct	000000000040
    006527  aa   000000 000003    3439  	oct	000000000003
    006530  aa   000000 000000    3440  	oct	000000000000
    006531  aa   000000 133336    3441  	oct	000000133336
    006532  aa   000000 000041    3442  	oct	000000000041
    006533  aa   000000 000003    3443  	oct	000000000003
    006534  aa   000000 000000    3444  	oct	000000000000
    006535  aa   000000 133377    3445  	oct	000000133377
    006536  aa   000000 000037    3446  	oct	000000000037
    006537  aa   000000 000003    3447  	oct	000000000003
    006540  aa   000000 000000    3448  	oct	000000000000
    006541  aa   000000 133436    3449  	oct	000000133436
    006542  aa   000000 000040    3450  	oct	000000000040
    006543  aa   000000 000003    3451  	oct	000000000003
    006544  aa   000000 000000    3452  	oct	000000000000
    006545  aa   000000 133476    3453  	oct	000000133476
    006546  aa   000000 000045    3454  	oct	000000000045
    006547  aa   000000 000002    3455  	oct	000000000002
    006550  aa   000000 000000    3456  	oct	000000000000
    006551  aa   000000 133543    3457  	oct	000000133543
    006552  aa   000000 000066    3458  	oct	000000000066
    006553  aa   000000 000003    3459  	oct	000000000003
    006554  aa   000000 000000    3460  	oct	000000000000
    006555  aa   000000 133631    3461  	oct	000000133631
    006556  aa   000000 000070    3462  	oct	000000000070
    006557  aa   000000 000003    3463  	oct	000000000003
    006560  aa   000000 000000    3464  	oct	000000000000
    006561  aa   000000 133721    3465  	oct	000000133721
    006562  aa   000000 000066    3466  	oct	000000000066
    006563  aa   000000 000003    3467  	oct	000000000003
    006564  aa   000000 000000    3468  	oct	000000000000
    006565  aa   000000 134007    3469  	oct	000000134007
    006566  aa   000000 000104    3470  	oct	000000000104
    006567  aa   000000 000003    3471  	oct	000000000003
    006570  aa   000000 000000    3472  	oct	000000000000
    006571  aa   000000 134113    3473  	oct	000000134113
    006572  aa   000000 000104    3474  	oct	000000000104
    006573  aa   000000 000003    3475  	oct	000000000003
    006574  aa   000000 000000    3476  	oct	000000000000
    006575  aa   000000 134217    3477  	oct	000000134217
    006576  aa   000000 000024    3478  	oct	000000000024
    006577  aa   000000 000003    3479  	oct	000000000003
    006600  aa   000000 000000    3480  	oct	000000000000
    006601  aa   000000 134243    3481  	oct	000000134243
    006602  aa   000000 000043    3482  	oct	000000000043
    006603  aa   000000 000003    3483  	oct	000000000003
    006604  aa   000000 000000    3484  	oct	000000000000
    006605  aa   000000 000000    3485  	oct	000000000000
    006606  aa   000000 000000    3486  	oct	000000000000
    006607  aa   000000 000000    3487  	oct	000000000000
    006610  aa   000000 000000    3488  	oct	000000000000
    006611  aa   000000 000000    3489  	oct	000000000000
    006612  aa   000000 000000    3490  	oct	000000000000
    006613  aa   000000 000000    3491  	oct	000000000000
    006614  aa   000000 000000    3492  	oct	000000000000
    006615  aa   000000 000000    3493  	oct	000000000000
    006616  aa   000000 000000    3494  	oct	000000000000
    006617  aa   000000 000000    3495  	oct	000000000000
    006620  aa   000000 000000    3496  	oct	000000000000
    006621  aa   000000 000000    3497  	oct	000000000000
    006622  aa   000000 000000    3498  	oct	000000000000
    006623  aa   000000 000000    3499  	oct	000000000000
    006624  aa   000000 000000    3500  	oct	000000000000
    006625  aa   000000 000000    3501  	oct	000000000000
    006626  aa   000000 000000    3502  	oct	000000000000
    006627  aa   000000 000000    3503  	oct	000000000000
    006630  aa   000000 000000    3504  	oct	000000000000
    006631  aa   000000 000000    3505  	oct	000000000000
    006632  aa   000000 000000    3506  	oct	000000000000
    006633  aa   000000 000000    3507  	oct	000000000000
    006634  aa   000000 000000    3508  	oct	000000000000
    006635  aa   000000 000000    3509  	oct	000000000000
    006636  aa   000000 000000    3510  	oct	000000000000
    006637  aa   000000 000000    3511  	oct	000000000000
    006640  aa   000000 000000    3512  	oct	000000000000
    006641  aa   000000 000000    3513  	oct	000000000000
    006642  aa   000000 000000    3514  	oct	000000000000
    006643  aa   000000 000000    3515  	oct	000000000000
    006644  aa   000000 000000    3516  	oct	000000000000
    006645  aa   000000 000000    3517  	oct	000000000000
    006646  aa   000000 000000    3518  	oct	000000000000
    006647  aa   000000 000000    3519  	oct	000000000000
    006650  aa   000000 000000    3520  	oct	000000000000
    006651  aa   000000 000000    3521  	oct	000000000000
    006652  aa   000000 000000    3522  	oct	000000000000
    006653  aa   000000 000000    3523  	oct	000000000000
    006654  aa   000000 000000    3524  	oct	000000000000
    006655  aa   000000 000000    3525  	oct	000000000000
    006656  aa   000000 000000    3526  	oct	000000000000
    006657  aa   000000 000000    3527  	oct	000000000000
    006660  aa   000000 000000    3528  	oct	000000000000
    006661  aa   000000 000000    3529  	oct	000000000000
    006662  aa   000000 000000    3530  	oct	000000000000
    006663  aa   000000 000000    3531  	oct	000000000000
    006664  aa   000000 000000    3532  	oct	000000000000
    006665  aa   000000 000000    3533  	oct	000000000000
    006666  aa   000000 000000    3534  	oct	000000000000
    006667  aa   000000 000000    3535  	oct	000000000000
    006670  aa   000000 000000    3536  	oct	000000000000
    006671  aa   000000 134306    3537  	oct	000000134306
    006672  aa   000000 000027    3538  	oct	000000000027
    006673  aa   000000 000003    3539  	oct	000000000003
    006674  aa   000000 000000    3540  	oct	000000000000
    006675  aa   000000 134335    3541  	oct	000000134335
    006676  aa   000000 000044    3542  	oct	000000000044
    006677  aa   000000 000003    3543  	oct	000000000003
    006700  aa   000000 000000    3544  	oct	000000000000
    006701  aa   000000 134401    3545  	oct	000000134401
    006702  aa   000000 000026    3546  	oct	000000000026
    006703  aa   000000 000003    3547  	oct	000000000003
    006704  aa   000000 000000    3548  	oct	000000000000
    006705  aa   000000 134427    3549  	oct	000000134427
    006706  aa   000000 000073    3550  	oct	000000000073
    006707  aa   000000 000003    3551  	oct	000000000003
    006710  aa   000000 000000    3552  	oct	000000000000
    006711  aa   000000 134522    3553  	oct	000000134522
    006712  aa   000000 000137    3554  	oct	000000000137
    006713  aa   000000 000003    3555  	oct	000000000003
    006714  aa   000000 000000    3556  	oct	000000000000
    006715  aa   000000 134661    3557  	oct	000000134661
    006716  aa   000000 000035    3558  	oct	000000000035
    006717  aa   000000 000003    3559  	oct	000000000003
    006720  aa   000000 000000    3560  	oct	000000000000
    006721  aa   000000 134716    3561  	oct	000000134716
    006722  aa   000000 000025    3562  	oct	000000000025
    006723  aa   000000 000003    3563  	oct	000000000003
    006724  aa   000000 000000    3564  	oct	000000000000
    006725  aa   000000 134743    3565  	oct	000000134743
    006726  aa   000000 000032    3566  	oct	000000000032
    006727  aa   000000 000003    3567  	oct	000000000003
    006730  aa   000000 000000    3568  	oct	000000000000
    006731  aa   000000 134775    3569  	oct	000000134775
    006732  aa   000000 000026    3570  	oct	000000000026
    006733  aa   000000 000003    3571  	oct	000000000003
    006734  aa   000000 000000    3572  	oct	000000000000
    006735  aa   000000 135023    3573  	oct	000000135023
    006736  aa   000000 000027    3574  	oct	000000000027
    006737  aa   000000 000003    3575  	oct	000000000003
    006740  aa   000000 000000    3576  	oct	000000000000
    006741  aa   000000 135052    3577  	oct	000000135052
    006742  aa   000000 000035    3578  	oct	000000000035
    006743  aa   000000 000003    3579  	oct	000000000003
    006744  aa   000000 000000    3580  	oct	000000000000
    006745  aa   000000 135107    3581  	oct	000000135107
    006746  aa   000000 000046    3582  	oct	000000000046
    006747  aa   000000 000003    3583  	oct	000000000003
    006750  aa   000000 000000    3584  	oct	000000000000
    006751  aa   000000 135155    3585  	oct	000000135155
    006752  aa   000000 000054    3586  	oct	000000000054
    006753  aa   000000 000003    3587  	oct	000000000003
    006754  aa   000000 000000    3588  	oct	000000000000
    006755  aa   000000 135231    3589  	oct	000000135231
    006756  aa   000000 000073    3590  	oct	000000000073
    006757  aa   000000 000003    3591  	oct	000000000003
    006760  aa   000000 000000    3592  	oct	000000000000
    006761  aa   000000 135324    3593  	oct	000000135324
    006762  aa   000000 000026    3594  	oct	000000000026
    006763  aa   000000 000003    3595  	oct	000000000003
    006764  aa   000000 000000    3596  	oct	000000000000
    006765  aa   000000 135352    3597  	oct	000000135352
    006766  aa   000000 000041    3598  	oct	000000000041
    006767  aa   000000 000003    3599  	oct	000000000003
    006770  aa   000000 000000    3600  	oct	000000000000
    006771  aa   000000 135413    3601  	oct	000000135413
    006772  aa   000000 000143    3602  	oct	000000000143
    006773  aa   000000 000003    3603  	oct	000000000003
    006774  aa   000000 000000    3604  	oct	000000000000
    006775  aa   000000 135556    3605  	oct	000000135556
    006776  aa   000000 000044    3606  	oct	000000000044
    006777  aa   000000 000003    3607  	oct	000000000003
    007000  aa   000000 000000    3608  	oct	000000000000
    007001  aa   000000 135622    3609  	oct	000000135622
    007002  aa   000000 000026    3610  	oct	000000000026
    007003  aa   000000 000003    3611  	oct	000000000003
    007004  aa   000000 000000    3612  	oct	000000000000
    007005  aa   000000 135650    3613  	oct	000000135650
    007006  aa   000000 000056    3614  	oct	000000000056
    007007  aa   000000 000003    3615  	oct	000000000003
    007010  aa   000000 000000    3616  	oct	000000000000
    007011  aa   000000 135726    3617  	oct	000000135726
    007012  aa   000000 000033    3618  	oct	000000000033
    007013  aa   000000 000003    3619  	oct	000000000003
    007014  aa   000000 000000    3620  	oct	000000000000
    007015  aa   000000 135761    3621  	oct	000000135761
    007016  aa   000000 000040    3622  	oct	000000000040
    007017  aa   000000 000003    3623  	oct	000000000003
    007020  aa   000000 000000    3624  	oct	000000000000
    007021  aa   000000 136021    3625  	oct	000000136021
    007022  aa   000000 000033    3626  	oct	000000000033
    007023  aa   000000 000003    3627  	oct	000000000003
    007024  aa   000000 000000    3628  	oct	000000000000
    007025  aa   000000 136054    3629  	oct	000000136054
    007026  aa   000000 000033    3630  	oct	000000000033
    007027  aa   000000 000003    3631  	oct	000000000003
    007030  aa   000000 000000    3632  	oct	000000000000
    007031  aa   000000 136107    3633  	oct	000000136107
    007032  aa   000000 000070    3634  	oct	000000000070
    007033  aa   000000 000003    3635  	oct	000000000003
    007034  aa   000000 000000    3636  	oct	000000000000
    007035  aa   000000 136177    3637  	oct	000000136177
    007036  aa   000000 000036    3638  	oct	000000000036
    007037  aa   000000 000003    3639  	oct	000000000003
    007040  aa   000000 000000    3640  	oct	000000000000
    007041  aa   000000 136235    3641  	oct	000000136235
    007042  aa   000000 000063    3642  	oct	000000000063
    007043  aa   000000 000003    3643  	oct	000000000003
    007044  aa   000000 000000    3644  	oct	000000000000
    007045  aa   000000 136320    3645  	oct	000000136320
    007046  aa   000000 000046    3646  	oct	000000000046
    007047  aa   000000 000003    3647  	oct	000000000003
    007050  aa   000000 000000    3648  	oct	000000000000
    007051  aa   000000 136366    3649  	oct	000000136366
    007052  aa   000000 000036    3650  	oct	000000000036
    007053  aa   000000 000004    3651  	oct	000000000004
    007054  aa   000000 000000    3652  	oct	000000000000
    007055  aa   000000 136424    3653  	oct	000000136424
    007056  aa   000000 000031    3654  	oct	000000000031
    007057  aa   000000 000004    3655  	oct	000000000004
    007060  aa   000000 000000    3656  	oct	000000000000
    007061  aa   000000 136455    3657  	oct	000000136455
    007062  aa   000000 000075    3658  	oct	000000000075
    007063  aa   000000 000003    3659  	oct	000000000003
    007064  aa   000000 000000    3660  	oct	000000000000
    007065  aa   000000 136552    3661  	oct	000000136552
    007066  aa   000000 000071    3662  	oct	000000000071
    007067  aa   000000 000003    3663  	oct	000000000003
    007070  aa   000000 000000    3664  	oct	000000000000
    007071  aa   000000 136643    3665  	oct	000000136643
    007072  aa   000000 000074    3666  	oct	000000000074
    007073  aa   000000 000003    3667  	oct	000000000003
    007074  aa   000000 000000    3668  	oct	000000000000
    007075  aa   000000 136737    3669  	oct	000000136737
    007076  aa   000000 000067    3670  	oct	000000000067
    007077  aa   000000 000003    3671  	oct	000000000003
    007100  aa   000000 000000    3672  	oct	000000000000
    007101  aa   000000 137026    3673  	oct	000000137026
    007102  aa   000000 000030    3674  	oct	000000000030
    007103  aa   000000 000003    3675  	oct	000000000003
    007104  aa   000000 000000    3676  	oct	000000000000
    007105  aa   000000 137056    3677  	oct	000000137056
    007106  aa   000000 000010    3678  	oct	000000000010
    007107  aa   000000 000004    3679  	oct	000000000004
    007110  aa   000000 000000    3680  	oct	000000000000
    007111  aa   000000 137066    3681  	oct	000000137066
    007112  aa   000000 000041    3682  	oct	000000000041
    007113  aa   000000 000003    3683  	oct	000000000003
    007114  aa   000000 000000    3684  	oct	000000000000
    007115  aa   000000 137127    3685  	oct	000000137127
    007116  aa   000000 000122    3686  	oct	000000000122
    007117  aa   000000 000001    3687  	oct	000000000001
    007120  aa   000000 000000    3688  	oct	000000000000
    007121  aa   000000 137251    3689  	oct	000000137251
    007122  aa   000000 000062    3690  	oct	000000000062
    007123  aa   000000 000003    3691  	oct	000000000003
    007124  aa   000000 000000    3692  	oct	000000000000
    007125  aa   000000 137333    3693  	oct	000000137333
    007126  aa   000000 000123    3694  	oct	000000000123
    007127  aa   000000 000001    3695  	oct	000000000001
    007130  aa   000000 000000    3696  	oct	000000000000
    007131  aa   000000 137456    3697  	oct	000000137456
    007132  aa   000000 000071    3698  	oct	000000000071
    007133  aa   000000 000002    3699  	oct	000000000002
    007134  aa   000000 000000    3700  	oct	000000000000
    007135  aa   000000 137547    3701  	oct	000000137547
    007136  aa   000000 000060    3702  	oct	000000000060
    007137  aa   000000 000002    3703  	oct	000000000002
    007140  aa   000000 000000    3704  	oct	000000000000
    007141  aa   000000 137627    3705  	oct	000000137627
    007142  aa   000000 000147    3706  	oct	000000000147
    007143  aa   000000 000003    3707  	oct	000000000003
    007144  aa   000000 000000    3708  	oct	000000000000
    007145  aa   000000 137776    3709  	oct	000000137776
    007146  aa   000000 000146    3710  	oct	000000000146
    007147  aa   000000 000003    3711  	oct	000000000003
    007150  aa   000000 000000    3712  	oct	000000000000
    007151  aa   000000 140144    3713  	oct	000000140144
    007152  aa   000000 000057    3714  	oct	000000000057
    007153  aa   000000 000003    3715  	oct	000000000003
    007154  aa   000000 000000    3716  	oct	000000000000
    007155  aa   000000 140223    3717  	oct	000000140223
    007156  aa   000000 000061    3718  	oct	000000000061
    007157  aa   000000 000003    3719  	oct	000000000003
    007160  aa   000000 000000    3720  	oct	000000000000
    007161  aa   000000 140304    3721  	oct	000000140304
    007162  aa   000000 000030    3722  	oct	000000000030
    007163  aa   000000 000003    3723  	oct	000000000003
    007164  aa   000000 000000    3724  	oct	000000000000
    007165  aa   000000 140334    3725  	oct	000000140334
    007166  aa   000000 000046    3726  	oct	000000000046
    007167  aa   000000 000003    3727  	oct	000000000003
    007170  aa   000000 000000    3728  	oct	000000000000
    007171  aa   000000 140402    3729  	oct	000000140402
    007172  aa   000000 000060    3730  	oct	000000000060
    007173  aa   000000 000003    3731  	oct	000000000003
    007174  aa   000000 000000    3732  	oct	000000000000
    007175  aa   000000 140462    3733  	oct	000000140462
    007176  aa   000000 000056    3734  	oct	000000000056
    007177  aa   000000 000003    3735  	oct	000000000003
    007200  aa   000000 000000    3736  	oct	000000000000
    007201  aa   000000 140540    3737  	oct	000000140540
    007202  aa   000000 000061    3738  	oct	000000000061
    007203  aa   000000 000003    3739  	oct	000000000003
    007204  aa   000000 000000    3740  	oct	000000000000
    007205  aa   000000 140621    3741  	oct	000000140621
    007206  aa   000000 000113    3742  	oct	000000000113
    007207  aa   000000 000003    3743  	oct	000000000003
    007210  aa   000000 000000    3744  	oct	000000000000
    007211  aa   000000 140734    3745  	oct	000000140734
    007212  aa   000000 000034    3746  	oct	000000000034
    007213  aa   000000 000003    3747  	oct	000000000003
    007214  aa   000000 000000    3748  	oct	000000000000
    007215  aa   000000 140770    3749  	oct	000000140770
    007216  aa   000000 000061    3750  	oct	000000000061
    007217  aa   000000 000001    3751  	oct	000000000001
    007220  aa   000000 000000    3752  	oct	000000000000
    007221  aa   000000 141051    3753  	oct	000000141051
    007222  aa   000000 000147    3754  	oct	000000000147
    007223  aa   000000 000001    3755  	oct	000000000001
    007224  aa   000000 000000    3756  	oct	000000000000
    007225  aa   000000 141220    3757  	oct	000000141220
    007226  aa   000000 000103    3758  	oct	000000000103
    007227  aa   000000 000001    3759  	oct	000000000001
    007230  aa   000000 000055    3760  	oct	000000000055
    007231  aa   000000 141323    3761  	oct	000000141323
    007232  aa   000000 000033    3762  	oct	000000000033
    007233  aa   000000 000003    3763  	oct	000000000003
    007234  aa   000000 000000    3764  	oct	000000000000
    007235  aa   000000 141356    3765  	oct	000000141356
    007236  aa   000000 000061    3766  	oct	000000000061
    007237  aa   000000 000003    3767  	oct	000000000003
    007240  aa   000000 000000    3768  	oct	000000000000
    007241  aa   000000 141437    3769  	oct	000000141437
    007242  aa   000000 000100    3770  	oct	000000000100
    007243  aa   000000 000003    3771  	oct	000000000003
    007244  aa   000000 000000    3772  	oct	000000000000
    007245  aa   000000 141537    3773  	oct	000000141537
    007246  aa   000000 000046    3774  	oct	000000000046
    007247  aa   000000 000003    3775  	oct	000000000003
    007250  aa   000000 000000    3776  	oct	000000000000
    007251  aa   000000 141605    3777  	oct	000000141605
    007252  aa   000000 000051    3778  	oct	000000000051
    007253  aa   000000 000003    3779  	oct	000000000003
    007254  aa   000000 000000    3780  	oct	000000000000
    007255  aa   000000 141656    3781  	oct	000000141656
    007256  aa   000000 000030    3782  	oct	000000000030
    007257  aa   000000 000003    3783  	oct	000000000003
    007260  aa   000000 000000    3784  	oct	000000000000
    007261  aa   000000 141706    3785  	oct	000000141706
    007262  aa   000000 000030    3786  	oct	000000000030
    007263  aa   000000 000003    3787  	oct	000000000003
    007264  aa   000000 000000    3788  	oct	000000000000
    007265  aa   000000 141736    3789  	oct	000000141736
    007266  aa   000000 000052    3790  	oct	000000000052
    007267  aa   000000 000001    3791  	oct	000000000001
    007270  aa   000000 000000    3792  	oct	000000000000
    007271  aa   000000 142010    3793  	oct	000000142010
    007272  aa   000000 000065    3794  	oct	000000000065
    007273  aa   000000 000002    3795  	oct	000000000002
    007274  aa   000000 000000    3796  	oct	000000000000
    007275  aa   000000 142075    3797  	oct	000000142075
    007276  aa   000000 000133    3798  	oct	000000000133
    007277  aa   000000 000002    3799  	oct	000000000002
    007300  aa   000000 000000    3800  	oct	000000000000
    007301  aa   000000 142230    3801  	oct	000000142230
    007302  aa   000000 000114    3802  	oct	000000000114
    007303  aa   000000 000002    3803  	oct	000000000002
    007304  aa   000000 000000    3804  	oct	000000000000
    007305  aa   000000 142344    3805  	oct	000000142344
    007306  aa   000000 000047    3806  	oct	000000000047
    007307  aa   000000 000003    3807  	oct	000000000003
    007310  aa   000000 000000    3808  	oct	000000000000
    007311  aa   000000 142413    3809  	oct	000000142413
    007312  aa   000000 000131    3810  	oct	000000000131
    007313  aa   000000 000002    3811  	oct	000000000002
    007314  aa   000000 000000    3812  	oct	000000000000
    007315  aa   000000 142544    3813  	oct	000000142544
    007316  aa   000000 000056    3814  	oct	000000000056
    007317  aa   000000 000002    3815  	oct	000000000002
    007320  aa   000000 000000    3816  	oct	000000000000
    007321  aa   000000 142622    3817  	oct	000000142622
    007322  aa   000000 000100    3818  	oct	000000000100
    007323  aa   000000 000003    3819  	oct	000000000003
    007324  aa   000000 000000    3820  	oct	000000000000
    007325  aa   000000 142722    3821  	oct	000000142722
    007326  aa   000000 000071    3822  	oct	000000000071
    007327  aa   000000 000003    3823  	oct	000000000003
    007330  aa   000000 000000    3824  	oct	000000000000
    007331  aa   000000 143013    3825  	oct	000000143013
    007332  aa   000000 000073    3826  	oct	000000000073
    007333  aa   000000 000003    3827  	oct	000000000003
    007334  aa   000000 000000    3828  	oct	000000000000
    007335  aa   000000 143106    3829  	oct	000000143106
    007336  aa   000000 000124    3830  	oct	000000000124
    007337  aa   000000 000002    3831  	oct	000000000002
    007340  aa   000000 000000    3832  	oct	000000000000
    007341  aa   000000 143232    3833  	oct	000000143232
    007342  aa   000000 000134    3834  	oct	000000000134
    007343  aa   000000 000002    3835  	oct	000000000002
    007344  aa   000000 000000    3836  	oct	000000000000
    007345  aa   000000 143366    3837  	oct	000000143366
    007346  aa   000000 000124    3838  	oct	000000000124
    007347  aa   000000 000002    3839  	oct	000000000002
    007350  aa   000000 000000    3840  	oct	000000000000
    007351  aa   000000 143512    3841  	oct	000000143512
    007352  aa   000000 000123    3842  	oct	000000000123
    007353  aa   000000 000002    3843  	oct	000000000002
    007354  aa   000000 000000    3844  	oct	000000000000
    007355  aa   000000 143635    3845  	oct	000000143635
    007356  aa   000000 000107    3846  	oct	000000000107
    007357  aa   000000 000002    3847  	oct	000000000002
    007360  aa   000000 000000    3848  	oct	000000000000
    007361  aa   000000 143744    3849  	oct	000000143744
    007362  aa   000000 000031    3850  	oct	000000000031
    007363  aa   000000 000003    3851  	oct	000000000003
    007364  aa   000000 000000    3852  	oct	000000000000
    007365  aa   000000 143775    3853  	oct	000000143775
    007366  aa   000000 000054    3854  	oct	000000000054
    007367  aa   000000 000003    3855  	oct	000000000003
    007370  aa   000000 000000    3856  	oct	000000000000
    007371  aa   000000 144051    3857  	oct	000000144051
    007372  aa   000000 000056    3858  	oct	000000000056
    007373  aa   000000 000003    3859  	oct	000000000003
    007374  aa   000000 000000    3860  	oct	000000000000
    007375  aa   000000 144127    3861  	oct	000000144127
    007376  aa   000000 000053    3862  	oct	000000000053
    007377  aa   000000 000002    3863  	oct	000000000002
    007400  aa   000000 000000    3864  	oct	000000000000
    007401  aa   000000 144202    3865  	oct	000000144202
    007402  aa   000000 000013    3866  	oct	000000000013
    007403  aa   000000 000003    3867  	oct	000000000003
    007404  aa   000000 000012    3868  	oct	000000000012
    007405  aa   000000 144215    3869  	oct	000000144215
    007406  aa   000000 000023    3870  	oct	000000000023
    007407  aa   000000 000003    3871  	oct	000000000003
    007410  aa   000000 000022    3872  	oct	000000000022
    007411  aa   000000 144240    3873  	oct	000000144240
    007412  aa   000000 000076    3874  	oct	000000000076
    007413  aa   000000 000003    3875  	oct	000000000003
    007414  aa   000000 000000    3876  	oct	000000000000
    007415  aa   000000 144336    3877  	oct	000000144336
    007416  aa   000000 000061    3878  	oct	000000000061
    007417  aa   000000 000003    3879  	oct	000000000003
    007420  aa   000000 000000    3880  	oct	000000000000
    007421  aa   000000 144417    3881  	oct	000000144417
    007422  aa   000000 000111    3882  	oct	000000000111
    007423  aa   000000 000003    3883  	oct	000000000003
    007424  aa   000000 000000    3884  	oct	000000000000
    007425  aa   000000 144530    3885  	oct	000000144530
    007426  aa   000000 000035    3886  	oct	000000000035
    007427  aa   000000 000001    3887  	oct	000000000001
    007430  aa   000000 000000    3888  	oct	000000000000
    007431  aa   000000 144565    3889  	oct	000000144565
    007432  aa   000000 000030    3890  	oct	000000000030
    007433  aa   000000 000001    3891  	oct	000000000001
    007434  aa   000000 000000    3892  	oct	000000000000
    007435  aa   000000 144615    3893  	oct	000000144615
    007436  aa   000000 000027    3894  	oct	000000000027
    007437  aa   000000 000004    3895  	oct	000000000004
    007440  aa   000000 000000    3896  	oct	000000000000
    007441  aa   000000 144644    3897  	oct	000000144644
    007442  aa   000000 000041    3898  	oct	000000000041
    007443  aa   000000 000003    3899  	oct	000000000003
    007444  aa   000000 000040    3900  	oct	000000000040
    007445  aa   000000 144705    3901  	oct	000000144705
    007446  aa   000000 000052    3902  	oct	000000000052
    007447  aa   000000 000004    3903  	oct	000000000004
    007450  aa   000000 000000    3904  	oct	000000000000
    007451  aa   000000 144757    3905  	oct	000000144757
    007452  aa   000000 000024    3906  	oct	000000000024
    007453  aa   000000 000003    3907  	oct	000000000003
    007454  aa   000000 000022    3908  	oct	000000000022
    007455  aa   000000 145003    3909  	oct	000000145003
    007456  aa   000000 000121    3910  	oct	000000000121
    007457  aa   000000 000003    3911  	oct	000000000003
    007460  aa   000000 000000    3912  	oct	000000000000
    007461  aa   000000 145124    3913  	oct	000000145124
    007462  aa   000000 000050    3914  	oct	000000000050
    007463  aa   000000 000004    3915  	oct	000000000004
    007464  aa   000000 000000    3916  	oct	000000000000
    007465  aa   000000 145174    3917  	oct	000000145174
    007466  aa   000000 000101    3918  	oct	000000000101
    007467  aa   000000 000003    3919  	oct	000000000003
    007470  aa   000000 000000    3920  	oct	000000000000
    007471  aa   000000 145275    3921  	oct	000000145275
    007472  aa   000000 000054    3922  	oct	000000000054
    007473  aa   000000 000003    3923  	oct	000000000003
    007474  aa   000000 000000    3924  	oct	000000000000
    007475  aa   000000 145351    3925  	oct	000000145351
    007476  aa   000000 000045    3926  	oct	000000000045
    007477  aa   000000 000003    3927  	oct	000000000003
    007500  aa   000000 000000    3928  	oct	000000000000
    007501  aa   000000 145416    3929  	oct	000000145416
    007502  aa   000000 000054    3930  	oct	000000000054
    007503  aa   000000 000003    3931  	oct	000000000003
    007504  aa   000000 000000    3932  	oct	000000000000
    007505  aa   000000 145472    3933  	oct	000000145472
    007506  aa   000000 000126    3934  	oct	000000000126
    007507  aa   000000 000004    3935  	oct	000000000004
    007510  aa   000000 000000    3936  	oct	000000000000
    007511  aa   000000 145620    3937  	oct	000000145620
    007512  aa   000000 000074    3938  	oct	000000000074
    007513  aa   000000 000004    3939  	oct	000000000004
    007514  aa   000000 000000    3940  	oct	000000000000
    007515  aa   000000 145714    3941  	oct	000000145714
    007516  aa   000000 000120    3942  	oct	000000000120
    007517  aa   000000 000004    3943  	oct	000000000004
    007520  aa   000000 000000    3944  	oct	000000000000
    007521  aa   000000 146034    3945  	oct	000000146034
    007522  aa   000000 000046    3946  	oct	000000000046
    007523  aa   000000 000003    3947  	oct	000000000003
    007524  aa   000000 000045    3948  	oct	000000000045
    007525  aa   000000 146102    3949  	oct	000000146102
    007526  aa   000000 000044    3950  	oct	000000000044
    007527  aa   000000 000003    3951  	oct	000000000003
    007530  aa   000000 000043    3952  	oct	000000000043
    007531  aa   000000 146146    3953  	oct	000000146146
    007532  aa   000000 000060    3954  	oct	000000000060
    007533  aa   000000 000003    3955  	oct	000000000003
    007534  aa   000000 000000    3956  	oct	000000000000
    007535  aa   000000 146226    3957  	oct	000000146226
    007536  aa   000000 000054    3958  	oct	000000000054
    007537  aa   000000 000002    3959  	oct	000000000002
    007540  aa   000000 000000    3960  	oct	000000000000
    007541  aa   000000 146302    3961  	oct	000000146302
    007542  aa   000000 000056    3962  	oct	000000000056
    007543  aa   000000 000003    3963  	oct	000000000003
    007544  aa   000000 000000    3964  	oct	000000000000
    007545  aa   000000 146360    3965  	oct	000000146360
    007546  aa   000000 000073    3966  	oct	000000000073
    007547  aa   000000 000002    3967  	oct	000000000002
    007550  aa   000000 000006    3968  	oct	000000000006
    007551  aa   000000 146453    3969  	oct	000000146453
    007552  aa   000000 000052    3970  	oct	000000000052
    007553  aa   000000 000002    3971  	oct	000000000002
    007554  aa   000000 000000    3972  	oct	000000000000
    007555  aa   000000 146525    3973  	oct	000000146525
    007556  aa   000000 000041    3974  	oct	000000000041
    007557  aa   000000 000002    3975  	oct	000000000002
    007560  aa   000000 000000    3976  	oct	000000000000
    007561  aa   000000 146566    3977  	oct	000000146566
    007562  aa   000000 000030    3978  	oct	000000000030
    007563  aa   000000 000002    3979  	oct	000000000002
    007564  aa   000000 000000    3980  	oct	000000000000
    007565  aa   000000 146616    3981  	oct	000000146616
    007566  aa   000000 000057    3982  	oct	000000000057
    007567  aa   000000 000002    3983  	oct	000000000002
    007570  aa   000000 000000    3984  	oct	000000000000
    007571  aa   000000 146675    3985  	oct	000000146675
    007572  aa   000000 000024    3986  	oct	000000000024
    007573  aa   000000 000002    3987  	oct	000000000002
    007574  aa   000000 000000    3988  	oct	000000000000
    007575  aa   000000 146721    3989  	oct	000000146721
    007576  aa   000000 000026    3990  	oct	000000000026
    007577  aa   000000 000002    3991  	oct	000000000002
    007600  aa   000000 000000    3992  	oct	000000000000
    007601  aa   000000 146747    3993  	oct	000000146747
    007602  aa   000000 000033    3994  	oct	000000000033
    007603  aa   000000 000031    3995  	oct	000000000031
    007604  aa   000000 000000    3996  	oct	000000000000
    007605  aa   000000 147002    3997  	oct	000000147002
    007606  aa   000000 000021    3998  	oct	000000000021
    007607  aa   000000 000031    3999  	oct	000000000031
    007610  aa   000000 000000    4000  	oct	000000000000
    007611  aa   000000 147023    4001  	oct	000000147023
    007612  aa   000000 000057    4002  	oct	000000000057
    007613  aa   000000 000031    4003  	oct	000000000031
    007614  aa   000000 000000    4004  	oct	000000000000
    007615  aa   000000 147102    4005  	oct	000000147102
    007616  aa   000000 000040    4006  	oct	000000000040
    007617  aa   000000 000002    4007  	oct	000000000002
    007620  aa   000000 000000    4008  	oct	000000000000
    007621  aa   000000 147142    4009  	oct	000000147142
    007622  aa   000000 000036    4010  	oct	000000000036
    007623  aa   000000 000002    4011  	oct	000000000002
    007624  aa   000000 000000    4012  	oct	000000000000
    007625  aa   000000 147200    4013  	oct	000000147200
    007626  aa   000000 000025    4014  	oct	000000000025
    007627  aa   000000 000002    4015  	oct	000000000002
    007630  aa   000000 000000    4016  	oct	000000000000
    007631  aa   000000 147225    4017  	oct	000000147225
    007632  aa   000000 000056    4018  	oct	000000000056
    007633  aa   000000 000002    4019  	oct	000000000002
    007634  aa   000000 000000    4020  	oct	000000000000
    007635  aa   000000 147303    4021  	oct	000000147303
    007636  aa   000000 000031    4022  	oct	000000000031
    007637  aa   000000 000002    4023  	oct	000000000002
    007640  aa   000000 000000    4024  	oct	000000000000
    007641  aa   000000 147334    4025  	oct	000000147334
    007642  aa   000000 000017    4026  	oct	000000000017
    007643  aa   000000 000002    4027  	oct	000000000002
    007644  aa   000000 000000    4028  	oct	000000000000
    007645  aa   000000 147353    4029  	oct	000000147353
    007646  aa   000000 000031    4030  	oct	000000000031
    007647  aa   000000 000002    4031  	oct	000000000002
    007650  aa   000000 000000    4032  	oct	000000000000
    007651  aa   000000 147404    4033  	oct	000000147404
    007652  aa   000000 000023    4034  	oct	000000000023
    007653  aa   000000 000002    4035  	oct	000000000002
    007654  aa   000000 000000    4036  	oct	000000000000
    007655  aa   000000 147427    4037  	oct	000000147427
    007656  aa   000000 000037    4038  	oct	000000000037
    007657  aa   000000 000002    4039  	oct	000000000002
    007660  aa   000000 000000    4040  	oct	000000000000
    007661  aa   000000 147466    4041  	oct	000000147466
    007662  aa   000000 000025    4042  	oct	000000000025
    007663  aa   000000 000002    4043  	oct	000000000002
    007664  aa   000000 000000    4044  	oct	000000000000
    007665  aa   000000 147513    4045  	oct	000000147513
    007666  aa   000000 000022    4046  	oct	000000000022
    007667  aa   000000 000002    4047  	oct	000000000002
    007670  aa   000000 000000    4048  	oct	000000000000
    007671  aa   000000 147535    4049  	oct	000000147535
    007672  aa   000000 000032    4050  	oct	000000000032
    007673  aa   000000 000002    4051  	oct	000000000002
    007674  aa   000000 000000    4052  	oct	000000000000
    007675  aa   000000 147567    4053  	oct	000000147567
    007676  aa   000000 000025    4054  	oct	000000000025
    007677  aa   000000 000002    4055  	oct	000000000002
    007700  aa   000000 000000    4056  	oct	000000000000
    007701  aa   000000 147614    4057  	oct	000000147614
    007702  aa   000000 000022    4058  	oct	000000000022
    007703  aa   000000 000002    4059  	oct	000000000002
    007704  aa   000000 000000    4060  	oct	000000000000
    007705  aa   000000 147636    4061  	oct	000000147636
    007706  aa   000000 000034    4062  	oct	000000000034
    007707  aa   000000 000002    4063  	oct	000000000002
    007710  aa   000000 000000    4064  	oct	000000000000
    007711  aa   000000 147672    4065  	oct	000000147672
    007712  aa   000000 000032    4066  	oct	000000000032
    007713  aa   000000 000002    4067  	oct	000000000002
    007714  aa   000000 000000    4068  	oct	000000000000
    007715  aa   000000 147724    4069  	oct	000000147724
    007716  aa   000000 000021    4070  	oct	000000000021
    007717  aa   000000 000002    4071  	oct	000000000002
    007720  aa   000000 000000    4072  	oct	000000000000
    007721  aa   000000 147745    4073  	oct	000000147745
    007722  aa   000000 000032    4074  	oct	000000000032
    007723  aa   000000 000002    4075  	oct	000000000002
    007724  aa   000000 000000    4076  	oct	000000000000
    007725  aa   000000 147777    4077  	oct	000000147777
    007726  aa   000000 000045    4078  	oct	000000000045
    007727  aa   000000 000031    4079  	oct	000000000031
    007730  aa   000000 000000    4080  	oct	000000000000
    007731  aa   000000 150044    4081  	oct	000000150044
    007732  aa   000000 000016    4082  	oct	000000000016
    007733  aa   000000 000020    4083  	oct	000000000020
    007734  aa   000000 000000    4084  	oct	000000000000
    007735  aa   000000 150062    4085  	oct	000000150062
    007736  aa   000000 000015    4086  	oct	000000000015
    007737  aa   000000 000002    4087  	oct	000000000002
    007740  aa   000000 000000    4088  	oct	000000000000
    007741  aa   000000 150077    4089  	oct	000000150077
    007742  aa   000000 000017    4090  	oct	000000000017
    007743  aa   000000 000002    4091  	oct	000000000002
    007744  aa   000000 000000    4092  	oct	000000000000
    007745  aa   000000 150116    4093  	oct	000000150116
    007746  aa   000000 000021    4094  	oct	000000000021
    007747  aa   000000 000002    4095  	oct	000000000002
    007750  aa   000000 000000    4096  	oct	000000000000
    007751  aa   000000 150137    4097  	oct	000000150137
    007752  aa   000000 000023    4098  	oct	000000000023
    007753  aa   000000 000002    4099  	oct	000000000002
    007754  aa   000000 000000    4100  	oct	000000000000
    007755  aa   000000 150162    4101  	oct	000000150162
    007756  aa   000000 000051    4102  	oct	000000000051
    007757  aa   000000 000031    4103  	oct	000000000031
    007760  aa   000000 000000    4104  	oct	000000000000
    007761  aa   000000 150233    4105  	oct	000000150233
    007762  aa   000000 000023    4106  	oct	000000000023
    007763  aa   000000 000020    4107  	oct	000000000020
    007764  aa   000000 000000    4108  	oct	000000000000
    007765  aa   000000 150256    4109  	oct	000000150256
    007766  aa   000000 000012    4110  	oct	000000000012
    007767  aa   000000 000000    4111  	oct	000000000000
    007770  aa   000000 000000    4112  	oct	000000000000
    007771  aa   000000 150270    4113  	oct	000000150270
    007772  aa   000000 000026    4114  	oct	000000000026
    007773  aa   000000 000000    4115  	oct	000000000000
    007774  aa   000000 000000    4116  	oct	000000000000
    007775  aa   000000 150316    4117  	oct	000000150316
    007776  aa   000000 000025    4118  	oct	000000000025
    007777  aa   000000 000000    4119  	oct	000000000000
    010000  aa   000000 000000    4120  	oct	000000000000
    010001  aa   000000 150343    4121  	oct	000000150343
    010002  aa   000000 000014    4122  	oct	000000000014
    010003  aa   000000 000020    4123  	oct	000000000020
    010004  aa   000000 000000    4124  	oct	000000000000
    010005  aa   000000 150357    4125  	oct	000000150357
    010006  aa   000000 000025    4126  	oct	000000000025
    010007  aa   000000 000031    4127  	oct	000000000031
    010010  aa   000000 000000    4128  	oct	000000000000
    010011  aa   000000 150404    4129  	oct	000000150404
    010012  aa   000000 000021    4130  	oct	000000000021
    010013  aa   000000 000000    4131  	oct	000000000000
    010014  aa   000000 000000    4132  	oct	000000000000
    010015  aa   000000 150425    4133  	oct	000000150425
    010016  aa   000000 000034    4134  	oct	000000000034
    010017  aa   000000 000020    4135  	oct	000000000020
    010020  aa   000000 000000    4136  	oct	000000000000
    010021  aa   000000 150461    4137  	oct	000000150461
    010022  aa   000000 000021    4138  	oct	000000000021
    010023  aa   000000 000000    4139  	oct	000000000000
    010024  aa   000000 000000    4140  	oct	000000000000
    010025  aa   000000 150502    4141  	oct	000000150502
    010026  aa   000000 000055    4142  	oct	000000000055
    010027  aa   000000 000031    4143  	oct	000000000031
    010030  aa   000000 000000    4144  	oct	000000000000
    010031  aa   000000 150557    4145  	oct	000000150557
    010032  aa   000000 000056    4146  	oct	000000000056
    010033  aa   000000 000031    4147  	oct	000000000031
    010034  aa   000000 000000    4148  	oct	000000000000
    010035  aa   000000 150635    4149  	oct	000000150635
    010036  aa   000000 000025    4150  	oct	000000000025
    010037  aa   000000 000010    4151  	oct	000000000010
    010040  aa   000000 000000    4152  	oct	000000000000
    010041  aa   000000 150662    4153  	oct	000000150662
    010042  aa   000000 000021    4154  	oct	000000000021
    010043  aa   000000 000002    4155  	oct	000000000002
    010044  aa   000000 000000    4156  	oct	000000000000
    010045  aa   000000 150703    4157  	oct	000000150703
    010046  aa   000000 000040    4158  	oct	000000000040
    010047  aa   000000 000002    4159  	oct	000000000002
    010050  aa   000000 000000    4160  	oct	000000000000
    010051  aa   000000 150743    4161  	oct	000000150743
    010052  aa   000000 000020    4162  	oct	000000000020
    010053  aa   000000 000020    4163  	oct	000000000020
    010054  aa   000000 000000    4164  	oct	000000000000
    010055  aa   000000 150763    4165  	oct	000000150763
    010056  aa   000000 000016    4166  	oct	000000000016
    010057  aa   000000 000020    4167  	oct	000000000020
    010060  aa   000000 000000    4168  	oct	000000000000
    010061  aa   000000 151001    4169  	oct	000000151001
    010062  aa   000000 000017    4170  	oct	000000000017
    010063  aa   000000 000020    4171  	oct	000000000020
    010064  aa   000000 000000    4172  	oct	000000000000
    010065  aa   000000 151020    4173  	oct	000000151020
    010066  aa   000000 000014    4174  	oct	000000000014
    010067  aa   000000 000020    4175  	oct	000000000020
    010070  aa   000000 000000    4176  	oct	000000000000
    010071  aa   000000 151034    4177  	oct	000000151034
    010072  aa   000000 000032    4178  	oct	000000000032
    010073  aa   000000 000002    4179  	oct	000000000002
    010074  aa   000000 000000    4180  	oct	000000000000
    010075  aa   000000 151066    4181  	oct	000000151066
    010076  aa   000000 000027    4182  	oct	000000000027
    010077  aa   000000 000002    4183  	oct	000000000002
    010100  aa   000000 000000    4184  	oct	000000000000
    010101  aa   000000 151115    4185  	oct	000000151115
    010102  aa   000000 000040    4186  	oct	000000000040
    010103  aa   000000 000002    4187  	oct	000000000002
    010104  aa   000000 000000    4188  	oct	000000000000
    010105  aa   000000 151155    4189  	oct	000000151155
    010106  aa   000000 000033    4190  	oct	000000000033
    010107  aa   000000 000031    4191  	oct	000000000031
    010110  aa   000000 000000    4192  	oct	000000000000
    010111  aa   000000 151210    4193  	oct	000000151210
    010112  aa   000000 000021    4194  	oct	000000000021
    010113  aa   000000 000004    4195  	oct	000000000004
    010114  aa   000000 000000    4196  	oct	000000000000
    010115  aa   000000 151231    4197  	oct	000000151231
    010116  aa   000000 000035    4198  	oct	000000000035
    010117  aa   000000 000031    4199  	oct	000000000031
    010120  aa   000000 000000    4200  	oct	000000000000
    010121  aa   000000 151266    4201  	oct	000000151266
    010122  aa   000000 000020    4202  	oct	000000000020
    010123  aa   000000 000006    4203  	oct	000000000006
    010124  aa   000000 000000    4204  	oct	000000000000
    010125  aa   000000 151306    4205  	oct	000000151306
    010126  aa   000000 000022    4206  	oct	000000000022
    010127  aa   000000 000005    4207  	oct	000000000005
    010130  aa   000000 000000    4208  	oct	000000000000
    010131  aa   000000 151330    4209  	oct	000000151330
    010132  aa   000000 000021    4210  	oct	000000000021
    010133  aa   000000 000005    4211  	oct	000000000005
    010134  aa   000000 000000    4212  	oct	000000000000
    010135  aa   000000 151351    4213  	oct	000000151351
    010136  aa   000000 000017    4214  	oct	000000000017
    010137  aa   000000 000005    4215  	oct	000000000005
    010140  aa   000000 000000    4216  	oct	000000000000
    010141  aa   000000 151370    4217  	oct	000000151370
    010142  aa   000000 000032    4218  	oct	000000000032
    010143  aa   000000 000006    4219  	oct	000000000006
    010144  aa   000000 000000    4220  	oct	000000000000
    010145  aa   000000 151422    4221  	oct	000000151422
    010146  aa   000000 000017    4222  	oct	000000000017
    010147  aa   000000 000011    4223  	oct	000000000011
    010150  aa   000000 000000    4224  	oct	000000000000
    010151  aa   000000 151441    4225  	oct	000000151441
    010152  aa   000000 000045    4226  	oct	000000000045
    010153  aa   000000 000012    4227  	oct	000000000012
    010154  aa   000000 000000    4228  	oct	000000000000
    010155  aa   000000 151506    4229  	oct	000000151506
    010156  aa   000000 000027    4230  	oct	000000000027
    010157  aa   000000 000015    4231  	oct	000000000015
    010160  aa   000000 000000    4232  	oct	000000000000
    010161  aa   000000 151535    4233  	oct	000000151535
    010162  aa   000000 000023    4234  	oct	000000000023
    010163  aa   000000 000016    4235  	oct	000000000016
    010164  aa   000000 000000    4236  	oct	000000000000
    010165  aa   000000 151560    4237  	oct	000000151560
    010166  aa   000000 000021    4238  	oct	000000000021
    010167  aa   000000 000015    4239  	oct	000000000015
    010170  aa   000000 000000    4240  	oct	000000000000
    010171  aa   000000 151601    4241  	oct	000000151601
    010172  aa   000000 000027    4242  	oct	000000000027
    010173  aa   000000 000015    4243  	oct	000000000015
    010174  aa   000000 000000    4244  	oct	000000000000
    010175  aa   000000 151630    4245  	oct	000000151630
    010176  aa   000000 000037    4246  	oct	000000000037
    010177  aa   000000 000027    4247  	oct	000000000027
    010200  aa   000000 000000    4248  	oct	000000000000
    010201  aa   000000 151667    4249  	oct	000000151667
    010202  aa   000000 000022    4250  	oct	000000000022
    010203  aa   000000 000027    4251  	oct	000000000027
    010204  aa   000000 000000    4252  	oct	000000000000
    010205  aa   000000 151711    4253  	oct	000000151711
    010206  aa   000000 000020    4254  	oct	000000000020
    010207  aa   000000 000030    4255  	oct	000000000030
    010210  aa   000000 000000    4256  	oct	000000000000
    010211  aa   000000 151731    4257  	oct	000000151731
    010212  aa   000000 000021    4258  	oct	000000000021
    010213  aa   000000 000027    4259  	oct	000000000027
    010214  aa   000000 000000    4260  	oct	000000000000
    010215  aa   000000 151752    4261  	oct	000000151752
    010216  aa   000000 000022    4262  	oct	000000000022
    010217  aa   000000 000027    4263  	oct	000000000027
    010220  aa   000000 000000    4264  	oct	000000000000
    010221  aa   000000 151774    4265  	oct	000000151774
    010222  aa   000000 000017    4266  	oct	000000000017
    010223  aa   000000 000027    4267  	oct	000000000027
    010224  aa   000000 000000    4268  	oct	000000000000
    010225  aa   000000 152013    4269  	oct	000000152013
    010226  aa   000000 000030    4270  	oct	000000000030
    010227  aa   000000 000027    4271  	oct	000000000027
    010230  aa   000000 000000    4272  	oct	000000000000
    010231  aa   000000 152043    4273  	oct	000000152043
    010232  aa   000000 000027    4274  	oct	000000000027
    010233  aa   000000 000030    4275  	oct	000000000030
    010234  aa   000000 000000    4276  	oct	000000000000
    010235  aa   000000 152072    4277  	oct	000000152072
    010236  aa   000000 000020    4278  	oct	000000000020
    010237  aa   000000 000030    4279  	oct	000000000030
    010240  aa   000000 000000    4280  	oct	000000000000
    010241  aa   000000 152112    4281  	oct	000000152112
    010242  aa   000000 000020    4282  	oct	000000000020
    010243  aa   000000 000007    4283  	oct	000000000007
    010244  aa   000000 000000    4284  	oct	000000000000
    010245  aa   000000 152132    4285  	oct	000000152132
    010246  aa   000000 000015    4286  	oct	000000000015
    010247  aa   000000 000015    4287  	oct	000000000015
    010250  aa   000000 000000    4288  	oct	000000000000
    010251  aa   000000 152147    4289  	oct	000000152147
    010252  aa   000000 000064    4290  	oct	000000000064
    010253  aa   000000 000010    4291  	oct	000000000010
    010254  aa   000000 000000    4292  	oct	000000000000
    010255  aa   000000 152233    4293  	oct	000000152233
    010256  aa   000000 000056    4294  	oct	000000000056
    010257  aa   000000 000013    4295  	oct	000000000013
    010260  aa   000000 000000    4296  	oct	000000000000
    010261  aa   000000 152311    4297  	oct	000000152311
    010262  aa   000000 000010    4298  	oct	000000000010
    010263  aa   000000 000014    4299  	oct	000000000014
    010264  aa   000000 000000    4300  	oct	000000000000
    010265  aa   000000 152321    4301  	oct	000000152321
    010266  aa   000000 000012    4302  	oct	000000000012
    010267  aa   000000 000014    4303  	oct	000000000014
    010270  aa   000000 000000    4304  	oct	000000000000
    010271  aa   000000 152333    4305  	oct	000000152333
    010272  aa   000000 000020    4306  	oct	000000000020
    010273  aa   000000 000014    4307  	oct	000000000014
    010274  aa   000000 000000    4308  	oct	000000000000
    010275  aa   000000 152353    4309  	oct	000000152353
    010276  aa   000000 000031    4310  	oct	000000000031
    010277  aa   000000 000031    4311  	oct	000000000031
    010300  aa   000000 000000    4312  	oct	000000000000
    010301  aa   000000 152404    4313  	oct	000000152404
    010302  aa   000000 000035    4314  	oct	000000000035
    010303  aa   000000 000025    4315  	oct	000000000025
    010304  aa   000000 000000    4316  	oct	000000000000
    010305  aa   000000 152441    4317  	oct	000000152441
    010306  aa   000000 000034    4318  	oct	000000000034
    010307  aa   000000 000031    4319  	oct	000000000031
    010310  aa   000000 000000    4320  	oct	000000000000
    010311  aa   000000 152475    4321  	oct	000000152475
    010312  aa   000000 000020    4322  	oct	000000000020
    010313  aa   000000 000031    4323  	oct	000000000031
    010314  aa   000000 000000    4324  	oct	000000000000
    010315  aa   000000 152515    4325  	oct	000000152515
    010316  aa   000000 000036    4326  	oct	000000000036
    010317  aa   000000 000025    4327  	oct	000000000025
    010320  aa   000000 000000    4328  	oct	000000000000
    010321  aa   000000 152553    4329  	oct	000000152553
    010322  aa   000000 000034    4330  	oct	000000000034
    010323  aa   000000 000031    4331  	oct	000000000031
    010324  aa   000000 000000    4332  	oct	000000000000
    010325  aa   000000 152607    4333  	oct	000000152607
    010326  aa   000000 000036    4334  	oct	000000000036
    010327  aa   000000 000031    4335  	oct	000000000031
    010330  aa   000000 000000    4336  	oct	000000000000
    010331  aa   000000 152645    4337  	oct	000000152645
    010332  aa   000000 000021    4338  	oct	000000000021
    010333  aa   000000 000000    4339  	oct	000000000000
    010334  aa   000000 000000    4340  	oct	000000000000
    010335  aa   000000 152666    4341  	oct	000000152666
    010336  aa   000000 000020    4342  	oct	000000000020
    010337  aa   000000 000031    4343  	oct	000000000031
    010340  aa   000000 000000    4344  	oct	000000000000
    010341  aa   000000 152706    4345  	oct	000000152706
    010342  aa   000000 000020    4346  	oct	000000000020
    010343  aa   000000 000000    4347  	oct	000000000000
    010344  aa   000000 000000    4348  	oct	000000000000
    010345  aa   000000 152726    4349  	oct	000000152726
    010346  aa   000000 000045    4350  	oct	000000000045
    010347  aa   000000 000031    4351  	oct	000000000031
    010350  aa   000000 000000    4352  	oct	000000000000
    010351  aa   000000 152773    4353  	oct	000000152773
    010352  aa   000000 000022    4354  	oct	000000000022
    010353  aa   000000 000000    4355  	oct	000000000000
    010354  aa   000000 000000    4356  	oct	000000000000
    010355  aa   000000 153015    4357  	oct	000000153015
    010356  aa   000000 000024    4358  	oct	000000000024
    010357  aa   000000 000031    4359  	oct	000000000031
    010360  aa   000000 000000    4360  	oct	000000000000
    010361  aa   000000 153041    4361  	oct	000000153041
    010362  aa   000000 000023    4362  	oct	000000000023
    010363  aa   000000 000031    4363  	oct	000000000031
    010364  aa   000000 000000    4364  	oct	000000000000
    010365  aa   000000 153064    4365  	oct	000000153064
    010366  aa   000000 000017    4366  	oct	000000000017
    010367  aa   000000 000000    4367  	oct	000000000000
    010370  aa   000000 000000    4368  	oct	000000000000
    010371  aa   000000 153103    4369  	oct	000000153103
    010372  aa   000000 000020    4370  	oct	000000000020
    010373  aa   000000 000031    4371  	oct	000000000031
    010374  aa   000000 000000    4372  	oct	000000000000
    010375  aa   000000 153123    4373  	oct	000000153123
    010376  aa   000000 000024    4374  	oct	000000000024
    010377  aa   000000 000031    4375  	oct	000000000031
    010400  aa   000000 000000    4376  	oct	000000000000
    010401  aa   000000 153147    4377  	oct	000000153147
    010402  aa   000000 000021    4378  	oct	000000000021
    010403  aa   000000 000031    4379  	oct	000000000031
    010404  aa   000000 000000    4380  	oct	000000000000
    010405  aa   000000 153170    4381  	oct	000000153170
    010406  aa   000000 000014    4382  	oct	000000000014
    010407  aa   000000 000000    4383  	oct	000000000000
    010410  aa   000000 000000    4384  	oct	000000000000
    010411  aa   000000 153204    4385  	oct	000000153204
    010412  aa   000000 000014    4386  	oct	000000000014
    010413  aa   000000 000031    4387  	oct	000000000031
    010414  aa   000000 000000    4388  	oct	000000000000
    010415  aa   000000 153220    4389  	oct	000000153220
    010416  aa   000000 000013    4390  	oct	000000000013
    010417  aa   000000 000000    4391  	oct	000000000000
    010420  aa   000000 000000    4392  	oct	000000000000
    010421  aa   000000 153233    4393  	oct	000000153233
    010422  aa   000000 000020    4394  	oct	000000000020
    010423  aa   000000 000000    4395  	oct	000000000000
    010424  aa   000000 000000    4396  	oct	000000000000
    010425  aa   000000 153253    4397  	oct	000000153253
    010426  aa   000000 000013    4398  	oct	000000000013
    010427  aa   000000 000031    4399  	oct	000000000031
    010430  aa   000000 000000    4400  	oct	000000000000
    010431  aa   000000 153266    4401  	oct	000000153266
    010432  aa   000000 000027    4402  	oct	000000000027
    010433  aa   000000 000031    4403  	oct	000000000031
    010434  aa   000000 000000    4404  	oct	000000000000
    010435  aa   000000 153315    4405  	oct	000000153315
    010436  aa   000000 000013    4406  	oct	000000000013
    010437  aa   000000 000031    4407  	oct	000000000031
    010440  aa   000000 000000    4408  	oct	000000000000
    010441  aa   000000 153330    4409  	oct	000000153330
    010442  aa   000000 000034    4410  	oct	000000000034
    010443  aa   000000 000020    4411  	oct	000000000020
    010444  aa   000000 000000    4412  	oct	000000000000
    010445  aa   000000 153364    4413  	oct	000000153364
    010446  aa   000000 000037    4414  	oct	000000000037
    010447  aa   000000 000020    4415  	oct	000000000020
    010450  aa   000000 000000    4416  	oct	000000000000
    010451  aa   000000 153423    4417  	oct	000000153423
    010452  aa   000000 000024    4418  	oct	000000000024
    010453  aa   000000 000000    4419  	oct	000000000000
    010454  aa   000000 000000    4420  	oct	000000000000
    010455  aa   000000 153447    4421  	oct	000000153447
    010456  aa   000000 000021    4422  	oct	000000000021
    010457  aa   000000 000002    4423  	oct	000000000002
    010460  aa   000000 000000    4424  	oct	000000000000
    010461  aa   000000 153470    4425  	oct	000000153470
    010462  aa   000000 000023    4426  	oct	000000000023
    010463  aa   000000 000031    4427  	oct	000000000031
    010464  aa   000000 000000    4428  	oct	000000000000
    010465  aa   000000 153513    4429  	oct	000000153513
    010466  aa   000000 000022    4430  	oct	000000000022
    010467  aa   000000 000031    4431  	oct	000000000031
    010470  aa   000000 000000    4432  	oct	000000000000
    010471  aa   000000 153535    4433  	oct	000000153535
    010472  aa   000000 000020    4434  	oct	000000000020
    010473  aa   000000 000020    4435  	oct	000000000020
    010474  aa   000000 000000    4436  	oct	000000000000
    010475  aa   000000 153555    4437  	oct	000000153555
    010476  aa   000000 000017    4438  	oct	000000000017
    010477  aa   000000 000000    4439  	oct	000000000000
    010500  aa   000000 000000    4440  	oct	000000000000
    010501  aa   000000 153574    4441  	oct	000000153574
    010502  aa   000000 000041    4442  	oct	000000000041
    010503  aa   000000 000031    4443  	oct	000000000031
    010504  aa   000000 000000    4444  	oct	000000000000
    010505  aa   000000 153635    4445  	oct	000000153635
    010506  aa   000000 000023    4446  	oct	000000000023
    010507  aa   000000 000031    4447  	oct	000000000031
    010510  aa   000000 000000    4448  	oct	000000000000
    010511  aa   000000 153660    4449  	oct	000000153660
    010512  aa   000000 000035    4450  	oct	000000000035
    010513  aa   000000 000031    4451  	oct	000000000031
    010514  aa   000000 000000    4452  	oct	000000000000
    010515  aa   000000 153715    4453  	oct	000000153715
    010516  aa   000000 000017    4454  	oct	000000000017
    010517  aa   000000 000000    4455  	oct	000000000000
    010520  aa   000000 000000    4456  	oct	000000000000
    010521  aa   000000 153734    4457  	oct	000000153734
    010522  aa   000000 000015    4458  	oct	000000000015
    010523  aa   000000 000031    4459  	oct	000000000031
    010524  aa   000000 000000    4460  	oct	000000000000
    010525  aa   000000 153751    4461  	oct	000000153751
    010526  aa   000000 000053    4462  	oct	000000000053
    010527  aa   000000 000002    4463  	oct	000000000002
    010530  aa   000000 000000    4464  	oct	000000000000
    010531  aa   000000 154024    4465  	oct	000000154024
    010532  aa   000000 000065    4466  	oct	000000000065
    010533  aa   000000 000031    4467  	oct	000000000031
    010534  aa   000000 000000    4468  	oct	000000000000
    010535  aa   000000 154111    4469  	oct	000000154111
    010536  aa   000000 000034    4470  	oct	000000000034
    010537  aa   000000 000024    4471  	oct	000000000024
    010540  aa   000000 000000    4472  	oct	000000000000
    010541  aa   000000 154145    4473  	oct	000000154145
    010542  aa   000000 000007    4474  	oct	000000000007
    010543  aa   000000 000027    4475  	oct	000000000027
    010544  aa   000000 000000    4476  	oct	000000000000
    010545  aa   000000 154154    4477  	oct	000000154154
    010546  aa   000000 000020    4478  	oct	000000000020
    010547  aa   000000 000015    4479  	oct	000000000015
    010550  aa   000000 000000    4480  	oct	000000000000
    010551  aa   000000 154174    4481  	oct	000000154174
    010552  aa   000000 000022    4482  	oct	000000000022
    010553  aa   000000 000031    4483  	oct	000000000031
    010554  aa   000000 000000    4484  	oct	000000000000
    010555  aa   000000 154216    4485  	oct	000000154216
    010556  aa   000000 000040    4486  	oct	000000000040
    010557  aa   000000 000031    4487  	oct	000000000031
    010560  aa   000000 000000    4488  	oct	000000000000
    010561  aa   000000 154256    4489  	oct	000000154256
    010562  aa   000000 000016    4490  	oct	000000000016
    010563  aa   000000 000000    4491  	oct	000000000000
    010564  aa   000000 000000    4492  	oct	000000000000
    010565  aa   000000 154274    4493  	oct	000000154274
    010566  aa   000000 000024    4494  	oct	000000000024
    010567  aa   000000 000031    4495  	oct	000000000031
    010570  aa   000000 000000    4496  	oct	000000000000
    010571  aa   000000 154320    4497  	oct	000000154320
    010572  aa   000000 000034    4498  	oct	000000000034
    010573  aa   000000 000031    4499  	oct	000000000031
    010574  aa   000000 000000    4500  	oct	000000000000
    010575  aa   000000 154354    4501  	oct	000000154354
    010576  aa   000000 000030    4502  	oct	000000000030
    010577  aa   000000 000031    4503  	oct	000000000031
    010600  aa   000000 000000    4504  	oct	000000000000
    010601  aa   000000 154404    4505  	oct	000000154404
    010602  aa   000000 000026    4506  	oct	000000000026
    010603  aa   000000 000006    4507  	oct	000000000006
    010604  aa   000000 000000    4508  	oct	000000000000
    010605  aa   000000 154432    4509  	oct	000000154432
    010606  aa   000000 000034    4510  	oct	000000000034
    010607  aa   000000 000004    4511  	oct	000000000004
    010610  aa   000000 000000    4512  	oct	000000000000
    010611  aa   000000 154466    4513  	oct	000000154466
    010612  aa   000000 000012    4514  	oct	000000000012
    010613  aa   000000 000000    4515  	oct	000000000000
    010614  aa   000000 000000    4516  	oct	000000000000
    010615  aa   000000 154500    4517  	oct	000000154500
    010616  aa   000000 000046    4518  	oct	000000000046
    010617  aa   000000 000031    4519  	oct	000000000031
    010620  aa   000000 000000    4520  	oct	000000000000
    010621  aa   000000 154546    4521  	oct	000000154546
    010622  aa   000000 000033    4522  	oct	000000000033
    010623  aa   000000 000002    4523  	oct	000000000002
    010624  aa   000000 000000    4524  	oct	000000000000
    010625  aa   000000 154601    4525  	oct	000000154601
    010626  aa   000000 000033    4526  	oct	000000000033
    010627  aa   000000 000002    4527  	oct	000000000002
    010630  aa   000000 000000    4528  	oct	000000000000
    010631  aa   000000 154634    4529  	oct	000000154634
    010632  aa   000000 000030    4530  	oct	000000000030
    010633  aa   000000 000002    4531  	oct	000000000002
    010634  aa   000000 000000    4532  	oct	000000000000
    010635  aa   000000 154664    4533  	oct	000000154664
    010636  aa   000000 000034    4534  	oct	000000000034
    010637  aa   000000 000031    4535  	oct	000000000031
    010640  aa   000000 000000    4536  	oct	000000000000
    010641  aa   000000 154720    4537  	oct	000000154720
    010642  aa   000000 000033    4538  	oct	000000000033
    010643  aa   000000 000004    4539  	oct	000000000004
    010644  aa   000000 000000    4540  	oct	000000000000
    010645  aa   000000 154753    4541  	oct	000000154753
    010646  aa   000000 000030    4542  	oct	000000000030
    010647  aa   000000 000002    4543  	oct	000000000002
    010650  aa   000000 000000    4544  	oct	000000000000
    010651  aa   000000 155003    4545  	oct	000000155003
    010652  aa   000000 000035    4546  	oct	000000000035
    010653  aa   000000 000031    4547  	oct	000000000031
    010654  aa   000000 000000    4548  	oct	000000000000
    010655  aa   000000 155040    4549  	oct	000000155040
    010656  aa   000000 000026    4550  	oct	000000000026
    010657  aa   000000 000013    4551  	oct	000000000013
    010660  aa   000000 000000    4552  	oct	000000000000
    010661  aa   000000 155066    4553  	oct	000000155066
    010662  aa   000000 000032    4554  	oct	000000000032
    010663  aa   000000 000016    4555  	oct	000000000016
    010664  aa   000000 000000    4556  	oct	000000000000
    010665  aa   000000 155120    4557  	oct	000000155120
    010666  aa   000000 000026    4558  	oct	000000000026
    010667  aa   000000 000027    4559  	oct	000000000027
    010670  aa   000000 000000    4560  	oct	000000000000
    010671  aa   000000 155146    4561  	oct	000000155146
    010672  aa   000000 000011    4562  	oct	000000000011
    010673  aa   000000 000027    4563  	oct	000000000027
    010674  aa   000000 000000    4564  	oct	000000000000
    010675  aa   000000 155157    4565  	oct	000000155157
    010676  aa   000000 000017    4566  	oct	000000000017
    010677  aa   000000 000030    4567  	oct	000000000030
    010700  aa   000000 000000    4568  	oct	000000000000
    010701  aa   000000 155176    4569  	oct	000000155176
    010702  aa   000000 000016    4570  	oct	000000000016
    010703  aa   000000 000020    4571  	oct	000000000020
    010704  aa   000000 000000    4572  	oct	000000000000
    010705  aa   000000 155214    4573  	oct	000000155214
    010706  aa   000000 000034    4574  	oct	000000000034
    010707  aa   000000 000031    4575  	oct	000000000031
    010710  aa   000000 000000    4576  	oct	000000000000
    010711  aa   000000 155250    4577  	oct	000000155250
    010712  aa   000000 000040    4578  	oct	000000000040
    010713  aa   000000 000031    4579  	oct	000000000031
    010714  aa   000000 000000    4580  	oct	000000000000
    010715  aa   000000 155310    4581  	oct	000000155310
    010716  aa   000000 000033    4582  	oct	000000000033
    010717  aa   000000 000002    4583  	oct	000000000002
    010720  aa   000000 000000    4584  	oct	000000000000
    010721  aa   000000 155343    4585  	oct	000000155343
    010722  aa   000000 000056    4586  	oct	000000000056
    010723  aa   000000 000000    4587  	oct	000000000000
    010724  aa   000000 000000    4588  	oct	000000000000
    010725  aa   000000 155421    4589  	oct	000000155421
    010726  aa   000000 000041    4590  	oct	000000000041
    010727  aa   000000 000031    4591  	oct	000000000031
    010730  aa   000000 000000    4592  	oct	000000000000
    010731  aa   000000 155462    4593  	oct	000000155462
    010732  aa   000000 000037    4594  	oct	000000000037
    010733  aa   000000 000031    4595  	oct	000000000031
    010734  aa   000000 000000    4596  	oct	000000000000
    010735  aa   000000 155521    4597  	oct	000000155521
    010736  aa   000000 000026    4598  	oct	000000000026
    010737  aa   000000 000031    4599  	oct	000000000031
    010740  aa   000000 000000    4600  	oct	000000000000
    010741  aa   000000 155547    4601  	oct	000000155547
    010742  aa   000000 000025    4602  	oct	000000000025
    010743  aa   000000 000020    4603  	oct	000000000020
    010744  aa   000000 000000    4604  	oct	000000000000
    010745  aa   000000 155574    4605  	oct	000000155574
    010746  aa   000000 000042    4606  	oct	000000000042
    010747  aa   000000 000031    4607  	oct	000000000031
    010750  aa   000000 000000    4608  	oct	000000000000
    010751  aa   000000 155636    4609  	oct	000000155636
    010752  aa   000000 000046    4610  	oct	000000000046
    010753  aa   000000 000031    4611  	oct	000000000031
    010754  aa   000000 000000    4612  	oct	000000000000
    010755  aa   000000 155704    4613  	oct	000000155704
    010756  aa   000000 000034    4614  	oct	000000000034
    010757  aa   000000 000031    4615  	oct	000000000031
    010760  aa   000000 000000    4616  	oct	000000000000
    010761  aa   000000 155740    4617  	oct	000000155740
    010762  aa   000000 000016    4618  	oct	000000000016
    010763  aa   000000 000031    4619  	oct	000000000031
    010764  aa   000000 000000    4620  	oct	000000000000
    010765  aa   000000 155756    4621  	oct	000000155756
    010766  aa   000000 000044    4622  	oct	000000000044
    010767  aa   000000 000030    4623  	oct	000000000030
    010770  aa   000000 000000    4624  	oct	000000000000
    010771  aa   000000 156022    4625  	oct	000000156022
    010772  aa   000000 000035    4626  	oct	000000000035
    010773  aa   000000 000006    4627  	oct	000000000006
    010774  aa   000000 000000    4628  	oct	000000000000
    010775  aa   000000 156057    4629  	oct	000000156057
    010776  aa   000000 000023    4630  	oct	000000000023
    010777  aa   000000 000031    4631  	oct	000000000031
    011000  aa   000000 000000    4632  	oct	000000000000
    011001  aa   000000 156102    4633  	oct	000000156102
    011002  aa   000000 000034    4634  	oct	000000000034
    011003  aa   000000 000006    4635  	oct	000000000006
    011004  aa   000000 000000    4636  	oct	000000000000
    011005  aa   000000 156136    4637  	oct	000000156136
    011006  aa   000000 000020    4638  	oct	000000000020
    011007  aa   000000 000000    4639  	oct	000000000000
    011010  aa   000000 000000    4640  	oct	000000000000
    011011  aa   000000 156156    4641  	oct	000000156156
    011012  aa   000000 000017    4642  	oct	000000000017
    011013  aa   000000 000031    4643  	oct	000000000031
    011014  aa   000000 000000    4644  	oct	000000000000
    011015  aa   000000 156175    4645  	oct	000000156175
    011016  aa   000000 000034    4646  	oct	000000000034
    011017  aa   000000 000031    4647  	oct	000000000031
    011020  aa   000000 000000    4648  	oct	000000000000
    011021  aa   000000 156231    4649  	oct	000000156231
    011022  aa   000000 000057    4650  	oct	000000000057
    011023  aa   000000 000031    4651  	oct	000000000031
    011024  aa   000000 000000    4652  	oct	000000000000
    011025  aa   000000 156310    4653  	oct	000000156310
    011026  aa   000000 000030    4654  	oct	000000000030
    011027  aa   000000 000031    4655  	oct	000000000031
    011030  aa   000000 000000    4656  	oct	000000000000
    011031  aa   000000 156340    4657  	oct	000000156340
    011032  aa   000000 000022    4658  	oct	000000000022
    011033  aa   000000 000031    4659  	oct	000000000031
    011034  aa   000000 000000    4660  	oct	000000000000
    011035  aa   000000 156362    4661  	oct	000000156362
    011036  aa   000000 000007    4662  	oct	000000000007
    011037  aa   000000 000027    4663  	oct	000000000027
    011040  aa   000000 000000    4664  	oct	000000000000
    011041  aa   000000 156371    4665  	oct	000000156371
    011042  aa   000000 000056    4666  	oct	000000000056
    011043  aa   000000 000013    4667  	oct	000000000013
    011044  aa   000000 000000    4668  	oct	000000000000
    011045  aa   000000 156447    4669  	oct	000000156447
    011046  aa   000000 000042    4670  	oct	000000000042
    011047  aa   000000 000002    4671  	oct	000000000002
    011050  aa   000000 000000    4672  	oct	000000000000
    011051  aa   000000 156511    4673  	oct	000000156511
    011052  aa   000000 000026    4674  	oct	000000000026
    011053  aa   000000 000002    4675  	oct	000000000002
    011054  aa   000000 000000    4676  	oct	000000000000
    011055  aa   000000 156537    4677  	oct	000000156537
    011056  aa   000000 000011    4678  	oct	000000000011
    011057  aa   000000 000000    4679  	oct	000000000000
    011060  aa   000000 000000    4680  	oct	000000000000
    011061  aa   000000 156550    4681  	oct	000000156550
    011062  aa   000000 000011    4682  	oct	000000000011
    011063  aa   000000 000000    4683  	oct	000000000000
    011064  aa   000000 000000    4684  	oct	000000000000
    011065  aa   000000 156561    4685  	oct	000000156561
    011066  aa   000000 000011    4686  	oct	000000000011
    011067  aa   000000 000000    4687  	oct	000000000000
    011070  aa   000000 000000    4688  	oct	000000000000
    011071  aa   000000 156572    4689  	oct	000000156572
    011072  aa   000000 000011    4690  	oct	000000000011
    011073  aa   000000 000000    4691  	oct	000000000000
    011074  aa   000000 000000    4692  	oct	000000000000
    011075  aa   000000 156603    4693  	oct	000000156603
    011076  aa   000000 000025    4694  	oct	000000000025
    011077  aa   000000 000002    4695  	oct	000000000002
    011100  aa   000000 000000    4696  	oct	000000000000
    011101  aa   000000 156630    4697  	oct	000000156630
    011102  aa   000000 000016    4698  	oct	000000000016
    011103  aa   000000 000000    4699  	oct	000000000000
    011104  aa   000000 000000    4700  	oct	000000000000
    011105  aa   000000 156646    4701  	oct	000000156646
    011106  aa   000000 000016    4702  	oct	000000000016
    011107  aa   000000 000000    4703  	oct	000000000000
    011110  aa   000000 000000    4704  	oct	000000000000
    011111  aa   000000 156664    4705  	oct	000000156664
    011112  aa   000000 000016    4706  	oct	000000000016
    011113  aa   000000 000000    4707  	oct	000000000000
    011114  aa   000000 000000    4708  	oct	000000000000
    011115  aa   000000 156702    4709  	oct	000000156702
    011116  aa   000000 000023    4710  	oct	000000000023
    011117  aa   000000 000000    4711  	oct	000000000000
    011120  aa   000000 000000    4712  	oct	000000000000
    011121  aa   000000 156725    4713  	oct	000000156725
    011122  aa   000000 000024    4714  	oct	000000000024
    011123  aa   000000 000000    4715  	oct	000000000000
    011124  aa   000000 000000    4716  	oct	000000000000
    011125  aa   000000 156751    4717  	oct	000000156751
    011126  aa   000000 000022    4718  	oct	000000000022
    011127  aa   000000 000000    4719  	oct	000000000000
    011130  aa   000000 000000    4720  	oct	000000000000
    011131  aa   000000 156773    4721  	oct	000000156773
    011132  aa   000000 000020    4722  	oct	000000000020
    011133  aa   000000 000000    4723  	oct	000000000000
    011134  aa   000000 000000    4724  	oct	000000000000
    011135  aa   000000 157013    4725  	oct	000000157013
    011136  aa   000000 000024    4726  	oct	000000000024
    011137  aa   000000 000000    4727  	oct	000000000000
    011140  aa   000000 000000    4728  	oct	000000000000
    011141  aa   000000 157037    4729  	oct	000000157037
    011142  aa   000000 000016    4730  	oct	000000000016
    011143  aa   000000 000000    4731  	oct	000000000000
    011144  aa   000000 000000    4732  	oct	000000000000
    011145  aa   000000 157055    4733  	oct	000000157055
    011146  aa   000000 000026    4734  	oct	000000000026
    011147  aa   000000 000000    4735  	oct	000000000000
    011150  aa   000000 000000    4736  	oct	000000000000
    011151  aa   000000 157103    4737  	oct	000000157103
    011152  aa   000000 000027    4738  	oct	000000000027
    011153  aa   000000 000000    4739  	oct	000000000000
    011154  aa   000000 000000    4740  	oct	000000000000
    011155  aa   000000 157132    4741  	oct	000000157132
    011156  aa   000000 000030    4742  	oct	000000000030
    011157  aa   000000 000000    4743  	oct	000000000000
    011160  aa   000000 000000    4744  	oct	000000000000
    011161  aa   000000 157162    4745  	oct	000000157162
    011162  aa   000000 000017    4746  	oct	000000000017
    011163  aa   000000 000000    4747  	oct	000000000000
    011164  aa   000000 000000    4748  	oct	000000000000
    011165  aa   000000 157201    4749  	oct	000000157201
    011166  aa   000000 000020    4750  	oct	000000000020
    011167  aa   000000 000000    4751  	oct	000000000000
    011170  aa   000000 000000    4752  	oct	000000000000
    011171  aa   000000 157221    4753  	oct	000000157221
    011172  aa   000000 000034    4754  	oct	000000000034
    011173  aa   000000 000031    4755  	oct	000000000031
    011174  aa   000000 000000    4756  	oct	000000000000
    011175  aa   000000 157255    4757  	oct	000000157255
    011176  aa   000000 000050    4758  	oct	000000000050
    011177  aa   000000 000031    4759  	oct	000000000031
    011200  aa   000000 000000    4760  	oct	000000000000
    011201  aa   000000 157325    4761  	oct	000000157325
    011202  aa   000000 000036    4762  	oct	000000000036
    011203  aa   000000 000006    4763  	oct	000000000006
    011204  aa   000000 000000    4764  	oct	000000000000
    011205  aa   000000 157363    4765  	oct	000000157363
    011206  aa   000000 000052    4766  	oct	000000000052
    011207  aa   000000 000006    4767  	oct	000000000006
    011210  aa   000000 000000    4768  	oct	000000000000
    011211  aa   000000 157435    4769  	oct	000000157435
    011212  aa   000000 000036    4770  	oct	000000000036
    011213  aa   000000 000013    4771  	oct	000000000013
    011214  aa   000000 000000    4772  	oct	000000000000
    011215  aa   000000 157473    4773  	oct	000000157473
    011216  aa   000000 000032    4774  	oct	000000000032
    011217  aa   000000 000013    4775  	oct	000000000013
    011220  aa   000000 000000    4776  	oct	000000000000
    011221  aa   000000 157525    4777  	oct	000000157525
    011222  aa   000000 000032    4778  	oct	000000000032
    011223  aa   000000 000013    4779  	oct	000000000013
    011224  aa   000000 000000    4780  	oct	000000000000
    011225  aa   000000 157557    4781  	oct	000000157557
    011226  aa   000000 000033    4782  	oct	000000000033
    011227  aa   000000 000013    4783  	oct	000000000013
    011230  aa   000000 000000    4784  	oct	000000000000
    011231  aa   000000 157612    4785  	oct	000000157612
    011232  aa   000000 000033    4786  	oct	000000000033
    011233  aa   000000 000013    4787  	oct	000000000013
    011234  aa   000000 000000    4788  	oct	000000000000
    011235  aa   000000 157645    4789  	oct	000000157645
    011236  aa   000000 000033    4790  	oct	000000000033
    011237  aa   000000 000013    4791  	oct	000000000013
    011240  aa   000000 000000    4792  	oct	000000000000
    011241  aa   000000 157700    4793  	oct	000000157700
    011242  aa   000000 000020    4794  	oct	000000000020
    011243  aa   000000 000013    4795  	oct	000000000013
    011244  aa   000000 000000    4796  	oct	000000000000
    011245  aa   000000 157720    4797  	oct	000000157720
    011246  aa   000000 000032    4798  	oct	000000000032
    011247  aa   000000 000013    4799  	oct	000000000013
    011250  aa   000000 000000    4800  	oct	000000000000
    011251  aa   000000 157752    4801  	oct	000000157752
    011252  aa   000000 000053    4802  	oct	000000000053
    011253  aa   000000 000012    4803  	oct	000000000012
    011254  aa   000000 000000    4804  	oct	000000000000
    011255  aa   000000 160025    4805  	oct	000000160025
    011256  aa   000000 000012    4806  	oct	000000000012
    011257  aa   000000 000005    4807  	oct	000000000005
    011260  aa   000000 000000    4808  	oct	000000000000
    011261  aa   000000 160037    4809  	oct	000000160037
    011262  aa   000000 000021    4810  	oct	000000000021
    011263  aa   000000 000000    4811  	oct	000000000000
    011264  aa   000000 000000    4812  	oct	000000000000
    011265  aa   000000 000000    4813  	oct	000000000000
    011266  aa   000000 000015    4814  	oct	000000000015
    011267  aa   000000 000000    4815  	oct	000000000000
    011270  aa   000000 000000    4816  	oct	000000000000
    011271  aa   000000 160060    4817  	oct	000000160060
    011272  aa   000000 000015    4818  	oct	000000000015
    011273  aa   000000 000000    4819  	oct	000000000000
    011274  aa   000000 000000    4820  	oct	000000000000
    011275  aa   000000 160075    4821  	oct	000000160075
    011276  aa   000000 000015    4822  	oct	000000000015
    011277  aa   000000 000000    4823  	oct	000000000000
    011300  aa   000000 000000    4824  	oct	000000000000
    011301  aa   000000 160112    4825  	oct	000000160112
    011302  aa   000000 000033    4826  	oct	000000000033
    011303  aa   000000 000002    4827  	oct	000000000002
    011304  aa   000000 000000    4828  	oct	000000000000
    011305  aa   000000 160145    4829  	oct	000000160145
    011306  aa   000000 000017    4830  	oct	000000000017
    011307  aa   000000 000000    4831  	oct	000000000000
    011310  aa   000000 000000    4832  	oct	000000000000
    011311  aa   000000 160164    4833  	oct	000000160164
    011312  aa   000000 000055    4834  	oct	000000000055
    011313  aa   000000 000031    4835  	oct	000000000031
    011314  aa   000000 000000    4836  	oct	000000000000
    011315  aa   000000 160241    4837  	oct	000000160241
    011316  aa   000000 000032    4838  	oct	000000000032
    011317  aa   000000 000002    4839  	oct	000000000002
    011320  aa   000000 000000    4840  	oct	000000000000
    011321  aa   000000 160273    4841  	oct	000000160273
    011322  aa   000000 000034    4842  	oct	000000000034
    011323  aa   000000 000013    4843  	oct	000000000013
    011324  aa   000000 000000    4844  	oct	000000000000
    011325  aa   000000 160327    4845  	oct	000000160327
    011326  aa   000000 000032    4846  	oct	000000000032
    011327  aa   000000 000002    4847  	oct	000000000002
    011330  aa   000000 000000    4848  	oct	000000000000
    011331  aa   000000 160361    4849  	oct	000000160361
    011332  aa   000000 000030    4850  	oct	000000000030
    011333  aa   000000 000030    4851  	oct	000000000030
    011334  aa   000000 000000    4852  	oct	000000000000
    011335  aa   000000 160411    4853  	oct	000000160411
    011336  aa   000000 000053    4854  	oct	000000000053
    011337  aa   000000 000000    4855  	oct	000000000000
    011340  aa   000000 000000    4856  	oct	000000000000
    011341  aa   000000 160464    4857  	oct	000000160464
    011342  aa   000000 000116    4858  	oct	000000000116
    011343  aa   000000 000003    4859  	oct	000000000003
    011344  aa   000000 000000    4860  	oct	000000000000
    011345  aa   000000 160602    4861  	oct	000000160602
    011346  aa   000000 000076    4862  	oct	000000000076
    011347  aa   000000 000003    4863  	oct	000000000003
    011350  aa   000000 000000    4864  	oct	000000000000
    011351  aa   000000 160700    4865  	oct	000000160700
    011352  aa   000000 000071    4866  	oct	000000000071
    011353  aa   000000 000003    4867  	oct	000000000003
    011354  aa   000000 000000    4868  	oct	000000000000
    011355  aa   000000 160771    4869  	oct	000000160771
    011356  aa   000000 000071    4870  	oct	000000000071
    011357  aa   000000 000003    4871  	oct	000000000003
    011360  aa   000000 000000    4872  	oct	000000000000
    011361  aa   000000 161062    4873  	oct	000000161062
    011362  aa   000000 000067    4874  	oct	000000000067
    011363  aa   000000 000003    4875  	oct	000000000003
    011364  aa   000000 000000    4876  	oct	000000000000
    011365  aa   000000 161151    4877  	oct	000000161151
    011366  aa   000000 000130    4878  	oct	000000000130
    011367  aa   000000 000003    4879  	oct	000000000003
    011370  aa   000000 000000    4880  	oct	000000000000
    011371  aa   000000 161301    4881  	oct	000000161301
    011372  aa   000000 000127    4882  	oct	000000000127
    011373  aa   000000 000003    4883  	oct	000000000003
    011374  aa   000000 000000    4884  	oct	000000000000
    011375  aa   124150 151163    4885  	oct	124150151163
    011376  aa   040167 157162    4886  	oct	040167157162
    011377  aa   144040 143157    4887  	oct	144040143157
    011400  aa   156164 141151    4888  	oct	156164141151
    011401  aa   156163 040141    4889  	oct	156163040141
    011402  aa   156040 151154    4890  	oct	156040151154
    011403  aa   154145 147141    4891  	oct	154145147141
    011404  aa   154040 143150    4892  	oct	154040143150
    011405  aa   141162 141143    4893  	oct	141162141143
    011406  aa   164145 162040    4894  	oct	164145162040
    011407  aa   124150 151163    4895  	oct	124150151163
    011410  aa   040167 157162    4896  	oct	040167157162
    011411  aa   144040 145170    4897  	oct	144040145170
    011412  aa   143145 145144    4898  	oct	143145145144
    011413  aa   163040 164150    4899  	oct	163040164150
    011414  aa   145040 155141    4900  	oct	145040155141
    011415  aa   170151 155165    4901  	oct	170151155165
    011416  aa   155040 154145    4902  	oct	155040154145
    011417  aa   156147 164150    4903  	oct	156147164150
    011420  aa   040157 146040    4904  	oct	040157146040
    011421  aa   136040 143150    4905  	oct	136040143150
    011422  aa   141162 141143    4906  	oct	141162141143
    011423  aa   164145 162163    4907  	oct	164145162163
    011424  aa   040111 154154    4908  	oct	040111154154
    011425  aa   145147 141154    4909  	oct	145147141154
    011426  aa   040164 145162    4910  	oct	040164145162
    011427  aa   155151 156141    4911  	oct	155151156141
    011430  aa   164151 157156    4912  	oct	164151157156
    011431  aa   040157 146040    4913  	oct	040157146040
    011432  aa   141156 040141    4914  	oct	141156040141
    011433  aa   154160 150141    4915  	oct	154160150141
    011434  aa   156165 155145    4916  	oct	156165155145
    011435  aa   162151 143040    4917  	oct	162151143040
    011436  aa   154151 164145    4918  	oct	154151164145
    011437  aa   162141 154040    4919  	oct	162141154040
    011440  aa   114151 164145    4920  	oct	114151164145
    011441  aa   162141 154040    4921  	oct	162141154040
    011442  aa   154145 156147    4922  	oct	154145156147
    011443  aa   164150 040151    4923  	oct	164150040151
    011444  aa   163040 172145    4924  	oct	163040172145
    011445  aa   162157 040157    4925  	oct	162157040157
    011446  aa   162040 145170    4926  	oct	162040145170
    011447  aa   143145 145144    4927  	oct	143145145144
    011450  aa   163040 155141    4928  	oct	163040155141
    011451  aa   170151 155165    4929  	oct	170151155165
    011452  aa   155040 157146    4930  	oct	155040157146
    011453  aa   040136 040143    4931  	oct	040136040143
    011454  aa   150141 162141    4932  	oct	150141162141
    011455  aa   143164 145162    4933  	oct	143164145162
    011456  aa   163040 111154    4934  	oct	163040111154
    011457  aa   154145 147141    4935  	oct	154145147141
    011460  aa   154040 143157    4936  	oct	154040143157
    011461  aa   156164 151156    4937  	oct	156164151156
    011462  aa   165141 164151    4938  	oct	165141164151
    011463  aa   157156 040157    4939  	oct	157156040157
    011464  aa   146040 141156    4940  	oct	146040141156
    011465  aa   040141 154160    4941  	oct	040141154160
    011466  aa   150141 156165    4942  	oct	150141156165
    011467  aa   155145 162151    4943  	oct	155145162151
    011470  aa   143040 157162    4944  	oct	143040157162
    011471  aa   040142 151164    4945  	oct	040142151164
    011472  aa   040163 164162    4946  	oct	040163164162
    011473  aa   151156 147040    4947  	oct	151156147040
    011474  aa   154151 164145    4948  	oct	154151164145
    011475  aa   162141 154040    4949  	oct	162141154040
    011476  aa   101156 040151    4950  	oct	101156040151
    011477  aa   154154 145147    4951  	oct	154154145147
    011500  aa   141154 040144    4952  	oct	141154040144
    011501  aa   145154 151155    4953  	oct	145154151155
    011502  aa   151164 145162    4954  	oct	151164145162
    011503  aa   040146 157154    4955  	oct	040146157154
    011504  aa   154157 167163    4956  	oct	154157167163
    011505  aa   040164 150151    4957  	oct	040164150151
    011506  aa   163040 167157    4958  	oct	163040167157
    011507  aa   162144 040116    4959  	oct	162144040116
    011510  aa   145163 164145    4960  	oct	145163164145
    011511  aa   144040 103117    4961  	oct	144040103117
    011512  aa   120131 040163    4962  	oct	120131040163
    011513  aa   164141 164145    4963  	oct	164141164145
    011514  aa   155145 156164    4964  	oct	155145156164
    011515  aa   163040 141162    4965  	oct	163040141162
    011516  aa   145040 151154    4966  	oct	145040151154
    011517  aa   154145 147141    4967  	oct	154145147141
    011520  aa   154040 111154    4968  	oct	154040111154
    011521  aa   154145 147141    4969  	oct	154145147141
    011522  aa   154040 143157    4970  	oct	154040143157
    011523  aa   156164 151156    4971  	oct	156164151156
    011524  aa   165141 164151    4972  	oct	165141164151
    011525  aa   157156 040055    4973  	oct	157156040055
    011526  aa   040101 162145    4974  	oct	040101162145
    011527  aa   141040 101040    4975  	oct	141040101040
    011530  aa   163150 157165    4976  	oct	163150157165
    011531  aa   154144 040142    4977  	oct	154144040142
    011532  aa   145040 142154    4978  	oct	145040142154
    011533  aa   141156 153073    4979  	oct	141156153073
    011534  aa   040163 157165    4980  	oct	040163157165
    011535  aa   162143 145040    4981  	oct	162143145040
    011536  aa   154151 156145    4982  	oct	154151156145
    011537  aa   040141 143143    4983  	oct	040141143143
    011540  aa   145160 164145    4984  	oct	145160164145
    011541  aa   144040 111154    4985  	oct	144040111154
    011542  aa   154145 147141    4986  	oct	154145147141
    011543  aa   154040 143157    4987  	oct	154040143157
    011544  aa   156164 151156    4988  	oct	156164151156
    011545  aa   165141 164151    4989  	oct	165141164151
    011546  aa   157156 040055    4990  	oct	157156040055
    011547  aa   040164 150145    4991  	oct	040164150145
    011550  aa   162145 040151    4992  	oct	162145040151
    011551  aa   163040 156157    4993  	oct	163040156157
    011552  aa   164150 151156    4994  	oct	164150151156
    011553  aa   147040 146162    4995  	oct	147040146162
    011554  aa   157155 040167    4996  	oct	157155040167
    011555  aa   150151 143150    4997  	oct	150151143150
    011556  aa   040164 157040    4998  	oct	040164157040
    011557  aa   143157 156164    4999  	oct	143157156164
    011560  aa   151156 165145    5000  	oct	151156165145
    011561  aa   073040 163157    5001  	oct	073040163157
    011562  aa   165162 143145    5002  	oct	165162143145
    011563  aa   040154 151156    5003  	oct	040154151156
    011564  aa   145040 151147    5004  	oct	145040151147
    011565  aa   156157 162145    5005  	oct	156157162145
    011566  aa   144040 123171    5006  	oct	144040123171
    011567  aa   156164 141170    5007  	oct	156164141170
    011570  aa   040145 162162    5008  	oct	040145162162
    011571  aa   157162 040123    5009  	oct	157162040123
    011572  aa   171156 164141    5010  	oct	171156164141
    011573  aa   170040 143150    5011  	oct	170040143150
    011574  aa   145143 153151    5012  	oct	145143153151
    011575  aa   156147 040144    5013  	oct	156147040144
    011576  aa   151163 143157    5014  	oct	151163143157
    011577  aa   156164 151156    5015  	oct	156164151156
    011600  aa   165145 144040    5016  	oct	165145144040
    011601  aa   123171 156164    5017  	oct	123171156164
    011602  aa   141170 040143    5018  	oct	141170040143
    011603  aa   150145 143153    5019  	oct	150145143153
    011604  aa   151156 147040    5020  	oct	151156147040
    011605  aa   162145 163165    5021  	oct	162145163165
    011606  aa   155145 144040    5022  	oct	155145144040
    011607  aa   120145 162151    5023  	oct	120145162151
    011610  aa   157144 040155    5024  	oct	157144040155
    011611  aa   151163 163151    5025  	oct	151163163151
    011612  aa   156147 040146    5026  	oct	156147040146
    011613  aa   162157 155040    5027  	oct	162157155040
    011614  aa   103117 120131    5028  	oct	103117120131
    011615  aa   040163 164141    5029  	oct	040163164141
    011616  aa   164145 155145    5030  	oct	164145155145
    011617  aa   156164 040124    5031  	oct	156164040124
    011620  aa   150145 040167    5032  	oct	150145040167
    011621  aa   157162 144040    5033  	oct	157162144040
    011622  aa   136040 151163    5034  	oct	136040151163
    011623  aa   040155 151163    5035  	oct	040155151163
    011624  aa   163151 156147    5036  	oct	163151156147
    011625  aa   073040 151164    5037  	oct	073040151164
    011626  aa   163040 160162    5038  	oct	163040160162
    011627  aa   145163 145156    5039  	oct	145163145156
    011630  aa   143145 040141    5040  	oct	143145040141
    011631  aa   163163 165155    5041  	oct	163163165155
    011632  aa   145144 040120    5042  	oct	145144040120
    011633  aa   141162 164040    5043  	oct	141162164040
    011634  aa   157162 040141    5044  	oct	157162040141
    011635  aa   154154 040157    5045  	oct	154154040157
    011636  aa   146040 164150    5046  	oct	146040164150
    011637  aa   151163 040145    5047  	oct	151163040145
    011640  aa   156164 162171    5048  	oct	156164162171
    011641  aa   040151 163040    5049  	oct	040151163040
    011642  aa   141154 162145    5050  	oct	141154162145
    011643  aa   141144 171040    5051  	oct	141144171040
    011644  aa   151156 040164    5052  	oct	151156040164
    011645  aa   150145 040162    5053  	oct	150145040162
    011646  aa   145160 154141    5054  	oct	145160154141
    011647  aa   143145 155145    5055  	oct	143145155145
    011650  aa   156164 040164    5056  	oct	156164040164
    011651  aa   141142 154145    5057  	oct	141142154145
    011652  aa   073040 145156    5058  	oct	073040145156
    011653  aa   164162 171040    5059  	oct	164162171040
    011654  aa   151147 156157    5060  	oct	151147156157
    011655  aa   162145 144040    5061  	oct	162145144040
    011656  aa   117142 163157    5062  	oct	117142163157
    011657  aa   154145 164145    5063  	oct	154145164145
    011660  aa   040165 163141    5064  	oct	040165163141
    011661  aa   147145 040157    5065  	oct	147145040157
    011662  aa   146040 116117    5066  	oct	146040116117
    011663  aa   124105 040163    5067  	oct	124105040163
    011664  aa   164141 164145    5068  	oct	164141164145
    011665  aa   155145 156164    5069  	oct	155145156164
    011666  aa   040141 143143    5070  	oct	040141143143
    011667  aa   145160 164145    5071  	oct	145160164145
    011670  aa   144040 114145    5072  	oct	144040114145
    011671  aa   146164 040160    5073  	oct	146164040160
    011672  aa   141162 164040    5074  	oct	141162164040
    011673  aa   157146 040160    5075  	oct	157146040160
    011674  aa   163145 165144    5076  	oct	163145165144
    011675  aa   157055 164145    5077  	oct	157055164145
    011676  aa   170164 040155    5078  	oct	170164040155
    011677  aa   165163 164040    5079  	oct	165163164040
    011700  aa   156157 164040    5080  	oct	156157164040
    011701  aa   142145 040156    5081  	oct	142145040156
    011702  aa   165154 154073    5082  	oct	165154154073
    011703  aa   040145 156164    5083  	oct	040145156164
    011704  aa   162171 040151    5084  	oct	162171040151
    011705  aa   147156 157162    5085  	oct	147156157162
    011706  aa   145144 040103    5086  	oct	145144040103
    011707  aa   157156 164145    5087  	oct	157156164145
    011710  aa   156164 163040    5088  	oct	156164163040
    011711  aa   157146 040111    5089  	oct	157146040111
    011712  aa   156144 151143    5090  	oct	156144151143
    011713  aa   141164 157162    5091  	oct	141164157162
    011714  aa   040101 162145    5092  	oct	040101162145
    011715  aa   141040 050143    5093  	oct	141040050143
    011716  aa   157154 165155    5094  	oct	157154165155
    011717  aa   156040 067051    5095  	oct	156040067051
    011720  aa   040151 163040    5096  	oct	040151163040
    011721  aa   151156 166141    5097  	oct	151156166141
    011722  aa   154151 144073    5098  	oct	154151144073
    011723  aa   040143 150141    5099  	oct	040143150141
    011724  aa   162141 143164    5100  	oct	162141143164
    011725  aa   145162 040151    5101  	oct	145162040151
    011726  aa   147156 157162    5102  	oct	147156157162
    011727  aa   145144 040124    5103  	oct	145144040124
    011730  aa   150145 040136    5104  	oct	150145040136
    011731  aa   040104 111126    5105  	oct	040104111126
    011732  aa   111123 111117    5106  	oct	111123111117
    011733  aa   116040 150145    5107  	oct	116040150145
    011734  aa   141144 145162    5108  	oct	141144145162
    011735  aa   040151 163040    5109  	oct	040151163040
    011736  aa   155151 163163    5110  	oct	155151163163
    011737  aa   151156 147073    5111  	oct	151156147073
    011740  aa   040141 156040    5112  	oct	040141156040
    011741  aa   145155 160164    5113  	oct	145155160164
    011742  aa   171040 144151    5114  	oct	171040144151
    011743  aa   166151 163151    5115  	oct	166151163151
    011744  aa   157156 040151    5116  	oct	157156040151
    011745  aa   163040 141163    5117  	oct	163040141163
    011746  aa   163165 155145    5118  	oct	163165155145
    011747  aa   144040 104165    5119  	oct	144040104165
    011750  aa   160154 151143    5120  	oct	160154151143
    011751  aa   141164 145040    5121  	oct	141164145040
    011752  aa   144151 166151    5122  	oct	144151166151
    011753  aa   163151 157156    5123  	oct	163151157156
    011754  aa   040150 145141    5124  	oct	040150145141
    011755  aa   144145 162040    5125  	oct	144145162040
    011756  aa   124150 145040    5126  	oct	124150145040
    011757  aa   136040 104111    5127  	oct	136040104111
    011760  aa   126111 123111    5128  	oct	126111123111
    011761  aa   117116 040150    5129  	oct	117116040150
    011762  aa   145141 144145    5130  	oct	145141144145
    011763  aa   162040 151163    5131  	oct	162040151163
    011764  aa   040155 151163    5132  	oct	040155151163
    011765  aa   163151 156147    5133  	oct	163151156147
    011766  aa   040105 162162    5134  	oct	040105162162
    011767  aa   157162 040151    5135  	oct	157162040151
    011770  aa   156040 136040    5136  	oct	156040136040
    011771  aa   143154 141165    5137  	oct	143154141165
    011772  aa   163145 040124    5138  	oct	163145040124
    011773  aa   150151 163040    5139  	oct	150151163040
    011774  aa   141160 160141    5140  	oct	141160160141
    011775  aa   162145 156164    5141  	oct	162145156164
    011776  aa   040160 162157    5142  	oct	040160162157
    011777  aa   143145 144165    5143  	oct	143145144165
    012000  aa   162145 055156    5144  	oct	162145055156
    012001  aa   141155 145040    5145  	oct	141155145040
    012002  aa   151163 040141    5146  	oct	151163040141
    012003  aa   040162 145163    5147  	oct	040162145163
    012004  aa   145162 166145    5148  	oct	145162166145
    012005  aa   144040 167157    5149  	oct	144040167157
    012006  aa   162144 040124    5150  	oct	162144040124
    012007  aa   150151 163040    5151  	oct	150151163040
    012010  aa   167157 162144    5152  	oct	167157162144
    012011  aa   040151 163040    5153  	oct	040151163040
    012012  aa   162145 163145    5154  	oct	162145163145
    012013  aa   162166 145144    5155  	oct	162166145144
    012014  aa   040146 157162    5156  	oct	040146157162
    012015  aa   040146 165164    5157  	oct	040146165164
    012016  aa   165162 145040    5158  	oct	165162145040
    012017  aa   151155 160154    5159  	oct	151155160154
    012020  aa   145155 145156    5160  	oct	145155145156
    012021  aa   164141 164151    5161  	oct	164141164151
    012022  aa   157156 040111    5162  	oct	157156040111
    012023  aa   156166 141154    5163  	oct	156166141154
    012024  aa   151144 040145    5164  	oct	151144040145
    012025  aa   163143 141160    5165  	oct	163143141160
    012026  aa   145040 163164    5166  	oct	145040163164
    012027  aa   162151 156147    5167  	oct	162151156147
    012030  aa   040151 156040    5168  	oct	040151156040
    012031  aa   141156 040141    5169  	oct	141156040141
    012032  aa   154160 150141    5170  	oct	154160150141
    012033  aa   156165 155145    5171  	oct	156165155145
    012034  aa   162151 143040    5172  	oct	162151143040
    012035  aa   154151 164145    5173  	oct	154151164145
    012036  aa   162141 154040    5174  	oct	162141154040
    012037  aa   124150 151163    5175  	oct	124150151163
    012040  aa   040146 145141    5176  	oct	040146145141
    012041  aa   164165 162145    5177  	oct	164165162145
    012042  aa   040151 163040    5178  	oct	040151163040
    012043  aa   156157 164040    5179  	oct	156157164040
    012044  aa   151156 143154    5180  	oct	151156143154
    012045  aa   165144 145144    5181  	oct	165144145144
    012046  aa   040151 156040    5182  	oct	040151156040
    012047  aa   164150 145040    5183  	oct	164150145040
    012050  aa   143165 162162    5184  	oct	143165162162
    012051  aa   145156 164040    5185  	oct	145156164040
    012052  aa   154145 166145    5186  	oct	154145166145
    012053  aa   154040 157146    5187  	oct	154040157146
    012054  aa   040164 150145    5188  	oct	040164150145
    012055  aa   040143 157155    5189  	oct	040143157155
    012056  aa   160151 154145    5190  	oct	160151154145
    012057  aa   162040 125163    5191  	oct	162040125163
    012060  aa   145040 157146    5192  	oct	145040157146
    012061  aa   040164 150151    5193  	oct	040164150151
    012062  aa   163040 146145    5194  	oct	163040146145
    012063  aa   141164 165162    5195  	oct	141164165162
    012064  aa   145040 151163    5196  	oct	145040151163
    012065  aa   040162 145163    5197  	oct	040162145163
    012066  aa   164162 151143    5198  	oct	164162151143
    012067  aa   164145 144040    5199  	oct	164145144040
    012070  aa   142171 040164    5200  	oct	142171040164
    012071  aa   150151 163040    5201  	oct	150151163040
    012072  aa   151156 163164    5202  	oct	151156163164
    012073  aa   141154 154141    5203  	oct	141154154141
    012074  aa   164151 157156    5204  	oct	164151157156
    012075  aa   040103 117120    5205  	oct	040103117120
    012076  aa   131040 146151    5206  	oct	131040146151
    012077  aa   154145 040156    5207  	oct	154145040156
    012100  aa   157164 040146    5208  	oct	157164040146
    012101  aa   157165 156144    5209  	oct	157165156144
    012102  aa   040111 154154    5210  	oct	040111154154
    012103  aa   145147 141154    5211  	oct	145147141154
    012104  aa   040143 157156    5212  	oct	040143157156
    012105  aa   164151 156165    5213  	oct	164151156165
    012106  aa   141164 151157    5214  	oct	141164151157
    012107  aa   156040 055040    5215  	oct	156040055040
    012110  aa   144145 142165    5216  	oct	144145142165
    012111  aa   147147 151156    5217  	oct	147147151156
    012112  aa   147040 154151    5218  	oct	147040154151
    012113  aa   156145 163040    5219  	oct	156145163040
    012114  aa   155165 163164    5220  	oct	155165163164
    012115  aa   040156 157164    5221  	oct	040156157164
    012116  aa   040142 145040    5222  	oct	040142145040
    012117  aa   143157 156164    5223  	oct	143157156164
    012120  aa   151156 165145    5224  	oct	151156165145
    012121  aa   144073 040163    5225  	oct	144073040163
    012122  aa   157165 162143    5226  	oct	157165162143
    012123  aa   145040 154151    5227  	oct	145040154151
    012124  aa   156145 040141    5228  	oct	156145040141
    012125  aa   143143 145160    5229  	oct	143143145160
    012126  aa   164145 144040    5230  	oct	164145144040
    012127  aa   101156 040151    5231  	oct	101156040151
    012130  aa   154154 145147    5232  	oct	154154145147
    012131  aa   141154 040144    5233  	oct	141154040144
    012132  aa   145154 151155    5234  	oct	145154151155
    012133  aa   151164 145162    5235  	oct	151164145162
    012134  aa   040160 162145    5236  	oct	040160162145
    012135  aa   143145 144145    5237  	oct	143145144145
    012136  aa   163040 164150    5238  	oct	163040164150
    012137  aa   151163 040157    5239  	oct	151163040157
    012140  aa   160145 162141    5240  	oct	160145162141
    012141  aa   164157 162040    5241  	oct	164157162040
    012142  aa   101156 040151    5242  	oct	101156040151
    012143  aa   154154 145147    5243  	oct	154154145147
    012144  aa   141154 040144    5244  	oct	141154040144
    012145  aa   145154 151155    5245  	oct	145154151155
    012146  aa   151164 145162    5246  	oct	151164145162
    012147  aa   040146 157154    5247  	oct	040146157154
    012150  aa   154157 167163    5248  	oct	154157167163
    012151  aa   040164 150151    5249  	oct	040164150151
    012152  aa   163040 157160    5250  	oct	163040157160
    012153  aa   145162 141164    5251  	oct	145162141164
    012154  aa   157162 040123    5252  	oct	157162040123
    012155  aa   171156 164141    5253  	oct	171156164141
    012156  aa   170040 143150    5254  	oct	170040143150
    012157  aa   145143 153151    5255  	oct	145143153151
    012160  aa   156147 040144    5256  	oct	156147040144
    012161  aa   151163 143157    5257  	oct	151163143157
    012162  aa   156164 151156    5258  	oct	156164151156
    012163  aa   165145 144040    5259  	oct	165145144040
    012164  aa   146157 162040    5260  	oct	146157162040
    012165  aa   162145 155141    5261  	oct	162145155141
    012166  aa   151156 144145    5262  	oct	151156144145
    012167  aa   162040 157146    5263  	oct	162040157146
    012170  aa   040160 162157    5264  	oct	040160162157
    012171  aa   147162 141155    5265  	oct	147162141155
    012172  aa   040103 117115    5266  	oct	040103117115
    012173  aa   120055 061040    5267  	oct	120055061040
    012174  aa   144141 164141    5268  	oct	144141164141
    012175  aa   040151 163040    5269  	oct	040151163040
    012176  aa   156157 164040    5270  	oct	156157164040
    012177  aa   163165 160160    5271  	oct	163165160160
    012200  aa   157162 164145    5272  	oct	157162164145
    012201  aa   144040 055040    5273  	oct	144040055040
    012202  aa   141154 154040    5274  	oct	141154154040
    012203  aa   162145 146145    5275  	oct	162145146145
    012204  aa   162145 156143    5276  	oct	162145156143
    012205  aa   145163 040164    5277  	oct	145163040164
    012206  aa   157040 151164    5278  	oct	157040151164
    012207  aa   040141 162145    5279  	oct	040141162145
    012210  aa   040164 162145    5280  	oct	040164162145
    012211  aa   141164 145144    5281  	oct	141164145144
    012212  aa   040141 163040    5282  	oct	040141163040
    012213  aa   103117 115120    5283  	oct	103117115120
    012214  aa   055067 040050    5284  	oct	055067040050
    012215  aa   061067 055142    5285  	oct	061067055142
    012216  aa   151164 040142    5286  	oct	151164040142
    012217  aa   151156 141162    5287  	oct	151156141162
    012220  aa   171051 040103    5288  	oct	171051040103
    012221  aa   117115 120055    5289  	oct	117115120055
    012222  aa   062040 144141    5290  	oct	062040144141
    012223  aa   164141 040151    5291  	oct	164141040151
    012224  aa   163040 156157    5292  	oct	163040156157
    012225  aa   164040 163165    5293  	oct	164040163165
    012226  aa   160160 157162    5294  	oct	160160157162
    012227  aa   164145 144040    5295  	oct	164145144040
    012230  aa   055040 141154    5296  	oct	055040141154
    012231  aa   154040 162145    5297  	oct	154040162145
    012232  aa   146145 162145    5298  	oct	146145162145
    012233  aa   156143 145163    5299  	oct	156143145163
    012234  aa   040164 157040    5300  	oct	040164157040
    012235  aa   151164 040141    5301  	oct	151164040141
    012236  aa   162145 040164    5302  	oct	162145040164
    012237  aa   162145 141164    5303  	oct	162145141164
    012240  aa   145144 040141    5304  	oct	145144040141
    012241  aa   163040 103117    5305  	oct	163040103117
    012242  aa   115120 055066    5306  	oct	115120055066
    012243  aa   040050 063065    5307  	oct	040050063065
    012244  aa   055142 151164    5308  	oct	055142151164
    012245  aa   040142 151156    5309  	oct	040142151156
    012246  aa   141162 171051    5310  	oct	141162171051
    012247  aa   040124 150145    5311  	oct	040124150145
    012250  aa   040122 105120    5312  	oct	040122105120
    012251  aa   114101 103105    5313  	oct	114101103105
    012252  aa   040163 164141    5314  	oct	040163164141
    012253  aa   164145 155145    5315  	oct	164145155145
    012254  aa   156164 040151    5316  	oct	156164040151
    012255  aa   163040 151154    5317  	oct	163040151154
    012256  aa   154145 147141    5318  	oct	154145147141
    012257  aa   154040 124150    5319  	oct	154040124150
    012260  aa   145040 103117    5320  	oct	145040103117
    012261  aa   120131 040122    5321  	oct	120131040122
    012262  aa   105120 114101    5322  	oct	105120114101
    012263  aa   103111 116107    5323  	oct	103111116107
    012264  aa   040163 164141    5324  	oct	040163164141
    012265  aa   164145 155145    5325  	oct	164145155145
    012266  aa   156164 040151    5326  	oct	156164040151
    012267  aa   163040 151154    5327  	oct	163040151154
    012270  aa   154145 147141    5328  	oct	154145147141
    012271  aa   154040 111155    5329  	oct	154040111155
    012272  aa   160154 145155    5330  	oct	160154145155
    012273  aa   145156 164141    5331  	oct	145156164141
    012274  aa   164151 157156    5332  	oct	164151157156
    012275  aa   040162 145163    5333  	oct	040162145163
    012276  aa   164162 151143    5334  	oct	164162151143
    012277  aa   164151 157156    5335  	oct	164151157156
    012300  aa   072040 101040    5336  	oct	072040101040
    012301  aa   127117 122113    5337  	oct	127117122113
    012302  aa   111116 107055    5338  	oct	111116107055
    012303  aa   123124 117122    5339  	oct	123124117122
    012304  aa   101107 105040    5340  	oct	101107105040
    012305  aa   163145 143164    5341  	oct	163145143164
    012306  aa   151157 156040    5342  	oct	151157156040
    012307  aa   151163 040162    5343  	oct	151163040162
    012310  aa   145161 165151    5344  	oct	145161165151
    012311  aa   162145 144040    5345  	oct	162145144040
    012312  aa   167150 145156    5346  	oct	167150145156
    012313  aa   040104 105102    5347  	oct	040104105102
    012314  aa   125107 107111    5348  	oct	125107107111
    012315  aa   116107 055115    5349  	oct	116107055115
    012316  aa   117104 105040    5350  	oct	117104105040
    012317  aa   151163 040165    5351  	oct	151163040165
    012320  aa   163145 144040    5352  	oct	163145144040
    012321  aa   111154 154145    5353  	oct	111154154145
    012322  aa   147141 154040    5354  	oct	147141154040
    012323  aa   157162 040155    5355  	oct	157162040155
    012324  aa   151163 163151    5356  	oct	151163163151
    012325  aa   156147 040144    5357  	oct	156147040144
    012326  aa   151166 151163    5358  	oct	151166151163
    012327  aa   151157 156040    5359  	oct	151157156040
    012330  aa   150145 141144    5360  	oct	150145141144
    012331  aa   145162 163040    5361  	oct	145162163040
    012332  aa   124150 145040    5362  	oct	124150145040
    012333  aa   136040 123105    5363  	oct	136040123105
    012334  aa   103124 111117    5364  	oct	103124111117
    012335  aa   116040 167141    5365  	oct	116040167141
    012336  aa   163040 160162    5366  	oct	163040160162
    012337  aa   145166 151157    5367  	oct	145166151157
    012340  aa   165163 154171    5368  	oct	165163154171
    012341  aa   040144 145146    5369  	oct	040144145146
    012342  aa   151156 145144    5370  	oct	151156145144
    012343  aa   040101 040154    5371  	oct	040101040154
    012344  aa   151156 145040    5372  	oct	151156145040
    012345  aa   157146 040151    5373  	oct	157146040151
    012346  aa   156144 145164    5374  	oct	156144145164
    012347  aa   145162 155151    5375  	oct	145162155151
    012350  aa   156141 164145    5376  	oct	156141164145
    012351  aa   040154 145156    5377  	oct	040154145156
    012352  aa   147164 150040    5378  	oct	147164150040
    012353  aa   150141 163040    5379  	oct	150141163040
    012354  aa   142145 145156    5380  	oct	142145145156
    012355  aa   040146 157165    5381  	oct	040146157165
    012356  aa   156144 054040    5382  	oct	156144054040
    012357  aa   145156 144040    5383  	oct	145156144040
    012360  aa   157146 040163    5384  	oct	157146040163
    012361  aa   157165 162143    5385  	oct	157165162143
    012362  aa   145040 141163    5386  	oct	145040141163
    012363  aa   163165 155145    5387  	oct	163165155145
    012364  aa   144040 124150    5388  	oct	144040124150
    012365  aa   151163 040167    5389  	oct	151163040167
    012366  aa   157162 144040    5390  	oct	157162144040
    012367  aa   163150 157165    5391  	oct	163150157165
    012370  aa   154144 040142    5392  	oct	154144040142
    012371  aa   145147 151156    5393  	oct	145147151156
    012372  aa   040151 156040    5394  	oct	040151156040
    012373  aa   101162 145141    5395  	oct	101162145141
    012374  aa   040101 040124    5396  	oct	040101040124
    012375  aa   150145 040167    5397  	oct	150145040167
    012376  aa   157162 144040    5398  	oct	157162144040
    012377  aa   104111 126111    5399  	oct	104111126111
    012400  aa   123111 117116    5400  	oct	123111117116
    012401  aa   040151 163040    5401  	oct	040151163040
    012402  aa   162145 161165    5402  	oct	162145161165
    012403  aa   151162 145144    5403  	oct	151162145144
    012404  aa   040150 145162    5404  	oct	040150145162
    012405  aa   145040 101040    5405  	oct	145040101040
    012406  aa   160145 162151    5406  	oct	160145162151
    012407  aa   157144 040151    5407  	oct	157144040151
    012410  aa   163040 162145    5408  	oct	163040162145
    012411  aa   161165 151162    5409  	oct	161165151162
    012412  aa   145144 040160    5410  	oct	145144040160
    012413  aa   162151 157162    5411  	oct	162151157162
    012414  aa   040164 157040    5412  	oct	040164157040
    012415  aa   164150 151163    5413  	oct	164150151163
    012416  aa   040167 157162    5414  	oct	040167157162
    012417  aa   144040 124150    5415  	oct	144040124150
    012420  aa   145040 120122    5416  	oct	145040120122
    012421  aa   117107 122101    5417  	oct	117107122101
    012422  aa   115055 111104    5418  	oct	115055111104
    012423  aa   040160 141162    5419  	oct	040160141162
    012424  aa   141147 162141    5420  	oct	141147162141
    012425  aa   160150 040151    5421  	oct	160150040151
    012426  aa   163040 155151    5422  	oct	163040155151
    012427  aa   163163 151156    5423  	oct	163163151156
    012430  aa   147040 055040    5424  	oct	147040055040
    012431  aa   145156 164162    5425  	oct	145156164162
    012432  aa   171040 156141    5426  	oct	171040156141
    012433  aa   155145 040141    5427  	oct	155145040141
    012434  aa   163163 165155    5428  	oct	163163165155
    012435  aa   145144 040151    5429  	oct	145144040151
    012436  aa   144145 156164    5430  	oct	144145156164
    012437  aa   151143 141154    5431  	oct	151143141154
    012440  aa   040164 157040    5432  	oct	040164157040
    012441  aa   157142 152145    5433  	oct	157142152145
    012442  aa   143164 040163    5434  	oct	143164040163
    012443  aa   145147 155145    5435  	oct	145147155145
    012444  aa   156164 040156    5436  	oct	156164040156
    012445  aa   141155 145040    5437  	oct	141155145040
    012446  aa   124150 145040    5438  	oct	124150145040
    012447  aa   160162 157147    5439  	oct	160162157147
    012450  aa   162141 155055    5440  	oct	162141155055
    012451  aa   156141 155145    5441  	oct	156141155145
    012452  aa   040151 163040    5442  	oct	040151163040
    012453  aa   151156 143157    5443  	oct	151156143157
    012454  aa   162162 145143    5444  	oct	162162145143
    012455  aa   164154 171040    5445  	oct	164154171040
    012456  aa   163160 145143    5446  	oct	163160145143
    012457  aa   151146 151145    5447  	oct	151146151145
    012460  aa   144040 124150    5448  	oct	144040124150
    012461  aa   151163 040167    5449  	oct	151163040167
    012462  aa   157162 144040    5450  	oct	157162144040
    012463  aa   151163 040156    5451  	oct	151163040156
    012464  aa   157164 040141    5452  	oct	157164040141
    012465  aa   040154 145147    5453  	oct	040154145147
    012466  aa   141154 040160    5454  	oct	141154040160
    012467  aa   141162 141147    5455  	oct	141162141147
    012470  aa   162141 160150    5456  	oct	162141160150
    012471  aa   055156 141155    5457  	oct	055156141155
    012472  aa   145040 151156    5458  	oct	145040151156
    012473  aa   040164 150145    5459  	oct	040164150145
    012474  aa   040105 156166    5460  	oct	040105156166
    012475  aa   151162 157156    5461  	oct	151162157156
    012476  aa   155145 156164    5462  	oct	155145156164
    012477  aa   040104 151166    5463  	oct	040104151166
    012500  aa   151163 151157    5464  	oct	151163151157
    012501  aa   156040 101040    5465  	oct	156040101040
    012502  aa   110111 123111    5466  	oct	110111123111
    012503  aa   040143 157155    5467  	oct	040143157155
    012504  aa   160165 164145    5468  	oct	160165164145
    012505  aa   162055 156141    5469  	oct	162055156141
    012506  aa   155145 040151    5470  	oct	155145040151
    012507  aa   163040 162145    5471  	oct	163040162145
    012510  aa   161165 151162    5472  	oct	161165151162
    012511  aa   145144 040150    5473  	oct	145144040150
    012512  aa   145162 145040    5474  	oct	145162145040
    012513  aa   124150 145040    5475  	oct	124150145040
    012514  aa   160141 162141    5476  	oct	160141162141
    012515  aa   147162 141160    5477  	oct	147162141160
    012516  aa   150163 040157    5478  	oct	150163040157
    012517  aa   146040 164150    5479  	oct	146040164150
    012520  aa   145040 111144    5480  	oct	145040111144
    012521  aa   145156 164151    5481  	oct	145156164151
    012522  aa   146151 143141    5482  	oct	146151143141
    012523  aa   164151 157156    5483  	oct	164151157156
    012524  aa   040104 151166    5484  	oct	040104151166
    012525  aa   151163 151157    5485  	oct	151163151157
    012526  aa   156040 141162    5486  	oct	156040141162
    012527  aa   145040 156157    5487  	oct	145040156157
    012530  aa   164040 151156    5488  	oct	164040151156
    012531  aa   040160 162157    5489  	oct	040160162157
    012532  aa   160145 162040    5490  	oct	160145162040
    012533  aa   157162 144145    5491  	oct	157162144145
    012534  aa   162040 124150    5492  	oct	162040124150
    012535  aa   151163 040160    5493  	oct	151163040160
    012536  aa   162157 147162    5494  	oct	162157147162
    012537  aa   141155 040151    5495  	oct	141155040151
    012540  aa   163040 142145    5496  	oct	163040142145
    012541  aa   151156 147040    5497  	oct	151156147040
    012542  aa   143157 155160    5498  	oct	143157155160
    012543  aa   151154 145144    5499  	oct	151154145144
    012544  aa   040142 171040    5500  	oct	040142171040
    012545  aa   115165 154164    5501  	oct	115165154164
    012546  aa   151143 163040    5502  	oct	151143163040
    012547  aa   103117 102117    5503  	oct	103117102117
    012550  aa   114073 040157    5504  	oct	114073040157
    012551  aa   142152 145143    5505  	oct	142152145143
    012552  aa   164040 143157    5506  	oct	164040143157
    012553  aa   144145 040143    5507  	oct	144145040143
    012554  aa   162145 141164    5508  	oct	162145141164
    012555  aa   145144 040151    5509  	oct	145144040151
    012556  aa   163040 146157    5510  	oct	163040146157
    012557  aa   162040 115165    5511  	oct	162040115165
    012560  aa   154164 151143    5512  	oct	154164151143
    012561  aa   163040 124150    5513  	oct	163040124150
    012562  aa   151163 040167    5514  	oct	151163040167
    012563  aa   157162 144040    5515  	oct	157162144040
    012564  aa   151163 040156    5516  	oct	151163040156
    012565  aa   157164 040162    5517  	oct	157164040162
    012566  aa   145143 157147    5518  	oct	145143157147
    012567  aa   156151 172145    5519  	oct	156151172145
    012570  aa   144073 040167    5520  	oct	144073040167
    012571  aa   157162 144040    5521  	oct	157162144040
    012572  aa   151147 156157    5522  	oct	151147156157
    012573  aa   162145 144040    5523  	oct	162145144040
    012574  aa   124150 145040    5524  	oct	124150145040
    012575  aa   167157 162144    5525  	oct	167157162144
    012576  aa   040104 101124    5526  	oct	040104101124
    012577  aa   101040 157162    5527  	oct	101040157162
    012600  aa   040120 122117    5528  	oct	040120122117
    012601  aa   103105 104125    5529  	oct	103105104125
    012602  aa   122105 040151    5530  	oct	122105040151
    012603  aa   163040 162145    5531  	oct	163040162145
    012604  aa   161165 151162    5532  	oct	161165151162
    012605  aa   145144 040150    5533  	oct	145144040150
    012606  aa   145162 145040    5534  	oct	145162145040
    012607  aa   124150 145040    5535  	oct	124150145040
    012610  aa   167157 162144    5536  	oct	167157162144
    012611  aa   040123 105103    5537  	oct	040123105103
    012612  aa   124111 117116    5538  	oct	124111117116
    012613  aa   040151 163040    5539  	oct	040151163040
    012614  aa   162145 161165    5540  	oct	162145161165
    012615  aa   151162 145144    5541  	oct	151162145144
    012616  aa   040150 145162    5542  	oct	040150145162
    012617  aa   145040 124150    5543  	oct	145040124150
    012620  aa   145040 167157    5544  	oct	145040167157
    012621  aa   162144 040104    5545  	oct	162144040104
    012622  aa   105102 125107    5546  	oct	105102125107
    012623  aa   107111 116107    5547  	oct	107111116107
    012624  aa   040157 162040    5548  	oct	040157162040
    012625  aa   123125 120105    5549  	oct	123125120105
    012626  aa   122126 111123    5550  	oct	122126111123
    012627  aa   117122 040151    5551  	oct	117122040151
    012630  aa   163040 162145    5552  	oct	163040162145
    012631  aa   161165 151162    5553  	oct	161165151162
    012632  aa   145144 040150    5554  	oct	145144040150
    012633  aa   145162 145040    5555  	oct	145162145040
    012634  aa   124150 145040    5556  	oct	124150145040
    012635  aa   167157 162144    5557  	oct	167157162144
    012636  aa   040115 117104    5558  	oct	040115117104
    012637  aa   105040 151163    5559  	oct	105040151163
    012640  aa   040162 145161    5560  	oct	040162145161
    012641  aa   165151 162145    5561  	oct	165151162145
    012642  aa   144040 150145    5562  	oct	144040150145
    012643  aa   162145 040124    5563  	oct	162145040124
    012644  aa   150145 040143    5564  	oct	150145040143
    012645  aa   154141 165163    5565  	oct	154141165163
    012646  aa   145163 040151    5566  	oct	145163040151
    012647  aa   156040 164150    5567  	oct	156040164150
    012650  aa   145040 123117    5568  	oct	145040123117
    012651  aa   125122 103105    5569  	oct	125122103105
    012652  aa   055103 117115    5570  	oct	055103117115
    012653  aa   120125 124105    5571  	oct	120125124105
    012654  aa   122040 160141    5572  	oct	122040160141
    012655  aa   162141 147162    5573  	oct	162141147162
    012656  aa   141160 150040    5574  	oct	141160150040
    012657  aa   141162 145040    5575  	oct	141162145040
    012660  aa   156157 164040    5576  	oct	156157164040
    012661  aa   151156 040160    5577  	oct	151156040160
    012662  aa   162157 160145    5578  	oct	162157160145
    012663  aa   162040 157162    5579  	oct	162040157162
    012664  aa   144145 162040    5580  	oct	144145162040
    012665  aa   124150 145040    5581  	oct	124150145040
    012666  aa   167157 162144    5582  	oct	167157162144
    012667  aa   040123 105107    5583  	oct	040123105107
    012670  aa   115105 116124    5584  	oct	115105116124
    012671  aa   040157 162040    5585  	oct	040157162040
    012672  aa   104111 126111    5586  	oct	104111126111
    012673  aa   123111 117116    5587  	oct	123111117116
    012674  aa   040151 163040    5588  	oct	040151163040
    012675  aa   162145 161165    5589  	oct	162145161165
    012676  aa   151162 145144    5590  	oct	151162145144
    012677  aa   040150 145162    5591  	oct	040150145162
    012700  aa   145040 101156    5592  	oct	145040101156
    012701  aa   040151 156164    5593  	oct	040151156164
    012702  aa   145147 145162    5594  	oct	145147145162
    012703  aa   040142 145164    5595  	oct	040142145164
    012704  aa   167145 145156    5596  	oct	167145145156
    012705  aa   040060 040141    5597  	oct	040060040141
    012706  aa   156144 040064    5598  	oct	156144040064
    012707  aa   071040 151163    5599  	oct	071040151163
    012710  aa   040162 145161    5600  	oct	040162145161
    012711  aa   165151 162145    5601  	oct	165151162145
    012712  aa   144040 150145    5602  	oct	144040150145
    012713  aa   162145 040124    5603  	oct	162145040124
    012714  aa   150145 040155    5604  	oct	150145040155
    012715  aa   145155 157162    5605  	oct	145155157162
    012716  aa   171040 163151    5606  	oct	171040163151
    012717  aa   172145 040151    5607  	oct	172145040151
    012720  aa   163040 151156    5608  	oct	163040151156
    012721  aa   143157 162162    5609  	oct	143157162162
    012722  aa   145143 164154    5610  	oct	145143164154
    012723  aa   171040 163160    5611  	oct	171040163160
    012724  aa   145143 151146    5612  	oct	145143151146
    012725  aa   151145 144040    5613  	oct	151145144040
    012726  aa   124150 145040    5614  	oct	124150145040
    012727  aa   167157 162144    5615  	oct	167157162144
    012730  aa   040123 105121    5616  	oct	040123105121
    012731  aa   125105 116103    5617  	oct	125105116103
    012732  aa   105040 151163    5618  	oct	105040151163
    012733  aa   040162 145161    5619  	oct	040162145161
    012734  aa   165151 162145    5620  	oct	165151162145
    012735  aa   144040 150145    5621  	oct	144040150145
    012736  aa   162145 040101    5622  	oct	162145040101
    012737  aa   156040 141154    5623  	oct	156040141154
    012740  aa   160150 141142    5624  	oct	160150141142
    012741  aa   145164 055156    5625  	oct	145164055156
    012742  aa   141155 145040    5626  	oct	141155145040
    012743  aa   151163 040162    5627  	oct	151163040162
    012744  aa   145161 165151    5628  	oct	145161165151
    012745  aa   162145 144040    5629  	oct	162145144040
    012746  aa   150145 162145    5630  	oct	150145162145
    012747  aa   040124 150145    5631  	oct	040124150145
    012750  aa   040167 157162    5632  	oct	040167157162
    012751  aa   144040 117102    5633  	oct	144040117102
    012752  aa   112105 103124    5634  	oct	112105103124
    012753  aa   055120 122117    5635  	oct	055120122117
    012754  aa   107122 101115    5636  	oct	107122101115
    012755  aa   040151 163040    5637  	oct	040151163040
    012756  aa   162145 161165    5638  	oct	162145161165
    012757  aa   151162 145144    5639  	oct	151162145144
    012760  aa   040150 145162    5640  	oct	040150145162
    012761  aa   145040 124150    5641  	oct	145040124150
    012762  aa   145040 167157    5642  	oct	145040167157
    012763  aa   162144 040123    5643  	oct	162144040123
    012764  aa   125120 105122    5644  	oct	125120105122
    012765  aa   126111 123117    5645  	oct	126111123117
    012766  aa   122040 151163    5646  	oct	122040151163
    012767  aa   040162 145161    5647  	oct	040162145161
    012770  aa   165151 162145    5648  	oct	165151162145
    012771  aa   144040 150145    5649  	oct	144040150145
    012772  aa   162145 040101    5650  	oct	162145040101
    012773  aa   156040 151156    5651  	oct	156040151156
    012774  aa   164145 147145    5652  	oct	164145147145
    012775  aa   162040 151163    5653  	oct	162040151163
    012776  aa   040162 145161    5654  	oct	040162145161
    012777  aa   165151 162145    5655  	oct	165151162145
    013000  aa   144040 150145    5656  	oct	144040150145
    013001  aa   162145 040101    5657  	oct	162145040101
    013002  aa   040155 151163    5658  	oct	040155151163
    013003  aa   160154 141143    5659  	oct	160154141143
    013004  aa   145144 040104    5660  	oct	145144040104
    013005  aa   105103 111115    5661  	oct	105103111115
    013006  aa   101114 055120    5662  	oct	101114055120
    013007  aa   117111 116124    5663  	oct	117111116124
    013010  aa   040143 154141    5664  	oct	040143154141
    013011  aa   165163 145040    5665  	oct	165163145040
    013012  aa   155141 171040    5666  	oct	155141171040
    013013  aa   150141 166145    5667  	oct	150141166145
    013014  aa   040141 146146    5668  	oct	040141146146
    013015  aa   145143 164145    5669  	oct	145143164145
    013016  aa   144040 154145    5670  	oct	144040154145
    013017  aa   170151 143141    5671  	oct	170151143141
    013020  aa   154040 141156    5672  	oct	154040141156
    013021  aa   141154 171163    5673  	oct	141154171163
    013022  aa   151163 040124    5674  	oct	151163040124
    013023  aa   150145 040167    5675  	oct	150145040167
    013024  aa   157162 144040    5676  	oct	157162144040
    013025  aa   103117 115115    5677  	oct	103117115115
    013026  aa   101040 157162    5678  	oct	101040157162
    013027  aa   040104 105103    5679  	oct	040104105103
    013030  aa   111115 101114    5680  	oct	111115101114
    013031  aa   055120 117111    5681  	oct	055120117111
    013032  aa   116124 040151    5682  	oct	116124040151
    013033  aa   163040 162145    5683  	oct	163040162145
    013034  aa   161165 151162    5684  	oct	161165151162
    013035  aa   145144 040150    5685  	oct	145144040150
    013036  aa   145162 145040    5686  	oct	145162145040
    013037  aa   124150 145040    5687  	oct	124150145040
    013040  aa   143154 141165    5688  	oct	143154141165
    013041  aa   163145 163040    5689  	oct	163145163040
    013042  aa   151156 040164    5690  	oct	151156040164
    013043  aa   150145 040123    5691  	oct	150145040123
    013044  aa   120105 103111    5692  	oct	120105103111
    013045  aa   101114 055116    5693  	oct	101114055116
    013046  aa   101115 105123    5694  	oct	101115105123
    013047  aa   040160 141162    5695  	oct	040160141162
    013050  aa   141147 162141    5696  	oct	141147162141
    013051  aa   160150 040141    5697  	oct	160150040141
    013052  aa   162145 040156    5698  	oct	162145040156
    013053  aa   157164 040151    5699  	oct	157164040151
    013054  aa   156040 160162    5700  	oct	156040160162
    013055  aa   157160 145162    5701  	oct	157160145162
    013056  aa   040157 162144    5702  	oct	040157162144
    013057  aa   145162 040124    5703  	oct	145162040124
    013060  aa   150145 040143    5704  	oct	150145040143
    013061  aa   165162 162145    5705  	oct	165162162145
    013062  aa   156143 171040    5706  	oct	156143171040
    013063  aa   163151 147156    5707  	oct	163151147156
    013064  aa   040154 151164    5708  	oct	040154151164
    013065  aa   145162 141154    5709  	oct	145162141154
    013066  aa   040163 160145    5710  	oct	040163160145
    013067  aa   143151 146151    5711  	oct	143151146151
    013070  aa   145144 040150    5712  	oct	145144040150
    013071  aa   145162 145040    5713  	oct	145162145040
    013072  aa   151163 040151    5714  	oct	151163040151
    013073  aa   156166 141154    5715  	oct	156166141154
    013074  aa   151144 040101    5716  	oct	151144040101
    013075  aa   156040 141154    5717  	oct	156040141154
    013076  aa   160150 141156    5718  	oct	160150141156
    013077  aa   165155 145162    5719  	oct	165155145162
    013100  aa   151143 040154    5720  	oct	151143040154
    013101  aa   151164 145162    5721  	oct	151164145162
    013102  aa   141154 040157    5722  	oct	141154040157
    013103  aa   162040 141156    5723  	oct	162040141156
    013104  aa   040151 156164    5724  	oct	040151156164
    013105  aa   145147 145162    5725  	oct	145147145162
    013106  aa   040151 163040    5726  	oct	040151163040
    013107  aa   162145 161165    5727  	oct	162145161165
    013110  aa   151162 145144    5728  	oct	151162145144
    013111  aa   040150 145162    5729  	oct	040150145162
    013112  aa   145040 124150    5730  	oct	145040124150
    013113  aa   145040 167157    5731  	oct	145040167157
    013114  aa   162144 040123    5732  	oct	162144040123
    013115  aa   111132 105040    5733  	oct	111132105040
    013116  aa   151163 040162    5734  	oct	151163040162
    013117  aa   145161 165151    5735  	oct	145161165151
    013120  aa   162145 144040    5736  	oct	162145144040
    013121  aa   150145 162145    5737  	oct	150145162145
    013122  aa   040105 151164    5738  	oct	040105151164
    013123  aa   150145 162040    5739  	oct	150145162040
    013124  aa   141040 155156    5740  	oct	141040155156
    013125  aa   145155 157156    5741  	oct	145155157156
    013126  aa   151143 055156    5742  	oct	151143055156
    013127  aa   141155 145054    5743  	oct	141155145054
    013130  aa   040141 156040    5744  	oct	040141156040
    013131  aa   141154 160150    5745  	oct	141154160150
    013132  aa   141142 145164    5746  	oct	141142145164
    013133  aa   055156 141155    5747  	oct	055156141155
    013134  aa   145040 157162    5748  	oct	145040157162
    013135  aa   040141 040154    5749  	oct	040141040154
    013136  aa   151164 145162    5750  	oct	151164145162
    013137  aa   141154 040151    5751  	oct	141154040151
    013140  aa   163040 162145    5752  	oct	163040162145
    013141  aa   161165 151162    5753  	oct	161165151162
    013142  aa   145144 040150    5754  	oct	145144040150
    013143  aa   145162 145040    5755  	oct	145162145040
    013144  aa   124150 145040    5756  	oct	124150145040
    013145  aa   167157 162144    5757  	oct	167157162144
    013146  aa   040117 116040    5758  	oct	040117116040
    013147  aa   157162 040117    5759  	oct	157162040117
    013150  aa   106106 040155    5760  	oct	106106040155
    013151  aa   165163 164040    5761  	oct	165163164040
    013152  aa   142145 040160    5762  	oct	142145040160
    013153  aa   162145 143145    5763  	oct	162145143145
    013154  aa   145144 145144    5764  	oct	145144145144
    013155  aa   040142 171040    5765  	oct	040142171040
    013156  aa   141040 165156    5766  	oct	141040165156
    013157  aa   151161 165145    5767  	oct	151161165145
    013160  aa   154171 040144    5768  	oct	154171040144
    013161  aa   145146 151156    5769  	oct	145146151156
    013162  aa   145144 040163    5770  	oct	145144040163
    013163  aa   167151 164143    5771  	oct	167151164143
    013164  aa   150040 156141    5772  	oct	150040156141
    013165  aa   155145 040101    5773  	oct	155145040101
    013166  aa   040165 163145    5774  	oct	040165163145
    013167  aa   162040 167157    5775  	oct	162040167157
    013170  aa   162144 040151    5776  	oct	162144040151
    013171  aa   163040 162145    5777  	oct	163040162145
    013172  aa   161165 151162    5778  	oct	161165151162
    013173  aa   145144 040150    5779  	oct	145144040150
    013174  aa   145162 145040    5780  	oct	145162145040
    013175  aa   124150 145040    5781  	oct	124150145040
    013176  aa   167157 162144    5782  	oct	167157162144
    013177  aa   040117 116040    5783  	oct	040117116040
    013200  aa   157162 040117    5784  	oct	157162040117
    013201  aa   106106 040155    5785  	oct	106106040155
    013202  aa   165163 164040    5786  	oct	165163164040
    013203  aa   142145 040160    5787  	oct	142145040160
    013204  aa   162145 143145    5788  	oct	162145143145
    013205  aa   145144 145144    5789  	oct	145144145144
    013206  aa   040142 171040    5790  	oct	040142171040
    013207  aa   141040 165156    5791  	oct	141040165156
    013210  aa   151161 165145    5792  	oct	151161165145
    013211  aa   154171 040144    5793  	oct	154171040144
    013212  aa   145146 151156    5794  	oct	145146151156
    013213  aa   145144 040163    5795  	oct	145144040163
    013214  aa   167151 164143    5796  	oct	167151164143
    013215  aa   150040 156141    5797  	oct	150040156141
    013216  aa   155145 040141    5798  	oct	155145040141
    013217  aa   156144 040141    5799  	oct	156144040141
    013220  aa   040155 156145    5800  	oct	040155156145
    013221  aa   155157 156151    5801  	oct	155157156151
    013222  aa   143055 156141    5802  	oct	143055156141
    013223  aa   155145 040101    5803  	oct	155145040101
    013224  aa   156040 141154    5804  	oct	156040141154
    013225  aa   160150 141142    5805  	oct	160150141142
    013226  aa   145164 055156    5806  	oct	145164055156
    013227  aa   141155 145040    5807  	oct	141155145040
    013230  aa   151163 040162    5808  	oct	151163040162
    013231  aa   145161 165151    5809  	oct	145161165151
    013232  aa   162145 144040    5810  	oct	162145144040
    013233  aa   150145 162145    5811  	oct	150145162145
    013234  aa   040101 040155    5812  	oct	040101040155
    013235  aa   156145 155157    5813  	oct	156145155157
    013236  aa   156151 143055    5814  	oct	156151143055
    013237  aa   156141 155145    5815  	oct	156141155145
    013240  aa   040143 154141    5816  	oct	040143154141
    013241  aa   165163 145040    5817  	oct	165163145040
    013242  aa   157162 040141    5818  	oct	157162040141
    013243  aa   156040 141154    5819  	oct	156040141154
    013244  aa   160150 141142    5820  	oct	160150141142
    013245  aa   145164 040143    5821  	oct	145164040143
    013246  aa   154141 165163    5822  	oct	154141165163
    013247  aa   145040 151163    5823  	oct	145040151163
    013250  aa   040162 145161    5824  	oct	040162145161
    013251  aa   165151 162145    5825  	oct	165151162145
    013252  aa   144040 150145    5826  	oct	144040150145
    013253  aa   162145 040124    5827  	oct	162145040124
    013254  aa   150145 040167    5828  	oct	150145040167
    013255  aa   157162 144040    5829  	oct	157162144040
    013256  aa   123124 101124    5830  	oct	123124101124
    013257  aa   125123 040151    5831  	oct	125123040151
    013260  aa   163040 162145    5832  	oct	163040162145
    013261  aa   161165 151162    5833  	oct	161165151162
    013262  aa   145144 040150    5834  	oct	145144040150
    013263  aa   145162 145040    5835  	oct	145162145040
    013264  aa   124150 145040    5836  	oct	124150145040
    013265  aa   167157 162144    5837  	oct	167157162144
    013266  aa   040123 123106    5838  	oct	040123123106
    013267  aa   054040 126114    5839  	oct	054040126114
    013270  aa   122054 040106    5840  	oct	122054040106
    013271  aa   114122 040157    5841  	oct	114122040157
    013272  aa   162040 102123    5842  	oct	162040102123
    013273  aa   116040 151163    5843  	oct	116040151163
    013274  aa   040162 145161    5844  	oct	040162145161
    013275  aa   165151 162145    5845  	oct	165151162145
    013276  aa   144040 150145    5846  	oct	144040150145
    013277  aa   162145 040124    5847  	oct	162145040124
    013300  aa   150145 040167    5848  	oct	150145040167
    013301  aa   157162 144040    5849  	oct	157162144040
    013302  aa   120122 117103    5850  	oct	120122117103
    013303  aa   105123 123055    5851  	oct	105123123055
    013304  aa   101122 105101    5852  	oct	101122105101
    013305  aa   040151 163040    5853  	oct	040151163040
    013306  aa   162145 161165    5854  	oct	162145161165
    013307  aa   151162 145144    5855  	oct	151162145144
    013310  aa   040150 145162    5856  	oct	040150145162
    013311  aa   145040 101040    5857  	oct	145040101040
    013312  aa   106111 114105    5858  	oct	106111114105
    013313  aa   055103 117116    5859  	oct	055103117116
    013314  aa   124122 117114    5860  	oct	124122117114
    013315  aa   040160 141162    5861  	oct	040160141162
    013316  aa   141147 162141    5862  	oct	141147162141
    013317  aa   160150 040155    5863  	oct	160150040155
    013320  aa   165163 164040    5864  	oct	165163164040
    013321  aa   160162 145143    5865  	oct	160162145143
    013322  aa   145144 145040    5866  	oct	145144145040
    013323  aa   164150 151163    5867  	oct	164150151163
    013324  aa   040167 157162    5868  	oct	040167157162
    013325  aa   144040 101040    5869  	oct	144040101040
    013326  aa   165163 145162    5870  	oct	165163145162
    013327  aa   040167 157162    5871  	oct	040167157162
    013330  aa   144040 151163    5872  	oct	144040151163
    013331  aa   040162 145161    5873  	oct	040162145161
    013332  aa   165151 162145    5874  	oct	165151162145
    013333  aa   144040 150145    5875  	oct	144040150145
    013334  aa   162145 040124    5876  	oct	162145040124
    013335  aa   150145 040146    5877  	oct	150145040146
    013336  aa   151154 145040    5878  	oct	151154145040
    013337  aa   150141 163040    5879  	oct	150141163040
    013340  aa   141154 162145    5880  	oct	141154162145
    013341  aa   141144 171040    5881  	oct	141144171040
    013342  aa   142145 145156    5882  	oct	142145145156
    013343  aa   040144 145146    5883  	oct	040144145146
    013344  aa   151156 145144    5884  	oct	151156145144
    013345  aa   073040 164150    5885  	oct	073040164150
    013346  aa   151163 040144    5886  	oct	151163040144
    013347  aa   145146 151156    5887  	oct	145146151156
    013350  aa   151164 151157    5888  	oct	151164151157
    013351  aa   156040 151147    5889  	oct	156040151147
    013352  aa   156157 162145    5890  	oct	156157162145
    013353  aa   144040 101156    5891  	oct	144040101156
    013354  aa   040101 123123    5892  	oct	040101123123
    013355  aa   111107 116040    5893  	oct	111107116040
    013356  aa   143154 141165    5894  	oct	143154141165
    013357  aa   163145 040151    5895  	oct	163145040151
    013360  aa   163040 162145    5896  	oct	163040162145
    013361  aa   161165 151162    5897  	oct	161165151162
    013362  aa   145144 040151    5898  	oct	145144040151
    013363  aa   156040 164150    5899  	oct	156040164150
    013364  aa   145040 160162    5900  	oct	145040160162
    013365  aa   145143 145145    5901  	oct	145143145145
    013366  aa   144151 156147    5902  	oct	144151156147
    013367  aa   040146 151154    5903  	oct	040146151154
    013370  aa   145040 144145    5904  	oct	145040144145
    013371  aa   163143 162151    5905  	oct	163143162151
    013372  aa   160164 151157    5906  	oct	160164151157
    013373  aa   156040 101040    5907  	oct	156040101040
    013374  aa   113105 131040    5908  	oct	113105131040
    013375  aa   143154 141165    5909  	oct	143154141165
    013376  aa   163145 040151    5910  	oct	163145040151
    013377  aa   163040 162145    5911  	oct	163040162145
    013400  aa   161165 151162    5912  	oct	161165151162
    013401  aa   145144 040151    5913  	oct	145144040151
    013402  aa   156040 164150    5914  	oct	156040164150
    013403  aa   145040 160162    5915  	oct	145040160162
    013404  aa   145143 145145    5916  	oct	145143145145
    013405  aa   144151 156147    5917  	oct	144151156147
    013406  aa   040146 151154    5918  	oct	040146151154
    013407  aa   145040 144145    5919  	oct	145040144145
    013410  aa   163143 162151    5920  	oct	163143162151
    013411  aa   160164 151157    5921  	oct	160164151157
    013412  aa   156040 101040    5922  	oct	156040101040
    013413  aa   123105 114105    5923  	oct	123105114105
    013414  aa   103124 040143    5924  	oct	103124040143
    013415  aa   154141 165163    5925  	oct	154141165163
    013416  aa   145040 155165    5926  	oct	145040155165
    013417  aa   163164 040142    5927  	oct	163164040142
    013420  aa   145040 146157    5928  	oct	145040146157
    013421  aa   154154 157167    5929  	oct	154154157167
    013422  aa   145144 040142    5930  	oct	145144040142
    013423  aa   171040 141156    5931  	oct	171040141156
    013424  aa   157164 150145    5932  	oct	157164150145
    013425  aa   162040 123105    5933  	oct	162040123105
    013426  aa   114105 103124    5934  	oct	114105103124
    013427  aa   040143 154141    5935  	oct	040143154141
    013430  aa   165163 145054    5936  	oct	165163145054
    013431  aa   040164 150145    5937  	oct	040164150145
    013432  aa   040111 055117    5938  	oct	040111055117
    013433  aa   055103 117116    5939  	oct	055103117116
    013434  aa   124122 117114    5940  	oct	124122117114
    013435  aa   040160 141162    5941  	oct	040160141162
    013436  aa   141147 162141    5942  	oct	141147162141
    013437  aa   160150 040157    5943  	oct	160150040157
    013440  aa   162040 104101    5944  	oct	162040104101
    013441  aa   124101 040104    5945  	oct	124101040104
    013442  aa   111126 111123    5946  	oct	111126111123
    013443  aa   111117 116040    5947  	oct	111117116040
    013444  aa   124150 145040    5948  	oct	124150145040
    013445  aa   151155 160154    5949  	oct	151155160154
    013446  aa   145155 145156    5950  	oct	145155145156
    013447  aa   164157 162055    5951  	oct	164157162055
    013450  aa   156141 155145    5952  	oct	156141155145
    013451  aa   040151 156040    5953  	oct	040151156040
    013452  aa   164150 151163    5954  	oct	164150151163
    013453  aa   040101 123123    5955  	oct	040101123123
    013454  aa   111107 116040    5956  	oct	111107116040
    013455  aa   143154 141165    5957  	oct	143154141165
    013456  aa   163145 040151    5958  	oct	163145040151
    013457  aa   163040 151156    5959  	oct	163040151156
    013460  aa   143157 162162    5960  	oct	143157162162
    013461  aa   145143 164154    5961  	oct	145143164154
    013462  aa   171040 163160    5962  	oct	171040163160
    013463  aa   145143 151146    5963  	oct	145143151146
    013464  aa   151145 144040    5964  	oct	151145144040
    013465  aa   124150 151163    5965  	oct	124150151163
    013466  aa   040117 122107    5966  	oct	040117122107
    013467  aa   101116 111132    5967  	oct	101116111132
    013470  aa   101124 111117    5968  	oct	101124111117
    013471  aa   116040 143154    5969  	oct	116040143154
    013472  aa   141165 163145    5970  	oct	141165163145
    013473  aa   040151 163040    5971  	oct	040151163040
    013474  aa   151156 166141    5972  	oct	151156166141
    013475  aa   154151 144040    5973  	oct	154151144040
    013476  aa   124150 151163    5974  	oct	124150151163
    013477  aa   040117 122107    5975  	oct	040117122107
    013500  aa   101116 111132    5976  	oct	101116111132
    013501  aa   101124 111117    5977  	oct	101124111117
    013502  aa   116040 143154    5978  	oct	116040143154
    013503  aa   141165 163145    5979  	oct	141165163145
    013504  aa   040151 163040    5980  	oct	040151163040
    013505  aa   151156 166141    5981  	oct	151156166141
    013506  aa   154151 144040    5982  	oct	154151144040
    013507  aa   101040 165163    5983  	oct	101040165163
    013510  aa   145162 040167    5984  	oct	145162040167
    013511  aa   157162 144040    5985  	oct	157162144040
    013512  aa   151163 040162    5986  	oct	151163040162
    013513  aa   145161 165151    5987  	oct	145161165151
    013514  aa   162145 144040    5988  	oct	162145144040
    013515  aa   150145 162145    5989  	oct	150145162145
    013516  aa   040124 150151    5990  	oct	040124150151
    013517  aa   163040 101103    5991  	oct	163040101103
    013520  aa   103105 123123    5992  	oct	103105123123
    013521  aa   040143 154141    5993  	oct	040143154141
    013522  aa   165163 145040    5994  	oct	165163145040
    013523  aa   151163 040151    5995  	oct	151163040151
    013524  aa   156166 141154    5996  	oct	156166141154
    013525  aa   151144 040124    5997  	oct	151144040124
    013526  aa   150151 163040    5998  	oct	150151163040
    013527  aa   103101 124101    5999  	oct	103101124101
    013530  aa   114117 107055    6000  	oct	114117107055
    013531  aa   116101 115105    6001  	oct	116101115105
    013532  aa   040143 154141    6002  	oct	040143154141
    013533  aa   165163 145040    6003  	oct	165163145040
    013534  aa   151163 040151    6004  	oct	151163040151
    013535  aa   156166 141154    6005  	oct	156166141154
    013536  aa   151144 040111    6006  	oct	151144040111
    013537  aa   154154 145147    6007  	oct	154154145147
    013540  aa   141154 040143    6008  	oct	141154040143
    013541  aa   154141 165163    6009  	oct	154141165163
    013542  aa   145040 163160    6010  	oct	145040163160
    013543  aa   145143 151146    6011  	oct	145143151146
    013544  aa   151145 144040    6012  	oct	151145144040
    013545  aa   151156 040164    6013  	oct	151156040164
    013546  aa   150145 040111    6014  	oct	150145040111
    013547  aa   055117 055103    6015  	oct	055117055103
    013550  aa   117116 124122    6016  	oct	117116124122
    013551  aa   117114 040160    6017  	oct	117114040160
    013552  aa   141162 141147    6018  	oct	141162141147
    013553  aa   162141 160150    6019  	oct	162141160150
    013554  aa   040124 150151    6020  	oct	040124150151
    013555  aa   163040 101120    6021  	oct	163040101120
    013556  aa   120114 131040    6022  	oct	120114131040
    013557  aa   143154 141165    6023  	oct	143154141165
    013560  aa   163145 040151    6024  	oct	163145040151
    013561  aa   163040 151156    6025  	oct	163040151156
    013562  aa   166141 154151    6026  	oct	166141154151
    013563  aa   144040 101040    6027  	oct	144040101040
    013564  aa   146151 154145    6028  	oct	146151154145
    013565  aa   055156 141155    6029  	oct	055156141155
    013566  aa   145040 151163    6030  	oct	145040151163
    013567  aa   040162 145161    6031  	oct	040162145161
    013570  aa   165151 162145    6032  	oct	165151162145
    013571  aa   144040 150145    6033  	oct	144040150145
    013572  aa   162145 040124    6034  	oct	162145040124
    013573  aa   150151 163040    6035  	oct	150151163040
    013574  aa   101120 120114    6036  	oct	101120120114
    013575  aa   131040 101124    6037  	oct	131040101124
    013576  aa   124101 103110    6038  	oct	124101103110
    013577  aa   055117 120124    6039  	oct	055117120124
    013600  aa   111117 116123    6040  	oct	111117116123
    013601  aa   040143 154141    6041  	oct	040143154141
    013602  aa   165163 145040    6042  	oct	165163145040
    013603  aa   151163 040151    6043  	oct	151163040151
    013604  aa   156166 141154    6044  	oct	156166141154
    013605  aa   151144 040124    6045  	oct	151144040124
    013606  aa   150145 040167    6046  	oct	150145040167
    013607  aa   157162 144040    6047  	oct	157162144040
    013610  aa   107105 116105    6048  	oct	107105116105
    013611  aa   122101 124111    6049  	oct	122101124111
    013612  aa   117116 054040    6050  	oct	117116054040
    013613  aa   115117 104111    6051  	oct	115117104111
    013614  aa   106111 103101    6052  	oct	106111103101
    013615  aa   124111 117116    6053  	oct	124111117116
    013616  aa   040157 162040    6054  	oct	040157162040
    013617  aa   122105 120114    6055  	oct	122105120114
    013620  aa   101103 105115    6056  	oct	101103105115
    013621  aa   105116 124040    6057  	oct	105116124040
    013622  aa   151163 040162    6058  	oct	151163040162
    013623  aa   145161 165151    6059  	oct	145161165151
    013624  aa   162145 144040    6060  	oct	162145144040
    013625  aa   150145 162145    6061  	oct	150145162145
    013626  aa   040101 040165    6062  	oct	040101040165
    013627  aa   163145 162040    6063  	oct	163145162040
    013630  aa   167157 162144    6064  	oct	167157162144
    013631  aa   040157 162040    6065  	oct	040157162040
    013632  aa   141156 040141    6066  	oct	141156040141
    013633  aa   154160 150141    6067  	oct	154160150141
    013634  aa   156165 155145    6068  	oct	156165155145
    013635  aa   162151 143040    6069  	oct	162151143040
    013636  aa   154151 164145    6070  	oct	154151164145
    013637  aa   162141 154040    6071  	oct	162141154040
    013640  aa   151163 040162    6072  	oct	151163040162
    013641  aa   145161 165151    6073  	oct	145161165151
    013642  aa   162145 144040    6074  	oct	162145144040
    013643  aa   150145 162145    6075  	oct	150145162145
    013644  aa   040101 040165    6076  	oct	040101040165
    013645  aa   163145 162040    6077  	oct	163145162040
    013646  aa   167157 162144    6078  	oct	167157162144
    013647  aa   040157 162040    6079  	oct	040157162040
    013650  aa   141156 040151    6080  	oct	141156040151
    013651  aa   156164 145147    6081  	oct	156164145147
    013652  aa   145162 040151    6082  	oct	145162040151
    013653  aa   163040 162145    6083  	oct	163040162145
    013654  aa   161165 151162    6084  	oct	161165151162
    013655  aa   145144 040150    6085  	oct	145144040150
    013656  aa   145162 145040    6086  	oct	145162145040
    013657  aa   124150 145040    6087  	oct	124150145040
    013660  aa   167157 162144    6088  	oct	167157162144
    013661  aa   040103 101124    6089  	oct	040103101124
    013662  aa   101114 117107    6090  	oct	101114117107
    013663  aa   055116 101115    6091  	oct	055116101115
    013664  aa   105040 151163    6092  	oct	105040151163
    013665  aa   040162 145161    6093  	oct	040162145161
    013666  aa   165151 162145    6094  	oct	165151162145
    013667  aa   144040 150145    6095  	oct	144040150145
    013670  aa   162145 040124    6096  	oct	162145040124
    013671  aa   150145 040167    6097  	oct	150145040167
    013672  aa   157162 144040    6098  	oct	157162144040
    013673  aa   122105 105114    6099  	oct	122105105114
    013674  aa   040157 162040    6100  	oct	040157162040
    013675  aa   125116 111124    6101  	oct	125116111124
    013676  aa   040151 163040    6102  	oct	040151163040
    013677  aa   162145 161165    6103  	oct	162145161165
    013700  aa   151162 145144    6104  	oct	151162145144
    013701  aa   040150 145162    6105  	oct	040150145162
    013702  aa   145040 124150    6106  	oct	145040124150
    013703  aa   145040 167157    6107  	oct	145040167157
    013704  aa   162144 040103    6108  	oct	162144040103
    013705  aa   114117 103113    6109  	oct	114117103113
    013706  aa   055125 116111    6110  	oct	055125116111
    013707  aa   124123 040157    6111  	oct	124123040157
    013710  aa   162040 122105    6112  	oct	162040122105
    013711  aa   103117 122104    6113  	oct	103117122104
    013712  aa   123040 151163    6114  	oct	123040151163
    013713  aa   040162 145161    6115  	oct	040162145161
    013714  aa   165151 162145    6116  	oct	165151162145
    013715  aa   144040 150145    6117  	oct	144040150145
    013716  aa   162145 040124    6118  	oct	162145040124
    013717  aa   150145 040146    6119  	oct	150145040146
    013720  aa   151154 145055    6120  	oct	151154145055
    013721  aa   156141 155145    6121  	oct	156141155145
    013722  aa   040151 156040    6122  	oct	040151156040
    013723  aa   164150 151163    6123  	oct	164150151163
    013724  aa   040143 154141    6124  	oct	040143154141
    013725  aa   165163 145040    6125  	oct	165163145040
    013726  aa   151163 040151    6126  	oct	151163040151
    013727  aa   156166 141154    6127  	oct	156166141154
    013730  aa   151144 040101    6128  	oct	151144040101
    013731  aa   040146 151154    6129  	oct	040146151154
    013732  aa   145055 156141    6130  	oct	145055156141
    013733  aa   155145 040157    6131  	oct	155145040157
    013734  aa   162040 103110    6132  	oct	162040103110
    013735  aa   105103 113120    6133  	oct	105103113120
    013736  aa   117111 116124    6134  	oct	117111116124
    013737  aa   055106 111114    6135  	oct	055106111114
    013740  aa   105040 151163    6136  	oct	105040151163
    013741  aa   040162 145161    6137  	oct	040162145161
    013742  aa   165151 162145    6138  	oct	165151162145
    013743  aa   144040 150145    6139  	oct	144040150145
    013744  aa   162145 040124    6140  	oct	162145040124
    013745  aa   150145 040146    6141  	oct	150145040146
    013746  aa   151154 145055    6142  	oct	151154145055
    013747  aa   156141 155145    6143  	oct	156141155145
    013750  aa   040150 141163    6144  	oct	040150141163
    013751  aa   040160 162145    6145  	oct	040160162145
    013752  aa   166151 157165    6146  	oct	166151157165
    013753  aa   163154 171040    6147  	oct	163154171040
    013754  aa   141160 160145    6148  	oct	141160160145
    013755  aa   141162 145144    6149  	oct	141162145144
    013756  aa   040151 156040    6150  	oct	040151156040
    013757  aa   141040 123101    6151  	oct	141040123101
    013760  aa   115105 040101    6152  	oct	115105040101
    013761  aa   122105 101040    6153  	oct	122105101040
    013762  aa   143154 141165    6154  	oct	143154141165
    013763  aa   163145 040117    6155  	oct	163145040117
    013764  aa   156154 171040    6156  	oct	156154171040
    013765  aa   157156 145040    6157  	oct	157156145040
    013766  aa   146151 154145    6158  	oct	146151154145
    013767  aa   055156 141155    6159  	oct	055156141155
    013770  aa   145040 167141    6160  	oct	145040167141
    013771  aa   163040 163160    6161  	oct	163040163160
    013772  aa   145143 151146    6162  	oct	145143151146
    013773  aa   151145 144040    6163  	oct	151145144040
    013774  aa   151156 040164    6164  	oct	151156040164
    013775  aa   150151 163040    6165  	oct	150151163040
    013776  aa   123101 115105    6166  	oct	123101115105
    013777  aa   040101 122105    6167  	oct	040101122105
    014000  aa   101040 143154    6168  	oct	101040143154
    014001  aa   141165 163145    6169  	oct	141165163145
    014002  aa   040124 150145    6170  	oct	040124150145
    014003  aa   040167 157162    6171  	oct	040167157162
    014004  aa   144040 106111    6172  	oct	144040106111
    014005  aa   114105 040151    6173  	oct	114105040151
    014006  aa   163040 162145    6174  	oct	163040162145
    014007  aa   161165 151162    6175  	oct	161165151162
    014010  aa   145144 040150    6176  	oct	145144040150
    014011  aa   145162 145040    6177  	oct	145162145040
    014012  aa   124150 145040    6178  	oct	124150145040
    014013  aa   146151 154145    6179  	oct	146151154145
    014014  aa   055156 141155    6180  	oct	055156141155
    014015  aa   145040 150141    6181  	oct	145040150141
    014016  aa   163040 160162    6182  	oct	163040160162
    014017  aa   145166 151157    6183  	oct	145166151157
    014020  aa   165163 154171    6184  	oct	165163154171
    014021  aa   040141 160160    6185  	oct	040141160160
    014022  aa   145141 162145    6186  	oct	145141162145
    014023  aa   144040 151156    6187  	oct	144040151156
    014024  aa   040141 040115    6188  	oct	040141040115
    014025  aa   125114 124111    6189  	oct	125114124111
    014026  aa   120114 105040    6190  	oct	120114105040
    014027  aa   106111 114105    6191  	oct	106111114105
    014030  aa   040143 154141    6192  	oct	040143154141
    014031  aa   165163 145040    6193  	oct	165163145040
    014032  aa   124150 145040    6194  	oct	124150145040
    014033  aa   167157 162144    6195  	oct	167157162144
    014034  aa   040122 105103    6196  	oct	040122105103
    014035  aa   117122 104040    6197  	oct	117122104040
    014036  aa   151163 040162    6198  	oct	151163040162
    014037  aa   145161 165151    6199  	oct	145161165151
    014040  aa   162145 144040    6200  	oct	162145144040
    014041  aa   150145 162145    6201  	oct	150145162145
    014042  aa   040124 150145    6202  	oct	040124150145
    014043  aa   040167 157162    6203  	oct	040167157162
    014044  aa   144040 124105    6204  	oct	144040124105
    014045  aa   115120 117122    6205  	oct	115120117122
    014046  aa   101122 131040    6206  	oct	101122131040
    014047  aa   157162 040120    6207  	oct	157162040120
    014050  aa   105122 115101    6208  	oct	105122115101
    014051  aa   116105 116124    6209  	oct	116105116124
    014052  aa   040151 163040    6210  	oct	040151163040
    014053  aa   162145 161165    6211  	oct	162145161165
    014054  aa   151162 145144    6212  	oct	151162145144
    014055  aa   040150 145162    6213  	oct	040150145162
    014056  aa   145040 105122    6214  	oct	145040105122
    014057  aa   122117 122066    6215  	oct	122117122066
    014060  aa   071040 124150    6216  	oct	071040124150
    014061  aa   145040 167157    6217  	oct	145040167157
    014062  aa   162144 040127    6218  	oct	162144040127
    014063  aa   117122 104123    6219  	oct	117122104123
    014064  aa   054040 103110    6220  	oct	054040103110
    014065  aa   101122 101103    6221  	oct	101122101103
    014066  aa   124105 122123    6222  	oct	124105122123
    014067  aa   040157 162040    6223  	oct	040157162040
    014070  aa   115117 104125    6224  	oct	115117104125
    014071  aa   114105 123040    6225  	oct	114105123040
    014072  aa   151163 040162    6226  	oct	151163040162
    014073  aa   145161 165151    6227  	oct	145161165151
    014074  aa   162145 144040    6228  	oct	162145144040
    014075  aa   150145 162145    6229  	oct	150145162145
    014076  aa   040124 150145    6230  	oct	040124150145
    014077  aa   040167 157162    6231  	oct	040167157162
    014100  aa   144040 123131    6232  	oct	144040123131
    014101  aa   123111 116054    6233  	oct	123111116054
    014102  aa   040103 117116    6234  	oct	040103117116
    014103  aa   123117 114105    6235  	oct	123117114105
    014104  aa   054040 123131    6236  	oct	054040123131
    014105  aa   123117 125124    6237  	oct	123117125124
    014106  aa   054040 114105    6238  	oct	054040114105
    014107  aa   101104 111116    6239  	oct	101104111116
    014110  aa   107040 157162    6240  	oct	107040157162
    014111  aa   040124 122101    6241  	oct	040124122101
    014112  aa   111114 111116    6242  	oct	111114111116
    014113  aa   107040 151163    6243  	oct	107040151163
    014114  aa   040162 145161    6244  	oct	040162145161
    014115  aa   165151 162145    6245  	oct	165151162145
    014116  aa   144040 150145    6246  	oct	144040150145
    014117  aa   162145 040124    6247  	oct	162145040124
    014120  aa   150145 040167    6248  	oct	150145040167
    014121  aa   157162 144040    6249  	oct	157162144040
    014122  aa   117115 111124    6250  	oct	117115111124
    014123  aa   124105 104040    6251  	oct	124105104040
    014124  aa   157162 040115    6252  	oct	157162040115
    014125  aa   105123 123101    6253  	oct	105123123101
    014126  aa   107105 040151    6254  	oct	107105040151
    014127  aa   163040 162145    6255  	oct	163040162145
    014130  aa   161165 151162    6256  	oct	161165151162
    014131  aa   145144 040150    6257  	oct	145144040150
    014132  aa   145162 145040    6258  	oct	145162145040
    014133  aa   124150 145040    6259  	oct	124150145040
    014134  aa   167157 162144    6260  	oct	167157162144
    014135  aa   040123 125102    6261  	oct	040123125102
    014136  aa   123124 111124    6262  	oct	123124111124
    014137  aa   125124 111117    6263  	oct	125124111117
    014140  aa   116040 157162    6264  	oct	116040157162
    014141  aa   040104 105106    6265  	oct	040104105106
    014142  aa   101125 114124    6266  	oct	101125114124
    014143  aa   040151 163040    6267  	oct	040151163040
    014144  aa   162145 161165    6268  	oct	162145161165
    014145  aa   151162 145144    6269  	oct	151162145144
    014146  aa   040150 145162    6270  	oct	040150145162
    014147  aa   145040 105122    6271  	oct	145040105122
    014150  aa   122117 122067    6272  	oct	122117122067
    014151  aa   064040 105122    6273  	oct	064040105122
    014152  aa   122117 122067    6274  	oct	122117122067
    014153  aa   065040 101040    6275  	oct	065040101040
    014154  aa   103157 156146    6276  	oct	103157156146
    014155  aa   151147 165162    6277  	oct	151147165162
    014156  aa   141164 151157    6278  	oct	141164151157
    014157  aa   156040 123145    6279  	oct	156040123145
    014160  aa   143164 151157    6280  	oct	143164151157
    014161  aa   156040 151163    6281  	oct	156040151163
    014162  aa   040162 145161    6282  	oct	040162145161
    014163  aa   165151 162145    6283  	oct	165151162145
    014164  aa   144040 150145    6284  	oct	144040150145
    014165  aa   162145 040101    6285  	oct	162145040101
    014166  aa   040123 117125    6286  	oct	040123117125
    014167  aa   122103 105055    6287  	oct	122103105055
    014170  aa   103117 115120    6288  	oct	103117115120
    014171  aa   125124 105122    6289  	oct	125124105122
    014172  aa   040160 141162    6290  	oct	040160141162
    014173  aa   141147 162141    6291  	oct	141147162141
    014174  aa   160150 040155    6292  	oct	160150040155
    014175  aa   165163 164040    6293  	oct	165163164040
    014176  aa   160162 145143    6294  	oct	160162145143
    014177  aa   145144 145040    6295  	oct	145144145040
    014200  aa   164150 151163    6296  	oct	164150151163
    014201  aa   040167 157162    6297  	oct	040167157162
    014202  aa   144040 101156    6298  	oct	144040101156
    014203  aa   040117 102112    6299  	oct	040117102112
    014204  aa   105103 124055    6300  	oct	105103124055
    014205  aa   103117 115120    6301  	oct	103117115120
    014206  aa   125124 105122    6302  	oct	125124105122
    014207  aa   040160 141162    6303  	oct	040160141162
    014210  aa   141147 162141    6304  	oct	141147162141
    014211  aa   160150 040155    6305  	oct	160150040155
    014212  aa   165163 164040    6306  	oct	165163164040
    014213  aa   160162 145143    6307  	oct	160162145143
    014214  aa   145144 145040    6308  	oct	145144145040
    014215  aa   164150 151163    6309  	oct	164150151163
    014216  aa   040167 157162    6310  	oct	040167157162
    014217  aa   144040 124150    6311  	oct	144040124150
    014220  aa   151163 040143    6312  	oct	151163040143
    014221  aa   154141 165163    6313  	oct	154141165163
    014222  aa   145040 151163    6314  	oct	145040151163
    014223  aa   040156 157164    6315  	oct	040156157164
    014224  aa   040162 145143    6316  	oct	040162145143
    014225  aa   157147 156151    6317  	oct	157147156151
    014226  aa   172145 144073    6318  	oct	172145144073
    014227  aa   040143 154141    6319  	oct	040143154141
    014230  aa   165163 145040    6320  	oct	165163145040
    014231  aa   151147 156157    6321  	oct	151147156157
    014232  aa   162145 144040    6322  	oct	162145144040
    014233  aa   124150 145040    6323  	oct	124150145040
    014234  aa   143154 141165    6324  	oct	143154141165
    014235  aa   163145 054040    6325  	oct	163145054040
    014236  aa   160141 162141    6326  	oct	160141162141
    014237  aa   147162 141160    6327  	oct	147162141160
    014240  aa   150040 157162    6328  	oct	150040157162
    014241  aa   040157 160164    6329  	oct	040157160164
    014242  aa   151157 156040    6330  	oct	151157156040
    014243  aa   151163 040162    6331  	oct	151163040162
    014244  aa   145144 165156    6332  	oct	145144165156
    014245  aa   144141 156164    6333  	oct	144141156164
    014246  aa   073040 151164    6334  	oct	073040151164
    014247  aa   040151 163040    6335  	oct	040151163040
    014250  aa   151147 156157    6336  	oct	151147156157
    014251  aa   162145 144040    6337  	oct	162145144040
    014252  aa   124150 145040    6338  	oct	124150145040
    014253  aa   167157 162144    6339  	oct	167157162144
    014254  aa   040114 105101    6340  	oct	040114105101
    014255  aa   104111 116107    6341  	oct	104111116107
    014256  aa   040157 162040    6342  	oct	040157162040
    014257  aa   124122 101111    6343  	oct	124122101111
    014260  aa   114111 116107    6344  	oct	114111116107
    014261  aa   040151 163040    6345  	oct	040151163040
    014262  aa   162145 161165    6346  	oct	162145161165
    014263  aa   151162 145144    6347  	oct	151162145144
    014264  aa   040150 145162    6348  	oct	040150145162
    014265  aa   145040 124150    6349  	oct	145040124150
    014266  aa   145040 167157    6350  	oct	145040167157
    014267  aa   162144 040103    6351  	oct	162144040103
    014270  aa   117116 123117    6352  	oct	117116123117
    014271  aa   114105 040157    6353  	oct	114105040157
    014272  aa   162040 123131    6354  	oct	162040123131
    014273  aa   123111 116040    6355  	oct	123111116040
    014274  aa   151163 040162    6356  	oct	151163040162
    014275  aa   145161 165151    6357  	oct	145161165151
    014276  aa   162145 144040    6358  	oct	162145144040
    014277  aa   150145 162145    6359  	oct	150145162145
    014300  aa   040101 156040    6360  	oct	040101156040
    014301  aa   151156 164145    6361  	oct	151156164145
    014302  aa   147145 162040    6362  	oct	147145162040
    014303  aa   142145 164167    6363  	oct	142145164167
    014304  aa   145145 156040    6364  	oct	145145156040
    014305  aa   061070 040141    6365  	oct	061070040141
    014306  aa   156144 040066    6366  	oct	156144040066
    014307  aa   061040 151163    6367  	oct	061040151163
    014310  aa   040162 145161    6368  	oct	040162145161
    014311  aa   165151 162145    6369  	oct	165151162145
    014312  aa   144040 150145    6370  	oct	144040150145
    014313  aa   162145 040124    6371  	oct	162145040124
    014314  aa   150145 040167    6372  	oct	150145040167
    014315  aa   157162 144040    6373  	oct	157162144040
    014316  aa   121125 105125    6374  	oct	121125105125
    014317  aa   105040 151163    6375  	oct	105040151163
    014320  aa   040162 145161    6376  	oct	040162145161
    014321  aa   165151 162145    6377  	oct	165151162145
    014322  aa   144040 150145    6378  	oct	144040150145
    014323  aa   162145 040101    6379  	oct	162145040101
    014324  aa   156040 141154    6380  	oct	156040141154
    014325  aa   160150 141156    6381  	oct	160150141156
    014326  aa   165155 145162    6382  	oct	165155145162
    014327  aa   151143 040154    6383  	oct	151143040154
    014330  aa   151164 145162    6384  	oct	151164145162
    014331  aa   141154 040157    6385  	oct	141154040157
    014332  aa   162040 141156    6386  	oct	162040141156
    014333  aa   040151 156164    6387  	oct	040151156164
    014334  aa   145147 145162    6388  	oct	145147145162
    014335  aa   040157 162040    6389  	oct	040157162040
    014336  aa   141156 040141    6390  	oct	141156040141
    014337  aa   154160 150141    6391  	oct	154160150141
    014340  aa   142145 164055    6392  	oct	142145164055
    014341  aa   156141 155145    6393  	oct	156141155145
    014342  aa   040151 163040    6394  	oct	040151163040
    014343  aa   162145 161165    6395  	oct	162145161165
    014344  aa   151162 145144    6396  	oct	151162145144
    014345  aa   040150 145162    6397  	oct	040150145162
    014346  aa   145040 101040    6398  	oct	145040101040
    014347  aa   167157 162144    6399  	oct	167157162144
    014350  aa   040144 145146    6400  	oct	040144145146
    014351  aa   151156 151156    6401  	oct	151156151156
    014352  aa   147040 141040    6402  	oct	147040141040
    014353  aa   144141 164141    6403  	oct	144141164141
    014354  aa   040151 164145    6404  	oct	040151164145
    014355  aa   155040 165163    6405  	oct	155040165163
    014356  aa   141147 145040    6406  	oct	141147145040
    014357  aa   157164 150145    6407  	oct	157164150145
    014360  aa   162040 164150    6408  	oct	162040164150
    014361  aa   141156 040151    6409  	oct	141156040151
    014362  aa   156144 145170    6410  	oct	156144145170
    014363  aa   040151 163040    6411  	oct	040151163040
    014364  aa   162145 161165    6412  	oct	162145161165
    014365  aa   151162 145144    6413  	oct	151162145144
    014366  aa   040150 145162    6414  	oct	040150145162
    014367  aa   145040 124150    6415  	oct	145040124150
    014370  aa   145040 167157    6416  	oct	145040167157
    014371  aa   162144 040101    6417  	oct	162144040101
    014372  aa   104104 122105    6418  	oct	104104122105
    014373  aa   123123 040157    6419  	oct	123123040157
    014374  aa   162040 141156    6420  	oct	162040141156
    014375  aa   040151 156164    6421  	oct	040151156164
    014376  aa   145147 145162    6422  	oct	145147145162
    014377  aa   040151 163040    6423  	oct	040151163040
    014400  aa   162145 161165    6424  	oct	162145161165
    014401  aa   151162 145144    6425  	oct	151162145144
    014402  aa   040150 145162    6426  	oct	040150145162
    014403  aa   145040 124150    6427  	oct	145040124150
    014404  aa   145040 143154    6428  	oct	145040143154
    014405  aa   141165 163145    6429  	oct	141165163145
    014406  aa   163040 151156    6430  	oct	163040151156
    014407  aa   040164 150145    6431  	oct	040164150145
    014410  aa   040117 102112    6432  	oct	040117102112
    014411  aa   105103 124055    6433  	oct	105103124055
    014412  aa   103117 115120    6434  	oct	103117115120
    014413  aa   125124 105122    6435  	oct	125124105122
    014414  aa   040160 141162    6436  	oct	040160141162
    014415  aa   141147 162141    6437  	oct	141147162141
    014416  aa   160150 040141    6438  	oct	160150040141
    014417  aa   162145 040156    6439  	oct	162145040156
    014420  aa   157164 040151    6440  	oct	157164040151
    014421  aa   156040 160162    6441  	oct	156040160162
    014422  aa   157160 145162    6442  	oct	157160145162
    014423  aa   040157 162144    6443  	oct	040157162144
    014424  aa   145162 040123    6444  	oct	145162040123
    014425  aa   171156 164141    6445  	oct	171156164141
    014426  aa   170040 143150    6446  	oct	170040143150
    014427  aa   145143 153151    6447  	oct	145143153151
    014430  aa   156147 040162    6448  	oct	156147040162
    014431  aa   145163 165155    6449  	oct	145163165155
    014432  aa   145144 040124    6450  	oct	145144040124
    014433  aa   150151 163040    6451  	oct	150151163040
    014434  aa   122105 122125    6452  	oct	122105122125
    014435  aa   116040 143154    6453  	oct	116040143154
    014436  aa   141165 163145    6454  	oct	141165163145
    014437  aa   040151 163040    6455  	oct	040151163040
    014440  aa   151156 166141    6456  	oct	151156166141
    014441  aa   154151 144040    6457  	oct	154151144040
    014442  aa   124150 145040    6458  	oct	124150145040
    014443  aa   167157 162144    6459  	oct	167157162144
    014444  aa   040117 102112    6460  	oct	040117102112
    014445  aa   105103 124055    6461  	oct	105103124055
    014446  aa   120122 117107    6462  	oct	120122117107
    014447  aa   122101 115040    6463  	oct	122101115040
    014450  aa   151163 040162    6464  	oct	151163040162
    014451  aa   145161 165151    6465  	oct	145161165151
    014452  aa   162145 144040    6466  	oct	162145144040
    014453  aa   150145 162145    6467  	oct	150145162145
    014454  aa   040124 150145    6468  	oct	040124150145
    014455  aa   040167 157162    6469  	oct	040167157162
    014456  aa   144040 102111    6470  	oct	144040102111
    014457  aa   124123 040151    6471  	oct	124123040151
    014460  aa   163040 162145    6472  	oct	163040162145
    014461  aa   161165 151162    6473  	oct	161165151162
    014462  aa   145144 040150    6474  	oct	145144040150
    014463  aa   145162 145040    6475  	oct	145162145040
    014464  aa   101040 160165    6476  	oct	101040160165
    014465  aa   156143 164165    6477  	oct	156143164165
    014466  aa   141164 151157    6478  	oct	141164151157
    014467  aa   156040 143150    6479  	oct	156040143150
    014470  aa   141162 141143    6480  	oct	141162141143
    014471  aa   164145 162040    6481  	oct	164145162040
    014472  aa   151163 040151    6482  	oct	151163040151
    014473  aa   154154 145147    6483  	oct	154154145147
    014474  aa   141154 040160    6484  	oct	141154040160
    014475  aa   162151 157162    6485  	oct	162151157162
    014476  aa   040164 157040    6486  	oct	040164157040
    014477  aa   164150 151163    6487  	oct	164150151163
    014500  aa   040167 157162    6488  	oct	040167157162
    014501  aa   144073 040143    6489  	oct	144073040143
    014502  aa   150141 162141    6490  	oct	150141162141
    014503  aa   143164 145162    6491  	oct	143164145162
    014504  aa   040151 147156    6492  	oct	040151147156
    014505  aa   157162 145144    6493  	oct	157162145144
    014506  aa   040124 150151    6494  	oct	040124150151
    014507  aa   163040 101120    6495  	oct	163040101120
    014510  aa   120114 131040    6496  	oct	120114131040
    014511  aa   124101 120105    6497  	oct	124101120105
    014512  aa   055117 120124    6498  	oct	055117120124
    014513  aa   111117 116123    6499  	oct	111117116123
    014514  aa   040143 154141    6500  	oct	040143154141
    014515  aa   165163 145040    6501  	oct	165163145040
    014516  aa   151163 040151    6502  	oct	151163040151
    014517  aa   156166 141154    6503  	oct	156166141154
    014520  aa   151144 040124    6504  	oct	151144040124
    014521  aa   150145 040167    6505  	oct	150145040167
    014522  aa   157162 144040    6506  	oct	157162144040
    014523  aa   104105 124101    6507  	oct	104105124101
    014524  aa   103110 040151    6508  	oct	103110040151
    014525  aa   163040 162145    6509  	oct	163040162145
    014526  aa   161165 151162    6510  	oct	161165151162
    014527  aa   145144 040150    6511  	oct	145144040150
    014530  aa   145162 145040    6512  	oct	145162145040
    014531  aa   124150 145040    6513  	oct	124150145040
    014532  aa   143154 141165    6514  	oct	143154141165
    014533  aa   163145 163040    6515  	oct	163145163040
    014534  aa   151156 040164    6516  	oct	151156040164
    014535  aa   150145 040111    6517  	oct	150145040111
    014536  aa   055117 055103    6518  	oct	055117055103
    014537  aa   117116 124122    6519  	oct	117116124122
    014540  aa   117114 040160    6520  	oct	117114040160
    014541  aa   141162 141147    6521  	oct	141162141147
    014542  aa   162141 160150    6522  	oct	162141160150
    014543  aa   040141 162145    6523  	oct	040141162145
    014544  aa   040156 157164    6524  	oct	040156157164
    014545  aa   040151 156040    6525  	oct	040151156040
    014546  aa   160162 157160    6526  	oct	160162157160
    014547  aa   145162 040157    6527  	oct	145162040157
    014550  aa   162144 145162    6528  	oct	162144145162
    014551  aa   040124 150145    6529  	oct	040124150145
    014552  aa   040167 157162    6530  	oct	040167157162
    014553  aa   144040 117116    6531  	oct	144040117116
    014554  aa   040157 162040    6532  	oct	040157162040
    014555  aa   117106 106040    6533  	oct	117106106040
    014556  aa   151163 040162    6534  	oct	151163040162
    014557  aa   145161 165151    6535  	oct	145161165151
    014560  aa   162145 144040    6536  	oct	162145144040
    014561  aa   150145 162145    6537  	oct	150145162145
    014562  aa   040124 150151    6538  	oct	040124150151
    014563  aa   163040 101120    6539  	oct	163040101120
    014564  aa   120114 131040    6540  	oct	120114131040
    014565  aa   124101 120105    6541  	oct	124101120105
    014566  aa   055117 120124    6542  	oct	055117120124
    014567  aa   111117 116123    6543  	oct	111117116123
    014570  aa   040143 154141    6544  	oct	040143154141
    014571  aa   165163 145040    6545  	oct	165163145040
    014572  aa   151163 040151    6546  	oct	151163040151
    014573  aa   156166 141154    6547  	oct	156166141154
    014574  aa   151144 040124    6548  	oct	151144040124
    014575  aa   150145 040141    6549  	oct	150145040141
    014576  aa   154160 150141    6550  	oct	154160150141
    014577  aa   142145 164055    6551  	oct	142145164055
    014600  aa   156141 155145    6552  	oct	156141155145
    014601  aa   040165 163145    6553  	oct	040165163145
    014602  aa   144040 151156    6554  	oct	144040151156
    014603  aa   040164 150145    6555  	oct	040164150145
    014604  aa   040120 122117    6556  	oct	040120122117
    014605  aa   107122 101115    6557  	oct	107122101115
    014606  aa   040103 117114    6558  	oct	040103117114
    014607  aa   114101 124111    6559  	oct	114101124111
    014610  aa   116107 040123    6560  	oct	116107040123
    014611  aa   105121 125105    6561  	oct	105121125105
    014612  aa   116103 105040    6562  	oct	116103105040
    014613  aa   143154 141165    6563  	oct	143154141165
    014614  aa   163145 040151    6564  	oct	163145040151
    014615  aa   163040 156157    6565  	oct	163040156157
    014616  aa   164040 144145    6566  	oct	164040144145
    014617  aa   146151 156145    6567  	oct	146151156145
    014620  aa   144073 040116    6568  	oct	144073040116
    014621  aa   101124 111126    6569  	oct	101124111126
    014622  aa   105040 151163    6570  	oct	105040151163
    014623  aa   040141 163163    6571  	oct	040141163163
    014624  aa   165155 145144    6572  	oct	165155145144
    014625  aa   040124 150145    6573  	oct	040124150145
    014626  aa   040167 157162    6574  	oct	040167157162
    014627  aa   144040 111116    6575  	oct	144040111116
    014630  aa   120125 124055    6576  	oct	120125124055
    014631  aa   117125 124120    6577  	oct	117125124120
    014632  aa   125124 040157    6578  	oct	125124040157
    014633  aa   162040 104101    6579  	oct	162040104101
    014634  aa   124101 040151    6580  	oct	124101040151
    014635  aa   163040 162145    6581  	oct	163040162145
    014636  aa   161165 151162    6582  	oct	161165151162
    014637  aa   145144 040150    6583  	oct	145144040150
    014640  aa   145162 145040    6584  	oct	145162145040
    014641  aa   124150 151163    6585  	oct	124150151163
    014642  aa   040167 157162    6586  	oct	040167157162
    014643  aa   144040 151163    6587  	oct	144040151163
    014644  aa   040156 157164    6588  	oct	040156157164
    014645  aa   040141 040154    6589  	oct	040141040154
    014646  aa   145147 151164    6590  	oct	145147151164
    014647  aa   151155 141164    6591  	oct	151155141164
    014650  aa   145040 146151    6592  	oct	145040146151
    014651  aa   154145 055156    6593  	oct	154145055156
    014652  aa   141155 145073    6594  	oct	141155145073
    014653  aa   040167 157162    6595  	oct	040167157162
    014654  aa   144040 151147    6596  	oct	144040151147
    014655  aa   156157 162145    6597  	oct	156157162145
    014656  aa   144040 124150    6598  	oct	144040124150
    014657  aa   151163 040157    6599  	oct	151163040157
    014660  aa   162144 151156    6600  	oct	162144151156
    014661  aa   141154 040156    6601  	oct	141154040156
    014662  aa   165155 142145    6602  	oct	165155142145
    014663  aa   162040 151163    6603  	oct	162040151163
    014664  aa   040151 147156    6604  	oct	040151147156
    014665  aa   157162 145144    6605  	oct	157162145144
    014666  aa   040163 151156    6606  	oct	040163151156
    014667  aa   143145 040151    6607  	oct	143145040151
    014670  aa   164040 151163    6608  	oct	164040151163
    014671  aa   040156 157164    6609  	oct	040156157164
    014672  aa   040151 156040    6610  	oct	040151156040
    014673  aa   164150 145040    6611  	oct	164150145040
    014674  aa   143154 157163    6612  	oct	143154157163
    014675  aa   145144 040151    6613  	oct	145144040151
    014676  aa   156164 145162    6614  	oct	156164145162
    014677  aa   166141 154040    6615  	oct	166141154040
    014700  aa   133061 040054    6616  	oct	133061040054
    014701  aa   040061 062070    6617  	oct	040061062070
    014702  aa   135040 117142    6618  	oct	135040117142
    014703  aa   163157 154145    6619  	oct	163157154145
    014704  aa   164145 040165    6620  	oct	164145040165
    014705  aa   163141 147145    6621  	oct	163141147145
    014706  aa   040157 146040    6622  	oct	040157146040
    014707  aa   151155 160154    6623  	oct	151155160154
    014710  aa   145155 145156    6624  	oct	145155145156
    014711  aa   164157 162055    6625  	oct	164157162055
    014712  aa   156141 155145    6626  	oct	156141155145
    014713  aa   040151 156040    6627  	oct	040151156040
    014714  aa   123105 121125    6628  	oct	123105121125
    014715  aa   105116 103105    6629  	oct	105116103105
    014716  aa   040143 154141    6630  	oct	040143154141
    014717  aa   165163 145040    6631  	oct	165163145040
    014720  aa   141143 143145    6632  	oct	141143143145
    014721  aa   160164 145144    6633  	oct	160164145144
    014722  aa   073040 151164    6634  	oct	073040151164
    014723  aa   040163 150157    6635  	oct	040163150157
    014724  aa   165154 144040    6636  	oct	165154144040
    014725  aa   142145 040144    6637  	oct	142145040144
    014726  aa   145146 151156    6638  	oct	145146151156
    014727  aa   145144 040141    6639  	oct	145144040141
    014730  aa   163040 141040    6640  	oct	163040141040
    014731  aa   155156 145155    6641  	oct	155156145155
    014732  aa   157156 151143    6642  	oct	157156151143
    014733  aa   055156 141155    6643  	oct	055156141155
    014734  aa   145040 123171    6644  	oct	145040123171
    014735  aa   156164 141170    6645  	oct	156164141170
    014736  aa   040143 150145    6646  	oct	040143150145
    014737  aa   143153 151156    6647  	oct	143153151156
    014740  aa   147040 144151    6648  	oct	147040144151
    014741  aa   163143 157156    6649  	oct	163143157156
    014742  aa   164151 156165    6650  	oct	164151156165
    014743  aa   145144 040105    6651  	oct	145144040105
    014744  aa   122122 117122    6652  	oct	122122117122
    014745  aa   061060 065040    6653  	oct	061060065040
    014746  aa   111155 160154    6654  	oct	111155160154
    014747  aa   145155 145156    6655  	oct	145155145156
    014750  aa   164157 162040    6656  	oct	164157162040
    014751  aa   156141 155145    6657  	oct	156141155145
    014752  aa   040145 170143    6658  	oct	040145170143
    014753  aa   145145 144163    6659  	oct	145145144163
    014754  aa   040061 066040    6660  	oct	040061066040
    014755  aa   143150 141162    6661  	oct	143150141162
    014756  aa   141143 164145    6662  	oct	141143164145
    014757  aa   162163 054040    6663  	oct	162163054040
    014760  aa   151164 040151    6664  	oct	151164040151
    014761  aa   163040 142145    6665  	oct	163040142145
    014762  aa   151156 147040    6666  	oct	151156147040
    014763  aa   164162 165156    6667  	oct	164162165156
    014764  aa   143141 164145    6668  	oct	143141164145
    014765  aa   144040 111154    6669  	oct	144040111154
    014766  aa   154145 147141    6670  	oct	154145147141
    014767  aa   154040 156141    6671  	oct	154040156141
    014770  aa   155145 040165    6672  	oct	155145040165
    014771  aa   163145 144040    6673  	oct	163145144040
    014772  aa   151156 040141    6674  	oct	151156040141
    014773  aa   163163 151147    6675  	oct	163163151147
    014774  aa   156040 143154    6676  	oct	156040143154
    014775  aa   141165 163145    6677  	oct	141165163145
    014776  aa   040111 154154    6678  	oct	040111154154
    014777  aa   145147 141154    6679  	oct	145147141154
    015000  aa   040165 163145    6680  	oct	040165163145
    015001  aa   040157 146040    6681  	oct	040157146040
    015002  aa   150171 160150    6682  	oct	150171160150
    015003  aa   145156 040151    6683  	oct	145156040151
    015004  aa   156040 144145    6684  	oct	156040144145
    015005  aa   166151 143145    6685  	oct	166151143145
    015006  aa   040143 157144    6686  	oct	040143157144
    015007  aa   145040 124150    6687  	oct	145040124150
    015010  aa   145040 141143    6688  	oct	145040141143
    015011  aa   143145 163163    6689  	oct	143145163163
    015012  aa   040141 156144    6690  	oct	040141156144
    015013  aa   040157 162147    6691  	oct	040157162147
    015014  aa   141156 151172    6692  	oct	141156151172
    015015  aa   141164 151157    6693  	oct	141164151157
    015016  aa   156040 143154    6694  	oct	156040143154
    015017  aa   141165 163145    6695  	oct	141165163145
    015020  aa   163040 141162    6696  	oct	163040141162
    015021  aa   145040 151156    6697  	oct	145040151156
    015022  aa   143157 155160    6698  	oct	143157155160
    015023  aa   141164 151142    6699  	oct	141164151142
    015024  aa   154145 054040    6700  	oct	154145054040
    015025  aa   163145 161165    6701  	oct	163145161165
    015026  aa   145156 164151    6702  	oct	145156164151
    015027  aa   141154 040141    6703  	oct	141154040141
    015030  aa   143143 145163    6704  	oct	143143145163
    015031  aa   163040 151163    6705  	oct	163040151163
    015032  aa   040141 163163    6706  	oct	040141163163
    015033  aa   165155 145144    6707  	oct	165155145144
    015034  aa   040125 163145    6708  	oct	040125163145
    015035  aa   040157 146040    6709  	oct	040157146040
    015036  aa   141156 040117    6710  	oct	141156040117
    015037  aa   120124 111117    6711  	oct	120124111117
    015040  aa   116101 114040    6712  	oct	116101114040
    015041  aa   146151 154145    6713  	oct	146151154145
    015042  aa   040167 151164    6714  	oct	040167151164
    015043  aa   150040 157162    6715  	oct	150040157162
    015044  aa   147141 156151    6716  	oct	147141156151
    015045  aa   172141 164151    6717  	oct	172141164151
    015046  aa   157156 040157    6718  	oct	157156040157
    015047  aa   164150 145162    6719  	oct	164150145162
    015050  aa   040164 150141    6720  	oct	040164150141
    015051  aa   156040 163145    6721  	oct	156040163145
    015052  aa   161165 145156    6722  	oct	161165145156
    015053  aa   164151 141154    6723  	oct	164151141154
    015054  aa   040151 163040    6724  	oct	040151163040
    015055  aa   141156 040145    6725  	oct	141156040145
    015056  aa   170164 145156    6726  	oct	170164145156
    015057  aa   163151 157156    6727  	oct	163151157156
    015060  aa   040164 157040    6728  	oct	040164157040
    015061  aa   101116 123040    6729  	oct	101116123040
    015062  aa   103117 102117    6730  	oct	103117102117
    015063  aa   114055 067064    6731  	oct	114055067064
    015064  aa   040105 122122    6732  	oct	040105122122
    015065  aa   117122 061061    6733  	oct	117122061061
    015066  aa   061054 040143    6734  	oct	061054040143
    015067  aa   157155 160151    6735  	oct	157155160151
    015070  aa   154145 162040    6736  	oct	154145162040
    015071  aa   142165 147040    6737  	oct	142165147040
    015072  aa   103117 115120    6738  	oct	103117115120
    015073  aa   111114 105122    6739  	oct	111114105122
    015074  aa   040105 122122    6740  	oct	040105122122
    015075  aa   117122 040055    6741  	oct	117122040055
    015076  aa   040145 162162    6742  	oct	040145162162
    015077  aa   157162 040061    6743  	oct	157162040061
    015100  aa   061062 040124    6744  	oct	061062040124
    015101  aa   150145 040163    6745  	oct	150145040163
    015102  aa   151172 145040    6746  	oct	151172145040
    015103  aa   157146 040164    6747  	oct	157146040164
    015104  aa   150151 163040    6748  	oct	150151163040
    015105  aa   162145 144145    6749  	oct	162145144145
    015106  aa   146151 156145    6750  	oct	146151156145
    015107  aa   144040 151164    6751  	oct	144040151164
    015110  aa   145155 040151    6752  	oct	145155040151
    015111  aa   163040 165156    6753  	oct	163040165156
    015112  aa   145161 165141    6754  	oct	145161165141
    015113  aa   154040 164157    6755  	oct	154040164157
    015114  aa   040164 150141    6756  	oct	040164150141
    015115  aa   164040 157146    6757  	oct	164040157146
    015116  aa   040164 150145    6758  	oct	040164150145
    015117  aa   040157 142152    6759  	oct	040157142152
    015120  aa   145143 164040    6760  	oct	145143164040
    015121  aa   157146 040162    6761  	oct	157146040162
    015122  aa   145144 145146    6762  	oct	145144145146
    015123  aa   151156 151164    6763  	oct	151156151164
    015124  aa   151157 156040    6764  	oct	151157156040
    015125  aa   102154 157143    6765  	oct	102154157143
    015126  aa   153040 163151    6766  	oct	153040163151
    015127  aa   172145 040155    6767  	oct	172145040155
    015130  aa   165163 164040    6768  	oct	165163164040
    015131  aa   145161 165141    6769  	oct	145161165141
    015132  aa   154040 155141    6770  	oct	154040155141
    015133  aa   170151 155165    6771  	oct	170151155165
    015134  aa   155040 162145    6772  	oct	155040162145
    015135  aa   143157 162144    6773  	oct	143157162144
    015136  aa   040163 151172    6774  	oct	040163151172
    015137  aa   145040 124150    6775  	oct	145040124150
    015140  aa   145040 163160    6776  	oct	145040163160
    015141  aa   145143 151146    6777  	oct	145143151146
    015142  aa   151145 144040    6778  	oct	151145144040
    015143  aa   142154 157143    6779  	oct	142154157143
    015144  aa   153040 163151    6780  	oct	153040163151
    015145  aa   172145 040151    6781  	oct	172145040151
    015146  aa   163040 164157    6782  	oct	163040164157
    015147  aa   157040 163155    6783  	oct	157040163155
    015150  aa   141154 154040    6784  	oct	141154154040
    015151  aa   164157 040143    6785  	oct	164157040143
    015152  aa   157156 164141    6786  	oct	157156164141
    015153  aa   151156 040164    6787  	oct	151156040164
    015154  aa   150145 040154    6788  	oct	150145040154
    015155  aa   141162 147145    6789  	oct	141162147145
    015156  aa   163164 040146    6790  	oct	163164040146
    015157  aa   151154 145040    6791  	oct	151154145040
    015160  aa   162145 143157    6792  	oct	162145143157
    015161  aa   162144 073040    6793  	oct	162144073040
    015162  aa   102114 117103    6794  	oct	102114117103
    015163  aa   113040 123111    6795  	oct	113040123111
    015164  aa   132105 040143    6796  	oct	132105040143
    015165  aa   154141 165163    6797  	oct	154141165163
    015166  aa   145040 151147    6798  	oct	145040151147
    015167  aa   156157 162145    6799  	oct	156157162145
    015170  aa   144040 124150    6800  	oct	144040124150
    015171  aa   145040 162145    6801  	oct	145040162145
    015172  aa   143157 162144    6802  	oct	143157162144
    015173  aa   040146 157162    6803  	oct	040146157162
    015174  aa   155141 164040    6804  	oct	155141164040
    015175  aa   146157 162040    6805  	oct	146157162040
    015176  aa   164150 151163    6806  	oct	164150151163
    015177  aa   040146 151154    6807  	oct	040146151154
    015200  aa   145040 151163    6808  	oct	145040151163
    015201  aa   040141 154154    6809  	oct	040141154154
    015202  aa   157167 145144    6810  	oct	157167145144
    015203  aa   040157 156154    6811  	oct	040157156154
    015204  aa   171040 157156    6812  	oct	171040157156
    015205  aa   040164 141160    6813  	oct	040164141160
    015206  aa   145040 124150    6814  	oct	145040124150
    015207  aa   145040 162145    6815  	oct	145040162145
    015210  aa   143157 162144    6816  	oct	143157162144
    015211  aa   040146 157162    6817  	oct	040146157162
    015212  aa   155141 164040    6818  	oct	155141164040
    015213  aa   146157 162040    6819  	oct	146157162040
    015214  aa   164150 151163    6820  	oct	164150151163
    015215  aa   040146 151154    6821  	oct	040146151154
    015216  aa   145040 151163    6822  	oct	145040151163
    015217  aa   040141 154154    6823  	oct	040141154154
    015220  aa   157167 145144    6824  	oct	157167145144
    015221  aa   040157 156154    6825  	oct	040157156154
    015222  aa   171040 157156    6826  	oct	171040157156
    015223  aa   040164 141160    6827  	oct	040164141160
    015224  aa   145040 157162    6828  	oct	145040157162
    015225  aa   040144 151163    6829  	oct	040144151163
    015226  aa   153040 124150    6830  	oct	153040124150
    015227  aa   145040 104105    6831  	oct	145040104105
    015230  aa   120105 116104    6832  	oct	120105116104
    015231  aa   111116 107040    6833  	oct	111116107040
    015232  aa   117116 040157    6834  	oct	117116040157
    015233  aa   160164 151157    6835  	oct	160164151157
    015234  aa   156040 157146    6836  	oct	156040157146
    015235  aa   040164 150145    6837  	oct	040164150145
    015236  aa   040122 105103    6838  	oct	040122105103
    015237  aa   117122 104040    6839  	oct	117122104040
    015240  aa   103117 116124    6840  	oct	103117116124
    015241  aa   101111 116123    6841  	oct	101111116123
    015242  aa   040143 154141    6842  	oct	040143154141
    015243  aa   165163 145040    6843  	oct	165163145040
    015244  aa   151163 040156    6844  	oct	151163040156
    015245  aa   157164 040160    6845  	oct	157164040160
    015246  aa   145162 155151    6846  	oct	145162155151
    015247  aa   164164 145144    6847  	oct	164164145144
    015250  aa   040167 151164    6848  	oct	040167151164
    015251  aa   150040 164150    6849  	oct	150040164150
    015252  aa   151163 040162    6850  	oct	151163040162
    015253  aa   145143 157162    6851  	oct	145143157162
    015254  aa   144040 146157    6852  	oct	144040146157
    015255  aa   162155 141164    6853  	oct	162155141164
    015256  aa   040101 040144    6854  	oct	040101040144
    015257  aa   141164 141040    6855  	oct	141164141040
    015260  aa   162145 143157    6856  	oct	162145143157
    015261  aa   162144 040146    6857  	oct	162144040146
    015262  aa   157162 040164    6858  	oct	157162040164
    015263  aa   150151 163040    6859  	oct	150151163040
    015264  aa   146151 154145    6860  	oct	146151154145
    015265  aa   040151 163040    6861  	oct	040151163040
    015266  aa   164157 157040    6862  	oct	164157157040
    015267  aa   154141 162147    6863  	oct	154141162147
    015270  aa   145040 146157    6864  	oct	145040146157
    015271  aa   162040 164150    6865  	oct	162040164150
    015272  aa   145040 163160    6866  	oct	145040163160
    015273  aa   145143 151146    6867  	oct	145143151146
    015274  aa   151145 144040    6868  	oct	151145144040
    015275  aa   144145 166151    6869  	oct	144145166151
    015276  aa   143145 040115    6870  	oct	143145040115
    015277  aa   165154 164151    6871  	oct	165154164151
    015300  aa   160154 171040    6872  	oct	160154171040
    015301  aa   144145 146151    6873  	oct	144145146151
    015302  aa   156145 144040    6874  	oct	156145144040
    015303  aa   143150 141162    6875  	oct	143150141162
    015304  aa   141143 164145    6876  	oct	141143164145
    015305  aa   162163 040157    6877  	oct	162163040157
    015306  aa   143143 165162    6878  	oct	143143165162
    015307  aa   040151 156040    6879  	oct	040151156040
    015310  aa   164150 145040    6880  	oct	164150145040
    015311  aa   160162 145143    6881  	oct	160162145143
    015312  aa   145145 144151    6882  	oct	145145144151
    015313  aa   156147 040141    6883  	oct	156147040141
    015314  aa   154160 150141    6884  	oct	154160150141
    015315  aa   142145 164040    6885  	oct	142145164040
    015316  aa   144145 146151    6886  	oct	144145146151
    015317  aa   156151 164151    6887  	oct	156151164151
    015320  aa   157156 073040    6888  	oct	157156073040
    015321  aa   164150 145151    6889  	oct	164150145151
    015322  aa   162040 146151    6890  	oct	162040146151
    015323  aa   162163 164040    6891  	oct	162163164040
    015324  aa   144145 146151    6892  	oct	144145146151
    015325  aa   156151 164151    6893  	oct	156151164151
    015326  aa   157156 040151    6894  	oct	157156040151
    015327  aa   163040 165163    6895  	oct	163040165163
    015330  aa   145144 040124    6896  	oct	145144040124
    015331  aa   150145 040144    6897  	oct	150145040144
    015332  aa   141164 141040    6898  	oct	141164141040
    015333  aa   164171 160145    6899  	oct	164171160145
    015334  aa   040157 146040    6900  	oct	040157146040
    015335  aa   164150 151163    6901  	oct	164150151163
    015336  aa   040151 164145    6902  	oct	040151164145
    015337  aa   155040 166151    6903  	oct	155040166151
    015340  aa   157154 141164    6904  	oct	157154141164
    015341  aa   145163 040103    6905  	oct	145163040103
    015342  aa   117104 105055    6906  	oct	117104105055
    015343  aa   123105 124040    6907  	oct	123105124040
    015344  aa   162145 161165    6908  	oct	162145161165
    015345  aa   151162 145155    6909  	oct	151162145155
    015346  aa   145156 164163    6910  	oct	145156164163
    015347  aa   040157 146040    6911  	oct	040157146040
    015350  aa   164150 145040    6912  	oct	164150145040
    015351  aa   143157 156164    6913  	oct	143157156164
    015352  aa   141151 156151    6914  	oct	141151156151
    015353  aa   156147 040146    6915  	oct	156147040146
    015354  aa   151154 145040    6916  	oct	151154145040
    015355  aa   124150 145040    6917  	oct	124150145040
    015356  aa   162145 143157    6918  	oct	162145143157
    015357  aa   162144 040163    6919  	oct	162144040163
    015360  aa   151172 145040    6920  	oct	151172145040
    015361  aa   146157 162040    6921  	oct	146157162040
    015362  aa   164150 151163    6922  	oct	164150151163
    015363  aa   040146 151154    6923  	oct	040146151154
    015364  aa   145040 151163    6924  	oct	145040151163
    015365  aa   040154 145163    6925  	oct	040154145163
    015366  aa   163040 164150    6926  	oct	163040164150
    015367  aa   141156 040164    6927  	oct	141156040164
    015370  aa   150145 040155    6928  	oct	150145040155
    015371  aa   151156 151155    6929  	oct	151156151155
    015372  aa   165155 040061    6930  	oct	165155040061
    015373  aa   070040 143150    6931  	oct	070040143150
    015374  aa   141162 141143    6932  	oct	141162141143
    015375  aa   164145 162163    6933  	oct	164145162163
    015376  aa   040162 145161    6934  	oct	040162145161
    015377  aa   165151 162145    6935  	oct	165151162145
    015400  aa   144040 146157    6936  	oct	144040146157
    015401  aa   162040 101116    6937  	oct	162040101116
    015402  aa   123040 164141    6938  	oct	123040164141
    015403  aa   160145 040146    6939  	oct	160145040146
    015404  aa   151154 145163    6940  	oct	151154145163
    015405  aa   040124 150145    6941  	oct	040124150145
    015406  aa   040162 145143    6942  	oct	040162145143
    015407  aa   157162 144040    6943  	oct	157162144040
    015410  aa   163151 172145    6944  	oct	163151172145
    015411  aa   040146 157162    6945  	oct	040146157162
    015412  aa   040164 150151    6946  	oct	040164150151
    015413  aa   163040 146151    6947  	oct	163040146151
    015414  aa   154145 040145    6948  	oct	154145040145
    015415  aa   170143 145145    6949  	oct	170143145145
    015416  aa   144163 040164    6950  	oct	144163040164
    015417  aa   150145 040155    6951  	oct	150145040155
    015420  aa   141170 151155    6952  	oct	141170151155
    015421  aa   165155 040070    6953  	oct	165155040070
    015422  aa   061070 070040    6954  	oct	061070070040
    015423  aa   143150 141162    6955  	oct	143150141162
    015424  aa   141143 164145    6956  	oct	141143164145
    015425  aa   162163 040141    6957  	oct	162163040141
    015426  aa   154154 157167    6958  	oct	154154157167
    015427  aa   145144 040146    6959  	oct	145144040146
    015430  aa   157162 040126    6960  	oct	157162040126
    015431  aa   114122 040101    6961  	oct	114122040101
    015432  aa   116123 040164    6962  	oct	116123040164
    015433  aa   141160 145040    6963  	oct	141160145040
    015434  aa   146151 154145    6964  	oct	146151154145
    015435  aa   163040 124150    6965  	oct	163040124150
    015436  aa   145040 162145    6966  	oct	145040162145
    015437  aa   143157 162144    6967  	oct	143157162144
    015440  aa   040163 151172    6968  	oct	040163151172
    015441  aa   145040 146157    6969  	oct	145040146157
    015442  aa   162040 164150    6970  	oct	162040164150
    015443  aa   151163 040146    6971  	oct	151163040146
    015444  aa   151154 145040    6972  	oct	151154145040
    015445  aa   145170 143145    6973  	oct	145170143145
    015446  aa   145144 163040    6974  	oct	145144163040
    015447  aa   164150 145040    6975  	oct	164150145040
    015450  aa   155141 170151    6976  	oct	155141170151
    015451  aa   155165 155040    6977  	oct	155165155040
    015452  aa   061054 060064    6978  	oct	061054060064
    015453  aa   064054 064070    6979  	oct	064054064070
    015454  aa   060040 143150    6980  	oct	060040143150
    015455  aa   141162 141143    6981  	oct	141162141143
    015456  aa   164145 162163    6982  	oct	164145162163
    015457  aa   040141 154154    6983  	oct	040141154154
    015460  aa   157167 145144    6984  	oct	157167145144
    015461  aa   040146 157162    6985  	oct	040146157162
    015462  aa   040123 120101    6986  	oct	040123120101
    015463  aa   116116 105104    6987  	oct	116116105104
    015464  aa   040101 116123    6988  	oct	040101116123
    015465  aa   040164 141160    6989  	oct	040164141160
    015466  aa   145040 146151    6990  	oct	145040146151
    015467  aa   154145 163040    6991  	oct	154145163040
    015470  aa   124150 145040    6992  	oct	124150145040
    015471  aa   162145 143157    6993  	oct	162145143157
    015472  aa   162144 040163    6994  	oct	162144040163
    015473  aa   151172 145040    6995  	oct	151172145040
    015474  aa   146157 162040    6996  	oct	146157162040
    015475  aa   164150 151163    6997  	oct	164150151163
    015476  aa   040146 151154    6998  	oct	040146151154
    015477  aa   145040 145170    6999  	oct	145040145170
    015500  aa   143145 145144    7000  	oct	143145145144
    015501  aa   163040 164150    7001  	oct	163040164150
    015502  aa   145040 155141    7002  	oct	145040155141
    015503  aa   170151 155165    7003  	oct	170151155165
    015504  aa   155040 070061    7004  	oct	155040070061
    015505  aa   071062 040143    7005  	oct	071062040143
    015506  aa   150141 162141    7006  	oct	150141162141
    015507  aa   143164 145162    7007  	oct	143164145162
    015510  aa   163040 141154    7008  	oct	163040141154
    015511  aa   154157 167145    7009  	oct	154157167145
    015512  aa   144040 146157    7010  	oct	144040146157
    015513  aa   162040 126114    7011  	oct	162040126114
    015514  aa   122040 101116    7012  	oct	122040101116
    015515  aa   123040 164141    7013  	oct	123040164141
    015516  aa   160145 040146    7014  	oct	160145040146
    015517  aa   151154 145163    7015  	oct	151154145163
    015520  aa   040124 150145    7016  	oct	040124150145
    015521  aa   040142 154157    7017  	oct	040142154157
    015522  aa   143153 040163    7018  	oct	143153040163
    015523  aa   151172 145040    7019  	oct	151172145040
    015524  aa   146157 162040    7020  	oct	146157162040
    015525  aa   164150 151163    7021  	oct	164150151163
    015526  aa   040146 151154    7022  	oct	040146151154
    015527  aa   145040 151163    7023  	oct	145040151163
    015530  aa   040154 145163    7024  	oct	040154145163
    015531  aa   163040 164150    7025  	oct	163040164150
    015532  aa   141156 040164    7026  	oct	141156040164
    015533  aa   150145 040155    7027  	oct	150145040155
    015534  aa   151156 151155    7028  	oct	151156151155
    015535  aa   165155 040061    7029  	oct	165155040061
    015536  aa   070040 143150    7030  	oct	070040143150
    015537  aa   141162 141143    7031  	oct	141162141143
    015540  aa   164145 162163    7032  	oct	164145162163
    015541  aa   040162 145161    7033  	oct	040162145161
    015542  aa   165151 162145    7034  	oct	165151162145
    015543  aa   144040 146157    7035  	oct	144040146157
    015544  aa   162040 101116    7036  	oct	162040101116
    015545  aa   123040 164141    7037  	oct	123040164141
    015546  aa   160145 040146    7038  	oct	160145040146
    015547  aa   151154 145163    7039  	oct	151154145163
    015550  aa   040124 150145    7040  	oct	040124150145
    015551  aa   040142 154157    7041  	oct	040142154157
    015552  aa   143153 040163    7042  	oct	143153040163
    015553  aa   151172 145040    7043  	oct	151172145040
    015554  aa   163160 145143    7044  	oct	163160145143
    015555  aa   151146 151145    7045  	oct	151146151145
    015556  aa   144040 146157    7046  	oct	144040146157
    015557  aa   162040 164150    7047  	oct	162040164150
    015560  aa   151163 040146    7048  	oct	151163040146
    015561  aa   151154 145040    7049  	oct	151154145040
    015562  aa   151163 040154    7050  	oct	151163040154
    015563  aa   145163 163040    7051  	oct	145163163040
    015564  aa   164150 141156    7052  	oct	164150141156
    015565  aa   040164 150145    7053  	oct	040164150145
    015566  aa   040154 141162    7054  	oct	040154141162
    015567  aa   147145 163164    7055  	oct	147145163164
    015570  aa   040144 145146    7056  	oct	040144145146
    015571  aa   151156 145144    7057  	oct	151156145144
    015572  aa   040162 145143    7058  	oct	040162145143
    015573  aa   157162 144040    7059  	oct	157162144040
    015574  aa   163151 172145    7060  	oct	163151172145
    015575  aa   040124 150145    7061  	oct	040124150145
    015576  aa   040142 154157    7062  	oct	040142154157
    015577  aa   143153 040163    7063  	oct	143153040163
    015600  aa   151172 145040    7064  	oct	151172145040
    015601  aa   163160 145143    7065  	oct	163160145143
    015602  aa   151146 151145    7066  	oct	151146151145
    015603  aa   144040 146157    7067  	oct	144040146157
    015604  aa   162040 164150    7068  	oct	162040164150
    015605  aa   151163 040146    7069  	oct	151163040146
    015606  aa   151154 145040    7070  	oct	151154145040
    015607  aa   151163 040156    7071  	oct	151163040156
    015610  aa   157164 040141    7072  	oct	157164040141
    015611  aa   040155 165154    7073  	oct	040155165154
    015612  aa   164151 160154    7074  	oct	164151160154
    015613  aa   145040 157146    7075  	oct	145040157146
    015614  aa   040164 150145    7076  	oct	040164150145
    015615  aa   040162 145143    7077  	oct	040162145143
    015616  aa   157162 144040    7078  	oct	157162144040
    015617  aa   163151 172145    7079  	oct	163151172145
    015620  aa   040124 150145    7080  	oct	040124150145
    015621  aa   040141 143164    7081  	oct	040141143164
    015622  aa   165141 154040    7082  	oct	165141154040
    015623  aa   142154 157143    7083  	oct	142154157143
    015624  aa   153040 163151    7084  	oct	153040163151
    015625  aa   172145 040165    7085  	oct	172145040165
    015626  aa   163145 144040    7086  	oct	163145144040
    015627  aa   167151 154154    7087  	oct	167151154154
    015630  aa   040142 145040    7088  	oct	040142145040
    015631  aa   151156 143162    7089  	oct	151156143162
    015632  aa   145141 163145    7090  	oct	145141163145
    015633  aa   144040 141143    7091  	oct	144040141143
    015634  aa   143157 162144    7092  	oct	143157162144
    015635  aa   151156 147154    7093  	oct	151156147154
    015636  aa   171040 124150    7094  	oct	171040124150
    015637  aa   145040 141143    7095  	oct	145040141143
    015640  aa   164165 141154    7096  	oct	164165141154
    015641  aa   040162 145143    7097  	oct	040162145143
    015642  aa   157162 144040    7098  	oct	157162144040
    015643  aa   163151 172145    7099  	oct	163151172145
    015644  aa   040165 163145    7100  	oct	040165163145
    015645  aa   144040 167151    7101  	oct	144040167151
    015646  aa   154154 040142    7102  	oct	154154040142
    015647  aa   145040 141144    7103  	oct	145040141144
    015650  aa   152165 163164    7104  	oct	152165163164
    015651  aa   145144 040141    7105  	oct	145144040141
    015652  aa   143143 157162    7106  	oct	143143157162
    015653  aa   144151 156147    7107  	oct	144151156147
    015654  aa   154171 040124    7108  	oct	154171040124
    015655  aa   150145 040141    7109  	oct	150145040141
    015656  aa   143164 165141    7110  	oct	143164165141
    015657  aa   154040 162145    7111  	oct	154040162145
    015660  aa   143157 162144    7112  	oct	143157162144
    015661  aa   040163 151172    7113  	oct	040163151172
    015662  aa   145040 165163    7114  	oct	145040165163
    015663  aa   145144 040167    7115  	oct	145144040167
    015664  aa   151154 154040    7116  	oct	151154154040
    015665  aa   142145 040164    7117  	oct	142145040164
    015666  aa   150141 164040    7118  	oct	150141164040
    015667  aa   163160 145143    7119  	oct	163160145143
    015670  aa   151146 151145    7120  	oct	151146151145
    015671  aa   144040 151156    7121  	oct	144040151156
    015672  aa   040164 150145    7122  	oct	040164150145
    015673  aa   040122 105103    7123  	oct	040122105103
    015674  aa   117122 104040    7124  	oct	117122104040
    015675  aa   103117 116124    7125  	oct	103117116124
    015676  aa   101111 116123    7126  	oct	101111116123
    015677  aa   040143 154141    7127  	oct	040143154141
    015700  aa   165163 145040    7128  	oct	165163145040
    015701  aa   115151 156151    7129  	oct	115151156151
    015702  aa   155165 155040    7130  	oct	155165155040
    015703  aa   122105 103117    7131  	oct	122105103117
    015704  aa   122104 040103    7132  	oct	122104040103
    015705  aa   117116 124101    7133  	oct	117116124101
    015706  aa   111116 123040    7134  	oct	111116123040
    015707  aa   163151 172145    7135  	oct	163151172145
    015710  aa   040151 163040    7136  	oct	040151163040
    015711  aa   060040 157162    7137  	oct	060040157162
    015712  aa   040156 157164    7138  	oct	040156157164
    015713  aa   040163 160145    7139  	oct	040163160145
    015714  aa   143151 146151    7140  	oct	143151146151
    015715  aa   145144 040146    7141  	oct	145144040146
    015716  aa   157162 040164    7142  	oct	157162040164
    015717  aa   150151 163040    7143  	oct	150151163040
    015720  aa   146151 154145    7144  	oct	146151154145
    015721  aa   040143 157156    7145  	oct	040143157156
    015722  aa   164141 151156    7146  	oct	164141151156
    015723  aa   151156 147040    7147  	oct	151156147040
    015724  aa   166141 162151    7148  	oct	166141162151
    015725  aa   141142 154145    7149  	oct	141142154145
    015726  aa   040154 145156    7150  	oct	040154145156
    015727  aa   147164 150040    7151  	oct	147164150040
    015730  aa   162145 143157    7152  	oct	162145143157
    015731  aa   162144 163040    7153  	oct	162144163040
    015732  aa   124150 145040    7154  	oct	124150145040
    015733  aa   122105 103117    7155  	oct	122105103117
    015734  aa   122104 040103    7156  	oct	122104040103
    015735  aa   117116 124101    7157  	oct	117116124101
    015736  aa   111116 123040    7158  	oct	111116123040
    015737  aa   163151 172145    7159  	oct	163151172145
    015740  aa   040146 157162    7160  	oct	040146157162
    015741  aa   040164 150151    7161  	oct	040164150151
    015742  aa   163040 146151    7162  	oct	163040146151
    015743  aa   154145 040151    7163  	oct	154145040151
    015744  aa   163040 151156    7164  	oct	163040151156
    015745  aa   143157 156163    7165  	oct	143157156163
    015746  aa   151163 164145    7166  	oct	151163164145
    015747  aa   156164 040167    7167  	oct	156164040167
    015750  aa   151164 150040    7168  	oct	151164150040
    015751  aa   164150 141164    7169  	oct	164150141164
    015752  aa   040162 145161    7170  	oct	040162145161
    015753  aa   165151 162145    7171  	oct	165151162145
    015754  aa   144040 142171    7172  	oct	144040142171
    015755  aa   040164 150145    7173  	oct	040164150145
    015756  aa   040162 145143    7174  	oct	040162145143
    015757  aa   157162 144040    7175  	oct	157162144040
    015760  aa   144145 163143    7176  	oct	144145163143
    015761  aa   162151 160164    7177  	oct	162151160164
    015762  aa   151157 156040    7178  	oct	151157156040
    015763  aa   124150 145040    7179  	oct	124150145040
    015764  aa   102114 117103    7180  	oct	102114117103
    015765  aa   113040 103117    7181  	oct	113040103117
    015766  aa   116124 101111    7182  	oct	116124101111
    015767  aa   116123 040143    7183  	oct	116123040143
    015770  aa   154141 165163    7184  	oct	154141165163
    015771  aa   145040 146157    7185  	oct	145040146157
    015772  aa   162040 164150    7186  	oct	162040164150
    015773  aa   151163 040146    7187  	oct	151163040146
    015774  aa   151154 145040    7188  	oct	151154145040
    015775  aa   151163 040151    7189  	oct	151163040151
    015776  aa   147156 157162    7190  	oct	147156157162
    015777  aa   145144 040141    7191  	oct	145144040141
    016000  aa   163040 142154    7192  	oct	163040142154
    016001  aa   157143 153151    7193  	oct	157143153151
    016002  aa   156147 040151    7194  	oct	156147040151
    016003  aa   163040 156157    7195  	oct	163040156157
    016004  aa   164040 141160    7196  	oct	164040141160
    016005  aa   160154 151143    7197  	oct	160154151143
    016006  aa   141142 154145    7198  	oct	141142154145
    016007  aa   040164 157040    7199  	oct	040164157040
    016010  aa   151164 163040    7200  	oct	151164163040
    016011  aa   144145 166151    7201  	oct	144145166151
    016012  aa   143145 040124    7202  	oct	143145040124
    016013  aa   150145 040163    7203  	oct	150145040163
    016014  aa   151172 145040    7204  	oct	151172145040
    016015  aa   157146 040164    7205  	oct	157146040164
    016016  aa   150151 163040    7206  	oct	150151163040
    016017  aa   162145 144145    7207  	oct	162145144145
    016020  aa   146151 156145    7208  	oct	146151156145
    016021  aa   144040 154145    7209  	oct	144040154145
    016022  aa   166145 154040    7210  	oct	166145154040
    016023  aa   060061 040151    7211  	oct	060061040151
    016024  aa   164145 155040    7212  	oct	164145155040
    016025  aa   151163 040147    7213  	oct	151163040147
    016026  aa   162145 141164    7214  	oct	162145141164
    016027  aa   145162 040164    7215  	oct	145162040164
    016030  aa   150141 156040    7216  	oct	150141156040
    016031  aa   164150 141164    7217  	oct	164150141164
    016032  aa   040157 146040    7218  	oct	040157146040
    016033  aa   164150 145040    7219  	oct	164150145040
    016034  aa   157142 152145    7220  	oct	157142152145
    016035  aa   143164 040157    7221  	oct	143164040157
    016036  aa   146040 162145    7222  	oct	146040162145
    016037  aa   144145 146151    7223  	oct	144145146151
    016040  aa   156151 164151    7224  	oct	156151164151
    016041  aa   157156 040124    7225  	oct	157156040124
    016042  aa   150145 040141    7226  	oct	150145040141
    016043  aa   154154 157143    7227  	oct	154154157143
    016044  aa   141164 151157    7228  	oct	141164151157
    016045  aa   156040 157146    7229  	oct	156040157146
    016046  aa   040164 150151    7230  	oct	040164150151
    016047  aa   163040 151164    7231  	oct	163040151164
    016050  aa   145155 040151    7232  	oct	145155040151
    016051  aa   163040 151156    7233  	oct	163040151156
    016052  aa   143162 145141    7234  	oct	143162145141
    016053  aa   163145 144040    7235  	oct	163145144040
    016054  aa   144165 145040    7236  	oct	144165145040
    016055  aa   164157 040141    7237  	oct	164157040141
    016056  aa   040146 157154    7238  	oct	040146157154
    016057  aa   154157 167151    7239  	oct	154157167151
    016060  aa   156147 040162    7240  	oct	156147040162
    016061  aa   145144 145146    7241  	oct	145144145146
    016062  aa   151156 145144    7242  	oct	151156145144
    016063  aa   040151 164145    7243  	oct	040151164145
    016064  aa   155040 157146    7244  	oct	155040157146
    016065  aa   040147 162145    7245  	oct	040147162145
    016066  aa   141164 145162    7246  	oct	141164145162
    016067  aa   040154 145156    7247  	oct	040154145156
    016070  aa   147164 150040    7248  	oct	147164150040
    016071  aa   124150 145040    7249  	oct	124150145040
    016072  aa   141154 154157    7250  	oct	141154154157
    016073  aa   143141 164151    7251  	oct	143141164151
    016074  aa   157156 040157    7252  	oct	157156040157
    016075  aa   146040 164150    7253  	oct	146040164150
    016076  aa   151163 040151    7254  	oct	151163040151
    016077  aa   164145 155040    7255  	oct	164145155040
    016100  aa   151163 040156    7256  	oct	151163040156
    016101  aa   157156 055143    7257  	oct	157156055143
    016102  aa   157156 164151    7258  	oct	157156164151
    016103  aa   147165 157165    7259  	oct	147165157165
    016104  aa   163040 144165    7260  	oct	163040144165
    016105  aa   145040 164157    7261  	oct	145040164157
    016106  aa   040164 150145    7262  	oct	040164150145
    016107  aa   040163 171156    7263  	oct	040163171156
    016110  aa   143150 162157    7264  	oct	143150162157
    016111  aa   156151 172141    7265  	oct	156151172141
    016112  aa   164151 157156    7266  	oct	164151157156
    016113  aa   040151 155160    7267  	oct	040151155160
    016114  aa   154151 145144    7268  	oct	154151145144
    016115  aa   040142 171040    7269  	oct	040142171040
    016116  aa   151164 163040    7270  	oct	151164163040
    016117  aa   165163 141147    7271  	oct	165163141147
    016120  aa   145040 124150    7272  	oct	145040124150
    016121  aa   145040 141154    7273  	oct	145040141154
    016122  aa   154157 143141    7274  	oct	154157143141
    016123  aa   164151 157156    7275  	oct	164151157156
    016124  aa   040157 146040    7276  	oct	040157146040
    016125  aa   145154 145155    7277  	oct	145154145155
    016126  aa   145156 164163    7278  	oct	145156164163
    016127  aa   040157 146040    7279  	oct	040157146040
    016130  aa   164150 151163    7280  	oct	164150151163
    016131  aa   040141 162162    7281  	oct	040141162162
    016132  aa   141171 040151    7282  	oct	141171040151
    016133  aa   163040 156157    7283  	oct	163040156157
    016134  aa   156055 143157    7284  	oct	156055143157
    016135  aa   156164 151147    7285  	oct	156164151147
    016136  aa   165157 165163    7286  	oct	165157165163
    016137  aa   040144 165145    7287  	oct	040144165145
    016140  aa   040164 157040    7288  	oct	040164157040
    016141  aa   163171 156143    7289  	oct	163171156143
    016142  aa   150162 157156    7290  	oct	150162157156
    016143  aa   151172 141164    7291  	oct	151172141164
    016144  aa   151157 156040    7292  	oct	151157156040
    016145  aa   157146 040141    7293  	oct	157146040141
    016146  aa   040143 157156    7294  	oct	040143157156
    016147  aa   164141 151156    7295  	oct	164141151156
    016150  aa   145144 040151    7296  	oct	145144040151
    016151  aa   164145 155040    7297  	oct	164145155040
    016152  aa   124150 145040    7298  	oct	124150145040
    016153  aa   141154 154157    7299  	oct	141154154157
    016154  aa   143141 164151    7300  	oct	143141164151
    016155  aa   157156 040157    7301  	oct	157156040157
    016156  aa   146040 164150    7302  	oct	146040164150
    016157  aa   151163 040151    7303  	oct	151163040151
    016160  aa   164145 155040    7304  	oct	164145155040
    016161  aa   151163 040156    7305  	oct	151163040156
    016162  aa   157156 055143    7306  	oct	157156055143
    016163  aa   157156 164151    7307  	oct	157156164151
    016164  aa   147165 157165    7308  	oct	147165157165
    016165  aa   163040 144165    7309  	oct	163040144165
    016166  aa   145040 164157    7310  	oct	145040164157
    016167  aa   040151 155160    7311  	oct	040151155160
    016170  aa   154151 143151    7312  	oct	154151143151
    016171  aa   164040 142171    7313  	oct	164040142171
    016172  aa   164145 040163    7314  	oct	164145040163
    016173  aa   171156 143150    7315  	oct	171156143150
    016174  aa   162157 156151    7316  	oct	162157156151
    016175  aa   172141 164151    7317  	oct	172141164151
    016176  aa   157156 040157    7318  	oct	157156040157
    016177  aa   146040 104111    7319  	oct	146040104111
    016200  aa   123120 114101    7320  	oct	123120114101
    016201  aa   131040 165163    7321  	oct	131040165163
    016202  aa   141147 145040    7322  	oct	141147145040
    016203  aa   144141 164141    7323  	oct	144141164141
    016204  aa   040124 150145    7324  	oct	040124150145
    016205  aa   040141 154154    7325  	oct	040141154154
    016206  aa   157143 141164    7326  	oct	157143141164
    016207  aa   151157 156040    7327  	oct	151157156040
    016210  aa   157146 040164    7328  	oct	157146040164
    016211  aa   150151 163040    7329  	oct	150151163040
    016212  aa   151164 145155    7330  	oct	151164145155
    016213  aa   040151 163040    7331  	oct	040151163040
    016214  aa   156157 156055    7332  	oct	156157156055
    016215  aa   143157 156164    7333  	oct	143157156164
    016216  aa   151147 165157    7334  	oct	151147165157
    016217  aa   165163 040144    7335  	oct	165163040144
    016220  aa   165145 040164    7336  	oct	165145040164
    016221  aa   157040 151155    7337  	oct	157040151155
    016222  aa   160154 151143    7338  	oct	160154151143
    016223  aa   151164 040142    7339  	oct	151164040142
    016224  aa   171164 145040    7340  	oct	171164145040
    016225  aa   163171 156143    7341  	oct	163171156143
    016226  aa   150162 157156    7342  	oct	150162157156
    016227  aa   151172 141164    7343  	oct	151172141164
    016230  aa   151157 156040    7344  	oct	151157156040
    016231  aa   157146 040156    7345  	oct	157146040156
    016232  aa   157156 055145    7346  	oct	157156055145
    016233  aa   154145 155145    7347  	oct	154145155145
    016234  aa   156164 141162    7348  	oct	156164141162
    016235  aa   171040 144141    7349  	oct	171040144141
    016236  aa   164141 040101    7350  	oct	164141040101
    016237  aa   040144 165160    7351  	oct	040144165160
    016240  aa   154151 143141    7352  	oct	154151143141
    016241  aa   164145 040151    7353  	oct	164145040151
    016242  aa   156164 145162    7354  	oct	156164145162
    016243  aa   156141 154055    7355  	oct	156141154055
    016244  aa   146151 154145    7356  	oct	146151154145
    016245  aa   055156 141155    7357  	oct	055156141155
    016246  aa   145040 150141    7358  	oct	145040150141
    016247  aa   163040 142145    7359  	oct	163040142145
    016250  aa   145156 040144    7360  	oct	145156040144
    016251  aa   145146 151156    7361  	oct	145146151156
    016252  aa   145144 054040    7362  	oct	145144054040
    016253  aa   164150 151163    7363  	oct	164150151163
    016254  aa   040143 157165    7364  	oct	040143157165
    016255  aa   154144 040142    7365  	oct	154144040142
    016256  aa   145040 144141    7366  	oct	145040144141
    016257  aa   156147 145162    7367  	oct	156147145162
    016260  aa   157165 163040    7368  	oct	157165163040
    016261  aa   124150 145040    7369  	oct	124150145040
    016262  aa   141154 154157    7370  	oct	141154154157
    016263  aa   143141 164151    7371  	oct	143141164151
    016264  aa   157156 040157    7372  	oct	157156040157
    016265  aa   146040 164150    7373  	oct	146040164150
    016266  aa   151163 040151    7374  	oct	151163040151
    016267  aa   164145 155040    7375  	oct	164145155040
    016270  aa   151163 040156    7376  	oct	151163040156
    016271  aa   157156 055143    7377  	oct	157156055143
    016272  aa   157156 164151    7378  	oct	157156164151
    016273  aa   147165 157165    7379  	oct	147165157165
    016274  aa   163040 144165    7380  	oct	163040144165
    016275  aa   145040 164157    7381  	oct	145040164157
    016276  aa   040164 150145    7382  	oct	040164150145
    016277  aa   040123 131116    7383  	oct	040123131116
    016300  aa   103110 122117    7384  	oct	103110122117
    016301  aa   116111 132105    7385  	oct	116111132105
    016302  aa   040143 154141    7386  	oct	040143154141
    016303  aa   165163 145040    7387  	oct	165163145040
    016304  aa   157146 040164    7388  	oct	157146040164
    016305  aa   150145 040160    7389  	oct	150145040160
    016306  aa   162145 143145    7390  	oct	162145143145
    016307  aa   144151 156147    7391  	oct	144151156147
    016310  aa   040151 164145    7392  	oct	040151164145
    016311  aa   155040 124150    7393  	oct	155040124150
    016312  aa   145040 141154    7394  	oct	145040141154
    016313  aa   154157 143141    7395  	oct	154157143141
    016314  aa   164151 157156    7396  	oct	164151157156
    016315  aa   040157 146040    7397  	oct	040157146040
    016316  aa   164150 151163    7398  	oct	164150151163
    016317  aa   040151 164145    7399  	oct	040151164145
    016320  aa   155040 151163    7400  	oct	155040151163
    016321  aa   040156 157156    7401  	oct	040156157156
    016322  aa   055143 157156    7402  	oct	055143157156
    016323  aa   164151 147165    7403  	oct	164151147165
    016324  aa   157165 163040    7404  	oct	157165163040
    016325  aa   144165 145040    7405  	oct	144165145040
    016326  aa   164157 040163    7406  	oct	164157040163
    016327  aa   160145 143151    7407  	oct	160145143151
    016330  aa   146151 143141    7408  	oct	146151143141
    016331  aa   164151 157156    7409  	oct	164151157156
    016332  aa   040157 146040    7410  	oct	040157146040
    016333  aa   164150 145040    7411  	oct	164150145040
    016334  aa   123131 116103    7412  	oct	123131116103
    016335  aa   110122 117116    7413  	oct	110122117116
    016336  aa   111132 105040    7414  	oct	111132105040
    016337  aa   143154 141165    7415  	oct	143154141165
    016340  aa   163145 040124    7416  	oct	163145040124
    016341  aa   150145 040143    7417  	oct	150145040143
    016342  aa   154141 165163    7418  	oct	154141165163
    016343  aa   145040 101120    7419  	oct	145040101120
    016344  aa   120114 131040    7420  	oct	120114131040
    016345  aa   146151 154145    7421  	oct	146151154145
    016346  aa   055156 141155    7422  	oct	055156141155
    016347  aa   145040 111123    7423  	oct	145040111123
    016350  aa   040124 105115    7424  	oct	040124105115
    016351  aa   120117 122101    7425  	oct	120117122101
    016352  aa   122131 040155    7426  	oct	122131040155
    016353  aa   141171 040156    7427  	oct	141171040156
    016354  aa   157164 040142    7428  	oct	157164040142
    016355  aa   145040 165163    7429  	oct	145040165163
    016356  aa   145144 040146    7430  	oct	145144040146
    016357  aa   157162 040145    7431  	oct	157162040145
    016360  aa   170164 145162    7432  	oct	170164145162
    016361  aa   156141 154040    7433  	oct	156141154040
    016362  aa   146151 154145    7434  	oct	146151154145
    016363  aa   163054 040151    7435  	oct	163054040151
    016364  aa   164040 151163    7436  	oct	164040151163
    016365  aa   040151 147156    7437  	oct	040151147156
    016366  aa   157162 145144    7438  	oct	157162145144
    016367  aa   040101 040163    7439  	oct	040101040163
    016370  aa   145143 164151    7440  	oct	145143164151
    016371  aa   157156 040157    7441  	oct	157156040157
    016372  aa   146040 164150    7442  	oct	146040164150
    016373  aa   145040 104141    7443  	oct	145040104141
    016374  aa   164141 040104    7444  	oct	164141040104
    016375  aa   151166 151163    7445  	oct	151166151163
    016376  aa   151157 156040    7446  	oct	151157156040
    016377  aa   151163 040145    7447  	oct	151163040145
    016400  aa   170160 145143    7448  	oct	170160145143
    016401  aa   164145 144040    7449  	oct	164145144040
    016402  aa   150145 162145    7450  	oct	150145162145
    016403  aa   040122 145163    7451  	oct	040122145163
    016404  aa   145162 166145    7452  	oct	145162166145
    016405  aa   144040 167157    7453  	oct	144040167157
    016406  aa   162144 040123    7454  	oct	162144040123
    016407  aa   105103 124111    7455  	oct	105103124111
    016410  aa   117116 040151    7456  	oct	117116040151
    016411  aa   163040 155151    7457  	oct	163040155151
    016412  aa   163163 151156    7458  	oct	163163151156
    016413  aa   147040 120145    7459  	oct	147040120145
    016414  aa   162151 157144    7460  	oct	162151157144
    016415  aa   040151 163040    7461  	oct	040151163040
    016416  aa   155151 163163    7462  	oct	155151163163
    016417  aa   151156 147040    7463  	oct	151156147040
    016420  aa   122145 144165    7464  	oct	122145144165
    016421  aa   156144 141156    7465  	oct	156144141156
    016422  aa   164040 106151    7466  	oct	164040106151
    016423  aa   154145 040123    7467  	oct	154145040123
    016424  aa   145143 164151    7468  	oct	145143164151
    016425  aa   157156 040163    7469  	oct	157156040163
    016426  aa   160145 143151    7470  	oct	160145143151
    016427  aa   146151 145144    7471  	oct	146151145144
    016430  aa   040055 040157    7472  	oct	040055040157
    016431  aa   156154 171040    7473  	oct	156154171040
    016432  aa   157156 145040    7474  	oct	157156145040
    016433  aa   141154 154157    7475  	oct	141154154157
    016434  aa   167145 144040    7476  	oct	167145144040
    016435  aa   160145 162040    7477  	oct	160145162040
    016436  aa   160162 157147    7478  	oct	160162157147
    016437  aa   162141 155040    7479  	oct	162141155040
    016440  aa   123145 143164    7480  	oct	123145143164
    016441  aa   151157 156040    7481  	oct	151157156040
    016442  aa   157165 164040    7482  	oct	157165164040
    016443  aa   157146 040157    7483  	oct	157146040157
    016444  aa   162144 145162    7484  	oct	162144145162
    016445  aa   040101 040106    7485  	oct	040101040106
    016446  aa   151154 145040    7486  	oct	151154145040
    016447  aa   123145 143164    7487  	oct	123145143164
    016450  aa   151157 156040    7488  	oct	151157156040
    016451  aa   154145 166145    7489  	oct	154145166145
    016452  aa   154040 151156    7490  	oct	154040151156
    016453  aa   144151 143141    7491  	oct	144151143141
    016454  aa   164157 162040    7492  	oct	164157162040
    016455  aa   151163 040145    7493  	oct	151163040145
    016456  aa   170160 145143    7494  	oct	170160145143
    016457  aa   164145 144040    7495  	oct	164145144040
    016460  aa   150145 162145    7496  	oct	150145162145
    016461  aa   040055 040145    7497  	oct	040055040145
    016462  aa   151164 150145    7498  	oct	151164150145
    016463  aa   162040 106104    7499  	oct	162040106104
    016464  aa   054040 123104    7500  	oct	054040123104
    016465  aa   054040 157162    7501  	oct	054040157162
    016466  aa   040123 101040    7502  	oct	040123101040
    016467  aa   124150 145040    7503  	oct	124150145040
    016470  aa   162145 143157    7504  	oct	162145143157
    016471  aa   162144 040156    7505  	oct	162144040156
    016472  aa   141155 145040    7506  	oct	141155145040
    016473  aa   157146 040164    7507  	oct	157146040164
    016474  aa   150151 163040    7508  	oct	150151163040
    016475  aa   146151 154145    7509  	oct	146151154145
    016476  aa   040151 163040    7510  	oct	040151163040
    016477  aa   151156 040145    7511  	oct	151156040145
    016500  aa   162162 157162    7512  	oct	162162157162
    016501  aa   040101 040146    7513  	oct	040101040146
    016502  aa   141164 141154    7514  	oct	141164141154
    016503  aa   040163 171156    7515  	oct	040163171156
    016504  aa   164141 170040    7516  	oct	164141170040
    016505  aa   145162 162157    7517  	oct	145162162157
    016506  aa   162040 145170    7518  	oct	162040145170
    016507  aa   151163 164163    7519  	oct	151163164163
    016510  aa   040151 156040    7520  	oct	040151156040
    016511  aa   164150 145040    7521  	oct	164150145040
    016512  aa   163160 145143    7522  	oct	163160145143
    016513  aa   151146 151143    7523  	oct	151146151143
    016514  aa   141164 151157    7524  	oct	141164151157
    016515  aa   156040 157146    7525  	oct	156040157146
    016516  aa   040164 150151    7526  	oct	040164150151
    016517  aa   163040 162145    7527  	oct	163040162145
    016520  aa   143157 162144    7528  	oct	143157162144
    016521  aa   073040 163171    7529  	oct	073040163171
    016522  aa   156164 141170    7530  	oct	156164141170
    016523  aa   040141 156141    7531  	oct	040141156141
    016524  aa   154171 163151    7532  	oct	154171163151
    016525  aa   163040 156157    7533  	oct	163040156157
    016526  aa   164040 143157    7534  	oct	164040143157
    016527  aa   155160 154145    7535  	oct	155160154145
    016530  aa   164145 144040    7536  	oct	164145144040
    016531  aa   124150 145040    7537  	oct	124150145040
    016532  aa   146157 154154    7538  	oct	146157154154
    016533  aa   157167 151156    7539  	oct	157167151156
    016534  aa   147040 144141    7540  	oct	147040144141
    016535  aa   164141 040160    7541  	oct	164141040160
    016536  aa   162157 160145    7542  	oct	162157160145
    016537  aa   162164 151145    7543  	oct	162164151145
    016540  aa   163040 151156    7544  	oct	163040151156
    016541  aa   040164 150151    7545  	oct	040164150151
    016542  aa   163040 144141    7546  	oct	163040144141
    016543  aa   164141 040151    7547  	oct	164141040151
    016544  aa   164145 155040    7548  	oct	164145155040
    016545  aa   141162 145040    7549  	oct	141162145040
    016546  aa   151156 143157    7550  	oct	151156143157
    016547  aa   156163 151163    7551  	oct	156163151163
    016550  aa   164145 156164    7552  	oct	164145156164
    016551  aa   040167 151164    7553  	oct	040167151164
    016552  aa   150040 136040    7554  	oct	150040136040
    016553  aa   124150 151163    7555  	oct	124150151163
    016554  aa   040146 151154    7556  	oct	040146151154
    016555  aa   145055 156141    7557  	oct	145055156141
    016556  aa   155145 040151    7558  	oct	155145040151
    016557  aa   163040 156157    7559  	oct	163040156157
    016560  aa   164040 144145    7560  	oct	164040144145
    016561  aa   146151 156145    7561  	oct	146151156145
    016562  aa   144040 151156    7562  	oct	144040151156
    016563  aa   040164 150145    7563  	oct	040164150145
    016564  aa   040105 156166    7564  	oct	040105156166
    016565  aa   151162 157156    7565  	oct	151162157156
    016566  aa   155145 156164    7566  	oct	155145156164
    016567  aa   040104 151166    7567  	oct	040104151166
    016570  aa   151163 151157    7568  	oct	151163151157
    016571  aa   156040 111156    7569  	oct	156040111156
    016572  aa   166141 154151    7570  	oct	166141154151
    016573  aa   144040 106104    7571  	oct	144040106104
    016574  aa   040143 154141    7572  	oct	040143154141
    016575  aa   165163 145163    7573  	oct	165163145163
    016576  aa   040141 162145    7574  	oct	040141162145
    016577  aa   040163 160145    7575  	oct	040163160145
    016600  aa   143151 146151    7576  	oct	143151146151
    016601  aa   145144 040114    7577  	oct	145144040114
    016602  aa   101102 105114    7578  	oct	101102105114
    016603  aa   040143 154141    7579  	oct	040143154141
    016604  aa   165163 145040    7580  	oct	165163145040
    016605  aa   151163 040155    7581  	oct	151163040155
    016606  aa   151163 163151    7582  	oct	151163163151
    016607  aa   156147 040151    7583  	oct	156147040151
    016610  aa   156040 143165    7584  	oct	156040143165
    016611  aa   162162 145156    7585  	oct	162162145156
    016612  aa   164040 106104    7586  	oct	164040106104
    016613  aa   040145 156164    7587  	oct	040145156164
    016614  aa   162171 040122    7588  	oct	162171040122
    016615  aa   145143 157162    7589  	oct	145143157162
    016616  aa   144040 144145    7590  	oct	144040144145
    016617  aa   163143 162151    7591  	oct	163143162151
    016620  aa   160164 151157    7592  	oct	160164151157
    016621  aa   156040 151163    7593  	oct	156040151163
    016622  aa   040155 151163    7594  	oct	040155151163
    016623  aa   163151 156147    7595  	oct	163151156147
    016624  aa   040106 151154    7596  	oct	040106151154
    016625  aa   145040 162145    7597  	oct	145040162145
    016626  aa   143157 162144    7598  	oct	143157162144
    016627  aa   151156 147040    7599  	oct	151156147040
    016630  aa   143157 144145    7600  	oct	143157144145
    016631  aa   040156 141155    7601  	oct	040156141155
    016632  aa   145040 151163    7602  	oct	145040151163
    016633  aa   040151 156040    7603  	oct	040151156040
    016634  aa   145162 162157    7604  	oct	145162162157
    016635  aa   162040 103110    7605  	oct	162040103110
    016636  aa   101122 101103    7606  	oct	101122101103
    016637  aa   124105 122123    7607  	oct	124105122123
    016640  aa   040157 160164    7608  	oct	040157160164
    016641  aa   151157 156040    7609  	oct	151157156040
    016642  aa   151163 040141    7610  	oct	151163040141
    016643  aa   163163 165155    7611  	oct	163163165155
    016644  aa   145144 040146    7612  	oct	145144040146
    016645  aa   157162 040164    7613  	oct	157162040164
    016646  aa   150145 040102    7614  	oct	150145040102
    016647  aa   114117 103113    7615  	oct	114117103113
    016650  aa   040143 154141    7616  	oct	040143154141
    016651  aa   165163 145040    7617  	oct	165163145040
    016652  aa   115141 170151    7618  	oct	115141170151
    016653  aa   155165 155040    7619  	oct	155165155040
    016654  aa   102114 117103    7620  	oct	102114117103
    016655  aa   113040 163151    7621  	oct	113040163151
    016656  aa   172145 040151    7622  	oct	172145040151
    016657  aa   156164 145147    7623  	oct	156164145147
    016660  aa   145162 040151    7624  	oct	145162040151
    016661  aa   163040 155151    7625  	oct	163040155151
    016662  aa   163163 151156    7626  	oct	163163151156
    016663  aa   147040 115141    7627  	oct	147040115141
    016664  aa   170151 155165    7628  	oct	170151155165
    016665  aa   155040 122105    7629  	oct	155040122105
    016666  aa   103117 122104    7630  	oct	103117122104
    016667  aa   040163 151172    7631  	oct	040163151172
    016670  aa   145040 151156    7632  	oct	145040151156
    016671  aa   164145 147145    7633  	oct	164145147145
    016672  aa   162040 151163    7634  	oct	162040151163
    016673  aa   040155 151163    7635  	oct	040155151163
    016674  aa   163151 156147    7636  	oct	163151156147
    016675  aa   040124 150145    7637  	oct	040124150145
    016676  aa   040122 105103    7638  	oct	040122105103
    016677  aa   117122 104111    7639  	oct	117122104111
    016700  aa   116107 040115    7640  	oct	116107040115
    016701  aa   117104 105040    7641  	oct	117104105040
    016702  aa   143154 141165    7642  	oct	143154141165
    016703  aa   163145 040151    7643  	oct	163145040151
    016704  aa   163040 156157    7644  	oct	163040156157
    016705  aa   164040 163165    7645  	oct	164040163165
    016706  aa   160160 157162    7646  	oct	160160157162
    016707  aa   164145 144040    7647  	oct	164145144040
    016710  aa   105122 122117    7648  	oct	105122122117
    016711  aa   122061 071054    7649  	oct	122061071054
    016712  aa   040143 157155    7650  	oct	040143157155
    016713  aa   160151 154145    7651  	oct	160151154145
    016714  aa   162040 142165    7652  	oct	162040142165
    016715  aa   147040 101040    7653  	oct	147040101040
    016716  aa   154145 147141    7654  	oct	154145147141
    016717  aa   154040 144141    7655  	oct	154040144141
    016720  aa   164141 055156    7656  	oct	164141055156
    016721  aa   141155 145040    7657  	oct	141155145040
    016722  aa   151163 040162    7658  	oct	151163040162
    016723  aa   145161 165151    7659  	oct	145161165151
    016724  aa   162145 144040    7660  	oct	162145144040
    016725  aa   150145 162145    7661  	oct	150145162145
    016726  aa   040114 151164    7662  	oct	040114151164
    016727  aa   145162 141154    7663  	oct	145162141154
    016730  aa   040157 162040    7664  	oct	040157162040
    016731  aa   144141 164141    7665  	oct	144141164141
    016732  aa   055156 141155    7666  	oct	055156141155
    016733  aa   145040 151163    7667  	oct	145040151163
    016734  aa   040155 151163    7668  	oct	040155151163
    016735  aa   163151 156147    7669  	oct	163151156147
    016736  aa   040122 145144    7670  	oct	040122145144
    016737  aa   165156 144141    7671  	oct	165156144141
    016740  aa   156164 040124    7672  	oct	156164040124
    016741  aa   117120 040160    7673  	oct	117120040160
    016742  aa   150162 141163    7674  	oct	150162141163
    016743  aa   145040 163160    7675  	oct	145040163160
    016744  aa   145143 151146    7676  	oct	145143151146
    016745  aa   151145 144040    7677  	oct	151145144040
    016746  aa   146157 162040    7678  	oct	146157162040
    016747  aa   114111 116101    7679  	oct	114111116101
    016750  aa   107105 040143    7680  	oct	107105040143
    016751  aa   154141 165163    7681  	oct	154141165163
    016752  aa   145040 114111    7682  	oct	145040114111
    016753  aa   116101 107105    7683  	oct	116101107105
    016754  aa   040163 160145    7684  	oct	040163160145
    016755  aa   143151 146151    7685  	oct	143151146151
    016756  aa   143141 164151    7686  	oct	143141164151
    016757  aa   157156 040151    7687  	oct	157156040151
    016760  aa   163040 151156    7688  	oct	163040151156
    016761  aa   040145 162162    7689  	oct	040145162162
    016762  aa   157162 040101    7690  	oct	157162040101
    016763  aa   040146 141164    7691  	oct	040146141164
    016764  aa   141154 040163    7692  	oct	141154040163
    016765  aa   171156 164141    7693  	oct	171156164141
    016766  aa   170040 145162    7694  	oct	170040145162
    016767  aa   162157 162040    7695  	oct	162157162040
    016770  aa   145170 151163    7696  	oct	145170151163
    016771  aa   164163 040151    7697  	oct	164163040151
    016772  aa   156040 164150    7698  	oct	156040164150
    016773  aa   145040 163160    7699  	oct	145040163160
    016774  aa   145143 151146    7700  	oct	145143151146
    016775  aa   151143 141164    7701  	oct	151143141164
    016776  aa   151157 156040    7702  	oct	151157156040
    016777  aa   157146 040164    7703  	oct	157146040164
    017000  aa   150151 163040    7704  	oct	150151163040
    017001  aa   123104 040145    7705  	oct	123104040145
    017002  aa   156164 162171    7706  	oct	156164162171
    017003  aa   073040 163171    7707  	oct	073040163171
    017004  aa   156164 141170    7708  	oct	156164141170
    017005  aa   040141 156141    7709  	oct	040141156141
    017006  aa   154171 163151    7710  	oct	154171163151
    017007  aa   163040 156157    7711  	oct	163040156157
    017010  aa   164040 143157    7712  	oct	164040143157
    017011  aa   155160 154145    7713  	oct	155160154145
    017012  aa   164145 144040    7714  	oct	164145144040
    017013  aa   105170 160145    7715  	oct	105170160145
    017014  aa   143164 145144    7716  	oct	143164145144
    017015  aa   040151 156164    7717  	oct	040151156164
    017016  aa   145147 145162    7718  	oct	145147145162
    017017  aa   040151 163040    7719  	oct	040151163040
    017020  aa   155151 163163    7720  	oct	155151163163
    017021  aa   151156 147040    7721  	oct	151156147040
    017022  aa   101122 105101    7722  	oct	101122105101
    017023  aa   040143 154141    7723  	oct	040143154141
    017024  aa   165163 145040    7724  	oct	165163145040
    017025  aa   151163 040155    7725  	oct	151163040155
    017026  aa   151163 163151    7726  	oct	151163163151
    017027  aa   156147 040122    7727  	oct	156147040122
    017030  aa   145144 165156    7728  	oct	145144165156
    017031  aa   144141 156164    7729  	oct	144141156164
    017032  aa   040127 157162    7730  	oct	040127157162
    017033  aa   153151 156147    7731  	oct	153151156147
    017034  aa   055123 164157    7732  	oct	055123164157
    017035  aa   162141 147145    7733  	oct	162141147145
    017036  aa   040123 145143    7734  	oct	040123145143
    017037  aa   164151 157156    7735  	oct	164151157156
    017040  aa   040163 160145    7736  	oct	040163160145
    017041  aa   143151 146151    7737  	oct	143151146151
    017042  aa   145144 040055    7738  	oct	145144040055
    017043  aa   040157 156154    7739  	oct	040157156154
    017044  aa   171040 157156    7740  	oct	171040157156
    017045  aa   145040 141154    7741  	oct	145040141154
    017046  aa   154157 167145    7742  	oct	154157167145
    017047  aa   144040 160145    7743  	oct	144040160145
    017050  aa   162040 160162    7744  	oct	162040160162
    017051  aa   157147 162141    7745  	oct	157147162141
    017052  aa   155040 101040    7746  	oct	155040101040
    017053  aa   154145 166145    7747  	oct	154145166145
    017054  aa   154040 157162    7748  	oct	154040157162
    017055  aa   040163 145143    7749  	oct	040163145143
    017056  aa   164151 157156    7750  	oct	164151157156
    017057  aa   040151 156144    7751  	oct	040151156144
    017060  aa   151143 141164    7752  	oct	151143141164
    017061  aa   157162 040151    7753  	oct	157162040151
    017062  aa   163040 162145    7754  	oct	163040162145
    017063  aa   161165 151162    7755  	oct	161165151162
    017064  aa   145144 040150    7756  	oct	145144040150
    017065  aa   145162 145040    7757  	oct	145162145040
    017066  aa   124150 145040    7758  	oct	124150145040
    017067  aa   122105 104105    7759  	oct	122105104105
    017070  aa   106111 116105    7760  	oct	106111116105
    017071  aa   123040 143154    7761  	oct	123040143154
    017072  aa   141165 163145    7762  	oct	141165163145
    017073  aa   040167 150145    7763  	oct	040167150145
    017074  aa   156040 165163    7764  	oct	156040165163
    017075  aa   145144 040155    7765  	oct	145144040155
    017076  aa   165163 164040    7766  	oct	165163164040
    017077  aa   151155 155145    7767  	oct	151155155145
    017100  aa   144151 141164    7768  	oct	144151141164
    017101  aa   145154 171040    7769  	oct	145154171040
    017102  aa   146157 154154    7770  	oct	146157154154
    017103  aa   157167 040164    7771  	oct	157167040164
    017104  aa   150145 040163    7772  	oct	150145040163
    017105  aa   165142 152145    7773  	oct	165142152145
    017106  aa   143164 040157    7774  	oct	143164040157
    017107  aa   146040 162145    7775  	oct	146040162145
    017110  aa   144145 146151    7776  	oct	144145146151
    017111  aa   156151 164151    7777  	oct	156151164151
    017112  aa   157156 040101    7778  	oct	157156040101
    017113  aa   040143 154141    7779  	oct	040143154141
    017114  aa   165163 145040    7780  	oct	165163145040
    017115  aa   157146 040164    7781  	oct	157146040164
    017116  aa   150145 040104    7782  	oct	150145040104
    017117  aa   141164 141040    7783  	oct	141164141040
    017120  aa   104151 166151    7784  	oct	104151166151
    017121  aa   163151 157156    7785  	oct	163151157156
    017122  aa   040151 163040    7786  	oct	040151163040
    017123  aa   151156 040145    7787  	oct	151156040145
    017124  aa   162162 157162    7788  	oct	162162157162
    017125  aa   040124 150145    7789  	oct	040124150145
    017126  aa   040117 103103    7790  	oct	040117103103
    017127  aa   125122 123040    7791  	oct	125122123040
    017130  aa   104105 120105    7792  	oct	104105120105
    017131  aa   116104 111116    7793  	oct	116104111116
    017132  aa   107040 117116    7794  	oct	107040117116
    017133  aa   040151 164145    7795  	oct	040151164145
    017134  aa   155040 155165    7796  	oct	155040155165
    017135  aa   163164 040142    7797  	oct	163164040142
    017136  aa   145040 146157    7798  	oct	145040146157
    017137  aa   154154 157167    7799  	oct	154154157167
    017140  aa   145144 040142    7800  	oct	145144040142
    017141  aa   171040 157156    7801  	oct	171040157156
    017142  aa   154171 040163    7802  	oct	154171040163
    017143  aa   165142 157162    7803  	oct	165142157162
    017144  aa   144151 156141    7804  	oct	144151156141
    017145  aa   164145 040151    7805  	oct	164145040151
    017146  aa   164145 155163    7806  	oct	164145155163
    017147  aa   040101 040155    7807  	oct	040101040155
    017150  aa   151163 155141    7808  	oct	151163155141
    017151  aa   164143 150040    7809  	oct	164143150040
    017152  aa   145170 151163    7810  	oct	145170151163
    017153  aa   164163 040142    7811  	oct	164163040142
    017154  aa   145164 167145    7812  	oct	145164167145
    017155  aa   145156 040164    7813  	oct	145156040164
    017156  aa   150145 040154    7814  	oct	150145040154
    017157  aa   145166 145154    7815  	oct	145166145154
    017160  aa   040156 165155    7816  	oct	040156165155
    017161  aa   142145 162163    7817  	oct	142145162163
    017162  aa   040157 146040    7818  	oct	040157146040
    017163  aa   164150 145040    7819  	oct	164150145040
    017164  aa   163165 142152    7820  	oct	163165142152
    017165  aa   145143 164040    7821  	oct	145143164040
    017166  aa   141156 144040    7822  	oct	141156144040
    017167  aa   157142 152145    7823  	oct	157142152145
    017170  aa   143164 040157    7824  	oct	143164040157
    017171  aa   146040 162145    7825  	oct	146040162145
    017172  aa   144145 146151    7826  	oct	144145146151
    017173  aa   156151 164151    7827  	oct	156151164151
    017174  aa   157156 040126    7828  	oct	157156040126
    017175  aa   101114 125105    7829  	oct	101114125105
    017176  aa   040157 146040    7830  	oct	040157146040
    017177  aa   164150 151163    7831  	oct	164150151163
    017200  aa   040143 157156    7832  	oct	040143157156
    017201  aa   144151 164151    7833  	oct	144151164151
    017202  aa   157156 055156    7834  	oct	157156055156
    017203  aa   141155 145040    7835  	oct	141155145040
    017204  aa   151163 040151    7836  	oct	151163040151
    017205  aa   156143 157156    7837  	oct	156143157156
    017206  aa   163151 163164    7838  	oct	163151163164
    017207  aa   145156 164040    7839  	oct	145156164040
    017210  aa   167151 164150    7840  	oct	167151164150
    017211  aa   040164 150145    7841  	oct	040164150145
    017212  aa   040163 160145    7842  	oct	040163160145
    017213  aa   143151 146151    7843  	oct	143151146151
    017214  aa   145144 040120    7844  	oct	145144040120
    017215  aa   111103 124125    7845  	oct	111103124125
    017216  aa   122105 040124    7846  	oct	122105040124
    017217  aa   150145 040066    7847  	oct	150145040066
    017220  aa   066040 122105    7848  	oct	066040122105
    017221  aa   116101 115105    7849  	oct	116101115105
    017222  aa   123040 151164    7850  	oct	123040151164
    017223  aa   145155 040155    7851  	oct	145155040155
    017224  aa   165163 164040    7852  	oct	165163164040
    017225  aa   156157 164040    7853  	oct	156157164040
    017226  aa   146157 154154    7854  	oct	146157154154
    017227  aa   157167 040141    7855  	oct	157167040141
    017230  aa   040067 067040    7856  	oct	040067067040
    017231  aa   154145 166145    7857  	oct	154145166145
    017232  aa   154040 151164    7858  	oct	154040151164
    017233  aa   145155 040101    7859  	oct	145155040101
    017234  aa   040160 145162    7860  	oct	040160145162
    017235  aa   151157 144040    7861  	oct	151157144040
    017236  aa   167141 163040    7862  	oct	167141163040
    017237  aa   145170 160145    7863  	oct	145170160145
    017240  aa   143164 145144    7864  	oct	143164145144
    017241  aa   040101 040143    7865  	oct	040101040143
    017242  aa   157156 144151    7866  	oct	157156144151
    017243  aa   164151 157156    7867  	oct	164151157156
    017244  aa   055156 141155    7868  	oct	055156141155
    017245  aa   145040 155165    7869  	oct	145040155165
    017246  aa   163164 040151    7870  	oct	163164040151
    017247  aa   155155 145144    7871  	oct	155155145144
    017250  aa   151141 164154    7872  	oct	151141164154
    017251  aa   171040 146157    7873  	oct	171040146157
    017252  aa   154154 157167    7874  	oct	154154157167
    017253  aa   040164 150145    7875  	oct	040164150145
    017254  aa   040070 070040    7876  	oct	040070070040
    017255  aa   154145 166145    7877  	oct	154145166145
    017256  aa   154055 156165    7878  	oct	154055156165
    017257  aa   155142 145162    7879  	oct	155142145162
    017260  aa   040124 150145    7880  	oct	040124150145
    017261  aa   040166 141154    7881  	oct	040166141154
    017262  aa   165145 040163    7882  	oct	165145040163
    017263  aa   160145 143151    7883  	oct	160145143151
    017264  aa   146151 145144    7884  	oct	146151145144
    017265  aa   040146 157162    7885  	oct	040146157162
    017266  aa   040164 150145    7886  	oct	040164150145
    017267  aa   040143 157156    7887  	oct	040143157156
    017270  aa   144151 164151    7888  	oct	144151164151
    017271  aa   157156 055156    7889  	oct	157156055156
    017272  aa   141155 145040    7890  	oct	141155145040
    017273  aa   151163 040151    7891  	oct	151163040151
    017274  aa   156040 145162    7892  	oct	156040145162
    017275  aa   162157 162040    7893  	oct	162157162040
    017276  aa   124150 145040    7894  	oct	124150145040
    017277  aa   154145 166145    7895  	oct	154145166145
    017300  aa   154055 156165    7896  	oct	154055156165
    017301  aa   155142 145162    7897  	oct	155142145162
    017302  aa   040146 157162    7898  	oct	040146157162
    017303  aa   040164 150151    7899  	oct	040164150151
    017304  aa   163040 144141    7900  	oct	163040144141
    017305  aa   164141 040151    7901  	oct	164141040151
    017306  aa   164145 155040    7902  	oct	164145155040
    017307  aa   151163 040151    7903  	oct	151163040151
    017310  aa   156166 141154    7904  	oct	156166141154
    017311  aa   151144 054040    7905  	oct	151144054040
    017312  aa   151164 040163    7906  	oct	151164040163
    017313  aa   150157 165154    7907  	oct	150157165154
    017314  aa   144040 142145    7908  	oct	144040142145
    017315  aa   040067 067054    7909  	oct	040067067054
    017316  aa   040157 162040    7910  	oct	040157162040
    017317  aa   060061 055064    7911  	oct	060061055064
    017320  aa   071040 101040    7912  	oct	071040101040
    017321  aa   143157 156144    7913  	oct	143157156144
    017322  aa   151164 151157    7914  	oct	151164151157
    017323  aa   156055 156141    7915  	oct	156055156141
    017324  aa   155145 040155    7916  	oct	155145040155
    017325  aa   165163 164040    7917  	oct	165163164040
    017326  aa   156157 164040    7918  	oct	156157164040
    017327  aa   142145 040141    7919  	oct	142145040141
    017330  aa   163163 157143    7920  	oct	163163157143
    017331  aa   151141 164145    7921  	oct	151141164145
    017332  aa   144040 167151    7922  	oct	144040167151
    017333  aa   164150 040141    7923  	oct	164150040141
    017334  aa   040066 066040    7924  	oct	040066066040
    017335  aa   154145 166145    7925  	oct	154145166145
    017336  aa   154040 151164    7926  	oct	154040151164
    017337  aa   145155 040101    7927  	oct	145155040101
    017340  aa   040143 157156    7928  	oct	040143157156
    017341  aa   144151 164151    7929  	oct	144151164151
    017342  aa   157156 055156    7930  	oct	157156055156
    017343  aa   141155 145040    7931  	oct	141155145040
    017344  aa   155165 163164    7932  	oct	155165163164
    017345  aa   040156 157164    7933  	oct	040156157164
    017346  aa   040142 145040    7934  	oct	040142145040
    017347  aa   141163 163157    7935  	oct	141163163157
    017350  aa   143151 141164    7936  	oct	143151141164
    017351  aa   145144 040167    7937  	oct	145144040167
    017352  aa   151164 150040    7938  	oct	151164150040
    017353  aa   141156 040151    7939  	oct	141156040151
    017354  aa   156144 145170    7940  	oct	156144145170
    017355  aa   040144 141164    7941  	oct	040144141164
    017356  aa   141040 151164    7942  	oct	141040151164
    017357  aa   145155 040124    7943  	oct	145155040124
    017360  aa   150145 040154    7944  	oct	150145040154
    017361  aa   151164 145162    7945  	oct	151164145162
    017362  aa   141154 040166    7946  	oct	141154040166
    017363  aa   141154 165145    7947  	oct	141154165145
    017364  aa   040141 146164    7948  	oct	040141146164
    017365  aa   145162 040164    7949  	oct	145162040164
    017366  aa   150145 040124    7950  	oct	150145040124
    017367  aa   110122 125040    7951  	oct	110122125040
    017370  aa   155165 163164    7952  	oct	155165163164
    017371  aa   040142 145040    7953  	oct	040142145040
    017372  aa   147162 145141    7954  	oct	147162145141
    017373  aa   164145 162040    7955  	oct	164145162040
    017374  aa   164150 141156    7956  	oct	164150141156
    017375  aa   040164 150145    7957  	oct	040164150145
    017376  aa   040154 151164    7958  	oct	040154151164
    017377  aa   145162 141154    7959  	oct	145162141154
    017400  aa   040166 141154    7960  	oct	040166141154
    017401  aa   165145 040142    7961  	oct	165145040142
    017402  aa   145146 157162    7962  	oct	145146157162
    017403  aa   145040 124110    7963  	oct	145040124110
    017404  aa   122125 040124    7964  	oct	122125040124
    017405  aa   150145 040157    7965  	oct	150145040157
    017406  aa   142152 145143    7966  	oct	142152145143
    017407  aa   164040 157146    7967  	oct	164040157146
    017410  aa   040162 145144    7968  	oct	040162145144
    017411  aa   145146 151156    7969  	oct	145146151156
    017412  aa   151164 151157    7970  	oct	151164151157
    017413  aa   156040 151163    7971  	oct	156040151163
    017414  aa   040156 157164    7972  	oct	040156157164
    017415  aa   040163 160145    7973  	oct	040163160145
    017416  aa   143151 146151    7974  	oct	143151146151
    017417  aa   145144 040122    7975  	oct	145144040122
    017420  aa   145144 165156    7976  	oct	145144165156
    017421  aa   144141 156164    7977  	oct	144141156164
    017422  aa   040122 105104    7978  	oct	040122105104
    017423  aa   105106 111116    7979  	oct	105106111116
    017424  aa   105123 040143    7980  	oct	105123040143
    017425  aa   154141 165163    7981  	oct	154141165163
    017426  aa   145040 163160    7982  	oct	145040163160
    017427  aa   145143 151146    7983  	oct	145143151146
    017430  aa   151145 144040    7984  	oct	151145144040
    017431  aa   055040 157156    7985  	oct	055040157156
    017432  aa   154171 040157    7986  	oct	154171040157
    017433  aa   156145 040141    7987  	oct	156145040141
    017434  aa   154154 157167    7988  	oct	154154157167
    017435  aa   145144 040160    7989  	oct	145144040160
    017436  aa   145162 040144    7990  	oct	145162040144
    017437  aa   141164 141040    7991  	oct	141164141040
    017440  aa   151164 145155    7992  	oct	151164145155
    017441  aa   040122 145144    7993  	oct	040122145144
    017442  aa   165156 144141    7994  	oct	165156144141
    017443  aa   156164 040120    7995  	oct	156164040120
    017444  aa   111103 124125    7996  	oct	111103124125
    017445  aa   122105 040143    7997  	oct	122105040143
    017446  aa   154141 165163    7998  	oct	154141165163
    017447  aa   145040 163160    7999  	oct	145040163160
    017450  aa   145143 151146    8000  	oct	145143151146
    017451  aa   151145 144040    8001  	oct	151145144040
    017452  aa   055040 157156    8002  	oct	055040157156
    017453  aa   154171 040157    8003  	oct	154171040157
    017454  aa   156145 040141    8004  	oct	156145040141
    017455  aa   154154 157167    8005  	oct	154154157167
    017456  aa   145144 040160    8006  	oct	145144040160
    017457  aa   145162 040144    8007  	oct	145162040144
    017460  aa   141164 141040    8008  	oct	141164141040
    017461  aa   151164 145155    8009  	oct	151164145155
    017462  aa   040122 145144    8010  	oct	040122145144
    017463  aa   165156 144141    8011  	oct	165156144141
    017464  aa   156164 040125    8012  	oct	156164040125
    017465  aa   123101 107105    8013  	oct	123101107105
    017466  aa   040143 154141    8014  	oct	040143154141
    017467  aa   165163 145040    8015  	oct	165163145040
    017470  aa   163160 145143    8016  	oct	163160145143
    017471  aa   151146 151145    8017  	oct	151146151145
    017472  aa   144040 055040    8018  	oct	144040055040
    017473  aa   157156 154171    8019  	oct	157156154171
    017474  aa   040157 156145    8020  	oct	040157156145
    017475  aa   040141 154154    8021  	oct	040141154154
    017476  aa   157167 145144    8022  	oct	157167145144
    017477  aa   040160 145162    8023  	oct	040160145162
    017500  aa   040151 164145    8024  	oct	040151164145
    017501  aa   155040 122145    8025  	oct	155040122145
    017502  aa   144165 156144    8026  	oct	144165156144
    017503  aa   141156 164040    8027  	oct	141156164040
    017504  aa   126101 114125    8028  	oct	126101114125
    017505  aa   105040 143154    8029  	oct	105040143154
    017506  aa   141165 163145    8030  	oct	141165163145
    017507  aa   040163 160145    8031  	oct	040163160145
    017510  aa   143151 146151    8032  	oct	143151146151
    017511  aa   145144 040055    8033  	oct	145144040055
    017512  aa   040157 156154    8034  	oct	040157156154
    017513  aa   171040 157156    8035  	oct	171040157156
    017514  aa   145040 141154    8036  	oct	145040141154
    017515  aa   154157 167145    8037  	oct	154157167145
    017516  aa   144040 160145    8038  	oct	144040160145
    017517  aa   162040 151164    8039  	oct	162040151164
    017520  aa   145155 040101    8040  	oct	145155040101
    017521  aa   156040 117103    8041  	oct	156040117103
    017522  aa   103125 122123    8042  	oct	103125122123
    017523  aa   040143 154141    8043  	oct	040143154141
    017524  aa   165163 145040    8044  	oct	165163145040
    017525  aa   155165 163164    8045  	oct	155165163164
    017526  aa   040156 157164    8046  	oct	040156157164
    017527  aa   040142 145040    8047  	oct	040142145040
    017530  aa   163160 145143    8048  	oct	163160145143
    017531  aa   151146 151145    8049  	oct	151146151145
    017532  aa   144040 146157    8050  	oct	144040146157
    017533  aa   162040 141040    8051  	oct	162040141040
    017534  aa   154145 166145    8052  	oct	154145166145
    017535  aa   154040 060061    8053  	oct	154040060061
    017536  aa   040157 162040    8054  	oct	040157162040
    017537  aa   067067 040151    8055  	oct	067067040151
    017540  aa   164145 155054    8056  	oct	164145155054
    017541  aa   040156 157162    8057  	oct	040156157162
    017542  aa   040143 141156    8058  	oct	040143141156
    017543  aa   040151 164040    8059  	oct	040151164040
    017544  aa   142145 040163    8060  	oct	142145040163
    017545  aa   160145 143151    8061  	oct	160145143151
    017546  aa   146151 145144    8062  	oct	146151145144
    017547  aa   040162 145144    8063  	oct	040162145144
    017550  aa   165156 144141    8064  	oct	165156144141
    017551  aa   156164 154171    8065  	oct	156164154171
    017552  aa   040122 145144    8066  	oct	040122145144
    017553  aa   165156 144141    8067  	oct	165156144141
    017554  aa   156164 040112    8068  	oct	156164040112
    017555  aa   125123 124111    8069  	oct	125123124111
    017556  aa   106111 105104    8070  	oct	106111105104
    017557  aa   040143 154141    8071  	oct	040143154141
    017560  aa   165163 145040    8072  	oct	165163145040
    017561  aa   163160 145143    8073  	oct	163160145143
    017562  aa   151146 151145    8074  	oct	151146151145
    017563  aa   144040 055040    8075  	oct	144040055040
    017564  aa   157156 154171    8076  	oct	157156154171
    017565  aa   040157 156145    8077  	oct	040157156145
    017566  aa   040141 154154    8078  	oct	040141154154
    017567  aa   157167 145144    8079  	oct	157167145144
    017570  aa   040160 145162    8080  	oct	040160145162
    017571  aa   040151 164145    8081  	oct	040151164145
    017572  aa   155040 122145    8082  	oct	155040122145
    017573  aa   144165 156144    8083  	oct	144165156144
    017574  aa   141156 164040    8084  	oct	141156164040
    017575  aa   102114 101116    8085  	oct	102114101116
    017576  aa   113040 127110    8086  	oct	113040127110
    017577  aa   105116 040132    8087  	oct	105116040132
    017600  aa   105122 117040    8088  	oct	105122117040
    017601  aa   143154 141165    8089  	oct	143154141165
    017602  aa   163145 040163    8090  	oct	163145040163
    017603  aa   160145 143151    8091  	oct	160145143151
    017604  aa   146151 145144    8092  	oct	146151145144
    017605  aa   040055 040157    8093  	oct	040055040157
    017606  aa   156154 171040    8094  	oct	156154171040
    017607  aa   157156 145040    8095  	oct	157156145040
    017610  aa   141154 154157    8096  	oct	141154154157
    017611  aa   167145 144040    8097  	oct	167145144040
    017612  aa   160145 162040    8098  	oct	160145162040
    017613  aa   144141 164141    8099  	oct	144141164141
    017614  aa   040151 164145    8100  	oct	040151164145
    017615  aa   155040 122145    8101  	oct	155040122145
    017616  aa   144165 156144    8102  	oct	144165156144
    017617  aa   141156 164040    8103  	oct	141156164040
    017620  aa   123131 116103    8104  	oct	123131116103
    017621  aa   110122 117116    8105  	oct	110122117116
    017622  aa   111132 105040    8106  	oct	111132105040
    017623  aa   143154 141165    8107  	oct	143154141165
    017624  aa   163145 040163    8108  	oct	163145040163
    017625  aa   160145 143151    8109  	oct	160145143151
    017626  aa   146151 145144    8110  	oct	146151145144
    017627  aa   040055 040157    8111  	oct	040055040157
    017630  aa   156154 171040    8112  	oct	156154171040
    017631  aa   157156 145040    8113  	oct	157156145040
    017632  aa   141154 154157    8114  	oct	141154154157
    017633  aa   167145 144040    8115  	oct	167145144040
    017634  aa   160145 162040    8116  	oct	160145162040
    017635  aa   144141 164141    8117  	oct	144141164141
    017636  aa   040151 164145    8118  	oct	040151164145
    017637  aa   155040 122145    8119  	oct	155040122145
    017640  aa   144165 156144    8120  	oct	144165156144
    017641  aa   141156 164040    8121  	oct	141156164040
    017642  aa   123111 107116    8122  	oct	123111107116
    017643  aa   040143 154141    8123  	oct	040143154141
    017644  aa   165163 145040    8124  	oct	165163145040
    017645  aa   163160 145143    8125  	oct	163160145143
    017646  aa   151146 151145    8126  	oct	151146151145
    017647  aa   144040 055040    8127  	oct	144040055040
    017650  aa   157156 154171    8128  	oct	157156154171
    017651  aa   040157 156145    8129  	oct	040157156145
    017652  aa   040141 154154    8130  	oct	040141154154
    017653  aa   157167 145144    8131  	oct	157167145144
    017654  aa   040160 145162    8132  	oct	040160145162
    017655  aa   040144 141164    8133  	oct	040144141164
    017656  aa   141040 151164    8134  	oct	141040151164
    017657  aa   145155 040122    8135  	oct	145155040122
    017660  aa   145144 165156    8136  	oct	145144165156
    017661  aa   144141 156164    8137  	oct	144141156164
    017662  aa   040122 105116    8138  	oct	040122105116
    017663  aa   101115 105123    8139  	oct	101115105123
    017664  aa   040143 154141    8140  	oct	040143154141
    017665  aa   165163 145040    8141  	oct	165163145040
    017666  aa   163160 145143    8142  	oct	163160145143
    017667  aa   151146 151145    8143  	oct	151146151145
    017670  aa   144040 055040    8144  	oct	144040055040
    017671  aa   157156 154171    8145  	oct	157156154171
    017672  aa   040157 156145    8146  	oct	040157156145
    017673  aa   040141 154154    8147  	oct	040141154154
    017674  aa   157167 145144    8148  	oct	157167145144
    017675  aa   040160 145162    8149  	oct	040160145162
    017676  aa   040151 164145    8150  	oct	040151164145
    017677  aa   155040 123111    8151  	oct	155040123111
    017700  aa   107116 040111    8152  	oct	107116040111
    017701  aa   123040 114105    8153  	oct	123040114105
    017702  aa   101104 111116    8154  	oct	101104111116
    017703  aa   107040 157162    8155  	oct	107040157162
    017704  aa   040124 122101    8156  	oct	040124122101
    017705  aa   111114 111116    8157  	oct	111114111116
    017706  aa   107040 151163    8158  	oct	107040151163
    017707  aa   040156 157164    8159  	oct	040156157164
    017710  aa   040163 160145    8160  	oct	040163160145
    017711  aa   143151 146151    8161  	oct	143151146151
    017712  aa   145144 040124    8162  	oct	145144040124
    017713  aa   150145 040157    8163  	oct	150145040157
    017714  aa   142152 145143    8164  	oct	142152145143
    017715  aa   164040 157146    8165  	oct	164040157146
    017716  aa   040162 145144    8166  	oct	040162145144
    017717  aa   145146 151156    8167  	oct	145146151156
    017720  aa   151164 151157    8168  	oct	151164151157
    017721  aa   156040 155165    8169  	oct	156040155165
    017722  aa   163164 040156    8170  	oct	163164040156
    017723  aa   157164 040143    8171  	oct	157164040143
    017724  aa   157156 164141    8172  	oct	157156164141
    017725  aa   151156 040141    8173  	oct	151156040141
    017726  aa   156040 117103    8174  	oct	156040117103
    017727  aa   103125 122123    8175  	oct	103125122123
    017730  aa   040143 154141    8176  	oct	040143154141
    017731  aa   165163 145040    8177  	oct	165163145040
    017732  aa   124150 145040    8178  	oct	124150145040
    017733  aa   157142 152145    8179  	oct	157142152145
    017734  aa   143164 040157    8180  	oct	143164040157
    017735  aa   146040 162145    8181  	oct	146040162145
    017736  aa   144145 146151    8182  	oct	144145146151
    017737  aa   156151 164151    8183  	oct	156151164151
    017740  aa   157156 040155    8184  	oct	157156040155
    017741  aa   165163 164040    8185  	oct	165163164040
    017742  aa   156157 164040    8186  	oct	156157164040
    017743  aa   142145 040141    8187  	oct	142145040141
    017744  aa   040166 141162    8188  	oct	040166141162
    017745  aa   151141 142154    8189  	oct	151141142154
    017746  aa   145040 154145    8190  	oct	145040154145
    017747  aa   156147 164150    8191  	oct	156147164150
    017750  aa   040151 164145    8192  	oct	040151164145
    017751  aa   155040 124150    8193  	oct	155040124150
    017752  aa   145040 157142    8194  	oct	145040157142
    017753  aa   152145 143164    8195  	oct	152145143164
    017754  aa   040157 146040    8196  	oct	040157146040
    017755  aa   162145 144145    8197  	oct	162145144145
    017756  aa   146151 156151    8198  	oct	146151156151
    017757  aa   164151 157156    8199  	oct	164151157156
    017760  aa   040155 165163    8200  	oct	040155165163
    017761  aa   164040 156157    8201  	oct	164040156157
    017762  aa   164040 142145    8202  	oct	164040142145
    017763  aa   040141 040154    8203  	oct	040141040154
    017764  aa   145166 145154    8204  	oct	145166145154
    017765  aa   040060 061040    8205  	oct	040060061040
    017766  aa   151164 145155    8206  	oct	151164145155
    017767  aa   040124 150145    8207  	oct	040124150145
    017770  aa   040163 165142    8208  	oct	040163165142
    017771  aa   152145 143164    8209  	oct	152145143164
    017772  aa   040157 146040    8210  	oct	040157146040
    017773  aa   162145 144145    8211  	oct	162145144145
    017774  aa   146151 156151    8212  	oct	146151156151
    017775  aa   164151 157156    8213  	oct	164151157156
    017776  aa   040155 165163    8214  	oct	040155165163
    017777  aa   164040 156157    8215  	oct	164040156157
    020000  aa   164040 142145    8216  	oct	164040142145
    020001  aa   040141 040166    8217  	oct	040141040166
    020002  aa   141162 151141    8218  	oct	141162151141
    020003  aa   142154 145040    8219  	oct	142154145040
    020004  aa   154145 156147    8220  	oct	154145156147
    020005  aa   164150 040151    8221  	oct	164150040151
    020006  aa   164145 155040    8222  	oct	164145155040
    020007  aa   124150 145040    8223  	oct	124150145040
    020010  aa   163151 172145    8224  	oct	163151172145
    020011  aa   040157 146040    8225  	oct	040157146040
    020012  aa   164150 145040    8226  	oct	164150145040
    020013  aa   163165 142152    8227  	oct	163165142152
    020014  aa   145143 164040    8228  	oct	145143164040
    020015  aa   157146 040162    8229  	oct	157146040162
    020016  aa   145144 145146    8230  	oct	145144145146
    020017  aa   151156 151164    8231  	oct	151156151164
    020020  aa   151157 156040    8232  	oct	151157156040
    020021  aa   155165 163164    8233  	oct	155165163164
    020022  aa   040156 157164    8234  	oct	040156157164
    020023  aa   040142 145040    8235  	oct	040142145040
    020024  aa   147162 145141    8236  	oct	147162145141
    020025  aa   164145 162040    8237  	oct	164145162040
    020026  aa   164150 141156    8238  	oct	164150141156
    020027  aa   040164 150141    8239  	oct	040164150141
    020030  aa   164040 157146    8240  	oct	164040157146
    020031  aa   040164 150145    8241  	oct	040164150145
    020032  aa   040157 142152    8242  	oct	040157142152
    020033  aa   145143 164040    8243  	oct	145143164040
    020034  aa   157146 040162    8244  	oct	157146040162
    020035  aa   145144 145146    8245  	oct	145144145146
    020036  aa   151156 151164    8246  	oct	151156151164
    020037  aa   151157 156040    8247  	oct	151157156040
    020040  aa   124150 145040    8248  	oct	124150145040
    020041  aa   163165 142152    8249  	oct	163165142152
    020042  aa   145143 164040    8250  	oct	145143164040
    020043  aa   157146 040122    8251  	oct	157146040122
    020044  aa   105116 101115    8252  	oct	105116101115
    020045  aa   105123 040151    8253  	oct	105123040151
    020046  aa   163040 156157    8254  	oct	163040156157
    020047  aa   164040 163160    8255  	oct	164040163160
    020050  aa   145143 151146    8256  	oct	145143151146
    020051  aa   151145 144040    8257  	oct	151145144040
    020052  aa   124150 145040    8258  	oct	124150145040
    020053  aa   122105 116101    8259  	oct	122105116101
    020054  aa   115105 123040    8260  	oct	115105123040
    020055  aa   143154 141165    8261  	oct	143154141165
    020056  aa   163145 040151    8262  	oct	163145040151
    020057  aa   163040 155151    8263  	oct	163040155151
    020060  aa   163163 151156    8264  	oct	163163151156
    020061  aa   147040 146157    8265  	oct	147040146157
    020062  aa   162040 164150    8266  	oct	162040164150
    020063  aa   145040 066066    8267  	oct	145040066066
    020064  aa   040154 145166    8268  	oct	040154145166
    020065  aa   145154 040151    8269  	oct	145154040151
    020066  aa   164145 155040    8270  	oct	164145155040
    020067  aa   124150 145040    8271  	oct	124150145040
    020070  aa   157142 152145    8272  	oct	157142152145
    020071  aa   143164 040157    8273  	oct	143164040157
    020072  aa   146040 122105    8274  	oct	146040122105
    020073  aa   116101 115105    8275  	oct	116101115105
    020074  aa   123040 144141    8276  	oct	123040144141
    020075  aa   164141 055156    8277  	oct	164141055156
    020076  aa   141155 145040    8278  	oct	141155145040
    020077  aa   155165 163164    8279  	oct	155165163164
    020100  aa   040156 157164    8280  	oct	040156157164
    020101  aa   040142 145040    8281  	oct	040142145040
    020102  aa   146157 165156    8282  	oct	146157165156
    020103  aa   144040 151156    8283  	oct	144040151156
    020104  aa   040164 150145    8284  	oct	040164150145
    020105  aa   040160 162145    8285  	oct	040160162145
    020106  aa   166151 157165    8286  	oct	166151157165
    020107  aa   163040 162145    8287  	oct	163040162145
    020110  aa   143157 162144    8288  	oct	143157162144
    020111  aa   040101 040066    8289  	oct	040101040066
    020112  aa   066040 154145    8290  	oct	066040154145
    020113  aa   166145 154040    8291  	oct	166145154040
    020114  aa   145156 164162    8292  	oct	145156164162
    020115  aa   171040 155165    8293  	oct	171040155165
    020116  aa   163164 040156    8294  	oct	163164040156
    020117  aa   157164 040162    8295  	oct	157164040162
    020120  aa   145156 141155    8296  	oct	145156141155
    020121  aa   145040 141156    8297  	oct	145040141156
    020122  aa   157164 150145    8298  	oct	157164150145
    020123  aa   162040 066066    8299  	oct	162040066066
    020124  aa   054040 060061    8300  	oct	054040060061
    020125  aa   054040 070070    8301  	oct	054040070070
    020126  aa   054040 157162    8302  	oct	054040157162
    020127  aa   040067 067040    8303  	oct	040067067040
    020130  aa   154145 166145    8304  	oct	154145166145
    020131  aa   154040 144141    8305  	oct	154040144141
    020132  aa   164141 040151    8306  	oct	164141040151
    020133  aa   164145 155040    8307  	oct	164145155040
    020134  aa   124150 145040    8308  	oct	124150145040
    020135  aa   157142 152145    8309  	oct	157142152145
    020136  aa   143164 040157    8310  	oct	143164040157
    020137  aa   146040 122105    8311  	oct	146040122105
    020140  aa   116101 115105    8312  	oct	116101115105
    020141  aa   123040 155165    8313  	oct	123040155165
    020142  aa   163164 040156    8314  	oct	163164040156
    020143  aa   157164 040143    8315  	oct	157164040143
    020144  aa   157156 164141    8316  	oct	157156164141
    020145  aa   151156 040141    8317  	oct	151156040141
    020146  aa   156040 117103    8318  	oct	156040117103
    020147  aa   103125 122123    8319  	oct	103125122123
    020150  aa   040143 154141    8320  	oct	040143154141
    020151  aa   165163 145040    8321  	oct	165163145040
    020152  aa   156157 162040    8322  	oct	156157162040
    020153  aa   142145 040163    8323  	oct	142145040163
    020154  aa   165142 157162    8324  	oct	165142157162
    020155  aa   144151 156141    8325  	oct	144151156141
    020156  aa   164145 040164    8326  	oct	164145040164
    020157  aa   157040 141156    8327  	oct	157040141156
    020160  aa   040151 164145    8328  	oct	040151164145
    020161  aa   155040 143157    8329  	oct	155040143157
    020162  aa   156164 141151    8330  	oct	156164141151
    020163  aa   156151 156147    8331  	oct	156151156147
    020164  aa   040157 156145    8332  	oct	040157156145
    020165  aa   040122 145163    8333  	oct	040122145163
    020166  aa   145162 166145    8334  	oct	145162166145
    020167  aa   144040 167157    8335  	oct	144040167157
    020170  aa   162144 040124    8336  	oct	162144040124
    020171  aa   110122 125040    8337  	oct	110122125040
    020172  aa   151163 040155    8338  	oct	151163040155
    020173  aa   151163 163151    8339  	oct	151163163151
    020174  aa   156147 040124    8340  	oct	156147040124
    020175  aa   150145 040114    8341  	oct	150145040114
    020176  aa   101102 105114    8342  	oct	101102105114
    020177  aa   040143 154141    8343  	oct	040143154141
    020200  aa   165163 145040    8344  	oct	165163145040
    020201  aa   151163 040155    8345  	oct	151163040155
    020202  aa   151163 163151    8346  	oct	151163163151
    020203  aa   156147 040151    8347  	oct	156147040151
    020204  aa   156040 164150    8348  	oct	156040164150
    020205  aa   145040 143165    8349  	oct	145040143165
    020206  aa   162162 145156    8350  	oct	162162145156
    020207  aa   164040 106104    8351  	oct	164040106104
    020210  aa   040145 156164    8352  	oct	040145156164
    020211  aa   162171 040124    8353  	oct	162171040124
    020212  aa   150145 040104    8354  	oct	150145040104
    020213  aa   101124 101040    8355  	oct	101124101040
    020214  aa   122105 103117    8356  	oct	122105103117
    020215  aa   122104 123040    8357  	oct	122104123040
    020216  aa   143154 141165    8358  	oct	143154141165
    020217  aa   163145 040151    8359  	oct	163145040151
    020220  aa   163040 156157    8360  	oct	163040156157
    020221  aa   164040 141154    8361  	oct	164040141154
    020222  aa   154157 167145    8362  	oct	154157167145
    020223  aa   144040 151156    8363  	oct	144040151156
    020224  aa   040164 150145    8364  	oct	040164150145
    020225  aa   040144 145163    8365  	oct	040144145163
    020226  aa   143162 151160    8366  	oct	143162151160
    020227  aa   164151 157156    8367  	oct	164151157156
    020230  aa   040157 146040    8368  	oct	040157146040
    020231  aa   141040 162145    8369  	oct	141040162145
    020232  aa   160157 162164    8370  	oct	160157162164
    020233  aa   040146 151154    8371  	oct	040146151154
    020234  aa   145040 124150    8372  	oct	145040124150
    020235  aa   145040 122105    8373  	oct	145040122105
    020236  aa   120117 122124    8374  	oct	120117122124
    020237  aa   040141 156144    8375  	oct	040141156144
    020240  aa   040104 101124    8376  	oct	040104101124
    020241  aa   101040 122105    8377  	oct	101040122105
    020242  aa   103117 122104    8378  	oct	103117122104
    020243  aa   040143 154141    8379  	oct	040143154141
    020244  aa   165163 145163    8380  	oct	165163145163
    020245  aa   040141 162145    8381  	oct	040141162145
    020246  aa   040155 165164    8382  	oct	040155165164
    020247  aa   165141 154154    8383  	oct	165141154154
    020250  aa   171040 145170    8384  	oct	171040145170
    020251  aa   143154 165163    8385  	oct	143154165163
    020252  aa   151166 145040    8386  	oct	151166145040
    020253  aa   101156 040151    8387  	oct	101156040151
    020254  aa   156151 164151    8388  	oct	156151164151
    020255  aa   141154 040166    8389  	oct	141154040166
    020256  aa   141154 165145    8390  	oct	141154165145
    020257  aa   040155 165163    8391  	oct	040155165163
    020260  aa   164040 156157    8392  	oct	164040156157
    020261  aa   164040 142145    8393  	oct	164040142145
    020262  aa   040163 160145    8394  	oct	040163160145
    020263  aa   143151 146151    8395  	oct	143151146151
    020264  aa   145144 040150    8396  	oct	145144040150
    020265  aa   145162 145040    8397  	oct	145162145040
    020266  aa   141163 040164    8398  	oct	141163040164
    020267  aa   150145 040143    8399  	oct	150145040143
    020270  aa   157156 164141    8400  	oct	157156164141
    020271  aa   151156 151156    8401  	oct	151156151156
    020272  aa   147040 147162    8402  	oct	147040147162
    020273  aa   157165 160040    8403  	oct	157165160040
    020274  aa   141154 162145    8404  	oct	141154162145
    020275  aa   141144 171040    8405  	oct	141144171040
    020276  aa   150141 163040    8406  	oct	150141163040
    020277  aa   141040 126101    8407  	oct	141040126101
    020300  aa   114125 105040    8408  	oct	114125105040
    020301  aa   143154 141165    8409  	oct	143154141165
    020302  aa   163145 040124    8410  	oct	163145040124
    020303  aa   150145 040151    8411  	oct	150145040151
    020304  aa   156151 164151    8412  	oct	156151164151
    020305  aa   141154 040166    8413  	oct	141154040166
    020306  aa   141154 165145    8414  	oct	141154165145
    020307  aa   040151 163040    8415  	oct	040151163040
    020310  aa   151156 143157    8416  	oct	151156143157
    020311  aa   156163 151163    8417  	oct	156163151163
    020312  aa   164145 156164    8418  	oct	164145156164
    020313  aa   040167 151164    8419  	oct	040167151164
    020314  aa   150040 164150    8420  	oct	150040164150
    020315  aa   145040 120111    8421  	oct	145040120111
    020316  aa   103124 125122    8422  	oct	103124125122
    020317  aa   105040 157146    8423  	oct	105040157146
    020320  aa   040164 150145    8424  	oct	040164150145
    020321  aa   040144 141164    8425  	oct	040144141164
    020322  aa   141040 151164    8426  	oct	141040151164
    020323  aa   145155 040124    8427  	oct	145155040124
    020324  aa   150145 040125    8428  	oct	150145040125
    020325  aa   123101 107105    8429  	oct	123101107105
    020326  aa   040157 146040    8430  	oct	040157146040
    020327  aa   141040 163165    8431  	oct	141040163165
    020330  aa   142157 162144    8432  	oct	142157162144
    020331  aa   151156 141164    8433  	oct	151156141164
    020332  aa   145040 151164    8434  	oct	145040151164
    020333  aa   145155 040155    8435  	oct	145155040155
    020334  aa   165163 164040    8436  	oct	165163164040
    020335  aa   142145 040143    8437  	oct	142145040143
    020336  aa   157156 163151    8438  	oct	157156163151
    020337  aa   163164 145156    8439  	oct	163164145156
    020340  aa   164040 167151    8440  	oct	164040167151
    020341  aa   164150 040164    8441  	oct	164150040164
    020342  aa   150141 164040    8442  	oct	150141164040
    020343  aa   157146 040164    8443  	oct	157146040164
    020344  aa   150145 040147    8444  	oct	150145040147
    020345  aa   162157 165160    8445  	oct	162157165160
    020346  aa   040151 164145    8446  	oct	040151164145
    020347  aa   155040 127150    8447  	oct	155040127150
    020350  aa   145156 040164    8448  	oct	145156040164
    020351  aa   150145 040147    8449  	oct	150145040147
    020352  aa   162157 165160    8450  	oct	162157165160
    020353  aa   040144 141164    8451  	oct	040144141164
    020354  aa   141040 151164    8452  	oct	141040151164
    020355  aa   145155 040150    8453  	oct	145155040150
    020356  aa   141163 040151    8454  	oct	141163040151
    020357  aa   156151 164151    8455  	oct	156151164151
    020360  aa   141154 040126    8456  	oct	141154040126
    020361  aa   101114 125105    8457  	oct	101114125105
    020362  aa   054040 164150    8458  	oct	054040164150
    020363  aa   145040 163165    8459  	oct	145040163165
    020364  aa   142157 162144    8460  	oct	142157162144
    020365  aa   151156 141164    8461  	oct	151156141164
    020366  aa   145040 151164    8462  	oct	145040151164
    020367  aa   145155 040155    8463  	oct	145155040155
    020370  aa   165163 164040    8464  	oct	165163164040
    020371  aa   156157 164040    8465  	oct	156157164040
    020372  aa   150141 166145    8466  	oct	150141166145
    020373  aa   040125 123101    8467  	oct	040125123101
    020374  aa   107105 040157    8468  	oct	107105040157
    020375  aa   164150 145162    8469  	oct	164150145162
    020376  aa   040164 150141    8470  	oct	040164150141
    020377  aa   156040 104111    8471  	oct	156040104111
    020400  aa   123120 114101    8472  	oct	123120114101
    020401  aa   131040 112125    8473  	oct	131040112125
    020402  aa   123124 111106    8474  	oct	123124111106
    020403  aa   111105 104040    8475  	oct	111105104040
    020404  aa   122111 107110    8476  	oct	122111107110
    020405  aa   124040 151163    8477  	oct	124040151163
    020406  aa   040141 163163    8478  	oct	040141163163
    020407  aa   165155 145144    8479  	oct	165155145144
    020410  aa   040127 150145    8480  	oct	040127150145
    020411  aa   156040 164150    8481  	oct	156040164150
    020412  aa   145040 147162    8482  	oct	145040147162
    020413  aa   157165 160040    8483  	oct	157165160040
    020414  aa   144141 164141    8484  	oct	144141164141
    020415  aa   040151 164145    8485  	oct	040151164145
    020416  aa   155040 150141    8486  	oct	155040150141
    020417  aa   163040 151156    8487  	oct	163040151156
    020420  aa   151164 151141    8488  	oct	151164151141
    020421  aa   154040 126101    8489  	oct	154040126101
    020422  aa   114125 105054    8490  	oct	114125105054
    020423  aa   040164 150145    8491  	oct	040164150145
    020424  aa   040163 165142    8492  	oct	040163165142
    020425  aa   157162 144151    8493  	oct	157162144151
    020426  aa   156141 164145    8494  	oct	156141164145
    020427  aa   040151 164145    8495  	oct	040151164145
    020430  aa   155040 155165    8496  	oct	155040155165
    020431  aa   163164 040156    8497  	oct	163164040156
    020432  aa   157164 040143    8498  	oct	157164040143
    020433  aa   157156 164141    8499  	oct	157156164141
    020434  aa   151156 040112    8500  	oct	151156040112
    020435  aa   125123 124111    8501  	oct	125123124111
    020436  aa   106111 105104    8502  	oct	106111105104
    020437  aa   040143 154141    8503  	oct	040143154141
    020440  aa   165163 145040    8504  	oct	165163145040
    020441  aa   123131 116103    8505  	oct	123131116103
    020442  aa   110122 117116    8506  	oct	110122117116
    020443  aa   111132 105104    8507  	oct	111132105104
    020444  aa   040122 111107    8508  	oct	040122111107
    020445  aa   110124 040151    8509  	oct	110124040151
    020446  aa   163040 141163    8510  	oct	163040141163
    020447  aa   163165 155145    8511  	oct	163165155145
    020450  aa   144040 127150    8512  	oct	144040127150
    020451  aa   145156 040164    8513  	oct	145156040164
    020452  aa   150145 040147    8514  	oct	150145040147
    020453  aa   162157 165160    8515  	oct	162157165160
    020454  aa   040144 141164    8516  	oct	040144141164
    020455  aa   141040 151164    8517  	oct	141040151164
    020456  aa   145155 040150    8518  	oct	145155040150
    020457  aa   141163 040151    8519  	oct	141163040151
    020460  aa   156151 164151    8520  	oct	156151164151
    020461  aa   141154 040126    8521  	oct	141154040126
    020462  aa   101114 125105    8522  	oct	101114125105
    020463  aa   054040 164150    8523  	oct	054040164150
    020464  aa   145040 163165    8524  	oct	145040163165
    020465  aa   142157 162144    8525  	oct	142157162144
    020466  aa   151156 141164    8526  	oct	151156141164
    020467  aa   145040 151164    8527  	oct	145040151164
    020470  aa   145155 040155    8528  	oct	145155040155
    020471  aa   165163 164040    8529  	oct	165163164040
    020472  aa   156157 164040    8530  	oct	156157164040
    020473  aa   143157 156164    8531  	oct	143157156164
    020474  aa   141151 156040    8532  	oct	141151156040
    020475  aa   123131 116103    8533  	oct	123131116103
    020476  aa   110122 117116    8534  	oct	110122117116
    020477  aa   111132 105104    8535  	oct	111132105104
    020500  aa   040143 154141    8536  	oct	040143154141
    020501  aa   165163 145040    8537  	oct	165163145040
    020502  aa   124150 145040    8538  	oct	124150145040
    020503  aa   151156 151164    8539  	oct	151156151164
    020504  aa   151141 154040    8540  	oct	151141154040
    020505  aa   126101 114125    8541  	oct	126101114125
    020506  aa   105040 163160    8542  	oct	105040163160
    020507  aa   145143 151146    8543  	oct	145143151146
    020510  aa   151145 144040    8544  	oct	151145144040
    020511  aa   151163 040165    8545  	oct	151163040165
    020512  aa   156162 145143    8546  	oct	156162145143
    020513  aa   157147 156151    8547  	oct	157147156151
    020514  aa   172141 142154    8548  	oct	172141142154
    020515  aa   145040 124150    8549  	oct	145040124150
    020516  aa   151163 040143    8550  	oct	151163040143
    020517  aa   154141 165163    8551  	oct	154141165163
    020520  aa   145040 151163    8552  	oct	145040151163
    020521  aa   040162 145144    8553  	oct	040162145144
    020522  aa   165156 144141    8554  	oct	165156144141
    020523  aa   156164 154171    8555  	oct	156164154171
    020524  aa   040163 160145    8556  	oct	040163160145
    020525  aa   143151 146151    8557  	oct	143151146151
    020526  aa   145144 040141    8558  	oct	145144040141
    020527  aa   163040 164150    8559  	oct	163040164150
    020530  aa   145040 143157    8560  	oct	145040143157
    020531  aa   156164 141151    8561  	oct	156164141151
    020532  aa   156151 156147    8562  	oct	156151156147
    020533  aa   040147 162157    8563  	oct	040147162157
    020534  aa   165160 040151    8564  	oct	165160040151
    020535  aa   164145 155040    8565  	oct	164145155040
    020536  aa   141154 162145    8566  	oct	141154162145
    020537  aa   141144 171040    8567  	oct	141144171040
    020540  aa   143157 156164    8568  	oct	143157156164
    020541  aa   141151 156163    8569  	oct	141151156163
    020542  aa   040141 040123    8570  	oct	040141040123
    020543  aa   111107 116040    8571  	oct	111107116040
    020544  aa   143154 141165    8572  	oct	143154141165
    020545  aa   163145 040122    8573  	oct	163145040122
    020546  aa   145163 145162    8574  	oct	145163145162
    020547  aa   166145 144040    8575  	oct	166145144040
    020550  aa   167157 162144    8576  	oct	167157162144
    020551  aa   040132 105122    8577  	oct	040132105122
    020552  aa   117040 151163    8578  	oct	117040151163
    020553  aa   040155 151163    8579  	oct	040155151163
    020554  aa   163151 156147    8580  	oct	163151156147
    020555  aa   040124 150151    8581  	oct	040124150151
    020556  aa   163040 112125    8582  	oct	163040112125
    020557  aa   123124 111106    8583  	oct	123124111106
    020560  aa   111105 104040    8584  	oct	111105104040
    020561  aa   143154 141165    8585  	oct	143154141165
    020562  aa   163145 040151    8586  	oct	163145040151
    020563  aa   163040 151156    8587  	oct	163040151156
    020564  aa   166141 154151    8588  	oct	166141154151
    020565  aa   144040 141163    8589  	oct	144040141163
    020566  aa   040164 150145    8590  	oct	040164150145
    020567  aa   040143 157156    8591  	oct	040143157156
    020570  aa   164141 151156    8592  	oct	164141151156
    020571  aa   151156 147040    8593  	oct	151156147040
    020572  aa   147162 157165    8594  	oct	147162157165
    020573  aa   160040 151164    8595  	oct	160040151164
    020574  aa   145155 040151    8596  	oct	145155040151
    020575  aa   163040 141163    8597  	oct	163040141163
    020576  aa   163157 143151    8598  	oct	163157143151
    020577  aa   141164 145144    8599  	oct	141164145144
    020600  aa   040167 151164    8600  	oct	040167151164
    020601  aa   150040 141040    8601  	oct	150040141040
    020602  aa   143157 156144    8602  	oct	143157156144
    020603  aa   151164 151157    8603  	oct	151164151157
    020604  aa   156055 156141    8604  	oct	156055156141
    020605  aa   155145 163040    8605  	oct	155145163040
    020606  aa   124150 151163    8606  	oct	124150151163
    020607  aa   040123 131116    8607  	oct	040123131116
    020610  aa   103110 122117    8608  	oct	103110122117
    020611  aa   116111 132105    8609  	oct	116111132105
    020612  aa   104040 143154    8610  	oct	104040143154
    020613  aa   141165 163145    8611  	oct	141165163145
    020614  aa   040151 163040    8612  	oct	040151163040
    020615  aa   151156 166141    8613  	oct	151156166141
    020616  aa   154151 144040    8614  	oct	154151144040
    020617  aa   141163 040164    8615  	oct	141163040164
    020620  aa   150145 040143    8616  	oct	150145040143
    020621  aa   157156 164141    8617  	oct	157156164141
    020622  aa   151156 151156    8618  	oct	151156151156
    020623  aa   147040 147162    8619  	oct	147040147162
    020624  aa   157165 160040    8620  	oct	157165160040
    020625  aa   151164 145155    8621  	oct	151164145155
    020626  aa   040151 163040    8622  	oct	040151163040
    020627  aa   141163 163157    8623  	oct	141163163157
    020630  aa   143151 141164    8624  	oct	143151141164
    020631  aa   145144 040167    8625  	oct	145144040167
    020632  aa   151164 150040    8626  	oct	151164150040
    020633  aa   141040 143157    8627  	oct	141040143157
    020634  aa   156144 151164    8628  	oct	156144151164
    020635  aa   151157 156055    8629  	oct	151157156055
    020636  aa   156141 155145    8630  	oct	156141155145
    020637  aa   040124 150151    8631  	oct	040124150151
    020640  aa   163040 125123    8632  	oct	163040125123
    020641  aa   101107 105040    8633  	oct	101107105040
    020642  aa   143154 141165    8634  	oct	143154141165
    020643  aa   163145 040151    8635  	oct	163145040151
    020644  aa   163040 151156    8636  	oct	163040151156
    020645  aa   166141 154151    8637  	oct	166141154151
    020646  aa   144040 141163    8638  	oct	144040141163
    020647  aa   040164 150145    8639  	oct	040164150145
    020650  aa   040143 157156    8640  	oct	040143157156
    020651  aa   164141 151156    8641  	oct	164141151156
    020652  aa   151156 147040    8642  	oct	151156147040
    020653  aa   147162 157165    8643  	oct	147162157165
    020654  aa   160040 151164    8644  	oct	160040151164
    020655  aa   145155 040151    8645  	oct	145155040151
    020656  aa   163040 141163    8646  	oct	163040141163
    020657  aa   163157 143151    8647  	oct	163157143151
    020660  aa   141164 145144    8648  	oct	141164145144
    020661  aa   040167 151164    8649  	oct	040167151164
    020662  aa   150040 141040    8650  	oct	150040141040
    020663  aa   143157 156144    8651  	oct	143157156144
    020664  aa   151164 151157    8652  	oct	151164151157
    020665  aa   156055 156141    8653  	oct	156055156141
    020666  aa   155145 040124    8654  	oct	155145040124
    020667  aa   150145 040144    8655  	oct	150145040144
    020670  aa   151155 145156    8656  	oct	151155145156
    020671  aa   163151 157156    8657  	oct	163151157156
    020672  aa   040157 146040    8658  	oct	040157146040
    020673  aa   117103 103125    8659  	oct	117103103125
    020674  aa   122123 040155    8660  	oct	122123040155
    020675  aa   165163 164040    8661  	oct	165163164040
    020676  aa   156157 164040    8662  	oct	156157164040
    020677  aa   145170 143145    8663  	oct	145170143145
    020700  aa   145144 040063    8664  	oct	145144040063
    020701  aa   040124 150145    8665  	oct	040124150145
    020702  aa   040157 143143    8666  	oct	040157143143
    020703  aa   165162 162145    8667  	oct	165162162145
    020704  aa   156143 145040    8668  	oct	156143145040
    020705  aa   164151 155145    8669  	oct	164151155145
    020706  aa   163040 151163    8670  	oct	163040151163
    020707  aa   040156 157164    8671  	oct	040156157164
    020710  aa   040163 160145    8672  	oct	040163160145
    020711  aa   143151 146151    8673  	oct	143151146151
    020712  aa   145144 040124    8674  	oct	145144040124
    020713  aa   150145 040157    8675  	oct	150145040157
    020714  aa   143143 165162    8676  	oct	143143165162
    020715  aa   162145 156143    8677  	oct	162145156143
    020716  aa   145040 164151    8678  	oct	145040164151
    020717  aa   155145 163040    8679  	oct	155145163040
    020720  aa   155165 163164    8680  	oct	155165163164
    020721  aa   040156 157164    8681  	oct	040156157164
    020722  aa   040142 145040    8682  	oct	040142145040
    020723  aa   060040 124150    8683  	oct	060040124150
    020724  aa   145040 155141    8684  	oct	145040155141
    020725  aa   170151 155165    8685  	oct	170151155165
    020726  aa   155040 157143    8686  	oct	155040157143
    020727  aa   143165 162162    8687  	oct	143165162162
    020730  aa   145156 143145    8688  	oct	145156143145
    020731  aa   163040 155165    8689  	oct	163040155165
    020732  aa   163164 040142    8690  	oct	163164040142
    020733  aa   145040 147162    8691  	oct	145040147162
    020734  aa   145141 164145    8692  	oct	145141164145
    020735  aa   162040 164150    8693  	oct	162040164150
    020736  aa   141156 040164    8694  	oct	141156040164
    020737  aa   150145 040155    8695  	oct	150145040155
    020740  aa   151156 151155    8696  	oct	151156151155
    020741  aa   165155 040157    8697  	oct	165155040157
    020742  aa   143143 165162    8698  	oct	143143165162
    020743  aa   162145 156143    8699  	oct	162145156143
    020744  aa   145163 040124    8700  	oct	145163040124
    020745  aa   150145 040122    8701  	oct	150145040122
    020746  aa   105120 117122    8702  	oct	105120117122
    020747  aa   124040 141156    8703  	oct	124040141156
    020750  aa   144040 114111    8704  	oct	144040114111
    020751  aa   116101 107105    8705  	oct	116101107105
    020752  aa   040143 154141    8706  	oct	040143154141
    020753  aa   165163 145163    8707  	oct	165163145163
    020754  aa   040141 162145    8708  	oct	040141162145
    020755  aa   040155 165164    8709  	oct	040155165164
    020756  aa   165141 154154    8710  	oct	165141154154
    020757  aa   171040 145170    8711  	oct	171040145170
    020760  aa   143154 165163    8712  	oct	143154165163
    020761  aa   151166 145040    8713  	oct	151166145040
    020762  aa   127150 145156    8714  	oct	127150145156
    020763  aa   040164 150145    8715  	oct	040164150145
    020764  aa   040147 162157    8716  	oct	040147162157
    020765  aa   165160 040151    8717  	oct	165160040151
    020766  aa   164145 155040    8718  	oct	164145155040
    020767  aa   143157 156164    8719  	oct	143157156164
    020770  aa   141151 156163    8720  	oct	141151156163
    020771  aa   040117 103103    8721  	oct	040117103103
    020772  aa   125122 123040    8722  	oct	125122123040
    020773  aa   143154 141165    8723  	oct	143154141165
    020774  aa   163145 054040    8724  	oct	163145054040
    020775  aa   164150 145040    8725  	oct	164150145040
    020776  aa   163165 142157    8726  	oct	163165142157
    020777  aa   162144 151156    8727  	oct	162144151156
    021000  aa   141164 145040    8728  	oct	141164145040
    021001  aa   151164 145155    8729  	oct	151164145155
    021002  aa   040155 165163    8730  	oct	040155165163
    021003  aa   164040 156157    8731  	oct	164040156157
    021004  aa   164040 142145    8732  	oct	164040142145
    021005  aa   040157 146040    8733  	oct	040157146040
    021006  aa   166141 162151    8734  	oct	166141162151
    021007  aa   141142 154145    8735  	oct	141142154145
    021010  aa   040154 145156    8736  	oct	040154145156
    021011  aa   147164 150040    8737  	oct	147164150040
    021012  aa   124150 145040    8738  	oct	124150145040
    021013  aa   151156 144145    8739  	oct	151156144145
    021014  aa   170055 156141    8740  	oct	170055156141
    021015  aa   155145 040151    8741  	oct	155145040151
    021016  aa   163040 155151    8742  	oct	163040155151
    021017  aa   163163 151156    8743  	oct	163163151156
    021020  aa   147040 115151    8744  	oct	147040115151
    021021  aa   170145 144040    8745  	oct	170145144040
    021022  aa   151156 144145    8746  	oct	151156144145
    021023  aa   170151 156147    8747  	oct	170151156147
    021024  aa   040151 163040    8748  	oct	040151163040
    021025  aa   156157 164040    8749  	oct	156157164040
    021026  aa   141154 154157    8750  	oct	141154154157
    021027  aa   167145 144040    8751  	oct	167145144040
    021030  aa   055040 167150    8752  	oct	055040167150
    021031  aa   145156 040141    8753  	oct	145156040141
    021032  aa   040164 141142    8754  	oct	040164141142
    021033  aa   154145 040151    8755  	oct	154145040151
    021034  aa   164145 155040    8756  	oct	164145155040
    021035  aa   150141 163040    8757  	oct	150141163040
    021036  aa   157156 145040    8758  	oct	157156145040
    021037  aa   154145 166145    8759  	oct	154145166145
    021040  aa   154040 151156    8760  	oct	154040151156
    021041  aa   144145 170145    8761  	oct	144145170145
    021042  aa   144054 040141    8762  	oct	144054040141
    021043  aa   154154 040154    8763  	oct	154154040154
    021044  aa   145166 145154    8764  	oct	145166145154
    021045  aa   163040 155165    8765  	oct	163040155165
    021046  aa   163164 040142    8766  	oct	163164040142
    021047  aa   145040 151156    8767  	oct	145040151156
    021050  aa   144145 170145    8768  	oct	144145170145
    021051  aa   144040 124150    8769  	oct	144040124150
    021052  aa   145040 123111    8770  	oct	145040123111
    021053  aa   107116 040164    8771  	oct	107116040164
    021054  aa   171160 145040    8772  	oct	171160145040
    021055  aa   157146 040141    8773  	oct	157146040141
    021056  aa   040163 165142    8774  	oct	040163165142
    021057  aa   157162 144151    8775  	oct	157162144151
    021060  aa   156141 164145    8776  	oct	156141164145
    021061  aa   040151 164145    8777  	oct	040151164145
    021062  aa   155040 155165    8778  	oct	155040155165
    021063  aa   163164 040142    8779  	oct	163164040142
    021064  aa   145040 143157    8780  	oct	145040143157
    021065  aa   156163 151163    8781  	oct	156163151163
    021066  aa   164145 156164    8782  	oct	164145156164
    021067  aa   040167 151164    8783  	oct	040167151164
    021070  aa   150040 164150    8784  	oct	150040164150
    021071  aa   141164 040157    8785  	oct	141164040157
    021072  aa   146040 164150    8786  	oct	146040164150
    021073  aa   145040 147162    8787  	oct	145040147162
    021074  aa   157165 160040    8788  	oct	157165160040
    021075  aa   151164 145155    8789  	oct	151164145155
    021076  aa   040122 145144    8790  	oct	040122145144
    021077  aa   165156 144141    8791  	oct	165156144141
    021100  aa   156164 040111    8792  	oct	156164040111
    021101  aa   116104 105130    8793  	oct	116104105130
    021102  aa   105104 040102    8794  	oct	105104040102
    021103  aa   131040 143154    8795  	oct	131040143154
    021104  aa   141165 163145    8796  	oct	141165163145
    021105  aa   040163 160145    8797  	oct	040163160145
    021106  aa   143151 146151    8798  	oct	143151146151
    021107  aa   145144 040055    8799  	oct	145144040055
    021110  aa   040157 156154    8800  	oct	040157156154
    021111  aa   171040 157156    8801  	oct	171040157156
    021112  aa   145040 141154    8802  	oct	145040141154
    021113  aa   154157 167145    8803  	oct	154157167145
    021114  aa   144040 160145    8804  	oct	144040160145
    021115  aa   162040 144141    8805  	oct	162040144141
    021116  aa   164141 040151    8806  	oct	164141040151
    021117  aa   164145 155040    8807  	oct	164145155040
    021120  aa   124150 145040    8808  	oct	124150145040
    021121  aa   157142 152145    8809  	oct	157142152145
    021122  aa   143164 040157    8810  	oct	143164040157
    021123  aa   146040 162145    8811  	oct	146040162145
    021124  aa   144145 146151    8812  	oct	144145146151
    021125  aa   156151 164151    8813  	oct	156151164151
    021126  aa   157156 040155    8814  	oct	157156040155
    021127  aa   165163 164040    8815  	oct	165163164040
    021130  aa   156157 164040    8816  	oct	156157164040
    021131  aa   142145 040161    8817  	oct	142145040161
    021132  aa   165141 154151    8818  	oct	165141154151
    021133  aa   146151 145144    8819  	oct	146151145144
    021134  aa   073040 161165    8820  	oct	073040161165
    021135  aa   141154 151146    8821  	oct	141154151146
    021136  aa   151143 141164    8822  	oct	151143141164
    021137  aa   151157 156040    8823  	oct	151157156040
    021140  aa   151147 156157    8824  	oct	151147156157
    021141  aa   162145 144040    8825  	oct	162145144040
    021142  aa   103157 155155    8826  	oct	103157155155
    021143  aa   165156 151143    8827  	oct	165156151143
    021144  aa   141164 151157    8828  	oct	141164151157
    021145  aa   156040 123145    8829  	oct	156040123145
    021146  aa   143164 151157    8830  	oct	143164151157
    021147  aa   156040 160162    8831  	oct	156040160162
    021150  aa   145143 145144    8832  	oct	145143145144
    021151  aa   145156 143145    8833  	oct	145156143145
    021152  aa   040145 162162    8834  	oct	040145162162
    021153  aa   157162 040111    8835  	oct	157162040111
    021154  aa   156144 145170    8836  	oct	156144145170
    021155  aa   055156 141155    8837  	oct	055156141155
    021156  aa   145040 164141    8838  	oct	145040164141
    021157  aa   142154 145040    8839  	oct	142154145040
    021160  aa   157166 145162    8840  	oct	157166145162
    021161  aa   146154 157167    8841  	oct	146154157167
    021162  aa   040167 150151    8842  	oct	040167150151
    021163  aa   154145 040160    8843  	oct	154145040160
    021164  aa   162157 143145    8844  	oct	162157143145
    021165  aa   163163 151156    8845  	oct	163163151156
    021166  aa   147040 103104    8846  	oct	147040103104
    021167  aa   040144 145163    8847  	oct	040144145163
    021170  aa   164151 156141    8848  	oct	164151156141
    021171  aa   164151 157156    8849  	oct	164151157156
    021172  aa   040164 141142    8850  	oct	040164141142
    021173  aa   154145 040124    8851  	oct	154145040124
    021174  aa   150145 040157    8852  	oct	150145040157
    021175  aa   142152 145143    8853  	oct	142152145143
    021176  aa   164040 157146    8854  	oct	164040157146
    021177  aa   040162 145144    8855  	oct	040162145144
    021200  aa   145146 151156    8856  	oct	145146151156
    021201  aa   151164 151157    8857  	oct	151164151157
    021202  aa   156040 155141    8858  	oct	156040155141
    021203  aa   171040 142145    8859  	oct	171040142145
    021204  aa   040151 156040    8860  	oct	040151156040
    021205  aa   145162 162157    8861  	oct	145162162157
    021206  aa   162040 114145    8862  	oct	162040114145
    021207  aa   166145 154040    8863  	oct	166145154040
    021210  aa   151156 144151    8864  	oct	151156144151
    021211  aa   143141 164157    8865  	oct	143141164157
    021212  aa   162040 103104    8866  	oct	162040103104
    021213  aa   040151 163040    8867  	oct	040151163040
    021214  aa   155151 163163    8868  	oct	155151163163
    021215  aa   151156 147040    8869  	oct	151156147040
    021216  aa   157162 040151    8870  	oct	157162040151
    021217  aa   156040 145162    8871  	oct	156040145162
    021220  aa   162157 162040    8872  	oct	162157162040
    021221  aa   103144 055156    8873  	oct	103144055156
    021222  aa   141155 145040    8874  	oct	141155145040
    021223  aa   151163 040155    8875  	oct	151163040155
    021224  aa   151163 163151    8876  	oct	151163163151
    021225  aa   156147 040111    8877  	oct	156147040111
    021226  aa   116120 125124    8878  	oct	116120125124
    021227  aa   040157 162040    8879  	oct	040157162040
    021230  aa   117125 124120    8880  	oct	117125124120
    021231  aa   125124 040157    8881  	oct	125124040157
    021232  aa   160164 151157    8882  	oct	160164151157
    021233  aa   156040 155165    8883  	oct	156040155165
    021234  aa   163164 040142    8884  	oct	163164040142
    021235  aa   145040 163160    8885  	oct	145040163160
    021236  aa   145143 151146    8886  	oct	145143151146
    021237  aa   151145 144040    8887  	oct	151145144040
    021240  aa   146157 162040    8888  	oct	146157162040
    021241  aa   145141 143150    8889  	oct	145141143150
    021242  aa   040103 104040    8890  	oct	040103104040
    021243  aa   145156 164162    8891  	oct	145156164162
    021244  aa   171040 117156    8892  	oct	171040117156
    021245  aa   154171 040157    8893  	oct	154171040157
    021246  aa   156145 040111    8894  	oct	156145040111
    021247  aa   116111 124111    8895  	oct	116111124111
    021250  aa   101114 040143    8896  	oct	101114040143
    021251  aa   154141 165163    8897  	oct	154141165163
    021252  aa   145040 151163    8898  	oct	145040151163
    021253  aa   040141 154154    8899  	oct	040141154154
    021254  aa   157167 145144    8900  	oct	157167145144
    021255  aa   040151 156040    8901  	oct	040151156040
    021256  aa   164150 145040    8902  	oct	164150145040
    021257  aa   103157 155155    8903  	oct	103157155155
    021260  aa   165156 151143    8904  	oct	165156151143
    021261  aa   141164 151157    8905  	oct	141164151157
    021262  aa   156040 123145    8906  	oct	156040123145
    021263  aa   143164 151157    8907  	oct	143164151157
    021264  aa   156040 127150    8908  	oct	156040127150
    021265  aa   145156 040156    8909  	oct	145156040156
    021266  aa   145151 164150    8910  	oct	145151164150
    021267  aa   145162 040157    8911  	oct	145162040157
    021270  aa   160164 151157    8912  	oct	160164151157
    021271  aa   156040 151163    8913  	oct	156040151163
    021272  aa   040165 163145    8914  	oct	040165163145
    021273  aa   144054 040164    8915  	oct	144054040164
    021274  aa   150145 040103    8916  	oct	150145040103
    021275  aa   104040 145156    8917  	oct	104040145156
    021276  aa   164162 171040    8918  	oct	164162171040
    021277  aa   155165 163164    8919  	oct	155165163164
    021300  aa   040142 145040    8920  	oct	040142145040
    021301  aa   146157 154154    8921  	oct	146157154154
    021302  aa   157167 145144    8922  	oct	157167145144
    021303  aa   040142 171040    8923  	oct	040142171040
    021304  aa   157156 145040    8924  	oct	157156145040
    021305  aa   157162 040155    8925  	oct	157162040155
    021306  aa   157162 145040    8926  	oct	157162145040
    021307  aa   060061 040162    8927  	oct	060061040162
    021310  aa   145143 157162    8928  	oct	145143157162
    021311  aa   144040 144145    8929  	oct	144040144145
    021312  aa   163143 162151    8930  	oct	163143162151
    021313  aa   160164 151157    8931  	oct	160164151157
    021314  aa   156163 040105    8932  	oct	156163040105
    021315  aa   170143 145163    8933  	oct	170143145163
    021316  aa   163040 144141    8934  	oct	163040144141
    021317  aa   164141 055156    8935  	oct	164141055156
    021320  aa   141155 145163    8936  	oct	141155145163
    021321  aa   040141 162145    8937  	oct	040141162145
    021322  aa   040163 160145    8938  	oct	040163160145
    021323  aa   143151 146151    8939  	oct	143151146151
    021324  aa   145144 040146    8940  	oct	145144040146
    021325  aa   157162 040164    8941  	oct	157162040164
    021326  aa   150145 040143    8942  	oct	150145040143
    021327  aa   165162 162145    8943  	oct	165162162145
    021330  aa   156164 040103    8944  	oct	156164040103
    021331  aa   104040 145156    8945  	oct	104040145156
    021332  aa   164162 171040    8946  	oct	164162171040
    021333  aa   101156 040165    8947  	oct	101156040165
    021334  aa   156162 145143    8948  	oct	156162145143
    021335  aa   157147 156151    8949  	oct	157147156151
    021336  aa   172141 142154    8950  	oct	172141142154
    021337  aa   145040 103104    8951  	oct	145040103104
    021340  aa   040154 145166    8952  	oct	040154145166
    021341  aa   145154 040151    8953  	oct	145154040151
    021342  aa   156144 151143    8954  	oct	156144151143
    021343  aa   141164 157162    8955  	oct	141164157162
    021344  aa   040157 162040    8956  	oct	040157162040
    021345  aa   163145 143164    8957  	oct	163145143164
    021346  aa   151157 156040    8958  	oct	151157156040
    021347  aa   150145 141144    8959  	oct	150145141144
    021350  aa   145162 040151    8960  	oct	145162040151
    021351  aa   163040 145156    8961  	oct	163040145156
    021352  aa   143157 165156    8962  	oct	143157165156
    021353  aa   164145 162145    8963  	oct	164145162145
    021354  aa   144056 040111    8964  	oct	144056040111
    021355  aa   156166 141154    8965  	oct	156166141154
    021356  aa   151144 040103    8966  	oct	151144040103
    021357  aa   104040 143154    8967  	oct	104040143154
    021360  aa   141165 163145    8968  	oct	141165163145
    021361  aa   040122 145144    8969  	oct	040122145144
    021362  aa   165156 144141    8970  	oct	165156144141
    021363  aa   156164 040103    8971  	oct	156164040103
    021364  aa   104040 151156    8972  	oct	104040151156
    021365  aa   160165 164040    8973  	oct	160165164040
    021366  aa   123131 115102    8974  	oct	123131115102
    021367  aa   117114 111103    8975  	oct	117114111103
    021370  aa   040123 125102    8976  	oct	040123125102
    021371  aa   121125 105125    8977  	oct	121125105125
    021372  aa   105055 061040    8978  	oct	105055061040
    021373  aa   143154 141165    8979  	oct	143154141165
    021374  aa   163145 040122    8980  	oct	163145040122
    021375  aa   145144 165156    8981  	oct	145144165156
    021376  aa   144141 156164    8982  	oct	144141156164
    021377  aa   040103 104040    8983  	oct	040103104040
    021400  aa   151156 160165    8984  	oct	151156160165
    021401  aa   164040 123131    8985  	oct	164040123131
    021402  aa   115102 117114    8986  	oct	115102117114
    021403  aa   111103 040123    8987  	oct	111103040123
    021404  aa   125102 121125    8988  	oct	125102121125
    021405  aa   105125 105055    8989  	oct	105125105055
    021406  aa   062040 143154    8990  	oct	062040143154
    021407  aa   141165 163145    8991  	oct	141165163145
    021410  aa   040122 145144    8992  	oct	040122145144
    021411  aa   165156 144141    8993  	oct	165156144141
    021412  aa   156164 040103    8994  	oct	156164040103
    021413  aa   104040 151156    8995  	oct	104040151156
    021414  aa   160165 164040    8996  	oct	160165164040
    021415  aa   123131 115102    8997  	oct	123131115102
    021416  aa   117114 111103    8998  	oct	117114111103
    021417  aa   040123 125102    8999  	oct	040123125102
    021420  aa   121125 105125    9000  	oct	121125105125
    021421  aa   105055 063040    9001  	oct	105055063040
    021422  aa   143154 141165    9002  	oct	143154141165
    021423  aa   163145 040122    9003  	oct	163145040122
    021424  aa   145144 165156    9004  	oct	145144165156
    021425  aa   144141 156164    9005  	oct	144141156164
    021426  aa   040103 104040    9006  	oct	040103104040
    021427  aa   151156 160165    9007  	oct	151156160165
    021430  aa   164040 123131    9008  	oct	164040123131
    021431  aa   115102 117114    9009  	oct	115102117114
    021432  aa   111103 040121    9010  	oct	111103040121
    021433  aa   125105 125105    9011  	oct	125105125105
    021434  aa   040143 154141    9012  	oct	040143154141
    021435  aa   165163 145040    9013  	oct	165163145040
    021436  aa   122145 144165    9014  	oct	122145144165
    021437  aa   156144 141156    9015  	oct	156144141156
    021440  aa   164040 103104    9016  	oct	164040103104
    021441  aa   040151 156160    9017  	oct	040151156160
    021442  aa   165164 040115    9018  	oct	165164040115
    021443  aa   105123 123101    9019  	oct	105123123101
    021444  aa   107105 040104    9020  	oct	107105040104
    021445  aa   101124 105040    9021  	oct	101124105040
    021446  aa   143154 141165    9022  	oct	143154141165
    021447  aa   163145 040122    9023  	oct	163145040122
    021450  aa   145144 165156    9024  	oct	145144165156
    021451  aa   144141 156164    9025  	oct	144141156164
    021452  aa   040103 104040    9026  	oct	040103104040
    021453  aa   151156 160165    9027  	oct	151156160165
    021454  aa   164040 115105    9028  	oct	164040115105
    021455  aa   123123 101107    9029  	oct	123123101107
    021456  aa   105040 124111    9030  	oct	105040124111
    021457  aa   115105 040143    9031  	oct	115105040143
    021460  aa   154141 165163    9032  	oct	154141165163
    021461  aa   145040 122145    9033  	oct	145040122145
    021462  aa   144165 156144    9034  	oct	144165156144
    021463  aa   141156 164040    9035  	oct	141156164040
    021464  aa   103104 040151    9036  	oct	103104040151
    021465  aa   156160 165164    9037  	oct	156160165164
    021466  aa   040124 105130    9038  	oct	040124105130
    021467  aa   124040 114105    9039  	oct	124040114105
    021470  aa   116107 124110    9040  	oct	116107124110
    021471  aa   040143 154141    9041  	oct	040143154141
    021472  aa   165163 145040    9042  	oct	165163145040
    021473  aa   122145 144165    9043  	oct	122145144165
    021474  aa   156144 141156    9044  	oct	156144141156
    021475  aa   164040 103104    9045  	oct	164040103104
    021476  aa   040151 156160    9046  	oct	040151156160
    021477  aa   165164 040105    9047  	oct	165164040105
    021500  aa   116104 040113    9048  	oct	116104040113
    021501  aa   105131 040143    9049  	oct	105131040143
    021502  aa   154141 165163    9050  	oct	154141165163
    021503  aa   145040 122145    9051  	oct	145040122145
    021504  aa   144165 156144    9052  	oct	144165156144
    021505  aa   141156 164040    9053  	oct	141156164040
    021506  aa   103104 040151    9054  	oct	103104040151
    021507  aa   156160 165164    9055  	oct	156160165164
    021510  aa   040123 124101    9056  	oct	040123124101
    021511  aa   124125 123040    9057  	oct	124125123040
    021512  aa   113105 131040    9058  	oct	113105131040
    021513  aa   143154 141165    9059  	oct	143154141165
    021514  aa   163145 040122    9060  	oct	163145040122
    021515  aa   145144 165156    9061  	oct	145144165156
    021516  aa   144141 156164    9062  	oct	144141156164
    021517  aa   040103 104040    9063  	oct	040103104040
    021520  aa   151156 160165    9064  	oct	151156160165
    021521  aa   164040 121125    9065  	oct	164040121125
    021522  aa   105125 105040    9066  	oct	105125105040
    021523  aa   104105 120124    9067  	oct	104105120124
    021524  aa   110040 143154    9068  	oct	110040143154
    021525  aa   141165 163145    9069  	oct	141165163145
    021526  aa   040122 145144    9070  	oct	040122145144
    021527  aa   165156 144141    9071  	oct	165156144141
    021530  aa   156164 040103    9072  	oct	156164040103
    021531  aa   104040 151156    9073  	oct	104040151156
    021532  aa   160165 164040    9074  	oct	160165164040
    021533  aa   123131 115102    9075  	oct	123131115102
    021534  aa   117114 111103    9076  	oct	117114111103
    021535  aa   040123 117125    9077  	oct	040123117125
    021536  aa   122103 105040    9078  	oct	122103105040
    021537  aa   143154 141165    9079  	oct	143154141165
    021540  aa   163145 040125    9080  	oct	163145040125
    021541  aa   156162 145143    9081  	oct	156162145143
    021542  aa   157147 156151    9082  	oct	157147156151
    021543  aa   172141 142154    9083  	oct	172141142154
    021544  aa   145040 103104    9084  	oct	145040103104
    021545  aa   040151 156160    9085  	oct	040151156160
    021546  aa   165164 040141    9086  	oct	165164040141
    021547  aa   164164 162151    9087  	oct	164164162151
    021550  aa   142165 164145    9088  	oct	142165164145
    021551  aa   040125 156162    9089  	oct	040125156162
    021552  aa   145143 157147    9090  	oct	145143157147
    021553  aa   156151 172141    9091  	oct	156151172141
    021554  aa   142154 145040    9092  	oct	142154145040
    021555  aa   103104 040157    9093  	oct	103104040157
    021556  aa   165164 160165    9094  	oct	165164160165
    021557  aa   164040 141164    9095  	oct	164040141164
    021560  aa   164162 151142    9096  	oct	164162151142
    021561  aa   165164 145040    9097  	oct	165164145040
    021562  aa   124150 145040    9098  	oct	124150145040
    021563  aa   155141 170151    9099  	oct	155141170151
    021564  aa   156165 155040    9100  	oct	156165155040
    021565  aa   157143 143165    9101  	oct	157143143165
    021566  aa   162162 145156    9102  	oct	162162145156
    021567  aa   143145 040156    9103  	oct	143145040156
    021570  aa   165155 142145    9104  	oct	165155142145
    021571  aa   162040 155165    9105  	oct	162040155165
    021572  aa   163164 040142    9106  	oct	163164040142
    021573  aa   145040 156165    9107  	oct	145040156165
    021574  aa   155145 162151    9108  	oct	155145162151
    021575  aa   143040 151156    9109  	oct	143040151156
    021576  aa   164145 147145    9110  	oct	164145147145
    021577  aa   162040 147162    9111  	oct	162040147162
    021600  aa   145141 164145    9112  	oct	145141164145
    021601  aa   162040 164150    9113  	oct	162040164150
    021602  aa   141156 040060    9114  	oct	141156040060
    021603  aa   040122 145144    9115  	oct	040122145144
    021604  aa   165156 144141    9116  	oct	165156144141
    021605  aa   156164 040103    9117  	oct	156164040103
    021606  aa   104040 157165    9118  	oct	104040157165
    021607  aa   164160 165164    9119  	oct	164160165164
    021610  aa   040104 105123    9120  	oct	040104105123
    021611  aa   124111 116101    9121  	oct	124111116101
    021612  aa   124111 117116    9122  	oct	124111117116
    021613  aa   040103 117125    9123  	oct	040103117125
    021614  aa   116124 040143    9124  	oct	116124040143
    021615  aa   154141 165163    9125  	oct	154141165163
    021616  aa   145040 122145    9126  	oct	145040122145
    021617  aa   144165 156144    9127  	oct	144165156144
    021620  aa   141156 164040    9128  	oct	141156164040
    021621  aa   103104 040157    9129  	oct	103104040157
    021622  aa   165164 160165    9130  	oct	165164160165
    021623  aa   164040 124105    9131  	oct	164040124105
    021624  aa   130124 040114    9132  	oct	130124040114
    021625  aa   105116 107124    9133  	oct	105116107124
    021626  aa   110040 143154    9134  	oct	110040143154
    021627  aa   141165 163145    9135  	oct	141165163145
    021630  aa   040122 145144    9136  	oct	040122145144
    021631  aa   165156 144141    9137  	oct	165156144141
    021632  aa   156164 040103    9138  	oct	156164040103
    021633  aa   104040 157165    9139  	oct	104040157165
    021634  aa   164160 165164    9140  	oct	164160165164
    021635  aa   040123 124101    9141  	oct	040123124101
    021636  aa   124125 123040    9142  	oct	124125123040
    021637  aa   113105 131040    9143  	oct	113105131040
    021640  aa   143154 141165    9144  	oct	143154141165
    021641  aa   163145 040122    9145  	oct	163145040122
    021642  aa   145144 165156    9146  	oct	145144165156
    021643  aa   144141 156164    9147  	oct	144141156164
    021644  aa   040103 104040    9148  	oct	040103104040
    021645  aa   157165 164160    9149  	oct	157165164160
    021646  aa   165164 040104    9150  	oct	165164040104
    021647  aa   105123 124111    9151  	oct	105123124111
    021650  aa   116101 124111    9152  	oct	116101124111
    021651  aa   117116 040124    9153  	oct	117116040124
    021652  aa   101102 114105    9154  	oct	101102114105
    021653  aa   040143 154141    9155  	oct	040143154141
    021654  aa   165163 145040    9156  	oct	165163145040
    021655  aa   122145 144165    9157  	oct	122145144165
    021656  aa   156144 141156    9158  	oct	156144141156
    021657  aa   164040 103104    9159  	oct	164040103104
    021660  aa   040157 165164    9160  	oct	040157165164
    021661  aa   160165 164040    9161  	oct	160165164040
    021662  aa   105122 122117    9162  	oct	105122122117
    021663  aa   122040 113105    9163  	oct	122040113105
    021664  aa   131040 143154    9164  	oct	131040143154
    021665  aa   141165 163145    9165  	oct	141165163145
    021666  aa   040122 145144    9166  	oct	040122145144
    021667  aa   165156 144141    9167  	oct	165156144141
    021670  aa   156164 040103    9168  	oct	156164040103
    021671  aa   104040 157165    9169  	oct	104040157165
    021672  aa   164160 165164    9170  	oct	164160165164
    021673  aa   040123 131115    9171  	oct	040123131115
    021674  aa   102117 114111    9172  	oct	102117114111
    021675  aa   103040 104105    9173  	oct	103040104105
    021676  aa   123124 111116    9174  	oct	123124111116
    021677  aa   101124 111117    9175  	oct	101124111117
    021700  aa   116040 143154    9176  	oct	116040143154
    021701  aa   141165 163145    9177  	oct	141165163145
    021702  aa   040101 040146    9178  	oct	040101040146
    021703  aa   141164 141154    9179  	oct	141164141154
    021704  aa   040145 162162    9180  	oct	040145162162
    021705  aa   157162 040145    9181  	oct	157162040145
    021706  aa   170151 163164    9182  	oct	170151163164
    021707  aa   163040 151156    9183  	oct	163040151156
    021710  aa   040164 150145    9184  	oct	040164150145
    021711  aa   040163 160145    9185  	oct	040163160145
    021712  aa   143151 146151    9186  	oct	143151146151
    021713  aa   143141 164151    9187  	oct	143141164151
    021714  aa   157156 040157    9188  	oct	157156040157
    021715  aa   146040 164150    9189  	oct	146040164150
    021716  aa   151163 040103    9190  	oct	151163040103
    021717  aa   104040 145156    9191  	oct	104040145156
    021720  aa   164162 171073    9192  	oct	164162171073
    021721  aa   040163 171156    9193  	oct	040163171156
    021722  aa   164141 170040    9194  	oct	164141170040
    021723  aa   141156 141154    9195  	oct	141156141154
    021724  aa   171163 151163    9196  	oct	171163151163
    021725  aa   040156 157164    9197  	oct	040156157164
    021726  aa   040143 157155    9198  	oct	040143157155
    021727  aa   160154 145164    9199  	oct	160154145164
    021730  aa   145144 040103    9200  	oct	145144040103
    021731  aa   104040 151156    9201  	oct	104040151156
    021732  aa   160165 164040    9202  	oct	160165164040
    021733  aa   162145 143157    9203  	oct	162145143157
    021734  aa   162144 040154    9204  	oct	162144040154
    021735  aa   145156 147164    9205  	oct	145156147164
    021736  aa   150040 155165    9206  	oct	150040155165
    021737  aa   163164 040142    9207  	oct	163164040142
    021740  aa   145040 070067    9208  	oct	145040070067
    021741  aa   040143 150141    9209  	oct	040143150141
    021742  aa   162141 143164    9210  	oct	162141143164
    021743  aa   145162 163040    9211  	oct	145162163040
    021744  aa   101156 040145    9212  	oct	101156040145
    021745  aa   162162 157162    9213  	oct	162162157162
    021746  aa   040145 170151    9214  	oct	040145170151
    021747  aa   163164 163040    9215  	oct	163164163040
    021750  aa   151156 040164    9216  	oct	151156040164
    021751  aa   150151 163040    9217  	oct	150151163040
    021752  aa   103104 040162    9218  	oct	103104040162
    021753  aa   145143 157162    9219  	oct	145143157162
    021754  aa   144055 156141    9220  	oct	144055156141
    021755  aa   155145 040103    9221  	oct	155145040103
    021756  aa   104040 157165    9222  	oct	104040157165
    021757  aa   164160 165164    9223  	oct	164160165164
    021760  aa   040162 145143    9224  	oct	040162145143
    021761  aa   157162 144040    9225  	oct	157162144040
    021762  aa   154145 156147    9226  	oct	154145156147
    021763  aa   164150 040155    9227  	oct	164150040155
    021764  aa   165163 164040    9228  	oct	165163164040
    021765  aa   142145 040147    9229  	oct	142145040147
    021766  aa   162145 141164    9230  	oct	162145141164
    021767  aa   145162 040164    9231  	oct	145162040164
    021770  aa   150141 156040    9232  	oct	150141156040
    021771  aa   062063 040143    9233  	oct	062063040143
    021772  aa   150141 162141    9234  	oct	150141162141
    021773  aa   143164 145162    9235  	oct	143164145162
    021774  aa   163040 101040    9236  	oct	163040101040
    021775  aa   146141 164141    9237  	oct	146141164141
    021776  aa   154040 145162    9238  	oct	154040145162
    021777  aa   162157 162040    9239  	oct	162157162040
    022000  aa   145170 151163    9240  	oct	145170151163
    022001  aa   164163 040151    9241  	oct	164163040151
    022002  aa   156040 164150    9242  	oct	156040164150
    022003  aa   145040 163160    9243  	oct	145040163160
    022004  aa   145143 151146    9244  	oct	145143151146
    022005  aa   151143 141164    9245  	oct	151143141164
    022006  aa   151157 156040    9246  	oct	151157156040
    022007  aa   157146 040164    9247  	oct	157146040164
    022010  aa   150145 040127    9248  	oct	150145040127
    022011  aa   157162 153151    9249  	oct	157162153151
    022012  aa   156147 055123    9250  	oct	156147055123
    022013  aa   164157 162141    9251  	oct	164157162141
    022014  aa   147145 040123    9252  	oct	147145040123
    022015  aa   145143 164151    9253  	oct	145143164151
    022016  aa   157156 073040    9254  	oct	157156073040
    022017  aa   163171 156164    9255  	oct	163171156164
    022020  aa   141170 040141    9256  	oct	141170040141
    022021  aa   156141 154171    9257  	oct	156141154171
    022022  aa   163151 163040    9258  	oct	163151163040
    022023  aa   156157 164040    9259  	oct	156157164040
    022024  aa   143157 155160    9260  	oct	143157155160
    022025  aa   154145 164145    9261  	oct	154145164145
    022026  aa   144040 124157    9262  	oct	144040124157
    022027  aa   157040 155141    9263  	oct	157040155141
    022030  aa   156171 040143    9264  	oct	156171040143
    022031  aa   150141 162141    9265  	oct	150141162141
    022032  aa   143164 145162    9266  	oct	143164145162
    022033  aa   163040 163160    9267  	oct	163040163160
    022034  aa   145143 151146    9268  	oct	145143151146
    022035  aa   151145 144040    9269  	oct	151145144040
    022036  aa   151156 040160    9270  	oct	151156040160
    022037  aa   151143 164165    9271  	oct	151143164165
    022040  aa   162145 040055    9272  	oct	162145040055
    022041  aa   040154 151155    9273  	oct	040154151155
    022042  aa   151164 040151    9274  	oct	151164040151
    022043  aa   163040 063060    9275  	oct	163040063060
    022044  aa   040122 145144    9276  	oct	040122145144
    022045  aa   165156 144141    9277  	oct	165156144141
    022046  aa   156164 040114    9278  	oct	156164040114
    022047  aa   151156 153141    9279  	oct	151156153141
    022050  aa   147145 040123    9280  	oct	147145040123
    022051  aa   145143 164151    9281  	oct	145143164151
    022052  aa   157156 040163    9282  	oct	157156040163
    022053  aa   160145 143151    9283  	oct	160145143151
    022054  aa   146151 145144    9284  	oct	146151145144
    022055  aa   040055 040157    9285  	oct	040055040157
    022056  aa   156154 171040    9286  	oct	156154171040
    022057  aa   157156 145040    9287  	oct	157156145040
    022060  aa   141154 154157    9288  	oct	141154154157
    022061  aa   167145 144040    9289  	oct	167145144040
    022062  aa   160145 162040    9290  	oct	160145162040
    022063  aa   160162 157147    9291  	oct	160162157147
    022064  aa   162141 155040    9292  	oct	162141155040
    022065  aa   111154 154145    9293  	oct	111154154145
    022066  aa   147141 154040    9294  	oct	147141154040
    022067  aa   143150 141162    9295  	oct	143150141162
    022070  aa   141143 164145    9296  	oct	141143164145
    022071  aa   162040 163160    9297  	oct	162040163160
    022072  aa   145143 151146    9298  	oct	145143151146
    022073  aa   151145 144040    9299  	oct	151145144040
    022074  aa   151156 040164    9300  	oct	151156040164
    022075  aa   150145 040160    9301  	oct	150145040160
    022076  aa   151143 164165    9302  	oct	151143164165
    022077  aa   162145 040143    9303  	oct	162145040143
    022100  aa   150141 162141    9304  	oct	150141162141
    022101  aa   143164 145162    9305  	oct	143164145162
    022102  aa   055163 164162    9306  	oct	055163164162
    022103  aa   151156 147040    9307  	oct	151156147040
    022104  aa   122145 144165    9308  	oct	122145144165
    022105  aa   156144 141156    9309  	oct	156144141156
    022106  aa   164040 103157    9310  	oct	164040103157
    022107  aa   156163 164141    9311  	oct	156163164141
    022110  aa   156164 040123    9312  	oct	156164040123
    022111  aa   145143 164151    9313  	oct	145143164151
    022112  aa   157156 040163    9314  	oct	157156040163
    022113  aa   160145 143151    9315  	oct	160145143151
    022114  aa   146151 145144    9316  	oct	146151145144
    022115  aa   040055 040157    9317  	oct	040055040157
    022116  aa   156154 171040    9318  	oct	156154171040
    022117  aa   157156 145040    9319  	oct	157156145040
    022120  aa   141154 154157    9320  	oct	141154154157
    022121  aa   167145 144040    9321  	oct	167145144040
    022122  aa   160145 162040    9322  	oct	160145162040
    022123  aa   160162 157147    9323  	oct	160162157147
    022124  aa   162141 155040    9324  	oct	162141155040
    022125  aa   111154 154145    9325  	oct	111154154145
    022126  aa   147141 154040    9326  	oct	147141154040
    022127  aa   143157 155142    9327  	oct	143157155142
    022130  aa   151156 141164    9328  	oct	151156141164
    022131  aa   151157 156040    9329  	oct	151157156040
    022132  aa   157146 040143    9330  	oct	157146040143
    022133  aa   150141 162141    9331  	oct	150141162141
    022134  aa   143164 145162    9332  	oct	143164145162
    022135  aa   163040 163160    9333  	oct	163040163160
    022136  aa   145143 151146    9334  	oct	145143151146
    022137  aa   151145 144040    9335  	oct	151145144040
    022140  aa   151156 040164    9336  	oct	151156040164
    022141  aa   150145 040160    9337  	oct	150145040160
    022142  aa   151143 164165    9338  	oct	151143164165
    022143  aa   162145 040143    9339  	oct	162145040143
    022144  aa   150141 162141    9340  	oct	150141162141
    022145  aa   143164 145162    9341  	oct	143164145162
    022146  aa   055163 164162    9342  	oct	055163164162
    022147  aa   151156 147040    9343  	oct	151156147040
    022150  aa   124150 145040    9344  	oct	124150145040
    022151  aa   125123 101107    9345  	oct	125123101107
    022152  aa   105040 163160    9346  	oct	105040163160
    022153  aa   145143 151146    9347  	oct	145143151146
    022154  aa   151145 144040    9348  	oct	151145144040
    022155  aa   151163 040165    9349  	oct	151163040165
    022156  aa   156162 145143    9350  	oct	156162145143
    022157  aa   157147 156151    9351  	oct	157147156151
    022160  aa   172141 142154    9352  	oct	172141142154
    022161  aa   145040 124150    9353  	oct	145040124150
    022162  aa   145040 154145    9354  	oct	145040154145
    022163  aa   156147 164150    9355  	oct	156147164150
    022164  aa   040157 146040    9356  	oct	040157146040
    022165  aa   164150 145040    9357  	oct	164150145040
    022166  aa   145144 151164    9358  	oct	145144151164
    022167  aa   151156 147040    9359  	oct	151156147040
    022170  aa   143150 141162    9360  	oct	143150141162
    022171  aa   141143 164145    9361  	oct	141143164145
    022172  aa   162055 163164    9362  	oct	162055163164
    022173  aa   162151 156147    9363  	oct	162151156147
    022174  aa   040155 165163    9364  	oct	040155165163
    022175  aa   164040 156157    9365  	oct	164040156157
    022176  aa   164040 145170    9366  	oct	164040145170
    022177  aa   143145 145144    9367  	oct	143145145144
    022200  aa   040062 065066    9368  	oct	040062065066
    022201  aa   040143 150141    9369  	oct	040143150141
    022202  aa   162141 143164    9370  	oct	162141143164
    022203  aa   145162 163040    9371  	oct	145162163040
    022204  aa   116157 040162    9372  	oct	116157040162
    022205  aa   145143 145151    9373  	oct	145143145151
    022206  aa   166151 156147    9374  	oct	166151156147
    022207  aa   040143 150141    9375  	oct	040143150141
    022210  aa   162141 143164    9376  	oct	162141143164
    022211  aa   145162 163040    9377  	oct	145162163040
    022212  aa   163160 145143    9378  	oct	163160145143
    022213  aa   151146 151145    9379  	oct	151146151145
    022214  aa   144040 151156    9380  	oct	144040151156
    022215  aa   040164 150145    9381  	oct	040164150145
    022216  aa   040160 151143    9382  	oct	040160151143
    022217  aa   164165 162145    9383  	oct	164165162145
    022220  aa   040143 150141    9384  	oct	040143150141
    022221  aa   162141 143164    9385  	oct	162141143164
    022222  aa   145162 055163    9386  	oct	145162055163
    022223  aa   164162 151156    9387  	oct	164162151156
    022224  aa   147040 101040    9388  	oct	147040101040
    022225  aa   146141 164141    9389  	oct	146141164141
    022226  aa   154040 163171    9390  	oct	154040163171
    022227  aa   156164 141170    9391  	oct	156164141170
    022230  aa   040145 162162    9392  	oct	040145162162
    022231  aa   157162 040145    9393  	oct	157162040145
    022232  aa   170151 163163    9394  	oct	170151163163
    022233  aa   164163 040151    9395  	oct	164163040151
    022234  aa   156040 164150    9396  	oct	156040164150
    022235  aa   145040 163160    9397  	oct	145040163160
    022236  aa   145143 151146    9398  	oct	145143151146
    022237  aa   151143 141164    9399  	oct	151143141164
    022240  aa   151157 156040    9400  	oct	151157156040
    022241  aa   157146 040164    9401  	oct	157146040164
    022242  aa   150145 040122    9402  	oct	150145040122
    022243  aa   105116 101115    9403  	oct	105116101115
    022244  aa   105123 040145    9404  	oct	105123040145
    022245  aa   156164 162171    9405  	oct	156164162171
    022246  aa   073040 163171    9406  	oct	073040163171
    022247  aa   156164 141170    9407  	oct	156164141170
    022250  aa   040141 156141    9408  	oct	040141156141
    022251  aa   154171 163151    9409  	oct	154171163151
    022252  aa   163040 156157    9410  	oct	163040156157
    022253  aa   164040 143157    9411  	oct	164040143157
    022254  aa   155160 154145    9412  	oct	155160154145
    022255  aa   164145 144040    9413  	oct	164145144040
    022256  aa   122105 103117    9414  	oct	122105103117
    022257  aa   122104 111116    9415  	oct	122104111116
    022260  aa   107040 115117    9416  	oct	107040115117
    022261  aa   104105 040143    9417  	oct	104105040143
    022262  aa   154141 165163    9418  	oct	154141165163
    022263  aa   145040 151163    9419  	oct	145040151163
    022264  aa   040162 145144    9420  	oct	040162145144
    022265  aa   165156 144141    9421  	oct	165156144141
    022266  aa   156164 040157    9422  	oct	156164040157
    022267  aa   162040 151154    9423  	oct	162040151154
    022270  aa   154145 147141    9424  	oct	154145147141
    022271  aa   154040 102114    9425  	oct	154040102114
    022272  aa   117103 113040    9426  	oct	117103113040
    022273  aa   103117 116124    9427  	oct	103117116124
    022274  aa   101111 116123    9428  	oct	101111116123
    022275  aa   040143 154141    9429  	oct	040143154141
    022276  aa   165163 145040    9430  	oct	165163145040
    022277  aa   151163 040162    9431  	oct	151163040162
    022300  aa   145144 165156    9432  	oct	145144165156
    022301  aa   144141 156164    9433  	oct	144141156164
    022302  aa   040157 162040    9434  	oct	040157162040
    022303  aa   151154 154145    9435  	oct	151154154145
    022304  aa   147141 154040    9436  	oct	147141154040
    022305  aa   122105 103117    9437  	oct	122105103117
    022306  aa   122104 040103    9438  	oct	122104040103
    022307  aa   117116 124101    9439  	oct	117116124101
    022310  aa   111116 123040    9440  	oct	111116123040
    022311  aa   143154 141165    9441  	oct	143154141165
    022312  aa   163145 040151    9442  	oct	163145040151
    022313  aa   163040 162145    9443  	oct	163040162145
    022314  aa   144165 156144    9444  	oct	144165156144
    022315  aa   141156 164040    9445  	oct	141156164040
    022316  aa   114101 102105    9446  	oct	114101102105
    022317  aa   114040 122105    9447  	oct	114040122105
    022320  aa   103117 122104    9448  	oct	103117122104
    022321  aa   040143 154141    9449  	oct	040143154141
    022322  aa   165163 145040    9450  	oct	165163145040
    022323  aa   151163 040162    9451  	oct	151163040162
    022324  aa   145144 165156    9452  	oct	145144165156
    022325  aa   144141 156164    9453  	oct	144141156164
    022326  aa   040157 162040    9454  	oct	040157162040
    022327  aa   151154 154145    9455  	oct	151154154145
    022330  aa   147141 154040    9456  	oct	147141154040
    022331  aa   124150 145040    9457  	oct	124150145040
    022332  aa   126101 114125    9458  	oct	126101114125
    022333  aa   105040 117106    9459  	oct	105040117106
    022334  aa   040143 154141    9460  	oct	040143154141
    022335  aa   165163 145040    9461  	oct	165163145040
    022336  aa   151163 040151    9462  	oct	151163040151
    022337  aa   154154 145147    9463  	oct	154154145147
    022340  aa   141154 040104    9464  	oct	141154040104
    022341  aa   101124 101040    9465  	oct	101124101040
    022342  aa   122105 103117    9466  	oct	122105103117
    022343  aa   122104 040143    9467  	oct	122104040143
    022344  aa   154141 165163    9468  	oct	154141165163
    022345  aa   145040 151163    9469  	oct	145040151163
    022346  aa   040162 145144    9470  	oct	040162145144
    022347  aa   165156 144141    9471  	oct	165156144141
    022350  aa   156164 040122    9472  	oct	156164040122
    022351  aa   105120 117122    9473  	oct	105120117122
    022352  aa   124040 111123    9474  	oct	124040111123
    022353  aa   040143 154141    9475  	oct	040143154141
    022354  aa   165163 145040    9476  	oct	165163145040
    022355  aa   151163 040162    9477  	oct	151163040162
    022356  aa   145144 165156    9478  	oct	145144165156
    022357  aa   144141 156164    9479  	oct	144141156164
    022360  aa   040157 162040    9480  	oct	040157162040
    022361  aa   151154 154145    9481  	oct	151154154145
    022362  aa   147141 154040    9482  	oct	147141154040
    022363  aa   114111 116101    9483  	oct	114111116101
    022364  aa   107105 040111    9484  	oct	107105040111
    022365  aa   123040 143154    9485  	oct	123040143154
    022366  aa   141165 163145    9486  	oct	141165163145
    022367  aa   040151 163040    9487  	oct	040151163040
    022370  aa   162145 144165    9488  	oct	162145144165
    022371  aa   156144 141156    9489  	oct	156144141156
    022372  aa   164040 157162    9490  	oct	164040157162
    022373  aa   040151 154154    9491  	oct	040151154154
    022374  aa   145147 141154    9492  	oct	145147141154
    022375  aa   040122 145144    9493  	oct	040122145144
    022376  aa   165156 144141    9494  	oct	165156144141
    022377  aa   156164 040104    9495  	oct	156164040104
    022400  aa   105120 105116    9496  	oct	105120105116
    022401  aa   104111 116107    9497  	oct	104111116107
    022402  aa   040117 116040    9498  	oct	040117116040
    022403  aa   143154 141165    9499  	oct	143154141165
    022404  aa   163145 040163    9500  	oct	163145040163
    022405  aa   160145 143151    9501  	oct	160145143151
    022406  aa   146151 145144    9502  	oct	146151145144
    022407  aa   040055 040157    9503  	oct	040055040157
    022410  aa   156154 171040    9504  	oct	156154171040
    022411  aa   157156 145040    9505  	oct	157156145040
    022412  aa   141154 154157    9506  	oct	141154154157
    022413  aa   167145 144040    9507  	oct	167145144040
    022414  aa   160145 162040    9508  	oct	160145162040
    022415  aa   144141 164141    9509  	oct	144141164141
    022416  aa   040151 164145    9510  	oct	040151164145
    022417  aa   155040 124150    9511  	oct	155040124150
    022420  aa   145040 163160    9512  	oct	145040163160
    022421  aa   145143 151146    9513  	oct	145143151146
    022422  aa   151143 141164    9514  	oct	151143141164
    022423  aa   151157 156040    9515  	oct	151157156040
    022424  aa   146157 162040    9516  	oct	146157162040
    022425  aa   114101 102105    9517  	oct	114101102105
    022426  aa   114040 122105    9518  	oct	114040122105
    022427  aa   103117 122104    9519  	oct	103117122104
    022430  aa   040151 163040    9520  	oct	040151163040
    022431  aa   165156 162145    9521  	oct	165156162145
    022432  aa   143157 147156    9522  	oct	143157147156
    022433  aa   151172 141142    9523  	oct	151172141142
    022434  aa   154145 040124    9524  	oct	154145040124
    022435  aa   150145 040143    9525  	oct	150145040143
    022436  aa   165162 162145    9526  	oct	165162162145
    022437  aa   156164 040163    9527  	oct	156164040163
    022440  aa   145143 164151    9528  	oct	145143164151
    022441  aa   157156 040151    9529  	oct	157156040151
    022442  aa   163040 141163    9530  	oct	163040141163
    022443  aa   163165 155145    9531  	oct	163165155145
    022444  aa   144040 164157    9532  	oct	144040164157
    022445  aa   040142 145040    9533  	oct	040142145040
    022446  aa   164150 145040    9534  	oct	164150145040
    022447  aa   106151 154145    9535  	oct	106151154145
    022450  aa   040123 145143    9536  	oct	040123145143
    022451  aa   164151 157156    9537  	oct	164151157156
    022452  aa   040124 150145    9538  	oct	040124150145
    022453  aa   040143 165162    9539  	oct	040143165162
    022454  aa   162145 156164    9540  	oct	162145156164
    022455  aa   040163 145143    9541  	oct	040163145143
    022456  aa   164151 157156    9542  	oct	164151157156
    022457  aa   040151 163040    9543  	oct	040151163040
    022460  aa   141163 163165    9544  	oct	141163163165
    022461  aa   155145 144040    9545  	oct	155145144040
    022462  aa   164157 040142    9546  	oct	164157040142
    022463  aa   145040 164150    9547  	oct	145040164150
    022464  aa   145040 127157    9548  	oct	145040127157
    022465  aa   162153 151156    9549  	oct	162153151156
    022466  aa   147055 123164    9550  	oct	147055123164
    022467  aa   157162 141147    9551  	oct	157162141147
    022470  aa   145040 123145    9552  	oct	145040123145
    022471  aa   143164 151157    9553  	oct	143164151157
    022472  aa   156040 123171    9554  	oct	156040123171
    022473  aa   156164 141170    9555  	oct	156164141170
    022474  aa   040145 162162    9556  	oct	040145162162
    022475  aa   157162 040145    9557  	oct	157162040145
    022476  aa   156143 157165    9558  	oct	156143157165
    022477  aa   156164 145162    9559  	oct	156164145162
    022500  aa   145144 073040    9560  	oct	145144073040
    022501  aa   163171 156164    9561  	oct	163171156164
    022502  aa   141170 040143    9562  	oct	141170040143
    022503  aa   150145 143153    9563  	oct	150145143153
    022504  aa   151156 147040    9564  	oct	151156147040
    022505  aa   144151 163143    9565  	oct	144151163143
    022506  aa   157156 164151    9566  	oct	157156164151
    022507  aa   156165 145144    9567  	oct	156165145144
    022510  aa   040101 040144    9568  	oct	040101040144
    022511  aa   165155 155171    9569  	oct	165155155171
    022512  aa   040162 145143    9570  	oct	040162145143
    022513  aa   157162 144040    9571  	oct	157162144040
    022514  aa   156141 155145    9572  	oct	156141155145
    022515  aa   040151 163040    9573  	oct	040151163040
    022516  aa   163165 160160    9574  	oct	163165160160
    022517  aa   154151 145144    9575  	oct	154151145144
    022520  aa   073040 163171    9576  	oct	073040163171
    022521  aa   156164 141170    9577  	oct	156164141170
    022522  aa   040143 150145    9578  	oct	040143150145
    022523  aa   143153 151156    9579  	oct	143153151156
    022524  aa   147040 162145    9580  	oct	147040162145
    022525  aa   163165 155145    9581  	oct	163165155145
    022526  aa   144040 123171    9582  	oct	144040123171
    022527  aa   156164 141170    9583  	oct	156164141170
    022530  aa   040143 150145    9584  	oct	040143150145
    022531  aa   143153 151156    9585  	oct	143153151156
    022532  aa   147040 162145    9586  	oct	147040162145
    022533  aa   163165 155145    9587  	oct	163165155145
    022534  aa   144040 122145    9588  	oct	144040122145
    022535  aa   143157 162144    9589  	oct	143157162144
    022536  aa   040144 145163    9590  	oct	040144145163
    022537  aa   143162 151160    9591  	oct	143162151160
    022540  aa   164151 157156    9592  	oct	164151157156
    022541  aa   040151 163040    9593  	oct	040151163040
    022542  aa   155151 163163    9594  	oct	155151163163
    022543  aa   151156 147073    9595  	oct	151156147073
    022544  aa   040163 171156    9596  	oct	040163171156
    022545  aa   164141 170040    9597  	oct	164141170040
    022546  aa   143150 145143    9598  	oct	143150145143
    022547  aa   153151 156147    9599  	oct	153151156147
    022550  aa   040162 145163    9600  	oct	040162145163
    022551  aa   165155 145144    9601  	oct	165155145144
    022552  aa   040124 150145    9602  	oct	040124150145
    022553  aa   040126 101114    9603  	oct	040126101114
    022554  aa   125105 040143    9604  	oct	125105040143
    022555  aa   154141 165163    9605  	oct	154141165163
    022556  aa   145040 146157    9606  	oct	145040146157
    022557  aa   162040 164150    9607  	oct	162040164150
    022560  aa   151163 040143    9608  	oct	151163040143
    022561  aa   157156 144151    9609  	oct	157156144151
    022562  aa   164151 157156    9610  	oct	164151157156
    022563  aa   055156 141155    9611  	oct	055156141155
    022564  aa   145040 151163    9612  	oct	145040151163
    022565  aa   040155 151163    9613  	oct	040155151163
    022566  aa   163151 156147    9614  	oct	163151156147
    022567  aa   040101 040146    9615  	oct	040101040146
    022570  aa   141164 141154    9616  	oct	141164141154
    022571  aa   040145 162162    9617  	oct	040145162162
    022572  aa   157162 040145    9618  	oct	157162040145
    022573  aa   170151 163164    9619  	oct	170151163164
    022574  aa   163040 151156    9620  	oct	163040151156
    022575  aa   040164 150145    9621  	oct	040164150145
    022576  aa   040163 160145    9622  	oct	040163160145
    022577  aa   143151 146151    9623  	oct	143151146151
    022600  aa   143141 164151    9624  	oct	143141164151
    022601  aa   157156 040157    9625  	oct	157156040157
    022602  aa   146040 164150    9626  	oct	146040164150
    022603  aa   145040 144141    9627  	oct	145040144141
    022604  aa   164141 040144    9628  	oct	164141040144
    022605  aa   145163 143162    9629  	oct	145163143162
    022606  aa   151160 164151    9630  	oct	151160164151
    022607  aa   157156 040143    9631  	oct	157156040143
    022610  aa   154141 165163    9632  	oct	154141165163
    022611  aa   145163 040157    9633  	oct	145163040157
    022612  aa   146040 164150    9634  	oct	146040164150
    022613  aa   151163 040145    9635  	oct	151163040145
    022614  aa   156164 162171    9636  	oct	156164162171
    022615  aa   040122 145163    9637  	oct	040122145163
    022616  aa   145162 166145    9638  	oct	145162166145
    022617  aa   144040 167157    9639  	oct	144040167157
    022620  aa   162144 040113    9640  	oct	162144040113
    022621  aa   105131 040151    9641  	oct	105131040151
    022622  aa   163040 155151    9642  	oct	163040155151
    022623  aa   163163 151156    9643  	oct	163163151156
    022624  aa   147040 124150    9644  	oct	147040124150
    022625  aa   145040 154151    9645  	oct	145040154151
    022626  aa   164145 162141    9646  	oct	164145162141
    022627  aa   154040 146157    9647  	oct	154040146157
    022630  aa   154154 157167    9648  	oct	154154157167
    022631  aa   151156 147040    9649  	oct	151156147040
    022632  aa   164150 145040    9650  	oct	164150145040
    022633  aa   124110 122125    9651  	oct	124110122125
    022634  aa   040157 160164    9652  	oct	040157160164
    022635  aa   151157 156040    9653  	oct	151157156040
    022636  aa   151163 040155    9654  	oct	151163040155
    022637  aa   151163 163151    9655  	oct	151163163151
    022640  aa   156147 040124    9656  	oct	156147040124
    022641  aa   150151 163040    9657  	oct	150151163040
    022642  aa   122105 116101    9658  	oct	122105116101
    022643  aa   115105 123040    9659  	oct	115105123040
    022644  aa   143154 141165    9660  	oct	143154141165
    022645  aa   163145 040151    9661  	oct	163145040151
    022646  aa   163040 151156    9662  	oct	163040151156
    022647  aa   166141 154151    9663  	oct	166141154151
    022650  aa   144040 141163    9664  	oct	144040141163
    022651  aa   040151 164040    9665  	oct	040151164040
    022652  aa   144157 145163    9666  	oct	144157145163
    022653  aa   040156 157164    9667  	oct	040156157164
    022654  aa   040151 155155    9668  	oct	040151155155
    022655  aa   145144 151141    9669  	oct	145144151141
    022656  aa   164145 154171    9670  	oct	164145154171
    022657  aa   040146 157154    9671  	oct	040146157154
    022660  aa   154157 167040    9672  	oct	154157167040
    022661  aa   164150 145040    9673  	oct	164150145040
    022662  aa   154141 163164    9674  	oct	154141163164
    022663  aa   040144 141164    9675  	oct	040144141164
    022664  aa   141040 145156    9676  	oct	141040145156
    022665  aa   164162 171040    9677  	oct	164162171040
    022666  aa   157146 040141    9678  	oct	157146040141
    022667  aa   040147 162157    9679  	oct	040147162157
    022670  aa   165160 040151    9680  	oct	165160040151
    022671  aa   164145 155040    9681  	oct	164145155040
    022672  aa   101122 105101    9682  	oct	101122105101
    022673  aa   040156 141155    9683  	oct	040156141155
    022674  aa   145040 151163    9684  	oct	145040151163
    022675  aa   040156 157164    9685  	oct	040156157164
    022676  aa   040144 145146    9686  	oct	040144145146
    022677  aa   151156 145144    9687  	oct	151156145144
    022700  aa   040123 104040    9688  	oct	040123104040
    022701  aa   156141 155145    9689  	oct	156141155145
    022702  aa   040151 163040    9690  	oct	040151163040
    022703  aa   156157 164040    9691  	oct	156157164040
    022704  aa   144145 146151    9692  	oct	144145146151
    022705  aa   156145 144040    9693  	oct	156145144040
    022706  aa   124150 145040    9694  	oct	124150145040
    022707  aa   162145 143157    9695  	oct	162145143157
    022710  aa   162144 040144    9696  	oct	162144040144
    022711  aa   145163 143162    9697  	oct	145163143162
    022712  aa   151160 164151    9698  	oct	151160164151
    022713  aa   157156 040146    9699  	oct	157156040146
    022714  aa   157162 040164    9700  	oct	157162040164
    022715  aa   150145 040141    9701  	oct	150145040141
    022716  aa   142157 166145    9702  	oct	142157166145
    022717  aa   040146 151154    9703  	oct	040146151154
    022720  aa   145040 144145    9704  	oct	145040144145
    022721  aa   163143 162151    9705  	oct	163143162151
    022722  aa   160164 151157    9706  	oct	160164151157
    022723  aa   156040 145156    9707  	oct	156040145156
    022724  aa   164162 171040    9708  	oct	164162171040
    022725  aa   151163 040155    9709  	oct	151163040155
    022726  aa   151163 163151    9710  	oct	151163163151
    022727  aa   156147 040106    9711  	oct	156147040106
    022730  aa   151154 145055    9712  	oct	151154145055
    022731  aa   156141 155145    9713  	oct	156141155145
    022732  aa   040151 163040    9714  	oct	040151163040
    022733  aa   155151 163163    9715  	oct	155151163163
    022734  aa   151156 147040    9716  	oct	151156147040
    022735  aa   157162 040151    9717  	oct	157162040151
    022736  aa   156040 145162    9718  	oct	156040145162
    022737  aa   162157 162040    9719  	oct	162157162040
    022740  aa   124150 151163    9720  	oct	124150151163
    022741  aa   040125 123101    9721  	oct	040125123101
    022742  aa   107105 040143    9722  	oct	107105040143
    022743  aa   154141 165163    9723  	oct	154141165163
    022744  aa   145040 151163    9724  	oct	145040151163
    022745  aa   040151 156166    9725  	oct	040151156166
    022746  aa   141154 151144    9726  	oct	141154151144
    022747  aa   040141 163040    9727  	oct	040141163040
    022750  aa   164150 145040    9728  	oct	164150145040
    022751  aa   143157 156164    9729  	oct	143157156164
    022752  aa   141151 156151    9730  	oct	141151156151
    022753  aa   156147 040147    9731  	oct	156147040147
    022754  aa   162157 165160    9732  	oct	162157165160
    022755  aa   040151 164145    9733  	oct	040151164145
    022756  aa   155040 151163    9734  	oct	155040151163
    022757  aa   040141 163163    9735  	oct	040141163163
    022760  aa   157143 151141    9736  	oct	157143151141
    022761  aa   164145 144040    9737  	oct	164145144040
    022762  aa   167151 164150    9738  	oct	167151164150
    022763  aa   040141 040143    9739  	oct	040141040143
    022764  aa   157156 144151    9740  	oct	157156144151
    022765  aa   164151 157156    9741  	oct	164151157156
    022766  aa   055156 141155    9742  	oct	055156141155
    022767  aa   145040 125156    9743  	oct	145040125156
    022770  aa   162145 143157    9744  	oct	162145143157
    022771  aa   147156 151172    9745  	oct	147156151172
    022772  aa   141142 154145    9746  	oct	141142154145
    022773  aa   040141 164164    9747  	oct	040141164164
    022774  aa   162151 142165    9748  	oct	162151142165
    022775  aa   164145 040151    9749  	oct	164145040151
    022776  aa   156040 103104    9750  	oct	156040103104
    022777  aa   040145 156164    9751  	oct	040145156164
    023000  aa   162171 040105    9752  	oct	162171040105
    023001  aa   170160 145143    9753  	oct	170160145143
    023002  aa   164145 144040    9754  	oct	164145144040
    023003  aa   167157 162144    9755  	oct	167157162144
    023004  aa   040151 163040    9756  	oct	040151163040
    023005  aa   124111 115105    9757  	oct	124111115105
    023006  aa   123040 105170    9758  	oct	123040105170
    023007  aa   160145 143164    9759  	oct	160145143164
    023010  aa   145144 040167    9760  	oct	145144040167
    023011  aa   157162 144040    9761  	oct	157162144040
    023012  aa   151163 040113    9762  	oct	151163040113
    023013  aa   105131 040105    9763  	oct	105131040105
    023014  aa   170160 145143    9764  	oct	170160145143
    023015  aa   164145 144040    9765  	oct	164145144040
    023016  aa   167157 162144    9766  	oct	167157162144
    023017  aa   040151 163040    9767  	oct	040151163040
    023020  aa   114105 116107    9768  	oct	114105116107
    023021  aa   124110 040105    9769  	oct	124110040105
    023022  aa   170160 145143    9770  	oct	170160145143
    023023  aa   164145 144040    9771  	oct	164145144040
    023024  aa   167157 162144    9772  	oct	167157162144
    023025  aa   040151 163040    9773  	oct	040151163040
    023026  aa   124117 120040    9774  	oct	124117120040
    023027  aa   157162 040102    9775  	oct	157162040102
    023030  aa   117124 124117    9776  	oct	117124124117
    023031  aa   115040 122145    9777  	oct	115040122145
    023032  aa   144165 156144    9778  	oct	144165156144
    023033  aa   141156 164040    9779  	oct	141156164040
    023034  aa   102117 124124    9780  	oct	102117124124
    023035  aa   117115 040160    9781  	oct	117115040160
    023036  aa   150162 141163    9782  	oct	150162141163
    023037  aa   145040 163160    9783  	oct	145040163160
    023040  aa   145143 151146    9784  	oct	145143151146
    023041  aa   151145 144040    9785  	oct	151145144040
    023042  aa   146157 162040    9786  	oct	146157162040
    023043  aa   114111 116101    9787  	oct	114111116101
    023044  aa   107105 040143    9788  	oct	107105040143
    023045  aa   154141 165163    9789  	oct	154141165163
    023046  aa   145040 122145    9790  	oct	145040122145
    023047  aa   144165 156144    9791  	oct	144165156144
    023050  aa   141156 164040    9792  	oct	141156164040
    023051  aa   106117 117124    9793  	oct	106117117124
    023052  aa   111116 107040    9794  	oct	111116107040
    023053  aa   160150 162141    9795  	oct	160150162141
    023054  aa   163145 040163    9796  	oct	163145040163
    023055  aa   160145 143151    9797  	oct	160145143151
    023056  aa   146151 145144    9798  	oct	146151145144
    023057  aa   040146 157162    9799  	oct	040146157162
    023060  aa   040114 111116    9800  	oct	040114111116
    023061  aa   101107 105040    9801  	oct	101107105040
    023062  aa   143154 141165    9802  	oct	143154141165
    023063  aa   163145 040105    9803  	oct	163145040105
    023064  aa   170160 145143    9804  	oct	170160145143
    023065  aa   164145 144040    9805  	oct	164145144040
    023066  aa   167157 162144    9806  	oct	167157162144
    023067  aa   040151 163040    9807  	oct	040151163040
    023070  aa   106117 117124    9808  	oct	106117117124
    023071  aa   111116 107040    9809  	oct	111116107040
    023072  aa   124150 145040    9810  	oct	124150145040
    023073  aa   106117 117124    9811  	oct	106117117124
    023074  aa   111116 107040    9812  	oct	111116107040
    023075  aa   151156 164145    9813  	oct	151156164145
    023076  aa   147145 162040    9814  	oct	147145162040
    023077  aa   155165 163164    9815  	oct	155165163164
    023100  aa   040156 157164    9816  	oct	040156157164
    023101  aa   040142 145040    9817  	oct	040142145040
    023102  aa   147162 145141    9818  	oct	147162145141
    023103  aa   164145 162040    9819  	oct	164145162040
    023104  aa   164150 141156    9820  	oct	164150141156
    023105  aa   040164 150145    9821  	oct	040164150145
    023106  aa   040102 117104    9822  	oct	040102117104
    023107  aa   131040 151156    9823  	oct	131040151156
    023110  aa   164145 147145    9824  	oct	164145147145
    023111  aa   162040 151156    9825  	oct	162040151156
    023112  aa   040114 111116    9826  	oct	040114111116
    023113  aa   101107 105040    9827  	oct	101107105040
    023114  aa   143154 141165    9828  	oct	143154141165
    023115  aa   163145 040124    9829  	oct	163145040124
    023116  aa   150145 040163    9830  	oct	150145040163
    023117  aa   165142 152145    9831  	oct	165142152145
    023120  aa   143164 040157    9832  	oct	143164040157
    023121  aa   146040 162145    9833  	oct	146040162145
    023122  aa   144145 146151    9834  	oct	144145146151
    023123  aa   156151 164151    9835  	oct	156151164151
    023124  aa   157156 040155    9836  	oct	157156040155
    023125  aa   165163 164040    9837  	oct	165163164040
    023126  aa   156157 164040    9838  	oct	156157164040
    023127  aa   142145 040106    9839  	oct	142145040106
    023130  aa   111114 114105    9840  	oct	111114114105
    023131  aa   122073 040151    9841  	oct	122073040151
    023132  aa   164040 151163    9842  	oct	164040151163
    023133  aa   040151 147156    9843  	oct	040151147156
    023134  aa   157162 145144    9844  	oct	157162145144
    023135  aa   040111 156040    9845  	oct	040111156040
    023136  aa   160162 145143    9846  	oct	160162145143
    023137  aa   145144 151156    9847  	oct	145144151156
    023140  aa   147040 126101    9848  	oct	147040126101
    023141  aa   114125 105040    9849  	oct	114125105040
    023142  aa   143154 141165    9850  	oct	143154141165
    023143  aa   163145 054040    9851  	oct	163145054040
    023144  aa   163145 143157    9852  	oct	163145143157
    023145  aa   156144 040166    9853  	oct	156144040166
    023146  aa   141154 165145    9854  	oct	141154165145
    023147  aa   040151 163040    9855  	oct	040151163040
    023150  aa   156157 164040    9856  	oct	156157164040
    023151  aa   147162 145141    9857  	oct	147162145141
    023152  aa   164145 162040    9858  	oct	164145162040
    023153  aa   164150 141156    9859  	oct	164150141156
    023154  aa   040146 151162    9860  	oct	040146151162
    023155  aa   163164 040126    9861  	oct	163164040126
    023156  aa   141154 165145    9862  	oct	141154165145
    023157  aa   040155 141171    9863  	oct	040155141171
    023160  aa   040142 145040    9864  	oct	040142145040
    023161  aa   154157 156147    9865  	oct	154157156147
    023162  aa   145162 040164    9866  	oct	145162040164
    023163  aa   150141 156040    9867  	oct	150141156040
    023164  aa   154145 156147    9868  	oct	154145156147
    023165  aa   164150 040157    9869  	oct	164150040157
    023166  aa   146040 144141    9870  	oct	146040144141
    023167  aa   164141 040151    9871  	oct	164141040151
    023170  aa   164145 155040    9872  	oct	164145155040
    023171  aa   111156 040160    9873  	oct	111156040160
    023172  aa   162145 143145    9874  	oct	162145143145
    023173  aa   144151 156147    9875  	oct	144151156147
    023174  aa   040126 101114    9876  	oct	040126101114
    023175  aa   125105 040143    9877  	oct	125105040143
    023176  aa   154141 165163    9878  	oct	154141165163
    023177  aa   145054 040163    9879  	oct	145054040163
    023200  aa   151147 156145    9880  	oct	151147156145
    023201  aa   144040 151164    9881  	oct	144040151164
    023202  aa   145155 040150    9882  	oct	145155040150
    023203  aa   141163 040165    9883  	oct	141163040165
    023204  aa   156163 151147    9884  	oct	156163151147
    023205  aa   156145 144040    9885  	oct	156145144040
    023206  aa   166141 154165    9886  	oct	166141154165
    023207  aa   145040 111156    9887  	oct	145040111156
    023210  aa   040160 162145    9888  	oct	040160162145
    023211  aa   143145 144151    9889  	oct	143145144151
    023212  aa   156147 040126    9890  	oct	156147040126
    023213  aa   101114 125105    9891  	oct	101114125105
    023214  aa   040143 154141    9892  	oct	040143154141
    023215  aa   165163 145054    9893  	oct	165163145054
    023216  aa   040156 165155    9894  	oct	040156165155
    023217  aa   145162 151143    9895  	oct	145162151143
    023220  aa   040144 141164    9896  	oct	040144141164
    023221  aa   141040 151164    9897  	oct	141040151164
    023222  aa   145155 040150    9898  	oct	145155040150
    023223  aa   141163 040156    9899  	oct	141163040156
    023224  aa   157156 156165    9900  	oct	157156156165
    023225  aa   155145 162151    9901  	oct	155145162151
    023226  aa   143040 166141    9902  	oct	143040166141
    023227  aa   154165 145040    9903  	oct	154165145040
    023230  aa   111156 040160    9904  	oct	111156040160
    023231  aa   162145 143145    9905  	oct	162145143145
    023232  aa   144151 156147    9906  	oct	144151156147
    023233  aa   040126 101114    9907  	oct	040126101114
    023234  aa   125105 040143    9908  	oct	125105040143
    023235  aa   154141 165163    9909  	oct	154141165163
    023236  aa   145054 040156    9910  	oct	145054040156
    023237  aa   157156 156165    9911  	oct	157156156165
    023240  aa   155145 162151    9912  	oct	155145162151
    023241  aa   143040 144141    9913  	oct	143040144141
    023242  aa   164141 040151    9914  	oct	164141040151
    023243  aa   164145 155040    9915  	oct	164145155040
    023244  aa   150141 163040    9916  	oct	150141163040
    023245  aa   156165 155145    9917  	oct	156165155145
    023246  aa   162151 143040    9918  	oct	162151143040
    023247  aa   166141 154165    9919  	oct	166141154165
    023250  aa   145040 111156    9920  	oct	145040111156
    023251  aa   166141 154151    9921  	oct	166141154151
    023252  aa   144040 143157    9922  	oct	144040143157
    023253  aa   144145 055163    9923  	oct	144145055163
    023254  aa   145164 040163    9924  	oct	145164040163
    023255  aa   160145 143151    9925  	oct	160145143151
    023256  aa   146151 145144    9926  	oct	146151145144
    023257  aa   040127 150145    9927  	oct	040127150145
    023260  aa   156040 106104    9928  	oct	156040106104
    023261  aa   040150 141163    9929  	oct	040150141163
    023262  aa   040112 111123    9930  	oct	040112111123
    023263  aa   040143 157144    9931  	oct	040143157144
    023264  aa   145055 163145    9932  	oct	145055163145
    023265  aa   164054 040163    9933  	oct	164054040163
    023266  aa   151147 156145    9934  	oct	151147156145
    023267  aa   144040 156165    9935  	oct	144040156165
    023270  aa   155145 162151    9936  	oct	155145162151
    023271  aa   143040 144141    9937  	oct	143040144141
    023272  aa   164141 040155    9938  	oct	164141040155
    023273  aa   165163 164040    9939  	oct	165163164040
    023274  aa   150141 166145    9940  	oct	150141166145
    023275  aa   040123 111107    9941  	oct	040123111107
    023276  aa   116040 111123    9942  	oct	116040111123
    023277  aa   040123 105120    9943  	oct	040123105120
    023300  aa   101122 101124    9944  	oct	101122101124
    023301  aa   105040 143154    9945  	oct	105040143154
    023302  aa   141165 163145    9946  	oct	141165163145
    023303  aa   040122 145143    9947  	oct	040122145143
    023304  aa   157162 144040    9948  	oct	157162144040
    023305  aa   143157 156164    9949  	oct	143157156164
    023306  aa   141151 156163    9950  	oct	141151156163
    023307  aa   056056 056144    9951  	oct	056056056144
    023310  aa   145160 145156    9952  	oct	145160145156
    023311  aa   144151 156147    9953  	oct	144151156147
    023312  aa   040157 156040    9954  	oct	040157156040
    023313  aa   163160 145143    9955  	oct	163160145143
    023314  aa   151146 151145    9956  	oct	151146151145
    023315  aa   144040 151156    9957  	oct	144040151156
    023316  aa   040106 104054    9958  	oct	040106104054
    023317  aa   040142 165164    9959  	oct	040142165164
    023320  aa   040146 151154    9960  	oct	040146151154
    023321  aa   145055 143157    9961  	oct	145055143157
    023322  aa   156164 162157    9962  	oct	156164162157
    023323  aa   154040 145156    9963  	oct	154040145156
    023324  aa   164162 171040    9964  	oct	164162171040
    023325  aa   163160 145143    9965  	oct	163160145143
    023326  aa   151146 151145    9966  	oct	151146151145
    023327  aa   163040 106114    9967  	oct	163040106114
    023330  aa   122040 124150    9968  	oct	122040124150
    023331  aa   145040 123111    9969  	oct	145040123111
    023332  aa   107116 040143    9970  	oct	107116040143
    023333  aa   154141 165163    9971  	oct	154141165163
    023334  aa   145040 155165    9972  	oct	145040155165
    023335  aa   163164 040142    9973  	oct	163164040142
    023336  aa   145040 141163    9974  	oct	145040141163
    023337  aa   163157 143151    9975  	oct	163157143151
    023340  aa   141164 145144    9976  	oct	141164145144
    023341  aa   040167 151164    9977  	oct	040167151164
    023342  aa   150040 141164    9978  	oct	150040141164
    023343  aa   040154 145141    9979  	oct	040154145141
    023344  aa   163164 040157    9980  	oct	163164040157
    023345  aa   156145 040156    9981  	oct	156145040156
    023346  aa   165155 145162    9982  	oct	165155145162
    023347  aa   151143 040151    9983  	oct	151143040151
    023350  aa   164145 155040    9984  	oct	164145155040
    023351  aa   167151 164150    9985  	oct	167151164150
    023352  aa   040160 151143    9986  	oct	040160151143
    023353  aa   164165 162145    9987  	oct	164165162145
    023354  aa   040143 157156    9988  	oct	040143157156
    023355  aa   164141 151156    9989  	oct	164141151156
    023356  aa   151156 147040    9990  	oct	151156147040
    023357  aa   123040 122145    9991  	oct	123040122145
    023360  aa   143157 162144    9992  	oct	143157162144
    023361  aa   040104 145163    9993  	oct	040104145163
    023362  aa   143162 151160    9994  	oct	143162151160
    023363  aa   164151 157156    9995  	oct	164151157156
    023364  aa   040141 163163    9996  	oct	040141163163
    023365  aa   165155 145144    9997  	oct	165155145144
    023366  aa   040164 157040    9998  	oct	040164157040
    023367  aa   142145 040144    9999  	oct	142145040144
    023370  aa   141164 141040   10000  	oct	141164141040
    023371  aa   162145 143157   10001  	oct	162145143157
    023372  aa   162144 040146   10002  	oct	162144040146
    023373  aa   157162 040160   10003  	oct	157162040160
    023374  aa   162145 143145   10004  	oct	162145143145
    023375  aa   144151 156147   10005  	oct	144151156147
    023376  aa   040106 104040   10006  	oct	040106104040
    023377  aa   101040 154141   10007  	oct	101040154141
    023400  aa   142145 154040   10008  	oct	142145154040
    023401  aa   162145 143157   10009  	oct	162145143157
    023402  aa   162144 040163   10010  	oct	162144040163
    023403  aa   160145 143151   10011  	oct	160145143151
    023404  aa   146151 145144   10012  	oct	146151145144
    023405  aa   040151 156040   10013  	oct	040151156040
    023406  aa   164150 145040   10014  	oct	164150145040
    023407  aa   106151 154145   10015  	oct	106151154145
    023410  aa   040123 145143   10016  	oct	040123145143
    023411  aa   164151 157156   10017  	oct	164151157156
    023412  aa   040167 141163   10018  	oct	040167141163
    023413  aa   040156 157164   10019  	oct	040156157164
    023414  aa   040144 145146   10020  	oct	040144145146
    023415  aa   151156 145144   10021  	oct	151156145144
    023416  aa   040142 171040   10022  	oct	040142171040
    023417  aa   141040 122145   10023  	oct	141040122145
    023420  aa   143157 162144   10024  	oct	143157162144
    023421  aa   040104 145163   10025  	oct	040104145163
    023422  aa   143162 151160   10026  	oct	143162151160
    023423  aa   164151 157156   10027  	oct	164151157156
    023424  aa   040145 156164   10028  	oct	040145156164
    023425  aa   162171 040101   10029  	oct	162171040101
    023426  aa   040144 141164   10030  	oct	040144141164
    023427  aa   141040 162145   10031  	oct	141040162145
    023430  aa   143157 162144   10032  	oct	143157162144
    023431  aa   040163 160145   10033  	oct	040163160145
    023432  aa   143151 146151   10034  	oct	143151146151
    023433  aa   145144 040151   10035  	oct	145144040151
    023434  aa   156040 141040   10036  	oct	156040141040
    023435  aa   144141 164141   10037  	oct	144141164141
    023436  aa   040162 145143   10038  	oct	040162145143
    023437  aa   157162 144040   10039  	oct	157162144040
    023440  aa   143154 141165   10040  	oct	143154141165
    023441  aa   163145 040167   10041  	oct	163145040167
    023442  aa   141163 040156   10042  	oct	141163040156
    023443  aa   157164 040163   10043  	oct	157164040163
    023444  aa   165142 163145   10044  	oct	165142163145
    023445  aa   161165 145156   10045  	oct	161165145156
    023446  aa   164154 171040   10046  	oct	164154171040
    023447  aa   144145 146151   10047  	oct	144145146151
    023450  aa   156145 144040   10048  	oct	156145144040
    023451  aa   142171 040141   10049  	oct	142171040141
    023452  aa   040162 145143   10050  	oct	040162145143
    023453  aa   157162 144040   10051  	oct	157162144040
    023454  aa   144145 163143   10052  	oct	144145163143
    023455  aa   162151 160164   10053  	oct	162151160164
    023456  aa   151157 156040   10054  	oct	151157156040
    023457  aa   145156 164162   10055  	oct	145156164162
    023460  aa   171040 124150   10056  	oct	171040124150
    023461  aa   145040 154145   10057  	oct	145040154145
    023462  aa   156147 164150   10058  	oct	156147164150
    023463  aa   040157 146040   10059  	oct	040157146040
    023464  aa   164150 151163   10060  	oct	164150151163
    023465  aa   040141 154160   10061  	oct	040141154160
    023466  aa   150141 156165   10062  	oct	150141156165
    023467  aa   155145 162151   10063  	oct	155145162151
    023470  aa   143040 154151   10064  	oct	143040154151
    023471  aa   164145 162141   10065  	oct	164145162141
    023472  aa   154040 155165   10066  	oct	154040155165
    023473  aa   163164 040156   10067  	oct	163164040156
    023474  aa   157164 040145   10068  	oct	157164040145
    023475  aa   170143 145145   10069  	oct	170143145145
    023476  aa   144040 061067   10070  	oct	144040061067
    023477  aa   040143 150141   10071  	oct	040143150141
    023500  aa   162141 143164   10072  	oct	162141143164
    023501  aa   145162 163040   10073  	oct	145162163040
    023502  aa   110151 145162   10074  	oct	110151145162
    023503  aa   141162 143150   10075  	oct	141162143150
    023504  aa   171040 164141   10076  	oct	171040164141
    023505  aa   142154 145040   10077  	oct	142154145040
    023506  aa   157166 145162   10078  	oct	157166145162
    023507  aa   146154 157167   10079  	oct	146154157167
    023510  aa   040111 156144   10080  	oct	040111156144
    023511  aa   145170 055156   10081  	oct	145170055156
    023512  aa   141155 145040   10082  	oct	141155145040
    023513  aa   164141 142154   10083  	oct	164141142154
    023514  aa   145040 157166   10084  	oct	145040157166
    023515  aa   145162 146154   10085  	oct	145162146154
    023516  aa   157167 040105   10086  	oct	157167040105
    023517  aa   170160 145143   10087  	oct	170160145143
    023520  aa   164145 144040   10088  	oct	164145144040
    023521  aa   167157 162144   10089  	oct	167157162144
    023522  aa   040151 163040   10090  	oct	040151163040
    023523  aa   104105 120105   10091  	oct	104105120105
    023524  aa   116104 111116   10092  	oct	116104111116
    023525  aa   107040 124150   10093  	oct	107040124150
    023526  aa   145040 103117   10094  	oct	145040103117
    023527  aa   104105 055123   10095  	oct	104105055123
    023530  aa   105124 040143   10096  	oct	105124040143
    023531  aa   154141 165163   10097  	oct	154141165163
    023532  aa   145040 157156   10098  	oct	145040157156
    023533  aa   040106 104040   10099  	oct	040106104040
    023534  aa   163150 157165   10100  	oct	163150157165
    023535  aa   154144 040142   10101  	oct	154144040142
    023536  aa   145040 141143   10102  	oct	145040141143
    023537  aa   143157 155160   10103  	oct	143157155160
    023540  aa   141156 151145   10104  	oct	141156151145
    023541  aa   144040 142171   10105  	oct	144040142171
    023542  aa   040123 111107   10106  	oct	040123111107
    023543  aa   116040 111123   10107  	oct	116040111123
    023544  aa   040123 105120   10108  	oct	040123105120
    023545  aa   101122 101124   10109  	oct	101122101124
    023546  aa   105040 146157   10110  	oct	105040146157
    023547  aa   162040 163151   10111  	oct	162040163151
    023550  aa   147156 145144   10112  	oct	147156145144
    023551  aa   040156 165155   10113  	oct	040156165155
    023552  aa   145162 151143   10114  	oct	145162151143
    023553  aa   040144 141164   10115  	oct	040144141164
    023554  aa   141040 127150   10116  	oct	141040127150
    023555  aa   145156 040106   10117  	oct	145156040106
    023556  aa   104040 150141   10118  	oct	104040150141
    023557  aa   163040 112111   10119  	oct	163040112111
    023560  aa   123040 143157   10120  	oct	123040143157
    023561  aa   144145 055163   10121  	oct	144145055163
    023562  aa   145164 054040   10122  	oct	145164054040
    023563  aa   144141 164141   10123  	oct	144141164141
    023564  aa   040155 165163   10124  	oct	040155165163
    023565  aa   164040 142145   10125  	oct	164040142145
    023566  aa   040125 123101   10126  	oct	040125123101
    023567  aa   107105 040111   10127  	oct	107105040111
    023570  aa   123040 104111   10128  	oct	123040104111
    023571  aa   123120 114101   10129  	oct	123120114101
    023572  aa   131040 124150   10130  	oct	131040124150
    023573  aa   145040 103117   10131  	oct	145040103117
    023574  aa   104105 055123   10132  	oct	104105055123
    023575  aa   105124 040143   10133  	oct	105124040143
    023576  aa   154141 165163   10134  	oct	154141165163
    023577  aa   145040 157156   10135  	oct	145040157156
    023600  aa   040106 104040   10136  	oct	040106104040
    023601  aa   163150 157165   10137  	oct	163150157165
    023602  aa   154144 040142   10138  	oct	154144040142
    023603  aa   145040 141143   10139  	oct	145040141143
    023604  aa   143157 155160   10140  	oct	143157155160
    023605  aa   141156 151145   10141  	oct	141156151145
    023606  aa   144040 142171   10142  	oct	144040142171
    023607  aa   040125 123101   10143  	oct	040125123101
    023610  aa   107105 040111   10144  	oct	107105040111
    023611  aa   123040 104111   10145  	oct	123040104111
    023612  aa   123120 114101   10146  	oct	123120114101
    023613  aa   131040 146157   10147  	oct	131040146157
    023614  aa   162040 141154   10148  	oct	162040141154
    023615  aa   154040 144141   10149  	oct	154040144141
    023616  aa   164141 040125   10150  	oct	164141040125
    023617  aa   123101 107105   10151  	oct	123101107105
    023620  aa   040111 123040   10152  	oct	040111123040
    023621  aa   103117 115120   10153  	oct	103117115120
    023622  aa   040157 162040   10154  	oct	040157162040
    023623  aa   103117 115120   10155  	oct	103117115120
    023624  aa   055063 040162   10156  	oct	055063040162
    023625  aa   145161 165151   10157  	oct	145161165151
    023626  aa   162145 163040   10158  	oct	162145163040
    023627  aa   163151 147156   10159  	oct	163151147156
    023630  aa   145144 040120   10160  	oct	145144040120
    023631  aa   111103 124125   10161  	oct	111103124125
    023632  aa   122105 040104   10162  	oct	122105040104
    023633  aa   145163 164151   10163  	oct	145163164151
    023634  aa   156141 164151   10164  	oct	156141164151
    023635  aa   157156 040164   10165  	oct	157156040164
    023636  aa   141142 154145   10166  	oct	141142154145
    023637  aa   040155 165163   10167  	oct	040155165163
    023640  aa   164040 157143   10168  	oct	164040157143
    023641  aa   143165 162040   10169  	oct	143165162040
    023642  aa   157156 154171   10170  	oct	157156154171
    023643  aa   040061 040164   10171  	oct	040061040164
    023644  aa   151155 145040   10172  	oct	151155145040
    023645  aa   151156 040164   10173  	oct	151156040164
    023646  aa   150151 163040   10174  	oct	150151163040
    023647  aa   151155 160154   10175  	oct	151155160154
    023650  aa   145155 145156   10176  	oct	145155145156
    023651  aa   164141 164151   10177  	oct	164141164151
    023652  aa   157156 040103   10178  	oct	157156040103
    023653  aa   104040 154145   10179  	oct	104040154145
    023654  aa   156147 164150   10180  	oct	156147164150
    023655  aa   040145 162162   10181  	oct	040145162162
    023656  aa   157162 040117   10182  	oct	157162040117
    023657  aa   142163 157154   10183  	oct	142163157154
    023660  aa   145164 145040   10184  	oct	145164145040
    023661  aa   165163 141147   10185  	oct	165163141147
    023662  aa   145040 157146   10186  	oct	145040157146
    023663  aa   040151 155160   10187  	oct	040151155160
    023664  aa   154145 155145   10188  	oct	154145155145
    023665  aa   156164 157162   10189  	oct	156164157162
    023666  aa   055156 141155   10190  	oct	055156141155
    023667  aa   145040 151156   10191  	oct	145040151156
    023670  aa   040103 117104   10192  	oct	040103117104
    023671  aa   105055 123105   10193  	oct	105055123105
    023672  aa   124040 143154   10194  	oct	124040143154
    023673  aa   141165 163145   10195  	oct	141165163145
    023674  aa   073040 151164   10196  	oct	073040151164
    023675  aa   040163 150157   10197  	oct	040163150157
    023676  aa   165154 144040   10198  	oct	165154144040
    023677  aa   142145 040144   10199  	oct	142145040144
    023700  aa   145146 151156   10200  	oct	145146151156
    023701  aa   145144 040141   10201  	oct	145144040141
    023702  aa   163040 141040   10202  	oct	163040141040
    023703  aa   155156 145155   10203  	oct	155156145155
    023704  aa   157156 151143   10204  	oct	157156151143
    023705  aa   055156 141155   10205  	oct	055156141155
    023706  aa   145040 124150   10206  	oct	145040124150
    023707  aa   145040 146151   10207  	oct	145040146151
    023710  aa   147165 162141   10208  	oct	147165162141
    023711  aa   164151 166145   10209  	oct	164151166145
    023712  aa   040143 157156   10210  	oct	040143157156
    023713  aa   163164 141156   10211  	oct	163164141156
    023714  aa   164040 101114   10212  	oct	164040101114
    023715  aa   114040 155165   10213  	oct	114040155165
    023716  aa   163164 040156   10214  	oct	163164040156
    023717  aa   157164 040142   10215  	oct	157164040142
    023720  aa   145040 165163   10216  	oct	145040165163
    023721  aa   145144 040167   10217  	oct	145144040167
    023722  aa   151164 150040   10218  	oct	151164150040
    023723  aa   141040 156165   10219  	oct	141040156165
    023724  aa   155145 162151   10220  	oct	155145162151
    023725  aa   143040 154151   10221  	oct	143040154151
    023726  aa   164145 162141   10222  	oct	164145162141
    023727  aa   154040 124150   10223  	oct	154040124150
    023730  aa   151163 040162   10224  	oct	151163040162
    023731  aa   145154 145141   10225  	oct	145154145141
    023732  aa   163145 040162   10226  	oct	163145040162
    023733  aa   145161 165151   10227  	oct	145161165151
    023734  aa   162145 163040   10228  	oct	162145163040
    023735  aa   163145 160141   10229  	oct	163145160141
    023736  aa   162141 164145   10230  	oct	162141164145
    023737  aa   040163 151147   10231  	oct	040163151147
    023740  aa   156040 146157   10232  	oct	156040146157
    023741  aa   162040 163151   10233  	oct	162040163151
    023742  aa   147156 145144   10234  	oct	147156145144
    023743  aa   040156 165155   10235  	oct	040156165155
    023744  aa   145162 151143   10236  	oct	145162151143
    023745  aa   040151 164145   10237  	oct	040151164145
    023746  aa   155163 040124   10238  	oct	155163040124
    023747  aa   150151 163040   10239  	oct	150151163040
    023750  aa   146145 141164   10240  	oct	146145141164
    023751  aa   165162 145040   10241  	oct	165162145040
    023752  aa   151163 040156   10242  	oct	151163040156
    023753  aa   157164 040163   10243  	oct	157164040163
    023754  aa   165160 160157   10244  	oct	165160160157
    023755  aa   162164 145144   10245  	oct	162164145144
    023756  aa   040151 156040   10246  	oct	040151156040
    023757  aa   164150 151163   10247  	oct	164150151163
    023760  aa   040162 145154   10248  	oct	040162145154
    023761  aa   145141 163145   10249  	oct	145141163145
    023762  aa   073040 151164   10250  	oct	073040151164
    023763  aa   040151 163040   10251  	oct	040151163040
    023764  aa   151147 156157   10252  	oct	151147156157
    023765  aa   162145 144040   10253  	oct	162145144040
    023766  aa   105122 122117   10254  	oct	105122122117
    023767  aa   122062 060070   10255  	oct	122062060070
    023770  aa   054040 143157   10256  	oct	054040143157
    023771  aa   155160 151154   10257  	oct	155160151154
    023772  aa   145162 040142   10258  	oct	145162040142
    023773  aa   165147 040116   10259  	oct	165147040116
    023774  aa   157164 040163   10260  	oct	157164040163
    023775  aa   165160 160157   10261  	oct	165160160157
    023776  aa   162164 145144   10262  	oct	162164145144
    023777  aa   040151 156040   10263  	oct	040151156040
    024000  aa   164150 151163   10264  	oct	164150151163
    024001  aa   040162 145154   10265  	oct	040162145154
    024002  aa   145141 163145   10266  	oct	145141163145
    024003  aa   040114 141142   10267  	oct	040114141142
    024004  aa   145154 040162   10268  	oct	145154040162
    024005  aa   145143 157162   10269  	oct	145143157162
    024006  aa   144040 146157   10270  	oct	144040146157
    024007  aa   162155 141164   10271  	oct	162155141164
    024010  aa   040156 157164   10272  	oct	040156157164
    024011  aa   040163 165160   10273  	oct	040163165160
    024012  aa   160157 162164   10274  	oct	160157162164
    024013  aa   145144 040142   10275  	oct	145144040142
    024014  aa   171040 164150   10276  	oct	171040164150
    024015  aa   151163 040162   10277  	oct	151163040162
    024016  aa   145154 145141   10278  	oct	145154145141
    024017  aa   163145 040111   10279  	oct	163145040111
    024020  aa   156040 164150   10280  	oct	156040164150
    024021  aa   145040 160162   10281  	oct	145040160162
    024022  aa   145143 145144   10282  	oct	145143145144
    024023  aa   151156 147040   10283  	oct	151156147040
    024024  aa   126101 114125   10284  	oct	126101114125
    024025  aa   105040 143154   10285  	oct	105040143154
    024026  aa   141165 163145   10286  	oct	141165163145
    024027  aa   054040 165156   10287  	oct	054040165156
    024030  aa   163151 147156   10288  	oct	163151147156
    024031  aa   145144 040151   10289  	oct	145144040151
    024032  aa   164145 155040   10290  	oct	164145155040
    024033  aa   150141 163040   10291  	oct	150141163040
    024034  aa   163151 147156   10292  	oct	163151147156
    024035  aa   145144 040166   10293  	oct	145144040166
    024036  aa   141154 165145   10294  	oct	141154165145
    024037  aa   040124 150151   10295  	oct	040124150151
    024040  aa   163040 151164   10296  	oct	163040151164
    024041  aa   145155 040155   10297  	oct	145155040155
    024042  aa   165163 164040   10298  	oct	165163164040
    024043  aa   142145 040141   10299  	oct	142145040141
    024044  aa   156040 165156   10300  	oct	156040165156
    024045  aa   163151 147156   10301  	oct	163151147156
    024046  aa   145144 040151   10302  	oct	145144040151
    024047  aa   156164 145147   10303  	oct	156164145147
    024050  aa   145162 040143   10304  	oct	145162040143
    024051  aa   157156 164141   10305  	oct	157156164141
    024052  aa   151156 151156   10306  	oct	151156151156
    024053  aa   147040 164150   10307  	oct	147040164150
    024054  aa   162145 145040   10308  	oct	162145145040
    024055  aa   157162 040146   10309  	oct	157162040146
    024056  aa   145167 145162   10310  	oct	145167145162
    024057  aa   040144 151147   10311  	oct	040144151147
    024060  aa   151164 163040   10312  	oct	151164163040
    024061  aa   124150 145040   10313  	oct	124150145040
    024062  aa   167157 162144   10314  	oct	167157162144
    024063  aa   040132 105122   10315  	oct	040132105122
    024064  aa   117040 151163   10316  	oct	117040151163
    024065  aa   040162 145161   10317  	oct	040162145161
    024066  aa   165151 162145   10318  	oct	165151162145
    024067  aa   144040 150145   10319  	oct	144040150145
    024070  aa   162145 040124   10320  	oct	162145040124
    024071  aa   150151 163040   10321  	oct	150151163040
    024072  aa   126101 114125   10322  	oct	126101114125
    024073  aa   105040 143154   10323  	oct	105040143154
    024074  aa   141165 163145   10324  	oct	141165163145
    024075  aa   040151 163040   10325  	oct	040151163040
    024076  aa   151156 166141   10326  	oct	151156166141
    024077  aa   154151 144073   10327  	oct	154151144073
    024100  aa   040143 154141   10328  	oct	040143154141
    024101  aa   165163 145040   10329  	oct	165163145040
    024102  aa   151147 156157   10330  	oct	151147156157
    024103  aa   162145 144040   10331  	oct	162145144040
    024104  aa   125163 145040   10332  	oct	125163145040
    024105  aa   157146 040145   10333  	oct	157146040145
    024106  aa   170164 145156   10334  	oct	170164145156
    024107  aa   144145 144040   10335  	oct	144145144040
    024110  aa   163151 155160   10336  	oct	163151155160
    024111  aa   154145 040151   10337  	oct	154145040151
    024112  aa   156163 145162   10338  	oct	156163145162
    024113  aa   164151 157156   10339  	oct	164151157156
    024114  aa   040143 150141   10340  	oct	040143150141
    024115  aa   162141 143164   10341  	oct	162141143164
    024116  aa   145162 163040   10342  	oct	145162163040
    024117  aa   151156 040164   10343  	oct	151156040164
    024120  aa   150151 163040   10344  	oct	150151163040
    024121  aa   120111 103124   10345  	oct	120111103124
    024122  aa   125122 105040   10346  	oct	125122105040
    024123  aa   151163 040141   10347  	oct	151163040141
    024124  aa   156040 145170   10348  	oct	156040145170
    024125  aa   164145 156163   10349  	oct	164145156163
    024126  aa   151157 156040   10350  	oct	151157156040
    024127  aa   164157 040101   10351  	oct	164157040101
    024130  aa   116123 040103   10352  	oct	116123040103
    024131  aa   117102 117114   10353  	oct	117102117114
    024132  aa   055067 064040   10354  	oct	055067064040
    024133  aa   124150 151163   10355  	oct	124150151163
    024134  aa   040154 145166   10356  	oct	040154145166
    024135  aa   145154 040156   10357  	oct	145154040156
    024136  aa   165155 142145   10358  	oct	165155142145
    024137  aa   162040 151163   10359  	oct	162040151163
    024140  aa   040151 154154   10360  	oct	040151154154
    024141  aa   145147 141154   10361  	oct	145147141154
    024142  aa   054040 151164   10362  	oct	054040151164
    024143  aa   040151 163040   10363  	oct	040151163040
    024144  aa   164162 145141   10364  	oct	164162145141
    024145  aa   164145 144040   10365  	oct	164145144040
    024146  aa   141163 040141   10366  	oct	141163040141
    024147  aa   156040 165156   10367  	oct	156040165156
    024150  aa   163151 147156   10368  	oct	163151147156
    024151  aa   145144 040160   10369  	oct	145144040160
    024152  aa   157163 151164   10370  	oct	157163151164
    024153  aa   151166 145040   10371  	oct	151166145040
    024154  aa   151156 164145   10372  	oct	151156164145
    024155  aa   147145 162040   10373  	oct	147145162040
    024156  aa   125163 145040   10374  	oct	125163145040
    024157  aa   157146 040060   10375  	oct	157146040060
    024160  aa   040141 163040   10376  	oct	040141163040
    024161  aa   141040 154157   10377  	oct	141040154157
    024162  aa   167145 162040   10378  	oct	167145162040
    024163  aa   154151 155151   10379  	oct	154151155151
    024164  aa   164040 151156   10380  	oct	164040151156
    024165  aa   040141 040166   10381  	oct	040141040166
    024166  aa   141162 151141   10382  	oct	141162151141
    024167  aa   142154 145040   10383  	oct	142154145040
    024170  aa   157143 143165   10384  	oct	157143143165
    024171  aa   162162 145156   10385  	oct	162162145156
    024172  aa   143145 040151   10386  	oct	143145040151
    024173  aa   164145 155040   10387  	oct	164145155040
    024174  aa   151163 040141   10388  	oct	151163040141
    024175  aa   156040 145170   10389  	oct	156040145170
    024176  aa   164145 156163   10390  	oct	164145156163
    024177  aa   151157 156040   10391  	oct	151157156040
    024200  aa   164157 040101   10392  	oct	164157040101
    024201  aa   116123 040103   10393  	oct	116123040103
    024202  aa   117102 117114   10394  	oct	117102117114
    024203  aa   055067 064040   10395  	oct	055067064040
    024204  aa   124150 151163   10396  	oct	124150151163
    024205  aa   040156 165155   10397  	oct	040156165155
    024206  aa   145162 151143   10398  	oct	145162151143
    024207  aa   040154 151164   10399  	oct	040154151164
    024210  aa   145162 141154   10400  	oct	145162141154
    024211  aa   040143 157156   10401  	oct	040143157156
    024212  aa   164141 151156   10402  	oct	164141151156
    024213  aa   163040 155157   10403  	oct	163040155157
    024214  aa   162145 040164   10404  	oct	162145040164
    024215  aa   150141 156040   10405  	oct	150141156040
    024216  aa   061070 040144   10406  	oct	061070040144
    024217  aa   151147 151164   10407  	oct	151147151164
    024220  aa   163040 124150   10408  	oct	163040124150
    024221  aa   151163 040167   10409  	oct	151163040167
    024222  aa   157162 144040   10410  	oct	157162144040
    024223  aa   163150 157165   10411  	oct	163150157165
    024224  aa   154144 040142   10412  	oct	154144040142
    024225  aa   145147 151156   10413  	oct	145147151156
    024226  aa   040151 156040   10414  	oct	040151156040
    024227  aa   141162 145141   10415  	oct	141162145141
    024230  aa   040101 040124   10416  	oct	040101040124
    024231  aa   150145 040157   10417  	oct	150145040157
    024232  aa   142152 145143   10418  	oct	142152145143
    024233  aa   164040 157146   10419  	oct	164040157146
    024234  aa   040162 145144   10420  	oct	040162145144
    024235  aa   145146 151156   10421  	oct	145146151156
    024236  aa   151164 151157   10422  	oct	151164151157
    024237  aa   156040 150141   10423  	oct	156040150141
    024240  aa   163040 156157   10424  	oct	163040156157
    024241  aa   164040 142145   10425  	oct	164040142145
    024242  aa   145156 040160   10426  	oct	145156040160
    024243  aa   162145 166151   10427  	oct	162145166151
    024244  aa   157165 163154   10428  	oct	157165163154
    024245  aa   171040 144145   10429  	oct	171040144145
    024246  aa   146151 156145   10430  	oct	146151156145
    024247  aa   144040 101040   10431  	oct	144040101040
    024250  aa   143141 164141   10432  	oct	143141164141
    024251  aa   154157 147165   10433  	oct	154157147165
    024252  aa   145040 156141   10434  	oct	145040156141
    024253  aa   155145 040150   10435  	oct	155145040150
    024254  aa   141163 040142   10436  	oct	141163040142
    024255  aa   145145 156040   10437  	oct	145145156040
    024256  aa   160162 145166   10438  	oct	160162145166
    024257  aa   151157 165163   10439  	oct	151157165163
    024260  aa   154171 040163   10440  	oct	154171040163
    024261  aa   160145 143151   10441  	oct	160145143151
    024262  aa   146151 145144   10442  	oct	146151145144
    024263  aa   040124 150145   10443  	oct	040124150145
    024264  aa   040154 145156   10444  	oct	040154145156
    024265  aa   147164 150040   10445  	oct	147164150040
    024266  aa   157146 040164   10446  	oct	157146040164
    024267  aa   150145 040154   10447  	oct	150145040154
    024270  aa   151164 145162   10448  	oct	151164145162
    024271  aa   141154 040145   10449  	oct	141154040145
    024272  aa   170143 145145   10450  	oct	170143145145
    024273  aa   144163 040061   10451  	oct	144163040061
    024274  aa   066070 040143   10452  	oct	066070040143
    024275  aa   150141 162141   10453  	oct	150141162141
    024276  aa   143164 145162   10454  	oct	143164145162
    024277  aa   163054 040151   10455  	oct	163054040151
    024300  aa   164040 151163   10456  	oct	164040151163
    024301  aa   040142 145151   10457  	oct	040142145151
    024302  aa   156147 040164   10458  	oct	156147040164
    024303  aa   162165 156143   10459  	oct	162165156143
    024304  aa   141164 145144   10460  	oct	141164145144
    024305  aa   040101 156040   10461  	oct	040101156040
    024306  aa   151154 154145   10462  	oct	151154154145
    024307  aa   147141 154040   10463  	oct	147141154040
    024310  aa   166141 154165   10464  	oct	166141154165
    024311  aa   145040 150141   10465  	oct	145040150141
    024312  aa   163040 142145   10466  	oct	163040142145
    024313  aa   145156 040163   10467  	oct	145156040163
    024314  aa   160145 143151   10468  	oct	160145143151
    024315  aa   146151 145144   10469  	oct	146151145144
    024316  aa   040146 157162   10470  	oct	040146157162
    024317  aa   040141 040154   10471  	oct	040141040154
    024320  aa   141142 145154   10472  	oct	141142145154
    024321  aa   040146 151145   10473  	oct	040146151145
    024322  aa   154144 040103   10474  	oct	154144040103
    024323  aa   154141 165163   10475  	oct	154141165163
    024324  aa   145040 156157   10476  	oct	145040156157
    024325  aa   164040 141154   10477  	oct	164040141154
    024326  aa   154157 167145   10478  	oct	154157167145
    024327  aa   144040 167151   10479  	oct	144040167151
    024330  aa   164150 040164   10480  	oct	164150040164
    024331  aa   150145 040146   10481  	oct	150145040146
    024332  aa   151154 145040   10482  	oct	151154145040
    024333  aa   157162 147141   10483  	oct	157162147141
    024334  aa   156151 172141   10484  	oct	156151172141
    024335  aa   164151 157156   10485  	oct	164151157156
    024336  aa   040101 040067   10486  	oct	040101040067
    024337  aa   067040 154145   10487  	oct	067040154145
    024340  aa   166145 154040   10488  	oct	166145154040
    024341  aa   145156 164162   10489  	oct	145156164162
    024342  aa   171040 155141   10490  	oct	171040155141
    024343  aa   171040 156157   10491  	oct	171040156157
    024344  aa   164040 142145   10492  	oct	164040142145
    024345  aa   040141 040147   10493  	oct	040141040147
    024346  aa   162157 165160   10494  	oct	162157165160
    024347  aa   040151 164145   10495  	oct	040151164145
    024350  aa   155040 101040   10496  	oct	155040101040
    024351  aa   162145 143157   10497  	oct	162145143157
    024352  aa   162144 040144   10498  	oct	162144040144
    024353  aa   145163 143162   10499  	oct	145163143162
    024354  aa   151160 164151   10500  	oct	151160164151
    024355  aa   157156 040143   10501  	oct	157156040143
    024356  aa   154141 165163   10502  	oct	154141165163
    024357  aa   145040 167141   10503  	oct	145040167141
    024360  aa   163040 145170   10504  	oct	163040145170
    024361  aa   160145 143164   10505  	oct	160145143164
    024362  aa   145144 040124   10506  	oct	145144040124
    024363  aa   150145 040143   10507  	oct	150145040143
    024364  aa   154141 165163   10508  	oct	154141165163
    024365  aa   145040 150141   10509  	oct	145040150141
    024366  aa   163040 160162   10510  	oct	163040160162
    024367  aa   145166 151157   10511  	oct	145166151157
    024370  aa   165163 154171   10512  	oct	165163154171
    024371  aa   040141 160160   10513  	oct	040141160160
    024372  aa   145141 162145   10514  	oct	145141162145
    024373  aa   144054 040151   10515  	oct	144054040151
    024374  aa   164040 151163   10516  	oct	164040151163
    024375  aa   040142 145151   10517  	oct	040142145151
    024376  aa   156147 040151   10518  	oct	156147040151
    024377  aa   147156 157162   10519  	oct	147156157162
    024400  aa   145144 040124   10520  	oct	145144040124
    024401  aa   150151 163040   10521  	oct	150151163040
    024402  aa   143154 141165   10522  	oct	143154141165
    024403  aa   163145 040151   10523  	oct	163145040151
    024404  aa   163040 151154   10524  	oct	163040151154
    024405  aa   154145 147141   10525  	oct	154145147141
    024406  aa   154040 151156   10526  	oct	154040151156
    024407  aa   040141 040106   10527  	oct	040141040106
    024410  aa   157162 155141   10528  	oct	157162155141
    024411  aa   164040 061040   10529  	oct	164040061040
    024412  aa   122145 160157   10530  	oct	122145160157
    024413  aa   162164 040107   10531  	oct	162164040107
    024414  aa   162157 165160   10532  	oct	162157165160
    024415  aa   040104 145163   10533  	oct	040104145163
    024416  aa   143162 151160   10534  	oct	143162151160
    024417  aa   164151 157156   10535  	oct	164151157156
    024420  aa   040105 156164   10536  	oct	040105156164
    024421  aa   162171 040124   10537  	oct	162171040124
    024422  aa   150151 163040   10538  	oct	150151163040
    024423  aa   143154 141165   10539  	oct	143154141165
    024424  aa   163145 040151   10540  	oct	163145040151
    024425  aa   163040 151154   10541  	oct	163040151154
    024426  aa   154145 147141   10542  	oct	154145147141
    024427  aa   154040 151156   10543  	oct	154040151156
    024430  aa   040141 040106   10544  	oct	040141040106
    024431  aa   157162 155141   10545  	oct	157162155141
    024432  aa   164040 062040   10546  	oct	164040062040
    024433  aa   122145 160157   10547  	oct	122145160157
    024434  aa   162164 040107   10548  	oct	162164040107
    024435  aa   162157 165160   10549  	oct	162157165160
    024436  aa   040104 145163   10550  	oct	040104145163
    024437  aa   143162 151160   10551  	oct	143162151160
    024440  aa   164151 157156   10552  	oct	164151157156
    024441  aa   040105 156164   10553  	oct	040105156164
    024442  aa   162171 040124   10554  	oct	162171040124
    024443  aa   150151 163040   10555  	oct	150151163040
    024444  aa   143154 141165   10556  	oct	143154141165
    024445  aa   163145 040151   10557  	oct	163145040151
    024446  aa   163040 151154   10558  	oct	163040151154
    024447  aa   154145 147141   10559  	oct	154145147141
    024450  aa   154040 151156   10560  	oct	154040151156
    024451  aa   040141 040106   10561  	oct	040141040106
    024452  aa   157162 155141   10562  	oct	157162155141
    024453  aa   164040 063040   10563  	oct	164040063040
    024454  aa   122145 160157   10564  	oct	122145160157
    024455  aa   162164 040107   10565  	oct	162164040107
    024456  aa   162157 165160   10566  	oct	162157165160
    024457  aa   040104 145163   10567  	oct	040104145163
    024460  aa   143162 151160   10568  	oct	143162151160
    024461  aa   164151 157156   10569  	oct	164151157156
    024462  aa   040105 156164   10570  	oct	040105156164
    024463  aa   162171 040124   10571  	oct	162171040124
    024464  aa   150151 163040   10572  	oct	150151163040
    024465  aa   143154 141165   10573  	oct	143154141165
    024466  aa   163145 040155   10574  	oct	163145040155
    024467  aa   141171 040157   10575  	oct	141171040157
    024470  aa   156154 171040   10576  	oct	156154171040
    024471  aa   157143 143165   10577  	oct	157143143165
    024472  aa   162040 151156   10578  	oct	162040151156
    024473  aa   040141 040106   10579  	oct	040141040106
    024474  aa   157162 155141   10580  	oct	157162155141
    024475  aa   164040 061040   10581  	oct	164040061040
    024476  aa   122145 160157   10582  	oct	122145160157
    024477  aa   162164 040107   10583  	oct	162164040107
    024500  aa   162157 165160   10584  	oct	162157165160
    024501  aa   040104 145163   10585  	oct	040104145163
    024502  aa   143162 151160   10586  	oct	143162151160
    024503  aa   164151 157156   10587  	oct	164151157156
    024504  aa   040105 156164   10588  	oct	040105156164
    024505  aa   162171 040124   10589  	oct	162171040124
    024506  aa   150151 163040   10590  	oct	150151163040
    024507  aa   143154 141165   10591  	oct	143154141165
    024510  aa   163145 040155   10592  	oct	163145040155
    024511  aa   141171 040157   10593  	oct	141171040157
    024512  aa   156154 171040   10594  	oct	156154171040
    024513  aa   157143 143165   10595  	oct	157143143165
    024514  aa   162040 151156   10596  	oct	162040151156
    024515  aa   040141 040106   10597  	oct	040141040106
    024516  aa   157162 155141   10598  	oct	157162155141
    024517  aa   164040 063040   10599  	oct	164040063040
    024520  aa   122145 160157   10600  	oct	122145160157
    024521  aa   162164 040107   10601  	oct	162164040107
    024522  aa   162157 165160   10602  	oct	162157165160
    024523  aa   040104 145163   10603  	oct	040104145163
    024524  aa   143162 151160   10604  	oct	143162151160
    024525  aa   164151 157156   10605  	oct	164151157156
    024526  aa   040105 156164   10606  	oct	040105156164
    024527  aa   162171 040124   10607  	oct	162171040124
    024530  aa   150151 163040   10608  	oct	150151163040
    024531  aa   162145 160157   10609  	oct	162145160157
    024532  aa   162164 040147   10610  	oct	162164040147
    024533  aa   162157 165160   10611  	oct	162157165160
    024534  aa   040164 171160   10612  	oct	040164171160
    024535  aa   145040 155141   10613  	oct	145040155141
    024536  aa   171040 157156   10614  	oct	171040157156
    024537  aa   154171 040142   10615  	oct	154171040142
    024540  aa   145040 144145   10616  	oct	145040144145
    024541  aa   146151 156145   10617  	oct	146151156145
    024542  aa   144040 157156   10618  	oct	144040157156
    024543  aa   143145 040101   10619  	oct	143145040101
    024544  aa   040106 157162   10620  	oct	040106157162
    024545  aa   155141 164040   10621  	oct	155141164040
    024546  aa   061040 122145   10622  	oct	061040122145
    024547  aa   160157 162164   10623  	oct	160157162164
    024550  aa   040107 162157   10624  	oct	040107162157
    024551  aa   165160 040104   10625  	oct	165160040104
    024552  aa   145163 143162   10626  	oct	145163143162
    024553  aa   151160 164151   10627  	oct	151160164151
    024554  aa   157156 040105   10628  	oct	157156040105
    024555  aa   156164 162171   10629  	oct	156164162171
    024556  aa   040155 165163   10630  	oct	040155165163
    024557  aa   164040 143157   10631  	oct	164040143157
    024560  aa   156164 141151   10632  	oct	156164141151
    024561  aa   156040 141040   10633  	oct	156040141040
    024562  aa   124131 120105   10634  	oct	124131120105
    024563  aa   040143 154141   10635  	oct	040143154141
    024564  aa   165163 145054   10636  	oct	165163145054
    024565  aa   040124 131120   10637  	oct	040124131120
    024566  aa   105040 104105   10638  	oct	105040104105
    024567  aa   040151 163040   10639  	oct	040151163040
    024570  aa   141163 163165   10640  	oct	141163163165
    024571  aa   155145 144040   10641  	oct	155145144040
    024572  aa   103154 141165   10642  	oct	103154141165
    024573  aa   163145 163040   10643  	oct	163145163040
    024574  aa   156157 164040   10644  	oct	156157164040
    024575  aa   160145 162155   10645  	oct	160145162155
    024576  aa   151164 164145   10646  	oct	151164164145
    024577  aa   144040 151156   10647  	oct	144040151156
    024600  aa   040141 040106   10648  	oct	040141040106
    024601  aa   157162 155141   10649  	oct	157162155141
    024602  aa   164040 061040   10650  	oct	164040061040
    024603  aa   122145 160157   10651  	oct	122145160157
    024604  aa   162164 040107   10652  	oct	162164040107
    024605  aa   162157 165160   10653  	oct	162157165160
    024606  aa   040104 145163   10654  	oct	040104145163
    024607  aa   143162 151160   10655  	oct	143162151160
    024610  aa   164151 157156   10656  	oct	164151157156
    024611  aa   040105 156164   10657  	oct	040105156164
    024612  aa   162171 040141   10658  	oct	162171040141
    024613  aa   162145 040142   10659  	oct	162145040142
    024614  aa   145151 156147   10660  	oct	145151156147
    024615  aa   040151 147156   10661  	oct	040151147156
    024616  aa   157162 145144   10662  	oct	157162145144
    024617  aa   040124 150145   10663  	oct	040124150145
    024620  aa   040154 145166   10664  	oct	040154145166
    024621  aa   145154 040156   10665  	oct	145154040156
    024622  aa   165155 142145   10666  	oct	165155142145
    024623  aa   162040 151156   10667  	oct	162040151156
    024624  aa   040141 040106   10668  	oct	040141040106
    024625  aa   157162 155141   10669  	oct	157162155141
    024626  aa   164040 061040   10670  	oct	164040061040
    024627  aa   122145 160157   10671  	oct	122145160157
    024630  aa   162164 040107   10672  	oct	162164040107
    024631  aa   162157 165160   10673  	oct	162157165160
    024632  aa   040104 145163   10674  	oct	040104145163
    024633  aa   143162 151160   10675  	oct	143162151160
    024634  aa   164151 157156   10676  	oct	164151157156
    024635  aa   040105 156164   10677  	oct	040105156164
    024636  aa   162171 040155   10678  	oct	162171040155
    024637  aa   165163 164040   10679  	oct	165163164040
    024640  aa   142145 040060   10680  	oct	142145040060
    024641  aa   061040 103154   10681  	oct	061040103154
    024642  aa   141165 163145   10682  	oct	141165163145
    024643  aa   163040 156157   10683  	oct	163040156157
    024644  aa   164040 160145   10684  	oct	164040160145
    024645  aa   162155 151164   10685  	oct	162155151164
    024646  aa   164145 144040   10686  	oct	164145144040
    024647  aa   151156 040141   10687  	oct	151156040141
    024650  aa   040106 157162   10688  	oct	040106157162
    024651  aa   155141 164040   10689  	oct	155141164040
    024652  aa   062040 122145   10690  	oct	062040122145
    024653  aa   160157 162164   10691  	oct	160157162164
    024654  aa   040107 162157   10692  	oct	040107162157
    024655  aa   165160 040104   10693  	oct	165160040104
    024656  aa   145163 143162   10694  	oct	145163143162
    024657  aa   151160 164151   10695  	oct	151160164151
    024660  aa   157156 040105   10696  	oct	157156040105
    024661  aa   156164 162171   10697  	oct	156164162171
    024662  aa   040141 162145   10698  	oct	040141162145
    024663  aa   040142 145151   10699  	oct	040142145151
    024664  aa   156147 040151   10700  	oct	156147040151
    024665  aa   147156 157162   10701  	oct	147156157162
    024666  aa   145144 040103   10702  	oct	145144040103
    024667  aa   154141 165163   10703  	oct	154141165163
    024670  aa   145163 040156   10704  	oct	145163040156
    024671  aa   157164 040160   10705  	oct	157164040160
    024672  aa   145162 155151   10706  	oct	145162155151
    024673  aa   164164 145144   10707  	oct	164164145144
    024674  aa   040151 156040   10708  	oct	040151156040
    024675  aa   141040 106157   10709  	oct	141040106157
    024676  aa   162155 141164   10710  	oct	162155141164
    024677  aa   040063 040122   10711  	oct	040063040122
    024700  aa   145160 157162   10712  	oct	145160157162
    024701  aa   164040 107162   10713  	oct	164040107162
    024702  aa   157165 160040   10714  	oct	157165160040
    024703  aa   104145 163143   10715  	oct	104145163143
    024704  aa   162151 160164   10716  	oct	162151160164
    024705  aa   151157 156040   10717  	oct	151157156040
    024706  aa   105156 164162   10718  	oct	105156164162
    024707  aa   171040 141162   10719  	oct	171040141162
    024710  aa   145040 142145   10720  	oct	145040142145
    024711  aa   151156 147040   10721  	oct	151156147040
    024712  aa   151147 156157   10722  	oct	151147156157
    024713  aa   162145 144040   10723  	oct	162145144040
    024714  aa   127151 164150   10724  	oct	127151164150
    024715  aa   151156 040141   10725  	oct	151156040141
    024716  aa   040147 151166   10726  	oct	040147151166
    024717  aa   145156 040122   10727  	oct	145156040122
    024720  aa   145160 157162   10728  	oct	145160157162
    024721  aa   164040 107162   10729  	oct	164040107162
    024722  aa   157165 160040   10730  	oct	157165160040
    024723  aa   104145 163143   10731  	oct	104145163143
    024724  aa   162151 160164   10732  	oct	162151160164
    024725  aa   151157 156040   10733  	oct	151157156040
    024726  aa   105156 164162   10734  	oct	105156164162
    024727  aa   171040 163165   10735  	oct	171040163165
    024730  aa   143143 145163   10736  	oct	143143145163
    024731  aa   163151 166145   10737  	oct	163151166145
    024732  aa   040141 142163   10738  	oct	040141142163
    024733  aa   157154 165164   10739  	oct	157154165164
    024734  aa   145040 114111   10740  	oct	145040114111
    024735  aa   116105 040116   10741  	oct	116105040116
    024736  aa   125115 102105   10742  	oct	125115102105
    024737  aa   122040 143154   10743  	oct	122040143154
    024740  aa   141165 163145   10744  	oct	141165163145
    024741  aa   163040 155165   10745  	oct	163040155165
    024742  aa   163164 040163   10746  	oct	163164040163
    024743  aa   160145 143151   10747  	oct	160145143151
    024744  aa   146171 040151   10748  	oct	146171040151
    024745  aa   156164 145147   10749  	oct	156164145147
    024746  aa   145162 163040   10750  	oct	145162163040
    024747  aa   164150 141164   10751  	oct	164150141164
    024750  aa   040141 162145   10752  	oct	040141162145
    024751  aa   040151 156040   10753  	oct	040151156040
    024752  aa   141163 143145   10754  	oct	141163143145
    024753  aa   156144 151156   10755  	oct	156144151156
    024754  aa   147040 157162   10756  	oct	147040157162
    024755  aa   144145 162040   10757  	oct	144145162040
    024756  aa   176101 040106   10758  	oct	176101040106
    024757  aa   157162 155141   10759  	oct	157162155141
    024760  aa   164040 063040   10760  	oct	164040063040
    024761  aa   122145 160157   10761  	oct	122145160157
    024762  aa   162164 040107   10762  	oct	162164040107
    024763  aa   162157 165160   10763  	oct	162157165160
    024764  aa   040104 145163   10764  	oct	040104145163
    024765  aa   143162 151160   10765  	oct	143162151160
    024766  aa   164151 157156   10766  	oct	164151157156
    024767  aa   040105 156164   10767  	oct	040105156164
    024770  aa   162171 040155   10768  	oct	162171040155
    024771  aa   165163 164040   10769  	oct	165163164040
    024772  aa   143157 156164   10770  	oct	143157156164
    024773  aa   141151 156040   10771  	oct	141151156040
    024774  aa   141040 120111   10772  	oct	141040120111
    024775  aa   103124 125122   10773  	oct	103124125122
    024776  aa   105040 143154   10774  	oct	105040143154
    024777  aa   141165 163145   10775  	oct	141165163145
    025000  aa   054040 120111   10776  	oct	054040120111
    025001  aa   103040 130040   10777  	oct	103040130040
    025002  aa   151163 040141   10778  	oct	151163040141
    025003  aa   163163 165155   10779  	oct	163163165155
    025004  aa   145144 040114   10780  	oct	145144040114
    025005  aa   145166 145154   10781  	oct	145166145154
    025006  aa   040156 165155   10782  	oct	040156165155
    025007  aa   142145 162040   10783  	oct	142145162040
    025010  aa   060061 040151   10784  	oct	060061040151
    025011  aa   163040 151154   10785  	oct	163040151154
    025012  aa   154145 147141   10786  	oct	154145147141
    025013  aa   154040 151156   10787  	oct	154040151156
    025014  aa   040141 040106   10788  	oct	040141040106
    025015  aa   157162 155141   10789  	oct	157162155141
    025016  aa   164040 063040   10790  	oct	164040063040
    025017  aa   122145 160157   10791  	oct	122145160157
    025020  aa   162164 040107   10792  	oct	162164040107
    025021  aa   162157 165160   10793  	oct	162157165160
    025022  aa   040104 145163   10794  	oct	040104145163
    025023  aa   143162 151160   10795  	oct	143162151160
    025024  aa   164151 157156   10796  	oct	164151157156
    025025  aa   040105 156164   10797  	oct	040105156164
    025026  aa   162171 040101   10798  	oct	162171040101
    025027  aa   040106 157162   10799  	oct	040106157162
    025030  aa   155141 164040   10800  	oct	155141164040
    025031  aa   063040 122145   10801  	oct	063040122145
    025032  aa   160157 162164   10802  	oct	160157162164
    025033  aa   040107 162157   10803  	oct	040107162157
    025034  aa   165160 040104   10804  	oct	165160040104
    025035  aa   145163 143162   10805  	oct	145163143162
    025036  aa   151160 164151   10806  	oct	151160164151
    025037  aa   157156 040105   10807  	oct	157156040105
    025040  aa   156164 162171   10808  	oct	156164162171
    025041  aa   040155 165163   10809  	oct	040155165163
    025042  aa   164040 143157   10810  	oct	164040143157
    025043  aa   156164 141151   10811  	oct	156164141151
    025044  aa   156040 141040   10812  	oct	156040141040
    025045  aa   123117 125122   10813  	oct	123117125122
    025046  aa   103105 057123   10814  	oct	103105057123
    025047  aa   125115 057126   10815  	oct	125115057126
    025050  aa   101114 125105   10816  	oct	101114125105
    025051  aa   040143 154141   10817  	oct	040143154141
    025052  aa   165163 145054   10818  	oct	165163145054
    025053  aa   040126 101114   10819  	oct	040126101114
    025054  aa   125105 040123   10820  	oct	125105040123
    025055  aa   120101 103105   10821  	oct	120101103105
    025056  aa   123040 151163   10822  	oct	123040151163
    025057  aa   040141 163163   10823  	oct	040141163163
    025060  aa   165155 145144   10824  	oct	165155145144
    025061  aa   040101 040106   10825  	oct	040101040106
    025062  aa   157162 155141   10826  	oct	157162155141
    025063  aa   164040 063040   10827  	oct	164040063040
    025064  aa   122145 160157   10828  	oct	122145160157
    025065  aa   162164 040107   10829  	oct	162164040107
    025066  aa   162157 165160   10830  	oct	162157165160
    025067  aa   040104 145163   10831  	oct	040104145163
    025070  aa   143162 151160   10832  	oct	143162151160
    025071  aa   164151 157156   10833  	oct	164151157156
    025072  aa   040105 156164   10834  	oct	040105156164
    025073  aa   162171 040155   10835  	oct	162171040155
    025074  aa   165163 164040   10836  	oct	165163164040
    025075  aa   142145 040160   10837  	oct	142145040160
    025076  aa   162145 143145   10838  	oct	162145143145
    025077  aa   144145 144040   10839  	oct	144145144040
    025100  aa   142171 040141   10840  	oct	142171040141
    025101  aa   156040 145156   10841  	oct	156040145156
    025102  aa   164162 171040   10842  	oct	164162171040
    025103  aa   167150 151143   10843  	oct	167150151143
    025104  aa   150040 143157   10844  	oct	150040143157
    025105  aa   156164 141151   10845  	oct	156164141151
    025106  aa   156163 040141   10846  	oct	156163040141
    025107  aa   040114 111116   10847  	oct	040114111116
    025110  aa   105040 143154   10848  	oct	105040143154
    025111  aa   141165 163145   10849  	oct	141165163145
    025112  aa   054040 114111   10850  	oct	054040114111
    025113  aa   116105 040120   10851  	oct	116105040120
    025114  aa   114125 123040   10852  	oct	114125123040
    025115  aa   061040 151163   10853  	oct	061040151163
    025116  aa   040141 163163   10854  	oct	040141163163
    025117  aa   165155 145144   10855  	oct	165155145144
    025120  aa   040176 104141   10856  	oct	040176104141
    025121  aa   164141 040163   10857  	oct	164141040163
    025122  aa   165142 157162   10858  	oct	165142157162
    025123  aa   144151 156141   10859  	oct	144151156141
    025124  aa   164145 040164   10860  	oct	164145040164
    025125  aa   157040 141040   10861  	oct	157040141040
    025126  aa   120122 105123   10862  	oct	120122105123
    025127  aa   105116 124040   10863  	oct	105116124040
    025130  aa   127110 105116   10864  	oct	127110105116
    025131  aa   040143 154141   10865  	oct	040143154141
    025132  aa   165163 145040   10866  	oct	165163145040
    025133  aa   155165 163164   10867  	oct	155165163164
    025134  aa   040142 145040   10868  	oct	040142145040
    025135  aa   141040 163145   10869  	oct	141040163145
    025136  aa   161165 145156   10870  	oct	161165145156
    025137  aa   143145 040157   10871  	oct	143145040157
    025140  aa   146040 154151   10872  	oct	146040154151
    025141  aa   156145 163040   10873  	oct	156145163040
    025142  aa   157162 040141   10874  	oct	157162040141
    025143  aa   040163 145161   10875  	oct	040163145161
    025144  aa   165145 156143   10876  	oct	165145156143
    025145  aa   145040 157146   10877  	oct	145040157146
    025146  aa   040146 151145   10878  	oct	040146151145
    025147  aa   154144 163040   10879  	oct	154144163040
    025150  aa   127151 164150   10880  	oct	127151164150
    025151  aa   151156 040141   10881  	oct	151156040141
    025152  aa   040122 145160   10882  	oct	040122145160
    025153  aa   157162 164040   10883  	oct	157162164040
    025154  aa   107162 157165   10884  	oct	107162157165
    025155  aa   160040 104145   10885  	oct	160040104145
    025156  aa   163143 162151   10886  	oct	163143162151
    025157  aa   160164 151157   10887  	oct	160164151157
    025160  aa   156040 105156   10888  	oct	156040105156
    025161  aa   164162 171040   10889  	oct	164162171040
    025162  aa   141154 154040   10890  	oct	141154154040
    025163  aa   141142 163157   10891  	oct	141142163157
    025164  aa   154165 164145   10892  	oct	154165164145
    025165  aa   040114 111116   10893  	oct	040114111116
    025166  aa   105040 156165   10894  	oct	105040156165
    025167  aa   155142 145162   10895  	oct	155142145162
    025170  aa   163040 155165   10896  	oct	163040155165
    025171  aa   163164 040160   10897  	oct	163164040160
    025172  aa   162145 143145   10898  	oct	162145143145
    025173  aa   144145 040141   10899  	oct	144145040141
    025174  aa   154154 040162   10900  	oct	154154040162
    025175  aa   145154 141164   10901  	oct	145154141164
    025176  aa   151166 145040   10902  	oct	151166145040
    025177  aa   114111 116105   10903  	oct	114111116105
    025200  aa   040156 165155   10904  	oct	040156165155
    025201  aa   142145 162163   10905  	oct	142145162163
    025202  aa   040127 151164   10906  	oct	040127151164
    025203  aa   150151 156040   10907  	oct	150151156040
    025204  aa   141156 040122   10908  	oct	141156040122
    025205  aa   145160 157162   10909  	oct	145160157162
    025206  aa   164040 107162   10910  	oct	164040107162
    025207  aa   157165 160040   10911  	oct	157165160040
    025210  aa   104145 163143   10912  	oct	104145163143
    025211  aa   162151 160164   10913  	oct	162151160164
    025212  aa   151157 156040   10914  	oct	151157156040
    025213  aa   105156 164162   10915  	oct	105156164162
    025214  aa   171040 141040   10916  	oct	171040141040
    025215  aa   116105 130124   10917  	oct	116105130124
    025216  aa   040120 101107   10918  	oct	040120101107
    025217  aa   105040 160150   10919  	oct	105040160150
    025220  aa   162141 163145   10920  	oct	162141163145
    025221  aa   040155 141171   10921  	oct	040155141171
    025222  aa   040141 160160   10922  	oct	040141160160
    025223  aa   145141 162040   10923  	oct	145141162040
    025224  aa   157156 154171   10924  	oct	157156154171
    025225  aa   040157 156143   10925  	oct	040157156143
    025226  aa   145040 141156   10926  	oct	145040141156
    025227  aa   144054 040151   10927  	oct	144054040151
    025230  aa   146040 160162   10928  	oct	146040160162
    025231  aa   145163 145156   10929  	oct	145163145156
    025232  aa   164040 155165   10930  	oct	164040155165
    025233  aa   163164 040142   10931  	oct	163164040142
    025234  aa   145040 151156   10932  	oct	145040151156
    025235  aa   040164 150145   10933  	oct	040164150145
    025236  aa   040146 151162   10934  	oct	040146151162
    025237  aa   163164 040154   10935  	oct	163164040154
    025240  aa   151156 145040   10936  	oct	151156145040
    025241  aa   156165 155142   10937  	oct	156165155142
    025242  aa   145162 040143   10938  	oct	145162040143
    025243  aa   154141 165163   10939  	oct	154141165163
    025244  aa   145040 151156   10940  	oct	145040151156
    025245  aa   040164 150145   10941  	oct	040164150145
    025246  aa   040122 145160   10942  	oct	040122145160
    025247  aa   157162 164040   10943  	oct	157162164040
    025250  aa   107162 157165   10944  	oct	107162157165
    025251  aa   160040 104145   10945  	oct	160040104145
    025252  aa   163143 162151   10946  	oct	163143162151
    025253  aa   160164 151157   10947  	oct	160164151157
    025254  aa   156040 105156   10948  	oct	156040105156
    025255  aa   164162 171040   10949  	oct	164162171040
    025256  aa   176050 062062   10950  	oct	176050062062
    025257  aa   054062 051011   10951  	oct	054062051011
    025260  aa   101156 040145   10952  	oct	101156040145
    025261  aa   156164 162171   10953  	oct	156164162171
    025262  aa   040167 150151   10954  	oct	040167150151
    025263  aa   143150 040143   10955  	oct	143150040143
    025264  aa   157156 164141   10956  	oct	157156164141
    025265  aa   151156 163040   10957  	oct	151156163040
    025266  aa   141040 114111   10958  	oct	141040114111
    025267  aa   116105 040156   10959  	oct	116105040156
    025270  aa   165155 142145   10960  	oct	165155142145
    025271  aa   162040 143154   10961  	oct	162040143154
    025272  aa   141165 163145   10962  	oct	141165163145
    025273  aa   040155 165163   10963  	oct	040155165163
    025274  aa   164040 156157   10964  	oct	164040156157
    025275  aa   164040 143157   10965  	oct	164040143157
    025276  aa   156164 141151   10966  	oct	156164141151
    025277  aa   156040 141040   10967  	oct	156040141040
    025300  aa   163165 142157   10968  	oct	163165142157
    025301  aa   162144 151156   10969  	oct	162144151156
    025302  aa   141164 145040   10970  	oct	141164145040
    025303  aa   145156 164162   10971  	oct	145156164162
    025304  aa   171040 164150   10972  	oct	171040164150
    025305  aa   141164 040141   10973  	oct	141164040141
    025306  aa   154163 157040   10974  	oct	154163157040
    025307  aa   143157 156164   10975  	oct	143157156164
    025310  aa   141151 156163   10976  	oct	141151156163
    025311  aa   040141 040114   10977  	oct	040141040114
    025312  aa   111116 105040   10978  	oct	111116105040
    025313  aa   156165 155142   10979  	oct	156165155142
    025314  aa   145162 040143   10980  	oct	145162040143
    025315  aa   154141 165163   10981  	oct	154141165163
    025316  aa   145040 176101   10982  	oct	145040176101
    025317  aa   156040 145156   10983  	oct	156040145156
    025320  aa   164162 171040   10984  	oct	164162171040
    025321  aa   167150 151143   10985  	oct	167150151143
    025322  aa   150040 143157   10986  	oct	150040143157
    025323  aa   156164 141151   10987  	oct	156164141151
    025324  aa   156163 040141   10988  	oct	156163040141
    025325  aa   040114 111116   10989  	oct	040114111116
    025326  aa   105040 156165   10990  	oct	105040156165
    025327  aa   155142 145162   10991  	oct	155142145162
    025330  aa   040143 154141   10992  	oct	040143154141
    025331  aa   165163 145040   10993  	oct	165163145040
    025332  aa   155165 163164   10994  	oct	155165163164
    025333  aa   040156 157164   10995  	oct	040156157164
    025334  aa   040143 157156   10996  	oct	040143157156
    025335  aa   164141 151156   10997  	oct	164141151156
    025336  aa   040141 040163   10998  	oct	040141040163
    025337  aa   165142 157162   10999  	oct	165142157162
    025340  aa   144151 156141   11000  	oct	144151156141
    025341  aa   164145 040145   11001  	oct	164145040145
    025342  aa   156164 162171   11002  	oct	156164162171
    025343  aa   040164 150141   11003  	oct	040164150141
    025344  aa   164040 141154   11004  	oct	164040141154
    025345  aa   163157 040143   11005  	oct	163157040143
    025346  aa   157156 164141   11006  	oct	157156164141
    025347  aa   151156 163040   11007  	oct	151156163040
    025350  aa   141040 114111   11008  	oct	141040114111
    025351  aa   116105 040156   11009  	oct	116105040156
    025352  aa   165155 142145   11010  	oct	165155142145
    025353  aa   162040 143154   11011  	oct	162040143154
    025354  aa   141165 163145   11012  	oct	141165163145
    025355  aa   040176 105166   11013  	oct	040176105166
    025356  aa   145162 171040   11014  	oct	145162171040
    025357  aa   145156 164162   11015  	oct	145156164162
    025360  aa   171040 164150   11016  	oct	171040164150
    025361  aa   141164 040144   11017  	oct	141164040144
    025362  aa   145146 151156   11018  	oct	145146151156
    025363  aa   145163 040141   11019  	oct	145163040141
    025364  aa   040160 162151   11020  	oct	040160162151
    025365  aa   156164 141142   11021  	oct	156164141142
    025366  aa   154145 040151   11022  	oct	154145040151
    025367  aa   164145 155040   11023  	oct	164145155040
    025370  aa   155165 163164   11024  	oct	155165163164
    025371  aa   040143 157156   11025  	oct	040143157156
    025372  aa   164141 151156   11026  	oct	164141151156
    025373  aa   040141 040114   11027  	oct	040141040114
    025374  aa   111116 105040   11028  	oct	111116105040
    025375  aa   156165 155142   11029  	oct	156165155142
    025376  aa   145162 040143   11030  	oct	145162040143
    025377  aa   154141 165163   11031  	oct	154141165163
    025400  aa   145040 157162   11032  	oct	145040157162
    025401  aa   040142 145040   11033  	oct	040142145040
    025402  aa   163165 142157   11034  	oct	163165142157
    025403  aa   162144 151156   11035  	oct	162144151156
    025404  aa   141164 145040   11036  	oct	141164145040
    025405  aa   164157 040141   11037  	oct	164157040141
    025406  aa   156040 145156   11038  	oct	156040145156
    025407  aa   164162 171040   11039  	oct	164162171040
    025410  aa   164150 141164   11040  	oct	164150141164
    025411  aa   040143 157156   11041  	oct	040143157156
    025412  aa   164141 151156   11042  	oct	164141151156
    025413  aa   163040 141040   11043  	oct	163040141040
    025414  aa   114111 116105   11044  	oct	114111116105
    025415  aa   040156 165155   11045  	oct	040156165155
    025416  aa   142145 162040   11046  	oct	142145162040
    025417  aa   143154 141165   11047  	oct	143154141165
    025420  aa   163145 040176   11048  	oct	163145040176
    025421  aa   124150 151163   11049  	oct	124150151163
    025422  aa   040151 156164   11050  	oct	040151156164
    025423  aa   145147 145162   11051  	oct	145147145162
    025424  aa   040155 165163   11052  	oct	040155165163
    025425  aa   164040 156157   11053  	oct	164040156157
    025426  aa   164040 145170   11054  	oct	164040145170
    025427  aa   143145 145144   11055  	oct	143145145144
    025430  aa   040164 150162   11056  	oct	040164150162
    025431  aa   145145 040163   11057  	oct	145145040163
    025432  aa   151147 156151   11058  	oct	151147156151
    025433  aa   146151 143141   11059  	oct	146151143141
    025434  aa   156164 040144   11060  	oct	156164040144
    025435  aa   151147 151164   11061  	oct	151147151164
    025436  aa   163040 111146   11062  	oct	163040111146
    025437  aa   040164 150145   11063  	oct	040164150145
    025440  aa   040120 101107   11064  	oct	040120101107
    025441  aa   105040 143154   11065  	oct	105040143154
    025442  aa   141165 163145   11066  	oct	141165163145
    025443  aa   040151 163040   11067  	oct	040151163040
    025444  aa   157155 151164   11068  	oct	157155151164
    025445  aa   164145 144040   11069  	oct	164145144040
    025446  aa   146162 157155   11070  	oct	146162157155
    025447  aa   040141 156040   11071  	oct	040141156040
    025450  aa   122104 040157   11072  	oct	122104040157
    025451  aa   156154 171040   11073  	oct	156154171040
    025452  aa   162145 154141   11074  	oct	162145154141
    025453  aa   164151 166145   11075  	oct	164151166145
    025454  aa   040114 111116   11076  	oct	040114111116
    025455  aa   105040 156165   11077  	oct	105040156165
    025456  aa   155142 145162   11078  	oct	155142145162
    025457  aa   040143 154141   11079  	oct	040143154141
    025460  aa   165163 145163   11080  	oct	165163145163
    025461  aa   040143 141156   11081  	oct	040143141156
    025462  aa   040142 145040   11082  	oct	040142145040
    025463  aa   163160 145143   11083  	oct	163160145143
    025464  aa   151146 151145   11084  	oct	151146151145
    025465  aa   144040 151156   11085  	oct	144040151156
    025466  aa   040141 156040   11086  	oct	040141156040
    025467  aa   122145 160157   11087  	oct	122145160157
    025470  aa   162164 040107   11088  	oct	162164040107
    025471  aa   162157 165160   11089  	oct	162157165160
    025472  aa   040104 145163   11090  	oct	040104145163
    025473  aa   143162 151160   11091  	oct	143162151160
    025474  aa   164151 157156   11092  	oct	164151157156
    025475  aa   040105 156164   11093  	oct	040105156164
    025476  aa   162171 040176   11094  	oct	162171040176
    025477  aa   101040 114111   11095  	oct	101040114111
    025500  aa   116105 040156   11096  	oct	116105040156
    025501  aa   165155 142145   11097  	oct	165155142145
    025502  aa   162040 143154   11098  	oct	162040143154
    025503  aa   141165 163145   11099  	oct	141165163145
    025504  aa   040167 151164   11100  	oct	040167151164
    025505  aa   150040 164150   11101  	oct	150040164150
    025506  aa   145040 116105   11102  	oct	145040116105
    025507  aa   130124 040120   11103  	oct	130124040120
    025510  aa   101107 105040   11104  	oct	101107105040
    025511  aa   160150 162141   11105  	oct	160150162141
    025512  aa   163145 040143   11106  	oct	163145040143
    025513  aa   141156 040141   11107  	oct	141156040141
    025514  aa   160160 145141   11108  	oct	160160145141
    025515  aa   162040 157156   11109  	oct	162040157156
    025516  aa   154171 040151   11110  	oct	154171040151
    025517  aa   156040 164150   11111  	oct	156040164150
    025520  aa   145040 144145   11112  	oct	145040144145
    025521  aa   163143 162151   11113  	oct	163143162151
    025522  aa   160164 151157   11114  	oct	160164151157
    025523  aa   156040 157146   11115  	oct	156040157146
    025524  aa   040142 157144   11116  	oct	040142157144
    025525  aa   171040 147162   11117  	oct	171040147162
    025526  aa   157165 160163   11118  	oct	157165160163
    025527  aa   040141 156144   11119  	oct	040141156144
    025530  aa   040151 156040   11120  	oct	040151156040
    025531  aa   141040 122105   11121  	oct	141040122105
    025532  aa   120117 122124   11122  	oct	120117122124
    025533  aa   040106 117117   11123  	oct	040106117117
    025534  aa   124111 116107   11124  	oct	124111116107
    025535  aa   040162 145160   11125  	oct	040162145160
    025536  aa   157162 164040   11126  	oct	157162164040
    025537  aa   147162 157165   11127  	oct	147162157165
    025540  aa   160040 176124   11128  	oct	160040176124
    025541  aa   150145 040146   11129  	oct	150145040146
    025542  aa   151162 163164   11130  	oct	151162163164
    025543  aa   040114 111116   11131  	oct	040114111116
    025544  aa   105040 156165   11132  	oct	105040156165
    025545  aa   155142 145162   11133  	oct	155142145162
    025546  aa   040143 154141   11134  	oct	040143154141
    025547  aa   165163 145040   11135  	oct	165163145040
    025550  aa   163160 145143   11136  	oct	163160145143
    025551  aa   151146 151145   11137  	oct	151146151145
    025552  aa   144040 167151   11138  	oct	144040167151
    025553  aa   164150 151156   11139  	oct	164150151156
    025554  aa   040141 040120   11140  	oct	040141040120
    025555  aa   101107 105040   11141  	oct	101107105040
    025556  aa   106117 117124   11142  	oct	106117117124
    025557  aa   111116 107040   11143  	oct	111116107040
    025560  aa   162145 160157   11144  	oct	162145160157
    025561  aa   162164 040147   11145  	oct	162164040147
    025562  aa   162157 165160   11146  	oct	162157165160
    025563  aa   040155 165163   11147  	oct	040155165163
    025564  aa   164040 150141   11148  	oct	164040150141
    025565  aa   166145 040141   11149  	oct	166145040141
    025566  aa   156040 141142   11150  	oct	156040141142
    025567  aa   163157 154165   11151  	oct	163157154165
    025570  aa   164145 040114   11152  	oct	164145040114
    025571  aa   111116 105040   11153  	oct	111116105040
    025572  aa   116125 115102   11154  	oct	116125115102
    025573  aa   105122 040143   11155  	oct	105122040143
    025574  aa   154141 165163   11156  	oct	154141165163
    025575  aa   145040 176101   11157  	oct	145040176101
    025576  aa   040162 145160   11158  	oct	040162145160
    025577  aa   157162 164040   11159  	oct	157162164040
    025600  aa   147162 157165   11160  	oct	147162157165
    025601  aa   160040 145156   11161  	oct	160040145156
    025602  aa   164162 171040   11162  	oct	164162171040
    025603  aa   155165 163164   11163  	oct	155165163164
    025604  aa   040156 157164   11164  	oct	040156157164
    025605  aa   040143 157156   11165  	oct	040143157156
    025606  aa   164141 151156   11166  	oct	164141151156
    025607  aa   040141 040116   11167  	oct	040141040116
    025610  aa   105130 124040   11168  	oct	105130124040
    025611  aa   107122 117125   11169  	oct	107122117125
    025612  aa   120040 143154   11170  	oct	120040143154
    025613  aa   141165 163145   11171  	oct	141165163145
    025614  aa   040165 156154   11172  	oct	040165156154
    025615  aa   145163 163040   11173  	oct	145163163040
    025616  aa   164150 145040   11174  	oct	164150145040
    025617  aa   144145 163143   11175  	oct	144145163143
    025620  aa   162151 160164   11176  	oct	162151160164
    025621  aa   151157 156040   11177  	oct	151157156040
    025622  aa   157146 040164   11178  	oct	157146040164
    025623  aa   150141 164040   11179  	oct	150141164040
    025624  aa   162145 160157   11180  	oct	162145160157
    025625  aa   162164 040147   11181  	oct	162164040147
    025626  aa   162157 165160   11182  	oct	162157165160
    025627  aa   040143 157156   11183  	oct	040143157156
    025630  aa   164141 151156   11184  	oct	164141151156
    025631  aa   163040 141164   11185  	oct	163040141164
    025632  aa   040154 145141   11186  	oct	040154145141
    025633  aa   163164 040157   11187  	oct	163164040157
    025634  aa   156145 040114   11188  	oct	156145040114
    025635  aa   111116 105040   11189  	oct	111116105040
    025636  aa   156165 155142   11190  	oct	156165155142
    025637  aa   145162 040143   11191  	oct	145162040143
    025640  aa   154141 165163   11192  	oct	154141165163
    025641  aa   145040 176111   11193  	oct	145040176111
    025642  aa   146040 164150   11194  	oct	146040164150
    025643  aa   145040 120101   11195  	oct	145040120101
    025644  aa   107105 040143   11196  	oct	107105040143
    025645  aa   154141 165163   11197  	oct	154141165163
    025646  aa   145040 151163   11198  	oct	145040151163
    025647  aa   040157 155151   11199  	oct	040157155151
    025650  aa   164164 145144   11200  	oct	164164145144
    025651  aa   040146 162157   11201  	oct	040146162157
    025652  aa   155040 164150   11202  	oct	155040164150
    025653  aa   145040 122104   11203  	oct	145040122104
    025654  aa   040157 156154   11204  	oct	040157156154
    025655  aa   171040 141040   11205  	oct	171040141040
    025656  aa   162145 154141   11206  	oct	162145154141
    025657  aa   164151 166145   11207  	oct	164151166145
    025660  aa   040116 105130   11208  	oct	040116105130
    025661  aa   124040 107122   11209  	oct	124040107122
    025662  aa   117125 120040   11210  	oct	117125120040
    025663  aa   143154 141165   11211  	oct	143154141165
    025664  aa   163145 040155   11212  	oct	163145040155
    025665  aa   141171 040142   11213  	oct	141171040142
    025666  aa   145040 163160   11214  	oct	145040163160
    025667  aa   145143 151146   11215  	oct	145143151146
    025670  aa   151145 144040   11216  	oct	151145144040
    025671  aa   151156 040141   11217  	oct	151156040141
    025672  aa   156040 122145   11218  	oct	156040122145
    025673  aa   160157 162164   11219  	oct	160157162164
    025674  aa   040107 162157   11220  	oct	040107162157
    025675  aa   165160 040104   11221  	oct	165160040104
    025676  aa   145163 143162   11222  	oct	145163143162
    025677  aa   151160 164151   11223  	oct	151160164151
    025700  aa   157156 040105   11224  	oct	157156040105
    025701  aa   156164 162171   11225  	oct	156164162171
    025702  aa   040176 124150   11226  	oct	040176124150
    025703  aa   145040 116105   11227  	oct	145040116105
    025704  aa   130124 040120   11228  	oct	130124040120
    025705  aa   101107 105040   11229  	oct	101107105040
    025706  aa   160150 162141   11230  	oct	160150162141
    025707  aa   163145 040151   11231  	oct	163145040151
    025710  aa   156040 164150   11232  	oct	156040164150
    025711  aa   145040 116105   11233  	oct	145040116105
    025712  aa   130124 040107   11234  	oct	130124040107
    025713  aa   122117 125120   11235  	oct	122117125120
    025714  aa   040143 154141   11236  	oct	040143154141
    025715  aa   165163 145040   11237  	oct	165163145040
    025716  aa   155165 163164   11238  	oct	155165163164
    025717  aa   040156 157164   11239  	oct	040156157164
    025720  aa   040142 145040   11240  	oct	040142145040
    025721  aa   163160 145143   11241  	oct	163160145143
    025722  aa   151146 151145   11242  	oct	151146151145
    025723  aa   144040 151156   11243  	oct	144040151156
    025724  aa   040141 040120   11244  	oct	040141040120
    025725  aa   101107 105040   11245  	oct	101107105040
    025726  aa   106117 117124   11246  	oct	106117117124
    025727  aa   111116 107040   11247  	oct	111116107040
    025730  aa   162145 160157   11248  	oct	162145160157
    025731  aa   162164 040147   11249  	oct	162164040147
    025732  aa   162157 165160   11250  	oct	162157165160
    025733  aa   040124 150145   11251  	oct	040124150145
    025734  aa   040116 105130   11252  	oct	040116105130
    025735  aa   124040 107122   11253  	oct	124040107122
    025736  aa   117125 120040   11254  	oct	117125120040
    025737  aa   143154 141165   11255  	oct	143154141165
    025740  aa   163145 040155   11256  	oct	163145040155
    025741  aa   165163 164040   11257  	oct	165163164040
    025742  aa   156157 164040   11258  	oct	156157164040
    025743  aa   142145 040163   11259  	oct	142145040163
    025744  aa   160145 143151   11260  	oct	160145143151
    025745  aa   146151 145144   11261  	oct	146151145144
    025746  aa   040151 156040   11262  	oct	040151156040
    025747  aa   141040 122105   11263  	oct	141040122105
    025750  aa   120117 122124   11264  	oct	120117122124
    025751  aa   040106 117117   11265  	oct	040106117117
    025752  aa   124111 116107   11266  	oct	124111116107
    025753  aa   040162 145160   11267  	oct	040162145160
    025754  aa   157162 164040   11268  	oct	157162164040
    025755  aa   147162 157165   11269  	oct	147162157165
    025756  aa   160040 157162   11270  	oct	160040157162
    025757  aa   040151 156040   11271  	oct	040151156040
    025760  aa   141040 120101   11272  	oct	141040120101
    025761  aa   107105 040110   11273  	oct	107105040110
    025762  aa   105101 104111   11274  	oct	105101104111
    025763  aa   116107 040162   11275  	oct	116107040162
    025764  aa   145160 157162   11276  	oct	145160157162
    025765  aa   164040 147162   11277  	oct	164040147162
    025766  aa   157165 160040   11278  	oct	157165160040
    025767  aa   176124 150145   11279  	oct	176124150145
    025770  aa   040110 105101   11280  	oct	040110105101
    025771  aa   104111 116107   11281  	oct	104111116107
    025772  aa   040151 156164   11282  	oct	040151156164
    025773  aa   145147 145162   11283  	oct	145147145162
    025774  aa   040155 165163   11284  	oct	040155165163
    025775  aa   164040 142145   11285  	oct	164040142145
    025776  aa   040147 162141   11286  	oct	040147162141
    025777  aa   145141 164145   11287  	oct	145141164145
    026000  aa   162040 164150   11288  	oct	162040164150
    026001  aa   141156 040157   11289  	oct	141156040157
    026002  aa   162040 145161   11290  	oct	162040145161
    026003  aa   165141 154040   11291  	oct	165141154040
    026004  aa   164157 040157   11292  	oct	164157040157
    026005  aa   156145 040124   11293  	oct	156145040124
    026006  aa   150145 040106   11294  	oct	150145040106
    026007  aa   111122 123124   11295  	oct	111122123124
    026010  aa   040104 105124   11296  	oct	040104105124
    026011  aa   101111 114040   11297  	oct	101111114040
    026012  aa   151156 164145   11298  	oct	151156164145
    026013  aa   147145 162040   11299  	oct	147145162040
    026014  aa   155165 163164   11300  	oct	155165163164
    026015  aa   040142 145040   11301  	oct	040142145040
    026016  aa   147162 145141   11302  	oct	147162145141
    026017  aa   164145 162040   11303  	oct	164145162040
    026020  aa   164150 141156   11304  	oct	164150141156
    026021  aa   040157 162040   11305  	oct	040157162040
    026022  aa   145161 165141   11306  	oct	145161165141
    026023  aa   154040 164157   11307  	oct	154040164157
    026024  aa   040164 150145   11308  	oct	040164150145
    026025  aa   040110 105101   11309  	oct	040110105101
    026026  aa   104111 116107   11310  	oct	104111116107
    026027  aa   040151 156164   11311  	oct	040151156164
    026030  aa   145147 145162   11312  	oct	145147145162
    026031  aa   040124 150145   11313  	oct	040124150145
    026032  aa   040114 101123   11314  	oct	040114101123
    026033  aa   124040 104105   11315  	oct	124040104105
    026034  aa   124101 111114   11316  	oct	124101111114
    026035  aa   040151 156164   11317  	oct	040151156164
    026036  aa   145147 145162   11318  	oct	145147145162
    026037  aa   040155 165163   11319  	oct	040155165163
    026040  aa   164040 142145   11320  	oct	164040142145
    026041  aa   040147 162145   11321  	oct	040147162145
    026042  aa   141164 145162   11322  	oct	141164145162
    026043  aa   040164 150141   11323  	oct	040164150141
    026044  aa   156040 157162   11324  	oct	156040157162
    026045  aa   040145 161165   11325  	oct	040145161165
    026046  aa   141154 040164   11326  	oct	141154040164
    026047  aa   157040 164150   11327  	oct	157040164150
    026050  aa   145040 106111   11328  	oct	145040106111
    026051  aa   122123 124040   11329  	oct	122123124040
    026052  aa   104105 124101   11330  	oct	104105124101
    026053  aa   111114 040151   11331  	oct	111114040151
    026054  aa   156164 145147   11332  	oct	156164145147
    026055  aa   145162 040124   11333  	oct	145162040124
    026056  aa   150145 040106   11334  	oct	150145040106
    026057  aa   117117 124111   11335  	oct	117117124111
    026060  aa   116107 040151   11336  	oct	116107040151
    026061  aa   156164 145147   11337  	oct	156164145147
    026062  aa   145162 040155   11338  	oct	145162040155
    026063  aa   165163 164040   11339  	oct	165163164040
    026064  aa   142145 040147   11340  	oct	142145040147
    026065  aa   162145 141164   11341  	oct	162145141164
    026066  aa   145162 040164   11342  	oct	145162040164
    026067  aa   150141 156040   11343  	oct	150141156040
    026070  aa   157162 040145   11344  	oct	157162040145
    026071  aa   161165 141154   11345  	oct	161165141154
    026072  aa   040164 157040   11346  	oct	040164157040
    026073  aa   164150 145040   11347  	oct	164150145040
    026074  aa   114101 123124   11348  	oct	114101123124
    026075  aa   040104 105124   11349  	oct	040104105124
    026076  aa   101111 114040   11350  	oct	101111114040
    026077  aa   151156 164145   11351  	oct	151156164145
    026100  aa   147145 162040   11352  	oct	147145162040
    026101  aa   124150 145040   11353  	oct	124150145040
    026102  aa   120101 107105   11354  	oct	120101107105
    026103  aa   040114 111115   11355  	oct	040114111115
    026104  aa   111124 040151   11356  	oct	111124040151
    026105  aa   156164 145147   11357  	oct	156164145147
    026106  aa   145162 040155   11358  	oct	145162040155
    026107  aa   165163 164040   11359  	oct	165163164040
    026110  aa   142145 040147   11360  	oct	142145040147
    026111  aa   162145 141164   11361  	oct	162145141164
    026112  aa   145162 040164   11362  	oct	145162040164
    026113  aa   150141 156040   11363  	oct	150141156040
    026114  aa   157162 040145   11364  	oct	157162040145
    026115  aa   161165 141154   11365  	oct	161165141154
    026116  aa   040164 157040   11366  	oct	040164157040
    026117  aa   164150 145040   11367  	oct	164150145040
    026120  aa   106117 117124   11368  	oct	106117117124
    026121  aa   111116 107040   11369  	oct	111116107040
    026122  aa   151156 164145   11370  	oct	151156164145
    026123  aa   147145 162040   11371  	oct	147145162040
    026124  aa   105141 143150   11372  	oct	105141143150
    026125  aa   040162 145160   11373  	oct	040162145160
    026126  aa   157162 164055   11374  	oct	157162164055
    026127  aa   156141 155145   11375  	oct	156141155145
    026130  aa   040163 160145   11376  	oct	040163160145
    026131  aa   143151 146151   11377  	oct	143151146151
    026132  aa   145144 040151   11378  	oct	145144040151
    026133  aa   156040 164150   11379  	oct	156040164150
    026134  aa   145040 122105   11380  	oct	145040122105
    026135  aa   120117 122124   11381  	oct	120117122124
    026136  aa   040143 154141   11382  	oct	040143154141
    026137  aa   165163 145040   11383  	oct	165163145040
    026140  aa   155165 163164   11384  	oct	155165163164
    026141  aa   040142 145040   11385  	oct	040142145040
    026142  aa   164150 145040   11386  	oct	164150145040
    026143  aa   163165 142152   11387  	oct	163165142152
    026144  aa   145143 164040   11388  	oct	145143164040
    026145  aa   157146 040141   11389  	oct	157146040141
    026146  aa   156040 122104   11390  	oct	156040122104
    026147  aa   040145 156164   11391  	oct	040145156164
    026150  aa   162171 040151   11392  	oct	162171040151
    026151  aa   156040 164150   11393  	oct	156040164150
    026152  aa   145040 122145   11394  	oct	145040122145
    026153  aa   160157 162164   11395  	oct	160157162164
    026154  aa   040123 145143   11396  	oct	040123145143
    026155  aa   164151 157156   11397  	oct	164151157156
    026156  aa   040176 101040   11398  	oct	040176101040
    026157  aa   162145 160157   11399  	oct	162145160157
    026160  aa   162164 055156   11400  	oct	162164055156
    026161  aa   141155 145040   11401  	oct	141155145040
    026162  aa   155165 163164   11402  	oct	155165163164
    026163  aa   040141 160160   11403  	oct	040141160160
    026164  aa   145141 162040   11404  	oct	145141162040
    026165  aa   151156 040157   11405  	oct	151156040157
    026166  aa   156154 171040   11406  	oct	156154171040
    026167  aa   157156 145040   11407  	oct	157156145040
    026170  aa   122105 120117   11408  	oct	122105120117
    026171  aa   122124 040143   11409  	oct	122124040143
    026172  aa   154141 165163   11410  	oct	154141165163
    026173  aa   145040 124150   11411  	oct	145040124150
    026174  aa   145040 163165   11412  	oct	145040163165
    026175  aa   142152 145143   11413  	oct	142152145143
    026176  aa   164040 157146   11414  	oct	164040157146
    026177  aa   040141 040146   11415  	oct	040141040146
    026200  aa   151154 145040   11416  	oct	151154145040
    026201  aa   144145 163143   11417  	oct	144145163143
    026202  aa   162151 160164   11418  	oct	162151160164
    026203  aa   151157 156040   11419  	oct	151157156040
    026204  aa   145156 164162   11420  	oct	145156164162
    026205  aa   171040 164150   11421  	oct	171040164150
    026206  aa   141164 040163   11422  	oct	141164040163
    026207  aa   160145 143151   11423  	oct	160145143151
    026210  aa   146151 145144   11424  	oct	146151145144
    026211  aa   040141 040122   11425  	oct	040141040122
    026212  aa   105120 117122   11426  	oct	105120117122
    026213  aa   124040 143154   11427  	oct	124040143154
    026214  aa   141165 163145   11428  	oct	141165163145
    026215  aa   040155 141171   11429  	oct	040155141171
    026216  aa   040157 156154   11430  	oct	040157156154
    026217  aa   171040 142145   11431  	oct	171040142145
    026220  aa   040162 145146   11432  	oct	040162145146
    026221  aa   145162 145144   11433  	oct	145162145144
    026222  aa   040164 157040   11434  	oct	040164157040
    026223  aa   142171 040164   11435  	oct	142171040164
    026224  aa   150145 040117   11436  	oct	150145040117
    026225  aa   120105 116040   11437  	oct	120105116040
    026226  aa   117125 124120   11438  	oct	117125124120
    026227  aa   125124 054040   11439  	oct	125124054040
    026230  aa   117120 105116   11440  	oct	117120105116
    026231  aa   040105 130124   11441  	oct	040105130124
    026232  aa   105116 104040   11442  	oct	105116104040
    026233  aa   141156 144040   11443  	oct	141156144040
    026234  aa   103114 117123   11444  	oct	103114117123
    026235  aa   105040 163164   11445  	oct	105040163164
    026236  aa   141164 145155   11446  	oct	141164145155
    026237  aa   145156 164163   11447  	oct	145156164163
    026240  aa   040176 124150   11448  	oct	040176124150
    026241  aa   151163 040144   11449  	oct	151163040144
    026242  aa   141164 141040   11450  	oct	141164141040
    026243  aa   151164 145155   11451  	oct	151164145155
    026244  aa   040155 165163   11452  	oct	040155165163
    026245  aa   164040 142145   11453  	oct	164040142145
    026246  aa   040156 165155   11454  	oct	040156165155
    026247  aa   145162 151143   11455  	oct	145162151143
    026250  aa   040124 150151   11456  	oct	040124150151
    026251  aa   163040 144141   11457  	oct	163040144141
    026252  aa   164141 040151   11458  	oct	164141040151
    026253  aa   164145 155040   11459  	oct	164145155040
    026254  aa   155165 163164   11460  	oct	155165163164
    026255  aa   040142 145040   11461  	oct	040142145040
    026256  aa   141040 123125   11462  	oct	141040123125
    026257  aa   115040 143157   11463  	oct	115040143157
    026260  aa   165156 164145   11464  	oct	165156164145
    026261  aa   162040 167150   11465  	oct	162040167150
    026262  aa   151143 150040   11466  	oct	151143150040
    026263  aa   151163 040144   11467  	oct	151163040144
    026264  aa   145146 151156   11468  	oct	145146151156
    026265  aa   145144 040151   11469  	oct	145144040151
    026266  aa   156040 164150   11470  	oct	156040164150
    026267  aa   145040 163141   11471  	oct	145040163141
    026270  aa   155145 040162   11472  	oct	155145040162
    026271  aa   145160 157162   11473  	oct	145160157162
    026272  aa   164040 147162   11474  	oct	164040147162
    026273  aa   157165 160040   11475  	oct	157165160040
    026274  aa   164150 141164   11476  	oct	164150141164
    026275  aa   040143 157156   11477  	oct	040143157156
    026276  aa   164141 151156   11478  	oct	164141151156
    026277  aa   163040 164150   11479  	oct	163040164150
    026300  aa   151163 040123   11480  	oct	151163040123
    026301  aa   125115 040143   11481  	oct	125115040143
    026302  aa   154141 165163   11482  	oct	154141165163
    026303  aa   145040 157162   11483  	oct	145040157162
    026304  aa   040151 156040   11484  	oct	040151156040
    026305  aa   141040 162145   11485  	oct	141040162145
    026306  aa   160157 162164   11486  	oct	160157162164
    026307  aa   040147 162157   11487  	oct	040147162157
    026310  aa   165160 040167   11488  	oct	165160040167
    026311  aa   150151 143150   11489  	oct	150151143150
    026312  aa   040151 163040   11490  	oct	040151163040
    026313  aa   141164 040141   11491  	oct	141164040141
    026314  aa   040154 157167   11492  	oct	040154157167
    026315  aa   145162 040154   11493  	oct	145162040154
    026316  aa   145166 145154   11494  	oct	145166145154
    026317  aa   040151 156040   11495  	oct	040151156040
    026320  aa   164150 145040   11496  	oct	164150145040
    026321  aa   143157 156164   11497  	oct	143157156164
    026322  aa   162157 154040   11498  	oct	162157154040
    026323  aa   150151 145162   11499  	oct	150151145162
    026324  aa   141162 143150   11500  	oct	141162143150
    026325  aa   171040 176124   11501  	oct	171040176124
    026326  aa   150151 163040   11502  	oct	150151163040
    026327  aa   144141 164141   11503  	oct	144141164141
    026330  aa   040151 164145   11504  	oct	040151164145
    026331  aa   155040 155165   11505  	oct	155040155165
    026332  aa   163164 040156   11506  	oct	163164040156
    026333  aa   157164 040142   11507  	oct	157164040142
    026334  aa   145040 141040   11508  	oct	145040141040
    026335  aa   123125 115040   11509  	oct	123125115040
    026336  aa   143157 165156   11510  	oct	143157165156
    026337  aa   164145 162040   11511  	oct	164145162040
    026340  aa   124150 151163   11512  	oct	124150151163
    026341  aa   040144 141164   11513  	oct	040144141164
    026342  aa   141040 156141   11514  	oct	141040156141
    026343  aa   155145 040155   11515  	oct	155145040155
    026344  aa   165163 164040   11516  	oct	165163164040
    026345  aa   142145 040141   11517  	oct	142145040141
    026346  aa   040104 105124   11518  	oct	040104105124
    026347  aa   101111 114040   11519  	oct	101111114040
    026350  aa   162145 160157   11520  	oct	162145160157
    026351  aa   162164 040147   11521  	oct	162164040147
    026352  aa   162157 165160   11522  	oct	162157165160
    026353  aa   040144 145163   11523  	oct	040144145163
    026354  aa   143162 151142   11524  	oct	143162151142
    026355  aa   145144 040151   11525  	oct	145144040151
    026356  aa   156040 164150   11526  	oct	156040164150
    026357  aa   145040 163141   11527  	oct	145040163141
    026360  aa   155145 040162   11528  	oct	155145040162
    026361  aa   145160 157162   11529  	oct	145160157162
    026362  aa   164040 141163   11530  	oct	164040141163
    026363  aa   040164 150145   11531  	oct	040164150145
    026364  aa   040103 117116   11532  	oct	040103117116
    026365  aa   124122 117114   11533  	oct	124122117114
    026366  aa   040106 117117   11534  	oct	040106117117
    026367  aa   124111 116107   11535  	oct	124111116107
    026370  aa   040162 145160   11536  	oct	040162145160
    026371  aa   157162 164040   11537  	oct	157162164040
    026372  aa   147162 157165   11538  	oct	147162157165
    026373  aa   160040 167150   11539  	oct	160040167150
    026374  aa   151143 150040   11540  	oct	151143150040
    026375  aa   143157 156164   11541  	oct	143157156164
    026376  aa   141151 156163   11542  	oct	141151156163
    026377  aa   040164 150145   11543  	oct	040164150145
    026400  aa   040123 125115   11544  	oct	040123125115
    026401  aa   040143 154141   11545  	oct	040143154141
    026402  aa   165163 145040   11546  	oct	165163145040
    026403  aa   176101 040123   11547  	oct	176101040123
    026404  aa   125115 040143   11548  	oct	125115040143
    026405  aa   154141 165163   11549  	oct	154141165163
    026406  aa   145040 155141   11550  	oct	145040155141
    026407  aa   171040 157156   11551  	oct	171040157156
    026410  aa   154171 040141   11552  	oct	154171040141
    026411  aa   160160 145141   11553  	oct	160160145141
    026412  aa   162040 151156   11554  	oct	162040151156
    026413  aa   040141 040103   11555  	oct	040141040103
    026414  aa   117116 124122   11556  	oct	117116124122
    026415  aa   117114 040106   11557  	oct	117114040106
    026416  aa   117117 124111   11558  	oct	117117124111
    026417  aa   116107 040162   11559  	oct	116107040162
    026420  aa   145160 157162   11560  	oct	145160157162
    026421  aa   164040 147162   11561  	oct	164040147162
    026422  aa   157165 160040   11562  	oct	157165160040
    026423  aa   101040 163171   11563  	oct	101040163171
    026424  aa   156164 141170   11564  	oct	156164141170
    026425  aa   040145 162162   11565  	oct	040145162162
    026426  aa   157162 040150   11566  	oct	157162040150
    026427  aa   141163 040157   11567  	oct	141163040157
    026430  aa   143143 165162   11568  	oct	143143165162
    026431  aa   162145 144054   11569  	oct	162145144054
    026432  aa   040154 145170   11570  	oct	040154145170
    026433  aa   145155 145163   11571  	oct	145155145163
    026434  aa   040155 141171   11572  	oct	040155141171
    026435  aa   040142 145040   11573  	oct	040142145040
    026436  aa   151147 156157   11574  	oct	151147156157
    026437  aa   162145 144040   11575  	oct	162145144040
    026440  aa   124150 151163   11576  	oct	124150151163
    026441  aa   040144 141164   11577  	oct	040144141164
    026442  aa   141055 156141   11578  	oct	141055156141
    026443  aa   155145 040155   11579  	oct	155145040155
    026444  aa   165163 164040   11580  	oct	165163164040
    026445  aa   156157 164040   11581  	oct	156157164040
    026446  aa   142145 040141   11582  	oct	142145040141
    026447  aa   040154 157167   11583  	oct	040154157167
    026450  aa   145162 040154   11584  	oct	145162040154
    026451  aa   145166 145154   11585  	oct	145166145154
    026452  aa   040143 157156   11586  	oct	040143157156
    026453  aa   164162 157154   11587  	oct	164162157154
    026454  aa   040164 150141   11588  	oct	040164150141
    026455  aa   156040 164150   11589  	oct	156040164150
    026456  aa   145040 141163   11590  	oct	145040141163
    026457  aa   163157 143151   11591  	oct	163157143151
    026460  aa   141164 145144   11592  	oct	141164145144
    026461  aa   040143 157156   11593  	oct	040143157156
    026462  aa   164162 157154   11594  	oct	164162157154
    026463  aa   040146 157162   11595  	oct	040146157162
    026464  aa   040164 150145   11596  	oct	040164150145
    026465  aa   040162 145160   11597  	oct	040162145160
    026466  aa   157162 164040   11598  	oct	157162164040
    026467  aa   147162 157165   11599  	oct	147162157165
    026470  aa   160040 151156   11600  	oct	160040151156
    026471  aa   040167 150151   11601  	oct	040167150151
    026472  aa   143150 040164   11602  	oct	143150040164
    026473  aa   150145 040122   11603  	oct	150145040122
    026474  aa   105123 105124   11604  	oct	105123105124
    026475  aa   040160 150162   11605  	oct	040160150162
    026476  aa   141163 145040   11606  	oct	141163145040
    026477  aa   141160 160145   11607  	oct	141160160145
    026500  aa   141162 163040   11608  	oct	141162163040
    026501  aa   176106 111116   11609  	oct	176106111116
    026502  aa   101114 040144   11610  	oct	101114040144
    026503  aa   157145 163040   11611  	oct	157145163040
    026504  aa   156157 164040   11612  	oct	156157164040
    026505  aa   141160 160145   11613  	oct	141160160145
    026506  aa   141162 040151   11614  	oct	141162040151
    026507  aa   156040 164150   11615  	oct	156040164150
    026510  aa   145040 103117   11616  	oct	145040103117
    026511  aa   116124 122117   11617  	oct	116124122117
    026512  aa   114040 143154   11618  	oct	114040143154
    026513  aa   141165 163145   11619  	oct	141165163145
    026514  aa   040146 157162   11620  	oct	040146157162
    026515  aa   040164 150151   11621  	oct	040164150151
    026516  aa   163040 162145   11622  	oct	163040162145
    026517  aa   160157 162164   11623  	oct	160157162164
    026520  aa   040122 110054   11624  	oct	040122110054
    026521  aa   040120 110054   11625  	oct	040120110054
    026522  aa   040103 110040   11626  	oct	040103110040
    026523  aa   106111 116101   11627  	oct	106111116101
    026524  aa   114054 040103   11628  	oct	114054040103
    026525  aa   106040 106111   11629  	oct	106040106111
    026526  aa   116101 114054   11630  	oct	116101114054
    026527  aa   040120 106040   11631  	oct	040120106040
    026530  aa   141156 144040   11632  	oct	141156144040
    026531  aa   122106 040143   11633  	oct	122106040143
    026532  aa   157156 164162   11634  	oct	157156164162
    026533  aa   157154 040147   11635  	oct	157154040147
    026534  aa   162157 165160   11636  	oct	162157165160
    026535  aa   163040 155141   11637  	oct	163040155141
    026536  aa   171040 141160   11638  	oct	171040141160
    026537  aa   160145 141162   11639  	oct	160145141162
    026540  aa   040157 156154   11640  	oct	040157156154
    026541  aa   171040 157156   11641  	oct	171040157156
    026542  aa   143145 040151   11642  	oct	143145040151
    026543  aa   156040 141040   11643  	oct	156040141040
    026544  aa   162145 160157   11644  	oct	162145160157
    026545  aa   162164 040144   11645  	oct	162164040144
    026546  aa   145163 143162   11646  	oct	145163143162
    026547  aa   151160 164151   11647  	oct	151160164151
    026550  aa   157156 040120   11648  	oct	157156040120
    026551  aa   110040 141156   11649  	oct	110040141156
    026552  aa   144040 120106   11650  	oct	144040120106
    026553  aa   040162 145160   11651  	oct	040162145160
    026554  aa   157162 164040   11652  	oct	157162164040
    026555  aa   147162 157165   11653  	oct	147162157165
    026556  aa   160163 040155   11654  	oct	160163040155
    026557  aa   141171 040142   11655  	oct	141171040142
    026560  aa   145040 163160   11656  	oct	145040163160
    026561  aa   145143 151146   11657  	oct	145143151146
    026562  aa   151145 144040   11658  	oct	151145144040
    026563  aa   157156 154171   11659  	oct	157156154171
    026564  aa   040151 146040   11660  	oct	040151146040
    026565  aa   141040 120101   11661  	oct	141040120101
    026566  aa   107105 040143   11662  	oct	107105040143
    026567  aa   154141 165163   11663  	oct	154141165163
    026570  aa   145040 151163   11664  	oct	145040151163
    026571  aa   040163 160145   11665  	oct	040163160145
    026572  aa   143151 146151   11666  	oct	143151146151
    026573  aa   145144 040151   11667  	oct	145144040151
    026574  aa   156040 164150   11668  	oct	156040164150
    026575  aa   145040 122104   11669  	oct	145040122104
    026576  aa   040145 156164   11670  	oct	040145156164
    026577  aa   162171 040124   11671  	oct	162171040124
    026600  aa   150151 163040   11672  	oct	150151163040
    026601  aa   144141 164141   11673  	oct	144141164141
    026602  aa   055156 141155   11674  	oct	055156141155
    026603  aa   145040 155165   11675  	oct	145040155165
    026604  aa   163164 040141   11676  	oct	163164040141
    026605  aa   160160 145141   11677  	oct	160160145141
    026606  aa   162040 151156   11678  	oct	162040151156
    026607  aa   040164 150145   11679  	oct	040164150145
    026610  aa   040103 117116   11680  	oct	040103117116
    026611  aa   124122 117114   11681  	oct	124122117114
    026612  aa   040143 154141   11682  	oct	040143154141
    026613  aa   165163 145040   11683  	oct	165163145040
    026614  aa   146157 162040   11684  	oct	146157162040
    026615  aa   164150 145040   11685  	oct	164150145040
    026616  aa   122104 040145   11686  	oct	122104040145
    026617  aa   156164 162171   11687  	oct	156164162171
    026620  aa   040101 164040   11688  	oct	040101164040
    026621  aa   155157 163164   11689  	oct	155157163164
    026622  aa   040157 156145   11690  	oct	040157156145
    026623  aa   040103 110040   11691  	oct	040103110040
    026624  aa   157162 040103   11692  	oct	157162040103
    026625  aa   106040 147162   11693  	oct	106040147162
    026626  aa   157165 160040   11694  	oct	157165160040
    026627  aa   143141 156040   11695  	oct	143141156040
    026630  aa   142145 040163   11696  	oct	142145040163
    026631  aa   160145 143151   11697  	oct	160145143151
    026632  aa   146151 145144   11698  	oct	146151145144
    026633  aa   040146 157162   11699  	oct	040146157162
    026634  aa   040145 141143   11700  	oct	040145141143
    026635  aa   150040 144141   11701  	oct	150040144141
    026636  aa   164141 055156   11702  	oct	164141055156
    026637  aa   141155 145040   11703  	oct	141155145040
    026640  aa   157162 040106   11704  	oct	157162040106
    026641  aa   111116 101114   11705  	oct	111116101114
    026642  aa   040151 156040   11706  	oct	040151156040
    026643  aa   164150 145040   11707  	oct	164150145040
    026644  aa   103117 116124   11708  	oct	103117116124
    026645  aa   122117 114040   11709  	oct	122117114040
    026646  aa   143154 141165   11710  	oct	143154141165
    026647  aa   163145 040111   11711  	oct	163145040111
    026650  aa   156040 103106   11712  	oct	156040103106
    026651  aa   054040 120110   11713  	oct	054040120110
    026652  aa   054040 120106   11714  	oct	054040120106
    026653  aa   040141 156144   11715  	oct	040141156144
    026654  aa   040122 106040   11716  	oct	040122106040
    026655  aa   162145 160157   11717  	oct	162145160157
    026656  aa   162164 040147   11718  	oct	162164040147
    026657  aa   162157 165160   11719  	oct	162157165160
    026660  aa   163054 040123   11720  	oct	163054040123
    026661  aa   117125 122103   11721  	oct	117125122103
    026662  aa   105040 143154   11722  	oct	105040143154
    026663  aa   141165 163145   11723  	oct	141165163145
    026664  aa   163040 141156   11724  	oct	163040141156
    026665  aa   144040 125123   11725  	oct	144040125123
    026666  aa   105040 163164   11726  	oct	105040163164
    026667  aa   141164 145155   11727  	oct	141164145155
    026670  aa   145156 164163   11728  	oct	145156164163
    026671  aa   040155 165163   11729  	oct	040155165163
    026672  aa   164040 156157   11730  	oct	164040156157
    026673  aa   164040 162145   11731  	oct	164040162145
    026674  aa   146145 162145   11732  	oct	146145162145
    026675  aa   156143 145040   11733  	oct	156143145040
    026676  aa   147162 157165   11734  	oct	147162157165
    026677  aa   160040 144141   11735  	oct	160040144141
    026700  aa   164141 040151   11736  	oct	164141040151
    026701  aa   164145 155163   11737  	oct	164145155163
    026702  aa   040167 150151   11738  	oct	040167150151
    026703  aa   143150 040143   11739  	oct	143150040143
    026704  aa   157156 164141   11740  	oct	157156164141
    026705  aa   151156 040141   11741  	oct	151156040141
    026706  aa   040103 117116   11742  	oct	040103117116
    026707  aa   124122 117114   11743  	oct	124122117114
    026710  aa   040144 141164   11744  	oct	040144141164
    026711  aa   141040 151164   11745  	oct	141040151164
    026712  aa   145155 040176   11746  	oct	145155040176
    026713  aa   111156 040103   11747  	oct	111156040103
    026714  aa   106054 040120   11748  	oct	106054040120
    026715  aa   110054 040120   11749  	oct	110054040120
    026716  aa   106040 141156   11750  	oct	106040141156
    026717  aa   144040 122106   11751  	oct	144040122106
    026720  aa   040162 145160   11752  	oct	040162145160
    026721  aa   157162 164040   11753  	oct	157162164040
    026722  aa   147162 157165   11754  	oct	147162157165
    026723  aa   160163 054040   11755  	oct	160163054040
    026724  aa   123117 125122   11756  	oct	123117125122
    026725  aa   103105 040143   11757  	oct	103105040143
    026726  aa   154141 165163   11758  	oct	154141165163
    026727  aa   145163 040141   11759  	oct	145163040141
    026730  aa   156144 040125   11760  	oct	156144040125
    026731  aa   123105 040163   11761  	oct	123105040163
    026732  aa   164141 164145   11762  	oct	164141164145
    026733  aa   155145 156164   11763  	oct	155145156164
    026734  aa   163040 155165   11764  	oct	163040155165
    026735  aa   163164 040156   11765  	oct	163164040156
    026736  aa   157164 040162   11766  	oct	157164040162
    026737  aa   145146 145162   11767  	oct	145146145162
    026740  aa   145156 143145   11768  	oct	145156143145
    026741  aa   040144 141164   11769  	oct	040144141164
    026742  aa   141040 151164   11770  	oct	141040151164
    026743  aa   145155 163040   11771  	oct	145155163040
    026744  aa   163165 142157   11772  	oct	163165142157
    026745  aa   162144 151156   11773  	oct	162144151156
    026746  aa   141164 145040   11774  	oct	141164145040
    026747  aa   164157 040141   11775  	oct	164157040141
    026750  aa   040103 117116   11776  	oct	040103117116
    026751  aa   124122 117114   11777  	oct	124122117114
    026752  aa   040144 141164   11778  	oct	040144141164
    026753  aa   141040 151164   11779  	oct	141040151164
    026754  aa   145155 040176   11780  	oct	145155040176
    026755  aa   111156 040103   11781  	oct	111156040103
    026756  aa   106054 040120   11782  	oct	106054040120
    026757  aa   110054 040120   11783  	oct	110054040120
    026760  aa   106040 141156   11784  	oct	106040141156
    026761  aa   144040 122106   11785  	oct	144040122106
    026762  aa   040162 145160   11786  	oct	040162145160
    026763  aa   157162 164040   11787  	oct	157162164040
    026764  aa   147162 157165   11788  	oct	147162157165
    026765  aa   160163 054040   11789  	oct	160163054040
    026766  aa   123117 125122   11790  	oct	123117125122
    026767  aa   103105 040143   11791  	oct	103105040143
    026770  aa   154141 165163   11792  	oct	154141165163
    026771  aa   145163 040141   11793  	oct	145163040141
    026772  aa   156144 040125   11794  	oct	156144040125
    026773  aa   123105 040163   11795  	oct	123105040163
    026774  aa   164141 164145   11796  	oct	164141164145
    026775  aa   155145 156164   11797  	oct	155145156164
    026776  aa   163040 155165   11798  	oct	163040155165
    026777  aa   163164 040156   11799  	oct	163164040156
    027000  aa   157164 040162   11800  	oct	157164040162
    027001  aa   145146 145162   11801  	oct	145146145162
    027002  aa   145156 143145   11802  	oct	145156143145
    027003  aa   040141 040162   11803  	oct	040141040162
    027004  aa   145144 145146   11804  	oct	145144145146
    027005  aa   151156 151164   11805  	oct	151156151164
    027006  aa   151157 156040   11806  	oct	151157156040
    027007  aa   157162 040162   11807  	oct	157162040162
    027010  aa   145156 141155   11808  	oct	145156141155
    027011  aa   151156 147040   11809  	oct	151156147040
    027012  aa   157146 040141   11810  	oct	157146040141
    027013  aa   040103 117116   11811  	oct	040103117116
    027014  aa   124122 117114   11812  	oct	124122117114
    027015  aa   040144 141164   11813  	oct	040144141164
    027016  aa   141040 151164   11814  	oct	141040151164
    027017  aa   145155 040176   11815  	oct	145155040176
    027020  aa   111156 040120   11816  	oct	111156040120
    027021  aa   110040 141156   11817  	oct	110040141156
    027022  aa   144040 120106   11818  	oct	144040120106
    027023  aa   040162 145160   11819  	oct	040162145160
    027024  aa   157162 164040   11820  	oct	157162164040
    027025  aa   147162 157165   11821  	oct	147162157165
    027026  aa   160163 040123   11822  	oct	160163040123
    027027  aa   117125 122103   11823  	oct	117125122103
    027030  aa   105040 143154   11824  	oct	105040143154
    027031  aa   141165 163145   11825  	oct	141165163145
    027032  aa   163040 141156   11826  	oct	163040141156
    027033  aa   144040 125123   11827  	oct	144040125123
    027034  aa   105040 163164   11828  	oct	105040163164
    027035  aa   141164 145155   11829  	oct	141164145155
    027036  aa   145156 164163   11830  	oct	145156164163
    027037  aa   040155 165163   11831  	oct	040155165163
    027040  aa   164040 156157   11832  	oct	164040156157
    027041  aa   164040 162145   11833  	oct	164040162145
    027042  aa   146145 162145   11834  	oct	146145162145
    027043  aa   156143 145040   11835  	oct	156143145040
    027044  aa   143157 156164   11836  	oct	143157156164
    027045  aa   162157 154040   11837  	oct	162157154040
    027046  aa   144141 164141   11838  	oct	144141164141
    027047  aa   040156 141155   11839  	oct	040156141155
    027050  aa   145163 040176   11840  	oct	145163040176
    027051  aa   111146 040141   11841  	oct	111146040141
    027052  aa   040107 105116   11842  	oct	040107105116
    027053  aa   105122 101124   11843  	oct	105122101124
    027054  aa   105040 162145   11844  	oct	105040162145
    027055  aa   160157 162164   11845  	oct	160157162164
    027056  aa   055156 141155   11846  	oct	055156141155
    027057  aa   145040 163164   11847  	oct	145040163164
    027060  aa   141164 145155   11848  	oct	141164145155
    027061  aa   145156 164040   11849  	oct	145156164040
    027062  aa   151163 040163   11850  	oct	151163040163
    027063  aa   160145 143151   11851  	oct	160145143151
    027064  aa   146151 145144   11852  	oct	146151145144
    027065  aa   040164 150145   11853  	oct	040164150145
    027066  aa   156040 164150   11854  	oct	156040164150
    027067  aa   145040 122104   11855  	oct	145040122104
    027070  aa   040155 165163   11856  	oct	040155165163
    027071  aa   164040 151156   11857  	oct	164040151156
    027072  aa   143154 165144   11858  	oct	143154165144
    027073  aa   145040 156157   11859  	oct	145040156157
    027074  aa   040155 157162   11860  	oct	040155157162
    027075  aa   145040 164150   11861  	oct	145040164150
    027076  aa   141156 040157   11862  	oct	141156040157
    027077  aa   156145 040104   11863  	oct	156145040104
    027100  aa   105124 101111   11864  	oct	105124101111
    027101  aa   114040 162145   11865  	oct	114040162145
    027102  aa   160157 162164   11866  	oct	160157162164
    027103  aa   040147 162157   11867  	oct	040147162157
    027104  aa   165160 040176   11868  	oct	165160040176
    027105  aa   124150 145040   11869  	oct	124150145040
    027106  aa   144145 163143   11870  	oct	144145163143
    027107  aa   162151 160164   11871  	oct	162151160164
    027110  aa   151157 156040   11872  	oct	151157156040
    027111  aa   157146 040141   11873  	oct	157146040141
    027112  aa   040162 145160   11874  	oct	040162145160
    027113  aa   157162 164040   11875  	oct	157162164040
    027114  aa   155165 163164   11876  	oct	155165163164
    027115  aa   040151 156143   11877  	oct	040151156143
    027116  aa   154165 144145   11878  	oct	154165144145
    027117  aa   040141 164040   11879  	oct	040141164040
    027120  aa   154145 141163   11880  	oct	154145141163
    027121  aa   164040 157156   11881  	oct	164040157156
    027122  aa   145040 142157   11882  	oct	145040142157
    027123  aa   144171 040147   11883  	oct	144171040147
    027124  aa   162157 165160   11884  	oct	162157165160
    027125  aa   040111 146040   11885  	oct	040111146040
    027126  aa   141040 107105   11886  	oct	141040107105
    027127  aa   116105 122101   11887  	oct	116105122101
    027130  aa   124105 040162   11888  	oct	124105040162
    027131  aa   145160 157162   11889  	oct	145160157162
    027132  aa   164055 156141   11890  	oct	164055156141
    027133  aa   155145 040163   11891  	oct	155145040163
    027134  aa   164141 164145   11892  	oct	164141164145
    027135  aa   155145 156164   11893  	oct	155145156164
    027136  aa   040151 163040   11894  	oct	040151163040
    027137  aa   163160 145143   11895  	oct	163160145143
    027140  aa   151146 151145   11896  	oct	151146151145
    027141  aa   144040 164150   11897  	oct	144040164150
    027142  aa   145156 040164   11898  	oct	145156040164
    027143  aa   150145 040122   11899  	oct	150145040122
    027144  aa   104040 155165   11900  	oct	104040155165
    027145  aa   163164 040151   11901  	oct	163164040151
    027146  aa   156143 154165   11902  	oct	156143154165
    027147  aa   144145 040141   11903  	oct	144145040141
    027150  aa   040103 117116   11904  	oct	040103117116
    027151  aa   124122 117114   11905  	oct	124122117114
    027152  aa   040143 154141   11906  	oct	040143154141
    027153  aa   165163 145040   11907  	oct	165163145040
    027154  aa   176124 150151   11908  	oct	176124150151
    027155  aa   163040 144141   11909  	oct	163040144141
    027156  aa   164141 055156   11910  	oct	164141055156
    027157  aa   141155 145040   11911  	oct	141155145040
    027160  aa   151163 040156   11912  	oct	151163040156
    027161  aa   157164 040141   11913  	oct	157164040141
    027162  aa   040162 145160   11914  	oct	040162145160
    027163  aa   157162 164055   11915  	oct	157162164055
    027164  aa   156141 155145   11916  	oct	156141155145
    027165  aa   040124 150145   11917  	oct	040124150145
    027166  aa   040123 125120   11918  	oct	040123125120
    027167  aa   120122 105123   11919  	oct	120122105123
    027170  aa   123040 163164   11920  	oct	123040163164
    027171  aa   141164 145155   11921  	oct	141164145155
    027172  aa   145156 164040   11922  	oct	145156164040
    027173  aa   155141 171040   11923  	oct	155141171040
    027174  aa   157156 154171   11924  	oct	157156154171
    027175  aa   040141 160160   11925  	oct	040141160160
    027176  aa   145141 162040   11926  	oct	145141162040
    027177  aa   151156 040141   11927  	oct	151156040141
    027200  aa   040125 123105   11928  	oct	040125123105
    027201  aa   040102 105106   11929  	oct	040102105106
    027202  aa   117122 105040   11930  	oct	117122105040
    027203  aa   122105 120117   11931  	oct	122105120117
    027204  aa   122124 111116   11932  	oct	122124111116
    027205  aa   107040 160162   11933  	oct	107040160162
    027206  aa   157143 145144   11934  	oct	157143145144
    027207  aa   165162 145040   11935  	oct	165162145040
    027210  aa   124150 151143   11936  	oct	124150151143
    027211  aa   040144 141164   11937  	oct	040144141164
    027212  aa   141055 156141   11938  	oct	141055156141
    027213  aa   155145 040155   11939  	oct	155145040155
    027214  aa   165163 164040   11940  	oct	165163164040
    027215  aa   141160 160145   11941  	oct	141160160145
    027216  aa   141162 040151   11942  	oct	141162040151
    027217  aa   156040 160162   11943  	oct	156040160162
    027220  aa   145143 151163   11944  	oct	145143151163
    027221  aa   145154 171040   11945  	oct	145154171040
    027222  aa   157156 145040   11946  	oct	157156145040
    027223  aa   125123 105040   11947  	oct	125123105040
    027224  aa   163164 141164   11948  	oct	163164141164
    027225  aa   145155 145156   11949  	oct	145155145156
    027226  aa   164040 107105   11950  	oct	164040107105
    027227  aa   116105 122101   11951  	oct	116105122101
    027230  aa   124105 054040   11952  	oct	124105054040
    027231  aa   111116 111124   11953  	oct	111116111124
    027232  aa   111101 124105   11954  	oct	111101124105
    027233  aa   040141 156144   11955  	oct	040141156144
    027234  aa   040124 105122   11956  	oct	040124105122
    027235  aa   115111 116101   11957  	oct	115111116101
    027236  aa   124105 040163   11958  	oct	124105040163
    027237  aa   164141 164145   11959  	oct	164141164145
    027240  aa   155145 156164   11960  	oct	155145156164
    027241  aa   163040 155165   11961  	oct	163040155165
    027242  aa   163164 040156   11962  	oct	163164040156
    027243  aa   157164 040141   11963  	oct	157164040141
    027244  aa   160160 145141   11964  	oct	160160145141
    027245  aa   162040 151156   11965  	oct	162040151156
    027246  aa   040141 040125   11966  	oct	040141040125
    027247  aa   123105 040102   11967  	oct	123105040102
    027250  aa   105106 117122   11968  	oct	105106117122
    027251  aa   105040 122105   11969  	oct	105040122105
    027252  aa   120117 122124   11970  	oct	120117122124
    027253  aa   111116 107040   11971  	oct	111116107040
    027254  aa   160162 157143   11972  	oct	160162157143
    027255  aa   145144 165162   11973  	oct	145144165162
    027256  aa   145163 040101   11974  	oct	145163040101
    027257  aa   040125 123105   11975  	oct	040125123105
    027260  aa   040102 105106   11976  	oct	040102105106
    027261  aa   117122 105040   11977  	oct	117122105040
    027262  aa   122105 120117   11978  	oct	122105120117
    027263  aa   122124 111116   11979  	oct	122124111116
    027264  aa   107040 160162   11980  	oct	107040160162
    027265  aa   157143 145144   11981  	oct	157143145144
    027266  aa   165162 145040   11982  	oct	165162145040
    027267  aa   155165 163164   11983  	oct	155165163164
    027270  aa   040156 157164   11984  	oct	040156157164
    027271  aa   040141 154164   11985  	oct	040141154164
    027272  aa   145162 040164   11986  	oct	145162040164
    027273  aa   150145 040143   11987  	oct	150145040143
    027274  aa   157156 164145   11988  	oct	157156164145
    027275  aa   156164 163040   11989  	oct	156164163040
    027276  aa   157146 040141   11990  	oct	157146040141
    027277  aa   156171 040103   11991  	oct	156171040103
    027300  aa   117116 124122   11992  	oct	117116124122
    027301  aa   117114 040144   11993  	oct	117114040144
    027302  aa   141164 141040   11994  	oct	141164141040
    027303  aa   151164 145155   11995  	oct	151164145155
    027304  aa   040117 156145   11996  	oct	040117156145
    027305  aa   040157 162040   11997  	oct	040157162040
    027306  aa   155157 162145   11998  	oct	155157162145
    027307  aa   040122 145160   11999  	oct	040122145160
    027310  aa   157162 164040   12000  	oct	157162164040
    027311  aa   107162 157165   12001  	oct	107162157165
    027312  aa   160040 104145   12002  	oct	160040104145
    027313  aa   163143 162151   12003  	oct	163143162151
    027314  aa   160164 151157   12004  	oct	160164151157
    027315  aa   156040 105156   12005  	oct	156040105156
    027316  aa   164162 151145   12006  	oct	164162151145
    027317  aa   163040 155165   12007  	oct	163040155165
    027320  aa   163164 040146   12008  	oct	163164040146
    027321  aa   157154 154157   12009  	oct	157154154157
    027322  aa   167040 164150   12010  	oct	167040164150
    027323  aa   145040 122104   12011  	oct	145040122104
    027324  aa   040145 156164   12012  	oct	040145156164
    027325  aa   162171 040117   12013  	oct	162171040117
    027326  aa   156154 171040   12014  	oct	156154171040
    027327  aa   164150 145040   12015  	oct	164150145040
    027330  aa   122127 103123   12016  	oct	122127103123
    027331  aa   040143 141156   12017  	oct	040143141156
    027332  aa   040143 150141   12018  	oct	040143150141
    027333  aa   156147 145040   12019  	oct	156147145040
    027334  aa   164150 145040   12020  	oct	164150145040
    027335  aa   143157 156164   12021  	oct	143157156164
    027336  aa   145156 164163   12022  	oct	145156164163
    027337  aa   040157 146040   12023  	oct	040157146040
    027340  aa   114111 116105   12024  	oct	114111116105
    027341  aa   055103 117125   12025  	oct	055103117125
    027342  aa   116124 105122   12026  	oct	116124105122
    027343  aa   040101 040106   12027  	oct	040101040106
    027344  aa   157162 155141   12028  	oct	157162155141
    027345  aa   164040 062040   12029  	oct	164040062040
    027346  aa   145156 164162   12030  	oct	145156164162
    027347  aa   171040 155165   12031  	oct	171040155165
    027350  aa   163164 040143   12032  	oct	163164040143
    027351  aa   157156 164141   12033  	oct	157156164141
    027352  aa   151156 040141   12034  	oct	151156040141
    027353  aa   164040 154145   12035  	oct	164040154145
    027354  aa   141163 164040   12036  	oct	141163164040
    027355  aa   157156 145040   12037  	oct	157156145040
    027356  aa   157160 164151   12038  	oct	157160164151
    027357  aa   157156 141154   12039  	oct	157156141154
    027360  aa   040143 154141   12040  	oct	040143154141
    027361  aa   165163 145040   12041  	oct	165163145040
    027362  aa   111146 040141   12042  	oct	111146040141
    027363  aa   040125 123101   12043  	oct	040125123101
    027364  aa   107105 040143   12044  	oct	107105040143
    027365  aa   154141 165163   12045  	oct	154141165163
    027366  aa   145040 141160   12046  	oct	145040141160
    027367  aa   160145 141162   12047  	oct	160145141162
    027370  aa   163040 151156   12048  	oct	163040151156
    027371  aa   040141 040106   12049  	oct	040141040106
    027372  aa   157162 155141   12050  	oct	157162155141
    027373  aa   164040 063040   12051  	oct	164040063040
    027374  aa   145156 164162   12052  	oct	145156164162
    027375  aa   171040 164150   12053  	oct	171040164150
    027376  aa   145156 040164   12054  	oct	145156040164
    027377  aa   150141 164040   12055  	oct	150141164040
    027400  aa   145156 164162   12056  	oct	145156164162
    027401  aa   171040 155165   12057  	oct	171040155165
    027402  aa   163164 040144   12058  	oct	163164040144
    027403  aa   145146 151156   12059  	oct	145146151156
    027404  aa   145040 141040   12060  	oct	145040141040
    027405  aa   160162 151156   12061  	oct	160162151156
    027406  aa   164141 142154   12062  	oct	164141142154
    027407  aa   145040 151164   12063  	oct	145040151164
    027410  aa   145155 040111   12064  	oct	145155040111
    027411  aa   146040 164150   12065  	oct	146040164150
    027412  aa   145040 125123   12066  	oct	145040125123
    027413  aa   101107 105040   12067  	oct	101107105040
    027414  aa   143154 141165   12068  	oct	143154141165
    027415  aa   163145 040141   12069  	oct	163145040141
    027416  aa   160160 145141   12070  	oct	160160145141
    027417  aa   162163 040151   12071  	oct	162163040151
    027420  aa   156040 141040   12072  	oct	156040141040
    027421  aa   106157 162155   12073  	oct	106157162155
    027422  aa   141164 040061   12074  	oct	141164040061
    027423  aa   040157 162040   12075  	oct	040157162040
    027424  aa   106157 162155   12076  	oct	106157162155
    027425  aa   141164 040062   12077  	oct	141164040062
    027426  aa   040145 156164   12078  	oct	040145156164
    027427  aa   162171 054040   12079  	oct	162171054040
    027430  aa   141164 040154   12080  	oct	141164040154
    027431  aa   145141 163164   12081  	oct	145141163164
    027432  aa   040157 156145   12082  	oct	040157156145
    027433  aa   040163 165142   12083  	oct	040163165142
    027434  aa   157162 144151   12084  	oct	157162144151
    027435  aa   156141 164145   12085  	oct	156141164145
    027436  aa   040145 156164   12086  	oct	040145156164
    027437  aa   162171 040155   12087  	oct	162171040155
    027440  aa   165163 164040   12088  	oct	165163164040
    027441  aa   144145 146151   12089  	oct	144145146151
    027442  aa   156145 040141   12090  	oct	156145040141
    027443  aa   040160 162151   12091  	oct	040160162151
    027444  aa   156164 141142   12092  	oct	156164141142
    027445  aa   154145 040151   12093  	oct	154145040151
    027446  aa   164145 155040   12094  	oct	164145155040
    027447  aa   176101 040107   12095  	oct	176101040107
    027450  aa   122117 125120   12096  	oct	122117125120
    027451  aa   040111 116104   12097  	oct	040111116104
    027452  aa   111103 101124   12098  	oct	111103101124
    027453  aa   105040 155141   12099  	oct	105040155141
    027454  aa   171040 141160   12100  	oct	171040141160
    027455  aa   160145 141162   12101  	oct	160145141162
    027456  aa   040157 156154   12102  	oct	040157156154
    027457  aa   171040 151156   12103  	oct	171040151156
    027460  aa   040141 040124   12104  	oct	040141040124
    027461  aa   131120 105040   12105  	oct	131120105040
    027462  aa   104105 124101   12106  	oct	104105124101
    027463  aa   111114 040162   12107  	oct	111114040162
    027464  aa   145160 157162   12108  	oct	145160157162
    027465  aa   164040 164150   12109  	oct	164040164150
    027466  aa   141164 040144   12110  	oct	141164040144
    027467  aa   145146 151156   12111  	oct	145146151156
    027470  aa   145163 040141   12112  	oct	145163040141
    027471  aa   040160 162151   12113  	oct	040160162151
    027472  aa   156164 141142   12114  	oct	156164141142
    027473  aa   154145 040151   12115  	oct	154145040151
    027474  aa   164145 155040   12116  	oct	164145155040
    027475  aa   101040 114111   12117  	oct	101040114111
    027476  aa   116105 040116   12118  	oct	116105040116
    027477  aa   125115 102105   12119  	oct	125115102105
    027500  aa   122040 143154   12120  	oct	122040143154
    027501  aa   141165 163145   12121  	oct	141165163145
    027502  aa   040155 165163   12122  	oct	040155165163
    027503  aa   164040 156157   12123  	oct	164040156157
    027504  aa   164040 142145   12124  	oct	164040142145
    027505  aa   040164 150145   12125  	oct	040164150145
    027506  aa   040157 156154   12126  	oct	040157156154
    027507  aa   171040 143154   12127  	oct	171040143154
    027510  aa   141165 163145   12128  	oct	141165163145
    027511  aa   040163 160145   12129  	oct	040163160145
    027512  aa   143151 146151   12130  	oct	143151146151
    027513  aa   145144 040101   12131  	oct	145144040101
    027514  aa   156040 145156   12132  	oct	156040145156
    027515  aa   164162 171040   12133  	oct	164162171040
    027516  aa   164150 141164   12134  	oct	164150141164
    027517  aa   040143 157156   12135  	oct	040143157156
    027520  aa   164141 151156   12136  	oct	164141151156
    027521  aa   163040 141040   12137  	oct	163040141040
    027522  aa   126101 114125   12138  	oct	126101114125
    027523  aa   105040 143154   12139  	oct	105040143154
    027524  aa   141165 163145   12140  	oct	141165163145
    027525  aa   040155 165163   12141  	oct	040155165163
    027526  aa   164040 141154   12142  	oct	164040141154
    027527  aa   163157 040150   12143  	oct	163157040150
    027530  aa   141166 145040   12144  	oct	141166145040
    027531  aa   141040 103117   12145  	oct	141040103117
    027532  aa   114125 115116   12146  	oct	114125115116
    027533  aa   040116 125115   12147  	oct	040116125115
    027534  aa   102105 122040   12148  	oct	102105122040
    027535  aa   143154 141165   12149  	oct	143154141165
    027536  aa   163145 040124   12150  	oct	163145040124
    027537  aa   150145 040154   12151  	oct	150145040154
    027540  aa   151164 145162   12152  	oct	151164145162
    027541  aa   141154 040151   12153  	oct	141154040151
    027542  aa   156040 164150   12154  	oct	156040164150
    027543  aa   145040 103117   12155  	oct	145040103117
    027544  aa   104105 040143   12156  	oct	104105040143
    027545  aa   154141 165163   12157  	oct	154141165163
    027546  aa   145040 155165   12158  	oct	145040155165
    027547  aa   163164 040142   12159  	oct	163164040142
    027550  aa   145040 141040   12160  	oct	145040141040
    027551  aa   164167 157040   12161  	oct	164167157040
    027552  aa   143150 141162   12162  	oct	143150141162
    027553  aa   141143 164145   12163  	oct	141143164145
    027554  aa   162040 156157   12164  	oct	162040156157
    027555  aa   156156 165155   12165  	oct	156156165155
    027556  aa   145162 151143   12166  	oct	145162151143
    027557  aa   040154 151164   12167  	oct	040154151164
    027560  aa   145162 141154   12168  	oct	145162141154
    027561  aa   040111 146040   12169  	oct	040111146040
    027562  aa   164150 145040   12170  	oct	164150145040
    027563  aa   103117 104105   12171  	oct	103117104105
    027564  aa   040143 154141   12172  	oct	040143154141
    027565  aa   165163 145040   12173  	oct	165163145040
    027566  aa   151163 040163   12174  	oct	151163040163
    027567  aa   160145 143151   12175  	oct	160145143151
    027570  aa   146151 145144   12176  	oct	146151145144
    027571  aa   040146 157162   12177  	oct	040146157162
    027572  aa   040141 156171   12178  	oct	040141156171
    027573  aa   040162 145160   12179  	oct	040162145160
    027574  aa   157162 164040   12180  	oct	157162164040
    027575  aa   151156 040141   12181  	oct	151156040141
    027576  aa   040146 151154   12182  	oct	040146151154
    027577  aa   145040 164150   12183  	oct	145040164150
    027600  aa   145156 040151   12184  	oct	145156040151
    027601  aa   164040 155165   12185  	oct	164040155165
    027602  aa   163164 040142   12186  	oct	163164040142
    027603  aa   145040 163160   12187  	oct	145040163160
    027604  aa   145143 151146   12188  	oct	145143151146
    027605  aa   151145 144040   12189  	oct	151145144040
    027606  aa   146157 162040   12190  	oct	146157162040
    027607  aa   141154 154040   12191  	oct	141154154040
    027610  aa   162145 160157   12192  	oct	162145160157
    027611  aa   162164 163040   12193  	oct	162164163040
    027612  aa   151156 040164   12194  	oct	151156040164
    027613  aa   150145 040146   12195  	oct	150145040146
    027614  aa   151154 145040   12196  	oct	151154145040
    027615  aa   176124 150145   12197  	oct	176124150145
    027616  aa   040103 117114   12198  	oct	040103117114
    027617  aa   125115 116040   12199  	oct	125115116040
    027620  aa   116125 115102   12200  	oct	116125115102
    027621  aa   105122 040143   12201  	oct	105122040143
    027622  aa   154141 165163   12202  	oct	154141165163
    027623  aa   145040 143141   12203  	oct	145040143141
    027624  aa   156040 157156   12204  	oct	156040157156
    027625  aa   154171 040142   12205  	oct	154171040142
    027626  aa   145040 163160   12206  	oct	145040163160
    027627  aa   145143 151146   12207  	oct	145143151146
    027630  aa   151145 144040   12208  	oct	151145144040
    027631  aa   141164 040164   12209  	oct	141164040164
    027632  aa   150145 040145   12210  	oct	150145040145
    027633  aa   154145 155145   12211  	oct	154145155145
    027634  aa   156164 141162   12212  	oct	156164141162
    027635  aa   171040 154145   12213  	oct	171040154145
    027636  aa   166145 154040   12214  	oct	166145154040
    027637  aa   167151 164150   12215  	oct	167151164150
    027640  aa   151156 040141   12216  	oct	151156040141
    027641  aa   040162 145160   12217  	oct	040162145160
    027642  aa   157162 164040   12218  	oct	157162164040
    027643  aa   147162 157165   12219  	oct	147162157165
    027644  aa   160040 176124   12220  	oct	160040176124
    027645  aa   150145 040103   12221  	oct	150145040103
    027646  aa   117114 125115   12222  	oct	117114125115
    027647  aa   116040 116125   12223  	oct	116040116125
    027650  aa   115102 105122   12224  	oct	115102105122
    027651  aa   040143 154141   12225  	oct	040143154141
    027652  aa   165163 145040   12226  	oct	165163145040
    027653  aa   155165 163164   12227  	oct	155165163164
    027654  aa   040141 160160   12228  	oct	040141160160
    027655  aa   145141 162040   12229  	oct	145141162040
    027656  aa   151156 040157   12230  	oct	151156040157
    027657  aa   162040 142145   12231  	oct	162040142145
    027660  aa   040163 165142   12232  	oct	040163165142
    027661  aa   157162 144151   12233  	oct	157162144151
    027662  aa   156141 164145   12234  	oct	156141164145
    027663  aa   040164 157040   12235  	oct	040164157040
    027664  aa   141156 040145   12236  	oct	141156040145
    027665  aa   156164 162171   12237  	oct	156164162171
    027666  aa   040164 150141   12238  	oct	040164150141
    027667  aa   164040 143157   12239  	oct	164040143157
    027670  aa   156164 141151   12240  	oct	156164141151
    027671  aa   156163 040141   12241  	oct	156163040141
    027672  aa   040114 111116   12242  	oct	040114111116
    027673  aa   105040 116125   12243  	oct	105040116125
    027674  aa   115102 105122   12244  	oct	115102105122
    027675  aa   040143 154141   12245  	oct	040143154141
    027676  aa   165163 145040   12246  	oct	165163145040
    027677  aa   176127 151164   12247  	oct	176127151164
    027700  aa   150151 156040   12248  	oct	150151156040
    027701  aa   141040 147151   12249  	oct	141040147151
    027702  aa   166145 156040   12250  	oct	166145156040
    027703  aa   162145 160157   12251  	oct	162145160157
    027704  aa   162164 040154   12252  	oct	162164040154
    027705  aa   151156 145054   12253  	oct	151156145054
    027706  aa   040141 154154   12254  	oct	040141154154
    027707  aa   040141 142163   12255  	oct	040141142163
    027710  aa   157154 165164   12256  	oct	157154165164
    027711  aa   145040 103117   12257  	oct	145040103117
    027712  aa   114125 115116   12258  	oct	114125115116
    027713  aa   040116 125115   12259  	oct	040116125115
    027714  aa   102105 122040   12260  	oct	102105122040
    027715  aa   143154 141165   12261  	oct	143154141165
    027716  aa   163145 163040   12262  	oct	163145163040
    027717  aa   155165 163164   12263  	oct	155165163164
    027720  aa   040160 162145   12264  	oct	040160162145
    027721  aa   143145 144145   12265  	oct	143145144145
    027722  aa   040141 154154   12266  	oct	040141154154
    027723  aa   040162 145154   12267  	oct	040162145154
    027724  aa   141164 151166   12268  	oct	141164151166
    027725  aa   145040 103117   12269  	oct	145040103117
    027726  aa   114125 115116   12270  	oct	114125115116
    027727  aa   040116 125115   12271  	oct	040116125115
    027730  aa   102105 122040   12272  	oct	102105122040
    027731  aa   143154 141165   12273  	oct	143154141165
    027732  aa   163145 163040   12274  	oct	163145163040
    027733  aa   176123 165143   12275  	oct	176123165143
    027734  aa   143145 163163   12276  	oct	143145163163
    027735  aa   151166 145040   12277  	oct	151166145040
    027736  aa   141142 163157   12278  	oct	141142163157
    027737  aa   154165 164145   12279  	oct	154165164145
    027740  aa   040103 117114   12280  	oct	040103117114
    027741  aa   125115 116040   12281  	oct	125115116040
    027742  aa   116125 115102   12282  	oct	116125115102
    027743  aa   105122 040143   12283  	oct	105122040143
    027744  aa   154141 165163   12284  	oct	154141165163
    027745  aa   145163 040155   12285  	oct	145163040155
    027746  aa   165163 164040   12286  	oct	165163164040
    027747  aa   163160 145143   12287  	oct	163160145143
    027750  aa   151146 171040   12288  	oct	151146171040
    027751  aa   151156 164145   12289  	oct	151156164145
    027752  aa   147145 162163   12290  	oct	147145162163
    027753  aa   040151 156040   12291  	oct	040151156040
    027754  aa   151156 143162   12292  	oct	151156143162
    027755  aa   145141 163151   12293  	oct	145141163151
    027756  aa   156147 040157   12294  	oct	156147040157
    027757  aa   162144 145162   12295  	oct	162144145162
    027760  aa   040163 165143   12296  	oct	040163165143
    027761  aa   150040 164150   12297  	oct	150040164150
    027762  aa   141164 040145   12298  	oct	141164040145
    027763  aa   141143 150040   12299  	oct	141143150040
    027764  aa   160162 151156   12300  	oct	160162151156
    027765  aa   164141 142154   12301  	oct	164141142154
    027766  aa   145040 151164   12302  	oct	145040151164
    027767  aa   145155 040157   12303  	oct	145155040157
    027770  aa   143143 165160   12304  	oct	143143165160
    027771  aa   151145 163040   12305  	oct	151145163040
    027772  aa   141040 165156   12306  	oct	141040165156
    027773  aa   151161 165145   12307  	oct	151161165145
    027774  aa   040141 162145   12308  	oct	040141162145
    027775  aa   141040 176101   12309  	oct	141040176101
    027776  aa   040144 141164   12310  	oct	040144141164
    027777  aa   141055 156141   12311  	oct	141055156141
    030000  aa   155145 040151   12312  	oct	155145040151
    030001  aa   156040 164150   12313  	oct	156040164150
    030002  aa   145040 103117   12314  	oct	145040103117
    030003  aa   116124 122117   12315  	oct	116124122117
    030004  aa   114040 143154   12316  	oct	114040143154
    030005  aa   141165 163145   12317  	oct	141165163145
    030006  aa   040155 165163   12318  	oct	040155165163
    030007  aa   164040 156157   12319  	oct	164040156157
    030010  aa   164040 142145   12320  	oct	164040142145
    030011  aa   040144 145146   12321  	oct	040144145146
    030012  aa   151156 145144   12322  	oct	151156145144
    030013  aa   040151 156040   12323  	oct	040151156040
    030014  aa   164150 145040   12324  	oct	164150145040
    030015  aa   122145 160157   12325  	oct	122145160157
    030016  aa   162164 040123   12326  	oct	162164040123
    030017  aa   145143 164151   12327  	oct	145143164151
    030020  aa   157156 040105   12328  	oct	157156040105
    030021  aa   141143 150040   12329  	oct	141143150040
    030022  aa   144141 164141   12330  	oct	144141164141
    030023  aa   055156 141155   12331  	oct	055156141155
    030024  aa   145040 151156   12332  	oct	145040151156
    030025  aa   040141 040103   12333  	oct	040141040103
    030026  aa   117116 124122   12334  	oct	117116124122
    030027  aa   117114 040143   12335  	oct	117114040143
    030030  aa   154141 165163   12336  	oct	154141165163
    030031  aa   145040 155165   12337  	oct	145040155165
    030032  aa   163164 040151   12338  	oct	163164040151
    030033  aa   144145 156164   12339  	oct	144145156164
    030034  aa   151146 171040   12340  	oct	151146171040
    030035  aa   141040 144151   12341  	oct	141040144151
    030036  aa   146146 145162   12342  	oct	146146145162
    030037  aa   145156 164040   12343  	oct	145156164040
    030040  aa   144141 164141   12344  	oct	144141164141
    030041  aa   040151 164145   12345  	oct	040151164145
    030042  aa   155040 101040   12346  	oct	155040101040
    030043  aa   144141 164141   12347  	oct	144141164141
    030044  aa   055156 141155   12348  	oct	055156141155
    030045  aa   145040 151156   12349  	oct	145040151156
    030046  aa   040141 040103   12350  	oct	040141040103
    030047  aa   117116 124122   12351  	oct	117116124122
    030050  aa   117114 040143   12352  	oct	117114040143
    030051  aa   154141 165163   12353  	oct	154141165163
    030052  aa   145040 155165   12354  	oct	145040155165
    030053  aa   163164 040156   12355  	oct	163164040156
    030054  aa   157164 040150   12356  	oct	157164040150
    030055  aa   141166 145040   12357  	oct	141166145040
    030056  aa   163165 142157   12358  	oct	163165142157
    030057  aa   162144 151156   12359  	oct	162144151156
    030060  aa   141164 145040   12360  	oct	141164145040
    030061  aa   164157 040151   12361  	oct	164157040151
    030062  aa   164040 141040   12362  	oct	164040141040
    030063  aa   144141 164141   12363  	oct	144141164141
    030064  aa   040151 164145   12364  	oct	040151164145
    030065  aa   155040 167150   12365  	oct	155040167150
    030066  aa   157163 145040   12366  	oct	157163145040
    030067  aa   163151 172145   12367  	oct	163151172145
    030070  aa   040151 163040   12368  	oct	040151163040
    030071  aa   166141 162151   12369  	oct	166141162151
    030072  aa   141142 154145   12370  	oct	141142154145
    030073  aa   040101 164040   12371  	oct	040101164040
    030074  aa   155157 163164   12372  	oct	155157163164
    030075  aa   040157 156145   12373  	oct	040157156145
    030076  aa   040103 117116   12374  	oct	040103117116
    030077  aa   124122 117114   12375  	oct	124122117114
    030100  aa   040110 105101   12376  	oct	040110105101
    030101  aa   104111 116107   12377  	oct	104111116107
    030102  aa   040162 145160   12378  	oct	040162145160
    030103  aa   157162 164040   12379  	oct	157162164040
    030104  aa   147162 157165   12380  	oct	147162157165
    030105  aa   160040 141156   12381  	oct	160040141156
    030106  aa   144040 157156   12382  	oct	144040157156
    030107  aa   145040 103117   12383  	oct	145040103117
    030110  aa   116124 122117   12384  	oct	116124122117
    030111  aa   114040 106117   12385  	oct	114040106117
    030112  aa   117124 111116   12386  	oct	117124111116
    030113  aa   107040 162145   12387  	oct	107040162145
    030114  aa   160157 162164   12388  	oct	160157162164
    030115  aa   040147 162157   12389  	oct	040147162157
    030116  aa   165160 040143   12390  	oct	165160040143
    030117  aa   141156 040142   12391  	oct	141156040142
    030120  aa   145040 163160   12392  	oct	145040163160
    030121  aa   145143 151146   12393  	oct	145143151146
    030122  aa   151145 144040   12394  	oct	151145144040
    030123  aa   146157 162040   12395  	oct	146157162040
    030124  aa   145141 143150   12396  	oct	145141143150
    030125  aa   040144 141164   12397  	oct	040144141164
    030126  aa   141055 156141   12398  	oct	141055156141
    030127  aa   155145 040157   12399  	oct	155145040157
    030130  aa   162040 106111   12400  	oct	162040106111
    030131  aa   116101 114040   12401  	oct	116101114040
    030132  aa   151156 040164   12402  	oct	151156040164
    030133  aa   150145 040103   12403  	oct	150145040103
    030134  aa   117116 124122   12404  	oct	117116124122
    030135  aa   117114 123040   12405  	oct	117114123040
    030136  aa   143154 141165   12406  	oct	143154141165
    030137  aa   163145 040176   12407  	oct	163145040176
    030140  aa   124150 145040   12408  	oct	124150145040
    030141  aa   144141 164141   12409  	oct	144141164141
    030142  aa   055156 141155   12410  	oct	055156141155
    030143  aa   145040 155141   12411  	oct	145040155141
    030144  aa   171040 141160   12412  	oct	171040141160
    030145  aa   160145 141162   12413  	oct	160145141162
    030146  aa   040157 156154   12414  	oct	040157156154
    030147  aa   171040 157156   12415  	oct	171040157156
    030150  aa   143145 040151   12416  	oct	143145040151
    030151  aa   156040 164150   12417  	oct	156040164150
    030152  aa   145040 103117   12418  	oct	145040103117
    030153  aa   116124 122117   12419  	oct	116124122117
    030154  aa   114123 040143   12420  	oct	114123040143
    030155  aa   154141 165163   12421  	oct	154141165163
    030156  aa   145040 146157   12422  	oct	145040146157
    030157  aa   162040 164150   12423  	oct	162040164150
    030160  aa   145040 122104   12424  	oct	145040122104
    030161  aa   040145 156164   12425  	oct	040145156164
    030162  aa   162171 040127   12426  	oct	162171040127
    030163  aa   150145 156040   12427  	oct	150145156040
    030164  aa   163165 142164   12428  	oct	163165142164
    030165  aa   157164 141154   12429  	oct	157164141154
    030166  aa   154151 156147   12430  	oct	154151156147
    030167  aa   040151 163040   12431  	oct	040151163040
    030170  aa   163160 145143   12432  	oct	163160145143
    030171  aa   151146 151145   12433  	oct	151146151145
    030172  aa   144040 164150   12434  	oct	144040164150
    030173  aa   145040 141144   12435  	oct	145040141144
    030174  aa   144145 156144   12436  	oct	144145156144
    030175  aa   040155 141171   12437  	oct	040155141171
    030176  aa   040156 157164   12438  	oct	040156157164
    030177  aa   040142 145040   12439  	oct	040142145040
    030200  aa   141040 163165   12440  	oct	141040163165
    030201  aa   155040 143157   12441  	oct	155040143157
    030202  aa   165156 164145   12442  	oct	165156164145
    030203  aa   162040 124150   12443  	oct	162040124150
    030204  aa   145040 116105   12444  	oct	145040116105
    030205  aa   130124 040107   12445  	oct	130124040107
    030206  aa   122117 125120   12446  	oct	122117125120
    030207  aa   040151 156164   12447  	oct	040151156164
    030210  aa   145147 145162   12448  	oct	145147145162
    030211  aa   040155 165163   12449  	oct	040155165163
    030212  aa   164040 142145   12450  	oct	164040142145
    030213  aa   040147 162145   12451  	oct	040147162145
    030214  aa   141164 145162   12452  	oct	141164145162
    030215  aa   040164 150141   12453  	oct	040164150141
    030216  aa   156040 164150   12454  	oct	156040164150
    030217  aa   145040 154151   12455  	oct	145040154151
    030220  aa   156145 040156   12456  	oct	156145040156
    030221  aa   165155 142145   12457  	oct	165155142145
    030222  aa   162040 157156   12458  	oct	162040157156
    030223  aa   040167 150151   12459  	oct	040167150151
    030224  aa   143150 040164   12460  	oct	143150040164
    030225  aa   150145 040146   12461  	oct	150145040146
    030226  aa   151156 141154   12462  	oct	151156141154
    030227  aa   040160 162151   12463  	oct	040160162151
    030230  aa   156164 040154   12464  	oct	156164040154
    030231  aa   151156 145040   12465  	oct	151156145040
    030232  aa   157146 040164   12466  	oct	157146040164
    030233  aa   150145 040122   12467  	oct	150145040122
    030234  aa   105120 117122   12468  	oct	105120117122
    030235  aa   124040 110105   12469  	oct	124040110105
    030236  aa   101104 111116   12470  	oct	101104111116
    030237  aa   107040 147162   12471  	oct	107040147162
    030240  aa   157165 160040   12472  	oct	157165160040
    030241  aa   151163 040160   12473  	oct	151163040160
    030242  aa   162145 163145   12474  	oct	162145163145
    030243  aa   156164 145144   12475  	oct	156164145144
    030244  aa   040176 124150   12476  	oct	040176124150
    030245  aa   145040 116105   12477  	oct	145040116105
    030246  aa   130124 040107   12478  	oct	130124040107
    030247  aa   122117 125120   12479  	oct	122117125120
    030250  aa   040151 156164   12480  	oct	040151156164
    030251  aa   145147 145162   12481  	oct	145147145162
    030252  aa   040155 165163   12482  	oct	040155165163
    030253  aa   164040 142145   12483  	oct	164040142145
    030254  aa   040154 145163   12484  	oct	040154145163
    030255  aa   163040 164150   12485  	oct	163040164150
    030256  aa   141156 040164   12486  	oct	141156040164
    030257  aa   150145 040154   12487  	oct	150145040154
    030260  aa   151156 145040   12488  	oct	151156145040
    030261  aa   156165 155142   12489  	oct	156165155142
    030262  aa   145162 040163   12490  	oct	145162040163
    030263  aa   160145 143151   12491  	oct	160145143151
    030264  aa   146151 145144   12492  	oct	146151145144
    030265  aa   040142 171040   12493  	oct	040142171040
    030266  aa   164150 145040   12494  	oct	164150145040
    030267  aa   106111 122123   12495  	oct	106111122123
    030270  aa   124040 104105   12496  	oct	124040104105
    030271  aa   124101 111114   12497  	oct	124101111114
    030272  aa   040160 150162   12498  	oct	040160150162
    030273  aa   141163 145040   12499  	oct	141163145040
    030274  aa   157146 040164   12500  	oct	157146040164
    030275  aa   150145 040120   12501  	oct	150145040120
    030276  aa   101107 105040   12502  	oct	101107105040
    030277  aa   143154 141165   12503  	oct	143154141165
    030300  aa   163145 040176   12504  	oct	163145040176
    030301  aa   124150 145040   12505  	oct	124150145040
    030302  aa   163165 155040   12506  	oct	163165155040
    030303  aa   157146 040164   12507  	oct	157146040164
    030304  aa   150145 040116   12508  	oct	150145040116
    030305  aa   105130 124040   12509  	oct	105130124040
    030306  aa   107122 117125   12510  	oct	107122117125
    030307  aa   120040 151156   12511  	oct	120040151156
    030310  aa   164145 147145   12512  	oct	164145147145
    030311  aa   162040 141156   12513  	oct	162040141156
    030312  aa   144040 164150   12514  	oct	144040164150
    030313  aa   145040 154151   12515  	oct	145040154151
    030314  aa   156145 040156   12516  	oct	156145040156
    030315  aa   165155 142145   12517  	oct	165155142145
    030316  aa   162040 157156   12518  	oct	162040157156
    030317  aa   040167 150151   12519  	oct	040167150151
    030320  aa   143150 040164   12520  	oct	143150040164
    030321  aa   150145 040146   12521  	oct	150145040146
    030322  aa   151156 141154   12522  	oct	151156141154
    030323  aa   040160 162151   12523  	oct	040160162151
    030324  aa   156164 040154   12524  	oct	156164040154
    030325  aa   151156 145040   12525  	oct	151156145040
    030326  aa   157146 040164   12526  	oct	157146040164
    030327  aa   150145 040122   12527  	oct	150145040122
    030330  aa   105120 117122   12528  	oct	105120117122
    030331  aa   124040 110105   12529  	oct	124040110105
    030332  aa   101104 111116   12530  	oct	101104111116
    030333  aa   107040 147162   12531  	oct	107040147162
    030334  aa   157165 160040   12532  	oct	157165160040
    030335  aa   151163 040160   12533  	oct	151163040160
    030336  aa   162145 163145   12534  	oct	162145163145
    030337  aa   156164 145144   12535  	oct	156164145144
    030340  aa   040155 165163   12536  	oct	040155165163
    030341  aa   164040 142145   12537  	oct	164040142145
    030342  aa   040154 145163   12538  	oct	040154145163
    030343  aa   163040 164150   12539  	oct	163040164150
    030344  aa   141156 040164   12540  	oct	141156040164
    030345  aa   150145 040154   12541  	oct	150145040154
    030346  aa   151156 145040   12542  	oct	151156145040
    030347  aa   156165 155142   12543  	oct	156165155142
    030350  aa   145162 040163   12544  	oct	145162040163
    030351  aa   160145 143151   12545  	oct	160145143151
    030352  aa   146151 145144   12546  	oct	146151145144
    030353  aa   040142 171040   12547  	oct	040142171040
    030354  aa   164150 145040   12548  	oct	164150145040
    030355  aa   106111 122123   12549  	oct	106111122123
    030356  aa   124040 104105   12550  	oct	124040104105
    030357  aa   124101 111114   12551  	oct	124101111114
    030360  aa   040160 150162   12552  	oct	040160150162
    030361  aa   141163 145040   12553  	oct	141163145040
    030362  aa   157146 040164   12554  	oct	157146040164
    030363  aa   150145 040120   12555  	oct	150145040120
    030364  aa   101107 105040   12556  	oct	101107105040
    030365  aa   143154 141165   12557  	oct	143154141165
    030366  aa   163145 040176   12558  	oct	163145040176
    030367  aa   124150 145040   12559  	oct	124150145040
    030370  aa   146151 162163   12560  	oct	146151162163
    030371  aa   164040 154151   12561  	oct	164040154151
    030372  aa   156145 040156   12562  	oct	156145040156
    030373  aa   165155 142145   12563  	oct	165155142145
    030374  aa   162040 157156   12564  	oct	162040157156
    030375  aa   040167 150151   12565  	oct	040167150151
    030376  aa   143150 040164   12566  	oct	143150040164
    030377  aa   150145 040122   12567  	oct	150145040122
    030400  aa   105120 117122   12568  	oct	105120117122
    030401  aa   124040 110105   12569  	oct	124040110105
    030402  aa   101104 111116   12570  	oct	101104111116
    030403  aa   107040 147162   12571  	oct	107040147162
    030404  aa   157165 160040   12572  	oct	157165160040
    030405  aa   143141 156040   12573  	oct	143141156040
    030406  aa   142145 040160   12574  	oct	142145040160
    030407  aa   162145 163145   12575  	oct	162145163145
    030410  aa   156164 145144   12576  	oct	156164145144
    030411  aa   040151 163040   12577  	oct	040151163040
    030412  aa   164150 145040   12578  	oct	164150145040
    030413  aa   154151 156145   12579  	oct	154151156145
    030414  aa   040156 165155   12580  	oct	040156165155
    030415  aa   142145 162040   12581  	oct	142145162040
    030416  aa   163160 145143   12582  	oct	163160145143
    030417  aa   151146 151145   12583  	oct	151146151145
    030420  aa   144040 142171   12584  	oct	144040142171
    030421  aa   040164 150145   12585  	oct	040164150145
    030422  aa   040110 105101   12586  	oct	040110105101
    030423  aa   104111 116107   12587  	oct	104111116107
    030424  aa   040160 150162   12588  	oct	040160150162
    030425  aa   141163 145040   12589  	oct	141163145040
    030426  aa   157146 040164   12590  	oct	157146040164
    030427  aa   150145 040120   12591  	oct	150145040120
    030430  aa   101107 105040   12592  	oct	101107105040
    030431  aa   143154 141165   12593  	oct	143154141165
    030432  aa   163145 040176   12594  	oct	163145040176
    030433  aa   124150 145040   12595  	oct	124150145040
    030434  aa   154141 163164   12596  	oct	154141163164
    030435  aa   040154 151156   12597  	oct	040154151156
    030436  aa   145040 156165   12598  	oct	145040156165
    030437  aa   155142 145162   12599  	oct	155142145162
    030440  aa   040157 156040   12600  	oct	040157156040
    030441  aa   167150 151143   12601  	oct	167150151143
    030442  aa   150040 164150   12602  	oct	150040164150
    030443  aa   145040 122105   12603  	oct	145040122105
    030444  aa   120117 122124   12604  	oct	120117122124
    030445  aa   040110 105101   12605  	oct	040110105101
    030446  aa   104111 116107   12606  	oct	104111116107
    030447  aa   040147 162157   12607  	oct	040147162157
    030450  aa   165160 040143   12608  	oct	165160040143
    030451  aa   141156 040142   12609  	oct	141156040142
    030452  aa   145040 160162   12610  	oct	145040160162
    030453  aa   145163 145156   12611  	oct	145163145156
    030454  aa   164145 144040   12612  	oct	164145144040
    030455  aa   151163 040164   12613  	oct	151163040164
    030456  aa   150145 040154   12614  	oct	150145040154
    030457  aa   151156 145040   12615  	oct	151156145040
    030460  aa   156165 155142   12616  	oct	156165155142
    030461  aa   145162 040163   12617  	oct	145162040163
    030462  aa   160145 143151   12618  	oct	160145143151
    030463  aa   146151 145144   12619  	oct	146151145144
    030464  aa   040142 171040   12620  	oct	040142171040
    030465  aa   164150 145040   12621  	oct	164150145040
    030466  aa   106111 122123   12622  	oct	106111122123
    030467  aa   124040 104105   12623  	oct	124040104105
    030470  aa   124101 111114   12624  	oct	124101111114
    030471  aa   040160 150162   12625  	oct	040160150162
    030472  aa   141163 145040   12626  	oct	141163145040
    030473  aa   157146 040164   12627  	oct	157146040164
    030474  aa   150145 040120   12628  	oct	150145040120
    030475  aa   101107 105040   12629  	oct	101107105040
    030476  aa   143154 141165   12630  	oct	143154141165
    030477  aa   163145 040155   12631  	oct	163145040155
    030500  aa   151156 165163   12632  	oct	151156165163
    030501  aa   040157 156145   12633  	oct	040157156145
    030502  aa   040176 124150   12634  	oct	040176124150
    030503  aa   145040 154141   12635  	oct	145040154141
    030504  aa   163164 040154   12636  	oct	163164040154
    030505  aa   151156 145040   12637  	oct	151156145040
    030506  aa   156165 155142   12638  	oct	156165155142
    030507  aa   145162 040157   12639  	oct	145162040157
    030510  aa   156040 167150   12640  	oct	156040167150
    030511  aa   151143 150040   12641  	oct	151143150040
    030512  aa   164150 145040   12642  	oct	164150145040
    030513  aa   122105 120117   12643  	oct	122105120117
    030514  aa   122124 040110   12644  	oct	122124040110
    030515  aa   105101 104111   12645  	oct	105101104111
    030516  aa   116107 040147   12646  	oct	116107040147
    030517  aa   162157 165160   12647  	oct	162157165160
    030520  aa   040143 141156   12648  	oct	040143141156
    030521  aa   040142 145040   12649  	oct	040142145040
    030522  aa   160162 145163   12650  	oct	160162145163
    030523  aa   145156 164145   12651  	oct	145156164145
    030524  aa   144040 151163   12652  	oct	144040151163
    030525  aa   040164 150145   12653  	oct	040164150145
    030526  aa   040154 151156   12654  	oct	040154151156
    030527  aa   145040 156165   12655  	oct	145040156165
    030530  aa   155142 145162   12656  	oct	155142145162
    030531  aa   040163 160145   12657  	oct	040163160145
    030532  aa   143151 146151   12658  	oct	143151146151
    030533  aa   145144 040142   12659  	oct	145144040142
    030534  aa   171040 164150   12660  	oct	171040164150
    030535  aa   145040 120101   12661  	oct	145040120101
    030536  aa   107105 040143   12662  	oct	107105040143
    030537  aa   154141 165163   12663  	oct	154141165163
    030540  aa   145040 176111   12664  	oct	145040176111
    030541  aa   146040 164150   12665  	oct	146040164150
    030542  aa   145040 122105   12666  	oct	145040122105
    030543  aa   120117 122124   12667  	oct	120117122124
    030544  aa   040110 105101   12668  	oct	040110105101
    030545  aa   104111 116107   12669  	oct	104111116107
    030546  aa   040141 156144   12670  	oct	040141156144
    030547  aa   040164 150145   12671  	oct	040164150145
    030550  aa   040120 101107   12672  	oct	040120101107
    030551  aa   105040 110105   12673  	oct	105040110105
    030552  aa   101104 111116   12674  	oct	101104111116
    030553  aa   107040 147162   12675  	oct	107040147162
    030554  aa   157165 160163   12676  	oct	157165160163
    030555  aa   040141 162145   12677  	oct	040141162145
    030556  aa   040157 156040   12678  	oct	040157156040
    030557  aa   164150 145040   12679  	oct	164150145040
    030560  aa   163141 155145   12680  	oct	163141155145
    030561  aa   040160 141147   12681  	oct	040160141147
    030562  aa   145040 164150   12682  	oct	145040164150
    030563  aa   145156 040164   12683  	oct	145156040164
    030564  aa   150145 040146   12684  	oct	150145040146
    030565  aa   151162 163164   12685  	oct	151162163164
    030566  aa   040154 151156   12686  	oct	040154151156
    030567  aa   145040 157146   12687  	oct	145040157146
    030570  aa   040164 150145   12688  	oct	040164150145
    030571  aa   040120 101107   12689  	oct	040120101107
    030572  aa   105040 110105   12690  	oct	105040110105
    030573  aa   101104 111116   12691  	oct	101104111116
    030574  aa   107040 147162   12692  	oct	107040147162
    030575  aa   157165 160040   12693  	oct	157165160040
    030576  aa   155165 163164   12694  	oct	155165163164
    030577  aa   040146 157154   12695  	oct	040146157154
    030600  aa   154157 167040   12696  	oct	154157167040
    030601  aa   164150 145040   12697  	oct	164150145040
    030602  aa   154141 163164   12698  	oct	154141163164
    030603  aa   040154 151156   12699  	oct	040154151156
    030604  aa   145040 157146   12700  	oct	145040157146
    030605  aa   040164 150145   12701  	oct	040164150145
    030606  aa   040122 105120   12702  	oct	040122105120
    030607  aa   117122 124040   12703  	oct	117122124040
    030610  aa   110105 101104   12704  	oct	110105101104
    030611  aa   111116 107040   12705  	oct	111116107040
    030612  aa   147162 157165   12706  	oct	147162157165
    030613  aa   160040 176124   12707  	oct	160040176124
    030614  aa   150145 040146   12708  	oct	150145040146
    030615  aa   151162 163164   12709  	oct	151162163164
    030616  aa   040154 151156   12710  	oct	040154151156
    030617  aa   145040 157156   12711  	oct	145040157156
    030620  aa   040167 150151   12712  	oct	040167150151
    030621  aa   143150 040164   12713  	oct	143150040164
    030622  aa   150145 040120   12714  	oct	150145040120
    030623  aa   101107 105040   12715  	oct	101107105040
    030624  aa   110105 101104   12716  	oct	110105101104
    030625  aa   111116 107040   12717  	oct	111116107040
    030626  aa   147162 157165   12718  	oct	147162157165
    030627  aa   160040 143141   12719  	oct	160040143141
    030630  aa   156040 142145   12720  	oct	156040142145
    030631  aa   040160 162145   12721  	oct	040160162145
    030632  aa   163145 156164   12722  	oct	163145156164
    030633  aa   145144 040151   12723  	oct	145144040151
    030634  aa   163040 164150   12724  	oct	163040164150
    030635  aa   145040 154151   12725  	oct	145040154151
    030636  aa   156145 040156   12726  	oct	156145040156
    030637  aa   165155 142145   12727  	oct	165155142145
    030640  aa   162040 163160   12728  	oct	162040163160
    030641  aa   145143 151146   12729  	oct	145143151146
    030642  aa   151145 144040   12730  	oct	151145144040
    030643  aa   142171 040164   12731  	oct	142171040164
    030644  aa   150145 040110   12732  	oct	150145040110
    030645  aa   105101 104111   12733  	oct	105101104111
    030646  aa   116107 040160   12734  	oct	116107040160
    030647  aa   150162 141163   12735  	oct	150162141163
    030650  aa   145040 157146   12736  	oct	145040157146
    030651  aa   040164 150145   12737  	oct	040164150145
    030652  aa   040120 101107   12738  	oct	040120101107
    030653  aa   105040 143154   12739  	oct	105040143154
    030654  aa   141165 163145   12740  	oct	141165163145
    030655  aa   040176 124150   12741  	oct	040176124150
    030656  aa   145040 154141   12742  	oct	145040154141
    030657  aa   163164 040154   12743  	oct	163164040154
    030660  aa   151156 145040   12744  	oct	151156145040
    030661  aa   157156 040167   12745  	oct	157156040167
    030662  aa   150151 143150   12746  	oct	150151143150
    030663  aa   040164 150145   12747  	oct	040164150145
    030664  aa   040120 101107   12748  	oct	040120101107
    030665  aa   105040 110105   12749  	oct	105040110105
    030666  aa   101104 111116   12750  	oct	101104111116
    030667  aa   107040 147162   12751  	oct	107040147162
    030670  aa   157165 160040   12752  	oct	157165160040
    030671  aa   143141 156040   12753  	oct	143141156040
    030672  aa   142145 040160   12754  	oct	142145040160
    030673  aa   162145 163145   12755  	oct	162145163145
    030674  aa   156164 145144   12756  	oct	156164145144
    030675  aa   040151 163040   12757  	oct	040151163040
    030676  aa   164150 145040   12758  	oct	164150145040
    030677  aa   154151 156145   12759  	oct	154151156145
    030700  aa   040156 165155   12760  	oct	040156165155
    030701  aa   142145 162040   12761  	oct	142145162040
    030702  aa   163160 145143   12762  	oct	163160145143
    030703  aa   151146 151145   12763  	oct	151146151145
    030704  aa   144040 142171   12764  	oct	144040142171
    030705  aa   040164 150145   12765  	oct	040164150145
    030706  aa   040106 111122   12766  	oct	040106111122
    030707  aa   123124 040104   12767  	oct	123124040104
    030710  aa   105124 101111   12768  	oct	105124101111
    030711  aa   114040 160150   12769  	oct	114040160150
    030712  aa   162141 163145   12770  	oct	162141163145
    030713  aa   040157 146040   12771  	oct	040157146040
    030714  aa   164150 145040   12772  	oct	164150145040
    030715  aa   120101 107105   12773  	oct	120101107105
    030716  aa   040143 154141   12774  	oct	040143154141
    030717  aa   165163 145040   12775  	oct	165163145040
    030720  aa   155151 156165   12776  	oct	155151156165
    030721  aa   163040 157156   12777  	oct	163040157156
    030722  aa   145040 176124   12778  	oct	145040176124
    030723  aa   150145 040146   12779  	oct	150145040146
    030724  aa   151162 163164   12780  	oct	151162163164
    030725  aa   040154 151156   12781  	oct	040154151156
    030726  aa   145040 157156   12782  	oct	145040157156
    030727  aa   040167 150151   12783  	oct	040167150151
    030730  aa   143150 040164   12784  	oct	143150040164
    030731  aa   150145 040120   12785  	oct	150145040120
    030732  aa   101107 105040   12786  	oct	101107105040
    030733  aa   106117 117124   12787  	oct	106117117124
    030734  aa   111116 107040   12788  	oct	111116107040
    030735  aa   147162 157165   12789  	oct	147162157165
    030736  aa   160040 143141   12790  	oct	160040143141
    030737  aa   156040 142145   12791  	oct	156040142145
    030740  aa   040160 162145   12792  	oct	040160162145
    030741  aa   163145 156164   12793  	oct	163145156164
    030742  aa   145144 040151   12794  	oct	145144040151
    030743  aa   163040 164150   12795  	oct	163040164150
    030744  aa   145040 154151   12796  	oct	145040154151
    030745  aa   156145 040156   12797  	oct	156145040156
    030746  aa   165155 142145   12798  	oct	165155142145
    030747  aa   162040 163160   12799  	oct	162040163160
    030750  aa   145143 151146   12800  	oct	145143151146
    030751  aa   151145 144040   12801  	oct	151145144040
    030752  aa   142171 040164   12802  	oct	142171040164
    030753  aa   150145 040106   12803  	oct	150145040106
    030754  aa   117117 124111   12804  	oct	117117124111
    030755  aa   116107 040160   12805  	oct	116107040160
    030756  aa   150162 141163   12806  	oct	150162141163
    030757  aa   145040 157146   12807  	oct	145040157146
    030760  aa   040164 150145   12808  	oct	040164150145
    030761  aa   040120 101107   12809  	oct	040120101107
    030762  aa   105040 143154   12810  	oct	105040143154
    030763  aa   141165 163145   12811  	oct	141165163145
    030764  aa   040160 154165   12812  	oct	040160154165
    030765  aa   163040 157156   12813  	oct	163040157156
    030766  aa   145040 176124   12814  	oct	145040176124
    030767  aa   150145 040154   12815  	oct	150145040154
    030770  aa   141163 164040   12816  	oct	141163164040
    030771  aa   154151 156145   12817  	oct	154151156145
    030772  aa   040157 156040   12818  	oct	040157156040
    030773  aa   167150 151143   12819  	oct	167150151143
    030774  aa   150040 164150   12820  	oct	150040164150
    030775  aa   145040 120101   12821  	oct	145040120101
    030776  aa   107105 040106   12822  	oct	107105040106
    030777  aa   117117 124111   12823  	oct	117117124111
    031000  aa   116107 040147   12824  	oct	116107040147
    031001  aa   162157 165160   12825  	oct	162157165160
    031002  aa   040143 141156   12826  	oct	040143141156
    031003  aa   040142 145040   12827  	oct	040142145040
    031004  aa   160162 145163   12828  	oct	160162145163
    031005  aa   145156 164145   12829  	oct	145156164145
    031006  aa   144040 151163   12830  	oct	144040151163
    031007  aa   040164 150145   12831  	oct	040164150145
    031010  aa   040154 151156   12832  	oct	040154151156
    031011  aa   145040 156165   12833  	oct	145040156165
    031012  aa   155142 145162   12834  	oct	155142145162
    031013  aa   040163 160145   12835  	oct	040163160145
    031014  aa   143151 146151   12836  	oct	143151146151
    031015  aa   145144 040142   12837  	oct	145144040142
    031016  aa   171040 164150   12838  	oct	171040164150
    031017  aa   145040 120101   12839  	oct	145040120101
    031020  aa   107105 040143   12840  	oct	107105040143
    031021  aa   154141 165163   12841  	oct	154141165163
    031022  aa   145040 176111   12842  	oct	145040176111
    031023  aa   146040 164150   12843  	oct	146040164150
    031024  aa   145040 120101   12844  	oct	145040120101
    031025  aa   107105 040106   12845  	oct	107105040106
    031026  aa   117117 124111   12846  	oct	117117124111
    031027  aa   116107 040141   12847  	oct	116107040141
    031030  aa   156144 040122   12848  	oct	156144040122
    031031  aa   105120 117122   12849  	oct	105120117122
    031032  aa   124040 106117   12850  	oct	124040106117
    031033  aa   117124 111116   12851  	oct	117124111116
    031034  aa   107040 147162   12852  	oct	107040147162
    031035  aa   157165 160163   12853  	oct	157165160163
    031036  aa   040141 162145   12854  	oct	040141162145
    031037  aa   040160 162145   12855  	oct	040160162145
    031040  aa   163145 156164   12856  	oct	163145156164
    031041  aa   145144 040157   12857  	oct	145144040157
    031042  aa   156040 164150   12858  	oct	156040164150
    031043  aa   145040 163141   12859  	oct	145040163141
    031044  aa   155145 040160   12860  	oct	155145040160
    031045  aa   141147 145040   12861  	oct	141147145040
    031046  aa   164150 145156   12862  	oct	164150145156
    031047  aa   040164 150145   12863  	oct	040164150145
    031050  aa   040146 151162   12864  	oct	040146151162
    031051  aa   163164 040154   12865  	oct	163164040154
    031052  aa   151156 145040   12866  	oct	151156145040
    031053  aa   157146 040164   12867  	oct	157146040164
    031054  aa   150145 040122   12868  	oct	150145040122
    031055  aa   105120 117122   12869  	oct	105120117122
    031056  aa   124040 106117   12870  	oct	124040106117
    031057  aa   117124 111116   12871  	oct	117124111116
    031060  aa   107040 147162   12872  	oct	107040147162
    031061  aa   157165 160040   12873  	oct	157165160040
    031062  aa   155165 163164   12874  	oct	155165163164
    031063  aa   040146 157154   12875  	oct	040146157154
    031064  aa   154157 167040   12876  	oct	154157167040
    031065  aa   164150 145040   12877  	oct	164150145040
    031066  aa   154141 163164   12878  	oct	154141163164
    031067  aa   040154 151156   12879  	oct	040154151156
    031070  aa   145040 157146   12880  	oct	145040157146
    031071  aa   040164 150145   12881  	oct	040164150145
    031072  aa   040120 101107   12882  	oct	040120101107
    031073  aa   105040 106117   12883  	oct	105040106117
    031074  aa   117124 111116   12884  	oct	117124111116
    031075  aa   107040 147162   12885  	oct	107040147162
    031076  aa   157165 160040   12886  	oct	157165160040
    031077  aa   176124 150145   12887  	oct	176124150145
    031100  aa   040146 151162   12888  	oct	040146151162
    031101  aa   163164 040154   12889  	oct	163164040154
    031102  aa   151156 145040   12890  	oct	151156145040
    031103  aa   157156 040167   12891  	oct	157156040167
    031104  aa   150151 143150   12892  	oct	150151143150
    031105  aa   040164 150145   12893  	oct	040164150145
    031106  aa   040122 105120   12894  	oct	040122105120
    031107  aa   117122 124040   12895  	oct	117122124040
    031110  aa   106117 117124   12896  	oct	106117117124
    031111  aa   111116 107040   12897  	oct	111116107040
    031112  aa   147162 157165   12898  	oct	147162157165
    031113  aa   160040 143141   12899  	oct	160040143141
    031114  aa   156040 142145   12900  	oct	156040142145
    031115  aa   040160 162145   12901  	oct	040160162145
    031116  aa   163145 156164   12902  	oct	163145156164
    031117  aa   145144 040151   12903  	oct	145144040151
    031120  aa   163040 164150   12904  	oct	163040164150
    031121  aa   145040 154151   12905  	oct	145040154151
    031122  aa   156145 040156   12906  	oct	156145040156
    031123  aa   165155 142145   12907  	oct	165155142145
    031124  aa   162040 163160   12908  	oct	162040163160
    031125  aa   145143 151146   12909  	oct	145143151146
    031126  aa   151145 144040   12910  	oct	151145144040
    031127  aa   142171 040164   12911  	oct	142171040164
    031130  aa   150145 040106   12912  	oct	150145040106
    031131  aa   117117 124111   12913  	oct	117117124111
    031132  aa   116107 040160   12914  	oct	116107040160
    031133  aa   150162 141163   12915  	oct	150162141163
    031134  aa   145040 157146   12916  	oct	145040157146
    031135  aa   040164 150145   12917  	oct	040164150145
    031136  aa   040120 101107   12918  	oct	040120101107
    031137  aa   105040 143154   12919  	oct	105040143154
    031140  aa   141165 163145   12920  	oct	141165163145
    031141  aa   040160 154165   12921  	oct	040160154165
    031142  aa   163040 157156   12922  	oct	163040157156
    031143  aa   145040 176124   12923  	oct	145040176124
    031144  aa   150145 040146   12924  	oct	150145040146
    031145  aa   151162 163164   12925  	oct	151162163164
    031146  aa   040154 151156   12926  	oct	040154151156
    031147  aa   145040 157156   12927  	oct	145040157156
    031150  aa   040167 150151   12928  	oct	040167150151
    031151  aa   143150 040164   12929  	oct	143150040164
    031152  aa   150145 040122   12930  	oct	150145040122
    031153  aa   105120 117122   12931  	oct	105120117122
    031154  aa   124040 106117   12932  	oct	124040106117
    031155  aa   117124 111116   12933  	oct	117124111116
    031156  aa   107040 147162   12934  	oct	107040147162
    031157  aa   157165 160040   12935  	oct	157165160040
    031160  aa   143141 156040   12936  	oct	143141156040
    031161  aa   142145 040160   12937  	oct	142145040160
    031162  aa   162145 163145   12938  	oct	162145163145
    031163  aa   156164 145144   12939  	oct	156164145144
    031164  aa   040151 163040   12940  	oct	040151163040
    031165  aa   164150 145040   12941  	oct	164150145040
    031166  aa   154151 156145   12942  	oct	154151156145
    031167  aa   040156 165155   12943  	oct	040156165155
    031170  aa   142145 162040   12944  	oct	142145162040
    031171  aa   163160 145143   12945  	oct	163160145143
    031172  aa   151146 151145   12946  	oct	151146151145
    031173  aa   144040 142171   12947  	oct	144040142171
    031174  aa   040164 150145   12948  	oct	040164150145
    031175  aa   040110 105101   12949  	oct	040110105101
    031176  aa   104111 116107   12950  	oct	104111116107
    031177  aa   040160 150162   12951  	oct	040160150162
    031200  aa   141163 145040   12952  	oct	141163145040
    031201  aa   157146 040164   12953  	oct	157146040164
    031202  aa   150145 040120   12954  	oct	150145040120
    031203  aa   101107 105040   12955  	oct	101107105040
    031204  aa   143154 141165   12956  	oct	143154141165
    031205  aa   163145 040176   12957  	oct	163145040176
    031206  aa   124150 145040   12958  	oct	124150145040
    031207  aa   154141 163164   12959  	oct	154141163164
    031210  aa   040154 151156   12960  	oct	040154151156
    031211  aa   145040 157156   12961  	oct	145040157156
    031212  aa   040167 150151   12962  	oct	040167150151
    031213  aa   143150 040164   12963  	oct	143150040164
    031214  aa   150145 040122   12964  	oct	150145040122
    031215  aa   105120 117122   12965  	oct	105120117122
    031216  aa   124040 106117   12966  	oct	124040106117
    031217  aa   117124 111116   12967  	oct	117124111116
    031220  aa   107040 147162   12968  	oct	107040147162
    031221  aa   157165 160040   12969  	oct	157165160040
    031222  aa   143141 156040   12970  	oct	143141156040
    031223  aa   142145 040160   12971  	oct	142145040160
    031224  aa   162145 163145   12972  	oct	162145163145
    031225  aa   156164 145144   12973  	oct	156164145144
    031226  aa   040151 163040   12974  	oct	040151163040
    031227  aa   164150 145040   12975  	oct	164150145040
    031230  aa   154151 156145   12976  	oct	154151156145
    031231  aa   040156 165155   12977  	oct	040156165155
    031232  aa   142145 162040   12978  	oct	142145162040
    031233  aa   163160 145143   12979  	oct	163160145143
    031234  aa   151146 151145   12980  	oct	151146151145
    031235  aa   144040 142171   12981  	oct	144040142171
    031236  aa   040164 150145   12982  	oct	040164150145
    031237  aa   040120 101107   12983  	oct	040120101107
    031240  aa   105040 143154   12984  	oct	105040143154
    031241  aa   141165 163145   12985  	oct	141165163145
    031242  aa   040176 124150   12986  	oct	040176124150
    031243  aa   145040 116105   12987  	oct	145040116105
    031244  aa   130124 040107   12988  	oct	130124040107
    031245  aa   122117 125120   12989  	oct	122117125120
    031246  aa   040151 156164   12990  	oct	040151156164
    031247  aa   145147 145162   12991  	oct	145147145162
    031250  aa   040155 165163   12992  	oct	040155165163
    031251  aa   164040 142145   12993  	oct	164040142145
    031252  aa   040147 162145   12994  	oct	040147162145
    031253  aa   141164 145162   12995  	oct	141164145162
    031254  aa   040164 150141   12996  	oct	040164150141
    031255  aa   156040 164150   12997  	oct	156040164150
    031256  aa   145040 154151   12998  	oct	145040154151
    031257  aa   156145 040156   12999  	oct	156145040156
    031260  aa   165155 142145   13000  	oct	165155142145
    031261  aa   162040 157156   13001  	oct	162040157156
    031262  aa   040167 150151   13002  	oct	040167150151
    031263  aa   143150 040164   13003  	oct	143150040164
    031264  aa   150145 040146   13004  	oct	150145040146
    031265  aa   151156 141154   13005  	oct	151156141154
    031266  aa   040160 162151   13006  	oct	040160162151
    031267  aa   156164 040154   13007  	oct	156164040154
    031270  aa   151156 145040   13008  	oct	151156145040
    031271  aa   157146 040164   13009  	oct	157146040164
    031272  aa   150145 040120   13010  	oct	150145040120
    031273  aa   101107 105040   13011  	oct	101107105040
    031274  aa   106117 117124   13012  	oct	106117117124
    031275  aa   111116 107040   13013  	oct	111116107040
    031276  aa   147162 157165   13014  	oct	147162157165
    031277  aa   160040 151163   13015  	oct	160040151163
    031300  aa   040160 162145   13016  	oct	040160162145
    031301  aa   163145 156164   13017  	oct	163145156164
    031302  aa   145144 040176   13018  	oct	145144040176
    031303  aa   124150 145040   13019  	oct	124150145040
    031304  aa   116105 130124   13020  	oct	116105130124
    031305  aa   040107 122117   13021  	oct	040107122117
    031306  aa   125120 040151   13022  	oct	125120040151
    031307  aa   156164 145147   13023  	oct	156164145147
    031310  aa   145162 040155   13024  	oct	145162040155
    031311  aa   165163 164040   13025  	oct	165163164040
    031312  aa   156157 164040   13026  	oct	156157164040
    031313  aa   142145 040147   13027  	oct	142145040147
    031314  aa   162145 141164   13028  	oct	162145141164
    031315  aa   145162 040164   13029  	oct	145162040164
    031316  aa   150141 156040   13030  	oct	150141156040
    031317  aa   164150 145040   13031  	oct	164150145040
    031320  aa   154151 156145   13032  	oct	154151156145
    031321  aa   040156 165155   13033  	oct	040156165155
    031322  aa   142145 162040   13034  	oct	142145162040
    031323  aa   163160 145143   13035  	oct	163160145143
    031324  aa   151146 151145   13036  	oct	151146151145
    031325  aa   144040 142171   13037  	oct	144040142171
    031326  aa   040164 150145   13038  	oct	040164150145
    031327  aa   040120 101107   13039  	oct	040120101107
    031330  aa   105040 143154   13040  	oct	105040143154
    031331  aa   141165 163145   13041  	oct	141165163145
    031332  aa   040176 124150   13042  	oct	040176124150
    031333  aa   145040 163165   13043  	oct	145040163165
    031334  aa   155040 157146   13044  	oct	155040157146
    031335  aa   040164 150145   13045  	oct	040164150145
    031336  aa   040116 105130   13046  	oct	040116105130
    031337  aa   124040 107122   13047  	oct	124040107122
    031340  aa   117125 120040   13048  	oct	117125120040
    031341  aa   151156 164145   13049  	oct	151156164145
    031342  aa   147145 162040   13050  	oct	147145162040
    031343  aa   141156 144040   13051  	oct	141156144040
    031344  aa   164150 145040   13052  	oct	164150145040
    031345  aa   154151 156145   13053  	oct	154151156145
    031346  aa   040156 165155   13054  	oct	040156165155
    031347  aa   142145 162040   13055  	oct	142145162040
    031350  aa   157156 040167   13056  	oct	157156040167
    031351  aa   150151 143150   13057  	oct	150151143150
    031352  aa   040164 150145   13058  	oct	040164150145
    031353  aa   040146 151156   13059  	oct	040146151156
    031354  aa   141154 040160   13060  	oct	141154040160
    031355  aa   162151 156164   13061  	oct	162151156164
    031356  aa   040154 151156   13062  	oct	040154151156
    031357  aa   145040 157146   13063  	oct	145040157146
    031360  aa   040164 150145   13064  	oct	040164150145
    031361  aa   040120 101107   13065  	oct	040120101107
    031362  aa   105040 106117   13066  	oct	105040106117
    031363  aa   117124 111116   13067  	oct	117124111116
    031364  aa   107040 147162   13068  	oct	107040147162
    031365  aa   157165 160040   13069  	oct	157165160040
    031366  aa   151163 040160   13070  	oct	151163040160
    031367  aa   162145 163145   13071  	oct	162145163145
    031370  aa   156164 145144   13072  	oct	156164145144
    031371  aa   040155 165163   13073  	oct	040155165163
    031372  aa   164040 156157   13074  	oct	164040156157
    031373  aa   164040 142145   13075  	oct	164040142145
    031374  aa   040147 162145   13076  	oct	040147162145
    031375  aa   141164 145162   13077  	oct	141164145162
    031376  aa   040164 150141   13078  	oct	040164150141
    031377  aa   156040 164150   13079  	oct	156040164150
    031400  aa   145040 154151   13080  	oct	145040154151
    031401  aa   156145 040156   13081  	oct	156145040156
    031402  aa   165155 142145   13082  	oct	165155142145
    031403  aa   162040 163160   13083  	oct	162040163160
    031404  aa   145143 151146   13084  	oct	145143151146
    031405  aa   151145 144040   13085  	oct	151145144040
    031406  aa   142171 040164   13086  	oct	142171040164
    031407  aa   150145 040120   13087  	oct	150145040120
    031410  aa   101107 105040   13088  	oct	101107105040
    031411  aa   143154 141165   13089  	oct	143154141165
    031412  aa   163145 040176   13090  	oct	163145040176
    031413  aa   124150 145040   13091  	oct	124150145040
    031414  aa   116105 130124   13092  	oct	116105130124
    031415  aa   040107 122117   13093  	oct	040107122117
    031416  aa   125120 040151   13094  	oct	125120040151
    031417  aa   156164 145147   13095  	oct	156164145147
    031420  aa   145162 040155   13096  	oct	145162040155
    031421  aa   165163 164040   13097  	oct	165163164040
    031422  aa   163160 145143   13098  	oct	163160145143
    031423  aa   151146 171040   13099  	oct	151146171040
    031424  aa   141040 154151   13100  	oct	141040154151
    031425  aa   156145 040156   13101  	oct	156145040156
    031426  aa   165155 142145   13102  	oct	165155142145
    031427  aa   162040 164150   13103  	oct	162040164150
    031430  aa   141164 040151   13104  	oct	141164040151
    031431  aa   163040 156157   13105  	oct	163040156157
    031432  aa   164040 154145   13106  	oct	164040154145
    031433  aa   163163 040164   13107  	oct	163163040164
    031434  aa   150141 156040   13108  	oct	150141156040
    031435  aa   164150 141164   13109  	oct	164150141164
    031436  aa   040163 160145   13110  	oct	040163160145
    031437  aa   143151 146151   13111  	oct	143151146151
    031440  aa   145144 040151   13112  	oct	145144040151
    031441  aa   156040 164150   13113  	oct	156040164150
    031442  aa   145040 106111   13114  	oct	145040106111
    031443  aa   122123 124040   13115  	oct	122123124040
    031444  aa   104105 124101   13116  	oct	104105124101
    031445  aa   111114 040160   13117  	oct	111114040160
    031446  aa   150162 141163   13118  	oct	150162141163
    031447  aa   145040 157146   13119  	oct	145040157146
    031450  aa   040164 150145   13120  	oct	040164150145
    031451  aa   040120 101107   13121  	oct	040120101107
    031452  aa   105040 143154   13122  	oct	105040143154
    031453  aa   141165 163145   13123  	oct	141165163145
    031454  aa   040176 124150   13124  	oct	040176124150
    031455  aa   145040 116105   13125  	oct	145040116105
    031456  aa   130124 040107   13126  	oct	130124040107
    031457  aa   122117 125120   13127  	oct	122117125120
    031460  aa   040151 156164   13128  	oct	040151156164
    031461  aa   145147 145162   13129  	oct	145147145162
    031462  aa   040155 165163   13130  	oct	040155165163
    031463  aa   164040 163160   13131  	oct	164040163160
    031464  aa   145143 151146   13132  	oct	145143151146
    031465  aa   171040 141040   13133  	oct	171040141040
    031466  aa   154151 156145   13134  	oct	154151156145
    031467  aa   040156 165155   13135  	oct	040156165155
    031470  aa   142145 162040   13136  	oct	142145162040
    031471  aa   164150 141164   13137  	oct	164150141164
    031472  aa   040151 163040   13138  	oct	040151163040
    031473  aa   156157 164040   13139  	oct	156157164040
    031474  aa   147162 145141   13140  	oct	147162145141
    031475  aa   164145 162040   13141  	oct	164145162040
    031476  aa   164150 141156   13142  	oct	164150141156
    031477  aa   040164 150141   13143  	oct	040164150141
    031500  aa   164040 163160   13144  	oct	164040163160
    031501  aa   145143 151146   13145  	oct	145143151146
    031502  aa   151145 144040   13146  	oct	151145144040
    031503  aa   151156 040164   13147  	oct	151156040164
    031504  aa   150145 040106   13148  	oct	150145040106
    031505  aa   117117 124111   13149  	oct	117117124111
    031506  aa   116107 040160   13150  	oct	116107040160
    031507  aa   150162 141163   13151  	oct	150162141163
    031510  aa   145040 157146   13152  	oct	145040157146
    031511  aa   040164 150145   13153  	oct	040164150145
    031512  aa   040120 101107   13154  	oct	040120101107
    031513  aa   105040 143154   13155  	oct	105040143154
    031514  aa   141165 163145   13156  	oct	141165163145
    031515  aa   040176 124150   13157  	oct	040176124150
    031516  aa   145040 146151   13158  	oct	145040146151
    031517  aa   162163 164040   13159  	oct	162163164040
    031520  aa   154151 156145   13160  	oct	154151156145
    031521  aa   040156 165155   13161  	oct	040156165155
    031522  aa   142145 162040   13162  	oct	142145162040
    031523  aa   157156 040167   13163  	oct	157156040167
    031524  aa   150151 143150   13164  	oct	150151143150
    031525  aa   040141 040142   13165  	oct	040141040142
    031526  aa   157144 171040   13166  	oct	157144171040
    031527  aa   147162 157165   13167  	oct	147162157165
    031530  aa   160040 143141   13168  	oct	160040143141
    031531  aa   156040 142145   13169  	oct	156040142145
    031532  aa   040160 162145   13170  	oct	040160162145
    031533  aa   163145 156164   13171  	oct	163145156164
    031534  aa   145144 040151   13172  	oct	145144040151
    031535  aa   163040 164150   13173  	oct	163040164150
    031536  aa   145040 154151   13174  	oct	145040154151
    031537  aa   156145 040156   13175  	oct	156145040156
    031540  aa   165155 142145   13176  	oct	165155142145
    031541  aa   162040 163160   13177  	oct	162040163160
    031542  aa   145143 151146   13178  	oct	145143151146
    031543  aa   151145 144040   13179  	oct	151145144040
    031544  aa   142171 040164   13180  	oct	142171040164
    031545  aa   150145 040106   13181  	oct	150145040106
    031546  aa   111122 123124   13182  	oct	111122123124
    031547  aa   040104 105124   13183  	oct	040104105124
    031550  aa   101111 114040   13184  	oct	101111114040
    031551  aa   160150 162141   13185  	oct	160150162141
    031552  aa   163145 040157   13186  	oct	163145040157
    031553  aa   146040 164150   13187  	oct	146040164150
    031554  aa   145040 120101   13188  	oct	145040120101
    031555  aa   107105 040143   13189  	oct	107105040143
    031556  aa   154141 165163   13190  	oct	154141165163
    031557  aa   145040 176124   13191  	oct	145040176124
    031560  aa   150145 040154   13192  	oct	150145040154
    031561  aa   141163 164040   13193  	oct	141163164040
    031562  aa   154151 156145   13194  	oct	154151156145
    031563  aa   040156 165155   13195  	oct	040156165155
    031564  aa   142145 162040   13196  	oct	142145162040
    031565  aa   157156 040167   13197  	oct	157156040167
    031566  aa   150151 143150   13198  	oct	150151143150
    031567  aa   040141 040103   13199  	oct	040141040103
    031570  aa   117116 124122   13200  	oct	117116124122
    031571  aa   117114 040110   13201  	oct	117114040110
    031572  aa   105101 104111   13202  	oct	105101104111
    031573  aa   116107 040147   13203  	oct	116107040147
    031574  aa   162157 165160   13204  	oct	162157165160
    031575  aa   040157 162040   13205  	oct	040157162040
    031576  aa   141040 104105   13206  	oct	141040104105
    031577  aa   124101 111114   13207  	oct	124101111114
    031600  aa   040147 162157   13208  	oct	040147162157
    031601  aa   165160 040143   13209  	oct	165160040143
    031602  aa   141156 040142   13210  	oct	141156040142
    031603  aa   145040 160162   13211  	oct	145040160162
    031604  aa   145163 145156   13212  	oct	145163145156
    031605  aa   164145 144040   13213  	oct	164145144040
    031606  aa   151163 040164   13214  	oct	151163040164
    031607  aa   150145 040154   13215  	oct	150145040154
    031610  aa   151156 145040   13216  	oct	151156145040
    031611  aa   156165 155142   13217  	oct	156165155142
    031612  aa   145162 040163   13218  	oct	145162040163
    031613  aa   160145 143151   13219  	oct	160145143151
    031614  aa   146151 145144   13220  	oct	146151145144
    031615  aa   040142 171040   13221  	oct	040142171040
    031616  aa   164150 145040   13222  	oct	164150145040
    031617  aa   114101 123124   13223  	oct	114101123124
    031620  aa   040104 105124   13224  	oct	040104105124
    031621  aa   101111 114040   13225  	oct	101111114040
    031622  aa   160150 162141   13226  	oct	160150162141
    031623  aa   163145 040157   13227  	oct	163145040157
    031624  aa   146040 164150   13228  	oct	146040164150
    031625  aa   145040 120101   13229  	oct	145040120101
    031626  aa   107105 040143   13230  	oct	107105040143
    031627  aa   154141 165163   13231  	oct	154141165163
    031630  aa   145040 176124   13232  	oct	145040176124
    031631  aa   150145 040154   13233  	oct	150145040154
    031632  aa   141163 164040   13234  	oct	141163164040
    031633  aa   154151 156145   13235  	oct	154151156145
    031634  aa   040156 165155   13236  	oct	040156165155
    031635  aa   142145 162040   13237  	oct	142145162040
    031636  aa   157156 040167   13238  	oct	157156040167
    031637  aa   150151 143150   13239  	oct	150151143150
    031640  aa   040141 040103   13240  	oct	040141040103
    031641  aa   117116 124122   13241  	oct	117116124122
    031642  aa   117114 040106   13242  	oct	117114040106
    031643  aa   117117 124111   13243  	oct	117117124111
    031644  aa   116107 040147   13244  	oct	116107040147
    031645  aa   162157 165160   13245  	oct	162157165160
    031646  aa   040143 141156   13246  	oct	040143141156
    031647  aa   040142 145040   13247  	oct	040142145040
    031650  aa   160162 145163   13248  	oct	160162145163
    031651  aa   145156 164145   13249  	oct	145156164145
    031652  aa   144040 151163   13250  	oct	144040151163
    031653  aa   040164 150145   13251  	oct	040164150145
    031654  aa   040154 151156   13252  	oct	040154151156
    031655  aa   145040 156165   13253  	oct	145040156165
    031656  aa   155142 145162   13254  	oct	155142145162
    031657  aa   040163 160145   13255  	oct	040163160145
    031660  aa   143151 146151   13256  	oct	143151146151
    031661  aa   145144 040142   13257  	oct	145144040142
    031662  aa   171040 164150   13258  	oct	171040164150
    031663  aa   145040 106117   13259  	oct	145040106117
    031664  aa   117124 111116   13260  	oct	117124111116
    031665  aa   107040 160150   13261  	oct	107040160150
    031666  aa   162141 163145   13262  	oct	162141163145
    031667  aa   040157 146040   13263  	oct	040157146040
    031670  aa   164150 145040   13264  	oct	164150145040
    031671  aa   120101 107105   13265  	oct	120101107105
    031672  aa   040143 154141   13266  	oct	040143154141
    031673  aa   165163 145040   13267  	oct	165163145040
    031674  aa   176111 154154   13268  	oct	176111154154
    031675  aa   145147 141154   13269  	oct	145147141154
    031676  aa   040114 111116   13270  	oct	040114111116
    031677  aa   105040 143154   13271  	oct	105040143154
    031700  aa   141165 163145   13272  	oct	141165163145
    031701  aa   040111 154154   13273  	oct	040111154154
    031702  aa   145147 141154   13274  	oct	145147141154
    031703  aa   040116 105130   13275  	oct	040116105130
    031704  aa   124040 107122   13276  	oct	124040107122
    031705  aa   117125 120040   13277  	oct	117125120040
    031706  aa   143154 141165   13278  	oct	143154141165
    031707  aa   163145 040111   13279  	oct	163145040111
    031710  aa   154154 145147   13280  	oct	154154145147
    031711  aa   141154 040124   13281  	oct	141154040124
    031712  aa   131120 105040   13282  	oct	131120105040
    031713  aa   143154 141165   13283  	oct	143154141165
    031714  aa   163145 040111   13284  	oct	163145040111
    031715  aa   154154 145147   13285  	oct	154154145147
    031716  aa   141154 040125   13286  	oct	141154040125
    031717  aa   123101 107105   13287  	oct	123101107105
    031720  aa   040143 154141   13288  	oct	040143154141
    031721  aa   165163 145040   13289  	oct	165163145040
    031722  aa   111154 154145   13290  	oct	111154154145
    031723  aa   147141 154040   13291  	oct	147141154040
    031724  aa   102114 101116   13292  	oct	102114101116
    031725  aa   113040 127110   13293  	oct	113040127110
    031726  aa   105116 040132   13294  	oct	105116040132
    031727  aa   105122 117040   13295  	oct	105122117040
    031730  aa   143154 141165   13296  	oct	143154141165
    031731  aa   163145 040111   13297  	oct	163145040111
    031732  aa   154154 145147   13298  	oct	154154145147
    031733  aa   141154 040107   13299  	oct	141154040107
    031734  aa   122117 125120   13300  	oct	122117125120
    031735  aa   040111 116104   13301  	oct	040111116104
    031736  aa   111103 101124   13302  	oct	111103101124
    031737  aa   105040 143154   13303  	oct	105040143154
    031740  aa   141165 163145   13304  	oct	141165163145
    031741  aa   040111 154154   13305  	oct	040111154154
    031742  aa   145147 141154   13306  	oct	145147141154
    031743  aa   040112 125123   13307  	oct	040112125123
    031744  aa   124111 106111   13308  	oct	124111106111
    031745  aa   105104 040122   13309  	oct	105104040122
    031746  aa   111107 110124   13310  	oct	111107110124
    031747  aa   040143 154141   13311  	oct	040143154141
    031750  aa   165163 145040   13312  	oct	165163145040
    031751  aa   111154 154145   13313  	oct	111154154145
    031752  aa   147141 154040   13314  	oct	147141154040
    031753  aa   103117 114125   13315  	oct	103117114125
    031754  aa   115116 040143   13316  	oct	115116040143
    031755  aa   154141 165163   13317  	oct	154141165163
    031756  aa   145040 111154   13318  	oct	145040111154
    031757  aa   154145 147141   13319  	oct	154145147141
    031760  aa   154040 120111   13320  	oct	154040120111
    031761  aa   103124 125122   13321  	oct	103124125122
    031762  aa   105040 143154   13322  	oct	105040143154
    031763  aa   141165 163145   13323  	oct	141165163145
    031764  aa   040111 154154   13324  	oct	040111154154
    031765  aa   145147 141154   13325  	oct	145147141154
    031766  aa   040123 117125   13326  	oct	040123117125
    031767  aa   122103 105040   13327  	oct	122103105040
    031770  aa   143154 141165   13328  	oct	143154141165
    031771  aa   163145 040111   13329  	oct	163145040111
    031772  aa   154154 145147   13330  	oct	154154145147
    031773  aa   141154 040126   13331  	oct	141154040126
    031774  aa   101114 125105   13332  	oct	101114125105
    031775  aa   040143 154141   13333  	oct	040143154141
    031776  aa   165163 145040   13334  	oct	165163145040
    031777  aa   111154 154145   13335  	oct	111154154145
    032000  aa   147141 154040   13336  	oct	147141154040
    032001  aa   123125 115040   13337  	oct	123125115040
    032002  aa   143154 141165   13338  	oct	143154141165
    032003  aa   163145 040111   13339  	oct	163145040111
    032004  aa   154154 145147   13340  	oct	154154145147
    032005  aa   141154 040123   13341  	oct	141154040123
    032006  aa   111107 116040   13342  	oct	111107116040
    032007  aa   143154 141165   13343  	oct	143154141165
    032010  aa   163145 040111   13344  	oct	163145040111
    032011  aa   154154 145147   13345  	oct	154154145147
    032012  aa   141154 040103   13346  	oct	141154040103
    032013  aa   117104 105040   13347  	oct	117104105040
    032014  aa   143154 141165   13348  	oct	143154141165
    032015  aa   163145 040111   13349  	oct	163145040111
    032016  aa   154154 145147   13350  	oct	154154145147
    032017  aa   141154 040103   13351  	oct	141154040103
    032020  aa   117116 124122   13352  	oct	117116124122
    032021  aa   117114 123040   13353  	oct	117114123040
    032022  aa   143154 141165   13354  	oct	143154141165
    032023  aa   163145 040111   13355  	oct	163145040111
    032024  aa   154154 145147   13356  	oct	154154145147
    032025  aa   141154 040120   13357  	oct	141154040120
    032026  aa   101107 105040   13358  	oct	101107105040
    032027  aa   143154 141165   13359  	oct	143154141165
    032030  aa   163145 040154   13360  	oct	163145040154
    032031  aa   145166 145154   13361  	oct	145166145154
    032032  aa   040156 165155   13362  	oct	040156165155
    032033  aa   142145 162040   13363  	oct	142145162040
    032034  aa   151163 040162   13364  	oct	151163040162
    032035  aa   145161 165151   13365  	oct	145161165151
    032036  aa   162145 144040   13366  	oct	162145144040
    032037  aa   150145 162145   13367  	oct	150145162145
    032040  aa   040101 040162   13368  	oct	040101040162
    032041  aa   145160 157162   13369  	oct	145160157162
    032042  aa   164040 144145   13370  	oct	164040144145
    032043  aa   163143 162151   13371  	oct	163143162151
    032044  aa   160164 151157   13372  	oct	160164151157
    032045  aa   156040 143154   13373  	oct	156040143154
    032046  aa   141165 163145   13374  	oct	141165163145
    032047  aa   040151 163040   13375  	oct	040151163040
    032050  aa   145170 160145   13376  	oct	145170160145
    032051  aa   143164 145144   13377  	oct	143164145144
    032052  aa   040150 145162   13378  	oct	040150145162
    032053  aa   145040 101040   13379  	oct	145040101040
    032054  aa   162145 160157   13380  	oct	162145160157
    032055  aa   162164 040147   13381  	oct	162164040147
    032056  aa   162157 165160   13382  	oct	162157165160
    032057  aa   040144 145163   13383  	oct	040144145163
    032060  aa   143162 151160   13384  	oct	143162151160
    032061  aa   164151 157156   13385  	oct	164151157156
    032062  aa   040143 154141   13386  	oct	040143154141
    032063  aa   165163 145040   13387  	oct	165163145040
    032064  aa   151163 040145   13388  	oct	151163040145
    032065  aa   170160 145143   13389  	oct	170160145143
    032066  aa   164145 144040   13390  	oct	164145144040
    032067  aa   150145 162145   13391  	oct	150145162145
    032070  aa   040101 040106   13392  	oct	040101040106
    032071  aa   157162 155141   13393  	oct	157162155141
    032072  aa   164040 063040   13394  	oct	164040063040
    032073  aa   122145 160157   13395  	oct	122145160157
    032074  aa   162164 040107   13396  	oct	162164040107
    032075  aa   162157 165160   13397  	oct	162157165160
    032076  aa   040104 145163   13398  	oct	040104145163
    032077  aa   143162 151160   13399  	oct	143162151160
    032100  aa   164151 157156   13400  	oct	164151157156
    032101  aa   040105 156164   13401  	oct	040105156164
    032102  aa   162171 040155   13402  	oct	162171040155
    032103  aa   165163 164040   13403  	oct	165163164040
    032104  aa   143157 156164   13404  	oct	143157156164
    032105  aa   141151 156040   13405  	oct	141151156040
    032106  aa   141040 120111   13406  	oct	141040120111
    032107  aa   103040 143154   13407  	oct	103040143154
    032110  aa   141165 163145   13408  	oct	141165163145
    032111  aa   054040 120111   13409  	oct	054040120111
    032112  aa   103040 130040   13410  	oct	103040130040
    032113  aa   141163 163165   13411  	oct	141163163165
    032114  aa   155145 144040   13412  	oct	155145144040
    032115  aa   105170 160145   13413  	oct	105170160145
    032116  aa   143164 145144   13414  	oct	143164145144
    032117  aa   040167 157162   13415  	oct	040167157162
    032120  aa   144040 151163   13416  	oct	144040151163
    032121  aa   040120 122117   13417  	oct	040120122117
    032122  aa   103105 104125   13418  	oct	103105104125
    032123  aa   122105 040105   13419  	oct	122105040105
    032124  aa   170160 145143   13420  	oct	170160145143
    032125  aa   164145 144040   13421  	oct	164145144040
    032126  aa   167157 162144   13422  	oct	167157162144
    032127  aa   040151 163040   13423  	oct	040151163040
    032130  aa   104111 126111   13424  	oct	104111126111
    032131  aa   123111 117116   13425  	oct	123111117116
    032132  aa   040105 170160   13426  	oct	040105170160
    032133  aa   145143 164145   13427  	oct	145143164145
    032134  aa   144040 167157   13428  	oct	144040167157
    032135  aa   162144 040151   13429  	oct	162144040151
    032136  aa   163040 125123   13430  	oct	163040125123
    032137  aa   111116 107040   13431  	oct	111116107040
    032140  aa   157162 040141   13432  	oct	157162040141
    032141  aa   040160 145162   13433  	oct	040160145162
    032142  aa   151157 144040   13434  	oct	151157144040
    032143  aa   125123 111116   13435  	oct	125123111116
    032144  aa   107040 156157   13436  	oct	107040156157
    032145  aa   164040 141154   13437  	oct	164040141154
    032146  aa   154157 167145   13438  	oct	154157167145
    032147  aa   144040 167151   13439  	oct	144040167151
    032150  aa   164150 040111   13440  	oct	164150040111
    032151  aa   116111 124111   13441  	oct	116111124111
    032152  aa   101114 040143   13442  	oct	101114040143
    032153  aa   154141 165163   13443  	oct	154141165163
    032154  aa   145040 151156   13444  	oct	145040151156
    032155  aa   040104 141164   13445  	oct	040104141164
    032156  aa   141040 104151   13446  	oct	141040104151
    032157  aa   166151 163151   13447  	oct	166151163151
    032160  aa   157156 040111   13448  	oct	157156040111
    032161  aa   164145 155040   13449  	oct	164145155040
    032162  aa   151163 040156   13450  	oct	151163040156
    032163  aa   157164 040141   13451  	oct	157164040141
    032164  aa   156040 060061   13452  	oct	156040060061
    032165  aa   040157 162040   13453  	oct	040157162040
    032166  aa   067067 040154   13454  	oct	067067040154
    032167  aa   145166 145154   13455  	oct	145166145154
    032170  aa   040144 141164   13456  	oct	040144141164
    032171  aa   141055 156141   13457  	oct	141055156141
    032172  aa   155145 040144   13458  	oct	155145040144
    032173  aa   145146 151156   13459  	oct	145146151156
    032174  aa   145144 040151   13460  	oct	145144040151
    032175  aa   156040 164150   13461  	oct	156040164150
    032176  aa   145040 114151   13462  	oct	145040114151
    032177  aa   156153 141147   13463  	oct	156153141147
    032200  aa   145040 123145   13464  	oct	145040123145
    032201  aa   143164 151157   13465  	oct	143164151157
    032202  aa   156040 124150   13466  	oct	156040124150
    032203  aa   145040 156165   13467  	oct	145040156165
    032204  aa   155142 145162   13468  	oct	155142145162
    032205  aa   040157 146040   13469  	oct	040157146040
    032206  aa   125123 111116   13470  	oct	125123111116
    032207  aa   107040 160141   13471  	oct	107040160141
    032210  aa   162141 155145   13472  	oct	162141155145
    032211  aa   164145 162163   13473  	oct	164145162163
    032212  aa   040151 163040   13474  	oct	040151163040
    032213  aa   165156 145161   13475  	oct	165156145161
    032214  aa   165141 154040   13476  	oct	165141154040
    032215  aa   164157 040164   13477  	oct	164157040164
    032216  aa   150145 040156   13478  	oct	150145040156
    032217  aa   165155 142145   13479  	oct	165155142145
    032220  aa   162040 163160   13480  	oct	162040163160
    032221  aa   145143 151146   13481  	oct	145143151146
    032222  aa   151145 144040   13482  	oct	151145144040
    032223  aa   151156 040164   13483  	oct	151156040164
    032224  aa   150145 040114   13484  	oct	150145040114
    032225  aa   151156 153141   13485  	oct	151156153141
    032226  aa   147145 040123   13486  	oct	147145040123
    032227  aa   145143 164151   13487  	oct	145143164151
    032230  aa   157156 040101   13488  	oct	157156040101
    032231  aa   040160 145162   13489  	oct	040160145162
    032232  aa   151157 144040   13490  	oct	151157144040
    032233  aa   151163 040145   13491  	oct	151163040145
    032234  aa   170160 145143   13492  	oct	170160145143
    032235  aa   164145 144040   13493  	oct	164145144040
    032236  aa   142145 146157   13494  	oct	142145146157
    032237  aa   162145 040164   13495  	oct	162145040164
    032240  aa   150151 163040   13496  	oct	150151163040
    032241  aa   167157 162144   13497  	oct	167157162144
    032242  aa   040101 040163   13498  	oct	040101040163
    032243  aa   145143 164151   13499  	oct	145143164151
    032244  aa   157156 040150   13500  	oct	157156040150
    032245  aa   145141 144145   13501  	oct	145141144145
    032246  aa   162040 151163   13502  	oct	162040151163
    032247  aa   040145 170160   13503  	oct	040145170160
    032250  aa   145143 164145   13504  	oct	145143164145
    032251  aa   144040 150145   13505  	oct	144040150145
    032252  aa   162145 040105   13506  	oct	162145040105
    032253  aa   170160 145143   13507  	oct	170160145143
    032254  aa   164145 144040   13508  	oct	164145144040
    032255  aa   167157 162144   13509  	oct	167157162144
    032256  aa   040151 163040   13510  	oct	040151163040
    032257  aa   125123 105040   13511  	oct	125123105040
    032260  aa   105170 160145   13512  	oct	105170160145
    032261  aa   143164 145144   13513  	oct	143164145144
    032262  aa   040167 157162   13514  	oct	040167157162
    032263  aa   144040 151163   13515  	oct	144040151163
    032264  aa   040102 105106   13516  	oct	040102105106
    032265  aa   117122 105054   13517  	oct	117122105054
    032266  aa   040101 106124   13518  	oct	040101106124
    032267  aa   105122 054040   13519  	oct	105122054040
    032270  aa   106117 122054   13520  	oct	106117122054
    032271  aa   040157 162040   13521  	oct	040157162040
    032272  aa   122101 116104   13522  	oct	122101116104
    032273  aa   117115 040105   13523  	oct	117115040105
    032274  aa   170160 145143   13524  	oct	170160145143
    032275  aa   164145 144040   13525  	oct	164145144040
    032276  aa   167157 162144   13526  	oct	167157162144
    032277  aa   040151 163040   13527  	oct	040151163040
    032300  aa   111116 120125   13528  	oct	111116120125
    032301  aa   124054 040117   13529  	oct	124054040117
    032302  aa   125124 120125   13530  	oct	125124120125
    032303  aa   124054 040111   13531  	oct	124054040111
    032304  aa   055117 054040   13532  	oct	055117054040
    032305  aa   105130 124105   13533  	oct	105130124105
    032306  aa   116104 054040   13534  	oct	116104054040
    032307  aa   157162 040141   13535  	oct	157162040141
    032310  aa   040146 151154   13536  	oct	040146151154
    032311  aa   145055 156141   13537  	oct	145055156141
    032312  aa   155145 040111   13538  	oct	155145040111
    032313  aa   164145 155040   13539  	oct	164145155040
    032314  aa   150141 163040   13540  	oct	150141163040
    032315  aa   114101 102105   13541  	oct	114101102105
    032316  aa   114123 040117   13542  	oct	114123040117
    032317  aa   115111 124124   13543  	oct	115111124124
    032320  aa   105104 040143   13544  	oct	105104040143
    032321  aa   154141 165163   13545  	oct	154141165163
    032322  aa   145040 105170   13546  	oct	145040105170
    032323  aa   160145 143164   13547  	oct	160145143164
    032324  aa   145144 040167   13548  	oct	145144040167
    032325  aa   157162 144040   13549  	oct	157162144040
    032326  aa   151163 040114   13550  	oct	151163040114
    032327  aa   101102 105114   13551  	oct	101102105114
    032330  aa   040111 164145   13552  	oct	040111164145
    032331  aa   155040 151163   13553  	oct	155040151163
    032332  aa   040156 157164   13554  	oct	040156157164
    032333  aa   040141 040144   13555  	oct	040141040144
    032334  aa   141164 141055   13556  	oct	141164141055
    032335  aa   156141 155145   13557  	oct	156141155145
    032336  aa   040144 145146   13558  	oct	040144145146
    032337  aa   151156 145144   13559  	oct	151156145144
    032340  aa   040151 156040   13560  	oct	040151156040
    032341  aa   164150 145040   13561  	oct	164150145040
    032342  aa   122145 160157   13562  	oct	122145160157
    032343  aa   162164 040123   13563  	oct	162164040123
    032344  aa   145143 164151   13564  	oct	145143164151
    032345  aa   157156 040111   13565  	oct	157156040111
    032346  aa   164145 155040   13566  	oct	164145155040
    032347  aa   151163 040156   13567  	oct	151163040156
    032350  aa   157164 040141   13568  	oct	157164040141
    032351  aa   040160 141162   13569  	oct	040160141162
    032352  aa   141147 162141   13570  	oct	141147162141
    032353  aa   160150 055156   13571  	oct	160150055156
    032354  aa   141155 145040   13572  	oct	141155145040
    032355  aa   111164 145155   13573  	oct	111164145155
    032356  aa   040151 163040   13574  	oct	040151163040
    032357  aa   156157 164040   13575  	oct	156157164040
    032360  aa   164150 145040   13576  	oct	164150145040
    032361  aa   167157 162144   13577  	oct	167157162144
    032362  aa   040104 105103   13578  	oct	040104105103
    032363  aa   114101 122101   13579  	oct	114101122101
    032364  aa   124111 126105   13580  	oct	124111126105
    032365  aa   123040 105116   13581  	oct	123040105116
    032366  aa   104040 103117   13582  	oct	104040103117
    032367  aa   102117 114040   13583  	oct	102117114040
    032370  aa   163164 141164   13584  	oct	163164141164
    032371  aa   145155 145156   13585  	oct	145155145156
    032372  aa   164040 151163   13586  	oct	164040151163
    032373  aa   040155 151163   13587  	oct	040155151163
    032374  aa   160154 141143   13588  	oct	160154141143
    032375  aa   145144 040111   13589  	oct	145144040111
    032376  aa   164145 155040   13590  	oct	164145155040
    032377  aa   151163 040156   13591  	oct	151163040156
    032400  aa   157164 040141   13592  	oct	157164040141
    032401  aa   040160 141162   13593  	oct	040160141162
    032402  aa   141147 162141   13594  	oct	141147162141
    032403  aa   160150 055156   13595  	oct	160150055156
    032404  aa   141155 145054   13596  	oct	141155145054
    032405  aa   040163 145143   13597  	oct	040163145143
    032406  aa   164151 157156   13598  	oct	164151157156
    032407  aa   040150 145141   13599  	oct	040150145141
    032410  aa   144145 162054   13600  	oct	144145162054
    032411  aa   040166 145162   13601  	oct	040166145162
    032412  aa   142054 040105   13602  	oct	142054040105
    032413  aa   116104 040104   13603  	oct	116104040104
    032414  aa   105103 114101   13604  	oct	105103114101
    032415  aa   122101 124111   13605  	oct	122101124111
    032416  aa   126105 123054   13606  	oct	126105123054
    032417  aa   040157 162040   13607  	oct	040157162040
    032420  aa   105116 104040   13608  	oct	105116104040
    032421  aa   103117 102117   13609  	oct	103117102117
    032422  aa   114040 111164   13610  	oct	114040111164
    032423  aa   145155 040151   13611  	oct	145155040151
    032424  aa   163040 156157   13612  	oct	163040156157
    032425  aa   164040 141040   13613  	oct	164040141040
    032426  aa   160141 162141   13614  	oct	160141162141
    032427  aa   147162 141160   13615  	oct	147162141160
    032430  aa   150055 156141   13616  	oct	150055156141
    032431  aa   155145 054040   13617  	oct	155145054040
    032432  aa   163145 143164   13618  	oct	163145143164
    032433  aa   151157 156040   13619  	oct	151157156040
    032434  aa   150145 141144   13620  	oct	150145141144
    032435  aa   145162 054040   13621  	oct	145162054040
    032436  aa   166145 162142   13622  	oct	166145162142
    032437  aa   054040 157162   13623  	oct	054040157162
    032440  aa   040105 116104   13624  	oct	040105116104
    032441  aa   040103 117102   13625  	oct	040103117102
    032442  aa   117114 040111   13626  	oct	117114040111
    032443  aa   164145 155040   13627  	oct	164145155040
    032444  aa   151163 040156   13628  	oct	151163040156
    032445  aa   157164 040141   13629  	oct	157164040141
    032446  aa   040160 141162   13630  	oct	040160141162
    032447  aa   141147 162141   13631  	oct	141147162141
    032450  aa   160150 055156   13632  	oct	160150055156
    032451  aa   141155 145054   13633  	oct	141155145054
    032452  aa   040166 145162   13634  	oct	040166145162
    032453  aa   142054 040157   13635  	oct	142054040157
    032454  aa   162040 105116   13636  	oct	162040105116
    032455  aa   104040 103117   13637  	oct	104040103117
    032456  aa   102117 114040   13638  	oct	102117114040
    032457  aa   111164 145155   13639  	oct	111164145155
    032460  aa   040151 163040   13640  	oct	040151163040
    032461  aa   156157 164040   13641  	oct	156157164040
    032462  aa   141156 040151   13642  	oct	141156040151
    032463  aa   144145 156164   13643  	oct	144145156164
    032464  aa   151146 151145   13644  	oct	151146151145
    032465  aa   162040 122145   13645  	oct	162040122145
    032466  aa   143145 151166   13646  	oct	143145151166
    032467  aa   151156 147040   13647  	oct	151156147040
    032470  aa   146151 145154   13648  	oct	146151145154
    032471  aa   144040 146157   13649  	oct	144040146157
    032472  aa   162040 164150   13650  	oct	162040164150
    032473  aa   151163 040151   13651  	oct	151163040151
    032474  aa   164145 155040   13652  	oct	164145155040
    032475  aa   151163 040141   13653  	oct	151163040141
    032476  aa   154160 150141   13654  	oct	154160150141
    032477  aa   142145 164151   13655  	oct	142145164151
    032500  aa   143040 111164   13656  	oct	143040111164
    032501  aa   145155 040151   13657  	oct	145155040151
    032502  aa   163040 156157   13658  	oct	163040156157
    032503  aa   164040 141040   13659  	oct	164040141040
    032504  aa   155156 145155   13660  	oct	155156145155
    032505  aa   157156 151143   13661  	oct	157156151143
    032506  aa   055156 141155   13662  	oct	055156141155
    032507  aa   145040 157162   13663  	oct	145040157162
    032510  aa   040164 150145   13664  	oct	040164150145
    032511  aa   040167 157162   13665  	oct	040167157162
    032512  aa   144040 104101   13666  	oct	144040104101
    032513  aa   124105 054040   13667  	oct	124105054040
    032514  aa   104101 131054   13668  	oct	104101131054
    032515  aa   040124 111115   13669  	oct	040124111115
    032516  aa   105054 040157   13670  	oct	105054040157
    032517  aa   162040 104101   13671  	oct	162040104101
    032520  aa   131055 117106   13672  	oct	131055117106
    032521  aa   055127 105105   13673  	oct	055127105105
    032522  aa   113040 111164   13674  	oct	113040111164
    032523  aa   145155 040151   13675  	oct	145155040151
    032524  aa   163040 156157   13676  	oct	163040156157
    032525  aa   164040 156165   13677  	oct	164040156165
    032526  aa   155145 162151   13678  	oct	155145162151
    032527  aa   143040 141156   13679  	oct	143040141156
    032530  aa   144040 154145   13680  	oct	144040154145
    032531  aa   163163 040164   13681  	oct	163163040164
    032532  aa   150141 156040   13682  	oct	150141156040
    032533  aa   061071 040144   13683  	oct	061071040144
    032534  aa   151147 151164   13684  	oct	151147151164
    032535  aa   163040 111164   13685  	oct	163040111164
    032536  aa   145155 040151   13686  	oct	145155040151
    032537  aa   163040 156157   13687  	oct	163040156157
    032540  aa   164040 156165   13688  	oct	164040156165
    032541  aa   155145 162151   13689  	oct	155145162151
    032542  aa   143040 141156   13690  	oct	143040141156
    032543  aa   144040 154145   13691  	oct	144040154145
    032544  aa   163163 040164   13692  	oct	163163040164
    032545  aa   150141 156040   13693  	oct	150141156040
    032546  aa   061071 040144   13694  	oct	061071040144
    032547  aa   151147 151164   13695  	oct	151147151164
    032550  aa   163040 157162   13696  	oct	163040157162
    032551  aa   040164 150145   13697  	oct	040164150145
    032552  aa   040167 157162   13698  	oct	040167157162
    032553  aa   144040 124117   13699  	oct	144040124117
    032554  aa   040157 162040   13700  	oct	040157162040
    032555  aa   107111 126111   13701  	oct	107111126111
    032556  aa   116107 040111   13702  	oct	116107040111
    032557  aa   164145 155040   13703  	oct	164145155040
    032560  aa   151163 040156   13704  	oct	151163040156
    032561  aa   157164 040156   13705  	oct	157164040156
    032562  aa   165155 145162   13706  	oct	165155145162
    032563  aa   151143 040157   13707  	oct	151143040157
    032564  aa   162040 156165   13708  	oct	162040156165
    032565  aa   155145 162151   13709  	oct	155145162151
    032566  aa   143040 145144   13710  	oct	143040145144
    032567  aa   151164 145144   13711  	oct	151164145144
    032570  aa   040141 156144   13712  	oct	040141156144
    032571  aa   040154 145163   13713  	oct	040154145163
    032572  aa   163040 164150   13714  	oct	163040164150
    032573  aa   141156 040061   13715  	oct	141156040061
    032574  aa   071040 144151   13716  	oct	071040144151
    032575  aa   147151 164163   13717  	oct	147151164163
    032576  aa   040111 164145   13718  	oct	040111164145
    032577  aa   155040 151163   13719  	oct	155040151163
    032600  aa   040156 157164   13720  	oct	040156157164
    032601  aa   040141 156040   13721  	oct	040141156040
    032602  aa   141154 164145   13722  	oct	141154164145
    032603  aa   162141 142154   13723  	oct	162141142154
    032604  aa   145040 160162   13724  	oct	145040160162
    032605  aa   157143 145144   13725  	oct	157143145144
    032606  aa   165162 145055   13726  	oct	165162145055
    032607  aa   156141 155145   13727  	oct	156141155145
    032610  aa   040111 164145   13728  	oct	040111164145
    032611  aa   155040 151163   13729  	oct	155040151163
    032612  aa   040156 157164   13730  	oct	040156157164
    032613  aa   040164 150145   13731  	oct	040164150145
    032614  aa   040167 157162   13732  	oct	040167157162
    032615  aa   144040 124117   13733  	oct	144040124117
    032616  aa   040111 164145   13734  	oct	040111164145
    032617  aa   155040 151163   13735  	oct	155040151163
    032620  aa   040156 157164   13736  	oct	040156157164
    032621  aa   040141 040156   13737  	oct	040141040156
    032622  aa   157156 156165   13738  	oct	157156156165
    032623  aa   155145 162151   13739  	oct	155145162151
    032624  aa   143040 154151   13740  	oct	143040154151
    032625  aa   164145 162141   13741  	oct	164145162141
    032626  aa   154040 157162   13742  	oct	154040157162
    032627  aa   040151 144145   13743  	oct	040151144145
    032630  aa   156164 151146   13744  	oct	156164151146
    032631  aa   151145 162040   13745  	oct	151145162040
    032632  aa   111164 145155   13746  	oct	111164145155
    032633  aa   040144 157145   13747  	oct	040144157145
    032634  aa   163040 156157   13748  	oct	163040156157
    032635  aa   164040 142145   13749  	oct	164040142145
    032636  aa   147151 156040   13750  	oct	147151156040
    032637  aa   157156 040141   13751  	oct	157156040141
    032640  aa   040167 157162   13752  	oct	040167157162
    032641  aa   144040 142157   13753  	oct	144040142157
    032642  aa   165156 144141   13754  	oct	165156144141
    032643  aa   162171 040111   13755  	oct	162171040111
    032644  aa   164145 155040   13756  	oct	164145155040
    032645  aa   151163 040156   13757  	oct	151163040156
    032646  aa   157164 040141   13758  	oct	157164040141
    032647  aa   040156 157156   13759  	oct	040156157156
    032650  aa   055163 157162   13760  	oct	055163157162
    032651  aa   164040 146151   13761  	oct	164040146151
    032652  aa   154145 055156   13762  	oct	154145055156
    032653  aa   141155 145040   13763  	oct	141155145040
    032654  aa   105122 122117   13764  	oct	105122122117
    032655  aa   122063 062054   13765  	oct	122063062054
    032656  aa   040143 157155   13766  	oct	040143157155
    032657  aa   160151 154145   13767  	oct	160151154145
    032660  aa   162040 142165   13768  	oct	162040142165
    032661  aa   147040 111164   13769  	oct	147040111164
    032662  aa   145155 040151   13770  	oct	145155040151
    032663  aa   163040 156157   13771  	oct	163040156157
    032664  aa   164040 164150   13772  	oct	164040164150
    032665  aa   145040 167157   13773  	oct	145040167157
    032666  aa   162144 040106   13774  	oct	162144040106
    032667  aa   122117 115054   13775  	oct	122117115054
    032670  aa   040075 054040   13776  	oct	040075054040
    032671  aa   157162 040105   13777  	oct	157162040105
    032672  aa   121125 101114   13778  	oct	121125101114
    032673  aa   123040 111164   13779  	oct	123040111164
    032674  aa   145155 040151   13780  	oct	145155040151
    032675  aa   163040 156157   13781  	oct	163040156157
    032676  aa   164040 164150   13782  	oct	164040164150
    032677  aa   145040 167157   13783  	oct	145040167157
    032700  aa   162144 040111   13784  	oct	162144040111
    032701  aa   116120 125124   13785  	oct	116120125124
    032702  aa   040157 162040   13786  	oct	040157162040
    032703  aa   117125 124120   13787  	oct	117125124120
    032704  aa   125124 040111   13788  	oct	125124040111
    032705  aa   164145 155040   13789  	oct	164145155040
    032706  aa   151163 040156   13790  	oct	151163040156
    032707  aa   157164 040141   13791  	oct	157164040141
    032710  aa   156040 157165   13792  	oct	156040157165
    032711  aa   164160 165164   13793  	oct	164160165164
    032712  aa   040143 144055   13794  	oct	040143144055
    032713  aa   156141 155145   13795  	oct	156141155145
    032714  aa   040111 164145   13796  	oct	040111164145
    032715  aa   155040 151163   13797  	oct	155040151163
    032716  aa   040156 157164   13798  	oct	040156157164
    032717  aa   040141 156040   13799  	oct	040141156040
    032720  aa   151156 160165   13800  	oct	151156160165
    032721  aa   164040 143144   13801  	oct	164040143144
    032722  aa   055156 141155   13802  	oct	055156141155
    032723  aa   145040 111164   13803  	oct	145040111164
    032724  aa   145155 040151   13804  	oct	145155040151
    032725  aa   163040 156157   13805  	oct	163040156157
    032726  aa   164040 164150   13806  	oct	164040164150
    032727  aa   145040 167157   13807  	oct	145040167157
    032730  aa   162144 040113   13808  	oct	162144040113
    032731  aa   105131 040111   13809  	oct	105131040111
    032732  aa   164145 155040   13810  	oct	164145155040
    032733  aa   151163 040156   13811  	oct	151163040156
    032734  aa   157164 040141   13812  	oct	157164040141
    032735  aa   156040 141154   13813  	oct	156040141154
    032736  aa   160150 141156   13814  	oct	160150141156
    032737  aa   165155 145162   13815  	oct	165155145162
    032740  aa   151143 040151   13816  	oct	151143040151
    032741  aa   144145 156164   13817  	oct	144145156164
    032742  aa   151146 151145   13818  	oct	151146151145
    032743  aa   162040 157162   13819  	oct	162040157162
    032744  aa   040154 151164   13820  	oct	040154151164
    032745  aa   145162 141154   13821  	oct	145162141154
    032746  aa   040111 164145   13822  	oct	040111164145
    032747  aa   155040 151163   13823  	oct	155040151163
    032750  aa   040156 157164   13824  	oct	040156157164
    032751  aa   040141 156040   13825  	oct	040141156040
    032752  aa   151144 145156   13826  	oct	151144145156
    032753  aa   164151 146151   13827  	oct	164151146151
    032754  aa   145162 040157   13828  	oct	145162040157
    032755  aa   162040 154151   13829  	oct	162040154151
    032756  aa   164145 162141   13830  	oct	164145162141
    032757  aa   154040 111164   13831  	oct	154040111164
    032760  aa   145155 040151   13832  	oct	145155040151
    032761  aa   163040 156157   13833  	oct	163040156157
    032762  aa   164040 166141   13834  	oct	164040166141
    032763  aa   154151 144040   13835  	oct	154151144040
    032764  aa   144145 166151   13836  	oct	144145166151
    032765  aa   143145 040105   13837  	oct	143145040105
    032766  aa   170160 145143   13838  	oct	170160145143
    032767  aa   164145 144040   13839  	oct	164145144040
    032770  aa   167157 162144   13840  	oct	167157162144
    032771  aa   040151 163040   13841  	oct	040151163040
    032772  aa   111116 124117   13842  	oct	111116124117
    032773  aa   040157 162040   13843  	oct	040157162040
    032774  aa   102131 040111   13844  	oct	102131040111
    032775  aa   164145 155040   13845  	oct	164145155040
    032776  aa   151163 040156   13846  	oct	151163040156
    032777  aa   157164 040141   13847  	oct	157164040141
    033000  aa   040154 141156   13848  	oct	040154141156
    033001  aa   147165 141147   13849  	oct	147165141147
    033002  aa   145055 156141   13850  	oct	145055156141
    033003  aa   155145 040111   13851  	oct	155145040111
    033004  aa   164145 155040   13852  	oct	164145155040
    033005  aa   151163 040156   13853  	oct	151163040156
    033006  aa   157164 040141   13854  	oct	157164040141
    033007  aa   156040 122104   13855  	oct	156040122104
    033010  aa   040145 156164   13856  	oct	040145156164
    033011  aa   162171 040111   13857  	oct	162171040111
    033012  aa   164145 155040   13858  	oct	164145155040
    033013  aa   151163 040156   13859  	oct	151163040156
    033014  aa   157164 040141   13860  	oct	157164040141
    033015  aa   040160 162157   13861  	oct	040160162157
    033016  aa   143145 144165   13862  	oct	143145144165
    033017  aa   162145 055156   13863  	oct	162145055156
    033020  aa   141155 145040   13864  	oct	141155145040
    033021  aa   157162 040164   13865  	oct	157162040164
    033022  aa   150145 040167   13866  	oct	150145040167
    033023  aa   157162 144040   13867  	oct	157162144040
    033024  aa   104105 120105   13868  	oct	104105120105
    033025  aa   116104 111116   13869  	oct	116104111116
    033026  aa   107040 111164   13870  	oct	107040111164
    033027  aa   145155 040151   13871  	oct	145155040151
    033030  aa   163040 156157   13872  	oct	163040156157
    033031  aa   164040 141156   13873  	oct	164040141156
    033032  aa   040151 156164   13874  	oct	040151156164
    033033  aa   145147 145162   13875  	oct	145147145162
    033034  aa   040111 164145   13876  	oct	040111164145
    033035  aa   155040 151163   13877  	oct	155040151163
    033036  aa   040156 157164   13878  	oct	040156157164
    033037  aa   040141 040144   13879  	oct	040141040144
    033040  aa   145143 154141   13880  	oct	145143154141
    033041  aa   162141 164151   13881  	oct	162141164151
    033042  aa   166145 040163   13882  	oct	166145040163
    033043  aa   145143 164151   13883  	oct	145143164151
    033044  aa   157156 055156   13884  	oct	157156055156
    033045  aa   141155 145040   13885  	oct	141155145040
    033046  aa   111164 145155   13886  	oct	111164145155
    033047  aa   040151 163040   13887  	oct	040151163040
    033050  aa   156157 164040   13888  	oct	156157164040
    033051  aa   141040 162145   13889  	oct	141040162145
    033052  aa   160157 162164   13890  	oct	160157162164
    033053  aa   055156 141155   13891  	oct	055156141155
    033054  aa   145040 157162   13892  	oct	145040157162
    033055  aa   040164 150145   13893  	oct	040164150145
    033056  aa   040167 157162   13894  	oct	040167157162
    033057  aa   144040 101114   13895  	oct	144040101114
    033060  aa   114040 111164   13896  	oct	114040111164
    033061  aa   145155 040151   13897  	oct	145155040151
    033062  aa   163040 156157   13898  	oct	163040156157
    033063  aa   164040 141156   13899  	oct	164040141156
    033064  aa   040151 144145   13900  	oct	040151144145
    033065  aa   156164 151146   13901  	oct	156164151146
    033066  aa   151145 162040   13902  	oct	151145162040
    033067  aa   167151 164150   13903  	oct	167151164150
    033070  aa   040104 111123   13904  	oct	040104111123
    033071  aa   120114 101131   13905  	oct	120114101131
    033072  aa   040165 163141   13906  	oct	040165163141
    033073  aa   147145 040111   13907  	oct	147145040111
    033074  aa   164145 155040   13908  	oct	164145155040
    033075  aa   151163 040156   13909  	oct	151163040156
    033076  aa   157164 040164   13910  	oct	157164040164
    033077  aa   150145 040167   13911  	oct	150145040167
    033100  aa   157162 144040   13912  	oct	157162144040
    033101  aa   124101 114114   13913  	oct	124101114114
    033102  aa   131111 116107   13914  	oct	131111116107
    033103  aa   040157 162040   13915  	oct	040157162040
    033104  aa   122105 120114   13916  	oct	122105120114
    033105  aa   101103 111116   13917  	oct	101103111116
    033106  aa   107040 111164   13918  	oct	107040111164
    033107  aa   145155 040151   13919  	oct	145155040151
    033110  aa   163040 156157   13920  	oct	163040156157
    033111  aa   164040 164150   13921  	oct	164040164150
    033112  aa   145040 167157   13922  	oct	145040167157
    033113  aa   162144 040106   13923  	oct	162144040106
    033114  aa   117122 040111   13924  	oct	117122040111
    033115  aa   164145 155040   13925  	oct	164145155040
    033116  aa   151163 040156   13926  	oct	151163040156
    033117  aa   157164 040164   13927  	oct	157164040164
    033120  aa   150145 040167   13928  	oct	150145040167
    033121  aa   157162 144040   13929  	oct	157162144040
    033122  aa   101114 114054   13930  	oct	101114114054
    033123  aa   040114 105101   13931  	oct	040114105101
    033124  aa   104111 116107   13932  	oct	104111116107
    033125  aa   054040 157162   13933  	oct	054040157162
    033126  aa   040103 110101   13934  	oct	040103110101
    033127  aa   122101 103124   13935  	oct	122101103124
    033130  aa   105122 123040   13936  	oct	105122123040
    033131  aa   111164 145155   13937  	oct	111164145155
    033132  aa   040151 163040   13938  	oct	040151163040
    033133  aa   156157 164040   13939  	oct	156157164040
    033134  aa   141040 156157   13940  	oct	141040156157
    033135  aa   156156 165155   13941  	oct	156156165155
    033136  aa   145162 151143   13942  	oct	145162151143
    033137  aa   040154 151164   13943  	oct	040154151164
    033140  aa   145162 141154   13944  	oct	145162141154
    033141  aa   040157 162040   13945  	oct	040157162040
    033142  aa   141156 040145   13946  	oct	141156040145
    033143  aa   154145 155145   13947  	oct	154145155145
    033144  aa   156164 141162   13948  	oct	156164141162
    033145  aa   171040 144141   13949  	oct	171040144141
    033146  aa   164141 040151   13950  	oct	164141040151
    033147  aa   164145 155040   13951  	oct	164145155040
    033150  aa   167151 164150   13952  	oct	167151164150
    033151  aa   040104 111123   13953  	oct	040104111123
    033152  aa   120114 101131   13954  	oct	120114101131
    033153  aa   040165 163141   13955  	oct	040165163141
    033154  aa   147145 040111   13956  	oct	147145040111
    033155  aa   164145 155040   13957  	oct	164145155040
    033156  aa   151163 040156   13958  	oct	151163040156
    033157  aa   157164 040164   13959  	oct	157164040164
    033160  aa   150145 040167   13960  	oct	150145040167
    033161  aa   157162 144040   13961  	oct	157162144040
    033162  aa   101114 114054   13962  	oct	101114114054
    033163  aa   040114 105101   13963  	oct	040114105101
    033164  aa   104111 116107   13964  	oct	104111116107
    033165  aa   054040 157162   13965  	oct	054040157162
    033166  aa   040106 111122   13966  	oct	040106111122
    033167  aa   123124 040111   13967  	oct	123124040111
    033170  aa   164145 155040   13968  	oct	164145155040
    033171  aa   151163 040156   13969  	oct	151163040156
    033172  aa   157164 040164   13970  	oct	157164040164
    033173  aa   150145 040167   13971  	oct	150145040167
    033174  aa   157162 144040   13972  	oct	157162144040
    033175  aa   102131 040111   13973  	oct	102131040111
    033176  aa   164145 155040   13974  	oct	164145155040
    033177  aa   163151 172145   13975  	oct	163151172145
    033200  aa   040151 163040   13976  	oct	040151163040
    033201  aa   156157 164040   13977  	oct	156157164040
    033202  aa   145161 165141   13978  	oct	145161165141
    033203  aa   154040 164157   13979  	oct	154040164157
    033204  aa   040151 164145   13980  	oct	040151164145
    033205  aa   155040 162145   13981  	oct	155040162145
    033206  aa   160154 141143   13982  	oct	160154141143
    033207  aa   145144 040122   13983  	oct	145144040122
    033210  aa   145143 145151   13984  	oct	145143145151
    033211  aa   166151 156147   13985  	oct	166151156147
    033212  aa   040146 151145   13986  	oct	040146151145
    033213  aa   154144 040156   13987  	oct	154144040156
    033214  aa   157164 040143   13988  	oct	157164040143
    033215  aa   157155 160141   13989  	oct	157155160141
    033216  aa   164151 142154   13990  	oct	164151142154
    033217  aa   145040 167151   13991  	oct	145040167151
    033220  aa   164150 040163   13992  	oct	164150040163
    033221  aa   145156 144151   13993  	oct	145156144151
    033222  aa   156147 040146   13994  	oct	156147040146
    033223  aa   151145 154144   13995  	oct	151145154144
    033224  aa   040111 164145   13996  	oct	040111164145
    033225  aa   155040 151163   13997  	oct	155040151163
    033226  aa   040156 157164   13998  	oct	040156157164
    033227  aa   040164 150145   13999  	oct	040164150145
    033230  aa   040167 157162   14000  	oct	040167157162
    033231  aa   144040 107111   14001  	oct	144040107111
    033232  aa   126111 116107   14002  	oct	126111116107
    033233  aa   040111 164145   14003  	oct	040111164145
    033234  aa   155040 151163   14004  	oct	155040151163
    033235  aa   040156 157164   14005  	oct	040156157164
    033236  aa   040164 150145   14006  	oct	040164150145
    033237  aa   040167 157162   14007  	oct	040167157162
    033240  aa   144040 111116   14008  	oct	144040111116
    033241  aa   120125 124054   14009  	oct	120125124054
    033242  aa   040117 125124   14010  	oct	040117125124
    033243  aa   120125 124054   14011  	oct	120125124054
    033244  aa   040157 162040   14012  	oct	040157162040
    033245  aa   111055 117040   14013  	oct	111055117040
    033246  aa   106151 154145   14014  	oct	106151154145
    033247  aa   040151 163040   14015  	oct	040151163040
    033250  aa   156157 164040   14016  	oct	156157164040
    033251  aa   163151 156147   14017  	oct	163151156147
    033252  aa   154145 040162   14018  	oct	154145040162
    033253  aa   145145 154057   14019  	oct	145145154057
    033254  aa   165156 151164   14020  	oct	165156151164
    033255  aa   040167 151164   14021  	oct	040167151164
    033256  aa   150040 163145   14022  	oct	150040163145
    033257  aa   161165 145156   14023  	oct	161165145156
    033260  aa   164151 141154   14024  	oct	164151141154
    033261  aa   040157 162147   14025  	oct	040157162147
    033262  aa   141156 151172   14026  	oct	141156151172
    033263  aa   141164 151157   14027  	oct	141164151157
    033264  aa   156040 111164   14028  	oct	156040111164
    033265  aa   145155 040151   14029  	oct	145155040151
    033266  aa   163040 156157   14030  	oct	163040156157
    033267  aa   164040 141040   14031  	oct	164040141040
    033270  aa   156157 156055   14032  	oct	156157156055
    033271  aa   163157 162164   14033  	oct	163157162164
    033272  aa   040155 141163   14034  	oct	040155141163
    033273  aa   163040 163164   14035  	oct	163040163164
    033274  aa   157162 141147   14036  	oct	157162141147
    033275  aa   145040 146151   14037  	oct	145040146151
    033276  aa   154145 040111   14038  	oct	154145040111
    033277  aa   164145 155040   14039  	oct	164145155040
    033300  aa   151163 040156   14040  	oct	151163040156
    033301  aa   157164 040141   14041  	oct	157164040141
    033302  aa   040160 162157   14042  	oct	040160162157
    033303  aa   143145 144165   14043  	oct	143145144165
    033304  aa   162145 055156   14044  	oct	162145055156
    033305  aa   141155 145040   14045  	oct	141155145040
    033306  aa   111164 145155   14046  	oct	111164145155
    033307  aa   040151 163040   14047  	oct	040151163040
    033310  aa   156157 164040   14048  	oct	156157164040
    033311  aa   164150 145040   14049  	oct	164150145040
    033312  aa   167157 162144   14050  	oct	167157162144
    033313  aa   040124 111115   14051  	oct	040124111115
    033314  aa   105123 040111   14052  	oct	105123040111
    033315  aa   164145 155040   14053  	oct	164145155040
    033316  aa   151163 040156   14054  	oct	151163040156
    033317  aa   157164 040156   14055  	oct	157164040156
    033320  aa   165155 145162   14056  	oct	165155145162
    033321  aa   151143 040157   14057  	oct	151143040157
    033322  aa   162040 141156   14058  	oct	162040141156
    033323  aa   040151 156144   14059  	oct	040151156144
    033324  aa   145170 055156   14060  	oct	145170055156
    033325  aa   141155 145040   14061  	oct	141155145040
    033326  aa   111164 145155   14062  	oct	111164145155
    033327  aa   040151 163040   14063  	oct	040151163040
    033330  aa   156157 164040   14064  	oct	156157164040
    033331  aa   164150 145040   14065  	oct	164150145040
    033332  aa   167157 162144   14066  	oct	167157162144
    033333  aa   040106 122117   14067  	oct	040106122117
    033334  aa   115040 111164   14068  	oct	115040111164
    033335  aa   145155 040151   14069  	oct	145155040151
    033336  aa   163040 156157   14070  	oct	163040156157
    033337  aa   164040 164150   14071  	oct	164040164150
    033340  aa   145040 167157   14072  	oct	145040167157
    033341  aa   162144 040125   14073  	oct	162144040125
    033342  aa   116124 111114   14074  	oct	116124111114
    033343  aa   040111 164145   14075  	oct	040111164145
    033344  aa   155040 151163   14076  	oct	155040151163
    033345  aa   040156 157164   14077  	oct	040156157164
    033346  aa   040141 040163   14078  	oct	040141040163
    033347  aa   145143 164151   14079  	oct	145143164151
    033350  aa   157156 040156   14080  	oct	157156040156
    033351  aa   141155 145111   14081  	oct	141155145111
    033352  aa   164145 155040   14082  	oct	164145155040
    033353  aa   151163 040156   14083  	oct	151163040156
    033354  aa   157164 040141   14084  	oct	157164040141
    033355  aa   156040 123101   14085  	oct	156040123101
    033356  aa   040156 141155   14086  	oct	040156141155
    033357  aa   145040 157162   14087  	oct	145040157162
    033360  aa   040141 040162   14088  	oct	040141040162
    033361  aa   145143 157162   14089  	oct	145143157162
    033362  aa   144040 156141   14090  	oct	144040156141
    033363  aa   155145 040106   14091  	oct	155145040106
    033364  aa   151154 145040   14092  	oct	151154145040
    033365  aa   155165 163164   14093  	oct	155165163164
    033366  aa   040156 157164   14094  	oct	040156157164
    033367  aa   040150 141166   14095  	oct	040150141166
    033370  aa   145040 166141   14096  	oct	145040166141
    033371  aa   162151 141142   14097  	oct	162151141142
    033372  aa   154145 040163   14098  	oct	154145040163
    033373  aa   151172 145040   14099  	oct	151172145040
    033374  aa   162145 143157   14100  	oct	162145143157
    033375  aa   162144 163040   14101  	oct	162144163040
    033376  aa   111164 145155   14102  	oct	111164145155
    033377  aa   040151 163040   14103  	oct	040151163040
    033400  aa   163141 155145   14104  	oct	163141155145
    033401  aa   040141 162145   14105  	oct	040141162145
    033402  aa   141040 141163   14106  	oct	141040141163
    033403  aa   040146 151154   14107  	oct	040146151154
    033404  aa   145055 156141   14108  	oct	145055156141
    033405  aa   155145 040111   14109  	oct	155145040111
    033406  aa   164145 155040   14110  	oct	164145155040
    033407  aa   151163 040156   14111  	oct	151163040156
    033410  aa   157164 040164   14112  	oct	157164040164
    033411  aa   150145 040167   14113  	oct	150145040167
    033412  aa   157162 144040   14114  	oct	157162144040
    033413  aa   115105 123123   14115  	oct	115105123123
    033414  aa   101107 105040   14116  	oct	101107105040
    033415  aa   157162 040123   14117  	oct	157162040123
    033416  aa   105107 115105   14118  	oct	105107115105
    033417  aa   116124 040111   14119  	oct	116124040111
    033420  aa   164145 155040   14120  	oct	164145155040
    033421  aa   151163 040156   14121  	oct	151163040156
    033422  aa   157164 040164   14122  	oct	157164040164
    033423  aa   150145 040167   14123  	oct	150145040167
    033424  aa   157162 144040   14124  	oct	157162144040
    033425  aa   111116 124117   14125  	oct	111116124117
    033426  aa   040111 164145   14126  	oct	040111164145
    033427  aa   155040 151163   14127  	oct	155040151163
    033430  aa   040156 157164   14128  	oct	040156157164
    033431  aa   040141 040162   14129  	oct	040141040162
    033432  aa   145143 157162   14130  	oct	145143157162
    033433  aa   144040 156141   14131  	oct	144040156141
    033434  aa   155145 040151   14132  	oct	155145040151
    033435  aa   156040 141163   14133  	oct	156040141163
    033436  aa   163157 143151   14134  	oct	163157143151
    033437  aa   141164 145144   14135  	oct	141164145144
    033440  aa   040146 151154   14136  	oct	040146151154
    033441  aa   145040 111164   14137  	oct	145040111164
    033442  aa   145155 040151   14138  	oct	145155040151
    033443  aa   163040 156157   14139  	oct	163040156157
    033444  aa   164040 167151   14140  	oct	164040167151
    033445  aa   164150 151156   14141  	oct	164150151156
    033446  aa   040163 157162   14142  	oct	040163157162
    033447  aa   164040 151156   14143  	oct	164040151156
    033450  aa   160165 164040   14144  	oct	160165164040
    033451  aa   160162 157143   14145  	oct	160162157143
    033452  aa   145144 165162   14146  	oct	145144165162
    033453  aa   145040 162141   14147  	oct	145040162141
    033454  aa   156147 145040   14148  	oct	156147145040
    033455  aa   111164 145155   14149  	oct	111164145155
    033456  aa   040151 163040   14150  	oct	040151163040
    033457  aa   156157 164040   14151  	oct	156157164040
    033460  aa   167151 164150   14152  	oct	167151164150
    033461  aa   151156 040163   14153  	oct	151156040163
    033462  aa   157162 164057   14154  	oct	157162164057
    033463  aa   155145 162147   14155  	oct	155145162147
    033464  aa   145040 157165   14156  	oct	145040157165
    033465  aa   164160 165164   14157  	oct	164160165164
    033466  aa   040160 162157   14158  	oct	040160162157
    033467  aa   143145 144165   14159  	oct	143145144165
    033470  aa   162145 040162   14160  	oct	162145040162
    033471  aa   141156 147145   14161  	oct	141156147145
    033472  aa   040111 164145   14162  	oct	040111164145
    033473  aa   155040 151163   14163  	oct	155040151163
    033474  aa   040156 157164   14164  	oct	040156157164
    033475  aa   040141 156040   14165  	oct	040141156040
    033476  aa   141163 163157   14166  	oct	141163163157
    033477  aa   143151 141164   14167  	oct	143151141164
    033500  aa   145144 040163   14168  	oct	145144040163
    033501  aa   157162 164040   14169  	oct	157162164040
    033502  aa   146151 154145   14170  	oct	146151154145
    033503  aa   055156 141155   14171  	oct	055156141155
    033504  aa   145040 111164   14172  	oct	145040111164
    033505  aa   145155 040151   14173  	oct	145155040151
    033506  aa   163040 156157   14174  	oct	163040156157
    033507  aa   164040 141156   14175  	oct	164040141156
    033510  aa   040151 144145   14176  	oct	040151144145
    033511  aa   156164 151146   14177  	oct	156164151146
    033512  aa   151145 162040   14178  	oct	151145162040
    033513  aa   157162 040164   14179  	oct	157162040164
    033514  aa   150145 040167   14180  	oct	150145040167
    033515  aa   157162 144040   14181  	oct	157162144040
    033516  aa   101114 114040   14182  	oct	101114114040
    033517  aa   111164 145155   14183  	oct	111164145155
    033520  aa   040151 163040   14184  	oct	040151163040
    033521  aa   156157 164040   14185  	oct	156157164040
    033522  aa   141156 040151   14186  	oct	141156040151
    033523  aa   144145 156164   14187  	oct	144145156164
    033524  aa   151146 151145   14188  	oct	151146151145
    033525  aa   162040 157162   14189  	oct	162040157162
    033526  aa   040151 156144   14190  	oct	040151156144
    033527  aa   145170 055156   14191  	oct	145170055156
    033530  aa   141155 145040   14192  	oct	141155145040
    033531  aa   111164 145155   14193  	oct	111164145155
    033532  aa   040151 163040   14194  	oct	040151163040
    033533  aa   156157 164040   14195  	oct	156157164040
    033534  aa   164150 145040   14196  	oct	164150145040
    033535  aa   167157 162144   14197  	oct	167157162144
    033536  aa   040127 110105   14198  	oct	040127110105
    033537  aa   116040 111164   14199  	oct	116040111164
    033540  aa   145155 040151   14200  	oct	145155040151
    033541  aa   163040 156157   14201  	oct	163040156157
    033542  aa   164040 141040   14202  	oct	164040141040
    033543  aa   160157 163151   14203  	oct	160157163151
    033544  aa   164151 166145   14204  	oct	164151166145
    033545  aa   040151 156164   14205  	oct	040151156164
    033546  aa   145147 145162   14206  	oct	145147145162
    033547  aa   040157 162040   14207  	oct	040157162040
    033550  aa   141156 040151   14208  	oct	141156040151
    033551  aa   156144 145170   14209  	oct	156144145170
    033552  aa   055156 141155   14210  	oct	055156141155
    033553  aa   145040 111164   14211  	oct	145040111164
    033554  aa   145155 040151   14212  	oct	145155040151
    033555  aa   163040 156157   14213  	oct	163040156157
    033556  aa   164040 156157   14214  	oct	164040156157
    033557  aa   156055 163165   14215  	oct	156055163165
    033560  aa   142163 143162   14216  	oct	142163143162
    033561  aa   151160 164145   14217  	oct	151160164145
    033562  aa   144040 141156   14218  	oct	144040141156
    033563  aa   144040 156157   14219  	oct	144040156157
    033564  aa   156055 151156   14220  	oct	156055151156
    033565  aa   144145 170145   14221  	oct	144145170145
    033566  aa   144040 167151   14222  	oct	144040167151
    033567  aa   164150 040142   14223  	oct	164150040142
    033570  aa   157164 150040   14224  	oct	157164150040
    033571  aa   117103 103125   14225  	oct	117103103125
    033572  aa   122123 040141   14226  	oct	122123040141
    033573  aa   156144 040111   14227  	oct	156144040111
    033574  aa   116104 105130   14228  	oct	116104105130
    033575  aa   105104 040102   14229  	oct	105104040102
    033576  aa   131040 143154   14230  	oct	131040143154
    033577  aa   141165 163145   14231  	oct	141165163145
    033600  aa   040111 164145   14232  	oct	040111164145
    033601  aa   155040 144157   14233  	oct	155040144157
    033602  aa   145163 040156   14234  	oct	145163040156
    033603  aa   157164 040150   14235  	oct	157164040150
    033604  aa   141166 145040   14236  	oct	141166145040
    033605  aa   113105 131040   14237  	oct	113105131040
    033606  aa   111123 040143   14238  	oct	111123040143
    033607  aa   154141 165163   14239  	oct	154141165163
    033610  aa   145040 111164   14240  	oct	145040111164
    033611  aa   145155 040151   14241  	oct	145155040151
    033612  aa   163040 156157   14242  	oct	163040156157
    033613  aa   164040 141040   14243  	oct	164040141040
    033614  aa   155141 163163   14244  	oct	155141163163
    033615  aa   040163 164157   14245  	oct	040163164157
    033616  aa   162141 147145   14246  	oct	162141147145
    033617  aa   040162 141156   14247  	oct	040162141156
    033620  aa   144157 155040   14248  	oct	144157155040
    033621  aa   141143 143145   14249  	oct	141143143145
    033622  aa   163163 040146   14250  	oct	163163040146
    033623  aa   151154 145040   14251  	oct	151154145040
    033624  aa   111164 145155   14252  	oct	111164145155
    033625  aa   040151 163040   14253  	oct	040151163040
    033626  aa   156157 164040   14254  	oct	156157164040
    033627  aa   141156 040151   14255  	oct	141156040151
    033630  aa   144145 156164   14256  	oct	144145156164
    033631  aa   151146 151145   14257  	oct	151146151145
    033632  aa   162040 157162   14258  	oct	162040157162
    033633  aa   040164 150145   14259  	oct	040164150145
    033634  aa   040167 157162   14260  	oct	040167157162
    033635  aa   144040 105123   14261  	oct	144040105123
    033636  aa   111054 040105   14262  	oct	111054040105
    033637  aa   115111 054040   14263  	oct	115111054040
    033640  aa   157162 040105   14264  	oct	157162040105
    033641  aa   124111 040111   14265  	oct	124111040111
    033642  aa   164145 155040   14266  	oct	164145155040
    033643  aa   151163 040156   14267  	oct	151163040156
    033644  aa   157164 040141   14268  	oct	157164040141
    033645  aa   156040 151156   14269  	oct	156040151156
    033646  aa   164145 147145   14270  	oct	164145147145
    033647  aa   162054 040151   14271  	oct	162054040151
    033650  aa   144145 156164   14272  	oct	144145156164
    033651  aa   151146 151145   14273  	oct	151146151145
    033652  aa   162054 040155   14274  	oct	162054040155
    033653  aa   156145 155157   14275  	oct	156145155157
    033654  aa   156151 143055   14276  	oct	156151143055
    033655  aa   156141 155145   14277  	oct	156141155145
    033656  aa   054040 157162   14278  	oct	054040157162
    033657  aa   040164 150145   14279  	oct	040164150145
    033660  aa   040167 157162   14280  	oct	040167157162
    033661  aa   144040 120101   14281  	oct	144040120101
    033662  aa   107105 040111   14282  	oct	107105040111
    033663  aa   164145 155040   14283  	oct	164145155040
    033664  aa   151163 040156   14284  	oct	151163040156
    033665  aa   157164 040164   14285  	oct	157164040164
    033666  aa   150145 040167   14286  	oct	150145040167
    033667  aa   157162 144040   14287  	oct	157162144040
    033670  aa   125120 054040   14288  	oct	125120054040
    033671  aa   104117 127116   14289  	oct	104117127116
    033672  aa   040157 162040   14290  	oct	040157162040
    033673  aa   124117 040111   14291  	oct	124117040111
    033674  aa   164145 155040   14292  	oct	164145155040
    033675  aa   151163 040156   14293  	oct	151163040156
    033676  aa   157164 040141   14294  	oct	157164040141
    033677  aa   156040 151156   14295  	oct	156040151156
    033700  aa   144145 170055   14296  	oct	144145170055
    033701  aa   156141 155145   14297  	oct	156141155145
    033702  aa   040157 162040   14298  	oct	040157162040
    033703  aa   141040 160157   14299  	oct	141040160157
    033704  aa   163151 164151   14300  	oct	163151164151
    033705  aa   166145 040151   14301  	oct	166145040151
    033706  aa   156164 145147   14302  	oct	156164145147
    033707  aa   145162 040111   14303  	oct	145162040111
    033710  aa   164145 155040   14304  	oct	164145155040
    033711  aa   151163 040156   14305  	oct	151163040156
    033712  aa   157164 040141   14306  	oct	157164040141
    033713  aa   156040 151156   14307  	oct	156040151156
    033714  aa   144145 170040   14308  	oct	144145170040
    033715  aa   144141 164141   14309  	oct	144141164141
    033716  aa   040151 164145   14310  	oct	040151164145
    033717  aa   155040 157162   14311  	oct	155040157162
    033720  aa   040141 156040   14312  	oct	040141156040
    033721  aa   151156 164145   14313  	oct	151156164145
    033722  aa   147145 162040   14314  	oct	147145162040
    033723  aa   111164 145155   14315  	oct	111164145155
    033724  aa   040151 163040   14316  	oct	040151163040
    033725  aa   156157 164040   14317  	oct	156157164040
    033726  aa   141156 040151   14318  	oct	141156040151
    033727  aa   156164 145147   14319  	oct	156164145147
    033730  aa   145162 040111   14320  	oct	145162040111
    033731  aa   164145 155040   14321  	oct	164145155040
    033732  aa   151163 040156   14322  	oct	151163040156
    033733  aa   157164 040141   14323  	oct	157164040141
    033734  aa   040163 157162   14324  	oct	040163157162
    033735  aa   164040 146151   14325  	oct	164040146151
    033736  aa   154145 055156   14326  	oct	154145055156
    033737  aa   141155 145040   14327  	oct	141155145040
    033740  aa   111164 145155   14328  	oct	111164145155
    033741  aa   040151 163040   14329  	oct	040151163040
    033742  aa   156157 164040   14330  	oct	156157164040
    033743  aa   141040 163157   14331  	oct	141040163157
    033744  aa   162164 040146   14332  	oct	162164040146
    033745  aa   151154 145055   14333  	oct	151154145055
    033746  aa   156141 155145   14334  	oct	156141155145
    033747  aa   040111 164145   14335  	oct	040111164145
    033750  aa   155040 151163   14336  	oct	155040151163
    033751  aa   040156 157164   14337  	oct	040156157164
    033752  aa   040141 040144   14338  	oct	040141040144
    033753  aa   141164 141055   14339  	oct	141164141055
    033754  aa   156141 155145   14340  	oct	156141155145
    033755  aa   040151 156040   14341  	oct	040151156040
    033756  aa   141163 163157   14342  	oct	141163163157
    033757  aa   143151 141164   14343  	oct	143151141164
    033760  aa   145144 040146   14344  	oct	145144040146
    033761  aa   151154 145040   14345  	oct	151154145040
    033762  aa   111164 145155   14346  	oct	111164145155
    033763  aa   040151 163040   14347  	oct	040151163040
    033764  aa   156157 164040   14348  	oct	156157164040
    033765  aa   141040 144141   14349  	oct	141040144141
    033766  aa   164141 055156   14350  	oct	164141055156
    033767  aa   141155 145040   14351  	oct	141155145040
    033770  aa   157162 040164   14352  	oct	157162040164
    033771  aa   150145 040167   14353  	oct	150145040167
    033772  aa   157162 144040   14354  	oct	157162144040
    033773  aa   117116 054040   14355  	oct	117116054040
    033774  aa   104105 123103   14356  	oct	104105123103
    033775  aa   105116 104111   14357  	oct	105116104111
    033776  aa   116107 054040   14358  	oct	116107054040
    033777  aa   101123 103105   14359  	oct	101123103105
    034000  aa   116104 111116   14360  	oct	116104111116
    034001  aa   107054 040111   14361  	oct	107054040111
    034002  aa   116120 125124   14362  	oct	116120125124
    034003  aa   054040 157162   14363  	oct	054040157162
    034004  aa   040125 123111   14364  	oct	040125123111
    034005  aa   116107 040111   14365  	oct	116107040111
    034006  aa   164145 155040   14366  	oct	164145155040
    034007  aa   151163 040156   14367  	oct	151163040156
    034010  aa   157164 040164   14368  	oct	157164040164
    034011  aa   150145 040167   14369  	oct	150145040167
    034012  aa   157162 144040   14370  	oct	157162144040
    034013  aa   117125 124120   14371  	oct	117125124120
    034014  aa   125124 040157   14372  	oct	125124040157
    034015  aa   162040 107111   14373  	oct	162040107111
    034016  aa   126111 116107   14374  	oct	126111116107
    034017  aa   040111 164145   14375  	oct	040111164145
    034020  aa   155040 144157   14376  	oct	155040144157
    034021  aa   145163 040156   14377  	oct	145163040156
    034022  aa   157164 040150   14378  	oct	157164040150
    034023  aa   141166 145040   14379  	oct	141166145040
    034024  aa   104111 123120   14380  	oct	104111123120
    034025  aa   114101 131040   14381  	oct	114101131040
    034026  aa   165163 141147   14382  	oct	165163141147
    034027  aa   145040 111164   14383  	oct	145040111164
    034030  aa   145155 040151   14384  	oct	145155040151
    034031  aa   163040 156157   14385  	oct	163040156157
    034032  aa   164040 141156   14386  	oct	164040141156
    034033  aa   040151 144145   14387  	oct	040151144145
    034034  aa   156164 151146   14388  	oct	156164151146
    034035  aa   151145 162054   14389  	oct	151145162054
    034036  aa   040156 157156   14390  	oct	040156157156
    034037  aa   156165 155145   14391  	oct	156165155145
    034040  aa   162151 143040   14392  	oct	162151143040
    034041  aa   154151 164145   14393  	oct	154151164145
    034042  aa   162141 154054   14394  	oct	162141154054
    034043  aa   040157 162040   14395  	oct	040157162040
    034044  aa   164150 145040   14396  	oct	164150145040
    034045  aa   167157 162144   14397  	oct	167157162144
    034046  aa   040104 105114   14398  	oct	040104105114
    034047  aa   111115 111124   14399  	oct	111115111124
    034050  aa   105104 040111   14400  	oct	105104040111
    034051  aa   164145 155040   14401  	oct	164145155040
    034052  aa   151163 040156   14402  	oct	151163040156
    034053  aa   157164 040141   14403  	oct	157164040141
    034054  aa   156040 151144   14404  	oct	156040151144
    034055  aa   145156 164151   14405  	oct	145156164151
    034056  aa   146151 145054   14406  	oct	146151145054
    034057  aa   040156 157156   14407  	oct	040156157156
    034060  aa   156165 155145   14408  	oct	156165155145
    034061  aa   162151 143040   14409  	oct	162151143040
    034062  aa   154151 164145   14410  	oct	154151164145
    034063  aa   162141 154054   14411  	oct	162141154054
    034064  aa   040157 162040   14412  	oct	040157162040
    034065  aa   164150 145040   14413  	oct	164150145040
    034066  aa   167157 162144   14414  	oct	167157162144
    034067  aa   040123 111132   14415  	oct	040123111132
    034070  aa   105040 111164   14416  	oct	105040111164
    034071  aa   145155 040151   14417  	oct	145155040151
    034072  aa   163040 156157   14418  	oct	163040156157
    034073  aa   164040 146151   14419  	oct	164040146151
    034074  aa   170145 144040   14420  	oct	170145144040
    034075  aa   154145 156147   14421  	oct	154145156147
    034076  aa   164150 040167   14422  	oct	164150040167
    034077  aa   151164 150040   14423  	oct	151164150040
    034100  aa   104111 123120   14424  	oct	104111123120
    034101  aa   114101 131040   14425  	oct	114101131040
    034102  aa   165163 141147   14426  	oct	165163141147
    034103  aa   145040 111164   14427  	oct	145040111164
    034104  aa   145155 040151   14428  	oct	145155040151
    034105  aa   163040 156157   14429  	oct	163040156157
    034106  aa   164040 141156   14430  	oct	164040141156
    034107  aa   040151 144145   14431  	oct	040151144145
    034110  aa   156164 151146   14432  	oct	156164151146
    034111  aa   151145 162054   14433  	oct	151145162054
    034112  aa   040156 157156   14434  	oct	040156157156
    034113  aa   156165 155145   14435  	oct	156165155145
    034114  aa   162151 143040   14436  	oct	162151143040
    034115  aa   154151 164145   14437  	oct	154151164145
    034116  aa   162141 154054   14438  	oct	162141154054
    034117  aa   040157 162040   14439  	oct	040157162040
    034120  aa   164150 145040   14440  	oct	164150145040
    034121  aa   167157 162144   14441  	oct	167157162144
    034122  aa   040111 116124   14442  	oct	040111116124
    034123  aa   117040 111164   14443  	oct	117040111164
    034124  aa   145155 040151   14444  	oct	145155040151
    034125  aa   163040 156157   14445  	oct	163040156157
    034126  aa   164040 141040   14446  	oct	164040141040
    034127  aa   156157 156055   14447  	oct	156157156055
    034130  aa   145144 151164   14448  	oct	145144151164
    034131  aa   145144 040145   14449  	oct	145144040145
    034132  aa   154145 155145   14450  	oct	154145155145
    034133  aa   156164 141162   14451  	oct	156164141162
    034134  aa   171040 151144   14452  	oct	171040151144
    034135  aa   145156 164151   14453  	oct	145156164151
    034136  aa   146151 145162   14454  	oct	146151145162
    034137  aa   040167 151164   14455  	oct	040167151164
    034140  aa   150040 104111   14456  	oct	150040104111
    034141  aa   123120 114101   14457  	oct	123120114101
    034142  aa   131040 165163   14458  	oct	131040165163
    034143  aa   141147 145040   14459  	oct	141147145040
    034144  aa   111164 145155   14460  	oct	111164145155
    034145  aa   040151 163040   14461  	oct	040151163040
    034146  aa   156157 164040   14462  	oct	156157164040
    034147  aa   141156 040145   14463  	oct	141156040145
    034150  aa   154145 155145   14464  	oct	154145155145
    034151  aa   156164 141162   14465  	oct	156164141162
    034152  aa   171040 156165   14466  	oct	171040156165
    034153  aa   155145 162151   14467  	oct	155145162151
    034154  aa   143040 151156   14468  	oct	143040151156
    034155  aa   164145 147145   14469  	oct	164145147145
    034156  aa   162040 144141   14470  	oct	162040144141
    034157  aa   164141 040151   14471  	oct	164141040151
    034160  aa   164145 155040   14472  	oct	164145155040
    034161  aa   111164 145155   14473  	oct	111164145155
    034162  aa   040151 163040   14474  	oct	040151163040
    034163  aa   156157 164040   14475  	oct	156157164040
    034164  aa   141156 040151   14476  	oct	141156040151
    034165  aa   144145 156164   14477  	oct	144145156164
    034166  aa   151146 151145   14478  	oct	151146151145
    034167  aa   162040 157162   14479  	oct	162040157162
    034170  aa   040156 165155   14480  	oct	040156165155
    034171  aa   145162 151143   14481  	oct	145162151143
    034172  aa   040154 151164   14482  	oct	040154151164
    034173  aa   145162 141154   14483  	oct	145162141154
    034174  aa   040111 164145   14484  	oct	040111164145
    034175  aa   155040 151163   14485  	oct	155040151163
    034176  aa   040156 157164   14486  	oct	040156157164
    034177  aa   040141 156040   14487  	oct	040141156040
    034200  aa   151144 145156   14488  	oct	151144145156
    034201  aa   164151 146151   14489  	oct	164151146151
    034202  aa   145162 054040   14490  	oct	145162054040
    034203  aa   156165 155145   14491  	oct	156165155145
    034204  aa   162151 143040   14492  	oct	162151143040
    034205  aa   154151 164145   14493  	oct	154151164145
    034206  aa   162141 154054   14494  	oct	162141154054
    034207  aa   040157 162040   14495  	oct	040157162040
    034210  aa   164150 145040   14496  	oct	164150145040
    034211  aa   167157 162144   14497  	oct	167157162144
    034212  aa   040106 122117   14498  	oct	040106122117
    034213  aa   115040 111164   14499  	oct	115040111164
    034214  aa   145155 040151   14500  	oct	145155040151
    034215  aa   163040 156157   14501  	oct	163040156157
    034216  aa   164040 141040   14502  	oct	164040141040
    034217  aa   146151 154145   14503  	oct	146151154145
    034220  aa   055156 141155   14504  	oct	055156141155
    034221  aa   145040 157162   14505  	oct	145040157162
    034222  aa   040162 145160   14506  	oct	040162145160
    034223  aa   157162 164055   14507  	oct	157162164055
    034224  aa   156141 155145   14508  	oct	156141155145
    034225  aa   040111 164145   14509  	oct	040111164145
    034226  aa   155040 151163   14510  	oct	155040151163
    034227  aa   040156 157164   14511  	oct	040156157164
    034230  aa   040141 154160   14512  	oct	040141154160
    034231  aa   150141 156165   14513  	oct	150141156165
    034232  aa   155145 162151   14514  	oct	155145162151
    034233  aa   143040 111164   14515  	oct	143040111164
    034234  aa   145155 040151   14516  	oct	145155040151
    034235  aa   163040 156157   14517  	oct	163040156157
    034236  aa   164040 164150   14518  	oct	164040164150
    034237  aa   145040 167157   14519  	oct	145040167157
    034240  aa   162144 040111   14520  	oct	162144040111
    034241  aa   116124 117040   14521  	oct	116124117040
    034242  aa   157162 040104   14522  	oct	157162040104
    034243  aa   105114 111115   14523  	oct	105114111115
    034244  aa   111124 105104   14524  	oct	111124105104
    034245  aa   040111 164145   14525  	oct	040111164145
    034246  aa   155040 155165   14526  	oct	155040155165
    034247  aa   163164 040156   14527  	oct	163164040156
    034250  aa   157164 040142   14528  	oct	157164040142
    034251  aa   145040 165163   14529  	oct	145040165163
    034252  aa   145144 040167   14530  	oct	145144040167
    034253  aa   151164 150157   14531  	oct	151164150157
    034254  aa   165164 040104   14532  	oct	165164040104
    034255  aa   105114 111115   14533  	oct	105114111115
    034256  aa   111124 105104   14534  	oct	111124105104
    034257  aa   040111 164145   14535  	oct	040111164145
    034260  aa   155040 151163   14536  	oct	155040151163
    034261  aa   040156 157164   14537  	oct	040156157164
    034262  aa   040141 040162   14538  	oct	040141040162
    034263  aa   145143 157162   14539  	oct	145143157162
    034264  aa   144040 156141   14540  	oct	144040156141
    034265  aa   155145 040151   14541  	oct	155145040151
    034266  aa   156040 156157   14542  	oct	156040156157
    034267  aa   156055 163157   14543  	oct	156055163157
    034270  aa   162164 040146   14544  	oct	162164040146
    034271  aa   151154 145040   14545  	oct	151154145040
    034272  aa   111164 145155   14546  	oct	111164145155
    034273  aa   040151 163040   14547  	oct	040151163040
    034274  aa   156157 164040   14548  	oct	156157164040
    034275  aa   141156 040151   14549  	oct	141156040151
    034276  aa   144145 156164   14550  	oct	144145156164
    034277  aa   151146 151145   14551  	oct	151146151145
    034300  aa   162054 040151   14552  	oct	162054040151
    034301  aa   156164 145147   14553  	oct	156164145147
    034302  aa   145162 054040   14554  	oct	145162054040
    034303  aa   157162 040155   14555  	oct	157162040155
    034304  aa   156145 155157   14556  	oct	156145155157
    034305  aa   156151 143055   14557  	oct	156151143055
    034306  aa   156141 155145   14558  	oct	156141155145
    034307  aa   040124 150145   14559  	oct	040124150145
    034310  aa   040114 111116   14560  	oct	040114111116
    034311  aa   101107 105040   14561  	oct	101107105040
    034312  aa   143154 141165   14562  	oct	143154141165
    034313  aa   163145 040151   14563  	oct	163145040151
    034314  aa   163040 155151   14564  	oct	163040155151
    034315  aa   163163 151156   14565  	oct	163163151156
    034316  aa   147040 151156   14566  	oct	147040151156
    034317  aa   040164 150145   14567  	oct	040164150145
    034320  aa   040141 163163   14568  	oct	040141163163
    034321  aa   157143 151141   14569  	oct	157143151141
    034322  aa   164145 144040   14570  	oct	164145144040
    034323  aa   146151 154145   14571  	oct	146151154145
    034324  aa   040111 116126   14572  	oct	040111116126
    034325  aa   101114 111104   14573  	oct	101114111104
    034326  aa   040113 105131   14574  	oct	040113105131
    034327  aa   040157 160164   14575  	oct	040157160164
    034330  aa   151157 156040   14576  	oct	151157156040
    034331  aa   145170 160145   14577  	oct	145170160145
    034332  aa   143164 145144   14578  	oct	143164145144
    034333  aa   040114 145146   14579  	oct	040114145146
    034334  aa   164040 160141   14580  	oct	164040160141
    034335  aa   162145 156164   14581  	oct	162145156164
    034336  aa   150145 163151   14582  	oct	150145163151
    034337  aa   163040 145170   14583  	oct	163040145170
    034340  aa   160145 143164   14584  	oct	160145143164
    034341  aa   145144 040150   14585  	oct	145144040150
    034342  aa   145162 145040   14586  	oct	145162145040
    034343  aa   122151 147150   14587  	oct	122151147150
    034344  aa   164040 160141   14588  	oct	164040160141
    034345  aa   162145 156164   14589  	oct	162145156164
    034346  aa   150145 163151   14590  	oct	150145163151
    034347  aa   163040 145170   14591  	oct	163040145170
    034350  aa   160145 143164   14592  	oct	160145143164
    034351  aa   145144 040150   14593  	oct	145144040150
    034352  aa   145162 145040   14594  	oct	145162145040
    034353  aa   111164 145155   14595  	oct	111164145155
    034354  aa   040151 163040   14596  	oct	040151163040
    034355  aa   156157 164040   14597  	oct	156157164040
    034356  aa   141040 166141   14598  	oct	141040166141
    034357  aa   154151 144040   14599  	oct	154151144040
    034360  aa   163165 142163   14600  	oct	163165142163
    034361  aa   143162 151160   14601  	oct	143162151160
    034362  aa   164040 111164   14602  	oct	164040111164
    034363  aa   145155 040163   14603  	oct	145155040163
    034364  aa   150157 165154   14604  	oct	150157165154
    034365  aa   144040 142145   14605  	oct	144040142145
    034366  aa   040151 156144   14606  	oct	040151156144
    034367  aa   145170 055156   14607  	oct	145170055156
    034370  aa   141155 145040   14608  	oct	141155145040
    034371  aa   111164 145155   14609  	oct	111164145155
    034372  aa   040151 163040   14610  	oct	040151163040
    034373  aa   156157 164040   14611  	oct	156157164040
    034374  aa   141156 040151   14612  	oct	141156040151
    034375  aa   156144 145170   14613  	oct	156144145170
    034376  aa   055156 141155   14614  	oct	055156141155
    034377  aa   145040 157162   14615  	oct	145040157162
    034400  aa   040156 157164   14616  	oct	040156157164
    034401  aa   040143 157162   14617  	oct	040143157162
    034402  aa   162145 143164   14618  	oct	162145143164
    034403  aa   040151 156144   14619  	oct	040151156144
    034404  aa   145170 055156   14620  	oct	145170055156
    034405  aa   141155 145040   14621  	oct	141155145040
    034406  aa   111164 145155   14622  	oct	111164145155
    034407  aa   040151 163040   14623  	oct	040151163040
    034410  aa   156157 164040   14624  	oct	156157164040
    034411  aa   141156 040165   14625  	oct	141156040165
    034412  aa   156163 151147   14626  	oct	156163151147
    034413  aa   156145 144040   14627  	oct	156145144040
    034414  aa   151156 164145   14628  	oct	151156164145
    034415  aa   147145 162040   14629  	oct	147145162040
    034416  aa   104141 164141   14630  	oct	104141164141
    034417  aa   055156 141155   14631  	oct	055156141155
    034420  aa   145040 163165   14632  	oct	145040163165
    034421  aa   142163 143162   14633  	oct	142163143162
    034422  aa   151160 164040   14634  	oct	151160164040
    034423  aa   163150 157165   14635  	oct	163150157165
    034424  aa   154144 040156   14636  	oct	154144040156
    034425  aa   157164 040142   14637  	oct	157164040142
    034426  aa   145040 155157   14638  	oct	145040155157
    034427  aa   144151 146151   14639  	oct	144151146151
    034430  aa   145144 040105   14640  	oct	145144040105
    034431  aa   170160 145143   14641  	oct	170160145143
    034432  aa   164145 144040   14642  	oct	164145144040
    034433  aa   167157 162144   14643  	oct	167157162144
    034434  aa   040151 163040   14644  	oct	040151163040
    034435  aa   101114 114054   14645  	oct	101114114054
    034436  aa   040114 105101   14646  	oct	040114105101
    034437  aa   104111 116107   14647  	oct	104111116107
    034440  aa   040157 162040   14648  	oct	040157162040
    034441  aa   125116 124111   14649  	oct	125116124111
    034442  aa   114040 111164   14650  	oct	114040111164
    034443  aa   145155 040151   14651  	oct	145155040151
    034444  aa   163040 156157   14652  	oct	163040156157
    034445  aa   164040 141040   14653  	oct	164040141040
    034446  aa   157156 145040   14654  	oct	157156145040
    034447  aa   143150 141162   14655  	oct	143150141162
    034450  aa   141143 164145   14656  	oct	141143164145
    034451  aa   162040 154151   14657  	oct	162040154151
    034452  aa   164145 162141   14658  	oct	164145162141
    034453  aa   154040 157162   14659  	oct	154040157162
    034454  aa   040141 156040   14660  	oct	040141156040
    034455  aa   151144 145156   14661  	oct	151144145156
    034456  aa   164151 146151   14662  	oct	164151146151
    034457  aa   145162 040167   14663  	oct	145162040167
    034460  aa   151164 150040   14664  	oct	151164150040
    034461  aa   104111 123120   14665  	oct	104111123120
    034462  aa   114101 131040   14666  	oct	114101131040
    034463  aa   165163 141147   14667  	oct	165163141147
    034464  aa   145040 141156   14668  	oct	145040141156
    034465  aa   144040 143157   14669  	oct	144040143157
    034466  aa   156163 151163   14670  	oct	156163151163
    034467  aa   164145 156164   14671  	oct	164145156164
    034470  aa   040143 154141   14672  	oct	040143154141
    034471  aa   163163 040105   14673  	oct	163163040105
    034472  aa   170160 145143   14674  	oct	170160145143
    034473  aa   164145 144040   14675  	oct	164145144040
    034474  aa   167157 162144   14676  	oct	167157162144
    034475  aa   040151 163040   14677  	oct	040151163040
    034476  aa   101114 114054   14678  	oct	101114114054
    034477  aa   040114 105101   14679  	oct	040114105101
    034500  aa   104111 116107   14680  	oct	104111116107
    034501  aa   054040 125116   14681  	oct	054040125116
    034502  aa   124111 114040   14682  	oct	124111114040
    034503  aa   157162 040106   14683  	oct	157162040106
    034504  aa   111122 123124   14684  	oct	111122123124
    034505  aa   040105 170160   14685  	oct	040105170160
    034506  aa   145143 164145   14686  	oct	145143164145
    034507  aa   144040 167157   14687  	oct	144040167157
    034510  aa   162144 040151   14688  	oct	162144040151
    034511  aa   163040 106111   14689  	oct	163040106111
    034512  aa   122123 124040   14690  	oct	122123124040
    034513  aa   111164 145155   14691  	oct	111164145155
    034514  aa   040151 163040   14692  	oct	040151163040
    034515  aa   156157 164040   14693  	oct	156157164040
    034516  aa   145154 145155   14694  	oct	145154145155
    034517  aa   145156 164141   14695  	oct	145156164141
    034520  aa   162171 040157   14696  	oct	162171040157
    034521  aa   162040 162145   14697  	oct	162040162145
    034522  aa   144145 146151   14698  	oct	144145146151
    034523  aa   156145 144040   14699  	oct	156145144040
    034524  aa   105170 160145   14700  	oct	105170160145
    034525  aa   143164 145144   14701  	oct	143164145144
    034526  aa   040167 157162   14702  	oct	040167157162
    034527  aa   144040 151163   14703  	oct	144040151163
    034530  aa   040124 110122   14704  	oct	040124110122
    034531  aa   117125 107110   14705  	oct	117125107110
    034532  aa   040157 162040   14706  	oct	040157162040
    034533  aa   124110 122125   14707  	oct	124110122125
    034534  aa   040124 150151   14708  	oct	040124150151
    034535  aa   163040 160157   14709  	oct	163040160157
    034536  aa   151156 164040   14710  	oct	151156164040
    034537  aa   143141 156040   14711  	oct	143141156040
    034540  aa   156145 166145   14712  	oct	156145166145
    034541  aa   162040 142145   14713  	oct	162040142145
    034542  aa   040162 145141   14714  	oct	040162145141
    034543  aa   143150 145144   14715  	oct	143150145144
    034544  aa   040144 165162   14716  	oct	040144165162
    034545  aa   151156 147040   14717  	oct	151156147040
    034546  aa   145170 145143   14718  	oct	145170145143
    034547  aa   165164 151157   14719  	oct	165164151157
    034550  aa   156040 124150   14720  	oct	156040124150
    034551  aa   151163 040163   14721  	oct	151163040163
    034552  aa   164141 164145   14722  	oct	164141164145
    034553  aa   155145 156164   14723  	oct	155145156164
    034554  aa   040143 141156   14724  	oct	040143141156
    034555  aa   040156 145166   14725  	oct	040156145166
    034556  aa   145162 040142   14726  	oct	145162040142
    034557  aa   145040 162145   14727  	oct	145040162145
    034560  aa   141143 150145   14728  	oct	141143150145
    034561  aa   144040 144165   14729  	oct	144040144165
    034562  aa   162151 156147   14730  	oct	162151156147
    034563  aa   040145 170145   14731  	oct	040145170145
    034564  aa   143165 164151   14732  	oct	143165164151
    034565  aa   157156 040144   14733  	oct	157156040144
    034566  aa   165145 040164   14734  	oct	165145040164
    034567  aa   157040 141040   14735  	oct	157040141040
    034570  aa   160162 145143   14736  	oct	160162145143
    034571  aa   145144 151156   14737  	oct	145144151156
    034572  aa   147040 165156   14738  	oct	147040165156
    034573  aa   143157 156144   14739  	oct	143157156144
    034574  aa   151164 151157   14740  	oct	151164151157
    034575  aa   156141 154040   14741  	oct	156141154040
    034576  aa   164162 141156   14742  	oct	164162141156
    034577  aa   163146 145162   14743  	oct	163146145162
    034600  aa   040111 164145   14744  	oct	040111164145
    034601  aa   155040 151163   14745  	oct	155040151163
    034602  aa   040156 157164   14746  	oct	040156157164
    034603  aa   040164 150145   14747  	oct	040164150145
    034604  aa   040167 157162   14748  	oct	040167157162
    034605  aa   144040 122125   14749  	oct	144040122125
    034606  aa   116040 157162   14750  	oct	116040157162
    034607  aa   040141 040154   14751  	oct	040141040154
    034610  aa   151164 145162   14752  	oct	151164145162
    034611  aa   141154 040111   14753  	oct	141154040111
    034612  aa   164145 155040   14754  	oct	164145155040
    034613  aa   151163 040156   14755  	oct	151163040156
    034614  aa   157164 040141   14756  	oct	157164040141
    034615  aa   156040 151155   14757  	oct	156040151155
    034616  aa   160145 162141   14758  	oct	160145162141
    034617  aa   164151 166145   14759  	oct	164151166145
    034620  aa   040166 145162   14760  	oct	040166145162
    034621  aa   142040 105170   14761  	oct	142040105170
    034622  aa   160145 143164   14762  	oct	160145143164
    034623  aa   145144 040167   14763  	oct	145144040167
    034624  aa   157162 144040   14764  	oct	157162144040
    034625  aa   151163 040123   14765  	oct	151163040123
    034626  aa   105103 124111   14766  	oct	105103124111
    034627  aa   117116 040050   14767  	oct	117116040050
    034630  aa   143157 155160   14768  	oct	143157155160
    034631  aa   151154 145162   14769  	oct	151154145162
    034632  aa   040145 162162   14770  	oct	040145162162
    034633  aa   157162 051040   14771  	oct	157162051040
    034634  aa   120141 162141   14772  	oct	120141162141
    034635  aa   147162 141160   14773  	oct	147162141160
    034636  aa   150055 156141   14774  	oct	150055156141
    034637  aa   155145 040144   14775  	oct	155145040144
    034640  aa   145146 151156   14776  	oct	145146151156
    034641  aa   151164 151157   14777  	oct	151164151157
    034642  aa   156040 155151   14778  	oct	156040155151
    034643  aa   163163 151156   14779  	oct	163163151156
    034644  aa   147040 120162   14780  	oct	147040120162
    034645  aa   157143 145144   14781  	oct	157143145144
    034646  aa   165162 145040   14782  	oct	165162145040
    034647  aa   144145 146151   14783  	oct	144145146151
    034650  aa   156151 164151   14784  	oct	156151164151
    034651  aa   157156 040155   14785  	oct	157156040155
    034652  aa   151163 163151   14786  	oct	151163163151
    034653  aa   156147 040115   14787  	oct	156147040115
    034654  aa   151163 163151   14788  	oct	151163163151
    034655  aa   156147 040163   14789  	oct	156147040163
    034656  aa   145143 164151   14790  	oct	145143164151
    034657  aa   157156 040150   14791  	oct	157156040150
    034660  aa   145141 144145   14792  	oct	145141144145
    034661  aa   162040 141164   14793  	oct	162040141164
    034662  aa   040142 145147   14794  	oct	040142145147
    034663  aa   151156 156151   14795  	oct	151156156151
    034664  aa   156147 040157   14796  	oct	156147040157
    034665  aa   146040 120162   14797  	oct	146040120162
    034666  aa   157143 145144   14798  	oct	157143145144
    034667  aa   165162 145040   14799  	oct	165162145040
    034670  aa   104151 166151   14800  	oct	104151166151
    034671  aa   163151 157156   14801  	oct	163151157156
    034672  aa   040101 040166   14802  	oct	040101040166
    034673  aa   145162 142040   14803  	oct	145162142040
    034674  aa   151163 040162   14804  	oct	151163040162
    034675  aa   145161 165151   14805  	oct	145161165151
    034676  aa   162145 144040   14806  	oct	162145144040
    034677  aa   150145 162145   14807  	oct	150145162145
    034700  aa   040123 145156   14808  	oct	040123145156
    034701  aa   164145 156143   14809  	oct	164145156143
    034702  aa   145040 155165   14810  	oct	145040155165
    034703  aa   163164 040142   14811  	oct	163164040142
    034704  aa   145040 151155   14812  	oct	145040151155
    034705  aa   160145 162141   14813  	oct	160145162141
    034706  aa   164151 166145   14814  	oct	164151166145
    034707  aa   054040 164150   14815  	oct	054040164150
    034710  aa   151163 040151   14816  	oct	151163040151
    034711  aa   164145 155040   14817  	oct	164145155040
    034712  aa   155141 153145   14818  	oct	155141153145
    034713  aa   163040 151164   14819  	oct	163040151164
    034714  aa   040143 157156   14820  	oct	040143157156
    034715  aa   144151 164151   14821  	oct	144151164151
    034716  aa   157156 141154   14822  	oct	157156141154
    034717  aa   040105 170160   14823  	oct	040105170160
    034720  aa   145143 164145   14824  	oct	145143164145
    034721  aa   144040 167157   14825  	oct	144040167157
    034722  aa   162144 040151   14826  	oct	162144040151
    034723  aa   163040 117126   14827  	oct	163040117126
    034724  aa   105122 106114   14828  	oct	105122106114
    034725  aa   117127 040101   14829  	oct	117127040101
    034726  aa   040156 165155   14830  	oct	040156165155
    034727  aa   145162 151143   14831  	oct	145162151143
    034730  aa   055145 144151   14832  	oct	055145144151
    034731  aa   164145 144040   14833  	oct	164145144040
    034732  aa   163145 156144   14834  	oct	163145156144
    034733  aa   151156 147040   14835  	oct	151156147040
    034734  aa   146151 145154   14836  	oct	146151145154
    034735  aa   144040 151163   14837  	oct	144040151163
    034736  aa   040156 157164   14838  	oct	040156157164
    034737  aa   040141 154154   14839  	oct	040141154154
    034740  aa   157167 145144   14840  	oct	157167145144
    034741  aa   040167 151164   14841  	oct	040167151164
    034742  aa   150040 141156   14842  	oct	150040141156
    034743  aa   040141 154160   14843  	oct	040141154160
    034744  aa   150141 142145   14844  	oct	150141142145
    034745  aa   164151 143040   14845  	oct	164151143040
    034746  aa   162145 143145   14846  	oct	162145143145
    034747  aa   151166 151156   14847  	oct	151166151156
    034750  aa   147040 146151   14848  	oct	147040146151
    034751  aa   145154 144040   14849  	oct	145154144040
    034752  aa   116117 040104   14850  	oct	116117040104
    034753  aa   101124 101040   14851  	oct	101124101040
    034754  aa   117120 124111   14852  	oct	117120124111
    034755  aa   117116 040145   14853  	oct	117116040145
    034756  aa   170160 145143   14854  	oct	170160145143
    034757  aa   164145 144040   14855  	oct	164145144040
    034760  aa   105170 160145   14856  	oct	105170160145
    034761  aa   143164 145144   14857  	oct	143164145144
    034762  aa   040167 157162   14858  	oct	040167157162
    034763  aa   144040 151163   14859  	oct	144040151163
    034764  aa   040113 105131   14860  	oct	040113105131
    034765  aa   040101 124040   14861  	oct	040101124040
    034766  aa   105116 104040   14862  	oct	105116104040
    034767  aa   157160 164151   14863  	oct	157160164151
    034770  aa   157156 040145   14864  	oct	157156040145
    034771  aa   170160 145143   14865  	oct	170160145143
    034772  aa   164145 144040   14866  	oct	164145144040
    034773  aa   124150 145040   14867  	oct	124150145040
    034774  aa   104145 142165   14868  	oct	104145142165
    034775  aa   147040 123145   14869  	oct	147040123145
    034776  aa   143164 151157   14870  	oct	143164151157
    034777  aa   156040 155165   14871  	oct	156040155165
    035000  aa   163164 040151   14872  	oct	163164040151
    035001  aa   155155 145144   14873  	oct	155155145144
    035002  aa   151141 164145   14874  	oct	151141164145
    035003  aa   154171 040146   14875  	oct	154171040146
    035004  aa   157154 154157   14876  	oct	157154154157
    035005  aa   167040 164150   14877  	oct	167040164150
    035006  aa   145040 144145   14878  	oct	145040144145
    035007  aa   143154 141162   14879  	oct	143154141162
    035010  aa   141164 151166   14880  	oct	141164151166
    035011  aa   145163 040111   14881  	oct	145163040111
    035012  aa   164145 155040   14882  	oct	164145155040
    035013  aa   151163 040156   14883  	oct	151163040156
    035014  aa   157164 040141   14884  	oct	157164040141
    035015  aa   040143 144055   14885  	oct	040143144055
    035016  aa   156141 155145   14886  	oct	156141155145
    035017  aa   054040 151144   14887  	oct	054040151144
    035020  aa   145156 164151   14888  	oct	145156164151
    035021  aa   146151 145162   14889  	oct	146151145162
    035022  aa   054040 160162   14890  	oct	054040160162
    035023  aa   157143 145144   14891  	oct	157143145144
    035024  aa   165162 145055   14892  	oct	165162145055
    035025  aa   156141 155145   14893  	oct	156141155145
    035026  aa   054040 146151   14894  	oct	054040146151
    035027  aa   154145 055156   14895  	oct	154145055156
    035030  aa   141155 145040   14896  	oct	141155145040
    035031  aa   157162 040164   14897  	oct	157162040164
    035032  aa   150145 040167   14898  	oct	150145040167
    035033  aa   157162 144040   14899  	oct	157162144040
    035034  aa   101114 114040   14900  	oct	101114114040
    035035  aa   120157 163163   14901  	oct	120157163163
    035036  aa   151142 154145   14902  	oct	151142154145
    035037  aa   040162 151147   14903  	oct	040162151147
    035040  aa   150164 040164   14904  	oct	150164040164
    035041  aa   162165 156143   14905  	oct	162165156143
    035042  aa   141164 151157   14906  	oct	141164151157
    035043  aa   156040 157156   14907  	oct	156040157156
    035044  aa   040160 162145   14908  	oct	040160162145
    035045  aa   143145 144151   14909  	oct	143145144151
    035046  aa   156147 040156   14910  	oct	156147040156
    035047  aa   141155 145054   14911  	oct	141155145054
    035050  aa   040146 151154   14912  	oct	040146151154
    035051  aa   145055 156141   14913  	oct	145055156141
    035052  aa   155145 054040   14914  	oct	155145054040
    035053  aa   157162 040101   14915  	oct	157162040101
    035054  aa   114114 040117   14916  	oct	114114040117
    035055  aa   116040 123111   14917  	oct	116040123111
    035056  aa   132105 040105   14918  	oct	132105040105
    035057  aa   122122 117122   14919  	oct	122122117122
    035060  aa   040157 160164   14920  	oct	040157160164
    035061  aa   151157 156040   14921  	oct	151157156040
    035062  aa   145170 160145   14922  	oct	145170160145
    035063  aa   143164 145144   14923  	oct	143164145144
    035064  aa   040105 170160   14924  	oct	040105170160
    035065  aa   145143 164145   14925  	oct	145143164145
    035066  aa   144040 167157   14926  	oct	144040167157
    035067  aa   162144 040151   14927  	oct	162144040151
    035070  aa   163040 116117   14928  	oct	163040116117
    035071  aa   040157 162040   14929  	oct	040157162040
    035072  aa   114117 103113   14930  	oct	114117103113
    035073  aa   040101 040143   14931  	oct	040101040143
    035074  aa   157156 144151   14932  	oct	157156144151
    035075  aa   164151 157156   14933  	oct	164151157156
    035076  aa   141154 040163   14934  	oct	141154040163
    035077  aa   164141 164145   14935  	oct	164141164145
    035100  aa   155145 156164   14936  	oct	155145156164
    035101  aa   040155 141171   14937  	oct	040155141171
    035102  aa   040156 157164   14938  	oct	040156157164
    035103  aa   040157 143143   14939  	oct	040157143143
    035104  aa   165162 040150   14940  	oct	165162040150
    035105  aa   145162 145040   14941  	oct	145162145040
    035106  aa   124150 151163   14942  	oct	124150151163
    035107  aa   040166 145162   14943  	oct	040166145162
    035110  aa   142040 155165   14944  	oct	142040155165
    035111  aa   163164 040142   14945  	oct	163164040142
    035112  aa   145040 160162   14946  	oct	145040160162
    035113  aa   145143 145144   14947  	oct	145143145144
    035114  aa   145144 040142   14948  	oct	145144040142
    035115  aa   171040 160162   14949  	oct	171040160162
    035116  aa   157143 145144   14950  	oct	157143145144
    035117  aa   165162 145040   14951  	oct	165162145040
    035120  aa   144145 146151   14952  	oct	144145146151
    035121  aa   156151 164151   14953  	oct	156151164151
    035122  aa   157156 056040   14954  	oct	157156056040
    035123  aa   117166 145162   14955  	oct	117166145162
    035124  aa   154141 160160   14956  	oct	154141160160
    035125  aa   151156 147040   14957  	oct	151156147040
    035126  aa   155141 171040   14958  	oct	155141171040
    035127  aa   157143 143165   14959  	oct	157143143165
    035130  aa   162040 142145   14960  	oct	162040142145
    035131  aa   164167 145145   14961  	oct	164167145145
    035132  aa   156040 164150   14962  	oct	156040164150
    035133  aa   151163 040162   14963  	oct	151163040162
    035134  aa   145143 145151   14964  	oct	145143145151
    035135  aa   166151 156147   14965  	oct	166151156147
    035136  aa   040151 164145   14966  	oct	040151164145
    035137  aa   155040 141156   14967  	oct	155040141156
    035140  aa   144040 164150   14968  	oct	144040164150
    035141  aa   145040 163145   14969  	oct	145040163145
    035142  aa   156144 151156   14970  	oct	156144151156
    035143  aa   147040 151164   14971  	oct	147040151164
    035144  aa   145155 040101   14972  	oct	145155040101
    035145  aa   163163 151147   14973  	oct	163163151147
    035146  aa   156155 145156   14974  	oct	156155145156
    035147  aa   164040 164157   14975  	oct	164040164157
    035150  aa   040164 150151   14976  	oct	040164150151
    035151  aa   163040 151144   14977  	oct	163040151144
    035152  aa   145156 164151   14978  	oct	145156164151
    035153  aa   146151 145162   14979  	oct	146151145162
    035154  aa   040162 145163   14980  	oct	040162145163
    035155  aa   165154 164163   14981  	oct	165154164163
    035156  aa   040151 156040   14982  	oct	040151156040
    035157  aa   162151 147150   14983  	oct	162151147150
    035160  aa   164040 164162   14984  	oct	164040164162
    035161  aa   165156 143141   14985  	oct	165156143141
    035162  aa   164151 157156   14986  	oct	164151157156
    035163  aa   040101 040156   14987  	oct	040101040156
    035164  aa   165155 145162   14988  	oct	165155145162
    035165  aa   151143 040156   14989  	oct	151143040156
    035166  aa   157156 055151   14990  	oct	157156055151
    035167  aa   156164 145147   14991  	oct	156164145147
    035170  aa   145162 040163   14992  	oct	145162040163
    035171  aa   145156 144151   14993  	oct	145156144151
    035172  aa   156147 040146   14994  	oct	156147040146
    035173  aa   151145 154144   14995  	oct	151145154144
    035174  aa   040151 163040   14996  	oct	040151163040
    035175  aa   156157 164040   14997  	oct	156157164040
    035176  aa   141154 154157   14998  	oct	141154154157
    035177  aa   167145 144040   14999  	oct	167145144040
    035200  aa   167151 164150   15000  	oct	167151164150
    035201  aa   040141 156040   15001  	oct	040141156040
    035202  aa   141154 160150   15002  	oct	141154160150
    035203  aa   141156 165155   15003  	oct	141156165155
    035204  aa   145162 151143   15004  	oct	145162151143
    035205  aa   040162 145143   15005  	oct	040162145143
    035206  aa   145151 166151   15006  	oct	145151166151
    035207  aa   156147 040146   15007  	oct	156147040146
    035210  aa   151145 154144   15008  	oct	151145154144
    035211  aa   040101 163163   15009  	oct	040101163163
    035212  aa   151147 156155   15010  	oct	151147156155
    035213  aa   145156 164040   15011  	oct	145156164040
    035214  aa   164157 040164   15012  	oct	164157040164
    035215  aa   150151 163040   15013  	oct	150151163040
    035216  aa   151144 145156   15014  	oct	151144145156
    035217  aa   164151 146151   15015  	oct	164151146151
    035220  aa   145162 040162   15016  	oct	145162040162
    035221  aa   145163 165154   15017  	oct	145163165154
    035222  aa   164163 040151   15018  	oct	164163040151
    035223  aa   156040 154157   15019  	oct	156040154157
    035224  aa   163163 040157   15020  	oct	163163040157
    035225  aa   146040 163151   15021  	oct	146040163151
    035226  aa   147156 040101   15022  	oct	147156040101
    035227  aa   040156 165155   15023  	oct	040156165155
    035230  aa   145162 151143   15024  	oct	145162151143
    035231  aa   040163 145156   15025  	oct	040163145156
    035232  aa   144151 156147   15026  	oct	144151156147
    035233  aa   040146 151145   15027  	oct	040146151145
    035234  aa   154144 040151   15028  	oct	154144040151
    035235  aa   163040 156157   15029  	oct	163040156157
    035236  aa   164040 141154   15030  	oct	164040141154
    035237  aa   154157 167145   15031  	oct	154157167145
    035240  aa   144040 167151   15032  	oct	144040167151
    035241  aa   164150 040141   15033  	oct	164150040141
    035242  aa   156040 141154   15034  	oct	156040141154
    035243  aa   160150 141142   15035  	oct	160150141142
    035244  aa   145164 151143   15036  	oct	145164151143
    035245  aa   040162 145143   15037  	oct	040162145143
    035246  aa   145151 166151   15038  	oct	145151166151
    035247  aa   156147 040146   15039  	oct	156147040146
    035250  aa   151145 154144   15040  	oct	151145154144
    035251  aa   040101 156040   15041  	oct	040101156040
    035252  aa   141154 160150   15042  	oct	141154160150
    035253  aa   141142 145164   15043  	oct	141142145164
    035254  aa   151143 040163   15044  	oct	151143040163
    035255  aa   145156 144151   15045  	oct	145156144151
    035256  aa   156147 040146   15046  	oct	156147040146
    035257  aa   151145 154144   15047  	oct	151145154144
    035260  aa   040151 163040   15048  	oct	040151163040
    035261  aa   156157 164040   15049  	oct	156157164040
    035262  aa   141154 154157   15050  	oct	141154154157
    035263  aa   167145 144040   15051  	oct	167145144040
    035264  aa   167151 164150   15052  	oct	167151164150
    035265  aa   040141 040156   15053  	oct	040141040156
    035266  aa   165155 145162   15054  	oct	165155145162
    035267  aa   151143 040162   15055  	oct	151143040162
    035270  aa   145143 145151   15056  	oct	145143145151
    035271  aa   166151 156147   15057  	oct	166151156147
    035272  aa   040146 151145   15058  	oct	040146151145
    035273  aa   154144 040101   15059  	oct	154144040101
    035274  aa   156040 141154   15060  	oct	156040141154
    035275  aa   160150 141156   15061  	oct	160150141156
    035276  aa   165155 145162   15062  	oct	165155145162
    035277  aa   151143 040145   15063  	oct	151143040145
    035300  aa   144151 164145   15064  	oct	144151164145
    035301  aa   144040 163145   15065  	oct	144040163145
    035302  aa   156144 151156   15066  	oct	156144151156
    035303  aa   147040 146151   15067  	oct	147040146151
    035304  aa   145154 144040   15068  	oct	145154144040
    035305  aa   151163 040156   15069  	oct	151163040156
    035306  aa   157164 040141   15070  	oct	157164040141
    035307  aa   154154 157167   15071  	oct	154154157167
    035310  aa   145144 040167   15072  	oct	145144040167
    035311  aa   151164 150040   15073  	oct	151164150040
    035312  aa   141040 156165   15074  	oct	141040156165
    035313  aa   155145 162151   15075  	oct	155145162151
    035314  aa   143040 162145   15076  	oct	143040162145
    035315  aa   143145 151166   15077  	oct	143145151166
    035316  aa   151156 147040   15078  	oct	151156147040
    035317  aa   146151 145154   15079  	oct	146151145154
    035320  aa   144040 101040   15080  	oct	144040101040
    035321  aa   156165 155145   15081  	oct	156165155145
    035322  aa   162151 143040   15082  	oct	162151143040
    035323  aa   145144 151164   15083  	oct	145144151164
    035324  aa   145144 040163   15084  	oct	145144040163
    035325  aa   145156 144151   15085  	oct	145156144151
    035326  aa   156147 040146   15086  	oct	156147040146
    035327  aa   151145 154144   15087  	oct	151145154144
    035330  aa   040151 163040   15088  	oct	040151163040
    035331  aa   156157 164040   15089  	oct	156157164040
    035332  aa   141154 154157   15090  	oct	141154154157
    035333  aa   167145 144040   15091  	oct	167145144040
    035334  aa   167151 164150   15092  	oct	167151164150
    035335  aa   040141 040156   15093  	oct	040141040156
    035336  aa   165155 145162   15094  	oct	165155145162
    035337  aa   151143 040162   15095  	oct	151143040162
    035340  aa   145143 145151   15096  	oct	145143145151
    035341  aa   166151 156147   15097  	oct	166151156147
    035342  aa   040146 151145   15098  	oct	040146151145
    035343  aa   154144 040120   15099  	oct	154144040120
    035344  aa   157163 163151   15100  	oct	157163163151
    035345  aa   142154 145040   15101  	oct	142154145040
    035346  aa   162151 147150   15102  	oct	162151147150
    035347  aa   164040 164162   15103  	oct	164040164162
    035350  aa   165156 143141   15104  	oct	165156143141
    035351  aa   164151 157156   15105  	oct	164151157156
    035352  aa   040101 163163   15106  	oct	040101163163
    035353  aa   151147 156155   15107  	oct	151147156155
    035354  aa   145156 164040   15108  	oct	145156164040
    035355  aa   164157 040164   15109  	oct	164157040164
    035356  aa   150151 163040   15110  	oct	150151163040
    035357  aa   151144 145156   15111  	oct	151144145156
    035360  aa   164151 146151   15112  	oct	164151146151
    035361  aa   145162 040155   15113  	oct	145162040155
    035362  aa   141171 040162   15114  	oct	141171040162
    035363  aa   145163 165154   15115  	oct	145163165154
    035364  aa   164040 151156   15116  	oct	164040151156
    035365  aa   040154 157163   15117  	oct	040154157163
    035366  aa   163040 157146   15118  	oct	163040157146
    035367  aa   040163 151147   15119  	oct	040163151147
    035370  aa   156151 146151   15120  	oct	156151146151
    035371  aa   143141 156164   15121  	oct	143141156164
    035372  aa   040144 151147   15122  	oct	040144151147
    035373  aa   151164 163040   15123  	oct	151164163040
    035374  aa   105170 160145   15124  	oct	105170160145
    035375  aa   143164 145144   15125  	oct	143164145144
    035376  aa   040167 157162   15126  	oct	040167157162
    035377  aa   144040 151163   15127  	oct	144040151163
    035400  aa   040116 117040   15128  	oct	040116117040
    035401  aa   105170 160145   15129  	oct	105170160145
    035402  aa   143164 145144   15130  	oct	143164145144
    035403  aa   040167 157162   15131  	oct	040167157162
    035404  aa   144040 151163   15132  	oct	144040151163
    035405  aa   040122 105127   15133  	oct	040122105127
    035406  aa   111116 104040   15134  	oct	111116104040
    035407  aa   111164 145155   15135  	oct	111164145155
    035410  aa   040151 163040   15136  	oct	040151163040
    035411  aa   156157 164040   15137  	oct	156157164040
    035412  aa   160141 162164   15138  	oct	160141162164
    035413  aa   040157 146040   15139  	oct	040157146040
    035414  aa   141040 143157   15140  	oct	141040143157
    035415  aa   156144 151164   15141  	oct	156144151164
    035416  aa   151157 156040   15142  	oct	151157156040
    035417  aa   105170 160145   15143  	oct	105170160145
    035420  aa   143164 145144   15144  	oct	143164145144
    035421  aa   040167 157162   15145  	oct	040167157162
    035422  aa   144040 151163   15146  	oct	144040151163
    035423  aa   040111 116124   15147  	oct	040111116124
    035424  aa   117054 040105   15148  	oct	117054040105
    035425  aa   116104 040157   15149  	oct	116104040157
    035426  aa   162040 111116   15150  	oct	162040111116
    035427  aa   126101 114111   15151  	oct	126101114111
    035430  aa   104040 120162   15152  	oct	104040120162
    035431  aa   145143 145144   15153  	oct	145143145144
    035432  aa   151156 147040   15154  	oct	151156147040
    035433  aa   146151 154145   15155  	oct	146151154145
    035434  aa   055156 141155   15156  	oct	055156141155
    035435  aa   145040 151163   15157  	oct	145040151163
    035436  aa   040156 157164   15158  	oct	040156157164
    035437  aa   040141 040163   15159  	oct	040141040163
    035440  aa   145161 165145   15160  	oct	145161165145
    035441  aa   156164 151141   15161  	oct	156164151141
    035442  aa   154040 146151   15162  	oct	154040146151
    035443  aa   154145 040120   15163  	oct	154145040120
    035444  aa   162145 143145   15164  	oct	162145143145
    035445  aa   144151 156147   15165  	oct	144151156147
    035446  aa   040146 151154   15166  	oct	040146151154
    035447  aa   145055 156141   15167  	oct	145055156141
    035450  aa   155145 040151   15168  	oct	155145040151
    035451  aa   163040 156157   15169  	oct	163040156157
    035452  aa   164040 141040   15170  	oct	164040141040
    035453  aa   162141 156144   15171  	oct	162141156144
    035454  aa   157155 040141   15172  	oct	157155040141
    035455  aa   143143 145163   15173  	oct	143143145163
    035456  aa   163040 146151   15174  	oct	163040146151
    035457  aa   154145 040105   15175  	oct	154145040105
    035460  aa   170160 145143   15176  	oct	170160145143
    035461  aa   164145 144040   15177  	oct	164145144040
    035462  aa   167157 162144   15178  	oct	167157162144
    035463  aa   040151 163040   15179  	oct	040151163040
    035464  aa   111116 124117   15180  	oct	111116124117
    035465  aa   040157 162040   15181  	oct	040157162040
    035466  aa   105116 104040   15182  	oct	105116104040
    035467  aa   123171 156164   15183  	oct	123171156164
    035470  aa   141170 040143   15184  	oct	141170040143
    035471  aa   150145 143153   15185  	oct	150145143153
    035472  aa   151156 147040   15186  	oct	151156147040
    035473  aa   144151 163143   15187  	oct	144151163143
    035474  aa   157156 164151   15188  	oct	157156164151
    035475  aa   156165 145144   15189  	oct	156165145144
    035476  aa   040123 171156   15190  	oct	040123171156
    035477  aa   164141 170040   15191  	oct	164141170040
    035500  aa   143150 145143   15192  	oct	143150145143
    035501  aa   153151 156147   15193  	oct	153151156147
    035502  aa   040162 145163   15194  	oct	040162145163
    035503  aa   165155 145144   15195  	oct	165155145144
    035504  aa   040125 123105   15196  	oct	040125123105
    035505  aa   040156 157164   15197  	oct	040156157164
    035506  aa   040160 145162   15198  	oct	040160145162
    035507  aa   155151 164164   15199  	oct	155151164164
    035510  aa   145144 040151   15200  	oct	145144040151
    035511  aa   156040 156157   15201  	oct	156040156157
    035512  aa   156055 144145   15202  	oct	156055144145
    035513  aa   143154 141162   15203  	oct	143154141162
    035514  aa   141164 151166   15204  	oct	141164151166
    035515  aa   145040 163145   15205  	oct	145040163145
    035516  aa   143164 151157   15206  	oct	143164151157
    035517  aa   156040 104141   15207  	oct	156040104141
    035520  aa   164141 055156   15208  	oct	164141055156
    035521  aa   141155 145163   15209  	oct	141155145163
    035522  aa   040141 156144   15210  	oct	040141156144
    035523  aa   040151 156144   15211  	oct	040151156144
    035524  aa   145170 055156   15212  	oct	145170055156
    035525  aa   141155 145163   15213  	oct	141155145163
    035526  aa   040156 157164   15214  	oct	040156157164
    035527  aa   040141 154154   15215  	oct	040141154154
    035530  aa   157167 145144   15216  	oct	157167145144
    035531  aa   040164 157147   15217  	oct	040164157147
    035532  aa   145164 150145   15218  	oct	145164150145
    035533  aa   162040 141163   15219  	oct	162040141163
    035534  aa   040163 165142   15220  	oct	040163165142
    035535  aa   163143 162151   15221  	oct	163143162151
    035536  aa   160164 163040   15222  	oct	160164163040
    035537  aa   111155 160145   15223  	oct	111155160145
    035540  aa   162141 164151   15224  	oct	162141164151
    035541  aa   166145 040166   15225  	oct	166145040166
    035542  aa   145162 142040   15226  	oct	145162142040
    035543  aa   157162 040156   15227  	oct	157162040156
    035544  aa   145170 164040   15228  	oct	145170164040
    035545  aa   163145 156164   15229  	oct	163145156164
    035546  aa   145156 143145   15230  	oct	145156143145
    035547  aa   040145 170160   15231  	oct	040145170160
    035550  aa   145143 164145   15232  	oct	145143164145
    035551  aa   144040 150145   15233  	oct	144040150145
    035552  aa   162145 040120   15234  	oct	162145040120
    035553  aa   162157 143145   15235  	oct	162157143145
    035554  aa   144165 162145   15236  	oct	144165162145
    035555  aa   040144 151166   15237  	oct	040144151166
    035556  aa   151163 151157   15238  	oct	151163151157
    035557  aa   156040 156157   15239  	oct	156040156157
    035560  aa   164040 146157   15240  	oct	164040146157
    035561  aa   165156 144040   15241  	oct	165156144040
    035562  aa   106151 154145   15242  	oct	106151154145
    035563  aa   040151 163040   15243  	oct	040151163040
    035564  aa   156157 164040   15244  	oct	156157164040
    035565  aa   151156 144145   15245  	oct	151156144145
    035566  aa   170145 144040   15246  	oct	170145144040
    035567  aa   101124 040105   15247  	oct	101124040105
    035570  aa   116104 055117   15248  	oct	116104055117
    035571  aa   106055 120101   15249  	oct	106055120101
    035572  aa   107105 040157   15250  	oct	107105040157
    035573  aa   160164 151157   15251  	oct	160164151157
    035574  aa   156040 145170   15252  	oct	156040145170
    035575  aa   160145 143164   15253  	oct	160145143164
    035576  aa   145144 040105   15254  	oct	145144040105
    035577  aa   170160 145143   15255  	oct	170160145143
    035600  aa   164145 144040   15256  	oct	164145144040
    035601  aa   167157 162144   15257  	oct	167157162144
    035602  aa   040151 163040   15258  	oct	040151163040
    035603  aa   146151 147165   15259  	oct	146151147165
    035604  aa   162141 164151   15260  	oct	162141164151
    035605  aa   166145 040143   15261  	oct	166145040143
    035606  aa   157156 163164   15262  	oct	157156163164
    035607  aa   141156 164040   15263  	oct	141156164040
    035610  aa   157162 040141   15264  	oct	157162040141
    035611  aa   154160 150141   15265  	oct	154160150141
    035612  aa   156165 155145   15266  	oct	156165155145
    035613  aa   162151 143040   15267  	oct	162151143040
    035614  aa   154151 164145   15268  	oct	154151164145
    035615  aa   162141 154040   15269  	oct	162141154040
    035616  aa   111164 145155   15270  	oct	111164145155
    035617  aa   040151 163040   15271  	oct	040151163040
    035620  aa   156157 164040   15272  	oct	156157164040
    035621  aa   141156 040141   15273  	oct	141156040141
    035622  aa   154164 145162   15274  	oct	154164145162
    035623  aa   141142 154145   15275  	oct	141142154145
    035624  aa   040151 144145   15276  	oct	040151144145
    035625  aa   156164 151146   15277  	oct	156164151146
    035626  aa   151145 162040   15278  	oct	151145162040
    035627  aa   105170 160145   15279  	oct	105170160145
    035630  aa   143164 145144   15280  	oct	143164145144
    035631  aa   040167 157162   15281  	oct	040167157162
    035632  aa   144040 151163   15282  	oct	144040151163
    035633  aa   040120 117111   15283  	oct	040120117111
    035634  aa   116124 105122   15284  	oct	116124105122
    035635  aa   040111 154154   15285  	oct	040111154154
    035636  aa   145147 141154   15286  	oct	145147141154
    035637  aa   040162 145143   15287  	oct	040162145143
    035640  aa   145151 166151   15288  	oct	145151166151
    035641  aa   156147 040146   15289  	oct	156147040146
    035642  aa   151145 154144   15290  	oct	151145154144
    035643  aa   040151 156040   15291  	oct	040151156040
    035644  aa   141040 163145   15292  	oct	141040163145
    035645  aa   164040 163164   15293  	oct	164040163164
    035646  aa   141164 145155   15294  	oct	141164145155
    035647  aa   145156 164040   15295  	oct	145156164040
    035650  aa   105170 160145   15296  	oct	105170160145
    035651  aa   143164 145144   15297  	oct	143164145144
    035652  aa   040167 157162   15298  	oct	040167157162
    035653  aa   144040 151163   15299  	oct	144040151163
    035654  aa   040124 117054   15300  	oct	040124117054
    035655  aa   040125 120054   15301  	oct	040125120054
    035656  aa   040104 117127   15302  	oct	040104117127
    035657  aa   116040 157162   15303  	oct	116040157162
    035660  aa   040141 156040   15304  	oct	040141156040
    035661  aa   151156 144145   15305  	oct	151156144145
    035662  aa   170055 156141   15306  	oct	170055156141
    035663  aa   155145 040105   15307  	oct	155145040105
    035664  aa   170160 145143   15308  	oct	170160145143
    035665  aa   164145 144040   15309  	oct	164145144040
    035666  aa   167157 162144   15310  	oct	167157162144
    035667  aa   040151 163040   15311  	oct	040151163040
    035670  aa   124117 040157   15312  	oct	124117040157
    035671  aa   162040 141156   15313  	oct	162040141156
    035672  aa   040151 156144   15314  	oct	040151156144
    035673  aa   145170 055156   15315  	oct	145170055156
    035674  aa   141155 145040   15316  	oct	141155145040
    035675  aa   111154 154145   15317  	oct	111154154145
    035676  aa   147141 154040   15318  	oct	147141154040
    035677  aa   163145 156144   15319  	oct	163145156144
    035700  aa   151156 147040   15320  	oct	151156147040
    035701  aa   146151 145154   15321  	oct	146151145154
    035702  aa   144040 151156   15322  	oct	144040151156
    035703  aa   040141 040163   15323  	oct	040141040163
    035704  aa   145164 040163   15324  	oct	145164040163
    035705  aa   164141 164145   15325  	oct	164141164145
    035706  aa   155145 156164   15326  	oct	155145156164
    035707  aa   040111 164145   15327  	oct	040111164145
    035710  aa   155040 151163   15328  	oct	155040151163
    035711  aa   040156 157164   15329  	oct	040156157164
    035712  aa   040141 156040   15330  	oct	040141156040
    035713  aa   151156 164145   15331  	oct	151156164145
    035714  aa   147145 162040   15332  	oct	147145162040
    035715  aa   157162 040141   15333  	oct	157162040141
    035716  aa   156040 145154   15334  	oct	156040145154
    035717  aa   145155 145156   15335  	oct	145155145156
    035720  aa   164141 162171   15336  	oct	164141162171
    035721  aa   040151 164145   15337  	oct	040151164145
    035722  aa   155040 144145   15338  	oct	155040144145
    035723  aa   163143 162151   15339  	oct	163143162151
    035724  aa   142145 144040   15340  	oct	142145144040
    035725  aa   141163 040141   15341  	oct	141163040141
    035726  aa   040156 165155   15342  	oct	040156165155
    035727  aa   145162 151143   15343  	oct	145162151143
    035730  aa   040151 156164   15344  	oct	040151156164
    035731  aa   145147 145162   15345  	oct	145147145162
    035732  aa   040105 170160   15346  	oct	040105170160
    035733  aa   145143 164145   15347  	oct	145143164145
    035734  aa   144040 167157   15348  	oct	144040167157
    035735  aa   162144 040151   15349  	oct	162144040151
    035736  aa   163040 127110   15350  	oct	163040127110
    035737  aa   105116 054040   15351  	oct	105116054040
    035740  aa   101124 040157   15352  	oct	101124040157
    035741  aa   162040 105116   15353  	oct	162040105116
    035742  aa   104040 111164   15354  	oct	104040111164
    035743  aa   145155 040151   15355  	oct	145155040151
    035744  aa   163040 156157   15356  	oct	163040156157
    035745  aa   164040 145154   15357  	oct	164040145154
    035746  aa   145155 145156   15358  	oct	145155145156
    035747  aa   164141 162171   15359  	oct	164141162171
    035750  aa   040141 154160   15360  	oct	040141154160
    035751  aa   150141 142145   15361  	oct	150141142145
    035752  aa   164151 143054   15362  	oct	164151143054
    035753  aa   040141 154160   15363  	oct	040141154160
    035754  aa   150141 156165   15364  	oct	150141156165
    035755  aa   155145 162151   15365  	oct	155145162151
    035756  aa   143054 040157   15366  	oct	143054040157
    035757  aa   162040 156165   15367  	oct	162040156165
    035760  aa   155145 162151   15368  	oct	155145162151
    035761  aa   143040 145144   15369  	oct	143040145144
    035762  aa   151164 145144   15370  	oct	151164145144
    035763  aa   040157 162040   15371  	oct	040157162040
    035764  aa   141040 147162   15372  	oct	141040147162
    035765  aa   157165 160040   15373  	oct	157165160040
    035766  aa   151164 145155   15374  	oct	151164145155
    035767  aa   040111 164145   15375  	oct	040111164145
    035770  aa   155040 151163   15376  	oct	155040151163
    035771  aa   040156 157164   15377  	oct	040156157164
    035772  aa   040141 040146   15378  	oct	040141040146
    035773  aa   151147 165162   15379  	oct	151147165162
    035774  aa   141164 151166   15380  	oct	141164151166
    035775  aa   145040 143157   15381  	oct	145040143157
    035776  aa   156163 164141   15382  	oct	156163164141
    035777  aa   156164 054040   15383  	oct	156164054040
    036000  aa   156157 156156   15384  	oct	156157156156
    036001  aa   165155 145162   15385  	oct	165155145162
    036002  aa   151143 040154   15386  	oct	151143040154
    036003  aa   151164 145162   15387  	oct	151164145162
    036004  aa   141154 040157   15388  	oct	141154040157
    036005  aa   162040 151144   15389  	oct	162040151144
    036006  aa   145156 164151   15390  	oct	145156164151
    036007  aa   146151 145162   15391  	oct	146151145162
    036010  aa   040123 165142   15392  	oct	040123165142
    036011  aa   162157 165164   15393  	oct	162157165164
    036012  aa   151156 145040   15394  	oct	151156145040
    036013  aa   163164 141143   15395  	oct	163164141143
    036014  aa   153040 157166   15396  	oct	153040157166
    036015  aa   145162 146154   15397  	oct	145162146154
    036016  aa   157167 040055   15398  	oct	157167040055
    036017  aa   040156 145163   15399  	oct	040156145163
    036020  aa   164151 156147   15400  	oct	164151156147
    036021  aa   040154 151155   15401  	oct	040154151155
    036022  aa   151164 040145   15402  	oct	151164040145
    036023  aa   170143 145145   15403  	oct	170143145145
    036024  aa   144145 144040   15404  	oct	144145144040
    036025  aa   111164 145155   15405  	oct	111164145155
    036026  aa   040151 163040   15406  	oct	040151163040
    036027  aa   156157 164040   15407  	oct	156157164040
    036030  aa   141040 163145   15408  	oct	141040163145
    036031  aa   161165 145156   15409  	oct	161165145156
    036032  aa   164151 141154   15410  	oct	164151141154
    036033  aa   040146 151154   15411  	oct	040146151154
    036034  aa   145055 156141   15412  	oct	145055156141
    036035  aa   155145 040111   15413  	oct	155145040111
    036036  aa   164145 155040   15414  	oct	164145155040
    036037  aa   151163 040156   15415  	oct	151163040156
    036040  aa   157164 040141   15416  	oct	157164040141
    036041  aa   040144 141164   15417  	oct	040144141164
    036042  aa   141055 156141   15418  	oct	141055156141
    036043  aa   155145 040106   15419  	oct	155145040106
    036044  aa   151154 145040   15420  	oct	151154145040
    036045  aa   144157 145163   15421  	oct	144157145163
    036046  aa   040156 157164   15422  	oct	040156157164
    036047  aa   040150 141166   15423  	oct	040150141166
    036050  aa   145040 163145   15424  	oct	145040163145
    036051  aa   161165 145156   15425  	oct	161165145156
    036052  aa   164151 141154   15426  	oct	164151141154
    036053  aa   040157 162040   15427  	oct	040157162040
    036054  aa   144171 156141   15428  	oct	144171156141
    036055  aa   155151 143040   15429  	oct	155151143040
    036056  aa   141143 143145   15430  	oct	141143143145
    036057  aa   163163 040111   15431  	oct	163163040111
    036060  aa   164145 155040   15432  	oct	164145155040
    036061  aa   151163 040156   15433  	oct	151163040156
    036062  aa   157164 040141   15434  	oct	157164040141
    036063  aa   040157 156145   15435  	oct	040157156145
    036064  aa   040143 150141   15436  	oct	040143150141
    036065  aa   162141 143164   15437  	oct	162141143164
    036066  aa   145162 040151   15438  	oct	145162040151
    036067  aa   156164 145147   15439  	oct	156164145147
    036070  aa   145162 040167   15440  	oct	145162040167
    036071  aa   151164 150157   15441  	oct	151164150157
    036072  aa   165164 040141   15442  	oct	165164040141
    036073  aa   156040 157160   15443  	oct	156040157160
    036074  aa   145162 141164   15444  	oct	145162141164
    036075  aa   151157 156141   15445  	oct	151157156141
    036076  aa   154040 163151   15446  	oct	154040163151
    036077  aa   147156 040101   15447  	oct	147156040101
    036100  aa   040162 145146   15448  	oct	040162145146
    036101  aa   145162 145156   15449  	oct	145162145156
    036102  aa   143145 040164   15450  	oct	143145040164
    036103  aa   157040 141040   15451  	oct	157040141040
    036104  aa   144145 143154   15452  	oct	144145143154
    036105  aa   141162 141164   15453  	oct	141162141164
    036106  aa   151166 145040   15454  	oct	151166145040
    036107  aa   160162 157143   15455  	oct	160162157143
    036110  aa   145144 165162   15456  	oct	145144165162
    036111  aa   145055 156141   15457  	oct	145055156141
    036112  aa   155145 040145   15458  	oct	155145040145
    036113  aa   170151 163164   15459  	oct	170151163164
    036114  aa   163040 151156   15460  	oct	163040151156
    036115  aa   040164 150145   15461  	oct	040164150145
    036116  aa   040156 157156   15462  	oct	040156157156
    036117  aa   055144 145143   15463  	oct	055144145143
    036120  aa   154141 162141   15464  	oct	154141162141
    036121  aa   164151 166145   15465  	oct	164151166145
    036122  aa   040160 157162   15466  	oct	040160157162
    036123  aa   164151 157156   15467  	oct	164151157156
    036124  aa   040157 146040   15468  	oct	040157146040
    036125  aa   164150 145040   15469  	oct	164150145040
    036126  aa   160162 157147   15470  	oct	160162157147
    036127  aa   162141 155040   15471  	oct	162141155040
    036130  aa   105170 160145   15472  	oct	105170160145
    036131  aa   143164 145144   15473  	oct	143164145144
    036132  aa   040167 157162   15474  	oct	040167157162
    036133  aa   144040 151163   15475  	oct	144040151163
    036134  aa   040101 123103   15476  	oct	040101123103
    036135  aa   105116 104111   15477  	oct	105116104111
    036136  aa   116107 054040   15478  	oct	116107054040
    036137  aa   104105 123103   15479  	oct	104105123103
    036140  aa   105116 104111   15480  	oct	105116104111
    036141  aa   116107 040157   15481  	oct	116107040157
    036142  aa   162040 125123   15482  	oct	162040125123
    036143  aa   111116 107040   15483  	oct	111116107040
    036144  aa   105170 160145   15484  	oct	105170160145
    036145  aa   143164 145144   15485  	oct	143164145144
    036146  aa   040167 157162   15486  	oct	040167157162
    036147  aa   144040 151163   15487  	oct	144040151163
    036150  aa   040122 105115   15488  	oct	040122105115
    036151  aa   117126 101114   15489  	oct	117126101114
    036152  aa   040105 170160   15490  	oct	040105170160
    036153  aa   145143 164145   15491  	oct	145143164145
    036154  aa   144040 167157   15492  	oct	144040167157
    036155  aa   162144 040151   15493  	oct	162144040151
    036156  aa   163040 141156   15494  	oct	163040141156
    036157  aa   040157 165164   15495  	oct	040157165164
    036160  aa   160165 164040   15496  	oct	160165164040
    036161  aa   143144 055156   15497  	oct	143144055156
    036162  aa   141155 145040   15498  	oct	141155145040
    036163  aa   101040 103114   15499  	oct	101040103114
    036164  aa   117123 105040   15500  	oct	117123105040
    036165  aa   151163 040155   15501  	oct	151163040155
    036166  aa   141144 145040   15502  	oct	141144145040
    036167  aa   164157 040141   15503  	oct	164157040141
    036170  aa   040146 151154   15504  	oct	040146151154
    036171  aa   145040 156157   15505  	oct	145040156157
    036172  aa   164040 157160   15506  	oct	164040157160
    036173  aa   145156 145144   15507  	oct	145156145144
    036174  aa   040142 171040   15508  	oct	040142171040
    036175  aa   164150 151163   15509  	oct	164150151163
    036176  aa   040160 162157   15510  	oct	040160162157
    036177  aa   147162 141155   15511  	oct	147162141155
    036200  aa   040101 040146   15512  	oct	040101040146
    036201  aa   151154 145040   15513  	oct	151154145040
    036202  aa   151163 040157   15514  	oct	151163040157
    036203  aa   160145 156145   15515  	oct	160145156145
    036204  aa   144040 142171   15516  	oct	144040142171
    036205  aa   040164 150151   15517  	oct	040164150151
    036206  aa   163040 160162   15518  	oct	163040160162
    036207  aa   157147 162141   15519  	oct	157147162141
    036210  aa   155054 040142   15520  	oct	155054040142
    036211  aa   165164 040156   15521  	oct	165164040156
    036212  aa   145166 145162   15522  	oct	145166145162
    036213  aa   040143 154157   15523  	oct	040143154157
    036214  aa   163145 144040   15524  	oct	163145144040
    036215  aa   101040 104105   15525  	oct	101040104105
    036216  aa   114105 124105   15526  	oct	114105124105
    036217  aa   040151 163040   15527  	oct	040151163040
    036220  aa   155141 144145   15528  	oct	155141144145
    036221  aa   040164 157040   15529  	oct	040164157040
    036222  aa   141040 146151   15530  	oct	141040146151
    036223  aa   154145 040156   15531  	oct	154145040156
    036224  aa   157164 040157   15532  	oct	157164040157
    036225  aa   160145 156145   15533  	oct	160145156145
    036226  aa   144040 142171   15534  	oct	144040142171
    036227  aa   040164 150151   15535  	oct	040164150151
    036230  aa   163040 160162   15536  	oct	163040160162
    036231  aa   157147 162141   15537  	oct	157147162141
    036232  aa   155040 101040   15538  	oct	155040101040
    036233  aa   122105 101104   15539  	oct	122105101104
    036234  aa   040151 163040   15540  	oct	040151163040
    036235  aa   155141 144145   15541  	oct	155141144145
    036236  aa   040164 157040   15542  	oct	040164157040
    036237  aa   141040 146151   15543  	oct	141040146151
    036240  aa   154145 040156   15544  	oct	154145040156
    036241  aa   157164 040157   15545  	oct	157164040157
    036242  aa   160145 156145   15546  	oct	160145156145
    036243  aa   144040 142171   15547  	oct	144040142171
    036244  aa   040164 150151   15548  	oct	040164150151
    036245  aa   163040 160162   15549  	oct	163040160162
    036246  aa   157147 162141   15550  	oct	157147162141
    036247  aa   155040 101040   15551  	oct	155040101040
    036250  aa   122105 127122   15552  	oct	122105127122
    036251  aa   111124 105040   15553  	oct	111124105040
    036252  aa   151163 040155   15554  	oct	151163040155
    036253  aa   141144 145040   15555  	oct	141144145040
    036254  aa   164157 040141   15556  	oct	164157040141
    036255  aa   040146 151154   15557  	oct	040146151154
    036256  aa   145040 156157   15558  	oct	145040156157
    036257  aa   164040 157160   15559  	oct	164040157160
    036260  aa   145156 145144   15560  	oct	145156145144
    036261  aa   040142 171040   15561  	oct	040142171040
    036262  aa   164150 151163   15562  	oct	164150151163
    036263  aa   040160 162157   15563  	oct	040160162157
    036264  aa   147162 141155   15564  	oct	147162141155
    036265  aa   040101 040127   15565  	oct	040101040127
    036266  aa   122111 124105   15566  	oct	122111124105
    036267  aa   040151 163040   15567  	oct	040151163040
    036270  aa   155141 144145   15568  	oct	155141144145
    036271  aa   040164 157040   15569  	oct	040164157040
    036272  aa   141040 146151   15570  	oct	141040146151
    036273  aa   154145 040156   15571  	oct	154145040156
    036274  aa   157164 040157   15572  	oct	157164040157
    036275  aa   160145 156145   15573  	oct	160145156145
    036276  aa   144040 142171   15574  	oct	144040142171
    036277  aa   040164 150151   15575  	oct	040164150151
    036300  aa   163040 160162   15576  	oct	163040160162
    036301  aa   157147 162141   15577  	oct	157147162141
    036302  aa   155040 101040   15578  	oct	155040101040
    036303  aa   122105 101104   15579  	oct	122105101104
    036304  aa   040151 163040   15580  	oct	040151163040
    036305  aa   155141 144145   15581  	oct	155141144145
    036306  aa   040164 157040   15582  	oct	040164157040
    036307  aa   141040 146151   15583  	oct	141040146151
    036310  aa   154145 040156   15584  	oct	154145040156
    036311  aa   157164 040157   15585  	oct	157164040157
    036312  aa   160145 156145   15586  	oct	160145156145
    036313  aa   144040 142171   15587  	oct	144040142171
    036314  aa   040164 150151   15588  	oct	040164150151
    036315  aa   163040 160162   15589  	oct	163040160162
    036316  aa   157147 162141   15590  	oct	157147162141
    036317  aa   155040 101040   15591  	oct	155040101040
    036320  aa   122105 101104   15592  	oct	122105101104
    036321  aa   040151 163040   15593  	oct	040151163040
    036322  aa   155141 144145   15594  	oct	155141144145
    036323  aa   040164 157040   15595  	oct	040164157040
    036324  aa   141040 146151   15596  	oct	141040146151
    036325  aa   154145 040156   15597  	oct	154145040156
    036326  aa   157164 040157   15598  	oct	157164040157
    036327  aa   160145 156145   15599  	oct	160145156145
    036330  aa   144040 142171   15600  	oct	144040142171
    036331  aa   040164 150151   15601  	oct	040164150151
    036332  aa   163040 160162   15602  	oct	163040160162
    036333  aa   157147 162141   15603  	oct	157147162141
    036334  aa   155040 101040   15604  	oct	155040101040
    036335  aa   123124 101122   15605  	oct	123124101122
    036336  aa   124040 151163   15606  	oct	124040151163
    036337  aa   040155 141144   15607  	oct	040155141144
    036340  aa   145040 164157   15608  	oct	145040164157
    036341  aa   040141 040146   15609  	oct	040141040146
    036342  aa   151154 145040   15610  	oct	151154145040
    036343  aa   156157 164040   15611  	oct	156157164040
    036344  aa   157160 145156   15612  	oct	157160145156
    036345  aa   145144 040142   15613  	oct	145144040142
    036346  aa   171040 164150   15614  	oct	171040164150
    036347  aa   151163 040160   15615  	oct	151163040160
    036350  aa   162157 147162   15616  	oct	162157147162
    036351  aa   141155 040122   15617  	oct	141155040122
    036352  aa   145154 141164   15618  	oct	145154141164
    036353  aa   151157 156040   15619  	oct	151157156040
    036354  aa   145170 160145   15620  	oct	145170160145
    036355  aa   143164 145144   15621  	oct	143164145144
    036356  aa   040150 145162   15622  	oct	040150145162
    036357  aa   145040 111154   15623  	oct	145040111154
    036360  aa   154145 147141   15624  	oct	154145147141
    036361  aa   154040 157160   15625  	oct	154040157160
    036362  aa   145162 141156   15626  	oct	145162141156
    036363  aa   144040 146157   15627  	oct	144040146157
    036364  aa   162040 163151   15628  	oct	162040163151
    036365  aa   147156 040143   15629  	oct	147156040143
    036366  aa   157156 144151   15630  	oct	157156144151
    036367  aa   164151 157156   15631  	oct	164151157156
    036370  aa   040164 145163   15632  	oct	040164145163
    036371  aa   164040 116145   15633  	oct	164040116145
    036372  aa   170164 040151   15634  	oct	170164040151
    036373  aa   164145 155040   15635  	oct	164145155040
    036374  aa   151163 040156   15636  	oct	151163040156
    036375  aa   157164 040141   15637  	oct	157164040141
    036376  aa   040122 145154   15638  	oct	040122145154
    036377  aa   141164 151157   15639  	oct	141164151157
    036400  aa   156054 040123   15640  	oct	156054040123
    036401  aa   151147 156054   15641  	oct	151147156054
    036402  aa   040157 162040   15642  	oct	040157162040
    036403  aa   103154 141163   15643  	oct	103154141163
    036404  aa   163040 143157   15644  	oct	163040143157
    036405  aa   156144 151164   15645  	oct	156144151164
    036406  aa   151157 156040   15646  	oct	151157156040
    036407  aa   122151 147150   15647  	oct	122151147150
    036410  aa   164040 160141   15648  	oct	164040160141
    036411  aa   162145 156164   15649  	oct	162145156164
    036412  aa   150163 151163   15650  	oct	150163151163
    036413  aa   040145 170160   15651  	oct	040145170160
    036414  aa   145143 164145   15652  	oct	145143164145
    036415  aa   144040 150145   15653  	oct	144040150145
    036416  aa   162145 040124   15654  	oct	162145040124
    036417  aa   150145 040143   15655  	oct	150145040143
    036420  aa   157162 162145   15656  	oct	157162162145
    036421  aa   163160 157156   15657  	oct	163160157156
    036422  aa   144151 156147   15658  	oct	144151156147
    036423  aa   040154 145146   15659  	oct	040154145146
    036424  aa   164040 160141   15660  	oct	164040160141
    036425  aa   162145 156164   15661  	oct	162145156164
    036426  aa   150145 163151   15662  	oct	150145163151
    036427  aa   163040 151163   15663  	oct	163040151163
    036430  aa   040155 151163   15664  	oct	040155151163
    036431  aa   163151 156147   15665  	oct	163151156147
    036432  aa   040111 154154   15666  	oct	040111154154
    036433  aa   145147 141154   15667  	oct	145147141154
    036434  aa   040157 160145   15668  	oct	040157160145
    036435  aa   162141 156144   15669  	oct	162141156144
    036436  aa   040146 157162   15670  	oct	040146157162
    036437  aa   040141 154160   15671  	oct	040141154160
    036440  aa   150141 142145   15672  	oct	150141142145
    036441  aa   164151 143040   15673  	oct	164151143040
    036442  aa   143154 141163   15674  	oct	143154141163
    036443  aa   163040 143157   15675  	oct	163040143157
    036444  aa   156144 151164   15676  	oct	156144151164
    036445  aa   151157 156040   15677  	oct	151157156040
    036446  aa   164145 163164   15678  	oct	164145163164
    036447  aa   040143 144055   15679  	oct	040143144055
    036450  aa   156141 155145   15680  	oct	156141155145
    036451  aa   040145 170160   15681  	oct	040145170160
    036452  aa   145143 164145   15682  	oct	145143164145
    036453  aa   144040 150145   15683  	oct	144040150145
    036454  aa   162145 040111   15684  	oct	162145040111
    036455  aa   154154 145147   15685  	oct	154154145147
    036456  aa   141154 040157   15686  	oct	141154040157
    036457  aa   160145 162141   15687  	oct	160145162141
    036460  aa   156144 040146   15688  	oct	156144040146
    036461  aa   157162 040156   15689  	oct	157162040156
    036462  aa   165155 145162   15690  	oct	165155145162
    036463  aa   151143 040143   15691  	oct	151143040143
    036464  aa   154141 163163   15692  	oct	154141163163
    036465  aa   040143 157156   15693  	oct	040143157156
    036466  aa   144151 164151   15694  	oct	144151164151
    036467  aa   157156 040164   15695  	oct	157156040164
    036470  aa   145163 164040   15696  	oct	145163164040
    036471  aa   122145 154141   15697  	oct	122145154141
    036472  aa   164151 157156   15698  	oct	164151157156
    036473  aa   141154 040157   15699  	oct	141154040157
    036474  aa   160145 162141   15700  	oct	160145162141
    036475  aa   156144 163040   15701  	oct	156144163040
    036476  aa   141162 145040   15702  	oct	141162145040
    036477  aa   151156 143157   15703  	oct	151156143157
    036500  aa   155160 141164   15704  	oct	155160141164
    036501  aa   151142 154145   15705  	oct	151142154145
    036502  aa   040124 150151   15706  	oct	040124150151
    036503  aa   163040 145154   15707  	oct	163040145154
    036504  aa   145155 145156   15708  	oct	145155145156
    036505  aa   164040 151163   15709  	oct	164040151163
    036506  aa   040156 157164   15710  	oct	040156157164
    036507  aa   040141 040166   15711  	oct	040141040166
    036510  aa   141154 151144   15712  	oct	141154151144
    036511  aa   040142 145147   15713  	oct	040142145147
    036512  aa   151156 156151   15714  	oct	151156156151
    036513  aa   156147 040157   15715  	oct	156147040157
    036514  aa   146040 143157   15716  	oct	146040143157
    036515  aa   156144 151164   15717  	oct	156144151164
    036516  aa   151157 156040   15718  	oct	151157156040
    036517  aa   120141 162141   15719  	oct	120141162141
    036520  aa   147162 141160   15720  	oct	147162141160
    036521  aa   150055 156141   15721  	oct	150055156141
    036522  aa   155145 040145   15722  	oct	155145040145
    036523  aa   170160 145143   15723  	oct	170160145143
    036524  aa   164145 144040   15724  	oct	164145144040
    036525  aa   150145 162145   15725  	oct	150145162145
    036526  aa   040126 145162   15726  	oct	040126145162
    036527  aa   142040 157162   15727  	oct	142040157162
    036530  aa   040156 145170   15728  	oct	040156145170
    036531  aa   164040 163145   15729  	oct	164040163145
    036532  aa   156164 145156   15730  	oct	156164145156
    036533  aa   143145 040145   15731  	oct	143145040145
    036534  aa   170160 145143   15732  	oct	170160145143
    036535  aa   164145 144040   15733  	oct	164145144040
    036536  aa   145162 162157   15734  	oct	145162162157
    036537  aa   162040 105170   15735  	oct	162040105170
    036540  aa   160145 143164   15736  	oct	160145143164
    036541  aa   145144 040167   15737  	oct	145144040167
    036542  aa   157162 144040   15738  	oct	157162144040
    036543  aa   151163 040105   15739  	oct	151163040105
    036544  aa   114123 105040   15740  	oct	114123105040
    036545  aa   157162 040141   15741  	oct	157162040141
    036546  aa   040160 145162   15742  	oct	040160145162
    036547  aa   151157 144040   15743  	oct	151157144040
    036550  aa   111154 154145   15744  	oct	111154154145
    036551  aa   147141 154040   15745  	oct	147141154040
    036552  aa   141162 151164   15746  	oct	141162151164
    036553  aa   150155 145164   15747  	oct	150155145164
    036554  aa   151143 040145   15748  	oct	151143040145
    036555  aa   170160 162145   15749  	oct	170160162145
    036556  aa   163163 151157   15750  	oct	163163151157
    036557  aa   156040 123165   15751  	oct	156040123165
    036560  aa   142152 145143   15752  	oct	142152145143
    036561  aa   164040 157146   15753  	oct	164040157146
    036562  aa   040143 157155   15754  	oct	040143157155
    036563  aa   160141 162151   15755  	oct	160141162151
    036564  aa   163157 156040   15756  	oct	163157156040
    036565  aa   155151 163163   15757  	oct	155151163163
    036566  aa   151156 147040   15758  	oct	151156147040
    036567  aa   105170 160145   15759  	oct	105170160145
    036570  aa   143164 145144   15760  	oct	143164145144
    036571  aa   040167 157162   15761  	oct	040167157162
    036572  aa   144040 151163   15762  	oct	144040151163
    036573  aa   040123 105116   15763  	oct	040123105116
    036574  aa   124105 116103   15764  	oct	124105116103
    036575  aa   105040 124150   15765  	oct	105040124150
    036576  aa   151163 040145   15766  	oct	151163040145
    036577  aa   154145 155145   15767  	oct	154145155145
    036600  aa   156164 040151   15768  	oct	156164040151
    036601  aa   163040 156157   15769  	oct	163040156157
    036602  aa   164040 141040   15770  	oct	164040141040
    036603  aa   166141 154151   15771  	oct	166141154151
    036604  aa   144040 143157   15772  	oct	144040143157
    036605  aa   156144 151164   15773  	oct	156144151164
    036606  aa   151157 156040   15774  	oct	151157156040
    036607  aa   105170 160145   15775  	oct	105170160145
    036610  aa   143164 145144   15776  	oct	143164145144
    036611  aa   040167 157162   15777  	oct	040167157162
    036612  aa   144040 151163   15778  	oct	144040151163
    036613  aa   040124 117054   15779  	oct	040124117054
    036614  aa   040124 110101   15780  	oct	040124110101
    036615  aa   116040 157162   15781  	oct	116040157162
    036616  aa   040141 040144   15782  	oct	040141040144
    036617  aa   141164 141055   15783  	oct	141164141055
    036620  aa   156141 155145   15784  	oct	156141155145
    036621  aa   040111 164145   15785  	oct	040111164145
    036622  aa   155040 151163   15786  	oct	155040151163
    036623  aa   040156 157164   15787  	oct	040156157164
    036624  aa   040141 040146   15788  	oct	040141040146
    036625  aa   151154 145055   15789  	oct	151154145055
    036626  aa   156141 155145   15790  	oct	156141155145
    036627  aa   040157 146040   15791  	oct	040157146040
    036630  aa   141040 156157   15792  	oct	141040156157
    036631  aa   156055 163145   15793  	oct	156055163145
    036632  aa   161165 145156   15794  	oct	161165145156
    036633  aa   164151 141154   15795  	oct	164151141154
    036634  aa   040141 156144   15796  	oct	040141156144
    036635  aa   040156 157156   15797  	oct	040156157156
    036636  aa   055163 164162   15798  	oct	055163164162
    036637  aa   145141 155040   15799  	oct	145141155040
    036640  aa   146151 154145   15800  	oct	146151154145
    036641  aa   040105 170160   15801  	oct	040105170160
    036642  aa   145143 164145   15802  	oct	145143164145
    036643  aa   144040 167157   15803  	oct	144040167157
    036644  aa   162144 040151   15804  	oct	162144040151
    036645  aa   163040 141156   15805  	oct	163040141156
    036646  aa   040151 144145   15806  	oct	040151144145
    036647  aa   156164 151146   15807  	oct	156164151146
    036650  aa   151145 162040   15808  	oct	151145162040
    036651  aa   157162 040151   15809  	oct	157162040151
    036652  aa   156160 165164   15810  	oct	156160165164
    036653  aa   040143 144055   15811  	oct	040143144055
    036654  aa   156141 155145   15812  	oct	156141155145
    036655  aa   040105 170160   15813  	oct	040105170160
    036656  aa   145143 164145   15814  	oct	145143164145
    036657  aa   144040 167157   15815  	oct	144040167157
    036660  aa   162144 040151   15816  	oct	162144040151
    036661  aa   163040 103117   15817  	oct	163040103117
    036662  aa   125116 124040   15818  	oct	125116124040
    036663  aa   105170 160145   15819  	oct	105170160145
    036664  aa   143164 145144   15820  	oct	143164145144
    036665  aa   040167 157162   15821  	oct	040167157162
    036666  aa   144040 155165   15822  	oct	144040155165
    036667  aa   163164 040142   15823  	oct	163164040142
    036670  aa   145040 164150   15824  	oct	145040164150
    036671  aa   145040 156141   15825  	oct	145040156141
    036672  aa   155145 040157   15826  	oct	155145040157
    036673  aa   146040 141156   15827  	oct	146040141156
    036674  aa   040145 154145   15828  	oct	040145154145
    036675  aa   155145 156164   15829  	oct	155145156164
    036676  aa   141162 171040   15830  	oct	141162171040
    036677  aa   151156 164145   15831  	oct	151156164145
    036700  aa   147145 162040   15832  	oct	147145162040
    036701  aa   151164 145155   15833  	oct	151164145155
    036702  aa   040111 164145   15834  	oct	040111164145
    036703  aa   155040 144157   15835  	oct	155040144157
    036704  aa   145163 040156   15836  	oct	145163040156
    036705  aa   157164 040162   15837  	oct	157164040162
    036706  aa   145146 145162   15838  	oct	145146145162
    036707  aa   145156 143145   15839  	oct	145156143145
    036710  aa   040151 156160   15840  	oct	040151156160
    036711  aa   165164 040144   15841  	oct	165164040144
    036712  aa   145166 151143   15842  	oct	145166151143
    036713  aa   145040 111164   15843  	oct	145040111164
    036714  aa   145155 040144   15844  	oct	145155040144
    036715  aa   157145 163040   15845  	oct	157145163040
    036716  aa   156157 164040   15846  	oct	156157164040
    036717  aa   162145 146145   15847  	oct	162145146145
    036720  aa   162145 156143   15848  	oct	162145156143
    036721  aa   145040 157165   15849  	oct	145040157165
    036722  aa   164160 165164   15850  	oct	164160165164
    036723  aa   040144 145166   15851  	oct	040144145166
    036724  aa   151143 145040   15852  	oct	151143145040
    036725  aa   124150 151163   15853  	oct	124150151163
    036726  aa   040167 157162   15854  	oct	040167157162
    036727  aa   144040 151163   15855  	oct	144040151163
    036730  aa   040162 145163   15856  	oct	040162145163
    036731  aa   145162 166145   15857  	oct	145162166145
    036732  aa   144040 146157   15858  	oct	144040146157
    036733  aa   162040 146165   15859  	oct	162040146165
    036734  aa   164165 162145   15860  	oct	164165162145
    036735  aa   040151 155160   15861  	oct	040151155160
    036736  aa   154145 155145   15862  	oct	154145155145
    036737  aa   156164 141164   15863  	oct	156164141164
    036740  aa   151157 156040   15864  	oct	151157156040
    036741  aa   105170 160145   15865  	oct	105170160145
    036742  aa   143164 145144   15866  	oct	143164145144
    036743  aa   040167 157162   15867  	oct	040167157162
    036744  aa   144040 151163   15868  	oct	144040151163
    036745  aa   040114 105123   15869  	oct	040114105123
    036746  aa   123040 157162   15870  	oct	123040157162
    036747  aa   040074 040106   15871  	oct	040074040106
    036750  aa   151154 145040   15872  	oct	151154145040
    036751  aa   155165 163164   15873  	oct	155165163164
    036752  aa   040142 145040   15874  	oct	040142145040
    036753  aa   162145 154141   15875  	oct	162145154141
    036754  aa   164151 166145   15876  	oct	164151166145
    036755  aa   040050 167151   15877  	oct	040050167151
    036756  aa   164150 040113   15878  	oct	164150040113
    036757  aa   105131 040143   15879  	oct	105131040143
    036760  aa   154141 165163   15880  	oct	154141165163
    036761  aa   145051 040157   15881  	oct	145051040157
    036762  aa   162040 151156   15882  	oct	162040151156
    036763  aa   144145 170145   15883  	oct	144145170145
    036764  aa   144040 141156   15884  	oct	144040141156
    036765  aa   144040 155165   15885  	oct	144040155165
    036766  aa   163164 040150   15886  	oct	163164040150
    036767  aa   141166 145040   15887  	oct	141166145040
    036770  aa   163145 161165   15888  	oct	163145161165
    036771  aa   145156 164151   15889  	oct	145156164151
    036772  aa   141154 040157   15890  	oct	141154040157
    036773  aa   162040 144171   15891  	oct	162040144171
    036774  aa   156141 155151   15892  	oct	156141155151
    036775  aa   143040 141143   15893  	oct	143040141143
    036776  aa   143145 163163   15894  	oct	143145163163
    036777  aa   040105 170160   15895  	oct	040105170160
    037000  aa   145143 164145   15896  	oct	145143164145
    037001  aa   144040 167157   15897  	oct	144040167157
    037002  aa   162144 040151   15898  	oct	162144040151
    037003  aa   163040 105121   15899  	oct	163040105121
    037004  aa   125101 114054   15900  	oct	125101114054
    037005  aa   040107 122105   15901  	oct	040107122105
    037006  aa   101124 105122   15902  	oct	101124105122
    037007  aa   040157 162040   15903  	oct	040157162040
    037010  aa   116117 124040   15904  	oct	116117124040
    037011  aa   105170 160145   15905  	oct	105170160145
    037012  aa   143164 145144   15906  	oct	143164145144
    037013  aa   040167 157162   15907  	oct	040167157162
    037014  aa   144040 151163   15908  	oct	144040151163
    037015  aa   040164 150145   15909  	oct	040164150145
    037016  aa   040144 141164   15910  	oct	040144141164
    037017  aa   141055 156141   15911  	oct	141055156141
    037020  aa   155145 040163   15912  	oct	155145040163
    037021  aa   160145 143151   15913  	oct	160145143151
    037022  aa   146151 145144   15914  	oct	146151145144
    037023  aa   040151 156040   15915  	oct	040151156040
    037024  aa   164150 145040   15916  	oct	164150145040
    037025  aa   122105 114101   15917  	oct	122105114101
    037026  aa   124111 126105   15918  	oct	124111126105
    037027  aa   040113 105131   15919  	oct	040113105131
    037030  aa   040160 150162   15920  	oct	040160150162
    037031  aa   141163 145040   15921  	oct	141163145040
    037032  aa   157146 040164   15922  	oct	157146040164
    037033  aa   150145 040141   15923  	oct	150145040141
    037034  aa   163163 157143   15924  	oct	163163157143
    037035  aa   151141 164145   15925  	oct	151141164145
    037036  aa   144040 106111   15926  	oct	144040106111
    037037  aa   114105 055103   15927  	oct	114105055103
    037040  aa   117116 124122   15928  	oct	117116124122
    037041  aa   117114 040145   15929  	oct	117114040145
    037042  aa   156164 162171   15930  	oct	156164162171
    037043  aa   040101 144144   15931  	oct	040101144144
    037044  aa   162145 163163   15932  	oct	162145163163
    037045  aa   040157 146040   15933  	oct	040157146040
    037046  aa   164150 151163   15934  	oct	164150151163
    037047  aa   040151 164145   15935  	oct	040151164145
    037050  aa   155040 151163   15936  	oct	155040151163
    037051  aa   040156 157164   15937  	oct	040156157164
    037052  aa   040164 150145   15938  	oct	040164150145
    037053  aa   040163 141155   15939  	oct	040163141155
    037054  aa   145040 141163   15940  	oct	145040141163
    037055  aa   040164 150145   15941  	oct	040164150145
    037056  aa   040141 144144   15942  	oct	040141144144
    037057  aa   162145 163163   15943  	oct	162145163163
    037060  aa   040157 146040   15944  	oct	040157146040
    037061  aa   164150 145040   15945  	oct	164150145040
    037062  aa   162145 154141   15946  	oct	162145154141
    037063  aa   164151 166145   15947  	oct	164151166145
    037064  aa   040153 145171   15948  	oct	040153145171
    037065  aa   040105 170160   15949  	oct	040105170160
    037066  aa   145143 164145   15950  	oct	145143164145
    037067  aa   144040 167157   15951  	oct	144040167157
    037070  aa   162144 040151   15952  	oct	162144040151
    037071  aa   163040 122105   15953  	oct	163040122105
    037072  aa   120114 101103   15954  	oct	120114101103
    037073  aa   111116 107054   15955  	oct	111116107054
    037074  aa   040111 116111   15956  	oct	040111116111
    037075  aa   124111 101114   15957  	oct	124111101114
    037076  aa   040157 162040   15958  	oct	040157162040
    037077  aa   141040 156157   15959  	oct	141040156157
    037100  aa   156156 165155   15960  	oct	156156165155
    037101  aa   145162 151143   15961  	oct	145162151143
    037102  aa   040154 151164   15962  	oct	040154151164
    037103  aa   145162 141154   15963  	oct	145162141154
    037104  aa   040157 162040   15964  	oct	040157162040
    037105  aa   145154 145155   15965  	oct	145154145155
    037106  aa   145156 164141   15966  	oct	145156164141
    037107  aa   162171 040144   15967  	oct	162171040144
    037110  aa   141164 141040   15968  	oct	141164141040
    037111  aa   151164 145155   15969  	oct	151164145155
    037112  aa   040167 150157   15970  	oct	040167150157
    037113  aa   163145 040165   15971  	oct	163145040165
    037114  aa   163141 147145   15972  	oct	163141147145
    037115  aa   040151 163040   15973  	oct	040151163040
    037116  aa   104111 123120   15974  	oct	104111123120
    037117  aa   114101 131040   15975  	oct	114101131040
    037120  aa   105170 160145   15976  	oct	105170160145
    037121  aa   143164 145144   15977  	oct	143164145144
    037122  aa   040167 157162   15978  	oct	040167157162
    037123  aa   144040 151163   15979  	oct	144040151163
    037124  aa   040122 105120   15980  	oct	040122105120
    037125  aa   114101 103111   15981  	oct	114101103111
    037126  aa   116107 040105   15982  	oct	116107040105
    037127  aa   170160 145143   15983  	oct	170160145143
    037130  aa   164145 144040   15984  	oct	164145144040
    037131  aa   167157 162144   15985  	oct	167157162144
    037132  aa   040151 163040   15986  	oct	040151163040
    037133  aa   102131 054040   15987  	oct	102131054040
    037134  aa   101114 114054   15988  	oct	101114114054
    037135  aa   040156 157156   15989  	oct	040156157156
    037136  aa   156165 155145   15990  	oct	156165155145
    037137  aa   162151 143040   15991  	oct	162151143040
    037140  aa   154151 164145   15992  	oct	154151164145
    037141  aa   162141 154054   15993  	oct	162141154054
    037142  aa   040141 154160   15994  	oct	040141154160
    037143  aa   150141 156165   15995  	oct	150141156165
    037144  aa   155145 162151   15996  	oct	155145162151
    037145  aa   143040 144141   15997  	oct	143040144141
    037146  aa   164141 040151   15998  	oct	164141040151
    037147  aa   164145 155040   15999  	oct	164145155040
    037150  aa   157162 040141   16000  	oct	157162040141
    037151  aa   156171 040146   16001  	oct	156171040146
    037152  aa   151147 165162   16002  	oct	151147165162
    037153  aa   141164 151166   16003  	oct	141164151166
    037154  aa   145040 143157   16004  	oct	145040143157
    037155  aa   156163 164141   16005  	oct	156163164141
    037156  aa   156164 040145   16006  	oct	156164040145
    037157  aa   170143 145160   16007  	oct	170143145160
    037160  aa   164040 101114   16008  	oct	164040101114
    037161  aa   114040 105170   16009  	oct	114040105170
    037162  aa   160145 143164   16010  	oct	160145143164
    037163  aa   145144 040167   16011  	oct	145144040167
    037164  aa   157162 144040   16012  	oct	157162144040
    037165  aa   151163 040117   16013  	oct	151163040117
    037166  aa   122040 157162   16014  	oct	122040157162
    037167  aa   040111 116124   16015  	oct	040111116124
    037170  aa   117040 124150   16016  	oct	117040124150
    037171  aa   151163 040151   16017  	oct	151163040151
    037172  aa   144145 156164   16018  	oct	144145156164
    037173  aa   151146 151145   16019  	oct	151146151145
    037174  aa   162040 151163   16020  	oct	162040151163
    037175  aa   040151 156040   16021  	oct	040151156040
    037176  aa   145162 162157   16022  	oct	145162162157
    037177  aa   162040 124150   16023  	oct	162040124150
    037200  aa   151163 040151   16024  	oct	151163040151
    037201  aa   156164 145147   16025  	oct	156164145147
    037202  aa   145162 040151   16026  	oct	145162040151
    037203  aa   163040 157165   16027  	oct	163040157165
    037204  aa   164163 151144   16028  	oct	164163151144
    037205  aa   145040 164150   16029  	oct	145040164150
    037206  aa   145040 141154   16030  	oct	145040141154
    037207  aa   154157 167141   16031  	oct	154157167141
    037210  aa   142154 145040   16032  	oct	142154145040
    037211  aa   162141 156147   16033  	oct	162141156147
    037212  aa   145040 157146   16034  	oct	145040157146
    037213  aa   040151 156144   16035  	oct	040151156144
    037214  aa   145170 055156   16036  	oct	145170055156
    037215  aa   141155 145040   16037  	oct	141155145040
    037216  aa   142145 151156   16038  	oct	142145151156
    037217  aa   147040 163145   16039  	oct	147040163145
    037220  aa   164040 124150   16040  	oct	164040124150
    037221  aa   145040 151156   16041  	oct	145040151156
    037222  aa   164145 162156   16042  	oct	164145162156
    037223  aa   141154 055146   16043  	oct	141154055146
    037224  aa   151154 145055   16044  	oct	151154145055
    037225  aa   156141 155145   16045  	oct	156141155145
    037226  aa   040151 156040   16046  	oct	040151156040
    037227  aa   164150 145040   16047  	oct	164150145040
    037230  aa   141163 163157   16048  	oct	141163163157
    037231  aa   143151 141164   16049  	oct	143151141164
    037232  aa   145144 040123   16050  	oct	145144040123
    037233  aa   105114 105103   16051  	oct	105114105103
    037234  aa   124040 143154   16052  	oct	124040143154
    037235  aa   141165 163145   16053  	oct	141165163145
    037236  aa   040155 165163   16054  	oct	040155165163
    037237  aa   164040 143157   16055  	oct	164040143157
    037240  aa   156164 141151   16056  	oct	156164141151
    037241  aa   156040 164150   16057  	oct	156040164150
    037242  aa   145040 163165   16058  	oct	145040163165
    037243  aa   146146 151170   16059  	oct	146146151170
    037244  aa   040055 120122   16060  	oct	040055120122
    037245  aa   111116 124105   16061  	oct	111116124105
    037246  aa   122040 105170   16062  	oct	122040105170
    037247  aa   160145 143164   16063  	oct	160145143164
    037250  aa   145144 040167   16064  	oct	145144040167
    037251  aa   157162 144040   16065  	oct	157162144040
    037252  aa   151163 040156   16066  	oct	151163040156
    037253  aa   157156 156165   16067  	oct	157156156165
    037254  aa   155145 162151   16068  	oct	155145162151
    037255  aa   143040 154151   16069  	oct	143040154151
    037256  aa   164145 162141   16070  	oct	164145162141
    037257  aa   154040 154145   16071  	oct	154040154145
    037260  aa   163163 040164   16072  	oct	163163040164
    037261  aa   150141 156040   16073  	oct	150141156040
    037262  aa   063062 040143   16074  	oct	063062040143
    037263  aa   150141 162141   16075  	oct	150141162141
    037264  aa   143164 145162   16076  	oct	143164145162
    037265  aa   163040 151156   16077  	oct	163040151156
    037266  aa   040154 145156   16078  	oct	040154145156
    037267  aa   147164 150040   16079  	oct	147164150040
    037270  aa   102157 164150   16080  	oct	102157164150
    037271  aa   040160 162157   16081  	oct	040160162157
    037272  aa   143145 144165   16082  	oct	143145144165
    037273  aa   162145 055156   16083  	oct	162145055156
    037274  aa   141155 145163   16084  	oct	141155145163
    037275  aa   040155 165163   16085  	oct	040155165163
    037276  aa   164040 142145   16086  	oct	164040142145
    037277  aa   040151 156040   16087  	oct	040151156040
    037300  aa   164150 145040   16088  	oct	164150145040
    037301  aa   163141 155145   16089  	oct	163141155145
    037302  aa   040144 145143   16090  	oct	040144145143
    037303  aa   154141 162141   16091  	oct	154141162141
    037304  aa   164151 166145   16092  	oct	164151166145
    037305  aa   040163 145143   16093  	oct	040163145143
    037306  aa   164151 157156   16094  	oct	164151157156
    037307  aa   040105 170160   16095  	oct	040105170160
    037310  aa   145143 164145   16096  	oct	145143164145
    037311  aa   144040 167157   16097  	oct	144040167157
    037312  aa   162144 040151   16098  	oct	162144040151
    037313  aa   163040 141040   16099  	oct	163040141040
    037314  aa   160157 163151   16100  	oct	160157163151
    037315  aa   164151 166145   16101  	oct	164151166145
    037316  aa   040151 156164   16102  	oct	040151156164
    037317  aa   145147 145162   16103  	oct	145147145162
    037320  aa   040157 162040   16104  	oct	040157162040
    037321  aa   141156 040145   16105  	oct	141156040145
    037322  aa   154145 155145   16106  	oct	154145155145
    037323  aa   156164 141162   16107  	oct	156164141162
    037324  aa   171040 156165   16108  	oct	171040156165
    037325  aa   155145 162151   16109  	oct	155145162151
    037326  aa   143040 151156   16110  	oct	143040151156
    037327  aa   164145 147145   16111  	oct	164145147145
    037330  aa   162040 144141   16112  	oct	162040144141
    037331  aa   164141 040151   16113  	oct	164141040151
    037332  aa   164145 155040   16114  	oct	164145155040
    037333  aa   105170 160145   16115  	oct	105170160145
    037334  aa   143164 145144   16116  	oct	143164145144
    037335  aa   040167 157162   16117  	oct	040167157162
    037336  aa   144040 151163   16118  	oct	144040151163
    037337  aa   040141 040156   16119  	oct	040141040156
    037340  aa   157156 055172   16120  	oct	157156055172
    037341  aa   145162 157040   16121  	oct	145162157040
    037342  aa   151156 164145   16122  	oct	151156164145
    037343  aa   147145 162040   16123  	oct	147145162040
    037344  aa   157162 040141   16124  	oct	157162040141
    037345  aa   156040 145154   16125  	oct	156040145154
    037346  aa   145155 145156   16126  	oct	145155145156
    037347  aa   164141 162171   16127  	oct	164141162171
    037350  aa   040156 165155   16128  	oct	040156165155
    037351  aa   145162 151143   16129  	oct	145162151143
    037352  aa   040151 156164   16130  	oct	040151156164
    037353  aa   145147 145162   16131  	oct	145147145162
    037354  aa   040144 141164   16132  	oct	040144141164
    037355  aa   141040 151164   16133  	oct	141040151164
    037356  aa   145155 040105   16134  	oct	145155040105
    037357  aa   170160 145143   16135  	oct	170160145143
    037360  aa   164145 144040   16136  	oct	164145144040
    037361  aa   167157 162144   16137  	oct	167157162144
    037362  aa   040151 163040   16138  	oct	040151163040
    037363  aa   141156 040151   16139  	oct	141156040151
    037364  aa   156144 145170   16140  	oct	156144145170
    037365  aa   055156 141155   16141  	oct	055156141155
    037366  aa   145054 040154   16142  	oct	145054040154
    037367  aa   151164 145162   16143  	oct	151164145162
    037370  aa   141154 040157   16144  	oct	141154040157
    037371  aa   162040 141156   16145  	oct	162040141156
    037372  aa   040145 154145   16146  	oct	040145154145
    037373  aa   155145 156164   16147  	oct	155145156164
    037374  aa   141162 171040   16148  	oct	141162171040
    037375  aa   156165 155145   16149  	oct	156165155145
    037376  aa   162151 143040   16150  	oct	162151143040
    037377  aa   144141 164141   16151  	oct	144141164141
    037400  aa   040151 164145   16152  	oct	040151164145
    037401  aa   155040 105170   16153  	oct	155040105170
    037402  aa   160145 143164   16154  	oct	160145143164
    037403  aa   145144 040167   16155  	oct	145144040167
    037404  aa   157162 144040   16156  	oct	157162144040
    037405  aa   151163 040141   16157  	oct	151163040141
    037406  aa   156040 145154   16158  	oct	156040145154
    037407  aa   145155 145156   16159  	oct	145155145156
    037410  aa   164141 162171   16160  	oct	164141162171
    037411  aa   040156 165155   16161  	oct	040156165155
    037412  aa   145162 151143   16162  	oct	145162151143
    037413  aa   040144 141164   16163  	oct	040144141164
    037414  aa   141040 151164   16164  	oct	141040151164
    037415  aa   145155 040157   16165  	oct	145155040157
    037416  aa   162040 141040   16166  	oct	162040141040
    037417  aa   156157 156055   16167  	oct	156157156055
    037420  aa   172145 162157   16168  	oct	172145162157
    037421  aa   040154 151164   16169  	oct	040154151164
    037422  aa   145162 141154   16170  	oct	145162141154
    037423  aa   040124 150145   16171  	oct	040124150145
    037424  aa   040151 144145   16172  	oct	040151144145
    037425  aa   156164 151146   16173  	oct	156164151146
    037426  aa   151145 162040   16174  	oct	151145162040
    037427  aa   146157 154154   16175  	oct	146157154154
    037430  aa   157167 151156   16176  	oct	157167151156
    037431  aa   147040 106122   16177  	oct	147040106122
    037432  aa   117115 040155   16178  	oct	117115040155
    037433  aa   165163 164040   16179  	oct	165163164040
    037434  aa   142145 040141   16180  	oct	142145040141
    037435  aa   156040 145154   16181  	oct	156040145154
    037436  aa   145155 145156   16182  	oct	145155145156
    037437  aa   164141 162171   16183  	oct	164141162171
    037440  aa   040156 165155   16184  	oct	040156165155
    037441  aa   145162 151143   16185  	oct	145162151143
    037442  aa   040151 156164   16186  	oct	040151156164
    037443  aa   145147 145162   16187  	oct	145147145162
    037444  aa   040144 141164   16188  	oct	040144141164
    037445  aa   141040 151164   16189  	oct	141040151164
    037446  aa   145155 040123   16190  	oct	145155040123
    037447  aa   145143 164151   16191  	oct	145143164151
    037450  aa   157156 163040   16192  	oct	157156163040
    037451  aa   151156 040164   16193  	oct	151156040164
    037452  aa   150145 040144   16194  	oct	150145040144
    037453  aa   145143 154141   16195  	oct	145143154141
    037454  aa   162141 164151   16196  	oct	162141164151
    037455  aa   166145 163040   16197  	oct	166145163040
    037456  aa   155165 163164   16198  	oct	155165163164
    037457  aa   040143 157156   16199  	oct	040143157156
    037460  aa   164141 151156   16200  	oct	164141151156
    037461  aa   040163 145147   16201  	oct	040163145147
    037462  aa   155145 156164   16202  	oct	155145156164
    037463  aa   055156 165155   16203  	oct	055156165155
    037464  aa   142145 162163   16204  	oct	142145162163
    037465  aa   040154 145163   16205  	oct	040154145163
    037466  aa   163040 164150   16206  	oct	163040164150
    037467  aa   141156 040065   16207  	oct	141156040065
    037470  aa   060040 124150   16208  	oct	060040124150
    037471  aa   151163 040120   16209  	oct	151163040120
    037472  aa   105122 106117   16210  	oct	105122106117
    037473  aa   122115 040163   16211  	oct	122115040163
    037474  aa   164141 164145   16212  	oct	164141164145
    037475  aa   155145 156164   16213  	oct	155145156164
    037476  aa   040166 151157   16214  	oct	040166151157
    037477  aa   154141 164145   16215  	oct	154141164145
    037500  aa   163040 164150   16216  	oct	163040164150
    037501  aa   145040 163145   16217  	oct	145040163145
    037502  aa   147155 145156   16218  	oct	147155145156
    037503  aa   164141 164151   16219  	oct	164141164151
    037504  aa   157156 040162   16220  	oct	157156040162
    037505  aa   165154 145163   16221  	oct	165154145163
    037506  aa   040124 150145   16222  	oct	040124150145
    037507  aa   040163 145147   16223  	oct	040163145147
    037510  aa   155145 156164   16224  	oct	155145156164
    037511  aa   055156 165155   16225  	oct	055156165155
    037512  aa   142145 162163   16226  	oct	142145162163
    037513  aa   040155 165163   16227  	oct	040155165163
    037514  aa   164040 142145   16228  	oct	164040142145
    037515  aa   040141 156040   16229  	oct	040141156040
    037516  aa   151156 164145   16230  	oct	151156164145
    037517  aa   147145 162040   16231  	oct	147145162040
    037520  aa   162141 156147   16232  	oct	162141156147
    037521  aa   151156 147040   16233  	oct	151156147040
    037522  aa   151156 040166   16234  	oct	151156040166
    037523  aa   141154 165145   16235  	oct	141154165145
    037524  aa   040146 162157   16236  	oct	040146162157
    037525  aa   155040 060040   16237  	oct	155040060040
    037526  aa   164150 162165   16238  	oct	164150162165
    037527  aa   040071 071040   16239  	oct	040071071040
    037530  aa   111164 145155   16240  	oct	111164145155
    037531  aa   040144 145143   16241  	oct	040144145143
    037532  aa   154141 162145   16242  	oct	154141162145
    037533  aa   144040 151156   16243  	oct	144040151156
    037534  aa   040103 117116   16244  	oct	040103117116
    037535  aa   123124 101116   16245  	oct	123124101116
    037536  aa   124040 123105   16246  	oct	124040123105
    037537  aa   103124 111117   16247  	oct	103124111117
    037540  aa   116040 143141   16248  	oct	116040143141
    037541  aa   156156 157164   16249  	oct	156156157164
    037542  aa   040142 145040   16250  	oct	040142145040
    037543  aa   155157 144151   16251  	oct	155157144151
    037544  aa   146151 145144   16252  	oct	146151145144
    037545  aa   040101 040165   16253  	oct	040101040165
    037546  aa   163145 040160   16254  	oct	163145040160
    037547  aa   162157 143145   16255  	oct	162157143145
    037550  aa   144165 162145   16256  	oct	144165162145
    037551  aa   040141 154162   16257  	oct	040141154162
    037552  aa   145141 144171   16258  	oct	145141144171
    037553  aa   040145 170151   16259  	oct	040145170151
    037554  aa   163164 163040   16260  	oct	163164163040
    037555  aa   146157 162040   16261  	oct	146157162040
    037556  aa   164150 151163   16262  	oct	164150151163
    037557  aa   040146 151154   16263  	oct	040146151154
    037560  aa   145040 101040   16264  	oct	145040101040
    037561  aa   165163 145040   16265  	oct	165163145040
    037562  aa   160162 157143   16266  	oct	160162157143
    037563  aa   145144 165162   16267  	oct	145144165162
    037564  aa   145040 150141   16268  	oct	145040150141
    037565  aa   163040 141154   16269  	oct	163040141154
    037566  aa   162145 141144   16270  	oct	162145141144
    037567  aa   171040 142145   16271  	oct	171040142145
    037570  aa   145156 040141   16272  	oct	145156040141
    037571  aa   163163 157143   16273  	oct	163163157143
    037572  aa   151141 164145   16274  	oct	151141164145
    037573  aa   144040 167151   16275  	oct	144040167151
    037574  aa   164150 040164   16276  	oct	164150040164
    037575  aa   150151 163040   16277  	oct	150151163040
    037576  aa   160162 157143   16278  	oct	160162157143
    037577  aa   145163 163151   16279  	oct	145163163151
    037600  aa   156147 040155   16280  	oct	156147040155
    037601  aa   157144 145040   16281  	oct	157144145040
    037602  aa   101040 160162   16282  	oct	101040160162
    037603  aa   157143 145144   16283  	oct	157143145144
    037604  aa   165162 145040   16284  	oct	165162145040
    037605  aa   156141 155145   16285  	oct	156141155145
    037606  aa   040151 163040   16286  	oct	040151163040
    037607  aa   162145 161165   16287  	oct	162145161165
    037610  aa   151162 145144   16288  	oct	151162145144
    037611  aa   040150 145162   16289  	oct	040150145162
    037612  aa   145040 124150   16290  	oct	145040124150
    037613  aa   151163 040167   16291  	oct	151163040167
    037614  aa   157162 144040   16292  	oct	157162144040
    037615  aa   163150 157165   16293  	oct	163150157165
    037616  aa   154144 040142   16294  	oct	154144040142
    037617  aa   145147 151156   16295  	oct	145147151156
    037620  aa   040151 156040   16296  	oct	040151156040
    037621  aa   141162 145141   16297  	oct	141162145141
    037622  aa   040101 040124   16298  	oct	040101040124
    037623  aa   150151 163040   16299  	oct	150151163040
    037624  aa   167157 162144   16300  	oct	167157162144
    037625  aa   040163 150157   16301  	oct	040163150157
    037626  aa   165154 144040   16302  	oct	165154144040
    037627  aa   142145 147151   16303  	oct	142145147151
    037630  aa   156040 151156   16304  	oct	156040151156
    037631  aa   040141 162145   16305  	oct	040141162145
    037632  aa   141040 102040   16306  	oct	141040102040
    037633  aa   101040 143157   16307  	oct	101040143157
    037634  aa   155160 141162   16308  	oct	155160141162
    037635  aa   151163 157156   16309  	oct	151163157156
    037636  aa   040150 141163   16310  	oct	040150141163
    037637  aa   040142 145145   16311  	oct	040142145145
    037640  aa   156040 155141   16312  	oct	156040155141
    037641  aa   144145 040167   16313  	oct	144145040167
    037642  aa   150151 143150   16314  	oct	150151143150
    037643  aa   040144 157145   16315  	oct	040144157145
    037644  aa   163040 156157   16316  	oct	163040156157
    037645  aa   164040 151156   16317  	oct	164040151156
    037646  aa   166157 154166   16318  	oct	166157154166
    037647  aa   145040 141040   16319  	oct	145040141040
    037650  aa   144141 164141   16320  	oct	144141164141
    037651  aa   055156 141155   16321  	oct	055156141155
    037652  aa   145040 105170   16322  	oct	145040105170
    037653  aa   160145 143164   16323  	oct	160145143164
    037654  aa   145144 040167   16324  	oct	145144040167
    037655  aa   157162 144040   16325  	oct	157162144040
    037656  aa   151163 040156   16326  	oct	151163040156
    037657  aa   157156 156165   16327  	oct	157156156165
    037660  aa   155145 162151   16328  	oct	155145162151
    037661  aa   143040 154151   16329  	oct	143040154151
    037662  aa   164145 162141   16330  	oct	164145162141
    037663  aa   154040 154145   16331  	oct	154040154145
    037664  aa   163163 040164   16332  	oct	163163040164
    037665  aa   150141 156040   16333  	oct	150141156040
    037666  aa   066066 040143   16334  	oct	066066040143
    037667  aa   150141 162141   16335  	oct	150141162141
    037670  aa   143164 145162   16336  	oct	143164145162
    037671  aa   163040 151156   16337  	oct	163040151156
    037672  aa   040154 145156   16338  	oct	040154145156
    037673  aa   147164 150040   16339  	oct	147164150040
    037674  aa   114145 156147   16340  	oct	114145156147
    037675  aa   164150 040157   16341  	oct	164150040157
    037676  aa   166145 162040   16342  	oct	166145162040
    037677  aa   063060 040143   16343  	oct	063060040143
    037700  aa   150141 162141   16344  	oct	150141162141
    037701  aa   143164 145162   16345  	oct	143164145162
    037702  aa   163040 166151   16346  	oct	163040166151
    037703  aa   157154 141164   16347  	oct	157154141164
    037704  aa   145163 040125   16348  	oct	145163040125
    037705  aa   120114 040162   16349  	oct	120114040162
    037706  aa   165154 145163   16350  	oct	165154145163
    037707  aa   040106 151154   16351  	oct	040106151154
    037710  aa   145040 167151   16352  	oct	145040167151
    037711  aa   164150 040163   16353  	oct	164150040163
    037712  aa   164162 145141   16354  	oct	164162145141
    037713  aa   155040 157162   16355  	oct	155040157162
    037714  aa   147141 156151   16356  	oct	147141156151
    037715  aa   172141 164151   16357  	oct	172141164151
    037716  aa   157156 040143   16358  	oct	157156040143
    037717  aa   141156 156157   16359  	oct	141156156157
    037720  aa   164040 142145   16360  	oct	164040142145
    037721  aa   040157 160145   16361  	oct	040157160145
    037722  aa   156145 144040   16362  	oct	156145144040
    037723  aa   151156 040111   16363  	oct	151156040111
    037724  aa   055117 040155   16364  	oct	055117040155
    037725  aa   157144 145040   16365  	oct	157144145040
    037726  aa   106151 154145   16366  	oct	106151154145
    037727  aa   040157 162147   16367  	oct	040157162147
    037730  aa   141156 151172   16368  	oct	141156151172
    037731  aa   141164 151157   16369  	oct	141164151157
    037732  aa   156040 151163   16370  	oct	156040151163
    037733  aa   040156 145151   16371  	oct	040156145151
    037734  aa   164150 145162   16372  	oct	164150145162
    037735  aa   040163 145161   16373  	oct	040163145161
    037736  aa   165145 156164   16374  	oct	165145156164
    037737  aa   151141 154040   16375  	oct	151141154040
    037740  aa   156157 162040   16376  	oct	156157162040
    037741  aa   163164 162145   16377  	oct	163164162145
    037742  aa   141155 040106   16378  	oct	141155040106
    037743  aa   151154 145040   16379  	oct	151154145040
    037744  aa   167151 164150   16380  	oct	167151164150
    037745  aa   040163 164162   16381  	oct	040163164162
    037746  aa   145141 155040   16382  	oct	145141155040
    037747  aa   157162 147141   16383  	oct	157162147141
    037750  aa   156151 172141   16384  	oct	156151172141
    037751  aa   164151 157156   16385  	oct	164151157156
    037752  aa   040143 141156   16386  	oct	040143141156
    037753  aa   156157 164040   16387  	oct	156157164040
    037754  aa   142145 040162   16388  	oct	142145040162
    037755  aa   145167 162151   16389  	oct	145167162151
    037756  aa   164164 145156   16390  	oct	164164145156
    037757  aa   040103 117115   16391  	oct	040103117115
    037760  aa   120111 114105   16392  	oct	120111114105
    037761  aa   122040 102125   16393  	oct	122040102125
    037762  aa   107054 040156   16394  	oct	107054040156
    037763  aa   157167 040050   16395  	oct	157167040050
    037764  aa   062064 070054   16396  	oct	062064070054
    037765  aa   063051 040117   16397  	oct	063051040117
    037766  aa   116040 117126   16398  	oct	116040117126
    037767  aa   105122 106114   16399  	oct	105122106114
    037770  aa   117127 040157   16400  	oct	117127040157
    037771  aa   160164 151157   16401  	oct	160164151157
    037772  aa   156040 145170   16402  	oct	156040145170
    037773  aa   160145 143164   16403  	oct	160145143164
    037774  aa   145144 040101   16404  	oct	145144040101
    037775  aa   040163 143157   16405  	oct	040163143157
    037776  aa   160145 040144   16406  	oct	160145040144
    037777  aa   145154 151155   16407  	oct	145154151155
    040000  aa   151164 145162   16408  	oct	151164145162
    040001  aa   040143 157165   16409  	oct	040143157165
    040002  aa   154144 040156   16410  	oct	154144040156
    040003  aa   157164 040142   16411  	oct	157164040142
    040004  aa   145040 155141   16412  	oct	145040155141
    040005  aa   164143 150145   16413  	oct	164143150145
    040006  aa   144040 167151   16414  	oct	144040167151
    040007  aa   164150 040141   16415  	oct	164150040141
    040010  aa   040163 164141   16416  	oct	040163164141
    040011  aa   164145 155145   16417  	oct	164145155145
    040012  aa   156164 040166   16418  	oct	156164040166
    040013  aa   145162 142040   16419  	oct	145162142040
    040014  aa   101040 162145   16420  	oct	101040162145
    040015  aa   146145 162145   16421  	oct	146145162145
    040016  aa   156143 145040   16422  	oct	156143145040
    040017  aa   164157 040141   16423  	oct	164157040141
    040020  aa   040156 157156   16424  	oct	040156157156
    040021  aa   055144 145143   16425  	oct	055144145143
    040022  aa   154141 162141   16426  	oct	154141162141
    040023  aa   164151 166145   16427  	oct	164151166145
    040024  aa   040160 162157   16428  	oct	040160162157
    040025  aa   143145 144165   16429  	oct	143145144165
    040026  aa   162145 055156   16430  	oct	162145055156
    040027  aa   141155 145040   16431  	oct	141155145040
    040030  aa   150141 163040   16432  	oct	150141163040
    040031  aa   157143 143165   16433  	oct	157143143165
    040032  aa   162162 145144   16434  	oct	162162145144
    040033  aa   040151 156040   16435  	oct	040151156040
    040034  aa   164150 145040   16436  	oct	164150145040
    040035  aa   144145 143154   16437  	oct	144145143154
    040036  aa   141162 141164   16438  	oct	141162141164
    040037  aa   151166 145163   16439  	oct	151166145163
    040040  aa   040124 150145   16440  	oct	040124150145
    040041  aa   040167 157162   16441  	oct	040167157162
    040042  aa   144040 124117   16442  	oct	144040124117
    040043  aa   040151 163040   16443  	oct	040151163040
    040044  aa   162145 161165   16444  	oct	162145161165
    040045  aa   151162 145144   16445  	oct	151162145144
    040046  aa   040150 145162   16446  	oct	040150145162
    040047  aa   145040 124150   16447  	oct	145040124150
    040050  aa   145040 167157   16448  	oct	145040167157
    040051  aa   162144 040117   16449  	oct	162144040117
    040052  aa   116040 157162   16450  	oct	116040157162
    040053  aa   040117 106106   16451  	oct	040117106106
    040054  aa   040151 163040   16452  	oct	040151163040
    040055  aa   162145 161165   16453  	oct	162145161165
    040056  aa   151162 145144   16454  	oct	151162145144
    040057  aa   040150 145162   16455  	oct	040150145162
    040060  aa   145040 124150   16456  	oct	145040124150
    040061  aa   145040 167157   16457  	oct	145040167157
    040062  aa   162144 040123   16458  	oct	162144040123
    040063  aa   105121 125105   16459  	oct	105121125105
    040064  aa   116103 105040   16460  	oct	116103105040
    040065  aa   151163 040162   16461  	oct	151163040162
    040066  aa   145161 165151   16462  	oct	145161165151
    040067  aa   162145 144040   16463  	oct	162145144040
    040070  aa   150145 162145   16464  	oct	150145162145
    040071  aa   040101 156040   16465  	oct	040101156040
    040072  aa   141154 160150   16466  	oct	141154160150
    040073  aa   141142 145164   16467  	oct	141142145164
    040074  aa   055156 141155   16468  	oct	055156141155
    040075  aa   145040 151163   16469  	oct	145040151163
    040076  aa   040162 145161   16470  	oct	040162145161
    040077  aa   165151 162145   16471  	oct	165151162145
    040100  aa   144040 150145   16472  	oct	144040150145
    040101  aa   162145 040116   16473  	oct	162145040116
    040102  aa   145151 164150   16474  	oct	145151164150
    040103  aa   145162 040141   16475  	oct	145162040141
    040104  aa   156040 151156   16476  	oct	156040151156
    040105  aa   144145 170040   16477  	oct	144145170040
    040106  aa   156141 155145   16478  	oct	156141155145
    040107  aa   040156 157162   16479  	oct	040156157162
    040110  aa   040141 156040   16480  	oct	040141156040
    040111  aa   151156 144145   16481  	oct	151156144145
    040112  aa   170040 144141   16482  	oct	170040144141
    040113  aa   164141 040151   16483  	oct	164141040151
    040114  aa   164145 155040   16484  	oct	164145155040
    040115  aa   155141 171040   16485  	oct	155141171040
    040116  aa   157143 143165   16486  	oct	157143143165
    040117  aa   162040 150145   16487  	oct	162040150145
    040120  aa   162145 040124   16488  	oct	162145040124
    040121  aa   150151 163040   16489  	oct	150151163040
    040122  aa   163165 142163   16490  	oct	163165142163
    040123  aa   143162 151160   16491  	oct	143162151160
    040124  aa   164145 144040   16492  	oct	164145144040
    040125  aa   144141 164141   16493  	oct	144141164141
    040126  aa   040151 164145   16494  	oct	040151164145
    040127  aa   155040 162145   16495  	oct	155040162145
    040130  aa   146145 162145   16496  	oct	146145162145
    040131  aa   156143 145040   16497  	oct	156143145040
    040132  aa   143157 156164   16498  	oct	143157156164
    040133  aa   141151 156163   16499  	oct	141151156163
    040134  aa   040141 156040   16500  	oct	040141156040
    040135  aa   157165 164055   16501  	oct	157165164055
    040136  aa   157146 055162   16502  	oct	157146055162
    040137  aa   141156 147145   16503  	oct	141156147145
    040140  aa   040163 165142   16504  	oct	040163165142
    040141  aa   163143 162151   16505  	oct	163143162151
    040142  aa   160164 040124   16506  	oct	160164040124
    040143  aa   150151 163040   16507  	oct	150151163040
    040144  aa   166141 154165   16508  	oct	166141154165
    040145  aa   145040 151163   16509  	oct	145040151163
    040146  aa   040157 165164   16510  	oct	040157165164
    040147  aa   055157 146055   16511  	oct	055157146055
    040150  aa   162141 156147   16512  	oct	162141156147
    040151  aa   145040 146157   16513  	oct	145040146157
    040152  aa   162040 141156   16514  	oct	162040141156
    040153  aa   040151 156144   16515  	oct	040151156144
    040154  aa   145170 040156   16516  	oct	145170040156
    040155  aa   141155 145040   16517  	oct	141155145040
    040156  aa   167150 151143   16518  	oct	167150151143
    040157  aa   150040 160162   16519  	oct	150040160162
    040160  aa   145143 145145   16520  	oct	145143145145
    040161  aa   144163 040151   16521  	oct	144163040151
    040162  aa   164040 105170   16522  	oct	164040105170
    040163  aa   160145 143164   16523  	oct	160145143164
    040164  aa   145144 040167   16524  	oct	145144040167
    040165  aa   157162 144040   16525  	oct	157162144040
    040166  aa   151163 040106   16526  	oct	151163040106
    040167  aa   122117 115040   16527  	oct	122117115040
    040170  aa   157162 040127   16528  	oct	157162040127
    040171  aa   111124 110040   16529  	oct	111124110040
    040172  aa   106151 154145   16530  	oct	106151154145
    040173  aa   040157 162147   16531  	oct	040157162147
    040174  aa   141156 151172   16532  	oct	141156151172
    040175  aa   141164 151157   16533  	oct	141164151157
    040176  aa   156040 144157   16534  	oct	156040144157
    040177  aa   145163 040156   16535  	oct	145163040156
    040200  aa   157164 040163   16536  	oct	157164040163
    040201  aa   165160 160157   16537  	oct	165160160157
    040202  aa   162164 040164   16538  	oct	162164040164
    040203  aa   150151 163040   16539  	oct	150151163040
    040204  aa   163164 141164   16540  	oct	163164141164
    040205  aa   145155 145156   16541  	oct	145155145156
    040206  aa   164040 111164   16542  	oct	164040111164
    040207  aa   145155 040151   16543  	oct	145155040151
    040210  aa   163040 156157   16544  	oct	163040156157
    040211  aa   164040 141156   16545  	oct	164040141156
    040212  aa   040151 144145   16546  	oct	040151144145
    040213  aa   156164 151146   16547  	oct	156164151146
    040214  aa   151145 162054   16548  	oct	151145162054
    040215  aa   040151 156144   16549  	oct	040151156144
    040216  aa   145170 040156   16550  	oct	145170040156
    040217  aa   141155 145040   16551  	oct	141155145040
    040220  aa   157162 040141   16552  	oct	157162040141
    040221  aa   040160 157163   16553  	oct	040160157163
    040222  aa   151164 151166   16554  	oct	151164151166
    040223  aa   145040 151156   16555  	oct	145040151156
    040224  aa   164145 147145   16556  	oct	164145147145
    040225  aa   162040 124150   16557  	oct	162040124150
    040226  aa   145040 146151   16558  	oct	145040146151
    040227  aa   162163 164040   16559  	oct	162163164040
    040230  aa   164145 162155   16560  	oct	164145162155
    040231  aa   040151 156040   16561  	oct	040151156040
    040232  aa   141156 040141   16562  	oct	141156040141
    040233  aa   142142 162145   16563  	oct	142142162145
    040234  aa   166151 141164   16564  	oct	166151141164
    040235  aa   145144 040143   16565  	oct	145144040143
    040236  aa   157155 142151   16566  	oct	157155142151
    040237  aa   156145 144040   16567  	oct	156145144040
    040240  aa   162145 154141   16568  	oct	162145154141
    040241  aa   164151 157156   16569  	oct	164151157156
    040242  aa   040143 157156   16570  	oct	040143157156
    040243  aa   144151 164151   16571  	oct	144151164151
    040244  aa   157156 040155   16572  	oct	157156040155
    040245  aa   165163 164040   16573  	oct	165163164040
    040246  aa   142145 040141   16574  	oct	142145040141
    040247  aa   040162 145154   16575  	oct	040162145154
    040250  aa   141164 151157   16576  	oct	141164151157
    040251  aa   156040 143157   16577  	oct	156040143157
    040252  aa   156144 151164   16578  	oct	156144151164
    040253  aa   151157 156040   16579  	oct	151157156040
    040254  aa   176124 150145   16580  	oct	176124150145
    040255  aa   040167 157162   16581  	oct	040167157162
    040256  aa   144040 125123   16582  	oct	144040125123
    040257  aa   111116 107040   16583  	oct	111116107040
    040260  aa   151163 040162   16584  	oct	151163040162
    040261  aa   145161 165151   16585  	oct	145161165151
    040262  aa   162145 144040   16586  	oct	162145144040
    040263  aa   150145 162145   16587  	oct	150145162145
    040264  aa   040101 040154   16588  	oct	040101040154
    040265  aa   141156 147165   16589  	oct	141156147165
    040266  aa   141147 145040   16590  	oct	141147145040
    040267  aa   156141 155145   16591  	oct	156141155145
    040270  aa   040151 163040   16592  	oct	040151163040
    040271  aa   162145 161165   16593  	oct	162145161165
    040272  aa   151162 145144   16594  	oct	151162145144
    040273  aa   040150 145162   16595  	oct	040150145162
    040274  aa   145040 124150   16596  	oct	145040124150
    040275  aa   145040 167157   16597  	oct	145040167157
    040276  aa   162144 040132   16598  	oct	162144040132
    040277  aa   105122 117040   16599  	oct	105122117040
    040300  aa   151163 040162   16600  	oct	151163040162
    040301  aa   145161 165151   16601  	oct	145161165151
    040302  aa   162145 144040   16602  	oct	162145144040
    040303  aa   150145 162145   16603  	oct	150145162145
    040304  aa   040101 040162   16604  	oct	040101040162
    040305  aa   157165 164151   16605  	oct	157165164151
    040306  aa   156145 040156   16606  	oct	156145040156
    040307  aa   141155 145040   16607  	oct	141155145040
    040310  aa   151163 040162   16608  	oct	151163040162
    040311  aa   145161 165151   16609  	oct	145161165151
    040312  aa   162145 144040   16610  	oct	162145144040
    040313  aa   150145 162145   16611  	oct	150145162145
    040314  aa   040101 040160   16612  	oct	040101040160
    040315  aa   145162 151157   16613  	oct	145162151157
    040316  aa   144040 151163   16614  	oct	144040151163
    040317  aa   040162 145161   16615  	oct	040162145161
    040320  aa   165151 162145   16616  	oct	165151162145
    040321  aa   144040 141146   16617  	oct	144040141146
    040322  aa   164145 162040   16618  	oct	164145162040
    040323  aa   164150 151163   16619  	oct	164150151163
    040324  aa   040167 157162   16620  	oct	040167157162
    040325  aa   144040 101156   16621  	oct	144040101156
    040326  aa   040151 156144   16622  	oct	040151156144
    040327  aa   145170 040144   16623  	oct	145170040144
    040330  aa   141164 141040   16624  	oct	141164141040
    040331  aa   151164 145155   16625  	oct	151164145155
    040332  aa   040151 163040   16626  	oct	040151163040
    040333  aa   151154 154145   16627  	oct	151154154145
    040334  aa   147141 154040   16628  	oct	147141154040
    040335  aa   150145 162145   16629  	oct	150145162145
    040336  aa   040151 156040   16630  	oct	040151156040
    040337  aa   141040 163145   16631  	oct	141040163145
    040340  aa   164040 163164   16632  	oct	164040163164
    040341  aa   141164 145155   16633  	oct	141164145155
    040342  aa   145156 164040   16634  	oct	145156164040
    040343  aa   101156 040151   16635  	oct	101156040151
    040344  aa   156164 145147   16636  	oct	156164145147
    040345  aa   145162 040144   16637  	oct	145162040144
    040346  aa   141164 141040   16638  	oct	141164141040
    040347  aa   151164 145155   16639  	oct	151164145155
    040350  aa   040151 163040   16640  	oct	040151163040
    040351  aa   151154 154145   16641  	oct	151154154145
    040352  aa   147141 154040   16642  	oct	147141154040
    040353  aa   150145 162145   16643  	oct	150145162145
    040354  aa   040151 156040   16644  	oct	040151156040
    040355  aa   141040 163145   16645  	oct	141040163145
    040356  aa   164040 163164   16646  	oct	164040163164
    040357  aa   141164 145155   16647  	oct	141164145155
    040360  aa   145156 164040   16648  	oct	145156164040
    040361  aa   101156 040151   16649  	oct	101156040151
    040362  aa   156164 145147   16650  	oct	156164145147
    040363  aa   145162 040154   16651  	oct	145162040154
    040364  aa   151164 145162   16652  	oct	151164145162
    040365  aa   141154 040151   16653  	oct	141154040151
    040366  aa   163040 151154   16654  	oct	163040151154
    040367  aa   154145 147141   16655  	oct	154145147141
    040370  aa   154040 150145   16656  	oct	154040150145
    040371  aa   162145 040151   16657  	oct	162145040151
    040372  aa   156040 141040   16658  	oct	156040141040
    040373  aa   163145 164040   16659  	oct	163145164040
    040374  aa   163164 141164   16660  	oct	163164141164
    040375  aa   145155 145156   16661  	oct	145155145156
    040376  aa   164040 124150   16662  	oct	164040124150
    040377  aa   145040 146151   16663  	oct	145040146151
    040400  aa   154145 040163   16664  	oct	154145040163
    040401  aa   160145 143151   16665  	oct	160145143151
    040402  aa   146151 145144   16666  	oct	146151145144
    040403  aa   040151 156040   16667  	oct	040151156040
    040404  aa   164150 145040   16668  	oct	164150145040
    040405  aa   167162 151164   16669  	oct	167162151164
    040406  aa   145040 163164   16670  	oct	145040163164
    040407  aa   141164 145155   16671  	oct	141164145155
    040410  aa   145156 164040   16672  	oct	145156164040
    040411  aa   151156 040156   16673  	oct	151156040156
    040412  aa   157164 040141   16674  	oct	157164040141
    040413  aa   040154 145147   16675  	oct	040154145147
    040414  aa   141154 040160   16676  	oct	141154040160
    040415  aa   162151 156164   16677  	oct	162151156164
    040416  aa   040146 151154   16678  	oct	040146151154
    040417  aa   145040 101144   16679  	oct	145040101144
    040420  aa   144162 145163   16680  	oct	144162145163
    040421  aa   163040 157146   16681  	oct	163040157146
    040422  aa   040164 150151   16682  	oct	040164150151
    040423  aa   163040 151164   16683  	oct	163040151164
    040424  aa   145155 040151   16684  	oct	145155040151
    040425  aa   163040 156157   16685  	oct	163040156157
    040426  aa   164040 164150   16686  	oct	164040164150
    040427  aa   145040 163141   16687  	oct	145040163141
    040430  aa   155145 040141   16688  	oct	155145040141
    040431  aa   163040 164150   16689  	oct	163040164150
    040432  aa   145040 141144   16690  	oct	145040141144
    040433  aa   144162 145163   16691  	oct	144162145163
    040434  aa   163040 157146   16692  	oct	163040157146
    040435  aa   040141 040162   16693  	oct	040141040162
    040436  aa   145143 157162   16694  	oct	145143157162
    040437  aa   144040 153145   16695  	oct	144040153145
    040440  aa   171040 105170   16696  	oct	171040105170
    040441  aa   160145 143164   16697  	oct	160145143164
    040442  aa   145144 040167   16698  	oct	145144040167
    040443  aa   157162 144040   16699  	oct	157162144040
    040444  aa   151163 040116   16700  	oct	151163040116
    040445  aa   117040 101040   16701  	oct	117040101040
    040446  aa   163143 157160   16702  	oct	163143157160
    040447  aa   145040 144145   16703  	oct	145040144145
    040450  aa   154151 155151   16704  	oct	154151155151
    040451  aa   164145 162040   16705  	oct	164145162040
    040452  aa   151163 040162   16706  	oct	151163040162
    040453  aa   145161 165151   16707  	oct	145161165151
    040454  aa   162145 144040   16708  	oct	162145144040
    040455  aa   150145 162145   16709  	oct	150145162145
    040456  aa   040126 145162   16710  	oct	040126145162
    040457  aa   142040 156157   16711  	oct	142040156157
    040460  aa   164040 160162   16712  	oct	164040160162
    040461  aa   157143 145163   16713  	oct	157143145163
    040462  aa   163145 144040   16714  	oct	163145144040
    040463  aa   171145 164040   16715  	oct	171145164040
    040464  aa   106151 154145   16716  	oct	106151154145
    040465  aa   040157 162147   16717  	oct	040157162147
    040466  aa   141156 151172   16718  	oct	141156151172
    040467  aa   141164 151157   16719  	oct	141164151157
    040470  aa   156040 151163   16720  	oct	156040151163
    040471  aa   040156 157164   16721  	oct	040156157164
    040472  aa   040163 145161   16722  	oct	040163145161
    040473  aa   165145 156164   16723  	oct	165145156164
    040474  aa   151141 154040   16724  	oct	151141154040
    040475  aa   105170 160145   16725  	oct	105170160145
    040476  aa   143164 145144   16726  	oct	143164145144
    040477  aa   040167 157162   16727  	oct	040167157162
    040500  aa   144040 151163   16728  	oct	144040151163
    040501  aa   040106 122117   16729  	oct	040106122117
    040502  aa   115040 124150   16730  	oct	115040124150
    040503  aa   145040 167157   16731  	oct	145040167157
    040504  aa   162144 040105   16732  	oct	162144040105
    040505  aa   114123 105040   16733  	oct	114123105040
    040506  aa   157162 040160   16734  	oct	157162040160
    040507  aa   145162 151157   16735  	oct	145162151157
    040510  aa   144040 050145   16736  	oct	144040050145
    040511  aa   156144 040157   16737  	oct	156144040157
    040512  aa   146040 163145   16738  	oct	146040163145
    040513  aa   156164 145156   16739  	oct	156164145156
    040514  aa   143145 051040   16740  	oct	143145051040
    040515  aa   151163 040145   16741  	oct	151163040145
    040516  aa   170160 145143   16742  	oct	170160145143
    040517  aa   164145 144040   16743  	oct	164145144040
    040520  aa   150145 162145   16744  	oct	150145162145
    040521  aa   040124 150145   16745  	oct	040124150145
    040522  aa   040116 105130   16746  	oct	040116105130
    040523  aa   124040 123105   16747  	oct	124040123105
    040524  aa   116124 105116   16748  	oct	116124105116
    040525  aa   103105 040160   16749  	oct	103105040160
    040526  aa   150162 141163   16750  	oct	150162141163
    040527  aa   145040 141156   16751  	oct	145040141156
    040530  aa   144040 164150   16752  	oct	144040164150
    040531  aa   145040 163143   16753  	oct	145040163143
    040532  aa   157160 145040   16754  	oct	157160145040
    040533  aa   144145 154151   16755  	oct	144145154151
    040534  aa   155151 164145   16756  	oct	155151164145
    040535  aa   162040 105116   16757  	oct	162040105116
    040536  aa   104055 111106   16758  	oct	104055111106
    040537  aa   040155 141171   16759  	oct	040155141171
    040540  aa   040156 157164   16760  	oct	040156157164
    040541  aa   040157 143143   16761  	oct	040157143143
    040542  aa   165162 040151   16762  	oct	165162040151
    040543  aa   156040 164150   16763  	oct	156040164150
    040544  aa   145040 163141   16764  	oct	145040163141
    040545  aa   155145 040111   16765  	oct	155145040111
    040546  aa   106040 163164   16766  	oct	106040163164
    040547  aa   141164 145155   16767  	oct	141164145155
    040550  aa   145156 164040   16768  	oct	145156164040
    040551  aa   105170 160145   16769  	oct	105170160145
    040552  aa   143164 145144   16770  	oct	143164145144
    040553  aa   040167 157162   16771  	oct	040167157162
    040554  aa   144040 151163   16772  	oct	144040151163
    040555  aa   040105 116104   16773  	oct	040105116104
    040556  aa   055117 106055   16774  	oct	055117106055
    040557  aa   120101 107105   16775  	oct	120101107105
    040560  aa   040105 170160   16776  	oct	040105170160
    040561  aa   145143 164145   16777  	oct	145143164145
    040562  aa   144040 167157   16778  	oct	144040167157
    040563  aa   162144 040151   16779  	oct	162144040151
    040564  aa   163040 105116   16780  	oct	163040105116
    040565  aa   104040 105170   16781  	oct	104040105170
    040566  aa   160145 143164   16782  	oct	160145143164
    040567  aa   145144 040167   16783  	oct	145144040167
    040570  aa   157162 144040   16784  	oct	157162144040
    040571  aa   151163 040117   16785  	oct	151163040117
    040572  aa   126105 122106   16786  	oct	126105122106
    040573  aa   114117 127040   16787  	oct	114117127040
    040574  aa   105170 160145   16788  	oct	105170160145
    040575  aa   143164 145144   16789  	oct	143164145144
    040576  aa   040167 157162   16790  	oct	040167157162
    040577  aa   144040 151163   16791  	oct	144040151163
    040600  aa   040123 111132   16792  	oct	040123111132
    040601  aa   105040 105170   16793  	oct	105040105170
    040602  aa   160145 143164   16794  	oct	160145143164
    040603  aa   145144 040167   16795  	oct	145144040167
    040604  aa   157162 144040   16796  	oct	157162144040
    040605  aa   151163 040105   16797  	oct	151163040105
    040606  aa   122122 117122   16798  	oct	122122117122
    040607  aa   040105 170160   16799  	oct	040105170160
    040610  aa   145143 164145   16800  	oct	145143164145
    040611  aa   144040 167157   16801  	oct	144040167157
    040612  aa   162144 040151   16802  	oct	162144040151
    040613  aa   163040 105116   16803  	oct	163040105116
    040614  aa   104055 120105   16804  	oct	104055120105
    040615  aa   122106 117122   16805  	oct	122106117122
    040616  aa   115040 105170   16806  	oct	115040105170
    040617  aa   160145 143164   16807  	oct	160145143164
    040620  aa   145144 040167   16808  	oct	145144040167
    040621  aa   157162 144040   16809  	oct	157162144040
    040622  aa   151163 040075   16810  	oct	151163040075
    040623  aa   040157 162040   16811  	oct	040157162040
    040624  aa   105121 125101   16812  	oct	105121125101
    040625  aa   114040 157162   16813  	oct	114040157162
    040626  aa   040105 121125   16814  	oct	040105121125
    040627  aa   101114 123040   16815  	oct	101114123040
    040630  aa   105170 160145   16816  	oct	105170160145
    040631  aa   143164 145144   16817  	oct	143164145144
    040632  aa   040167 157162   16818  	oct	040167157162
    040633  aa   144040 151163   16819  	oct	144040151163
    040634  aa   040111 123040   16820  	oct	040111123040
    040635  aa   157162 040075   16821  	oct	157162040075
    040636  aa   040157 162040   16822  	oct	040157162040
    040637  aa   105121 125101   16823  	oct	105121125101
    040640  aa   114040 157162   16824  	oct	114040157162
    040641  aa   040105 121125   16825  	oct	040105121125
    040642  aa   101114 123040   16826  	oct	101114123040
    040643  aa   111164 145155   16827  	oct	111164145155
    040644  aa   040151 163040   16828  	oct	040151163040
    040645  aa   156157 164040   16829  	oct	156157164040
    040646  aa   151144 145156   16830  	oct	151144145156
    040647  aa   164151 146151   16831  	oct	164151146151
    040650  aa   145162 040157   16832  	oct	145162040157
    040651  aa   162040 154151   16833  	oct	162040154151
    040652  aa   164145 162141   16834  	oct	164145162141
    040653  aa   154040 157162   16835  	oct	154040157162
    040654  aa   040141 162151   16836  	oct	040141162151
    040655  aa   164150 155145   16837  	oct	164150155145
    040656  aa   164151 143040   16838  	oct	164151143040
    040657  aa   145170 160162   16839  	oct	145170160162
    040660  aa   145163 163151   16840  	oct	145163163151
    040661  aa   157156 040105   16841  	oct	157156040105
    040662  aa   170160 145143   16842  	oct	170160145143
    040663  aa   164145 144040   16843  	oct	164145144040
    040664  aa   167157 162144   16844  	oct	167157162144
    040665  aa   040151 163040   16845  	oct	040151163040
    040666  aa   132105 122117   16846  	oct	132105122117
    040667  aa   040111 164145   16847  	oct	040111164145
    040670  aa   155040 151163   16848  	oct	155040151163
    040671  aa   040156 157164   16849  	oct	040156157164
    040672  aa   040144 141164   16850  	oct	040144141164
    040673  aa   141040 156141   16851  	oct	141040156141
    040674  aa   155145 040157   16852  	oct	155145040157
    040675  aa   162040 154151   16853  	oct	162040154151
    040676  aa   164145 162141   16854  	oct	164145162141
    040677  aa   154040 124150   16855  	oct	154040124150
    040700  aa   145040 116105   16856  	oct	145040116105
    040701  aa   130124 040123   16857  	oct	130124040123
    040702  aa   105116 124105   16858  	oct	105116124105
    040703  aa   116103 105040   16859  	oct	116103105040
    040704  aa   160150 162141   16860  	oct	160150162141
    040705  aa   163145 040141   16861  	oct	163145040141
    040706  aa   156144 040164   16862  	oct	156144040164
    040707  aa   150145 040163   16863  	oct	150145040163
    040710  aa   143157 160145   16864  	oct	143157160145
    040711  aa   040144 145154   16865  	oct	040144145154
    040712  aa   151155 151164   16866  	oct	151155151164
    040713  aa   145162 040105   16867  	oct	145162040105
    040714  aa   116104 055111   16868  	oct	116104055111
    040715  aa   106040 155141   16869  	oct	106040155141
    040716  aa   171040 156157   16870  	oct	171040156157
    040717  aa   164040 157143   16871  	oct	164040157143
    040720  aa   143165 162040   16872  	oct	143165162040
    040721  aa   151156 040164   16873  	oct	151156040164
    040722  aa   150145 040163   16874  	oct	150145040163
    040723  aa   141155 145040   16875  	oct	141155145040
    040724  aa   123105 101122   16876  	oct	123105101122
    040725  aa   103110 040163   16877  	oct	103110040163
    040726  aa   164141 164145   16878  	oct	164141164145
    040727  aa   155145 156164   16879  	oct	155145156164
    040730  aa   040122 145146   16880  	oct	040122145146
    040731  aa   145162 145156   16881  	oct	145162145156
    040732  aa   143145 040164   16882  	oct	143145040164
    040733  aa   157040 144141   16883  	oct	157040144141
    040734  aa   164141 055156   16884  	oct	164141055156
    040735  aa   141155 145040   16885  	oct	141155145040
    040736  aa   151163 040141   16886  	oct	151163040141
    040737  aa   155142 151147   16887  	oct	155142151147
    040740  aa   165157 165163   16888  	oct	165157165163
    040741  aa   040104 141164   16889  	oct	040104141164
    040742  aa   141055 156141   16890  	oct	141055156141
    040743  aa   155145 040156   16891  	oct	155145040156
    040744  aa   157164 040144   16892  	oct	157164040144
    040745  aa   145146 151156   16893  	oct	145146151156
    040746  aa   145144 040121   16894  	oct	145144040121
    040747  aa   165141 154151   16895  	oct	165141154151
    040750  aa   146151 145144   16896  	oct	146151145144
    040751  aa   040162 145146   16897  	oct	040162145146
    040752  aa   145162 145156   16898  	oct	145162145156
    040753  aa   143145 040164   16899  	oct	143145040164
    040754  aa   157040 144141   16900  	oct	157040144141
    040755  aa   164141 055156   16901  	oct	164141055156
    040756  aa   141155 145040   16902  	oct	141155145040
    040757  aa   151163 040141   16903  	oct	151163040141
    040760  aa   155142 151147   16904  	oct	155142151147
    040761  aa   165157 165163   16905  	oct	165157165163
    040762  aa   040120 162157   16906  	oct	040120162157
    040763  aa   143145 144165   16907  	oct	143145144165
    040764  aa   162145 055156   16908  	oct	162145055156
    040765  aa   141155 145040   16909  	oct	141155145040
    040766  aa   156157 164040   16910  	oct	156157164040
    040767  aa   144145 146151   16911  	oct	144145146151
    040770  aa   156145 144040   16912  	oct	156145144040
    040771  aa   120162 157143   16913  	oct	120162157143
    040772  aa   145144 165162   16914  	oct	145144165162
    040773  aa   145055 156141   16915  	oct	145055156141
    040774  aa   155145 040155   16916  	oct	155145040155
    040775  aa   165154 164151   16917  	oct	165154164151
    040776  aa   160154 171040   16918  	oct	160154171040
    040777  aa   144145 146151   16919  	oct	144145146151
    041000  aa   156145 144040   16920  	oct	156145144040
    041001  aa   104141 164141   16921  	oct	104141164141
    041002  aa   055156 141155   16922  	oct	055156141155
    041003  aa   145040 155165   16923  	oct	145040155165
    041004  aa   154164 151160   16924  	oct	154164151160
    041005  aa   154171 040144   16925  	oct	154171040144
    041006  aa   145146 151156   16926  	oct	145146151156
    041007  aa   145144 040102   16927  	oct	145144040102
    041010  aa   141144 040143   16928  	oct	141144040143
    041011  aa   157155 160157   16929  	oct	157155160157
    041012  aa   156145 156164   16930  	oct	156145156164
    041013  aa   040151 156040   16931  	oct	040151156040
    041014  aa   163165 142163   16932  	oct	163165142163
    041015  aa   143162 151160   16933  	oct	143162151160
    041016  aa   164040 116165   16934  	oct	164040116165
    041017  aa   155145 162151   16935  	oct	155145162151
    041020  aa   143040 154151   16936  	oct	143040154151
    041021  aa   164145 162141   16937  	oct	164145162141
    041022  aa   154054 040144   16938  	oct	154054040144
    041023  aa   141164 141055   16939  	oct	141164141055
    041024  aa   156141 155145   16940  	oct	156141155145
    041025  aa   054040 157162   16941  	oct	054040157162
    041026  aa   040151 156144   16942  	oct	040151156144
    041027  aa   145170 055156   16943  	oct	145170055156
    041030  aa   141155 145040   16944  	oct	141155145040
    041031  aa   145170 160145   16945  	oct	145170160145
    041032  aa   143164 145144   16946  	oct	143164145144
    041033  aa   040150 145162   16947  	oct	040150145162
    041034  aa   145040 116165   16948  	oct	145040116165
    041035  aa   155145 162151   16949  	oct	155145162151
    041036  aa   143040 154151   16950  	oct	143040154151
    041037  aa   164145 162141   16951  	oct	164145162141
    041040  aa   154040 145170   16952  	oct	154040145170
    041041  aa   160145 143164   16953  	oct	160145143164
    041042  aa   145144 040150   16954  	oct	145144040150
    041043  aa   145162 145040   16955  	oct	145162145040
    041044  aa   111156 143157   16956  	oct	111156143157
    041045  aa   155160 154145   16957  	oct	155160154145
    041046  aa   164145 040161   16958  	oct	164145040161
    041047  aa   165141 154151   16959  	oct	165141154151
    041050  aa   146151 143141   16960  	oct	146151143141
    041051  aa   164151 157156   16961  	oct	164151157156
    041052  aa   040055 040144   16962  	oct	040055040144
    041053  aa   141164 141055   16963  	oct	141164141055
    041054  aa   156141 155145   16964  	oct	156141155145
    041055  aa   040145 170160   16965  	oct	040145170160
    041056  aa   145143 164145   16966  	oct	145143164145
    041057  aa   144040 150145   16967  	oct	144040150145
    041060  aa   162145 040124   16968  	oct	162145040124
    041061  aa   157157 040155   16969  	oct	157157040155
    041062  aa   141156 171040   16970  	oct	141156171040
    041063  aa   161165 141154   16971  	oct	161165141154
    041064  aa   151146 151145   16972  	oct	151146151145
    041065  aa   162163 040151   16973  	oct	162163040151
    041066  aa   156040 164150   16974  	oct	156040164150
    041067  aa   151163 040162   16975  	oct	151163040162
    041070  aa   145146 145162   16976  	oct	145146145162
    041071  aa   145156 143145   16977  	oct	145156143145
    041072  aa   040121 165141   16978  	oct	040121165141
    041073  aa   154151 146151   16979  	oct	154151146151
    041074  aa   145144 040156   16980  	oct	145144040156
    041075  aa   141155 145040   16981  	oct	141155145040
    041076  aa   163164 141143   16982  	oct	163164141143
    041077  aa   153040 157166   16983  	oct	153040157166
    041100  aa   145162 146154   16984  	oct	145162146154
    041101  aa   157167 040123   16985  	oct	157167040123
    041102  aa   165142 163143   16986  	oct	165142163143
    041103  aa   162151 160164   16987  	oct	162151160164
    041104  aa   040163 164141   16988  	oct	040163164141
    041105  aa   143153 040157   16989  	oct	143153040157
    041106  aa   166145 162146   16990  	oct	166145162146
    041107  aa   154157 167040   16991  	oct	154157167040
    041110  aa   101040 144141   16992  	oct	101040144141
    041111  aa   164141 055156   16993  	oct	164141055156
    041112  aa   141155 145040   16994  	oct	141155145040
    041113  aa   155165 163164   16995  	oct	155165163164
    041114  aa   040156 157164   16996  	oct	040156157164
    041115  aa   040141 160160   16997  	oct	040141160160
    041116  aa   145141 162040   16998  	oct	145141162040
    041117  aa   155157 162145   16999  	oct	155157162145
    041120  aa   040164 150141   17000  	oct	040164150141
    041121  aa   156040 157156   17001  	oct	156040157156
    041122  aa   143145 040151   17002  	oct	143145040151
    041123  aa   156040 141040   17003  	oct	156040141040
    041124  aa   125123 111116   17004  	oct	125123111116
    041125  aa   107040 160150   17005  	oct	107040160150
    041126  aa   162141 163145   17006  	oct	162141163145
    041127  aa   040111 144145   17007  	oct	040111144145
    041130  aa   156164 151146   17008  	oct	156164151146
    041131  aa   151145 162040   17009  	oct	151145162040
    041132  aa   155165 163164   17010  	oct	155165163164
    041133  aa   040150 141166   17011  	oct	040150141166
    041134  aa   145040 141156   17012  	oct	145040141156
    041135  aa   040117 103103   17013  	oct	040117103103
    041136  aa   125122 123040   17014  	oct	125122123040
    041137  aa   143154 141165   17015  	oct	143154141165
    041140  aa   163145 040151   17016  	oct	163145040151
    041141  aa   156040 151164   17017  	oct	156040151164
    041142  aa   163040 144145   17018  	oct	163040144145
    041143  aa   163143 162151   17019  	oct	163143162151
    041144  aa   160164 151157   17020  	oct	160164151157
    041145  aa   156040 104141   17021  	oct	156040104141
    041146  aa   164141 055156   17022  	oct	164141055156
    041147  aa   141155 145040   17023  	oct	141155145040
    041150  aa   155165 163164   17024  	oct	155165163164
    041151  aa   040150 141166   17025  	oct	040150141166
    041152  aa   145040 141156   17026  	oct	145040141156
    041153  aa   040111 116104   17027  	oct	040111116104
    041154  aa   105130 105104   17028  	oct	105130105104
    041155  aa   040102 131040   17029  	oct	040102131040
    041156  aa   143154 141165   17030  	oct	143154141165
    041157  aa   163145 040151   17031  	oct	163145040151
    041160  aa   156040 151164   17032  	oct	156040151164
    041161  aa   163040 144145   17033  	oct	163040144145
    041162  aa   163143 162151   17034  	oct	163143162151
    041163  aa   160164 151157   17035  	oct	160164151157
    041164  aa   156040 104141   17036  	oct	156040104141
    041165  aa   164141 055156   17037  	oct	164141055156
    041166  aa   141155 145040   17038  	oct	141155145040
    041167  aa   155165 163164   17039  	oct	155165163164
    041170  aa   040150 141166   17040  	oct	040150141166
    041171  aa   145040 141040   17041  	oct	145040141040
    041172  aa   113105 131040   17042  	oct	113105131040
    041173  aa   111123 040143   17043  	oct	111123040143
    041174  aa   154141 165163   17044  	oct	154141165163
    041175  aa   145040 151156   17045  	oct	145040151156
    041176  aa   040151 164163   17046  	oct	040151164163
    041177  aa   040144 145163   17047  	oct	040144145163
    041200  aa   143162 151160   17048  	oct	143162151160
    041201  aa   164151 157156   17049  	oct	164151157156
    041202  aa   040104 141164   17050  	oct	040104141164
    041203  aa   141055 156141   17051  	oct	141055156141
    041204  aa   155145 040145   17052  	oct	155145040145
    041205  aa   170160 145143   17053  	oct	170160145143
    041206  aa   164145 144040   17054  	oct	164145144040
    041207  aa   150145 162145   17055  	oct	150145162145
    041210  aa   040105 122122   17056  	oct	040105122122
    041211  aa   117122 061071   17057  	oct	117122061071
    041212  aa   040111 164145   17058  	oct	040111164145
    041213  aa   155040 155165   17059  	oct	155040155165
    041214  aa   163164 040142   17060  	oct	163164040142
    041215  aa   145040 141156   17061  	oct	145040141156
    041216  aa   040165 156163   17062  	oct	040165156163
    041217  aa   151147 156145   17063  	oct	151147156145
    041220  aa   144040 151156   17064  	oct	144040151156
    041221  aa   164145 147145   17065  	oct	164145147145
    041222  aa   162040 125163   17066  	oct	162040125163
    041223  aa   145040 157146   17067  	oct	145040157146
    041224  aa   040141 040162   17068  	oct	040141040162
    041225  aa   145154 141164   17069  	oct	145154141164
    041226  aa   151166 145040   17070  	oct	151166145040
    041227  aa   153145 171040   17071  	oct	153145171040
    041230  aa   167151 164150   17072  	oct	167151164150
    041231  aa   151156 040141   17073  	oct	151156040141
    041232  aa   040162 145143   17074  	oct	040162145143
    041233  aa   157162 144040   17075  	oct	157162144040
    041234  aa   144145 163143   17076  	oct	144145163143
    041235  aa   162151 160164   17077  	oct	162151160164
    041236  aa   151157 156040   17078  	oct	151157156040
    041237  aa   151163 040141   17079  	oct	151163040141
    041240  aa   156040 145170   17080  	oct	156040145170
    041241  aa   164145 156163   17081  	oct	164145156163
    041242  aa   151157 156040   17082  	oct	151157156040
    041243  aa   164157 040101   17083  	oct	164157040101
    041244  aa   116123 040103   17084  	oct	116123040103
    041245  aa   117102 117114   17085  	oct	117102117114
    041246  aa   055067 064040   17086  	oct	055067064040
    041247  aa   111164 145155   17087  	oct	111164145155
    041250  aa   040155 165163   17088  	oct	040155165163
    041251  aa   164040 142145   17089  	oct	164040142145
    041252  aa   040141 154160   17090  	oct	040141154160
    041253  aa   150141 156165   17091  	oct	150141156165
    041254  aa   155145 162151   17092  	oct	155145162151
    041255  aa   143040 141156   17093  	oct	143040141156
    041256  aa   144040 156157   17094  	oct	144040156157
    041257  aa   164040 166141   17095  	oct	164040166141
    041260  aa   162151 141142   17096  	oct	162151141142
    041261  aa   154145 040154   17097  	oct	154145040154
    041262  aa   145156 147164   17098  	oct	145156147164
    041263  aa   150040 125163   17099  	oct	150040125163
    041264  aa   145040 157146   17100  	oct	145040157146
    041265  aa   040141 040162   17101  	oct	040141040162
    041266  aa   145143 157162   17102  	oct	145143157162
    041267  aa   144040 153145   17103  	oct	144040153145
    041270  aa   171040 157165   17104  	oct	171040157165
    041271  aa   164163 151144   17105  	oct	164163151144
    041272  aa   145040 164150   17106  	oct	145040164150
    041273  aa   145040 162145   17107  	oct	145040162145
    041274  aa   143157 162144   17108  	oct	143157162144
    041275  aa   040144 145163   17109  	oct	040144145163
    041276  aa   143162 151160   17110  	oct	143162151160
    041277  aa   164151 157156   17111  	oct	164151157156
    041300  aa   040151 163040   17112  	oct	040151163040
    041301  aa   141156 040145   17113  	oct	141156040145
    041302  aa   170164 145156   17114  	oct	170164145156
    041303  aa   163151 157156   17115  	oct	163151157156
    041304  aa   040164 157040   17116  	oct	040164157040
    041305  aa   101116 123040   17117  	oct	101116123040
    041306  aa   103117 102117   17118  	oct	103117102117
    041307  aa   114055 067064   17119  	oct	114055067064
    041310  aa   040124 150145   17120  	oct	040124150145
    041311  aa   040163 164141   17121  	oct	040163164141
    041312  aa   164165 163055   17122  	oct	164165163055
    041313  aa   153145 171040   17123  	oct	153145171040
    041314  aa   151163 040156   17124  	oct	151163040156
    041315  aa   157164 040141   17125  	oct	157164040141
    041316  aa   040164 167157   17126  	oct	040164167157
    041317  aa   055143 150141   17127  	oct	055143150141
    041320  aa   162141 143164   17128  	oct	162141143164
    041321  aa   145162 040141   17129  	oct	145162040141
    041322  aa   154160 150141   17130  	oct	154160150141
    041323  aa   156165 155145   17131  	oct	156165155145
    041324  aa   162151 143040   17132  	oct	162151143040
    041325  aa   146151 145154   17133  	oct	146151145154
    041326  aa   144040 124150   17134  	oct	144040124150
    041327  aa   151163 040144   17135  	oct	151163040144
    041330  aa   141164 141055   17136  	oct	141164141055
    041331  aa   156141 155145   17137  	oct	156141155145
    041332  aa   040151 163040   17138  	oct	040151163040
    041333  aa   156157 164040   17139  	oct	156157164040
    041334  aa   144145 163143   17140  	oct	144145163143
    041335  aa   162151 142145   17141  	oct	162151142145
    041336  aa   144040 141163   17142  	oct	144040141163
    041337  aa   040141 154160   17143  	oct	040141154160
    041340  aa   150141 156165   17144  	oct	150141156165
    041341  aa   155145 162151   17145  	oct	155145162151
    041342  aa   143040 124150   17146  	oct	143040124150
    041343  aa   145040 157142   17147  	oct	145040157142
    041344  aa   152145 143164   17148  	oct	152145143164
    041345  aa   040157 146040   17149  	oct	040157146040
    041346  aa   122105 116101   17150  	oct	122105116101
    041347  aa   115105 123040   17151  	oct	115105123040
    041350  aa   155165 163164   17152  	oct	155165163164
    041351  aa   040156 157164   17153  	oct	040156157164
    041352  aa   040150 141166   17154  	oct	040150141166
    041353  aa   145040 141156   17155  	oct	145040141156
    041354  aa   040117 103103   17156  	oct	040117103103
    041355  aa   125122 123040   17157  	oct	125122123040
    041356  aa   143154 141165   17158  	oct	143154141165
    041357  aa   163145 040151   17159  	oct	163145040151
    041360  aa   156040 151164   17160  	oct	156040151164
    041361  aa   163040 144141   17161  	oct	163040144141
    041362  aa   164141 040144   17162  	oct	164141040144
    041363  aa   145163 143162   17163  	oct	145163143162
    041364  aa   151160 164151   17164  	oct	151160164151
    041365  aa   157156 040156   17165  	oct	157156040156
    041366  aa   157162 040142   17166  	oct	157162040142
    041367  aa   145040 163165   17167  	oct	145040163165
    041370  aa   142157 162144   17168  	oct	142157162144
    041371  aa   151156 141164   17169  	oct	151156141164
    041372  aa   145040 164157   17170  	oct	145040164157
    041373  aa   040157 156145   17171  	oct	040157156145
    041374  aa   040101 040066   17172  	oct	040101040066
    041375  aa   066040 154145   17173  	oct	066040154145
    041376  aa   166145 154040   17174  	oct	166145154040
    041377  aa   145156 164162   17175  	oct	145156164162
    041400  aa   171040 155165   17176  	oct	171040155165
    041401  aa   163164 040156   17177  	oct	163164040156
    041402  aa   157164 040162   17178  	oct	157164040162
    041403  aa   145156 141155   17179  	oct	145156141155
    041404  aa   145040 141156   17180  	oct	145040141156
    041405  aa   157164 150145   17181  	oct	157164150145
    041406  aa   162040 066066   17182  	oct	162040066066
    041407  aa   040154 145166   17183  	oct	040154145166
    041410  aa   145154 040145   17184  	oct	145154040145
    041411  aa   156164 162171   17185  	oct	156164162171
    041412  aa   040156 157162   17186  	oct	040156157162
    041413  aa   040143 141156   17187  	oct	040143141156
    041414  aa   040151 164040   17188  	oct	040151164040
    041415  aa   162145 156141   17189  	oct	162145156141
    041416  aa   155145 040141   17190  	oct	155145040141
    041417  aa   040067 067054   17191  	oct	040067067054
    041420  aa   040070 070054   17192  	oct	040070070054
    041421  aa   040157 162040   17193  	oct	040157162040
    041422  aa   060061 040154   17194  	oct	060061040154
    041423  aa   145166 145154   17195  	oct	145166145154
    041424  aa   040145 156164   17196  	oct	040145156164
    041425  aa   162171 040122   17197  	oct	162171040122
    041426  aa   145156 141155   17198  	oct	145156141155
    041427  aa   145040 157142   17199  	oct	145040157142
    041430  aa   152145 143164   17200  	oct	152145143164
    041431  aa   061040 141156   17201  	oct	061040141156
    041432  aa   144040 157142   17202  	oct	144040157142
    041433  aa   152145 143164   17203  	oct	152145143164
    041434  aa   062040 141162   17204  	oct	062040141162
    041435  aa   145141 040162   17205  	oct	145141040162
    041436  aa   141156 147145   17206  	oct	141156147145
    041437  aa   040143 157156   17207  	oct	040143157156
    041440  aa   146154 151143   17208  	oct	146154151143
    041441  aa   164040 123171   17209  	oct	164040123171
    041442  aa   155142 157154   17210  	oct	155142157154
    041443  aa   151143 040153   17211  	oct	151143040153
    041444  aa   145171 040151   17212  	oct	145171040151
    041445  aa   163040 164157   17213  	oct	163040164157
    041446  aa   157040 163155   17214  	oct	157040163155
    041447  aa   141154 154040   17215  	oct	141154154040
    041450  aa   164157 040150   17216  	oct	164157040150
    041451  aa   157154 144040   17217  	oct	157154144040
    041452  aa   141144 144162   17218  	oct	141144144162
    041453  aa   145163 163040   17219  	oct	145163163040
    041454  aa   146157 162155   17220  	oct	146157162155
    041455  aa   141164 040113   17221  	oct	141164040113
    041456  aa   145171 040154   17222  	oct	145171040154
    041457  aa   157143 040166   17223  	oct	157143040166
    041460  aa   141154 165145   17224  	oct	141154165145
    041461  aa   040164 157157   17225  	oct	040164157157
    041462  aa   040154 141162   17226  	oct	040154141162
