ASSEMBLY LISTING OF SEGMENT >spec>on>6978-10/22/84>acv_restart_csl.alm
ASSEMBLED ON:	10/22/84  1113.8 mst Mon
OPTIONS USED:	list
ASSEMBLED BY:	ALM Version  6.6  November 1982
ASSEMBLER CREATED:	09/21/83  1227.3 mst Wed

                                     1  "  ******************************************************
                                     2  "  *                                                    *
                                     3  "  *                                                    *
                                     4  "  * Copyright (c) 1972 by Massachusetts Institute of   *
                                     5  "  * Technology and Honeywell Information Systems, Inc. *
                                     6  "  *                                                    *
                                     7  "  *                                                    *
                                     8  "  ******************************************************
                                     9
                                    10  "  ******************************************************
                                    11  "  *                                                    *
                                    12  "  *                                                    *
                                    13  "  *    Copyright, (C) Honeywell Information Systems    *
                                    14  "  *    Inc., 1980.                                     *
                                    15  "  *                                                    *
                                    16  "  *                                                    *
                                    17  "  ******************************************************
                                    18
    000000                          19  	name	acv_restart_csl
                        000000      20  	entry	acv_restart_csl
                                    21
    000000                          22  acv_restart_csl:
    000000  aa   000060 6270 00     23  	push
    000001  aa  7 00040 2721 20
    000002  aa  0 00002 3521 20     24  	eppbp	ap|2,*
    000003  aa  2 00000 3521 20     25  	eppbp	bp|0,*
    000004  aa   000012 6200 00     26  	eax0	10
    000005  aa   000140 0604 40     27  	csl	(rl),(pr,rl)
    000006  0a   000011 000010      28  	descb	foo,x0
    000007  aa   200000 000010      29  	descb	bp|0,x0
    000010  aa  7 00042 7101 20     30  	return
    000011  aa   123456 701234      31  foo:	oct	123456701234
                                    32  	end
ENTRY SEQUENCES

    000012  5a   000012 0000 00
    000013  aa  7 00046 2721 20
    000014  0a   000000 7100 00

NO LITERALS

NAME DEFINITIONS FOR ENTRY POINTS AND SEGDEFS

    000016  5a   000003 000000
    000017  5a   000030 600000
    000020  aa   000000 000000
    000021  55   000012 000002
    000022  5a   000002 400003
    000023  55   000006 000012
    000024  aa  017 141 143 166
    000025  aa  137 162 145 163
    000026  aa  164 141 162 164
    000027  aa  137 143 163 154
    000030  55   000021 000003
    000031  0a   000013 500000
    000032  55   000015 000003
    000033  aa  017 141 143 166         acv_restart_csl
    000034  aa  137 162 145 163
    000035  aa  164 141 162 164
    000036  aa  137 143 163 154
    000037  55   000002 000012
    000040  6a   000000 400002
    000041  55   000024 000003
    000042  aa  014 163 171 155         symbol_table
    000043  aa  142 157 154 137
    000044  aa  164 141 142 154
    000045  aa  145 000 000 000

DEFINITIONS HASH TABLE

    000046  aa   000000 000015
    000047  aa   000000 000000
    000050  aa   000000 000000
    000051  aa   000000 000000
    000052  aa   000000 000000
    000053  aa   000000 000000
    000054  aa   000000 000000
    000055  5a   000021 000000
    000056  aa   000000 000000
    000057  aa   000000 000000
    000060  aa   000000 000000
    000061  aa   000000 000000
    000062  aa   000000 000000
    000063  5a   000012 000000

NO EXTERNAL NAMES

NO TRAP POINTER WORDS

TYPE PAIR BLOCKS

    000064  aa   000001 000000
    000065  aa   000000 000000

INTERNAL EXPRESSION WORDS

LINKAGE INFORMATION

    000000  aa   000000 000000
    000001  0a   000016 000000
    000002  aa   000000 000000
    000003  aa   000000 000000
    000004  aa   000000 000000
    000005  aa   000000 000000
    000006  22   000010 000010
    000007  a2   000000 000000
SYMBOL INFORMATION

SYMBOL TABLE HEADER

    000000  aa   000000 000001
    000001  aa   163171 155142
    000002  aa   164162 145145
    000003  aa   000000 000004
    000004  aa   000000 112143
    000005  aa   305203 523135
    000006  aa   000000 113126
    000007  aa   355230 233401
    000010  aa   141154 155040
    000011  aa   040040 040040
    000012  aa   000024 000040
    000013  aa   000034 000040
    000014  aa   000044 000100
    000015  aa   000002 000002
    000016  aa   000064 000000
    000017  aa   000000 000122
    000020  aa   000000 000105
    000021  aa   000000 000111
    000022  aa   000114 000105
    000023  aa   000064 000000
    000024  aa   101114 115040
    000025  aa   126145 162163
    000026  aa   151157 156040
    000027  aa   040066 056066
    000030  aa   040040 116157
    000031  aa   166145 155142
    000032  aa   145162 040061
    000033  aa   071070 062040
    000034  aa   107112 157150
    000035  aa   156163 157156
    000036  aa   056123 171163
    000037  aa   115141 151156
    000040  aa   164056 155040
    000041  aa   040040 040040
    000042  aa   040040 040040
    000043  aa   040040 040040
    000044  aa   154151 163164
    000045  aa   040040 040040
    000046  aa   040040 040040
    000047  aa   040040 040040
    000050  aa   040040 040040
    000051  aa   040040 040040
    000052  aa   040040 040040
    000053  aa   040040 040040
    000054  aa   040040 040040
    000055  aa   040040 040040
    000056  aa   040040 040040
    000057  aa   040040 040040
    000060  aa   040040 040040
    000061  aa   040040 040040
    000062  aa   040040 040040
    000063  aa   040040 040040
    000064  aa   000000 000001
    000065  aa   000000 000001
    000066  aa   000072 000052
    000067  aa   131232 072452
    000070  aa   000000 113126
    000071  aa   347500 400000
    000072  aa   076163 160145          >spec>on>6978-10/22/84>acv_restart_csl.alm
    000073  aa   143076 157156
    000074  aa   076066 071067
    000075  aa   070055 061060
    000076  aa   057062 062057
    000077  aa   070064 076141
    000100  aa   143166 137162
    000101  aa   145163 164141
    000102  aa   162164 137143
    000103  aa   163154 056141
    000104  aa   154155 040040
               MULTICS ASSEMBLY CROSS REFERENCE LISTING

   Value        Symbol                   Source file   Line number

           0    acv_restart_csl          acv_restart_csl:     20,   22.
          11    foo                      acv_restart_csl:     28,   31.


NO FATAL ERRORS


                                          -----------------------------------------------------------


Historical Background

This edition of the Multics software materials and documentation is provided and donated
to Massachusetts Institute of Technology by Group BULL including BULL HN Information Systems Inc.
as a contribution to computer science knowledge.
This donation is made also to give evidence of the common contributions of Massachusetts Institute of Technology,
Bell Laboratories, General Electric, Honeywell Information Systems Inc., Honeywell BULL Inc., Groupe BULL
and BULL HN Information Systems Inc. to the development of this operating system.
Multics development was initiated by Massachusetts Institute of Technology Project MAC (1963-1970),
renamed the MIT Laboratory for Computer Science and Artificial Intelligence in the mid 1970s, under the leadership
of Professor Fernando Jose Corbato. Users consider that Multics provided the best software architecture
for managing computer hardware properly and for executing programs. Many subsequent operating systems
incorporated Multics principles.
Multics was distributed in 1975 to 2000 by Group Bull in Europe , and in the U.S. by Bull HN Information Systems Inc.,
as successor in interest by change in name only to Honeywell Bull Inc. and Honeywell Information Systems Inc. .

                                          -----------------------------------------------------------

Permission to use, copy, modify, and distribute these programs and their documentation for any purpose and without
fee is hereby granted,provided that the below copyright notice and historical background appear in all copies
and that both the copyright notice and historical background and this permission notice appear in supporting
documentation, and that the names of MIT, HIS, BULL or BULL HN not be used in advertising or publicity pertaining
to distribution of the programs without specific prior written permission.
    Copyright 1972 by Massachusetts Institute of Technology and Honeywell Information Systems Inc.
    Copyright 2006 by BULL HN Information Systems Inc.
    Copyright 2006 by Bull SAS
    All Rights Reserved
