ASSEMBLY LISTING OF SEGMENT >special_ldd>online>6897>amu_.alm
ASSEMBLED ON:	02/13/85  0920.6 mst Wed
OPTIONS USED:	list
ASSEMBLED BY:	ALM Version  6.6  November 1982
ASSEMBLER CREATED:	09/21/83  1227.3 mst Wed

                                     1  " ***********************************************************
                                     2  " *                                                         *
                                     3  " * Copyright, (C) Honeywell Information Systems Inc., 1983 *
                                     4  " *                                                         *
                                     5  " ***********************************************************
                                     6  "
                                     7  "	AMU_ --- Transfer vector for the Address Management Utilities
                                     8  "
                                     9  "	Coded 09/08/80 W. Olin Sibert
                                    10  "
                                    11  " 	Modified 01/18/85 by BLB to add vector get_l1dir_shortname.
                                    12
    000000                          13  	name	amu_
                                    14
                                    15  	macro	ext_transfer
                              1     16  	segdef	&1
                              2     17  &1:	getlp
                              3     18  	tra	&2
                              4     19  	&end
                                    20
                                    21  	ext_transfer	terminate_translation,amu_info_$destroy
                        000000          	segdef	terminate_translation
    000000  aa  7 00046 2721 20         terminate_translation:	getlp
    000001  4a  4 00010 7101 20         	tra	amu_info_$destroy
                                    22  	ext_transfer        create_translation,amu_info_$create
                        000002          	segdef	create_translation
    000002  aa  7 00046 2721 20         create_translation:	getlp
    000003  4a  4 00012 7101 20         	tra	amu_info_$create
                                    23  	ext_transfer        print_text,amu_print_text_$amu_print_text_
                        000004          	segdef	print_text
    000004  aa  7 00046 2721 20         print_text:	getlp
    000005  4a  4 00014 7101 20         	tra	amu_print_text_$amu_print_text_
                                    24  	ext_transfer        print_text_offset,amu_print_text_$real_offset
                        000006          	segdef	print_text_offset
    000006  aa  7 00046 2721 20         print_text_offset:	getlp
    000007  4a  4 00016 7101 20         	tra	amu_print_text_$real_offset
                                    25  	ext_transfer        print_text_format,amu_print_text_$format
                        000010          	segdef	print_text_format
    000010  aa  7 00046 2721 20         print_text_format:	getlp
    000011  4a  4 00020 7101 20         	tra	amu_print_text_$format
                                    26  	ext_transfer        print,amu_print_$amu_print_
                        000012          	segdef	print
    000012  aa  7 00046 2721 20         print:	getlp
    000013  4a  4 00022 7101 20         	tra	amu_print_$amu_print_
                                    27  	ext_transfer        print_apte,amu_print_$apte
                        000014          	segdef	print_apte
    000014  aa  7 00046 2721 20         print_apte:	getlp
    000015  4a  4 00024 7101 20         	tra	amu_print_$apte
                                    28          	ext_transfer        print_apte_bf,amu_print_$apte_bf
                        000016          	segdef	print_apte_bf
    000016  aa  7 00046 2721 20         print_apte_bf:	getlp
    000017  4a  4 00026 7101 20         	tra	amu_print_$apte_bf
                                    29  	ext_transfer        print_char_dump,amu_print_$char_dump
                        000020          	segdef	print_char_dump
    000020  aa  7 00046 2721 20         print_char_dump:	getlp
    000021  4a  4 00030 7101 20         	tra	amu_print_$char_dump
                                    30  	ext_transfer        print_char_dump_af,amu_print_$af_char_dump
                        000022          	segdef	print_char_dump_af
    000022  aa  7 00046 2721 20         print_char_dump_af:	getlp
    000023  4a  4 00032 7101 20         	tra	amu_print_$af_char_dump
                                    31  	ext_transfer        print_dump_oct,amu_print_$dump_oct
                        000024          	segdef	print_dump_oct
    000024  aa  7 00046 2721 20         print_dump_oct:	getlp
    000025  4a  4 00034 7101 20         	tra	amu_print_$dump_oct
                                    32  	ext_transfer        print_dump_pptr,amu_print_$dump_pptr
                        000026          	segdef	print_dump_pptr
    000026  aa  7 00046 2721 20         print_dump_pptr:	getlp
    000027  4a  4 00036 7101 20         	tra	amu_print_$dump_pptr
                                    33  	ext_transfer        print_dump_pptr_exp,amu_print_$dump_pptr_exp
                        000030          	segdef	print_dump_pptr_exp
    000030  aa  7 00046 2721 20         print_dump_pptr_exp:	getlp
    000031  4a  4 00040 7101 20         	tra	amu_print_$dump_pptr_exp
                                    34  	ext_transfer        print_dump_ptr,amu_print_$dump_ptr
                        000032          	segdef	print_dump_ptr
    000032  aa  7 00046 2721 20         print_dump_ptr:	getlp
    000033  4a  4 00042 7101 20         	tra	amu_print_$dump_ptr
                                    35  	ext_transfer        print_dump_ptr_exp,amu_print_$dump_ptr_exp
                        000034          	segdef	print_dump_ptr_exp
    000034  aa  7 00046 2721 20         print_dump_ptr_exp:	getlp
    000035  4a  4 00044 7101 20         	tra	amu_print_$dump_ptr_exp
                                    36  	ext_transfer        print_inst_dump,amu_print_$inst_dump
                        000036          	segdef	print_inst_dump
    000036  aa  7 00046 2721 20         print_inst_dump:	getlp
    000037  4a  4 00046 7101 20         	tra	amu_print_$inst_dump
                                    37  	ext_transfer        replace_trans,amu_replace_trans_$amu_replace_trans_
                        000040          	segdef	replace_trans
    000040  aa  7 00046 2721 20         replace_trans:	getlp
    000041  4a  4 00050 7101 20         	tra	amu_replace_trans_$amu_replace_trans_
                                    38  	ext_transfer        return_val,amu_return_val_$amu_return_val_
                        000042          	segdef	return_val
    000042  aa  7 00046 2721 20         return_val:	getlp
    000043  4a  4 00052 7101 20         	tra	amu_return_val_$amu_return_val_
                                    39  	ext_transfer        return_val_cpu_from_dbr,amu_return_val_$cpu_tag_from_dbr
                        000044          	segdef	return_val_cpu_from_dbr
    000044  aa  7 00046 2721 20         return_val_cpu_from_dbr:	getlp
    000045  4a  4 00054 7101 20         	tra	amu_return_val_$cpu_tag_from_dbr
                                    40  	ext_transfer        return_val_cpu_from_idx,amu_return_val_$cpu_tag_from_idx
                        000046          	segdef	return_val_cpu_from_idx
    000046  aa  7 00046 2721 20         return_val_cpu_from_idx:	getlp
    000047  4a  4 00056 7101 20         	tra	amu_return_val_$cpu_tag_from_idx
                                    41  	ext_transfer        return_val_dbr_from_idx,amu_return_val_$dbr_from_idx
                        000050          	segdef	return_val_dbr_from_idx
    000050  aa  7 00046 2721 20         return_val_dbr_from_idx:	getlp
    000051  4a  4 00060 7101 20         	tra	amu_return_val_$dbr_from_idx
                                    42  	ext_transfer        return_val_idx_from_dbr,amu_return_val_$idx_from_dbr
                        000052          	segdef	return_val_idx_from_dbr
    000052  aa  7 00046 2721 20         return_val_idx_from_dbr:	getlp
    000053  4a  4 00062 7101 20         	tra	amu_return_val_$idx_from_dbr
                                    43  	ext_transfer        return_val_per_process,amu_return_val_$per_process
                        000054          	segdef	return_val_per_process
    000054  aa  7 00046 2721 20         return_val_per_process:	getlp
    000055  4a  4 00064 7101 20         	tra	amu_return_val_$per_process
                                    44  	ext_transfer        return_val_phcs_ok,amu_return_val_$phcs_ok
                        000056          	segdef	return_val_phcs_ok
    000056  aa  7 00046 2721 20         return_val_phcs_ok:	getlp
    000057  4a  4 00066 7101 20         	tra	amu_return_val_$phcs_ok
                                    45  	ext_transfer        search_path,amu_search_path_$amu_search_path_
                        000060          	segdef	search_path
    000060  aa  7 00046 2721 20         search_path:	getlp
    000061  4a  4 00070 7101 20         	tra	amu_search_path_$amu_search_path_
                                    46  	ext_transfer        search_path_get_dump,amu_search_path_$get_dump_paths
                        000062          	segdef	search_path_get_dump
    000062  aa  7 00046 2721 20         search_path_get_dump:	getlp
    000063  4a  4 00072 7101 20         	tra	amu_search_path_$get_dump_paths
                                    47  	ext_transfer        search_path_get_object,amu_search_path_$get_object_paths
                        000064          	segdef	search_path_get_object
    000064  aa  7 00046 2721 20         search_path_get_object:	getlp
    000065  4a  4 00074 7101 20         	tra	amu_search_path_$get_object_paths
                                    48  	ext_transfer        search_path_set_dump,amu_search_path_$set_dump_paths
                        000066          	segdef	search_path_set_dump
    000066  aa  7 00046 2721 20         search_path_set_dump:	getlp
    000067  4a  4 00076 7101 20         	tra	amu_search_path_$set_dump_paths
                                    49  	ext_transfer        search_path_set_object,amu_search_path_$set_object_paths
                        000070          	segdef	search_path_set_object
    000070  aa  7 00046 2721 20         search_path_set_object:	getlp
    000071  4a  4 00100 7101 20         	tra	amu_search_path_$set_object_paths
                                    50  	ext_transfer        search_seg,amu_search_seg_$amu_search_seg_
                        000072          	segdef	search_seg
    000072  aa  7 00046 2721 20         search_seg:	getlp
    000073  4a  4 00102 7101 20         	tra	amu_search_seg_$amu_search_seg_
                                    51  	ext_transfer        slt_search_first_sup_seg,amu_slt_search_$get_first_sup_seg
                        000074          	segdef	slt_search_first_sup_seg
    000074  aa  7 00046 2721 20         slt_search_first_sup_seg:	getlp
    000075  4a  4 00104 7101 20         	tra	amu_slt_search_$get_first_sup_seg
                                    52  	ext_transfer        slt_search_last_sup_seg,amu_slt_search_$get_last_sup_seg
                        000076          	segdef	slt_search_last_sup_seg
    000076  aa  7 00046 2721 20         slt_search_last_sup_seg:	getlp
    000077  4a  4 00106 7101 20         	tra	amu_slt_search_$get_last_sup_seg
                                    53  	ext_transfer        slt_search_seg_num,amu_slt_search_$get_seg_num
                        000100          	segdef	slt_search_seg_num
    000100  aa  7 00046 2721 20         slt_search_seg_num:	getlp
    000101  4a  4 00110 7101 20         	tra	amu_slt_search_$get_seg_num
                                    54  	ext_transfer        slt_search_seg_ptr,amu_slt_search_$get_seg_ptr
                        000102          	segdef	slt_search_seg_ptr
    000102  aa  7 00046 2721 20         slt_search_seg_ptr:	getlp
    000103  4a  4 00112 7101 20         	tra	amu_slt_search_$get_seg_ptr
                                    55  	ext_transfer        slt_search_init_seg_ptr,amu_slt_search_$get_init_seg_ptr
                        000104          	segdef	slt_search_init_seg_ptr
    000104  aa  7 00046 2721 20         slt_search_init_seg_ptr:	getlp
    000105  4a  4 00114 7101 20         	tra	amu_slt_search_$get_init_seg_ptr
                                    56  	ext_transfer        tc_data,amu_tc_data_$amu_tc_data_
                        000106          	segdef	tc_data
    000106  aa  7 00046 2721 20         tc_data:	getlp
    000107  4a  4 00116 7101 20         	tra	amu_tc_data_$amu_tc_data_
                                    57  	ext_transfer        tc_data_tcq,amu_tc_data_$tcq
                        000110          	segdef	tc_data_tcq
    000110  aa  7 00046 2721 20         tc_data_tcq:	getlp
    000111  4a  4 00120 7101 20         	tra	amu_tc_data_$tcq
                                    58  	ext_transfer        tc_data_find_apte,amu_tc_data_$find_apte
                        000112          	segdef	tc_data_find_apte
    000112  aa  7 00046 2721 20         tc_data_find_apte:	getlp
    000113  4a  4 00122 7101 20         	tra	amu_tc_data_$find_apte
                                    59  	ext_transfer        tc_data_print_this_apte,amu_tc_data_$print_this_apte
                        000114          	segdef	tc_data_print_this_apte
    000114  aa  7 00046 2721 20         tc_data_print_this_apte:	getlp
    000115  4a  4 00124 7101 20         	tra	amu_tc_data_$print_this_apte
                                    60  	ext_transfer        tc_data_find_first_running,amu_tc_data_$find_first_running
                        000116          	segdef	tc_data_find_first_running
    000116  aa  7 00046 2721 20         tc_data_find_first_running:	getlp
    000117  4a  4 00126 7101 20         	tra	amu_tc_data_$find_first_running
                                    61  	ext_transfer        tc_data_get_apt_entry,amu_tc_data_$get_apt_entry
                        000120          	segdef	tc_data_get_apt_entry
    000120  aa  7 00046 2721 20         tc_data_get_apt_entry:	getlp
    000121  4a  4 00130 7101 20         	tra	amu_tc_data_$get_apt_entry
                                    62  	ext_transfer        tc_data_get_dbr,amu_tc_data_$get_dbr
                        000122          	segdef	tc_data_get_dbr
    000122  aa  7 00046 2721 20         tc_data_get_dbr:	getlp
    000123  4a  4 00132 7101 20         	tra	amu_tc_data_$get_dbr
                                    63  	ext_transfer        temp_seg,amu_temp_seg_$amu_temp_seg_
                        000124          	segdef	temp_seg
    000124  aa  7 00046 2721 20         temp_seg:	getlp
    000125  4a  4 00134 7101 20         	tra	amu_temp_seg_$amu_temp_seg_
                                    64  	ext_transfer	temp_seg_get,amu_temp_seg_$get
                        000126          	segdef	temp_seg_get
    000126  aa  7 00046 2721 20         temp_seg_get:	getlp
    000127  4a  4 00136 7101 20         	tra	amu_temp_seg_$get
                                    65  	ext_transfer        temp_seg_release_all,amu_temp_seg_$release_all
                        000130          	segdef	temp_seg_release_all
    000130  aa  7 00046 2721 20         temp_seg_release_all:	getlp
    000131  4a  4 00140 7101 20         	tra	amu_temp_seg_$release_all
                                    66  	ext_transfer        translate,amu_translate_$amu_translate_
                        000132          	segdef	translate
    000132  aa  7 00046 2721 20         translate:	getlp
    000133  4a  4 00142 7101 20         	tra	amu_translate_$amu_translate_
                                    67  	ext_transfer        translate_add,amu_translate_$add
                        000134          	segdef	translate_add
    000134  aa  7 00046 2721 20         translate_add:	getlp
    000135  4a  4 00144 7101 20         	tra	amu_translate_$add
                                    68  	ext_transfer        translate_allocate,amu_translate_$allocate
                        000136          	segdef	translate_allocate
    000136  aa  7 00046 2721 20         translate_allocate:	getlp
    000137  4a  4 00146 7101 20         	tra	amu_translate_$allocate
                                    69  	ext_transfer        translate_get,amu_translate_$get
                        000140          	segdef	translate_get
    000140  aa  7 00046 2721 20         translate_get:	getlp
    000141  4a  4 00150 7101 20         	tra	amu_translate_$get
                                    70  	ext_transfer        translate_force_add,amu_translate_$force_add
                        000142          	segdef	translate_force_add
    000142  aa  7 00046 2721 20         translate_force_add:	getlp
    000143  4a  4 00152 7101 20         	tra	amu_translate_$force_add
                                    71  	ext_transfer        get_l1dir_shortname,amu_get_name_$get_l1dir_shortname
                        000144          	segdef	get_l1dir_shortname
    000144  aa  7 00046 2721 20         get_l1dir_shortname:	getlp
    000145  4a  4 00154 7101 20         	tra	amu_get_name_$get_l1dir_shortname
                                    72  	ext_transfer        get_va_args,amu_parse_ptr_args_$get_va_args
                        000146          	segdef	get_va_args
    000146  aa  7 00046 2721 20         get_va_args:	getlp
    000147  4a  4 00156 7101 20         	tra	amu_parse_ptr_args_$get_va_args
                                    73  	ext_transfer        get_va_args_given_start,amu_parse_ptr_args_$get_va_args_given_start
                        000150          	segdef	get_va_args_given_start
    000150  aa  7 00046 2721 20         get_va_args_given_start:	getlp
    000151  4a  4 00160 7101 20         	tra	amu_parse_ptr_args_$get_va_args_given_start
                                    74  	ext_transfer        get_segno_from_name,amu_parse_ptr_args_$get_segno
                        000152          	segdef	get_segno_from_name
    000152  aa  7 00046 2721 20         get_segno_from_name:	getlp
    000153  4a  4 00162 7101 20         	tra	amu_parse_ptr_args_$get_segno
                                    75  	ext_transfer        resolve_virtual_addr,amu_parse_ptr_args_$resolve_va
                        000154          	segdef	resolve_virtual_addr
    000154  aa  7 00046 2721 20         resolve_virtual_addr:	getlp
    000155  4a  4 00164 7101 20         	tra	amu_parse_ptr_args_$resolve_va
                                    76  	ext_transfer        deadproc,amu_deadproc_$amu_deadproc_
                        000156          	segdef	deadproc
    000156  aa  7 00046 2721 20         deadproc:	getlp
    000157  4a  4 00166 7101 20         	tra	amu_deadproc_$amu_deadproc_
                                    77  	ext_transfer        dp_create_uid_hash,amu_deadproc_$create_uid_hash
                        000160          	segdef	dp_create_uid_hash
    000160  aa  7 00046 2721 20         dp_create_uid_hash:	getlp
    000161  4a  4 00170 7101 20         	tra	amu_deadproc_$create_uid_hash
                                    78  	ext_transfer        current_deadproc,amu_deadproc_$cur_dp
                        000162          	segdef	current_deadproc
    000162  aa  7 00046 2721 20         current_deadproc:	getlp
    000163  4a  4 00172 7101 20         	tra	amu_deadproc_$cur_dp
                                    79  	ext_transfer        dp_segno_to_name,amu_deadproc_$segno_to_name
                        000164          	segdef	dp_segno_to_name
    000164  aa  7 00046 2721 20         dp_segno_to_name:	getlp
    000165  4a  4 00174 7101 20         	tra	amu_deadproc_$segno_to_name
                                    80  	ext_transfer        dp_name_to_segno,amu_deadproc_$name_to_segno
                        000166          	segdef	dp_name_to_segno
    000166  aa  7 00046 2721 20         dp_name_to_segno:	getlp
    000167  4a  4 00176 7101 20         	tra	amu_deadproc_$name_to_segno
                                    81  	ext_transfer        deadproc_name,amu_deadproc_$name_dp
                        000170          	segdef	deadproc_name
    000170  aa  7 00046 2721 20         deadproc_name:	getlp
    000171  4a  4 00200 7101 20         	tra	amu_deadproc_$name_dp
                                    82  	ext_transfer        deadproc_name_af,amu_deadproc_$name_dp_af
                        000172          	segdef	deadproc_name_af
    000172  aa  7 00046 2721 20         deadproc_name_af:	getlp
    000173  4a  4 00202 7101 20         	tra	amu_deadproc_$name_dp_af
                                    83  	ext_transfer        deadproc_init,amu_deadproc_$init_deadproc
                        000174          	segdef	deadproc_init
    000174  aa  7 00046 2721 20         deadproc_init:	getlp
    000175  4a  4 00204 7101 20         	tra	amu_deadproc_$init_deadproc
                                    84  	ext_transfer        deadproc_term,amu_deadproc_$term_deadproc
                        000176          	segdef	deadproc_term
    000176  aa  7 00046 2721 20         deadproc_term:	getlp
    000177  4a  4 00206 7101 20         	tra	amu_deadproc_$term_deadproc
                                    85  	ext_transfer        dp_expand_to_ptr,amu_deadproc_$expand_to_ptr
                        000200          	segdef	dp_expand_to_ptr
    000200  aa  7 00046 2721 20         dp_expand_to_ptr:	getlp
    000201  4a  4 00210 7101 20         	tra	amu_deadproc_$expand_to_ptr
                                    86  	ext_transfer        definition_get_prn,amu_definition_$get_prn
                        000202          	segdef	definition_get_prn
    000202  aa  7 00046 2721 20         definition_get_prn:	getlp
    000203  4a  4 00212 7101 20         	tra	amu_definition_$get_prn
                                    87  	ext_transfer        definition_set_prn_name,amu_definition_$set_prn_name
                        000204          	segdef	definition_set_prn_name
    000204  aa  7 00046 2721 20         definition_set_prn_name:	getlp
    000205  4a  4 00214 7101 20         	tra	amu_definition_$set_prn_name
                                    88  	ext_transfer        definition_set_prn,amu_definition_$set_prn
                        000206          	segdef	definition_set_prn
    000206  aa  7 00046 2721 20         definition_set_prn:	getlp
    000207  4a  4 00216 7101 20         	tra	amu_definition_$set_prn
                                    89  	ext_transfer        definition_set_from,amu_definition_$set_from
                        000210          	segdef	definition_set_from
    000210  aa  7 00046 2721 20         definition_set_from:	getlp
    000211  4a  4 00220 7101 20         	tra	amu_definition_$set_from
                                    90  	ext_transfer        definition_ptr,amu_definition_$ptr
                        000212          	segdef	definition_ptr
    000212  aa  7 00046 2721 20         definition_ptr:	getlp
    000213  4a  4 00222 7101 20         	tra	amu_definition_$ptr
                                    91  	ext_transfer        definition_offset,amu_definition_$offset
                        000214          	segdef	definition_offset
    000214  aa  7 00046 2721 20         definition_offset:	getlp
    000215  4a  4 00224 7101 20         	tra	amu_definition_$offset
                                    92  	ext_transfer        do_translation,amu_do_translation_$amu_do_translation_
                        000216          	segdef	do_translation
    000216  aa  7 00046 2721 20         do_translation:	getlp
    000217  4a  4 00226 7101 20         	tra	amu_do_translation_$amu_do_translation_
                                    93  	ext_transfer        do_translation_segno,amu_do_translation_$ptr_given_segno
                        000220          	segdef	do_translation_segno
    000220  aa  7 00046 2721 20         do_translation_segno:	getlp
    000221  4a  4 00230 7101 20         	tra	amu_do_translation_$ptr_given_segno
                                    94  	ext_transfer        do_translation_by_ptr,amu_do_translation_$by_ptr
                        000222          	segdef	do_translation_by_ptr
    000222  aa  7 00046 2721 20         do_translation_by_ptr:	getlp
    000223  4a  4 00232 7101 20         	tra	amu_do_translation_$by_ptr
                                    95  	ext_transfer        do_translation_hunt_ptr,amu_do_translation_$hunt_ptr
                        000224          	segdef	do_translation_hunt_ptr
    000224  aa  7 00046 2721 20         do_translation_hunt_ptr:	getlp
    000225  4a  4 00234 7101 20         	tra	amu_do_translation_$hunt_ptr
                                    96  	ext_transfer        do_translation_hunt,amu_do_translation_$hunt
                        000226          	segdef	do_translation_hunt
    000226  aa  7 00046 2721 20         do_translation_hunt:	getlp
    000227  4a  4 00236 7101 20         	tra	amu_do_translation_$hunt
                                    97  	ext_transfer        error,amu_error_$amu_error_
                        000230          	segdef	error
    000230  aa  7 00046 2721 20         error:	getlp
    000231  4a  4 00240 7101 20         	tra	amu_error_$amu_error_
                                    98  	ext_transfer        error_for_caller,amu_error_$for_caller
                        000232          	segdef	error_for_caller
    000232  aa  7 00046 2721 20         error_for_caller:	getlp
    000233  4a  4 00242 7101 20         	tra	amu_error_$for_caller
                                    99  	ext_transfer        error_info,amu_error_$info
                        000234          	segdef	error_info
    000234  aa  7 00046 2721 20         error_info:	getlp
    000235  4a  4 00244 7101 20         	tra	amu_error_$info
                                   100  	ext_transfer        find_system_fdump,amu_find_system_dump_$fdump
                        000236          	segdef	find_system_fdump
    000236  aa  7 00046 2721 20         find_system_fdump:	getlp
    000237  4a  4 00246 7101 20         	tra	amu_find_system_dump_$fdump
                                   101  	ext_transfer        find_system_pdir,amu_find_system_dump_$pdir
                        000240          	segdef	find_system_pdir
    000240  aa  7 00046 2721 20         find_system_pdir:	getlp
    000241  4a  4 00250 7101 20         	tra	amu_find_system_dump_$pdir
                                   102  	ext_transfer        list_system_dumps,amu_find_system_dump_$list
                        000242          	segdef	list_system_dumps
    000242  aa  7 00046 2721 20         list_system_dumps:	getlp
    000243  4a  4 00252 7101 20         	tra	amu_find_system_dump_$list
                                   103  	ext_transfer        fdump_mgr_cur_erf,amu_fdump_mgr_$cur_erf
                        000244          	segdef	fdump_mgr_cur_erf
    000244  aa  7 00046 2721 20         fdump_mgr_cur_erf:	getlp
    000245  4a  4 00254 7101 20         	tra	amu_fdump_mgr_$cur_erf
                                   104  	ext_transfer        fdump_mgr_terminate_fdump,amu_fdump_mgr_$terminate_fdump
                        000246          	segdef	fdump_mgr_terminate_fdump
    000246  aa  7 00046 2721 20         fdump_mgr_terminate_fdump:	getlp
    000247  4a  4 00256 7101 20         	tra	amu_fdump_mgr_$terminate_fdump
                                   105            ext_transfer	fdump_mgr_really_terminate,amu_fdump_mgr_$really_terminate_fdump
                        000250          	segdef	fdump_mgr_really_terminate
    000250  aa  7 00046 2721 20         fdump_mgr_really_terminate:	getlp
    000251  4a  4 00260 7101 20         	tra	amu_fdump_mgr_$really_terminate_fdump
                                   106  	ext_transfer        fdump_mgr_name_erf,amu_fdump_mgr_$name_erf
                        000252          	segdef	fdump_mgr_name_erf
    000252  aa  7 00046 2721 20         fdump_mgr_name_erf:	getlp
    000253  4a  4 00262 7101 20         	tra	amu_fdump_mgr_$name_erf
                                   107  	ext_transfer        fdump_mgr_list_fdump,amu_fdump_mgr_$list_fdump
                        000254          	segdef	fdump_mgr_list_fdump
    000254  aa  7 00046 2721 20         fdump_mgr_list_fdump:	getlp
    000255  4a  4 00264 7101 20         	tra	amu_fdump_mgr_$list_fdump
                                   108  	ext_transfer        fdump_mgr_init_fdump,amu_fdump_mgr_$init_fdump
                        000256          	segdef	fdump_mgr_init_fdump
    000256  aa  7 00046 2721 20         fdump_mgr_init_fdump:	getlp
    000257  4a  4 00266 7101 20         	tra	amu_fdump_mgr_$init_fdump
                                   109  	ext_transfer        fdump_mgr_find_fdump,amu_fdump_mgr_$find_fdump
                        000260          	segdef	fdump_mgr_find_fdump
    000260  aa  7 00046 2721 20         fdump_mgr_find_fdump:	getlp
    000261  4a  4 00270 7101 20         	tra	amu_fdump_mgr_$find_fdump
                                   110  	ext_transfer        fdump_mpt,amu_fdump_mpt_$amu_fdump_mpt_
                        000262          	segdef	fdump_mpt
    000262  aa  7 00046 2721 20         fdump_mpt:	getlp
    000263  4a  4 00272 7101 20         	tra	amu_fdump_mpt_$amu_fdump_mpt_
                                   111            ext_transfer        fdump_mpt_change_idx,amu_fdump_mpt_$change_idx
                        000264          	segdef	fdump_mpt_change_idx
    000264  aa  7 00046 2721 20         fdump_mpt_change_idx:	getlp
    000265  4a  4 00274 7101 20         	tra	amu_fdump_mpt_$change_idx
                                   112            ext_transfer        fdump_mpt_temp_change_idx,amu_fdump_mpt_$temp_change_idx
                        000266          	segdef	fdump_mpt_temp_change_idx
    000266  aa  7 00046 2721 20         fdump_mpt_temp_change_idx:	getlp
    000267  4a  4 00276 7101 20         	tra	amu_fdump_mpt_$temp_change_idx
                                   113  	ext_transfer        fdump_mpt_current_process,amu_fdump_mpt_$current_process
                        000270          	segdef	fdump_mpt_current_process
    000270  aa  7 00046 2721 20         fdump_mpt_current_process:	getlp
    000271  4a  4 00300 7101 20         	tra	amu_fdump_mpt_$current_process
                                   114  	ext_transfer        fdump_mpt_terminate,amu_fdump_mpt_$terminate
                        000272          	segdef	fdump_mpt_terminate
    000272  aa  7 00046 2721 20         fdump_mpt_terminate:	getlp
    000273  4a  4 00302 7101 20         	tra	amu_fdump_mpt_$terminate
                                   115  	ext_transfer        fdump_mpt_revert_idx,amu_fdump_mpt_$revert_idx
                        000274          	segdef	fdump_mpt_revert_idx
    000274  aa  7 00046 2721 20         fdump_mpt_revert_idx:	getlp
    000275  4a  4 00304 7101 20         	tra	amu_fdump_mpt_$revert_idx
                                   116  	ext_transfer        fdump_mpt_fill_proc_table,amu_fdump_mpt_$fill_proc_table
                        000276          	segdef	fdump_mpt_fill_proc_table
    000276  aa  7 00046 2721 20         fdump_mpt_fill_proc_table:	getlp
    000277  4a  4 00306 7101 20         	tra	amu_fdump_mpt_$fill_proc_table
                                   117  	ext_transfer        fdump_mpt_current_process_af,amu_fdump_mpt_$current_process_af
                        000300          	segdef	fdump_mpt_current_process_af
    000300  aa  7 00046 2721 20         fdump_mpt_current_process_af:	getlp
    000301  4a  4 00310 7101 20         	tra	amu_fdump_mpt_$current_process_af
                                   118  	ext_transfer        fdump_translate_contiguous,amu_fdump_translate_$contiguous
                        000302          	segdef	fdump_translate_contiguous
    000302  aa  7 00046 2721 20         fdump_translate_contiguous:	getlp
    000303  4a  4 00312 7101 20         	tra	amu_fdump_translate_$contiguous
                                   119  	ext_transfer        fdump_translate_to_temp_seg,amu_fdump_translate_$to_temp_seg
                        000304          	segdef	fdump_translate_to_temp_seg
    000304  aa  7 00046 2721 20         fdump_translate_to_temp_seg:	getlp
    000305  4a  4 00314 7101 20         	tra	amu_fdump_translate_$to_temp_seg
                                   120  	ext_transfer        fdump_translate_get_translation,amu_fdump_translate_$get_translation
                        000306          	segdef	fdump_translate_get_translation
    000306  aa  7 00046 2721 20         fdump_translate_get_translation:	getlp
    000307  4a  4 00316 7101 20         	tra	amu_fdump_translate_$get_translation
                                   121  	ext_transfer        fdump_translate_get_seg_lth,amu_fdump_translate_$get_seg_lth
                        000310          	segdef	fdump_translate_get_seg_lth
    000310  aa  7 00046 2721 20         fdump_translate_get_seg_lth:	getlp
    000311  4a  4 00320 7101 20         	tra	amu_fdump_translate_$get_seg_lth
                                   122  	ext_transfer        get_name,amu_get_name_$amu_get_name_
                        000312          	segdef	get_name
    000312  aa  7 00046 2721 20         get_name:	getlp
    000313  4a  4 00322 7101 20         	tra	amu_get_name_$amu_get_name_
                                   123  	ext_transfer        get_name_for_structure,amu_get_name_$for_structure
                        000314          	segdef	get_name_for_structure
    000314  aa  7 00046 2721 20         get_name_for_structure:	getlp
    000315  4a  4 00324 7101 20         	tra	amu_get_name_$for_structure
                                   124  	ext_transfer        get_name_ptr_count,amu_get_name_$get_ptr_count
                        000316          	segdef	get_name_ptr_count
    000316  aa  7 00046 2721 20         get_name_ptr_count:	getlp
    000317  4a  4 00326 7101 20         	tra	amu_get_name_$get_ptr_count
                                   125  	ext_transfer        get_name_no_comp,amu_get_name_$no_comp
                        000320          	segdef	get_name_no_comp
    000320  aa  7 00046 2721 20         get_name_no_comp:	getlp
    000321  4a  4 00330 7101 20         	tra	amu_get_name_$no_comp
                                   126  	ext_transfer        hardcore_info_deadproc,amu_hardcore_info_$deadproc
                        000322          	segdef	hardcore_info_deadproc
    000322  aa  7 00046 2721 20         hardcore_info_deadproc:	getlp
    000323  4a  4 00332 7101 20         	tra	amu_hardcore_info_$deadproc
                                   127  	ext_transfer        hardcore_info_set_cur_ptrs,amu_hardcore_info_$set_cur_ptrs
                        000324          	segdef	hardcore_info_set_cur_ptrs
    000324  aa  7 00046 2721 20         hardcore_info_set_cur_ptrs:	getlp
    000325  4a  4 00334 7101 20         	tra	amu_hardcore_info_$set_cur_ptrs
                                   128  	ext_transfer        hardcore_info_fdump,amu_hardcore_info_$fdump
                        000326          	segdef	hardcore_info_fdump
    000326  aa  7 00046 2721 20         hardcore_info_fdump:	getlp
    000327  4a  4 00336 7101 20         	tra	amu_hardcore_info_$fdump
                                   129  	ext_transfer        kst_util_expand_uid_path,amu_kst_util_$expand_uid_path
                        000330          	segdef	kst_util_expand_uid_path
    000330  aa  7 00046 2721 20         kst_util_expand_uid_path:	getlp
    000331  4a  4 00340 7101 20         	tra	amu_kst_util_$expand_uid_path
                                   130  	ext_transfer        kst_util_segno_to_uid,amu_kst_util_$segno_to_uid
                        000332          	segdef	kst_util_segno_to_uid
    000332  aa  7 00046 2721 20         kst_util_segno_to_uid:	getlp
    000333  4a  4 00342 7101 20         	tra	amu_kst_util_$segno_to_uid
                                   131  	ext_transfer        kst_util_segno_to_uid_path,amu_kst_util_$segno_to_uid_path
                        000334          	segdef	kst_util_segno_to_uid_path
    000334  aa  7 00046 2721 20         kst_util_segno_to_uid_path:	getlp
    000335  4a  4 00344 7101 20         	tra	amu_kst_util_$segno_to_uid_path
                                   132  	ext_transfer        kst_util_uid_to_uid_path,amu_kst_util_$uid_to_uid_path
                        000336          	segdef	kst_util_uid_to_uid_path
    000336  aa  7 00046 2721 20         kst_util_uid_to_uid_path:	getlp
    000337  4a  4 00346 7101 20         	tra	amu_kst_util_$uid_to_uid_path
                                   133  	ext_transfer        kst_util_uid_to_kstep,amu_kst_util_$uid_to_kstep
                        000340          	segdef	kst_util_uid_to_kstep
    000340  aa  7 00046 2721 20         kst_util_uid_to_kstep:	getlp
    000341  4a  4 00350 7101 20         	tra	amu_kst_util_$uid_to_kstep
                                   134  	ext_transfer        check_info_hard,amu_check_info_$hard
                        000342          	segdef	check_info_hard
    000342  aa  7 00046 2721 20         check_info_hard:	getlp
    000343  4a  4 00352 7101 20         	tra	amu_check_info_$hard
                                   135  	ext_transfer        check_info,amu_check_info_$amu_check_info_
                        000344          	segdef	check_info
    000344  aa  7 00046 2721 20         check_info:	getlp
    000345  4a  4 00354 7101 20         	tra	amu_check_info_$amu_check_info_
                                   136  	end

NO LITERALS

NAME DEFINITIONS FOR ENTRY POINTS AND SEGDEFS

    000346  5a   000003 000000
    000347  5a   001661 600000
    000350  aa   000000 000000
    000351  55   000010 000002
    000352  5a   000002 400003
    000353  55   000006 000010
    000354  aa  004 141 155 165
    000355  aa  137 000 000 000
    000356  55   000016 000003
    000357  0a   000344 400000
    000360  55   000013 000003
    000361  aa  012 143 150 145         check_info
    000362  aa  143 153 137 151
    000363  aa  156 146 157 000
    000364  55   000025 000010
    000365  0a   000342 400000
    000366  55   000021 000003
    000367  aa  017 143 150 145         check_info_hard
    000370  aa  143 153 137 151
    000371  aa  156 146 157 137
    000372  aa  150 141 162 144
    000373  55   000036 000016
    000374  0a   000340 400000
    000375  55   000030 000003
    000376  aa  025 153 163 164         kst_util_uid_to_kstep
    000377  aa  137 165 164 151
    000400  aa  154 137 165 151
    000401  aa  144 137 164 157
    000402  aa  137 153 163 164
    000403  aa  145 160 000 000
    000404  55   000050 000025
    000405  0a   000336 400000
    000406  55   000041 000003
    000407  aa  030 153 163 164         kst_util_uid_to_uid_path
    000410  aa  137 165 164 151
    000411  aa  154 137 165 151
    000412  aa  144 137 164 157
    000413  aa  137 165 151 144
    000414  aa  137 160 141 164
    000415  aa  150 000 000 000
    000416  55   000062 000036
    000417  0a   000334 400000
    000420  55   000053 000003
    000421  aa  032 153 163 164         kst_util_segno_to_uid_path
    000422  aa  137 165 164 151
    000423  aa  154 137 163 145
    000424  aa  147 156 157 137
    000425  aa  164 157 137 165
    000426  aa  151 144 137 160
    000427  aa  141 164 150 000
    000430  55   000073 000050
    000431  0a   000332 400000
    000432  55   000065 000003
    000433  aa  025 153 163 164         kst_util_segno_to_uid
    000434  aa  137 165 164 151
    000435  aa  154 137 163 145
    000436  aa  147 156 157 137
    000437  aa  164 157 137 165
    000440  aa  151 144 000 000
    000441  55   000105 000062
    000442  0a   000330 400000
    000443  55   000076 000003
    000444  aa  030 153 163 164         kst_util_expand_uid_path
    000445  aa  137 165 164 151
    000446  aa  154 137 145 170
    000447  aa  160 141 156 144
    000450  aa  137 165 151 144
    000451  aa  137 160 141 164
    000452  aa  150 000 000 000
    000453  55   000115 000073
    000454  0a   000326 400000
    000455  55   000110 000003
    000456  aa  023 150 141 162         hardcore_info_fdump
    000457  aa  144 143 157 162
    000460  aa  145 137 151 156
    000461  aa  146 157 137 146
    000462  aa  144 165 155 160
    000463  55   000127 000105
    000464  0a   000324 400000
    000465  55   000120 000003
    000466  aa  032 150 141 162         hardcore_info_set_cur_ptrs
    000467  aa  144 143 157 162
    000470  aa  145 137 151 156
    000471  aa  146 157 137 163
    000472  aa  145 164 137 143
    000473  aa  165 162 137 160
    000474  aa  164 162 163 000
    000475  55   000140 000115
    000476  0a   000322 400000
    000477  55   000132 000003
    000500  aa  026 150 141 162         hardcore_info_deadproc
    000501  aa  144 143 157 162
    000502  aa  145 137 151 156
    000503  aa  146 157 137 144
    000504  aa  145 141 144 160
    000505  aa  162 157 143 000
    000506  55   000150 000127
    000507  0a   000320 400000
    000510  55   000143 000003
    000511  aa  020 147 145 164         get_name_no_comp
    000512  aa  137 156 141 155
    000513  aa  145 137 156 157
    000514  aa  137 143 157 155
    000515  aa  160 000 000 000
    000516  55   000160 000140
    000517  0a   000316 400000
    000520  55   000153 000003
    000521  aa  022 147 145 164         get_name_ptr_count
    000522  aa  137 156 141 155
    000523  aa  145 137 160 164
    000524  aa  162 137 143 157
    000525  aa  165 156 164 000
    000526  55   000171 000150
    000527  0a   000314 400000
    000530  55   000163 000003
    000531  aa  026 147 145 164         get_name_for_structure
    000532  aa  137 156 141 155
    000533  aa  145 137 146 157
    000534  aa  162 137 163 164
    000535  aa  162 165 143 164
    000536  aa  165 162 145 000
    000537  55   000177 000160
    000540  0a   000312 400000
    000541  55   000174 000003
    000542  aa  010 147 145 164         get_name
    000543  aa  137 156 141 155
    000544  aa  145 000 000 000
    000545  55   000211 000171
    000546  0a   000310 400000
    000547  55   000202 000003
    000550  aa  033 146 144 165         fdump_translate_get_seg_lth
    000551  aa  155 160 137 164
    000552  aa  162 141 156 163
    000553  aa  154 141 164 145
    000554  aa  137 147 145 164
    000555  aa  137 163 145 147
    000556  aa  137 154 164 150
    000557  55   000224 000177
    000560  0a   000306 400000
    000561  55   000214 000003
    000562  aa  037 146 144 165         fdump_translate_get_translation
    000563  aa  155 160 137 164
    000564  aa  162 141 156 163
    000565  aa  154 141 164 145
    000566  aa  137 147 145 164
    000567  aa  137 164 162 141
    000570  aa  156 163 154 141
    000571  aa  164 151 157 156
    000572  55   000236 000211
    000573  0a   000304 400000
    000574  55   000227 000003
    000575  aa  033 146 144 165         fdump_translate_to_temp_seg
    000576  aa  155 160 137 164
    000577  aa  162 141 156 163
    000600  aa  154 141 164 145
    000601  aa  137 164 157 137
    000602  aa  164 145 155 160
    000603  aa  137 163 145 147
    000604  55   000250 000224
    000605  0a   000302 400000
    000606  55   000241 000003
    000607  aa  032 146 144 165         fdump_translate_contiguous
    000610  aa  155 160 137 164
    000611  aa  162 141 156 163
    000612  aa  154 141 164 145
    000613  aa  137 143 157 156
    000614  aa  164 151 147 165
    000615  aa  157 165 163 000
    000616  55   000263 000236
    000617  0a   000300 400000
    000620  55   000253 000003
    000621  aa  034 146 144 165         fdump_mpt_current_process_af
    000622  aa  155 160 137 155
    000623  aa  160 164 137 143
    000624  aa  165 162 162 145
    000625  aa  156 164 137 160
    000626  aa  162 157 143 145
    000627  aa  163 163 137 141
    000630  aa  146 000 000 000
    000631  55   000275 000250
    000632  0a   000276 400000
    000633  55   000266 000003
    000634  aa  031 146 144 165         fdump_mpt_fill_proc_table
    000635  aa  155 160 137 155
    000636  aa  160 164 137 146
    000637  aa  151 154 154 137
    000640  aa  160 162 157 143
    000641  aa  137 164 141 142
    000642  aa  154 145 000 000
    000643  55   000306 000263
    000644  0a   000274 400000
    000645  55   000300 000003
    000646  aa  024 146 144 165         fdump_mpt_revert_idx
    000647  aa  155 160 137 155
    000650  aa  160 164 137 162
    000651  aa  145 166 145 162
    000652  aa  164 137 151 144
    000653  aa  170 000 000 000
    000654  55   000316 000275
    000655  0a   000272 400000
    000656  55   000311 000003
    000657  aa  023 146 144 165         fdump_mpt_terminate
    000660  aa  155 160 137 155
    000661  aa  160 164 137 164
    000662  aa  145 162 155 151
    000663  aa  156 141 164 145
    000664  55   000330 000306
    000665  0a   000270 400000
    000666  55   000321 000003
    000667  aa  031 146 144 165         fdump_mpt_current_process
    000670  aa  155 160 137 155
    000671  aa  160 164 137 143
    000672  aa  165 162 162 145
    000673  aa  156 164 137 160
    000674  aa  162 157 143 145
    000675  aa  163 163 000 000
    000676  55   000342 000316
    000677  0a   000266 400000
    000700  55   000333 000003
    000701  aa  031 146 144 165         fdump_mpt_temp_change_idx
    000702  aa  155 160 137 155
    000703  aa  160 164 137 164
    000704  aa  145 155 160 137
    000705  aa  143 150 141 156
    000706  aa  147 145 137 151
    000707  aa  144 170 000 000
    000710  55   000353 000330
    000711  0a   000264 400000
    000712  55   000345 000003
    000713  aa  024 146 144 165         fdump_mpt_change_idx
    000714  aa  155 160 137 155
    000715  aa  160 164 137 143
    000716  aa  150 141 156 147
    000717  aa  145 137 151 144
    000720  aa  170 000 000 000
    000721  55   000361 000342
    000722  0a   000262 400000
    000723  55   000356 000003
    000724  aa  011 146 144 165         fdump_mpt
    000725  aa  155 160 137 155
    000726  aa  160 164 000 000
    000727  55   000372 000353
    000730  0a   000260 400000
    000731  55   000364 000003
    000732  aa  024 146 144 165         fdump_mgr_find_fdump
    000733  aa  155 160 137 155
    000734  aa  147 162 137 146
    000735  aa  151 156 144 137
    000736  aa  146 144 165 155
    000737  aa  160 000 000 000
    000740  55   000403 000361
    000741  0a   000256 400000
    000742  55   000375 000003
    000743  aa  024 146 144 165         fdump_mgr_init_fdump
    000744  aa  155 160 137 155
    000745  aa  147 162 137 151
    000746  aa  156 151 164 137
    000747  aa  146 144 165 155
    000750  aa  160 000 000 000
    000751  55   000414 000372
    000752  0a   000254 400000
    000753  55   000406 000003
    000754  aa  024 146 144 165         fdump_mgr_list_fdump
    000755  aa  155 160 137 155
    000756  aa  147 162 137 154
    000757  aa  151 163 164 137
    000760  aa  146 144 165 155
    000761  aa  160 000 000 000
    000762  55   000424 000403
    000763  0a   000252 400000
    000764  55   000417 000003
    000765  aa  022 146 144 165         fdump_mgr_name_erf
    000766  aa  155 160 137 155
    000767  aa  147 162 137 156
    000770  aa  141 155 145 137
    000771  aa  145 162 146 000
    000772  55   000436 000414
    000773  0a   000250 400000
    000774  55   000427 000003
    000775  aa  032 146 144 165         fdump_mgr_really_terminate
    000776  aa  155 160 137 155
    000777  aa  147 162 137 162
    001000  aa  145 141 154 154
    001001  aa  171 137 164 145
    001002  aa  162 155 151 156
    001003  aa  141 164 145 000
    001004  55   000450 000424
    001005  0a   000246 400000
    001006  55   000441 000003
    001007  aa  031 146 144 165         fdump_mgr_terminate_fdump
    001010  aa  155 160 137 155
    001011  aa  147 162 137 164
    001012  aa  145 162 155 151
    001013  aa  156 141 164 145
    001014  aa  137 146 144 165
    001015  aa  155 160 000 000
    001016  55   000460 000436
    001017  0a   000244 400000
    001020  55   000453 000003
    001021  aa  021 146 144 165         fdump_mgr_cur_erf
    001022  aa  155 160 137 155
    001023  aa  147 162 137 143
    001024  aa  165 162 137 145
    001025  aa  162 146 000 000
    001026  55   000470 000450
    001027  0a   000242 400000
    001030  55   000463 000003
    001031  aa  021 154 151 163         list_system_dumps
    001032  aa  164 137 163 171
    001033  aa  163 164 145 155
    001034  aa  137 144 165 155
    001035  aa  160 163 000 000
    001036  55   000500 000460
    001037  0a   000240 400000
    001040  55   000473 000003
    001041  aa  020 146 151 156         find_system_pdir
    001042  aa  144 137 163 171
    001043  aa  163 164 145 155
    001044  aa  137 160 144 151
    001045  aa  162 000 000 000
    001046  55   000510 000470
    001047  0a   000236 400000
    001050  55   000503 000003
    001051  aa  021 146 151 156         find_system_fdump
    001052  aa  144 137 163 171
    001053  aa  163 164 145 155
    001054  aa  137 146 144 165
    001055  aa  155 160 000 000
    001056  55   000516 000500
    001057  0a   000234 400000
    001060  55   000513 000003
    001061  aa  012 145 162 162         error_info
    001062  aa  157 162 137 151
    001063  aa  156 146 157 000
    001064  55   000526 000510
    001065  0a   000232 400000
    001066  55   000521 000003
    001067  aa  020 145 162 162         error_for_caller
    001070  aa  157 162 137 146
    001071  aa  157 162 137 143
    001072  aa  141 154 154 145
    001073  aa  162 000 000 000
    001074  55   000533 000516
    001075  0a   000230 400000
    001076  55   000531 000003
    001077  aa  005 145 162 162         error
    001100  aa  157 162 000 000
    001101  55   000543 000526
    001102  0a   000226 400000
    001103  55   000536 000003
    001104  aa  023 144 157 137         do_translation_hunt
    001105  aa  164 162 141 156
    001106  aa  163 154 141 164
    001107  aa  151 157 156 137
    001110  aa  150 165 156 164
    001111  55   000554 000533
    001112  0a   000224 400000
    001113  55   000546 000003
    001114  aa  027 144 157 137         do_translation_hunt_ptr
    001115  aa  164 162 141 156
    001116  aa  163 154 141 164
    001117  aa  151 157 156 137
    001120  aa  150 165 156 164
    001121  aa  137 160 164 162
    001122  55   000565 000543
    001123  0a   000222 400000
    001124  55   000557 000003
    001125  aa  025 144 157 137         do_translation_by_ptr
    001126  aa  164 162 141 156
    001127  aa  163 154 141 164
    001130  aa  151 157 156 137
    001131  aa  142 171 137 160
    001132  aa  164 162 000 000
    001133  55   000576 000554
    001134  0a   000220 400000
    001135  55   000570 000003
    001136  aa  024 144 157 137         do_translation_segno
    001137  aa  164 162 141 156
    001140  aa  163 154 141 164
    001141  aa  151 157 156 137
    001142  aa  163 145 147 156
    001143  aa  157 000 000 000
    001144  55   000605 000565
    001145  0a   000216 400000
    001146  55   000601 000003
    001147  aa  016 144 157 137         do_translation
    001150  aa  164 162 141 156
    001151  aa  163 154 141 164
    001152  aa  151 157 156 000
    001153  55   000615 000576
    001154  0a   000214 400000
    001155  55   000610 000003
    001156  aa  021 144 145 146         definition_offset
    001157  aa  151 156 151 164
    001160  aa  151 157 156 137
    001161  aa  157 146 146 163
    001162  aa  145 164 000 000
    001163  55   000624 000605
    001164  0a   000212 400000
    001165  55   000620 000003
    001166  aa  016 144 145 146         definition_ptr
    001167  aa  151 156 151 164
    001170  aa  151 157 156 137
    001171  aa  160 164 162 000
    001172  55   000634 000615
    001173  0a   000210 400000
    001174  55   000627 000003
    001175  aa  023 144 145 146         definition_set_from
    001176  aa  151 156 151 164
    001177  aa  151 157 156 137
    001200  aa  163 145 164 137
    001201  aa  146 162 157 155
    001202  55   000644 000624
    001203  0a   000206 400000
    001204  55   000637 000003
    001205  aa  022 144 145 146         definition_set_prn
    001206  aa  151 156 151 164
    001207  aa  151 157 156 137
    001210  aa  163 145 164 137
    001211  aa  160 162 156 000
    001212  55   000655 000634
    001213  0a   000204 400000
    001214  55   000647 000003
    001215  aa  027 144 145 146         definition_set_prn_name
    001216  aa  151 156 151 164
    001217  aa  151 157 156 137
    001220  aa  163 145 164 137
    001221  aa  160 162 156 137
    001222  aa  156 141 155 145
    001223  55   000665 000644
    001224  0a   000202 400000
    001225  55   000660 000003
    001226  aa  022 144 145 146         definition_get_prn
    001227  aa  151 156 151 164
    001230  aa  151 157 156 137
    001231  aa  147 145 164 137
    001232  aa  160 162 156 000
    001233  55   000675 000655
    001234  0a   000200 400000
    001235  55   000670 000003
    001236  aa  020 144 160 137         dp_expand_to_ptr
    001237  aa  145 170 160 141
    001240  aa  156 144 137 164
    001241  aa  157 137 160 164
    001242  aa  162 000 000 000
    001243  55   000704 000665
    001244  0a   000176 400000
    001245  55   000700 000003
    001246  aa  015 144 145 141         deadproc_term
    001247  aa  144 160 162 157
    001250  aa  143 137 164 145
    001251  aa  162 155 000 000
    001252  55   000713 000675
    001253  0a   000174 400000
    001254  55   000707 000003
    001255  aa  015 144 145 141         deadproc_init
    001256  aa  144 160 162 157
    001257  aa  143 137 151 156
    001260  aa  151 164 000 000
    001261  55   000723 000704
    001262  0a   000172 400000
    001263  55   000716 000003
    001264  aa  020 144 145 141         deadproc_name_af
    001265  aa  144 160 162 157
    001266  aa  143 137 156 141
    001267  aa  155 145 137 141
    001270  aa  146 000 000 000
    001271  55   000732 000713
    001272  0a   000170 400000
    001273  55   000726 000003
    001274  aa  015 144 145 141         deadproc_name
    001275  aa  144 160 162 157
    001276  aa  143 137 156 141
    001277  aa  155 145 000 000
    001300  55   000742 000723
    001301  0a   000166 400000
    001302  55   000735 000003
    001303  aa  020 144 160 137         dp_name_to_segno
    001304  aa  156 141 155 145
    001305  aa  137 164 157 137
    001306  aa  163 145 147 156
    001307  aa  157 000 000 000
    001310  55   000752 000732
    001311  0a   000164 400000
    001312  55   000745 000003
    001313  aa  020 144 160 137         dp_segno_to_name
    001314  aa  163 145 147 156
    001315  aa  157 137 164 157
    001316  aa  137 156 141 155
    001317  aa  145 000 000 000
    001320  55   000762 000742
    001321  0a   000162 400000
    001322  55   000755 000003
    001323  aa  020 143 165 162         current_deadproc
    001324  aa  162 145 156 164
    001325  aa  137 144 145 141
    001326  aa  144 160 162 157
    001327  aa  143 000 000 000
    001330  55   000772 000752
    001331  0a   000160 400000
    001332  55   000765 000003
    001333  aa  022 144 160 137         dp_create_uid_hash
    001334  aa  143 162 145 141
    001335  aa  164 145 137 165
    001336  aa  151 144 137 150
    001337  aa  141 163 150 000
    001340  55   001000 000762
    001341  0a   000156 400000
    001342  55   000775 000003
    001343  aa  010 144 145 141         deadproc
    001344  aa  144 160 162 157
    001345  aa  143 000 000 000
    001346  55   001011 000772
    001347  0a   000154 400000
    001350  55   001003 000003
    001351  aa  024 162 145 163         resolve_virtual_addr
    001352  aa  157 154 166 145
    001353  aa  137 166 151 162
    001354  aa  164 165 141 154
    001355  aa  137 141 144 144
    001356  aa  162 000 000 000
    001357  55   001021 001000
    001360  0a   000152 400000
    001361  55   001014 000003
    001362  aa  023 147 145 164         get_segno_from_name
    001363  aa  137 163 145 147
    001364  aa  156 157 137 146
    001365  aa  162 157 155 137
    001366  aa  156 141 155 145
    001367  55   001032 001011
    001370  0a   000150 400000
    001371  55   001024 000003
    001372  aa  027 147 145 164         get_va_args_given_start
    001373  aa  137 166 141 137
    001374  aa  141 162 147 163
    001375  aa  137 147 151 166
    001376  aa  145 156 137 163
    001377  aa  164 141 162 164
    001400  55   001040 001021
    001401  0a   000146 400000
    001402  55   001035 000003
    001403  aa  013 147 145 164         get_va_args
    001404  aa  137 166 141 137
    001405  aa  141 162 147 163
    001406  55   001050 001032
    001407  0a   000144 400000
    001410  55   001043 000003
    001411  aa  023 147 145 164         get_l1dir_shortname
    001412  aa  137 154 061 144
    001413  aa  151 162 137 163
    001414  aa  150 157 162 164
    001415  aa  156 141 155 145
    001416  55   001060 001040
    001417  0a   000142 400000
    001420  55   001053 000003
    001421  aa  023 164 162 141         translate_force_add
    001422  aa  156 163 154 141
    001423  aa  164 145 137 146
    001424  aa  157 162 143 145
    001425  aa  137 141 144 144
    001426  55   001067 001050
    001427  0a   000140 400000
    001430  55   001063 000003
    001431  aa  015 164 162 141         translate_get
    001432  aa  156 163 154 141
    001433  aa  164 145 137 147
    001434  aa  145 164 000 000
    001435  55   001077 001060
    001436  0a   000136 400000
    001437  55   001072 000003
    001440  aa  022 164 162 141         translate_allocate
    001441  aa  156 163 154 141
    001442  aa  164 145 137 141
    001443  aa  154 154 157 143
    001444  aa  141 164 145 000
    001445  55   001106 001067
    001446  0a   000134 400000
    001447  55   001102 000003
    001450  aa  015 164 162 141         translate_add
    001451  aa  156 163 154 141
    001452  aa  164 145 137 141
    001453  aa  144 144 000 000
    001454  55   001114 001077
    001455  0a   000132 400000
    001456  55   001111 000003
    001457  aa  011 164 162 141         translate
    001460  aa  156 163 154 141
    001461  aa  164 145 000 000
    001462  55   001125 001106
    001463  0a   000130 400000
    001464  55   001117 000003
    001465  aa  024 164 145 155         temp_seg_release_all
    001466  aa  160 137 163 145
    001467  aa  147 137 162 145
    001470  aa  154 145 141 163
    001471  aa  145 137 141 154
    001472  aa  154 000 000 000
    001473  55   001134 001114
    001474  0a   000126 400000
    001475  55   001130 000003
    001476  aa  014 164 145 155         temp_seg_get
    001477  aa  160 137 163 145
    001500  aa  147 137 147 145
    001501  aa  164 000 000 000
    001502  55   001142 001125
    001503  0a   000124 400000
    001504  55   001137 000003
    001505  aa  010 164 145 155         temp_seg
    001506  aa  160 137 163 145
    001507  aa  147 000 000 000
    001510  55   001151 001134
    001511  0a   000122 400000
    001512  55   001145 000003
    001513  aa  017 164 143 137         tc_data_get_dbr
    001514  aa  144 141 164 141
    001515  aa  137 147 145 164
    001516  aa  137 144 142 162
    001517  55   001162 001142
    001520  0a   000120 400000
    001521  55   001154 000003
    001522  aa  025 164 143 137         tc_data_get_apt_entry
    001523  aa  144 141 164 141
    001524  aa  137 147 145 164
    001525  aa  137 141 160 164
    001526  aa  137 145 156 164
    001527  aa  162 171 000 000
    001530  55   001174 001151
    001531  0a   000116 400000
    001532  55   001165 000003
    001533  aa  032 164 143 137         tc_data_find_first_running
    001534  aa  144 141 164 141
    001535  aa  137 146 151 156
    001536  aa  144 137 146 151
    001537  aa  162 163 164 137
    001540  aa  162 165 156 156
    001541  aa  151 156 147 000
    001542  55   001205 001162
    001543  0a   000114 400000
    001544  55   001177 000003
    001545  aa  027 164 143 137         tc_data_print_this_apte
    001546  aa  144 141 164 141
    001547  aa  137 160 162 151
    001550  aa  156 164 137 164
    001551  aa  150 151 163 137
    001552  aa  141 160 164 145
    001553  55   001215 001174
    001554  0a   000112 400000
    001555  55   001210 000003
    001556  aa  021 164 143 137         tc_data_find_apte
    001557  aa  144 141 164 141
    001560  aa  137 146 151 156
    001561  aa  144 137 141 160
    001562  aa  164 145 000 000
    001563  55   001223 001205
    001564  0a   000110 400000
    001565  55   001220 000003
    001566  aa  013 164 143 137         tc_data_tcq
    001567  aa  144 141 164 141
    001570  aa  137 164 143 161
    001571  55   001230 001215
    001572  0a   000106 400000
    001573  55   001226 000003
    001574  aa  007 164 143 137         tc_data
    001575  aa  144 141 164 141
    001576  55   001241 001223
    001577  0a   000104 400000
    001600  55   001233 000003
    001601  aa  027 163 154 164         slt_search_init_seg_ptr
    001602  aa  137 163 145 141
    001603  aa  162 143 150 137
    001604  aa  151 156 151 164
    001605  aa  137 163 145 147
    001606  aa  137 160 164 162
    001607  55   001251 001230
    001610  0a   000102 400000
    001611  55   001244 000003
    001612  aa  022 163 154 164         slt_search_seg_ptr
    001613  aa  137 163 145 141
    001614  aa  162 143 150 137
    001615  aa  163 145 147 137
    001616  aa  160 164 162 000
    001617  55   001261 001241
    001620  0a   000100 400000
    001621  55   001254 000003
    001622  aa  022 163 154 164         slt_search_seg_num
    001623  aa  137 163 145 141
    001624  aa  162 143 150 137
    001625  aa  163 145 147 137
    001626  aa  156 165 155 000
    001627  55   001272 001251
    001630  0a   000076 400000
    001631  55   001264 000003
    001632  aa  027 163 154 164         slt_search_last_sup_seg
    001633  aa  137 163 145 141
    001634  aa  162 143 150 137
    001635  aa  154 141 163 164
    001636  aa  137 163 165 160
    001637  aa  137 163 145 147
    001640  55   001304 001261
    001641  0a   000074 400000
    001642  55   001275 000003
    001643  aa  030 163 154 164         slt_search_first_sup_seg
    001644  aa  137 163 145 141
    001645  aa  162 143 150 137
    001646  aa  146 151 162 163
    001647  aa  164 137 163 165
    001650  aa  160 137 163 145
    001651  aa  147 000 000 000
    001652  55   001312 001272
    001653  0a   000072 400000
    001654  55   001307 000003
    001655  aa  012 163 145 141         search_seg
    001656  aa  162 143 150 137
    001657  aa  163 145 147 000
    001660  55   001323 001304
    001661  0a   000070 400000
    001662  55   001315 000003
    001663  aa  026 163 145 141         search_path_set_object
    001664  aa  162 143 150 137
    001665  aa  160 141 164 150
    001666  aa  137 163 145 164
    001667  aa  137 157 142 152
    001670  aa  145 143 164 000
    001671  55   001334 001312
    001672  0a   000066 400000
    001673  55   001326 000003
    001674  aa  024 163 145 141         search_path_set_dump
    001675  aa  162 143 150 137
    001676  aa  160 141 164 150
    001677  aa  137 163 145 164
    001700  aa  137 144 165 155
    001701  aa  160 000 000 000
    001702  55   001345 001323
    001703  0a   000064 400000
    001704  55   001337 000003
    001705  aa  026 163 145 141         search_path_get_object
    001706  aa  162 143 150 137
    001707  aa  160 141 164 150
    001710  aa  137 147 145 164
    001711  aa  137 157 142 152
    001712  aa  145 143 164 000
    001713  55   001356 001334
    001714  0a   000062 400000
    001715  55   001350 000003
    001716  aa  024 163 145 141         search_path_get_dump
    001717  aa  162 143 150 137
    001720  aa  160 141 164 150
    001721  aa  137 147 145 164
    001722  aa  137 144 165 155
    001723  aa  160 000 000 000
    001724  55   001364 001345
    001725  0a   000060 400000
    001726  55   001361 000003
    001727  aa  013 163 145 141         search_path
    001730  aa  162 143 150 137
    001731  aa  160 141 164 150
    001732  55   001374 001356
    001733  0a   000056 400000
    001734  55   001367 000003
    001735  aa  022 162 145 164         return_val_phcs_ok
    001736  aa  165 162 156 137
    001737  aa  166 141 154 137
    001740  aa  160 150 143 163
    001741  aa  137 157 153 000
    001742  55   001405 001364
    001743  0a   000054 400000
    001744  55   001377 000003
    001745  aa  026 162 145 164         return_val_per_process
    001746  aa  165 162 156 137
    001747  aa  166 141 154 137
    001750  aa  160 145 162 137
    001751  aa  160 162 157 143
    001752  aa  145 163 163 000
    001753  55   001416 001374
    001754  0a   000052 400000
    001755  55   001410 000003
    001756  aa  027 162 145 164         return_val_idx_from_dbr
    001757  aa  165 162 156 137
    001760  aa  166 141 154 137
    001761  aa  151 144 170 137
    001762  aa  146 162 157 155
    001763  aa  137 144 142 162
    001764  55   001427 001405
    001765  0a   000050 400000
    001766  55   001421 000003
    001767  aa  027 162 145 164         return_val_dbr_from_idx
    001770  aa  165 162 156 137
    001771  aa  166 141 154 137
    001772  aa  144 142 162 137
    001773  aa  146 162 157 155
    001774  aa  137 151 144 170
    001775  55   001440 001416
    001776  0a   000046 400000
    001777  55   001432 000003
    002000  aa  027 162 145 164         return_val_cpu_from_idx
    002001  aa  165 162 156 137
    002002  aa  166 141 154 137
    002003  aa  143 160 165 137
    002004  aa  146 162 157 155
    002005  aa  137 151 144 170
    002006  55   001451 001427
    002007  0a   000044 400000
    002010  55   001443 000003
    002011  aa  027 162 145 164         return_val_cpu_from_dbr
    002012  aa  165 162 156 137
    002013  aa  166 141 154 137
    002014  aa  143 160 165 137
    002015  aa  146 162 157 155
    002016  aa  137 144 142 162
    002017  55   001457 001440
    002020  0a   000042 400000
    002021  55   001454 000003
    002022  aa  012 162 145 164         return_val
    002023  aa  165 162 156 137
    002024  aa  166 141 154 000
    002025  55   001466 001451
    002026  0a   000040 400000
    002027  55   001462 000003
    002030  aa  015 162 145 160         replace_trans
    002031  aa  154 141 143 145
    002032  aa  137 164 162 141
    002033  aa  156 163 000 000
    002034  55   001475 001457
    002035  0a   000036 400000
    002036  55   001471 000003
    002037  aa  017 160 162 151         print_inst_dump
    002040  aa  156 164 137 151
    002041  aa  156 163 164 137
    002042  aa  144 165 155 160
    002043  55   001505 001466
    002044  0a   000034 400000
    002045  55   001500 000003
    002046  aa  022 160 162 151         print_dump_ptr_exp
    002047  aa  156 164 137 144
    002050  aa  165 155 160 137
    002051  aa  160 164 162 137
    002052  aa  145 170 160 000
    002053  55   001514 001475
    002054  0a   000032 400000
    002055  55   001510 000003
    002056  aa  016 160 162 151         print_dump_ptr
    002057  aa  156 164 137 144
    002060  aa  165 155 160 137
    002061  aa  160 164 162 000
    002062  55   001524 001505
    002063  0a   000030 400000
    002064  55   001517 000003
    002065  aa  023 160 162 151         print_dump_pptr_exp
    002066  aa  156 164 137 144
    002067  aa  165 155 160 137
    002070  aa  160 160 164 162
    002071  aa  137 145 170 160
    002072  55   001533 001514
    002073  0a   000026 400000
    002074  55   001527 000003
    002075  aa  017 160 162 151         print_dump_pptr
    002076  aa  156 164 137 144
    002077  aa  165 155 160 137
    002100  aa  160 160 164 162
    002101  55   001542 001524
    002102  0a   000024 400000
    002103  55   001536 000003
    002104  aa  016 160 162 151         print_dump_oct
    002105  aa  156 164 137 144
    002106  aa  165 155 160 137
    002107  aa  157 143 164 000
    002110  55   001552 001533
    002111  0a   000022 400000
    002112  55   001545 000003
    002113  aa  022 160 162 151         print_char_dump_af
    002114  aa  156 164 137 143
    002115  aa  150 141 162 137
    002116  aa  144 165 155 160
    002117  aa  137 141 146 000
    002120  55   001561 001542
    002121  0a   000020 400000
    002122  55   001555 000003
    002123  aa  017 160 162 151         print_char_dump
    002124  aa  156 164 137 143
    002125  aa  150 141 162 137
    002126  aa  144 165 155 160
    002127  55   001570 001552
    002130  0a   000016 400000
    002131  55   001564 000003
    002132  aa  015 160 162 151         print_apte_bf
    002133  aa  156 164 137 141
    002134  aa  160 164 145 137
    002135  aa  142 146 000 000
    002136  55   001576 001561
    002137  0a   000014 400000
    002140  55   001573 000003
    002141  aa  012 160 162 151         print_apte
    002142  aa  156 164 137 141
    002143  aa  160 164 145 000
    002144  55   001603 001570
    002145  0a   000012 400000
    002146  55   001601 000003
    002147  aa  005 160 162 151         print
    002150  aa  156 164 000 000
    002151  55   001613 001576
    002152  0a   000010 400000
    002153  55   001606 000003
    002154  aa  021 160 162 151         print_text_format
    002155  aa  156 164 137 164
    002156  aa  145 170 164 137
    002157  aa  146 157 162 155
    002160  aa  141 164 000 000
    002161  55   001623 001603
    002162  0a   000006 400000
    002163  55   001616 000003
    002164  aa  021 160 162 151         print_text_offset
    002165  aa  156 164 137 164
    002166  aa  145 170 164 137
    002167  aa  157 146 146 163
    002170  aa  145 164 000 000
    002171  55   001631 001613
    002172  0a   000004 400000
    002173  55   001626 000003
    002174  aa  012 160 162 151         print_text
    002175  aa  156 164 137 164
    002176  aa  145 170 164 000
    002177  55   001641 001623
    002200  0a   000002 400000
    002201  55   001634 000003
    002202  aa  022 143 162 145         create_translation
    002203  aa  141 164 145 137
    002204  aa  164 162 141 156
    002205  aa  163 154 141 164
    002206  aa  151 157 156 000
    002207  55   001652 001631
    002210  0a   000000 400000
    002211  55   001644 000003
    002212  aa  025 164 145 162         terminate_translation
    002213  aa  155 151 156 141
    002214  aa  164 145 137 164
    002215  aa  162 141 156 163
    002216  aa  154 141 164 151
    002217  aa  157 156 000 000
    002220  55   000002 001641
    002221  6a   000000 400002
    002222  55   001655 000003
    002223  aa  014 163 171 155         symbol_table
    002224  aa  142 157 154 137
    002225  aa  164 141 142 154
    002226  aa  145 000 000 000

DEFINITIONS HASH TABLE

    002227  aa   000000 000235
    002230  5a   000543 000000
    002231  aa   000000 000000
    002232  aa   000000 000000
    002233  5a   000500 000000
    002234  5a   000554 000000
    002235  5a   000470 000000
    002236  5a   000565 000000
    002237  5a   001241 000000
    002240  5a   000533 000000
    002241  5a   001251 000000
    002242  5a   001312 000000
    002243  5a   000752 000000
    002244  5a   001323 000000
    002245  5a   001334 000000
    002246  5a   000050 000000
    002247  5a   001345 000000
    002250  aa   000000 000000
    002251  aa   000000 000000
    002252  5a   000036 000000
    002253  5a   000073 000000
    002254  5a   000576 000000
    002255  aa   000000 000000
    002256  5a   001162 000000
    002257  aa   000000 000000
    002260  5a   000025 000000
    002261  5a   000062 000000
    002262  5a   001050 000000
    002263  5a   001067 000000
    002264  5a   001174 000000
    002265  5a   001304 000000
    002266  5a   001356 000000
    002267  5a   001631 000000
    002270  5a   001151 000000
    002271  aa   000000 000000
    002272  aa   000000 000000
    002273  aa   000000 000000
    002274  aa   000000 000000
    002275  5a   001060 000000
    002276  5a   001077 000000
    002277  aa   000000 000000
    002300  5a   000115 000000
    002301  5a   001205 000000
    002302  aa   000000 000000
    002303  aa   000000 000000
    002304  5a   001142 000000
    002305  5a   001106 000000
    002306  5a   000460 000000
    002307  aa   000000 000000
    002310  5a   000127 000000
    002311  aa   000000 000000
    002312  aa   000000 000000
    002313  5a   000762 000000
    002314  5a   001215 000000
    002315  aa   000000 000000
    002316  5a   000105 000000
    002317  5a   000665 000000
    002320  5a   000732 000000
    002321  5a   000742 000000
    002322  aa   000000 000000
    002323  aa   000000 000000
    002324  5a   001223 000000
    002325  5a   001514 000000
    002326  5a   001475 000000
    002327  5a   001542 000000
    002330  5a   001603 000000
    002331  5a   001613 000000
    002332  5a   001405 000000
    002333  5a   001416 000000
    002334  5a   000644 000000
    002335  5a   001374 000000
    002336  5a   001427 000000
    002337  5a   001000 000000
    002340  5a   001440 000000
    002341  5a   001466 000000
    002342  5a   001505 000000
    002343  5a   001524 000000
    002344  5a   000624 000000
    002345  5a   000713 000000
    002346  5a   000634 000000
    002347  5a   000655 000000
    002350  5a   000605 000000
    002351  5a   001364 000000
    002352  5a   001457 000000
    002353  5a   000675 000000
    002354  5a   000704 000000
    002355  5a   000723 000000
    002356  5a   000615 000000
    002357  5a   001533 000000
    002360  5a   001552 000000
    002361  5a   001561 000000
    002362  5a   001570 000000
    002363  5a   000211 000000
    002364  5a   001451 000000
    002365  5a   000772 000000
    002366  5a   001576 000000
    002367  5a   000016 000000
    002370  5a   001623 000000
    002371  5a   000250 000000
    002372  5a   001652 000000
    002373  5a   000177 000000
    002374  5a   000224 000000
    002375  5a   000236 000000
    002376  5a   000424 000000
    002377  5a   000160 000000
    002400  5a   000263 000000
    002401  5a   000010 000000
    002402  5a   000316 000000
    002403  5a   000330 000000
    002404  5a   000436 000000
    002405  5a   001011 000000
    002406  5a   000516 000000
    002407  5a   000150 000000
    002410  5a   001021 000000
    002411  5a   000275 000000
    002412  5a   000342 000000
    002413  5a   000140 000000
    002414  5a   000306 000000
    002415  5a   000361 000000
    002416  5a   000372 000000
    002417  5a   000403 000000
    002420  5a   000414 000000
    002421  5a   000450 000000
    002422  5a   000510 000000
    002423  5a   001040 000000
    002424  aa   000000 000000
    002425  5a   001032 000000
    002426  aa   000000 000000
    002427  aa   000000 000000
    002430  aa   000000 000000
    002431  aa   000000 000000
    002432  5a   001114 000000
    002433  5a   000171 000000
    002434  5a   000526 000000
    002435  5a   001641 000000
    002436  aa   000000 000000
    002437  5a   000353 000000
    002440  aa   000000 000000
    002441  aa   000000 000000
    002442  aa   000000 000000
    002443  aa   000000 000000
    002444  aa   000000 000000
    002445  aa   000000 000000
    002446  aa   000000 000000
    002447  aa   000000 000000
    002450  aa   000000 000000
    002451  aa   000000 000000
    002452  5a   001125 000000
    002453  aa   000000 000000
    002454  5a   001272 000000
    002455  aa   000000 000000
    002456  5a   001230 000000
    002457  5a   001261 000000
    002460  aa   000000 000000
    002461  aa   000000 000000
    002462  5a   001134 000000
    002463  aa   000000 000000
    002464  aa   000000 000000

EXTERNAL NAMES

    002465  aa  004 150 141 162         hard
    002466  aa  144 000 000 000
    002467  aa  017 141 155 165         amu_check_info_
    002470  aa  137 143 150 145
    002471  aa  143 153 137 151
    002472  aa  156 146 157 137
    002473  aa  014 165 151 144         uid_to_kstep
    002474  aa  137 164 157 137
    002475  aa  153 163 164 145
    002476  aa  160 000 000 000
    002477  aa  017 165 151 144         uid_to_uid_path
    002500  aa  137 164 157 137
    002501  aa  165 151 144 137
    002502  aa  160 141 164 150
    002503  aa  021 163 145 147         segno_to_uid_path
    002504  aa  156 157 137 164
    002505  aa  157 137 165 151
    002506  aa  144 137 160 141
    002507  aa  164 150 000 000
    002510  aa  014 163 145 147         segno_to_uid
    002511  aa  156 157 137 164
    002512  aa  157 137 165 151
    002513  aa  144 000 000 000
    002514  aa  017 145 170 160         expand_uid_path
    002515  aa  141 156 144 137
    002516  aa  165 151 144 137
    002517  aa  160 141 164 150
    002520  aa  015 141 155 165         amu_kst_util_
    002521  aa  137 153 163 164
    002522  aa  137 165 164 151
    002523  aa  154 137 000 000
    002524  aa  014 163 145 164         set_cur_ptrs
    002525  aa  137 143 165 162
    002526  aa  137 160 164 162
    002527  aa  163 000 000 000
    002530  aa  022 141 155 165         amu_hardcore_info_
    002531  aa  137 150 141 162
    002532  aa  144 143 157 162
    002533  aa  145 137 151 156
    002534  aa  146 157 137 000
    002535  aa  007 156 157 137         no_comp
    002536  aa  143 157 155 160
    002537  aa  015 147 145 164         get_ptr_count
    002540  aa  137 160 164 162
    002541  aa  137 143 157 165
    002542  aa  156 164 000 000
    002543  aa  015 146 157 162         for_structure
    002544  aa  137 163 164 162
    002545  aa  165 143 164 165
    002546  aa  162 145 000 000
    002547  aa  013 147 145 164         get_seg_lth
    002550  aa  137 163 145 147
    002551  aa  137 154 164 150
    002552  aa  017 147 145 164         get_translation
    002553  aa  137 164 162 141
    002554  aa  156 163 154 141
    002555  aa  164 151 157 156
    002556  aa  013 164 157 137         to_temp_seg
    002557  aa  164 145 155 160
    002560  aa  137 163 145 147
    002561  aa  012 143 157 156         contiguous
    002562  aa  164 151 147 165
    002563  aa  157 165 163 000
    002564  aa  024 141 155 165         amu_fdump_translate_
    002565  aa  137 146 144 165
    002566  aa  155 160 137 164
    002567  aa  162 141 156 163
    002570  aa  154 141 164 145
    002571  aa  137 000 000 000
    002572  aa  022 143 165 162         current_process_af
    002573  aa  162 145 156 164
    002574  aa  137 160 162 157
    002575  aa  143 145 163 163
    002576  aa  137 141 146 000
    002577  aa  017 146 151 154         fill_proc_table
    002600  aa  154 137 160 162
    002601  aa  157 143 137 164
    002602  aa  141 142 154 145
    002603  aa  012 162 145 166         revert_idx
    002604  aa  145 162 164 137
    002605  aa  151 144 170 000
    002606  aa  011 164 145 162         terminate
    002607  aa  155 151 156 141
    002610  aa  164 145 000 000
    002611  aa  017 143 165 162         current_process
    002612  aa  162 145 156 164
    002613  aa  137 160 162 157
    002614  aa  143 145 163 163
    002615  aa  017 164 145 155         temp_change_idx
    002616  aa  160 137 143 150
    002617  aa  141 156 147 145
    002620  aa  137 151 144 170
    002621  aa  012 143 150 141         change_idx
    002622  aa  156 147 145 137
    002623  aa  151 144 170 000
    002624  aa  016 141 155 165         amu_fdump_mpt_
    002625  aa  137 146 144 165
    002626  aa  155 160 137 155
    002627  aa  160 164 137 000
    002630  aa  012 146 151 156         find_fdump
    002631  aa  144 137 146 144
    002632  aa  165 155 160 000
    002633  aa  012 151 156 151         init_fdump
    002634  aa  164 137 146 144
    002635  aa  165 155 160 000
    002636  aa  012 154 151 163         list_fdump
    002637  aa  164 137 146 144
    002640  aa  165 155 160 000
    002641  aa  010 156 141 155         name_erf
    002642  aa  145 137 145 162
    002643  aa  146 000 000 000
    002644  aa  026 162 145 141         really_terminate_fdump
    002645  aa  154 154 171 137
    002646  aa  164 145 162 155
    002647  aa  151 156 141 164
    002650  aa  145 137 146 144
    002651  aa  165 155 160 000
    002652  aa  017 164 145 162         terminate_fdump
    002653  aa  155 151 156 141
    002654  aa  164 145 137 146
    002655  aa  144 165 155 160
    002656  aa  007 143 165 162         cur_erf
    002657  aa  137 145 162 146
    002660  aa  016 141 155 165         amu_fdump_mgr_
    002661  aa  137 146 144 165
    002662  aa  155 160 137 155
    002663  aa  147 162 137 000
    002664  aa  004 154 151 163         list
    002665  aa  164 000 000 000
    002666  aa  004 160 144 151         pdir
    002667  aa  162 000 000 000
    002670  aa  005 146 144 165         fdump
    002671  aa  155 160 000 000
    002672  aa  025 141 155 165         amu_find_system_dump_
    002673  aa  137 146 151 156
    002674  aa  144 137 163 171
    002675  aa  163 164 145 155
    002676  aa  137 144 165 155
    002677  aa  160 137 000 000
    002700  aa  004 151 156 146         info
    002701  aa  157 000 000 000
    002702  aa  012 146 157 162         for_caller
    002703  aa  137 143 141 154
    002704  aa  154 145 162 000
    002705  aa  012 141 155 165         amu_error_
    002706  aa  137 145 162 162
    002707  aa  157 162 137 000
    002710  aa  004 150 165 156         hunt
    002711  aa  164 000 000 000
    002712  aa  010 150 165 156         hunt_ptr
    002713  aa  164 137 160 164
    002714  aa  162 000 000 000
    002715  aa  006 142 171 137         by_ptr
    002716  aa  160 164 162 000
    002717  aa  017 160 164 162         ptr_given_segno
    002720  aa  137 147 151 166
    002721  aa  145 156 137 163
    002722  aa  145 147 156 157
    002723  aa  023 141 155 165         amu_do_translation_
    002724  aa  137 144 157 137
    002725  aa  164 162 141 156
    002726  aa  163 154 141 164
    002727  aa  151 157 156 137
    002730  aa  006 157 146 146         offset
    002731  aa  163 145 164 000
    002732  aa  003 160 164 162         ptr
    002733  aa  010 163 145 164         set_from
    002734  aa  137 146 162 157
    002735  aa  155 000 000 000
    002736  aa  007 163 145 164         set_prn
    002737  aa  137 160 162 156
    002740  aa  014 163 145 164         set_prn_name
    002741  aa  137 160 162 156
    002742  aa  137 156 141 155
    002743  aa  145 000 000 000
    002744  aa  007 147 145 164         get_prn
    002745  aa  137 160 162 156
    002746  aa  017 141 155 165         amu_definition_
    002747  aa  137 144 145 146
    002750  aa  151 156 151 164
    002751  aa  151 157 156 137
    002752  aa  015 145 170 160         expand_to_ptr
    002753  aa  141 156 144 137
    002754  aa  164 157 137 160
    002755  aa  164 162 000 000
    002756  aa  015 164 145 162         term_deadproc
    002757  aa  155 137 144 145
    002760  aa  141 144 160 162
    002761  aa  157 143 000 000
    002762  aa  015 151 156 151         init_deadproc
    002763  aa  164 137 144 145
    002764  aa  141 144 160 162
    002765  aa  157 143 000 000
    002766  aa  012 156 141 155         name_dp_af
    002767  aa  145 137 144 160
    002770  aa  137 141 146 000
    002771  aa  007 156 141 155         name_dp
    002772  aa  145 137 144 160
    002773  aa  015 156 141 155         name_to_segno
    002774  aa  145 137 164 157
    002775  aa  137 163 145 147
    002776  aa  156 157 000 000
    002777  aa  015 163 145 147         segno_to_name
    003000  aa  156 157 137 164
    003001  aa  157 137 156 141
    003002  aa  155 145 000 000
    003003  aa  006 143 165 162         cur_dp
    003004  aa  137 144 160 000
    003005  aa  017 143 162 145         create_uid_hash
    003006  aa  141 164 145 137
    003007  aa  165 151 144 137
    003010  aa  150 141 163 150
    003011  aa  015 141 155 165         amu_deadproc_
    003012  aa  137 144 145 141
    003013  aa  144 160 162 157
    003014  aa  143 137 000 000
    003015  aa  012 162 145 163         resolve_va
    003016  aa  157 154 166 145
    003017  aa  137 166 141 000
    003020  aa  011 147 145 164         get_segno
    003021  aa  137 163 145 147
    003022  aa  156 157 000 000
    003023  aa  023 141 155 165         amu_parse_ptr_args_
    003024  aa  137 160 141 162
    003025  aa  163 145 137 160
    003026  aa  164 162 137 141
    003027  aa  162 147 163 137
    003030  aa  015 141 155 165         amu_get_name_
    003031  aa  137 147 145 164
    003032  aa  137 156 141 155
    003033  aa  145 137 000 000
    003034  aa  011 146 157 162         force_add
    003035  aa  143 145 137 141
    003036  aa  144 144 000 000
    003037  aa  010 141 154 154         allocate
    003040  aa  157 143 141 164
    003041  aa  145 000 000 000
    003042  aa  003 141 144 144         add
    003043  aa  016 141 155 165         amu_translate_
    003044  aa  137 164 162 141
    003045  aa  156 163 154 141
    003046  aa  164 145 137 000
    003047  aa  013 162 145 154         release_all
    003050  aa  145 141 163 145
    003051  aa  137 141 154 154
    003052  aa  003 147 145 164         get
    003053  aa  015 141 155 165         amu_temp_seg_
    003054  aa  137 164 145 155
    003055  aa  160 137 163 145
    003056  aa  147 137 000 000
    003057  aa  007 147 145 164         get_dbr
    003060  aa  137 144 142 162
    003061  aa  015 147 145 164         get_apt_entry
    003062  aa  137 141 160 164
    003063  aa  137 145 156 164
    003064  aa  162 171 000 000
    003065  aa  022 146 151 156         find_first_running
    003066  aa  144 137 146 151
    003067  aa  162 163 164 137
    003070  aa  162 165 156 156
    003071  aa  151 156 147 000
    003072  aa  017 160 162 151         print_this_apte
    003073  aa  156 164 137 164
    003074  aa  150 151 163 137
    003075  aa  141 160 164 145
    003076  aa  011 146 151 156         find_apte
    003077  aa  144 137 141 160
    003100  aa  164 145 000 000
    003101  aa  003 164 143 161         tcq
    003102  aa  014 141 155 165         amu_tc_data_
    003103  aa  137 164 143 137
    003104  aa  144 141 164 141
    003105  aa  137 000 000 000
    003106  aa  020 147 145 164         get_init_seg_ptr
    003107  aa  137 151 156 151
    003110  aa  164 137 163 145
    003111  aa  147 137 160 164
    003112  aa  162 000 000 000
    003113  aa  013 147 145 164         get_seg_ptr
    003114  aa  137 163 145 147
    003115  aa  137 160 164 162
    003116  aa  013 147 145 164         get_seg_num
    003117  aa  137 163 145 147
    003120  aa  137 156 165 155
    003121  aa  020 147 145 164         get_last_sup_seg
    003122  aa  137 154 141 163
    003123  aa  164 137 163 165
    003124  aa  160 137 163 145
    003125  aa  147 000 000 000
    003126  aa  021 147 145 164         get_first_sup_seg
    003127  aa  137 146 151 162
    003130  aa  163 164 137 163
    003131  aa  165 160 137 163
    003132  aa  145 147 000 000
    003133  aa  017 141 155 165         amu_slt_search_
    003134  aa  137 163 154 164
    003135  aa  137 163 145 141
    003136  aa  162 143 150 137
    003137  aa  017 141 155 165         amu_search_seg_
    003140  aa  137 163 145 141
    003141  aa  162 143 150 137
    003142  aa  163 145 147 137
    003143  aa  020 163 145 164         set_object_paths
    003144  aa  137 157 142 152
    003145  aa  145 143 164 137
    003146  aa  160 141 164 150
    003147  aa  163 000 000 000
    003150  aa  016 163 145 164         set_dump_paths
    003151  aa  137 144 165 155
    003152  aa  160 137 160 141
    003153  aa  164 150 163 000
    003154  aa  020 147 145 164         get_object_paths
    003155  aa  137 157 142 152
    003156  aa  145 143 164 137
    003157  aa  160 141 164 150
    003160  aa  163 000 000 000
    003161  aa  016 147 145 164         get_dump_paths
    003162  aa  137 144 165 155
    003163  aa  160 137 160 141
    003164  aa  164 150 163 000
    003165  aa  020 141 155 165         amu_search_path_
    003166  aa  137 163 145 141
    003167  aa  162 143 150 137
    003170  aa  160 141 164 150
    003171  aa  137 000 000 000
    003172  aa  007 160 150 143         phcs_ok
    003173  aa  163 137 157 153
    003174  aa  013 160 145 162         per_process
    003175  aa  137 160 162 157
    003176  aa  143 145 163 163
    003177  aa  014 151 144 170         idx_from_dbr
    003200  aa  137 146 162 157
    003201  aa  155 137 144 142
    003202  aa  162 000 000 000
    003203  aa  014 144 142 162         dbr_from_idx
    003204  aa  137 146 162 157
    003205  aa  155 137 151 144
    003206  aa  170 000 000 000
    003207  aa  020 143 160 165         cpu_tag_from_idx
    003210  aa  137 164 141 147
    003211  aa  137 146 162 157
    003212  aa  155 137 151 144
    003213  aa  170 000 000 000
    003214  aa  020 143 160 165         cpu_tag_from_dbr
    003215  aa  137 164 141 147
    003216  aa  137 146 162 157
    003217  aa  155 137 144 142
    003220  aa  162 000 000 000
    003221  aa  017 141 155 165         amu_return_val_
    003222  aa  137 162 145 164
    003223  aa  165 162 156 137
    003224  aa  166 141 154 137
    003225  aa  022 141 155 165         amu_replace_trans_
    003226  aa  137 162 145 160
    003227  aa  154 141 143 145
    003230  aa  137 164 162 141
    003231  aa  156 163 137 000
    003232  aa  011 151 156 163         inst_dump
    003233  aa  164 137 144 165
    003234  aa  155 160 000 000
    003235  aa  014 144 165 155         dump_ptr_exp
    003236  aa  160 137 160 164
    003237  aa  162 137 145 170
    003240  aa  160 000 000 000
    003241  aa  010 144 165 155         dump_ptr
    003242  aa  160 137 160 164
    003243  aa  162 000 000 000
    003244  aa  015 144 165 155         dump_pptr_exp
    003245  aa  160 137 160 160
    003246  aa  164 162 137 145
    003247  aa  170 160 000 000
    003250  aa  011 144 165 155         dump_pptr
    003251  aa  160 137 160 160
    003252  aa  164 162 000 000
    003253  aa  010 144 165 155         dump_oct
    003254  aa  160 137 157 143
    003255  aa  164 000 000 000
    003256  aa  014 141 146 137         af_char_dump
    003257  aa  143 150 141 162
    003260  aa  137 144 165 155
    003261  aa  160 000 000 000
    003262  aa  011 143 150 141         char_dump
    003263  aa  162 137 144 165
    003264  aa  155 160 000 000
    003265  aa  007 141 160 164         apte_bf
    003266  aa  145 137 142 146
    003267  aa  004 141 160 164         apte
    003270  aa  145 000 000 000
    003271  aa  012 141 155 165         amu_print_
    003272  aa  137 160 162 151
    003273  aa  156 164 137 000
    003274  aa  006 146 157 162         format
    003275  aa  155 141 164 000
    003276  aa  013 162 145 141         real_offset
    003277  aa  154 137 157 146
    003300  aa  146 163 145 164
    003301  aa  017 141 155 165         amu_print_text_
    003302  aa  137 160 162 151
    003303  aa  156 164 137 164
    003304  aa  145 170 164 137
    003305  aa  006 143 162 145         create
    003306  aa  141 164 145 000
    003307  aa  007 144 145 163         destroy
    003310  aa  164 162 157 171
    003311  aa  011 141 155 165         amu_info_
    003312  aa  137 151 156 146
    003313  aa  157 137 000 000

NO TRAP POINTER WORDS

TYPE PAIR BLOCKS

    003314  aa   000004 000000
    003315  55   002121 002121
    003316  aa   000004 000000
    003317  55   002121 002117
    003320  aa   000004 000000
    003321  55   002152 002125
    003322  aa   000004 000000
    003323  55   002152 002131
    003324  aa   000004 000000
    003325  55   002152 002135
    003326  aa   000004 000000
    003327  55   002152 002142
    003330  aa   000004 000000
    003331  55   002152 002146
    003332  aa   000004 000000
    003333  55   002162 002322
    003334  aa   000004 000000
    003335  55   002162 002156
    003336  aa   000004 000000
    003337  55   002162 000775
    003340  aa   000004 000000
    003341  55   002462 002167
    003342  aa   000004 000000
    003343  55   002462 002171
    003344  aa   000004 000000
    003345  55   002462 002175
    003346  aa   000004 000000
    003347  55   002462 002462
    003350  aa   000004 000000
    003351  55   002216 002201
    003352  aa   000004 000000
    003353  55   002216 002204
    003354  aa   000004 000000
    003355  55   002216 002210
    003356  aa   000004 000000
    003357  55   002216 002213
    003360  aa   000004 000000
    003361  55   002256 002224
    003362  aa   000004 000000
    003363  55   002256 002231
    003364  aa   000004 000000
    003365  55   002256 002235
    003366  aa   000004 000000
    003367  55   002256 002240
    003370  aa   000004 000000
    003371  55   002256 002243
    003372  aa   000004 000000
    003373  55   002256 002247
    003374  aa   000004 000000
    003375  55   002256 002253
    003376  aa   000004 000000
    003377  55   002256 002256
    003400  aa   000004 000000
    003401  55   002312 002262
    003402  aa   000004 000000
    003403  55   002312 002265
    003404  aa   000004 000000
    003405  55   002312 002270
    003406  aa   000004 000000
    003407  55   002312 002273
    003410  aa   000004 000000
    003411  55   002312 002276
    003412  aa   000004 000000
    003413  55   002312 002304
    003414  aa   000004 000000
    003415  55   002312 002310
    003416  aa   000004 000000
    003417  55   002324 002316
    003420  aa   000004 000000
    003421  55   002324 002320
    003422  aa   000004 000000
    003423  55   002324 002322
    003424  aa   000004 000000
    003425  55   002337 002332
    003426  aa   000004 000000
    003427  55   002337 002334
    003430  aa   000004 000000
    003431  55   002337 002337
    003432  aa   000004 000000
    003433  55   002355 002342
    003434  aa   000004 000000
    003435  55   002355 002344
    003436  aa   000004 000000
    003437  55   002355 002347
    003440  aa   000004 000000
    003441  55   002355 002351
    003442  aa   000004 000000
    003443  55   002355 002355
    003444  aa   000004 000000
    003445  55   002400 002362
    003446  aa   000004 000000
    003447  55   002400 002364
    003450  aa   000004 000000
    003451  55   002400 002365
    003452  aa   000004 000000
    003453  55   002400 002370
    003454  aa   000004 000000
    003455  55   002400 002372
    003456  aa   000004 000000
    003457  55   002400 002376
    003460  aa   000004 000000
    003461  55   002443 002404
    003462  aa   000004 000000
    003463  55   002443 002410
    003464  aa   000004 000000
    003465  55   002443 002414
    003466  aa   000004 000000
    003467  55   002443 002420
    003470  aa   000004 000000
    003471  55   002443 002423
    003472  aa   000004 000000
    003473  55   002443 002425
    003474  aa   000004 000000
    003475  55   002443 002431
    003476  aa   000004 000000
    003477  55   002443 002435
    003500  aa   000004 000000
    003501  55   002443 002437
    003502  aa   000004 000000
    003503  55   002443 002443
    003504  aa   000004 000000
    003505  55   002455 002447
    003506  aa   000004 000000
    003507  55   002455 002452
    003510  aa   000004 000000
    003511  55   002455 001024
    003512  aa   000004 000000
    003513  55   002455 001035
    003514  aa   000004 000000
    003515  55   002462 001043
    003516  aa   000004 000000
    003517  55   002475 002466
    003520  aa   000004 000000
    003521  55   002475 002504
    003522  aa   000004 000000
    003523  55   002475 002471
    003524  aa   000004 000000
    003525  55   002475 002474
    003526  aa   000004 000000
    003527  55   002475 002475
    003530  aa   000004 000000
    003531  55   002505 002501
    003532  aa   000004 000000
    003533  55   002505 002504
    003534  aa   000004 000000
    003535  55   002505 002505
    003536  aa   000004 000000
    003537  55   002534 002511
    003540  aa   000004 000000
    003541  55   002534 002513
    003542  aa   000004 000000
    003543  55   002534 002517
    003544  aa   000004 000000
    003545  55   002534 002524
    003546  aa   000004 000000
    003547  55   002534 002530
    003550  aa   000004 000000
    003551  55   002534 002533
    003552  aa   000004 000000
    003553  55   002534 002534
    003554  aa   000004 000000
    003555  55   002565 002540
    003556  aa   000004 000000
    003557  55   002565 002545
    003560  aa   000004 000000
    003561  55   002565 002550
    003562  aa   000004 000000
    003563  55   002565 002553
    003564  aa   000004 000000
    003565  55   002565 002560
    003566  aa   000004 000000
    003567  55   002571 002571
    003570  aa   000004 000000
    003571  55   002617 002575
    003572  aa   000004 000000
    003573  55   002617 002602
    003574  aa   000004 000000
    003575  55   002617 002606
    003576  aa   000004 000000
    003577  55   002617 002613
    003600  aa   000004 000000
    003601  55   002617 002617
    003602  aa   000004 000000
    003603  55   002653 002624
    003604  aa   000004 000000
    003605  55   002653 002626
    003606  aa   000004 000000
    003607  55   002653 002631
    003610  aa   000004 000000
    003611  55   002653 002635
    003612  aa   000004 000000
    003613  55   002653 002641
    003614  aa   000004 000000
    003615  55   002653 002646
    003616  aa   000004 000000
    003617  55   002653 002653
    003620  aa   000004 000000
    003621  55   002657 002657
    003622  aa   000004 000000
    003623  55   002723 002664
    003624  aa   000004 000000
    003625  55   002723 002667
    003626  aa   000004 000000
    003627  55   002723 002673
    003630  aa   000004 000000
    003631  55   002723 002676
    003632  aa   000004 000000
    003633  55   002723 002702
    003634  aa   000004 000000
    003635  55   002723 002705
    003636  aa   000004 000000
    003637  55   002723 002710
    003640  aa   000004 000000
    003641  55   002723 002714
    003642  aa   000004 000000
    003643  55   002723 002717
    003644  aa   000004 000000
    003645  55   002723 002721
    003646  aa   000004 000000
    003647  55   002723 002723
    003650  aa   000004 000000
    003651  55   002733 002726
    003652  aa   000004 000000
    003653  55   002733 002730
    003654  aa   000004 000000
    003655  55   002733 002733
    003656  aa   000004 000000
    003657  55   002743 002737
    003660  aa   000004 000000
    003661  55   002743 002741
    003662  aa   000001 000000
    003663  aa   000000 000000

INTERNAL EXPRESSION WORDS

    003664  5a   002746 000000
    003665  5a   002750 000000
    003666  5a   002752 000000
    003667  5a   002754 000000
    003670  5a   002756 000000
    003671  5a   002760 000000
    003672  5a   002762 000000
    003673  5a   002764 000000
    003674  5a   002766 000000
    003675  5a   002770 000000
    003676  5a   002772 000000
    003677  5a   002774 000000
    003700  5a   002776 000000
    003701  5a   003000 000000
    003702  5a   003002 000000
    003703  5a   003004 000000
    003704  5a   003006 000000
    003705  5a   003010 000000
    003706  5a   003012 000000
    003707  5a   003014 000000
    003710  5a   003016 000000
    003711  5a   003020 000000
    003712  5a   003022 000000
    003713  5a   003024 000000
    003714  5a   003026 000000
    003715  5a   003030 000000
    003716  5a   003032 000000
    003717  5a   003034 000000
    003720  5a   003036 000000
    003721  5a   003040 000000
    003722  5a   003042 000000
    003723  5a   003044 000000
    003724  5a   003046 000000
    003725  5a   003050 000000
    003726  5a   003052 000000
    003727  5a   003054 000000
    003730  5a   003056 000000
    003731  5a   003060 000000
    003732  5a   003062 000000
    003733  5a   003064 000000
    003734  5a   003066 000000
    003735  5a   003070 000000
    003736  5a   003072 000000
    003737  5a   003074 000000
    003740  5a   003076 000000
    003741  5a   003100 000000
    003742  5a   003102 000000
    003743  5a   003104 000000
    003744  5a   003106 000000
    003745  5a   003110 000000
    003746  5a   003112 000000
    003747  5a   003114 000000
    003750  5a   003116 000000
    003751  5a   003120 000000
    003752  5a   003122 000000
    003753  5a   003124 000000
    003754  5a   003126 000000
    003755  5a   003130 000000
    003756  5a   003132 000000
    003757  5a   003134 000000
    003760  5a   003136 000000
    003761  5a   003140 000000
    003762  5a   003142 000000
    003763  5a   003144 000000
    003764  5a   003146 000000
    003765  5a   003150 000000
    003766  5a   003152 000000
    003767  5a   003154 000000
    003770  5a   003156 000000
    003771  5a   003160 000000
    003772  5a   003162 000000
    003773  5a   003164 000000
    003774  5a   003166 000000
    003775  5a   003170 000000
    003776  5a   003172 000000
    003777  5a   003174 000000
    004000  5a   003176 000000
    004001  5a   003200 000000
    004002  5a   003202 000000
    004003  5a   003204 000000
    004004  5a   003206 000000
    004005  5a   003210 000000
    004006  5a   003212 000000
    004007  5a   003214 000000
    004010  5a   003216 000000
    004011  5a   003220 000000
    004012  5a   003222 000000
    004013  5a   003224 000000
    004014  5a   003226 000000
    004015  5a   003230 000000
    004016  5a   003232 000000
    004017  5a   003234 000000
    004020  5a   003236 000000
    004021  5a   003240 000000
    004022  5a   003242 000000
    004023  5a   003244 000000
    004024  5a   003246 000000
    004025  5a   003250 000000
    004026  5a   003252 000000
    004027  5a   003254 000000
    004030  5a   003256 000000
    004031  5a   003260 000000
    004032  5a   003262 000000
    004033  5a   003264 000000
    004034  5a   003266 000000
    004035  5a   003270 000000
    004036  5a   003272 000000
    004037  5a   003274 000000
    004040  5a   003276 000000
    004041  5a   003300 000000
    004042  5a   003302 000000
    004043  5a   003304 000000
    004044  5a   003306 000000
    004045  5a   003310 000000
    004046  5a   003312 000000
    004047  aa   000000 000000
LINKAGE INFORMATION

    000000  aa   000000 000000
    000001  0a   000346 000000
    000002  aa   000000 000000
    000003  aa   000000 000000
    000004  aa   000000 000000
    000005  aa   000000 000000
    000006  22   000010 000356
    000007  a2   000000 000000
    000010  9a   777770 0000 46         amu_info_|destroy
    000011  5a   003500 0000 00
    000012  9a   777766 0000 46         amu_info_|create
    000013  5a   003477 0000 00
    000014  9a   777764 0000 46         amu_print_text_|amu_print_text_
    000015  5a   003476 0000 00
    000016  9a   777762 0000 46         amu_print_text_|real_offset
    000017  5a   003475 0000 00
    000020  9a   777760 0000 46         amu_print_text_|format
    000021  5a   003474 0000 00
    000022  9a   777756 0000 46         amu_print_|amu_print_
    000023  5a   003473 0000 00
    000024  9a   777754 0000 46         amu_print_|apte
    000025  5a   003472 0000 00
    000026  9a   777752 0000 46         amu_print_|apte_bf
    000027  5a   003471 0000 00
    000030  9a   777750 0000 46         amu_print_|char_dump
    000031  5a   003470 0000 00
    000032  9a   777746 0000 46         amu_print_|af_char_dump
    000033  5a   003467 0000 00
    000034  9a   777744 0000 46         amu_print_|dump_oct
    000035  5a   003466 0000 00
    000036  9a   777742 0000 46         amu_print_|dump_pptr
    000037  5a   003465 0000 00
    000040  9a   777740 0000 46         amu_print_|dump_pptr_exp
    000041  5a   003464 0000 00
    000042  9a   777736 0000 46         amu_print_|dump_ptr
    000043  5a   003463 0000 00
    000044  9a   777734 0000 46         amu_print_|dump_ptr_exp
    000045  5a   003462 0000 00
    000046  9a   777732 0000 46         amu_print_|inst_dump
    000047  5a   003461 0000 00
    000050  9a   777730 0000 46         amu_replace_trans_|amu_replace_trans_
    000051  5a   003460 0000 00
    000052  9a   777726 0000 46         amu_return_val_|amu_return_val_
    000053  5a   003457 0000 00
    000054  9a   777724 0000 46         amu_return_val_|cpu_tag_from_dbr
    000055  5a   003456 0000 00
    000056  9a   777722 0000 46         amu_return_val_|cpu_tag_from_idx
    000057  5a   003455 0000 00
    000060  9a   777720 0000 46         amu_return_val_|dbr_from_idx
    000061  5a   003454 0000 00
    000062  9a   777716 0000 46         amu_return_val_|idx_from_dbr
    000063  5a   003453 0000 00
    000064  9a   777714 0000 46         amu_return_val_|per_process
    000065  5a   003452 0000 00
    000066  9a   777712 0000 46         amu_return_val_|phcs_ok
    000067  5a   003451 0000 00
    000070  9a   777710 0000 46         amu_search_path_|amu_search_path_
    000071  5a   003450 0000 00
    000072  9a   777706 0000 46         amu_search_path_|get_dump_paths
    000073  5a   003447 0000 00
    000074  9a   777704 0000 46         amu_search_path_|get_object_paths
    000075  5a   003446 0000 00
    000076  9a   777702 0000 46         amu_search_path_|set_dump_paths
    000077  5a   003445 0000 00
    000100  9a   777700 0000 46         amu_search_path_|set_object_paths
    000101  5a   003444 0000 00
    000102  9a   777676 0000 46         amu_search_seg_|amu_search_seg_
    000103  5a   003443 0000 00
    000104  9a   777674 0000 46         amu_slt_search_|get_first_sup_seg
    000105  5a   003442 0000 00
    000106  9a   777672 0000 46         amu_slt_search_|get_last_sup_seg
    000107  5a   003441 0000 00
    000110  9a   777670 0000 46         amu_slt_search_|get_seg_num
    000111  5a   003440 0000 00
    000112  9a   777666 0000 46         amu_slt_search_|get_seg_ptr
    000113  5a   003437 0000 00
    000114  9a   777664 0000 46         amu_slt_search_|get_init_seg_ptr
    000115  5a   003436 0000 00
    000116  9a   777662 0000 46         amu_tc_data_|amu_tc_data_
    000117  5a   003435 0000 00
    000120  9a   777660 0000 46         amu_tc_data_|tcq
    000121  5a   003434 0000 00
    000122  9a   777656 0000 46         amu_tc_data_|find_apte
    000123  5a   003433 0000 00
    000124  9a   777654 0000 46         amu_tc_data_|print_this_apte
    000125  5a   003432 0000 00
    000126  9a   777652 0000 46         amu_tc_data_|find_first_running
    000127  5a   003431 0000 00
    000130  9a   777650 0000 46         amu_tc_data_|get_apt_entry
    000131  5a   003430 0000 00
    000132  9a   777646 0000 46         amu_tc_data_|get_dbr
    000133  5a   003427 0000 00
    000134  9a   777644 0000 46         amu_temp_seg_|amu_temp_seg_
    000135  5a   003426 0000 00
    000136  9a   777642 0000 46         amu_temp_seg_|get
    000137  5a   003425 0000 00
    000140  9a   777640 0000 46         amu_temp_seg_|release_all
    000141  5a   003424 0000 00
    000142  9a   777636 0000 46         amu_translate_|amu_translate_
    000143  5a   003423 0000 00
    000144  9a   777634 0000 46         amu_translate_|add
    000145  5a   003422 0000 00
    000146  9a   777632 0000 46         amu_translate_|allocate
    000147  5a   003421 0000 00
    000150  9a   777630 0000 46         amu_translate_|get
    000151  5a   003420 0000 00
    000152  9a   777626 0000 46         amu_translate_|force_add
    000153  5a   003417 0000 00
    000154  9a   777624 0000 46         amu_get_name_|get_l1dir_shortname
    000155  5a   003416 0000 00
    000156  9a   777622 0000 46         amu_parse_ptr_args_|get_va_args
    000157  5a   003415 0000 00
    000160  9a   777620 0000 46         amu_parse_ptr_args_|get_va_args_given_start
    000161  5a   003414 0000 00
    000162  9a   777616 0000 46         amu_parse_ptr_args_|get_segno
    000163  5a   003413 0000 00
    000164  9a   777614 0000 46         amu_parse_ptr_args_|resolve_va
    000165  5a   003412 0000 00
    000166  9a   777612 0000 46         amu_deadproc_|amu_deadproc_
    000167  5a   003411 0000 00
    000170  9a   777610 0000 46         amu_deadproc_|create_uid_hash
    000171  5a   003410 0000 00
    000172  9a   777606 0000 46         amu_deadproc_|cur_dp
    000173  5a   003407 0000 00
    000174  9a   777604 0000 46         amu_deadproc_|segno_to_name
    000175  5a   003406 0000 00
    000176  9a   777602 0000 46         amu_deadproc_|name_to_segno
    000177  5a   003405 0000 00
    000200  9a   777600 0000 46         amu_deadproc_|name_dp
    000201  5a   003404 0000 00
    000202  9a   777576 0000 46         amu_deadproc_|name_dp_af
    000203  5a   003403 0000 00
    000204  9a   777574 0000 46         amu_deadproc_|init_deadproc
    000205  5a   003402 0000 00
    000206  9a   777572 0000 46         amu_deadproc_|term_deadproc
    000207  5a   003401 0000 00
    000210  9a   777570 0000 46         amu_deadproc_|expand_to_ptr
    000211  5a   003400 0000 00
    000212  9a   777566 0000 46         amu_definition_|get_prn
    000213  5a   003377 0000 00
    000214  9a   777564 0000 46         amu_definition_|set_prn_name
    000215  5a   003376 0000 00
    000216  9a   777562 0000 46         amu_definition_|set_prn
    000217  5a   003375 0000 00
    000220  9a   777560 0000 46         amu_definition_|set_from
    000221  5a   003374 0000 00
    000222  9a   777556 0000 46         amu_definition_|ptr
    000223  5a   003373 0000 00
    000224  9a   777554 0000 46         amu_definition_|offset
    000225  5a   003372 0000 00
    000226  9a   777552 0000 46         amu_do_translation_|amu_do_translation_
    000227  5a   003371 0000 00
    000230  9a   777550 0000 46         amu_do_translation_|ptr_given_segno
    000231  5a   003370 0000 00
    000232  9a   777546 0000 46         amu_do_translation_|by_ptr
    000233  5a   003367 0000 00
    000234  9a   777544 0000 46         amu_do_translation_|hunt_ptr
    000235  5a   003366 0000 00
    000236  9a   777542 0000 46         amu_do_translation_|hunt
    000237  5a   003365 0000 00
    000240  9a   777540 0000 46         amu_error_|amu_error_
    000241  5a   003364 0000 00
    000242  9a   777536 0000 46         amu_error_|for_caller
    000243  5a   003363 0000 00
    000244  9a   777534 0000 46         amu_error_|info
    000245  5a   003362 0000 00
    000246  9a   777532 0000 46         amu_find_system_dump_|fdump
    000247  5a   003361 0000 00
    000250  9a   777530 0000 46         amu_find_system_dump_|pdir
    000251  5a   003360 0000 00
    000252  9a   777526 0000 46         amu_find_system_dump_|list
    000253  5a   003357 0000 00
    000254  9a   777524 0000 46         amu_fdump_mgr_|cur_erf
    000255  5a   003356 0000 00
    000256  9a   777522 0000 46         amu_fdump_mgr_|terminate_fdump
    000257  5a   003355 0000 00
    000260  9a   777520 0000 46         amu_fdump_mgr_|really_terminate_fdump
    000261  5a   003354 0000 00
    000262  9a   777516 0000 46         amu_fdump_mgr_|name_erf
    000263  5a   003353 0000 00
    000264  9a   777514 0000 46         amu_fdump_mgr_|list_fdump
    000265  5a   003352 0000 00
    000266  9a   777512 0000 46         amu_fdump_mgr_|init_fdump
    000267  5a   003351 0000 00
    000270  9a   777510 0000 46         amu_fdump_mgr_|find_fdump
    000271  5a   003350 0000 00
    000272  9a   777506 0000 46         amu_fdump_mpt_|amu_fdump_mpt_
    000273  5a   003347 0000 00
    000274  9a   777504 0000 46         amu_fdump_mpt_|change_idx
    000275  5a   003346 0000 00
    000276  9a   777502 0000 46         amu_fdump_mpt_|temp_change_idx
    000277  5a   003345 0000 00
    000300  9a   777500 0000 46         amu_fdump_mpt_|current_process
    000301  5a   003344 0000 00
    000302  9a   777476 0000 46         amu_fdump_mpt_|terminate
    000303  5a   003343 0000 00
    000304  9a   777474 0000 46         amu_fdump_mpt_|revert_idx
    000305  5a   003342 0000 00
    000306  9a   777472 0000 46         amu_fdump_mpt_|fill_proc_table
    000307  5a   003341 0000 00
    000310  9a   777470 0000 46         amu_fdump_mpt_|current_process_af
    000311  5a   003340 0000 00
    000312  9a   777466 0000 46         amu_fdump_translate_|contiguous
    000313  5a   003337 0000 00
    000314  9a   777464 0000 46         amu_fdump_translate_|to_temp_seg
    000315  5a   003336 0000 00
    000316  9a   777462 0000 46         amu_fdump_translate_|get_translation
    000317  5a   003335 0000 00
    000320  9a   777460 0000 46         amu_fdump_translate_|get_seg_lth
    000321  5a   003334 0000 00
    000322  9a   777456 0000 46         amu_get_name_|amu_get_name_
    000323  5a   003333 0000 00
    000324  9a   777454 0000 46         amu_get_name_|for_structure
    000325  5a   003332 0000 00
    000326  9a   777452 0000 46         amu_get_name_|get_ptr_count
    000327  5a   003331 0000 00
    000330  9a   777450 0000 46         amu_get_name_|no_comp
    000331  5a   003330 0000 00
    000332  9a   777446 0000 46         amu_hardcore_info_|deadproc
    000333  5a   003327 0000 00
    000334  9a   777444 0000 46         amu_hardcore_info_|set_cur_ptrs
    000335  5a   003326 0000 00
    000336  9a   777442 0000 46         amu_hardcore_info_|fdump
    000337  5a   003325 0000 00
    000340  9a   777440 0000 46         amu_kst_util_|expand_uid_path
    000341  5a   003324 0000 00
    000342  9a   777436 0000 46         amu_kst_util_|segno_to_uid
    000343  5a   003323 0000 00
    000344  9a   777434 0000 46         amu_kst_util_|segno_to_uid_path
    000345  5a   003322 0000 00
    000346  9a   777432 0000 46         amu_kst_util_|uid_to_uid_path
    000347  5a   003321 0000 00
    000350  9a   777430 0000 46         amu_kst_util_|uid_to_kstep
    000351  5a   003320 0000 00
    000352  9a   777426 0000 46         amu_check_info_|hard
    000353  5a   003317 0000 00
    000354  9a   777424 0000 46         amu_check_info_|amu_check_info_
    000355  5a   003316 0000 00
SYMBOL INFORMATION

SYMBOL TABLE HEADER

    000000  aa   000000 000001
    000001  aa   163171 155142
    000002  aa   164162 145145
    000003  aa   000000 000004
    000004  aa   000000 112143
    000005  aa   305203 523135
    000006  aa   000000 113345
    000007  aa   543734 010642
    000010  aa   141154 155040
    000011  aa   040040 040040
    000012  aa   000024 000040
    000013  aa   000034 000040
    000014  aa   000044 000100
    000015  aa   000002 000002
    000016  aa   000064 000000
    000017  aa   000000 000217
    000020  aa   000000 000103
    000021  aa   000000 000137
    000022  aa   000211 000103
    000023  aa   000064 000000
    000024  aa   101114 115040
    000025  aa   126145 162163
    000026  aa   151157 156040
    000027  aa   040066 056066
    000030  aa   040040 116157
    000031  aa   166145 155142
    000032  aa   145162 040061
    000033  aa   071070 062040
    000034  aa   107112 157150
    000035  aa   156163 157156
    000036  aa   056123 171163
    000037  aa   115141 151156
    000040  aa   164056 155040
    000041  aa   040040 040040
    000042  aa   040040 040040
    000043  aa   040040 040040
    000044  aa   154151 163164
    000045  aa   040040 040040
    000046  aa   040040 040040
    000047  aa   040040 040040
    000050  aa   040040 040040
    000051  aa   040040 040040
    000052  aa   040040 040040
    000053  aa   040040 040040
    000054  aa   040040 040040
    000055  aa   040040 040040
    000056  aa   040040 040040
    000057  aa   040040 040040
    000060  aa   040040 040040
    000061  aa   040040 040040
    000062  aa   040040 040040
    000063  aa   040040 040040
    000064  aa   000000 000001
    000065  aa   000000 000001
    000066  aa   000072 000041
    000067  aa   133450 226420
    000070  aa   000000 113345
    000071  aa   533707 000000
    000072  aa   076163 160145          >special_ldd>online>6897>amu_.alm
    000073  aa   143151 141154
    000074  aa   137154 144144
    000075  aa   076157 156154
    000076  aa   151156 145076
    000077  aa   066070 071067
    000100  aa   076141 155165
    000101  aa   137056 141154
    000102  aa   155040 040040
               MULTICS ASSEMBLY CROSS REFERENCE LISTING

   Value        Symbol                   Source file   Line number

                add                      amu_:          67.
                af_char_dump             amu_:          30.
                allocate                 amu_:          68.
                amu_check_info_          amu_:         134,  135.
                amu_deadproc_            amu_:          76,   77,   78,   79,   80,   81,   82,   83,   84,   85.
                amu_definition_          amu_:          86,   87,   88,   89,   90,   91.
                amu_do_translation_      amu_:          92,   93,   94,   95,   96.
                amu_error_               amu_:          97,   98,   99.
                amu_fdump_mgr_           amu_:         103,  104,  105,  106,  107,  108,  109.
                amu_fdump_mpt_           amu_:         110,  111,  112,  113,  114,  115,  116,  117.
                amu_fdump_translate_     amu_:         118,  119,  120,  121.
                amu_find_system_dump_    amu_:         100,  101,  102.
                amu_get_name_            amu_:          71,  122,  123,  124,  125.
                amu_hardcore_info_       amu_:         126,  127,  128.
                amu_info_                amu_:          21,   22.
                amu_kst_util_            amu_:         129,  130,  131,  132,  133.
                amu_parse_ptr_args_      amu_:          72,   73,   74,   75.
                amu_print_               amu_:          26,   27,   28,   29,   30,   31,   32,   33,   34,   35,   36.
                amu_print_text_          amu_:          23,   24,   25.
                amu_replace_trans_       amu_:          37.
                amu_return_val_          amu_:          38,   39,   40,   41,   42,   43,   44.
                amu_search_path_         amu_:          45,   46,   47,   48,   49.
                amu_search_seg_          amu_:          50.
                amu_slt_search_          amu_:          51,   52,   53,   54,   55.
                amu_tc_data_             amu_:          56,   57,   58,   59,   60,   61,   62.
                amu_temp_seg_            amu_:          63,   64,   65.
                amu_translate_           amu_:          66,   67,   68,   69,   70.
                apte                     amu_:          27.
                apte_bf                  amu_:          28.
                by_ptr                   amu_:          94.
                change_idx               amu_:         111.
                char_dump                amu_:          29.
         344    check_info               amu_:         135.
         342    check_info_hard          amu_:         134.
                contiguous               amu_:         118.
                cpu_tag_from_dbr         amu_:          39.
                cpu_tag_from_idx         amu_:          40.
                create                   amu_:          22.
           2    create_translation       amu_:          22.
                create_uid_hash          amu_:          77.
         162    current_deadproc         amu_:          78.
                current_process          amu_:         113.
                current_process_af       amu_:         117.
                cur_dp                   amu_:          78.
                cur_erf                  amu_:         103.
                dbr_from_idx             amu_:          41.
         156    deadproc                 amu_:          76,  126.
         174    deadproc_init            amu_:          83.
         170    deadproc_name            amu_:          81.
         172    deadproc_name_af         amu_:          82.
         176    deadproc_term            amu_:          84.
         202    definition_get_prn       amu_:          86.
         214    definition_offset        amu_:          91.
         212    definition_ptr           amu_:          90.
         210    definition_set_from      amu_:          89.
         206    definition_set_prn       amu_:          88.
         204    definition_set_prn_name  amu_:          87.
                destroy                  amu_:          21.
         216    do_translation           amu_:          92.
         222    do_translation_by_ptr    amu_:          94.
         226    do_translation_hunt      amu_:          96.
         224    do_translation_hunt_ptr  amu_:          95.
         220    do_translation_segno     amu_:          93.
         160    dp_create_uid_hash       amu_:          77.
         200    dp_expand_to_ptr         amu_:          85.
         166    dp_name_to_segno         amu_:          80.
         164    dp_segno_to_name         amu_:          79.
                dump_oct                 amu_:          31.
                dump_pptr                amu_:          32.
                dump_pptr_exp            amu_:          33.
                dump_ptr                 amu_:          34.
                dump_ptr_exp             amu_:          35.
         230    error                    amu_:          97.
         232    error_for_caller         amu_:          98.
         234    error_info               amu_:          99.
                expand_to_ptr            amu_:          85.
                expand_uid_path          amu_:         129.
                fdump                    amu_:         100,  128.
         244    fdump_mgr_cur_erf        amu_:         103.
         260    fdump_mgr_find_fdump     amu_:         109.
         256    fdump_mgr_init_fdump     amu_:         108.
         254    fdump_mgr_list_fdump     amu_:         107.
         252    fdump_mgr_name_erf       amu_:         106.
         250    fdump_mgr_really_terminate     amu_:         105.
         246    fdump_mgr_terminate_fdump      amu_:         104.
         262    fdump_mpt                amu_:         110.
         264    fdump_mpt_change_idx     amu_:         111.
         270    fdump_mpt_current_process      amu_:         113.
         300    fdump_mpt_current_process_af   amu_:         117.
         276    fdump_mpt_fill_proc_table      amu_:         116.
         274    fdump_mpt_revert_idx     amu_:         115.
         266    fdump_mpt_temp_change_idx      amu_:         112.
         272    fdump_mpt_terminate      amu_:         114.
         302    fdump_translate_contiguous     amu_:         118.
         310    fdump_translate_get_seg_lth    amu_:         121.
         306    fdump_translate_get_translation      amu_:         120.
         304    fdump_translate_to_temp_seg    amu_:         119.
                fill_proc_table          amu_:         116.
                find_apte                amu_:          58.
                find_fdump               amu_:         109.
                find_first_running       amu_:          60.
         236    find_system_fdump        amu_:         100.
         240    find_system_pdir         amu_:         101.
                force_add                amu_:          70.
                format                   amu_:          25.
                for_caller               amu_:          98.
                for_structure            amu_:         123.
                get                      amu_:          64,   69.
                get_apt_entry            amu_:          61.
                get_dbr                  amu_:          62.
                get_dump_paths           amu_:          46.
                get_first_sup_seg        amu_:          51.
                get_init_seg_ptr         amu_:          55.
         144    get_l1dir_shortname      amu_:          71.
                get_last_sup_seg         amu_:          52.
         312    get_name                 amu_:         122.
         314    get_name_for_structure   amu_:         123.
         320    get_name_no_comp         amu_:         125.
         316    get_name_ptr_count       amu_:         124.
                get_object_paths         amu_:          47.
                get_prn                  amu_:          86.
                get_ptr_count            amu_:         124.
                get_segno                amu_:          74.
         152    get_segno_from_name      amu_:          74.
                get_seg_lth              amu_:         121.
                get_seg_num              amu_:          53.
                get_seg_ptr              amu_:          54.
                get_translation          amu_:         120.
         146    get_va_args              amu_:          72.
         150    get_va_args_given_start  amu_:          73.
                hard                     amu_:         134.
         322    hardcore_info_deadproc   amu_:         126.
         326    hardcore_info_fdump      amu_:         128.
         324    hardcore_info_set_cur_ptrs     amu_:         127.
                hunt                     amu_:          96.
                hunt_ptr                 amu_:          95.
                idx_from_dbr             amu_:          42.
                info                     amu_:          99.
                init_deadproc            amu_:          83.
                init_fdump               amu_:         108.
                inst_dump                amu_:          36.
         330    kst_util_expand_uid_path       amu_:         129.
         332    kst_util_segno_to_uid    amu_:         130.
         334    kst_util_segno_to_uid_path     amu_:         131.
         340    kst_util_uid_to_kstep    amu_:         133.
         336    kst_util_uid_to_uid_path       amu_:         132.
                list                     amu_:         102.
                list_fdump               amu_:         107.
         242    list_system_dumps        amu_:         102.
                name_dp                  amu_:          81.
                name_dp_af               amu_:          82.
                name_erf                 amu_:         106.
                name_to_segno            amu_:          80.
                no_comp                  amu_:         125.
                offset                   amu_:          91.
                pdir                     amu_:         101.
                per_process              amu_:          43.
                phcs_ok                  amu_:          44.
          12    print                    amu_:          26.
          14    print_apte               amu_:          27.
          16    print_apte_bf            amu_:          28.
          20    print_char_dump          amu_:          29.
          22    print_char_dump_af       amu_:          30.
          24    print_dump_oct           amu_:          31.
          26    print_dump_pptr          amu_:          32.
          30    print_dump_pptr_exp      amu_:          33.
          32    print_dump_ptr           amu_:          34.
          34    print_dump_ptr_exp       amu_:          35.
          36    print_inst_dump          amu_:          36.
           4    print_text               amu_:          23.
          10    print_text_format        amu_:          25.
           6    print_text_offset        amu_:          24.
                print_this_apte          amu_:          59.
                ptr                      amu_:          90.
                ptr_given_segno          amu_:          93.
                really_terminate_fdump   amu_:         105.
                real_offset              amu_:          24.
                release_all              amu_:          65.
          40    replace_trans            amu_:          37.
                resolve_va               amu_:          75.
         154    resolve_virtual_addr     amu_:          75.
          42    return_val               amu_:          38.
          44    return_val_cpu_from_dbr  amu_:          39.
          46    return_val_cpu_from_idx  amu_:          40.
          50    return_val_dbr_from_idx  amu_:          41.
          52    return_val_idx_from_dbr  amu_:          42.
          54    return_val_per_process   amu_:          43.
          56    return_val_phcs_ok       amu_:          44.
                revert_idx               amu_:         115.
          60    search_path              amu_:          45.
          62    search_path_get_dump     amu_:          46.
          64    search_path_get_object   amu_:          47.
          66    search_path_set_dump     amu_:          48.
          70    search_path_set_object   amu_:          49.
          72    search_seg               amu_:          50.
                segno_to_name            amu_:          79.
                segno_to_uid             amu_:         130.
                segno_to_uid_path        amu_:         131.
                set_cur_ptrs             amu_:         127.
                set_dump_paths           amu_:          48.
                set_from                 amu_:          89.
                set_object_paths         amu_:          49.
                set_prn                  amu_:          88.
                set_prn_name             amu_:          87.
          74    slt_search_first_sup_seg       amu_:          51.
         104    slt_search_init_seg_ptr  amu_:          55.
          76    slt_search_last_sup_seg  amu_:          52.
         100    slt_search_seg_num       amu_:          53.
         102    slt_search_seg_ptr       amu_:          54.
                tcq                      amu_:          57.
         106    tc_data                  amu_:          56.
         112    tc_data_find_apte        amu_:          58.
         116    tc_data_find_first_running     amu_:          60.
         120    tc_data_get_apt_entry    amu_:          61.
         122    tc_data_get_dbr          amu_:          62.
         114    tc_data_print_this_apte  amu_:          59.
         110    tc_data_tcq              amu_:          57.
                temp_change_idx          amu_:         112.
         124    temp_seg                 amu_:          63.
         126    temp_seg_get             amu_:          64.
         130    temp_seg_release_all     amu_:          65.
                terminate                amu_:         114.
                terminate_fdump          amu_:         104.
           0    terminate_translation    amu_:          21.
                term_deadproc            amu_:          84.
                to_temp_seg              amu_:         119.
         132    translate                amu_:          66.
         134    translate_add            amu_:          67.
         136    translate_allocate       amu_:          68.
         142    translate_force_add      amu_:          70.
         140    translate_get            amu_:          69.
                uid_to_kstep             amu_:         133.
                uid_to_uid_path          amu_:         132.


NO FATAL ERRORS


                                          -----------------------------------------------------------


Historical Background

This edition of the Multics software materials and documentation is provided and donated
to Massachusetts Institute of Technology by Group BULL including BULL HN Information Systems Inc.
as a contribution to computer science knowledge.
This donation is made also to give evidence of the common contributions of Massachusetts Institute of Technology,
Bell Laboratories, General Electric, Honeywell Information Systems Inc., Honeywell BULL Inc., Groupe BULL
and BULL HN Information Systems Inc. to the development of this operating system.
Multics development was initiated by Massachusetts Institute of Technology Project MAC (1963-1970),
renamed the MIT Laboratory for Computer Science and Artificial Intelligence in the mid 1970s, under the leadership
of Professor Fernando Jose Corbato. Users consider that Multics provided the best software architecture
for managing computer hardware properly and for executing programs. Many subsequent operating systems
incorporated Multics principles.
Multics was distributed in 1975 to 2000 by Group Bull in Europe , and in the U.S. by Bull HN Information Systems Inc.,
as successor in interest by change in name only to Honeywell Bull Inc. and Honeywell Information Systems Inc. .

                                          -----------------------------------------------------------

Permission to use, copy, modify, and distribute these programs and their documentation for any purpose and without
fee is hereby granted,provided that the below copyright notice and historical background appear in all copies
and that both the copyright notice and historical background and this permission notice appear in supporting
documentation, and that the names of MIT, HIS, BULL or BULL HN not be used in advertising or publicity pertaining
to distribution of the programs without specific prior written permission.
    Copyright 1972 by Massachusetts Institute of Technology and Honeywell Information Systems Inc.
    Copyright 2006 by BULL HN Information Systems Inc.
    Copyright 2006 by Bull SAS
    All Rights Reserved
