ASSEMBLY LISTING OF SEGMENT >special_ldd>install>MR12.1-1054>as_data_.alm
ASSEMBLED ON:	08/04/87  1244.8 mst Tue
OPTIONS USED:	-target l68                              list symbols
ASSEMBLED BY:	ALM Version 7.3 November 1986
ASSEMBLER CREATED:	11/26/86  1244.2 mst Wed

                                     1  " ***********************************************************
                                     2  " *                                                         *
                                     3  " * Copyright, (C) Honeywell Bull Inc., 1987                *
                                     4  " *                                                         *
                                     5  " * Copyright, (C) Honeywell Information Systems Inc., 1982 *
                                     6  " *                                                         *
                                     7  " * Copyright (c) 1972 by Massachusetts Institute of        *
                                     8  " * Technology and Honeywell Information Systems, Inc.      *
                                     9  " *                                                         *
                                    10  " ***********************************************************
                                    11
                                    12  " AS_DATA_ - external static constants for bound_user_control_
                                    13  "
                                    14  " This file must be kept in sync with as_data_.incl.pl1
                                    15
                                    16  " VERSION	DATE	EXPLANATION
                                    17  "
                                    18  " 1.0	1967	Phase 1 version
                                    19  " 2.0	1968	Phase 2 version
                                    20  " 3.0	1969	IS-1 version
                                    21  " 4.0	10/1/69	First public version
                                    22  " 5.0	11/1/70	Spier version
                                    23  " 5.01	1/8/71	Nov 70 ttydim (THVV)
                                    24  " 5.04	3/30/71	PNT hash table (KAW/THVV)
                                    25  " 5.06	6/03/71	absentee
                                    26  " 5.07	6/16/71	ring 1 daemons
                                    27  " 5.11	8/12/71	ucs handler in dialup
                                    28  " 5.18	1/06/72	help function
                                    29  " 5.20	2/02/72	load control
                                    30
                                    31  " 6.0	4/19/72	New accounting (THVV, JP)
                                    32  " 6.03	5/05/72	infinite absentee args
                                    33  " 6.05	6/13/72	response control
                                    34  " 6.06	7/13/72	limit stops
                                    35  " 6.07	7/19/72	system admin in SAT, abs timax parameter
                                    36  " 6.08	08/11/72	version number, memory charging, pw changing
                                    37  " 6.09	08/28/72	as_dump_, count bad pw's, ucs for update & abs
                                    38  " 6.10	09/29/72	put entire answering service in v2pl1.
                                    39  " 6.11	11/25/72	eliminate old accounting. add tape and daemon. add process params.
                                    40  " 6.12	1/73	eliminate test mode. add as_error_table_
                                    41  " 7.0	3/21/73	virtual cpu. message coordinator. many fixes (6180 only)
                                    42  " 7.1	4/30/73	no_warning sw, -ring, restore shutdown
                                    43  " 7.2	5/22/73	rework config reading
                                    44  " 7.3	8/28/73	compress dcl of pnt
                                    45  " 7.4	1/07/74	new destroy_proc, no wait in ring 0 (MCR 164)
                                    46  " 7.4a	1/11/74	fix bugs in 7.4 (MCR 304)
                                    47  " 7.5	6/18/74	Many small fixes (MCR 318)
                                    48  " 7.6	7/17/74	More fixes
                                    49  " 7.7	3/31/75	Optimal sized hash tables - TAC (MCR 1035)
                                    50  " 7.8	4/15/75	new ttydim (MCS) compatibility - PG (MCR 1089)
                                    51  " 8.0	6/1/75	Access Isolation Mechanism - PG (MCR 714)
                                    52  " ----------------  Release of MR2.2
                                    53  " 8.1	7/15/75	RCP (WSS), Priority Scheduler (TAC), and Syserr Logging (LJS)
                                    54  " 8.2	8/1/75	MCS Phase II changes (Corr 2741, ETX TN1200, CDT) (PG & THVV)
                                    55  " ----------------  Release of MR3.0
                                    56  " 8.3	10/24/75	-subsystem login arg, to get prelinked subsystem (TAC)
                                    57  " ...     ........  miscellaneous bug fixes & fixes for upcoming tty/network dim changes (PG)
                                    58  " ----------------  Release of MR3.1
                                    59  "(8.4)	04/23/76  autocall facility (D. Jordan)
                                    60  " 8.5	05/01/76  detection of process initialization failures and fatal process error
                                    61  " ...	........  loops, verifying new passwords with -cpw, and misc. bug fixes (TAC),
                                    62  " ...     ........  and more misc. bug fixes (PG)
                                    63  " 8.6	06/01/76	fix pw mask handling, add resetreads, minor fixes (PG)
                                    64  " ...     ........  shift command, per-user cutoff warning thresholds, misc. bug fixes (TAC)
                                    65  " ----------------	Release of MR4.0
                                    66  " 8.7	06/28/76	Implement FTP service_type in cdt, call net_as_$ftp_dialup to manage FTP
                                    67  " ...	........	channels. Add transfer vector ftp_as_ (R. Planalp, D. Wells)
                                    68  " 8.8     08/19/76  Move ftp_dialup_ into bound_user_control_, modify many modules to enable
                                    69  " ...	........  AS to talk FTP language directly. Add mail sending, fix misc bugs (RPP)
                                    70  " 9.0	08/03/76	Implement Multics bootload of FNPs, version 2 CDT (M. Grady)
                                    71  " ...	........	Add fnp_manager_, modify as_init_ asu_ and admin for FNPs (TAC)
                                    72  " 9.0a	10/26/76  Bug fixes to 9.0
                                    73  " 9.1	10/29/76	Change MGT and add lv_request_ calls. TAC
                                    74  " 9.1a	11/30/76  Fix bugs in management of FNPs and TTY channels. TAC
                                    75  " ----------------	Release of MR5.0
                                    76  " 9.2     02/04/77  Add registered dial channels, put more info into PIT,
                                    77  " ...	........	change login message to Network users. (D. Wells, S. Kent)
                                    78  " 9.2a	04/30/77	Fix bug whereby users logging into AS 9.2 for the first
                                    79  "		time got the wrong term type printed for "last login"
                                    80  " 9.3	06/24/77	Change terminal type management to use names and to obtain
                                    81  " ...	........	terminal type info from the TTT
                                    82  " 9.4 	08/30/77	Charge separately for tty and connect time, prepare for
                                    83  " ...	........	tape and disk charging, fix bugs. FCS, DRV, TAC
                                    84  " 9.5	09/19/77	Process directory placement, misc. bug fixes. TAC
                                    85  " ----------------  Release of MR6.0
                                    86  " 9.5a	01/11/78	Fix bugs in as9.5
                                    87  " ----------------	Release of MR6.1
                                    88  " 9.6	05/xx/78	Install and use the RTDT. C.D.Tavares
                                    89  " 9.7	06/02/78	Send term signal to process being bumped, absentee enhancements (first
                                    90  " ...	........	batch), variable size pdirs, shift_config_change.ec, misc bug fixes. TAC
                                    91  " ----------------  Release of MR6.5
                                    92  " 9.7a	10/xx/78	Fix bugs in proxy absentee job handling. TAC
                                    93  " 9.8	11/xx/78	Use hash tables for SAT and PDT lookups during logins. TAC
                                    94  " 10.0	12/15/78	Ring-0 demultiplxing, multiplexer_mgr_, new channel names and sizes. LEJ
                                    95  " 10.1	12/29/78	Absentee enhancements, phase 1 of second batch. TAC
                                    96  " ----------------	Release of MR7.0
                                    97  " 10.2	01/22/79	Change names of default IOSIMS to use iox_. CAH
                                    98  " 10.3	04/06/79	Absentee enhancements, phase 2 of second batch. Bug fixes, abs suspend. TAC
                                    99  " 10.4	05/02/79	Bug fixes to 10.3, TAC. Non-MCS FNP, release_channel_no_hangup. LEJ.
                                   100  "(10.4a)	06/xx/79	Last minute bugfixes for MR7.0a. MCR 3955. TAC
                                   101  " ----------------	Release of MR7.0a
                                   102  "(10.5x)	07/27/79	Process preservation across hangups. TAC
                                   103  "(10.6x)	08/07/79	New pre-access commands modes, echo, terminal_type. LEJ
                                   104  " 11.0	09/14/79	Rewrite of PNT management to remove size restriction. CAH
                                   105  " 11.0a	11/27/79	Bug fixes for process preservation. TAC
                                   106  " ----------------	Beta Test Release of MR8.0
                                   107  "(11.1)	02/01/80	PNT salvager and bug fixes to PNT software. CAH
                                   108  " 11.2	02/07/80	Bug fixes to process preservation. TAC
                                   109  " ----------------	Release of MR8.0
                                   110  "(11.3)	04/xx/81	Fixes and improvements to dial facility. ENK
                                   111  " 11.4	06/19/81	AS meters, performance improvements, bugfixes. TAC, ENK, BIM, RSC
                                   112  " 11.5	07/10/81	UofC accounting changes (multiple rate structures). TAC & ENK for UOFC
                                   113  " 11.6    08/19/81  Bugfixes problems in AS11.5 accounting changes. ENK & TAC
                                   114  " ----------------	Release of MR9.0
                                   115  " 11.7b   12/21/81  Submitted version of AS11.7 & AS11.7a - user_table_entry conversion. ENK.
                                   116  " 12.0    03/12/82	whotab header. attributes.incl change.  PDT user_warn fields. Fixed bugs.
                                   117  "		bound_user_control_ => bound_user_ctl_,bound_as_misc_,bound_absentee_ctl_,
                                   118  "		   bound_as_install_ctl_,bound_ftp_ctl_,bound_daemon_ctl_. ENK
                                   119  "		New CDT threading strategy. BIM.
                                   120  "		Re-organized bound_as_mpx_,bound_io_tools_,bound_comm_meters_,bound_admin_tools_. CAH
                                   121  " 12.1	4/12/82	Various bugfixes. ENK. first phase of initialization changes.
                                   122  " 12.2	6/10/82	MR10.0 emergency fixes.
                                   123  " 12.2a   7/01/82   More of the same, in cdt management. BIM
                                   124  " 12.2b	7/08/82	More of the same, mux_mgr_ early stop_mpx. ENK
                                   125  " ----------------	Release of MR10.0
                                   126  " 12.3	7/12/82	Support for re-attaching MCS-ostracized channels. ENK.
                                   127  " 12.4	9/06/82	dial/slave -user. ENK
                                   128  " 12.5	10/19/82	bugfixes, as_request_server_. ENK
                                   129  " 12.5a	11/16/82  fixes to CDT management, unmasking changes. BIM, ENK.
                                   130  " 12.5b	11/29/82	fix ec-caller command_question, mux failure during init. ENK
                                   131  " ----------------  Release of MR10.1
                                   132  " 12.6	05/16/83	generic dial_out destinations (KPL), sty AIM support, etc. ENK.
                                   133  " 12.7	10/18/83	Mail table support. GMP, Barmar
                                   134  " 12.8	01/06/84  Added -terminal_id control argument and preaccess command. CLM
                                   135  " 13.0x   84-06-19  BIM Added most of Channel AIM support.
                                   136  " 13.1x   84-06-20  BIM Added strict_trusted_path to above, fixed bugs.
                                   137  " 14.0x   84-07-20  BIM Added login authorization ranges.
                                   138  " 14.1x 1984-08-01  BIM Recompiled everything in site, promoted, fixed
                                   139  "		    bug in dialup_.
                                   140  " 14.2  1984-08-27  BIM Audit changes and bugfixes, submitted for installation.
                                   141  " 14.2a 1984-09-13  BIM PBF -- initialize anstbl.max_users from tcd config
                                   142  "		    card.
                                   143  " 14.2b 1984-09-16  BIM minor fix to above.
                                   144  " 14.2c 1984-10-01  BIM PBF -- fix COLTS by fixing bugs in tandd_attach
                                   145  "		    in dial_ctl_.
                                   146  " 15.0  1984-11-29  EJS Ring 1 PNT installation. Also new acs directory
                                   147  "		    (>sc1>admin_acs).
                                   148  " 16.0  1984-12-04  BIM New System Control, iox message coordinator.
                                   149  " 16.1  1985-02-20  BIM AS auditing, PBF's to much of the above,
                                   150  "		daemon command server, com channel info server.
                                   151  "
                                   152  " Version in parentheses was installed without updating version number.
                                   153  " Version ending in a, b, etc. was bugfixes with no new features.
                                   154  " Version ending in x was experimental and not installed separately.
                                   155  " Integer part of version number is incremented for major changes,
                                   156  "  involving restructuring of databases or significant functional changes.
                                   157
                                   158  " HISTORY COMMENTS:
                                   159  "  1) change(86-09-21,Beattie), approve(86-09-22,MCR7542),
                                   160  "     audit(86-10-31,Brunelle), install(86-11-12,MR12.0-1211):
                                   161  "     Remove references to the 963 and 029 preaccess commands and
                                   162  "     remove support for ARDS, 202_ETX, 2741 and 1050 in system
                                   163  "     interfaces. (version 16.2)
                                   164  "  2) change(86-09-25,Swenson), approve(87-07-20,MCR7737),
                                   165  "     audit(87-07-20,GDixon), install(87-08-04,MR12.1-1055):
                                   166  "     Add fields to support the Login Server User Control environment.
                                   167  "     This is Answering Service 17.0.
                                   168  "  3) change(87-03-03,Brunelle), approve(87-07-14,MCR7697),
                                   169  "     audit(87-07-20,GDixon), install(87-08-04,MR12.1-1055):
                                   170  "     Added new user signal field of inacrcvd (12) to handle inactivity
                                   171  "     response from user.
                                   172  "  4) change(87-04-08,Parisek), approve(87-07-14,MCR7644),
                                   173  "     audit(87-07-20,GDixon), install(87-08-04,MR12.1-1055):
                                   174  "     Added disconn (10) to the user signals list.
                                   175  "                                                      END HISTORY COMMENTS
    000000                         176  	name	as_data_
                        000002     177  	segdef	BEL
                        000003     178  	segdef	CR
                        000004     179  	segdef	BS
                        000000     180  	segdef	version
                        000341     181  	segdef	debug_flag
                        000011     182  	segdef	login_words
                        000177     183  	segdef	signal_types
                        000235     184  	segdef	system_signal_types
                                   185
                        000263     186  	segdef	tty_dim
                        000273     187  	segdef	ntty_dim
                        000303     188  	segdef	mrd_dim
                        000313     189  	segdef	abs_dim
                        000323     190  	segdef	g115_dim
                                   191
                        000333     192  	segdef	login_args
                        000005     193  	segdef	default_weight
                        000006     194  	segdef	as_ring
                        000007     195  	segdef	dft_user_ring
                        000010     196  	segdef	max_user_ring
                                   197
                        001104     198  	segdef	teens_suffix
                        001077     199  	segdef	suffix
                                   200
                        001111     201  	segdef	acct_update_priority
                        001112     202  	segdef	request_priority
                        001113     203  	segdef	update_priority
                        001114     204  	segdef	terminet_tabs_string
                                   205
                        000265     206  	segdef	acsdir
                        000000     207  	segdef	ansp
                        000062     208  	segdef	as_procid
                        000063     209  	segdef	as_tty
                        000002     210  	segdef	asmtp
                        000004     211  	segdef	autp
                        000006     212  	segdef	buzzardp
                        000010     213  	segdef	cdtp
                        000012     214  	segdef	devtabp
                        000014     215  	segdef	dutp
                        000026     216  	segdef	ip
                        000065     217  	segdef	lct_initialized
                        000066     218  	segdef	lct_size
                        000020     219  	segdef	ls_request_server_info_ptr
                        000340     220  	segdef	ls_message_buffer_cur_lth
                        000337     221  	segdef	ls_message_buffer_max_lth
                        000016     222  	segdef	ls_message_buffer_ptr
                        000022     223  	segdef	mgtp
                        000067     224  	segdef	pdtdir
                        000024     225  	segdef	pit_ptr
                        000026     226  	segdef	rs_ptrs
                        000141     227  	segdef	rcpdir
                        000052     228  	segdef	rtdtp
                        000054     229  	segdef	sat_htp
                        000056     230  	segdef	satp
                        000213     231  	segdef	sysdir
                        000060     232  	segdef	whoptr
                                   233
    000000  aa  061 067 056 060    234  version:	aci	"17.0",8		dcl as_data_$version char(8)
    000001  aa  040 040 040 040
                                   235
                                   236
                                   237
    000002  aa   007000 000000     238  BEL:	oct	007000000000
                                   239
    000003  aa   015000 000000     240  CR:	oct	015000000000
                                   241
    000004  aa   010000 000000     242  BS:	oct	010000000000
                                   243
    000005                         244  default_weight:
    000005  aa   000000 000012     245  	dec	10
                                   246
    000006  aa   000000 000004     247  as_ring:	dec	4			"Change to 1 someday.
    000007                         248  dft_user_ring:
    000007  aa   000000 000004     249  	dec	4		"default user ring number
    000010                         250  max_user_ring:
    000010  aa   000000 000007     251  	dec	7		"highest ring number user can get at whotab
                                   252
    000011                         253  login_words:
    000011  aa   000000 000035     254  	zero	0,((last_login_wd-first_login_wd+3)/4)	"number of login words
    000012  aa   000000 000000     255  	dec	0		"padding
    000013                         256  first_login_wd:
    000013  aa  154 040 040 040    257  	aci	"l",16			1
    000014  aa  040 040 040 040
    000015  aa  040 040 040 040
    000016  aa  040 040 040 040
    000017  aa  154 157 147 151    258  	aci	"login",16		2
    000020  aa  156 040 040 040
    000021  aa  040 040 040 040
    000022  aa  040 040 040 040
    000023  aa  145 040 040 040    259  	aci	"e",16			3
    000024  aa  040 040 040 040
    000025  aa  040 040 040 040
    000026  aa  040 040 040 040
    000027  aa  145 156 164 145    260  	aci	"enter",16		4
    000030  aa  162 040 040 040
    000031  aa  040 040 040 040
    000032  aa  040 040 040 040
    000033  aa  145 160 040 040    261  	aci	"ep",16			5
    000034  aa  040 040 040 040
    000035  aa  040 040 040 040
    000036  aa  040 040 040 040
    000037  aa  145 156 164 145    262  	aci	"enterp",16		6
    000040  aa  162 160 040 040
    000041  aa  040 040 040 040
    000042  aa  040 040 040 040
    000043  aa  144 040 040 040    263  	aci	"d",16			7
    000044  aa  040 040 040 040
    000045  aa  040 040 040 040
    000046  aa  040 040 040 040
    000047  aa  144 151 141 154    264  	aci	"dial",16			8
    000050  aa  040 040 040 040
    000051  aa  040 040 040 040
    000052  aa  040 040 040 040
    000053  aa  150 145 154 160    265  	aci	"help",16			9
    000054  aa  040 040 040 040
    000055  aa  040 040 040 040
    000056  aa  040 040 040 040
    000057  aa  110 105 114 120    266  	aci	"HELP",16			10
    000060  aa  040 040 040 040
    000061  aa  040 040 040 040
    000062  aa  040 040 040 040
    000063  aa  115 101 120 040    267  	aci	"MAP",16			11
    000064  aa  040 040 040 040
    000065  aa  040 040 040 040
    000066  aa  040 040 040 040
    000067  aa  150 145 154 154    268  	aci	"hello",16		12
    000070  aa  157 040 040 040
    000071  aa  040 040 040 040
    000072  aa  040 040 040 040
    000073  aa  163 154 141 166    269  	aci	"slave",16		13
    000074  aa  145 040 040 040
    000075  aa  040 040 040 040
    000076  aa  040 040 040 040
    000077  aa  155 157 144 145    270  	aci	"modes",16		14
    000100  aa  163 040 040 040
    000101  aa  040 040 040 040
    000102  aa  040 040 040 040
    000103  aa  145 143 150 157    271  	aci	"echo",16			15
    000104  aa  040 040 040 040
    000105  aa  040 040 040 040
    000106  aa  040 040 040 040
    000107  aa  164 145 162 155    272  	aci	"terminal_type",16		16
    000110  aa  151 156 141 154
    000111  aa  137 164 171 160
    000112  aa  145 040 040 040
    000113  aa  164 164 160 040    273  	aci	"ttp",16			17
    000114  aa  040 040 040 040
    000115  aa  040 040 040 040
    000116  aa  040 040 040 040
    000117  aa  154 157 147 157    274  	aci	"logout",16		18
    000120  aa  165 164 040 040
    000121  aa  040 040 040 040
    000122  aa  040 040 040 040
    000123  aa  150 141 156 147    275  	aci	"hangup",16		19
    000124  aa  165 160 040 040
    000125  aa  040 040 040 040
    000126  aa  040 040 040 040
    000127  aa  154 151 163 164    276  	aci	"list",16			20
    000130  aa  040 040 040 040
    000131  aa  040 040 040 040
    000132  aa  040 040 040 040
    000133  aa  143 162 145 141    277  	aci	"create",16		21
    000134  aa  164 145 040 040
    000135  aa  040 040 040 040
    000136  aa  040 040 040 040
    000137  aa  143 157 156 156    278  	aci	"connect",16		22
    000140  aa  145 143 164 040
    000141  aa  040 040 040 040
    000142  aa  040 040 040 040
    000143  aa  156 145 167 137    279  	aci	"new_proc",16		23
    000144  aa  160 162 157 143
    000145  aa  040 040 040 040
    000146  aa  040 040 040 040
    000147  aa  144 145 163 164    280  	aci	"destroy",16		24
    000150  aa  162 157 171 040
    000151  aa  040 040 040 040
    000152  aa  040 040 040 040
    000153  aa  156 157 145 143    281  	aci	"noecho",16		25
    000154  aa  150 157 040 040
    000155  aa  040 040 040 040
    000156  aa  040 040 040 040
    000157  aa  164 145 162 155    282  	aci	"terminal_id",16		26
    000160  aa  151 156 141 154
    000161  aa  137 151 144 040
    000162  aa  040 040 040 040
    000163  aa  164 151 144 040    283  	aci	"tid",16			27
    000164  aa  040 040 040 040
    000165  aa  040 040 040 040
    000166  aa  040 040 040 040
    000167  aa  141 143 143 145    284            aci       "access_class",16             28
    000170  aa  163 163 137 143
    000171  aa  154 141 163 163
    000172  aa  040 040 040 040
    000173  aa  141 143 143 040    285            aci       "acc",16                      29
    000174  aa  040 040 040 040
    000175  aa  040 040 040 040
    000176  aa  040 040 040 040
                        000177     286  	equ	last_login_wd,*
                                   287
    000177                         288  signal_types:
    000177  aa   000000 000016     289  	zero	0,((last_user_sig-first_user_sig+1)/2)	"number of user signal types
    000200  aa   000000 000000     290  	dec	0
    000201                         291  first_user_sig:
    000201  aa  164 145 162 155    292  	aci	"terminat",8	1
    000202  aa  151 156 141 164
    000203  aa  156 145 167 137    293  	aci	"new_proc",8	2
    000204  aa  160 162 157 143
    000205  aa  154 157 147 151    294  	aci	"login",8		3
    000206  aa  156 040 040 040
    000207  aa  154 157 147 157    295  	aci	"logout",8	4
    000210  aa  165 164 040 040
    000211  aa  154 157 142 162    296  	aci	"lobrief",8	5
    000212  aa  151 145 146 040
    000213  aa  154 150 142 162    297  	aci	"lhbrief",8	6
    000214  aa  151 145 146 040
    000215  aa  151 156 151 164    298  	aci	"init_err",8	7
    000216  aa  137 145 162 162
    000217  aa  156 157 137 151    299  	aci	"no_ioatt",8	8
    000220  aa  157 141 164 164
    000221  aa  156 157 137 151    300  	aci	"no_initp",8	9
    000222  aa  156 151 164 160
    000223  aa  144 151 163 143    301  	aci	"disconn",8	10
    000224  aa  157 156 156 040
    000225  aa  157 154 144 137    302  	aci	"old_args",8	11	obsolete
    000226  aa  141 162 147 163
    000227  aa  151 156 141 143    303  	aci	"inacrcvd",8	12
    000230  aa  162 143 166 144
    000231  aa  156 160 040 040    304  	aci	"np",8		13 (never matches, just reserve slot)
    000232  aa  040 040 040 040
    000233  aa  164 145 162 155    305  	aci	"termsgnl",8	14
    000234  aa  163 147 156 154
                        000235     306  	equ	last_user_sig,*
                                   307
    000235                         308  system_signal_types:
    000235  aa   000000 000012     309  	zero	0,((last_system_sig-first_system_sig+1)/2)	" number of system signals
    000236  aa   000000 000000     310  	dec	0
    000237                         311  first_system_sig:
    000237  aa  150 141 156 147    312  	aci	"hangup",8	1
    000240  aa  165 160 040 040
    000241  aa  163 150 165 164    313  	aci	"shutdown",8	2
    000242  aa  144 157 167 156
    000243  aa  142 165 155 160    314  	aci	"bump",8		3
    000244  aa  040 040 040 040
    000245  aa  141 154 141 162    315  	aci	"alarm___",8	4
    000246  aa  155 137 137 137
    000247  aa  144 145 164 141    316  	aci	"detach",8	5
    000250  aa  143 150 040 040
    000251  aa  165 156 142 165    317  	aci	"unbump",8	6
    000252  aa  155 160 040 040
    000253  aa  163 164 157 160    318  	aci	"stopstop",8	7
    000254  aa  163 164 157 160
    000255  aa  164 145 162 155    319  	aci	"terminat",8	8
    000256  aa  151 156 141 164
    000257  aa  164 145 162 155    320  	aci	"termstop",8	9
    000260  aa  163 164 157 160
    000261  aa  143 160 165 154    321  	aci	"cpulimit",8	10
    000262  aa  151 155 151 164
                        000263     322  	equ	last_system_sig,*
                                   323
    000263  aa  164 164 171 137    324  tty_dim:	aci	"tty_",32
    000264  aa  040 040 040 040
    000265  aa  040 040 040 040
    000266  aa  040 040 040 040
    000267  aa  040 040 040 040
    000270  aa  040 040 040 040
    000271  aa  040 040 040 040
    000272  aa  040 040 040 040
    000273  aa  156 145 164 144    325  ntty_dim:	aci	"netd_",32
    000274  aa  137 040 040 040
    000275  aa  040 040 040 040
    000276  aa  040 040 040 040
    000277  aa  040 040 040 040
    000300  aa  040 040 040 040
    000301  aa  040 040 040 040
    000302  aa  040 040 040 040
    000303  aa  155 162 137 040    326  mrd_dim:	aci	"mr_",32
    000304  aa  040 040 040 040
    000305  aa  040 040 040 040
    000306  aa  040 040 040 040
    000307  aa  040 040 040 040
    000310  aa  040 040 040 040
    000311  aa  040 040 040 040
    000312  aa  040 040 040 040
    000313  aa  141 142 163 137    327  abs_dim:	aci	"abs_io_",32
    000314  aa  151 157 137 040
    000315  aa  040 040 040 040
    000316  aa  040 040 040 040
    000317  aa  040 040 040 040
    000320  aa  040 040 040 040
    000321  aa  040 040 040 040
    000322  aa  040 040 040 040
    000323                         328  g115_dim:
    000323  aa  147 061 061 065    329  	aci	"g115_",32
    000324  aa  137 040 040 040
    000325  aa  040 040 040 040
    000326  aa  040 040 040 040
    000327  aa  040 040 040 040
    000330  aa  040 040 040 040
    000331  aa  040 040 040 040
    000332  aa  040 040 040 040
                                   330
    000333                         331  login_args:
    000333  aa   000000 000073     332  	zero	0,((last_option-first_option+5)/6)	" 6 words per entry.
    000334  aa   000000 000000     333  	dec	0
    000335                         334  first_option:
    000335  aa  055 142 146 040    335  	aci	"-bf",24				 1
    000336  aa  040 040 040 040
    000337  aa  040 040 040 040
    000340  aa  040 040 040 040
    000341  aa  040 040 040 040
    000342  aa  040 040 040 040
    000343  aa  055 142 162 151    336  	aci	"-brief",24			 2
    000344  aa  145 146 040 040
    000345  aa  040 040 040 040
    000346  aa  040 040 040 040
    000347  aa  040 040 040 040
    000350  aa  040 040 040 040
    000351  aa  055 150 144 040    337  	aci	"-hd",24				 3
    000352  aa  040 040 040 040
    000353  aa  040 040 040 040
    000354  aa  040 040 040 040
    000355  aa  040 040 040 040
    000356  aa  040 040 040 040
    000357  aa  055 150 157 155    338  	aci	"-home_dir",24			 4
    000360  aa  145 137 144 151
    000361  aa  162 040 040 040
    000362  aa  040 040 040 040
    000363  aa  040 040 040 040
    000364  aa  040 040 040 040
    000365  aa  055 160 157 040    339  	aci	"-po",24				 5
    000366  aa  040 040 040 040
    000367  aa  040 040 040 040
    000370  aa  040 040 040 040
    000371  aa  040 040 040 040
    000372  aa  040 040 040 040
    000373  aa  055 160 162 157    340  	aci	"-process_overseer",24		 6
    000374  aa  143 145 163 163
    000375  aa  137 157 166 145
    000376  aa  162 163 145 145
    000377  aa  162 040 040 040
    000400  aa  040 040 040 040
    000401  aa  055 156 160 146    341  	aci	"-npf",24				 7
    000402  aa  040 040 040 040
    000403  aa  040 040 040 040
    000404  aa  040 040 040 040
    000405  aa  040 040 040 040
    000406  aa  040 040 040 040
    000407  aa  055 156 157 137    342  	aci	"-no_print_off",24			 8
    000410  aa  160 162 151 156
    000411  aa  164 137 157 146
    000412  aa  146 040 040 040
    000413  aa  040 040 040 040
    000414  aa  040 040 040 040
    000415  aa  055 160 146 040    343  	aci	"-pf",24				 9
    000416  aa  040 040 040 040
    000417  aa  040 040 040 040
    000420  aa  040 040 040 040
    000421  aa  040 040 040 040
    000422  aa  040 040 040 040
    000423  aa  055 160 162 151    344  	aci	"-print_off",24			10
    000424  aa  156 164 137 157
    000425  aa  146 146 040 040
    000426  aa  040 040 040 040
    000427  aa  040 040 040 040
    000430  aa  040 040 040 040
    000431  aa  055 156 167 040    345  	aci	"-nw",24				11
    000432  aa  040 040 040 040
    000433  aa  040 040 040 040
    000434  aa  040 040 040 040
    000435  aa  040 040 040 040
    000436  aa  040 040 040 040
    000437  aa  055 156 157 137    346  	aci	"-no_warning",24			12
    000440  aa  167 141 162 156
    000441  aa  151 156 147 040
    000442  aa  040 040 040 040
    000443  aa  040 040 040 040
    000444  aa  040 040 040 040
    000445  aa  055 156 160 040    347  	aci	"-np",24				13
    000446  aa  040 040 040 040
    000447  aa  040 040 040 040
    000450  aa  040 040 040 040
    000451  aa  040 040 040 040
    000452  aa  040 040 040 040
    000453  aa  055 156 157 137    348  	aci	"-no_preempt",24			14
    000454  aa  160 162 145 145
    000455  aa  155 160 164 040
    000456  aa  040 040 040 040
    000457  aa  040 040 040 040
    000460  aa  040 040 040 040
    000461  aa  055 146 157 162    349  	aci	"-force",24			15
    000462  aa  143 145 040 040
    000463  aa  040 040 040 040
    000464  aa  040 040 040 040
    000465  aa  040 040 040 040
    000466  aa  040 040 040 040
    000467  aa  055 155 144 040    350  	aci	"-md",24				16
    000470  aa  040 040 040 040
    000471  aa  040 040 040 040
    000472  aa  040 040 040 040
    000473  aa  040 040 040 040
    000474  aa  040 040 040 040
    000475  aa  055 155 157 144    351  	aci	"-mode",24			17
    000476  aa  145 040 040 040
    000477  aa  040 040 040 040
    000500  aa  040 040 040 040
    000501  aa  040 040 040 040
    000502  aa  040 040 040 040
    000503  aa  055 155 157 144    352  	aci	"-modes",24			18
    000504  aa  145 163 040 040
    000505  aa  040 040 040 040
    000506  aa  040 040 040 040
    000507  aa  040 040 040 040
    000510  aa  040 040 040 040
    000511  aa  055 156 163 040    353  	aci	"-ns",24				19
    000512  aa  040 040 040 040
    000513  aa  040 040 040 040
    000514  aa  040 040 040 040
    000515  aa  040 040 040 040
    000516  aa  040 040 040 040
    000517  aa  055 156 157 137    354  	aci	"-no_start_up",24			20
    000520  aa  163 164 141 162
    000521  aa  164 137 165 160
    000522  aa  040 040 040 040
    000523  aa  040 040 040 040
    000524  aa  040 040 040 040
    000525  aa  055 143 160 167    355  	aci	"-cpw",24				21
    000526  aa  040 040 040 040
    000527  aa  040 040 040 040
    000530  aa  040 040 040 040
    000531  aa  040 040 040 040
    000532  aa  040 040 040 040
    000533  aa  055 143 150 141    356  	aci	"-change_password",24		22
    000534  aa  156 147 145 137
    000535  aa  160 141 163 163
    000536  aa  167 157 162 144
    000537  aa  040 040 040 040
    000540  aa  040 040 040 040
    000541  aa  055 143 144 160    357  	aci	"-cdp",24				23
    000542  aa  040 040 040 040
    000543  aa  040 040 040 040
    000544  aa  040 040 040 040
    000545  aa  040 040 040 040
    000546  aa  040 040 040 040
    000547  aa  055 143 150 141    358  	aci	"-change_default_project",24		24
    000550  aa  156 147 145 137
    000551  aa  144 145 146 141
    000552  aa  165 154 164 137
    000553  aa  160 162 157 152
    000554  aa  145 143 164 040
    000555  aa  055 157 155 040    359  	aci	"-om",24				25
    000556  aa  040 040 040 040
    000557  aa  040 040 040 040
    000560  aa  040 040 040 040
    000561  aa  040 040 040 040
    000562  aa  040 040 040 040
    000563  aa  055 157 165 164    360  	aci	"-outer_module",24			26
    000564  aa  145 162 137 155
    000565  aa  157 144 165 154
    000566  aa  145 040 040 040
    000567  aa  040 040 040 040
    000570  aa  040 040 040 040
    000571  aa  055 141 165 164    361  	aci	"-auth",24			27
    000572  aa  150 040 040 040
    000573  aa  040 040 040 040
    000574  aa  040 040 040 040
    000575  aa  040 040 040 040
    000576  aa  040 040 040 040
    000577  aa  055 141 165 164    362  	aci	"-authorization",24			28
    000600  aa  150 157 162 151
    000601  aa  172 141 164 151
    000602  aa  157 156 040 040
    000603  aa  040 040 040 040
    000604  aa  040 040 040 040
    000605  aa  055 143 144 141    363  	aci	"-cda",24				29
    000606  aa  040 040 040 040
    000607  aa  040 040 040 040
    000610  aa  040 040 040 040
    000611  aa  040 040 040 040
    000612  aa  040 040 040 040
    000613  aa  055 143 150 141    364  	aci	"-change_default_auth",24		30
    000614  aa  156 147 145 137
    000615  aa  144 145 146 141
    000616  aa  165 154 164 137
    000617  aa  141 165 164 150
    000620  aa  040 040 040 040
    000621  aa  055 147 160 167    365  	aci	"-gpw",24				31
    000622  aa  040 040 040 040
    000623  aa  040 040 040 040
    000624  aa  040 040 040 040
    000625  aa  040 040 040 040
    000626  aa  040 040 040 040
    000627  aa  055 147 145 156    366  	aci	"-generate_password",24		32
    000630  aa  145 162 141 164
    000631  aa  145 137 160 141
    000632  aa  163 163 167 157
    000633  aa  162 144 040 040
    000634  aa  040 040 040 040
    000635  aa  055 164 164 160    367  	aci	"-ttp",24				33
    000636  aa  040 040 040 040
    000637  aa  040 040 040 040
    000640  aa  040 040 040 040
    000641  aa  040 040 040 040
    000642  aa  040 040 040 040
    000643  aa  055 164 145 162    368  	aci	"-terminal_type",24			34
    000644  aa  155 151 156 141
    000645  aa  154 137 164 171
    000646  aa  160 145 040 040
    000647  aa  040 040 040 040
    000650  aa  040 040 040 040
    000651  aa  055 163 163 040    369  	aci	"-ss",24				35
    000652  aa  040 040 040 040
    000653  aa  040 040 040 040
    000654  aa  040 040 040 040
    000655  aa  040 040 040 040
    000656  aa  040 040 040 040
    000657  aa  055 163 165 142    370  	aci	"-subsystem",24			36
    000660  aa  163 171 163 164
    000661  aa  145 155 040 040
    000662  aa  040 040 040 040
    000663  aa  040 040 040 040
    000664  aa  040 040 040 040
    000665  aa  055 162 147 040    371  	aci	"-rg",24				37
    000666  aa  040 040 040 040
    000667  aa  040 040 040 040
    000670  aa  040 040 040 040
    000671  aa  040 040 040 040
    000672  aa  040 040 040 040
    000673  aa  055 162 151 156    372  	aci	"-ring",24			38
    000674  aa  147 040 040 040
    000675  aa  040 040 040 040
    000676  aa  040 040 040 040
    000677  aa  040 040 040 040
    000700  aa  040 040 040 040
    000701  aa  055 163 141 166    373  	aci	"-save_on_disconnect",24		39
    000702  aa  145 137 157 156
    000703  aa  137 144 151 163
    000704  aa  143 157 156 156
    000705  aa  145 143 164 040
    000706  aa  040 040 040 040
    000707  aa  055 163 141 166    374  	aci	"-save",24			40
    000710  aa  145 040 040 040
    000711  aa  040 040 040 040
    000712  aa  040 040 040 040
    000713  aa  040 040 040 040
    000714  aa  040 040 040 040
    000715  aa  055 156 157 137    375  	aci	"-no_save_on_disconnect",24		41
    000716  aa  163 141 166 145
    000717  aa  137 157 156 137
    000720  aa  144 151 163 143
    000721  aa  157 156 156 145
    000722  aa  143 164 040 040
    000723  aa  055 156 157 163    376  	aci	"-nosave",24			42
    000724  aa  141 166 145 040
    000725  aa  040 040 040 040
    000726  aa  040 040 040 040
    000727  aa  040 040 040 040
    000730  aa  040 040 040 040
    000731  aa  055 154 151 163    377  	aci	"-list",24			43
    000732  aa  164 040 040 040
    000733  aa  040 040 040 040
    000734  aa  040 040 040 040
    000735  aa  040 040 040 040
    000736  aa  040 040 040 040
    000737  aa  055 143 162 145    378  	aci	"-create",24			44
    000740  aa  141 164 145 040
    000741  aa  040 040 040 040
    000742  aa  040 040 040 040
    000743  aa  040 040 040 040
    000744  aa  040 040 040 040
    000745  aa  055 143 157 156    379  	aci	"-connect",24			45
    000746  aa  156 145 143 164
    000747  aa  040 040 040 040
    000750  aa  040 040 040 040
    000751  aa  040 040 040 040
    000752  aa  040 040 040 040
    000753  aa  055 156 145 167    380  	aci	"-new_proc",24			46
    000754  aa  137 160 162 157
    000755  aa  143 040 040 040
    000756  aa  040 040 040 040
    000757  aa  040 040 040 040
    000760  aa  040 040 040 040
    000761  aa  055 144 145 163    381  	aci	"-destroy",24			47
    000762  aa  164 162 157 171
    000763  aa  040 040 040 040
    000764  aa  040 040 040 040
    000765  aa  040 040 040 040
    000766  aa  040 040 040 040
    000767  aa  055 156 157 137    382  	aci	"-no_hold",24			48
    000770  aa  150 157 154 144
    000771  aa  040 040 040 040
    000772  aa  040 040 040 040
    000773  aa  040 040 040 040
    000774  aa  040 040 040 040
    000775  aa  055 150 157 154    383  	aci	"-hold",24			49
    000776  aa  144 040 040 040
    000777  aa  040 040 040 040
    001000  aa  040 040 040 040
    001001  aa  040 040 040 040
    001002  aa  040 040 040 040
    001003  aa  055 151 155 040    384  	aci	"-im",24				50
    001004  aa  040 040 040 040
    001005  aa  040 040 040 040
    001006  aa  040 040 040 040
    001007  aa  040 040 040 040
    001010  aa  040 040 040 040
    001011  aa  055 151 155 155    385  	aci	"-immediate",24			51
    001012  aa  145 144 151 141
    001013  aa  164 145 040 040
    001014  aa  040 040 040 040
    001015  aa  040 040 040 040
    001016  aa  040 040 040 040
    001017  aa  055 141 147 040    386  	aci	"-ag",24				52
    001020  aa  040 040 040 040
    001021  aa  040 040 040 040
    001022  aa  040 040 040 040
    001023  aa  040 040 040 040
    001024  aa  040 040 040 040
    001025  aa  055 141 162 147    387  	aci	"-arguments",24			53
    001026  aa  165 155 145 156
    001027  aa  164 163 040 040
    001030  aa  040 040 040 040
    001031  aa  040 040 040 040
    001032  aa  040 040 040 040
    001033  aa  055 154 147 040    388  	aci	"-lg",24				54
    001034  aa  040 040 040 040
    001035  aa  040 040 040 040
    001036  aa  040 040 040 040
    001037  aa  040 040 040 040
    001040  aa  040 040 040 040
    001041  aa  055 154 157 156    389  	aci	"-long",24			55
    001042  aa  147 040 040 040
    001043  aa  040 040 040 040
    001044  aa  040 040 040 040
    001045  aa  040 040 040 040
    001046  aa  040 040 040 040
    001047  aa  055 167 141 162    390  	aci	"-warning",24			56
    001050  aa  156 151 156 147
    001051  aa  040 040 040 040
    001052  aa  040 040 040 040
    001053  aa  040 040 040 040
    001054  aa  040 040 040 040
    001055  aa  055 165 163 145    391  	aci	"-user",24			57
    001056  aa  162 040 040 040
    001057  aa  040 040 040 040
    001060  aa  040 040 040 040
    001061  aa  040 040 040 040
    001062  aa  040 040 040 040
    001063  aa  055 164 151 144    392  	aci	"-tid",24				58
    001064  aa  040 040 040 040
    001065  aa  040 040 040 040
    001066  aa  040 040 040 040
    001067  aa  040 040 040 040
    001070  aa  040 040 040 040
    001071  aa  055 164 145 162    393  	aci	"-terminal_id",24			59
    001072  aa  155 151 156 141
    001073  aa  154 137 151 144
    001074  aa  040 040 040 040
    001075  aa  040 040 040 040
    001076  aa  040 040 040 040
                        001077     394  	equ	last_option,*			" must come after last login option.
                                   395
    001077                         396  suffix:
    001077  aa  164 150 163 164    397  	aci	"thstndrdthththththth"	"dcl as_data_$suffix dim (0:9) char (2) unal static;
    001100  aa  156 144 162 144
    001101  aa  164 150 164 150
    001102  aa  164 150 164 150
    001103  aa  164 150 164 150
                                   398  					"0th, 1st, 2nd, 3rd, 4th, 5th, 6th, 7th, 8th, 9th.
                                   399
    001104                         400  teens_suffix:
    001104  aa  164 150 164 150    401  	aci	"thththththththththth"	"dcl as_data_$teens_suffix dim (10:19) char (2) unal static;
    001105  aa  164 150 164 150
    001106  aa  164 150 164 150
    001107  aa  164 150 164 150
    001110  aa  164 150 164 150
                                   402  					"10th, 11th, 12th, 13th, 14th, 15th, 16th, 17th, 18th, 19th.
                                   403
    001111                         404  acct_update_priority:			"used by act_ctl_$update.
    001111  aa   000000 000001     405  	dec	1
    001112                         406  request_priority:				"used by as_request_$wakeup.
    001112  aa   000000 000001     407  	dec	1
    001113                         408  update_priority:				"used by up_sysctl_.
    001113  aa   000000 000005     409  	dec	5
                                   410
    001114                         411  terminet_tabs_string:
    001114  aa   000000 000212     412  	dec	138	"dcl as_data_$terminet_tabs_string char (144) varying external;
    001115  aa   033062 015033     413  	vfd	o9/33,o9/62,o9/15,o9/33
    001116  aa   061040 040040     414  	vfd	o9/61,o9/40,o9/40,o9/40,o9/40,o9/40,o9/40,o9/40,o9/40,o9/40,o9/40,o9/33
    001117  aa   040040 040040
    001120  aa   040040 040033
    001121  aa   061040 040040     415  	vfd	o9/61,o9/40,o9/40,o9/40,o9/40,o9/40,o9/40,o9/40,o9/40,o9/40,o9/40,o9/33
    001122  aa   040040 040040
    001123  aa   040040 040033
    001124  aa   061040 040040     416  	vfd	o9/61,o9/40,o9/40,o9/40,o9/40,o9/40,o9/40,o9/40,o9/40,o9/40,o9/40,o9/33
    001125  aa   040040 040040
    001126  aa   040040 040033
    001127  aa   061040 040040     417  	vfd	o9/61,o9/40,o9/40,o9/40,o9/40,o9/40,o9/40,o9/40,o9/40,o9/40,o9/40,o9/33
    001130  aa   040040 040040
    001131  aa   040040 040033
    001132  aa   061040 040040     418  	vfd	o9/61,o9/40,o9/40,o9/40,o9/40,o9/40,o9/40,o9/40,o9/40,o9/40,o9/40,o9/33
    001133  aa   040040 040040
    001134  aa   040040 040033
    001135  aa   061040 040040     419  	vfd	o9/61,o9/40,o9/40,o9/40,o9/40,o9/40,o9/40,o9/40,o9/40,o9/40,o9/40,o9/33
    001136  aa   040040 040040
    001137  aa   040040 040033
    001140  aa   061040 040040     420  	vfd	o9/61,o9/40,o9/40,o9/40,o9/40,o9/40,o9/40,o9/40,o9/40,o9/40,o9/40,o9/33
    001141  aa   040040 040040
    001142  aa   040040 040033
    001143  aa   061040 040040     421  	vfd	o9/61,o9/40,o9/40,o9/40,o9/40,o9/40,o9/40,o9/40,o9/40,o9/40,o9/40,o9/33
    001144  aa   040040 040040
    001145  aa   040040 040033
    001146  aa   061040 040040     422  	vfd	o9/61,o9/40,o9/40,o9/40,o9/40,o9/40,o9/40,o9/40,o9/40,o9/40,o9/40,o9/33
    001147  aa   040040 040040
    001150  aa   040040 040033
    001151  aa   061040 040040     423  	vfd	o9/61,o9/40,o9/40,o9/40,o9/40,o9/40,o9/40,o9/40,o9/40,o9/40,o9/40,o9/33
    001152  aa   040040 040040
    001153  aa   040040 040033
    001154  aa   061040 040040     424  	vfd	o9/61,o9/40,o9/40,o9/40,o9/40,o9/40,o9/40,o9/40,o9/40,o9/40,o9/40,o9/33
    001155  aa   040040 040040
    001156  aa   040040 040033
    001157  aa   061015 000000     425  	vfd	o9/61,o9/15
                                   426
                                   427  " NOTE: all following definitions are in the static section
                                   428
                                   429  	use	static
    000000  aa   077777 000043     430  ansp:	its	-1,1			"answer_table pointer
    000001  aa   000001 000000
    000002  aa   077777 000043     431  asmtp:	its	-1,1			"as meter table pointer
    000003  aa   000001 000000
    000004  aa   077777 000043     432  autp:	its	-1,1			"absentee_user_table pointer
    000005  aa   000001 000000
    000006  aa   077777 000043     433  buzzardp:	its	-1,1			"dpg_ list of buzzard processes
    000007  aa   000001 000000
    000010  aa   077777 000043     434  cdtp:	its	-1,1			"Channel Definition Table pointer
    000011  aa   000001 000000
    000012  aa   077777 000043     435  devtabp:	its	-1,1			"device table pointer
    000013  aa   000001 000000
    000014  aa   077777 000043     436  dutp:	its	-1,1			"daemon_user_table pointer
    000015  aa   000001 000000
    000016                         437  ls_message_buffer_ptr:			"pointer to message buffer
    000016  aa   077777 000043     438  	its	-1,1
    000017  aa   000001 000000
    000020                         439  ls_request_server_info_ptr:		          "pointer to ls server info
    000020  aa   077777 000043     440  	its	-1,1
    000021  aa   000001 000000
    000022  aa   077777 000043     441  mgtp:	its	-1,1			"master group table pointer
    000023  aa   000001 000000
    000024  aa   077777 000043     442  pit_ptr:	its	-1,1			"template pit_ptr pointer
    000025  aa   000001 000000
    000026                         443  ip:	bss	,0			"installation_parameters
    000026  aa   077777 000043     444  rs_ptrs:	its	-1,1			"rate_structure (0) pointer
    000027  aa   000001 000000
    000030  aa   077777 000043     445  	its	-1,1			" 1
    000031  aa   000001 000000
    000032  aa   077777 000043     446  	its	-1,1			" 2
    000033  aa   000001 000000
    000034  aa   077777 000043     447  	its	-1,1			" 3
    000035  aa   000001 000000
    000036  aa   077777 000043     448  	its	-1,1			" 4
    000037  aa   000001 000000
    000040  aa   077777 000043     449  	its	-1,1			" 5
    000041  aa   000001 000000
    000042  aa   077777 000043     450  	its	-1,1			" 6
    000043  aa   000001 000000
    000044  aa   077777 000043     451  	its	-1,1			" 7
    000045  aa   000001 000000
    000046  aa   077777 000043     452  	its	-1,1			" 8
    000047  aa   000001 000000
    000050  aa   077777 000043     453  	its	-1,1			" 9
    000051  aa   000001 000000
    000052  aa   077777 000043     454  rtdtp:	its	-1,1			"RTDT pointer
    000053  aa   000001 000000
    000054  aa   077777 000043     455  sat_htp:	its	-1,1			"sat hash table pointer
    000055  aa   000001 000000
    000056  aa   077777 000043     456  satp:	its	-1,1			"sat pointer
    000057  aa   000001 000000
    000060  aa   077777 000043     457  whoptr:	its	-1,1			"whotab pointer
    000061  aa   000001 000000
    000062                         458  as_procid:				"AS process id
    000062  aa   777777 777777     459  	zero	-1,-1
    000063  aa  077 077 077 077    460  as_tty:	aci	"??????",6		"AS tty
    000064  aa  077 077 000 000
    000065                         461  lct_initialized:				"TRUE if ring0 LCT allocated.
    000065  aa   000000 000000     462  	dec	0
    000066  aa   000000 000000     463  lct_size:	dec	0			"number of channels in LCT.
    000067  aa  074 141 163 137    464  pdtdir:	aci	"<as_data_$pdtdir>",168	"pdt directory
    000070  aa  144 141 164 141
    000071  aa  137 044 160 144
    000072  aa  164 144 151 162
    000073  aa  076 040 040 040
    000074  aa  040 040 040 040
    000075  aa  040 040 040 040
    000076  aa  040 040 040 040
    000077  aa  040 040 040 040
    000100  aa  040 040 040 040
    000101  aa  040 040 040 040
    000102  aa  040 040 040 040
    000103  aa  040 040 040 040
    000104  aa  040 040 040 040
    000105  aa  040 040 040 040
    000106  aa  040 040 040 040
    000107  aa  040 040 040 040
    000110  aa  040 040 040 040
    000111  aa  040 040 040 040
    000112  aa  040 040 040 040
    000113  aa  040 040 040 040
    000114  aa  040 040 040 040
    000115  aa  040 040 040 040
    000116  aa  040 040 040 040
    000117  aa  040 040 040 040
    000120  aa  040 040 040 040
    000121  aa  040 040 040 040
    000122  aa  040 040 040 040
    000123  aa  040 040 040 040
    000124  aa  040 040 040 040
    000125  aa  040 040 040 040
    000126  aa  040 040 040 040
    000127  aa  040 040 040 040
    000130  aa  040 040 040 040
    000131  aa  040 040 040 040
    000132  aa  040 040 040 040
    000133  aa  040 040 040 040
    000134  aa  040 040 040 040
    000135  aa  040 040 040 040
    000136  aa  040 040 040 040
    000137  aa  040 040 040 040
    000140  aa  040 040 040 040
    000141  aa  074 141 163 137    465  rcpdir:	aci	"<as_data_$rcpdir>",168	"RCP directory
    000142  aa  144 141 164 141
    000143  aa  137 044 162 143
    000144  aa  160 144 151 162
    000145  aa  076 040 040 040
    000146  aa  040 040 040 040
    000147  aa  040 040 040 040
    000150  aa  040 040 040 040
    000151  aa  040 040 040 040
    000152  aa  040 040 040 040
    000153  aa  040 040 040 040
    000154  aa  040 040 040 040
    000155  aa  040 040 040 040
    000156  aa  040 040 040 040
    000157  aa  040 040 040 040
    000160  aa  040 040 040 040
    000161  aa  040 040 040 040
    000162  aa  040 040 040 040
    000163  aa  040 040 040 040
    000164  aa  040 040 040 040
    000165  aa  040 040 040 040
    000166  aa  040 040 040 040
    000167  aa  040 040 040 040
    000170  aa  040 040 040 040
    000171  aa  040 040 040 040
    000172  aa  040 040 040 040
    000173  aa  040 040 040 040
    000174  aa  040 040 040 040
    000175  aa  040 040 040 040
    000176  aa  040 040 040 040
    000177  aa  040 040 040 040
    000200  aa  040 040 040 040
    000201  aa  040 040 040 040
    000202  aa  040 040 040 040
    000203  aa  040 040 040 040
    000204  aa  040 040 040 040
    000205  aa  040 040 040 040
    000206  aa  040 040 040 040
    000207  aa  040 040 040 040
    000210  aa  040 040 040 040
    000211  aa  040 040 040 040
    000212  aa  040 040 040 040
    000213  aa  074 141 163 137    466  sysdir:	aci	"<as_data_$sysdir>",168	"AS system control dir
    000214  aa  144 141 164 141
    000215  aa  137 044 163 171
    000216  aa  163 144 151 162
    000217  aa  076 040 040 040
    000220  aa  040 040 040 040
    000221  aa  040 040 040 040
    000222  aa  040 040 040 040
    000223  aa  040 040 040 040
    000224  aa  040 040 040 040
    000225  aa  040 040 040 040
    000226  aa  040 040 040 040
    000227  aa  040 040 040 040
    000230  aa  040 040 040 040
    000231  aa  040 040 040 040
    000232  aa  040 040 040 040
    000233  aa  040 040 040 040
    000234  aa  040 040 040 040
    000235  aa  040 040 040 040
    000236  aa  040 040 040 040
    000237  aa  040 040 040 040
    000240  aa  040 040 040 040
    000241  aa  040 040 040 040
    000242  aa  040 040 040 040
    000243  aa  040 040 040 040
    000244  aa  040 040 040 040
    000245  aa  040 040 040 040
    000246  aa  040 040 040 040
    000247  aa  040 040 040 040
    000250  aa  040 040 040 040
    000251  aa  040 040 040 040
    000252  aa  040 040 040 040
    000253  aa  040 040 040 040
    000254  aa  040 040 040 040
    000255  aa  040 040 040 040
    000256  aa  040 040 040 040
    000257  aa  040 040 040 040
    000260  aa  040 040 040 040
    000261  aa  040 040 040 040
    000262  aa  040 040 040 040
    000263  aa  040 040 040 040
    000264  aa  040 040 040 040
    000265  aa  074 141 163 137    467  acsdir:	aci	"<as_data_$acsdir>",168	"AS Access Control Segment dir
    000266  aa  144 141 164 141
    000267  aa  137 044 141 143
    000270  aa  163 144 151 162
    000271  aa  076 040 040 040
    000272  aa  040 040 040 040
    000273  aa  040 040 040 040
    000274  aa  040 040 040 040
    000275  aa  040 040 040 040
    000276  aa  040 040 040 040
    000277  aa  040 040 040 040
    000300  aa  040 040 040 040
    000301  aa  040 040 040 040
    000302  aa  040 040 040 040
    000303  aa  040 040 040 040
    000304  aa  040 040 040 040
    000305  aa  040 040 040 040
    000306  aa  040 040 040 040
    000307  aa  040 040 040 040
    000310  aa  040 040 040 040
    000311  aa  040 040 040 040
    000312  aa  040 040 040 040
    000313  aa  040 040 040 040
    000314  aa  040 040 040 040
    000315  aa  040 040 040 040
    000316  aa  040 040 040 040
    000317  aa  040 040 040 040
    000320  aa  040 040 040 040
    000321  aa  040 040 040 040
    000322  aa  040 040 040 040
    000323  aa  040 040 040 040
    000324  aa  040 040 040 040
    000325  aa  040 040 040 040
    000326  aa  040 040 040 040
    000327  aa  040 040 040 040
    000330  aa  040 040 040 040
    000331  aa  040 040 040 040
    000332  aa  040 040 040 040
    000333  aa  040 040 040 040
    000334  aa  040 040 040 040
    000335  aa  040 040 040 040
    000336  aa  040 040 040 040
    000337                         468  ls_message_buffer_max_lth:			"max length of ls buffer
    000337  aa   000000 000000     469  	dec	0
    000340                         470  ls_message_buffer_cur_lth:			"current length of ls buffer
    000340  aa   000000 000000     471  	dec	0
    000341                         472  debug_flag:
    000341  aa   000000 000000     473  	dec	0			"are we debugging
                                   474  	use	.text.
                                   475  	join	/static/static
                                   476  	end

NO LITERALS

NAME DEFINITIONS FOR ENTRY POINTS AND SEGDEFS

    001160  5a   000003 000000
    001161  5a   000502 600000
    001162  aa   000000 000000
    001163  55   000011 000002
    001164  5a   000002 400003
    001165  55   000006 000011
    001166  aa  010 141 163 137
    001167  aa  144 141 164 141
    001170  aa  137 000 000 000
    001171  55   000016 000003
    001172  4a   000060 400004
    001173  55   000014 000003
    001174  aa  006 167 150 157         whoptr
    001175  aa  160 164 162 000
    001176  55   000023 000011
    001177  4a   000213 400004
    001200  55   000021 000003
    001201  aa  006 163 171 163         sysdir
    001202  aa  144 151 162 000
    001203  55   000030 000016
    001204  4a   000056 400004
    001205  55   000026 000003
    001206  aa  004 163 141 164         satp
    001207  aa  160 000 000 000
    001210  55   000035 000023
    001211  4a   000054 400004
    001212  55   000033 000003
    001213  aa  007 163 141 164         sat_htp
    001214  aa  137 150 164 160
    001215  55   000042 000030
    001216  4a   000052 400004
    001217  55   000040 000003
    001220  aa  005 162 164 144         rtdtp
    001221  aa  164 160 000 000
    001222  55   000047 000035
    001223  4a   000141 400004
    001224  55   000045 000003
    001225  aa  006 162 143 160         rcpdir
    001226  aa  144 151 162 000
    001227  55   000054 000042
    001230  4a   000026 400004
    001231  55   000052 000003
    001232  aa  007 162 163 137         rs_ptrs
    001233  aa  160 164 162 163
    001234  55   000061 000047
    001235  4a   000024 400004
    001236  55   000057 000003
    001237  aa  007 160 151 164         pit_ptr
    001240  aa  137 160 164 162
    001241  55   000066 000054
    001242  4a   000067 400004
    001243  55   000064 000003
    001244  aa  006 160 144 164         pdtdir
    001245  aa  144 151 162 000
    001246  55   000073 000061
    001247  4a   000022 400004
    001250  55   000071 000003
    001251  aa  004 155 147 164         mgtp
    001252  aa  160 000 000 000
    001253  55   000104 000066
    001254  4a   000016 400004
    001255  55   000076 000003
    001256  aa  025 154 163 137         ls_message_buffer_ptr
    001257  aa  155 145 163 163
    001260  aa  141 147 145 137
    001261  aa  142 165 146 146
    001262  aa  145 162 137 160
    001263  aa  164 162 000 000
    001264  55   000116 000073
    001265  4a   000337 400004
    001266  55   000107 000003
    001267  aa  031 154 163 137         ls_message_buffer_max_lth
    001270  aa  155 145 163 163
    001271  aa  141 147 145 137
    001272  aa  142 165 146 146
    001273  aa  145 162 137 155
    001274  aa  141 170 137 154
    001275  aa  164 150 000 000
    001276  55   000130 000104
    001277  4a   000340 400004
    001300  55   000121 000003
    001301  aa  031 154 163 137         ls_message_buffer_cur_lth
    001302  aa  155 145 163 163
    001303  aa  141 147 145 137
    001304  aa  142 165 146 146
    001305  aa  145 162 137 143
    001306  aa  165 162 137 154
    001307  aa  164 150 000 000
    001310  55   000142 000116
    001311  4a   000020 400004
    001312  55   000133 000003
    001313  aa  032 154 163 137         ls_request_server_info_ptr
    001314  aa  162 145 161 165
    001315  aa  145 163 164 137
    001316  aa  163 145 162 166
    001317  aa  145 162 137 151
    001320  aa  156 146 157 137
    001321  aa  160 164 162 000
    001322  55   000150 000130
    001323  4a   000066 400004
    001324  55   000145 000003
    001325  aa  010 154 143 164         lct_size
    001326  aa  137 163 151 172
    001327  aa  145 000 000 000
    001330  55   000157 000142
    001331  4a   000065 400004
    001332  55   000153 000003
    001333  aa  017 154 143 164         lct_initialized
    001334  aa  137 151 156 151
    001335  aa  164 151 141 154
    001336  aa  151 172 145 144
    001337  55   000163 000150
    001340  4a   000026 400004
    001341  55   000162 000003
    001342  aa  002 151 160 000         ip
    001343  55   000170 000157
    001344  4a   000014 400004
    001345  55   000166 000003
    001346  aa  004 144 165 164         dutp
    001347  aa  160 000 000 000
    001350  55   000175 000163
    001351  4a   000012 400004
    001352  55   000173 000003
    001353  aa  007 144 145 166         devtabp
    001354  aa  164 141 142 160
    001355  55   000202 000170
    001356  4a   000010 400004
    001357  55   000200 000003
    001360  aa  004 143 144 164         cdtp
    001361  aa  160 000 000 000
    001362  55   000210 000175
    001363  4a   000006 400004
    001364  55   000205 000003
    001365  aa  010 142 165 172         buzzardp
    001366  aa  172 141 162 144
    001367  aa  160 000 000 000
    001370  55   000215 000202
    001371  4a   000004 400004
    001372  55   000213 000003
    001373  aa  004 141 165 164         autp
    001374  aa  160 000 000 000
    001375  55   000222 000210
    001376  4a   000002 400004
    001377  55   000220 000003
    001400  aa  005 141 163 155         asmtp
    001401  aa  164 160 000 000
    001402  55   000227 000215
    001403  4a   000063 400004
    001404  55   000225 000003
    001405  aa  006 141 163 137         as_tty
    001406  aa  164 164 171 000
    001407  55   000235 000222
    001410  4a   000062 400004
    001411  55   000232 000003
    001412  aa  011 141 163 137         as_procid
    001413  aa  160 162 157 143
    001414  aa  151 144 000 000
    001415  55   000242 000227
    001416  4a   000000 400004
    001417  55   000240 000003
    001420  aa  004 141 156 163         ansp
    001421  aa  160 000 000 000
    001422  55   000247 000235
    001423  4a   000265 400004
    001424  55   000245 000003
    001425  aa  006 141 143 163         acsdir
    001426  aa  144 151 162 000
    001427  55   000260 000242
    001430  0a   001114 400000
    001431  55   000252 000003
    001432  aa  024 164 145 162         terminet_tabs_string
    001433  aa  155 151 156 145
    001434  aa  164 137 164 141
    001435  aa  142 163 137 163
    001436  aa  164 162 151 156
    001437  aa  147 000 000 000
    001440  55   000267 000247
    001441  0a   001113 400000
    001442  55   000263 000003
    001443  aa  017 165 160 144         update_priority
    001444  aa  141 164 145 137
    001445  aa  160 162 151 157
    001446  aa  162 151 164 171
    001447  55   000277 000260
    001450  0a   001112 400000
    001451  55   000272 000003
    001452  aa  020 162 145 161         request_priority
    001453  aa  165 145 163 164
    001454  aa  137 160 162 151
    001455  aa  157 162 151 164
    001456  aa  171 000 000 000
    001457  55   000310 000267
    001460  0a   001111 400000
    001461  55   000302 000003
    001462  aa  024 141 143 143         acct_update_priority
    001463  aa  164 137 165 160
    001464  aa  144 141 164 145
    001465  aa  137 160 162 151
    001466  aa  157 162 151 164
    001467  aa  171 000 000 000
    001470  55   000315 000277
    001471  0a   001077 400000
    001472  55   000313 000003
    001473  aa  006 163 165 146         suffix
    001474  aa  146 151 170 000
    001475  55   000324 000310
    001476  0a   001104 400000
    001477  55   000320 000003
    001500  aa  014 164 145 145         teens_suffix
    001501  aa  156 163 137 163
    001502  aa  165 146 146 151
    001503  aa  170 000 000 000
    001504  55   000333 000315
    001505  0a   000010 400000
    001506  55   000327 000003
    001507  aa  015 155 141 170         max_user_ring
    001510  aa  137 165 163 145
    001511  aa  162 137 162 151
    001512  aa  156 147 000 000
    001513  55   000342 000324
    001514  0a   000007 400000
    001515  55   000336 000003
    001516  aa  015 144 146 164         dft_user_ring
    001517  aa  137 165 163 145
    001520  aa  162 137 162 151
    001521  aa  156 147 000 000
    001522  55   000347 000333
    001523  0a   000006 400000
    001524  55   000345 000003
    001525  aa  007 141 163 137         as_ring
    001526  aa  162 151 156 147
    001527  55   000356 000342
    001530  0a   000005 400000
    001531  55   000352 000003
    001532  aa  016 144 145 146         default_weight
    001533  aa  141 165 154 164
    001534  aa  137 167 145 151
    001535  aa  147 150 164 000
    001536  55   000364 000347
    001537  0a   000333 400000
    001540  55   000361 000003
    001541  aa  012 154 157 147         login_args
    001542  aa  151 156 137 141
    001543  aa  162 147 163 000
    001544  55   000372 000356
    001545  0a   000323 400000
    001546  55   000367 000003
    001547  aa  010 147 061 061         g115_dim
    001550  aa  065 137 144 151
    001551  aa  155 000 000 000
    001552  55   000377 000364
    001553  0a   000313 400000
    001554  55   000375 000003
    001555  aa  007 141 142 163         abs_dim
    001556  aa  137 144 151 155
    001557  55   000404 000372
    001560  0a   000303 400000
    001561  55   000402 000003
    001562  aa  007 155 162 144         mrd_dim
    001563  aa  137 144 151 155
    001564  55   000412 000377
    001565  0a   000273 400000
    001566  55   000407 000003
    001567  aa  010 156 164 164         ntty_dim
    001570  aa  171 137 144 151
    001571  aa  155 000 000 000
    001572  55   000417 000404
    001573  0a   000263 400000
    001574  55   000415 000003
    001575  aa  007 164 164 171         tty_dim
    001576  aa  137 144 151 155
    001577  55   000427 000412
    001600  0a   000235 400000
    001601  55   000422 000003
    001602  aa  023 163 171 163         system_signal_types
    001603  aa  164 145 155 137
    001604  aa  163 151 147 156
    001605  aa  141 154 137 164
    001606  aa  171 160 145 163
    001607  55   000436 000417
    001610  0a   000177 400000
    001611  55   000432 000003
    001612  aa  014 163 151 147         signal_types
    001613  aa  156 141 154 137
    001614  aa  164 171 160 145
    001615  aa  163 000 000 000
    001616  55   000444 000427
    001617  0a   000011 400000
    001620  55   000441 000003
    001621  aa  013 154 157 147         login_words
    001622  aa  151 156 137 167
    001623  aa  157 162 144 163
    001624  55   000452 000436
    001625  4a   000341 400004
    001626  55   000447 000003
    001627  aa  012 144 145 142         debug_flag
    001630  aa  165 147 137 146
    001631  aa  154 141 147 000
    001632  55   000457 000444
    001633  0a   000000 400000
    001634  55   000455 000003
    001635  aa  007 166 145 162         version
    001636  aa  163 151 157 156
    001637  55   000463 000452
    001640  0a   000004 400000
    001641  55   000462 000003
    001642  aa  002 102 123 000         BS
    001643  55   000467 000457
    001644  0a   000003 400000
    001645  55   000466 000003
    001646  aa  002 103 122 000         CR
    001647  55   000473 000463
    001650  0a   000002 400000
    001651  55   000472 000003
    001652  aa  003 102 105 114         BEL
    001653  55   000002 000467
    001654  6a   000000 400002
    001655  55   000476 000003
    001656  aa  014 163 171 155         symbol_table
    001657  aa  142 157 154 137
    001660  aa  164 141 142 154
    001661  aa  145 000 000 000

DEFINITIONS HASH TABLE

    001662  aa   000000 000131
    001663  5a   000436 000000
    001664  5a   000267 000000
    001665  5a   000473 000000
    001666  5a   000142 000000
    001667  5a   000066 000000
    001670  5a   000157 000000
    001671  5a   000235 000000
    001672  5a   000347 000000
    001673  5a   000372 000000
    001674  5a   000215 000000
    001675  5a   000047 000000
    001676  5a   000260 000000
    001677  5a   000412 000000
    001700  5a   000457 000000
    001701  5a   000023 000000
    001702  aa   000000 000000
    001703  aa   000000 000000
    001704  aa   000000 000000
    001705  5a   000035 000000
    001706  aa   000000 000000
    001707  5a   000377 000000
    001710  5a   000030 000000
    001711  aa   000000 000000
    001712  aa   000000 000000
    001713  5a   000202 000000
    001714  aa   000000 000000
    001715  aa   000000 000000
    001716  5a   000222 000000
    001717  5a   000130 000000
    001720  5a   000210 000000
    001721  5a   000247 000000
    001722  5a   000277 000000
    001723  5a   000315 000000
    001724  aa   000000 000000
    001725  5a   000227 000000
    001726  aa   000000 000000
    001727  5a   000175 000000
    001730  aa   000000 000000
    001731  aa   000000 000000
    001732  aa   000000 000000
    001733  5a   000364 000000
    001734  aa   000000 000000
    001735  aa   000000 000000
    001736  5a   000242 000000
    001737  aa   000000 000000
    001740  aa   000000 000000
    001741  5a   000073 000000
    001742  aa   000000 000000
    001743  5a   000452 000000
    001744  5a   000150 000000
    001745  5a   000444 000000
    001746  aa   000000 000000
    001747  5a   000333 000000
    001750  aa   000000 000000
    001751  5a   000417 000000
    001752  aa   000000 000000
    001753  aa   000000 000000
    001754  5a   000163 000000
    001755  5a   000356 000000
    001756  5a   000342 000000
    001757  aa   000000 000000
    001760  aa   000000 000000
    001761  5a   000170 000000
    001762  5a   000404 000000
    001763  aa   000000 000000
    001764  aa   000000 000000
    001765  aa   000000 000000
    001766  aa   000000 000000
    001767  aa   000000 000000
    001770  5a   000310 000000
    001771  aa   000000 000000
    001772  5a   000467 000000
    001773  5a   000324 000000
    001774  5a   000061 000000
    001775  5a   000463 000000
    001776  5a   000011 000000
    001777  aa   000000 000000
    002000  aa   000000 000000
    002001  aa   000000 000000
    002002  aa   000000 000000
    002003  5a   000042 000000
    002004  5a   000427 000000
    002005  aa   000000 000000
    002006  5a   000016 000000
    002007  5a   000054 000000
    002010  5a   000104 000000
    002011  5a   000116 000000
    002012  aa   000000 000000
    002013  aa   000000 000000

NO EXTERNAL NAMES

NO TRAP POINTER WORDS

TYPE PAIR BLOCKS

    002014  aa   000001 000000
    002015  aa   000000 000000

INTERNAL EXPRESSION WORDS

LINKAGE INFORMATION

    000342  aa   000000 000000
    000343  0a   001160 000000
    000344  aa   000000 000000
    000345  aa   000000 000000
    000346  aa   000000 000000
    000347  aa   000000 000000
    000350  22   000010 000010
    000351  a2   000000 000342
SYMBOL INFORMATION

SYMBOL TABLE HEADER

    000000  aa   000000 000001
    000001  aa   163171 155142
    000002  aa   164162 145145
    000003  aa   000000 000007
    000004  aa   000000 115030
    000005  aa   273207 326355
    000006  aa   000000 115523
    000007  aa   743647 764536
    000010  aa   141154 155040
    000011  aa   040040 040040
    000012  aa   000024 000040
    000013  aa   000034 000040
    000014  aa   000044 000100
    000015  aa   000002 000002
    000016  aa   000064 000000
    000017  aa   000000 000261
    000020  aa   000000 000106
    000021  aa   000156 000153
    000022  aa   000253 000106
    000023  aa   000064 000000
    000024  aa   101114 115040
    000025  aa   126145 162163
    000026  aa   151157 156040
    000027  aa   067056 063040
    000030  aa   116157 166145
    000031  aa   155142 145162
    000032  aa   040061 071070
    000033  aa   066040 040040
    000034  aa   107112 157150
    000035  aa   156163 157156
    000036  aa   056123 171163
    000037  aa   115141 151156
    000040  aa   164056 141040
    000041  aa   040040 040040
    000042  aa   040040 040040
    000043  aa   040040 040040
    000044  aa   055164 141162
    000045  aa   147145 164040
    000046  aa   154066 070040
    000047  aa   040040 040040
    000050  aa   040040 040040
    000051  aa   040040 040040
    000052  aa   040040 040040
    000053  aa   040040 040040
    000054  aa   040040 040040
    000055  aa   040040 040040
    000056  aa   040154 151163
    000057  aa   164040 163171
    000060  aa   155142 157154
    000061  aa   163040 040040
    000062  aa   040040 040040
    000063  aa   040040 040040
    000064  aa   000000 000001
    000065  aa   000000 000001
    000066  aa   000072 000055
    000067  aa   155200 221315
    000070  aa   000000 115523
    000071  aa   731722 600000
    000072  aa   076163 160145          >special_ldd>install>MR12.1-1054>as_data_.alm
    000073  aa   143151 141154
    000074  aa   137154 144144
    000075  aa   076151 156163
    000076  aa   164141 154154
    000077  aa   076115 122061
    000100  aa   062056 061055
    000101  aa   061060 065064
    000102  aa   076141 163137
    000103  aa   144141 164141
    000104  aa   137056 141154
    000105  aa   155040 040040
               MULTICS ASSEMBLY CROSS REFERENCE LISTING

   Value        Symbol                   Source file   Line number

           0    .text.                   as_data_:     474.
         313    abs_dim                  as_data_:     189,  327.
        1111    acct_update_priority     as_data_:     201,  404.
         265    acsdir                   as_data_:     206,  467.
           0    ansp                     as_data_:     207,  430.
           2    asmtp                    as_data_:     210,  431.
          62    as_procid                as_data_:     208,  458.
           6    as_ring                  as_data_:     194,  247.
          63    as_tty                   as_data_:     209,  460.
           4    autp                     as_data_:     211,  432.
           2    BEL                      as_data_:     177,  238.
           4    BS                       as_data_:     179,  242.
           6    buzzardp                 as_data_:     212,  433.
          10    cdtp                     as_data_:     213,  434.
           3    CR                       as_data_:     178,  240.
         341    debug_flag               as_data_:     181,  472.
           5    default_weight           as_data_:     193,  244.
          12    devtabp                  as_data_:     214,  435.
           7    dft_user_ring            as_data_:     195,  248.
          14    dutp                     as_data_:     215,  436.
          13    first_login_wd           as_data_:     254,  256.
         335    first_option             as_data_:     332,  334.
         237    first_system_sig         as_data_:     309,  311.
         201    first_user_sig           as_data_:     289,  291.
         323    g115_dim                 as_data_:     190,  328.
          26    ip                       as_data_:     216,  443.
         177    last_login_wd            as_data_:     254,  286.
        1077    last_option              as_data_:     332,  394.
         263    last_system_sig          as_data_:     309,  322.
         235    last_user_sig            as_data_:     289,  306.
          65    lct_initialized          as_data_:     217,  461.
          66    lct_size                 as_data_:     218,  463.
         333    login_args               as_data_:     192,  331.
          11    login_words              as_data_:     182,  253.
         340    ls_message_buffer_cur_lth      as_data_:     220,  470.
         337    ls_message_buffer_max_lth      as_data_:     221,  468.
          16    ls_message_buffer_ptr    as_data_:     222,  437.
          20    ls_request_server_info_ptr     as_data_:     219,  439.
          10    max_user_ring            as_data_:     196,  250.
          22    mgtp                     as_data_:     223,  441.
         303    mrd_dim                  as_data_:     188,  326.
         273    ntty_dim                 as_data_:     187,  325.
          67    pdtdir                   as_data_:     224,  464.
          24    pit_ptr                  as_data_:     225,  442.
         141    rcpdir                   as_data_:     227,  465.
        1112    request_priority         as_data_:     202,  406.
          26    rs_ptrs                  as_data_:     226,  444.
          52    rtdtp                    as_data_:     228,  454.
          56    satp                     as_data_:     230,  456.
          54    sat_htp                  as_data_:     229,  455.
         177    signal_types             as_data_:     183,  288.
           0    static                   as_data_:     429,  475.
        1077    suffix                   as_data_:     199,  396.
         213    sysdir                   as_data_:     231,  466.
         235    system_signal_types      as_data_:     184,  308.
        1104    teens_suffix             as_data_:     198,  400.
        1114    terminet_tabs_string     as_data_:     204,  411.
         263    tty_dim                  as_data_:     186,  324.
        1113    update_priority          as_data_:     203,  408.
           0    version                  as_data_:     180,  234.
          60    whoptr                   as_data_:     232,  457.


NO FATAL ERRORS


                                          -----------------------------------------------------------


Historical Background

This edition of the Multics software materials and documentation is provided and donated
to Massachusetts Institute of Technology by Group BULL including BULL HN Information Systems Inc.
as a contribution to computer science knowledge.
This donation is made also to give evidence of the common contributions of Massachusetts Institute of Technology,
Bell Laboratories, General Electric, Honeywell Information Systems Inc., Honeywell BULL Inc., Groupe BULL
and BULL HN Information Systems Inc. to the development of this operating system.
Multics development was initiated by Massachusetts Institute of Technology Project MAC (1963-1970),
renamed the MIT Laboratory for Computer Science and Artificial Intelligence in the mid 1970s, under the leadership
of Professor Fernando Jose Corbato. Users consider that Multics provided the best software architecture
for managing computer hardware properly and for executing programs. Many subsequent operating systems
incorporated Multics principles.
Multics was distributed in 1975 to 2000 by Group Bull in Europe , and in the U.S. by Bull HN Information Systems Inc.,
as successor in interest by change in name only to Honeywell Bull Inc. and Honeywell Information Systems Inc. .

                                          -----------------------------------------------------------

Permission to use, copy, modify, and distribute these programs and their documentation for any purpose and without
fee is hereby granted,provided that the below copyright notice and historical background appear in all copies
and that both the copyright notice and historical background and this permission notice appear in supporting
documentation, and that the names of MIT, HIS, BULL or BULL HN not be used in advertising or publicity pertaining
to distribution of the programs without specific prior written permission.
    Copyright 1972 by Massachusetts Institute of Technology and Honeywell Information Systems Inc.
    Copyright 2006 by BULL HN Information Systems Inc.
    Copyright 2006 by Bull SAS
    All Rights Reserved
