ASSEMBLY LISTING OF SEGMENT >spec>install>1093>as_error_table_.alm
ASSEMBLED ON:	08/29/88  0919.2 mst Mon
OPTIONS USED:	-target l68                              list symbols
ASSEMBLED BY:	ALM Version 7.4 April 1987
ASSEMBLER CREATED:	11/02/87  1303.7 mst Mon

                                     1  " ***********************************************************
                                     2  " *                                                         *
                                     3  " * Copyright, (C) Honeywell Bull Inc., 1987                *
                                     4  " *                                                         *
                                     5  " * Copyright, (C) Honeywell Information Systems Inc., 1982 *
                                     6  " *                                                         *
                                     7  " * Copyright (c) 1972 by Massachusetts Institute of        *
                                     8  " * Technology and Honeywell Information Systems, Inc.      *
                                     9  " *                                                         *
                                    10  " ***********************************************************
                                    11
                                    12  "  AS_ERROR_TABLE_ - answering service error messages.
                                    13
                                    14  "  This module is installation replaceable.
                                    15  "  It contains the text for error messages typed by the answering service,
                                    16  "  to the operator and the user. Each installation may tailor these messages,
                                    17  "  inserting phone numbers or whatever, as necessary.
                                    18  "  An important motivation for having this table is so that installations
                                    19  "  may be as informative or non-informative as they please about the
                                    20  "  reasons for refusing login, depending on local security requirements.
                                    21
                                    22  "  Some of the items in this table are actually control strings for ioa_$rs.
                                    23  "  All such items end with the suffix "_msg" in the external name.
                                    24
                                    25  "  Items which are less informative than possible for security considerations
                                    26  "  are followed by the comment "security".
                                    27
                                    28  "  Items in this table are divided into sections, based upon the module which
                                    29  "  references the items.  Within a section, items are listed ALPHABETICALLY.
                                    30
                                    31  "  THVV 10/72
                                    32  "  Modified 740913 by PG for AIM messages.
                                    33  "  Modified 750415 by PG to eliminate printer on characters from msgs.
                                    34  "  Modified April 1976 by T. Casey to add dialup_ messages for process creation loops and changing password.
                                    35  "  Modified May 1976 by T. Casey to change contents of the project-will-be-cut-off-soon messages.
                                    36  "  Modified 760819 by Roy Planalp to change text of 'password given incorrectly'
                                    37  "   and 'illegal process_overseer', home_dir, etc. messages.
                                    38  "  Modified 770824 by G. Palter to change messages marked as "security" to
                                    39  "   include more informative information.
                                    40  "  Modified Winter 1978 and Spring 1979 by T. Casey for MR7.0 and MR7.0a to add several new codes for absentee enhancements.
                                    41  "  Modified October 1979 by T. Casey for MR8.0 for process preservation across hangups.
                                    42  "  Converted to ALM and ribbon shifts removed January 1980 by C. Hornig
                                    43  "  Added must_change, activity_unbump, January 1981, E. N. Kittlitz
                                    44  "  Added cdt damage codes 1/82, BIM
                                    45  "  Modified password prompts to not have newlines, and the next person to back it out eats hot bits. ENK, 5/83.
                                    46  "  Modified December 1983 by C. Marker  Added bad_terminal_id
                                    47  "  Modified 84-04-05 BIM for aclass_banner_msg.
                                    48  "  Modified 84-06-20 BIM for strict_trusted_path
                                    49  "  Modified 85-01-31 E. Swenson for better "Another...is logging in" messages.
                                    50  "  Modified 85-03-04 E. Swenson for new password error messages.
                                    51
                                    52
                                    53  " HISTORY COMMENTS:
                                    54  "  1) change(85-12-10,Herbst), approve(87-07-14,MCR7663),
                                    55  "     audit(87-07-24,Brunelle), install(87-08-04,MR12.1-1055):
                                    56  "     Surrounded $warn_msg with additional newlines to accomodate new warn
                                    57  "     software.
                                    58  "  2) change(86-04-01,Swenson), approve(87-07-14,MCR7737),
                                    59  "     audit(87-07-24,Brunelle), install(87-08-04,MR12.1-1055):
                                    60  "     Add new codes for login server user control support.
                                    61  "  3) change(87-04-21,GDixon), approve(87-07-14,MCR7741),
                                    62  "     audit(87-07-24,Brunelle), install(87-08-04,MR12.1-1055):
                                    63  "     Provide a badly needed reorganization of this table, ALPHABETICALLY
                                    64  "     within sections.  Sites which have replaced this table should compare
                                    65  "     this version with >ldd>tools>s>as_error_table_.mr12.0.alm to determine
                                    66  "     the actual additions made for MR12.1.  Future modifiers, please add new
                                    67  "     entries in ALPHABETICAL ORDER.
                                    68  "  4) change(87-07-14,Parisek), approve(87-07-14,MCR7644),
                                    69  "     audit(87-07-24,Brunelle), install(87-08-04,MR12.1-1055):
                                    70  "     Added "disc_hd_msg" for notifying user of disconnection via the
                                    71  "     disconnect user command, "no_disc_hd" for notifying user of a hangup
                                    72  "     after disconnection via the user disconnect command due to OFF
                                    73  "     "trusted_path_login" installation parm value, and "no_perm_disc" for
                                    74  "     notifying user he lacks the disconnect_ok process attribute.
                                    75  "  5) change(87-11-03,GDixon), approve(88-08-15,MCR7969),
                                    76  "     audit(88-08-03,Lippard), install(88-08-29,MR12.2-1093):
                                    77  "      A) Double quotes in error message for $need_project_for_cdp message.
                                    78  "         (phx19391, as 491)
                                    79  "                                                      END HISTORY COMMENTS
                                    80
                                    81
                                    82  	include	et_macros
                                   1-1  " Begin include file ...... et_macros.incl.alm
                                   1-2  "	Written 6/15/77 by Noel I. Morris
                                   1-3  "	Modified '82 so error code entries are in first page of segment.
                                   1-4
                                   1-5  " This include file contains macros for generating error tables
                                   1-6  " for both system and non-system use.
                                   1-7
                                   1-8  " ET MACRO
                                   1-9  "
                                  1-10  " This macro is used to initialize the error table for either
                                  1-11  " system or non-system use.  It is invoked at the beginning of
                                  1-12  " the error table as follows:
                                  1-13  "
                                  1-14  "	et	table_name{,system}
                                  1-15  "
                                  1-16
                                  1-17  macro	et
                              1   1-18  	maclist	on
                              2   1-19
                              3   1-20  	name	&1
                              4   1-21
                              5   1-22  &^=&2,system&[
                              6   1-23
                              7   1-24  	include	stack_header
                              8   1-25
                              9   1-26  
                             10   1-27
                             11   1-28  	use	codes
                             12   1-29  .code_start:
                             13   1-30
                             14   1-31  	use	past_codes
                             15   1-32  .code_end:
                             16   1-33
                             17   1-34  	join	/link/codes,past_codes
                             18   1-35
                             19   1-36  	use	messages
                             20   1-37
                             21   1-38  .trapproc:
                             22   1-39  	epaq	0,ic
                             23   1-40  	eax0	0,au
                             24   1-41  	epbpsb	sp|0
                             25   1-42  	lprplp	sb|stack_header.lot_ptr,*au
                             26   1-43  	eax1	.code_start
                             27   1-44  .loop:	stx0	lp|0,x1
                             28   1-45  	eax1	1,x1
                             29   1-46  	cmpx1	.code_end,du
                             30   1-47  	tmi	.loop-*,ic
                             31   1-48  	short_return
                             32   1-49
                             33   1-50  	firstref	<*text>|.trapproc
                             34   1-51
                             35   1-52  &;	use	codes
                             36   1-53  	use	messages
                             37   1-54
                             38   1-55  	join	/text/codes,messages
                             39   1-56
                             40   1-57  &]
                             41   1-58
                             42   1-59  	bool	.segno,77777
                             43   1-60
                             44   1-61  	maclist	off
                             45   1-62
                             46   1-63  	&end
                                  1-64
                                  1-65  
                                  1-66
                                  1-67  " EC MACRO
                                  1-68  "
                                  1-69  " This macro is used to define an error code as shown:
                                  1-70  "
                                  1-71  "	ec	name,{short_mess},(long_mess)
                                  1-72  "
                                  1-73  " If more than a single name is to be defined for a given message,
                                  1-74  " a list of names separated by commas and enclosed in parentheses
                                  1-75  " must be given.   short_mess must be 8 or less characters.  If omitted,
                                  1-76  " the short_mess will be set to the name.  long_mess is enclosed
                                  1-77  " in parentheses in order to cause ALM to ignore embedded blanks.  Please
                                  1-78  " note that double quote characters in either short_mess or long_mess
                                  1-79  " must be doubled in order to make the ALM assembly work properly.
                                  1-80  " Note that a macro invocation line terminated by a comma will cause that
                                  1-81  " statement to be continued on the next line.
                                  1-82
                                  1-83  macro	ec
                              1   1-84  	use	codes
                              2   1-85
                              3   1-86  	maclist	on,save
                              4   1-87  &(1	segdef  &i
                              5   1-88  &)	maclist	restore
                              6   1-89  &(1&i:
                              7   1-90  &)	maclist	object,save
                              8   1-91  	zero	.segno,&U
                              9   1-92  	maclist	restore
                             10   1-93  	use	messages
                             11   1-94  &^=&l2,0&[	shortname    &2
                             12   1-95  &;	shortname    &1
                             13   1-96  &]
                             14   1-97  &U:
                             15   1-98  	maclist	on,save
                             16   1-99  	acc  "&3"
                             17  1-100
                             18  1-101  	maclist	restore
                             19  1-102  	&end
                                 1-103
                                 1-104  macro	shortname
                              1  1-105  	maclist	on,save
                              2  1-106  	aci  "&1",8
                              3  1-107  	maclist	restore
                              4  1-108  	&end
                                 1-109
                                 1-110  
                                 1-111
                                 1-112  " A typical error table source program might have the following format:
                                 1-113  "
                                 1-114  "	include	et_macros
                                 1-115  "
                                 1-116  "	et	name_of_error_table
                                 1-117  "
                                 1-118  "	ec	error_code_1,ecode1,(This is error code 1.)
                                 1-119  "
                                 1-120  "	ec	error_code_2,ecode2,(This is error code 2.)
                                 1-121  "
                                 1-122  "	:	     :	      :		:
                                 1-123  "
                                 1-124  "	ec	error_code_n,ecoden,(This is the nth error code.)
                                 1-125  "
                                 1-126  "	end
                                 1-127  "
                                 1-128
                                 1-129  " End of include file ...... et_macros.incl.alm
                                 1-130
                                    83
                                    84  	et	as_error_table_

    000000                              	name	as_error_table_


                                        	include	stack_header
                                   2-1  "	BEGIN INCLUDE FILE ... stack_header.incl.alm  3/72  Bill Silver
                                   2-2  "
                                   2-3  "	modified 7/76 by M. Weaver for *system links and more system use of areas
                                   2-4  "	modified 3/77 by M. Weaver  to add rnt_ptr
                                   2-5  "	modified 7/77 by S. Webber to add run_unit_depth and assign_linkage_ptr
                                   2-6  "	modified 6/83 by J. Ives to add trace_frames and in_trace.
                                   2-7
                                   2-8  " HISTORY COMMENTS:
                                   2-9  "  1) change(86-06-24,DGHowe), approve(86-06-24,MCR7396),
                                  2-10  "     audit(86-08-05,Schroth), install(86-11-03,MR12.0-1206):
                                  2-11  "     added the heap_header_ptr definition
                                  2-12  "  2) change(86-08-12,Kissel), approve(86-08-12,MCR7473),
                                  2-13  "     audit(86-10-10,Fawcett), install(86-11-03,MR12.0-1206):
                                  2-14  "     Modified to support control point management.  These changes were
                                  2-15  "     actually made in February 1985 by G. Palter.
                                  2-16  "  3) change(86-10-22,Fawcett), approve(86-10-22,MCR7473),
                                  2-17  "     audit(86-10-22,Farley), install(86-11-03,MR12.0-1206):
                                  2-18  "     Remove the old_lot pointer and replace it with cpm_data_ptr. Use the 18
                                  2-19  "     bit pad after cur_lot_size for the cpm_enabled. This was done to save
                                  2-20  "     some space int the stack header and change the cpd_ptr unal to
                                  2-21  "     cpm_data_ptr (ITS pair).
                                  2-22  "                                                      END HISTORY COMMENTS
                                  2-23
                        000004    2-24  	equ	stack_header.cpm_data_ptr,4		ptr to control point for this stack
                        000006    2-25  	equ	stack_header.combined_stat_ptr,6	ptr to separate static area
                                  2-26
                        000010    2-27  	equ	stack_header.clr_ptr,8		ptr to area containing linkage sections
                        000012    2-28  	equ	stack_header.max_lot_size,10		number of words allowed in lot (DU)
                        000012    2-29  	equ	stack_header.main_proc_invoked,10	nonzero if main proc was invoked in run unit (DL)
                        000012    2-30  	equ	stack_header.run_unit_depth,10	number of active run units stacked (DL)
                        000013    2-31  	equ	stack_header.cur_lot_size,11		DU number of words (entries) in lot
                        000013    2-32            equ	stack_header.cpm_enabled,11		DL  non-zero if control point management is enabled
                        000014    2-33  	equ	stack_header.system_free_ptr,12	ptr to system storage area
                        000016    2-34  	equ	stack_header.user_free_ptr,14		ptr to user storage area
                                  2-35
                        000020    2-36  	equ	stack_header.parent_ptr,16		ptr to parent stack or null
                        000022    2-37  	equ	stack_header.stack_begin_ptr,18	ptr to first stack frame
                        000024    2-38  	equ	stack_header.stack_end_ptr,20		ptr to next useable stack frame
                        000026    2-39  	equ	stack_header.lot_ptr,22		ptr to the lot for the current ring
                                  2-40
                        000030    2-41  	equ	stack_header.signal_ptr,24		ptr to signal proc for current ring
                        000032    2-42  	equ	stack_header.bar_mode_sp,26		value of sp before entering bar mode
                        000034    2-43  	equ	stack_header.pl1_operators_ptr,28	ptr: pl1_operators_$operator_table
                        000036    2-44  	equ	stack_header.call_op_ptr,30		ptr to standard call operator
                                  2-45
                        000040    2-46  	equ	stack_header.push_op_ptr,32		ptr to standard push operator
                        000042    2-47  	equ	stack_header.return_op_ptr,34		ptr to standard return operator
                        000044    2-48  	equ	stack_header.ret_no_pop_op_ptr,36	ptr: stand. return/ no pop operator
                        000046    2-49  	equ	stack_header.entry_op_ptr,38		ptr to standard entry operator
                                  2-50
                        000050    2-51  	equ	stack_header.trans_op_tv_ptr,40	ptr to table of translator operator ptrs
                        000052    2-52  	equ	stack_header.isot_ptr,42		pointer to ISOT
                        000054    2-53  	equ	stack_header.sct_ptr,44		pointer to System Condition Table
                        000056    2-54  	equ	stack_header.unwinder_ptr,46		pointer to unwinder for current ring
                                  2-55
                        000060    2-56  	equ	stack_header.sys_link_info_ptr,48	ptr to *system link name table
                        000062    2-57  	equ	stack_header.rnt_ptr,50		ptr to reference name table
                        000064    2-58  	equ	stack_header.ect_ptr,52		ptr to event channel table
                        000066    2-59  	equ	stack_header.assign_linkage_ptr,54	ptr to area for hcs_$assign_linkage calls
                        000070    2-60  	equ	stack_header.heap_header_ptr,56	ptr to heap header.
                        000072    2-61  	equ	stack_header.trace_frames,58		stack of trace_catch_ frames
                        000073    2-62  	equ	stach_header.trace_top_ptr,59		trace pointer
                        000074    2-63  	equ	stack_header.in_trace,60		trace antirecurse bit
                        000100    2-64  	equ	stack_header_end,64			length of stack header
                                  2-65
                                  2-66
                                  2-67
                                  2-68
                        000000    2-69  	equ	trace_frames.count,0		number of trace frames on stack
                        000001    2-70  	equ	trace_frames.top_ptr,1		packed pointer to top one
                                  2-71
                                  2-72  "	The  following constant is an offset within the  pl1  operators table.
                                  2-73  "	It  references a  transfer vector table.
                                  2-74
                        000551    2-75  	bool	tv_offset,551
                                  2-76
                                  2-77
                                  2-78  "	The  following constants are offsets within this transfer vector table.
                                  2-79
                        001170    2-80  	equ	call_offset,tv_offset+271
                        001171    2-81  	equ	push_offset,tv_offset+272
                        001172    2-82  	equ	return_offset,tv_offset+273
                        001173    2-83  	equ	return_no_pop_offset,tv_offset+274
                        001174    2-84  	equ	entry_offset,tv_offset+275
                                  2-85
                                  2-86
                                  2-87  " 	END INCLUDE FILE stack_header.incl.alm

                                        

                                        	use	codes
    000010                              .code_start:

                                        	use	past_codes
    000322                              .code_end:

                                        	join	/link/codes,past_codes

                                        	use	messages

    000000                              .trapproc:
    000000  aa   000000 2130 04         	epaq	0,ic
    000001  aa   000000 6200 01         	eax0	0,au
    000002  aa  6 00000 3731 00         	epbpsb	sp|0
    000003  aa  7 00026 7641 61         	lprplp	sb|stack_header.lot_ptr,*au
    000004  8a   000010 6210 00         	eax1	.code_start
    000005  aa  4 00000 7401 11         .loop:	stx0	lp|0,x1
    000006  aa   000001 6210 11         	eax1	1,x1
    000007  8a   000322 1010 03         	cmpx1	.code_end,du
    000010  aa   777775 6040 04         	tmi	.loop-*,ic
    000011  aa  7 00044 7101 20         	short_return

    000012                              	firstref	<*text>|.trapproc


                        077777          	bool	.segno,77777

                                    85
                                    86
                                    87  "  Messages produced by parse_login_line_
                                    88
                                    89   ec  bad_login_arg_msg,badlgarg,(login: Invalid argument ""^a"".)
                        000010          	segdef  bad_login_arg_msg
    000010  a0   077777 000014
    000012  aa  142 141 144 154         	aci  "badlgarg",8
    000013  aa  147 141 162 147
    000014  aa  035 154 157 147         	acc  "login: Invalid argument ""^a""."
    000015  aa  151 156 072 040
    000016  aa  111 156 166 141
    000017  aa  154 151 144 040
    000020  aa  141 162 147 165
    000021  aa  155 145 156 164
    000022  aa  040 042 136 141
    000023  aa  042 056 000 000

                                    90   ec  bad_login_arguments_string,badagstr,(login: Error processing arguments following -arguments.)
                        000011          	segdef  bad_login_arguments_string
    000011  a0   077777 000026
    000024  aa  142 141 144 141         	aci  "badagstr",8
    000025  aa  147 163 164 162
    000026  aa  067 154 157 147         	acc  "login: Error processing arguments following -arguments."
    000027  aa  151 156 072 040
    000030  aa  105 162 162 157
    000031  aa  162 040 160 162
    000032  aa  157 143 145 163
    000033  aa  163 151 156 147
    000034  aa  040 141 162 147
    000035  aa  165 155 145 156
    000036  aa  164 163 040 146
    000037  aa  157 154 154 157
    000040  aa  167 151 156 147
    000041  aa  040 055 141 162
    000042  aa  147 165 155 145
    000043  aa  156 164 163 056

                                    91   ec  bad_password_format,badpwfmt,(login: Passwords must be 8 or less printing characters, without spaces or semi-colons)
                        000012          	segdef  bad_password_format
    000012  a0   077777 000046
    000044  aa  142 141 144 160         	aci  "badpwfmt",8
    000045  aa  167 146 155 164
    000046  aa  125 154 157 147         	acc  "login: Passwords must be 8 or less printing characters, without spaces or semi-colons"
    000047  aa  151 156 072 040
    000050  aa  120 141 163 163
    000051  aa  167 157 162 144
    000052  aa  163 040 155 165
    000053  aa  163 164 040 142
    000054  aa  145 040 070 040
    000055  aa  157 162 040 154
    000056  aa  145 163 163 040
    000057  aa  160 162 151 156
    000060  aa  164 151 156 147
    000061  aa  040 143 150 141
    000062  aa  162 141 143 164
    000063  aa  145 162 163 054
    000064  aa  040 167 151 164
    000065  aa  150 157 165 164
    000066  aa  040 163 160 141
    000067  aa  143 145 163 040
    000070  aa  157 162 040 163
    000071  aa  145 155 151 055
    000072  aa  143 157 154 157
    000073  aa  156 163 000 000

                                    92   ec  need_authorization_for_cda,needauth,(login: -change_default_auth requires that -authorization also be used.)
                        000013          	segdef  need_authorization_for_cda
    000013  a0   077777 000076
    000074  aa  156 145 145 144         	aci  "needauth",8
    000075  aa  141 165 164 150
    000076  aa  106 154 157 147         	acc  "login: -change_default_auth requires that -authorization also be used."
    000077  aa  151 156 072 040
    000100  aa  055 143 150 141
    000101  aa  156 147 145 137
    000102  aa  144 145 146 141
    000103  aa  165 154 164 137
    000104  aa  141 165 164 150
    000105  aa  040 162 145 161
    000106  aa  165 151 162 145
    000107  aa  163 040 164 150
    000110  aa  141 164 040 055
    000111  aa  141 165 164 150
    000112  aa  157 162 151 172
    000113  aa  141 164 151 157
    000114  aa  156 040 141 154
    000115  aa  163 157 040 142
    000116  aa  145 040 165 163
    000117  aa  145 144 056 000

                                    93   ec  need_project_for_cdp,needproj,(login: syntax is ""login Person.NewDefaultProj -change_default_project."")
                        000014          	segdef  need_project_for_cdp
    000014  a0   077777 000122
    000120  aa  156 145 145 144         	aci  "needproj",8
    000121  aa  160 162 157 152
    000122  aa  107 154 157 147         	acc  "login: syntax is ""login Person.NewDefaultProj -change_default_project."""
    000123  aa  151 156 072 040
    000124  aa  163 171 156 164
    000125  aa  141 170 040 151
    000126  aa  163 040 042 154
    000127  aa  157 147 151 156
    000130  aa  040 120 145 162
    000131  aa  163 157 156 056
    000132  aa  116 145 167 104
    000133  aa  145 146 141 165
    000134  aa  154 164 120 162
    000135  aa  157 152 040 055
    000136  aa  143 150 141 156
    000137  aa  147 145 137 144
    000140  aa  145 146 141 165
    000141  aa  154 164 137 160
    000142  aa  162 157 152 145
    000143  aa  143 164 056 042

                                    94   ec  no_connect_aclass,nconacls,(Your disconnected process^[ #^d^] is not accessible from a terminal channel of this access class.)
                        000015          	segdef  no_connect_aclass
    000015  a0   077777 000146
    000144  aa  156 143 157 156         	aci  "nconacls",8
    000145  aa  141 143 154 163
    000146  aa  141 131 157 165         	acc  "Your disconnected process^[ #^d^] is not accessible from a terminal channel of this access class."
    000147  aa  162 040 144 151
    000150  aa  163 143 157 156
    000151  aa  156 145 143 164
    000152  aa  145 144 040 160
    000153  aa  162 157 143 145
    000154  aa  163 163 136 133
    000155  aa  040 043 136 144
    000156  aa  136 135 040 151
    000157  aa  163 040 156 157
    000160  aa  164 040 141 143
    000161  aa  143 145 163 163
    000162  aa  151 142 154 145
    000163  aa  040 146 162 157
    000164  aa  155 040 141 040
    000165  aa  164 145 162 155
    000166  aa  151 156 141 154
    000167  aa  040 143 150 141
    000170  aa  156 156 145 154
    000171  aa  040 157 146 040
    000172  aa  164 150 151 163
    000173  aa  040 141 143 143
    000174  aa  145 163 163 040
    000175  aa  143 154 141 163
    000176  aa  163 056 000 000

                                    95   ec  no_create_aclass,ncracls,(You cannot create a process of the requested authorization from this terminal channel.)
                        000016          	segdef  no_create_aclass
    000016  a0   077777 000201
    000177  aa  156 143 162 141         	aci  "ncracls",8
    000200  aa  143 154 163 040
    000201  aa  126 131 157 165         	acc  "You cannot create a process of the requested authorization from this terminal channel."
    000202  aa  040 143 141 156
    000203  aa  156 157 164 040
    000204  aa  143 162 145 141
    000205  aa  164 145 040 141
    000206  aa  040 160 162 157
    000207  aa  143 145 163 163
    000210  aa  040 157 146 040
    000211  aa  164 150 145 040
    000212  aa  162 145 161 165
    000213  aa  145 163 164 145
    000214  aa  144 040 141 165
    000215  aa  164 150 157 162
    000216  aa  151 172 141 164
    000217  aa  151 157 156 040
    000220  aa  146 162 157 155
    000221  aa  040 164 150 151
    000222  aa  163 040 164 145
    000223  aa  162 155 151 156
    000224  aa  141 154 040 143
    000225  aa  150 141 156 156
    000226  aa  145 154 056 000

                                    96   ec  no_login_arg_msg,nolgarg,(login: Expected argument missing, after ""^a"".)
                        000017          	segdef  no_login_arg_msg
    000017  a0   077777 000231
    000227  aa  156 157 154 147         	aci  "nolgarg",8
    000230  aa  141 162 147 040
    000231  aa  055 154 157 147         	acc  "login: Expected argument missing, after ""^a""."
    000232  aa  151 156 072 040
    000233  aa  105 170 160 145
    000234  aa  143 164 145 144
    000235  aa  040 141 162 147
    000236  aa  165 155 145 156
    000237  aa  164 040 155 151
    000240  aa  163 163 151 156
    000241  aa  147 054 040 141
    000242  aa  146 164 145 162
    000243  aa  040 042 136 141
    000244  aa  042 056 000 000

                                    97   ec  only_one_connect_etc,oneconn,(login: Only one of the arguments: -list, -create, -connect, -new_proc, -destroy can be given.)
                        000020          	segdef  only_one_connect_etc
    000020  a0   077777 000247
    000245  aa  157 156 145 143         	aci  "oneconn",8
    000246  aa  157 156 156 040
    000247  aa  135 154 157 147         	acc  "login: Only one of the arguments: -list, -create, -connect, -new_proc, -destroy can be given."
    000250  aa  151 156 072 040
    000251  aa  117 156 154 171
    000252  aa  040 157 156 145
    000253  aa  040 157 146 040
    000254  aa  164 150 145 040
    000255  aa  141 162 147 165
    000256  aa  155 145 156 164
    000257  aa  163 072 040 055
    000260  aa  154 151 163 164
    000261  aa  054 040 055 143
    000262  aa  162 145 141 164
    000263  aa  145 054 040 055
    000264  aa  143 157 156 156
    000265  aa  145 143 164 054
    000266  aa  040 055 156 145
    000267  aa  167 137 160 162
    000270  aa  157 143 054 040
    000271  aa  055 144 145 163
    000272  aa  164 162 157 171
    000273  aa  040 143 141 156
    000274  aa  040 142 145 040
    000275  aa  147 151 166 145
    000276  aa  156 056 000 000

                                    98   ec  only_one_hold_no_hold,onehold,(login: Only one of the arguments: -hold, -no_hold can be given.)
                        000021          	segdef  only_one_hold_no_hold
    000021  a0   077777 000301
    000277  aa  157 156 145 150         	aci  "onehold",8
    000300  aa  157 154 144 040
    000301  aa  077 154 157 147         	acc  "login: Only one of the arguments: -hold, -no_hold can be given."
    000302  aa  151 156 072 040
    000303  aa  117 156 154 171
    000304  aa  040 157 156 145
    000305  aa  040 157 146 040
    000306  aa  164 150 145 040
    000307  aa  141 162 147 165
    000310  aa  155 145 156 164
    000311  aa  163 072 040 055
    000312  aa  150 157 154 144
    000313  aa  054 040 055 156
    000314  aa  157 137 150 157
    000315  aa  154 144 040 143
    000316  aa  141 156 040 142
    000317  aa  145 040 147 151
    000320  aa  166 145 156 056

                                    99   ec  only_one_save_nosave,onesave,(login: Only one of the arguments: -save_on_disconnect, -no_save_on_disconnect can be given.)
                        000022          	segdef  only_one_save_nosave
    000022  a0   077777 000323
    000321  aa  157 156 145 163         	aci  "onesave",8
    000322  aa  141 166 145 040
    000323  aa  133 154 157 147         	acc  "login: Only one of the arguments: -save_on_disconnect, -no_save_on_disconnect can be given."
    000324  aa  151 156 072 040
    000325  aa  117 156 154 171
    000326  aa  040 157 156 145
    000327  aa  040 157 146 040
    000330  aa  164 150 145 040
    000331  aa  141 162 147 165
    000332  aa  155 145 156 164
    000333  aa  163 072 040 055
    000334  aa  163 141 166 145
    000335  aa  137 157 156 137
    000336  aa  144 151 163 143
    000337  aa  157 156 156 145
    000340  aa  143 164 054 040
    000341  aa  055 156 157 137
    000342  aa  163 141 166 145
    000343  aa  137 157 156 137
    000344  aa  144 151 163 143
    000345  aa  157 156 156 145
    000346  aa  143 164 040 143
    000347  aa  141 156 040 142
    000350  aa  145 040 147 151
    000351  aa  166 145 156 056

                                   100   ec  pw_format_warning,pwfmtwrn,(login: Some of the characters entered as a password were ignored.)
                        000023          	segdef  pw_format_warning
    000023  a0   077777 000354
    000352  aa  160 167 146 155         	aci  "pwfmtwrn",8
    000353  aa  164 167 162 156
    000354  aa  101 154 157 147         	acc  "login: Some of the characters entered as a password were ignored."
    000355  aa  151 156 072 040
    000356  aa  123 157 155 145
    000357  aa  040 157 146 040
    000360  aa  164 150 145 040
    000361  aa  143 150 141 162
    000362  aa  141 143 164 145
    000363  aa  162 163 040 145
    000364  aa  156 164 145 162
    000365  aa  145 144 040 141
    000366  aa  163 040 141 040
    000367  aa  160 141 163 163
    000370  aa  167 157 162 144
    000371  aa  040 167 145 162
    000372  aa  145 040 151 147
    000373  aa  156 157 162 145
    000374  aa  144 056 000 000

                                   101   ec  unrecognized_device,baddevc,(login: Unrecognized terminal type ""^a"".)
                        000024          	segdef  unrecognized_device
    000024  a0   077777 000377
    000375  aa  142 141 144 144         	aci  "baddevc",8
    000376  aa  145 166 143 040
    000377  aa  047 154 157 147         	acc  "login: Unrecognized terminal type ""^a""."
    000400  aa  151 156 072 040
    000401  aa  125 156 162 145
    000402  aa  143 157 147 156
    000403  aa  151 172 145 144
    000404  aa  040 164 145 162
    000405  aa  155 151 156 141
    000406  aa  154 040 164 171
    000407  aa  160 145 040 042
    000410  aa  136 141 042 056

                                   102
                                   103
                                   104  "  Messages produced by lg_ctl_ and uc_login_
                                   105
                                   106   ec  already_in_msg,already,(^a.^a already logged in from ^a terminal ""^a"".)
                        000025          	segdef  already_in_msg
    000025  a0   077777 000413
    000411  aa  141 154 162 145         	aci  "already",8
    000412  aa  141 144 171 040
    000413  aa  056 136 141 056         	acc  "^a.^a already logged in from ^a terminal ""^a""."
    000414  aa  136 141 040 141
    000415  aa  154 162 145 141
    000416  aa  144 171 040 154
    000417  aa  157 147 147 145
    000420  aa  144 040 151 156
    000421  aa  040 146 162 157
    000422  aa  155 040 136 141
    000423  aa  040 164 145 162
    000424  aa  155 151 156 141
    000425  aa  154 040 042 136
    000426  aa  141 042 056 000

                                   107   ec  already_in_notify_msg,alrdynt,(Another ^a (^a.^a) is now logging in from ^a terminal ""^a"".)
                        000026          	segdef  already_in_notify_msg
    000026  a0   077777 000431
    000427  aa  141 154 162 144         	aci  "alrdynt",8
    000430  aa  171 156 164 040
    000431  aa  073 101 156 157         	acc  "Another ^a (^a.^a) is now logging in from ^a terminal ""^a""."
    000432  aa  164 150 145 162
    000433  aa  040 136 141 040
    000434  aa  050 136 141 056
    000435  aa  136 141 051 040
    000436  aa  151 163 040 156
    000437  aa  157 167 040 154
    000440  aa  157 147 147 151
    000441  aa  156 147 040 151
    000442  aa  156 040 146 162
    000443  aa  157 155 040 136
    000444  aa  141 040 164 145
    000445  aa  162 155 151 156
    000446  aa  141 154 040 042
    000447  aa  136 141 042 056

                                   108   ec  already_in_warn_msg,alrdy,(Attempt to log in ^s^a.^a from ^a terminal ""^a"".)
                        000027          	segdef  already_in_warn_msg
    000027  a0   077777 000452
    000450  aa  141 154 162 144         	aci  "alrdy",8
    000451  aa  171 040 040 040
    000452  aa  060 101 164 164         	acc  "Attempt to log in ^s^a.^a from ^a terminal ""^a""."
    000453  aa  145 155 160 164
    000454  aa  040 164 157 040
    000455  aa  154 157 147 040
    000456  aa  151 156 040 136
    000457  aa  163 136 141 056
    000460  aa  136 141 040 146
    000461  aa  162 157 155 040
    000462  aa  136 141 040 164
    000463  aa  145 162 155 151
    000464  aa  156 141 154 040
    000465  aa  042 136 141 042
    000466  aa  056 000 000 000

                                   109   ec  bad_anon_pw,anon_pw,(Incorrect password supplied.) " security
                        000030          	segdef  bad_anon_pw
    000030  a0   077777 000471
    000467  aa  141 156 157 156         	aci  "anon_pw",8
    000470  aa  137 160 167 040
    000471  aa  034 111 156 143         	acc  "Incorrect password supplied."
    000472  aa  157 162 162 145
    000473  aa  143 164 040 160
    000474  aa  141 163 163 167
    000475  aa  157 162 144 040
    000476  aa  163 165 160 160
    000477  aa  154 151 145 144
    000500  aa  056 000 000 000

                                   110   ec  bad_password,bad_pass,(Incorrect password supplied.) " security
                        000031          	segdef  bad_password
    000031  a0   077777 000503
    000501  aa  142 141 144 137         	aci  "bad_pass",8
    000502  aa  160 141 163 163
    000503  aa  034 111 156 143         	acc  "Incorrect password supplied."
    000504  aa  157 162 162 145
    000505  aa  143 164 040 160
    000506  aa  141 163 163 167
    000507  aa  157 162 144 040
    000510  aa  163 165 160 160
    000511  aa  154 151 145 144
    000512  aa  056 000 000 000

                                   111   ec  bad_personid,badpers,(The user name you supplied is not registered.) " security
                        000032          	segdef  bad_personid
    000032  a0   077777 000515
    000513  aa  142 141 144 160         	aci  "badpers",8
    000514  aa  145 162 163 040
    000515  aa  055 124 150 145         	acc  "The user name you supplied is not registered."
    000516  aa  040 165 163 145
    000517  aa  162 040 156 141
    000520  aa  155 145 040 171
    000521  aa  157 165 040 163
    000522  aa  165 160 160 154
    000523  aa  151 145 144 040
    000524  aa  151 163 040 156
    000525  aa  157 164 040 162
    000526  aa  145 147 151 163
    000527  aa  164 145 162 145
    000530  aa  144 056 000 000

                                   112   ec  bad_project,bad_proj,(Specified project does not exist.) " security
                        000033          	segdef  bad_project
    000033  a0   077777 000533
    000531  aa  142 141 144 137         	aci  "bad_proj",8
    000532  aa  160 162 157 152
    000533  aa  041 123 160 145         	acc  "Specified project does not exist."
    000534  aa  143 151 146 151
    000535  aa  145 144 040 160
    000536  aa  162 157 152 145
    000537  aa  143 164 040 144
    000540  aa  157 145 163 040
    000541  aa  156 157 164 040
    000542  aa  145 170 151 163
    000543  aa  164 056 000 000

                                   113   ec  breach,breach,(Security breach.  Please contact administrative personnel.) " security
                        000034          	segdef  breach
    000034  a0   077777 000546
    000544  aa  142 162 145 141         	aci  "breach",8
    000545  aa  143 150 040 040
    000546  aa  072 123 145 143         	acc  "Security breach.  Please contact administrative personnel."
    000547  aa  165 162 151 164
    000550  aa  171 040 142 162
    000551  aa  145 141 143 150
    000552  aa  056 040 040 120
    000553  aa  154 145 141 163
    000554  aa  145 040 143 157
    000555  aa  156 164 141 143
    000556  aa  164 040 141 144
    000557  aa  155 151 156 151
    000560  aa  163 164 162 141
    000561  aa  164 151 166 145
    000562  aa  040 160 145 162
    000563  aa  163 157 156 156
    000564  aa  145 154 056 000

                                   114   ec  breach_msg,brchmsg,(Physical breach of security by ^a.^a from ^a (^a terminal ^a).)
                        000035          	segdef  breach_msg
    000035  a0   077777 000567
    000565  aa  142 162 143 150         	aci  "brchmsg",8
    000566  aa  155 163 147 040
    000567  aa  076 120 150 171         	acc  "Physical breach of security by ^a.^a from ^a (^a terminal ^a)."
    000570  aa  163 151 143 141
    000571  aa  154 040 142 162
    000572  aa  145 141 143 150
    000573  aa  040 157 146 040
    000574  aa  163 145 143 165
    000575  aa  162 151 164 171
    000576  aa  040 142 171 040
    000577  aa  136 141 056 136
    000600  aa  141 040 146 162
    000601  aa  157 155 040 136
    000602  aa  141 040 050 136
    000603  aa  141 040 164 145
    000604  aa  162 155 151 156
    000605  aa  141 154 040 136
    000606  aa  141 051 056 000

                                   115   ec  cant_give_dft_auth,cantdfta,(You cannot login at your default authorization.)
                        000036          	segdef  cant_give_dft_auth
    000036  a0   077777 000611
    000607  aa  143 141 156 164         	aci  "cantdfta",8
    000610  aa  144 146 164 141
    000611  aa  057 131 157 165         	acc  "You cannot login at your default authorization."
    000612  aa  040 143 141 156
    000613  aa  156 157 164 040
    000614  aa  154 157 147 151
    000615  aa  156 040 141 164
    000616  aa  040 171 157 165
    000617  aa  162 040 144 145
    000620  aa  146 141 165 154
    000621  aa  164 040 141 165
    000622  aa  164 150 157 162
    000623  aa  151 172 141 164
    000624  aa  151 157 156 056

                                   116   ec  cant_give_that_authorization,cantauth,(You cannot login at the requested authorization.)
                        000037          	segdef  cant_give_that_authorization
    000037  a0   077777 000627
    000625  aa  143 141 156 164         	aci  "cantauth",8
    000626  aa  141 165 164 150
    000627  aa  060 131 157 165         	acc  "You cannot login at the requested authorization."
    000630  aa  040 143 141 156
    000631  aa  156 157 164 040
    000632  aa  154 157 147 151
    000633  aa  156 040 141 164
    000634  aa  040 164 150 145
    000635  aa  040 162 145 161
    000636  aa  165 145 163 164
    000637  aa  145 144 040 141
    000640  aa  165 164 150 157
    000641  aa  162 151 172 141
    000642  aa  164 151 157 156
    000643  aa  056 000 000 000

                                   117   ec  dft_auth_changed,da_chgd,(Default authorization changed.)
                        000040          	segdef  dft_auth_changed
    000040  a0   077777 000646
    000644  aa  144 141 137 143         	aci  "da_chgd",8
    000645  aa  150 147 144 040
    000646  aa  036 104 145 146         	acc  "Default authorization changed."
    000647  aa  141 165 154 164
    000650  aa  040 141 165 164
    000651  aa  150 157 162 151
    000652  aa  172 141 164 151
    000653  aa  157 156 040 143
    000654  aa  150 141 156 147
    000655  aa  145 144 056 000

                                   118   ec  dft_proj_changed,dp_chgd,(Default project changed.)
                        000041          	segdef  dft_proj_changed
    000041  a0   077777 000660
    000656  aa  144 160 137 143         	aci  "dp_chgd",8
    000657  aa  150 147 144 040
    000660  aa  030 104 145 146         	acc  "Default project changed."
    000661  aa  141 165 154 164
    000662  aa  040 160 162 157
    000663  aa  152 145 143 164
    000664  aa  040 143 150 141
    000665  aa  156 147 145 144
    000666  aa  056 000 000 000

                                   119   ec  ds_user_ignored,dsuser_x,(No access check is required for this channel. The -user control argument is ignored.)
                        000042          	segdef  ds_user_ignored
    000042  a0   077777 000671
    000667  aa  144 163 165 163         	aci  "dsuser_x",8
    000670  aa  145 162 137 170
    000671  aa  124 116 157 040         	acc  "No access check is required for this channel. The -user control argument is ignored."
    000672  aa  141 143 143 145
    000673  aa  163 163 040 143
    000674  aa  150 145 143 153
    000675  aa  040 151 163 040
    000676  aa  162 145 161 165
    000677  aa  151 162 145 144
    000700  aa  040 146 157 162
    000701  aa  040 164 150 151
    000702  aa  163 040 143 150
    000703  aa  141 156 156 145
    000704  aa  154 056 040 124
    000705  aa  150 145 040 055
    000706  aa  165 163 145 162
    000707  aa  040 143 157 156
    000710  aa  164 162 157 154
    000711  aa  040 141 162 147
    000712  aa  165 155 145 156
    000713  aa  164 040 151 163
    000714  aa  040 151 147 156
    000715  aa  157 162 145 144
    000716  aa  056 000 000 000

                                   120   ec  ds_user_required,dsuser_r,(You must use the control argument -user Person.Project for this channel.)
                        000043          	segdef  ds_user_required
    000043  a0   077777 000721
    000717  aa  144 163 165 163         	aci  "dsuser_r",8
    000720  aa  145 162 137 162
    000721  aa  110 131 157 165         	acc  "You must use the control argument -user Person.Project for this channel."
    000722  aa  040 155 165 163
    000723  aa  164 040 165 163
    000724  aa  145 040 164 150
    000725  aa  145 040 143 157
    000726  aa  156 164 162 157
    000727  aa  154 040 141 162
    000730  aa  147 165 155 145
    000731  aa  156 164 040 055
    000732  aa  165 163 145 162
    000733  aa  040 120 145 162
    000734  aa  163 157 156 056
    000735  aa  120 162 157 152
    000736  aa  145 143 164 040
    000737  aa  146 157 162 040
    000740  aa  164 150 151 163
    000741  aa  040 143 150 141
    000742  aa  156 156 145 154
    000743  aa  056 000 000 000

                                   121   ec  illegal_hd_arg,illhd,(You do not have permission to use the ""-home_dir"" argument.)
                        000044          	segdef  illegal_hd_arg
    000044  a0   077777 000746
    000744  aa  151 154 154 150         	aci  "illhd",8
    000745  aa  144 040 040 040
    000746  aa  073 131 157 165         	acc  "You do not have permission to use the ""-home_dir"" argument."
    000747  aa  040 144 157 040
    000750  aa  156 157 164 040
    000751  aa  150 141 166 145
    000752  aa  040 160 145 162
    000753  aa  155 151 163 163
    000754  aa  151 157 156 040
    000755  aa  164 157 040 165
    000756  aa  163 145 040 164
    000757  aa  150 145 040 042
    000760  aa  055 150 157 155
    000761  aa  145 137 144 151
    000762  aa  162 042 040 141
    000763  aa  162 147 165 155
    000764  aa  145 156 164 056

                                   122   ec  illegal_ip_arg,illip,(You do not have permission to use the ""-process_overseer"" argument.)
                        000045          	segdef  illegal_ip_arg
    000045  a0   077777 000767
    000765  aa  151 154 154 151         	aci  "illip",8
    000766  aa  160 040 040 040
    000767  aa  103 131 157 165         	acc  "You do not have permission to use the ""-process_overseer"" argument."
    000770  aa  040 144 157 040
    000771  aa  156 157 164 040
    000772  aa  150 141 166 145
    000773  aa  040 160 145 162
    000774  aa  155 151 163 163
    000775  aa  151 157 156 040
    000776  aa  164 157 040 165
    000777  aa  163 145 040 164
    001000  aa  150 145 040 042
    001001  aa  055 160 162 157
    001002  aa  143 145 163 163
    001003  aa  137 157 166 145
    001004  aa  162 163 145 145
    001005  aa  162 042 040 141
    001006  aa  162 147 165 155
    001007  aa  145 156 164 056

                                   123   ec  illegal_om_arg,illom,(You do not have permission to use the ""-outer_module"" argument.)
                        000046          	segdef  illegal_om_arg
    000046  a0   077777 001012
    001010  aa  151 154 154 157         	aci  "illom",8
    001011  aa  155 040 040 040
    001012  aa  077 131 157 165         	acc  "You do not have permission to use the ""-outer_module"" argument."
    001013  aa  040 144 157 040
    001014  aa  156 157 164 040
    001015  aa  150 141 166 145
    001016  aa  040 160 145 162
    001017  aa  155 151 163 163
    001020  aa  151 157 156 040
    001021  aa  164 157 040 165
    001022  aa  163 145 040 164
    001023  aa  150 145 040 042
    001024  aa  055 157 165 164
    001025  aa  145 162 137 155
    001026  aa  157 144 165 154
    001027  aa  145 042 040 141
    001030  aa  162 147 165 155
    001031  aa  145 156 164 056

                                   124   ec  illegal_save_arg,illsave,(You do not have permission to use the ""-save_on_disconnect"" argument.)
                        000047          	segdef  illegal_save_arg
    000047  a0   077777 001034
    001032  aa  151 154 154 163         	aci  "illsave",8
    001033  aa  141 166 145 040
    001034  aa  105 131 157 165         	acc  "You do not have permission to use the ""-save_on_disconnect"" argument."
    001035  aa  040 144 157 040
    001036  aa  156 157 164 040
    001037  aa  150 141 166 145
    001040  aa  040 160 145 162
    001041  aa  155 151 163 163
    001042  aa  151 157 156 040
    001043  aa  164 157 040 165
    001044  aa  163 145 040 164
    001045  aa  150 145 040 042
    001046  aa  055 163 141 166
    001047  aa  145 137 157 156
    001050  aa  137 144 151 163
    001051  aa  143 157 156 156
    001052  aa  145 143 164 042
    001053  aa  040 141 162 147
    001054  aa  165 155 145 156
    001055  aa  164 056 000 000

                                   125   ec  illegal_ss_arg,illss,(You do not have permission to use the ""-subsystem"" argument.)
                        000050          	segdef  illegal_ss_arg
    000050  a0   077777 001060
    001056  aa  151 154 154 163         	aci  "illss",8
    001057  aa  163 040 040 040
    001060  aa  074 131 157 165         	acc  "You do not have permission to use the ""-subsystem"" argument."
    001061  aa  040 144 157 040
    001062  aa  156 157 164 040
    001063  aa  150 141 166 145
    001064  aa  040 160 145 162
    001065  aa  155 151 163 163
    001066  aa  151 157 156 040
    001067  aa  164 157 040 165
    001070  aa  163 145 040 164
    001071  aa  150 145 040 042
    001072  aa  055 163 165 142
    001073  aa  163 171 163 164
    001074  aa  145 155 042 040
    001075  aa  141 162 147 165
    001076  aa  155 145 156 164
    001077  aa  056 000 000 000

                                   126   ec  last_login_msg,lliwas,(Last login ^a from ^a terminal ""^a"".)
                        000051          	segdef  last_login_msg
    000051  a0   077777 001102
    001100  aa  154 154 151 167         	aci  "lliwas",8
    001101  aa  141 163 040 040
    001102  aa  044 114 141 163         	acc  "Last login ^a from ^a terminal ""^a""."
    001103  aa  164 040 154 157
    001104  aa  147 151 156 040
    001105  aa  136 141 040 146
    001106  aa  162 157 155 040
    001107  aa  136 141 040 164
    001110  aa  145 162 155 151
    001111  aa  156 141 154 040
    001112  aa  042 136 141 042
    001113  aa  056 000 000 000

                                   127   ec  login_anon_msg,logina,(Anonymous user ^a.^a logged in ^a from ^a terminal ""^a"".)
                        000052          	segdef  login_anon_msg
    000052  a0   077777 001116
    001114  aa  154 157 147 151         	aci  "logina",8
    001115  aa  156 141 040 040
    001116  aa  070 101 156 157         	acc  "Anonymous user ^a.^a logged in ^a from ^a terminal ""^a""."
    001117  aa  156 171 155 157
    001120  aa  165 163 040 165
    001121  aa  163 145 162 040
    001122  aa  136 141 056 136
    001123  aa  141 040 154 157
    001124  aa  147 147 145 144
    001125  aa  040 151 156 040
    001126  aa  136 141 040 146
    001127  aa  162 157 155 040
    001130  aa  136 141 040 164
    001131  aa  145 162 155 151
    001132  aa  156 141 154 040
    001133  aa  042 136 141 042
    001134  aa  056 000 000 000

                                   128   ec  login_auth_msg,loginath,(******^/Your authorization is ^a.^/******)
                        000053          	segdef  login_auth_msg
    000053  a0   077777 001137
    001135  aa  154 157 147 151         	aci  "loginath",8
    001136  aa  156 141 164 150
    001137  aa  051 052 052 052         	acc  "******^/Your authorization is ^a.^/******"
    001140  aa  052 052 052 136
    001141  aa  057 131 157 165
    001142  aa  162 040 141 165
    001143  aa  164 150 157 162
    001144  aa  151 172 141 164
    001145  aa  151 157 156 040
    001146  aa  151 163 040 136
    001147  aa  141 056 136 057
    001150  aa  052 052 052 052
    001151  aa  052 052 000 000

                                   129   ec  login_msg,login,(^a.^a logged in ^a from ^a terminal ""^a"".)
                        000054          	segdef  login_msg
    000054  a0   077777 001154
    001152  aa  154 157 147 151         	aci  "login",8
    001153  aa  156 040 040 040
    001154  aa  051 136 141 056         	acc  "^a.^a logged in ^a from ^a terminal ""^a""."
    001155  aa  136 141 040 154
    001156  aa  157 147 147 145
    001157  aa  144 040 151 156
    001160  aa  040 136 141 040
    001161  aa  146 162 157 155
    001162  aa  040 136 141 040
    001163  aa  164 145 162 155
    001164  aa  151 156 141 154
    001165  aa  040 042 136 141
    001166  aa  042 056 000 000

                                   130   ec  long_ip_arg,longip,(Argument to ""-process_overseer"" may not exceed 64 characters.)
                        000055          	segdef  long_ip_arg
    000055  a0   077777 001171
    001167  aa  154 157 156 147         	aci  "longip",8
    001170  aa  151 160 040 040
    001171  aa  075 101 162 147         	acc  "Argument to ""-process_overseer"" may not exceed 64 characters."
    001172  aa  165 155 145 156
    001173  aa  164 040 164 157
    001174  aa  040 042 055 160
    001175  aa  162 157 143 145
    001176  aa  163 163 137 157
    001177  aa  166 145 162 163
    001200  aa  145 145 162 042
    001201  aa  040 155 141 171
    001202  aa  040 156 157 164
    001203  aa  040 145 170 143
    001204  aa  145 145 144 040
    001205  aa  066 064 040 143
    001206  aa  150 141 162 141
    001207  aa  143 164 145 162
    001210  aa  163 056 000 000

                                   131   ec  long_ss_arg,longss,(Argument to ""-subsystem"" may not exceed 64 characters.)
                        000056          	segdef  long_ss_arg
    000056  a0   077777 001213
    001211  aa  154 157 156 147         	aci  "longss",8
    001212  aa  163 163 040 040
    001213  aa  066 101 162 147         	acc  "Argument to ""-subsystem"" may not exceed 64 characters."
    001214  aa  165 155 145 156
    001215  aa  164 040 164 157
    001216  aa  040 042 055 163
    001217  aa  165 142 163 171
    001220  aa  163 164 145 155
    001221  aa  042 040 155 141
    001222  aa  171 040 156 157
    001223  aa  164 040 145 170
    001224  aa  143 145 145 144
    001225  aa  040 066 064 040
    001226  aa  143 150 141 162
    001227  aa  141 143 164 145
    001230  aa  162 163 056 000

                                   132   ec  multiple_login_msg,multlogn,(This is your ^d^a interactive login instance.)
                        000057          	segdef  multiple_login_msg
    000057  a0   077777 001233
    001231  aa  155 165 154 164         	aci  "multlogn",8
    001232  aa  154 157 147 156
    001233  aa  055 124 150 151         	acc  "This is your ^d^a interactive login instance."
    001234  aa  163 040 151 163
    001235  aa  040 171 157 165
    001236  aa  162 040 136 144
    001237  aa  136 141 040 151
    001240  aa  156 164 145 162
    001241  aa  141 143 164 151
    001242  aa  166 145 040 154
    001243  aa  157 147 151 156
    001244  aa  040 151 156 163
    001245  aa  164 141 156 143
    001246  aa  145 056 000 000

                                   133   ec  must_change,mustcpw,(You must use the -change_password option to change your password.)
                        000060          	segdef  must_change
    000060  a0   077777 001251
    001247  aa  155 165 163 164         	aci  "mustcpw",8
    001250  aa  143 160 167 040
    001251  aa  101 131 157 165         	acc  "You must use the -change_password option to change your password."
    001252  aa  040 155 165 163
    001253  aa  164 040 165 163
    001254  aa  145 040 164 150
    001255  aa  145 040 055 143
    001256  aa  150 141 156 147
    001257  aa  145 137 160 141
    001260  aa  163 163 167 157
    001261  aa  162 144 040 157
    001262  aa  160 164 151 157
    001263  aa  156 040 164 157
    001264  aa  040 143 150 141
    001265  aa  156 147 145 040
    001266  aa  171 157 165 162
    001267  aa  040 160 141 163
    001270  aa  163 167 157 162
    001271  aa  144 056 000 000

                                   134   ec  must_use_generate_pw,use_gpw,(Login incorrect. You must use the -generate_password option to change your password.)
                        000061          	segdef  must_use_generate_pw
    000061  a0   077777 001274
    001272  aa  165 163 145 137         	aci  "use_gpw",8
    001273  aa  147 160 167 040
    001274  aa  124 114 157 147         	acc  "Login incorrect. You must use the -generate_password option to change your password."
    001275  aa  151 156 040 151
    001276  aa  156 143 157 162
    001277  aa  162 145 143 164
    001300  aa  056 040 131 157
    001301  aa  165 040 155 165
    001302  aa  163 164 040 165
    001303  aa  163 145 040 164
    001304  aa  150 145 040 055
    001305  aa  147 145 156 145
    001306  aa  162 141 164 145
    001307  aa  137 160 141 163
    001310  aa  163 167 157 162
    001311  aa  144 040 157 160
    001312  aa  164 151 157 156
    001313  aa  040 164 157 040
    001314  aa  143 150 141 156
    001315  aa  147 145 040 171
    001316  aa  157 165 162 040
    001317  aa  160 141 163 163
    001320  aa  167 157 162 144
    001321  aa  056 000 000 000

                                   135   ec  n_disconnected_procs_msg,ndiscon,(You have ^d disconnected process^[es^].)
                        000062          	segdef  n_disconnected_procs_msg
    000062  a0   077777 001324
    001322  aa  156 144 151 163         	aci  "ndiscon",8
    001323  aa  143 157 156 040
    001324  aa  047 131 157 165         	acc  "You have ^d disconnected process^[es^]."
    001325  aa  040 150 141 166
    001326  aa  145 040 136 144
    001327  aa  040 144 151 163
    001330  aa  143 157 156 156
    001331  aa  145 143 164 145
    001332  aa  144 040 160 162
    001333  aa  157 143 145 163
    001334  aa  163 136 133 145
    001335  aa  163 136 135 056

                                   136   ec  no_change,no_chnge,(Change privilege denied. Contact User Accounts.)
                        000063          	segdef  no_change
    000063  a0   077777 001340
    001336  aa  156 157 137 143         	aci  "no_chnge",8
    001337  aa  150 156 147 145
    001340  aa  057 103 150 141         	acc  "Change privilege denied. Contact User Accounts."
    001341  aa  156 147 145 040
    001342  aa  160 162 151 166
    001343  aa  151 154 145 147
    001344  aa  145 040 144 145
    001345  aa  156 151 145 144
    001346  aa  056 040 103 157
    001347  aa  156 164 141 143
    001350  aa  164 040 125 163
    001351  aa  145 162 040 101
    001352  aa  143 143 157 165
    001353  aa  156 164 163 056

                                   137   ec  no_daemon_bit,non_daem,(Permission to login as a daemon has not been granted.)
                        000064          	segdef  no_daemon_bit
    000064  a0   077777 001356
    001354  aa  156 157 156 137         	aci  "non_daem",8
    001355  aa  144 141 145 155
    001356  aa  065 120 145 162         	acc  "Permission to login as a daemon has not been granted."
    001357  aa  155 151 163 163
    001360  aa  151 157 156 040
    001361  aa  164 157 040 154
    001362  aa  157 147 151 156
    001363  aa  040 141 163 040
    001364  aa  141 040 144 141
    001365  aa  145 155 157 156
    001366  aa  040 150 141 163
    001367  aa  040 156 157 164
    001370  aa  040 142 145 145
    001371  aa  156 040 147 162
    001372  aa  141 156 164 145
    001373  aa  144 056 000 000

                                   138   ec  no_disconnected_procs,nodiscon,(You have no disconnected processes.)
                        000065          	segdef  no_disconnected_procs
    000065  a0   077777 001376
    001374  aa  156 157 144 151         	aci  "nodiscon",8
    001375  aa  163 143 157 156
    001376  aa  043 131 157 165         	acc  "You have no disconnected processes."
    001377  aa  040 150 141 166
    001400  aa  145 040 156 157
    001401  aa  040 144 151 163
    001402  aa  143 157 156 156
    001403  aa  145 143 164 145
    001404  aa  144 040 160 162
    001405  aa  157 143 145 163
    001406  aa  163 145 163 056

                                   139   ec  no_home_dir,hd_make,(Home directory missing. Contact your project administrator.)
                        000066          	segdef  no_home_dir
    000066  a0   077777 001411
    001407  aa  150 144 137 155         	aci  "hd_make",8
    001410  aa  141 153 145 040
    001411  aa  073 110 157 155         	acc  "Home directory missing. Contact your project administrator."
    001412  aa  145 040 144 151
    001413  aa  162 145 143 164
    001414  aa  157 162 171 040
    001415  aa  155 151 163 163
    001416  aa  151 156 147 056
    001417  aa  040 103 157 156
    001420  aa  164 141 143 164
    001421  aa  040 171 157 165
    001422  aa  162 040 160 162
    001423  aa  157 152 145 143
    001424  aa  164 040 141 144
    001425  aa  155 151 156 151
    001426  aa  163 164 162 141
    001427  aa  164 157 162 056

                                   140   ec  no_line_permission,^lineacs,(You do not have permission to use this channel.)
                        000067          	segdef  no_line_permission
    000067  a0   077777 001432
    001430  aa  136 154 151 156         	aci  "^lineacs",8
    001431  aa  145 141 143 163
    001432  aa  057 131 157 165         	acc  "You do not have permission to use this channel."
    001433  aa  040 144 157 040
    001434  aa  156 157 164 040
    001435  aa  150 141 166 145
    001436  aa  040 160 145 162
    001437  aa  155 151 163 163
    001440  aa  151 157 156 040
    001441  aa  164 157 040 165
    001442  aa  163 145 040 164
    001443  aa  150 151 163 040
    001444  aa  143 150 141 156
    001445  aa  156 145 154 056

                                   141   ec  no_name,no_name,(Expected argument missing. User name not supplied.)
                        000070          	segdef  no_name
    000070  a0   077777 001450
    001446  aa  156 157 137 156         	aci  "no_name",8
    001447  aa  141 155 145 040
    001450  aa  062 105 170 160         	acc  "Expected argument missing. User name not supplied."
    001451  aa  145 143 164 145
    001452  aa  144 040 141 162
    001453  aa  147 165 155 145
    001454  aa  156 164 040 155
    001455  aa  151 163 163 151
    001456  aa  156 147 056 040
    001457  aa  125 163 145 162
    001460  aa  040 156 141 155
    001461  aa  145 040 156 157
    001462  aa  164 040 163 165
    001463  aa  160 160 154 151
    001464  aa  145 144 056 000

                                   142   ec  not_in_pdt,not_pdt,(You are not registered on the specified project.) " security
                        000071          	segdef  not_in_pdt
    000071  a0   077777 001467
    001465  aa  156 157 164 137         	aci  "not_pdt",8
    001466  aa  160 144 164 040
    001467  aa  060 131 157 165         	acc  "You are not registered on the specified project."
    001470  aa  040 141 162 145
    001471  aa  040 156 157 164
    001472  aa  040 162 145 147
    001473  aa  151 163 164 145
    001474  aa  162 145 144 040
    001475  aa  157 156 040 164
    001476  aa  150 145 040 163
    001477  aa  160 145 143 151
    001500  aa  146 151 145 144
    001501  aa  040 160 162 157
    001502  aa  152 145 143 164
    001503  aa  056 000 000 000

                                   143   ec  operator_not_allowed,no_oper,(You are not allowed to log in as an operator.) " security
                        000072          	segdef  operator_not_allowed
    000072  a0   077777 001506
    001504  aa  156 157 137 157         	aci  "no_oper",8
    001505  aa  160 145 162 040
    001506  aa  055 131 157 165         	acc  "You are not allowed to log in as an operator."
    001507  aa  040 141 162 145
    001510  aa  040 156 157 164
    001511  aa  040 141 154 154
    001512  aa  157 167 145 144
    001513  aa  040 164 157 040
    001514  aa  154 157 147 040
    001515  aa  151 156 040 141
    001516  aa  163 040 141 156
    001517  aa  040 157 160 145
    001520  aa  162 141 164 157
    001521  aa  162 056 000 000

                                   144   ec  password_changed,pw_chgd,(Password changed.)
                        000073          	segdef  password_changed
    000073  a0   077777 001524
    001522  aa  160 167 137 143         	aci  "pw_chgd",8
    001523  aa  150 147 144 040
    001524  aa  021 120 141 163         	acc  "Password changed."
    001525  aa  163 167 157 162
    001526  aa  144 040 143 150
    001527  aa  141 156 147 145
    001530  aa  144 056 000 000

                                   145   ec  password_expired,pwexprd,(Password expired.  Please contact administrative personnel.) " security
                        000074          	segdef  password_expired
    000074  a0   077777 001533
    001531  aa  160 167 145 170         	aci  "pwexprd",8
    001532  aa  160 162 144 040
    001533  aa  073 120 141 163         	acc  "Password expired.  Please contact administrative personnel."
    001534  aa  163 167 157 162
    001535  aa  144 040 145 170
    001536  aa  160 151 162 145
    001537  aa  144 056 040 040
    001540  aa  120 154 145 141
    001541  aa  163 145 040 143
    001542  aa  157 156 164 141
    001543  aa  143 164 040 141
    001544  aa  144 155 151 156
    001545  aa  151 163 164 162
    001546  aa  141 164 151 166
    001547  aa  145 040 160 145
    001550  aa  162 163 157 156
    001551  aa  156 145 154 056

                                   146   ec  password_expired_msg,pw_exp,(login: Your password has expired.  It must be changed once every ^d days.) " security
                        000075          	segdef  password_expired_msg
    000075  a0   077777 001554
    001552  aa  160 167 137 145         	aci  "pw_exp",8
    001553  aa  170 160 040 040
    001554  aa  111 154 157 147         	acc  "login: Your password has expired.  It must be changed once every ^d days."
    001555  aa  151 156 072 040
    001556  aa  131 157 165 162
    001557  aa  040 160 141 163
    001560  aa  163 167 157 162
    001561  aa  144 040 150 141
    001562  aa  163 040 145 170
    001563  aa  160 151 162 145
    001564  aa  144 056 040 040
    001565  aa  111 164 040 155
    001566  aa  165 163 164 040
    001567  aa  142 145 040 143
    001570  aa  150 141 156 147
    001571  aa  145 144 040 157
    001572  aa  156 143 145 040
    001573  aa  145 166 145 162
    001574  aa  171 040 136 144
    001575  aa  040 144 141 171
    001576  aa  163 056 000 000

                                   147   ec  password_locked,pwlocked,(Password is locked.  Please contact administrative personnel.) " security
                        000076          	segdef  password_locked
    000076  a0   077777 001601
    001577  aa  160 167 154 157         	aci  "pwlocked",8
    001600  aa  143 153 145 144
    001601  aa  075 120 141 163         	acc  "Password is locked.  Please contact administrative personnel."
    001602  aa  163 167 157 162
    001603  aa  144 040 151 163
    001604  aa  040 154 157 143
    001605  aa  153 145 144 056
    001606  aa  040 040 120 154
    001607  aa  145 141 163 145
    001610  aa  040 143 157 156
    001611  aa  164 141 143 164
    001612  aa  040 141 144 155
    001613  aa  151 156 151 163
    001614  aa  164 162 141 164
    001615  aa  151 166 145 040
    001616  aa  160 145 162 163
    001617  aa  157 156 156 145
    001620  aa  154 056 000 000

                                   148   ec  password_probe1_mail_msg,probe1ml,(Password for user ^a given incorrectly from ^a terminal ""^a"".)
                        000077          	segdef  password_probe1_mail_msg
    000077  a0   077777 001623
    001621  aa  160 162 157 142         	aci  "probe1ml",8
    001622  aa  145 061 155 154
    001623  aa  075 120 141 163         	acc  "Password for user ^a given incorrectly from ^a terminal ""^a""."
    001624  aa  163 167 157 162
    001625  aa  144 040 146 157
    001626  aa  162 040 165 163
    001627  aa  145 162 040 136
    001630  aa  141 040 147 151
    001631  aa  166 145 156 040
    001632  aa  151 156 143 157
    001633  aa  162 162 145 143
    001634  aa  164 154 171 040
    001635  aa  146 162 157 155
    001636  aa  040 136 141 040
    001637  aa  164 145 162 155
    001640  aa  151 156 141 154
    001641  aa  040 042 136 141
    001642  aa  042 056 000 000

                                   149   ec  password_probe1_msg,probed1,(Your password was given incorrectly at ^a from ^a terminal ""^a"".)
                        000100          	segdef  password_probe1_msg
    000100  a0   077777 001645
    001643  aa  160 162 157 142         	aci  "probed1",8
    001644  aa  145 144 061 040
    001645  aa  100 131 157 165         	acc  "Your password was given incorrectly at ^a from ^a terminal ""^a""."
    001646  aa  162 040 160 141
    001647  aa  163 163 167 157
    001650  aa  162 144 040 167
    001651  aa  141 163 040 147
    001652  aa  151 166 145 156
    001653  aa  040 151 156 143
    001654  aa  157 162 162 145
    001655  aa  143 164 154 171
    001656  aa  040 141 164 040
    001657  aa  136 141 040 146
    001660  aa  162 157 155 040
    001661  aa  136 141 040 164
    001662  aa  145 162 155 151
    001663  aa  156 141 154 040
    001664  aa  042 136 141 042
    001665  aa  056 000 000 000

                                   150   ec  password_probe_mail_msg,probeml,(Password for user ^a given incorrectly ^d times, most recently from ^a terminal ""^a"".)
                        000101          	segdef  password_probe_mail_msg
    000101  a0   077777 001670
    001666  aa  160 162 157 142         	aci  "probeml",8
    001667  aa  145 155 154 040
    001670  aa  125 120 141 163         	acc  "Password for user ^a given incorrectly ^d times, most recently from ^a terminal ""^a""."
    001671  aa  163 167 157 162
    001672  aa  144 040 146 157
    001673  aa  162 040 165 163
    001674  aa  145 162 040 136
    001675  aa  141 040 147 151
    001676  aa  166 145 156 040
    001677  aa  151 156 143 157
    001700  aa  162 162 145 143
    001701  aa  164 154 171 040
    001702  aa  136 144 040 164
    001703  aa  151 155 145 163
    001704  aa  054 040 155 157
    001705  aa  163 164 040 162
    001706  aa  145 143 145 156
    001707  aa  164 154 171 040
    001710  aa  146 162 157 155
    001711  aa  040 136 141 040
    001712  aa  164 145 162 155
    001713  aa  151 156 141 154
    001714  aa  040 042 136 141
    001715  aa  042 056 000 000

                                   151   ec  password_probe_msg,probed,(Your password was given incorrectly ^d times recently.^/Last bad password ^a from ^a terminal ""^a"".)
                        000102          	segdef  password_probe_msg
    000102  a0   077777 001720
    001716  aa  160 162 157 142         	aci  "probed",8
    001717  aa  145 144 040 040
    001720  aa  143 131 157 165         	acc  "Your password was given incorrectly ^d times recently.^/Last bad password ^a from ^a terminal ""^a""."
    001721  aa  162 040 160 141
    001722  aa  163 163 167 157
    001723  aa  162 144 040 167
    001724  aa  141 163 040 147
    001725  aa  151 166 145 156
    001726  aa  040 151 156 143
    001727  aa  157 162 162 145
    001730  aa  143 164 154 171
    001731  aa  040 136 144 040
    001732  aa  164 151 155 145
    001733  aa  163 040 162 145
    001734  aa  143 145 156 164
    001735  aa  154 171 056 136
    001736  aa  057 114 141 163
    001737  aa  164 040 142 141
    001740  aa  144 040 160 141
    001741  aa  163 163 167 157
    001742  aa  162 144 040 136
    001743  aa  141 040 146 162
    001744  aa  157 155 040 136
    001745  aa  141 040 164 145
    001746  aa  162 155 151 156
    001747  aa  141 154 040 042
    001750  aa  136 141 042 056

                                   152   ec  password_trap,pwtrap,(Password used: ^a.^a ^a ^a ^a)
                        000103          	segdef  password_trap
    000103  a0   077777 001753
    001751  aa  160 167 164 162         	aci  "pwtrap",8
    001752  aa  141 160 040 040
    001753  aa  035 120 141 163         	acc  "Password used: ^a.^a ^a ^a ^a"
    001754  aa  163 167 157 162
    001755  aa  144 040 165 163
    001756  aa  145 144 072 040
    001757  aa  136 141 056 136
    001760  aa  141 040 136 141
    001761  aa  040 136 141 040
    001762  aa  136 141 000 000

                                   153   ec  password_unused_too_long_msg,pw_old,(login: Your password has not been used in more than ^d days.^/     It has automatically expired.) " security
                        000104          	segdef  password_unused_too_long_msg
    000104  a0   077777 001765
    001763  aa  160 167 137 157         	aci  "pw_old",8
    001764  aa  154 144 040 040
    001765  aa  140 154 157 147         	acc  "login: Your password has not been used in more than ^d days.^/     It has automatically expired."
    001766  aa  151 156 072 040
    001767  aa  131 157 165 162
    001770  aa  040 160 141 163
    001771  aa  163 167 157 162
    001772  aa  144 040 150 141
    001773  aa  163 040 156 157
    001774  aa  164 040 142 145
    001775  aa  145 156 040 165
    001776  aa  163 145 144 040
    001777  aa  151 156 040 155
    002000  aa  157 162 145 040
    002001  aa  164 150 141 156
    002002  aa  040 136 144 040
    002003  aa  144 141 171 163
    002004  aa  056 136 057 040
    002005  aa  040 040 040 040
    002006  aa  111 164 040 150
    002007  aa  141 163 040 141
    002010  aa  165 164 157 155
    002011  aa  141 164 151 143
    002012  aa  141 154 154 171
    002013  aa  040 145 170 160
    002014  aa  151 162 145 144
    002015  aa  056 000 000 000

                                   154   ec  pdt_missing,no_pdt,(Project definition table missing. Please contact User Accounts.)
                        000105          	segdef  pdt_missing
    000105  a0   077777 002020
    002016  aa  156 157 137 160         	aci  "no_pdt",8
    002017  aa  144 164 040 040
    002020  aa  077 120 162 157         	acc  "Project definition table missing. Please contact User Accounts."
    002021  aa  152 145 143 164
    002022  aa  040 144 145 146
    002023  aa  151 156 151 164
    002024  aa  151 157 156 040
    002025  aa  164 141 142 154
    002026  aa  145 040 155 151
    002027  aa  163 163 151 156
    002030  aa  147 056 040 120
    002031  aa  154 145 141 163
    002032  aa  145 040 143 157
    002033  aa  156 164 141 143
    002034  aa  164 040 125 163
    002035  aa  145 162 040 101
    002036  aa  143 143 157 165
    002037  aa  156 164 163 056

                                   155   ec  person_auth_msg,persauth,(person authorization is ^a (^a).)
                        000106          	segdef  person_auth_msg
    000106  a0   077777 002042
    002040  aa  160 145 162 163         	aci  "persauth",8
    002041  aa  141 165 164 150
    002042  aa  040 160 145 162         	acc  "person authorization is ^a (^a)."
    002043  aa  163 157 156 040
    002044  aa  141 165 164 150
    002045  aa  157 162 151 172
    002046  aa  141 164 151 157
    002047  aa  156 040 151 163
    002050  aa  040 136 141 040
    002051  aa  050 136 141 051
    002052  aa  056 000 000 000

                                   156   ec  prog_err,prog_err,(Programming error in answering service. Please contact staff programmers.)
                        000107          	segdef  prog_err
    000107  a0   077777 002055
    002053  aa  160 162 157 147         	aci  "prog_err",8
    002054  aa  137 145 162 162
    002055  aa  111 120 162 157         	acc  "Programming error in answering service. Please contact staff programmers."
    002056  aa  147 162 141 155
    002057  aa  155 151 156 147
    002060  aa  040 145 162 162
    002061  aa  157 162 040 151
    002062  aa  156 040 141 156
    002063  aa  163 167 145 162
    002064  aa  151 156 147 040
    002065  aa  163 145 162 166
    002066  aa  151 143 145 056
    002067  aa  040 120 154 145
    002070  aa  141 163 145 040
    002071  aa  143 157 156 164
    002072  aa  141 143 164 040
    002073  aa  163 164 141 146
    002074  aa  146 040 160 162
    002075  aa  157 147 162 141
    002076  aa  155 155 145 162
    002077  aa  163 056 000 000

                                   157   ec  ring_too_high,ringhigh,(Initial ring is greater than the highest you may specify.)
                        000110          	segdef  ring_too_high
    000110  a0   077777 002102
    002100  aa  162 151 156 147         	aci  "ringhigh",8
    002101  aa  150 151 147 150
    002102  aa  071 111 156 151         	acc  "Initial ring is greater than the highest you may specify."
    002103  aa  164 151 141 154
    002104  aa  040 162 151 156
    002105  aa  147 040 151 163
    002106  aa  040 147 162 145
    002107  aa  141 164 145 162
    002110  aa  040 164 150 141
    002111  aa  156 040 164 150
    002112  aa  145 040 150 151
    002113  aa  147 150 145 163
    002114  aa  164 040 171 157
    002115  aa  165 040 155 141
    002116  aa  171 040 163 160
    002117  aa  145 143 151 146
    002120  aa  171 056 000 000

                                   158   ec  ring_too_low,ringlow,(Initial ring is less than the lowest you may specify.)
                        000111          	segdef  ring_too_low
    000111  a0   077777 002123
    002121  aa  162 151 156 147         	aci  "ringlow",8
    002122  aa  154 157 167 040
    002123  aa  065 111 156 151         	acc  "Initial ring is less than the lowest you may specify."
    002124  aa  164 151 141 154
    002125  aa  040 162 151 156
    002126  aa  147 040 151 163
    002127  aa  040 154 145 163
    002130  aa  163 040 164 150
    002131  aa  141 156 040 164
    002132  aa  150 145 040 154
    002133  aa  157 167 145 163
    002134  aa  164 040 171 157
    002135  aa  165 040 155 141
    002136  aa  171 040 163 160
    002137  aa  145 143 151 146
    002140  aa  171 056 000 000

                                   159   ec  terminal_auth_msg,termauth,(terminal access class is ^a (^a).)
                        000112          	segdef  terminal_auth_msg
    000112  a0   077777 002143
    002141  aa  164 145 162 155         	aci  "termauth",8
    002142  aa  141 165 164 150
    002143  aa  041 164 145 162         	acc  "terminal access class is ^a (^a)."
    002144  aa  155 151 156 141
    002145  aa  154 040 141 143
    002146  aa  143 145 163 163
    002147  aa  040 143 154 141
    002150  aa  163 163 040 151
    002151  aa  163 040 136 141
    002152  aa  040 050 136 141
    002153  aa  051 056 000 000

                                   160   ec  too_many_bad_pw,toombpw,(Too many bad passwords for ^a.^a from ^a (^a terminal ^a).)
                        000113          	segdef  too_many_bad_pw
    000113  a0   077777 002156
    002154  aa  164 157 157 155         	aci  "toombpw",8
    002155  aa  142 160 167 040
    002156  aa  072 124 157 157         	acc  "Too many bad passwords for ^a.^a from ^a (^a terminal ^a)."
    002157  aa  040 155 141 156
    002160  aa  171 040 142 141
    002161  aa  144 040 160 141
    002162  aa  163 163 167 157
    002163  aa  162 144 163 040
    002164  aa  146 157 162 040
    002165  aa  136 141 056 136
    002166  aa  141 040 146 162
    002167  aa  157 155 040 136
    002170  aa  141 040 050 136
    002171  aa  141 040 164 145
    002172  aa  162 155 151 156
    002173  aa  141 154 040 136
    002174  aa  141 051 056 000

                                   161   ec  user_fg_cpu_limit,ufgcpulm,(Job time limit exceeds user's foreground cpu time limit.)
                        000114          	segdef  user_fg_cpu_limit
    000114  a0   077777 002177
    002175  aa  165 146 147 143         	aci  "ufgcpulm",8
    002176  aa  160 165 154 155
    002177  aa  070 112 157 142         	acc  "Job time limit exceeds user's foreground cpu time limit."
    002200  aa  040 164 151 155
    002201  aa  145 040 154 151
    002202  aa  155 151 164 040
    002203  aa  145 170 143 145
    002204  aa  145 144 163 040
    002205  aa  165 163 145 162
    002206  aa  047 163 040 146
    002207  aa  157 162 145 147
    002210  aa  162 157 165 156
    002211  aa  144 040 143 160
    002212  aa  165 040 164 151
    002213  aa  155 145 040 154
    002214  aa  151 155 151 164
    002215  aa  056 000 000 000

                                   162   ec  user_max_bg,umxbg,(You already have your limit of background absentee processes.)
                        000115          	segdef  user_max_bg
    000115  a0   077777 002220
    002216  aa  165 155 170 142         	aci  "umxbg",8
    002217  aa  147 040 040 040
    002220  aa  075 131 157 165         	acc  "You already have your limit of background absentee processes."
    002221  aa  040 141 154 162
    002222  aa  145 141 144 171
    002223  aa  040 150 141 166
    002224  aa  145 040 171 157
    002225  aa  165 162 040 154
    002226  aa  151 155 151 164
    002227  aa  040 157 146 040
    002230  aa  142 141 143 153
    002231  aa  147 162 157 165
    002232  aa  156 144 040 141
    002233  aa  142 163 145 156
    002234  aa  164 145 145 040
    002235  aa  160 162 157 143
    002236  aa  145 163 163 145
    002237  aa  163 056 000 000

                                   163   ec  user_max_fg,umxfg,(You already have your limit of interactive and foreground absentee processes.)
                        000116          	segdef  user_max_fg
    000116  a0   077777 002242
    002240  aa  165 155 170 146         	aci  "umxfg",8
    002241  aa  147 040 040 040
    002242  aa  115 131 157 165         	acc  "You already have your limit of interactive and foreground absentee processes."
    002243  aa  040 141 154 162
    002244  aa  145 141 144 171
    002245  aa  040 150 141 166
    002246  aa  145 040 171 157
    002247  aa  165 162 040 154
    002250  aa  151 155 151 164
    002251  aa  040 157 146 040
    002252  aa  151 156 164 145
    002253  aa  162 141 143 164
    002254  aa  151 166 145 040
    002255  aa  141 156 144 040
    002256  aa  146 157 162 145
    002257  aa  147 162 157 165
    002260  aa  156 144 040 141
    002261  aa  142 163 145 156
    002262  aa  164 145 145 040
    002263  aa  160 162 157 143
    002264  aa  145 163 163 145
    002265  aa  163 056 000 000

                                   164
                                   165
                                   166  "  Messages produced by dialup_
                                   167
                                   168   ec  aclass_banner_msg,acban,(Channel access class: ^a.)
                        000117          	segdef  aclass_banner_msg
    000117  a0   077777 002270
    002266  aa  141 143 142 141         	aci  "acban",8
    002267  aa  156 040 040 040
    002270  aa  031 103 150 141         	acc  "Channel access class: ^a."
    002271  aa  156 156 145 154
    002272  aa  040 141 143 143
    002273  aa  145 163 163 040
    002274  aa  143 154 141 163
    002275  aa  163 072 040 136
    002276  aa  141 056 000 000

                                   169   ec  activity_unbump,act_unbp,(Automatic logout cancelled because of your recent activity.)
                        000120          	segdef  activity_unbump
    000120  a0   077777 002301
    002277  aa  141 143 164 137         	aci  "act_unbp",8
    002300  aa  165 156 142 160
    002301  aa  073 101 165 164         	acc  "Automatic logout cancelled because of your recent activity."
    002302  aa  157 155 141 164
    002303  aa  151 143 040 154
    002304  aa  157 147 157 165
    002305  aa  164 040 143 141
    002306  aa  156 143 145 154
    002307  aa  154 145 144 040
    002310  aa  142 145 143 141
    002311  aa  165 163 145 040
    002312  aa  157 146 040 171
    002313  aa  157 165 162 040
    002314  aa  162 145 143 145
    002315  aa  156 164 040 141
    002316  aa  143 164 151 166
    002317  aa  151 164 171 056

                                   170   ec  ask_for_help,helphelp,(Please contact programming staff if you need assistance in correcting this problem.)
                        000121          	segdef  ask_for_help
    000121  a0   077777 002322
    002320  aa  150 145 154 160         	aci  "helphelp",8
    002321  aa  150 145 154 160
    002322  aa  123 120 154 145         	acc  "Please contact programming staff if you need assistance in correcting this problem."
    002323  aa  141 163 145 040
    002324  aa  143 157 156 164
    002325  aa  141 143 164 040
    002326  aa  160 162 157 147
    002327  aa  162 141 155 155
    002330  aa  151 156 147 040
    002331  aa  163 164 141 146
    002332  aa  146 040 151 146
    002333  aa  040 171 157 165
    002334  aa  040 156 145 145
    002335  aa  144 040 141 163
    002336  aa  163 151 163 164
    002337  aa  141 156 143 145
    002340  aa  040 151 156 040
    002341  aa  143 157 162 162
    002342  aa  145 143 164 151
    002343  aa  156 147 040 164
    002344  aa  150 151 163 040
    002345  aa  160 162 157 142
    002346  aa  154 145 155 056

                                   171   ec  automatic_logout,autolog,(Automatic logout.)
                        000122          	segdef  automatic_logout
    000122  a0   077777 002351
    002347  aa  141 165 164 157         	aci  "autolog",8
    002350  aa  154 157 147 040
    002351  aa  021 101 165 164         	acc  "Automatic logout."
    002352  aa  157 155 141 164
    002353  aa  151 143 040 154
    002354  aa  157 147 157 165
    002355  aa  164 056 000 000

                                   172   ec  bad_answerback,badansbk,(Incorrect answerback for this line.)
                        000123          	segdef  bad_answerback
    000123  a0   077777 002360
    002356  aa  142 141 144 141         	aci  "badansbk",8
    002357  aa  156 163 142 153
    002360  aa  043 111 156 143         	acc  "Incorrect answerback for this line."
    002361  aa  157 162 162 145
    002362  aa  143 164 040 141
    002363  aa  156 163 167 145
    002364  aa  162 142 141 143
    002365  aa  153 040 146 157
    002366  aa  162 040 164 150
    002367  aa  151 163 040 154
    002370  aa  151 156 145 056

                                   173   ec  bad_login_word_msg,badword,(Incorrect login word ""^a"".)
                        000124          	segdef  bad_login_word_msg
    000124  a0   077777 002373
    002371  aa  142 141 144 167         	aci  "badword",8
    002372  aa  157 162 144 040
    002373  aa  032 111 156 143         	acc  "Incorrect login word ""^a""."
    002374  aa  157 162 162 145
    002375  aa  143 164 040 154
    002376  aa  157 147 151 156
    002377  aa  040 167 157 162
    002400  aa  144 040 042 136
    002401  aa  141 042 056 000

                                   174   ec  bad_terminal_id,badtid,(Invalid attempt to set terminal id.)
                        000125          	segdef  bad_terminal_id
    000125  a0   077777 002404
    002402  aa  142 141 144 164         	aci  "badtid",8
    002403  aa  151 144 040 040
    002404  aa  043 111 156 166         	acc  "Invalid attempt to set terminal id."
    002405  aa  141 154 151 144
    002406  aa  040 141 164 164
    002407  aa  145 155 160 164
    002410  aa  040 164 157 040
    002411  aa  163 145 164 040
    002412  aa  164 145 162 155
    002413  aa  151 156 141 154
    002414  aa  040 151 144 056

                                   175   ec  coming_up,coming,(Multics is coming up. Try again in a few minutes.)
                        000126          	segdef  coming_up
    000126  a0   077777 002417
    002415  aa  143 157 155 151         	aci  "coming",8
    002416  aa  156 147 040 040
    002417  aa  061 115 165 154         	acc  "Multics is coming up. Try again in a few minutes."
    002420  aa  164 151 143 163
    002421  aa  040 151 163 040
    002422  aa  143 157 155 151
    002423  aa  156 147 040 165
    002424  aa  160 056 040 124
    002425  aa  162 171 040 141
    002426  aa  147 141 151 156
    002427  aa  040 151 156 040
    002430  aa  141 040 146 145
    002431  aa  167 040 155 151
    002432  aa  156 165 164 145
    002433  aa  163 056 000 000

                                   176   ec  detach,detach,(Automatic detach.)
                        000127          	segdef  detach
    000127  a0   077777 002436
    002434  aa  144 145 164 141         	aci  "detach",8
    002435  aa  143 150 040 040
    002436  aa  021 101 165 164         	acc  "Automatic detach."
    002437  aa  157 155 141 164
    002440  aa  151 143 040 144
    002441  aa  145 164 141 143
    002442  aa  150 056 000 000

                                   177   ec  dial_request_error,drqerr,(Error in dial request. ^a)
                        000130          	segdef  dial_request_error
    000130  a0   077777 002445
    002443  aa  144 162 161 145         	aci  "drqerr",8
    002444  aa  162 162 040 040
    002445  aa  031 105 162 162         	acc  "Error in dial request. ^a"
    002446  aa  157 162 040 151
    002447  aa  156 040 144 151
    002450  aa  141 154 040 162
    002451  aa  145 161 165 145
    002452  aa  163 164 056 040
    002453  aa  136 141 000 000

                                   178   ec  dialup_error,duperr,(Unexpected system error in answering service.)
                        000131          	segdef  dialup_error
    000131  a0   077777 002456
    002454  aa  144 165 160 145         	aci  "duperr",8
    002455  aa  162 162 040 040
    002456  aa  055 125 156 145         	acc  "Unexpected system error in answering service."
    002457  aa  170 160 145 143
    002460  aa  164 145 144 040
    002461  aa  163 171 163 164
    002462  aa  145 155 040 145
    002463  aa  162 162 157 162
    002464  aa  040 151 156 040
    002465  aa  141 156 163 167
    002466  aa  145 162 151 156
    002467  aa  147 040 163 145
    002470  aa  162 166 151 143
    002471  aa  145 056 000 000

                                   179   ec  disc_hd_msg,dischold,(Your process is now disconnected from this terminal.)
                        000132          	segdef  disc_hd_msg
    000132  a0   077777 002474
    002472  aa  144 151 163 143         	aci  "dischold",8
    002473  aa  150 157 154 144
    002474  aa  064 131 157 165         	acc  "Your process is now disconnected from this terminal."
    002475  aa  162 040 160 162
    002476  aa  157 143 145 163
    002477  aa  163 040 151 163
    002500  aa  040 156 157 167
    002501  aa  040 144 151 163
    002502  aa  143 157 156 156
    002503  aa  145 143 164 145
    002504  aa  144 040 146 162
    002505  aa  157 155 040 164
    002506  aa  150 151 163 040
    002507  aa  164 145 162 155
    002510  aa  151 156 141 154
    002511  aa  056 000 000 000

                                   180   ec  fpe_caused_logout,fpelgout,(Fatal error. Process has terminated and requested user logout.)
                        000133          	segdef  fpe_caused_logout
    000133  a0   077777 002514
    002512  aa  146 160 145 154         	aci  "fpelgout",8
    002513  aa  147 157 165 164
    002514  aa  076 106 141 164         	acc  "Fatal error. Process has terminated and requested user logout."
    002515  aa  141 154 040 145
    002516  aa  162 162 157 162
    002517  aa  056 040 120 162
    002520  aa  157 143 145 163
    002521  aa  163 040 150 141
    002522  aa  163 040 164 145
    002523  aa  162 155 151 156
    002524  aa  141 164 145 144
    002525  aa  040 141 156 144
    002526  aa  040 162 145 161
    002527  aa  165 145 163 164
    002530  aa  145 144 040 165
    002531  aa  163 145 162 040
    002532  aa  154 157 147 157
    002533  aa  165 164 056 000

                                   181   ec  generated_pw_err,gpw_err,(New password typed incorrectly.)
                        000134          	segdef  generated_pw_err
    000134  a0   077777 002536
    002534  aa  147 160 167 137         	aci  "gpw_err",8
    002535  aa  145 162 162 040
    002536  aa  037 116 145 167         	acc  "New password typed incorrectly."
    002537  aa  040 160 141 163
    002540  aa  163 167 157 162
    002541  aa  144 040 164 171
    002542  aa  160 145 144 040
    002543  aa  151 156 143 157
    002544  aa  162 162 145 143
    002545  aa  164 154 171 056

                                   182   ec  generated_pw_msg,gpw_msg,(Your new password is ""^a"", pronounced ""^a"".)
                        000135          	segdef  generated_pw_msg
    000135  a0   077777 002550
    002546  aa  147 160 167 137         	aci  "gpw_msg",8
    002547  aa  155 163 147 040
    002550  aa  053 131 157 165         	acc  "Your new password is ""^a"", pronounced ""^a""."
    002551  aa  162 040 156 145
    002552  aa  167 040 160 141
    002553  aa  163 163 167 157
    002554  aa  162 144 040 151
    002555  aa  163 040 042 136
    002556  aa  141 042 054 040
    002557  aa  160 162 157 156
    002560  aa  157 165 156 143
    002561  aa  145 144 040 042
    002562  aa  136 141 042 056

                                   183   ec  give_connect_request,giveconn,(Please type list, create, connect, new_proc, destroy, logout, or help.)
                        000136          	segdef  give_connect_request
    000136  a0   077777 002565
    002563  aa  147 151 166 145         	aci  "giveconn",8
    002564  aa  143 157 156 156
    002565  aa  106 120 154 145         	acc  "Please type list, create, connect, new_proc, destroy, logout, or help."
    002566  aa  141 163 145 040
    002567  aa  164 171 160 145
    002570  aa  040 154 151 163
    002571  aa  164 054 040 143
    002572  aa  162 145 141 164
    002573  aa  145 054 040 143
    002574  aa  157 156 156 145
    002575  aa  143 164 054 040
    002576  aa  156 145 167 137
    002577  aa  160 162 157 143
    002600  aa  054 040 144 145
    002601  aa  163 164 162 157
    002602  aa  171 054 040 154
    002603  aa  157 147 157 165
    002604  aa  164 054 040 157
    002605  aa  162 040 150 145
    002606  aa  154 160 056 000

                                   184   ec  give_connect_request_no_disc,givecnnd,(Please type create, logout, or help.)
                        000137          	segdef  give_connect_request_no_disc
    000137  a0   077777 002611
    002607  aa  147 151 166 145         	aci  "givecnnd",8
    002610  aa  143 156 156 144
    002611  aa  044 120 154 145         	acc  "Please type create, logout, or help."
    002612  aa  141 163 145 040
    002613  aa  164 171 160 145
    002614  aa  040 143 162 145
    002615  aa  141 164 145 054
    002616  aa  040 154 157 147
    002617  aa  157 165 164 054
    002620  aa  040 157 162 040
    002621  aa  150 145 154 160
    002622  aa  056 000 000 000

                                   185   ec  give_instructions,giveinst,(Please give instructions regarding your disconnected process(es).)
                        000140          	segdef  give_instructions
    000140  a0   077777 002625
    002623  aa  147 151 166 145         	aci  "giveinst",8
    002624  aa  151 156 163 164
    002625  aa  101 120 154 145         	acc  "Please give instructions regarding your disconnected process(es)."
    002626  aa  141 163 145 040
    002627  aa  147 151 166 145
    002630  aa  040 151 156 163
    002631  aa  164 162 165 143
    002632  aa  164 151 157 156
    002633  aa  163 040 162 145
    002634  aa  147 141 162 144
    002635  aa  151 156 147 040
    002636  aa  171 157 165 162
    002637  aa  040 144 151 163
    002640  aa  143 157 156 156
    002641  aa  145 143 164 145
    002642  aa  144 040 160 162
    002643  aa  157 143 145 163
    002644  aa  163 050 145 163
    002645  aa  051 056 000 000

                                   186   ec  greeting_msg,multics,(Multics ^a: ^a (Channel ^a)^/Load = ^.1f out of ^.1f units: users = ^d, ^a)
                        000141          	segdef  greeting_msg
    000141  a0   077777 002650
    002646  aa  155 165 154 164         	aci  "multics",8
    002647  aa  151 143 163 040
    002650  aa  112 115 165 154         	acc  "Multics ^a: ^a (Channel ^a)^/Load = ^.1f out of ^.1f units: users = ^d, ^a"
    002651  aa  164 151 143 163
    002652  aa  040 136 141 072
    002653  aa  040 136 141 040
    002654  aa  050 103 150 141
    002655  aa  156 156 145 154
    002656  aa  040 136 141 051
    002657  aa  136 057 114 157
    002660  aa  141 144 040 075
    002661  aa  040 136 056 061
    002662  aa  146 040 157 165
    002663  aa  164 040 157 146
    002664  aa  040 136 056 061
    002665  aa  146 040 165 156
    002666  aa  151 164 163 072
    002667  aa  040 165 163 145
    002670  aa  162 163 040 075
    002671  aa  040 136 144 054
    002672  aa  040 136 141 000

                                   187   ec  hangup_msg,hangup,(hangup^/)
                        000142          	segdef  hangup_msg
    000142  a0   077777 002675
    002673  aa  150 141 156 147         	aci  "hangup",8
    002674  aa  165 160 040 040
    002675  aa  010 150 141 156         	acc  "hangup^/"
    002676  aa  147 165 160 136
    002677  aa  057 000 000 000

                                   188   ec  help_gpw_verify,helpgpvf,(Verify your generated password before changing it, or enter ""quit"" to not log in.)
                        000143          	segdef  help_gpw_verify
    000143  a0   077777 002702
    002700  aa  150 145 154 160         	aci  "helpgpvf",8
    002701  aa  147 160 166 146
    002702  aa  121 126 145 162         	acc  "Verify your generated password before changing it, or enter ""quit"" to not log in."
    002703  aa  151 146 171 040
    002704  aa  171 157 165 162
    002705  aa  040 147 145 156
    002706  aa  145 162 141 164
    002707  aa  145 144 040 160
    002710  aa  141 163 163 167
    002711  aa  157 162 144 040
    002712  aa  142 145 146 157
    002713  aa  162 145 040 143
    002714  aa  150 141 156 147
    002715  aa  151 156 147 040
    002716  aa  151 164 054 040
    002717  aa  157 162 040 145
    002720  aa  156 164 145 162
    002721  aa  040 042 161 165
    002722  aa  151 164 042 040
    002723  aa  164 157 040 156
    002724  aa  157 164 040 154
    002725  aa  157 147 040 151
    002726  aa  156 056 000 000

                                   189   ec  help_new_pw,helpnpw,(Enter your new password, or enter ""quit"" to not log in.)
                        000144          	segdef  help_new_pw
    000144  a0   077777 002731
    002727  aa  150 145 154 160         	aci  "helpnpw",8
    002730  aa  156 160 167 040
    002731  aa  067 105 156 164         	acc  "Enter your new password, or enter ""quit"" to not log in."
    002732  aa  145 162 040 171
    002733  aa  157 165 162 040
    002734  aa  156 145 167 040
    002735  aa  160 141 163 163
    002736  aa  167 157 162 144
    002737  aa  054 040 157 162
    002740  aa  040 145 156 164
    002741  aa  145 162 040 042
    002742  aa  161 165 151 164
    002743  aa  042 040 164 157
    002744  aa  040 156 157 164
    002745  aa  040 154 157 147
    002746  aa  040 151 156 056

                                   190   ec  help_npw_verify,helpnpvf,(Verify your new password before changing it, or enter ""quit"" to not log in.)
                        000145          	segdef  help_npw_verify
    000145  a0   077777 002751
    002747  aa  150 145 154 160         	aci  "helpnpvf",8
    002750  aa  156 160 166 146
    002751  aa  113 126 145 162         	acc  "Verify your new password before changing it, or enter ""quit"" to not log in."
    002752  aa  151 146 171 040
    002753  aa  171 157 165 162
    002754  aa  040 156 145 167
    002755  aa  040 160 141 163
    002756  aa  163 167 157 162
    002757  aa  144 040 142 145
    002760  aa  146 157 162 145
    002761  aa  040 143 150 141
    002762  aa  156 147 151 156
    002763  aa  147 040 151 164
    002764  aa  054 040 157 162
    002765  aa  040 145 156 164
    002766  aa  145 162 040 042
    002767  aa  161 165 151 164
    002770  aa  042 040 164 157
    002771  aa  040 156 157 164
    002772  aa  040 154 157 147
    002773  aa  040 151 156 056

                                   191   ec  help_password,helppw,(You must enter your password, or ""quit"" to not log in.)
                        000146          	segdef  help_password
    000146  a0   077777 002776
    002774  aa  150 145 154 160         	aci  "helppw",8
    002775  aa  160 167 040 040
    002776  aa  066 131 157 165         	acc  "You must enter your password, or ""quit"" to not log in."
    002777  aa  040 155 165 163
    003000  aa  164 040 145 156
    003001  aa  164 145 162 040
    003002  aa  171 157 165 162
    003003  aa  040 160 141 163
    003004  aa  163 167 157 162
    003005  aa  144 054 040 157
    003006  aa  162 040 042 161
    003007  aa  165 151 164 042
    003010  aa  040 164 157 040
    003011  aa  156 157 164 040
    003012  aa  154 157 147 040
    003013  aa  151 156 056 000

                                   192   ec  illegal_new_proc,badnproc,(You cannot ""new_proc"" to the requested authorization.)
                        000147          	segdef  illegal_new_proc
    000147  a0   077777 003016
    003014  aa  142 141 144 156         	aci  "badnproc",8
    003015  aa  160 162 157 143
    003016  aa  065 131 157 165         	acc  "You cannot ""new_proc"" to the requested authorization."
    003017  aa  040 143 141 156
    003020  aa  156 157 164 040
    003021  aa  042 156 145 167
    003022  aa  137 160 162 157
    003023  aa  143 042 040 164
    003024  aa  157 040 164 150
    003025  aa  145 040 162 145
    003026  aa  161 165 145 163
    003027  aa  164 145 144 040
    003030  aa  141 165 164 150
    003031  aa  157 162 151 172
    003032  aa  141 164 151 157
    003033  aa  156 056 000 000

                                   193   ec  illegal_signal,badsignl,(Invalid logout signal to answering service.)
                        000150          	segdef  illegal_signal
    000150  a0   077777 003036
    003034  aa  142 141 144 163         	aci  "badsignl",8
    003035  aa  151 147 156 154
    003036  aa  053 111 156 166         	acc  "Invalid logout signal to answering service."
    003037  aa  141 154 151 144
    003040  aa  040 154 157 147
    003041  aa  157 165 164 040
    003042  aa  163 151 147 156
    003043  aa  141 154 040 164
    003044  aa  157 040 141 156
    003045  aa  163 167 145 162
    003046  aa  151 156 147 040
    003047  aa  163 145 162 166
    003050  aa  151 143 145 056

                                   194   ec  init_err,init_err,(Process cannot be initialized.)
                        000151          	segdef  init_err
    000151  a0   077777 003053
    003051  aa  151 156 151 164         	aci  "init_err",8
    003052  aa  137 145 162 162
    003053  aa  036 120 162 157         	acc  "Process cannot be initialized."
    003054  aa  143 145 163 163
    003055  aa  040 143 141 156
    003056  aa  156 157 164 040
    003057  aa  142 145 040 151
    003060  aa  156 151 164 151
    003061  aa  141 154 151 172
    003062  aa  145 144 056 000

                                   195   ec  init_term_msg,initterm,(Fatal error during process initialization. ^a)
                        000152          	segdef  init_term_msg
    000152  a0   077777 003065
    003063  aa  151 156 151 164         	aci  "initterm",8
    003064  aa  164 145 162 155
    003065  aa  055 106 141 164         	acc  "Fatal error during process initialization. ^a"
    003066  aa  141 154 040 145
    003067  aa  162 162 157 162
    003070  aa  040 144 165 162
    003071  aa  151 156 147 040
    003072  aa  160 162 157 143
    003073  aa  145 163 163 040
    003074  aa  151 156 151 164
    003075  aa  151 141 154 151
    003076  aa  172 141 164 151
    003077  aa  157 156 056 040
    003100  aa  136 141 000 000

                                   196   ec  list_disconnected_msg,listdisc,(^3d.^2xlogged in ^a over channel ^a, terminal ""^a"".)
                        000153          	segdef  list_disconnected_msg
    000153  a0   077777 003103
    003101  aa  154 151 163 164         	aci  "listdisc",8
    003102  aa  144 151 163 143
    003103  aa  063 136 063 144         	acc  "^3d.^2xlogged in ^a over channel ^a, terminal ""^a""."
    003104  aa  056 136 062 170
    003105  aa  154 157 147 147
    003106  aa  145 144 040 151
    003107  aa  156 040 136 141
    003110  aa  040 157 166 145
    003111  aa  162 040 143 150
    003112  aa  141 156 156 145
    003113  aa  154 040 136 141
    003114  aa  054 040 164 145
    003115  aa  162 155 151 156
    003116  aa  141 154 040 042
    003117  aa  136 141 042 056

                                   197   ec  login_args,loginags,(Personid Projectid and optional arguments:)
                        000154          	segdef  login_args
    000154  a0   077777 003122
    003120  aa  154 157 147 151         	aci  "loginags",8
    003121  aa  156 141 147 163
    003122  aa  052 120 145 162         	acc  "Personid Projectid and optional arguments:"
    003123  aa  163 157 156 151
    003124  aa  144 040 120 162
    003125  aa  157 152 145 143
    003126  aa  164 151 144 040
    003127  aa  141 156 144 040
    003130  aa  157 160 164 151
    003131  aa  157 156 141 154
    003132  aa  040 141 162 147
    003133  aa  165 155 145 156
    003134  aa  164 163 072 000

                                   198   ec  logout1_msg,logout1,(^a.^a logged out ^a^/CPU usage ^d sec, memory usage ^.1f units, cost $^.2f.)
                        000155          	segdef  logout1_msg
    000155  a0   077777 003137
    003135  aa  154 157 147 157         	aci  "logout1",8
    003136  aa  165 164 061 040
    003137  aa  113 136 141 056         	acc  "^a.^a logged out ^a^/CPU usage ^d sec, memory usage ^.1f units, cost $^.2f."
    003140  aa  136 141 040 154
    003141  aa  157 147 147 145
    003142  aa  144 040 157 165
    003143  aa  164 040 136 141
    003144  aa  136 057 103 120
    003145  aa  125 040 165 163
    003146  aa  141 147 145 040
    003147  aa  136 144 040 163
    003150  aa  145 143 054 040
    003151  aa  155 145 155 157
    003152  aa  162 171 040 165
    003153  aa  163 141 147 145
    003154  aa  040 136 056 061
    003155  aa  146 040 165 156
    003156  aa  151 164 163 054
    003157  aa  040 143 157 163
    003160  aa  164 040 044 136
    003161  aa  056 062 146 056

                                   199   ec  logout_disconnected_msg,logodisc,(^a.^a logged out ^a,^/while disconnected. No process affected by this logout.)
                        000156          	segdef  logout_disconnected_msg
    000156  a0   077777 003164
    003162  aa  154 157 147 157         	aci  "logodisc",8
    003163  aa  144 151 163 143
    003164  aa  115 136 141 056         	acc  "^a.^a logged out ^a,^/while disconnected. No process affected by this logout."
    003165  aa  136 141 040 154
    003166  aa  157 147 147 145
    003167  aa  144 040 157 165
    003170  aa  164 040 136 141
    003171  aa  054 136 057 167
    003172  aa  150 151 154 145
    003173  aa  040 144 151 163
    003174  aa  143 157 156 156
    003175  aa  145 143 164 145
    003176  aa  144 056 040 116
    003177  aa  157 040 160 162
    003200  aa  157 143 145 163
    003201  aa  163 040 141 146
    003202  aa  146 145 143 164
    003203  aa  145 144 040 142
    003204  aa  171 040 164 150
    003205  aa  151 163 040 154
    003206  aa  157 147 157 165
    003207  aa  164 056 000 000

                                   200   ec  logout_msg,logout,(^a.^a logged out ^a^/CPU usage ^d min ^d sec, memory usage ^.1f units, cost $^.2f.)
                        000157          	segdef  logout_msg
    000157  a0   077777 003212
    003210  aa  154 157 147 157         	aci  "logout",8
    003211  aa  165 164 040 040
    003212  aa  122 136 141 056         	acc  "^a.^a logged out ^a^/CPU usage ^d min ^d sec, memory usage ^.1f units, cost $^.2f."
    003213  aa  136 141 040 154
    003214  aa  157 147 147 145
    003215  aa  144 040 157 165
    003216  aa  164 040 136 141
    003217  aa  136 057 103 120
    003220  aa  125 040 165 163
    003221  aa  141 147 145 040
    003222  aa  136 144 040 155
    003223  aa  151 156 040 136
    003224  aa  144 040 163 145
    003225  aa  143 054 040 155
    003226  aa  145 155 157 162
    003227  aa  171 040 165 163
    003230  aa  141 147 145 040
    003231  aa  136 056 061 146
    003232  aa  040 165 156 151
    003233  aa  164 163 054 040
    003234  aa  143 157 163 164
    003235  aa  040 044 136 056
    003236  aa  062 146 056 000

                                   201   ec  long_ip_ss_args,longipss,(Sum of ""-process_overseer"" and ""-subsystem"" argument lengths may not exceed 64 characters.)
                        000160          	segdef  long_ip_ss_args
    000160  a0   077777 003241
    003237  aa  154 157 156 147         	aci  "longipss",8
    003240  aa  151 160 163 163
    003241  aa  132 123 165 155         	acc  "Sum of ""-process_overseer"" and ""-subsystem"" argument lengths may not exceed 64 characters."
    003242  aa  040 157 146 040
    003243  aa  042 055 160 162
    003244  aa  157 143 145 163
    003245  aa  163 137 157 166
    003246  aa  145 162 163 145
    003247  aa  145 162 042 040
    003250  aa  141 156 144 040
    003251  aa  042 055 163 165
    003252  aa  142 163 171 163
    003253  aa  164 145 155 042
    003254  aa  040 141 162 147
    003255  aa  165 155 145 156
    003256  aa  164 040 154 145
    003257  aa  156 147 164 150
    003260  aa  163 040 155 141
    003261  aa  171 040 156 157
    003262  aa  164 040 145 170
    003263  aa  143 145 145 144
    003264  aa  040 066 064 040
    003265  aa  143 150 141 162
    003266  aa  141 143 164 145
    003267  aa  162 163 056 000

                                   202   ec  must_give_proc_no,giveproc,(You must specify the process number since you have more than one disconnected process.)
                        000161          	segdef  must_give_proc_no
    000161  a0   077777 003272
    003270  aa  147 151 166 145         	aci  "giveproc",8
    003271  aa  160 162 157 143
    003272  aa  126 131 157 165         	acc  "You must specify the process number since you have more than one disconnected process."
    003273  aa  040 155 165 163
    003274  aa  164 040 163 160
    003275  aa  145 143 151 146
    003276  aa  171 040 164 150
    003277  aa  145 040 160 162
    003300  aa  157 143 145 163
    003301  aa  163 040 156 165
    003302  aa  155 142 145 162
    003303  aa  040 163 151 156
    003304  aa  143 145 040 171
    003305  aa  157 165 040 150
    003306  aa  141 166 145 040
    003307  aa  155 157 162 145
    003310  aa  040 164 150 141
    003311  aa  156 040 157 156
    003312  aa  145 040 144 151
    003313  aa  163 143 157 156
    003314  aa  156 145 143 164
    003315  aa  145 144 040 160
    003316  aa  162 157 143 145
    003317  aa  163 163 056 000

                                   203   ec  new_password_indistinct,pwindsct,(The new password is equivalent to the old password.)
                        000162          	segdef  new_password_indistinct
    000162  a0   077777 003322
    003320  aa  160 167 151 156         	aci  "pwindsct",8
    003321  aa  144 163 143 164
    003322  aa  063 124 150 145         	acc  "The new password is equivalent to the old password."
    003323  aa  040 156 145 167
    003324  aa  040 160 141 163
    003325  aa  163 167 157 162
    003326  aa  144 040 151 163
    003327  aa  040 145 161 165
    003330  aa  151 166 141 154
    003331  aa  145 156 164 040
    003332  aa  164 157 040 164
    003333  aa  150 145 040 157
    003334  aa  154 144 040 160
    003335  aa  141 163 163 167
    003336  aa  157 162 144 056

                                   204   ec  new_pw_err,npw_err,(New password typed incorrectly second time.)
                        000163          	segdef  new_pw_err
    000163  a0   077777 003341
    003337  aa  156 160 167 137         	aci  "npw_err",8
    003340  aa  145 162 162 040
    003341  aa  053 116 145 167         	acc  "New password typed incorrectly second time."
    003342  aa  040 160 141 163
    003343  aa  163 167 157 162
    003344  aa  144 040 164 171
    003345  aa  160 145 144 040
    003346  aa  151 156 143 157
    003347  aa  162 162 145 143
    003350  aa  164 154 171 040
    003351  aa  163 145 143 157
    003352  aa  156 144 040 164
    003353  aa  151 155 145 056

                                   205   ec  no_disc_hd,nodischd,(Your process is now disconnected; this terminal will hangup to ensure secure logins.)
                        000164          	segdef  no_disc_hd
    000164  a0   077777 003356
    003354  aa  156 157 144 151         	aci  "nodischd",8
    003355  aa  163 143 150 144
    003356  aa  124 131 157 165         	acc  "Your process is now disconnected; this terminal will hangup to ensure secure logins."
    003357  aa  162 040 160 162
    003360  aa  157 143 145 163
    003361  aa  163 040 151 163
    003362  aa  040 156 157 167
    003363  aa  040 144 151 163
    003364  aa  143 157 156 156
    003365  aa  145 143 164 145
    003366  aa  144 073 040 164
    003367  aa  150 151 163 040
    003370  aa  164 145 162 155
    003371  aa  151 156 141 154
    003372  aa  040 167 151 154
    003373  aa  154 040 150 141
    003374  aa  156 147 165 160
    003375  aa  040 164 157 040
    003376  aa  145 156 163 165
    003377  aa  162 145 040 163
    003400  aa  145 143 165 162
    003401  aa  145 040 154 157
    003402  aa  147 151 156 163
    003403  aa  056 000 000 000

                                   206   ec  no_init_proc,no_initp,(Unable to locate process overseer procedure.)
                        000165          	segdef  no_init_proc
    000165  a0   077777 003406
    003404  aa  156 157 137 151         	aci  "no_initp",8
    003405  aa  156 151 164 160
    003406  aa  054 125 156 141         	acc  "Unable to locate process overseer procedure."
    003407  aa  142 154 145 040
    003410  aa  164 157 040 154
    003411  aa  157 143 141 164
    003412  aa  145 040 160 162
    003413  aa  157 143 145 163
    003414  aa  163 040 157 166
    003415  aa  145 162 163 145
    003416  aa  145 162 040 160
    003417  aa  162 157 143 145
    003420  aa  144 165 162 145
    003421  aa  056 000 000 000

                                   207   ec  no_io_attach,no_ioatt,(Unable to attach process I/O streams.)
                        000166          	segdef  no_io_attach
    000166  a0   077777 003424
    003422  aa  156 157 137 151         	aci  "no_ioatt",8
    003423  aa  157 141 164 164
    003424  aa  045 125 156 141         	acc  "Unable to attach process I/O streams."
    003425  aa  142 154 145 040
    003426  aa  164 157 040 141
    003427  aa  164 164 141 143
    003430  aa  150 040 160 162
    003431  aa  157 143 145 163
    003432  aa  163 040 111 057
    003433  aa  117 040 163 164
    003434  aa  162 145 141 155
    003435  aa  163 056 000 000

                                   208   ec  no_logout_hold,nolohold,(logout -hold is not permitted.)
                        000167          	segdef  no_logout_hold
    000167  a0   077777 003440
    003436  aa  156 157 154 157         	aci  "nolohold",8
    003437  aa  150 157 154 144
    003440  aa  036 154 157 147         	acc  "logout -hold is not permitted."
    003441  aa  157 165 164 040
    003442  aa  055 150 157 154
    003443  aa  144 040 151 163
    003444  aa  040 156 157 164
    003445  aa  040 160 145 162
    003446  aa  155 151 164 164
    003447  aa  145 144 056 000

                                   209   ec  no_perm_disc,nodiscok,(Your process lacks the disconnect_ok attribute.)
                        000170          	segdef  no_perm_disc
    000170  a0   077777 003452
    003450  aa  156 157 144 151         	aci  "nodiscok",8
    003451  aa  163 143 157 153
    003452  aa  057 131 157 165         	acc  "Your process lacks the disconnect_ok attribute."
    003453  aa  162 040 160 162
    003454  aa  157 143 145 163
    003455  aa  163 040 154 141
    003456  aa  143 153 163 040
    003457  aa  164 150 145 040
    003460  aa  144 151 163 143
    003461  aa  157 156 156 145
    003462  aa  143 164 137 157
    003463  aa  153 040 141 164
    003464  aa  164 162 151 142
    003465  aa  165 164 145 056

                                   210   ec  no_signal,nosignal,(Process terminated without signalling answering service.)
                        000171          	segdef  no_signal
    000171  a0   077777 003470
    003466  aa  156 157 163 151         	aci  "nosignal",8
    003467  aa  147 156 141 154
    003470  aa  070 120 162 157         	acc  "Process terminated without signalling answering service."
    003471  aa  143 145 163 163
    003472  aa  040 164 145 162
    003473  aa  155 151 156 141
    003474  aa  164 145 144 040
    003475  aa  167 151 164 150
    003476  aa  157 165 164 040
    003477  aa  163 151 147 156
    003500  aa  141 154 154 151
    003501  aa  156 147 040 141
    003502  aa  156 163 167 145
    003503  aa  162 151 156 147
    003504  aa  040 163 145 162
    003505  aa  166 151 143 145
    003506  aa  056 000 000 000

                                   211   ec  no_such_process_msg,nonesuch,(You don't have a disconnected process number ^d.)
                        000172          	segdef  no_such_process_msg
    000172  a0   077777 003511
    003507  aa  156 157 156 145         	aci  "nonesuch",8
    003510  aa  163 165 143 150
    003511  aa  060 131 157 165         	acc  "You don't have a disconnected process number ^d."
    003512  aa  040 144 157 156
    003513  aa  047 164 040 150
    003514  aa  141 166 145 040
    003515  aa  141 040 144 151
    003516  aa  163 143 157 156
    003517  aa  156 145 143 164
    003520  aa  145 144 040 160
    003521  aa  162 157 143 145
    003522  aa  163 163 040 156
    003523  aa  165 155 142 145
    003524  aa  162 040 136 144
    003525  aa  056 000 000 000

                                   212   ec  not_implemented_msg,notimp,(The ^a request is not yet implemented. Sorry.)
                        000173          	segdef  not_implemented_msg
    000173  a0   077777 003530
    003526  aa  156 157 164 151         	aci  "notimp",8
    003527  aa  155 160 040 040
    003530  aa  055 124 150 145         	acc  "The ^a request is not yet implemented. Sorry."
    003531  aa  040 136 141 040
    003532  aa  162 145 161 165
    003533  aa  145 163 164 040
    003534  aa  151 163 040 156
    003535  aa  157 164 040 171
    003536  aa  145 164 040 151
    003537  aa  155 160 154 145
    003540  aa  155 145 156 164
    003541  aa  145 144 056 040
    003542  aa  123 157 162 162
    003543  aa  171 056 000 000

                                   213   ec  now_logged_in,loggedin,(You are now logged in but your terminal is not connected to a process.)
                        000174          	segdef  now_logged_in
    000174  a0   077777 003546
    003544  aa  154 157 147 147         	aci  "loggedin",8
    003545  aa  145 144 151 156
    003546  aa  106 131 157 165         	acc  "You are now logged in but your terminal is not connected to a process."
    003547  aa  040 141 162 145
    003550  aa  040 156 157 167
    003551  aa  040 154 157 147
    003552  aa  147 145 144 040
    003553  aa  151 156 040 142
    003554  aa  165 164 040 171
    003555  aa  157 165 162 040
    003556  aa  164 145 162 155
    003557  aa  151 156 141 154
    003560  aa  040 151 163 040
    003561  aa  156 157 164 040
    003562  aa  143 157 156 156
    003563  aa  145 143 164 145
    003564  aa  144 040 164 157
    003565  aa  040 141 040 160
    003566  aa  162 157 143 145
    003567  aa  163 163 056 000

                                   214   ec  npw_again_msg,npwagain,(New Password Again:)
                        000175          	segdef  npw_again_msg
    000175  a0   077777 003572
    003570  aa  156 160 167 141         	aci  "npwagain",8
    003571  aa  147 141 151 156
    003572  aa  023 116 145 167         	acc  "New Password Again:"
    003573  aa  040 120 141 163
    003574  aa  163 167 157 162
    003575  aa  144 040 101 147
    003576  aa  141 151 156 072

                                   215   ec  npw_msg,npw_msg,(New Password:)
                        000176          	segdef  npw_msg
    000176  a0   077777 003601
    003577  aa  156 160 167 137         	aci  "npw_msg",8
    003600  aa  155 163 147 040
    003601  aa  015 116 145 167         	acc  "New Password:"
    003602  aa  040 120 141 163
    003603  aa  163 167 157 162
    003604  aa  144 072 000 000

                                   216   ec  only_after_login_msg,aftrlogi,(The ^a request is only valid after a successful login.)
                        000177          	segdef  only_after_login_msg
    000177  a0   077777 003607
    003605  aa  141 146 164 162         	aci  "aftrlogi",8
    003606  aa  154 157 147 151
    003607  aa  066 124 150 145         	acc  "The ^a request is only valid after a successful login."
    003610  aa  040 136 141 040
    003611  aa  162 145 161 165
    003612  aa  145 163 164 040
    003613  aa  151 163 040 157
    003614  aa  156 154 171 040
    003615  aa  166 141 154 151
    003616  aa  144 040 141 146
    003617  aa  164 145 162 040
    003620  aa  141 040 163 165
    003621  aa  143 143 145 163
    003622  aa  163 146 165 154
    003623  aa  040 154 157 147
    003624  aa  151 156 056 000

                                   217   ec  preaccess_request_error,prerqerr,(Error in preaccess request. ^a)
                        000200          	segdef  preaccess_request_error
    000200  a0   077777 003627
    003625  aa  160 162 145 162         	aci  "prerqerr",8
    003626  aa  161 145 162 162
    003627  aa  036 105 162 162         	acc  "Error in preaccess request. ^a"
    003630  aa  157 162 040 151
    003631  aa  156 040 160 162
    003632  aa  145 141 143 143
    003633  aa  145 163 163 040
    003634  aa  162 145 161 165
    003635  aa  145 163 164 056
    003636  aa  040 136 141 000

                                   218   ec  proc_term_loop_msg,proctmlp,(Fatal error. Process has terminated. ^a^/You appear to be in a fatal process error loop.)
                        000201          	segdef  proc_term_loop_msg
    000201  a0   077777 003641
    003637  aa  160 162 157 143         	aci  "proctmlp",8
    003640  aa  164 155 154 160
    003641  aa  130 106 141 164         	acc  "Fatal error. Process has terminated. ^a^/You appear to be in a fatal process error loop."
    003642  aa  141 154 040 145
    003643  aa  162 162 157 162
    003644  aa  056 040 120 162
    003645  aa  157 143 145 163
    003646  aa  163 040 150 141
    003647  aa  163 040 164 145
    003650  aa  162 155 151 156
    003651  aa  141 164 145 144
    003652  aa  056 040 136 141
    003653  aa  136 057 131 157
    003654  aa  165 040 141 160
    003655  aa  160 145 141 162
    003656  aa  040 164 157 040
    003657  aa  142 145 040 151
    003660  aa  156 040 141 040
    003661  aa  146 141 164 141
    003662  aa  154 040 160 162
    003663  aa  157 143 145 163
    003664  aa  163 040 145 162
    003665  aa  162 157 162 040
    003666  aa  154 157 157 160
    003667  aa  056 000 000 000

                                   219   ec  proc_term_msg,procterm,(Fatal error. Process has terminated. ^a^/New process created.)
                        000202          	segdef  proc_term_msg
    000202  a0   077777 003672
    003670  aa  160 162 157 143         	aci  "procterm",8
    003671  aa  164 145 162 155
    003672  aa  075 106 141 164         	acc  "Fatal error. Process has terminated. ^a^/New process created."
    003673  aa  141 154 040 145
    003674  aa  162 162 157 162
    003675  aa  056 040 120 162
    003676  aa  157 143 145 163
    003677  aa  163 040 150 141
    003700  aa  163 040 164 145
    003701  aa  162 155 151 156
    003702  aa  141 164 145 144
    003703  aa  056 040 136 141
    003704  aa  136 057 116 145
    003705  aa  167 040 160 162
    003706  aa  157 143 145 163
    003707  aa  163 040 143 162
    003710  aa  145 141 164 145
    003711  aa  144 056 000 000

                                   220   ec  process_create_fail,nocr,(Process cannot be created. Please contact programming staff.)
                        000203          	segdef  process_create_fail
    000203  a0   077777 003714
    003712  aa  156 157 143 162         	aci  "nocr",8
    003713  aa  040 040 040 040
    003714  aa  074 120 162 157         	acc  "Process cannot be created. Please contact programming staff."
    003715  aa  143 145 163 163
    003716  aa  040 143 141 156
    003717  aa  156 157 164 040
    003720  aa  142 145 040 143
    003721  aa  162 145 141 164
    003722  aa  145 144 056 040
    003723  aa  120 154 145 141
    003724  aa  163 145 040 143
    003725  aa  157 156 164 141
    003726  aa  143 164 040 160
    003727  aa  162 157 147 162
    003730  aa  141 155 155 151
    003731  aa  156 147 040 163
    003732  aa  164 141 146 146
    003733  aa  056 000 000 000

                                   221   ec  pw_msg,pw_msg,(Password:)
                        000204          	segdef  pw_msg
    000204  a0   077777 003736
    003734  aa  160 167 137 155         	aci  "pw_msg",8
    003735  aa  163 147 040 040
    003736  aa  011 120 141 163         	acc  "Password:"
    003737  aa  163 167 157 162
    003740  aa  144 072 000 000

                                   222   ec  rq_invalid_now_msg,rqinvlnw,(The ""^a"" request is not valid at this time.)
                        000205          	segdef  rq_invalid_now_msg
    000205  a0   077777 003743
    003741  aa  162 161 151 156         	aci  "rqinvlnw",8
    003742  aa  166 154 156 167
    003743  aa  053 124 150 145         	acc  "The ""^a"" request is not valid at this time."
    003744  aa  040 042 136 141
    003745  aa  042 040 162 145
    003746  aa  161 165 145 163
    003747  aa  164 040 151 163
    003750  aa  040 156 157 164
    003751  aa  040 166 141 154
    003752  aa  151 144 040 141
    003753  aa  164 040 164 150
    003754  aa  151 163 040 164
    003755  aa  151 155 145 056

                                   223   ec  shutdown,shutdown,(Multics is shutting down.)
                        000206          	segdef  shutdown
    000206  a0   077777 003760
    003756  aa  163 150 165 164         	aci  "shutdown",8
    003757  aa  144 157 167 156
    003760  aa  031 115 165 154         	acc  "Multics is shutting down."
    003761  aa  164 151 143 163
    003762  aa  040 151 163 040
    003763  aa  163 150 165 164
    003764  aa  164 151 156 147
    003765  aa  040 144 157 167
    003766  aa  156 056 000 000

                                   224   ec  special_session,specsess,(Special session in progress.)
                        000207          	segdef  special_session
    000207  a0   077777 003771
    003767  aa  163 160 145 143         	aci  "specsess",8
    003770  aa  163 145 163 163
    003771  aa  034 123 160 145         	acc  "Special session in progress."
    003772  aa  143 151 141 154
    003773  aa  040 163 145 163
    003774  aa  163 151 157 156
    003775  aa  040 151 156 040
    003776  aa  160 162 157 147
    003777  aa  162 145 163 163
    004000  aa  056 000 000 000

                                   225   ec  term_by_operator,operterm,(Termination performed by operator.)
                        000210          	segdef  term_by_operator
    000210  a0   077777 004003
    004001  aa  157 160 145 162         	aci  "operterm",8
    004002  aa  164 145 162 155
    004003  aa  042 124 145 162         	acc  "Termination performed by operator."
    004004  aa  155 151 156 141
    004005  aa  164 151 157 156
    004006  aa  040 160 145 162
    004007  aa  146 157 162 155
    004010  aa  145 144 040 142
    004011  aa  171 040 157 160
    004012  aa  145 162 141 164
    004013  aa  157 162 056 000

                                   226   ec  try_again,tryag,(Please try to login again or type ""help"" for instructions.)
                        000211          	segdef  try_again
    000211  a0   077777 004016
    004014  aa  164 162 171 141         	aci  "tryag",8
    004015  aa  147 040 040 040
    004016  aa  072 120 154 145         	acc  "Please try to login again or type ""help"" for instructions."
    004017  aa  141 163 145 040
    004020  aa  164 162 171 040
    004021  aa  164 157 040 154
    004022  aa  157 147 151 156
    004023  aa  040 141 147 141
    004024  aa  151 156 040 157
    004025  aa  162 040 164 171
    004026  aa  160 145 040 042
    004027  aa  150 145 154 160
    004030  aa  042 040 146 157
    004031  aa  162 040 151 156
    004032  aa  163 164 162 165
    004033  aa  143 164 151 157
    004034  aa  156 163 056 000

                                   227   ec  unknown_arg_msg,unkarg,(Unknown argument ""^a"".)
                        000212          	segdef  unknown_arg_msg
    000212  a0   077777 004037
    004035  aa  165 156 153 141         	aci  "unkarg",8
    004036  aa  162 147 040 040
    004037  aa  026 125 156 153         	acc  "Unknown argument ""^a""."
    004040  aa  156 157 167 156
    004041  aa  040 141 162 147
    004042  aa  165 155 145 156
    004043  aa  164 040 042 136
    004044  aa  141 042 056 000

                                   228   ec  unknown_request_msg,unkreq,(Unknown request ""^a"".)
                        000213          	segdef  unknown_request_msg
    000213  a0   077777 004047
    004045  aa  165 156 153 162         	aci  "unkreq",8
    004046  aa  145 161 040 040
    004047  aa  025 125 156 153         	acc  "Unknown request ""^a""."
    004050  aa  156 157 167 156
    004051  aa  040 162 145 161
    004052  aa  165 145 163 164
    004053  aa  040 042 136 141
    004054  aa  042 056 000 000

                                   229   ec  user_typed_quit,userquit,(Login stopped by ""quit"".)
                        000214          	segdef  user_typed_quit
    000214  a0   077777 004057
    004055  aa  165 163 145 162         	aci  "userquit",8
    004056  aa  161 165 151 164
    004057  aa  030 114 157 147         	acc  "Login stopped by ""quit""."
    004060  aa  151 156 040 163
    004061  aa  164 157 160 160
    004062  aa  145 144 040 142
    004063  aa  171 040 042 161
    004064  aa  165 151 164 042
    004065  aa  056 000 000 000

                                   230
                                   231
                                   232  "  Messages produced by dial_ctl_
                                   233
                                   234   ec  dial_connect_msg,dial_ok,( ^a terminal ""^a"" dialed to ^a at ^a.)
                        000215          	segdef  dial_connect_msg
    000215  a0   077777 004070
    004066  aa  144 151 141 154         	aci  "dial_ok",8
    004067  aa  137 157 153 040
    004070  aa  045 040 136 141         	acc  " ^a terminal ""^a"" dialed to ^a at ^a."
    004071  aa  040 164 145 162
    004072  aa  155 151 156 141
    004073  aa  154 040 042 136
    004074  aa  141 042 040 144
    004075  aa  151 141 154 145
    004076  aa  144 040 164 157
    004077  aa  040 136 141 040
    004100  aa  141 164 040 136
    004101  aa  141 056 000 000

                                   235   ec  dial_sys_msg,dial_sys,(^a ^a ^a dialed to Initializer.)
                        000216          	segdef  dial_sys_msg
    000216  a0   077777 004104
    004102  aa  144 151 141 154         	aci  "dial_sys",8
    004103  aa  137 163 171 163
    004104  aa  037 136 141 040         	acc  "^a ^a ^a dialed to Initializer."
    004105  aa  136 141 040 136
    004106  aa  141 040 144 151
    004107  aa  141 154 145 144
    004110  aa  040 164 157 040
    004111  aa  111 156 151 164
    004112  aa  151 141 154 151
    004113  aa  172 145 162 056

                                   236   ec  dialagain,dl_again,(Master process terminated. Please reissue dial command.)
                        000217          	segdef  dialagain
    000217  a0   077777 004116
    004114  aa  144 154 137 141         	aci  "dl_again",8
    004115  aa  147 141 151 156
    004116  aa  067 115 141 163         	acc  "Master process terminated. Please reissue dial command."
    004117  aa  164 145 162 040
    004120  aa  160 162 157 143
    004121  aa  145 163 163 040
    004122  aa  164 145 162 155
    004123  aa  151 156 141 164
    004124  aa  145 144 056 040
    004125  aa  120 154 145 141
    004126  aa  163 145 040 162
    004127  aa  145 151 163 163
    004130  aa  165 145 040 144
    004131  aa  151 141 154 040
    004132  aa  143 157 155 155
    004133  aa  141 156 144 056

                                   237   ec  dialdied,dialdied,(Master process logged out. Dial connection terminated.)
                        000220          	segdef  dialdied
    000220  a0   077777 004136
    004134  aa  144 151 141 154         	aci  "dialdied",8
    004135  aa  144 151 145 144
    004136  aa  066 115 141 163         	acc  "Master process logged out. Dial connection terminated."
    004137  aa  164 145 162 040
    004140  aa  160 162 157 143
    004141  aa  145 163 163 040
    004142  aa  154 157 147 147
    004143  aa  145 144 040 157
    004144  aa  165 164 056 040
    004145  aa  104 151 141 154
    004146  aa  040 143 157 156
    004147  aa  156 145 143 164
    004150  aa  151 157 156 040
    004151  aa  164 145 162 155
    004152  aa  151 156 141 164
    004153  aa  145 144 056 000

                                   238   ec  dialnoline,dlnoline,(Dial line not specified.)
                        000221          	segdef  dialnoline
    000221  a0   077777 004156
    004154  aa  144 154 156 157         	aci  "dlnoline",8
    004155  aa  154 151 156 145
    004156  aa  030 104 151 141         	acc  "Dial line not specified."
    004157  aa  154 040 154 151
    004160  aa  156 145 040 156
    004161  aa  157 164 040 163
    004162  aa  160 145 143 151
    004163  aa  146 151 145 144
    004164  aa  056 000 000 000

                                   239   ec  dialnotup,dialntup,(Dial line not active.)
                        000222          	segdef  dialnotup
    000222  a0   077777 004167
    004165  aa  144 151 141 154         	aci  "dialntup",8
    004166  aa  156 164 165 160
    004167  aa  025 104 151 141         	acc  "Dial line not active."
    004170  aa  154 040 154 151
    004171  aa  156 145 040 156
    004172  aa  157 164 040 141
    004173  aa  143 164 151 166
    004174  aa  145 056 000 000

                                   240
                                   241
                                   242  "  Messages produced by act_ctl_
                                   243
                                   244   ec  cut_proj_date,projdate,(Your project's account is past its termination date.)
                        000223          	segdef  cut_proj_date
    000223  a0   077777 004177
    004175  aa  160 162 157 152         	aci  "projdate",8
    004176  aa  144 141 164 145
    004177  aa  064 131 157 165         	acc  "Your project's account is past its termination date."
    004200  aa  162 040 160 162
    004201  aa  157 152 145 143
    004202  aa  164 047 163 040
    004203  aa  141 143 143 157
    004204  aa  165 156 164 040
    004205  aa  151 163 040 160
    004206  aa  141 163 164 040
    004207  aa  151 164 163 040
    004210  aa  164 145 162 155
    004211  aa  151 156 141 164
    004212  aa  151 157 156 040
    004213  aa  144 141 164 145
    004214  aa  056 000 000 000

                                   245   ec  cut_proj_funds,projfund,(Your project's account is out of funds.)
                        000224          	segdef  cut_proj_funds
    000224  a0   077777 004217
    004215  aa  160 162 157 152         	aci  "projfund",8
    004216  aa  146 165 156 144
    004217  aa  047 131 157 165         	acc  "Your project's account is out of funds."
    004220  aa  162 040 160 162
    004221  aa  157 152 145 143
    004222  aa  164 047 163 040
    004223  aa  141 143 143 157
    004224  aa  165 156 164 040
    004225  aa  151 163 040 157
    004226  aa  165 164 040 157
    004227  aa  146 040 146 165
    004230  aa  156 144 163 056

                                   246   ec  cut_proj_other,projothr,(Your project may not log in. Contact User Accounts.)
                        000225          	segdef  cut_proj_other
    000225  a0   077777 004233
    004231  aa  160 162 157 152         	aci  "projothr",8
    004232  aa  157 164 150 162
    004233  aa  063 131 157 165         	acc  "Your project may not log in. Contact User Accounts."
    004234  aa  162 040 160 162
    004235  aa  157 152 145 143
    004236  aa  164 040 155 141
    004237  aa  171 040 156 157
    004240  aa  164 040 154 157
    004241  aa  147 040 151 156
    004242  aa  056 040 103 157
    004243  aa  156 164 141 143
    004244  aa  164 040 125 163
    004245  aa  145 162 040 101
    004246  aa  143 143 157 165
    004247  aa  156 164 163 056

                                   247   ec  cut_user_cut_msg,abslimit,(User cutoff limit of $^.2f until ^a exceeded.)
                        000226          	segdef  cut_user_cut_msg
    000226  a0   077777 004252
    004250  aa  141 142 163 154         	aci  "abslimit",8
    004251  aa  151 155 151 164
    004252  aa  055 125 163 145         	acc  "User cutoff limit of $^.2f until ^a exceeded."
    004253  aa  162 040 143 165
    004254  aa  164 157 146 146
    004255  aa  040 154 151 155
    004256  aa  151 164 040 157
    004257  aa  146 040 044 136
    004260  aa  056 062 146 040
    004261  aa  165 156 164 151
    004262  aa  154 040 136 141
    004263  aa  040 145 170 143
    004264  aa  145 145 144 145
    004265  aa  144 056 000 000

                                   248   ec  cut_user_date_msg,absdate,(User cutoff date of ^a has arrived.)
                        000227          	segdef  cut_user_date_msg
    000227  a0   077777 004270
    004266  aa  141 142 163 144         	aci  "absdate",8
    004267  aa  141 164 145 040
    004270  aa  043 125 163 145         	acc  "User cutoff date of ^a has arrived."
    004271  aa  162 040 143 165
    004272  aa  164 157 146 146
    004273  aa  040 144 141 164
    004274  aa  145 040 157 146
    004275  aa  040 136 141 040
    004276  aa  150 141 163 040
    004277  aa  141 162 162 151
    004300  aa  166 145 144 056

                                   249   ec  cut_user_limit_msg,limitu,(User resource limit of $^.2f ^a exceeded.)
                        000230          	segdef  cut_user_limit_msg
    000230  a0   077777 004303
    004301  aa  154 151 155 151         	aci  "limitu",8
    004302  aa  164 165 040 040
    004303  aa  051 125 163 145         	acc  "User resource limit of $^.2f ^a exceeded."
    004304  aa  162 040 162 145
    004305  aa  163 157 165 162
    004306  aa  143 145 040 154
    004307  aa  151 155 151 164
    004310  aa  040 157 146 040
    004311  aa  044 136 056 062
    004312  aa  146 040 136 141
    004313  aa  040 145 170 143
    004314  aa  145 145 144 145
    004315  aa  144 056 000 000

                                   250   ec  cut_user_mlim_msg,mnthlim,(User resource limit of $^.2f monthly exceeded.)
                        000231          	segdef  cut_user_mlim_msg
    000231  a0   077777 004320
    004316  aa  155 156 164 150         	aci  "mnthlim",8
    004317  aa  154 151 155 040
    004320  aa  056 125 163 145         	acc  "User resource limit of $^.2f monthly exceeded."
    004321  aa  162 040 162 145
    004322  aa  163 157 165 162
    004323  aa  143 145 040 154
    004324  aa  151 155 151 164
    004325  aa  040 157 146 040
    004326  aa  044 136 056 062
    004327  aa  146 040 155 157
    004330  aa  156 164 150 154
    004331  aa  171 040 145 170
    004332  aa  143 145 145 144
    004333  aa  145 144 056 000

                                   251   ec  cut_user_shift_msg,shiftlim,(User resource limit of $^.2f for shift ^d exceeded.)
                        000232          	segdef  cut_user_shift_msg
    000232  a0   077777 004336
    004334  aa  163 150 151 146         	aci  "shiftlim",8
    004335  aa  164 154 151 155
    004336  aa  063 125 163 145         	acc  "User resource limit of $^.2f for shift ^d exceeded."
    004337  aa  162 040 162 145
    004340  aa  163 157 165 162
    004341  aa  143 145 040 154
    004342  aa  151 155 151 164
    004343  aa  040 157 146 040
    004344  aa  044 136 056 062
    004345  aa  146 040 146 157
    004346  aa  162 040 163 150
    004347  aa  151 146 164 040
    004350  aa  136 144 040 145
    004351  aa  170 143 145 145
    004352  aa  144 145 144 056

                                   252   ec  inactive,inactive,(Maximum inactive time exceeded.)
                        000233          	segdef  inactive
    000233  a0   077777 004355
    004353  aa  151 156 141 143         	aci  "inactive",8
    004354  aa  164 151 166 145
    004355  aa  037 115 141 170         	acc  "Maximum inactive time exceeded."
    004356  aa  151 155 165 155
    004357  aa  040 151 156 141
    004360  aa  143 164 151 166
    004361  aa  145 040 164 151
    004362  aa  155 145 040 145
    004363  aa  170 143 145 145
    004364  aa  144 145 144 056

                                   253   ec  proj_low_funds,wfunds,(Your project's account has less than $^.2f (^d%) of its funds remaining.)
                        000234          	segdef  proj_low_funds
    000234  a0   077777 004367
    004365  aa  167 146 165 156         	aci  "wfunds",8
    004366  aa  144 163 040 040
    004367  aa  110 131 157 165         	acc  "Your project's account has less than $^.2f (^d%) of its funds remaining."
    004370  aa  162 040 160 162
    004371  aa  157 152 145 143
    004372  aa  164 047 163 040
    004373  aa  141 143 143 157
    004374  aa  165 156 164 040
    004375  aa  150 141 163 040
    004376  aa  154 145 163 163
    004377  aa  040 164 150 141
    004400  aa  156 040 044 136
    004401  aa  056 062 146 040
    004402  aa  050 136 144 045
    004403  aa  051 040 157 146
    004404  aa  040 151 164 163
    004405  aa  040 146 165 156
    004406  aa  144 163 040 162
    004407  aa  145 155 141 151
    004410  aa  156 151 156 147
    004411  aa  056 000 000 000

                                   254   ec  user_warn_days,udays,(Your user cutoff will occur on ^a.)
                        000235          	segdef  user_warn_days
    000235  a0   077777 004414
    004412  aa  165 144 141 171         	aci  "udays",8
    004413  aa  163 040 040 040
    004414  aa  042 131 157 165         	acc  "Your user cutoff will occur on ^a."
    004415  aa  162 040 165 163
    004416  aa  145 162 040 143
    004417  aa  165 164 157 146
    004420  aa  146 040 167 151
    004421  aa  154 154 040 157
    004422  aa  143 143 165 162
    004423  aa  040 157 156 040
    004424  aa  136 141 056 000

                                   255   ec  user_warn_funds,ufund,(You have less than $^.2f remaining^a.)
                        000236          	segdef  user_warn_funds
    000236  a0   077777 004427
    004425  aa  165 146 165 156         	aci  "ufund",8
    004426  aa  144 040 040 040
    004427  aa  045 131 157 165         	acc  "You have less than $^.2f remaining^a."
    004430  aa  040 150 141 166
    004431  aa  145 040 154 145
    004432  aa  163 163 040 164
    004433  aa  150 141 156 040
    004434  aa  044 136 056 062
    004435  aa  146 040 162 145
    004436  aa  155 141 151 156
    004437  aa  151 156 147 136
    004440  aa  141 056 000 000

                                   256   ec  user_warn_pct,upct,(You have less than ^d% of your funds remaining^a.)
                        000237          	segdef  user_warn_pct
    000237  a0   077777 004443
    004441  aa  165 160 143 164         	aci  "upct",8
    004442  aa  040 040 040 040
    004443  aa  061 131 157 165         	acc  "You have less than ^d% of your funds remaining^a."
    004444  aa  040 150 141 166
    004445  aa  145 040 154 145
    004446  aa  163 163 040 164
    004447  aa  150 141 156 040
    004450  aa  136 144 045 040
    004451  aa  157 146 040 171
    004452  aa  157 165 162 040
    004453  aa  146 165 156 144
    004454  aa  163 040 162 145
    004455  aa  155 141 151 156
    004456  aa  151 156 147 136
    004457  aa  141 056 000 000

                                   257   ec  warn_proj_date,wdate,(Your project's account has less than ^d days until its termination date.)
                        000240          	segdef  warn_proj_date
    000240  a0   077777 004462
    004460  aa  167 144 141 164         	aci  "wdate",8
    004461  aa  145 040 040 040
    004462  aa  110 131 157 165         	acc  "Your project's account has less than ^d days until its termination date."
    004463  aa  162 040 160 162
    004464  aa  157 152 145 143
    004465  aa  164 047 163 040
    004466  aa  141 143 143 157
    004467  aa  165 156 164 040
    004470  aa  150 141 163 040
    004471  aa  154 145 163 163
    004472  aa  040 164 150 141
    004473  aa  156 040 136 144
    004474  aa  040 144 141 171
    004475  aa  163 040 165 156
    004476  aa  164 151 154 040
    004477  aa  151 164 163 040
    004500  aa  164 145 162 155
    004501  aa  151 156 141 164
    004502  aa  151 157 156 040
    004503  aa  144 141 164 145
    004504  aa  056 000 000 000

                                   258
                                   259
                                   260  "  Messages produced by load_ctl_
                                   261
                                   262   ec  bumped_in_group,bump_grp,()
                        000241          	segdef  bumped_in_group
    000241  a0   077777 004507
    004505  aa  142 165 155 160         	aci  "bump_grp",8
    004506  aa  137 147 162 160
    004507  aa  000 000 000 000         	acc  ""

                                   263   ec  bumped_secondary,bump_sec,()
                        000242          	segdef  bumped_secondary
    000242  a0   077777 004512
    004510  aa  142 165 155 160         	aci  "bump_sec",8
    004511  aa  137 163 145 143
    004512  aa  000 000 000 000         	acc  ""

                                   264   ec  gpabsmax,gpabsmax,(Load control group full. Please try again later.)
                        000243          	segdef  gpabsmax
    000243  a0   077777 004515
    004513  aa  147 160 141 142         	aci  "gpabsmax",8
    004514  aa  163 155 141 170
    004515  aa  060 114 157 141         	acc  "Load control group full. Please try again later."
    004516  aa  144 040 143 157
    004517  aa  156 164 162 157
    004520  aa  154 040 147 162
    004521  aa  157 165 160 040
    004522  aa  146 165 154 154
    004523  aa  056 040 120 154
    004524  aa  145 141 163 145
    004525  aa  040 164 162 171
    004526  aa  040 141 147 141
    004527  aa  151 156 040 154
    004530  aa  141 164 145 162
    004531  aa  056 000 000 000

                                   265   ec  groupmax,groupmax,(Load control group full. Please try again later.)
                        000244          	segdef  groupmax
    000244  a0   077777 004534
    004532  aa  147 162 157 165         	aci  "groupmax",8
    004533  aa  160 155 141 170
    004534  aa  060 114 157 141         	acc  "Load control group full. Please try again later."
    004535  aa  144 040 143 157
    004536  aa  156 164 162 157
    004537  aa  154 040 147 162
    004540  aa  157 165 160 040
    004541  aa  146 165 154 154
    004542  aa  056 040 120 154
    004543  aa  145 141 163 145
    004544  aa  040 164 162 171
    004545  aa  040 141 147 141
    004546  aa  151 156 040 154
    004547  aa  141 164 145 162
    004550  aa  056 000 000 000

                                   266   ec  grp_full,grp_full,(Load control group full. Please try again later.)
                        000245          	segdef  grp_full
    000245  a0   077777 004553
    004551  aa  147 162 160 137         	aci  "grp_full",8
    004552  aa  146 165 154 154
    004553  aa  060 114 157 141         	acc  "Load control group full. Please try again later."
    004554  aa  144 040 143 157
    004555  aa  156 164 162 157
    004556  aa  154 040 147 162
    004557  aa  157 165 160 040
    004560  aa  146 165 154 154
    004561  aa  056 040 120 154
    004562  aa  145 141 163 145
    004563  aa  040 164 162 171
    004564  aa  040 141 147 141
    004565  aa  151 156 040 154
    004566  aa  141 164 145 162
    004567  aa  056 000 000 000

                                   267   ec  nf_nosec,nf_nosec,(Load control group full. Please try again later.)
                        000246          	segdef  nf_nosec
    000246  a0   077777 004572
    004570  aa  156 146 137 156         	aci  "nf_nosec",8
    004571  aa  157 163 145 143
    004572  aa  060 114 157 141         	acc  "Load control group full. Please try again later."
    004573  aa  144 040 143 157
    004574  aa  156 164 162 157
    004575  aa  154 040 147 162
    004576  aa  157 165 160 040
    004577  aa  146 165 154 154
    004600  aa  056 040 120 154
    004601  aa  145 141 163 145
    004602  aa  040 164 162 171
    004603  aa  040 141 147 141
    004604  aa  151 156 040 154
    004605  aa  141 164 145 162
    004606  aa  056 000 000 000

                                   268   ec  no_group,no_group,(Error in load control tables.)
                        000247          	segdef  no_group
    000247  a0   077777 004611
    004607  aa  156 157 137 147         	aci  "no_group",8
    004610  aa  162 157 165 160
    004611  aa  035 105 162 162         	acc  "Error in load control tables."
    004612  aa  157 162 040 151
    004613  aa  156 040 154 157
    004614  aa  141 144 040 143
    004615  aa  157 156 164 162
    004616  aa  157 154 040 164
    004617  aa  141 142 154 145
    004620  aa  163 056 000 000

                                   269   ec  no_primary,no_prime,(User may not be primary.)
                        000250          	segdef  no_primary
    000250  a0   077777 004623
    004621  aa  156 157 137 160         	aci  "no_prime",8
    004622  aa  162 151 155 145
    004623  aa  030 125 163 145         	acc  "User may not be primary."
    004624  aa  162 040 155 141
    004625  aa  171 040 156 157
    004626  aa  164 040 142 145
    004627  aa  040 160 162 151
    004630  aa  155 141 162 171
    004631  aa  056 000 000 000

                                   270   ec  no_user_to_bump,cant_bum,(Load control group full. Please try again later.)
                        000251          	segdef  no_user_to_bump
    000251  a0   077777 004634
    004632  aa  143 141 156 164         	aci  "cant_bum",8
    004633  aa  137 142 165 155
    004634  aa  060 114 157 141         	acc  "Load control group full. Please try again later."
    004635  aa  144 040 143 157
    004636  aa  156 164 162 157
    004637  aa  154 040 147 162
    004640  aa  157 165 160 040
    004641  aa  146 165 154 154
    004642  aa  056 040 120 154
    004643  aa  145 141 163 145
    004644  aa  040 164 162 171
    004645  aa  040 141 147 141
    004646  aa  151 156 040 154
    004647  aa  141 164 145 162
    004650  aa  056 000 000 000

                                   271   ec  not_full,not_full,()
                        000252          	segdef  not_full
    000252  a0   077777 004653
    004651  aa  156 157 164 137         	aci  "not_full",8
    004652  aa  146 165 154 154
    004653  aa  000 000 000 000         	acc  ""

                                   272   ec  preempt_emergency,pr_emrg,(Emergency preemption.)
                        000253          	segdef  preempt_emergency
    000253  a0   077777 004656
    004654  aa  160 162 137 145         	aci  "pr_emrg",8
    004655  aa  155 162 147 040
    004656  aa  025 105 155 145         	acc  "Emergency preemption."
    004657  aa  162 147 145 156
    004660  aa  143 171 040 160
    004661  aa  162 145 145 155
    004662  aa  160 164 151 157
    004663  aa  156 056 000 000

                                   273   ec  preempt_emergency_prime,pr_emrgx,(Emergency prime preemption.)
                        000254          	segdef  preempt_emergency_prime
    000254  a0   077777 004666
    004664  aa  160 162 137 145         	aci  "pr_emrgx",8
    004665  aa  155 162 147 170
    004666  aa  033 105 155 145         	acc  "Emergency prime preemption."
    004667  aa  162 147 145 156
    004670  aa  143 171 040 160
    004671  aa  162 151 155 145
    004672  aa  040 160 162 145
    004673  aa  145 155 160 164
    004674  aa  151 157 156 056

                                   274   ec  preempt_group,pr_grp,(Group preemption.)
                        000255          	segdef  preempt_group
    000255  a0   077777 004677
    004675  aa  160 162 137 147         	aci  "pr_grp",8
    004676  aa  162 160 040 040
    004677  aa  021 107 162 157         	acc  "Group preemption."
    004700  aa  165 160 040 160
    004701  aa  162 145 145 155
    004702  aa  160 164 151 157
    004703  aa  156 056 000 000

                                   275   ec  preempt_secondary,pr_sec,(Secondary user preemption.)
                        000256          	segdef  preempt_secondary
    000256  a0   077777 004706
    004704  aa  160 162 137 163         	aci  "pr_sec",8
    004705  aa  145 143 040 040
    004706  aa  032 123 145 143         	acc  "Secondary user preemption."
    004707  aa  157 156 144 141
    004710  aa  162 171 040 165
    004711  aa  163 145 162 040
    004712  aa  160 162 145 145
    004713  aa  155 160 164 151
    004714  aa  157 156 056 000

                                   276   ec  proj_max,proj_max,(Project maximum users exceeded.)
                        000257          	segdef  proj_max
    000257  a0   077777 004717
    004715  aa  160 162 157 152         	aci  "proj_max",8
    004716  aa  137 155 141 170
    004717  aa  037 120 162 157         	acc  "Project maximum users exceeded."
    004720  aa  152 145 143 164
    004721  aa  040 155 141 170
    004722  aa  151 155 165 155
    004723  aa  040 165 163 145
    004724  aa  162 163 040 145
    004725  aa  170 143 145 145
    004726  aa  144 145 144 056

                                   277   ec  protec_msg,protec,(You are protected from preemption.)
                        000260          	segdef  protec_msg
    000260  a0   077777 004731
    004727  aa  160 162 157 164         	aci  "protec",8
    004730  aa  145 143 040 040
    004731  aa  042 131 157 165         	acc  "You are protected from preemption."
    004732  aa  040 141 162 145
    004733  aa  040 160 162 157
    004734  aa  164 145 143 164
    004735  aa  145 144 040 146
    004736  aa  162 157 155 040
    004737  aa  160 162 145 145
    004740  aa  155 160 164 151
    004741  aa  157 156 056 000

                                   278   ec  protec_till_msg,protec1,(You are protected from preemption until ^a.)
                        000261          	segdef  protec_till_msg
    000261  a0   077777 004744
    004742  aa  160 162 157 164         	aci  "protec1",8
    004743  aa  145 143 061 040
    004744  aa  053 131 157 165         	acc  "You are protected from preemption until ^a."
    004745  aa  040 141 162 145
    004746  aa  040 160 162 157
    004747  aa  164 145 143 164
    004750  aa  145 144 040 146
    004751  aa  162 157 155 040
    004752  aa  160 162 145 145
    004753  aa  155 160 164 151
    004754  aa  157 156 040 165
    004755  aa  156 164 151 154
    004756  aa  040 136 141 056

                                   279   ec  saturate,saturate,(There is no room to create a user process.)
                        000262          	segdef  saturate
    000262  a0   077777 004761
    004757  aa  163 141 164 165         	aci  "saturate",8
    004760  aa  162 141 164 145
    004761  aa  052 124 150 145         	acc  "There is no room to create a user process."
    004762  aa  162 145 040 151
    004763  aa  163 040 156 157
    004764  aa  040 162 157 157
    004765  aa  155 040 164 157
    004766  aa  040 143 162 145
    004767  aa  141 164 145 040
    004770  aa  141 040 165 163
    004771  aa  145 162 040 160
    004772  aa  162 157 143 145
    004773  aa  163 163 056 000

                                   280   ec  subject,subject,(You are subject to preemption.)
                        000263          	segdef  subject
    000263  a0   077777 004776
    004774  aa  163 165 142 152         	aci  "subject",8
    004775  aa  145 143 164 040
    004776  aa  036 131 157 165         	acc  "You are subject to preemption."
    004777  aa  040 141 162 145
    005000  aa  040 163 165 142
    005001  aa  152 145 143 164
    005002  aa  040 164 157 040
    005003  aa  160 162 145 145
    005004  aa  155 160 164 151
    005005  aa  157 156 056 000

                                   281   ec  sys_full,sys_full,(System full. Please try again later.)
                        000264          	segdef  sys_full
    000264  a0   077777 005010
    005006  aa  163 171 163 137         	aci  "sys_full",8
    005007  aa  146 165 154 154
    005010  aa  044 123 171 163         	acc  "System full. Please try again later."
    005011  aa  164 145 155 040
    005012  aa  146 165 154 154
    005013  aa  056 040 120 154
    005014  aa  145 141 163 145
    005015  aa  040 164 162 171
    005016  aa  040 141 147 141
    005017  aa  151 156 040 154
    005020  aa  141 164 145 162
    005021  aa  056 000 000 000

                                   282   ec  sysgrpfl,sysgrpfl,(Load control group full. Please try again later.)
                        000265          	segdef  sysgrpfl
    000265  a0   077777 005024
    005022  aa  163 171 163 147         	aci  "sysgrpfl",8
    005023  aa  162 160 146 154
    005024  aa  060 114 157 141         	acc  "Load control group full. Please try again later."
    005025  aa  144 040 143 157
    005026  aa  156 164 162 157
    005027  aa  154 040 147 162
    005030  aa  157 165 160 040
    005031  aa  146 165 154 154
    005032  aa  056 040 120 154
    005033  aa  145 141 163 145
    005034  aa  040 164 162 171
    005035  aa  040 141 147 141
    005036  aa  151 156 040 154
    005037  aa  141 164 145 162
    005040  aa  056 000 000 000

                                   283
                                   284
                                   285  "  Messages produced by admin
                                   286
                                   287   ec  admin_mode_busy,ambsy,(Another terminal is already in admin mode.)
                        000266          	segdef  admin_mode_busy
    000266  a0   077777 005043
    005041  aa  141 155 142 163         	aci  "ambsy",8
    005042  aa  171 040 040 040
    005043  aa  052 101 156 157         	acc  "Another terminal is already in admin mode."
    005044  aa  164 150 145 162
    005045  aa  040 164 145 162
    005046  aa  155 151 156 141
    005047  aa  154 040 151 163
    005050  aa  040 141 154 162
    005051  aa  145 141 144 171
    005052  aa  040 151 156 040
    005053  aa  141 144 155 151
    005054  aa  156 040 155 157
    005055  aa  144 145 056 000

                                   288   ec  special_sess_msg,specmsg,(Special Session in progress.)
                        000267          	segdef  special_sess_msg
    000267  a0   077777 005060
    005056  aa  163 160 145 143         	aci  "specmsg",8
    005057  aa  155 163 147 040
    005060  aa  034 123 160 145         	acc  "Special Session in progress."
    005061  aa  143 151 141 154
    005062  aa  040 123 145 163
    005063  aa  163 151 157 156
    005064  aa  040 151 156 040
    005065  aa  160 162 157 147
    005066  aa  162 145 163 163
    005067  aa  056 000 000 000

                                   289   ec  sys_down_msg,sysdown,(Multics is shutting down. ^a)
                        000270          	segdef  sys_down_msg
    000270  a0   077777 005072
    005070  aa  163 171 163 144         	aci  "sysdown",8
    005071  aa  157 167 156 040
    005072  aa  034 115 165 154         	acc  "Multics is shutting down. ^a"
    005073  aa  164 151 143 163
    005074  aa  040 151 163 040
    005075  aa  163 150 165 164
    005076  aa  164 151 156 147
    005077  aa  040 144 157 167
    005100  aa  156 056 040 136
    005101  aa  141 000 000 000

                                   290   ec  try_again_at_msg,tagat,(Try again at ^a.)
                        000271          	segdef  try_again_at_msg
    000271  a0   077777 005104
    005102  aa  164 141 147 141         	aci  "tagat",8
    005103  aa  164 040 040 040
    005104  aa  020 124 162 171         	acc  "Try again at ^a."
    005105  aa  040 141 147 141
    005106  aa  151 156 040 141
    005107  aa  164 040 136 141
    005110  aa  056 000 000 000

                                   291   ec  warn_msg,warn,(^/^/******** ^a^/From Operator: ^a^/********^/)
                        000272          	segdef  warn_msg
    000272  a0   077777 005113
    005111  aa  167 141 162 156         	aci  "warn",8
    005112  aa  040 040 040 040
    005113  aa  056 136 057 136         	acc  "^/^/******** ^a^/From Operator: ^a^/********^/"
    005114  aa  057 052 052 052
    005115  aa  052 052 052 052
    005116  aa  052 040 136 141
    005117  aa  136 057 106 162
    005120  aa  157 155 040 117
    005121  aa  160 145 162 141
    005122  aa  164 157 162 072
    005123  aa  040 136 141 136
    005124  aa  057 052 052 052
    005125  aa  052 052 052 052
    005126  aa  052 136 057 000

                                   292
                                   293
                                   294  "  Messages produced by table updating.
                                   295
                                   296   ec  chn_auth_excludes,chndown,(Channel authorization changed to exclude user authorization range.)
                        000273          	segdef  chn_auth_excludes
    000273  a0   077777 005131
    005127  aa  143 150 156 144         	aci  "chndown",8
    005130  aa  157 167 156 040
    005131  aa  102 103 150 141         	acc  "Channel authorization changed to exclude user authorization range."
    005132  aa  156 156 145 154
    005133  aa  040 141 165 164
    005134  aa  150 157 162 151
    005135  aa  172 141 164 151
    005136  aa  157 156 040 143
    005137  aa  150 141 156 147
    005140  aa  145 144 040 164
    005141  aa  157 040 145 170
    005142  aa  143 154 165 144
    005143  aa  145 040 165 163
    005144  aa  145 162 040 141
    005145  aa  165 164 150 157
    005146  aa  162 151 172 141
    005147  aa  164 151 157 156
    005150  aa  040 162 141 156
    005151  aa  147 145 056 000

                                   297   ec  chn_deleted,chndelet,(Terminal channel deleted.)
                        000274          	segdef  chn_deleted
    000274  a0   077777 005154
    005152  aa  143 150 156 144         	aci  "chndelet",8
    005153  aa  145 154 145 164
    005154  aa  031 124 145 162         	acc  "Terminal channel deleted."
    005155  aa  155 151 156 141
    005156  aa  154 040 143 150
    005157  aa  141 156 156 145
    005160  aa  154 040 144 145
    005161  aa  154 145 164 145
    005162  aa  144 056 000 000

                                   298   ec  chn_svc_changed,chnsvchg,(Terminal channel service type changed.)
                        000275          	segdef  chn_svc_changed
    000275  a0   077777 005165
    005163  aa  143 150 156 163         	aci  "chnsvchg",8
    005164  aa  166 143 150 147
    005165  aa  046 124 145 162         	acc  "Terminal channel service type changed."
    005166  aa  155 151 156 141
    005167  aa  154 040 143 150
    005170  aa  141 156 156 145
    005171  aa  154 040 163 145
    005172  aa  162 166 151 143
    005173  aa  145 040 164 171
    005174  aa  160 145 040 143
    005175  aa  150 141 156 147
    005176  aa  145 144 056 000

                                   299   ec  person_auth_excludes,persdown,(User PNT authorization changed to exclude authorization range.)
                        000276          	segdef  person_auth_excludes
    000276  a0   077777 005201
    005177  aa  160 145 162 163         	aci  "persdown",8
    005200  aa  144 157 167 156
    005201  aa  076 125 163 145         	acc  "User PNT authorization changed to exclude authorization range."
    005202  aa  162 040 120 116
    005203  aa  124 040 141 165
    005204  aa  164 150 157 162
    005205  aa  151 172 141 164
    005206  aa  151 157 156 040
    005207  aa  143 150 141 156
    005210  aa  147 145 144 040
    005211  aa  164 157 040 145
    005212  aa  170 143 154 165
    005213  aa  144 145 040 141
    005214  aa  165 164 150 157
    005215  aa  162 151 172 141
    005216  aa  164 151 157 156
    005217  aa  040 162 141 156
    005220  aa  147 145 056 000

                                   300   ec  proj_auth_excludes,projdown,(Project authorization changed to exclude user authorization range.)
                        000277          	segdef  proj_auth_excludes
    000277  a0   077777 005223
    005221  aa  160 162 157 152         	aci  "projdown",8
    005222  aa  144 157 167 156
    005223  aa  102 120 162 157         	acc  "Project authorization changed to exclude user authorization range."
    005224  aa  152 145 143 164
    005225  aa  040 141 165 164
    005226  aa  150 157 162 151
    005227  aa  172 141 164 151
    005230  aa  157 156 040 143
    005231  aa  150 141 156 147
    005232  aa  145 144 040 164
    005233  aa  157 040 145 170
    005234  aa  143 154 165 144
    005235  aa  145 040 165 163
    005236  aa  145 162 040 141
    005237  aa  165 164 150 157
    005240  aa  162 151 172 141
    005241  aa  164 151 157 156
    005242  aa  040 162 141 156
    005243  aa  147 145 056 000

                                   301   ec  proj_deleted,jdelete,(Project deleted.)
                        000300          	segdef  proj_deleted
    000300  a0   077777 005246
    005244  aa  152 144 145 154         	aci  "jdelete",8
    005245  aa  145 164 145 040
    005246  aa  020 120 162 157         	acc  "Project deleted."
    005247  aa  152 145 143 164
    005250  aa  040 144 145 154
    005251  aa  145 164 145 144
    005252  aa  056 000 000 000

                                   302   ec  user_auth_excludes,userdown,(User authorization range now excludes current authorization.)
                        000301          	segdef  user_auth_excludes
    000301  a0   077777 005255
    005253  aa  165 163 145 162         	aci  "userdown",8
    005254  aa  144 157 167 156
    005255  aa  074 125 163 145         	acc  "User authorization range now excludes current authorization."
    005256  aa  162 040 141 165
    005257  aa  164 150 157 162
    005260  aa  151 172 141 164
    005261  aa  151 157 156 040
    005262  aa  162 141 156 147
    005263  aa  145 040 156 157
    005264  aa  167 040 145 170
    005265  aa  143 154 165 144
    005266  aa  145 163 040 143
    005267  aa  165 162 162 145
    005270  aa  156 164 040 141
    005271  aa  165 164 150 157
    005272  aa  162 151 172 141
    005273  aa  164 151 157 156
    005274  aa  056 000 000 000

                                   303   ec  user_deleted,udelete,(User deleted from project.)
                        000302          	segdef  user_deleted
    000302  a0   077777 005277
    005275  aa  165 144 145 154         	aci  "udelete",8
    005276  aa  145 164 145 040
    005277  aa  032 125 163 145         	acc  "User deleted from project."
    005300  aa  162 040 144 145
    005301  aa  154 145 164 145
    005302  aa  144 040 146 162
    005303  aa  157 155 040 160
    005304  aa  162 157 152 145
    005305  aa  143 164 056 000

                                   304
                                   305
                                   306  "  Messages produced by asu_
                                   307
                                   308   ec  bump_cancelled,bumpcanc,(Your automatic logout has been cancelled.)
                        000303          	segdef  bump_cancelled
    000303  a0   077777 005310
    005306  aa  142 165 155 160         	aci  "bumpcanc",8
    005307  aa  143 141 156 143
    005310  aa  051 131 157 165         	acc  "Your automatic logout has been cancelled."
    005311  aa  162 040 141 165
    005312  aa  164 157 155 141
    005313  aa  164 151 143 040
    005314  aa  154 157 147 157
    005315  aa  165 164 040 150
    005316  aa  141 163 040 142
    005317  aa  145 145 156 040
    005320  aa  143 141 156 143
    005321  aa  145 154 154 145
    005322  aa  144 056 000 000

                                   309   ec  bump_mins_msg,bump_min,(^/You will be logged out in ^d minutes^a.)
                        000304          	segdef  bump_mins_msg
    000304  a0   077777 005325
    005323  aa  142 165 155 160         	aci  "bump_min",8
    005324  aa  137 155 151 156
    005325  aa  051 136 057 131         	acc  "^/You will be logged out in ^d minutes^a."
    005326  aa  157 165 040 167
    005327  aa  151 154 154 040
    005330  aa  142 145 040 154
    005331  aa  157 147 147 145
    005332  aa  144 040 157 165
    005333  aa  164 040 151 156
    005334  aa  040 136 144 040
    005335  aa  155 151 156 165
    005336  aa  164 145 163 136
    005337  aa  141 056 000 000

                                   310   ec  bump_secs_msg,bump_sec,(^/You will be logged out in ^d seconds^a.)
                        000305          	segdef  bump_secs_msg
    000305  a0   077777 005342
    005340  aa  142 165 155 160         	aci  "bump_sec",8
    005341  aa  137 163 145 143
    005342  aa  051 136 057 131         	acc  "^/You will be logged out in ^d seconds^a."
    005343  aa  157 165 040 167
    005344  aa  151 154 154 040
    005345  aa  142 145 040 154
    005346  aa  157 147 147 145
    005347  aa  144 040 157 165
    005350  aa  164 040 151 156
    005351  aa  040 136 144 040
    005352  aa  163 145 143 157
    005353  aa  156 144 163 136
    005354  aa  141 056 000 000

                                   311   ec  from_multics_msg,from_mx,(^/******** ^a^/From Multics: ^a^a^/********)
                        000306          	segdef  from_multics_msg
    000306  a0   077777 005357
    005355  aa  146 162 157 155         	aci  "from_mx",8
    005356  aa  137 155 170 040
    005357  aa  053 136 057 052         	acc  "^/******** ^a^/From Multics: ^a^a^/********"
    005360  aa  052 052 052 052
    005361  aa  052 052 052 040
    005362  aa  136 141 136 057
    005363  aa  106 162 157 155
    005364  aa  040 115 165 154
    005365  aa  164 151 143 163
    005366  aa  072 040 136 141
    005367  aa  136 141 136 057
    005370  aa  052 052 052 052
    005371  aa  052 052 052 052

                                   312   ec  tty_already,ttyalrdy,(This channel is already known.)
                        000307          	segdef  tty_already
    000307  a0   077777 005374
    005372  aa  164 164 171 141         	aci  "ttyalrdy",8
    005373  aa  154 162 144 171
    005374  aa  036 124 150 151         	acc  "This channel is already known."
    005375  aa  163 040 143 150
    005376  aa  141 156 156 145
    005377  aa  154 040 151 163
    005400  aa  040 141 154 162
    005401  aa  145 141 144 171
    005402  aa  040 153 156 157
    005403  aa  167 156 056 000

                                   313   ec  tty_dim_err,ttyerror,(TTY-dim error on this channel.)
                        000310          	segdef  tty_dim_err
    000310  a0   077777 005406
    005404  aa  164 164 171 145         	aci  "ttyerror",8
    005405  aa  162 162 157 162
    005406  aa  036 124 124 131         	acc  "TTY-dim error on this channel."
    005407  aa  055 144 151 155
    005410  aa  040 145 162 162
    005411  aa  157 162 040 157
    005412  aa  156 040 164 150
    005413  aa  151 163 040 143
    005414  aa  150 141 156 156
    005415  aa  145 154 056 000

                                   314   ec  tty_is_master,ttymastr,(This channel is the initializer console and should not be in the cdt.)
                        000311          	segdef  tty_is_master
    000311  a0   077777 005420
    005416  aa  164 164 171 155         	aci  "ttymastr",8
    005417  aa  141 163 164 162
    005420  aa  105 124 150 151         	acc  "This channel is the initializer console and should not be in the cdt."
    005421  aa  163 040 143 150
    005422  aa  141 156 156 145
    005423  aa  154 040 151 163
    005424  aa  040 164 150 145
    005425  aa  040 151 156 151
    005426  aa  164 151 141 154
    005427  aa  151 172 145 162
    005430  aa  040 143 157 156
    005431  aa  163 157 154 145
    005432  aa  040 141 156 144
    005433  aa  040 163 150 157
    005434  aa  165 154 144 040
    005435  aa  156 157 164 040
    005436  aa  142 145 040 151
    005437  aa  156 040 164 150
    005440  aa  145 040 143 144
    005441  aa  164 056 000 000

                                   315   ec  tty_no_room,ttynroom,(There is no room in the answer table for this channel.)
                        000312          	segdef  tty_no_room
    000312  a0   077777 005444
    005442  aa  164 164 171 156         	aci  "ttynroom",8
    005443  aa  162 157 157 155
    005444  aa  066 124 150 145         	acc  "There is no room in the answer table for this channel."
    005445  aa  162 145 040 151
    005446  aa  163 040 156 157
    005447  aa  040 162 157 157
    005450  aa  155 040 151 156
    005451  aa  040 164 150 145
    005452  aa  040 141 156 163
    005453  aa  167 145 162 040
    005454  aa  164 141 142 154
    005455  aa  145 040 146 157
    005456  aa  162 040 164 150
    005457  aa  151 163 040 143
    005460  aa  150 141 156 156
    005461  aa  145 154 056 000

                                   316
                                   317
                                   318  "  Messages involved with the CDT
                                   319
                                   320   ec  cdt_not_shut_down,cdt^shut,(The CDT was not shut down from the previous Multics session. It may be inconsistent.)
                        000313          	segdef  cdt_not_shut_down
    000313  a0   077777 005464
    005462  aa  143 144 164 136         	aci  "cdt^shut",8
    005463  aa  163 150 165 164
    005464  aa  124 124 150 145         	acc  "The CDT was not shut down from the previous Multics session. It may be inconsistent."
    005465  aa  040 103 104 124
    005466  aa  040 167 141 163
    005467  aa  040 156 157 164
    005470  aa  040 163 150 165
    005471  aa  164 040 144 157
    005472  aa  167 156 040 146
    005473  aa  162 157 155 040
    005474  aa  164 150 145 040
    005475  aa  160 162 145 166
    005476  aa  151 157 165 163
    005477  aa  040 115 165 154
    005500  aa  164 151 143 163
    005501  aa  040 163 145 163
    005502  aa  163 151 157 156
    005503  aa  056 040 111 164
    005504  aa  040 155 141 171
    005505  aa  040 142 145 040
    005506  aa  151 156 143 157
    005507  aa  156 163 151 163
    005510  aa  164 145 156 164
    005511  aa  056 000 000 000

                                   321   ec  cdt_rethreading_error,errrthd,(Error while rethreading CDT. Operation aborted.)
                        000314          	segdef  cdt_rethreading_error
    000314  a0   077777 005514
    005512  aa  145 162 162 162         	aci  "errrthd",8
    005513  aa  164 150 144 040
    005514  aa  057 105 162 162         	acc  "Error while rethreading CDT. Operation aborted."
    005515  aa  157 162 040 167
    005516  aa  150 151 154 145
    005517  aa  040 162 145 164
    005520  aa  150 162 145 141
    005521  aa  144 151 156 147
    005522  aa  040 103 104 124
    005523  aa  056 040 117 160
    005524  aa  145 162 141 164
    005525  aa  151 157 156 040
    005526  aa  141 142 157 162
    005527  aa  164 145 144 056

                                   322   ec  cdte_in_use_wrong,badinuse,(The counts of CDT entries in use do not agree with the header. The header is corrected.)
                        000315          	segdef  cdte_in_use_wrong
    000315  a0   077777 005532
    005530  aa  142 141 144 151         	aci  "badinuse",8
    005531  aa  156 165 163 145
    005532  aa  127 124 150 145         	acc  "The counts of CDT entries in use do not agree with the header. The header is corrected."
    005533  aa  040 143 157 165
    005534  aa  156 164 163 040
    005535  aa  157 146 040 103
    005536  aa  104 124 040 145
    005537  aa  156 164 162 151
    005540  aa  145 163 040 151
    005541  aa  156 040 165 163
    005542  aa  145 040 144 157
    005543  aa  040 156 157 164
    005544  aa  040 141 147 162
    005545  aa  145 145 040 167
    005546  aa  151 164 150 040
    005547  aa  164 150 145 040
    005550  aa  150 145 141 144
    005551  aa  145 162 056 040
    005552  aa  124 150 145 040
    005553  aa  150 145 141 144
    005554  aa  145 162 040 151
    005555  aa  163 040 143 157
    005556  aa  162 162 145 143
    005557  aa  164 145 144 056

                                   323   ec  illegal_top_mpx_name,cdtbtn,(A channel was found with a name reserved for a FNP.)
                        000316          	segdef  illegal_top_mpx_name
    000316  a0   077777 005562
    005560  aa  143 144 164 142         	aci  "cdtbtn",8
    005561  aa  164 156 040 040
    005562  aa  063 101 040 143         	acc  "A channel was found with a name reserved for a FNP."
    005563  aa  150 141 156 156
    005564  aa  145 154 040 167
    005565  aa  141 163 040 146
    005566  aa  157 165 156 144
    005567  aa  040 167 151 164
    005570  aa  150 040 141 040
    005571  aa  156 141 155 145
    005572  aa  040 162 145 163
    005573  aa  145 162 166 145
    005574  aa  144 040 146 157
    005575  aa  162 040 141 040
    005576  aa  106 116 120 056

                                   324   ec  repeated_cdt_damage,rptdmg,(Repeated damage to cdt threads encountered. Operation aborted.)
                        000317          	segdef  repeated_cdt_damage
    000317  a0   077777 005601
    005577  aa  162 160 164 144         	aci  "rptdmg",8
    005600  aa  155 147 040 040
    005601  aa  076 122 145 160         	acc  "Repeated damage to cdt threads encountered. Operation aborted."
    005602  aa  145 141 164 145
    005603  aa  144 040 144 141
    005604  aa  155 141 147 145
    005605  aa  040 164 157 040
    005606  aa  143 144 164 040
    005607  aa  164 150 162 145
    005610  aa  141 144 163 040
    005611  aa  145 156 143 157
    005612  aa  165 156 164 145
    005613  aa  162 145 144 056
    005614  aa  040 117 160 145
    005615  aa  162 141 164 151
    005616  aa  157 156 040 141
    005617  aa  142 157 162 164
    005620  aa  145 144 056 000

                                   325   ec  salvage_cdt,salvcdt,(Threading inconsistencies found in CDT. Salvaging needed.)
                        000320          	segdef  salvage_cdt
    000320  a0   077777 005623
    005621  aa  163 141 154 166         	aci  "salvcdt",8
    005622  aa  143 144 164 040
    005623  aa  071 124 150 162         	acc  "Threading inconsistencies found in CDT. Salvaging needed."
    005624  aa  145 141 144 151
    005625  aa  156 147 040 151
    005626  aa  156 143 157 156
    005627  aa  163 151 163 164
    005630  aa  145 156 143 151
    005631  aa  145 163 040 146
    005632  aa  157 165 156 144
    005633  aa  040 151 156 040
    005634  aa  103 104 124 056
    005635  aa  040 123 141 154
    005636  aa  166 141 147 151
    005637  aa  156 147 040 156
    005640  aa  145 145 144 145
    005641  aa  144 056 000 000

                                   326
                                   327
                                   328  "  Messages for login server support
                                   329
                                   330   ec  already_logged_in,alrdlog,(You are already logged in.)
                        000321          	segdef  already_logged_in
    000321  a0   077777 005644
    005642  aa  141 154 162 144         	aci  "alrdlog",8
    005643  aa  154 157 147 040
    005644  aa  032 131 157 165         	acc  "You are already logged in."
    005645  aa  040 141 162 145
    005646  aa  040 141 154 162
    005647  aa  145 141 144 171
    005650  aa  040 154 157 147
    005651  aa  147 145 144 040
    005652  aa  151 156 056 000

                                   331
                                   332  	end

NO LITERALS

NAME DEFINITIONS FOR ENTRY POINTS AND SEGDEFS

    005654  5a   000003 000000
    005655  5a   002722 600000
    005656  aa   000000 000000
    005657  55   000012 000002
    005660  5a   000002 400003
    005661  55   000006 000012
    005662  aa  017 141 163 137
    005663  aa  145 162 162 157
    005664  aa  162 137 164 141
    005665  aa  142 154 145 137
    005666  55   000022 000003
    005667  2a   000321 400001
    005670  55   000015 000003
    005671  aa  021 141 154 162         already_logged_in
    005672  aa  145 141 144 171
    005673  aa  137 154 157 147
    005674  aa  147 145 144 137
    005675  aa  151 156 000 000
    005676  55   000030 000012
    005677  2a   000320 400001
    005700  55   000025 000003
    005701  aa  013 163 141 154         salvage_cdt
    005702  aa  166 141 147 145
    005703  aa  137 143 144 164
    005704  55   000040 000022
    005705  2a   000317 400001
    005706  55   000033 000003
    005707  aa  023 162 145 160         repeated_cdt_damage
    005710  aa  145 141 164 145
    005711  aa  144 137 143 144
    005712  aa  164 137 144 141
    005713  aa  155 141 147 145
    005714  55   000051 000030
    005715  2a   000316 400001
    005716  55   000043 000003
    005717  aa  024 151 154 154         illegal_top_mpx_name
    005720  aa  145 147 141 154
    005721  aa  137 164 157 160
    005722  aa  137 155 160 170
    005723  aa  137 156 141 155
    005724  aa  145 000 000 000
    005725  55   000061 000040
    005726  2a   000315 400001
    005727  55   000054 000003
    005730  aa  021 143 144 164         cdte_in_use_wrong
    005731  aa  145 137 151 156
    005732  aa  137 165 163 145
    005733  aa  137 167 162 157
    005734  aa  156 147 000 000
    005735  55   000072 000051
    005736  2a   000314 400001
    005737  55   000064 000003
    005740  aa  025 143 144 164         cdt_rethreading_error
    005741  aa  137 162 145 164
    005742  aa  150 162 145 141
    005743  aa  144 151 156 147
    005744  aa  137 145 162 162
    005745  aa  157 162 000 000
    005746  55   000102 000061
    005747  2a   000313 400001
    005750  55   000075 000003
    005751  aa  021 143 144 164         cdt_not_shut_down
    005752  aa  137 156 157 164
    005753  aa  137 163 150 165
    005754  aa  164 137 144 157
    005755  aa  167 156 000 000
    005756  55   000110 000072
    005757  2a   000312 400001
    005760  55   000105 000003
    005761  aa  013 164 164 171         tty_no_room
    005762  aa  137 156 157 137
    005763  aa  162 157 157 155
    005764  55   000117 000102
    005765  2a   000311 400001
    005766  55   000113 000003
    005767  aa  015 164 164 171         tty_is_master
    005770  aa  137 151 163 137
    005771  aa  155 141 163 164
    005772  aa  145 162 000 000
    005773  55   000125 000110
    005774  2a   000310 400001
    005775  55   000122 000003
    005776  aa  013 164 164 171         tty_dim_err
    005777  aa  137 144 151 155
    006000  aa  137 145 162 162
    006001  55   000133 000117
    006002  2a   000307 400001
    006003  55   000130 000003
    006004  aa  013 164 164 171         tty_already
    006005  aa  137 141 154 162
    006006  aa  145 141 144 171
    006007  55   000143 000125
    006010  2a   000306 400001
    006011  55   000136 000003
    006012  aa  020 146 162 157         from_multics_msg
    006013  aa  155 137 155 165
    006014  aa  154 164 151 143
    006015  aa  163 137 155 163
    006016  aa  147 000 000 000
    006017  55   000152 000133
    006020  2a   000305 400001
    006021  55   000146 000003
    006022  aa  015 142 165 155         bump_secs_msg
    006023  aa  160 137 163 145
    006024  aa  143 163 137 155
    006025  aa  163 147 000 000
    006026  55   000161 000143
    006027  2a   000304 400001
    006030  55   000155 000003
    006031  aa  015 142 165 155         bump_mins_msg
    006032  aa  160 137 155 151
    006033  aa  156 163 137 155
    006034  aa  163 147 000 000
    006035  55   000170 000152
    006036  2a   000303 400001
    006037  55   000164 000003
    006040  aa  016 142 165 155         bump_cancelled
    006041  aa  160 137 143 141
    006042  aa  156 143 145 154
    006043  aa  154 145 144 000
    006044  55   000177 000161
    006045  2a   000302 400001
    006046  55   000173 000003
    006047  aa  014 165 163 145         user_deleted
    006050  aa  162 137 144 145
    006051  aa  154 145 164 145
    006052  aa  144 000 000 000
    006053  55   000207 000170
    006054  2a   000301 400001
    006055  55   000202 000003
    006056  aa  022 165 163 145         user_auth_excludes
    006057  aa  162 137 141 165
    006060  aa  164 150 137 145
    006061  aa  170 143 154 165
    006062  aa  144 145 163 000
    006063  55   000216 000177
    006064  2a   000300 400001
    006065  55   000212 000003
    006066  aa  014 160 162 157         proj_deleted
    006067  aa  152 137 144 145
    006070  aa  154 145 164 145
    006071  aa  144 000 000 000
    006072  55   000226 000207
    006073  2a   000277 400001
    006074  55   000221 000003
    006075  aa  022 160 162 157         proj_auth_excludes
    006076  aa  152 137 141 165
    006077  aa  164 150 137 145
    006100  aa  170 143 154 165
    006101  aa  144 145 163 000
    006102  55   000237 000216
    006103  2a   000276 400001
    006104  55   000231 000003
    006105  aa  024 160 145 162         person_auth_excludes
    006106  aa  163 157 156 137
    006107  aa  141 165 164 150
    006110  aa  137 145 170 143
    006111  aa  154 165 144 145
    006112  aa  163 000 000 000
    006113  55   000246 000226
    006114  2a   000275 400001
    006115  55   000242 000003
    006116  aa  017 143 150 156         chn_svc_changed
    006117  aa  137 163 166 143
    006120  aa  137 143 150 141
    006121  aa  156 147 145 144
    006122  55   000254 000237
    006123  2a   000274 400001
    006124  55   000251 000003
    006125  aa  013 143 150 156         chn_deleted
    006126  aa  137 144 145 154
    006127  aa  145 164 145 144
    006130  55   000264 000246
    006131  2a   000273 400001
    006132  55   000257 000003
    006133  aa  021 143 150 156         chn_auth_excludes
    006134  aa  137 141 165 164
    006135  aa  150 137 145 170
    006136  aa  143 154 165 144
    006137  aa  145 163 000 000
    006140  55   000272 000254
    006141  2a   000272 400001
    006142  55   000267 000003
    006143  aa  010 167 141 162         warn_msg
    006144  aa  156 137 155 163
    006145  aa  147 000 000 000
    006146  55   000302 000264
    006147  2a   000271 400001
    006150  55   000275 000003
    006151  aa  020 164 162 171         try_again_at_msg
    006152  aa  137 141 147 141
    006153  aa  151 156 137 141
    006154  aa  164 137 155 163
    006155  aa  147 000 000 000
    006156  55   000311 000272
    006157  2a   000270 400001
    006160  55   000305 000003
    006161  aa  014 163 171 163         sys_down_msg
    006162  aa  137 144 157 167
    006163  aa  156 137 155 163
    006164  aa  147 000 000 000
    006165  55   000321 000302
    006166  2a   000267 400001
    006167  55   000314 000003
    006170  aa  020 163 160 145         special_sess_msg
    006171  aa  143 151 141 154
    006172  aa  137 163 145 163
    006173  aa  163 137 155 163
    006174  aa  147 000 000 000
    006175  55   000330 000311
    006176  2a   000266 400001
    006177  55   000324 000003
    006200  aa  017 141 144 155         admin_mode_busy
    006201  aa  151 156 137 155
    006202  aa  157 144 145 137
    006203  aa  142 165 163 171
    006204  55   000336 000321
    006205  2a   000265 400001
    006206  55   000333 000003
    006207  aa  010 163 171 163         sysgrpfl
    006210  aa  147 162 160 146
    006211  aa  154 000 000 000
    006212  55   000344 000330
    006213  2a   000264 400001
    006214  55   000341 000003
    006215  aa  010 163 171 163         sys_full
    006216  aa  137 146 165 154
    006217  aa  154 000 000 000
    006220  55   000351 000336
    006221  2a   000263 400001
    006222  55   000347 000003
    006223  aa  007 163 165 142         subject
    006224  aa  152 145 143 164
    006225  55   000357 000344
    006226  2a   000262 400001
    006227  55   000354 000003
    006230  aa  010 163 141 164         saturate
    006231  aa  165 162 141 164
    006232  aa  145 000 000 000
    006233  55   000366 000351
    006234  2a   000261 400001
    006235  55   000362 000003
    006236  aa  017 160 162 157         protec_till_msg
    006237  aa  164 145 143 137
    006240  aa  164 151 154 154
    006241  aa  137 155 163 147
    006242  55   000374 000357
    006243  2a   000260 400001
    006244  55   000371 000003
    006245  aa  012 160 162 157         protec_msg
    006246  aa  164 145 143 137
    006247  aa  155 163 147 000
    006250  55   000402 000366
    006251  2a   000257 400001
    006252  55   000377 000003
    006253  aa  010 160 162 157         proj_max
    006254  aa  152 137 155 141
    006255  aa  170 000 000 000
    006256  55   000412 000374
    006257  2a   000256 400001
    006260  55   000405 000003
    006261  aa  021 160 162 145         preempt_secondary
    006262  aa  145 155 160 164
    006263  aa  137 163 145 143
    006264  aa  157 156 144 141
    006265  aa  162 171 000 000
    006266  55   000421 000402
    006267  2a   000255 400001
    006270  55   000415 000003
    006271  aa  015 160 162 145         preempt_group
    006272  aa  145 155 160 164
    006273  aa  137 147 162 157
    006274  aa  165 160 000 000
    006275  55   000432 000412
    006276  2a   000254 400001
    006277  55   000424 000003
    006300  aa  027 160 162 145         preempt_emergency_prime
    006301  aa  145 155 160 164
    006302  aa  137 145 155 145
    006303  aa  162 147 145 156
    006304  aa  143 171 137 160
    006305  aa  162 151 155 145
    006306  55   000442 000421
    006307  2a   000253 400001
    006310  55   000435 000003
    006311  aa  021 160 162 145         preempt_emergency
    006312  aa  145 155 160 164
    006313  aa  137 145 155 145
    006314  aa  162 147 145 156
    006315  aa  143 171 000 000
    006316  55   000450 000432
    006317  2a   000252 400001
    006320  55   000445 000003
    006321  aa  010 156 157 164         not_full
    006322  aa  137 146 165 154
    006323  aa  154 000 000 000
    006324  55   000457 000442
    006325  2a   000251 400001
    006326  55   000453 000003
    006327  aa  017 156 157 137         no_user_to_bump
    006330  aa  165 163 145 162
    006331  aa  137 164 157 137
    006332  aa  142 165 155 160
    006333  55   000465 000450
    006334  2a   000250 400001
    006335  55   000462 000003
    006336  aa  012 156 157 137         no_primary
    006337  aa  160 162 151 155
    006340  aa  141 162 171 000
    006341  55   000473 000457
    006342  2a   000247 400001
    006343  55   000470 000003
    006344  aa  010 156 157 137         no_group
    006345  aa  147 162 157 165
    006346  aa  160 000 000 000
    006347  55   000501 000465
    006350  2a   000246 400001
    006351  55   000476 000003
    006352  aa  010 156 146 137         nf_nosec
    006353  aa  156 157 163 145
    006354  aa  143 000 000 000
    006355  55   000507 000473
    006356  2a   000245 400001
    006357  55   000504 000003
    006360  aa  010 147 162 160         grp_full
    006361  aa  137 146 165 154
    006362  aa  154 000 000 000
    006363  55   000515 000501
    006364  2a   000244 400001
    006365  55   000512 000003
    006366  aa  010 147 162 157         groupmax
    006367  aa  165 160 155 141
    006370  aa  170 000 000 000
    006371  55   000523 000507
    006372  2a   000243 400001
    006373  55   000520 000003
    006374  aa  010 147 160 141         gpabsmax
    006375  aa  142 163 155 141
    006376  aa  170 000 000 000
    006377  55   000533 000515
    006400  2a   000242 400001
    006401  55   000526 000003
    006402  aa  020 142 165 155         bumped_secondary
    006403  aa  160 145 144 137
    006404  aa  163 145 143 157
    006405  aa  156 144 141 162
    006406  aa  171 000 000 000
    006407  55   000542 000523
    006410  2a   000241 400001
    006411  55   000536 000003
    006412  aa  017 142 165 155         bumped_in_group
    006413  aa  160 145 144 137
    006414  aa  151 156 137 147
    006415  aa  162 157 165 160
    006416  55   000551 000533
    006417  2a   000240 400001
    006420  55   000545 000003
    006421  aa  016 167 141 162         warn_proj_date
    006422  aa  156 137 160 162
    006423  aa  157 152 137 144
    006424  aa  141 164 145 000
    006425  55   000560 000542
    006426  2a   000237 400001
    006427  55   000554 000003
    006430  aa  015 165 163 145         user_warn_pct
    006431  aa  162 137 167 141
    006432  aa  162 156 137 160
    006433  aa  143 164 000 000
    006434  55   000567 000551
    006435  2a   000236 400001
    006436  55   000563 000003
    006437  aa  017 165 163 145         user_warn_funds
    006440  aa  162 137 167 141
    006441  aa  162 156 137 146
    006442  aa  165 156 144 163
    006443  55   000576 000560
    006444  2a   000235 400001
    006445  55   000572 000003
    006446  aa  016 165 163 145         user_warn_days
    006447  aa  162 137 167 141
    006450  aa  162 156 137 144
    006451  aa  141 171 163 000
    006452  55   000605 000567
    006453  2a   000234 400001
    006454  55   000601 000003
    006455  aa  016 160 162 157         proj_low_funds
    006456  aa  152 137 154 157
    006457  aa  167 137 146 165
    006460  aa  156 144 163 000
    006461  55   000613 000576
    006462  2a   000233 400001
    006463  55   000610 000003
    006464  aa  010 151 156 141         inactive
    006465  aa  143 164 151 166
    006466  aa  145 000 000 000
    006467  55   000623 000605
    006470  2a   000232 400001
    006471  55   000616 000003
    006472  aa  022 143 165 164         cut_user_shift_msg
    006473  aa  137 165 163 145
    006474  aa  162 137 163 150
    006475  aa  151 146 164 137
    006476  aa  155 163 147 000
    006477  55   000633 000613
    006500  2a   000231 400001
    006501  55   000626 000003
    006502  aa  021 143 165 164         cut_user_mlim_msg
    006503  aa  137 165 163 145
    006504  aa  162 137 155 154
    006505  aa  151 155 137 155
    006506  aa  163 147 000 000
    006507  55   000643 000623
    006510  2a   000230 400001
    006511  55   000636 000003
    006512  aa  022 143 165 164         cut_user_limit_msg
    006513  aa  137 165 163 145
    006514  aa  162 137 154 151
    006515  aa  155 151 164 137
    006516  aa  155 163 147 000
    006517  55   000653 000633
    006520  2a   000227 400001
    006521  55   000646 000003
    006522  aa  021 143 165 164         cut_user_date_msg
    006523  aa  137 165 163 145
    006524  aa  162 137 144 141
    006525  aa  164 145 137 155
    006526  aa  163 147 000 000
    006527  55   000663 000643
    006530  2a   000226 400001
    006531  55   000656 000003
    006532  aa  020 143 165 164         cut_user_cut_msg
    006533  aa  137 165 163 145
    006534  aa  162 137 143 165
    006535  aa  164 137 155 163
    006536  aa  147 000 000 000
    006537  55   000672 000653
    006540  2a   000225 400001
    006541  55   000666 000003
    006542  aa  016 143 165 164         cut_proj_other
    006543  aa  137 160 162 157
    006544  aa  152 137 157 164
    006545  aa  150 145 162 000
    006546  55   000701 000663
    006547  2a   000224 400001
    006550  55   000675 000003
    006551  aa  016 143 165 164         cut_proj_funds
    006552  aa  137 160 162 157
    006553  aa  152 137 146 165
    006554  aa  156 144 163 000
    006555  55   000710 000672
    006556  2a   000223 400001
    006557  55   000704 000003
    006560  aa  015 143 165 164         cut_proj_date
    006561  aa  137 160 162 157
    006562  aa  152 137 144 141
    006563  aa  164 145 000 000
    006564  55   000716 000701
    006565  2a   000222 400001
    006566  55   000713 000003
    006567  aa  011 144 151 141         dialnotup
    006570  aa  154 156 157 164
    006571  aa  165 160 000 000
    006572  55   000724 000710
    006573  2a   000221 400001
    006574  55   000721 000003
    006575  aa  012 144 151 141         dialnoline
    006576  aa  154 156 157 154
    006577  aa  151 156 145 000
    006600  55   000732 000716
    006601  2a   000220 400001
    006602  55   000727 000003
    006603  aa  010 144 151 141         dialdied
    006604  aa  154 144 151 145
    006605  aa  144 000 000 000
    006606  55   000740 000724
    006607  2a   000217 400001
    006610  55   000735 000003
    006611  aa  011 144 151 141         dialagain
    006612  aa  154 141 147 141
    006613  aa  151 156 000 000
    006614  55   000747 000732
    006615  2a   000216 400001
    006616  55   000743 000003
    006617  aa  014 144 151 141         dial_sys_msg
    006620  aa  154 137 163 171
    006621  aa  163 137 155 163
    006622  aa  147 000 000 000
    006623  55   000757 000740
    006624  2a   000215 400001
    006625  55   000752 000003
    006626  aa  020 144 151 141         dial_connect_msg
    006627  aa  154 137 143 157
    006630  aa  156 156 145 143
    006631  aa  164 137 155 163
    006632  aa  147 000 000 000
    006633  55   000766 000747
    006634  2a   000214 400001
    006635  55   000762 000003
    006636  aa  017 165 163 145         user_typed_quit
    006637  aa  162 137 164 171
    006640  aa  160 145 144 137
    006641  aa  161 165 151 164
    006642  55   000776 000757
    006643  2a   000213 400001
    006644  55   000771 000003
    006645  aa  023 165 156 153         unknown_request_msg
    006646  aa  156 157 167 156
    006647  aa  137 162 145 161
    006650  aa  165 145 163 164
    006651  aa  137 155 163 147
    006652  55   001005 000766
    006653  2a   000212 400001
    006654  55   001001 000003
    006655  aa  017 165 156 153         unknown_arg_msg
    006656  aa  156 157 167 156
    006657  aa  137 141 162 147
    006660  aa  137 155 163 147
    006661  55   001013 000776
    006662  2a   000211 400001
    006663  55   001010 000003
    006664  aa  011 164 162 171         try_again
    006665  aa  137 141 147 141
    006666  aa  151 156 000 000
    006667  55   001023 001005
    006670  2a   000210 400001
    006671  55   001016 000003
    006672  aa  020 164 145 162         term_by_operator
    006673  aa  155 137 142 171
    006674  aa  137 157 160 145
    006675  aa  162 141 164 157
    006676  aa  162 000 000 000
    006677  55   001032 001013
    006700  2a   000207 400001
    006701  55   001026 000003
    006702  aa  017 163 160 145         special_session
    006703  aa  143 151 141 154
    006704  aa  137 163 145 163
    006705  aa  163 151 157 156
    006706  55   001040 001023
    006707  2a   000206 400001
    006710  55   001035 000003
    006711  aa  010 163 150 165         shutdown
    006712  aa  164 144 157 167
    006713  aa  156 000 000 000
    006714  55   001050 001032
    006715  2a   000205 400001
    006716  55   001043 000003
    006717  aa  022 162 161 137         rq_invalid_now_msg
    006720  aa  151 156 166 141
    006721  aa  154 151 144 137
    006722  aa  156 157 167 137
    006723  aa  155 163 147 000
    006724  55   001055 001040
    006725  2a   000204 400001
    006726  55   001053 000003
    006727  aa  006 160 167 137         pw_msg
    006730  aa  155 163 147 000
    006731  55   001065 001050
    006732  2a   000203 400001
    006733  55   001060 000003
    006734  aa  023 160 162 157         process_create_fail
    006735  aa  143 145 163 163
    006736  aa  137 143 162 145
    006737  aa  141 164 145 137
    006740  aa  146 141 151 154
    006741  55   001074 001055
    006742  2a   000202 400001
    006743  55   001070 000003
    006744  aa  015 160 162 157         proc_term_msg
    006745  aa  143 137 164 145
    006746  aa  162 155 137 155
    006747  aa  163 147 000 000
    006750  55   001104 001065
    006751  2a   000201 400001
    006752  55   001077 000003
    006753  aa  022 160 162 157         proc_term_loop_msg
    006754  aa  143 137 164 145
    006755  aa  162 155 137 154
    006756  aa  157 157 160 137
    006757  aa  155 163 147 000
    006760  55   001115 001074
    006761  2a   000200 400001
    006762  55   001107 000003
    006763  aa  027 160 162 145         preaccess_request_error
    006764  aa  141 143 143 145
    006765  aa  163 163 137 162
    006766  aa  145 161 165 145
    006767  aa  163 164 137 145
    006770  aa  162 162 157 162
    006771  55   001126 001104
    006772  2a   000177 400001
    006773  55   001120 000003
    006774  aa  024 157 156 154         only_after_login_msg
    006775  aa  171 137 141 146
    006776  aa  164 145 162 137
    006777  aa  154 157 147 151
    007000  aa  156 137 155 163
    007001  aa  147 000 000 000
    007002  55   001133 001115
    007003  2a   000176 400001
    007004  55   001131 000003
    007005  aa  007 156 160 167         npw_msg
    007006  aa  137 155 163 147
    007007  55   001142 001126
    007010  2a   000175 400001
    007011  55   001136 000003
    007012  aa  015 156 160 167         npw_again_msg
    007013  aa  137 141 147 141
    007014  aa  151 156 137 155
    007015  aa  163 147 000 000
    007016  55   001151 001133
    007017  2a   000174 400001
    007020  55   001145 000003
    007021  aa  015 156 157 167         now_logged_in
    007022  aa  137 154 157 147
    007023  aa  147 145 144 137
    007024  aa  151 156 000 000
    007025  55   001161 001142
    007026  2a   000173 400001
    007027  55   001154 000003
    007030  aa  023 156 157 164         not_implemented_msg
    007031  aa  137 151 155 160
    007032  aa  154 145 155 145
    007033  aa  156 164 145 144
    007034  aa  137 155 163 147
    007035  55   001171 001151
    007036  2a   000172 400001
    007037  55   001164 000003
    007040  aa  023 156 157 137         no_such_process_msg
    007041  aa  163 165 143 150
    007042  aa  137 160 162 157
    007043  aa  143 145 163 163
    007044  aa  137 155 163 147
    007045  55   001177 001161
    007046  2a   000171 400001
    007047  55   001174 000003
    007050  aa  011 156 157 137         no_signal
    007051  aa  163 151 147 156
    007052  aa  141 154 000 000
    007053  55   001206 001171
    007054  2a   000170 400001
    007055  55   001202 000003
    007056  aa  014 156 157 137         no_perm_disc
    007057  aa  160 145 162 155
    007060  aa  137 144 151 163
    007061  aa  143 000 000 000
    007062  55   001215 001177
    007063  2a   000167 400001
    007064  55   001211 000003
    007065  aa  016 156 157 137         no_logout_hold
    007066  aa  154 157 147 157
    007067  aa  165 164 137 150
    007070  aa  157 154 144 000
    007071  55   001224 001206
    007072  2a   000166 400001
    007073  55   001220 000003
    007074  aa  014 156 157 137         no_io_attach
    007075  aa  151 157 137 141
    007076  aa  164 164 141 143
    007077  aa  150 000 000 000
    007100  55   001233 001215
    007101  2a   000165 400001
    007102  55   001227 000003
    007103  aa  014 156 157 137         no_init_proc
    007104  aa  151 156 151 164
    007105  aa  137 160 162 157
    007106  aa  143 000 000 000
    007107  55   001241 001224
    007110  2a   000164 400001
    007111  55   001236 000003
    007112  aa  012 156 157 137         no_disc_hd
    007113  aa  144 151 163 143
    007114  aa  137 150 144 000
    007115  55   001247 001233
    007116  2a   000163 400001
    007117  55   001244 000003
    007120  aa  012 156 145 167         new_pw_err
    007121  aa  137 160 167 137
    007122  aa  145 162 162 000
    007123  55   001260 001241
    007124  2a   000162 400001
    007125  55   001252 000003
    007126  aa  027 156 145 167         new_password_indistinct
    007127  aa  137 160 141 163
    007130  aa  163 167 157 162
    007131  aa  144 137 151 156
    007132  aa  144 151 163 164
    007133  aa  151 156 143 164
    007134  55   001270 001247
    007135  2a   000161 400001
    007136  55   001263 000003
    007137  aa  021 155 165 163         must_give_proc_no
    007140  aa  164 137 147 151
    007141  aa  166 145 137 160
    007142  aa  162 157 143 137
    007143  aa  156 157 000 000
    007144  55   001277 001260
    007145  2a   000160 400001
    007146  55   001273 000003
    007147  aa  017 154 157 156         long_ip_ss_args
    007150  aa  147 137 151 160
    007151  aa  137 163 163 137
    007152  aa  141 162 147 163
    007153  55   001305 001270
    007154  2a   000157 400001
    007155  55   001302 000003
    007156  aa  012 154 157 147         logout_msg
    007157  aa  157 165 164 137
    007160  aa  155 163 147 000
    007161  55   001316 001277
    007162  2a   000156 400001
    007163  55   001310 000003
    007164  aa  027 154 157 147         logout_disconnected_msg
    007165  aa  157 165 164 137
    007166  aa  144 151 163 143
    007167  aa  157 156 156 145
    007170  aa  143 164 145 144
    007171  aa  137 155 163 147
    007172  55   001324 001305
    007173  2a   000155 400001
    007174  55   001321 000003
    007175  aa  013 154 157 147         logout1_msg
    007176  aa  157 165 164 061
    007177  aa  137 155 163 147
    007200  55   001332 001316
    007201  2a   000154 400001
    007202  55   001327 000003
    007203  aa  012 154 157 147         login_args
    007204  aa  151 156 137 141
    007205  aa  162 147 163 000
    007206  55   001343 001324
    007207  2a   000153 400001
    007210  55   001335 000003
    007211  aa  025 154 151 163         list_disconnected_msg
    007212  aa  164 137 144 151
    007213  aa  163 143 157 156
    007214  aa  156 145 143 164
    007215  aa  145 144 137 155
    007216  aa  163 147 000 000
    007217  55   001352 001332
    007220  2a   000152 400001
    007221  55   001346 000003
    007222  aa  015 151 156 151         init_term_msg
    007223  aa  164 137 164 145
    007224  aa  162 155 137 155
    007225  aa  163 147 000 000
    007226  55   001360 001343
    007227  2a   000151 400001
    007230  55   001355 000003
    007231  aa  010 151 156 151         init_err
    007232  aa  164 137 145 162
    007233  aa  162 000 000 000
    007234  55   001367 001352
    007235  2a   000150 400001
    007236  55   001363 000003
    007237  aa  016 151 154 154         illegal_signal
    007240  aa  145 147 141 154
    007241  aa  137 163 151 147
    007242  aa  156 141 154 000
    007243  55   001377 001360
    007244  2a   000147 400001
    007245  55   001372 000003
    007246  aa  020 151 154 154         illegal_new_proc
    007247  aa  145 147 141 154
    007250  aa  137 156 145 167
    007251  aa  137 160 162 157
    007252  aa  143 000 000 000
    007253  55   001406 001367
    007254  2a   000146 400001
    007255  55   001402 000003
    007256  aa  015 150 145 154         help_password
    007257  aa  160 137 160 141
    007260  aa  163 163 167 157
    007261  aa  162 144 000 000
    007262  55   001415 001377
    007263  2a   000145 400001
    007264  55   001411 000003
    007265  aa  017 150 145 154         help_npw_verify
    007266  aa  160 137 156 160
    007267  aa  167 137 166 145
    007270  aa  162 151 146 171
    007271  55   001423 001406
    007272  2a   000144 400001
    007273  55   001420 000003
    007274  aa  013 150 145 154         help_new_pw
    007275  aa  160 137 156 145
    007276  aa  167 137 160 167
    007277  55   001432 001415
    007300  2a   000143 400001
    007301  55   001426 000003
    007302  aa  017 150 145 154         help_gpw_verify
    007303  aa  160 137 147 160
    007304  aa  167 137 166 145
    007305  aa  162 151 146 171
    007306  55   001440 001423
    007307  2a   000142 400001
    007310  55   001435 000003
    007311  aa  012 150 141 156         hangup_msg
    007312  aa  147 165 160 137
    007313  aa  155 163 147 000
    007314  55   001447 001432
    007315  2a   000141 400001
    007316  55   001443 000003
    007317  aa  014 147 162 145         greeting_msg
    007320  aa  145 164 151 156
    007321  aa  147 137 155 163
    007322  aa  147 000 000 000
    007323  55   001457 001440
    007324  2a   000140 400001
    007325  55   001452 000003
    007326  aa  021 147 151 166         give_instructions
    007327  aa  145 137 151 156
    007330  aa  163 164 162 165
    007331  aa  143 164 151 157
    007332  aa  156 163 000 000
    007333  55   001472 001447
    007334  2a   000137 400001
    007335  55   001462 000003
    007336  aa  034 147 151 166         give_connect_request_no_disc
    007337  aa  145 137 143 157
    007340  aa  156 156 145 143
    007341  aa  164 137 162 145
    007342  aa  161 165 145 163
    007343  aa  164 137 156 157
    007344  aa  137 144 151 163
    007345  aa  143 000 000 000
    007346  55   001503 001457
    007347  2a   000136 400001
    007350  55   001475 000003
    007351  aa  024 147 151 166         give_connect_request
    007352  aa  145 137 143 157
    007353  aa  156 156 145 143
    007354  aa  164 137 162 145
    007355  aa  161 165 145 163
    007356  aa  164 000 000 000
    007357  55   001513 001472
    007360  2a   000135 400001
    007361  55   001506 000003
    007362  aa  020 147 145 156         generated_pw_msg
    007363  aa  145 162 141 164
    007364  aa  145 144 137 160
    007365  aa  167 137 155 163
    007366  aa  147 000 000 000
    007367  55   001523 001503
    007370  2a   000134 400001
    007371  55   001516 000003
    007372  aa  020 147 145 156         generated_pw_err
    007373  aa  145 162 141 164
    007374  aa  145 144 137 160
    007375  aa  167 137 145 162
    007376  aa  162 000 000 000
    007377  55   001533 001513
    007400  2a   000133 400001
    007401  55   001526 000003
    007402  aa  021 146 160 145         fpe_caused_logout
    007403  aa  137 143 141 165
    007404  aa  163 145 144 137
    007405  aa  154 157 147 157
    007406  aa  165 164 000 000
    007407  55   001541 001523
    007410  2a   000132 400001
    007411  55   001536 000003
    007412  aa  013 144 151 163         disc_hd_msg
    007413  aa  143 137 150 144
    007414  aa  137 155 163 147
    007415  55   001550 001533
    007416  2a   000131 400001
    007417  55   001544 000003
    007420  aa  014 144 151 141         dialup_error
    007421  aa  154 165 160 137
    007422  aa  145 162 162 157
    007423  aa  162 000 000 000
    007424  55   001560 001541
    007425  2a   000130 400001
    007426  55   001553 000003
    007427  aa  022 144 151 141         dial_request_error
    007430  aa  154 137 162 145
    007431  aa  161 165 145 163
    007432  aa  164 137 145 162
    007433  aa  162 157 162 000
    007434  55   001565 001550
    007435  2a   000127 400001
    007436  55   001563 000003
    007437  aa  006 144 145 164         detach
    007440  aa  141 143 150 000
    007441  55   001573 001560
    007442  2a   000126 400001
    007443  55   001570 000003
    007444  aa  011 143 157 155         coming_up
    007445  aa  151 156 147 137
    007446  aa  165 160 000 000
    007447  55   001602 001565
    007450  2a   000125 400001
    007451  55   001576 000003
    007452  aa  017 142 141 144         bad_terminal_id
    007453  aa  137 164 145 162
    007454  aa  155 151 156 141
    007455  aa  154 137 151 144
    007456  55   001612 001573
    007457  2a   000124 400001
    007460  55   001605 000003
    007461  aa  022 142 141 144         bad_login_word_msg
    007462  aa  137 154 157 147
    007463  aa  151 156 137 167
    007464  aa  157 162 144 137
    007465  aa  155 163 147 000
    007466  55   001621 001602
    007467  2a   000123 400001
    007470  55   001615 000003
    007471  aa  016 142 141 144         bad_answerback
    007472  aa  137 141 156 163
    007473  aa  167 145 162 142
    007474  aa  141 143 153 000
    007475  55   001631 001612
    007476  2a   000122 400001
    007477  55   001624 000003
    007500  aa  020 141 165 164         automatic_logout
    007501  aa  157 155 141 164
    007502  aa  151 143 137 154
    007503  aa  157 147 157 165
    007504  aa  164 000 000 000
    007505  55   001640 001621
    007506  2a   000121 400001
    007507  55   001634 000003
    007510  aa  014 141 163 153         ask_for_help
    007511  aa  137 146 157 162
    007512  aa  137 150 145 154
    007513  aa  160 000 000 000
    007514  55   001647 001631
    007515  2a   000120 400001
    007516  55   001643 000003
    007517  aa  017 141 143 164         activity_unbump
    007520  aa  151 166 151 164
    007521  aa  171 137 165 156
    007522  aa  142 165 155 160
    007523  55   001657 001640
    007524  2a   000117 400001
    007525  55   001652 000003
    007526  aa  021 141 143 154         aclass_banner_msg
    007527  aa  141 163 163 137
    007530  aa  142 141 156 156
    007531  aa  145 162 137 155
    007532  aa  163 147 000 000
    007533  55   001665 001647
    007534  2a   000116 400001
    007535  55   001662 000003
    007536  aa  013 165 163 145         user_max_fg
    007537  aa  162 137 155 141
    007540  aa  170 137 146 147
    007541  55   001673 001657
    007542  2a   000115 400001
    007543  55   001670 000003
    007544  aa  013 165 163 145         user_max_bg
    007545  aa  162 137 155 141
    007546  aa  170 137 142 147
    007547  55   001703 001665
    007550  2a   000114 400001
    007551  55   001676 000003
    007552  aa  021 165 163 145         user_fg_cpu_limit
    007553  aa  162 137 146 147
    007554  aa  137 143 160 165
    007555  aa  137 154 151 155
    007556  aa  151 164 000 000
    007557  55   001712 001673
    007560  2a   000113 400001
    007561  55   001706 000003
    007562  aa  017 164 157 157         too_many_bad_pw
    007563  aa  137 155 141 156
    007564  aa  171 137 142 141
    007565  aa  144 137 160 167
    007566  55   001722 001703
    007567  2a   000112 400001
    007570  55   001715 000003
    007571  aa  021 164 145 162         terminal_auth_msg
    007572  aa  155 151 156 141
    007573  aa  154 137 141 165
    007574  aa  164 150 137 155
    007575  aa  163 147 000 000
    007576  55   001731 001712
    007577  2a   000111 400001
    007600  55   001725 000003
    007601  aa  014 162 151 156         ring_too_low
    007602  aa  147 137 164 157
    007603  aa  157 137 154 157
    007604  aa  167 000 000 000
    007605  55   001740 001722
    007606  2a   000110 400001
    007607  55   001734 000003
    007610  aa  015 162 151 156         ring_too_high
    007611  aa  147 137 164 157
    007612  aa  157 137 150 151
    007613  aa  147 150 000 000
    007614  55   001746 001731
    007615  2a   000107 400001
    007616  55   001743 000003
    007617  aa  010 160 162 157         prog_err
    007620  aa  147 137 145 162
    007621  aa  162 000 000 000
    007622  55   001755 001740
    007623  2a   000106 400001
    007624  55   001751 000003
    007625  aa  017 160 145 162         person_auth_msg
    007626  aa  163 157 156 137
    007627  aa  141 165 164 150
    007630  aa  137 155 163 147
    007631  55   001763 001746
    007632  2a   000105 400001
    007633  55   001760 000003
    007634  aa  013 160 144 164         pdt_missing
    007635  aa  137 155 151 163
    007636  aa  163 151 156 147
    007637  55   001776 001755
    007640  2a   000104 400001
    007641  55   001766 000003
    007642  aa  034 160 141 163         password_unused_too_long_msg
    007643  aa  163 167 157 162
    007644  aa  144 137 165 156
    007645  aa  165 163 145 144
    007646  aa  137 164 157 157
    007647  aa  137 154 157 156
    007650  aa  147 137 155 163
    007651  aa  147 000 000 000
    007652  55   002005 001763
    007653  2a   000103 400001
    007654  55   002001 000003
    007655  aa  015 160 141 163         password_trap
    007656  aa  163 167 157 162
    007657  aa  144 137 164 162
    007660  aa  141 160 000 000
    007661  55   002015 001776
    007662  2a   000102 400001
    007663  55   002010 000003
    007664  aa  022 160 141 163         password_probe_msg
    007665  aa  163 167 157 162
    007666  aa  144 137 160 162
    007667  aa  157 142 145 137
    007670  aa  155 163 147 000
    007671  55   002026 002005
    007672  2a   000101 400001
    007673  55   002020 000003
    007674  aa  027 160 141 163         password_probe_mail_msg
    007675  aa  163 167 157 162
    007676  aa  144 137 160 162
    007677  aa  157 142 145 137
    007700  aa  155 141 151 154
    007701  aa  137 155 163 147
    007702  55   002036 002015
    007703  2a   000100 400001
    007704  55   002031 000003
    007705  aa  023 160 141 163         password_probe1_msg
    007706  aa  163 167 157 162
    007707  aa  144 137 160 162
    007710  aa  157 142 145 061
    007711  aa  137 155 163 147
    007712  55   002050 002026
    007713  2a   000077 400001
    007714  55   002041 000003
    007715  aa  030 160 141 163         password_probe1_mail_msg
    007716  aa  163 167 157 162
    007717  aa  144 137 160 162
    007720  aa  157 142 145 061
    007721  aa  137 155 141 151
    007722  aa  154 137 155 163
    007723  aa  147 000 000 000
    007724  55   002057 002036
    007725  2a   000076 400001
    007726  55   002053 000003
    007727  aa  017 160 141 163         password_locked
    007730  aa  163 167 157 162
    007731  aa  144 137 154 157
    007732  aa  143 153 145 144
    007733  55   002070 002050
    007734  2a   000075 400001
    007735  55   002062 000003
    007736  aa  024 160 141 163         password_expired_msg
    007737  aa  163 167 157 162
    007740  aa  144 137 145 170
    007741  aa  160 151 162 145
    007742  aa  144 137 155 163
    007743  aa  147 000 000 000
    007744  55   002100 002057
    007745  2a   000074 400001
    007746  55   002073 000003
    007747  aa  020 160 141 163         password_expired
    007750  aa  163 167 157 162
    007751  aa  144 137 145 170
    007752  aa  160 151 162 145
    007753  aa  144 000 000 000
    007754  55   002110 002070
    007755  2a   000073 400001
    007756  55   002103 000003
    007757  aa  020 160 141 163         password_changed
    007760  aa  163 167 157 162
    007761  aa  144 137 143 150
    007762  aa  141 156 147 145
    007763  aa  144 000 000 000
    007764  55   002121 002100
    007765  2a   000072 400001
    007766  55   002113 000003
    007767  aa  024 157 160 145         operator_not_allowed
    007770  aa  162 141 164 157
    007771  aa  162 137 156 157
    007772  aa  164 137 141 154
    007773  aa  154 157 167 145
    007774  aa  144 000 000 000
    007775  55   002127 002110
    007776  2a   000071 400001
    007777  55   002124 000003
    010000  aa  012 156 157 164         not_in_pdt
    010001  aa  137 151 156 137
    010002  aa  160 144 164 000
    010003  55   002134 002121
    010004  2a   000070 400001
    010005  55   002132 000003
    010006  aa  007 156 157 137         no_name
    010007  aa  156 141 155 145
    010010  55   002144 002127
    010011  2a   000067 400001
    010012  55   002137 000003
    010013  aa  022 156 157 137         no_line_permission
    010014  aa  154 151 156 145
    010015  aa  137 160 145 162
    010016  aa  155 151 163 163
    010017  aa  151 157 156 000
    010020  55   002152 002134
    010021  2a   000066 400001
    010022  55   002147 000003
    010023  aa  013 156 157 137         no_home_dir
    010024  aa  150 157 155 145
    010025  aa  137 144 151 162
    010026  55   002163 002144
    010027  2a   000065 400001
    010030  55   002155 000003
    010031  aa  025 156 157 137         no_disconnected_procs
    010032  aa  144 151 163 143
    010033  aa  157 156 156 145
    010034  aa  143 164 145 144
    010035  aa  137 160 162 157
    010036  aa  143 163 000 000
    010037  55   002172 002152
    010040  2a   000064 400001
    010041  55   002166 000003
    010042  aa  015 156 157 137         no_daemon_bit
    010043  aa  144 141 145 155
    010044  aa  157 156 137 142
    010045  aa  151 164 000 000
    010046  55   002200 002163
    010047  2a   000063 400001
    010050  55   002175 000003
    010051  aa  011 156 157 137         no_change
    010052  aa  143 150 141 156
    010053  aa  147 145 000 000
    010054  55   002212 002172
    010055  2a   000062 400001
    010056  55   002203 000003
    010057  aa  030 156 137 144         n_disconnected_procs_msg
    010060  aa  151 163 143 157
    010061  aa  156 156 145 143
    010062  aa  164 145 144 137
    010063  aa  160 162 157 143
    010064  aa  163 137 155 163
    010065  aa  147 000 000 000
    010066  55   002223 002200
    010067  2a   000061 400001
    010070  55   002215 000003
    010071  aa  024 155 165 163         must_use_generate_pw
    010072  aa  164 137 165 163
    010073  aa  145 137 147 145
    010074  aa  156 145 162 141
    010075  aa  164 145 137 160
    010076  aa  167 000 000 000
    010077  55   002231 002212
    010100  2a   000060 400001
    010101  55   002226 000003
    010102  aa  013 155 165 163         must_change
    010103  aa  164 137 143 150
    010104  aa  141 156 147 145
    010105  55   002241 002223
    010106  2a   000057 400001
    010107  55   002234 000003
    010110  aa  022 155 165 154         multiple_login_msg
    010111  aa  164 151 160 154
    010112  aa  145 137 154 157
    010113  aa  147 151 156 137
    010114  aa  155 163 147 000
    010115  55   002247 002231
    010116  2a   000056 400001
    010117  55   002244 000003
    010120  aa  013 154 157 156         long_ss_arg
    010121  aa  147 137 163 163
    010122  aa  137 141 162 147
    010123  55   002255 002241
    010124  2a   000055 400001
    010125  55   002252 000003
    010126  aa  013 154 157 156         long_ip_arg
    010127  aa  147 137 151 160
    010130  aa  137 141 162 147
    010131  55   002263 002247
    010132  2a   000054 400001
    010133  55   002260 000003
    010134  aa  011 154 157 147         login_msg
    010135  aa  151 156 137 155
    010136  aa  163 147 000 000
    010137  55   002272 002255
    010140  2a   000053 400001
    010141  55   002266 000003
    010142  aa  016 154 157 147         login_auth_msg
    010143  aa  151 156 137 141
    010144  aa  165 164 150 137
    010145  aa  155 163 147 000
    010146  55   002301 002263
    010147  2a   000052 400001
    010150  55   002275 000003
    010151  aa  016 154 157 147         login_anon_msg
    010152  aa  151 156 137 141
    010153  aa  156 157 156 137
    010154  aa  155 163 147 000
    010155  55   002310 002272
    010156  2a   000051 400001
    010157  55   002304 000003
    010160  aa  016 154 141 163         last_login_msg
    010161  aa  164 137 154 157
    010162  aa  147 151 156 137
    010163  aa  155 163 147 000
    010164  55   002317 002301
    010165  2a   000050 400001
    010166  55   002313 000003
    010167  aa  016 151 154 154         illegal_ss_arg
    010170  aa  145 147 141 154
    010171  aa  137 163 163 137
    010172  aa  141 162 147 000
    010173  55   002327 002310
    010174  2a   000047 400001
    010175  55   002322 000003
    010176  aa  020 151 154 154         illegal_save_arg
    010177  aa  145 147 141 154
    010200  aa  137 163 141 166
    010201  aa  145 137 141 162
    010202  aa  147 000 000 000
    010203  55   002336 002317
    010204  2a   000046 400001
    010205  55   002332 000003
    010206  aa  016 151 154 154         illegal_om_arg
    010207  aa  145 147 141 154
    010210  aa  137 157 155 137
    010211  aa  141 162 147 000
    010212  55   002345 002327
    010213  2a   000045 400001
    010214  55   002341 000003
    010215  aa  016 151 154 154         illegal_ip_arg
    010216  aa  145 147 141 154
    010217  aa  137 151 160 137
    010220  aa  141 162 147 000
    010221  55   002354 002336
    010222  2a   000044 400001
    010223  55   002350 000003
    010224  aa  016 151 154 154         illegal_hd_arg
    010225  aa  145 147 141 154
    010226  aa  137 150 144 137
    010227  aa  141 162 147 000
    010230  55   002364 002345
    010231  2a   000043 400001
    010232  55   002357 000003
    010233  aa  020 144 163 137         ds_user_required
    010234  aa  165 163 145 162
    010235  aa  137 162 145 161
    010236  aa  165 151 162 145
    010237  aa  144 000 000 000
    010240  55   002373 002354
    010241  2a   000042 400001
    010242  55   002367 000003
    010243  aa  017 144 163 137         ds_user_ignored
    010244  aa  165 163 145 162
    010245  aa  137 151 147 156
    010246  aa  157 162 145 144
    010247  55   002403 002364
    010250  2a   000041 400001
    010251  55   002376 000003
    010252  aa  020 144 146 164         dft_proj_changed
    010253  aa  137 160 162 157
    010254  aa  152 137 143 150
    010255  aa  141 156 147 145
    010256  aa  144 000 000 000
    010257  55   002413 002373
    010260  2a   000040 400001
    010261  55   002406 000003
    010262  aa  020 144 146 164         dft_auth_changed
    010263  aa  137 141 165 164
    010264  aa  150 137 143 150
    010265  aa  141 156 147 145
    010266  aa  144 000 000 000
    010267  55   002426 002403
    010270  2a   000037 400001
    010271  55   002416 000003
    010272  aa  034 143 141 156         cant_give_that_authorization
    010273  aa  164 137 147 151
    010274  aa  166 145 137 164
    010275  aa  150 141 164 137
    010276  aa  141 165 164 150
    010277  aa  157 162 151 172
    010300  aa  141 164 151 157
    010301  aa  156 000 000 000
    010302  55   002436 002413
    010303  2a   000036 400001
    010304  55   002431 000003
    010305  aa  022 143 141 156         cant_give_dft_auth
    010306  aa  164 137 147 151
    010307  aa  166 145 137 144
    010310  aa  146 164 137 141
    010311  aa  165 164 150 000
    010312  55   002444 002426
    010313  2a   000035 400001
    010314  55   002441 000003
    010315  aa  012 142 162 145         breach_msg
    010316  aa  141 143 150 137
    010317  aa  155 163 147 000
    010320  55   002451 002436
    010321  2a   000034 400001
    010322  55   002447 000003
    010323  aa  006 142 162 145         breach
    010324  aa  141 143 150 000
    010325  55   002457 002444
    010326  2a   000033 400001
    010327  55   002454 000003
    010330  aa  013 142 141 144         bad_project
    010331  aa  137 160 162 157
    010332  aa  152 145 143 164
    010333  55   002466 002451
    010334  2a   000032 400001
    010335  55   002462 000003
    010336  aa  014 142 141 144         bad_personid
    010337  aa  137 160 145 162
    010340  aa  163 157 156 151
    010341  aa  144 000 000 000
    010342  55   002475 002457
    010343  2a   000031 400001
    010344  55   002471 000003
    010345  aa  014 142 141 144         bad_password
    010346  aa  137 160 141 163
    010347  aa  163 167 157 162
    010350  aa  144 000 000 000
    010351  55   002503 002466
    010352  2a   000030 400001
    010353  55   002500 000003
    010354  aa  013 142 141 144         bad_anon_pw
    010355  aa  137 141 156 157
    010356  aa  156 137 160 167
    010357  55   002513 002475
    010360  2a   000027 400001
    010361  55   002506 000003
    010362  aa  023 141 154 162         already_in_warn_msg
    010363  aa  145 141 144 171
    010364  aa  137 151 156 137
    010365  aa  167 141 162 156
    010366  aa  137 155 163 147
    010367  55   002524 002503
    010370  2a   000026 400001
    010371  55   002516 000003
    010372  aa  025 141 154 162         already_in_notify_msg
    010373  aa  145 141 144 171
    010374  aa  137 151 156 137
    010375  aa  156 157 164 151
    010376  aa  146 171 137 155
    010377  aa  163 147 000 000
    010400  55   002533 002513
    010401  2a   000025 400001
    010402  55   002527 000003
    010403  aa  016 141 154 162         already_in_msg
    010404  aa  145 141 144 171
    010405  aa  137 151 156 137
    010406  aa  155 163 147 000
    010407  55   002543 002524
    010410  2a   000024 400001
    010411  55   002536 000003
    010412  aa  023 165 156 162         unrecognized_device
    010413  aa  145 143 157 147
    010414  aa  156 151 172 145
    010415  aa  144 137 144 145
    010416  aa  166 151 143 145
    010417  55   002553 002533
    010420  2a   000023 400001
    010421  55   002546 000003
    010422  aa  021 160 167 137         pw_format_warning
    010423  aa  146 157 162 155
    010424  aa  141 164 137 167
    010425  aa  141 162 156 151
    010426  aa  156 147 000 000
    010427  55   002564 002543
    010430  2a   000022 400001
    010431  55   002556 000003
    010432  aa  024 157 156 154         only_one_save_nosave
    010433  aa  171 137 157 156
    010434  aa  145 137 163 141
    010435  aa  166 145 137 156
    010436  aa  157 163 141 166
    010437  aa  145 000 000 000
    010440  55   002575 002553
    010441  2a   000021 400001
    010442  55   002567 000003
    010443  aa  025 157 156 154         only_one_hold_no_hold
    010444  aa  171 137 157 156
    010445  aa  145 137 150 157
    010446  aa  154 144 137 156
    010447  aa  157 137 150 157
    010450  aa  154 144 000 000
    010451  55   002606 002564
    010452  2a   000020 400001
    010453  55   002600 000003
    010454  aa  024 157 156 154         only_one_connect_etc
    010455  aa  171 137 157 156
    010456  aa  145 137 143 157
    010457  aa  156 156 145 143
    010460  aa  164 137 145 164
    010461  aa  143 000 000 000
    010462  55   002616 002575
    010463  2a   000017 400001
    010464  55   002611 000003
    010465  aa  020 156 157 137         no_login_arg_msg
    010466  aa  154 157 147 151
    010467  aa  156 137 141 162
    010470  aa  147 137 155 163
    010471  aa  147 000 000 000
    010472  55   002626 002606
    010473  2a   000016 400001
    010474  55   002621 000003
    010475  aa  020 156 157 137         no_create_aclass
    010476  aa  143 162 145 141
    010477  aa  164 145 137 141
    010500  aa  143 154 141 163
    010501  aa  163 000 000 000
    010502  55   002636 002616
    010503  2a   000015 400001
    010504  55   002631 000003
    010505  aa  021 156 157 137         no_connect_aclass
    010506  aa  143 157 156 156
    010507  aa  145 143 164 137
    010510  aa  141 143 154 141
    010511  aa  163 163 000 000
    010512  55   002647 002626
    010513  2a   000014 400001
    010514  55   002641 000003
    010515  aa  024 156 145 145         need_project_for_cdp
    010516  aa  144 137 160 162
    010517  aa  157 152 145 143
    010520  aa  164 137 146 157
    010521  aa  162 137 143 144
    010522  aa  160 000 000 000
    010523  55   002661 002636
    010524  2a   000013 400001
    010525  55   002652 000003
    010526  aa  032 156 145 145         need_authorization_for_cda
    010527  aa  144 137 141 165
    010530  aa  164 150 157 162
    010531  aa  151 172 141 164
    010532  aa  151 157 156 137
    010533  aa  146 157 162 137
    010534  aa  143 144 141 000
    010535  55   002671 002647
    010536  2a   000012 400001
    010537  55   002664 000003
    010540  aa  023 142 141 144         bad_password_format
    010541  aa  137 160 141 163
    010542  aa  163 167 157 162
    010543  aa  144 137 146 157
    010544  aa  162 155 141 164
    010545  55   002703 002661
    010546  2a   000011 400001
    010547  55   002674 000003
    010550  aa  032 142 141 144         bad_login_arguments_string
    010551  aa  137 154 157 147
    010552  aa  151 156 137 141
    010553  aa  162 147 165 155
    010554  aa  145 156 164 163
    010555  aa  137 163 164 162
    010556  aa  151 156 147 000
    010557  55   002713 002671
    010560  2a   000010 400001
    010561  55   002706 000003
    010562  aa  021 142 141 144         bad_login_arg_msg
    010563  aa  137 154 157 147
    010564  aa  151 156 137 141
    010565  aa  162 147 137 155
    010566  aa  163 147 000 000
    010567  55   000002 002703
    010570  6a   000000 400002
    010571  55   002716 000003
    010572  aa  014 163 171 155         symbol_table
    010573  aa  142 157 154 137
    010574  aa  164 141 142 154
    010575  aa  145 000 000 000

DEFINITIONS HASH TABLE

    010576  aa   000000 000463
    010577  5a   002327 000000
    010600  5a   002336 000000
    010601  5a   001712 000000
    010602  5a   001755 000000
    010603  5a   002345 000000
    010604  5a   000551 000000
    010605  5a   001343 000000
    010606  5a   000710 000000
    010607  5a   000732 000000
    010610  5a   001472 000000
    010611  5a   002606 000000
    010612  5a   002616 000000
    010613  aa   000000 000000
    010614  5a   001763 000000
    010615  5a   000366 000000
    010616  aa   000000 000000
    010617  aa   000000 000000
    010620  aa   000000 000000
    010621  aa   000000 000000
    010622  aa   000000 000000
    010623  aa   000000 000000
    010624  5a   000515 000000
    010625  5a   001126 000000
    010626  5a   000533 000000
    010627  5a   002005 000000
    010630  5a   001703 000000
    010631  aa   000000 000000
    010632  5a   000402 000000
    010633  5a   000432 000000
    010634  aa   000000 000000
    010635  5a   000747 000000
    010636  5a   000246 000000
    010637  5a   002163 000000
    010640  aa   000000 000000
    010641  aa   000000 000000
    010642  5a   000542 000000
    010643  aa   000000 000000
    010644  aa   000000 000000
    010645  5a   000311 000000
    010646  aa   000000 000000
    010647  5a   001377 000000
    010650  5a   001447 000000
    010651  5a   001503 000000
    010652  5a   001513 000000
    010653  aa   000000 000000
    010654  5a   001050 000000
    010655  aa   000000 000000
    010656  aa   000000 000000
    010657  5a   002373 000000
    010660  5a   002403 000000
    010661  5a   002255 000000
    010662  aa   000000 000000
    010663  aa   000000 000000
    010664  aa   000000 000000
    010665  aa   000000 000000
    010666  5a   001142 000000
    010667  5a   001565 000000
    010670  aa   000000 000000
    010671  5a   001640 000000
    010672  5a   002050 000000
    010673  aa   000000 000000
    010674  aa   000000 000000
    010675  5a   001673 000000
    010676  aa   000000 000000
    010677  aa   000000 000000
    010700  5a   000457 000000
    010701  5a   001233 000000
    010702  aa   000000 000000
    010703  aa   000000 000000
    010704  aa   000000 000000
    010705  5a   000051 000000
    010706  5a   000072 000000
    010707  5a   000576 000000
    010710  aa   000000 000000
    010711  aa   000000 000000
    010712  aa   000000 000000
    010713  aa   000000 000000
    010714  aa   000000 000000
    010715  aa   000000 000000
    010716  aa   000000 000000
    010717  aa   000000 000000
    010720  aa   000000 000000
    010721  5a   000102 000000
    010722  5a   000117 000000
    010723  5a   000125 000000
    010724  aa   000000 000000
    010725  5a   002121 000000
    010726  5a   000653 000000
    010727  5a   000237 000000
    010730  5a   000776 000000
    010731  5a   002626 000000
    010732  5a   002647 000000
    010733  5a   002703 000000
    010734  aa   000000 000000
    010735  aa   000000 000000
    010736  aa   000000 000000
    010737  5a   000567 000000
    010740  5a   001305 000000
    010741  5a   000716 000000
    010742  5a   002127 000000
    010743  aa   000000 000000
    010744  aa   000000 000000
    010745  aa   000000 000000
    010746  5a   000264 000000
    010747  5a   000226 000000
    010750  5a   001005 000000
    010751  5a   002301 000000
    010752  aa   000000 000000
    010753  aa   000000 000000
    010754  aa   000000 000000
    010755  5a   002212 000000
    010756  aa   000000 000000
    010757  aa   000000 000000
    010760  aa   000000 000000
    010761  5a   000523 000000
    010762  5a   002026 000000
    010763  5a   002444 000000
    010764  5a   002503 000000
    010765  aa   000000 000000
    010766  aa   000000 000000
    010767  5a   001457 000000
    010770  5a   000701 000000
    010771  5a   001206 000000
    010772  5a   001612 000000
    010773  5a   001722 000000
    010774  5a   002543 000000
    010775  aa   000000 000000
    010776  5a   000061 000000
    010777  5a   000216 000000
    011000  5a   000272 000000
    011001  5a   001074 000000
    011002  5a   001657 000000
    011003  5a   001665 000000
    011004  aa   000000 000000
    011005  aa   000000 000000
    011006  5a   001115 000000
    011007  5a   002553 000000
    011010  5a   002575 000000
    011011  5a   000507 000000
    011012  5a   000374 000000
    011013  5a   000501 000000
    011014  5a   001277 000000
    011015  5a   001032 000000
    011016  5a   001247 000000
    011017  5a   001260 000000
    011020  5a   001324 000000
    011021  5a   000766 000000
    011022  5a   001040 000000
    011023  5a   000143 000000
    011024  5a   000152 000000
    011025  5a   001740 000000
    011026  5a   002070 000000
    011027  5a   002100 000000
    011030  5a   000177 000000
    011031  5a   002152 000000
    011032  5a   001621 000000
    011033  5a   002144 000000
    011034  5a   000605 000000
    011035  5a   002364 000000
    011036  5a   002413 000000
    011037  5a   002426 000000
    011040  5a   001560 000000
    011041  5a   000357 000000
    011042  5a   002451 000000
    011043  5a   002475 000000
    011044  5a   001352 000000
    011045  5a   001415 000000
    011046  5a   002533 000000
    011047  5a   002636 000000
    011050  aa   000000 000000
    011051  aa   000000 000000
    011052  aa   000000 000000
    011053  5a   002015 000000
    011054  5a   002436 000000
    011055  aa   000000 000000
    011056  aa   000000 000000
    011057  aa   000000 000000
    011060  5a   001432 000000
    011061  5a   000623 000000
    011062  5a   000643 000000
    011063  5a   001367 000000
    011064  5a   001602 000000
    011065  5a   002134 000000
    011066  5a   001776 000000
    011067  5a   002317 000000
    011070  5a   001440 000000
    011071  aa   000000 000000
    011072  5a   000473 000000
    011073  5a   000560 000000
    011074  5a   000757 000000
    011075  5a   000465 000000
    011076  5a   001241 000000
    011077  aa   000000 000000
    011100  aa   000000 000000
    011101  aa   000000 000000
    011102  aa   000000 000000
    011103  5a   000207 000000
    011104  aa   000000 000000
    011105  5a   002263 000000
    011106  5a   000022 000000
    011107  5a   002272 000000
    011110  aa   000000 000000
    011111  aa   000000 000000
    011112  aa   000000 000000
    011113  aa   000000 000000
    011114  aa   000000 000000
    011115  5a   002057 000000
    011116  5a   001533 000000
    011117  aa   000000 000000
    011120  aa   000000 000000
    011121  aa   000000 000000
    011122  5a   000442 000000
    011123  5a   000663 000000
    011124  5a   000450 000000
    011125  5a   000672 000000
    011126  5a   001550 000000
    011127  5a   001573 000000
    011130  5a   001731 000000
    011131  5a   001013 000000
    011132  5a   001055 000000
    011133  5a   002200 000000
    011134  5a   000170 000000
    011135  5a   001406 000000
    011136  5a   000724 000000
    011137  5a   001423 000000
    011140  5a   002223 000000
    011141  5a   002564 000000
    011142  aa   000000 000000
    011143  5a   002231 000000
    011144  aa   000000 000000
    011145  aa   000000 000000
    011146  5a   001332 000000
    011147  5a   001316 000000
    011150  5a   001647 000000
    011151  5a   002110 000000
    011152  aa   000000 000000
    011153  5a   000040 000000
    011154  5a   002354 000000
    011155  aa   000000 000000
    011156  5a   000161 000000
    011157  5a   002241 000000
    011160  5a   000012 000000
    011161  5a   000344 000000
    011162  5a   000351 000000
    011163  5a   002247 000000
    011164  aa   000000 000000
    011165  5a   002457 000000
    011166  5a   001177 000000
    011167  5a   000330 000000
    011170  5a   000336 000000
    011171  5a   000030 000000
    011172  5a   001215 000000
    011173  5a   001224 000000
    011174  5a   002466 000000
    011175  5a   001023 000000
    011176  aa   000000 000000
    011177  5a   000321 000000
    011200  aa   000000 000000
    011201  aa   000000 000000
    011202  aa   000000 000000
    011203  5a   001133 000000
    011204  aa   000000 000000
    011205  aa   000000 000000
    011206  5a   001746 000000
    011207  5a   000110 000000
    011210  5a   001523 000000
    011211  5a   000421 000000
    011212  5a   001104 000000
    011213  5a   002036 000000
    011214  5a   000613 000000
    011215  5a   000254 000000
    011216  5a   000633 000000
    011217  5a   001161 000000
    011220  5a   002661 000000
    011221  aa   000000 000000
    011222  5a   002524 000000
    011223  aa   000000 000000
    011224  5a   000412 000000
    011225  aa   000000 000000
    011226  aa   000000 000000
    011227  5a   000740 000000
    011230  5a   001171 000000
    011231  5a   001541 000000
    011232  5a   002172 000000
    011233  aa   000000 000000
    011234  aa   000000 000000
    011235  5a   000133 000000
    011236  5a   001065 000000
    011237  aa   000000 000000
    011240  aa   000000 000000
    011241  aa   000000 000000
    011242  5a   001151 000000
    011243  5a   002671 000000
    011244  5a   001631 000000
    011245  aa   000000 000000
    011246  aa   000000 000000
    011247  5a   001270 000000
    011250  aa   000000 000000
    011251  5a   002513 000000
    011252  5a   002713 000000
    011253  aa   000000 000000
    011254  aa   000000 000000
    011255  aa   000000 000000
    011256  aa   000000 000000
    011257  5a   001360 000000
    011260  5a   000302 000000
    011261  5a   002310 000000

NO EXTERNAL NAMES

NO TRAP POINTER WORDS

TYPE PAIR BLOCKS

    011262  aa   000001 000000
    011263  aa   000000 000000

INTERNAL EXPRESSION WORDS

    011264  50   003406 000000
    011265  aa   000000 000000
LINKAGE INFORMATION

    000000  aa   000000 000000
    000001  02   005654 000324
    000002  aa   000000 000000
    000003  aa   000000 000000
    000004  aa   000000 000000
    000005  aa   000000 000000
    000006  22   000322 000327
    000007  a2   000000 000312
    000322  9a   777456 0000 46         *text|
    000323  5a   003410 0000 00

FIRST REFERENCE TRAP LIST

    000324  aa   000000 000001
    000325  aa   000000 000001
    000326  2a   000322 000000
    000327  aa   000000 000000
SYMBOL INFORMATION

SYMBOL TABLE HEADER

    000000  aa   000000 000001
    000001  aa   163171 155142
    000002  aa   164162 145145
    000003  aa   000000 000007
    000004  aa   000000 115705
    000005  aa   073761 335527
    000006  aa   000000 116477
    000007  aa   272326 175261
    000010  aa   141154 155040
    000011  aa   040040 040040
    000012  aa   000024 000040
    000013  aa   000034 000040
    000014  aa   000044 000100
    000015  aa   000002 000002
    000016  aa   000064 000000
    000017  aa   000000 001043
    000020  aa   000000 000135
    000021  aa   000454 000406
    000022  aa   001033 000135
    000023  aa   000064 000000
    000024  aa   101114 115040
    000025  aa   126145 162163
    000026  aa   151157 156040
    000027  aa   067056 064040
    000030  aa   101160 162151
    000031  aa   154040 061071
    000032  aa   070067 040040
    000033  aa   040040 040040
    000034  aa   110151 162156
    000035  aa   145151 163145
    000036  aa   156056 123171
    000037  aa   163115 141151
    000040  aa   156164 056141
    000041  aa   040040 040040
    000042  aa   040040 040040
    000043  aa   040040 040040
    000044  aa   055164 141162
    000045  aa   147145 164040
    000046  aa   154066 070040
    000047  aa   040040 040040
    000050  aa   040040 040040
    000051  aa   040040 040040
    000052  aa   040040 040040
    000053  aa   040040 040040
    000054  aa   040040 040040
    000055  aa   040040 040040
    000056  aa   040154 151163
    000057  aa   164040 163171
    000060  aa   155142 157154
    000061  aa   163040 040040
    000062  aa   040040 040040
    000063  aa   040040 040040
    000064  aa   000000 000001
    000065  aa   000000 000003
    000066  aa   000102 000046
    000067  aa   164770 420760
    000070  aa   000000 116477
    000071  aa   261163 400000
    000072  aa   000114 000037
    000073  aa   120665 316464
    000074  aa   000000 112067
    000075  aa   253504 600000
    000076  aa   000124 000042
    000077  aa   147777 464111
    000100  aa   000000 115000
    000101  aa   507463 000000
    000102  aa   076163 160145          >spec>install>1093>as_error_table_.alm
    000103  aa   143076 151156
    000104  aa   163164 141154
    000105  aa   154076 061060
    000106  aa   071063 076141
    000107  aa   163137 145162
    000110  aa   162157 162137
    000111  aa   164141 142154
    000112  aa   145137 056141
    000113  aa   154155 040040
    000114  aa   076154 144144          >ldd>include>et_macros.incl.alm
    000115  aa   076151 156143
    000116  aa   154165 144145
    000117  aa   076145 164137
    000120  aa   155141 143162
    000121  aa   157163 056151
    000122  aa   156143 154056
    000123  aa   141154 155040
    000124  aa   076154 144144          >ldd>include>stack_header.incl.alm
    000125  aa   076151 156143
    000126  aa   154165 144145
    000127  aa   076163 164141
    000130  aa   143153 137150
    000131  aa   145141 144145
    000132  aa   162056 151156
    000133  aa   143154 056141
    000134  aa   154155 040040
               MULTICS ASSEMBLY CROSS REFERENCE LISTING

   Value        Symbol                   Source file   Line number

                *text                    as_error_table_:     84.
          14    .._00000                 as_error_table_:     89.
          26    .._00001                 as_error_table_:     90.
          46    .._00002                 as_error_table_:     91.
          76    .._00003                 as_error_table_:     92.
         122    .._00004                 as_error_table_:     93.
         146    .._00005                 as_error_table_:     94.
         201    .._00006                 as_error_table_:     95.
         231    .._00007                 as_error_table_:     96.
         247    .._00010                 as_error_table_:     97.
         301    .._00011                 as_error_table_:     98.
         323    .._00012                 as_error_table_:     99.
         354    .._00013                 as_error_table_:    100.
         377    .._00014                 as_error_table_:    101.
         413    .._00015                 as_error_table_:    106.
         431    .._00016                 as_error_table_:    107.
         452    .._00017                 as_error_table_:    108.
         471    .._00020                 as_error_table_:    109.
         503    .._00021                 as_error_table_:    110.
         515    .._00022                 as_error_table_:    111.
         533    .._00023                 as_error_table_:    112.
         546    .._00024                 as_error_table_:    113.
         567    .._00025                 as_error_table_:    114.
         611    .._00026                 as_error_table_:    115.
         627    .._00027                 as_error_table_:    116.
         646    .._00030                 as_error_table_:    117.
         660    .._00031                 as_error_table_:    118.
         671    .._00032                 as_error_table_:    119.
         721    .._00033                 as_error_table_:    120.
         746    .._00034                 as_error_table_:    121.
         767    .._00035                 as_error_table_:    122.
        1012    .._00036                 as_error_table_:    123.
        1034    .._00037                 as_error_table_:    124.
        1060    .._00040                 as_error_table_:    125.
        1102    .._00041                 as_error_table_:    126.
        1116    .._00042                 as_error_table_:    127.
        1137    .._00043                 as_error_table_:    128.
        1154    .._00044                 as_error_table_:    129.
        1171    .._00045                 as_error_table_:    130.
        1213    .._00046                 as_error_table_:    131.
        1233    .._00047                 as_error_table_:    132.
        1251    .._00050                 as_error_table_:    133.
        1274    .._00051                 as_error_table_:    134.
        1324    .._00052                 as_error_table_:    135.
        1340    .._00053                 as_error_table_:    136.
        1356    .._00054                 as_error_table_:    137.
        1376    .._00055                 as_error_table_:    138.
        1411    .._00056                 as_error_table_:    139.
        1432    .._00057                 as_error_table_:    140.
        1450    .._00060                 as_error_table_:    141.
        1467    .._00061                 as_error_table_:    142.
        1506    .._00062                 as_error_table_:    143.
        1524    .._00063                 as_error_table_:    144.
        1533    .._00064                 as_error_table_:    145.
        1554    .._00065                 as_error_table_:    146.
        1601    .._00066                 as_error_table_:    147.
        1623    .._00067                 as_error_table_:    148.
        1645    .._00070                 as_error_table_:    149.
        1670    .._00071                 as_error_table_:    150.
        1720    .._00072                 as_error_table_:    151.
        1753    .._00073                 as_error_table_:    152.
        1765    .._00074                 as_error_table_:    153.
        2020    .._00075                 as_error_table_:    154.
        2042    .._00076                 as_error_table_:    155.
        2055    .._00077                 as_error_table_:    156.
        2102    .._00100                 as_error_table_:    157.
        2123    .._00101                 as_error_table_:    158.
        2143    .._00102                 as_error_table_:    159.
        2156    .._00103                 as_error_table_:    160.
        2177    .._00104                 as_error_table_:    161.
        2220    .._00105                 as_error_table_:    162.
        2242    .._00106                 as_error_table_:    163.
        2270    .._00107                 as_error_table_:    168.
        2301    .._00110                 as_error_table_:    169.
        2322    .._00111                 as_error_table_:    170.
        2351    .._00112                 as_error_table_:    171.
        2360    .._00113                 as_error_table_:    172.
        2373    .._00114                 as_error_table_:    173.
        2404    .._00115                 as_error_table_:    174.
        2417    .._00116                 as_error_table_:    175.
        2436    .._00117                 as_error_table_:    176.
        2445    .._00120                 as_error_table_:    177.
        2456    .._00121                 as_error_table_:    178.
        2474    .._00122                 as_error_table_:    179.
        2514    .._00123                 as_error_table_:    180.
        2536    .._00124                 as_error_table_:    181.
        2550    .._00125                 as_error_table_:    182.
        2565    .._00126                 as_error_table_:    183.
        2611    .._00127                 as_error_table_:    184.
        2625    .._00130                 as_error_table_:    185.
        2650    .._00131                 as_error_table_:    186.
        2675    .._00132                 as_error_table_:    187.
        2702    .._00133                 as_error_table_:    188.
        2731    .._00134                 as_error_table_:    189.
        2751    .._00135                 as_error_table_:    190.
        2776    .._00136                 as_error_table_:    191.
        3016    .._00137                 as_error_table_:    192.
        3036    .._00140                 as_error_table_:    193.
        3053    .._00141                 as_error_table_:    194.
        3065    .._00142                 as_error_table_:    195.
        3103    .._00143                 as_error_table_:    196.
        3122    .._00144                 as_error_table_:    197.
        3137    .._00145                 as_error_table_:    198.
        3164    .._00146                 as_error_table_:    199.
        3212    .._00147                 as_error_table_:    200.
        3241    .._00150                 as_error_table_:    201.
        3272    .._00151                 as_error_table_:    202.
        3322    .._00152                 as_error_table_:    203.
        3341    .._00153                 as_error_table_:    204.
        3356    .._00154                 as_error_table_:    205.
        3406    .._00155                 as_error_table_:    206.
        3424    .._00156                 as_error_table_:    207.
        3440    .._00157                 as_error_table_:    208.
        3452    .._00160                 as_error_table_:    209.
        3470    .._00161                 as_error_table_:    210.
        3511    .._00162                 as_error_table_:    211.
        3530    .._00163                 as_error_table_:    212.
        3546    .._00164                 as_error_table_:    213.
        3572    .._00165                 as_error_table_:    214.
        3601    .._00166                 as_error_table_:    215.
        3607    .._00167                 as_error_table_:    216.
        3627    .._00170                 as_error_table_:    217.
        3641    .._00171                 as_error_table_:    218.
        3672    .._00172                 as_error_table_:    219.
        3714    .._00173                 as_error_table_:    220.
        3736    .._00174                 as_error_table_:    221.
        3743    .._00175                 as_error_table_:    222.
        3760    .._00176                 as_error_table_:    223.
        3771    .._00177                 as_error_table_:    224.
        4003    .._00200                 as_error_table_:    225.
        4016    .._00201                 as_error_table_:    226.
        4037    .._00202                 as_error_table_:    227.
        4047    .._00203                 as_error_table_:    228.
        4057    .._00204                 as_error_table_:    229.
        4070    .._00205                 as_error_table_:    234.
        4104    .._00206                 as_error_table_:    235.
        4116    .._00207                 as_error_table_:    236.
        4136    .._00210                 as_error_table_:    237.
        4156    .._00211                 as_error_table_:    238.
        4167    .._00212                 as_error_table_:    239.
        4177    .._00213                 as_error_table_:    244.
        4217    .._00214                 as_error_table_:    245.
        4233    .._00215                 as_error_table_:    246.
        4252    .._00216                 as_error_table_:    247.
        4270    .._00217                 as_error_table_:    248.
        4303    .._00220                 as_error_table_:    249.
        4320    .._00221                 as_error_table_:    250.
        4336    .._00222                 as_error_table_:    251.
        4355    .._00223                 as_error_table_:    252.
        4367    .._00224                 as_error_table_:    253.
        4414    .._00225                 as_error_table_:    254.
        4427    .._00226                 as_error_table_:    255.
        4443    .._00227                 as_error_table_:    256.
        4462    .._00230                 as_error_table_:    257.
        4507    .._00231                 as_error_table_:    262.
        4512    .._00232                 as_error_table_:    263.
        4515    .._00233                 as_error_table_:    264.
        4534    .._00234                 as_error_table_:    265.
        4553    .._00235                 as_error_table_:    266.
        4572    .._00236                 as_error_table_:    267.
        4611    .._00237                 as_error_table_:    268.
        4623    .._00240                 as_error_table_:    269.
        4634    .._00241                 as_error_table_:    270.
        4653    .._00242                 as_error_table_:    271.
        4656    .._00243                 as_error_table_:    272.
        4666    .._00244                 as_error_table_:    273.
        4677    .._00245                 as_error_table_:    274.
        4706    .._00246                 as_error_table_:    275.
        4717    .._00247                 as_error_table_:    276.
        4731    .._00250                 as_error_table_:    277.
        4744    .._00251                 as_error_table_:    278.
        4761    .._00252                 as_error_table_:    279.
        4776    .._00253                 as_error_table_:    280.
        5010    .._00254                 as_error_table_:    281.
        5024    .._00255                 as_error_table_:    282.
        5043    .._00256                 as_error_table_:    287.
        5060    .._00257                 as_error_table_:    288.
        5072    .._00260                 as_error_table_:    289.
        5104    .._00261                 as_error_table_:    290.
        5113    .._00262                 as_error_table_:    291.
        5131    .._00263                 as_error_table_:    296.
        5154    .._00264                 as_error_table_:    297.
        5165    .._00265                 as_error_table_:    298.
        5201    .._00266                 as_error_table_:    299.
        5223    .._00267                 as_error_table_:    300.
        5246    .._00270                 as_error_table_:    301.
        5255    .._00271                 as_error_table_:    302.
        5277    .._00272                 as_error_table_:    303.
        5310    .._00273                 as_error_table_:    308.
        5325    .._00274                 as_error_table_:    309.
        5342    .._00275                 as_error_table_:    310.
        5357    .._00276                 as_error_table_:    311.
        5374    .._00277                 as_error_table_:    312.
        5406    .._00300                 as_error_table_:    313.
        5420    .._00301                 as_error_table_:    314.
        5444    .._00302                 as_error_table_:    315.
        5464    .._00303                 as_error_table_:    320.
        5514    .._00304                 as_error_table_:    321.
        5532    .._00305                 as_error_table_:    322.
        5562    .._00306                 as_error_table_:    323.
        5601    .._00307                 as_error_table_:    324.
        5623    .._00310                 as_error_table_:    325.
        5644    .._00311                 as_error_table_:    330.
         322    .code_end                as_error_table_:     84.
          10    .code_start              as_error_table_:     84.
           5    .loop                    as_error_table_:     84.
       77777    .segno                   as_error_table_:     84,   89,   90,   91,   92,   93,   94,   95,   96,   97,   98,
                                                              99,  100,  101,  106,  107,  108,  109,  110,  111,  112,  113,
                                                             114,  115,  116,  117,  118,  119,  120,  121,  122,  123,  124,
                                                             125,  126,  127,  128,  129,  130,  131,  132,  133,  134,  135,
                                                             136,  137,  138,  139,  140,  141,  142,  143,  144,  145,  146,
                                                             147,  148,  149,  150,  151,  152,  153,  154,  155,  156,  157,
                                                             158,  159,  160,  161,  162,  163,  168,  169,  170,  171,  172,
                                                             173,  174,  175,  176,  177,  178,  179,  180,  181,  182,  183,
                                                             184,  185,  186,  187,  188,  189,  190,  191,  192,  193,  194,
                                                             195,  196,  197,  198,  199,  200,  201,  202,  203,  204,  205,
                                                             206,  207,  208,  209,  210,  211,  212,  213,  214,  215,  216,
                                                             217,  218,  219,  220,  221,  222,  223,  224,  225,  226,  227,
                                                             228,  229,  234,  235,  236,  237,  238,  239,  244,  245,  246,
                                                             247,  248,  249,  250,  251,  252,  253,  254,  255,  256,  257,
                                                             262,  263,  264,  265,  266,  267,  268,  269,  270,  271,  272,
                                                             273,  274,  275,  276,  277,  278,  279,  280,  281,  282,  287,
                                                             288,  289,  290,  291,  296,  297,  298,  299,  300,  301,  302,
                                                             303,  308,  309,  310,  311,  312,  313,  314,  315,  320,  321,
                                                             322,  323,  324,  325,  330.
           0    .trapproc                as_error_table_:     84.
         117    aclass_banner_msg        as_error_table_:    168.
         120    activity_unbump          as_error_table_:    169.
         266    admin_mode_busy          as_error_table_:    287.
          25    already_in_msg           as_error_table_:    106.
          26    already_in_notify_msg    as_error_table_:    107.
          27    already_in_warn_msg      as_error_table_:    108.
         321    already_logged_in        as_error_table_:    330.
         121    ask_for_help             as_error_table_:    170.
         122    automatic_logout         as_error_table_:    171.
          30    bad_anon_pw              as_error_table_:    109.
         123    bad_answerback           as_error_table_:    172.
          11    bad_login_arguments_string     as_error_table_:     90.
          10    bad_login_arg_msg        as_error_table_:     89.
         124    bad_login_word_msg       as_error_table_:    173.
          31    bad_password             as_error_table_:    110.
          12    bad_password_format      as_error_table_:     91.
          32    bad_personid             as_error_table_:    111.
          33    bad_project              as_error_table_:    112.
         125    bad_terminal_id          as_error_table_:    174.
          34    breach                   as_error_table_:    113.
          35    breach_msg               as_error_table_:    114.
         241    bumped_in_group          as_error_table_:    262.
         242    bumped_secondary         as_error_table_:    263.
         303    bump_cancelled           as_error_table_:    308.
         304    bump_mins_msg            as_error_table_:    309.
         305    bump_secs_msg            as_error_table_:    310.
        1170    call_offset              stack_header:        80.
          36    cant_give_dft_auth       as_error_table_:    115.
          37    cant_give_that_authorization   as_error_table_:    116.
         315    cdte_in_use_wrong        as_error_table_:    322.
         313    cdt_not_shut_down        as_error_table_:    320.
         314    cdt_rethreading_error    as_error_table_:    321.
         273    chn_auth_excludes        as_error_table_:    296.
         274    chn_deleted              as_error_table_:    297.
         275    chn_svc_changed          as_error_table_:    298.
          10    codes                    as_error_table_:     84,   89,   90,   91,   92,   93,   94,   95,   96,   97,   98,
                                                              99,  100,  101,  106,  107,  108,  109,  110,  111,  112,  113,
                                                             114,  115,  116,  117,  118,  119,  120,  121,  122,  123,  124,
                                                             125,  126,  127,  128,  129,  130,  131,  132,  133,  134,  135,
                                                             136,  137,  138,  139,  140,  141,  142,  143,  144,  145,  146,
                                                             147,  148,  149,  150,  151,  152,  153,  154,  155,  156,  157,
                                                             158,  159,  160,  161,  162,  163,  168,  169,  170,  171,  172,
                                                             173,  174,  175,  176,  177,  178,  179,  180,  181,  182,  183,
                                                             184,  185,  186,  187,  188,  189,  190,  191,  192,  193,  194,
                                                             195,  196,  197,  198,  199,  200,  201,  202,  203,  204,  205,
                                                             206,  207,  208,  209,  210,  211,  212,  213,  214,  215,  216,
                                                             217,  218,  219,  220,  221,  222,  223,  224,  225,  226,  227,
                                                             228,  229,  234,  235,  236,  237,  238,  239,  244,  245,  246,
                                                             247,  248,  249,  250,  251,  252,  253,  254,  255,  256,  257,
                                                             262,  263,  264,  265,  266,  267,  268,  269,  270,  271,  272,
                                                             273,  274,  275,  276,  277,  278,  279,  280,  281,  282,  287,
                                                             288,  289,  290,  291,  296,  297,  298,  299,  300,  301,  302,
                                                             303,  308,  309,  310,  311,  312,  313,  314,  315,  320,  321,
                                                             322,  323,  324,  325,  330.
         126    coming_up                as_error_table_:    175.
         223    cut_proj_date            as_error_table_:    244.
         224    cut_proj_funds           as_error_table_:    245.
         225    cut_proj_other           as_error_table_:    246.
         226    cut_user_cut_msg         as_error_table_:    247.
         227    cut_user_date_msg        as_error_table_:    248.
         230    cut_user_limit_msg       as_error_table_:    249.
         231    cut_user_mlim_msg        as_error_table_:    250.
         232    cut_user_shift_msg       as_error_table_:    251.
         127    detach                   as_error_table_:    176.
          40    dft_auth_changed         as_error_table_:    117.
          41    dft_proj_changed         as_error_table_:    118.
         217    dialagain                as_error_table_:    236.
         220    dialdied                 as_error_table_:    237.
         221    dialnoline               as_error_table_:    238.
         222    dialnotup                as_error_table_:    239.
         131    dialup_error             as_error_table_:    178.
         215    dial_connect_msg         as_error_table_:    234.
         130    dial_request_error       as_error_table_:    177.
         216    dial_sys_msg             as_error_table_:    235.
         132    disc_hd_msg              as_error_table_:    179.
          42    ds_user_ignored          as_error_table_:    119.
          43    ds_user_required         as_error_table_:    120.
        1174    entry_offset             stack_header:        84.
         133    fpe_caused_logout        as_error_table_:    180.
         306    from_multics_msg         as_error_table_:    311.
         134    generated_pw_err         as_error_table_:    181.
         135    generated_pw_msg         as_error_table_:    182.
         136    give_connect_request     as_error_table_:    183.
         137    give_connect_request_no_disc   as_error_table_:    184.
         140    give_instructions        as_error_table_:    185.
         243    gpabsmax                 as_error_table_:    264.
         141    greeting_msg             as_error_table_:    186.
         244    groupmax                 as_error_table_:    265.
         245    grp_full                 as_error_table_:    266.
         142    hangup_msg               as_error_table_:    187.
         143    help_gpw_verify          as_error_table_:    188.
         144    help_new_pw              as_error_table_:    189.
         145    help_npw_verify          as_error_table_:    190.
         146    help_password            as_error_table_:    191.
          44    illegal_hd_arg           as_error_table_:    121.
          45    illegal_ip_arg           as_error_table_:    122.
         147    illegal_new_proc         as_error_table_:    192.
          46    illegal_om_arg           as_error_table_:    123.
          47    illegal_save_arg         as_error_table_:    124.
         150    illegal_signal           as_error_table_:    193.
          50    illegal_ss_arg           as_error_table_:    125.
         316    illegal_top_mpx_name     as_error_table_:    323.
         233    inactive                 as_error_table_:    252.
         151    init_err                 as_error_table_:    194.
         152    init_term_msg            as_error_table_:    195.
          51    last_login_msg           as_error_table_:    126.
         153    list_disconnected_msg    as_error_table_:    196.
          52    login_anon_msg           as_error_table_:    127.
         154    login_args               as_error_table_:    197.
          53    login_auth_msg           as_error_table_:    128.
          54    login_msg                as_error_table_:    129.
         155    logout1_msg              as_error_table_:    198.
         156    logout_disconnected_msg  as_error_table_:    199.
         157    logout_msg               as_error_table_:    200.
          55    long_ip_arg              as_error_table_:    130.
         160    long_ip_ss_args          as_error_table_:    201.
          56    long_ss_arg              as_error_table_:    131.
           0    messages                 as_error_table_:     84,   89,   90,   91,   92,   93,   94,   95,   96,   97,   98,
                                                              99,  100,  101,  106,  107,  108,  109,  110,  111,  112,  113,
                                                             114,  115,  116,  117,  118,  119,  120,  121,  122,  123,  124,
                                                             125,  126,  127,  128,  129,  130,  131,  132,  133,  134,  135,
                                                             136,  137,  138,  139,  140,  141,  142,  143,  144,  145,  146,
                                                             147,  148,  149,  150,  151,  152,  153,  154,  155,  156,  157,
                                                             158,  159,  160,  161,  162,  163,  168,  169,  170,  171,  172,
                                                             173,  174,  175,  176,  177,  178,  179,  180,  181,  182,  183,
                                                             184,  185,  186,  187,  188,  189,  190,  191,  192,  193,  194,
                                                             195,  196,  197,  198,  199,  200,  201,  202,  203,  204,  205,
                                                             206,  207,  208,  209,  210,  211,  212,  213,  214,  215,  216,
                                                             217,  218,  219,  220,  221,  222,  223,  224,  225,  226,  227,
                                                             228,  229,  234,  235,  236,  237,  238,  239,  244,  245,  246,
                                                             247,  248,  249,  250,  251,  252,  253,  254,  255,  256,  257,
                                                             262,  263,  264,  265,  266,  267,  268,  269,  270,  271,  272,
                                                             273,  274,  275,  276,  277,  278,  279,  280,  281,  282,  287,
                                                             288,  289,  290,  291,  296,  297,  298,  299,  300,  301,  302,
                                                             303,  308,  309,  310,  311,  312,  313,  314,  315,  320,  321,
                                                             322,  323,  324,  325,  330.
          57    multiple_login_msg       as_error_table_:    132.
          60    must_change              as_error_table_:    133.
         161    must_give_proc_no        as_error_table_:    202.
          61    must_use_generate_pw     as_error_table_:    134.
          13    need_authorization_for_cda     as_error_table_:     92.
          14    need_project_for_cdp     as_error_table_:     93.
         162    new_password_indistinct  as_error_table_:    203.
         163    new_pw_err               as_error_table_:    204.
         246    nf_nosec                 as_error_table_:    267.
         252    not_full                 as_error_table_:    271.
         173    not_implemented_msg      as_error_table_:    212.
          71    not_in_pdt               as_error_table_:    142.
         174    now_logged_in            as_error_table_:    213.
          63    no_change                as_error_table_:    136.
          15    no_connect_aclass        as_error_table_:     94.
          16    no_create_aclass         as_error_table_:     95.
          64    no_daemon_bit            as_error_table_:    137.
          65    no_disconnected_procs    as_error_table_:    138.
         164    no_disc_hd               as_error_table_:    205.
         247    no_group                 as_error_table_:    268.
          66    no_home_dir              as_error_table_:    139.
         165    no_init_proc             as_error_table_:    206.
         166    no_io_attach             as_error_table_:    207.
          67    no_line_permission       as_error_table_:    140.
          17    no_login_arg_msg         as_error_table_:     96.
         167    no_logout_hold           as_error_table_:    208.
          70    no_name                  as_error_table_:    141.
         170    no_perm_disc             as_error_table_:    209.
         250    no_primary               as_error_table_:    269.
         171    no_signal                as_error_table_:    210.
         172    no_such_process_msg      as_error_table_:    211.
         251    no_user_to_bump          as_error_table_:    270.
         175    npw_again_msg            as_error_table_:    214.
         176    npw_msg                  as_error_table_:    215.
          62    n_disconnected_procs_msg       as_error_table_:    135.
         177    only_after_login_msg     as_error_table_:    216.
          20    only_one_connect_etc     as_error_table_:     97.
          21    only_one_hold_no_hold    as_error_table_:     98.
          22    only_one_save_nosave     as_error_table_:     99.
          72    operator_not_allowed     as_error_table_:    143.
          73    password_changed         as_error_table_:    144.
          74    password_expired         as_error_table_:    145.
          75    password_expired_msg     as_error_table_:    146.
          76    password_locked          as_error_table_:    147.
          77    password_probe1_mail_msg       as_error_table_:    148.
         100    password_probe1_msg      as_error_table_:    149.
         101    password_probe_mail_msg  as_error_table_:    150.
         102    password_probe_msg       as_error_table_:    151.
         103    password_trap            as_error_table_:    152.
         104    password_unused_too_long_msg   as_error_table_:    153.
         322    past_codes               as_error_table_:     84.
         105    pdt_missing              as_error_table_:    154.
         276    person_auth_excludes     as_error_table_:    299.
         106    person_auth_msg          as_error_table_:    155.
         200    preaccess_request_error  as_error_table_:    217.
         253    preempt_emergency        as_error_table_:    272.
         254    preempt_emergency_prime  as_error_table_:    273.
         255    preempt_group            as_error_table_:    274.
         256    preempt_secondary        as_error_table_:    275.
         203    process_create_fail      as_error_table_:    220.
         201    proc_term_loop_msg       as_error_table_:    218.
         202    proc_term_msg            as_error_table_:    219.
         107    prog_err                 as_error_table_:    156.
         277    proj_auth_excludes       as_error_table_:    300.
         300    proj_deleted             as_error_table_:    301.
         234    proj_low_funds           as_error_table_:    253.
         257    proj_max                 as_error_table_:    276.
         260    protec_msg               as_error_table_:    277.
         261    protec_till_msg          as_error_table_:    278.
        1171    push_offset              stack_header:        81.
          23    pw_format_warning        as_error_table_:    100.
         204    pw_msg                   as_error_table_:    221.
         317    repeated_cdt_damage      as_error_table_:    324.
        1173    return_no_pop_offset     stack_header:        83.
        1172    return_offset            stack_header:        82.
         110    ring_too_high            as_error_table_:    157.
         111    ring_too_low             as_error_table_:    158.
         205    rq_invalid_now_msg       as_error_table_:    222.
         320    salvage_cdt              as_error_table_:    325.
         262    saturate                 as_error_table_:    279.
         206    shutdown                 as_error_table_:    223.
         207    special_session          as_error_table_:    224.
         267    special_sess_msg         as_error_table_:    288.
          73    stach_header.trace_top_ptr     stack_header:        62.
          66    stack_header.assign_linkage_ptr      stack_header:        59.
          32    stack_header.bar_mode_sp       stack_header:        42.
          36    stack_header.call_op_ptr       stack_header:        44.
          10    stack_header.clr_ptr     stack_header:        27.
           6    stack_header.combined_stat_ptr       stack_header:        25.
           4    stack_header.cpm_data_ptr      stack_header:        24.
          13    stack_header.cpm_enabled       stack_header:        32.
          13    stack_header.cur_lot_size      stack_header:        31.
          64    stack_header.ect_ptr     stack_header:        58.
          46    stack_header.entry_op_ptr      stack_header:        49.
          70    stack_header.heap_header_ptr   stack_header:        60.
          74    stack_header.in_trace    stack_header:        63.
          52    stack_header.isot_ptr    stack_header:        52.
          26    stack_header.lot_ptr     as_error_table_:     84,
                                         stack_header:        39.
          12    stack_header.main_proc_invoked       stack_header:        29.
          12    stack_header.max_lot_size      stack_header:        28.
          20    stack_header.parent_ptr  stack_header:        36.
          34    stack_header.pl1_operators_ptr       stack_header:        43.
          40    stack_header.push_op_ptr       stack_header:        46.
          42    stack_header.return_op_ptr     stack_header:        47.
          44    stack_header.ret_no_pop_op_ptr       stack_header:        48.
          62    stack_header.rnt_ptr     stack_header:        57.
          12    stack_header.run_unit_depth    stack_header:        30.
          54    stack_header.sct_ptr     stack_header:        53.
          30    stack_header.signal_ptr  stack_header:        41.
          22    stack_header.stack_begin_ptr   stack_header:        37.
          24    stack_header.stack_end_ptr     stack_header:        38.
          14    stack_header.system_free_ptr   stack_header:        33.
          60    stack_header.sys_link_info_ptr       stack_header:        56.
          72    stack_header.trace_frames      stack_header:        61.
          50    stack_header.trans_op_tv_ptr   stack_header:        51.
          56    stack_header.unwinder_ptr      stack_header:        54.
          16    stack_header.user_free_ptr     stack_header:        34.
         100    stack_header_end         stack_header:        64.
         263    subject                  as_error_table_:    280.
         265    sysgrpfl                 as_error_table_:    282.
         270    sys_down_msg             as_error_table_:    289.
         264    sys_full                 as_error_table_:    281.
         112    terminal_auth_msg        as_error_table_:    159.
         210    term_by_operator         as_error_table_:    225.
         113    too_many_bad_pw          as_error_table_:    160.
           0    trace_frames.count       stack_header:        69.
           1    trace_frames.top_ptr     stack_header:        70.
         211    try_again                as_error_table_:    226.
         271    try_again_at_msg         as_error_table_:    290.
         307    tty_already              as_error_table_:    312.
         310    tty_dim_err              as_error_table_:    313.
         311    tty_is_master            as_error_table_:    314.
         312    tty_no_room              as_error_table_:    315.
         551    tv_offset                stack_header:        75,   80,   81,   82,   83,   84.
         212    unknown_arg_msg          as_error_table_:    227.
         213    unknown_request_msg      as_error_table_:    228.
          24    unrecognized_device      as_error_table_:    101.
         301    user_auth_excludes       as_error_table_:    302.
         302    user_deleted             as_error_table_:    303.
         114    user_fg_cpu_limit        as_error_table_:    161.
         115    user_max_bg              as_error_table_:    162.
         116    user_max_fg              as_error_table_:    163.
         214    user_typed_quit          as_error_table_:    229.
         235    user_warn_days           as_error_table_:    254.
         236    user_warn_funds          as_error_table_:    255.
         237    user_warn_pct            as_error_table_:    256.
         272    warn_msg                 as_error_table_:    291.
         240    warn_proj_date           as_error_table_:    257.


NO FATAL ERRORS


                                          -----------------------------------------------------------


Historical Background

This edition of the Multics software materials and documentation is provided and donated
to Massachusetts Institute of Technology by Group BULL including BULL HN Information Systems Inc.
as a contribution to computer science knowledge.
This donation is made also to give evidence of the common contributions of Massachusetts Institute of Technology,
Bell Laboratories, General Electric, Honeywell Information Systems Inc., Honeywell BULL Inc., Groupe BULL
and BULL HN Information Systems Inc. to the development of this operating system.
Multics development was initiated by Massachusetts Institute of Technology Project MAC (1963-1970),
renamed the MIT Laboratory for Computer Science and Artificial Intelligence in the mid 1970s, under the leadership
of Professor Fernando Jose Corbato. Users consider that Multics provided the best software architecture
for managing computer hardware properly and for executing programs. Many subsequent operating systems
incorporated Multics principles.
Multics was distributed in 1975 to 2000 by Group Bull in Europe , and in the U.S. by Bull HN Information Systems Inc.,
as successor in interest by change in name only to Honeywell Bull Inc. and Honeywell Information Systems Inc. .

                                          -----------------------------------------------------------

Permission to use, copy, modify, and distribute these programs and their documentation for any purpose and without
fee is hereby granted,provided that the below copyright notice and historical background appear in all copies
and that both the copyright notice and historical background and this permission notice appear in supporting
documentation, and that the names of MIT, HIS, BULL or BULL HN not be used in advertising or publicity pertaining
to distribution of the programs without specific prior written permission.
    Copyright 1972 by Massachusetts Institute of Technology and Honeywell Information Systems Inc.
    Copyright 2006 by BULL HN Information Systems Inc.
    Copyright 2006 by Bull SAS
    All Rights Reserved
