ASSEMBLY LISTING OF SEGMENT >spec>on>6978-10/22/84>bad_fill.alm
ASSEMBLED ON:	10/22/84  1113.9 mst Mon
OPTIONS USED:	list
ASSEMBLED BY:	ALM Version  6.6  November 1982
ASSEMBLER CREATED:	09/21/83  1227.3 mst Wed

                                     1  "  ******************************************************
                                     2  "  *                                                    *
                                     3  "  *                                                    *
                                     4  "  * Copyright (c) 1972 by Massachusetts Institute of   *
                                     5  "  * Technology and Honeywell Information Systems, Inc. *
                                     6  "  *                                                    *
                                     7  "  *                                                    *
                                     8  "  ******************************************************
                                     9
                                    10  "  ******************************************************
                                    11  "  *                                                    *
                                    12  "  *                                                    *
                                    13  "  *    Copyright, (C) Honeywell Information Systems    *
                                    14  "  *    Inc., 1980.                                     *
                                    15  "  *                                                    *
                                    16  "  *                                                    *
                                    17  "  ******************************************************
                                    18
    000000                          19  	name	bad_fill
                        000000      20  	entry	bad_fill
                                    21
    000000  aa   000060 6270 00     22  bad_fill:	push
    000001  aa  7 00040 2721 20
                                    23
    000002  aa  0 00002 3535 20     24  	eppbb	ap|2,*
    000003  aa  3 00000 3535 20     25  	eppbb	bb|0,*		"ptr to test_data1_
    000004  aa  0 00004 3521 20     26  	eppbp	ap|4,*
    000005  aa  2 00000 3521 20     27  	eppbp	bp|0,*		"ptr to temp seg
    000006  aa   010001 2360 07     28  	ldq	4097,dl
    000007  aa  7 77140 1005 40     29  	mlr	(pr,rl),(pr,rl),fill(777)
    000010  aa   300000 000006      30  	desc9a	bb|0,ql
    000011  aa   200000 000006      31  	desc9a	bp|0,ql
                                    32
    000012  aa  6 00000 2541 00     33  	call 	test_cpu$deactivate_tempseg
    000013  0a   000034 3500 00
    000014  4a  4 00010 3521 20
    000015  aa  6 00040 7531 00
    000016  aa  7 00036 6701 20
    000017  aa  6 00000 1731 00
    000020  aa  6 00040 0731 00
                                    34
    000021  aa  7 76140 1065 40     35  	cmpc	(pr,rl),(pr,rl),fill(776)
    000022  aa   300000 000006      36  	desc9a	bb|0,ql
    000023  aa   200000 000006      37  	desc9a	bp|0,ql
    000024  0a   000026 6010 00     38  	tnz	fault
    000025  aa  7 00042 7101 20     39  	return
                                    40
    000026  aa   000000 000000      41  fault:	oct	0		"ZOP
    000027  aa  7 00042 7101 20     42  	return
                                    43  	end
ENTRY SEQUENCES

    000030  5a   000011 0000 00
    000031  aa  7 00046 2721 20
    000032  0a   000000 7100 00
LITERALS

    000034  aa   000000 000000
    000035  aa   000000 000000
NAME DEFINITIONS FOR ENTRY POINTS AND SEGDEFS

    000036  5a   000003 000000
    000037  5a   000026 600000
    000040  aa   000000 000000
    000041  55   000011 000002
    000042  5a   000002 400003
    000043  55   000006 000011
    000044  aa  010 142 141 144
    000045  aa  137 146 151 154
    000046  aa  154 000 000 000
    000047  55   000017 000003
    000050  0a   000031 500000
    000051  55   000014 000003
    000052  aa  010 142 141 144         bad_fill
    000053  aa  137 146 151 154
    000054  aa  154 000 000 000
    000055  55   000002 000011
    000056  6a   000000 400002
    000057  55   000022 000003
    000060  aa  014 163 171 155         symbol_table
    000061  aa  142 157 154 137
    000062  aa  164 141 142 154
    000063  aa  145 000 000 000

DEFINITIONS HASH TABLE

    000064  aa   000000 000015
    000065  aa   000000 000000
    000066  aa   000000 000000
    000067  aa   000000 000000
    000070  aa   000000 000000
    000071  aa   000000 000000
    000072  5a   000011 000000
    000073  5a   000017 000000
    000074  aa   000000 000000
    000075  aa   000000 000000
    000076  aa   000000 000000
    000077  aa   000000 000000
    000100  aa   000000 000000
    000101  aa   000000 000000

EXTERNAL NAMES

    000102  aa  022 144 145 141         deactivate_tempseg
    000103  aa  143 164 151 166
    000104  aa  141 164 145 137
    000105  aa  164 145 155 160
    000106  aa  163 145 147 000
    000107  aa  010 164 145 163         test_cpu
    000110  aa  164 137 143 160
    000111  aa  165 000 000 000

NO TRAP POINTER WORDS

TYPE PAIR BLOCKS

    000112  aa   000004 000000
    000113  55   000051 000044
    000114  aa   000001 000000
    000115  aa   000000 000000

INTERNAL EXPRESSION WORDS

    000116  5a   000054 000000
    000117  aa   000000 000000
LINKAGE INFORMATION

    000000  aa   000000 000000
    000001  0a   000036 000000
    000002  aa   000000 000000
    000003  aa   000000 000000
    000004  aa   000000 000000
    000005  aa   000000 000000
    000006  22   000010 000012
    000007  a2   000000 000000
    000010  9a   777770 0000 46         test_cpu|deactivate_tempseg
    000011  5a   000060 0000 00
SYMBOL INFORMATION

SYMBOL TABLE HEADER

    000000  aa   000000 000001
    000001  aa   163171 155142
    000002  aa   164162 145145
    000003  aa   000000 000004
    000004  aa   000000 112143
    000005  aa   305203 523135
    000006  aa   000000 113126
    000007  aa   355246 776364
    000010  aa   141154 155040
    000011  aa   040040 040040
    000012  aa   000024 000040
    000013  aa   000034 000040
    000014  aa   000044 000100
    000015  aa   000002 000002
    000016  aa   000064 000000
    000017  aa   000000 000122
    000020  aa   000000 000103
    000021  aa   000000 000110
    000022  aa   000114 000103
    000023  aa   000064 000000
    000024  aa   101114 115040
    000025  aa   126145 162163
    000026  aa   151157 156040
    000027  aa   040066 056066
    000030  aa   040040 116157
    000031  aa   166145 155142
    000032  aa   145162 040061
    000033  aa   071070 062040
    000034  aa   107112 157150
    000035  aa   156163 157156
    000036  aa   056123 171163
    000037  aa   115141 151156
    000040  aa   164056 155040
    000041  aa   040040 040040
    000042  aa   040040 040040
    000043  aa   040040 040040
    000044  aa   154151 163164
    000045  aa   040040 040040
    000046  aa   040040 040040
    000047  aa   040040 040040
    000050  aa   040040 040040
    000051  aa   040040 040040
    000052  aa   040040 040040
    000053  aa   040040 040040
    000054  aa   040040 040040
    000055  aa   040040 040040
    000056  aa   040040 040040
    000057  aa   040040 040040
    000060  aa   040040 040040
    000061  aa   040040 040040
    000062  aa   040040 040040
    000063  aa   040040 040040
    000064  aa   000000 000001
    000065  aa   000000 000001
    000066  aa   000072 000043
    000067  aa   131232 072453
    000070  aa   000000 113126
    000071  aa   347501 400000
    000072  aa   076163 160145          >spec>on>6978-10/22/84>bad_fill.alm
    000073  aa   143076 157156
    000074  aa   076066 071067
    000075  aa   070055 061060
    000076  aa   057062 062057
    000077  aa   070064 076142
    000100  aa   141144 137146
    000101  aa   151154 154056
    000102  aa   141154 155040
               MULTICS ASSEMBLY CROSS REFERENCE LISTING

   Value        Symbol                   Source file   Line number

           0    bad_fill                 bad_fill:      20,   22.
                deactivate_tempseg       bad_fill:      33.
          26    fault                    bad_fill:      38,   41.
                test_cpu                 bad_fill:      33.


NO FATAL ERRORS


                                          -----------------------------------------------------------


Historical Background

This edition of the Multics software materials and documentation is provided and donated
to Massachusetts Institute of Technology by Group BULL including BULL HN Information Systems Inc.
as a contribution to computer science knowledge.
This donation is made also to give evidence of the common contributions of Massachusetts Institute of Technology,
Bell Laboratories, General Electric, Honeywell Information Systems Inc., Honeywell BULL Inc., Groupe BULL
and BULL HN Information Systems Inc. to the development of this operating system.
Multics development was initiated by Massachusetts Institute of Technology Project MAC (1963-1970),
renamed the MIT Laboratory for Computer Science and Artificial Intelligence in the mid 1970s, under the leadership
of Professor Fernando Jose Corbato. Users consider that Multics provided the best software architecture
for managing computer hardware properly and for executing programs. Many subsequent operating systems
incorporated Multics principles.
Multics was distributed in 1975 to 2000 by Group Bull in Europe , and in the U.S. by Bull HN Information Systems Inc.,
as successor in interest by change in name only to Honeywell Bull Inc. and Honeywell Information Systems Inc. .

                                          -----------------------------------------------------------

Permission to use, copy, modify, and distribute these programs and their documentation for any purpose and without
fee is hereby granted,provided that the below copyright notice and historical background appear in all copies
and that both the copyright notice and historical background and this permission notice appear in supporting
documentation, and that the names of MIT, HIS, BULL or BULL HN not be used in advertising or publicity pertaining
to distribution of the programs without specific prior written permission.
    Copyright 1972 by Massachusetts Institute of Technology and Honeywell Information Systems Inc.
    Copyright 2006 by BULL HN Information Systems Inc.
    Copyright 2006 by Bull SAS
    All Rights Reserved
