ASSEMBLY LISTING OF SEGMENT >dumps>old>recomp>bcd_prt_image.alm
ASSEMBLED ON:	11/15/82  1752.4 mst Mon
OPTIONS USED:	list
ASSEMBLED BY:	ALM Version  6.4  April 1981
ASSEMBLER CREATED:	11/03/82  1423.6 mst Wed

                                     1  " ***********************************************************
                                     2  " *                                                         *
                                     3  " * Copyright, (C) Honeywell Information Systems Inc., 1982 *
                                     4  " *                                                         *
                                     5  " ***********************************************************
    000000                           6       name bcd_prt_image
                                     7
                        000000       8            segdef    image
                                     9
    000000                          10  image:
                                    11  "	mac  image - prph card code 1
                                    12
    000000  aa  000 102 030 405     13  	bci	"0123456789bcifuvestaghijklmnopwrqxyz$=""&.|{}%0#@"
    000001  aa  060 710 112 223
    000002  aa  312 664 652 562
    000003  aa  632 127 303 141
    000004  aa  424 344 454 647
    000005  aa  665 150 677 071
    000006  aa  537 576 323 340
    000007  aa  777 774 001 314
    000010  aa  412 142 252 423     14  	bci	"jakedcstbwghmiorpnflvzxy\`qu(/*)!^_~<>[]+-.,:;'?"
    000011  aa  626 322 662 730
    000012  aa  443 146 514 745
    000013  aa  264 365 716 770
    000014  aa  375 750 643 561
    000015  aa  545 577 407 277
    000016  aa  361 612 346 052
    000017  aa  337 315 565 717
    000020  aa  000 102 030 405     15            bci       "0123456789bcifuvestaghijklmnopwrqxyz$=""&.|{}%0#@"
    000021  aa  060 710 112 223
    000022  aa  312 664 652 562
    000023  aa  632 127 303 141
    000024  aa  424 344 454 647
    000025  aa  665 150 677 071
    000026  aa  537 576 323 340
    000027  aa  777 774 001 314
    000030  aa  412 142 252 423     16  	bci	"jakedcstbwghmiorpnflvzxy\`qu(/*)!^_~<>[]+-.,:;'?"
    000031  aa  626 322 662 730
    000032  aa  443 146 514 745
    000033  aa  264 365 716 770
    000034  aa  375 750 643 561
    000035  aa  545 577 407 277
    000036  aa  361 612 346 052
    000037  aa  337 315 565 717
    000040  aa  000 102 030 405     17  	bci	"0123456789bcifuvestaghijklmnopwrqxyz$=""&.|{}%0#@"
    000041  aa  060 710 112 223
    000042  aa  312 664 652 562
    000043  aa  632 127 303 141
    000044  aa  424 344 454 647
    000045  aa  665 150 677 071
    000046  aa  537 576 323 340
    000047  aa  777 774 001 314
    000050  aa  412 142 252 423     18  	bci	"jakedcstbwghmiorpnflvzxy\`qu(/*)!^_~<>[]+-.,:;'?"
    000051  aa  626 322 662 730
    000052  aa  443 146 514 745
    000053  aa  264 365 716 770
    000054  aa  375 750 643 561
    000055  aa  545 577 407 277
    000056  aa  361 612 346 052
    000057  aa  337 315 565 717
                                    19
                                    20  "	phoenix  image - prph card code 2, for group 2 type chain
                                    21  "     type 300 prt ascii train  train_5
                                    22
    000060  aa  000 102 034 121     23  	bci	"0123jake.|{}456789bcestaghijbwghmiorklmnopwrdfuv"
    000061  aa  422 533 407 777
    000062  aa  040 506 071 011
    000063  aa  222 325 626 321
    000064  aa  273 031 412 266
    000065  aa  273 044 314 651
    000066  aa  424 344 454 647
    000067  aa  665 124 266 465
    000070  aa  242 362 634 745     24  	bci	"dcstpnfl:;'?\`qu!^_~vzxy0123pnfl:;'?456789bcesta"
    000071  aa  264 315 565 717
    000072  aa  375 750 647 740
    000073  aa  727 765 716 770
    000074  aa  000 102 034 745
    000075  aa  264 315 565 717
    000076  aa  040 506 071 011
    000077  aa  222 325 626 321
    000100  aa  273 031 414 121     25  	bci	"ghijjakemiorklmnopwrdfuvdcst+-.,qxyz%0#@$=""&(/*)"
    000101  aa  422 544 314 651
    000102  aa  424 344 454 647
    000103  aa  665 124 266 465
    000104  aa  242 362 636 052
    000105  aa  337 350 677 071
    000106  aa  740 013 145 375
    000107  aa  763 235 615 455
    000110  aa  000 102 036 052     26  	bci	"0123+-.,qxyz456789bcestaghijpnfl:;'?klmnopwrdfuv"
    000111  aa  337 350 677 071
    000112  aa  040 506 071 011
    000113  aa  222 325 626 321
    000114  aa  273 031 414 745
    000115  aa  264 315 565 717
    000116  aa  424 344 454 647
    000117  aa  665 124 266 465
    000120  aa  242 362 632 266     27  	bci	"dcstbwghmior\`qu!^_~vzxy0123bwghmior456789bcesta"
    000121  aa  273 044 314 651
    000122  aa  375 750 647 740
    000123  aa  727 765 716 770
    000124  aa  000 102 032 266
    000125  aa  273 044 314 651
    000126  aa  040 506 071 011
    000127  aa  222 325 626 321
    000130  aa  273 031 416 052     28  	bci	"ghij+-.,qxyzklmnopwrdfuvdcstjake<>[]%0#@$=""&(/*)"
    000131  aa  337 350 677 071
    000132  aa  424 344 454 647
    000133  aa  665 124 266 465
    000134  aa  242 362 634 121
    000135  aa  422 536 161 234
    000136  aa  740 013 145 375
    000137  aa  763 235 615 455
                                    29
                                    30
                                    31  "	phoenix image - prph card code 3, for group 8 type chain
                                    32
    000140  aa  000 102 030 405     33  	bci	"0123456789acriflmnopdust+-.ebz,/jkq*vwxy(gh):;&?"
    000141  aa  060 710 112 123
    000142  aa  513 126 434 445
    000143  aa  464 724 646 263
    000144  aa  605 233 252 271
    000145  aa  736 141 425 054
    000146  aa  656 667 703 527
    000147  aa  305 515 563 217
    000150  aa  774 072 773 616     34  	bci	"!^_~<>[]$=""'%=#@ |{}\`abcdefghijklmnopqrstuvwxyz"
    000151  aa  123 453 757 657
    000152  aa  747 513 142 040
    000153  aa  777 737 572 122
    000154  aa  232 425 262 730
    000155  aa  314 142 434 445
    000156  aa  464 750 516 263
    000157  aa  646 566 677 071
    000160  aa  000 102 030 405     35  	bci	"0123456789acriflmnopdust+-.ebz,/jkq*vwxy(gh):;&?"
    000161  aa  060 710 112 123
    000162  aa  513 126 434 445
    000163  aa  464 724 646 263
    000164  aa  605 233 252 271
    000165  aa  736 141 425 054
    000166  aa  656 667 703 527
    000167  aa  305 515 563 217
    000170  aa  774 072 773 616     36  	bci	"!^_~<>[]$=""'%=#@ |{}\`abcdefghijklmnopqrstuvwxyz"
    000171  aa  123 453 757 657
    000172  aa  747 513 142 040
    000173  aa  777 737 572 122
    000174  aa  232 425 262 730
    000175  aa  314 142 434 445
    000176  aa  464 750 516 263
    000177  aa  646 566 677 071
    000200  aa  000 102 030 405     37  	bci	"0123456789acriflmnopdust+-.ebz,/jkq*vwxy(gh):;&?"
    000201  aa  060 710 112 123
    000202  aa  513 126 434 445
    000203  aa  464 724 646 263
    000204  aa  605 233 252 271
    000205  aa  736 141 425 054
    000206  aa  656 667 703 527
    000207  aa  305 515 563 217
    000210  aa  774 072 773 616     38  	bci	"!^_~<>[]$=""'%=#@ |{}\`abcdefghijklmnopqrstuvwxyz"
    000211  aa  123 453 757 657
    000212  aa  747 513 142 040
    000213  aa  777 737 572 122
    000214  aa  232 425 262 730
    000215  aa  314 142 434 445
    000216  aa  464 750 516 263
    000217  aa  646 566 677 071
                                    39      end bcd_prt_image

NO LITERALS

NAME DEFINITIONS FOR ENTRY POINTS AND SEGDEFS

    000220  5a   000003 000000
    000221  5a   000026 600000
    000222  aa   000000 000000
    000223  55   000012 000002
    000224  5a   000002 400003
    000225  55   000006 000012
    000226  aa  015 142 143 144
    000227  aa  137 160 162 164
    000230  aa  137 151 155 141
    000231  aa  147 145 000 000
    000232  55   000017 000003
    000233  0a   000000 400000
    000234  55   000015 000003
    000235  aa  005 151 155 141         image
    000236  aa  147 145 000 000
    000237  55   000002 000012
    000240  6a   000000 400002
    000241  55   000022 000003
    000242  aa  014 163 171 155         symbol_table
    000243  aa  142 157 154 137
    000244  aa  164 141 142 154
    000245  aa  145 000 000 000

DEFINITIONS HASH TABLE

    000246  aa   000000 000015
    000247  aa   000000 000000
    000250  aa   000000 000000
    000251  aa   000000 000000
    000252  aa   000000 000000
    000253  aa   000000 000000
    000254  5a   000012 000000
    000255  5a   000017 000000
    000256  aa   000000 000000
    000257  aa   000000 000000
    000260  aa   000000 000000
    000261  aa   000000 000000
    000262  aa   000000 000000
    000263  aa   000000 000000

NO EXTERNAL NAMES

NO TRAP POINTER WORDS

TYPE PAIR BLOCKS

    000264  aa   000001 000000
    000265  aa   000000 000000

INTERNAL EXPRESSION WORDS

LINKAGE INFORMATION

    000000  aa   000000 000000
    000001  0a   000220 000000
    000002  aa   000000 000000
    000003  aa   000000 000000
    000004  aa   000000 000000
    000005  aa   000000 000000
    000006  22   000010 000010
    000007  a2   000000 000000
SYMBOL INFORMATION

SYMBOL TABLE HEADER

    000000  aa   000000 000001
    000001  aa   163171 155142
    000002  aa   164162 145145
    000003  aa   000000 000004
    000004  aa   000000 111316
    000005  aa   510113 575622
    000006  aa   000000 111335
    000007  aa   722174 061174
    000010  aa   141154 155040
    000011  aa   040040 040040
    000012  aa   000024 000040
    000013  aa   000034 000040
    000014  aa   000044 000100
    000015  aa   000002 000002
    000016  aa   000064 000000
    000017  aa   000000 000126
    000020  aa   000000 000103
    000021  aa   000000 000115
    000022  aa   000120 000103
    000023  aa   000064 000000
    000024  aa   101114 115040
    000025  aa   126145 162163
    000026  aa   151157 156040
    000027  aa   040066 056064
    000030  aa   040040 101160
    000031  aa   162151 154040
    000032  aa   061071 070061
    000033  aa   040040 040040
    000034  aa   110157 154155
    000035  aa   163164 145144
    000036  aa   164056 123171
    000037  aa   163115 141151
    000040  aa   156164 056155
    000041  aa   040040 040040
    000042  aa   040040 040040
    000043  aa   040040 040040
    000044  aa   154151 163164
    000045  aa   040040 040040
    000046  aa   040040 040040
    000047  aa   040040 040040
    000050  aa   040040 040040
    000051  aa   040040 040040
    000052  aa   040040 040040
    000053  aa   040040 040040
    000054  aa   040040 040040
    000055  aa   040040 040040
    000056  aa   040040 040040
    000057  aa   040040 040040
    000060  aa   040040 040040
    000061  aa   040040 040040
    000062  aa   040040 040040
    000063  aa   040040 040040
    000064  aa   000000 000001
    000065  aa   000000 000001
    000066  aa   000072 000043
    000067  aa   113331 135750
    000070  aa   000000 111335
    000071  aa   623025 200000
    000072  aa   076144 165155          >dumps>old>recomp>bcd_prt_image.alm
    000073  aa   160163 076157
    000074  aa   154144 076162
    000075  aa   145143 157155
    000076  aa   160076 142143
    000077  aa   144137 160162
    000100  aa   164137 151155
    000101  aa   141147 145056
    000102  aa   141154 155040
               MULTICS ASSEMBLY CROSS REFERENCE LISTING

   Value        Symbol                   Source file   Line number

           0    image                    bcd_prt_image:        8,   10.


NO FATAL ERRORS


                                          -----------------------------------------------------------


Historical Background

This edition of the Multics software materials and documentation is provided and donated
to Massachusetts Institute of Technology by Group BULL including BULL HN Information Systems Inc.
as a contribution to computer science knowledge.
This donation is made also to give evidence of the common contributions of Massachusetts Institute of Technology,
Bell Laboratories, General Electric, Honeywell Information Systems Inc., Honeywell BULL Inc., Groupe BULL
and BULL HN Information Systems Inc. to the development of this operating system.
Multics development was initiated by Massachusetts Institute of Technology Project MAC (1963-1970),
renamed the MIT Laboratory for Computer Science and Artificial Intelligence in the mid 1970s, under the leadership
of Professor Fernando Jose Corbato. Users consider that Multics provided the best software architecture
for managing computer hardware properly and for executing programs. Many subsequent operating systems
incorporated Multics principles.
Multics was distributed in 1975 to 2000 by Group Bull in Europe , and in the U.S. by Bull HN Information Systems Inc.,
as successor in interest by change in name only to Honeywell Bull Inc. and Honeywell Information Systems Inc. .

                                          -----------------------------------------------------------

Permission to use, copy, modify, and distribute these programs and their documentation for any purpose and without
fee is hereby granted,provided that the below copyright notice and historical background appear in all copies
and that both the copyright notice and historical background and this permission notice appear in supporting
documentation, and that the names of MIT, HIS, BULL or BULL HN not be used in advertising or publicity pertaining
to distribution of the programs without specific prior written permission.
    Copyright 1972 by Massachusetts Institute of Technology and Honeywell Information Systems Inc.
    Copyright 2006 by BULL HN Information Systems Inc.
    Copyright 2006 by Bull SAS
    All Rights Reserved
