ASSEMBLY LISTING OF SEGMENT >spec>on>6978-10/22/84>ci_mod_case_2.alm
ASSEMBLED ON:	10/22/84  1113.9 mst Mon
OPTIONS USED:	list
ASSEMBLED BY:	ALM Version  6.6  November 1982
ASSEMBLER CREATED:	09/21/83  1227.3 mst Wed

                                     1  "  ******************************************************
                                     2  "  *                                                    *
                                     3  "  *                                                    *
                                     4  "  * Copyright (c) 1972 by Massachusetts Institute of   *
                                     5  "  * Technology and Honeywell Information Systems, Inc. *
                                     6  "  *                                                    *
                                     7  "  *                                                    *
                                     8  "  ******************************************************
                                     9
                                    10  "  ******************************************************
                                    11  "  *                                                    *
                                    12  "  *                                                    *
                                    13  "  *    Copyright, (C) Honeywell Information Systems    *
                                    14  "  *    Inc., 1980.                                     *
                                    15  "  *                                                    *
                                    16  "  *                                                    *
                                    17  "  ******************************************************
                                    18
    000000                          19  	name	ci_mod_case_2
                        000000      20  	entry	ci_mod_case_2
                                    21  	temp	temp
                                    22
    000000                          23  ci_mod_case_2:
    000000  aa   000060 6270 00     24  	push
    000001  aa  7 00040 2721 20
    000002  aa  0 00002 3521 20     25  	eppbp	ap|2,*	"get ptr to temp seg
    000003  aa  2 00000 3521 20     26  	eppbp	bp|0,*
    000004  aa  6 00050 4501 00     27  	stz	temp
    000005  0a   000022 2350 00     28  	lda	tally_a_t
    000006  aa  2 02000 7551 00     29  	sta	bp|1024
    000007  0a   000023 2350 00     30  	lda	tally_b_t
    000010  aa  2 04000 7551 00     31  	sta	bp|2048
                                    32
    000011                          33  loop:
    000011  aa  2 02000 2351 50     34  	lda	bp|1024,ci
    000012  aa  2 04000 1151 50     35  	cmpa	bp|2048,ci
    000013  0a   000024 6010 00     36  	tnz	no_comp
    000014  aa  2 02000 0111 52     37  	nop	bp|1024,sc
    000015  aa  2 04000 0111 52     38  	nop	bp|2048,sc
    000016  aa   000002 6070 04     39  	ttf	2,ic
    000017  aa  7 00042 7101 20     40  	return
    000020  aa  6 00050 0541 00     41  	aos	temp
    000021  0a   000011 7100 00     42  	tra	loop
                                    43
    000022                          44  tally_a_t:
    000022  0a   006001 000140      45  	vfd	18/string1,12/1,1/1,5/0
    000023                          46  tally_b_t:
    000023  0a   010001 000140      47  	vfd	18/string2,12/1,1/1,5/0
    000024                          48  no_comp:
    000024  aa   000000 000000      49  	oct	0
                                    50
                                    51  "The following bss is designed to place the label string1 at location
                                    52  "6000 octal. It is used instead of an 'org' so that test_cpu could be
                                    53  "bound while maintaining the proper offsets for those segments that need
                                    54  "instructions/labels at certain locations.
                                    55
    000025                          56  	bss	,3052
    006001                          57  string1:
    006001  aa  004 124 150 151     58  	acc	"This"
    006002  aa  163 000 000 000
                                    59
                                    60  "This bss will place string2 at octal loc 10000.
                                    61
    006003                          62  	bss	,1022
    010001                          63  string2:
    010001  aa  004 124 150 151     64  	acc	"This"
    010002  aa  163 000 000 000
                                    65
                                    66  "force fill to end of page, so next test case (tct) starts on page bndry
    010003                          67  	bss	,1018
                                    68
                                    69  	end
ENTRY SEQUENCES

    011775  5a   000012 0000 00
    011776  aa  7 00046 2721 20
    011777  0a   000000 7100 00

NO LITERALS

NAME DEFINITIONS FOR ENTRY POINTS AND SEGDEFS

    012000  5a   000003 000000
    012001  5a   000030 600000
    012002  aa   000000 000000
    012003  55   000012 000002
    012004  5a   000002 400003
    012005  55   000006 000012
    012006  aa  015 143 151 137
    012007  aa  155 157 144 137
    012010  aa  143 141 163 145
    012011  aa  137 062 000 000
    012012  55   000021 000003
    012013  0a   011776 500000
    012014  55   000015 000003
    012015  aa  015 143 151 137         ci_mod_case_2
    012016  aa  155 157 144 137
    012017  aa  143 141 163 145
    012020  aa  137 062 000 000
    012021  55   000002 000012
    012022  6a   000000 400002
    012023  55   000024 000003
    012024  aa  014 163 171 155         symbol_table
    012025  aa  142 157 154 137
    012026  aa  164 141 142 154
    012027  aa  145 000 000 000

DEFINITIONS HASH TABLE

    012030  aa   000000 000015
    012031  aa   000000 000000
    012032  5a   000012 000000
    012033  aa   000000 000000
    012034  aa   000000 000000
    012035  aa   000000 000000
    012036  aa   000000 000000
    012037  5a   000021 000000
    012040  aa   000000 000000
    012041  aa   000000 000000
    012042  aa   000000 000000
    012043  aa   000000 000000
    012044  aa   000000 000000
    012045  aa   000000 000000

NO EXTERNAL NAMES

NO TRAP POINTER WORDS

TYPE PAIR BLOCKS

    012046  aa   000001 000000
    012047  aa   000000 000000

INTERNAL EXPRESSION WORDS

LINKAGE INFORMATION

    000000  aa   000000 000000
    000001  0a   012000 000000
    000002  aa   000000 000000
    000003  aa   000000 000000
    000004  aa   000000 000000
    000005  aa   000000 000000
    000006  22   000010 000010
    000007  a2   000000 000000
SYMBOL INFORMATION

SYMBOL TABLE HEADER

    000000  aa   000000 000001
    000001  aa   163171 155142
    000002  aa   164162 145145
    000003  aa   000000 000004
    000004  aa   000000 112143
    000005  aa   305203 523135
    000006  aa   000000 113126
    000007  aa   355256 034505
    000010  aa   141154 155040
    000011  aa   040040 040040
    000012  aa   000024 000040
    000013  aa   000034 000040
    000014  aa   000044 000100
    000015  aa   000002 000002
    000016  aa   000064 000000
    000017  aa   000000 000555
    000020  aa   000000 000104
    000021  aa   000000 000544
    000022  aa   000547 000104
    000023  aa   000064 000000
    000024  aa   101114 115040
    000025  aa   126145 162163
    000026  aa   151157 156040
    000027  aa   040066 056066
    000030  aa   040040 116157
    000031  aa   166145 155142
    000032  aa   145162 040061
    000033  aa   071070 062040
    000034  aa   107112 157150
    000035  aa   156163 157156
    000036  aa   056123 171163
    000037  aa   115141 151156
    000040  aa   164056 155040
    000041  aa   040040 040040
    000042  aa   040040 040040
    000043  aa   040040 040040
    000044  aa   154151 163164
    000045  aa   040040 040040
    000046  aa   040040 040040
    000047  aa   040040 040040
    000050  aa   040040 040040
    000051  aa   040040 040040
    000052  aa   040040 040040
    000053  aa   040040 040040
    000054  aa   040040 040040
    000055  aa   040040 040040
    000056  aa   040040 040040
    000057  aa   040040 040040
    000060  aa   040040 040040
    000061  aa   040040 040040
    000062  aa   040040 040040
    000063  aa   040040 040040
    000064  aa   000000 000001
    000065  aa   000000 000001
    000066  aa   000072 000050
    000067  aa   131232 072455
    000070  aa   000000 113126
    000071  aa   347502 600000
    000072  aa   076163 160145          >spec>on>6978-10/22/84>ci_mod_case_2.alm
    000073  aa   143076 157156
    000074  aa   076066 071067
    000075  aa   070055 061060
    000076  aa   057062 062057
    000077  aa   070064 076143
    000100  aa   151137 155157
    000101  aa   144137 143141
    000102  aa   163145 137062
    000103  aa   056141 154155
               MULTICS ASSEMBLY CROSS REFERENCE LISTING

   Value        Symbol                   Source file   Line number

           0    ci_mod_case_2            ci_mod_case_2:       20,   23.
          11    loop                     ci_mod_case_2:       33,   42.
          24    no_comp                  ci_mod_case_2:       36,   48.
        6001    string1                  ci_mod_case_2:       45,   57.
       10001    string2                  ci_mod_case_2:       47,   63.
          22    tally_a_t                ci_mod_case_2:       28,   44.
          23    tally_b_t                ci_mod_case_2:       30,   46.
          50    temp                     ci_mod_case_2:       21,   27,   41.


NO FATAL ERRORS


                                          -----------------------------------------------------------


Historical Background

This edition of the Multics software materials and documentation is provided and donated
to Massachusetts Institute of Technology by Group BULL including BULL HN Information Systems Inc.
as a contribution to computer science knowledge.
This donation is made also to give evidence of the common contributions of Massachusetts Institute of Technology,
Bell Laboratories, General Electric, Honeywell Information Systems Inc., Honeywell BULL Inc., Groupe BULL
and BULL HN Information Systems Inc. to the development of this operating system.
Multics development was initiated by Massachusetts Institute of Technology Project MAC (1963-1970),
renamed the MIT Laboratory for Computer Science and Artificial Intelligence in the mid 1970s, under the leadership
of Professor Fernando Jose Corbato. Users consider that Multics provided the best software architecture
for managing computer hardware properly and for executing programs. Many subsequent operating systems
incorporated Multics principles.
Multics was distributed in 1975 to 2000 by Group Bull in Europe , and in the U.S. by Bull HN Information Systems Inc.,
as successor in interest by change in name only to Honeywell Bull Inc. and Honeywell Information Systems Inc. .

                                          -----------------------------------------------------------

Permission to use, copy, modify, and distribute these programs and their documentation for any purpose and without
fee is hereby granted,provided that the below copyright notice and historical background appear in all copies
and that both the copyright notice and historical background and this permission notice appear in supporting
documentation, and that the names of MIT, HIS, BULL or BULL HN not be used in advertising or publicity pertaining
to distribution of the programs without specific prior written permission.
    Copyright 1972 by Massachusetts Institute of Technology and Honeywell Information Systems Inc.
    Copyright 2006 by BULL HN Information Systems Inc.
    Copyright 2006 by Bull SAS
    All Rights Reserved
