ASSEMBLY LISTING OF SEGMENT >udd>sm>ds>w>ml>cmpb_onc.alm
ASSEMBLED ON:	04/17/00  1922.0 mdt Mon
OPTIONS USED:	list symbols
ASSEMBLED BY:	ALM Version 8.14 March 1989
ASSEMBLER CREATED:	06/09/89  1102.3 mdt Fri

                                     1  " ***********************************************************
                                     2  " *                                                         *
                                     3  " * Copyright, (C) Honeywell Information Systems Inc., 1984 *
                                     4  " *                                                         *
                                     5  " ***********************************************************
                        001242       6  	entry	cmpb_onc
                        001241       7  	org 	673
    001241  aa   000000 000000       8  data:	oct	000000000000
    001242                           9  cmpb_onc:
    001242  aa   000060 6270 00     10  	push
    001243  aa  7 00040 2721 20
    001244  aa  0 00002 3521 20     11  	eppbp	ap|2,*
    001245  aa  2 00000 3521 20     12  	eppbp	bp|0,*
    001246  aa   146524 2360 07     13  	ldq	52564,dl
    001247  aa   004372 2250 03     14  	ldx5	2298,du
    001250  aa  4 00000 0665 46     15  	cmpb	(pr,rl,ql),fill(1)
    001251  aa   200000 000015      16  	descb	bp|0,x5
    001252  aa   000000 000000      17  	descb	000(000)
    001253  0a   001241 6010 00     18  	tnz	data
    001254  aa  7 00042 7101 20     19  	return
                                    20  	end
ENTRY SEQUENCES

    001255  5a   000011 0000 00
    001256  aa  7 00046 2721 20
    001257  0a   001242 7100 00

NO LITERALS

NAME DEFINITIONS FOR ENTRY POINTS AND SEGDEFS

    001260  5a   000003 000000
    001261  5a   000026 600000
    001262  aa   000000 000000
    001263  55   000011 000002
    001264  5a   000002 400003
    001265  55   000006 000011
    001266  aa  010 143 155 160
    001267  aa  142 137 157 156
    001270  aa  143 000 000 000
    001271  55   000017 000003
    001272  0a   001256 500000
    001273  55   000014 000003
    001274  aa  010 143 155 160         cmpb_onc
    001275  aa  142 137 157 156
    001276  aa  143 000 000 000
    001277  55   000002 000011
    001300  6a   000000 400002
    001301  55   000022 000003
    001302  aa  014 163 171 155         symbol_table
    001303  aa  142 157 154 137
    001304  aa  164 141 142 154
    001305  aa  145 000 000 000

DEFINITIONS HASH TABLE

    001306  aa   000000 000015
    001307  aa   000000 000000
    001310  aa   000000 000000
    001311  aa   000000 000000
    001312  aa   000000 000000
    001313  aa   000000 000000
    001314  aa   000000 000000
    001315  5a   000017 000000
    001316  aa   000000 000000
    001317  aa   000000 000000
    001320  aa   000000 000000
    001321  aa   000000 000000
    001322  5a   000011 000000
    001323  aa   000000 000000

NO EXTERNAL NAMES

NO TRAP POINTER WORDS

TYPE PAIR BLOCKS

    001324  aa   000001 000000
    001325  aa   000000 000000

INTERNAL EXPRESSION WORDS

LINKAGE INFORMATION

    000000  aa   000000 000000
    000001  0a   001260 000000
    000002  aa   000000 000000
    000003  aa   000000 000000
    000004  aa   000000 000000
    000005  aa   000000 000000
    000006  22   000010 000010
    000007  a2   000000 000000
SYMBOL INFORMATION

SYMBOL TABLE HEADER

    000000  aa   000000 000001
    000001  aa   163171 155142
    000002  aa   164162 145145
    000003  aa   000000 000010
    000004  aa   000000 117244
    000005  aa   361023 525721
    000006  aa   000000 131036
    000007  aa   026405 473214
    000010  aa   141154 155040
    000011  aa   040040 040040
    000012  aa   000024 000040
    000013  aa   000034 000040
    000014  aa   000044 000100
    000015  aa   000002 000002
    000016  aa   000064 000000
    000017  aa   000000 000172
    000020  aa   000000 000101
    000021  aa   000155 000152
    000022  aa   000164 000101
    000023  aa   000064 000000
    000024  aa   101114 115040
    000025  aa   126145 162163
    000026  aa   151157 156040
    000027  aa   070056 061064
    000030  aa   040115 141162
    000031  aa   143150 040061
    000032  aa   071070 071040
    000033  aa   040040 040040
    000034  aa   123143 150162
    000035  aa   157164 150056
    000036  aa   123171 163115
    000037  aa   141151 156164
    000040  aa   056155 040040
    000041  aa   040040 040040
    000042  aa   040040 040040
    000043  aa   040040 040040
    000044  aa   154151 163164
    000045  aa   040163 171155
    000046  aa   142157 154163
    000047  aa   040040 040040
    000050  aa   040040 040040
    000051  aa   040040 040040
    000052  aa   040040 040040
    000053  aa   040040 040040
    000054  aa   040040 040040
    000055  aa   040040 040040
    000056  aa   040040 040040
    000057  aa   040040 040040
    000060  aa   040040 040040
    000061  aa   040040 040040
    000062  aa   040040 040040
    000063  aa   040040 040040
    000064  aa   000000 000001
    000065  aa   000000 000001
    000066  aa   000072 000034
    000067  aa   310157 122224
    000070  aa   000000 131036
    000071  aa   026405 400000
    000072  aa   076165 144144          >udd>sm>ds>w>ml>cmpb_onc.alm
    000073  aa   076163 155076
    000074  aa   144163 076167
    000075  aa   076155 154076
    000076  aa   143155 160142
    000077  aa   137157 156143
    000100  aa   056141 154155
               MULTICS ASSEMBLY CROSS REFERENCE LISTING

   Value        Symbol                   Source file   Line number

        1242    cmpb_onc                 cmpb_onc:       6,    9.
        1241    data                     cmpb_onc:       8,   18.


NO FATAL ERRORS


                                          -----------------------------------------------------------


Historical Background

This edition of the Multics software materials and documentation is provided and donated
to Massachusetts Institute of Technology by Group BULL including BULL HN Information Systems Inc.
as a contribution to computer science knowledge.
This donation is made also to give evidence of the common contributions of Massachusetts Institute of Technology,
Bell Laboratories, General Electric, Honeywell Information Systems Inc., Honeywell BULL Inc., Groupe BULL
and BULL HN Information Systems Inc. to the development of this operating system.
Multics development was initiated by Massachusetts Institute of Technology Project MAC (1963-1970),
renamed the MIT Laboratory for Computer Science and Artificial Intelligence in the mid 1970s, under the leadership
of Professor Fernando Jose Corbato. Users consider that Multics provided the best software architecture
for managing computer hardware properly and for executing programs. Many subsequent operating systems
incorporated Multics principles.
Multics was distributed in 1975 to 2000 by Group Bull in Europe , and in the U.S. by Bull HN Information Systems Inc.,
as successor in interest by change in name only to Honeywell Bull Inc. and Honeywell Information Systems Inc. .

                                          -----------------------------------------------------------

Permission to use, copy, modify, and distribute these programs and their documentation for any purpose and without
fee is hereby granted,provided that the below copyright notice and historical background appear in all copies
and that both the copyright notice and historical background and this permission notice appear in supporting
documentation, and that the names of MIT, HIS, BULL or BULL HN not be used in advertising or publicity pertaining
to distribution of the programs without specific prior written permission.
    Copyright 1972 by Massachusetts Institute of Technology and Honeywell Information Systems Inc.
    Copyright 2006 by BULL HN Information Systems Inc.
    Copyright 2006 by Bull SAS
    All Rights Reserved
