ASSEMBLY LISTING OF SEGMENT >spec>on>6978-10/22/84>cmpbtest_alm.alm
ASSEMBLED ON:	10/22/84  1114.0 mst Mon
OPTIONS USED:	list
ASSEMBLED BY:	ALM Version  6.6  November 1982
ASSEMBLER CREATED:	09/21/83  1227.3 mst Wed

                                     1  "  ******************************************************
                                     2  "  *                                                    *
                                     3  "  *                                                    *
                                     4  "  * Copyright (c) 1972 by Massachusetts Institute of   *
                                     5  "  * Technology and Honeywell Information Systems, Inc. *
                                     6  "  *                                                    *
                                     7  "  *                                                    *
                                     8  "  ******************************************************
                                     9
                                    10  "  ******************************************************
                                    11  "  *                                                    *
                                    12  "  *                                                    *
                                    13  "  *    Copyright, (C) Honeywell Information Systems    *
                                    14  "  *    Inc., 1980.                                     *
                                    15  "  *                                                    *
                                    16  "  *                                                    *
                                    17  "  ******************************************************
                                    18
    000000                          19  	name	cmpbtest_alm
                        000000      20  	entry	cmpbtest_alm
                                    21
                                    22  	include	eis_bits
                        000100     1-1  	bool	ar,100
                        000040     1-2  	bool	rl,40
                        000020     1-3  	bool	id,20
                                   1-4  "
                        000001     1-5  	bool	au,01
                        000002     1-6  	bool	qu,02
                        000003     1-7  	bool	du,03
                        000004     1-8  	bool	ic,04
                        000005     1-9  	bool	a,05
                        000005    1-10  	bool	al,05
                        000006    1-11  	bool	q,06
                        000006    1-12  	bool	ql,06
                        000010    1-13  	bool	x0,10
                        000011    1-14  	bool	x1,11
                        000012    1-15  	bool	x2,12
                        000013    1-16  	bool	x3,13
                        000014    1-17  	bool	x4,14
                        000015    1-18  	bool	x5,15
                        000016    1-19  	bool	x6,16
                        000017    1-20  	bool	x7,17
                                  1-21  "
                        000003    1-22  	bool	move,03
                        000001    1-23  	bool	and,01
                        000007    1-24  	bool	or,07
                        000016    1-25  	bool	nand,16
                        000006    1-26  	bool	xor,6
                        000000    1-27  	bool	clear,0
                        000014    1-28  	bool	invert,14
                                  1-29  "
                        000001    1-30  	equ	round,1
                        000001    1-31  	equ	truncate,1
                                    23
    000000                          24  cmpbtest_alm:
    000000  aa   000001 2350 07     25  	lda	1,dl	"bit offset of source
    000001  aa  0 00006 2361 20     26  	ldq	ap|6,*	"length of source in bits
    000002  aa   000000 6270 06     27  	eax7	0,ql
                                    28
    000003  aa  0 00002 3715 20     29  	epp5	ap|2,*
    000004  aa  5 00000 3715 20     30  	epp5	pr5|0,*	"source string
    000005  aa  0 00004 3735 20     31  	epp7	ap|4,*
    000006  aa  7 00000 3735 20     32  	epp7	pr7|0,*	"target string
                                    33
    000007  aa  0 03140 0605 45     34  	csl	(pr,rl,al),(pr,rl),fill(0),bool(move)
    000010  aa   577777 700006      35  	descb	pr5|-1(35),ql
    000011  aa   700000 000017      36  	descb	pr7|0,x7
                                    37
    000012  aa  0 00140 0665 40     38  	cmpb	(pr,rl),(pr,rl),fill(000)
    000013  aa   500000 000006      39  	descb	pr5|0,ql	"try simpler descriptors
    000014  aa   700000 000006      40  	descb	pr7|0,ql	"idea is to kill csl, not cmpb
                                    41
    000015  0a   000020 6010 00     42  	tnz	myzop	"fail
    000016  aa  6 00000 3731 00     43  	epbp7	pr6|0
    000017  aa  7 00044 7101 20     44  	short_return
                                    45
    000020  aa   000000 000000      46  myzop:	oct	0
    000021  aa  6 00000 3731 00     47  	epbp7	pr6|0
    000022  aa  7 00044 7101 20     48  	short_return
                                    49
                                    50  	end
ENTRY SEQUENCES

    000023  5a   000012 0000 00
    000024  aa  7 00046 2721 20
    000025  0a   000000 7100 00

NO LITERALS

NAME DEFINITIONS FOR ENTRY POINTS AND SEGDEFS

    000026  5a   000003 000000
    000027  5a   000030 600000
    000030  aa   000000 000000
    000031  55   000012 000002
    000032  5a   000002 400003
    000033  55   000006 000012
    000034  aa  014 143 155 160
    000035  aa  142 164 145 163
    000036  aa  164 137 141 154
    000037  aa  155 000 000 000
    000040  55   000021 000003
    000041  0a   000024 500000
    000042  55   000015 000003
    000043  aa  014 143 155 160         cmpbtest_alm
    000044  aa  142 164 145 163
    000045  aa  164 137 141 154
    000046  aa  155 000 000 000
    000047  55   000002 000012
    000050  6a   000000 400002
    000051  55   000024 000003
    000052  aa  014 163 171 155         symbol_table
    000053  aa  142 157 154 137
    000054  aa  164 141 142 154
    000055  aa  145 000 000 000

DEFINITIONS HASH TABLE

    000056  aa   000000 000015
    000057  aa   000000 000000
    000060  aa   000000 000000
    000061  aa   000000 000000
    000062  aa   000000 000000
    000063  5a   000012 000000
    000064  aa   000000 000000
    000065  5a   000021 000000
    000066  aa   000000 000000
    000067  aa   000000 000000
    000070  aa   000000 000000
    000071  aa   000000 000000
    000072  aa   000000 000000
    000073  aa   000000 000000

NO EXTERNAL NAMES

NO TRAP POINTER WORDS

TYPE PAIR BLOCKS

    000074  aa   000001 000000
    000075  aa   000000 000000

INTERNAL EXPRESSION WORDS

LINKAGE INFORMATION

    000000  aa   000000 000000
    000001  0a   000026 000000
    000002  aa   000000 000000
    000003  aa   000000 000000
    000004  aa   000000 000000
    000005  aa   000000 000000
    000006  22   000010 000010
    000007  a2   000000 000000
SYMBOL INFORMATION

SYMBOL TABLE HEADER

    000000  aa   000000 000001
    000001  aa   163171 155142
    000002  aa   164162 145145
    000003  aa   000000 000004
    000004  aa   000000 112143
    000005  aa   305203 523135
    000006  aa   000000 113126
    000007  aa   355272 234416
    000010  aa   141154 155040
    000011  aa   040040 040040
    000012  aa   000024 000040
    000013  aa   000034 000040
    000014  aa   000044 000100
    000015  aa   000002 000002
    000016  aa   000064 000000
    000017  aa   000000 000136
    000020  aa   000000 000120
    000021  aa   000000 000124
    000022  aa   000127 000120
    000023  aa   000064 000000
    000024  aa   101114 115040
    000025  aa   126145 162163
    000026  aa   151157 156040
    000027  aa   040066 056066
    000030  aa   040040 116157
    000031  aa   166145 155142
    000032  aa   145162 040061
    000033  aa   071070 062040
    000034  aa   107112 157150
    000035  aa   156163 157156
    000036  aa   056123 171163
    000037  aa   115141 151156
    000040  aa   164056 155040
    000041  aa   040040 040040
    000042  aa   040040 040040
    000043  aa   040040 040040
    000044  aa   154151 163164
    000045  aa   040040 040040
    000046  aa   040040 040040
    000047  aa   040040 040040
    000050  aa   040040 040040
    000051  aa   040040 040040
    000052  aa   040040 040040
    000053  aa   040040 040040
    000054  aa   040040 040040
    000055  aa   040040 040040
    000056  aa   040040 040040
    000057  aa   040040 040040
    000060  aa   040040 040040
    000061  aa   040040 040040
    000062  aa   040040 040040
    000063  aa   040040 040040
    000064  aa   000000 000001
    000065  aa   000000 000002
    000066  aa   000076 000047
    000067  aa   131232 072460
    000070  aa   000000 113126
    000071  aa   347504 200000
    000072  aa   000110 000036
    000073  aa   043243 127522
    000074  aa   000000 101621
    000075  aa   351621 000000
    000076  aa   076163 160145          >spec>on>6978-10/22/84>cmpbtest_alm.alm
    000077  aa   143076 157156
    000100  aa   076066 071067
    000101  aa   070055 061060
    000102  aa   057062 062057
    000103  aa   070064 076143
    000104  aa   155160 142164
    000105  aa   145163 164137
    000106  aa   141154 155056
    000107  aa   141154 155040
    000110  aa   076154 144144          >ldd>include>eis_bits.incl.alm
    000111  aa   076151 156143
    000112  aa   154165 144145
    000113  aa   076145 151163
    000114  aa   137142 151164
    000115  aa   163056 151156
    000116  aa   143154 056141
    000117  aa   154155 040040
               MULTICS ASSEMBLY CROSS REFERENCE LISTING

   Value        Symbol                   Source file   Line number

           5    a                        eis_bits:       9.
           5    al                       eis_bits:      10.
           1    and                      eis_bits:      23.
         100    ar                       eis_bits:       1.
           1    au                       eis_bits:       5.
           0    clear                    eis_bits:      27.
           0    cmpbtest_alm             cmpbtest_alm:        20,   24.
           3    du                       eis_bits:       7.
           4    ic                       eis_bits:       8.
          20    id                       eis_bits:       3.
          14    invert                   eis_bits:      28.
           3    move                     cmpbtest_alm:        34,
                                         eis_bits:      22.
          20    myzop                    cmpbtest_alm:        42,   46.
          16    nand                     eis_bits:      25.
           7    or                       eis_bits:      24.
           6    q                        eis_bits:      11.
           6    ql                       eis_bits:      12.
           2    qu                       eis_bits:       6.
          40    rl                       eis_bits:       2.
           1    round                    eis_bits:      30.
           1    truncate                 eis_bits:      31.
          10    x0                       eis_bits:      13.
          11    x1                       eis_bits:      14.
          12    x2                       eis_bits:      15.
          13    x3                       eis_bits:      16.
          14    x4                       eis_bits:      17.
          15    x5                       eis_bits:      18.
          16    x6                       eis_bits:      19.
          17    x7                       eis_bits:      20.
           6    xor                      eis_bits:      26.


NO FATAL ERRORS


                                          -----------------------------------------------------------


Historical Background

This edition of the Multics software materials and documentation is provided and donated
to Massachusetts Institute of Technology by Group BULL including BULL HN Information Systems Inc.
as a contribution to computer science knowledge.
This donation is made also to give evidence of the common contributions of Massachusetts Institute of Technology,
Bell Laboratories, General Electric, Honeywell Information Systems Inc., Honeywell BULL Inc., Groupe BULL
and BULL HN Information Systems Inc. to the development of this operating system.
Multics development was initiated by Massachusetts Institute of Technology Project MAC (1963-1970),
renamed the MIT Laboratory for Computer Science and Artificial Intelligence in the mid 1970s, under the leadership
of Professor Fernando Jose Corbato. Users consider that Multics provided the best software architecture
for managing computer hardware properly and for executing programs. Many subsequent operating systems
incorporated Multics principles.
Multics was distributed in 1975 to 2000 by Group Bull in Europe , and in the U.S. by Bull HN Information Systems Inc.,
as successor in interest by change in name only to Honeywell Bull Inc. and Honeywell Information Systems Inc. .

                                          -----------------------------------------------------------

Permission to use, copy, modify, and distribute these programs and their documentation for any purpose and without
fee is hereby granted,provided that the below copyright notice and historical background appear in all copies
and that both the copyright notice and historical background and this permission notice appear in supporting
documentation, and that the names of MIT, HIS, BULL or BULL HN not be used in advertising or publicity pertaining
to distribution of the programs without specific prior written permission.
    Copyright 1972 by Massachusetts Institute of Technology and Honeywell Information Systems Inc.
    Copyright 2006 by BULL HN Information Systems Inc.
    Copyright 2006 by Bull SAS
    All Rights Reserved
