ASSEMBLY LISTING OF SEGMENT >spec>on>6978-10/22/84>cmpc7.alm
ASSEMBLED ON:	10/22/84  1114.1 mst Mon
OPTIONS USED:	list
ASSEMBLED BY:	ALM Version  6.6  November 1982
ASSEMBLER CREATED:	09/21/83  1227.3 mst Wed

                                     1  "  ******************************************************
                                     2  "  *                                                    *
                                     3  "  *                                                    *
                                     4  "  * Copyright (c) 1972 by Massachusetts Institute of   *
                                     5  "  * Technology and Honeywell Information Systems, Inc. *
                                     6  "  *                                                    *
                                     7  "  *                                                    *
                                     8  "  ******************************************************
                                     9
                                    10  "  ******************************************************
                                    11  "  *                                                    *
                                    12  "  *                                                    *
                                    13  "  *    Copyright, (C) Honeywell Information Systems    *
                                    14  "  *    Inc., 1980.                                     *
                                    15  "  *                                                    *
                                    16  "  *                                                    *
                                    17  "  ******************************************************
                                    18
    000000                          19  	name	cmpc7
                        000000      20  	entry	cmpc7
                                    21
    000000  aa   000060 6270 00     22  cmpc7:	push
    000001  aa  7 00040 2721 20
    000002  aa  0 00002 3521 20     23  	eppbp	ap|2,*
    000003  aa  2 00000 3521 20     24  	eppbp	bp|0,*
    000004  aa   001771 0520 03     25  	adwpbp	1017,du
    000005  0a   001771 3514 00     26  	eppab	CONST
    000006  aa  0 00100 1065 00     27  	cmpc	(pr),(pr)
    000007  aa   200000 000040      28  	desc9a	bp|0,32
    000010  aa   100000 000040      29  	desc9a	ab|0,32
    000011  0a   000013 6010 00     30  	tnz	fail
    000012  aa  7 00042 7101 20     31  	return
                                    32
    000013  aa   000000 000000      33  fail:	oct	0		"ZOP
                                    34
                        001771      35  	org	1017
    001771  aa   042041 173074      36  CONST:	oct	042041173074,076101102103,104105106107,110111112113
    001772  aa   076101 102103
    001773  aa   104105 106107
    001774  aa   110111 112113
    001775  aa   114115 116117      37  	oct	114115116117,120121122123,124125126127,130131132012
    001776  aa   120121 122123
    001777  aa   124125 126127
    002000  aa   130131 132012
                                    38
                                    39  "force fill to page bound for next test
    002001                          40  	bss	,1020
                                    41
                                    42  	end
ENTRY SEQUENCES

    003775  5a   000010 0000 00
    003776  aa  7 00046 2721 20
    003777  0a   000000 7100 00

NO LITERALS

NAME DEFINITIONS FOR ENTRY POINTS AND SEGDEFS

    004000  5a   000003 000000
    004001  5a   000024 600000
    004002  aa   000000 000000
    004003  55   000010 000002
    004004  5a   000002 400003
    004005  55   000006 000010
    004006  aa  005 143 155 160
    004007  aa  143 067 000 000
    004010  55   000015 000003
    004011  0a   003776 500000
    004012  55   000013 000003
    004013  aa  005 143 155 160         cmpc7
    004014  aa  143 067 000 000
    004015  55   000002 000010
    004016  6a   000000 400002
    004017  55   000020 000003
    004020  aa  014 163 171 155         symbol_table
    004021  aa  142 157 154 137
    004022  aa  164 141 142 154
    004023  aa  145 000 000 000

DEFINITIONS HASH TABLE

    004024  aa   000000 000015
    004025  5a   000010 000000
    004026  aa   000000 000000
    004027  aa   000000 000000
    004030  aa   000000 000000
    004031  aa   000000 000000
    004032  aa   000000 000000
    004033  5a   000015 000000
    004034  aa   000000 000000
    004035  aa   000000 000000
    004036  aa   000000 000000
    004037  aa   000000 000000
    004040  aa   000000 000000
    004041  aa   000000 000000

NO EXTERNAL NAMES

NO TRAP POINTER WORDS

TYPE PAIR BLOCKS

    004042  aa   000001 000000
    004043  aa   000000 000000

INTERNAL EXPRESSION WORDS

LINKAGE INFORMATION

    000000  aa   000000 000000
    000001  0a   004000 000000
    000002  aa   000000 000000
    000003  aa   000000 000000
    000004  aa   000000 000000
    000005  aa   000000 000000
    000006  22   000010 000010
    000007  a2   000000 000000
SYMBOL INFORMATION

SYMBOL TABLE HEADER

    000000  aa   000000 000001
    000001  aa   163171 155142
    000002  aa   164162 145145
    000003  aa   000000 000004
    000004  aa   000000 112143
    000005  aa   305203 523135
    000006  aa   000000 113126
    000007  aa   355330 603243
    000010  aa   141154 155040
    000011  aa   040040 040040
    000012  aa   000024 000040
    000013  aa   000034 000040
    000014  aa   000044 000100
    000015  aa   000002 000002
    000016  aa   000064 000000
    000017  aa   000000 000300
    000020  aa   000000 000102
    000021  aa   000000 000267
    000022  aa   000272 000102
    000023  aa   000064 000000
    000024  aa   101114 115040
    000025  aa   126145 162163
    000026  aa   151157 156040
    000027  aa   040066 056066
    000030  aa   040040 116157
    000031  aa   166145 155142
    000032  aa   145162 040061
    000033  aa   071070 062040
    000034  aa   107112 157150
    000035  aa   156163 157156
    000036  aa   056123 171163
    000037  aa   115141 151156
    000040  aa   164056 155040
    000041  aa   040040 040040
    000042  aa   040040 040040
    000043  aa   040040 040040
    000044  aa   154151 163164
    000045  aa   040040 040040
    000046  aa   040040 040040
    000047  aa   040040 040040
    000050  aa   040040 040040
    000051  aa   040040 040040
    000052  aa   040040 040040
    000053  aa   040040 040040
    000054  aa   040040 040040
    000055  aa   040040 040040
    000056  aa   040040 040040
    000057  aa   040040 040040
    000060  aa   040040 040040
    000061  aa   040040 040040
    000062  aa   040040 040040
    000063  aa   040040 040040
    000064  aa   000000 000001
    000065  aa   000000 000001
    000066  aa   000072 000040
    000067  aa   131232 072462
    000070  aa   000000 113126
    000071  aa   347506 400000
    000072  aa   076163 160145          >spec>on>6978-10/22/84>cmpc7.alm
    000073  aa   143076 157156
    000074  aa   076066 071067
    000075  aa   070055 061060
    000076  aa   057062 062057
    000077  aa   070064 076143
    000100  aa   155160 143067
    000101  aa   056141 154155
               MULTICS ASSEMBLY CROSS REFERENCE LISTING

   Value        Symbol                   Source file   Line number

           0    cmpc7                    cmpc7:         20,   22.
        1771    CONST                    cmpc7:         26,   36.
          13    fail                     cmpc7:         30,   33.


NO FATAL ERRORS


                                          -----------------------------------------------------------


Historical Background

This edition of the Multics software materials and documentation is provided and donated
to Massachusetts Institute of Technology by Group BULL including BULL HN Information Systems Inc.
as a contribution to computer science knowledge.
This donation is made also to give evidence of the common contributions of Massachusetts Institute of Technology,
Bell Laboratories, General Electric, Honeywell Information Systems Inc., Honeywell BULL Inc., Groupe BULL
and BULL HN Information Systems Inc. to the development of this operating system.
Multics development was initiated by Massachusetts Institute of Technology Project MAC (1963-1970),
renamed the MIT Laboratory for Computer Science and Artificial Intelligence in the mid 1970s, under the leadership
of Professor Fernando Jose Corbato. Users consider that Multics provided the best software architecture
for managing computer hardware properly and for executing programs. Many subsequent operating systems
incorporated Multics principles.
Multics was distributed in 1975 to 2000 by Group Bull in Europe , and in the U.S. by Bull HN Information Systems Inc.,
as successor in interest by change in name only to Honeywell Bull Inc. and Honeywell Information Systems Inc. .

                                          -----------------------------------------------------------

Permission to use, copy, modify, and distribute these programs and their documentation for any purpose and without
fee is hereby granted,provided that the below copyright notice and historical background appear in all copies
and that both the copyright notice and historical background and this permission notice appear in supporting
documentation, and that the names of MIT, HIS, BULL or BULL HN not be used in advertising or publicity pertaining
to distribution of the programs without specific prior written permission.
    Copyright 1972 by Massachusetts Institute of Technology and Honeywell Information Systems Inc.
    Copyright 2006 by BULL HN Information Systems Inc.
    Copyright 2006 by Bull SAS
    All Rights Reserved
