ASSEMBLY LISTING OF SEGMENT >spec>on>6978-10/22/84>cmpc_pgbnd.alm
ASSEMBLED ON:	10/22/84  1114.2 mst Mon
OPTIONS USED:	list
ASSEMBLED BY:	ALM Version  6.6  November 1982
ASSEMBLER CREATED:	09/21/83  1227.3 mst Wed

                                     1  "  ******************************************************
                                     2  "  *                                                    *
                                     3  "  *                                                    *
                                     4  "  * Copyright (c) 1972 by Massachusetts Institute of   *
                                     5  "  * Technology and Honeywell Information Systems, Inc. *
                                     6  "  *                                                    *
                                     7  "  *                                                    *
                                     8  "  ******************************************************
                                     9
                                    10  "  ******************************************************
                                    11  "  *                                                    *
                                    12  "  *                                                    *
                                    13  "  *    Copyright, (C) Honeywell Information Systems    *
                                    14  "  *    Inc., 1980.                                     *
                                    15  "  *                                                    *
                                    16  "  *                                                    *
                                    17  "  ******************************************************
                                    18
    000000                          19  	name	cmpc_pgbnd
                        000000      20  	entry	cmpc_pgbnd
                                    21
    000000  aa   000060 6270 00     22  cmpc_pgbnd:	push
    000001  aa  7 00040 2721 20
    000002  aa  0 00002 3521 20     23  	eppbp	ap|2,*	"get ptr to temp seg
    000003  aa  2 00000 3521 20     24  	eppbp	bp|0,*
    000004  aa  2 00000 3535 20     25  	eppbb	bp|0,*
    000005  aa   001767 0520 03     26  	adwpbp	1015,du
    000006  aa   004000 0520 03     27  	adwpbp	2048,du
    000007  aa   040100 1004 00     28  	mlr	(),(pr),fill(040)
    000010  aa   000000 000000      29  	zero
    000011  aa   200000 000050      30  	desc9a	bp|0,40
                                    31
    000012  aa  6 00000 2541 00     32  	call 	test_cpu$deactivate_tempseg     "do it to the tempseg
    000013  0a   000036 3500 00
    000014  4a  4 00010 3521 20
    000015  aa  6 00040 7531 00
    000016  aa  7 00036 6701 20
    000017  aa  6 00000 1731 00
    000020  aa  6 00040 0731 00
                                    33
    000021  aa   000002 6260 00     34  	eax6	2
    000022  aa  2 00000 5005 16     35  	a9bd	bp|0,x6
    000023  aa   000046 7270 07     36  	lxl7	38,dl
    000024  aa  0 40100 1065 40     37  	cmpc	(pr,rl),(pr),fill(040)
    000025  aa   200000 000017      38  	desc9a	bp|0,x7
    000026  aa   300000 000000      39  	desc9a	bb|0,0
    000027  0a   000031 6010 00     40  	tnz	fault
    000030  aa  7 00042 7101 20     41  	return
                                    42
    000031  aa   000000 000000      43  fault:	oct	0	"ZOP
                                    44  	end
ENTRY SEQUENCES

    000032  5a   000011 0000 00
    000033  aa  7 00046 2721 20
    000034  0a   000000 7100 00
LITERALS

    000036  aa   000000 000000
    000037  aa   000000 000000
NAME DEFINITIONS FOR ENTRY POINTS AND SEGDEFS

    000040  5a   000003 000000
    000041  5a   000026 600000
    000042  aa   000000 000000
    000043  55   000011 000002
    000044  5a   000002 400003
    000045  55   000006 000011
    000046  aa  012 143 155 160
    000047  aa  143 137 160 147
    000050  aa  142 156 144 000
    000051  55   000017 000003
    000052  0a   000033 500000
    000053  55   000014 000003
    000054  aa  012 143 155 160         cmpc_pgbnd
    000055  aa  143 137 160 147
    000056  aa  142 156 144 000
    000057  55   000002 000011
    000060  6a   000000 400002
    000061  55   000022 000003
    000062  aa  014 163 171 155         symbol_table
    000063  aa  142 157 154 137
    000064  aa  164 141 142 154
    000065  aa  145 000 000 000

DEFINITIONS HASH TABLE

    000066  aa   000000 000015
    000067  aa   000000 000000
    000070  5a   000011 000000
    000071  aa   000000 000000
    000072  aa   000000 000000
    000073  aa   000000 000000
    000074  aa   000000 000000
    000075  5a   000017 000000
    000076  aa   000000 000000
    000077  aa   000000 000000
    000100  aa   000000 000000
    000101  aa   000000 000000
    000102  aa   000000 000000
    000103  aa   000000 000000

EXTERNAL NAMES

    000104  aa  022 144 145 141         deactivate_tempseg
    000105  aa  143 164 151 166
    000106  aa  141 164 145 137
    000107  aa  164 145 155 160
    000110  aa  163 145 147 000
    000111  aa  010 164 145 163         test_cpu
    000112  aa  164 137 143 160
    000113  aa  165 000 000 000

NO TRAP POINTER WORDS

TYPE PAIR BLOCKS

    000114  aa   000004 000000
    000115  55   000051 000044
    000116  aa   000001 000000
    000117  aa   000000 000000

INTERNAL EXPRESSION WORDS

    000120  5a   000054 000000
    000121  aa   000000 000000
LINKAGE INFORMATION

    000000  aa   000000 000000
    000001  0a   000040 000000
    000002  aa   000000 000000
    000003  aa   000000 000000
    000004  aa   000000 000000
    000005  aa   000000 000000
    000006  22   000010 000012
    000007  a2   000000 000000
    000010  9a   777770 0000 46         test_cpu|deactivate_tempseg
    000011  5a   000060 0000 00
SYMBOL INFORMATION

SYMBOL TABLE HEADER

    000000  aa   000000 000001
    000001  aa   163171 155142
    000002  aa   164162 145145
    000003  aa   000000 000004
    000004  aa   000000 112143
    000005  aa   305203 523135
    000006  aa   000000 113126
    000007  aa   355355 560214
    000010  aa   141154 155040
    000011  aa   040040 040040
    000012  aa   000024 000040
    000013  aa   000034 000040
    000014  aa   000044 000100
    000015  aa   000002 000002
    000016  aa   000064 000000
    000017  aa   000000 000123
    000020  aa   000000 000104
    000021  aa   000000 000111
    000022  aa   000115 000104
    000023  aa   000064 000000
    000024  aa   101114 115040
    000025  aa   126145 162163
    000026  aa   151157 156040
    000027  aa   040066 056066
    000030  aa   040040 116157
    000031  aa   166145 155142
    000032  aa   145162 040061
    000033  aa   071070 062040
    000034  aa   107112 157150
    000035  aa   156163 157156
    000036  aa   056123 171163
    000037  aa   115141 151156
    000040  aa   164056 155040
    000041  aa   040040 040040
    000042  aa   040040 040040
    000043  aa   040040 040040
    000044  aa   154151 163164
    000045  aa   040040 040040
    000046  aa   040040 040040
    000047  aa   040040 040040
    000050  aa   040040 040040
    000051  aa   040040 040040
    000052  aa   040040 040040
    000053  aa   040040 040040
    000054  aa   040040 040040
    000055  aa   040040 040040
    000056  aa   040040 040040
    000057  aa   040040 040040
    000060  aa   040040 040040
    000061  aa   040040 040040
    000062  aa   040040 040040
    000063  aa   040040 040040
    000064  aa   000000 000001
    000065  aa   000000 000001
    000066  aa   000072 000045
    000067  aa   131232 072464
    000070  aa   000000 113126
    000071  aa   347510 200000
    000072  aa   076163 160145          >spec>on>6978-10/22/84>cmpc_pgbnd.alm
    000073  aa   143076 157156
    000074  aa   076066 071067
    000075  aa   070055 061060
    000076  aa   057062 062057
    000077  aa   070064 076143
    000100  aa   155160 143137
    000101  aa   160147 142156
    000102  aa   144056 141154
    000103  aa   155040 040040
               MULTICS ASSEMBLY CROSS REFERENCE LISTING

   Value        Symbol                   Source file   Line number

           0    cmpc_pgbnd               cmpc_pgbnd:    20,   22.
                deactivate_tempseg       cmpc_pgbnd:    32.
          31    fault                    cmpc_pgbnd:    40,   43.
                test_cpu                 cmpc_pgbnd:    32.


NO FATAL ERRORS


                                          -----------------------------------------------------------


Historical Background

This edition of the Multics software materials and documentation is provided and donated
to Massachusetts Institute of Technology by Group BULL including BULL HN Information Systems Inc.
as a contribution to computer science knowledge.
This donation is made also to give evidence of the common contributions of Massachusetts Institute of Technology,
Bell Laboratories, General Electric, Honeywell Information Systems Inc., Honeywell BULL Inc., Groupe BULL
and BULL HN Information Systems Inc. to the development of this operating system.
Multics development was initiated by Massachusetts Institute of Technology Project MAC (1963-1970),
renamed the MIT Laboratory for Computer Science and Artificial Intelligence in the mid 1970s, under the leadership
of Professor Fernando Jose Corbato. Users consider that Multics provided the best software architecture
for managing computer hardware properly and for executing programs. Many subsequent operating systems
incorporated Multics principles.
Multics was distributed in 1975 to 2000 by Group Bull in Europe , and in the U.S. by Bull HN Information Systems Inc.,
as successor in interest by change in name only to Honeywell Bull Inc. and Honeywell Information Systems Inc. .

                                          -----------------------------------------------------------

Permission to use, copy, modify, and distribute these programs and their documentation for any purpose and without
fee is hereby granted,provided that the below copyright notice and historical background appear in all copies
and that both the copyright notice and historical background and this permission notice appear in supporting
documentation, and that the names of MIT, HIS, BULL or BULL HN not be used in advertising or publicity pertaining
to distribution of the programs without specific prior written permission.
    Copyright 1972 by Massachusetts Institute of Technology and Honeywell Information Systems Inc.
    Copyright 2006 by BULL HN Information Systems Inc.
    Copyright 2006 by Bull SAS
    All Rights Reserved
