ASSEMBLY LISTING OF SEGMENT >spec>on>6978-10/22/84>cmpc_adj_len.alm
ASSEMBLED ON:	10/22/84  1114.1 mst Mon
OPTIONS USED:	list
ASSEMBLED BY:	ALM Version  6.6  November 1982
ASSEMBLER CREATED:	09/21/83  1227.3 mst Wed

                                     1  "  ******************************************************
                                     2  "  *                                                    *
                                     3  "  *                                                    *
                                     4  "  * Copyright (c) 1972 by Massachusetts Institute of   *
                                     5  "  * Technology and Honeywell Information Systems, Inc. *
                                     6  "  *                                                    *
                                     7  "  *                                                    *
                                     8  "  ******************************************************
                                     9
                                    10  "  ******************************************************
                                    11  "  *                                                    *
                                    12  "  *                                                    *
                                    13  "  *    Copyright, (C) Honeywell Information Systems    *
                                    14  "  *    Inc., 1980.                                     *
                                    15  "  *                                                    *
                                    16  "  *                                                    *
                                    17  "  ******************************************************
                                    18
    000000                          19  	name	cmpc_adj_len
                        000000      20  	entry	cmpc_adj_len
                                    21
    000000                          22  cmpc_adj_len:
    000000  aa   000060 6270 00     23  	push
    000001  aa  7 00040 2721 20
    000002                          24  again:
    000002  aa  0 00002 3521 20     25  	eppbp	ap|2,* 		"get ptr to temp seg
    000003  aa  2 00000 3521 20     26  	eppbp	bp|0,*
    000004  aa  2 00000 3535 20     27  	eppbb	bp|0,*
    000005  aa   001765 0520 03     28  	adwpbp	1024-11,du	"start 11 wrds befor pg bnd
    000006  aa   003765 0530 03     29  	adwpbb	2048-11,du	"start 11 wrds befor pg bnd
    000007  aa   000200 2350 07     30  	lda	=128,dl
    000010  aa   000170 2360 07     31  	ldq	=120,dl
                                    32
    000011  aa   040140 1004 40     33  	mlr	(rl),(pr,rl),fill(040)	"fill string 1 data for cmpc
    000012  0a   000034 000005      34  	desc9a	STRING1,al
    000013  aa   200000 000005      35  	desc9a	bp|0,al
                                    36
    000014  aa   177140 1004 40     37  	mlr	(rl),(pr,rl),fill(177)	"fill str2 data for cmpc
    000015  0a   000034 000005      38  	desc9a	STRING1,al		"str2 sb 2 wrds less than str1
    000016  aa   300000 000006      39  	desc9a	bb|0,ql			"strings ^=
                                    40
    000017  aa  6 00000 2541 00     41  	call	test_cpu$deactivate_tempseg  "force pgflt next access
    000020  0a   000110 3500 00
    000021  4a  4 00010 3521 20
    000022  aa  6 00040 7531 00
    000023  aa  7 00036 6701 20
    000024  aa  6 00000 1731 00
    000025  aa  6 00040 0731 00
                                    42
    000026  aa  0 40140 1065 40     43  	cmpc	(pr,rl),(pr,rl),fill(040)
    000027  aa   200000 000005      44  	desc9a	bp|0,al
    000030  aa   300000 000005      45  	desc9a	bb|0,al
    000031  0a   000033 6010 00     46  	tnz	RET			"STRs ^match return
    000032  aa   000000 000000      47  crump:	oct	0			"test failed ZOP it
    000033  aa  7 00042 7101 20     48  RET:	return
                                    49
    000034                          50  STRING1:
    000034  aa  060 061 062 063     51  	aci	"01234567890!$%&'()=~|-^\`{_@[_;:]+*},./<"
    000035  aa  064 065 066 067
    000036  aa  070 071 060 041
    000037  aa  044 045 046 047
    000040  aa  050 051 075 176
    000041  aa  174 055 136 134
    000042  aa  140 173 137 100
    000043  aa  133 137 073 072
    000044  aa  135 053 052 175
    000045  aa  054 056 057 074
    000046  aa  076 077 040 161     52  	aci	">? qwertyuiopasdfghjkllzxcvbnmQWERTYUIOP"
    000047  aa  167 145 162 164
    000050  aa  171 165 151 157
    000051  aa  160 141 163 144
    000052  aa  146 147 150 152
    000053  aa  153 154 154 172
    000054  aa  170 143 166 142
    000055  aa  156 155 121 127
    000056  aa  105 122 124 131
    000057  aa  125 111 117 120
    000060  aa  101 123 104 106     53  	aci	"ASDFGHJKLZXCVBNM0123456789.-+!$%&'()=~\|"
    000061  aa  107 110 112 113
    000062  aa  114 132 130 103
    000063  aa  126 102 116 115
    000064  aa  060 061 062 063
    000065  aa  064 065 066 067
    000066  aa  070 071 056 055
    000067  aa  053 041 044 045
    000070  aa  046 047 050 051
    000071  aa  075 176 134 174
    000072  aa  161 167 145 162     54  	aci	"qwertyuiop@`[{_asdfghjkl;+:*]}zxcvbnm,./"
    000073  aa  164 171 165 151
    000074  aa  157 160 100 140
    000075  aa  133 173 137 141
    000076  aa  163 144 146 147
    000077  aa  150 152 153 154
    000100  aa  073 053 072 052
    000101  aa  135 175 172 170
    000102  aa  143 166 142 156
    000103  aa  155 054 056 057
                                    55  	end
ENTRY SEQUENCES

    000104  5a   000012 0000 00
    000105  aa  7 00046 2721 20
    000106  0a   000000 7100 00
LITERALS

    000110  aa   000000 000000
    000111  aa   000000 000000
NAME DEFINITIONS FOR ENTRY POINTS AND SEGDEFS

    000112  5a   000003 000000
    000113  5a   000030 600000
    000114  aa   000000 000000
    000115  55   000012 000002
    000116  5a   000002 400003
    000117  55   000006 000012
    000120  aa  014 143 155 160
    000121  aa  143 137 141 144
    000122  aa  152 137 154 145
    000123  aa  156 000 000 000
    000124  55   000021 000003
    000125  0a   000105 500000
    000126  55   000015 000003
    000127  aa  014 143 155 160         cmpc_adj_len
    000130  aa  143 137 141 144
    000131  aa  152 137 154 145
    000132  aa  156 000 000 000
    000133  55   000002 000012
    000134  6a   000000 400002
    000135  55   000024 000003
    000136  aa  014 163 171 155         symbol_table
    000137  aa  142 157 154 137
    000140  aa  164 141 142 154
    000141  aa  145 000 000 000

DEFINITIONS HASH TABLE

    000142  aa   000000 000015
    000143  aa   000000 000000
    000144  aa   000000 000000
    000145  aa   000000 000000
    000146  aa   000000 000000
    000147  5a   000012 000000
    000150  aa   000000 000000
    000151  5a   000021 000000
    000152  aa   000000 000000
    000153  aa   000000 000000
    000154  aa   000000 000000
    000155  aa   000000 000000
    000156  aa   000000 000000
    000157  aa   000000 000000

EXTERNAL NAMES

    000160  aa  022 144 145 141         deactivate_tempseg
    000161  aa  143 164 151 166
    000162  aa  141 164 145 137
    000163  aa  164 145 155 160
    000164  aa  163 145 147 000
    000165  aa  010 164 145 163         test_cpu
    000166  aa  164 137 143 160
    000167  aa  165 000 000 000

NO TRAP POINTER WORDS

TYPE PAIR BLOCKS

    000170  aa   000004 000000
    000171  55   000053 000046
    000172  aa   000001 000000
    000173  aa   000000 000000

INTERNAL EXPRESSION WORDS

    000174  5a   000056 000000
    000175  aa   000000 000000
LINKAGE INFORMATION

    000000  aa   000000 000000
    000001  0a   000112 000000
    000002  aa   000000 000000
    000003  aa   000000 000000
    000004  aa   000000 000000
    000005  aa   000000 000000
    000006  22   000010 000012
    000007  a2   000000 000000
    000010  9a   777770 0000 46         test_cpu|deactivate_tempseg
    000011  5a   000062 0000 00
SYMBOL INFORMATION

SYMBOL TABLE HEADER

    000000  aa   000000 000001
    000001  aa   163171 155142
    000002  aa   164162 145145
    000003  aa   000000 000004
    000004  aa   000000 112143
    000005  aa   305203 523135
    000006  aa   000000 113126
    000007  aa   355344 663725
    000010  aa   141154 155040
    000011  aa   040040 040040
    000012  aa   000024 000040
    000013  aa   000034 000040
    000014  aa   000044 000100
    000015  aa   000002 000002
    000016  aa   000064 000000
    000017  aa   000000 000125
    000020  aa   000000 000104
    000021  aa   000000 000113
    000022  aa   000117 000104
    000023  aa   000064 000000
    000024  aa   101114 115040
    000025  aa   126145 162163
    000026  aa   151157 156040
    000027  aa   040066 056066
    000030  aa   040040 116157
    000031  aa   166145 155142
    000032  aa   145162 040061
    000033  aa   071070 062040
    000034  aa   107112 157150
    000035  aa   156163 157156
    000036  aa   056123 171163
    000037  aa   115141 151156
    000040  aa   164056 155040
    000041  aa   040040 040040
    000042  aa   040040 040040
    000043  aa   040040 040040
    000044  aa   154151 163164
    000045  aa   040040 040040
    000046  aa   040040 040040
    000047  aa   040040 040040
    000050  aa   040040 040040
    000051  aa   040040 040040
    000052  aa   040040 040040
    000053  aa   040040 040040
    000054  aa   040040 040040
    000055  aa   040040 040040
    000056  aa   040040 040040
    000057  aa   040040 040040
    000060  aa   040040 040040
    000061  aa   040040 040040
    000062  aa   040040 040040
    000063  aa   040040 040040
    000064  aa   000000 000001
    000065  aa   000000 000001
    000066  aa   000072 000047
    000067  aa   131232 072463
    000070  aa   000000 113126
    000071  aa   347507 200000
    000072  aa   076163 160145          >spec>on>6978-10/22/84>cmpc_adj_len.alm
    000073  aa   143076 157156
    000074  aa   076066 071067
    000075  aa   070055 061060
    000076  aa   057062 062057
    000077  aa   070064 076143
    000100  aa   155160 143137
    000101  aa   141144 152137
    000102  aa   154145 156056
    000103  aa   141154 155040
               MULTICS ASSEMBLY CROSS REFERENCE LISTING

   Value        Symbol                   Source file   Line number

           2    again                    cmpc_adj_len:        24.
           0    cmpc_adj_len             cmpc_adj_len:        20,   22.
          32    crump                    cmpc_adj_len:        47.
                deactivate_tempseg       cmpc_adj_len:        41.
          33    RET                      cmpc_adj_len:        46,   48.
          34    STRING1                  cmpc_adj_len:        34,   38,   50.
                test_cpu                 cmpc_adj_len:        41.


NO FATAL ERRORS


                                          -----------------------------------------------------------


Historical Background

This edition of the Multics software materials and documentation is provided and donated
to Massachusetts Institute of Technology by Group BULL including BULL HN Information Systems Inc.
as a contribution to computer science knowledge.
This donation is made also to give evidence of the common contributions of Massachusetts Institute of Technology,
Bell Laboratories, General Electric, Honeywell Information Systems Inc., Honeywell BULL Inc., Groupe BULL
and BULL HN Information Systems Inc. to the development of this operating system.
Multics development was initiated by Massachusetts Institute of Technology Project MAC (1963-1970),
renamed the MIT Laboratory for Computer Science and Artificial Intelligence in the mid 1970s, under the leadership
of Professor Fernando Jose Corbato. Users consider that Multics provided the best software architecture
for managing computer hardware properly and for executing programs. Many subsequent operating systems
incorporated Multics principles.
Multics was distributed in 1975 to 2000 by Group Bull in Europe , and in the U.S. by Bull HN Information Systems Inc.,
as successor in interest by change in name only to Honeywell Bull Inc. and Honeywell Information Systems Inc. .

                                          -----------------------------------------------------------

Permission to use, copy, modify, and distribute these programs and their documentation for any purpose and without
fee is hereby granted,provided that the below copyright notice and historical background appear in all copies
and that both the copyright notice and historical background and this permission notice appear in supporting
documentation, and that the names of MIT, HIS, BULL or BULL HN not be used in advertising or publicity pertaining
to distribution of the programs without specific prior written permission.
    Copyright 1972 by Massachusetts Institute of Technology and Honeywell Information Systems Inc.
    Copyright 2006 by BULL HN Information Systems Inc.
    Copyright 2006 by Bull SAS
    All Rights Reserved
