ASSEMBLY LISTING OF SEGMENT >spec>on>6978-10/22/84>cmpn_tst.alm
ASSEMBLED ON:	10/22/84  1114.2 mst Mon
OPTIONS USED:	list
ASSEMBLED BY:	ALM Version  6.6  November 1982
ASSEMBLER CREATED:	09/21/83  1227.3 mst Wed

                                     1  "  ******************************************************
                                     2  "  *                                                    *
                                     3  "  *                                                    *
                                     4  "  * Copyright (c) 1972 by Massachusetts Institute of   *
                                     5  "  * Technology and Honeywell Information Systems, Inc. *
                                     6  "  *                                                    *
                                     7  "  *                                                    *
                                     8  "  ******************************************************
                                     9
                                    10  "  ******************************************************
                                    11  "  *                                                    *
                                    12  "  *                                                    *
                                    13  "  *    Copyright, (C) Honeywell Information Systems    *
                                    14  "  *    Inc., 1980.                                     *
                                    15  "  *                                                    *
                                    16  "  *                                                    *
                                    17  "  ******************************************************
                                    18
    000000                          19  	name	cmpn_tst
                        002011      20  	entry	cmpn_tst
                                    21
    000000  aa   053061 067045      22  num:	oct	053061067045
    000001                          23  	bss	space,1024
    002001  aa   053061 070065      24  other:	oct	053061070065
    002002  aa   065063 066071      25  	oct	065063066071
    002003  aa   060060 060060      26  	oct	060060060060
    002004  aa   060060 060060      27  	oct	060060060060
    002005  aa   060060 060060      28  	oct	060060060060
    002006  aa   060060 060060      29  	oct	060060060060
    002007  aa   060060 060060      30  	oct	060060060060
    002010  aa   060060 060343      31  	oct	060060060343
    002011                          32  cmpn_tst:
    002011  aa   000060 6270 00     33  	push
    002012  aa  7 00040 2721 20
    002013  aa  0 00002 3521 20     34  	eppbp	ap|2,*	"get ptr to temp seg
    002014  aa  2 00000 3521 20     35  	eppbp	bp|0,*
    002015  aa   001776 0520 03     36  	adwpbp	1024-2,du
    002016  aa   000100 3004 00     37  	mvn	(),(pr)
    002017  0a   002001 000040      38  	desc9fl	other,32
    002020  aa   200000 000040      39  	desc9fl	bp|0,32
    002021  aa   000100 3034 00     40  	cmpn	(),(pr)
    002022  0a   000000 000004      41  	desc9fl	num,4
    002023  aa   200000 000040      42  	desc9fl	bp|0,32
    002024  0a   002026 6044 00     43  	tmoz	ret
    002025  aa   000000 000000      44  	oct	0
    002026  aa  7 00042 7101 20     45  ret:	return
                                    46  	end
ENTRY SEQUENCES

    002027  5a   000011 0000 00
    002030  aa  7 00046 2721 20
    002031  0a   002011 7100 00

NO LITERALS

NAME DEFINITIONS FOR ENTRY POINTS AND SEGDEFS

    002032  5a   000003 000000
    002033  5a   000026 600000
    002034  aa   000000 000000
    002035  55   000011 000002
    002036  5a   000002 400003
    002037  55   000006 000011
    002040  aa  010 143 155 160
    002041  aa  156 137 164 163
    002042  aa  164 000 000 000
    002043  55   000017 000003
    002044  0a   002030 500000
    002045  55   000014 000003
    002046  aa  010 143 155 160         cmpn_tst
    002047  aa  156 137 164 163
    002050  aa  164 000 000 000
    002051  55   000002 000011
    002052  6a   000000 400002
    002053  55   000022 000003
    002054  aa  014 163 171 155         symbol_table
    002055  aa  142 157 154 137
    002056  aa  164 141 142 154
    002057  aa  145 000 000 000

DEFINITIONS HASH TABLE

    002060  aa   000000 000015
    002061  aa   000000 000000
    002062  aa   000000 000000
    002063  aa   000000 000000
    002064  aa   000000 000000
    002065  aa   000000 000000
    002066  aa   000000 000000
    002067  5a   000017 000000
    002070  aa   000000 000000
    002071  aa   000000 000000
    002072  aa   000000 000000
    002073  aa   000000 000000
    002074  5a   000011 000000
    002075  aa   000000 000000

NO EXTERNAL NAMES

NO TRAP POINTER WORDS

TYPE PAIR BLOCKS

    002076  aa   000001 000000
    002077  aa   000000 000000

INTERNAL EXPRESSION WORDS

LINKAGE INFORMATION

    000000  aa   000000 000000
    000001  0a   002032 000000
    000002  aa   000000 000000
    000003  aa   000000 000000
    000004  aa   000000 000000
    000005  aa   000000 000000
    000006  22   000010 000010
    000007  a2   000000 000000
SYMBOL INFORMATION

SYMBOL TABLE HEADER

    000000  aa   000000 000001
    000001  aa   163171 155142
    000002  aa   164162 145145
    000003  aa   000000 000004
    000004  aa   000000 112143
    000005  aa   305203 523135
    000006  aa   000000 113126
    000007  aa   355365 522364
    000010  aa   141154 155040
    000011  aa   040040 040040
    000012  aa   000024 000040
    000013  aa   000034 000040
    000014  aa   000044 000100
    000015  aa   000002 000002
    000016  aa   000064 000000
    000017  aa   000000 000211
    000020  aa   000000 000103
    000021  aa   000000 000200
    000022  aa   000203 000103
    000023  aa   000064 000000
    000024  aa   101114 115040
    000025  aa   126145 162163
    000026  aa   151157 156040
    000027  aa   040066 056066
    000030  aa   040040 116157
    000031  aa   166145 155142
    000032  aa   145162 040061
    000033  aa   071070 062040
    000034  aa   107112 157150
    000035  aa   156163 157156
    000036  aa   056123 171163
    000037  aa   115141 151156
    000040  aa   164056 155040
    000041  aa   040040 040040
    000042  aa   040040 040040
    000043  aa   040040 040040
    000044  aa   154151 163164
    000045  aa   040040 040040
    000046  aa   040040 040040
    000047  aa   040040 040040
    000050  aa   040040 040040
    000051  aa   040040 040040
    000052  aa   040040 040040
    000053  aa   040040 040040
    000054  aa   040040 040040
    000055  aa   040040 040040
    000056  aa   040040 040040
    000057  aa   040040 040040
    000060  aa   040040 040040
    000061  aa   040040 040040
    000062  aa   040040 040040
    000063  aa   040040 040040
    000064  aa   000000 000001
    000065  aa   000000 000001
    000066  aa   000072 000043
    000067  aa   131232 072467
    000070  aa   000000 113126
    000071  aa   347511 000000
    000072  aa   076163 160145          >spec>on>6978-10/22/84>cmpn_tst.alm
    000073  aa   143076 157156
    000074  aa   076066 071067
    000075  aa   070055 061060
    000076  aa   057062 062057
    000077  aa   070064 076143
    000100  aa   155160 156137
    000101  aa   164163 164056
    000102  aa   141154 155040
               MULTICS ASSEMBLY CROSS REFERENCE LISTING

   Value        Symbol                   Source file   Line number

        2011    cmpn_tst                 cmpn_tst:      20,   32.
           0    num                      cmpn_tst:      22,   41.
        2001    other                    cmpn_tst:      24,   38.
        2026    ret                      cmpn_tst:      43,   45.
           1    space                    cmpn_tst:      23.


NO FATAL ERRORS


                                          -----------------------------------------------------------


Historical Background

This edition of the Multics software materials and documentation is provided and donated
to Massachusetts Institute of Technology by Group BULL including BULL HN Information Systems Inc.
as a contribution to computer science knowledge.
This donation is made also to give evidence of the common contributions of Massachusetts Institute of Technology,
Bell Laboratories, General Electric, Honeywell Information Systems Inc., Honeywell BULL Inc., Groupe BULL
and BULL HN Information Systems Inc. to the development of this operating system.
Multics development was initiated by Massachusetts Institute of Technology Project MAC (1963-1970),
renamed the MIT Laboratory for Computer Science and Artificial Intelligence in the mid 1970s, under the leadership
of Professor Fernando Jose Corbato. Users consider that Multics provided the best software architecture
for managing computer hardware properly and for executing programs. Many subsequent operating systems
incorporated Multics principles.
Multics was distributed in 1975 to 2000 by Group Bull in Europe , and in the U.S. by Bull HN Information Systems Inc.,
as successor in interest by change in name only to Honeywell Bull Inc. and Honeywell Information Systems Inc. .

                                          -----------------------------------------------------------

Permission to use, copy, modify, and distribute these programs and their documentation for any purpose and without
fee is hereby granted,provided that the below copyright notice and historical background appear in all copies
and that both the copyright notice and historical background and this permission notice appear in supporting
documentation, and that the names of MIT, HIS, BULL or BULL HN not be used in advertising or publicity pertaining
to distribution of the programs without specific prior written permission.
    Copyright 1972 by Massachusetts Institute of Technology and Honeywell Information Systems Inc.
    Copyright 2006 by BULL HN Information Systems Inc.
    Copyright 2006 by Bull SAS
    All Rights Reserved
