ASSEMBLY LISTING OF SEGMENT >dumps>old>recomp>cob_xfer_vector.alm
ASSEMBLED ON:	11/15/82  1753.2 mst Mon
OPTIONS USED:	list
ASSEMBLED BY:	ALM Version  6.4  April 1981
ASSEMBLER CREATED:	11/03/82  1423.6 mst Wed

                                     1  " ***********************************************************
                                     2  " *                                                         *
                                     3  " * Copyright, (C) Honeywell Information Systems Inc., 1982 *
                                     4  " *                                                         *
                                     5  " ***********************************************************
    000000                           6  	name	cob_xfer_vector
                                     7  "
                        000000       8  	entry	binoct
    000000                           9  binoct:
    000000  4a  4 00010 7101 20     10  	tra	<lang_util_>|[binoct]
                                    11  "
                        000001      12  	entry	vs
    000001                          13  vs:
    000001  4a  4 00012 7101 20     14  	tra	<lang_util_>|[vs]
                                    15  "
                                    16  	end
ENTRY SEQUENCES

    000002  5a   000016 0000 00
    000003  aa  7 00046 2721 20
    000004  0a   000000 7100 00
    000005  5a   000012 0000 00
    000006  aa  7 00046 2721 20
    000007  0a   000001 7100 00

NO LITERALS

NAME DEFINITIONS FOR ENTRY POINTS AND SEGDEFS

    000010  5a   000003 000000
    000011  5a   000032 600000
    000012  aa   000000 000000
    000013  55   000012 000002
    000014  5a   000002 400003
    000015  55   000006 000012
    000016  aa  017 143 157 142
    000017  aa  137 170 146 145
    000020  aa  162 137 166 145
    000021  aa  143 164 157 162
    000022  55   000016 000003
    000023  0a   000006 500000
    000024  55   000015 000003
    000025  aa  002 166 163 000         vs
    000026  55   000023 000012
    000027  0a   000003 500000
    000030  55   000021 000003
    000031  aa  006 142 151 156         binoct
    000032  aa  157 143 164 000
    000033  55   000002 000016
    000034  6a   000000 400002
    000035  55   000026 000003
    000036  aa  014 163 171 155         symbol_table
    000037  aa  142 157 154 137
    000040  aa  164 141 142 154
    000041  aa  145 000 000 000

DEFINITIONS HASH TABLE

    000042  aa   000000 000015
    000043  5a   000016 000000
    000044  aa   000000 000000
    000045  aa   000000 000000
    000046  aa   000000 000000
    000047  aa   000000 000000
    000050  5a   000012 000000
    000051  5a   000023 000000
    000052  aa   000000 000000
    000053  aa   000000 000000
    000054  aa   000000 000000
    000055  aa   000000 000000
    000056  aa   000000 000000
    000057  aa   000000 000000

EXTERNAL NAMES

    000060  aa  012 154 141 156         lang_util_
    000061  aa  147 137 165 164
    000062  aa  151 154 137 000

NO TRAP POINTER WORDS

TYPE PAIR BLOCKS

    000063  aa   000004 000000
    000064  55   000050 000015
    000065  aa   000004 000000
    000066  55   000050 000021
    000067  aa   000001 000000
    000070  aa   000000 000000

INTERNAL EXPRESSION WORDS

    000071  5a   000053 000000
    000072  5a   000055 000000
    000073  aa   000000 000000
LINKAGE INFORMATION

    000000  aa   000000 000000
    000001  0a   000010 000000
    000002  aa   000000 000000
    000003  aa   000000 000000
    000004  aa   000000 000000
    000005  aa   000000 000000
    000006  22   000010 000014
    000007  a2   000000 000000
    000010  9a   777770 0000 46         lang_util_|binoct
    000011  5a   000062 0000 00
    000012  9a   777766 0000 46         lang_util_|vs
    000013  5a   000061 0000 00
SYMBOL INFORMATION

SYMBOL TABLE HEADER

    000000  aa   000000 000001
    000001  aa   163171 155142
    000002  aa   164162 145145
    000003  aa   000000 000004
    000004  aa   000000 111316
    000005  aa   510113 575622
    000006  aa   000000 111335
    000007  aa   722500 326655
    000010  aa   141154 155040
    000011  aa   040040 040040
    000012  aa   000024 000040
    000013  aa   000034 000040
    000014  aa   000044 000100
    000015  aa   000002 000002
    000016  aa   000064 000000
    000017  aa   000000 000122
    000020  aa   000000 000104
    000021  aa   000000 000110
    000022  aa   000114 000104
    000023  aa   000064 000000
    000024  aa   101114 115040
    000025  aa   126145 162163
    000026  aa   151157 156040
    000027  aa   040066 056064
    000030  aa   040040 101160
    000031  aa   162151 154040
    000032  aa   061071 070061
    000033  aa   040040 040040
    000034  aa   110157 154155
    000035  aa   163164 145144
    000036  aa   164056 123171
    000037  aa   163115 141151
    000040  aa   156164 056155
    000041  aa   040040 040040
    000042  aa   040040 040040
    000043  aa   040040 040040
    000044  aa   154151 163164
    000045  aa   040040 040040
    000046  aa   040040 040040
    000047  aa   040040 040040
    000050  aa   040040 040040
    000051  aa   040040 040040
    000052  aa   040040 040040
    000053  aa   040040 040040
    000054  aa   040040 040040
    000055  aa   040040 040040
    000056  aa   040040 040040
    000057  aa   040040 040040
    000060  aa   040040 040040
    000061  aa   040040 040040
    000062  aa   040040 040040
    000063  aa   040040 040040
    000064  aa   000000 000001
    000065  aa   000000 000001
    000066  aa   000072 000045
    000067  aa   113331 136226
    000070  aa   000000 111335
    000071  aa   623631 200000
    000072  aa   076144 165155          >dumps>old>recomp>cob_xfer_vector.alm
    000073  aa   160163 076157
    000074  aa   154144 076162
    000075  aa   145143 157155
    000076  aa   160076 143157
    000077  aa   142137 170146
    000100  aa   145162 137166
    000101  aa   145143 164157
    000102  aa   162056 141154
    000103  aa   155040 040040
               MULTICS ASSEMBLY CROSS REFERENCE LISTING

   Value        Symbol                   Source file   Line number

           0    binoct                   cob_xfer_vector:      8,    9,   10.
                lang_util_               cob_xfer_vector:     10,   14.
           1    vs                       cob_xfer_vector:     12,   13,   14.


NO FATAL ERRORS


                                          -----------------------------------------------------------


Historical Background

This edition of the Multics software materials and documentation is provided and donated
to Massachusetts Institute of Technology by Group BULL including BULL HN Information Systems Inc.
as a contribution to computer science knowledge.
This donation is made also to give evidence of the common contributions of Massachusetts Institute of Technology,
Bell Laboratories, General Electric, Honeywell Information Systems Inc., Honeywell BULL Inc., Groupe BULL
and BULL HN Information Systems Inc. to the development of this operating system.
Multics development was initiated by Massachusetts Institute of Technology Project MAC (1963-1970),
renamed the MIT Laboratory for Computer Science and Artificial Intelligence in the mid 1970s, under the leadership
of Professor Fernando Jose Corbato. Users consider that Multics provided the best software architecture
for managing computer hardware properly and for executing programs. Many subsequent operating systems
incorporated Multics principles.
Multics was distributed in 1975 to 2000 by Group Bull in Europe , and in the U.S. by Bull HN Information Systems Inc.,
as successor in interest by change in name only to Honeywell Bull Inc. and Honeywell Information Systems Inc. .

                                          -----------------------------------------------------------

Permission to use, copy, modify, and distribute these programs and their documentation for any purpose and without
fee is hereby granted,provided that the below copyright notice and historical background appear in all copies
and that both the copyright notice and historical background and this permission notice appear in supporting
documentation, and that the names of MIT, HIS, BULL or BULL HN not be used in advertising or publicity pertaining
to distribution of the programs without specific prior written permission.
    Copyright 1972 by Massachusetts Institute of Technology and Honeywell Information Systems Inc.
    Copyright 2006 by BULL HN Information Systems Inc.
    Copyright 2006 by Bull SAS
    All Rights Reserved
