ASSEMBLY LISTING OF SEGMENT >dumps>old>recomp>crz.alm
ASSEMBLED ON:	11/15/82  1753.0 mst Mon
OPTIONS USED:	list
ASSEMBLED BY:	ALM Version  6.4  April 1981
ASSEMBLER CREATED:	11/03/82  1423.6 mst Wed

                                     1  " ***********************************************************
                                     2  " *                                                         *
                                     3  " * Copyright, (C) Honeywell Information Systems Inc., 1982 *
                                     4  " *                                                         *
                                     5  " * Copyright (c) 1972 by Massachusetts Institute of        *
                                     6  " * Technology and Honeywell Information Systems, Inc.      *
                                     7  " *                                                         *
                                     8  " ***********************************************************
                                     9
                                    10  "	"	"	"	"	"	"	"	"
                                    11  "
                                    12  "	This is the I/O switch transfer vector for the crz outer module.
                                    13  "
                                    14  "	"	"	"	"	"	"	"	"
                                    15
    000000                          16  	name	crz
                        000000      17  	entry	crzmodule
                                    18
    000000                          19  	segref	crz_dim,crz_attach,crz_detach,crz_read,crz_setsize,crz_getsize,crz_changemode
    000000                          20  	segref	crz_dim,crz_order
    000000                          21  	segref	crz_dim,crz_resetread
    000000                          22  	segref	ios_,no_entry
                                    23
    000000                          24  crzmodule:
    000000  0a   000001 7100 16     25  	tra	*+1,6
                                    26
    000001  4a  4 00010 7101 20     27  	tra	crz_attach
    000002  4a  4 00012 7101 20     28  	tra	crz_detach
    000003  4a  4 00014 7101 20     29  	tra	crz_read
    000004  4a  4 00016 7101 20     30  	tra	no_entry
    000005  4a  4 00016 7101 20     31  	tra	no_entry
    000006  4a  4 00020 7101 20     32  	tra	crz_order
    000007  4a  4 00022 7101 20     33  	tra	crz_resetread
    000010  4a  4 00016 7101 20     34  	tra	no_entry
    000011  4a  4 00024 7101 20     35  	tra	crz_setsize
    000012  4a  4 00026 7101 20     36  	tra	crz_getsize
    000013  4a  4 00016 7101 20     37  	tra	no_entry
    000014  4a  4 00016 7101 20     38  	tra	no_entry
    000015  4a  4 00016 7101 20     39  	tra	no_entry
    000016  4a  4 00016 7101 20     40  	tra	no_entry
    000017  4a  4 00030 7101 20     41  	tra	crz_changemode
    000020  4a  4 00016 7101 20     42  	tra	no_entry
    000021  4a  4 00016 7101 20     43  	tra	no_entry
    000022  4a  4 00016 7101 20     44  	tra	no_entry
    000023  4a  4 00016 7101 20     45  	tra	no_entry
    000024  4a  4 00016 7101 20     46  	tra	no_entry
    000025  4a  4 00016 7101 20     47  	tra	no_entry
                                    48
                                    49  	end	crzmodule
ENTRY SEQUENCES

    000026  5a   000007 0000 00
    000027  aa  7 00046 2721 20
    000030  0a   000000 7100 00

NO LITERALS

NAME DEFINITIONS FOR ENTRY POINTS AND SEGDEFS

    000032  5a   000003 000000
    000033  5a   000024 600000
    000034  aa   000000 000000
    000035  55   000007 000002
    000036  5a   000002 400003
    000037  55   000006 000007
    000040  aa  003 143 162 172
    000041  55   000015 000003
    000042  0a   000027 500000
    000043  55   000012 000003
    000044  aa  011 143 162 172         crzmodule
    000045  aa  155 157 144 165
    000046  aa  154 145 000 000
    000047  55   000002 000007
    000050  6a   000000 400002
    000051  55   000020 000003
    000052  aa  014 163 171 155         symbol_table
    000053  aa  142 157 154 137
    000054  aa  164 141 142 154
    000055  aa  145 000 000 000

DEFINITIONS HASH TABLE

    000056  aa   000000 000015
    000057  aa   000000 000000
    000060  aa   000000 000000
    000061  5a   000007 000000
    000062  aa   000000 000000
    000063  aa   000000 000000
    000064  aa   000000 000000
    000065  5a   000015 000000
    000066  aa   000000 000000
    000067  aa   000000 000000
    000070  aa   000000 000000
    000071  aa   000000 000000
    000072  aa   000000 000000
    000073  aa   000000 000000

EXTERNAL NAMES

    000074  aa  010 156 157 137         no_entry
    000075  aa  145 156 164 162
    000076  aa  171 000 000 000
    000077  aa  004 151 157 163         ios_
    000100  aa  137 000 000 000
    000101  aa  015 143 162 172         crz_resetread
    000102  aa  137 162 145 163
    000103  aa  145 164 162 145
    000104  aa  141 144 000 000
    000105  aa  011 143 162 172         crz_order
    000106  aa  137 157 162 144
    000107  aa  145 162 000 000
    000110  aa  016 143 162 172         crz_changemode
    000111  aa  137 143 150 141
    000112  aa  156 147 145 155
    000113  aa  157 144 145 000
    000114  aa  013 143 162 172         crz_getsize
    000115  aa  137 147 145 164
    000116  aa  163 151 172 145
    000117  aa  013 143 162 172         crz_setsize
    000120  aa  137 163 145 164
    000121  aa  163 151 172 145
    000122  aa  010 143 162 172         crz_read
    000123  aa  137 162 145 141
    000124  aa  144 000 000 000
    000125  aa  012 143 162 172         crz_detach
    000126  aa  137 144 145 164
    000127  aa  141 143 150 000
    000130  aa  012 143 162 172         crz_attach
    000131  aa  137 141 164 164
    000132  aa  141 143 150 000
    000133  aa  007 143 162 172         crz_dim
    000134  aa  137 144 151 155

NO TRAP POINTER WORDS

TYPE PAIR BLOCKS

    000135  aa   000004 000000
    000136  55   000045 000042
    000137  aa   000004 000000
    000140  55   000101 000047
    000141  aa   000004 000000
    000142  55   000101 000053
    000143  aa   000004 000000
    000144  55   000101 000056
    000145  aa   000004 000000
    000146  55   000101 000062
    000147  aa   000004 000000
    000150  55   000101 000065
    000151  aa   000004 000000
    000152  55   000101 000070
    000153  aa   000004 000000
    000154  55   000101 000073
    000155  aa   000004 000000
    000156  55   000101 000076
    000157  aa   000001 000000
    000160  aa   000000 000000

INTERNAL EXPRESSION WORDS

    000161  5a   000111 000000
    000162  5a   000113 000000
    000163  5a   000115 000000
    000164  5a   000105 000000
    000165  5a   000107 000000
    000166  5a   000103 000000
    000167  5a   000117 000000
    000170  5a   000121 000000
    000171  5a   000123 000000
LINKAGE INFORMATION

    000000  aa   000000 000000
    000001  0a   000032 000000
    000002  aa   000000 000000
    000003  aa   000000 000000
    000004  aa   000000 000000
    000005  aa   000000 000000
    000006  22   000010 000032
    000007  a2   000000 000000
    000010  9a   777770 0000 46         crz_dim|crz_attach
    000011  5a   000137 0000 00
    000012  9a   777766 0000 46         crz_dim|crz_detach
    000013  5a   000136 0000 00
    000014  9a   777764 0000 46         crz_dim|crz_read
    000015  5a   000135 0000 00
    000016  9a   777762 0000 46         ios_|no_entry
    000017  5a   000134 0000 00
    000020  9a   777760 0000 46         crz_dim|crz_order
    000021  5a   000133 0000 00
    000022  9a   777756 0000 46         crz_dim|crz_resetread
    000023  5a   000132 0000 00
    000024  9a   777754 0000 46         crz_dim|crz_setsize
    000025  5a   000131 0000 00
    000026  9a   777752 0000 46         crz_dim|crz_getsize
    000027  5a   000130 0000 00
    000030  9a   777750 0000 46         crz_dim|crz_changemode
    000031  5a   000127 0000 00
SYMBOL INFORMATION

SYMBOL TABLE HEADER

    000000  aa   000000 000001
    000001  aa   163171 155142
    000002  aa   164162 145145
    000003  aa   000000 000004
    000004  aa   000000 111316
    000005  aa   510113 575622
    000006  aa   000000 111335
    000007  aa   722416 276703
    000010  aa   141154 155040
    000011  aa   040040 040040
    000012  aa   000024 000040
    000013  aa   000034 000040
    000014  aa   000044 000100
    000015  aa   000002 000002
    000016  aa   000064 000000
    000017  aa   000000 000124
    000020  aa   000000 000101
    000021  aa   000000 000110
    000022  aa   000116 000101
    000023  aa   000064 000000
    000024  aa   101114 115040
    000025  aa   126145 162163
    000026  aa   151157 156040
    000027  aa   040066 056064
    000030  aa   040040 101160
    000031  aa   162151 154040
    000032  aa   061071 070061
    000033  aa   040040 040040
    000034  aa   110157 154155
    000035  aa   163164 145144
    000036  aa   164056 123171
    000037  aa   163115 141151
    000040  aa   156164 056155
    000041  aa   040040 040040
    000042  aa   040040 040040
    000043  aa   040040 040040
    000044  aa   154151 163164
    000045  aa   040040 040040
    000046  aa   040040 040040
    000047  aa   040040 040040
    000050  aa   040040 040040
    000051  aa   040040 040040
    000052  aa   040040 040040
    000053  aa   040040 040040
    000054  aa   040040 040040
    000055  aa   040040 040040
    000056  aa   040040 040040
    000057  aa   040040 040040
    000060  aa   040040 040040
    000061  aa   040040 040040
    000062  aa   040040 040040
    000063  aa   040040 040040
    000064  aa   000000 000001
    000065  aa   000000 000001
    000066  aa   000072 000031
    000067  aa   113331 136125
    000070  aa   000000 111335
    000071  aa   623465 600000
    000072  aa   076144 165155          >dumps>old>recomp>crz.alm
    000073  aa   160163 076157
    000074  aa   154144 076162
    000075  aa   145143 157155
    000076  aa   160076 143162
    000077  aa   172056 141154
    000100  aa   155040 040040
               MULTICS ASSEMBLY CROSS REFERENCE LISTING

   Value        Symbol                   Source file   Line number

           0    crzmodule                crz:           17,   24.
                crz_attach               crz:           19,   27.
                crz_changemode           crz:           19,   41.
                crz_detach               crz:           19,   28.
                crz_dim                  crz:           19,   20,   21.
                crz_getsize              crz:           19,   36.
                crz_order                crz:           20,   32.
                crz_read                 crz:           19,   29.
                crz_resetread            crz:           21,   33.
                crz_setsize              crz:           19,   35.
                ios_                     crz:           22.
                no_entry                 crz:           22,   30,   31,   34,   37,   38,   39,   40,   42,   43,   44,   45,
                                                        46,   47.


NO FATAL ERRORS


                                          -----------------------------------------------------------


Historical Background

This edition of the Multics software materials and documentation is provided and donated
to Massachusetts Institute of Technology by Group BULL including BULL HN Information Systems Inc.
as a contribution to computer science knowledge.
This donation is made also to give evidence of the common contributions of Massachusetts Institute of Technology,
Bell Laboratories, General Electric, Honeywell Information Systems Inc., Honeywell BULL Inc., Groupe BULL
and BULL HN Information Systems Inc. to the development of this operating system.
Multics development was initiated by Massachusetts Institute of Technology Project MAC (1963-1970),
renamed the MIT Laboratory for Computer Science and Artificial Intelligence in the mid 1970s, under the leadership
of Professor Fernando Jose Corbato. Users consider that Multics provided the best software architecture
for managing computer hardware properly and for executing programs. Many subsequent operating systems
incorporated Multics principles.
Multics was distributed in 1975 to 2000 by Group Bull in Europe , and in the U.S. by Bull HN Information Systems Inc.,
as successor in interest by change in name only to Honeywell Bull Inc. and Honeywell Information Systems Inc. .

                                          -----------------------------------------------------------

Permission to use, copy, modify, and distribute these programs and their documentation for any purpose and without
fee is hereby granted,provided that the below copyright notice and historical background appear in all copies
and that both the copyright notice and historical background and this permission notice appear in supporting
documentation, and that the names of MIT, HIS, BULL or BULL HN not be used in advertising or publicity pertaining
to distribution of the programs without specific prior written permission.
    Copyright 1972 by Massachusetts Institute of Technology and Honeywell Information Systems Inc.
    Copyright 2006 by BULL HN Information Systems Inc.
    Copyright 2006 by Bull SAS
    All Rights Reserved
