ASSEMBLY LISTING OF SEGMENT >special_ldd>on>09/12/83>crz_status_table_.alm
ASSEMBLED ON:	09/12/83  1112.7 mst Mon
OPTIONS USED:	list
ASSEMBLED BY:	ALM Version  6.4  April 1981
ASSEMBLER CREATED:	11/03/82  1423.6 mst Wed

                                     1  " ***********************************************************
                                     2  " *                                                         *
                                     3  " * Copyright, (C) Honeywell Information Systems Inc., 1982 *
                                     4  " *                                                         *
                                     5  " ***********************************************************
                                     6  " CRZ_STATUS_TABLE_ - Status Tables for the Card Reader.
                                     7  "	coded 12/1/74 by Noel I. Morris
                                     8  "	modified 4/79 by R.J.C. Kissel to add major status 0.
                                     9
                                    10  "  ******************************************************
                                    11  "  *                                                    *
                                    12  "  *                                                    *
                                    13  "  * Copyright (c) 1972 by Massachusetts Institute of   *
                                    14  "  * Technology and Honeywell Information Systems, Inc. *
                                    15  "  *                                                    *
                                    16  "  *                                                    *
                                    17  "  ******************************************************
                                    18
                                    19
                                    20  	include	status_table
                                   1-1  " Macro definitions for peripheral status table generation.
                                   1-2  "	created 12/1/74 by Noel I. Morris
                                   1-3  "	last modified 6/10/75 by Noel I. Morris
                                   1-4  "	last modified 4/79 by R.J.C. Kissel to make alm macros instead of mexp.
                                   1-5  "	last modified 7/83 by E. N. Kittlitz to add eurc_nobk.
                                   1-6
                                   1-7  	macro	status_table
                              1    1-8
                              2    1-9  	name	&1_status_table_
                              3   1-10
                              4   1-11  	segdef	&1_status_table_
                              5   1-12
                              6   1-13
                              7   1-14  	bool	bk,400000		retry previous operation
                              8   1-15  	bool	in,200000		set backup flag if status.initiate
                              9   1-16  	bool	rp,100000		report this error online
                             10   1-17  	bool	hlt,040000	this error stops device
                             11   1-18  	bool	eurc_nobk,020000	ignore bk if eurc connection
                             12   1-19
                             13   1-20  &1_status_table_:
                             14   1-21
                             15   1-22  &(2&=&i,0&[	zero	0,0
                             16   1-23  &;	zero	m&x,lm&x
                             17   1-24  	set	lm&x,0
                             18   1-25  &]&)
                             19   1-26
                             20   1-27  &end
                                  1-28
                                  1-29
                                  1-30  	macro	status_entry
                              1   1-31
                              2   1-32  m&1:	aci	"&2",24
                              3   1-33
                              4   1-34  &end
                                  1-35
                                  1-36
                                  1-37  	macro	substat_entry
                              1   1-38  	set	lm&1,lm&1+1
                              2   1-39  	aci	"&2",6
                              3   1-40  	vfd	o18/&3
                              4   1-41  	aci	"&4",32
                              5   1-42
                              6   1-43  &end
                                  1-44
                                  1-45
                                    21
                                    22
                                    23
                                    24  " 
                                    25
                                    26  	status_table	crz,(1,1,1,1,0,1,0,0,0,0,1,1,0,1,0,0)

    000000                              	name	crz_status_table_

                        000000          	segdef	crz_status_table_


                        400000          	bool	bk,400000		retry previous operation
                        200000          	bool	in,200000		set backup flag if status.initiate
                        100000          	bool	rp,100000		report this error online
                        040000          	bool	hlt,040000	this error stops device
                        020000          	bool	eurc_nobk,020000	ignore bk if eurc connection

    000000                              crz_status_table_:

    000000  0a   000020 000001          	zero	m1,lm1
                        000000          	set	lm1,0
    000001  0a   000041 000000          	zero	m2,lm2
                        000000          	set	lm2,0
    000002  0a   000047 000010          	zero	m3,lm3
                        000000          	set	lm3,0
    000003  0a   000205 000004          	zero	m4,lm4
                        000000          	set	lm4,0
    000004  aa   000000 000000          	zero	0,0
    000005  0a   000267 000003          	zero	m6,lm6
                        000000          	set	lm6,0
    000006  aa   000000 000000          	zero	0,0
    000007  aa   000000 000000          	zero	0,0
    000010  aa   000000 000000          	zero	0,0
    000011  aa   000000 000000          	zero	0,0
    000012  0a   000336 000004          	zero	m11,lm11
                        000000          	set	lm11,0
    000013  0a   000420 000002          	zero	m12,lm12
                        000000          	set	lm12,0
    000014  aa   000000 000000          	zero	0,0
    000015  0a   000454 000003          	zero	m14,lm14
                        000000          	set	lm14,0
    000016  aa   000000 000000          	zero	0,0
    000017  aa   000000 000000          	zero	0,0


                                    27
                                    28  " 
                                    29  	status_entry	1,(Channel Ready)

    000020  aa  103 150 141 156         m1:	aci	"Channel Ready",24
    000021  aa  156 145 154 040
    000022  aa  122 145 141 144
    000023  aa  171 040 040 040
    000024  aa  040 040 040 040
    000025  aa  040 040 040 040

                                    30
                                    31  	substat_entry	1,000001,,(51-column cards)
                        000001          	set	lm1,lm1+1
    000026  aa  060 060 060 060         	aci	"000001",6
    000027  aa  060 061 000 000
    000030  aa   000000 000000          	vfd	o18/
    000031  aa  065 061 055 143         	aci	"51-column cards",32
    000032  aa  157 154 165 155
    000033  aa  156 040 143 141
    000034  aa  162 144 163 040
    000035  aa  040 040 040 040
    000036  aa  040 040 040 040
    000037  aa  040 040 040 040
    000040  aa  040 040 040 040

                                    32
                                    33  " 
                                    34
                                    35  	status_entry	2,(Device Busy)

    000041  aa  104 145 166 151         m2:	aci	"Device Busy",24
    000042  aa  143 145 040 102
    000043  aa  165 163 171 040
    000044  aa  040 040 040 040
    000045  aa  040 040 040 040
    000046  aa  040 040 040 040

                                    36
                                    37  " 
                                    38
                                    39  	status_entry	3,(Device Attention)

    000047  aa  104 145 166 151         m3:	aci	"Device Attention",24
    000050  aa  143 145 040 101
    000051  aa  164 164 145 156
    000052  aa  164 151 157 156
    000053  aa  040 040 040 040
    000054  aa  040 040 040 040

                                    40
                                    41  	substat_entry	3,000000,in+rp+hlt,(Device off line)
                        000001          	set	lm3,lm3+1
    000055  aa  060 060 060 060         	aci	"000000",6
    000056  aa  060 060 000 000
    000057  aa   340000 000000          	vfd	o18/in+rp+hlt
    000060  aa  104 145 166 151         	aci	"Device off line",32
    000061  aa  143 145 040 157
    000062  aa  146 146 040 154
    000063  aa  151 156 145 040
    000064  aa  040 040 040 040
    000065  aa  040 040 040 040
    000066  aa  040 040 040 040
    000067  aa  040 040 040 040

                                    42  	substat_entry	3,XXXXX1,in+rp+hlt,(Hopper empty or Stacker full)
                        000002          	set	lm3,lm3+1
    000070  aa  130 130 130 130         	aci	"XXXXX1",6
    000071  aa  130 061 000 000
    000072  aa   340000 000000          	vfd	o18/in+rp+hlt
    000073  aa  110 157 160 160         	aci	"Hopper empty or Stacker full",32
    000074  aa  145 162 040 145
    000075  aa  155 160 164 171
    000076  aa  040 157 162 040
    000077  aa  123 164 141 143
    000100  aa  153 145 162 040
    000101  aa  146 165 154 154
    000102  aa  040 040 040 040

                                    43  	substat_entry	3,XXXX1X,in+rp+hlt,(Manual Halt)
                        000003          	set	lm3,lm3+1
    000103  aa  130 130 130 130         	aci	"XXXX1X",6
    000104  aa  061 130 000 000
    000105  aa   340000 000000          	vfd	o18/in+rp+hlt
    000106  aa  115 141 156 165         	aci	"Manual Halt",32
    000107  aa  141 154 040 110
    000110  aa  141 154 164 040
    000111  aa  040 040 040 040
    000112  aa  040 040 040 040
    000113  aa  040 040 040 040
    000114  aa  040 040 040 040
    000115  aa  040 040 040 040

                                    44  	substat_entry	3,XXX1X1,in+rp+hlt,(Last batch finished)
                        000004          	set	lm3,lm3+1
    000116  aa  130 130 130 061         	aci	"XXX1X1",6
    000117  aa  130 061 000 000
    000120  aa   340000 000000          	vfd	o18/in+rp+hlt
    000121  aa  114 141 163 164         	aci	"Last batch finished",32
    000122  aa  040 142 141 164
    000123  aa  143 150 040 146
    000124  aa  151 156 151 163
    000125  aa  150 145 144 040
    000126  aa  040 040 040 040
    000127  aa  040 040 040 040
    000130  aa  040 040 040 040

                                    45  	substat_entry	3,0X1XXX,in+rp+hlt,(Feed Alert)
                        000005          	set	lm3,lm3+1
    000131  aa  060 130 061 130         	aci	"0X1XXX",6
    000132  aa  130 130 000 000
    000133  aa   340000 000000          	vfd	o18/in+rp+hlt
    000134  aa  106 145 145 144         	aci	"Feed Alert",32
    000135  aa  040 101 154 145
    000136  aa  162 164 040 040
    000137  aa  040 040 040 040
    000140  aa  040 040 040 040
    000141  aa  040 040 040 040
    000142  aa  040 040 040 040
    000143  aa  040 040 040 040

                                    46  	substat_entry	3,1X1XXX,in+rp+hlt,(Sneak Feed)
                        000006          	set	lm3,lm3+1
    000144  aa  061 130 061 130         	aci	"1X1XXX",6
    000145  aa  130 130 000 000
    000146  aa   340000 000000          	vfd	o18/in+rp+hlt
    000147  aa  123 156 145 141         	aci	"Sneak Feed",32
    000150  aa  153 040 106 145
    000151  aa  145 144 040 040
    000152  aa  040 040 040 040
    000153  aa  040 040 040 040
    000154  aa  040 040 040 040
    000155  aa  040 040 040 040
    000156  aa  040 040 040 040

                                    47  	substat_entry	3,X1XXXX,bk+rp+hlt,(Card jam)
                        000007          	set	lm3,lm3+1
    000157  aa  130 061 130 130         	aci	"X1XXXX",6
    000160  aa  130 130 000 000
    000161  aa   540000 000000          	vfd	o18/bk+rp+hlt
    000162  aa  103 141 162 144         	aci	"Card jam",32
    000163  aa  040 152 141 155
    000164  aa  040 040 040 040
    000165  aa  040 040 040 040
    000166  aa  040 040 040 040
    000167  aa  040 040 040 040
    000170  aa  040 040 040 040
    000171  aa  040 040 040 040

                                    48  	substat_entry	3,1X0XXX,bk+rp+hlt,(Read Alert)
                        000010          	set	lm3,lm3+1
    000172  aa  061 130 060 130         	aci	"1X0XXX",6
    000173  aa  130 130 000 000
    000174  aa   540000 000000          	vfd	o18/bk+rp+hlt
    000175  aa  122 145 141 144         	aci	"Read Alert",32
    000176  aa  040 101 154 145
    000177  aa  162 164 040 040
    000200  aa  040 040 040 040
    000201  aa  040 040 040 040
    000202  aa  040 040 040 040
    000203  aa  040 040 040 040
    000204  aa  040 040 040 040

                                    49
                                    50  " 
                                    51
                                    52  	status_entry	4,(Device Data Alert)

    000205  aa  104 145 166 151         m4:	aci	"Device Data Alert",24
    000206  aa  143 145 040 104
    000207  aa  141 164 141 040
    000210  aa  101 154 145 162
    000211  aa  164 040 040 040
    000212  aa  040 040 040 040

                                    53
                                    54  	substat_entry	4,000001,bk+rp+hlt,(Transfer timing error)
                        000001          	set	lm4,lm4+1
    000213  aa  060 060 060 060         	aci	"000001",6
    000214  aa  060 061 000 000
    000215  aa   540000 000000          	vfd	o18/bk+rp+hlt
    000216  aa  124 162 141 156         	aci	"Transfer timing error",32
    000217  aa  163 146 145 162
    000220  aa  040 164 151 155
    000221  aa  151 156 147 040
    000222  aa  145 162 162 157
    000223  aa  162 040 040 040
    000224  aa  040 040 040 040
    000225  aa  040 040 040 040

                                    55  	substat_entry	4,000X10,bk+rp+hlt,(Validity check)
                        000002          	set	lm4,lm4+1
    000226  aa  060 060 060 130         	aci	"000X10",6
    000227  aa  061 060 000 000
    000230  aa   540000 000000          	vfd	o18/bk+rp+hlt
    000231  aa  126 141 154 151         	aci	"Validity check",32
    000232  aa  144 151 164 171
    000233  aa  040 143 150 145
    000234  aa  143 153 040 040
    000235  aa  040 040 040 040
    000236  aa  040 040 040 040
    000237  aa  040 040 040 040
    000240  aa  040 040 040 040

                                    56  	substat_entry	4,0001X0,bk+rp+hlt,(Dual read alert)
                        000003          	set	lm4,lm4+1
    000241  aa  060 060 060 061         	aci	"0001X0",6
    000242  aa  130 060 000 000
    000243  aa   540000 000000          	vfd	o18/bk+rp+hlt
    000244  aa  104 165 141 154         	aci	"Dual read alert",32
    000245  aa  040 162 145 141
    000246  aa  144 040 141 154
    000247  aa  145 162 164 040
    000250  aa  040 040 040 040
    000251  aa  040 040 040 040
    000252  aa  040 040 040 040
    000253  aa  040 040 040 040

                                    57  	substat_entry	4,001000,bk+rp+hlt,(Feed without read)
                        000004          	set	lm4,lm4+1
    000254  aa  060 060 061 060         	aci	"001000",6
    000255  aa  060 060 000 000
    000256  aa   540000 000000          	vfd	o18/bk+rp+hlt
    000257  aa  106 145 145 144         	aci	"Feed without read",32
    000260  aa  040 167 151 164
    000261  aa  150 157 165 164
    000262  aa  040 162 145 141
    000263  aa  144 040 040 040
    000264  aa  040 040 040 040
    000265  aa  040 040 040 040
    000266  aa  040 040 040 040

                                    58
                                    59  " 
                                    60
                                    61  	status_entry	6,(Command Reject)

    000267  aa  103 157 155 155         m6:	aci	"Command Reject",24
    000270  aa  141 156 144 040
    000271  aa  122 145 152 145
    000272  aa  143 164 040 040
    000273  aa  040 040 040 040
    000274  aa  040 040 040 040

                                    62
                                    63  	substat_entry	6,0000X1,bk+rp+hlt,(Invalid op code)
                        000001          	set	lm6,lm6+1
    000275  aa  060 060 060 060         	aci	"0000X1",6
    000276  aa  130 061 000 000
    000277  aa   540000 000000          	vfd	o18/bk+rp+hlt
    000300  aa  111 156 166 141         	aci	"Invalid op code",32
    000301  aa  154 151 144 040
    000302  aa  157 160 040 143
    000303  aa  157 144 145 040
    000304  aa  040 040 040 040
    000305  aa  040 040 040 040
    000306  aa  040 040 040 040
    000307  aa  040 040 040 040

                                    64  	substat_entry	6,00001X,bk+rp+hlt,(Invalid device code)
                        000002          	set	lm6,lm6+1
    000310  aa  060 060 060 060         	aci	"00001X",6
    000311  aa  061 130 000 000
    000312  aa   540000 000000          	vfd	o18/bk+rp+hlt
    000313  aa  111 156 166 141         	aci	"Invalid device code",32
    000314  aa  154 151 144 040
    000315  aa  144 145 166 151
    000316  aa  143 145 040 143
    000317  aa  157 144 145 040
    000320  aa  040 040 040 040
    000321  aa  040 040 040 040
    000322  aa  040 040 040 040

                                    65  	substat_entry	6,000100,bk+rp,(IDCW parity error)
                        000003          	set	lm6,lm6+1
    000323  aa  060 060 060 061         	aci	"000100",6
    000324  aa  060 060 000 000
    000325  aa   500000 000000          	vfd	o18/bk+rp
    000326  aa  111 104 103 127         	aci	"IDCW parity error",32
    000327  aa  040 160 141 162
    000330  aa  151 164 171 040
    000331  aa  145 162 162 157
    000332  aa  162 040 040 040
    000333  aa  040 040 040 040
    000334  aa  040 040 040 040
    000335  aa  040 040 040 040

                                    66
                                    67  " 
                                    68
                                    69  	status_entry	11,(MPC Attention)

    000336  aa  115 120 103 040         m11:	aci	"MPC Attention",24
    000337  aa  101 164 164 145
    000340  aa  156 164 151 157
    000341  aa  156 040 040 040
    000342  aa  040 040 040 040
    000343  aa  040 040 040 040

                                    70
                                    71  	substat_entry	11,000001,in+rp+hlt,(IAI error)
                        000001          	set	lm11,lm11+1
    000344  aa  060 060 060 060         	aci	"000001",6
    000345  aa  060 061 000 000
    000346  aa   340000 000000          	vfd	o18/in+rp+hlt
    000347  aa  111 101 111 040         	aci	"IAI error",32
    000350  aa  145 162 162 157
    000351  aa  162 040 040 040
    000352  aa  040 040 040 040
    000353  aa  040 040 040 040
    000354  aa  040 040 040 040
    000355  aa  040 040 040 040
    000356  aa  040 040 040 040

                                    72  	substat_entry	11,000010,in+rp+hlt,(DAI error)
                        000002          	set	lm11,lm11+1
    000357  aa  060 060 060 060         	aci	"000010",6
    000360  aa  061 060 000 000
    000361  aa   340000 000000          	vfd	o18/in+rp+hlt
    000362  aa  104 101 111 040         	aci	"DAI error",32
    000363  aa  145 162 162 157
    000364  aa  162 040 040 040
    000365  aa  040 040 040 040
    000366  aa  040 040 040 040
    000367  aa  040 040 040 040
    000370  aa  040 040 040 040
    000371  aa  040 040 040 040

                                    73  	substat_entry	11,000100,in+rp+hlt,(DA Transfer error)
                        000003          	set	lm11,lm11+1
    000372  aa  060 060 060 061         	aci	"000100",6
    000373  aa  060 060 000 000
    000374  aa   340000 000000          	vfd	o18/in+rp+hlt
    000375  aa  104 101 040 124         	aci	"DA Transfer error",32
    000376  aa  162 141 156 163
    000377  aa  146 145 162 040
    000400  aa  145 162 162 157
    000401  aa  162 040 040 040
    000402  aa  040 040 040 040
    000403  aa  040 040 040 040
    000404  aa  040 040 040 040

                                    74  	substat_entry	11,001000,in+rp+hlt,(Invalid Punch)
                        000004          	set	lm11,lm11+1
    000405  aa  060 060 061 060         	aci	"001000",6
    000406  aa  060 060 000 000
    000407  aa   340000 000000          	vfd	o18/in+rp+hlt
    000410  aa  111 156 166 141         	aci	"Invalid Punch",32
    000411  aa  154 151 144 040
    000412  aa  120 165 156 143
    000413  aa  150 040 040 040
    000414  aa  040 040 040 040
    000415  aa  040 040 040 040
    000416  aa  040 040 040 040
    000417  aa  040 040 040 040

                                    75
                                    76  " 
                                    77
                                    78  	status_entry	12,(MPC Data Alert)

    000420  aa  115 120 103 040         m12:	aci	"MPC Data Alert",24
    000421  aa  104 141 164 141
    000422  aa  040 101 154 145
    000423  aa  162 164 040 040
    000424  aa  040 040 040 040
    000425  aa  040 040 040 040

                                    79
                                    80  	substat_entry	12,000001,bk+rp+hlt,(Transmission parity error)
                        000001          	set	lm12,lm12+1
    000426  aa  060 060 060 060         	aci	"000001",6
    000427  aa  060 061 000 000
    000430  aa   540000 000000          	vfd	o18/bk+rp+hlt
    000431  aa  124 162 141 156         	aci	"Transmission parity error",32
    000432  aa  163 155 151 163
    000433  aa  163 151 157 156
    000434  aa  040 160 141 162
    000435  aa  151 164 171 040
    000436  aa  145 162 162 157
    000437  aa  162 040 040 040
    000440  aa  040 040 040 040

                                    81  	substat_entry	12,000101,bk+rp+hlt,(DAI error)
                        000002          	set	lm12,lm12+1
    000441  aa  060 060 060 061         	aci	"000101",6
    000442  aa  060 061 000 000
    000443  aa   540000 000000          	vfd	o18/bk+rp+hlt
    000444  aa  104 101 111 040         	aci	"DAI error",32
    000445  aa  145 162 162 157
    000446  aa  162 040 040 040
    000447  aa  040 040 040 040
    000450  aa  040 040 040 040
    000451  aa  040 040 040 040
    000452  aa  040 040 040 040
    000453  aa  040 040 040 040

                                    82
                                    83  " 
                                    84
                                    85  	status_entry	14,(MPC Command Reject)

    000454  aa  115 120 103 040         m14:	aci	"MPC Command Reject",24
    000455  aa  103 157 155 155
    000456  aa  141 156 144 040
    000457  aa  122 145 152 145
    000460  aa  143 164 040 040
    000461  aa  040 040 040 040

                                    86
                                    87  	substat_entry	14,000001,bk+rp+hlt,(Illegal procedure)
                        000001          	set	lm14,lm14+1
    000462  aa  060 060 060 060         	aci	"000001",6
    000463  aa  060 061 000 000
    000464  aa   540000 000000          	vfd	o18/bk+rp+hlt
    000465  aa  111 154 154 145         	aci	"Illegal procedure",32
    000466  aa  147 141 154 040
    000467  aa  160 162 157 143
    000470  aa  145 144 165 162
    000471  aa  145 040 040 040
    000472  aa  040 040 040 040
    000473  aa  040 040 040 040
    000474  aa  040 040 040 040

                                    88  	substat_entry	14,000010,bk+rp+hlt,(Illegal logical channel)
                        000002          	set	lm14,lm14+1
    000475  aa  060 060 060 060         	aci	"000010",6
    000476  aa  061 060 000 000
    000477  aa   540000 000000          	vfd	o18/bk+rp+hlt
    000500  aa  111 154 154 145         	aci	"Illegal logical channel",32
    000501  aa  147 141 154 040
    000502  aa  154 157 147 151
    000503  aa  143 141 154 040
    000504  aa  143 150 141 156
    000505  aa  156 145 154 040
    000506  aa  040 040 040 040
    000507  aa  040 040 040 040

                                    89  	substat_entry	14,001000,bk+rp+hlt,(Device reserved)
                        000003          	set	lm14,lm14+1
    000510  aa  060 060 061 060         	aci	"001000",6
    000511  aa  060 060 000 000
    000512  aa   540000 000000          	vfd	o18/bk+rp+hlt
    000513  aa  104 145 166 151         	aci	"Device reserved",32
    000514  aa  143 145 040 162
    000515  aa  145 163 145 162
    000516  aa  166 145 144 040
    000517  aa  040 040 040 040
    000520  aa  040 040 040 040
    000521  aa  040 040 040 040
    000522  aa  040 040 040 040

                                    90
                                    91
                                    92
                                    93  	end

NO LITERALS

NAME DEFINITIONS FOR ENTRY POINTS AND SEGDEFS

    000524  5a   000003 000000
    000525  5a   000032 600000
    000526  aa   000000 000000
    000527  55   000013 000002
    000530  5a   000002 400003
    000531  55   000006 000013
    000532  aa  021 143 162 172
    000533  aa  137 163 164 141
    000534  aa  164 165 163 137
    000535  aa  164 141 142 154
    000536  aa  145 137 000 000
    000537  55   000023 000003
    000540  0a   000000 400000
    000541  55   000016 000003
    000542  aa  021 143 162 172         crz_status_table_
    000543  aa  137 163 164 141
    000544  aa  164 165 163 137
    000545  aa  164 141 142 154
    000546  aa  145 137 000 000
    000547  55   000002 000013
    000550  6a   000000 400002
    000551  55   000026 000003
    000552  aa  014 163 171 155         symbol_table
    000553  aa  142 157 154 137
    000554  aa  164 141 142 154
    000555  aa  145 000 000 000

DEFINITIONS HASH TABLE

    000556  aa   000000 000015
    000557  aa   000000 000000
    000560  5a   000013 000000
    000561  aa   000000 000000
    000562  aa   000000 000000
    000563  aa   000000 000000
    000564  aa   000000 000000
    000565  5a   000023 000000
    000566  aa   000000 000000
    000567  aa   000000 000000
    000570  aa   000000 000000
    000571  aa   000000 000000
    000572  aa   000000 000000
    000573  aa   000000 000000

NO EXTERNAL NAMES

NO TRAP POINTER WORDS

TYPE PAIR BLOCKS

    000574  aa   000001 000000
    000575  aa   000000 000000

INTERNAL EXPRESSION WORDS

LINKAGE INFORMATION

    000000  aa   000000 000000
    000001  0a   000524 000000
    000002  aa   000000 000000
    000003  aa   000000 000000
    000004  aa   000000 000000
    000005  aa   000000 000000
    000006  22   000010 000010
    000007  a2   000000 000000
SYMBOL INFORMATION

SYMBOL TABLE HEADER

    000000  aa   000000 000001
    000001  aa   163171 155142
    000002  aa   164162 145145
    000003  aa   000000 000004
    000004  aa   000000 111316
    000005  aa   510113 575622
    000006  aa   000000 112130
    000007  aa   002267 170250
    000010  aa   141154 155040
    000011  aa   040040 040040
    000012  aa   000024 000040
    000013  aa   000034 000040
    000014  aa   000044 000100
    000015  aa   000002 000002
    000016  aa   000064 000000
    000017  aa   000000 000166
    000020  aa   000000 000126
    000021  aa   000000 000154
    000022  aa   000157 000126
    000023  aa   000064 000000
    000024  aa   101114 115040
    000025  aa   126145 162163
    000026  aa   151157 156040
    000027  aa   040066 056064
    000030  aa   040040 101160
    000031  aa   162151 154040
    000032  aa   061071 070061
    000033  aa   040040 040040
    000034  aa   107112 157150
    000035  aa   156163 157156
    000036  aa   056123 171163
    000037  aa   115141 151156
    000040  aa   164056 141040
    000041  aa   040040 040040
    000042  aa   040040 040040
    000043  aa   040040 040040
    000044  aa   154151 163164
    000045  aa   040040 040040
    000046  aa   040040 040040
    000047  aa   040040 040040
    000050  aa   040040 040040
    000051  aa   040040 040040
    000052  aa   040040 040040
    000053  aa   040040 040040
    000054  aa   040040 040040
    000055  aa   040040 040040
    000056  aa   040040 040040
    000057  aa   040040 040040
    000060  aa   040040 040040
    000061  aa   040040 040040
    000062  aa   040040 040040
    000063  aa   040040 040040
    000064  aa   000000 000001
    000065  aa   000000 000002
    000066  aa   000076 000056
    000067  aa   121247 675376
    000070  aa   000000 112127
    000071  aa   754412 000000
    000072  aa   000112 000056
    000073  aa   121247 673576
    000074  aa   000000 112127
    000075  aa   744274 000000
    000076  aa   076163 160145          >special_ldd>on>09/12/83>crz_status_table_.alm
    000077  aa   143151 141154
    000100  aa   137154 144144
    000101  aa   076157 156076
    000102  aa   060071 057061
    000103  aa   062057 070063
    000104  aa   076143 162172
    000105  aa   137163 164141
    000106  aa   164165 163137
    000107  aa   164141 142154
    000110  aa   145137 056141
    000111  aa   154155 040040
    000112  aa   076163 160145          >special_ldd>on>09/12/83>status_table.incl.alm
    000113  aa   143151 141154
    000114  aa   137154 144144
    000115  aa   076157 156076
    000116  aa   060071 057061
    000117  aa   062057 070063
    000120  aa   076163 164141
    000121  aa   164165 163137
    000122  aa   164141 142154
    000123  aa   145056 151156
    000124  aa   143154 056141
    000125  aa   154155 040040
               MULTICS ASSEMBLY CROSS REFERENCE LISTING

   Value        Symbol                   Source file   Line number

      400000    bk                       crz_status_table_:   26,   47,   48,   54,   55,   56,   57,   63,   64,   65,   80,
                                                              81,   87,   88,   89.
           0    crz_status_table_        crz_status_table_:   26.
       20000    eurc_nobk                crz_status_table_:   26.
       40000    hlt                      crz_status_table_:   26,   41,   42,   43,   44,   45,   46,   47,   48,   54,   55,
                                                              56,   57,   63,   64,   71,   72,   73,   74,   80,   81,   87,
                                                              88,   89.
      200000    in                       crz_status_table_:   26,   41,   42,   43,   44,   45,   46,   71,   72,   73,   74.
           1    lm1                      crz_status_table_:   26,   31.
           4    lm11                     crz_status_table_:   26,   71,   72,   73,   74.
           2    lm12                     crz_status_table_:   26,   80,   81.
           3    lm14                     crz_status_table_:   26,   87,   88,   89.
           0    lm2                      crz_status_table_:   26.
          10    lm3                      crz_status_table_:   26,   41,   42,   43,   44,   45,   46,   47,   48.
           4    lm4                      crz_status_table_:   26,   54,   55,   56,   57.
           3    lm6                      crz_status_table_:   26,   63,   64,   65.
          20    m1                       crz_status_table_:   26,   29.
         336    m11                      crz_status_table_:   26,   69.
         420    m12                      crz_status_table_:   26,   78.
         454    m14                      crz_status_table_:   26,   85.
          41    m2                       crz_status_table_:   26,   35.
          47    m3                       crz_status_table_:   26,   39.
         205    m4                       crz_status_table_:   26,   52.
         267    m6                       crz_status_table_:   26,   61.
      100000    rp                       crz_status_table_:   26,   41,   42,   43,   44,   45,   46,   47,   48,   54,   55,
                                                              56,   57,   63,   64,   65,   71,   72,   73,   74,   80,   81,
                                                              87,   88,   89.


NO FATAL ERRORS


                                          -----------------------------------------------------------


Historical Background

This edition of the Multics software materials and documentation is provided and donated
to Massachusetts Institute of Technology by Group BULL including BULL HN Information Systems Inc.
as a contribution to computer science knowledge.
This donation is made also to give evidence of the common contributions of Massachusetts Institute of Technology,
Bell Laboratories, General Electric, Honeywell Information Systems Inc., Honeywell BULL Inc., Groupe BULL
and BULL HN Information Systems Inc. to the development of this operating system.
Multics development was initiated by Massachusetts Institute of Technology Project MAC (1963-1970),
renamed the MIT Laboratory for Computer Science and Artificial Intelligence in the mid 1970s, under the leadership
of Professor Fernando Jose Corbato. Users consider that Multics provided the best software architecture
for managing computer hardware properly and for executing programs. Many subsequent operating systems
incorporated Multics principles.
Multics was distributed in 1975 to 2000 by Group Bull in Europe , and in the U.S. by Bull HN Information Systems Inc.,
as successor in interest by change in name only to Honeywell Bull Inc. and Honeywell Information Systems Inc. .

                                          -----------------------------------------------------------

Permission to use, copy, modify, and distribute these programs and their documentation for any purpose and without
fee is hereby granted,provided that the below copyright notice and historical background appear in all copies
and that both the copyright notice and historical background and this permission notice appear in supporting
documentation, and that the names of MIT, HIS, BULL or BULL HN not be used in advertising or publicity pertaining
to distribution of the programs without specific prior written permission.
    Copyright 1972 by Massachusetts Institute of Technology and Honeywell Information Systems Inc.
    Copyright 2006 by BULL HN Information Systems Inc.
    Copyright 2006 by Bull SAS
    All Rights Reserved
