ASSEMBLY LISTING OF SEGMENT >udd>sm>ds>w>ml>csl_onc.alm
ASSEMBLED ON:	04/17/00  1922.6 mdt Mon
OPTIONS USED:	list symbols
ASSEMBLED BY:	ALM Version 8.14 March 1989
ASSEMBLER CREATED:	06/09/89  1102.3 mdt Fri

                                     1  "  ******************************************************
                                     2  "  *                                                    *
                                     3  "  *                                                    *
                                     4  "  * Copyright (c) 1972 by Massachusetts Institute of   *
                                     5  "  * Technology and Honeywell Information Systems, Inc. *
                                     6  "  *                                                    *
                                     7  "  *                                                    *
                                     8  "  ******************************************************
                                     9
                                    10  "  ******************************************************
                                    11  "  *                                                    *
                                    12  "  *                                                    *
                                    13  "  *    Copyright, (C) Honeywell Information Systems    *
                                    14  "  *    Inc., 1980.                                     *
                                    15  "  *                                                    *
                                    16  "  *                                                    *
                                    17  "  ******************************************************
                                    18
    000000                          19  	name	csl_onc
                        000000      20  	entry	csl_onc
                                    21  	temp	bits
                                    22
    000000  aa   000060 6270 00     23  csl_onc:	push
    000001  aa  7 00040 2721 20
    000002  aa  0 00002 3521 20     24  	eppbp	ap|2,*
    000003  aa  2 00000 3521 20     25  	eppbp	bp|0,*
    000004  aa   001771 0520 03     26  	adwpbp	1017,du
    000005  aa   000022 6210 00     27  	eax1	18
    000006  aa   003353 2360 07     28  	ldq	=01771,dl
    000007  aa  6 00050 7561 00     29  	stq	bits
                                    30
    000010  aa   000000 0520 03     31  	adwpbp	0,du
    000011  aa  2 00000 5035 11     32  	abd	bp|0,1
    000012  0a   001000 3714 00     33  	epplb	source
    000013  aa  6 00050 2351 00     34  	lda	bits
    000014  aa  0 03140 0605 40     35  	csl	(pr,rl),(pr,rl),bool(3)
    000015  aa   500000 000005      36  	descb	lb|0,al
    000016  aa   200000 000006      37  	descb	bp|0,ql
                                    38
    000017  aa  7 00042 7101 20     39  	return
                                    40
                        001000      41  	org	512
    001000  aa   123456 123456      42  source:	oct	123456123456,0,123456123456,0
    001001  aa   000000 000000
    001002  aa   123456 123456
    001003  aa   000000 000000
                                    43
                                    44  	end
ENTRY SEQUENCES

    001004  5a   000010 0000 00
    001005  aa  7 00046 2721 20
    001006  0a   000000 7100 00

NO LITERALS

NAME DEFINITIONS FOR ENTRY POINTS AND SEGDEFS

    001010  5a   000003 000000
    001011  5a   000024 600000
    001012  aa   000000 000000
    001013  55   000010 000002
    001014  5a   000002 400003
    001015  55   000006 000010
    001016  aa  007 143 163 154
    001017  aa  137 157 156 143
    001020  55   000015 000003
    001021  0a   001005 500000
    001022  55   000013 000003
    001023  aa  007 143 163 154         csl_onc
    001024  aa  137 157 156 143
    001025  55   000002 000010
    001026  6a   000000 400002
    001027  55   000020 000003
    001030  aa  014 163 171 155         symbol_table
    001031  aa  142 157 154 137
    001032  aa  164 141 142 154
    001033  aa  145 000 000 000

DEFINITIONS HASH TABLE

    001034  aa   000000 000015
    001035  aa   000000 000000
    001036  aa   000000 000000
    001037  aa   000000 000000
    001040  5a   000010 000000
    001041  aa   000000 000000
    001042  aa   000000 000000
    001043  5a   000015 000000
    001044  aa   000000 000000
    001045  aa   000000 000000
    001046  aa   000000 000000
    001047  aa   000000 000000
    001050  aa   000000 000000
    001051  aa   000000 000000

NO EXTERNAL NAMES

NO TRAP POINTER WORDS

TYPE PAIR BLOCKS

    001052  aa   000001 000000
    001053  aa   000000 000000

INTERNAL EXPRESSION WORDS

LINKAGE INFORMATION

    000000  aa   000000 000000
    000001  0a   001010 000000
    000002  aa   000000 000000
    000003  aa   000000 000000
    000004  aa   000000 000000
    000005  aa   000000 000000
    000006  22   000010 000010
    000007  a2   000000 000000
SYMBOL INFORMATION

SYMBOL TABLE HEADER

    000000  aa   000000 000001
    000001  aa   163171 155142
    000002  aa   164162 145145
    000003  aa   000000 000010
    000004  aa   000000 117244
    000005  aa   361023 525721
    000006  aa   000000 131036
    000007  aa   026621 377003
    000010  aa   141154 155040
    000011  aa   040040 040040
    000012  aa   000024 000040
    000013  aa   000034 000040
    000014  aa   000044 000100
    000015  aa   000002 000002
    000016  aa   000064 000000
    000017  aa   000000 000161
    000020  aa   000000 000101
    000021  aa   000144 000141
    000022  aa   000153 000101
    000023  aa   000064 000000
    000024  aa   101114 115040
    000025  aa   126145 162163
    000026  aa   151157 156040
    000027  aa   070056 061064
    000030  aa   040115 141162
    000031  aa   143150 040061
    000032  aa   071070 071040
    000033  aa   040040 040040
    000034  aa   123143 150162
    000035  aa   157164 150056
    000036  aa   123171 163115
    000037  aa   141151 156164
    000040  aa   056155 040040
    000041  aa   040040 040040
    000042  aa   040040 040040
    000043  aa   040040 040040
    000044  aa   154151 163164
    000045  aa   040163 171155
    000046  aa   142157 154163
    000047  aa   040040 040040
    000050  aa   040040 040040
    000051  aa   040040 040040
    000052  aa   040040 040040
    000053  aa   040040 040040
    000054  aa   040040 040040
    000055  aa   040040 040040
    000056  aa   040040 040040
    000057  aa   040040 040040
    000060  aa   040040 040040
    000061  aa   040040 040040
    000062  aa   040040 040040
    000063  aa   040040 040040
    000064  aa   000000 000001
    000065  aa   000000 000001
    000066  aa   000072 000033
    000067  aa   310157 122144
    000070  aa   000000 131036
    000071  aa   026621 400000
    000072  aa   076165 144144          >udd>sm>ds>w>ml>csl_onc.alm
    000073  aa   076163 155076
    000074  aa   144163 076167
    000075  aa   076155 154076
    000076  aa   143163 154137
    000077  aa   157156 143056
    000100  aa   141154 155040
               MULTICS ASSEMBLY CROSS REFERENCE LISTING

   Value        Symbol                   Source file   Line number

          50    bits                     csl_onc:       21,   29,   34.
           0    csl_onc                  csl_onc:       20,   23.
        1000    source                   csl_onc:       33,   42.


NO FATAL ERRORS


                                          -----------------------------------------------------------


Historical Background

This edition of the Multics software materials and documentation is provided and donated
to Massachusetts Institute of Technology by Group BULL including BULL HN Information Systems Inc.
as a contribution to computer science knowledge.
This donation is made also to give evidence of the common contributions of Massachusetts Institute of Technology,
Bell Laboratories, General Electric, Honeywell Information Systems Inc., Honeywell BULL Inc., Groupe BULL
and BULL HN Information Systems Inc. to the development of this operating system.
Multics development was initiated by Massachusetts Institute of Technology Project MAC (1963-1970),
renamed the MIT Laboratory for Computer Science and Artificial Intelligence in the mid 1970s, under the leadership
of Professor Fernando Jose Corbato. Users consider that Multics provided the best software architecture
for managing computer hardware properly and for executing programs. Many subsequent operating systems
incorporated Multics principles.
Multics was distributed in 1975 to 2000 by Group Bull in Europe , and in the U.S. by Bull HN Information Systems Inc.,
as successor in interest by change in name only to Honeywell Bull Inc. and Honeywell Information Systems Inc. .

                                          -----------------------------------------------------------

Permission to use, copy, modify, and distribute these programs and their documentation for any purpose and without
fee is hereby granted,provided that the below copyright notice and historical background appear in all copies
and that both the copyright notice and historical background and this permission notice appear in supporting
documentation, and that the names of MIT, HIS, BULL or BULL HN not be used in advertising or publicity pertaining
to distribution of the programs without specific prior written permission.
    Copyright 1972 by Massachusetts Institute of Technology and Honeywell Information Systems Inc.
    Copyright 2006 by BULL HN Information Systems Inc.
    Copyright 2006 by Bull SAS
    All Rights Reserved
