ASSEMBLY LISTING OF SEGMENT >udd>sm>ds>w>ml>csl_pgflt.alm
ASSEMBLED ON:	04/17/00  1922.8 mdt Mon
OPTIONS USED:	list symbols
ASSEMBLED BY:	ALM Version 8.14 March 1989
ASSEMBLER CREATED:	06/09/89  1102.3 mdt Fri

                                     1  "  ******************************************************
                                     2  "  *                                                    *
                                     3  "  *                                                    *
                                     4  "  * Copyright (c) 1972 by Massachusetts Institute of   *
                                     5  "  * Technology and Honeywell Information Systems, Inc. *
                                     6  "  *                                                    *
                                     7  "  *                                                    *
                                     8  "  ******************************************************
                                     9
                                    10  "  ******************************************************
                                    11  "  *                                                    *
                                    12  "  *                                                    *
                                    13  "  *    Copyright, (C) Honeywell Information Systems    *
                                    14  "  *    Inc., 1980.                                     *
                                    15  "  *                                                    *
                                    16  "  *                                                    *
                                    17  "  ******************************************************
                                    18
    000000                          19  	name	csl_pgflt
                        000000      20  	entry	csl_pgflt
    000000                          21  csl_pgflt:
    000000  aa   000060 6270 00     22  	push
    000001  aa  7 00040 2721 20
    000002  aa   220000 2360 07     23  	ldq	73728,dl
    000003  aa  0 00002 3521 20     24  	eppbp	ap|2,*	"get ptr to temp seg
    000004  aa  2 00000 3521 20     25  	eppbp	bp|0,*
    000005  0a   000012 3514 00     26  	eppab	source
    000006  aa  0 03140 0605 40     27  	csl	(pr,rl),(pr,rl),bool(03)
    000007  aa   100000 000006      28  	descb	ab|0,ql
    000010  aa   200000 000006      29  	descb	bp|0,ql
    000011  aa  7 00042 7101 20     30  	return
    000012                          31  	bss	source,2048
                                    32  	end
ENTRY SEQUENCES

    004012  5a   000011 0000 00
    004013  aa  7 00046 2721 20
    004014  0a   000000 7100 00

NO LITERALS

NAME DEFINITIONS FOR ENTRY POINTS AND SEGDEFS

    004016  5a   000003 000000
    004017  5a   000026 600000
    004020  aa   000000 000000
    004021  55   000011 000002
    004022  5a   000002 400003
    004023  55   000006 000011
    004024  aa  011 143 163 154
    004025  aa  137 160 147 146
    004026  aa  154 164 000 000
    004027  55   000017 000003
    004030  0a   004013 500000
    004031  55   000014 000003
    004032  aa  011 143 163 154         csl_pgflt
    004033  aa  137 160 147 146
    004034  aa  154 164 000 000
    004035  55   000002 000011
    004036  6a   000000 400002
    004037  55   000022 000003
    004040  aa  014 163 171 155         symbol_table
    004041  aa  142 157 154 137
    004042  aa  164 141 142 154
    004043  aa  145 000 000 000

DEFINITIONS HASH TABLE

    004044  aa   000000 000015
    004045  aa   000000 000000
    004046  aa   000000 000000
    004047  aa   000000 000000
    004050  aa   000000 000000
    004051  aa   000000 000000
    004052  aa   000000 000000
    004053  5a   000011 000000
    004054  5a   000017 000000
    004055  aa   000000 000000
    004056  aa   000000 000000
    004057  aa   000000 000000
    004060  aa   000000 000000
    004061  aa   000000 000000

NO EXTERNAL NAMES

NO TRAP POINTER WORDS

TYPE PAIR BLOCKS

    004062  aa   000001 000000
    004063  aa   000000 000000

INTERNAL EXPRESSION WORDS

LINKAGE INFORMATION

    000000  aa   000000 000000
    000001  0a   004016 000000
    000002  aa   000000 000000
    000003  aa   000000 000000
    000004  aa   000000 000000
    000005  aa   000000 000000
    000006  22   000010 000010
    000007  a2   000000 000000
SYMBOL INFORMATION

SYMBOL TABLE HEADER

    000000  aa   000000 000001
    000001  aa   163171 155142
    000002  aa   164162 145145
    000003  aa   000000 000010
    000004  aa   000000 117244
    000005  aa   361023 525721
    000006  aa   000000 131036
    000007  aa   026667 331030
    000010  aa   141154 155040
    000011  aa   040040 040040
    000012  aa   000024 000040
    000013  aa   000034 000040
    000014  aa   000044 000100
    000015  aa   000002 000002
    000016  aa   000064 000000
    000017  aa   000000 000307
    000020  aa   000000 000102
    000021  aa   000272 000267
    000022  aa   000301 000102
    000023  aa   000064 000000
    000024  aa   101114 115040
    000025  aa   126145 162163
    000026  aa   151157 156040
    000027  aa   070056 061064
    000030  aa   040115 141162
    000031  aa   143150 040061
    000032  aa   071070 071040
    000033  aa   040040 040040
    000034  aa   123143 150162
    000035  aa   157164 150056
    000036  aa   123171 163115
    000037  aa   141151 156164
    000040  aa   056155 040040
    000041  aa   040040 040040
    000042  aa   040040 040040
    000043  aa   040040 040040
    000044  aa   154151 163164
    000045  aa   040163 171155
    000046  aa   142157 154163
    000047  aa   040040 040040
    000050  aa   040040 040040
    000051  aa   040040 040040
    000052  aa   040040 040040
    000053  aa   040040 040040
    000054  aa   040040 040040
    000055  aa   040040 040040
    000056  aa   040040 040040
    000057  aa   040040 040040
    000060  aa   040040 040040
    000061  aa   040040 040040
    000062  aa   040040 040040
    000063  aa   040040 040040
    000064  aa   000000 000001
    000065  aa   000000 000001
    000066  aa   000072 000035
    000067  aa   310157 122275
    000070  aa   000000 131036
    000071  aa   026667 400000
    000072  aa   076165 144144          >udd>sm>ds>w>ml>csl_pgflt.alm
    000073  aa   076163 155076
    000074  aa   144163 076167
    000075  aa   076155 154076
    000076  aa   143163 154137
    000077  aa   160147 146154
    000100  aa   164056 141154
    000101  aa   155040 040040
               MULTICS ASSEMBLY CROSS REFERENCE LISTING

   Value        Symbol                   Source file   Line number

           0    csl_pgflt                csl_pgflt:     20,   21.
          12    source                   csl_pgflt:     26,   31.


NO FATAL ERRORS


                                          -----------------------------------------------------------


Historical Background

This edition of the Multics software materials and documentation is provided and donated
to Massachusetts Institute of Technology by Group BULL including BULL HN Information Systems Inc.
as a contribution to computer science knowledge.
This donation is made also to give evidence of the common contributions of Massachusetts Institute of Technology,
Bell Laboratories, General Electric, Honeywell Information Systems Inc., Honeywell BULL Inc., Groupe BULL
and BULL HN Information Systems Inc. to the development of this operating system.
Multics development was initiated by Massachusetts Institute of Technology Project MAC (1963-1970),
renamed the MIT Laboratory for Computer Science and Artificial Intelligence in the mid 1970s, under the leadership
of Professor Fernando Jose Corbato. Users consider that Multics provided the best software architecture
for managing computer hardware properly and for executing programs. Many subsequent operating systems
incorporated Multics principles.
Multics was distributed in 1975 to 2000 by Group Bull in Europe , and in the U.S. by Bull HN Information Systems Inc.,
as successor in interest by change in name only to Honeywell Bull Inc. and Honeywell Information Systems Inc. .

                                          -----------------------------------------------------------

Permission to use, copy, modify, and distribute these programs and their documentation for any purpose and without
fee is hereby granted,provided that the below copyright notice and historical background appear in all copies
and that both the copyright notice and historical background and this permission notice appear in supporting
documentation, and that the names of MIT, HIS, BULL or BULL HN not be used in advertising or publicity pertaining
to distribution of the programs without specific prior written permission.
    Copyright 1972 by Massachusetts Institute of Technology and Honeywell Information Systems Inc.
    Copyright 2006 by BULL HN Information Systems Inc.
    Copyright 2006 by Bull SAS
    All Rights Reserved
