ASSEMBLY LISTING OF SEGMENT >spec>on>6978-10/22/84>csl_test.alm
ASSEMBLED ON:	10/22/84  1114.3 mst Mon
OPTIONS USED:	list
ASSEMBLED BY:	ALM Version  6.6  November 1982
ASSEMBLER CREATED:	09/21/83  1227.3 mst Wed

                                     1  "  ******************************************************
                                     2  "  *                                                    *
                                     3  "  *                                                    *
                                     4  "  * Copyright (c) 1972 by Massachusetts Institute of   *
                                     5  "  * Technology and Honeywell Information Systems, Inc. *
                                     6  "  *                                                    *
                                     7  "  *                                                    *
                                     8  "  ******************************************************
                                     9
                                    10  "  ******************************************************
                                    11  "  *                                                    *
                                    12  "  *                                                    *
                                    13  "  *    Copyright, (C) Honeywell Information Systems    *
                                    14  "  *    Inc., 1980.                                     *
                                    15  "  *                                                    *
                                    16  "  *                                                    *
                                    17  "  ******************************************************
                                    18
    000000                          19  	name	csl_test
                        000000      20  	entry	csl_test
    000000                          21  csl_test:
    000000  aa   000060 6270 00     22  	push
    000001  aa  7 00040 2721 20
    000002  aa  0 00002 3715 20     23  	epplb	ap|2,*
    000003  aa  5 00000 3715 20     24  	epplb	lb|0,*	"get ptr to test_data
    000004  aa   004767 1510 03     25  	adwplb	2551,du
    000005  aa  0 00004 3535 20     26  	eppbb	ap|4,*
    000006  aa  3 00000 3535 20     27  	eppbb	bb|0,*	"get ptr to temp seg
    000007  aa   023154 0530 03     28  	adwpbb	9836,du
    000010  aa   722350 2360 07     29  	ldq	238824,dl
    000011  aa  0 03140 0605 40     30  	csl	(pr,rl),(pr,rl),bool(03)
    000012  aa   500000 000006      31  	descb	lb|0,ql
    000013  aa   300000 000006      32  	descb	bb|0,ql
    000014  aa  0 00140 0665 40     33  	cmpb	(pr,rl),(pr,rl)
    000015  aa   500000 000006      34  	descb	lb|0,ql
    000016  aa   300000 000006      35  	descb	bb|0,ql
    000017  0a   000021 6010 00     36  	tnz	crump
    000020  aa  7 00042 7101 20     37  	return
                                    38  ""
    000021  aa   000000 000000      39  crump:	oct	0
                                    40  	end
ENTRY SEQUENCES

    000022  5a   000011 0000 00
    000023  aa  7 00046 2721 20
    000024  0a   000000 7100 00

NO LITERALS

NAME DEFINITIONS FOR ENTRY POINTS AND SEGDEFS

    000026  5a   000003 000000
    000027  5a   000026 600000
    000030  aa   000000 000000
    000031  55   000011 000002
    000032  5a   000002 400003
    000033  55   000006 000011
    000034  aa  010 143 163 154
    000035  aa  137 164 145 163
    000036  aa  164 000 000 000
    000037  55   000017 000003
    000040  0a   000023 500000
    000041  55   000014 000003
    000042  aa  010 143 163 154         csl_test
    000043  aa  137 164 145 163
    000044  aa  164 000 000 000
    000045  55   000002 000011
    000046  6a   000000 400002
    000047  55   000022 000003
    000050  aa  014 163 171 155         symbol_table
    000051  aa  142 157 154 137
    000052  aa  164 141 142 154
    000053  aa  145 000 000 000

DEFINITIONS HASH TABLE

    000054  aa   000000 000015
    000055  aa   000000 000000
    000056  aa   000000 000000
    000057  aa   000000 000000
    000060  aa   000000 000000
    000061  aa   000000 000000
    000062  aa   000000 000000
    000063  5a   000017 000000
    000064  aa   000000 000000
    000065  aa   000000 000000
    000066  aa   000000 000000
    000067  aa   000000 000000
    000070  5a   000011 000000
    000071  aa   000000 000000

NO EXTERNAL NAMES

NO TRAP POINTER WORDS

TYPE PAIR BLOCKS

    000072  aa   000001 000000
    000073  aa   000000 000000

INTERNAL EXPRESSION WORDS

LINKAGE INFORMATION

    000000  aa   000000 000000
    000001  0a   000026 000000
    000002  aa   000000 000000
    000003  aa   000000 000000
    000004  aa   000000 000000
    000005  aa   000000 000000
    000006  22   000010 000010
    000007  a2   000000 000000
SYMBOL INFORMATION

SYMBOL TABLE HEADER

    000000  aa   000000 000001
    000001  aa   163171 155142
    000002  aa   164162 145145
    000003  aa   000000 000004
    000004  aa   000000 112143
    000005  aa   305203 523135
    000006  aa   000000 113126
    000007  aa   355422 436742
    000010  aa   141154 155040
    000011  aa   040040 040040
    000012  aa   000024 000040
    000013  aa   000034 000040
    000014  aa   000044 000100
    000015  aa   000002 000002
    000016  aa   000064 000000
    000017  aa   000000 000120
    000020  aa   000000 000103
    000021  aa   000000 000107
    000022  aa   000112 000103
    000023  aa   000064 000000
    000024  aa   101114 115040
    000025  aa   126145 162163
    000026  aa   151157 156040
    000027  aa   040066 056066
    000030  aa   040040 116157
    000031  aa   166145 155142
    000032  aa   145162 040061
    000033  aa   071070 062040
    000034  aa   107112 157150
    000035  aa   156163 157156
    000036  aa   056123 171163
    000037  aa   115141 151156
    000040  aa   164056 155040
    000041  aa   040040 040040
    000042  aa   040040 040040
    000043  aa   040040 040040
    000044  aa   154151 163164
    000045  aa   040040 040040
    000046  aa   040040 040040
    000047  aa   040040 040040
    000050  aa   040040 040040
    000051  aa   040040 040040
    000052  aa   040040 040040
    000053  aa   040040 040040
    000054  aa   040040 040040
    000055  aa   040040 040040
    000056  aa   040040 040040
    000057  aa   040040 040040
    000060  aa   040040 040040
    000061  aa   040040 040040
    000062  aa   040040 040040
    000063  aa   040040 040040
    000064  aa   000000 000001
    000065  aa   000000 000001
    000066  aa   000072 000043
    000067  aa   131232 072503
    000070  aa   000000 113126
    000071  aa   347520 000000
    000072  aa   076163 160145          >spec>on>6978-10/22/84>csl_test.alm
    000073  aa   143076 157156
    000074  aa   076066 071067
    000075  aa   070055 061060
    000076  aa   057062 062057
    000077  aa   070064 076143
    000100  aa   163154 137164
    000101  aa   145163 164056
    000102  aa   141154 155040
               MULTICS ASSEMBLY CROSS REFERENCE LISTING

   Value        Symbol                   Source file   Line number

          21    crump                    csl_test:      36,   39.
           0    csl_test                 csl_test:      20,   21.


NO FATAL ERRORS


                                          -----------------------------------------------------------


Historical Background

This edition of the Multics software materials and documentation is provided and donated
to Massachusetts Institute of Technology by Group BULL including BULL HN Information Systems Inc.
as a contribution to computer science knowledge.
This donation is made also to give evidence of the common contributions of Massachusetts Institute of Technology,
Bell Laboratories, General Electric, Honeywell Information Systems Inc., Honeywell BULL Inc., Groupe BULL
and BULL HN Information Systems Inc. to the development of this operating system.
Multics development was initiated by Massachusetts Institute of Technology Project MAC (1963-1970),
renamed the MIT Laboratory for Computer Science and Artificial Intelligence in the mid 1970s, under the leadership
of Professor Fernando Jose Corbato. Users consider that Multics provided the best software architecture
for managing computer hardware properly and for executing programs. Many subsequent operating systems
incorporated Multics principles.
Multics was distributed in 1975 to 2000 by Group Bull in Europe , and in the U.S. by Bull HN Information Systems Inc.,
as successor in interest by change in name only to Honeywell Bull Inc. and Honeywell Information Systems Inc. .

                                          -----------------------------------------------------------

Permission to use, copy, modify, and distribute these programs and their documentation for any purpose and without
fee is hereby granted,provided that the below copyright notice and historical background appear in all copies
and that both the copyright notice and historical background and this permission notice appear in supporting
documentation, and that the names of MIT, HIS, BULL or BULL HN not be used in advertising or publicity pertaining
to distribution of the programs without specific prior written permission.
    Copyright 1972 by Massachusetts Institute of Technology and Honeywell Information Systems Inc.
    Copyright 2006 by BULL HN Information Systems Inc.
    Copyright 2006 by Bull SAS
    All Rights Reserved
