ASSEMBLY LISTING OF SEGMENT >spec>install>1033>disk_status_table_.alm
ASSEMBLED ON:	03/25/86  1046.6 mst Tue
OPTIONS USED:	list
ASSEMBLED BY:	ALM Version  6.6  November 1982
ASSEMBLER CREATED:	09/21/83  1227.3 mst Wed

                                     1  " ***********************************************************
                                     2  " *                                                         *
                                     3  " * Copyright, (C) Honeywell Information Systems Inc., 1982 *
                                     4  " *                                                         *
                                     5  " ***********************************************************
                                     6  " DISK_STATUS_TABLE - Status Tables for Disk.
                                     7  "	coded 7/7/75 by Noel I. Morris
                                     8  "	modified 4/79 by R.J.C. Kissel to add major status 0,
                                     9  "	   and new entry for major 13 sub 41 and 42 for MSU0501.
                                    10
                                    11  "  ******************************************************
                                    12  "  *                                                    *
                                    13  "  *                                                    *
                                    14  "  * Copyright (c) 1972 by Massachusetts Institute of   *
                                    15  "  * Technology and Honeywell Information Systems, Inc. *
                                    16  "  *                                                    *
                                    17  "  *                                                    *
                                    18  "  ******************************************************
                                    19
                                    20
                                    21  	include	status_table
                                   1-1  " Macro definitions for peripheral status table generation.
                                   1-2  "	created 12/1/74 by Noel I. Morris
                                   1-3  "	last modified 6/10/75 by Noel I. Morris
                                   1-4  "	last modified 4/79 by R.J.C. Kissel to make alm macros instead of mexp.
                                   1-5  "	last modified 7/83 by E. N. Kittlitz to add eurc_nobk.
                                   1-6
                                   1-7  	macro	status_table
                              1    1-8
                              2    1-9  	name	&1_status_table_
                              3   1-10
                              4   1-11  	segdef	&1_status_table_
                              5   1-12
                              6   1-13
                              7   1-14  	bool	bk,400000		retry previous operation
                              8   1-15  	bool	in,200000		set backup flag if status.initiate
                              9   1-16  	bool	rp,100000		report this error online
                             10   1-17  	bool	hlt,040000	this error stops device
                             11   1-18  	bool	eurc_nobk,020000	ignore bk if eurc connection
                             12   1-19
                             13   1-20  &1_status_table_:
                             14   1-21
                             15   1-22  &(2&=&i,0&[	zero	0,0
                             16   1-23  &;	zero	m&x,lm&x
                             17   1-24  	set	lm&x,0
                             18   1-25  &]&)
                             19   1-26
                             20   1-27  &end
                                  1-28
                                  1-29
                                  1-30  	macro	status_entry
                              1   1-31
                              2   1-32  m&1:	aci	"&2",24
                              3   1-33
                              4   1-34  &end
                                  1-35
                                  1-36
                                  1-37  	macro	substat_entry
                              1   1-38  	set	lm&1,lm&1+1
                              2   1-39  	aci	"&2",6
                              3   1-40  	vfd	o18/&3
                              4   1-41  	aci	"&4",32
                              5   1-42
                              6   1-43  &end
                                  1-44
                                  1-45
                                    22
                                    23
                                    24  " 
                                    25
                                    26  	status_table	disk,(1,1,1,1,1,1,0,0,1,0,1,1,0,1,0,0)

    000000                              	name	disk_status_table_

                        000000          	segdef	disk_status_table_


                        400000          	bool	bk,400000		retry previous operation
                        200000          	bool	in,200000		set backup flag if status.initiate
                        100000          	bool	rp,100000		report this error online
                        040000          	bool	hlt,040000	this error stops device
                        020000          	bool	eurc_nobk,020000	ignore bk if eurc connection

    000000                              disk_status_table_:

    000000  0a   000020 000006          	zero	m1,lm1
                        000000          	set	lm1,0
    000001  0a   000130 000002          	zero	m2,lm2
                        000000          	set	lm2,0
    000002  0a   000164 000005          	zero	m3,lm3
                        000000          	set	lm3,0
    000003  0a   000261 000006          	zero	m4,lm4
                        000000          	set	lm4,0
    000004  0a   000371 000006          	zero	m5,lm5
                        000000          	set	lm5,0
    000005  0a   000501 000004          	zero	m6,lm6
                        000000          	set	lm6,0
    000006  aa   000000 000000          	zero	0,0
    000007  aa   000000 000000          	zero	0,0
    000010  0a   000563 000000          	zero	m9,lm9
                        000000          	set	lm9,0
    000011  aa   000000 000000          	zero	0,0
    000012  0a   000571 000007          	zero	m11,lm11
                        000000          	set	lm11,0
    000013  0a   000714 000026          	zero	m12,lm12
                        000000          	set	lm12,0
    000014  aa   000000 000000          	zero	0,0
    000015  0a   001304 000004          	zero	m14,lm14
                        000000          	set	lm14,0
    000016  aa   000000 000000          	zero	0,0
    000017  aa   000000 000000          	zero	0,0


                                    27
                                    28  " 
                                    29
                                    30  	status_entry	1,(Channel Ready)

    000020  aa  103 150 141 156         m1:	aci	"Channel Ready",24
    000021  aa  156 145 154 040
    000022  aa  122 145 141 144
    000023  aa  171 040 040 040
    000024  aa  040 040 040 040
    000025  aa  040 040 040 040

                                    31
                                    32  	substat_entry	1,000000,,(No substatus)
                        000001          	set	lm1,lm1+1
    000026  aa  060 060 060 060         	aci	"000000",6
    000027  aa  060 060 000 000
    000030  aa   000000 000000          	vfd	o18/
    000031  aa  116 157 040 163         	aci	"No substatus",32
    000032  aa  165 142 163 164
    000033  aa  141 164 165 163
    000034  aa  040 040 040 040
    000035  aa  040 040 040 040
    000036  aa  040 040 040 040
    000037  aa  040 040 040 040
    000040  aa  040 040 040 040

                                    33  	substat_entry	1,000001,,(Retried 1 time)
                        000002          	set	lm1,lm1+1
    000041  aa  060 060 060 060         	aci	"000001",6
    000042  aa  060 061 000 000
    000043  aa   000000 000000          	vfd	o18/
    000044  aa  122 145 164 162         	aci	"Retried 1 time",32
    000045  aa  151 145 144 040
    000046  aa  061 040 164 151
    000047  aa  155 145 040 040
    000050  aa  040 040 040 040
    000051  aa  040 040 040 040
    000052  aa  040 040 040 040
    000053  aa  040 040 040 040

                                    34  	substat_entry	1,000010,,(Retried 2 times)
                        000003          	set	lm1,lm1+1
    000054  aa  060 060 060 060         	aci	"000010",6
    000055  aa  061 060 000 000
    000056  aa   000000 000000          	vfd	o18/
    000057  aa  122 145 164 162         	aci	"Retried 2 times",32
    000060  aa  151 145 144 040
    000061  aa  062 040 164 151
    000062  aa  155 145 163 040
    000063  aa  040 040 040 040
    000064  aa  040 040 040 040
    000065  aa  040 040 040 040
    000066  aa  040 040 040 040

                                    35  	substat_entry	1,000011,,(Retried 3 times)
                        000004          	set	lm1,lm1+1
    000067  aa  060 060 060 060         	aci	"000011",6
    000070  aa  061 061 000 000
    000071  aa   000000 000000          	vfd	o18/
    000072  aa  122 145 164 162         	aci	"Retried 3 times",32
    000073  aa  151 145 144 040
    000074  aa  063 040 164 151
    000075  aa  155 145 163 040
    000076  aa  040 040 040 040
    000077  aa  040 040 040 040
    000100  aa  040 040 040 040
    000101  aa  040 040 040 040

                                    36  	substat_entry	1,0010XX,,(Device in T&D)
                        000005          	set	lm1,lm1+1
    000102  aa  060 060 061 060         	aci	"0010XX",6
    000103  aa  130 130 000 000
    000104  aa   000000 000000          	vfd	o18/
    000105  aa  104 145 166 151         	aci	"Device in T&D",32
    000106  aa  143 145 040 151
    000107  aa  156 040 124 046
    000110  aa  104 040 040 040
    000111  aa  040 040 040 040
    000112  aa  040 040 040 040
    000113  aa  040 040 040 040
    000114  aa  040 040 040 040

                                    37  	substat_entry	1,010000,,(EDAC correction performed)
                        000006          	set	lm1,lm1+1
    000115  aa  060 061 060 060         	aci	"010000",6
    000116  aa  060 060 000 000
    000117  aa   000000 000000          	vfd	o18/
    000120  aa  105 104 101 103         	aci	"EDAC correction performed",32
    000121  aa  040 143 157 162
    000122  aa  162 145 143 164
    000123  aa  151 157 156 040
    000124  aa  160 145 162 146
    000125  aa  157 162 155 145
    000126  aa  144 040 040 040
    000127  aa  040 040 040 040

                                    38
                                    39  " 
                                    40
                                    41  	status_entry	2,(Device Busy)

    000130  aa  104 145 166 151         m2:	aci	"Device Busy",24
    000131  aa  143 145 040 102
    000132  aa  165 163 171 040
    000133  aa  040 040 040 040
    000134  aa  040 040 040 040
    000135  aa  040 040 040 040

                                    42
                                    43  	substat_entry	2,000000,bk+rp,(Device positioning)
                        000001          	set	lm2,lm2+1
    000136  aa  060 060 060 060         	aci	"000000",6
    000137  aa  060 060 000 000
    000140  aa   500000 000000          	vfd	o18/bk+rp
    000141  aa  104 145 166 151         	aci	"Device positioning",32
    000142  aa  143 145 040 160
    000143  aa  157 163 151 164
    000144  aa  151 157 156 151
    000145  aa  156 147 040 040
    000146  aa  040 040 040 040
    000147  aa  040 040 040 040
    000150  aa  040 040 040 040

                                    44  	substat_entry	2,100000,bk+rp,(Alternate channel in control)
                        000002          	set	lm2,lm2+1
    000151  aa  061 060 060 060         	aci	"100000",6
    000152  aa  060 060 000 000
    000153  aa   500000 000000          	vfd	o18/bk+rp
    000154  aa  101 154 164 145         	aci	"Alternate channel in control",32
    000155  aa  162 156 141 164
    000156  aa  145 040 143 150
    000157  aa  141 156 156 145
    000160  aa  154 040 151 156
    000161  aa  040 143 157 156
    000162  aa  164 162 157 154
    000163  aa  040 040 040 040

                                    45
                                    46  " 
                                    47
                                    48  	status_entry	3,(Device Attention)

    000164  aa  104 145 166 151         m3:	aci	"Device Attention",24
    000165  aa  143 145 040 101
    000166  aa  164 164 145 156
    000167  aa  164 151 157 156
    000170  aa  040 040 040 040
    000171  aa  040 040 040 040

                                    49
                                    50  	substat_entry	3,000001,rp+hlt,(Write inhibited)
                        000001          	set	lm3,lm3+1
    000172  aa  060 060 060 060         	aci	"000001",6
    000173  aa  060 061 000 000
    000174  aa   140000 000000          	vfd	o18/rp+hlt
    000175  aa  127 162 151 164         	aci	"Write inhibited",32
    000176  aa  145 040 151 156
    000177  aa  150 151 142 151
    000200  aa  164 145 144 040
    000201  aa  040 040 040 040
    000202  aa  040 040 040 040
    000203  aa  040 040 040 040
    000204  aa  040 040 040 040

                                    51  	substat_entry	3,000010,rp+hlt,(Seek incomplete)
                        000002          	set	lm3,lm3+1
    000205  aa  060 060 060 060         	aci	"000010",6
    000206  aa  061 060 000 000
    000207  aa   140000 000000          	vfd	o18/rp+hlt
    000210  aa  123 145 145 153         	aci	"Seek incomplete",32
    000211  aa  040 151 156 143
    000212  aa  157 155 160 154
    000213  aa  145 164 145 040
    000214  aa  040 040 040 040
    000215  aa  040 040 040 040
    000216  aa  040 040 040 040
    000217  aa  040 040 040 040

                                    52  	substat_entry	3,001000,rp+hlt,(Device fault)
                        000003          	set	lm3,lm3+1
    000220  aa  060 060 061 060         	aci	"001000",6
    000221  aa  060 060 000 000
    000222  aa   140000 000000          	vfd	o18/rp+hlt
    000223  aa  104 145 166 151         	aci	"Device fault",32
    000224  aa  143 145 040 146
    000225  aa  141 165 154 164
    000226  aa  040 040 040 040
    000227  aa  040 040 040 040
    000230  aa  040 040 040 040
    000231  aa  040 040 040 040
    000232  aa  040 040 040 040

                                    53  	substat_entry	3,010000,rp+hlt,(Device in standby)
                        000004          	set	lm3,lm3+1
    000233  aa  060 061 060 060         	aci	"010000",6
    000234  aa  060 060 000 000
    000235  aa   140000 000000          	vfd	o18/rp+hlt
    000236  aa  104 145 166 151         	aci	"Device in standby",32
    000237  aa  143 145 040 151
    000240  aa  156 040 163 164
    000241  aa  141 156 144 142
    000242  aa  171 040 040 040
    000243  aa  040 040 040 040
    000244  aa  040 040 040 040
    000245  aa  040 040 040 040

                                    54  	substat_entry	3,100000,rp+hlt,(Device offline)
                        000005          	set	lm3,lm3+1
    000246  aa  061 060 060 060         	aci	"100000",6
    000247  aa  060 060 000 000
    000250  aa   140000 000000          	vfd	o18/rp+hlt
    000251  aa  104 145 166 151         	aci	"Device offline",32
    000252  aa  143 145 040 157
    000253  aa  146 146 154 151
    000254  aa  156 145 040 040
    000255  aa  040 040 040 040
    000256  aa  040 040 040 040
    000257  aa  040 040 040 040
    000260  aa  040 040 040 040

                                    55
                                    56  " 
                                    57
                                    58  	status_entry	4,(Device Data Alert)

    000261  aa  104 145 166 151         m4:	aci	"Device Data Alert",24
    000262  aa  143 145 040 104
    000263  aa  141 164 141 040
    000264  aa  101 154 145 162
    000265  aa  164 040 040 040
    000266  aa  040 040 040 040

                                    59
                                    60  	substat_entry	4,000001,bk+rp,(Transfer timing alert)
                        000001          	set	lm4,lm4+1
    000267  aa  060 060 060 060         	aci	"000001",6
    000270  aa  060 061 000 000
    000271  aa   500000 000000          	vfd	o18/bk+rp
    000272  aa  124 162 141 156         	aci	"Transfer timing alert",32
    000273  aa  163 146 145 162
    000274  aa  040 164 151 155
    000275  aa  151 156 147 040
    000276  aa  141 154 145 162
    000277  aa  164 040 040 040
    000300  aa  040 040 040 040
    000301  aa  040 040 040 040

                                    61  	substat_entry	4,000010,bk+rp,(Transmission parity alert)
                        000002          	set	lm4,lm4+1
    000302  aa  060 060 060 060         	aci	"000010",6
    000303  aa  061 060 000 000
    000304  aa   500000 000000          	vfd	o18/bk+rp
    000305  aa  124 162 141 156         	aci	"Transmission parity alert",32
    000306  aa  163 155 151 163
    000307  aa  163 151 157 156
    000310  aa  040 160 141 162
    000311  aa  151 164 171 040
    000312  aa  141 154 145 162
    000313  aa  164 040 040 040
    000314  aa  040 040 040 040

                                    62  	substat_entry	4,000100,rp+hlt,(Invalid seek address)
                        000003          	set	lm4,lm4+1
    000315  aa  060 060 060 061         	aci	"000100",6
    000316  aa  060 060 000 000
    000317  aa   140000 000000          	vfd	o18/rp+hlt
    000320  aa  111 156 166 141         	aci	"Invalid seek address",32
    000321  aa  154 151 144 040
    000322  aa  163 145 145 153
    000323  aa  040 141 144 144
    000324  aa  162 145 163 163
    000325  aa  040 040 040 040
    000326  aa  040 040 040 040
    000327  aa  040 040 040 040

                                    63  	substat_entry	4,0X1000,bk+rp,(Header verification failure)
                        000004          	set	lm4,lm4+1
    000330  aa  060 130 061 060         	aci	"0X1000",6
    000331  aa  060 060 000 000
    000332  aa   500000 000000          	vfd	o18/bk+rp
    000333  aa  110 145 141 144         	aci	"Header verification failure",32
    000334  aa  145 162 040 166
    000335  aa  145 162 151 146
    000336  aa  151 143 141 164
    000337  aa  151 157 156 040
    000340  aa  146 141 151 154
    000341  aa  165 162 145 040
    000342  aa  040 040 040 040

                                    64  	substat_entry	4,X1X000,bk+rp,(Check character alert)
                        000005          	set	lm4,lm4+1
    000343  aa  130 061 130 060         	aci	"X1X000",6
    000344  aa  060 060 000 000
    000345  aa   500000 000000          	vfd	o18/bk+rp
    000346  aa  103 150 145 143         	aci	"Check character alert",32
    000347  aa  153 040 143 150
    000350  aa  141 162 141 143
    000351  aa  164 145 162 040
    000352  aa  141 154 145 162
    000353  aa  164 040 040 040
    000354  aa  040 040 040 040
    000355  aa  040 040 040 040

                                    65  	substat_entry	4,1X0000,bk+rp,(Compare alert)
                        000006          	set	lm4,lm4+1
    000356  aa  061 130 060 060         	aci	"1X0000",6
    000357  aa  060 060 000 000
    000360  aa   500000 000000          	vfd	o18/bk+rp
    000361  aa  103 157 155 160         	aci	"Compare alert",32
    000362  aa  141 162 145 040
    000363  aa  141 154 145 162
    000364  aa  164 040 040 040
    000365  aa  040 040 040 040
    000366  aa  040 040 040 040
    000367  aa  040 040 040 040
    000370  aa  040 040 040 040

                                    66
                                    67  " 
                                    68
                                    69  	status_entry	5,(End of File)

    000371  aa  105 156 144 040         m5:	aci	"End of File",24
    000372  aa  157 146 040 106
    000373  aa  151 154 145 040
    000374  aa  040 040 040 040
    000375  aa  040 040 040 040
    000376  aa  040 040 040 040

                                    70
                                    71  	substat_entry	5,000000,bk+rp,(Good track detected)
                        000001          	set	lm5,lm5+1
    000377  aa  060 060 060 060         	aci	"000000",6
    000400  aa  060 060 000 000
    000401  aa   500000 000000          	vfd	o18/bk+rp
    000402  aa  107 157 157 144         	aci	"Good track detected",32
    000403  aa  040 164 162 141
    000404  aa  143 153 040 144
    000405  aa  145 164 145 143
    000406  aa  164 145 144 040
    000407  aa  040 040 040 040
    000410  aa  040 040 040 040
    000411  aa  040 040 040 040

                                    72  	substat_entry	5,0000X1,bk+rp,(Last consecutive block)
                        000002          	set	lm5,lm5+1
    000412  aa  060 060 060 060         	aci	"0000X1",6
    000413  aa  130 061 000 000
    000414  aa   500000 000000          	vfd	o18/bk+rp
    000415  aa  114 141 163 164         	aci	"Last consecutive block",32
    000416  aa  040 143 157 156
    000417  aa  163 145 143 165
    000420  aa  164 151 166 145
    000421  aa  040 142 154 157
    000422  aa  143 153 040 040
    000423  aa  040 040 040 040
    000424  aa  040 040 040 040

                                    73  	substat_entry	5,00001X,bk+rp,(Sector count limit exceeded)
                        000003          	set	lm5,lm5+1
    000425  aa  060 060 060 060         	aci	"00001X",6
    000426  aa  061 130 000 000
    000427  aa   500000 000000          	vfd	o18/bk+rp
    000430  aa  123 145 143 164         	aci	"Sector count limit exceeded",32
    000431  aa  157 162 040 143
    000432  aa  157 165 156 164
    000433  aa  040 154 151 155
    000434  aa  151 164 040 145
    000435  aa  170 143 145 145
    000436  aa  144 145 144 040
    000437  aa  040 040 040 040

                                    74  	substat_entry	5,000100,rp,(Defective trk-alternate assnd)
                        000004          	set	lm5,lm5+1
    000440  aa  060 060 060 061         	aci	"000100",6
    000441  aa  060 060 000 000
    000442  aa   100000 000000          	vfd	o18/rp
    000443  aa  104 145 146 145         	aci	"Defective trk-alternate assnd",32
    000444  aa  143 164 151 166
    000445  aa  145 040 164 162
    000446  aa  153 055 141 154
    000447  aa  164 145 162 156
    000450  aa  141 164 145 040
    000451  aa  141 163 163 156
    000452  aa  144 040 040 040

                                    75  	substat_entry	5,001000,rp,(Defective trk-no alternate assnd)
                        000005          	set	lm5,lm5+1
    000453  aa  060 060 061 060         	aci	"001000",6
    000454  aa  060 060 000 000
    000455  aa   100000 000000          	vfd	o18/rp
    000456  aa  104 145 146 145         	aci	"Defective trk-no alternate assnd",32
    000457  aa  143 164 151 166
    000460  aa  145 040 164 162
    000461  aa  153 055 156 157
    000462  aa  040 141 154 164
    000463  aa  145 162 156 141
    000464  aa  164 145 040 141
    000465  aa  163 163 156 144

                                    76  	substat_entry	5,010000,rp,(Alternate track detected)
                        000006          	set	lm5,lm5+1
    000466  aa  060 061 060 060         	aci	"010000",6
    000467  aa  060 060 000 000
    000470  aa   100000 000000          	vfd	o18/rp
    000471  aa  101 154 164 145         	aci	"Alternate track detected",32
    000472  aa  162 156 141 164
    000473  aa  145 040 164 162
    000474  aa  141 143 153 040
    000475  aa  144 145 164 145
    000476  aa  143 164 145 144
    000477  aa  040 040 040 040
    000500  aa  040 040 040 040

                                    77
                                    78  " 
                                    79
                                    80  	status_entry	6,(Command Reject)

    000501  aa  103 157 155 155         m6:	aci	"Command Reject",24
    000502  aa  141 156 144 040
    000503  aa  122 145 152 145
    000504  aa  143 164 040 040
    000505  aa  040 040 040 040
    000506  aa  040 040 040 040

                                    81
                                    82  	substat_entry	6,000001,rp+hlt,(Invalid operation code)
                        000001          	set	lm6,lm6+1
    000507  aa  060 060 060 060         	aci	"000001",6
    000510  aa  060 061 000 000
    000511  aa   140000 000000          	vfd	o18/rp+hlt
    000512  aa  111 156 166 141         	aci	"Invalid operation code",32
    000513  aa  154 151 144 040
    000514  aa  157 160 145 162
    000515  aa  141 164 151 157
    000516  aa  156 040 143 157
    000517  aa  144 145 040 040
    000520  aa  040 040 040 040
    000521  aa  040 040 040 040

                                    83  	substat_entry	6,000010,rp+hlt,(Invalid device code)
                        000002          	set	lm6,lm6+1
    000522  aa  060 060 060 060         	aci	"000010",6
    000523  aa  061 060 000 000
    000524  aa   140000 000000          	vfd	o18/rp+hlt
    000525  aa  111 156 166 141         	aci	"Invalid device code",32
    000526  aa  154 151 144 040
    000527  aa  144 145 166 151
    000530  aa  143 145 040 143
    000531  aa  157 144 145 040
    000532  aa  040 040 040 040
    000533  aa  040 040 040 040
    000534  aa  040 040 040 040

                                    84  	substat_entry	6,000100,rp+hlt,(IDCW parity error)
                        000003          	set	lm6,lm6+1
    000535  aa  060 060 060 061         	aci	"000100",6
    000536  aa  060 060 000 000
    000537  aa   140000 000000          	vfd	o18/rp+hlt
    000540  aa  111 104 103 127         	aci	"IDCW parity error",32
    000541  aa  040 160 141 162
    000542  aa  151 164 171 040
    000543  aa  145 162 162 157
    000544  aa  162 040 040 040
    000545  aa  040 040 040 040
    000546  aa  040 040 040 040
    000547  aa  040 040 040 040

                                    85  	substat_entry	6,001000,rp+hlt,(Invalid instruction sequence)
                        000004          	set	lm6,lm6+1
    000550  aa  060 060 061 060         	aci	"001000",6
    000551  aa  060 060 000 000
    000552  aa   140000 000000          	vfd	o18/rp+hlt
    000553  aa  111 156 166 141         	aci	"Invalid instruction sequence",32
    000554  aa  154 151 144 040
    000555  aa  151 156 163 164
    000556  aa  162 165 143 164
    000557  aa  151 157 156 040
    000560  aa  163 145 161 165
    000561  aa  145 156 143 145
    000562  aa  040 040 040 040

                                    86
                                    87  " 
                                    88
                                    89  	status_entry	9,(Channel busy)

    000563  aa  103 150 141 156         m9:	aci	"Channel busy",24
    000564  aa  156 145 154 040
    000565  aa  142 165 163 171
    000566  aa  040 040 040 040
    000567  aa  040 040 040 040
    000570  aa  040 040 040 040

                                    90
                                    91
                                    92  " 
                                    93
                                    94  	status_entry	11,(MPC Attention)

    000571  aa  115 120 103 040         m11:	aci	"MPC Attention",24
    000572  aa  101 164 164 145
    000573  aa  156 164 151 157
    000574  aa  156 040 040 040
    000575  aa  040 040 040 040
    000576  aa  040 040 040 040

                                    95
                                    96  	substat_entry	11,000001,rp+hlt,(Configuration switch error)
                        000001          	set	lm11,lm11+1
    000577  aa  060 060 060 060         	aci	"000001",6
    000600  aa  060 061 000 000
    000601  aa   140000 000000          	vfd	o18/rp+hlt
    000602  aa  103 157 156 146         	aci	"Configuration switch error",32
    000603  aa  151 147 165 162
    000604  aa  141 164 151 157
    000605  aa  156 040 163 167
    000606  aa  151 164 143 150
    000607  aa  040 145 162 162
    000610  aa  157 162 040 040
    000611  aa  040 040 040 040

                                    97  	substat_entry	11,000010,rp+hlt,(Multiple devices)
                        000002          	set	lm11,lm11+1
    000612  aa  060 060 060 060         	aci	"000010",6
    000613  aa  061 060 000 000
    000614  aa   140000 000000          	vfd	o18/rp+hlt
    000615  aa  115 165 154 164         	aci	"Multiple devices",32
    000616  aa  151 160 154 145
    000617  aa  040 144 145 166
    000620  aa  151 143 145 163
    000621  aa  040 040 040 040
    000622  aa  040 040 040 040
    000623  aa  040 040 040 040
    000624  aa  040 040 040 040

                                    98  	substat_entry	11,000011,bk+rp,(Illegal device number)
                        000003          	set	lm11,lm11+1
    000625  aa  060 060 060 060         	aci	"000011",6
    000626  aa  061 061 000 000
    000627  aa   500000 000000          	vfd	o18/bk+rp
    000630  aa  111 154 154 145         	aci	"Illegal device number",32
    000631  aa  147 141 154 040
    000632  aa  144 145 166 151
    000633  aa  143 145 040 156
    000634  aa  165 155 142 145
    000635  aa  162 040 040 040
    000636  aa  040 040 040 040
    000637  aa  040 040 040 040

                                    99  	substat_entry	11,001011,rp+hlt,(CA error or OPI down)
                        000004          	set	lm11,lm11+1
    000640  aa  060 060 061 060         	aci	"001011",6
    000641  aa  061 061 000 000
    000642  aa   140000 000000          	vfd	o18/rp+hlt
    000643  aa  103 101 040 145         	aci	"CA error or OPI down",32
    000644  aa  162 162 157 162
    000645  aa  040 157 162 040
    000646  aa  117 120 111 040
    000647  aa  144 157 167 156
    000650  aa  040 040 040 040
    000651  aa  040 040 040 040
    000652  aa  040 040 040 040

                                   100  	substat_entry	11,001100,rp+hlt,(Unexpected EN1 interrupt)
                        000005          	set	lm11,lm11+1
    000653  aa  060 060 061 061         	aci	"001100",6
    000654  aa  060 060 000 000
    000655  aa   140000 000000          	vfd	o18/rp+hlt
    000656  aa  125 156 145 170         	aci	"Unexpected EN1 interrupt",32
    000657  aa  160 145 143 164
    000660  aa  145 144 040 105
    000661  aa  116 061 040 151
    000662  aa  156 164 145 162
    000663  aa  162 165 160 164
    000664  aa  040 040 040 040
    000665  aa  040 040 040 040

                                   101  	substat_entry	11,001101,rp+hlt,(CA EN1 error)
                        000006          	set	lm11,lm11+1
    000666  aa  060 060 061 061         	aci	"001101",6
    000667  aa  060 061 000 000
    000670  aa   140000 000000          	vfd	o18/rp+hlt
    000671  aa  103 101 040 105         	aci	"CA EN1 error",32
    000672  aa  116 061 040 145
    000673  aa  162 162 157 162
    000674  aa  040 040 040 040
    000675  aa  040 040 040 040
    000676  aa  040 040 040 040
    000677  aa  040 040 040 040
    000700  aa  040 040 040 040

                                   102  	substat_entry	11,001110,rp+hlt,(CA alert (no EN1))
                        000007          	set	lm11,lm11+1
    000701  aa  060 060 061 061         	aci	"001110",6
    000702  aa  061 060 000 000
    000703  aa   140000 000000          	vfd	o18/rp+hlt
    000704  aa  103 101 040 141         	aci	"CA alert (no EN1)",32
    000705  aa  154 145 162 164
    000706  aa  040 050 156 157
    000707  aa  040 105 116 061
    000710  aa  051 040 040 040
    000711  aa  040 040 040 040
    000712  aa  040 040 040 040
    000713  aa  040 040 040 040

                                   103
                                   104  " 
                                   105
                                   106  	status_entry	12,(MPC Data Alert)

    000714  aa  115 120 103 040         m12:	aci	"MPC Data Alert",24
    000715  aa  104 141 164 141
    000716  aa  040 101 154 145
    000717  aa  162 164 040 040
    000720  aa  040 040 040 040
    000721  aa  040 040 040 040

                                   107
                                   108  	substat_entry	12,000001,bk+rp,(Transmission parity alert)
                        000001          	set	lm12,lm12+1
    000722  aa  060 060 060 060         	aci	"000001",6
    000723  aa  060 061 000 000
    000724  aa   500000 000000          	vfd	o18/bk+rp
    000725  aa  124 162 141 156         	aci	"Transmission parity alert",32
    000726  aa  163 155 151 163
    000727  aa  163 151 157 156
    000730  aa  040 160 141 162
    000731  aa  151 164 171 040
    000732  aa  141 154 145 162
    000733  aa  164 040 040 040
    000734  aa  040 040 040 040

                                   109  	substat_entry	12,000010,bk+rp,(Inconsistent command)
                        000002          	set	lm12,lm12+1
    000735  aa  060 060 060 060         	aci	"000010",6
    000736  aa  061 060 000 000
    000737  aa   500000 000000          	vfd	o18/bk+rp
    000740  aa  111 156 143 157         	aci	"Inconsistent command",32
    000741  aa  156 163 151 163
    000742  aa  164 145 156 164
    000743  aa  040 143 157 155
    000744  aa  155 141 156 144
    000745  aa  040 040 040 040
    000746  aa  040 040 040 040
    000747  aa  040 040 040 040

                                   110  	substat_entry	12,000011,bk+rp,(Sum check error)
                        000003          	set	lm12,lm12+1
    000750  aa  060 060 060 060         	aci	"000011",6
    000751  aa  061 061 000 000
    000752  aa   500000 000000          	vfd	o18/bk+rp
    000753  aa  123 165 155 040         	aci	"Sum check error",32
    000754  aa  143 150 145 143
    000755  aa  153 040 145 162
    000756  aa  162 157 162 040
    000757  aa  040 040 040 040
    000760  aa  040 040 040 040
    000761  aa  040 040 040 040
    000762  aa  040 040 040 040

                                   111  	substat_entry	12,000100,bk+rp,(Byte locked out)
                        000004          	set	lm12,lm12+1
    000763  aa  060 060 060 061         	aci	"000100",6
    000764  aa  060 060 000 000
    000765  aa   500000 000000          	vfd	o18/bk+rp
    000766  aa  102 171 164 145         	aci	"Byte locked out",32
    000767  aa  040 154 157 143
    000770  aa  153 145 144 040
    000771  aa  157 165 164 040
    000772  aa  040 040 040 040
    000773  aa  040 040 040 040
    000774  aa  040 040 040 040
    000775  aa  040 040 040 040

                                   112  	substat_entry	12,001000,bk+rp,(Buffer parity)
                        000005          	set	lm12,lm12+1
    000776  aa  060 060 061 060         	aci	"001000",6
    000777  aa  060 060 000 000
    001000  aa   500000 000000          	vfd	o18/bk+rp
    001001  aa  102 165 146 146         	aci	"Buffer parity",32
    001002  aa  145 162 040 160
    001003  aa  141 162 151 164
    001004  aa  171 040 040 040
    001005  aa  040 040 040 040
    001006  aa  040 040 040 040
    001007  aa  040 040 040 040
    001010  aa  040 040 040 040

                                   113  	substat_entry	12,001001,bk+rp,(Aux cycle code error (CRC))
                        000006          	set	lm12,lm12+1
    001011  aa  060 060 061 060         	aci	"001001",6
    001012  aa  060 061 000 000
    001013  aa   500000 000000          	vfd	o18/bk+rp
    001014  aa  101 165 170 040         	aci	"Aux cycle code error (CRC)",32
    001015  aa  143 171 143 154
    001016  aa  145 040 143 157
    001017  aa  144 145 040 145
    001020  aa  162 162 157 162
    001021  aa  040 050 103 122
    001022  aa  103 051 040 040
    001023  aa  040 040 040 040

                                   114  	substat_entry	12,001010,bk+rp,(Count field uncorrectable)
                        000007          	set	lm12,lm12+1
    001024  aa  060 060 061 060         	aci	"001010",6
    001025  aa  061 060 000 000
    001026  aa   500000 000000          	vfd	o18/bk+rp
    001027  aa  103 157 165 156         	aci	"Count field uncorrectable",32
    001030  aa  164 040 146 151
    001031  aa  145 154 144 040
    001032  aa  165 156 143 157
    001033  aa  162 162 145 143
    001034  aa  164 141 142 154
    001035  aa  145 040 040 040
    001036  aa  040 040 040 040

                                   115  	substat_entry	12,001110,bk+rp,(EDAC parity error)
                        000010          	set	lm12,lm12+1
    001037  aa  060 060 061 061         	aci	"001110",6
    001040  aa  061 060 000 000
    001041  aa   500000 000000          	vfd	o18/bk+rp
    001042  aa  105 104 101 103         	aci	"EDAC parity error",32
    001043  aa  040 160 141 162
    001044  aa  151 164 171 040
    001045  aa  145 162 162 157
    001046  aa  162 040 040 040
    001047  aa  040 040 040 040
    001050  aa  040 040 040 040
    001051  aa  040 040 040 040

                                   116  	substat_entry	12,010001,bk+rp,(Sector size error)
                        000011          	set	lm12,lm12+1
    001052  aa  060 061 060 060         	aci	"010001",6
    001053  aa  060 061 000 000
    001054  aa   500000 000000          	vfd	o18/bk+rp
    001055  aa  123 145 143 164         	aci	"Sector size error",32
    001056  aa  157 162 040 163
    001057  aa  151 172 145 040
    001060  aa  145 162 162 157
    001061  aa  162 040 040 040
    001062  aa  040 040 040 040
    001063  aa  040 040 040 040
    001064  aa  040 040 040 040

                                   117  	substat_entry	12,010010,rp+hlt,(Nonstandard sector size)
                        000012          	set	lm12,lm12+1
    001065  aa  060 061 060 060         	aci	"010010",6
    001066  aa  061 060 000 000
    001067  aa   140000 000000          	vfd	o18/rp+hlt
    001070  aa  116 157 156 163         	aci	"Nonstandard sector size",32
    001071  aa  164 141 156 144
    001072  aa  141 162 144 040
    001073  aa  163 145 143 164
    001074  aa  157 162 040 163
    001075  aa  151 172 145 040
    001076  aa  040 040 040 040
    001077  aa  040 040 040 040

                                   118  	substat_entry	12,010011,rp+hlt,(Search alert (first search))
                        000013          	set	lm12,lm12+1
    001100  aa  060 061 060 060         	aci	"010011",6
    001101  aa  061 061 000 000
    001102  aa   140000 000000          	vfd	o18/rp+hlt
    001103  aa  123 145 141 162         	aci	"Search alert (first search)",32
    001104  aa  143 150 040 141
    001105  aa  154 145 162 164
    001106  aa  040 050 146 151
    001107  aa  162 163 164 040
    001110  aa  163 145 141 162
    001111  aa  143 150 051 040
    001112  aa  040 040 040 040

                                   119  	substat_entry	12,010100,rp+hlt,(Cyclic code error)
                        000014          	set	lm12,lm12+1
    001113  aa  060 061 060 061         	aci	"010100",6
    001114  aa  060 060 000 000
    001115  aa   140000 000000          	vfd	o18/rp+hlt
    001116  aa  103 171 143 154         	aci	"Cyclic code error",32
    001117  aa  151 143 040 143
    001120  aa  157 144 145 040
    001121  aa  145 162 162 157
    001122  aa  162 040 040 040
    001123  aa  040 040 040 040
    001124  aa  040 040 040 040
    001125  aa  040 040 040 040

                                   120  	substat_entry	12,010101,rp+hlt,(Search error (not first search))
                        000015          	set	lm12,lm12+1
    001126  aa  060 061 060 061         	aci	"010101",6
    001127  aa  060 061 000 000
    001130  aa   140000 000000          	vfd	o18/rp+hlt
    001131  aa  123 145 141 162         	aci	"Search error (not first search)",32
    001132  aa  143 150 040 145
    001133  aa  162 162 157 162
    001134  aa  040 050 156 157
    001135  aa  164 040 146 151
    001136  aa  162 163 164 040
    001137  aa  163 145 141 162
    001140  aa  143 150 051 040

                                   121  	substat_entry	12,010110,rp+hlt,(Sync byte not HEX19)
                        000016          	set	lm12,lm12+1
    001141  aa  060 061 060 061         	aci	"010110",6
    001142  aa  061 060 000 000
    001143  aa   140000 000000          	vfd	o18/rp+hlt
    001144  aa  123 171 156 143         	aci	"Sync byte not HEX19",32
    001145  aa  040 142 171 164
    001146  aa  145 040 156 157
    001147  aa  164 040 110 105
    001150  aa  130 061 071 040
    001151  aa  040 040 040 040
    001152  aa  040 040 040 040
    001153  aa  040 040 040 040

                                   122  	substat_entry	12,010111,rp+hlt,(Error in alternate track)
                        000017          	set	lm12,lm12+1
    001154  aa  060 061 060 061         	aci	"010111",6
    001155  aa  061 061 000 000
    001156  aa   140000 000000          	vfd	o18/rp+hlt
    001157  aa  105 162 162 157         	aci	"Error in alternate track",32
    001160  aa  162 040 151 156
    001161  aa  040 141 154 164
    001162  aa  145 162 156 141
    001163  aa  164 145 040 164
    001164  aa  162 141 143 153
    001165  aa  040 040 040 040
    001166  aa  040 040 040 040

                                   123  	substat_entry	12,011001,rp,(EDAC correction - last sector)
                        000020          	set	lm12,lm12+1
    001167  aa  060 061 061 060         	aci	"011001",6
    001170  aa  060 061 000 000
    001171  aa   100000 000000          	vfd	o18/rp
    001172  aa  105 104 101 103         	aci	"EDAC correction - last sector",32
    001173  aa  040 143 157 162
    001174  aa  162 145 143 164
    001175  aa  151 157 156 040
    001176  aa  055 040 154 141
    001177  aa  163 164 040 163
    001200  aa  145 143 164 157
    001201  aa  162 040 040 040

                                   124  	substat_entry	12,011010,rp,(EDAC corr. - not last sector)
                        000021          	set	lm12,lm12+1
    001202  aa  060 061 061 060         	aci	"011010",6
    001203  aa  061 060 000 000
    001204  aa   100000 000000          	vfd	o18/rp
    001205  aa  105 104 101 103         	aci	"EDAC corr. - not last sector",32
    001206  aa  040 143 157 162
    001207  aa  162 056 040 055
    001210  aa  040 156 157 164
    001211  aa  040 154 141 163
    001212  aa  164 040 163 145
    001213  aa  143 164 157 162
    001214  aa  040 040 040 040

                                   125  	substat_entry	12,011011,rp,(EDAC corr. - block count limit)
                        000022          	set	lm12,lm12+1
    001215  aa  060 061 061 060         	aci	"011011",6
    001216  aa  061 061 000 000
    001217  aa   100000 000000          	vfd	o18/rp
    001220  aa  105 104 101 103         	aci	"EDAC corr. - block count limit",32
    001221  aa  040 143 157 162
    001222  aa  162 056 040 055
    001223  aa  040 142 154 157
    001224  aa  143 153 040 143
    001225  aa  157 165 156 164
    001226  aa  040 154 151 155
    001227  aa  151 164 040 040

                                   126  	substat_entry	12,011100,rp,(Uncorrectable EDAC error)
                        000023          	set	lm12,lm12+1
    001230  aa  060 061 061 061         	aci	"011100",6
    001231  aa  060 060 000 000
    001232  aa   100000 000000          	vfd	o18/rp
    001233  aa  125 156 143 157         	aci	"Uncorrectable EDAC error",32
    001234  aa  162 162 145 143
    001235  aa  164 141 142 154
    001236  aa  145 040 105 104
    001237  aa  101 103 040 145
    001240  aa  162 162 157 162
    001241  aa  040 040 040 040
    001242  aa  040 040 040 040

                                   127  	substat_entry	12,011101,rp,(EDAC corr. - short block)
                        000024          	set	lm12,lm12+1
    001243  aa  060 061 061 061         	aci	"011101",6
    001244  aa  060 061 000 000
    001245  aa   100000 000000          	vfd	o18/rp
    001246  aa  105 104 101 103         	aci	"EDAC corr. - short block",32
    001247  aa  040 143 157 162
    001250  aa  162 056 040 055
    001251  aa  040 163 150 157
    001252  aa  162 164 040 142
    001253  aa  154 157 143 153
    001254  aa  040 040 040 040
    001255  aa  040 040 040 040

                                   128  	substat_entry	12,100001,rp+hlt,(Write buffer parity)
                        000025          	set	lm12,lm12+1
    001256  aa  061 060 060 060         	aci	"100001",6
    001257  aa  060 061 000 000
    001260  aa   140000 000000          	vfd	o18/rp+hlt
    001261  aa  127 162 151 164         	aci	"Write buffer parity",32
    001262  aa  145 040 142 165
    001263  aa  146 146 145 162
    001264  aa  040 160 141 162
    001265  aa  151 164 171 040
    001266  aa  040 040 040 040
    001267  aa  040 040 040 040
    001270  aa  040 040 040 040

                                   129  	substat_entry	12,100010,bk+rp,(Uncorrectable read)
                        000026          	set	lm12,lm12+1
    001271  aa  061 060 060 060         	aci	"100010",6
    001272  aa  061 060 000 000
    001273  aa   500000 000000          	vfd	o18/bk+rp
    001274  aa  125 156 143 157         	aci	"Uncorrectable read",32
    001275  aa  162 162 145 143
    001276  aa  164 141 142 154
    001277  aa  145 040 162 145
    001300  aa  141 144 040 040
    001301  aa  040 040 040 040
    001302  aa  040 040 040 040
    001303  aa  040 040 040 040

                                   130  " 
                                   131
                                   132  	status_entry	14,(MPC Command Reject)

    001304  aa  115 120 103 040         m14:	aci	"MPC Command Reject",24
    001305  aa  103 157 155 155
    001306  aa  141 156 144 040
    001307  aa  122 145 152 145
    001310  aa  143 164 040 040
    001311  aa  040 040 040 040

                                   133
                                   134  	substat_entry	14,000001,rp+hlt,(Illegal procedure)
                        000001          	set	lm14,lm14+1
    001312  aa  060 060 060 060         	aci	"000001",6
    001313  aa  060 061 000 000
    001314  aa   140000 000000          	vfd	o18/rp+hlt
    001315  aa  111 154 154 145         	aci	"Illegal procedure",32
    001316  aa  147 141 154 040
    001317  aa  160 162 157 143
    001320  aa  145 144 165 162
    001321  aa  145 040 040 040
    001322  aa  040 040 040 040
    001323  aa  040 040 040 040
    001324  aa  040 040 040 040

                                   135  	substat_entry	14,000010,rp+hlt,(Illegal logical channel)
                        000002          	set	lm14,lm14+1
    001325  aa  060 060 060 060         	aci	"000010",6
    001326  aa  061 060 000 000
    001327  aa   140000 000000          	vfd	o18/rp+hlt
    001330  aa  111 154 154 145         	aci	"Illegal logical channel",32
    001331  aa  147 141 154 040
    001332  aa  154 157 147 151
    001333  aa  143 141 154 040
    001334  aa  143 150 141 156
    001335  aa  156 145 154 040
    001336  aa  040 040 040 040
    001337  aa  040 040 040 040

                                   136  	substat_entry	14,000011,rp+hlt,(Illegal suspended logical chnnl)
                        000003          	set	lm14,lm14+1
    001340  aa  060 060 060 060         	aci	"000011",6
    001341  aa  061 061 000 000
    001342  aa   140000 000000          	vfd	o18/rp+hlt
    001343  aa  111 154 154 145         	aci	"Illegal suspended logical chnnl",32
    001344  aa  147 141 154 040
    001345  aa  163 165 163 160
    001346  aa  145 156 144 145
    001347  aa  144 040 154 157
    001350  aa  147 151 143 141
    001351  aa  154 040 143 150
    001352  aa  156 156 154 040

                                   137  	substat_entry	14,000100,rp+hlt,(Continue bit not set)
                        000004          	set	lm14,lm14+1
    001353  aa  060 060 060 061         	aci	"000100",6
    001354  aa  060 060 000 000
    001355  aa   140000 000000          	vfd	o18/rp+hlt
    001356  aa  103 157 156 164         	aci	"Continue bit not set",32
    001357  aa  151 156 165 145
    001360  aa  040 142 151 164
    001361  aa  040 156 157 164
    001362  aa  040 163 145 164
    001363  aa  040 040 040 040
    001364  aa  040 040 040 040
    001365  aa  040 040 040 040

                                   138
                                   139
                                   140
                                   141
                                   142  	end

NO LITERALS

NAME DEFINITIONS FOR ENTRY POINTS AND SEGDEFS

    001366  5a   000003 000000
    001367  5a   000032 600000
    001370  aa   000000 000000
    001371  55   000013 000002
    001372  5a   000002 400003
    001373  55   000006 000013
    001374  aa  022 144 151 163
    001375  aa  153 137 163 164
    001376  aa  141 164 165 163
    001377  aa  137 164 141 142
    001400  aa  154 145 137 000
    001401  55   000023 000003
    001402  0a   000000 400000
    001403  55   000016 000003
    001404  aa  022 144 151 163         disk_status_table_
    001405  aa  153 137 163 164
    001406  aa  141 164 165 163
    001407  aa  137 164 141 142
    001410  aa  154 145 137 000
    001411  55   000002 000013
    001412  6a   000000 400002
    001413  55   000026 000003
    001414  aa  014 163 171 155         symbol_table
    001415  aa  142 157 154 137
    001416  aa  164 141 142 154
    001417  aa  145 000 000 000

DEFINITIONS HASH TABLE

    001420  aa   000000 000015
    001421  aa   000000 000000
    001422  aa   000000 000000
    001423  aa   000000 000000
    001424  aa   000000 000000
    001425  aa   000000 000000
    001426  aa   000000 000000
    001427  5a   000023 000000
    001430  aa   000000 000000
    001431  5a   000013 000000
    001432  aa   000000 000000
    001433  aa   000000 000000
    001434  aa   000000 000000
    001435  aa   000000 000000

NO EXTERNAL NAMES

NO TRAP POINTER WORDS

TYPE PAIR BLOCKS

    001436  aa   000001 000000
    001437  aa   000000 000000

INTERNAL EXPRESSION WORDS

LINKAGE INFORMATION

    000000  aa   000000 000000
    000001  0a   001366 000000
    000002  aa   000000 000000
    000003  aa   000000 000000
    000004  aa   000000 000000
    000005  aa   000000 000000
    000006  22   000010 000010
    000007  a2   000000 000000
SYMBOL INFORMATION

SYMBOL TABLE HEADER

    000000  aa   000000 000001
    000001  aa   163171 155142
    000002  aa   164162 145145
    000003  aa   000000 000004
    000004  aa   000000 112143
    000005  aa   305203 523135
    000006  aa   000000 114342
    000007  aa   761072 062704
    000010  aa   141154 155040
    000011  aa   040040 040040
    000012  aa   000024 000040
    000013  aa   000034 000040
    000014  aa   000044 000100
    000015  aa   000002 000002
    000016  aa   000064 000000
    000017  aa   000000 000212
    000020  aa   000000 000122
    000021  aa   000000 000200
    000022  aa   000203 000122
    000023  aa   000064 000000
    000024  aa   101114 115040
    000025  aa   126145 162163
    000026  aa   151157 156040
    000027  aa   040066 056066
    000030  aa   040040 116157
    000031  aa   166145 155142
    000032  aa   145162 040061
    000033  aa   071070 062040
    000034  aa   107112 157150
    000035  aa   156163 157156
    000036  aa   056123 171163
    000037  aa   115141 151156
    000040  aa   164056 141040
    000041  aa   040040 040040
    000042  aa   040040 040040
    000043  aa   040040 040040
    000044  aa   154151 163164
    000045  aa   040040 040040
    000046  aa   040040 040040
    000047  aa   040040 040040
    000050  aa   040040 040040
    000051  aa   040040 040040
    000052  aa   040040 040040
    000053  aa   040040 040040
    000054  aa   040040 040040
    000055  aa   040040 040040
    000056  aa   040040 040040
    000057  aa   040040 040040
    000060  aa   040040 040040
    000061  aa   040040 040040
    000062  aa   040040 040040
    000063  aa   040040 040040
    000064  aa   000000 000001
    000065  aa   000000 000002
    000066  aa   000076 000051
    000067  aa   143401 021514
    000070  aa   000000 114342
    000071  aa   761073 000000
    000072  aa   000111 000042
    000073  aa   121250 237367
    000074  aa   000000 112131
    000075  aa   265211 400000
    000076  aa   076163 160145          >spec>install>1033>disk_status_table_.alm
    000077  aa   143076 151156
    000100  aa   163164 141154
    000101  aa   154076 061060
    000102  aa   063063 076144
    000103  aa   151163 153137
    000104  aa   163164 141164
    000105  aa   165163 137164
    000106  aa   141142 154145
    000107  aa   137056 141154
    000110  aa   155040 040040
    000111  aa   076154 144144          >ldd>include>status_table.incl.alm
    000112  aa   076151 156143
    000113  aa   154165 144145
    000114  aa   076163 164141
    000115  aa   164165 163137
    000116  aa   164141 142154
    000117  aa   145056 151156
    000120  aa   143154 056141
    000121  aa   154155 040040
               MULTICS ASSEMBLY CROSS REFERENCE LISTING

   Value        Symbol                   Source file   Line number

      400000    bk                       disk_status_table_:        26,   43,   44,   60,   61,   63,   64,   65,   71,   72,
                                                                    73,   98,  108,  109,  110,  111,  112,  113,  114,  115,
                                                                   116,  129.
           0    disk_status_table_       disk_status_table_:        26.
       20000    eurc_nobk                disk_status_table_:        26.
       40000    hlt                      disk_status_table_:        26,   50,   51,   52,   53,   54,   62,   82,   83,   84,
                                                                    85,   96,   97,   99,  100,  101,  102,  117,  118,  119,
                                                                   120,  121,  122,  128,  134,  135,  136,  137.
      200000    in                       disk_status_table_:        26.
           6    lm1                      disk_status_table_:        26,   32,   33,   34,   35,   36,   37.
           7    lm11                     disk_status_table_:        26,   96,   97,   98,   99,  100,  101,  102.
          26    lm12                     disk_status_table_:        26,  108,  109,  110,  111,  112,  113,  114,  115,  116,
                                                                   117,  118,  119,  120,  121,  122,  123,  124,  125,  126,
                                                                   127,  128,  129.
           4    lm14                     disk_status_table_:        26,  134,  135,  136,  137.
           2    lm2                      disk_status_table_:        26,   43,   44.
           5    lm3                      disk_status_table_:        26,   50,   51,   52,   53,   54.
           6    lm4                      disk_status_table_:        26,   60,   61,   62,   63,   64,   65.
           6    lm5                      disk_status_table_:        26,   71,   72,   73,   74,   75,   76.
           4    lm6                      disk_status_table_:        26,   82,   83,   84,   85.
           0    lm9                      disk_status_table_:        26.
          20    m1                       disk_status_table_:        26,   30.
         571    m11                      disk_status_table_:        26,   94.
         714    m12                      disk_status_table_:        26,  106.
        1304    m14                      disk_status_table_:        26,  132.
         130    m2                       disk_status_table_:        26,   41.
         164    m3                       disk_status_table_:        26,   48.
         261    m4                       disk_status_table_:        26,   58.
         371    m5                       disk_status_table_:        26,   69.
         501    m6                       disk_status_table_:        26,   80.
         563    m9                       disk_status_table_:        26,   89.
      100000    rp                       disk_status_table_:        26,   43,   44,   50,   51,   52,   53,   54,   60,   61,
                                                                    62,   63,   64,   65,   71,   72,   73,   74,   75,   76,
                                                                    82,   83,   84,   85,   96,   97,   98,   99,  100,  101,
                                                                   102,  108,  109,  110,  111,  112,  113,  114,  115,  116,
                                                                   117,  118,  119,  120,  121,  122,  123,  124,  125,  126,
                                                                   127,  128,  129,  134,  135,  136,  137.


NO FATAL ERRORS


                                          -----------------------------------------------------------


Historical Background

This edition of the Multics software materials and documentation is provided and donated
to Massachusetts Institute of Technology by Group BULL including BULL HN Information Systems Inc.
as a contribution to computer science knowledge.
This donation is made also to give evidence of the common contributions of Massachusetts Institute of Technology,
Bell Laboratories, General Electric, Honeywell Information Systems Inc., Honeywell BULL Inc., Groupe BULL
and BULL HN Information Systems Inc. to the development of this operating system.
Multics development was initiated by Massachusetts Institute of Technology Project MAC (1963-1970),
renamed the MIT Laboratory for Computer Science and Artificial Intelligence in the mid 1970s, under the leadership
of Professor Fernando Jose Corbato. Users consider that Multics provided the best software architecture
for managing computer hardware properly and for executing programs. Many subsequent operating systems
incorporated Multics principles.
Multics was distributed in 1975 to 2000 by Group Bull in Europe , and in the U.S. by Bull HN Information Systems Inc.,
as successor in interest by change in name only to Honeywell Bull Inc. and Honeywell Information Systems Inc. .

                                          -----------------------------------------------------------

Permission to use, copy, modify, and distribute these programs and their documentation for any purpose and without
fee is hereby granted,provided that the below copyright notice and historical background appear in all copies
and that both the copyright notice and historical background and this permission notice appear in supporting
documentation, and that the names of MIT, HIS, BULL or BULL HN not be used in advertising or publicity pertaining
to distribution of the programs without specific prior written permission.
    Copyright 1972 by Massachusetts Institute of Technology and Honeywell Information Systems Inc.
    Copyright 2006 by BULL HN Information Systems Inc.
    Copyright 2006 by Bull SAS
    All Rights Reserved
