ASSEMBLY LISTING OF SEGMENT >dumps>old>recomp>display_xfer_vector.alm
ASSEMBLED ON:	11/15/82  1753.3 mst Mon
OPTIONS USED:	list
ASSEMBLED BY:	ALM Version  6.4  April 1981
ASSEMBLER CREATED:	11/03/82  1423.6 mst Wed

                                     1  " ***********************************************************
                                     2  " *                                                         *
                                     3  " * Copyright, (C) Honeywell Information Systems Inc., 1982 *
                                     4  " *                                                         *
                                     5  " * Copyright (c) 1972 by Massachusetts Institute of        *
                                     6  " * Technology and Honeywell Information Systems, Inc.      *
                                     7  " *                                                         *
                                     8  " ***********************************************************
                                     9
    000000                          10  	name	display_xfer_vector
                        000000      11  	entry	decode_node_id
    000000                          12  decode_node_id:
    000000  4a  4 00010 7101 20     13  	tra	<lang_util_>|[decode_node_id]
                                    14  	end
ENTRY SEQUENCES

    000001  5a   000013 0000 00
    000002  aa  7 00046 2721 20
    000003  0a   000000 7100 00

NO LITERALS

NAME DEFINITIONS FOR ENTRY POINTS AND SEGDEFS

    000004  5a   000003 000000
    000005  5a   000031 600000
    000006  aa   000000 000000
    000007  55   000013 000002
    000010  5a   000002 400003
    000011  55   000006 000013
    000012  aa  023 144 151 163
    000013  aa  160 154 141 171
    000014  aa  137 170 146 145
    000015  aa  162 137 166 145
    000016  aa  143 164 157 162
    000017  55   000022 000003
    000020  0a   000002 500000
    000021  55   000016 000003
    000022  aa  016 144 145 143         decode_node_id
    000023  aa  157 144 145 137
    000024  aa  156 157 144 145
    000025  aa  137 151 144 000
    000026  55   000002 000013
    000027  6a   000000 400002
    000030  55   000025 000003
    000031  aa  014 163 171 155         symbol_table
    000032  aa  142 157 154 137
    000033  aa  164 141 142 154
    000034  aa  145 000 000 000

DEFINITIONS HASH TABLE

    000035  aa   000000 000015
    000036  aa   000000 000000
    000037  aa   000000 000000
    000040  aa   000000 000000
    000041  aa   000000 000000
    000042  aa   000000 000000
    000043  5a   000013 000000
    000044  5a   000022 000000
    000045  aa   000000 000000
    000046  aa   000000 000000
    000047  aa   000000 000000
    000050  aa   000000 000000
    000051  aa   000000 000000
    000052  aa   000000 000000

EXTERNAL NAMES

    000053  aa  012 154 141 156         lang_util_
    000054  aa  147 137 165 164
    000055  aa  151 154 137 000

NO TRAP POINTER WORDS

TYPE PAIR BLOCKS

    000056  aa   000004 000000
    000057  55   000047 000016
    000060  aa   000001 000000
    000061  aa   000000 000000

INTERNAL EXPRESSION WORDS

    000062  5a   000052 000000
    000063  aa   000000 000000
LINKAGE INFORMATION

    000000  aa   000000 000000
    000001  0a   000004 000000
    000002  aa   000000 000000
    000003  aa   000000 000000
    000004  aa   000000 000000
    000005  aa   000000 000000
    000006  22   000010 000012
    000007  a2   000000 000000
    000010  9a   777770 0000 46         lang_util_|decode_node_id
    000011  5a   000056 0000 00
SYMBOL INFORMATION

SYMBOL TABLE HEADER

    000000  aa   000000 000001
    000001  aa   163171 155142
    000002  aa   164162 145145
    000003  aa   000000 000004
    000004  aa   000000 111316
    000005  aa   510113 575622
    000006  aa   000000 111335
    000007  aa   722514 037667
    000010  aa   141154 155040
    000011  aa   040040 040040
    000012  aa   000024 000040
    000013  aa   000034 000040
    000014  aa   000044 000100
    000015  aa   000002 000002
    000016  aa   000064 000000
    000017  aa   000000 000122
    000020  aa   000000 000105
    000021  aa   000000 000110
    000022  aa   000114 000105
    000023  aa   000064 000000
    000024  aa   101114 115040
    000025  aa   126145 162163
    000026  aa   151157 156040
    000027  aa   040066 056064
    000030  aa   040040 101160
    000031  aa   162151 154040
    000032  aa   061071 070061
    000033  aa   040040 040040
    000034  aa   110157 154155
    000035  aa   163164 145144
    000036  aa   164056 123171
    000037  aa   163115 141151
    000040  aa   156164 056155
    000041  aa   040040 040040
    000042  aa   040040 040040
    000043  aa   040040 040040
    000044  aa   154151 163164
    000045  aa   040040 040040
    000046  aa   040040 040040
    000047  aa   040040 040040
    000050  aa   040040 040040
    000051  aa   040040 040040
    000052  aa   040040 040040
    000053  aa   040040 040040
    000054  aa   040040 040040
    000055  aa   040040 040040
    000056  aa   040040 040040
    000057  aa   040040 040040
    000060  aa   040040 040040
    000061  aa   040040 040040
    000062  aa   040040 040040
    000063  aa   040040 040040
    000064  aa   000000 000001
    000065  aa   000000 000001
    000066  aa   000072 000051
    000067  aa   113331 136412
    000070  aa   000000 111335
    000071  aa   624033 200000
    000072  aa   076144 165155          >dumps>old>recomp>display_xfer_vector.alm
    000073  aa   160163 076157
    000074  aa   154144 076162
    000075  aa   145143 157155
    000076  aa   160076 144151
    000077  aa   163160 154141
    000100  aa   171137 170146
    000101  aa   145162 137166
    000102  aa   145143 164157
    000103  aa   162056 141154
    000104  aa   155040 040040
               MULTICS ASSEMBLY CROSS REFERENCE LISTING

   Value        Symbol                   Source file   Line number

           0    decode_node_id           display_xfer_vector:       11,   12,   13.
                lang_util_               display_xfer_vector:       13.


NO FATAL ERRORS


                                          -----------------------------------------------------------


Historical Background

This edition of the Multics software materials and documentation is provided and donated
to Massachusetts Institute of Technology by Group BULL including BULL HN Information Systems Inc.
as a contribution to computer science knowledge.
This donation is made also to give evidence of the common contributions of Massachusetts Institute of Technology,
Bell Laboratories, General Electric, Honeywell Information Systems Inc., Honeywell BULL Inc., Groupe BULL
and BULL HN Information Systems Inc. to the development of this operating system.
Multics development was initiated by Massachusetts Institute of Technology Project MAC (1963-1970),
renamed the MIT Laboratory for Computer Science and Artificial Intelligence in the mid 1970s, under the leadership
of Professor Fernando Jose Corbato. Users consider that Multics provided the best software architecture
for managing computer hardware properly and for executing programs. Many subsequent operating systems
incorporated Multics principles.
Multics was distributed in 1975 to 2000 by Group Bull in Europe , and in the U.S. by Bull HN Information Systems Inc.,
as successor in interest by change in name only to Honeywell Bull Inc. and Honeywell Information Systems Inc. .

                                          -----------------------------------------------------------

Permission to use, copy, modify, and distribute these programs and their documentation for any purpose and without
fee is hereby granted,provided that the below copyright notice and historical background appear in all copies
and that both the copyright notice and historical background and this permission notice appear in supporting
documentation, and that the names of MIT, HIS, BULL or BULL HN not be used in advertising or publicity pertaining
to distribution of the programs without specific prior written permission.
    Copyright 1972 by Massachusetts Institute of Technology and Honeywell Information Systems Inc.
    Copyright 2006 by BULL HN Information Systems Inc.
    Copyright 2006 by Bull SAS
    All Rights Reserved
