	COMPILATION LISTING OF SEGMENT expand_mmdam_msg_
	Compiled by: Multics PL/I Compiler, Release 28e, of February 14, 1985
	Compiled at: Honeywell Multics Op. - System M
	Compiled on: 03/13/85  1141.2 mst Wed
	    Options: optimize map

        1 /* ***********************************************************
        2*   *                                                         *
        3*   * Copyright, (C) Honeywell Information Systems Inc., 1984 *
        4*   *                                                         *
        5*   *********************************************************** */
        6
        7 /* format: style4 */
        8
        9 expand_mmdam_msg_:
       10      procedure ();
       11
       12 /* *      EXPAND_MMDAM_MSG_
       13*   *
       14*   *      Expander for memory damage message generated by page_error and hardware_fault.
       15*   *
       16*   *	85-02-21, EJ Sharpe: initial coding
       17**/
       18
       19 declare  P_log_message_format_ptr pointer parameter;
       20 declare  P_log_message_ptr pointer parameter;
       21 declare  P_expand_mode_ptr pointer parameter;
       22 declare  P_expansion char (*) varying parameter;
       23 declare  P_code fixed bin (35) parameter;
       24
       25 declare  temp char (2000) varying;
       26
       27 declare  expand_log_message_$unknown_syserr entry (pointer, pointer, pointer, char (*) varying, fixed bin (35));
       28 declare  expand_log_message_$unknown entry (pointer, pointer, pointer, char (*) varying, fixed bin (35));
       29 declare  ioa_$rsnnl entry options (variable);
       30
       31 declare  (addr, binary, dimension, size) builtin;
       32
       33
       34 expand_mmdam_msg_$format:
       35      entry (P_log_message_format_ptr, P_log_message_ptr, P_expand_mode_ptr, P_expansion, P_code);
       36
       37 	log_message_ptr = P_log_message_ptr;
       38
       39 	mmdam_ptr = addr (log_message.data (1));
       40
       41 	if size (mmdam_msg) = dimension (log_message.data, 1)
       42 	then call expand_mmdam ();
       43 	else call expand_log_message_$unknown
       44 		(P_log_message_format_ptr, log_message_ptr, P_expand_mode_ptr, P_expansion, P_code);
       45
       46 	return;
       47
       48
       49 /* This is a compatibility entrypoint-- it processes an old-format "syserr" class
       50*   message, which has the syserr binary code in the first word of the data. */
       51
       52 expand_mmdam_msg_$syserr:
       53      entry (P_log_message_format_ptr, P_log_message_ptr, P_expand_mode_ptr, P_expansion, P_code);
       54
       55 	log_message_ptr = P_log_message_ptr;
       56
       57 	mmdam_ptr = addr (log_message.data (2));
       58
       59 	if (binary (log_message.data (1)) = SB_mmdam)
       60 	     & (size (mmdam_msg) = dimension (log_message.data, 1) - 1)
       61 	then call expand_mmdam ();
       62 	else call expand_log_message_$unknown_syserr
       63 		(P_log_message_format_ptr, log_message_ptr, P_expand_mode_ptr, P_expansion, P_code);
       64
       65 	return;
       66
       67 expand_mmdam:
       68      procedure ();
       69
       70 	call ioa_$rsnnl ("^/Page at addr: ^oo, controller: ^a.", temp, (0), mmdam_msg.addr, mmdam_msg.ctrltag);
       71
       72 	P_expansion = P_expansion || temp;
       73
       74 	return;
       75      end expand_mmdam;
       76
       77 /* format: off */
       78  /* BEGIN INCLUDE FILE ... log_message.incl.pl1 ... 84-04-25 ... W. Olin Sibert */
  1     2
  1     3 declare 1 log_message_header  aligned based,                /* Items marked "(SET)" are set by $create_message */
  1     4           2 sentinel          bit (36) aligned,             /* Proper value declared in log_segment.incl.pl1 */
  1     5           2 sequence          fixed bin (35),               /* Sequence number for this message (SET) */
  1     6           2 severity          fixed bin (8) unaligned,      /* Severity of message */
  1     7           2 data_class_lth    fixed bin (9) unaligned unsigned, /* Length of data class-- 0 to 16 (SET) */
  1     8           2 time              fixed bin (53) unaligned,     /* Time message originated */
  1     9           2 text_lth          fixed bin (17) unaligned,     /* Length of message text. Must be nonzero (SET) */
  1    10           2 data_lth          fixed bin (17) unaligned,     /* Length of binary data. May be zero (SET) */
  1    11           2 process_id        bit (36) aligned;             /* Process id of process writing message */
  1    12
  1    13 declare 1 log_message         aligned based (log_message_ptr),
  1    14           2 header            aligned like log_message_header,
  1    15           2 text              char (log_message_text_lth         refer (log_message.text_lth)) unaligned,
  1    16           2 data_class        char (log_message_data_class_lth   refer (log_message.data_class_lth)) unaligned,
  1    17           2 data              dim (log_message_data_lth          refer (log_message.data_lth)) bit (36) aligned;
  1    18
  1    19 declare   log_message_ptr pointer;
  1    20 declare   log_message_text_lth fixed bin;
  1    21 declare   log_message_data_class_lth fixed bin;
  1    22 declare   log_message_data_lth fixed bin;
  1    23
  1    24 /* END INCLUDE FILE ... log_message.incl.pl1 */
       78
       79  /* BEGIN INCLUDE FILE ... log_message_format.incl.pl1 ... 84-07-03 ... W. Olin Sibert */
  2     2
  2     3 declare 1 log_message_format            aligned based (log_message_format_ptr),
  2     4           2 caller                      char (32) unaligned, /* Caller name to use when printing error messages */
  2     5           2 line_lth                    fixed bin,          /* Max length of output lines; longer messages are folded */
  2     6           2 indentation                 fixed bin,          /* Number of spaces at beginning of each output line */
  2     7           2 equal_sw                    bit (1) aligned,    /* Whether to suppress messages with identical text */
  2     8           2 error_sw                    bit (1) aligned,    /* Whether to print error messages via com_err_ */
  2     9           2 prefix                      char (40) varying,  /* Prefix for printing messages */
  2    10           2 number_format               char (20) varying,  /* ioa_ format for printing message numbers */
  2    11           2 time_format                 char (40) varying,  /* date_time_$format string for message times */
  2    12           2 date_format                 char (40) varying,  /* date_time_$format string for when date changes */
  2    13           2 continuation_indent	fixed bin,	/* If >= zero, value for continuation lines */
  2    14 						/* Otherwise, lined up under the text by default */
  2    15
  2    16           2 pad (59)                    bit (36) aligned,
  2    17
  2    18 /* ONLY format_log_message_$adjust ever changes the values below */
  2    19
  2    20           2 internal_info               aligned,            /* Internal info, set by $adjust-- DO NOT CHANGE */
  2    21             3 area_ptr                  pointer,            /* Where this structure is allocated */
  2    22             3 date_ioa_string           char (100) varying, /* Format for date breaks,if any */
  2    23             3 message_ioa_string        char (100) varying, /* Format for first lines of messages */
  2    24             3 real_continuation_indent  fixed bin,          /* Indentation for continuation lines */
  2    25             3 prefix_lth                fixed bin,          /* Length of indent + prefix + time + sequence + severity */
  2    26             3 date_modulus              fixed bin (36),     /* Modulus for checking whether dates are equal */
  2    27
  2    28           2 end                         fixed bin;
  2    29
  2    30 declare   log_message_format_ptr pointer;
  2    31
  2    32 /* END INCLUDE FILE ... log_message_format.incl.pl1 */
       79
       80  /* BEGIN INCLUDE FILE .. syserr_binary_def.incl.pl1 */
  3     2
  3     3 /* This include file has an ALM version, keep 'em in sync. */
  3     4
  3     5 /* format: off */
  3     6
  3     7 /* Modified January 1984 by Paul Farley to add an array of entry values
  3     8*   to be examined by display_cpu_error. */
  3     9 /* Modified October 1984 by EJ Sharpe to include SB_audit_message */
  3    10 /* Modified January 1985 by EJ Sharpe for SB_char_data_classes */
  3    11 /* Modified 1985-01-25, BIM: added ring alarm audit support. */
  3    12 /* Modified 1985-02-20, EJ Sharpe: added SB_ibm3270_mde, syserr_binary_(seg vol)damage_class,
  3    13*		also changed some codes to "SB_unused_NN" - see line comments */
  3    14
  3    15 /* In the future, these will be the only constants needed in this include
  3    16*file.  They are the binary data class strings for messages in the new format
  3    17*syserr logs.  The names are all of the form SB_ZZZZZZZ_data_class where
  3    18*ZZZZZZZ is the value of the data class string.  Message expanders are named
  3    19*expand_ZZZZZZZ_msg_ and are referenced by the log perusal tools. */
  3    20
  3    21 dcl (						/* include file name */
  3    22 SB_io_status_data_class	init ("io_status"),		/* io_syserr_msg */
  3    23 SB_hwfault_data_class	init ("hwfault"),		/* syserr_fault_msg */
  3    24 SB_mos_data_class		init ("mos"),		/* scr */
  3    25 SB_segdamage_data_class	init ("segdamage"),		/* segdamage_msg */
  3    26 SB_voldamage_data_class	init ("voldamage"),		/* segdamage_msg (first two words) */
  3    27 SB_mdc_del_uidpath_data_class	init ("mdc_del_uidpath"),	/* none - 16 word UID path */
  3    28 SB_mmdam_data_class		init ("mmdam"),		/* syserr_mmdam_msg */
  3    29 SB_mpc_poll_data_class	init ("mpc_poll"),		/* poll_mpc_data */
  3    30 SB_fnp_poll_data_class	init ("fnp_poll"),		/* poll_fnp_data */
  3    31 SB_config_deck_data_class	init ("config_deck"),	/* config_deck */
  3    32 SB_vtoce_data_class		init ("vtoce"),		/* vtoce */
  3    33 SB_access_audit_data_class	init ("access_audit"),	/* access_audit_bin_header */
  3    34 SB_ibm3270_mde_data_class	init ("ibm3270_mde")	/* ibm3270_mpx_data */
  3    35 ) static internal char (16) varying options (constant);
  3    36
  3    37
  3    38 /************************
  3    39*Once the syserr$binary is replaced with something that takes real data classes
  3    40*and all system modules and tools are upgraded to use the new interface, the
  3    41*rest of this include file may be discarded.
  3    42*************************/
  3    43
  3    44 /* The limit of 36 is arbitrary- there is no reason that it can not be
  3    45*   extended at any time. */
  3    46
  3    47 dcl (
  3    48 SB_disk_err	init (1),		SBL_disk_err	init (5),
  3    49 SB_hw_fault	init (2),		SBL_hw_fault	init (176),
  3    50 SB_io_err		init (3),		SBL_io_err	init (5),
  3    51 SB_unused_4	init (4),		SBL_unused_4	init (1),	/* was "mos_poll" (mos poll time) */
  3    52 SB_mos_err	init (5),		SBL_mos_err	init (2),	/* mos memory error data */
  3    53 SB_unused_6	init (6),		SBL_unused_6	init (1),	/* was "bulk_status" (bulk dcb status) */
  3    54 SB_unused_7	init (7),		SBL_unused_7	init (1), /* was "bulk_csb" (bulk csb status) */
  3    55 SB_unused_8	init (8),		SBL_unused_8	init (3), /* was "free_st_1" */
  3    56 SB_unused_9	init (9),		SBL_unused_9	init (2), /* was "free_st_2" */
  3    57 SB_unused_10	init (10),	SBL_unused_10	init (21), /* was "unpr_add" */
  3    58 SB_zerpag		init (11),	SBL_zerpag	init (20),
  3    59 SB_unused_12	init (12),	SBL_unused_12	init (20), /* was "unpr_add" */
  3    60 SB_vtoc_salv_dam	init (13),	SBL_vtoc_salv_dam	init (20),
  3    61 SB_unused_14	init (14),	SBL_unused_14	init (20), /* was "page_rw_err" */
  3    62 SB_unused_15	init (15),	SBL_unused_15	init (3), /* was "ruad" */
  3    63 SB_random_segdamage	init (16),	SBL_random_segdamage init (20),
  3    64 SB_read_nc	init (17),	SBL_read_nc	init (2),
  3    65 SB_unused_18	init (18),	SBL_unused_18	init (2), /* was "vtoc_err" */
  3    66 SB_mdc_del_uidpath	init (19),	SBL_mdc_del_uidpath	init (16),
  3    67 SB_ocdcm_err	init (20),	SBL_ocdcm_err	init (5),
  3    68 SB_mmdam		init (21),	SBL_mmdam		init (2),
  3    69 SB_verify_lock	init (22),	SBL_verify_lock	init (176),
  3    70 SB_io_err_detail	init (23),	SBL_io_err_detail	init (11),
  3    71 SB_mpc_poll	init (24),	SBL_mpc_poll	init (256) /* max */,
  3    72 SB_fnp_poll	init (25),	SBL_fnp_poll	init (256) /* max */,
  3    73 SB_config_deck	init (26),	SBL_config_deck	init (256) /* 16 cards at 16 words */,
  3    74 SB_vtoce		init (27),	SBL_vtoce		init (192),    /* 1 VTOCE */
  3    75 SB_access_audit	init (28),	SBL_access_audit	init (256), /* max */
  3    76 SB_ibm3270_mde	init (35),	SBL_ibm3270_mde	init (256), /* max */
  3    77 SB_end_of_table	init (36),	SBL_end_of_table	init (1)
  3    78   ) internal static options (constant) fixed bin;
  3    79
  3    80
  3    81 /* The following array is a mapping of the old syserr$binary codes into the
  3    82*new data classes for MR11.  It is primarily used by syserr_copy to translate
  3    83*the binary data codes stored in the wired syserr log (see above) into the data
  3    84*classes needed by the ring-0 paged syserr log which is a new format log.  It
  3    85*is also used by syserr_log_util_ to translate the data classes back into the
  3    86*corresponding binary code (for tools not yet upgraded to deal with the new
  3    87*format log messages). */
  3    88
  3    89 dcl SB_char_data_classes (36) char (16) varying internal static options (constant)
  3    90 	init (	"io_status",		/* 1 */
  3    91 		"hwfault",		/* 2 */
  3    92 		"io_status",		/* 3 */
  3    93 		"unused_4",		/* 4 */
  3    94 		"mos",			/* 5 */
  3    95
  3    96 		"unused_6",		/* 6 */
  3    97 		"unused_7",		/* 7 */
  3    98 		"unused_8",		/* 8 */
  3    99 		"unused_9",		/* 9 */
  3   100 		"unused_10",		/* 10 */
  3   101
  3   102 		"segdamage",		/* 11 */
  3   103 		"unused_12",		/* 12 */
  3   104 		"segdamage",		/* 13 */
  3   105 		"unused_14",		/* 14 */
  3   106 		"unused_15",		/* 15 */
  3   107
  3   108 		"segdamage",		/* 16 */
  3   109 		"voldamage",		/* 17 */
  3   110 		"unused_18",		/* 18 */
  3   111 		"mdc_del_uidpath",		/* 19 */
  3   112 		"io_status",		/* 20 */
  3   113
  3   114 		"mmdam",			/* 21 */
  3   115 		"hwfault",		/* 22 */
  3   116 		"io_status",		/* 23 */
  3   117 		"mpc_poll",		/* 24 */
  3   118 		"fnp_poll",		/* 25 */
  3   119
  3   120 		"config_deck",		/* 26 */
  3   121 		"vtoce",			/* 27 */
  3   122 		"access_audit",		/* 28 */
  3   123 		"unused_29",		/* 29 */
  3   124 		"unused_30",		/* 30 */
  3   125 		"unused_31",		/* 31 */
  3   126 		"unused_32",		/* 32 */
  3   127 		"unused_33",		/* 33 */
  3   128 		"unused_34",		/* 34 */
  3   129 		"ibm3270_mde",		/* 35 */
  3   130 		"unused_36"		/* 36 */
  3   131 	);
  3   132
  3   133
  3   134 /* format: on */
  3   135
  3   136 /* These constants are used by various tools which analyze syserr messages and
  3   137*still call the old interface "syserr_log_util_". */
  3   138
  3   139      dcl	   syserr_binary_mos_mask init ("060000000000"b3) bit (36) static options (constant);
  3   140      dcl	   syserr_binary_seg_damage_mask init ("000374000000"b3) bit (36) static options (constant);
  3   141      dcl	   syserr_binary_vol_damage_mask init ("003413000000"b3) bit (36) static options (constant);
  3   142      dcl	   syserr_binary_address_damage_mask init ("002010000000"b3) bit (36) static options (constant);
  3   143
  3   144      dcl	   display_cpu_error_binary_defs (2) init (
  3   145 			      2,			/** SB_hw_fault */
  3   146 			      22			/** SB_verify_lock */
  3   147 			      ) internal static options (constant) fixed bin;
  3   148
  3   149 /* END INCLUDE FILE syserr_binary_def.incl.pl1 */
       80
       81  /* BEGIN INCLUDE FILE - syserr_mmdam_msg.incl.pl1 */
  4     2 /* format: off */
  4     3
  4     4 /* This include file has an ALM version, keep it in sync! */
  4     5
  4     6 /* History:
  4     7*	1985-02-21, EJ Sharpe, created
  4     8**/
  4     9
  4    10 /* This include file defines the structure of binary data logged as
  4    11*the "mmdam" data class.  This occurs when a main memory frame is deleted
  4    12*or parity errors are detected. */
  4    13
  4    14 dcl mmdam_ptr	pointer;
  4    15
  4    16 dcl 1 mmdam_msg	aligned based (mmdam_ptr),
  4    17     2 addr	fixed bin (24),
  4    18     2 ctrltag	char (4);
  4    19
  4    20 /* END INCLUDE FILE - syserr_mmdam_msg.incl.pl1 */
       81
       82
       83           end expand_mmdam_msg_;
	SOURCE FILES USED IN THIS COMPILATION.

LINE      NUMBER  DATE MODIFIED     NAME			PATHNAME
             0    03/13/85  1026.6  expand_mmdam_msg_.pl1             >spec>on>41-11>expand_mmdam_msg_.pl1
78           1    01/21/85  0912.2  log_message.incl.pl1              >ldd>include>log_message.incl.pl1
79           2    01/21/85  0912.2  log_message_format.incl.pl1       >ldd>include>log_message_format.incl.pl1
80           3    03/12/85  1556.6  syserr_binary_def.incl.pl1        >spec>on>41-11>syserr_binary_def.incl.pl1
81           4    03/12/85  1556.6  syserr_mmdam_msg.incl.pl1         >spec>on>41-11>syserr_mmdam_msg.incl.pl1
	NAMES DECLARED IN THIS COMPILATION.

IDENTIFIER	     OFFSET    LOC STORAGE CLASS   DATA TYPE		ATTRIBUTES AND REFERENCES
								(* indicates a set context)

NAMES DECLARED BY DECLARE STATEMENT.
P_code                                 parameter       fixed bin(35,0)          dcl 23 set ref 34 43* 52 62*
P_expand_mode_ptr                      parameter       pointer                  dcl 21 set ref 34 43* 52 62*
P_expansion                            parameter       varying char             dcl 22 set ref 34 43* 52 62* 72* 72
P_log_message_format_ptr               parameter       pointer                  dcl 19 set ref 34 43* 52 62*
P_log_message_ptr                      parameter       pointer                  dcl 20 ref 34 37 52 55
SB_mmdam                               constant        fixed bin(17,0)          initial dcl 3-47 ref 59
addr                                                   builtin function         dcl 31 in procedure "expand_mmdam_msg_" ref 39 57
addr                                   based           fixed bin(24,0)          level 2 in structure "mmdam_msg" dcl 4-16
                                                                                  in procedure "expand_mmdam_msg_" set ref 70*
binary                                                 builtin function         dcl 31 ref 59
ctrltag                   1            based           char(4)                  level 2 dcl 4-16 set ref 70*
data                                   based           bit(36)                  array level 2 dcl 1-13 set ref 39 41 57 59 59
data_class_lth            2(09)        based           fixed bin(9,0)           level 3 packed unsigned unaligned dcl 1-13 ref 39 41
                                                                                  57 59 59
data_lth                  4(18)        based           fixed bin(17,0)          level 3 packed unaligned dcl 1-13 ref 41 59
dimension                                              builtin function         dcl 31 ref 41 59
expand_log_message_$unknown     000012 constant        entry                    external dcl 28 ref 43
expand_log_message_$unknown_syserr
                                000010 constant        entry                    external dcl 27 ref 62
header                                 based           structure                level 2 dcl 1-13
ioa_$rsnnl                      000014 constant        entry                    external dcl 29 ref 70
log_message                            based           structure                level 1 dcl 1-13
log_message_header                     based           structure                level 1 dcl 1-3
log_message_ptr                 001066 automatic       pointer                  dcl 1-19 set ref 37* 39 41 43* 55* 57 59 59 62*
mmdam_msg                              based           structure                level 1 dcl 4-16 set ref 41 59
mmdam_ptr                       001070 automatic       pointer                  dcl 4-14 set ref 39* 41 57* 59 70 70
size                                                   builtin function         dcl 31 ref 41 59
temp                            000100 automatic       varying char(2000)       dcl 25 set ref 70* 72
text_lth                  4            based           fixed bin(17,0)          level 3 packed unaligned dcl 1-13 ref 39 41 57 59 59

NAMES DECLARED BY DECLARE STATEMENT AND NEVER REFERENCED.
SBL_access_audit                       internal static fixed bin(17,0)          initial dcl 3-47
SBL_config_deck                        internal static fixed bin(17,0)          initial dcl 3-47
SBL_disk_err                           internal static fixed bin(17,0)          initial dcl 3-47
SBL_end_of_table                       internal static fixed bin(17,0)          initial dcl 3-47
SBL_fnp_poll                           internal static fixed bin(17,0)          initial dcl 3-47
SBL_hw_fault                           internal static fixed bin(17,0)          initial dcl 3-47
SBL_ibm3270_mde                        internal static fixed bin(17,0)          initial dcl 3-47
SBL_io_err                             internal static fixed bin(17,0)          initial dcl 3-47
SBL_io_err_detail                      internal static fixed bin(17,0)          initial dcl 3-47
SBL_mdc_del_uidpath                    internal static fixed bin(17,0)          initial dcl 3-47
SBL_mmdam                              internal static fixed bin(17,0)          initial dcl 3-47
SBL_mos_err                            internal static fixed bin(17,0)          initial dcl 3-47
SBL_mpc_poll                           internal static fixed bin(17,0)          initial dcl 3-47
SBL_ocdcm_err                          internal static fixed bin(17,0)          initial dcl 3-47
SBL_random_segdamage                   internal static fixed bin(17,0)          initial dcl 3-47
SBL_read_nc                            internal static fixed bin(17,0)          initial dcl 3-47
SBL_unused_10                          internal static fixed bin(17,0)          initial dcl 3-47
SBL_unused_12                          internal static fixed bin(17,0)          initial dcl 3-47
SBL_unused_14                          internal static fixed bin(17,0)          initial dcl 3-47
SBL_unused_15                          internal static fixed bin(17,0)          initial dcl 3-47
SBL_unused_18                          internal static fixed bin(17,0)          initial dcl 3-47
SBL_unused_4                           internal static fixed bin(17,0)          initial dcl 3-47
SBL_unused_6                           internal static fixed bin(17,0)          initial dcl 3-47
SBL_unused_7                           internal static fixed bin(17,0)          initial dcl 3-47
SBL_unused_8                           internal static fixed bin(17,0)          initial dcl 3-47
SBL_unused_9                           internal static fixed bin(17,0)          initial dcl 3-47
SBL_verify_lock                        internal static fixed bin(17,0)          initial dcl 3-47
SBL_vtoc_salv_dam                      internal static fixed bin(17,0)          initial dcl 3-47
SBL_vtoce                              internal static fixed bin(17,0)          initial dcl 3-47
SBL_zerpag                             internal static fixed bin(17,0)          initial dcl 3-47
SB_access_audit                        internal static fixed bin(17,0)          initial dcl 3-47
SB_access_audit_data_class             internal static varying char(16)         initial dcl 3-21
SB_char_data_classes                   internal static varying char(16)         initial array dcl 3-89
SB_config_deck                         internal static fixed bin(17,0)          initial dcl 3-47
SB_config_deck_data_class              internal static varying char(16)         initial dcl 3-21
SB_disk_err                            internal static fixed bin(17,0)          initial dcl 3-47
SB_end_of_table                        internal static fixed bin(17,0)          initial dcl 3-47
SB_fnp_poll                            internal static fixed bin(17,0)          initial dcl 3-47
SB_fnp_poll_data_class                 internal static varying char(16)         initial dcl 3-21
SB_hw_fault                            internal static fixed bin(17,0)          initial dcl 3-47
SB_hwfault_data_class                  internal static varying char(16)         initial dcl 3-21
SB_ibm3270_mde                         internal static fixed bin(17,0)          initial dcl 3-47
SB_ibm3270_mde_data_class              internal static varying char(16)         initial dcl 3-21
SB_io_err                              internal static fixed bin(17,0)          initial dcl 3-47
SB_io_err_detail                       internal static fixed bin(17,0)          initial dcl 3-47
SB_io_status_data_class                internal static varying char(16)         initial dcl 3-21
SB_mdc_del_uidpath                     internal static fixed bin(17,0)          initial dcl 3-47
SB_mdc_del_uidpath_data_class          internal static varying char(16)         initial dcl 3-21
SB_mmdam_data_class                    internal static varying char(16)         initial dcl 3-21
SB_mos_data_class                      internal static varying char(16)         initial dcl 3-21
SB_mos_err                             internal static fixed bin(17,0)          initial dcl 3-47
SB_mpc_poll                            internal static fixed bin(17,0)          initial dcl 3-47
SB_mpc_poll_data_class                 internal static varying char(16)         initial dcl 3-21
SB_ocdcm_err                           internal static fixed bin(17,0)          initial dcl 3-47
SB_random_segdamage                    internal static fixed bin(17,0)          initial dcl 3-47
SB_read_nc                             internal static fixed bin(17,0)          initial dcl 3-47
SB_segdamage_data_class                internal static varying char(16)         initial dcl 3-21
SB_unused_10                           internal static fixed bin(17,0)          initial dcl 3-47
SB_unused_12                           internal static fixed bin(17,0)          initial dcl 3-47
SB_unused_14                           internal static fixed bin(17,0)          initial dcl 3-47
SB_unused_15                           internal static fixed bin(17,0)          initial dcl 3-47
SB_unused_18                           internal static fixed bin(17,0)          initial dcl 3-47
SB_unused_4                            internal static fixed bin(17,0)          initial dcl 3-47
SB_unused_6                            internal static fixed bin(17,0)          initial dcl 3-47
SB_unused_7                            internal static fixed bin(17,0)          initial dcl 3-47
SB_unused_8                            internal static fixed bin(17,0)          initial dcl 3-47
SB_unused_9                            internal static fixed bin(17,0)          initial dcl 3-47
SB_verify_lock                         internal static fixed bin(17,0)          initial dcl 3-47
SB_voldamage_data_class                internal static varying char(16)         initial dcl 3-21
SB_vtoc_salv_dam                       internal static fixed bin(17,0)          initial dcl 3-47
SB_vtoce                               internal static fixed bin(17,0)          initial dcl 3-47
SB_vtoce_data_class                    internal static varying char(16)         initial dcl 3-21
SB_zerpag                              internal static fixed bin(17,0)          initial dcl 3-47
display_cpu_error_binary_defs          internal static fixed bin(17,0)          initial array dcl 3-144
log_message_data_class_lth             automatic       fixed bin(17,0)          dcl 1-21
log_message_data_lth                   automatic       fixed bin(17,0)          dcl 1-22
log_message_format                     based           structure                level 1 dcl 2-3
log_message_format_ptr                 automatic       pointer                  dcl 2-30
log_message_text_lth                   automatic       fixed bin(17,0)          dcl 1-20
syserr_binary_address_damage_mask      internal static bit(36)                  initial unaligned dcl 3-142
syserr_binary_mos_mask                 internal static bit(36)                  initial unaligned dcl 3-139
syserr_binary_seg_damage_mask          internal static bit(36)                  initial unaligned dcl 3-140
syserr_binary_vol_damage_mask          internal static bit(36)                  initial unaligned dcl 3-141

NAMES DECLARED BY EXPLICIT CONTEXT.
expand_mmdam                    000234 constant        entry                    internal dcl 67 ref 41 59
expand_mmdam_msg_               000022 constant        entry                    external dcl 9
expand_mmdam_msg_$format        000035 constant        entry                    external dcl 34
expand_mmdam_msg_$syserr        000131 constant        entry                    external dcl 52

THERE WERE NO NAMES DECLARED BY CONTEXT OR IMPLICATION.

STORAGE REQUIREMENTS FOR THIS PROGRAM.

	Object	Text	Link	Symbol	Defs	Static
Start          0       0       424         442     310         434
Length       706     310        16         230     114           0

BLOCK NAME	         STACK SIZE     TYPE		WHY NONQUICK/WHO SHARES STACK FRAME
expand_mmdam_msg_                   634 external procedure  is an external procedure.
expand_mmdam                            internal procedure  shares stack frame of external procedure expand_mmdam_msg_.

STORAGE FOR AUTOMATIC VARIABLES.

STACK FRAME                 LOC IDENTIFIER                  BLOCK NAME
expand_mmdam_msg_        000100 temp                        expand_mmdam_msg_
                         001066 log_message_ptr             expand_mmdam_msg_
                         001070 mmdam_ptr                   expand_mmdam_msg_

THE FOLLOWING EXTERNAL OPERATORS ARE USED BY THIS PROGRAM.
call_ext_out_desc   return              ext_entry           ext_entry_desc

THE FOLLOWING EXTERNAL ENTRIES ARE CALLED BY THIS PROGRAM.
expand_log_message_$unknown   expand_log_message_$unknown_syserr                          ioa_$rsnnl

NO EXTERNAL VARIABLES ARE USED BY THIS PROGRAM.


   LINE    LOC      LINE    LOC      LINE    LOC      LINE    LOC      LINE    LOC      LINE    LOC      LINE    LOC
      9 000021        34 000027        37 000050        39 000054        41 000070        43 000077        46 000126
     52 000127        55 000144        57 000150        59 000164        62 000203        65 000233        67 000234
     70 000235        72 000273        74 000307


                                          -----------------------------------------------------------


Historical Background

This edition of the Multics software materials and documentation is provided and donated
to Massachusetts Institute of Technology by Group BULL including BULL HN Information Systems Inc.
as a contribution to computer science knowledge.
This donation is made also to give evidence of the common contributions of Massachusetts Institute of Technology,
Bell Laboratories, General Electric, Honeywell Information Systems Inc., Honeywell BULL Inc., Groupe BULL
and BULL HN Information Systems Inc. to the development of this operating system.
Multics development was initiated by Massachusetts Institute of Technology Project MAC (1963-1970),
renamed the MIT Laboratory for Computer Science and Artificial Intelligence in the mid 1970s, under the leadership
of Professor Fernando Jose Corbato. Users consider that Multics provided the best software architecture
for managing computer hardware properly and for executing programs. Many subsequent operating systems
incorporated Multics principles.
Multics was distributed in 1975 to 2000 by Group Bull in Europe , and in the U.S. by Bull HN Information Systems Inc.,
as successor in interest by change in name only to Honeywell Bull Inc. and Honeywell Information Systems Inc. .

                                          -----------------------------------------------------------

Permission to use, copy, modify, and distribute these programs and their documentation for any purpose and without
fee is hereby granted,provided that the below copyright notice and historical background appear in all copies
and that both the copyright notice and historical background and this permission notice appear in supporting
documentation, and that the names of MIT, HIS, BULL or BULL HN not be used in advertising or publicity pertaining
to distribution of the programs without specific prior written permission.
    Copyright 1972 by Massachusetts Institute of Technology and Honeywell Information Systems Inc.
    Copyright 2006 by BULL HN Information Systems Inc.
    Copyright 2006 by Bull SAS
    All Rights Reserved
