ASSEMBLY LISTING OF SEGMENT >spec>on>6978-10/22/84>extra_fill.alm
ASSEMBLED ON:	10/22/84  1114.4 mst Mon
OPTIONS USED:	list
ASSEMBLED BY:	ALM Version  6.6  November 1982
ASSEMBLER CREATED:	09/21/83  1227.3 mst Wed

                                     1  "  ******************************************************
                                     2  "  *                                                    *
                                     3  "  *                                                    *
                                     4  "  * Copyright (c) 1972 by Massachusetts Institute of   *
                                     5  "  * Technology and Honeywell Information Systems, Inc. *
                                     6  "  *                                                    *
                                     7  "  *                                                    *
                                     8  "  ******************************************************
                                     9
                                    10  "  ******************************************************
                                    11  "  *                                                    *
                                    12  "  *                                                    *
                                    13  "  *    Copyright, (C) Honeywell Information Systems    *
                                    14  "  *    Inc., 1980.                                     *
                                    15  "  *                                                    *
                                    16  "  *                                                    *
                                    17  "  ******************************************************
                                    18
    000000                          19  	name	extra_fill
                        000000      20  	entry	extra_fill
                                    21
    000000                          22  extra_fill:
    000000  aa   000060 6270 00     23  	push
    000001  aa  7 00040 2721 20
    000002  aa  0 00002 3521 20     24  	eppbp	ap|2,*		"get ptr to test_data1_
    000003  aa  2 00000 3521 20     25  	eppbp	bp|0,*
    000004  aa  2 00000 3515 20     26  	eppab	bp|0,*
    000005  aa   001772 0520 03     27  	adwpbp	1024-6,du
    000006  0a   000016 3534 00     28  	eppbb	data
    000007  aa  7 57100 1005 00     29  	mlr	(pr),(pr),fill(757)
    000010  aa   300000 000017      30  	desc9a	bb|0,15
    000011  aa   200000 000040      31  	desc9a	bp|0,32
    000012  aa  1 03722 2371 00     32  check:	ldaq	ab|2002
    000013  0a   000015 6010 00     33  	tnz	error		"extra fill chars exist
    000014  aa  7 00042 7101 20     34  	return
                                    35
    000015  aa   000000 000000      36  error:	oct	0		"ZOP
                                    37
                                    38  	even
    000016  aa  061 062 063 064     39  data:	aci	"12345678901234567890123456789012"
    000017  aa  065 066 067 070
    000020  aa  071 060 061 062
    000021  aa  063 064 065 066
    000022  aa  067 070 071 060
    000023  aa  061 062 063 064
    000024  aa  065 066 067 070
    000025  aa  071 060 061 062
    000026  aa   000000 000000      40  	oct	0,0
    000027  aa   000000 000000
                                    41
                                    42  	end
ENTRY SEQUENCES

    000030  5a   000011 0000 00
    000031  aa  7 00046 2721 20
    000032  0a   000000 7100 00

NO LITERALS

NAME DEFINITIONS FOR ENTRY POINTS AND SEGDEFS

    000034  5a   000003 000000
    000035  5a   000026 600000
    000036  aa   000000 000000
    000037  55   000011 000002
    000040  5a   000002 400003
    000041  55   000006 000011
    000042  aa  012 145 170 164
    000043  aa  162 141 137 146
    000044  aa  151 154 154 000
    000045  55   000017 000003
    000046  0a   000031 500000
    000047  55   000014 000003
    000050  aa  012 145 170 164         extra_fill
    000051  aa  162 141 137 146
    000052  aa  151 154 154 000
    000053  55   000002 000011
    000054  6a   000000 400002
    000055  55   000022 000003
    000056  aa  014 163 171 155         symbol_table
    000057  aa  142 157 154 137
    000060  aa  164 141 142 154
    000061  aa  145 000 000 000

DEFINITIONS HASH TABLE

    000062  aa   000000 000015
    000063  aa   000000 000000
    000064  aa   000000 000000
    000065  aa   000000 000000
    000066  aa   000000 000000
    000067  aa   000000 000000
    000070  aa   000000 000000
    000071  5a   000011 000000
    000072  5a   000017 000000
    000073  aa   000000 000000
    000074  aa   000000 000000
    000075  aa   000000 000000
    000076  aa   000000 000000
    000077  aa   000000 000000

NO EXTERNAL NAMES

NO TRAP POINTER WORDS

TYPE PAIR BLOCKS

    000100  aa   000001 000000
    000101  aa   000000 000000

INTERNAL EXPRESSION WORDS

LINKAGE INFORMATION

    000000  aa   000000 000000
    000001  0a   000034 000000
    000002  aa   000000 000000
    000003  aa   000000 000000
    000004  aa   000000 000000
    000005  aa   000000 000000
    000006  22   000010 000010
    000007  a2   000000 000000
SYMBOL INFORMATION

SYMBOL TABLE HEADER

    000000  aa   000000 000001
    000001  aa   163171 155142
    000002  aa   164162 145145
    000003  aa   000000 000004
    000004  aa   000000 112143
    000005  aa   305203 523135
    000006  aa   000000 113126
    000007  aa   355432 700307
    000010  aa   141154 155040
    000011  aa   040040 040040
    000012  aa   000024 000040
    000013  aa   000034 000040
    000014  aa   000044 000100
    000015  aa   000002 000002
    000016  aa   000064 000000
    000017  aa   000000 000121
    000020  aa   000000 000104
    000021  aa   000000 000110
    000022  aa   000113 000104
    000023  aa   000064 000000
    000024  aa   101114 115040
    000025  aa   126145 162163
    000026  aa   151157 156040
    000027  aa   040066 056066
    000030  aa   040040 116157
    000031  aa   166145 155142
    000032  aa   145162 040061
    000033  aa   071070 062040
    000034  aa   107112 157150
    000035  aa   156163 157156
    000036  aa   056123 171163
    000037  aa   115141 151156
    000040  aa   164056 155040
    000041  aa   040040 040040
    000042  aa   040040 040040
    000043  aa   040040 040040
    000044  aa   154151 163164
    000045  aa   040040 040040
    000046  aa   040040 040040
    000047  aa   040040 040040
    000050  aa   040040 040040
    000051  aa   040040 040040
    000052  aa   040040 040040
    000053  aa   040040 040040
    000054  aa   040040 040040
    000055  aa   040040 040040
    000056  aa   040040 040040
    000057  aa   040040 040040
    000060  aa   040040 040040
    000061  aa   040040 040040
    000062  aa   040040 040040
    000063  aa   040040 040040
    000064  aa   000000 000001
    000065  aa   000000 000001
    000066  aa   000072 000045
    000067  aa   131232 072505
    000070  aa   000000 113126
    000071  aa   347520 600000
    000072  aa   076163 160145          >spec>on>6978-10/22/84>extra_fill.alm
    000073  aa   143076 157156
    000074  aa   076066 071067
    000075  aa   070055 061060
    000076  aa   057062 062057
    000077  aa   070064 076145
    000100  aa   170164 162141
    000101  aa   137146 151154
    000102  aa   154056 141154
    000103  aa   155040 040040
               MULTICS ASSEMBLY CROSS REFERENCE LISTING

   Value        Symbol                   Source file   Line number

          12    check                    extra_fill:    32.
          16    data                     extra_fill:    28,   39.
          15    error                    extra_fill:    33,   36.
           0    extra_fill               extra_fill:    20,   22.


NO FATAL ERRORS


                                          -----------------------------------------------------------


Historical Background

This edition of the Multics software materials and documentation is provided and donated
to Massachusetts Institute of Technology by Group BULL including BULL HN Information Systems Inc.
as a contribution to computer science knowledge.
This donation is made also to give evidence of the common contributions of Massachusetts Institute of Technology,
Bell Laboratories, General Electric, Honeywell Information Systems Inc., Honeywell BULL Inc., Groupe BULL
and BULL HN Information Systems Inc. to the development of this operating system.
Multics development was initiated by Massachusetts Institute of Technology Project MAC (1963-1970),
renamed the MIT Laboratory for Computer Science and Artificial Intelligence in the mid 1970s, under the leadership
of Professor Fernando Jose Corbato. Users consider that Multics provided the best software architecture
for managing computer hardware properly and for executing programs. Many subsequent operating systems
incorporated Multics principles.
Multics was distributed in 1975 to 2000 by Group Bull in Europe , and in the U.S. by Bull HN Information Systems Inc.,
as successor in interest by change in name only to Honeywell Bull Inc. and Honeywell Information Systems Inc. .

                                          -----------------------------------------------------------

Permission to use, copy, modify, and distribute these programs and their documentation for any purpose and without
fee is hereby granted,provided that the below copyright notice and historical background appear in all copies
and that both the copyright notice and historical background and this permission notice appear in supporting
documentation, and that the names of MIT, HIS, BULL or BULL HN not be used in advertising or publicity pertaining
to distribution of the programs without specific prior written permission.
    Copyright 1972 by Massachusetts Institute of Technology and Honeywell Information Systems Inc.
    Copyright 2006 by BULL HN Information Systems Inc.
    Copyright 2006 by Bull SAS
    All Rights Reserved
