ASSEMBLY LISTING OF SEGMENT >special_ldd>install>MR12.5-1037>fdisk_status_table_.alm
ASSEMBLED ON:	10/21/92  1552.9 mdt Wed
OPTIONS USED:	-target l68                              list symbols
ASSEMBLED BY:	ALM Version 8.14 March 1989
ASSEMBLER CREATED:	06/09/89  1102.3 mdt Fri

                                     1  " ***********************************************************
                                     2  " *                                                         *
                                     3  " * Copyright, (C) BULL HN Information Systems Inc., 1992   *
                                     4  " *                                                         *
                                     5  " * Copyright, (C) Honeywell Information Systems Inc., 1982 *
                                     6  " *                                                         *
                                     7  " * Copyright (c) 1972 by Massachusetts Institute of        *
                                     8  " * Technology and Honeywell Information Systems, Inc.      *
                                     9  " *                                                         *
                                    10  " ***********************************************************
                                    11
                                    12  " HISTORY COMMENTS:
                                    13  "  1) change(92-10-02,WAAnderson), approve(92-10-02,MCR8276),
                                    14  "     audit(92-10-14,Vu), install(92-10-21,MR12.5-1037):
                                    15  "     This new ALM status table provides the proper status to message
                                    16  "     conversions required by FIPS disk devices.
                                    17  "                                                      END HISTORY COMMENTS
                                    18
                                    19  include	status_table
                                   1-1  " Macro definitions for peripheral status table generation.
                                   1-2  "	created 12/1/74 by Noel I. Morris
                                   1-3  "	last modified 6/10/75 by Noel I. Morris
                                   1-4  "	last modified 4/79 by R.J.C. Kissel to make alm macros instead of mexp.
                                   1-5  "	last modified 7/83 by E. N. Kittlitz to add eurc_nobk.
                                   1-6
                                   1-7  	macro	status_table
                              1    1-8
                              2    1-9  	name	&1_status_table_
                              3   1-10
                              4   1-11  	segdef	&1_status_table_
                              5   1-12
                              6   1-13
                              7   1-14  	bool	bk,400000		retry previous operation
                              8   1-15  	bool	in,200000		set backup flag if status.initiate
                              9   1-16  	bool	rp,100000		report this error online
                             10   1-17  	bool	hlt,040000	this error stops device
                             11   1-18  	bool	eurc_nobk,020000	ignore bk if eurc connection
                             12   1-19
                             13   1-20  &1_status_table_:
                             14   1-21
                             15   1-22  &(2&=&i,0&[	zero	0,0
                             16   1-23  &;	zero	m&x,lm&x
                             17   1-24  	set	lm&x,0
                             18   1-25  &]&)
                             19   1-26
                             20   1-27  &end
                                  1-28
                                  1-29
                                  1-30  	macro	status_entry
                              1   1-31
                              2   1-32  m&1:	aci	"&2",24
                              3   1-33
                              4   1-34  &end
                                  1-35
                                  1-36
                                  1-37  	macro	substat_entry
                              1   1-38  	set	lm&1,lm&1+1
                              2   1-39  	aci	"&2",6
                              3   1-40  	vfd	o18/&3
                              4   1-41  	aci	"&4",32
                              5   1-42
                              6   1-43  &end
                                  1-44
                                  1-45
                                    20
                                    21
                                    22  " 
                                    23
                                    24  	status_table	fdisk,(1,1,1,1,1,1,0,0,1,0,1,1,0,1,0,0,1,1,1,1,1,1,1,1)

    000000                              	name	fdisk_status_table_

                        000000          	segdef	fdisk_status_table_


                        400000          	bool	bk,400000		retry previous operation
                        200000          	bool	in,200000		set backup flag if status.initiate
                        100000          	bool	rp,100000		report this error online
                        040000          	bool	hlt,040000	this error stops device
                        020000          	bool	eurc_nobk,020000	ignore bk if eurc connection

    000000                              fdisk_status_table_:

    000000  0a   000030 000006          	zero	m1,lm1
                        000000          	set	lm1,0
    000001  0a   000140 000002          	zero	m2,lm2
                        000000          	set	lm2,0
    000002  0a   000174 000005          	zero	m3,lm3
                        000000          	set	lm3,0
    000003  0a   000271 000006          	zero	m4,lm4
                        000000          	set	lm4,0
    000004  0a   000401 000006          	zero	m5,lm5
                        000000          	set	lm5,0
    000005  0a   000511 000003          	zero	m6,lm6
                        000000          	set	lm6,0
    000006  aa   000000 000000          	zero	0,0
    000007  aa   000000 000000          	zero	0,0
    000010  0a   000560 000000          	zero	m9,lm9
                        000000          	set	lm9,0
    000011  aa   000000 000000          	zero	0,0
    000012  0a   000566 000003          	zero	m11,lm11
                        000000          	set	lm11,0
    000013  0a   000635 000010          	zero	m12,lm12
                        000000          	set	lm12,0
    000014  aa   000000 000000          	zero	0,0
    000015  0a   000773 000001          	zero	m14,lm14
                        000000          	set	lm14,0
    000016  aa   000000 000000          	zero	0,0
    000017  aa   000000 000000          	zero	0,0
    000020  0a   001014 000000          	zero	m17,lm17
                        000000          	set	lm17,0
    000021  0a   001022 000006          	zero	m18,lm18
                        000000          	set	lm18,0
    000022  0a   001132 000001          	zero	m19,lm19
                        000000          	set	lm19,0
    000023  0a   001153 000000          	zero	m20,lm20
                        000000          	set	lm20,0
    000024  0a   001161 000000          	zero	m21,lm21
                        000000          	set	lm21,0
    000025  0a   001167 000000          	zero	m22,lm22
                        000000          	set	lm22,0
    000026  0a   001175 000000          	zero	m23,lm23
                        000000          	set	lm23,0
    000027  0a   001203 000000          	zero	m24,lm24
                        000000          	set	lm24,0


                                    25
                                    26  " 
                                    27
                                    28  	status_entry	1,(Channel Ready)

    000030  aa  103 150 141 156         m1:	aci	"Channel Ready",24
    000031  aa  156 145 154 040
    000032  aa  122 145 141 144
    000033  aa  171 040 040 040
    000034  aa  040 040 040 040
    000035  aa  040 040 040 040

                                    29
                                    30  	substat_entry	1,000000,,(No substatus)
                        000001          	set	lm1,lm1+1
    000036  aa  060 060 060 060         	aci	"000000",6
    000037  aa  060 060 000 000
    000040  aa   000000 000000          	vfd	o18/
    000041  aa  116 157 040 163         	aci	"No substatus",32
    000042  aa  165 142 163 164
    000043  aa  141 164 165 163
    000044  aa  040 040 040 040
    000045  aa  040 040 040 040
    000046  aa  040 040 040 040
    000047  aa  040 040 040 040
    000050  aa  040 040 040 040

                                    31  	substat_entry	1,000001,,(Retried 1 time)
                        000002          	set	lm1,lm1+1
    000051  aa  060 060 060 060         	aci	"000001",6
    000052  aa  060 061 000 000
    000053  aa   000000 000000          	vfd	o18/
    000054  aa  122 145 164 162         	aci	"Retried 1 time",32
    000055  aa  151 145 144 040
    000056  aa  061 040 164 151
    000057  aa  155 145 040 040
    000060  aa  040 040 040 040
    000061  aa  040 040 040 040
    000062  aa  040 040 040 040
    000063  aa  040 040 040 040

                                    32  	substat_entry	1,000010,,(Retried 2 times)
                        000003          	set	lm1,lm1+1
    000064  aa  060 060 060 060         	aci	"000010",6
    000065  aa  061 060 000 000
    000066  aa   000000 000000          	vfd	o18/
    000067  aa  122 145 164 162         	aci	"Retried 2 times",32
    000070  aa  151 145 144 040
    000071  aa  062 040 164 151
    000072  aa  155 145 163 040
    000073  aa  040 040 040 040
    000074  aa  040 040 040 040
    000075  aa  040 040 040 040
    000076  aa  040 040 040 040

                                    33  	substat_entry	1,000011,,(Retried 3 times)
                        000004          	set	lm1,lm1+1
    000077  aa  060 060 060 060         	aci	"000011",6
    000100  aa  061 061 000 000
    000101  aa   000000 000000          	vfd	o18/
    000102  aa  122 145 164 162         	aci	"Retried 3 times",32
    000103  aa  151 145 144 040
    000104  aa  063 040 164 151
    000105  aa  155 145 163 040
    000106  aa  040 040 040 040
    000107  aa  040 040 040 040
    000110  aa  040 040 040 040
    000111  aa  040 040 040 040

                                    34  	substat_entry	1,0010XX,,(Device in T&D)
                        000005          	set	lm1,lm1+1
    000112  aa  060 060 061 060         	aci	"0010XX",6
    000113  aa  130 130 000 000
    000114  aa   000000 000000          	vfd	o18/
    000115  aa  104 145 166 151         	aci	"Device in T&D",32
    000116  aa  143 145 040 151
    000117  aa  156 040 124 046
    000120  aa  104 040 040 040
    000121  aa  040 040 040 040
    000122  aa  040 040 040 040
    000123  aa  040 040 040 040
    000124  aa  040 040 040 040

                                    35  	substat_entry	1,010000,,(EDAC correction performed)
                        000006          	set	lm1,lm1+1
    000125  aa  060 061 060 060         	aci	"010000",6
    000126  aa  060 060 000 000
    000127  aa   000000 000000          	vfd	o18/
    000130  aa  105 104 101 103         	aci	"EDAC correction performed",32
    000131  aa  040 143 157 162
    000132  aa  162 145 143 164
    000133  aa  151 157 156 040
    000134  aa  160 145 162 146
    000135  aa  157 162 155 145
    000136  aa  144 040 040 040
    000137  aa  040 040 040 040

                                    36
                                    37  " 
                                    38
                                    39  	status_entry	2,(Device Busy)

    000140  aa  104 145 166 151         m2:	aci	"Device Busy",24
    000141  aa  143 145 040 102
    000142  aa  165 163 171 040
    000143  aa  040 040 040 040
    000144  aa  040 040 040 040
    000145  aa  040 040 040 040

                                    40
                                    41  	substat_entry	2,000000,bk+rp,(Device positioning)
                        000001          	set	lm2,lm2+1
    000146  aa  060 060 060 060         	aci	"000000",6
    000147  aa  060 060 000 000
    000150  aa   500000 000000          	vfd	o18/bk+rp
    000151  aa  104 145 166 151         	aci	"Device positioning",32
    000152  aa  143 145 040 160
    000153  aa  157 163 151 164
    000154  aa  151 157 156 151
    000155  aa  156 147 040 040
    000156  aa  040 040 040 040
    000157  aa  040 040 040 040
    000160  aa  040 040 040 040

                                    42  	substat_entry	2,100000,bk+rp,(Alternate channel in control)
                        000002          	set	lm2,lm2+1
    000161  aa  061 060 060 060         	aci	"100000",6
    000162  aa  060 060 000 000
    000163  aa   500000 000000          	vfd	o18/bk+rp
    000164  aa  101 154 164 145         	aci	"Alternate channel in control",32
    000165  aa  162 156 141 164
    000166  aa  145 040 143 150
    000167  aa  141 156 156 145
    000170  aa  154 040 151 156
    000171  aa  040 143 157 156
    000172  aa  164 162 157 154
    000173  aa  040 040 040 040

                                    43
                                    44  " 
                                    45
                                    46  	status_entry	3,(Device Attention)

    000174  aa  104 145 166 151         m3:	aci	"Device Attention",24
    000175  aa  143 145 040 101
    000176  aa  164 164 145 156
    000177  aa  164 151 157 156
    000200  aa  040 040 040 040
    000201  aa  040 040 040 040

                                    47
                                    48  	substat_entry	3,000001,rp+hlt,(Write inhibited)
                        000001          	set	lm3,lm3+1
    000202  aa  060 060 060 060         	aci	"000001",6
    000203  aa  060 061 000 000
    000204  aa   140000 000000          	vfd	o18/rp+hlt
    000205  aa  127 162 151 164         	aci	"Write inhibited",32
    000206  aa  145 040 151 156
    000207  aa  150 151 142 151
    000210  aa  164 145 144 040
    000211  aa  040 040 040 040
    000212  aa  040 040 040 040
    000213  aa  040 040 040 040
    000214  aa  040 040 040 040

                                    49  	substat_entry	3,000010,rp+hlt,(Seek incomplete)
                        000002          	set	lm3,lm3+1
    000215  aa  060 060 060 060         	aci	"000010",6
    000216  aa  061 060 000 000
    000217  aa   140000 000000          	vfd	o18/rp+hlt
    000220  aa  123 145 145 153         	aci	"Seek incomplete",32
    000221  aa  040 151 156 143
    000222  aa  157 155 160 154
    000223  aa  145 164 145 040
    000224  aa  040 040 040 040
    000225  aa  040 040 040 040
    000226  aa  040 040 040 040
    000227  aa  040 040 040 040

                                    50  	substat_entry	3,001000,rp+hlt,(Device fault)
                        000003          	set	lm3,lm3+1
    000230  aa  060 060 061 060         	aci	"001000",6
    000231  aa  060 060 000 000
    000232  aa   140000 000000          	vfd	o18/rp+hlt
    000233  aa  104 145 166 151         	aci	"Device fault",32
    000234  aa  143 145 040 146
    000235  aa  141 165 154 164
    000236  aa  040 040 040 040
    000237  aa  040 040 040 040
    000240  aa  040 040 040 040
    000241  aa  040 040 040 040
    000242  aa  040 040 040 040

                                    51  	substat_entry	3,010000,rp+hlt,(Device in standby)
                        000004          	set	lm3,lm3+1
    000243  aa  060 061 060 060         	aci	"010000",6
    000244  aa  060 060 000 000
    000245  aa   140000 000000          	vfd	o18/rp+hlt
    000246  aa  104 145 166 151         	aci	"Device in standby",32
    000247  aa  143 145 040 151
    000250  aa  156 040 163 164
    000251  aa  141 156 144 142
    000252  aa  171 040 040 040
    000253  aa  040 040 040 040
    000254  aa  040 040 040 040
    000255  aa  040 040 040 040

                                    52  	substat_entry	3,100000,rp+hlt,(Device offline)
                        000005          	set	lm3,lm3+1
    000256  aa  061 060 060 060         	aci	"100000",6
    000257  aa  060 060 000 000
    000260  aa   140000 000000          	vfd	o18/rp+hlt
    000261  aa  104 145 166 151         	aci	"Device offline",32
    000262  aa  143 145 040 157
    000263  aa  146 146 154 151
    000264  aa  156 145 040 040
    000265  aa  040 040 040 040
    000266  aa  040 040 040 040
    000267  aa  040 040 040 040
    000270  aa  040 040 040 040

                                    53
                                    54  " 
                                    55
                                    56  	status_entry	4,(Device Data Alert)

    000271  aa  104 145 166 151         m4:	aci	"Device Data Alert",24
    000272  aa  143 145 040 104
    000273  aa  141 164 141 040
    000274  aa  101 154 145 162
    000275  aa  164 040 040 040
    000276  aa  040 040 040 040

                                    57
                                    58  	substat_entry	4,000001,bk+rp,(Transfer timing alert)
                        000001          	set	lm4,lm4+1
    000277  aa  060 060 060 060         	aci	"000001",6
    000300  aa  060 061 000 000
    000301  aa   500000 000000          	vfd	o18/bk+rp
    000302  aa  124 162 141 156         	aci	"Transfer timing alert",32
    000303  aa  163 146 145 162
    000304  aa  040 164 151 155
    000305  aa  151 156 147 040
    000306  aa  141 154 145 162
    000307  aa  164 040 040 040
    000310  aa  040 040 040 040
    000311  aa  040 040 040 040

                                    59  	substat_entry	4,000010,bk+rp,(Transmission parity alert)
                        000002          	set	lm4,lm4+1
    000312  aa  060 060 060 060         	aci	"000010",6
    000313  aa  061 060 000 000
    000314  aa   500000 000000          	vfd	o18/bk+rp
    000315  aa  124 162 141 156         	aci	"Transmission parity alert",32
    000316  aa  163 155 151 163
    000317  aa  163 151 157 156
    000320  aa  040 160 141 162
    000321  aa  151 164 171 040
    000322  aa  141 154 145 162
    000323  aa  164 040 040 040
    000324  aa  040 040 040 040

                                    60  	substat_entry	4,000100,rp+hlt,(Invalid seek address)
                        000003          	set	lm4,lm4+1
    000325  aa  060 060 060 061         	aci	"000100",6
    000326  aa  060 060 000 000
    000327  aa   140000 000000          	vfd	o18/rp+hlt
    000330  aa  111 156 166 141         	aci	"Invalid seek address",32
    000331  aa  154 151 144 040
    000332  aa  163 145 145 153
    000333  aa  040 141 144 144
    000334  aa  162 145 163 163
    000335  aa  040 040 040 040
    000336  aa  040 040 040 040
    000337  aa  040 040 040 040

                                    61  	substat_entry	4,0X1000,bk+rp,(Header verification failure)
                        000004          	set	lm4,lm4+1
    000340  aa  060 130 061 060         	aci	"0X1000",6
    000341  aa  060 060 000 000
    000342  aa   500000 000000          	vfd	o18/bk+rp
    000343  aa  110 145 141 144         	aci	"Header verification failure",32
    000344  aa  145 162 040 166
    000345  aa  145 162 151 146
    000346  aa  151 143 141 164
    000347  aa  151 157 156 040
    000350  aa  146 141 151 154
    000351  aa  165 162 145 040
    000352  aa  040 040 040 040

                                    62  	substat_entry	4,X1X000,bk+rp,(Check character alert)
                        000005          	set	lm4,lm4+1
    000353  aa  130 061 130 060         	aci	"X1X000",6
    000354  aa  060 060 000 000
    000355  aa   500000 000000          	vfd	o18/bk+rp
    000356  aa  103 150 145 143         	aci	"Check character alert",32
    000357  aa  153 040 143 150
    000360  aa  141 162 141 143
    000361  aa  164 145 162 040
    000362  aa  141 154 145 162
    000363  aa  164 040 040 040
    000364  aa  040 040 040 040
    000365  aa  040 040 040 040

                                    63  	substat_entry	4,1X0000,bk+rp,(Compare alert)
                        000006          	set	lm4,lm4+1
    000366  aa  061 130 060 060         	aci	"1X0000",6
    000367  aa  060 060 000 000
    000370  aa   500000 000000          	vfd	o18/bk+rp
    000371  aa  103 157 155 160         	aci	"Compare alert",32
    000372  aa  141 162 145 040
    000373  aa  141 154 145 162
    000374  aa  164 040 040 040
    000375  aa  040 040 040 040
    000376  aa  040 040 040 040
    000377  aa  040 040 040 040
    000400  aa  040 040 040 040

                                    64
                                    65  " 
                                    66
                                    67  	status_entry	5,(End of File)

    000401  aa  105 156 144 040         m5:	aci	"End of File",24
    000402  aa  157 146 040 106
    000403  aa  151 154 145 040
    000404  aa  040 040 040 040
    000405  aa  040 040 040 040
    000406  aa  040 040 040 040

                                    68
                                    69  	substat_entry	5,000000,bk+rp,(Good track detected)
                        000001          	set	lm5,lm5+1
    000407  aa  060 060 060 060         	aci	"000000",6
    000410  aa  060 060 000 000
    000411  aa   500000 000000          	vfd	o18/bk+rp
    000412  aa  107 157 157 144         	aci	"Good track detected",32
    000413  aa  040 164 162 141
    000414  aa  143 153 040 144
    000415  aa  145 164 145 143
    000416  aa  164 145 144 040
    000417  aa  040 040 040 040
    000420  aa  040 040 040 040
    000421  aa  040 040 040 040

                                    70  	substat_entry	5,0000X1,bk+rp,(Last consecutive block)
                        000002          	set	lm5,lm5+1
    000422  aa  060 060 060 060         	aci	"0000X1",6
    000423  aa  130 061 000 000
    000424  aa   500000 000000          	vfd	o18/bk+rp
    000425  aa  114 141 163 164         	aci	"Last consecutive block",32
    000426  aa  040 143 157 156
    000427  aa  163 145 143 165
    000430  aa  164 151 166 145
    000431  aa  040 142 154 157
    000432  aa  143 153 040 040
    000433  aa  040 040 040 040
    000434  aa  040 040 040 040

                                    71  	substat_entry	5,00001X,bk+rp,(Sector count limit exceeded)
                        000003          	set	lm5,lm5+1
    000435  aa  060 060 060 060         	aci	"00001X",6
    000436  aa  061 130 000 000
    000437  aa   500000 000000          	vfd	o18/bk+rp
    000440  aa  123 145 143 164         	aci	"Sector count limit exceeded",32
    000441  aa  157 162 040 143
    000442  aa  157 165 156 164
    000443  aa  040 154 151 155
    000444  aa  151 164 040 145
    000445  aa  170 143 145 145
    000446  aa  144 145 144 040
    000447  aa  040 040 040 040

                                    72  	substat_entry	5,000100,rp,(Defective trk-alternate assnd)
                        000004          	set	lm5,lm5+1
    000450  aa  060 060 060 061         	aci	"000100",6
    000451  aa  060 060 000 000
    000452  aa   100000 000000          	vfd	o18/rp
    000453  aa  104 145 146 145         	aci	"Defective trk-alternate assnd",32
    000454  aa  143 164 151 166
    000455  aa  145 040 164 162
    000456  aa  153 055 141 154
    000457  aa  164 145 162 156
    000460  aa  141 164 145 040
    000461  aa  141 163 163 156
    000462  aa  144 040 040 040

                                    73  	substat_entry	5,001000,rp,(Defective trk-no alternate assnd)
                        000005          	set	lm5,lm5+1
    000463  aa  060 060 061 060         	aci	"001000",6
    000464  aa  060 060 000 000
    000465  aa   100000 000000          	vfd	o18/rp
    000466  aa  104 145 146 145         	aci	"Defective trk-no alternate assnd",32
    000467  aa  143 164 151 166
    000470  aa  145 040 164 162
    000471  aa  153 055 156 157
    000472  aa  040 141 154 164
    000473  aa  145 162 156 141
    000474  aa  164 145 040 141
    000475  aa  163 163 156 144

                                    74  	substat_entry	5,010000,rp,(Alternate track detected)
                        000006          	set	lm5,lm5+1
    000476  aa  060 061 060 060         	aci	"010000",6
    000477  aa  060 060 000 000
    000500  aa   100000 000000          	vfd	o18/rp
    000501  aa  101 154 164 145         	aci	"Alternate track detected",32
    000502  aa  162 156 141 164
    000503  aa  145 040 164 162
    000504  aa  141 143 153 040
    000505  aa  144 145 164 145
    000506  aa  143 164 145 144
    000507  aa  040 040 040 040
    000510  aa  040 040 040 040

                                    75
                                    76  " 
                                    77
                                    78  	status_entry	6,(Command Reject)

    000511  aa  103 157 155 155         m6:	aci	"Command Reject",24
    000512  aa  141 156 144 040
    000513  aa  122 145 152 145
    000514  aa  143 164 040 040
    000515  aa  040 040 040 040
    000516  aa  040 040 040 040

                                    79
                                    80  	substat_entry	6,000001,rp+hlt,(Invalid operation code)
                        000001          	set	lm6,lm6+1
    000517  aa  060 060 060 060         	aci	"000001",6
    000520  aa  060 061 000 000
    000521  aa   140000 000000          	vfd	o18/rp+hlt
    000522  aa  111 156 166 141         	aci	"Invalid operation code",32
    000523  aa  154 151 144 040
    000524  aa  157 160 145 162
    000525  aa  141 164 151 157
    000526  aa  156 040 143 157
    000527  aa  144 145 040 040
    000530  aa  040 040 040 040
    000531  aa  040 040 040 040

                                    81  	substat_entry	6,000010,rp+hlt,(Invalid device code)
                        000002          	set	lm6,lm6+1
    000532  aa  060 060 060 060         	aci	"000010",6
    000533  aa  061 060 000 000
    000534  aa   140000 000000          	vfd	o18/rp+hlt
    000535  aa  111 156 166 141         	aci	"Invalid device code",32
    000536  aa  154 151 144 040
    000537  aa  144 145 166 151
    000540  aa  143 145 040 143
    000541  aa  157 144 145 040
    000542  aa  040 040 040 040
    000543  aa  040 040 040 040
    000544  aa  040 040 040 040

                                    82  	substat_entry	6,001000,rp+hlt,(Invalid instruction sequence)
                        000003          	set	lm6,lm6+1
    000545  aa  060 060 061 060         	aci	"001000",6
    000546  aa  060 060 000 000
    000547  aa   140000 000000          	vfd	o18/rp+hlt
    000550  aa  111 156 166 141         	aci	"Invalid instruction sequence",32
    000551  aa  154 151 144 040
    000552  aa  151 156 163 164
    000553  aa  162 165 143 164
    000554  aa  151 157 156 040
    000555  aa  163 145 161 165
    000556  aa  145 156 143 145
    000557  aa  040 040 040 040

                                    83
                                    84  " 
                                    85
                                    86  	status_entry	9,(Channel busy)

    000560  aa  103 150 141 156         m9:	aci	"Channel busy",24
    000561  aa  156 145 154 040
    000562  aa  142 165 163 171
    000563  aa  040 040 040 040
    000564  aa  040 040 040 040
    000565  aa  040 040 040 040

                                    87
                                    88
                                    89  " 
                                    90
                                    91  	status_entry	11,(IPC-FIPS Dev Attn)

    000566  aa  111 120 103 055         m11:	aci	"IPC-FIPS Dev Attn",24
    000567  aa  106 111 120 123
    000570  aa  040 104 145 166
    000571  aa  040 101 164 164
    000572  aa  156 040 040 040
    000573  aa  040 040 040 040

                                    92
                                    93  	substat_entry	11,000010,rp+hlt,(Multiple devices)
                        000001          	set	lm11,lm11+1
    000574  aa  060 060 060 060         	aci	"000010",6
    000575  aa  061 060 000 000
    000576  aa   140000 000000          	vfd	o18/rp+hlt
    000577  aa  115 165 154 164         	aci	"Multiple devices",32
    000600  aa  151 160 154 145
    000601  aa  040 144 145 166
    000602  aa  151 143 145 163
    000603  aa  040 040 040 040
    000604  aa  040 040 040 040
    000605  aa  040 040 040 040
    000606  aa  040 040 040 040

                                    94  	substat_entry	11,000011,bk+rp,(Illegal device number)
                        000002          	set	lm11,lm11+1
    000607  aa  060 060 060 060         	aci	"000011",6
    000610  aa  061 061 000 000
    000611  aa   500000 000000          	vfd	o18/bk+rp
    000612  aa  111 154 154 145         	aci	"Illegal device number",32
    000613  aa  147 141 154 040
    000614  aa  144 145 166 151
    000615  aa  143 145 040 156
    000616  aa  165 155 142 145
    000617  aa  162 040 040 040
    000620  aa  040 040 040 040
    000621  aa  040 040 040 040

                                    95  	substat_entry	11,001011,rp,(Usage/Error Stat Overflow)
                        000003          	set	lm11,lm11+1
    000622  aa  060 060 061 060         	aci	"001011",6
    000623  aa  061 061 000 000
    000624  aa   100000 000000          	vfd	o18/rp
    000625  aa  125 163 141 147         	aci	"Usage/Error Stat Overflow",32
    000626  aa  145 057 105 162
    000627  aa  162 157 162 040
    000630  aa  123 164 141 164
    000631  aa  040 117 166 145
    000632  aa  162 146 154 157
    000633  aa  167 040 040 040
    000634  aa  040 040 040 040

                                    96
                                    97  " 
                                    98
                                    99  	status_entry	12,(IPC-FIPS Dev Data Alert)

    000635  aa  111 120 103 055         m12:	aci	"IPC-FIPS Dev Data Alert",24
    000636  aa  106 111 120 123
    000637  aa  040 104 145 166
    000640  aa  040 104 141 164
    000641  aa  141 040 101 154
    000642  aa  145 162 164 040

                                   100
                                   101  	substat_entry	12,010001,bk+rp,(Sector size error)
                        000001          	set	lm12,lm12+1
    000643  aa  060 061 060 060         	aci	"010001",6
    000644  aa  060 061 000 000
    000645  aa   500000 000000          	vfd	o18/bk+rp
    000646  aa  123 145 143 164         	aci	"Sector size error",32
    000647  aa  157 162 040 163
    000650  aa  151 172 145 040
    000651  aa  145 162 162 157
    000652  aa  162 040 040 040
    000653  aa  040 040 040 040
    000654  aa  040 040 040 040
    000655  aa  040 040 040 040

                                   102  	substat_entry	12,010010,rp+hlt,(Nonstandard sector size)
                        000002          	set	lm12,lm12+1
    000656  aa  060 061 060 060         	aci	"010010",6
    000657  aa  061 060 000 000
    000660  aa   140000 000000          	vfd	o18/rp+hlt
    000661  aa  116 157 156 163         	aci	"Nonstandard sector size",32
    000662  aa  164 141 156 144
    000663  aa  141 162 144 040
    000664  aa  163 145 143 164
    000665  aa  157 162 040 163
    000666  aa  151 172 145 040
    000667  aa  040 040 040 040
    000670  aa  040 040 040 040

                                   103  	substat_entry	12,010011,rp+hlt,(Search alert (first search))
                        000003          	set	lm12,lm12+1
    000671  aa  060 061 060 060         	aci	"010011",6
    000672  aa  061 061 000 000
    000673  aa   140000 000000          	vfd	o18/rp+hlt
    000674  aa  123 145 141 162         	aci	"Search alert (first search)",32
    000675  aa  143 150 040 141
    000676  aa  154 145 162 164
    000677  aa  040 050 146 151
    000700  aa  162 163 164 040
    000701  aa  163 145 141 162
    000702  aa  143 150 051 040
    000703  aa  040 040 040 040

                                   104  	substat_entry	12,010100,rp+hlt,(Cyclic code error)
                        000004          	set	lm12,lm12+1
    000704  aa  060 061 060 061         	aci	"010100",6
    000705  aa  060 060 000 000
    000706  aa   140000 000000          	vfd	o18/rp+hlt
    000707  aa  103 171 143 154         	aci	"Cyclic code error",32
    000710  aa  151 143 040 143
    000711  aa  157 144 145 040
    000712  aa  145 162 162 157
    000713  aa  162 040 040 040
    000714  aa  040 040 040 040
    000715  aa  040 040 040 040
    000716  aa  040 040 040 040

                                   105  	substat_entry	12,010101,rp+hlt,(Search error (not first search))
                        000005          	set	lm12,lm12+1
    000717  aa  060 061 060 061         	aci	"010101",6
    000720  aa  060 061 000 000
    000721  aa   140000 000000          	vfd	o18/rp+hlt
    000722  aa  123 145 141 162         	aci	"Search error (not first search)",32
    000723  aa  143 150 040 145
    000724  aa  162 162 157 162
    000725  aa  040 050 156 157
    000726  aa  164 040 146 151
    000727  aa  162 163 164 040
    000730  aa  163 145 141 162
    000731  aa  143 150 051 040

                                   106  	substat_entry	12,010111,rp+hlt,(Error in alternate track)
                        000006          	set	lm12,lm12+1
    000732  aa  060 061 060 061         	aci	"010111",6
    000733  aa  061 061 000 000
    000734  aa   140000 000000          	vfd	o18/rp+hlt
    000735  aa  105 162 162 157         	aci	"Error in alternate track",32
    000736  aa  162 040 151 156
    000737  aa  040 141 154 164
    000740  aa  145 162 156 141
    000741  aa  164 145 040 164
    000742  aa  162 141 143 153
    000743  aa  040 040 040 040
    000744  aa  040 040 040 040

                                   107  	substat_entry	12,100001,rp+hlt,(Write buffer parity)
                        000007          	set	lm12,lm12+1
    000745  aa  061 060 060 060         	aci	"100001",6
    000746  aa  060 061 000 000
    000747  aa   140000 000000          	vfd	o18/rp+hlt
    000750  aa  127 162 151 164         	aci	"Write buffer parity",32
    000751  aa  145 040 142 165
    000752  aa  146 146 145 162
    000753  aa  040 160 141 162
    000754  aa  151 164 171 040
    000755  aa  040 040 040 040
    000756  aa  040 040 040 040
    000757  aa  040 040 040 040

                                   108  	substat_entry	12,100010,bk+rp,(Uncorrectable read)
                        000010          	set	lm12,lm12+1
    000760  aa  061 060 060 060         	aci	"100010",6
    000761  aa  061 060 000 000
    000762  aa   500000 000000          	vfd	o18/bk+rp
    000763  aa  125 156 143 157         	aci	"Uncorrectable read",32
    000764  aa  162 162 145 143
    000765  aa  164 141 142 154
    000766  aa  145 040 162 145
    000767  aa  141 144 040 040
    000770  aa  040 040 040 040
    000771  aa  040 040 040 040
    000772  aa  040 040 040 040

                                   109  " 
                                   110
                                   111  	status_entry	14,(IPC-FIPS Command Reject)

    000773  aa  111 120 103 055         m14:	aci	"IPC-FIPS Command Reject",24
    000774  aa  106 111 120 123
    000775  aa  040 103 157 155
    000776  aa  155 141 156 144
    000777  aa  040 122 145 152
    001000  aa  145 143 164 040

                                   112
                                   113  	substat_entry	14,000001,rp+hlt,(Illegal op-code)
                        000001          	set	lm14,lm14+1
    001001  aa  060 060 060 060         	aci	"000001",6
    001002  aa  060 061 000 000
    001003  aa   140000 000000          	vfd	o18/rp+hlt
    001004  aa  111 154 154 145         	aci	"Illegal op-code",32
    001005  aa  147 141 154 040
    001006  aa  157 160 055 143
    001007  aa  157 144 145 040
    001010  aa  040 040 040 040
    001011  aa  040 040 040 040
    001012  aa  040 040 040 040
    001013  aa  040 040 040 040

                                   114
                                   115  	status_entry	17,(Power Off);

    001014  aa  120 157 167 145         m17:	aci	"Power Off",24
    001015  aa  162 040 117 146
    001016  aa  146 040 040 040
    001017  aa  040 040 040 040
    001020  aa  040 040 040 040
    001021  aa  040 040 040 040

                                   116
                                   117  	status_entry	18,(Channel Status);

    001022  aa  103 150 141 156         m18:	aci	"Channel Status",24
    001023  aa  156 145 154 040
    001024  aa  123 164 141 164
    001025  aa  165 163 040 040
    001026  aa  040 040 040 040
    001027  aa  040 040 040 040

                                   118  	substat_entry	18,001000,rp+hlt,(Connect while busy);
                        000001          	set	lm18,lm18+1
    001030  aa  060 060 061 060         	aci	"001000",6
    001031  aa  060 060 000 000
    001032  aa   140000 000000          	vfd	o18/rp+hlt
    001033  aa  103 157 156 156         	aci	"Connect while busy",32
    001034  aa  145 143 164 040
    001035  aa  167 150 151 154
    001036  aa  145 040 142 165
    001037  aa  163 171 040 040
    001040  aa  040 040 040 040
    001041  aa  040 040 040 040
    001042  aa  040 040 040 040

                                   119  	substat_entry	18,010000,rp+hlt,(Illegal channel inst);
                        000002          	set	lm18,lm18+1
    001043  aa  060 061 060 060         	aci	"010000",6
    001044  aa  060 060 000 000
    001045  aa   140000 000000          	vfd	o18/rp+hlt
    001046  aa  111 154 154 145         	aci	"Illegal channel inst",32
    001047  aa  147 141 154 040
    001050  aa  143 150 141 156
    001051  aa  156 145 154 040
    001052  aa  151 156 163 164
    001053  aa  040 040 040 040
    001054  aa  040 040 040 040
    001055  aa  040 040 040 040

                                   120  	substat_entry	18,011000,rp+hlt,(Incorrect DCW);
                        000003          	set	lm18,lm18+1
    001056  aa  060 061 061 060         	aci	"011000",6
    001057  aa  060 060 000 000
    001060  aa   140000 000000          	vfd	o18/rp+hlt
    001061  aa  111 156 143 157         	aci	"Incorrect DCW",32
    001062  aa  162 162 145 143
    001063  aa  164 040 104 103
    001064  aa  127 040 040 040
    001065  aa  040 040 040 040
    001066  aa  040 040 040 040
    001067  aa  040 040 040 040
    001070  aa  040 040 040 040

                                   121  	substat_entry	18,100000,rp+hlt,(Incomplete inst. seq.);
                        000004          	set	lm18,lm18+1
    001071  aa  061 060 060 060         	aci	"100000",6
    001072  aa  060 060 000 000
    001073  aa   140000 000000          	vfd	o18/rp+hlt
    001074  aa  111 156 143 157         	aci	"Incomplete inst. seq.",32
    001075  aa  155 160 154 145
    001076  aa  164 145 040 151
    001077  aa  156 163 164 056
    001100  aa  040 163 145 161
    001101  aa  056 040 040 040
    001102  aa  040 040 040 040
    001103  aa  040 040 040 040

                                   122  	substat_entry	18,110000,rp+hlt,(PSI parity error);
                        000005          	set	lm18,lm18+1
    001104  aa  061 061 060 060         	aci	"110000",6
    001105  aa  060 060 000 000
    001106  aa   140000 000000          	vfd	o18/rp+hlt
    001107  aa  120 123 111 040         	aci	"PSI parity error",32
    001110  aa  160 141 162 151
    001111  aa  164 171 040 145
    001112  aa  162 162 157 162
    001113  aa  040 040 040 040
    001114  aa  040 040 040 040
    001115  aa  040 040 040 040
    001116  aa  040 040 040 040

                                   123  	substat_entry	18,111000,rp+hlt,(Parity err, I/O bus to chan);
                        000006          	set	lm18,lm18+1
    001117  aa  061 061 061 060         	aci	"111000",6
    001120  aa  060 060 000 000
    001121  aa   140000 000000          	vfd	o18/rp+hlt
    001122  aa  120 141 162 151         	aci	"Parity err, I/O bus to chan",32
    001123  aa  164 171 040 145
    001124  aa  162 162 054 040
    001125  aa  111 057 117 040
    001126  aa  142 165 163 040
    001127  aa  164 157 040 143
    001130  aa  150 141 156 040
    001131  aa  040 040 040 040

                                   124
                                   125  	status_entry	19,(Central Status);

    001132  aa  103 145 156 164         m19:	aci	"Central Status",24
    001133  aa  162 141 154 040
    001134  aa  123 164 141 164
    001135  aa  165 163 040 040
    001136  aa  040 040 040 040
    001137  aa  040 040 040 040

                                   126  	substat_entry	19,111000,rp+hlt,(Parity err, I/O bus from chan);
                        000001          	set	lm19,lm19+1
    001140  aa  061 061 061 060         	aci	"111000",6
    001141  aa  060 060 000 000
    001142  aa   140000 000000          	vfd	o18/rp+hlt
    001143  aa  120 141 162 151         	aci	"Parity err, I/O bus from chan",32
    001144  aa  164 171 040 145
    001145  aa  162 162 054 040
    001146  aa  111 057 117 040
    001147  aa  142 165 163 040
    001150  aa  146 162 157 155
    001151  aa  040 143 150 141
    001152  aa  156 040 040 040

                                   127
                                   128  	status_entry	20,(I/O System Fault);

    001153  aa  111 057 117 040         m20:	aci	"I/O System Fault",24
    001154  aa  123 171 163 164
    001155  aa  145 155 040 106
    001156  aa  141 165 154 164
    001157  aa  040 040 040 040
    001160  aa  040 040 040 040

                                   129
                                   130  	status_entry	21,(Non-zero Tally Residue);

    001161  aa  116 157 156 055         m21:	aci	"Non-zero Tally Residue",24
    001162  aa  172 145 162 157
    001163  aa  040 124 141 154
    001164  aa  154 171 040 122
    001165  aa  145 163 151 144
    001166  aa  165 145 040 040

                                   131
                                   132  	status_entry	22,(Auto Retries);

    001167  aa  101 165 164 157         m22:	aci	"Auto Retries",24
    001170  aa  040 122 145 164
    001171  aa  162 151 145 163
    001172  aa  040 040 040 040
    001173  aa  040 040 040 040
    001174  aa  040 040 040 040

                                   133
                                   134  	status_entry	23,(EDAC Performed);

    001175  aa  105 104 101 103         m23:	aci	"EDAC Performed",24
    001176  aa  040 120 145 162
    001177  aa  146 157 162 155
    001200  aa  145 144 040 040
    001201  aa  040 040 040 040
    001202  aa  040 040 040 040

                                   135
                                   136  	status_entry	24,(Data Parity);

    001203  aa  104 141 164 141         m24:	aci	"Data Parity",24
    001204  aa  040 120 141 162
    001205  aa  151 164 171 040
    001206  aa  040 040 040 040
    001207  aa  040 040 040 040
    001210  aa  040 040 040 040

                                   137
                                   138  	end

NO LITERALS

NAME DEFINITIONS FOR ENTRY POINTS AND SEGDEFS

    001212  5a   000003 000000
    001213  5a   000032 600000
    001214  aa   000000 000000
    001215  55   000013 000002
    001216  5a   000002 400003
    001217  55   000006 000013
    001220  aa  023 146 144 151
    001221  aa  163 153 137 163
    001222  aa  164 141 164 165
    001223  aa  163 137 164 141
    001224  aa  142 154 145 137
    001225  55   000023 000003
    001226  0a   000000 400000
    001227  55   000016 000003
    001230  aa  023 146 144 151         fdisk_status_table_
    001231  aa  163 153 137 163
    001232  aa  164 141 164 165
    001233  aa  163 137 164 141
    001234  aa  142 154 145 137
    001235  55   000002 000013
    001236  6a   000000 400002
    001237  55   000026 000003
    001240  aa  014 163 171 155         symbol_table
    001241  aa  142 157 154 137
    001242  aa  164 141 142 154
    001243  aa  145 000 000 000

DEFINITIONS HASH TABLE

    001244  aa   000000 000015
    001245  aa   000000 000000
    001246  aa   000000 000000
    001247  aa   000000 000000
    001250  aa   000000 000000
    001251  aa   000000 000000
    001252  5a   000013 000000
    001253  5a   000023 000000
    001254  aa   000000 000000
    001255  aa   000000 000000
    001256  aa   000000 000000
    001257  aa   000000 000000
    001260  aa   000000 000000
    001261  aa   000000 000000

NO EXTERNAL NAMES

NO TRAP POINTER WORDS

TYPE PAIR BLOCKS

    001262  aa   000001 000000
    001263  aa   000000 000000

INTERNAL EXPRESSION WORDS

LINKAGE INFORMATION

    000000  aa   000000 000000
    000001  0a   001212 000000
    000002  aa   000000 000000
    000003  aa   000000 000000
    000004  aa   000000 000000
    000005  aa   000000 000000
    000006  22   000010 000010
    000007  a2   000000 000000
SYMBOL INFORMATION

SYMBOL TABLE HEADER

    000000  aa   000000 000001
    000001  aa   163171 155142
    000002  aa   164162 145145
    000003  aa   000000 000010
    000004  aa   000000 117244
    000005  aa   361023 525721
    000006  aa   000000 122257
    000007  aa   137044 474214
    000010  aa   141154 155040
    000011  aa   040040 040040
    000012  aa   000024 000040
    000013  aa   000034 000040
    000014  aa   000044 000100
    000015  aa   000002 000002
    000016  aa   000064 000000
    000017  aa   000000 000217
    000020  aa   000000 000125
    000021  aa   000201 000176
    000022  aa   000210 000125
    000023  aa   000064 000000
    000024  aa   101114 115040
    000025  aa   126145 162163
    000026  aa   151157 156040
    000027  aa   070056 061064
    000030  aa   040115 141162
    000031  aa   143150 040061
    000032  aa   071070 071040
    000033  aa   040040 040040
    000034  aa   127101 101156
    000035  aa   144145 162163
    000036  aa   157156 056123
    000037  aa   171163 115141
    000040  aa   151156 164056
    000041  aa   141040 040040
    000042  aa   040040 040040
    000043  aa   040040 040040
    000044  aa   055164 141162
    000045  aa   147145 164040
    000046  aa   154066 070040
    000047  aa   040040 040040
    000050  aa   040040 040040
    000051  aa   040040 040040
    000052  aa   040040 040040
    000053  aa   040040 040040
    000054  aa   040040 040040
    000055  aa   040040 040040
    000056  aa   040154 151163
    000057  aa   164040 163171
    000060  aa   155142 157154
    000061  aa   163040 040040
    000062  aa   040040 040040
    000063  aa   040040 040040
    000064  aa   000000 000001
    000065  aa   000000 000002
    000066  aa   000076 000070
    000067  aa   222562 627033
    000070  aa   000000 122257
    000071  aa   135760 200000
    000072  aa   000114 000042
    000073  aa   176620 613347
    000074  aa   000000 112131
    000075  aa   265211 400000
    000076  aa   076163 160145          >special_ldd>install>MR12.5-1037>fdisk_status_table_.alm
    000077  aa   143151 141154
    000100  aa   137154 144144
    000101  aa   076151 156163
    000102  aa   164141 154154
    000103  aa   076115 122061
    000104  aa   062056 065055
    000105  aa   061060 063067
    000106  aa   076146 144151
    000107  aa   163153 137163
    000110  aa   164141 164165
    000111  aa   163137 164141
    000112  aa   142154 145137
    000113  aa   056141 154155
    000114  aa   076154 144144          >ldd>include>status_table.incl.alm
    000115  aa   076151 156143
    000116  aa   154165 144145
    000117  aa   076163 164141
    000120  aa   164165 163137
    000121  aa   164141 142154
    000122  aa   145056 151156
    000123  aa   143154 056141
    000124  aa   154155 040040
               MULTICS ASSEMBLY CROSS REFERENCE LISTING

   Value        Symbol                   Source file   Line number

      400000    bk                       fdisk_status_table_:       24,   41,   42,   58,   59,   61,   62,   63,   69,   70,
                                                                    71,   94,  101,  108.
       20000    eurc_nobk                fdisk_status_table_:       24.
           0    fdisk_status_table_      fdisk_status_table_:       24.
       40000    hlt                      fdisk_status_table_:       24,   48,   49,   50,   51,   52,   60,   80,   81,   82,
                                                                    93,  102,  103,  104,  105,  106,  107,  113,  117,  118,
                                                                   119,  120,  121,  122,  125.
      200000    in                       fdisk_status_table_:       24.
           6    lm1                      fdisk_status_table_:       24,   30,   31,   32,   33,   34,   35.
           3    lm11                     fdisk_status_table_:       24,   93,   94,   95.
          10    lm12                     fdisk_status_table_:       24,  101,  102,  103,  104,  105,  106,  107,  108.
           1    lm14                     fdisk_status_table_:       24,  113.
           0    lm17                     fdisk_status_table_:       24.
           6    lm18                     fdisk_status_table_:       24,  117,  118,  119,  120,  121,  122.
           1    lm19                     fdisk_status_table_:       24,  125.
           2    lm2                      fdisk_status_table_:       24,   41,   42.
           0    lm20                     fdisk_status_table_:       24.
           0    lm21                     fdisk_status_table_:       24.
           0    lm22                     fdisk_status_table_:       24.
           0    lm23                     fdisk_status_table_:       24.
           0    lm24                     fdisk_status_table_:       24.
           5    lm3                      fdisk_status_table_:       24,   48,   49,   50,   51,   52.
           6    lm4                      fdisk_status_table_:       24,   58,   59,   60,   61,   62,   63.
           6    lm5                      fdisk_status_table_:       24,   69,   70,   71,   72,   73,   74.
           3    lm6                      fdisk_status_table_:       24,   80,   81,   82.
           0    lm9                      fdisk_status_table_:       24.
          30    m1                       fdisk_status_table_:       24,   28.
         566    m11                      fdisk_status_table_:       24,   91.
         635    m12                      fdisk_status_table_:       24,   99.
         773    m14                      fdisk_status_table_:       24,  111.
        1014    m17                      fdisk_status_table_:       24,  114.
        1022    m18                      fdisk_status_table_:       24,  116.
        1132    m19                      fdisk_status_table_:       24,  124.
         140    m2                       fdisk_status_table_:       24,   39.
        1153    m20                      fdisk_status_table_:       24,  127.
        1161    m21                      fdisk_status_table_:       24,  129.
        1167    m22                      fdisk_status_table_:       24,  131.
        1175    m23                      fdisk_status_table_:       24,  133.
        1203    m24                      fdisk_status_table_:       24,  135.
         174    m3                       fdisk_status_table_:       24,   46.
         271    m4                       fdisk_status_table_:       24,   56.
         401    m5                       fdisk_status_table_:       24,   67.
         511    m6                       fdisk_status_table_:       24,   78.
         560    m9                       fdisk_status_table_:       24,   86.
      100000    rp                       fdisk_status_table_:       24,   41,   42,   48,   49,   50,   51,   52,   58,   59,
                                                                    60,   61,   62,   63,   69,   70,   71,   72,   73,   74,
                                                                    80,   81,   82,   93,   94,   95,  101,  102,  103,  104,
                                                                   105,  106,  107,  108,  113,  117,  118,  119,  120,  121,
                                                                   122,  125.


NO FATAL ERRORS


                                          -----------------------------------------------------------


Historical Background

This edition of the Multics software materials and documentation is provided and donated
to Massachusetts Institute of Technology by Group BULL including BULL HN Information Systems Inc.
as a contribution to computer science knowledge.
This donation is made also to give evidence of the common contributions of Massachusetts Institute of Technology,
Bell Laboratories, General Electric, Honeywell Information Systems Inc., Honeywell BULL Inc., Groupe BULL
and BULL HN Information Systems Inc. to the development of this operating system.
Multics development was initiated by Massachusetts Institute of Technology Project MAC (1963-1970),
renamed the MIT Laboratory for Computer Science and Artificial Intelligence in the mid 1970s, under the leadership
of Professor Fernando Jose Corbato. Users consider that Multics provided the best software architecture
for managing computer hardware properly and for executing programs. Many subsequent operating systems
incorporated Multics principles.
Multics was distributed in 1975 to 2000 by Group Bull in Europe , and in the U.S. by Bull HN Information Systems Inc.,
as successor in interest by change in name only to Honeywell Bull Inc. and Honeywell Information Systems Inc. .

                                          -----------------------------------------------------------

Permission to use, copy, modify, and distribute these programs and their documentation for any purpose and without
fee is hereby granted,provided that the below copyright notice and historical background appear in all copies
and that both the copyright notice and historical background and this permission notice appear in supporting
documentation, and that the names of MIT, HIS, BULL or BULL HN not be used in advertising or publicity pertaining
to distribution of the programs without specific prior written permission.
    Copyright 1972 by Massachusetts Institute of Technology and Honeywell Information Systems Inc.
    Copyright 2006 by BULL HN Information Systems Inc.
    Copyright 2006 by Bull SAS
    All Rights Reserved
