ASSEMBLY LISTING OF SEGMENT >dumps>old>recomp>fliptab.alm
ASSEMBLED ON:	11/15/82  1753.0 mst Mon
OPTIONS USED:	list
ASSEMBLED BY:	ALM Version  6.4  April 1981
ASSEMBLER CREATED:	11/03/82  1423.6 mst Wed

                                     1  " ***********************************************************
                                     2  " *                                                         *
                                     3  " * Copyright, (C) Honeywell Information Systems Inc., 1982 *
                                     4  " *                                                         *
                                     5  " * Copyright (c) 1972 by Massachusetts Institute of        *
                                     6  " * Technology and Honeywell Information Systems, Inc.      *
                                     7  " *                                                         *
                                     8  " ***********************************************************
                                     9
    000000                          10  	name	fliptab
                                    11
                        000000      12  	segdef	flip_codes
                                    13
    000000                          14  flip_codes:
    000000  aa   777777 777700      15  	oct	777777777700
    000001  aa   777777 777700      16  	oct	777777777700
    000002  aa   777777 777700      17  	oct	777777777700
    000003  aa   777777 777700      18  	oct	777777777700
    000004  aa   777777 777700      19  	oct	777777777700
    000005  aa   777777 777700      20  	oct	777777777700
    000006  aa   777777 777700      21  	oct	777777777700
    000007  aa   777777 777700      22  	oct	777777777700
    000010  aa   777777 777700      23  	oct	777777777700
    000011  aa   777777 777700      24  	oct	777777777700
    000012  aa   777777 777700      25  	oct	777777777700
    000013  aa   777777 777700      26  	oct	777777777700
    000014  aa   777777 777700      27  	oct	777777777700
    000015  aa   777777 777700      28  	oct	777777777700
    000016  aa   777777 777700      29  	oct	777777777700
    000017  aa   777777 777700      30  	oct	777777777700
                                    31
    000020  aa   777777 777700      32  	oct	777777777700
    000021  aa   777777 777700      33  	oct	777777777700
    000022  aa   777777 777700      34  	oct	777777777700
    000023  aa   777777 777700      35  	oct	777777777700
    000024  aa   777777 777700      36  	oct	777777777700
    000025  aa   777777 777700      37  	oct	777777777700
    000026  aa   777777 777700      38  	oct	777777777700
    000027  aa   777777 777700      39  	oct	777777777700
    000030  aa   777777 777700      40  	oct	777777777700
    000031  aa   777777 777700      41  	oct	777777777700
    000032  aa   777777 777700      42  	oct	777777777700
    000033  aa   777777 777700      43  	oct	777777777700
    000034  aa   777777 777700      44  	oct	777777777700
    000035  aa   777777 777700      45  	oct	777777777700
    000036  aa   777777 777700      46  	oct	777777777700
    000037  aa   777777 777700      47  	oct	777777777700
                                    48
    000040  aa   000000 000000      49  	oct	000000000000
    000041  aa   777777 777700      50  	oct	777777777700
    000042  aa   777777 777700      51  	oct	777777777700
    000043  aa   777777 777700      52  	oct	777777777700
    000044  aa   777777 777700      53  	oct	777777777700
    000045  aa   777777 777700      54  	oct	777777777700
    000046  aa   777777 777700      55  	oct	777777777700
    000047  aa   000004 102000      56  	oct	000004102000
    000050  aa   000412 210000      57  	oct	000412210000
    000051  aa   002112 040000      58  	oct	002112040000
    000052  aa   777777 777700      59  	oct	777777777700
    000053  aa   777777 777700      60  	oct	777777777700
    000054  aa   777777 777700      61  	oct	777777777700
    000055  aa   000404 040000      62  	oct	000404040000
    000056  aa   000303 030000      63  	oct	000303030000
    000057  aa   010204 102000      64  	oct	010204102000
                                    65
    000060  aa   162121 211600      66  	oct	162121211600
    000061  aa   001000 370000      67  	oct	001000370000
    000062  aa   232525 253500      68  	oct	232525253500
    000063  aa   212525 253700      69  	oct	212525253700
    000064  aa   340404 043700      70  	oct	340404043700
    000065  aa   352525 252200      71  	oct	352525252200
    000066  aa   370505 050700      72  	oct	370505050700
    000067  aa   202122 243000      73  	oct	202122243000
    000070  aa   122525 251200      74  	oct	122525251200
    000071  aa   342424 243700      75  	oct	342424243700
    000072  aa   777777 777700      76  	oct	777777777700
    000073  aa   777777 777700      77  	oct	777777777700
    000074  aa   040012 002100      78  	oct	040012002100
    000075  aa   777777 777700      79  	oct	777777777700
    000076  aa   210012 000400      80  	oct	210012000400
    000077  aa   777777 777700      81  	oct	777777777700
                                    82
    000100  aa   777777 777700      83  	oct	777777777700
    000101  aa   372424 243700      84  	oct	372424243700
    000102  aa   372525 251200      85  	oct	372525251200
    000103  aa   372121 212100      86  	oct	372121212100
    000104  aa   372121 211600      87  	oct	372121211600
    000105  aa   372525 252100      88  	oct	372525252100
    000106  aa   372424 242000      89  	oct	372424242000
    000107  aa   372121 252700      90  	oct	372121252700
    000110  aa   370404 043700      91  	oct	370404043700
    000111  aa   212137 212100      92  	oct	212137212100
    000112  aa   030101 013700      93  	oct	030101013700
    000113  aa   370404 122100      94  	oct	370404122100
    000114  aa   370101 010100      95  	oct	370101010100
    000115  aa   371004 103700      96  	oct	371004103700
    000116  aa   371004 023700      97  	oct	371004023700
    000117  aa   372121 213700      98  	oct	372121213700
                                    99
    000120  aa   372424 243400     100  	oct	372424243400
    000121  aa   372125 233700     101  	oct	372125233700
    000122  aa   372424 263500     102  	oct	372424263500
    000123  aa   352525 252700     103  	oct	352525252700
    000124  aa   202037 202000     104  	oct	202037202000
    000125  aa   370101 013700     105  	oct	370101013700
    000126  aa   300601 063000     106  	oct	300601063000
    000127  aa   370204 023700     107  	oct	370204023700
    000130  aa   211204 122100     108  	oct	211204122100
    000131  aa   201007 102000     109  	oct	201007102000
    000132  aa   212725 352100     110  	oct	212725352100
    000133  aa   372121 000000     111  	oct	372121000000
    000134  aa   777777 777700     112  	oct	777777777700
    000135  aa   000021 213700     113  	oct	000021213700
    000136  aa   777777 777700     114  	oct	777777777700
    000137  aa   010101 010100     115  	oct	010101010100
                                   116
    000140  aa   777777 777700     117  	oct	777777777700
    000141  aa   372424 243700     118  	oct	372424243700
    000142  aa   372525 251200     119  	oct	372525251200
    000143  aa   372121 212100     120  	oct	372121212100
    000144  aa   372121 211600     121  	oct	372121211600
    000145  aa   372525 252100     122  	oct	372525252100
    000146  aa   372424 242000     123  	oct	372424242000
    000147  aa   372121 252700     124  	oct	372121252700
    000150  aa   370404 043700     125  	oct	370404043700
    000151  aa   212137 212100     126  	oct	212137212100
    000152  aa   030101 013700     127  	oct	030101013700
    000153  aa   370404 122100     128  	oct	370404122100
    000154  aa   370101 010100     129  	oct	370101010100
    000155  aa   371004 103700     130  	oct	371004103700
    000156  aa   371004 023700     131  	oct	371004023700
    000157  aa   372121 213700     132  	oct	372121213700
                                   133
    000160  aa   372424 243400     134  	oct	372424243400
    000161  aa   372125 233700     135  	oct	372125233700
    000162  aa   372424 263500     136  	oct	372424263500
    000163  aa   352525 252700     137  	oct	352525252700
    000164  aa   202037 202000     138  	oct	202037202000
    000165  aa   370101 013700     139  	oct	370101013700
    000166  aa   300601 063000     140  	oct	300601063000
    000167  aa   370204 023700     141  	oct	370204023700
    000170  aa   211204 122100     142  	oct	211204122100
    000171  aa   201007 102000     143  	oct	201007102000
    000172  aa   212725 352100     144  	oct	212725352100
    000173  aa   777777 777700     145  	oct	777777777700
    000174  aa   777777 777700     146  	oct	777777777700
    000175  aa   777777 777700     147  	oct	777777777700
    000176  aa   777777 777700     148  	oct	777777777700
    000177  aa   777777 777700     149  	oct	777777777700
                                   150
                                   151
                                   152  	end

NO LITERALS

NAME DEFINITIONS FOR ENTRY POINTS AND SEGDEFS

    000200  5a   000003 000000
    000201  5a   000025 600000
    000202  aa   000000 000000
    000203  55   000010 000002
    000204  5a   000002 400003
    000205  55   000006 000010
    000206  aa  007 146 154 151
    000207  aa  160 164 141 142
    000210  55   000016 000003
    000211  0a   000000 400000
    000212  55   000013 000003
    000213  aa  012 146 154 151         flip_codes
    000214  aa  160 137 143 157
    000215  aa  144 145 163 000
    000216  55   000002 000010
    000217  6a   000000 400002
    000220  55   000021 000003
    000221  aa  014 163 171 155         symbol_table
    000222  aa  142 157 154 137
    000223  aa  164 141 142 154
    000224  aa  145 000 000 000

DEFINITIONS HASH TABLE

    000225  aa   000000 000015
    000226  aa   000000 000000
    000227  aa   000000 000000
    000230  aa   000000 000000
    000231  aa   000000 000000
    000232  aa   000000 000000
    000233  aa   000000 000000
    000234  5a   000016 000000
    000235  aa   000000 000000
    000236  aa   000000 000000
    000237  aa   000000 000000
    000240  aa   000000 000000
    000241  aa   000000 000000
    000242  5a   000010 000000

NO EXTERNAL NAMES

NO TRAP POINTER WORDS

TYPE PAIR BLOCKS

    000243  aa   000001 000000
    000244  aa   000000 000000

INTERNAL EXPRESSION WORDS

    000245  aa   000000 000000
LINKAGE INFORMATION

    000000  aa   000000 000000
    000001  0a   000200 000000
    000002  aa   000000 000000
    000003  aa   000000 000000
    000004  aa   000000 000000
    000005  aa   000000 000000
    000006  22   000010 000010
    000007  a2   000000 000000
SYMBOL INFORMATION

SYMBOL TABLE HEADER

    000000  aa   000000 000001
    000001  aa   163171 155142
    000002  aa   164162 145145
    000003  aa   000000 000004
    000004  aa   000000 111316
    000005  aa   510113 575622
    000006  aa   000000 111335
    000007  aa   722424 520336
    000010  aa   141154 155040
    000011  aa   040040 040040
    000012  aa   000024 000040
    000013  aa   000034 000040
    000014  aa   000044 000100
    000015  aa   000002 000002
    000016  aa   000064 000000
    000017  aa   000000 000125
    000020  aa   000000 000102
    000021  aa   000000 000114
    000022  aa   000117 000102
    000023  aa   000064 000000
    000024  aa   101114 115040
    000025  aa   126145 162163
    000026  aa   151157 156040
    000027  aa   040066 056064
    000030  aa   040040 101160
    000031  aa   162151 154040
    000032  aa   061071 070061
    000033  aa   040040 040040
    000034  aa   110157 154155
    000035  aa   163164 145144
    000036  aa   164056 123171
    000037  aa   163115 141151
    000040  aa   156164 056155
    000041  aa   040040 040040
    000042  aa   040040 040040
    000043  aa   040040 040040
    000044  aa   154151 163164
    000045  aa   040040 040040
    000046  aa   040040 040040
    000047  aa   040040 040040
    000050  aa   040040 040040
    000051  aa   040040 040040
    000052  aa   040040 040040
    000053  aa   040040 040040
    000054  aa   040040 040040
    000055  aa   040040 040040
    000056  aa   040040 040040
    000057  aa   040040 040040
    000060  aa   040040 040040
    000061  aa   040040 040040
    000062  aa   040040 040040
    000063  aa   040040 040040
    000064  aa   000000 000001
    000065  aa   000000 000001
    000066  aa   000072 000035
    000067  aa   113331 136126
    000070  aa   000000 111335
    000071  aa   623503 600000
    000072  aa   076144 165155          >dumps>old>recomp>fliptab.alm
    000073  aa   160163 076157
    000074  aa   154144 076162
    000075  aa   145143 157155
    000076  aa   160076 146154
    000077  aa   151160 164141
    000100  aa   142056 141154
    000101  aa   155040 040040
               MULTICS ASSEMBLY CROSS REFERENCE LISTING

   Value        Symbol                   Source file   Line number

           0    flip_codes               fliptab:       12,   14.


NO FATAL ERRORS


                                          -----------------------------------------------------------


Historical Background

This edition of the Multics software materials and documentation is provided and donated
to Massachusetts Institute of Technology by Group BULL including BULL HN Information Systems Inc.
as a contribution to computer science knowledge.
This donation is made also to give evidence of the common contributions of Massachusetts Institute of Technology,
Bell Laboratories, General Electric, Honeywell Information Systems Inc., Honeywell BULL Inc., Groupe BULL
and BULL HN Information Systems Inc. to the development of this operating system.
Multics development was initiated by Massachusetts Institute of Technology Project MAC (1963-1970),
renamed the MIT Laboratory for Computer Science and Artificial Intelligence in the mid 1970s, under the leadership
of Professor Fernando Jose Corbato. Users consider that Multics provided the best software architecture
for managing computer hardware properly and for executing programs. Many subsequent operating systems
incorporated Multics principles.
Multics was distributed in 1975 to 2000 by Group Bull in Europe , and in the U.S. by Bull HN Information Systems Inc.,
as successor in interest by change in name only to Honeywell Bull Inc. and Honeywell Information Systems Inc. .

                                          -----------------------------------------------------------

Permission to use, copy, modify, and distribute these programs and their documentation for any purpose and without
fee is hereby granted,provided that the below copyright notice and historical background appear in all copies
and that both the copyright notice and historical background and this permission notice appear in supporting
documentation, and that the names of MIT, HIS, BULL or BULL HN not be used in advertising or publicity pertaining
to distribution of the programs without specific prior written permission.
    Copyright 1972 by Massachusetts Institute of Technology and Honeywell Information Systems Inc.
    Copyright 2006 by BULL HN Information Systems Inc.
    Copyright 2006 by Bull SAS
    All Rights Reserved
