ASSEMBLY LISTING OF SEGMENT >dumps>old>recomp>flipper_.alm
ASSEMBLED ON:	11/15/82  1752.9 mst Mon
OPTIONS USED:	list
ASSEMBLED BY:	ALM Version  6.4  April 1981
ASSEMBLER CREATED:	11/03/82  1423.6 mst Wed

                                     1  " ***********************************************************
                                     2  " *                                                         *
                                     3  " * Copyright, (C) Honeywell Information Systems Inc., 1982 *
                                     4  " *                                                         *
                                     5  " * Copyright (c) 1972 by Massachusetts Institute of        *
                                     6  " * Technology and Honeywell Information Systems, Inc.      *
                                     7  " *                                                         *
                                     8  " ***********************************************************
                                     9
                                    10  "	"	"	"	"	"	"	"	"
                                    11  "
                                    12  "	This is the I/O switch transfer vector for the flipper outer module.
                                    13  "
                                    14  "	"	"	"	"	"	"	"	"
                                    15
    000000                          16  	name	flipper_
                        000000      17  	entry	flipper_module,flippermodule
                                    18
    000000                          19  	segref	card_dim,card_attach,card_detach
    000000                          20  	segref	card_dim,card_changemode,card_order
    000000                          21  	segref	flipper_dim,flipper_write,flipper_getsize
    000000                          22  	segref	ios_,no_entry
                                    23
    000000                          24  flipper_module: flippermodule:
    000000  0a   000001 7100 16     25  	tra	*+1,6
                                    26
    000001  4a  4 00010 7101 20     27  	tra	card_attach
    000002  4a  4 00012 7101 20     28  	tra	card_detach
    000003  4a  4 00014 7101 20     29  	tra	no_entry
    000004  4a  4 00016 7101 20     30  	tra	flipper_write
    000005  4a  4 00014 7101 20     31  	tra	no_entry
    000006  4a  4 00020 7101 20     32  	tra	card_order
    000007  4a  4 00014 7101 20     33  	tra	no_entry
    000010  4a  4 00014 7101 20     34  	tra	no_entry
    000011  4a  4 00014 7101 20     35  	tra	no_entry
    000012  4a  4 00022 7101 20     36  	tra	flipper_getsize
    000013  4a  4 00014 7101 20     37  	tra	no_entry
    000014  4a  4 00014 7101 20     38  	tra	no_entry
    000015  4a  4 00014 7101 20     39  	tra	no_entry
    000016  4a  4 00014 7101 20     40  	tra	no_entry
    000017  4a  4 00024 7101 20     41  	tra	card_changemode
    000020  4a  4 00014 7101 20     42  	tra	no_entry
    000021  4a  4 00014 7101 20     43  	tra	no_entry
    000022  4a  4 00014 7101 20     44  	tra	no_entry
    000023  4a  4 00014 7101 20     45  	tra	no_entry
    000024  4a  4 00014 7101 20     46  	tra	no_entry
    000025  4a  4 00014 7101 20     47  	tra	no_entry
                                    48
                                    49  	end	flipper_
ENTRY SEQUENCES

    000026  5a   000020 0000 00
    000027  aa  7 00046 2721 20
    000030  0a   000000 7100 00
    000031  5a   000011 0000 00
    000032  aa  7 00046 2721 20
    000033  0a   000000 7100 00

NO LITERALS

NAME DEFINITIONS FOR ENTRY POINTS AND SEGDEFS

    000034  5a   000003 000000
    000035  5a   000036 600000
    000036  aa   000000 000000
    000037  55   000011 000002
    000040  5a   000002 400003
    000041  55   000006 000011
    000042  aa  010 146 154 151
    000043  aa  160 160 145 162
    000044  aa  137 000 000 000
    000045  55   000020 000003
    000046  0a   000032 500000
    000047  55   000014 000003
    000050  aa  015 146 154 151         flippermodule
    000051  aa  160 160 145 162
    000052  aa  155 157 144 165
    000053  aa  154 145 000 000
    000054  55   000027 000011
    000055  0a   000027 500000
    000056  55   000023 000003
    000057  aa  016 146 154 151         flipper_module
    000060  aa  160 160 145 162
    000061  aa  137 155 157 144
    000062  aa  165 154 145 000
    000063  55   000002 000020
    000064  6a   000000 400002
    000065  55   000032 000003
    000066  aa  014 163 171 155         symbol_table
    000067  aa  142 157 154 137
    000070  aa  164 141 142 154
    000071  aa  145 000 000 000

DEFINITIONS HASH TABLE

    000072  aa   000000 000015
    000073  aa   000000 000000
    000074  aa   000000 000000
    000075  aa   000000 000000
    000076  aa   000000 000000
    000077  aa   000000 000000
    000100  5a   000020 000000
    000101  5a   000027 000000
    000102  aa   000000 000000
    000103  aa   000000 000000
    000104  aa   000000 000000
    000105  5a   000011 000000
    000106  aa   000000 000000
    000107  aa   000000 000000

EXTERNAL NAMES

    000110  aa  010 156 157 137         no_entry
    000111  aa  145 156 164 162
    000112  aa  171 000 000 000
    000113  aa  004 151 157 163         ios_
    000114  aa  137 000 000 000
    000115  aa  017 146 154 151         flipper_getsize
    000116  aa  160 160 145 162
    000117  aa  137 147 145 164
    000120  aa  163 151 172 145
    000121  aa  015 146 154 151         flipper_write
    000122  aa  160 160 145 162
    000123  aa  137 167 162 151
    000124  aa  164 145 000 000
    000125  aa  013 146 154 151         flipper_dim
    000126  aa  160 160 145 162
    000127  aa  137 144 151 155
    000130  aa  012 143 141 162         card_order
    000131  aa  144 137 157 162
    000132  aa  144 145 162 000
    000133  aa  017 143 141 162         card_changemode
    000134  aa  144 137 143 150
    000135  aa  141 156 147 145
    000136  aa  155 157 144 145
    000137  aa  013 143 141 162         card_detach
    000140  aa  144 137 144 145
    000141  aa  164 141 143 150
    000142  aa  013 143 141 162         card_attach
    000143  aa  144 137 141 164
    000144  aa  164 141 143 150
    000145  aa  010 143 141 162         card_dim
    000146  aa  144 137 144 151
    000147  aa  155 000 000 000

NO TRAP POINTER WORDS

TYPE PAIR BLOCKS

    000150  aa   000004 000000
    000151  55   000057 000054
    000152  aa   000004 000000
    000153  55   000071 000061
    000154  aa   000004 000000
    000155  55   000071 000065
    000156  aa   000004 000000
    000157  55   000111 000074
    000160  aa   000004 000000
    000161  55   000111 000077
    000162  aa   000004 000000
    000163  55   000111 000103
    000164  aa   000004 000000
    000165  55   000111 000106
    000166  aa   000001 000000
    000167  aa   000000 000000

INTERNAL EXPRESSION WORDS

    000170  5a   000124 000000
    000171  5a   000116 000000
    000172  5a   000122 000000
    000173  5a   000120 000000
    000174  5a   000114 000000
    000175  5a   000126 000000
    000176  5a   000130 000000
    000177  aa   000000 000000
LINKAGE INFORMATION

    000000  aa   000000 000000
    000001  0a   000034 000000
    000002  aa   000000 000000
    000003  aa   000000 000000
    000004  aa   000000 000000
    000005  aa   000000 000000
    000006  22   000010 000026
    000007  a2   000000 000000
    000010  9a   777770 0000 46         card_dim|card_attach
    000011  5a   000142 0000 00
    000012  9a   777766 0000 46         card_dim|card_detach
    000013  5a   000141 0000 00
    000014  9a   777764 0000 46         ios_|no_entry
    000015  5a   000140 0000 00
    000016  9a   777762 0000 46         flipper_dim|flipper_write
    000017  5a   000137 0000 00
    000020  9a   777760 0000 46         card_dim|card_order
    000021  5a   000136 0000 00
    000022  9a   777756 0000 46         flipper_dim|flipper_getsize
    000023  5a   000135 0000 00
    000024  9a   777754 0000 46         card_dim|card_changemode
    000025  5a   000134 0000 00
SYMBOL INFORMATION

SYMBOL TABLE HEADER

    000000  aa   000000 000001
    000001  aa   163171 155142
    000002  aa   164162 145145
    000003  aa   000000 000004
    000004  aa   000000 111316
    000005  aa   510113 575622
    000006  aa   000000 111335
    000007  aa   722354 505200
    000010  aa   141154 155040
    000011  aa   040040 040040
    000012  aa   000024 000040
    000013  aa   000034 000040
    000014  aa   000044 000100
    000015  aa   000002 000002
    000016  aa   000064 000000
    000017  aa   000000 000125
    000020  aa   000000 000102
    000021  aa   000000 000111
    000022  aa   000117 000102
    000023  aa   000064 000000
    000024  aa   101114 115040
    000025  aa   126145 162163
    000026  aa   151157 156040
    000027  aa   040066 056064
    000030  aa   040040 101160
    000031  aa   162151 154040
    000032  aa   061071 070061
    000033  aa   040040 040040
    000034  aa   110157 154155
    000035  aa   163164 145144
    000036  aa   164056 123171
    000037  aa   163115 141151
    000040  aa   156164 056155
    000041  aa   040040 040040
    000042  aa   040040 040040
    000043  aa   040040 040040
    000044  aa   154151 163164
    000045  aa   040040 040040
    000046  aa   040040 040040
    000047  aa   040040 040040
    000050  aa   040040 040040
    000051  aa   040040 040040
    000052  aa   040040 040040
    000053  aa   040040 040040
    000054  aa   040040 040040
    000055  aa   040040 040040
    000056  aa   040040 040040
    000057  aa   040040 040040
    000060  aa   040040 040040
    000061  aa   040040 040040
    000062  aa   040040 040040
    000063  aa   040040 040040
    000064  aa   000000 000001
    000065  aa   000000 000001
    000066  aa   000072 000036
    000067  aa   113331 136115
    000070  aa   000000 111335
    000071  aa   623316 400000
    000072  aa   076144 165155          >dumps>old>recomp>flipper_.alm
    000073  aa   160163 076157
    000074  aa   154144 076162
    000075  aa   145143 157155
    000076  aa   160076 146154
    000077  aa   151160 160145
    000100  aa   162137 056141
    000101  aa   154155 040040
               MULTICS ASSEMBLY CROSS REFERENCE LISTING

   Value        Symbol                   Source file   Line number

                card_attach              flipper_:      19,   27.
                card_changemode          flipper_:      20,   41.
                card_detach              flipper_:      19,   28.
                card_dim                 flipper_:      19,   20.
                card_order               flipper_:      20,   32.
           0    flippermodule            flipper_:      17,   24.
                flipper_dim              flipper_:      21.
                flipper_getsize          flipper_:      21,   36.
           0    flipper_module           flipper_:      17,   24.
                flipper_write            flipper_:      21,   30.
                ios_                     flipper_:      22.
                no_entry                 flipper_:      22,   29,   31,   33,   34,   35,   37,   38,   39,   40,   42,   43,
                                                        44,   45,   46,   47.


NO FATAL ERRORS


                                          -----------------------------------------------------------


Historical Background

This edition of the Multics software materials and documentation is provided and donated
to Massachusetts Institute of Technology by Group BULL including BULL HN Information Systems Inc.
as a contribution to computer science knowledge.
This donation is made also to give evidence of the common contributions of Massachusetts Institute of Technology,
Bell Laboratories, General Electric, Honeywell Information Systems Inc., Honeywell BULL Inc., Groupe BULL
and BULL HN Information Systems Inc. to the development of this operating system.
Multics development was initiated by Massachusetts Institute of Technology Project MAC (1963-1970),
renamed the MIT Laboratory for Computer Science and Artificial Intelligence in the mid 1970s, under the leadership
of Professor Fernando Jose Corbato. Users consider that Multics provided the best software architecture
for managing computer hardware properly and for executing programs. Many subsequent operating systems
incorporated Multics principles.
Multics was distributed in 1975 to 2000 by Group Bull in Europe , and in the U.S. by Bull HN Information Systems Inc.,
as successor in interest by change in name only to Honeywell Bull Inc. and Honeywell Information Systems Inc. .

                                          -----------------------------------------------------------

Permission to use, copy, modify, and distribute these programs and their documentation for any purpose and without
fee is hereby granted,provided that the below copyright notice and historical background appear in all copies
and that both the copyright notice and historical background and this permission notice appear in supporting
documentation, and that the names of MIT, HIS, BULL or BULL HN not be used in advertising or publicity pertaining
to distribution of the programs without specific prior written permission.
    Copyright 1972 by Massachusetts Institute of Technology and Honeywell Information Systems Inc.
    Copyright 2006 by BULL HN Information Systems Inc.
    Copyright 2006 by Bull SAS
    All Rights Reserved
