ASSEMBLY LISTING OF SEGMENT >dumps>old>recomp>format_dump_line_.alm
ASSEMBLED ON:	11/15/82  1753.7 mst Mon
OPTIONS USED:	list
ASSEMBLED BY:	ALM Version  6.4  April 1981
ASSEMBLER CREATED:	11/03/82  1423.6 mst Wed

                                     1  " ***********************************************************
                                     2  " *                                                         *
                                     3  " * Copyright, (C) Honeywell Information Systems Inc., 1982 *
                                     4  " *                                                         *
                                     5  " * Copyright (c) 1972 by Massachusetts Institute of        *
                                     6  " * Technology and Honeywell Information Systems, Inc.      *
                                     7  " *                                                         *
                                     8  " ***********************************************************
                                     9
                                    10
    000000                          11  	name	format_dump_line_
                                    12
                        000000      13  	entry	format_dump_line_
                        000475      14  	segdef	line_size		for od_print_
                                    15
                                    16  " dcl format_dump_line_ entry(ptr)
                                    17
                                    18  " call format_dump_line_(bufp)
                                    19
                                    20  " Gets input data from caller of its caller
                                    21
                        060060      22  	bool	two_zeroes,060060	Will be OR'ed in
                        177177      23  	bool	two_pad,177177	Will be shifted
                                    24
                        000000      25  	set	get,0
                        000005      26  	set	put,5
                                    27
    000000                          28  format_dump_line_:
    000000  aa  0 00002 3521 20     29  	eppbp	ap|2,*
    000001  aa  2 00000 3521 20     30  	eppbp	bp|0,*		Load pointer to buffer
                                    31
    000002  0a   000473 2350 00     32  	lda	two_sp_pad	Get two blanks
    000003  aa  2 00010 7551 00     33  	sta	bp|put+3
    000004  aa  2 00014 7551 00     34  	sta	bp|put+7
    000005  aa  2 00020 7551 00     35  	sta	bp|put+11
    000006  aa  2 00024 7551 00     36  	sta	bp|put+15
    000007  aa  2 00030 7551 00     37  	sta	bp|put+19
    000010  aa  2 00034 7551 00     38  	sta	bp|put+23
    000011  aa  2 00040 7551 00     39  	sta	bp|put+27
                                    40
    000012  0a   000474 2350 00     41  	lda	nl
    000013  aa  2 00044 7551 00     42  	sta	bp|put+31
                                    43
    000014  0a   000472 2360 00     44  	ldq	blanks		Get four blanks
    000015  aa  2 00004 7561 00     45  	stq	bp|4		Separation between loc fields and 8-words
                                    46
    000016  aa  6 00032 3501 20     47  	eppap	sp|26,*		Get arg ptr of caller
    000017  aa  0 00002 2351 20     48  	lda	ap|2,*		Convert "abs_loc"
    000020  0a   000043 6040 00     49  	tmi	set_blanks	Not relevant, store blanks in field
    000021  aa   000000 0110 03     50  	even;	lrl	3
    000022  aa   000003 7730 00
    000023  aa   000006 7720 00     51  	qrl	6
    000024  aa   000003 7730 00     52  	lrl	3
    000025  aa   000006 7720 00     53  	qrl	6
    000026  aa   060060 2760 03     54  	orq	two_zeroes,du
    000027  aa  2 00001 7561 00     55  	stq	bp|1
    000030  aa   000003 7730 00     56  	lrl	3
    000031  aa   000006 7720 00     57  	qrl	6
    000032  aa   000003 7730 00     58  	lrl	3
    000033  aa   000006 7720 00     59  	qrl	6
    000034  aa   000003 7730 00     60  	lrl	3
    000035  aa   000006 7720 00     61  	qrl	6
    000036  aa   000003 7730 00     62  	lrl	3
    000037  aa   000006 7720 00     63  	qrl	6
    000040  0a   000471 2760 00     64  	orq	zeroes
    000041  aa  2 00000 7561 00     65  	stq	bp|0
                                    66
    000042  0a   000045 7100 00     67  	tra	pick_loc		Now format offset within seg
                                    68
    000043                          69  set_blanks:
                                    70  " No absolute location, stuff in eight blanks
    000043  aa  2 00000 7561 00     71  	stq	bp|0
    000044  aa  2 00001 7561 00     72  	stq	bp|1
                                    73
    000045                          74  pick_loc:				" Convert offset value
    000045  aa  0 00004 2351 20     75  	lda	ap|4,*		Second arg
    000046  aa   177177 6360 00     76  	eaq	two_pad		Initialize
    000047  aa   000000 0110 03     77  	even;	lrl	3
    000050  aa   000003 7730 00
    000051  aa   000006 7720 00     78  	qrl	6
    000052  aa   000003 7730 00     79  	lrl	3
    000053  aa   000006 7720 00     80  	qrl	6
    000054  aa   060060 2760 03     81  	orq	two_zeroes,du
    000055  aa  2 00003 7561 00     82  	stq	bp|3
                                    83
    000056  aa   000003 7730 00     84  	lrl	3
    000057  aa   000006 7720 00     85  	qrl	6
    000060  aa   000003 7730 00     86  	lrl	3
    000061  aa   000006 7720 00     87  	qrl	6
    000062  aa   000003 7730 00     88  	lrl	3
    000063  aa   000006 7720 00     89  	qrl	6
    000064  aa   000003 7730 00     90  	lrl	3
    000065  aa   000006 7720 00     91  	qrl	6
    000066  0a   000471 2760 00     92  	orq	zeroes
    000067  aa  2 00002 7561 00     93  	stq	bp|2
                                    94
    000070  aa  0 00006 3501 20     95  	eppap	ap|6,*		Get pointer to data
    000071  aa  0 00000 2351 00     96  	lda	ap|get
                                    97  	even;	lrl	3
    000072  aa   000003 7730 00
    000073  aa   000006 7720 00     98  	qrl	6
    000074  aa   000003 7730 00     99  	lrl	3
    000075  aa   000006 7720 00    100  	qrl	6
    000076  aa   000003 7730 00    101  	lrl	3
    000077  aa   000006 7720 00    102  	qrl	6
    000100  aa   000003 7730 00    103  	lrl	3
    000101  aa   000006 7720 00    104  	qrl	6
    000102  0a   000471 2760 00    105  	orq	zeroes
    000103  aa  2 00007 7561 00    106  	stq	bp|put+2
    000104  aa   000003 7730 00    107  	lrl	3
    000105  aa   000006 7720 00    108  	qrl	6
    000106  aa   000003 7730 00    109  	lrl	3
    000107  aa   000006 7720 00    110  	qrl	6
    000110  aa   000003 7730 00    111  	lrl	3
    000111  aa   000006 7720 00    112  	qrl	6
    000112  aa   000003 7730 00    113  	lrl	3
    000113  aa   000006 7720 00    114  	qrl	6
    000114  0a   000471 2760 00    115  	orq	zeroes
    000115  aa  2 00006 7561 00    116  	stq	bp|put+1
    000116  aa   000003 7730 00    117  	lrl	3
    000117  aa   000006 7720 00    118  	qrl	6
    000120  aa   000003 7730 00    119  	lrl	3
    000121  aa   000006 7720 00    120  	qrl	6
    000122  aa   000003 7730 00    121  	lrl	3
    000123  aa   000006 7720 00    122  	qrl	6
    000124  aa   000003 7730 00    123  	lrl	3
    000125  aa   000006 7720 00    124  	qrl	6
    000126  0a   000471 2760 00    125  	orq	zeroes
    000127  aa  2 00005 7561 00    126  	stq	bp|put+0
                                   127
                        000001     128  	set	get,get+1
                        000011     129  	set	put,put+4
                                   130
    000130  aa  0 00001 2351 00    131  	lda	ap|get
    000131  aa   000000 0110 03    132  	even;	lrl	3
    000132  aa   000003 7730 00
    000133  aa   000006 7720 00    133  	qrl	6
    000134  aa   000003 7730 00    134  	lrl	3
    000135  aa   000006 7720 00    135  	qrl	6
    000136  aa   000003 7730 00    136  	lrl	3
    000137  aa   000006 7720 00    137  	qrl	6
    000140  aa   000003 7730 00    138  	lrl	3
    000141  aa   000006 7720 00    139  	qrl	6
    000142  0a   000471 2760 00    140  	orq	zeroes
    000143  aa  2 00013 7561 00    141  	stq	bp|put+2
    000144  aa   000003 7730 00    142  	lrl	3
    000145  aa   000006 7720 00    143  	qrl	6
    000146  aa   000003 7730 00    144  	lrl	3
    000147  aa   000006 7720 00    145  	qrl	6
    000150  aa   000003 7730 00    146  	lrl	3
    000151  aa   000006 7720 00    147  	qrl	6
    000152  aa   000003 7730 00    148  	lrl	3
    000153  aa   000006 7720 00    149  	qrl	6
    000154  0a   000471 2760 00    150  	orq	zeroes
    000155  aa  2 00012 7561 00    151  	stq	bp|put+1
    000156  aa   000003 7730 00    152  	lrl	3
    000157  aa   000006 7720 00    153  	qrl	6
    000160  aa   000003 7730 00    154  	lrl	3
    000161  aa   000006 7720 00    155  	qrl	6
    000162  aa   000003 7730 00    156  	lrl	3
    000163  aa   000006 7720 00    157  	qrl	6
    000164  aa   000003 7730 00    158  	lrl	3
    000165  aa   000006 7720 00    159  	qrl	6
    000166  0a   000471 2760 00    160  	orq	zeroes
    000167  aa  2 00011 7561 00    161  	stq	bp|put+0
                                   162
                        000002     163  	set	get,get+1
                        000015     164  	set	put,put+4
                                   165
    000170  aa  0 00002 2351 00    166  	lda	ap|get
    000171  aa   000000 0110 03    167  	even;	lrl	3
    000172  aa   000003 7730 00
    000173  aa   000006 7720 00    168  	qrl	6
    000174  aa   000003 7730 00    169  	lrl	3
    000175  aa   000006 7720 00    170  	qrl	6
    000176  aa   000003 7730 00    171  	lrl	3
    000177  aa   000006 7720 00    172  	qrl	6
    000200  aa   000003 7730 00    173  	lrl	3
    000201  aa   000006 7720 00    174  	qrl	6
    000202  0a   000471 2760 00    175  	orq	zeroes
    000203  aa  2 00017 7561 00    176  	stq	bp|put+2
    000204  aa   000003 7730 00    177  	lrl	3
    000205  aa   000006 7720 00    178  	qrl	6
    000206  aa   000003 7730 00    179  	lrl	3
    000207  aa   000006 7720 00    180  	qrl	6
    000210  aa   000003 7730 00    181  	lrl	3
    000211  aa   000006 7720 00    182  	qrl	6
    000212  aa   000003 7730 00    183  	lrl	3
    000213  aa   000006 7720 00    184  	qrl	6
    000214  0a   000471 2760 00    185  	orq	zeroes
    000215  aa  2 00016 7561 00    186  	stq	bp|put+1
    000216  aa   000003 7730 00    187  	lrl	3
    000217  aa   000006 7720 00    188  	qrl	6
    000220  aa   000003 7730 00    189  	lrl	3
    000221  aa   000006 7720 00    190  	qrl	6
    000222  aa   000003 7730 00    191  	lrl	3
    000223  aa   000006 7720 00    192  	qrl	6
    000224  aa   000003 7730 00    193  	lrl	3
    000225  aa   000006 7720 00    194  	qrl	6
    000226  0a   000471 2760 00    195  	orq	zeroes
    000227  aa  2 00015 7561 00    196  	stq	bp|put+0
                                   197
                        000003     198  	set	get,get+1
                        000021     199  	set	put,put+4
                                   200
    000230  aa  0 00003 2351 00    201  	lda	ap|get
    000231  aa   000000 0110 03    202  	even;	lrl	3
    000232  aa   000003 7730 00
    000233  aa   000006 7720 00    203  	qrl	6
    000234  aa   000003 7730 00    204  	lrl	3
    000235  aa   000006 7720 00    205  	qrl	6
    000236  aa   000003 7730 00    206  	lrl	3
    000237  aa   000006 7720 00    207  	qrl	6
    000240  aa   000003 7730 00    208  	lrl	3
    000241  aa   000006 7720 00    209  	qrl	6
    000242  0a   000471 2760 00    210  	orq	zeroes
    000243  aa  2 00023 7561 00    211  	stq	bp|put+2
    000244  aa   000003 7730 00    212  	lrl	3
    000245  aa   000006 7720 00    213  	qrl	6
    000246  aa   000003 7730 00    214  	lrl	3
    000247  aa   000006 7720 00    215  	qrl	6
    000250  aa   000003 7730 00    216  	lrl	3
    000251  aa   000006 7720 00    217  	qrl	6
    000252  aa   000003 7730 00    218  	lrl	3
    000253  aa   000006 7720 00    219  	qrl	6
    000254  0a   000471 2760 00    220  	orq	zeroes
    000255  aa  2 00022 7561 00    221  	stq	bp|put+1
    000256  aa   000003 7730 00    222  	lrl	3
    000257  aa   000006 7720 00    223  	qrl	6
    000260  aa   000003 7730 00    224  	lrl	3
    000261  aa   000006 7720 00    225  	qrl	6
    000262  aa   000003 7730 00    226  	lrl	3
    000263  aa   000006 7720 00    227  	qrl	6
    000264  aa   000003 7730 00    228  	lrl	3
    000265  aa   000006 7720 00    229  	qrl	6
    000266  0a   000471 2760 00    230  	orq	zeroes
    000267  aa  2 00021 7561 00    231  	stq	bp|put+0
                                   232
                        000004     233  	set	get,get+1
                        000025     234  	set	put,put+4
                                   235
    000270  aa  0 00004 2351 00    236  	lda	ap|get
    000271  aa   000000 0110 03    237  	even;	lrl	3
    000272  aa   000003 7730 00
    000273  aa   000006 7720 00    238  	qrl	6
    000274  aa   000003 7730 00    239  	lrl	3
    000275  aa   000006 7720 00    240  	qrl	6
    000276  aa   000003 7730 00    241  	lrl	3
    000277  aa   000006 7720 00    242  	qrl	6
    000300  aa   000003 7730 00    243  	lrl	3
    000301  aa   000006 7720 00    244  	qrl	6
    000302  0a   000471 2760 00    245  	orq	zeroes
    000303  aa  2 00027 7561 00    246  	stq	bp|put+2
    000304  aa   000003 7730 00    247  	lrl	3
    000305  aa   000006 7720 00    248  	qrl	6
    000306  aa   000003 7730 00    249  	lrl	3
    000307  aa   000006 7720 00    250  	qrl	6
    000310  aa   000003 7730 00    251  	lrl	3
    000311  aa   000006 7720 00    252  	qrl	6
    000312  aa   000003 7730 00    253  	lrl	3
    000313  aa   000006 7720 00    254  	qrl	6
    000314  0a   000471 2760 00    255  	orq	zeroes
    000315  aa  2 00026 7561 00    256  	stq	bp|put+1
    000316  aa   000003 7730 00    257  	lrl	3
    000317  aa   000006 7720 00    258  	qrl	6
    000320  aa   000003 7730 00    259  	lrl	3
    000321  aa   000006 7720 00    260  	qrl	6
    000322  aa   000003 7730 00    261  	lrl	3
    000323  aa   000006 7720 00    262  	qrl	6
    000324  aa   000003 7730 00    263  	lrl	3
    000325  aa   000006 7720 00    264  	qrl	6
    000326  0a   000471 2760 00    265  	orq	zeroes
    000327  aa  2 00025 7561 00    266  	stq	bp|put+0
                                   267
                        000005     268  	set	get,get+1
                        000031     269  	set	put,put+4
                                   270
    000330  aa  0 00005 2351 00    271  	lda	ap|get
    000331  aa   000000 0110 03    272  	even;	lrl	3
    000332  aa   000003 7730 00
    000333  aa   000006 7720 00    273  	qrl	6
    000334  aa   000003 7730 00    274  	lrl	3
    000335  aa   000006 7720 00    275  	qrl	6
    000336  aa   000003 7730 00    276  	lrl	3
    000337  aa   000006 7720 00    277  	qrl	6
    000340  aa   000003 7730 00    278  	lrl	3
    000341  aa   000006 7720 00    279  	qrl	6
    000342  0a   000471 2760 00    280  	orq	zeroes
    000343  aa  2 00033 7561 00    281  	stq	bp|put+2
    000344  aa   000003 7730 00    282  	lrl	3
    000345  aa   000006 7720 00    283  	qrl	6
    000346  aa   000003 7730 00    284  	lrl	3
    000347  aa   000006 7720 00    285  	qrl	6
    000350  aa   000003 7730 00    286  	lrl	3
    000351  aa   000006 7720 00    287  	qrl	6
    000352  aa   000003 7730 00    288  	lrl	3
    000353  aa   000006 7720 00    289  	qrl	6
    000354  0a   000471 2760 00    290  	orq	zeroes
    000355  aa  2 00032 7561 00    291  	stq	bp|put+1
    000356  aa   000003 7730 00    292  	lrl	3
    000357  aa   000006 7720 00    293  	qrl	6
    000360  aa   000003 7730 00    294  	lrl	3
    000361  aa   000006 7720 00    295  	qrl	6
    000362  aa   000003 7730 00    296  	lrl	3
    000363  aa   000006 7720 00    297  	qrl	6
    000364  aa   000003 7730 00    298  	lrl	3
    000365  aa   000006 7720 00    299  	qrl	6
    000366  0a   000471 2760 00    300  	orq	zeroes
    000367  aa  2 00031 7561 00    301  	stq	bp|put+0
                                   302
                        000006     303  	set	get,get+1
                        000035     304  	set	put,put+4
                                   305
    000370  aa  0 00006 2351 00    306  	lda	ap|get
    000371  aa   000000 0110 03    307  	even;	lrl	3
    000372  aa   000003 7730 00
    000373  aa   000006 7720 00    308  	qrl	6
    000374  aa   000003 7730 00    309  	lrl	3
    000375  aa   000006 7720 00    310  	qrl	6
    000376  aa   000003 7730 00    311  	lrl	3
    000377  aa   000006 7720 00    312  	qrl	6
    000400  aa   000003 7730 00    313  	lrl	3
    000401  aa   000006 7720 00    314  	qrl	6
    000402  0a   000471 2760 00    315  	orq	zeroes
    000403  aa  2 00037 7561 00    316  	stq	bp|put+2
    000404  aa   000003 7730 00    317  	lrl	3
    000405  aa   000006 7720 00    318  	qrl	6
    000406  aa   000003 7730 00    319  	lrl	3
    000407  aa   000006 7720 00    320  	qrl	6
    000410  aa   000003 7730 00    321  	lrl	3
    000411  aa   000006 7720 00    322  	qrl	6
    000412  aa   000003 7730 00    323  	lrl	3
    000413  aa   000006 7720 00    324  	qrl	6
    000414  0a   000471 2760 00    325  	orq	zeroes
    000415  aa  2 00036 7561 00    326  	stq	bp|put+1
    000416  aa   000003 7730 00    327  	lrl	3
    000417  aa   000006 7720 00    328  	qrl	6
    000420  aa   000003 7730 00    329  	lrl	3
    000421  aa   000006 7720 00    330  	qrl	6
    000422  aa   000003 7730 00    331  	lrl	3
    000423  aa   000006 7720 00    332  	qrl	6
    000424  aa   000003 7730 00    333  	lrl	3
    000425  aa   000006 7720 00    334  	qrl	6
    000426  0a   000471 2760 00    335  	orq	zeroes
    000427  aa  2 00035 7561 00    336  	stq	bp|put+0
                                   337
                        000007     338  	set	get,get+1
                        000041     339  	set	put,put+4
                                   340
    000430  aa  0 00007 2351 00    341  	lda	ap|get
    000431  aa   000000 0110 03    342  	even;	lrl	3
    000432  aa   000003 7730 00
    000433  aa   000006 7720 00    343  	qrl	6
    000434  aa   000003 7730 00    344  	lrl	3
    000435  aa   000006 7720 00    345  	qrl	6
    000436  aa   000003 7730 00    346  	lrl	3
    000437  aa   000006 7720 00    347  	qrl	6
    000440  aa   000003 7730 00    348  	lrl	3
    000441  aa   000006 7720 00    349  	qrl	6
    000442  0a   000471 2760 00    350  	orq	zeroes
    000443  aa  2 00043 7561 00    351  	stq	bp|put+2
    000444  aa   000003 7730 00    352  	lrl	3
    000445  aa   000006 7720 00    353  	qrl	6
    000446  aa   000003 7730 00    354  	lrl	3
    000447  aa   000006 7720 00    355  	qrl	6
    000450  aa   000003 7730 00    356  	lrl	3
    000451  aa   000006 7720 00    357  	qrl	6
    000452  aa   000003 7730 00    358  	lrl	3
    000453  aa   000006 7720 00    359  	qrl	6
    000454  0a   000471 2760 00    360  	orq	zeroes
    000455  aa  2 00042 7561 00    361  	stq	bp|put+1
    000456  aa   000003 7730 00    362  	lrl	3
    000457  aa   000006 7720 00    363  	qrl	6
    000460  aa   000003 7730 00    364  	lrl	3
    000461  aa   000006 7720 00    365  	qrl	6
    000462  aa   000003 7730 00    366  	lrl	3
    000463  aa   000006 7720 00    367  	qrl	6
    000464  aa   000003 7730 00    368  	lrl	3
    000465  aa   000006 7720 00    369  	qrl	6
    000466  0a   000471 2760 00    370  	orq	zeroes
    000467  aa  2 00041 7561 00    371  	stq	bp|put+0
                                   372
                        000045     373  	set	put,put+4		One last update
                                   374
    000470  aa  7 00044 7101 20    375  	short_return
                                   376
    000471  aa  060 060 060 060    377  zeroes:	aci	"0000"
    000472  aa  040 040 040 040    378  blanks:	aci	"    "		Four blanks
                                   379
    000473                         380  two_sp_pad:
    000473  aa   177177 040040     381  	vfd	o36/177177040040	Two blanks between formatted words
                                   382
    000474  aa   177177 177012     383  nl:	vfd	o36/177177177012	NL char plus padding
                                   384
    000475                         385  line_size:
    000475  aa   000000 000045     386  	vfd	36/put		Last updated value is size of buffer
                                   387
                                   388  	end	format_dump_line_	
ENTRY SEQUENCES

    000476  5a   000021 0000 00
    000477  aa  7 00046 2721 20
    000500  0a   000000 7100 00

NO LITERALS

NAME DEFINITIONS FOR ENTRY POINTS AND SEGDEFS

    000502  5a   000003 000000
    000503  5a   000040 600000
    000504  aa   000000 000000
    000505  55   000013 000002
    000506  5a   000002 400003
    000507  55   000006 000013
    000510  aa  021 146 157 162
    000511  aa  155 141 164 137
    000512  aa  144 165 155 160
    000513  aa  137 154 151 156
    000514  aa  145 137 000 000
    000515  55   000021 000003
    000516  0a   000475 400000
    000517  55   000016 000003
    000520  aa  011 154 151 156         line_size
    000521  aa  145 137 163 151
    000522  aa  172 145 000 000
    000523  55   000031 000013
    000524  0a   000477 500000
    000525  55   000024 000003
    000526  aa  021 146 157 162         format_dump_line_
    000527  aa  155 141 164 137
    000530  aa  144 165 155 160
    000531  aa  137 154 151 156
    000532  aa  145 137 000 000
    000533  55   000002 000021
    000534  6a   000000 400002
    000535  55   000034 000003
    000536  aa  014 163 171 155         symbol_table
    000537  aa  142 157 154 137
    000540  aa  164 141 142 154
    000541  aa  145 000 000 000

DEFINITIONS HASH TABLE

    000542  aa   000000 000015
    000543  aa   000000 000000
    000544  5a   000013 000000
    000545  5a   000021 000000
    000546  aa   000000 000000
    000547  aa   000000 000000
    000550  aa   000000 000000
    000551  5a   000031 000000
    000552  aa   000000 000000
    000553  aa   000000 000000
    000554  aa   000000 000000
    000555  aa   000000 000000
    000556  aa   000000 000000
    000557  aa   000000 000000

NO EXTERNAL NAMES

NO TRAP POINTER WORDS

TYPE PAIR BLOCKS

    000560  aa   000001 000000
    000561  aa   000000 000000

INTERNAL EXPRESSION WORDS

LINKAGE INFORMATION

    000000  aa   000000 000000
    000001  0a   000502 000000
    000002  aa   000000 000000
    000003  aa   000000 000000
    000004  aa   000000 000000
    000005  aa   000000 000000
    000006  22   000010 000010
    000007  a2   000000 000000
SYMBOL INFORMATION

SYMBOL TABLE HEADER

    000000  aa   000000 000001
    000001  aa   163171 155142
    000002  aa   164162 145145
    000003  aa   000000 000004
    000004  aa   000000 111316
    000005  aa   510113 575622
    000006  aa   000000 111335
    000007  aa   722665 424715
    000010  aa   141154 155040
    000011  aa   040040 040040
    000012  aa   000024 000040
    000013  aa   000034 000040
    000014  aa   000044 000100
    000015  aa   000002 000002
    000016  aa   000064 000000
    000017  aa   000000 000145
    000020  aa   000000 000104
    000021  aa   000000 000134
    000022  aa   000137 000104
    000023  aa   000064 000000
    000024  aa   101114 115040
    000025  aa   126145 162163
    000026  aa   151157 156040
    000027  aa   040066 056064
    000030  aa   040040 101160
    000031  aa   162151 154040
    000032  aa   061071 070061
    000033  aa   040040 040040
    000034  aa   110157 154155
    000035  aa   163164 145144
    000036  aa   164056 123171
    000037  aa   163115 141151
    000040  aa   156164 056155
    000041  aa   040040 040040
    000042  aa   040040 040040
    000043  aa   040040 040040
    000044  aa   154151 163164
    000045  aa   040040 040040
    000046  aa   040040 040040
    000047  aa   040040 040040
    000050  aa   040040 040040
    000051  aa   040040 040040
    000052  aa   040040 040040
    000053  aa   040040 040040
    000054  aa   040040 040040
    000055  aa   040040 040040
    000056  aa   040040 040040
    000057  aa   040040 040040
    000060  aa   040040 040040
    000061  aa   040040 040040
    000062  aa   040040 040040
    000063  aa   040040 040040
    000064  aa   000000 000001
    000065  aa   000000 000001
    000066  aa   000072 000047
    000067  aa   113331 137262
    000070  aa   000000 111335
    000071  aa   624276 200000
    000072  aa   076144 165155          >dumps>old>recomp>format_dump_line_.alm
    000073  aa   160163 076157
    000074  aa   154144 076162
    000075  aa   145143 157155
    000076  aa   160076 146157
    000077  aa   162155 141164
    000100  aa   137144 165155
    000101  aa   160137 154151
    000102  aa   156145 137056
    000103  aa   141154 155040
               MULTICS ASSEMBLY CROSS REFERENCE LISTING

   Value        Symbol                   Source file   Line number

         472    blanks                   format_dump_line_:   44,  378.
           0    format_dump_line_        format_dump_line_:   13,   28.
           7    get                      format_dump_line_:   25,   96,  128,  131,  163,  166,  198,  201,  233,  236,  268,
                                                             271,  303,  306,  338,  341.
         475    line_size                format_dump_line_:   14,  385.
         474    nl                       format_dump_line_:   41,  383.
          45    pick_loc                 format_dump_line_:   67,   74.
          45    put                      format_dump_line_:   26,   33,   34,   35,   36,   37,   38,   39,   42,  106,  116,
                                                             126,  129,  141,  151,  161,  164,  176,  186,  196,  199,  211,
                                                             221,  231,  234,  246,  256,  266,  269,  281,  291,  301,  304,
                                                             316,  326,  336,  339,  351,  361,  371,  373,  386.
          43    set_blanks               format_dump_line_:   49,   69.
      177177    two_pad                  format_dump_line_:   23,   76.
         473    two_sp_pad               format_dump_line_:   32,  380.
       60060    two_zeroes               format_dump_line_:   22,   54,   81.
         471    zeroes                   format_dump_line_:   64,   92,  105,  115,  125,  140,  150,  160,  175,  185,  195,
                                                             210,  220,  230,  245,  255,  265,  280,  290,  300,  315,  325,
                                                             335,  350,  360,  370,  377.


NO FATAL ERRORS


                                          -----------------------------------------------------------


Historical Background

This edition of the Multics software materials and documentation is provided and donated
to Massachusetts Institute of Technology by Group BULL including BULL HN Information Systems Inc.
as a contribution to computer science knowledge.
This donation is made also to give evidence of the common contributions of Massachusetts Institute of Technology,
Bell Laboratories, General Electric, Honeywell Information Systems Inc., Honeywell BULL Inc., Groupe BULL
and BULL HN Information Systems Inc. to the development of this operating system.
Multics development was initiated by Massachusetts Institute of Technology Project MAC (1963-1970),
renamed the MIT Laboratory for Computer Science and Artificial Intelligence in the mid 1970s, under the leadership
of Professor Fernando Jose Corbato. Users consider that Multics provided the best software architecture
for managing computer hardware properly and for executing programs. Many subsequent operating systems
incorporated Multics principles.
Multics was distributed in 1975 to 2000 by Group Bull in Europe , and in the U.S. by Bull HN Information Systems Inc.,
as successor in interest by change in name only to Honeywell Bull Inc. and Honeywell Information Systems Inc. .

                                          -----------------------------------------------------------

Permission to use, copy, modify, and distribute these programs and their documentation for any purpose and without
fee is hereby granted,provided that the below copyright notice and historical background appear in all copies
and that both the copyright notice and historical background and this permission notice appear in supporting
documentation, and that the names of MIT, HIS, BULL or BULL HN not be used in advertising or publicity pertaining
to distribution of the programs without specific prior written permission.
    Copyright 1972 by Massachusetts Institute of Technology and Honeywell Information Systems Inc.
    Copyright 2006 by BULL HN Information Systems Inc.
    Copyright 2006 by Bull SAS
    All Rights Reserved
