ASSEMBLY LISTING OF SEGMENT >dumps>old>recomp>form_.alm
ASSEMBLED ON:	11/15/82  1753.6 mst Mon
OPTIONS USED:	list
ASSEMBLED BY:	ALM Version  6.4  April 1981
ASSEMBLER CREATED:	11/03/82  1423.6 mst Wed

                                     1  " ***********************************************************
                                     2  " *                                                         *
                                     3  " * Copyright, (C) Honeywell Information Systems Inc., 1982 *
                                     4  " *                                                         *
                                     5  " * Copyright (c) 1972 by Massachusetts Institute of        *
                                     6  " * Technology and Honeywell Information Systems, Inc.      *
                                     7  " *                                                         *
                                     8  " ***********************************************************
                                     9
                                    10  "	Outer Module Transfer Vector for the form_ outer module.
                                    11
                        000000      12  	entry	form_module
    000000                          13  form_module:
    000000  0a   000001 7100 16     14  	tra	*+1,6		go to proper transfer instruction
                                    15
    000001  4a  4 00010 7101 20     16  	tra	<form_dim_>|[form_attach]
    000002  4a  4 00012 7101 20     17  	tra	<form_dim_>|[form_detach]
    000003  4a  4 00014 7101 20     18  	tra	<form_dim_>|[form_read]
    000004  4a  4 00016 7101 20     19  	tra	<form_dim_>|[form_write]
    000005  4a  4 00020 7101 20     20  	tra	<form_dim_>|[form_abort]
    000006  4a  4 00022 7101 20     21  	tra	<form_dim_>|[form_order]
    000007  4a  4 00024 7101 20     22  	tra	<form_dim_>|[form_resetread]
    000010  4a  4 00026 7101 20     23  	tra	<form_dim_>|[form_resetwrite]
    000011  4a  4 00030 7101 20     24  	tra	<ios_>|[no_entry]
    000012  4a  4 00032 7101 20     25  	tra	<form_dim_>|[form_getsize]
    000013  4a  4 00030 7101 20     26  	tra	<ios_>|[no_entry]
    000014  4a  4 00030 7101 20     27  	tra	<ios_>|[no_entry]
    000015  4a  4 00030 7101 20     28  	tra	<ios_>|[no_entry]
    000016  4a  4 00030 7101 20     29  	tra	<ios_>|[no_entry]
    000017  4a  4 00034 7101 20     30  	tra	<form_dim_>|[form_changemode]
    000020  4a  4 00030 7101 20     31  	tra	<ios_>|[no_entry]
    000021  4a  4 00030 7101 20     32  	tra	<ios_>|[no_entry]
    000022  4a  4 00030 7101 20     33  	tra	<ios_>|[no_entry]
    000023  4a  4 00030 7101 20     34  	tra	<ios_>|[no_entry]
    000024  4a  4 00030 7101 20     35  	tra	<ios_>|[no_entry]
    000025  4a  4 00030 7101 20     36  	tra	<ios_>|[no_entry]
                                    37
                                    38  	end
ENTRY SEQUENCES

    000026  5a   000010 0000 00
    000027  aa  7 00046 2721 20
    000030  0a   000000 7100 00

NO LITERALS

NAME DEFINITIONS FOR ENTRY POINTS AND SEGDEFS

    000032  5a   000003 000000
    000033  5a   000025 600000
    000034  aa   000000 000000
    000035  55   000010 000002
    000036  5a   000002 400003
    000037  55   000006 000010
    000040  aa  005 146 157 162
    000041  aa  155 137 000 000
    000042  55   000016 000003
    000043  0a   000027 500000
    000044  55   000013 000003
    000045  aa  013 146 157 162         form_module
    000046  aa  155 137 155 157
    000047  aa  144 165 154 145
    000050  55   000002 000010
    000051  6a   000000 400002
    000052  55   000021 000003
    000053  aa  014 163 171 155         symbol_table
    000054  aa  142 157 154 137
    000055  aa  164 141 142 154
    000056  aa  145 000 000 000

DEFINITIONS HASH TABLE

    000057  aa   000000 000015
    000060  aa   000000 000000
    000061  aa   000000 000000
    000062  aa   000000 000000
    000063  aa   000000 000000
    000064  aa   000000 000000
    000065  5a   000010 000000
    000066  5a   000016 000000
    000067  aa   000000 000000
    000070  aa   000000 000000
    000071  aa   000000 000000
    000072  aa   000000 000000
    000073  aa   000000 000000
    000074  aa   000000 000000

EXTERNAL NAMES

    000075  aa  017 146 157 162         form_changemode
    000076  aa  155 137 143 150
    000077  aa  141 156 147 145
    000100  aa  155 157 144 145
    000101  aa  014 146 157 162         form_getsize
    000102  aa  155 137 147 145
    000103  aa  164 163 151 172
    000104  aa  145 000 000 000
    000105  aa  010 156 157 137         no_entry
    000106  aa  145 156 164 162
    000107  aa  171 000 000 000
    000110  aa  004 151 157 163         ios_
    000111  aa  137 000 000 000
    000112  aa  017 146 157 162         form_resetwrite
    000113  aa  155 137 162 145
    000114  aa  163 145 164 167
    000115  aa  162 151 164 145
    000116  aa  016 146 157 162         form_resetread
    000117  aa  155 137 162 145
    000120  aa  163 145 164 162
    000121  aa  145 141 144 000
    000122  aa  012 146 157 162         form_order
    000123  aa  155 137 157 162
    000124  aa  144 145 162 000
    000125  aa  012 146 157 162         form_abort
    000126  aa  155 137 141 142
    000127  aa  157 162 164 000
    000130  aa  012 146 157 162         form_write
    000131  aa  155 137 167 162
    000132  aa  151 164 145 000
    000133  aa  011 146 157 162         form_read
    000134  aa  155 137 162 145
    000135  aa  141 144 000 000
    000136  aa  013 146 157 162         form_detach
    000137  aa  155 137 144 145
    000140  aa  164 141 143 150
    000141  aa  013 146 157 162         form_attach
    000142  aa  155 137 141 164
    000143  aa  164 141 143 150
    000144  aa  011 146 157 162         form_dim_
    000145  aa  155 137 144 151
    000146  aa  155 137 000 000

NO TRAP POINTER WORDS

TYPE PAIR BLOCKS

    000147  aa   000004 000000
    000150  55   000112 000043
    000151  aa   000004 000000
    000152  55   000112 000047
    000153  aa   000004 000000
    000154  55   000056 000053
    000155  aa   000004 000000
    000156  55   000112 000060
    000157  aa   000004 000000
    000160  55   000112 000064
    000161  aa   000004 000000
    000162  55   000112 000070
    000163  aa   000004 000000
    000164  55   000112 000073
    000165  aa   000004 000000
    000166  55   000112 000076
    000167  aa   000004 000000
    000170  55   000112 000101
    000171  aa   000004 000000
    000172  55   000112 000104
    000173  aa   000004 000000
    000174  55   000112 000107
    000175  aa   000001 000000
    000176  aa   000000 000000

INTERNAL EXPRESSION WORDS

    000177  5a   000115 000000
    000200  5a   000117 000000
    000201  5a   000121 000000
    000202  5a   000123 000000
    000203  5a   000125 000000
    000204  5a   000127 000000
    000205  5a   000131 000000
    000206  5a   000133 000000
    000207  5a   000135 000000
    000210  5a   000137 000000
    000211  5a   000141 000000
LINKAGE INFORMATION

    000000  aa   000000 000000
    000001  0a   000032 000000
    000002  aa   000000 000000
    000003  aa   000000 000000
    000004  aa   000000 000000
    000005  aa   000000 000000
    000006  22   000010 000036
    000007  a2   000000 000000
    000010  9a   777770 0000 46         form_dim_|form_attach
    000011  5a   000157 0000 00
    000012  9a   777766 0000 46         form_dim_|form_detach
    000013  5a   000156 0000 00
    000014  9a   777764 0000 46         form_dim_|form_read
    000015  5a   000155 0000 00
    000016  9a   777762 0000 46         form_dim_|form_write
    000017  5a   000154 0000 00
    000020  9a   777760 0000 46         form_dim_|form_abort
    000021  5a   000153 0000 00
    000022  9a   777756 0000 46         form_dim_|form_order
    000023  5a   000152 0000 00
    000024  9a   777754 0000 46         form_dim_|form_resetread
    000025  5a   000151 0000 00
    000026  9a   777752 0000 46         form_dim_|form_resetwrite
    000027  5a   000150 0000 00
    000030  9a   777750 0000 46         ios_|no_entry
    000031  5a   000147 0000 00
    000032  9a   777746 0000 46         form_dim_|form_getsize
    000033  5a   000146 0000 00
    000034  9a   777744 0000 46         form_dim_|form_changemode
    000035  5a   000145 0000 00
SYMBOL INFORMATION

SYMBOL TABLE HEADER

    000000  aa   000000 000001
    000001  aa   163171 155142
    000002  aa   164162 145145
    000003  aa   000000 000004
    000004  aa   000000 111316
    000005  aa   510113 575622
    000006  aa   000000 111335
    000007  aa   722641 735671
    000010  aa   141154 155040
    000011  aa   040040 040040
    000012  aa   000024 000040
    000013  aa   000034 000040
    000014  aa   000044 000100
    000015  aa   000002 000002
    000016  aa   000064 000000
    000017  aa   000000 000125
    000020  aa   000000 000101
    000021  aa   000000 000110
    000022  aa   000117 000101
    000023  aa   000064 000000
    000024  aa   101114 115040
    000025  aa   126145 162163
    000026  aa   151157 156040
    000027  aa   040066 056064
    000030  aa   040040 101160
    000031  aa   162151 154040
    000032  aa   061071 070061
    000033  aa   040040 040040
    000034  aa   110157 154155
    000035  aa   163164 145144
    000036  aa   164056 123171
    000037  aa   163115 141151
    000040  aa   156164 056155
    000041  aa   040040 040040
    000042  aa   040040 040040
    000043  aa   040040 040040
    000044  aa   154151 163164
    000045  aa   040040 040040
    000046  aa   040040 040040
    000047  aa   040040 040040
    000050  aa   040040 040040
    000051  aa   040040 040040
    000052  aa   040040 040040
    000053  aa   040040 040040
    000054  aa   040040 040040
    000055  aa   040040 040040
    000056  aa   040040 040040
    000057  aa   040040 040040
    000060  aa   040040 040040
    000061  aa   040040 040040
    000062  aa   040040 040040
    000063  aa   040040 040040
    000064  aa   000000 000001
    000065  aa   000000 000001
    000066  aa   000072 000033
    000067  aa   113331 136714
    000070  aa   000000 111335
    000071  aa   624216 000000
    000072  aa   076144 165155          >dumps>old>recomp>form_.alm
    000073  aa   160163 076157
    000074  aa   154144 076162
    000075  aa   145143 157155
    000076  aa   160076 146157
    000077  aa   162155 137056
    000100  aa   141154 155040
               MULTICS ASSEMBLY CROSS REFERENCE LISTING

   Value        Symbol                   Source file   Line number

                form_abort               form_:         20.
                form_attach              form_:         16.
                form_changemode          form_:         30.
                form_detach              form_:         17.
                form_dim_                form_:         16,   17,   18,   19,   20,   21,   22,   23,   25,   30.
                form_getsize             form_:         25.
           0    form_module              form_:         12,   13.
                form_order               form_:         21.
                form_read                form_:         18.
                form_resetread           form_:         22.
                form_resetwrite          form_:         23.
                form_write               form_:         19.
                ios_                     form_:         24,   26,   27,   28,   29,   31,   32,   33,   34,   35,   36.
                no_entry                 form_:         24,   26,   27,   28,   29,   31,   32,   33,   34,   35,   36.


NO FATAL ERRORS


                                          -----------------------------------------------------------


Historical Background

This edition of the Multics software materials and documentation is provided and donated
to Massachusetts Institute of Technology by Group BULL including BULL HN Information Systems Inc.
as a contribution to computer science knowledge.
This donation is made also to give evidence of the common contributions of Massachusetts Institute of Technology,
Bell Laboratories, General Electric, Honeywell Information Systems Inc., Honeywell BULL Inc., Groupe BULL
and BULL HN Information Systems Inc. to the development of this operating system.
Multics development was initiated by Massachusetts Institute of Technology Project MAC (1963-1970),
renamed the MIT Laboratory for Computer Science and Artificial Intelligence in the mid 1970s, under the leadership
of Professor Fernando Jose Corbato. Users consider that Multics provided the best software architecture
for managing computer hardware properly and for executing programs. Many subsequent operating systems
incorporated Multics principles.
Multics was distributed in 1975 to 2000 by Group Bull in Europe , and in the U.S. by Bull HN Information Systems Inc.,
as successor in interest by change in name only to Honeywell Bull Inc. and Honeywell Information Systems Inc. .

                                          -----------------------------------------------------------

Permission to use, copy, modify, and distribute these programs and their documentation for any purpose and without
fee is hereby granted,provided that the below copyright notice and historical background appear in all copies
and that both the copyright notice and historical background and this permission notice appear in supporting
documentation, and that the names of MIT, HIS, BULL or BULL HN not be used in advertising or publicity pertaining
to distribution of the programs without specific prior written permission.
    Copyright 1972 by Massachusetts Institute of Technology and Honeywell Information Systems Inc.
    Copyright 2006 by BULL HN Information Systems Inc.
    Copyright 2006 by Bull SAS
    All Rights Reserved
