ASSEMBLY LISTING OF SEGMENT >spec>install>1149>ftp_misc_.alm
ASSEMBLED ON:	10/07/88  1419.2 mst Fri
OPTIONS USED:	-target l68                              list symbols
ASSEMBLED BY:	ALM Version 7.4 April 1987
ASSEMBLER CREATED:	11/02/87  1303.7 mst Mon

                                     1  " *****************************************************
                                     2  " *                                                   *
                                     3  " * Copyright, (C) Honeywell Bull Inc., 1988          *
                                     4  " *                                                   *
                                     5  " * Copyright (C) 1982 by Massachusetts Institute of  *
                                     6  " * Technology and Honeywell Information Systems Inc. *
                                     7  " *                                                   *
                                     8  " *****************************************************
                                     9
                                    10
                                    11  " HISTORY COMMENTS:
                                    12  "  1) change(88-09-19,Fawcett), approve(88-10-05,MCR8010),
                                    13  "     audit(88-10-06,Parisek), install(88-10-07,MR12.2-1149):
                                    14  "     Change from an absolute path name for the overseer to just entry
                                    15  "     name.  This allows the overseer to be found via the search rules.
                                    16  "                                                      END HISTORY COMMENTS
                                    17
                                    18
    000000                          19  name      ftp_misc_
                                    20  " " " " " " " " " " " " " " " " " " " " " " " " " " " " " " " " " " " " " " " "
                                    21
                        000000      22  	segdef    ftp_login_responder
                                    23
    000000                          24  ftp_login_responder:
    000000  aa   000000 000030      25  	dec       24
    000001  aa  164 143 160 137     26  	aci       "tcp_ftp_server_overseer_",168
    000002  aa  146 164 160 137
    000003  aa  163 145 162 166
    000004  aa  145 162 137 157
    000005  aa  166 145 162 163
    000006  aa  145 145 162 137
    000007  aa  040 040 040 040
    000010  aa  040 040 040 040
    000011  aa  040 040 040 040
    000012  aa  040 040 040 040
    000013  aa  040 040 040 040
    000014  aa  040 040 040 040
    000015  aa  040 040 040 040
    000016  aa  040 040 040 040
    000017  aa  040 040 040 040
    000020  aa  040 040 040 040
    000021  aa  040 040 040 040
    000022  aa  040 040 040 040
    000023  aa  040 040 040 040
    000024  aa  040 040 040 040
    000025  aa  040 040 040 040
    000026  aa  040 040 040 040
    000027  aa  040 040 040 040
    000030  aa  040 040 040 040
    000031  aa  040 040 040 040
    000032  aa  040 040 040 040
    000033  aa  040 040 040 040
    000034  aa  040 040 040 040
    000035  aa  040 040 040 040
    000036  aa  040 040 040 040
    000037  aa  040 040 040 040
    000040  aa  040 040 040 040
    000041  aa  040 040 040 040
    000042  aa  040 040 040 040
    000043  aa  040 040 040 040
    000044  aa  040 040 040 040
    000045  aa  040 040 040 040
    000046  aa  040 040 040 040
    000047  aa  040 040 040 040
    000050  aa  040 040 040 040
    000051  aa  040 040 040 040
    000052  aa  040 040 040 040
                                    27
                                    28  	end

NO LITERALS

NAME DEFINITIONS FOR ENTRY POINTS AND SEGDEFS

    000054  5a   000003 000000
    000055  5a   000030 600000
    000056  aa   000000 000000
    000057  55   000011 000002
    000060  5a   000002 400003
    000061  55   000006 000011
    000062  aa  011 146 164 160
    000063  aa  137 155 151 163
    000064  aa  143 137 000 000
    000065  55   000021 000003
    000066  0a   000000 400000
    000067  55   000014 000003
    000070  aa  023 146 164 160         ftp_login_responder
    000071  aa  137 154 157 147
    000072  aa  151 156 137 162
    000073  aa  145 163 160 157
    000074  aa  156 144 145 162
    000075  55   000002 000011
    000076  6a   000000 400002
    000077  55   000024 000003
    000100  aa  014 163 171 155         symbol_table
    000101  aa  142 157 154 137
    000102  aa  164 141 142 154
    000103  aa  145 000 000 000

DEFINITIONS HASH TABLE

    000104  aa   000000 000015
    000105  aa   000000 000000
    000106  5a   000011 000000
    000107  aa   000000 000000
    000110  aa   000000 000000
    000111  aa   000000 000000
    000112  aa   000000 000000
    000113  5a   000021 000000
    000114  aa   000000 000000
    000115  aa   000000 000000
    000116  aa   000000 000000
    000117  aa   000000 000000
    000120  aa   000000 000000
    000121  aa   000000 000000

NO EXTERNAL NAMES

NO TRAP POINTER WORDS

TYPE PAIR BLOCKS

    000122  aa   000001 000000
    000123  aa   000000 000000

INTERNAL EXPRESSION WORDS

LINKAGE INFORMATION

    000000  aa   000000 000000
    000001  0a   000054 000000
    000002  aa   000000 000000
    000003  aa   000000 000000
    000004  aa   000000 000000
    000005  aa   000000 000000
    000006  22   000010 000010
    000007  a2   000000 000000
SYMBOL INFORMATION

SYMBOL TABLE HEADER

    000000  aa   000000 000001
    000001  aa   163171 155142
    000002  aa   164162 145145
    000003  aa   000000 000007
    000004  aa   000000 115705
    000005  aa   073761 335527
    000006  aa   000000 116560
    000007  aa   521772 176150
    000010  aa   141154 155040
    000011  aa   040040 040040
    000012  aa   000024 000040
    000013  aa   000034 000040
    000014  aa   000044 000100
    000015  aa   000002 000002
    000016  aa   000064 000000
    000017  aa   000000 000127
    000020  aa   000000 000102
    000021  aa   000112 000107
    000022  aa   000121 000102
    000023  aa   000064 000000
    000024  aa   101114 115040
    000025  aa   126145 162163
    000026  aa   151157 156040
    000027  aa   067056 064040
    000030  aa   101160 162151
    000031  aa   154040 061071
    000032  aa   070067 040040
    000033  aa   040040 040040
    000034  aa   110151 162156
    000035  aa   145151 163145
    000036  aa   156056 123171
    000037  aa   163115 141151
    000040  aa   156164 056141
    000041  aa   040040 040040
    000042  aa   040040 040040
    000043  aa   040040 040040
    000044  aa   055164 141162
    000045  aa   147145 164040
    000046  aa   154066 070040
    000047  aa   040040 040040
    000050  aa   040040 040040
    000051  aa   040040 040040
    000052  aa   040040 040040
    000053  aa   040040 040040
    000054  aa   040040 040040
    000055  aa   040040 040040
    000056  aa   040154 151163
    000057  aa   164040 163171
    000060  aa   155142 157154
    000061  aa   163040 040040
    000062  aa   040040 040040
    000063  aa   040040 040040
    000064  aa   000000 000001
    000065  aa   000000 000001
    000066  aa   000072 000040
    000067  aa   165602 702046
    000070  aa   000000 116560
    000071  aa   521773 400000
    000072  aa   076163 160145          >spec>install>1149>ftp_misc_.alm
    000073  aa   143076 151156
    000074  aa   163164 141154
    000075  aa   154076 061061
    000076  aa   064071 076146
    000077  aa   164160 137155
    000100  aa   151163 143137
    000101  aa   056141 154155
               MULTICS ASSEMBLY CROSS REFERENCE LISTING

   Value        Symbol                   Source file   Line number

           0    ftp_login_responder      ftp_misc_:     22,   24.


NO FATAL ERRORS


                                          -----------------------------------------------------------


Historical Background

This edition of the Multics software materials and documentation is provided and donated
to Massachusetts Institute of Technology by Group BULL including BULL HN Information Systems Inc.
as a contribution to computer science knowledge.
This donation is made also to give evidence of the common contributions of Massachusetts Institute of Technology,
Bell Laboratories, General Electric, Honeywell Information Systems Inc., Honeywell BULL Inc., Groupe BULL
and BULL HN Information Systems Inc. to the development of this operating system.
Multics development was initiated by Massachusetts Institute of Technology Project MAC (1963-1970),
renamed the MIT Laboratory for Computer Science and Artificial Intelligence in the mid 1970s, under the leadership
of Professor Fernando Jose Corbato. Users consider that Multics provided the best software architecture
for managing computer hardware properly and for executing programs. Many subsequent operating systems
incorporated Multics principles.
Multics was distributed in 1975 to 2000 by Group Bull in Europe , and in the U.S. by Bull HN Information Systems Inc.,
as successor in interest by change in name only to Honeywell Bull Inc. and Honeywell Information Systems Inc. .

                                          -----------------------------------------------------------

Permission to use, copy, modify, and distribute these programs and their documentation for any purpose and without
fee is hereby granted,provided that the below copyright notice and historical background appear in all copies
and that both the copyright notice and historical background and this permission notice appear in supporting
documentation, and that the names of MIT, HIS, BULL or BULL HN not be used in advertising or publicity pertaining
to distribution of the programs without specific prior written permission.
    Copyright 1972 by Massachusetts Institute of Technology and Honeywell Information Systems Inc.
    Copyright 2006 by BULL HN Information Systems Inc.
    Copyright 2006 by Bull SAS
    All Rights Reserved
