ASSEMBLY LISTING OF SEGMENT >spec>temp>41-5>get_astep.alm
ASSEMBLED ON:	01/22/85  1409.0 mst Tue
OPTIONS USED:	list
ASSEMBLED BY:	ALM Version  6.6  November 1982
ASSEMBLER CREATED:	09/21/83  1227.3 mst Wed

                                     1  " ***********************************************************
                                     2  " *                                                         *
                                     3  " * Copyright, (C) Honeywell Information Systems Inc., 1982 *
                                     4  " *                                                         *
                                     5  " * Copyright (c) 1972 by Massachusetts Institute of        *
                                     6  " * Technology and Honeywell Information Systems, Inc.      *
                                     7  " *                                                         *
                                     8  " ***********************************************************
                                     9
    000000                          10  	name	get_astep
                        000000      11  		segdef	get_astep
                        000010      12  	equ	astsize,8
                                    13
                                    14  	include	sst
                                   1-1
                                   1-2
                                   1-3       "BEGIN INCLUDE FILE sst.incl.alm
                                   1-4
                                   1-5
                                   1-6  	"Created 01/14/85  1523.7 est Mon by convert_include_file,
                                   1-7  	"   Version of 01/09/85  0954.4 est Wed.
                                   1-8
                                   1-9  	"Made from >Pool>m>loe>incl>sst.incl.pl1,
                                  1-10  	"   modified 01/09/85  1148.3 est Wed
                                  1-11
                                  1-12  "
                                  1-13  "	Structure sst
                                  1-14  "
                        001000    1-15  	equ	sst_size,512
                                  1-16
                                  1-17
                        000000    1-18  	equ	sst.space,0
                        000010    1-19  	equ	sst.pre_page_time,8		" DOUBLE
                        000012    1-20  	equ	sst.post_purge_time,10	" DOUBLE
                        000014    1-21  	equ	sst.post_in_core,12
                        000015    1-22  	equ	sst.thrashing,13
                        000016    1-23  	equ	sst.npfs_misses,14
                        000017    1-24  	equ	sst.salv,15
                        000020    1-25  	equ	sst.ptl,16
                        000021    1-26  	equ	sst.astl,17
                        000022    1-27  	equ	sst.astl_event,18
                                  1-28
                        000023    1-29  	equ	sst.astl_notify_requested_word,19
                        400000    1-30  	bool	sst.astl_notify_requested,400000 " DU
                                  1-31
                        000024    1-32  	equ	sst.nused,20
                        000025    1-33  	equ	sst.ptwbase,21
                        000026    1-34  	equ	sst.tfreep,22
                        000030    1-35  	equ	sst.astap,24
                        000032    1-36  	equ	sst.ptl_wait_ct,26
                        000033    1-37  	equ	sst.astsize,27
                        000034    1-38  	equ	sst.cmesize,28
                        000036    1-39  	equ	sst.root_astep,30
                        000040    1-40  	equ	sst.pts,32
                        000044    1-41  	equ	sst.level,36		" LEVEL 2
                                  1-42
                        000044    1-43  	equ	sst.ausedp,36		" UPPER
                        000044    1-44  	equ	sst.no_aste,36		" LOWER
                                  1-45
                        000050    1-46  	equ	sst.atempp,40		" UPPER
                        000050    1-47  	equ	sst.atempp1,40		" LOWER
                                  1-48
                        000051    1-49  	equ	sst.dm_enabled_word,41
                        400000    1-50  	bool	sst.dm_enabled,400000	" DU
                                  1-51
                        000052    1-52  	equ	sst.ainitp,42		" UPPER
                        000052    1-53  	equ	sst.ainitp1,42		" LOWER
                                  1-54
                        000053    1-55  	equ	sst.strsize,43
                        000054    1-56  	equ	sst.cmp,44
                                  1-57
                        000056    1-58  	equ	sst.usedp,46		" UPPER
                                  1-59
                        000057    1-60  	equ	sst.wtct,47
                                  1-61
                        000060    1-62  	equ	sst.startp,48		" UPPER
                                  1-63
                        000061    1-64  	equ	sst.removep,49		" UPPER
                                  1-65
                        000062    1-66  	equ	sst.double_write,50
                        000063    1-67  	equ	sst.temp_w_event,51
                        000064    1-68  	equ	sst.root_pvtx,52
                                  1-69
                        000065    1-70  	equ	sst.nolock_word,53
                        400000    1-71  	bool	sst.nolock,400000		" DU
                                  1-72
                        000066    1-73  	equ	sst.fc_skips_pinned,54
                        000067    1-74  	equ	sst.cl_skips_pinned,55
                        000070    1-75  	equ	sst.ast_ht_ptr,56
                        000072    1-76  	equ	sst.ast_ht_n_buckets,58
                        000073    1-77  	equ	sst.ast_ht_uid_mask,59
                        000074    1-78  	equ	sst.meter_ast_locking,60
                        000075    1-79  	equ	sst.checksum_filemap,61
                        000076    1-80  	equ	sst.page_read_errors,62
                        000077    1-81  	equ	sst.page_write_errors,63
                        000100    1-82  	equ	sst.cycle_pv_allocation,64
                        000101    1-83  	equ	sst.n_trailers,65
                        000102    1-84  	equ	sst.synch_activations,66
                        000103    1-85  	equ	sst.synch_skips,67
                        000104    1-86  	equ	sst.lock_waits,68
                        000105    1-87  	equ	sst.total_locks_set,69
                        000106    1-88  	equ	sst.pdir_page_faults,70
                        000107    1-89  	equ	sst.level_1_page_faults,71
                        000110    1-90  	equ	sst.dir_page_faults,72
                        000111    1-91  	equ	sst.ring_0_page_faults,73
                        000112    1-92  	equ	sst.rqover,74
                        000113    1-93  	equ	sst.pc_io_waits,75
                        000114    1-94  	equ	sst.steps,76
                        000115    1-95  	equ	sst.needc,77
                        000116    1-96  	equ	sst.ceiling,78
                        000117    1-97  	equ	sst.ctwait,79
                        000120    1-98  	equ	sst.wired,80
                        000121    1-99  	equ	sst.laps,81
                        000122   1-100  	equ	sst.skipw,82
                        000123   1-101  	equ	sst.skipu,83
                        000124   1-102  	equ	sst.skipm,84
                        000125   1-103  	equ	sst.skipos,85
                        000126   1-104  	equ	sst.aused,86
                        000127   1-105  	equ	sst.damaged_ct,87
                        000130   1-106  	equ	sst.deact_count,88
                        000131   1-107  	equ	sst.demand_deact_attempts,89
                        000132   1-108  	equ	sst.demand_deactivations,90
                        000133   1-109  	equ	sst.reads,91
                        000143   1-110  	equ	sst.writes,99
                        000153   1-111  	equ	sst.short_pf_count,107
                        000154   1-112  	equ	sst.loop_locks,108
                        000156   1-113  	equ	sst.loop_lock_time,110	" DOUBLE
                        000160   1-114  	equ	sst.cpu_sf_time,112		" DOUBLE
                        000162   1-115  	equ	sst.total_sf_pf,114
                        000163   1-116  	equ	sst.total_sf,115
                        000164   1-117  	equ	sst.pre_page_size,116
                        000165   1-118  	equ	sst.post_list_size,117
                        000166   1-119  	equ	sst.post_purgings,118
                        000167   1-120  	equ	sst.post_purge_calls,119
                        000170   1-121  	equ	sst.pre_page_calls,120
                        000171   1-122  	equ	sst.pre_page_list_size,121
                        000172   1-123  	equ	sst.pre_page_misses,122
                        000173   1-124  	equ	sst.pre_pagings,123
                        000174   1-125  	equ	sst.wire_proc_data,124	" DOUBLE
                        000214   1-126  	equ	sst.abs_wired_count,140
                        000215   1-127  	equ	sst.system_type,141
                        000216   1-128  	equ	sst.wired_copies,142
                        000217   1-129  	equ	sst.recopies,143
                        000220   1-130  	equ	sst.first_core_block,144
                        000221   1-131  	equ	sst.last_core_block,145
                        000222   1-132  	equ	sst.fw_retries,146
                        000223   1-133  	equ	sst.pvhtp,147
                        000224   1-134  	equ	sst.askipsize,148
                        000230   1-135  	equ	sst.aneedsize,152
                        000234   1-136  	equ	sst.stepsa,156
                        000235   1-137  	equ	sst.askipsehs,157
                        000236   1-138  	equ	sst.asearches,158
                        000237   1-139  	equ	sst.askipslevel,159
                        000240   1-140  	equ	sst.askipsinit,160
                        000241   1-141  	equ	sst.acost,161
                        000242   1-142  	equ	sst.askipslock,162
                        000243   1-143  	equ	sst.askipdius,163
                        000244   1-144  	equ	sst.alaps,164
                        000245   1-145  	equ	sst.updates,165
                        000246   1-146  	equ	sst.setfaults_all,166
                        000247   1-147  	equ	sst.setfaults_acc,167
                        000250   1-148  	equ	sst.total_bf,168
                        000251   1-149  	equ	sst.total_bf_pf,169
                        000252   1-150  	equ	sst.cpu_bf_time,170		" DOUBLE
                        000254   1-151  	equ	sst.asteps,172
                        000260   1-152  	equ	sst.ast_locked_at_time,176	" DOUBLE
                        000262   1-153  	equ	sst.ast_locked_total_time,178	" DOUBLE
                        000264   1-154  	equ	sst.ast_lock_wait_time,180	" DOUBLE
                        000266   1-155  	equ	sst.ast_locking_count,182
                        000267   1-156  	equ	sst.cleanup_count,183
                        000270   1-157  	equ	sst.cleanup_real_time,184	" DOUBLE
                        000272   1-158  	equ	sst.tree_count,186
                        000372   1-159  	equ	sst.pp_meters,250
                                 1-160
                        000472   1-161  	equ	sst.wusedp,314		" UPPER
                                 1-162
                        000473   1-163  	equ	sst.write_hunts,315
                        000474   1-164  	equ	sst.claim_skip_cme,316
                        000475   1-165  	equ	sst.claim_skip_free,317
                        000476   1-166  	equ	sst.claim_notmod,318
                        000477   1-167  	equ	sst.claim_passed_used,319
                        000500   1-168  	equ	sst.claim_skip_ptw,320
                        000501   1-169  	equ	sst.claim_writes,321
                        000502   1-170  	equ	sst.claim_steps,322
                        000503   1-171  	equ	sst.pre_seeks_failed,323
                        000504   1-172  	equ	sst.resurrections,324
                        000505   1-173  	equ	sst.volmap_seg_page_faults,325
                        000506   1-174  	equ	sst.oopv,326
                        000507   1-175  	equ	sst.dblw_resurrections,327
                        000510   1-176  	equ	sst.sgm_time,328		" DOUBLE
                        000512   1-177  	equ	sst.sgm_pf,330
                        000513   1-178  	equ	sst.bad_sgms,331
                        000514   1-179  	equ	sst.sgm_sgft,332
                        000515   1-180  	equ	sst.good_sgms,333
                        000516   1-181  	equ	sst.claim_runs,334
                        000517   1-182  	equ	sst.activations,335
                        000520   1-183  	equ	sst.dir_activations,336
                        000521   1-184  	equ	sst.hedge_updatevs,337
                        000522   1-185  	equ	sst.hedge_writes,338
                        000523   1-186  	equ	sst.evict_recover_data,339	" LEVEL 2
                                 1-187
                        000523   1-188  	equ	sst.evict_ptp,339		" UPPER
                        000523   1-189  	equ	sst.evict_phmbit,339	" LOWER
                                 1-190
                        000524   1-191  	equ	sst.force_swrites,340
                        000525   1-192  	equ	sst.force_pwrites,341
                        000526   1-193  	equ	sst.fw_none,342
                        000527   1-194  	equ	sst.force_updatevs,343
                        000530   1-195  	equ	sst.pf_unlock_ptl_time,344	" DOUBLE
                        000532   1-196  	equ	sst.pf_unlock_ptl_meterings,346
                        000533   1-197  	equ	sst.makeknown_activations,347
                        000534   1-198  	equ	sst.backup_activations,348
                        000535   1-199  	equ	sst.metering_flags,349	" LEVEL 2
                                 1-200
                        400000   1-201  	bool	sst.activate_activated,400000	" DU
                                 1-202
                        000536   1-203  	equ	sst.seg_fault_calls,350
                        000537   1-204  	equ	sst.stk_truncate_should_didnt,351
                        000540   1-205  	equ	sst.stk_truncate_should_did,352
                        000541   1-206  	equ	sst.stk_truncate_shouldnt_didnt,353
                        000542   1-207  	equ	sst.stk_truncate_shouldnt_did,354
                        000543   1-208  	equ	sst.stk_pages_truncated,355
                        000544   1-209  	equ	sst.stk_pages_truncated_in_core,356
                        000545   1-210  	equ	sst.segmove_lock,357	" LEVEL 2
                                 1-211
                        000545   1-212  	equ	sst.pid,357
                        000546   1-213  	equ	sst.event,358
                                 1-214
                        000547   1-215  	equ	sst.notify_word,359
                        400000   1-216  	bool	sst.notify,400000		" DU
                                 1-217
                        000550   1-218  	equ	sst.segmove_io_limit,360
                        000551   1-219  	equ	sst.segmove_found_synch,361
                        000552   1-220  	equ	sst.segmove_synch_disappeared,362
                        000553   1-221  	equ	sst.segmove_n_reads,363
                        000554   1-222  	equ	sst.segmove_max_tries,364
                        000555   1-223  	equ	sst.segmove_astep,365
                        000556   1-224  	equ	sst.segmove_pvtx,366
                        000557   1-225  	equ	sst.segmove_vtocx,367
                        000560   1-226  	equ	sst.segmove_old_addr_astep,368
                        000561   1-227  	equ	sst.segmove_new_addr_astep,369
                        000562   1-228  	equ	sst.mod_during_write,370
                        000563   1-229  	equ	sst.zero_pages,371
                        000564   1-230  	equ	sst.trace_sw,372		" LEVEL 2
                                 1-231
                        000010   1-232  	bool	sst.pc_trace_pf,000010	" DL
                        000004   1-233  	bool	sst.tty_trace,000004	" DL
                        000002   1-234  	bool	sst.pc_trace,000002		" DL
                        000001   1-235  	bool	sst.sc_trace,000001		" DL
                                 1-236
                        000565   1-237  	equ	sst.new_pages,373
                                 1-238
                        000566   1-239  	equ	sst.ast_track_word,374
                        400000   1-240  	bool	sst.ast_track,400000	" DU
                                 1-241
                        000567   1-242  	equ	sst.dirlock_writebehind,375
                        000570   1-243  	equ	sst.write_limit,376
                                 1-244
                        000571   1-245  	equ	sst.crash_test_segmove_word,377
                        400000   1-246  	bool	sst.crash_test_segmove,400000	" DU
                                 1-247
                        000572   1-248  	equ	sst.delayed_seg_state_chg,378
                        000573   1-249  	equ	sst.audit_seg_state_chg,379
                        000574   1-250  	equ	sst.seg_state_chg_delay,380	" DOUBLE
                        000576   1-251  	equ	sst.seg_state_change_limit,382
                        000577   1-252  	equ	sst.max_seg_state_change_bw,383
                        000600   1-253  	equ	sst.audit_seg_state_change_bw,384
                        000601   1-254  	equ	sst.seg_state_chg_operation,385
                                 1-255
                                 1-256       "END INCLUDE FILE sst.incl.alm
                                    15
    000000                          16  get_astep:
    000000  aa  0 00002 3701 20     17  	epplp	ap|2,*		get pointer to PTP
    000001  aa  4 00000 3705 20     18  	epbplp	lp|0,*		and make it into sstp
    000002  aa  0 00004 6501 20     19  	sprilp	ap|4,*
    000003  aa   000001 2210 03     20  	ldx1	1,du
                                    21
    000004  aa  0 00002 2201 71     22  	ldx0	ap|2,*1		get relative page table pointer
    000005  aa   000002 2350 07     23  	lda	=o2,dl
    000006  aa   777771 6200 10     24  	eax0	-(astsize-1),0	initialize scan counter
    000007  aa   777777 6200 10     25  	eax0	-1,0
    000010  aa  4 00007 3151 10     26  	cana	lp|astsize-1,0	are we at the marker?
    000011  0a   000007 6000 00     27  	tze	*-2
    000012  aa  0 00004 7401 71     28  	stx0	ap|4,*1
    000013  aa  7 00044 7101 20     29  	short_return
                                    30
                                    31  	end

NO LITERALS

NAME DEFINITIONS FOR ENTRY POINTS AND SEGDEFS

    000014  5a   000003 000000
    000015  5a   000026 600000
    000016  aa   000000 000000
    000017  55   000011 000002
    000020  5a   000002 400003
    000021  55   000006 000011
    000022  aa  011 147 145 164
    000023  aa  137 141 163 164
    000024  aa  145 160 000 000
    000025  55   000017 000003
    000026  0a   000000 400000
    000027  55   000014 000003
    000030  aa  011 147 145 164         get_astep
    000031  aa  137 141 163 164
    000032  aa  145 160 000 000
    000033  55   000002 000011
    000034  6a   000000 400002
    000035  55   000022 000003
    000036  aa  014 163 171 155         symbol_table
    000037  aa  142 157 154 137
    000040  aa  164 141 142 154
    000041  aa  145 000 000 000

DEFINITIONS HASH TABLE

    000042  aa   000000 000015
    000043  aa   000000 000000
    000044  aa   000000 000000
    000045  aa   000000 000000
    000046  aa   000000 000000
    000047  aa   000000 000000
    000050  5a   000011 000000
    000051  5a   000017 000000
    000052  aa   000000 000000
    000053  aa   000000 000000
    000054  aa   000000 000000
    000055  aa   000000 000000
    000056  aa   000000 000000
    000057  aa   000000 000000

NO EXTERNAL NAMES

NO TRAP POINTER WORDS

TYPE PAIR BLOCKS

    000060  aa   000001 000000
    000061  aa   000000 000000

INTERNAL EXPRESSION WORDS

LINKAGE INFORMATION

    000000  aa   000000 000000
    000001  0a   000014 000000
    000002  aa   000000 000000
    000003  aa   000000 000000
    000004  aa   000000 000000
    000005  aa   000000 000000
    000006  22   000010 000010
    000007  a2   000000 000000
SYMBOL INFORMATION

SYMBOL TABLE HEADER

    000000  aa   000000 000001
    000001  aa   163171 155142
    000002  aa   164162 145145
    000003  aa   000000 000004
    000004  aa   000000 112143
    000005  aa   305203 523135
    000006  aa   000000 113312
    000007  aa   222640 357142
    000010  aa   141154 155040
    000011  aa   040040 040040
    000012  aa   000024 000040
    000013  aa   000034 000040
    000014  aa   000044 000100
    000015  aa   000002 000002
    000016  aa   000064 000000
    000017  aa   000000 000132
    000020  aa   000000 000115
    000021  aa   000000 000120
    000022  aa   000123 000115
    000023  aa   000064 000000
    000024  aa   101114 115040
    000025  aa   126145 162163
    000026  aa   151157 156040
    000027  aa   040066 056066
    000030  aa   040040 116157
    000031  aa   166145 155142
    000032  aa   145162 040061
    000033  aa   071070 062040
    000034  aa   107112 157150
    000035  aa   156163 157156
    000036  aa   056123 171163
    000037  aa   115141 151156
    000040  aa   164056 155040
    000041  aa   040040 040040
    000042  aa   040040 040040
    000043  aa   040040 040040
    000044  aa   154151 163164
    000045  aa   040040 040040
    000046  aa   040040 040040
    000047  aa   040040 040040
    000050  aa   040040 040040
    000051  aa   040040 040040
    000052  aa   040040 040040
    000053  aa   040040 040040
    000054  aa   040040 040040
    000055  aa   040040 040040
    000056  aa   040040 040040
    000057  aa   040040 040040
    000060  aa   040040 040040
    000061  aa   040040 040040
    000062  aa   040040 040040
    000063  aa   040040 040040
    000064  aa   000000 000001
    000065  aa   000000 000002
    000066  aa   000076 000035
    000067  aa   133055 221036
    000070  aa   000000 113312
    000071  aa   164652 200000
    000072  aa   000106 000034
    000073  aa   133055 222657
    000074  aa   000000 113312
    000075  aa   175456 200000
    000076  aa   076163 160145          >spec>temp>41-5>get_astep.alm
    000077  aa   143076 164145
    000100  aa   155160 076064
    000101  aa   061055 065076
    000102  aa   147145 164137
    000103  aa   141163 164145
    000104  aa   160056 141154
    000105  aa   155040 040040
    000106  aa   076163 160145          >spec>temp>41-5>sst.incl.alm
    000107  aa   143076 164145
    000110  aa   155160 076064
    000111  aa   061055 065076
    000112  aa   163163 164056
    000113  aa   151156 143154
    000114  aa   056141 154155
               MULTICS ASSEMBLY CROSS REFERENCE LISTING

   Value        Symbol                   Source file   Line number

          10    astsize                  get_astep:     12,   24,   26.
           0    get_astep                get_astep:     11,   16.
         214    sst.abs_wired_count      sst:          126.
         241    sst.acost                sst:          141.
      400000    sst.activate_activated   sst:          201.
         517    sst.activations          sst:          182.
          52    sst.ainitp               sst:           52.
          52    sst.ainitp1              sst:           53.
         244    sst.alaps                sst:          144.
         230    sst.aneedsize            sst:          135.
         236    sst.asearches            sst:          138.
         243    sst.askipdius            sst:          143.
         235    sst.askipsehs            sst:          137.
         240    sst.askipsinit           sst:          140.
         224    sst.askipsize            sst:          134.
         237    sst.askipslevel          sst:          139.
         242    sst.askipslock           sst:          142.
          30    sst.astap                sst:           35.
         254    sst.asteps               sst:          151.
          21    sst.astl                 sst:           26.
          22    sst.astl_event           sst:           27.
      400000    sst.astl_notify_requested      sst:           30.
          23    sst.astl_notify_requested_word       sst:           29.
          33    sst.astsize              sst:           37.
          72    sst.ast_ht_n_buckets     sst:           76.
          70    sst.ast_ht_ptr           sst:           75.
          73    sst.ast_ht_uid_mask      sst:           77.
         260    sst.ast_locked_at_time   sst:          152.
         262    sst.ast_locked_total_time      sst:          153.
         266    sst.ast_locking_count    sst:          155.
         264    sst.ast_lock_wait_time   sst:          154.
      400000    sst.ast_track            sst:          240.
         566    sst.ast_track_word       sst:          239.
          50    sst.atempp               sst:           46.
          50    sst.atempp1              sst:           47.
         600    sst.audit_seg_state_change_bw  sst:          253.
         573    sst.audit_seg_state_chg  sst:          249.
         126    sst.aused                sst:          104.
          44    sst.ausedp               sst:           43.
         534    sst.backup_activations   sst:          198.
         513    sst.bad_sgms             sst:          178.
         116    sst.ceiling              sst:           96.
          75    sst.checksum_filemap     sst:           79.
         476    sst.claim_notmod         sst:          166.
         477    sst.claim_passed_used    sst:          167.
         516    sst.claim_runs           sst:          181.
         474    sst.claim_skip_cme       sst:          164.
         475    sst.claim_skip_free      sst:          165.
         500    sst.claim_skip_ptw       sst:          168.
         502    sst.claim_steps          sst:          170.
         501    sst.claim_writes         sst:          169.
         267    sst.cleanup_count        sst:          156.
         270    sst.cleanup_real_time    sst:          157.
          67    sst.cl_skips_pinned      sst:           74.
          34    sst.cmesize              sst:           38.
          54    sst.cmp                  sst:           56.
         252    sst.cpu_bf_time          sst:          150.
         160    sst.cpu_sf_time          sst:          114.
      400000    sst.crash_test_segmove   sst:          246.
         571    sst.crash_test_segmove_word    sst:          245.
         117    sst.ctwait               sst:           97.
         100    sst.cycle_pv_allocation  sst:           82.
         127    sst.damaged_ct           sst:          105.
         507    sst.dblw_resurrections   sst:          175.
         130    sst.deact_count          sst:          106.
         572    sst.delayed_seg_state_chg      sst:          248.
         132    sst.demand_deactivations       sst:          108.
         131    sst.demand_deact_attempts      sst:          107.
         567    sst.dirlock_writebehind  sst:          242.
         520    sst.dir_activations      sst:          183.
         110    sst.dir_page_faults      sst:           90.
      400000    sst.dm_enabled           sst:           50.
          51    sst.dm_enabled_word      sst:           49.
          62    sst.double_write         sst:           66.
         546    sst.event                sst:          213.
         523    sst.evict_phmbit         sst:          189.
         523    sst.evict_ptp            sst:          188.
         523    sst.evict_recover_data   sst:          186.
          66    sst.fc_skips_pinned      sst:           73.
         220    sst.first_core_block     sst:          130.
         525    sst.force_pwrites        sst:          192.
         524    sst.force_swrites        sst:          191.
         527    sst.force_updatevs       sst:          194.
         526    sst.fw_none              sst:          193.
         222    sst.fw_retries           sst:          132.
         515    sst.good_sgms            sst:          180.
         521    sst.hedge_updatevs       sst:          184.
         522    sst.hedge_writes         sst:          185.
         121    sst.laps                 sst:           99.
         221    sst.last_core_block      sst:          131.
          44    sst.level                sst:           41.
         107    sst.level_1_page_faults  sst:           89.
         104    sst.lock_waits           sst:           86.
         154    sst.loop_locks           sst:          112.
         156    sst.loop_lock_time       sst:          113.
         533    sst.makeknown_activations      sst:          197.
         577    sst.max_seg_state_change_bw    sst:          252.
         535    sst.metering_flags       sst:          199.
          74    sst.meter_ast_locking    sst:           78.
         562    sst.mod_during_write     sst:          228.
         115    sst.needc                sst:           95.
         565    sst.new_pages            sst:          237.
      400000    sst.nolock               sst:           71.
          65    sst.nolock_word          sst:           70.
      400000    sst.notify               sst:          216.
         547    sst.notify_word          sst:          215.
          44    sst.no_aste              sst:           44.
          16    sst.npfs_misses          sst:           23.
          24    sst.nused                sst:           32.
         101    sst.n_trailers           sst:           83.
         506    sst.oopv                 sst:          174.
          76    sst.page_read_errors     sst:           80.
          77    sst.page_write_errors    sst:           81.
         113    sst.pc_io_waits          sst:           93.
           2    sst.pc_trace             sst:          234.
          10    sst.pc_trace_pf          sst:          232.
         106    sst.pdir_page_faults     sst:           88.
         532    sst.pf_unlock_ptl_meterings    sst:          196.
         530    sst.pf_unlock_ptl_time   sst:          195.
         545    sst.pid                  sst:          212.
          14    sst.post_in_core         sst:           21.
         165    sst.post_list_size       sst:          118.
         167    sst.post_purge_calls     sst:          120.
          12    sst.post_purge_time      sst:           20.
         166    sst.post_purgings        sst:          119.
         372    sst.pp_meters            sst:          159.
         170    sst.pre_page_calls       sst:          121.
         171    sst.pre_page_list_size   sst:          122.
         172    sst.pre_page_misses      sst:          123.
         164    sst.pre_page_size        sst:          117.
          10    sst.pre_page_time        sst:           19.
         173    sst.pre_pagings          sst:          124.
         503    sst.pre_seeks_failed     sst:          171.
          20    sst.ptl                  sst:           25.
          32    sst.ptl_wait_ct          sst:           36.
          40    sst.pts                  sst:           40.
          25    sst.ptwbase              sst:           33.
         223    sst.pvhtp                sst:          133.
         133    sst.reads                sst:          109.
         217    sst.recopies             sst:          129.
          61    sst.removep              sst:           64.
         504    sst.resurrections        sst:          172.
         111    sst.ring_0_page_faults   sst:           91.
          36    sst.root_astep           sst:           39.
          64    sst.root_pvtx            sst:           68.
         112    sst.rqover               sst:           92.
          17    sst.salv                 sst:           24.
           1    sst.sc_trace             sst:          235.
         555    sst.segmove_astep        sst:          223.
         551    sst.segmove_found_synch  sst:          219.
         550    sst.segmove_io_limit     sst:          218.
         545    sst.segmove_lock         sst:          210.
         554    sst.segmove_max_tries    sst:          222.
         561    sst.segmove_new_addr_astep     sst:          227.
         553    sst.segmove_n_reads      sst:          221.
         560    sst.segmove_old_addr_astep     sst:          226.
         556    sst.segmove_pvtx         sst:          224.
         552    sst.segmove_synch_disappeared  sst:          220.
         557    sst.segmove_vtocx        sst:          225.
         536    sst.seg_fault_calls      sst:          203.
         576    sst.seg_state_change_limit     sst:          251.
         574    sst.seg_state_chg_delay  sst:          250.
         601    sst.seg_state_chg_operation    sst:          254.
         247    sst.setfaults_acc        sst:          147.
         246    sst.setfaults_all        sst:          146.
         512    sst.sgm_pf               sst:          177.
         514    sst.sgm_sgft             sst:          179.
         510    sst.sgm_time             sst:          176.
         153    sst.short_pf_count       sst:          111.
         124    sst.skipm                sst:          102.
         125    sst.skipos               sst:          103.
         123    sst.skipu                sst:          101.
         122    sst.skipw                sst:          100.
           0    sst.space                sst:           18.
          60    sst.startp               sst:           62.
         114    sst.steps                sst:           94.
         234    sst.stepsa               sst:          136.
         543    sst.stk_pages_truncated  sst:          208.
         544    sst.stk_pages_truncated_in_core      sst:          209.
         542    sst.stk_truncate_shouldnt_did  sst:          207.
         541    sst.stk_truncate_shouldnt_didnt      sst:          206.
         540    sst.stk_truncate_should_did    sst:          205.
         537    sst.stk_truncate_should_didnt  sst:          204.
          53    sst.strsize              sst:           55.
         102    sst.synch_activations    sst:           84.
         103    sst.synch_skips          sst:           85.
         215    sst.system_type          sst:          127.
          63    sst.temp_w_event         sst:           67.
          26    sst.tfreep               sst:           34.
          15    sst.thrashing            sst:           22.
         250    sst.total_bf             sst:          148.
         251    sst.total_bf_pf          sst:          149.
         105    sst.total_locks_set      sst:           87.
         163    sst.total_sf             sst:          116.
         162    sst.total_sf_pf          sst:          115.
         564    sst.trace_sw             sst:          230.
         272    sst.tree_count           sst:          158.
           4    sst.tty_trace            sst:          233.
         245    sst.updates              sst:          145.
          56    sst.usedp                sst:           58.
         505    sst.volmap_seg_page_faults     sst:          173.
         120    sst.wired                sst:           98.
         216    sst.wired_copies         sst:          128.
         174    sst.wire_proc_data       sst:          125.
         143    sst.writes               sst:          110.
         473    sst.write_hunts          sst:          163.
         570    sst.write_limit          sst:          243.
          57    sst.wtct                 sst:           60.
         472    sst.wusedp               sst:          161.
         563    sst.zero_pages           sst:          229.
        1000    sst_size                 sst:           15.


NO FATAL ERRORS


                                          -----------------------------------------------------------


Historical Background

This edition of the Multics software materials and documentation is provided and donated
to Massachusetts Institute of Technology by Group BULL including BULL HN Information Systems Inc.
as a contribution to computer science knowledge.
This donation is made also to give evidence of the common contributions of Massachusetts Institute of Technology,
Bell Laboratories, General Electric, Honeywell Information Systems Inc., Honeywell BULL Inc., Groupe BULL
and BULL HN Information Systems Inc. to the development of this operating system.
Multics development was initiated by Massachusetts Institute of Technology Project MAC (1963-1970),
renamed the MIT Laboratory for Computer Science and Artificial Intelligence in the mid 1970s, under the leadership
of Professor Fernando Jose Corbato. Users consider that Multics provided the best software architecture
for managing computer hardware properly and for executing programs. Many subsequent operating systems
incorporated Multics principles.
Multics was distributed in 1975 to 2000 by Group Bull in Europe , and in the U.S. by Bull HN Information Systems Inc.,
as successor in interest by change in name only to Honeywell Bull Inc. and Honeywell Information Systems Inc. .

                                          -----------------------------------------------------------

Permission to use, copy, modify, and distribute these programs and their documentation for any purpose and without
fee is hereby granted,provided that the below copyright notice and historical background appear in all copies
and that both the copyright notice and historical background and this permission notice appear in supporting
documentation, and that the names of MIT, HIS, BULL or BULL HN not be used in advertising or publicity pertaining
to distribution of the programs without specific prior written permission.
    Copyright 1972 by Massachusetts Institute of Technology and Honeywell Information Systems Inc.
    Copyright 2006 by BULL HN Information Systems Inc.
    Copyright 2006 by Bull SAS
    All Rights Reserved
