ASSEMBLY LISTING OF SEGMENT >2.1spec>online>tolts011775>inst.alm
ASSEMBLED ON:	01/20/75  1150.7 mst Mon
OPTIONS USED:	ls  symbols  new_call  new_object
ASSEMBLED BY:	ALM Version 4.5, September 1974
ASSEMBLER CREATED:	01/10/75  1049.0 mst Fri

    000000                          1          name inst
    000000              000000      2          segdef tdli
    000000              000000      3          segdef tdlr_no
    000000              000000      4          segdef tdlr_num_conv_control
    000000              000000      5          segdef tdlr_type_conv_control
    000000              001344      6          segdef tlen
                                    7   "           definition of routine no. of tdl routine for mnemonic    "
    000000              000001      8          equ pr,1
    000000              000002      9          equ blnks,2
    000000              000003     10          equ dollr,3
    000000              000004     11          equ astr,4
    000000              000005     12          equ a,5
    000000              000006     13          equ aa,6
    000000              000007     14          equ abt,7
    000000              000010     15          equ ad,8
    000000              000011     16          equ adrot,9
    000000              000012     17          equ al,10
    000000              000013     18          equ am.,11
    000000              000014     19          equ aop,12
    000000              000015     20          equ aran,13
    000000              000016     21          equ b,14
    000000              000017     22          equ chg,15
    000000              000020     23          equ chm,16
    000000              000021     24          equ chxi.,17
    000000              000022     25          equ chx..,18
    000000              000023     26          equ chxs..,19
    000000              000024     27          equ ckf,20
    000000              000025     28          equ cl,21
    000000              000026     29          equ clk,22
    000000              000027     30          equ clkran,23
    000000              000030     31          equ cmp,24
    000000              000031     32          equ code,25
    000000              000032     33          equ csw,26
    000000              000033     34          equ cwa.,27
    000000              000034     35          equ cwb,28
    000000              000035     36          equ cwi,29
    000000              000036     37          equ cwn.,30
    000000              000037     38          equ cwp.,31
    000000              000040     39          equ cws.,32
    000000              000041     40          equ d,33
    000000              000042     41          equ da,34
    000000              000043     42          equ dev,35
    000000              000044     43          equ dln,36
    000000              000045     44          equ dmod,37
    000000              000046     45          equ dran,38
    000000              000047     46          equ dread,39
    000000              000050     47          equ drot,40
    000000              000051     48          equ dup,41
    000000              000052     49          equ e,42
    000000              000053     50          equ eep,43
    000000              000054     51          equ end,44
    000000              000055     52          equ f,45
    000000              000056     53          equ fend,46
    000000              000057     54          equ glnk,47
    000000              000060     55          equ ic,48
    000000              000061     56          equ idcw,49
    000000              000062     57          equ is,50
    000000              000063     58          equ ital,51
    000000              000064     59          equ l,52
    000000              000065     60          equ lcw,53
    000000              000066     61          equ loc,54
    000000              000067     62          equ lp.,55
    000000              000070     63          equ lp.ae,56
    000000              000071     64          equ lp.b,57
    000000              000072     65          equ lp.e,58
    000000              000073     66          equ lp.et,59
    000000              000074     67          equ lp.f,60
    000000              000075     68          equ lp.f.,61
    000000              000076     69          equ lp.nb,62
    000000              000077     70          equ lp.ne,63
    000000              000100     71          equ lp.sv,64
    000000              000002     72          equ lp.u,blnks
    000000              000101     73          equ lran,65
    000000              000102     74          equ m,66
    000000              000103     75          equ nc,67
    000000              000104     76          equ nm,68
    000000              000105     77          equ nr,69
    000000              000106     78          equ ns,70
    000000              000106     79          equ ns.,ns
    000000              000107     80          equ nt,71
    000000              000110     81          equ nx,72
    000000              000111     82          equ o,73
    000000              000112     83          equ p,74
    000000              000113     84          equ pd,75
    000000              000114     85          equ phdln,76
    000000              000115     86          equ pos,77
    000000              000116     87          equ r,78
    000000              000117     88          equ ret,79
    000000              000120     89          equ retp,80
    000000              000121     90          equ retep,81
    000000              000122     91          equ rfl,82
    000000              000123     92          equ rr,83
    000000              000124     93          equ rst,84
    000000              000125     94          equ rsttd,85
    000000              000126     95          equ rw,86
    000000              000127     96          equ s,87
    000000              000130     97          equ sa,88
    000000              000131     98          equ sdsk,89
    000000              000132     99          equ sfl,90
    000000              000130    100          equ si,sa
    000000              000133    101          equ sif,91
    000000              000134    102          equ smod,92
    000000              000130    103          equ sn,sa
    000000              000130    104          equ sr,sa
    000000              000135    105          equ stn,93
    000000              000136    106          equ str,94
    000000              000137    107          equ sv,95
    000000              000130    108          equ sw,sa
    000000              000140    109          equ t,96
    000000              000141    110          equ tal,97
    000000              000142    111          equ tdm,98
    000000              000143    112          equ tis,99
    000000              000144    113          equ trr,100
    000000              000145    114          equ twr,101
    000000              000146    115          equ ty.,102
    000000              000147    116          equ tyrd.,103
    000000              000150    117          equ tys,104
    000000              000151    118          equ tywr.,105
    000000              000152    119          equ uhdln,106
    000000              000153    120          equ w,107
    000000              000154    121          equ xdio,108
    000000              000155    122          equ yes,109
    000000              000156    123          equ yes.,110
                                  124          even
    000000                        125   tdli:
    000000                        126   tdlr_no:
    000000                        127   tdlr_num_conv_control:
    000000                        128   tdlr_type_conv_control:
    000000              000000    129         equ nu,0
    000000              000001    130         equ io,1
    000000              000000    131         equ noio,0
    000000              000001    132         equ do,1
    000000              000000    133         equ nodo,0
    000000              000000    134         equ notnum,0    "00"
    000000              000001    135         equ ljoct,1     "01"
    000000              000003    136         equ rjoct,3     "11"
    000000              000002    137         equ rjdec,2     "10"
    000000              000003    138         equ fixoct,rjoct
    000000              000002    139         equ fixdec,rjdec
                                  140   "  instructions unique to on-line:
                                  141   "
                                  142   "  $
                                  143   "  ADROT
                                  144   "  AM.
                                  145   "  CHM
                                  146   "  CHXI.
                                  147   "  CHX.
                                  148   "  CHXS..
                                  149   "  CLK
                                  150   "  CLKRAN
                                  151   "  CODE
                                  152   "  CSW
                                  153   "  CWI
                                  154   "  DA
                                  155   "  DEV
                                  156   "  DMOD
                                  157   "  E
                                  158   "  EEP
                                  159   "  FEND
                                  160   "  GLNK
                                  161   "  ITAL
                                  162   "  LP.F.
                                  163   "  NS.
                                  164   "  O
                                  165   "  PD
                                  166   "  PHDLN
                                  167   "  POS
                                  168   "  RETEP
                                  169   "  RSTTD
                                  170   "  SDSK
                                  171   "  SIF
                                  172   "  SMOD
                                  173   "  SN
                                  174   "  T
                                  175   "  TDM
                                  176   "  TRR
                                  177   "  TWR
                                  178   "  TYP
                                  179   "  TYS
                                  180   "  UHDLN
                                  181   "  W
                                  182   "  XDIO
                                  183   "  YES.
                                  184   "
                                  185   "     dd     "
    000000  aa  040 040 040 040   186          aci "        "
    000001  aa  040 040 040 040
    000002  aa   000000 000002    187          vfd 18/0,18/blnks
    000003  aa   020000 000600    188          vfd 6/2,6/0,6/0,6/0,2/nu,1/noio,1/do,2/fixdec,6/nu
                                  189   "     $     "
    000004  aa  044 040 040 040   190          aci "$       "
    000005  aa  040 040 040 040
    000006  aa   000000 000003    191          vfd 18/0,18/dollr
    000007  aa   000000 000000    192          vfd 24/nu,2/nu,1/noio,1/nodo,2/notnum,6/nu
                                  193   "     *     "
    000010  aa  052 040 040 040   194          aci "*       "
    000011  aa  040 040 040 040
    000012  aa   000000 000004    195          vfd 18/0,18/astr
    000013  aa   000000 000400    196          vfd 24/nu,2/nu,1/noio,1/do,2/notnum,6/nu
                                  197   "     Aoooooooooooo--     "
    000014  aa  141 040 040 040   198          aci "a       "
    000015  aa  040 040 040 040
    000016  aa   000000 000005    199          vfd 18/0,18/a
    000017  aa   000000 140100    200          vfd 6/0,6/0,6/0,6/12,2/nu,1/noio,1/nodo,2/ljoct,6/nu
                                  201   "     AAoooooooooooo--     "
    000020  aa  141 141 040 040   202          aci "aa      "
    000021  aa  040 040 040 040
    000022  aa   000000 000006    203          vfd 18/0,18/aa
    000023  aa   000000 140100    204          vfd 6/0,6/0,6/0,6/12,2/nu,1/noio,1/nodo,2/ljoct,6/nu
                                  205   "     ABA     "
    000024  aa  141 142 141 040   206          aci "aba     "
    000025  aa  040 040 040 040
    000026  aa   000000 000001    207          vfd 18/0,18/pr
    000027  aa   000000 001432    208          vfd 24/nu,2/nu,1/io,1/do,2/notnum,o6/32
                                  209   "     ABT     "
    000030  aa  141 142 164 040   210          aci "abt     "
    000031  aa  040 040 040 040
    000032  aa   000000 000007    211          vfd 18/0,18/abt
    000033  aa   000000 000000    212          vfd 24/nu,2/nu,1/noio,1/nodo,2/notnum,6/nu
                                  213   "     ADoooooooooooo--     "
    000034  aa  141 144 040 040   214          aci "ad      "
    000035  aa  040 040 040 040
    000036  aa   000000 000010    215          vfd 18/0,18/ad
    000037  aa   000000 140100    216          vfd 6/0,6/0,6/0,6/12,2/nu,1/noio,1/nodo,2/ljoct,6/nu
                                  217   "     ADROT     "
    000040  aa  141 144 162 157   218          aci "adrot   "
    000041  aa  164 040 040 040
    000042  aa   000000 000011    219          vfd 18/0,18/adrot
    000043  aa   000000 000000    220          vfd 24/nu,2/nu,1/noio,1/nodo,2/notnum,6/nu
                                  221   "     AL--dddd     "
    000044  aa  141 154 040 040   222          aci "al      "
    000045  aa  040 040 040 040
    000046  aa   000000 000012    223          vfd 18/0,18/al
    000047  aa   000000 040200    224          vfd 6/0,6/0,6/0,6/4,2/nu,1/noio,1/nodo,2/rjdec,6/nu
                                  225   "     ALRT     "
    000050  aa  141 154 162 164   226          aci "alrt    "
    000051  aa  040 040 040 040
    000052  aa   000000 000001    227          vfd 18/0,18/pr
    000053  aa   000000 001451    228          vfd 24/nu,2/nu,1/io,1/do,2/notnum,o6/51
                                  229   "     AMdd.--dddd     "
    000054  aa  141 155 056 040   230          aci "am.     "
    000055  aa  040 040 040 040
    000056  aa   000000 000013    231          vfd 18/0,18/am.
    000057  aa   020000 040200    232          vfd 6/2,6/0,6/0,6/4,2/nu,1/noio,1/nodo,2/rjdec,6/nu
                                  233   "     AOPoo     "
    000060  aa  141 157 160 040   234          aci "aop     "
    000061  aa  040 040 040 040
    000062  aa   000000 000014    235          vfd 18/0,18/aop
    000063  aa   020000 001700    236          vfd 6/2,6/0,6/0,6/0,2/nu,1/io,1/do,2/fixoct,6/nu
                                  237   "     ARAN     "
    000064  aa  141 162 141 156   238          aci "aran    "
    000065  aa  040 040 040 040
    000066  aa   000000 000015    239          vfd 18/0,18/aran
    000067  aa   000000 000000    240          vfd 24/nu,2/nu,1/noio,1/nodo,2/notnum,6/nu
                                  241   "     Bd     "
    000070  aa  142 040 040 040   242          aci "b       "
    000071  aa  040 040 040 040
    000072  aa   000000 000016    243          vfd 18/0,18/b
    000073  aa   000000 010600    244          vfd 6/0,6/0,6/0,6/1,2/nu,1/noio,1/do,2/fixdec,6/nu
                                  245   "     BKF     "
    000074  aa  142 153 146 040   246          aci "bkf     "
    000075  aa  040 040 040 040
    000076  aa   000000 000001    247          vfd 18/0,18/pr
    000077  aa   000000 021647    248          vfd 6/0,6/0,6/0,6/2,2/nu,1/io,1/do,2/rjdec,o6/47
                                  249   "     BKS     "
    000100  aa  142 153 163 040   250          aci "bks     "
    000101  aa  040 040 040 040
    000102  aa   000000 000001    251          vfd 18/0,18/pr
    000103  aa   000000 001446    252          vfd 24/nu,2/nu,1/io,1/do,2/notnum,o6/46
                                  253   "     BSF--dd     "
    000104  aa  142 163 146 040   254          aci "bsf     "
    000105  aa  040 040 040 040
    000106  aa   000000 000001    255          vfd 18/0,18/pr
    000107  aa   000000 021647    256          vfd 6/0,6/0,6/0,6/2,2/nu,1/io,1/do,2/rjdec,o6/47
                                  257   "     BSR     "
    000110  aa  142 163 162 040   258          aci "bsr     "
    000111  aa  040 040 040 040
    000112  aa   000000 000001    259          vfd 18/0,18/pr
    000113  aa   000000 001446    260          vfd 24/nu,2/nu,1/io,1/do,2/notnum,o6/46
                                  261   "     CHG     "
    000114  aa  143 150 147 040   262          aci "chg     "
    000115  aa  040 040 040 040
    000116  aa   000000 000017    263          vfd 18/0,18/chg
    000117  aa   000000 000400    264          vfd 24/nu,2/nu,1/noio,1/do,2/notnum,6/nu
                                  265   "     CHMoooooooooooo--     "
    000120  aa  143 150 155 040   266          aci "chm     "
    000121  aa  040 040 040 040
    000122  aa   000000 000020    267          vfd 18/0,18/chm
    000123  aa   000000 140100    268          vfd 6/0,6/0,6/0,6/12,2/nu,1/noio,1/nodo,2/ljoct,6/nu
                                  269   "     CHXIdd.--dd     "
    000124  aa  143 150 170 151   270          aci "chxi.   "
    000125  aa  056 040 040 040
    000126  aa   000000 000021    271          vfd 18/0,18/chxi.
    000127  aa   020000 040600    272          vfd 6/2,6/0,6/0,6/4,2/nu,1/noio,1/do,2/rjdec,6/nu
                                  273   "     CHXddd.ddd.--dd
    000130  aa  143 150 170 056   274          aci "chx..   "
    000131  aa  056 040 040 040
    000132  aa   000000 000022    275          vfd 18/0,18/chx..
    000133  aa   030300 020600    276          vfd 6/3,6/3,6/0,6/2,2/nu,1/noio,1/do,2/rjdec,6/nu
                                  277   "     CHXSddd.ddd.--dd     "
    000134  aa  143 150 170 163   278          aci "chxs..  "
    000135  aa  056 056 040 040
    000136  aa   000000 000023    279          vfd 18/0,18/chxs..
    000137  aa   030300 020600    280          vfd 6/3,6/3,6/0,6/2,2/nu,1/noio,1/do,2/rjdec,6/nu
                                  281   "     CKF--dd     "
    000140  aa  143 153 146 040   282          aci "ckf     "
    000141  aa  040 040 040 040
    000142  aa   000000 000024    283          vfd 18/0,18/ckf
    000143  aa   000000 020200    284          vfd 6/0,6/0,6/0,6/2,2/nu,1/noio,1/nodo,2/rjdec,6/nu
                                  285   "     CL--dd      "
                                  286   "justcomp"
    000144  aa  143 154 040 040   287          aci "cl      "
    000145  aa  040 040 040 040
    000146  aa   000000 000025    288          vfd 18/0,18/cl
    000147  aa   000000 020600    289          vfd 6/0,6/0,6/0,6/2,2/nu,1/noio,1/do,2/rjdec,6/nu
                                  290   "     CLK--dddddd     "
    000150  aa  143 154 153 040   291          aci "clk     "
    000151  aa  040 040 040 040
    000152  aa   000000 000026    292          vfd 18/0,18/clk
    000153  aa   000000 060600    293           vfd 6/0,6/0,6/0,6/6,2/nu,1/noio,1/do,2/rjdec,6/nu
                                  294   "     CLKRAN--dddddd     "
    000154  aa  143 154 153 162   295          aci "clkran  "
    000155  aa  141 156 040 040
    000156  aa   000000 000027    296          vfd 18/0,18/clkran
    000157  aa   000000 060600    297          vfd 6/0,6/0,6/0,6/6,2/nu,1/noio,1/do,2/rjdec,6/nu
                                  298   "     CMP--d     "
    000160  aa  143 155 160 040   299          aci "cmp     "
    000161  aa  040 040 040 040
    000162  aa   000000 000030    300          vfd 18/0,18/cmp
    000163  aa   000000 011600    301          vfd 6/0,6/0,6/0,6/1,2/nu,1/io,1/do,2/rjdec,6/nu
                                  302   "     CODEdd     "
    000164  aa  143 157 144 145   303          aci "code    "
    000165  aa  040 040 040 040
    000166  aa   000000 000031    304          vfd 18/0,18/code
    000167  aa   020000 000200    305          vfd 6/2,6/0,6/0,6/0,2/nu,1/noio,1/nodo,2/fixdec,6/nu
                                  306   "     CSW--dd     "
    000170  aa  143 163 167 040   307          aci "csw     "
    000171  aa  040 040 040 040
    000172  aa   000000 000032    308          vfd 18/0,18/csw
    000173  aa   000000 020200    309          vfd 6/0,6/0,6/0,6/2,2/nu,1/noio,1/nodo,2/rjdec,6/nu
                                  310   "     CWdAddd.--dddd     "
    000174  aa  143 167 141 056   311          aci "cwa.    "
    000175  aa  040 040 040 040
    000176  aa   000000 000033    312          vfd 18/0,18/cwa.
    000177  aa   010300 040200    313          vfd 6/1,6/3,6/0,6/4,2/nu,1/noio,1/nodo,2/rjdec,6/nu
                                  314   "     CWdBd     "
    000200  aa  143 167 142 040   315          aci "cwb     "
    000201  aa  040 040 040 040
    000202  aa   000000 000034    316          vfd 18/0,18/cwb
    000203  aa   010100 000200    317          vfd 6/1,6/1,6/0,6/0,2/nu,1/noio,1/nodo,2/fixdec,6/nu
                                  318   "     CWdI     "
    000204  aa  143 167 151 040   319          aci "cwi     "
    000205  aa  040 040 040 040
    000206  aa   000000 000035    320          vfd 18/0,18/cwi
    000207  aa   010000 000200    321          vfd 6/1,6/0,6/0,6/0,2/nu,1/noio,1/nodo,2/fixdec,6/nu
                                  322   "     CWdNddd.--dddd     "
    000210  aa  143 167 156 056   323          aci "cwn.    "
    000211  aa  040 040 040 040
    000212  aa   000000 000036    324          vfd 18/0,18/cwn.
    000213  aa   010300 040200    325          vfd 6/1,6/3,6/0,6/4,2/nu,1/noio,1/nodo,2/rjdec,6/nu
                                  326   "     CWdPddd.--dddd     "
    000214  aa  143 167 160 056   327          aci "cwp.    "
    000215  aa  040 040 040 040
    000216  aa   000000 000037    328          vfd 18/0,18/cwp.
    000217  aa   010300 040200    329          vfd 6/1,6/3,6/0,6/4,2/nu,1/noio,1/nodo,2/rjdec,6/nu
                                  330   "     CWdSddd.--dddd     "
    000220  aa  143 167 163 056   331          aci "cws.    "
    000221  aa  040 040 040 040
    000222  aa   000000 000040    332          vfd 18/0,18/cws.
    000223  aa   010300 040200    333          vfd 6/1,6/3,6/0,6/4,2/nu,1/noio,1/nodo,2/rjdec,6/nu
                                  334   "     Doooooooooooo--     "
    000224  aa  144 040 040 040   335          aci "d       "
    000225  aa  040 040 040 040
    000226  aa   000000 000041    336          vfd 18/0,18/d
    000227  aa   000000 140100    337          vfd 6/0,6/0,6/0,6/12,2/nu,1/noio,1/nodo,2/ljoct,6/nu
                                  338   "     DA     "
    000230  aa  144 141 040 040   339          aci "da      "
    000231  aa  040 040 040 040
    000232  aa   000000 000042    340          vfd 18/0,18/da
    000233  aa   000000 000000    341          vfd 24/nu,2/nu,1/noio,1/nodo,2/notnum,6/nu
                                  342   "     DEV     "
    000234  aa  144 145 166 040   343          aci "dev     "
    000235  aa  040 040 040 040
    000236  aa   000000 000043    344          vfd 18/0,18/dev
    000237  aa   000000 000400    345          vfd 24/nu,2/nu,1/noio,1/do,2/notnum,6/nu
                                  346   "     DLN--dd     "
                                  347   "justcomp"
    000240  aa  144 154 156 040   348          aci "dln     "
    000241  aa  040 040 040 040
    000242  aa   000000 000044    349          vfd 18/0,18/dln
    000243  aa   000000 020200    350          vfd 6/0,6/0,6/0,6/2,2/nu,1/noio,1/nodo,2/rjdec,6/nu
                                  351   "     DMOD     "
    000244  aa  144 155 157 144   352          aci "dmod    "
    000245  aa  040 040 040 040
    000246  aa   000000 000045    353          vfd 18/0,18/dmod
    000247  aa   000000 000000    354          vfd 24/nu,2/nu,1/noio,1/nodo,2/notnum,6/nu
                                  355   "     DRAN-d     "
    000250  aa  144 162 141 156   356          aci "dran    "
    000251  aa  040 040 040 040
    000252  aa   000000 000046    357          vfd 18/0,18/dran
    000253  aa   000000 010200    358          vfd 6/0,6/0,6/0,6/1,2/nu,1/noio,1/nodo,2/rjdec,6/nu
                                  359   "     DRCV     "
    000254  aa  144 162 143 166   360          aci "drcv    "
    000255  aa  040 040 040 040
    000256  aa   000000 000001    361          vfd 18/0,18/pr
    000257  aa   000000 001411    362          vfd 24/nu,2/nu,1/io,1/do,2/notnum,o6/11
                                  363   "     DREAD     "
    000260  aa  144 162 145 141   364          aci "dread   "
    000261  aa  144 040 040 040
    000262  aa   000000 000047    365          vfd 18/0,18/dread
    000263  aa   000000 000000    366          vfd 24/nu,2/nu,1/noio,1/nodo,2/notnum,6/nu
                                  367   "     DROT     "
    000264  aa  144 162 157 164   368          aci "drot    "
    000265  aa  040 040 040 040
    000266  aa   000000 000050    369          vfd 18/0,18/drot
    000267  aa   000000 000000    370          vfd 24/nu,2/nu,1/noio,1/nodo,2/notnum,6/nu
                                  371   "     DUP     "
    000270  aa  144 165 160 040   372          aci "dup     "
    000271  aa  040 040 040 040
    000272  aa   000000 000051    373          vfd 18/0,18/dup
    000273  aa   000000 001400    374          vfd 24/nu,2/nu,1/io,1/do,2/notnum,6/nu
                                  375   "     E     "
    000274  aa  145 040 040 040   376          aci "e       "
    000275  aa  040 040 040 040
    000276  aa   000000 000052    377          vfd 18/0,18/e
    000277  aa   000000 000000    378          vfd 24/nu,2/nu,1/noio,1/nodo,2/notnum,6/nu
                                  379   "     EEPdd     "
    000300  aa  145 145 160 040   380          aci "eep     "
    000301  aa  040 040 040 040
    000302  aa   000000 000053    381          vfd 18/0,18/eep
    000303  aa   020000 000200    382          vfd 6/2,6/0,6/0,6/0,2/nu,1/noio,1/nodo,2/fixdec,6/nu
                                  383   "     END     "
    000304  aa  145 156 144 040   384          aci "end     "
    000305  aa  040 040 040 040
    000306  aa   000000 000054    385          vfd 18/0,18/end
    000307  aa   000000 000400    386          vfd 24/nu,2/nu,1/noio,1/do,2/notnum,6/nu
                                  387   "     ERS     "
    000310  aa  145 162 163 040   388          aci "ers     "
    000311  aa  040 040 040 040
    000312  aa   000000 000001    389          vfd 18/0,18/pr
    000313  aa   000000 001454    390          vfd 24/nu,2/nu,1/io,1/do,2/notnum,o6/54
                                  391   "     F--dd     "
    000314  aa  146 040 040 040   392          aci "f       "
    000315  aa  040 040 040 040
    000316  aa   000000 000055    393          vfd 18/0,18/f
    000317  aa   000000 020600    394          vfd 6/0,6/0,6/0,6/2,2/nu,1/noio,1/do,2/rjdec,6/nu
                                  395   "     FEED     "
    000320  aa  146 145 145 144   396          aci "feed    "
    000321  aa  040 040 040 040
    000322  aa   000000 000001    397          vfd 18/0,18/pr
    000323  aa   000000 001444    398          vfd 24/nu,2/nu,1/io,1/do,2/notnum,o6/44
                                  399   "     FEND     "
    000324  aa  146 145 156 144   400          aci "fend    "
    000325  aa  040 040 040 040
    000326  aa   000000 000056    401          vfd 18/0,18/fend
    000327  aa   000000 000400    402          vfd 24/nu,2/nu,1/noio,1/do,2/notnum,6/nu
                                  403   "     FSF--dd     "
    000330  aa  146 163 146 040   404          aci "fsf     "
    000331  aa  040 040 040 040
    000332  aa   000000 000001    405          vfd 18/0,18/pr
    000333  aa   000000 021645    406          vfd 6/0,6/0,6/0,6/2,2/nu,1/io,1/do,2/rjdec,o6/45
                                  407   "     FSR     "
    000334  aa  146 163 162 040   408          aci "fsr     "
    000335  aa  040 040 040 040
    000336  aa   000000 000001    409          vfd 18/0,18/pr
    000337  aa   000000 001444    410          vfd 24/nu,2/nu,1/io,1/do,2/notnum,o6/44
                                  411   "     GLNK     "
    000340  aa  147 154 156 153   412          aci "glnk    "
    000341  aa  040 040 040 040
    000342  aa   000000 000057    413          vfd 18/0,18/glnk
    000343  aa   000000 000000    414          vfd 24/nu,2/nu,1/noio,1/nodo,2/notnum,6/nu
                                  415   "     ICoo     "
    000344  aa  151 143 040 040   416          aci "ic      "
    000345  aa  040 040 040 040
    000346  aa   000000 000060    417          vfd 18/0,18/ic
    000347  aa   020000 000300    418          vfd 6/2,6/0,6/0,6/0,2/nu,1/noio,1/nodo,2/fixoct,6/nu
                                  419   "     ISoo     "
    000350  aa  151 163 040 040   420          aci "is      "
    000351  aa  040 040 040 040
    000352  aa   000000 000062    421          vfd 18/0,18/is
    000353  aa   020000 000300    422          vfd 6/2,6/0,6/0,6/0,2/nu,1/noio,1/nodo,2/fixoct,6/nu
                                  423   "     ITALdd     "
    000354  aa  151 164 141 154   424          aci "ital    "
    000355  aa  040 040 040 040
    000356  aa   000000 000063    425          vfd 18/0,18/ital
    000357  aa   020000 000200    426          vfd 6/2,6/0,6/0,6/0,2/nu,1/noio,1/nodo,2/fixdec,6/nu
                                  427   "     L--dddd     "
    000360  aa  154 040 040 040   428          aci "l       "
    000361  aa  040 040 040 040
    000362  aa   000000 000064    429          vfd 18/0,18/l
    000363  aa   000000 040200    430          vfd 6/0,6/0,6/0,6/4,2/nu,1/noio,1/nodo,2/rjdec,6/nu
                                  431   "     LCWd     "
    000364  aa  154 143 167 040   432          aci "lcw     "
    000365  aa  040 040 040 040
    000366  aa   000000 000065    433          vfd 18/0,18/lcw
    000367  aa   000000 010200    434          vfd 6/0,6/0,6/0,6/1,2/nu,1/noio,1/nodo,2/fixdec,6/nu
                                  435   "     LOC--oo     "
    000370  aa  154 157 143 040   436          aci "loc     "
    000371  aa  040 040 040 040
    000372  aa   000000 000066    437          vfd 18/0,18/loc
    000373  aa   000000 020300    438          vfd 6/0,6/0,6/0,6/2,2/nu,1/noio,1/nodo,2/rjoct,6/nu
                                  439   "     LPdd.--dddd     "
    000374  aa  154 160 056 040   440          aci "lp.     "
    000375  aa  040 040 040 040
    000376  aa   000000 000067    441          vfd 18/0,18/lp.
    000377  aa   020000 040600    442          vfd 6/2,6/0,6/0,6/4,2/nu,1/noio,1/do,2/rjdec,6/nu
                                  443   "     LPdd.AE     "
    000400  aa  154 160 056 141   444          aci "lp.ae   "
    000401  aa  145 040 040 040
    000402  aa   000000 000070    445          vfd 18/0,18/lp.ae
    000403  aa   020000 000600    446          vfd 6/2,6/0,6/0,6/0,2/nu,1/noio,1/do,2/fixdec,6/nu
                                  447   "     LPdd.B     "
    000404  aa  154 160 056 142   448          aci "lp.b    "
    000405  aa  040 040 040 040
    000406  aa   000000 000071    449          vfd 18/0,18/lp.b
    000407  aa   020000 000600    450          vfd 6/2,6/0,6/0,6/0,2/nu,1/noio,1/do,2/fixdec,6/nu
                                  451   "     LPdd.E     "
    000410  aa  154 160 056 145   452          aci "lp.e    "
    000411  aa  040 040 040 040
    000412  aa   000000 000072    453          vfd 18/0,18/lp.e
    000413  aa   020000 000600    454          vfd 6/2,6/0,6/0,6/0,2/nu,1/noio,1/do,2/fixdec,6/nu
                                  455   "     LPdd.ET     "
    000414  aa  154 160 056 145   456          aci "lp.et   "
    000415  aa  164 040 040 040
    000416  aa   000000 000073    457          vfd 18/0,18/lp.et
    000417  aa   020000 000600    458          vfd 6/2,6/0,6/0,6/0,2/nu,1/noio,1/do,2/fixdec,6/nu
                                  459   "     LPdd.F-dd     "
    000420  aa  154 160 056 146   460          aci "lp.f    "
    000421  aa  040 040 040 040
    000422  aa   000000 000074    461          vfd 18/0,18/lp.f
    000423  aa   020000 020600    462          vfd 6/2,6/0,6/0,6/2,2/nu,1/noio,1/do,2/rjdec,6/nu
                                  463   "     LPdd.Fdd.--dddd     "
    000424  aa  154 160 056 146   464          aci "lp.f.   "
    000425  aa  056 040 040 040
    000426  aa   000000 000075    465          vfd 18/0,18/lp.f.
    000427  aa   020200 040600    466          vfd 6/2,6/2,6/0,6/4,2/nu,1/noio,1/do,2/rjdec,6/nu
                                  467   "     LPdd.NB     "
    000430  aa  154 160 056 156   468          aci "lp.nb   "
    000431  aa  142 040 040 040
    000432  aa   000000 000076    469          vfd 18/0,18/lp.nb
    000433  aa   020000 000600    470          vfd 6/2,6/0,6/0,6/0,2/nu,1/noio,1/do,2/fixdec,6/nu
                                  471   "     LPdd.NE     "
    000434  aa  154 160 056 156   472          aci "lp.ne   "
    000435  aa  145 040 040 040
    000436  aa   000000 000077    473          vfd 18/0,18/lp.ne
    000437  aa   020000 000600    474          vfd 6/2,6/0,6/0,6/0,2/nu,1/noio,1/do,2/fixdec,6/nu
                                  475   "     LPdd.SVd     "
    000440  aa  154 160 056 163   476          aci "lp.sv   "
    000441  aa  166 040 040 040
    000442  aa   000000 000100    477          vfd 18/0,18/lp.sv
    000443  aa   020000 010600    478          vfd 6/2,6/0,6/0,6/1,2/nu,1/noio,1/do,2/fixdec,6/nu
                                  479   "     LPdd.U     "
    000444  aa  154 160 056 165   480          aci "lp.u    "
    000445  aa  040 040 040 040
    000446  aa   000000 000002    481          vfd 18/0,18/lp.u
    000447  aa   020000 000600    482          vfd 6/2,6/0,6/0,6/0,2/nu,1/noio,1/do,2/fixdec,6/nu
                                  483   "     LRAN     "
    000450  aa  154 162 141 156   484          aci "lran    "
    000451  aa  040 040 040 040
    000452  aa   000000 000101    485          vfd 18/0,18/lran
    000453  aa   000000 000000    486          vfd 24/nu,2/nu,1/noio,1/nodo,2/notnum,6/nu
                                  487   "     Moo--     "
    000454  aa  155 040 040 040   488          aci "m       "
    000455  aa  040 040 040 040
    000456  aa   000000 000102    489          vfd 18/0,18/m
    000457  aa   000000 020100    490          vfd 6/0,6/0,6/0,6/2,2/nu,1/noio,1/nodo,2/ljoct,6/nu
                                  491   "     NC     "
    000460  aa  156 143 040 040   492          aci "nc      "
    000461  aa  040 040 040 040
    000462  aa   000000 000103    493          vfd 18/0,18/nc
    000463  aa   000000 000000    494          vfd 24/nu,2/nu,1/noio,1/nodo,2/notnum,6/nu
                                  495   "     NM     "
    000464  aa  156 155 040 040   496          aci "nm      "
    000465  aa  040 040 040 040
    000466  aa   000000 000104    497          vfd 18/0,18/nm
    000467  aa   000000 000000    498          vfd 24/nu,2/nu,1/noio,1/nodo,2/notnum,6/nu
                                  499   "     NR     "
    000470  aa  156 162 040 040   500          aci "nr      "
    000471  aa  040 040 040 040
    000472  aa   000000 000105    501          vfd 18/0,18/nr
    000473  aa   000000 000000    502          vfd 24/nu,2/nu,1/noio,1/nodo,2/notnum,6/nu
                                  503   "     NS     "
    000474  aa  156 163 040 040   504          aci "ns      "
    000475  aa  040 040 040 040
    000476  aa   000000 000106    505          vfd 18/0,18/ns
    000477  aa   000000 000000    506          vfd 24/nu,2/nu,1/noio,1/nodo,2/notnum,6/nu
                                  507   "     NSdd.--dddd     "
    000500  aa  156 163 056 040   508          aci "ns.     "
    000501  aa  040 040 040 040
    000502  aa   000000 000106    509          vfd 18/0,18/ns.
    000503  aa   020000 040200    510          vfd 6/2,6/0,6/0,6/4,2/nu,1/noio,1/nodo,2/rjdec,6/nu
                                  511   "     NT     "
    000504  aa  156 164 040 040   512          aci "nt      "
    000505  aa  040 040 040 040
    000506  aa   000000 000107    513          vfd 18/0,18/nt
    000507  aa   000000 000000    514          vfd 24/nu,2/nu,1/noio,1/nodo,2/notnum,6/nu
                                  515   "     NX     "
    000510  aa  156 170 040 040   516          aci "nx      "
    000511  aa  040 040 040 040
    000512  aa   000000 000110    517          vfd 18/0,18/nx
    000513  aa   000000 000400    518          vfd 24/nu,2/nu,1/noio,1/do,2/notnum,6/nu
                                  519   "     O     "
    000514  aa  157 040 040 040   520          aci "o       "
    000515  aa  040 040 040 040
    000516  aa   000000 000111    521          vfd 18/0,18/o
    000517  aa   000000 000400    522          vfd 24/nu,2/nu,1/noio,1/do,2/notnum,6/nu
                                  523   "     P--dd     "
    000520  aa  160 040 040 040   524          aci "p       "
    000521  aa  040 040 040 040
    000522  aa   000000 000112    525          vfd 18/0,18/p
    000523  aa   000000 020200    526          vfd 6/0,6/0,6/0,6/2,2/nu,1/noio,1/nodo,2/rjdec,6/nu
                                  527   "     PDoooooooooooo--     "
    000524  aa  160 144 040 040   528          aci "pd      "
    000525  aa  040 040 040 040
    000526  aa   000000 000113    529          vfd 18/0,18/pd
    000527  aa   000000 140100    530          vfd 6/0,6/0,6/0,6/12,2/nu,1/noio,1/nodo,2/ljoct,6/nu
                                  531   "     PHDLN--dd     "
                                  532   "justcomp"
    000530  aa  160 150 144 154   533          aci "phdln   "
    000531  aa  156 040 040 040
    000532  aa   000000 000114    534          vfd 18/0,18/phdln
    000533  aa   000000 020200    535          vfd 6/0,6/0,6/0,6/2,2/nu,1/noio,1/nodo,2/rjdec,6/nu
                                  536   "     POS     "
    000534  aa  160 157 163 040   537          aci "pos     "
    000535  aa  040 040 040 040
    000536  aa   000000 000115    538          vfd 18/0,18/pos
    000537  aa   000000 000000    539          vfd 24/nu,2/nu,1/noio,1/nodo,2/notnum,6/nu
                                  540   "     Rdd     "
                                  541   "justcomp"
    000540  aa  162 040 040 040   542          aci "r       "
    000541  aa  040 040 040 040
    000542  aa   000000 000116    543          vfd 18/0,18/r
    000543  aa   020000 000200    544          vfd 6/2,6/0,6/0,6/0,2/nu,1/noio,1/nodo,2/fixdec,6/nu
                                  545   "     RB     "
    000544  aa  162 142 040 040   546          aci "rb      "
    000545  aa  040 040 040 040
    000546  aa   000000 000001    547          vfd 18/0,18/pr
    000547  aa   000000 001424    548          vfd 24/nu,2/nu,1/io,1/do,2/notnum,o6/24
                                  549   "     RCB     "
    000550  aa  162 143 142 040   550          aci "rcb     "
    000551  aa  040 040 040 040
    000552  aa   000000 000001    551          vfd 18/0,18/pr
    000553  aa   000000 001401    552          vfd 24/nu,2/nu,1/io,1/do,2/notnum,o6/01
                                  553   "     RCD     "
    000554  aa  162 143 144 040   554          aci "rcd     "
    000555  aa  040 040 040 040
    000556  aa   000000 000001    555          vfd 18/0,18/pr
    000557  aa   000000 001402    556          vfd 24/nu,2/nu,1/io,1/do,2/notnum,o6/02
                                  557   "     RCM     "
    000560  aa  162 143 155 040   558          aci "rcm     "
    000561  aa  040 040 040 040
    000562  aa   000000 000001    559          vfd 18/0,18/pr
    000563  aa   000000 001403    560          vfd 24/nu,2/nu,1/io,1/do,2/notnum,o6/03
                                  561   "     RDIC     "
    000564  aa  162 144 151 143   562          aci "rdic    "
    000565  aa  040 040 040 040
    000566  aa   000000 000001    563          vfd 18/0,18/pr
    000567  aa   000000 001425    564          vfd 24/nu,2/nu,1/io,1/do,2/notnum,o6/25
                                  565   "     RDN     "
    000570  aa  162 144 156 040   566          aci "rdn     "
    000571  aa  040 040 040 040
    000572  aa   000000 000001    567          vfd 18/0,18/pr
    000573  aa   000000 001401    568          vfd 24/nu,2/nu,1/io,1/do,2/notnum,o6/01
                                  569   "     RDPT     "
    000574  aa  162 144 160 164   570          aci "rdpt    "
    000575  aa  040 040 040 040
    000576  aa   000000 000001    571          vfd 18/0,18/pr
    000577  aa   000000 001402    572          vfd 24/nu,2/nu,1/io,1/do,2/notnum,o6/02
                                  573   "     RDR     "
    000600  aa  162 144 162 040   574          aci "rdr     "
    000601  aa  040 040 040 040
    000602  aa   000000 000001    575          vfd 18/0,18/pr
    000603  aa   000000 001425    576          vfd 24/nu,2/nu,1/io,1/do,2/notnum,o6/25
                                  577   "     REL     "
    000604  aa  162 145 154 040   578          aci "rel     "
    000605  aa  040 040 040 040
    000606  aa   000000 000001    579          vfd 18/0,18/pr
    000607  aa   000000 001475    580          vfd 24/nu,2/nu,1/io,1/do,2/notnum,o6/75
                                  581   "     REQ     "
    000610  aa  162 145 161 040   582          aci "req     "
    000611  aa  040 040 040 040
    000612  aa   000000 000001    583          vfd 18/0,18/pr
    000613  aa   000000 001400    584          vfd 24/nu,2/nu,1/io,1/do,2/notnum,o6/00
                                  585   "     RES     "
    000614  aa  162 145 163 040   586          aci "res     "
    000615  aa  040 040 040 040
    000616  aa   000000 000001    587          vfd 18/0,18/pr
    000617  aa   000000 001440    588          vfd 24/nu,2/nu,1/io,1/do,2/notnum,o6/40
                                  589   "     RET--d     "
    000620  aa  162 145 164 040   590          aci "ret     "
    000621  aa  040 040 040 040
    000622  aa   000000 000117    591          vfd 18/0,18/ret
    000623  aa   000000 010600    592          vfd 6/0,6/0,6/0,6/1,2/nu,1/noio,1/do,2/rjdec,6/nu
                                  593   "     RETd+--dd     "
    000624  aa  162 145 164 053   594          aci "ret+    "
    000625  aa  040 040 040 040
    000626  aa   000000 000120    595          vfd 18/0,18/retp
    000627  aa   010000 020600    596          vfd 6/1,6/0,6/0,6/2,2/nu,1/noio,1/do,2/rjdec,6/nu
                                  597   "     RETEP     "
    000630  aa  162 145 164 145   598          aci "retep   "
    000631  aa  160 040 040 040
    000632  aa   000000 000121    599          vfd 18/0,18/retep
    000633  aa   000000 000400    600          vfd 24/nu,2/nu,1/noio,1/do,2/notnum,6/nu
                                  601   "     REW     "
    000634  aa  162 145 167 040   602          aci "rew     "
    000635  aa  040 040 040 040
    000636  aa   000000 000001    603          vfd 18/0,18/pr
    000637  aa   000000 001470    604          vfd 24/nu,2/nu,1/io,1/do,2/notnum,o6/70
                                  605   "     RFC     "
    000640  aa  162 146 143 040   606          aci "rfc     "
    000641  aa  040 040 040 040
    000642  aa   000000 000001    607          vfd 18/0,18/pr
    000643  aa   000000 001425    608          vfd 24/nu,2/nu,1/io,1/do,2/notnum,o6/25
                                  609   "     RFCR     "
    000644  aa  162 146 143 162   610          aci "rfcr    "
    000645  aa  040 040 040 040
    000646  aa   000000 000001    611          vfd 18/0,18/pr
    000647  aa   000000 001425    612          vfd 24/nu,2/nu,1/io,1/do,2/notnum,o6/25
                                  613   "     RFL--dd     "
    000650  aa  162 146 154 040   614          aci "rfl     "
    000651  aa  040 040 040 040
    000652  aa   000000 000122    615          vfd 18/0,18/rfl
    000653  aa   000000 020200    616          vfd 6/0,6/0,6/0,6/2,2/nu,1/noio,1/nodo,2/rjdec,6/nu
                                  617   "     RR--dd     "
    000654  aa  162 162 040 040   618          aci "rr      "
    000655  aa  040 040 040 040
    000656  aa   000000 000123    619          vfd 18/0,18/rr
    000657  aa   000000 020200    620          vfd 6/0,6/0,6/0,6/2,2/nu,1/noio,1/nodo,2/rjdec,6/nu
                                  621   "     RREG     "
    000660  aa  162 162 145 147   622          aci "rreg    "
    000661  aa  040 040 040 040
    000662  aa   000000 000001    623          vfd 18/0,18/pr
    000663  aa   000000 001422    624          vfd 24/nu,2/nu,1/io,1/do,2/notnum,o6/22
                                  625   "     RRTB     "
    000664  aa  162 162 164 142   626          aci "rrtb    "
    000665  aa  040 040 040 040
    000666  aa   000000 000001    627          vfd 18/0,18/pr
    000667  aa   000000 001407    628          vfd 24/nu,2/nu,1/io,1/do,2/notnum,o6/07
                                  629   "     RRTD     "
    000670  aa  162 162 164 144   630          aci "rrtd    "
    000671  aa  040 040 040 040
    000672  aa   000000 000001    631          vfd 18/0,18/pr
    000673  aa   000000 001406    632          vfd 24/nu,2/nu,1/io,1/do,2/notnum,o6/06
                                  633   "     RST     "
    000674  aa  162 163 164 040   634          aci "rst     "
    000675  aa  040 040 040 040
    000676  aa   000000 000124    635          vfd 18/0,18/rst
    000677  aa   000000 000400    636          vfd 24/nu,2/nu,1/noio,1/do,2/notnum,6/nu
                                  637   "     RSTTD     "
    000700  aa  162 163 164 164   638          aci "rsttd   "
    000701  aa  144 040 040 040
    000702  aa   000000 000125    639          vfd 18/0,18/rsttd
    000703  aa   000000 000400    640          vfd 24/nu,2/nu,1/noio,1/do,2/notnum,6/nu
                                  641   "     RTB     "
    000704  aa  162 164 142 040   642          aci "rtb     "
    000705  aa  040 040 040 040
    000706  aa   000000 000001    643          vfd 18/0,18/pr
    000707  aa   000000 001405    644          vfd 24/nu,2/nu,1/io,1/do,2/notnum,o6/05
                                  645   "     RTD     "
    000710  aa  162 164 144 040   646          aci "rtd     "
    000711  aa  040 040 040 040
    000712  aa   000000 000001    647          vfd 18/0,18/pr
    000713  aa   000000 001404    648          vfd 24/nu,2/nu,1/io,1/do,2/notnum,o6/04
                                  649   "     RTN     "
    000714  aa  162 164 156 040   650          aci "rtn     "
    000715  aa  040 040 040 040
    000716  aa   000000 000001    651          vfd 18/0,18/pr
    000717  aa   000000 001403    652          vfd 24/nu,2/nu,1/io,1/do,2/notnum,o6/03
                                  653   "     RTYP     "
    000720  aa  162 164 171 160   654          aci "rtyp    "
    000721  aa  040 040 040 040
    000722  aa   000000 000001    655          vfd 18/0,18/pr
    000723  aa   000000 001403    656          vfd 24/nu,2/nu,1/io,1/do,2/notnum,o6/03
                                  657   "     RW--dddd     "
    000724  aa  162 167 040 040   658          aci "rw      "
    000725  aa  040 040 040 040
    000726  aa   000000 000126    659          vfd 18/0,18/rw
    000727  aa   000000 040200    660          vfd 6/0,6/0,6/0,6/4,2/nu,1/noio,1/nodo,2/rjdec,6/nu
                                  661   "     RWD     "
    000730  aa  162 167 144 040   662          aci "rwd     "
    000731  aa  040 040 040 040
    000732  aa   000000 000001    663          vfd 18/0,18/pr
    000733  aa   000000 001470    664          vfd 24/nu,2/nu,1/io,1/do,2/notnum,o6/70
                                  665   "     RWS     "
    000734  aa  162 167 163 040   666          aci "rws     "
    000735  aa  040 040 040 040
    000736  aa   000000 000001    667          vfd 18/0,18/pr
    000737  aa   000000 001472    668          vfd 24/nu,2/nu,1/io,1/do,2/notnum,o6/72
                                  669   "     Soo--     "
    000740  aa  163 040 040 040   670          aci "s       "
    000741  aa  040 040 040 040
    000742  aa   000000 000127    671          vfd 18/0,18/s
    000743  aa   000000 020100    672          vfd 6/0,6/0,6/0,6/2,2/nu,1/noio,1/nodo,2/ljoct,6/nu
                                  673   "     SAoo     "
    000744  aa  163 141 040 040   674          aci "sa      "
    000745  aa  040 040 040 040
    000746  aa   000000 000130    675          vfd 18/0,18/sa
    000747  aa   020000 001700    676          vfd 6/2,6/0,6/0,6/0,2/nu,1/io,1/do,2/fixoct,6/nu
                                  677   "     SDRA     "
    000750  aa  163 144 162 141   678          aci "sdra    "
    000751  aa  040 040 040 040
    000752  aa   000000 000001    679          vfd 18/0,18/pr
    000753  aa   000000 001434    680          vfd 24/nu,2/nu,1/io,1/do,2/notnum,o6/34
                                  681   "     SDSKdd     "
    000754  aa  163 144 163 153   682          aci "sdsk    "
    000755  aa  040 040 040 040
    000756  aa   000000 000131    683          vfd 18/0,18/sdsk
    000757  aa   020000 000200    684          vfd 6/2,6/0,6/0,6/0,2/nu,1/noio,1/nodo,2/fixdec,6/nu
                                  685   "     SEEK     "
    000760  aa  163 145 145 153   686          aci "seek    "
    000761  aa  040 040 040 040
    000762  aa   000000 000001    687          vfd 18/0,18/pr
    000763  aa   000000 001434    688          vfd 24/nu,2/nu,1/io,1/do,2/notnum,o6/34
                                  689   "     SEL     "
    000764  aa  163 145 154 040   690          aci "sel     "
    000765  aa  040 040 040 040
    000766  aa   000000 000001    691          vfd 18/0,18/pr
    000767  aa   000000 001434    692          vfd 24/nu,2/nu,1/io,1/do,2/notnum,o6/34
                                  693   "     SF     "
    000770  aa  163 146 040 040   694          aci "sf      "
    000771  aa  040 040 040 040
    000772  aa   000000 000001    695          vfd 18/0,18/pr
    000773  aa   000000 001434    696          vfd 24/nu,2/nu,1/io,1/do,2/notnum,o6/34
                                  697   "     SFL--dd     "
    000774  aa  163 146 154 040   698          aci "sfl     "
    000775  aa  040 040 040 040
    000776  aa   000000 000132    699          vfd 18/0,18/sfl
    000777  aa   000000 020200    700          vfd 6/0,6/0,6/0,6/2,2/nu,1/noio,1/nodo,2/rjdec,6/nu
                                  701   "     SFP     "
    001000  aa  163 146 160 040   702          aci "sfp     "
    001001  aa  040 040 040 040
    001002  aa   000000 000001    703          vfd 18/0,18/pr
    001003  aa   000000 001462    704          vfd 24/nu,2/nu,1/io,1/do,2/notnum,o6/62
                                  705   "     SHD     "
    001004  aa  163 150 144 040   706          aci "shd     "
    001005  aa  040 040 040 040
    001006  aa   000000 000001    707          vfd 18/0,18/pr
    001007  aa   000000 001460    708          vfd 24/nu,2/nu,1/io,1/do,2/notnum,o6/60
                                  709   "     SIoo     "
    001010  aa  163 151 040 040   710          aci "si      "
    001011  aa  040 040 040 040
    001012  aa   000000 000130    711          vfd 18/0,18/si
    001013  aa   020000 001700    712          vfd 6/2,6/0,6/0,6/0,2/nu,1/io,1/do,2/fixoct,6/nu
                                  713   "     SIF--dd     "
    001014  aa  163 151 146 040   714          aci "sif     "
    001015  aa  040 040 040 040
    001016  aa   000000 000133    715          vfd 18/0,18/sif
    001017  aa   000000 020200    716          vfd 6/0,6/0,6/0,6/2,2/nu,1/noio,1/nodo,2/rjdec,6/nu
                                  717   "     SLD     "
    001020  aa  163 154 144 040   718          aci "sld     "
    001021  aa  040 040 040 040
    001022  aa   000000 000001    719          vfd 18/0,18/pr
    001023  aa   000000 001461    720          vfd 24/nu,2/nu,1/io,1/do,2/notnum,o6/61
                                  721   "     SLTP     "
    001024  aa  163 154 164 160   722          aci "sltp    "
    001025  aa  040 040 040 040
    001026  aa   000000 000001    723          vfd 18/0,18/pr
    001027  aa   000000 001463    724          vfd 24/nu,2/nu,1/io,1/do,2/notnum,o6/63
                                  725   "     SMODo     "
    001030  aa  163 155 157 144   726          aci "smod    "
    001031  aa  040 040 040 040
    001032  aa   000000 000134    727          vfd 18/0,18/smod
    001033  aa   010000 000300    728          vfd 6/1,6/0,6/0,6/0,2/nu,1/noio,1/nodo,2/fixoct,6/nu
                                  729   "     SNoo     "
    001034  aa  163 156 040 040   730          aci "sn      "
    001035  aa  040 040 040 040
    001036  aa   000000 000130    731          vfd 18/0,18/sn
    001037  aa   020000 001700    732          vfd 6/2,6/0,6/0,6/0,2/nu,1/io,1/do,2/fixoct,6/nu
                                  733   "     SPS     "
    001040  aa  163 160 163 040   734          aci "sps     "
    001041  aa  040 040 040 040
    001042  aa   000000 000001    735          vfd 18/0,18/pr
    001043  aa   000000 001436    736          vfd 24/nu,2/nu,1/io,1/do,2/notnum,o6/36
                                  737   "     SRoo     "
    001044  aa  163 162 040 040   738          aci "sr      "
    001045  aa  040 040 040 040
    001046  aa   000000 000130    739          vfd 18/0,18/sr
    001047  aa   020000 001700    740          vfd 6/2,6/0,6/0,6/0,2/nu,1/io,1/do,2/fixoct,6/nu
                                  741   "     SRD     "
    001050  aa  163 162 144 040   742          aci "srd     "
    001051  aa  040 040 040 040
    001052  aa   000000 000001    743          vfd 18/0,18/pr
    001053  aa   000000 001426    744          vfd 24/nu,2/nu,1/io,1/do,2/notnum,o6/26
                                  745   "     STACK     "
    001054  aa  163 164 141 143   746          aci "stack   "
    001055  aa  153 040 040 040
    001056  aa   000000 000001    747          vfd 18/0,18/pr
    001057  aa   000000 001445    748          vfd 24/nu,2/nu,1/io,1/do,2/notnum,o6/45
                                  749   "     STNdd     "
    001060  aa  163 164 156 040   750          aci "stn     "
    001061  aa  040 040 040 040
    001062  aa   000000 000135    751          vfd 18/0,18/stn
    001063  aa   020000 000600    752          vfd 6/2,6/0,6/0,6/0,2/nu,1/noio,1/do,2/fixdec,6/nu
                                  753   "     STRdd     "
    001064  aa  163 164 162 040   754          aci "str     "
    001065  aa  040 040 040 040
    001066  aa   000000 000136    755          vfd 18/0,18/str
    001067  aa   020000 000600    756          vfd 6/2,6/0,6/0,6/0,2/nu,1/noio,1/do,2/fixdec,6/nu
                                  757   "     SV--d     "
    001070  aa  163 166 040 040   758          aci "sv      "
    001071  aa  040 040 040 040
    001072  aa   000000 000137    759          vfd 18/0,18/sv
    001073  aa   000000 010600    760          vfd 6/0,6/0,6/0,6/1,2/nu,1/noio,1/do,2/rjdec,6/nu
                                  761   "     SWoo     "
    001074  aa  163 167 040 040   762          aci "sw      "
    001075  aa  040 040 040 040
    001076  aa   000000 000130    763          vfd 18/0,18/sw
    001077  aa   020000 001700    764          vfd 6/2,6/0,6/0,6/0,2/nu,1/io,1/do,2/fixoct,6/nu
                                  765   "     SWR     "
    001100  aa  163 167 162 040   766          aci "swr     "
    001101  aa  040 040 040 040
    001102  aa   000000 000001    767          vfd 18/0,18/pr
    001103  aa   000000 001432    768          vfd 24/nu,2/nu,1/io,1/do,2/notnum,o6/32
                                  769   "     T--dd     "
    001104  aa  164 040 040 040   770          aci "t       "
    001105  aa  040 040 040 040
    001106  aa   000000 000140    771          vfd 18/0,18/t
    001107  aa   000000 020200    772            vfd 6/0,6/0,6/0,6/2,2/nu,1/noio,1/nodo,2/rjdec,6/nu
                                  773   "     TAL     "
    001110  aa  164 141 154 040   774          aci "tal     "
    001111  aa  040 040 040 040
    001112  aa   000000 000141    775          vfd 18/0,18/tal
    001113  aa   000000 000400    776          vfd 24/0,2/nu,1/noio,1/do,2/notnum,6/nu
                                  777   "     TDM     "
    001114  aa  164 144 155 040   778          aci "tdm     "
    001115  aa  040 040 040 040
    001116  aa   000000 000142    779          vfd 18/0,18/tdm
    001117  aa   000000 000000    780         vfd 24/nu,2/nu,1/noio,1/nodo,2/notnum,6/nu
                                  781   "     TISoooo--     "
    001120  aa  164 151 163 040   782          aci "tis     "
    001121  aa  040 040 040 040
    001122  aa   000000 000143    783          vfd 18/0,18/tis
    001123  aa   000000 030100    784          vfd 6/0,6/0,6/0,6/3,2/nu,1/noio,1/nodo,2/ljoct,6/nu
                                  785   "  tis is special---bit conversion---1 to 4 characters   "
                                  786   "     TRRdd     "
    001124  aa  164 162 162 040   787          aci "trr     "
    001125  aa  040 040 040 040
    001126  aa   000000 000144    788          vfd 18/0,18/trr
    001127  aa   020000 000200    789          vfd 6/2,6/0,6/0,6/0,2/nu,1/noio,1/nodo,2/fixdec,6/nu
                                  790   "     TWRdd     "
    001130  aa  164 167 162 040   791          aci "twr     "
    001131  aa  040 040 040 040
    001132  aa   000000 000145    792          vfd 18/0,18/twr
    001133  aa   020000 000200    793          vfd 6/2,6/0,6/0,6/0,2/nu,1/noio,1/nodo,2/fixdec,6/nu
                                  794   "     TYdd.--dddd     "
    001134  aa  164 171 056 040   795          aci "ty.     "
    001135  aa  040 040 040 040
    001136  aa   000000 000146    796          vfd 18/0,18/ty.
    001137  aa   020000 040600    797          vfd 6/2,6/0,6/0,6/4,2/nu,1/noio,1/do,2/rjdec,6/nu
                                  798   "     TYP     "
    001140  aa  164 171 160 040   799          aci "typ     "
    001141  aa  040 040 040 040
    001142  aa   000000 000001    800          vfd 18/0,18/pr
    001143  aa   000000 001413    801          vfd 24/nu,2/nu,1/io,1/do,2/notnum,o6/13
                                  802   "     TYRDdd.--dddd    "
    001144  aa  164 171 162 144   803          aci "tyrd.   "
    001145  aa  056 040 040 040
    001146  aa   000000 000147    804          vfd 18/0,18/tyrd.
    001147  aa   020000 040600    805          vfd 6/2,6/0,6/0,6/4,2/nu,1/noio,1/do,2/rjdec,6/nu
                                  806   "     TYSdd     "
    001150  aa  164 171 163 040   807          aci "tys     "
    001151  aa  040 040 040 040
    001152  aa   000000 000150    808          vfd 18/0,18/tys
    001153  aa   020000 000200    809          vfd 6/2,6/0,6/0,6/0,2/nu,1/noio,1/nodo,2/fixdec,6/nu
                                  810   "     TYWRdd.--dddd     "
    001154  aa  164 171 167 162   811          aci "tywr.   "
    001155  aa  056 040 040 040
    001156  aa   000000 000151    812          vfd 18/0,18/tywr.
    001157  aa   020000 040600    813          vfd 6/2,6/0,6/0,6/4,2/nu,1/noio,1/do,2/rjdec,6/nu
                                  814   "     UHDLN--dd     "
                                  815   "justcomp"
    001160  aa  165 150 144 154   816          aci "uhdln   "
    001161  aa  156 040 040 040
    001162  aa   000000 000152    817          vfd 18/0,18/uhdln
    001163  aa   000000 020200    818          vfd 6/0,6/0,6/0,6/2,2/nu,1/noio,1/nodo,2/rjdec,6/nu
                                  819   "     W     "
    001164  aa  167 040 040 040   820          aci "w       "
    001165  aa  040 040 040 040
    001166  aa   000000 000153    821          vfd 18/0,18/w
    001167  aa   000000 000400    822          vfd 24/nu,2/nu,1/noio,1/do,2/notnum,6/nu
                                  823   "     WB     "
    001170  aa  167 142 040 040   824          aci "wb      "
    001171  aa  040 040 040 040
    001172  aa   000000 000001    825          vfd 18/0,18/pr
    001173  aa   000000 001430    826          vfd 24/nu,2/nu,1/io,1/do,2/notnum,o6/30
                                  827   "     WCB     "
    001174  aa  167 143 142 040   828          aci "wcb     "
    001175  aa  040 040 040 040
    001176  aa   000000 000001    829          vfd 18/0,18/pr
    001177  aa   000000 001411    830          vfd 24/nu,2/nu,1/io,1/do,2/notnum,o6/11
                                  831   "     WCD     "
    001200  aa  167 143 144 040   832          aci "wcd     "
    001201  aa  040 040 040 040
    001202  aa   000000 000001    833          vfd 18/0,18/pr
    001203  aa   000000 001412    834          vfd 24/nu,2/nu,1/io,1/do,2/notnum,o6/12
                                  835   "     WCDE     "
    001204  aa  167 143 144 145   836          aci "wcde    "
    001205  aa  040 040 040 040
    001206  aa   000000 000001    837          vfd 18/0,18/pr
    001207  aa   000000 001413    838          vfd 24/nu,2/nu,1/io,1/do,2/notnum,o6/13
                                  839   "     WCV     "
    001210  aa  167 143 166 040   840          aci "wcv     "
    001211  aa  040 040 040 040
    001212  aa   000000 000001    841          vfd 18/0,18/pr
    001213  aa   000000 001433    842          vfd 24/nu,2/nu,1/io,1/do,2/notnum,o6/33
                                  843   "     WDIC     "
    001214  aa  167 144 151 143   844          aci "wdic    "
    001215  aa  040 040 040 040
    001216  aa   000000 000001    845          vfd 18/0,18/pr
    001217  aa   000000 001431    846          vfd 24/nu,2/nu,1/io,1/do,2/notnum,o6/31
                                  847   "     WDICV     "
    001220  aa  167 144 151 143   848          aci "wdicv   "
    001221  aa  166 040 040 040
    001222  aa   000000 000001    849          vfd 18/0,18/pr
    001223  aa   000000 001433    850          vfd 24/nu,2/nu,1/io,1/do,2/notnum,o6/33
                                  851   "     WDN     "
    001224  aa  167 144 156 040   852          aci "wdn     "
    001225  aa  040 040 040 040
    001226  aa   000000 000001    853          vfd 18/0,18/pr
    001227  aa   000000 001410    854          vfd 24/nu,2/nu,1/io,1/do,2/notnum,o6/10
                                  855   "     WDR     "
    001230  aa  167 144 162 040   856          aci "wdr     "
    001231  aa  040 040 040 040
    001232  aa   000000 000001    857          vfd 18/0,18/pr
    001233  aa   000000 001431    858          vfd 24/nu,2/nu,1/io,1/do,2/notnum,o6/31
                                  859   "     WDRV     "
    001234  aa  167 144 162 166   860          aci "wdrv    "
    001235  aa  040 040 040 040
    001236  aa   000000 000001    861          vfd 18/0,18/pr
    001237  aa   000000 001433    862          vfd 24/nu,2/nu,1/io,1/do,2/notnum,o6/33
                                  863   "     WEF     "
    001240  aa  167 145 146 040   864          aci "wef     "
    001241  aa  040 040 040 040
    001242  aa   000000 000001    865          vfd 18/0,18/pr
    001243  aa   000000 001455    866          vfd 24/nu,2/nu,1/io,1/do,2/notnum,o6/55
                                  867   "     WFC     "
    001244  aa  167 146 143 040   868          aci "wfc     "
    001245  aa  040 040 040 040
    001246  aa   000000 000001    869          vfd 18/0,18/pr
    001247  aa   000000 001431    870          vfd 24/nu,2/nu,1/io,1/do,2/notnum,o6/31
                                  871   "     WFCR     "
    001250  aa  167 146 143 162   872          aci "wfcr    "
    001251  aa  040 040 040 040
    001252  aa   000000 000001    873          vfd 18/0,18/pr
    001253  aa   000000 001431    874          vfd 24/nu,2/nu,1/io,1/do,2/notnum,o6/31
                                  875   "     WFCVR     "
    001254  aa  167 146 143 166   876          aci "wfcvr   "
    001255  aa  162 040 040 040
    001256  aa   000000 000001    877          vfd 18/0,18/pr
    001257  aa   000000 001433    878          vfd 24/nu,2/nu,1/io,1/do,2/notnum,o6/33
                                  879   "     WPR     "
    001260  aa  167 160 162 040   880          aci "wpr     "
    001261  aa  040 040 040 040
    001262  aa   000000 000001    881          vfd 18/0,18/pr
    001263  aa   000000 001411    882          vfd 24/nu,2/nu,1/io,1/do,2/notnum,o6/11
                                  883   "     WPRE     "
    001264  aa  167 160 162 145   884          aci "wpre    "
    001265  aa  040 040 040 040
    001266  aa   000000 000001    885          vfd 18/0,18/pr
    001267  aa   000000 001431    886          vfd 24/nu,2/nu,1/io,1/do,2/notnum,o6/31
                                  887   "     WPT     "
    001270  aa  167 160 164 040   888          aci "wpt     "
    001271  aa  040 040 040 040
    001272  aa   000000 000001    889          vfd 18/0,18/pr
    001273  aa   000000 001411    890          vfd 24/nu,2/nu,1/io,1/do,2/notnum,o6/11
                                  891   "     WPTDC     "
    001274  aa  167 160 164 144   892          aci "wptdc   "
    001275  aa  143 040 040 040
    001276  aa   000000 000001    893          vfd 18/0,18/pr
    001277  aa   000000 001413    894          vfd 24/nu,2/nu,1/io,1/do,2/notnum,o6/13
                                  895   "     WPTE     "
    001300  aa  167 160 164 145   896          aci "wpte    "
    001301  aa  040 040 040 040
    001302  aa   000000 000001    897          vfd 18/0,18/pr
    001303  aa   000000 001431    898          vfd 24/nu,2/nu,1/io,1/do,2/notnum,o6/31
                                  899   "     WPTSC     "
    001304  aa  167 160 164 163   900          aci "wptsc   "
    001305  aa  143 040 040 040
    001306  aa   000000 000001    901          vfd 18/0,18/pr
    001307  aa   000000 001416    902          vfd 24/nu,2/nu,1/io,1/do,2/notnum,o6/16
                                  903   "     WRV     "
    001310  aa  167 162 166 040   904          aci "wrv     "
    001311  aa  040 040 040 040
    001312  aa   000000 000001    905          vfd 18/0,18/pr
    001313  aa   000000 001433    906          vfd 24/nu,2/nu,1/io,1/do,2/notnum,o6/33
                                  907   "     WTB     "
    001314  aa  167 164 142 040   908          aci "wtb     "
    001315  aa  040 040 040 040
    001316  aa   000000 000001    909          vfd 18/0,18/pr
    001317  aa   000000 001415    910          vfd 24/nu,2/nu,1/io,1/do,2/notnum,o6/15
                                  911   "     WTD     "
    001320  aa  167 164 144 040   912          aci "wtd     "
    001321  aa  040 040 040 040
    001322  aa   000000 000001    913          vfd 18/0,18/pr
    001323  aa   000000 001414    914          vfd 24/nu,2/nu,1/io,1/do,2/notnum,o6/14
                                  915   "     WTN     "
    001324  aa  167 164 156 040   916          aci "wtn     "
    001325  aa  040 040 040 040
    001326  aa   000000 000001    917          vfd 18/0,18/pr
    001327  aa   000000 001413    918          vfd 24/nu,2/nu,1/io,1/do,2/notnum,o6/13
                                  919   "     XDIO     "
    001330  aa  170 144 151 157   920          aci "xdio    "
    001331  aa  040 040 040 040
    001332  aa   000000 000154    921          vfd 18/0,18/xdio
    001333  aa   000000 001400    922          vfd 24/nu,2/nu,1/io,1/do,2/notnum,6/nu
                                  923   "     YES     "
    001334  aa  171 145 163 040   924          aci "yes     "
    001335  aa  040 040 040 040
    001336  aa   000000 000155    925          vfd 18/0,18/yes
    001337  aa   000000 000400    926          vfd 24/nu,2/nu,1/noio,1/do,2/notnum,6/nu
                                  927   "     YESdd.--dddd     "
    001340  aa  171 145 163 056   928          aci "yes.    "
    001341  aa  040 040 040 040
    001342  aa   000000 000156    929          vfd 18/0,18/yes.
    001343  aa   020000 040600    930          vfd 6/2,6/0,6/0,6/4,2/nu,1/noio,1/do,2/rjdec,6/nu
    001344                        931   tlen:
    001344  aa   000000 001344    932          zero 0,*-tdli
                                  933          end

NO LITERALS

NAME DEFINITIONS FOR ENTRY POINTS AND SEGDEFS

    001346  5a   000003 000000
    001347  aa   000000 600000
    001350  aa   000000 000000
    001351  55   000010 000002
    001352  5a   000002 400003
    001353  55   000006 000010
    001354  aa  004 151 156 163
    001355  aa  164 000 000 000
    001356  55   000015 000003
    001357  0a   001344 400000
    001360  55   000013 000003
    001361  aa  004 164 154 145         tlen
    001362  aa  156 000 000 000
    001363  55   000026 000010
    001364  0a   000000 400000
    001365  55   000020 000003
    001366  aa  026 164 144 154         tdlr_type_conv_control
    001367  aa  162 137 164 171
    001370  aa  160 145 137 143
    001371  aa  157 156 166 137
    001372  aa  143 157 156 164
    001373  aa  162 157 154 000
    001374  55   000037 000015
    001375  0a   000000 400000
    001376  55   000031 000003
    001377  aa  025 164 144 154         tdlr_num_conv_control
    001400  aa  162 137 156 165
    001401  aa  155 137 143 157
    001402  aa  156 166 137 143
    001403  aa  157 156 164 162
    001404  aa  157 154 000 000
    001405  55   000044 000026
    001406  0a   000000 400000
    001407  55   000042 000003
    001410  aa  007 164 144 154         tdlr_no
    001411  aa  162 137 156 157
    001412  55   000051 000037
    001413  0a   000000 400000
    001414  55   000047 000003
    001415  aa  004 164 144 154         tdli
    001416  aa  151 000 000 000
    001417  55   000002 000044
    001420  6a   000000 400002
    001421  55   000054 000003
    001422  aa  014 163 171 155         symbol_table
    001423  aa  142 157 154 137
    001424  aa  164 141 142 154
    001425  aa  145 000 000 000

NO EXTERNAL NAMES

NO TRAP POINTER WORDS

TYPE PAIR BLOCKS

    001426  aa   000001 000000
    001427  aa   000000 000000

INTERNAL EXPRESSION WORDS

LINKAGE INFORMATION

    000000  aa   000000 000000
    000001  0a   001346 000000
    000002  aa   000000 000000
    000003  aa   000000 000000
    000004  aa   000000 000000
    000005  aa   000000 000000
    000006  22   000010 000010
    000007  a2   000000 000010
SYMBOL INFORMATION

SYMBOL TABLE HEADER

    000000  aa   000000 000001
    000001  aa   163171 155142
    000002  aa   164162 145145
    000003  aa   000000 000004
    000004  aa   000000 102312
    000005  aa   122255 251731
    000006  aa   000000 102326
    000007  aa   623157 374103
    000010  aa   141154 155040
    000011  aa   040040 040040
    000012  aa   000024 000040
    000013  aa   000034 000040
    000014  aa   000044 000100
    000015  aa   000002 000002
    000016  aa   000064 000000
    000017  aa   000000 000170
    000020  aa   000000 000103
    000021  aa   000000 000157
    000022  aa   000162 000103
    000023  aa   000064 000000
    000024  aa   101114 115040
    000025  aa   126145 162163
    000026  aa   151157 156040
    000027  aa   064056 065054
    000030  aa   040123 145160
    000031  aa   164145 155142
    000032  aa   145162 040061
    000033  aa   071067 064040
    000034  aa   115141 171056
    000035  aa   123171 163115
    000036  aa   141151 156164
    000037  aa   056141 040040
    000040  aa   040040 040040
    000041  aa   040040 040040
    000042  aa   040040 040040
    000043  aa   040040 040040
    000044  aa   154163 040040
    000045  aa   163171 155142
    000046  aa   157154 163040
    000047  aa   040156 145167
    000050  aa   137143 141154
    000051  aa   154040 040156
    000052  aa   145167 137157
    000053  aa   142152 145143
    000054  aa   164040 040040
    000055  aa   040040 040040
    000056  aa   040040 040040
    000057  aa   040040 040040
    000060  aa   040040 040040
    000061  aa   040040 040040
    000062  aa   040040 040040
    000063  aa   040040 040040
    000064  aa   000000 000001
    000065  aa   000000 000001
    000066  aa   000072 000044
    000067  aa   023265 530635
    000070  aa   000000 102326
    000071  aa   615061 000000
    000072  aa   076062 056061          >2.1spec>online>tolts011775>inst.alm
    000073  aa   163160 145143
    000074  aa   076157 156154
    000075  aa   151156 145076
    000076  aa   164157 154164
    000077  aa   163060 061061
    000100  aa   067067 065076
    000101  aa   151156 163164
    000102  aa   056141 154155
               MULTICS ASSEMBLY CROSS REFERENCE LISTING

   Value        Symbol                   Source file   Line number

           5    a                        inst:          12,  199.
           6    aa                       inst:          13,  203.
           7    abt                      inst:          14,  211.
          10    ad                       inst:          15,  215.
          11    adrot                    inst:          16,  219.
          12    al                       inst:          17,  223.
          13    am.                      inst:          18,  231.
          14    aop                      inst:          19,  235.
          15    aran                     inst:          20,  239.
           4    astr                     inst:          11,  195.
          16    b                        inst:          21,  243.
           2    blnks                    inst:           9,   72,  187.
          17    chg                      inst:          22,  263.
          20    chm                      inst:          23,  267.
          22    chx..                    inst:          25,  275.
          21    chxi.                    inst:          24,  271.
          23    chxs..                   inst:          26,  279.
          24    ckf                      inst:          27,  283.
          25    cl                       inst:          28,  288.
          26    clk                      inst:          29,  292.
          27    clkran                   inst:          30,  296.
          30    cmp                      inst:          31,  300.
          31    code                     inst:          32,  304.
          32    csw                      inst:          33,  308.
          33    cwa.                     inst:          34,  312.
          34    cwb                      inst:          35,  316.
          35    cwi                      inst:          36,  320.
          36    cwn.                     inst:          37,  324.
          37    cwp.                     inst:          38,  328.
          40    cws.                     inst:          39,  332.
          41    d                        inst:          40,  336.
          42    da                       inst:          41,  340.
          43    dev                      inst:          42,  344.
          44    dln                      inst:          43,  349.
          45    dmod                     inst:          44,  353.
           1    do                       inst:         132,  188,  196,  208,  228,  236,  244,  248,  252,  256,  260,  264,
                                                       272,  276,  280,  289,  293,  297,  301,  345,  362,  374,  386,  390,
                                                       394,  398,  402,  406,  410,  442,  446,  450,  454,  458,  462,  466,
                                                       470,  474,  478,  482,  518,  522,  548,  552,  556,  560,  564,  568,
                                                       572,  576,  580,  584,  588,  592,  596,  600,  604,  608,  612,  624,
                                                       628,  632,  636,  640,  644,  648,  652,  656,  664,  668,  676,  680,
                                                       688,  692,  696,  704,  708,  712,  720,  724,  732,  736,  740,  744,
                                                       748,  752,  756,  760,  764,  768,  776,  797,  801,  805,  813,  822,
                                                       826,  830,  834,  838,  842,  846,  850,  854,  858,  862,  866,  870,
                                                       874,  878,  882,  886,  890,  894,  898,  902,  906,  910,  914,  918,
                                                       922,  926,  930.
           3    dollr                    inst:          10,  191.
          46    dran                     inst:          45,  357.
          47    dread                    inst:          46,  365.
          50    drot                     inst:          47,  369.
          51    dup                      inst:          48,  373.
          52    e                        inst:          49,  377.
          53    eep                      inst:          50,  381.
          54    end                      inst:          51,  385.
          55    f                        inst:          52,  393.
          56    fend                     inst:          53,  401.
           2    fixdec                   inst:         139,  188,  244,  305,  317,  321,  382,  426,  434,  446,  450,  454,
                                                       458,  470,  474,  478,  482,  544,  684,  752,  756,  789,  793,  809.
           3    fixoct                   inst:         138,  236,  418,  422,  676,  712,  728,  732,  740,  764.
          57    glnk                     inst:          54,  413.
          60    ic                       inst:          55,  417.
          61    idcw                     inst:          56.
           1    io                       inst:         130,  208,  228,  236,  248,  252,  256,  260,  301,  362,  374,  390,
                                                       398,  406,  410,  548,  552,  556,  560,  564,  568,  572,  576,  580,
                                                       584,  588,  604,  608,  612,  624,  628,  632,  644,  648,  652,  656,
                                                       664,  668,  676,  680,  688,  692,  696,  704,  708,  712,  720,  724,
                                                       732,  736,  740,  744,  748,  764,  768,  801,  826,  830,  834,  838,
                                                       842,  846,  850,  854,  858,  862,  866,  870,  874,  878,  882,  886,
                                                       890,  894,  898,  902,  906,  910,  914,  918,  922.
          62    is                       inst:          57,  421.
          63    ital                     inst:          58,  425.
          64    l                        inst:          59,  429.
          65    lcw                      inst:          60,  433.
           1    ljoct                    inst:         135,  200,  204,  216,  268,  337,  490,  530,  672,  784.
          66    loc                      inst:          61,  437.
          67    lp.                      inst:          62,  441.
          70    lp.ae                    inst:          63,  445.
          71    lp.b                     inst:          64,  449.
          72    lp.e                     inst:          65,  453.
          73    lp.et                    inst:          66,  457.
          74    lp.f                     inst:          67,  461.
          75    lp.f.                    inst:          68,  465.
          76    lp.nb                    inst:          69,  469.
          77    lp.ne                    inst:          70,  473.
         100    lp.sv                    inst:          71,  477.
           2    lp.u                     inst:          72,  481.
         101    lran                     inst:          73,  485.
         102    m                        inst:          74,  489.
         103    nc                       inst:          75,  493.
         104    nm                       inst:          76,  497.
           0    nodo                     inst:         133,  192,  200,  204,  212,  216,  220,  224,  232,  240,  268,  284,
                                                       305,  309,  313,  317,  321,  325,  329,  333,  337,  341,  350,  354,
                                                       358,  366,  370,  378,  382,  414,  418,  422,  426,  430,  434,  438,
                                                       486,  490,  494,  498,  502,  506,  510,  514,  526,  530,  535,  539,
                                                       544,  616,  620,  660,  672,  684,  700,  716,  728,  772,  780,  784,
                                                       789,  793,  809,  818.
           0    noio                     inst:         131,  188,  192,  196,  200,  204,  212,  216,  220,  224,  232,  240,
                                                       244,  264,  268,  272,  276,  280,  284,  289,  293,  297,  305,  309,
                                                       313,  317,  321,  325,  329,  333,  337,  341,  345,  350,  354,  358,
                                                       366,  370,  378,  382,  386,  394,  402,  414,  418,  422,  426,  430,
                                                       434,  438,  442,  446,  450,  454,  458,  462,  466,  470,  474,  478,
                                                       482,  486,  490,  494,  498,  502,  506,  510,  514,  518,  522,  526,
                                                       530,  535,  539,  544,  592,  596,  600,  616,  620,  636,  640,  660,
                                                       672,  684,  700,  716,  728,  752,  756,  760,  772,  776,  780,  784,
                                                       789,  793,  797,  805,  809,  813,  818,  822,  926,  930.
           0    notnum                   inst:         134,  192,  196,  208,  212,  220,  228,  240,  252,  260,  264,  341,
                                                       345,  354,  362,  366,  370,  374,  378,  386,  390,  398,  402,  410,
                                                       414,  486,  494,  498,  502,  506,  514,  518,  522,  539,  548,  552,
                                                       556,  560,  564,  568,  572,  576,  580,  584,  588,  600,  604,  608,
                                                       612,  624,  628,  632,  636,  640,  644,  648,  652,  656,  664,  668,
                                                       680,  688,  692,  696,  704,  708,  720,  724,  736,  744,  748,  768,
                                                       776,  780,  801,  822,  826,  830,  834,  838,  842,  846,  850,  854,
                                                       858,  862,  866,  870,  874,  878,  882,  886,  890,  894,  898,  902,
                                                       906,  910,  914,  918,  922,  926.
         105    nr                       inst:          77,  501.
         106    ns                       inst:          78,   79,  505.
         106    ns.                      inst:          79,  509.
         107    nt                       inst:          80,  513.
           0    nu                       inst:         129,  188,  192,  196,  200,  204,  208,  212,  216,  220,  224,  228,
                                                       232,  236,  240,  244,  248,  252,  256,  260,  264,  268,  272,  276,
                                                       280,  284,  289,  293,  297,  301,  305,  309,  313,  317,  321,  325,
                                                       329,  333,  337,  341,  345,  350,  354,  358,  362,  366,  370,  374,
                                                       378,  382,  386,  390,  394,  398,  402,  406,  410,  414,  418,  422,
                                                       426,  430,  434,  438,  442,  446,  450,  454,  458,  462,  466,  470,
                                                       474,  478,  482,  486,  490,  494,  498,  502,  506,  510,  514,  518,
                                                       522,  526,  530,  535,  539,  544,  548,  552,  556,  560,  564,  568,
                                                       572,  576,  580,  584,  588,  592,  596,  600,  604,  608,  612,  616,
                                                       620,  624,  628,  632,  636,  640,  644,  648,  652,  656,  660,  664,
                                                       668,  672,  676,  680,  684,  688,  692,  696,  700,  704,  708,  712,
                                                       716,  720,  724,  728,  732,  736,  740,  744,  748,  752,  756,  760,
                                                       764,  768,  772,  776,  780,  784,  789,  793,  797,  801,  805,  809,
                                                       813,  818,  822,  826,  830,  834,  838,  842,  846,  850,  854,  858,
                                                       862,  866,  870,  874,  878,  882,  886,  890,  894,  898,  902,  906,
                                                       910,  914,  918,  922,  926,  930.
         110    nx                       inst:          81,  517.
         111    o                        inst:          82,  521.
         112    p                        inst:          83,  525.
         113    pd                       inst:          84,  529.
         114    phdln                    inst:          85,  534.
         115    pos                      inst:          86,  538.
           1    pr                       inst:           8,  207,  227,  247,  251,  255,  259,  361,  389,  397,  405,  409,
                                                       547,  551,  555,  559,  563,  567,  571,  575,  579,  583,  587,  603,
                                                       607,  611,  623,  627,  631,  643,  647,  651,  655,  663,  667,  679,
                                                       687,  691,  695,  703,  707,  719,  723,  735,  743,  747,  767,  800,
                                                       825,  829,  833,  837,  841,  845,  849,  853,  857,  861,  865,  869,
                                                       873,  877,  881,  885,  889,  893,  897,  901,  905,  909,  913,  917.
         116    r                        inst:          87,  543.
         117    ret                      inst:          88,  591.
         121    retep                    inst:          90,  599.
         120    retp                     inst:          89,  595.
         122    rfl                      inst:          91,  615.
           2    rjdec                    inst:         137,  139,  224,  232,  248,  256,  272,  276,  280,  284,  289,  293,
                                                       297,  301,  309,  313,  325,  329,  333,  350,  358,  394,  406,  430,
                                                       442,  462,  466,  510,  526,  535,  592,  596,  616,  620,  660,  700,
                                                       716,  760,  772,  797,  805,  813,  818,  930.
           3    rjoct                    inst:         136,  138,  438.
         123    rr                       inst:          92,  619.
         124    rst                      inst:          93,  635.
         125    rsttd                    inst:          94,  639.
         126    rw                       inst:          95,  659.
         127    s                        inst:          96,  671.
         130    sa                       inst:          97,  100,  103,  104,  108,  675.
         131    sdsk                     inst:          98,  683.
         132    sfl                      inst:          99,  699.
         130    si                       inst:         100,  711.
         133    sif                      inst:         101,  715.
         134    smod                     inst:         102,  727.
         130    sn                       inst:         103,  731.
         130    sr                       inst:         104,  739.
         135    stn                      inst:         105,  751.
         136    str                      inst:         106,  755.
         137    sv                       inst:         107,  759.
         130    sw                       inst:         108,  763.
         140    t                        inst:         109,  771.
         141    tal                      inst:         110,  775.
           0    tdli                     inst:           2,  125,  932.
           0    tdlr_no                  inst:           3,  126.
           0    tdlr_num_conv_control    inst:           4,  127.
           0    tdlr_type_conv_control   inst:           5,  128.
         142    tdm                      inst:         111,  779.
         143    tis                      inst:         112,  783.
        1344    tlen                     inst:           6,  931.
         144    trr                      inst:         113,  788.
         145    twr                      inst:         114,  792.
         146    ty.                      inst:         115,  796.
         147    tyrd.                    inst:         116,  804.
         150    tys                      inst:         117,  808.
         151    tywr.                    inst:         118,  812.
         152    uhdln                    inst:         119,  817.
         153    w                        inst:         120,  821.
         154    xdio                     inst:         121,  921.
         155    yes                      inst:         122,  925.
         156    yes.                     inst:         123,  929.


NO FATAL ERRORS


                                          -----------------------------------------------------------


Historical Background

This edition of the Multics software materials and documentation is provided and donated
to Massachusetts Institute of Technology by Group BULL including BULL HN Information Systems Inc.
as a contribution to computer science knowledge.
This donation is made also to give evidence of the common contributions of Massachusetts Institute of Technology,
Bell Laboratories, General Electric, Honeywell Information Systems Inc., Honeywell BULL Inc., Groupe BULL
and BULL HN Information Systems Inc. to the development of this operating system.
Multics development was initiated by Massachusetts Institute of Technology Project MAC (1963-1970),
renamed the MIT Laboratory for Computer Science and Artificial Intelligence in the mid 1970s, under the leadership
of Professor Fernando Jose Corbato. Users consider that Multics provided the best software architecture
for managing computer hardware properly and for executing programs. Many subsequent operating systems
incorporated Multics principles.
Multics was distributed in 1975 to 2000 by Group Bull in Europe , and in the U.S. by Bull HN Information Systems Inc.,
as successor in interest by change in name only to Honeywell Bull Inc. and Honeywell Information Systems Inc. .

                                          -----------------------------------------------------------

Permission to use, copy, modify, and distribute these programs and their documentation for any purpose and without
fee is hereby granted,provided that the below copyright notice and historical background appear in all copies
and that both the copyright notice and historical background and this permission notice appear in supporting
documentation, and that the names of MIT, HIS, BULL or BULL HN not be used in advertising or publicity pertaining
to distribution of the programs without specific prior written permission.
    Copyright 1972 by Massachusetts Institute of Technology and Honeywell Information Systems Inc.
    Copyright 2006 by BULL HN Information Systems Inc.
    Copyright 2006 by Bull SAS
    All Rights Reserved
