ASSEMBLY LISTING OF SEGMENT >spec>on>6978-10/22/84>itp_mod.alm
ASSEMBLED ON:	10/22/84  1115.9 mst Mon
OPTIONS USED:	list
ASSEMBLED BY:	ALM Version  6.6  November 1982
ASSEMBLER CREATED:	09/21/83  1227.3 mst Wed

    000000                           1  	name	itp_mod
                        000002       2  	entry	itp_mod
                                     3  	tempd	temp_1,temp_2
    000000  aa   600000 000041       4  ITP:	oct	600000000041
    000001  aa   000054 022000       5  	oct	54022000
    000002  aa   000060 6270 00      6  itp_mod:	push
    000003  aa  7 00040 2721 20
    000004  aa  6 00050 6521 00      7  	sprisp	temp_1
    000005  aa  6 00051 2351 00      8  	lda	temp_1+1
    000006  aa   000000 6250 01      9  	eax5	0,au
    000007  0a   000001 2360 00     10  	ldq	ITP+1
    000010  aa  6 00051 7561 00     11  	stq	temp_1+1
    000011  aa  6 00051 0651 00     12  	adx5	temp_1+1
    000012  aa  6 00051 7451 00     13  	stx5	temp_1+1
    000013  0a   000000 3520 20     14  	eppbp	ITP,*
    000014  aa  6 00052 2521 00     15  	spribp	temp_2
    000015  aa  6 00052 2371 00     16  	ldaq	temp_2
    000016  aa  6 00050 1171 00     17  	cmpaq	temp_1
    000017  0a   000021 6000 00     18  	tze	*+2
    000020  aa   000000 0010 00     19  	mme1	0
    000021  aa  7 00042 7101 20     20  	return
                                    21  	end
ENTRY SEQUENCES

    000022  5a   000010 0000 00
    000023  aa  7 00046 2721 20
    000024  0a   000002 7100 00

NO LITERALS

NAME DEFINITIONS FOR ENTRY POINTS AND SEGDEFS

    000026  5a   000003 000000
    000027  5a   000024 600000
    000030  aa   000000 000000
    000031  55   000010 000002
    000032  5a   000002 400003
    000033  55   000006 000010
    000034  aa  007 151 164 160
    000035  aa  137 155 157 144
    000036  55   000015 000003
    000037  0a   000023 500000
    000040  55   000013 000003
    000041  aa  007 151 164 160         itp_mod
    000042  aa  137 155 157 144
    000043  55   000002 000010
    000044  6a   000000 400002
    000045  55   000020 000003
    000046  aa  014 163 171 155         symbol_table
    000047  aa  142 157 154 137
    000050  aa  164 141 142 154
    000051  aa  145 000 000 000

DEFINITIONS HASH TABLE

    000052  aa   000000 000015
    000053  aa   000000 000000
    000054  aa   000000 000000
    000055  aa   000000 000000
    000056  aa   000000 000000
    000057  aa   000000 000000
    000060  aa   000000 000000
    000061  5a   000010 000000
    000062  5a   000015 000000
    000063  aa   000000 000000
    000064  aa   000000 000000
    000065  aa   000000 000000
    000066  aa   000000 000000
    000067  aa   000000 000000

NO EXTERNAL NAMES

NO TRAP POINTER WORDS

TYPE PAIR BLOCKS

    000070  aa   000001 000000
    000071  aa   000000 000000

INTERNAL EXPRESSION WORDS

LINKAGE INFORMATION

    000000  aa   000000 000000
    000001  0a   000026 000000
    000002  aa   000000 000000
    000003  aa   000000 000000
    000004  aa   000000 000000
    000005  aa   000000 000000
    000006  22   000010 000010
    000007  a2   000000 000000
SYMBOL INFORMATION

SYMBOL TABLE HEADER

    000000  aa   000000 000001
    000001  aa   163171 155142
    000002  aa   164162 145145
    000003  aa   000000 000004
    000004  aa   000000 112143
    000005  aa   305203 523135
    000006  aa   000000 113126
    000007  aa   356171 732047
    000010  aa   141154 155040
    000011  aa   040040 040040
    000012  aa   000024 000040
    000013  aa   000034 000040
    000014  aa   000044 000100
    000015  aa   000002 000002
    000016  aa   000064 000000
    000017  aa   000000 000120
    000020  aa   000000 000103
    000021  aa   000000 000107
    000022  aa   000112 000103
    000023  aa   000064 000000
    000024  aa   101114 115040
    000025  aa   126145 162163
    000026  aa   151157 156040
    000027  aa   040066 056066
    000030  aa   040040 116157
    000031  aa   166145 155142
    000032  aa   145162 040061
    000033  aa   071070 062040
    000034  aa   107112 157150
    000035  aa   156163 157156
    000036  aa   056123 171163
    000037  aa   115141 151156
    000040  aa   164056 155040
    000041  aa   040040 040040
    000042  aa   040040 040040
    000043  aa   040040 040040
    000044  aa   154151 163164
    000045  aa   040040 040040
    000046  aa   040040 040040
    000047  aa   040040 040040
    000050  aa   040040 040040
    000051  aa   040040 040040
    000052  aa   040040 040040
    000053  aa   040040 040040
    000054  aa   040040 040040
    000055  aa   040040 040040
    000056  aa   040040 040040
    000057  aa   040040 040040
    000060  aa   040040 040040
    000061  aa   040040 040040
    000062  aa   040040 040040
    000063  aa   040040 040040
    000064  aa   000000 000001
    000065  aa   000000 000001
    000066  aa   000072 000042
    000067  aa   131232 072560
    000070  aa   000000 113126
    000071  aa   347613 400000
    000072  aa   076163 160145          >spec>on>6978-10/22/84>itp_mod.alm
    000073  aa   143076 157156
    000074  aa   076066 071067
    000075  aa   070055 061060
    000076  aa   057062 062057
    000077  aa   070064 076151
    000100  aa   164160 137155
    000101  aa   157144 056141
    000102  aa   154155 040040
               MULTICS ASSEMBLY CROSS REFERENCE LISTING

   Value        Symbol                   Source file   Line number

           0    ITP                      itp_mod:        4,   10,   14.
           2    itp_mod                  itp_mod:        2,    6.
          50    temp_1                   itp_mod:        3,    7,    8,   11,   12,   13,   17.
          52    temp_2                   itp_mod:        3,   15,   16.


NO FATAL ERRORS


                                          -----------------------------------------------------------


Historical Background

This edition of the Multics software materials and documentation is provided and donated
to Massachusetts Institute of Technology by Group BULL including BULL HN Information Systems Inc.
as a contribution to computer science knowledge.
This donation is made also to give evidence of the common contributions of Massachusetts Institute of Technology,
Bell Laboratories, General Electric, Honeywell Information Systems Inc., Honeywell BULL Inc., Groupe BULL
and BULL HN Information Systems Inc. to the development of this operating system.
Multics development was initiated by Massachusetts Institute of Technology Project MAC (1963-1970),
renamed the MIT Laboratory for Computer Science and Artificial Intelligence in the mid 1970s, under the leadership
of Professor Fernando Jose Corbato. Users consider that Multics provided the best software architecture
for managing computer hardware properly and for executing programs. Many subsequent operating systems
incorporated Multics principles.
Multics was distributed in 1975 to 2000 by Group Bull in Europe , and in the U.S. by Bull HN Information Systems Inc.,
as successor in interest by change in name only to Honeywell Bull Inc. and Honeywell Information Systems Inc. .

                                          -----------------------------------------------------------

Permission to use, copy, modify, and distribute these programs and their documentation for any purpose and without
fee is hereby granted,provided that the below copyright notice and historical background appear in all copies
and that both the copyright notice and historical background and this permission notice appear in supporting
documentation, and that the names of MIT, HIS, BULL or BULL HN not be used in advertising or publicity pertaining
to distribution of the programs without specific prior written permission.
    Copyright 1972 by Massachusetts Institute of Technology and Honeywell Information Systems Inc.
    Copyright 2006 by BULL HN Information Systems Inc.
    Copyright 2006 by Bull SAS
    All Rights Reserved
