ASSEMBLY LISTING OF SEGMENT >special_ldd>install>MR12.1-1054>ls_message_table_.alm
ASSEMBLED ON:	08/04/87  1245.2 mst Tue
OPTIONS USED:	-target l68                              list symbols
ASSEMBLED BY:	ALM Version 7.3 November 1986
ASSEMBLER CREATED:	11/26/86  1244.2 mst Wed

                                     1  " ***********************************************************
                                     2  " *                                                         *
                                     3  " * Copyright, (C) Honeywell Bull Inc., 1987                *
                                     4  " *                                                         *
                                     5  " ***********************************************************
                                     6
                                     7  " HISTORY COMMENTS:
                                     8  "  1) change(85-03-01,Coren), approve(87-07-06,MCR7679),
                                     9  "     audit(87-02-27,GDixon), install(87-08-04,MR12.1-1055):
                                    10  "     Created out of as_error_table_.
                                    11  "  2) change(87-04-02,GDixon), approve(87-07-06,MCR7679),
                                    12  "     audit(87-05-19,Parisek), install(87-08-04,MR12.1-1055):
                                    13  "      A) Add login_timeout message diagnosing login failure due to realtime
                                    14  "         limit expiration (installation_parms.login_time).
                                    15  "      B) Add bad_password_check message diagnosing error from check_password_.
                                    16  "      C) Add new_password_indistinct message, diagnosing new password which
                                    17  "               scrambles to same value as original password.
                                    18  "  3) change(87-05-17,GDixon), approve(87-07-06,MCR7679),
                                    19  "     audit(87-05-19,Parisek), install(87-08-04,MR12.1-1055):
                                    20  "      A) Update list_process.
                                    21  "      B) Add list_proc_he, the header for the table of disconnected
                                    22  "               processes.
                                    23  "                                                      END HISTORY COMMENTS
                                    24
                                    25  "  ls_message_table_ -- contains messages and control strings used by login
                                    26  "  servers.
                                    27
                                    28  "  This table is not strictly speaking an error table: the messages are
                                    29  "  generated by the ls_message macro, and do not contain short messages.
                                    30
                                    31  "  This module is installation replaceable.
                                    32  "  It contains the text for error and informative messages typed by login
                                    33  "  servers on user's terminals. Each installation may tailor these messages,
                                    34  "  inserting phone numbers or whatever, or translating them into other
                                    35  "  languages, as necessary.
                                    36  "  One important motivation for having this table is so that installations
                                    37  "  may be as informative or non-informative as they please about the
                                    38  "  reasons for refusing login, depending on local security requirements.
                                    39
                                    40  "  Some of the items in this table are actually control strings for ioa_$rs.
                                    41  "  Those which contain conditionals (i.e., ^[...^] constructs) or for
                                    42  "  which the meaning of the data items is not immediately obvious are
                                    43  "  accompanied by explanatory comments.
                                    44
                                    45  	include	et_macros
                                   1-1  " Begin include file ...... et_macros.incl.alm
                                   1-2  "	Written 6/15/77 by Noel I. Morris
                                   1-3  "	Modified '82 so error code entries are in first page of segment.
                                   1-4
                                   1-5  " This include file contains macros for generating error tables
                                   1-6  " for both system and non-system use.
                                   1-7
                                   1-8  " ET MACRO
                                   1-9  "
                                  1-10  " This macro is used to initialize the error table for either
                                  1-11  " system or non-system use.  It is invoked at the beginning of
                                  1-12  " the error table as follows:
                                  1-13  "
                                  1-14  "	et	table_name{,system}
                                  1-15  "
                                  1-16
                                  1-17  macro	et
                              1   1-18  	maclist	on
                              2   1-19
                              3   1-20  	name	&1
                              4   1-21
                              5   1-22  &^=&2,system&[
                              6   1-23
                              7   1-24  	include	stack_header
                              8   1-25
                              9   1-26  
                             10   1-27
                             11   1-28  	use	codes
                             12   1-29  .code_start:
                             13   1-30
                             14   1-31  	use	past_codes
                             15   1-32  .code_end:
                             16   1-33
                             17   1-34  	join	/link/codes,past_codes
                             18   1-35
                             19   1-36  	use	messages
                             20   1-37
                             21   1-38  .trapproc:
                             22   1-39  	epaq	0,ic
                             23   1-40  	eax0	0,au
                             24   1-41  	epbpsb	sp|0
                             25   1-42  	lprplp	sb|stack_header.lot_ptr,*au
                             26   1-43  	eax1	.code_start
                             27   1-44  .loop:	stx0	lp|0,x1
                             28   1-45  	eax1	1,x1
                             29   1-46  	cmpx1	.code_end,du
                             30   1-47  	tmi	.loop-*,ic
                             31   1-48  	short_return
                             32   1-49
                             33   1-50  	firstref	<*text>|.trapproc
                             34   1-51
                             35   1-52  &;	use	codes
                             36   1-53  	use	messages
                             37   1-54
                             38   1-55  	join	/text/codes,messages
                             39   1-56
                             40   1-57  &]
                             41   1-58
                             42   1-59  	bool	.segno,77777
                             43   1-60
                             44   1-61  	maclist	off
                             45   1-62
                             46   1-63  	&end
                                  1-64
                                  1-65  
                                  1-66
                                  1-67  " EC MACRO
                                  1-68  "
                                  1-69  " This macro is used to define an error code as shown:
                                  1-70  "
                                  1-71  "	ec	name,{short_mess},(long_mess)
                                  1-72  "
                                  1-73  " If more than a single name is to be defined for a given message,
                                  1-74  " a list of names separated by commas and enclosed in parentheses
                                  1-75  " must be given.   short_mess must be 8 or less characters.  If omitted,
                                  1-76  " the short_mess will be set to the name.  long_mess is enclosed
                                  1-77  " in parentheses in order to cause ALM to ignore embedded blanks.  Please
                                  1-78  " note that double quote characters in either short_mess or long_mess
                                  1-79  " must be doubled in order to make the ALM assembly work properly.
                                  1-80  " Note that a macro invocation line terminated by a comma will cause that
                                  1-81  " statement to be continued on the next line.
                                  1-82
                                  1-83  macro	ec
                              1   1-84  	use	codes
                              2   1-85
                              3   1-86  	maclist	on,save
                              4   1-87  &(1	segdef  &i
                              5   1-88  &)	maclist	restore
                              6   1-89  &(1&i:
                              7   1-90  &)	maclist	object,save
                              8   1-91  	zero	.segno,&U
                              9   1-92  	maclist	restore
                             10   1-93  	use	messages
                             11   1-94  &^=&l2,0&[	shortname    &2
                             12   1-95  &;	shortname    &1
                             13   1-96  &]
                             14   1-97  &U:
                             15   1-98  	maclist	on,save
                             16   1-99  	acc  "&3"
                             17  1-100
                             18  1-101  	maclist	restore
                             19  1-102  	&end
                                 1-103
                                 1-104  macro	shortname
                              1  1-105  	maclist	on,save
                              2  1-106  	aci  "&1",8
                              3  1-107  	maclist	restore
                              4  1-108  	&end
                                 1-109
                                 1-110  
                                 1-111
                                 1-112  " A typical error table source program might have the following format:
                                 1-113  "
                                 1-114  "	include	et_macros
                                 1-115  "
                                 1-116  "	et	name_of_error_table
                                 1-117  "
                                 1-118  "	ec	error_code_1,ecode1,(This is error code 1.)
                                 1-119  "
                                 1-120  "	ec	error_code_2,ecode2,(This is error code 2.)
                                 1-121  "
                                 1-122  "	:	     :	      :		:
                                 1-123  "
                                 1-124  "	ec	error_code_n,ecoden,(This is the nth error code.)
                                 1-125  "
                                 1-126  "	end
                                 1-127  "
                                 1-128
                                 1-129  " End of include file ...... et_macros.incl.alm
                                 1-130
                                    46
                                    47  	include	ls_macros
                                   2-1  "  BEGIN:   ls_macros.incl.alm			  *  *  *  *  *  */
                                   2-2
                                   2-3  " HISTORY COMMENTS:
                                   2-4  "  1) change(85-09-01,Coren), approve(87-07-14,MCR7679),
                                   2-5  "     audit(87-03-18,GDixon), install(87-08-04,MR12.1-1056):
                                   2-6  "     Initial coding.
                                   2-7  "                                                      END HISTORY COMMENTS
                                   2-8
                                   2-9  "This include file contains macros used in data segments for the login server.
                                  2-10
                                  2-11  " LS_MESSAGE MACRO
                                  2-12  "
                                  2-13  " This macro, adapted from the ec macro, is used to define a message
                                  2-14  " to be used as an ioa_ control string, as follows:
                                  2-15  "
                                  2-16  "	ls_message name,(message)
                                  2-17  "
                                  2-18  " If more than a single name is to be defined for a given message,
                                  2-19  " a list of names separated by commas and enclosed in parentheses
                                  2-20  " must be given. message is enclosed
                                  2-21  " in parentheses in order to cause ALM to ignore embedded blanks.  Please
                                  2-22  " note that double quote characters in message
                                  2-23  " must be doubled in order to make the ALM assembly work properly.
                                  2-24  " Note that a macro invocation line terminated by a comma will cause that
                                  2-25  " statement to be continued on the next line.
                                  2-26  " The ls_message macro assumes the use of the et macro (defined in
                                  2-27  " et_macros.incl.alm) to define the table itself.
                                  2-28
                                  2-29  macro	ls_message
                              1   2-30  	use	codes
                              2   2-31
                              3   2-32  	maclist	on,save
                              4   2-33  &(1	segdef  &i
                              5   2-34  &)	maclist	restore
                              6   2-35  &(1&i:
                              7   2-36  &)	maclist	object,save
                              8   2-37  	zero	.segno,&U
                              9   2-38  	maclist	restore
                             10   2-39  	use	messages
                             11   2-40  &U:
                             12   2-41  	maclist	on,save
                             13   2-42  	acc  "&2"
                             14   2-43
                             15   2-44  	maclist	restore
                             16   2-45  	&end
                                  2-46
                                  2-47  "  END OF:  ls_macros.incl.alm			  *  *  *  *  *  */
                                    48
                                    49  	et	ls_message_table_

    000000                              	name	ls_message_table_


                                        	include	stack_header
                                   3-1  "	BEGIN INCLUDE FILE ... stack_header.incl.alm  3/72  Bill Silver
                                   3-2  "
                                   3-3  "	modified 7/76 by M. Weaver for *system links and more system use of areas
                                   3-4  "	modified 3/77 by M. Weaver  to add rnt_ptr
                                   3-5  "	modified 7/77 by S. Webber to add run_unit_depth and assign_linkage_ptr
                                   3-6  "	modified 6/83 by J. Ives to add trace_frames and in_trace.
                                   3-7
                                   3-8  " HISTORY COMMENTS:
                                   3-9  "  1) change(86-06-24,DGHowe), approve(86-06-24,MCR7396),
                                  3-10  "     audit(86-08-05,Schroth), install(86-11-03,MR12.0-1206):
                                  3-11  "     added the heap_header_ptr definition
                                  3-12  "  2) change(86-08-12,Kissel), approve(86-08-12,MCR7473),
                                  3-13  "     audit(86-10-10,Fawcett), install(86-11-03,MR12.0-1206):
                                  3-14  "     Modified to support control point management.  These changes were
                                  3-15  "     actually made in February 1985 by G. Palter.
                                  3-16  "  3) change(86-10-22,Fawcett), approve(86-10-22,MCR7473),
                                  3-17  "     audit(86-10-22,Farley), install(86-11-03,MR12.0-1206):
                                  3-18  "     Remove the old_lot pointer and replace it with cpm_data_ptr. Use the 18
                                  3-19  "     bit pad after cur_lot_size for the cpm_enabled. This was done to save
                                  3-20  "     some space int the stack header and change the cpd_ptr unal to
                                  3-21  "     cpm_data_ptr (ITS pair).
                                  3-22  "                                                      END HISTORY COMMENTS
                                  3-23
                        000004    3-24  	equ	stack_header.cpm_data_ptr,4		ptr to control point for this stack
                        000006    3-25  	equ	stack_header.combined_stat_ptr,6	ptr to separate static area
                                  3-26
                        000010    3-27  	equ	stack_header.clr_ptr,8		ptr to area containing linkage sections
                        000012    3-28  	equ	stack_header.max_lot_size,10		number of words allowed in lot (DU)
                        000012    3-29  	equ	stack_header.main_proc_invoked,10	nonzero if main proc was invoked in run unit (DL)
                        000012    3-30  	equ	stack_header.run_unit_depth,10	number of active run units stacked (DL)
                        000013    3-31  	equ	stack_header.cur_lot_size,11		DU number of words (entries) in lot
                        000013    3-32            equ	stack_header.cpm_enabled,11		DL  non-zero if control point management is enabled
                        000014    3-33  	equ	stack_header.system_free_ptr,12	ptr to system storage area
                        000016    3-34  	equ	stack_header.user_free_ptr,14		ptr to user storage area
                                  3-35
                        000020    3-36  	equ	stack_header.parent_ptr,16		ptr to parent stack or null
                        000022    3-37  	equ	stack_header.stack_begin_ptr,18	ptr to first stack frame
                        000024    3-38  	equ	stack_header.stack_end_ptr,20		ptr to next useable stack frame
                        000026    3-39  	equ	stack_header.lot_ptr,22		ptr to the lot for the current ring
                                  3-40
                        000030    3-41  	equ	stack_header.signal_ptr,24		ptr to signal proc for current ring
                        000032    3-42  	equ	stack_header.bar_mode_sp,26		value of sp before entering bar mode
                        000034    3-43  	equ	stack_header.pl1_operators_ptr,28	ptr: pl1_operators_$operator_table
                        000036    3-44  	equ	stack_header.call_op_ptr,30		ptr to standard call operator
                                  3-45
                        000040    3-46  	equ	stack_header.push_op_ptr,32		ptr to standard push operator
                        000042    3-47  	equ	stack_header.return_op_ptr,34		ptr to standard return operator
                        000044    3-48  	equ	stack_header.ret_no_pop_op_ptr,36	ptr: stand. return/ no pop operator
                        000046    3-49  	equ	stack_header.entry_op_ptr,38		ptr to standard entry operator
                                  3-50
                        000050    3-51  	equ	stack_header.trans_op_tv_ptr,40	ptr to table of translator operator ptrs
                        000052    3-52  	equ	stack_header.isot_ptr,42		pointer to ISOT
                        000054    3-53  	equ	stack_header.sct_ptr,44		pointer to System Condition Table
                        000056    3-54  	equ	stack_header.unwinder_ptr,46		pointer to unwinder for current ring
                                  3-55
                        000060    3-56  	equ	stack_header.sys_link_info_ptr,48	ptr to *system link name table
                        000062    3-57  	equ	stack_header.rnt_ptr,50		ptr to reference name table
                        000064    3-58  	equ	stack_header.ect_ptr,52		ptr to event channel table
                        000066    3-59  	equ	stack_header.assign_linkage_ptr,54	ptr to area for hcs_$assign_linkage calls
                        000070    3-60  	equ	stack_header.heap_header_ptr,56	ptr to heap header.
                        000072    3-61  	equ	stack_header.trace_frames,58		stack of trace_catch_ frames
                        000073    3-62  	equ	stach_header.trace_top_ptr,59		trace pointer
                        000074    3-63  	equ	stack_header.in_trace,60		trace antirecurse bit
                        000100    3-64  	equ	stack_header_end,64			length of stack header
                                  3-65
                                  3-66
                                  3-67
                                  3-68
                        000000    3-69  	equ	trace_frames.count,0		number of trace frames on stack
                        000001    3-70  	equ	trace_frames.top_ptr,1		packed pointer to top one
                                  3-71
                                  3-72  "	The  following constant is an offset within the  pl1  operators table.
                                  3-73  "	It  references a  transfer vector table.
                                  3-74
                        000551    3-75  	bool	tv_offset,551
                                  3-76
                                  3-77
                                  3-78  "	The  following constants are offsets within this transfer vector table.
                                  3-79
                        001170    3-80  	equ	call_offset,tv_offset+271
                        001171    3-81  	equ	push_offset,tv_offset+272
                        001172    3-82  	equ	return_offset,tv_offset+273
                        001173    3-83  	equ	return_no_pop_offset,tv_offset+274
                        001174    3-84  	equ	entry_offset,tv_offset+275
                                  3-85
                                  3-86
                                  3-87  " 	END INCLUDE FILE stack_header.incl.alm

                                        

                                        	use	codes
    000010                              .code_start:

                                        	use	past_codes
    000127                              .code_end:

                                        	join	/link/codes,past_codes

                                        	use	messages

    000000                              .trapproc:
    000000  aa   000000 2130 04         	epaq	0,ic
    000001  aa   000000 6200 01         	eax0	0,au
    000002  aa  6 00000 3731 00         	epbpsb	sp|0
    000003  aa  7 00026 7641 61         	lprplp	sb|stack_header.lot_ptr,*au
    000004  8a   000010 6210 00         	eax1	.code_start
    000005  aa  4 00000 7401 11         .loop:	stx0	lp|0,x1
    000006  aa   000001 6210 11         	eax1	1,x1
    000007  8a   000127 1010 03         	cmpx1	.code_end,du
    000010  aa   777775 6040 04         	tmi	.loop-*,ic
    000011  aa  7 00044 7101 20         	short_return

    000012                              	firstref	<*text>|.trapproc


                        077777          	bool	.segno,77777

                                    50
                                    51  	ls_message aclass_banner_msg,(Channel access class: ^a.)
                        000010          	segdef  aclass_banner_msg
    000010  a0   077777 000012
    000012  aa  031 103 150 141         	acc  "Channel access class: ^a."
    000013  aa  156 156 145 154
    000014  aa  040 141 143 143
    000015  aa  145 163 163 040
    000016  aa  143 154 141 163
    000017  aa  163 072 040 136
    000020  aa  141 056 000 000

                                    52  	ls_message already_logged_in,(^a.^a already logged in from ^a terminal ""^a"".)
                        000011          	segdef  already_logged_in
    000011  a0   077777 000021
    000021  aa  056 136 141 056         	acc  "^a.^a already logged in from ^a terminal ""^a""."
    000022  aa  136 141 040 141
    000023  aa  154 162 145 141
    000024  aa  144 171 040 154
    000025  aa  157 147 147 145
    000026  aa  144 040 151 156
    000027  aa  040 146 162 157
    000030  aa  155 040 136 141
    000031  aa  040 164 145 162
    000032  aa  155 151 156 141
    000033  aa  154 040 042 136
    000034  aa  141 042 056 000

                                    53  	ls_message authorization,(******^/Your authorization is ^a.^/******)
                        000012          	segdef  authorization
    000012  a0   077777 000035
    000035  aa  051 052 052 052         	acc  "******^/Your authorization is ^a.^/******"
    000036  aa  052 052 052 136
    000037  aa  057 131 157 165
    000040  aa  162 040 141 165
    000041  aa  164 150 157 162
    000042  aa  151 172 141 164
    000043  aa  151 157 156 040
    000044  aa  151 163 040 136
    000045  aa  141 056 136 057
    000046  aa  052 052 052 052
    000047  aa  052 052 000 000

                                    54  	ls_message automatic_logout,(Automatic logout.)
                        000013          	segdef  automatic_logout
    000013  a0   077777 000050
    000050  aa  021 101 165 164         	acc  "Automatic logout."
    000051  aa  157 155 141 164
    000052  aa  151 143 040 154
    000053  aa  157 147 157 165
    000054  aa  164 056 000 000

                                    55  	ls_message bad_login_arguments_string,(login: Error processing arguments following -arguments.)
                        000014          	segdef  bad_login_arguments_string
    000014  a0   077777 000055
    000055  aa  067 154 157 147         	acc  "login: Error processing arguments following -arguments."
    000056  aa  151 156 072 040
    000057  aa  105 162 162 157
    000060  aa  162 040 160 162
    000061  aa  157 143 145 163
    000062  aa  163 151 156 147
    000063  aa  040 141 162 147
    000064  aa  165 155 145 156
    000065  aa  164 163 040 146
    000066  aa  157 154 154 157
    000067  aa  167 151 156 147
    000070  aa  040 055 141 162
    000071  aa  147 165 155 145
    000072  aa  156 164 163 056

                                    56  	ls_message bad_login_word_msg,(Incorrect login word ""^a"".)
                        000015          	segdef  bad_login_word_msg
    000015  a0   077777 000073
    000073  aa  032 111 156 143         	acc  "Incorrect login word ""^a""."
    000074  aa  157 162 162 145
    000075  aa  143 164 040 154
    000076  aa  157 147 151 156
    000077  aa  040 167 157 162
    000100  aa  144 040 042 136
    000101  aa  141 042 056 000

                                    57  	ls_message bad_password_check,(login: Invalid password.  ^a.)
                        000016          	segdef  bad_password_check
    000016  a0   077777 000102
    000102  aa  035 154 157 147         	acc  "login: Invalid password.  ^a."
    000103  aa  151 156 072 040
    000104  aa  111 156 166 141
    000105  aa  154 151 144 040
    000106  aa  160 141 163 163
    000107  aa  167 157 162 144
    000110  aa  056 040 040 136
    000111  aa  141 056 000 000

                                    58  		" ^a is error message from check_password_ subroutine.
                                    59  	ls_message bad_password_format,(login: Passwords must be 8 or less printing characters, without spaces or semi-colons)
                        000017          	segdef  bad_password_format
    000017  a0   077777 000112
    000112  aa  125 154 157 147         	acc  "login: Passwords must be 8 or less printing characters, without spaces or semi-colons"
    000113  aa  151 156 072 040
    000114  aa  120 141 163 163
    000115  aa  167 157 162 144
    000116  aa  163 040 155 165
    000117  aa  163 164 040 142
    000120  aa  145 040 070 040
    000121  aa  157 162 040 154
    000122  aa  145 163 163 040
    000123  aa  160 162 151 156
    000124  aa  164 151 156 147
    000125  aa  040 143 150 141
    000126  aa  162 141 143 164
    000127  aa  145 162 163 054
    000130  aa  040 167 151 164
    000131  aa  150 157 165 164
    000132  aa  040 163 160 141
    000133  aa  143 145 163 040
    000134  aa  157 162 040 163
    000135  aa  145 155 151 055
    000136  aa  143 157 154 157
    000137  aa  156 163 000 000

                                    60  	ls_message coming_up,(Multics is coming up. Try again in a few minutes.)
                        000020          	segdef  coming_up
    000020  a0   077777 000140
    000140  aa  061 115 165 154         	acc  "Multics is coming up. Try again in a few minutes."
    000141  aa  164 151 143 163
    000142  aa  040 151 163 040
    000143  aa  143 157 155 151
    000144  aa  156 147 040 165
    000145  aa  160 056 040 124
    000146  aa  162 171 040 141
    000147  aa  147 141 151 156
    000150  aa  040 151 156 040
    000151  aa  141 040 146 145
    000152  aa  167 040 155 151
    000153  aa  156 165 164 145
    000154  aa  163 056 000 000

                                    61  	ls_message connect_requests,(Please type list, create, connect, new_proc, destroy, logout, or help.)
                        000021          	segdef  connect_requests
    000021  a0   077777 000155
    000155  aa  106 120 154 145         	acc  "Please type list, create, connect, new_proc, destroy, logout, or help."
    000156  aa  141 163 145 040
    000157  aa  164 171 160 145
    000160  aa  040 154 151 163
    000161  aa  164 054 040 143
    000162  aa  162 145 141 164
    000163  aa  145 054 040 143
    000164  aa  157 156 156 145
    000165  aa  143 164 054 040
    000166  aa  156 145 167 137
    000167  aa  160 162 157 143
    000170  aa  054 040 144 145
    000171  aa  163 164 162 157
    000172  aa  171 054 040 154
    000173  aa  157 147 157 165
    000174  aa  164 054 040 157
    000175  aa  162 040 150 145
    000176  aa  154 160 056 000

                                    62  	ls_message connected,(Your disconnected process^[ #^d^] will be connected to this terminal.)
                        000022          	segdef  connected
    000022  a0   077777 000177
    000177  aa  105 131 157 165         	acc  "Your disconnected process^[ #^d^] will be connected to this terminal."
    000200  aa  162 040 144 151
    000201  aa  163 143 157 156
    000202  aa  156 145 143 164
    000203  aa  145 144 040 160
    000204  aa  162 157 143 145
    000205  aa  163 163 136 133
    000206  aa  040 043 136 144
    000207  aa  136 135 040 167
    000210  aa  151 154 154 040
    000211  aa  142 145 040 143
    000212  aa  157 156 156 145
    000213  aa  143 164 145 144
    000214  aa  040 164 157 040
    000215  aa  164 150 151 163
    000216  aa  040 164 145 162
    000217  aa  155 151 156 141
    000220  aa  154 056 000 000

                                    63  "			number printed if there's more than 1
                                    64  	ls_message connected_after_new_proc,(Your disconnected process^[ #^d^] will be connected to this terminal after new_proc.)
                        000023          	segdef  connected_after_new_proc
    000023  a0   077777 000221
    000221  aa  124 131 157 165         	acc  "Your disconnected process^[ #^d^] will be connected to this terminal after new_proc."
    000222  aa  162 040 144 151
    000223  aa  163 143 157 156
    000224  aa  156 145 143 164
    000225  aa  145 144 040 160
    000226  aa  162 157 143 145
    000227  aa  163 163 136 133
    000230  aa  040 043 136 144
    000231  aa  136 135 040 167
    000232  aa  151 154 154 040
    000233  aa  142 145 040 143
    000234  aa  157 156 156 145
    000235  aa  143 164 145 144
    000236  aa  040 164 157 040
    000237  aa  164 150 151 163
    000240  aa  040 164 145 162
    000241  aa  155 151 156 141
    000242  aa  154 040 141 146
    000243  aa  164 145 162 040
    000244  aa  156 145 167 137
    000245  aa  160 162 157 143
    000246  aa  056 000 000 000

                                    65  "			number printed if there's more than 1
                                    66  	ls_message cost_message,(CPU usage^[ ^d min^;^s^] ^d sec, cost $^.2f.)
                        000024          	segdef  cost_message
    000024  a0   077777 000247
    000247  aa  054 103 120 125         	acc  "CPU usage^[ ^d min^;^s^] ^d sec, cost $^.2f."
    000250  aa  040 165 163 141
    000251  aa  147 145 136 133
    000252  aa  040 136 144 040
    000253  aa  155 151 156 136
    000254  aa  073 136 163 136
    000255  aa  135 040 136 144
    000256  aa  040 163 145 143
    000257  aa  054 040 143 157
    000260  aa  163 164 040 044
    000261  aa  136 056 062 146
    000262  aa  056 000 000 000

                                    67  "			Condition is CPU usage >= 1 minute
                                    68  	ls_message current_modes,(Current modes: ^a)
                        000025          	segdef  current_modes
    000025  a0   077777 000263
    000263  aa  021 103 165 162         	acc  "Current modes: ^a"
    000264  aa  162 145 156 164
    000265  aa  040 155 157 144
    000266  aa  145 163 072 040
    000267  aa  136 141 000 000

                                    69  	ls_message current_terminal_id,(Current terminal ID is ""^a"".)
                        000026          	segdef  current_terminal_id
    000026  a0   077777 000270
    000270  aa  034 103 165 162         	acc  "Current terminal ID is ""^a""."
    000271  aa  162 145 156 164
    000272  aa  040 164 145 162
    000273  aa  155 151 156 141
    000274  aa  154 040 111 104
    000275  aa  040 151 163 040
    000276  aa  042 136 141 042
    000277  aa  056 000 000 000

                                    70  	ls_message current_terminal_type,(Current terminal type is ""^a"".)
                        000027          	segdef  current_terminal_type
    000027  a0   077777 000300
    000300  aa  036 103 165 162         	acc  "Current terminal type is ""^a""."
    000301  aa  162 145 156 164
    000302  aa  040 164 145 162
    000303  aa  155 151 156 141
    000304  aa  154 040 164 171
    000305  aa  160 145 040 151
    000306  aa  163 040 042 136
    000307  aa  141 042 056 000

                                    71  	ls_message default_auth_changed,(Default authorization changed.)
                        000030          	segdef  default_auth_changed
    000030  a0   077777 000310
    000310  aa  036 104 145 146         	acc  "Default authorization changed."
    000311  aa  141 165 154 164
    000312  aa  040 141 165 164
    000313  aa  150 157 162 151
    000314  aa  172 141 164 151
    000315  aa  157 156 040 143
    000316  aa  150 141 156 147
    000317  aa  145 144 056 000

                                    72  	ls_message default_project_changed,(Default project changed.)
                        000031          	segdef  default_project_changed
    000031  a0   077777 000320
    000320  aa  030 104 145 146         	acc  "Default project changed."
    000321  aa  141 165 154 164
    000322  aa  040 160 162 157
    000323  aa  152 145 143 164
    000324  aa  040 143 150 141
    000325  aa  156 147 145 144
    000326  aa  056 000 000 000

                                    73  	ls_message dial_connect_msg,( ^a terminal ""^a"" dialed to ^a at ^a.)
                        000032          	segdef  dial_connect_msg
    000032  a0   077777 000327
    000327  aa  045 040 136 141         	acc  " ^a terminal ""^a"" dialed to ^a at ^a."
    000330  aa  040 164 145 162
    000331  aa  155 151 156 141
    000332  aa  154 040 042 136
    000333  aa  141 042 040 144
    000334  aa  151 141 154 145
    000335  aa  144 040 164 157
    000336  aa  040 136 141 040
    000337  aa  141 164 040 136
    000340  aa  141 056 000 000

                                    74  	ls_message dial_logout,(Master process logged out.)
                        000033          	segdef  dial_logout
    000033  a0   077777 000341
    000341  aa  032 115 141 163         	acc  "Master process logged out."
    000342  aa  164 145 162 040
    000343  aa  160 162 157 143
    000344  aa  145 163 163 040
    000345  aa  154 157 147 147
    000346  aa  145 144 040 157
    000347  aa  165 164 056 000

                                    75  	ls_message dial_terminated,(Master process terminated. Please reissue dial command.)
                        000034          	segdef  dial_terminated
    000034  a0   077777 000350
    000350  aa  067 115 141 163         	acc  "Master process terminated. Please reissue dial command."
    000351  aa  164 145 162 040
    000352  aa  160 162 157 143
    000353  aa  145 163 163 040
    000354  aa  164 145 162 155
    000355  aa  151 156 141 164
    000356  aa  145 144 056 040
    000357  aa  120 154 145 141
    000360  aa  163 145 040 162
    000361  aa  145 151 163 163
    000362  aa  165 145 040 144
    000363  aa  151 141 154 040
    000364  aa  143 157 155 155
    000365  aa  141 156 144 056

                                    76  	ls_message dialed_to_mc,(Channel ^a dialed to message coordinator.)
                        000035          	segdef  dialed_to_mc
    000035  a0   077777 000366
    000366  aa  051 103 150 141         	acc  "Channel ^a dialed to message coordinator."
    000367  aa  156 156 145 154
    000370  aa  040 136 141 040
    000371  aa  144 151 141 154
    000372  aa  145 144 040 164
    000373  aa  157 040 155 145
    000374  aa  163 163 141 147
    000375  aa  145 040 143 157
    000376  aa  157 162 144 151
    000377  aa  156 141 164 157
    000400  aa  162 056 000 000

                                    77  "			connection name
                                    78  	ls_message disconnected_processes,(You have ^d disconnected process^[es^].)
                        000036          	segdef  disconnected_processes
    000036  a0   077777 000401
    000401  aa  047 131 157 165         	acc  "You have ^d disconnected process^[es^]."
    000402  aa  040 150 141 166
    000403  aa  145 040 136 144
    000404  aa  040 144 151 163
    000405  aa  143 157 156 156
    000406  aa  145 143 164 145
    000407  aa  144 040 160 162
    000410  aa  157 143 145 163
    000411  aa  163 136 133 145
    000412  aa  163 136 135 056

                                    79  "			condition is n_processes > 1
                                    80  	ls_message dropped_by_mc,(^a dropped by message coordinator.)
                        000037          	segdef  dropped_by_mc
    000037  a0   077777 000413
    000413  aa  042 136 141 040         	acc  "^a dropped by message coordinator."
    000414  aa  144 162 157 160
    000415  aa  160 145 144 040
    000416  aa  142 171 040 155
    000417  aa  145 163 163 141
    000420  aa  147 145 040 143
    000421  aa  157 157 162 144
    000422  aa  151 156 141 164
    000423  aa  157 162 056 000

                                    81  "			connection name
                                    82  	ls_message fatal_error,(Fatal error. Process has terminated. ^a)
                        000040          	segdef  fatal_error
    000040  a0   077777 000424
    000424  aa  047 106 141 164         	acc  "Fatal error. Process has terminated. ^a"
    000425  aa  141 154 040 145
    000426  aa  162 162 157 162
    000427  aa  056 040 120 162
    000430  aa  157 143 145 163
    000431  aa  163 040 150 141
    000432  aa  163 040 164 145
    000433  aa  162 155 151 156
    000434  aa  141 164 145 144
    000435  aa  056 040 136 141

                                    83  "			^a is expansion of process-termination error code
                                    84  	ls_message fpe_caused_logout,(Process has terminated and requested user logout.)
                        000041          	segdef  fpe_caused_logout
    000041  a0   077777 000436
    000436  aa  061 120 162 157         	acc  "Process has terminated and requested user logout."
    000437  aa  143 145 163 163
    000440  aa  040 150 141 163
    000441  aa  040 164 145 162
    000442  aa  155 151 156 141
    000443  aa  164 145 144 040
    000444  aa  141 156 144 040
    000445  aa  162 145 161 165
    000446  aa  145 163 164 145
    000447  aa  144 040 165 163
    000450  aa  145 162 040 154
    000451  aa  157 147 157 165
    000452  aa  164 056 000 000

                                    85  	ls_message fpe_during_init,(Fatal error during process initialization.)
                        000042          	segdef  fpe_during_init
    000042  a0   077777 000453
    000453  aa  052 106 141 164         	acc  "Fatal error during process initialization."
    000454  aa  141 154 040 145
    000455  aa  162 162 157 162
    000456  aa  040 144 165 162
    000457  aa  151 156 147 040
    000460  aa  160 162 157 143
    000461  aa  145 163 163 040
    000462  aa  151 156 151 164
    000463  aa  151 141 154 151
    000464  aa  172 141 164 151
    000465  aa  157 156 056 000

                                    86  	ls_message fpe_loop,(You appear to be in a fatal process error loop.)
                        000043          	segdef  fpe_loop
    000043  a0   077777 000466
    000466  aa  057 131 157 165         	acc  "You appear to be in a fatal process error loop."
    000467  aa  040 141 160 160
    000470  aa  145 141 162 040
    000471  aa  164 157 040 142
    000472  aa  145 040 151 156
    000473  aa  040 141 040 146
    000474  aa  141 164 141 154
    000475  aa  040 160 162 157
    000476  aa  143 145 163 163
    000477  aa  040 145 162 162
    000500  aa  157 162 040 154
    000501  aa  157 157 160 056

                                    87  	ls_message fpe_new_proc,(New process created.)
                        000044          	segdef  fpe_new_proc
    000044  a0   077777 000502
    000502  aa  024 116 145 167         	acc  "New process created."
    000503  aa  040 160 162 157
    000504  aa  143 145 163 163
    000505  aa  040 143 162 145
    000506  aa  141 164 145 144
    000507  aa  056 000 000 000

                                    88  	ls_message generated_password,(Your new password is ""^a"", pronounced ""^a"".)
                        000045          	segdef  generated_password
    000045  a0   077777 000510
    000510  aa  053 131 157 165         	acc  "Your new password is ""^a"", pronounced ""^a""."
    000511  aa  162 040 156 145
    000512  aa  167 040 160 141
    000513  aa  163 163 167 157
    000514  aa  162 144 040 151
    000515  aa  163 040 042 136
    000516  aa  141 042 054 040
    000517  aa  160 162 157 156
    000520  aa  157 165 156 143
    000521  aa  145 144 040 042
    000522  aa  136 141 042 056

                                    89  	ls_message generated_password_error,(New password typed incorrectly.)
                        000046          	segdef  generated_password_error
    000046  a0   077777 000523
    000523  aa  037 116 145 167         	acc  "New password typed incorrectly."
    000524  aa  040 160 141 163
    000525  aa  163 167 157 162
    000526  aa  144 040 164 171
    000527  aa  160 145 144 040
    000530  aa  151 156 143 157
    000531  aa  162 162 145 143
    000532  aa  164 154 171 056

                                    90  	ls_message give_instructions,(Please give instructions regarding your disconnected process(es).)
                        000047          	segdef  give_instructions
    000047  a0   077777 000533
    000533  aa  101 120 154 145         	acc  "Please give instructions regarding your disconnected process(es)."
    000534  aa  141 163 145 040
    000535  aa  147 151 166 145
    000536  aa  040 151 156 163
    000537  aa  164 162 165 143
    000540  aa  164 151 157 156
    000541  aa  163 040 162 145
    000542  aa  147 141 162 144
    000543  aa  151 156 147 040
    000544  aa  171 157 165 162
    000545  aa  040 144 151 163
    000546  aa  143 157 156 156
    000547  aa  145 143 164 145
    000550  aa  144 040 160 162
    000551  aa  157 143 145 163
    000552  aa  163 050 145 163
    000553  aa  051 056 000 000

                                    91  	ls_message greeting_msg,(Multics ^a: ^a (Channel ^a)^/Load = ^.1f out of ^.1f units: users = ^d, ^a)
                        000050          	segdef  greeting_msg
    000050  a0   077777 000554
    000554  aa  112 115 165 154         	acc  "Multics ^a: ^a (Channel ^a)^/Load = ^.1f out of ^.1f units: users = ^d, ^a"
    000555  aa  164 151 143 163
    000556  aa  040 136 141 072
    000557  aa  040 136 141 040
    000560  aa  050 103 150 141
    000561  aa  156 156 145 154
    000562  aa  040 136 141 051
    000563  aa  136 057 114 157
    000564  aa  141 144 040 075
    000565  aa  040 136 056 061
    000566  aa  146 040 157 165
    000567  aa  164 040 157 146
    000570  aa  040 136 056 061
    000571  aa  146 040 165 156
    000572  aa  151 164 163 072
    000573  aa  040 165 163 145
    000574  aa  162 163 040 075
    000575  aa  040 136 144 054
    000576  aa  040 136 141 000

                                    92  "			system_id, installation_id,...date_time
                                    93  	ls_message hangup,(hangup^/)
                        000051          	segdef  hangup
    000051  a0   077777 000577
    000577  aa  010 150 141 156         	acc  "hangup^/"
    000600  aa  147 165 160 136
    000601  aa  057 000 000 000

                                    94  	ls_message help_gpw_verify,(Verify your generated password before changing it, or enter ""quit"" to not log in.)
                        000052          	segdef  help_gpw_verify
    000052  a0   077777 000602
    000602  aa  121 126 145 162         	acc  "Verify your generated password before changing it, or enter ""quit"" to not log in."
    000603  aa  151 146 171 040
    000604  aa  171 157 165 162
    000605  aa  040 147 145 156
    000606  aa  145 162 141 164
    000607  aa  145 144 040 160
    000610  aa  141 163 163 167
    000611  aa  157 162 144 040
    000612  aa  142 145 146 157
    000613  aa  162 145 040 143
    000614  aa  150 141 156 147
    000615  aa  151 156 147 040
    000616  aa  151 164 054 040
    000617  aa  157 162 040 145
    000620  aa  156 164 145 162
    000621  aa  040 042 161 165
    000622  aa  151 164 042 040
    000623  aa  164 157 040 156
    000624  aa  157 164 040 154
    000625  aa  157 147 040 151
    000626  aa  156 056 000 000

                                    95  	ls_message help_new_password,(Enter your new password, or enter ""quit"" to not log in.)
                        000053          	segdef  help_new_password
    000053  a0   077777 000627
    000627  aa  067 105 156 164         	acc  "Enter your new password, or enter ""quit"" to not log in."
    000630  aa  145 162 040 171
    000631  aa  157 165 162 040
    000632  aa  156 145 167 040
    000633  aa  160 141 163 163
    000634  aa  167 157 162 144
    000635  aa  054 040 157 162
    000636  aa  040 145 156 164
    000637  aa  145 162 040 042
    000640  aa  161 165 151 164
    000641  aa  042 040 164 157
    000642  aa  040 156 157 164
    000643  aa  040 154 157 147
    000644  aa  040 151 156 056

                                    96  	ls_message help_npw_verify,(Verify your new password before changing it, or enter ""quit"" to not log in.)
                        000054          	segdef  help_npw_verify
    000054  a0   077777 000645
    000645  aa  113 126 145 162         	acc  "Verify your new password before changing it, or enter ""quit"" to not log in."
    000646  aa  151 146 171 040
    000647  aa  171 157 165 162
    000650  aa  040 156 145 167
    000651  aa  040 160 141 163
    000652  aa  163 167 157 162
    000653  aa  144 040 142 145
    000654  aa  146 157 162 145
    000655  aa  040 143 150 141
    000656  aa  156 147 151 156
    000657  aa  147 040 151 164
    000660  aa  054 040 157 162
    000661  aa  040 145 156 164
    000662  aa  145 162 040 042
    000663  aa  161 165 151 164
    000664  aa  042 040 164 157
    000665  aa  040 156 157 164
    000666  aa  040 154 157 147
    000667  aa  040 151 156 056

                                    97  	ls_message help_password,(You must enter your password, or ""quit"" to not log in.)
                        000055          	segdef  help_password
    000055  a0   077777 000670
    000670  aa  066 131 157 165         	acc  "You must enter your password, or ""quit"" to not log in."
    000671  aa  040 155 165 163
    000672  aa  164 040 145 156
    000673  aa  164 145 162 040
    000674  aa  171 157 165 162
    000675  aa  040 160 141 163
    000676  aa  163 167 157 162
    000677  aa  144 054 040 157
    000700  aa  162 040 042 161
    000701  aa  165 151 164 042
    000702  aa  040 164 157 040
    000703  aa  156 157 164 040
    000704  aa  154 157 147 040
    000705  aa  151 156 056 000

                                    98  	ls_message illegal_new_proc,(You cannot ""new_proc"" to the requested authorization.)
                        000056          	segdef  illegal_new_proc
    000056  a0   077777 000706
    000706  aa  065 131 157 165         	acc  "You cannot ""new_proc"" to the requested authorization."
    000707  aa  040 143 141 156
    000710  aa  156 157 164 040
    000711  aa  042 156 145 167
    000712  aa  137 160 162 157
    000713  aa  143 042 040 164
    000714  aa  157 040 164 150
    000715  aa  145 040 162 145
    000716  aa  161 165 145 163
    000717  aa  164 145 144 040
    000720  aa  141 165 164 150
    000721  aa  157 162 151 172
    000722  aa  141 164 151 157
    000723  aa  156 056 000 000

                                    99  	ls_message incorrect_passwords,(Your password was given incorrectly ^[^d times recently.^/Last bad password ^;^s^]at ^a from ^a terminal ""^a"".)
                        000057          	segdef  incorrect_passwords
    000057  a0   077777 000724
    000724  aa  156 131 157 165         	acc  "Your password was given incorrectly ^[^d times recently.^/Last bad password ^;^s^]at ^a from ^a terminal ""^a""."
    000725  aa  162 040 160 141
    000726  aa  163 163 167 157
    000727  aa  162 144 040 167
    000730  aa  141 163 040 147
    000731  aa  151 166 145 156
    000732  aa  040 151 156 143
    000733  aa  157 162 162 145
    000734  aa  143 164 154 171
    000735  aa  040 136 133 136
    000736  aa  144 040 164 151
    000737  aa  155 145 163 040
    000740  aa  162 145 143 145
    000741  aa  156 164 154 171
    000742  aa  056 136 057 114
    000743  aa  141 163 164 040
    000744  aa  142 141 144 040
    000745  aa  160 141 163 163
    000746  aa  167 157 162 144
    000747  aa  040 136 073 136
    000750  aa  163 136 135 141
    000751  aa  164 040 136 141
    000752  aa  040 146 162 157
    000753  aa  155 040 136 141
    000754  aa  040 164 145 162
    000755  aa  155 151 156 141
    000756  aa  154 040 042 136
    000757  aa  141 042 056 000

                                   100  "			condition is n_incorrect_passwords > 1
                                   101  	ls_message last_login,(Last login ^a from ^a terminal ""^a"".)
                        000060          	segdef  last_login
    000060  a0   077777 000760
    000760  aa  044 114 141 163         	acc  "Last login ^a from ^a terminal ""^a""."
    000761  aa  164 040 154 157
    000762  aa  147 151 156 040
    000763  aa  136 141 040 146
    000764  aa  162 157 155 040
    000765  aa  136 141 040 164
    000766  aa  145 162 155 151
    000767  aa  156 141 154 040
    000770  aa  042 136 141 042
    000771  aa  056 000 000 000

                                   102  	ls_message list_proc_header,(^2x^vtLOGIN TIME^vtCHANNEL^vtTERM TYPE^vtID^vt^[AUTH^])
                        000061          	segdef  list_proc_header
    000061  a0   077777 000772
    000772  aa  066 136 062 170         	acc  "^2x^vtLOGIN TIME^vtCHANNEL^vtTERM TYPE^vtID^vt^[AUTH^]"
    000773  aa  136 166 164 114
    000774  aa  117 107 111 116
    000775  aa  040 124 111 115
    000776  aa  105 136 166 164
    000777  aa  103 110 101 116
    001000  aa  116 105 114 136
    001001  aa  166 164 124 105
    001002  aa  122 115 040 124
    001003  aa  131 120 105 136
    001004  aa  166 164 111 104
    001005  aa  136 166 164 136
    001006  aa  133 101 125 124
    001007  aa  110 136 135 000

                                   103  	ls_message list_process,(^2d.^vt^a^vt^a^vt^a^vt^a^vt^[ring ^d^;^s^a^;ring ^d, ^a^])
                        000062          	segdef  list_process
    000062  a0   077777 001010
    001010  aa  071 136 062 144         	acc  "^2d.^vt^a^vt^a^vt^a^vt^a^vt^[ring ^d^;^s^a^;ring ^d, ^a^]"
    001011  aa  056 136 166 164
    001012  aa  136 141 136 166
    001013  aa  164 136 141 136
    001014  aa  166 164 136 141
    001015  aa  136 166 164 136
    001016  aa  141 136 166 164
    001017  aa  136 133 162 151
    001020  aa  156 147 040 136
    001021  aa  144 136 073 136
    001022  aa  163 136 141 136
    001023  aa  073 162 151 156
    001024  aa  147 040 136 144
    001025  aa  054 040 136 141
    001026  aa  136 135 000 000

                                   104  	ls_message login,(^[Anonymous user ^]^a.^a logged in ^a from ^a terminal ""^a"".)
                        000063          	segdef  login
    000063  a0   077777 001027
    001027  aa  074 136 133 101         	acc  "^[Anonymous user ^]^a.^a logged in ^a from ^a terminal ""^a""."
    001030  aa  156 157 156 171
    001031  aa  155 157 165 163
    001032  aa  040 165 163 145
    001033  aa  162 040 136 135
    001034  aa  136 141 056 136
    001035  aa  141 040 154 157
    001036  aa  147 147 145 144
    001037  aa  040 151 156 040
    001040  aa  136 141 040 146
    001041  aa  162 157 155 040
    001042  aa  136 141 040 164
    001043  aa  145 162 155 151
    001044  aa  156 141 154 040
    001045  aa  042 136 141 042
    001046  aa  056 000 000 000

                                   105  	ls_message login_args,(Personid.Projectid and optional arguments:)
                        000064          	segdef  login_args
    000064  a0   077777 001047
    001047  aa  052 120 145 162         	acc  "Personid.Projectid and optional arguments:"
    001050  aa  163 157 156 151
    001051  aa  144 056 120 162
    001052  aa  157 152 145 143
    001053  aa  164 151 144 040
    001054  aa  141 156 144 040
    001055  aa  157 160 164 151
    001056  aa  157 156 141 154
    001057  aa  040 141 162 147
    001060  aa  165 155 145 156
    001061  aa  164 163 072 000

                                   106  	ls_message login_excess_wakeups,(High rate of wakeups indicates communication line failure.)
                        000065          	segdef  login_excess_wakeups
    000065  a0   077777 001062
    001062  aa  072 110 151 147         	acc  "High rate of wakeups indicates communication line failure."
    001063  aa  150 040 162 141
    001064  aa  164 145 040 157
    001065  aa  146 040 167 141
    001066  aa  153 145 165 160
    001067  aa  163 040 151 156
    001070  aa  144 151 143 141
    001071  aa  164 145 163 040
    001072  aa  143 157 155 155
    001073  aa  165 156 151 143
    001074  aa  141 164 151 157
    001075  aa  156 040 154 151
    001076  aa  156 145 040 146
    001077  aa  141 151 154 165
    001100  aa  162 145 056 000

                                   107  	ls_message login_requests,(Please type create, logout, or help.)
                        000066          	segdef  login_requests
    000066  a0   077777 001101
    001101  aa  044 120 154 145         	acc  "Please type create, logout, or help."
    001102  aa  141 163 145 040
    001103  aa  164 171 160 145
    001104  aa  040 143 162 145
    001105  aa  141 164 145 054
    001106  aa  040 154 157 147
    001107  aa  157 165 164 054
    001110  aa  040 157 162 040
    001111  aa  150 145 154 160
    001112  aa  056 000 000 000

                                   108  	ls_message login_timeout,(Login was not completed within ^.1f minute^[s^].)
                        000067          	segdef  login_timeout
    000067  a0   077777 001113
    001113  aa  060 114 157 147         	acc  "Login was not completed within ^.1f minute^[s^]."
    001114  aa  151 156 040 167
    001115  aa  141 163 040 156
    001116  aa  157 164 040 143
    001117  aa  157 155 160 154
    001120  aa  145 164 145 144
    001121  aa  040 167 151 164
    001122  aa  150 151 156 040
    001123  aa  136 056 061 146
    001124  aa  040 155 151 156
    001125  aa  165 164 145 136
    001126  aa  133 163 136 135
    001127  aa  056 000 000 000

                                   109  	ls_message logout_disconnected,(^a.^a logged out ^a,^/while disconnected. No process affected by this logout.)
                        000070          	segdef  logout_disconnected
    000070  a0   077777 001130
    001130  aa  115 136 141 056         	acc  "^a.^a logged out ^a,^/while disconnected. No process affected by this logout."
    001131  aa  136 141 040 154
    001132  aa  157 147 147 145
    001133  aa  144 040 157 165
    001134  aa  164 040 136 141
    001135  aa  054 136 057 167
    001136  aa  150 151 154 145
    001137  aa  040 144 151 163
    001140  aa  143 157 156 156
    001141  aa  145 143 164 145
    001142  aa  144 056 040 116
    001143  aa  157 040 160 162
    001144  aa  157 143 145 163
    001145  aa  163 040 141 146
    001146  aa  146 145 143 164
    001147  aa  145 144 040 142
    001150  aa  171 040 164 150
    001151  aa  151 163 040 154
    001152  aa  157 147 157 165
    001153  aa  164 056 000 000

                                   110  	ls_message logout,(^a.^a logged out ^a^/CPU usage^[ ^d min^;^s^] ^d sec, cost $^.2f.)
                        000071          	segdef  logout
    000071  a0   077777 001154
    001154  aa  101 136 141 056         	acc  "^a.^a logged out ^a^/CPU usage^[ ^d min^;^s^] ^d sec, cost $^.2f."
    001155  aa  136 141 040 154
    001156  aa  157 147 147 145
    001157  aa  144 040 157 165
    001160  aa  164 040 136 141
    001161  aa  136 057 103 120
    001162  aa  125 040 165 163
    001163  aa  141 147 145 136
    001164  aa  133 040 136 144
    001165  aa  040 155 151 156
    001166  aa  136 073 136 163
    001167  aa  136 135 040 136
    001170  aa  144 040 163 145
    001171  aa  143 054 040 143
    001172  aa  157 163 164 040
    001173  aa  044 136 056 062
    001174  aa  146 056 000 000

                                   111  "			Condition is CPU usage >= 1 minute
                                   112  	ls_message multiple_login_msg,(This is your ^d^a interactive login instance.)
                        000072          	segdef  multiple_login_msg
    000072  a0   077777 001175
    001175  aa  055 124 150 151         	acc  "This is your ^d^a interactive login instance."
    001176  aa  163 040 151 163
    001177  aa  040 171 157 165
    001200  aa  162 040 136 144
    001201  aa  136 141 040 151
    001202  aa  156 164 145 162
    001203  aa  141 143 164 151
    001204  aa  166 145 040 154
    001205  aa  157 147 151 156
    001206  aa  040 151 156 163
    001207  aa  164 141 156 143
    001210  aa  145 056 000 000

                                   113  "			^a represents suffix (-st, -nd, -th...)
                                   114  	ls_message must_give_process_no,(You must specify the process number since you have more than one disconnected process.)
                        000073          	segdef  must_give_process_no
    000073  a0   077777 001211
    001211  aa  126 131 157 165         	acc  "You must specify the process number since you have more than one disconnected process."
    001212  aa  040 155 165 163
    001213  aa  164 040 163 160
    001214  aa  145 143 151 146
    001215  aa  171 040 164 150
    001216  aa  145 040 160 162
    001217  aa  157 143 145 163
    001220  aa  163 040 156 165
    001221  aa  155 142 145 162
    001222  aa  040 163 151 156
    001223  aa  143 145 040 171
    001224  aa  157 165 040 150
    001225  aa  141 166 145 040
    001226  aa  155 157 162 145
    001227  aa  040 164 150 141
    001230  aa  156 040 157 156
    001231  aa  145 040 144 151
    001232  aa  163 143 157 156
    001233  aa  156 145 143 164
    001234  aa  145 144 040 160
    001235  aa  162 157 143 145
    001236  aa  163 163 056 000

                                   115  	ls_message need_authorization_for_cda,(login: -change_default_auth requires that -authorization also be used.)
                        000074          	segdef  need_authorization_for_cda
    000074  a0   077777 001237
    001237  aa  106 154 157 147         	acc  "login: -change_default_auth requires that -authorization also be used."
    001240  aa  151 156 072 040
    001241  aa  055 143 150 141
    001242  aa  156 147 145 137
    001243  aa  144 145 146 141
    001244  aa  165 154 164 137
    001245  aa  141 165 164 150
    001246  aa  040 162 145 161
    001247  aa  165 151 162 145
    001250  aa  163 040 164 150
    001251  aa  141 164 040 055
    001252  aa  141 165 164 150
    001253  aa  157 162 151 172
    001254  aa  141 164 151 157
    001255  aa  156 040 141 154
    001256  aa  163 157 040 142
    001257  aa  145 040 165 163
    001260  aa  145 144 056 000

                                   116  	ls_message need_project_for_cdp,(login: syntax is ""login Person.NewDefaultProj -change_default_project."")
                        000075          	segdef  need_project_for_cdp
    000075  a0   077777 001261
    001261  aa  107 154 157 147         	acc  "login: syntax is ""login Person.NewDefaultProj -change_default_project."""
    001262  aa  151 156 072 040
    001263  aa  163 171 156 164
    001264  aa  141 170 040 151
    001265  aa  163 040 042 154
    001266  aa  157 147 151 156
    001267  aa  040 120 145 162
    001270  aa  163 157 156 056
    001271  aa  116 145 167 104
    001272  aa  145 146 141 165
    001273  aa  154 164 120 162
    001274  aa  157 152 040 055
    001275  aa  143 150 141 156
    001276  aa  147 145 137 144
    001277  aa  145 146 141 165
    001300  aa  154 164 137 160
    001301  aa  162 157 152 145
    001302  aa  143 164 056 042

                                   117  	ls_message new_password,(New Password:)
                        000076          	segdef  new_password
    000076  a0   077777 001303
    001303  aa  015 116 145 167         	acc  "New Password:"
    001304  aa  040 120 141 163
    001305  aa  163 167 157 162
    001306  aa  144 072 000 000

                                   118  	ls_message new_password_again,(New Password Again:)
                        000077          	segdef  new_password_again
    000077  a0   077777 001307
    001307  aa  023 116 145 167         	acc  "New Password Again:"
    001310  aa  040 120 141 163
    001311  aa  163 167 157 162
    001312  aa  144 040 101 147
    001313  aa  141 151 156 072

                                   119  	ls_message new_password_error,(New password typed incorrectly second time.)
                        000100          	segdef  new_password_error
    000100  a0   077777 001314
    001314  aa  053 116 145 167         	acc  "New password typed incorrectly second time."
    001315  aa  040 160 141 163
    001316  aa  163 167 157 162
    001317  aa  144 040 164 171
    001320  aa  160 145 144 040
    001321  aa  151 156 143 157
    001322  aa  162 162 145 143
    001323  aa  164 154 171 040
    001324  aa  163 145 143 157
    001325  aa  156 144 040 164
    001326  aa  151 155 145 056

                                   120  	ls_message new_password_indistinct,(The new password is equivalent to the old password.)
                        000101          	segdef  new_password_indistinct
    000101  a0   077777 001327
    001327  aa  063 124 150 145         	acc  "The new password is equivalent to the old password."
    001330  aa  040 156 145 167
    001331  aa  040 160 141 163
    001332  aa  163 167 157 162
    001333  aa  144 040 151 163
    001334  aa  040 145 161 165
    001335  aa  151 166 141 154
    001336  aa  145 156 164 040
    001337  aa  164 157 040 164
    001340  aa  150 145 040 157
    001341  aa  154 144 040 160
    001342  aa  141 163 163 167
    001343  aa  157 162 144 056

                                   121  	ls_message no_connect_aclass,(Your disconnected process^[ #^d^] is not accessible from a terminal channel of this access class.)
                        000102          	segdef  no_connect_aclass
    000102  a0   077777 001344
    001344  aa  141 131 157 165         	acc  "Your disconnected process^[ #^d^] is not accessible from a terminal channel of this access class."
    001345  aa  162 040 144 151
    001346  aa  163 143 157 156
    001347  aa  156 145 143 164
    001350  aa  145 144 040 160
    001351  aa  162 157 143 145
    001352  aa  163 163 136 133
    001353  aa  040 043 136 144
    001354  aa  136 135 040 151
    001355  aa  163 040 156 157
    001356  aa  164 040 141 143
    001357  aa  143 145 163 163
    001360  aa  151 142 154 145
    001361  aa  040 146 162 157
    001362  aa  155 040 141 040
    001363  aa  164 145 162 155
    001364  aa  151 156 141 154
    001365  aa  040 143 150 141
    001366  aa  156 156 145 154
    001367  aa  040 157 146 040
    001370  aa  164 150 151 163
    001371  aa  040 141 143 143
    001372  aa  145 163 163 040
    001373  aa  143 154 141 163
    001374  aa  163 056 000 000

                                   122  "			^d = process number, only included if there is more than one
                                   123  	ls_message no_disconnected_processes,(You have no disconnected processes.)
                        000103          	segdef  no_disconnected_processes
    000103  a0   077777 001375
    001375  aa  043 131 157 165         	acc  "You have no disconnected processes."
    001376  aa  040 150 141 166
    001377  aa  145 040 156 157
    001400  aa  040 144 151 163
    001401  aa  143 157 156 156
    001402  aa  145 143 164 145
    001403  aa  144 040 160 162
    001404  aa  157 143 145 163
    001405  aa  163 145 163 056

                                   124  	ls_message no_line_permission,(You do not have permission to use this channel.)
                        000104          	segdef  no_line_permission
    000104  a0   077777 001406
    001406  aa  057 131 157 165         	acc  "You do not have permission to use this channel."
    001407  aa  040 144 157 040
    001410  aa  156 157 164 040
    001411  aa  150 141 166 145
    001412  aa  040 160 145 162
    001413  aa  155 151 163 163
    001414  aa  151 157 156 040
    001415  aa  164 157 040 165
    001416  aa  163 145 040 164
    001417  aa  150 151 163 040
    001420  aa  143 150 141 156
    001421  aa  156 145 154 056

                                   125  	ls_message no_name,(Expected argument missing. User name not supplied.)
                        000105          	segdef  no_name
    000105  a0   077777 001422
    001422  aa  062 105 170 160         	acc  "Expected argument missing. User name not supplied."
    001423  aa  145 143 164 145
    001424  aa  144 040 141 162
    001425  aa  147 165 155 145
    001426  aa  156 164 040 155
    001427  aa  151 163 163 151
    001430  aa  156 147 056 040
    001431  aa  125 163 145 162
    001432  aa  040 156 141 155
    001433  aa  145 040 156 157
    001434  aa  164 040 163 165
    001435  aa  160 160 154 151
    001436  aa  145 144 056 000

                                   126  	ls_message no_such_process,(You don't have a disconnected process number ^d.)
                        000106          	segdef  no_such_process
    000106  a0   077777 001437
    001437  aa  060 131 157 165         	acc  "You don't have a disconnected process number ^d."
    001440  aa  040 144 157 156
    001441  aa  047 164 040 150
    001442  aa  141 166 145 040
    001443  aa  141 040 144 151
    001444  aa  163 143 157 156
    001445  aa  156 145 143 164
    001446  aa  145 144 040 160
    001447  aa  162 157 143 145
    001450  aa  163 163 040 156
    001451  aa  165 155 142 145
    001452  aa  162 040 136 144
    001453  aa  056 000 000 000

                                   127  	ls_message offer_help,(Please contact programming staff if you need assistance in correcting this problem.)
                        000107          	segdef  offer_help
    000107  a0   077777 001454
    001454  aa  123 120 154 145         	acc  "Please contact programming staff if you need assistance in correcting this problem."
    001455  aa  141 163 145 040
    001456  aa  143 157 156 164
    001457  aa  141 143 164 040
    001460  aa  160 162 157 147
    001461  aa  162 141 155 155
    001462  aa  151 156 147 040
    001463  aa  163 164 141 146
    001464  aa  146 040 151 146
    001465  aa  040 171 157 165
    001466  aa  040 156 145 145
    001467  aa  144 040 141 163
    001470  aa  163 151 163 164
    001471  aa  141 156 143 145
    001472  aa  040 151 156 040
    001473  aa  143 157 162 162
    001474  aa  145 143 164 151
    001475  aa  156 147 040 164
    001476  aa  150 151 163 040
    001477  aa  160 162 157 142
    001500  aa  154 145 155 056

                                   128  	ls_message password,(Password:)
                        000110          	segdef  password
    000110  a0   077777 001501
    001501  aa  011 120 141 163         	acc  "Password:"
    001502  aa  163 167 157 162
    001503  aa  144 072 000 000

                                   129  	ls_message password_changed,(Password changed.)
                        000111          	segdef  password_changed
    000111  a0   077777 001504
    001504  aa  021 120 141 163         	acc  "Password changed."
    001505  aa  163 167 157 162
    001506  aa  144 040 143 150
    001507  aa  141 156 147 145
    001510  aa  144 056 000 000

                                   130  	ls_message password_expired,(Your password has expired.  It must be changed once every ^d days.)
                        000112          	segdef  password_expired
    000112  a0   077777 001511
    001511  aa  102 131 157 165         	acc  "Your password has expired.  It must be changed once every ^d days."
    001512  aa  162 040 160 141
    001513  aa  163 163 167 157
    001514  aa  162 144 040 150
    001515  aa  141 163 040 145
    001516  aa  170 160 151 162
    001517  aa  145 144 056 040
    001520  aa  040 111 164 040
    001521  aa  155 165 163 164
    001522  aa  040 142 145 040
    001523  aa  143 150 141 156
    001524  aa  147 145 144 040
    001525  aa  157 156 143 145
    001526  aa  040 145 166 145
    001527  aa  162 171 040 136
    001530  aa  144 040 144 141
    001531  aa  171 163 056 000

                                   131  	ls_message password_format_warning,(Some of the characters entered as a password were ignored.)
                        000113          	segdef  password_format_warning
    000113  a0   077777 001532
    001532  aa  072 123 157 155         	acc  "Some of the characters entered as a password were ignored."
    001533  aa  145 040 157 146
    001534  aa  040 164 150 145
    001535  aa  040 143 150 141
    001536  aa  162 141 143 164
    001537  aa  145 162 163 040
    001540  aa  145 156 164 145
    001541  aa  162 145 144 040
    001542  aa  141 163 040 141
    001543  aa  040 160 141 163
    001544  aa  163 167 157 162
    001545  aa  144 040 167 145
    001546  aa  162 145 040 151
    001547  aa  147 156 157 162
    001550  aa  145 144 056 000

                                   132  	ls_message password_quit,(Login stopped by ""quit"".)
                        000114          	segdef  password_quit
    000114  a0   077777 001551
    001551  aa  030 114 157 147         	acc  "Login stopped by ""quit""."
    001552  aa  151 156 040 163
    001553  aa  164 157 160 160
    001554  aa  145 144 040 142
    001555  aa  171 040 042 161
    001556  aa  165 151 164 042
    001557  aa  056 000 000 000

                                   133  	ls_message password_unused_too_long,(Your password has not been used in more than ^d days.^/     It has automatically expired.)
                        000115          	segdef  password_unused_too_long
    000115  a0   077777 001560
    001560  aa  131 131 157 165         	acc  "Your password has not been used in more than ^d days.^/     It has automatically expired."
    001561  aa  162 040 160 141
    001562  aa  163 163 167 157
    001563  aa  162 144 040 150
    001564  aa  141 163 040 156
    001565  aa  157 164 040 142
    001566  aa  145 145 156 040
    001567  aa  165 163 145 144
    001570  aa  040 151 156 040
    001571  aa  155 157 162 145
    001572  aa  040 164 150 141
    001573  aa  156 040 136 144
    001574  aa  040 144 141 171
    001575  aa  163 056 136 057
    001576  aa  040 040 040 040
    001577  aa  040 111 164 040
    001600  aa  150 141 163 040
    001601  aa  141 165 164 157
    001602  aa  155 141 164 151
    001603  aa  143 141 154 154
    001604  aa  171 040 145 170
    001605  aa  160 151 162 145
    001606  aa  144 056 000 000

                                   134  	ls_message please_try_again,(Please try to log in again or type ""help"" for instructions.)
                        000116          	segdef  please_try_again
    000116  a0   077777 001607
    001607  aa  073 120 154 145         	acc  "Please try to log in again or type ""help"" for instructions."
    001610  aa  141 163 145 040
    001611  aa  164 162 171 040
    001612  aa  164 157 040 154
    001613  aa  157 147 040 151
    001614  aa  156 040 141 147
    001615  aa  141 151 156 040
    001616  aa  157 162 040 164
    001617  aa  171 160 145 040
    001620  aa  042 150 145 154
    001621  aa  160 042 040 146
    001622  aa  157 162 040 151
    001623  aa  156 163 164 162
    001624  aa  165 143 164 151
    001625  aa  157 156 163 056

                                   135  	ls_message process_destroyed,(Your disconnected process^[ #^d^;^] has been destroyed.)
                        000117          	segdef  process_destroyed
    000117  a0   077777 001626
    001626  aa  067 131 157 165         	acc  "Your disconnected process^[ #^d^;^] has been destroyed."
    001627  aa  162 040 144 151
    001630  aa  163 143 157 156
    001631  aa  156 145 143 164
    001632  aa  145 144 040 160
    001633  aa  162 157 143 145
    001634  aa  163 163 136 133
    001635  aa  040 043 136 144
    001636  aa  136 073 136 135
    001637  aa  040 150 141 163
    001640  aa  040 142 145 145
    001641  aa  156 040 144 145
    001642  aa  163 164 162 157
    001643  aa  171 145 144 056

                                   136  "			number printed if there's more than 1
                                   137  	ls_message protected,(You are protected from preemption^[ until ^a^].)
                        000120          	segdef  protected
    000120  a0   077777 001644
    001644  aa  057 131 157 165         	acc  "You are protected from preemption^[ until ^a^]."
    001645  aa  040 141 162 145
    001646  aa  040 160 162 157
    001647  aa  164 145 143 164
    001650  aa  145 144 040 146
    001651  aa  162 157 155 040
    001652  aa  160 162 145 145
    001653  aa  155 160 164 151
    001654  aa  157 156 136 133
    001655  aa  040 165 156 164
    001656  aa  151 154 040 136
    001657  aa  141 136 135 056

                                   138  	ls_message requesting_dial_to_mc,(Requesting connection to message coordinator.)
                        000121          	segdef  requesting_dial_to_mc
    000121  a0   077777 001660
    001660  aa  055 122 145 161         	acc  "Requesting connection to message coordinator."
    001661  aa  165 145 163 164
    001662  aa  151 156 147 040
    001663  aa  143 157 156 156
    001664  aa  145 143 164 151
    001665  aa  157 156 040 164
    001666  aa  157 040 155 145
    001667  aa  163 163 141 147
    001670  aa  145 040 143 157
    001671  aa  157 162 144 151
    001672  aa  156 141 164 157
    001673  aa  162 056 000 000

                                   139  	ls_message rq_invalid_now,(The ""^a"" request is not valid at this time.)
                        000122          	segdef  rq_invalid_now
    000122  a0   077777 001674
    001674  aa  053 124 150 145         	acc  "The ""^a"" request is not valid at this time."
    001675  aa  040 042 136 141
    001676  aa  042 040 162 145
    001677  aa  161 165 145 163
    001700  aa  164 040 151 163
    001701  aa  040 156 157 164
    001702  aa  040 166 141 154
    001703  aa  151 144 040 141
    001704  aa  164 040 164 150
    001705  aa  151 163 040 164
    001706  aa  151 155 145 056

                                   140  	ls_message shutdown,(Multics is shutting down.)
                        000123          	segdef  shutdown
    000123  a0   077777 001707
    001707  aa  031 115 165 154         	acc  "Multics is shutting down."
    001710  aa  164 151 143 163
    001711  aa  040 151 163 040
    001712  aa  163 150 165 164
    001713  aa  164 151 156 147
    001714  aa  040 144 157 167
    001715  aa  156 056 000 000

                                   141  	ls_message special_session,(Special session in progress.)
                        000124          	segdef  special_session
    000124  a0   077777 001716
    001716  aa  034 123 160 145         	acc  "Special session in progress."
    001717  aa  143 151 141 154
    001720  aa  040 163 145 163
    001721  aa  163 151 157 156
    001722  aa  040 151 156 040
    001723  aa  160 162 157 147
    001724  aa  162 145 163 163
    001725  aa  056 000 000 000

                                   142  	ls_message unknown_request,(Unknown request ""^a"".)
                        000125          	segdef  unknown_request
    000125  a0   077777 001726
    001726  aa  025 125 156 153         	acc  "Unknown request ""^a""."
    001727  aa  156 157 167 156
    001730  aa  040 162 145 161
    001731  aa  165 145 163 164
    001732  aa  040 042 136 141
    001733  aa  042 056 000 000

                                   143  	ls_message user_required_for_dial,(You must use the control argument -user Person.Project for this channel.)
                        000126          	segdef  user_required_for_dial
    000126  a0   077777 001734
    001734  aa  110 131 157 165         	acc  "You must use the control argument -user Person.Project for this channel."
    001735  aa  040 155 165 163
    001736  aa  164 040 165 163
    001737  aa  145 040 164 150
    001740  aa  145 040 143 157
    001741  aa  156 164 162 157
    001742  aa  154 040 141 162
    001743  aa  147 165 155 145
    001744  aa  156 164 040 055
    001745  aa  165 163 145 162
    001746  aa  040 120 145 162
    001747  aa  163 157 156 056
    001750  aa  120 162 157 152
    001751  aa  145 143 164 040
    001752  aa  146 157 162 040
    001753  aa  164 150 151 163
    001754  aa  040 143 150 141
    001755  aa  156 156 145 154
    001756  aa  056 000 000 000

                                   144  	end

NO LITERALS

NAME DEFINITIONS FOR ENTRY POINTS AND SEGDEFS

    001760  5a   000003 000000
    001761  5a   001152 600000
    001762  aa   000000 000000
    001763  55   000013 000002
    001764  5a   000002 400003
    001765  55   000006 000013
    001766  aa  021 154 163 137
    001767  aa  155 145 163 163
    001770  aa  141 147 145 137
    001771  aa  164 141 142 154
    001772  aa  145 137 000 000
    001773  55   000024 000003
    001774  2a   000126 400001
    001775  55   000016 000003
    001776  aa  026 165 163 145         user_required_for_dial
    001777  aa  162 137 162 145
    002000  aa  161 165 151 162
    002001  aa  145 144 137 146
    002002  aa  157 162 137 144
    002003  aa  151 141 154 000
    002004  55   000033 000013
    002005  2a   000125 400001
    002006  55   000027 000003
    002007  aa  017 165 156 153         unknown_request
    002010  aa  156 157 167 156
    002011  aa  137 162 145 161
    002012  aa  165 145 163 164
    002013  55   000042 000024
    002014  2a   000124 400001
    002015  55   000036 000003
    002016  aa  017 163 160 145         special_session
    002017  aa  143 151 141 154
    002020  aa  137 163 145 163
    002021  aa  163 151 157 156
    002022  55   000050 000033
    002023  2a   000123 400001
    002024  55   000045 000003
    002025  aa  010 163 150 165         shutdown
    002026  aa  164 144 157 167
    002027  aa  156 000 000 000
    002030  55   000057 000042
    002031  2a   000122 400001
    002032  55   000053 000003
    002033  aa  016 162 161 137         rq_invalid_now
    002034  aa  151 156 166 141
    002035  aa  154 151 144 137
    002036  aa  156 157 167 000
    002037  55   000070 000050
    002040  2a   000121 400001
    002041  55   000062 000003
    002042  aa  025 162 145 161         requesting_dial_to_mc
    002043  aa  165 145 163 164
    002044  aa  151 156 147 137
    002045  aa  144 151 141 154
    002046  aa  137 164 157 137
    002047  aa  155 143 000 000
    002050  55   000076 000057
    002051  2a   000120 400001
    002052  55   000073 000003
    002053  aa  011 160 162 157         protected
    002054  aa  164 145 143 164
    002055  aa  145 144 000 000
    002056  55   000106 000070
    002057  2a   000117 400001
    002060  55   000101 000003
    002061  aa  021 160 162 157         process_destroyed
    002062  aa  143 145 163 163
    002063  aa  137 144 145 163
    002064  aa  164 162 157 171
    002065  aa  145 144 000 000
    002066  55   000116 000076
    002067  2a   000116 400001
    002070  55   000111 000003
    002071  aa  020 160 154 145         please_try_again
    002072  aa  141 163 145 137
    002073  aa  164 162 171 137
    002074  aa  141 147 141 151
    002075  aa  156 000 000 000
    002076  55   000130 000106
    002077  2a   000115 400001
    002100  55   000121 000003
    002101  aa  030 160 141 163         password_unused_too_long
    002102  aa  163 167 157 162
    002103  aa  144 137 165 156
    002104  aa  165 163 145 144
    002105  aa  137 164 157 157
    002106  aa  137 154 157 156
    002107  aa  147 000 000 000
    002110  55   000137 000116
    002111  2a   000114 400001
    002112  55   000133 000003
    002113  aa  015 160 141 163         password_quit
    002114  aa  163 167 157 162
    002115  aa  144 137 161 165
    002116  aa  151 164 000 000
    002117  55   000150 000130
    002120  2a   000113 400001
    002121  55   000142 000003
    002122  aa  027 160 141 163         password_format_warning
    002123  aa  163 167 157 162
    002124  aa  144 137 146 157
    002125  aa  162 155 141 164
    002126  aa  137 167 141 162
    002127  aa  156 151 156 147
    002130  55   000160 000137
    002131  2a   000112 400001
    002132  55   000153 000003
    002133  aa  020 160 141 163         password_expired
    002134  aa  163 167 157 162
    002135  aa  144 137 145 170
    002136  aa  160 151 162 145
    002137  aa  144 000 000 000
    002140  55   000170 000150
    002141  2a   000111 400001
    002142  55   000163 000003
    002143  aa  020 160 141 163         password_changed
    002144  aa  163 167 157 162
    002145  aa  144 137 143 150
    002146  aa  141 156 147 145
    002147  aa  144 000 000 000
    002150  55   000176 000160
    002151  2a   000110 400001
    002152  55   000173 000003
    002153  aa  010 160 141 163         password
    002154  aa  163 167 157 162
    002155  aa  144 000 000 000
    002156  55   000204 000170
    002157  2a   000107 400001
    002160  55   000201 000003
    002161  aa  012 157 146 146         offer_help
    002162  aa  145 162 137 150
    002163  aa  145 154 160 000
    002164  55   000213 000176
    002165  2a   000106 400001
    002166  55   000207 000003
    002167  aa  017 156 157 137         no_such_process
    002170  aa  163 165 143 150
    002171  aa  137 160 162 157
    002172  aa  143 145 163 163
    002173  55   000220 000204
    002174  2a   000105 400001
    002175  55   000216 000003
    002176  aa  007 156 157 137         no_name
    002177  aa  156 141 155 145
    002200  55   000230 000213
    002201  2a   000104 400001
    002202  55   000223 000003
    002203  aa  022 156 157 137         no_line_permission
    002204  aa  154 151 156 145
    002205  aa  137 160 145 162
    002206  aa  155 151 163 163
    002207  aa  151 157 156 000
    002210  55   000242 000220
    002211  2a   000103 400001
    002212  55   000233 000003
    002213  aa  031 156 157 137         no_disconnected_processes
    002214  aa  144 151 163 143
    002215  aa  157 156 156 145
    002216  aa  143 164 145 144
    002217  aa  137 160 162 157
    002220  aa  143 145 163 163
    002221  aa  145 163 000 000
    002222  55   000252 000230
    002223  2a   000102 400001
    002224  55   000245 000003
    002225  aa  021 156 157 137         no_connect_aclass
    002226  aa  143 157 156 156
    002227  aa  145 143 164 137
    002230  aa  141 143 154 141
    002231  aa  163 163 000 000
    002232  55   000263 000242
    002233  2a   000101 400001
    002234  55   000255 000003
    002235  aa  027 156 145 167         new_password_indistinct
    002236  aa  137 160 141 163
    002237  aa  163 167 157 162
    002240  aa  144 137 151 156
    002241  aa  144 151 163 164
    002242  aa  151 156 143 164
    002243  55   000273 000252
    002244  2a   000100 400001
    002245  55   000266 000003
    002246  aa  022 156 145 167         new_password_error
    002247  aa  137 160 141 163
    002250  aa  163 167 157 162
    002251  aa  144 137 145 162
    002252  aa  162 157 162 000
    002253  55   000303 000263
    002254  2a   000077 400001
    002255  55   000276 000003
    002256  aa  022 156 145 167         new_password_again
    002257  aa  137 160 141 163
    002260  aa  163 167 157 162
    002261  aa  144 137 141 147
    002262  aa  141 151 156 000
    002263  55   000312 000273
    002264  2a   000076 400001
    002265  55   000306 000003
    002266  aa  014 156 145 167         new_password
    002267  aa  137 160 141 163
    002270  aa  163 167 157 162
    002271  aa  144 000 000 000
    002272  55   000323 000303
    002273  2a   000075 400001
    002274  55   000315 000003
    002275  aa  024 156 145 145         need_project_for_cdp
    002276  aa  144 137 160 162
    002277  aa  157 152 145 143
    002300  aa  164 137 146 157
    002301  aa  162 137 143 144
    002302  aa  160 000 000 000
    002303  55   000335 000312
    002304  2a   000074 400001
    002305  55   000326 000003
    002306  aa  032 156 145 145         need_authorization_for_cda
    002307  aa  144 137 141 165
    002310  aa  164 150 157 162
    002311  aa  151 172 141 164
    002312  aa  151 157 156 137
    002313  aa  146 157 162 137
    002314  aa  143 144 141 000
    002315  55   000346 000323
    002316  2a   000073 400001
    002317  55   000340 000003
    002320  aa  024 155 165 163         must_give_process_no
    002321  aa  164 137 147 151
    002322  aa  166 145 137 160
    002323  aa  162 157 143 145
    002324  aa  163 163 137 156
    002325  aa  157 000 000 000
    002326  55   000356 000335
    002327  2a   000072 400001
    002330  55   000351 000003
    002331  aa  022 155 165 154         multiple_login_msg
    002332  aa  164 151 160 154
    002333  aa  145 137 154 157
    002334  aa  147 151 156 137
    002335  aa  155 163 147 000
    002336  55   000363 000346
    002337  2a   000071 400001
    002340  55   000361 000003
    002341  aa  006 154 157 147         logout
    002342  aa  157 165 164 000
    002343  55   000373 000356
    002344  2a   000070 400001
    002345  55   000366 000003
    002346  aa  023 154 157 147         logout_disconnected
    002347  aa  157 165 164 137
    002350  aa  144 151 163 143
    002351  aa  157 156 156 145
    002352  aa  143 164 145 144
    002353  55   000402 000363
    002354  2a   000067 400001
    002355  55   000376 000003
    002356  aa  015 154 157 147         login_timeout
    002357  aa  151 156 137 164
    002360  aa  151 155 145 157
    002361  aa  165 164 000 000
    002362  55   000411 000373
    002363  2a   000066 400001
    002364  55   000405 000003
    002365  aa  016 154 157 147         login_requests
    002366  aa  151 156 137 162
    002367  aa  145 161 165 145
    002370  aa  163 164 163 000
    002371  55   000422 000402
    002372  2a   000065 400001
    002373  55   000414 000003
    002374  aa  024 154 157 147         login_excess_wakeups
    002375  aa  151 156 137 145
    002376  aa  170 143 145 163
    002377  aa  163 137 167 141
    002400  aa  153 145 165 160
    002401  aa  163 000 000 000
    002402  55   000430 000411
    002403  2a   000064 400001
    002404  55   000425 000003
    002405  aa  012 154 157 147         login_args
    002406  aa  151 156 137 141
    002407  aa  162 147 163 000
    002410  55   000435 000422
    002411  2a   000063 400001
    002412  55   000433 000003
    002413  aa  005 154 157 147         login
    002414  aa  151 156 000 000
    002415  55   000444 000430
    002416  2a   000062 400001
    002417  55   000440 000003
    002420  aa  014 154 151 163         list_process
    002421  aa  164 137 160 162
    002422  aa  157 143 145 163
    002423  aa  163 000 000 000
    002424  55   000454 000435
    002425  2a   000061 400001
    002426  55   000447 000003
    002427  aa  020 154 151 163         list_proc_header
    002430  aa  164 137 160 162
    002431  aa  157 143 137 150
    002432  aa  145 141 144 145
    002433  aa  162 000 000 000
    002434  55   000462 000444
    002435  2a   000060 400001
    002436  55   000457 000003
    002437  aa  012 154 141 163         last_login
    002440  aa  164 137 154 157
    002441  aa  147 151 156 000
    002442  55   000472 000454
    002443  2a   000057 400001
    002444  55   000465 000003
    002445  aa  023 151 156 143         incorrect_passwords
    002446  aa  157 162 162 145
    002447  aa  143 164 137 160
    002450  aa  141 163 163 167
    002451  aa  157 162 144 163
    002452  55   000502 000462
    002453  2a   000056 400001
    002454  55   000475 000003
    002455  aa  020 151 154 154         illegal_new_proc
    002456  aa  145 147 141 154
    002457  aa  137 156 145 167
    002460  aa  137 160 162 157
    002461  aa  143 000 000 000
    002462  55   000511 000472
    002463  2a   000055 400001
    002464  55   000505 000003
    002465  aa  015 150 145 154         help_password
    002466  aa  160 137 160 141
    002467  aa  163 163 167 157
    002470  aa  162 144 000 000
    002471  55   000520 000502
    002472  2a   000054 400001
    002473  55   000514 000003
    002474  aa  017 150 145 154         help_npw_verify
    002475  aa  160 137 156 160
    002476  aa  167 137 166 145
    002477  aa  162 151 146 171
    002500  55   000530 000511
    002501  2a   000053 400001
    002502  55   000523 000003
    002503  aa  021 150 145 154         help_new_password
    002504  aa  160 137 156 145
    002505  aa  167 137 160 141
    002506  aa  163 163 167 157
    002507  aa  162 144 000 000
    002510  55   000537 000520
    002511  2a   000052 400001
    002512  55   000533 000003
    002513  aa  017 150 145 154         help_gpw_verify
    002514  aa  160 137 147 160
    002515  aa  167 137 166 145
    002516  aa  162 151 146 171
    002517  55   000544 000530
    002520  2a   000051 400001
    002521  55   000542 000003
    002522  aa  006 150 141 156         hangup
    002523  aa  147 165 160 000
    002524  55   000553 000537
    002525  2a   000050 400001
    002526  55   000547 000003
    002527  aa  014 147 162 145         greeting_msg
    002530  aa  145 164 151 156
    002531  aa  147 137 155 163
    002532  aa  147 000 000 000
    002533  55   000563 000544
    002534  2a   000047 400001
    002535  55   000556 000003
    002536  aa  021 147 151 166         give_instructions
    002537  aa  145 137 151 156
    002540  aa  163 164 162 165
    002541  aa  143 164 151 157
    002542  aa  156 163 000 000
    002543  55   000575 000553
    002544  2a   000046 400001
    002545  55   000566 000003
    002546  aa  030 147 145 156         generated_password_error
    002547  aa  145 162 141 164
    002550  aa  145 144 137 160
    002551  aa  141 163 163 167
    002552  aa  157 162 144 137
    002553  aa  145 162 162 157
    002554  aa  162 000 000 000
    002555  55   000605 000563
    002556  2a   000045 400001
    002557  55   000600 000003
    002560  aa  022 147 145 156         generated_password
    002561  aa  145 162 141 164
    002562  aa  145 144 137 160
    002563  aa  141 163 163 167
    002564  aa  157 162 144 000
    002565  55   000614 000575
    002566  2a   000044 400001
    002567  55   000610 000003
    002570  aa  014 146 160 145         fpe_new_proc
    002571  aa  137 156 145 167
    002572  aa  137 160 162 157
    002573  aa  143 000 000 000
    002574  55   000622 000605
    002575  2a   000043 400001
    002576  55   000617 000003
    002577  aa  010 146 160 145         fpe_loop
    002600  aa  137 154 157 157
    002601  aa  160 000 000 000
    002602  55   000631 000614
    002603  2a   000042 400001
    002604  55   000625 000003
    002605  aa  017 146 160 145         fpe_during_init
    002606  aa  137 144 165 162
    002607  aa  151 156 147 137
    002610  aa  151 156 151 164
    002611  55   000641 000622
    002612  2a   000041 400001
    002613  55   000634 000003
    002614  aa  021 146 160 145         fpe_caused_logout
    002615  aa  137 143 141 165
    002616  aa  163 145 144 137
    002617  aa  154 157 147 157
    002620  aa  165 164 000 000
    002621  55   000647 000631
    002622  2a   000040 400001
    002623  55   000644 000003
    002624  aa  013 146 141 164         fatal_error
    002625  aa  141 154 137 145
    002626  aa  162 162 157 162
    002627  55   000656 000641
    002630  2a   000037 400001
    002631  55   000652 000003
    002632  aa  015 144 162 157         dropped_by_mc
    002633  aa  160 160 145 144
    002634  aa  137 142 171 137
    002635  aa  155 143 000 000
    002636  55   000667 000647
    002637  2a   000036 400001
    002640  55   000661 000003
    002641  aa  026 144 151 163         disconnected_processes
    002642  aa  143 157 156 156
    002643  aa  145 143 164 145
    002644  aa  144 137 160 162
    002645  aa  157 143 145 163
    002646  aa  163 145 163 000
    002647  55   000676 000656
    002650  2a   000035 400001
    002651  55   000672 000003
    002652  aa  014 144 151 141         dialed_to_mc
    002653  aa  154 145 144 137
    002654  aa  164 157 137 155
    002655  aa  143 000 000 000
    002656  55   000705 000667
    002657  2a   000034 400001
    002660  55   000701 000003
    002661  aa  017 144 151 141         dial_terminated
    002662  aa  154 137 164 145
    002663  aa  162 155 151 156
    002664  aa  141 164 145 144
    002665  55   000713 000676
    002666  2a   000033 400001
    002667  55   000710 000003
    002670  aa  013 144 151 141         dial_logout
    002671  aa  154 137 154 157
    002672  aa  147 157 165 164
    002673  55   000723 000705
    002674  2a   000032 400001
    002675  55   000716 000003
    002676  aa  020 144 151 141         dial_connect_msg
    002677  aa  154 137 143 157
    002700  aa  156 156 145 143
    002701  aa  164 137 155 163
    002702  aa  147 000 000 000
    002703  55   000734 000713
    002704  2a   000031 400001
    002705  55   000726 000003
    002706  aa  027 144 145 146         default_project_changed
    002707  aa  141 165 154 164
    002710  aa  137 160 162 157
    002711  aa  152 145 143 164
    002712  aa  137 143 150 141
    002713  aa  156 147 145 144
    002714  55   000745 000723
    002715  2a   000030 400001
    002716  55   000737 000003
    002717  aa  024 144 145 146         default_auth_changed
    002720  aa  141 165 154 164
    002721  aa  137 141 165 164
    002722  aa  150 137 143 150
    002723  aa  141 156 147 145
    002724  aa  144 000 000 000
    002725  55   000756 000734
    002726  2a   000027 400001
    002727  55   000750 000003
    002730  aa  025 143 165 162         current_terminal_type
    002731  aa  162 145 156 164
    002732  aa  137 164 145 162
    002733  aa  155 151 156 141
    002734  aa  154 137 164 171
    002735  aa  160 145 000 000
    002736  55   000766 000745
    002737  2a   000026 400001
    002740  55   000761 000003
    002741  aa  023 143 165 162         current_terminal_id
    002742  aa  162 145 156 164
    002743  aa  137 164 145 162
    002744  aa  155 151 156 141
    002745  aa  154 137 151 144
    002746  55   000775 000756
    002747  2a   000025 400001
    002750  55   000771 000003
    002751  aa  015 143 165 162         current_modes
    002752  aa  162 145 156 164
    002753  aa  137 155 157 144
    002754  aa  145 163 000 000
    002755  55   001004 000766
    002756  2a   000024 400001
    002757  55   001000 000003
    002760  aa  014 143 157 163         cost_message
    002761  aa  164 137 155 145
    002762  aa  163 163 141 147
    002763  aa  145 000 000 000
    002764  55   001016 000775
    002765  2a   000023 400001
    002766  55   001007 000003
    002767  aa  030 143 157 156         connected_after_new_proc
    002770  aa  156 145 143 164
    002771  aa  145 144 137 141
    002772  aa  146 164 145 162
    002773  aa  137 156 145 167
    002774  aa  137 160 162 157
    002775  aa  143 000 000 000
    002776  55   001024 001004
    002777  2a   000022 400001
    003000  55   001021 000003
    003001  aa  011 143 157 156         connected
    003002  aa  156 145 143 164
    003003  aa  145 144 000 000
    003004  55   001034 001016
    003005  2a   000021 400001
    003006  55   001027 000003
    003007  aa  020 143 157 156         connect_requests
    003010  aa  156 145 143 164
    003011  aa  137 162 145 161
    003012  aa  165 145 163 164
    003013  aa  163 000 000 000
    003014  55   001042 001024
    003015  2a   000020 400001
    003016  55   001037 000003
    003017  aa  011 143 157 155         coming_up
    003020  aa  151 156 147 137
    003021  aa  165 160 000 000
    003022  55   001052 001034
    003023  2a   000017 400001
    003024  55   001045 000003
    003025  aa  023 142 141 144         bad_password_format
    003026  aa  137 160 141 163
    003027  aa  163 167 157 162
    003030  aa  144 137 146 157
    003031  aa  162 155 141 164
    003032  55   001062 001042
    003033  2a   000016 400001
    003034  55   001055 000003
    003035  aa  022 142 141 144         bad_password_check
    003036  aa  137 160 141 163
    003037  aa  163 167 157 162
    003040  aa  144 137 143 150
    003041  aa  145 143 153 000
    003042  55   001072 001052
    003043  2a   000015 400001
    003044  55   001065 000003
    003045  aa  022 142 141 144         bad_login_word_msg
    003046  aa  137 154 157 147
    003047  aa  151 156 137 167
    003050  aa  157 162 144 137
    003051  aa  155 163 147 000
    003052  55   001104 001062
    003053  2a   000014 400001
    003054  55   001075 000003
    003055  aa  032 142 141 144         bad_login_arguments_string
    003056  aa  137 154 157 147
    003057  aa  151 156 137 141
    003060  aa  162 147 165 155
    003061  aa  145 156 164 163
    003062  aa  137 163 164 162
    003063  aa  151 156 147 000
    003064  55   001114 001072
    003065  2a   000013 400001
    003066  55   001107 000003
    003067  aa  020 141 165 164         automatic_logout
    003070  aa  157 155 141 164
    003071  aa  151 143 137 154
    003072  aa  157 147 157 165
    003073  aa  164 000 000 000
    003074  55   001123 001104
    003075  2a   000012 400001
    003076  55   001117 000003
    003077  aa  015 141 165 164         authorization
    003100  aa  150 157 162 151
    003101  aa  172 141 164 151
    003102  aa  157 156 000 000
    003103  55   001133 001114
    003104  2a   000011 400001
    003105  55   001126 000003
    003106  aa  021 141 154 162         already_logged_in
    003107  aa  145 141 144 171
    003110  aa  137 154 157 147
    003111  aa  147 145 144 137
    003112  aa  151 156 000 000
    003113  55   001143 001123
    003114  2a   000010 400001
    003115  55   001136 000003
    003116  aa  021 141 143 154         aclass_banner_msg
    003117  aa  141 163 163 137
    003120  aa  142 141 156 156
    003121  aa  145 162 137 155
    003122  aa  163 147 000 000
    003123  55   000002 001133
    003124  6a   000000 400002
    003125  55   001146 000003
    003126  aa  014 163 171 155         symbol_table
    003127  aa  142 157 154 137
    003130  aa  164 141 142 154
    003131  aa  145 000 000 000

DEFINITIONS HASH TABLE

    003132  aa   000000 000235
    003133  aa   000000 000000
    003134  5a   000033 000000
    003135  5a   000647 000000
    003136  5a   000745 000000
    003137  5a   001042 000000
    003140  5a   000756 000000
    003141  5a   001052 000000
    003142  5a   000150 000000
    003143  5a   000160 000000
    003144  5a   000230 000000
    003145  5a   000641 000000
    003146  5a   001062 000000
    003147  5a   000346 000000
    003150  5a   000130 000000
    003151  5a   000544 000000
    003152  5a   000335 000000
    003153  aa   000000 000000
    003154  5a   000042 000000
    003155  5a   000013 000000
    003156  5a   000766 000000
    003157  aa   000000 000000
    003160  5a   000220 000000
    003161  aa   000000 000000
    003162  5a   000170 000000
    003163  5a   000242 000000
    003164  aa   000000 000000
    003165  aa   000000 000000
    003166  5a   000204 000000
    003167  aa   000000 000000
    003170  aa   000000 000000
    003171  aa   000000 000000
    003172  aa   000000 000000
    003173  aa   000000 000000
    003174  aa   000000 000000
    003175  aa   000000 000000
    003176  aa   000000 000000
    003177  aa   000000 000000
    003200  aa   000000 000000
    003201  aa   000000 000000
    003202  aa   000000 000000
    003203  aa   000000 000000
    003204  aa   000000 000000
    003205  aa   000000 000000
    003206  5a   000213 000000
    003207  aa   000000 000000
    003210  aa   000000 000000
    003211  5a   000454 000000
    003212  5a   001123 000000
    003213  5a   000444 000000
    003214  aa   000000 000000
    003215  aa   000000 000000
    003216  aa   000000 000000
    003217  aa   000000 000000
    003220  aa   000000 000000
    003221  aa   000000 000000
    003222  5a   000462 000000
    003223  5a   000435 000000
    003224  aa   000000 000000
    003225  aa   000000 000000
    003226  5a   000520 000000
    003227  5a   001004 000000
    003230  aa   000000 000000
    003231  aa   000000 000000
    003232  5a   000511 000000
    003233  5a   000530 000000
    003234  aa   000000 000000
    003235  aa   000000 000000
    003236  5a   000057 000000
    003237  5a   000502 000000
    003240  5a   000723 000000
    003241  5a   000076 000000
    003242  5a   001143 000000
    003243  5a   000323 000000
    003244  aa   000000 000000
    003245  5a   000734 000000
    003246  5a   001024 000000
    003247  5a   000537 000000
    003250  aa   000000 000000
    003251  aa   000000 000000
    003252  aa   000000 000000
    003253  aa   000000 000000
    003254  aa   000000 000000
    003255  aa   000000 000000
    003256  aa   000000 000000
    003257  5a   000050 000000
    003260  5a   000312 000000
    003261  5a   000070 000000
    003262  5a   000676 000000
    003263  5a   000713 000000
    003264  5a   000775 000000
    003265  5a   000656 000000
    003266  5a   001016 000000
    003267  5a   000667 000000
    003270  5a   000563 000000
    003271  5a   000705 000000
    003272  5a   001034 000000
    003273  5a   000252 000000
    003274  aa   000000 000000
    003275  aa   000000 000000
    003276  aa   000000 000000
    003277  5a   000176 000000
    003300  aa   000000 000000
    003301  aa   000000 000000
    003302  aa   000000 000000
    003303  aa   000000 000000
    003304  5a   000575 000000
    003305  5a   000263 000000
    003306  5a   000273 000000
    003307  5a   001104 000000
    003310  aa   000000 000000
    003311  aa   000000 000000
    003312  5a   001114 000000
    003313  aa   000000 000000
    003314  aa   000000 000000
    003315  aa   000000 000000
    003316  aa   000000 000000
    003317  aa   000000 000000
    003320  5a   000411 000000
    003321  5a   000303 000000
    003322  5a   000363 000000
    003323  aa   000000 000000
    003324  aa   000000 000000
    003325  5a   000553 000000
    003326  aa   000000 000000
    003327  5a   000631 000000
    003330  aa   000000 000000
    003331  aa   000000 000000
    003332  aa   000000 000000
    003333  5a   000622 000000
    003334  5a   000402 000000
    003335  5a   000106 000000
    003336  5a   000373 000000
    003337  aa   000000 000000
    003340  aa   000000 000000
    003341  5a   000605 000000
    003342  aa   000000 000000
    003343  aa   000000 000000
    003344  5a   000422 000000
    003345  aa   000000 000000
    003346  aa   000000 000000
    003347  aa   000000 000000
    003350  aa   000000 000000
    003351  5a   000614 000000
    003352  5a   001133 000000
    003353  aa   000000 000000
    003354  5a   000356 000000
    003355  5a   000472 000000
    003356  5a   000024 000000
    003357  5a   000116 000000
    003360  5a   000430 000000
    003361  5a   000137 000000
    003362  5a   001072 000000
    003363  aa   000000 000000
    003364  aa   000000 000000
    003365  aa   000000 000000
    003366  aa   000000 000000
    003367  aa   000000 000000

NO EXTERNAL NAMES

NO TRAP POINTER WORDS

TYPE PAIR BLOCKS

    003370  aa   000001 000000
    003371  aa   000000 000000

INTERNAL EXPRESSION WORDS

    003372  50   001410 000000
    003373  aa   000000 000000
LINKAGE INFORMATION

    000000  aa   000000 000000
    000001  02   001760 000132
    000002  aa   000000 000000
    000003  aa   000000 000000
    000004  aa   000000 000000
    000005  aa   000000 000000
    000006  22   000130 000135
    000007  a2   000000 000120
    000130  9a   777650 0000 46         *text|
    000131  5a   001412 0000 00

FIRST REFERENCE TRAP LIST

    000132  aa   000000 000001
    000133  aa   000000 000001
    000134  2a   000130 000000
    000135  aa   000000 000000
SYMBOL INFORMATION

SYMBOL TABLE HEADER

    000000  aa   000000 000001
    000001  aa   163171 155142
    000002  aa   164162 145145
    000003  aa   000000 000007
    000004  aa   000000 115030
    000005  aa   273207 326355
    000006  aa   000000 115523
    000007  aa   743770 111162
    000010  aa   141154 155040
    000011  aa   040040 040040
    000012  aa   000024 000040
    000013  aa   000034 000040
    000014  aa   000044 000100
    000015  aa   000002 000002
    000016  aa   000064 000000
    000017  aa   000000 000450
    000020  aa   000000 000157
    000021  aa   000273 000252
    000022  aa   000437 000157
    000023  aa   000064 000000
    000024  aa   101114 115040
    000025  aa   126145 162163
    000026  aa   151157 156040
    000027  aa   067056 063040
    000030  aa   116157 166145
    000031  aa   155142 145162
    000032  aa   040061 071070
    000033  aa   066040 040040
    000034  aa   107112 157150
    000035  aa   156163 157156
    000036  aa   056123 171163
    000037  aa   115141 151156
    000040  aa   164056 141040
    000041  aa   040040 040040
    000042  aa   040040 040040
    000043  aa   040040 040040
    000044  aa   055164 141162
    000045  aa   147145 164040
    000046  aa   154066 070040
    000047  aa   040040 040040
    000050  aa   040040 040040
    000051  aa   040040 040040
    000052  aa   040040 040040
    000053  aa   040040 040040
    000054  aa   040040 040040
    000055  aa   040040 040040
    000056  aa   040154 151163
    000057  aa   164040 163171
    000060  aa   155142 157154
    000061  aa   163040 040040
    000062  aa   040040 040040
    000063  aa   040040 040040
    000064  aa   000000 000001
    000065  aa   000000 000004
    000066  aa   000106 000066
    000067  aa   155200 221240
    000070  aa   000000 115523
    000071  aa   731465 400000
    000072  aa   000124 000037
    000073  aa   120665 316464
    000074  aa   000000 112067
    000075  aa   253504 600000
    000076  aa   000134 000045
    000077  aa   155200 206547
    000100  aa   000000 115523
    000101  aa   706633 200000
    000102  aa   000146 000042
    000103  aa   147777 464111
    000104  aa   000000 115000
    000105  aa   507463 000000
    000106  aa   076163 160145          >special_ldd>install>MR12.1-1054>ls_message_table_.alm
    000107  aa   143151 141154
    000110  aa   137154 144144
    000111  aa   076151 156163
    000112  aa   164141 154154
    000113  aa   076115 122061
    000114  aa   062056 061055
    000115  aa   061060 065064
    000116  aa   076154 163137
    000117  aa   155145 163163
    000120  aa   141147 145137
    000121  aa   164141 142154
    000122  aa   145137 056141
    000123  aa   154155 040040
    000124  aa   076154 144144          >ldd>include>et_macros.incl.alm
    000125  aa   076151 156143
    000126  aa   154165 144145
    000127  aa   076145 164137
    000130  aa   155141 143162
    000131  aa   157163 056151
    000132  aa   156143 154056
    000133  aa   141154 155040
    000134  aa   076163 160145          >spec>install>1056>ls_macros.incl.alm
    000135  aa   143076 151156
    000136  aa   163164 141154
    000137  aa   154076 061060
    000140  aa   065066 076154
    000141  aa   163137 155141
    000142  aa   143162 157163
    000143  aa   056151 156143
    000144  aa   154056 141154
    000145  aa   155040 040040
    000146  aa   076154 144144          >ldd>include>stack_header.incl.alm
    000147  aa   076151 156143
    000150  aa   154165 144145
    000151  aa   076163 164141
    000152  aa   143153 137150
    000153  aa   145141 144145
    000154  aa   162056 151156
    000155  aa   143154 056141
    000156  aa   154155 040040
               MULTICS ASSEMBLY CROSS REFERENCE LISTING

   Value        Symbol                   Source file   Line number

                *text                    ls_message_table_:   49.
          12    .._00000                 ls_message_table_:   51.
          21    .._00001                 ls_message_table_:   52.
          35    .._00002                 ls_message_table_:   53.
          50    .._00003                 ls_message_table_:   54.
          55    .._00004                 ls_message_table_:   55.
          73    .._00005                 ls_message_table_:   56.
         102    .._00006                 ls_message_table_:   57.
         112    .._00007                 ls_message_table_:   59.
         140    .._00010                 ls_message_table_:   60.
         155    .._00011                 ls_message_table_:   61.
         177    .._00012                 ls_message_table_:   62.
         221    .._00013                 ls_message_table_:   64.
         247    .._00014                 ls_message_table_:   66.
         263    .._00015                 ls_message_table_:   68.
         270    .._00016                 ls_message_table_:   69.
         300    .._00017                 ls_message_table_:   70.
         310    .._00020                 ls_message_table_:   71.
         320    .._00021                 ls_message_table_:   72.
         327    .._00022                 ls_message_table_:   73.
         341    .._00023                 ls_message_table_:   74.
         350    .._00024                 ls_message_table_:   75.
         366    .._00025                 ls_message_table_:   76.
         401    .._00026                 ls_message_table_:   78.
         413    .._00027                 ls_message_table_:   80.
         424    .._00030                 ls_message_table_:   82.
         436    .._00031                 ls_message_table_:   84.
         453    .._00032                 ls_message_table_:   85.
         466    .._00033                 ls_message_table_:   86.
         502    .._00034                 ls_message_table_:   87.
         510    .._00035                 ls_message_table_:   88.
         523    .._00036                 ls_message_table_:   89.
         533    .._00037                 ls_message_table_:   90.
         554    .._00040                 ls_message_table_:   91.
         577    .._00041                 ls_message_table_:   93.
         602    .._00042                 ls_message_table_:   94.
         627    .._00043                 ls_message_table_:   95.
         645    .._00044                 ls_message_table_:   96.
         670    .._00045                 ls_message_table_:   97.
         706    .._00046                 ls_message_table_:   98.
         724    .._00047                 ls_message_table_:   99.
         760    .._00050                 ls_message_table_:  101.
         772    .._00051                 ls_message_table_:  102.
        1010    .._00052                 ls_message_table_:  103.
        1027    .._00053                 ls_message_table_:  104.
        1047    .._00054                 ls_message_table_:  105.
        1062    .._00055                 ls_message_table_:  106.
        1101    .._00056                 ls_message_table_:  107.
        1113    .._00057                 ls_message_table_:  108.
        1130    .._00060                 ls_message_table_:  109.
        1154    .._00061                 ls_message_table_:  110.
        1175    .._00062                 ls_message_table_:  112.
        1211    .._00063                 ls_message_table_:  114.
        1237    .._00064                 ls_message_table_:  115.
        1261    .._00065                 ls_message_table_:  116.
        1303    .._00066                 ls_message_table_:  117.
        1307    .._00067                 ls_message_table_:  118.
        1314    .._00070                 ls_message_table_:  119.
        1327    .._00071                 ls_message_table_:  120.
        1344    .._00072                 ls_message_table_:  121.
        1375    .._00073                 ls_message_table_:  123.
        1406    .._00074                 ls_message_table_:  124.
        1422    .._00075                 ls_message_table_:  125.
        1437    .._00076                 ls_message_table_:  126.
        1454    .._00077                 ls_message_table_:  127.
        1501    .._00100                 ls_message_table_:  128.
        1504    .._00101                 ls_message_table_:  129.
        1511    .._00102                 ls_message_table_:  130.
        1532    .._00103                 ls_message_table_:  131.
        1551    .._00104                 ls_message_table_:  132.
        1560    .._00105                 ls_message_table_:  133.
        1607    .._00106                 ls_message_table_:  134.
        1626    .._00107                 ls_message_table_:  135.
        1644    .._00110                 ls_message_table_:  137.
        1660    .._00111                 ls_message_table_:  138.
        1674    .._00112                 ls_message_table_:  139.
        1707    .._00113                 ls_message_table_:  140.
        1716    .._00114                 ls_message_table_:  141.
        1726    .._00115                 ls_message_table_:  142.
        1734    .._00116                 ls_message_table_:  143.
         127    .code_end                ls_message_table_:   49.
          10    .code_start              ls_message_table_:   49.
           5    .loop                    ls_message_table_:   49.
       77777    .segno                   ls_message_table_:   49,   51,   52,   53,   54,   55,   56,   57,   59,   60,   61,
                                                              62,   64,   66,   68,   69,   70,   71,   72,   73,   74,   75,
                                                              76,   78,   80,   82,   84,   85,   86,   87,   88,   89,   90,
                                                              91,   93,   94,   95,   96,   97,   98,   99,  101,  102,  103,
                                                             104,  105,  106,  107,  108,  109,  110,  112,  114,  115,  116,
                                                             117,  118,  119,  120,  121,  123,  124,  125,  126,  127,  128,
                                                             129,  130,  131,  132,  133,  134,  135,  137,  138,  139,  140,
                                                             141,  142,  143.
           0    .trapproc                ls_message_table_:   49.
          10    aclass_banner_msg        ls_message_table_:   51.
          11    already_logged_in        ls_message_table_:   52.
          12    authorization            ls_message_table_:   53.
          13    automatic_logout         ls_message_table_:   54.
          14    bad_login_arguments_string     ls_message_table_:   55.
          15    bad_login_word_msg       ls_message_table_:   56.
          16    bad_password_check       ls_message_table_:   57.
          17    bad_password_format      ls_message_table_:   59.
        1170    call_offset              stack_header:        80.
          10    codes                    ls_message_table_:   49,   51,   52,   53,   54,   55,   56,   57,   59,   60,   61,
                                                              62,   64,   66,   68,   69,   70,   71,   72,   73,   74,   75,
                                                              76,   78,   80,   82,   84,   85,   86,   87,   88,   89,   90,
                                                              91,   93,   94,   95,   96,   97,   98,   99,  101,  102,  103,
                                                             104,  105,  106,  107,  108,  109,  110,  112,  114,  115,  116,
                                                             117,  118,  119,  120,  121,  123,  124,  125,  126,  127,  128,
                                                             129,  130,  131,  132,  133,  134,  135,  137,  138,  139,  140,
                                                             141,  142,  143.
          20    coming_up                ls_message_table_:   60.
          22    connected                ls_message_table_:   62.
          23    connected_after_new_proc       ls_message_table_:   64.
          21    connect_requests         ls_message_table_:   61.
          24    cost_message             ls_message_table_:   66.
          25    current_modes            ls_message_table_:   68.
          26    current_terminal_id      ls_message_table_:   69.
          27    current_terminal_type    ls_message_table_:   70.
          30    default_auth_changed     ls_message_table_:   71.
          31    default_project_changed  ls_message_table_:   72.
          35    dialed_to_mc             ls_message_table_:   76.
          32    dial_connect_msg         ls_message_table_:   73.
          33    dial_logout              ls_message_table_:   74.
          34    dial_terminated          ls_message_table_:   75.
          36    disconnected_processes   ls_message_table_:   78.
          37    dropped_by_mc            ls_message_table_:   80.
        1174    entry_offset             stack_header:        84.
          40    fatal_error              ls_message_table_:   82.
          41    fpe_caused_logout        ls_message_table_:   84.
          42    fpe_during_init          ls_message_table_:   85.
          43    fpe_loop                 ls_message_table_:   86.
          44    fpe_new_proc             ls_message_table_:   87.
          45    generated_password       ls_message_table_:   88.
          46    generated_password_error       ls_message_table_:   89.
          47    give_instructions        ls_message_table_:   90.
          50    greeting_msg             ls_message_table_:   91.
          51    hangup                   ls_message_table_:   93.
          52    help_gpw_verify          ls_message_table_:   94.
          53    help_new_password        ls_message_table_:   95.
          54    help_npw_verify          ls_message_table_:   96.
          55    help_password            ls_message_table_:   97.
          56    illegal_new_proc         ls_message_table_:   98.
          57    incorrect_passwords      ls_message_table_:   99.
          60    last_login               ls_message_table_:  101.
          62    list_process             ls_message_table_:  103.
          61    list_proc_header         ls_message_table_:  102.
          63    login                    ls_message_table_:  104.
          64    login_args               ls_message_table_:  105.
          65    login_excess_wakeups     ls_message_table_:  106.
          66    login_requests           ls_message_table_:  107.
          67    login_timeout            ls_message_table_:  108.
          71    logout                   ls_message_table_:  110.
          70    logout_disconnected      ls_message_table_:  109.
           0    messages                 ls_message_table_:   49,   51,   52,   53,   54,   55,   56,   57,   59,   60,   61,
                                                              62,   64,   66,   68,   69,   70,   71,   72,   73,   74,   75,
                                                              76,   78,   80,   82,   84,   85,   86,   87,   88,   89,   90,
                                                              91,   93,   94,   95,   96,   97,   98,   99,  101,  102,  103,
                                                             104,  105,  106,  107,  108,  109,  110,  112,  114,  115,  116,
                                                             117,  118,  119,  120,  121,  123,  124,  125,  126,  127,  128,
                                                             129,  130,  131,  132,  133,  134,  135,  137,  138,  139,  140,
                                                             141,  142,  143.
          72    multiple_login_msg       ls_message_table_:  112.
          73    must_give_process_no     ls_message_table_:  114.
          74    need_authorization_for_cda     ls_message_table_:  115.
          75    need_project_for_cdp     ls_message_table_:  116.
          76    new_password             ls_message_table_:  117.
          77    new_password_again       ls_message_table_:  118.
         100    new_password_error       ls_message_table_:  119.
         101    new_password_indistinct  ls_message_table_:  120.
         102    no_connect_aclass        ls_message_table_:  121.
         103    no_disconnected_processes      ls_message_table_:  123.
         104    no_line_permission       ls_message_table_:  124.
         105    no_name                  ls_message_table_:  125.
         106    no_such_process          ls_message_table_:  126.
         107    offer_help               ls_message_table_:  127.
         110    password                 ls_message_table_:  128.
         111    password_changed         ls_message_table_:  129.
         112    password_expired         ls_message_table_:  130.
         113    password_format_warning  ls_message_table_:  131.
         114    password_quit            ls_message_table_:  132.
         115    password_unused_too_long       ls_message_table_:  133.
         127    past_codes               ls_message_table_:   49.
         116    please_try_again         ls_message_table_:  134.
         117    process_destroyed        ls_message_table_:  135.
         120    protected                ls_message_table_:  137.
        1171    push_offset              stack_header:        81.
         121    requesting_dial_to_mc    ls_message_table_:  138.
        1173    return_no_pop_offset     stack_header:        83.
        1172    return_offset            stack_header:        82.
         122    rq_invalid_now           ls_message_table_:  139.
         123    shutdown                 ls_message_table_:  140.
         124    special_session          ls_message_table_:  141.
          73    stach_header.trace_top_ptr     stack_header:        62.
          66    stack_header.assign_linkage_ptr      stack_header:        59.
          32    stack_header.bar_mode_sp       stack_header:        42.
          36    stack_header.call_op_ptr       stack_header:        44.
          10    stack_header.clr_ptr     stack_header:        27.
           6    stack_header.combined_stat_ptr       stack_header:        25.
           4    stack_header.cpm_data_ptr      stack_header:        24.
          13    stack_header.cpm_enabled       stack_header:        32.
          13    stack_header.cur_lot_size      stack_header:        31.
          64    stack_header.ect_ptr     stack_header:        58.
          46    stack_header.entry_op_ptr      stack_header:        49.
          70    stack_header.heap_header_ptr   stack_header:        60.
          74    stack_header.in_trace    stack_header:        63.
          52    stack_header.isot_ptr    stack_header:        52.
          26    stack_header.lot_ptr     ls_message_table_:   49,
                                         stack_header:        39.
          12    stack_header.main_proc_invoked       stack_header:        29.
          12    stack_header.max_lot_size      stack_header:        28.
          20    stack_header.parent_ptr  stack_header:        36.
          34    stack_header.pl1_operators_ptr       stack_header:        43.
          40    stack_header.push_op_ptr       stack_header:        46.
          42    stack_header.return_op_ptr     stack_header:        47.
          44    stack_header.ret_no_pop_op_ptr       stack_header:        48.
          62    stack_header.rnt_ptr     stack_header:        57.
          12    stack_header.run_unit_depth    stack_header:        30.
          54    stack_header.sct_ptr     stack_header:        53.
          30    stack_header.signal_ptr  stack_header:        41.
          22    stack_header.stack_begin_ptr   stack_header:        37.
          24    stack_header.stack_end_ptr     stack_header:        38.
          14    stack_header.system_free_ptr   stack_header:        33.
          60    stack_header.sys_link_info_ptr       stack_header:        56.
          72    stack_header.trace_frames      stack_header:        61.
          50    stack_header.trans_op_tv_ptr   stack_header:        51.
          56    stack_header.unwinder_ptr      stack_header:        54.
          16    stack_header.user_free_ptr     stack_header:        34.
         100    stack_header_end         stack_header:        64.
           0    trace_frames.count       stack_header:        69.
           1    trace_frames.top_ptr     stack_header:        70.
         551    tv_offset                stack_header:        75,   80,   81,   82,   83,   84.
         125    unknown_request          ls_message_table_:  142.
         126    user_required_for_dial   ls_message_table_:  143.


NO FATAL ERRORS


                                          -----------------------------------------------------------


Historical Background

This edition of the Multics software materials and documentation is provided and donated
to Massachusetts Institute of Technology by Group BULL including BULL HN Information Systems Inc.
as a contribution to computer science knowledge.
This donation is made also to give evidence of the common contributions of Massachusetts Institute of Technology,
Bell Laboratories, General Electric, Honeywell Information Systems Inc., Honeywell BULL Inc., Groupe BULL
and BULL HN Information Systems Inc. to the development of this operating system.
Multics development was initiated by Massachusetts Institute of Technology Project MAC (1963-1970),
renamed the MIT Laboratory for Computer Science and Artificial Intelligence in the mid 1970s, under the leadership
of Professor Fernando Jose Corbato. Users consider that Multics provided the best software architecture
for managing computer hardware properly and for executing programs. Many subsequent operating systems
incorporated Multics principles.
Multics was distributed in 1975 to 2000 by Group Bull in Europe , and in the U.S. by Bull HN Information Systems Inc.,
as successor in interest by change in name only to Honeywell Bull Inc. and Honeywell Information Systems Inc. .

                                          -----------------------------------------------------------

Permission to use, copy, modify, and distribute these programs and their documentation for any purpose and without
fee is hereby granted,provided that the below copyright notice and historical background appear in all copies
and that both the copyright notice and historical background and this permission notice appear in supporting
documentation, and that the names of MIT, HIS, BULL or BULL HN not be used in advertising or publicity pertaining
to distribution of the programs without specific prior written permission.
    Copyright 1972 by Massachusetts Institute of Technology and Honeywell Information Systems Inc.
    Copyright 2006 by BULL HN Information Systems Inc.
    Copyright 2006 by Bull SAS
    All Rights Reserved
