ASSEMBLY LISTING OF SEGMENT >spec>on>6978-10/22/84>mlrstern.alm
ASSEMBLED ON:	10/22/84  1114.5 mst Mon
OPTIONS USED:	list
ASSEMBLED BY:	ALM Version  6.6  November 1982
ASSEMBLER CREATED:	09/21/83  1227.3 mst Wed

                                     1  "  ******************************************************
                                     2  "  *                                                    *
                                     3  "  *                                                    *
                                     4  "  * Copyright (c) 1972 by Massachusetts Institute of   *
                                     5  "  * Technology and Honeywell Information Systems, Inc. *
                                     6  "  *                                                    *
                                     7  "  *                                                    *
                                     8  "  ******************************************************
                                     9
                                    10  "  ******************************************************
                                    11  "  *                                                    *
                                    12  "  *                                                    *
                                    13  "  *    Copyright, (C) Honeywell Information Systems    *
                                    14  "  *    Inc., 1980.                                     *
                                    15  "  *                                                    *
                                    16  "  *                                                    *
                                    17  "  ******************************************************
                                    18
                                    19  "This routine ckecks an MLR that failed when placing the fill character
                                    20  "across a page boundary.
                                    21
                                    22  "If the MLR fails, a DRL fault is forced.
                                    23  "Successful execution of the MLR is checked by using a CMPC AND a LDAQ/CMPAQ
                                    24  "to verify that the CMPC worked correctly. If the CMPC and LDAQ/CMPAQ results
                                    25  "agree, then the DRL fault is signaled if they sensed a failure. If they
                                    26  "disagree then a MME4 is forced to denote that the CMPC failed. If both the MLR
                                    27  "AND CMPC failed a MME1 is forced.
                                    28
                                    29
    000000                          30  	name	mlrstern
                        000000      31  	entry	mlrstern
                                    32  	temp 	eis_misc
                                    33  	temp	ou_misc
    000000  aa   000060 6270 00     34  mlrstern:	push
    000001  aa  7 00040 2721 20
    000002  aa  0 00002 3715 20     35  	epplb	ap|2,*
    000003  aa  5 00000 3715 20     36  	epplb	lb|0,*	"get ptr to test_data1_
    000004  aa  0 00004 3735 20     37  	eppsb	ap|4,*
    000005  aa  7 00000 3735 20     38  	eppsb	sb|0,*	"get ptr to test_cpu temp seg
    000006  aa  6 00050 4501 00     39  	stz	eis_misc
    000007  aa  6 00051 4501 00     40  	stz	ou_misc
    000010  aa   235253 2350 07     41  	lda	=o235253,dl
    000011  aa   167773 2360 07     42  	ldq	=o167773,dl
    000012  aa   000006 6270 00     43  	eax7	6
    000013  aa   000005 6260 00     44  	eax6	5
                                    45
    000014  aa  0 40146 1005 45     46  	mlr	(pr,rl,al),(pr,rl,ql),fill(040)
    000015  aa   577777 600016      47  	desc9a	lb|-1(3),x6
    000016  aa   700000 000017      48  	desc9a	sb|0,x7
                                    49
    000017  aa  0 40146 1065 45     50  	cmpc	(pr,rl,al),(pr,rl,ql),fill(040)
    000020  aa   577777 600016      51  	desc9a	lb|-1(3),x6
    000021  aa   700000 000017      52  	desc9a	sb|0,x7
    000022  0a   000041 6010 00     53  	tnz	fail1
    000023                          54  ou_check:
    000023  aa  7 35776 2371 00     55  	ldaq	sb|15358
    000024  0a   000046 1170 00     56  	cmpaq	constant1
    000025  0a   000043 6010 00     57  	tnz	fail2
    000026  aa  7 36000 2371 00     58  	ldaq	sb|15360
    000027  0a   000050 1170 00     59  	cmpaq	constant2
    000030  0a   000043 6010 00     60  	tnz	fail2
    000031                          61  validate:
    000031  aa  6 00050 2351 00     62  	lda	eis_misc
    000032  aa  6 00051 1151 00     63  	cmpa	ou_misc
    000033  0a   000054 6010 00     64  	tnz	eis_failed	"either the mlr or cmpc failed
    000034  aa   000000 2360 07     65  	ldq	0,dl
    000035  aa  6 00050 1161 00     66  	cmpq	eis_misc
    000036  0a   000053 6010 00     67  	tnz	mlr_failed
    000037  aa  6 00000 3731 00     68  	epbpsb	sp|0
    000040  aa  7 00042 7101 20     69  	return
                                    70
    000041  aa  6 00050 0541 00     71  fail1:	aos	eis_misc		"remember cmpc miscompared
    000042  0a   000023 7100 00     72  	tra	ou_check		"now validate with std instrs
    000043  aa  6 00051 0541 00     73  fail2:	aos	ou_misc		"remember ldaq/cmpaq miscompared
    000044  0a   000031 7100 00     74  	tra	validate
                                    75
    000045  aa   000000 0110 03     76  	even
    000046                          77  constant1:
    000046  aa   000000 000165      78  	oct	000000000165
    000047  aa   166167 170171      79  	oct	166167170171
    000050                          80  constant2:
    000050  aa   040000 000000      81  	oct	040000000000
    000051  aa   000000 000000      82  	oct	0
    000052                          83  cmpc_failed:
    000052  aa   000000 0070 00     84  	mme4
                                    85
    000053                          86  mlr_failed:
    000053  aa   000000 0020 00     87  	drl
                                    88
    000054                          89  eis_failed:
    000054  aa  6 00051 2351 00     90  	lda	ou_misc
    000055  aa   000000 1150 07     91  	cmpa	0,dl
    000056  0a   000052 6000 00     92  	tze	cmpc_failed
    000057  aa   000000 0010 00     93  	mme1			"MLR and CMPC failed
                                    94  	end
ENTRY SEQUENCES

    000060  5a   000011 0000 00
    000061  aa  7 00046 2721 20
    000062  0a   000000 7100 00

NO LITERALS

NAME DEFINITIONS FOR ENTRY POINTS AND SEGDEFS

    000064  5a   000003 000000
    000065  5a   000026 600000
    000066  aa   000000 000000
    000067  55   000011 000002
    000070  5a   000002 400003
    000071  55   000006 000011
    000072  aa  010 155 154 162
    000073  aa  163 164 145 162
    000074  aa  156 000 000 000
    000075  55   000017 000003
    000076  0a   000061 500000
    000077  55   000014 000003
    000100  aa  010 155 154 162         mlrstern
    000101  aa  163 164 145 162
    000102  aa  156 000 000 000
    000103  55   000002 000011
    000104  6a   000000 400002
    000105  55   000022 000003
    000106  aa  014 163 171 155         symbol_table
    000107  aa  142 157 154 137
    000110  aa  164 141 142 154
    000111  aa  145 000 000 000

DEFINITIONS HASH TABLE

    000112  aa   000000 000015
    000113  aa   000000 000000
    000114  aa   000000 000000
    000115  aa   000000 000000
    000116  aa   000000 000000
    000117  aa   000000 000000
    000120  aa   000000 000000
    000121  5a   000017 000000
    000122  aa   000000 000000
    000123  aa   000000 000000
    000124  aa   000000 000000
    000125  aa   000000 000000
    000126  5a   000011 000000
    000127  aa   000000 000000

NO EXTERNAL NAMES

NO TRAP POINTER WORDS

TYPE PAIR BLOCKS

    000130  aa   000001 000000
    000131  aa   000000 000000

INTERNAL EXPRESSION WORDS

LINKAGE INFORMATION

    000000  aa   000000 000000
    000001  0a   000064 000000
    000002  aa   000000 000000
    000003  aa   000000 000000
    000004  aa   000000 000000
    000005  aa   000000 000000
    000006  22   000010 000010
    000007  a2   000000 000000
SYMBOL INFORMATION

SYMBOL TABLE HEADER

    000000  aa   000000 000001
    000001  aa   163171 155142
    000002  aa   164162 145145
    000003  aa   000000 000004
    000004  aa   000000 112143
    000005  aa   305203 523135
    000006  aa   000000 113126
    000007  aa   355455 047635
    000010  aa   141154 155040
    000011  aa   040040 040040
    000012  aa   000024 000040
    000013  aa   000034 000040
    000014  aa   000044 000100
    000015  aa   000002 000002
    000016  aa   000064 000000
    000017  aa   000000 000123
    000020  aa   000000 000103
    000021  aa   000000 000112
    000022  aa   000115 000103
    000023  aa   000064 000000
    000024  aa   101114 115040
    000025  aa   126145 162163
    000026  aa   151157 156040
    000027  aa   040066 056066
    000030  aa   040040 116157
    000031  aa   166145 155142
    000032  aa   145162 040061
    000033  aa   071070 062040
    000034  aa   107112 157150
    000035  aa   156163 157156
    000036  aa   056123 171163
    000037  aa   115141 151156
    000040  aa   164056 155040
    000041  aa   040040 040040
    000042  aa   040040 040040
    000043  aa   040040 040040
    000044  aa   154151 163164
    000045  aa   040040 040040
    000046  aa   040040 040040
    000047  aa   040040 040040
    000050  aa   040040 040040
    000051  aa   040040 040040
    000052  aa   040040 040040
    000053  aa   040040 040040
    000054  aa   040040 040040
    000055  aa   040040 040040
    000056  aa   040040 040040
    000057  aa   040040 040040
    000060  aa   040040 040040
    000061  aa   040040 040040
    000062  aa   040040 040040
    000063  aa   040040 040040
    000064  aa   000000 000001
    000065  aa   000000 000001
    000066  aa   000072 000043
    000067  aa   131232 072507
    000070  aa   000000 113126
    000071  aa   347521 200000
    000072  aa   076163 160145          >spec>on>6978-10/22/84>mlrstern.alm
    000073  aa   143076 157156
    000074  aa   076066 071067
    000075  aa   070055 061060
    000076  aa   057062 062057
    000077  aa   070064 076155
    000100  aa   154162 163164
    000101  aa   145162 156056
    000102  aa   141154 155040
               MULTICS ASSEMBLY CROSS REFERENCE LISTING

   Value        Symbol                   Source file   Line number

          52    cmpc_failed              mlrstern:      83,   92.
          46    constant1                mlrstern:      56,   77.
          50    constant2                mlrstern:      59,   80.
          54    eis_failed               mlrstern:      64,   89.
          50    eis_misc                 mlrstern:      32,   39,   62,   66,   71.
          41    fail1                    mlrstern:      53,   71.
          43    fail2                    mlrstern:      57,   60,   73.
           0    mlrstern                 mlrstern:      31,   34.
          53    mlr_failed               mlrstern:      67,   86.
          23    ou_check                 mlrstern:      54,   72.
          51    ou_misc                  mlrstern:      33,   40,   63,   73,   90.
          31    validate                 mlrstern:      61,   74.


NO FATAL ERRORS


                                          -----------------------------------------------------------


Historical Background

This edition of the Multics software materials and documentation is provided and donated
to Massachusetts Institute of Technology by Group BULL including BULL HN Information Systems Inc.
as a contribution to computer science knowledge.
This donation is made also to give evidence of the common contributions of Massachusetts Institute of Technology,
Bell Laboratories, General Electric, Honeywell Information Systems Inc., Honeywell BULL Inc., Groupe BULL
and BULL HN Information Systems Inc. to the development of this operating system.
Multics development was initiated by Massachusetts Institute of Technology Project MAC (1963-1970),
renamed the MIT Laboratory for Computer Science and Artificial Intelligence in the mid 1970s, under the leadership
of Professor Fernando Jose Corbato. Users consider that Multics provided the best software architecture
for managing computer hardware properly and for executing programs. Many subsequent operating systems
incorporated Multics principles.
Multics was distributed in 1975 to 2000 by Group Bull in Europe , and in the U.S. by Bull HN Information Systems Inc.,
as successor in interest by change in name only to Honeywell Bull Inc. and Honeywell Information Systems Inc. .

                                          -----------------------------------------------------------

Permission to use, copy, modify, and distribute these programs and their documentation for any purpose and without
fee is hereby granted,provided that the below copyright notice and historical background appear in all copies
and that both the copyright notice and historical background and this permission notice appear in supporting
documentation, and that the names of MIT, HIS, BULL or BULL HN not be used in advertising or publicity pertaining
to distribution of the programs without specific prior written permission.
    Copyright 1972 by Massachusetts Institute of Technology and Honeywell Information Systems Inc.
    Copyright 2006 by BULL HN Information Systems Inc.
    Copyright 2006 by Bull SAS
    All Rights Reserved
