ASSEMBLY LISTING OF SEGMENT >spec>install>1257>multics_libraries_.alm
ASSEMBLED ON:	01/05/87  1327.4 mst Mon
OPTIONS USED:	-target l68                              list symbols
ASSEMBLED BY:	ALM Version 7.3 November 1986
ASSEMBLER CREATED:	11/26/86  1244.2 mst Wed

                                     1
                                     2  	"*  *  *  *  *  *  *  *  *  *  *  *  *  *  *  *  *  *  *  *  *  *  *  *"
                                     3  	"*							*"
                                     4  	"*  COMPILED OUTPUT FROM SEGMENT  multics_libraries_.ld           	*"
                                     5  	"*  Compiled by:  library_descriptor_compiler,			*"
                                     6  	"*		    Version 3.3 of January 14, 1986 		*"
                                     7  	"*  Compiled on:  01/05/87  1327.4 mst Mon                            *"
                                     8  	"*     Refer to:  lib_descriptor_.incl.pl1			*"
                                     9  	"*		    for a declaration of entries in this database *"
                                    10  	"*							*"
                                    11  	"*  *  *  *  *  *  *  *  *  *  *  *  *  *  *  *  *  *  *  *  *  *  *  *"
                                    12
    000000                          13  	name	multics_libraries_
                        000000      14  	segdef	descriptor
                                    15
    000000                          16  descriptor:					" 1 descriptor,
    000000  aa   000000 000002      17  	dec	   2				"   2 version,
    000001  aa  155 165 154 164     18  	aci	"multics_libraries_              "	"   2 name,
    000002  aa  151 143 163 137
    000003  aa  154 151 142 162
    000004  aa  141 162 151 145
    000005  aa  163 137 040 040
    000006  aa  040 040 040 040
    000007  aa  040 040 040 040
    000010  aa  040 040 040 040
                                    19  						"   2 command_default_values,
    000011  a0   000000 000014      20  	vfd	18/0,18/command_default_values	"     3 O,
                                    21  						"   2 roots,
    000012  a0   000000 000240      22  	vfd	18/0,18/roots			"     3 O;
                                    23  						" 
    000013  aa   000000 0110 03     24  	even
    000014                          25  command_default_values:				" 1 command_default_values,
    000014  aa   000000 000005      26  	dec	   5				"   2 N,
                                    27  						"   2 group (5),
                                    28  						"     3 S,/* (1: library_info) */
    000015  aa   000000 000000      29  	oct	000000000000			"       4 unsupported,
                                    30  						"     3 library_names,
    000016  a0   000000 000034      31  	vfd	18/0,18/library_names_1		"       4 O,
                                    32  						"     3 search_names,
    000017  a0   000000 000176      33  	vfd	18/0,18/search_names_1		"       4 O,
                                    34  						"     3 S,/* (2: library_map) */
    000020  aa   000000 000000      35  	oct	000000000000			"       4 unsupported,
                                    36  						"     3 library_names,
    000021  a0   000000 000060      37  	vfd	18/0,18/library_names_2		"       4 O,
                                    38  						"     3 search_names,
    000022  a0   000000 000200      39  	vfd	18/0,18/search_names_2		"       4 O,
                                    40  						"     3 S,/* (3: library_print) */
    000023  aa   000000 000000      41  	oct	000000000000			"       4 unsupported,
                                    42  						"     3 library_names,
    000024  a0   000000 000114      43  	vfd	18/0,18/library_names_3		"       4 O,
                                    44  						"     3 search_names,
    000025  a0   000000 000212      45  	vfd	18/0,18/search_names_3		"       4 O,
                                    46  						"     3 S,/* (4: library_fetch) */
    000026  aa   000000 000000      47  	oct	000000000000			"       4 unsupported,
                                    48  						"     3 library_names,
    000027  a0   000000 000126      49  	vfd	18/0,18/library_names_4		"       4 O,
                                    50  						"     3 search_names,
    000030  a0   000000 000224      51  	vfd	18/0,18/search_names_4		"       4 O,
                                    52  						"     3 S,/* (5: library_cleanup) */
    000031  aa   000000 000000      53  	oct	000000000000			"       4 unsupported,
                                    54  						"     3 library_names,
    000032  a0   000000 000152      55  	vfd	18/0,18/library_names_5		"       4 O,
                                    56  						"     3 search_names,
    000033  a0   000000 000226      57  	vfd	18/0,18/search_names_5		"       4 O;
                                    58  						" 
                                    59  	even
    000034                          60  library_names_1:					" library_info
                                    61  						" 1 library_names,
    000034  aa   000000 000002      62  	dec	2				"   2 N,
                                    63  						"   2 group (2),
    000035  aa  157 156 154 151     64  	aci	"online_libraries                "	"     3 V,
    000036  aa  156 145 137 154
    000037  aa  151 142 162 141
    000040  aa  162 151 145 163
    000041  aa  040 040 040 040
    000042  aa  040 040 040 040
    000043  aa  040 040 040 040
    000044  aa  040 040 040 040
    000045  aa   000000 000000      65  	dec	0				"     3 C,
    000046  aa  163 165 160 145     66  	aci	"supervisor_library              "	"     3 V,
    000047  aa  162 166 151 163
    000050  aa  157 162 137 154
    000051  aa  151 142 162 141
    000052  aa  162 171 040 040
    000053  aa  040 040 040 040
    000054  aa  040 040 040 040
    000055  aa  040 040 040 040
    000056  aa   000000 000000      67  	dec	0				"     3 C;
                                    68
    000057  aa   000000 0110 03     69  	even
    000060                          70  library_names_2:					" library_map
                                    71  						" 1 library_names,
    000060  aa   000000 000003      72  	dec	3				"   2 N,
                                    73  						"   2 group (3),
    000061  aa  157 156 154 151     74  	aci	"online_libraries.source         "	"     3 V,
    000062  aa  156 145 137 154
    000063  aa  151 142 162 141
    000064  aa  162 151 145 163
    000065  aa  056 163 157 165
    000066  aa  162 143 145 040
    000067  aa  040 040 040 040
    000070  aa  040 040 040 040
    000071  aa   000000 000000      75  	dec	0				"     3 C,
    000072  aa  157 156 154 151     76  	aci	"online_libraries.object         "	"     3 V,
    000073  aa  156 145 137 154
    000074  aa  151 142 162 141
    000075  aa  162 151 145 163
    000076  aa  056 157 142 152
    000077  aa  145 143 164 040
    000100  aa  040 040 040 040
    000101  aa  040 040 040 040
    000102  aa   000000 000000      77  	dec	0				"     3 C,
    000103  aa  157 156 154 151     78  	aci	"online_libraries.execution      "	"     3 V,
    000104  aa  156 145 137 154
    000105  aa  151 142 162 141
    000106  aa  162 151 145 163
    000107  aa  056 145 170 145
    000110  aa  143 165 164 151
    000111  aa  157 156 040 040
    000112  aa  040 040 040 040
    000113  aa   000000 000000      79  	dec	0				"     3 C;
                                    80
                                    81  	even
    000114                          82  library_names_3:					" library_print
                                    83  						" 1 library_names,
    000114  aa   000000 000001      84  	dec	1				"   2 N,
                                    85  						"   2 group (1),
    000115  aa  151 156 146 157     86  	aci	"info                            "	"     3 V,
    000116  aa  040 040 040 040
    000117  aa  040 040 040 040
    000120  aa  040 040 040 040
    000121  aa  040 040 040 040
    000122  aa  040 040 040 040
    000123  aa  040 040 040 040
    000124  aa  040 040 040 040
    000125  aa   000000 000000      87  	dec	0				"     3 C;
                                    88
                                    89  	even
    000126                          90  library_names_4:					" library_fetch
                                    91  						" 1 library_names,
    000126  aa   000000 000002      92  	dec	2				"   2 N,
                                    93  						"   2 group (2),
    000127  aa  157 156 154 151     94  	aci	"online_libraries.source         "	"     3 V,
    000130  aa  156 145 137 154
    000131  aa  151 142 162 141
    000132  aa  162 151 145 163
    000133  aa  056 163 157 165
    000134  aa  162 143 145 040
    000135  aa  040 040 040 040
    000136  aa  040 040 040 040
    000137  aa   000000 000000      95  	dec	0				"     3 C,
    000140  aa  163 165 160 145     96  	aci	"supervisor_library.source       "	"     3 V,
    000141  aa  162 166 151 163
    000142  aa  157 162 137 154
    000143  aa  151 142 162 141
    000144  aa  162 171 056 163
    000145  aa  157 165 162 143
    000146  aa  145 040 040 040
    000147  aa  040 040 040 040
    000150  aa   000000 000000      97  	dec	0				"     3 C;
                                    98
    000151  aa   000000 0110 03     99  	even
    000152                         100  library_names_5:					" library_cleanup
                                   101  						" 1 library_names,
    000152  aa   000000 000002     102  	dec	2				"   2 N,
                                   103  						"   2 group (2),
    000153  aa  157 156 154 151    104  	aci	"online_libraries                "	"     3 V,
    000154  aa  156 145 137 154
    000155  aa  151 142 162 141
    000156  aa  162 151 145 163
    000157  aa  040 040 040 040
    000160  aa  040 040 040 040
    000161  aa  040 040 040 040
    000162  aa  040 040 040 040
    000163  aa   000000 000000     105  	dec	0				"     3 C,
    000164  aa  157 146 146 154    106  	aci	"offline_libraries               "	"     3 V,
    000165  aa  151 156 145 137
    000166  aa  154 151 142 162
    000167  aa  141 162 151 145
    000170  aa  163 040 040 040
    000171  aa  040 040 040 040
    000172  aa  040 040 040 040
    000173  aa  040 040 040 040
    000174  aa   000000 000000     107  	dec	0				"     3 C;
                                   108
                                   109  						" 
    000175  aa   000000 0110 03    110  	even
    000176                         111  search_names_1:					" library_info
                                   112  						" 1 search_names,
    000176  aa   000000 000000     113  	dec	0				"   2 N,
                                   114  						"   2 group (0);
                                   115
    000177  aa   000000 0110 03    116  	even
    000200                         117  search_names_2:					" library_map
                                   118  						" 1 search_names,
    000200  aa   000000 000001     119  	dec	1				"   2 N,
                                   120  						"   2 group (1),
    000201  aa  052 052 040 040    121  	aci	"**                              "	"     3 V,
    000202  aa  040 040 040 040
    000203  aa  040 040 040 040
    000204  aa  040 040 040 040
    000205  aa  040 040 040 040
    000206  aa  040 040 040 040
    000207  aa  040 040 040 040
    000210  aa  040 040 040 040
    000211  aa   000000 000002     122  	dec	2				"     3 C;
                                   123
                                   124  	even
    000212                         125  search_names_3:					" library_print
                                   126  						" 1 search_names,
    000212  aa   000000 000001     127  	dec	1				"   2 N,
                                   128  						"   2 group (1),
    000213  aa  052 052 056 052    129  	aci	"**.*.info                       "	"     3 V,
    000214  aa  056 151 156 146
    000215  aa  157 040 040 040
    000216  aa  040 040 040 040
    000217  aa  040 040 040 040
    000220  aa  040 040 040 040
    000221  aa  040 040 040 040
    000222  aa  040 040 040 040
    000223  aa   000000 000001     130  	dec	1				"     3 C;
                                   131
                                   132  	even
    000224                         133  search_names_4:					" library_fetch
                                   134  						" 1 search_names,
    000224  aa   000000 000000     135  	dec	0				"   2 N,
                                   136  						"   2 group (0);
                                   137
    000225  aa   000000 0110 03    138  	even
    000226                         139  search_names_5:					" library_cleanup
                                   140  						" 1 search_names,
    000226  aa   000000 000001     141  	dec	1				"   2 N,
                                   142  						"   2 group (1),
    000227  aa  041 077 077 077    143  	aci	"!??????????????                 "	"     3 V,
    000230  aa  077 077 077 077
    000231  aa  077 077 077 077
    000232  aa  077 077 077 040
    000233  aa  040 040 040 040
    000234  aa  040 040 040 040
    000235  aa  040 040 040 040
    000236  aa  040 040 040 040
    000237  aa   000000 000001     144  	dec	1				"     3 C;
                                   145
                                   146  						" 
                                   147  	even
    000240                         148  roots:						" 1 roots,
    000240  aa   000000 000064     149  	dec	  52				"   2 N,
                                   150  						"   2 root (52),
                                   151  "
                                   152  "	Root:			(standard_library std sss online_libraries online on "").(source s "");
    000241  aa   000000 0110 03    153  	even					"          (1)
                                   154  						"     3 name,
    000242  a0   000000 007162     155  	vfd	18/0,18/.standard_library.source
                                   156  						"       4 O,
    000243  aa   000000 000017     157  	dec	  15				"     3 path,
    000244  aa  076 154 144 144    158  	aci	">ldd>sss>source                 "
    000245  aa  076 163 163 163
    000246  aa  076 163 157 165
    000247  aa  162 143 145 040
    000250  aa  040 040 040 040
    000251  aa  040 040 040 040
    000252  aa  040 040 040 040
    000253  aa  040 040 040 040
    000254  aa  040 040 040 040    159  	aci	"                                "
    000255  aa  040 040 040 040
    000256  aa  040 040 040 040
    000257  aa  040 040 040 040
    000260  aa  040 040 040 040
    000261  aa  040 040 040 040
    000262  aa  040 040 040 040
    000263  aa  040 040 040 040
    000264  aa  040 040 040 040    160  	aci	"                                "
    000265  aa  040 040 040 040
    000266  aa  040 040 040 040
    000267  aa  040 040 040 040
    000270  aa  040 040 040 040
    000271  aa  040 040 040 040
    000272  aa  040 040 040 040
    000273  aa  040 040 040 040
    000274  aa  040 040 040 040    161  	aci	"                                "
    000275  aa  040 040 040 040
    000276  aa  040 040 040 040
    000277  aa  040 040 040 040
    000300  aa  040 040 040 040
    000301  aa  040 040 040 040
    000302  aa  040 040 040 040
    000303  aa  040 040 040 040
    000304  aa  040 040 040 040    162  	aci	"                                "
    000305  aa  040 040 040 040
    000306  aa  040 040 040 040
    000307  aa  040 040 040 040
    000310  aa  040 040 040 040
    000311  aa  040 040 040 040
    000312  aa  040 040 040 040
    000313  aa  040 040 040 040
    000314  aa  040 040 040 040    163  	aci	"        "
    000315  aa  040 040 040 040
    000316  aa   000000 000002     164  	dec	   2				"     3 type,
    000317  aa   000000 000043     165  	dec	  35				"     3 search_proc_name,
    000320  aa  155 165 154 164    166  	aci	"multics_library_search_$source_dirs                                 "
    000321  aa  151 143 163 137
    000322  aa  154 151 142 162
    000323  aa  141 162 171 137
    000324  aa  163 145 141 162
    000325  aa  143 150 137 044
    000326  aa  163 157 165 162
    000327  aa  143 145 137 144
    000330  aa  151 162 163 040
    000331  aa  040 040 040 040
    000332  aa  040 040 040 040
    000333  aa  040 040 040 040
    000334  aa  040 040 040 040
    000335  aa  040 040 040 040
    000336  aa  040 040 040 040
    000337  aa  040 040 040 040
    000340  aa  040 040 040 040
    000341  aa   000000 0110 03    167  	even
    000342  aa   200000 000041     168  	itp	bp,search_procs+(1*2)-*
    000343  aa   026532 000000
    000344  aa   077777 000043     169  	its	-1,1				"     3 search_proc,
    000345  aa   000001 000000
                                   170  "
                                   171  "	Root:			(standard_library std sss online_libraries online on "").(object o "");
                                   172  	even					"          (2)
                                   173  						"     3 name,
    000346  a0   000000 007424     174  	vfd	18/0,18/.standard_library.object
                                   175  						"       4 O,
    000347  aa   000000 000017     176  	dec	  15				"     3 path,
    000350  aa  076 154 144 144    177  	aci	">ldd>sss>object                 "
    000351  aa  076 163 163 163
    000352  aa  076 157 142 152
    000353  aa  145 143 164 040
    000354  aa  040 040 040 040
    000355  aa  040 040 040 040
    000356  aa  040 040 040 040
    000357  aa  040 040 040 040
    000360  aa  040 040 040 040    178  	aci	"                                "
    000361  aa  040 040 040 040
    000362  aa  040 040 040 040
    000363  aa  040 040 040 040
    000364  aa  040 040 040 040
    000365  aa  040 040 040 040
    000366  aa  040 040 040 040
    000367  aa  040 040 040 040
    000370  aa  040 040 040 040    179  	aci	"                                "
    000371  aa  040 040 040 040
    000372  aa  040 040 040 040
    000373  aa  040 040 040 040
    000374  aa  040 040 040 040
    000375  aa  040 040 040 040
    000376  aa  040 040 040 040
    000377  aa  040 040 040 040
    000400  aa  040 040 040 040    180  	aci	"                                "
    000401  aa  040 040 040 040
    000402  aa  040 040 040 040
    000403  aa  040 040 040 040
    000404  aa  040 040 040 040
    000405  aa  040 040 040 040
    000406  aa  040 040 040 040
    000407  aa  040 040 040 040
    000410  aa  040 040 040 040    181  	aci	"                                "
    000411  aa  040 040 040 040
    000412  aa  040 040 040 040
    000413  aa  040 040 040 040
    000414  aa  040 040 040 040
    000415  aa  040 040 040 040
    000416  aa  040 040 040 040
    000417  aa  040 040 040 040
    000420  aa  040 040 040 040    182  	aci	"        "
    000421  aa  040 040 040 040
    000422  aa   000000 000002     183  	dec	   2				"     3 type,
    000423  aa   000000 000043     184  	dec	  35				"     3 search_proc_name,
    000424  aa  155 165 154 164    185  	aci	"multics_library_search_$object_dirs                                 "
    000425  aa  151 143 163 137
    000426  aa  154 151 142 162
    000427  aa  141 162 171 137
    000430  aa  163 145 141 162
    000431  aa  143 150 137 044
    000432  aa  157 142 152 145
    000433  aa  143 164 137 144
    000434  aa  151 162 163 040
    000435  aa  040 040 040 040
    000436  aa  040 040 040 040
    000437  aa  040 040 040 040
    000440  aa  040 040 040 040
    000441  aa  040 040 040 040
    000442  aa  040 040 040 040
    000443  aa  040 040 040 040
    000444  aa  040 040 040 040
    000445  aa   000000 0110 03    186  	even
    000446  aa   200000 000041     187  	itp	bp,search_procs+(2*2)-*
    000447  aa   026430 000000
    000450  aa   077777 000043     188  	its	-1,1				"     3 search_proc,
    000451  aa   000001 000000
                                   189  "
                                   190  "	Root:			(standard_library std sss online_libraries online on "").(listings);
                                   191  	even					"          (3)
                                   192  						"     3 name,
    000452  a0   000000 007666     193  	vfd	18/0,18/.standard_library.listings
                                   194  						"       4 O,
    000453  aa   000000 000021     195  	dec	  17				"     3 path,
    000454  aa  076 154 144 144    196  	aci	">ldd>listings>sss               "
    000455  aa  076 154 151 163
    000456  aa  164 151 156 147
    000457  aa  163 076 163 163
    000460  aa  163 040 040 040
    000461  aa  040 040 040 040
    000462  aa  040 040 040 040
    000463  aa  040 040 040 040
    000464  aa  040 040 040 040    197  	aci	"                                "
    000465  aa  040 040 040 040
    000466  aa  040 040 040 040
    000467  aa  040 040 040 040
    000470  aa  040 040 040 040
    000471  aa  040 040 040 040
    000472  aa  040 040 040 040
    000473  aa  040 040 040 040
    000474  aa  040 040 040 040    198  	aci	"                                "
    000475  aa  040 040 040 040
    000476  aa  040 040 040 040
    000477  aa  040 040 040 040
    000500  aa  040 040 040 040
    000501  aa  040 040 040 040
    000502  aa  040 040 040 040
    000503  aa  040 040 040 040
    000504  aa  040 040 040 040    199  	aci	"                                "
    000505  aa  040 040 040 040
    000506  aa  040 040 040 040
    000507  aa  040 040 040 040
    000510  aa  040 040 040 040
    000511  aa  040 040 040 040
    000512  aa  040 040 040 040
    000513  aa  040 040 040 040
    000514  aa  040 040 040 040    200  	aci	"                                "
    000515  aa  040 040 040 040
    000516  aa  040 040 040 040
    000517  aa  040 040 040 040
    000520  aa  040 040 040 040
    000521  aa  040 040 040 040
    000522  aa  040 040 040 040
    000523  aa  040 040 040 040
    000524  aa  040 040 040 040    201  	aci	"        "
    000525  aa  040 040 040 040
    000526  aa   000000 000002     202  	dec	   2				"     3 type,
    000527  aa   000000 000046     203  	dec	  38				"     3 search_proc_name,
    000530  aa  155 165 154 164    204  	aci	"multics_library_search_$list_info_dirs                              "
    000531  aa  151 143 163 137
    000532  aa  154 151 142 162
    000533  aa  141 162 171 137
    000534  aa  163 145 141 162
    000535  aa  143 150 137 044
    000536  aa  154 151 163 164
    000537  aa  137 151 156 146
    000540  aa  157 137 144 151
    000541  aa  162 163 040 040
    000542  aa  040 040 040 040
    000543  aa  040 040 040 040
    000544  aa  040 040 040 040
    000545  aa  040 040 040 040
    000546  aa  040 040 040 040
    000547  aa  040 040 040 040
    000550  aa  040 040 040 040
    000551  aa   000000 0110 03    205  	even
    000552  aa   200000 000041     206  	itp	bp,search_procs+(3*2)-*
    000553  aa   026326 000000
    000554  aa   077777 000043     207  	its	-1,1				"     3 search_proc,
    000555  aa   000001 000000
                                   208  "
                                   209  "	Root:			(standard_library std sss online_libraries online on ""
                                   210  "				 languages_library lang                                ).(execution x "");
                                   211  	even					"          (4)
                                   212  						"     3 name,
    000556  a0   000000 007760     213  	vfd	18/0,18/.standard_library.execution
                                   214  						"       4 O,
    000557  aa   000000 000004     215  	dec	   4				"     3 path,
    000560  aa  076 163 163 163    216  	aci	">sss                            "
    000561  aa  040 040 040 040
    000562  aa  040 040 040 040
    000563  aa  040 040 040 040
    000564  aa  040 040 040 040
    000565  aa  040 040 040 040
    000566  aa  040 040 040 040
    000567  aa  040 040 040 040
    000570  aa  040 040 040 040    217  	aci	"                                "
    000571  aa  040 040 040 040
    000572  aa  040 040 040 040
    000573  aa  040 040 040 040
    000574  aa  040 040 040 040
    000575  aa  040 040 040 040
    000576  aa  040 040 040 040
    000577  aa  040 040 040 040
    000600  aa  040 040 040 040    218  	aci	"                                "
    000601  aa  040 040 040 040
    000602  aa  040 040 040 040
    000603  aa  040 040 040 040
    000604  aa  040 040 040 040
    000605  aa  040 040 040 040
    000606  aa  040 040 040 040
    000607  aa  040 040 040 040
    000610  aa  040 040 040 040    219  	aci	"                                "
    000611  aa  040 040 040 040
    000612  aa  040 040 040 040
    000613  aa  040 040 040 040
    000614  aa  040 040 040 040
    000615  aa  040 040 040 040
    000616  aa  040 040 040 040
    000617  aa  040 040 040 040
    000620  aa  040 040 040 040    220  	aci	"                                "
    000621  aa  040 040 040 040
    000622  aa  040 040 040 040
    000623  aa  040 040 040 040
    000624  aa  040 040 040 040
    000625  aa  040 040 040 040
    000626  aa  040 040 040 040
    000627  aa  040 040 040 040
    000630  aa  040 040 040 040    221  	aci	"        "
    000631  aa  040 040 040 040
    000632  aa   000000 000002     222  	dec	   2				"     3 type,
    000633  aa   000000 000046     223  	dec	  38				"     3 search_proc_name,
    000634  aa  155 165 154 164    224  	aci	"multics_library_search_$execution_dirs                              "
    000635  aa  151 143 163 137
    000636  aa  154 151 142 162
    000637  aa  141 162 171 137
    000640  aa  163 145 141 162
    000641  aa  143 150 137 044
    000642  aa  145 170 145 143
    000643  aa  165 164 151 157
    000644  aa  156 137 144 151
    000645  aa  162 163 040 040
    000646  aa  040 040 040 040
    000647  aa  040 040 040 040
    000650  aa  040 040 040 040
    000651  aa  040 040 040 040
    000652  aa  040 040 040 040
    000653  aa  040 040 040 040
    000654  aa  040 040 040 040
    000655  aa   000000 0110 03    225  	even
    000656  aa   200000 000041     226  	itp	bp,search_procs+(4*2)-*
    000657  aa   026224 000000
    000660  aa   077777 000043     227  	its	-1,1				"     3 search_proc,
    000661  aa   000001 000000
                                   228  "
                                   229  "	Root:			(unbundled_library unb online_libraries online on "").(source s "");
                                   230  	even					"          (5)
                                   231  						"     3 name,
    000662  a0   000000 010302     232  	vfd	18/0,18/.unbundled_library.source
                                   233  						"       4 O,
    000663  aa   000000 000017     234  	dec	  15				"     3 path,
    000664  aa  076 154 144 144    235  	aci	">ldd>unb>source                 "
    000665  aa  076 165 156 142
    000666  aa  076 163 157 165
    000667  aa  162 143 145 040
    000670  aa  040 040 040 040
    000671  aa  040 040 040 040
    000672  aa  040 040 040 040
    000673  aa  040 040 040 040
    000674  aa  040 040 040 040    236  	aci	"                                "
    000675  aa  040 040 040 040
    000676  aa  040 040 040 040
    000677  aa  040 040 040 040
    000700  aa  040 040 040 040
    000701  aa  040 040 040 040
    000702  aa  040 040 040 040
    000703  aa  040 040 040 040
    000704  aa  040 040 040 040    237  	aci	"                                "
    000705  aa  040 040 040 040
    000706  aa  040 040 040 040
    000707  aa  040 040 040 040
    000710  aa  040 040 040 040
    000711  aa  040 040 040 040
    000712  aa  040 040 040 040
    000713  aa  040 040 040 040
    000714  aa  040 040 040 040    238  	aci	"                                "
    000715  aa  040 040 040 040
    000716  aa  040 040 040 040
    000717  aa  040 040 040 040
    000720  aa  040 040 040 040
    000721  aa  040 040 040 040
    000722  aa  040 040 040 040
    000723  aa  040 040 040 040
    000724  aa  040 040 040 040    239  	aci	"                                "
    000725  aa  040 040 040 040
    000726  aa  040 040 040 040
    000727  aa  040 040 040 040
    000730  aa  040 040 040 040
    000731  aa  040 040 040 040
    000732  aa  040 040 040 040
    000733  aa  040 040 040 040
    000734  aa  040 040 040 040    240  	aci	"        "
    000735  aa  040 040 040 040
    000736  aa   000000 000002     241  	dec	   2				"     3 type,
    000737  aa   000000 000043     242  	dec	  35				"     3 search_proc_name,
    000740  aa  155 165 154 164    243  	aci	"multics_library_search_$source_dirs                                 "
    000741  aa  151 143 163 137
    000742  aa  154 151 142 162
    000743  aa  141 162 171 137
    000744  aa  163 145 141 162
    000745  aa  143 150 137 044
    000746  aa  163 157 165 162
    000747  aa  143 145 137 144
    000750  aa  151 162 163 040
    000751  aa  040 040 040 040
    000752  aa  040 040 040 040
    000753  aa  040 040 040 040
    000754  aa  040 040 040 040
    000755  aa  040 040 040 040
    000756  aa  040 040 040 040
    000757  aa  040 040 040 040
    000760  aa  040 040 040 040
    000761  aa   000000 0110 03    244  	even
    000762  aa   200000 000041     245  	itp	bp,search_procs+(1*2)-*
    000763  aa   026112 000000
    000764  aa   077777 000043     246  	its	-1,1				"     3 search_proc,
    000765  aa   000001 000000
                                   247  "
                                   248  "	Root:			(unbundled_library unb online_libraries online on "").(object o "");
                                   249  	even					"          (6)
                                   250  						"     3 name,
    000766  a0   000000 010514     251  	vfd	18/0,18/.unbundled_library.object
                                   252  						"       4 O,
    000767  aa   000000 000017     253  	dec	  15				"     3 path,
    000770  aa  076 154 144 144    254  	aci	">ldd>unb>object                 "
    000771  aa  076 165 156 142
    000772  aa  076 157 142 152
    000773  aa  145 143 164 040
    000774  aa  040 040 040 040
    000775  aa  040 040 040 040
    000776  aa  040 040 040 040
    000777  aa  040 040 040 040
    001000  aa  040 040 040 040    255  	aci	"                                "
    001001  aa  040 040 040 040
    001002  aa  040 040 040 040
    001003  aa  040 040 040 040
    001004  aa  040 040 040 040
    001005  aa  040 040 040 040
    001006  aa  040 040 040 040
    001007  aa  040 040 040 040
    001010  aa  040 040 040 040    256  	aci	"                                "
    001011  aa  040 040 040 040
    001012  aa  040 040 040 040
    001013  aa  040 040 040 040
    001014  aa  040 040 040 040
    001015  aa  040 040 040 040
    001016  aa  040 040 040 040
    001017  aa  040 040 040 040
    001020  aa  040 040 040 040    257  	aci	"                                "
    001021  aa  040 040 040 040
    001022  aa  040 040 040 040
    001023  aa  040 040 040 040
    001024  aa  040 040 040 040
    001025  aa  040 040 040 040
    001026  aa  040 040 040 040
    001027  aa  040 040 040 040
    001030  aa  040 040 040 040    258  	aci	"                                "
    001031  aa  040 040 040 040
    001032  aa  040 040 040 040
    001033  aa  040 040 040 040
    001034  aa  040 040 040 040
    001035  aa  040 040 040 040
    001036  aa  040 040 040 040
    001037  aa  040 040 040 040
    001040  aa  040 040 040 040    259  	aci	"        "
    001041  aa  040 040 040 040
    001042  aa   000000 000002     260  	dec	   2				"     3 type,
    001043  aa   000000 000043     261  	dec	  35				"     3 search_proc_name,
    001044  aa  155 165 154 164    262  	aci	"multics_library_search_$object_dirs                                 "
    001045  aa  151 143 163 137
    001046  aa  154 151 142 162
    001047  aa  141 162 171 137
    001050  aa  163 145 141 162
    001051  aa  143 150 137 044
    001052  aa  157 142 152 145
    001053  aa  143 164 137 144
    001054  aa  151 162 163 040
    001055  aa  040 040 040 040
    001056  aa  040 040 040 040
    001057  aa  040 040 040 040
    001060  aa  040 040 040 040
    001061  aa  040 040 040 040
    001062  aa  040 040 040 040
    001063  aa  040 040 040 040
    001064  aa  040 040 040 040
    001065  aa   000000 0110 03    263  	even
    001066  aa   200000 000041     264  	itp	bp,search_procs+(2*2)-*
    001067  aa   026010 000000
    001070  aa   077777 000043     265  	its	-1,1				"     3 search_proc,
    001071  aa   000001 000000
                                   266  "
                                   267  "	Root:			(unbundled_library unb online_libraries online on "").(listings);
                                   268  	even					"          (7)
                                   269  						"     3 name,
    001072  a0   000000 010726     270  	vfd	18/0,18/.unbundled_library.listings
                                   271  						"       4 O,
    001073  aa   000000 000031     272  	dec	  25				"     3 path,
    001074  aa  076 154 144 144    273  	aci	">ldd>listings>unbundled_1       "
    001075  aa  076 154 151 163
    001076  aa  164 151 156 147
    001077  aa  163 076 165 156
    001100  aa  142 165 156 144
    001101  aa  154 145 144 137
    001102  aa  061 040 040 040
    001103  aa  040 040 040 040
    001104  aa  040 040 040 040    274  	aci	"                                "
    001105  aa  040 040 040 040
    001106  aa  040 040 040 040
    001107  aa  040 040 040 040
    001110  aa  040 040 040 040
    001111  aa  040 040 040 040
    001112  aa  040 040 040 040
    001113  aa  040 040 040 040
    001114  aa  040 040 040 040    275  	aci	"                                "
    001115  aa  040 040 040 040
    001116  aa  040 040 040 040
    001117  aa  040 040 040 040
    001120  aa  040 040 040 040
    001121  aa  040 040 040 040
    001122  aa  040 040 040 040
    001123  aa  040 040 040 040
    001124  aa  040 040 040 040    276  	aci	"                                "
    001125  aa  040 040 040 040
    001126  aa  040 040 040 040
    001127  aa  040 040 040 040
    001130  aa  040 040 040 040
    001131  aa  040 040 040 040
    001132  aa  040 040 040 040
    001133  aa  040 040 040 040
    001134  aa  040 040 040 040    277  	aci	"                                "
    001135  aa  040 040 040 040
    001136  aa  040 040 040 040
    001137  aa  040 040 040 040
    001140  aa  040 040 040 040
    001141  aa  040 040 040 040
    001142  aa  040 040 040 040
    001143  aa  040 040 040 040
    001144  aa  040 040 040 040    278  	aci	"        "
    001145  aa  040 040 040 040
    001146  aa   000000 000002     279  	dec	   2				"     3 type,
    001147  aa   000000 000046     280  	dec	  38				"     3 search_proc_name,
    001150  aa  155 165 154 164    281  	aci	"multics_library_search_$list_info_dirs                              "
    001151  aa  151 143 163 137
    001152  aa  154 151 142 162
    001153  aa  141 162 171 137
    001154  aa  163 145 141 162
    001155  aa  143 150 137 044
    001156  aa  154 151 163 164
    001157  aa  137 151 156 146
    001160  aa  157 137 144 151
    001161  aa  162 163 040 040
    001162  aa  040 040 040 040
    001163  aa  040 040 040 040
    001164  aa  040 040 040 040
    001165  aa  040 040 040 040
    001166  aa  040 040 040 040
    001167  aa  040 040 040 040
    001170  aa  040 040 040 040
    001171  aa   000000 0110 03    282  	even
    001172  aa   200000 000041     283  	itp	bp,search_procs+(3*2)-*
    001173  aa   025706 000000
    001174  aa   077777 000043     284  	its	-1,1				"     3 search_proc,
    001175  aa   000001 000000
                                   285  "
                                   286  "	Root:			(unbundled_library unb online_libraries online on "").(listings);
                                   287  	even					"          (8)
                                   288  						"     3 name,
    001176  a0   000000 011010     289  	vfd	18/0,18/.unb.listings
                                   290  						"       4 O,
    001177  aa   000000 000031     291  	dec	  25				"     3 path,
    001200  aa  076 154 144 144    292  	aci	">ldd>listings>unbundled_2       "
    001201  aa  076 154 151 163
    001202  aa  164 151 156 147
    001203  aa  163 076 165 156
    001204  aa  142 165 156 144
    001205  aa  154 145 144 137
    001206  aa  062 040 040 040
    001207  aa  040 040 040 040
    001210  aa  040 040 040 040    293  	aci	"                                "
    001211  aa  040 040 040 040
    001212  aa  040 040 040 040
    001213  aa  040 040 040 040
    001214  aa  040 040 040 040
    001215  aa  040 040 040 040
    001216  aa  040 040 040 040
    001217  aa  040 040 040 040
    001220  aa  040 040 040 040    294  	aci	"                                "
    001221  aa  040 040 040 040
    001222  aa  040 040 040 040
    001223  aa  040 040 040 040
    001224  aa  040 040 040 040
    001225  aa  040 040 040 040
    001226  aa  040 040 040 040
    001227  aa  040 040 040 040
    001230  aa  040 040 040 040    295  	aci	"                                "
    001231  aa  040 040 040 040
    001232  aa  040 040 040 040
    001233  aa  040 040 040 040
    001234  aa  040 040 040 040
    001235  aa  040 040 040 040
    001236  aa  040 040 040 040
    001237  aa  040 040 040 040
    001240  aa  040 040 040 040    296  	aci	"                                "
    001241  aa  040 040 040 040
    001242  aa  040 040 040 040
    001243  aa  040 040 040 040
    001244  aa  040 040 040 040
    001245  aa  040 040 040 040
    001246  aa  040 040 040 040
    001247  aa  040 040 040 040
    001250  aa  040 040 040 040    297  	aci	"        "
    001251  aa  040 040 040 040
    001252  aa   000000 000002     298  	dec	   2				"     3 type,
    001253  aa   000000 000046     299  	dec	  38				"     3 search_proc_name,
    001254  aa  155 165 154 164    300  	aci	"multics_library_search_$list_info_dirs                              "
    001255  aa  151 143 163 137
    001256  aa  154 151 142 162
    001257  aa  141 162 171 137
    001260  aa  163 145 141 162
    001261  aa  143 150 137 044
    001262  aa  154 151 163 164
    001263  aa  137 151 156 146
    001264  aa  157 137 144 151
    001265  aa  162 163 040 040
    001266  aa  040 040 040 040
    001267  aa  040 040 040 040
    001270  aa  040 040 040 040
    001271  aa  040 040 040 040
    001272  aa  040 040 040 040
    001273  aa  040 040 040 040
    001274  aa  040 040 040 040
    001275  aa   000000 0110 03    301  	even
    001276  aa   200000 000041     302  	itp	bp,search_procs+(3*2)-*
    001277  aa   025602 000000
    001300  aa   077777 000043     303  	its	-1,1				"     3 search_proc,
    001301  aa   000001 000000
                                   304  "
                                   305  "	Root:			(unbundled_library unb online_libraries online on "").(execution x "");
                                   306  	even					"          (9)
                                   307  						"     3 name,
    001302  a0   000000 011072     308  	vfd	18/0,18/.unbundled_library.execution
                                   309  						"       4 O,
    001303  aa   000000 000004     310  	dec	   4				"     3 path,
    001304  aa  076 165 156 142    311  	aci	">unb                            "
    001305  aa  040 040 040 040
    001306  aa  040 040 040 040
    001307  aa  040 040 040 040
    001310  aa  040 040 040 040
    001311  aa  040 040 040 040
    001312  aa  040 040 040 040
    001313  aa  040 040 040 040
    001314  aa  040 040 040 040    312  	aci	"                                "
    001315  aa  040 040 040 040
    001316  aa  040 040 040 040
    001317  aa  040 040 040 040
    001320  aa  040 040 040 040
    001321  aa  040 040 040 040
    001322  aa  040 040 040 040
    001323  aa  040 040 040 040
    001324  aa  040 040 040 040    313  	aci	"                                "
    001325  aa  040 040 040 040
    001326  aa  040 040 040 040
    001327  aa  040 040 040 040
    001330  aa  040 040 040 040
    001331  aa  040 040 040 040
    001332  aa  040 040 040 040
    001333  aa  040 040 040 040
    001334  aa  040 040 040 040    314  	aci	"                                "
    001335  aa  040 040 040 040
    001336  aa  040 040 040 040
    001337  aa  040 040 040 040
    001340  aa  040 040 040 040
    001341  aa  040 040 040 040
    001342  aa  040 040 040 040
    001343  aa  040 040 040 040
    001344  aa  040 040 040 040    315  	aci	"                                "
    001345  aa  040 040 040 040
    001346  aa  040 040 040 040
    001347  aa  040 040 040 040
    001350  aa  040 040 040 040
    001351  aa  040 040 040 040
    001352  aa  040 040 040 040
    001353  aa  040 040 040 040
    001354  aa  040 040 040 040    316  	aci	"        "
    001355  aa  040 040 040 040
    001356  aa   000000 000002     317  	dec	   2				"     3 type,
    001357  aa   000000 000046     318  	dec	  38				"     3 search_proc_name,
    001360  aa  155 165 154 164    319  	aci	"multics_library_search_$execution_dirs                              "
    001361  aa  151 143 163 137
    001362  aa  154 151 142 162
    001363  aa  141 162 171 137
    001364  aa  163 145 141 162
    001365  aa  143 150 137 044
    001366  aa  145 170 145 143
    001367  aa  165 164 151 157
    001370  aa  156 137 144 151
    001371  aa  162 163 040 040
    001372  aa  040 040 040 040
    001373  aa  040 040 040 040
    001374  aa  040 040 040 040
    001375  aa  040 040 040 040
    001376  aa  040 040 040 040
    001377  aa  040 040 040 040
    001400  aa  040 040 040 040
    001401  aa   000000 0110 03    320  	even
    001402  aa   200000 000041     321  	itp	bp,search_procs+(4*2)-*
    001403  aa   025500 000000
    001404  aa   077777 000043     322  	its	-1,1				"     3 search_proc,
    001405  aa   000001 000000
                                   323  "
                                   324  "	Root:			(tools_library tools t online_libraries online on "").(source s "");
                                   325  	even					"          (10)
                                   326  						"     3 name,
    001406  a0   000000 011304     327  	vfd	18/0,18/.tools_library.source
                                   328  						"       4 O,
    001407  aa   000000 000021     329  	dec	  17				"     3 path,
    001410  aa  076 154 144 144    330  	aci	">ldd>tools>source               "
    001411  aa  076 164 157 157
    001412  aa  154 163 076 163
    001413  aa  157 165 162 143
    001414  aa  145 040 040 040
    001415  aa  040 040 040 040
    001416  aa  040 040 040 040
    001417  aa  040 040 040 040
    001420  aa  040 040 040 040    331  	aci	"                                "
    001421  aa  040 040 040 040
    001422  aa  040 040 040 040
    001423  aa  040 040 040 040
    001424  aa  040 040 040 040
    001425  aa  040 040 040 040
    001426  aa  040 040 040 040
    001427  aa  040 040 040 040
    001430  aa  040 040 040 040    332  	aci	"                                "
    001431  aa  040 040 040 040
    001432  aa  040 040 040 040
    001433  aa  040 040 040 040
    001434  aa  040 040 040 040
    001435  aa  040 040 040 040
    001436  aa  040 040 040 040
    001437  aa  040 040 040 040
    001440  aa  040 040 040 040    333  	aci	"                                "
    001441  aa  040 040 040 040
    001442  aa  040 040 040 040
    001443  aa  040 040 040 040
    001444  aa  040 040 040 040
    001445  aa  040 040 040 040
    001446  aa  040 040 040 040
    001447  aa  040 040 040 040
    001450  aa  040 040 040 040    334  	aci	"                                "
    001451  aa  040 040 040 040
    001452  aa  040 040 040 040
    001453  aa  040 040 040 040
    001454  aa  040 040 040 040
    001455  aa  040 040 040 040
    001456  aa  040 040 040 040
    001457  aa  040 040 040 040
    001460  aa  040 040 040 040    335  	aci	"        "
    001461  aa  040 040 040 040
    001462  aa   000000 000002     336  	dec	   2				"     3 type,
    001463  aa   000000 000043     337  	dec	  35				"     3 search_proc_name,
    001464  aa  155 165 154 164    338  	aci	"multics_library_search_$source_dirs                                 "
    001465  aa  151 143 163 137
    001466  aa  154 151 142 162
    001467  aa  141 162 171 137
    001470  aa  163 145 141 162
    001471  aa  143 150 137 044
    001472  aa  163 157 165 162
    001473  aa  143 145 137 144
    001474  aa  151 162 163 040
    001475  aa  040 040 040 040
    001476  aa  040 040 040 040
    001477  aa  040 040 040 040
    001500  aa  040 040 040 040
    001501  aa  040 040 040 040
    001502  aa  040 040 040 040
    001503  aa  040 040 040 040
    001504  aa  040 040 040 040
    001505  aa   000000 0110 03    339  	even
    001506  aa   200000 000041     340  	itp	bp,search_procs+(1*2)-*
    001507  aa   025366 000000
    001510  aa   077777 000043     341  	its	-1,1				"     3 search_proc,
    001511  aa   000001 000000
                                   342  "
                                   343  "	Root:			(tools_library tools t online_libraries online on "").(object o "");
                                   344  	even					"          (11)
                                   345  						"     3 name,
    001512  a0   000000 011546     346  	vfd	18/0,18/.tools_library.object
                                   347  						"       4 O,
    001513  aa   000000 000021     348  	dec	  17				"     3 path,
    001514  aa  076 154 144 144    349  	aci	">ldd>tools>object               "
    001515  aa  076 164 157 157
    001516  aa  154 163 076 157
    001517  aa  142 152 145 143
    001520  aa  164 040 040 040
    001521  aa  040 040 040 040
    001522  aa  040 040 040 040
    001523  aa  040 040 040 040
    001524  aa  040 040 040 040    350  	aci	"                                "
    001525  aa  040 040 040 040
    001526  aa  040 040 040 040
    001527  aa  040 040 040 040
    001530  aa  040 040 040 040
    001531  aa  040 040 040 040
    001532  aa  040 040 040 040
    001533  aa  040 040 040 040
    001534  aa  040 040 040 040    351  	aci	"                                "
    001535  aa  040 040 040 040
    001536  aa  040 040 040 040
    001537  aa  040 040 040 040
    001540  aa  040 040 040 040
    001541  aa  040 040 040 040
    001542  aa  040 040 040 040
    001543  aa  040 040 040 040
    001544  aa  040 040 040 040    352  	aci	"                                "
    001545  aa  040 040 040 040
    001546  aa  040 040 040 040
    001547  aa  040 040 040 040
    001550  aa  040 040 040 040
    001551  aa  040 040 040 040
    001552  aa  040 040 040 040
    001553  aa  040 040 040 040
    001554  aa  040 040 040 040    353  	aci	"                                "
    001555  aa  040 040 040 040
    001556  aa  040 040 040 040
    001557  aa  040 040 040 040
    001560  aa  040 040 040 040
    001561  aa  040 040 040 040
    001562  aa  040 040 040 040
    001563  aa  040 040 040 040
    001564  aa  040 040 040 040    354  	aci	"        "
    001565  aa  040 040 040 040
    001566  aa   000000 000002     355  	dec	   2				"     3 type,
    001567  aa   000000 000043     356  	dec	  35				"     3 search_proc_name,
    001570  aa  155 165 154 164    357  	aci	"multics_library_search_$object_dirs                                 "
    001571  aa  151 143 163 137
    001572  aa  154 151 142 162
    001573  aa  141 162 171 137
    001574  aa  163 145 141 162
    001575  aa  143 150 137 044
    001576  aa  157 142 152 145
    001577  aa  143 164 137 144
    001600  aa  151 162 163 040
    001601  aa  040 040 040 040
    001602  aa  040 040 040 040
    001603  aa  040 040 040 040
    001604  aa  040 040 040 040
    001605  aa  040 040 040 040
    001606  aa  040 040 040 040
    001607  aa  040 040 040 040
    001610  aa  040 040 040 040
    001611  aa   000000 0110 03    358  	even
    001612  aa   200000 000041     359  	itp	bp,search_procs+(2*2)-*
    001613  aa   025264 000000
    001614  aa   077777 000043     360  	its	-1,1				"     3 search_proc,
    001615  aa   000001 000000
                                   361  "
                                   362  "	Root:			(tools_library tools t online_libraries online on "").(listings);
                                   363  	even					"          (12)
                                   364  						"     3 name,
    001616  a0   000000 012010     365  	vfd	18/0,18/.tools_library.listings
                                   366  						"       4 O,
    001617  aa   000000 000023     367  	dec	  19				"     3 path,
    001620  aa  076 154 144 144    368  	aci	">ldd>listings>tools             "
    001621  aa  076 154 151 163
    001622  aa  164 151 156 147
    001623  aa  163 076 164 157
    001624  aa  157 154 163 040
    001625  aa  040 040 040 040
    001626  aa  040 040 040 040
    001627  aa  040 040 040 040
    001630  aa  040 040 040 040    369  	aci	"                                "
    001631  aa  040 040 040 040
    001632  aa  040 040 040 040
    001633  aa  040 040 040 040
    001634  aa  040 040 040 040
    001635  aa  040 040 040 040
    001636  aa  040 040 040 040
    001637  aa  040 040 040 040
    001640  aa  040 040 040 040    370  	aci	"                                "
    001641  aa  040 040 040 040
    001642  aa  040 040 040 040
    001643  aa  040 040 040 040
    001644  aa  040 040 040 040
    001645  aa  040 040 040 040
    001646  aa  040 040 040 040
    001647  aa  040 040 040 040
    001650  aa  040 040 040 040    371  	aci	"                                "
    001651  aa  040 040 040 040
    001652  aa  040 040 040 040
    001653  aa  040 040 040 040
    001654  aa  040 040 040 040
    001655  aa  040 040 040 040
    001656  aa  040 040 040 040
    001657  aa  040 040 040 040
    001660  aa  040 040 040 040    372  	aci	"                                "
    001661  aa  040 040 040 040
    001662  aa  040 040 040 040
    001663  aa  040 040 040 040
    001664  aa  040 040 040 040
    001665  aa  040 040 040 040
    001666  aa  040 040 040 040
    001667  aa  040 040 040 040
    001670  aa  040 040 040 040    373  	aci	"        "
    001671  aa  040 040 040 040
    001672  aa   000000 000002     374  	dec	   2				"     3 type,
    001673  aa   000000 000046     375  	dec	  38				"     3 search_proc_name,
    001674  aa  155 165 154 164    376  	aci	"multics_library_search_$list_info_dirs                              "
    001675  aa  151 143 163 137
    001676  aa  154 151 142 162
    001677  aa  141 162 171 137
    001700  aa  163 145 141 162
    001701  aa  143 150 137 044
    001702  aa  154 151 163 164
    001703  aa  137 151 156 146
    001704  aa  157 137 144 151
    001705  aa  162 163 040 040
    001706  aa  040 040 040 040
    001707  aa  040 040 040 040
    001710  aa  040 040 040 040
    001711  aa  040 040 040 040
    001712  aa  040 040 040 040
    001713  aa  040 040 040 040
    001714  aa  040 040 040 040
    001715  aa   000000 0110 03    377  	even
    001716  aa   200000 000041     378  	itp	bp,search_procs+(3*2)-*
    001717  aa   025162 000000
    001720  aa   077777 000043     379  	its	-1,1				"     3 search_proc,
    001721  aa   000001 000000
                                   380  "
                                   381  "	Root:			(tools_library tools t online_libraries online on "").(execution x "");
                                   382  	even					"          (13)
                                   383  						"     3 name,
    001722  a0   000000 012102     384  	vfd	18/0,18/.tools_library.execution
                                   385  						"       4 O,
    001723  aa   000000 000006     386  	dec	   6				"     3 path,
    001724  aa  076 164 157 157    387  	aci	">tools                          "
    001725  aa  154 163 040 040
    001726  aa  040 040 040 040
    001727  aa  040 040 040 040
    001730  aa  040 040 040 040
    001731  aa  040 040 040 040
    001732  aa  040 040 040 040
    001733  aa  040 040 040 040
    001734  aa  040 040 040 040    388  	aci	"                                "
    001735  aa  040 040 040 040
    001736  aa  040 040 040 040
    001737  aa  040 040 040 040
    001740  aa  040 040 040 040
    001741  aa  040 040 040 040
    001742  aa  040 040 040 040
    001743  aa  040 040 040 040
    001744  aa  040 040 040 040    389  	aci	"                                "
    001745  aa  040 040 040 040
    001746  aa  040 040 040 040
    001747  aa  040 040 040 040
    001750  aa  040 040 040 040
    001751  aa  040 040 040 040
    001752  aa  040 040 040 040
    001753  aa  040 040 040 040
    001754  aa  040 040 040 040    390  	aci	"                                "
    001755  aa  040 040 040 040
    001756  aa  040 040 040 040
    001757  aa  040 040 040 040
    001760  aa  040 040 040 040
    001761  aa  040 040 040 040
    001762  aa  040 040 040 040
    001763  aa  040 040 040 040
    001764  aa  040 040 040 040    391  	aci	"                                "
    001765  aa  040 040 040 040
    001766  aa  040 040 040 040
    001767  aa  040 040 040 040
    001770  aa  040 040 040 040
    001771  aa  040 040 040 040
    001772  aa  040 040 040 040
    001773  aa  040 040 040 040
    001774  aa  040 040 040 040    392  	aci	"        "
    001775  aa  040 040 040 040
    001776  aa   000000 000002     393  	dec	   2				"     3 type,
    001777  aa   000000 000046     394  	dec	  38				"     3 search_proc_name,
    002000  aa  155 165 154 164    395  	aci	"multics_library_search_$execution_dirs                              "
    002001  aa  151 143 163 137
    002002  aa  154 151 142 162
    002003  aa  141 162 171 137
    002004  aa  163 145 141 162
    002005  aa  143 150 137 044
    002006  aa  145 170 145 143
    002007  aa  165 164 151 157
    002010  aa  156 137 144 151
    002011  aa  162 163 040 040
    002012  aa  040 040 040 040
    002013  aa  040 040 040 040
    002014  aa  040 040 040 040
    002015  aa  040 040 040 040
    002016  aa  040 040 040 040
    002017  aa  040 040 040 040
    002020  aa  040 040 040 040
    002021  aa   000000 0110 03    396  	even
    002022  aa   200000 000041     397  	itp	bp,search_procs+(4*2)-*
    002023  aa   025060 000000
    002024  aa   077777 000043     398  	its	-1,1				"     3 search_proc,
    002025  aa   000001 000000
                                   399  "
                                   400  "	Root:			(supervisor_library sup hardcore hard h
                                   401  "				 offline_libraries offline off ""      ).(source s "");
                                   402  	even					"          (14)
                                   403  						"     3 name,
    002026  a0   000000 012344     404  	vfd	18/0,18/.supervisor_library.source
                                   405  						"       4 O,
    002027  aa   000000 000020     406  	dec	  16				"     3 path,
    002030  aa  076 154 144 144    407  	aci	">ldd>hard>source                "
    002031  aa  076 150 141 162
    002032  aa  144 076 163 157
    002033  aa  165 162 143 145
    002034  aa  040 040 040 040
    002035  aa  040 040 040 040
    002036  aa  040 040 040 040
    002037  aa  040 040 040 040
    002040  aa  040 040 040 040    408  	aci	"                                "
    002041  aa  040 040 040 040
    002042  aa  040 040 040 040
    002043  aa  040 040 040 040
    002044  aa  040 040 040 040
    002045  aa  040 040 040 040
    002046  aa  040 040 040 040
    002047  aa  040 040 040 040
    002050  aa  040 040 040 040    409  	aci	"                                "
    002051  aa  040 040 040 040
    002052  aa  040 040 040 040
    002053  aa  040 040 040 040
    002054  aa  040 040 040 040
    002055  aa  040 040 040 040
    002056  aa  040 040 040 040
    002057  aa  040 040 040 040
    002060  aa  040 040 040 040    410  	aci	"                                "
    002061  aa  040 040 040 040
    002062  aa  040 040 040 040
    002063  aa  040 040 040 040
    002064  aa  040 040 040 040
    002065  aa  040 040 040 040
    002066  aa  040 040 040 040
    002067  aa  040 040 040 040
    002070  aa  040 040 040 040    411  	aci	"                                "
    002071  aa  040 040 040 040
    002072  aa  040 040 040 040
    002073  aa  040 040 040 040
    002074  aa  040 040 040 040
    002075  aa  040 040 040 040
    002076  aa  040 040 040 040
    002077  aa  040 040 040 040
    002100  aa  040 040 040 040    412  	aci	"        "
    002101  aa  040 040 040 040
    002102  aa   000000 000002     413  	dec	   2				"     3 type,
    002103  aa   000000 000043     414  	dec	  35				"     3 search_proc_name,
    002104  aa  155 165 154 164    415  	aci	"multics_library_search_$source_dirs                                 "
    002105  aa  151 143 163 137
    002106  aa  154 151 142 162
    002107  aa  141 162 171 137
    002110  aa  163 145 141 162
    002111  aa  143 150 137 044
    002112  aa  163 157 165 162
    002113  aa  143 145 137 144
    002114  aa  151 162 163 040
    002115  aa  040 040 040 040
    002116  aa  040 040 040 040
    002117  aa  040 040 040 040
    002120  aa  040 040 040 040
    002121  aa  040 040 040 040
    002122  aa  040 040 040 040
    002123  aa  040 040 040 040
    002124  aa  040 040 040 040
    002125  aa   000000 0110 03    416  	even
    002126  aa   200000 000041     417  	itp	bp,search_procs+(1*2)-*
    002127  aa   024746 000000
    002130  aa   077777 000043     418  	its	-1,1				"     3 search_proc,
    002131  aa   000001 000000
                                   419  "
                                   420  "	Root:			(supervisor_library sup hardcore hard h
                                   421  "				 offline_libraries offline off ""      ).(execution ex x e "");
                                   422  	even					"          (15)
                                   423  						"     3 name,
    002132  a0   000000 012666     424  	vfd	18/0,18/.supervisor_library.execution
                                   425  						"       4 O,
    002133  aa   000000 000023     426  	dec	  19				"     3 path,
    002134  aa  076 154 144 144    427  	aci	">ldd>hard>execution             "
    002135  aa  076 150 141 162
    002136  aa  144 076 145 170
    002137  aa  145 143 165 164
    002140  aa  151 157 156 040
    002141  aa  040 040 040 040
    002142  aa  040 040 040 040
    002143  aa  040 040 040 040
    002144  aa  040 040 040 040    428  	aci	"                                "
    002145  aa  040 040 040 040
    002146  aa  040 040 040 040
    002147  aa  040 040 040 040
    002150  aa  040 040 040 040
    002151  aa  040 040 040 040
    002152  aa  040 040 040 040
    002153  aa  040 040 040 040
    002154  aa  040 040 040 040    429  	aci	"                                "
    002155  aa  040 040 040 040
    002156  aa  040 040 040 040
    002157  aa  040 040 040 040
    002160  aa  040 040 040 040
    002161  aa  040 040 040 040
    002162  aa  040 040 040 040
    002163  aa  040 040 040 040
    002164  aa  040 040 040 040    430  	aci	"                                "
    002165  aa  040 040 040 040
    002166  aa  040 040 040 040
    002167  aa  040 040 040 040
    002170  aa  040 040 040 040
    002171  aa  040 040 040 040
    002172  aa  040 040 040 040
    002173  aa  040 040 040 040
    002174  aa  040 040 040 040    431  	aci	"                                "
    002175  aa  040 040 040 040
    002176  aa  040 040 040 040
    002177  aa  040 040 040 040
    002200  aa  040 040 040 040
    002201  aa  040 040 040 040
    002202  aa  040 040 040 040
    002203  aa  040 040 040 040
    002204  aa  040 040 040 040    432  	aci	"        "
    002205  aa  040 040 040 040
    002206  aa   000000 000002     433  	dec	   2				"     3 type,
    002207  aa   000000 000046     434  	dec	  38				"     3 search_proc_name,
    002210  aa  155 165 154 164    435  	aci	"multics_library_search_$execution_dirs                              "
    002211  aa  151 143 163 137
    002212  aa  154 151 142 162
    002213  aa  141 162 171 137
    002214  aa  163 145 141 162
    002215  aa  143 150 137 044
    002216  aa  145 170 145 143
    002217  aa  165 164 151 157
    002220  aa  156 137 144 151
    002221  aa  162 163 040 040
    002222  aa  040 040 040 040
    002223  aa  040 040 040 040
    002224  aa  040 040 040 040
    002225  aa  040 040 040 040
    002226  aa  040 040 040 040
    002227  aa  040 040 040 040
    002230  aa  040 040 040 040
    002231  aa   000000 0110 03    436  	even
    002232  aa   200000 000041     437  	itp	bp,search_procs+(4*2)-*
    002233  aa   024650 000000
    002234  aa   077777 000043     438  	its	-1,1				"     3 search_proc,
    002235  aa   000001 000000
                                   439  "
                                   440  "	Root:			(supervisor_library sup hardcore hard h
                                   441  "				 offline_libraries offline off ""      ).(object o "");
                                   442  	even					"          (16)
                                   443  						"     3 name,
    002236  a0   000000 013430     444  	vfd	18/0,18/.supervisor_library.object
                                   445  						"       4 O,
    002237  aa   000000 000020     446  	dec	  16				"     3 path,
    002240  aa  076 154 144 144    447  	aci	">ldd>hard>object                "
    002241  aa  076 150 141 162
    002242  aa  144 076 157 142
    002243  aa  152 145 143 164
    002244  aa  040 040 040 040
    002245  aa  040 040 040 040
    002246  aa  040 040 040 040
    002247  aa  040 040 040 040
    002250  aa  040 040 040 040    448  	aci	"                                "
    002251  aa  040 040 040 040
    002252  aa  040 040 040 040
    002253  aa  040 040 040 040
    002254  aa  040 040 040 040
    002255  aa  040 040 040 040
    002256  aa  040 040 040 040
    002257  aa  040 040 040 040
    002260  aa  040 040 040 040    449  	aci	"                                "
    002261  aa  040 040 040 040
    002262  aa  040 040 040 040
    002263  aa  040 040 040 040
    002264  aa  040 040 040 040
    002265  aa  040 040 040 040
    002266  aa  040 040 040 040
    002267  aa  040 040 040 040
    002270  aa  040 040 040 040    450  	aci	"                                "
    002271  aa  040 040 040 040
    002272  aa  040 040 040 040
    002273  aa  040 040 040 040
    002274  aa  040 040 040 040
    002275  aa  040 040 040 040
    002276  aa  040 040 040 040
    002277  aa  040 040 040 040
    002300  aa  040 040 040 040    451  	aci	"                                "
    002301  aa  040 040 040 040
    002302  aa  040 040 040 040
    002303  aa  040 040 040 040
    002304  aa  040 040 040 040
    002305  aa  040 040 040 040
    002306  aa  040 040 040 040
    002307  aa  040 040 040 040
    002310  aa  040 040 040 040    452  	aci	"        "
    002311  aa  040 040 040 040
    002312  aa   000000 000002     453  	dec	   2				"     3 type,
    002313  aa   000000 000043     454  	dec	  35				"     3 search_proc_name,
    002314  aa  155 165 154 164    455  	aci	"multics_library_search_$object_dirs                                 "
    002315  aa  151 143 163 137
    002316  aa  154 151 142 162
    002317  aa  141 162 171 137
    002320  aa  163 145 141 162
    002321  aa  143 150 137 044
    002322  aa  157 142 152 145
    002323  aa  143 164 137 144
    002324  aa  151 162 163 040
    002325  aa  040 040 040 040
    002326  aa  040 040 040 040
    002327  aa  040 040 040 040
    002330  aa  040 040 040 040
    002331  aa  040 040 040 040
    002332  aa  040 040 040 040
    002333  aa  040 040 040 040
    002334  aa  040 040 040 040
    002335  aa   000000 0110 03    456  	even
    002336  aa   200000 000041     457  	itp	bp,search_procs+(2*2)-*
    002337  aa   024540 000000
    002340  aa   077777 000043     458  	its	-1,1				"     3 search_proc,
    002341  aa   000001 000000
                                   459  "
                                   460  "	Root:			(supervisor_library sup hardcore hard h
                                   461  "				 offline_libraries offline off ""      ).(listings);
                                   462  	even					"          (17)
                                   463  						"     3 name,
    002342  a0   000000 013752     464  	vfd	18/0,18/.supervisor_library.listings
                                   465  						"       4 O,
    002343  aa   000000 000022     466  	dec	  18				"     3 path,
    002344  aa  076 154 144 144    467  	aci	">ldd>listings>hard              "
    002345  aa  076 154 151 163
    002346  aa  164 151 156 147
    002347  aa  163 076 150 141
    002350  aa  162 144 040 040
    002351  aa  040 040 040 040
    002352  aa  040 040 040 040
    002353  aa  040 040 040 040
    002354  aa  040 040 040 040    468  	aci	"                                "
    002355  aa  040 040 040 040
    002356  aa  040 040 040 040
    002357  aa  040 040 040 040
    002360  aa  040 040 040 040
    002361  aa  040 040 040 040
    002362  aa  040 040 040 040
    002363  aa  040 040 040 040
    002364  aa  040 040 040 040    469  	aci	"                                "
    002365  aa  040 040 040 040
    002366  aa  040 040 040 040
    002367  aa  040 040 040 040
    002370  aa  040 040 040 040
    002371  aa  040 040 040 040
    002372  aa  040 040 040 040
    002373  aa  040 040 040 040
    002374  aa  040 040 040 040    470  	aci	"                                "
    002375  aa  040 040 040 040
    002376  aa  040 040 040 040
    002377  aa  040 040 040 040
    002400  aa  040 040 040 040
    002401  aa  040 040 040 040
    002402  aa  040 040 040 040
    002403  aa  040 040 040 040
    002404  aa  040 040 040 040    471  	aci	"                                "
    002405  aa  040 040 040 040
    002406  aa  040 040 040 040
    002407  aa  040 040 040 040
    002410  aa  040 040 040 040
    002411  aa  040 040 040 040
    002412  aa  040 040 040 040
    002413  aa  040 040 040 040
    002414  aa  040 040 040 040    472  	aci	"        "
    002415  aa  040 040 040 040
    002416  aa   000000 000002     473  	dec	   2				"     3 type,
    002417  aa   000000 000046     474  	dec	  38				"     3 search_proc_name,
    002420  aa  155 165 154 164    475  	aci	"multics_library_search_$list_info_dirs                              "
    002421  aa  151 143 163 137
    002422  aa  154 151 142 162
    002423  aa  141 162 171 137
    002424  aa  163 145 141 162
    002425  aa  143 150 137 044
    002426  aa  154 151 163 164
    002427  aa  137 151 156 146
    002430  aa  157 137 144 151
    002431  aa  162 163 040 040
    002432  aa  040 040 040 040
    002433  aa  040 040 040 040
    002434  aa  040 040 040 040
    002435  aa  040 040 040 040
    002436  aa  040 040 040 040
    002437  aa  040 040 040 040
    002440  aa  040 040 040 040
    002441  aa   000000 0110 03    476  	even
    002442  aa   200000 000041     477  	itp	bp,search_procs+(3*2)-*
    002443  aa   024436 000000
    002444  aa   077777 000043     478  	its	-1,1				"     3 search_proc,
    002445  aa   000001 000000
                                   479  "
                                   480  "	Root:			(supervisor_library sup hardcore hard h
                                   481  "				 offline_libraries offline off ""      ).(i "");
                                   482  	even					"          (18)
                                   483  						"     3 name,
    002446  a0   000000 014064     484  	vfd	18/0,18/.supervisor_library.i
                                   485  						"       4 O,
    002447  aa   000000 000016     486  	dec	  14				"     3 path,
    002450  aa  076 154 144 144    487  	aci	">ldd>hard>info                  "
    002451  aa  076 150 141 162
    002452  aa  144 076 151 156
    002453  aa  146 157 040 040
    002454  aa  040 040 040 040
    002455  aa  040 040 040 040
    002456  aa  040 040 040 040
    002457  aa  040 040 040 040
    002460  aa  040 040 040 040    488  	aci	"                                "
    002461  aa  040 040 040 040
    002462  aa  040 040 040 040
    002463  aa  040 040 040 040
    002464  aa  040 040 040 040
    002465  aa  040 040 040 040
    002466  aa  040 040 040 040
    002467  aa  040 040 040 040
    002470  aa  040 040 040 040    489  	aci	"                                "
    002471  aa  040 040 040 040
    002472  aa  040 040 040 040
    002473  aa  040 040 040 040
    002474  aa  040 040 040 040
    002475  aa  040 040 040 040
    002476  aa  040 040 040 040
    002477  aa  040 040 040 040
    002500  aa  040 040 040 040    490  	aci	"                                "
    002501  aa  040 040 040 040
    002502  aa  040 040 040 040
    002503  aa  040 040 040 040
    002504  aa  040 040 040 040
    002505  aa  040 040 040 040
    002506  aa  040 040 040 040
    002507  aa  040 040 040 040
    002510  aa  040 040 040 040    491  	aci	"                                "
    002511  aa  040 040 040 040
    002512  aa  040 040 040 040
    002513  aa  040 040 040 040
    002514  aa  040 040 040 040
    002515  aa  040 040 040 040
    002516  aa  040 040 040 040
    002517  aa  040 040 040 040
    002520  aa  040 040 040 040    492  	aci	"        "
    002521  aa  040 040 040 040
    002522  aa   000000 000002     493  	dec	   2				"     3 type,
    002523  aa   000000 000046     494  	dec	  38				"     3 search_proc_name,
    002524  aa  155 165 154 164    495  	aci	"multics_library_search_$list_info_dirs                              "
    002525  aa  151 143 163 137
    002526  aa  154 151 142 162
    002527  aa  141 162 171 137
    002530  aa  163 145 141 162
    002531  aa  143 150 137 044
    002532  aa  154 151 163 164
    002533  aa  137 151 156 146
    002534  aa  157 137 144 151
    002535  aa  162 163 040 040
    002536  aa  040 040 040 040
    002537  aa  040 040 040 040
    002540  aa  040 040 040 040
    002541  aa  040 040 040 040
    002542  aa  040 040 040 040
    002543  aa  040 040 040 040
    002544  aa  040 040 040 040
    002545  aa   000000 0110 03    496  	even
    002546  aa   200000 000041     497  	itp	bp,search_procs+(3*2)-*
    002547  aa   024332 000000
    002550  aa   077777 000043     498  	its	-1,1				"     3 search_proc,
    002551  aa   000001 000000
                                   499  "
                                   500  "	Root:			(mcs communications_library com comm offline_libraries offline off "").(source s "");
                                   501  	even					"          (19)
                                   502  						"     3 name,
    002552  a0   000000 014276     503  	vfd	18/0,18/.mcs.source
                                   504  						"       4 O,
    002553  aa   000000 000017     505  	dec	  15				"     3 path,
    002554  aa  076 154 144 144    506  	aci	">ldd>mcs>source                 "
    002555  aa  076 155 143 163
    002556  aa  076 163 157 165
    002557  aa  162 143 145 040
    002560  aa  040 040 040 040
    002561  aa  040 040 040 040
    002562  aa  040 040 040 040
    002563  aa  040 040 040 040
    002564  aa  040 040 040 040    507  	aci	"                                "
    002565  aa  040 040 040 040
    002566  aa  040 040 040 040
    002567  aa  040 040 040 040
    002570  aa  040 040 040 040
    002571  aa  040 040 040 040
    002572  aa  040 040 040 040
    002573  aa  040 040 040 040
    002574  aa  040 040 040 040    508  	aci	"                                "
    002575  aa  040 040 040 040
    002576  aa  040 040 040 040
    002577  aa  040 040 040 040
    002600  aa  040 040 040 040
    002601  aa  040 040 040 040
    002602  aa  040 040 040 040
    002603  aa  040 040 040 040
    002604  aa  040 040 040 040    509  	aci	"                                "
    002605  aa  040 040 040 040
    002606  aa  040 040 040 040
    002607  aa  040 040 040 040
    002610  aa  040 040 040 040
    002611  aa  040 040 040 040
    002612  aa  040 040 040 040
    002613  aa  040 040 040 040
    002614  aa  040 040 040 040    510  	aci	"                                "
    002615  aa  040 040 040 040
    002616  aa  040 040 040 040
    002617  aa  040 040 040 040
    002620  aa  040 040 040 040
    002621  aa  040 040 040 040
    002622  aa  040 040 040 040
    002623  aa  040 040 040 040
    002624  aa  040 040 040 040    511  	aci	"        "
    002625  aa  040 040 040 040
    002626  aa   000000 000002     512  	dec	   2				"     3 type,
    002627  aa   000000 000043     513  	dec	  35				"     3 search_proc_name,
    002630  aa  155 165 154 164    514  	aci	"multics_library_search_$source_dirs                                 "
    002631  aa  151 143 163 137
    002632  aa  154 151 142 162
    002633  aa  141 162 171 137
    002634  aa  163 145 141 162
    002635  aa  143 150 137 044
    002636  aa  163 157 165 162
    002637  aa  143 145 137 144
    002640  aa  151 162 163 040
    002641  aa  040 040 040 040
    002642  aa  040 040 040 040
    002643  aa  040 040 040 040
    002644  aa  040 040 040 040
    002645  aa  040 040 040 040
    002646  aa  040 040 040 040
    002647  aa  040 040 040 040
    002650  aa  040 040 040 040
    002651  aa   000000 0110 03    515  	even
    002652  aa   200000 000041     516  	itp	bp,search_procs+(1*2)-*
    002653  aa   024222 000000
    002654  aa   077777 000043     517  	its	-1,1				"     3 search_proc,
    002655  aa   000001 000000
                                   518  "
                                   519  "	Root:			(mcs communications_library com comm offline_libraries offline off "").(object o "");
                                   520  	even					"          (20)
                                   521  						"     3 name,
    002656  a0   000000 014570     522  	vfd	18/0,18/.mcs.object
                                   523  						"       4 O,
    002657  aa   000000 000017     524  	dec	  15				"     3 path,
    002660  aa  076 154 144 144    525  	aci	">ldd>mcs>object                 "
    002661  aa  076 155 143 163
    002662  aa  076 157 142 152
    002663  aa  145 143 164 040
    002664  aa  040 040 040 040
    002665  aa  040 040 040 040
    002666  aa  040 040 040 040
    002667  aa  040 040 040 040
    002670  aa  040 040 040 040    526  	aci	"                                "
    002671  aa  040 040 040 040
    002672  aa  040 040 040 040
    002673  aa  040 040 040 040
    002674  aa  040 040 040 040
    002675  aa  040 040 040 040
    002676  aa  040 040 040 040
    002677  aa  040 040 040 040
    002700  aa  040 040 040 040    527  	aci	"                                "
    002701  aa  040 040 040 040
    002702  aa  040 040 040 040
    002703  aa  040 040 040 040
    002704  aa  040 040 040 040
    002705  aa  040 040 040 040
    002706  aa  040 040 040 040
    002707  aa  040 040 040 040
    002710  aa  040 040 040 040    528  	aci	"                                "
    002711  aa  040 040 040 040
    002712  aa  040 040 040 040
    002713  aa  040 040 040 040
    002714  aa  040 040 040 040
    002715  aa  040 040 040 040
    002716  aa  040 040 040 040
    002717  aa  040 040 040 040
    002720  aa  040 040 040 040    529  	aci	"                                "
    002721  aa  040 040 040 040
    002722  aa  040 040 040 040
    002723  aa  040 040 040 040
    002724  aa  040 040 040 040
    002725  aa  040 040 040 040
    002726  aa  040 040 040 040
    002727  aa  040 040 040 040
    002730  aa  040 040 040 040    530  	aci	"        "
    002731  aa  040 040 040 040
    002732  aa   000000 000002     531  	dec	   2				"     3 type,
    002733  aa   000000 000043     532  	dec	  35				"     3 search_proc_name,
    002734  aa  155 165 154 164    533  	aci	"multics_library_search_$object_dirs                                 "
    002735  aa  151 143 163 137
    002736  aa  154 151 142 162
    002737  aa  141 162 171 137
    002740  aa  163 145 141 162
    002741  aa  143 150 137 044
    002742  aa  157 142 152 145
    002743  aa  143 164 137 144
    002744  aa  151 162 163 040
    002745  aa  040 040 040 040
    002746  aa  040 040 040 040
    002747  aa  040 040 040 040
    002750  aa  040 040 040 040
    002751  aa  040 040 040 040
    002752  aa  040 040 040 040
    002753  aa  040 040 040 040
    002754  aa  040 040 040 040
    002755  aa   000000 0110 03    534  	even
    002756  aa   200000 000041     535  	itp	bp,search_procs+(2*2)-*
    002757  aa   024120 000000
    002760  aa   077777 000043     536  	its	-1,1				"     3 search_proc,
    002761  aa   000001 000000
                                   537  "
                                   538  "	Root:			(mcs communications_library com comm offline_libraries offline off "").(i "");
                                   539  	even					"          (21)
                                   540  						"     3 name,
    002762  a0   000000 015062     541  	vfd	18/0,18/.mcs.i
                                   542  						"       4 O,
    002763  aa   000000 000015     543  	dec	  13				"     3 path,
    002764  aa  076 154 144 144    544  	aci	">ldd>mcs>info                   "
    002765  aa  076 155 143 163
    002766  aa  076 151 156 146
    002767  aa  157 040 040 040
    002770  aa  040 040 040 040
    002771  aa  040 040 040 040
    002772  aa  040 040 040 040
    002773  aa  040 040 040 040
    002774  aa  040 040 040 040    545  	aci	"                                "
    002775  aa  040 040 040 040
    002776  aa  040 040 040 040
    002777  aa  040 040 040 040
    003000  aa  040 040 040 040
    003001  aa  040 040 040 040
    003002  aa  040 040 040 040
    003003  aa  040 040 040 040
    003004  aa  040 040 040 040    546  	aci	"                                "
    003005  aa  040 040 040 040
    003006  aa  040 040 040 040
    003007  aa  040 040 040 040
    003010  aa  040 040 040 040
    003011  aa  040 040 040 040
    003012  aa  040 040 040 040
    003013  aa  040 040 040 040
    003014  aa  040 040 040 040    547  	aci	"                                "
    003015  aa  040 040 040 040
    003016  aa  040 040 040 040
    003017  aa  040 040 040 040
    003020  aa  040 040 040 040
    003021  aa  040 040 040 040
    003022  aa  040 040 040 040
    003023  aa  040 040 040 040
    003024  aa  040 040 040 040    548  	aci	"                                "
    003025  aa  040 040 040 040
    003026  aa  040 040 040 040
    003027  aa  040 040 040 040
    003030  aa  040 040 040 040
    003031  aa  040 040 040 040
    003032  aa  040 040 040 040
    003033  aa  040 040 040 040
    003034  aa  040 040 040 040    549  	aci	"        "
    003035  aa  040 040 040 040
    003036  aa   000000 000002     550  	dec	   2				"     3 type,
    003037  aa   000000 000043     551  	dec	  35				"     3 search_proc_name,
    003040  aa  155 165 154 164    552  	aci	"multics_library_search_$source_dirs                                 "
    003041  aa  151 143 163 137
    003042  aa  154 151 142 162
    003043  aa  141 162 171 137
    003044  aa  163 145 141 162
    003045  aa  143 150 137 044
    003046  aa  163 157 165 162
    003047  aa  143 145 137 144
    003050  aa  151 162 163 040
    003051  aa  040 040 040 040
    003052  aa  040 040 040 040
    003053  aa  040 040 040 040
    003054  aa  040 040 040 040
    003055  aa  040 040 040 040
    003056  aa  040 040 040 040
    003057  aa  040 040 040 040
    003060  aa  040 040 040 040
    003061  aa   000000 0110 03    553  	even
    003062  aa   200000 000041     554  	itp	bp,search_procs+(1*2)-*
    003063  aa   024012 000000
    003064  aa   077777 000043     555  	its	-1,1				"     3 search_proc,
    003065  aa   000001 000000
                                   556  "
                                   557  "	Root:			(mcs communications_library com comm offline_libraries offline off "").(listings);
                                   558  	even					"          (22)
                                   559  						"     3 name,
    003066  a0   000000 015254     560  	vfd	18/0,18/.mcs.listings
                                   561  						"       4 O,
    003067  aa   000000 000022     562  	dec	  18				"     3 path,
    003070  aa  076 154 144 144    563  	aci	">ldd>listings>comm              "
    003071  aa  076 154 151 163
    003072  aa  164 151 156 147
    003073  aa  163 076 143 157
    003074  aa  155 155 040 040
    003075  aa  040 040 040 040
    003076  aa  040 040 040 040
    003077  aa  040 040 040 040
    003100  aa  040 040 040 040    564  	aci	"                                "
    003101  aa  040 040 040 040
    003102  aa  040 040 040 040
    003103  aa  040 040 040 040
    003104  aa  040 040 040 040
    003105  aa  040 040 040 040
    003106  aa  040 040 040 040
    003107  aa  040 040 040 040
    003110  aa  040 040 040 040    565  	aci	"                                "
    003111  aa  040 040 040 040
    003112  aa  040 040 040 040
    003113  aa  040 040 040 040
    003114  aa  040 040 040 040
    003115  aa  040 040 040 040
    003116  aa  040 040 040 040
    003117  aa  040 040 040 040
    003120  aa  040 040 040 040    566  	aci	"                                "
    003121  aa  040 040 040 040
    003122  aa  040 040 040 040
    003123  aa  040 040 040 040
    003124  aa  040 040 040 040
    003125  aa  040 040 040 040
    003126  aa  040 040 040 040
    003127  aa  040 040 040 040
    003130  aa  040 040 040 040    567  	aci	"                                "
    003131  aa  040 040 040 040
    003132  aa  040 040 040 040
    003133  aa  040 040 040 040
    003134  aa  040 040 040 040
    003135  aa  040 040 040 040
    003136  aa  040 040 040 040
    003137  aa  040 040 040 040
    003140  aa  040 040 040 040    568  	aci	"        "
    003141  aa  040 040 040 040
    003142  aa   000000 000002     569  	dec	   2				"     3 type,
    003143  aa   000000 000046     570  	dec	  38				"     3 search_proc_name,
    003144  aa  155 165 154 164    571  	aci	"multics_library_search_$list_info_dirs                              "
    003145  aa  151 143 163 137
    003146  aa  154 151 142 162
    003147  aa  141 162 171 137
    003150  aa  163 145 141 162
    003151  aa  143 150 137 044
    003152  aa  154 151 163 164
    003153  aa  137 151 156 146
    003154  aa  157 137 144 151
    003155  aa  162 163 040 040
    003156  aa  040 040 040 040
    003157  aa  040 040 040 040
    003160  aa  040 040 040 040
    003161  aa  040 040 040 040
    003162  aa  040 040 040 040
    003163  aa  040 040 040 040
    003164  aa  040 040 040 040
    003165  aa   000000 0110 03    572  	even
    003166  aa   200000 000041     573  	itp	bp,search_procs+(3*2)-*
    003167  aa   023712 000000
    003170  aa   077777 000043     574  	its	-1,1				"     3 search_proc,
    003171  aa   000001 000000
                                   575  "
                                   576  "	Root:			(obsolete_library obs online_libraries online on "").(source s "");
                                   577  	even					"          (23)
                                   578  						"     3 name,
    003172  a0   000000 015356     579  	vfd	18/0,18/.obsolete_library.source
                                   580  						"       4 O,
    003173  aa   000000 000017     581  	dec	  15				"     3 path,
    003174  aa  076 154 144 144    582  	aci	">ldd>obs>source                 "
    003175  aa  076 157 142 163
    003176  aa  076 163 157 165
    003177  aa  162 143 145 040
    003200  aa  040 040 040 040
    003201  aa  040 040 040 040
    003202  aa  040 040 040 040
    003203  aa  040 040 040 040
    003204  aa  040 040 040 040    583  	aci	"                                "
    003205  aa  040 040 040 040
    003206  aa  040 040 040 040
    003207  aa  040 040 040 040
    003210  aa  040 040 040 040
    003211  aa  040 040 040 040
    003212  aa  040 040 040 040
    003213  aa  040 040 040 040
    003214  aa  040 040 040 040    584  	aci	"                                "
    003215  aa  040 040 040 040
    003216  aa  040 040 040 040
    003217  aa  040 040 040 040
    003220  aa  040 040 040 040
    003221  aa  040 040 040 040
    003222  aa  040 040 040 040
    003223  aa  040 040 040 040
    003224  aa  040 040 040 040    585  	aci	"                                "
    003225  aa  040 040 040 040
    003226  aa  040 040 040 040
    003227  aa  040 040 040 040
    003230  aa  040 040 040 040
    003231  aa  040 040 040 040
    003232  aa  040 040 040 040
    003233  aa  040 040 040 040
    003234  aa  040 040 040 040    586  	aci	"                                "
    003235  aa  040 040 040 040
    003236  aa  040 040 040 040
    003237  aa  040 040 040 040
    003240  aa  040 040 040 040
    003241  aa  040 040 040 040
    003242  aa  040 040 040 040
    003243  aa  040 040 040 040
    003244  aa  040 040 040 040    587  	aci	"        "
    003245  aa  040 040 040 040
    003246  aa   000000 000002     588  	dec	   2				"     3 type,
    003247  aa   000000 000043     589  	dec	  35				"     3 search_proc_name,
    003250  aa  155 165 154 164    590  	aci	"multics_library_search_$source_dirs                                 "
    003251  aa  151 143 163 137
    003252  aa  154 151 142 162
    003253  aa  141 162 171 137
    003254  aa  163 145 141 162
    003255  aa  143 150 137 044
    003256  aa  163 157 165 162
    003257  aa  143 145 137 144
    003260  aa  151 162 163 040
    003261  aa  040 040 040 040
    003262  aa  040 040 040 040
    003263  aa  040 040 040 040
    003264  aa  040 040 040 040
    003265  aa  040 040 040 040
    003266  aa  040 040 040 040
    003267  aa  040 040 040 040
    003270  aa  040 040 040 040
    003271  aa   000000 0110 03    591  	even
    003272  aa   200000 000041     592  	itp	bp,search_procs+(1*2)-*
    003273  aa   023602 000000
    003274  aa   077777 000043     593  	its	-1,1				"     3 search_proc,
    003275  aa   000001 000000
                                   594  "
                                   595  "	Root:			(obsolete_library obs online_libraries online on "").(object o "");
                                   596  	even					"          (24)
                                   597  						"     3 name,
    003276  a0   000000 015570     598  	vfd	18/0,18/.obsolete_library.object
                                   599  						"       4 O,
    003277  aa   000000 000017     600  	dec	  15				"     3 path,
    003300  aa  076 154 144 144    601  	aci	">ldd>obs>object                 "
    003301  aa  076 157 142 163
    003302  aa  076 157 142 152
    003303  aa  145 143 164 040
    003304  aa  040 040 040 040
    003305  aa  040 040 040 040
    003306  aa  040 040 040 040
    003307  aa  040 040 040 040
    003310  aa  040 040 040 040    602  	aci	"                                "
    003311  aa  040 040 040 040
    003312  aa  040 040 040 040
    003313  aa  040 040 040 040
    003314  aa  040 040 040 040
    003315  aa  040 040 040 040
    003316  aa  040 040 040 040
    003317  aa  040 040 040 040
    003320  aa  040 040 040 040    603  	aci	"                                "
    003321  aa  040 040 040 040
    003322  aa  040 040 040 040
    003323  aa  040 040 040 040
    003324  aa  040 040 040 040
    003325  aa  040 040 040 040
    003326  aa  040 040 040 040
    003327  aa  040 040 040 040
    003330  aa  040 040 040 040    604  	aci	"                                "
    003331  aa  040 040 040 040
    003332  aa  040 040 040 040
    003333  aa  040 040 040 040
    003334  aa  040 040 040 040
    003335  aa  040 040 040 040
    003336  aa  040 040 040 040
    003337  aa  040 040 040 040
    003340  aa  040 040 040 040    605  	aci	"                                "
    003341  aa  040 040 040 040
    003342  aa  040 040 040 040
    003343  aa  040 040 040 040
    003344  aa  040 040 040 040
    003345  aa  040 040 040 040
    003346  aa  040 040 040 040
    003347  aa  040 040 040 040
    003350  aa  040 040 040 040    606  	aci	"        "
    003351  aa  040 040 040 040
    003352  aa   000000 000002     607  	dec	   2				"     3 type,
    003353  aa   000000 000043     608  	dec	  35				"     3 search_proc_name,
    003354  aa  155 165 154 164    609  	aci	"multics_library_search_$object_dirs                                 "
    003355  aa  151 143 163 137
    003356  aa  154 151 142 162
    003357  aa  141 162 171 137
    003360  aa  163 145 141 162
    003361  aa  143 150 137 044
    003362  aa  157 142 152 145
    003363  aa  143 164 137 144
    003364  aa  151 162 163 040
    003365  aa  040 040 040 040
    003366  aa  040 040 040 040
    003367  aa  040 040 040 040
    003370  aa  040 040 040 040
    003371  aa  040 040 040 040
    003372  aa  040 040 040 040
    003373  aa  040 040 040 040
    003374  aa  040 040 040 040
    003375  aa   000000 0110 03    610  	even
    003376  aa   200000 000041     611  	itp	bp,search_procs+(2*2)-*
    003377  aa   023500 000000
    003400  aa   077777 000043     612  	its	-1,1				"     3 search_proc,
    003401  aa   000001 000000
                                   613  "
                                   614  "	Root:			(obsolete_library obs online_libraries online on "").(execution x "");
                                   615  	even					"          (25)
                                   616  						"     3 name,
    003402  a0   000000 016002     617  	vfd	18/0,18/.obsolete_library.execution
                                   618  						"       4 O,
    003403  aa   000000 000004     619  	dec	   4				"     3 path,
    003404  aa  076 157 142 163    620  	aci	">obs                            "
    003405  aa  040 040 040 040
    003406  aa  040 040 040 040
    003407  aa  040 040 040 040
    003410  aa  040 040 040 040
    003411  aa  040 040 040 040
    003412  aa  040 040 040 040
    003413  aa  040 040 040 040
    003414  aa  040 040 040 040    621  	aci	"                                "
    003415  aa  040 040 040 040
    003416  aa  040 040 040 040
    003417  aa  040 040 040 040
    003420  aa  040 040 040 040
    003421  aa  040 040 040 040
    003422  aa  040 040 040 040
    003423  aa  040 040 040 040
    003424  aa  040 040 040 040    622  	aci	"                                "
    003425  aa  040 040 040 040
    003426  aa  040 040 040 040
    003427  aa  040 040 040 040
    003430  aa  040 040 040 040
    003431  aa  040 040 040 040
    003432  aa  040 040 040 040
    003433  aa  040 040 040 040
    003434  aa  040 040 040 040    623  	aci	"                                "
    003435  aa  040 040 040 040
    003436  aa  040 040 040 040
    003437  aa  040 040 040 040
    003440  aa  040 040 040 040
    003441  aa  040 040 040 040
    003442  aa  040 040 040 040
    003443  aa  040 040 040 040
    003444  aa  040 040 040 040    624  	aci	"                                "
    003445  aa  040 040 040 040
    003446  aa  040 040 040 040
    003447  aa  040 040 040 040
    003450  aa  040 040 040 040
    003451  aa  040 040 040 040
    003452  aa  040 040 040 040
    003453  aa  040 040 040 040
    003454  aa  040 040 040 040    625  	aci	"        "
    003455  aa  040 040 040 040
    003456  aa   000000 000002     626  	dec	   2				"     3 type,
    003457  aa   000000 000046     627  	dec	  38				"     3 search_proc_name,
    003460  aa  155 165 154 164    628  	aci	"multics_library_search_$execution_dirs                              "
    003461  aa  151 143 163 137
    003462  aa  154 151 142 162
    003463  aa  141 162 171 137
    003464  aa  163 145 141 162
    003465  aa  143 150 137 044
    003466  aa  145 170 145 143
    003467  aa  165 164 151 157
    003470  aa  156 137 144 151
    003471  aa  162 163 040 040
    003472  aa  040 040 040 040
    003473  aa  040 040 040 040
    003474  aa  040 040 040 040
    003475  aa  040 040 040 040
    003476  aa  040 040 040 040
    003477  aa  040 040 040 040
    003500  aa  040 040 040 040
    003501  aa   000000 0110 03    629  	even
    003502  aa   200000 000041     630  	itp	bp,search_procs+(4*2)-*
    003503  aa   023400 000000
    003504  aa   077777 000043     631  	its	-1,1				"     3 search_proc,
    003505  aa   000001 000000
                                   632  "
                                   633  "	Root:			(standard_library std sss
                                   634  "				 languages_library lang
                                   635  "				 tools_library tools t
                                   636  "				 supervisor_library sup hardcore hard h
                                   637  "				 unbundled_library unb
                                   638  "				 obsolete_library obs
                                   639  "				 offline_libraries offline off
                                   640  "				 online_libraries online on ""              ).(include incl "");
                                   641  	even					"          (26)
                                   642  						"     3 name,
    003506  a0   000000 016214     643  	vfd	18/0,18/.standard_library.include
                                   644  						"       4 O,
    003507  aa   000000 000014     645  	dec	  12				"     3 path,
    003510  aa  076 154 144 144    646  	aci	">ldd>include                    "
    003511  aa  076 151 156 143
    003512  aa  154 165 144 145
    003513  aa  040 040 040 040
    003514  aa  040 040 040 040
    003515  aa  040 040 040 040
    003516  aa  040 040 040 040
    003517  aa  040 040 040 040
    003520  aa  040 040 040 040    647  	aci	"                                "
    003521  aa  040 040 040 040
    003522  aa  040 040 040 040
    003523  aa  040 040 040 040
    003524  aa  040 040 040 040
    003525  aa  040 040 040 040
    003526  aa  040 040 040 040
    003527  aa  040 040 040 040
    003530  aa  040 040 040 040    648  	aci	"                                "
    003531  aa  040 040 040 040
    003532  aa  040 040 040 040
    003533  aa  040 040 040 040
    003534  aa  040 040 040 040
    003535  aa  040 040 040 040
    003536  aa  040 040 040 040
    003537  aa  040 040 040 040
    003540  aa  040 040 040 040    649  	aci	"                                "
    003541  aa  040 040 040 040
    003542  aa  040 040 040 040
    003543  aa  040 040 040 040
    003544  aa  040 040 040 040
    003545  aa  040 040 040 040
    003546  aa  040 040 040 040
    003547  aa  040 040 040 040
    003550  aa  040 040 040 040    650  	aci	"                                "
    003551  aa  040 040 040 040
    003552  aa  040 040 040 040
    003553  aa  040 040 040 040
    003554  aa  040 040 040 040
    003555  aa  040 040 040 040
    003556  aa  040 040 040 040
    003557  aa  040 040 040 040
    003560  aa  040 040 040 040    651  	aci	"        "
    003561  aa  040 040 040 040
    003562  aa   000000 000002     652  	dec	   2				"     3 type,
    003563  aa   000000 000046     653  	dec	  38				"     3 search_proc_name,
    003564  aa  155 165 154 164    654  	aci	"multics_library_search_$list_info_dirs                              "
    003565  aa  151 143 163 137
    003566  aa  154 151 142 162
    003567  aa  141 162 171 137
    003570  aa  163 145 141 162
    003571  aa  143 150 137 044
    003572  aa  154 151 163 164
    003573  aa  137 151 156 146
    003574  aa  157 137 144 151
    003575  aa  162 163 040 040
    003576  aa  040 040 040 040
    003577  aa  040 040 040 040
    003600  aa  040 040 040 040
    003601  aa  040 040 040 040
    003602  aa  040 040 040 040
    003603  aa  040 040 040 040
    003604  aa  040 040 040 040
    003605  aa   000000 0110 03    655  	even
    003606  aa   200000 000041     656  	itp	bp,search_procs+(3*2)-*
    003607  aa   023272 000000
    003610  aa   077777 000043     657  	its	-1,1				"     3 search_proc,
    003611  aa   000001 000000
                                   658  "
                                   659  "	Root:			(standard_library std sss
                                   660  "				 languages_library lang
                                   661  "				 unbundled_library unb
                                   662  "				 tools_library tools t
                                   663  "				 supervisor_library sup hardcore hard h
                                   664  "				 offline_libraries offline off
                                   665  "				 online_libraries online on "").(info "");
                                   666  	even					"          (27)
                                   667  						"     3 name,
    003612  a0   000000 017306     668  	vfd	18/0,18/.standard_library.info
                                   669  						"       4 O,
    003613  aa   000000 000011     670  	dec	   9				"     3 path,
    003614  aa  076 144 157 143    671  	aci	">doc>info                       "
    003615  aa  076 151 156 146
    003616  aa  157 040 040 040
    003617  aa  040 040 040 040
    003620  aa  040 040 040 040
    003621  aa  040 040 040 040
    003622  aa  040 040 040 040
    003623  aa  040 040 040 040
    003624  aa  040 040 040 040    672  	aci	"                                "
    003625  aa  040 040 040 040
    003626  aa  040 040 040 040
    003627  aa  040 040 040 040
    003630  aa  040 040 040 040
    003631  aa  040 040 040 040
    003632  aa  040 040 040 040
    003633  aa  040 040 040 040
    003634  aa  040 040 040 040    673  	aci	"                                "
    003635  aa  040 040 040 040
    003636  aa  040 040 040 040
    003637  aa  040 040 040 040
    003640  aa  040 040 040 040
    003641  aa  040 040 040 040
    003642  aa  040 040 040 040
    003643  aa  040 040 040 040
    003644  aa  040 040 040 040    674  	aci	"                                "
    003645  aa  040 040 040 040
    003646  aa  040 040 040 040
    003647  aa  040 040 040 040
    003650  aa  040 040 040 040
    003651  aa  040 040 040 040
    003652  aa  040 040 040 040
    003653  aa  040 040 040 040
    003654  aa  040 040 040 040    675  	aci	"                                "
    003655  aa  040 040 040 040
    003656  aa  040 040 040 040
    003657  aa  040 040 040 040
    003660  aa  040 040 040 040
    003661  aa  040 040 040 040
    003662  aa  040 040 040 040
    003663  aa  040 040 040 040
    003664  aa  040 040 040 040    676  	aci	"        "
    003665  aa  040 040 040 040
    003666  aa   000000 000002     677  	dec	   2				"     3 type,
    003667  aa   000000 000046     678  	dec	  38				"     3 search_proc_name,
    003670  aa  155 165 154 164    679  	aci	"multics_library_search_$list_info_dirs                              "
    003671  aa  151 143 163 137
    003672  aa  154 151 142 162
    003673  aa  141 162 171 137
    003674  aa  163 145 141 162
    003675  aa  143 150 137 044
    003676  aa  154 151 163 164
    003677  aa  137 151 156 146
    003700  aa  157 137 144 151
    003701  aa  162 163 040 040
    003702  aa  040 040 040 040
    003703  aa  040 040 040 040
    003704  aa  040 040 040 040
    003705  aa  040 040 040 040
    003706  aa  040 040 040 040
    003707  aa  040 040 040 040
    003710  aa  040 040 040 040
    003711  aa   000000 0110 03    680  	even
    003712  aa   200000 000041     681  	itp	bp,search_procs+(3*2)-*
    003713  aa   023166 000000
    003714  aa   077777 000043     682  	its	-1,1				"     3 search_proc,
    003715  aa   000001 000000
                                   683  "
                                   684  "	Root:			(privileged priv
                                   685  "				 tools_library tools t
                                   686  "				 supervisor_library sup hardcore hard h
                                   687  "				 offline_libraries offline off
                                   688  "				 online_libraries online on "").(info "");
                                   689  	even					"          (28)
                                   690  						"     3 name,
    003716  a0   000000 020040     691  	vfd	18/0,18/.privileged.info
                                   692  						"       4 O,
    003717  aa   000000 000017     693  	dec	  15				"     3 path,
    003720  aa  076 144 157 143    694  	aci	">doc>privileged                 "
    003721  aa  076 160 162 151
    003722  aa  166 151 154 145
    003723  aa  147 145 144 040
    003724  aa  040 040 040 040
    003725  aa  040 040 040 040
    003726  aa  040 040 040 040
    003727  aa  040 040 040 040
    003730  aa  040 040 040 040    695  	aci	"                                "
    003731  aa  040 040 040 040
    003732  aa  040 040 040 040
    003733  aa  040 040 040 040
    003734  aa  040 040 040 040
    003735  aa  040 040 040 040
    003736  aa  040 040 040 040
    003737  aa  040 040 040 040
    003740  aa  040 040 040 040    696  	aci	"                                "
    003741  aa  040 040 040 040
    003742  aa  040 040 040 040
    003743  aa  040 040 040 040
    003744  aa  040 040 040 040
    003745  aa  040 040 040 040
    003746  aa  040 040 040 040
    003747  aa  040 040 040 040
    003750  aa  040 040 040 040    697  	aci	"                                "
    003751  aa  040 040 040 040
    003752  aa  040 040 040 040
    003753  aa  040 040 040 040
    003754  aa  040 040 040 040
    003755  aa  040 040 040 040
    003756  aa  040 040 040 040
    003757  aa  040 040 040 040
    003760  aa  040 040 040 040    698  	aci	"                                "
    003761  aa  040 040 040 040
    003762  aa  040 040 040 040
    003763  aa  040 040 040 040
    003764  aa  040 040 040 040
    003765  aa  040 040 040 040
    003766  aa  040 040 040 040
    003767  aa  040 040 040 040
    003770  aa  040 040 040 040    699  	aci	"        "
    003771  aa  040 040 040 040
    003772  aa   000000 000002     700  	dec	   2				"     3 type,
    003773  aa   000000 000046     701  	dec	  38				"     3 search_proc_name,
    003774  aa  155 165 154 164    702  	aci	"multics_library_search_$list_info_dirs                              "
    003775  aa  151 143 163 137
    003776  aa  154 151 142 162
    003777  aa  141 162 171 137
    004000  aa  163 145 141 162
    004001  aa  143 150 137 044
    004002  aa  154 151 163 164
    004003  aa  137 151 156 146
    004004  aa  157 137 144 151
    004005  aa  162 163 040 040
    004006  aa  040 040 040 040
    004007  aa  040 040 040 040
    004010  aa  040 040 040 040
    004011  aa  040 040 040 040
    004012  aa  040 040 040 040
    004013  aa  040 040 040 040
    004014  aa  040 040 040 040
    004015  aa   000000 0110 03    703  	even
    004016  aa   200000 000041     704  	itp	bp,search_procs+(3*2)-*
    004017  aa   023062 000000
    004020  aa   077777 000043     705  	its	-1,1				"     3 search_proc,
    004021  aa   000001 000000
                                   706  "
                                   707  "	Root:			(subsystem_library subsystem ss
                                   708  "				 online_libraries online on
                                   709  "				 accounting "").(info "");
                                   710  	even					"          (29)
                                   711  						"     3 name,
    004022  a0   000000 020452     712  	vfd	18/0,18/.subsystem_library.info
                                   713  						"       4 O,
    004023  aa   000000 000031     714  	dec	  25				"     3 path,
    004024  aa  076 144 157 143    715  	aci	">doc>subsystem>accounting       "
    004025  aa  076 163 165 142
    004026  aa  163 171 163 164
    004027  aa  145 155 076 141
    004030  aa  143 143 157 165
    004031  aa  156 164 151 156
    004032  aa  147 040 040 040
    004033  aa  040 040 040 040
    004034  aa  040 040 040 040    716  	aci	"                                "
    004035  aa  040 040 040 040
    004036  aa  040 040 040 040
    004037  aa  040 040 040 040
    004040  aa  040 040 040 040
    004041  aa  040 040 040 040
    004042  aa  040 040 040 040
    004043  aa  040 040 040 040
    004044  aa  040 040 040 040    717  	aci	"                                "
    004045  aa  040 040 040 040
    004046  aa  040 040 040 040
    004047  aa  040 040 040 040
    004050  aa  040 040 040 040
    004051  aa  040 040 040 040
    004052  aa  040 040 040 040
    004053  aa  040 040 040 040
    004054  aa  040 040 040 040    718  	aci	"                                "
    004055  aa  040 040 040 040
    004056  aa  040 040 040 040
    004057  aa  040 040 040 040
    004060  aa  040 040 040 040
    004061  aa  040 040 040 040
    004062  aa  040 040 040 040
    004063  aa  040 040 040 040
    004064  aa  040 040 040 040    719  	aci	"                                "
    004065  aa  040 040 040 040
    004066  aa  040 040 040 040
    004067  aa  040 040 040 040
    004070  aa  040 040 040 040
    004071  aa  040 040 040 040
    004072  aa  040 040 040 040
    004073  aa  040 040 040 040
    004074  aa  040 040 040 040    720  	aci	"        "
    004075  aa  040 040 040 040
    004076  aa   000000 000002     721  	dec	   2				"     3 type,
    004077  aa   000000 000046     722  	dec	  38				"     3 search_proc_name,
    004100  aa  155 165 154 164    723  	aci	"multics_library_search_$list_info_dirs                              "
    004101  aa  151 143 163 137
    004102  aa  154 151 142 162
    004103  aa  141 162 171 137
    004104  aa  163 145 141 162
    004105  aa  143 150 137 044
    004106  aa  154 151 163 164
    004107  aa  137 151 156 146
    004110  aa  157 137 144 151
    004111  aa  162 163 040 040
    004112  aa  040 040 040 040
    004113  aa  040 040 040 040
    004114  aa  040 040 040 040
    004115  aa  040 040 040 040
    004116  aa  040 040 040 040
    004117  aa  040 040 040 040
    004120  aa  040 040 040 040
    004121  aa   000000 0110 03    724  	even
    004122  aa   200000 000041     725  	itp	bp,search_procs+(3*2)-*
    004123  aa   022756 000000
    004124  aa   077777 000043     726  	its	-1,1				"     3 search_proc,
    004125  aa   000001 000000
                                   727  "
                                   728  "	Root:			(subsystem_library subsystem ss
                                   729  "				 online_libraries online on
                                   730  "				 analyze_multics azm "").(info "");
                                   731  	even					"          (30)
                                   732  						"     3 name,
    004126  a0   000000 020644     733  	vfd	18/0,18/.subsystem_library
                                   734  						"       4 O,
    004127  aa   000000 000036     735  	dec	  30				"     3 path,
    004130  aa  076 144 157 143    736  	aci	">doc>subsystem>analyze_multics  "
    004131  aa  076 163 165 142
    004132  aa  163 171 163 164
    004133  aa  145 155 076 141
    004134  aa  156 141 154 171
    004135  aa  172 145 137 155
    004136  aa  165 154 164 151
    004137  aa  143 163 040 040
    004140  aa  040 040 040 040    737  	aci	"                                "
    004141  aa  040 040 040 040
    004142  aa  040 040 040 040
    004143  aa  040 040 040 040
    004144  aa  040 040 040 040
    004145  aa  040 040 040 040
    004146  aa  040 040 040 040
    004147  aa  040 040 040 040
    004150  aa  040 040 040 040    738  	aci	"                                "
    004151  aa  040 040 040 040
    004152  aa  040 040 040 040
    004153  aa  040 040 040 040
    004154  aa  040 040 040 040
    004155  aa  040 040 040 040
    004156  aa  040 040 040 040
    004157  aa  040 040 040 040
    004160  aa  040 040 040 040    739  	aci	"                                "
    004161  aa  040 040 040 040
    004162  aa  040 040 040 040
    004163  aa  040 040 040 040
    004164  aa  040 040 040 040
    004165  aa  040 040 040 040
    004166  aa  040 040 040 040
    004167  aa  040 040 040 040
    004170  aa  040 040 040 040    740  	aci	"                                "
    004171  aa  040 040 040 040
    004172  aa  040 040 040 040
    004173  aa  040 040 040 040
    004174  aa  040 040 040 040
    004175  aa  040 040 040 040
    004176  aa  040 040 040 040
    004177  aa  040 040 040 040
    004200  aa  040 040 040 040    741  	aci	"        "
    004201  aa  040 040 040 040
    004202  aa   000000 000002     742  	dec	   2				"     3 type,
    004203  aa   000000 000046     743  	dec	  38				"     3 search_proc_name,
    004204  aa  155 165 154 164    744  	aci	"multics_library_search_$list_info_dirs                              "
    004205  aa  151 143 163 137
    004206  aa  154 151 142 162
    004207  aa  141 162 171 137
    004210  aa  163 145 141 162
    004211  aa  143 150 137 044
    004212  aa  154 151 163 164
    004213  aa  137 151 156 146
    004214  aa  157 137 144 151
    004215  aa  162 163 040 040
    004216  aa  040 040 040 040
    004217  aa  040 040 040 040
    004220  aa  040 040 040 040
    004221  aa  040 040 040 040
    004222  aa  040 040 040 040
    004223  aa  040 040 040 040
    004224  aa  040 040 040 040
    004225  aa   000000 0110 03    745  	even
    004226  aa   200000 000041     746  	itp	bp,search_procs+(3*2)-*
    004227  aa   022652 000000
    004230  aa   077777 000043     747  	its	-1,1				"     3 search_proc,
    004231  aa   000001 000000
                                   748  "
                                   749  "	Root:			(subsystem_library subsystem ss
                                   750  "				 offline_libraries offline off
                                   751  "				 bce "").(info "");
                                   752  	even					"          (31)
                                   753  						"     3 name,
    004232  a0   000000 021056     754  	vfd	18/0,18/.subsystem.info
                                   755  						"       4 O,
    004233  aa   000000 000022     756  	dec	  18				"     3 path,
    004234  aa  076 144 157 143    757  	aci	">doc>subsystem>bce              "
    004235  aa  076 163 165 142
    004236  aa  163 171 163 164
    004237  aa  145 155 076 142
    004240  aa  143 145 040 040
    004241  aa  040 040 040 040
    004242  aa  040 040 040 040
    004243  aa  040 040 040 040
    004244  aa  040 040 040 040    758  	aci	"                                "
    004245  aa  040 040 040 040
    004246  aa  040 040 040 040
    004247  aa  040 040 040 040
    004250  aa  040 040 040 040
    004251  aa  040 040 040 040
    004252  aa  040 040 040 040
    004253  aa  040 040 040 040
    004254  aa  040 040 040 040    759  	aci	"                                "
    004255  aa  040 040 040 040
    004256  aa  040 040 040 040
    004257  aa  040 040 040 040
    004260  aa  040 040 040 040
    004261  aa  040 040 040 040
    004262  aa  040 040 040 040
    004263  aa  040 040 040 040
    004264  aa  040 040 040 040    760  	aci	"                                "
    004265  aa  040 040 040 040
    004266  aa  040 040 040 040
    004267  aa  040 040 040 040
    004270  aa  040 040 040 040
    004271  aa  040 040 040 040
    004272  aa  040 040 040 040
    004273  aa  040 040 040 040
    004274  aa  040 040 040 040    761  	aci	"                                "
    004275  aa  040 040 040 040
    004276  aa  040 040 040 040
    004277  aa  040 040 040 040
    004300  aa  040 040 040 040
    004301  aa  040 040 040 040
    004302  aa  040 040 040 040
    004303  aa  040 040 040 040
    004304  aa  040 040 040 040    762  	aci	"        "
    004305  aa  040 040 040 040
    004306  aa   000000 000002     763  	dec	   2				"     3 type,
    004307  aa   000000 000046     764  	dec	  38				"     3 search_proc_name,
    004310  aa  155 165 154 164    765  	aci	"multics_library_search_$list_info_dirs                              "
    004311  aa  151 143 163 137
    004312  aa  154 151 142 162
    004313  aa  141 162 171 137
    004314  aa  163 145 141 162
    004315  aa  143 150 137 044
    004316  aa  154 151 163 164
    004317  aa  137 151 156 146
    004320  aa  157 137 144 151
    004321  aa  162 163 040 040
    004322  aa  040 040 040 040
    004323  aa  040 040 040 040
    004324  aa  040 040 040 040
    004325  aa  040 040 040 040
    004326  aa  040 040 040 040
    004327  aa  040 040 040 040
    004330  aa  040 040 040 040
    004331  aa   000000 0110 03    766  	even
    004332  aa   200000 000041     767  	itp	bp,search_procs+(3*2)-*
    004333  aa   022546 000000
    004334  aa   077777 000043     768  	its	-1,1				"     3 search_proc,
    004335  aa   000001 000000
                                   769  "
                                   770  "	Root:			(subsystem_library subsystem ss
                                   771  "				 online_libraries online on
                                   772  "				 deckfile_manager dfm "").(info "");
                                   773  	even					"          (32)
                                   774  						"     3 name,
    004336  a0   000000 021250     775  	vfd	18/0,18/.subsystem
                                   776  						"       4 O,
    004337  aa   000000 000037     777  	dec	  31				"     3 path,
    004340  aa  076 144 157 143    778  	aci	">doc>subsystem>deckfile_manager "
    004341  aa  076 163 165 142
    004342  aa  163 171 163 164
    004343  aa  145 155 076 144
    004344  aa  145 143 153 146
    004345  aa  151 154 145 137
    004346  aa  155 141 156 141
    004347  aa  147 145 162 040
    004350  aa  040 040 040 040    779  	aci	"                                "
    004351  aa  040 040 040 040
    004352  aa  040 040 040 040
    004353  aa  040 040 040 040
    004354  aa  040 040 040 040
    004355  aa  040 040 040 040
    004356  aa  040 040 040 040
    004357  aa  040 040 040 040
    004360  aa  040 040 040 040    780  	aci	"                                "
    004361  aa  040 040 040 040
    004362  aa  040 040 040 040
    004363  aa  040 040 040 040
    004364  aa  040 040 040 040
    004365  aa  040 040 040 040
    004366  aa  040 040 040 040
    004367  aa  040 040 040 040
    004370  aa  040 040 040 040    781  	aci	"                                "
    004371  aa  040 040 040 040
    004372  aa  040 040 040 040
    004373  aa  040 040 040 040
    004374  aa  040 040 040 040
    004375  aa  040 040 040 040
    004376  aa  040 040 040 040
    004377  aa  040 040 040 040
    004400  aa  040 040 040 040    782  	aci	"                                "
    004401  aa  040 040 040 040
    004402  aa  040 040 040 040
    004403  aa  040 040 040 040
    004404  aa  040 040 040 040
    004405  aa  040 040 040 040
    004406  aa  040 040 040 040
    004407  aa  040 040 040 040
    004410  aa  040 040 040 040    783  	aci	"        "
    004411  aa  040 040 040 040
    004412  aa   000000 000002     784  	dec	   2				"     3 type,
    004413  aa   000000 000046     785  	dec	  38				"     3 search_proc_name,
    004414  aa  155 165 154 164    786  	aci	"multics_library_search_$list_info_dirs                              "
    004415  aa  151 143 163 137
    004416  aa  154 151 142 162
    004417  aa  141 162 171 137
    004420  aa  163 145 141 162
    004421  aa  143 150 137 044
    004422  aa  154 151 163 164
    004423  aa  137 151 156 146
    004424  aa  157 137 144 151
    004425  aa  162 163 040 040
    004426  aa  040 040 040 040
    004427  aa  040 040 040 040
    004430  aa  040 040 040 040
    004431  aa  040 040 040 040
    004432  aa  040 040 040 040
    004433  aa  040 040 040 040
    004434  aa  040 040 040 040
    004435  aa   000000 0110 03    787  	even
    004436  aa   200000 000041     788  	itp	bp,search_procs+(3*2)-*
    004437  aa   022442 000000
    004440  aa   077777 000043     789  	its	-1,1				"     3 search_proc,
    004441  aa   000001 000000
                                   790  "
                                   791  "	Root:			(subsystem_library subsystem ss
                                   792  "				 online_libraries online on
                                   793  "				 dfast "").(info "");
                                   794  	even					"          (33)
                                   795  						"     3 name,
    004442  a0   000000 021462     796  	vfd	18/0,18/.ss.info
                                   797  						"       4 O,
    004443  aa   000000 000024     798  	dec	  20				"     3 path,
    004444  aa  076 144 157 143    799  	aci	">doc>subsystem>dfast            "
    004445  aa  076 163 165 142
    004446  aa  163 171 163 164
    004447  aa  145 155 076 144
    004450  aa  146 141 163 164
    004451  aa  040 040 040 040
    004452  aa  040 040 040 040
    004453  aa  040 040 040 040
    004454  aa  040 040 040 040    800  	aci	"                                "
    004455  aa  040 040 040 040
    004456  aa  040 040 040 040
    004457  aa  040 040 040 040
    004460  aa  040 040 040 040
    004461  aa  040 040 040 040
    004462  aa  040 040 040 040
    004463  aa  040 040 040 040
    004464  aa  040 040 040 040    801  	aci	"                                "
    004465  aa  040 040 040 040
    004466  aa  040 040 040 040
    004467  aa  040 040 040 040
    004470  aa  040 040 040 040
    004471  aa  040 040 040 040
    004472  aa  040 040 040 040
    004473  aa  040 040 040 040
    004474  aa  040 040 040 040    802  	aci	"                                "
    004475  aa  040 040 040 040
    004476  aa  040 040 040 040
    004477  aa  040 040 040 040
    004500  aa  040 040 040 040
    004501  aa  040 040 040 040
    004502  aa  040 040 040 040
    004503  aa  040 040 040 040
    004504  aa  040 040 040 040    803  	aci	"                                "
    004505  aa  040 040 040 040
    004506  aa  040 040 040 040
    004507  aa  040 040 040 040
    004510  aa  040 040 040 040
    004511  aa  040 040 040 040
    004512  aa  040 040 040 040
    004513  aa  040 040 040 040
    004514  aa  040 040 040 040    804  	aci	"        "
    004515  aa  040 040 040 040
    004516  aa   000000 000002     805  	dec	   2				"     3 type,
    004517  aa   000000 000046     806  	dec	  38				"     3 search_proc_name,
    004520  aa  155 165 154 164    807  	aci	"multics_library_search_$list_info_dirs                              "
    004521  aa  151 143 163 137
    004522  aa  154 151 142 162
    004523  aa  141 162 171 137
    004524  aa  163 145 141 162
    004525  aa  143 150 137 044
    004526  aa  154 151 163 164
    004527  aa  137 151 156 146
    004530  aa  157 137 144 151
    004531  aa  162 163 040 040
    004532  aa  040 040 040 040
    004533  aa  040 040 040 040
    004534  aa  040 040 040 040
    004535  aa  040 040 040 040
    004536  aa  040 040 040 040
    004537  aa  040 040 040 040
    004540  aa  040 040 040 040
    004541  aa   000000 0110 03    808  	even
    004542  aa   200000 000041     809  	itp	bp,search_procs+(3*2)-*
    004543  aa   022336 000000
    004544  aa   077777 000043     810  	its	-1,1				"     3 search_proc,
    004545  aa   000001 000000
                                   811  "
                                   812  "	Root:			(subsystem_library subsystem ss
                                   813  "				 online_libraries online on
                                   814  "				 dial_out "").(info "");
                                   815  	even					"          (34)
                                   816  						"     3 name,
    004546  a0   000000 021654     817  	vfd	18/0,18/.ss
                                   818  						"       4 O,
    004547  aa   000000 000027     819  	dec	  23				"     3 path,
    004550  aa  076 144 157 143    820  	aci	">doc>subsystem>dial_out         "
    004551  aa  076 163 165 142
    004552  aa  163 171 163 164
    004553  aa  145 155 076 144
    004554  aa  151 141 154 137
    004555  aa  157 165 164 040
    004556  aa  040 040 040 040
    004557  aa  040 040 040 040
    004560  aa  040 040 040 040    821  	aci	"                                "
    004561  aa  040 040 040 040
    004562  aa  040 040 040 040
    004563  aa  040 040 040 040
    004564  aa  040 040 040 040
    004565  aa  040 040 040 040
    004566  aa  040 040 040 040
    004567  aa  040 040 040 040
    004570  aa  040 040 040 040    822  	aci	"                                "
    004571  aa  040 040 040 040
    004572  aa  040 040 040 040
    004573  aa  040 040 040 040
    004574  aa  040 040 040 040
    004575  aa  040 040 040 040
    004576  aa  040 040 040 040
    004577  aa  040 040 040 040
    004600  aa  040 040 040 040    823  	aci	"                                "
    004601  aa  040 040 040 040
    004602  aa  040 040 040 040
    004603  aa  040 040 040 040
    004604  aa  040 040 040 040
    004605  aa  040 040 040 040
    004606  aa  040 040 040 040
    004607  aa  040 040 040 040
    004610  aa  040 040 040 040    824  	aci	"                                "
    004611  aa  040 040 040 040
    004612  aa  040 040 040 040
    004613  aa  040 040 040 040
    004614  aa  040 040 040 040
    004615  aa  040 040 040 040
    004616  aa  040 040 040 040
    004617  aa  040 040 040 040
    004620  aa  040 040 040 040    825  	aci	"        "
    004621  aa  040 040 040 040
    004622  aa   000000 000002     826  	dec	   2				"     3 type,
    004623  aa   000000 000046     827  	dec	  38				"     3 search_proc_name,
    004624  aa  155 165 154 164    828  	aci	"multics_library_search_$list_info_dirs                              "
    004625  aa  151 143 163 137
    004626  aa  154 151 142 162
    004627  aa  141 162 171 137
    004630  aa  163 145 141 162
    004631  aa  143 150 137 044
    004632  aa  154 151 163 164
    004633  aa  137 151 156 146
    004634  aa  157 137 144 151
    004635  aa  162 163 040 040
    004636  aa  040 040 040 040
    004637  aa  040 040 040 040
    004640  aa  040 040 040 040
    004641  aa  040 040 040 040
    004642  aa  040 040 040 040
    004643  aa  040 040 040 040
    004644  aa  040 040 040 040
    004645  aa   000000 0110 03    829  	even
    004646  aa   200000 000041     830  	itp	bp,search_procs+(3*2)-*
    004647  aa   022232 000000
    004650  aa   077777 000043     831  	its	-1,1				"     3 search_proc,
    004651  aa   000001 000000
                                   832  "
                                   833  "	Root:			(subsystem_library subsystem ss
                                   834  "				 online_libraries online on
                                   835  "				 emacs "").(info "");
                                   836  	even					"          (35)
                                   837  						"     3 name,
    004652  a0   000000 022046     838  	vfd	18/0,18/.online_libraries.info
                                   839  						"       4 O,
    004653  aa   000000 000024     840  	dec	  20				"     3 path,
    004654  aa  076 144 157 143    841  	aci	">doc>subsystem>emacs            "
    004655  aa  076 163 165 142
    004656  aa  163 171 163 164
    004657  aa  145 155 076 145
    004660  aa  155 141 143 163
    004661  aa  040 040 040 040
    004662  aa  040 040 040 040
    004663  aa  040 040 040 040
    004664  aa  040 040 040 040    842  	aci	"                                "
    004665  aa  040 040 040 040
    004666  aa  040 040 040 040
    004667  aa  040 040 040 040
    004670  aa  040 040 040 040
    004671  aa  040 040 040 040
    004672  aa  040 040 040 040
    004673  aa  040 040 040 040
    004674  aa  040 040 040 040    843  	aci	"                                "
    004675  aa  040 040 040 040
    004676  aa  040 040 040 040
    004677  aa  040 040 040 040
    004700  aa  040 040 040 040
    004701  aa  040 040 040 040
    004702  aa  040 040 040 040
    004703  aa  040 040 040 040
    004704  aa  040 040 040 040    844  	aci	"                                "
    004705  aa  040 040 040 040
    004706  aa  040 040 040 040
    004707  aa  040 040 040 040
    004710  aa  040 040 040 040
    004711  aa  040 040 040 040
    004712  aa  040 040 040 040
    004713  aa  040 040 040 040
    004714  aa  040 040 040 040    845  	aci	"                                "
    004715  aa  040 040 040 040
    004716  aa  040 040 040 040
    004717  aa  040 040 040 040
    004720  aa  040 040 040 040
    004721  aa  040 040 040 040
    004722  aa  040 040 040 040
    004723  aa  040 040 040 040
    004724  aa  040 040 040 040    846  	aci	"        "
    004725  aa  040 040 040 040
    004726  aa   000000 000002     847  	dec	   2				"     3 type,
    004727  aa   000000 000046     848  	dec	  38				"     3 search_proc_name,
    004730  aa  155 165 154 164    849  	aci	"multics_library_search_$list_info_dirs                              "
    004731  aa  151 143 163 137
    004732  aa  154 151 142 162
    004733  aa  141 162 171 137
    004734  aa  163 145 141 162
    004735  aa  143 150 137 044
    004736  aa  154 151 163 164
    004737  aa  137 151 156 146
    004740  aa  157 137 144 151
    004741  aa  162 163 040 040
    004742  aa  040 040 040 040
    004743  aa  040 040 040 040
    004744  aa  040 040 040 040
    004745  aa  040 040 040 040
    004746  aa  040 040 040 040
    004747  aa  040 040 040 040
    004750  aa  040 040 040 040
    004751  aa   000000 0110 03    850  	even
    004752  aa   200000 000041     851  	itp	bp,search_procs+(3*2)-*
    004753  aa   022126 000000
    004754  aa   077777 000043     852  	its	-1,1				"     3 search_proc,
    004755  aa   000001 000000
                                   853  "
                                   854  "	Root:			(subsystem_library subsystem ss
                                   855  "				 online_libraries online on
                                   856  "				 executive_forum xforum "").(info "");
                                   857  	even					"          (36)
                                   858  						"     3 name,
    004756  a0   000000 022240     859  	vfd	18/0,18/.online_libraries
                                   860  						"       4 O,
    004757  aa   000000 000036     861  	dec	  30				"     3 path,
    004760  aa  076 144 157 143    862  	aci	">doc>subsystem>executive_forum  "
    004761  aa  076 163 165 142
    004762  aa  163 171 163 164
    004763  aa  145 155 076 145
    004764  aa  170 145 143 165
    004765  aa  164 151 166 145
    004766  aa  137 146 157 162
    004767  aa  165 155 040 040
    004770  aa  040 040 040 040    863  	aci	"                                "
    004771  aa  040 040 040 040
    004772  aa  040 040 040 040
    004773  aa  040 040 040 040
    004774  aa  040 040 040 040
    004775  aa  040 040 040 040
    004776  aa  040 040 040 040
    004777  aa  040 040 040 040
    005000  aa  040 040 040 040    864  	aci	"                                "
    005001  aa  040 040 040 040
    005002  aa  040 040 040 040
    005003  aa  040 040 040 040
    005004  aa  040 040 040 040
    005005  aa  040 040 040 040
    005006  aa  040 040 040 040
    005007  aa  040 040 040 040
    005010  aa  040 040 040 040    865  	aci	"                                "
    005011  aa  040 040 040 040
    005012  aa  040 040 040 040
    005013  aa  040 040 040 040
    005014  aa  040 040 040 040
    005015  aa  040 040 040 040
    005016  aa  040 040 040 040
    005017  aa  040 040 040 040
    005020  aa  040 040 040 040    866  	aci	"                                "
    005021  aa  040 040 040 040
    005022  aa  040 040 040 040
    005023  aa  040 040 040 040
    005024  aa  040 040 040 040
    005025  aa  040 040 040 040
    005026  aa  040 040 040 040
    005027  aa  040 040 040 040
    005030  aa  040 040 040 040    867  	aci	"        "
    005031  aa  040 040 040 040
    005032  aa   000000 000002     868  	dec	   2				"     3 type,
    005033  aa   000000 000046     869  	dec	  38				"     3 search_proc_name,
    005034  aa  155 165 154 164    870  	aci	"multics_library_search_$list_info_dirs                              "
    005035  aa  151 143 163 137
    005036  aa  154 151 142 162
    005037  aa  141 162 171 137
    005040  aa  163 145 141 162
    005041  aa  143 150 137 044
    005042  aa  154 151 163 164
    005043  aa  137 151 156 146
    005044  aa  157 137 144 151
    005045  aa  162 163 040 040
    005046  aa  040 040 040 040
    005047  aa  040 040 040 040
    005050  aa  040 040 040 040
    005051  aa  040 040 040 040
    005052  aa  040 040 040 040
    005053  aa  040 040 040 040
    005054  aa  040 040 040 040
    005055  aa   000000 0110 03    871  	even
    005056  aa   200000 000041     872  	itp	bp,search_procs+(3*2)-*
    005057  aa   022022 000000
    005060  aa   077777 000043     873  	its	-1,1				"     3 search_proc,
    005061  aa   000001 000000
                                   874  "
                                   875  "	Root:			(subsystem_library subsystem ss
                                   876  "				 online_libraries online on
                                   877  "				 executive_mail xmail "").(info "");
                                   878  	even					"          (37)
                                   879  						"     3 name,
    005062  a0   000000 022452     880  	vfd	18/0,18/.online.info
                                   881  						"       4 O,
    005063  aa   000000 000035     882  	dec	  29				"     3 path,
    005064  aa  076 144 157 143    883  	aci	">doc>subsystem>executive_mail   "
    005065  aa  076 163 165 142
    005066  aa  163 171 163 164
    005067  aa  145 155 076 145
    005070  aa  170 145 143 165
    005071  aa  164 151 166 145
    005072  aa  137 155 141 151
    005073  aa  154 040 040 040
    005074  aa  040 040 040 040    884  	aci	"                                "
    005075  aa  040 040 040 040
    005076  aa  040 040 040 040
    005077  aa  040 040 040 040
    005100  aa  040 040 040 040
    005101  aa  040 040 040 040
    005102  aa  040 040 040 040
    005103  aa  040 040 040 040
    005104  aa  040 040 040 040    885  	aci	"                                "
    005105  aa  040 040 040 040
    005106  aa  040 040 040 040
    005107  aa  040 040 040 040
    005110  aa  040 040 040 040
    005111  aa  040 040 040 040
    005112  aa  040 040 040 040
    005113  aa  040 040 040 040
    005114  aa  040 040 040 040    886  	aci	"                                "
    005115  aa  040 040 040 040
    005116  aa  040 040 040 040
    005117  aa  040 040 040 040
    005120  aa  040 040 040 040
    005121  aa  040 040 040 040
    005122  aa  040 040 040 040
    005123  aa  040 040 040 040
    005124  aa  040 040 040 040    887  	aci	"                                "
    005125  aa  040 040 040 040
    005126  aa  040 040 040 040
    005127  aa  040 040 040 040
    005130  aa  040 040 040 040
    005131  aa  040 040 040 040
    005132  aa  040 040 040 040
    005133  aa  040 040 040 040
    005134  aa  040 040 040 040    888  	aci	"        "
    005135  aa  040 040 040 040
    005136  aa   000000 000002     889  	dec	   2				"     3 type,
    005137  aa   000000 000046     890  	dec	  38				"     3 search_proc_name,
    005140  aa  155 165 154 164    891  	aci	"multics_library_search_$list_info_dirs                              "
    005141  aa  151 143 163 137
    005142  aa  154 151 142 162
    005143  aa  141 162 171 137
    005144  aa  163 145 141 162
    005145  aa  143 150 137 044
    005146  aa  154 151 163 164
    005147  aa  137 151 156 146
    005150  aa  157 137 144 151
    005151  aa  162 163 040 040
    005152  aa  040 040 040 040
    005153  aa  040 040 040 040
    005154  aa  040 040 040 040
    005155  aa  040 040 040 040
    005156  aa  040 040 040 040
    005157  aa  040 040 040 040
    005160  aa  040 040 040 040
    005161  aa   000000 0110 03    892  	even
    005162  aa   200000 000041     893  	itp	bp,search_procs+(3*2)-*
    005163  aa   021716 000000
    005164  aa   077777 000043     894  	its	-1,1				"     3 search_proc,
    005165  aa   000001 000000
                                   895  "
                                   896  "	Root:			(subsystem_library subsystem ss
                                   897  "				 online_libraries online on
                                   898  "				 fast "").(info "");
                                   899  	even					"          (38)
                                   900  						"     3 name,
    005166  a0   000000 022664     901  	vfd	18/0,18/.online
                                   902  						"       4 O,
    005167  aa   000000 000023     903  	dec	  19				"     3 path,
    005170  aa  076 144 157 143    904  	aci	">doc>subsystem>fast             "
    005171  aa  076 163 165 142
    005172  aa  163 171 163 164
    005173  aa  145 155 076 146
    005174  aa  141 163 164 040
    005175  aa  040 040 040 040
    005176  aa  040 040 040 040
    005177  aa  040 040 040 040
    005200  aa  040 040 040 040    905  	aci	"                                "
    005201  aa  040 040 040 040
    005202  aa  040 040 040 040
    005203  aa  040 040 040 040
    005204  aa  040 040 040 040
    005205  aa  040 040 040 040
    005206  aa  040 040 040 040
    005207  aa  040 040 040 040
    005210  aa  040 040 040 040    906  	aci	"                                "
    005211  aa  040 040 040 040
    005212  aa  040 040 040 040
    005213  aa  040 040 040 040
    005214  aa  040 040 040 040
    005215  aa  040 040 040 040
    005216  aa  040 040 040 040
    005217  aa  040 040 040 040
    005220  aa  040 040 040 040    907  	aci	"                                "
    005221  aa  040 040 040 040
    005222  aa  040 040 040 040
    005223  aa  040 040 040 040
    005224  aa  040 040 040 040
    005225  aa  040 040 040 040
    005226  aa  040 040 040 040
    005227  aa  040 040 040 040
    005230  aa  040 040 040 040    908  	aci	"                                "
    005231  aa  040 040 040 040
    005232  aa  040 040 040 040
    005233  aa  040 040 040 040
    005234  aa  040 040 040 040
    005235  aa  040 040 040 040
    005236  aa  040 040 040 040
    005237  aa  040 040 040 040
    005240  aa  040 040 040 040    909  	aci	"        "
    005241  aa  040 040 040 040
    005242  aa   000000 000002     910  	dec	   2				"     3 type,
    005243  aa   000000 000046     911  	dec	  38				"     3 search_proc_name,
    005244  aa  155 165 154 164    912  	aci	"multics_library_search_$list_info_dirs                              "
    005245  aa  151 143 163 137
    005246  aa  154 151 142 162
    005247  aa  141 162 171 137
    005250  aa  163 145 141 162
    005251  aa  143 150 137 044
    005252  aa  154 151 163 164
    005253  aa  137 151 156 146
    005254  aa  157 137 144 151
    005255  aa  162 163 040 040
    005256  aa  040 040 040 040
    005257  aa  040 040 040 040
    005260  aa  040 040 040 040
    005261  aa  040 040 040 040
    005262  aa  040 040 040 040
    005263  aa  040 040 040 040
    005264  aa  040 040 040 040
    005265  aa   000000 0110 03    913  	even
    005266  aa   200000 000041     914  	itp	bp,search_procs+(3*2)-*
    005267  aa   021612 000000
    005270  aa   077777 000043     915  	its	-1,1				"     3 search_proc,
    005271  aa   000001 000000
                                   916  "
                                   917  "	Root:			(subsystem_library subsystem ss
                                   918  "				 online_libraries online on
                                   919  "				 forum "").(info "");
                                   920  	even					"          (39)
                                   921  						"     3 name,
    005272  a0   000000 023056     922  	vfd	18/0,18/.on.info
                                   923  						"       4 O,
    005273  aa   000000 000024     924  	dec	  20				"     3 path,
    005274  aa  076 144 157 143    925  	aci	">doc>subsystem>forum            "
    005275  aa  076 163 165 142
    005276  aa  163 171 163 164
    005277  aa  145 155 076 146
    005300  aa  157 162 165 155
    005301  aa  040 040 040 040
    005302  aa  040 040 040 040
    005303  aa  040 040 040 040
    005304  aa  040 040 040 040    926  	aci	"                                "
    005305  aa  040 040 040 040
    005306  aa  040 040 040 040
    005307  aa  040 040 040 040
    005310  aa  040 040 040 040
    005311  aa  040 040 040 040
    005312  aa  040 040 040 040
    005313  aa  040 040 040 040
    005314  aa  040 040 040 040    927  	aci	"                                "
    005315  aa  040 040 040 040
    005316  aa  040 040 040 040
    005317  aa  040 040 040 040
    005320  aa  040 040 040 040
    005321  aa  040 040 040 040
    005322  aa  040 040 040 040
    005323  aa  040 040 040 040
    005324  aa  040 040 040 040    928  	aci	"                                "
    005325  aa  040 040 040 040
    005326  aa  040 040 040 040
    005327  aa  040 040 040 040
    005330  aa  040 040 040 040
    005331  aa  040 040 040 040
    005332  aa  040 040 040 040
    005333  aa  040 040 040 040
    005334  aa  040 040 040 040    929  	aci	"                                "
    005335  aa  040 040 040 040
    005336  aa  040 040 040 040
    005337  aa  040 040 040 040
    005340  aa  040 040 040 040
    005341  aa  040 040 040 040
    005342  aa  040 040 040 040
    005343  aa  040 040 040 040
    005344  aa  040 040 040 040    930  	aci	"        "
    005345  aa  040 040 040 040
    005346  aa   000000 000002     931  	dec	   2				"     3 type,
    005347  aa   000000 000046     932  	dec	  38				"     3 search_proc_name,
    005350  aa  155 165 154 164    933  	aci	"multics_library_search_$list_info_dirs                              "
    005351  aa  151 143 163 137
    005352  aa  154 151 142 162
    005353  aa  141 162 171 137
    005354  aa  163 145 141 162
    005355  aa  143 150 137 044
    005356  aa  154 151 163 164
    005357  aa  137 151 156 146
    005360  aa  157 137 144 151
    005361  aa  162 163 040 040
    005362  aa  040 040 040 040
    005363  aa  040 040 040 040
    005364  aa  040 040 040 040
    005365  aa  040 040 040 040
    005366  aa  040 040 040 040
    005367  aa  040 040 040 040
    005370  aa  040 040 040 040
    005371  aa   000000 0110 03    934  	even
    005372  aa   200000 000041     935  	itp	bp,search_procs+(3*2)-*
    005373  aa   021506 000000
    005374  aa   077777 000043     936  	its	-1,1				"     3 search_proc,
    005375  aa   000001 000000
                                   937  "
                                   938  "	Root:			(subsystem_library subsystem ss
                                   939  "				 online_libraries online on
                                   940  "				 io_daemon "").(info "");
                                   941  	even					"          (40)
                                   942  						"     3 name,
    005376  a0   000000 023250     943  	vfd	18/0,18/.on
                                   944  						"       4 O,
    005377  aa   000000 000030     945  	dec	  24				"     3 path,
    005400  aa  076 144 157 143    946  	aci	">doc>subsystem>io_daemon        "
    005401  aa  076 163 165 142
    005402  aa  163 171 163 164
    005403  aa  145 155 076 151
    005404  aa  157 137 144 141
    005405  aa  145 155 157 156
    005406  aa  040 040 040 040
    005407  aa  040 040 040 040
    005410  aa  040 040 040 040    947  	aci	"                                "
    005411  aa  040 040 040 040
    005412  aa  040 040 040 040
    005413  aa  040 040 040 040
    005414  aa  040 040 040 040
    005415  aa  040 040 040 040
    005416  aa  040 040 040 040
    005417  aa  040 040 040 040
    005420  aa  040 040 040 040    948  	aci	"                                "
    005421  aa  040 040 040 040
    005422  aa  040 040 040 040
    005423  aa  040 040 040 040
    005424  aa  040 040 040 040
    005425  aa  040 040 040 040
    005426  aa  040 040 040 040
    005427  aa  040 040 040 040
    005430  aa  040 040 040 040    949  	aci	"                                "
    005431  aa  040 040 040 040
    005432  aa  040 040 040 040
    005433  aa  040 040 040 040
    005434  aa  040 040 040 040
    005435  aa  040 040 040 040
    005436  aa  040 040 040 040
    005437  aa  040 040 040 040
    005440  aa  040 040 040 040    950  	aci	"                                "
    005441  aa  040 040 040 040
    005442  aa  040 040 040 040
    005443  aa  040 040 040 040
    005444  aa  040 040 040 040
    005445  aa  040 040 040 040
    005446  aa  040 040 040 040
    005447  aa  040 040 040 040
    005450  aa  040 040 040 040    951  	aci	"        "
    005451  aa  040 040 040 040
    005452  aa   000000 000002     952  	dec	   2				"     3 type,
    005453  aa   000000 000046     953  	dec	  38				"     3 search_proc_name,
    005454  aa  155 165 154 164    954  	aci	"multics_library_search_$list_info_dirs                              "
    005455  aa  151 143 163 137
    005456  aa  154 151 142 162
    005457  aa  141 162 171 137
    005460  aa  163 145 141 162
    005461  aa  143 150 137 044
    005462  aa  154 151 163 164
    005463  aa  137 151 156 146
    005464  aa  157 137 144 151
    005465  aa  162 163 040 040
    005466  aa  040 040 040 040
    005467  aa  040 040 040 040
    005470  aa  040 040 040 040
    005471  aa  040 040 040 040
    005472  aa  040 040 040 040
    005473  aa  040 040 040 040
    005474  aa  040 040 040 040
    005475  aa   000000 0110 03    955  	even
    005476  aa   200000 000041     956  	itp	bp,search_procs+(3*2)-*
    005477  aa   021402 000000
    005500  aa   077777 000043     957  	its	-1,1				"     3 search_proc,
    005501  aa   000001 000000
                                   958  "
                                   959  "	Root:			(subsystem_library subsystem ss
                                   960  "				 online_libraries online on
                                   961  "				 kermit "").(info "");
                                   962  	even					"          (41)
                                   963  						"     3 name,
    005502  a0   000000 023442     964  	vfd	18/0,18/.kermit.info
                                   965  						"       4 O,
    005503  aa   000000 000025     966  	dec	  21				"     3 path,
    005504  aa  076 144 157 143    967  	aci	">doc>subsystem>kermit           "
    005505  aa  076 163 165 142
    005506  aa  163 171 163 164
    005507  aa  145 155 076 153
    005510  aa  145 162 155 151
    005511  aa  164 040 040 040
    005512  aa  040 040 040 040
    005513  aa  040 040 040 040
    005514  aa  040 040 040 040    968  	aci	"                                "
    005515  aa  040 040 040 040
    005516  aa  040 040 040 040
    005517  aa  040 040 040 040
    005520  aa  040 040 040 040
    005521  aa  040 040 040 040
    005522  aa  040 040 040 040
    005523  aa  040 040 040 040
    005524  aa  040 040 040 040    969  	aci	"                                "
    005525  aa  040 040 040 040
    005526  aa  040 040 040 040
    005527  aa  040 040 040 040
    005530  aa  040 040 040 040
    005531  aa  040 040 040 040
    005532  aa  040 040 040 040
    005533  aa  040 040 040 040
    005534  aa  040 040 040 040    970  	aci	"                                "
    005535  aa  040 040 040 040
    005536  aa  040 040 040 040
    005537  aa  040 040 040 040
    005540  aa  040 040 040 040
    005541  aa  040 040 040 040
    005542  aa  040 040 040 040
    005543  aa  040 040 040 040
    005544  aa  040 040 040 040    971  	aci	"                                "
    005545  aa  040 040 040 040
    005546  aa  040 040 040 040
    005547  aa  040 040 040 040
    005550  aa  040 040 040 040
    005551  aa  040 040 040 040
    005552  aa  040 040 040 040
    005553  aa  040 040 040 040
    005554  aa  040 040 040 040    972  	aci	"        "
    005555  aa  040 040 040 040
    005556  aa   000000 000002     973  	dec	   2				"     3 type,
    005557  aa   000000 000046     974  	dec	  38				"     3 search_proc_name,
    005560  aa  155 165 154 164    975  	aci	"multics_library_search_$list_info_dirs                              "
    005561  aa  151 143 163 137
    005562  aa  154 151 142 162
    005563  aa  141 162 171 137
    005564  aa  163 145 141 162
    005565  aa  143 150 137 044
    005566  aa  154 151 163 164
    005567  aa  137 151 156 146
    005570  aa  157 137 144 151
    005571  aa  162 163 040 040
    005572  aa  040 040 040 040
    005573  aa  040 040 040 040
    005574  aa  040 040 040 040
    005575  aa  040 040 040 040
    005576  aa  040 040 040 040
    005577  aa  040 040 040 040
    005600  aa  040 040 040 040
    005601  aa   000000 0110 03    976  	even
    005602  aa   200000 000041     977  	itp	bp,search_procs+(3*2)-*
    005603  aa   021276 000000
    005604  aa   077777 000043     978  	its	-1,1				"     3 search_proc,
    005605  aa   000001 000000
                                   979  "
                                   980  "	Root:			(subsystem_library subsystem ss
                                   981  "				 online_libraries online on
                                   982  "				 linus "").(info "");
                                   983  	even					"          (42)
                                   984  						"     3 name,
    005606  a0   000000 023634     985  	vfd	18/0,18/.linus.info
                                   986  						"       4 O,
    005607  aa   000000 000024     987  	dec	  20				"     3 path,
    005610  aa  076 144 157 143    988  	aci	">doc>subsystem>linus            "
    005611  aa  076 163 165 142
    005612  aa  163 171 163 164
    005613  aa  145 155 076 154
    005614  aa  151 156 165 163
    005615  aa  040 040 040 040
    005616  aa  040 040 040 040
    005617  aa  040 040 040 040
    005620  aa  040 040 040 040    989  	aci	"                                "
    005621  aa  040 040 040 040
    005622  aa  040 040 040 040
    005623  aa  040 040 040 040
    005624  aa  040 040 040 040
    005625  aa  040 040 040 040
    005626  aa  040 040 040 040
    005627  aa  040 040 040 040
    005630  aa  040 040 040 040    990  	aci	"                                "
    005631  aa  040 040 040 040
    005632  aa  040 040 040 040
    005633  aa  040 040 040 040
    005634  aa  040 040 040 040
    005635  aa  040 040 040 040
    005636  aa  040 040 040 040
    005637  aa  040 040 040 040
    005640  aa  040 040 040 040    991  	aci	"                                "
    005641  aa  040 040 040 040
    005642  aa  040 040 040 040
    005643  aa  040 040 040 040
    005644  aa  040 040 040 040
    005645  aa  040 040 040 040
    005646  aa  040 040 040 040
    005647  aa  040 040 040 040
    005650  aa  040 040 040 040    992  	aci	"                                "
    005651  aa  040 040 040 040
    005652  aa  040 040 040 040
    005653  aa  040 040 040 040
    005654  aa  040 040 040 040
    005655  aa  040 040 040 040
    005656  aa  040 040 040 040
    005657  aa  040 040 040 040
    005660  aa  040 040 040 040    993  	aci	"        "
    005661  aa  040 040 040 040
    005662  aa   000000 000002     994  	dec	   2				"     3 type,
    005663  aa   000000 000046     995  	dec	  38				"     3 search_proc_name,
    005664  aa  155 165 154 164    996  	aci	"multics_library_search_$list_info_dirs                              "
    005665  aa  151 143 163 137
    005666  aa  154 151 142 162
    005667  aa  141 162 171 137
    005670  aa  163 145 141 162
    005671  aa  143 150 137 044
    005672  aa  154 151 163 164
    005673  aa  137 151 156 146
    005674  aa  157 137 144 151
    005675  aa  162 163 040 040
    005676  aa  040 040 040 040
    005677  aa  040 040 040 040
    005700  aa  040 040 040 040
    005701  aa  040 040 040 040
    005702  aa  040 040 040 040
    005703  aa  040 040 040 040
    005704  aa  040 040 040 040
    005705  aa   000000 0110 03    997  	even
    005706  aa   200000 000041     998  	itp	bp,search_procs+(3*2)-*
    005707  aa   021172 000000
    005710  aa   077777 000043     999  	its	-1,1				"     3 search_proc,
    005711  aa   000001 000000
                                  1000  "
                                  1001  "	Root:			(subsystem_library subsystem ss
                                  1002  "				 online_libraries online on
                                  1003  "				 mail_system mlsys read_mail rdm "").(info "");
                                  1004  	even					"          (43)
                                  1005  						"     3 name,
    005712  a0   000000 024026    1006  	vfd	18/0,18/.mail_system.info
                                  1007  						"       4 O,
    005713  aa   000000 000044    1008  	dec	  36				"     3 path,
    005714  aa  076 144 157 143   1009  	aci	">doc>subsystem>mail_system>read_"
    005715  aa  076 163 165 142
    005716  aa  163 171 163 164
    005717  aa  145 155 076 155
    005720  aa  141 151 154 137
    005721  aa  163 171 163 164
    005722  aa  145 155 076 162
    005723  aa  145 141 144 137
    005724  aa  155 141 151 154   1010  	aci	"mail                            "
    005725  aa  040 040 040 040
    005726  aa  040 040 040 040
    005727  aa  040 040 040 040
    005730  aa  040 040 040 040
    005731  aa  040 040 040 040
    005732  aa  040 040 040 040
    005733  aa  040 040 040 040
    005734  aa  040 040 040 040   1011  	aci	"                                "
    005735  aa  040 040 040 040
    005736  aa  040 040 040 040
    005737  aa  040 040 040 040
    005740  aa  040 040 040 040
    005741  aa  040 040 040 040
    005742  aa  040 040 040 040
    005743  aa  040 040 040 040
    005744  aa  040 040 040 040   1012  	aci	"                                "
    005745  aa  040 040 040 040
    005746  aa  040 040 040 040
    005747  aa  040 040 040 040
    005750  aa  040 040 040 040
    005751  aa  040 040 040 040
    005752  aa  040 040 040 040
    005753  aa  040 040 040 040
    005754  aa  040 040 040 040   1013  	aci	"                                "
    005755  aa  040 040 040 040
    005756  aa  040 040 040 040
    005757  aa  040 040 040 040
    005760  aa  040 040 040 040
    005761  aa  040 040 040 040
    005762  aa  040 040 040 040
    005763  aa  040 040 040 040
    005764  aa  040 040 040 040   1014  	aci	"        "
    005765  aa  040 040 040 040
    005766  aa   000000 000002    1015  	dec	   2				"     3 type,
    005767  aa   000000 000046    1016  	dec	  38				"     3 search_proc_name,
    005770  aa  155 165 154 164   1017  	aci	"multics_library_search_$list_info_dirs                              "
    005771  aa  151 143 163 137
    005772  aa  154 151 142 162
    005773  aa  141 162 171 137
    005774  aa  163 145 141 162
    005775  aa  143 150 137 044
    005776  aa  154 151 163 164
    005777  aa  137 151 156 146
    006000  aa  157 137 144 151
    006001  aa  162 163 040 040
    006002  aa  040 040 040 040
    006003  aa  040 040 040 040
    006004  aa  040 040 040 040
    006005  aa  040 040 040 040
    006006  aa  040 040 040 040
    006007  aa  040 040 040 040
    006010  aa  040 040 040 040
    006011  aa   000000 0110 03   1018  	even
    006012  aa   200000 000041    1019  	itp	bp,search_procs+(3*2)-*
    006013  aa   021066 000000
    006014  aa   077777 000043    1020  	its	-1,1				"     3 search_proc,
    006015  aa   000001 000000
                                  1021  "
                                  1022  "	Root:			(subsystem_library subsystem ss
                                  1023  "				 online_libraries online on
                                  1024  "				 mail_system mlsys read_mail rdm "").(info "");
                                  1025  	even					"          (44)
                                  1026  						"     3 name,
    006016  a0   000000 024300    1027  	vfd	18/0,18/.mail_system
                                  1028  						"       4 O,
    006017  aa   000000 000065    1029  	dec	  53				"     3 path,
    006020  aa  076 144 157 143   1030  	aci	">doc>subsystem>mail_system>read_"
    006021  aa  076 163 165 142
    006022  aa  163 171 163 164
    006023  aa  145 155 076 155
    006024  aa  141 151 154 137
    006025  aa  163 171 163 164
    006026  aa  145 155 076 162
    006027  aa  145 141 144 137
    006030  aa  155 141 151 154   1031  	aci	"mail>forward_requests           "
    006031  aa  076 146 157 162
    006032  aa  167 141 162 144
    006033  aa  137 162 145 161
    006034  aa  165 145 163 164
    006035  aa  163 040 040 040
    006036  aa  040 040 040 040
    006037  aa  040 040 040 040
    006040  aa  040 040 040 040   1032  	aci	"                                "
    006041  aa  040 040 040 040
    006042  aa  040 040 040 040
    006043  aa  040 040 040 040
    006044  aa  040 040 040 040
    006045  aa  040 040 040 040
    006046  aa  040 040 040 040
    006047  aa  040 040 040 040
    006050  aa  040 040 040 040   1033  	aci	"                                "
    006051  aa  040 040 040 040
    006052  aa  040 040 040 040
    006053  aa  040 040 040 040
    006054  aa  040 040 040 040
    006055  aa  040 040 040 040
    006056  aa  040 040 040 040
    006057  aa  040 040 040 040
    006060  aa  040 040 040 040   1034  	aci	"                                "
    006061  aa  040 040 040 040
    006062  aa  040 040 040 040
    006063  aa  040 040 040 040
    006064  aa  040 040 040 040
    006065  aa  040 040 040 040
    006066  aa  040 040 040 040
    006067  aa  040 040 040 040
    006070  aa  040 040 040 040   1035  	aci	"        "
    006071  aa  040 040 040 040
    006072  aa   000000 000002    1036  	dec	   2				"     3 type,
    006073  aa   000000 000046    1037  	dec	  38				"     3 search_proc_name,
    006074  aa  155 165 154 164   1038  	aci	"multics_library_search_$list_info_dirs                              "
    006075  aa  151 143 163 137
    006076  aa  154 151 142 162
    006077  aa  141 162 171 137
    006100  aa  163 145 141 162
    006101  aa  143 150 137 044
    006102  aa  154 151 163 164
    006103  aa  137 151 156 146
    006104  aa  157 137 144 151
    006105  aa  162 163 040 040
    006106  aa  040 040 040 040
    006107  aa  040 040 040 040
    006110  aa  040 040 040 040
    006111  aa  040 040 040 040
    006112  aa  040 040 040 040
    006113  aa  040 040 040 040
    006114  aa  040 040 040 040
    006115  aa   000000 0110 03   1039  	even
    006116  aa   200000 000041    1040  	itp	bp,search_procs+(3*2)-*
    006117  aa   020762 000000
    006120  aa   077777 000043    1041  	its	-1,1				"     3 search_proc,
    006121  aa   000001 000000
                                  1042  "
                                  1043  "	Root:			(subsystem_library subsystem ss
                                  1044  "				 online_libraries online on
                                  1045  "				 mail_system mlsys send_mail sdm "").(info "");
                                  1046  	even					"          (45)
                                  1047  						"     3 name,
    006122  a0   000000 024552    1048  	vfd	18/0,18/.mlsys.info
                                  1049  						"       4 O,
    006123  aa   000000 000044    1050  	dec	  36				"     3 path,
    006124  aa  076 144 157 143   1051  	aci	">doc>subsystem>mail_system>send_"
    006125  aa  076 163 165 142
    006126  aa  163 171 163 164
    006127  aa  145 155 076 155
    006130  aa  141 151 154 137
    006131  aa  163 171 163 164
    006132  aa  145 155 076 163
    006133  aa  145 156 144 137
    006134  aa  155 141 151 154   1052  	aci	"mail                            "
    006135  aa  040 040 040 040
    006136  aa  040 040 040 040
    006137  aa  040 040 040 040
    006140  aa  040 040 040 040
    006141  aa  040 040 040 040
    006142  aa  040 040 040 040
    006143  aa  040 040 040 040
    006144  aa  040 040 040 040   1053  	aci	"                                "
    006145  aa  040 040 040 040
    006146  aa  040 040 040 040
    006147  aa  040 040 040 040
    006150  aa  040 040 040 040
    006151  aa  040 040 040 040
    006152  aa  040 040 040 040
    006153  aa  040 040 040 040
    006154  aa  040 040 040 040   1054  	aci	"                                "
    006155  aa  040 040 040 040
    006156  aa  040 040 040 040
    006157  aa  040 040 040 040
    006160  aa  040 040 040 040
    006161  aa  040 040 040 040
    006162  aa  040 040 040 040
    006163  aa  040 040 040 040
    006164  aa  040 040 040 040   1055  	aci	"                                "
    006165  aa  040 040 040 040
    006166  aa  040 040 040 040
    006167  aa  040 040 040 040
    006170  aa  040 040 040 040
    006171  aa  040 040 040 040
    006172  aa  040 040 040 040
    006173  aa  040 040 040 040
    006174  aa  040 040 040 040   1056  	aci	"        "
    006175  aa  040 040 040 040
    006176  aa   000000 000002    1057  	dec	   2				"     3 type,
    006177  aa   000000 000046    1058  	dec	  38				"     3 search_proc_name,
    006200  aa  155 165 154 164   1059  	aci	"multics_library_search_$list_info_dirs                              "
    006201  aa  151 143 163 137
    006202  aa  154 151 142 162
    006203  aa  141 162 171 137
    006204  aa  163 145 141 162
    006205  aa  143 150 137 044
    006206  aa  154 151 163 164
    006207  aa  137 151 156 146
    006210  aa  157 137 144 151
    006211  aa  162 163 040 040
    006212  aa  040 040 040 040
    006213  aa  040 040 040 040
    006214  aa  040 040 040 040
    006215  aa  040 040 040 040
    006216  aa  040 040 040 040
    006217  aa  040 040 040 040
    006220  aa  040 040 040 040
    006221  aa   000000 0110 03   1060  	even
    006222  aa   200000 000041    1061  	itp	bp,search_procs+(3*2)-*
    006223  aa   020656 000000
    006224  aa   077777 000043    1062  	its	-1,1				"     3 search_proc,
    006225  aa   000001 000000
                                  1063  "
                                  1064  "	Root:			(subsystem_library subsystem ss
                                  1065  "				 online_libraries online on
                                  1066  "				 mail_system mlsys send_mail sdm "").(info "");
                                  1067  	even					"          (46)
                                  1068  						"     3 name,
    006226  a0   000000 025024    1069  	vfd	18/0,18/.mlsys
                                  1070  						"       4 O,
    006227  aa   000000 000066    1071  	dec	  54				"     3 path,
    006230  aa  076 144 157 143   1072  	aci	">doc>subsystem>mail_system>send_"
    006231  aa  076 163 165 142
    006232  aa  163 171 163 164
    006233  aa  145 155 076 155
    006234  aa  141 151 154 137
    006235  aa  163 171 163 164
    006236  aa  145 155 076 163
    006237  aa  145 156 144 137
    006240  aa  155 141 151 154   1073  	aci	"mail>original_requests          "
    006241  aa  076 157 162 151
    006242  aa  147 151 156 141
    006243  aa  154 137 162 145
    006244  aa  161 165 145 163
    006245  aa  164 163 040 040
    006246  aa  040 040 040 040
    006247  aa  040 040 040 040
    006250  aa  040 040 040 040   1074  	aci	"                                "
    006251  aa  040 040 040 040
    006252  aa  040 040 040 040
    006253  aa  040 040 040 040
    006254  aa  040 040 040 040
    006255  aa  040 040 040 040
    006256  aa  040 040 040 040
    006257  aa  040 040 040 040
    006260  aa  040 040 040 040   1075  	aci	"                                "
    006261  aa  040 040 040 040
    006262  aa  040 040 040 040
    006263  aa  040 040 040 040
    006264  aa  040 040 040 040
    006265  aa  040 040 040 040
    006266  aa  040 040 040 040
    006267  aa  040 040 040 040
    006270  aa  040 040 040 040   1076  	aci	"                                "
    006271  aa  040 040 040 040
    006272  aa  040 040 040 040
    006273  aa  040 040 040 040
    006274  aa  040 040 040 040
    006275  aa  040 040 040 040
    006276  aa  040 040 040 040
    006277  aa  040 040 040 040
    006300  aa  040 040 040 040   1077  	aci	"        "
    006301  aa  040 040 040 040
    006302  aa   000000 000002    1078  	dec	   2				"     3 type,
    006303  aa   000000 000046    1079  	dec	  38				"     3 search_proc_name,
    006304  aa  155 165 154 164   1080  	aci	"multics_library_search_$list_info_dirs                              "
    006305  aa  151 143 163 137
    006306  aa  154 151 142 162
    006307  aa  141 162 171 137
    006310  aa  163 145 141 162
    006311  aa  143 150 137 044
    006312  aa  154 151 163 164
    006313  aa  137 151 156 146
    006314  aa  157 137 144 151
    006315  aa  162 163 040 040
    006316  aa  040 040 040 040
    006317  aa  040 040 040 040
    006320  aa  040 040 040 040
    006321  aa  040 040 040 040
    006322  aa  040 040 040 040
    006323  aa  040 040 040 040
    006324  aa  040 040 040 040
    006325  aa   000000 0110 03   1081  	even
    006326  aa   200000 000041    1082  	itp	bp,search_procs+(3*2)-*
    006327  aa   020552 000000
    006330  aa   077777 000043    1083  	its	-1,1				"     3 search_proc,
    006331  aa   000001 000000
                                  1084  "
                                  1085  "	Root:			(subsystem_library subsystem ss
                                  1086  "				 online_libraries online on
                                  1087  "				 operator initializer "").(info "");
                                  1088  	even					"          (47)
                                  1089  						"     3 name,
    006332  a0   000000 025276    1090  	vfd	18/0,18/.operator.info
                                  1091  						"       4 O,
    006333  aa   000000 000027    1092  	dec	  23				"     3 path,
    006334  aa  076 144 157 143   1093  	aci	">doc>subsystem>operator         "
    006335  aa  076 163 165 142
    006336  aa  163 171 163 164
    006337  aa  145 155 076 157
    006340  aa  160 145 162 141
    006341  aa  164 157 162 040
    006342  aa  040 040 040 040
    006343  aa  040 040 040 040
    006344  aa  040 040 040 040   1094  	aci	"                                "
    006345  aa  040 040 040 040
    006346  aa  040 040 040 040
    006347  aa  040 040 040 040
    006350  aa  040 040 040 040
    006351  aa  040 040 040 040
    006352  aa  040 040 040 040
    006353  aa  040 040 040 040
    006354  aa  040 040 040 040   1095  	aci	"                                "
    006355  aa  040 040 040 040
    006356  aa  040 040 040 040
    006357  aa  040 040 040 040
    006360  aa  040 040 040 040
    006361  aa  040 040 040 040
    006362  aa  040 040 040 040
    006363  aa  040 040 040 040
    006364  aa  040 040 040 040   1096  	aci	"                                "
    006365  aa  040 040 040 040
    006366  aa  040 040 040 040
    006367  aa  040 040 040 040
    006370  aa  040 040 040 040
    006371  aa  040 040 040 040
    006372  aa  040 040 040 040
    006373  aa  040 040 040 040
    006374  aa  040 040 040 040   1097  	aci	"                                "
    006375  aa  040 040 040 040
    006376  aa  040 040 040 040
    006377  aa  040 040 040 040
    006400  aa  040 040 040 040
    006401  aa  040 040 040 040
    006402  aa  040 040 040 040
    006403  aa  040 040 040 040
    006404  aa  040 040 040 040   1098  	aci	"        "
    006405  aa  040 040 040 040
    006406  aa   000000 000002    1099  	dec	   2				"     3 type,
    006407  aa   000000 000046    1100  	dec	  38				"     3 search_proc_name,
    006410  aa  155 165 154 164   1101  	aci	"multics_library_search_$list_info_dirs                              "
    006411  aa  151 143 163 137
    006412  aa  154 151 142 162
    006413  aa  141 162 171 137
    006414  aa  163 145 141 162
    006415  aa  143 150 137 044
    006416  aa  154 151 163 164
    006417  aa  137 151 156 146
    006420  aa  157 137 144 151
    006421  aa  162 163 040 040
    006422  aa  040 040 040 040
    006423  aa  040 040 040 040
    006424  aa  040 040 040 040
    006425  aa  040 040 040 040
    006426  aa  040 040 040 040
    006427  aa  040 040 040 040
    006430  aa  040 040 040 040
    006431  aa   000000 0110 03   1102  	even
    006432  aa   200000 000041    1103  	itp	bp,search_procs+(3*2)-*
    006433  aa   020446 000000
    006434  aa   077777 000043    1104  	its	-1,1				"     3 search_proc,
    006435  aa   000001 000000
                                  1105  "
                                  1106  "	Root:			(subsystem_library subsystem ss
                                  1107  "				 online_libraries online on
                                  1108  "				 r1_initializer "").(info "");
                                  1109  	even					"          (48)
                                  1110  						"     3 name,
    006436  a0   000000 025510    1111  	vfd	18/0,18/.r1_initializer.info
                                  1112  						"       4 O,
    006437  aa   000000 000035    1113  	dec	  29				"     3 path,
    006440  aa  076 144 157 143   1114  	aci	">doc>subsystem>r1_initializer   "
    006441  aa  076 163 165 142
    006442  aa  163 171 163 164
    006443  aa  145 155 076 162
    006444  aa  061 137 151 156
    006445  aa  151 164 151 141
    006446  aa  154 151 172 145
    006447  aa  162 040 040 040
    006450  aa  040 040 040 040   1115  	aci	"                                "
    006451  aa  040 040 040 040
    006452  aa  040 040 040 040
    006453  aa  040 040 040 040
    006454  aa  040 040 040 040
    006455  aa  040 040 040 040
    006456  aa  040 040 040 040
    006457  aa  040 040 040 040
    006460  aa  040 040 040 040   1116  	aci	"                                "
    006461  aa  040 040 040 040
    006462  aa  040 040 040 040
    006463  aa  040 040 040 040
    006464  aa  040 040 040 040
    006465  aa  040 040 040 040
    006466  aa  040 040 040 040
    006467  aa  040 040 040 040
    006470  aa  040 040 040 040   1117  	aci	"                                "
    006471  aa  040 040 040 040
    006472  aa  040 040 040 040
    006473  aa  040 040 040 040
    006474  aa  040 040 040 040
    006475  aa  040 040 040 040
    006476  aa  040 040 040 040
    006477  aa  040 040 040 040
    006500  aa  040 040 040 040   1118  	aci	"                                "
    006501  aa  040 040 040 040
    006502  aa  040 040 040 040
    006503  aa  040 040 040 040
    006504  aa  040 040 040 040
    006505  aa  040 040 040 040
    006506  aa  040 040 040 040
    006507  aa  040 040 040 040
    006510  aa  040 040 040 040   1119  	aci	"        "
    006511  aa  040 040 040 040
    006512  aa   000000 000002    1120  	dec	   2				"     3 type,
    006513  aa   000000 000046    1121  	dec	  38				"     3 search_proc_name,
    006514  aa  155 165 154 164   1122  	aci	"multics_library_search_$list_info_dirs                              "
    006515  aa  151 143 163 137
    006516  aa  154 151 142 162
    006517  aa  141 162 171 137
    006520  aa  163 145 141 162
    006521  aa  143 150 137 044
    006522  aa  154 151 163 164
    006523  aa  137 151 156 146
    006524  aa  157 137 144 151
    006525  aa  162 163 040 040
    006526  aa  040 040 040 040
    006527  aa  040 040 040 040
    006530  aa  040 040 040 040
    006531  aa  040 040 040 040
    006532  aa  040 040 040 040
    006533  aa  040 040 040 040
    006534  aa  040 040 040 040
    006535  aa   000000 0110 03   1123  	even
    006536  aa   200000 000041    1124  	itp	bp,search_procs+(3*2)-*
    006537  aa   020342 000000
    006540  aa   077777 000043    1125  	its	-1,1				"     3 search_proc,
    006541  aa   000001 000000
                                  1126  "
                                  1127  "	Root:			(subsystem_library subsystem ss
                                  1128  "				 online_libraries online on
                                  1129  "				 report_writer_ rw_ report_writer rw "").(info "");
                                  1130  	even					"          (49)
                                  1131  						"     3 name,
    006542  a0   000000 025702    1132  	vfd	18/0,18/.report_writer_.info
                                  1133  						"       4 O,
    006543  aa   000000 000046    1134  	dec	  38				"     3 path,
    006544  aa  076 144 157 143   1135  	aci	">doc>subsystem>report_writer_inf"
    006545  aa  076 163 165 142
    006546  aa  163 171 163 164
    006547  aa  145 155 076 162
    006550  aa  145 160 157 162
    006551  aa  164 137 167 162
    006552  aa  151 164 145 162
    006553  aa  137 151 156 146
    006554  aa  157 137 144 151   1136  	aci	"o_dirs                          "
    006555  aa  162 163 040 040
    006556  aa  040 040 040 040
    006557  aa  040 040 040 040
    006560  aa  040 040 040 040
    006561  aa  040 040 040 040
    006562  aa  040 040 040 040
    006563  aa  040 040 040 040
    006564  aa  040 040 040 040   1137  	aci	"                                "
    006565  aa  040 040 040 040
    006566  aa  040 040 040 040
    006567  aa  040 040 040 040
    006570  aa  040 040 040 040
    006571  aa  040 040 040 040
    006572  aa  040 040 040 040
    006573  aa  040 040 040 040
    006574  aa  040 040 040 040   1138  	aci	"                                "
    006575  aa  040 040 040 040
    006576  aa  040 040 040 040
    006577  aa  040 040 040 040
    006600  aa  040 040 040 040
    006601  aa  040 040 040 040
    006602  aa  040 040 040 040
    006603  aa  040 040 040 040
    006604  aa  040 040 040 040   1139  	aci	"                                "
    006605  aa  040 040 040 040
    006606  aa  040 040 040 040
    006607  aa  040 040 040 040
    006610  aa  040 040 040 040
    006611  aa  040 040 040 040
    006612  aa  040 040 040 040
    006613  aa  040 040 040 040
    006614  aa  040 040 040 040   1140  	aci	"        "
    006615  aa  040 040 040 040
    006616  aa   000000 000002    1141  	dec	   2				"     3 type,
    006617  aa   000000 000046    1142  	dec	  38				"     3 search_proc_name,
    006620  aa  155 165 154 164   1143  	aci	"multics_library_search_$list_info_dirs                              "
    006621  aa  151 143 163 137
    006622  aa  154 151 142 162
    006623  aa  141 162 171 137
    006624  aa  163 145 141 162
    006625  aa  143 150 137 044
    006626  aa  154 151 163 164
    006627  aa  137 151 156 146
    006630  aa  157 137 144 151
    006631  aa  162 163 040 040
    006632  aa  040 040 040 040
    006633  aa  040 040 040 040
    006634  aa  040 040 040 040
    006635  aa  040 040 040 040
    006636  aa  040 040 040 040
    006637  aa  040 040 040 040
    006640  aa  040 040 040 040
    006641  aa   000000 0110 03   1144  	even
    006642  aa   200000 000041    1145  	itp	bp,search_procs+(3*2)-*
    006643  aa   020236 000000
    006644  aa   077777 000043    1146  	its	-1,1				"     3 search_proc,
    006645  aa   000001 000000
                                  1147  "
                                  1148  "	Root:			(subsystem_library subsystem ss
                                  1149  "				 online_libraries online on
                                  1150  "				 restructure_mrds_db rmdb "").(info "");
                                  1151  	even					"          (50)
                                  1152  						"     3 name,
    006646  a0   000000 026154    1153  	vfd	18/0,18/.restructure_mrds_db.info
                                  1154  						"       4 O,
    006647  aa   000000 000023    1155  	dec	  19				"     3 path,
    006650  aa  076 144 157 143   1156  	aci	">doc>subsystem>rmdb             "
    006651  aa  076 163 165 142
    006652  aa  163 171 163 164
    006653  aa  145 155 076 162
    006654  aa  155 144 142 040
    006655  aa  040 040 040 040
    006656  aa  040 040 040 040
    006657  aa  040 040 040 040
    006660  aa  040 040 040 040   1157  	aci	"                                "
    006661  aa  040 040 040 040
    006662  aa  040 040 040 040
    006663  aa  040 040 040 040
    006664  aa  040 040 040 040
    006665  aa  040 040 040 040
    006666  aa  040 040 040 040
    006667  aa  040 040 040 040
    006670  aa  040 040 040 040   1158  	aci	"                                "
    006671  aa  040 040 040 040
    006672  aa  040 040 040 040
    006673  aa  040 040 040 040
    006674  aa  040 040 040 040
    006675  aa  040 040 040 040
    006676  aa  040 040 040 040
    006677  aa  040 040 040 040
    006700  aa  040 040 040 040   1159  	aci	"                                "
    006701  aa  040 040 040 040
    006702  aa  040 040 040 040
    006703  aa  040 040 040 040
    006704  aa  040 040 040 040
    006705  aa  040 040 040 040
    006706  aa  040 040 040 040
    006707  aa  040 040 040 040
    006710  aa  040 040 040 040   1160  	aci	"                                "
    006711  aa  040 040 040 040
    006712  aa  040 040 040 040
    006713  aa  040 040 040 040
    006714  aa  040 040 040 040
    006715  aa  040 040 040 040
    006716  aa  040 040 040 040
    006717  aa  040 040 040 040
    006720  aa  040 040 040 040   1161  	aci	"        "
    006721  aa  040 040 040 040
    006722  aa   000000 000002    1162  	dec	   2				"     3 type,
    006723  aa   000000 000046    1163  	dec	  38				"     3 search_proc_name,
    006724  aa  155 165 154 164   1164  	aci	"multics_library_search_$list_info_dirs                              "
    006725  aa  151 143 163 137
    006726  aa  154 151 142 162
    006727  aa  141 162 171 137
    006730  aa  163 145 141 162
    006731  aa  143 150 137 044
    006732  aa  154 151 163 164
    006733  aa  137 151 156 146
    006734  aa  157 137 144 151
    006735  aa  162 163 040 040
    006736  aa  040 040 040 040
    006737  aa  040 040 040 040
    006740  aa  040 040 040 040
    006741  aa  040 040 040 040
    006742  aa  040 040 040 040
    006743  aa  040 040 040 040
    006744  aa  040 040 040 040
    006745  aa   000000 0110 03   1165  	even
    006746  aa   200000 000041    1166  	itp	bp,search_procs+(3*2)-*
    006747  aa   020132 000000
    006750  aa   077777 000043    1167  	its	-1,1				"     3 search_proc,
    006751  aa   000001 000000
                                  1168  "
                                  1169  "	Root:			(subsystem_library subsystem ss
                                  1170  "				 online_libraries online on
                                  1171  "				 ssu_ ssu "").(info "");
                                  1172  	even					"          (51)
                                  1173  						"     3 name,
    006752  a0   000000 026366    1174  	vfd	18/0,18/.ssu_.info
                                  1175  						"       4 O,
    006753  aa   000000 000016    1176  	dec	  14				"     3 path,
    006754  aa  076 144 157 143   1177  	aci	">doc>subsystem                  "
    006755  aa  076 163 165 142
    006756  aa  163 171 163 164
    006757  aa  145 155 040 040
    006760  aa  040 040 040 040
    006761  aa  040 040 040 040
    006762  aa  040 040 040 040
    006763  aa  040 040 040 040
    006764  aa  040 040 040 040   1178  	aci	"                                "
    006765  aa  040 040 040 040
    006766  aa  040 040 040 040
    006767  aa  040 040 040 040
    006770  aa  040 040 040 040
    006771  aa  040 040 040 040
    006772  aa  040 040 040 040
    006773  aa  040 040 040 040
    006774  aa  040 040 040 040   1179  	aci	"                                "
    006775  aa  040 040 040 040
    006776  aa  040 040 040 040
    006777  aa  040 040 040 040
    007000  aa  040 040 040 040
    007001  aa  040 040 040 040
    007002  aa  040 040 040 040
    007003  aa  040 040 040 040
    007004  aa  040 040 040 040   1180  	aci	"                                "
    007005  aa  040 040 040 040
    007006  aa  040 040 040 040
    007007  aa  040 040 040 040
    007010  aa  040 040 040 040
    007011  aa  040 040 040 040
    007012  aa  040 040 040 040
    007013  aa  040 040 040 040
    007014  aa  040 040 040 040   1181  	aci	"                                "
    007015  aa  040 040 040 040
    007016  aa  040 040 040 040
    007017  aa  040 040 040 040
    007020  aa  040 040 040 040
    007021  aa  040 040 040 040
    007022  aa  040 040 040 040
    007023  aa  040 040 040 040
    007024  aa  040 040 040 040   1182  	aci	"        "
    007025  aa  040 040 040 040
    007026  aa   000000 000002    1183  	dec	   2				"     3 type,
    007027  aa   000000 000046    1184  	dec	  38				"     3 search_proc_name,
    007030  aa  155 165 154 164   1185  	aci	"multics_library_search_$list_info_dirs                              "
    007031  aa  151 143 163 137
    007032  aa  154 151 142 162
    007033  aa  141 162 171 137
    007034  aa  163 145 141 162
    007035  aa  143 150 137 044
    007036  aa  154 151 163 164
    007037  aa  137 151 156 146
    007040  aa  157 137 144 151
    007041  aa  162 163 040 040
    007042  aa  040 040 040 040
    007043  aa  040 040 040 040
    007044  aa  040 040 040 040
    007045  aa  040 040 040 040
    007046  aa  040 040 040 040
    007047  aa  040 040 040 040
    007050  aa  040 040 040 040
    007051  aa   000000 0110 03   1186  	even
    007052  aa   200000 000041    1187  	itp	bp,search_procs+(3*2)-*
    007053  aa   020026 000000
    007054  aa   077777 000043    1188  	its	-1,1				"     3 search_proc,
    007055  aa   000001 000000
                                  1189  "
                                  1190  "	Root:			(user_library user auth_maint am
                                  1191  "				 installation_library inst install_maint iml
                                  1192  "				 online_libraries online on ""              ).(info "");
                                  1193  	even					"          (52)
                                  1194  						"     3 name,
    007056  a0   000000 026600    1195  	vfd	18/0,18/.user_library.info
                                  1196  						"       4 O,
    007057  aa   000000 000010    1197  	dec	   8				"     3 path,
    007060  aa  076 144 157 143   1198  	aci	">doc>iis                        "
    007061  aa  076 151 151 163
    007062  aa  040 040 040 040
    007063  aa  040 040 040 040
    007064  aa  040 040 040 040
    007065  aa  040 040 040 040
    007066  aa  040 040 040 040
    007067  aa  040 040 040 040
    007070  aa  040 040 040 040   1199  	aci	"                                "
    007071  aa  040 040 040 040
    007072  aa  040 040 040 040
    007073  aa  040 040 040 040
    007074  aa  040 040 040 040
    007075  aa  040 040 040 040
    007076  aa  040 040 040 040
    007077  aa  040 040 040 040
    007100  aa  040 040 040 040   1200  	aci	"                                "
    007101  aa  040 040 040 040
    007102  aa  040 040 040 040
    007103  aa  040 040 040 040
    007104  aa  040 040 040 040
    007105  aa  040 040 040 040
    007106  aa  040 040 040 040
    007107  aa  040 040 040 040
    007110  aa  040 040 040 040   1201  	aci	"                                "
    007111  aa  040 040 040 040
    007112  aa  040 040 040 040
    007113  aa  040 040 040 040
    007114  aa  040 040 040 040
    007115  aa  040 040 040 040
    007116  aa  040 040 040 040
    007117  aa  040 040 040 040
    007120  aa  040 040 040 040   1202  	aci	"                                "
    007121  aa  040 040 040 040
    007122  aa  040 040 040 040
    007123  aa  040 040 040 040
    007124  aa  040 040 040 040
    007125  aa  040 040 040 040
    007126  aa  040 040 040 040
    007127  aa  040 040 040 040
    007130  aa  040 040 040 040   1203  	aci	"        "
    007131  aa  040 040 040 040
    007132  aa   000000 000002    1204  	dec	   2				"     3 type,
    007133  aa   000000 000046    1205  	dec	  38				"     3 search_proc_name,
    007134  aa  155 165 154 164   1206  	aci	"multics_library_search_$list_info_dirs                              "
    007135  aa  151 143 163 137
    007136  aa  154 151 142 162
    007137  aa  141 162 171 137
    007140  aa  163 145 141 162
    007141  aa  143 150 137 044
    007142  aa  154 151 163 164
    007143  aa  137 151 156 146
    007144  aa  157 137 144 151
    007145  aa  162 163 040 040
    007146  aa  040 040 040 040
    007147  aa  040 040 040 040
    007150  aa  040 040 040 040
    007151  aa  040 040 040 040
    007152  aa  040 040 040 040
    007153  aa  040 040 040 040
    007154  aa  040 040 040 040
    007155  aa   000000 0110 03   1207  	even
    007156  aa   200000 000041    1208  	itp	bp,search_procs+(3*2)-*
    007157  aa   017722 000000
    007160  aa   077777 000043    1209  	its	-1,1				"     3 search_proc;
    007161  aa   000001 000000
                                  1210  						" 
                                  1211  	even
    007162                        1212  .standard_library.source:
                                  1213  						" 1 root_names,
    007162  aa   000000 000024    1214  	dec	20				"   2 N,
                                  1215  						"   2 root_name (20);
    007163  aa  163 164 141 156   1216  	aci	"standard_library.source         "
    007164  aa  144 141 162 144
    007165  aa  137 154 151 142
    007166  aa  162 141 162 171
    007167  aa  056 163 157 165
    007170  aa  162 143 145 040
    007171  aa  040 040 040 040
    007172  aa  040 040 040 040
    007173  aa  163 164 141 156   1217  	aci	"standard_library.s              "
    007174  aa  144 141 162 144
    007175  aa  137 154 151 142
    007176  aa  162 141 162 171
    007177  aa  056 163 040 040
    007200  aa  040 040 040 040
    007201  aa  040 040 040 040
    007202  aa  040 040 040 040
    007203  aa  163 164 141 156   1218  	aci	"standard_library                "
    007204  aa  144 141 162 144
    007205  aa  137 154 151 142
    007206  aa  162 141 162 171
    007207  aa  040 040 040 040
    007210  aa  040 040 040 040
    007211  aa  040 040 040 040
    007212  aa  040 040 040 040
    007213  aa  163 164 144 056   1219  	aci	"std.source                      "
    007214  aa  163 157 165 162
    007215  aa  143 145 040 040
    007216  aa  040 040 040 040
    007217  aa  040 040 040 040
    007220  aa  040 040 040 040
    007221  aa  040 040 040 040
    007222  aa  040 040 040 040
    007223  aa  163 164 144 056   1220  	aci	"std.s                           "
    007224  aa  163 040 040 040
    007225  aa  040 040 040 040
    007226  aa  040 040 040 040
    007227  aa  040 040 040 040
    007230  aa  040 040 040 040
    007231  aa  040 040 040 040
    007232  aa  040 040 040 040
    007233  aa  163 164 144 040   1221  	aci	"std                             "
    007234  aa  040 040 040 040
    007235  aa  040 040 040 040
    007236  aa  040 040 040 040
    007237  aa  040 040 040 040
    007240  aa  040 040 040 040
    007241  aa  040 040 040 040
    007242  aa  040 040 040 040
    007243  aa  163 163 163 056   1222  	aci	"sss.source                      "
    007244  aa  163 157 165 162
    007245  aa  143 145 040 040
    007246  aa  040 040 040 040
    007247  aa  040 040 040 040
    007250  aa  040 040 040 040
    007251  aa  040 040 040 040
    007252  aa  040 040 040 040
    007253  aa  163 163 163 056   1223  	aci	"sss.s                           "
    007254  aa  163 040 040 040
    007255  aa  040 040 040 040
    007256  aa  040 040 040 040
    007257  aa  040 040 040 040
    007260  aa  040 040 040 040
    007261  aa  040 040 040 040
    007262  aa  040 040 040 040
    007263  aa  163 163 163 040   1224  	aci	"sss                             "
    007264  aa  040 040 040 040
    007265  aa  040 040 040 040
    007266  aa  040 040 040 040
    007267  aa  040 040 040 040
    007270  aa  040 040 040 040
    007271  aa  040 040 040 040
    007272  aa  040 040 040 040
    007273  aa  157 156 154 151   1225  	aci	"online_libraries.source         "
    007274  aa  156 145 137 154
    007275  aa  151 142 162 141
    007276  aa  162 151 145 163
    007277  aa  056 163 157 165
    007300  aa  162 143 145 040
    007301  aa  040 040 040 040
    007302  aa  040 040 040 040
    007303  aa  157 156 154 151   1226  	aci	"online_libraries.s              "
    007304  aa  156 145 137 154
    007305  aa  151 142 162 141
    007306  aa  162 151 145 163
    007307  aa  056 163 040 040
    007310  aa  040 040 040 040
    007311  aa  040 040 040 040
    007312  aa  040 040 040 040
    007313  aa  157 156 154 151   1227  	aci	"online_libraries                "
    007314  aa  156 145 137 154
    007315  aa  151 142 162 141
    007316  aa  162 151 145 163
    007317  aa  040 040 040 040
    007320  aa  040 040 040 040
    007321  aa  040 040 040 040
    007322  aa  040 040 040 040
    007323  aa  157 156 154 151   1228  	aci	"online.source                   "
    007324  aa  156 145 056 163
    007325  aa  157 165 162 143
    007326  aa  145 040 040 040
    007327  aa  040 040 040 040
    007330  aa  040 040 040 040
    007331  aa  040 040 040 040
    007332  aa  040 040 040 040
    007333  aa  157 156 154 151   1229  	aci	"online.s                        "
    007334  aa  156 145 056 163
    007335  aa  040 040 040 040
    007336  aa  040 040 040 040
    007337  aa  040 040 040 040
    007340  aa  040 040 040 040
    007341  aa  040 040 040 040
    007342  aa  040 040 040 040
    007343  aa  157 156 154 151   1230  	aci	"online                          "
    007344  aa  156 145 040 040
    007345  aa  040 040 040 040
    007346  aa  040 040 040 040
    007347  aa  040 040 040 040
    007350  aa  040 040 040 040
    007351  aa  040 040 040 040
    007352  aa  040 040 040 040
    007353  aa  157 156 056 163   1231  	aci	"on.source                       "
    007354  aa  157 165 162 143
    007355  aa  145 040 040 040
    007356  aa  040 040 040 040
    007357  aa  040 040 040 040
    007360  aa  040 040 040 040
    007361  aa  040 040 040 040
    007362  aa  040 040 040 040
    007363  aa  157 156 056 163   1232  	aci	"on.s                            "
    007364  aa  040 040 040 040
    007365  aa  040 040 040 040
    007366  aa  040 040 040 040
    007367  aa  040 040 040 040
    007370  aa  040 040 040 040
    007371  aa  040 040 040 040
    007372  aa  040 040 040 040
    007373  aa  157 156 040 040   1233  	aci	"on                              "
    007374  aa  040 040 040 040
    007375  aa  040 040 040 040
    007376  aa  040 040 040 040
    007377  aa  040 040 040 040
    007400  aa  040 040 040 040
    007401  aa  040 040 040 040
    007402  aa  040 040 040 040
    007403  aa  163 157 165 162   1234  	aci	"source                          "
    007404  aa  143 145 040 040
    007405  aa  040 040 040 040
    007406  aa  040 040 040 040
    007407  aa  040 040 040 040
    007410  aa  040 040 040 040
    007411  aa  040 040 040 040
    007412  aa  040 040 040 040
    007413  aa  163 040 040 040   1235  	aci	"s                               "
    007414  aa  040 040 040 040
    007415  aa  040 040 040 040
    007416  aa  040 040 040 040
    007417  aa  040 040 040 040
    007420  aa  040 040 040 040
    007421  aa  040 040 040 040
    007422  aa  040 040 040 040
    007423  aa   000000 0110 03   1236  	even
    007424                        1237  .standard_library.object:
                                  1238  						" 1 root_names,
    007424  aa   000000 000024    1239  	dec	20				"   2 N,
                                  1240  						"   2 root_name (20);
    007425  aa  163 164 141 156   1241  	aci	"standard_library.object         "
    007426  aa  144 141 162 144
    007427  aa  137 154 151 142
    007430  aa  162 141 162 171
    007431  aa  056 157 142 152
    007432  aa  145 143 164 040
    007433  aa  040 040 040 040
    007434  aa  040 040 040 040
    007435  aa  163 164 141 156   1242  	aci	"standard_library.o              "
    007436  aa  144 141 162 144
    007437  aa  137 154 151 142
    007440  aa  162 141 162 171
    007441  aa  056 157 040 040
    007442  aa  040 040 040 040
    007443  aa  040 040 040 040
    007444  aa  040 040 040 040
    007445  aa  163 164 141 156   1243  	aci	"standard_library                "
    007446  aa  144 141 162 144
    007447  aa  137 154 151 142
    007450  aa  162 141 162 171
    007451  aa  040 040 040 040
    007452  aa  040 040 040 040
    007453  aa  040 040 040 040
    007454  aa  040 040 040 040
    007455  aa  163 164 144 056   1244  	aci	"std.object                      "
    007456  aa  157 142 152 145
    007457  aa  143 164 040 040
    007460  aa  040 040 040 040
    007461  aa  040 040 040 040
    007462  aa  040 040 040 040
    007463  aa  040 040 040 040
    007464  aa  040 040 040 040
    007465  aa  163 164 144 056   1245  	aci	"std.o                           "
    007466  aa  157 040 040 040
    007467  aa  040 040 040 040
    007470  aa  040 040 040 040
    007471  aa  040 040 040 040
    007472  aa  040 040 040 040
    007473  aa  040 040 040 040
    007474  aa  040 040 040 040
    007475  aa  163 164 144 040   1246  	aci	"std                             "
    007476  aa  040 040 040 040
    007477  aa  040 040 040 040
    007500  aa  040 040 040 040
    007501  aa  040 040 040 040
    007502  aa  040 040 040 040
    007503  aa  040 040 040 040
    007504  aa  040 040 040 040
    007505  aa  163 163 163 056   1247  	aci	"sss.object                      "
    007506  aa  157 142 152 145
    007507  aa  143 164 040 040
    007510  aa  040 040 040 040
    007511  aa  040 040 040 040
    007512  aa  040 040 040 040
    007513  aa  040 040 040 040
    007514  aa  040 040 040 040
    007515  aa  163 163 163 056   1248  	aci	"sss.o                           "
    007516  aa  157 040 040 040
    007517  aa  040 040 040 040
    007520  aa  040 040 040 040
    007521  aa  040 040 040 040
    007522  aa  040 040 040 040
    007523  aa  040 040 040 040
    007524  aa  040 040 040 040
    007525  aa  163 163 163 040   1249  	aci	"sss                             "
    007526  aa  040 040 040 040
    007527  aa  040 040 040 040
    007530  aa  040 040 040 040
    007531  aa  040 040 040 040
    007532  aa  040 040 040 040
    007533  aa  040 040 040 040
    007534  aa  040 040 040 040
    007535  aa  157 156 154 151   1250  	aci	"online_libraries.object         "
    007536  aa  156 145 137 154
    007537  aa  151 142 162 141
    007540  aa  162 151 145 163
    007541  aa  056 157 142 152
    007542  aa  145 143 164 040
    007543  aa  040 040 040 040
    007544  aa  040 040 040 040
    007545  aa  157 156 154 151   1251  	aci	"online_libraries.o              "
    007546  aa  156 145 137 154
    007547  aa  151 142 162 141
    007550  aa  162 151 145 163
    007551  aa  056 157 040 040
    007552  aa  040 040 040 040
    007553  aa  040 040 040 040
    007554  aa  040 040 040 040
    007555  aa  157 156 154 151   1252  	aci	"online_libraries                "
    007556  aa  156 145 137 154
    007557  aa  151 142 162 141
    007560  aa  162 151 145 163
    007561  aa  040 040 040 040
    007562  aa  040 040 040 040
    007563  aa  040 040 040 040
    007564  aa  040 040 040 040
    007565  aa  157 156 154 151   1253  	aci	"online.object                   "
    007566  aa  156 145 056 157
    007567  aa  142 152 145 143
    007570  aa  164 040 040 040
    007571  aa  040 040 040 040
    007572  aa  040 040 040 040
    007573  aa  040 040 040 040
    007574  aa  040 040 040 040
    007575  aa  157 156 154 151   1254  	aci	"online.o                        "
    007576  aa  156 145 056 157
    007577  aa  040 040 040 040
    007600  aa  040 040 040 040
    007601  aa  040 040 040 040
    007602  aa  040 040 040 040
    007603  aa  040 040 040 040
    007604  aa  040 040 040 040
    007605  aa  157 156 154 151   1255  	aci	"online                          "
    007606  aa  156 145 040 040
    007607  aa  040 040 040 040
    007610  aa  040 040 040 040
    007611  aa  040 040 040 040
    007612  aa  040 040 040 040
    007613  aa  040 040 040 040
    007614  aa  040 040 040 040
    007615  aa  157 156 056 157   1256  	aci	"on.object                       "
    007616  aa  142 152 145 143
    007617  aa  164 040 040 040
    007620  aa  040 040 040 040
    007621  aa  040 040 040 040
    007622  aa  040 040 040 040
    007623  aa  040 040 040 040
    007624  aa  040 040 040 040
    007625  aa  157 156 056 157   1257  	aci	"on.o                            "
    007626  aa  040 040 040 040
    007627  aa  040 040 040 040
    007630  aa  040 040 040 040
    007631  aa  040 040 040 040
    007632  aa  040 040 040 040
    007633  aa  040 040 040 040
    007634  aa  040 040 040 040
    007635  aa  157 156 040 040   1258  	aci	"on                              "
    007636  aa  040 040 040 040
    007637  aa  040 040 040 040
    007640  aa  040 040 040 040
    007641  aa  040 040 040 040
    007642  aa  040 040 040 040
    007643  aa  040 040 040 040
    007644  aa  040 040 040 040
    007645  aa  157 142 152 145   1259  	aci	"object                          "
    007646  aa  143 164 040 040
    007647  aa  040 040 040 040
    007650  aa  040 040 040 040
    007651  aa  040 040 040 040
    007652  aa  040 040 040 040
    007653  aa  040 040 040 040
    007654  aa  040 040 040 040
    007655  aa  157 040 040 040   1260  	aci	"o                               "
    007656  aa  040 040 040 040
    007657  aa  040 040 040 040
    007660  aa  040 040 040 040
    007661  aa  040 040 040 040
    007662  aa  040 040 040 040
    007663  aa  040 040 040 040
    007664  aa  040 040 040 040
    007665  aa   000000 0110 03   1261  	even
    007666                        1262  .standard_library.listings:
                                  1263  						" 1 root_names,
    007666  aa   000000 000007    1264  	dec	7				"   2 N,
                                  1265  						"   2 root_name (7);
    007667  aa  163 164 141 156   1266  	aci	"standard_library.listings       "
    007670  aa  144 141 162 144
    007671  aa  137 154 151 142
    007672  aa  162 141 162 171
    007673  aa  056 154 151 163
    007674  aa  164 151 156 147
    007675  aa  163 040 040 040
    007676  aa  040 040 040 040
    007677  aa  163 164 144 056   1267  	aci	"std.listings                    "
    007700  aa  154 151 163 164
    007701  aa  151 156 147 163
    007702  aa  040 040 040 040
    007703  aa  040 040 040 040
    007704  aa  040 040 040 040
    007705  aa  040 040 040 040
    007706  aa  040 040 040 040
    007707  aa  163 163 163 056   1268  	aci	"sss.listings                    "
    007710  aa  154 151 163 164
    007711  aa  151 156 147 163
    007712  aa  040 040 040 040
    007713  aa  040 040 040 040
    007714  aa  040 040 040 040
    007715  aa  040 040 040 040
    007716  aa  040 040 040 040
    007717  aa  157 156 154 151   1269  	aci	"online_libraries.listings       "
    007720  aa  156 145 137 154
    007721  aa  151 142 162 141
    007722  aa  162 151 145 163
    007723  aa  056 154 151 163
    007724  aa  164 151 156 147
    007725  aa  163 040 040 040
    007726  aa  040 040 040 040
    007727  aa  157 156 154 151   1270  	aci	"online.listings                 "
    007730  aa  156 145 056 154
    007731  aa  151 163 164 151
    007732  aa  156 147 163 040
    007733  aa  040 040 040 040
    007734  aa  040 040 040 040
    007735  aa  040 040 040 040
    007736  aa  040 040 040 040
    007737  aa  157 156 056 154   1271  	aci	"on.listings                     "
    007740  aa  151 163 164 151
    007741  aa  156 147 163 040
    007742  aa  040 040 040 040
    007743  aa  040 040 040 040
    007744  aa  040 040 040 040
    007745  aa  040 040 040 040
    007746  aa  040 040 040 040
    007747  aa  154 151 163 164   1272  	aci	"listings                        "
    007750  aa  151 156 147 163
    007751  aa  040 040 040 040
    007752  aa  040 040 040 040
    007753  aa  040 040 040 040
    007754  aa  040 040 040 040
    007755  aa  040 040 040 040
    007756  aa  040 040 040 040
    007757  aa   000000 0110 03   1273  	even
    007760                        1274  .standard_library.execution:
                                  1275  						" 1 root_names,
    007760  aa   000000 000032    1276  	dec	26				"   2 N,
                                  1277  						"   2 root_name (26);
    007761  aa  163 164 141 156   1278  	aci	"standard_library.execution      "
    007762  aa  144 141 162 144
    007763  aa  137 154 151 142
    007764  aa  162 141 162 171
    007765  aa  056 145 170 145
    007766  aa  143 165 164 151
    007767  aa  157 156 040 040
    007770  aa  040 040 040 040
    007771  aa  163 164 141 156   1279  	aci	"standard_library.x              "
    007772  aa  144 141 162 144
    007773  aa  137 154 151 142
    007774  aa  162 141 162 171
    007775  aa  056 170 040 040
    007776  aa  040 040 040 040
    007777  aa  040 040 040 040
    010000  aa  040 040 040 040
    010001  aa  163 164 141 156   1280  	aci	"standard_library                "
    010002  aa  144 141 162 144
    010003  aa  137 154 151 142
    010004  aa  162 141 162 171
    010005  aa  040 040 040 040
    010006  aa  040 040 040 040
    010007  aa  040 040 040 040
    010010  aa  040 040 040 040
    010011  aa  163 164 144 056   1281  	aci	"std.execution                   "
    010012  aa  145 170 145 143
    010013  aa  165 164 151 157
    010014  aa  156 040 040 040
    010015  aa  040 040 040 040
    010016  aa  040 040 040 040
    010017  aa  040 040 040 040
    010020  aa  040 040 040 040
    010021  aa  163 164 144 056   1282  	aci	"std.x                           "
    010022  aa  170 040 040 040
    010023  aa  040 040 040 040
    010024  aa  040 040 040 040
    010025  aa  040 040 040 040
    010026  aa  040 040 040 040
    010027  aa  040 040 040 040
    010030  aa  040 040 040 040
    010031  aa  163 164 144 040   1283  	aci	"std                             "
    010032  aa  040 040 040 040
    010033  aa  040 040 040 040
    010034  aa  040 040 040 040
    010035  aa  040 040 040 040
    010036  aa  040 040 040 040
    010037  aa  040 040 040 040
    010040  aa  040 040 040 040
    010041  aa  163 163 163 056   1284  	aci	"sss.execution                   "
    010042  aa  145 170 145 143
    010043  aa  165 164 151 157
    010044  aa  156 040 040 040
    010045  aa  040 040 040 040
    010046  aa  040 040 040 040
    010047  aa  040 040 040 040
    010050  aa  040 040 040 040
    010051  aa  163 163 163 056   1285  	aci	"sss.x                           "
    010052  aa  170 040 040 040
    010053  aa  040 040 040 040
    010054  aa  040 040 040 040
    010055  aa  040 040 040 040
    010056  aa  040 040 040 040
    010057  aa  040 040 040 040
    010060  aa  040 040 040 040
    010061  aa  163 163 163 040   1286  	aci	"sss                             "
    010062  aa  040 040 040 040
    010063  aa  040 040 040 040
    010064  aa  040 040 040 040
    010065  aa  040 040 040 040
    010066  aa  040 040 040 040
    010067  aa  040 040 040 040
    010070  aa  040 040 040 040
    010071  aa  157 156 154 151   1287  	aci	"online_libraries.execution      "
    010072  aa  156 145 137 154
    010073  aa  151 142 162 141
    010074  aa  162 151 145 163
    010075  aa  056 145 170 145
    010076  aa  143 165 164 151
    010077  aa  157 156 040 040
    010100  aa  040 040 040 040
    010101  aa  157 156 154 151   1288  	aci	"online_libraries.x              "
    010102  aa  156 145 137 154
    010103  aa  151 142 162 141
    010104  aa  162 151 145 163
    010105  aa  056 170 040 040
    010106  aa  040 040 040 040
    010107  aa  040 040 040 040
    010110  aa  040 040 040 040
    010111  aa  157 156 154 151   1289  	aci	"online_libraries                "
    010112  aa  156 145 137 154
    010113  aa  151 142 162 141
    010114  aa  162 151 145 163
    010115  aa  040 040 040 040
    010116  aa  040 040 040 040
    010117  aa  040 040 040 040
    010120  aa  040 040 040 040
    010121  aa  157 156 154 151   1290  	aci	"online.execution                "
    010122  aa  156 145 056 145
    010123  aa  170 145 143 165
    010124  aa  164 151 157 156
    010125  aa  040 040 040 040
    010126  aa  040 040 040 040
    010127  aa  040 040 040 040
    010130  aa  040 040 040 040
    010131  aa  157 156 154 151   1291  	aci	"online.x                        "
    010132  aa  156 145 056 170
    010133  aa  040 040 040 040
    010134  aa  040 040 040 040
    010135  aa  040 040 040 040
    010136  aa  040 040 040 040
    010137  aa  040 040 040 040
    010140  aa  040 040 040 040
    010141  aa  157 156 154 151   1292  	aci	"online                          "
    010142  aa  156 145 040 040
    010143  aa  040 040 040 040
    010144  aa  040 040 040 040
    010145  aa  040 040 040 040
    010146  aa  040 040 040 040
    010147  aa  040 040 040 040
    010150  aa  040 040 040 040
    010151  aa  157 156 056 145   1293  	aci	"on.execution                    "
    010152  aa  170 145 143 165
    010153  aa  164 151 157 156
    010154  aa  040 040 040 040
    010155  aa  040 040 040 040
    010156  aa  040 040 040 040
    010157  aa  040 040 040 040
    010160  aa  040 040 040 040
    010161  aa  157 156 056 170   1294  	aci	"on.x                            "
    010162  aa  040 040 040 040
    010163  aa  040 040 040 040
    010164  aa  040 040 040 040
    010165  aa  040 040 040 040
    010166  aa  040 040 040 040
    010167  aa  040 040 040 040
    010170  aa  040 040 040 040
    010171  aa  157 156 040 040   1295  	aci	"on                              "
    010172  aa  040 040 040 040
    010173  aa  040 040 040 040
    010174  aa  040 040 040 040
    010175  aa  040 040 040 040
    010176  aa  040 040 040 040
    010177  aa  040 040 040 040
    010200  aa  040 040 040 040
    010201  aa  145 170 145 143   1296  	aci	"execution                       "
    010202  aa  165 164 151 157
    010203  aa  156 040 040 040
    010204  aa  040 040 040 040
    010205  aa  040 040 040 040
    010206  aa  040 040 040 040
    010207  aa  040 040 040 040
    010210  aa  040 040 040 040
    010211  aa  170 040 040 040   1297  	aci	"x                               "
    010212  aa  040 040 040 040
    010213  aa  040 040 040 040
    010214  aa  040 040 040 040
    010215  aa  040 040 040 040
    010216  aa  040 040 040 040
    010217  aa  040 040 040 040
    010220  aa  040 040 040 040
    010221  aa  154 141 156 147   1298  	aci	"languages_library.execution     "
    010222  aa  165 141 147 145
    010223  aa  163 137 154 151
    010224  aa  142 162 141 162
    010225  aa  171 056 145 170
    010226  aa  145 143 165 164
    010227  aa  151 157 156 040
    010230  aa  040 040 040 040
    010231  aa  154 141 156 147   1299  	aci	"languages_library.x             "
    010232  aa  165 141 147 145
    010233  aa  163 137 154 151
    010234  aa  142 162 141 162
    010235  aa  171 056 170 040
    010236  aa  040 040 040 040
    010237  aa  040 040 040 040
    010240  aa  040 040 040 040
    010241  aa  154 141 156 147   1300  	aci	"languages_library               "
    010242  aa  165 141 147 145
    010243  aa  163 137 154 151
    010244  aa  142 162 141 162
    010245  aa  171 040 040 040
    010246  aa  040 040 040 040
    010247  aa  040 040 040 040
    010250  aa  040 040 040 040
    010251  aa  154 141 156 147   1301  	aci	"lang.execution                  "
    010252  aa  056 145 170 145
    010253  aa  143 165 164 151
    010254  aa  157 156 040 040
    010255  aa  040 040 040 040
    010256  aa  040 040 040 040
    010257  aa  040 040 040 040
    010260  aa  040 040 040 040
    010261  aa  154 141 156 147   1302  	aci	"lang.x                          "
    010262  aa  056 170 040 040
    010263  aa  040 040 040 040
    010264  aa  040 040 040 040
    010265  aa  040 040 040 040
    010266  aa  040 040 040 040
    010267  aa  040 040 040 040
    010270  aa  040 040 040 040
    010271  aa  154 141 156 147   1303  	aci	"lang                            "
    010272  aa  040 040 040 040
    010273  aa  040 040 040 040
    010274  aa  040 040 040 040
    010275  aa  040 040 040 040
    010276  aa  040 040 040 040
    010277  aa  040 040 040 040
    010300  aa  040 040 040 040
    010301  aa   000000 0110 03   1304  	even
    010302                        1305  .unbundled_library.source:
                                  1306  						" 1 root_names,
    010302  aa   000000 000021    1307  	dec	17				"   2 N,
                                  1308  						"   2 root_name (17);
    010303  aa  165 156 142 165   1309  	aci	"unbundled_library.source        "
    010304  aa  156 144 154 145
    010305  aa  144 137 154 151
    010306  aa  142 162 141 162
    010307  aa  171 056 163 157
    010310  aa  165 162 143 145
    010311  aa  040 040 040 040
    010312  aa  040 040 040 040
    010313  aa  165 156 142 165   1310  	aci	"unbundled_library.s             "
    010314  aa  156 144 154 145
    010315  aa  144 137 154 151
    010316  aa  142 162 141 162
    010317  aa  171 056 163 040
    010320  aa  040 040 040 040
    010321  aa  040 040 040 040
    010322  aa  040 040 040 040
    010323  aa  165 156 142 165   1311  	aci	"unbundled_library               "
    010324  aa  156 144 154 145
    010325  aa  144 137 154 151
    010326  aa  142 162 141 162
    010327  aa  171 040 040 040
    010330  aa  040 040 040 040
    010331  aa  040 040 040 040
    010332  aa  040 040 040 040
    010333  aa  165 156 142 056   1312  	aci	"unb.source                      "
    010334  aa  163 157 165 162
    010335  aa  143 145 040 040
    010336  aa  040 040 040 040
    010337  aa  040 040 040 040
    010340  aa  040 040 040 040
    010341  aa  040 040 040 040
    010342  aa  040 040 040 040
    010343  aa  165 156 142 056   1313  	aci	"unb.s                           "
    010344  aa  163 040 040 040
    010345  aa  040 040 040 040
    010346  aa  040 040 040 040
    010347  aa  040 040 040 040
    010350  aa  040 040 040 040
    010351  aa  040 040 040 040
    010352  aa  040 040 040 040
    010353  aa  165 156 142 040   1314  	aci	"unb                             "
    010354  aa  040 040 040 040
    010355  aa  040 040 040 040
    010356  aa  040 040 040 040
    010357  aa  040 040 040 040
    010360  aa  040 040 040 040
    010361  aa  040 040 040 040
    010362  aa  040 040 040 040
    010363  aa  157 156 154 151   1315  	aci	"online_libraries.source         "
    010364  aa  156 145 137 154
    010365  aa  151 142 162 141
    010366  aa  162 151 145 163
    010367  aa  056 163 157 165
    010370  aa  162 143 145 040
    010371  aa  040 040 040 040
    010372  aa  040 040 040 040
    010373  aa  157 156 154 151   1316  	aci	"online_libraries.s              "
    010374  aa  156 145 137 154
    010375  aa  151 142 162 141
    010376  aa  162 151 145 163
    010377  aa  056 163 040 040
    010400  aa  040 040 040 040
    010401  aa  040 040 040 040
    010402  aa  040 040 040 040
    010403  aa  157 156 154 151   1317  	aci	"online_libraries                "
    010404  aa  156 145 137 154
    010405  aa  151 142 162 141
    010406  aa  162 151 145 163
    010407  aa  040 040 040 040
    010410  aa  040 040 040 040
    010411  aa  040 040 040 040
    010412  aa  040 040 040 040
    010413  aa  157 156 154 151   1318  	aci	"online.source                   "
    010414  aa  156 145 056 163
    010415  aa  157 165 162 143
    010416  aa  145 040 040 040
    010417  aa  040 040 040 040
    010420  aa  040 040 040 040
    010421  aa  040 040 040 040
    010422  aa  040 040 040 040
    010423  aa  157 156 154 151   1319  	aci	"online.s                        "
    010424  aa  156 145 056 163
    010425  aa  040 040 040 040
    010426  aa  040 040 040 040
    010427  aa  040 040 040 040
    010430  aa  040 040 040 040
    010431  aa  040 040 040 040
    010432  aa  040 040 040 040
    010433  aa  157 156 154 151   1320  	aci	"online                          "
    010434  aa  156 145 040 040
    010435  aa  040 040 040 040
    010436  aa  040 040 040 040
    010437  aa  040 040 040 040
    010440  aa  040 040 040 040
    010441  aa  040 040 040 040
    010442  aa  040 040 040 040
    010443  aa  157 156 056 163   1321  	aci	"on.source                       "
    010444  aa  157 165 162 143
    010445  aa  145 040 040 040
    010446  aa  040 040 040 040
    010447  aa  040 040 040 040
    010450  aa  040 040 040 040
    010451  aa  040 040 040 040
    010452  aa  040 040 040 040
    010453  aa  157 156 056 163   1322  	aci	"on.s                            "
    010454  aa  040 040 040 040
    010455  aa  040 040 040 040
    010456  aa  040 040 040 040
    010457  aa  040 040 040 040
    010460  aa  040 040 040 040
    010461  aa  040 040 040 040
    010462  aa  040 040 040 040
    010463  aa  157 156 040 040   1323  	aci	"on                              "
    010464  aa  040 040 040 040
    010465  aa  040 040 040 040
    010466  aa  040 040 040 040
    010467  aa  040 040 040 040
    010470  aa  040 040 040 040
    010471  aa  040 040 040 040
    010472  aa  040 040 040 040
    010473  aa  163 157 165 162   1324  	aci	"source                          "
    010474  aa  143 145 040 040
    010475  aa  040 040 040 040
    010476  aa  040 040 040 040
    010477  aa  040 040 040 040
    010500  aa  040 040 040 040
    010501  aa  040 040 040 040
    010502  aa  040 040 040 040
    010503  aa  163 040 040 040   1325  	aci	"s                               "
    010504  aa  040 040 040 040
    010505  aa  040 040 040 040
    010506  aa  040 040 040 040
    010507  aa  040 040 040 040
    010510  aa  040 040 040 040
    010511  aa  040 040 040 040
    010512  aa  040 040 040 040
    010513  aa   000000 0110 03   1326  	even
    010514                        1327  .unbundled_library.object:
                                  1328  						" 1 root_names,
    010514  aa   000000 000021    1329  	dec	17				"   2 N,
                                  1330  						"   2 root_name (17);
    010515  aa  165 156 142 165   1331  	aci	"unbundled_library.object        "
    010516  aa  156 144 154 145
    010517  aa  144 137 154 151
    010520  aa  142 162 141 162
    010521  aa  171 056 157 142
    010522  aa  152 145 143 164
    010523  aa  040 040 040 040
    010524  aa  040 040 040 040
    010525  aa  165 156 142 165   1332  	aci	"unbundled_library.o             "
    010526  aa  156 144 154 145
    010527  aa  144 137 154 151
    010530  aa  142 162 141 162
    010531  aa  171 056 157 040
    010532  aa  040 040 040 040
    010533  aa  040 040 040 040
    010534  aa  040 040 040 040
    010535  aa  165 156 142 165   1333  	aci	"unbundled_library               "
    010536  aa  156 144 154 145
    010537  aa  144 137 154 151
    010540  aa  142 162 141 162
    010541  aa  171 040 040 040
    010542  aa  040 040 040 040
    010543  aa  040 040 040 040
    010544  aa  040 040 040 040
    010545  aa  165 156 142 056   1334  	aci	"unb.object                      "
    010546  aa  157 142 152 145
    010547  aa  143 164 040 040
    010550  aa  040 040 040 040
    010551  aa  040 040 040 040
    010552  aa  040 040 040 040
    010553  aa  040 040 040 040
    010554  aa  040 040 040 040
    010555  aa  165 156 142 056   1335  	aci	"unb.o                           "
    010556  aa  157 040 040 040
    010557  aa  040 040 040 040
    010560  aa  040 040 040 040
    010561  aa  040 040 040 040
    010562  aa  040 040 040 040
    010563  aa  040 040 040 040
    010564  aa  040 040 040 040
    010565  aa  165 156 142 040   1336  	aci	"unb                             "
    010566  aa  040 040 040 040
    010567  aa  040 040 040 040
    010570  aa  040 040 040 040
    010571  aa  040 040 040 040
    010572  aa  040 040 040 040
    010573  aa  040 040 040 040
    010574  aa  040 040 040 040
    010575  aa  157 156 154 151   1337  	aci	"online_libraries.object         "
    010576  aa  156 145 137 154
    010577  aa  151 142 162 141
    010600  aa  162 151 145 163
    010601  aa  056 157 142 152
    010602  aa  145 143 164 040
    010603  aa  040 040 040 040
    010604  aa  040 040 040 040
    010605  aa  157 156 154 151   1338  	aci	"online_libraries.o              "
    010606  aa  156 145 137 154
    010607  aa  151 142 162 141
    010610  aa  162 151 145 163
    010611  aa  056 157 040 040
    010612  aa  040 040 040 040
    010613  aa  040 040 040 040
    010614  aa  040 040 040 040
    010615  aa  157 156 154 151   1339  	aci	"online_libraries                "
    010616  aa  156 145 137 154
    010617  aa  151 142 162 141
    010620  aa  162 151 145 163
    010621  aa  040 040 040 040
    010622  aa  040 040 040 040
    010623  aa  040 040 040 040
    010624  aa  040 040 040 040
    010625  aa  157 156 154 151   1340  	aci	"online.object                   "
    010626  aa  156 145 056 157
    010627  aa  142 152 145 143
    010630  aa  164 040 040 040
    010631  aa  040 040 040 040
    010632  aa  040 040 040 040
    010633  aa  040 040 040 040
    010634  aa  040 040 040 040
    010635  aa  157 156 154 151   1341  	aci	"online.o                        "
    010636  aa  156 145 056 157
    010637  aa  040 040 040 040
    010640  aa  040 040 040 040
    010641  aa  040 040 040 040
    010642  aa  040 040 040 040
    010643  aa  040 040 040 040
    010644  aa  040 040 040 040
    010645  aa  157 156 154 151   1342  	aci	"online                          "
    010646  aa  156 145 040 040
    010647  aa  040 040 040 040
    010650  aa  040 040 040 040
    010651  aa  040 040 040 040
    010652  aa  040 040 040 040
    010653  aa  040 040 040 040
    010654  aa  040 040 040 040
    010655  aa  157 156 056 157   1343  	aci	"on.object                       "
    010656  aa  142 152 145 143
    010657  aa  164 040 040 040
    010660  aa  040 040 040 040
    010661  aa  040 040 040 040
    010662  aa  040 040 040 040
    010663  aa  040 040 040 040
    010664  aa  040 040 040 040
    010665  aa  157 156 056 157   1344  	aci	"on.o                            "
    010666  aa  040 040 040 040
    010667  aa  040 040 040 040
    010670  aa  040 040 040 040
    010671  aa  040 040 040 040
    010672  aa  040 040 040 040
    010673  aa  040 040 040 040
    010674  aa  040 040 040 040
    010675  aa  157 156 040 040   1345  	aci	"on                              "
    010676  aa  040 040 040 040
    010677  aa  040 040 040 040
    010700  aa  040 040 040 040
    010701  aa  040 040 040 040
    010702  aa  040 040 040 040
    010703  aa  040 040 040 040
    010704  aa  040 040 040 040
    010705  aa  157 142 152 145   1346  	aci	"object                          "
    010706  aa  143 164 040 040
    010707  aa  040 040 040 040
    010710  aa  040 040 040 040
    010711  aa  040 040 040 040
    010712  aa  040 040 040 040
    010713  aa  040 040 040 040
    010714  aa  040 040 040 040
    010715  aa  157 040 040 040   1347  	aci	"o                               "
    010716  aa  040 040 040 040
    010717  aa  040 040 040 040
    010720  aa  040 040 040 040
    010721  aa  040 040 040 040
    010722  aa  040 040 040 040
    010723  aa  040 040 040 040
    010724  aa  040 040 040 040
    010725  aa   000000 0110 03   1348  	even
    010726                        1349  .unbundled_library.listings:
                                  1350  						" 1 root_names,
    010726  aa   000000 000006    1351  	dec	6				"   2 N,
                                  1352  						"   2 root_name (6);
    010727  aa  165 156 142 165   1353  	aci	"unbundled_library.listings      "
    010730  aa  156 144 154 145
    010731  aa  144 137 154 151
    010732  aa  142 162 141 162
    010733  aa  171 056 154 151
    010734  aa  163 164 151 156
    010735  aa  147 163 040 040
    010736  aa  040 040 040 040
    010737  aa  165 156 142 056   1354  	aci	"unb.listings                    "
    010740  aa  154 151 163 164
    010741  aa  151 156 147 163
    010742  aa  040 040 040 040
    010743  aa  040 040 040 040
    010744  aa  040 040 040 040
    010745  aa  040 040 040 040
    010746  aa  040 040 040 040
    010747  aa  157 156 154 151   1355  	aci	"online_libraries.listings       "
    010750  aa  156 145 137 154
    010751  aa  151 142 162 141
    010752  aa  162 151 145 163
    010753  aa  056 154 151 163
    010754  aa  164 151 156 147
    010755  aa  163 040 040 040
    010756  aa  040 040 040 040
    010757  aa  157 156 154 151   1356  	aci	"online.listings                 "
    010760  aa  156 145 056 154
    010761  aa  151 163 164 151
    010762  aa  156 147 163 040
    010763  aa  040 040 040 040
    010764  aa  040 040 040 040
    010765  aa  040 040 040 040
    010766  aa  040 040 040 040
    010767  aa  157 156 056 154   1357  	aci	"on.listings                     "
    010770  aa  151 163 164 151
    010771  aa  156 147 163 040
    010772  aa  040 040 040 040
    010773  aa  040 040 040 040
    010774  aa  040 040 040 040
    010775  aa  040 040 040 040
    010776  aa  040 040 040 040
    010777  aa  154 151 163 164   1358  	aci	"listings                        "
    011000  aa  151 156 147 163
    011001  aa  040 040 040 040
    011002  aa  040 040 040 040
    011003  aa  040 040 040 040
    011004  aa  040 040 040 040
    011005  aa  040 040 040 040
    011006  aa  040 040 040 040
    011007  aa   000000 0110 03   1359  	even
    011010                        1360  .unb.listings:
                                  1361  						" 1 root_names,
    011010  aa   000000 000006    1362  	dec	6				"   2 N,
                                  1363  						"   2 root_name (6);
    011011  aa  165 156 142 165   1364  	aci	"unbundled_library.listings      "
    011012  aa  156 144 154 145
    011013  aa  144 137 154 151
    011014  aa  142 162 141 162
    011015  aa  171 056 154 151
    011016  aa  163 164 151 156
    011017  aa  147 163 040 040
    011020  aa  040 040 040 040
    011021  aa  165 156 142 056   1365  	aci	"unb.listings                    "
    011022  aa  154 151 163 164
    011023  aa  151 156 147 163
    011024  aa  040 040 040 040
    011025  aa  040 040 040 040
    011026  aa  040 040 040 040
    011027  aa  040 040 040 040
    011030  aa  040 040 040 040
    011031  aa  157 156 154 151   1366  	aci	"online_libraries.listings       "
    011032  aa  156 145 137 154
    011033  aa  151 142 162 141
    011034  aa  162 151 145 163
    011035  aa  056 154 151 163
    011036  aa  164 151 156 147
    011037  aa  163 040 040 040
    011040  aa  040 040 040 040
    011041  aa  157 156 154 151   1367  	aci	"online.listings                 "
    011042  aa  156 145 056 154
    011043  aa  151 163 164 151
    011044  aa  156 147 163 040
    011045  aa  040 040 040 040
    011046  aa  040 040 040 040
    011047  aa  040 040 040 040
    011050  aa  040 040 040 040
    011051  aa  157 156 056 154   1368  	aci	"on.listings                     "
    011052  aa  151 163 164 151
    011053  aa  156 147 163 040
    011054  aa  040 040 040 040
    011055  aa  040 040 040 040
    011056  aa  040 040 040 040
    011057  aa  040 040 040 040
    011060  aa  040 040 040 040
    011061  aa  154 151 163 164   1369  	aci	"listings                        "
    011062  aa  151 156 147 163
    011063  aa  040 040 040 040
    011064  aa  040 040 040 040
    011065  aa  040 040 040 040
    011066  aa  040 040 040 040
    011067  aa  040 040 040 040
    011070  aa  040 040 040 040
    011071  aa   000000 0110 03   1370  	even
    011072                        1371  .unbundled_library.execution:
                                  1372  						" 1 root_names,
    011072  aa   000000 000021    1373  	dec	17				"   2 N,
                                  1374  						"   2 root_name (17);
    011073  aa  165 156 142 165   1375  	aci	"unbundled_library.execution     "
    011074  aa  156 144 154 145
    011075  aa  144 137 154 151
    011076  aa  142 162 141 162
    011077  aa  171 056 145 170
    011100  aa  145 143 165 164
    011101  aa  151 157 156 040
    011102  aa  040 040 040 040
    011103  aa  165 156 142 165   1376  	aci	"unbundled_library.x             "
    011104  aa  156 144 154 145
    011105  aa  144 137 154 151
    011106  aa  142 162 141 162
    011107  aa  171 056 170 040
    011110  aa  040 040 040 040
    011111  aa  040 040 040 040
    011112  aa  040 040 040 040
    011113  aa  165 156 142 165   1377  	aci	"unbundled_library               "
    011114  aa  156 144 154 145
    011115  aa  144 137 154 151
    011116  aa  142 162 141 162
    011117  aa  171 040 040 040
    011120  aa  040 040 040 040
    011121  aa  040 040 040 040
    011122  aa  040 040 040 040
    011123  aa  165 156 142 056   1378  	aci	"unb.execution                   "
    011124  aa  145 170 145 143
    011125  aa  165 164 151 157
    011126  aa  156 040 040 040
    011127  aa  040 040 040 040
    011130  aa  040 040 040 040
    011131  aa  040 040 040 040
    011132  aa  040 040 040 040
    011133  aa  165 156 142 056   1379  	aci	"unb.x                           "
    011134  aa  170 040 040 040
    011135  aa  040 040 040 040
    011136  aa  040 040 040 040
    011137  aa  040 040 040 040
    011140  aa  040 040 040 040
    011141  aa  040 040 040 040
    011142  aa  040 040 040 040
    011143  aa  165 156 142 040   1380  	aci	"unb                             "
    011144  aa  040 040 040 040
    011145  aa  040 040 040 040
    011146  aa  040 040 040 040
    011147  aa  040 040 040 040
    011150  aa  040 040 040 040
    011151  aa  040 040 040 040
    011152  aa  040 040 040 040
    011153  aa  157 156 154 151   1381  	aci	"online_libraries.execution      "
    011154  aa  156 145 137 154
    011155  aa  151 142 162 141
    011156  aa  162 151 145 163
    011157  aa  056 145 170 145
    011160  aa  143 165 164 151
    011161  aa  157 156 040 040
    011162  aa  040 040 040 040
    011163  aa  157 156 154 151   1382  	aci	"online_libraries.x              "
    011164  aa  156 145 137 154
    011165  aa  151 142 162 141
    011166  aa  162 151 145 163
    011167  aa  056 170 040 040
    011170  aa  040 040 040 040
    011171  aa  040 040 040 040
    011172  aa  040 040 040 040
    011173  aa  157 156 154 151   1383  	aci	"online_libraries                "
    011174  aa  156 145 137 154
    011175  aa  151 142 162 141
    011176  aa  162 151 145 163
    011177  aa  040 040 040 040
    011200  aa  040 040 040 040
    011201  aa  040 040 040 040
    011202  aa  040 040 040 040
    011203  aa  157 156 154 151   1384  	aci	"online.execution                "
    011204  aa  156 145 056 145
    011205  aa  170 145 143 165
    011206  aa  164 151 157 156
    011207  aa  040 040 040 040
    011210  aa  040 040 040 040
    011211  aa  040 040 040 040
    011212  aa  040 040 040 040
    011213  aa  157 156 154 151   1385  	aci	"online.x                        "
    011214  aa  156 145 056 170
    011215  aa  040 040 040 040
    011216  aa  040 040 040 040
    011217  aa  040 040 040 040
    011220  aa  040 040 040 040
    011221  aa  040 040 040 040
    011222  aa  040 040 040 040
    011223  aa  157 156 154 151   1386  	aci	"online                          "
    011224  aa  156 145 040 040
    011225  aa  040 040 040 040
    011226  aa  040 040 040 040
    011227  aa  040 040 040 040
    011230  aa  040 040 040 040
    011231  aa  040 040 040 040
    011232  aa  040 040 040 040
    011233  aa  157 156 056 145   1387  	aci	"on.execution                    "
    011234  aa  170 145 143 165
    011235  aa  164 151 157 156
    011236  aa  040 040 040 040
    011237  aa  040 040 040 040
    011240  aa  040 040 040 040
    011241  aa  040 040 040 040
    011242  aa  040 040 040 040
    011243  aa  157 156 056 170   1388  	aci	"on.x                            "
    011244  aa  040 040 040 040
    011245  aa  040 040 040 040
    011246  aa  040 040 040 040
    011247  aa  040 040 040 040
    011250  aa  040 040 040 040
    011251  aa  040 040 040 040
    011252  aa  040 040 040 040
    011253  aa  157 156 040 040   1389  	aci	"on                              "
    011254  aa  040 040 040 040
    011255  aa  040 040 040 040
    011256  aa  040 040 040 040
    011257  aa  040 040 040 040
    011260  aa  040 040 040 040
    011261  aa  040 040 040 040
    011262  aa  040 040 040 040
    011263  aa  145 170 145 143   1390  	aci	"execution                       "
    011264  aa  165 164 151 157
    011265  aa  156 040 040 040
    011266  aa  040 040 040 040
    011267  aa  040 040 040 040
    011270  aa  040 040 040 040
    011271  aa  040 040 040 040
    011272  aa  040 040 040 040
    011273  aa  170 040 040 040   1391  	aci	"x                               "
    011274  aa  040 040 040 040
    011275  aa  040 040 040 040
    011276  aa  040 040 040 040
    011277  aa  040 040 040 040
    011300  aa  040 040 040 040
    011301  aa  040 040 040 040
    011302  aa  040 040 040 040
    011303  aa   000000 0110 03   1392  	even
    011304                        1393  .tools_library.source:
                                  1394  						" 1 root_names,
    011304  aa   000000 000024    1395  	dec	20				"   2 N,
                                  1396  						"   2 root_name (20);
    011305  aa  164 157 157 154   1397  	aci	"tools_library.source            "
    011306  aa  163 137 154 151
    011307  aa  142 162 141 162
    011310  aa  171 056 163 157
    011311  aa  165 162 143 145
    011312  aa  040 040 040 040
    011313  aa  040 040 040 040
    011314  aa  040 040 040 040
    011315  aa  164 157 157 154   1398  	aci	"tools_library.s                 "
    011316  aa  163 137 154 151
    011317  aa  142 162 141 162
    011320  aa  171 056 163 040
    011321  aa  040 040 040 040
    011322  aa  040 040 040 040
    011323  aa  040 040 040 040
    011324  aa  040 040 040 040
    011325  aa  164 157 157 154   1399  	aci	"tools_library                   "
    011326  aa  163 137 154 151
    011327  aa  142 162 141 162
    011330  aa  171 040 040 040
    011331  aa  040 040 040 040
    011332  aa  040 040 040 040
    011333  aa  040 040 040 040
    011334  aa  040 040 040 040
    011335  aa  164 157 157 154   1400  	aci	"tools.source                    "
    011336  aa  163 056 163 157
    011337  aa  165 162 143 145
    011340  aa  040 040 040 040
    011341  aa  040 040 040 040
    011342  aa  040 040 040 040
    011343  aa  040 040 040 040
    011344  aa  040 040 040 040
    011345  aa  164 157 157 154   1401  	aci	"tools.s                         "
    011346  aa  163 056 163 040
    011347  aa  040 040 040 040
    011350  aa  040 040 040 040
    011351  aa  040 040 040 040
    011352  aa  040 040 040 040
    011353  aa  040 040 040 040
    011354  aa  040 040 040 040
    011355  aa  164 157 157 154   1402  	aci	"tools                           "
    011356  aa  163 040 040 040
    011357  aa  040 040 040 040
    011360  aa  040 040 040 040
    011361  aa  040 040 040 040
    011362  aa  040 040 040 040
    011363  aa  040 040 040 040
    011364  aa  040 040 040 040
    011365  aa  164 056 163 157   1403  	aci	"t.source                        "
    011366  aa  165 162 143 145
    011367  aa  040 040 040 040
    011370  aa  040 040 040 040
    011371  aa  040 040 040 040
    011372  aa  040 040 040 040
    011373  aa  040 040 040 040
    011374  aa  040 040 040 040
    011375  aa  164 056 163 040   1404  	aci	"t.s                             "
    011376  aa  040 040 040 040
    011377  aa  040 040 040 040
    011400  aa  040 040 040 040
    011401  aa  040 040 040 040
    011402  aa  040 040 040 040
    011403  aa  040 040 040 040
    011404  aa  040 040 040 040
    011405  aa  164 040 040 040   1405  	aci	"t                               "
    011406  aa  040 040 040 040
    011407  aa  040 040 040 040
    011410  aa  040 040 040 040
    011411  aa  040 040 040 040
    011412  aa  040 040 040 040
    011413  aa  040 040 040 040
    011414  aa  040 040 040 040
    011415  aa  157 156 154 151   1406  	aci	"online_libraries.source         "
    011416  aa  156 145 137 154
    011417  aa  151 142 162 141
    011420  aa  162 151 145 163
    011421  aa  056 163 157 165
    011422  aa  162 143 145 040
    011423  aa  040 040 040 040
    011424  aa  040 040 040 040
    011425  aa  157 156 154 151   1407  	aci	"online_libraries.s              "
    011426  aa  156 145 137 154
    011427  aa  151 142 162 141
    011430  aa  162 151 145 163
    011431  aa  056 163 040 040
    011432  aa  040 040 040 040
    011433  aa  040 040 040 040
    011434  aa  040 040 040 040
    011435  aa  157 156 154 151   1408  	aci	"online_libraries                "
    011436  aa  156 145 137 154
    011437  aa  151 142 162 141
    011440  aa  162 151 145 163
    011441  aa  040 040 040 040
    011442  aa  040 040 040 040
    011443  aa  040 040 040 040
    011444  aa  040 040 040 040
    011445  aa  157 156 154 151   1409  	aci	"online.source                   "
    011446  aa  156 145 056 163
    011447  aa  157 165 162 143
    011450  aa  145 040 040 040
    011451  aa  040 040 040 040
    011452  aa  040 040 040 040
    011453  aa  040 040 040 040
    011454  aa  040 040 040 040
    011455  aa  157 156 154 151   1410  	aci	"online.s                        "
    011456  aa  156 145 056 163
    011457  aa  040 040 040 040
    011460  aa  040 040 040 040
    011461  aa  040 040 040 040
    011462  aa  040 040 040 040
    011463  aa  040 040 040 040
    011464  aa  040 040 040 040
    011465  aa  157 156 154 151   1411  	aci	"online                          "
    011466  aa  156 145 040 040
    011467  aa  040 040 040 040
    011470  aa  040 040 040 040
    011471  aa  040 040 040 040
    011472  aa  040 040 040 040
    011473  aa  040 040 040 040
    011474  aa  040 040 040 040
    011475  aa  157 156 056 163   1412  	aci	"on.source                       "
    011476  aa  157 165 162 143
    011477  aa  145 040 040 040
    011500  aa  040 040 040 040
    011501  aa  040 040 040 040
    011502  aa  040 040 040 040
    011503  aa  040 040 040 040
    011504  aa  040 040 040 040
    011505  aa  157 156 056 163   1413  	aci	"on.s                            "
    011506  aa  040 040 040 040
    011507  aa  040 040 040 040
    011510  aa  040 040 040 040
    011511  aa  040 040 040 040
    011512  aa  040 040 040 040
    011513  aa  040 040 040 040
    011514  aa  040 040 040 040
    011515  aa  157 156 040 040   1414  	aci	"on                              "
    011516  aa  040 040 040 040
    011517  aa  040 040 040 040
    011520  aa  040 040 040 040
    011521  aa  040 040 040 040
    011522  aa  040 040 040 040
    011523  aa  040 040 040 040
    011524  aa  040 040 040 040
    011525  aa  163 157 165 162   1415  	aci	"source                          "
    011526  aa  143 145 040 040
    011527  aa  040 040 040 040
    011530  aa  040 040 040 040
    011531  aa  040 040 040 040
    011532  aa  040 040 040 040
    011533  aa  040 040 040 040
    011534  aa  040 040 040 040
    011535  aa  163 040 040 040   1416  	aci	"s                               "
    011536  aa  040 040 040 040
    011537  aa  040 040 040 040
    011540  aa  040 040 040 040
    011541  aa  040 040 040 040
    011542  aa  040 040 040 040
    011543  aa  040 040 040 040
    011544  aa  040 040 040 040
    011545  aa   000000 0110 03   1417  	even
    011546                        1418  .tools_library.object:
                                  1419  						" 1 root_names,
    011546  aa   000000 000024    1420  	dec	20				"   2 N,
                                  1421  						"   2 root_name (20);
    011547  aa  164 157 157 154   1422  	aci	"tools_library.object            "
    011550  aa  163 137 154 151
    011551  aa  142 162 141 162
    011552  aa  171 056 157 142
    011553  aa  152 145 143 164
    011554  aa  040 040 040 040
    011555  aa  040 040 040 040
    011556  aa  040 040 040 040
    011557  aa  164 157 157 154   1423  	aci	"tools_library.o                 "
    011560  aa  163 137 154 151
    011561  aa  142 162 141 162
    011562  aa  171 056 157 040
    011563  aa  040 040 040 040
    011564  aa  040 040 040 040
    011565  aa  040 040 040 040
    011566  aa  040 040 040 040
    011567  aa  164 157 157 154   1424  	aci	"tools_library                   "
    011570  aa  163 137 154 151
    011571  aa  142 162 141 162
    011572  aa  171 040 040 040
    011573  aa  040 040 040 040
    011574  aa  040 040 040 040
    011575  aa  040 040 040 040
    011576  aa  040 040 040 040
    011577  aa  164 157 157 154   1425  	aci	"tools.object                    "
    011600  aa  163 056 157 142
    011601  aa  152 145 143 164
    011602  aa  040 040 040 040
    011603  aa  040 040 040 040
    011604  aa  040 040 040 040
    011605  aa  040 040 040 040
    011606  aa  040 040 040 040
    011607  aa  164 157 157 154   1426  	aci	"tools.o                         "
    011610  aa  163 056 157 040
    011611  aa  040 040 040 040
    011612  aa  040 040 040 040
    011613  aa  040 040 040 040
    011614  aa  040 040 040 040
    011615  aa  040 040 040 040
    011616  aa  040 040 040 040
    011617  aa  164 157 157 154   1427  	aci	"tools                           "
    011620  aa  163 040 040 040
    011621  aa  040 040 040 040
    011622  aa  040 040 040 040
    011623  aa  040 040 040 040
    011624  aa  040 040 040 040
    011625  aa  040 040 040 040
    011626  aa  040 040 040 040
    011627  aa  164 056 157 142   1428  	aci	"t.object                        "
    011630  aa  152 145 143 164
    011631  aa  040 040 040 040
    011632  aa  040 040 040 040
    011633  aa  040 040 040 040
    011634  aa  040 040 040 040
    011635  aa  040 040 040 040
    011636  aa  040 040 040 040
    011637  aa  164 056 157 040   1429  	aci	"t.o                             "
    011640  aa  040 040 040 040
    011641  aa  040 040 040 040
    011642  aa  040 040 040 040
    011643  aa  040 040 040 040
    011644  aa  040 040 040 040
    011645  aa  040 040 040 040
    011646  aa  040 040 040 040
    011647  aa  164 040 040 040   1430  	aci	"t                               "
    011650  aa  040 040 040 040
    011651  aa  040 040 040 040
    011652  aa  040 040 040 040
    011653  aa  040 040 040 040
    011654  aa  040 040 040 040
    011655  aa  040 040 040 040
    011656  aa  040 040 040 040
    011657  aa  157 156 154 151   1431  	aci	"online_libraries.object         "
    011660  aa  156 145 137 154
    011661  aa  151 142 162 141
    011662  aa  162 151 145 163
    011663  aa  056 157 142 152
    011664  aa  145 143 164 040
    011665  aa  040 040 040 040
    011666  aa  040 040 040 040
    011667  aa  157 156 154 151   1432  	aci	"online_libraries.o              "
    011670  aa  156 145 137 154
    011671  aa  151 142 162 141
    011672  aa  162 151 145 163
    011673  aa  056 157 040 040
    011674  aa  040 040 040 040
    011675  aa  040 040 040 040
    011676  aa  040 040 040 040
    011677  aa  157 156 154 151   1433  	aci	"online_libraries                "
    011700  aa  156 145 137 154
    011701  aa  151 142 162 141
    011702  aa  162 151 145 163
    011703  aa  040 040 040 040
    011704  aa  040 040 040 040
    011705  aa  040 040 040 040
    011706  aa  040 040 040 040
    011707  aa  157 156 154 151   1434  	aci	"online.object                   "
    011710  aa  156 145 056 157
    011711  aa  142 152 145 143
    011712  aa  164 040 040 040
    011713  aa  040 040 040 040
    011714  aa  040 040 040 040
    011715  aa  040 040 040 040
    011716  aa  040 040 040 040
    011717  aa  157 156 154 151   1435  	aci	"online.o                        "
    011720  aa  156 145 056 157
    011721  aa  040 040 040 040
    011722  aa  040 040 040 040
    011723  aa  040 040 040 040
    011724  aa  040 040 040 040
    011725  aa  040 040 040 040
    011726  aa  040 040 040 040
    011727  aa  157 156 154 151   1436  	aci	"online                          "
    011730  aa  156 145 040 040
    011731  aa  040 040 040 040
    011732  aa  040 040 040 040
    011733  aa  040 040 040 040
    011734  aa  040 040 040 040
    011735  aa  040 040 040 040
    011736  aa  040 040 040 040
    011737  aa  157 156 056 157   1437  	aci	"on.object                       "
    011740  aa  142 152 145 143
    011741  aa  164 040 040 040
    011742  aa  040 040 040 040
    011743  aa  040 040 040 040
    011744  aa  040 040 040 040
    011745  aa  040 040 040 040
    011746  aa  040 040 040 040
    011747  aa  157 156 056 157   1438  	aci	"on.o                            "
    011750  aa  040 040 040 040
    011751  aa  040 040 040 040
    011752  aa  040 040 040 040
    011753  aa  040 040 040 040
    011754  aa  040 040 040 040
    011755  aa  040 040 040 040
    011756  aa  040 040 040 040
    011757  aa  157 156 040 040   1439  	aci	"on                              "
    011760  aa  040 040 040 040
    011761  aa  040 040 040 040
    011762  aa  040 040 040 040
    011763  aa  040 040 040 040
    011764  aa  040 040 040 040
    011765  aa  040 040 040 040
    011766  aa  040 040 040 040
    011767  aa  157 142 152 145   1440  	aci	"object                          "
    011770  aa  143 164 040 040
    011771  aa  040 040 040 040
    011772  aa  040 040 040 040
    011773  aa  040 040 040 040
    011774  aa  040 040 040 040
    011775  aa  040 040 040 040
    011776  aa  040 040 040 040
    011777  aa  157 040 040 040   1441  	aci	"o                               "
    012000  aa  040 040 040 040
    012001  aa  040 040 040 040
    012002  aa  040 040 040 040
    012003  aa  040 040 040 040
    012004  aa  040 040 040 040
    012005  aa  040 040 040 040
    012006  aa  040 040 040 040
    012007  aa   000000 0110 03   1442  	even
    012010                        1443  .tools_library.listings:
                                  1444  						" 1 root_names,
    012010  aa   000000 000007    1445  	dec	7				"   2 N,
                                  1446  						"   2 root_name (7);
    012011  aa  164 157 157 154   1447  	aci	"tools_library.listings          "
    012012  aa  163 137 154 151
    012013  aa  142 162 141 162
    012014  aa  171 056 154 151
    012015  aa  163 164 151 156
    012016  aa  147 163 040 040
    012017  aa  040 040 040 040
    012020  aa  040 040 040 040
    012021  aa  164 157 157 154   1448  	aci	"tools.listings                  "
    012022  aa  163 056 154 151
    012023  aa  163 164 151 156
    012024  aa  147 163 040 040
    012025  aa  040 040 040 040
    012026  aa  040 040 040 040
    012027  aa  040 040 040 040
    012030  aa  040 040 040 040
    012031  aa  164 056 154 151   1449  	aci	"t.listings                      "
    012032  aa  163 164 151 156
    012033  aa  147 163 040 040
    012034  aa  040 040 040 040
    012035  aa  040 040 040 040
    012036  aa  040 040 040 040
    012037  aa  040 040 040 040
    012040  aa  040 040 040 040
    012041  aa  157 156 154 151   1450  	aci	"online_libraries.listings       "
    012042  aa  156 145 137 154
    012043  aa  151 142 162 141
    012044  aa  162 151 145 163
    012045  aa  056 154 151 163
    012046  aa  164 151 156 147
    012047  aa  163 040 040 040
    012050  aa  040 040 040 040
    012051  aa  157 156 154 151   1451  	aci	"online.listings                 "
    012052  aa  156 145 056 154
    012053  aa  151 163 164 151
    012054  aa  156 147 163 040
    012055  aa  040 040 040 040
    012056  aa  040 040 040 040
    012057  aa  040 040 040 040
    012060  aa  040 040 040 040
    012061  aa  157 156 056 154   1452  	aci	"on.listings                     "
    012062  aa  151 163 164 151
    012063  aa  156 147 163 040
    012064  aa  040 040 040 040
    012065  aa  040 040 040 040
    012066  aa  040 040 040 040
    012067  aa  040 040 040 040
    012070  aa  040 040 040 040
    012071  aa  154 151 163 164   1453  	aci	"listings                        "
    012072  aa  151 156 147 163
    012073  aa  040 040 040 040
    012074  aa  040 040 040 040
    012075  aa  040 040 040 040
    012076  aa  040 040 040 040
    012077  aa  040 040 040 040
    012100  aa  040 040 040 040
    012101  aa   000000 0110 03   1454  	even
    012102                        1455  .tools_library.execution:
                                  1456  						" 1 root_names,
    012102  aa   000000 000024    1457  	dec	20				"   2 N,
                                  1458  						"   2 root_name (20);
    012103  aa  164 157 157 154   1459  	aci	"tools_library.execution         "
    012104  aa  163 137 154 151
    012105  aa  142 162 141 162
    012106  aa  171 056 145 170
    012107  aa  145 143 165 164
    012110  aa  151 157 156 040
    012111  aa  040 040 040 040
    012112  aa  040 040 040 040
    012113  aa  164 157 157 154   1460  	aci	"tools_library.x                 "
    012114  aa  163 137 154 151
    012115  aa  142 162 141 162
    012116  aa  171 056 170 040
    012117  aa  040 040 040 040
    012120  aa  040 040 040 040
    012121  aa  040 040 040 040
    012122  aa  040 040 040 040
    012123  aa  164 157 157 154   1461  	aci	"tools_library                   "
    012124  aa  163 137 154 151
    012125  aa  142 162 141 162
    012126  aa  171 040 040 040
    012127  aa  040 040 040 040
    012130  aa  040 040 040 040
    012131  aa  040 040 040 040
    012132  aa  040 040 040 040
    012133  aa  164 157 157 154   1462  	aci	"tools.execution                 "
    012134  aa  163 056 145 170
    012135  aa  145 143 165 164
    012136  aa  151 157 156 040
    012137  aa  040 040 040 040
    012140  aa  040 040 040 040
    012141  aa  040 040 040 040
    012142  aa  040 040 040 040
    012143  aa  164 157 157 154   1463  	aci	"tools.x                         "
    012144  aa  163 056 170 040
    012145  aa  040 040 040 040
    012146  aa  040 040 040 040
    012147  aa  040 040 040 040
    012150  aa  040 040 040 040
    012151  aa  040 040 040 040
    012152  aa  040 040 040 040
    012153  aa  164 157 157 154   1464  	aci	"tools                           "
    012154  aa  163 040 040 040
    012155  aa  040 040 040 040
    012156  aa  040 040 040 040
    012157  aa  040 040 040 040
    012160  aa  040 040 040 040
    012161  aa  040 040 040 040
    012162  aa  040 040 040 040
    012163  aa  164 056 145 170   1465  	aci	"t.execution                     "
    012164  aa  145 143 165 164
    012165  aa  151 157 156 040
    012166  aa  040 040 040 040
    012167  aa  040 040 040 040
    012170  aa  040 040 040 040
    012171  aa  040 040 040 040
    012172  aa  040 040 040 040
    012173  aa  164 056 170 040   1466  	aci	"t.x                             "
    012174  aa  040 040 040 040
    012175  aa  040 040 040 040
    012176  aa  040 040 040 040
    012177  aa  040 040 040 040
    012200  aa  040 040 040 040
    012201  aa  040 040 040 040
    012202  aa  040 040 040 040
    012203  aa  164 040 040 040   1467  	aci	"t                               "
    012204  aa  040 040 040 040
    012205  aa  040 040 040 040
    012206  aa  040 040 040 040
    012207  aa  040 040 040 040
    012210  aa  040 040 040 040
    012211  aa  040 040 040 040
    012212  aa  040 040 040 040
    012213  aa  157 156 154 151   1468  	aci	"online_libraries.execution      "
    012214  aa  156 145 137 154
    012215  aa  151 142 162 141
    012216  aa  162 151 145 163
    012217  aa  056 145 170 145
    012220  aa  143 165 164 151
    012221  aa  157 156 040 040
    012222  aa  040 040 040 040
    012223  aa  157 156 154 151   1469  	aci	"online_libraries.x              "
    012224  aa  156 145 137 154
    012225  aa  151 142 162 141
    012226  aa  162 151 145 163
    012227  aa  056 170 040 040
    012230  aa  040 040 040 040
    012231  aa  040 040 040 040
    012232  aa  040 040 040 040
    012233  aa  157 156 154 151   1470  	aci	"online_libraries                "
    012234  aa  156 145 137 154
    012235  aa  151 142 162 141
    012236  aa  162 151 145 163
    012237  aa  040 040 040 040
    012240  aa  040 040 040 040
    012241  aa  040 040 040 040
    012242  aa  040 040 040 040
    012243  aa  157 156 154 151   1471  	aci	"online.execution                "
    012244  aa  156 145 056 145
    012245  aa  170 145 143 165
    012246  aa  164 151 157 156
    012247  aa  040 040 040 040
    012250  aa  040 040 040 040
    012251  aa  040 040 040 040
    012252  aa  040 040 040 040
    012253  aa  157 156 154 151   1472  	aci	"online.x                        "
    012254  aa  156 145 056 170
    012255  aa  040 040 040 040
    012256  aa  040 040 040 040
    012257  aa  040 040 040 040
    012260  aa  040 040 040 040
    012261  aa  040 040 040 040
    012262  aa  040 040 040 040
    012263  aa  157 156 154 151   1473  	aci	"online                          "
    012264  aa  156 145 040 040
    012265  aa  040 040 040 040
    012266  aa  040 040 040 040
    012267  aa  040 040 040 040
    012270  aa  040 040 040 040
    012271  aa  040 040 040 040
    012272  aa  040 040 040 040
    012273  aa  157 156 056 145   1474  	aci	"on.execution                    "
    012274  aa  170 145 143 165
    012275  aa  164 151 157 156
    012276  aa  040 040 040 040
    012277  aa  040 040 040 040
    012300  aa  040 040 040 040
    012301  aa  040 040 040 040
    012302  aa  040 040 040 040
    012303  aa  157 156 056 170   1475  	aci	"on.x                            "
    012304  aa  040 040 040 040
    012305  aa  040 040 040 040
    012306  aa  040 040 040 040
    012307  aa  040 040 040 040
    012310  aa  040 040 040 040
    012311  aa  040 040 040 040
    012312  aa  040 040 040 040
    012313  aa  157 156 040 040   1476  	aci	"on                              "
    012314  aa  040 040 040 040
    012315  aa  040 040 040 040
    012316  aa  040 040 040 040
    012317  aa  040 040 040 040
    012320  aa  040 040 040 040
    012321  aa  040 040 040 040
    012322  aa  040 040 040 040
    012323  aa  145 170 145 143   1477  	aci	"execution                       "
    012324  aa  165 164 151 157
    012325  aa  156 040 040 040
    012326  aa  040 040 040 040
    012327  aa  040 040 040 040
    012330  aa  040 040 040 040
    012331  aa  040 040 040 040
    012332  aa  040 040 040 040
    012333  aa  170 040 040 040   1478  	aci	"x                               "
    012334  aa  040 040 040 040
    012335  aa  040 040 040 040
    012336  aa  040 040 040 040
    012337  aa  040 040 040 040
    012340  aa  040 040 040 040
    012341  aa  040 040 040 040
    012342  aa  040 040 040 040
    012343  aa   000000 0110 03   1479  	even
    012344                        1480  .supervisor_library.source:
                                  1481  						" 1 root_names,
    012344  aa   000000 000032    1482  	dec	26				"   2 N,
                                  1483  						"   2 root_name (26);
    012345  aa  163 165 160 145   1484  	aci	"supervisor_library.source       "
    012346  aa  162 166 151 163
    012347  aa  157 162 137 154
    012350  aa  151 142 162 141
    012351  aa  162 171 056 163
    012352  aa  157 165 162 143
    012353  aa  145 040 040 040
    012354  aa  040 040 040 040
    012355  aa  163 165 160 145   1485  	aci	"supervisor_library.s            "
    012356  aa  162 166 151 163
    012357  aa  157 162 137 154
    012360  aa  151 142 162 141
    012361  aa  162 171 056 163
    012362  aa  040 040 040 040
    012363  aa  040 040 040 040
    012364  aa  040 040 040 040
    012365  aa  163 165 160 145   1486  	aci	"supervisor_library              "
    012366  aa  162 166 151 163
    012367  aa  157 162 137 154
    012370  aa  151 142 162 141
    012371  aa  162 171 040 040
    012372  aa  040 040 040 040
    012373  aa  040 040 040 040
    012374  aa  040 040 040 040
    012375  aa  163 165 160 056   1487  	aci	"sup.source                      "
    012376  aa  163 157 165 162
    012377  aa  143 145 040 040
    012400  aa  040 040 040 040
    012401  aa  040 040 040 040
    012402  aa  040 040 040 040
    012403  aa  040 040 040 040
    012404  aa  040 040 040 040
    012405  aa  163 165 160 056   1488  	aci	"sup.s                           "
    012406  aa  163 040 040 040
    012407  aa  040 040 040 040
    012410  aa  040 040 040 040
    012411  aa  040 040 040 040
    012412  aa  040 040 040 040
    012413  aa  040 040 040 040
    012414  aa  040 040 040 040
    012415  aa  163 165 160 040   1489  	aci	"sup                             "
    012416  aa  040 040 040 040
    012417  aa  040 040 040 040
    012420  aa  040 040 040 040
    012421  aa  040 040 040 040
    012422  aa  040 040 040 040
    012423  aa  040 040 040 040
    012424  aa  040 040 040 040
    012425  aa  150 141 162 144   1490  	aci	"hardcore.source                 "
    012426  aa  143 157 162 145
    012427  aa  056 163 157 165
    012430  aa  162 143 145 040
    012431  aa  040 040 040 040
    012432  aa  040 040 040 040
    012433  aa  040 040 040 040
    012434  aa  040 040 040 040
    012435  aa  150 141 162 144   1491  	aci	"hardcore.s                      "
    012436  aa  143 157 162 145
    012437  aa  056 163 040 040
    012440  aa  040 040 040 040
    012441  aa  040 040 040 040
    012442  aa  040 040 040 040
    012443  aa  040 040 040 040
    012444  aa  040 040 040 040
    012445  aa  150 141 162 144   1492  	aci	"hardcore                        "
    012446  aa  143 157 162 145
    012447  aa  040 040 040 040
    012450  aa  040 040 040 040
    012451  aa  040 040 040 040
    012452  aa  040 040 040 040
    012453  aa  040 040 040 040
    012454  aa  040 040 040 040
    012455  aa  150 141 162 144   1493  	aci	"hard.source                     "
    012456  aa  056 163 157 165
    012457  aa  162 143 145 040
    012460  aa  040 040 040 040
    012461  aa  040 040 040 040
    012462  aa  040 040 040 040
    012463  aa  040 040 040 040
    012464  aa  040 040 040 040
    012465  aa  150 141 162 144   1494  	aci	"hard.s                          "
    012466  aa  056 163 040 040
    012467  aa  040 040 040 040
    012470  aa  040 040 040 040
    012471  aa  040 040 040 040
    012472  aa  040 040 040 040
    012473  aa  040 040 040 040
    012474  aa  040 040 040 040
    012475  aa  150 141 162 144   1495  	aci	"hard                            "
    012476  aa  040 040 040 040
    012477  aa  040 040 040 040
    012500  aa  040 040 040 040
    012501  aa  040 040 040 040
    012502  aa  040 040 040 040
    012503  aa  040 040 040 040
    012504  aa  040 040 040 040
    012505  aa  150 056 163 157   1496  	aci	"h.source                        "
    012506  aa  165 162 143 145
    012507  aa  040 040 040 040
    012510  aa  040 040 040 040
    012511  aa  040 040 040 040
    012512  aa  040 040 040 040
    012513  aa  040 040 040 040
    012514  aa  040 040 040 040
    012515  aa  150 056 163 040   1497  	aci	"h.s                             "
    012516  aa  040 040 040 040
    012517  aa  040 040 040 040
    012520  aa  040 040 040 040
    012521  aa  040 040 040 040
    012522  aa  040 040 040 040
    012523  aa  040 040 040 040
    012524  aa  040 040 040 040
    012525  aa  150 040 040 040   1498  	aci	"h                               "
    012526  aa  040 040 040 040
    012527  aa  040 040 040 040
    012530  aa  040 040 040 040
    012531  aa  040 040 040 040
    012532  aa  040 040 040 040
    012533  aa  040 040 040 040
    012534  aa  040 040 040 040
    012535  aa  157 146 146 154   1499  	aci	"offline_libraries.source        "
    012536  aa  151 156 145 137
    012537  aa  154 151 142 162
    012540  aa  141 162 151 145
    012541  aa  163 056 163 157
    012542  aa  165 162 143 145
    012543  aa  040 040 040 040
    012544  aa  040 040 040 040
    012545  aa  157 146 146 154   1500  	aci	"offline_libraries.s             "
    012546  aa  151 156 145 137
    012547  aa  154 151 142 162
    012550  aa  141 162 151 145
    012551  aa  163 056 163 040
    012552  aa  040 040 040 040
    012553  aa  040 040 040 040
    012554  aa  040 040 040 040
    012555  aa  157 146 146 154   1501  	aci	"offline_libraries               "
    012556  aa  151 156 145 137
    012557  aa  154 151 142 162
    012560  aa  141 162 151 145
    012561  aa  163 040 040 040
    012562  aa  040 040 040 040
    012563  aa  040 040 040 040
    012564  aa  040 040 040 040
    012565  aa  157 146 146 154   1502  	aci	"offline.source                  "
    012566  aa  151 156 145 056
    012567  aa  163 157 165 162
    012570  aa  143 145 040 040
    012571  aa  040 040 040 040
    012572  aa  040 040 040 040
    012573  aa  040 040 040 040
    012574  aa  040 040 040 040
    012575  aa  157 146 146 154   1503  	aci	"offline.s                       "
    012576  aa  151 156 145 056
    012577  aa  163 040 040 040
    012600  aa  040 040 040 040
    012601  aa  040 040 040 040
    012602  aa  040 040 040 040
    012603  aa  040 040 040 040
    012604  aa  040 040 040 040
    012605  aa  157 146 146 154   1504  	aci	"offline                         "
    012606  aa  151 156 145 040
    012607  aa  040 040 040 040
    012610  aa  040 040 040 040
    012611  aa  040 040 040 040
    012612  aa  040 040 040 040
    012613  aa  040 040 040 040
    012614  aa  040 040 040 040
    012615  aa  157 146 146 056   1505  	aci	"off.source                      "
    012616  aa  163 157 165 162
    012617  aa  143 145 040 040
    012620  aa  040 040 040 040
    012621  aa  040 040 040 040
    012622  aa  040 040 040 040
    012623  aa  040 040 040 040
    012624  aa  040 040 040 040
    012625  aa  157 146 146 056   1506  	aci	"off.s                           "
    012626  aa  163 040 040 040
    012627  aa  040 040 040 040
    012630  aa  040 040 040 040
    012631  aa  040 040 040 040
    012632  aa  040 040 040 040
    012633  aa  040 040 040 040
    012634  aa  040 040 040 040
    012635  aa  157 146 146 040   1507  	aci	"off                             "
    012636  aa  040 040 040 040
    012637  aa  040 040 040 040
    012640  aa  040 040 040 040
    012641  aa  040 040 040 040
    012642  aa  040 040 040 040
    012643  aa  040 040 040 040
    012644  aa  040 040 040 040
    012645  aa  163 157 165 162   1508  	aci	"source                          "
    012646  aa  143 145 040 040
    012647  aa  040 040 040 040
    012650  aa  040 040 040 040
    012651  aa  040 040 040 040
    012652  aa  040 040 040 040
    012653  aa  040 040 040 040
    012654  aa  040 040 040 040
    012655  aa  163 040 040 040   1509  	aci	"s                               "
    012656  aa  040 040 040 040
    012657  aa  040 040 040 040
    012660  aa  040 040 040 040
    012661  aa  040 040 040 040
    012662  aa  040 040 040 040
    012663  aa  040 040 040 040
    012664  aa  040 040 040 040
    012665  aa   000000 0110 03   1510  	even
    012666                        1511  .supervisor_library.execution:
                                  1512  						" 1 root_names,
    012666  aa   000000 000054    1513  	dec	44				"   2 N,
                                  1514  						"   2 root_name (44);
    012667  aa  163 165 160 145   1515  	aci	"supervisor_library.execution    "
    012670  aa  162 166 151 163
    012671  aa  157 162 137 154
    012672  aa  151 142 162 141
    012673  aa  162 171 056 145
    012674  aa  170 145 143 165
    012675  aa  164 151 157 156
    012676  aa  040 040 040 040
    012677  aa  163 165 160 145   1516  	aci	"supervisor_library.ex           "
    012700  aa  162 166 151 163
    012701  aa  157 162 137 154
    012702  aa  151 142 162 141
    012703  aa  162 171 056 145
    012704  aa  170 040 040 040
    012705  aa  040 040 040 040
    012706  aa  040 040 040 040
    012707  aa  163 165 160 145   1517  	aci	"supervisor_library.x            "
    012710  aa  162 166 151 163
    012711  aa  157 162 137 154
    012712  aa  151 142 162 141
    012713  aa  162 171 056 170
    012714  aa  040 040 040 040
    012715  aa  040 040 040 040
    012716  aa  040 040 040 040
    012717  aa  163 165 160 145   1518  	aci	"supervisor_library.e            "
    012720  aa  162 166 151 163
    012721  aa  157 162 137 154
    012722  aa  151 142 162 141
    012723  aa  162 171 056 145
    012724  aa  040 040 040 040
    012725  aa  040 040 040 040
    012726  aa  040 040 040 040
    012727  aa  163 165 160 145   1519  	aci	"supervisor_library              "
    012730  aa  162 166 151 163
    012731  aa  157 162 137 154
    012732  aa  151 142 162 141
    012733  aa  162 171 040 040
    012734  aa  040 040 040 040
    012735  aa  040 040 040 040
    012736  aa  040 040 040 040
    012737  aa  163 165 160 056   1520  	aci	"sup.execution                   "
    012740  aa  145 170 145 143
    012741  aa  165 164 151 157
    012742  aa  156 040 040 040
    012743  aa  040 040 040 040
    012744  aa  040 040 040 040
    012745  aa  040 040 040 040
    012746  aa  040 040 040 040
    012747  aa  163 165 160 056   1521  	aci	"sup.ex                          "
    012750  aa  145 170 040 040
    012751  aa  040 040 040 040
    012752  aa  040 040 040 040
    012753  aa  040 040 040 040
    012754  aa  040 040 040 040
    012755  aa  040 040 040 040
    012756  aa  040 040 040 040
    012757  aa  163 165 160 056   1522  	aci	"sup.x                           "
    012760  aa  170 040 040 040
    012761  aa  040 040 040 040
    012762  aa  040 040 040 040
    012763  aa  040 040 040 040
    012764  aa  040 040 040 040
    012765  aa  040 040 040 040
    012766  aa  040 040 040 040
    012767  aa  163 165 160 056   1523  	aci	"sup.e                           "
    012770  aa  145 040 040 040
    012771  aa  040 040 040 040
    012772  aa  040 040 040 040
    012773  aa  040 040 040 040
    012774  aa  040 040 040 040
    012775  aa  040 040 040 040
    012776  aa  040 040 040 040
    012777  aa  163 165 160 040   1524  	aci	"sup                             "
    013000  aa  040 040 040 040
    013001  aa  040 040 040 040
    013002  aa  040 040 040 040
    013003  aa  040 040 040 040
    013004  aa  040 040 040 040
    013005  aa  040 040 040 040
    013006  aa  040 040 040 040
    013007  aa  150 141 162 144   1525  	aci	"hardcore.execution              "
    013010  aa  143 157 162 145
    013011  aa  056 145 170 145
    013012  aa  143 165 164 151
    013013  aa  157 156 040 040
    013014  aa  040 040 040 040
    013015  aa  040 040 040 040
    013016  aa  040 040 040 040
    013017  aa  150 141 162 144   1526  	aci	"hardcore.ex                     "
    013020  aa  143 157 162 145
    013021  aa  056 145 170 040
    013022  aa  040 040 040 040
    013023  aa  040 040 040 040
    013024  aa  040 040 040 040
    013025  aa  040 040 040 040
    013026  aa  040 040 040 040
    013027  aa  150 141 162 144   1527  	aci	"hardcore.x                      "
    013030  aa  143 157 162 145
    013031  aa  056 170 040 040
    013032  aa  040 040 040 040
    013033  aa  040 040 040 040
    013034  aa  040 040 040 040
    013035  aa  040 040 040 040
    013036  aa  040 040 040 040
    013037  aa  150 141 162 144   1528  	aci	"hardcore.e                      "
    013040  aa  143 157 162 145
    013041  aa  056 145 040 040
    013042  aa  040 040 040 040
    013043  aa  040 040 040 040
    013044  aa  040 040 040 040
    013045  aa  040 040 040 040
    013046  aa  040 040 040 040
    013047  aa  150 141 162 144   1529  	aci	"hardcore                        "
    013050  aa  143 157 162 145
    013051  aa  040 040 040 040
    013052  aa  040 040 040 040
    013053  aa  040 040 040 040
    013054  aa  040 040 040 040
    013055  aa  040 040 040 040
    013056  aa  040 040 040 040
    013057  aa  150 141 162 144   1530  	aci	"hard.execution                  "
    013060  aa  056 145 170 145
    013061  aa  143 165 164 151
    013062  aa  157 156 040 040
    013063  aa  040 040 040 040
    013064  aa  040 040 040 040
    013065  aa  040 040 040 040
    013066  aa  040 040 040 040
    013067  aa  150 141 162 144   1531  	aci	"hard.ex                         "
    013070  aa  056 145 170 040
    013071  aa  040 040 040 040
    013072  aa  040 040 040 040
    013073  aa  040 040 040 040
    013074  aa  040 040 040 040
    013075  aa  040 040 040 040
    013076  aa  040 040 040 040
    013077  aa  150 141 162 144   1532  	aci	"hard.x                          "
    013100  aa  056 170 040 040
    013101  aa  040 040 040 040
    013102  aa  040 040 040 040
    013103  aa  040 040 040 040
    013104  aa  040 040 040 040
    013105  aa  040 040 040 040
    013106  aa  040 040 040 040
    013107  aa  150 141 162 144   1533  	aci	"hard.e                          "
    013110  aa  056 145 040 040
    013111  aa  040 040 040 040
    013112  aa  040 040 040 040
    013113  aa  040 040 040 040
    013114  aa  040 040 040 040
    013115  aa  040 040 040 040
    013116  aa  040 040 040 040
    013117  aa  150 141 162 144   1534  	aci	"hard                            "
    013120  aa  040 040 040 040
    013121  aa  040 040 040 040
    013122  aa  040 040 040 040
    013123  aa  040 040 040 040
    013124  aa  040 040 040 040
    013125  aa  040 040 040 040
    013126  aa  040 040 040 040
    013127  aa  150 056 145 170   1535  	aci	"h.execution                     "
    013130  aa  145 143 165 164
    013131  aa  151 157 156 040
    013132  aa  040 040 040 040
    013133  aa  040 040 040 040
    013134  aa  040 040 040 040
    013135  aa  040 040 040 040
    013136  aa  040 040 040 040
    013137  aa  150 056 145 170   1536  	aci	"h.ex                            "
    013140  aa  040 040 040 040
    013141  aa  040 040 040 040
    013142  aa  040 040 040 040
    013143  aa  040 040 040 040
    013144  aa  040 040 040 040
    013145  aa  040 040 040 040
    013146  aa  040 040 040 040
    013147  aa  150 056 170 040   1537  	aci	"h.x                             "
    013150  aa  040 040 040 040
    013151  aa  040 040 040 040
    013152  aa  040 040 040 040
    013153  aa  040 040 040 040
    013154  aa  040 040 040 040
    013155  aa  040 040 040 040
    013156  aa  040 040 040 040
    013157  aa  150 056 145 040   1538  	aci	"h.e                             "
    013160  aa  040 040 040 040
    013161  aa  040 040 040 040
    013162  aa  040 040 040 040
    013163  aa  040 040 040 040
    013164  aa  040 040 040 040
    013165  aa  040 040 040 040
    013166  aa  040 040 040 040
    013167  aa  150 040 040 040   1539  	aci	"h                               "
    013170  aa  040 040 040 040
    013171  aa  040 040 040 040
    013172  aa  040 040 040 040
    013173  aa  040 040 040 040
    013174  aa  040 040 040 040
    013175  aa  040 040 040 040
    013176  aa  040 040 040 040
    013177  aa  157 146 146 154   1540  	aci	"offline_libraries.execution     "
    013200  aa  151 156 145 137
    013201  aa  154 151 142 162
    013202  aa  141 162 151 145
    013203  aa  163 056 145 170
    013204  aa  145 143 165 164
    013205  aa  151 157 156 040
    013206  aa  040 040 040 040
    013207  aa  157 146 146 154   1541  	aci	"offline_libraries.ex            "
    013210  aa  151 156 145 137
    013211  aa  154 151 142 162
    013212  aa  141 162 151 145
    013213  aa  163 056 145 170
    013214  aa  040 040 040 040
    013215  aa  040 040 040 040
    013216  aa  040 040 040 040
    013217  aa  157 146 146 154   1542  	aci	"offline_libraries.x             "
    013220  aa  151 156 145 137
    013221  aa  154 151 142 162
    013222  aa  141 162 151 145
    013223  aa  163 056 170 040
    013224  aa  040 040 040 040
    013225  aa  040 040 040 040
    013226  aa  040 040 040 040
    013227  aa  157 146 146 154   1543  	aci	"offline_libraries.e             "
    013230  aa  151 156 145 137
    013231  aa  154 151 142 162
    013232  aa  141 162 151 145
    013233  aa  163 056 145 040
    013234  aa  040 040 040 040
    013235  aa  040 040 040 040
    013236  aa  040 040 040 040
    013237  aa  157 146 146 154   1544  	aci	"offline_libraries               "
    013240  aa  151 156 145 137
    013241  aa  154 151 142 162
    013242  aa  141 162 151 145
    013243  aa  163 040 040 040
    013244  aa  040 040 040 040
    013245  aa  040 040 040 040
    013246  aa  040 040 040 040
    013247  aa  157 146 146 154   1545  	aci	"offline.execution               "
    013250  aa  151 156 145 056
    013251  aa  145 170 145 143
    013252  aa  165 164 151 157
    013253  aa  156 040 040 040
    013254  aa  040 040 040 040
    013255  aa  040 040 040 040
    013256  aa  040 040 040 040
    013257  aa  157 146 146 154   1546  	aci	"offline.ex                      "
    013260  aa  151 156 145 056
    013261  aa  145 170 040 040
    013262  aa  040 040 040 040
    013263  aa  040 040 040 040
    013264  aa  040 040 040 040
    013265  aa  040 040 040 040
    013266  aa  040 040 040 040
    013267  aa  157 146 146 154   1547  	aci	"offline.x                       "
    013270  aa  151 156 145 056
    013271  aa  170 040 040 040
    013272  aa  040 040 040 040
    013273  aa  040 040 040 040
    013274  aa  040 040 040 040
    013275  aa  040 040 040 040
    013276  aa  040 040 040 040
    013277  aa  157 146 146 154   1548  	aci	"offline.e                       "
    013300  aa  151 156 145 056
    013301  aa  145 040 040 040
    013302  aa  040 040 040 040
    013303  aa  040 040 040 040
    013304  aa  040 040 040 040
    013305  aa  040 040 040 040
    013306  aa  040 040 040 040
    013307  aa  157 146 146 154   1549  	aci	"offline                         "
    013310  aa  151 156 145 040
    013311  aa  040 040 040 040
    013312  aa  040 040 040 040
    013313  aa  040 040 040 040
    013314  aa  040 040 040 040
    013315  aa  040 040 040 040
    013316  aa  040 040 040 040
    013317  aa  157 146 146 056   1550  	aci	"off.execution                   "
    013320  aa  145 170 145 143
    013321  aa  165 164 151 157
    013322  aa  156 040 040 040
    013323  aa  040 040 040 040
    013324  aa  040 040 040 040
    013325  aa  040 040 040 040
    013326  aa  040 040 040 040
    013327  aa  157 146 146 056   1551  	aci	"off.ex                          "
    013330  aa  145 170 040 040
    013331  aa  040 040 040 040
    013332  aa  040 040 040 040
    013333  aa  040 040 040 040
    013334  aa  040 040 040 040
    013335  aa  040 040 040 040
    013336  aa  040 040 040 040
    013337  aa  157 146 146 056   1552  	aci	"off.x                           "
    013340  aa  170 040 040 040
    013341  aa  040 040 040 040
    013342  aa  040 040 040 040
    013343  aa  040 040 040 040
    013344  aa  040 040 040 040
    013345  aa  040 040 040 040
    013346  aa  040 040 040 040
    013347  aa  157 146 146 056   1553  	aci	"off.e                           "
    013350  aa  145 040 040 040
    013351  aa  040 040 040 040
    013352  aa  040 040 040 040
    013353  aa  040 040 040 040
    013354  aa  040 040 040 040
    013355  aa  040 040 040 040
    013356  aa  040 040 040 040
    013357  aa  157 146 146 040   1554  	aci	"off                             "
    013360  aa  040 040 040 040
    013361  aa  040 040 040 040
    013362  aa  040 040 040 040
    013363  aa  040 040 040 040
    013364  aa  040 040 040 040
    013365  aa  040 040 040 040
    013366  aa  040 040 040 040
    013367  aa  145 170 145 143   1555  	aci	"execution                       "
    013370  aa  165 164 151 157
    013371  aa  156 040 040 040
    013372  aa  040 040 040 040
    013373  aa  040 040 040 040
    013374  aa  040 040 040 040
    013375  aa  040 040 040 040
    013376  aa  040 040 040 040
    013377  aa  145 170 040 040   1556  	aci	"ex                              "
    013400  aa  040 040 040 040
    013401  aa  040 040 040 040
    013402  aa  040 040 040 040
    013403  aa  040 040 040 040
    013404  aa  040 040 040 040
    013405  aa  040 040 040 040
    013406  aa  040 040 040 040
    013407  aa  170 040 040 040   1557  	aci	"x                               "
    013410  aa  040 040 040 040
    013411  aa  040 040 040 040
    013412  aa  040 040 040 040
    013413  aa  040 040 040 040
    013414  aa  040 040 040 040
    013415  aa  040 040 040 040
    013416  aa  040 040 040 040
    013417  aa  145 040 040 040   1558  	aci	"e                               "
    013420  aa  040 040 040 040
    013421  aa  040 040 040 040
    013422  aa  040 040 040 040
    013423  aa  040 040 040 040
    013424  aa  040 040 040 040
    013425  aa  040 040 040 040
    013426  aa  040 040 040 040
    013427  aa   000000 0110 03   1559  	even
    013430                        1560  .supervisor_library.object:
                                  1561  						" 1 root_names,
    013430  aa   000000 000032    1562  	dec	26				"   2 N,
                                  1563  						"   2 root_name (26);
    013431  aa  163 165 160 145   1564  	aci	"supervisor_library.object       "
    013432  aa  162 166 151 163
    013433  aa  157 162 137 154
    013434  aa  151 142 162 141
    013435  aa  162 171 056 157
    013436  aa  142 152 145 143
    013437  aa  164 040 040 040
    013440  aa  040 040 040 040
    013441  aa  163 165 160 145   1565  	aci	"supervisor_library.o            "
    013442  aa  162 166 151 163
    013443  aa  157 162 137 154
    013444  aa  151 142 162 141
    013445  aa  162 171 056 157
    013446  aa  040 040 040 040
    013447  aa  040 040 040 040
    013450  aa  040 040 040 040
    013451  aa  163 165 160 145   1566  	aci	"supervisor_library              "
    013452  aa  162 166 151 163
    013453  aa  157 162 137 154
    013454  aa  151 142 162 141
    013455  aa  162 171 040 040
    013456  aa  040 040 040 040
    013457  aa  040 040 040 040
    013460  aa  040 040 040 040
    013461  aa  163 165 160 056   1567  	aci	"sup.object                      "
    013462  aa  157 142 152 145
    013463  aa  143 164 040 040
    013464  aa  040 040 040 040
    013465  aa  040 040 040 040
    013466  aa  040 040 040 040
    013467  aa  040 040 040 040
    013470  aa  040 040 040 040
    013471  aa  163 165 160 056   1568  	aci	"sup.o                           "
    013472  aa  157 040 040 040
    013473  aa  040 040 040 040
    013474  aa  040 040 040 040
    013475  aa  040 040 040 040
    013476  aa  040 040 040 040
    013477  aa  040 040 040 040
    013500  aa  040 040 040 040
    013501  aa  163 165 160 040   1569  	aci	"sup                             "
    013502  aa  040 040 040 040
    013503  aa  040 040 040 040
    013504  aa  040 040 040 040
    013505  aa  040 040 040 040
    013506  aa  040 040 040 040
    013507  aa  040 040 040 040
    013510  aa  040 040 040 040
    013511  aa  150 141 162 144   1570  	aci	"hardcore.object                 "
    013512  aa  143 157 162 145
    013513  aa  056 157 142 152
    013514  aa  145 143 164 040
    013515  aa  040 040 040 040
    013516  aa  040 040 040 040
    013517  aa  040 040 040 040
    013520  aa  040 040 040 040
    013521  aa  150 141 162 144   1571  	aci	"hardcore.o                      "
    013522  aa  143 157 162 145
    013523  aa  056 157 040 040
    013524  aa  040 040 040 040
    013525  aa  040 040 040 040
    013526  aa  040 040 040 040
    013527  aa  040 040 040 040
    013530  aa  040 040 040 040
    013531  aa  150 141 162 144   1572  	aci	"hardcore                        "
    013532  aa  143 157 162 145
    013533  aa  040 040 040 040
    013534  aa  040 040 040 040
    013535  aa  040 040 040 040
    013536  aa  040 040 040 040
    013537  aa  040 040 040 040
    013540  aa  040 040 040 040
    013541  aa  150 141 162 144   1573  	aci	"hard.object                     "
    013542  aa  056 157 142 152
    013543  aa  145 143 164 040
    013544  aa  040 040 040 040
    013545  aa  040 040 040 040
    013546  aa  040 040 040 040
    013547  aa  040 040 040 040
    013550  aa  040 040 040 040
    013551  aa  150 141 162 144   1574  	aci	"hard.o                          "
    013552  aa  056 157 040 040
    013553  aa  040 040 040 040
    013554  aa  040 040 040 040
    013555  aa  040 040 040 040
    013556  aa  040 040 040 040
    013557  aa  040 040 040 040
    013560  aa  040 040 040 040
    013561  aa  150 141 162 144   1575  	aci	"hard                            "
    013562  aa  040 040 040 040
    013563  aa  040 040 040 040
    013564  aa  040 040 040 040
    013565  aa  040 040 040 040
    013566  aa  040 040 040 040
    013567  aa  040 040 040 040
    013570  aa  040 040 040 040
    013571  aa  150 056 157 142   1576  	aci	"h.object                        "
    013572  aa  152 145 143 164
    013573  aa  040 040 040 040
    013574  aa  040 040 040 040
    013575  aa  040 040 040 040
    013576  aa  040 040 040 040
    013577  aa  040 040 040 040
    013600  aa  040 040 040 040
    013601  aa  150 056 157 040   1577  	aci	"h.o                             "
    013602  aa  040 040 040 040
    013603  aa  040 040 040 040
    013604  aa  040 040 040 040
    013605  aa  040 040 040 040
    013606  aa  040 040 040 040
    013607  aa  040 040 040 040
    013610  aa  040 040 040 040
    013611  aa  150 040 040 040   1578  	aci	"h                               "
    013612  aa  040 040 040 040
    013613  aa  040 040 040 040
    013614  aa  040 040 040 040
    013615  aa  040 040 040 040
    013616  aa  040 040 040 040
    013617  aa  040 040 040 040
    013620  aa  040 040 040 040
    013621  aa  157 146 146 154   1579  	aci	"offline_libraries.object        "
    013622  aa  151 156 145 137
    013623  aa  154 151 142 162
    013624  aa  141 162 151 145
    013625  aa  163 056 157 142
    013626  aa  152 145 143 164
    013627  aa  040 040 040 040
    013630  aa  040 040 040 040
    013631  aa  157 146 146 154   1580  	aci	"offline_libraries.o             "
    013632  aa  151 156 145 137
    013633  aa  154 151 142 162
    013634  aa  141 162 151 145
    013635  aa  163 056 157 040
    013636  aa  040 040 040 040
    013637  aa  040 040 040 040
    013640  aa  040 040 040 040
    013641  aa  157 146 146 154   1581  	aci	"offline_libraries               "
    013642  aa  151 156 145 137
    013643  aa  154 151 142 162
    013644  aa  141 162 151 145
    013645  aa  163 040 040 040
    013646  aa  040 040 040 040
    013647  aa  040 040 040 040
    013650  aa  040 040 040 040
    013651  aa  157 146 146 154   1582  	aci	"offline.object                  "
    013652  aa  151 156 145 056
    013653  aa  157 142 152 145
    013654  aa  143 164 040 040
    013655  aa  040 040 040 040
    013656  aa  040 040 040 040
    013657  aa  040 040 040 040
    013660  aa  040 040 040 040
    013661  aa  157 146 146 154   1583  	aci	"offline.o                       "
    013662  aa  151 156 145 056
    013663  aa  157 040 040 040
    013664  aa  040 040 040 040
    013665  aa  040 040 040 040
    013666  aa  040 040 040 040
    013667  aa  040 040 040 040
    013670  aa  040 040 040 040
    013671  aa  157 146 146 154   1584  	aci	"offline                         "
    013672  aa  151 156 145 040
    013673  aa  040 040 040 040
    013674  aa  040 040 040 040
    013675  aa  040 040 040 040
    013676  aa  040 040 040 040
    013677  aa  040 040 040 040
    013700  aa  040 040 040 040
    013701  aa  157 146 146 056   1585  	aci	"off.object                      "
    013702  aa  157 142 152 145
    013703  aa  143 164 040 040
    013704  aa  040 040 040 040
    013705  aa  040 040 040 040
    013706  aa  040 040 040 040
    013707  aa  040 040 040 040
    013710  aa  040 040 040 040
    013711  aa  157 146 146 056   1586  	aci	"off.o                           "
    013712  aa  157 040 040 040
    013713  aa  040 040 040 040
    013714  aa  040 040 040 040
    013715  aa  040 040 040 040
    013716  aa  040 040 040 040
    013717  aa  040 040 040 040
    013720  aa  040 040 040 040
    013721  aa  157 146 146 040   1587  	aci	"off                             "
    013722  aa  040 040 040 040
    013723  aa  040 040 040 040
    013724  aa  040 040 040 040
    013725  aa  040 040 040 040
    013726  aa  040 040 040 040
    013727  aa  040 040 040 040
    013730  aa  040 040 040 040
    013731  aa  157 142 152 145   1588  	aci	"object                          "
    013732  aa  143 164 040 040
    013733  aa  040 040 040 040
    013734  aa  040 040 040 040
    013735  aa  040 040 040 040
    013736  aa  040 040 040 040
    013737  aa  040 040 040 040
    013740  aa  040 040 040 040
    013741  aa  157 040 040 040   1589  	aci	"o                               "
    013742  aa  040 040 040 040
    013743  aa  040 040 040 040
    013744  aa  040 040 040 040
    013745  aa  040 040 040 040
    013746  aa  040 040 040 040
    013747  aa  040 040 040 040
    013750  aa  040 040 040 040
    013751  aa   000000 0110 03   1590  	even
    013752                        1591  .supervisor_library.listings:
                                  1592  						" 1 root_names,
    013752  aa   000000 000011    1593  	dec	9				"   2 N,
                                  1594  						"   2 root_name (9);
    013753  aa  163 165 160 145   1595  	aci	"supervisor_library.listings     "
    013754  aa  162 166 151 163
    013755  aa  157 162 137 154
    013756  aa  151 142 162 141
    013757  aa  162 171 056 154
    013760  aa  151 163 164 151
    013761  aa  156 147 163 040
    013762  aa  040 040 040 040
    013763  aa  163 165 160 056   1596  	aci	"sup.listings                    "
    013764  aa  154 151 163 164
    013765  aa  151 156 147 163
    013766  aa  040 040 040 040
    013767  aa  040 040 040 040
    013770  aa  040 040 040 040
    013771  aa  040 040 040 040
    013772  aa  040 040 040 040
    013773  aa  150 141 162 144   1597  	aci	"hardcore.listings               "
    013774  aa  143 157 162 145
    013775  aa  056 154 151 163
    013776  aa  164 151 156 147
    013777  aa  163 040 040 040
    014000  aa  040 040 040 040
    014001  aa  040 040 040 040
    014002  aa  040 040 040 040
    014003  aa  150 141 162 144   1598  	aci	"hard.listings                   "
    014004  aa  056 154 151 163
    014005  aa  164 151 156 147
    014006  aa  163 040 040 040
    014007  aa  040 040 040 040
    014010  aa  040 040 040 040
    014011  aa  040 040 040 040
    014012  aa  040 040 040 040
    014013  aa  150 056 154 151   1599  	aci	"h.listings                      "
    014014  aa  163 164 151 156
    014015  aa  147 163 040 040
    014016  aa  040 040 040 040
    014017  aa  040 040 040 040
    014020  aa  040 040 040 040
    014021  aa  040 040 040 040
    014022  aa  040 040 040 040
    014023  aa  157 146 146 154   1600  	aci	"offline_libraries.listings      "
    014024  aa  151 156 145 137
    014025  aa  154 151 142 162
    014026  aa  141 162 151 145
    014027  aa  163 056 154 151
    014030  aa  163 164 151 156
    014031  aa  147 163 040 040
    014032  aa  040 040 040 040
    014033  aa  157 146 146 154   1601  	aci	"offline.listings                "
    014034  aa  151 156 145 056
    014035  aa  154 151 163 164
    014036  aa  151 156 147 163
    014037  aa  040 040 040 040
    014040  aa  040 040 040 040
    014041  aa  040 040 040 040
    014042  aa  040 040 040 040
    014043  aa  157 146 146 056   1602  	aci	"off.listings                    "
    014044  aa  154 151 163 164
    014045  aa  151 156 147 163
    014046  aa  040 040 040 040
    014047  aa  040 040 040 040
    014050  aa  040 040 040 040
    014051  aa  040 040 040 040
    014052  aa  040 040 040 040
    014053  aa  154 151 163 164   1603  	aci	"listings                        "
    014054  aa  151 156 147 163
    014055  aa  040 040 040 040
    014056  aa  040 040 040 040
    014057  aa  040 040 040 040
    014060  aa  040 040 040 040
    014061  aa  040 040 040 040
    014062  aa  040 040 040 040
    014063  aa   000000 0110 03   1604  	even
    014064                        1605  .supervisor_library.i:
                                  1606  						" 1 root_names,
    014064  aa   000000 000021    1607  	dec	17				"   2 N,
                                  1608  						"   2 root_name (17);
    014065  aa  163 165 160 145   1609  	aci	"supervisor_library.i            "
    014066  aa  162 166 151 163
    014067  aa  157 162 137 154
    014070  aa  151 142 162 141
    014071  aa  162 171 056 151
    014072  aa  040 040 040 040
    014073  aa  040 040 040 040
    014074  aa  040 040 040 040
    014075  aa  163 165 160 145   1610  	aci	"supervisor_library              "
    014076  aa  162 166 151 163
    014077  aa  157 162 137 154
    014100  aa  151 142 162 141
    014101  aa  162 171 040 040
    014102  aa  040 040 040 040
    014103  aa  040 040 040 040
    014104  aa  040 040 040 040
    014105  aa  163 165 160 056   1611  	aci	"sup.i                           "
    014106  aa  151 040 040 040
    014107  aa  040 040 040 040
    014110  aa  040 040 040 040
    014111  aa  040 040 040 040
    014112  aa  040 040 040 040
    014113  aa  040 040 040 040
    014114  aa  040 040 040 040
    014115  aa  163 165 160 040   1612  	aci	"sup                             "
    014116  aa  040 040 040 040
    014117  aa  040 040 040 040
    014120  aa  040 040 040 040
    014121  aa  040 040 040 040
    014122  aa  040 040 040 040
    014123  aa  040 040 040 040
    014124  aa  040 040 040 040
    014125  aa  150 141 162 144   1613  	aci	"hardcore.i                      "
    014126  aa  143 157 162 145
    014127  aa  056 151 040 040
    014130  aa  040 040 040 040
    014131  aa  040 040 040 040
    014132  aa  040 040 040 040
    014133  aa  040 040 040 040
    014134  aa  040 040 040 040
    014135  aa  150 141 162 144   1614  	aci	"hardcore                        "
    014136  aa  143 157 162 145
    014137  aa  040 040 040 040
    014140  aa  040 040 040 040
    014141  aa  040 040 040 040
    014142  aa  040 040 040 040
    014143  aa  040 040 040 040
    014144  aa  040 040 040 040
    014145  aa  150 141 162 144   1615  	aci	"hard.i                          "
    014146  aa  056 151 040 040
    014147  aa  040 040 040 040
    014150  aa  040 040 040 040
    014151  aa  040 040 040 040
    014152  aa  040 040 040 040
    014153  aa  040 040 040 040
    014154  aa  040 040 040 040
    014155  aa  150 141 162 144   1616  	aci	"hard                            "
    014156  aa  040 040 040 040
    014157  aa  040 040 040 040
    014160  aa  040 040 040 040
    014161  aa  040 040 040 040
    014162  aa  040 040 040 040
    014163  aa  040 040 040 040
    014164  aa  040 040 040 040
    014165  aa  150 056 151 040   1617  	aci	"h.i                             "
    014166  aa  040 040 040 040
    014167  aa  040 040 040 040
    014170  aa  040 040 040 040
    014171  aa  040 040 040 040
    014172  aa  040 040 040 040
    014173  aa  040 040 040 040
    014174  aa  040 040 040 040
    014175  aa  150 040 040 040   1618  	aci	"h                               "
    014176  aa  040 040 040 040
    014177  aa  040 040 040 040
    014200  aa  040 040 040 040
    014201  aa  040 040 040 040
    014202  aa  040 040 040 040
    014203  aa  040 040 040 040
    014204  aa  040 040 040 040
    014205  aa  157 146 146 154   1619  	aci	"offline_libraries.i             "
    014206  aa  151 156 145 137
    014207  aa  154 151 142 162
    014210  aa  141 162 151 145
    014211  aa  163 056 151 040
    014212  aa  040 040 040 040
    014213  aa  040 040 040 040
    014214  aa  040 040 040 040
    014215  aa  157 146 146 154   1620  	aci	"offline_libraries               "
    014216  aa  151 156 145 137
    014217  aa  154 151 142 162
    014220  aa  141 162 151 145
    014221  aa  163 040 040 040
    014222  aa  040 040 040 040
    014223  aa  040 040 040 040
    014224  aa  040 040 040 040
    014225  aa  157 146 146 154   1621  	aci	"offline.i                       "
    014226  aa  151 156 145 056
    014227  aa  151 040 040 040
    014230  aa  040 040 040 040
    014231  aa  040 040 040 040
    014232  aa  040 040 040 040
    014233  aa  040 040 040 040
    014234  aa  040 040 040 040
    014235  aa  157 146 146 154   1622  	aci	"offline                         "
    014236  aa  151 156 145 040
    014237  aa  040 040 040 040
    014240  aa  040 040 040 040
    014241  aa  040 040 040 040
    014242  aa  040 040 040 040
    014243  aa  040 040 040 040
    014244  aa  040 040 040 040
    014245  aa  157 146 146 056   1623  	aci	"off.i                           "
    014246  aa  151 040 040 040
    014247  aa  040 040 040 040
    014250  aa  040 040 040 040
    014251  aa  040 040 040 040
    014252  aa  040 040 040 040
    014253  aa  040 040 040 040
    014254  aa  040 040 040 040
    014255  aa  157 146 146 040   1624  	aci	"off                             "
    014256  aa  040 040 040 040
    014257  aa  040 040 040 040
    014260  aa  040 040 040 040
    014261  aa  040 040 040 040
    014262  aa  040 040 040 040
    014263  aa  040 040 040 040
    014264  aa  040 040 040 040
    014265  aa  151 040 040 040   1625  	aci	"i                               "
    014266  aa  040 040 040 040
    014267  aa  040 040 040 040
    014270  aa  040 040 040 040
    014271  aa  040 040 040 040
    014272  aa  040 040 040 040
    014273  aa  040 040 040 040
    014274  aa  040 040 040 040
    014275  aa   000000 0110 03   1626  	even
    014276                        1627  .mcs.source:
                                  1628  						" 1 root_names,
    014276  aa   000000 000027    1629  	dec	23				"   2 N,
                                  1630  						"   2 root_name (23);
    014277  aa  155 143 163 056   1631  	aci	"mcs.source                      "
    014300  aa  163 157 165 162
    014301  aa  143 145 040 040
    014302  aa  040 040 040 040
    014303  aa  040 040 040 040
    014304  aa  040 040 040 040
    014305  aa  040 040 040 040
    014306  aa  040 040 040 040
    014307  aa  155 143 163 056   1632  	aci	"mcs.s                           "
    014310  aa  163 040 040 040
    014311  aa  040 040 040 040
    014312  aa  040 040 040 040
    014313  aa  040 040 040 040
    014314  aa  040 040 040 040
    014315  aa  040 040 040 040
    014316  aa  040 040 040 040
    014317  aa  155 143 163 040   1633  	aci	"mcs                             "
    014320  aa  040 040 040 040
    014321  aa  040 040 040 040
    014322  aa  040 040 040 040
    014323  aa  040 040 040 040
    014324  aa  040 040 040 040
    014325  aa  040 040 040 040
    014326  aa  040 040 040 040
    014327  aa  143 157 155 155   1634  	aci	"communications_library.source   "
    014330  aa  165 156 151 143
    014331  aa  141 164 151 157
    014332  aa  156 163 137 154
    014333  aa  151 142 162 141
    014334  aa  162 171 056 163
    014335  aa  157 165 162 143
    014336  aa  145 040 040 040
    014337  aa  143 157 155 155   1635  	aci	"communications_library.s        "
    014340  aa  165 156 151 143
    014341  aa  141 164 151 157
    014342  aa  156 163 137 154
    014343  aa  151 142 162 141
    014344  aa  162 171 056 163
    014345  aa  040 040 040 040
    014346  aa  040 040 040 040
    014347  aa  143 157 155 155   1636  	aci	"communications_library          "
    014350  aa  165 156 151 143
    014351  aa  141 164 151 157
    014352  aa  156 163 137 154
    014353  aa  151 142 162 141
    014354  aa  162 171 040 040
    014355  aa  040 040 040 040
    014356  aa  040 040 040 040
    014357  aa  143 157 155 056   1637  	aci	"com.source                      "
    014360  aa  163 157 165 162
    014361  aa  143 145 040 040
    014362  aa  040 040 040 040
    014363  aa  040 040 040 040
    014364  aa  040 040 040 040
    014365  aa  040 040 040 040
    014366  aa  040 040 040 040
    014367  aa  143 157 155 056   1638  	aci	"com.s                           "
    014370  aa  163 040 040 040
    014371  aa  040 040 040 040
    014372  aa  040 040 040 040
    014373  aa  040 040 040 040
    014374  aa  040 040 040 040
    014375  aa  040 040 040 040
    014376  aa  040 040 040 040
    014377  aa  143 157 155 040   1639  	aci	"com                             "
    014400  aa  040 040 040 040
    014401  aa  040 040 040 040
    014402  aa  040 040 040 040
    014403  aa  040 040 040 040
    014404  aa  040 040 040 040
    014405  aa  040 040 040 040
    014406  aa  040 040 040 040
    014407  aa  143 157 155 155   1640  	aci	"comm.source                     "
    014410  aa  056 163 157 165
    014411  aa  162 143 145 040
    014412  aa  040 040 040 040
    014413  aa  040 040 040 040
    014414  aa  040 040 040 040
    014415  aa  040 040 040 040
    014416  aa  040 040 040 040
    014417  aa  143 157 155 155   1641  	aci	"comm.s                          "
    014420  aa  056 163 040 040
    014421  aa  040 040 040 040
    014422  aa  040 040 040 040
    014423  aa  040 040 040 040
    014424  aa  040 040 040 040
    014425  aa  040 040 040 040
    014426  aa  040 040 040 040
    014427  aa  143 157 155 155   1642  	aci	"comm                            "
    014430  aa  040 040 040 040
    014431  aa  040 040 040 040
    014432  aa  040 040 040 040
    014433  aa  040 040 040 040
    014434  aa  040 040 040 040
    014435  aa  040 040 040 040
    014436  aa  040 040 040 040
    014437  aa  157 146 146 154   1643  	aci	"offline_libraries.source        "
    014440  aa  151 156 145 137
    014441  aa  154 151 142 162
    014442  aa  141 162 151 145
    014443  aa  163 056 163 157
    014444  aa  165 162 143 145
    014445  aa  040 040 040 040
    014446  aa  040 040 040 040
    014447  aa  157 146 146 154   1644  	aci	"offline_libraries.s             "
    014450  aa  151 156 145 137
    014451  aa  154 151 142 162
    014452  aa  141 162 151 145
    014453  aa  163 056 163 040
    014454  aa  040 040 040 040
    014455  aa  040 040 040 040
    014456  aa  040 040 040 040
    014457  aa  157 146 146 154   1645  	aci	"offline_libraries               "
    014460  aa  151 156 145 137
    014461  aa  154 151 142 162
    014462  aa  141 162 151 145
    014463  aa  163 040 040 040
    014464  aa  040 040 040 040
    014465  aa  040 040 040 040
    014466  aa  040 040 040 040
    014467  aa  157 146 146 154   1646  	aci	"offline.source                  "
    014470  aa  151 156 145 056
    014471  aa  163 157 165 162
    014472  aa  143 145 040 040
    014473  aa  040 040 040 040
    014474  aa  040 040 040 040
    014475  aa  040 040 040 040
    014476  aa  040 040 040 040
    014477  aa  157 146 146 154   1647  	aci	"offline.s                       "
    014500  aa  151 156 145 056
    014501  aa  163 040 040 040
    014502  aa  040 040 040 040
    014503  aa  040 040 040 040
    014504  aa  040 040 040 040
    014505  aa  040 040 040 040
    014506  aa  040 040 040 040
    014507  aa  157 146 146 154   1648  	aci	"offline                         "
    014510  aa  151 156 145 040
    014511  aa  040 040 040 040
    014512  aa  040 040 040 040
    014513  aa  040 040 040 040
    014514  aa  040 040 040 040
    014515  aa  040 040 040 040
    014516  aa  040 040 040 040
    014517  aa  157 146 146 056   1649  	aci	"off.source                      "
    014520  aa  163 157 165 162
    014521  aa  143 145 040 040
    014522  aa  040 040 040 040
    014523  aa  040 040 040 040
    014524  aa  040 040 040 040
    014525  aa  040 040 040 040
    014526  aa  040 040 040 040
    014527  aa  157 146 146 056   1650  	aci	"off.s                           "
    014530  aa  163 040 040 040
    014531  aa  040 040 040 040
    014532  aa  040 040 040 040
    014533  aa  040 040 040 040
    014534  aa  040 040 040 040
    014535  aa  040 040 040 040
    014536  aa  040 040 040 040
    014537  aa  157 146 146 040   1651  	aci	"off                             "
    014540  aa  040 040 040 040
    014541  aa  040 040 040 040
    014542  aa  040 040 040 040
    014543  aa  040 040 040 040
    014544  aa  040 040 040 040
    014545  aa  040 040 040 040
    014546  aa  040 040 040 040
    014547  aa  163 157 165 162   1652  	aci	"source                          "
    014550  aa  143 145 040 040
    014551  aa  040 040 040 040
    014552  aa  040 040 040 040
    014553  aa  040 040 040 040
    014554  aa  040 040 040 040
    014555  aa  040 040 040 040
    014556  aa  040 040 040 040
    014557  aa  163 040 040 040   1653  	aci	"s                               "
    014560  aa  040 040 040 040
    014561  aa  040 040 040 040
    014562  aa  040 040 040 040
    014563  aa  040 040 040 040
    014564  aa  040 040 040 040
    014565  aa  040 040 040 040
    014566  aa  040 040 040 040
    014567  aa   000000 0110 03   1654  	even
    014570                        1655  .mcs.object:
                                  1656  						" 1 root_names,
    014570  aa   000000 000027    1657  	dec	23				"   2 N,
                                  1658  						"   2 root_name (23);
    014571  aa  155 143 163 056   1659  	aci	"mcs.object                      "
    014572  aa  157 142 152 145
    014573  aa  143 164 040 040
    014574  aa  040 040 040 040
    014575  aa  040 040 040 040
    014576  aa  040 040 040 040
    014577  aa  040 040 040 040
    014600  aa  040 040 040 040
    014601  aa  155 143 163 056   1660  	aci	"mcs.o                           "
    014602  aa  157 040 040 040
    014603  aa  040 040 040 040
    014604  aa  040 040 040 040
    014605  aa  040 040 040 040
    014606  aa  040 040 040 040
    014607  aa  040 040 040 040
    014610  aa  040 040 040 040
    014611  aa  155 143 163 040   1661  	aci	"mcs                             "
    014612  aa  040 040 040 040
    014613  aa  040 040 040 040
    014614  aa  040 040 040 040
    014615  aa  040 040 040 040
    014616  aa  040 040 040 040
    014617  aa  040 040 040 040
    014620  aa  040 040 040 040
    014621  aa  143 157 155 155   1662  	aci	"communications_library.object   "
    014622  aa  165 156 151 143
    014623  aa  141 164 151 157
    014624  aa  156 163 137 154
    014625  aa  151 142 162 141
    014626  aa  162 171 056 157
    014627  aa  142 152 145 143
    014630  aa  164 040 040 040
    014631  aa  143 157 155 155   1663  	aci	"communications_library.o        "
    014632  aa  165 156 151 143
    014633  aa  141 164 151 157
    014634  aa  156 163 137 154
    014635  aa  151 142 162 141
    014636  aa  162 171 056 157
    014637  aa  040 040 040 040
    014640  aa  040 040 040 040
    014641  aa  143 157 155 155   1664  	aci	"communications_library          "
    014642  aa  165 156 151 143
    014643  aa  141 164 151 157
    014644  aa  156 163 137 154
    014645  aa  151 142 162 141
    014646  aa  162 171 040 040
    014647  aa  040 040 040 040
    014650  aa  040 040 040 040
    014651  aa  143 157 155 056   1665  	aci	"com.object                      "
    014652  aa  157 142 152 145
    014653  aa  143 164 040 040
    014654  aa  040 040 040 040
    014655  aa  040 040 040 040
    014656  aa  040 040 040 040
    014657  aa  040 040 040 040
    014660  aa  040 040 040 040
    014661  aa  143 157 155 056   1666  	aci	"com.o                           "
    014662  aa  157 040 040 040
    014663  aa  040 040 040 040
    014664  aa  040 040 040 040
    014665  aa  040 040 040 040
    014666  aa  040 040 040 040
    014667  aa  040 040 040 040
    014670  aa  040 040 040 040
    014671  aa  143 157 155 040   1667  	aci	"com                             "
    014672  aa  040 040 040 040
    014673  aa  040 040 040 040
    014674  aa  040 040 040 040
    014675  aa  040 040 040 040
    014676  aa  040 040 040 040
    014677  aa  040 040 040 040
    014700  aa  040 040 040 040
    014701  aa  143 157 155 155   1668  	aci	"comm.object                     "
    014702  aa  056 157 142 152
    014703  aa  145 143 164 040
    014704  aa  040 040 040 040
    014705  aa  040 040 040 040
    014706  aa  040 040 040 040
    014707  aa  040 040 040 040
    014710  aa  040 040 040 040
    014711  aa  143 157 155 155   1669  	aci	"comm.o                          "
    014712  aa  056 157 040 040
    014713  aa  040 040 040 040
    014714  aa  040 040 040 040
    014715  aa  040 040 040 040
    014716  aa  040 040 040 040
    014717  aa  040 040 040 040
    014720  aa  040 040 040 040
    014721  aa  143 157 155 155   1670  	aci	"comm                            "
    014722  aa  040 040 040 040
    014723  aa  040 040 040 040
    014724  aa  040 040 040 040
    014725  aa  040 040 040 040
    014726  aa  040 040 040 040
    014727  aa  040 040 040 040
    014730  aa  040 040 040 040
    014731  aa  157 146 146 154   1671  	aci	"offline_libraries.object        "
    014732  aa  151 156 145 137
    014733  aa  154 151 142 162
    014734  aa  141 162 151 145
    014735  aa  163 056 157 142
    014736  aa  152 145 143 164
    014737  aa  040 040 040 040
    014740  aa  040 040 040 040
    014741  aa  157 146 146 154   1672  	aci	"offline_libraries.o             "
    014742  aa  151 156 145 137
    014743  aa  154 151 142 162
    014744  aa  141 162 151 145
    014745  aa  163 056 157 040
    014746  aa  040 040 040 040
    014747  aa  040 040 040 040
    014750  aa  040 040 040 040
    014751  aa  157 146 146 154   1673  	aci	"offline_libraries               "
    014752  aa  151 156 145 137
    014753  aa  154 151 142 162
    014754  aa  141 162 151 145
    014755  aa  163 040 040 040
    014756  aa  040 040 040 040
    014757  aa  040 040 040 040
    014760  aa  040 040 040 040
    014761  aa  157 146 146 154   1674  	aci	"offline.object                  "
    014762  aa  151 156 145 056
    014763  aa  157 142 152 145
    014764  aa  143 164 040 040
    014765  aa  040 040 040 040
    014766  aa  040 040 040 040
    014767  aa  040 040 040 040
    014770  aa  040 040 040 040
    014771  aa  157 146 146 154   1675  	aci	"offline.o                       "
    014772  aa  151 156 145 056
    014773  aa  157 040 040 040
    014774  aa  040 040 040 040
    014775  aa  040 040 040 040
    014776  aa  040 040 040 040
    014777  aa  040 040 040 040
    015000  aa  040 040 040 040
    015001  aa  157 146 146 154   1676  	aci	"offline                         "
    015002  aa  151 156 145 040
    015003  aa  040 040 040 040
    015004  aa  040 040 040 040
    015005  aa  040 040 040 040
    015006  aa  040 040 040 040
    015007  aa  040 040 040 040
    015010  aa  040 040 040 040
    015011  aa  157 146 146 056   1677  	aci	"off.object                      "
    015012  aa  157 142 152 145
    015013  aa  143 164 040 040
    015014  aa  040 040 040 040
    015015  aa  040 040 040 040
    015016  aa  040 040 040 040
    015017  aa  040 040 040 040
    015020  aa  040 040 040 040
    015021  aa  157 146 146 056   1678  	aci	"off.o                           "
    015022  aa  157 040 040 040
    015023  aa  040 040 040 040
    015024  aa  040 040 040 040
    015025  aa  040 040 040 040
    015026  aa  040 040 040 040
    015027  aa  040 040 040 040
    015030  aa  040 040 040 040
    015031  aa  157 146 146 040   1679  	aci	"off                             "
    015032  aa  040 040 040 040
    015033  aa  040 040 040 040
    015034  aa  040 040 040 040
    015035  aa  040 040 040 040
    015036  aa  040 040 040 040
    015037  aa  040 040 040 040
    015040  aa  040 040 040 040
    015041  aa  157 142 152 145   1680  	aci	"object                          "
    015042  aa  143 164 040 040
    015043  aa  040 040 040 040
    015044  aa  040 040 040 040
    015045  aa  040 040 040 040
    015046  aa  040 040 040 040
    015047  aa  040 040 040 040
    015050  aa  040 040 040 040
    015051  aa  157 040 040 040   1681  	aci	"o                               "
    015052  aa  040 040 040 040
    015053  aa  040 040 040 040
    015054  aa  040 040 040 040
    015055  aa  040 040 040 040
    015056  aa  040 040 040 040
    015057  aa  040 040 040 040
    015060  aa  040 040 040 040
    015061  aa   000000 0110 03   1682  	even
    015062                        1683  .mcs.i:
                                  1684  						" 1 root_names,
    015062  aa   000000 000017    1685  	dec	15				"   2 N,
                                  1686  						"   2 root_name (15);
    015063  aa  155 143 163 056   1687  	aci	"mcs.i                           "
    015064  aa  151 040 040 040
    015065  aa  040 040 040 040
    015066  aa  040 040 040 040
    015067  aa  040 040 040 040
    015070  aa  040 040 040 040
    015071  aa  040 040 040 040
    015072  aa  040 040 040 040
    015073  aa  155 143 163 040   1688  	aci	"mcs                             "
    015074  aa  040 040 040 040
    015075  aa  040 040 040 040
    015076  aa  040 040 040 040
    015077  aa  040 040 040 040
    015100  aa  040 040 040 040
    015101  aa  040 040 040 040
    015102  aa  040 040 040 040
    015103  aa  143 157 155 155   1689  	aci	"communications_library.i        "
    015104  aa  165 156 151 143
    015105  aa  141 164 151 157
    015106  aa  156 163 137 154
    015107  aa  151 142 162 141
    015110  aa  162 171 056 151
    015111  aa  040 040 040 040
    015112  aa  040 040 040 040
    015113  aa  143 157 155 155   1690  	aci	"communications_library          "
    015114  aa  165 156 151 143
    015115  aa  141 164 151 157
    015116  aa  156 163 137 154
    015117  aa  151 142 162 141
    015120  aa  162 171 040 040
    015121  aa  040 040 040 040
    015122  aa  040 040 040 040
    015123  aa  143 157 155 056   1691  	aci	"com.i                           "
    015124  aa  151 040 040 040
    015125  aa  040 040 040 040
    015126  aa  040 040 040 040
    015127  aa  040 040 040 040
    015130  aa  040 040 040 040
    015131  aa  040 040 040 040
    015132  aa  040 040 040 040
    015133  aa  143 157 155 040   1692  	aci	"com                             "
    015134  aa  040 040 040 040
    015135  aa  040 040 040 040
    015136  aa  040 040 040 040
    015137  aa  040 040 040 040
    015140  aa  040 040 040 040
    015141  aa  040 040 040 040
    015142  aa  040 040 040 040
    015143  aa  143 157 155 155   1693  	aci	"comm.i                          "
    015144  aa  056 151 040 040
    015145  aa  040 040 040 040
    015146  aa  040 040 040 040
    015147  aa  040 040 040 040
    015150  aa  040 040 040 040
    015151  aa  040 040 040 040
    015152  aa  040 040 040 040
    015153  aa  143 157 155 155   1694  	aci	"comm                            "
    015154  aa  040 040 040 040
    015155  aa  040 040 040 040
    015156  aa  040 040 040 040
    015157  aa  040 040 040 040
    015160  aa  040 040 040 040
    015161  aa  040 040 040 040
    015162  aa  040 040 040 040
    015163  aa  157 146 146 154   1695  	aci	"offline_libraries.i             "
    015164  aa  151 156 145 137
    015165  aa  154 151 142 162
    015166  aa  141 162 151 145
    015167  aa  163 056 151 040
    015170  aa  040 040 040 040
    015171  aa  040 040 040 040
    015172  aa  040 040 040 040
    015173  aa  157 146 146 154   1696  	aci	"offline_libraries               "
    015174  aa  151 156 145 137
    015175  aa  154 151 142 162
    015176  aa  141 162 151 145
    015177  aa  163 040 040 040
    015200  aa  040 040 040 040
    015201  aa  040 040 040 040
    015202  aa  040 040 040 040
    015203  aa  157 146 146 154   1697  	aci	"offline.i                       "
    015204  aa  151 156 145 056
    015205  aa  151 040 040 040
    015206  aa  040 040 040 040
    015207  aa  040 040 040 040
    015210  aa  040 040 040 040
    015211  aa  040 040 040 040
    015212  aa  040 040 040 040
    015213  aa  157 146 146 154   1698  	aci	"offline                         "
    015214  aa  151 156 145 040
    015215  aa  040 040 040 040
    015216  aa  040 040 040 040
    015217  aa  040 040 040 040
    015220  aa  040 040 040 040
    015221  aa  040 040 040 040
    015222  aa  040 040 040 040
    015223  aa  157 146 146 056   1699  	aci	"off.i                           "
    015224  aa  151 040 040 040
    015225  aa  040 040 040 040
    015226  aa  040 040 040 040
    015227  aa  040 040 040 040
    015230  aa  040 040 040 040
    015231  aa  040 040 040 040
    015232  aa  040 040 040 040
    015233  aa  157 146 146 040   1700  	aci	"off                             "
    015234  aa  040 040 040 040
    015235  aa  040 040 040 040
    015236  aa  040 040 040 040
    015237  aa  040 040 040 040
    015240  aa  040 040 040 040
    015241  aa  040 040 040 040
    015242  aa  040 040 040 040
    015243  aa  151 040 040 040   1701  	aci	"i                               "
    015244  aa  040 040 040 040
    015245  aa  040 040 040 040
    015246  aa  040 040 040 040
    015247  aa  040 040 040 040
    015250  aa  040 040 040 040
    015251  aa  040 040 040 040
    015252  aa  040 040 040 040
    015253  aa   000000 0110 03   1702  	even
    015254                        1703  .mcs.listings:
                                  1704  						" 1 root_names,
    015254  aa   000000 000010    1705  	dec	8				"   2 N,
                                  1706  						"   2 root_name (8);
    015255  aa  155 143 163 056   1707  	aci	"mcs.listings                    "
    015256  aa  154 151 163 164
    015257  aa  151 156 147 163
    015260  aa  040 040 040 040
    015261  aa  040 040 040 040
    015262  aa  040 040 040 040
    015263  aa  040 040 040 040
    015264  aa  040 040 040 040
    015265  aa  143 157 155 155   1708  	aci	"communications_library.listings "
    015266  aa  165 156 151 143
    015267  aa  141 164 151 157
    015270  aa  156 163 137 154
    015271  aa  151 142 162 141
    015272  aa  162 171 056 154
    015273  aa  151 163 164 151
    015274  aa  156 147 163 040
    015275  aa  143 157 155 056   1709  	aci	"com.listings                    "
    015276  aa  154 151 163 164
    015277  aa  151 156 147 163
    015300  aa  040 040 040 040
    015301  aa  040 040 040 040
    015302  aa  040 040 040 040
    015303  aa  040 040 040 040
    015304  aa  040 040 040 040
    015305  aa  143 157 155 155   1710  	aci	"comm.listings                   "
    015306  aa  056 154 151 163
    015307  aa  164 151 156 147
    015310  aa  163 040 040 040
    015311  aa  040 040 040 040
    015312  aa  040 040 040 040
    015313  aa  040 040 040 040
    015314  aa  040 040 040 040
    015315  aa  157 146 146 154   1711  	aci	"offline_libraries.listings      "
    015316  aa  151 156 145 137
    015317  aa  154 151 142 162
    015320  aa  141 162 151 145
    015321  aa  163 056 154 151
    015322  aa  163 164 151 156
    015323  aa  147 163 040 040
    015324  aa  040 040 040 040
    015325  aa  157 146 146 154   1712  	aci	"offline.listings                "
    015326  aa  151 156 145 056
    015327  aa  154 151 163 164
    015330  aa  151 156 147 163
    015331  aa  040 040 040 040
    015332  aa  040 040 040 040
    015333  aa  040 040 040 040
    015334  aa  040 040 040 040
    015335  aa  157 146 146 056   1713  	aci	"off.listings                    "
    015336  aa  154 151 163 164
    015337  aa  151 156 147 163
    015340  aa  040 040 040 040
    015341  aa  040 040 040 040
    015342  aa  040 040 040 040
    015343  aa  040 040 040 040
    015344  aa  040 040 040 040
    015345  aa  154 151 163 164   1714  	aci	"listings                        "
    015346  aa  151 156 147 163
    015347  aa  040 040 040 040
    015350  aa  040 040 040 040
    015351  aa  040 040 040 040
    015352  aa  040 040 040 040
    015353  aa  040 040 040 040
    015354  aa  040 040 040 040
    015355  aa   000000 0110 03   1715  	even
    015356                        1716  .obsolete_library.source:
                                  1717  						" 1 root_names,
    015356  aa   000000 000021    1718  	dec	17				"   2 N,
                                  1719  						"   2 root_name (17);
    015357  aa  157 142 163 157   1720  	aci	"obsolete_library.source         "
    015360  aa  154 145 164 145
    015361  aa  137 154 151 142
    015362  aa  162 141 162 171
    015363  aa  056 163 157 165
    015364  aa  162 143 145 040
    015365  aa  040 040 040 040
    015366  aa  040 040 040 040
    015367  aa  157 142 163 157   1721  	aci	"obsolete_library.s              "
    015370  aa  154 145 164 145
    015371  aa  137 154 151 142
    015372  aa  162 141 162 171
    015373  aa  056 163 040 040
    015374  aa  040 040 040 040
    015375  aa  040 040 040 040
    015376  aa  040 040 040 040
    015377  aa  157 142 163 157   1722  	aci	"obsolete_library                "
    015400  aa  154 145 164 145
    015401  aa  137 154 151 142
    015402  aa  162 141 162 171
    015403  aa  040 040 040 040
    015404  aa  040 040 040 040
    015405  aa  040 040 040 040
    015406  aa  040 040 040 040
    015407  aa  157 142 163 056   1723  	aci	"obs.source                      "
    015410  aa  163 157 165 162
    015411  aa  143 145 040 040
    015412  aa  040 040 040 040
    015413  aa  040 040 040 040
    015414  aa  040 040 040 040
    015415  aa  040 040 040 040
    015416  aa  040 040 040 040
    015417  aa  157 142 163 056   1724  	aci	"obs.s                           "
    015420  aa  163 040 040 040
    015421  aa  040 040 040 040
    015422  aa  040 040 040 040
    015423  aa  040 040 040 040
    015424  aa  040 040 040 040
    015425  aa  040 040 040 040
    015426  aa  040 040 040 040
    015427  aa  157 142 163 040   1725  	aci	"obs                             "
    015430  aa  040 040 040 040
    015431  aa  040 040 040 040
    015432  aa  040 040 040 040
    015433  aa  040 040 040 040
    015434  aa  040 040 040 040
    015435  aa  040 040 040 040
    015436  aa  040 040 040 040
    015437  aa  157 156 154 151   1726  	aci	"online_libraries.source         "
    015440  aa  156 145 137 154
    015441  aa  151 142 162 141
    015442  aa  162 151 145 163
    015443  aa  056 163 157 165
    015444  aa  162 143 145 040
    015445  aa  040 040 040 040
    015446  aa  040 040 040 040
    015447  aa  157 156 154 151   1727  	aci	"online_libraries.s              "
    015450  aa  156 145 137 154
    015451  aa  151 142 162 141
    015452  aa  162 151 145 163
    015453  aa  056 163 040 040
    015454  aa  040 040 040 040
    015455  aa  040 040 040 040
    015456  aa  040 040 040 040
    015457  aa  157 156 154 151   1728  	aci	"online_libraries                "
    015460  aa  156 145 137 154
    015461  aa  151 142 162 141
    015462  aa  162 151 145 163
    015463  aa  040 040 040 040
    015464  aa  040 040 040 040
    015465  aa  040 040 040 040
    015466  aa  040 040 040 040
    015467  aa  157 156 154 151   1729  	aci	"online.source                   "
    015470  aa  156 145 056 163
    015471  aa  157 165 162 143
    015472  aa  145 040 040 040
    015473  aa  040 040 040 040
    015474  aa  040 040 040 040
    015475  aa  040 040 040 040
    015476  aa  040 040 040 040
    015477  aa  157 156 154 151   1730  	aci	"online.s                        "
    015500  aa  156 145 056 163
    015501  aa  040 040 040 040
    015502  aa  040 040 040 040
    015503  aa  040 040 040 040
    015504  aa  040 040 040 040
    015505  aa  040 040 040 040
    015506  aa  040 040 040 040
    015507  aa  157 156 154 151   1731  	aci	"online                          "
    015510  aa  156 145 040 040
    015511  aa  040 040 040 040
    015512  aa  040 040 040 040
    015513  aa  040 040 040 040
    015514  aa  040 040 040 040
    015515  aa  040 040 040 040
    015516  aa  040 040 040 040
    015517  aa  157 156 056 163   1732  	aci	"on.source                       "
    015520  aa  157 165 162 143
    015521  aa  145 040 040 040
    015522  aa  040 040 040 040
    015523  aa  040 040 040 040
    015524  aa  040 040 040 040
    015525  aa  040 040 040 040
    015526  aa  040 040 040 040
    015527  aa  157 156 056 163   1733  	aci	"on.s                            "
    015530  aa  040 040 040 040
    015531  aa  040 040 040 040
    015532  aa  040 040 040 040
    015533  aa  040 040 040 040
    015534  aa  040 040 040 040
    015535  aa  040 040 040 040
    015536  aa  040 040 040 040
    015537  aa  157 156 040 040   1734  	aci	"on                              "
    015540  aa  040 040 040 040
    015541  aa  040 040 040 040
    015542  aa  040 040 040 040
    015543  aa  040 040 040 040
    015544  aa  040 040 040 040
    015545  aa  040 040 040 040
    015546  aa  040 040 040 040
    015547  aa  163 157 165 162   1735  	aci	"source                          "
    015550  aa  143 145 040 040
    015551  aa  040 040 040 040
    015552  aa  040 040 040 040
    015553  aa  040 040 040 040
    015554  aa  040 040 040 040
    015555  aa  040 040 040 040
    015556  aa  040 040 040 040
    015557  aa  163 040 040 040   1736  	aci	"s                               "
    015560  aa  040 040 040 040
    015561  aa  040 040 040 040
    015562  aa  040 040 040 040
    015563  aa  040 040 040 040
    015564  aa  040 040 040 040
    015565  aa  040 040 040 040
    015566  aa  040 040 040 040
    015567  aa   000000 0110 03   1737  	even
    015570                        1738  .obsolete_library.object:
                                  1739  						" 1 root_names,
    015570  aa   000000 000021    1740  	dec	17				"   2 N,
                                  1741  						"   2 root_name (17);
    015571  aa  157 142 163 157   1742  	aci	"obsolete_library.object         "
    015572  aa  154 145 164 145
    015573  aa  137 154 151 142
    015574  aa  162 141 162 171
    015575  aa  056 157 142 152
    015576  aa  145 143 164 040
    015577  aa  040 040 040 040
    015600  aa  040 040 040 040
    015601  aa  157 142 163 157   1743  	aci	"obsolete_library.o              "
    015602  aa  154 145 164 145
    015603  aa  137 154 151 142
    015604  aa  162 141 162 171
    015605  aa  056 157 040 040
    015606  aa  040 040 040 040
    015607  aa  040 040 040 040
    015610  aa  040 040 040 040
    015611  aa  157 142 163 157   1744  	aci	"obsolete_library                "
    015612  aa  154 145 164 145
    015613  aa  137 154 151 142
    015614  aa  162 141 162 171
    015615  aa  040 040 040 040
    015616  aa  040 040 040 040
    015617  aa  040 040 040 040
    015620  aa  040 040 040 040
    015621  aa  157 142 163 056   1745  	aci	"obs.object                      "
    015622  aa  157 142 152 145
    015623  aa  143 164 040 040
    015624  aa  040 040 040 040
    015625  aa  040 040 040 040
    015626  aa  040 040 040 040
    015627  aa  040 040 040 040
    015630  aa  040 040 040 040
    015631  aa  157 142 163 056   1746  	aci	"obs.o                           "
    015632  aa  157 040 040 040
    015633  aa  040 040 040 040
    015634  aa  040 040 040 040
    015635  aa  040 040 040 040
    015636  aa  040 040 040 040
    015637  aa  040 040 040 040
    015640  aa  040 040 040 040
    015641  aa  157 142 163 040   1747  	aci	"obs                             "
    015642  aa  040 040 040 040
    015643  aa  040 040 040 040
    015644  aa  040 040 040 040
    015645  aa  040 040 040 040
    015646  aa  040 040 040 040
    015647  aa  040 040 040 040
    015650  aa  040 040 040 040
    015651  aa  157 156 154 151   1748  	aci	"online_libraries.object         "
    015652  aa  156 145 137 154
    015653  aa  151 142 162 141
    015654  aa  162 151 145 163
    015655  aa  056 157 142 152
    015656  aa  145 143 164 040
    015657  aa  040 040 040 040
    015660  aa  040 040 040 040
    015661  aa  157 156 154 151   1749  	aci	"online_libraries.o              "
    015662  aa  156 145 137 154
    015663  aa  151 142 162 141
    015664  aa  162 151 145 163
    015665  aa  056 157 040 040
    015666  aa  040 040 040 040
    015667  aa  040 040 040 040
    015670  aa  040 040 040 040
    015671  aa  157 156 154 151   1750  	aci	"online_libraries                "
    015672  aa  156 145 137 154
    015673  aa  151 142 162 141
    015674  aa  162 151 145 163
    015675  aa  040 040 040 040
    015676  aa  040 040 040 040
    015677  aa  040 040 040 040
    015700  aa  040 040 040 040
    015701  aa  157 156 154 151   1751  	aci	"online.object                   "
    015702  aa  156 145 056 157
    015703  aa  142 152 145 143
    015704  aa  164 040 040 040
    015705  aa  040 040 040 040
    015706  aa  040 040 040 040
    015707  aa  040 040 040 040
    015710  aa  040 040 040 040
    015711  aa  157 156 154 151   1752  	aci	"online.o                        "
    015712  aa  156 145 056 157
    015713  aa  040 040 040 040
    015714  aa  040 040 040 040
    015715  aa  040 040 040 040
    015716  aa  040 040 040 040
    015717  aa  040 040 040 040
    015720  aa  040 040 040 040
    015721  aa  157 156 154 151   1753  	aci	"online                          "
    015722  aa  156 145 040 040
    015723  aa  040 040 040 040
    015724  aa  040 040 040 040
    015725  aa  040 040 040 040
    015726  aa  040 040 040 040
    015727  aa  040 040 040 040
    015730  aa  040 040 040 040
    015731  aa  157 156 056 157   1754  	aci	"on.object                       "
    015732  aa  142 152 145 143
    015733  aa  164 040 040 040
    015734  aa  040 040 040 040
    015735  aa  040 040 040 040
    015736  aa  040 040 040 040
    015737  aa  040 040 040 040
    015740  aa  040 040 040 040
    015741  aa  157 156 056 157   1755  	aci	"on.o                            "
    015742  aa  040 040 040 040
    015743  aa  040 040 040 040
    015744  aa  040 040 040 040
    015745  aa  040 040 040 040
    015746  aa  040 040 040 040
    015747  aa  040 040 040 040
    015750  aa  040 040 040 040
    015751  aa  157 156 040 040   1756  	aci	"on                              "
    015752  aa  040 040 040 040
    015753  aa  040 040 040 040
    015754  aa  040 040 040 040
    015755  aa  040 040 040 040
    015756  aa  040 040 040 040
    015757  aa  040 040 040 040
    015760  aa  040 040 040 040
    015761  aa  157 142 152 145   1757  	aci	"object                          "
    015762  aa  143 164 040 040
    015763  aa  040 040 040 040
    015764  aa  040 040 040 040
    015765  aa  040 040 040 040
    015766  aa  040 040 040 040
    015767  aa  040 040 040 040
    015770  aa  040 040 040 040
    015771  aa  157 040 040 040   1758  	aci	"o                               "
    015772  aa  040 040 040 040
    015773  aa  040 040 040 040
    015774  aa  040 040 040 040
    015775  aa  040 040 040 040
    015776  aa  040 040 040 040
    015777  aa  040 040 040 040
    016000  aa  040 040 040 040
    016001  aa   000000 0110 03   1759  	even
    016002                        1760  .obsolete_library.execution:
                                  1761  						" 1 root_names,
    016002  aa   000000 000021    1762  	dec	17				"   2 N,
                                  1763  						"   2 root_name (17);
    016003  aa  157 142 163 157   1764  	aci	"obsolete_library.execution      "
    016004  aa  154 145 164 145
    016005  aa  137 154 151 142
    016006  aa  162 141 162 171
    016007  aa  056 145 170 145
    016010  aa  143 165 164 151
    016011  aa  157 156 040 040
    016012  aa  040 040 040 040
    016013  aa  157 142 163 157   1765  	aci	"obsolete_library.x              "
    016014  aa  154 145 164 145
    016015  aa  137 154 151 142
    016016  aa  162 141 162 171
    016017  aa  056 170 040 040
    016020  aa  040 040 040 040
    016021  aa  040 040 040 040
    016022  aa  040 040 040 040
    016023  aa  157 142 163 157   1766  	aci	"obsolete_library                "
    016024  aa  154 145 164 145
    016025  aa  137 154 151 142
    016026  aa  162 141 162 171
    016027  aa  040 040 040 040
    016030  aa  040 040 040 040
    016031  aa  040 040 040 040
    016032  aa  040 040 040 040
    016033  aa  157 142 163 056   1767  	aci	"obs.execution                   "
    016034  aa  145 170 145 143
    016035  aa  165 164 151 157
    016036  aa  156 040 040 040
    016037  aa  040 040 040 040
    016040  aa  040 040 040 040
    016041  aa  040 040 040 040
    016042  aa  040 040 040 040
    016043  aa  157 142 163 056   1768  	aci	"obs.x                           "
    016044  aa  170 040 040 040
    016045  aa  040 040 040 040
    016046  aa  040 040 040 040
    016047  aa  040 040 040 040
    016050  aa  040 040 040 040
    016051  aa  040 040 040 040
    016052  aa  040 040 040 040
    016053  aa  157 142 163 040   1769  	aci	"obs                             "
    016054  aa  040 040 040 040
    016055  aa  040 040 040 040
    016056  aa  040 040 040 040
    016057  aa  040 040 040 040
    016060  aa  040 040 040 040
    016061  aa  040 040 040 040
    016062  aa  040 040 040 040
    016063  aa  157 156 154 151   1770  	aci	"online_libraries.execution      "
    016064  aa  156 145 137 154
    016065  aa  151 142 162 141
    016066  aa  162 151 145 163
    016067  aa  056 145 170 145
    016070  aa  143 165 164 151
    016071  aa  157 156 040 040
    016072  aa  040 040 040 040
    016073  aa  157 156 154 151   1771  	aci	"online_libraries.x              "
    016074  aa  156 145 137 154
    016075  aa  151 142 162 141
    016076  aa  162 151 145 163
    016077  aa  056 170 040 040
    016100  aa  040 040 040 040
    016101  aa  040 040 040 040
    016102  aa  040 040 040 040
    016103  aa  157 156 154 151   1772  	aci	"online_libraries                "
    016104  aa  156 145 137 154
    016105  aa  151 142 162 141
    016106  aa  162 151 145 163
    016107  aa  040 040 040 040
    016110  aa  040 040 040 040
    016111  aa  040 040 040 040
    016112  aa  040 040 040 040
    016113  aa  157 156 154 151   1773  	aci	"online.execution                "
    016114  aa  156 145 056 145
    016115  aa  170 145 143 165
    016116  aa  164 151 157 156
    016117  aa  040 040 040 040
    016120  aa  040 040 040 040
    016121  aa  040 040 040 040
    016122  aa  040 040 040 040
    016123  aa  157 156 154 151   1774  	aci	"online.x                        "
    016124  aa  156 145 056 170
    016125  aa  040 040 040 040
    016126  aa  040 040 040 040
    016127  aa  040 040 040 040
    016130  aa  040 040 040 040
    016131  aa  040 040 040 040
    016132  aa  040 040 040 040
    016133  aa  157 156 154 151   1775  	aci	"online                          "
    016134  aa  156 145 040 040
    016135  aa  040 040 040 040
    016136  aa  040 040 040 040
    016137  aa  040 040 040 040
    016140  aa  040 040 040 040
    016141  aa  040 040 040 040
    016142  aa  040 040 040 040
    016143  aa  157 156 056 145   1776  	aci	"on.execution                    "
    016144  aa  170 145 143 165
    016145  aa  164 151 157 156
    016146  aa  040 040 040 040
    016147  aa  040 040 040 040
    016150  aa  040 040 040 040
    016151  aa  040 040 040 040
    016152  aa  040 040 040 040
    016153  aa  157 156 056 170   1777  	aci	"on.x                            "
    016154  aa  040 040 040 040
    016155  aa  040 040 040 040
    016156  aa  040 040 040 040
    016157  aa  040 040 040 040
    016160  aa  040 040 040 040
    016161  aa  040 040 040 040
    016162  aa  040 040 040 040
    016163  aa  157 156 040 040   1778  	aci	"on                              "
    016164  aa  040 040 040 040
    016165  aa  040 040 040 040
    016166  aa  040 040 040 040
    016167  aa  040 040 040 040
    016170  aa  040 040 040 040
    016171  aa  040 040 040 040
    016172  aa  040 040 040 040
    016173  aa  145 170 145 143   1779  	aci	"execution                       "
    016174  aa  165 164 151 157
    016175  aa  156 040 040 040
    016176  aa  040 040 040 040
    016177  aa  040 040 040 040
    016200  aa  040 040 040 040
    016201  aa  040 040 040 040
    016202  aa  040 040 040 040
    016203  aa  170 040 040 040   1780  	aci	"x                               "
    016204  aa  040 040 040 040
    016205  aa  040 040 040 040
    016206  aa  040 040 040 040
    016207  aa  040 040 040 040
    016210  aa  040 040 040 040
    016211  aa  040 040 040 040
    016212  aa  040 040 040 040
    016213  aa   000000 0110 03   1781  	even
    016214                        1782  .standard_library.include:
                                  1783  						" 1 root_names,
    016214  aa   000000 000107    1784  	dec	71				"   2 N,
                                  1785  						"   2 root_name (71);
    016215  aa  163 164 141 156   1786  	aci	"standard_library.include        "
    016216  aa  144 141 162 144
    016217  aa  137 154 151 142
    016220  aa  162 141 162 171
    016221  aa  056 151 156 143
    016222  aa  154 165 144 145
    016223  aa  040 040 040 040
    016224  aa  040 040 040 040
    016225  aa  163 164 141 156   1787  	aci	"standard_library.incl           "
    016226  aa  144 141 162 144
    016227  aa  137 154 151 142
    016230  aa  162 141 162 171
    016231  aa  056 151 156 143
    016232  aa  154 040 040 040
    016233  aa  040 040 040 040
    016234  aa  040 040 040 040
    016235  aa  163 164 141 156   1788  	aci	"standard_library                "
    016236  aa  144 141 162 144
    016237  aa  137 154 151 142
    016240  aa  162 141 162 171
    016241  aa  040 040 040 040
    016242  aa  040 040 040 040
    016243  aa  040 040 040 040
    016244  aa  040 040 040 040
    016245  aa  163 164 144 056   1789  	aci	"std.include                     "
    016246  aa  151 156 143 154
    016247  aa  165 144 145 040
    016250  aa  040 040 040 040
    016251  aa  040 040 040 040
    016252  aa  040 040 040 040
    016253  aa  040 040 040 040
    016254  aa  040 040 040 040
    016255  aa  163 164 144 056   1790  	aci	"std.incl                        "
    016256  aa  151 156 143 154
    016257  aa  040 040 040 040
    016260  aa  040 040 040 040
    016261  aa  040 040 040 040
    016262  aa  040 040 040 040
    016263  aa  040 040 040 040
    016264  aa  040 040 040 040
    016265  aa  163 164 144 040   1791  	aci	"std                             "
    016266  aa  040 040 040 040
    016267  aa  040 040 040 040
    016270  aa  040 040 040 040
    016271  aa  040 040 040 040
    016272  aa  040 040 040 040
    016273  aa  040 040 040 040
    016274  aa  040 040 040 040
    016275  aa  163 163 163 056   1792  	aci	"sss.include                     "
    016276  aa  151 156 143 154
    016277  aa  165 144 145 040
    016300  aa  040 040 040 040
    016301  aa  040 040 040 040
    016302  aa  040 040 040 040
    016303  aa  040 040 040 040
    016304  aa  040 040 040 040
    016305  aa  163 163 163 056   1793  	aci	"sss.incl                        "
    016306  aa  151 156 143 154
    016307  aa  040 040 040 040
    016310  aa  040 040 040 040
    016311  aa  040 040 040 040
    016312  aa  040 040 040 040
    016313  aa  040 040 040 040
    016314  aa  040 040 040 040
    016315  aa  163 163 163 040   1794  	aci	"sss                             "
    016316  aa  040 040 040 040
    016317  aa  040 040 040 040
    016320  aa  040 040 040 040
    016321  aa  040 040 040 040
    016322  aa  040 040 040 040
    016323  aa  040 040 040 040
    016324  aa  040 040 040 040
    016325  aa  154 141 156 147   1795  	aci	"languages_library.include       "
    016326  aa  165 141 147 145
    016327  aa  163 137 154 151
    016330  aa  142 162 141 162
    016331  aa  171 056 151 156
    016332  aa  143 154 165 144
    016333  aa  145 040 040 040
    016334  aa  040 040 040 040
    016335  aa  154 141 156 147   1796  	aci	"languages_library.incl          "
    016336  aa  165 141 147 145
    016337  aa  163 137 154 151
    016340  aa  142 162 141 162
    016341  aa  171 056 151 156
    016342  aa  143 154 040 040
    016343  aa  040 040 040 040
    016344  aa  040 040 040 040
    016345  aa  154 141 156 147   1797  	aci	"languages_library               "
    016346  aa  165 141 147 145
    016347  aa  163 137 154 151
    016350  aa  142 162 141 162
    016351  aa  171 040 040 040
    016352  aa  040 040 040 040
    016353  aa  040 040 040 040
    016354  aa  040 040 040 040
    016355  aa  154 141 156 147   1798  	aci	"lang.include                    "
    016356  aa  056 151 156 143
    016357  aa  154 165 144 145
    016360  aa  040 040 040 040
    016361  aa  040 040 040 040
    016362  aa  040 040 040 040
    016363  aa  040 040 040 040
    016364  aa  040 040 040 040
    016365  aa  154 141 156 147   1799  	aci	"lang.incl                       "
    016366  aa  056 151 156 143
    016367  aa  154 040 040 040
    016370  aa  040 040 040 040
    016371  aa  040 040 040 040
    016372  aa  040 040 040 040
    016373  aa  040 040 040 040
    016374  aa  040 040 040 040
    016375  aa  154 141 156 147   1800  	aci	"lang                            "
    016376  aa  040 040 040 040
    016377  aa  040 040 040 040
    016400  aa  040 040 040 040
    016401  aa  040 040 040 040
    016402  aa  040 040 040 040
    016403  aa  040 040 040 040
    016404  aa  040 040 040 040
    016405  aa  164 157 157 154   1801  	aci	"tools_library.include           "
    016406  aa  163 137 154 151
    016407  aa  142 162 141 162
    016410  aa  171 056 151 156
    016411  aa  143 154 165 144
    016412  aa  145 040 040 040
    016413  aa  040 040 040 040
    016414  aa  040 040 040 040
    016415  aa  164 157 157 154   1802  	aci	"tools_library.incl              "
    016416  aa  163 137 154 151
    016417  aa  142 162 141 162
    016420  aa  171 056 151 156
    016421  aa  143 154 040 040
    016422  aa  040 040 040 040
    016423  aa  040 040 040 040
    016424  aa  040 040 040 040
    016425  aa  164 157 157 154   1803  	aci	"tools_library                   "
    016426  aa  163 137 154 151
    016427  aa  142 162 141 162
    016430  aa  171 040 040 040
    016431  aa  040 040 040 040
    016432  aa  040 040 040 040
    016433  aa  040 040 040 040
    016434  aa  040 040 040 040
    016435  aa  164 157 157 154   1804  	aci	"tools.include                   "
    016436  aa  163 056 151 156
    016437  aa  143 154 165 144
    016440  aa  145 040 040 040
    016441  aa  040 040 040 040
    016442  aa  040 040 040 040
    016443  aa  040 040 040 040
    016444  aa  040 040 040 040
    016445  aa  164 157 157 154   1805  	aci	"tools.incl                      "
    016446  aa  163 056 151 156
    016447  aa  143 154 040 040
    016450  aa  040 040 040 040
    016451  aa  040 040 040 040
    016452  aa  040 040 040 040
    016453  aa  040 040 040 040
    016454  aa  040 040 040 040
    016455  aa  164 157 157 154   1806  	aci	"tools                           "
    016456  aa  163 040 040 040
    016457  aa  040 040 040 040
    016460  aa  040 040 040 040
    016461  aa  040 040 040 040
    016462  aa  040 040 040 040
    016463  aa  040 040 040 040
    016464  aa  040 040 040 040
    016465  aa  164 056 151 156   1807  	aci	"t.include                       "
    016466  aa  143 154 165 144
    016467  aa  145 040 040 040
    016470  aa  040 040 040 040
    016471  aa  040 040 040 040
    016472  aa  040 040 040 040
    016473  aa  040 040 040 040
    016474  aa  040 040 040 040
    016475  aa  164 056 151 156   1808  	aci	"t.incl                          "
    016476  aa  143 154 040 040
    016477  aa  040 040 040 040
    016500  aa  040 040 040 040
    016501  aa  040 040 040 040
    016502  aa  040 040 040 040
    016503  aa  040 040 040 040
    016504  aa  040 040 040 040
    016505  aa  164 040 040 040   1809  	aci	"t                               "
    016506  aa  040 040 040 040
    016507  aa  040 040 040 040
    016510  aa  040 040 040 040
    016511  aa  040 040 040 040
    016512  aa  040 040 040 040
    016513  aa  040 040 040 040
    016514  aa  040 040 040 040
    016515  aa  163 165 160 145   1810  	aci	"supervisor_library.include      "
    016516  aa  162 166 151 163
    016517  aa  157 162 137 154
    016520  aa  151 142 162 141
    016521  aa  162 171 056 151
    016522  aa  156 143 154 165
    016523  aa  144 145 040 040
    016524  aa  040 040 040 040
    016525  aa  163 165 160 145   1811  	aci	"supervisor_library.incl         "
    016526  aa  162 166 151 163
    016527  aa  157 162 137 154
    016530  aa  151 142 162 141
    016531  aa  162 171 056 151
    016532  aa  156 143 154 040
    016533  aa  040 040 040 040
    016534  aa  040 040 040 040
    016535  aa  163 165 160 145   1812  	aci	"supervisor_library              "
    016536  aa  162 166 151 163
    016537  aa  157 162 137 154
    016540  aa  151 142 162 141
    016541  aa  162 171 040 040
    016542  aa  040 040 040 040
    016543  aa  040 040 040 040
    016544  aa  040 040 040 040
    016545  aa  163 165 160 056   1813  	aci	"sup.include                     "
    016546  aa  151 156 143 154
    016547  aa  165 144 145 040
    016550  aa  040 040 040 040
    016551  aa  040 040 040 040
    016552  aa  040 040 040 040
    016553  aa  040 040 040 040
    016554  aa  040 040 040 040
    016555  aa  163 165 160 056   1814  	aci	"sup.incl                        "
    016556  aa  151 156 143 154
    016557  aa  040 040 040 040
    016560  aa  040 040 040 040
    016561  aa  040 040 040 040
    016562  aa  040 040 040 040
    016563  aa  040 040 040 040
    016564  aa  040 040 040 040
    016565  aa  163 165 160 040   1815  	aci	"sup                             "
    016566  aa  040 040 040 040
    016567  aa  040 040 040 040
    016570  aa  040 040 040 040
    016571  aa  040 040 040 040
    016572  aa  040 040 040 040
    016573  aa  040 040 040 040
    016574  aa  040 040 040 040
    016575  aa  150 141 162 144   1816  	aci	"hardcore.include                "
    016576  aa  143 157 162 145
    016577  aa  056 151 156 143
    016600  aa  154 165 144 145
    016601  aa  040 040 040 040
    016602  aa  040 040 040 040
    016603  aa  040 040 040 040
    016604  aa  040 040 040 040
    016605  aa  150 141 162 144   1817  	aci	"hardcore.incl                   "
    016606  aa  143 157 162 145
    016607  aa  056 151 156 143
    016610  aa  154 040 040 040
    016611  aa  040 040 040 040
    016612  aa  040 040 040 040
    016613  aa  040 040 040 040
    016614  aa  040 040 040 040
    016615  aa  150 141 162 144   1818  	aci	"hardcore                        "
    016616  aa  143 157 162 145
    016617  aa  040 040 040 040
    016620  aa  040 040 040 040
    016621  aa  040 040 040 040
    016622  aa  040 040 040 040
    016623  aa  040 040 040 040
    016624  aa  040 040 040 040
    016625  aa  150 141 162 144   1819  	aci	"hard.include                    "
    016626  aa  056 151 156 143
    016627  aa  154 165 144 145
    016630  aa  040 040 040 040
    016631  aa  040 040 040 040
    016632  aa  040 040 040 040
    016633  aa  040 040 040 040
    016634  aa  040 040 040 040
    016635  aa  150 141 162 144   1820  	aci	"hard.incl                       "
    016636  aa  056 151 156 143
    016637  aa  154 040 040 040
    016640  aa  040 040 040 040
    016641  aa  040 040 040 040
    016642  aa  040 040 040 040
    016643  aa  040 040 040 040
    016644  aa  040 040 040 040
    016645  aa  150 141 162 144   1821  	aci	"hard                            "
    016646  aa  040 040 040 040
    016647  aa  040 040 040 040
    016650  aa  040 040 040 040
    016651  aa  040 040 040 040
    016652  aa  040 040 040 040
    016653  aa  040 040 040 040
    016654  aa  040 040 040 040
    016655  aa  150 056 151 156   1822  	aci	"h.include                       "
    016656  aa  143 154 165 144
    016657  aa  145 040 040 040
    016660  aa  040 040 040 040
    016661  aa  040 040 040 040
    016662  aa  040 040 040 040
    016663  aa  040 040 040 040
    016664  aa  040 040 040 040
    016665  aa  150 056 151 156   1823  	aci	"h.incl                          "
    016666  aa  143 154 040 040
    016667  aa  040 040 040 040
    016670  aa  040 040 040 040
    016671  aa  040 040 040 040
    016672  aa  040 040 040 040
    016673  aa  040 040 040 040
    016674  aa  040 040 040 040
    016675  aa  150 040 040 040   1824  	aci	"h                               "
    016676  aa  040 040 040 040
    016677  aa  040 040 040 040
    016700  aa  040 040 040 040
    016701  aa  040 040 040 040
    016702  aa  040 040 040 040
    016703  aa  040 040 040 040
    016704  aa  040 040 040 040
    016705  aa  165 156 142 165   1825  	aci	"unbundled_library.include       "
    016706  aa  156 144 154 145
    016707  aa  144 137 154 151
    016710  aa  142 162 141 162
    016711  aa  171 056 151 156
    016712  aa  143 154 165 144
    016713  aa  145 040 040 040
    016714  aa  040 040 040 040
    016715  aa  165 156 142 165   1826  	aci	"unbundled_library.incl          "
    016716  aa  156 144 154 145
    016717  aa  144 137 154 151
    016720  aa  142 162 141 162
    016721  aa  171 056 151 156
    016722  aa  143 154 040 040
    016723  aa  040 040 040 040
    016724  aa  040 040 040 040
    016725  aa  165 156 142 165   1827  	aci	"unbundled_library               "
    016726  aa  156 144 154 145
    016727  aa  144 137 154 151
    016730  aa  142 162 141 162
    016731  aa  171 040 040 040
    016732  aa  040 040 040 040
    016733  aa  040 040 040 040
    016734  aa  040 040 040 040
    016735  aa  165 156 142 056   1828  	aci	"unb.include                     "
    016736  aa  151 156 143 154
    016737  aa  165 144 145 040
    016740  aa  040 040 040 040
    016741  aa  040 040 040 040
    016742  aa  040 040 040 040
    016743  aa  040 040 040 040
    016744  aa  040 040 040 040
    016745  aa  165 156 142 056   1829  	aci	"unb.incl                        "
    016746  aa  151 156 143 154
    016747  aa  040 040 040 040
    016750  aa  040 040 040 040
    016751  aa  040 040 040 040
    016752  aa  040 040 040 040
    016753  aa  040 040 040 040
    016754  aa  040 040 040 040
    016755  aa  165 156 142 040   1830  	aci	"unb                             "
    016756  aa  040 040 040 040
    016757  aa  040 040 040 040
    016760  aa  040 040 040 040
    016761  aa  040 040 040 040
    016762  aa  040 040 040 040
    016763  aa  040 040 040 040
    016764  aa  040 040 040 040
    016765  aa  157 142 163 157   1831  	aci	"obsolete_library.include        "
    016766  aa  154 145 164 145
    016767  aa  137 154 151 142
    016770  aa  162 141 162 171
    016771  aa  056 151 156 143
    016772  aa  154 165 144 145
    016773  aa  040 040 040 040
    016774  aa  040 040 040 040
    016775  aa  157 142 163 157   1832  	aci	"obsolete_library.incl           "
    016776  aa  154 145 164 145
    016777  aa  137 154 151 142
    017000  aa  162 141 162 171
    017001  aa  056 151 156 143
    017002  aa  154 040 040 040
    017003  aa  040 040 040 040
    017004  aa  040 040 040 040
    017005  aa  157 142 163 157   1833  	aci	"obsolete_library                "
    017006  aa  154 145 164 145
    017007  aa  137 154 151 142
    017010  aa  162 141 162 171
    017011  aa  040 040 040 040
    017012  aa  040 040 040 040
    017013  aa  040 040 040 040
    017014  aa  040 040 040 040
    017015  aa  157 142 163 056   1834  	aci	"obs.include                     "
    017016  aa  151 156 143 154
    017017  aa  165 144 145 040
    017020  aa  040 040 040 040
    017021  aa  040 040 040 040
    017022  aa  040 040 040 040
    017023  aa  040 040 040 040
    017024  aa  040 040 040 040
    017025  aa  157 142 163 056   1835  	aci	"obs.incl                        "
    017026  aa  151 156 143 154
    017027  aa  040 040 040 040
    017030  aa  040 040 040 040
    017031  aa  040 040 040 040
    017032  aa  040 040 040 040
    017033  aa  040 040 040 040
    017034  aa  040 040 040 040
    017035  aa  157 142 163 040   1836  	aci	"obs                             "
    017036  aa  040 040 040 040
    017037  aa  040 040 040 040
    017040  aa  040 040 040 040
    017041  aa  040 040 040 040
    017042  aa  040 040 040 040
    017043  aa  040 040 040 040
    017044  aa  040 040 040 040
    017045  aa  157 146 146 154   1837  	aci	"offline_libraries.include       "
    017046  aa  151 156 145 137
    017047  aa  154 151 142 162
    017050  aa  141 162 151 145
    017051  aa  163 056 151 156
    017052  aa  143 154 165 144
    017053  aa  145 040 040 040
    017054  aa  040 040 040 040
    017055  aa  157 146 146 154   1838  	aci	"offline_libraries.incl          "
    017056  aa  151 156 145 137
    017057  aa  154 151 142 162
    017060  aa  141 162 151 145
    017061  aa  163 056 151 156
    017062  aa  143 154 040 040
    017063  aa  040 040 040 040
    017064  aa  040 040 040 040
    017065  aa  157 146 146 154   1839  	aci	"offline_libraries               "
    017066  aa  151 156 145 137
    017067  aa  154 151 142 162
    017070  aa  141 162 151 145
    017071  aa  163 040 040 040
    017072  aa  040 040 040 040
    017073  aa  040 040 040 040
    017074  aa  040 040 040 040
    017075  aa  157 146 146 154   1840  	aci	"offline.include                 "
    017076  aa  151 156 145 056
    017077  aa  151 156 143 154
    017100  aa  165 144 145 040
    017101  aa  040 040 040 040
    017102  aa  040 040 040 040
    017103  aa  040 040 040 040
    017104  aa  040 040 040 040
    017105  aa  157 146 146 154   1841  	aci	"offline.incl                    "
    017106  aa  151 156 145 056
    017107  aa  151 156 143 154
    017110  aa  040 040 040 040
    017111  aa  040 040 040 040
    017112  aa  040 040 040 040
    017113  aa  040 040 040 040
    017114  aa  040 040 040 040
    017115  aa  157 146 146 154   1842  	aci	"offline                         "
    017116  aa  151 156 145 040
    017117  aa  040 040 040 040
    017120  aa  040 040 040 040
    017121  aa  040 040 040 040
    017122  aa  040 040 040 040
    017123  aa  040 040 040 040
    017124  aa  040 040 040 040
    017125  aa  157 146 146 056   1843  	aci	"off.include                     "
    017126  aa  151 156 143 154
    017127  aa  165 144 145 040
    017130  aa  040 040 040 040
    017131  aa  040 040 040 040
    017132  aa  040 040 040 040
    017133  aa  040 040 040 040
    017134  aa  040 040 040 040
    017135  aa  157 146 146 056   1844  	aci	"off.incl                        "
    017136  aa  151 156 143 154
    017137  aa  040 040 040 040
    017140  aa  040 040 040 040
    017141  aa  040 040 040 040
    017142  aa  040 040 040 040
    017143  aa  040 040 040 040
    017144  aa  040 040 040 040
    017145  aa  157 146 146 040   1845  	aci	"off                             "
    017146  aa  040 040 040 040
    017147  aa  040 040 040 040
    017150  aa  040 040 040 040
    017151  aa  040 040 040 040
    017152  aa  040 040 040 040
    017153  aa  040 040 040 040
    017154  aa  040 040 040 040
    017155  aa  157 156 154 151   1846  	aci	"online_libraries.include        "
    017156  aa  156 145 137 154
    017157  aa  151 142 162 141
    017160  aa  162 151 145 163
    017161  aa  056 151 156 143
    017162  aa  154 165 144 145
    017163  aa  040 040 040 040
    017164  aa  040 040 040 040
    017165  aa  157 156 154 151   1847  	aci	"online_libraries.incl           "
    017166  aa  156 145 137 154
    017167  aa  151 142 162 141
    017170  aa  162 151 145 163
    017171  aa  056 151 156 143
    017172  aa  154 040 040 040
    017173  aa  040 040 040 040
    017174  aa  040 040 040 040
    017175  aa  157 156 154 151   1848  	aci	"online_libraries                "
    017176  aa  156 145 137 154
    017177  aa  151 142 162 141
    017200  aa  162 151 145 163
    017201  aa  040 040 040 040
    017202  aa  040 040 040 040
    017203  aa  040 040 040 040
    017204  aa  040 040 040 040
    017205  aa  157 156 154 151   1849  	aci	"online.include                  "
    017206  aa  156 145 056 151
    017207  aa  156 143 154 165
    017210  aa  144 145 040 040
    017211  aa  040 040 040 040
    017212  aa  040 040 040 040
    017213  aa  040 040 040 040
    017214  aa  040 040 040 040
    017215  aa  157 156 154 151   1850  	aci	"online.incl                     "
    017216  aa  156 145 056 151
    017217  aa  156 143 154 040
    017220  aa  040 040 040 040
    017221  aa  040 040 040 040
    017222  aa  040 040 040 040
    017223  aa  040 040 040 040
    017224  aa  040 040 040 040
    017225  aa  157 156 154 151   1851  	aci	"online                          "
    017226  aa  156 145 040 040
    017227  aa  040 040 040 040
    017230  aa  040 040 040 040
    017231  aa  040 040 040 040
    017232  aa  040 040 040 040
    017233  aa  040 040 040 040
    017234  aa  040 040 040 040
    017235  aa  157 156 056 151   1852  	aci	"on.include                      "
    017236  aa  156 143 154 165
    017237  aa  144 145 040 040
    017240  aa  040 040 040 040
    017241  aa  040 040 040 040
    017242  aa  040 040 040 040
    017243  aa  040 040 040 040
    017244  aa  040 040 040 040
    017245  aa  157 156 056 151   1853  	aci	"on.incl                         "
    017246  aa  156 143 154 040
    017247  aa  040 040 040 040
    017250  aa  040 040 040 040
    017251  aa  040 040 040 040
    017252  aa  040 040 040 040
    017253  aa  040 040 040 040
    017254  aa  040 040 040 040
    017255  aa  157 156 040 040   1854  	aci	"on                              "
    017256  aa  040 040 040 040
    017257  aa  040 040 040 040
    017260  aa  040 040 040 040
    017261  aa  040 040 040 040
    017262  aa  040 040 040 040
    017263  aa  040 040 040 040
    017264  aa  040 040 040 040
    017265  aa  151 156 143 154   1855  	aci	"include                         "
    017266  aa  165 144 145 040
    017267  aa  040 040 040 040
    017270  aa  040 040 040 040
    017271  aa  040 040 040 040
    017272  aa  040 040 040 040
    017273  aa  040 040 040 040
    017274  aa  040 040 040 040
    017275  aa  151 156 143 154   1856  	aci	"incl                            "
    017276  aa  040 040 040 040
    017277  aa  040 040 040 040
    017300  aa  040 040 040 040
    017301  aa  040 040 040 040
    017302  aa  040 040 040 040
    017303  aa  040 040 040 040
    017304  aa  040 040 040 040
    017305  aa   000000 0110 03   1857  	even
    017306                        1858  .standard_library.info:
                                  1859  						" 1 root_names,
    017306  aa   000000 000053    1860  	dec	43				"   2 N,
                                  1861  						"   2 root_name (43);
    017307  aa  163 164 141 156   1862  	aci	"standard_library.info           "
    017310  aa  144 141 162 144
    017311  aa  137 154 151 142
    017312  aa  162 141 162 171
    017313  aa  056 151 156 146
    017314  aa  157 040 040 040
    017315  aa  040 040 040 040
    017316  aa  040 040 040 040
    017317  aa  163 164 141 156   1863  	aci	"standard_library                "
    017320  aa  144 141 162 144
    017321  aa  137 154 151 142
    017322  aa  162 141 162 171
    017323  aa  040 040 040 040
    017324  aa  040 040 040 040
    017325  aa  040 040 040 040
    017326  aa  040 040 040 040
    017327  aa  163 164 144 056   1864  	aci	"std.info                        "
    017330  aa  151 156 146 157
    017331  aa  040 040 040 040
    017332  aa  040 040 040 040
    017333  aa  040 040 040 040
    017334  aa  040 040 040 040
    017335  aa  040 040 040 040
    017336  aa  040 040 040 040
    017337  aa  163 164 144 040   1865  	aci	"std                             "
    017340  aa  040 040 040 040
    017341  aa  040 040 040 040
    017342  aa  040 040 040 040
    017343  aa  040 040 040 040
    017344  aa  040 040 040 040
    017345  aa  040 040 040 040
    017346  aa  040 040 040 040
    017347  aa  163 163 163 056   1866  	aci	"sss.info                        "
    017350  aa  151 156 146 157
    017351  aa  040 040 040 040
    017352  aa  040 040 040 040
    017353  aa  040 040 040 040
    017354  aa  040 040 040 040
    017355  aa  040 040 040 040
    017356  aa  040 040 040 040
    017357  aa  163 163 163 040   1867  	aci	"sss                             "
    017360  aa  040 040 040 040
    017361  aa  040 040 040 040
    017362  aa  040 040 040 040
    017363  aa  040 040 040 040
    017364  aa  040 040 040 040
    017365  aa  040 040 040 040
    017366  aa  040 040 040 040
    017367  aa  154 141 156 147   1868  	aci	"languages_library.info          "
    017370  aa  165 141 147 145
    017371  aa  163 137 154 151
    017372  aa  142 162 141 162
    017373  aa  171 056 151 156
    017374  aa  146 157 040 040
    017375  aa  040 040 040 040
    017376  aa  040 040 040 040
    017377  aa  154 141 156 147   1869  	aci	"languages_library               "
    017400  aa  165 141 147 145
    017401  aa  163 137 154 151
    017402  aa  142 162 141 162
    017403  aa  171 040 040 040
    017404  aa  040 040 040 040
    017405  aa  040 040 040 040
    017406  aa  040 040 040 040
    017407  aa  154 141 156 147   1870  	aci	"lang.info                       "
    017410  aa  056 151 156 146
    017411  aa  157 040 040 040
    017412  aa  040 040 040 040
    017413  aa  040 040 040 040
    017414  aa  040 040 040 040
    017415  aa  040 040 040 040
    017416  aa  040 040 040 040
    017417  aa  154 141 156 147   1871  	aci	"lang                            "
    017420  aa  040 040 040 040
    017421  aa  040 040 040 040
    017422  aa  040 040 040 040
    017423  aa  040 040 040 040
    017424  aa  040 040 040 040
    017425  aa  040 040 040 040
    017426  aa  040 040 040 040
    017427  aa  165 156 142 165   1872  	aci	"unbundled_library.info          "
    017430  aa  156 144 154 145
    017431  aa  144 137 154 151
    017432  aa  142 162 141 162
    017433  aa  171 056 151 156
    017434  aa  146 157 040 040
    017435  aa  040 040 040 040
    017436  aa  040 040 040 040
    017437  aa  165 156 142 165   1873  	aci	"unbundled_library               "
    017440  aa  156 144 154 145
    017441  aa  144 137 154 151
    017442  aa  142 162 141 162
    017443  aa  171 040 040 040
    017444  aa  040 040 040 040
    017445  aa  040 040 040 040
    017446  aa  040 040 040 040
    017447  aa  165 156 142 056   1874  	aci	"unb.info                        "
    017450  aa  151 156 146 157
    017451  aa  040 040 040 040
    017452  aa  040 040 040 040
    017453  aa  040 040 040 040
    017454  aa  040 040 040 040
    017455  aa  040 040 040 040
    017456  aa  040 040 040 040
    017457  aa  165 156 142 040   1875  	aci	"unb                             "
    017460  aa  040 040 040 040
    017461  aa  040 040 040 040
    017462  aa  040 040 040 040
    017463  aa  040 040 040 040
    017464  aa  040 040 040 040
    017465  aa  040 040 040 040
    017466  aa  040 040 040 040
    017467  aa  164 157 157 154   1876  	aci	"tools_library.info              "
    017470  aa  163 137 154 151
    017471  aa  142 162 141 162
    017472  aa  171 056 151 156
    017473  aa  146 157 040 040
    017474  aa  040 040 040 040
    017475  aa  040 040 040 040
    017476  aa  040 040 040 040
    017477  aa  164 157 157 154   1877  	aci	"tools_library                   "
    017500  aa  163 137 154 151
    017501  aa  142 162 141 162
    017502  aa  171 040 040 040
    017503  aa  040 040 040 040
    017504  aa  040 040 040 040
    017505  aa  040 040 040 040
    017506  aa  040 040 040 040
    017507  aa  164 157 157 154   1878  	aci	"tools.info                      "
    017510  aa  163 056 151 156
    017511  aa  146 157 040 040
    017512  aa  040 040 040 040
    017513  aa  040 040 040 040
    017514  aa  040 040 040 040
    017515  aa  040 040 040 040
    017516  aa  040 040 040 040
    017517  aa  164 157 157 154   1879  	aci	"tools                           "
    017520  aa  163 040 040 040
    017521  aa  040 040 040 040
    017522  aa  040 040 040 040
    017523  aa  040 040 040 040
    017524  aa  040 040 040 040
    017525  aa  040 040 040 040
    017526  aa  040 040 040 040
    017527  aa  164 056 151 156   1880  	aci	"t.info                          "
    017530  aa  146 157 040 040
    017531  aa  040 040 040 040
    017532  aa  040 040 040 040
    017533  aa  040 040 040 040
    017534  aa  040 040 040 040
    017535  aa  040 040 040 040
    017536  aa  040 040 040 040
    017537  aa  164 040 040 040   1881  	aci	"t                               "
    017540  aa  040 040 040 040
    017541  aa  040 040 040 040
    017542  aa  040 040 040 040
    017543  aa  040 040 040 040
    017544  aa  040 040 040 040
    017545  aa  040 040 040 040
    017546  aa  040 040 040 040
    017547  aa  163 165 160 145   1882  	aci	"supervisor_library.info         "
    017550  aa  162 166 151 163
    017551  aa  157 162 137 154
    017552  aa  151 142 162 141
    017553  aa  162 171 056 151
    017554  aa  156 146 157 040
    017555  aa  040 040 040 040
    017556  aa  040 040 040 040
    017557  aa  163 165 160 145   1883  	aci	"supervisor_library              "
    017560  aa  162 166 151 163
    017561  aa  157 162 137 154
    017562  aa  151 142 162 141
    017563  aa  162 171 040 040
    017564  aa  040 040 040 040
    017565  aa  040 040 040 040
    017566  aa  040 040 040 040
    017567  aa  163 165 160 056   1884  	aci	"sup.info                        "
    017570  aa  151 156 146 157
    017571  aa  040 040 040 040
    017572  aa  040 040 040 040
    017573  aa  040 040 040 040
    017574  aa  040 040 040 040
    017575  aa  040 040 040 040
    017576  aa  040 040 040 040
    017577  aa  163 165 160 040   1885  	aci	"sup                             "
    017600  aa  040 040 040 040
    017601  aa  040 040 040 040
    017602  aa  040 040 040 040
    017603  aa  040 040 040 040
    017604  aa  040 040 040 040
    017605  aa  040 040 040 040
    017606  aa  040 040 040 040
    017607  aa  150 141 162 144   1886  	aci	"hardcore.info                   "
    017610  aa  143 157 162 145
    017611  aa  056 151 156 146
    017612  aa  157 040 040 040
    017613  aa  040 040 040 040
    017614  aa  040 040 040 040
    017615  aa  040 040 040 040
    017616  aa  040 040 040 040
    017617  aa  150 141 162 144   1887  	aci	"hardcore                        "
    017620  aa  143 157 162 145
    017621  aa  040 040 040 040
    017622  aa  040 040 040 040
    017623  aa  040 040 040 040
    017624  aa  040 040 040 040
    017625  aa  040 040 040 040
    017626  aa  040 040 040 040
    017627  aa  150 141 162 144   1888  	aci	"hard.info                       "
    017630  aa  056 151 156 146
    017631  aa  157 040 040 040
    017632  aa  040 040 040 040
    017633  aa  040 040 040 040
    017634  aa  040 040 040 040
    017635  aa  040 040 040 040
    017636  aa  040 040 040 040
    017637  aa  150 141 162 144   1889  	aci	"hard                            "
    017640  aa  040 040 040 040
    017641  aa  040 040 040 040
    017642  aa  040 040 040 040
    017643  aa  040 040 040 040
    017644  aa  040 040 040 040
    017645  aa  040 040 040 040
    017646  aa  040 040 040 040
    017647  aa  150 056 151 156   1890  	aci	"h.info                          "
    017650  aa  146 157 040 040
    017651  aa  040 040 040 040
    017652  aa  040 040 040 040
    017653  aa  040 040 040 040
    017654  aa  040 040 040 040
    017655  aa  040 040 040 040
    017656  aa  040 040 040 040
    017657  aa  150 040 040 040   1891  	aci	"h                               "
    017660  aa  040 040 040 040
    017661  aa  040 040 040 040
    017662  aa  040 040 040 040
    017663  aa  040 040 040 040
    017664  aa  040 040 040 040
    017665  aa  040 040 040 040
    017666  aa  040 040 040 040
    017667  aa  157 146 146 154   1892  	aci	"offline_libraries.info          "
    017670  aa  151 156 145 137
    017671  aa  154 151 142 162
    017672  aa  141 162 151 145
    017673  aa  163 056 151 156
    017674  aa  146 157 040 040
    017675  aa  040 040 040 040
    017676  aa  040 040 040 040
    017677  aa  157 146 146 154   1893  	aci	"offline_libraries               "
    017700  aa  151 156 145 137
    017701  aa  154 151 142 162
    017702  aa  141 162 151 145
    017703  aa  163 040 040 040
    017704  aa  040 040 040 040
    017705  aa  040 040 040 040
    017706  aa  040 040 040 040
    017707  aa  157 146 146 154   1894  	aci	"offline.info                    "
    017710  aa  151 156 145 056
    017711  aa  151 156 146 157
    017712  aa  040 040 040 040
    017713  aa  040 040 040 040
    017714  aa  040 040 040 040
    017715  aa  040 040 040 040
    017716  aa  040 040 040 040
    017717  aa  157 146 146 154   1895  	aci	"offline                         "
    017720  aa  151 156 145 040
    017721  aa  040 040 040 040
    017722  aa  040 040 040 040
    017723  aa  040 040 040 040
    017724  aa  040 040 040 040
    017725  aa  040 040 040 040
    017726  aa  040 040 040 040
    017727  aa  157 146 146 056   1896  	aci	"off.info                        "
    017730  aa  151 156 146 157
    017731  aa  040 040 040 040
    017732  aa  040 040 040 040
    017733  aa  040 040 040 040
    017734  aa  040 040 040 040
    017735  aa  040 040 040 040
    017736  aa  040 040 040 040
    017737  aa  157 146 146 040   1897  	aci	"off                             "
    017740  aa  040 040 040 040
    017741  aa  040 040 040 040
    017742  aa  040 040 040 040
    017743  aa  040 040 040 040
    017744  aa  040 040 040 040
    017745  aa  040 040 040 040
    017746  aa  040 040 040 040
    017747  aa  157 156 154 151   1898  	aci	"online_libraries.info           "
    017750  aa  156 145 137 154
    017751  aa  151 142 162 141
    017752  aa  162 151 145 163
    017753  aa  056 151 156 146
    017754  aa  157 040 040 040
    017755  aa  040 040 040 040
    017756  aa  040 040 040 040
    017757  aa  157 156 154 151   1899  	aci	"online_libraries                "
    017760  aa  156 145 137 154
    017761  aa  151 142 162 141
    017762  aa  162 151 145 163
    017763  aa  040 040 040 040
    017764  aa  040 040 040 040
    017765  aa  040 040 040 040
    017766  aa  040 040 040 040
    017767  aa  157 156 154 151   1900  	aci	"online.info                     "
    017770  aa  156 145 056 151
    017771  aa  156 146 157 040
    017772  aa  040 040 040 040
    017773  aa  040 040 040 040
    017774  aa  040 040 040 040
    017775  aa  040 040 040 040
    017776  aa  040 040 040 040
    017777  aa  157 156 154 151   1901  	aci	"online                          "
    020000  aa  156 145 040 040
    020001  aa  040 040 040 040
    020002  aa  040 040 040 040
    020003  aa  040 040 040 040
    020004  aa  040 040 040 040
    020005  aa  040 040 040 040
    020006  aa  040 040 040 040
    020007  aa  157 156 056 151   1902  	aci	"on.info                         "
    020010  aa  156 146 157 040
    020011  aa  040 040 040 040
    020012  aa  040 040 040 040
    020013  aa  040 040 040 040
    020014  aa  040 040 040 040
    020015  aa  040 040 040 040
    020016  aa  040 040 040 040
    020017  aa  157 156 040 040   1903  	aci	"on                              "
    020020  aa  040 040 040 040
    020021  aa  040 040 040 040
    020022  aa  040 040 040 040
    020023  aa  040 040 040 040
    020024  aa  040 040 040 040
    020025  aa  040 040 040 040
    020026  aa  040 040 040 040
    020027  aa  151 156 146 157   1904  	aci	"info                            "
    020030  aa  040 040 040 040
    020031  aa  040 040 040 040
    020032  aa  040 040 040 040
    020033  aa  040 040 040 040
    020034  aa  040 040 040 040
    020035  aa  040 040 040 040
    020036  aa  040 040 040 040
    020037  aa   000000 0110 03   1905  	even
    020040                        1906  .privileged.info:
                                  1907  						" 1 root_names,
    020040  aa   000000 000041    1908  	dec	33				"   2 N,
                                  1909  						"   2 root_name (33);
    020041  aa  160 162 151 166   1910  	aci	"privileged.info                 "
    020042  aa  151 154 145 147
    020043  aa  145 144 056 151
    020044  aa  156 146 157 040
    020045  aa  040 040 040 040
    020046  aa  040 040 040 040
    020047  aa  040 040 040 040
    020050  aa  040 040 040 040
    020051  aa  160 162 151 166   1911  	aci	"privileged                      "
    020052  aa  151 154 145 147
    020053  aa  145 144 040 040
    020054  aa  040 040 040 040
    020055  aa  040 040 040 040
    020056  aa  040 040 040 040
    020057  aa  040 040 040 040
    020060  aa  040 040 040 040
    020061  aa  160 162 151 166   1912  	aci	"priv.info                       "
    020062  aa  056 151 156 146
    020063  aa  157 040 040 040
    020064  aa  040 040 040 040
    020065  aa  040 040 040 040
    020066  aa  040 040 040 040
    020067  aa  040 040 040 040
    020070  aa  040 040 040 040
    020071  aa  160 162 151 166   1913  	aci	"priv                            "
    020072  aa  040 040 040 040
    020073  aa  040 040 040 040
    020074  aa  040 040 040 040
    020075  aa  040 040 040 040
    020076  aa  040 040 040 040
    020077  aa  040 040 040 040
    020100  aa  040 040 040 040
    020101  aa  164 157 157 154   1914  	aci	"tools_library.info              "
    020102  aa  163 137 154 151
    020103  aa  142 162 141 162
    020104  aa  171 056 151 156
    020105  aa  146 157 040 040
    020106  aa  040 040 040 040
    020107  aa  040 040 040 040
    020110  aa  040 040 040 040
    020111  aa  164 157 157 154   1915  	aci	"tools_library                   "
    020112  aa  163 137 154 151
    020113  aa  142 162 141 162
    020114  aa  171 040 040 040
    020115  aa  040 040 040 040
    020116  aa  040 040 040 040
    020117  aa  040 040 040 040
    020120  aa  040 040 040 040
    020121  aa  164 157 157 154   1916  	aci	"tools.info                      "
    020122  aa  163 056 151 156
    020123  aa  146 157 040 040
    020124  aa  040 040 040 040
    020125  aa  040 040 040 040
    020126  aa  040 040 040 040
    020127  aa  040 040 040 040
    020130  aa  040 040 040 040
    020131  aa  164 157 157 154   1917  	aci	"tools                           "
    020132  aa  163 040 040 040
    020133  aa  040 040 040 040
    020134  aa  040 040 040 040
    020135  aa  040 040 040 040
    020136  aa  040 040 040 040
    020137  aa  040 040 040 040
    020140  aa  040 040 040 040
    020141  aa  164 056 151 156   1918  	aci	"t.info                          "
    020142  aa  146 157 040 040
    020143  aa  040 040 040 040
    020144  aa  040 040 040 040
    020145  aa  040 040 040 040
    020146  aa  040 040 040 040
    020147  aa  040 040 040 040
    020150  aa  040 040 040 040
    020151  aa  164 040 040 040   1919  	aci	"t                               "
    020152  aa  040 040 040 040
    020153  aa  040 040 040 040
    020154  aa  040 040 040 040
    020155  aa  040 040 040 040
    020156  aa  040 040 040 040
    020157  aa  040 040 040 040
    020160  aa  040 040 040 040
    020161  aa  163 165 160 145   1920  	aci	"supervisor_library.info         "
    020162  aa  162 166 151 163
    020163  aa  157 162 137 154
    020164  aa  151 142 162 141
    020165  aa  162 171 056 151
    020166  aa  156 146 157 040
    020167  aa  040 040 040 040
    020170  aa  040 040 040 040
    020171  aa  163 165 160 145   1921  	aci	"supervisor_library              "
    020172  aa  162 166 151 163
    020173  aa  157 162 137 154
    020174  aa  151 142 162 141
    020175  aa  162 171 040 040
    020176  aa  040 040 040 040
    020177  aa  040 040 040 040
    020200  aa  040 040 040 040
    020201  aa  163 165 160 056   1922  	aci	"sup.info                        "
    020202  aa  151 156 146 157
    020203  aa  040 040 040 040
    020204  aa  040 040 040 040
    020205  aa  040 040 040 040
    020206  aa  040 040 040 040
    020207  aa  040 040 040 040
    020210  aa  040 040 040 040
    020211  aa  163 165 160 040   1923  	aci	"sup                             "
    020212  aa  040 040 040 040
    020213  aa  040 040 040 040
    020214  aa  040 040 040 040
    020215  aa  040 040 040 040
    020216  aa  040 040 040 040
    020217  aa  040 040 040 040
    020220  aa  040 040 040 040
    020221  aa  150 141 162 144   1924  	aci	"hardcore.info                   "
    020222  aa  143 157 162 145
    020223  aa  056 151 156 146
    020224  aa  157 040 040 040
    020225  aa  040 040 040 040
    020226  aa  040 040 040 040
    020227  aa  040 040 040 040
    020230  aa  040 040 040 040
    020231  aa  150 141 162 144   1925  	aci	"hardcore                        "
    020232  aa  143 157 162 145
    020233  aa  040 040 040 040
    020234  aa  040 040 040 040
    020235  aa  040 040 040 040
    020236  aa  040 040 040 040
    020237  aa  040 040 040 040
    020240  aa  040 040 040 040
    020241  aa  150 141 162 144   1926  	aci	"hard.info                       "
    020242  aa  056 151 156 146
    020243  aa  157 040 040 040
    020244  aa  040 040 040 040
    020245  aa  040 040 040 040
    020246  aa  040 040 040 040
    020247  aa  040 040 040 040
    020250  aa  040 040 040 040
    020251  aa  150 141 162 144   1927  	aci	"hard                            "
    020252  aa  040 040 040 040
    020253  aa  040 040 040 040
    020254  aa  040 040 040 040
    020255  aa  040 040 040 040
    020256  aa  040 040 040 040
    020257  aa  040 040 040 040
    020260  aa  040 040 040 040
    020261  aa  150 056 151 156   1928  	aci	"h.info                          "
    020262  aa  146 157 040 040
    020263  aa  040 040 040 040
    020264  aa  040 040 040 040
    020265  aa  040 040 040 040
    020266  aa  040 040 040 040
    020267  aa  040 040 040 040
    020270  aa  040 040 040 040
    020271  aa  150 040 040 040   1929  	aci	"h                               "
    020272  aa  040 040 040 040
    020273  aa  040 040 040 040
    020274  aa  040 040 040 040
    020275  aa  040 040 040 040
    020276  aa  040 040 040 040
    020277  aa  040 040 040 040
    020300  aa  040 040 040 040
    020301  aa  157 146 146 154   1930  	aci	"offline_libraries.info          "
    020302  aa  151 156 145 137
    020303  aa  154 151 142 162
    020304  aa  141 162 151 145
    020305  aa  163 056 151 156
    020306  aa  146 157 040 040
    020307  aa  040 040 040 040
    020310  aa  040 040 040 040
    020311  aa  157 146 146 154   1931  	aci	"offline_libraries               "
    020312  aa  151 156 145 137
    020313  aa  154 151 142 162
    020314  aa  141 162 151 145
    020315  aa  163 040 040 040
    020316  aa  040 040 040 040
    020317  aa  040 040 040 040
    020320  aa  040 040 040 040
    020321  aa  157 146 146 154   1932  	aci	"offline.info                    "
    020322  aa  151 156 145 056
    020323  aa  151 156 146 157
    020324  aa  040 040 040 040
    020325  aa  040 040 040 040
    020326  aa  040 040 040 040
    020327  aa  040 040 040 040
    020330  aa  040 040 040 040
    020331  aa  157 146 146 154   1933  	aci	"offline                         "
    020332  aa  151 156 145 040
    020333  aa  040 040 040 040
    020334  aa  040 040 040 040
    020335  aa  040 040 040 040
    020336  aa  040 040 040 040
    020337  aa  040 040 040 040
    020340  aa  040 040 040 040
    020341  aa  157 146 146 056   1934  	aci	"off.info                        "
    020342  aa  151 156 146 157
    020343  aa  040 040 040 040
    020344  aa  040 040 040 040
    020345  aa  040 040 040 040
    020346  aa  040 040 040 040
    020347  aa  040 040 040 040
    020350  aa  040 040 040 040
    020351  aa  157 146 146 040   1935  	aci	"off                             "
    020352  aa  040 040 040 040
    020353  aa  040 040 040 040
    020354  aa  040 040 040 040
    020355  aa  040 040 040 040
    020356  aa  040 040 040 040
    020357  aa  040 040 040 040
    020360  aa  040 040 040 040
    020361  aa  157 156 154 151   1936  	aci	"online_libraries.info           "
    020362  aa  156 145 137 154
    020363  aa  151 142 162 141
    020364  aa  162 151 145 163
    020365  aa  056 151 156 146
    020366  aa  157 040 040 040
    020367  aa  040 040 040 040
    020370  aa  040 040 040 040
    020371  aa  157 156 154 151   1937  	aci	"online_libraries                "
    020372  aa  156 145 137 154
    020373  aa  151 142 162 141
    020374  aa  162 151 145 163
    020375  aa  040 040 040 040
    020376  aa  040 040 040 040
    020377  aa  040 040 040 040
    020400  aa  040 040 040 040
    020401  aa  157 156 154 151   1938  	aci	"online.info                     "
    020402  aa  156 145 056 151
    020403  aa  156 146 157 040
    020404  aa  040 040 040 040
    020405  aa  040 040 040 040
    020406  aa  040 040 040 040
    020407  aa  040 040 040 040
    020410  aa  040 040 040 040
    020411  aa  157 156 154 151   1939  	aci	"online                          "
    020412  aa  156 145 040 040
    020413  aa  040 040 040 040
    020414  aa  040 040 040 040
    020415  aa  040 040 040 040
    020416  aa  040 040 040 040
    020417  aa  040 040 040 040
    020420  aa  040 040 040 040
    020421  aa  157 156 056 151   1940  	aci	"on.info                         "
    020422  aa  156 146 157 040
    020423  aa  040 040 040 040
    020424  aa  040 040 040 040
    020425  aa  040 040 040 040
    020426  aa  040 040 040 040
    020427  aa  040 040 040 040
    020430  aa  040 040 040 040
    020431  aa  157 156 040 040   1941  	aci	"on                              "
    020432  aa  040 040 040 040
    020433  aa  040 040 040 040
    020434  aa  040 040 040 040
    020435  aa  040 040 040 040
    020436  aa  040 040 040 040
    020437  aa  040 040 040 040
    020440  aa  040 040 040 040
    020441  aa  151 156 146 157   1942  	aci	"info                            "
    020442  aa  040 040 040 040
    020443  aa  040 040 040 040
    020444  aa  040 040 040 040
    020445  aa  040 040 040 040
    020446  aa  040 040 040 040
    020447  aa  040 040 040 040
    020450  aa  040 040 040 040
    020451  aa   000000 0110 03   1943  	even
    020452                        1944  .subsystem_library.info:
                                  1945  						" 1 root_names,
    020452  aa   000000 000017    1946  	dec	15				"   2 N,
                                  1947  						"   2 root_name (15);
    020453  aa  163 165 142 163   1948  	aci	"subsystem_library.info          "
    020454  aa  171 163 164 145
    020455  aa  155 137 154 151
    020456  aa  142 162 141 162
    020457  aa  171 056 151 156
    020460  aa  146 157 040 040
    020461  aa  040 040 040 040
    020462  aa  040 040 040 040
    020463  aa  163 165 142 163   1949  	aci	"subsystem_library               "
    020464  aa  171 163 164 145
    020465  aa  155 137 154 151
    020466  aa  142 162 141 162
    020467  aa  171 040 040 040
    020470  aa  040 040 040 040
    020471  aa  040 040 040 040
    020472  aa  040 040 040 040
    020473  aa  163 165 142 163   1950  	aci	"subsystem.info                  "
    020474  aa  171 163 164 145
    020475  aa  155 056 151 156
    020476  aa  146 157 040 040
    020477  aa  040 040 040 040
    020500  aa  040 040 040 040
    020501  aa  040 040 040 040
    020502  aa  040 040 040 040
    020503  aa  163 165 142 163   1951  	aci	"subsystem                       "
    020504  aa  171 163 164 145
    020505  aa  155 040 040 040
    020506  aa  040 040 040 040
    020507  aa  040 040 040 040
    020510  aa  040 040 040 040
    020511  aa  040 040 040 040
    020512  aa  040 040 040 040
    020513  aa  163 163 056 151   1952  	aci	"ss.info                         "
    020514  aa  156 146 157 040
    020515  aa  040 040 040 040
    020516  aa  040 040 040 040
    020517  aa  040 040 040 040
    020520  aa  040 040 040 040
    020521  aa  040 040 040 040
    020522  aa  040 040 040 040
    020523  aa  163 163 040 040   1953  	aci	"ss                              "
    020524  aa  040 040 040 040
    020525  aa  040 040 040 040
    020526  aa  040 040 040 040
    020527  aa  040 040 040 040
    020530  aa  040 040 040 040
    020531  aa  040 040 040 040
    020532  aa  040 040 040 040
    020533  aa  157 156 154 151   1954  	aci	"online_libraries.info           "
    020534  aa  156 145 137 154
    020535  aa  151 142 162 141
    020536  aa  162 151 145 163
    020537  aa  056 151 156 146
    020540  aa  157 040 040 040
    020541  aa  040 040 040 040
    020542  aa  040 040 040 040
    020543  aa  157 156 154 151   1955  	aci	"online_libraries                "
    020544  aa  156 145 137 154
    020545  aa  151 142 162 141
    020546  aa  162 151 145 163
    020547  aa  040 040 040 040
    020550  aa  040 040 040 040
    020551  aa  040 040 040 040
    020552  aa  040 040 040 040
    020553  aa  157 156 154 151   1956  	aci	"online.info                     "
    020554  aa  156 145 056 151
    020555  aa  156 146 157 040
    020556  aa  040 040 040 040
    020557  aa  040 040 040 040
    020560  aa  040 040 040 040
    020561  aa  040 040 040 040
    020562  aa  040 040 040 040
    020563  aa  157 156 154 151   1957  	aci	"online                          "
    020564  aa  156 145 040 040
    020565  aa  040 040 040 040
    020566  aa  040 040 040 040
    020567  aa  040 040 040 040
    020570  aa  040 040 040 040
    020571  aa  040 040 040 040
    020572  aa  040 040 040 040
    020573  aa  157 156 056 151   1958  	aci	"on.info                         "
    020574  aa  156 146 157 040
    020575  aa  040 040 040 040
    020576  aa  040 040 040 040
    020577  aa  040 040 040 040
    020600  aa  040 040 040 040
    020601  aa  040 040 040 040
    020602  aa  040 040 040 040
    020603  aa  157 156 040 040   1959  	aci	"on                              "
    020604  aa  040 040 040 040
    020605  aa  040 040 040 040
    020606  aa  040 040 040 040
    020607  aa  040 040 040 040
    020610  aa  040 040 040 040
    020611  aa  040 040 040 040
    020612  aa  040 040 040 040
    020613  aa  141 143 143 157   1960  	aci	"accounting.info                 "
    020614  aa  165 156 164 151
    020615  aa  156 147 056 151
    020616  aa  156 146 157 040
    020617  aa  040 040 040 040
    020620  aa  040 040 040 040
    020621  aa  040 040 040 040
    020622  aa  040 040 040 040
    020623  aa  141 143 143 157   1961  	aci	"accounting                      "
    020624  aa  165 156 164 151
    020625  aa  156 147 040 040
    020626  aa  040 040 040 040
    020627  aa  040 040 040 040
    020630  aa  040 040 040 040
    020631  aa  040 040 040 040
    020632  aa  040 040 040 040
    020633  aa  151 156 146 157   1962  	aci	"info                            "
    020634  aa  040 040 040 040
    020635  aa  040 040 040 040
    020636  aa  040 040 040 040
    020637  aa  040 040 040 040
    020640  aa  040 040 040 040
    020641  aa  040 040 040 040
    020642  aa  040 040 040 040
    020643  aa   000000 0110 03   1963  	even
    020644                        1964  .subsystem_library:
                                  1965  						" 1 root_names,
    020644  aa   000000 000021    1966  	dec	17				"   2 N,
                                  1967  						"   2 root_name (17);
    020645  aa  163 165 142 163   1968  	aci	"subsystem_library.info          "
    020646  aa  171 163 164 145
    020647  aa  155 137 154 151
    020650  aa  142 162 141 162
    020651  aa  171 056 151 156
    020652  aa  146 157 040 040
    020653  aa  040 040 040 040
    020654  aa  040 040 040 040
    020655  aa  163 165 142 163   1969  	aci	"subsystem_library               "
    020656  aa  171 163 164 145
    020657  aa  155 137 154 151
    020660  aa  142 162 141 162
    020661  aa  171 040 040 040
    020662  aa  040 040 040 040
    020663  aa  040 040 040 040
    020664  aa  040 040 040 040
    020665  aa  163 165 142 163   1970  	aci	"subsystem.info                  "
    020666  aa  171 163 164 145
    020667  aa  155 056 151 156
    020670  aa  146 157 040 040
    020671  aa  040 040 040 040
    020672  aa  040 040 040 040
    020673  aa  040 040 040 040
    020674  aa  040 040 040 040
    020675  aa  163 165 142 163   1971  	aci	"subsystem                       "
    020676  aa  171 163 164 145
    020677  aa  155 040 040 040
    020700  aa  040 040 040 040
    020701  aa  040 040 040 040
    020702  aa  040 040 040 040
    020703  aa  040 040 040 040
    020704  aa  040 040 040 040
    020705  aa  163 163 056 151   1972  	aci	"ss.info                         "
    020706  aa  156 146 157 040
    020707  aa  040 040 040 040
    020710  aa  040 040 040 040
    020711  aa  040 040 040 040
    020712  aa  040 040 040 040
    020713  aa  040 040 040 040
    020714  aa  040 040 040 040
    020715  aa  163 163 040 040   1973  	aci	"ss                              "
    020716  aa  040 040 040 040
    020717  aa  040 040 040 040
    020720  aa  040 040 040 040
    020721  aa  040 040 040 040
    020722  aa  040 040 040 040
    020723  aa  040 040 040 040
    020724  aa  040 040 040 040
    020725  aa  157 156 154 151   1974  	aci	"online_libraries.info           "
    020726  aa  156 145 137 154
    020727  aa  151 142 162 141
    020730  aa  162 151 145 163
    020731  aa  056 151 156 146
    020732  aa  157 040 040 040
    020733  aa  040 040 040 040
    020734  aa  040 040 040 040
    020735  aa  157 156 154 151   1975  	aci	"online_libraries                "
    020736  aa  156 145 137 154
    020737  aa  151 142 162 141
    020740  aa  162 151 145 163
    020741  aa  040 040 040 040
    020742  aa  040 040 040 040
    020743  aa  040 040 040 040
    020744  aa  040 040 040 040
    020745  aa  157 156 154 151   1976  	aci	"online.info                     "
    020746  aa  156 145 056 151
    020747  aa  156 146 157 040
    020750  aa  040 040 040 040
    020751  aa  040 040 040 040
    020752  aa  040 040 040 040
    020753  aa  040 040 040 040
    020754  aa  040 040 040 040
    020755  aa  157 156 154 151   1977  	aci	"online                          "
    020756  aa  156 145 040 040
    020757  aa  040 040 040 040
    020760  aa  040 040 040 040
    020761  aa  040 040 040 040
    020762  aa  040 040 040 040
    020763  aa  040 040 040 040
    020764  aa  040 040 040 040
    020765  aa  157 156 056 151   1978  	aci	"on.info                         "
    020766  aa  156 146 157 040
    020767  aa  040 040 040 040
    020770  aa  040 040 040 040
    020771  aa  040 040 040 040
    020772  aa  040 040 040 040
    020773  aa  040 040 040 040
    020774  aa  040 040 040 040
    020775  aa  157 156 040 040   1979  	aci	"on                              "
    020776  aa  040 040 040 040
    020777  aa  040 040 040 040
    021000  aa  040 040 040 040
    021001  aa  040 040 040 040
    021002  aa  040 040 040 040
    021003  aa  040 040 040 040
    021004  aa  040 040 040 040
    021005  aa  141 156 141 154   1980  	aci	"analyze_multics.info            "
    021006  aa  171 172 145 137
    021007  aa  155 165 154 164
    021010  aa  151 143 163 056
    021011  aa  151 156 146 157
    021012  aa  040 040 040 040
    021013  aa  040 040 040 040
    021014  aa  040 040 040 040
    021015  aa  141 156 141 154   1981  	aci	"analyze_multics                 "
    021016  aa  171 172 145 137
    021017  aa  155 165 154 164
    021020  aa  151 143 163 040
    021021  aa  040 040 040 040
    021022  aa  040 040 040 040
    021023  aa  040 040 040 040
    021024  aa  040 040 040 040
    021025  aa  141 172 155 056   1982  	aci	"azm.info                        "
    021026  aa  151 156 146 157
    021027  aa  040 040 040 040
    021030  aa  040 040 040 040
    021031  aa  040 040 040 040
    021032  aa  040 040 040 040
    021033  aa  040 040 040 040
    021034  aa  040 040 040 040
    021035  aa  141 172 155 040   1983  	aci	"azm                             "
    021036  aa  040 040 040 040
    021037  aa  040 040 040 040
    021040  aa  040 040 040 040
    021041  aa  040 040 040 040
    021042  aa  040 040 040 040
    021043  aa  040 040 040 040
    021044  aa  040 040 040 040
    021045  aa  151 156 146 157   1984  	aci	"info                            "
    021046  aa  040 040 040 040
    021047  aa  040 040 040 040
    021050  aa  040 040 040 040
    021051  aa  040 040 040 040
    021052  aa  040 040 040 040
    021053  aa  040 040 040 040
    021054  aa  040 040 040 040
    021055  aa   000000 0110 03   1985  	even
    021056                        1986  .subsystem.info:
                                  1987  						" 1 root_names,
    021056  aa   000000 000017    1988  	dec	15				"   2 N,
                                  1989  						"   2 root_name (15);
    021057  aa  163 165 142 163   1990  	aci	"subsystem_library.info          "
    021060  aa  171 163 164 145
    021061  aa  155 137 154 151
    021062  aa  142 162 141 162
    021063  aa  171 056 151 156
    021064  aa  146 157 040 040
    021065  aa  040 040 040 040
    021066  aa  040 040 040 040
    021067  aa  163 165 142 163   1991  	aci	"subsystem_library               "
    021070  aa  171 163 164 145
    021071  aa  155 137 154 151
    021072  aa  142 162 141 162
    021073  aa  171 040 040 040
    021074  aa  040 040 040 040
    021075  aa  040 040 040 040
    021076  aa  040 040 040 040
    021077  aa  163 165 142 163   1992  	aci	"subsystem.info                  "
    021100  aa  171 163 164 145
    021101  aa  155 056 151 156
    021102  aa  146 157 040 040
    021103  aa  040 040 040 040
    021104  aa  040 040 040 040
    021105  aa  040 040 040 040
    021106  aa  040 040 040 040
    021107  aa  163 165 142 163   1993  	aci	"subsystem                       "
    021110  aa  171 163 164 145
    021111  aa  155 040 040 040
    021112  aa  040 040 040 040
    021113  aa  040 040 040 040
    021114  aa  040 040 040 040
    021115  aa  040 040 040 040
    021116  aa  040 040 040 040
    021117  aa  163 163 056 151   1994  	aci	"ss.info                         "
    021120  aa  156 146 157 040
    021121  aa  040 040 040 040
    021122  aa  040 040 040 040
    021123  aa  040 040 040 040
    021124  aa  040 040 040 040
    021125  aa  040 040 040 040
    021126  aa  040 040 040 040
    021127  aa  163 163 040 040   1995  	aci	"ss                              "
    021130  aa  040 040 040 040
    021131  aa  040 040 040 040
    021132  aa  040 040 040 040
    021133  aa  040 040 040 040
    021134  aa  040 040 040 040
    021135  aa  040 040 040 040
    021136  aa  040 040 040 040
    021137  aa  157 146 146 154   1996  	aci	"offline_libraries.info          "
    021140  aa  151 156 145 137
    021141  aa  154 151 142 162
    021142  aa  141 162 151 145
    021143  aa  163 056 151 156
    021144  aa  146 157 040 040
    021145  aa  040 040 040 040
    021146  aa  040 040 040 040
    021147  aa  157 146 146 154   1997  	aci	"offline_libraries               "
    021150  aa  151 156 145 137
    021151  aa  154 151 142 162
    021152  aa  141 162 151 145
    021153  aa  163 040 040 040
    021154  aa  040 040 040 040
    021155  aa  040 040 040 040
    021156  aa  040 040 040 040
    021157  aa  157 146 146 154   1998  	aci	"offline.info                    "
    021160  aa  151 156 145 056
    021161  aa  151 156 146 157
    021162  aa  040 040 040 040
    021163  aa  040 040 040 040
    021164  aa  040 040 040 040
    021165  aa  040 040 040 040
    021166  aa  040 040 040 040
    021167  aa  157 146 146 154   1999  	aci	"offline                         "
    021170  aa  151 156 145 040
    021171  aa  040 040 040 040
    021172  aa  040 040 040 040
    021173  aa  040 040 040 040
    021174  aa  040 040 040 040
    021175  aa  040 040 040 040
    021176  aa  040 040 040 040
    021177  aa  157 146 146 056   2000  	aci	"off.info                        "
    021200  aa  151 156 146 157
    021201  aa  040 040 040 040
    021202  aa  040 040 040 040
    021203  aa  040 040 040 040
    021204  aa  040 040 040 040
    021205  aa  040 040 040 040
    021206  aa  040 040 040 040
    021207  aa  157 146 146 040   2001  	aci	"off                             "
    021210  aa  040 040 040 040
    021211  aa  040 040 040 040
    021212  aa  040 040 040 040
    021213  aa  040 040 040 040
    021214  aa  040 040 040 040
    021215  aa  040 040 040 040
    021216  aa  040 040 040 040
    021217  aa  142 143 145 056   2002  	aci	"bce.info                        "
    021220  aa  151 156 146 157
    021221  aa  040 040 040 040
    021222  aa  040 040 040 040
    021223  aa  040 040 040 040
    021224  aa  040 040 040 040
    021225  aa  040 040 040 040
    021226  aa  040 040 040 040
    021227  aa  142 143 145 040   2003  	aci	"bce                             "
    021230  aa  040 040 040 040
    021231  aa  040 040 040 040
    021232  aa  040 040 040 040
    021233  aa  040 040 040 040
    021234  aa  040 040 040 040
    021235  aa  040 040 040 040
    021236  aa  040 040 040 040
    021237  aa  151 156 146 157   2004  	aci	"info                            "
    021240  aa  040 040 040 040
    021241  aa  040 040 040 040
    021242  aa  040 040 040 040
    021243  aa  040 040 040 040
    021244  aa  040 040 040 040
    021245  aa  040 040 040 040
    021246  aa  040 040 040 040
    021247  aa   000000 0110 03   2005  	even
    021250                        2006  .subsystem:
                                  2007  						" 1 root_names,
    021250  aa   000000 000021    2008  	dec	17				"   2 N,
                                  2009  						"   2 root_name (17);
    021251  aa  163 165 142 163   2010  	aci	"subsystem_library.info          "
    021252  aa  171 163 164 145
    021253  aa  155 137 154 151
    021254  aa  142 162 141 162
    021255  aa  171 056 151 156
    021256  aa  146 157 040 040
    021257  aa  040 040 040 040
    021260  aa  040 040 040 040
    021261  aa  163 165 142 163   2011  	aci	"subsystem_library               "
    021262  aa  171 163 164 145
    021263  aa  155 137 154 151
    021264  aa  142 162 141 162
    021265  aa  171 040 040 040
    021266  aa  040 040 040 040
    021267  aa  040 040 040 040
    021270  aa  040 040 040 040
    021271  aa  163 165 142 163   2012  	aci	"subsystem.info                  "
    021272  aa  171 163 164 145
    021273  aa  155 056 151 156
    021274  aa  146 157 040 040
    021275  aa  040 040 040 040
    021276  aa  040 040 040 040
    021277  aa  040 040 040 040
    021300  aa  040 040 040 040
    021301  aa  163 165 142 163   2013  	aci	"subsystem                       "
    021302  aa  171 163 164 145
    021303  aa  155 040 040 040
    021304  aa  040 040 040 040
    021305  aa  040 040 040 040
    021306  aa  040 040 040 040
    021307  aa  040 040 040 040
    021310  aa  040 040 040 040
    021311  aa  163 163 056 151   2014  	aci	"ss.info                         "
    021312  aa  156 146 157 040
    021313  aa  040 040 040 040
    021314  aa  040 040 040 040
    021315  aa  040 040 040 040
    021316  aa  040 040 040 040
    021317  aa  040 040 040 040
    021320  aa  040 040 040 040
    021321  aa  163 163 040 040   2015  	aci	"ss                              "
    021322  aa  040 040 040 040
    021323  aa  040 040 040 040
    021324  aa  040 040 040 040
    021325  aa  040 040 040 040
    021326  aa  040 040 040 040
    021327  aa  040 040 040 040
    021330  aa  040 040 040 040
    021331  aa  157 156 154 151   2016  	aci	"online_libraries.info           "
    021332  aa  156 145 137 154
    021333  aa  151 142 162 141
    021334  aa  162 151 145 163
    021335  aa  056 151 156 146
    021336  aa  157 040 040 040
    021337  aa  040 040 040 040
    021340  aa  040 040 040 040
    021341  aa  157 156 154 151   2017  	aci	"online_libraries                "
    021342  aa  156 145 137 154
    021343  aa  151 142 162 141
    021344  aa  162 151 145 163
    021345  aa  040 040 040 040
    021346  aa  040 040 040 040
    021347  aa  040 040 040 040
    021350  aa  040 040 040 040
    021351  aa  157 156 154 151   2018  	aci	"online.info                     "
    021352  aa  156 145 056 151
    021353  aa  156 146 157 040
    021354  aa  040 040 040 040
    021355  aa  040 040 040 040
    021356  aa  040 040 040 040
    021357  aa  040 040 040 040
    021360  aa  040 040 040 040
    021361  aa  157 156 154 151   2019  	aci	"online                          "
    021362  aa  156 145 040 040
    021363  aa  040 040 040 040
    021364  aa  040 040 040 040
    021365  aa  040 040 040 040
    021366  aa  040 040 040 040
    021367  aa  040 040 040 040
    021370  aa  040 040 040 040
    021371  aa  157 156 056 151   2020  	aci	"on.info                         "
    021372  aa  156 146 157 040
    021373  aa  040 040 040 040
    021374  aa  040 040 040 040
    021375  aa  040 040 040 040
    021376  aa  040 040 040 040
    021377  aa  040 040 040 040
    021400  aa  040 040 040 040
    021401  aa  157 156 040 040   2021  	aci	"on                              "
    021402  aa  040 040 040 040
    021403  aa  040 040 040 040
    021404  aa  040 040 040 040
    021405  aa  040 040 040 040
    021406  aa  040 040 040 040
    021407  aa  040 040 040 040
    021410  aa  040 040 040 040
    021411  aa  144 145 143 153   2022  	aci	"deckfile_manager.info           "
    021412  aa  146 151 154 145
    021413  aa  137 155 141 156
    021414  aa  141 147 145 162
    021415  aa  056 151 156 146
    021416  aa  157 040 040 040
    021417  aa  040 040 040 040
    021420  aa  040 040 040 040
    021421  aa  144 145 143 153   2023  	aci	"deckfile_manager                "
    021422  aa  146 151 154 145
    021423  aa  137 155 141 156
    021424  aa  141 147 145 162
    021425  aa  040 040 040 040
    021426  aa  040 040 040 040
    021427  aa  040 040 040 040
    021430  aa  040 040 040 040
    021431  aa  144 146 155 056   2024  	aci	"dfm.info                        "
    021432  aa  151 156 146 157
    021433  aa  040 040 040 040
    021434  aa  040 040 040 040
    021435  aa  040 040 040 040
    021436  aa  040 040 040 040
    021437  aa  040 040 040 040
    021440  aa  040 040 040 040
    021441  aa  144 146 155 040   2025  	aci	"dfm                             "
    021442  aa  040 040 040 040
    021443  aa  040 040 040 040
    021444  aa  040 040 040 040
    021445  aa  040 040 040 040
    021446  aa  040 040 040 040
    021447  aa  040 040 040 040
    021450  aa  040 040 040 040
    021451  aa  151 156 146 157   2026  	aci	"info                            "
    021452  aa  040 040 040 040
    021453  aa  040 040 040 040
    021454  aa  040 040 040 040
    021455  aa  040 040 040 040
    021456  aa  040 040 040 040
    021457  aa  040 040 040 040
    021460  aa  040 040 040 040
    021461  aa   000000 0110 03   2027  	even
    021462                        2028  .ss.info:
                                  2029  						" 1 root_names,
    021462  aa   000000 000017    2030  	dec	15				"   2 N,
                                  2031  						"   2 root_name (15);
    021463  aa  163 165 142 163   2032  	aci	"subsystem_library.info          "
    021464  aa  171 163 164 145
    021465  aa  155 137 154 151
    021466  aa  142 162 141 162
    021467  aa  171 056 151 156
    021470  aa  146 157 040 040
    021471  aa  040 040 040 040
    021472  aa  040 040 040 040
    021473  aa  163 165 142 163   2033  	aci	"subsystem_library               "
    021474  aa  171 163 164 145
    021475  aa  155 137 154 151
    021476  aa  142 162 141 162
    021477  aa  171 040 040 040
    021500  aa  040 040 040 040
    021501  aa  040 040 040 040
    021502  aa  040 040 040 040
    021503  aa  163 165 142 163   2034  	aci	"subsystem.info                  "
    021504  aa  171 163 164 145
    021505  aa  155 056 151 156
    021506  aa  146 157 040 040
    021507  aa  040 040 040 040
    021510  aa  040 040 040 040
    021511  aa  040 040 040 040
    021512  aa  040 040 040 040
    021513  aa  163 165 142 163   2035  	aci	"subsystem                       "
    021514  aa  171 163 164 145
    021515  aa  155 040 040 040
    021516  aa  040 040 040 040
    021517  aa  040 040 040 040
    021520  aa  040 040 040 040
    021521  aa  040 040 040 040
    021522  aa  040 040 040 040
    021523  aa  163 163 056 151   2036  	aci	"ss.info                         "
    021524  aa  156 146 157 040
    021525  aa  040 040 040 040
    021526  aa  040 040 040 040
    021527  aa  040 040 040 040
    021530  aa  040 040 040 040
    021531  aa  040 040 040 040
    021532  aa  040 040 040 040
    021533  aa  163 163 040 040   2037  	aci	"ss                              "
    021534  aa  040 040 040 040
    021535  aa  040 040 040 040
    021536  aa  040 040 040 040
    021537  aa  040 040 040 040
    021540  aa  040 040 040 040
    021541  aa  040 040 040 040
    021542  aa  040 040 040 040
    021543  aa  157 156 154 151   2038  	aci	"online_libraries.info           "
    021544  aa  156 145 137 154
    021545  aa  151 142 162 141
    021546  aa  162 151 145 163
    021547  aa  056 151 156 146
    021550  aa  157 040 040 040
    021551  aa  040 040 040 040
    021552  aa  040 040 040 040
    021553  aa  157 156 154 151   2039  	aci	"online_libraries                "
    021554  aa  156 145 137 154
    021555  aa  151 142 162 141
    021556  aa  162 151 145 163
    021557  aa  040 040 040 040
    021560  aa  040 040 040 040
    021561  aa  040 040 040 040
    021562  aa  040 040 040 040
    021563  aa  157 156 154 151   2040  	aci	"online.info                     "
    021564  aa  156 145 056 151
    021565  aa  156 146 157 040
    021566  aa  040 040 040 040
    021567  aa  040 040 040 040
    021570  aa  040 040 040 040
    021571  aa  040 040 040 040
    021572  aa  040 040 040 040
    021573  aa  157 156 154 151   2041  	aci	"online                          "
    021574  aa  156 145 040 040
    021575  aa  040 040 040 040
    021576  aa  040 040 040 040
    021577  aa  040 040 040 040
    021600  aa  040 040 040 040
    021601  aa  040 040 040 040
    021602  aa  040 040 040 040
    021603  aa  157 156 056 151   2042  	aci	"on.info                         "
    021604  aa  156 146 157 040
    021605  aa  040 040 040 040
    021606  aa  040 040 040 040
    021607  aa  040 040 040 040
    021610  aa  040 040 040 040
    021611  aa  040 040 040 040
    021612  aa  040 040 040 040
    021613  aa  157 156 040 040   2043  	aci	"on                              "
    021614  aa  040 040 040 040
    021615  aa  040 040 040 040
    021616  aa  040 040 040 040
    021617  aa  040 040 040 040
    021620  aa  040 040 040 040
    021621  aa  040 040 040 040
    021622  aa  040 040 040 040
    021623  aa  144 146 141 163   2044  	aci	"dfast.info                      "
    021624  aa  164 056 151 156
    021625  aa  146 157 040 040
    021626  aa  040 040 040 040
    021627  aa  040 040 040 040
    021630  aa  040 040 040 040
    021631  aa  040 040 040 040
    021632  aa  040 040 040 040
    021633  aa  144 146 141 163   2045  	aci	"dfast                           "
    021634  aa  164 040 040 040
    021635  aa  040 040 040 040
    021636  aa  040 040 040 040
    021637  aa  040 040 040 040
    021640  aa  040 040 040 040
    021641  aa  040 040 040 040
    021642  aa  040 040 040 040
    021643  aa  151 156 146 157   2046  	aci	"info                            "
    021644  aa  040 040 040 040
    021645  aa  040 040 040 040
    021646  aa  040 040 040 040
    021647  aa  040 040 040 040
    021650  aa  040 040 040 040
    021651  aa  040 040 040 040
    021652  aa  040 040 040 040
    021653  aa   000000 0110 03   2047  	even
    021654                        2048  .ss:
                                  2049  						" 1 root_names,
    021654  aa   000000 000017    2050  	dec	15				"   2 N,
                                  2051  						"   2 root_name (15);
    021655  aa  163 165 142 163   2052  	aci	"subsystem_library.info          "
    021656  aa  171 163 164 145
    021657  aa  155 137 154 151
    021660  aa  142 162 141 162
    021661  aa  171 056 151 156
    021662  aa  146 157 040 040
    021663  aa  040 040 040 040
    021664  aa  040 040 040 040
    021665  aa  163 165 142 163   2053  	aci	"subsystem_library               "
    021666  aa  171 163 164 145
    021667  aa  155 137 154 151
    021670  aa  142 162 141 162
    021671  aa  171 040 040 040
    021672  aa  040 040 040 040
    021673  aa  040 040 040 040
    021674  aa  040 040 040 040
    021675  aa  163 165 142 163   2054  	aci	"subsystem.info                  "
    021676  aa  171 163 164 145
    021677  aa  155 056 151 156
    021700  aa  146 157 040 040
    021701  aa  040 040 040 040
    021702  aa  040 040 040 040
    021703  aa  040 040 040 040
    021704  aa  040 040 040 040
    021705  aa  163 165 142 163   2055  	aci	"subsystem                       "
    021706  aa  171 163 164 145
    021707  aa  155 040 040 040
    021710  aa  040 040 040 040
    021711  aa  040 040 040 040
    021712  aa  040 040 040 040
    021713  aa  040 040 040 040
    021714  aa  040 040 040 040
    021715  aa  163 163 056 151   2056  	aci	"ss.info                         "
    021716  aa  156 146 157 040
    021717  aa  040 040 040 040
    021720  aa  040 040 040 040
    021721  aa  040 040 040 040
    021722  aa  040 040 040 040
    021723  aa  040 040 040 040
    021724  aa  040 040 040 040
    021725  aa  163 163 040 040   2057  	aci	"ss                              "
    021726  aa  040 040 040 040
    021727  aa  040 040 040 040
    021730  aa  040 040 040 040
    021731  aa  040 040 040 040
    021732  aa  040 040 040 040
    021733  aa  040 040 040 040
    021734  aa  040 040 040 040
    021735  aa  157 156 154 151   2058  	aci	"online_libraries.info           "
    021736  aa  156 145 137 154
    021737  aa  151 142 162 141
    021740  aa  162 151 145 163
    021741  aa  056 151 156 146
    021742  aa  157 040 040 040
    021743  aa  040 040 040 040
    021744  aa  040 040 040 040
    021745  aa  157 156 154 151   2059  	aci	"online_libraries                "
    021746  aa  156 145 137 154
    021747  aa  151 142 162 141
    021750  aa  162 151 145 163
    021751  aa  040 040 040 040
    021752  aa  040 040 040 040
    021753  aa  040 040 040 040
    021754  aa  040 040 040 040
    021755  aa  157 156 154 151   2060  	aci	"online.info                     "
    021756  aa  156 145 056 151
    021757  aa  156 146 157 040
    021760  aa  040 040 040 040
    021761  aa  040 040 040 040
    021762  aa  040 040 040 040
    021763  aa  040 040 040 040
    021764  aa  040 040 040 040
    021765  aa  157 156 154 151   2061  	aci	"online                          "
    021766  aa  156 145 040 040
    021767  aa  040 040 040 040
    021770  aa  040 040 040 040
    021771  aa  040 040 040 040
    021772  aa  040 040 040 040
    021773  aa  040 040 040 040
    021774  aa  040 040 040 040
    021775  aa  157 156 056 151   2062  	aci	"on.info                         "
    021776  aa  156 146 157 040
    021777  aa  040 040 040 040
    022000  aa  040 040 040 040
    022001  aa  040 040 040 040
    022002  aa  040 040 040 040
    022003  aa  040 040 040 040
    022004  aa  040 040 040 040
    022005  aa  157 156 040 040   2063  	aci	"on                              "
    022006  aa  040 040 040 040
    022007  aa  040 040 040 040
    022010  aa  040 040 040 040
    022011  aa  040 040 040 040
    022012  aa  040 040 040 040
    022013  aa  040 040 040 040
    022014  aa  040 040 040 040
    022015  aa  144 151 141 154   2064  	aci	"dial_out.info                   "
    022016  aa  137 157 165 164
    022017  aa  056 151 156 146
    022020  aa  157 040 040 040
    022021  aa  040 040 040 040
    022022  aa  040 040 040 040
    022023  aa  040 040 040 040
    022024  aa  040 040 040 040
    022025  aa  144 151 141 154   2065  	aci	"dial_out                        "
    022026  aa  137 157 165 164
    022027  aa  040 040 040 040
    022030  aa  040 040 040 040
    022031  aa  040 040 040 040
    022032  aa  040 040 040 040
    022033  aa  040 040 040 040
    022034  aa  040 040 040 040
    022035  aa  151 156 146 157   2066  	aci	"info                            "
    022036  aa  040 040 040 040
    022037  aa  040 040 040 040
    022040  aa  040 040 040 040
    022041  aa  040 040 040 040
    022042  aa  040 040 040 040
    022043  aa  040 040 040 040
    022044  aa  040 040 040 040
    022045  aa   000000 0110 03   2067  	even
    022046                        2068  .online_libraries.info:
                                  2069  						" 1 root_names,
    022046  aa   000000 000017    2070  	dec	15				"   2 N,
                                  2071  						"   2 root_name (15);
    022047  aa  163 165 142 163   2072  	aci	"subsystem_library.info          "
    022050  aa  171 163 164 145
    022051  aa  155 137 154 151
    022052  aa  142 162 141 162
    022053  aa  171 056 151 156
    022054  aa  146 157 040 040
    022055  aa  040 040 040 040
    022056  aa  040 040 040 040
    022057  aa  163 165 142 163   2073  	aci	"subsystem_library               "
    022060  aa  171 163 164 145
    022061  aa  155 137 154 151
    022062  aa  142 162 141 162
    022063  aa  171 040 040 040
    022064  aa  040 040 040 040
    022065  aa  040 040 040 040
    022066  aa  040 040 040 040
    022067  aa  163 165 142 163   2074  	aci	"subsystem.info                  "
    022070  aa  171 163 164 145
    022071  aa  155 056 151 156
    022072  aa  146 157 040 040
    022073  aa  040 040 040 040
    022074  aa  040 040 040 040
    022075  aa  040 040 040 040
    022076  aa  040 040 040 040
    022077  aa  163 165 142 163   2075  	aci	"subsystem                       "
    022100  aa  171 163 164 145
    022101  aa  155 040 040 040
    022102  aa  040 040 040 040
    022103  aa  040 040 040 040
    022104  aa  040 040 040 040
    022105  aa  040 040 040 040
    022106  aa  040 040 040 040
    022107  aa  163 163 056 151   2076  	aci	"ss.info                         "
    022110  aa  156 146 157 040
    022111  aa  040 040 040 040
    022112  aa  040 040 040 040
    022113  aa  040 040 040 040
    022114  aa  040 040 040 040
    022115  aa  040 040 040 040
    022116  aa  040 040 040 040
    022117  aa  163 163 040 040   2077  	aci	"ss                              "
    022120  aa  040 040 040 040
    022121  aa  040 040 040 040
    022122  aa  040 040 040 040
    022123  aa  040 040 040 040
    022124  aa  040 040 040 040
    022125  aa  040 040 040 040
    022126  aa  040 040 040 040
    022127  aa  157 156 154 151   2078  	aci	"online_libraries.info           "
    022130  aa  156 145 137 154
    022131  aa  151 142 162 141
    022132  aa  162 151 145 163
    022133  aa  056 151 156 146
    022134  aa  157 040 040 040
    022135  aa  040 040 040 040
    022136  aa  040 040 040 040
    022137  aa  157 156 154 151   2079  	aci	"online_libraries                "
    022140  aa  156 145 137 154
    022141  aa  151 142 162 141
    022142  aa  162 151 145 163
    022143  aa  040 040 040 040
    022144  aa  040 040 040 040
    022145  aa  040 040 040 040
    022146  aa  040 040 040 040
    022147  aa  157 156 154 151   2080  	aci	"online.info                     "
    022150  aa  156 145 056 151
    022151  aa  156 146 157 040
    022152  aa  040 040 040 040
    022153  aa  040 040 040 040
    022154  aa  040 040 040 040
    022155  aa  040 040 040 040
    022156  aa  040 040 040 040
    022157  aa  157 156 154 151   2081  	aci	"online                          "
    022160  aa  156 145 040 040
    022161  aa  040 040 040 040
    022162  aa  040 040 040 040
    022163  aa  040 040 040 040
    022164  aa  040 040 040 040
    022165  aa  040 040 040 040
    022166  aa  040 040 040 040
    022167  aa  157 156 056 151   2082  	aci	"on.info                         "
    022170  aa  156 146 157 040
    022171  aa  040 040 040 040
    022172  aa  040 040 040 040
    022173  aa  040 040 040 040
    022174  aa  040 040 040 040
    022175  aa  040 040 040 040
    022176  aa  040 040 040 040
    022177  aa  157 156 040 040   2083  	aci	"on                              "
    022200  aa  040 040 040 040
    022201  aa  040 040 040 040
    022202  aa  040 040 040 040
    022203  aa  040 040 040 040
    022204  aa  040 040 040 040
    022205  aa  040 040 040 040
    022206  aa  040 040 040 040
    022207  aa  145 155 141 143   2084  	aci	"emacs.info                      "
    022210  aa  163 056 151 156
    022211  aa  146 157 040 040
    022212  aa  040 040 040 040
    022213  aa  040 040 040 040
    022214  aa  040 040 040 040
    022215  aa  040 040 040 040
    022216  aa  040 040 040 040
    022217  aa  145 155 141 143   2085  	aci	"emacs                           "
    022220  aa  163 040 040 040
    022221  aa  040 040 040 040
    022222  aa  040 040 040 040
    022223  aa  040 040 040 040
    022224  aa  040 040 040 040
    022225  aa  040 040 040 040
    022226  aa  040 040 040 040
    022227  aa  151 156 146 157   2086  	aci	"info                            "
    022230  aa  040 040 040 040
    022231  aa  040 040 040 040
    022232  aa  040 040 040 040
    022233  aa  040 040 040 040
    022234  aa  040 040 040 040
    022235  aa  040 040 040 040
    022236  aa  040 040 040 040
    022237  aa   000000 0110 03   2087  	even
    022240                        2088  .online_libraries:
                                  2089  						" 1 root_names,
    022240  aa   000000 000021    2090  	dec	17				"   2 N,
                                  2091  						"   2 root_name (17);
    022241  aa  163 165 142 163   2092  	aci	"subsystem_library.info          "
    022242  aa  171 163 164 145
    022243  aa  155 137 154 151
    022244  aa  142 162 141 162
    022245  aa  171 056 151 156
    022246  aa  146 157 040 040
    022247  aa  040 040 040 040
    022250  aa  040 040 040 040
    022251  aa  163 165 142 163   2093  	aci	"subsystem_library               "
    022252  aa  171 163 164 145
    022253  aa  155 137 154 151
    022254  aa  142 162 141 162
    022255  aa  171 040 040 040
    022256  aa  040 040 040 040
    022257  aa  040 040 040 040
    022260  aa  040 040 040 040
    022261  aa  163 165 142 163   2094  	aci	"subsystem.info                  "
    022262  aa  171 163 164 145
    022263  aa  155 056 151 156
    022264  aa  146 157 040 040
    022265  aa  040 040 040 040
    022266  aa  040 040 040 040
    022267  aa  040 040 040 040
    022270  aa  040 040 040 040
    022271  aa  163 165 142 163   2095  	aci	"subsystem                       "
    022272  aa  171 163 164 145
    022273  aa  155 040 040 040
    022274  aa  040 040 040 040
    022275  aa  040 040 040 040
    022276  aa  040 040 040 040
    022277  aa  040 040 040 040
    022300  aa  040 040 040 040
    022301  aa  163 163 056 151   2096  	aci	"ss.info                         "
    022302  aa  156 146 157 040
    022303  aa  040 040 040 040
    022304  aa  040 040 040 040
    022305  aa  040 040 040 040
    022306  aa  040 040 040 040
    022307  aa  040 040 040 040
    022310  aa  040 040 040 040
    022311  aa  163 163 040 040   2097  	aci	"ss                              "
    022312  aa  040 040 040 040
    022313  aa  040 040 040 040
    022314  aa  040 040 040 040
    022315  aa  040 040 040 040
    022316  aa  040 040 040 040
    022317  aa  040 040 040 040
    022320  aa  040 040 040 040
    022321  aa  157 156 154 151   2098  	aci	"online_libraries.info           "
    022322  aa  156 145 137 154
    022323  aa  151 142 162 141
    022324  aa  162 151 145 163
    022325  aa  056 151 156 146
    022326  aa  157 040 040 040
    022327  aa  040 040 040 040
    022330  aa  040 040 040 040
    022331  aa  157 156 154 151   2099  	aci	"online_libraries                "
    022332  aa  156 145 137 154
    022333  aa  151 142 162 141
    022334  aa  162 151 145 163
    022335  aa  040 040 040 040
    022336  aa  040 040 040 040
    022337  aa  040 040 040 040
    022340  aa  040 040 040 040
    022341  aa  157 156 154 151   2100  	aci	"online.info                     "
    022342  aa  156 145 056 151
    022343  aa  156 146 157 040
    022344  aa  040 040 040 040
    022345  aa  040 040 040 040
    022346  aa  040 040 040 040
    022347  aa  040 040 040 040
    022350  aa  040 040 040 040
    022351  aa  157 156 154 151   2101  	aci	"online                          "
    022352  aa  156 145 040 040
    022353  aa  040 040 040 040
    022354  aa  040 040 040 040
    022355  aa  040 040 040 040
    022356  aa  040 040 040 040
    022357  aa  040 040 040 040
    022360  aa  040 040 040 040
    022361  aa  157 156 056 151   2102  	aci	"on.info                         "
    022362  aa  156 146 157 040
    022363  aa  040 040 040 040
    022364  aa  040 040 040 040
    022365  aa  040 040 040 040
    022366  aa  040 040 040 040
    022367  aa  040 040 040 040
    022370  aa  040 040 040 040
    022371  aa  157 156 040 040   2103  	aci	"on                              "
    022372  aa  040 040 040 040
    022373  aa  040 040 040 040
    022374  aa  040 040 040 040
    022375  aa  040 040 040 040
    022376  aa  040 040 040 040
    022377  aa  040 040 040 040
    022400  aa  040 040 040 040
    022401  aa  145 170 145 143   2104  	aci	"executive_forum.info            "
    022402  aa  165 164 151 166
    022403  aa  145 137 146 157
    022404  aa  162 165 155 056
    022405  aa  151 156 146 157
    022406  aa  040 040 040 040
    022407  aa  040 040 040 040
    022410  aa  040 040 040 040
    022411  aa  145 170 145 143   2105  	aci	"executive_forum                 "
    022412  aa  165 164 151 166
    022413  aa  145 137 146 157
    022414  aa  162 165 155 040
    022415  aa  040 040 040 040
    022416  aa  040 040 040 040
    022417  aa  040 040 040 040
    022420  aa  040 040 040 040
    022421  aa  170 146 157 162   2106  	aci	"xforum.info                     "
    022422  aa  165 155 056 151
    022423  aa  156 146 157 040
    022424  aa  040 040 040 040
    022425  aa  040 040 040 040
    022426  aa  040 040 040 040
    022427  aa  040 040 040 040
    022430  aa  040 040 040 040
    022431  aa  170 146 157 162   2107  	aci	"xforum                          "
    022432  aa  165 155 040 040
    022433  aa  040 040 040 040
    022434  aa  040 040 040 040
    022435  aa  040 040 040 040
    022436  aa  040 040 040 040
    022437  aa  040 040 040 040
    022440  aa  040 040 040 040
    022441  aa  151 156 146 157   2108  	aci	"info                            "
    022442  aa  040 040 040 040
    022443  aa  040 040 040 040
    022444  aa  040 040 040 040
    022445  aa  040 040 040 040
    022446  aa  040 040 040 040
    022447  aa  040 040 040 040
    022450  aa  040 040 040 040
    022451  aa   000000 0110 03   2109  	even
    022452                        2110  .online.info:
                                  2111  						" 1 root_names,
    022452  aa   000000 000021    2112  	dec	17				"   2 N,
                                  2113  						"   2 root_name (17);
    022453  aa  163 165 142 163   2114  	aci	"subsystem_library.info          "
    022454  aa  171 163 164 145
    022455  aa  155 137 154 151
    022456  aa  142 162 141 162
    022457  aa  171 056 151 156
    022460  aa  146 157 040 040
    022461  aa  040 040 040 040
    022462  aa  040 040 040 040
    022463  aa  163 165 142 163   2115  	aci	"subsystem_library               "
    022464  aa  171 163 164 145
    022465  aa  155 137 154 151
    022466  aa  142 162 141 162
    022467  aa  171 040 040 040
    022470  aa  040 040 040 040
    022471  aa  040 040 040 040
    022472  aa  040 040 040 040
    022473  aa  163 165 142 163   2116  	aci	"subsystem.info                  "
    022474  aa  171 163 164 145
    022475  aa  155 056 151 156
    022476  aa  146 157 040 040
    022477  aa  040 040 040 040
    022500  aa  040 040 040 040
    022501  aa  040 040 040 040
    022502  aa  040 040 040 040
    022503  aa  163 165 142 163   2117  	aci	"subsystem                       "
    022504  aa  171 163 164 145
    022505  aa  155 040 040 040
    022506  aa  040 040 040 040
    022507  aa  040 040 040 040
    022510  aa  040 040 040 040
    022511  aa  040 040 040 040
    022512  aa  040 040 040 040
    022513  aa  163 163 056 151   2118  	aci	"ss.info                         "
    022514  aa  156 146 157 040
    022515  aa  040 040 040 040
    022516  aa  040 040 040 040
    022517  aa  040 040 040 040
    022520  aa  040 040 040 040
    022521  aa  040 040 040 040
    022522  aa  040 040 040 040
    022523  aa  163 163 040 040   2119  	aci	"ss                              "
    022524  aa  040 040 040 040
    022525  aa  040 040 040 040
    022526  aa  040 040 040 040
    022527  aa  040 040 040 040
    022530  aa  040 040 040 040
    022531  aa  040 040 040 040
    022532  aa  040 040 040 040
    022533  aa  157 156 154 151   2120  	aci	"online_libraries.info           "
    022534  aa  156 145 137 154
    022535  aa  151 142 162 141
    022536  aa  162 151 145 163
    022537  aa  056 151 156 146
    022540  aa  157 040 040 040
    022541  aa  040 040 040 040
    022542  aa  040 040 040 040
    022543  aa  157 156 154 151   2121  	aci	"online_libraries                "
    022544  aa  156 145 137 154
    022545  aa  151 142 162 141
    022546  aa  162 151 145 163
    022547  aa  040 040 040 040
    022550  aa  040 040 040 040
    022551  aa  040 040 040 040
    022552  aa  040 040 040 040
    022553  aa  157 156 154 151   2122  	aci	"online.info                     "
    022554  aa  156 145 056 151
    022555  aa  156 146 157 040
    022556  aa  040 040 040 040
    022557  aa  040 040 040 040
    022560  aa  040 040 040 040
    022561  aa  040 040 040 040
    022562  aa  040 040 040 040
    022563  aa  157 156 154 151   2123  	aci	"online                          "
    022564  aa  156 145 040 040
    022565  aa  040 040 040 040
    022566  aa  040 040 040 040
    022567  aa  040 040 040 040
    022570  aa  040 040 040 040
    022571  aa  040 040 040 040
    022572  aa  040 040 040 040
    022573  aa  157 156 056 151   2124  	aci	"on.info                         "
    022574  aa  156 146 157 040
    022575  aa  040 040 040 040
    022576  aa  040 040 040 040
    022577  aa  040 040 040 040
    022600  aa  040 040 040 040
    022601  aa  040 040 040 040
    022602  aa  040 040 040 040
    022603  aa  157 156 040 040   2125  	aci	"on                              "
    022604  aa  040 040 040 040
    022605  aa  040 040 040 040
    022606  aa  040 040 040 040
    022607  aa  040 040 040 040
    022610  aa  040 040 040 040
    022611  aa  040 040 040 040
    022612  aa  040 040 040 040
    022613  aa  145 170 145 143   2126  	aci	"executive_mail.info             "
    022614  aa  165 164 151 166
    022615  aa  145 137 155 141
    022616  aa  151 154 056 151
    022617  aa  156 146 157 040
    022620  aa  040 040 040 040
    022621  aa  040 040 040 040
    022622  aa  040 040 040 040
    022623  aa  145 170 145 143   2127  	aci	"executive_mail                  "
    022624  aa  165 164 151 166
    022625  aa  145 137 155 141
    022626  aa  151 154 040 040
    022627  aa  040 040 040 040
    022630  aa  040 040 040 040
    022631  aa  040 040 040 040
    022632  aa  040 040 040 040
    022633  aa  170 155 141 151   2128  	aci	"xmail.info                      "
    022634  aa  154 056 151 156
    022635  aa  146 157 040 040
    022636  aa  040 040 040 040
    022637  aa  040 040 040 040
    022640  aa  040 040 040 040
    022641  aa  040 040 040 040
    022642  aa  040 040 040 040
    022643  aa  170 155 141 151   2129  	aci	"xmail                           "
    022644  aa  154 040 040 040
    022645  aa  040 040 040 040
    022646  aa  040 040 040 040
    022647  aa  040 040 040 040
    022650  aa  040 040 040 040
    022651  aa  040 040 040 040
    022652  aa  040 040 040 040
    022653  aa  151 156 146 157   2130  	aci	"info                            "
    022654  aa  040 040 040 040
    022655  aa  040 040 040 040
    022656  aa  040 040 040 040
    022657  aa  040 040 040 040
    022660  aa  040 040 040 040
    022661  aa  040 040 040 040
    022662  aa  040 040 040 040
    022663  aa   000000 0110 03   2131  	even
    022664                        2132  .online:
                                  2133  						" 1 root_names,
    022664  aa   000000 000017    2134  	dec	15				"   2 N,
                                  2135  						"   2 root_name (15);
    022665  aa  163 165 142 163   2136  	aci	"subsystem_library.info          "
    022666  aa  171 163 164 145
    022667  aa  155 137 154 151
    022670  aa  142 162 141 162
    022671  aa  171 056 151 156
    022672  aa  146 157 040 040
    022673  aa  040 040 040 040
    022674  aa  040 040 040 040
    022675  aa  163 165 142 163   2137  	aci	"subsystem_library               "
    022676  aa  171 163 164 145
    022677  aa  155 137 154 151
    022700  aa  142 162 141 162
    022701  aa  171 040 040 040
    022702  aa  040 040 040 040
    022703  aa  040 040 040 040
    022704  aa  040 040 040 040
    022705  aa  163 165 142 163   2138  	aci	"subsystem.info                  "
    022706  aa  171 163 164 145
    022707  aa  155 056 151 156
    022710  aa  146 157 040 040
    022711  aa  040 040 040 040
    022712  aa  040 040 040 040
    022713  aa  040 040 040 040
    022714  aa  040 040 040 040
    022715  aa  163 165 142 163   2139  	aci	"subsystem                       "
    022716  aa  171 163 164 145
    022717  aa  155 040 040 040
    022720  aa  040 040 040 040
    022721  aa  040 040 040 040
    022722  aa  040 040 040 040
    022723  aa  040 040 040 040
    022724  aa  040 040 040 040
    022725  aa  163 163 056 151   2140  	aci	"ss.info                         "
    022726  aa  156 146 157 040
    022727  aa  040 040 040 040
    022730  aa  040 040 040 040
    022731  aa  040 040 040 040
    022732  aa  040 040 040 040
    022733  aa  040 040 040 040
    022734  aa  040 040 040 040
    022735  aa  163 163 040 040   2141  	aci	"ss                              "
    022736  aa  040 040 040 040
    022737  aa  040 040 040 040
    022740  aa  040 040 040 040
    022741  aa  040 040 040 040
    022742  aa  040 040 040 040
    022743  aa  040 040 040 040
    022744  aa  040 040 040 040
    022745  aa  157 156 154 151   2142  	aci	"online_libraries.info           "
    022746  aa  156 145 137 154
    022747  aa  151 142 162 141
    022750  aa  162 151 145 163
    022751  aa  056 151 156 146
    022752  aa  157 040 040 040
    022753  aa  040 040 040 040
    022754  aa  040 040 040 040
    022755  aa  157 156 154 151   2143  	aci	"online_libraries                "
    022756  aa  156 145 137 154
    022757  aa  151 142 162 141
    022760  aa  162 151 145 163
    022761  aa  040 040 040 040
    022762  aa  040 040 040 040
    022763  aa  040 040 040 040
    022764  aa  040 040 040 040
    022765  aa  157 156 154 151   2144  	aci	"online.info                     "
    022766  aa  156 145 056 151
    022767  aa  156 146 157 040
    022770  aa  040 040 040 040
    022771  aa  040 040 040 040
    022772  aa  040 040 040 040
    022773  aa  040 040 040 040
    022774  aa  040 040 040 040
    022775  aa  157 156 154 151   2145  	aci	"online                          "
    022776  aa  156 145 040 040
    022777  aa  040 040 040 040
    023000  aa  040 040 040 040
    023001  aa  040 040 040 040
    023002  aa  040 040 040 040
    023003  aa  040 040 040 040
    023004  aa  040 040 040 040
    023005  aa  157 156 056 151   2146  	aci	"on.info                         "
    023006  aa  156 146 157 040
    023007  aa  040 040 040 040
    023010  aa  040 040 040 040
    023011  aa  040 040 040 040
    023012  aa  040 040 040 040
    023013  aa  040 040 040 040
    023014  aa  040 040 040 040
    023015  aa  157 156 040 040   2147  	aci	"on                              "
    023016  aa  040 040 040 040
    023017  aa  040 040 040 040
    023020  aa  040 040 040 040
    023021  aa  040 040 040 040
    023022  aa  040 040 040 040
    023023  aa  040 040 040 040
    023024  aa  040 040 040 040
    023025  aa  146 141 163 164   2148  	aci	"fast.info                       "
    023026  aa  056 151 156 146
    023027  aa  157 040 040 040
    023030  aa  040 040 040 040
    023031  aa  040 040 040 040
    023032  aa  040 040 040 040
    023033  aa  040 040 040 040
    023034  aa  040 040 040 040
    023035  aa  146 141 163 164   2149  	aci	"fast                            "
    023036  aa  040 040 040 040
    023037  aa  040 040 040 040
    023040  aa  040 040 040 040
    023041  aa  040 040 040 040
    023042  aa  040 040 040 040
    023043  aa  040 040 040 040
    023044  aa  040 040 040 040
    023045  aa  151 156 146 157   2150  	aci	"info                            "
    023046  aa  040 040 040 040
    023047  aa  040 040 040 040
    023050  aa  040 040 040 040
    023051  aa  040 040 040 040
    023052  aa  040 040 040 040
    023053  aa  040 040 040 040
    023054  aa  040 040 040 040
    023055  aa   000000 0110 03   2151  	even
    023056                        2152  .on.info:
                                  2153  						" 1 root_names,
    023056  aa   000000 000017    2154  	dec	15				"   2 N,
                                  2155  						"   2 root_name (15);
    023057  aa  163 165 142 163   2156  	aci	"subsystem_library.info          "
    023060  aa  171 163 164 145
    023061  aa  155 137 154 151
    023062  aa  142 162 141 162
    023063  aa  171 056 151 156
    023064  aa  146 157 040 040
    023065  aa  040 040 040 040
    023066  aa  040 040 040 040
    023067  aa  163 165 142 163   2157  	aci	"subsystem_library               "
    023070  aa  171 163 164 145
    023071  aa  155 137 154 151
    023072  aa  142 162 141 162
    023073  aa  171 040 040 040
    023074  aa  040 040 040 040
    023075  aa  040 040 040 040
    023076  aa  040 040 040 040
    023077  aa  163 165 142 163   2158  	aci	"subsystem.info                  "
    023100  aa  171 163 164 145
    023101  aa  155 056 151 156
    023102  aa  146 157 040 040
    023103  aa  040 040 040 040
    023104  aa  040 040 040 040
    023105  aa  040 040 040 040
    023106  aa  040 040 040 040
    023107  aa  163 165 142 163   2159  	aci	"subsystem                       "
    023110  aa  171 163 164 145
    023111  aa  155 040 040 040
    023112  aa  040 040 040 040
    023113  aa  040 040 040 040
    023114  aa  040 040 040 040
    023115  aa  040 040 040 040
    023116  aa  040 040 040 040
    023117  aa  163 163 056 151   2160  	aci	"ss.info                         "
    023120  aa  156 146 157 040
    023121  aa  040 040 040 040
    023122  aa  040 040 040 040
    023123  aa  040 040 040 040
    023124  aa  040 040 040 040
    023125  aa  040 040 040 040
    023126  aa  040 040 040 040
    023127  aa  163 163 040 040   2161  	aci	"ss                              "
    023130  aa  040 040 040 040
    023131  aa  040 040 040 040
    023132  aa  040 040 040 040
    023133  aa  040 040 040 040
    023134  aa  040 040 040 040
    023135  aa  040 040 040 040
    023136  aa  040 040 040 040
    023137  aa  157 156 154 151   2162  	aci	"online_libraries.info           "
    023140  aa  156 145 137 154
    023141  aa  151 142 162 141
    023142  aa  162 151 145 163
    023143  aa  056 151 156 146
    023144  aa  157 040 040 040
    023145  aa  040 040 040 040
    023146  aa  040 040 040 040
    023147  aa  157 156 154 151   2163  	aci	"online_libraries                "
    023150  aa  156 145 137 154
    023151  aa  151 142 162 141
    023152  aa  162 151 145 163
    023153  aa  040 040 040 040
    023154  aa  040 040 040 040
    023155  aa  040 040 040 040
    023156  aa  040 040 040 040
    023157  aa  157 156 154 151   2164  	aci	"online.info                     "
    023160  aa  156 145 056 151
    023161  aa  156 146 157 040
    023162  aa  040 040 040 040
    023163  aa  040 040 040 040
    023164  aa  040 040 040 040
    023165  aa  040 040 040 040
    023166  aa  040 040 040 040
    023167  aa  157 156 154 151   2165  	aci	"online                          "
    023170  aa  156 145 040 040
    023171  aa  040 040 040 040
    023172  aa  040 040 040 040
    023173  aa  040 040 040 040
    023174  aa  040 040 040 040
    023175  aa  040 040 040 040
    023176  aa  040 040 040 040
    023177  aa  157 156 056 151   2166  	aci	"on.info                         "
    023200  aa  156 146 157 040
    023201  aa  040 040 040 040
    023202  aa  040 040 040 040
    023203  aa  040 040 040 040
    023204  aa  040 040 040 040
    023205  aa  040 040 040 040
    023206  aa  040 040 040 040
    023207  aa  157 156 040 040   2167  	aci	"on                              "
    023210  aa  040 040 040 040
    023211  aa  040 040 040 040
    023212  aa  040 040 040 040
    023213  aa  040 040 040 040
    023214  aa  040 040 040 040
    023215  aa  040 040 040 040
    023216  aa  040 040 040 040
    023217  aa  146 157 162 165   2168  	aci	"forum.info                      "
    023220  aa  155 056 151 156
    023221  aa  146 157 040 040
    023222  aa  040 040 040 040
    023223  aa  040 040 040 040
    023224  aa  040 040 040 040
    023225  aa  040 040 040 040
    023226  aa  040 040 040 040
    023227  aa  146 157 162 165   2169  	aci	"forum                           "
    023230  aa  155 040 040 040
    023231  aa  040 040 040 040
    023232  aa  040 040 040 040
    023233  aa  040 040 040 040
    023234  aa  040 040 040 040
    023235  aa  040 040 040 040
    023236  aa  040 040 040 040
    023237  aa  151 156 146 157   2170  	aci	"info                            "
    023240  aa  040 040 040 040
    023241  aa  040 040 040 040
    023242  aa  040 040 040 040
    023243  aa  040 040 040 040
    023244  aa  040 040 040 040
    023245  aa  040 040 040 040
    023246  aa  040 040 040 040
    023247  aa   000000 0110 03   2171  	even
    023250                        2172  .on:
                                  2173  						" 1 root_names,
    023250  aa   000000 000017    2174  	dec	15				"   2 N,
                                  2175  						"   2 root_name (15);
    023251  aa  163 165 142 163   2176  	aci	"subsystem_library.info          "
    023252  aa  171 163 164 145
    023253  aa  155 137 154 151
    023254  aa  142 162 141 162
    023255  aa  171 056 151 156
    023256  aa  146 157 040 040
    023257  aa  040 040 040 040
    023260  aa  040 040 040 040
    023261  aa  163 165 142 163   2177  	aci	"subsystem_library               "
    023262  aa  171 163 164 145
    023263  aa  155 137 154 151
    023264  aa  142 162 141 162
    023265  aa  171 040 040 040
    023266  aa  040 040 040 040
    023267  aa  040 040 040 040
    023270  aa  040 040 040 040
    023271  aa  163 165 142 163   2178  	aci	"subsystem.info                  "
    023272  aa  171 163 164 145
    023273  aa  155 056 151 156
    023274  aa  146 157 040 040
    023275  aa  040 040 040 040
    023276  aa  040 040 040 040
    023277  aa  040 040 040 040
    023300  aa  040 040 040 040
    023301  aa  163 165 142 163   2179  	aci	"subsystem                       "
    023302  aa  171 163 164 145
    023303  aa  155 040 040 040
    023304  aa  040 040 040 040
    023305  aa  040 040 040 040
    023306  aa  040 040 040 040
    023307  aa  040 040 040 040
    023310  aa  040 040 040 040
    023311  aa  163 163 056 151   2180  	aci	"ss.info                         "
    023312  aa  156 146 157 040
    023313  aa  040 040 040 040
    023314  aa  040 040 040 040
    023315  aa  040 040 040 040
    023316  aa  040 040 040 040
    023317  aa  040 040 040 040
    023320  aa  040 040 040 040
    023321  aa  163 163 040 040   2181  	aci	"ss                              "
    023322  aa  040 040 040 040
    023323  aa  040 040 040 040
    023324  aa  040 040 040 040
    023325  aa  040 040 040 040
    023326  aa  040 040 040 040
    023327  aa  040 040 040 040
    023330  aa  040 040 040 040
    023331  aa  157 156 154 151   2182  	aci	"online_libraries.info           "
    023332  aa  156 145 137 154
    023333  aa  151 142 162 141
    023334  aa  162 151 145 163
    023335  aa  056 151 156 146
    023336  aa  157 040 040 040
    023337  aa  040 040 040 040
    023340  aa  040 040 040 040
    023341  aa  157 156 154 151   2183  	aci	"online_libraries                "
    023342  aa  156 145 137 154
    023343  aa  151 142 162 141
    023344  aa  162 151 145 163
    023345  aa  040 040 040 040
    023346  aa  040 040 040 040
    023347  aa  040 040 040 040
    023350  aa  040 040 040 040
    023351  aa  157 156 154 151   2184  	aci	"online.info                     "
    023352  aa  156 145 056 151
    023353  aa  156 146 157 040
    023354  aa  040 040 040 040
    023355  aa  040 040 040 040
    023356  aa  040 040 040 040
    023357  aa  040 040 040 040
    023360  aa  040 040 040 040
    023361  aa  157 156 154 151   2185  	aci	"online                          "
    023362  aa  156 145 040 040
    023363  aa  040 040 040 040
    023364  aa  040 040 040 040
    023365  aa  040 040 040 040
    023366  aa  040 040 040 040
    023367  aa  040 040 040 040
    023370  aa  040 040 040 040
    023371  aa  157 156 056 151   2186  	aci	"on.info                         "
    023372  aa  156 146 157 040
    023373  aa  040 040 040 040
    023374  aa  040 040 040 040
    023375  aa  040 040 040 040
    023376  aa  040 040 040 040
    023377  aa  040 040 040 040
    023400  aa  040 040 040 040
    023401  aa  157 156 040 040   2187  	aci	"on                              "
    023402  aa  040 040 040 040
    023403  aa  040 040 040 040
    023404  aa  040 040 040 040
    023405  aa  040 040 040 040
    023406  aa  040 040 040 040
    023407  aa  040 040 040 040
    023410  aa  040 040 040 040
    023411  aa  151 157 137 144   2188  	aci	"io_daemon.info                  "
    023412  aa  141 145 155 157
    023413  aa  156 056 151 156
    023414  aa  146 157 040 040
    023415  aa  040 040 040 040
    023416  aa  040 040 040 040
    023417  aa  040 040 040 040
    023420  aa  040 040 040 040
    023421  aa  151 157 137 144   2189  	aci	"io_daemon                       "
    023422  aa  141 145 155 157
    023423  aa  156 040 040 040
    023424  aa  040 040 040 040
    023425  aa  040 040 040 040
    023426  aa  040 040 040 040
    023427  aa  040 040 040 040
    023430  aa  040 040 040 040
    023431  aa  151 156 146 157   2190  	aci	"info                            "
    023432  aa  040 040 040 040
    023433  aa  040 040 040 040
    023434  aa  040 040 040 040
    023435  aa  040 040 040 040
    023436  aa  040 040 040 040
    023437  aa  040 040 040 040
    023440  aa  040 040 040 040
    023441  aa   000000 0110 03   2191  	even
    023442                        2192  .kermit.info:
                                  2193  						" 1 root_names,
    023442  aa   000000 000017    2194  	dec	15				"   2 N,
                                  2195  						"   2 root_name (15);
    023443  aa  163 165 142 163   2196  	aci	"subsystem_library.info          "
    023444  aa  171 163 164 145
    023445  aa  155 137 154 151
    023446  aa  142 162 141 162
    023447  aa  171 056 151 156
    023450  aa  146 157 040 040
    023451  aa  040 040 040 040
    023452  aa  040 040 040 040
    023453  aa  163 165 142 163   2197  	aci	"subsystem_library               "
    023454  aa  171 163 164 145
    023455  aa  155 137 154 151
    023456  aa  142 162 141 162
    023457  aa  171 040 040 040
    023460  aa  040 040 040 040
    023461  aa  040 040 040 040
    023462  aa  040 040 040 040
    023463  aa  163 165 142 163   2198  	aci	"subsystem.info                  "
    023464  aa  171 163 164 145
    023465  aa  155 056 151 156
    023466  aa  146 157 040 040
    023467  aa  040 040 040 040
    023470  aa  040 040 040 040
    023471  aa  040 040 040 040
    023472  aa  040 040 040 040
    023473  aa  163 165 142 163   2199  	aci	"subsystem                       "
    023474  aa  171 163 164 145
    023475  aa  155 040 040 040
    023476  aa  040 040 040 040
    023477  aa  040 040 040 040
    023500  aa  040 040 040 040
    023501  aa  040 040 040 040
    023502  aa  040 040 040 040
    023503  aa  163 163 056 151   2200  	aci	"ss.info                         "
    023504  aa  156 146 157 040
    023505  aa  040 040 040 040
    023506  aa  040 040 040 040
    023507  aa  040 040 040 040
    023510  aa  040 040 040 040
    023511  aa  040 040 040 040
    023512  aa  040 040 040 040
    023513  aa  163 163 040 040   2201  	aci	"ss                              "
    023514  aa  040 040 040 040
    023515  aa  040 040 040 040
    023516  aa  040 040 040 040
    023517  aa  040 040 040 040
    023520  aa  040 040 040 040
    023521  aa  040 040 040 040
    023522  aa  040 040 040 040
    023523  aa  157 156 154 151   2202  	aci	"online_libraries.info           "
    023524  aa  156 145 137 154
    023525  aa  151 142 162 141
    023526  aa  162 151 145 163
    023527  aa  056 151 156 146
    023530  aa  157 040 040 040
    023531  aa  040 040 040 040
    023532  aa  040 040 040 040
    023533  aa  157 156 154 151   2203  	aci	"online_libraries                "
    023534  aa  156 145 137 154
    023535  aa  151 142 162 141
    023536  aa  162 151 145 163
    023537  aa  040 040 040 040
    023540  aa  040 040 040 040
    023541  aa  040 040 040 040
    023542  aa  040 040 040 040
    023543  aa  157 156 154 151   2204  	aci	"online.info                     "
    023544  aa  156 145 056 151
    023545  aa  156 146 157 040
    023546  aa  040 040 040 040
    023547  aa  040 040 040 040
    023550  aa  040 040 040 040
    023551  aa  040 040 040 040
    023552  aa  040 040 040 040
    023553  aa  157 156 154 151   2205  	aci	"online                          "
    023554  aa  156 145 040 040
    023555  aa  040 040 040 040
    023556  aa  040 040 040 040
    023557  aa  040 040 040 040
    023560  aa  040 040 040 040
    023561  aa  040 040 040 040
    023562  aa  040 040 040 040
    023563  aa  157 156 056 151   2206  	aci	"on.info                         "
    023564  aa  156 146 157 040
    023565  aa  040 040 040 040
    023566  aa  040 040 040 040
    023567  aa  040 040 040 040
    023570  aa  040 040 040 040
    023571  aa  040 040 040 040
    023572  aa  040 040 040 040
    023573  aa  157 156 040 040   2207  	aci	"on                              "
    023574  aa  040 040 040 040
    023575  aa  040 040 040 040
    023576  aa  040 040 040 040
    023577  aa  040 040 040 040
    023600  aa  040 040 040 040
    023601  aa  040 040 040 040
    023602  aa  040 040 040 040
    023603  aa  153 145 162 155   2208  	aci	"kermit.info                     "
    023604  aa  151 164 056 151
    023605  aa  156 146 157 040
    023606  aa  040 040 040 040
    023607  aa  040 040 040 040
    023610  aa  040 040 040 040
    023611  aa  040 040 040 040
    023612  aa  040 040 040 040
    023613  aa  153 145 162 155   2209  	aci	"kermit                          "
    023614  aa  151 164 040 040
    023615  aa  040 040 040 040
    023616  aa  040 040 040 040
    023617  aa  040 040 040 040
    023620  aa  040 040 040 040
    023621  aa  040 040 040 040
    023622  aa  040 040 040 040
    023623  aa  151 156 146 157   2210  	aci	"info                            "
    023624  aa  040 040 040 040
    023625  aa  040 040 040 040
    023626  aa  040 040 040 040
    023627  aa  040 040 040 040
    023630  aa  040 040 040 040
    023631  aa  040 040 040 040
    023632  aa  040 040 040 040
    023633  aa   000000 0110 03   2211  	even
    023634                        2212  .linus.info:
                                  2213  						" 1 root_names,
    023634  aa   000000 000017    2214  	dec	15				"   2 N,
                                  2215  						"   2 root_name (15);
    023635  aa  163 165 142 163   2216  	aci	"subsystem_library.info          "
    023636  aa  171 163 164 145
    023637  aa  155 137 154 151
    023640  aa  142 162 141 162
    023641  aa  171 056 151 156
    023642  aa  146 157 040 040
    023643  aa  040 040 040 040
    023644  aa  040 040 040 040
    023645  aa  163 165 142 163   2217  	aci	"subsystem_library               "
    023646  aa  171 163 164 145
    023647  aa  155 137 154 151
    023650  aa  142 162 141 162
    023651  aa  171 040 040 040
    023652  aa  040 040 040 040
    023653  aa  040 040 040 040
    023654  aa  040 040 040 040
    023655  aa  163 165 142 163   2218  	aci	"subsystem.info                  "
    023656  aa  171 163 164 145
    023657  aa  155 056 151 156
    023660  aa  146 157 040 040
    023661  aa  040 040 040 040
    023662  aa  040 040 040 040
    023663  aa  040 040 040 040
    023664  aa  040 040 040 040
    023665  aa  163 165 142 163   2219  	aci	"subsystem                       "
    023666  aa  171 163 164 145
    023667  aa  155 040 040 040
    023670  aa  040 040 040 040
    023671  aa  040 040 040 040
    023672  aa  040 040 040 040
    023673  aa  040 040 040 040
    023674  aa  040 040 040 040
    023675  aa  163 163 056 151   2220  	aci	"ss.info                         "
    023676  aa  156 146 157 040
    023677  aa  040 040 040 040
    023700  aa  040 040 040 040
    023701  aa  040 040 040 040
    023702  aa  040 040 040 040
    023703  aa  040 040 040 040
    023704  aa  040 040 040 040
    023705  aa  163 163 040 040   2221  	aci	"ss                              "
    023706  aa  040 040 040 040
    023707  aa  040 040 040 040
    023710  aa  040 040 040 040
    023711  aa  040 040 040 040
    023712  aa  040 040 040 040
    023713  aa  040 040 040 040
    023714  aa  040 040 040 040
    023715  aa  157 156 154 151   2222  	aci	"online_libraries.info           "
    023716  aa  156 145 137 154
    023717  aa  151 142 162 141
    023720  aa  162 151 145 163
    023721  aa  056 151 156 146
    023722  aa  157 040 040 040
    023723  aa  040 040 040 040
    023724  aa  040 040 040 040
    023725  aa  157 156 154 151   2223  	aci	"online_libraries                "
    023726  aa  156 145 137 154
    023727  aa  151 142 162 141
    023730  aa  162 151 145 163
    023731  aa  040 040 040 040
    023732  aa  040 040 040 040
    023733  aa  040 040 040 040
    023734  aa  040 040 040 040
    023735  aa  157 156 154 151   2224  	aci	"online.info                     "
    023736  aa  156 145 056 151
    023737  aa  156 146 157 040
    023740  aa  040 040 040 040
    023741  aa  040 040 040 040
    023742  aa  040 040 040 040
    023743  aa  040 040 040 040
    023744  aa  040 040 040 040
    023745  aa  157 156 154 151   2225  	aci	"online                          "
    023746  aa  156 145 040 040
    023747  aa  040 040 040 040
    023750  aa  040 040 040 040
    023751  aa  040 040 040 040
    023752  aa  040 040 040 040
    023753  aa  040 040 040 040
    023754  aa  040 040 040 040
    023755  aa  157 156 056 151   2226  	aci	"on.info                         "
    023756  aa  156 146 157 040
    023757  aa  040 040 040 040
    023760  aa  040 040 040 040
    023761  aa  040 040 040 040
    023762  aa  040 040 040 040
    023763  aa  040 040 040 040
    023764  aa  040 040 040 040
    023765  aa  157 156 040 040   2227  	aci	"on                              "
    023766  aa  040 040 040 040
    023767  aa  040 040 040 040
    023770  aa  040 040 040 040
    023771  aa  040 040 040 040
    023772  aa  040 040 040 040
    023773  aa  040 040 040 040
    023774  aa  040 040 040 040
    023775  aa  154 151 156 165   2228  	aci	"linus.info                      "
    023776  aa  163 056 151 156
    023777  aa  146 157 040 040
    024000  aa  040 040 040 040
    024001  aa  040 040 040 040
    024002  aa  040 040 040 040
    024003  aa  040 040 040 040
    024004  aa  040 040 040 040
    024005  aa  154 151 156 165   2229  	aci	"linus                           "
    024006  aa  163 040 040 040
    024007  aa  040 040 040 040
    024010  aa  040 040 040 040
    024011  aa  040 040 040 040
    024012  aa  040 040 040 040
    024013  aa  040 040 040 040
    024014  aa  040 040 040 040
    024015  aa  151 156 146 157   2230  	aci	"info                            "
    024016  aa  040 040 040 040
    024017  aa  040 040 040 040
    024020  aa  040 040 040 040
    024021  aa  040 040 040 040
    024022  aa  040 040 040 040
    024023  aa  040 040 040 040
    024024  aa  040 040 040 040
    024025  aa   000000 0110 03   2231  	even
    024026                        2232  .mail_system.info:
                                  2233  						" 1 root_names,
    024026  aa   000000 000025    2234  	dec	21				"   2 N,
                                  2235  						"   2 root_name (21);
    024027  aa  163 165 142 163   2236  	aci	"subsystem_library.info          "
    024030  aa  171 163 164 145
    024031  aa  155 137 154 151
    024032  aa  142 162 141 162
    024033  aa  171 056 151 156
    024034  aa  146 157 040 040
    024035  aa  040 040 040 040
    024036  aa  040 040 040 040
    024037  aa  163 165 142 163   2237  	aci	"subsystem_library               "
    024040  aa  171 163 164 145
    024041  aa  155 137 154 151
    024042  aa  142 162 141 162
    024043  aa  171 040 040 040
    024044  aa  040 040 040 040
    024045  aa  040 040 040 040
    024046  aa  040 040 040 040
    024047  aa  163 165 142 163   2238  	aci	"subsystem.info                  "
    024050  aa  171 163 164 145
    024051  aa  155 056 151 156
    024052  aa  146 157 040 040
    024053  aa  040 040 040 040
    024054  aa  040 040 040 040
    024055  aa  040 040 040 040
    024056  aa  040 040 040 040
    024057  aa  163 165 142 163   2239  	aci	"subsystem                       "
    024060  aa  171 163 164 145
    024061  aa  155 040 040 040
    024062  aa  040 040 040 040
    024063  aa  040 040 040 040
    024064  aa  040 040 040 040
    024065  aa  040 040 040 040
    024066  aa  040 040 040 040
    024067  aa  163 163 056 151   2240  	aci	"ss.info                         "
    024070  aa  156 146 157 040
    024071  aa  040 040 040 040
    024072  aa  040 040 040 040
    024073  aa  040 040 040 040
    024074  aa  040 040 040 040
    024075  aa  040 040 040 040
    024076  aa  040 040 040 040
    024077  aa  163 163 040 040   2241  	aci	"ss                              "
    024100  aa  040 040 040 040
    024101  aa  040 040 040 040
    024102  aa  040 040 040 040
    024103  aa  040 040 040 040
    024104  aa  040 040 040 040
    024105  aa  040 040 040 040
    024106  aa  040 040 040 040
    024107  aa  157 156 154 151   2242  	aci	"online_libraries.info           "
    024110  aa  156 145 137 154
    024111  aa  151 142 162 141
    024112  aa  162 151 145 163
    024113  aa  056 151 156 146
    024114  aa  157 040 040 040
    024115  aa  040 040 040 040
    024116  aa  040 040 040 040
    024117  aa  157 156 154 151   2243  	aci	"online_libraries                "
    024120  aa  156 145 137 154
    024121  aa  151 142 162 141
    024122  aa  162 151 145 163
    024123  aa  040 040 040 040
    024124  aa  040 040 040 040
    024125  aa  040 040 040 040
    024126  aa  040 040 040 040
    024127  aa  157 156 154 151   2244  	aci	"online.info                     "
    024130  aa  156 145 056 151
    024131  aa  156 146 157 040
    024132  aa  040 040 040 040
    024133  aa  040 040 040 040
    024134  aa  040 040 040 040
    024135  aa  040 040 040 040
    024136  aa  040 040 040 040
    024137  aa  157 156 154 151   2245  	aci	"online                          "
    024140  aa  156 145 040 040
    024141  aa  040 040 040 040
    024142  aa  040 040 040 040
    024143  aa  040 040 040 040
    024144  aa  040 040 040 040
    024145  aa  040 040 040 040
    024146  aa  040 040 040 040
    024147  aa  157 156 056 151   2246  	aci	"on.info                         "
    024150  aa  156 146 157 040
    024151  aa  040 040 040 040
    024152  aa  040 040 040 040
    024153  aa  040 040 040 040
    024154  aa  040 040 040 040
    024155  aa  040 040 040 040
    024156  aa  040 040 040 040
    024157  aa  157 156 040 040   2247  	aci	"on                              "
    024160  aa  040 040 040 040
    024161  aa  040 040 040 040
    024162  aa  040 040 040 040
    024163  aa  040 040 040 040
    024164  aa  040 040 040 040
    024165  aa  040 040 040 040
    024166  aa  040 040 040 040
    024167  aa  155 141 151 154   2248  	aci	"mail_system.info                "
    024170  aa  137 163 171 163
    024171  aa  164 145 155 056
    024172  aa  151 156 146 157
    024173  aa  040 040 040 040
    024174  aa  040 040 040 040
    024175  aa  040 040 040 040
    024176  aa  040 040 040 040
    024177  aa  155 141 151 154   2249  	aci	"mail_system                     "
    024200  aa  137 163 171 163
    024201  aa  164 145 155 040
    024202  aa  040 040 040 040
    024203  aa  040 040 040 040
    024204  aa  040 040 040 040
    024205  aa  040 040 040 040
    024206  aa  040 040 040 040
    024207  aa  155 154 163 171   2250  	aci	"mlsys.info                      "
    024210  aa  163 056 151 156
    024211  aa  146 157 040 040
    024212  aa  040 040 040 040
    024213  aa  040 040 040 040
    024214  aa  040 040 040 040
    024215  aa  040 040 040 040
    024216  aa  040 040 040 040
    024217  aa  155 154 163 171   2251  	aci	"mlsys                           "
    024220  aa  163 040 040 040
    024221  aa  040 040 040 040
    024222  aa  040 040 040 040
    024223  aa  040 040 040 040
    024224  aa  040 040 040 040
    024225  aa  040 040 040 040
    024226  aa  040 040 040 040
    024227  aa  162 145 141 144   2252  	aci	"read_mail.info                  "
    024230  aa  137 155 141 151
    024231  aa  154 056 151 156
    024232  aa  146 157 040 040
    024233  aa  040 040 040 040
    024234  aa  040 040 040 040
    024235  aa  040 040 040 040
    024236  aa  040 040 040 040
    024237  aa  162 145 141 144   2253  	aci	"read_mail                       "
    024240  aa  137 155 141 151
    024241  aa  154 040 040 040
    024242  aa  040 040 040 040
    024243  aa  040 040 040 040
    024244  aa  040 040 040 040
    024245  aa  040 040 040 040
    024246  aa  040 040 040 040
    024247  aa  162 144 155 056   2254  	aci	"rdm.info                        "
    024250  aa  151 156 146 157
    024251  aa  040 040 040 040
    024252  aa  040 040 040 040
    024253  aa  040 040 040 040
    024254  aa  040 040 040 040
    024255  aa  040 040 040 040
    024256  aa  040 040 040 040
    024257  aa  162 144 155 040   2255  	aci	"rdm                             "
    024260  aa  040 040 040 040
    024261  aa  040 040 040 040
    024262  aa  040 040 040 040
    024263  aa  040 040 040 040
    024264  aa  040 040 040 040
    024265  aa  040 040 040 040
    024266  aa  040 040 040 040
    024267  aa  151 156 146 157   2256  	aci	"info                            "
    024270  aa  040 040 040 040
    024271  aa  040 040 040 040
    024272  aa  040 040 040 040
    024273  aa  040 040 040 040
    024274  aa  040 040 040 040
    024275  aa  040 040 040 040
    024276  aa  040 040 040 040
    024277  aa   000000 0110 03   2257  	even
    024300                        2258  .mail_system:
                                  2259  						" 1 root_names,
    024300  aa   000000 000025    2260  	dec	21				"   2 N,
                                  2261  						"   2 root_name (21);
    024301  aa  163 165 142 163   2262  	aci	"subsystem_library.info          "
    024302  aa  171 163 164 145
    024303  aa  155 137 154 151
    024304  aa  142 162 141 162
    024305  aa  171 056 151 156
    024306  aa  146 157 040 040
    024307  aa  040 040 040 040
    024310  aa  040 040 040 040
    024311  aa  163 165 142 163   2263  	aci	"subsystem_library               "
    024312  aa  171 163 164 145
    024313  aa  155 137 154 151
    024314  aa  142 162 141 162
    024315  aa  171 040 040 040
    024316  aa  040 040 040 040
    024317  aa  040 040 040 040
    024320  aa  040 040 040 040
    024321  aa  163 165 142 163   2264  	aci	"subsystem.info                  "
    024322  aa  171 163 164 145
    024323  aa  155 056 151 156
    024324  aa  146 157 040 040
    024325  aa  040 040 040 040
    024326  aa  040 040 040 040
    024327  aa  040 040 040 040
    024330  aa  040 040 040 040
    024331  aa  163 165 142 163   2265  	aci	"subsystem                       "
    024332  aa  171 163 164 145
    024333  aa  155 040 040 040
    024334  aa  040 040 040 040
    024335  aa  040 040 040 040
    024336  aa  040 040 040 040
    024337  aa  040 040 040 040
    024340  aa  040 040 040 040
    024341  aa  163 163 056 151   2266  	aci	"ss.info                         "
    024342  aa  156 146 157 040
    024343  aa  040 040 040 040
    024344  aa  040 040 040 040
    024345  aa  040 040 040 040
    024346  aa  040 040 040 040
    024347  aa  040 040 040 040
    024350  aa  040 040 040 040
    024351  aa  163 163 040 040   2267  	aci	"ss                              "
    024352  aa  040 040 040 040
    024353  aa  040 040 040 040
    024354  aa  040 040 040 040
    024355  aa  040 040 040 040
    024356  aa  040 040 040 040
    024357  aa  040 040 040 040
    024360  aa  040 040 040 040
    024361  aa  157 156 154 151   2268  	aci	"online_libraries.info           "
    024362  aa  156 145 137 154
    024363  aa  151 142 162 141
    024364  aa  162 151 145 163
    024365  aa  056 151 156 146
    024366  aa  157 040 040 040
    024367  aa  040 040 040 040
    024370  aa  040 040 040 040
    024371  aa  157 156 154 151   2269  	aci	"online_libraries                "
    024372  aa  156 145 137 154
    024373  aa  151 142 162 141
    024374  aa  162 151 145 163
    024375  aa  040 040 040 040
    024376  aa  040 040 040 040
    024377  aa  040 040 040 040
    024400  aa  040 040 040 040
    024401  aa  157 156 154 151   2270  	aci	"online.info                     "
    024402  aa  156 145 056 151
    024403  aa  156 146 157 040
    024404  aa  040 040 040 040
    024405  aa  040 040 040 040
    024406  aa  040 040 040 040
    024407  aa  040 040 040 040
    024410  aa  040 040 040 040
    024411  aa  157 156 154 151   2271  	aci	"online                          "
    024412  aa  156 145 040 040
    024413  aa  040 040 040 040
    024414  aa  040 040 040 040
    024415  aa  040 040 040 040
    024416  aa  040 040 040 040
    024417  aa  040 040 040 040
    024420  aa  040 040 040 040
    024421  aa  157 156 056 151   2272  	aci	"on.info                         "
    024422  aa  156 146 157 040
    024423  aa  040 040 040 040
    024424  aa  040 040 040 040
    024425  aa  040 040 040 040
    024426  aa  040 040 040 040
    024427  aa  040 040 040 040
    024430  aa  040 040 040 040
    024431  aa  157 156 040 040   2273  	aci	"on                              "
    024432  aa  040 040 040 040
    024433  aa  040 040 040 040
    024434  aa  040 040 040 040
    024435  aa  040 040 040 040
    024436  aa  040 040 040 040
    024437  aa  040 040 040 040
    024440  aa  040 040 040 040
    024441  aa  155 141 151 154   2274  	aci	"mail_system.info                "
    024442  aa  137 163 171 163
    024443  aa  164 145 155 056
    024444  aa  151 156 146 157
    024445  aa  040 040 040 040
    024446  aa  040 040 040 040
    024447  aa  040 040 040 040
    024450  aa  040 040 040 040
    024451  aa  155 141 151 154   2275  	aci	"mail_system                     "
    024452  aa  137 163 171 163
    024453  aa  164 145 155 040
    024454  aa  040 040 040 040
    024455  aa  040 040 040 040
    024456  aa  040 040 040 040
    024457  aa  040 040 040 040
    024460  aa  040 040 040 040
    024461  aa  155 154 163 171   2276  	aci	"mlsys.info                      "
    024462  aa  163 056 151 156
    024463  aa  146 157 040 040
    024464  aa  040 040 040 040
    024465  aa  040 040 040 040
    024466  aa  040 040 040 040
    024467  aa  040 040 040 040
    024470  aa  040 040 040 040
    024471  aa  155 154 163 171   2277  	aci	"mlsys                           "
    024472  aa  163 040 040 040
    024473  aa  040 040 040 040
    024474  aa  040 040 040 040
    024475  aa  040 040 040 040
    024476  aa  040 040 040 040
    024477  aa  040 040 040 040
    024500  aa  040 040 040 040
    024501  aa  162 145 141 144   2278  	aci	"read_mail.info                  "
    024502  aa  137 155 141 151
    024503  aa  154 056 151 156
    024504  aa  146 157 040 040
    024505  aa  040 040 040 040
    024506  aa  040 040 040 040
    024507  aa  040 040 040 040
    024510  aa  040 040 040 040
    024511  aa  162 145 141 144   2279  	aci	"read_mail                       "
    024512  aa  137 155 141 151
    024513  aa  154 040 040 040
    024514  aa  040 040 040 040
    024515  aa  040 040 040 040
    024516  aa  040 040 040 040
    024517  aa  040 040 040 040
    024520  aa  040 040 040 040
    024521  aa  162 144 155 056   2280  	aci	"rdm.info                        "
    024522  aa  151 156 146 157
    024523  aa  040 040 040 040
    024524  aa  040 040 040 040
    024525  aa  040 040 040 040
    024526  aa  040 040 040 040
    024527  aa  040 040 040 040
    024530  aa  040 040 040 040
    024531  aa  162 144 155 040   2281  	aci	"rdm                             "
    024532  aa  040 040 040 040
    024533  aa  040 040 040 040
    024534  aa  040 040 040 040
    024535  aa  040 040 040 040
    024536  aa  040 040 040 040
    024537  aa  040 040 040 040
    024540  aa  040 040 040 040
    024541  aa  151 156 146 157   2282  	aci	"info                            "
    024542  aa  040 040 040 040
    024543  aa  040 040 040 040
    024544  aa  040 040 040 040
    024545  aa  040 040 040 040
    024546  aa  040 040 040 040
    024547  aa  040 040 040 040
    024550  aa  040 040 040 040
    024551  aa   000000 0110 03   2283  	even
    024552                        2284  .mlsys.info:
                                  2285  						" 1 root_names,
    024552  aa   000000 000025    2286  	dec	21				"   2 N,
                                  2287  						"   2 root_name (21);
    024553  aa  163 165 142 163   2288  	aci	"subsystem_library.info          "
    024554  aa  171 163 164 145
    024555  aa  155 137 154 151
    024556  aa  142 162 141 162
    024557  aa  171 056 151 156
    024560  aa  146 157 040 040
    024561  aa  040 040 040 040
    024562  aa  040 040 040 040
    024563  aa  163 165 142 163   2289  	aci	"subsystem_library               "
    024564  aa  171 163 164 145
    024565  aa  155 137 154 151
    024566  aa  142 162 141 162
    024567  aa  171 040 040 040
    024570  aa  040 040 040 040
    024571  aa  040 040 040 040
    024572  aa  040 040 040 040
    024573  aa  163 165 142 163   2290  	aci	"subsystem.info                  "
    024574  aa  171 163 164 145
    024575  aa  155 056 151 156
    024576  aa  146 157 040 040
    024577  aa  040 040 040 040
    024600  aa  040 040 040 040
    024601  aa  040 040 040 040
    024602  aa  040 040 040 040
    024603  aa  163 165 142 163   2291  	aci	"subsystem                       "
    024604  aa  171 163 164 145
    024605  aa  155 040 040 040
    024606  aa  040 040 040 040
    024607  aa  040 040 040 040
    024610  aa  040 040 040 040
    024611  aa  040 040 040 040
    024612  aa  040 040 040 040
    024613  aa  163 163 056 151   2292  	aci	"ss.info                         "
    024614  aa  156 146 157 040
    024615  aa  040 040 040 040
    024616  aa  040 040 040 040
    024617  aa  040 040 040 040
    024620  aa  040 040 040 040
    024621  aa  040 040 040 040
    024622  aa  040 040 040 040
    024623  aa  163 163 040 040   2293  	aci	"ss                              "
    024624  aa  040 040 040 040
    024625  aa  040 040 040 040
    024626  aa  040 040 040 040
    024627  aa  040 040 040 040
    024630  aa  040 040 040 040
    024631  aa  040 040 040 040
    024632  aa  040 040 040 040
    024633  aa  157 156 154 151   2294  	aci	"online_libraries.info           "
    024634  aa  156 145 137 154
    024635  aa  151 142 162 141
    024636  aa  162 151 145 163
    024637  aa  056 151 156 146
    024640  aa  157 040 040 040
    024641  aa  040 040 040 040
    024642  aa  040 040 040 040
    024643  aa  157 156 154 151   2295  	aci	"online_libraries                "
    024644  aa  156 145 137 154
    024645  aa  151 142 162 141
    024646  aa  162 151 145 163
    024647  aa  040 040 040 040
    024650  aa  040 040 040 040
    024651  aa  040 040 040 040
    024652  aa  040 040 040 040
    024653  aa  157 156 154 151   2296  	aci	"online.info                     "
    024654  aa  156 145 056 151
    024655  aa  156 146 157 040
    024656  aa  040 040 040 040
    024657  aa  040 040 040 040
    024660  aa  040 040 040 040
    024661  aa  040 040 040 040
    024662  aa  040 040 040 040
    024663  aa  157 156 154 151   2297  	aci	"online                          "
    024664  aa  156 145 040 040
    024665  aa  040 040 040 040
    024666  aa  040 040 040 040
    024667  aa  040 040 040 040
    024670  aa  040 040 040 040
    024671  aa  040 040 040 040
    024672  aa  040 040 040 040
    024673  aa  157 156 056 151   2298  	aci	"on.info                         "
    024674  aa  156 146 157 040
    024675  aa  040 040 040 040
    024676  aa  040 040 040 040
    024677  aa  040 040 040 040
    024700  aa  040 040 040 040
    024701  aa  040 040 040 040
    024702  aa  040 040 040 040
    024703  aa  157 156 040 040   2299  	aci	"on                              "
    024704  aa  040 040 040 040
    024705  aa  040 040 040 040
    024706  aa  040 040 040 040
    024707  aa  040 040 040 040
    024710  aa  040 040 040 040
    024711  aa  040 040 040 040
    024712  aa  040 040 040 040
    024713  aa  155 141 151 154   2300  	aci	"mail_system.info                "
    024714  aa  137 163 171 163
    024715  aa  164 145 155 056
    024716  aa  151 156 146 157
    024717  aa  040 040 040 040
    024720  aa  040 040 040 040
    024721  aa  040 040 040 040
    024722  aa  040 040 040 040
    024723  aa  155 141 151 154   2301  	aci	"mail_system                     "
    024724  aa  137 163 171 163
    024725  aa  164 145 155 040
    024726  aa  040 040 040 040
    024727  aa  040 040 040 040
    024730  aa  040 040 040 040
    024731  aa  040 040 040 040
    024732  aa  040 040 040 040
    024733  aa  155 154 163 171   2302  	aci	"mlsys.info                      "
    024734  aa  163 056 151 156
    024735  aa  146 157 040 040
    024736  aa  040 040 040 040
    024737  aa  040 040 040 040
    024740  aa  040 040 040 040
    024741  aa  040 040 040 040
    024742  aa  040 040 040 040
    024743  aa  155 154 163 171   2303  	aci	"mlsys                           "
    024744  aa  163 040 040 040
    024745  aa  040 040 040 040
    024746  aa  040 040 040 040
    024747  aa  040 040 040 040
    024750  aa  040 040 040 040
    024751  aa  040 040 040 040
    024752  aa  040 040 040 040
    024753  aa  163 145 156 144   2304  	aci	"send_mail.info                  "
    024754  aa  137 155 141 151
    024755  aa  154 056 151 156
    024756  aa  146 157 040 040
    024757  aa  040 040 040 040
    024760  aa  040 040 040 040
    024761  aa  040 040 040 040
    024762  aa  040 040 040 040
    024763  aa  163 145 156 144   2305  	aci	"send_mail                       "
    024764  aa  137 155 141 151
    024765  aa  154 040 040 040
    024766  aa  040 040 040 040
    024767  aa  040 040 040 040
    024770  aa  040 040 040 040
    024771  aa  040 040 040 040
    024772  aa  040 040 040 040
    024773  aa  163 144 155 056   2306  	aci	"sdm.info                        "
    024774  aa  151 156 146 157
    024775  aa  040 040 040 040
    024776  aa  040 040 040 040
    024777  aa  040 040 040 040
    025000  aa  040 040 040 040
    025001  aa  040 040 040 040
    025002  aa  040 040 040 040
    025003  aa  163 144 155 040   2307  	aci	"sdm                             "
    025004  aa  040 040 040 040
    025005  aa  040 040 040 040
    025006  aa  040 040 040 040
    025007  aa  040 040 040 040
    025010  aa  040 040 040 040
    025011  aa  040 040 040 040
    025012  aa  040 040 040 040
    025013  aa  151 156 146 157   2308  	aci	"info                            "
    025014  aa  040 040 040 040
    025015  aa  040 040 040 040
    025016  aa  040 040 040 040
    025017  aa  040 040 040 040
    025020  aa  040 040 040 040
    025021  aa  040 040 040 040
    025022  aa  040 040 040 040
    025023  aa   000000 0110 03   2309  	even
    025024                        2310  .mlsys:
                                  2311  						" 1 root_names,
    025024  aa   000000 000025    2312  	dec	21				"   2 N,
                                  2313  						"   2 root_name (21);
    025025  aa  163 165 142 163   2314  	aci	"subsystem_library.info          "
    025026  aa  171 163 164 145
    025027  aa  155 137 154 151
    025030  aa  142 162 141 162
    025031  aa  171 056 151 156
    025032  aa  146 157 040 040
    025033  aa  040 040 040 040
    025034  aa  040 040 040 040
    025035  aa  163 165 142 163   2315  	aci	"subsystem_library               "
    025036  aa  171 163 164 145
    025037  aa  155 137 154 151
    025040  aa  142 162 141 162
    025041  aa  171 040 040 040
    025042  aa  040 040 040 040
    025043  aa  040 040 040 040
    025044  aa  040 040 040 040
    025045  aa  163 165 142 163   2316  	aci	"subsystem.info                  "
    025046  aa  171 163 164 145
    025047  aa  155 056 151 156
    025050  aa  146 157 040 040
    025051  aa  040 040 040 040
    025052  aa  040 040 040 040
    025053  aa  040 040 040 040
    025054  aa  040 040 040 040
    025055  aa  163 165 142 163   2317  	aci	"subsystem                       "
    025056  aa  171 163 164 145
    025057  aa  155 040 040 040
    025060  aa  040 040 040 040
    025061  aa  040 040 040 040
    025062  aa  040 040 040 040
    025063  aa  040 040 040 040
    025064  aa  040 040 040 040
    025065  aa  163 163 056 151   2318  	aci	"ss.info                         "
    025066  aa  156 146 157 040
    025067  aa  040 040 040 040
    025070  aa  040 040 040 040
    025071  aa  040 040 040 040
    025072  aa  040 040 040 040
    025073  aa  040 040 040 040
    025074  aa  040 040 040 040
    025075  aa  163 163 040 040   2319  	aci	"ss                              "
    025076  aa  040 040 040 040
    025077  aa  040 040 040 040
    025100  aa  040 040 040 040
    025101  aa  040 040 040 040
    025102  aa  040 040 040 040
    025103  aa  040 040 040 040
    025104  aa  040 040 040 040
    025105  aa  157 156 154 151   2320  	aci	"online_libraries.info           "
    025106  aa  156 145 137 154
    025107  aa  151 142 162 141
    025110  aa  162 151 145 163
    025111  aa  056 151 156 146
    025112  aa  157 040 040 040
    025113  aa  040 040 040 040
    025114  aa  040 040 040 040
    025115  aa  157 156 154 151   2321  	aci	"online_libraries                "
    025116  aa  156 145 137 154
    025117  aa  151 142 162 141
    025120  aa  162 151 145 163
    025121  aa  040 040 040 040
    025122  aa  040 040 040 040
    025123  aa  040 040 040 040
    025124  aa  040 040 040 040
    025125  aa  157 156 154 151   2322  	aci	"online.info                     "
    025126  aa  156 145 056 151
    025127  aa  156 146 157 040
    025130  aa  040 040 040 040
    025131  aa  040 040 040 040
    025132  aa  040 040 040 040
    025133  aa  040 040 040 040
    025134  aa  040 040 040 040
    025135  aa  157 156 154 151   2323  	aci	"online                          "
    025136  aa  156 145 040 040
    025137  aa  040 040 040 040
    025140  aa  040 040 040 040
    025141  aa  040 040 040 040
    025142  aa  040 040 040 040
    025143  aa  040 040 040 040
    025144  aa  040 040 040 040
    025145  aa  157 156 056 151   2324  	aci	"on.info                         "
    025146  aa  156 146 157 040
    025147  aa  040 040 040 040
    025150  aa  040 040 040 040
    025151  aa  040 040 040 040
    025152  aa  040 040 040 040
    025153  aa  040 040 040 040
    025154  aa  040 040 040 040
    025155  aa  157 156 040 040   2325  	aci	"on                              "
    025156  aa  040 040 040 040
    025157  aa  040 040 040 040
    025160  aa  040 040 040 040
    025161  aa  040 040 040 040
    025162  aa  040 040 040 040
    025163  aa  040 040 040 040
    025164  aa  040 040 040 040
    025165  aa  155 141 151 154   2326  	aci	"mail_system.info                "
    025166  aa  137 163 171 163
    025167  aa  164 145 155 056
    025170  aa  151 156 146 157
    025171  aa  040 040 040 040
    025172  aa  040 040 040 040
    025173  aa  040 040 040 040
    025174  aa  040 040 040 040
    025175  aa  155 141 151 154   2327  	aci	"mail_system                     "
    025176  aa  137 163 171 163
    025177  aa  164 145 155 040
    025200  aa  040 040 040 040
    025201  aa  040 040 040 040
    025202  aa  040 040 040 040
    025203  aa  040 040 040 040
    025204  aa  040 040 040 040
    025205  aa  155 154 163 171   2328  	aci	"mlsys.info                      "
    025206  aa  163 056 151 156
    025207  aa  146 157 040 040
    025210  aa  040 040 040 040
    025211  aa  040 040 040 040
    025212  aa  040 040 040 040
    025213  aa  040 040 040 040
    025214  aa  040 040 040 040
    025215  aa  155 154 163 171   2329  	aci	"mlsys                           "
    025216  aa  163 040 040 040
    025217  aa  040 040 040 040
    025220  aa  040 040 040 040
    025221  aa  040 040 040 040
    025222  aa  040 040 040 040
    025223  aa  040 040 040 040
    025224  aa  040 040 040 040
    025225  aa  163 145 156 144   2330  	aci	"send_mail.info                  "
    025226  aa  137 155 141 151
    025227  aa  154 056 151 156
    025230  aa  146 157 040 040
    025231  aa  040 040 040 040
    025232  aa  040 040 040 040
    025233  aa  040 040 040 040
    025234  aa  040 040 040 040
    025235  aa  163 145 156 144   2331  	aci	"send_mail                       "
    025236  aa  137 155 141 151
    025237  aa  154 040 040 040
    025240  aa  040 040 040 040
    025241  aa  040 040 040 040
    025242  aa  040 040 040 040
    025243  aa  040 040 040 040
    025244  aa  040 040 040 040
    025245  aa  163 144 155 056   2332  	aci	"sdm.info                        "
    025246  aa  151 156 146 157
    025247  aa  040 040 040 040
    025250  aa  040 040 040 040
    025251  aa  040 040 040 040
    025252  aa  040 040 040 040
    025253  aa  040 040 040 040
    025254  aa  040 040 040 040
    025255  aa  163 144 155 040   2333  	aci	"sdm                             "
    025256  aa  040 040 040 040
    025257  aa  040 040 040 040
    025260  aa  040 040 040 040
    025261  aa  040 040 040 040
    025262  aa  040 040 040 040
    025263  aa  040 040 040 040
    025264  aa  040 040 040 040
    025265  aa  151 156 146 157   2334  	aci	"info                            "
    025266  aa  040 040 040 040
    025267  aa  040 040 040 040
    025270  aa  040 040 040 040
    025271  aa  040 040 040 040
    025272  aa  040 040 040 040
    025273  aa  040 040 040 040
    025274  aa  040 040 040 040
    025275  aa   000000 0110 03   2335  	even
    025276                        2336  .operator.info:
                                  2337  						" 1 root_names,
    025276  aa   000000 000021    2338  	dec	17				"   2 N,
                                  2339  						"   2 root_name (17);
    025277  aa  163 165 142 163   2340  	aci	"subsystem_library.info          "
    025300  aa  171 163 164 145
    025301  aa  155 137 154 151
    025302  aa  142 162 141 162
    025303  aa  171 056 151 156
    025304  aa  146 157 040 040
    025305  aa  040 040 040 040
    025306  aa  040 040 040 040
    025307  aa  163 165 142 163   2341  	aci	"subsystem_library               "
    025310  aa  171 163 164 145
    025311  aa  155 137 154 151
    025312  aa  142 162 141 162
    025313  aa  171 040 040 040
    025314  aa  040 040 040 040
    025315  aa  040 040 040 040
    025316  aa  040 040 040 040
    025317  aa  163 165 142 163   2342  	aci	"subsystem.info                  "
    025320  aa  171 163 164 145
    025321  aa  155 056 151 156
    025322  aa  146 157 040 040
    025323  aa  040 040 040 040
    025324  aa  040 040 040 040
    025325  aa  040 040 040 040
    025326  aa  040 040 040 040
    025327  aa  163 165 142 163   2343  	aci	"subsystem                       "
    025330  aa  171 163 164 145
    025331  aa  155 040 040 040
    025332  aa  040 040 040 040
    025333  aa  040 040 040 040
    025334  aa  040 040 040 040
    025335  aa  040 040 040 040
    025336  aa  040 040 040 040
    025337  aa  163 163 056 151   2344  	aci	"ss.info                         "
    025340  aa  156 146 157 040
    025341  aa  040 040 040 040
    025342  aa  040 040 040 040
    025343  aa  040 040 040 040
    025344  aa  040 040 040 040
    025345  aa  040 040 040 040
    025346  aa  040 040 040 040
    025347  aa  163 163 040 040   2345  	aci	"ss                              "
    025350  aa  040 040 040 040
    025351  aa  040 040 040 040
    025352  aa  040 040 040 040
    025353  aa  040 040 040 040
    025354  aa  040 040 040 040
    025355  aa  040 040 040 040
    025356  aa  040 040 040 040
    025357  aa  157 156 154 151   2346  	aci	"online_libraries.info           "
    025360  aa  156 145 137 154
    025361  aa  151 142 162 141
    025362  aa  162 151 145 163
    025363  aa  056 151 156 146
    025364  aa  157 040 040 040
    025365  aa  040 040 040 040
    025366  aa  040 040 040 040
    025367  aa  157 156 154 151   2347  	aci	"online_libraries                "
    025370  aa  156 145 137 154
    025371  aa  151 142 162 141
    025372  aa  162 151 145 163
    025373  aa  040 040 040 040
    025374  aa  040 040 040 040
    025375  aa  040 040 040 040
    025376  aa  040 040 040 040
    025377  aa  157 156 154 151   2348  	aci	"online.info                     "
    025400  aa  156 145 056 151
    025401  aa  156 146 157 040
    025402  aa  040 040 040 040
    025403  aa  040 040 040 040
    025404  aa  040 040 040 040
    025405  aa  040 040 040 040
    025406  aa  040 040 040 040
    025407  aa  157 156 154 151   2349  	aci	"online                          "
    025410  aa  156 145 040 040
    025411  aa  040 040 040 040
    025412  aa  040 040 040 040
    025413  aa  040 040 040 040
    025414  aa  040 040 040 040
    025415  aa  040 040 040 040
    025416  aa  040 040 040 040
    025417  aa  157 156 056 151   2350  	aci	"on.info                         "
    025420  aa  156 146 157 040
    025421  aa  040 040 040 040
    025422  aa  040 040 040 040
    025423  aa  040 040 040 040
    025424  aa  040 040 040 040
    025425  aa  040 040 040 040
    025426  aa  040 040 040 040
    025427  aa  157 156 040 040   2351  	aci	"on                              "
    025430  aa  040 040 040 040
    025431  aa  040 040 040 040
    025432  aa  040 040 040 040
    025433  aa  040 040 040 040
    025434  aa  040 040 040 040
    025435  aa  040 040 040 040
    025436  aa  040 040 040 040
    025437  aa  157 160 145 162   2352  	aci	"operator.info                   "
    025440  aa  141 164 157 162
    025441  aa  056 151 156 146
    025442  aa  157 040 040 040
    025443  aa  040 040 040 040
    025444  aa  040 040 040 040
    025445  aa  040 040 040 040
    025446  aa  040 040 040 040
    025447  aa  157 160 145 162   2353  	aci	"operator                        "
    025450  aa  141 164 157 162
    025451  aa  040 040 040 040
    025452  aa  040 040 040 040
    025453  aa  040 040 040 040
    025454  aa  040 040 040 040
    025455  aa  040 040 040 040
    025456  aa  040 040 040 040
    025457  aa  151 156 151 164   2354  	aci	"initializer.info                "
    025460  aa  151 141 154 151
    025461  aa  172 145 162 056
    025462  aa  151 156 146 157
    025463  aa  040 040 040 040
    025464  aa  040 040 040 040
    025465  aa  040 040 040 040
    025466  aa  040 040 040 040
    025467  aa  151 156 151 164   2355  	aci	"initializer                     "
    025470  aa  151 141 154 151
    025471  aa  172 145 162 040
    025472  aa  040 040 040 040
    025473  aa  040 040 040 040
    025474  aa  040 040 040 040
    025475  aa  040 040 040 040
    025476  aa  040 040 040 040
    025477  aa  151 156 146 157   2356  	aci	"info                            "
    025500  aa  040 040 040 040
    025501  aa  040 040 040 040
    025502  aa  040 040 040 040
    025503  aa  040 040 040 040
    025504  aa  040 040 040 040
    025505  aa  040 040 040 040
    025506  aa  040 040 040 040
    025507  aa   000000 0110 03   2357  	even
    025510                        2358  .r1_initializer.info:
                                  2359  						" 1 root_names,
    025510  aa   000000 000017    2360  	dec	15				"   2 N,
                                  2361  						"   2 root_name (15);
    025511  aa  163 165 142 163   2362  	aci	"subsystem_library.info          "
    025512  aa  171 163 164 145
    025513  aa  155 137 154 151
    025514  aa  142 162 141 162
    025515  aa  171 056 151 156
    025516  aa  146 157 040 040
    025517  aa  040 040 040 040
    025520  aa  040 040 040 040
    025521  aa  163 165 142 163   2363  	aci	"subsystem_library               "
    025522  aa  171 163 164 145
    025523  aa  155 137 154 151
    025524  aa  142 162 141 162
    025525  aa  171 040 040 040
    025526  aa  040 040 040 040
    025527  aa  040 040 040 040
    025530  aa  040 040 040 040
    025531  aa  163 165 142 163   2364  	aci	"subsystem.info                  "
    025532  aa  171 163 164 145
    025533  aa  155 056 151 156
    025534  aa  146 157 040 040
    025535  aa  040 040 040 040
    025536  aa  040 040 040 040
    025537  aa  040 040 040 040
    025540  aa  040 040 040 040
    025541  aa  163 165 142 163   2365  	aci	"subsystem                       "
    025542  aa  171 163 164 145
    025543  aa  155 040 040 040
    025544  aa  040 040 040 040
    025545  aa  040 040 040 040
    025546  aa  040 040 040 040
    025547  aa  040 040 040 040
    025550  aa  040 040 040 040
    025551  aa  163 163 056 151   2366  	aci	"ss.info                         "
    025552  aa  156 146 157 040
    025553  aa  040 040 040 040
    025554  aa  040 040 040 040
    025555  aa  040 040 040 040
    025556  aa  040 040 040 040
    025557  aa  040 040 040 040
    025560  aa  040 040 040 040
    025561  aa  163 163 040 040   2367  	aci	"ss                              "
    025562  aa  040 040 040 040
    025563  aa  040 040 040 040
    025564  aa  040 040 040 040
    025565  aa  040 040 040 040
    025566  aa  040 040 040 040
    025567  aa  040 040 040 040
    025570  aa  040 040 040 040
    025571  aa  157 156 154 151   2368  	aci	"online_libraries.info           "
    025572  aa  156 145 137 154
    025573  aa  151 142 162 141
    025574  aa  162 151 145 163
    025575  aa  056 151 156 146
    025576  aa  157 040 040 040
    025577  aa  040 040 040 040
    025600  aa  040 040 040 040
    025601  aa  157 156 154 151   2369  	aci	"online_libraries                "
    025602  aa  156 145 137 154
    025603  aa  151 142 162 141
    025604  aa  162 151 145 163
    025605  aa  040 040 040 040
    025606  aa  040 040 040 040
    025607  aa  040 040 040 040
    025610  aa  040 040 040 040
    025611  aa  157 156 154 151   2370  	aci	"online.info                     "
    025612  aa  156 145 056 151
    025613  aa  156 146 157 040
    025614  aa  040 040 040 040
    025615  aa  040 040 040 040
    025616  aa  040 040 040 040
    025617  aa  040 040 040 040
    025620  aa  040 040 040 040
    025621  aa  157 156 154 151   2371  	aci	"online                          "
    025622  aa  156 145 040 040
    025623  aa  040 040 040 040
    025624  aa  040 040 040 040
    025625  aa  040 040 040 040
    025626  aa  040 040 040 040
    025627  aa  040 040 040 040
    025630  aa  040 040 040 040
    025631  aa  157 156 056 151   2372  	aci	"on.info                         "
    025632  aa  156 146 157 040
    025633  aa  040 040 040 040
    025634  aa  040 040 040 040
    025635  aa  040 040 040 040
    025636  aa  040 040 040 040
    025637  aa  040 040 040 040
    025640  aa  040 040 040 040
    025641  aa  157 156 040 040   2373  	aci	"on                              "
    025642  aa  040 040 040 040
    025643  aa  040 040 040 040
    025644  aa  040 040 040 040
    025645  aa  040 040 040 040
    025646  aa  040 040 040 040
    025647  aa  040 040 040 040
    025650  aa  040 040 040 040
    025651  aa  162 061 137 151   2374  	aci	"r1_initializer.info             "
    025652  aa  156 151 164 151
    025653  aa  141 154 151 172
    025654  aa  145 162 056 151
    025655  aa  156 146 157 040
    025656  aa  040 040 040 040
    025657  aa  040 040 040 040
    025660  aa  040 040 040 040
    025661  aa  162 061 137 151   2375  	aci	"r1_initializer                  "
    025662  aa  156 151 164 151
    025663  aa  141 154 151 172
    025664  aa  145 162 040 040
    025665  aa  040 040 040 040
    025666  aa  040 040 040 040
    025667  aa  040 040 040 040
    025670  aa  040 040 040 040
    025671  aa  151 156 146 157   2376  	aci	"info                            "
    025672  aa  040 040 040 040
    025673  aa  040 040 040 040
    025674  aa  040 040 040 040
    025675  aa  040 040 040 040
    025676  aa  040 040 040 040
    025677  aa  040 040 040 040
    025700  aa  040 040 040 040
    025701  aa   000000 0110 03   2377  	even
    025702                        2378  .report_writer_.info:
                                  2379  						" 1 root_names,
    025702  aa   000000 000025    2380  	dec	21				"   2 N,
                                  2381  						"   2 root_name (21);
    025703  aa  163 165 142 163   2382  	aci	"subsystem_library.info          "
    025704  aa  171 163 164 145
    025705  aa  155 137 154 151
    025706  aa  142 162 141 162
    025707  aa  171 056 151 156
    025710  aa  146 157 040 040
    025711  aa  040 040 040 040
    025712  aa  040 040 040 040
    025713  aa  163 165 142 163   2383  	aci	"subsystem_library               "
    025714  aa  171 163 164 145
    025715  aa  155 137 154 151
    025716  aa  142 162 141 162
    025717  aa  171 040 040 040
    025720  aa  040 040 040 040
    025721  aa  040 040 040 040
    025722  aa  040 040 040 040
    025723  aa  163 165 142 163   2384  	aci	"subsystem.info                  "
    025724  aa  171 163 164 145
    025725  aa  155 056 151 156
    025726  aa  146 157 040 040
    025727  aa  040 040 040 040
    025730  aa  040 040 040 040
    025731  aa  040 040 040 040
    025732  aa  040 040 040 040
    025733  aa  163 165 142 163   2385  	aci	"subsystem                       "
    025734  aa  171 163 164 145
    025735  aa  155 040 040 040
    025736  aa  040 040 040 040
    025737  aa  040 040 040 040
    025740  aa  040 040 040 040
    025741  aa  040 040 040 040
    025742  aa  040 040 040 040
    025743  aa  163 163 056 151   2386  	aci	"ss.info                         "
    025744  aa  156 146 157 040
    025745  aa  040 040 040 040
    025746  aa  040 040 040 040
    025747  aa  040 040 040 040
    025750  aa  040 040 040 040
    025751  aa  040 040 040 040
    025752  aa  040 040 040 040
    025753  aa  163 163 040 040   2387  	aci	"ss                              "
    025754  aa  040 040 040 040
    025755  aa  040 040 040 040
    025756  aa  040 040 040 040
    025757  aa  040 040 040 040
    025760  aa  040 040 040 040
    025761  aa  040 040 040 040
    025762  aa  040 040 040 040
    025763  aa  157 156 154 151   2388  	aci	"online_libraries.info           "
    025764  aa  156 145 137 154
    025765  aa  151 142 162 141
    025766  aa  162 151 145 163
    025767  aa  056 151 156 146
    025770  aa  157 040 040 040
    025771  aa  040 040 040 040
    025772  aa  040 040 040 040
    025773  aa  157 156 154 151   2389  	aci	"online_libraries                "
    025774  aa  156 145 137 154
    025775  aa  151 142 162 141
    025776  aa  162 151 145 163
    025777  aa  040 040 040 040
    026000  aa  040 040 040 040
    026001  aa  040 040 040 040
    026002  aa  040 040 040 040
    026003  aa  157 156 154 151   2390  	aci	"online.info                     "
    026004  aa  156 145 056 151
    026005  aa  156 146 157 040
    026006  aa  040 040 040 040
    026007  aa  040 040 040 040
    026010  aa  040 040 040 040
    026011  aa  040 040 040 040
    026012  aa  040 040 040 040
    026013  aa  157 156 154 151   2391  	aci	"online                          "
    026014  aa  156 145 040 040
    026015  aa  040 040 040 040
    026016  aa  040 040 040 040
    026017  aa  040 040 040 040
    026020  aa  040 040 040 040
    026021  aa  040 040 040 040
    026022  aa  040 040 040 040
    026023  aa  157 156 056 151   2392  	aci	"on.info                         "
    026024  aa  156 146 157 040
    026025  aa  040 040 040 040
    026026  aa  040 040 040 040
    026027  aa  040 040 040 040
    026030  aa  040 040 040 040
    026031  aa  040 040 040 040
    026032  aa  040 040 040 040
    026033  aa  157 156 040 040   2393  	aci	"on                              "
    026034  aa  040 040 040 040
    026035  aa  040 040 040 040
    026036  aa  040 040 040 040
    026037  aa  040 040 040 040
    026040  aa  040 040 040 040
    026041  aa  040 040 040 040
    026042  aa  040 040 040 040
    026043  aa  162 145 160 157   2394  	aci	"report_writer_.info             "
    026044  aa  162 164 137 167
    026045  aa  162 151 164 145
    026046  aa  162 137 056 151
    026047  aa  156 146 157 040
    026050  aa  040 040 040 040
    026051  aa  040 040 040 040
    026052  aa  040 040 040 040
    026053  aa  162 145 160 157   2395  	aci	"report_writer_                  "
    026054  aa  162 164 137 167
    026055  aa  162 151 164 145
    026056  aa  162 137 040 040
    026057  aa  040 040 040 040
    026060  aa  040 040 040 040
    026061  aa  040 040 040 040
    026062  aa  040 040 040 040
    026063  aa  162 167 137 056   2396  	aci	"rw_.info                        "
    026064  aa  151 156 146 157
    026065  aa  040 040 040 040
    026066  aa  040 040 040 040
    026067  aa  040 040 040 040
    026070  aa  040 040 040 040
    026071  aa  040 040 040 040
    026072  aa  040 040 040 040
    026073  aa  162 167 137 040   2397  	aci	"rw_                             "
    026074  aa  040 040 040 040
    026075  aa  040 040 040 040
    026076  aa  040 040 040 040
    026077  aa  040 040 040 040
    026100  aa  040 040 040 040
    026101  aa  040 040 040 040
    026102  aa  040 040 040 040
    026103  aa  162 145 160 157   2398  	aci	"report_writer.info              "
    026104  aa  162 164 137 167
    026105  aa  162 151 164 145
    026106  aa  162 056 151 156
    026107  aa  146 157 040 040
    026110  aa  040 040 040 040
    026111  aa  040 040 040 040
    026112  aa  040 040 040 040
    026113  aa  162 145 160 157   2399  	aci	"report_writer                   "
    026114  aa  162 164 137 167
    026115  aa  162 151 164 145
    026116  aa  162 040 040 040
    026117  aa  040 040 040 040
    026120  aa  040 040 040 040
    026121  aa  040 040 040 040
    026122  aa  040 040 040 040
    026123  aa  162 167 056 151   2400  	aci	"rw.info                         "
    026124  aa  156 146 157 040
    026125  aa  040 040 040 040
    026126  aa  040 040 040 040
    026127  aa  040 040 040 040
    026130  aa  040 040 040 040
    026131  aa  040 040 040 040
    026132  aa  040 040 040 040
    026133  aa  162 167 040 040   2401  	aci	"rw                              "
    026134  aa  040 040 040 040
    026135  aa  040 040 040 040
    026136  aa  040 040 040 040
    026137  aa  040 040 040 040
    026140  aa  040 040 040 040
    026141  aa  040 040 040 040
    026142  aa  040 040 040 040
    026143  aa  151 156 146 157   2402  	aci	"info                            "
    026144  aa  040 040 040 040
    026145  aa  040 040 040 040
    026146  aa  040 040 040 040
    026147  aa  040 040 040 040
    026150  aa  040 040 040 040
    026151  aa  040 040 040 040
    026152  aa  040 040 040 040
    026153  aa   000000 0110 03   2403  	even
    026154                        2404  .restructure_mrds_db.info:
                                  2405  						" 1 root_names,
    026154  aa   000000 000021    2406  	dec	17				"   2 N,
                                  2407  						"   2 root_name (17);
    026155  aa  163 165 142 163   2408  	aci	"subsystem_library.info          "
    026156  aa  171 163 164 145
    026157  aa  155 137 154 151
    026160  aa  142 162 141 162
    026161  aa  171 056 151 156
    026162  aa  146 157 040 040
    026163  aa  040 040 040 040
    026164  aa  040 040 040 040
    026165  aa  163 165 142 163   2409  	aci	"subsystem_library               "
    026166  aa  171 163 164 145
    026167  aa  155 137 154 151
    026170  aa  142 162 141 162
    026171  aa  171 040 040 040
    026172  aa  040 040 040 040
    026173  aa  040 040 040 040
    026174  aa  040 040 040 040
    026175  aa  163 165 142 163   2410  	aci	"subsystem.info                  "
    026176  aa  171 163 164 145
    026177  aa  155 056 151 156
    026200  aa  146 157 040 040
    026201  aa  040 040 040 040
    026202  aa  040 040 040 040
    026203  aa  040 040 040 040
    026204  aa  040 040 040 040
    026205  aa  163 165 142 163   2411  	aci	"subsystem                       "
    026206  aa  171 163 164 145
    026207  aa  155 040 040 040
    026210  aa  040 040 040 040
    026211  aa  040 040 040 040
    026212  aa  040 040 040 040
    026213  aa  040 040 040 040
    026214  aa  040 040 040 040
    026215  aa  163 163 056 151   2412  	aci	"ss.info                         "
    026216  aa  156 146 157 040
    026217  aa  040 040 040 040
    026220  aa  040 040 040 040
    026221  aa  040 040 040 040
    026222  aa  040 040 040 040
    026223  aa  040 040 040 040
    026224  aa  040 040 040 040
    026225  aa  163 163 040 040   2413  	aci	"ss                              "
    026226  aa  040 040 040 040
    026227  aa  040 040 040 040
    026230  aa  040 040 040 040
    026231  aa  040 040 040 040
    026232  aa  040 040 040 040
    026233  aa  040 040 040 040
    026234  aa  040 040 040 040
    026235  aa  157 156 154 151   2414  	aci	"online_libraries.info           "
    026236  aa  156 145 137 154
    026237  aa  151 142 162 141
    026240  aa  162 151 145 163
    026241  aa  056 151 156 146
    026242  aa  157 040 040 040
    026243  aa  040 040 040 040
    026244  aa  040 040 040 040
    026245  aa  157 156 154 151   2415  	aci	"online_libraries                "
    026246  aa  156 145 137 154
    026247  aa  151 142 162 141
    026250  aa  162 151 145 163
    026251  aa  040 040 040 040
    026252  aa  040 040 040 040
    026253  aa  040 040 040 040
    026254  aa  040 040 040 040
    026255  aa  157 156 154 151   2416  	aci	"online.info                     "
    026256  aa  156 145 056 151
    026257  aa  156 146 157 040
    026260  aa  040 040 040 040
    026261  aa  040 040 040 040
    026262  aa  040 040 040 040
    026263  aa  040 040 040 040
    026264  aa  040 040 040 040
    026265  aa  157 156 154 151   2417  	aci	"online                          "
    026266  aa  156 145 040 040
    026267  aa  040 040 040 040
    026270  aa  040 040 040 040
    026271  aa  040 040 040 040
    026272  aa  040 040 040 040
    026273  aa  040 040 040 040
    026274  aa  040 040 040 040
    026275  aa  157 156 056 151   2418  	aci	"on.info                         "
    026276  aa  156 146 157 040
    026277  aa  040 040 040 040
    026300  aa  040 040 040 040
    026301  aa  040 040 040 040
    026302  aa  040 040 040 040
    026303  aa  040 040 040 040
    026304  aa  040 040 040 040
    026305  aa  157 156 040 040   2419  	aci	"on                              "
    026306  aa  040 040 040 040
    026307  aa  040 040 040 040
    026310  aa  040 040 040 040
    026311  aa  040 040 040 040
    026312  aa  040 040 040 040
    026313  aa  040 040 040 040
    026314  aa  040 040 040 040
    026315  aa  162 145 163 164   2420  	aci	"restructure_mrds_db.info        "
    026316  aa  162 165 143 164
    026317  aa  165 162 145 137
    026320  aa  155 162 144 163
    026321  aa  137 144 142 056
    026322  aa  151 156 146 157
    026323  aa  040 040 040 040
    026324  aa  040 040 040 040
    026325  aa  162 145 163 164   2421  	aci	"restructure_mrds_db             "
    026326  aa  162 165 143 164
    026327  aa  165 162 145 137
    026330  aa  155 162 144 163
    026331  aa  137 144 142 040
    026332  aa  040 040 040 040
    026333  aa  040 040 040 040
    026334  aa  040 040 040 040
    026335  aa  162 155 144 142   2422  	aci	"rmdb.info                       "
    026336  aa  056 151 156 146
    026337  aa  157 040 040 040
    026340  aa  040 040 040 040
    026341  aa  040 040 040 040
    026342  aa  040 040 040 040
    026343  aa  040 040 040 040
    026344  aa  040 040 040 040
    026345  aa  162 155 144 142   2423  	aci	"rmdb                            "
    026346  aa  040 040 040 040
    026347  aa  040 040 040 040
    026350  aa  040 040 040 040
    026351  aa  040 040 040 040
    026352  aa  040 040 040 040
    026353  aa  040 040 040 040
    026354  aa  040 040 040 040
    026355  aa  151 156 146 157   2424  	aci	"info                            "
    026356  aa  040 040 040 040
    026357  aa  040 040 040 040
    026360  aa  040 040 040 040
    026361  aa  040 040 040 040
    026362  aa  040 040 040 040
    026363  aa  040 040 040 040
    026364  aa  040 040 040 040
    026365  aa   000000 0110 03   2425  	even
    026366                        2426  .ssu_.info:
                                  2427  						" 1 root_names,
    026366  aa   000000 000021    2428  	dec	17				"   2 N,
                                  2429  						"   2 root_name (17);
    026367  aa  163 165 142 163   2430  	aci	"subsystem_library.info          "
    026370  aa  171 163 164 145
    026371  aa  155 137 154 151
    026372  aa  142 162 141 162
    026373  aa  171 056 151 156
    026374  aa  146 157 040 040
    026375  aa  040 040 040 040
    026376  aa  040 040 040 040
    026377  aa  163 165 142 163   2431  	aci	"subsystem_library               "
    026400  aa  171 163 164 145
    026401  aa  155 137 154 151
    026402  aa  142 162 141 162
    026403  aa  171 040 040 040
    026404  aa  040 040 040 040
    026405  aa  040 040 040 040
    026406  aa  040 040 040 040
    026407  aa  163 165 142 163   2432  	aci	"subsystem.info                  "
    026410  aa  171 163 164 145
    026411  aa  155 056 151 156
    026412  aa  146 157 040 040
    026413  aa  040 040 040 040
    026414  aa  040 040 040 040
    026415  aa  040 040 040 040
    026416  aa  040 040 040 040
    026417  aa  163 165 142 163   2433  	aci	"subsystem                       "
    026420  aa  171 163 164 145
    026421  aa  155 040 040 040
    026422  aa  040 040 040 040
    026423  aa  040 040 040 040
    026424  aa  040 040 040 040
    026425  aa  040 040 040 040
    026426  aa  040 040 040 040
    026427  aa  163 163 056 151   2434  	aci	"ss.info                         "
    026430  aa  156 146 157 040
    026431  aa  040 040 040 040
    026432  aa  040 040 040 040
    026433  aa  040 040 040 040
    026434  aa  040 040 040 040
    026435  aa  040 040 040 040
    026436  aa  040 040 040 040
    026437  aa  163 163 040 040   2435  	aci	"ss                              "
    026440  aa  040 040 040 040
    026441  aa  040 040 040 040
    026442  aa  040 040 040 040
    026443  aa  040 040 040 040
    026444  aa  040 040 040 040
    026445  aa  040 040 040 040
    026446  aa  040 040 040 040
    026447  aa  157 156 154 151   2436  	aci	"online_libraries.info           "
    026450  aa  156 145 137 154
    026451  aa  151 142 162 141
    026452  aa  162 151 145 163
    026453  aa  056 151 156 146
    026454  aa  157 040 040 040
    026455  aa  040 040 040 040
    026456  aa  040 040 040 040
    026457  aa  157 156 154 151   2437  	aci	"online_libraries                "
    026460  aa  156 145 137 154
    026461  aa  151 142 162 141
    026462  aa  162 151 145 163
    026463  aa  040 040 040 040
    026464  aa  040 040 040 040
    026465  aa  040 040 040 040
    026466  aa  040 040 040 040
    026467  aa  157 156 154 151   2438  	aci	"online.info                     "
    026470  aa  156 145 056 151
    026471  aa  156 146 157 040
    026472  aa  040 040 040 040
    026473  aa  040 040 040 040
    026474  aa  040 040 040 040
    026475  aa  040 040 040 040
    026476  aa  040 040 040 040
    026477  aa  157 156 154 151   2439  	aci	"online                          "
    026500  aa  156 145 040 040
    026501  aa  040 040 040 040
    026502  aa  040 040 040 040
    026503  aa  040 040 040 040
    026504  aa  040 040 040 040
    026505  aa  040 040 040 040
    026506  aa  040 040 040 040
    026507  aa  157 156 056 151   2440  	aci	"on.info                         "
    026510  aa  156 146 157 040
    026511  aa  040 040 040 040
    026512  aa  040 040 040 040
    026513  aa  040 040 040 040
    026514  aa  040 040 040 040
    026515  aa  040 040 040 040
    026516  aa  040 040 040 040
    026517  aa  157 156 040 040   2441  	aci	"on                              "
    026520  aa  040 040 040 040
    026521  aa  040 040 040 040
    026522  aa  040 040 040 040
    026523  aa  040 040 040 040
    026524  aa  040 040 040 040
    026525  aa  040 040 040 040
    026526  aa  040 040 040 040
    026527  aa  163 163 165 137   2442  	aci	"ssu_.info                       "
    026530  aa  056 151 156 146
    026531  aa  157 040 040 040
    026532  aa  040 040 040 040
    026533  aa  040 040 040 040
    026534  aa  040 040 040 040
    026535  aa  040 040 040 040
    026536  aa  040 040 040 040
    026537  aa  163 163 165 137   2443  	aci	"ssu_                            "
    026540  aa  040 040 040 040
    026541  aa  040 040 040 040
    026542  aa  040 040 040 040
    026543  aa  040 040 040 040
    026544  aa  040 040 040 040
    026545  aa  040 040 040 040
    026546  aa  040 040 040 040
    026547  aa  163 163 165 056   2444  	aci	"ssu.info                        "
    026550  aa  151 156 146 157
    026551  aa  040 040 040 040
    026552  aa  040 040 040 040
    026553  aa  040 040 040 040
    026554  aa  040 040 040 040
    026555  aa  040 040 040 040
    026556  aa  040 040 040 040
    026557  aa  163 163 165 040   2445  	aci	"ssu                             "
    026560  aa  040 040 040 040
    026561  aa  040 040 040 040
    026562  aa  040 040 040 040
    026563  aa  040 040 040 040
    026564  aa  040 040 040 040
    026565  aa  040 040 040 040
    026566  aa  040 040 040 040
    026567  aa  151 156 146 157   2446  	aci	"info                            "
    026570  aa  040 040 040 040
    026571  aa  040 040 040 040
    026572  aa  040 040 040 040
    026573  aa  040 040 040 040
    026574  aa  040 040 040 040
    026575  aa  040 040 040 040
    026576  aa  040 040 040 040
    026577  aa   000000 0110 03   2447  	even
    026600                        2448  .user_library.info:
                                  2449  						" 1 root_names,
    026600  aa   000000 000027    2450  	dec	23				"   2 N,
                                  2451  						"   2 root_name (23);
    026601  aa  165 163 145 162   2452  	aci	"user_library.info               "
    026602  aa  137 154 151 142
    026603  aa  162 141 162 171
    026604  aa  056 151 156 146
    026605  aa  157 040 040 040
    026606  aa  040 040 040 040
    026607  aa  040 040 040 040
    026610  aa  040 040 040 040
    026611  aa  165 163 145 162   2453  	aci	"user_library                    "
    026612  aa  137 154 151 142
    026613  aa  162 141 162 171
    026614  aa  040 040 040 040
    026615  aa  040 040 040 040
    026616  aa  040 040 040 040
    026617  aa  040 040 040 040
    026620  aa  040 040 040 040
    026621  aa  165 163 145 162   2454  	aci	"user.info                       "
    026622  aa  056 151 156 146
    026623  aa  157 040 040 040
    026624  aa  040 040 040 040
    026625  aa  040 040 040 040
    026626  aa  040 040 040 040
    026627  aa  040 040 040 040
    026630  aa  040 040 040 040
    026631  aa  165 163 145 162   2455  	aci	"user                            "
    026632  aa  040 040 040 040
    026633  aa  040 040 040 040
    026634  aa  040 040 040 040
    026635  aa  040 040 040 040
    026636  aa  040 040 040 040
    026637  aa  040 040 040 040
    026640  aa  040 040 040 040
    026641  aa  141 165 164 150   2456  	aci	"auth_maint.info                 "
    026642  aa  137 155 141 151
    026643  aa  156 164 056 151
    026644  aa  156 146 157 040
    026645  aa  040 040 040 040
    026646  aa  040 040 040 040
    026647  aa  040 040 040 040
    026650  aa  040 040 040 040
    026651  aa  141 165 164 150   2457  	aci	"auth_maint                      "
    026652  aa  137 155 141 151
    026653  aa  156 164 040 040
    026654  aa  040 040 040 040
    026655  aa  040 040 040 040
    026656  aa  040 040 040 040
    026657  aa  040 040 040 040
    026660  aa  040 040 040 040
    026661  aa  141 155 056 151   2458  	aci	"am.info                         "
    026662  aa  156 146 157 040
    026663  aa  040 040 040 040
    026664  aa  040 040 040 040
    026665  aa  040 040 040 040
    026666  aa  040 040 040 040
    026667  aa  040 040 040 040
    026670  aa  040 040 040 040
    026671  aa  141 155 040 040   2459  	aci	"am                              "
    026672  aa  040 040 040 040
    026673  aa  040 040 040 040
    026674  aa  040 040 040 040
    026675  aa  040 040 040 040
    026676  aa  040 040 040 040
    026677  aa  040 040 040 040
    026700  aa  040 040 040 040
    026701  aa  151 156 163 164   2460  	aci	"installation_library.info       "
    026702  aa  141 154 154 141
    026703  aa  164 151 157 156
    026704  aa  137 154 151 142
    026705  aa  162 141 162 171
    026706  aa  056 151 156 146
    026707  aa  157 040 040 040
    026710  aa  040 040 040 040
    026711  aa  151 156 163 164   2461  	aci	"installation_library            "
    026712  aa  141 154 154 141
    026713  aa  164 151 157 156
    026714  aa  137 154 151 142
    026715  aa  162 141 162 171
    026716  aa  040 040 040 040
    026717  aa  040 040 040 040
    026720  aa  040 040 040 040
    026721  aa  151 156 163 164   2462  	aci	"inst.info                       "
    026722  aa  056 151 156 146
    026723  aa  157 040 040 040
    026724  aa  040 040 040 040
    026725  aa  040 040 040 040
    026726  aa  040 040 040 040
    026727  aa  040 040 040 040
    026730  aa  040 040 040 040
    026731  aa  151 156 163 164   2463  	aci	"inst                            "
    026732  aa  040 040 040 040
    026733  aa  040 040 040 040
    026734  aa  040 040 040 040
    026735  aa  040 040 040 040
    026736  aa  040 040 040 040
    026737  aa  040 040 040 040
    026740  aa  040 040 040 040
    026741  aa  151 156 163 164   2464  	aci	"install_maint.info              "
    026742  aa  141 154 154 137
    026743  aa  155 141 151 156
    026744  aa  164 056 151 156
    026745  aa  146 157 040 040
    026746  aa  040 040 040 040
    026747  aa  040 040 040 040
    026750  aa  040 040 040 040
    026751  aa  151 156 163 164   2465  	aci	"install_maint                   "
    026752  aa  141 154 154 137
    026753  aa  155 141 151 156
    026754  aa  164 040 040 040
    026755  aa  040 040 040 040
    026756  aa  040 040 040 040
    026757  aa  040 040 040 040
    026760  aa  040 040 040 040
    026761  aa  151 155 154 056   2466  	aci	"iml.info                        "
    026762  aa  151 156 146 157
    026763  aa  040 040 040 040
    026764  aa  040 040 040 040
    026765  aa  040 040 040 040
    026766  aa  040 040 040 040
    026767  aa  040 040 040 040
    026770  aa  040 040 040 040
    026771  aa  151 155 154 040   2467  	aci	"iml                             "
    026772  aa  040 040 040 040
    026773  aa  040 040 040 040
    026774  aa  040 040 040 040
    026775  aa  040 040 040 040
    026776  aa  040 040 040 040
    026777  aa  040 040 040 040
    027000  aa  040 040 040 040
    027001  aa  157 156 154 151   2468  	aci	"online_libraries.info           "
    027002  aa  156 145 137 154
    027003  aa  151 142 162 141
    027004  aa  162 151 145 163
    027005  aa  056 151 156 146
    027006  aa  157 040 040 040
    027007  aa  040 040 040 040
    027010  aa  040 040 040 040
    027011  aa  157 156 154 151   2469  	aci	"online_libraries                "
    027012  aa  156 145 137 154
    027013  aa  151 142 162 141
    027014  aa  162 151 145 163
    027015  aa  040 040 040 040
    027016  aa  040 040 040 040
    027017  aa  040 040 040 040
    027020  aa  040 040 040 040
    027021  aa  157 156 154 151   2470  	aci	"online.info                     "
    027022  aa  156 145 056 151
    027023  aa  156 146 157 040
    027024  aa  040 040 040 040
    027025  aa  040 040 040 040
    027026  aa  040 040 040 040
    027027  aa  040 040 040 040
    027030  aa  040 040 040 040
    027031  aa  157 156 154 151   2471  	aci	"online                          "
    027032  aa  156 145 040 040
    027033  aa  040 040 040 040
    027034  aa  040 040 040 040
    027035  aa  040 040 040 040
    027036  aa  040 040 040 040
    027037  aa  040 040 040 040
    027040  aa  040 040 040 040
    027041  aa  157 156 056 151   2472  	aci	"on.info                         "
    027042  aa  156 146 157 040
    027043  aa  040 040 040 040
    027044  aa  040 040 040 040
    027045  aa  040 040 040 040
    027046  aa  040 040 040 040
    027047  aa  040 040 040 040
    027050  aa  040 040 040 040
    027051  aa  157 156 040 040   2473  	aci	"on                              "
    027052  aa  040 040 040 040
    027053  aa  040 040 040 040
    027054  aa  040 040 040 040
    027055  aa  040 040 040 040
    027056  aa  040 040 040 040
    027057  aa  040 040 040 040
    027060  aa  040 040 040 040
    027061  aa  151 156 146 157   2474  	aci	"info                            "
    027062  aa  040 040 040 040
    027063  aa  040 040 040 040
    027064  aa  040 040 040 040
    027065  aa  040 040 040 040
    027066  aa  040 040 040 040
    027067  aa  040 040 040 040
    027070  aa  040 040 040 040
                                  2475  						" 
    027071  aa   000000 0110 03   2476  	even
    027072                        2477  search_procs:					" search procedure transfer vector
    027072  aa   000000 000000    2478  	dec	0
    027073  aa   000000 000000    2479  	dec	0
    027074  aa  7 00046 2721 20   2480  	getlp					"		/* (1) */
    027075  4a  4 00010 7101 20   2481  	tra	<multics_library_search_>|[source_dirs]
    027076  aa  7 00046 2721 20   2482  	getlp					"		/* (2) */
    027077  4a  4 00012 7101 20   2483  	tra	<multics_library_search_>|[object_dirs]
    027100  aa  7 00046 2721 20   2484  	getlp					"		/* (3) */
    027101  4a  4 00014 7101 20   2485  	tra	<multics_library_search_>|[list_info_dirs]
    027102  aa  7 00046 2721 20   2486  	getlp					"		/* (4) */
    027103  4a  4 00016 7101 20   2487  	tra	<multics_library_search_>|[execution_dirs]
                                  2488
                                  2489  	end

NO LITERALS

NAME DEFINITIONS FOR ENTRY POINTS AND SEGDEFS

    027104  5a   000003 000000
    027105  5a   000030 600000
    027106  aa   000000 000000
    027107  55   000013 000002
    027110  5a   000002 400003
    027111  55   000006 000013
    027112  aa  022 155 165 154
    027113  aa  164 151 143 163
    027114  aa  137 154 151 142
    027115  aa  162 141 162 151
    027116  aa  145 163 137 000
    027117  55   000021 000003
    027120  0a   000000 400000
    027121  55   000016 000003
    027122  aa  012 144 145 163         descriptor
    027123  aa  143 162 151 160
    027124  aa  164 157 162 000
    027125  55   000002 000013
    027126  6a   000000 400002
    027127  55   000024 000003
    027130  aa  014 163 171 155         symbol_table
    027131  aa  142 157 154 137
    027132  aa  164 141 142 154
    027133  aa  145 000 000 000

DEFINITIONS HASH TABLE

    027134  aa   000000 000015
    027135  aa   000000 000000
    027136  aa   000000 000000
    027137  5a   000013 000000
    027140  aa   000000 000000
    027141  aa   000000 000000
    027142  aa   000000 000000
    027143  5a   000021 000000
    027144  aa   000000 000000
    027145  aa   000000 000000
    027146  aa   000000 000000
    027147  aa   000000 000000
    027150  aa   000000 000000
    027151  aa   000000 000000

EXTERNAL NAMES

    027152  aa  016 145 170 145         execution_dirs
    027153  aa  143 165 164 151
    027154  aa  157 156 137 144
    027155  aa  151 162 163 000
    027156  aa  016 154 151 163         list_info_dirs
    027157  aa  164 137 151 156
    027160  aa  146 157 137 144
    027161  aa  151 162 163 000
    027162  aa  013 157 142 152         object_dirs
    027163  aa  145 143 164 137
    027164  aa  144 151 162 163
    027165  aa  013 163 157 165         source_dirs
    027166  aa  162 143 145 137
    027167  aa  144 151 162 163
    027170  aa  027 155 165 154         multics_library_search_
    027171  aa  164 151 143 163
    027172  aa  137 154 151 142
    027173  aa  162 141 162 171
    027174  aa  137 163 145 141
    027175  aa  162 143 150 137

NO TRAP POINTER WORDS

TYPE PAIR BLOCKS

    027176  aa   000004 000000
    027177  55   000064 000046
    027200  aa   000004 000000
    027201  55   000064 000052
    027202  aa   000004 000000
    027203  55   000064 000056
    027204  aa   000004 000000
    027205  55   000064 000061
    027206  aa   000001 000000
    027207  aa   000000 000000

INTERNAL EXPRESSION WORDS

    027210  5a   000072 000000
    027211  5a   000074 000000
    027212  5a   000076 000000
    027213  5a   000100 000000
LINKAGE INFORMATION

    000000  aa   000000 000000
    000001  0a   027104 000000
    000002  aa   000000 000000
    000003  aa   000000 000000
    000004  aa   000000 000000
    000005  aa   000000 000000
    000006  22   000010 000020
    000007  a2   000000 000000
    000010  9a   777770 0000 46         multics_library_search_|source_dirs
    000011  5a   000107 0000 00
    000012  9a   777766 0000 46         multics_library_search_|object_dirs
    000013  5a   000106 0000 00
    000014  9a   777764 0000 46         multics_library_search_|list_info_dirs
    000015  5a   000105 0000 00
    000016  9a   777762 0000 46         multics_library_search_|execution_dirs
    000017  5a   000104 0000 00
SYMBOL INFORMATION

SYMBOL TABLE HEADER

    000000  aa   000000 000001
    000001  aa   163171 155142
    000002  aa   164162 145145
    000003  aa   000000 000007
    000004  aa   000000 115030
    000005  aa   273207 326355
    000006  aa   000000 115112
    000007  aa   543637 520626
    000010  aa   141154 155040
    000011  aa   040040 040040
    000012  aa   000024 000040
    000013  aa   000034 000040
    000014  aa   000044 000100
    000015  aa   000002 000002
    000016  aa   000064 000000
    000017  aa   000000 001366
    000020  aa   000000 000105
    000021  aa   001346 001341
    000022  aa   001360 000105
    000023  aa   000064 000000
    000024  aa   101114 115040
    000025  aa   126145 162163
    000026  aa   151157 156040
    000027  aa   067056 063040
    000030  aa   116157 166145
    000031  aa   155142 145162
    000032  aa   040061 071070
    000033  aa   066040 040040
    000034  aa   107112 157150
    000035  aa   156163 157156
    000036  aa   056123 171163
    000037  aa   115141 151156
    000040  aa   164056 141040
    000041  aa   040040 040040
    000042  aa   040040 040040
    000043  aa   040040 040040
    000044  aa   055164 141162
    000045  aa   147145 164040
    000046  aa   154066 070040
    000047  aa   040040 040040
    000050  aa   040040 040040
    000051  aa   040040 040040
    000052  aa   040040 040040
    000053  aa   040040 040040
    000054  aa   040040 040040
    000055  aa   040040 040040
    000056  aa   040154 151163
    000057  aa   164040 163171
    000060  aa   155142 157154
    000061  aa   163040 040040
    000062  aa   040040 040040
    000063  aa   040040 040040
    000064  aa   000000 000001
    000065  aa   000000 000001
    000066  aa   000072 000051
    000067  aa   151124 655704
    000070  aa   000000 115112
    000071  aa   543640 200000
    000072  aa   076163 160145          >spec>install>1257>multics_libraries_.alm
    000073  aa   143076 151156
    000074  aa   163164 141154
    000075  aa   154076 061062
    000076  aa   065067 076155
    000077  aa   165154 164151
    000100  aa   143163 137154
    000101  aa   151142 162141
    000102  aa   162151 145163
    000103  aa   137056 141154
    000104  aa   155040 040040
               MULTICS ASSEMBLY CROSS REFERENCE LISTING

   Value        Symbol                   Source file   Line number

       23442    .kermit.info             multics_libraries_:       964, 2192.
       23634    .linus.info              multics_libraries_:       985, 2212.
       24300    .mail_system             multics_libraries_:      1027, 2258.
       24026    .mail_system.info        multics_libraries_:      1006, 2232.
       15062    .mcs.i                   multics_libraries_:       541, 1683.
       15254    .mcs.listings            multics_libraries_:       560, 1703.
       14570    .mcs.object              multics_libraries_:       522, 1655.
       14276    .mcs.source              multics_libraries_:       503, 1627.
       25024    .mlsys                   multics_libraries_:      1069, 2310.
       24552    .mlsys.info              multics_libraries_:      1048, 2284.
       16002    .obsolete_library.execution    multics_libraries_:       617, 1760.
       15570    .obsolete_library.object       multics_libraries_:       598, 1738.
       15356    .obsolete_library.source       multics_libraries_:       579, 1716.
       23250    .on                      multics_libraries_:       943, 2172.
       23056    .on.info                 multics_libraries_:       922, 2152.
       22664    .online                  multics_libraries_:       901, 2132.
       22452    .online.info             multics_libraries_:       880, 2110.
       22240    .online_libraries        multics_libraries_:       859, 2088.
       22046    .online_libraries.info   multics_libraries_:       838, 2068.
       25276    .operator.info           multics_libraries_:      1090, 2336.
       20040    .privileged.info         multics_libraries_:       691, 1906.
       25510    .r1_initializer.info     multics_libraries_:      1111, 2358.
       25702    .report_writer_.info     multics_libraries_:      1132, 2378.
       26154    .restructure_mrds_db.info      multics_libraries_:      1153, 2404.
       21654    .ss                      multics_libraries_:       817, 2048.
       21462    .ss.info                 multics_libraries_:       796, 2028.
       26366    .ssu_.info               multics_libraries_:      1174, 2426.
        7760    .standard_library.execution    multics_libraries_:       213, 1274.
       16214    .standard_library.include      multics_libraries_:       643, 1782.
       17306    .standard_library.info   multics_libraries_:       668, 1858.
        7666    .standard_library.listings     multics_libraries_:       193, 1262.
        7424    .standard_library.object       multics_libraries_:       174, 1237.
        7162    .standard_library.source       multics_libraries_:       155, 1212.
       21250    .subsystem               multics_libraries_:       775, 2006.
       21056    .subsystem.info          multics_libraries_:       754, 1986.
       20644    .subsystem_library       multics_libraries_:       733, 1964.
       20452    .subsystem_library.info  multics_libraries_:       712, 1944.
       12666    .supervisor_library.execution  multics_libraries_:       424, 1511.
       14064    .supervisor_library.i    multics_libraries_:       484, 1605.
       13752    .supervisor_library.listings   multics_libraries_:       464, 1591.
       13430    .supervisor_library.object     multics_libraries_:       444, 1560.
       12344    .supervisor_library.source     multics_libraries_:       404, 1480.
       12102    .tools_library.execution       multics_libraries_:       384, 1455.
       12010    .tools_library.listings  multics_libraries_:       365, 1443.
       11546    .tools_library.object    multics_libraries_:       346, 1418.
       11304    .tools_library.source    multics_libraries_:       327, 1393.
       11010    .unb.listings            multics_libraries_:       289, 1360.
       11072    .unbundled_library.execution   multics_libraries_:       308, 1371.
       10726    .unbundled_library.listings    multics_libraries_:       270, 1349.
       10514    .unbundled_library.object      multics_libraries_:       251, 1327.
       10302    .unbundled_library.source      multics_libraries_:       232, 1305.
       26600    .user_library.info       multics_libraries_:      1195, 2448.
          14    command_default_values   multics_libraries_:        20,   25.
           0    descriptor               multics_libraries_:        14,   16.
                execution_dirs           multics_libraries_:      2487.
          34    library_names_1          multics_libraries_:        31,   60.
          60    library_names_2          multics_libraries_:        37,   70.
         114    library_names_3          multics_libraries_:        43,   82.
         126    library_names_4          multics_libraries_:        49,   90.
         152    library_names_5          multics_libraries_:        55,  100.
                list_info_dirs           multics_libraries_:      2485.
                multics_library_search_  multics_libraries_:      2481, 2483, 2485, 2487.
                object_dirs              multics_libraries_:      2483.
         240    roots                    multics_libraries_:        22,  148.
         176    search_names_1           multics_libraries_:        33,  111.
         200    search_names_2           multics_libraries_:        39,  117.
         212    search_names_3           multics_libraries_:        45,  125.
         224    search_names_4           multics_libraries_:        51,  133.
         226    search_names_5           multics_libraries_:        57,  139.
       27072    search_procs             multics_libraries_:       168,  187,  206,  226,  245,  264,  283,  302,  321,  340,
                                                                   359,  378,  397,  417,  437,  457,  477,  497,  516,  535,
                                                                   554,  573,  592,  611,  630,  656,  681,  704,  725,  746,
                                                                   767,  788,  809,  830,  851,  872,  893,  914,  935,  956,
                                                                   977,  998, 1019, 1040, 1061, 1082, 1103, 1124, 1145, 1166,
                                                                  1187, 1208, 2477.
                source_dirs              multics_libraries_:      2481.


NO FATAL ERRORS


                                          -----------------------------------------------------------


Historical Background

This edition of the Multics software materials and documentation is provided and donated
to Massachusetts Institute of Technology by Group BULL including BULL HN Information Systems Inc.
as a contribution to computer science knowledge.
This donation is made also to give evidence of the common contributions of Massachusetts Institute of Technology,
Bell Laboratories, General Electric, Honeywell Information Systems Inc., Honeywell BULL Inc., Groupe BULL
and BULL HN Information Systems Inc. to the development of this operating system.
Multics development was initiated by Massachusetts Institute of Technology Project MAC (1963-1970),
renamed the MIT Laboratory for Computer Science and Artificial Intelligence in the mid 1970s, under the leadership
of Professor Fernando Jose Corbato. Users consider that Multics provided the best software architecture
for managing computer hardware properly and for executing programs. Many subsequent operating systems
incorporated Multics principles.
Multics was distributed in 1975 to 2000 by Group Bull in Europe , and in the U.S. by Bull HN Information Systems Inc.,
as successor in interest by change in name only to Honeywell Bull Inc. and Honeywell Information Systems Inc. .

                                          -----------------------------------------------------------

Permission to use, copy, modify, and distribute these programs and their documentation for any purpose and without
fee is hereby granted,provided that the below copyright notice and historical background appear in all copies
and that both the copyright notice and historical background and this permission notice appear in supporting
documentation, and that the names of MIT, HIS, BULL or BULL HN not be used in advertising or publicity pertaining
to distribution of the programs without specific prior written permission.
    Copyright 1972 by Massachusetts Institute of Technology and Honeywell Information Systems Inc.
    Copyright 2006 by BULL HN Information Systems Inc.
    Copyright 2006 by Bull SAS
    All Rights Reserved
