ASSEMBLY LISTING OF SEGMENT >spec>on>6978-10/22/84>mvn.alm
ASSEMBLED ON:	10/22/84  1114.5 mst Mon
OPTIONS USED:	list
ASSEMBLED BY:	ALM Version  6.6  November 1982
ASSEMBLER CREATED:	09/21/83  1227.3 mst Wed

                                     1  "  ******************************************************
                                     2  "  *                                                    *
                                     3  "  *                                                    *
                                     4  "  * Copyright (c) 1972 by Massachusetts Institute of   *
                                     5  "  * Technology and Honeywell Information Systems, Inc. *
                                     6  "  *                                                    *
                                     7  "  *                                                    *
                                     8  "  ******************************************************
                                     9
                                    10  "  ******************************************************
                                    11  "  *                                                    *
                                    12  "  *                                                    *
                                    13  "  *    Copyright, (C) Honeywell Information Systems    *
                                    14  "  *    Inc., 1980.                                     *
                                    15  "  *                                                    *
                                    16  "  *                                                    *
                                    17  "  ******************************************************
                                    18
    000000                          19  	name	mvn
                        000000      20  	entry	mvn
                                    21  	temp	OU_MISC
                                    22  	temp	CMPC_MISC
                                    23
    000000  aa   000060 6270 00     24  mvn:	push
    000001  aa  7 00040 2721 20
    000002  aa  0 00002 3521 20     25  	eppbp	ap|2,*
    000003  aa  2 00000 3521 20     26  	eppbp	bp|0,*
    000004  aa   002000 0520 03     27  	adwpbp	1024,du
    000005  aa  6 00050 4501 00     28  	stz	OU_MISC
    000006  aa  6 00051 4501 00     29  	stz	CMPC_MISC
    000007  aa   000300 3004 00     30  	mvn	(),(pr),round
    000010  0a   000046 000031      31  	desc9fl	a,25
    000011  aa   200000 000027      32  	desc9fl	bp|0,23
                                    33
    000012  aa   000100 1064 00     34  	cmpc	(),(pr)
    000013  0a   000056 000027      35  	desc9a	answer,23
    000014  aa   200000 000027      36  	desc9a	bp|0,23
                                    37
    000015  0a   000026 6010 00     38  	tnz	cmpc_misc
                                    39
    000016                          40  ou_check:
    000016  aa   000000 6200 00     41  	eax0	0
    000017  aa  2 00000 2371 10     42  LOOP:	ldaq	bp|0,x0
    000020  0a   000056 1170 10     43  	cmpaq	answer,x0
    000021  0a   000030 6010 00     44  	tnz	ou_misc
    000022  aa   000002 6200 10     45  	eax0	2,x0
    000023  aa   000006 1000 03     46  	cmpx0	6,du
    000024  0a   000031 6000 00     47  	tze	validate
    000025  0a   000017 7100 00     48  	tra	LOOP
    000026                          49  cmpc_misc:
    000026  aa  6 00051 0541 00     50  	aos	CMPC_MISC
    000027  0a   000016 7100 00     51  	tra	ou_check		"validate cmpc operation
                                    52
    000030  aa  6 00050 0541 00     53  ou_misc:	aos	OU_MISC
                                    54
    000031                          55  validate:
    000031  aa  6 00050 2211 00     56  	ldx1	OU_MISC
    000032  aa  6 00051 1011 00     57  	cmpx1	CMPC_MISC
    000033  0a   000040 6000 00     58  	tze	tst_mvn
    000034  aa  6 00050 2341 00     59  	szn	OU_MISC
    000035  0a   000043 6000 00     60  	tze	cmpc_failed
    000036  aa  6 00050 2341 00     61  	szn	OU_MISC
    000037  0a   000044 6010 00     62  	tnz	cmpc_mvn_failed
    000040  aa  6 00050 2341 00     63  tst_mvn:	szn	OU_MISC
    000041  0a   000045 6010 00     64  	tnz	mvn_failed
    000042  aa  7 00042 7101 20     65  	return
                                    66
    000043                          67  cmpc_failed:
    000043  aa   000000 0070 00     68  	mme4
                                    69
    000044                          70  cmpc_mvn_failed:
    000044  aa   000000 0010 00     71  	mme1
                                    72
    000045                          73  mvn_failed:
    000045  aa   000000 0020 00     74  	drl
                                    75
    000046  aa  053 060 065 062     76  a:	aci	"+05242880000000000000000"
    000047  aa  064 062 070 070
    000050  aa  060 060 060 060
    000051  aa  060 060 060 060
    000052  aa  060 060 060 060
    000053  aa  060 060 060 060
    000054  aa   360000 000000      77  	oct	360000000000
    000055  aa   000000 0110 03     78  	even
    000056  aa  053 065 062 064     79  answer:	aci	"+5242880000000000000"
    000057  aa  062 070 070 060
    000060  aa  060 060 060 060
    000061  aa  060 060 060 060
    000062  aa  060 060 060 060
    000063  aa   060060 361000      80  	oct	060060361000
    000064  aa   000000 000000      81  	oct	0
                                    82  	end
ENTRY SEQUENCES

    000065  5a   000007 0000 00
    000066  aa  7 00046 2721 20
    000067  0a   000000 7100 00

NO LITERALS

NAME DEFINITIONS FOR ENTRY POINTS AND SEGDEFS

    000070  5a   000003 000000
    000071  5a   000022 600000
    000072  aa   000000 000000
    000073  55   000007 000002
    000074  5a   000002 400003
    000075  55   000006 000007
    000076  aa  003 155 166 156
    000077  55   000013 000003
    000100  0a   000066 500000
    000101  55   000012 000003
    000102  aa  003 155 166 156         mvn
    000103  55   000002 000007
    000104  6a   000000 400002
    000105  55   000016 000003
    000106  aa  014 163 171 155         symbol_table
    000107  aa  142 157 154 137
    000110  aa  164 141 142 154
    000111  aa  145 000 000 000

DEFINITIONS HASH TABLE

    000112  aa   000000 000015
    000113  aa   000000 000000
    000114  aa   000000 000000
    000115  aa   000000 000000
    000116  aa   000000 000000
    000117  5a   000007 000000
    000120  aa   000000 000000
    000121  5a   000013 000000
    000122  aa   000000 000000
    000123  aa   000000 000000
    000124  aa   000000 000000
    000125  aa   000000 000000
    000126  aa   000000 000000
    000127  aa   000000 000000

NO EXTERNAL NAMES

NO TRAP POINTER WORDS

TYPE PAIR BLOCKS

    000130  aa   000001 000000
    000131  aa   000000 000000

INTERNAL EXPRESSION WORDS

LINKAGE INFORMATION

    000000  aa   000000 000000
    000001  0a   000070 000000
    000002  aa   000000 000000
    000003  aa   000000 000000
    000004  aa   000000 000000
    000005  aa   000000 000000
    000006  22   000010 000010
    000007  a2   000000 000000
SYMBOL INFORMATION

SYMBOL TABLE HEADER

    000000  aa   000000 000001
    000001  aa   163171 155142
    000002  aa   164162 145145
    000003  aa   000000 000004
    000004  aa   000000 112143
    000005  aa   305203 523135
    000006  aa   000000 113126
    000007  aa   355466 672606
    000010  aa   141154 155040
    000011  aa   040040 040040
    000012  aa   000024 000040
    000013  aa   000034 000040
    000014  aa   000044 000100
    000015  aa   000002 000002
    000016  aa   000064 000000
    000017  aa   000000 000122
    000020  aa   000000 000102
    000021  aa   000000 000111
    000022  aa   000114 000102
    000023  aa   000064 000000
    000024  aa   101114 115040
    000025  aa   126145 162163
    000026  aa   151157 156040
    000027  aa   040066 056066
    000030  aa   040040 116157
    000031  aa   166145 155142
    000032  aa   145162 040061
    000033  aa   071070 062040
    000034  aa   107112 157150
    000035  aa   156163 157156
    000036  aa   056123 171163
    000037  aa   115141 151156
    000040  aa   164056 155040
    000041  aa   040040 040040
    000042  aa   040040 040040
    000043  aa   040040 040040
    000044  aa   154151 163164
    000045  aa   040040 040040
    000046  aa   040040 040040
    000047  aa   040040 040040
    000050  aa   040040 040040
    000051  aa   040040 040040
    000052  aa   040040 040040
    000053  aa   040040 040040
    000054  aa   040040 040040
    000055  aa   040040 040040
    000056  aa   040040 040040
    000057  aa   040040 040040
    000060  aa   040040 040040
    000061  aa   040040 040040
    000062  aa   040040 040040
    000063  aa   040040 040040
    000064  aa   000000 000001
    000065  aa   000000 000001
    000066  aa   000072 000036
    000067  aa   131232 072511
    000070  aa   000000 113126
    000071  aa   347524 200000
    000072  aa   076163 160145          >spec>on>6978-10/22/84>mvn.alm
    000073  aa   143076 157156
    000074  aa   076066 071067
    000075  aa   070055 061060
    000076  aa   057062 062057
    000077  aa   070064 076155
    000100  aa   166156 056141
    000101  aa   154155 040040
               MULTICS ASSEMBLY CROSS REFERENCE LISTING

   Value        Symbol                   Source file   Line number

          46    a                        mvn:           31,   76.
          56    answer                   mvn:           35,   43,   79.
          43    cmpc_failed              mvn:           60,   67.
          51    CMPC_MISC                mvn:           22,   29,   50,   57.
          26    cmpc_misc                mvn:           38,   49.
          44    cmpc_mvn_failed          mvn:           62,   70.
          17    LOOP                     mvn:           42,   48.
           0    mvn                      mvn:           20,   24.
          45    mvn_failed               mvn:           64,   73.
          16    ou_check                 mvn:           40,   51.
          50    OU_MISC                  mvn:           21,   28,   53,   56,   59,   61,   63.
          30    ou_misc                  mvn:           44,   53.
          40    tst_mvn                  mvn:           58,   63.
          31    validate                 mvn:           47,   55.


NO FATAL ERRORS


                                          -----------------------------------------------------------


Historical Background

This edition of the Multics software materials and documentation is provided and donated
to Massachusetts Institute of Technology by Group BULL including BULL HN Information Systems Inc.
as a contribution to computer science knowledge.
This donation is made also to give evidence of the common contributions of Massachusetts Institute of Technology,
Bell Laboratories, General Electric, Honeywell Information Systems Inc., Honeywell BULL Inc., Groupe BULL
and BULL HN Information Systems Inc. to the development of this operating system.
Multics development was initiated by Massachusetts Institute of Technology Project MAC (1963-1970),
renamed the MIT Laboratory for Computer Science and Artificial Intelligence in the mid 1970s, under the leadership
of Professor Fernando Jose Corbato. Users consider that Multics provided the best software architecture
for managing computer hardware properly and for executing programs. Many subsequent operating systems
incorporated Multics principles.
Multics was distributed in 1975 to 2000 by Group Bull in Europe , and in the U.S. by Bull HN Information Systems Inc.,
as successor in interest by change in name only to Honeywell Bull Inc. and Honeywell Information Systems Inc. .

                                          -----------------------------------------------------------

Permission to use, copy, modify, and distribute these programs and their documentation for any purpose and without
fee is hereby granted,provided that the below copyright notice and historical background appear in all copies
and that both the copyright notice and historical background and this permission notice appear in supporting
documentation, and that the names of MIT, HIS, BULL or BULL HN not be used in advertising or publicity pertaining
to distribution of the programs without specific prior written permission.
    Copyright 1972 by Massachusetts Institute of Technology and Honeywell Information Systems Inc.
    Copyright 2006 by BULL HN Information Systems Inc.
    Copyright 2006 by Bull SAS
    All Rights Reserved
