ASSEMBLY LISTING OF SEGMENT >spec>install>1044>nothing.alm
ASSEMBLED ON:	10/17/90  0815.2 mdt Wed
OPTIONS USED:	-target l68                              list symbols
ASSEMBLED BY:	ALM Version 8.14 March 1989
ASSEMBLER CREATED:	06/09/89  1102.3 mdt Fri

                                     1  " ***********************************************************
                                     2  " *                                                         *
                                     3  " * Copyright, (C) BULL HN Information Systems Inc., 1990   *
                                     4  " *                                                         *
                                     5  " * Copyright, (C) Honeywell Information Systems Inc., 1982 *
                                     6  " *                                                         *
                                     7  " * Copyright (c) 1972 by Massachusetts Institute of        *
                                     8  " * Technology and Honeywell Information Systems, Inc.      *
                                     9  " *                                                         *
                                    10  " ***********************************************************
                                    11
                                    12
                                    13
                                    14
                                    15  " HISTORY COMMENTS:
                                    16  "  1) change(90-09-20,Bubric), approve(90-10-01,MCR8211),
                                    17  "     audit(90-10-01,Itani), install(90-10-17,MR12.4-1044):
                                    18  "     Add the entry point 'null_entry_'
                                    19  "                                                      END HISTORY COMMENTS
                                    20
                                    21
                                    22
                                    23  "
                                    24  "	NOTHING -- command to return, and do nothing.
                                    25  "
                                    26  "	Re-coded from the pl1, for efficiency, 06/12/80 W. Olin Sibert
                                    27  "
                                    28
                        000000      29  	segdef	nothing
                        000000      30  	segdef	nt
                        000000      31            segdef    null_entry_
                        000000      32  	segdef	main_			" for fortran refname hack
                                    33
    000000                          34  	name	nothing
                                    35
    000000                          36  nothing:
    000000                          37  nt:
    000000                          38  null_entry_:
    000000                          39  main_:
    000000  aa  7 00044 7101 20     40  	short_return
                                    41
                                    42  	end

NO LITERALS

NAME DEFINITIONS FOR ENTRY POINTS AND SEGDEFS

    000002  5a   000003 000000
    000003  5a   000043 600000
    000004  aa   000000 000000
    000005  55   000010 000002
    000006  5a   000002 400003
    000007  55   000006 000010
    000010  aa  007 156 157 164
    000011  aa  150 151 156 147
    000012  55   000015 000003
    000013  0a   000000 400000
    000014  55   000013 000003
    000015  aa  005 155 141 151         main_
    000016  aa  156 137 000 000
    000017  55   000023 000010
    000020  0a   000000 400000
    000021  55   000020 000003
    000022  aa  013 156 165 154         null_entry_
    000023  aa  154 137 145 156
    000024  aa  164 162 171 137
    000025  55   000027 000015
    000026  0a   000000 400000
    000027  55   000026 000003
    000030  aa  002 156 164 000         nt
    000031  55   000034 000023
    000032  0a   000000 400000
    000033  55   000032 000003
    000034  aa  007 156 157 164         nothing
    000035  aa  150 151 156 147
    000036  55   000002 000027
    000037  6a   000000 400002
    000040  55   000037 000003
    000041  aa  014 163 171 155         symbol_table
    000042  aa  142 157 154 137
    000043  aa  164 141 142 154
    000044  aa  145 000 000 000

DEFINITIONS HASH TABLE

    000045  aa   000000 000015
    000046  aa   000000 000000
    000047  5a   000010 000000
    000050  aa   000000 000000
    000051  aa   000000 000000
    000052  aa   000000 000000
    000053  5a   000023 000000
    000054  5a   000027 000000
    000055  5a   000034 000000
    000056  5a   000015 000000
    000057  aa   000000 000000
    000060  aa   000000 000000
    000061  aa   000000 000000
    000062  aa   000000 000000

NO EXTERNAL NAMES

NO TRAP POINTER WORDS

TYPE PAIR BLOCKS

    000063  aa   000001 000000
    000064  aa   000000 000000

INTERNAL EXPRESSION WORDS

    000065  aa   000000 000000
LINKAGE INFORMATION

    000000  aa   000000 000000
    000001  0a   000002 000000
    000002  aa   000000 000000
    000003  aa   000000 000000
    000004  aa   000000 000000
    000005  aa   000000 000000
    000006  22   000010 000010
    000007  a2   000000 000000
SYMBOL INFORMATION

SYMBOL TABLE HEADER

    000000  aa   000000 000001
    000001  aa   163171 155142
    000002  aa   164162 145145
    000003  aa   000000 000010
    000004  aa   000000 117244
    000005  aa   361023 525721
    000006  aa   000000 120422
    000007  aa   534625 266316
    000010  aa   141154 155040
    000011  aa   040040 040040
    000012  aa   000024 000040
    000013  aa   000034 000040
    000014  aa   000044 000100
    000015  aa   000002 000002
    000016  aa   000064 000000
    000017  aa   000000 000127
    000020  aa   000000 000102
    000021  aa   000110 000105
    000022  aa   000121 000102
    000023  aa   000064 000000
    000024  aa   101114 115040
    000025  aa   126145 162163
    000026  aa   151157 156040
    000027  aa   070056 061064
    000030  aa   040115 141162
    000031  aa   143150 040061
    000032  aa   071070 071040
    000033  aa   040040 040040
    000034  aa   106165 144147
    000035  aa   145056 123171
    000036  aa   163115 141151
    000037  aa   156164 056141
    000040  aa   040040 040040
    000041  aa   040040 040040
    000042  aa   040040 040040
    000043  aa   040040 040040
    000044  aa   055164 141162
    000045  aa   147145 164040
    000046  aa   154066 070040
    000047  aa   040040 040040
    000050  aa   040040 040040
    000051  aa   040040 040040
    000052  aa   040040 040040
    000053  aa   040040 040040
    000054  aa   040040 040040
    000055  aa   040040 040040
    000056  aa   040154 151163
    000057  aa   164040 163171
    000060  aa   155142 157154
    000061  aa   163040 040040
    000062  aa   040040 040040
    000063  aa   040040 040040
    000064  aa   000000 000001
    000065  aa   000000 000001
    000066  aa   000072 000036
    000067  aa   204220 426525
    000070  aa   000000 120422
    000071  aa   534626 000000
    000072  aa   076163 160145          >spec>install>1044>nothing.alm
    000073  aa   143076 151156
    000074  aa   163164 141154
    000075  aa   154076 061060
    000076  aa   064064 076156
    000077  aa   157164 150151
    000100  aa   156147 056141
    000101  aa   154155 040040
               MULTICS ASSEMBLY CROSS REFERENCE LISTING

   Value        Symbol                   Source file   Line number

           0    main_                    nothing:       32,   39.
           0    nothing                  nothing:       29,   36.
           0    nt                       nothing:       30,   37.
           0    null_entry_              nothing:       31,   38.


NO FATAL ERRORS


                                          -----------------------------------------------------------


Historical Background

This edition of the Multics software materials and documentation is provided and donated
to Massachusetts Institute of Technology by Group BULL including BULL HN Information Systems Inc.
as a contribution to computer science knowledge.
This donation is made also to give evidence of the common contributions of Massachusetts Institute of Technology,
Bell Laboratories, General Electric, Honeywell Information Systems Inc., Honeywell BULL Inc., Groupe BULL
and BULL HN Information Systems Inc. to the development of this operating system.
Multics development was initiated by Massachusetts Institute of Technology Project MAC (1963-1970),
renamed the MIT Laboratory for Computer Science and Artificial Intelligence in the mid 1970s, under the leadership
of Professor Fernando Jose Corbato. Users consider that Multics provided the best software architecture
for managing computer hardware properly and for executing programs. Many subsequent operating systems
incorporated Multics principles.
Multics was distributed in 1975 to 2000 by Group Bull in Europe , and in the U.S. by Bull HN Information Systems Inc.,
as successor in interest by change in name only to Honeywell Bull Inc. and Honeywell Information Systems Inc. .

                                          -----------------------------------------------------------

Permission to use, copy, modify, and distribute these programs and their documentation for any purpose and without
fee is hereby granted,provided that the below copyright notice and historical background appear in all copies
and that both the copyright notice and historical background and this permission notice appear in supporting
documentation, and that the names of MIT, HIS, BULL or BULL HN not be used in advertising or publicity pertaining
to distribution of the programs without specific prior written permission.
    Copyright 1972 by Massachusetts Institute of Technology and Honeywell Information Systems Inc.
    Copyright 2006 by BULL HN Information Systems Inc.
    Copyright 2006 by Bull SAS
    All Rights Reserved
