ASSEMBLY LISTING OF SEGMENT >dumps>old>recomp>od355_msgs.alm
ASSEMBLED ON:	11/15/82  1753.8 mst Mon
OPTIONS USED:	list
ASSEMBLED BY:	ALM Version  6.4  April 1981
ASSEMBLER CREATED:	11/03/82  1423.6 mst Wed

                                     1  " ***********************************************************
                                     2  " *                                                         *
                                     3  " * Copyright, (C) Honeywell Information Systems Inc., 1982 *
                                     4  " *                                                         *
                                     5  " * Copyright (c) 1972 by Massachusetts Institute of        *
                                     6  " * Technology and Honeywell Information Systems, Inc.      *
                                     7  " *                                                         *
                                     8  " ***********************************************************
                                     9
                                    10  "
                                    11  "	This module is used by online_355_dump_ to translate trace table
                                    12  "	entries into intelligible messages
                                    13  "
    000000                          14  	name	od355_msgs
                        000000      15  	segdef	trace_modtab
                        000644      16  	segdef	die_list
                                    17  "
                                    18  "
                                    19  "
                                    20  "		the module table is indexed by module number, and the
                                    21  "		message tables pointed to by the module table entries
                                    22  "		are indexed by trace type
                                    23  "
    000000                          24  trace_modtab:
    000000  0a   000006 000000      25  	zero	skdtrc
    000001  0a   000117 000000      26  	zero	diatrc
    000002  0a   000310 000000      27  	zero	inttrc
    000003  0a   000367 000000      28  	zero	utltrc
    000004  0a   000450 000000      29  	zero	lsltrc
    000005  0a   000555 000000      30  	zero	hsltrc
                                    31
                                    32
                                    33  "	trace messages are in the form for pseudo-ioa control strings
                                    34  "	They may contain ^o, ^w, ^d, ^b, ^e, and ^f operations with their
                                    35  "	normal meaning. Also, they may contain special editing requests
                                    36  "	in the form ^n*. The following special requests are defined:
                                    37
                                    38  "		^1* - edit address in form module|offset
                                    39  "		^2* - edit name of opblock, given its number
                                    40  "		^3* - edit third word of jump table
                                    41  "		^4* - edit dia mailbox opcode
                                    42  "		^5* - edit 'alter parameters' code
                                    43
                                    44
                                    45
    000006                          46  skdtrc:
    000006  0a   000016 000000      47  	zero	msg1.1
    000007  0a   000025 000000      48  	zero	msg1.2
    000010  0a   000035 000000      49  	zero	msg1.3
    000011  0a   000044 000000      50  	zero	msg1.4
    000012  0a   000055 000000      51  	zero	msg1.5
    000013  0a   000063 000000      52  	zero	msg1.6
    000014  0a   000072 000000      53  	zero	msg1.7
    000015  0a   000105 000000      54  	zero	msg1.8
                                    55
    000016  aa  032 151 156 164     56  msg1.1:	acc	'interrupt at ^5w, 3wjt ^3*'
    000017  aa  145 162 162 165
    000020  aa  160 164 040 141
    000021  aa  164 040 136 065
    000022  aa  167 054 040 063
    000023  aa  167 152 164 040
    000024  aa  136 063 052 000
    000025  aa  035 151 144 154     57  msg1.2:	acc	'idle, indicators ^6w, ier ^6w'
    000026  aa  145 054 040 151
    000027  aa  156 144 151 143
    000030  aa  141 164 157 162
    000031  aa  163 040 136 066
    000032  aa  167 054 040 151
    000033  aa  145 162 040 136
    000034  aa  066 167 000 000
    000035  aa  031 162 165 156     58  msg1.3:	acc	'run interrupt routine ^6w'
    000036  aa  040 151 156 164
    000037  aa  145 162 162 165
    000040  aa  160 164 040 162
    000041  aa  157 165 164 151
    000042  aa  156 145 040 136
    000043  aa  066 167 000 000
    000044  aa  042 162 145 163     59  msg1.4:	acc	'restart interrupted routine at ^6w'
    000045  aa  164 141 162 164
    000046  aa  040 151 156 164
    000047  aa  145 162 162 165
    000050  aa  160 164 145 144
    000051  aa  040 162 157 165
    000052  aa  164 151 156 145
    000053  aa  040 141 164 040
    000054  aa  136 066 167 000
    000055  aa  026 162 165 156     60  msg1.5:	acc	'run queued routine ^6w'
    000056  aa  040 161 165 145
    000057  aa  165 145 144 040
    000060  aa  162 157 165 164
    000061  aa  151 156 145 040
    000062  aa  136 066 167 000
    000063  aa  031 163 145 164     61  msg1.6:	acc	'set timer ^6w for tib ^6w'
    000064  aa  040 164 151 155
    000065  aa  145 162 040 136
    000066  aa  066 167 040 146
    000067  aa  157 162 040 164
    000070  aa  151 142 040 136
    000071  aa  066 167 000 000
    000072  aa  053 151 156 164     62  msg1.7:	acc	'interval timer runout, current time ^6w ^6w'
    000073  aa  145 162 166 141
    000074  aa  154 040 164 151
    000075  aa  155 145 162 040
    000076  aa  162 165 156 157
    000077  aa  165 164 054 040
    000100  aa  143 165 162 162
    000101  aa  145 156 164 040
    000102  aa  164 151 155 145
    000103  aa  040 136 066 167
    000104  aa  040 136 066 167
    000105  aa  047 161 165 145     63  msg1.8:	acc	'queue routine, pri ^6w, rtn ^6w, x1 ^6w'
    000106  aa  165 145 040 162
    000107  aa  157 165 164 151
    000110  aa  156 145 054 040
    000111  aa  160 162 151 040
    000112  aa  136 066 167 054
    000113  aa  040 162 164 156
    000114  aa  040 136 066 167
    000115  aa  054 040 170 061
    000116  aa  040 136 066 167
                                    64
    000117                          65  diatrc:
    000117  0a   000133 000000      66  	zero	msg2.1
    000120  0a   000142 000000      67  	zero	msg2.2
    000121  0a   000152 000000      68  	zero	msg2.3
    000122  0a   000160 000000      69  	zero	msg2.4
    000123  0a   000176 000000      70  	zero	msg2.5
    000124  0a   000211 000000      71  	zero	msg2.6
    000125  0a   000227 000000      72  	zero	msg2.7
    000126  0a   000242 000000      73  	zero	msg2.8
    000127  0a   000250 000000      74  	zero	msg2.9
    000130  0a   000256 000000      75  	zero	ms2.10
    000131  0a   000272 000000      76  	zero	ms2.11
    000132  0a   000302 000000      77  	zero	ms2.12
                                    78
    000133  aa  033 144 151 141     79  msg2.1:	acc	'dia terminate, tcword = ^2w'
    000134  aa  040 164 145 162
    000135  aa  155 151 156 141
    000136  aa  164 145 054 040
    000137  aa  164 143 167 157
    000140  aa  162 144 040 075
    000141  aa  040 136 062 167
    000142  aa  035 144 151 141     80  msg2.2:	acc	'dia interrupt for mailbox ^2w'
    000143  aa  040 151 156 164
    000144  aa  145 162 162 165
    000145  aa  160 164 040 146
    000146  aa  157 162 040 155
    000147  aa  141 151 154 142
    000150  aa  157 170 040 136
    000151  aa  062 167 000 000
    000152  aa  027 144 151 141     81  msg2.3:	acc	'dia reading mailbox ^2w'
    000153  aa  040 162 145 141
    000154  aa  144 151 156 147
    000155  aa  040 155 141 151
    000156  aa  154 142 157 170
    000157  aa  040 136 062 167
    000160  aa  067 156 145 167     82  msg2.4:	acc	'new entry in dia i/o queue at ^6w: opcode ^4*, line ^4w'
    000161  aa  040 145 156 164
    000162  aa  162 171 040 151
    000163  aa  156 040 144 151
    000164  aa  141 040 151 057
    000165  aa  157 040 161 165
    000166  aa  145 165 145 040
    000167  aa  141 164 040 136
    000170  aa  066 167 072 040
    000171  aa  157 160 143 157
    000172  aa  144 145 040 136
    000173  aa  064 052 054 040
    000174  aa  154 151 156 145
    000175  aa  040 136 064 167
    000176  aa  050 167 143 144     83  msg2.5:	acc	'wcd in mailbox ^2w: opcode ^4*, line ^4w'
    000177  aa  040 151 156 040
    000200  aa  155 141 151 154
    000201  aa  142 157 170 040
    000202  aa  136 062 167 072
    000203  aa  040 157 160 143
    000204  aa  157 144 145 040
    000205  aa  136 064 052 054
    000206  aa  040 154 151 156
    000207  aa  145 040 136 064
    000210  aa  167 000 000 000
    000211  aa  066 165 163 151     84  msg2.6:	acc	'using dia i/o queue entry at ^6w: opcode ^4*, line ^4w'
    000212  aa  156 147 040 144
    000213  aa  151 141 040 151
    000214  aa  057 157 040 161
    000215  aa  165 145 165 145
    000216  aa  040 145 156 164
    000217  aa  162 171 040 141
    000220  aa  164 040 136 066
    000221  aa  167 072 040 157
    000222  aa  160 143 157 144
    000223  aa  145 040 136 064
    000224  aa  052 054 040 154
    000225  aa  151 156 145 040
    000226  aa  136 064 167 000
    000227  aa  053 144 151 141     85  msg2.7:	acc	'dia sending input count of ^6w for line ^4w'
    000230  aa  040 163 145 156
    000231  aa  144 151 156 147
    000232  aa  040 151 156 160
    000233  aa  165 164 040 143
    000234  aa  157 165 156 164
    000235  aa  040 157 146 040
    000236  aa  136 066 167 040
    000237  aa  146 157 162 040
    000240  aa  154 151 156 145
    000241  aa  040 136 064 167
    000242  aa  027 144 151 141     86  msg2.8:	acc	'dia writing mailbox ^2w'
    000243  aa  040 167 162 151
    000244  aa  164 151 156 147
    000245  aa  040 155 141 151
    000246  aa  154 142 157 170
    000247  aa  040 136 062 167
    000250  aa  027 144 151 141     87  msg2.9:	acc	'dia freeing mailbox ^2w'
    000251  aa  040 146 162 145
    000252  aa  145 151 156 147
    000253  aa  040 155 141 151
    000254  aa  154 142 157 170
    000255  aa  040 136 062 167
    000256  aa  054 167 164 170     88  ms2.10:	acc	'wtx in mailbox ^2w for line ^4w, ^3w buffers'
    000257  aa  040 151 156 040
    000260  aa  155 141 151 154
    000261  aa  142 157 170 040
    000262  aa  136 062 167 040
    000263  aa  146 157 162 040
    000264  aa  154 151 156 145
    000265  aa  040 136 064 167
    000266  aa  054 040 136 063
    000267  aa  167 040 142 165
    000270  aa  146 146 145 162
    000271  aa  163 000 000 000
    000272  aa  037 162 164 170     89  ms2.11:	acc	'rtx in mailbox ^2w for line ^4w'
    000273  aa  040 151 156 040
    000274  aa  155 141 151 154
    000275  aa  142 157 170 040
    000276  aa  136 062 167 040
    000277  aa  146 157 162 040
    000300  aa  154 151 156 145
    000301  aa  040 136 064 167
    000302  aa  025 141 154 164     90  ms2.12:	acc	'alter parameters: ^5*'
    000303  aa  145 162 040 160
    000304  aa  141 162 141 155
    000305  aa  145 164 145 162
    000306  aa  163 072 040 136
    000307  aa  065 052 000 000
                                    91
    000310                          92  inttrc:
                                    93
    000310  0a   000315 000000      94  	zero	msg3.1
    000311  0a   000325 000000      95  	zero	msg3.2
    000312  0a   000335 000000      96  	zero	msg3.3
    000313  0a   000350 000000      97  	zero	msg3.4
    000314  0a   000360 000000      98  	zero	msg3.5
                                    99
    000315  aa  036 151 164 145    100  msg3.1:	acc	'itest: tib at ^6w, t.cur = ^1*'
    000316  aa  163 164 072 040
    000317  aa  164 151 142 040
    000320  aa  141 164 040 136
    000321  aa  066 167 054 040
    000322  aa  164 056 143 165
    000323  aa  162 040 075 040
    000324  aa  136 061 052 000
    000325  aa  037 151 167 162    101  msg3.2:	acc	'iwrite: tib at ^6w, t.cur = ^1*'
    000326  aa  151 164 145 072
    000327  aa  040 164 151 142
    000330  aa  040 141 164 040
    000331  aa  136 066 167 054
    000332  aa  040 164 056 143
    000333  aa  165 162 040 075
    000334  aa  040 136 061 052
    000335  aa  052 151 163 164    102  msg3.3:	acc	'istat: tib at ^6w, t.cur = ^1*, status ^6w'
    000336  aa  141 164 072 040
    000337  aa  164 151 142 040
    000340  aa  141 164 040 136
    000341  aa  066 167 054 040
    000342  aa  164 056 143 165
    000343  aa  162 040 075 040
    000344  aa  136 061 052 054
    000345  aa  040 163 164 141
    000346  aa  164 165 163 040
    000347  aa  136 066 167 000
    000350  aa  036 151 164 151    103  msg3.4:	acc	'itime: tib at ^6w, t.cur = ^1*'
    000351  aa  155 145 072 040
    000352  aa  164 151 142 040
    000353  aa  141 164 040 136
    000354  aa  066 167 054 040
    000355  aa  164 056 143 165
    000356  aa  162 040 075 040
    000357  aa  136 061 052 000
    000360  aa  033 157 160 040    104  msg3.5:	acc	'op block at ^1*, type = ^2*'
    000361  aa  142 154 157 143
    000362  aa  153 040 141 164
    000363  aa  040 136 061 052
    000364  aa  054 040 164 171
    000365  aa  160 145 040 075
    000366  aa  040 136 062 052
                                   105
                                   106
    000367                         107  utltrc:
    000367  0a   000373 000000     108  	zero	msg4.1
    000370  0a   000407 000000     109  	zero	msg4.2
    000371  0a   000422 000000     110  	zero	msg4.3
    000372  0a   000436 000000     111  	zero	msg4.4
                                   112
    000373  aa  057 142 165 146    113  msg4.1:	acc	'buffer allocated at ^o (^o words) by ^1*, x1=^o'
    000374  aa  146 145 162 040
    000375  aa  141 154 154 157
    000376  aa  143 141 164 145
    000377  aa  144 040 141 164
    000400  aa  040 136 157 040
    000401  aa  050 136 157 040
    000402  aa  167 157 162 144
    000403  aa  163 051 040 142
    000404  aa  171 040 136 061
    000405  aa  052 054 040 170
    000406  aa  061 075 136 157
    000407  aa  053 142 165 146    114  msg4.2:	acc	'buffer freed at ^o (^o words) by ^1*, x1=^o'
    000410  aa  146 145 162 040
    000411  aa  146 162 145 145
    000412  aa  144 040 141 164
    000413  aa  040 136 157 040
    000414  aa  050 136 157 040
    000415  aa  167 157 162 144
    000416  aa  163 051 040 142
    000417  aa  171 040 136 061
    000420  aa  052 054 040 170
    000421  aa  061 075 136 157
    000422  aa  057 162 145 161    115  msg4.3:	acc	'request for ^o buffers (^o words) by ^1*, x1=^o'
    000423  aa  165 145 163 164
    000424  aa  040 146 157 162
    000425  aa  040 136 157 040
    000426  aa  142 165 146 146
    000427  aa  145 162 163 040
    000430  aa  050 136 157 040
    000431  aa  167 157 162 144
    000432  aa  163 051 040 142
    000433  aa  171 040 136 061
    000434  aa  052 054 040 170
    000435  aa  061 075 136 157
    000436  aa  045 142 165 146    116  msg4.4:	acc	'buffer list at ^o freed by ^1*, x1=^o'
    000437  aa  146 145 162 040
    000440  aa  154 151 163 164
    000441  aa  040 141 164 040
    000442  aa  136 157 040 146
    000443  aa  162 145 145 144
    000444  aa  040 142 171 040
    000445  aa  136 061 052 054
    000446  aa  040 170 061 075
    000447  aa  136 157 000 000
                                   117
    000450                         118  lsltrc:
                                   119
    000450  0a   000457 000000     120  	zero	msg5.1
    000451  0a   000466 000000     121  	zero	msg5.2
    000452  0a   000500 000000     122  	zero	msg5.3
    000453  0a   000507 000000     123  	zero	msg5.4
    000454  0a   000521 000000     124  	zero	msg5.5
    000455  0a   000530 000000     125  	zero	msg5.6
    000456  0a   000543 000000     126  	zero	msg5.7
                                   127
    000457  aa  032 154 163 154    128  msg5.1:	acc	'lsla interrupt, 3wjt = ^3*'
    000460  aa  141 040 151 156
    000461  aa  164 145 162 162
    000462  aa  165 160 164 054
    000463  aa  040 063 167 152
    000464  aa  164 040 075 040
    000465  aa  136 063 052 000
    000466  aa  045 154 163 154    129  msg5.2:	acc	'lsla output frame at ^6w, sfcm at ^6w'
    000467  aa  141 040 157 165
    000470  aa  164 160 165 164
    000471  aa  040 146 162 141
    000472  aa  155 145 040 141
    000473  aa  164 040 136 066
    000474  aa  167 054 040 163
    000475  aa  146 143 155 040
    000476  aa  141 164 040 136
    000477  aa  066 167 000 000
    000500  aa  031 154 163 154    130  msg5.3:	acc	'lsla output buffer at ^6w'
    000501  aa  141 040 157 165
    000502  aa  164 160 165 164
    000503  aa  040 142 165 146
    000504  aa  146 145 162 040
    000505  aa  141 164 040 136
    000506  aa  066 167 000 000
    000507  aa  044 154 163 154    131  msg5.4:	acc	'lsla input frame at ^6w, sfcm at ^6w'
    000510  aa  141 040 151 156
    000511  aa  160 165 164 040
    000512  aa  146 162 141 155
    000513  aa  145 040 141 164
    000514  aa  040 136 066 167
    000515  aa  054 040 163 146
    000516  aa  143 155 040 141
    000517  aa  164 040 136 066
    000520  aa  167 000 000 000
    000521  aa  030 154 163 154    132  msg5.5:	acc	'lsla input buffer at ^6w'
    000522  aa  141 040 151 156
    000523  aa  160 165 164 040
    000524  aa  142 165 146 146
    000525  aa  145 162 040 141
    000526  aa  164 040 136 066
    000527  aa  167 000 000 000
    000530  aa  051 163 145 156    133  msg5.6:	acc	'sending ^3w to lsla slot ^2w for line ^4w'
    000531  aa  144 151 156 147
    000532  aa  040 136 063 167
    000533  aa  040 164 157 040
    000534  aa  154 163 154 141
    000535  aa  040 163 154 157
    000536  aa  164 040 136 062
    000537  aa  167 040 146 157
    000540  aa  162 040 154 151
    000541  aa  156 145 040 136
    000542  aa  064 167 000 000
    000543  aa  044 145 163 143    134  msg5.7:	acc	'escape in lsla slot ^2w for line ^4w'
    000544  aa  141 160 145 040
    000545  aa  151 156 040 154
    000546  aa  163 154 141 040
    000547  aa  163 154 157 164
    000550  aa  040 136 062 167
    000551  aa  040 146 157 162
    000552  aa  040 154 151 156
    000553  aa  145 040 136 064
    000554  aa  167 000 000 000
                                   135
                                   136
    000555                         137  hsltrc:
    000555  0a   000562 000000     138  	zero	msg6.1
    000556  0a   000576 000000     139  	zero	msg6.2
    000557  0a   000606 000000     140  	zero	msg6.3
    000560  0a   000615 000000     141  	zero	msg6.4
    000561  0a   000627 000000     142  	zero	msg6.5
                                   143
    000562  aa  056 150 163 154    144  msg6.1:	acc	'hsla dcw processor, tib ^6w, list ^1*, len ^2w'
    000563  aa  141 040 144 143
    000564  aa  167 040 160 162
    000565  aa  157 143 145 163
    000566  aa  163 157 162 054
    000567  aa  040 164 151 142
    000570  aa  040 136 066 167
    000571  aa  054 040 154 151
    000572  aa  163 164 040 136
    000573  aa  061 052 054 040
    000574  aa  154 145 156 040
    000575  aa  136 062 167 000
    000576  aa  036 150 163 154    145  msg6.2:	acc	'hsla pcw, tib ^6w, pcw ^6w ^6w'
    000577  aa  141 040 160 143
    000600  aa  167 054 040 164
    000601  aa  151 142 040 136
    000602  aa  066 167 054 040
    000603  aa  160 143 167 040
    000604  aa  136 066 167 040
    000605  aa  136 066 167 000
    000606  aa  032 150 163 154    146  msg6.3:	acc	'hsla interrupt, 3wjt = ^3*'
    000607  aa  141 040 151 156
    000610  aa  164 145 162 162
    000611  aa  165 160 164 054
    000612  aa  040 063 167 152
    000613  aa  164 040 075 040
    000614  aa  136 063 052 000
    000615  aa  044 150 163 154    147  msg6.4:	acc	'hsla status, tib ^6w, status ^6w ^6w'
    000616  aa  141 040 163 164
    000617  aa  141 164 165 163
    000620  aa  054 040 164 151
    000621  aa  142 040 136 066
    000622  aa  167 054 040 163
    000623  aa  164 141 164 165
    000624  aa  163 040 136 066
    000625  aa  167 040 136 066
    000626  aa  167 000 000 000
    000627  aa  060 150 163 154    148  msg6.5:	acc	'hsla, tib ^6w, attempting icw indicator recovery'
    000630  aa  141 054 040 164
    000631  aa  151 142 040 136
    000632  aa  066 167 054 040
    000633  aa  141 164 164 145
    000634  aa  155 160 164 151
    000635  aa  156 147 040 151
    000636  aa  143 167 040 151
    000637  aa  156 144 151 143
    000640  aa  141 164 157 162
    000641  aa  040 162 145 143
    000642  aa  157 166 145 162
    000643  aa  171 000 000 000
                                   149
                                   150  "
    000644                         151  die_list:
    000644  aa  163 143 150 145    152  	aci	'scheduler   '
    000645  aa  144 165 154 145
    000646  aa  162 040 040 040
    000647  a0   000000 000710     153  	zero	0,sked_messages
                                   154
    000650  aa  144 151 141 137    155  	aci	'dia_man     '
    000651  aa  155 141 156 040
    000652  aa  040 040 040 040
    000653  a0   000000 000712     156  	zero	0,dia_messages
                                   157
    000654  aa  151 156 164 145    158  	aci	'interpreter '
    000655  aa  162 160 162 145
    000656  aa  164 145 162 040
    000657  a0   000000 000740     159  	zero	0,intp_messages
                                   160
    000660  aa  165 164 151 154    161  	aci	'utilities   '
    000661  aa  151 164 151 145
    000662  aa  163 040 040 040
    000663  a0   000000 000762     162  	zero	0,util_messages
                                   163
    000664  aa  154 163 154 141    164  	aci	'lsla_man    '
    000665  aa  137 155 141 156
    000666  aa  040 040 040 040
    000667  a0   000000 001000     165  	zero	0,lsla_messages
                                   166
    000670  aa  150 163 154 141    167  	aci	'hsla_man    '
    000671  aa  137 155 141 156
    000672  aa  040 040 040 040
    000673  a0   000000 001013     168  	zero	0,hsla_messages
                                   169
    000674  aa  143 157 156 163    170  	aci	'console_man '
    000675  aa  157 154 145 137
    000676  aa  155 141 156 040
    000677  a0   000000 001030     171  	zero	0,cons_messages
                                   172
    000700  aa  164 162 141 143    173  	aci	'trace       '
    000701  aa  145 040 040 040
    000702  aa  040 040 040 040
    000703  a0   000000 001031     174  	zero	0,trac_messages
                                   175
    000704  aa  151 156 151 164    176  	aci	'init        '
    000705  aa  040 040 040 040
    000706  aa  040 040 040 040
    000707  a0   000000 001032     177  	zero	0,init_messages
                                   178
                                   179
    000710                         180  sked_messages:
    000710  0a   001051 000000     181  	zero	sked_1
    000711  0a   001060 000000     182  	zero	sked_2
                                   183
    000712                         184  dia_messages:
    000712  0a   001070 000000     185  	zero	dia_1
    000713  0a   001100 000000     186  	zero	dia_2
    000714  0a   001106 000000     187  	zero	dia_3
    000715  0a   001117 000000     188  	zero	dia_4
    000716  0a   001125 000000     189  	zero	dia_5
    000717  0a   001133 000000     190  	zero	dia_6
    000720  0a   001146 000000     191  	zero	dia_7
    000721  0a   001160 000000     192  	zero	dia_8
    000722  0a   001171 000000     193  	zero	dia_9
    000723  0a   001202 000000     194  	zero	dia_10
    000724  0a   001211 000000     195  	zero	dia_11
    000725  0a   001225 000000     196  	zero	dia_12
    000726  0a   001233 000000     197  	zero	dia_13
    000727  0a   001241 000000     198  	zero	dia_14
    000730  0a   001252 000000     199  	zero	dia_15
    000731  0a   001264 000000     200  	zero	dia_16
    000732  0a   001301 000000     201  	zero	dia_17
    000733  0a   001310 000000     202  	zero	dia_18
    000734  0a   001315 000000     203  	zero	dia_19
    000735  0a   001326 000000     204  	zero	dia_20
    000736  0a   001341 000000     205  	zero	dia_21
    000737  0a   001350 000000     206  	zero	dia_22
                                   207
                                   208
    000740                         209  intp_messages:
    000740  0a   001360 000000     210  	zero	intp_1
    000741  0a   001364 000000     211  	zero	intp_2
    000742  0a   001371 000000     212  	zero	intp_3
    000743  0a   001401 000000     213  	zero	intp_4
    000744  0a   001407 000000     214  	zero	intp_5
    000745  0a   001417 000000     215  	zero	intp_6
    000746  0a   001427 000000     216  	zero	intp_7
    000747  0a   001440 000000     217  	zero	intp_8
    000750  0a   001446 000000     218  	zero	intp_9
    000751  0a   001461 000000     219  	zero	intp_10
    000752  0a   001475 000000     220  	zero	intp_11
    000753  0a   001503 000000     221  	zero	intp_12
    000754  0a   001506 000000     222  	zero	intp_13
    000755  0a   001521 000000     223  	zero	intp_14
    000756  0a   001534 000000     224  	zero	intp_15
    000757  0a   001544 000000     225  	zero	intp_16
    000760  0a   001555 000000     226  	zero	intp_17
    000761  0a   001202 000000     227  	zero	dia_10
                                   228
                                   229
    000762                         230  util_messages:
    000762  0a   001570 000000     231  	zero	util_1
    000763  0a   001600 000000     232  	zero	util_2
    000764  0a   001612 000000     233  	zero	util_3
    000765  0a   001625 000000     234  	zero	util_4
    000766  0a   001636 000000     235  	zero	util_5
    000767  0a   001647 000000     236  	zero	util_6
    000770  0a   001427 000000     237  	zero	intp_7
    000771  0a   001656 000000     238  	zero	util_8
    000772  0a   001670 000000     239  	zero	util_9
    000773  0a   001701 000000     240  	zero	util_10
    000774  0a   001713 000000     241  	zero	util_11
    000775  0a   001725 000000     242  	zero	util_12
    000776  0a   001734 000000     243  	zero	util_13
    000777  0a   001751 000000     244  	zero	util_14
                                   245
                                   246
    001000                         247  lsla_messages:
    001000  0a   002112 000000     248  	zero	lsla_1
    001001  0a   001656 000000     249  	zero	util_8
    001002  0a   001670 000000     250  	zero	util_9
    001003  0a   002124 000000     251  	zero	lsla_4
    001004  0a   002137 000000     252  	zero	lsla_5
    001005  0a   001417 000000     253  	zero	intp_6
    001006  0a   001427 000000     254  	zero	intp_7
    001007  0a   002146 000000     255  	zero	lsla_8
    001010  0a   002155 000000     256  	zero	lsla_9
    001011  0a   001202 000000     257  	zero	dia_10
    001012  0a   002170 000000     258  	zero	lsla_11
                                   259
                                   260
    001013                         261  hsla_messages:
    001013  0a   001765 000000     262  	zero	hsla_1
    001014  0a   001775 000000     263  	zero	hsla_2
    001015  0a   002006 000000     264  	zero	hsla_3
    001016  0a   002021 000000     265  	zero	hsla_4
    001017  0a   002031 000000     266  	zero	hsla_5
    001020  0a   002036 000000     267  	zero	hsla_6
    001021  0a   002050 000000     268  	zero	hsla_7
    001022  0a   002057 000000     269  	zero	hsla_8
    001023  0a   001202 000000     270  	zero	dia_10
    001024  0a   002067 000000     271  	zero	hsla_10
    001025  0a   002203 000000     272  	zero	no_message
    001026  0a   002075 000000     273  	zero	hsla_12
    001027  0a   002105 000000     274  	zero	hsla_13
                                   275
                                   276
    001030                         277  cons_messages:
    001030  0a   002203 000000     278  	zero	no_message
                                   279
                                   280
    001031                         281  trac_messages:
    001031  0a   002203 000000     282  	zero	no_message
                                   283
                                   284
    001032                         285  init_messages:
    001032  0a   001202 000000     286  	zero	dia_10
    001033  0a   002211 000000     287  	zero	init_2
    001034  0a   002220 000000     288  	zero	init_3
    001035  0a   002230 000000     289  	zero	init_4
    001036  0a   002235 000000     290  	zero	init_5
    001037  0a   002242 000000     291  	zero	init_6
    001040  0a   002366 000000     292  	zero	bad_init
    001041  0a   002251 000000     293  	zero	init_8
    001042  0a   002270 000000     294  	zero	init_9
    001043  0a   002277 000000     295  	zero	init_10
    001044  0a   002310 000000     296  	zero	init_11
    001045  0a   002322 000000     297  	zero	init_12
    001046  0a   002332 000000     298  	zero	init_13
    001047  0a   002345 000000     299  	zero	init_14
    001050  0a   002356 000000     300  	zero	init_15
                                   301
                                   302
    001051  aa  032 156 157 040    303  sked_1:	acc	'no buffers for delay queue'
    001052  aa  142 165 146 146
    001053  aa  145 162 163 040
    001054  aa  146 157 162 040
    001055  aa  144 145 154 141
    001056  aa  171 040 161 165
    001057  aa  145 165 145 000
    001060  aa  036 141 164 164    304  sked_2:	acc	'attempt to run missing routine'
    001061  aa  145 155 160 164
    001062  aa  040 164 157 040
    001063  aa  162 165 156 040
    001064  aa  155 151 163 163
    001065  aa  151 156 147 040
    001066  aa  162 157 165 164
    001067  aa  151 156 145 000
                                   305
                                   306
    001070  aa  035 155 141 151    307  dia_1:	acc	'mailbox wraparound queue full'
    001071  aa  154 142 157 170
    001072  aa  040 167 162 141
    001073  aa  160 141 162 157
    001074  aa  165 156 144 040
    001075  aa  161 165 145 165
    001076  aa  145 040 146 165
    001077  aa  154 154 000 000
    001100  aa  027 165 156 162    308  dia_2:	acc	'unrecoverable i/o error'	h
    001101  aa  145 143 157 166
    001102  aa  145 162 141 142
    001103  aa  154 145 040 151
    001104  aa  057 157 040 145
    001105  aa  162 162 157 162
    001106  aa  042 155 157 162    309  dia_3:	acc	'more than 5 consecutive i/o errors'	h
    001107  aa  145 040 164 150
    001110  aa  141 156 040 065
    001111  aa  040 143 157 156
    001112  aa  163 145 143 165
    001113  aa  164 151 166 145
    001114  aa  040 151 057 157
    001115  aa  040 145 162 162
    001116  aa  157 162 163 000
    001117  aa  025 151 156 166    310  dia_4:	acc	'invalid value for tcw'
    001120  aa  141 154 151 144
    001121  aa  040 166 141 154
    001122  aa  165 145 040 146
    001123  aa  157 162 040 164
    001124  aa  143 167 000 000
    001125  aa  027 155 141 151    311  dia_5:	acc	'mailbox queue count < 0'
    001126  aa  154 142 157 170
    001127  aa  040 161 165 145
    001130  aa  165 145 040 143
    001131  aa  157 165 156 164
    001132  aa  040 074 040 060
    001133  aa  052 151 156 166    312  dia_6:	acc	'invalid mailbox number in wraparound queue'
    001134  aa  141 154 151 144
    001135  aa  040 155 141 151
    001136  aa  154 142 157 170
    001137  aa  040 156 165 155
    001140  aa  142 145 162 040
    001141  aa  151 156 040 167
    001142  aa  162 141 160 141
    001143  aa  162 157 165 156
    001144  aa  144 040 161 165
    001145  aa  145 165 145 000
    001146  aa  045 063 040 143    313  dia_7:	acc	'3 consecutive mailbox checksum errors'	h
    001147  aa  157 156 163 145
    001150  aa  143 165 164 151
    001151  aa  166 145 040 155
    001152  aa  141 151 154 142
    001153  aa  157 170 040 143
    001154  aa  150 145 143 153
    001155  aa  163 165 155 040
    001156  aa  145 162 162 157
    001157  aa  162 163 000 000
    001160  aa  041 157 160 055    314  dia_8:	acc	'op-code not valid for i/o command'
    001161  aa  143 157 144 145
    001162  aa  040 156 157 164
    001163  aa  040 166 141 154
    001164  aa  151 144 040 146
    001165  aa  157 162 040 151
    001166  aa  057 157 040 143
    001167  aa  157 155 155 141
    001170  aa  156 144 000 000
    001171  aa  043 162 143 144    315  dia_9:	acc	'rcd processed with no queue entries'
    001172  aa  040 160 162 157
    001173  aa  143 145 163 163
    001174  aa  145 144 040 167
    001175  aa  151 164 150 040
    001176  aa  156 157 040 161
    001177  aa  165 145 165 145
    001200  aa  040 145 156 164
    001201  aa  162 151 145 163
    001202  aa  030 142 165 146    316  dia_10:	acc	'buffer allocation failed'
    001203  aa  146 145 162 040
    001204  aa  141 154 154 157
    001205  aa  143 141 164 151
    001206  aa  157 156 040 146
    001207  aa  141 151 154 145
    001210  aa  144 000 000 000
    001211  aa  054 154 141 163    317  dia_11:	acc	'last buffer in input chain lacks "last" flag'
    001212  aa  164 040 142 165
    001213  aa  146 146 145 162
    001214  aa  040 151 156 040
    001215  aa  151 156 160 165
    001216  aa  164 040 143 150
    001217  aa  141 151 156 040
    001220  aa  154 141 143 153
    001221  aa  163 040 042 154
    001222  aa  141 163 164 042
    001223  aa  040 146 154 141
    001224  aa  147 000 000 000
    001225  aa  027 164 141 154    318  dia_12:	acc	'tally for rtx too small'
    001226  aa  154 171 040 146
    001227  aa  157 162 040 162
    001230  aa  164 170 040 164
    001231  aa  157 157 040 163
    001232  aa  155 141 154 154
    001233  aa  027 164 141 154    319  dia_13:	acc	'tally for rtx too large'
    001234  aa  154 171 040 146
    001235  aa  157 162 040 162
    001236  aa  164 170 040 164
    001237  aa  157 157 040 154
    001240  aa  141 162 147 145
    001241  aa  042 141 164 164    320  dia_14:	acc	'attempt to lock already locked dia'
    001242  aa  145 155 160 164
    001243  aa  040 164 157 040
    001244  aa  154 157 143 153
    001245  aa  040 141 154 162
    001246  aa  145 141 144 171
    001247  aa  040 154 157 143
    001250  aa  153 145 144 040
    001251  aa  144 151 141 000
    001252  aa  046 141 164 164    321  dia_15:	acc	'attempt to unlock already unlocked dia'
    001253  aa  145 155 160 164
    001254  aa  040 164 157 040
    001255  aa  165 156 154 157
    001256  aa  143 153 040 141
    001257  aa  154 162 145 141
    001260  aa  144 171 040 165
    001261  aa  156 154 157 143
    001262  aa  153 145 144 040
    001263  aa  144 151 141 000
    001264  aa  063 162 164 170    322  dia_16:	acc	'rtx in mailbox, next queue element not accept input'
    001265  aa  040 151 156 040
    001266  aa  155 141 151 154
    001267  aa  142 157 170 054
    001270  aa  040 156 145 170
    001271  aa  164 040 161 165
    001272  aa  145 165 145 040
    001273  aa  145 154 145 155
    001274  aa  145 156 164 040
    001275  aa  156 157 164 040
    001276  aa  141 143 143 145
    001277  aa  160 164 040 151
    001300  aa  156 160 165 164
    001301  aa  030 165 156 162    323  dia_17:	acc	'unrecognized i/o command'
    001302  aa  145 143 157 147
    001303  aa  156 151 172 145
    001304  aa  144 040 151 057
    001305  aa  157 040 143 157
    001306  aa  155 155 141 156
    001307  aa  144 000 000 000
    001310  aa  021 156 157 040    324  dia_18:	acc	'no dia configured'
    001311  aa  144 151 141 040
    001312  aa  143 157 156 146
    001313  aa  151 147 165 162
    001314  aa  145 144 000 000
    001315  aa  040 141 143 143    325  dia_19:	acc	'accept input when no input chain'
    001316  aa  145 160 164 040
    001317  aa  151 156 160 165
    001320  aa  164 040 167 150
    001321  aa  145 156 040 156
    001322  aa  157 040 151 156
    001323  aa  160 165 164 040
    001324  aa  143 150 141 151
    001325  aa  156 000 000 000
    001326  aa  050 141 164 164    326  dia_20:	acc	'attempt to chain to invalid output chain'
    001327  aa  145 155 160 164
    001330  aa  040 164 157 040
    001331  aa  143 150 141 151
    001332  aa  156 040 164 157
    001333  aa  040 151 156 166
    001334  aa  141 154 151 144
    001335  aa  040 157 165 164
    001336  aa  160 165 164 040
    001337  aa  143 150 141 151
    001340  aa  156 000 000 000
    001341  aa  033 151 156 160    327  dia_21:	acc	'input buffer had zero tally'
    001342  aa  165 164 040 142
    001343  aa  165 146 146 145
    001344  aa  162 040 150 141
    001345  aa  144 040 172 145
    001346  aa  162 157 040 164
    001347  aa  141 154 154 171
    001350  aa  035 156 157 040    328  dia_22:	acc	'no entry for line in tib list'
    001351  aa  145 156 164 162
    001352  aa  171 040 146 157
    001353  aa  162 040 154 151
    001354  aa  156 145 040 151
    001355  aa  156 040 164 151
    001356  aa  142 040 154 151
    001357  aa  163 164 000 000
                                   329
                                   330
    001360  aa  017 170 061 040    331  intp_1:	acc	'x1 = 0 at entry'
    001361  aa  075 040 060 040
    001362  aa  141 164 040 145
    001363  aa  156 164 162 171
    001364  aa  022 164 056 143    332  intp_2:	acc	't.cur = 0 at entry'
    001365  aa  165 162 040 075
    001366  aa  040 060 040 141
    001367  aa  164 040 145 156
    001370  aa  164 162 171 000
    001371  aa  035 143 141 154    333  intp_3:	acc	'called when not at wait block'
    001372  aa  154 145 144 040
    001373  aa  167 150 145 156
    001374  aa  040 156 157 164
    001375  aa  040 141 164 040
    001376  aa  167 141 151 164
    001377  aa  040 142 154 157
    001400  aa  143 153 000 000
    001401  aa  027 164 171 160    334  intp_4:	acc	'type not of form 777xxx'
    001402  aa  145 040 156 157
    001403  aa  164 040 157 146
    001404  aa  040 146 157 162
    001405  aa  155 040 067 067
    001406  aa  067 170 170 170
    001407  aa  035 164 162 151    335  intp_5:	acc	'tried to execute status block'
    001410  aa  145 144 040 164
    001411  aa  157 040 145 170
    001412  aa  145 143 165 164
    001413  aa  145 040 163 164
    001414  aa  141 164 165 163
    001415  aa  040 142 154 157
    001416  aa  143 153 000 000
    001417  aa  037 165 156 162    336  intp_6:	acc	'unrecognized sub-op in dcw list'
    001420  aa  145 143 157 147
    001421  aa  156 151 172 145
    001422  aa  144 040 163 165
    001423  aa  142 055 157 160
    001424  aa  040 151 156 040
    001425  aa  144 143 167 040
    001426  aa  154 151 163 164
    001427  aa  041 157 165 164    337  intp_7:	acc	'outmsg not followed by output_end'
    001430  aa  155 163 147 040
    001431  aa  156 157 164 040
    001432  aa  146 157 154 154
    001433  aa  157 167 145 144
    001434  aa  040 142 171 040
    001435  aa  157 165 164 160
    001436  aa  165 164 137 145
    001437  aa  156 144 000 000
    001440  aa  025 165 156 162    338  intp_8:	acc	'unrecognized op block'
    001441  aa  145 143 157 147
    001442  aa  156 151 172 145
    001443  aa  144 040 157 160
    001444  aa  040 142 154 157
    001445  aa  143 153 000 000
    001446  aa  053 163 164 141    339  intp_9:	acc	'started block check while check in progress'
    001447  aa  162 164 145 144
    001450  aa  040 142 154 157
    001451  aa  143 153 040 143
    001452  aa  150 145 143 153
    001453  aa  040 167 150 151
    001454  aa  154 145 040 143
    001455  aa  150 145 143 153
    001456  aa  040 151 156 040
    001457  aa  160 162 157 147
    001460  aa  162 145 163 163
    001461  aa  055 143 157 155    340  intp_10:	acc	'compare block check without start block check'
    001462  aa  160 141 162 145
    001463  aa  040 142 154 157
    001464  aa  143 153 040 143
    001465  aa  150 145 143 153
    001466  aa  040 167 151 164
    001467  aa  150 157 165 164
    001470  aa  040 163 164 141
    001471  aa  162 164 040 142
    001472  aa  154 157 143 153
    001473  aa  040 143 150 145
    001474  aa  143 153 000 000
    001475  aa  026 165 156 162    341  intp_11:	acc	'unrecognized scan type'
    001476  aa  145 143 157 147
    001477  aa  156 151 172 145
    001500  aa  144 040 163 143
    001501  aa  141 156 040 164
    001502  aa  171 160 145 000
    001503  aa  013 164 056 164    342  intp_12:	acc	't.type <= 0'
    001504  aa  171 160 145 040
    001505  aa  074 075 040 060
    001506  aa  050 145 162 162    343  intp_13:	acc	'error in use of calsub, retsub op blocks'
    001507  aa  157 162 040 151
    001510  aa  156 040 165 163
    001511  aa  145 040 157 146
    001512  aa  040 143 141 154
    001513  aa  163 165 142 054
    001514  aa  040 162 145 164
    001515  aa  163 165 142 040
    001516  aa  157 160 040 142
    001517  aa  154 157 143 153
    001520  aa  163 000 000 000
    001521  aa  050 145 162 162    344  intp_14:	acc	'error in use of getext, retext op blocks'
    001522  aa  157 162 040 151
    001523  aa  156 040 165 163
    001524  aa  145 040 157 146
    001525  aa  040 147 145 164
    001526  aa  145 170 164 054
    001527  aa  040 162 145 164
    001530  aa  145 170 164 040
    001531  aa  157 160 040 142
    001532  aa  154 157 143 153
    001533  aa  163 000 000 000
    001534  aa  034 145 162 162    345  intp_15:	acc	'error in scan control string'
    001535  aa  157 162 040 151
    001536  aa  156 040 163 143
    001537  aa  141 156 040 143
    001540  aa  157 156 164 162
    001541  aa  157 154 040 163
    001542  aa  164 162 151 156
    001543  aa  147 000 000 000
    001544  aa  040 151 156 166    346  intp_16:	acc	'invalid sub-op list to config op'
    001545  aa  141 154 151 144
    001546  aa  040 163 165 142
    001547  aa  055 157 160 040
    001550  aa  154 151 163 164
    001551  aa  040 164 157 040
    001552  aa  143 157 156 146
    001553  aa  151 147 040 157
    001554  aa  160 000 000 000
    001555  aa  051 162 145 160    347  intp_17:	acc	'replay attempted with active output chain'
    001556  aa  154 141 171 040
    001557  aa  141 164 164 145
    001560  aa  155 160 164 145
    001561  aa  144 040 167 151
    001562  aa  164 150 040 141
    001563  aa  143 164 151 166
    001564  aa  145 040 157 165
    001565  aa  164 160 165 164
    001566  aa  040 143 150 141
    001567  aa  151 156 000 000
                                   348
                                   349
    001570  aa  035 142 165 146    350  util_1:	acc	'buffer of size <= 0 requested'
    001571  aa  146 145 162 040
    001572  aa  157 146 040 163
    001573  aa  151 172 145 040
    001574  aa  074 075 040 060
    001575  aa  040 162 145 161
    001576  aa  165 145 163 164
    001577  aa  145 144 000 000
    001600  aa  046 142 165 146    351  util_2:	acc	'buffer of more than max size requested'
    001601  aa  146 145 162 040
    001602  aa  157 146 040 155
    001603  aa  157 162 145 040
    001604  aa  164 150 141 156
    001605  aa  040 155 141 170
    001606  aa  040 163 151 172
    001607  aa  145 040 162 145
    001610  aa  161 165 145 163
    001611  aa  164 145 144 000
    001612  aa  052 164 162 151    352  util_3:	acc	'tried to free buffer with address < .crbuf'
    001613  aa  145 144 040 164
    001614  aa  157 040 146 162
    001615  aa  145 145 040 142
    001616  aa  165 146 146 145
    001617  aa  162 040 167 151
    001620  aa  164 150 040 141
    001621  aa  144 144 162 145
    001622  aa  163 163 040 074
    001623  aa  040 056 143 162
    001624  aa  142 165 146 000
    001625  aa  040 164 162 151    353  util_4:	acc	'tried to free space already free'
    001626  aa  145 144 040 164
    001627  aa  157 040 146 162
    001630  aa  145 145 040 163
    001631  aa  160 141 143 145
    001632  aa  040 141 154 162
    001633  aa  145 141 144 171
    001634  aa  040 146 162 145
    001635  aa  145 000 000 000
    001636  aa  042 141 144 144    354  util_5:	acc	'address in block pointer too large'
    001637  aa  162 145 163 163
    001640  aa  040 151 156 040
    001641  aa  142 154 157 143
    001642  aa  153 040 160 157
    001643  aa  151 156 164 145
    001644  aa  162 040 164 157
    001645  aa  157 040 154 141
    001646  aa  162 147 145 000
    001647  aa  030 151 156 166    355  util_6:	acc	'invalid interrupt vector'
    001650  aa  141 154 151 144
    001651  aa  040 151 156 164
    001652  aa  145 162 162 165
    001653  aa  160 164 040 166
    001654  aa  145 143 164 157
    001655  aa  162 000 000 000
    001656  aa  045 153 171 142    356  util_8:	acc	'kybd/prtr addressing with control set'
    001657  aa  144 057 160 162
    001660  aa  164 162 040 141
    001661  aa  144 144 162 145
    001662  aa  163 163 151 156
    001663  aa  147 040 167 151
    001664  aa  164 150 040 143
    001665  aa  157 156 164 162
    001666  aa  157 154 040 163
    001667  aa  145 164 000 000
    001670  aa  042 165 156 162    357  util_9:	acc	'unrecognized type in output sub-op'
    001671  aa  145 143 157 147
    001672  aa  156 151 172 145
    001673  aa  144 040 164 171
    001674  aa  160 145 040 151
    001675  aa  156 040 157 165
    001676  aa  164 160 165 164
    001677  aa  040 163 165 142
    001700  aa  055 157 160 000
    001701  aa  044 143 157 165    358  util_10:	acc	'could not allocate buffer for output'
    001702  aa  154 144 040 156
    001703  aa  157 164 040 141
    001704  aa  154 154 157 143
    001705  aa  141 164 145 040
    001706  aa  142 165 146 146
    001707  aa  145 162 040 146
    001710  aa  157 162 040 157
    001711  aa  165 164 160 165
    001712  aa  164 000 000 000
    001713  aa  044 164 056 157    359  util_11:	acc	't.olst -> buffer has forward pointer'
    001714  aa  154 163 164 040
    001715  aa  055 076 040 142
    001716  aa  165 146 146 145
    001717  aa  162 040 150 141
    001720  aa  163 040 146 157
    001721  aa  162 167 141 162
    001722  aa  144 040 160 157
    001723  aa  151 156 164 145
    001724  aa  162 000 000 000
    001725  aa  031 146 162 145    360  util_12:	acc	'free block size too large'
    001726  aa  145 040 142 154
    001727  aa  157 143 153 040
    001730  aa  163 151 172 145
    001731  aa  040 164 157 157
    001732  aa  040 154 141 162
    001733  aa  147 145 000 000
    001734  aa  060 141 164 164    361  util_13:	acc	'attempt to append output to single-message chain'
    001735  aa  145 155 160 164
    001736  aa  040 164 157 040
    001737  aa  141 160 160 145
    001740  aa  156 144 040 157
    001741  aa  165 164 160 165
    001742  aa  164 040 164 157
    001743  aa  040 163 151 156
    001744  aa  147 154 145 055
    001745  aa  155 145 163 163
    001746  aa  141 147 145 040
    001747  aa  143 150 141 151
    001750  aa  156 000 000 000
    001751  aa  054 141 164 164    362  util_14:	acc	'attempt to move data with an invalid address'
    001752  aa  145 155 160 164
    001753  aa  040 164 157 040
    001754  aa  155 157 166 145
    001755  aa  040 144 141 164
    001756  aa  141 040 167 151
    001757  aa  164 150 040 141
    001760  aa  156 040 151 156
    001761  aa  166 141 154 151
    001762  aa  144 040 141 144
    001763  aa  144 162 145 163
    001764  aa  163 000 000 000
                                   363
                                   364
    001765  aa  037 141 164 164    365  hsla_1:	acc	'attempt to modify loc < 1000(8)'
    001766  aa  145 155 160 164
    001767  aa  040 164 157 040
    001770  aa  155 157 144 151
    001771  aa  146 171 040 154
    001772  aa  157 143 040 074
    001773  aa  040 061 060 060
    001774  aa  060 050 070 051
    001775  aa  040 143 157 156    366  hsla_2:	acc	'config op is invalid for channel'
    001776  aa  146 151 147 040
    001777  aa  157 160 040 151
    002000  aa  163 040 151 156
    002001  aa  166 141 154 151
    002002  aa  144 040 146 157
    002003  aa  162 040 143 150
    002004  aa  141 156 156 145
    002005  aa  154 000 000 000
    002006  aa  052 162 145 141    367  hsla_3:	acc	'read tally started with active input chain'
    002007  aa  144 040 164 141
    002010  aa  154 154 171 040
    002011  aa  163 164 141 162
    002012  aa  164 145 144 040
    002013  aa  167 151 164 150
    002014  aa  040 141 143 164
    002015  aa  151 166 145 040
    002016  aa  151 156 160 165
    002017  aa  164 040 143 150
    002020  aa  141 151 156 000
    002021  aa  035 162 145 143    368  hsla_4:	acc	'receive transfer timing error'	h
    002022  aa  145 151 166 145
    002023  aa  040 164 162 141
    002024  aa  156 163 146 145
    002025  aa  162 040 164 151
    002026  aa  155 151 156 147
    002027  aa  040 145 162 162
    002030  aa  157 162 000 000
    002031  aa  022 151 156 160    369  hsla_5:	acc	'input tally runout'
    002032  aa  165 164 040 164
    002033  aa  141 154 154 171
    002034  aa  040 162 165 156
    002035  aa  157 165 164 000
    002036  aa  046 165 156 141    370  hsla_6:	acc	'unable to find cct for modes requested'
    002037  aa  142 154 145 040
    002040  aa  164 157 040 146
    002041  aa  151 156 144 040
    002042  aa  143 143 164 040
    002043  aa  146 157 162 040
    002044  aa  155 157 144 145
    002045  aa  163 040 162 145
    002046  aa  161 165 145 163
    002047  aa  164 145 144 000
    002050  aa  032 170 155 151    371  hsla_7:	acc	'xmit transfer timing error'	h
    002051  aa  164 040 164 162
    002052  aa  141 156 163 146
    002053  aa  145 162 040 164
    002054  aa  151 155 151 156
    002055  aa  147 040 145 162
    002056  aa  162 157 162 000
    002057  aa  034 150 144 143    372  hsla_8:	acc	'hdcw called with no dcw list'
    002060  aa  167 040 143 141
    002061  aa  154 154 145 144
    002062  aa  040 167 151 164
    002063  aa  150 040 156 157
    002064  aa  040 144 143 167
    002065  aa  040 154 151 163
    002066  aa  164 000 000 000
    002067  aa  025 156 157 040    373  hsla_10:	acc	'no sfcm addr for line'
    002070  aa  163 146 143 155
    002071  aa  040 141 144 144
    002072  aa  162 040 146 157
    002073  aa  162 040 154 151
    002074  aa  156 145 000 000
    002075  aa  034 150 157 165    374  hsla_12:	acc	'houtav called with bad chain'
    002076  aa  164 141 166 040
    002077  aa  143 141 154 154
    002100  aa  145 144 040 167
    002101  aa  151 164 150 040
    002102  aa  142 141 144 040
    002103  aa  143 150 141 151
    002104  aa  156 000 000 000
    002105  aa  023 151 156 166    375  hsla_13:	acc	'invalid hsla status'
    002106  aa  141 154 151 144
    002107  aa  040 150 163 154
    002110  aa  141 040 163 164
    002111  aa  141 164 165 163
                                   376
                                   377
    002112  aa  044 156 157 164    378  lsla_1:	acc	'not in xmit mode after output sub-op'
    002113  aa  040 151 156 040
    002114  aa  170 155 151 164
    002115  aa  040 155 157 144
    002116  aa  145 040 141 146
    002117  aa  164 145 162 040
    002120  aa  157 165 164 160
    002121  aa  165 164 040 163
    002122  aa  165 142 055 157
    002123  aa  160 000 000 000
    002124  aa  050 155 157 162    379  lsla_4:	acc	'more than 10 successive re-sync attempts'
    002125  aa  145 040 164 150
    002126  aa  141 156 040 061
    002127  aa  060 040 163 165
    002130  aa  143 143 145 163
    002131  aa  163 151 166 145
    002132  aa  040 162 145 055
    002133  aa  163 171 156 143
    002134  aa  040 141 164 164
    002135  aa  145 155 160 164
    002136  aa  163 000 000 000
    002137  aa  032 163 145 156    380  lsla_5:	acc	'send transfer timing error'	h
    002140  aa  144 040 164 162
    002141  aa  141 156 163 146
    002142  aa  145 162 040 164
    002143  aa  151 155 151 156
    002144  aa  147 040 145 162
    002145  aa  162 157 162 000
    002146  aa  033 165 156 162    381  lsla_8:	acc	'unrecognized receive status'
    002147  aa  145 143 157 147
    002150  aa  156 151 172 145
    002151  aa  144 040 162 145
    002152  aa  143 145 151 166
    002153  aa  145 040 163 164
    002154  aa  141 164 165 163
    002155  aa  051 151 156 160    382  lsla_9:	acc	'input icw status does not agree with flag'
    002156  aa  165 164 040 151
    002157  aa  143 167 040 163
    002160  aa  164 141 164 165
    002161  aa  163 040 144 157
    002162  aa  145 163 040 156
    002163  aa  157 164 040 141
    002164  aa  147 162 145 145
    002165  aa  040 167 151 164
    002166  aa  150 040 146 154
    002167  aa  141 147 000 000
    002170  aa  052 157 165 164    383  lsla_11:	acc	'output icw status does not agree with flag'
    002171  aa  160 165 164 040
    002172  aa  151 143 167 040
    002173  aa  163 164 141 164
    002174  aa  165 163 040 144
    002175  aa  157 145 163 040
    002176  aa  156 157 164 040
    002177  aa  141 147 162 145
    002200  aa  145 040 167 151
    002201  aa  164 150 040 146
    002202  aa  154 141 147 000
                                   384
                                   385
    002203                         386  no_message:
    002203  aa  027 165 156 162    387  	acc	'unrecognized error code'
    002204  aa  145 143 157 147
    002205  aa  156 151 172 145
    002206  aa  144 040 145 162
    002207  aa  162 157 162 040
    002210  aa  143 157 144 145
                                   388
    002211  aa  031 164 151 155    389  init_2:	acc	'timer channel not enabled'
    002212  aa  145 162 040 143
    002213  aa  150 141 156 156
    002214  aa  145 154 040 156
    002215  aa  157 164 040 145
    002216  aa  156 141 142 154
    002217  aa  145 144 000 000
    002220  aa  034 155 157 162    390  init_3:	acc	'more than one dia configured'
    002221  aa  145 040 164 150
    002222  aa  141 156 040 157
    002223  aa  156 145 040 144
    002224  aa  151 141 040 143
    002225  aa  157 156 146 151
    002226  aa  147 165 162 145
    002227  aa  144 000 000 000
    002230  aa  022 144 151 141    391  init_4:	acc	'dia does not exist'
    002231  aa  040 144 157 145
    002232  aa  163 040 156 157
    002233  aa  164 040 145 170
    002234  aa  151 163 164 000
    002235  aa  023 144 151 141    392  init_5:	acc	'dia did not respond'
    002236  aa  040 144 151 144
    002237  aa  040 156 157 164
    002240  aa  040 162 145 163
    002241  aa  160 157 156 144
    002242  aa  033 151 156 166    393  init_6:	acc	'invalid baud rate specified'
    002243  aa  141 154 151 144
    002244  aa  040 142 141 165
    002245  aa  144 040 162 141
    002246  aa  164 145 040 163
    002247  aa  160 145 143 151
    002250  aa  146 151 145 144
    002251  aa  070 143 157 162    394  init_8:	acc	'core image specified more memory than physically present'
    002252  aa  145 040 151 155
    002253  aa  141 147 145 040
    002254  aa  163 160 145 143
    002255  aa  151 146 151 145
    002256  aa  144 040 155 157
    002257  aa  162 145 040 155
    002260  aa  145 155 157 162
    002261  aa  171 040 164 150
    002262  aa  141 156 040 160
    002263  aa  150 171 163 151
    002264  aa  143 141 154 154
    002265  aa  171 040 160 162
    002266  aa  145 163 145 156
    002267  aa  164 000 000 000
    002270  aa  032 154 163 154    395  init_9:	acc	'lsla ^o illegal sync speed'
    002271  aa  141 040 136 157
    002272  aa  040 151 154 154
    002273  aa  145 147 141 154
    002274  aa  040 163 171 156
    002275  aa  143 040 163 160
    002276  aa  145 145 144 000
    002277  aa  040 154 163 154    396  init_10:	acc	'lsla ^o failed ten times to init'
    002300  aa  141 040 136 157
    002301  aa  040 146 141 151
    002302  aa  154 145 144 040
    002303  aa  164 145 156 040
    002304  aa  164 151 155 145
    002305  aa  163 040 164 157
    002306  aa  040 151 156 151
    002307  aa  164 000 000 000
    002310  aa  045 154 163 154    397  init_11:	acc	'lsla ^o speed not equal desired speed'
    002311  aa  141 040 136 157
    002312  aa  040 163 160 145
    002313  aa  145 144 040 156
    002314  aa  157 164 040 145
    002315  aa  161 165 141 154
    002316  aa  040 144 145 163
    002317  aa  151 162 145 144
    002320  aa  040 163 160 145
    002321  aa  145 144 000 000
    002322  aa  034 164 151 155    398  init_12:	acc	'timer switch incorrectly set'
    002323  aa  145 162 040 163
    002324  aa  167 151 164 143
    002325  aa  150 040 151 156
    002326  aa  143 157 162 162
    002327  aa  145 143 164 154
    002330  aa  171 040 163 145
    002331  aa  164 000 000 000
    002332  aa  051 154 163 154    399  init_13:	acc	'lsla ^o, actual config does not match CDT'
    002333  aa  141 040 136 157
    002334  aa  054 040 141 143
    002335  aa  164 165 141 154
    002336  aa  040 143 157 156
    002337  aa  146 151 147 040
    002340  aa  144 157 145 163
    002341  aa  040 156 157 164
    002342  aa  040 155 141 164
    002343  aa  143 150 040 103
    002344  aa  104 124 000 000
    002345  aa  040 160 141 147    400  init_14:	acc	'pager is disabled or inoperative'
    002346  aa  145 162 040 151
    002347  aa  163 040 144 151
    002350  aa  163 141 142 154
    002351  aa  145 144 040 157
    002352  aa  162 040 151 156
    002353  aa  157 160 145 162
    002354  aa  141 164 151 166
    002355  aa  145 000 000 000
    002356  aa  037 165 156 141    401  init_15:	acc	'unable to allocate trace buffer'
    002357  aa  142 154 145 040
    002360  aa  164 157 040 141
    002361  aa  154 154 157 143
    002362  aa  141 164 145 040
    002363  aa  164 162 141 143
    002364  aa  145 040 142 165
    002365  aa  146 146 145 162
    002366  aa  037 165 156 162    402  bad_init:	acc	'unrecognized config status ^s^w'
    002367  aa  145 143 157 147
    002370  aa  156 151 172 145
    002371  aa  144 040 143 157
    002372  aa  156 146 151 147
    002373  aa  040 163 164 141
    002374  aa  164 165 163 040
    002375  aa  136 163 136 167
                                   403
                                   404  	end

NO LITERALS

NAME DEFINITIONS FOR ENTRY POINTS AND SEGDEFS

    002376  5a   000003 000000
    002377  5a   000035 600000
    002400  aa   000000 000000
    002401  55   000011 000002
    002402  5a   000002 400003
    002403  55   000006 000011
    002404  aa  012 157 144 063
    002405  aa  065 065 137 155
    002406  aa  163 147 163 000
    002407  55   000017 000003
    002410  0a   000644 400000
    002411  55   000014 000003
    002412  aa  010 144 151 145         die_list
    002413  aa  137 154 151 163
    002414  aa  164 000 000 000
    002415  55   000026 000011
    002416  0a   000000 400000
    002417  55   000022 000003
    002420  aa  014 164 162 141         trace_modtab
    002421  aa  143 145 137 155
    002422  aa  157 144 164 141
    002423  aa  142 000 000 000
    002424  55   000002 000017
    002425  6a   000000 400002
    002426  55   000031 000003
    002427  aa  014 163 171 155         symbol_table
    002430  aa  142 157 154 137
    002431  aa  164 141 142 154
    002432  aa  145 000 000 000

DEFINITIONS HASH TABLE

    002433  aa   000000 000015
    002434  aa   000000 000000
    002435  aa   000000 000000
    002436  aa   000000 000000
    002437  aa   000000 000000
    002440  aa   000000 000000
    002441  5a   000011 000000
    002442  5a   000026 000000
    002443  aa   000000 000000
    002444  aa   000000 000000
    002445  aa   000000 000000
    002446  5a   000017 000000
    002447  aa   000000 000000
    002450  aa   000000 000000

NO EXTERNAL NAMES

NO TRAP POINTER WORDS

TYPE PAIR BLOCKS

    002451  aa   000001 000000
    002452  aa   000000 000000

INTERNAL EXPRESSION WORDS

    002453  aa   000000 000000
LINKAGE INFORMATION

    000000  aa   000000 000000
    000001  0a   002376 000000
    000002  aa   000000 000000
    000003  aa   000000 000000
    000004  aa   000000 000000
    000005  aa   000000 000000
    000006  22   000010 000010
    000007  a2   000000 000000
SYMBOL INFORMATION

SYMBOL TABLE HEADER

    000000  aa   000000 000001
    000001  aa   163171 155142
    000002  aa   164162 145145
    000003  aa   000000 000004
    000004  aa   000000 111316
    000005  aa   510113 575622
    000006  aa   000000 111335
    000007  aa   722703 037246
    000010  aa   141154 155040
    000011  aa   040040 040040
    000012  aa   000024 000040
    000013  aa   000034 000040
    000014  aa   000044 000100
    000015  aa   000002 000002
    000016  aa   000064 000000
    000017  aa   000000 000245
    000020  aa   000000 000102
    000021  aa   000000 000234
    000022  aa   000237 000102
    000023  aa   000064 000000
    000024  aa   101114 115040
    000025  aa   126145 162163
    000026  aa   151157 156040
    000027  aa   040066 056064
    000030  aa   040040 101160
    000031  aa   162151 154040
    000032  aa   061071 070061
    000033  aa   040040 040040
    000034  aa   110157 154155
    000035  aa   163164 145144
    000036  aa   164056 123171
    000037  aa   163115 141151
    000040  aa   156164 056155
    000041  aa   040040 040040
    000042  aa   040040 040040
    000043  aa   040040 040040
    000044  aa   154151 163164
    000045  aa   040040 040040
    000046  aa   040040 040040
    000047  aa   040040 040040
    000050  aa   040040 040040
    000051  aa   040040 040040
    000052  aa   040040 040040
    000053  aa   040040 040040
    000054  aa   040040 040040
    000055  aa   040040 040040
    000056  aa   040040 040040
    000057  aa   040040 040040
    000060  aa   040040 040040
    000061  aa   040040 040040
    000062  aa   040040 040040
    000063  aa   040040 040040
    000064  aa   000000 000001
    000065  aa   000000 000001
    000066  aa   000072 000040
    000067  aa   113331 137266
    000070  aa   000000 111335
    000071  aa   601670 400000
    000072  aa   076144 165155          >dumps>old>recomp>od355_msgs.alm
    000073  aa   160163 076157
    000074  aa   154144 076162
    000075  aa   145143 157155
    000076  aa   160076 157144
    000077  aa   063065 065137
    000100  aa   155163 147163
    000101  aa   056141 154155
               MULTICS ASSEMBLY CROSS REFERENCE LISTING

   Value        Symbol                   Source file   Line number

        2366    bad_init                 od355_msgs:   292,  402.
        1030    cons_messages            od355_msgs:   171,  277.
         117    diatrc                   od355_msgs:    26,   65.
        1070    dia_1                    od355_msgs:   185,  307.
        1202    dia_10                   od355_msgs:   194,  227,  257,  270,  286,  316.
        1211    dia_11                   od355_msgs:   195,  317.
        1225    dia_12                   od355_msgs:   196,  318.
        1233    dia_13                   od355_msgs:   197,  319.
        1241    dia_14                   od355_msgs:   198,  320.
        1252    dia_15                   od355_msgs:   199,  321.
        1264    dia_16                   od355_msgs:   200,  322.
        1301    dia_17                   od355_msgs:   201,  323.
        1310    dia_18                   od355_msgs:   202,  324.
        1315    dia_19                   od355_msgs:   203,  325.
        1100    dia_2                    od355_msgs:   186,  308.
        1326    dia_20                   od355_msgs:   204,  326.
        1341    dia_21                   od355_msgs:   205,  327.
        1350    dia_22                   od355_msgs:   206,  328.
        1106    dia_3                    od355_msgs:   187,  309.
        1117    dia_4                    od355_msgs:   188,  310.
        1125    dia_5                    od355_msgs:   189,  311.
        1133    dia_6                    od355_msgs:   190,  312.
        1146    dia_7                    od355_msgs:   191,  313.
        1160    dia_8                    od355_msgs:   192,  314.
        1171    dia_9                    od355_msgs:   193,  315.
         712    dia_messages             od355_msgs:   156,  184.
         644    die_list                 od355_msgs:    16,  151.
        1765    hsla_1                   od355_msgs:   262,  365.
        2067    hsla_10                  od355_msgs:   271,  373.
        2075    hsla_12                  od355_msgs:   273,  374.
        2105    hsla_13                  od355_msgs:   274,  375.
        1775    hsla_2                   od355_msgs:   263,  366.
        2006    hsla_3                   od355_msgs:   264,  367.
        2021    hsla_4                   od355_msgs:   265,  368.
        2031    hsla_5                   od355_msgs:   266,  369.
        2036    hsla_6                   od355_msgs:   267,  370.
        2050    hsla_7                   od355_msgs:   268,  371.
        2057    hsla_8                   od355_msgs:   269,  372.
        1013    hsla_messages            od355_msgs:   168,  261.
         555    hsltrc                   od355_msgs:    30,  137.
        2277    init_10                  od355_msgs:   295,  396.
        2310    init_11                  od355_msgs:   296,  397.
        2322    init_12                  od355_msgs:   297,  398.
        2332    init_13                  od355_msgs:   298,  399.
        2345    init_14                  od355_msgs:   299,  400.
        2356    init_15                  od355_msgs:   300,  401.
        2211    init_2                   od355_msgs:   287,  389.
        2220    init_3                   od355_msgs:   288,  390.
        2230    init_4                   od355_msgs:   289,  391.
        2235    init_5                   od355_msgs:   290,  392.
        2242    init_6                   od355_msgs:   291,  393.
        2251    init_8                   od355_msgs:   293,  394.
        2270    init_9                   od355_msgs:   294,  395.
        1032    init_messages            od355_msgs:   177,  285.
        1360    intp_1                   od355_msgs:   210,  331.
        1461    intp_10                  od355_msgs:   219,  340.
        1475    intp_11                  od355_msgs:   220,  341.
        1503    intp_12                  od355_msgs:   221,  342.
        1506    intp_13                  od355_msgs:   222,  343.
        1521    intp_14                  od355_msgs:   223,  344.
        1534    intp_15                  od355_msgs:   224,  345.
        1544    intp_16                  od355_msgs:   225,  346.
        1555    intp_17                  od355_msgs:   226,  347.
        1364    intp_2                   od355_msgs:   211,  332.
        1371    intp_3                   od355_msgs:   212,  333.
        1401    intp_4                   od355_msgs:   213,  334.
        1407    intp_5                   od355_msgs:   214,  335.
        1417    intp_6                   od355_msgs:   215,  253,  336.
        1427    intp_7                   od355_msgs:   216,  237,  254,  337.
        1440    intp_8                   od355_msgs:   217,  338.
        1446    intp_9                   od355_msgs:   218,  339.
         740    intp_messages            od355_msgs:   159,  209.
         310    inttrc                   od355_msgs:    27,   92.
        2112    lsla_1                   od355_msgs:   248,  378.
        2170    lsla_11                  od355_msgs:   258,  383.
        2124    lsla_4                   od355_msgs:   251,  379.
        2137    lsla_5                   od355_msgs:   252,  380.
        2146    lsla_8                   od355_msgs:   255,  381.
        2155    lsla_9                   od355_msgs:   256,  382.
        1000    lsla_messages            od355_msgs:   165,  247.
         450    lsltrc                   od355_msgs:    29,  118.
         256    ms2.10                   od355_msgs:    75,   88.
         272    ms2.11                   od355_msgs:    76,   89.
         302    ms2.12                   od355_msgs:    77,   90.
          16    msg1.1                   od355_msgs:    47,   56.
          25    msg1.2                   od355_msgs:    48,   57.
          35    msg1.3                   od355_msgs:    49,   58.
          44    msg1.4                   od355_msgs:    50,   59.
          55    msg1.5                   od355_msgs:    51,   60.
          63    msg1.6                   od355_msgs:    52,   61.
          72    msg1.7                   od355_msgs:    53,   62.
         105    msg1.8                   od355_msgs:    54,   63.
         133    msg2.1                   od355_msgs:    66,   79.
         142    msg2.2                   od355_msgs:    67,   80.
         152    msg2.3                   od355_msgs:    68,   81.
         160    msg2.4                   od355_msgs:    69,   82.
         176    msg2.5                   od355_msgs:    70,   83.
         211    msg2.6                   od355_msgs:    71,   84.
         227    msg2.7                   od355_msgs:    72,   85.
         242    msg2.8                   od355_msgs:    73,   86.
         250    msg2.9                   od355_msgs:    74,   87.
         315    msg3.1                   od355_msgs:    94,  100.
         325    msg3.2                   od355_msgs:    95,  101.
         335    msg3.3                   od355_msgs:    96,  102.
         350    msg3.4                   od355_msgs:    97,  103.
         360    msg3.5                   od355_msgs:    98,  104.
         373    msg4.1                   od355_msgs:   108,  113.
         407    msg4.2                   od355_msgs:   109,  114.
         422    msg4.3                   od355_msgs:   110,  115.
         436    msg4.4                   od355_msgs:   111,  116.
         457    msg5.1                   od355_msgs:   120,  128.
         466    msg5.2                   od355_msgs:   121,  129.
         500    msg5.3                   od355_msgs:   122,  130.
         507    msg5.4                   od355_msgs:   123,  131.
         521    msg5.5                   od355_msgs:   124,  132.
         530    msg5.6                   od355_msgs:   125,  133.
         543    msg5.7                   od355_msgs:   126,  134.
         562    msg6.1                   od355_msgs:   138,  144.
         576    msg6.2                   od355_msgs:   139,  145.
         606    msg6.3                   od355_msgs:   140,  146.
         615    msg6.4                   od355_msgs:   141,  147.
         627    msg6.5                   od355_msgs:   142,  148.
        2203    no_message               od355_msgs:   272,  278,  282,  386.
           6    skdtrc                   od355_msgs:    25,   46.
        1051    sked_1                   od355_msgs:   181,  303.
        1060    sked_2                   od355_msgs:   182,  304.
         710    sked_messages            od355_msgs:   153,  180.
           0    trace_modtab             od355_msgs:    15,   24.
        1031    trac_messages            od355_msgs:   174,  281.
        1570    util_1                   od355_msgs:   231,  350.
        1701    util_10                  od355_msgs:   240,  358.
        1713    util_11                  od355_msgs:   241,  359.
        1725    util_12                  od355_msgs:   242,  360.
        1734    util_13                  od355_msgs:   243,  361.
        1751    util_14                  od355_msgs:   244,  362.
        1600    util_2                   od355_msgs:   232,  351.
        1612    util_3                   od355_msgs:   233,  352.
        1625    util_4                   od355_msgs:   234,  353.
        1636    util_5                   od355_msgs:   235,  354.
        1647    util_6                   od355_msgs:   236,  355.
        1656    util_8                   od355_msgs:   238,  249,  356.
        1670    util_9                   od355_msgs:   239,  250,  357.
         762    util_messages            od355_msgs:   162,  230.
         367    utltrc                   od355_msgs:    28,  107.


NO FATAL ERRORS


                                          -----------------------------------------------------------


Historical Background

This edition of the Multics software materials and documentation is provided and donated
to Massachusetts Institute of Technology by Group BULL including BULL HN Information Systems Inc.
as a contribution to computer science knowledge.
This donation is made also to give evidence of the common contributions of Massachusetts Institute of Technology,
Bell Laboratories, General Electric, Honeywell Information Systems Inc., Honeywell BULL Inc., Groupe BULL
and BULL HN Information Systems Inc. to the development of this operating system.
Multics development was initiated by Massachusetts Institute of Technology Project MAC (1963-1970),
renamed the MIT Laboratory for Computer Science and Artificial Intelligence in the mid 1970s, under the leadership
of Professor Fernando Jose Corbato. Users consider that Multics provided the best software architecture
for managing computer hardware properly and for executing programs. Many subsequent operating systems
incorporated Multics principles.
Multics was distributed in 1975 to 2000 by Group Bull in Europe , and in the U.S. by Bull HN Information Systems Inc.,
as successor in interest by change in name only to Honeywell Bull Inc. and Honeywell Information Systems Inc. .

                                          -----------------------------------------------------------

Permission to use, copy, modify, and distribute these programs and their documentation for any purpose and without
fee is hereby granted,provided that the below copyright notice and historical background appear in all copies
and that both the copyright notice and historical background and this permission notice appear in supporting
documentation, and that the names of MIT, HIS, BULL or BULL HN not be used in advertising or publicity pertaining
to distribution of the programs without specific prior written permission.
    Copyright 1972 by Massachusetts Institute of Technology and Honeywell Information Systems Inc.
    Copyright 2006 by BULL HN Information Systems Inc.
    Copyright 2006 by Bull SAS
    All Rights Reserved
