ASSEMBLY LISTING OF SEGMENT >special_ldd>on>09/12/83>opc_status_table_.alm
ASSEMBLED ON:	09/12/83  1113.4 mst Mon
OPTIONS USED:	list
ASSEMBLED BY:	ALM Version  6.4  April 1981
ASSEMBLER CREATED:	11/03/82  1423.6 mst Wed

                                     1  " ***********************************************************
                                     2  " *                                                         *
                                     3  " * Copyright, (C) Honeywell Information Systems Inc., 1982 *
                                     4  " *                                                         *
                                     5  " ***********************************************************
                                     6  " OPC_STATUS_TABLE_ - Status Tables for Operator's Console
                                     7  "	coded August 1976 by Larry Johnson
                                     8  "	modified 4/79 by R.J.C. Kissel to add major status 0.
                                     9
                                    10  "  ******************************************************
                                    11  "  *                                                    *
                                    12  "  *                                                    *
                                    13  "  * Copyright (c) 1972 by Massachusetts Institute of   *
                                    14  "  * Technology and Honeywell Information Systems, Inc. *
                                    15  "  *                                                    *
                                    16  "  *                                                    *
                                    17  "  ******************************************************
                                    18
                                    19
                                    20  	include	status_table
                                   1-1  " Macro definitions for peripheral status table generation.
                                   1-2  "	created 12/1/74 by Noel I. Morris
                                   1-3  "	last modified 6/10/75 by Noel I. Morris
                                   1-4  "	last modified 4/79 by R.J.C. Kissel to make alm macros instead of mexp.
                                   1-5  "	last modified 7/83 by E. N. Kittlitz to add eurc_nobk.
                                   1-6
                                   1-7  	macro	status_table
                              1    1-8
                              2    1-9  	name	&1_status_table_
                              3   1-10
                              4   1-11  	segdef	&1_status_table_
                              5   1-12
                              6   1-13
                              7   1-14  	bool	bk,400000		retry previous operation
                              8   1-15  	bool	in,200000		set backup flag if status.initiate
                              9   1-16  	bool	rp,100000		report this error online
                             10   1-17  	bool	hlt,040000	this error stops device
                             11   1-18  	bool	eurc_nobk,020000	ignore bk if eurc connection
                             12   1-19
                             13   1-20  &1_status_table_:
                             14   1-21
                             15   1-22  &(2&=&i,0&[	zero	0,0
                             16   1-23  &;	zero	m&x,lm&x
                             17   1-24  	set	lm&x,0
                             18   1-25  &]&)
                             19   1-26
                             20   1-27  &end
                                  1-28
                                  1-29
                                  1-30  	macro	status_entry
                              1   1-31
                              2   1-32  m&1:	aci	"&2",24
                              3   1-33
                              4   1-34  &end
                                  1-35
                                  1-36
                                  1-37  	macro	substat_entry
                              1   1-38  	set	lm&1,lm&1+1
                              2   1-39  	aci	"&2",6
                              3   1-40  	vfd	o18/&3
                              4   1-41  	aci	"&4",32
                              5   1-42
                              6   1-43  &end
                                  1-44
                                  1-45
                                    21
                                    22  "
                                    23
                                    24  	status_table	opc,(1,0,1,1,0,1,0,0,0,0,0,0,0,0,0,0)

    000000                              	name	opc_status_table_

                        000000          	segdef	opc_status_table_


                        400000          	bool	bk,400000		retry previous operation
                        200000          	bool	in,200000		set backup flag if status.initiate
                        100000          	bool	rp,100000		report this error online
                        040000          	bool	hlt,040000	this error stops device
                        020000          	bool	eurc_nobk,020000	ignore bk if eurc connection

    000000                              opc_status_table_:

    000000  0a   000020 000001          	zero	m1,lm1
                        000000          	set	lm1,0
    000001  aa   000000 000000          	zero	0,0
    000002  0a   000041 000001          	zero	m3,lm3
                        000000          	set	lm3,0
    000003  0a   000062 000006          	zero	m4,lm4
                        000000          	set	lm4,0
    000004  aa   000000 000000          	zero	0,0
    000005  0a   000172 000001          	zero	m6,lm6
                        000000          	set	lm6,0
    000006  aa   000000 000000          	zero	0,0
    000007  aa   000000 000000          	zero	0,0
    000010  aa   000000 000000          	zero	0,0
    000011  aa   000000 000000          	zero	0,0
    000012  aa   000000 000000          	zero	0,0
    000013  aa   000000 000000          	zero	0,0
    000014  aa   000000 000000          	zero	0,0
    000015  aa   000000 000000          	zero	0,0
    000016  aa   000000 000000          	zero	0,0
    000017  aa   000000 000000          	zero	0,0


                                    25
                                    26  "
                                    27  	status_entry	1,(Channel Ready)

    000020  aa  103 150 141 156         m1:	aci	"Channel Ready",24
    000021  aa  156 145 154 040
    000022  aa  122 145 141 144
    000023  aa  171 040 040 040
    000024  aa  040 040 040 040
    000025  aa  040 040 040 040

                                    28
                                    29  	substat_entry	1,000000,,(No substatus)
                        000001          	set	lm1,lm1+1
    000026  aa  060 060 060 060         	aci	"000000",6
    000027  aa  060 060 000 000
    000030  aa   000000 000000          	vfd	o18/
    000031  aa  116 157 040 163         	aci	"No substatus",32
    000032  aa  165 142 163 164
    000033  aa  141 164 165 163
    000034  aa  040 040 040 040
    000035  aa  040 040 040 040
    000036  aa  040 040 040 040
    000037  aa  040 040 040 040
    000040  aa  040 040 040 040

                                    30
                                    31  "
                                    32
                                    33  	status_entry	3,(Device Attention)

    000041  aa  104 145 166 151         m3:	aci	"Device Attention",24
    000042  aa  143 145 040 101
    000043  aa  164 164 145 156
    000044  aa  164 151 157 156
    000045  aa  040 040 040 040
    000046  aa  040 040 040 040

                                    34
                                    35  	substat_entry	3,000000,0,()
                        000001          	set	lm3,lm3+1
    000047  aa  060 060 060 060         	aci	"000000",6
    000050  aa  060 060 000 000
    000051  aa   000000 000000          	vfd	o18/0
    000052  aa  040 040 040 040         	aci	"",32
    000053  aa  040 040 040 040
    000054  aa  040 040 040 040
    000055  aa  040 040 040 040
    000056  aa  040 040 040 040
    000057  aa  040 040 040 040
    000060  aa  040 040 040 040
    000061  aa  040 040 040 040

                                    36
                                    37  "
                                    38
                                    39  	status_entry	4,(Data Alert)

    000062  aa  104 141 164 141         m4:	aci	"Data Alert",24
    000063  aa  040 101 154 145
    000064  aa  162 164 040 040
    000065  aa  040 040 040 040
    000066  aa  040 040 040 040
    000067  aa  040 040 040 040

                                    40
                                    41  	substat_entry	4,000000,0,(Transfer timing error)
                        000001          	set	lm4,lm4+1
    000070  aa  060 060 060 060         	aci	"000000",6
    000071  aa  060 060 000 000
    000072  aa   000000 000000          	vfd	o18/0
    000073  aa  124 162 141 156         	aci	"Transfer timing error",32
    000074  aa  163 146 145 162
    000075  aa  040 164 151 155
    000076  aa  151 156 147 040
    000077  aa  145 162 162 157
    000100  aa  162 040 040 040
    000101  aa  040 040 040 040
    000102  aa  040 040 040 040

                                    42  	substat_entry	4,0X0010,0,(Transmission parity error)
                        000002          	set	lm4,lm4+1
    000103  aa  060 130 060 060         	aci	"0X0010",6
    000104  aa  061 060 000 000
    000105  aa   000000 000000          	vfd	o18/0
    000106  aa  124 162 141 156         	aci	"Transmission parity error",32
    000107  aa  163 155 151 163
    000110  aa  163 151 157 156
    000111  aa  040 160 141 162
    000112  aa  151 164 171 040
    000113  aa  145 162 162 157
    000114  aa  162 040 040 040
    000115  aa  040 040 040 040

                                    43  	substat_entry	4,000100,0,(Operator input error)
                        000003          	set	lm4,lm4+1
    000116  aa  060 060 060 061         	aci	"000100",6
    000117  aa  060 060 000 000
    000120  aa   000000 000000          	vfd	o18/0
    000121  aa  117 160 145 162         	aci	"Operator input error",32
    000122  aa  141 164 157 162
    000123  aa  040 151 156 160
    000124  aa  165 164 040 145
    000125  aa  162 162 157 162
    000126  aa  040 040 040 040
    000127  aa  040 040 040 040
    000130  aa  040 040 040 040

                                    44  	substat_entry	4,001000,0,(Operator distracted)
                        000004          	set	lm4,lm4+1
    000131  aa  060 060 061 060         	aci	"001000",6
    000132  aa  060 060 000 000
    000133  aa   000000 000000          	vfd	o18/0
    000134  aa  117 160 145 162         	aci	"Operator distracted",32
    000135  aa  141 164 157 162
    000136  aa  040 144 151 163
    000137  aa  164 162 141 143
    000140  aa  164 145 144 040
    000141  aa  040 040 040 040
    000142  aa  040 040 040 040
    000143  aa  040 040 040 040

                                    45  	substat_entry	4,0100X0,0,(Incorrect format)
                        000005          	set	lm4,lm4+1
    000144  aa  060 061 060 060         	aci	"0100X0",6
    000145  aa  130 060 000 000
    000146  aa   000000 000000          	vfd	o18/0
    000147  aa  111 156 143 157         	aci	"Incorrect format",32
    000150  aa  162 162 145 143
    000151  aa  164 040 146 157
    000152  aa  162 155 141 164
    000153  aa  040 040 040 040
    000154  aa  040 040 040 040
    000155  aa  040 040 040 040
    000156  aa  040 040 040 040

                                    46  	substat_entry	4,100000,0,(Message length alert)
                        000006          	set	lm4,lm4+1
    000157  aa  061 060 060 060         	aci	"100000",6
    000160  aa  060 060 000 000
    000161  aa   000000 000000          	vfd	o18/0
    000162  aa  115 145 163 163         	aci	"Message length alert",32
    000163  aa  141 147 145 040
    000164  aa  154 145 156 147
    000165  aa  164 150 040 141
    000166  aa  154 145 162 164
    000167  aa  040 040 040 040
    000170  aa  040 040 040 040
    000171  aa  040 040 040 040

                                    47
                                    48  "
                                    49
                                    50  	status_entry	6,(Command Reject)

    000172  aa  103 157 155 155         m6:	aci	"Command Reject",24
    000173  aa  141 156 144 040
    000174  aa  122 145 152 145
    000175  aa  143 164 040 040
    000176  aa  040 040 040 040
    000177  aa  040 040 040 040

                                    51
                                    52  	substat_entry	6,000001,0,(Invalid instruction code)
                        000001          	set	lm6,lm6+1
    000200  aa  060 060 060 060         	aci	"000001",6
    000201  aa  060 061 000 000
    000202  aa   000000 000000          	vfd	o18/0
    000203  aa  111 156 166 141         	aci	"Invalid instruction code",32
    000204  aa  154 151 144 040
    000205  aa  151 156 163 164
    000206  aa  162 165 143 164
    000207  aa  151 157 156 040
    000210  aa  143 157 144 145
    000211  aa  040 040 040 040
    000212  aa  040 040 040 040

                                    53
                                    54
                                    55  	end

NO LITERALS

NAME DEFINITIONS FOR ENTRY POINTS AND SEGDEFS

    000214  5a   000003 000000
    000215  5a   000032 600000
    000216  aa   000000 000000
    000217  55   000013 000002
    000220  5a   000002 400003
    000221  55   000006 000013
    000222  aa  021 157 160 143
    000223  aa  137 163 164 141
    000224  aa  164 165 163 137
    000225  aa  164 141 142 154
    000226  aa  145 137 000 000
    000227  55   000023 000003
    000230  0a   000000 400000
    000231  55   000016 000003
    000232  aa  021 157 160 143         opc_status_table_
    000233  aa  137 163 164 141
    000234  aa  164 165 163 137
    000235  aa  164 141 142 154
    000236  aa  145 137 000 000
    000237  55   000002 000013
    000240  6a   000000 400002
    000241  55   000026 000003
    000242  aa  014 163 171 155         symbol_table
    000243  aa  142 157 154 137
    000244  aa  164 141 142 154
    000245  aa  145 000 000 000

DEFINITIONS HASH TABLE

    000246  aa   000000 000015
    000247  aa   000000 000000
    000250  aa   000000 000000
    000251  aa   000000 000000
    000252  aa   000000 000000
    000253  aa   000000 000000
    000254  aa   000000 000000
    000255  5a   000023 000000
    000256  aa   000000 000000
    000257  5a   000013 000000
    000260  aa   000000 000000
    000261  aa   000000 000000
    000262  aa   000000 000000
    000263  aa   000000 000000

NO EXTERNAL NAMES

NO TRAP POINTER WORDS

TYPE PAIR BLOCKS

    000264  aa   000001 000000
    000265  aa   000000 000000

INTERNAL EXPRESSION WORDS

LINKAGE INFORMATION

    000000  aa   000000 000000
    000001  0a   000214 000000
    000002  aa   000000 000000
    000003  aa   000000 000000
    000004  aa   000000 000000
    000005  aa   000000 000000
    000006  22   000010 000010
    000007  a2   000000 000000
SYMBOL INFORMATION

SYMBOL TABLE HEADER

    000000  aa   000000 000001
    000001  aa   163171 155142
    000002  aa   164162 145145
    000003  aa   000000 000004
    000004  aa   000000 111316
    000005  aa   510113 575622
    000006  aa   000000 112130
    000007  aa   002535 611476
    000010  aa   141154 155040
    000011  aa   040040 040040
    000012  aa   000024 000040
    000013  aa   000034 000040
    000014  aa   000044 000100
    000015  aa   000002 000002
    000016  aa   000064 000000
    000017  aa   000000 000153
    000020  aa   000000 000126
    000021  aa   000000 000141
    000022  aa   000144 000126
    000023  aa   000064 000000
    000024  aa   101114 115040
    000025  aa   126145 162163
    000026  aa   151157 156040
    000027  aa   040066 056064
    000030  aa   040040 101160
    000031  aa   162151 154040
    000032  aa   061071 070061
    000033  aa   040040 040040
    000034  aa   107112 157150
    000035  aa   156163 157156
    000036  aa   056123 171163
    000037  aa   115141 151156
    000040  aa   164056 141040
    000041  aa   040040 040040
    000042  aa   040040 040040
    000043  aa   040040 040040
    000044  aa   154151 163164
    000045  aa   040040 040040
    000046  aa   040040 040040
    000047  aa   040040 040040
    000050  aa   040040 040040
    000051  aa   040040 040040
    000052  aa   040040 040040
    000053  aa   040040 040040
    000054  aa   040040 040040
    000055  aa   040040 040040
    000056  aa   040040 040040
    000057  aa   040040 040040
    000060  aa   040040 040040
    000061  aa   040040 040040
    000062  aa   040040 040040
    000063  aa   040040 040040
    000064  aa   000000 000001
    000065  aa   000000 000002
    000066  aa   000076 000056
    000067  aa   121247 676070
    000070  aa   000000 112127
    000071  aa   760253 000000
    000072  aa   000112 000056
    000073  aa   121247 673576
    000074  aa   000000 112127
    000075  aa   744274 000000
    000076  aa   076163 160145          >special_ldd>on>09/12/83>opc_status_table_.alm
    000077  aa   143151 141154
    000100  aa   137154 144144
    000101  aa   076157 156076
    000102  aa   060071 057061
    000103  aa   062057 070063
    000104  aa   076157 160143
    000105  aa   137163 164141
    000106  aa   164165 163137
    000107  aa   164141 142154
    000110  aa   145137 056141
    000111  aa   154155 040040
    000112  aa   076163 160145          >special_ldd>on>09/12/83>status_table.incl.alm
    000113  aa   143151 141154
    000114  aa   137154 144144
    000115  aa   076157 156076
    000116  aa   060071 057061
    000117  aa   062057 070063
    000120  aa   076163 164141
    000121  aa   164165 163137
    000122  aa   164141 142154
    000123  aa   145056 151156
    000124  aa   143154 056141
    000125  aa   154155 040040
               MULTICS ASSEMBLY CROSS REFERENCE LISTING

   Value        Symbol                   Source file   Line number

      400000    bk                       opc_status_table_:   24.
       20000    eurc_nobk                opc_status_table_:   24.
       40000    hlt                      opc_status_table_:   24.
      200000    in                       opc_status_table_:   24.
           1    lm1                      opc_status_table_:   24,   29.
           1    lm3                      opc_status_table_:   24,   35.
           6    lm4                      opc_status_table_:   24,   41,   42,   43,   44,   45,   46.
           1    lm6                      opc_status_table_:   24,   52.
          20    m1                       opc_status_table_:   24,   27.
          41    m3                       opc_status_table_:   24,   33.
          62    m4                       opc_status_table_:   24,   39.
         172    m6                       opc_status_table_:   24,   50.
           0    opc_status_table_        opc_status_table_:   24.
      100000    rp                       opc_status_table_:   24.


NO FATAL ERRORS


                                          -----------------------------------------------------------


Historical Background

This edition of the Multics software materials and documentation is provided and donated
to Massachusetts Institute of Technology by Group BULL including BULL HN Information Systems Inc.
as a contribution to computer science knowledge.
This donation is made also to give evidence of the common contributions of Massachusetts Institute of Technology,
Bell Laboratories, General Electric, Honeywell Information Systems Inc., Honeywell BULL Inc., Groupe BULL
and BULL HN Information Systems Inc. to the development of this operating system.
Multics development was initiated by Massachusetts Institute of Technology Project MAC (1963-1970),
renamed the MIT Laboratory for Computer Science and Artificial Intelligence in the mid 1970s, under the leadership
of Professor Fernando Jose Corbato. Users consider that Multics provided the best software architecture
for managing computer hardware properly and for executing programs. Many subsequent operating systems
incorporated Multics principles.
Multics was distributed in 1975 to 2000 by Group Bull in Europe , and in the U.S. by Bull HN Information Systems Inc.,
as successor in interest by change in name only to Honeywell Bull Inc. and Honeywell Information Systems Inc. .

                                          -----------------------------------------------------------

Permission to use, copy, modify, and distribute these programs and their documentation for any purpose and without
fee is hereby granted,provided that the below copyright notice and historical background appear in all copies
and that both the copyright notice and historical background and this permission notice appear in supporting
documentation, and that the names of MIT, HIS, BULL or BULL HN not be used in advertising or publicity pertaining
to distribution of the programs without specific prior written permission.
    Copyright 1972 by Massachusetts Institute of Technology and Honeywell Information Systems Inc.
    Copyright 2006 by BULL HN Information Systems Inc.
    Copyright 2006 by Bull SAS
    All Rights Reserved
