ASSEMBLY LISTING OF SEGMENT >special_ldd>temp>as>pnt_manager_.alm
ASSEMBLED ON:	12/05/84  1100.4 mst Wed
OPTIONS USED:	list
ASSEMBLED BY:	ALM Version  6.6  November 1982
ASSEMBLER CREATED:	09/21/83  1227.3 mst Wed

                                     1  " ***********************************************************
                                     2  " *                                                         *
                                     3  " * Copyright, (C) Honeywell Information Systems Inc., 1984 *
                                     4  " *                                                         *
                                     5  " ***********************************************************
    000000                           6  	name	pnt_manager_
                                     7
                                     8
                                     9  	macro	tv
                              1     10  	segdef	&1
                              2     11  &1:	getlp
                              3     12  	call6  	&2	" this is necessary since we are calling a gate
                              4     13  	&end
                                    14
                                    15
                                    16  	tv add_acl_entries,pnt_fs_gate_$add_acl_entries
                        000000          	segdef	add_acl_entries
    000000  aa  7 00046 2721 20         add_acl_entries:	getlp
    000001  4a  4 00010 7131 20         	call6  	pnt_fs_gate_$add_acl_entries	" this is necessary since we are calling a gate
                                    17  	tv add_entry,pnt_admin_gate_$add_entry
                        000002          	segdef	add_entry
    000002  aa  7 00046 2721 20         add_entry:	getlp
    000003  4a  4 00012 7131 20         	call6  	pnt_admin_gate_$add_entry	" this is necessary since we are calling a gate
                                    18  	tv admin_get_entry,pnt_admin_gate_$admin_get_entry
                        000004          	segdef	admin_get_entry
    000004  aa  7 00046 2721 20         admin_get_entry:	getlp
    000005  4a  4 00014 7131 20         	call6  	pnt_admin_gate_$admin_get_entry	" this is necessary since we are calling a gate
                                    19  	tv chname_file,pnt_fs_gate_$chname_file
                        000006          	segdef	chname_file
    000006  aa  7 00046 2721 20         chname_file:	getlp
    000007  4a  4 00016 7131 20         	call6  	pnt_fs_gate_$chname_file	" this is necessary since we are calling a gate
                                    20  	tv copy,pnt_admin_gate_$copy
                        000010          	segdef	copy
    000010  aa  7 00046 2721 20         copy:	getlp
    000011  4a  4 00020 7131 20         	call6  	pnt_admin_gate_$copy	" this is necessary since we are calling a gate
                                    21  	tv create,pnt_admin_gate_$create
                        000012          	segdef	create
    000012  aa  7 00046 2721 20         create:	getlp
    000013  4a  4 00022 7131 20         	call6  	pnt_admin_gate_$create	" this is necessary since we are calling a gate
                                    22  	tv delete,pnt_admin_gate_$delete
                        000014          	segdef	delete
    000014  aa  7 00046 2721 20         delete:	getlp
    000015  4a  4 00024 7131 20         	call6  	pnt_admin_gate_$delete	" this is necessary since we are calling a gate
                                    23  	tv delete_acl_entries,pnt_fs_gate_$delete_acl_entries
                        000016          	segdef	delete_acl_entries
    000016  aa  7 00046 2721 20         delete_acl_entries:	getlp
    000017  4a  4 00026 7131 20         	call6  	pnt_fs_gate_$delete_acl_entries	" this is necessary since we are calling a gate
                                    24  	tv get_abs_entry,pnt_admin_gate_$get_abs_entry
                        000020          	segdef	get_abs_entry
    000020  aa  7 00046 2721 20         get_abs_entry:	getlp
    000021  4a  4 00030 7131 20         	call6  	pnt_admin_gate_$get_abs_entry	" this is necessary since we are calling a gate
                                    25  	tv get_entry,pnt_admin_gate_$admin_get_entry
                        000022          	segdef	get_entry
    000022  aa  7 00046 2721 20         get_entry:	getlp
    000023  4a  4 00014 7131 20         	call6  	pnt_admin_gate_$admin_get_entry	" this is necessary since we are calling a gate
                                    26  	tv get_network_password,pnt_network_gate_$get_network_password
                        000024          	segdef	get_network_password
    000024  aa  7 00046 2721 20         get_network_password:	getlp
    000025  4a  4 00032 7131 20         	call6  	pnt_network_gate_$get_network_password	" this is necessary since we are calling a gate
                                    27  	tv list_acl,pnt_fs_gate_$list_acl
                        000026          	segdef	list_acl
    000026  aa  7 00046 2721 20         list_acl:	getlp
    000027  4a  4 00034 7131 20         	call6  	pnt_fs_gate_$list_acl	" this is necessary since we are calling a gate
                                    28  	tv login_get_entry,pnt_login_gate_$login_get_entry
                        000030          	segdef	login_get_entry
    000030  aa  7 00046 2721 20         login_get_entry:	getlp
    000031  4a  4 00036 7131 20         	call6  	pnt_login_gate_$login_get_entry	" this is necessary since we are calling a gate
                                    29  	tv network_get_entry,pnt_network_gate_$network_get_entry
                        000032          	segdef	network_get_entry
    000032  aa  7 00046 2721 20         network_get_entry:	getlp
    000033  4a  4 00040 7131 20         	call6  	pnt_network_gate_$network_get_entry	" this is necessary since we are calling a gate
                                    30  	tv priv_get_abs_entry,pnt_priv_gate_$priv_get_abs_entry
                        000034          	segdef	priv_get_abs_entry
    000034  aa  7 00046 2721 20         priv_get_abs_entry:	getlp
    000035  4a  4 00042 7131 20         	call6  	pnt_priv_gate_$priv_get_abs_entry	" this is necessary since we are calling a gate
                                    31  	tv priv_get_entry,pnt_priv_gate_$priv_get_entry
                        000036          	segdef	priv_get_entry
    000036  aa  7 00046 2721 20         priv_get_entry:	getlp
    000037  4a  4 00044 7131 20         	call6  	pnt_priv_gate_$priv_get_entry	" this is necessary since we are calling a gate
                                    32  	tv remove_entry,pnt_admin_gate_$remove_entry
                        000040          	segdef	remove_entry
    000040  aa  7 00046 2721 20         remove_entry:	getlp
    000041  4a  4 00046 7131 20         	call6  	pnt_admin_gate_$remove_entry	" this is necessary since we are calling a gate
                                    33  	tv replace_acl,pnt_fs_gate_$replace_acl
                        000042          	segdef	replace_acl
    000042  aa  7 00046 2721 20         replace_acl:	getlp
    000043  4a  4 00050 7131 20         	call6  	pnt_fs_gate_$replace_acl	" this is necessary since we are calling a gate
                                    34  	tv table_data,pnt_admin_gate_$table_data
                        000044          	segdef	table_data
    000044  aa  7 00046 2721 20         table_data:	getlp
    000045  4a  4 00052 7131 20         	call6  	pnt_admin_gate_$table_data	" this is necessary since we are calling a gate
                                    35  	tv test,test_pnt_manager_$test_pnt_manager_
                        000046          	segdef	test
    000046  aa  7 00046 2721 20         test:	getlp
    000047  4a  4 00054 7131 20         	call6  	test_pnt_manager_$test_pnt_manager_	" this is necessary since we are calling a gate
                                    36  	tv update_entry,pnt_admin_gate_$update_entry
                        000050          	segdef	update_entry
    000050  aa  7 00046 2721 20         update_entry:	getlp
    000051  4a  4 00056 7131 20         	call6  	pnt_admin_gate_$update_entry	" this is necessary since we are calling a gate
                                    37  	tv validate,pnt_fs_gate_$validate
                        000052          	segdef	validate
    000052  aa  7 00046 2721 20         validate:	getlp
    000053  4a  4 00060 7131 20         	call6  	pnt_fs_gate_$validate	" this is necessary since we are calling a gate
                                    38  	tv validate_entry,pnt_network_gate_$validate_entry
                        000054          	segdef	validate_entry
    000054  aa  7 00046 2721 20         validate_entry:	getlp
    000055  4a  4 00062 7131 20         	call6  	pnt_network_gate_$validate_entry	" this is necessary since we are calling a gate
                                    39  	end

NO LITERALS

NAME DEFINITIONS FOR ENTRY POINTS AND SEGDEFS

    000056  5a   000003 000000
    000057  5a   000250 600000
    000060  aa   000000 000000
    000061  55   000012 000002
    000062  5a   000002 400003
    000063  55   000006 000012
    000064  aa  014 160 156 164
    000065  aa  137 155 141 156
    000066  aa  141 147 145 162
    000067  aa  137 000 000 000
    000070  55   000021 000003
    000071  0a   000054 400000
    000072  55   000015 000003
    000073  aa  016 166 141 154         validate_entry
    000074  aa  151 144 141 164
    000075  aa  145 137 145 156
    000076  aa  164 162 171 000
    000077  55   000027 000012
    000100  0a   000052 400000
    000101  55   000024 000003
    000102  aa  010 166 141 154         validate
    000103  aa  151 144 141 164
    000104  aa  145 000 000 000
    000105  55   000036 000021
    000106  0a   000050 400000
    000107  55   000032 000003
    000110  aa  014 165 160 144         update_entry
    000111  aa  141 164 145 137
    000112  aa  145 156 164 162
    000113  aa  171 000 000 000
    000114  55   000043 000027
    000115  0a   000046 400000
    000116  55   000041 000003
    000117  aa  004 164 145 163         test
    000120  aa  164 000 000 000
    000121  55   000051 000036
    000122  0a   000044 400000
    000123  55   000046 000003
    000124  aa  012 164 141 142         table_data
    000125  aa  154 145 137 144
    000126  aa  141 164 141 000
    000127  55   000057 000043
    000130  0a   000042 400000
    000131  55   000054 000003
    000132  aa  013 162 145 160         replace_acl
    000133  aa  154 141 143 145
    000134  aa  137 141 143 154
    000135  55   000066 000051
    000136  0a   000040 400000
    000137  55   000062 000003
    000140  aa  014 162 145 155         remove_entry
    000141  aa  157 166 145 137
    000142  aa  145 156 164 162
    000143  aa  171 000 000 000
    000144  55   000075 000057
    000145  0a   000036 400000
    000146  55   000071 000003
    000147  aa  016 160 162 151         priv_get_entry
    000150  aa  166 137 147 145
    000151  aa  164 137 145 156
    000152  aa  164 162 171 000
    000153  55   000105 000066
    000154  0a   000034 400000
    000155  55   000100 000003
    000156  aa  022 160 162 151         priv_get_abs_entry
    000157  aa  166 137 147 145
    000160  aa  164 137 141 142
    000161  aa  163 137 145 156
    000162  aa  164 162 171 000
    000163  55   000115 000075
    000164  0a   000032 400000
    000165  55   000110 000003
    000166  aa  021 156 145 164         network_get_entry
    000167  aa  167 157 162 153
    000170  aa  137 147 145 164
    000171  aa  137 145 156 164
    000172  aa  162 171 000 000
    000173  55   000124 000105
    000174  0a   000030 400000
    000175  55   000120 000003
    000176  aa  017 154 157 147         login_get_entry
    000177  aa  151 156 137 147
    000200  aa  145 164 137 145
    000201  aa  156 164 162 171
    000202  55   000132 000115
    000203  0a   000026 400000
    000204  55   000127 000003
    000205  aa  010 154 151 163         list_acl
    000206  aa  164 137 141 143
    000207  aa  154 000 000 000
    000210  55   000143 000124
    000211  0a   000024 400000
    000212  55   000135 000003
    000213  aa  024 147 145 164         get_network_password
    000214  aa  137 156 145 164
    000215  aa  167 157 162 153
    000216  aa  137 160 141 163
    000217  aa  163 167 157 162
    000220  aa  144 000 000 000
    000221  55   000151 000132
    000222  0a   000022 400000
    000223  55   000146 000003
    000224  aa  011 147 145 164         get_entry
    000225  aa  137 145 156 164
    000226  aa  162 171 000 000
    000227  55   000160 000143
    000230  0a   000020 400000
    000231  55   000154 000003
    000232  aa  015 147 145 164         get_abs_entry
    000233  aa  137 141 142 163
    000234  aa  137 145 156 164
    000235  aa  162 171 000 000
    000236  55   000170 000151
    000237  0a   000016 400000
    000240  55   000163 000003
    000241  aa  022 144 145 154         delete_acl_entries
    000242  aa  145 164 145 137
    000243  aa  141 143 154 137
    000244  aa  145 156 164 162
    000245  aa  151 145 163 000
    000246  55   000175 000160
    000247  0a   000014 400000
    000250  55   000173 000003
    000251  aa  006 144 145 154         delete
    000252  aa  145 164 145 000
    000253  55   000202 000170
    000254  0a   000012 400000
    000255  55   000200 000003
    000256  aa  006 143 162 145         create
    000257  aa  141 164 145 000
    000260  55   000207 000175
    000261  0a   000010 400000
    000262  55   000205 000003
    000263  aa  004 143 157 160         copy
    000264  aa  171 000 000 000
    000265  55   000215 000202
    000266  0a   000006 400000
    000267  55   000212 000003
    000270  aa  013 143 150 156         chname_file
    000271  aa  141 155 145 137
    000272  aa  146 151 154 145
    000273  55   000224 000207
    000274  0a   000004 400000
    000275  55   000220 000003
    000276  aa  017 141 144 155         admin_get_entry
    000277  aa  151 156 137 147
    000300  aa  145 164 137 145
    000301  aa  156 164 162 171
    000302  55   000232 000215
    000303  0a   000002 400000
    000304  55   000227 000003
    000305  aa  011 141 144 144         add_entry
    000306  aa  137 145 156 164
    000307  aa  162 171 000 000
    000310  55   000241 000224
    000311  0a   000000 400000
    000312  55   000235 000003
    000313  aa  017 141 144 144         add_acl_entries
    000314  aa  137 141 143 154
    000315  aa  137 145 156 164
    000316  aa  162 151 145 163
    000317  55   000002 000232
    000320  6a   000000 400002
    000321  55   000244 000003
    000322  aa  014 163 171 155         symbol_table
    000323  aa  142 157 154 137
    000324  aa  164 141 142 154
    000325  aa  145 000 000 000

DEFINITIONS HASH TABLE

    000326  aa   000000 000065
    000327  aa   000000 000000
    000330  aa   000000 000000
    000331  aa   000000 000000
    000332  5a   000151 000000
    000333  aa   000000 000000
    000334  aa   000000 000000
    000335  aa   000000 000000
    000336  aa   000000 000000
    000337  5a   000021 000000
    000340  5a   000175 000000
    000341  aa   000000 000000
    000342  5a   000057 000000
    000343  5a   000143 000000
    000344  aa   000000 000000
    000345  5a   000075 000000
    000346  aa   000000 000000
    000347  5a   000051 000000
    000350  aa   000000 000000
    000351  5a   000232 000000
    000352  aa   000000 000000
    000353  5a   000160 000000
    000354  aa   000000 000000
    000355  5a   000066 000000
    000356  5a   000124 000000
    000357  aa   000000 000000
    000360  5a   000202 000000
    000361  aa   000000 000000
    000362  5a   000215 000000
    000363  5a   000241 000000
    000364  5a   000207 000000
    000365  5a   000224 000000
    000366  aa   000000 000000
    000367  aa   000000 000000
    000370  aa   000000 000000
    000371  5a   000027 000000
    000372  5a   000043 000000
    000373  aa   000000 000000
    000374  5a   000105 000000
    000375  aa   000000 000000
    000376  aa   000000 000000
    000377  aa   000000 000000
    000400  aa   000000 000000
    000401  5a   000132 000000
    000402  aa   000000 000000
    000403  5a   000170 000000
    000404  5a   000036 000000
    000405  aa   000000 000000
    000406  aa   000000 000000
    000407  5a   000115 000000
    000410  5a   000012 000000
    000411  aa   000000 000000
    000412  aa   000000 000000
    000413  aa   000000 000000

EXTERNAL NAMES

    000414  aa  021 164 145 163         test_pnt_manager_
    000415  aa  164 137 160 156
    000416  aa  164 137 155 141
    000417  aa  156 141 147 145
    000420  aa  162 137 000 000
    000421  aa  016 160 156 164         pnt_priv_gate_
    000422  aa  137 160 162 151
    000423  aa  166 137 147 141
    000424  aa  164 145 137 000
    000425  aa  017 160 156 164         pnt_login_gate_
    000426  aa  137 154 157 147
    000427  aa  151 156 137 147
    000430  aa  141 164 145 137
    000431  aa  021 160 156 164         pnt_network_gate_
    000432  aa  137 156 145 164
    000433  aa  167 157 162 153
    000434  aa  137 147 141 164
    000435  aa  145 137 000 000
    000436  aa  017 160 156 164         pnt_admin_gate_
    000437  aa  137 141 144 155
    000440  aa  151 156 137 147
    000441  aa  141 164 145 137
    000442  aa  014 160 156 164         pnt_fs_gate_
    000443  aa  137 146 163 137
    000444  aa  147 141 164 145
    000445  aa  137 000 000 000

NO TRAP POINTER WORDS

TYPE PAIR BLOCKS

    000446  aa   000004 000000
    000447  55   000353 000015
    000450  aa   000004 000000
    000451  55   000364 000024
    000452  aa   000004 000000
    000453  55   000360 000032
    000454  aa   000004 000000
    000455  55   000336 000336
    000456  aa   000004 000000
    000457  55   000360 000046
    000460  aa   000004 000000
    000461  55   000364 000054
    000462  aa   000004 000000
    000463  55   000360 000062
    000464  aa   000004 000000
    000465  55   000343 000071
    000466  aa   000004 000000
    000467  55   000343 000100
    000470  aa   000004 000000
    000471  55   000353 000110
    000472  aa   000004 000000
    000473  55   000347 000120
    000474  aa   000004 000000
    000475  55   000364 000127
    000476  aa   000004 000000
    000477  55   000353 000135
    000500  aa   000004 000000
    000501  55   000360 000154
    000502  aa   000004 000000
    000503  55   000364 000163
    000504  aa   000004 000000
    000505  55   000360 000173
    000506  aa   000004 000000
    000507  55   000360 000200
    000510  aa   000004 000000
    000511  55   000360 000205
    000512  aa   000004 000000
    000513  55   000364 000212
    000514  aa   000004 000000
    000515  55   000360 000220
    000516  aa   000004 000000
    000517  55   000360 000227
    000520  aa   000004 000000
    000521  55   000364 000235
    000522  aa   000001 000000
    000523  aa   000000 000000

INTERNAL EXPRESSION WORDS

    000524  5a   000370 000000
    000525  5a   000372 000000
    000526  5a   000374 000000
    000527  5a   000376 000000
    000530  5a   000400 000000
    000531  5a   000402 000000
    000532  5a   000404 000000
    000533  5a   000406 000000
    000534  5a   000410 000000
    000535  5a   000412 000000
    000536  5a   000414 000000
    000537  5a   000416 000000
    000540  5a   000420 000000
    000541  5a   000422 000000
    000542  5a   000424 000000
    000543  5a   000426 000000
    000544  5a   000430 000000
    000545  5a   000432 000000
    000546  5a   000434 000000
    000547  5a   000436 000000
    000550  5a   000440 000000
    000551  5a   000442 000000
LINKAGE INFORMATION

    000000  aa   000000 000000
    000001  0a   000056 000000
    000002  aa   000000 000000
    000003  aa   000000 000000
    000004  aa   000000 000000
    000005  aa   000000 000000
    000006  22   000010 000064
    000007  a2   000000 000000
    000010  9a   777770 0000 46         pnt_fs_gate_|add_acl_entries
    000011  5a   000473 0000 00
    000012  9a   777766 0000 46         pnt_admin_gate_|add_entry
    000013  5a   000472 0000 00
    000014  9a   777764 0000 46         pnt_admin_gate_|admin_get_entry
    000015  5a   000471 0000 00
    000016  9a   777762 0000 46         pnt_fs_gate_|chname_file
    000017  5a   000470 0000 00
    000020  9a   777760 0000 46         pnt_admin_gate_|copy
    000021  5a   000467 0000 00
    000022  9a   777756 0000 46         pnt_admin_gate_|create
    000023  5a   000466 0000 00
    000024  9a   777754 0000 46         pnt_admin_gate_|delete
    000025  5a   000465 0000 00
    000026  9a   777752 0000 46         pnt_fs_gate_|delete_acl_entries
    000027  5a   000464 0000 00
    000030  9a   777750 0000 46         pnt_admin_gate_|get_abs_entry
    000031  5a   000463 0000 00
    000032  9a   777746 0000 46         pnt_network_gate_|get_network_password
    000033  5a   000462 0000 00
    000034  9a   777744 0000 46         pnt_fs_gate_|list_acl
    000035  5a   000461 0000 00
    000036  9a   777742 0000 46         pnt_login_gate_|login_get_entry
    000037  5a   000460 0000 00
    000040  9a   777740 0000 46         pnt_network_gate_|network_get_entry
    000041  5a   000457 0000 00
    000042  9a   777736 0000 46         pnt_priv_gate_|priv_get_abs_entry
    000043  5a   000456 0000 00
    000044  9a   777734 0000 46         pnt_priv_gate_|priv_get_entry
    000045  5a   000455 0000 00
    000046  9a   777732 0000 46         pnt_admin_gate_|remove_entry
    000047  5a   000454 0000 00
    000050  9a   777730 0000 46         pnt_fs_gate_|replace_acl
    000051  5a   000453 0000 00
    000052  9a   777726 0000 46         pnt_admin_gate_|table_data
    000053  5a   000452 0000 00
    000054  9a   777724 0000 46         test_pnt_manager_|test_pnt_manager_
    000055  5a   000451 0000 00
    000056  9a   777722 0000 46         pnt_admin_gate_|update_entry
    000057  5a   000450 0000 00
    000060  9a   777720 0000 46         pnt_fs_gate_|validate
    000061  5a   000447 0000 00
    000062  9a   777716 0000 46         pnt_network_gate_|validate_entry
    000063  5a   000446 0000 00
SYMBOL INFORMATION

SYMBOL TABLE HEADER

    000000  aa   000000 000001
    000001  aa   163171 155142
    000002  aa   164162 145145
    000003  aa   000000 000004
    000004  aa   000000 112143
    000005  aa   305203 523135
    000006  aa   000000 113215
    000007  aa   613330 564510
    000010  aa   141154 155040
    000011  aa   040040 040040
    000012  aa   000024 000040
    000013  aa   000034 000040
    000014  aa   000044 000100
    000015  aa   000002 000002
    000016  aa   000064 000000
    000017  aa   000000 000135
    000020  aa   000000 000104
    000021  aa   000000 000114
    000022  aa   000127 000104
    000023  aa   000064 000000
    000024  aa   101114 115040
    000025  aa   126145 162163
    000026  aa   151157 156040
    000027  aa   040066 056066
    000030  aa   040040 116157
    000031  aa   166145 155142
    000032  aa   145162 040061
    000033  aa   071070 062040
    000034  aa   107112 157150
    000035  aa   156163 157156
    000036  aa   056123 171163
    000037  aa   115141 151156
    000040  aa   164056 155040
    000041  aa   040040 040040
    000042  aa   040040 040040
    000043  aa   040040 040040
    000044  aa   154151 163164
    000045  aa   040040 040040
    000046  aa   040040 040040
    000047  aa   040040 040040
    000050  aa   040040 040040
    000051  aa   040040 040040
    000052  aa   040040 040040
    000053  aa   040040 040040
    000054  aa   040040 040040
    000055  aa   040040 040040
    000056  aa   040040 040040
    000057  aa   040040 040040
    000060  aa   040040 040040
    000061  aa   040040 040040
    000062  aa   040040 040040
    000063  aa   040040 040040
    000064  aa   000000 000001
    000065  aa   000000 000001
    000066  aa   000072 000045
    000067  aa   132152 041126
    000070  aa   000000 113215
    000071  aa   541171 200000
    000072  aa   076163 160145          >special_ldd>temp>as>pnt_manager_.alm
    000073  aa   143151 141154
    000074  aa   137154 144144
    000075  aa   076164 145155
    000076  aa   160076 141163
    000077  aa   076160 156164
    000100  aa   137155 141156
    000101  aa   141147 145162
    000102  aa   137056 141154
    000103  aa   155040 040040
               MULTICS ASSEMBLY CROSS REFERENCE LISTING

   Value        Symbol                   Source file   Line number

           0    add_acl_entries          pnt_manager_:        16.
           2    add_entry                pnt_manager_:        17.
           4    admin_get_entry          pnt_manager_:        18,   25.
           6    chname_file              pnt_manager_:        19.
          10    copy                     pnt_manager_:        20.
          12    create                   pnt_manager_:        21.
          14    delete                   pnt_manager_:        22.
          16    delete_acl_entries       pnt_manager_:        23.
          20    get_abs_entry            pnt_manager_:        24.
          22    get_entry                pnt_manager_:        25.
          24    get_network_password     pnt_manager_:        26.
          26    list_acl                 pnt_manager_:        27.
          30    login_get_entry          pnt_manager_:        28.
          32    network_get_entry        pnt_manager_:        29.
                pnt_admin_gate_          pnt_manager_:        17,   18,   20,   21,   22,   24,   25,   32,   34,   36.
                pnt_fs_gate_             pnt_manager_:        16,   19,   23,   27,   33,   37.
                pnt_login_gate_          pnt_manager_:        28.
                pnt_network_gate_        pnt_manager_:        26,   29,   38.
                pnt_priv_gate_           pnt_manager_:        30,   31.
          34    priv_get_abs_entry       pnt_manager_:        30.
          36    priv_get_entry           pnt_manager_:        31.
          40    remove_entry             pnt_manager_:        32.
          42    replace_acl              pnt_manager_:        33.
          44    table_data               pnt_manager_:        34.
          46    test                     pnt_manager_:        35.
                test_pnt_manager_        pnt_manager_:        35.
          50    update_entry             pnt_manager_:        36.
          52    validate                 pnt_manager_:        37.
          54    validate_entry           pnt_manager_:        38.


NO FATAL ERRORS


                                          -----------------------------------------------------------


Historical Background

This edition of the Multics software materials and documentation is provided and donated
to Massachusetts Institute of Technology by Group BULL including BULL HN Information Systems Inc.
as a contribution to computer science knowledge.
This donation is made also to give evidence of the common contributions of Massachusetts Institute of Technology,
Bell Laboratories, General Electric, Honeywell Information Systems Inc., Honeywell BULL Inc., Groupe BULL
and BULL HN Information Systems Inc. to the development of this operating system.
Multics development was initiated by Massachusetts Institute of Technology Project MAC (1963-1970),
renamed the MIT Laboratory for Computer Science and Artificial Intelligence in the mid 1970s, under the leadership
of Professor Fernando Jose Corbato. Users consider that Multics provided the best software architecture
for managing computer hardware properly and for executing programs. Many subsequent operating systems
incorporated Multics principles.
Multics was distributed in 1975 to 2000 by Group Bull in Europe , and in the U.S. by Bull HN Information Systems Inc.,
as successor in interest by change in name only to Honeywell Bull Inc. and Honeywell Information Systems Inc. .

                                          -----------------------------------------------------------

Permission to use, copy, modify, and distribute these programs and their documentation for any purpose and without
fee is hereby granted,provided that the below copyright notice and historical background appear in all copies
and that both the copyright notice and historical background and this permission notice appear in supporting
documentation, and that the names of MIT, HIS, BULL or BULL HN not be used in advertising or publicity pertaining
to distribution of the programs without specific prior written permission.
    Copyright 1972 by Massachusetts Institute of Technology and Honeywell Information Systems Inc.
    Copyright 2006 by BULL HN Information Systems Inc.
    Copyright 2006 by Bull SAS
    All Rights Reserved
