ASSEMBLY LISTING OF SEGMENT >dumps>old>recomp>pr3_conv_.alm
ASSEMBLED ON:	11/15/82  1754.0 mst Mon
OPTIONS USED:	list
ASSEMBLED BY:	ALM Version  6.4  April 1981
ASSEMBLER CREATED:	11/03/82  1423.6 mst Wed

                                     1  " ***********************************************************
                                     2  " *                                                         *
                                     3  " * Copyright, (C) Honeywell Information Systems Inc., 1982 *
                                     4  " *                                                         *
                                     5  " ***********************************************************
                                     6  " PR3_CONV_ - Conversion for PRT300 and PRU1200 series printer
                                     7  "	coded 10/24/74 by Noel I. Morris
                                     8
                                     9
                                    10  "  ******************************************************
                                    11  "  *                                                    *
                                    12  "  *                                                    *
                                    13  "  * Copyright (c) 1972 by Massachusetts Institute of   *
                                    14  "  * Technology and Honeywell Information Systems, Inc. *
                                    15  "  *                                                    *
                                    16  "  *                                                    *
                                    17  "  ******************************************************
                                    18
                                    19
                                    20  " This module perform the necessary conversion for printing
                                    21  " on the PRT300 and PRU1200 line printers.
                                    22  "
                                    23  " The manner in which this procedure is utilized is described in detail
                                    24  " in the listing of prt_conv_.
                                    25
                                    26
    000000                          27  	name	pr3_conv_
                                    28
                        000000      29  	segdef	pr3_conv_
                                    30
                                    31
                                    32  	temp	char
                                    33
                                    34
                                    35
    000000                          36  pr3_conv_:
    000000  aa  7 00000 7101 00     37  	tra	sb|0
    000001  0a   000004 7100 00     38  	tra	pr3_send_chars
    000002  0a   000030 7100 00     39  	tra	pr3_send_slew_pattern
    000003  0a   000041 7100 00     40  	tra	pr3_send_slew_count
                                    41
                                    42  " 
                                    43
    000004                          44  pr3_send_chars:
                                    45
    000004                          46  spaceloop:
    000004  aa   000000 6360 12     47  	eaq	0,2		white space count in QU
    000005  0a   000021 6044 00     48  	tmoz	nospace		skip if no white space
    000006  aa   000177 1620 03     49  	sbx2	127,du		can take only 127 at a time
    000007  0a   000011 6044 00     50  	tmoz	*+2		if > 127
    000010  aa   000177 2360 03     51  	ldq	127,du		take only 127
    000011  0a   000052 2760 00     52  	orq	hs_char		insert skip character
    000012  aa  6 00050 7561 00     53  	stq	char		and save
                                    54
    000013  aa  0 00100 1005 00     55  	mlr	(pr),(pr)		move to output string
    000014  aa   600050 000002      56  	desc9a	char,2		..
    000015  aa   300000 000002      57  	desc9a	bb|0,2		..
                                    58
    000016  aa   000002 2360 07     59  	ldq	2,dl		step output pointer
    000017  aa  3 00000 5005 06     60  	a9bd	bb|0,ql		..
    000020  0a   000004 7100 00     61  	tra	spaceloop		loop
                                    62
    000021  aa  0 00140 1005 40     63  nospace:	mlr	(pr,rl),(pr,rl)	copy characters into output
    000022  aa   200000 000001      64  	desc9a	bp|0,au		..
    000023  aa   300000 000001      65  	desc9a	bb|0,au		..
                                    66
    000024  aa  2 00000 5005 01     67  	a9bd	bp|0,au		step input and output pointers
    000025  aa  3 00000 5005 01     68  	a9bd	bb|0,au		..
                                    69
    000026  aa   000000 6220 00     70  	eax2	0		make sure X2 now zero
    000027  aa  7 00000 7101 00     71  	tra	sb|0		return to caller
                                    72
                                    73  " 
                                    74
    000030                          75  pr3_send_slew_pattern:
    000030  aa   000022 7350 00     76  	als	18		move pattern to AU
    000031  0a   000051 2750 00     77  	ora	ff_char		insert FF character
    000032  aa  6 00050 7551 00     78  	sta	char		save characters
                                    79
    000033                          80  send_slew:
    000033  aa  0 00100 1005 00     81  	mlr	(pr),(pr),fill(0)	pad last word with zeroes
    000034  aa   600050 000002      82  	desc9a	char,2		..
    000035  aa   300000 000005      83  	desc9a	bb|0,2+3		..
                                    84
    000036  aa   000002 2360 07     85  	ldq	2,dl		increment output pointer
    000037  aa  3 00000 5005 06     86  	a9bd	bb|0,ql		..
                                    87
    000040  aa  7 00000 7101 00     88  	tra	sb|0		return to caller
                                    89
                                    90
                                    91
    000041                          92  pr3_send_slew_count:
    000041  aa   000000 6360 05     93  	eaq	0,al		line count in QU
    000042  aa   000177 1350 07     94  	sbla	127,dl		can only do 127 at a time
    000043  0a   000045 6044 00     95  	tmoz	*+2		if > 127,
    000044  aa   000177 2360 03     96  	ldq	127,du		do only 127 this time
    000045  0a   000050 2760 00     97  	orq	vt_char		insert VT character
    000046  aa  6 00050 7561 00     98  	stq	char		and save characters
    000047  0a   000033 7100 00     99  	tra	send_slew		join common code
                                   100
                                   101  " 
                                   102
    000050  aa   013000 000000     103  vt_char:	vfd	o9/013
    000051  aa   014000 000000     104  ff_char:	vfd	o9/014
    000052  aa   037000 000000     105  hs_char:	vfd	o9/037
                                   106
                                   107
                                   108
                                   109
                                   110  	end

NO LITERALS

NAME DEFINITIONS FOR ENTRY POINTS AND SEGDEFS

    000054  5a   000003 000000
    000055  5a   000026 600000
    000056  aa   000000 000000
    000057  55   000011 000002
    000060  5a   000002 400003
    000061  55   000006 000011
    000062  aa  011 160 162 063
    000063  aa  137 143 157 156
    000064  aa  166 137 000 000
    000065  55   000017 000003
    000066  0a   000000 400000
    000067  55   000014 000003
    000070  aa  011 160 162 063         pr3_conv_
    000071  aa  137 143 157 156
    000072  aa  166 137 000 000
    000073  55   000002 000011
    000074  6a   000000 400002
    000075  55   000022 000003
    000076  aa  014 163 171 155         symbol_table
    000077  aa  142 157 154 137
    000100  aa  164 141 142 154
    000101  aa  145 000 000 000

DEFINITIONS HASH TABLE

    000102  aa   000000 000015
    000103  aa   000000 000000
    000104  aa   000000 000000
    000105  aa   000000 000000
    000106  aa   000000 000000
    000107  aa   000000 000000
    000110  aa   000000 000000
    000111  5a   000017 000000
    000112  aa   000000 000000
    000113  aa   000000 000000
    000114  5a   000011 000000
    000115  aa   000000 000000
    000116  aa   000000 000000
    000117  aa   000000 000000

NO EXTERNAL NAMES

NO TRAP POINTER WORDS

TYPE PAIR BLOCKS

    000120  aa   000001 000000
    000121  aa   000000 000000

INTERNAL EXPRESSION WORDS

LINKAGE INFORMATION

    000000  aa   000000 000000
    000001  0a   000054 000000
    000002  aa   000000 000000
    000003  aa   000000 000000
    000004  aa   000000 000000
    000005  aa   000000 000000
    000006  22   000010 000010
    000007  a2   000000 000000
SYMBOL INFORMATION

SYMBOL TABLE HEADER

    000000  aa   000000 000001
    000001  aa   163171 155142
    000002  aa   164162 145145
    000003  aa   000000 000004
    000004  aa   000000 111316
    000005  aa   510113 575622
    000006  aa   000000 111335
    000007  aa   722761 566660
    000010  aa   141154 155040
    000011  aa   040040 040040
    000012  aa   000024 000040
    000013  aa   000034 000040
    000014  aa   000044 000100
    000015  aa   000002 000002
    000016  aa   000064 000000
    000017  aa   000000 000121
    000020  aa   000000 000102
    000021  aa   000000 000110
    000022  aa   000113 000102
    000023  aa   000064 000000
    000024  aa   101114 115040
    000025  aa   126145 162163
    000026  aa   151157 156040
    000027  aa   040066 056064
    000030  aa   040040 101160
    000031  aa   162151 154040
    000032  aa   061071 070061
    000033  aa   040040 040040
    000034  aa   110157 154155
    000035  aa   163164 145144
    000036  aa   164056 123171
    000037  aa   163115 141151
    000040  aa   156164 056155
    000041  aa   040040 040040
    000042  aa   040040 040040
    000043  aa   040040 040040
    000044  aa   154151 163164
    000045  aa   040040 040040
    000046  aa   040040 040040
    000047  aa   040040 040040
    000050  aa   040040 040040
    000051  aa   040040 040040
    000052  aa   040040 040040
    000053  aa   040040 040040
    000054  aa   040040 040040
    000055  aa   040040 040040
    000056  aa   040040 040040
    000057  aa   040040 040040
    000060  aa   040040 040040
    000061  aa   040040 040040
    000062  aa   040040 040040
    000063  aa   040040 040040
    000064  aa   000000 000001
    000065  aa   000000 000001
    000066  aa   000072 000037
    000067  aa   113331 137376
    000070  aa   000000 111335
    000071  aa   602047 000000
    000072  aa   076144 165155          >dumps>old>recomp>pr3_conv_.alm
    000073  aa   160163 076157
    000074  aa   154144 076162
    000075  aa   145143 157155
    000076  aa   160076 160162
    000077  aa   063137 143157
    000100  aa   156166 137056
    000101  aa   141154 155040
               MULTICS ASSEMBLY CROSS REFERENCE LISTING

   Value        Symbol                   Source file   Line number

          50    char                     pr3_conv_:     32,   53,   56,   78,   82,   98.
          51    ff_char                  pr3_conv_:     77,  104.
          52    hs_char                  pr3_conv_:     52,  105.
          21    nospace                  pr3_conv_:     48,   63.
           0    pr3_conv_                pr3_conv_:     29,   36.
           4    pr3_send_chars           pr3_conv_:     38,   44.
          41    pr3_send_slew_count      pr3_conv_:     40,   92.
          30    pr3_send_slew_pattern    pr3_conv_:     39,   75.
          33    send_slew                pr3_conv_:     80,   99.
           4    spaceloop                pr3_conv_:     46,   61.
          50    vt_char                  pr3_conv_:     97,  103.


NO FATAL ERRORS


                                          -----------------------------------------------------------


Historical Background

This edition of the Multics software materials and documentation is provided and donated
to Massachusetts Institute of Technology by Group BULL including BULL HN Information Systems Inc.
as a contribution to computer science knowledge.
This donation is made also to give evidence of the common contributions of Massachusetts Institute of Technology,
Bell Laboratories, General Electric, Honeywell Information Systems Inc., Honeywell BULL Inc., Groupe BULL
and BULL HN Information Systems Inc. to the development of this operating system.
Multics development was initiated by Massachusetts Institute of Technology Project MAC (1963-1970),
renamed the MIT Laboratory for Computer Science and Artificial Intelligence in the mid 1970s, under the leadership
of Professor Fernando Jose Corbato. Users consider that Multics provided the best software architecture
for managing computer hardware properly and for executing programs. Many subsequent operating systems
incorporated Multics principles.
Multics was distributed in 1975 to 2000 by Group Bull in Europe , and in the U.S. by Bull HN Information Systems Inc.,
as successor in interest by change in name only to Honeywell Bull Inc. and Honeywell Information Systems Inc. .

                                          -----------------------------------------------------------

Permission to use, copy, modify, and distribute these programs and their documentation for any purpose and without
fee is hereby granted,provided that the below copyright notice and historical background appear in all copies
and that both the copyright notice and historical background and this permission notice appear in supporting
documentation, and that the names of MIT, HIS, BULL or BULL HN not be used in advertising or publicity pertaining
to distribution of the programs without specific prior written permission.
    Copyright 1972 by Massachusetts Institute of Technology and Honeywell Information Systems Inc.
    Copyright 2006 by BULL HN Information Systems Inc.
    Copyright 2006 by Bull SAS
    All Rights Reserved
