ASSEMBLY LISTING OF SEGMENT >dumps>old>recomp>printer_images_.alm
ASSEMBLED ON:	11/15/82  1754.0 mst Mon
OPTIONS USED:	list
ASSEMBLED BY:	ALM Version  6.4  April 1981
ASSEMBLER CREATED:	11/03/82  1423.6 mst Wed

                                     1  " ***********************************************************
                                     2  " *                                                         *
                                     3  " * Copyright, (C) Honeywell Information Systems Inc., 1982 *
                                     4  " *                                                         *
                                     5  " ***********************************************************
                                     6  " Printer chain and train images
                                     7
                                     8
                                     9  "  ******************************************************
                                    10  "  *                                                    *
                                    11  "  *                                                    *
                                    12  "  * Copyright (c) 1972 by Massachusetts Institute of   *
                                    13  "  * Technology and Honeywell Information Systems, Inc. *
                                    14  "  *                                                    *
                                    15  "  *                                                    *
                                    16  "  ******************************************************
                                    17
                                    18
    000000                          19  	name	printer_images_
                                    20
                        000000      21  	segdef	n_images
                        000001      22  	segdef	image_numbers
                        000005      23  	segdef	image_lengths
                        000011      24  	segdef	image_offsets
                        000015      25  	segdef	image_base
                                    26
                                    27
                                    28
                                    29  " To get a pointer to a train image:
                                    30  "	do i = 1 to printer_images$n_images while (x ^= printer_images$image_numbers (i));
                                    31  "	end;
                                    32  "	tp = addrel (addr (printer_images$image_base), printer_images$image_offsets (i));
                                    33  "
                                    34
                                    35
                                    36  " 
                                    37
    000000  aa   000000 000004      38  n_images:	dec	4		" Number of chain/belt images
                                    39
                                    40
    000001                          41  image_numbers:
    000001  aa   000000 000001      42  	dec	1		" Project MAC image for PRT3xx
    000002  aa   000000 000002      43  	dec	2		" Group 2 chain for PRT3xx
    000003  aa   000000 000003      44  	dec	3		" Group 8 chain for PRT3xx
    000004  aa   000000 001130      45  	dec	600		" Part # 600 (OCR-B ASCII) belt for PRU1200/1600
                                    46
                                    47
    000005                          48  image_lengths:
    000005  aa   000000 000110      49  	vfd	36/image_1_l
    000006  aa   000000 000110      50  	vfd	36/image_2_l
    000007  aa   000000 000110      51  	vfd	36/image_3_l
    000010  aa   000000 000074      52  	vfd	36/image_4_l
                                    53
                                    54
    000011                          55  image_offsets:
    000011  aa   000000 000000      56  	zero	0,image_1-image_base
    000012  aa   000000 000110      57  	zero	0,image_2-image_base
    000013  aa   000000 000220      58  	zero	0,image_3-image_base
    000014  aa   000000 000330      59  	zero	0,image_4-image_base
                                    60
                                    61
                                    62  " 
                                    63
    000015                          64  image_base:
                                    65
                                    66
                                    67  " Image for MAC ASCII chain.
                                    68
    000015                          69  image_1:
    000015  aa  060 061 062 063     70  	aci	'0123456789bcdfuvestaghijklmnopwrqxyz$="&.|{}%0#@'
    000016  aa  064 065 066 067
    000017  aa  070 071 142 143
    000020  aa  144 146 165 166
    000021  aa  145 163 164 141
    000022  aa  147 150 151 152
    000023  aa  153 154 155 156
    000024  aa  157 160 167 162
    000025  aa  161 170 171 172
    000026  aa  044 075 042 046
    000027  aa  056 174 173 175
    000030  aa  045 060 043 100
    000031  aa  112 101 113 105     71  	aci	'JAKEDCSTBWGHMIORPNFLVZXY\`QU(/*)!^_~<>[]+-.,:;''?'
    000032  aa  104 103 123 124
    000033  aa  102 127 107 110
    000034  aa  115 111 117 122
    000035  aa  120 116 106 114
    000036  aa  126 132 130 131
    000037  aa  134 140 121 125
    000040  aa  050 057 052 051
    000041  aa  041 136 137 176
    000042  aa  074 076 133 135
    000043  aa  053 055 056 054
    000044  aa  072 073 047 077
    000045  aa  060 061 062 063     72  	aci	'0123456789bcdfuvestaghijklmnopwrqxyz$="&.|{}%0#@'
    000046  aa  064 065 066 067
    000047  aa  070 071 142 143
    000050  aa  144 146 165 166
    000051  aa  145 163 164 141
    000052  aa  147 150 151 152
    000053  aa  153 154 155 156
    000054  aa  157 160 167 162
    000055  aa  161 170 171 172
    000056  aa  044 075 042 046
    000057  aa  056 174 173 175
    000060  aa  045 060 043 100
    000061  aa  112 101 113 105     73  	aci	'JAKEDCSTBWGHMIORPNFLVZXY\`QU(/*)!^_~<>[]+-.,:;''?'
    000062  aa  104 103 123 124
    000063  aa  102 127 107 110
    000064  aa  115 111 117 122
    000065  aa  120 116 106 114
    000066  aa  126 132 130 131
    000067  aa  134 140 121 125
    000070  aa  050 057 052 051
    000071  aa  041 136 137 176
    000072  aa  074 076 133 135
    000073  aa  053 055 056 054
    000074  aa  072 073 047 077
    000075  aa  060 061 062 063     74  	aci	'0123456789bcdfuvestaghijklmnopwrqxyz$="&.|{}%0#@'
    000076  aa  064 065 066 067
    000077  aa  070 071 142 143
    000100  aa  144 146 165 166
    000101  aa  145 163 164 141
    000102  aa  147 150 151 152
    000103  aa  153 154 155 156
    000104  aa  157 160 167 162
    000105  aa  161 170 171 172
    000106  aa  044 075 042 046
    000107  aa  056 174 173 175
    000110  aa  045 060 043 100
    000111  aa  112 101 113 105     75  	aci	'JAKEDCSTBWGHMIORPNFLVZXY\`QU(/*)!^_~<>[]+-.,:;''?'
    000112  aa  104 103 123 124
    000113  aa  102 127 107 110
    000114  aa  115 111 117 122
    000115  aa  120 116 106 114
    000116  aa  126 132 130 131
    000117  aa  134 140 121 125
    000120  aa  050 057 052 051
    000121  aa  041 136 137 176
    000122  aa  074 076 133 135
    000123  aa  053 055 056 054
    000124  aa  072 073 047 077
                                    76
                        000110      77  	equ	image_1_l,*-image_1
                                    78
                                    79
                                    80  " 
                                    81
                                    82  " Image for Group 002 type chain.
                                    83
    000125                          84  image_2:
    000125  aa  060 061 062 063     85  	aci	'0123JAKE.|{}456789bcestaghijBWGHMIORklmnopwrdfuv'
    000126  aa  112 101 113 105
    000127  aa  056 174 173 175
    000130  aa  064 065 066 067
    000131  aa  070 071 142 143
    000132  aa  145 163 164 141
    000133  aa  147 150 151 152
    000134  aa  102 127 107 110
    000135  aa  115 111 117 122
    000136  aa  153 154 155 156
    000137  aa  157 160 167 162
    000140  aa  144 146 165 166
    000141  aa  104 103 123 124     86  	aci	'DCSTPNFL:;''?\`QU!^_~VZXY0123PNFL:;''?456789bcesta'
    000142  aa  120 116 106 114
    000143  aa  072 073 047 077
    000144  aa  134 140 121 125
    000145  aa  041 136 137 176
    000146  aa  126 132 130 131
    000147  aa  060 061 062 063
    000150  aa  120 116 106 114
    000151  aa  072 073 047 077
    000152  aa  064 065 066 067
    000153  aa  070 071 142 143
    000154  aa  145 163 164 141
    000155  aa  147 150 151 152     87  	aci	'ghijJAKEMIORklmnopwrdfuvDCST+-.,qxyz%0#@$="&(/*)'
    000156  aa  112 101 113 105
    000157  aa  115 111 117 122
    000160  aa  153 154 155 156
    000161  aa  157 160 167 162
    000162  aa  144 146 165 166
    000163  aa  104 103 123 124
    000164  aa  053 055 056 054
    000165  aa  161 170 171 172
    000166  aa  045 060 043 100
    000167  aa  044 075 042 046
    000170  aa  050 057 052 051
    000171  aa  060 061 062 063     88  	aci	'0123+-.,qxyz456789bcestaghijPNFL:;''?klmnopwrdfuv'
    000172  aa  053 055 056 054
    000173  aa  161 170 171 172
    000174  aa  064 065 066 067
    000175  aa  070 071 142 143
    000176  aa  145 163 164 141
    000177  aa  147 150 151 152
    000200  aa  120 116 106 114
    000201  aa  072 073 047 077
    000202  aa  153 154 155 156
    000203  aa  157 160 167 162
    000204  aa  144 146 165 166
    000205  aa  104 103 123 124     89  	aci	'DCSTBWGHMIOR\`QU!^_~VZXY0123BWGHMIOR456789bcesta'
    000206  aa  102 127 107 110
    000207  aa  115 111 117 122
    000210  aa  134 140 121 125
    000211  aa  041 136 137 176
    000212  aa  126 132 130 131
    000213  aa  060 061 062 063
    000214  aa  102 127 107 110
    000215  aa  115 111 117 122
    000216  aa  064 065 066 067
    000217  aa  070 071 142 143
    000220  aa  145 163 164 141
    000221  aa  147 150 151 152     90  	aci	'ghij+-.,qxyzklmnopwrdfuvDCSTJAKE<>[]%0#@$="&(/*)'
    000222  aa  053 055 056 054
    000223  aa  161 170 171 172
    000224  aa  153 154 155 156
    000225  aa  157 160 167 162
    000226  aa  144 146 165 166
    000227  aa  104 103 123 124
    000230  aa  112 101 113 105
    000231  aa  074 076 133 135
    000232  aa  045 060 043 100
    000233  aa  044 075 042 046
    000234  aa  050 057 052 051
                                    91
                        000110      92  	equ	image_2_l,*-image_2
                                    93
                                    94
                                    95  " 
                                    96
                                    97  " Image for Group 008 type chain.
                                    98
    000235                          99  image_3:
    000235  aa  060 061 062 063    100  	aci	'0123456789ACRIFLMNOPDUST+-.EBZ,/JKQ*VWXY(GH):;&?'
    000236  aa  064 065 066 067
    000237  aa  070 071 101 103
    000240  aa  122 111 106 114
    000241  aa  115 116 117 120
    000242  aa  104 125 123 124
    000243  aa  053 055 056 105
    000244  aa  102 132 054 057
    000245  aa  112 113 121 052
    000246  aa  126 127 130 131
    000247  aa  050 107 110 051
    000250  aa  072 073 046 077
    000251  aa  041 136 137 176    101  	aci	'!^_~<>[]$="''%=#@ |{}\`abcdefghijklmnopqrstuvwxyz'
    000252  aa  074 076 133 135
    000253  aa  044 075 042 047
    000254  aa  045 075 043 100
    000255  aa  040 174 173 175
    000256  aa  134 140 141 142
    000257  aa  143 144 145 146
    000260  aa  147 150 151 152
    000261  aa  153 154 155 156
    000262  aa  157 160 161 162
    000263  aa  163 164 165 166
    000264  aa  167 170 171 172
    000265  aa  060 061 062 063    102  	aci	'0123456789ACRIFLMNOPDUST+-.EBZ,/JKQ*VWXY(GH):;&?'
    000266  aa  064 065 066 067
    000267  aa  070 071 101 103
    000270  aa  122 111 106 114
    000271  aa  115 116 117 120
    000272  aa  104 125 123 124
    000273  aa  053 055 056 105
    000274  aa  102 132 054 057
    000275  aa  112 113 121 052
    000276  aa  126 127 130 131
    000277  aa  050 107 110 051
    000300  aa  072 073 046 077
    000301  aa  041 136 137 176    103  	aci	'!^_~<>[]$="''%=#@ |{}\`abcdefghijklmnopqrstuvwxyz'
    000302  aa  074 076 133 135
    000303  aa  044 075 042 047
    000304  aa  045 075 043 100
    000305  aa  040 174 173 175
    000306  aa  134 140 141 142
    000307  aa  143 144 145 146
    000310  aa  147 150 151 152
    000311  aa  153 154 155 156
    000312  aa  157 160 161 162
    000313  aa  163 164 165 166
    000314  aa  167 170 171 172
    000315  aa  060 061 062 063    104  	aci	'0123456789ACRIFLMNOPDUST+-.EBZ,/JKQ*VWXY(GH):;&?'
    000316  aa  064 065 066 067
    000317  aa  070 071 101 103
    000320  aa  122 111 106 114
    000321  aa  115 116 117 120
    000322  aa  104 125 123 124
    000323  aa  053 055 056 105
    000324  aa  102 132 054 057
    000325  aa  112 113 121 052
    000326  aa  126 127 130 131
    000327  aa  050 107 110 051
    000330  aa  072 073 046 077
    000331  aa  041 136 137 176    105  	aci	'!^_~<>[]$="''%=#@ |{}\`abcdefghijklmnopqrstuvwxyz'
    000332  aa  074 076 133 135
    000333  aa  044 075 042 047
    000334  aa  045 075 043 100
    000335  aa  040 174 173 175
    000336  aa  134 140 141 142
    000337  aa  143 144 145 146
    000340  aa  147 150 151 152
    000341  aa  153 154 155 156
    000342  aa  157 160 161 162
    000343  aa  163 164 165 166
    000344  aa  167 170 171 172
                                   106
                        000110     107  	equ	image_3_l,*-image_3
                                   108
                                   109
                                   110  " 
                                   111
                                   112  " Image for Part # 600 ASCII belt.
                                   113
    000345                         114  image_4:
    000345  aa  102 104 106 107    115  	aci	'BDFGHJgS0ACEINORLTabcdefKhijklmM0PQUVWXYZ:;?!%7xynoprstw0z12'
    000346  aa  110 112 147 123
    000347  aa  060 101 103 105
    000350  aa  111 116 117 122
    000351  aa  114 124 141 142
    000352  aa  143 144 145 146
    000353  aa  113 150 151 152
    000354  aa  153 154 155 115
    000355  aa  060 120 121 125
    000356  aa  126 127 130 131
    000357  aa  132 072 073 077
    000360  aa  041 045 067 170
    000361  aa  171 156 157 160
    000362  aa  162 163 164 167
    000363  aa  060 172 061 062
    000364  aa  063 064 065 066    116  	aci	'3456#89.,()@$=&/''\^_0"<>[]gS~ACEINOR{Tabcdef0hijklm}|`-*+quv'
    000365  aa  043 070 071 056
    000366  aa  054 050 051 100
    000367  aa  044 075 046 057
    000370  aa  047 134 136 137
    000371  aa  060 042 074 076
    000372  aa  133 135 147 123
    000373  aa  176 101 103 105
    000374  aa  111 116 117 122
    000375  aa  173 124 141 142
    000376  aa  143 144 145 146
    000377  aa  060 150 151 152
    000400  aa  153 154 155 175
    000401  aa  174 140 055 052
    000402  aa  053 161 165 166
    000403  aa  102 104 106 107    117  	aci	'BDFGHJ7x0noprstwLz123456K89.,()M0PQUVWXYZ:;?!%gSyACEINOR0Tab'
    000404  aa  110 112 067 170
    000405  aa  060 156 157 160
    000406  aa  162 163 164 167
    000407  aa  114 172 061 062
    000410  aa  063 064 065 066
    000411  aa  113 070 071 056
    000412  aa  054 050 051 115
    000413  aa  060 120 121 125
    000414  aa  126 127 130 131
    000415  aa  132 072 073 077
    000416  aa  041 045 147 123
    000417  aa  171 101 103 105
    000420  aa  111 116 117 122
    000421  aa  060 124 141 142
    000422  aa  143 144 145 146    118  	aci	'cdef#hijklm@$=&/''\^_0"<>[]7x~noprstw{z123456089.,()}|`-*+quv'
    000423  aa  043 150 151 152
    000424  aa  153 154 155 100
    000425  aa  044 075 046 057
    000426  aa  047 134 136 137
    000427  aa  060 042 074 076
    000430  aa  133 135 067 170
    000431  aa  176 156 157 160
    000432  aa  162 163 164 167
    000433  aa  173 172 061 062
    000434  aa  063 064 065 066
    000435  aa  060 070 071 056
    000436  aa  054 050 051 175
    000437  aa  174 140 055 052
    000440  aa  053 161 165 166
                                   119
                        000074     120  	equ	image_4_l,*-image_4
                                   121
                                   122
                                   123
                                   124  	end

NO LITERALS

NAME DEFINITIONS FOR ENTRY POINTS AND SEGDEFS

    000442  5a   000003 000000
    000443  5a   000062 600000
    000444  aa   000000 000000
    000445  55   000012 000002
    000446  5a   000002 400003
    000447  55   000006 000012
    000450  aa  017 160 162 151
    000451  aa  156 164 145 162
    000452  aa  137 151 155 141
    000453  aa  147 145 163 137
    000454  55   000020 000003
    000455  0a   000015 400000
    000456  55   000015 000003
    000457  aa  012 151 155 141         image_base
    000460  aa  147 145 137 142
    000461  aa  141 163 145 000
    000462  55   000027 000012
    000463  0a   000011 400000
    000464  55   000023 000003
    000465  aa  015 151 155 141         image_offsets
    000466  aa  147 145 137 157
    000467  aa  146 146 163 145
    000470  aa  164 163 000 000
    000471  55   000036 000020
    000472  0a   000005 400000
    000473  55   000032 000003
    000474  aa  015 151 155 141         image_lengths
    000475  aa  147 145 137 154
    000476  aa  145 156 147 164
    000477  aa  150 163 000 000
    000500  55   000045 000027
    000501  0a   000001 400000
    000502  55   000041 000003
    000503  aa  015 151 155 141         image_numbers
    000504  aa  147 145 137 156
    000505  aa  165 155 142 145
    000506  aa  162 163 000 000
    000507  55   000053 000036
    000510  0a   000000 400000
    000511  55   000050 000003
    000512  aa  010 156 137 151         n_images
    000513  aa  155 141 147 145
    000514  aa  163 000 000 000
    000515  55   000002 000045
    000516  6a   000000 400002
    000517  55   000056 000003
    000520  aa  014 163 171 155         symbol_table
    000521  aa  142 157 154 137
    000522  aa  164 141 142 154
    000523  aa  145 000 000 000

DEFINITIONS HASH TABLE

    000524  aa   000000 000015
    000525  aa   000000 000000
    000526  5a   000045 000000
    000527  aa   000000 000000
    000530  aa   000000 000000
    000531  5a   000020 000000
    000532  5a   000027 000000
    000533  5a   000012 000000
    000534  5a   000036 000000
    000535  5a   000053 000000
    000536  aa   000000 000000
    000537  aa   000000 000000
    000540  aa   000000 000000
    000541  aa   000000 000000

NO EXTERNAL NAMES

NO TRAP POINTER WORDS

TYPE PAIR BLOCKS

    000542  aa   000001 000000
    000543  aa   000000 000000

INTERNAL EXPRESSION WORDS

LINKAGE INFORMATION

    000000  aa   000000 000000
    000001  0a   000442 000000
    000002  aa   000000 000000
    000003  aa   000000 000000
    000004  aa   000000 000000
    000005  aa   000000 000000
    000006  22   000010 000010
    000007  a2   000000 000000
SYMBOL INFORMATION

SYMBOL TABLE HEADER

    000000  aa   000000 000001
    000001  aa   163171 155142
    000002  aa   164162 145145
    000003  aa   000000 000004
    000004  aa   000000 111316
    000005  aa   510113 575622
    000006  aa   000000 111335
    000007  aa   722770 443015
    000010  aa   141154 155040
    000011  aa   040040 040040
    000012  aa   000024 000040
    000013  aa   000034 000040
    000014  aa   000044 000100
    000015  aa   000002 000002
    000016  aa   000064 000000
    000017  aa   000000 000140
    000020  aa   000000 000104
    000021  aa   000000 000127
    000022  aa   000132 000104
    000023  aa   000064 000000
    000024  aa   101114 115040
    000025  aa   126145 162163
    000026  aa   151157 156040
    000027  aa   040066 056064
    000030  aa   040040 101160
    000031  aa   162151 154040
    000032  aa   061071 070061
    000033  aa   040040 040040
    000034  aa   110157 154155
    000035  aa   163164 145144
    000036  aa   164056 123171
    000037  aa   163115 141151
    000040  aa   156164 056155
    000041  aa   040040 040040
    000042  aa   040040 040040
    000043  aa   040040 040040
    000044  aa   154151 163164
    000045  aa   040040 040040
    000046  aa   040040 040040
    000047  aa   040040 040040
    000050  aa   040040 040040
    000051  aa   040040 040040
    000052  aa   040040 040040
    000053  aa   040040 040040
    000054  aa   040040 040040
    000055  aa   040040 040040
    000056  aa   040040 040040
    000057  aa   040040 040040
    000060  aa   040040 040040
    000061  aa   040040 040040
    000062  aa   040040 040040
    000063  aa   040040 040040
    000064  aa   000000 000001
    000065  aa   000000 000001
    000066  aa   000072 000045
    000067  aa   113331 137377
    000070  aa   000000 111335
    000071  aa   602050 000000
    000072  aa   076144 165155          >dumps>old>recomp>printer_images_.alm
    000073  aa   160163 076157
    000074  aa   154144 076162
    000075  aa   145143 157155
    000076  aa   160076 160162
    000077  aa   151156 164145
    000100  aa   162137 151155
    000101  aa   141147 145163
    000102  aa   137056 141154
    000103  aa   155040 040040
               MULTICS ASSEMBLY CROSS REFERENCE LISTING

   Value        Symbol                   Source file   Line number

          15    image_1                  printer_images_:     56,   69,   77.
         110    image_1_l                printer_images_:     49,   77.
         125    image_2                  printer_images_:     57,   84,   92.
         110    image_2_l                printer_images_:     50,   92.
         235    image_3                  printer_images_:     58,   99,  107.
         110    image_3_l                printer_images_:     51,  107.
         345    image_4                  printer_images_:     59,  114,  120.
          74    image_4_l                printer_images_:     52,  120.
          15    image_base               printer_images_:     25,   56,   57,   58,   59,   64.
           5    image_lengths            printer_images_:     23,   48.
           1    image_numbers            printer_images_:     22,   41.
          11    image_offsets            printer_images_:     24,   55.
           0    n_images                 printer_images_:     21,   38.


NO FATAL ERRORS


                                          -----------------------------------------------------------


Historical Background

This edition of the Multics software materials and documentation is provided and donated
to Massachusetts Institute of Technology by Group BULL including BULL HN Information Systems Inc.
as a contribution to computer science knowledge.
This donation is made also to give evidence of the common contributions of Massachusetts Institute of Technology,
Bell Laboratories, General Electric, Honeywell Information Systems Inc., Honeywell BULL Inc., Groupe BULL
and BULL HN Information Systems Inc. to the development of this operating system.
Multics development was initiated by Massachusetts Institute of Technology Project MAC (1963-1970),
renamed the MIT Laboratory for Computer Science and Artificial Intelligence in the mid 1970s, under the leadership
of Professor Fernando Jose Corbato. Users consider that Multics provided the best software architecture
for managing computer hardware properly and for executing programs. Many subsequent operating systems
incorporated Multics principles.
Multics was distributed in 1975 to 2000 by Group Bull in Europe , and in the U.S. by Bull HN Information Systems Inc.,
as successor in interest by change in name only to Honeywell Bull Inc. and Honeywell Information Systems Inc. .

                                          -----------------------------------------------------------

Permission to use, copy, modify, and distribute these programs and their documentation for any purpose and without
fee is hereby granted,provided that the below copyright notice and historical background appear in all copies
and that both the copyright notice and historical background and this permission notice appear in supporting
documentation, and that the names of MIT, HIS, BULL or BULL HN not be used in advertising or publicity pertaining
to distribution of the programs without specific prior written permission.
    Copyright 1972 by Massachusetts Institute of Technology and Honeywell Information Systems Inc.
    Copyright 2006 by BULL HN Information Systems Inc.
    Copyright 2006 by Bull SAS
    All Rights Reserved
