ASSEMBLY LISTING OF SEGMENT >dumps>old>recomp>prt300_buffer_image.alm
ASSEMBLED ON:	11/15/82  1752.8 mst Mon
OPTIONS USED:	list
ASSEMBLED BY:	ALM Version  6.4  April 1981
ASSEMBLER CREATED:	11/03/82  1423.6 mst Wed

                                     1  " ***********************************************************
                                     2  " *                                                         *
                                     3  " * Copyright, (C) Honeywell Information Systems Inc., 1982 *
                                     4  " *                                                         *
                                     5  " * Copyright (c) 1972 by Massachusetts Institute of        *
                                     6  " * Technology and Honeywell Information Systems, Inc.      *
                                     7  " *                                                         *
                                     8  " ***********************************************************
                                     9
                                    10  "	PRT300 print buffer image
                                    11
    000000                          12  	name	prt300_buffer_image
                                    13
                        000441      14  	segdef	image,image_count,high_index
                                    15
    000000                          16  image:
                                    17  "	MAC  IMAGE - prph card code 1
                                    18
    000000  aa  060 061 062 063     19  	aci	'0123456789bcdfuvestaghijklmnopwrqxyz$="&.|{}%0#@JAKEDCSTBWGHMIOR'
    000001  aa  064 065 066 067
    000002  aa  070 071 142 143
    000003  aa  144 146 165 166
    000004  aa  145 163 164 141
    000005  aa  147 150 151 152
    000006  aa  153 154 155 156
    000007  aa  157 160 167 162
    000010  aa  161 170 171 172
    000011  aa  044 075 042 046
    000012  aa  056 174 173 175
    000013  aa  045 060 043 100
    000014  aa  112 101 113 105
    000015  aa  104 103 123 124
    000016  aa  102 127 107 110
    000017  aa  115 111 117 122
    000020  aa  120 116 106 114     20  	aci	"PNFLVZXY\`QU(/*)!^_~<>[]+-.,:;'?0123456789bcdfuvestaghijklmnopwr"
    000021  aa  126 132 130 131
    000022  aa  134 140 121 125
    000023  aa  050 057 052 051
    000024  aa  041 136 137 176
    000025  aa  074 076 133 135
    000026  aa  053 055 056 054
    000027  aa  072 073 047 077
    000030  aa  060 061 062 063
    000031  aa  064 065 066 067
    000032  aa  070 071 142 143
    000033  aa  144 146 165 166
    000034  aa  145 163 164 141
    000035  aa  147 150 151 152
    000036  aa  153 154 155 156
    000037  aa  157 160 167 162
    000040  aa  161 170 171 172     21  	aci	'qxyz$="&.|{}%0#@JAKEDCSTBWGHMIORPNFLVZXY\`QU(/*)!^_~<>[]+-.,:;''?'
    000041  aa  044 075 042 046
    000042  aa  056 174 173 175
    000043  aa  045 060 043 100
    000044  aa  112 101 113 105
    000045  aa  104 103 123 124
    000046  aa  102 127 107 110
    000047  aa  115 111 117 122
    000050  aa  120 116 106 114
    000051  aa  126 132 130 131
    000052  aa  134 140 121 125
    000053  aa  050 057 052 051
    000054  aa  041 136 137 176
    000055  aa  074 076 133 135
    000056  aa  053 055 056 054
    000057  aa  072 073 047 077
    000060  aa  060 061 062 063     22  	aci	'0123456789bcdfuvestaghijklmnopwrqxyz$="&.|{}%0#@JAKEDCSTBWGHMIOR'
    000061  aa  064 065 066 067
    000062  aa  070 071 142 143
    000063  aa  144 146 165 166
    000064  aa  145 163 164 141
    000065  aa  147 150 151 152
    000066  aa  153 154 155 156
    000067  aa  157 160 167 162
    000070  aa  161 170 171 172
    000071  aa  044 075 042 046
    000072  aa  056 174 173 175
    000073  aa  045 060 043 100
    000074  aa  112 101 113 105
    000075  aa  104 103 123 124
    000076  aa  102 127 107 110
    000077  aa  115 111 117 122
    000100  aa  120 116 106 114     23  	aci	"PNFLVZXY\`QU(/*)!^_~<>[]+-.,:;'?"
    000101  aa  126 132 130 131
    000102  aa  134 140 121 125
    000103  aa  050 057 052 051
    000104  aa  041 136 137 176
    000105  aa  074 076 133 135
    000106  aa  053 055 056 054
    000107  aa  072 073 047 077
                                    24
                                    25  "	PHOENIX  IMAGE - prph card code 2, for Group 2 type chain
                                    26  "     type 300 prt ascii train  train_5
                                    27
    000110  aa  060 061 062 063     28  	aci	'0123JAKE.|{}456789bcestaghijBWGHMIORklmnopwrdfuv'
    000111  aa  112 101 113 105
    000112  aa  056 174 173 175
    000113  aa  064 065 066 067
    000114  aa  070 071 142 143
    000115  aa  145 163 164 141
    000116  aa  147 150 151 152
    000117  aa  102 127 107 110
    000120  aa  115 111 117 122
    000121  aa  153 154 155 156
    000122  aa  157 160 167 162
    000123  aa  144 146 165 166
    000124  aa  104 103 123 124     29  	aci	"DCSTPNFL:;'?\`QU!^_~VZXY0123PNFL:;'?456789bcesta"
    000125  aa  120 116 106 114
    000126  aa  072 073 047 077
    000127  aa  134 140 121 125
    000130  aa  041 136 137 176
    000131  aa  126 132 130 131
    000132  aa  060 061 062 063
    000133  aa  120 116 106 114
    000134  aa  072 073 047 077
    000135  aa  064 065 066 067
    000136  aa  070 071 142 143
    000137  aa  145 163 164 141
    000140  aa  147 150 151 152     30  	aci	'ghijJAKEMIORklmnopwrdfuvDCST+-.,qxyz%0#@$="&(/*)'
    000141  aa  112 101 113 105
    000142  aa  115 111 117 122
    000143  aa  153 154 155 156
    000144  aa  157 160 167 162
    000145  aa  144 146 165 166
    000146  aa  104 103 123 124
    000147  aa  053 055 056 054
    000150  aa  161 170 171 172
    000151  aa  045 060 043 100
    000152  aa  044 075 042 046
    000153  aa  050 057 052 051
    000154  aa  060 061 062 063     31  	aci	"0123+-.,qxyz456789bcestaghijPNFL:;'?klmnopwrdfuv"
    000155  aa  053 055 056 054
    000156  aa  161 170 171 172
    000157  aa  064 065 066 067
    000160  aa  070 071 142 143
    000161  aa  145 163 164 141
    000162  aa  147 150 151 152
    000163  aa  120 116 106 114
    000164  aa  072 073 047 077
    000165  aa  153 154 155 156
    000166  aa  157 160 167 162
    000167  aa  144 146 165 166
    000170  aa  104 103 123 124     32  	aci	"DCSTBWGHMIOR\`QU!^_~VZXY0123BWGHMIOR456789bcesta"
    000171  aa  102 127 107 110
    000172  aa  115 111 117 122
    000173  aa  134 140 121 125
    000174  aa  041 136 137 176
    000175  aa  126 132 130 131
    000176  aa  060 061 062 063
    000177  aa  102 127 107 110
    000200  aa  115 111 117 122
    000201  aa  064 065 066 067
    000202  aa  070 071 142 143
    000203  aa  145 163 164 141
    000204  aa  147 150 151 152     33  	aci	'ghij+-.,qxyzklmnopwrdfuvDCSTJAKE<>[]%0#@$="&(/*)'
    000205  aa  053 055 056 054
    000206  aa  161 170 171 172
    000207  aa  153 154 155 156
    000210  aa  157 160 167 162
    000211  aa  144 146 165 166
    000212  aa  104 103 123 124
    000213  aa  112 101 113 105
    000214  aa  074 076 133 135
    000215  aa  045 060 043 100
    000216  aa  044 075 042 046
    000217  aa  050 057 052 051
                                    34
                                    35
                                    36  "	PHOENIX IMAGE - prph card code 3, for Group 8 type chain
                                    37
    000220  aa  060 061 062 063     38  	aci	"0123456789ACRIFLMNOPDUST+-.EBZ,/JKQ*VWXY(GH):;&?"
    000221  aa  064 065 066 067
    000222  aa  070 071 101 103
    000223  aa  122 111 106 114
    000224  aa  115 116 117 120
    000225  aa  104 125 123 124
    000226  aa  053 055 056 105
    000227  aa  102 132 054 057
    000230  aa  112 113 121 052
    000231  aa  126 127 130 131
    000232  aa  050 107 110 051
    000233  aa  072 073 046 077
    000234  aa  041 136 137 176     39  	aci	*!^_~<>[]$="'%=#@ |{}\`abcdefghijklmnopqrstuvwxyz*
    000235  aa  074 076 133 135
    000236  aa  044 075 042 047
    000237  aa  045 075 043 100
    000240  aa  040 174 173 175
    000241  aa  134 140 141 142
    000242  aa  143 144 145 146
    000243  aa  147 150 151 152
    000244  aa  153 154 155 156
    000245  aa  157 160 161 162
    000246  aa  163 164 165 166
    000247  aa  167 170 171 172
    000250  aa  060 061 062 063     40  	aci	"0123456789ACRIFLMNOPDUST+-.EBZ,/JKQ*VWXY(GH):;&?"
    000251  aa  064 065 066 067
    000252  aa  070 071 101 103
    000253  aa  122 111 106 114
    000254  aa  115 116 117 120
    000255  aa  104 125 123 124
    000256  aa  053 055 056 105
    000257  aa  102 132 054 057
    000260  aa  112 113 121 052
    000261  aa  126 127 130 131
    000262  aa  050 107 110 051
    000263  aa  072 073 046 077
    000264  aa  041 136 137 176     41  	aci	*!^_~<>[]$="'%=#@ |{}\`abcdefghijklmnopqrstuvwxyz*
    000265  aa  074 076 133 135
    000266  aa  044 075 042 047
    000267  aa  045 075 043 100
    000270  aa  040 174 173 175
    000271  aa  134 140 141 142
    000272  aa  143 144 145 146
    000273  aa  147 150 151 152
    000274  aa  153 154 155 156
    000275  aa  157 160 161 162
    000276  aa  163 164 165 166
    000277  aa  167 170 171 172
    000300  aa  060 061 062 063     42  	aci	"0123456789ACRIFLMNOPDUST+-.EBZ,/JKQ*VWXY(GH):;&?"
    000301  aa  064 065 066 067
    000302  aa  070 071 101 103
    000303  aa  122 111 106 114
    000304  aa  115 116 117 120
    000305  aa  104 125 123 124
    000306  aa  053 055 056 105
    000307  aa  102 132 054 057
    000310  aa  112 113 121 052
    000311  aa  126 127 130 131
    000312  aa  050 107 110 051
    000313  aa  072 073 046 077
    000314  aa  041 136 137 176     43  	aci	*!^_~<>[]$="'%=#@ |{}\`abcdefghijklmnopqrstuvwxyz*
    000315  aa  074 076 133 135
    000316  aa  044 075 042 047
    000317  aa  045 075 043 100
    000320  aa  040 174 173 175
    000321  aa  134 140 141 142
    000322  aa  143 144 145 146
    000323  aa  147 150 151 152
    000324  aa  153 154 155 156
    000325  aa  157 160 161 162
    000326  aa  163 164 165 166
    000327  aa  167 170 171 172
                                    44
                                    45
                                    46  "     type 400 prt ascii train  train_1130  "
    000330  aa  102 104 106 107     47       aci "BDFGHJgS0ACEINORLTabcdefKhijklmM0PQUVWXYZ:;?!%7xynoprstw0z123456#89.,()@$=&/'\^_"
    000331  aa  110 112 147 123
    000332  aa  060 101 103 105
    000333  aa  111 116 117 122
    000334  aa  114 124 141 142
    000335  aa  143 144 145 146
    000336  aa  113 150 151 152
    000337  aa  153 154 155 115
    000340  aa  060 120 121 125
    000341  aa  126 127 130 131
    000342  aa  132 072 073 077
    000343  aa  041 045 067 170
    000344  aa  171 156 157 160
    000345  aa  162 163 164 167
    000346  aa  060 172 061 062
    000347  aa  063 064 065 066
    000350  aa  043 070 071 056
    000351  aa  054 050 051 100
    000352  aa  044 075 046 057
    000353  aa  047 134 136 137
    000354  aa  060 042 074 076     48       aci "0""<>[]gS~ACEINOR{Tabcdef0hijklm}|`-*+quvBDFGHJ7x0noprstwLz123456K89.,()MOPQUVWXY"
    000355  aa  133 135 147 123
    000356  aa  176 101 103 105
    000357  aa  111 116 117 122
    000360  aa  173 124 141 142
    000361  aa  143 144 145 146
    000362  aa  060 150 151 152
    000363  aa  153 154 155 175
    000364  aa  174 140 055 052
    000365  aa  053 161 165 166
    000366  aa  102 104 106 107
    000367  aa  110 112 067 170
    000370  aa  060 156 157 160
    000371  aa  162 163 164 167
    000372  aa  114 172 061 062
    000373  aa  063 064 065 066
    000374  aa  113 070 071 056
    000375  aa  054 050 051 115
    000376  aa  117 120 121 125
    000377  aa  126 127 130 131
    000400  aa  132 072 073 077     49       aci "Z:;?!%gSyACEINOR0Tabcdef#hijklm@$=&/'\^_0""<>[]7x~noprstw{z123456089.,()}|`-*+quv"
    000401  aa  041 045 147 123
    000402  aa  171 101 103 105
    000403  aa  111 116 117 122
    000404  aa  060 124 141 142
    000405  aa  143 144 145 146
    000406  aa  043 150 151 152
    000407  aa  153 154 155 100
    000410  aa  044 075 046 057
    000411  aa  047 134 136 137
    000412  aa  060 042 074 076
    000413  aa  133 135 067 170
    000414  aa  176 156 157 160
    000415  aa  162 163 164 167
    000416  aa  173 172 061 062
    000417  aa  063 064 065 066
    000420  aa  060 070 071 056
    000421  aa  054 050 051 175
    000422  aa  174 140 055 052
    000423  aa  053 161 165 166
    000424  aa  040 040 040 040     50       aci "                                                "
    000425  aa  040 040 040 040
    000426  aa  040 040 040 040
    000427  aa  040 040 040 040
    000430  aa  040 040 040 040
    000431  aa  040 040 040 040
    000432  aa  040 040 040 040
    000433  aa  040 040 040 040
    000434  aa  040 040 040 040
    000435  aa  040 040 040 040
    000436  aa  040 040 040 040
    000437  aa  040 040 040 040
                        000110      51  	equ	length,288/4		number of words per image
                                    52
    000440                          53  image_count:
    000440  aa   000000 000110      54  	vfd	36/length
                                    55
    000441                          56  high_index:
    000441  aa   000000 000004      57  	dec	4			number of images in this database
                                    58
                                    59  	end	prt300_buffer_image

NO LITERALS

NAME DEFINITIONS FOR ENTRY POINTS AND SEGDEFS

    000442  5a   000003 000000
    000443  5a   000043 600000
    000444  aa   000000 000000
    000445  55   000013 000002
    000446  5a   000002 400003
    000447  55   000006 000013
    000450  aa  023 160 162 164
    000451  aa  063 060 060 137
    000452  aa  142 165 146 146
    000453  aa  145 162 137 151
    000454  aa  155 141 147 145
    000455  55   000021 000003
    000456  0a   000441 400000
    000457  55   000016 000003
    000460  aa  012 150 151 147         high_index
    000461  aa  150 137 151 156
    000462  aa  144 145 170 000
    000463  55   000027 000013
    000464  0a   000440 400000
    000465  55   000024 000003
    000466  aa  013 151 155 141         image_count
    000467  aa  147 145 137 143
    000470  aa  157 165 156 164
    000471  55   000034 000021
    000472  0a   000000 400000
    000473  55   000032 000003
    000474  aa  005 151 155 141         image
    000475  aa  147 145 000 000
    000476  55   000002 000027
    000477  6a   000000 400002
    000500  55   000037 000003
    000501  aa  014 163 171 155         symbol_table
    000502  aa  142 157 154 137
    000503  aa  164 141 142 154
    000504  aa  145 000 000 000

DEFINITIONS HASH TABLE

    000505  aa   000000 000015
    000506  aa   000000 000000
    000507  5a   000021 000000
    000510  aa   000000 000000
    000511  aa   000000 000000
    000512  aa   000000 000000
    000513  5a   000027 000000
    000514  5a   000013 000000
    000515  5a   000034 000000
    000516  aa   000000 000000
    000517  aa   000000 000000
    000520  aa   000000 000000
    000521  aa   000000 000000
    000522  aa   000000 000000

NO EXTERNAL NAMES

NO TRAP POINTER WORDS

TYPE PAIR BLOCKS

    000523  aa   000001 000000
    000524  aa   000000 000000

INTERNAL EXPRESSION WORDS

    000525  aa   000000 000000
LINKAGE INFORMATION

    000000  aa   000000 000000
    000001  0a   000442 000000
    000002  aa   000000 000000
    000003  aa   000000 000000
    000004  aa   000000 000000
    000005  aa   000000 000000
    000006  22   000010 000010
    000007  a2   000000 000000
SYMBOL INFORMATION

SYMBOL TABLE HEADER

    000000  aa   000000 000001
    000001  aa   163171 155142
    000002  aa   164162 145145
    000003  aa   000000 000004
    000004  aa   000000 111316
    000005  aa   510113 575622
    000006  aa   000000 111335
    000007  aa   722340 374676
    000010  aa   141154 155040
    000011  aa   040040 040040
    000012  aa   000024 000040
    000013  aa   000034 000040
    000014  aa   000044 000100
    000015  aa   000002 000002
    000016  aa   000064 000000
    000017  aa   000000 000141
    000020  aa   000000 000105
    000021  aa   000000 000130
    000022  aa   000133 000105
    000023  aa   000064 000000
    000024  aa   101114 115040
    000025  aa   126145 162163
    000026  aa   151157 156040
    000027  aa   040066 056064
    000030  aa   040040 101160
    000031  aa   162151 154040
    000032  aa   061071 070061
    000033  aa   040040 040040
    000034  aa   110157 154155
    000035  aa   163164 145144
    000036  aa   164056 123171
    000037  aa   163115 141151
    000040  aa   156164 056155
    000041  aa   040040 040040
    000042  aa   040040 040040
    000043  aa   040040 040040
    000044  aa   154151 163164
    000045  aa   040040 040040
    000046  aa   040040 040040
    000047  aa   040040 040040
    000050  aa   040040 040040
    000051  aa   040040 040040
    000052  aa   040040 040040
    000053  aa   040040 040040
    000054  aa   040040 040040
    000055  aa   040040 040040
    000056  aa   040040 040040
    000057  aa   040040 040040
    000060  aa   040040 040040
    000061  aa   040040 040040
    000062  aa   040040 040040
    000063  aa   040040 040040
    000064  aa   000000 000001
    000065  aa   000000 000001
    000066  aa   000072 000051
    000067  aa   113331 136032
    000070  aa   000000 111335
    000071  aa   623241 200000
    000072  aa   076144 165155          >dumps>old>recomp>prt300_buffer_image.alm
    000073  aa   160163 076157
    000074  aa   154144 076162
    000075  aa   145143 157155
    000076  aa   160076 160162
    000077  aa   164063 060060
    000100  aa   137142 165146
    000101  aa   146145 162137
    000102  aa   151155 141147
    000103  aa   145056 141154
    000104  aa   155040 040040
               MULTICS ASSEMBLY CROSS REFERENCE LISTING

   Value        Symbol                   Source file   Line number

         441    high_index               prt300_buffer_image:       14,   56.
           0    image                    prt300_buffer_image:       14,   16.
         440    image_count              prt300_buffer_image:       14,   53.
         110    length                   prt300_buffer_image:       51,   54.


NO FATAL ERRORS


                                          -----------------------------------------------------------


Historical Background

This edition of the Multics software materials and documentation is provided and donated
to Massachusetts Institute of Technology by Group BULL including BULL HN Information Systems Inc.
as a contribution to computer science knowledge.
This donation is made also to give evidence of the common contributions of Massachusetts Institute of Technology,
Bell Laboratories, General Electric, Honeywell Information Systems Inc., Honeywell BULL Inc., Groupe BULL
and BULL HN Information Systems Inc. to the development of this operating system.
Multics development was initiated by Massachusetts Institute of Technology Project MAC (1963-1970),
renamed the MIT Laboratory for Computer Science and Artificial Intelligence in the mid 1970s, under the leadership
of Professor Fernando Jose Corbato. Users consider that Multics provided the best software architecture
for managing computer hardware properly and for executing programs. Many subsequent operating systems
incorporated Multics principles.
Multics was distributed in 1975 to 2000 by Group Bull in Europe , and in the U.S. by Bull HN Information Systems Inc.,
as successor in interest by change in name only to Honeywell Bull Inc. and Honeywell Information Systems Inc. .

                                          -----------------------------------------------------------

Permission to use, copy, modify, and distribute these programs and their documentation for any purpose and without
fee is hereby granted,provided that the below copyright notice and historical background appear in all copies
and that both the copyright notice and historical background and this permission notice appear in supporting
documentation, and that the names of MIT, HIS, BULL or BULL HN not be used in advertising or publicity pertaining
to distribution of the programs without specific prior written permission.
    Copyright 1972 by Massachusetts Institute of Technology and Honeywell Information Systems Inc.
    Copyright 2006 by BULL HN Information Systems Inc.
    Copyright 2006 by Bull SAS
    All Rights Reserved
